{"abi":[{"type":"constructor","inputs":[{"name":"localDeploy_","type":"bool","internalType":"bool"}],"stateMutability":"nonpayable"},{"type":"function","name":"approve","inputs":[{"name":"to","type":"address","internalType":"address"},{"name":"tokenId","type":"uint256","internalType":"uint256"}],"outputs":[],"stateMutability":"nonpayable"},{"type":"function","name":"balanceOf","inputs":[{"name":"owner","type":"address","internalType":"address"}],"outputs":[{"name":"","type":"uint256","internalType":"uint256"}],"stateMutability":"view"},{"type":"function","name":"callGetSVGZmapAndMetadataTrait","inputs":[{"name":"_traitId","type":"uint256","internalType":"uint256"},{"name":"_traitsSvg","type":"string","internalType":"string"},{"name":"_traitsAttributes","type":"string","internalType":"string"},{"name":"_traitZMaps","type":"bytes","internalType":"bytes"}],"outputs":[{"name":"traitsSvg","type":"string","internalType":"string"},{"name":"traitsAttributes","type":"string","internalType":"string"},{"name":"traitZMaps","type":"bytes","internalType":"bytes"}],"stateMutability":"view"},{"type":"function","name":"callGetSvgAndMetadataTrait","inputs":[{"name":"_traitId","type":"uint256","internalType":"uint256"},{"name":"_traitsSvg","type":"string","internalType":"string"},{"name":"_traitsAttributes","type":"string","internalType":"string"}],"outputs":[{"name":"traitsSvg","type":"string","internalType":"string"},{"name":"traitsAttributes","type":"string","internalType":"string"}],"stateMutability":"view"},{"type":"function","name":"cancelOwnershipHandover","inputs":[],"outputs":[],"stateMutability":"payable"},{"type":"function","name":"completeOwnershipHandover","inputs":[{"name":"pendingOwner","type":"address","internalType":"address"}],"outputs":[],"stateMutability":"payable"},{"type":"function","name":"createSvgFromPixels","inputs":[{"name":"_pixels","type":"bytes","internalType":"bytes"}],"outputs":[{"name":"svgParts","type":"bytes","internalType":"bytes"}],"stateMutability":"pure"},{"type":"function","name":"getApproved","inputs":[{"name":"tokenId","type":"uint256","internalType":"uint256"}],"outputs":[{"name":"","type":"address","internalType":"address"}],"stateMutability":"view"},{"type":"function","name":"getCurrentEpoch","inputs":[],"outputs":[{"name":"","type":"uint256","internalType":"uint256"}],"stateMutability":"view"},{"type":"function","name":"getEpoch","inputs":[],"outputs":[{"name":"","type":"uint256","internalType":"uint256"}],"stateMutability":"view"},{"type":"function","name":"getEpochData","inputs":[{"name":"index","type":"uint256","internalType":"uint256"}],"outputs":[{"name":"","type":"tuple","internalType":"struct CommitReveal.Epoch","components":[{"name":"randomness","type":"uint128","internalType":"uint128"},{"name":"revealBlock","type":"uint64","internalType":"uint64"},{"name":"committed","type":"bool","internalType":"bool"},{"name":"revealed","type":"bool","internalType":"bool"}]}],"stateMutability":"view"},{"type":"function","name":"getGhostSvg","inputs":[],"outputs":[{"name":"svg","type":"string","internalType":"string"}],"stateMutability":"view"},{"type":"function","name":"getSVGZmapAndMetadataTrait","inputs":[{"name":"trait","type":"tuple","internalType":"struct ITraitStorage.StoredTrait","components":[{"name":"epoch","type":"uint256","internalType":"uint256"},{"name":"isRevealed","type":"bool","internalType":"bool"},{"name":"seed","type":"uint256","internalType":"uint256"},{"name":"renderMinterContract","type":"address","internalType":"address"},{"name":"traitIndex","type":"uint256","internalType":"uint256"},{"name":"traitType","type":"uint8","internalType":"enum TraitCategory.Name"}]},{"name":"traitId","type":"uint256","internalType":"uint256"}],"outputs":[{"name":"traitSvg","type":"string","internalType":"string"},{"name":"traitZmap","type":"bytes","internalType":"bytes"},{"name":"traitAttributes","type":"string","internalType":"string"}],"stateMutability":"view"},{"type":"function","name":"getStoredTraitForTokenId","inputs":[{"name":"_tokenId","type":"uint256","internalType":"uint256"}],"outputs":[{"name":"","type":"tuple","internalType":"struct ITraitStorage.StoredTrait","components":[{"name":"epoch","type":"uint256","internalType":"uint256"},{"name":"isRevealed","type":"bool","internalType":"bool"},{"name":"seed","type":"uint256","internalType":"uint256"},{"name":"renderMinterContract","type":"address","internalType":"address"},{"name":"traitIndex","type":"uint256","internalType":"uint256"},{"name":"traitType","type":"uint8","internalType":"enum TraitCategory.Name"}]}],"stateMutability":"view"},{"type":"function","name":"getSvgAndMetadata","inputs":[{"name":"storedPeter","type":"tuple","internalType":"struct IPeterStorage.StoredPeter","components":[{"name":"headId","type":"uint256","internalType":"uint256"},{"name":"hairId","type":"uint256","internalType":"uint256"},{"name":"faceId","type":"uint256","internalType":"uint256"},{"name":"accessoryId","type":"uint256","internalType":"uint256"},{"name":"topId","type":"uint256","internalType":"uint256"},{"name":"bottomId","type":"uint256","internalType":"uint256"},{"name":"shoesId","type":"uint256","internalType":"uint256"},{"name":"epoch","type":"uint32","internalType":"uint32"},{"name":"tokenId","type":"uint16","internalType":"uint16"},{"name":"bodyIndex","type":"uint256","internalType":"uint256"},{"name":"isRevealed","type":"bool","internalType":"bool"},{"name":"seed","type":"uint256","internalType":"uint256"},{"name":"backgroundColor","type":"string","internalType":"string"},{"name":"renderZ","type":"bool","internalType":"bool"}]}],"outputs":[{"name":"traitsSvg","type":"string","internalType":"string"},{"name":"traitsAttributes","type":"string","internalType":"string"}],"stateMutability":"view"},{"type":"function","name":"getSvgAndMetadataTrait","inputs":[{"name":"trait","type":"tuple","internalType":"struct ITraitStorage.StoredTrait","components":[{"name":"epoch","type":"uint256","internalType":"uint256"},{"name":"isRevealed","type":"bool","internalType":"bool"},{"name":"seed","type":"uint256","internalType":"uint256"},{"name":"renderMinterContract","type":"address","internalType":"address"},{"name":"traitIndex","type":"uint256","internalType":"uint256"},{"name":"traitType","type":"uint8","internalType":"enum TraitCategory.Name"}]},{"name":"traitId","type":"uint256","internalType":"uint256"}],"outputs":[{"name":"traitSvg","type":"string","internalType":"string"},{"name":"traitAttributes","type":"string","internalType":"string"}],"stateMutability":"view"},{"type":"function","name":"getSvgForTokenId","inputs":[{"name":"_tokenId","type":"uint256","internalType":"uint256"}],"outputs":[{"name":"traitSvg","type":"string","internalType":"string"}],"stateMutability":"view"},{"type":"function","name":"getSvgZmapsAndMetadata","inputs":[{"name":"storedPeter","type":"tuple","internalType":"struct IPeterStorage.StoredPeter","components":[{"name":"headId","type":"uint256","internalType":"uint256"},{"name":"hairId","type":"uint256","internalType":"uint256"},{"name":"faceId","type":"uint256","internalType":"uint256"},{"name":"accessoryId","type":"uint256","internalType":"uint256"},{"name":"topId","type":"uint256","internalType":"uint256"},{"name":"bottomId","type":"uint256","internalType":"uint256"},{"name":"shoesId","type":"uint256","internalType":"uint256"},{"name":"epoch","type":"uint32","internalType":"uint32"},{"name":"tokenId","type":"uint16","internalType":"uint16"},{"name":"bodyIndex","type":"uint256","internalType":"uint256"},{"name":"isRevealed","type":"bool","internalType":"bool"},{"name":"seed","type":"uint256","internalType":"uint256"},{"name":"backgroundColor","type":"string","internalType":"string"},{"name":"renderZ","type":"bool","internalType":"bool"}]}],"outputs":[{"name":"traitsSvg","type":"string","internalType":"string"},{"name":"traitZMaps","type":"bytes","internalType":"bytes"},{"name":"traitsAttributes","type":"string","internalType":"string"}],"stateMutability":"view"},{"type":"function","name":"getTrait","inputs":[{"name":"_tokenId","type":"uint256","internalType":"uint256"}],"outputs":[{"name":"","type":"tuple","internalType":"struct ITraitStorage.StoredTrait","components":[{"name":"epoch","type":"uint256","internalType":"uint256"},{"name":"isRevealed","type":"bool","internalType":"bool"},{"name":"seed","type":"uint256","internalType":"uint256"},{"name":"renderMinterContract","type":"address","internalType":"address"},{"name":"traitIndex","type":"uint256","internalType":"uint256"},{"name":"traitType","type":"uint8","internalType":"enum TraitCategory.Name"}]}],"stateMutability":"view"},{"type":"function","name":"getTraitImage","inputs":[{"name":"colorMap","type":"bytes","internalType":"bytes"}],"outputs":[{"name":"","type":"bytes","internalType":"bytes"}],"stateMutability":"pure"},{"type":"function","name":"getTraitImageSvg","inputs":[{"name":"index","type":"uint256","internalType":"uint256"}],"outputs":[{"name":"svg","type":"string","internalType":"string"}],"stateMutability":"view"},{"type":"function","name":"getTraitIndexToMetadata","inputs":[{"name":"_traitIndex","type":"uint256","internalType":"uint256"}],"outputs":[{"name":"","type":"tuple","internalType":"struct ITraitStorage.TraitMetadata","components":[{"name":"traitIndex","type":"uint256","internalType":"uint256"},{"name":"traitName","type":"string","internalType":"string"},{"name":"traitType","type":"uint8","internalType":"enum TraitCategory.Name"},{"name":"animations","type":"string","internalType":"string"},{"name":"colorMap","type":"bytes","internalType":"bytes"},{"name":"zMap","type":"bytes","internalType":"bytes"},{"name":"renderMinterContract","type":"address","internalType":"address"},{"name":"creatorAddress","type":"address","internalType":"address"},{"name":"creatorName","type":"string","internalType":"string"},{"name":"season","type":"string","internalType":"string"}]}],"stateMutability":"view"},{"type":"function","name":"getTraitMetadata","inputs":[{"name":"_tokenId","type":"uint256","internalType":"uint256"}],"outputs":[{"name":"","type":"tuple","internalType":"struct ITraitStorage.TraitMetadata","components":[{"name":"traitIndex","type":"uint256","internalType":"uint256"},{"name":"traitName","type":"string","internalType":"string"},{"name":"traitType","type":"uint8","internalType":"enum TraitCategory.Name"},{"name":"animations","type":"string","internalType":"string"},{"name":"colorMap","type":"bytes","internalType":"bytes"},{"name":"zMap","type":"bytes","internalType":"bytes"},{"name":"renderMinterContract","type":"address","internalType":"address"},{"name":"creatorAddress","type":"address","internalType":"address"},{"name":"creatorName","type":"string","internalType":"string"},{"name":"season","type":"string","internalType":"string"}]}],"stateMutability":"view"},{"type":"function","name":"getTraitType","inputs":[{"name":"_tokenId","type":"uint256","internalType":"uint256"}],"outputs":[{"name":"","type":"uint8","internalType":"enum TraitCategory.Name"}],"stateMutability":"view"},{"type":"function","name":"getZMapForTokenId","inputs":[{"name":"_tokenId","type":"uint256","internalType":"uint256"}],"outputs":[{"name":"","type":"string","internalType":"string"}],"stateMutability":"view"},{"type":"function","name":"ghost","inputs":[],"outputs":[{"name":"colorMap","type":"bytes","internalType":"bytes"},{"name":"zMap","type":"bytes","internalType":"bytes"}],"stateMutability":"view"},{"type":"function","name":"isApprovedForAll","inputs":[{"name":"owner","type":"address","internalType":"address"},{"name":"operator","type":"address","internalType":"address"}],"outputs":[{"name":"","type":"bool","internalType":"bool"}],"stateMutability":"view"},{"type":"function","name":"isMinter","inputs":[{"name":"","type":"address","internalType":"address"}],"outputs":[{"name":"","type":"bool","internalType":"bool"}],"stateMutability":"view"},{"type":"function","name":"minter","inputs":[],"outputs":[{"name":"","type":"address","internalType":"address"}],"stateMutability":"view"},{"type":"function","name":"name","inputs":[],"outputs":[{"name":"","type":"string","internalType":"string"}],"stateMutability":"view"},{"type":"function","name":"onERC721Received","inputs":[{"name":"","type":"address","internalType":"address"},{"name":"","type":"address","internalType":"address"},{"name":"","type":"uint256","internalType":"uint256"},{"name":"","type":"bytes","internalType":"bytes"}],"outputs":[{"name":"","type":"bytes4","internalType":"bytes4"}],"stateMutability":"pure"},{"type":"function","name":"owner","inputs":[],"outputs":[{"name":"result","type":"address","internalType":"address"}],"stateMutability":"view"},{"type":"function","name":"ownerOf","inputs":[{"name":"tokenId","type":"uint256","internalType":"uint256"}],"outputs":[{"name":"","type":"address","internalType":"address"}],"stateMutability":"view"},{"type":"function","name":"ownershipHandoverExpiresAt","inputs":[{"name":"pendingOwner","type":"address","internalType":"address"}],"outputs":[{"name":"result","type":"uint256","internalType":"uint256"}],"stateMutability":"view"},{"type":"function","name":"renderAsDataUri","inputs":[{"name":"_tokenId","type":"uint256","internalType":"uint256"}],"outputs":[{"name":"","type":"string","internalType":"string"}],"stateMutability":"view"},{"type":"function","name":"renounceOwnership","inputs":[],"outputs":[],"stateMutability":"payable"},{"type":"function","name":"requestOwnershipHandover","inputs":[],"outputs":[],"stateMutability":"payable"},{"type":"function","name":"resolveEpochIfNecessary","inputs":[],"outputs":[],"stateMutability":"nonpayable"},{"type":"function","name":"safeMint","inputs":[{"name":"_to","type":"address","internalType":"address"}],"outputs":[{"name":"","type":"uint256","internalType":"uint256"}],"stateMutability":"nonpayable"},{"type":"function","name":"safeTransferFrom","inputs":[{"name":"from","type":"address","internalType":"address"},{"name":"to","type":"address","internalType":"address"},{"name":"tokenId","type":"uint256","internalType":"uint256"}],"outputs":[],"stateMutability":"nonpayable"},{"type":"function","name":"safeTransferFrom","inputs":[{"name":"from","type":"address","internalType":"address"},{"name":"to","type":"address","internalType":"address"},{"name":"tokenId","type":"uint256","internalType":"uint256"},{"name":"data","type":"bytes","internalType":"bytes"}],"outputs":[],"stateMutability":"nonpayable"},{"type":"function","name":"setApprovalForAll","inputs":[{"name":"operator","type":"address","internalType":"address"},{"name":"approved","type":"bool","internalType":"bool"}],"outputs":[],"stateMutability":"nonpayable"},{"type":"function","name":"setGhostMaps","inputs":[{"name":"_colorMap","type":"bytes","internalType":"bytes"},{"name":"_zMap","type":"bytes","internalType":"bytes"}],"outputs":[],"stateMutability":"nonpayable"},{"type":"function","name":"setTraitForTokenId","inputs":[{"name":"_tokenId","type":"uint256","internalType":"uint256"},{"name":"_trait","type":"tuple","internalType":"struct ITraitStorage.StoredTrait","components":[{"name":"epoch","type":"uint256","internalType":"uint256"},{"name":"isRevealed","type":"bool","internalType":"bool"},{"name":"seed","type":"uint256","internalType":"uint256"},{"name":"renderMinterContract","type":"address","internalType":"address"},{"name":"traitIndex","type":"uint256","internalType":"uint256"},{"name":"traitType","type":"uint8","internalType":"enum TraitCategory.Name"}]}],"outputs":[],"stateMutability":"nonpayable"},{"type":"function","name":"setTraitIndexToMetadata","inputs":[{"name":"_traitIndex","type":"uint256","internalType":"uint256"},{"name":"_metadata","type":"tuple","internalType":"struct ITraitStorage.TraitMetadata","components":[{"name":"traitIndex","type":"uint256","internalType":"uint256"},{"name":"traitName","type":"string","internalType":"string"},{"name":"traitType","type":"uint8","internalType":"enum TraitCategory.Name"},{"name":"animations","type":"string","internalType":"string"},{"name":"colorMap","type":"bytes","internalType":"bytes"},{"name":"zMap","type":"bytes","internalType":"bytes"},{"name":"renderMinterContract","type":"address","internalType":"address"},{"name":"creatorAddress","type":"address","internalType":"address"},{"name":"creatorName","type":"string","internalType":"string"},{"name":"season","type":"string","internalType":"string"}]}],"outputs":[],"stateMutability":"nonpayable"},{"type":"function","name":"signer","inputs":[],"outputs":[{"name":"","type":"address","internalType":"address"}],"stateMutability":"view"},{"type":"function","name":"supportsInterface","inputs":[{"name":"interfaceId","type":"bytes4","internalType":"bytes4"}],"outputs":[{"name":"","type":"bool","internalType":"bool"}],"stateMutability":"view"},{"type":"function","name":"symbol","inputs":[],"outputs":[{"name":"","type":"string","internalType":"string"}],"stateMutability":"view"},{"type":"function","name":"tokenByIndex","inputs":[{"name":"index","type":"uint256","internalType":"uint256"}],"outputs":[{"name":"","type":"uint256","internalType":"uint256"}],"stateMutability":"view"},{"type":"function","name":"tokenOfOwnerByIndex","inputs":[{"name":"owner","type":"address","internalType":"address"},{"name":"index","type":"uint256","internalType":"uint256"}],"outputs":[{"name":"","type":"uint256","internalType":"uint256"}],"stateMutability":"view"},{"type":"function","name":"tokenURI","inputs":[{"name":"_tokenId","type":"uint256","internalType":"uint256"}],"outputs":[{"name":"","type":"string","internalType":"string"}],"stateMutability":"view"},{"type":"function","name":"totalSupply","inputs":[],"outputs":[{"name":"","type":"uint256","internalType":"uint256"}],"stateMutability":"view"},{"type":"function","name":"traitIndexToMetadata","inputs":[{"name":"","type":"uint256","internalType":"uint256"}],"outputs":[{"name":"traitIndex","type":"uint256","internalType":"uint256"},{"name":"traitName","type":"string","internalType":"string"},{"name":"traitType","type":"uint8","internalType":"enum TraitCategory.Name"},{"name":"animations","type":"string","internalType":"string"},{"name":"colorMap","type":"bytes","internalType":"bytes"},{"name":"zMap","type":"bytes","internalType":"bytes"},{"name":"renderMinterContract","type":"address","internalType":"address"},{"name":"creatorAddress","type":"address","internalType":"address"},{"name":"creatorName","type":"string","internalType":"string"},{"name":"season","type":"string","internalType":"string"}],"stateMutability":"view"},{"type":"function","name":"traitTokens","inputs":[],"outputs":[{"name":"epoch","type":"uint256","internalType":"uint256"}],"stateMutability":"view"},{"type":"function","name":"transferFrom","inputs":[{"name":"from","type":"address","internalType":"address"},{"name":"to","type":"address","internalType":"address"},{"name":"tokenId","type":"uint256","internalType":"uint256"}],"outputs":[],"stateMutability":"nonpayable"},{"type":"function","name":"transferOwnership","inputs":[{"name":"newOwner","type":"address","internalType":"address"}],"outputs":[],"stateMutability":"payable"},{"type":"function","name":"walletOfOwner","inputs":[{"name":"_owner","type":"address","internalType":"address"}],"outputs":[{"name":"","type":"uint256[]","internalType":"uint256[]"}],"stateMutability":"view"},{"type":"event","name":"Approval","inputs":[{"name":"owner","type":"address","indexed":true,"internalType":"address"},{"name":"approved","type":"address","indexed":true,"internalType":"address"},{"name":"tokenId","type":"uint256","indexed":true,"internalType":"uint256"}],"anonymous":false},{"type":"event","name":"ApprovalForAll","inputs":[{"name":"owner","type":"address","indexed":true,"internalType":"address"},{"name":"operator","type":"address","indexed":true,"internalType":"address"},{"name":"approved","type":"bool","indexed":false,"internalType":"bool"}],"anonymous":false},{"type":"event","name":"BatchMetadataUpdate","inputs":[{"name":"_fromTokenId","type":"uint256","indexed":false,"internalType":"uint256"},{"name":"_toTokenId","type":"uint256","indexed":false,"internalType":"uint256"}],"anonymous":false},{"type":"event","name":"MetadataUpdate","inputs":[{"name":"_tokenId","type":"uint256","indexed":false,"internalType":"uint256"}],"anonymous":false},{"type":"event","name":"Mint","inputs":[{"name":"owner","type":"address","indexed":true,"internalType":"address"},{"name":"tokenId","type":"uint256","indexed":true,"internalType":"uint256"}],"anonymous":false},{"type":"event","name":"NewEpoch","inputs":[{"name":"epoch","type":"uint256","indexed":true,"internalType":"uint256"},{"name":"revealBlock","type":"uint64","indexed":true,"internalType":"uint64"}],"anonymous":false},{"type":"event","name":"OwnershipHandoverCanceled","inputs":[{"name":"pendingOwner","type":"address","indexed":true,"internalType":"address"}],"anonymous":false},{"type":"event","name":"OwnershipHandoverRequested","inputs":[{"name":"pendingOwner","type":"address","indexed":true,"internalType":"address"}],"anonymous":false},{"type":"event","name":"OwnershipTransferred","inputs":[{"name":"oldOwner","type":"address","indexed":true,"internalType":"address"},{"name":"newOwner","type":"address","indexed":true,"internalType":"address"}],"anonymous":false},{"type":"event","name":"Transfer","inputs":[{"name":"from","type":"address","indexed":true,"internalType":"address"},{"name":"to","type":"address","indexed":true,"internalType":"address"},{"name":"tokenId","type":"uint256","indexed":true,"internalType":"uint256"}],"anonymous":false},{"type":"error","name":"AlreadyInitialized","inputs":[]},{"type":"error","name":"NewOwnerIsZeroAddress","inputs":[]},{"type":"error","name":"NoHandoverRequest","inputs":[]},{"type":"error","name":"NotAValidMinterContract","inputs":[]},{"type":"error","name":"TraitNotFound","inputs":[{"name":"_tokenId","type":"uint256","internalType":"uint256"}]},{"type":"error","name":"TraitTokenDoesntExist","inputs":[]},{"type":"error","name":"Unauthorized","inputs":[]}],"bytecode":{"object":"0x60806040523480156200001157600080fd5b50604051620067c7380380620067c78339810160408190526200003491620000fb565b6040518060400160405280600b81526020016a506574657254726169747360a81b81525060405180604001604052806003815260200162282a2960e91b8152508160009081620000859190620001cd565b506001620000948282620001cd565b505050620000a833620000bf60201b60201c565b6013805460ff191691151591909117905562000299565b6001600160a01b0316638b78c6d8198190558060007f8be0079c531659141344cd1fd0a4f28419497f9722a3daafe3b4186f6b6457e08180a350565b6000602082840312156200010e57600080fd5b815180151581146200011f57600080fd5b9392505050565b634e487b7160e01b600052604160045260246000fd5b600181811c908216806200015157607f821691505b6020821081036200017257634e487b7160e01b600052602260045260246000fd5b50919050565b601f821115620001c8576000816000526020600020601f850160051c81016020861015620001a35750805b601f850160051c820191505b81811015620001c457828155600101620001af565b5050505b505050565b81516001600160401b03811115620001e957620001e962000126565b6200020181620001fa84546200013c565b8462000178565b602080601f831160018114620002395760008415620002205750858301515b600019600386901b1c1916600185901b178555620001c4565b600085815260208120601f198616915b828110156200026a5788860151825594840194600190910190840162000249565b5085821015620002895787850151600019600388901b60f8161c191681555b5050505050600190811b01905550565b61651e80620002a96000396000f3fe6080604052600436106103765760003560e01c8063817a29a4116101d1578063b97dd9e211610102578063e8a1268d116100a0578063f12719421161006f578063f127194214610b1b578063f2fde38b14610b3b578063f901667f14610b4e578063fee81cf414610b6e57600080fd5b8063e8a1268d14610a72578063e985e9c514610a9f578063ea13954414610ae8578063f04e283e14610b0857600080fd5b8063d1bfc2af116100dc578063d1bfc2af146109ee578063e08714a614610a1b578063e14d026f14610a3b578063e1defed914610a5257600080fd5b8063b97dd9e2146106fe578063c7791531146109ae578063c87b56dd146109ce57600080fd5b8063a1d626801161016f578063a8498c7411610149578063a8498c741461091e578063aa271e1a1461093e578063acb586df1461096e578063b88d4fde1461098e57600080fd5b8063a1d62680146108be578063a22cb465146108de578063a5e2912a146108fe57600080fd5b80638d37c537116101ab5780638d37c537146108505780638da5cb5b1461087057806395d89b4114610889578063a0d97fce1461089e57600080fd5b8063817a29a414610713578063859e7d3214610749578063898aa1171461083057600080fd5b80632f745c59116102ab57806351dc7189116102495780636352211e116102235780636352211e146106b657806370a08231146106d6578063715018a6146106f6578063757991a8146106fe57600080fd5b806351dc71891461068457806354d1f13d146106995780635c1ef256146106a157600080fd5b806340d097c31161028557806340d097c3146105f757806342842e0e14610617578063438b6300146106375780634f6ccce71461066457600080fd5b80632f745c591461058957806333a70328146105a957806336d34ab9146105d757600080fd5b80631bcd52ca11610318578063238ac933116102f2578063238ac9331461052c578063239ffa681461054c57806323b872dd14610561578063256929621461058157600080fd5b80631bcd52ca146104b0578063208c25a3146104df57806321b12c231461050c57600080fd5b8063081812fc11610354578063081812fc1461040a578063095ea7b31461042a578063150b7a021461044c57806318160ddd1461049157600080fd5b806301ffc9a71461037b57806306fdde03146103b057806307546172146103d2575b600080fd5b34801561038757600080fd5b5061039b610396366004614ee5565b610ba1565b60405190151581526020015b60405180910390f35b3480156103bc57600080fd5b506103c5610bb2565b6040516103a79190614f59565b3480156103de57600080fd5b50600f546103f2906001600160a01b031681565b6040516001600160a01b0390911681526020016103a7565b34801561041657600080fd5b506103f2610425366004614f6c565b610c44565b34801561043657600080fd5b5061044a610445366004614faa565b610c6b565b005b34801561045857600080fd5b50610478610467366004614fd6565b630a85bd0160e11b95945050505050565b6040516001600160e01b031990911681526020016103a7565b34801561049d57600080fd5b506008545b6040519081526020016103a7565b3480156104bc57600080fd5b506104d06104cb3660046151e4565b610d85565b6040516103a7939291906152fa565b3480156104eb57600080fd5b506104ff6104fa366004614f6c565b610ed1565b6040516103a791906153bd565b34801561051857600080fd5b506103c56105273660046153cb565b610f99565b34801561053857600080fd5b506010546103f2906001600160a01b031681565b34801561055857600080fd5b5061044a6117e2565b34801561056d57600080fd5b5061044a61057c3660046153ff565b6119be565b61044a6119ef565b34801561059557600080fd5b506104a26105a4366004614faa565b611a3e565b3480156105b557600080fd5b506105c96105c43660046154cb565b611ad4565b6040516103a79291906154f6565b3480156105e357600080fd5b5061044a6105f236600461551b565b611c7e565b34801561060357600080fd5b506104a2610612366004615548565b611d17565b34801561062357600080fd5b5061044a6106323660046153ff565b611d84565b34801561064357600080fd5b50610657610652366004615548565b611d9f565b6040516103a79190615565565b34801561067057600080fd5b506104a261067f366004614f6c565b611e36565b34801561069057600080fd5b506105c9611ec9565b61044a611fe9565b3480156106ad57600080fd5b506103c5612025565b3480156106c257600080fd5b506103f26106d1366004614f6c565b6120f5565b3480156106e257600080fd5b506104a26106f1366004615548565b612155565b61044a6121db565b34801561070a57600080fd5b50600b546104a2565b34801561071f57600080fd5b5061073361072e366004614f6c565b6121ef565b6040516103a79a999897969594939291906155a9565b34801561075557600080fd5b506107e7610764366004614f6c565b6040805160808082018352600080835260208084018290528385018290526060938401829052948152600c855283902083519182018452546001600160801b03811682526001600160401b03600160801b8204169482019490945260ff600160c01b85048116151593820193909352600160c81b90930490911615159082015290565b6040516103a7919081516001600160801b031681526020808301516001600160401b03169082015260408083015115159082015260609182015115159181019190915260800190565b34801561083c57600080fd5b506103c561084b3660046153cb565b612587565b34801561085c57600080fd5b5061044a61086b36600461565e565b6127d9565b34801561087c57600080fd5b50638b78c6d819546103f2565b34801561089557600080fd5b506103c56128d8565b3480156108aa57600080fd5b506105c96108b93660046151e4565b6128e7565b3480156108ca57600080fd5b506103c56108d9366004614f6c565b6129fa565b3480156108ea57600080fd5b5061044a6108f93660046157cc565b613059565b34801561090a57600080fd5b506103c5610919366004614f6c565b613068565b34801561092a57600080fd5b506103c5610939366004614f6c565b6130c4565b34801561094a57600080fd5b5061039b610959366004615548565b60126020526000908152604090205460ff1681565b34801561097a57600080fd5b506104ff610989366004614f6c565b61317c565b34801561099a57600080fd5b5061044a6109a9366004615805565b61331b565b3480156109ba57600080fd5b506103c56109c9366004614f6c565b613353565b3480156109da57600080fd5b506103c56109e9366004614f6c565b6133ad565b3480156109fa57600080fd5b50610a0e610a09366004614f6c565b6133ee565b6040516103a79190615870565b348015610a2757600080fd5b506105c9610a36366004615979565b6137fb565b348015610a4757600080fd5b50600b546104a29081565b348015610a5e57600080fd5b5061044a610a6d3660046159e5565b613886565b348015610a7e57600080fd5b50610a92610a8d366004614f6c565b6138a7565b6040516103a79190615a48565b348015610aab57600080fd5b5061039b610aba366004615a56565b6001600160a01b03918216600090815260056020908152604080832093909416825291909152205460ff1690565b348015610af457600080fd5b50610a0e610b03366004614f6c565b613cb4565b61044a610b16366004615548565b6140af565b348015610b2757600080fd5b506104d0610b36366004615a84565b6140ec565b61044a610b49366004615548565b6141a6565b348015610b5a57600080fd5b506104d0610b693660046154cb565b6141cd565b348015610b7a57600080fd5b506104a2610b89366004615548565b63389a75e1600c908152600091909152602090205490565b6000610bac82614354565b92915050565b606060008054610bc190615b09565b80601f0160208091040260200160405190810160405280929190818152602001828054610bed90615b09565b8015610c3a5780601f10610c0f57610100808354040283529160200191610c3a565b820191906000526020600020905b815481529060010190602001808311610c1d57829003601f168201915b5050505050905090565b6000610c4f82614379565b506000908152600460205260409020546001600160a01b031690565b6000610c76826120f5565b9050806001600160a01b0316836001600160a01b031603610ce85760405162461bcd60e51b815260206004820152602160248201527f4552433732313a20617070726f76616c20746f2063757272656e74206f776e656044820152603960f91b60648201526084015b60405180910390fd5b336001600160a01b0382161480610d045750610d048133610aba565b610d765760405162461bcd60e51b815260206004820152603e60248201527f4552433732313a20617070726f76652063616c6c6572206973206e6f7420746f60448201527f6b656e206f776e6572206e6f7220617070726f76656420666f7220616c6c00006064820152608401610cdf565b610d8083836143d8565b505050565b6060806060836101400151610dda576040518060200160405280600081525060405180602001604052806000815250604051806040016040528060028152602001617b7d60f01b815250925092509250610eca565b60c084015115610dfd57610df48460c001518483856140ec565b91945090925090505b60a084015115610e2057610e178460a001518483856140ec565b91945090925090505b608084015115610e4357610e3a84608001518483856140ec565b91945090925090505b604084015115610e6657610e5d84604001518483856140ec565b91945090925090505b602084015115610e8957610e8084602001518483856140ec565b91945090925090505b835115610ea7578351610e9e908483856140ec565b91945090925090505b606084015115610eca57610ec184606001518483856140ec565b91945090925090505b9193909250565b610f076040805160c08101825260008082526020820181905291810182905260608101829052608081018290529060a082015290565b6000828152600a6020908152604091829020825160c08101845281548152600182015460ff90811615159382019390935260028201549381019390935260038101546001600160a01b03166060840152600481015460808401526005810154909160a0840191166007811115610f7f57610f7f61533d565b6007811115610f9057610f9061533d565b90525092915050565b60606000604051806102000160405280604051806040016040528060018152602001600360fc1b8152508152602001604051806040016040528060018152602001603160f81b8152508152602001604051806040016040528060018152602001601960f91b8152508152602001604051806040016040528060018152602001603360f81b8152508152602001604051806040016040528060018152602001600d60fa1b8152508152602001604051806040016040528060018152602001603560f81b8152508152602001604051806040016040528060018152602001601b60f91b8152508152602001604051806040016040528060018152602001603760f81b8152508152602001604051806040016040528060018152602001600760fb1b8152508152602001604051806040016040528060018152602001603960f81b8152508152602001604051806040016040528060018152602001606160f81b8152508152602001604051806040016040528060018152602001603160f91b8152508152602001604051806040016040528060018152602001606360f81b8152508152602001604051806040016040528060018152602001601960fa1b8152508152602001604051806040016040528060018152602001606560f81b8152508152602001604051806040016040528060018152602001603360f91b81525081525090506000604051806103c00160405280604051806040016040528060018152602001600360fc1b8152508152602001604051806040016040528060018152602001603160f81b8152508152602001604051806040016040528060018152602001601960f91b8152508152602001604051806040016040528060018152602001603360f81b8152508152602001604051806040016040528060018152602001600d60fa1b8152508152602001604051806040016040528060018152602001603560f81b8152508152602001604051806040016040528060018152602001601b60f91b8152508152602001604051806040016040528060018152602001603760f81b8152508152602001604051806040016040528060018152602001600760fb1b8152508152602001604051806040016040528060018152602001603960f81b815250815260200160405180604001604052806002815260200161031360f41b815250815260200160405180604001604052806002815260200161313160f01b815250815260200160405180604001604052806002815260200161189960f11b815250815260200160405180604001604052806002815260200161313360f01b8152508152602001604051806040016040528060028152602001610c4d60f21b815250815260200160405180604001604052806002815260200161313560f01b815250815260200160405180604001604052806002815260200161189b60f11b815250815260200160405180604001604052806002815260200161313760f01b815250815260200160405180604001604052806002815260200161062760f31b815250815260200160405180604001604052806002815260200161313960f01b815250815260200160405180604001604052806002815260200161032360f41b815250815260200160405180604001604052806002815260200161323160f01b815250815260200160405180604001604052806002815260200161191960f11b815250815260200160405180604001604052806002815260200161323360f01b8152508152602001604051806040016040528060028152602001610c8d60f21b815250815260200160405180604001604052806002815260200161323560f01b815250815260200160405180604001604052806002815260200161191b60f11b815250815260200160405180604001604052806002815260200161323760f01b815250815260200160405180604001604052806002815260200161064760f31b815250815260200160405180604001604052806002815260200161323960f01b815250815250905060005b6111948110156117da57600060f81b85828151811061158157611581615b3d565b01602001516001600160f81b03191611156117c8576000601e6115a5600584615b7f565b6115af9190615b93565b90506000601e6115c0600585615b7f565b6115ca9190615b7f565b90506000856004896115dd876002615ba7565b815181106115ed576115ed615b3d565b016020015160f81c901c60ff166010811061160a5761160a615b3d565b6020020151868961161c876002615ba7565b8151811061162c5761162c615b3d565b60209101015160f81c600f166010811061164857611648615b3d565b60200201518760048b61165c896003615ba7565b8151811061166c5761166c615b3d565b016020015160f81c901c60ff166010811061168957611689615b3d565b6020020151888b61169b896003615ba7565b815181106116ab576116ab615b3d565b60209101015160f81c600f16601081106116c7576116c7615b3d565b60200201518960048d6116da8b83615ba7565b815181106116ea576116ea615b3d565b016020015160f81c901c60ff166010811061170757611707615b3d565b60200201518a8d6117198b6004615ba7565b8151811061172957611729615b3d565b60209101015160f81c600f166010811061174557611745615b3d565b602002015160405160200161175f96959493929190615bba565b6040516020818303038152906040529050868584601e811061178357611783615b3d565b60200201518684601e811061179a5761179a615b3d565b6020020151836040516020016117b39493929190615c39565b60405160208183030381529060405296505050505b6117d3600582615ba7565b9050611560565b505050919050565b600b546000908152600c602052604090208054600160c01b900460ff16158061183a57508054600160c81b900460ff1615801561183a575061182661010043615cf3565b8154600160801b90046001600160401b0316105b156118855761184a436032615ba7565b815460ff60c01b196001600160401b0392909216600160801b029190911668ffffffffffffffffff60801b1990911617600160c01b17815550565b8054600160801b90046001600160401b03164311156119bb57805460408051600160801b9092046001600160401b031640602083015244908201526001600160801b03906060016040516020818303038152906040528051906020012060001c6118ef9190615b93565b8154600160c81b6001600160801b039290921679ff000000000000000000ffffffffffffffffffffffffffffffff199091161717808255600b54604051600160801b9092046001600160401b0316917f78611aecfda8d341359c248df527c95aef93d446c92bb928b2a81b7abcb1d8d990600090a3604080516000815260001960208201527f6bd5c950a8d8df17f772f5af37cb3655737899cbf903264b9795592da439661c910160405180910390a1600b80546000906119af90615d06565b909155506119bb6117e2565b50565b6119c83382614446565b6119e45760405162461bcd60e51b8152600401610cdf90615d1f565b610d808383836144c5565b60006202a3006001600160401b03164201905063389a75e1600c5233600052806020600c2055337fdbf36a107da19e49527a7176a1babf963b4b0ff8cde35ee35d6cd8f1f9ac7e1d600080a250565b6000611a4983612155565b8210611aab5760405162461bcd60e51b815260206004820152602b60248201527f455243373231456e756d657261626c653a206f776e657220696e646578206f7560448201526a74206f6620626f756e647360a81b6064820152608401610cdf565b506001600160a01b03919091166000908152600660209081526040808320938352929052205490565b60608083602001518015611ae85750600083115b15611c3357608084015160009081526011602052604090819020600281015491516301be83d160e11b81529091611c1c9173__$4987fe9f4e800c5c4c1535f64ed232842a$__9163037d07a291611b459160ff1690600401615a48565b600060405180830381865af4158015611b62573d6000803e3d6000fd5b505050506040513d6000823e601f3d908101601f19168201604052611b8a9190810190615d6d565b826001018054611b9990615b09565b80601f0160208091040260200160405190810160405280929190818152602001828054611bc590615b09565b8015611c125780601f10611be757610100808354040283529160200191611c12565b820191906000526020600020905b815481529060010190602001808311611bf557829003601f168201915b505050505061466c565b9150611c2b8560800151613068565b925050611c77565b604051806040016040528060028152602001617b7d60f01b81525090506040518060400160405280600b81526020016a1e39bb339f1e17b9bb339f60a91b81525091505b9250929050565b6000828152600a602090815260409182902083518155908301516001808301805492151560ff1993841617905592840151600283015560608401516003830180546001600160a01b039092166001600160a01b03199092169190911790556080840151600483015560a0840151600583018054869592939192911690836007811115611d0c57611d0c61533d565b021790555050505050565b6000611d216117e2565b6000611d2c60085490565b611d37906001615ba7565b9050611d438382614698565b604080516000815260001960208201527f6bd5c950a8d8df17f772f5af37cb3655737899cbf903264b9795592da439661c910160405180910390a192915050565b610d808383836040518060200160405280600081525061331b565b60606000611dac83612155565b90506000816001600160401b03811115611dc857611dc8615074565b604051908082528060200260200182016040528015611df1578160200160208202803683370190505b50905060005b82811015611e2e57611e098582611a3e565b828281518110611e1b57611e1b615b3d565b6020908102919091010152600101611df7565b509392505050565b6000611e4160085490565b8210611ea45760405162461bcd60e51b815260206004820152602c60248201527f455243373231456e756d657261626c653a20676c6f62616c20696e646578206f60448201526b7574206f6620626f756e647360a01b6064820152608401610cdf565b60088281548110611eb757611eb7615b3d565b90600052602060002001549050919050565b600d80548190611ed890615b09565b80601f0160208091040260200160405190810160405280929190818152602001828054611f0490615b09565b8015611f515780601f10611f2657610100808354040283529160200191611f51565b820191906000526020600020905b815481529060010190602001808311611f3457829003601f168201915b505050505090806001018054611f6690615b09565b80601f0160208091040260200160405190810160405280929190818152602001828054611f9290615b09565b8015611fdf5780601f10611fb457610100808354040283529160200191611fdf565b820191906000526020600020905b815481529060010190602001808311611fc257829003601f168201915b5050505050905082565b63389a75e1600c523360005260006020600c2055337ffa7b8eab7da67f412cc9575ed43464468f9bfbae89d1675917346ca6d8fe3c92600080a2565b606060006120bf600d600001805461203c90615b09565b80601f016020809104026020016040519081016040528092919081815260200182805461206890615b09565b80156120b55780601f1061208a576101008083540402835291602001916120b5565b820191906000526020600020905b81548152906001019060200180831161209857829003601f168201915b5050505050612587565b905060006120cc82610f99565b9050806040516020016120df9190615dda565b6040516020818303038152906040529250505090565b6000818152600260205260408120546001600160a01b031680610bac5760405162461bcd60e51b8152602060048201526018602482015277115490cdcc8c4e881a5b9d985b1a59081d1bdad95b88125160421b6044820152606401610cdf565b60006001600160a01b0382166121bf5760405162461bcd60e51b815260206004820152602960248201527f4552433732313a2061646472657373207a65726f206973206e6f7420612076616044820152683634b21037bbb732b960b91b6064820152608401610cdf565b506001600160a01b031660009081526003602052604090205490565b6121e36146b2565b6121ed60006146cd565b565b6011602052600090815260409020805460018201805491929161221190615b09565b80601f016020809104026020016040519081016040528092919081815260200182805461223d90615b09565b801561228a5780601f1061225f5761010080835404028352916020019161228a565b820191906000526020600020905b81548152906001019060200180831161226d57829003601f168201915b5050506002840154600385018054949560ff9092169491935091506122ae90615b09565b80601f01602080910402602001604051908101604052809291908181526020018280546122da90615b09565b80156123275780601f106122fc57610100808354040283529160200191612327565b820191906000526020600020905b81548152906001019060200180831161230a57829003601f168201915b50505050509080600401805461233c90615b09565b80601f016020809104026020016040519081016040528092919081815260200182805461236890615b09565b80156123b55780601f1061238a576101008083540402835291602001916123b5565b820191906000526020600020905b81548152906001019060200180831161239857829003601f168201915b5050505050908060050180546123ca90615b09565b80601f01602080910402602001604051908101604052809291908181526020018280546123f690615b09565b80156124435780601f1061241857610100808354040283529160200191612443565b820191906000526020600020905b81548152906001019060200180831161242657829003601f168201915b5050506006840154600785015460088601805495966001600160a01b039384169692909316945091925061247690615b09565b80601f01602080910402602001604051908101604052809291908181526020018280546124a290615b09565b80156124ef5780601f106124c4576101008083540402835291602001916124ef565b820191906000526020600020905b8154815290600101906020018083116124d257829003601f168201915b50505050509080600901805461250490615b09565b80601f016020809104026020016040519081016040528092919081815260200182805461253090615b09565b801561257d5780601f106125525761010080835404028352916020019161257d565b820191906000526020600020905b81548152906001019060200180831161256057829003601f168201915b505050505090508a565b8051604080516111948082526111c08201909252606092916000919060208201818036833701905050905060006125bf600584615b7f565b905060005b818110156127cf5760006125d9826005615e44565b905060008782815181106125ef576125ef615b3d565b016020015160f81c9050600088612607846001615ba7565b8151811061261757612617615b3d565b016020015160f81c9050600060ff831661263283601e615e44565b61263c9190615ba7565b612647906005615e44565b905089848151811061265b5761265b615b3d565b602001015160f81c60f81b87828151811061267857612678615b3d565b60200101906001600160f81b031916908160001a9053508984600101815181106126a4576126a4615b3d565b602001015160f81c60f81b8782600101815181106126c4576126c4615b3d565b60200101906001600160f81b031916908160001a9053508984600201815181106126f0576126f0615b3d565b602001015160f81c60f81b87826002018151811061271057612710615b3d565b60200101906001600160f81b031916908160001a90535089846003018151811061273c5761273c615b3d565b602001015160f81c60f81b87826003018151811061275c5761275c615b3d565b60200101906001600160f81b031916908160001a90535089846004018151811061278857612788615b3d565b602001015160f81c60f81b8782600401815181106127a8576127a8615b3d565b60200101906001600160f81b031916908160001a90535050600190930192506125c4915050565b5090949350505050565b6000828152601160209081526040909120825181559082015182919060018201906128049082615eab565b50604082015160028201805460ff191660018360078111156128285761282861533d565b0217905550606082015160038201906128419082615eab565b50608082015160048201906128569082615eab565b5060a0820151600582019061286b9082615eab565b5060c08201516006820180546001600160a01b039283166001600160a01b03199182161790915560e084015160078401805491909316911617905561010082015160088201906128bb9082615eab565b5061012082015160098201906128d19082615eab565b5050505050565b606060018054610bc190615b09565b606080826101400151612921575050604080516020808201835260008252825180840190935260028352617b7d60f01b9083015292909150565b60c0830151156129405761293a8360c0015183836137fb565b90925090505b60a08301511561295f576129598360a0015183836137fb565b90925090505b60808301511561297e57612978836080015183836137fb565b90925090505b60408301511561299d57612997836040015183836137fb565b90925090505b6020830151156129bc576129b6836020015183836137fb565b90925090505b8251156129d65782516129d09083836137fb565b90925090505b6060830151156129f5576129ef836060015183836137fb565b90925090505b915091565b6060806060806000612a0a612025565b90506000612a178761317c565b9050806020015115612f3757600060116000836080015181526020019081526020016000206040518061014001604052908160008201548152602001600182018054612a6290615b09565b80601f0160208091040260200160405190810160405280929190818152602001828054612a8e90615b09565b8015612adb5780601f10612ab057610100808354040283529160200191612adb565b820191906000526020600020905b815481529060010190602001808311612abe57829003601f168201915b5050509183525050600282015460209091019060ff166007811115612b0257612b0261533d565b6007811115612b1357612b1361533d565b8152602001600382018054612b2790615b09565b80601f0160208091040260200160405190810160405280929190818152602001828054612b5390615b09565b8015612ba05780601f10612b7557610100808354040283529160200191612ba0565b820191906000526020600020905b815481529060010190602001808311612b8357829003601f168201915b50505050508152602001600482018054612bb990615b09565b80601f0160208091040260200160405190810160405280929190818152602001828054612be590615b09565b8015612c325780601f10612c0757610100808354040283529160200191612c32565b820191906000526020600020905b815481529060010190602001808311612c1557829003601f168201915b50505050508152602001600582018054612c4b90615b09565b80601f0160208091040260200160405190810160405280929190818152602001828054612c7790615b09565b8015612cc45780601f10612c9957610100808354040283529160200191612cc4565b820191906000526020600020905b815481529060010190602001808311612ca757829003601f168201915b505050918352505060068201546001600160a01b0390811660208301526007830154166040820152600882018054606090920191612d0190615b09565b80601f0160208091040260200160405190810160405280929190818152602001828054612d2d90615b09565b8015612d7a5780601f10612d4f57610100808354040283529160200191612d7a565b820191906000526020600020905b815481529060010190602001808311612d5d57829003601f168201915b50505050508152602001600982018054612d9390615b09565b80601f0160208091040260200160405190810160405280929190818152602001828054612dbf90615b09565b8015612e0c5780601f10612de157610100808354040283529160200191612e0c565b820191906000526020600020905b815481529060010190602001808311612def57829003601f168201915b5050505050815250509050612e248260800151613068565b9450612eb373__$4987fe9f4e800c5c4c1535f64ed232842a$__63037d07a28460a001516040518263ffffffff1660e01b8152600401612e649190615a48565b600060405180830381865af4158015612e81573d6000803e3d6000fd5b505050506040513d6000823e601f3d908101601f19168201604052612ea99190810190615d6d565b826020015161466c565b612ee16040518060400160405280600781526020016621b932b0ba37b960c91b81525083610100015161466c565b612f0e6040518060400160405280600681526020016529b2b0b9b7b760d11b81525084610120015161466c565b604051602001612f2093929190615f6a565b604051602081830303815290604052935050612f88565b6040518060400160405280600f81526020016e2261747472696275746573223a5b5d60881b81525092506040518060400160405280600b81526020016a1e39bb339f1e17b9bb339f60a91b81525093505b60405180610100016040528060d2815260200161641760d291398285604051602001612fb693929190615fed565b60405160208183030381529060405294506000612fd28661470b565b604051602001612fe29190616041565b60405160208183030381529060405290506000612ffe89614719565b85836040516020016130129392919061609d565b604051602081830303815290604052905061302c8161470b565b60405160200161303c9190616158565b604051602081830303815290604052975050505050505050919050565b61306433838361475d565b5050565b600081815260116020526040812060040180546060929161308c9161203c90615b09565b9050600061309982610f99565b9050806040516020016130ac919061619d565b60405160208183030381529060405292505050919050565b606060006130d18361317c565b608081015160009081526011602052604090206005018054919250906130f690615b09565b80601f016020809104026020016040519081016040528092919081815260200182805461312290615b09565b801561316f5780601f106131445761010080835404028352916020019161316f565b820191906000526020600020905b81548152906001019060200180831161315257829003601f168201915b5050505050915050919050565b6131b26040805160c08101825260008082526020820181905291810182905260608101829052608081018290529060a082015290565b6000828152600a60209081526040808320815160c08101835281548152600182015460ff90811615159482019490945260028201549281019290925260038101546001600160a01b031660608301526004810154608083015260058101549192909160a084019116600781111561322b5761322b61533d565b600781111561323c5761323c61533d565b90525080516000908152600c602052604090205460608201519192506001600160801b0316906001600160a01b03811615801561327b57506040830151155b1561329c5760405163082d451d60e01b815260048101869052602401610cdf565b60135460405163687d69df60e11b81526001600160a01b0383169163d0fad3be916132d19160ff1690879087906004016161e2565b60c060405180830381865afa1580156132ee573d6000803e3d6000fd5b505050506040513d601f19601f820116820180604052508101906133129190616210565b95945050505050565b6133253383614446565b6133415760405162461bcd60e51b8152600401610cdf90615d1f565b61334d8484848461482b565b50505050565b606060006133608361317c565b9050806020015115613380576133798160800151613068565b91506133a7565b6040518060400160405280600b81526020016a1e39bb339f1e17b9bb339f60a91b81525091505b50919050565b6000818152600260205260409020546060906001600160a01b03166133e557604051632df0e24560e21b815260040160405180910390fd5b610bac826129fa565b6133f6614e6a565b60006134018361317c565b90506011600082608001518152602001908152602001600020604051806101400160405290816000820154815260200160018201805461344090615b09565b80601f016020809104026020016040519081016040528092919081815260200182805461346c90615b09565b80156134b95780601f1061348e576101008083540402835291602001916134b9565b820191906000526020600020905b81548152906001019060200180831161349c57829003601f168201915b5050509183525050600282015460209091019060ff1660078111156134e0576134e061533d565b60078111156134f1576134f161533d565b815260200160038201805461350590615b09565b80601f016020809104026020016040519081016040528092919081815260200182805461353190615b09565b801561357e5780601f106135535761010080835404028352916020019161357e565b820191906000526020600020905b81548152906001019060200180831161356157829003601f168201915b5050505050815260200160048201805461359790615b09565b80601f01602080910402602001604051908101604052809291908181526020018280546135c390615b09565b80156136105780601f106135e557610100808354040283529160200191613610565b820191906000526020600020905b8154815290600101906020018083116135f357829003601f168201915b5050505050815260200160058201805461362990615b09565b80601f016020809104026020016040519081016040528092919081815260200182805461365590615b09565b80156136a25780601f10613677576101008083540402835291602001916136a2565b820191906000526020600020905b81548152906001019060200180831161368557829003601f168201915b505050918352505060068201546001600160a01b03908116602083015260078301541660408201526008820180546060909201916136df90615b09565b80601f016020809104026020016040519081016040528092919081815260200182805461370b90615b09565b80156137585780601f1061372d57610100808354040283529160200191613758565b820191906000526020600020905b81548152906001019060200180831161373b57829003601f168201915b5050505050815260200160098201805461377190615b09565b80601f016020809104026020016040519081016040528092919081815260200182805461379d90615b09565b80156137ea5780601f106137bf576101008083540402835291602001916137ea565b820191906000526020600020905b8154815290600101906020018083116137cd57829003601f168201915b505050505081525050915050919050565b606080606080600061380c8861317c565b90506138188189611ad4565b87519094509092506000036138325781945082935061387b565b8682604051602001613845929190616282565b604051602081830303815290604052945085836040516020016138699291906162b1565b60405160208183030381529060405293505b505050935093915050565b61388e6146b2565b600d61389a8382615eab565b50600e610d808282615eab565b6000806138b38361317c565b90506000601160008360800151815260200190815260200160002060405180610140016040529081600082015481526020016001820180546138f490615b09565b80601f016020809104026020016040519081016040528092919081815260200182805461392090615b09565b801561396d5780601f106139425761010080835404028352916020019161396d565b820191906000526020600020905b81548152906001019060200180831161395057829003601f168201915b5050509183525050600282015460209091019060ff1660078111156139945761399461533d565b60078111156139a5576139a561533d565b81526020016003820180546139b990615b09565b80601f01602080910402602001604051908101604052809291908181526020018280546139e590615b09565b8015613a325780601f10613a0757610100808354040283529160200191613a32565b820191906000526020600020905b815481529060010190602001808311613a1557829003601f168201915b50505050508152602001600482018054613a4b90615b09565b80601f0160208091040260200160405190810160405280929190818152602001828054613a7790615b09565b8015613ac45780601f10613a9957610100808354040283529160200191613ac4565b820191906000526020600020905b815481529060010190602001808311613aa757829003601f168201915b50505050508152602001600582018054613add90615b09565b80601f0160208091040260200160405190810160405280929190818152602001828054613b0990615b09565b8015613b565780601f10613b2b57610100808354040283529160200191613b56565b820191906000526020600020905b815481529060010190602001808311613b3957829003601f168201915b505050918352505060068201546001600160a01b0390811660208301526007830154166040820152600882018054606090920191613b9390615b09565b80601f0160208091040260200160405190810160405280929190818152602001828054613bbf90615b09565b8015613c0c5780601f10613be157610100808354040283529160200191613c0c565b820191906000526020600020905b815481529060010190602001808311613bef57829003601f168201915b50505050508152602001600982018054613c2590615b09565b80601f0160208091040260200160405190810160405280929190818152602001828054613c5190615b09565b8015613c9e5780601f10613c7357610100808354040283529160200191613c9e565b820191906000526020600020905b815481529060010190602001808311613c8157829003601f168201915b5050509190925250505060400151949350505050565b613cbc614e6a565b601160008381526020019081526020016000206040518061014001604052908160008201548152602001600182018054613cf590615b09565b80601f0160208091040260200160405190810160405280929190818152602001828054613d2190615b09565b8015613d6e5780601f10613d4357610100808354040283529160200191613d6e565b820191906000526020600020905b815481529060010190602001808311613d5157829003601f168201915b5050509183525050600282015460209091019060ff166007811115613d9557613d9561533d565b6007811115613da657613da661533d565b8152602001600382018054613dba90615b09565b80601f0160208091040260200160405190810160405280929190818152602001828054613de690615b09565b8015613e335780601f10613e0857610100808354040283529160200191613e33565b820191906000526020600020905b815481529060010190602001808311613e1657829003601f168201915b50505050508152602001600482018054613e4c90615b09565b80601f0160208091040260200160405190810160405280929190818152602001828054613e7890615b09565b8015613ec55780601f10613e9a57610100808354040283529160200191613ec5565b820191906000526020600020905b815481529060010190602001808311613ea857829003601f168201915b50505050508152602001600582018054613ede90615b09565b80601f0160208091040260200160405190810160405280929190818152602001828054613f0a90615b09565b8015613f575780601f10613f2c57610100808354040283529160200191613f57565b820191906000526020600020905b815481529060010190602001808311613f3a57829003601f168201915b505050918352505060068201546001600160a01b0390811660208301526007830154166040820152600882018054606090920191613f9490615b09565b80601f0160208091040260200160405190810160405280929190818152602001828054613fc090615b09565b801561400d5780601f10613fe25761010080835404028352916020019161400d565b820191906000526020600020905b815481529060010190602001808311613ff057829003601f168201915b5050505050815260200160098201805461402690615b09565b80601f016020809104026020016040519081016040528092919081815260200182805461405290615b09565b801561409f5780601f106140745761010080835404028352916020019161409f565b820191906000526020600020905b81548152906001019060200180831161408257829003601f168201915b5050505050815250509050919050565b6140b76146b2565b63389a75e1600c52806000526020600c2080544211156140df57636f5e88186000526004601cfd5b600090556119bb816146cd565b60608060608060608060006141008b61317c565b905061410c818c6141cd565b8b51909650919450925060000361412b57829650839550819450614198565b898360405160200161413e929190616282565b604051602081830303815290604052965088846040516020016141629291906162b1565b60405160208183030381529060405295508782604051602001614186929190616282565b60405160208183030381529060405294505b505050509450945094915050565b6141ae6146b2565b8060601b6141c457637448fbae6000526004601cfd5b6119bb816146cd565b6060806060846020015180156141e35750600084115b156142f7576080850180516000908152601160205260409020905161420790613068565b60028201546040516301be83d160e11b815291955061424c9173__$4987fe9f4e800c5c4c1535f64ed232842a$__9163037d07a291611b459160ff1690600401615a48565b6080870151600090815260116020526040902060050180549193509061427190615b09565b80601f016020809104026020016040519081016040528092919081815260200182805461429d90615b09565b80156142ea5780601f106142bf576101008083540402835291602001916142ea565b820191906000526020600020905b8154815290600101906020018083116142cd57829003601f168201915b505050505092505061434d565b6040518060400160405280600b81526020016a1e39bb339f1e17b9bb339f60a91b8152509250604051806040016040528060028152602001617b7d60f01b81525090506040518060200160405280600081525091505b9250925092565b60006001600160e01b0319821663780e9d6360e01b1480610bac5750610bac8261485e565b6000818152600260205260409020546001600160a01b03166119bb5760405162461bcd60e51b8152602060048201526018602482015277115490cdcc8c4e881a5b9d985b1a59081d1bdad95b88125160421b6044820152606401610cdf565b600081815260046020526040902080546001600160a01b0319166001600160a01b038416908117909155819061440d826120f5565b6001600160a01b03167f8c5be1e5ebec7d5bd14f71427d1e84f3dd0314c0f7b2291e5b200ac8c7c3b92560405160405180910390a45050565b600080614452836120f5565b9050806001600160a01b0316846001600160a01b0316148061449957506001600160a01b0380821660009081526005602090815260408083209388168352929052205460ff165b806144bd5750836001600160a01b03166144b284610c44565b6001600160a01b0316145b949350505050565b826001600160a01b03166144d8826120f5565b6001600160a01b03161461453c5760405162461bcd60e51b815260206004820152602560248201527f4552433732313a207472616e736665722066726f6d20696e636f72726563742060448201526437bbb732b960d91b6064820152608401610cdf565b6001600160a01b03821661459e5760405162461bcd60e51b8152602060048201526024808201527f4552433732313a207472616e7366657220746f20746865207a65726f206164646044820152637265737360e01b6064820152608401610cdf565b6145a98383836148ae565b6145b46000826143d8565b6001600160a01b03831660009081526003602052604081208054600192906145dd908490615cf3565b90915550506001600160a01b038216600090815260036020526040812080546001929061460b908490615ba7565b909155505060008181526002602052604080822080546001600160a01b0319166001600160a01b0386811691821790925591518493918716917fddf252ad1be2c89b69c2b068fc378daa952ba7f163c4a11628f55a4df523b3ef91a4505050565b606082826040516020016146819291906162ed565b604051602081830303815290604052905092915050565b6130648282604051806020016040528060008152506148b9565b638b78c6d8195433146121ed576382b429006000526004601cfd5b638b78c6d81980546001600160a01b039092169182907f8be0079c531659141344cd1fd0a4f28419497f9722a3daafe3b4186f6b6457e0600080a355565b6060610bac826000806148ec565b60606080604051019050602081016040526000815280600019835b928101926030600a8206018453600a900480614734575050819003601f19909101908152919050565b816001600160a01b0316836001600160a01b0316036147be5760405162461bcd60e51b815260206004820152601960248201527f4552433732313a20617070726f766520746f2063616c6c6572000000000000006044820152606401610cdf565b6001600160a01b03838116600081815260056020908152604080832094871680845294825291829020805460ff191686151590811790915591519182527f17307eab39ab6107e8899845ad3d59bd9653f200f220920489ca2b5937696c31910160405180910390a3505050565b6148368484846144c5565b614842848484846149d3565b61334d5760405162461bcd60e51b8152600401610cdf9061635e565b60006001600160e01b031982166380ac58cd60e01b148061488f57506001600160e01b03198216635b5e139f60e01b145b80610bac57506301ffc9a760e01b6001600160e01b0319831614610bac565b610d80838383614ad4565b6148c38383614b8c565b6148d060008484846149d3565b610d805760405162461bcd60e51b8152600401610cdf9061635e565b606083518015611e2e576003600282010460021b60405192507f4142434445464748494a4b4c4d4e4f505152535455565758595a616263646566601f526106708515027f6768696a6b6c6d6e6f707172737475767778797a303132333435363738392d5f18603f52602083018181015b6003880197508751603f8160121c1651600053603f81600c1c1651600153603f8160061c1651600253603f81165160035350600051825260048201915080821061495c57602001604052613d3d60f01b60038406600204808303919091526000861515909102918290035290038252509392505050565b60006001600160a01b0384163b15614ac957604051630a85bd0160e11b81526001600160a01b0385169063150b7a0290614a179033908990889088906004016163b0565b6020604051808303816000875af1925050508015614a52575060408051601f3d908101601f19168201909252614a4f918101906163e3565b60015b614aaf573d808015614a80576040519150601f19603f3d011682016040523d82523d6000602084013e614a85565b606091505b508051600003614aa75760405162461bcd60e51b8152600401610cdf9061635e565b805181602001fd5b6001600160e01b031916630a85bd0160e11b1490506144bd565b506001949350505050565b6001600160a01b038316614b2f57614b2a81600880546000838152600960205260408120829055600182018355919091527ff3f7a9fe364faab93b216da50a3214154f22a0a2b415b23a84c8169e8b636ee30155565b614b52565b816001600160a01b0316836001600160a01b031614614b5257614b528382614cda565b6001600160a01b038216614b6957610d8081614d77565b826001600160a01b0316826001600160a01b031614610d8057610d808282614e26565b6001600160a01b038216614be25760405162461bcd60e51b815260206004820181905260248201527f4552433732313a206d696e7420746f20746865207a65726f20616464726573736044820152606401610cdf565b6000818152600260205260409020546001600160a01b031615614c475760405162461bcd60e51b815260206004820152601c60248201527f4552433732313a20746f6b656e20616c7265616479206d696e746564000000006044820152606401610cdf565b614c53600083836148ae565b6001600160a01b0382166000908152600360205260408120805460019290614c7c908490615ba7565b909155505060008181526002602052604080822080546001600160a01b0319166001600160a01b03861690811790915590518392907fddf252ad1be2c89b69c2b068fc378daa952ba7f163c4a11628f55a4df523b3ef908290a45050565b60006001614ce784612155565b614cf19190615cf3565b600083815260076020526040902054909150808214614d44576001600160a01b03841660009081526006602090815260408083208584528252808320548484528184208190558352600790915290208190555b5060009182526007602090815260408084208490556001600160a01b039094168352600681528383209183525290812055565b600854600090614d8990600190615cf3565b60008381526009602052604081205460088054939450909284908110614db157614db1615b3d565b906000526020600020015490508060088381548110614dd257614dd2615b3d565b6000918252602080832090910192909255828152600990915260408082208490558582528120556008805480614e0a57614e0a616400565b6001900381819060005260206000200160009055905550505050565b6000614e3183612155565b6001600160a01b039093166000908152600660209081526040808320868452825280832085905593825260079052919091209190915550565b60408051610140810182526000808252606060208301529091820190815260200160608152602001606081526020016060815260200160006001600160a01b0316815260200160006001600160a01b0316815260200160608152602001606081525090565b6001600160e01b0319811681146119bb57600080fd5b600060208284031215614ef757600080fd5b8135614f0281614ecf565b9392505050565b60005b83811015614f24578181015183820152602001614f0c565b50506000910152565b60008151808452614f45816020860160208601614f09565b601f01601f19169290920160200192915050565b602081526000614f026020830184614f2d565b600060208284031215614f7e57600080fd5b5035919050565b6001600160a01b03811681146119bb57600080fd5b8035614fa581614f85565b919050565b60008060408385031215614fbd57600080fd5b8235614fc881614f85565b946020939093013593505050565b600080600080600060808688031215614fee57600080fd5b8535614ff981614f85565b9450602086013561500981614f85565b93506040860135925060608601356001600160401b038082111561502c57600080fd5b818801915088601f83011261504057600080fd5b81358181111561504f57600080fd5b89602082850101111561506157600080fd5b9699959850939650602001949392505050565b634e487b7160e01b600052604160045260246000fd5b6040516101c081016001600160401b03811182821017156150ad576150ad615074565b60405290565b60405160c081016001600160401b03811182821017156150ad576150ad615074565b60405161014081016001600160401b03811182821017156150ad576150ad615074565b604051601f8201601f191681016001600160401b038111828210171561512057615120615074565b604052919050565b803563ffffffff81168114614fa557600080fd5b803561ffff81168114614fa557600080fd5b80151581146119bb57600080fd5b8035614fa58161514e565b60006001600160401b0382111561518057615180615074565b50601f01601f191660200190565b600082601f83011261519f57600080fd5b81356151b26151ad82615167565b6150f8565b8181528460208386010111156151c757600080fd5b816020850160208301376000918101602001919091529392505050565b6000602082840312156151f657600080fd5b81356001600160401b038082111561520d57600080fd5b908301906101c0828603121561522257600080fd5b61522a61508a565b823581526020830135602082015260408301356040820152606083013560608201526080830135608082015260a083013560a082015260c083013560c082015261527660e08401615128565b60e082015261010061528981850161513c565b9082015261012083810135908201526101406152a681850161515c565b90820152610160838101359082015261018080840135838111156152c957600080fd5b6152d58882870161518e565b8284015250506101a091506152eb82840161515c565b91810191909152949350505050565b60608152600061530d6060830186614f2d565b828103602084015261531f8186614f2d565b905082810360408401526153338185614f2d565b9695505050505050565b634e487b7160e01b600052602160045260246000fd5b6008811061537157634e487b7160e01b600052602160045260246000fd5b9052565b805182526020810151151560208301526040810151604083015260018060a01b0360608201511660608301526080810151608083015260a0810151610d8060a0840182615353565b60c08101610bac8284615375565b6000602082840312156153dd57600080fd5b81356001600160401b038111156153f357600080fd5b6144bd8482850161518e565b60008060006060848603121561541457600080fd5b833561541f81614f85565b9250602084013561542f81614f85565b929592945050506040919091013590565b600881106119bb57600080fd5b8035614fa581615440565b600060c0828403121561546a57600080fd5b6154726150b3565b90508135815260208201356154868161514e565b60208201526040828101359082015260608201356154a381614f85565b60608201526080828101359082015260a08201356154c081615440565b60a082015292915050565b60008060e083850312156154de57600080fd5b6154e88484615458565b9460c0939093013593505050565b6040815260006155096040830185614f2d565b82810360208401526133128185614f2d565b60008060e0838503121561552e57600080fd5b8235915061553f8460208501615458565b90509250929050565b60006020828403121561555a57600080fd5b8135614f0281614f85565b6020808252825182820181905260009190848201906040850190845b8181101561559d57835183529284019291840191600101615581565b50909695505050505050565b60006101408c83528060208401526155c38184018d614f2d565b90506155d2604084018c615353565b82810360608401526155e4818b614f2d565b905082810360808401526155f8818a614f2d565b905082810360a084015261560c8189614f2d565b6001600160a01b0388811660c0860152871660e085015283810361010085015290506156388186614f2d565b905082810361012084015261564d8185614f2d565b9d9c50505050505050505050505050565b6000806040838503121561567157600080fd5b8235915060208301356001600160401b038082111561568f57600080fd5b9084019061014082870312156156a457600080fd5b6156ac6150d5565b823581526020830135828111156156c257600080fd5b6156ce8882860161518e565b6020830152506156e06040840161544d565b60408201526060830135828111156156f757600080fd5b6157038882860161518e565b60608301525060808301358281111561571b57600080fd5b6157278882860161518e565b60808301525060a08301358281111561573f57600080fd5b61574b8882860161518e565b60a08301525061575d60c08401614f9a565b60c082015261576e60e08401614f9a565b60e0820152610100808401358381111561578757600080fd5b6157938982870161518e565b82840152505061012080840135838111156157ad57600080fd5b6157b98982870161518e565b8284015250508093505050509250929050565b600080604083850312156157df57600080fd5b82356157ea81614f85565b915060208301356157fa8161514e565b809150509250929050565b6000806000806080858703121561581b57600080fd5b843561582681614f85565b9350602085013561583681614f85565b92506040850135915060608501356001600160401b0381111561585857600080fd5b6158648782880161518e565b91505092959194509250565b602081528151602082015260006020830151610140806040850152615899610160850183614f2d565b915060408501516158ad6060860182615353565b506060850151601f19808685030160808701526158ca8483614f2d565b935060808701519150808685030160a08701526158e78483614f2d565b935060a08701519150808685030160c08701526159048483614f2d565b935060c0870151915061592260e08701836001600160a01b03169052565b60e08701519150610100615940818801846001600160a01b03169052565b8088015192505061012081878603018188015261595d8584614f2d565b9088015187820390920184880152935090506153338382614f2d565b60008060006060848603121561598e57600080fd5b8335925060208401356001600160401b03808211156159ac57600080fd5b6159b88783880161518e565b935060408601359150808211156159ce57600080fd5b506159db8682870161518e565b9150509250925092565b600080604083850312156159f857600080fd5b82356001600160401b0380821115615a0f57600080fd5b615a1b8683870161518e565b93506020850135915080821115615a3157600080fd5b50615a3e8582860161518e565b9150509250929050565b60208101610bac8284615353565b60008060408385031215615a6957600080fd5b8235615a7481614f85565b915060208301356157fa81614f85565b60008060008060808587031215615a9a57600080fd5b8435935060208501356001600160401b0380821115615ab857600080fd5b615ac48883890161518e565b94506040870135915080821115615ada57600080fd5b615ae68883890161518e565b93506060870135915080821115615afc57600080fd5b506158648782880161518e565b600181811c90821680615b1d57607f821691505b6020821081036133a757634e487b7160e01b600052602260045260246000fd5b634e487b7160e01b600052603260045260246000fd5b634e487b7160e01b600052601260045260246000fd5b634e487b7160e01b600052601160045260246000fd5b600082615b8e57615b8e615b53565b500490565b600082615ba257615ba2615b53565b500690565b80820180821115610bac57610bac615b69565b600087516020615bcd8285838d01614f09565b885191840191615be08184848d01614f09565b8851920191615bf28184848c01614f09565b8751920191615c048184848b01614f09565b8651920191615c168184848a01614f09565b8551920191615c288184848901614f09565b919091019998505050505050505050565b60008551615c4b818460208a01614f09565b681e3932b1ba103c1e9160b91b9083019081528551615c71816009840160208a01614f09565b6411103c9e9160d91b600992909101918201528451615c9781600e840160208901614f09565b7f222077696474683d223122206865696768743d2231222066696c6c3d22230000600e92909101918201528351615cd581602c840160208801614f09565b6211179f60e91b602c9290910191820152602f019695505050505050565b81810381811115610bac57610bac615b69565b600060018201615d1857615d18615b69565b5060010190565b6020808252602e908201527f4552433732313a2063616c6c6572206973206e6f7420746f6b656e206f776e6560408201526d1c881b9bdc88185c1c1c9bdd995960921b606082015260800190565b600060208284031215615d7f57600080fd5b81516001600160401b03811115615d9557600080fd5b8201601f81018413615da657600080fd5b8051615db46151ad82615167565b818152856020838501011115615dc957600080fd5b613312826020830160208601614f09565b7f3c672069643d2267686f73742220636c6173733d226722207374796c653d226f81526d3830b1b4ba3c9d101a98129d911f60911b602082015260008251615e2981602e850160208701614f09565b631e17b39f60e11b602e939091019283015250603201919050565b8082028115828204841417610bac57610bac615b69565b601f821115610d80576000816000526020600020601f850160051c81016020861015615e845750805b601f850160051c820191505b81811015615ea357828155600101615e90565b505050505050565b81516001600160401b03811115615ec457615ec4615074565b615ed881615ed28454615b09565b84615e5b565b602080601f831160018114615f0d5760008415615ef55750858301515b600019600386901b1c1916600185901b178555615ea3565b600085815260208120601f198616915b82811015615f3c57888601518255948401946001909101908401615f1d565b5085821015615f5a5787850151600019600388901b60f8161c191681555b5050505050600190811b01905550565b6d2261747472696275746573223a5b60901b81528351600090615f9481600e850160208901614f09565b8083019050600b60fa1b80600e8301528551615fb781600f850160208a01614f09565b600f9201918201528351615fd2816010840160208801614f09565b605d60f81b6010929091019182015260110195945050505050565b60008451615fff818460208901614f09565b845190830190616013818360208901614f09565b8451910190616026818360208801614f09565b651e17b9bb339f60d11b910190815260060195945050505050565b7f22696d616765223a22646174613a696d6167652f7376672b786d6c3b626173658152620d8d0b60ea1b602082015260008251616085816023850160208701614f09565b601160f91b6023939091019283015250602401919050565b757b226e616d65223a225065746572205472616974202360501b815283516000906160cf816016850160208901614f09565b7f222c226465736372697074696f6e223a2254686973206973206a757374206120601691840191820152651d195cdd088b60d21b6036820152845161611b81603c840160208901614f09565b600b60fa1b603c9290910191820152835161613d81603d840160208801614f09565b607d60f81b603d9290910191820152603e0195945050505050565b7f646174613a6170706c69636174696f6e2f6a736f6e3b6261736536342c00000081526000825161619081601d850160208701614f09565b91909101601d0192915050565b6d1e339034b21e912a3930b4ba111f60911b815281516000906161c781600e850160208701614f09565b631e17b39f60e11b600e939091019283015250601201919050565b831515815261010081016161f96020830185615375565b6001600160801b03831660e0830152949350505050565b600060c0828403121561622257600080fd5b61622a6150b3565b82518152602083015161623c8161514e565b602082015260408381015190820152606083015161625981614f85565b60608201526080838101519082015260a083015161627681615440565b60a08201529392505050565b60008351616294818460208801614f09565b8351908301906162a8818360208801614f09565b01949350505050565b600083516162c3818460208801614f09565b600b60fa1b90830190815283516162e1816001840160208801614f09565b01600101949350505050565b6e3d913a3930b4ba2fba3cb832911d1160891b8152825160009061631881600f850160208801614f09565b6a1116113b30b63ab2911d1160a91b600f91840191820152835161634381601a840160208801614f09565b61227d60f01b601a9290910191820152601c01949350505050565b60208082526032908201527f4552433732313a207472616e7366657220746f206e6f6e20455243373231526560408201527131b2b4bb32b91034b6b83632b6b2b73a32b960711b606082015260800190565b6001600160a01b038581168252841660208201526040810183905260806060820181905260009061533390830184614f2d565b6000602082840312156163f557600080fd5b8151614f0281614ecf565b634e487b7160e01b600052603160045260246000fdfe3c7376672073686170652d72656e646572696e673d2263726973704564676573222076696577426f783d22302030203330203330222066696c6c3d226e6f6e652220786d6c6e733d22687474703a2f2f7777772e77332e6f72672f323030302f737667223e3c7374796c653e726563747b77696474683a3170783b206865696768743a203170783b7d202e62677b77696474683a333070783b206865696768743a20333070783b7d203c2f7374796c653e3c7265637420636c6173733d226267222066696c6c3d2223304436453944222f3ea2646970667358221220def4ce8229e2b4830bb79df2b891c19fde5848ff20f2b67ca50845a2ad72253864736f6c63430008160033","linkReferences":{"src/TraitCategory.sol":{"TraitCategory":[{"start":7620,"length":20},{"start":12500,"length":20},{"start":17611,"length":20}]}}},"methodIdentifiers":{"approve(address,uint256)":"095ea7b3","balanceOf(address)":"70a08231","callGetSVGZmapAndMetadataTrait(uint256,string,string,bytes)":"f1271942","callGetSvgAndMetadataTrait(uint256,string,string)":"e08714a6","cancelOwnershipHandover()":"54d1f13d","completeOwnershipHandover(address)":"f04e283e","createSvgFromPixels(bytes)":"21b12c23","getApproved(uint256)":"081812fc","getCurrentEpoch()":"b97dd9e2","getEpoch()":"757991a8","getEpochData(uint256)":"859e7d32","getGhostSvg()":"5c1ef256","getSVGZmapAndMetadataTrait((uint256,bool,uint256,address,uint256,uint8),uint256)":"f901667f","getStoredTraitForTokenId(uint256)":"208c25a3","getSvgAndMetadata((uint256,uint256,uint256,uint256,uint256,uint256,uint256,uint32,uint16,uint256,bool,uint256,string,bool))":"a0d97fce","getSvgAndMetadataTrait((uint256,bool,uint256,address,uint256,uint8),uint256)":"33a70328","getSvgForTokenId(uint256)":"c7791531","getSvgZmapsAndMetadata((uint256,uint256,uint256,uint256,uint256,uint256,uint256,uint32,uint16,uint256,bool,uint256,string,bool))":"1bcd52ca","getTrait(uint256)":"acb586df","getTraitImage(bytes)":"898aa117","getTraitImageSvg(uint256)":"a5e2912a","getTraitIndexToMetadata(uint256)":"ea139544","getTraitMetadata(uint256)":"d1bfc2af","getTraitType(uint256)":"e8a1268d","getZMapForTokenId(uint256)":"a8498c74","ghost()":"51dc7189","isApprovedForAll(address,address)":"e985e9c5","isMinter(address)":"aa271e1a","minter()":"07546172","name()":"06fdde03","onERC721Received(address,address,uint256,bytes)":"150b7a02","owner()":"8da5cb5b","ownerOf(uint256)":"6352211e","ownershipHandoverExpiresAt(address)":"fee81cf4","renderAsDataUri(uint256)":"a1d62680","renounceOwnership()":"715018a6","requestOwnershipHandover()":"25692962","resolveEpochIfNecessary()":"239ffa68","safeMint(address)":"40d097c3","safeTransferFrom(address,address,uint256)":"42842e0e","safeTransferFrom(address,address,uint256,bytes)":"b88d4fde","setApprovalForAll(address,bool)":"a22cb465","setGhostMaps(bytes,bytes)":"e1defed9","setTraitForTokenId(uint256,(uint256,bool,uint256,address,uint256,uint8))":"36d34ab9","setTraitIndexToMetadata(uint256,(uint256,string,uint8,string,bytes,bytes,address,address,string,string))":"8d37c537","signer()":"238ac933","supportsInterface(bytes4)":"01ffc9a7","symbol()":"95d89b41","tokenByIndex(uint256)":"4f6ccce7","tokenOfOwnerByIndex(address,uint256)":"2f745c59","tokenURI(uint256)":"c87b56dd","totalSupply()":"18160ddd","traitIndexToMetadata(uint256)":"817a29a4","traitTokens()":"e14d026f","transferFrom(address,address,uint256)":"23b872dd","transferOwnership(address)":"f2fde38b","walletOfOwner(address)":"438b6300"},"id":41}