{"abi":[{"type":"constructor","inputs":[{"name":"localDeploy_","type":"bool","internalType":"bool"}],"stateMutability":"nonpayable"},{"type":"function","name":"addMinter","inputs":[{"name":"_minter","type":"address","internalType":"address"}],"outputs":[],"stateMutability":"nonpayable"},{"type":"function","name":"approve","inputs":[{"name":"_operator","type":"address","internalType":"address"},{"name":"_tokenId","type":"uint256","internalType":"uint256"}],"outputs":[],"stateMutability":"nonpayable"},{"type":"function","name":"balanceOf","inputs":[{"name":"owner","type":"address","internalType":"address"}],"outputs":[{"name":"","type":"uint256","internalType":"uint256"}],"stateMutability":"view"},{"type":"function","name":"burn","inputs":[{"name":"tokenId","type":"uint256","internalType":"uint256"}],"outputs":[],"stateMutability":"nonpayable"},{"type":"function","name":"burnBatch","inputs":[{"name":"tokenIds","type":"uint256[]","internalType":"uint256[]"}],"outputs":[],"stateMutability":"nonpayable"},{"type":"function","name":"callGetSVGZmapAndMetadataTrait","inputs":[{"name":"_traitId","type":"uint256","internalType":"uint256"},{"name":"_traitsSvg","type":"string","internalType":"string"},{"name":"_traitsAttributes","type":"string","internalType":"string"},{"name":"_traitZMaps","type":"bytes","internalType":"bytes"}],"outputs":[{"name":"traitsSvg","type":"string","internalType":"string"},{"name":"traitsAttributes","type":"string","internalType":"string"},{"name":"traitZMaps","type":"bytes","internalType":"bytes"}],"stateMutability":"view"},{"type":"function","name":"callGetSvgAndMetadataTrait","inputs":[{"name":"_traitId","type":"uint256","internalType":"uint256"},{"name":"_traitsSvg","type":"string","internalType":"string"},{"name":"_traitsAttributes","type":"string","internalType":"string"}],"outputs":[{"name":"traitsSvg","type":"string","internalType":"string"},{"name":"traitsAttributes","type":"string","internalType":"string"}],"stateMutability":"view"},{"type":"function","name":"cancelOwnershipHandover","inputs":[],"outputs":[],"stateMutability":"payable"},{"type":"function","name":"completeOwnershipHandover","inputs":[{"name":"pendingOwner","type":"address","internalType":"address"}],"outputs":[],"stateMutability":"payable"},{"type":"function","name":"createSvgFromPixels","inputs":[{"name":"_pixels","type":"bytes","internalType":"bytes"}],"outputs":[{"name":"svgParts","type":"bytes","internalType":"bytes"}],"stateMutability":"view"},{"type":"function","name":"getApproved","inputs":[{"name":"tokenId","type":"uint256","internalType":"uint256"}],"outputs":[{"name":"","type":"address","internalType":"address"}],"stateMutability":"view"},{"type":"function","name":"getApprovedOperators","inputs":[{"name":"traitId","type":"uint256","internalType":"uint256"}],"outputs":[{"name":"","type":"address[]","internalType":"address[]"}],"stateMutability":"view"},{"type":"function","name":"getApprovedOperatorsLength","inputs":[{"name":"traitId","type":"uint256","internalType":"uint256"}],"outputs":[{"name":"","type":"uint256","internalType":"uint256"}],"stateMutability":"view"},{"type":"function","name":"getCurrentEpoch","inputs":[],"outputs":[{"name":"","type":"uint256","internalType":"uint256"}],"stateMutability":"view"},{"type":"function","name":"getEpoch","inputs":[],"outputs":[{"name":"","type":"uint256","internalType":"uint256"}],"stateMutability":"view"},{"type":"function","name":"getEpochData","inputs":[{"name":"index","type":"uint256","internalType":"uint256"}],"outputs":[{"name":"","type":"tuple","internalType":"struct CommitReveal.Epoch","components":[{"name":"randomness","type":"uint128","internalType":"uint128"},{"name":"revealBlock","type":"uint64","internalType":"uint64"},{"name":"committed","type":"bool","internalType":"bool"},{"name":"revealed","type":"bool","internalType":"bool"}]}],"stateMutability":"view"},{"type":"function","name":"getGhostSvg","inputs":[],"outputs":[{"name":"svg","type":"string","internalType":"string"}],"stateMutability":"view"},{"type":"function","name":"getSVGZmapAndMetadataTrait","inputs":[{"name":"trait","type":"tuple","internalType":"struct ITraitStorage.StoredTrait","components":[{"name":"epoch","type":"uint256","internalType":"uint256"},{"name":"isRevealed","type":"bool","internalType":"bool"},{"name":"seed","type":"uint256","internalType":"uint256"},{"name":"renderMinterContract","type":"address","internalType":"address"},{"name":"traitIndex","type":"uint256","internalType":"uint256"},{"name":"traitType","type":"uint8","internalType":"enum TraitCategory.Name"}]},{"name":"traitId","type":"uint256","internalType":"uint256"}],"outputs":[{"name":"traitSvg","type":"string","internalType":"string"},{"name":"traitZmap","type":"bytes","internalType":"bytes"},{"name":"traitAttributes","type":"string","internalType":"string"}],"stateMutability":"view"},{"type":"function","name":"getStoredTraitForTokenId","inputs":[{"name":"_tokenId","type":"uint256","internalType":"uint256"}],"outputs":[{"name":"","type":"tuple","internalType":"struct ITraitStorage.StoredTrait","components":[{"name":"epoch","type":"uint256","internalType":"uint256"},{"name":"isRevealed","type":"bool","internalType":"bool"},{"name":"seed","type":"uint256","internalType":"uint256"},{"name":"renderMinterContract","type":"address","internalType":"address"},{"name":"traitIndex","type":"uint256","internalType":"uint256"},{"name":"traitType","type":"uint8","internalType":"enum TraitCategory.Name"}]}],"stateMutability":"view"},{"type":"function","name":"getSvgAndMetadata","inputs":[{"name":"storedPeter","type":"tuple","internalType":"struct IPeterStorage.StoredPeter","components":[{"name":"headId","type":"uint256","internalType":"uint256"},{"name":"hairId","type":"uint256","internalType":"uint256"},{"name":"faceId","type":"uint256","internalType":"uint256"},{"name":"accessoryId","type":"uint256","internalType":"uint256"},{"name":"topId","type":"uint256","internalType":"uint256"},{"name":"bottomId","type":"uint256","internalType":"uint256"},{"name":"shoesId","type":"uint256","internalType":"uint256"},{"name":"epoch","type":"uint32","internalType":"uint32"},{"name":"tokenId","type":"uint256","internalType":"uint256"},{"name":"bodyIndex","type":"uint8","internalType":"uint8"},{"name":"backgroundColor","type":"string","internalType":"string"},{"name":"render3D","type":"bool","internalType":"bool"}]}],"outputs":[{"name":"traitsSvg","type":"string","internalType":"string"},{"name":"traitsAttributes","type":"string","internalType":"string"}],"stateMutability":"view"},{"type":"function","name":"getSvgAndMetadataTrait","inputs":[{"name":"trait","type":"tuple","internalType":"struct ITraitStorage.StoredTrait","components":[{"name":"epoch","type":"uint256","internalType":"uint256"},{"name":"isRevealed","type":"bool","internalType":"bool"},{"name":"seed","type":"uint256","internalType":"uint256"},{"name":"renderMinterContract","type":"address","internalType":"address"},{"name":"traitIndex","type":"uint256","internalType":"uint256"},{"name":"traitType","type":"uint8","internalType":"enum TraitCategory.Name"}]},{"name":"traitId","type":"uint256","internalType":"uint256"}],"outputs":[{"name":"traitSvg","type":"string","internalType":"string"},{"name":"traitAttributes","type":"string","internalType":"string"}],"stateMutability":"view"},{"type":"function","name":"getSvgForTokenId","inputs":[{"name":"_tokenId","type":"uint256","internalType":"uint256"}],"outputs":[{"name":"traitSvg","type":"string","internalType":"string"}],"stateMutability":"view"},{"type":"function","name":"getSvgZmapsAndMetadata","inputs":[{"name":"storedPeter","type":"tuple","internalType":"struct IPeterStorage.StoredPeter","components":[{"name":"headId","type":"uint256","internalType":"uint256"},{"name":"hairId","type":"uint256","internalType":"uint256"},{"name":"faceId","type":"uint256","internalType":"uint256"},{"name":"accessoryId","type":"uint256","internalType":"uint256"},{"name":"topId","type":"uint256","internalType":"uint256"},{"name":"bottomId","type":"uint256","internalType":"uint256"},{"name":"shoesId","type":"uint256","internalType":"uint256"},{"name":"epoch","type":"uint32","internalType":"uint32"},{"name":"tokenId","type":"uint256","internalType":"uint256"},{"name":"bodyIndex","type":"uint8","internalType":"uint8"},{"name":"backgroundColor","type":"string","internalType":"string"},{"name":"render3D","type":"bool","internalType":"bool"}]}],"outputs":[{"name":"traitsSvg","type":"string","internalType":"string"},{"name":"traitZMaps","type":"bytes","internalType":"bytes"},{"name":"traitsAttributes","type":"string","internalType":"string"}],"stateMutability":"view"},{"type":"function","name":"getTrait","inputs":[{"name":"_tokenId","type":"uint256","internalType":"uint256"}],"outputs":[{"name":"","type":"tuple","internalType":"struct ITraitStorage.StoredTrait","components":[{"name":"epoch","type":"uint256","internalType":"uint256"},{"name":"isRevealed","type":"bool","internalType":"bool"},{"name":"seed","type":"uint256","internalType":"uint256"},{"name":"renderMinterContract","type":"address","internalType":"address"},{"name":"traitIndex","type":"uint256","internalType":"uint256"},{"name":"traitType","type":"uint8","internalType":"enum TraitCategory.Name"}]}],"stateMutability":"view"},{"type":"function","name":"getTraitImageSvg","inputs":[{"name":"index","type":"uint256","internalType":"uint256"}],"outputs":[{"name":"svg","type":"string","internalType":"string"}],"stateMutability":"view"},{"type":"function","name":"getTraitIndexToMetadata","inputs":[{"name":"_traitIndex","type":"uint256","internalType":"uint256"}],"outputs":[{"name":"","type":"tuple","internalType":"struct ITraitStorage.TraitMetadata","components":[{"name":"traitIndex","type":"uint256","internalType":"uint256"},{"name":"traitName","type":"string","internalType":"string"},{"name":"traitType","type":"uint8","internalType":"enum TraitCategory.Name"},{"name":"animations","type":"string","internalType":"string"},{"name":"colorMap","type":"bytes","internalType":"bytes"},{"name":"zMap","type":"bytes","internalType":"bytes"},{"name":"renderMinterContract","type":"address","internalType":"address"},{"name":"creatorAddress","type":"address","internalType":"address"},{"name":"creatorName","type":"string","internalType":"string"},{"name":"season","type":"string","internalType":"string"}]}],"stateMutability":"view"},{"type":"function","name":"getTraitMetadata","inputs":[{"name":"_tokenId","type":"uint256","internalType":"uint256"}],"outputs":[{"name":"","type":"tuple","internalType":"struct ITraitStorage.TraitMetadata","components":[{"name":"traitIndex","type":"uint256","internalType":"uint256"},{"name":"traitName","type":"string","internalType":"string"},{"name":"traitType","type":"uint8","internalType":"enum TraitCategory.Name"},{"name":"animations","type":"string","internalType":"string"},{"name":"colorMap","type":"bytes","internalType":"bytes"},{"name":"zMap","type":"bytes","internalType":"bytes"},{"name":"renderMinterContract","type":"address","internalType":"address"},{"name":"creatorAddress","type":"address","internalType":"address"},{"name":"creatorName","type":"string","internalType":"string"},{"name":"season","type":"string","internalType":"string"}]}],"stateMutability":"view"},{"type":"function","name":"getTraitType","inputs":[{"name":"_tokenId","type":"uint256","internalType":"uint256"}],"outputs":[{"name":"","type":"uint8","internalType":"enum TraitCategory.Name"}],"stateMutability":"view"},{"type":"function","name":"getZMapForTokenId","inputs":[{"name":"_tokenId","type":"uint256","internalType":"uint256"}],"outputs":[{"name":"","type":"string","internalType":"string"}],"stateMutability":"view"},{"type":"function","name":"invalidateAllOperatorApprovals","inputs":[{"name":"_tokenId","type":"uint256","internalType":"uint256"}],"outputs":[],"stateMutability":"nonpayable"},{"type":"function","name":"isApprovedForAll","inputs":[{"name":"owner","type":"address","internalType":"address"},{"name":"operator","type":"address","internalType":"address"}],"outputs":[{"name":"","type":"bool","internalType":"bool"}],"stateMutability":"view"},{"type":"function","name":"isMinter","inputs":[{"name":"","type":"address","internalType":"address"}],"outputs":[{"name":"","type":"bool","internalType":"bool"}],"stateMutability":"view"},{"type":"function","name":"marketplace","inputs":[],"outputs":[{"name":"","type":"address","internalType":"contract ChonksMarket"}],"stateMutability":"view"},{"type":"function","name":"name","inputs":[],"outputs":[{"name":"","type":"string","internalType":"string"}],"stateMutability":"view"},{"type":"function","name":"owner","inputs":[],"outputs":[{"name":"result","type":"address","internalType":"address"}],"stateMutability":"view"},{"type":"function","name":"ownerOf","inputs":[{"name":"tokenId","type":"uint256","internalType":"uint256"}],"outputs":[{"name":"","type":"address","internalType":"address"}],"stateMutability":"view"},{"type":"function","name":"ownershipHandoverExpiresAt","inputs":[{"name":"pendingOwner","type":"address","internalType":"address"}],"outputs":[{"name":"result","type":"uint256","internalType":"uint256"}],"stateMutability":"view"},{"type":"function","name":"petersMain","inputs":[],"outputs":[{"name":"","type":"address","internalType":"contract PetersMain"}],"stateMutability":"view"},{"type":"function","name":"removeMinter","inputs":[{"name":"_minter","type":"address","internalType":"address"}],"outputs":[],"stateMutability":"nonpayable"},{"type":"function","name":"renderAsDataUri","inputs":[{"name":"_tokenId","type":"uint256","internalType":"uint256"}],"outputs":[{"name":"","type":"string","internalType":"string"}],"stateMutability":"view"},{"type":"function","name":"renounceOwnership","inputs":[],"outputs":[],"stateMutability":"payable"},{"type":"function","name":"requestOwnershipHandover","inputs":[],"outputs":[],"stateMutability":"payable"},{"type":"function","name":"resolveEpochIfNecessary","inputs":[],"outputs":[],"stateMutability":"nonpayable"},{"type":"function","name":"safeMint","inputs":[{"name":"_to","type":"address","internalType":"address"}],"outputs":[{"name":"","type":"uint256","internalType":"uint256"}],"stateMutability":"nonpayable"},{"type":"function","name":"safeTransferFrom","inputs":[{"name":"from","type":"address","internalType":"address"},{"name":"to","type":"address","internalType":"address"},{"name":"tokenId","type":"uint256","internalType":"uint256"}],"outputs":[],"stateMutability":"nonpayable"},{"type":"function","name":"safeTransferFrom","inputs":[{"name":"from","type":"address","internalType":"address"},{"name":"to","type":"address","internalType":"address"},{"name":"tokenId","type":"uint256","internalType":"uint256"},{"name":"data","type":"bytes","internalType":"bytes"}],"outputs":[],"stateMutability":"nonpayable"},{"type":"function","name":"setApprovalForAll","inputs":[{"name":"_operator","type":"address","internalType":"address"},{"name":"_approved","type":"bool","internalType":"bool"}],"outputs":[],"stateMutability":"nonpayable"},{"type":"function","name":"setGhostMaps","inputs":[{"name":"_colorMap","type":"bytes","internalType":"bytes"},{"name":"_zMap","type":"bytes","internalType":"bytes"}],"outputs":[],"stateMutability":"nonpayable"},{"type":"function","name":"setMarketplace","inputs":[{"name":"_marketplace","type":"address","internalType":"address"}],"outputs":[],"stateMutability":"nonpayable"},{"type":"function","name":"setPetersMain","inputs":[{"name":"_petersMain","type":"address","internalType":"address"}],"outputs":[],"stateMutability":"nonpayable"},{"type":"function","name":"setTraitForTokenId","inputs":[{"name":"_tokenId","type":"uint256","internalType":"uint256"},{"name":"_trait","type":"tuple","internalType":"struct ITraitStorage.StoredTrait","components":[{"name":"epoch","type":"uint256","internalType":"uint256"},{"name":"isRevealed","type":"bool","internalType":"bool"},{"name":"seed","type":"uint256","internalType":"uint256"},{"name":"renderMinterContract","type":"address","internalType":"address"},{"name":"traitIndex","type":"uint256","internalType":"uint256"},{"name":"traitType","type":"uint8","internalType":"enum TraitCategory.Name"}]}],"outputs":[],"stateMutability":"nonpayable"},{"type":"function","name":"setTraitIndexToMetadata","inputs":[{"name":"_traitIndex","type":"uint256","internalType":"uint256"},{"name":"_metadata","type":"tuple","internalType":"struct ITraitStorage.TraitMetadata","components":[{"name":"traitIndex","type":"uint256","internalType":"uint256"},{"name":"traitName","type":"string","internalType":"string"},{"name":"traitType","type":"uint8","internalType":"enum TraitCategory.Name"},{"name":"animations","type":"string","internalType":"string"},{"name":"colorMap","type":"bytes","internalType":"bytes"},{"name":"zMap","type":"bytes","internalType":"bytes"},{"name":"renderMinterContract","type":"address","internalType":"address"},{"name":"creatorAddress","type":"address","internalType":"address"},{"name":"creatorName","type":"string","internalType":"string"},{"name":"season","type":"string","internalType":"string"}]}],"outputs":[],"stateMutability":"nonpayable"},{"type":"function","name":"setTraitRenderer","inputs":[{"name":"_traitRenderer","type":"address","internalType":"address"}],"outputs":[],"stateMutability":"nonpayable"},{"type":"function","name":"signer","inputs":[],"outputs":[{"name":"","type":"address","internalType":"address"}],"stateMutability":"view"},{"type":"function","name":"supportsInterface","inputs":[{"name":"interfaceId","type":"bytes4","internalType":"bytes4"}],"outputs":[{"name":"","type":"bool","internalType":"bool"}],"stateMutability":"view"},{"type":"function","name":"symbol","inputs":[],"outputs":[{"name":"","type":"string","internalType":"string"}],"stateMutability":"view"},{"type":"function","name":"tokenByIndex","inputs":[{"name":"index","type":"uint256","internalType":"uint256"}],"outputs":[{"name":"","type":"uint256","internalType":"uint256"}],"stateMutability":"view"},{"type":"function","name":"tokenOfOwnerByIndex","inputs":[{"name":"owner","type":"address","internalType":"address"},{"name":"index","type":"uint256","internalType":"uint256"}],"outputs":[{"name":"","type":"uint256","internalType":"uint256"}],"stateMutability":"view"},{"type":"function","name":"tokenURI","inputs":[{"name":"_tokenId","type":"uint256","internalType":"uint256"}],"outputs":[{"name":"","type":"string","internalType":"string"}],"stateMutability":"view"},{"type":"function","name":"totalSupply","inputs":[],"outputs":[{"name":"","type":"uint256","internalType":"uint256"}],"stateMutability":"view"},{"type":"function","name":"traitIdToApprovedOperators","inputs":[{"name":"traitId","type":"uint256","internalType":"uint256"},{"name":"","type":"uint256","internalType":"uint256"}],"outputs":[{"name":"operators","type":"address","internalType":"address"}],"stateMutability":"view"},{"type":"function","name":"traitIndexToMetadata","inputs":[{"name":"","type":"uint256","internalType":"uint256"}],"outputs":[{"name":"traitIndex","type":"uint256","internalType":"uint256"},{"name":"traitName","type":"string","internalType":"string"},{"name":"traitType","type":"uint8","internalType":"enum TraitCategory.Name"},{"name":"animations","type":"string","internalType":"string"},{"name":"colorMap","type":"bytes","internalType":"bytes"},{"name":"zMap","type":"bytes","internalType":"bytes"},{"name":"renderMinterContract","type":"address","internalType":"address"},{"name":"creatorAddress","type":"address","internalType":"address"},{"name":"creatorName","type":"string","internalType":"string"},{"name":"season","type":"string","internalType":"string"}],"stateMutability":"view"},{"type":"function","name":"traitRenderer","inputs":[],"outputs":[{"name":"","type":"address","internalType":"contract TraitRenderer"}],"stateMutability":"view"},{"type":"function","name":"traitTokens","inputs":[],"outputs":[{"name":"epoch","type":"uint256","internalType":"uint256"}],"stateMutability":"view"},{"type":"function","name":"transferFrom","inputs":[{"name":"from","type":"address","internalType":"address"},{"name":"to","type":"address","internalType":"address"},{"name":"tokenId","type":"uint256","internalType":"uint256"}],"outputs":[],"stateMutability":"nonpayable"},{"type":"function","name":"transferOwnership","inputs":[{"name":"newOwner","type":"address","internalType":"address"}],"outputs":[],"stateMutability":"payable"},{"type":"function","name":"walletOfOwner","inputs":[{"name":"_owner","type":"address","internalType":"address"}],"outputs":[{"name":"","type":"uint256[]","internalType":"uint256[]"}],"stateMutability":"view"},{"type":"event","name":"AllOperatorApprovalsInvalidated","inputs":[{"name":"tokenId","type":"uint256","indexed":true,"internalType":"uint256"}],"anonymous":false},{"type":"event","name":"Approval","inputs":[{"name":"owner","type":"address","indexed":true,"internalType":"address"},{"name":"approved","type":"address","indexed":true,"internalType":"address"},{"name":"tokenId","type":"uint256","indexed":true,"internalType":"uint256"}],"anonymous":false},{"type":"event","name":"ApprovalForAll","inputs":[{"name":"owner","type":"address","indexed":true,"internalType":"address"},{"name":"operator","type":"address","indexed":true,"internalType":"address"},{"name":"approved","type":"bool","indexed":false,"internalType":"bool"}],"anonymous":false},{"type":"event","name":"BatchMetadataUpdate","inputs":[{"name":"_fromTokenId","type":"uint256","indexed":false,"internalType":"uint256"},{"name":"_toTokenId","type":"uint256","indexed":false,"internalType":"uint256"}],"anonymous":false},{"type":"event","name":"MetadataUpdate","inputs":[{"name":"_tokenId","type":"uint256","indexed":false,"internalType":"uint256"}],"anonymous":false},{"type":"event","name":"Mint","inputs":[{"name":"owner","type":"address","indexed":true,"internalType":"address"},{"name":"tokenId","type":"uint256","indexed":true,"internalType":"uint256"}],"anonymous":false},{"type":"event","name":"NewEpoch","inputs":[{"name":"epoch","type":"uint256","indexed":true,"internalType":"uint256"},{"name":"revealBlock","type":"uint64","indexed":true,"internalType":"uint64"}],"anonymous":false},{"type":"event","name":"OwnershipHandoverCanceled","inputs":[{"name":"pendingOwner","type":"address","indexed":true,"internalType":"address"}],"anonymous":false},{"type":"event","name":"OwnershipHandoverRequested","inputs":[{"name":"pendingOwner","type":"address","indexed":true,"internalType":"address"}],"anonymous":false},{"type":"event","name":"OwnershipTransferred","inputs":[{"name":"oldOwner","type":"address","indexed":true,"internalType":"address"},{"name":"newOwner","type":"address","indexed":true,"internalType":"address"}],"anonymous":false},{"type":"event","name":"Transfer","inputs":[{"name":"from","type":"address","indexed":true,"internalType":"address"},{"name":"to","type":"address","indexed":true,"internalType":"address"},{"name":"tokenId","type":"uint256","indexed":true,"internalType":"uint256"}],"anonymous":false},{"type":"error","name":"AlreadyInitialized","inputs":[]},{"type":"error","name":"CantTransfer","inputs":[]},{"type":"error","name":"NewOwnerIsZeroAddress","inputs":[]},{"type":"error","name":"NoHandoverRequest","inputs":[]},{"type":"error","name":"NotATBA","inputs":[]},{"type":"error","name":"NotAValidMinterContract","inputs":[]},{"type":"error","name":"NotYourTrait","inputs":[]},{"type":"error","name":"SetMarketplaceAddress","inputs":[]},{"type":"error","name":"SetPetersMainAddress","inputs":[]},{"type":"error","name":"TraitNotFound","inputs":[{"name":"_tokenId","type":"uint256","internalType":"uint256"}]},{"type":"error","name":"TraitTokenDoesntExist","inputs":[]},{"type":"error","name":"Unauthorized","inputs":[]}],"bytecode":{"object":"0x60806040523480156200001157600080fd5b5060405162008ffd38038062008ffd833981016040819052620000349162000152565b6040518060400160405280600b81526020016a506574657254726169747360a81b81525060405180604001604052806003815260200162282a2960e91b815250816000908162000085919062000224565b50600162000094828262000224565b50506001600a5550620000a73362000108565b6015805460ff1916821515179055604051620000c39062000144565b604051809103906000f080158015620000e0573d6000803e3d6000fd5b50600e80546001600160a01b0319166001600160a01b039290921691909117905550620002f0565b6001600160a01b0316638b78c6d8198190558060007f8be0079c531659141344cd1fd0a4f28419497f9722a3daafe3b4186f6b6457e08180a350565b612fc6806200603783390190565b6000602082840312156200016557600080fd5b815180151581146200017657600080fd5b9392505050565b634e487b7160e01b600052604160045260246000fd5b600181811c90821680620001a857607f821691505b602082108103620001c957634e487b7160e01b600052602260045260246000fd5b50919050565b601f8211156200021f576000816000526020600020601f850160051c81016020861015620001fa5750805b601f850160051c820191505b818110156200021b5782815560010162000206565b5050505b505050565b81516001600160401b038111156200024057620002406200017d565b620002588162000251845462000193565b84620001cf565b602080601f831160018114620002905760008415620002775750858301515b600019600386901b1c1916600185901b1785556200021b565b600085815260208120601f198616915b82811015620002c157888601518255948401946001909101908401620002a0565b5085821015620002e05787850151600019600388901b60f8161c191681555b5050505050600190811b01905550565b615d3780620003006000396000f3fe6080604052600436106103e35760003560e01c80638d37c53711610208578063c779153111610118578063e4623c1b116100ab578063f04e283e1161007a578063f04e283e14610cb9578063f127194214610ccc578063f2fde38b14610cec578063f901667f14610cff578063fee81cf414610d1f57600080fd5b8063e4623c1b14610c03578063e8a1268d14610c23578063e985e9c514610c50578063ea13954414610c9957600080fd5b8063df2c2b88116100e7578063df2c2b8814610b8c578063e08714a614610bac578063e14d026f14610bcc578063e1defed914610be357600080fd5b8063c779153114610aff578063c876371b14610b1f578063c87b56dd14610b3f578063d1bfc2af14610b5f57600080fd5b8063a5e2912a1161019b578063acb586df1161016a578063acb586df14610a63578063b88d4fde14610a83578063b97dd9e2146107b3578063bb12d21d14610aa3578063c1ff78be14610ad257600080fd5b8063a5e2912a146109d3578063a8498c74146109f3578063aa271e1a14610a13578063abc8c7af14610a4357600080fd5b8063983b2d56116101d7578063983b2d5614610953578063a1d6268014610973578063a22cb46514610993578063a2c12c94146109b357600080fd5b80638d37c537146108e55780638da5cb5b1461090557806390f638421461091e57806395d89b411461093e57600080fd5b80633092afd51161030357806354d1f13d11610296578063715018a611610265578063715018a61461078b57806373ad6c2d14610793578063757991a8146107b3578063817a29a4146107c8578063859e7d32146107fe57600080fd5b806354d1f13d1461072e5780635c1ef256146107365780636352211e1461074b57806370a082311461076b57600080fd5b806342842e0e116102d257806342842e0e146106a157806342966c68146106c1578063438b6300146106e15780634f6ccce71461070e57600080fd5b80633092afd51461061357806333a703281461063357806336d34ab91461066157806340d097c31461068157600080fd5b80631ca976041161037b578063239ffa681161034a578063239ffa68146105b657806323b872dd146105cb57806325692962146105eb5780632f745c59146105f357600080fd5b80631ca9760414610529578063208c25a31461054957806321b12c2314610576578063238ac9331461059657600080fd5b8063095ea7b3116103b7578063095ea7b3146104a857806311f3910d146104ca578063120def24146104ea57806318160ddd1461050a57600080fd5b8062db6348146103e857806301ffc9a71461041e57806306fdde031461044e578063081812fc14610470575b600080fd5b3480156103f457600080fd5b506104086104033660046147c6565b610d52565b60405161041591906147df565b60405180910390f35b34801561042a57600080fd5b5061043e610439366004614842565b610dbe565b6040519015158152602001610415565b34801561045a57600080fd5b50610463610dcf565b60405161041591906148b6565b34801561047c57600080fd5b5061049061048b3660046147c6565b610e61565b6040516001600160a01b039091168152602001610415565b3480156104b457600080fd5b506104c86104c33660046148ee565b610e88565b005b3480156104d657600080fd5b506104906104e536600461491a565b6110b3565b3480156104f657600080fd5b506104c861050536600461493c565b6110eb565b34801561051657600080fd5b506008545b604051908152602001610415565b34801561053557600080fd5b50601254610490906001600160a01b031681565b34801561055557600080fd5b506105696105643660046147c6565b611115565b60405161041591906149d9565b34801561058257600080fd5b50610463610591366004614b18565b6111dd565b3480156105a257600080fd5b50600f54610490906001600160a01b031681565b3480156105c257600080fd5b506104c8611253565b3480156105d757600080fd5b506104c86105e6366004614b4c565b61142f565b6104c861146e565b3480156105ff57600080fd5b5061051b61060e3660046148ee565b6114bd565b34801561061f57600080fd5b506104c861062e36600461493c565b611553565b34801561063f57600080fd5b5061065361064e366004614c31565b61157c565b604051610415929190614c5c565b34801561066d57600080fd5b506104c861067c366004614c81565b611617565b34801561068d57600080fd5b5061051b61069c36600461493c565b6116e4565b3480156106ad57600080fd5b506104c86106bc366004614b4c565b611785565b3480156106cd57600080fd5b506104c86106dc3660046147c6565b6117a0565b3480156106ed57600080fd5b506107016106fc36600461493c565b6117a9565b6040516104159190614cae565b34801561071a57600080fd5b5061051b6107293660046147c6565b611840565b6104c86118d3565b34801561074257600080fd5b5061046361190f565b34801561075757600080fd5b506104906107663660046147c6565b611986565b34801561077757600080fd5b5061051b61078636600461493c565b6119e6565b6104c8611a6c565b34801561079f57600080fd5b506104c86107ae36600461493c565b611a80565b3480156107bf57600080fd5b50600c5461051b565b3480156107d457600080fd5b506107e86107e33660046147c6565b611aaa565b6040516104159a99989796959493929190614ce6565b34801561080a57600080fd5b5061089c6108193660046147c6565b6040805160808082018352600080835260208084018290528385018290526060938401829052948152600d855283902083519182018452546001600160801b03811682526001600160401b03600160801b8204169482019490945260ff600160c01b85048116151593820193909352600160c81b90930490911615159082015290565b604051610415919081516001600160801b031681526020808301516001600160401b03169082015260408083015115159082015260609182015115159181019190915260800190565b3480156108f157600080fd5b506104c8610900366004614d9b565b611e42565b34801561091157600080fd5b50638b78c6d81954610490565b34801561092a57600080fd5b506104c86109393660046147c6565b611f41565b34801561094a57600080fd5b506104636120c7565b34801561095f57600080fd5b506104c861096e36600461493c565b6120d6565b34801561097f57600080fd5b5061046361098e3660046147c6565b612102565b34801561099f57600080fd5b506104c86109ae366004614f09565b6121f5565b3480156109bf57600080fd5b506104c86109ce36600461493c565b612432565b3480156109df57600080fd5b506104636109ee3660046147c6565b61245c565b3480156109ff57600080fd5b50610463610a0e3660046147c6565b61249e565b348015610a1f57600080fd5b5061043e610a2e36600461493c565b60146020526000908152604090205460ff1681565b348015610a4f57600080fd5b50601354610490906001600160a01b031681565b348015610a6f57600080fd5b50610569610a7e3660046147c6565b612556565b348015610a8f57600080fd5b506104c8610a9e366004614f42565b6126f5565b348015610aaf57600080fd5b50610ac3610abe366004614fd2565b61272d565b604051610415939291906150cb565b348015610ade57600080fd5b5061051b610aed3660046147c6565b60009081526011602052604090205490565b348015610b0b57600080fd5b50610463610b1a3660046147c6565b6127bc565b348015610b2b57600080fd5b50600e54610490906001600160a01b031681565b348015610b4b57600080fd5b50610463610b5a3660046147c6565b612812565b348015610b6b57600080fd5b50610b7f610b7a3660046147c6565b612853565b604051610415919061510e565b348015610b9857600080fd5b50610653610ba7366004614fd2565b612c60565b348015610bb857600080fd5b50610653610bc7366004615217565b612ceb565b348015610bd857600080fd5b50600c5461051b9081565b348015610bef57600080fd5b506104c8610bfe366004615283565b612d98565b348015610c0f57600080fd5b506104c8610c1e3660046152e6565b612e08565b348015610c2f57600080fd5b50610c43610c3e3660046147c6565b612e3e565b604051610415919061538b565b348015610c5c57600080fd5b5061043e610c6b366004615399565b6001600160a01b03918216600090815260056020908152604080832093909416825291909152205460ff1690565b348015610ca557600080fd5b50610b7f610cb43660046147c6565b61324b565b6104c8610cc736600461493c565b613646565b348015610cd857600080fd5b50610ac3610ce73660046153c7565b613683565b6104c8610cfa36600461493c565b613739565b348015610d0b57600080fd5b50610ac3610d1a366004614c31565b613760565b348015610d2b57600080fd5b5061051b610d3a36600461493c565b63389a75e1600c908152600091909152602090205490565b600081815260116020908152604091829020805483518184028101840190945280845260609392830182828015610db257602002820191906000526020600020905b81546001600160a01b03168152600190910190602001808311610d94575b50505050509050919050565b6000610dc9826137ff565b92915050565b606060008054610dde9061544c565b80601f0160208091040260200160405190810160405280929190818152602001828054610e0a9061544c565b8015610e575780601f10610e2c57610100808354040283529160200191610e57565b820191906000526020600020905b815481529060010190602001808311610e3a57829003601f168201915b5050505050905090565b6000610e6c82613824565b506000908152600460205260409020546001600160a01b031690565b6000818152600260205260409020546001600160a01b0316610ebd57604051632df0e24560e21b815260040160405180910390fd5b33610ec782611986565b6001600160a01b031614610eee57604051633e79b9f360e01b815260040160405180910390fd5b6001600160a01b03821661100f576000818152601160205260408120905b815481101561100857836001600160a01b0316828281548110610f3157610f31615480565b6000918252602090912001546001600160a01b0316036110005781548290610f5b906001906154ac565b81548110610f6b57610f6b615480565b9060005260206000200160009054906101000a90046001600160a01b0316828281548110610f9b57610f9b615480565b9060005260206000200160006101000a8154816001600160a01b0302191690836001600160a01b0316021790555081805480610fd957610fd96154bf565b600082815260209020810160001990810180546001600160a01b0319169055019055611008565b600101610f0c565b50506110a5565b600081815260116020526040812090805b825481101561107057846001600160a01b031683828154811061104557611045615480565b6000918252602090912001546001600160a01b0316036110685760019150611070565b600101611020565b50806110a25781546001810183556000838152602090200180546001600160a01b0319166001600160a01b0386161790555b50505b6110af8282613883565b5050565b601160205281600052604060002081815481106110cf57600080fd5b6000918252602090912001546001600160a01b03169150829050565b6110f3613993565b600e80546001600160a01b0319166001600160a01b0392909216919091179055565b61114b6040805160c08101825260008082526020820181905291810182905260608101829052608081018290529060a082015290565b6000828152600b6020908152604091829020825160c08101845281548152600182015460ff90811615159382019390935260028201549381019390935260038101546001600160a01b03166060840152600481015460808401526005810154909160a08401911660078111156111c3576111c3614959565b60078111156111d4576111d4614959565b90525092915050565b600e546040516321b12c2360e01b81526060916001600160a01b0316906321b12c239061120e9085906004016148b6565b600060405180830381865afa15801561122b573d6000803e3d6000fd5b505050506040513d6000823e601f3d908101601f19168201604052610dc9919081019061551a565b600c546000908152600d602052604090208054600160c01b900460ff1615806112ab57508054600160c81b900460ff161580156112ab5750611297610100436154ac565b8154600160801b90046001600160401b0316105b156112f6576112bb43603261554e565b815460ff60c01b196001600160401b0392909216600160801b029190911668ffffffffffffffffff60801b1990911617600160c01b17815550565b8054600160801b90046001600160401b031643111561142c57805460408051600160801b9092046001600160401b031640602083015244908201526001600160801b03906060016040516020818303038152906040528051906020012060001c6113609190615561565b8154600160c81b6001600160801b039290921679ff000000000000000000ffffffffffffffffffffffffffffffff199091161717808255600c54604051600160801b9092046001600160401b0316917f78611aecfda8d341359c248df527c95aef93d446c92bb928b2a81b7abcb1d8d990600090a3604080516000815260001960208201527f6bd5c950a8d8df17f772f5af37cb3655737899cbf903264b9795592da439661c910160405180910390a1600c805460009061142090615583565b9091555061142c611253565b50565b61143933826139ae565b61145e5760405162461bcd60e51b81526004016114559061559c565b60405180910390fd5b611469838383613a2c565b505050565b60006202a3006001600160401b03164201905063389a75e1600c5233600052806020600c2055337fdbf36a107da19e49527a7176a1babf963b4b0ff8cde35ee35d6cd8f1f9ac7e1d600080a250565b60006114c8836119e6565b821061152a5760405162461bcd60e51b815260206004820152602b60248201527f455243373231456e756d657261626c653a206f776e657220696e646578206f7560448201526a74206f6620626f756e647360a81b6064820152608401611455565b506001600160a01b03919091166000908152600660209081526040808320938352929052205490565b61155b613993565b6001600160a01b03166000908152601460205260409020805460ff19169055565b600e5460808301516000908152601060205260409081902090516317de5cbf60e11b815260609283926001600160a01b0390911691632fbcb97e916115c79188918891600401615745565b600060405180830381865afa1580156115e4573d6000803e3d6000fd5b505050506040513d6000823e601f3d908101601f1916820160405261160c919081019061576c565b915091509250929050565b61164b604051806040016040528060138152602001721cd95d1d1c985a5d199bdc9d1bdad95b881a59606a1b815250613bd9565b6000828152600b602090815260409182902083518155908301516001808301805492151560ff1993841617905592840151600283015560608401516003830180546001600160a01b039092166001600160a01b03199092169190911790556080840151600483015560a08401516005830180548695929391929116908360078111156116d9576116d9614959565b021790555050505050565b3360008181526014602052604081205490919060ff166117175760405163090a0b6960e21b815260040160405180910390fd5b61171f611253565b600061172a60085490565b61173590600161554e565b90506117418482613c1c565b604080516000815260001960208201527f6bd5c950a8d8df17f772f5af37cb3655737899cbf903264b9795592da439661c910160405180910390a191505b50919050565b611469838383604051806020016040528060008152506126f5565b61142c81613c36565b606060006117b6836119e6565b90506000816001600160401b038111156117d2576117d26149e7565b6040519080825280602002602001820160405280156117fb578160200160208202803683370190505b50905060005b828110156118385761181385826114bd565b82828151811061182557611825615480565b6020908102919091010152600101611801565b509392505050565b600061184b60085490565b82106118ae5760405162461bcd60e51b815260206004820152602c60248201527f455243373231456e756d657261626c653a20676c6f62616c20696e646578206f60448201526b7574206f6620626f756e647360a01b6064820152608401611455565b600882815481106118c1576118c1615480565b90600052602060002001549050919050565b63389a75e1600c523360005260006020600c2055337ffa7b8eab7da67f412cc9575ed43464468f9bfbae89d1675917346ca6d8fe3c92600080a2565b600e5460408051632e0f792b60e11b815290516060926001600160a01b031691635c1ef2569160048083019260009291908290030181865afa158015611959573d6000803e3d6000fd5b505050506040513d6000823e601f3d908101601f19168201604052611981919081019061551a565b905090565b6000818152600260205260408120546001600160a01b031680610dc95760405162461bcd60e51b8152602060048201526018602482015277115490cdcc8c4e881a5b9d985b1a59081d1bdad95b88125160421b6044820152606401611455565b60006001600160a01b038216611a505760405162461bcd60e51b815260206004820152602960248201527f4552433732313a2061646472657373207a65726f206973206e6f7420612076616044820152683634b21037bbb732b960b91b6064820152608401611455565b506001600160a01b031660009081526003602052604090205490565b611a74613993565b611a7e6000613ce5565b565b611a88613993565b601380546001600160a01b0319166001600160a01b0392909216919091179055565b60106020526000908152604090208054600182018054919291611acc9061544c565b80601f0160208091040260200160405190810160405280929190818152602001828054611af89061544c565b8015611b455780601f10611b1a57610100808354040283529160200191611b45565b820191906000526020600020905b815481529060010190602001808311611b2857829003601f168201915b5050506002840154600385018054949560ff909216949193509150611b699061544c565b80601f0160208091040260200160405190810160405280929190818152602001828054611b959061544c565b8015611be25780601f10611bb757610100808354040283529160200191611be2565b820191906000526020600020905b815481529060010190602001808311611bc557829003601f168201915b505050505090806004018054611bf79061544c565b80601f0160208091040260200160405190810160405280929190818152602001828054611c239061544c565b8015611c705780601f10611c4557610100808354040283529160200191611c70565b820191906000526020600020905b815481529060010190602001808311611c5357829003601f168201915b505050505090806005018054611c859061544c565b80601f0160208091040260200160405190810160405280929190818152602001828054611cb19061544c565b8015611cfe5780601f10611cd357610100808354040283529160200191611cfe565b820191906000526020600020905b815481529060010190602001808311611ce157829003601f168201915b5050506006840154600785015460088601805495966001600160a01b0393841696929093169450919250611d319061544c565b80601f0160208091040260200160405190810160405280929190818152602001828054611d5d9061544c565b8015611daa5780601f10611d7f57610100808354040283529160200191611daa565b820191906000526020600020905b815481529060010190602001808311611d8d57829003601f168201915b505050505090806009018054611dbf9061544c565b80601f0160208091040260200160405190810160405280929190818152602001828054611deb9061544c565b8015611e385780601f10611e0d57610100808354040283529160200191611e38565b820191906000526020600020905b815481529060010190602001808311611e1b57829003601f168201915b505050505090508a565b600082815260106020908152604090912082518155908201518291906001820190611e6d908261580d565b50604082015160028201805460ff19166001836007811115611e9157611e91614959565b021790555060608201516003820190611eaa908261580d565b5060808201516004820190611ebf908261580d565b5060a08201516005820190611ed4908261580d565b5060c08201516006820180546001600160a01b039283166001600160a01b03199182161790915560e08401516007840180549190931691161790556101008201516008820190611f24908261580d565b506101208201516009820190611f3a908261580d565b5050505050565b6000818152600260205260409020546001600160a01b0316611f7657604051632df0e24560e21b815260040160405180910390fd5b33611f8082611986565b6001600160a01b031614158015611fa257506012546001600160a01b03163314155b15611fc057604051633e79b9f360e01b815260040160405180910390fd5b60008181526011602090815260408083208054825181850281018501909352808352919290919083018282801561202057602002820191906000526020600020905b81546001600160a01b03168152600190910190602001808311612002575b505050505090508051600003612034575050565b61203f600083613d23565b60005b81518110156120805761207861205784611986565b83838151811061206957612069615480565b60200260200101516000613d91565b600101612042565b5060008281526011602052604081206120989161472a565b60405182907fe6727257e6b1474b2ced9b705eafa89027508be445f1a76db669635c92f5242090600090a25050565b606060018054610dde9061544c565b6120de613993565b6001600160a01b03166000908152601460205260409020805460ff19166001179055565b6060600061210f83612556565b905060008160200151612145576040518060400160405280600b81526020016a1e39bb339f1e17b9bb339f60a91b815250612152565b612152826080015161245c565b600e54608084015160009081526010602052604090209192506001600160a01b03169063a5e11e05908690859061218761190f565b866040518663ffffffff1660e01b81526004016121a89594939291906158cc565b600060405180830381865afa1580156121c5573d6000803e3d6000fd5b505050506040513d6000823e601f3d908101601f191682016040526121ed919081019061551a565b949350505050565b336001600160a01b038316036122495760405162461bcd60e51b815260206004820152601960248201527822a9219b99189d1030b8383937bb32903a379031b0b63632b960391b6044820152606401611455565b6000612254336119e6565b905060005b8181101561242757600061226d33836114bd565b9050831561230f57600081815260116020526040812090805b82548110156122d657876001600160a01b03168382815481106122ab576122ab615480565b6000918252602090912001546001600160a01b0316036122ce57600191506122d6565b600101612286565b50806123085781546001810183556000838152602090200180546001600160a01b0319166001600160a01b0389161790555b505061241e565b6000818152601160205260408120905b815481101561241b57866001600160a01b031682828154811061234457612344615480565b6000918252602090912001546001600160a01b031603612413578154829061236e906001906154ac565b8154811061237e5761237e615480565b9060005260206000200160009054906101000a90046001600160a01b03168282815481106123ae576123ae615480565b9060005260206000200160006101000a8154816001600160a01b0302191690836001600160a01b03160217905550818054806123ec576123ec6154bf565b600082815260209020810160001990810180546001600160a01b031916905501905561241b565b60010161231f565b50505b50600101612259565b506114698383613e5b565b61243a613993565b601280546001600160a01b0319166001600160a01b0392909216919091179055565b600e54600082815260106020526040908190209051631349027b60e31b81526060926001600160a01b031691639a4813d89161120e916004908101910161591d565b606060006124ab83612556565b608081015160009081526010602052604090206005018054919250906124d09061544c565b80601f01602080910402602001604051908101604052809291908181526020018280546124fc9061544c565b80156125495780601f1061251e57610100808354040283529160200191612549565b820191906000526020600020905b81548152906001019060200180831161252c57829003601f168201915b5050505050915050919050565b61258c6040805160c08101825260008082526020820181905291810182905260608101829052608081018290529060a082015290565b6000828152600b60209081526040808320815160c08101835281548152600182015460ff90811615159482019490945260028201549281019290925260038101546001600160a01b031660608301526004810154608083015260058101549192909160a084019116600781111561260557612605614959565b600781111561261657612616614959565b90525080516000908152600d602052604090205460608201519192506001600160801b0316906001600160a01b03811615801561265557506040830151155b156126765760405163082d451d60e01b815260048101869052602401611455565b60155460405163687d69df60e11b81526001600160a01b0383169163d0fad3be916126ab9160ff169087908790600401615930565b60c060405180830381865afa1580156126c8573d6000803e3d6000fd5b505050506040513d601f19601f820116820180604052508101906126ec919061595e565b95945050505050565b6126ff33836139ae565b61271b5760405162461bcd60e51b81526004016114559061559c565b61272784848484613e66565b50505050565b600e54604051635ab38bf760e01b8152606091829182916001600160a01b031690635ab38bf79061276a908790309063f127194290600401615a81565b600060405180830381865afa158015612787573d6000803e3d6000fd5b505050506040513d6000823e601f3d908101601f191682016040526127af9190810190615ab3565b9250925092509193909250565b606060006127c983612556565b90508060200151156127e9576127e2816080015161245c565b915061177f565b505060408051808201909152600b81526a1e39bb339f1e17b9bb339f60a91b6020820152919050565b6000818152600260205260409020546060906001600160a01b031661284a57604051632df0e24560e21b815260040160405180910390fd5b610dc982612102565b61285b614748565b600061286683612556565b9050601060008260800151815260200190815260200160002060405180610140016040529081600082015481526020016001820180546128a59061544c565b80601f01602080910402602001604051908101604052809291908181526020018280546128d19061544c565b801561291e5780601f106128f35761010080835404028352916020019161291e565b820191906000526020600020905b81548152906001019060200180831161290157829003601f168201915b5050509183525050600282015460209091019060ff16600781111561294557612945614959565b600781111561295657612956614959565b815260200160038201805461296a9061544c565b80601f01602080910402602001604051908101604052809291908181526020018280546129969061544c565b80156129e35780601f106129b8576101008083540402835291602001916129e3565b820191906000526020600020905b8154815290600101906020018083116129c657829003601f168201915b505050505081526020016004820180546129fc9061544c565b80601f0160208091040260200160405190810160405280929190818152602001828054612a289061544c565b8015612a755780601f10612a4a57610100808354040283529160200191612a75565b820191906000526020600020905b815481529060010190602001808311612a5857829003601f168201915b50505050508152602001600582018054612a8e9061544c565b80601f0160208091040260200160405190810160405280929190818152602001828054612aba9061544c565b8015612b075780601f10612adc57610100808354040283529160200191612b07565b820191906000526020600020905b815481529060010190602001808311612aea57829003601f168201915b505050918352505060068201546001600160a01b0390811660208301526007830154166040820152600882018054606090920191612b449061544c565b80601f0160208091040260200160405190810160405280929190818152602001828054612b709061544c565b8015612bbd5780601f10612b9257610100808354040283529160200191612bbd565b820191906000526020600020905b815481529060010190602001808311612ba057829003601f168201915b50505050508152602001600982018054612bd69061544c565b80601f0160208091040260200160405190810160405280929190818152602001828054612c029061544c565b8015612c4f5780601f10612c2457610100808354040283529160200191612c4f565b820191906000526020600020905b815481529060010190602001808311612c3257829003601f168201915b505050505081525050915050919050565b600e546040516338ce943360e01b815260609182916001600160a01b03909116906338ce943390612c9d908690309063e08714a690600401615a81565b600060405180830381865afa158015612cba573d6000803e3d6000fd5b505050506040513d6000823e601f3d908101601f19168201604052612ce2919081019061576c565b91509150915091565b6060806000612cf986612556565b600e546080820151600090815260106020526040908190209051630a6ab71760e21b81529293506001600160a01b03909116916329aadc5c91612d46918a918a918a918891600401615b30565b600060405180830381865afa158015612d63573d6000803e3d6000fd5b505050506040513d6000823e601f3d908101601f19168201604052612d8b919081019061576c565b9250925050935093915050565b612da0613993565b600e5460405163e1defed960e01b81526001600160a01b039091169063e1defed990612dd29085908590600401614c5c565b600060405180830381600087803b158015612dec57600080fd5b505af1158015612e00573d6000803e3d6000fd5b505050505050565b60005b81518110156110af57612e36828281518110612e2957612e29615480565b6020026020010151613c36565b600101612e0b565b600080612e4a83612556565b9050600060106000836080015181526020019081526020016000206040518061014001604052908160008201548152602001600182018054612e8b9061544c565b80601f0160208091040260200160405190810160405280929190818152602001828054612eb79061544c565b8015612f045780601f10612ed957610100808354040283529160200191612f04565b820191906000526020600020905b815481529060010190602001808311612ee757829003601f168201915b5050509183525050600282015460209091019060ff166007811115612f2b57612f2b614959565b6007811115612f3c57612f3c614959565b8152602001600382018054612f509061544c565b80601f0160208091040260200160405190810160405280929190818152602001828054612f7c9061544c565b8015612fc95780601f10612f9e57610100808354040283529160200191612fc9565b820191906000526020600020905b815481529060010190602001808311612fac57829003601f168201915b50505050508152602001600482018054612fe29061544c565b80601f016020809104026020016040519081016040528092919081815260200182805461300e9061544c565b801561305b5780601f106130305761010080835404028352916020019161305b565b820191906000526020600020905b81548152906001019060200180831161303e57829003601f168201915b505050505081526020016005820180546130749061544c565b80601f01602080910402602001604051908101604052809291908181526020018280546130a09061544c565b80156130ed5780601f106130c2576101008083540402835291602001916130ed565b820191906000526020600020905b8154815290600101906020018083116130d057829003601f168201915b505050918352505060068201546001600160a01b039081166020830152600783015416604082015260088201805460609092019161312a9061544c565b80601f01602080910402602001604051908101604052809291908181526020018280546131569061544c565b80156131a35780601f10613178576101008083540402835291602001916131a3565b820191906000526020600020905b81548152906001019060200180831161318657829003601f168201915b505050505081526020016009820180546131bc9061544c565b80601f01602080910402602001604051908101604052809291908181526020018280546131e89061544c565b80156132355780601f1061320a57610100808354040283529160200191613235565b820191906000526020600020905b81548152906001019060200180831161321857829003601f168201915b5050509190925250505060400151949350505050565b613253614748565b60106000838152602001908152602001600020604051806101400160405290816000820154815260200160018201805461328c9061544c565b80601f01602080910402602001604051908101604052809291908181526020018280546132b89061544c565b80156133055780601f106132da57610100808354040283529160200191613305565b820191906000526020600020905b8154815290600101906020018083116132e857829003601f168201915b5050509183525050600282015460209091019060ff16600781111561332c5761332c614959565b600781111561333d5761333d614959565b81526020016003820180546133519061544c565b80601f016020809104026020016040519081016040528092919081815260200182805461337d9061544c565b80156133ca5780601f1061339f576101008083540402835291602001916133ca565b820191906000526020600020905b8154815290600101906020018083116133ad57829003601f168201915b505050505081526020016004820180546133e39061544c565b80601f016020809104026020016040519081016040528092919081815260200182805461340f9061544c565b801561345c5780601f106134315761010080835404028352916020019161345c565b820191906000526020600020905b81548152906001019060200180831161343f57829003601f168201915b505050505081526020016005820180546134759061544c565b80601f01602080910402602001604051908101604052809291908181526020018280546134a19061544c565b80156134ee5780601f106134c3576101008083540402835291602001916134ee565b820191906000526020600020905b8154815290600101906020018083116134d157829003601f168201915b505050918352505060068201546001600160a01b039081166020830152600783015416604082015260088201805460609092019161352b9061544c565b80601f01602080910402602001604051908101604052809291908181526020018280546135579061544c565b80156135a45780601f10613579576101008083540402835291602001916135a4565b820191906000526020600020905b81548152906001019060200180831161358757829003601f168201915b505050505081526020016009820180546135bd9061544c565b80601f01602080910402602001604051908101604052809291908181526020018280546135e99061544c565b80156136365780601f1061360b57610100808354040283529160200191613636565b820191906000526020600020905b81548152906001019060200180831161361957829003601f168201915b5050505050815250509050919050565b61364e613993565b63389a75e1600c52806000526020600c20805442111561367657636f5e88186000526004601cfd5b6000905561142c81613ce5565b6060806060600061369388612556565b600e54608082015160009081526010602052604090819020905163aeea03e560e01b81529293506001600160a01b039091169163aeea03e5916136e3918c918c918c918c91899190600401615b80565b600060405180830381865afa158015613700573d6000803e3d6000fd5b505050506040513d6000823e601f3d908101601f191682016040526137289190810190615ab3565b935093509350509450945094915050565b613741613993565b8060601b61375757637448fbae6000526004601cfd5b61142c81613ce5565b600e5460808301516000908152601060205260409081902090516330235ddd60e21b8152606092839283926001600160a01b039092169163c08d7774916137ad9189918991600401615745565b600060405180830381865afa1580156137ca573d6000803e3d6000fd5b505050506040513d6000823e601f3d908101601f191682016040526137f29190810190615ab3565b9250925092509250925092565b60006001600160e01b0319821663780e9d6360e01b1480610dc95750610dc982613e99565b6000818152600260205260409020546001600160a01b031661142c5760405162461bcd60e51b8152602060048201526018602482015277115490cdcc8c4e881a5b9d985b1a59081d1bdad95b88125160421b6044820152606401611455565b600061388e82611986565b9050806001600160a01b0316836001600160a01b0316036138fb5760405162461bcd60e51b815260206004820152602160248201527f4552433732313a20617070726f76616c20746f2063757272656e74206f776e656044820152603960f91b6064820152608401611455565b336001600160a01b038216148061391757506139178133610c6b565b6139895760405162461bcd60e51b815260206004820152603e60248201527f4552433732313a20617070726f76652063616c6c6572206973206e6f7420746f60448201527f6b656e206f776e6572206e6f7220617070726f76656420666f7220616c6c00006064820152608401611455565b6114698383613d23565b638b78c6d819543314611a7e576382b429006000526004601cfd5b6000806139ba83611986565b9050806001600160a01b0316846001600160a01b03161480613a0157506001600160a01b0380821660009081526005602090815260408083209388168352929052205460ff165b806121ed5750836001600160a01b0316613a1a84610e61565b6001600160a01b031614949350505050565b826001600160a01b0316613a3f82611986565b6001600160a01b031614613aa35760405162461bcd60e51b815260206004820152602560248201527f4552433732313a207472616e736665722066726f6d20696e636f72726563742060448201526437bbb732b960d91b6064820152608401611455565b6001600160a01b038216613b055760405162461bcd60e51b8152602060048201526024808201527f4552433732313a207472616e7366657220746f20746865207a65726f206164646044820152637265737360e01b6064820152608401611455565b613b10838383613ee9565b613b1b600082613d23565b6001600160a01b0383166000908152600360205260408120805460019290613b449084906154ac565b90915550506001600160a01b0382166000908152600360205260408120805460019290613b7290849061554e565b909155505060008181526002602052604080822080546001600160a01b0319166001600160a01b0386811691821790925591518493918716917fddf252ad1be2c89b69c2b068fc378daa952ba7f163c4a11628f55a4df523b3ef91a461146983838361406a565b61142c81604051602401613bed91906148b6565b60408051601f198184030181529190526020810180516001600160e01b031663104c13eb60e21b1790526141a0565b6110af8282604051806020016040528060008152506141c1565b6000613c4182611986565b9050613c4f81600084613ee9565b613c5a600083613d23565b6001600160a01b0381166000908152600360205260408120805460019290613c839084906154ac565b909155505060008281526002602052604080822080546001600160a01b0319169055518391906001600160a01b038416907fddf252ad1be2c89b69c2b068fc378daa952ba7f163c4a11628f55a4df523b3ef908390a46110af8160008461406a565b638b78c6d81980546001600160a01b039092169182907f8be0079c531659141344cd1fd0a4f28419497f9722a3daafe3b4186f6b6457e0600080a355565b600081815260046020526040902080546001600160a01b0319166001600160a01b0384169081179091558190613d5882611986565b6001600160a01b03167f8c5be1e5ebec7d5bd14f71427d1e84f3dd0314c0f7b2291e5b200ac8c7c3b92560405160405180910390a45050565b816001600160a01b0316836001600160a01b031603613dee5760405162461bcd60e51b815260206004820152601960248201527822a9219b99189d1030b8383937bb32903a379031b0b63632b960391b6044820152606401611455565b6001600160a01b03838116600081815260056020908152604080832094871680845294825291829020805460ff191686151590811790915591519182527f17307eab39ab6107e8899845ad3d59bd9653f200f220920489ca2b5937696c31910160405180910390a3505050565b6110af338383613d91565b613e71848484613a2c565b613e7d848484846141f4565b6127275760405162461bcd60e51b815260040161145590615bf1565b60006001600160e01b031982166380ac58cd60e01b1480613eca57506001600160e01b03198216635b5e139f60e01b145b80610dc957506301ffc9a760e01b6001600160e01b0319831614610dc9565b6001600160a01b038316613f02576114698383836142f5565b601354604051634f6088cd60e01b8152600481018390526000916001600160a01b031690634f6088cd90602401608060405180830381865afa158015613f4c573d6000803e3d6000fd5b505050506040513d601f19601f82011682018060405250810190613f709190615c43565b5090925050506001600160a01b03811615613fb0576013546001600160a01b03163314613fb05760405163bf646b0f60e01b815260040160405180910390fd5b6001600160a01b038316613fd357613fc882846143ad565b6127278484846142f5565b60125460405162525fcd60e91b81526001600160a01b0385811660048301529091169063a4bf9a0090602401602060405180830381865afa15801561401c573d6000803e3d6000fd5b505050506040513d601f19601f820116820180604052508101906140409190615c98565b600003614060576040516326a45c0160e21b815260040160405180910390fd5b613fc882846143ad565b6012546001600160a01b03166140935760405163787124d760e11b815260040160405180910390fd5b6013546001600160a01b03166140bc5760405163382eb47160e21b815260040160405180910390fd5b60006140c782611986565b60125460405162525fcd60e91b81526001600160a01b0380841660048301529293506000929091169063a4bf9a0090602401602060405180830381865afa158015614116573d6000803e3d6000fd5b505050506040513d601f19601f8201168201806040525081019061413a9190615c98565b60135460405163236313ff60e11b8152600481018390529192506001600160a01b0316906346c627fe90602401600060405180830381600087803b15801561418157600080fd5b505af1158015614195573d6000803e3d6000fd5b505050505050505050565b80516a636f6e736f6c652e6c6f67602083016000808483855afa5050505050565b6141cb8383614444565b6141d860008484846141f4565b6114695760405162461bcd60e51b815260040161145590615bf1565b60006001600160a01b0384163b156142ea57604051630a85bd0160e11b81526001600160a01b0385169063150b7a0290614238903390899088908890600401615cb1565b6020604051808303816000875af1925050508015614273575060408051601f3d908101601f1916820190925261427091810190615ce4565b60015b6142d0573d8080156142a1576040519150601f19603f3d011682016040523d82523d6000602084013e6142a6565b606091505b5080516000036142c85760405162461bcd60e51b815260040161145590615bf1565b805181602001fd5b6001600160e01b031916630a85bd0160e11b1490506121ed565b506001949350505050565b6001600160a01b0383166143505761434b81600880546000838152600960205260408120829055600182018355919091527ff3f7a9fe364faab93b216da50a3214154f22a0a2b415b23a84c8169e8b636ee30155565b614373565b816001600160a01b0316836001600160a01b03161461437357614373838261459a565b6001600160a01b03821661438a5761146981614637565b826001600160a01b0316826001600160a01b0316146114695761146982826146e6565b601354604051632e1d274f60e01b8152600481018490526001600160a01b0390911690632e1d274f90602401600060405180830381600087803b1580156143f357600080fd5b505af1158015614407573d6000803e3d6000fd5b50506013546040516302fbe78f60e41b8152600481018690526001600160a01b0385811660248301529091169250632fbe78f09150604401612dd2565b6001600160a01b03821661449a5760405162461bcd60e51b815260206004820181905260248201527f4552433732313a206d696e7420746f20746865207a65726f20616464726573736044820152606401611455565b6000818152600260205260409020546001600160a01b0316156144ff5760405162461bcd60e51b815260206004820152601c60248201527f4552433732313a20746f6b656e20616c7265616479206d696e746564000000006044820152606401611455565b61450b60008383613ee9565b6001600160a01b038216600090815260036020526040812080546001929061453490849061554e565b909155505060008181526002602052604080822080546001600160a01b0319166001600160a01b03861690811790915590518392907fddf252ad1be2c89b69c2b068fc378daa952ba7f163c4a11628f55a4df523b3ef908290a46110af6000838361406a565b600060016145a7846119e6565b6145b191906154ac565b600083815260076020526040902054909150808214614604576001600160a01b03841660009081526006602090815260408083208584528252808320548484528184208190558352600790915290208190555b5060009182526007602090815260408084208490556001600160a01b039094168352600681528383209183525290812055565b600854600090614649906001906154ac565b6000838152600960205260408120546008805493945090928490811061467157614671615480565b90600052602060002001549050806008838154811061469257614692615480565b60009182526020808320909101929092558281526009909152604080822084905585825281205560088054806146ca576146ca6154bf565b6001900381819060005260206000200160009055905550505050565b60006146f1836119e6565b6001600160a01b039093166000908152600660209081526040808320868452825280832085905593825260079052919091209190915550565b508054600082559060005260206000209081019061142c91906147ad565b60408051610140810182526000808252606060208301529091820190815260200160608152602001606081526020016060815260200160006001600160a01b0316815260200160006001600160a01b0316815260200160608152602001606081525090565b5b808211156147c257600081556001016147ae565b5090565b6000602082840312156147d857600080fd5b5035919050565b6020808252825182820181905260009190848201906040850190845b818110156148205783516001600160a01b0316835292840192918401916001016147fb565b50909695505050505050565b6001600160e01b03198116811461142c57600080fd5b60006020828403121561485457600080fd5b813561485f8161482c565b9392505050565b60005b83811015614881578181015183820152602001614869565b50506000910152565b600081518084526148a2816020860160208601614866565b601f01601f19169290920160200192915050565b60208152600061485f602083018461488a565b6001600160a01b038116811461142c57600080fd5b80356148e9816148c9565b919050565b6000806040838503121561490157600080fd5b823561490c816148c9565b946020939093013593505050565b6000806040838503121561492d57600080fd5b50508035926020909101359150565b60006020828403121561494e57600080fd5b813561485f816148c9565b634e487b7160e01b600052602160045260246000fd5b6008811061498d57634e487b7160e01b600052602160045260246000fd5b9052565b805182526020810151151560208301526040810151604083015260018060a01b0360608201511660608301526080810151608083015260a081015161146960a084018261496f565b60c08101610dc98284614991565b634e487b7160e01b600052604160045260246000fd5b60405160c081016001600160401b0381118282101715614a1f57614a1f6149e7565b60405290565b60405161014081016001600160401b0381118282101715614a1f57614a1f6149e7565b60405161018081016001600160401b0381118282101715614a1f57614a1f6149e7565b604051601f8201601f191681016001600160401b0381118282101715614a9357614a936149e7565b604052919050565b60006001600160401b03821115614ab457614ab46149e7565b50601f01601f191660200190565b600082601f830112614ad357600080fd5b8135614ae6614ae182614a9b565b614a6b565b818152846020838601011115614afb57600080fd5b816020850160208301376000918101602001919091529392505050565b600060208284031215614b2a57600080fd5b81356001600160401b03811115614b4057600080fd5b6121ed84828501614ac2565b600080600060608486031215614b6157600080fd5b8335614b6c816148c9565b92506020840135614b7c816148c9565b929592945050506040919091013590565b801515811461142c57600080fd5b80356148e981614b8d565b6008811061142c57600080fd5b80356148e981614ba6565b600060c08284031215614bd057600080fd5b614bd86149fd565b9050813581526020820135614bec81614b8d565b6020820152604082810135908201526060820135614c09816148c9565b60608201526080828101359082015260a0820135614c2681614ba6565b60a082015292915050565b60008060e08385031215614c4457600080fd5b614c4e8484614bbe565b9460c0939093013593505050565b604081526000614c6f604083018561488a565b82810360208401526126ec818561488a565b60008060e08385031215614c9457600080fd5b82359150614ca58460208501614bbe565b90509250929050565b6020808252825182820181905260009190848201906040850190845b8181101561482057835183529284019291840191600101614cca565b60006101408c8352806020840152614d008184018d61488a565b9050614d0f604084018c61496f565b8281036060840152614d21818b61488a565b90508281036080840152614d35818a61488a565b905082810360a0840152614d49818961488a565b6001600160a01b0388811660c0860152871660e08501528381036101008501529050614d75818661488a565b9050828103610120840152614d8a818561488a565b9d9c50505050505050505050505050565b60008060408385031215614dae57600080fd5b8235915060208301356001600160401b0380821115614dcc57600080fd5b908401906101408287031215614de157600080fd5b614de9614a25565b82358152602083013582811115614dff57600080fd5b614e0b88828601614ac2565b602083015250614e1d60408401614bb3565b6040820152606083013582811115614e3457600080fd5b614e4088828601614ac2565b606083015250608083013582811115614e5857600080fd5b614e6488828601614ac2565b60808301525060a083013582811115614e7c57600080fd5b614e8888828601614ac2565b60a083015250614e9a60c084016148de565b60c0820152614eab60e084016148de565b60e08201526101008084013583811115614ec457600080fd5b614ed089828701614ac2565b8284015250506101208084013583811115614eea57600080fd5b614ef689828701614ac2565b8284015250508093505050509250929050565b60008060408385031215614f1c57600080fd5b8235614f27816148c9565b91506020830135614f3781614b8d565b809150509250929050565b60008060008060808587031215614f5857600080fd5b8435614f63816148c9565b93506020850135614f73816148c9565b92506040850135915060608501356001600160401b03811115614f9557600080fd5b614fa187828801614ac2565b91505092959194509250565b803563ffffffff811681146148e957600080fd5b803560ff811681146148e957600080fd5b600060208284031215614fe457600080fd5b81356001600160401b0380821115614ffb57600080fd5b90830190610180828603121561501057600080fd5b615018614a48565b823581526020830135602082015260408301356040820152606083013560608201526080830135608082015260a083013560a082015260c083013560c082015261506460e08401614fad565b60e08201526101008381013590820152610120615082818501614fc1565b90820152610140838101358381111561509a57600080fd5b6150a688828701614ac2565b82840152505061016091506150bc828401614b9b565b91810191909152949350505050565b6060815260006150de606083018661488a565b82810360208401526150f0818661488a565b90508281036040840152615104818561488a565b9695505050505050565b60208152815160208201526000602083015161014080604085015261513761016085018361488a565b9150604085015161514b606086018261496f565b506060850151601f1980868503016080870152615168848361488a565b935060808701519150808685030160a0870152615185848361488a565b935060a08701519150808685030160c08701526151a2848361488a565b935060c087015191506151c060e08701836001600160a01b03169052565b60e087015191506101006151de818801846001600160a01b03169052565b808801519250506101208187860301818801526151fb858461488a565b908801518782039092018488015293509050615104838261488a565b60008060006060848603121561522c57600080fd5b8335925060208401356001600160401b038082111561524a57600080fd5b61525687838801614ac2565b9350604086013591508082111561526c57600080fd5b5061527986828701614ac2565b9150509250925092565b6000806040838503121561529657600080fd5b82356001600160401b03808211156152ad57600080fd5b6152b986838701614ac2565b935060208501359150808211156152cf57600080fd5b506152dc85828601614ac2565b9150509250929050565b600060208083850312156152f957600080fd5b82356001600160401b038082111561531057600080fd5b818501915085601f83011261532457600080fd5b813581811115615336576153366149e7565b8060051b9150615347848301614a6b565b818152918301840191848101908884111561536157600080fd5b938501935b8385101561537f57843582529385019390850190615366565b98975050505050505050565b60208101610dc9828461496f565b600080604083850312156153ac57600080fd5b82356153b7816148c9565b91506020830135614f37816148c9565b600080600080608085870312156153dd57600080fd5b8435935060208501356001600160401b03808211156153fb57600080fd5b61540788838901614ac2565b9450604087013591508082111561541d57600080fd5b61542988838901614ac2565b9350606087013591508082111561543f57600080fd5b50614fa187828801614ac2565b600181811c9082168061546057607f821691505b60208210810361177f57634e487b7160e01b600052602260045260246000fd5b634e487b7160e01b600052603260045260246000fd5b634e487b7160e01b600052601160045260246000fd5b81810381811115610dc957610dc9615496565b634e487b7160e01b600052603160045260246000fd5b600082601f8301126154e657600080fd5b81516154f4614ae182614a9b565b81815284602083860101111561550957600080fd5b6121ed826020830160208701614866565b60006020828403121561552c57600080fd5b81516001600160401b0381111561554257600080fd5b6121ed848285016154d5565b80820180821115610dc957610dc9615496565b60008261557e57634e487b7160e01b600052601260045260246000fd5b500690565b60006001820161559557615595615496565b5060010190565b6020808252602e908201527f4552433732313a2063616c6c6572206973206e6f7420746f6b656e206f776e6560408201526d1c881b9bdc88185c1c1c9bdd995960921b606082015260800190565b600081546155f78161544c565b808552602060018381168015615614576001811461562e5761565c565b60ff1985168884015283151560051b88018301955061565c565b866000528260002060005b858110156156545781548a8201860152908301908401615639565b890184019650505b505050505092915050565b600061014082548452806020850152615685818501600185016155ea565b9050615695600284015460ff1690565b6156a2604086018261496f565b5083810360608501526156b881600385016155ea565b905083810360808501526156cf81600485016155ea565b905083810360a08501526156e681600585016155ea565b90506156fc60068401546001600160a01b031690565b6001600160a01b0390811660c086015260078401541660e085015283810361010085015261572d81600885016155ea565b90508381036101208501526121ed81600985016155ea565b60006101006157548387614991565b8460c08401528060e084015261510481840185615667565b6000806040838503121561577f57600080fd5b82516001600160401b038082111561579657600080fd5b6157a2868387016154d5565b935060208501519150808211156157b857600080fd5b506152dc858286016154d5565b601f821115611469576000816000526020600020601f850160051c810160208610156157ee5750805b601f850160051c820191505b81811015612e00578281556001016157fa565b81516001600160401b03811115615826576158266149e7565b61583a81615834845461544c565b846157c5565b602080601f83116001811461586f57600084156158575750858301515b600019600386901b1c1916600185901b178555612e00565b600085815260208120601f198616915b8281101561589e5788860151825594840194600190910190840161587f565b50858210156158bc5787850151600019600388901b60f8161c191681555b5050505050600190811b01905550565b60006101408783526158e16020840188614991565b8060e08401526158f381840187615667565b9050828103610100840152615908818661488a565b905082810361012084015261537f818561488a565b60208152600061485f60208301846155ea565b831515815261010081016159476020830185614991565b6001600160801b03831660e0830152949350505050565b600060c0828403121561597057600080fd5b6159786149fd565b82518152602083015161598a81614b8d565b60208201526040838101519082015260608301516159a7816148c9565b60608201526080838101519082015260a08301516159c481614ba6565b60a08201529392505050565b6000610180825184526020830151602085015260408301516040850152606083015160608501526080830151608085015260a083015160a085015260c083015160c085015260e0830151615a2c60e086018263ffffffff169052565b5061010083810151908501526101208084015160ff169085015261014080840151818601839052615a5f8387018261488a565b9250505061016080840151615a778287018215159052565b5090949350505050565b604081526000615a9460408301866159d0565b90506121ed60208301848660201b63ffffffff919091161760401b9052565b600080600060608486031215615ac857600080fd5b83516001600160401b0380821115615adf57600080fd5b615aeb878388016154d5565b94506020860151915080821115615b0157600080fd5b615b0d878388016154d5565b93506040860151915080821115615b2357600080fd5b50615279868287016154d5565b6000610140878352806020840152615b4a8184018861488a565b90508281036040840152615b5e818761488a565b9050615b6d6060840186614991565b82810361012084015261537f8185615667565b6000610160888352806020840152615b9a8184018961488a565b90508281036040840152615bae818861488a565b90508281036060840152615bc2818761488a565b9050615bd16080840186614991565b828103610140840152615be48185615667565b9998505050505050505050565b60208082526032908201527f4552433732313a207472616e7366657220746f206e6f6e20455243373231526560408201527131b2b4bb32b91034b6b83632b6b2b73a32b960711b606082015260800190565b60008060008060808587031215615c5957600080fd5b845193506020850151615c6b816148c9565b6040860151909350615c7c816148c9565b6060860151909250615c8d816148c9565b939692955090935050565b600060208284031215615caa57600080fd5b5051919050565b6001600160a01b03858116825284166020820152604081018390526080606082018190526000906151049083018461488a565b600060208284031215615cf657600080fd5b815161485f8161482c56fea264697066735822122021398336277e60bf59230136b2615a8d1f4d58d2f223d04d13a806d30278ff8064736f6c63430008160033608060405234801561001057600080fd5b50612fa6806100206000396000f3fe608060405234801561001057600080fd5b50600436106100f55760003560e01c80635c1ef25611610097578063aeea03e511610066578063aeea03e5146101e8578063c08d7774146101fb578063e1defed91461020e578063e6ab9d5a1461022357600080fd5b80635c1ef256146101a7578063898aa117146101af5780639a4813d8146101c2578063a5e11e05146101d557600080fd5b806338ce9433116100d357806338ce94331461015757806351dc71891461016a5780635ab38bf7146101725780635bf382591461019457600080fd5b806321b12c23146100fa57806329aadc5c146101235780632fbcb97e14610144575b600080fd5b61010d610108366004611e7e565b61022b565b60405161011a9190611f0a565b60405180910390f35b61013661013136600461212f565b610a74565b60405161011a9291906121d4565b610136610152366004612202565b610af4565b610136610165366004612369565b610bfc565b610136610f69565b610185610180366004612369565b611089565b60405161011a939291906123cc565b61010d6101a2366004611e7e565b61141e565b61010d611462565b61010d6101bd366004611e7e565b611531565b61010d6101d0366004611e7e565b611783565b61010d6101e336600461240f565b6117c8565b6101856101f63660046124a8565b6119f7565b610185610209366004612202565b611aa6565b61022161021c366004612570565b611bc9565b005b61010d611be7565b60606000604051806102000160405280604051806040016040528060018152602001600360fc1b8152508152602001604051806040016040528060018152602001603160f81b8152508152602001604051806040016040528060018152602001601960f91b8152508152602001604051806040016040528060018152602001603360f81b8152508152602001604051806040016040528060018152602001600d60fa1b8152508152602001604051806040016040528060018152602001603560f81b8152508152602001604051806040016040528060018152602001601b60f91b8152508152602001604051806040016040528060018152602001603760f81b8152508152602001604051806040016040528060018152602001600760fb1b8152508152602001604051806040016040528060018152602001603960f81b8152508152602001604051806040016040528060018152602001606160f81b8152508152602001604051806040016040528060018152602001603160f91b8152508152602001604051806040016040528060018152602001606360f81b8152508152602001604051806040016040528060018152602001601960fa1b8152508152602001604051806040016040528060018152602001606560f81b8152508152602001604051806040016040528060018152602001603360f91b81525081525090506000604051806103c00160405280604051806040016040528060018152602001600360fc1b8152508152602001604051806040016040528060018152602001603160f81b8152508152602001604051806040016040528060018152602001601960f91b8152508152602001604051806040016040528060018152602001603360f81b8152508152602001604051806040016040528060018152602001600d60fa1b8152508152602001604051806040016040528060018152602001603560f81b8152508152602001604051806040016040528060018152602001601b60f91b8152508152602001604051806040016040528060018152602001603760f81b8152508152602001604051806040016040528060018152602001600760fb1b8152508152602001604051806040016040528060018152602001603960f81b815250815260200160405180604001604052806002815260200161031360f41b815250815260200160405180604001604052806002815260200161313160f01b815250815260200160405180604001604052806002815260200161189960f11b815250815260200160405180604001604052806002815260200161313360f01b8152508152602001604051806040016040528060028152602001610c4d60f21b815250815260200160405180604001604052806002815260200161313560f01b815250815260200160405180604001604052806002815260200161189b60f11b815250815260200160405180604001604052806002815260200161313760f01b815250815260200160405180604001604052806002815260200161062760f31b815250815260200160405180604001604052806002815260200161313960f01b815250815260200160405180604001604052806002815260200161032360f41b815250815260200160405180604001604052806002815260200161323160f01b815250815260200160405180604001604052806002815260200161191960f11b815250815260200160405180604001604052806002815260200161323360f01b8152508152602001604051806040016040528060028152602001610c8d60f21b815250815260200160405180604001604052806002815260200161323560f01b815250815260200160405180604001604052806002815260200161191b60f11b815250815260200160405180604001604052806002815260200161323760f01b815250815260200160405180604001604052806002815260200161064760f31b815250815260200160405180604001604052806002815260200161323960f01b815250815250905060005b611194811015610a6c57600060f81b858281518110610813576108136125d3565b01602001516001600160f81b0319161115610a5a576000601e610837600584612615565b6108419190612629565b90506000601e610852600585612615565b61085c9190612615565b905060008560048961086f87600261263d565b8151811061087f5761087f6125d3565b016020015160f81c901c60ff166010811061089c5761089c6125d3565b602002015186896108ae87600261263d565b815181106108be576108be6125d3565b60209101015160f81c600f16601081106108da576108da6125d3565b60200201518760048b6108ee89600361263d565b815181106108fe576108fe6125d3565b016020015160f81c901c60ff166010811061091b5761091b6125d3565b6020020151888b61092d89600361263d565b8151811061093d5761093d6125d3565b60209101015160f81c600f1660108110610959576109596125d3565b60200201518960048d61096c8b8361263d565b8151811061097c5761097c6125d3565b016020015160f81c901c60ff1660108110610999576109996125d3565b60200201518a8d6109ab8b600461263d565b815181106109bb576109bb6125d3565b60209101015160f81c600f16601081106109d7576109d76125d3565b60200201516040516020016109f196959493929190612650565b6040516020818303038152906040529050868584601e8110610a1557610a156125d3565b60200201518684601e8110610a2c57610a2c6125d3565b602002015183604051602001610a4594939291906126cf565b60405160208183030381529060405296505050505b610a6560058261263d565b90506107f2565b505050919050565b606080606080610a85868a87610af4565b8851909350909150600003610a9f57809350819250610ae8565b8781604051602001610ab2929190612789565b60405160208183030381529060405293508682604051602001610ad69291906127b8565b60405160208183030381529060405292505b50509550959350505050565b60608084602001518015610b085750600084115b15610bb05760408084015190516301be83d160e11b8152610b9a9173__$4987fe9f4e800c5c4c1535f64ed232842a$__9163037d07a291610b4b916004016127f4565b600060405180830381865af4158015610b68573d6000803e3d6000fd5b505050506040513d6000823e601f3d908101601f19168201604052610b90919081019061286c565b8460200151611c08565b9050610ba98360800151611783565b9150610bf4565b604051806040016040528060028152602001617b7d60f01b81525090506040518060400160405280600b81526020016a1e39bb339f1e17b9bb339f60a91b81525091505b935093915050565b60608060008560c001511115610c7e5783838660c0015184846040518463ffffffff1660e01b8152600401610c33939291906128a0565b600060405180830381865afa158015610c50573d6000803e3d6000fd5b505050506040513d6000823e601f3d908101601f19168201604052610c7891908101906128cb565b90925090505b60a085015115610cfa5783838660a0015184846040518463ffffffff1660e01b8152600401610caf939291906128a0565b600060405180830381865afa158015610ccc573d6000803e3d6000fd5b505050506040513d6000823e601f3d908101601f19168201604052610cf491908101906128cb565b90925090505b608085015115610d76578383866080015184846040518463ffffffff1660e01b8152600401610d2b939291906128a0565b600060405180830381865afa158015610d48573d6000803e3d6000fd5b505050506040513d6000823e601f3d908101601f19168201604052610d7091908101906128cb565b90925090505b604085015115610df2578383866040015184846040518463ffffffff1660e01b8152600401610da7939291906128a0565b600060405180830381865afa158015610dc4573d6000803e3d6000fd5b505050506040513d6000823e601f3d908101601f19168201604052610dec91908101906128cb565b90925090505b602085015115610e6e578383866020015184846040518463ffffffff1660e01b8152600401610e23939291906128a0565b600060405180830381865afa158015610e40573d6000803e3d6000fd5b505050506040513d6000823e601f3d908101601f19168201604052610e6891908101906128cb565b90925090505b845115610ee7578383866000015184846040518463ffffffff1660e01b8152600401610e9c939291906128a0565b600060405180830381865afa158015610eb9573d6000803e3d6000fd5b505050506040513d6000823e601f3d908101601f19168201604052610ee191908101906128cb565b90925090505b606085015115610bf4578383866060015184846040518463ffffffff1660e01b8152600401610f18939291906128a0565b600060405180830381865afa158015610f35573d6000803e3d6000fd5b505050506040513d6000823e601f3d908101601f19168201604052610f5d91908101906128cb565b90969095509350505050565b600080548190610f7890612924565b80601f0160208091040260200160405190810160405280929190818152602001828054610fa490612924565b8015610ff15780601f10610fc657610100808354040283529160200191610ff1565b820191906000526020600020905b815481529060010190602001808311610fd457829003601f168201915b50505050509080600101805461100690612924565b80601f016020809104026020016040519081016040528092919081815260200182805461103290612924565b801561107f5780601f106110545761010080835404028352916020019161107f565b820191906000526020600020905b81548152906001019060200180831161106257829003601f168201915b5050505050905082565b606080606060008660c0015111156111125784848760c001518584866040518563ffffffff1660e01b81526004016110c4949392919061295e565b600060405180830381865afa1580156110e1573d6000803e3d6000fd5b505050506040513d6000823e601f3d908101601f1916820160405261110991908101906129a8565b91945090925090505b60a0860151156111935784848760a001518584866040518563ffffffff1660e01b8152600401611145949392919061295e565b600060405180830381865afa158015611162573d6000803e3d6000fd5b505050506040513d6000823e601f3d908101601f1916820160405261118a91908101906129a8565b91945090925090505b60808601511561121457848487608001518584866040518563ffffffff1660e01b81526004016111c6949392919061295e565b600060405180830381865afa1580156111e3573d6000803e3d6000fd5b505050506040513d6000823e601f3d908101601f1916820160405261120b91908101906129a8565b91945090925090505b60408601511561129557848487604001518584866040518563ffffffff1660e01b8152600401611247949392919061295e565b600060405180830381865afa158015611264573d6000803e3d6000fd5b505050506040513d6000823e601f3d908101601f1916820160405261128c91908101906129a8565b91945090925090505b60208601511561131657848487602001518584866040518563ffffffff1660e01b81526004016112c8949392919061295e565b600060405180830381865afa1580156112e5573d6000803e3d6000fd5b505050506040513d6000823e601f3d908101601f1916820160405261130d91908101906129a8565b91945090925090505b85511561139457848487600001518584866040518563ffffffff1660e01b8152600401611346949392919061295e565b600060405180830381865afa158015611363573d6000803e3d6000fd5b505050506040513d6000823e601f3d908101601f1916820160405261138b91908101906129a8565b91945090925090505b60608601511561141557848487606001518584866040518563ffffffff1660e01b81526004016113c7949392919061295e565b600060405180830381865afa1580156113e4573d6000803e3d6000fd5b505050506040513d6000823e601f3d908101601f1916820160405261140c91908101906129a8565b91945090925090505b93509350939050565b606060405180610100016040528060d28152602001612e9f60d291398260405160200161144c929190612a39565b6040516020818303038152906040529050919050565b606060006114fb60008001805461147890612924565b80601f01602080910402602001604051908101604052809291908181526020018280546114a490612924565b80156114f15780601f106114c6576101008083540402835291602001916114f1565b820191906000526020600020905b8154815290600101906020018083116114d457829003601f168201915b5050505050611531565b905060006115088261022b565b90508060405160200161151b9190612a79565b6040516020818303038152906040529250505090565b8051604080516111948082526111c0820190925260609291600091906020820181803683370190505090506000611569600584612615565b905060005b81811015611779576000611583826005612ae3565b90506000878281518110611599576115996125d3565b016020015160f81c90506000886115b184600161263d565b815181106115c1576115c16125d3565b016020015160f81c9050600060ff83166115dc83601e612ae3565b6115e6919061263d565b6115f1906005612ae3565b9050898481518110611605576116056125d3565b602001015160f81c60f81b878281518110611622576116226125d3565b60200101906001600160f81b031916908160001a90535089846001018151811061164e5761164e6125d3565b602001015160f81c60f81b87826001018151811061166e5761166e6125d3565b60200101906001600160f81b031916908160001a90535089846002018151811061169a5761169a6125d3565b602001015160f81c60f81b8782600201815181106116ba576116ba6125d3565b60200101906001600160f81b031916908160001a9053508984600301815181106116e6576116e66125d3565b602001015160f81c60f81b878260030181518110611706576117066125d3565b60200101906001600160f81b031916908160001a905350898460040181518110611732576117326125d3565b602001015160f81c60f81b878260040181518110611752576117526125d3565b60200101906001600160f81b031916908160001a905350506001909301925061156e915050565b5090949350505050565b6060600061179083611531565b9050600061179d8261022b565b9050806040516020016117b09190612afa565b60405160208183030381529060405292505050919050565b60608060608660200151156118e75760a08701516040516301be83d160e11b81526118649173__$4987fe9f4e800c5c4c1535f64ed232842a$__9163037d07a291611815916004016127f4565b600060405180830381865af4158015611832573d6000803e3d6000fd5b505050506040513d6000823e601f3d908101601f1916820160405261185a919081019061286c565b8760200151611c08565b6118926040518060400160405280600781526020016621b932b0ba37b960c91b815250886101000151611c08565b6118bf6040518060400160405280600681526020016529b2b0b9b7b760d11b815250896101200151611c08565b6040516020016118d193929190612b3f565b6040516020818303038152906040529050611938565b6040518060400160405280600f81526020016e2261747472696275746573223a5b5d60881b81525090506040518060400160405280600b81526020016a1e39bb339f1e17b9bb339f60a91b81525093505b611962858560405160200161194e929190612789565b60405160208183030381529060405261141e565b9150600061196f83611c35565b60405160200161197f9190612bc2565b6040516020818303038152906040529050600061199b8a611c43565b83836040516020016119af93929190612c1e565b60405160208183030381529060405290506119c981611c35565b6040516020016119d99190612cd9565b60405160208183030381529060405294505050505095945050505050565b606080606080606080611a0b888d89611aa6565b8c519095509193509150600003611a2a57819550829450809350611a97565b8a82604051602001611a3d929190612789565b60405160208183030381529060405295508983604051602001611a619291906127b8565b60405160208183030381529060405294508881604051602001611a85929190612789565b60405160208183030381529060405293505b50505096509650969350505050565b606080606085602001518015611abc5750600085115b15611b6b57611ace8460800151611783565b9250611b5d73__$4987fe9f4e800c5c4c1535f64ed232842a$__63037d07a286604001516040518263ffffffff1660e01b8152600401611b0e91906127f4565b600060405180830381865af4158015611b2b573d6000803e3d6000fd5b505050506040513d6000823e601f3d908101601f19168201604052611b53919081019061286c565b8560200151611c08565b90508360a001519150611415565b6040518060400160405280600b81526020016a1e39bb339f1e17b9bb339f60a91b8152509250604051806040016040528060028152602001617b7d60f01b815250905060405180602001604052806000815250915093509350939050565b6000611bd58382612d6e565b506001611be28282612d6e565b505050565b606060405180610100016040528060d28152602001612e9f60d29139905090565b60608282604051602001611c1d929190612e2d565b60405160208183030381529060405290505b92915050565b6060611c2f82600080611c87565b60606080604051019050602081016040526000815280600019835b928101926030600a8206018453600a900480611c5e575050819003601f19909101908152919050565b606083518015611d67576003600282010460021b60405192507f4142434445464748494a4b4c4d4e4f505152535455565758595a616263646566601f526106708515027f6768696a6b6c6d6e6f707172737475767778797a303132333435363738392d5f18603f52602083018181015b6003880197508751603f8160121c1651600053603f81600c1c1651600153603f8160061c1651600253603f811651600353506000518252600482019150808210611cf757602001604052613d3d60f01b600384066002048083039190915260008615159091029182900352900382525b509392505050565b634e487b7160e01b600052604160045260246000fd5b60405161014081016001600160401b0381118282101715611da857611da8611d6f565b60405290565b60405161018081016001600160401b0381118282101715611da857611da8611d6f565b604051601f8201601f191681016001600160401b0381118282101715611df957611df9611d6f565b604052919050565b60006001600160401b03821115611e1a57611e1a611d6f565b50601f01601f191660200190565b600082601f830112611e3957600080fd5b8135611e4c611e4782611e01565b611dd1565b818152846020838601011115611e6157600080fd5b816020850160208301376000918101602001919091529392505050565b600060208284031215611e9057600080fd5b81356001600160401b03811115611ea657600080fd5b611eb284828501611e28565b949350505050565b60005b83811015611ed5578181015183820152602001611ebd565b50506000910152565b60008151808452611ef6816020860160208601611eba565b601f01601f19169290920160200192915050565b602081526000611f1d6020830184611ede565b9392505050565b80358015158114611f3457600080fd5b919050565b80356001600160a01b0381168114611f3457600080fd5b803560088110611f3457600080fd5b600060c08284031215611f7157600080fd5b60405160c081018181106001600160401b0382111715611f9357611f93611d6f565b60405282358152905080611fa960208401611f24565b602082015260408301356040820152611fc460608401611f39565b606082015260808301356080820152611fdf60a08401611f50565b60a08201525092915050565b60006101408284031215611ffe57600080fd5b612006611d85565b90508135815260208201356001600160401b038082111561202657600080fd5b61203285838601611e28565b602084015261204360408501611f50565b6040840152606084013591508082111561205c57600080fd5b61206885838601611e28565b6060840152608084013591508082111561208157600080fd5b61208d85838601611e28565b608084015260a08401359150808211156120a657600080fd5b6120b285838601611e28565b60a08401526120c360c08501611f39565b60c08401526120d460e08501611f39565b60e0840152610100915081840135818111156120ef57600080fd5b6120fb86828701611e28565b83850152506101209150818401358181111561211657600080fd5b61212286828701611e28565b8385015250505092915050565b6000806000806000610140868803121561214857600080fd5b8535945060208601356001600160401b038082111561216657600080fd5b61217289838a01611e28565b9550604088013591508082111561218857600080fd5b61219489838a01611e28565b94506121a38960608a01611f5f565b93506101208801359150808211156121ba57600080fd5b506121c788828901611feb565b9150509295509295909350565b6040815260006121e76040830185611ede565b82810360208401526121f98185611ede565b95945050505050565b6000806000610100848603121561221857600080fd5b6122228585611f5f565b925060c0840135915060e08401356001600160401b0381111561224457600080fd5b61225086828701611feb565b9150509250925092565b803563ffffffff81168114611f3457600080fd5b803560ff81168114611f3457600080fd5b6000610180828403121561229257600080fd5b61229a611dae565b9050813581526020820135602082015260408201356040820152606082013560608201526080820135608082015260a082013560a082015260c082013560c08201526122e860e0830161225a565b60e0820152610100828101359082015261012061230681840161226e565b90820152610140828101356001600160401b0381111561232557600080fd5b61233185828601611e28565b828401525050610160612345818401611f24565b9082015292915050565b67ffffffffffffffff198116811461236657600080fd5b50565b60008060006040848603121561237e57600080fd5b83356001600160401b0381111561239457600080fd5b6123a08682870161227f565b93505060208401356123b18161234f565b9295606084901c955060409390931c63ffffffff1693505050565b6060815260006123df6060830186611ede565b82810360208401526123f18186611ede565b905082810360408401526124058185611ede565b9695505050505050565b6000806000806000610140868803121561242857600080fd5b853594506124398760208801611f5f565b935060e08601356001600160401b038082111561245557600080fd5b61246189838a01611feb565b945061010088013591508082111561247857600080fd5b61248489838a01611e28565b935061012088013591508082111561249b57600080fd5b506121c788828901611e28565b60008060008060008061016087890312156124c257600080fd5b8635955060208701356001600160401b03808211156124e057600080fd5b6124ec8a838b01611e28565b9650604089013591508082111561250257600080fd5b61250e8a838b01611e28565b9550606089013591508082111561252457600080fd5b6125308a838b01611e28565b945061253f8a60808b01611f5f565b935061014089013591508082111561255657600080fd5b5061256389828a01611feb565b9150509295509295509295565b6000806040838503121561258357600080fd5b82356001600160401b038082111561259a57600080fd5b6125a686838701611e28565b935060208501359150808211156125bc57600080fd5b506125c985828601611e28565b9150509250929050565b634e487b7160e01b600052603260045260246000fd5b634e487b7160e01b600052601260045260246000fd5b634e487b7160e01b600052601160045260246000fd5b600082612624576126246125e9565b500490565b600082612638576126386125e9565b500690565b80820180821115611c2f57611c2f6125ff565b6000875160206126638285838d01611eba565b8851918401916126768184848d01611eba565b88519201916126888184848c01611eba565b875192019161269a8184848b01611eba565b86519201916126ac8184848a01611eba565b85519201916126be8184848901611eba565b919091019998505050505050505050565b600085516126e1818460208a01611eba565b681e3932b1ba103c1e9160b91b9083019081528551612707816009840160208a01611eba565b6411103c9e9160d91b60099290910191820152845161272d81600e840160208901611eba565b7f222077696474683d223122206865696768743d2231222066696c6c3d22230000600e9290910191820152835161276b81602c840160208801611eba565b6211179f60e91b602c9290910191820152602f019695505050505050565b6000835161279b818460208801611eba565b8351908301906127af818360208801611eba565b01949350505050565b600083516127ca818460208801611eba565b600b60fa1b90830190815283516127e8816001840160208801611eba565b01600101949350505050565b602081016008831061281657634e487b7160e01b600052602160045260246000fd5b91905290565b600061282a611e4784611e01565b905082815283838301111561283e57600080fd5b611f1d836020830184611eba565b600082601f83011261285d57600080fd5b611f1d8383516020850161281c565b60006020828403121561287e57600080fd5b81516001600160401b0381111561289457600080fd5b611eb28482850161284c565b8381526060602082015260006128b96060830185611ede565b82810360408401526124058185611ede565b600080604083850312156128de57600080fd5b82516001600160401b03808211156128f557600080fd5b6129018683870161284c565b9350602085015191508082111561291757600080fd5b506125c98582860161284c565b600181811c9082168061293857607f821691505b60208210810361295857634e487b7160e01b600052602260045260246000fd5b50919050565b8481526080602082015260006129776080830186611ede565b82810360408401526129898186611ede565b9050828103606084015261299d8185611ede565b979650505050505050565b6000806000606084860312156129bd57600080fd5b83516001600160401b03808211156129d457600080fd5b6129e08783880161284c565b945060208601519150808211156129f657600080fd5b612a028783880161284c565b93506040860151915080821115612a1857600080fd5b508401601f81018613612a2a57600080fd5b6122508682516020840161281c565b60008351612a4b818460208801611eba565b835190830190612a5f818360208801611eba565b651e17b9bb339f60d11b9101908152600601949350505050565b7f3c672069643d2267686f73742220636c6173733d226722207374796c653d226f81526d3830b1b4ba3c9d101a98129d911f60911b602082015260008251612ac881602e850160208701611eba565b631e17b39f60e11b602e939091019283015250603201919050565b8082028115828204841417611c2f57611c2f6125ff565b6d1e339034b21e912a3930b4ba111f60911b81528151600090612b2481600e850160208701611eba565b631e17b39f60e11b600e939091019283015250601201919050565b6d2261747472696275746573223a5b60901b81528351600090612b6981600e850160208901611eba565b8083019050600b60fa1b80600e8301528551612b8c81600f850160208a01611eba565b600f9201918201528351612ba7816010840160208801611eba565b605d60f81b6010929091019182015260110195945050505050565b7f22696d616765223a22646174613a696d6167652f7376672b786d6c3b626173658152620d8d0b60ea1b602082015260008251612c06816023850160208701611eba565b601160f91b6023939091019283015250602401919050565b757b226e616d65223a225065746572205472616974202360501b81528351600090612c50816016850160208901611eba565b7f222c226465736372697074696f6e223a2254686973206973206a757374206120601691840191820152651d195cdd088b60d21b60368201528451612c9c81603c840160208901611eba565b600b60fa1b603c92909101918201528351612cbe81603d840160208801611eba565b607d60f81b603d9290910191820152603e0195945050505050565b7f646174613a6170706c69636174696f6e2f6a736f6e3b6261736536342c000000815260008251612d1181601d850160208701611eba565b91909101601d0192915050565b601f821115611be2576000816000526020600020601f850160051c81016020861015612d475750805b601f850160051c820191505b81811015612d6657828155600101612d53565b505050505050565b81516001600160401b03811115612d8757612d87611d6f565b612d9b81612d958454612924565b84612d1e565b602080601f831160018114612dd05760008415612db85750858301515b600019600386901b1c1916600185901b178555612d66565b600085815260208120601f198616915b82811015612dff57888601518255948401946001909101908401612de0565b5085821015612e1d5787850151600019600388901b60f8161c191681555b5050505050600190811b01905550565b6e3d913a3930b4ba2fba3cb832911d1160891b81528251600090612e5881600f850160208801611eba565b6a1116113b30b63ab2911d1160a91b600f918401918201528351612e8381601a840160208801611eba565b61227d60f01b601a9290910191820152601c0194935050505056fe3c7376672073686170652d72656e646572696e673d2263726973704564676573222076696577426f783d22302030203330203330222066696c6c3d226e6f6e652220786d6c6e733d22687474703a2f2f7777772e77332e6f72672f323030302f737667223e3c7374796c653e726563747b77696474683a3170783b206865696768743a203170783b7d202e62677b77696474683a333070783b206865696768743a20333070783b7d203c2f7374796c653e3c7265637420636c6173733d226267222066696c6c3d2223304436453944222f3ea2646970667358221220bc6c8314ed993ea6ace252cc9d85b25ee8f90a62b9c5a6df24f2a0ce2d08694d64736f6c63430008160033","linkReferences":{"src/TraitCategory.sol":{"TraitCategory":[{"start":27516,"length":20},{"start":30790,"length":20},{"start":31532,"length":20}]}}},"methodIdentifiers":{"addMinter(address)":"983b2d56","approve(address,uint256)":"095ea7b3","balanceOf(address)":"70a08231","burn(uint256)":"42966c68","burnBatch(uint256[])":"e4623c1b","callGetSVGZmapAndMetadataTrait(uint256,string,string,bytes)":"f1271942","callGetSvgAndMetadataTrait(uint256,string,string)":"e08714a6","cancelOwnershipHandover()":"54d1f13d","completeOwnershipHandover(address)":"f04e283e","createSvgFromPixels(bytes)":"21b12c23","getApproved(uint256)":"081812fc","getApprovedOperators(uint256)":"00db6348","getApprovedOperatorsLength(uint256)":"c1ff78be","getCurrentEpoch()":"b97dd9e2","getEpoch()":"757991a8","getEpochData(uint256)":"859e7d32","getGhostSvg()":"5c1ef256","getSVGZmapAndMetadataTrait((uint256,bool,uint256,address,uint256,uint8),uint256)":"f901667f","getStoredTraitForTokenId(uint256)":"208c25a3","getSvgAndMetadata((uint256,uint256,uint256,uint256,uint256,uint256,uint256,uint32,uint256,uint8,string,bool))":"df2c2b88","getSvgAndMetadataTrait((uint256,bool,uint256,address,uint256,uint8),uint256)":"33a70328","getSvgForTokenId(uint256)":"c7791531","getSvgZmapsAndMetadata((uint256,uint256,uint256,uint256,uint256,uint256,uint256,uint32,uint256,uint8,string,bool))":"bb12d21d","getTrait(uint256)":"acb586df","getTraitImageSvg(uint256)":"a5e2912a","getTraitIndexToMetadata(uint256)":"ea139544","getTraitMetadata(uint256)":"d1bfc2af","getTraitType(uint256)":"e8a1268d","getZMapForTokenId(uint256)":"a8498c74","invalidateAllOperatorApprovals(uint256)":"90f63842","isApprovedForAll(address,address)":"e985e9c5","isMinter(address)":"aa271e1a","marketplace()":"abc8c7af","name()":"06fdde03","owner()":"8da5cb5b","ownerOf(uint256)":"6352211e","ownershipHandoverExpiresAt(address)":"fee81cf4","petersMain()":"1ca97604","removeMinter(address)":"3092afd5","renderAsDataUri(uint256)":"a1d62680","renounceOwnership()":"715018a6","requestOwnershipHandover()":"25692962","resolveEpochIfNecessary()":"239ffa68","safeMint(address)":"40d097c3","safeTransferFrom(address,address,uint256)":"42842e0e","safeTransferFrom(address,address,uint256,bytes)":"b88d4fde","setApprovalForAll(address,bool)":"a22cb465","setGhostMaps(bytes,bytes)":"e1defed9","setMarketplace(address)":"73ad6c2d","setPetersMain(address)":"a2c12c94","setTraitForTokenId(uint256,(uint256,bool,uint256,address,uint256,uint8))":"36d34ab9","setTraitIndexToMetadata(uint256,(uint256,string,uint8,string,bytes,bytes,address,address,string,string))":"8d37c537","setTraitRenderer(address)":"120def24","signer()":"238ac933","supportsInterface(bytes4)":"01ffc9a7","symbol()":"95d89b41","tokenByIndex(uint256)":"4f6ccce7","tokenOfOwnerByIndex(address,uint256)":"2f745c59","tokenURI(uint256)":"c87b56dd","totalSupply()":"18160ddd","traitIdToApprovedOperators(uint256,uint256)":"11f3910d","traitIndexToMetadata(uint256)":"817a29a4","traitRenderer()":"c876371b","traitTokens()":"e14d026f","transferFrom(address,address,uint256)":"23b872dd","transferOwnership(address)":"f2fde38b","walletOfOwner(address)":"438b6300"},"id":42}