{"abi":[{"type":"constructor","inputs":[{"name":"localDeploy_","type":"bool","internalType":"bool"}],"stateMutability":"nonpayable"},{"type":"function","name":"approve","inputs":[{"name":"to","type":"address","internalType":"address"},{"name":"tokenId","type":"uint256","internalType":"uint256"}],"outputs":[],"stateMutability":"nonpayable"},{"type":"function","name":"balanceOf","inputs":[{"name":"owner","type":"address","internalType":"address"}],"outputs":[{"name":"","type":"uint256","internalType":"uint256"}],"stateMutability":"view"},{"type":"function","name":"burn","inputs":[{"name":"tokenId","type":"uint256","internalType":"uint256"}],"outputs":[],"stateMutability":"nonpayable"},{"type":"function","name":"burnBatch","inputs":[{"name":"tokenIds","type":"uint256[]","internalType":"uint256[]"}],"outputs":[],"stateMutability":"nonpayable"},{"type":"function","name":"callGetSVGZmapAndMetadataTrait","inputs":[{"name":"_traitId","type":"uint256","internalType":"uint256"},{"name":"_traitsSvg","type":"string","internalType":"string"},{"name":"_traitsAttributes","type":"string","internalType":"string"},{"name":"_traitZMaps","type":"bytes","internalType":"bytes"}],"outputs":[{"name":"traitsSvg","type":"string","internalType":"string"},{"name":"traitsAttributes","type":"string","internalType":"string"},{"name":"traitZMaps","type":"bytes","internalType":"bytes"}],"stateMutability":"view"},{"type":"function","name":"callGetSvgAndMetadataTrait","inputs":[{"name":"_traitId","type":"uint256","internalType":"uint256"},{"name":"_traitsSvg","type":"string","internalType":"string"},{"name":"_traitsAttributes","type":"string","internalType":"string"}],"outputs":[{"name":"traitsSvg","type":"string","internalType":"string"},{"name":"traitsAttributes","type":"string","internalType":"string"}],"stateMutability":"view"},{"type":"function","name":"cancelOwnershipHandover","inputs":[],"outputs":[],"stateMutability":"payable"},{"type":"function","name":"completeOwnershipHandover","inputs":[{"name":"pendingOwner","type":"address","internalType":"address"}],"outputs":[],"stateMutability":"payable"},{"type":"function","name":"createSvgFromPixels","inputs":[{"name":"_pixels","type":"bytes","internalType":"bytes"}],"outputs":[{"name":"svgParts","type":"bytes","internalType":"bytes"}],"stateMutability":"pure"},{"type":"function","name":"getApproved","inputs":[{"name":"tokenId","type":"uint256","internalType":"uint256"}],"outputs":[{"name":"","type":"address","internalType":"address"}],"stateMutability":"view"},{"type":"function","name":"getCurrentEpoch","inputs":[],"outputs":[{"name":"","type":"uint256","internalType":"uint256"}],"stateMutability":"view"},{"type":"function","name":"getEpoch","inputs":[],"outputs":[{"name":"","type":"uint256","internalType":"uint256"}],"stateMutability":"view"},{"type":"function","name":"getEpochData","inputs":[{"name":"index","type":"uint256","internalType":"uint256"}],"outputs":[{"name":"","type":"tuple","internalType":"struct CommitReveal.Epoch","components":[{"name":"randomness","type":"uint128","internalType":"uint128"},{"name":"revealBlock","type":"uint64","internalType":"uint64"},{"name":"committed","type":"bool","internalType":"bool"},{"name":"revealed","type":"bool","internalType":"bool"}]}],"stateMutability":"view"},{"type":"function","name":"getGhostSvg","inputs":[],"outputs":[{"name":"svg","type":"string","internalType":"string"}],"stateMutability":"view"},{"type":"function","name":"getSVGZmapAndMetadataTrait","inputs":[{"name":"trait","type":"tuple","internalType":"struct ITraitStorage.StoredTrait","components":[{"name":"epoch","type":"uint256","internalType":"uint256"},{"name":"isRevealed","type":"bool","internalType":"bool"},{"name":"seed","type":"uint256","internalType":"uint256"},{"name":"renderMinterContract","type":"address","internalType":"address"},{"name":"traitIndex","type":"uint256","internalType":"uint256"},{"name":"traitType","type":"uint8","internalType":"enum TraitCategory.Name"}]},{"name":"traitId","type":"uint256","internalType":"uint256"}],"outputs":[{"name":"traitSvg","type":"string","internalType":"string"},{"name":"traitZmap","type":"bytes","internalType":"bytes"},{"name":"traitAttributes","type":"string","internalType":"string"}],"stateMutability":"view"},{"type":"function","name":"getStoredTraitForTokenId","inputs":[{"name":"_tokenId","type":"uint256","internalType":"uint256"}],"outputs":[{"name":"","type":"tuple","internalType":"struct ITraitStorage.StoredTrait","components":[{"name":"epoch","type":"uint256","internalType":"uint256"},{"name":"isRevealed","type":"bool","internalType":"bool"},{"name":"seed","type":"uint256","internalType":"uint256"},{"name":"renderMinterContract","type":"address","internalType":"address"},{"name":"traitIndex","type":"uint256","internalType":"uint256"},{"name":"traitType","type":"uint8","internalType":"enum TraitCategory.Name"}]}],"stateMutability":"view"},{"type":"function","name":"getSvgAndMetadata","inputs":[{"name":"storedPeter","type":"tuple","internalType":"struct IPeterStorage.StoredPeter","components":[{"name":"headId","type":"uint256","internalType":"uint256"},{"name":"hairId","type":"uint256","internalType":"uint256"},{"name":"faceId","type":"uint256","internalType":"uint256"},{"name":"accessoryId","type":"uint256","internalType":"uint256"},{"name":"topId","type":"uint256","internalType":"uint256"},{"name":"bottomId","type":"uint256","internalType":"uint256"},{"name":"shoesId","type":"uint256","internalType":"uint256"},{"name":"epoch","type":"uint32","internalType":"uint32"},{"name":"tokenId","type":"uint256","internalType":"uint256"},{"name":"bodyIndex","type":"uint8","internalType":"uint8"},{"name":"backgroundColor","type":"string","internalType":"string"},{"name":"renderZ","type":"bool","internalType":"bool"}]}],"outputs":[{"name":"traitsSvg","type":"string","internalType":"string"},{"name":"traitsAttributes","type":"string","internalType":"string"}],"stateMutability":"view"},{"type":"function","name":"getSvgAndMetadataTrait","inputs":[{"name":"trait","type":"tuple","internalType":"struct ITraitStorage.StoredTrait","components":[{"name":"epoch","type":"uint256","internalType":"uint256"},{"name":"isRevealed","type":"bool","internalType":"bool"},{"name":"seed","type":"uint256","internalType":"uint256"},{"name":"renderMinterContract","type":"address","internalType":"address"},{"name":"traitIndex","type":"uint256","internalType":"uint256"},{"name":"traitType","type":"uint8","internalType":"enum TraitCategory.Name"}]},{"name":"traitId","type":"uint256","internalType":"uint256"}],"outputs":[{"name":"traitSvg","type":"string","internalType":"string"},{"name":"traitAttributes","type":"string","internalType":"string"}],"stateMutability":"view"},{"type":"function","name":"getSvgForTokenId","inputs":[{"name":"_tokenId","type":"uint256","internalType":"uint256"}],"outputs":[{"name":"traitSvg","type":"string","internalType":"string"}],"stateMutability":"view"},{"type":"function","name":"getSvgZmapsAndMetadata","inputs":[{"name":"storedPeter","type":"tuple","internalType":"struct IPeterStorage.StoredPeter","components":[{"name":"headId","type":"uint256","internalType":"uint256"},{"name":"hairId","type":"uint256","internalType":"uint256"},{"name":"faceId","type":"uint256","internalType":"uint256"},{"name":"accessoryId","type":"uint256","internalType":"uint256"},{"name":"topId","type":"uint256","internalType":"uint256"},{"name":"bottomId","type":"uint256","internalType":"uint256"},{"name":"shoesId","type":"uint256","internalType":"uint256"},{"name":"epoch","type":"uint32","internalType":"uint32"},{"name":"tokenId","type":"uint256","internalType":"uint256"},{"name":"bodyIndex","type":"uint8","internalType":"uint8"},{"name":"backgroundColor","type":"string","internalType":"string"},{"name":"renderZ","type":"bool","internalType":"bool"}]}],"outputs":[{"name":"traitsSvg","type":"string","internalType":"string"},{"name":"traitZMaps","type":"bytes","internalType":"bytes"},{"name":"traitsAttributes","type":"string","internalType":"string"}],"stateMutability":"view"},{"type":"function","name":"getTrait","inputs":[{"name":"_tokenId","type":"uint256","internalType":"uint256"}],"outputs":[{"name":"","type":"tuple","internalType":"struct ITraitStorage.StoredTrait","components":[{"name":"epoch","type":"uint256","internalType":"uint256"},{"name":"isRevealed","type":"bool","internalType":"bool"},{"name":"seed","type":"uint256","internalType":"uint256"},{"name":"renderMinterContract","type":"address","internalType":"address"},{"name":"traitIndex","type":"uint256","internalType":"uint256"},{"name":"traitType","type":"uint8","internalType":"enum TraitCategory.Name"}]}],"stateMutability":"view"},{"type":"function","name":"getTraitImage","inputs":[{"name":"colorMap","type":"bytes","internalType":"bytes"}],"outputs":[{"name":"","type":"bytes","internalType":"bytes"}],"stateMutability":"pure"},{"type":"function","name":"getTraitImageSvg","inputs":[{"name":"index","type":"uint256","internalType":"uint256"}],"outputs":[{"name":"svg","type":"string","internalType":"string"}],"stateMutability":"view"},{"type":"function","name":"getTraitIndexToMetadata","inputs":[{"name":"_traitIndex","type":"uint256","internalType":"uint256"}],"outputs":[{"name":"","type":"tuple","internalType":"struct ITraitStorage.TraitMetadata","components":[{"name":"traitIndex","type":"uint256","internalType":"uint256"},{"name":"traitName","type":"string","internalType":"string"},{"name":"traitType","type":"uint8","internalType":"enum TraitCategory.Name"},{"name":"animations","type":"string","internalType":"string"},{"name":"colorMap","type":"bytes","internalType":"bytes"},{"name":"zMap","type":"bytes","internalType":"bytes"},{"name":"renderMinterContract","type":"address","internalType":"address"},{"name":"creatorAddress","type":"address","internalType":"address"},{"name":"creatorName","type":"string","internalType":"string"},{"name":"season","type":"string","internalType":"string"}]}],"stateMutability":"view"},{"type":"function","name":"getTraitMetadata","inputs":[{"name":"_tokenId","type":"uint256","internalType":"uint256"}],"outputs":[{"name":"","type":"tuple","internalType":"struct ITraitStorage.TraitMetadata","components":[{"name":"traitIndex","type":"uint256","internalType":"uint256"},{"name":"traitName","type":"string","internalType":"string"},{"name":"traitType","type":"uint8","internalType":"enum TraitCategory.Name"},{"name":"animations","type":"string","internalType":"string"},{"name":"colorMap","type":"bytes","internalType":"bytes"},{"name":"zMap","type":"bytes","internalType":"bytes"},{"name":"renderMinterContract","type":"address","internalType":"address"},{"name":"creatorAddress","type":"address","internalType":"address"},{"name":"creatorName","type":"string","internalType":"string"},{"name":"season","type":"string","internalType":"string"}]}],"stateMutability":"view"},{"type":"function","name":"getTraitType","inputs":[{"name":"_tokenId","type":"uint256","internalType":"uint256"}],"outputs":[{"name":"","type":"uint8","internalType":"enum TraitCategory.Name"}],"stateMutability":"view"},{"type":"function","name":"getZMapForTokenId","inputs":[{"name":"_tokenId","type":"uint256","internalType":"uint256"}],"outputs":[{"name":"","type":"string","internalType":"string"}],"stateMutability":"view"},{"type":"function","name":"ghost","inputs":[],"outputs":[{"name":"colorMap","type":"bytes","internalType":"bytes"},{"name":"zMap","type":"bytes","internalType":"bytes"}],"stateMutability":"view"},{"type":"function","name":"isApprovedForAll","inputs":[{"name":"owner","type":"address","internalType":"address"},{"name":"operator","type":"address","internalType":"address"}],"outputs":[{"name":"","type":"bool","internalType":"bool"}],"stateMutability":"view"},{"type":"function","name":"isMinter","inputs":[{"name":"","type":"address","internalType":"address"}],"outputs":[{"name":"","type":"bool","internalType":"bool"}],"stateMutability":"view"},{"type":"function","name":"marketplace","inputs":[],"outputs":[{"name":"","type":"address","internalType":"contract ChonksMarket"}],"stateMutability":"view"},{"type":"function","name":"minter","inputs":[],"outputs":[{"name":"","type":"address","internalType":"address"}],"stateMutability":"view"},{"type":"function","name":"name","inputs":[],"outputs":[{"name":"","type":"string","internalType":"string"}],"stateMutability":"view"},{"type":"function","name":"onERC721Received","inputs":[{"name":"","type":"address","internalType":"address"},{"name":"","type":"address","internalType":"address"},{"name":"","type":"uint256","internalType":"uint256"},{"name":"","type":"bytes","internalType":"bytes"}],"outputs":[{"name":"","type":"bytes4","internalType":"bytes4"}],"stateMutability":"pure"},{"type":"function","name":"owner","inputs":[],"outputs":[{"name":"result","type":"address","internalType":"address"}],"stateMutability":"view"},{"type":"function","name":"ownerOf","inputs":[{"name":"tokenId","type":"uint256","internalType":"uint256"}],"outputs":[{"name":"","type":"address","internalType":"address"}],"stateMutability":"view"},{"type":"function","name":"ownershipHandoverExpiresAt","inputs":[{"name":"pendingOwner","type":"address","internalType":"address"}],"outputs":[{"name":"result","type":"uint256","internalType":"uint256"}],"stateMutability":"view"},{"type":"function","name":"petersMain","inputs":[],"outputs":[{"name":"","type":"address","internalType":"contract PetersMain"}],"stateMutability":"view"},{"type":"function","name":"renderAsDataUri","inputs":[{"name":"_tokenId","type":"uint256","internalType":"uint256"}],"outputs":[{"name":"","type":"string","internalType":"string"}],"stateMutability":"view"},{"type":"function","name":"renounceOwnership","inputs":[],"outputs":[],"stateMutability":"payable"},{"type":"function","name":"requestOwnershipHandover","inputs":[],"outputs":[],"stateMutability":"payable"},{"type":"function","name":"resolveEpochIfNecessary","inputs":[],"outputs":[],"stateMutability":"nonpayable"},{"type":"function","name":"safeMint","inputs":[{"name":"_to","type":"address","internalType":"address"}],"outputs":[{"name":"","type":"uint256","internalType":"uint256"}],"stateMutability":"nonpayable"},{"type":"function","name":"safeTransferFrom","inputs":[{"name":"from","type":"address","internalType":"address"},{"name":"to","type":"address","internalType":"address"},{"name":"tokenId","type":"uint256","internalType":"uint256"}],"outputs":[],"stateMutability":"nonpayable"},{"type":"function","name":"safeTransferFrom","inputs":[{"name":"from","type":"address","internalType":"address"},{"name":"to","type":"address","internalType":"address"},{"name":"tokenId","type":"uint256","internalType":"uint256"},{"name":"data","type":"bytes","internalType":"bytes"}],"outputs":[],"stateMutability":"nonpayable"},{"type":"function","name":"setApprovalForAll","inputs":[{"name":"operator","type":"address","internalType":"address"},{"name":"approved","type":"bool","internalType":"bool"}],"outputs":[],"stateMutability":"nonpayable"},{"type":"function","name":"setGhostMaps","inputs":[{"name":"_colorMap","type":"bytes","internalType":"bytes"},{"name":"_zMap","type":"bytes","internalType":"bytes"}],"outputs":[],"stateMutability":"nonpayable"},{"type":"function","name":"setMarketplace","inputs":[{"name":"_marketplace","type":"address","internalType":"address"}],"outputs":[],"stateMutability":"nonpayable"},{"type":"function","name":"setPetersMain","inputs":[{"name":"_petersMain","type":"address","internalType":"address"}],"outputs":[],"stateMutability":"nonpayable"},{"type":"function","name":"setTraitForTokenId","inputs":[{"name":"_tokenId","type":"uint256","internalType":"uint256"},{"name":"_trait","type":"tuple","internalType":"struct ITraitStorage.StoredTrait","components":[{"name":"epoch","type":"uint256","internalType":"uint256"},{"name":"isRevealed","type":"bool","internalType":"bool"},{"name":"seed","type":"uint256","internalType":"uint256"},{"name":"renderMinterContract","type":"address","internalType":"address"},{"name":"traitIndex","type":"uint256","internalType":"uint256"},{"name":"traitType","type":"uint8","internalType":"enum TraitCategory.Name"}]}],"outputs":[],"stateMutability":"nonpayable"},{"type":"function","name":"setTraitIndexToMetadata","inputs":[{"name":"_traitIndex","type":"uint256","internalType":"uint256"},{"name":"_metadata","type":"tuple","internalType":"struct ITraitStorage.TraitMetadata","components":[{"name":"traitIndex","type":"uint256","internalType":"uint256"},{"name":"traitName","type":"string","internalType":"string"},{"name":"traitType","type":"uint8","internalType":"enum TraitCategory.Name"},{"name":"animations","type":"string","internalType":"string"},{"name":"colorMap","type":"bytes","internalType":"bytes"},{"name":"zMap","type":"bytes","internalType":"bytes"},{"name":"renderMinterContract","type":"address","internalType":"address"},{"name":"creatorAddress","type":"address","internalType":"address"},{"name":"creatorName","type":"string","internalType":"string"},{"name":"season","type":"string","internalType":"string"}]}],"outputs":[],"stateMutability":"nonpayable"},{"type":"function","name":"signer","inputs":[],"outputs":[{"name":"","type":"address","internalType":"address"}],"stateMutability":"view"},{"type":"function","name":"supportsInterface","inputs":[{"name":"interfaceId","type":"bytes4","internalType":"bytes4"}],"outputs":[{"name":"","type":"bool","internalType":"bool"}],"stateMutability":"view"},{"type":"function","name":"symbol","inputs":[],"outputs":[{"name":"","type":"string","internalType":"string"}],"stateMutability":"view"},{"type":"function","name":"tokenByIndex","inputs":[{"name":"index","type":"uint256","internalType":"uint256"}],"outputs":[{"name":"","type":"uint256","internalType":"uint256"}],"stateMutability":"view"},{"type":"function","name":"tokenOfOwnerByIndex","inputs":[{"name":"owner","type":"address","internalType":"address"},{"name":"index","type":"uint256","internalType":"uint256"}],"outputs":[{"name":"","type":"uint256","internalType":"uint256"}],"stateMutability":"view"},{"type":"function","name":"tokenURI","inputs":[{"name":"_tokenId","type":"uint256","internalType":"uint256"}],"outputs":[{"name":"","type":"string","internalType":"string"}],"stateMutability":"view"},{"type":"function","name":"totalSupply","inputs":[],"outputs":[{"name":"","type":"uint256","internalType":"uint256"}],"stateMutability":"view"},{"type":"function","name":"traitIndexToMetadata","inputs":[{"name":"","type":"uint256","internalType":"uint256"}],"outputs":[{"name":"traitIndex","type":"uint256","internalType":"uint256"},{"name":"traitName","type":"string","internalType":"string"},{"name":"traitType","type":"uint8","internalType":"enum TraitCategory.Name"},{"name":"animations","type":"string","internalType":"string"},{"name":"colorMap","type":"bytes","internalType":"bytes"},{"name":"zMap","type":"bytes","internalType":"bytes"},{"name":"renderMinterContract","type":"address","internalType":"address"},{"name":"creatorAddress","type":"address","internalType":"address"},{"name":"creatorName","type":"string","internalType":"string"},{"name":"season","type":"string","internalType":"string"}],"stateMutability":"view"},{"type":"function","name":"traitTokens","inputs":[],"outputs":[{"name":"epoch","type":"uint256","internalType":"uint256"}],"stateMutability":"view"},{"type":"function","name":"transferFrom","inputs":[{"name":"from","type":"address","internalType":"address"},{"name":"to","type":"address","internalType":"address"},{"name":"tokenId","type":"uint256","internalType":"uint256"}],"outputs":[],"stateMutability":"nonpayable"},{"type":"function","name":"transferOwnership","inputs":[{"name":"newOwner","type":"address","internalType":"address"}],"outputs":[],"stateMutability":"payable"},{"type":"function","name":"walletOfOwner","inputs":[{"name":"_owner","type":"address","internalType":"address"}],"outputs":[{"name":"","type":"uint256[]","internalType":"uint256[]"}],"stateMutability":"view"},{"type":"event","name":"Approval","inputs":[{"name":"owner","type":"address","indexed":true,"internalType":"address"},{"name":"approved","type":"address","indexed":true,"internalType":"address"},{"name":"tokenId","type":"uint256","indexed":true,"internalType":"uint256"}],"anonymous":false},{"type":"event","name":"ApprovalForAll","inputs":[{"name":"owner","type":"address","indexed":true,"internalType":"address"},{"name":"operator","type":"address","indexed":true,"internalType":"address"},{"name":"approved","type":"bool","indexed":false,"internalType":"bool"}],"anonymous":false},{"type":"event","name":"BatchMetadataUpdate","inputs":[{"name":"_fromTokenId","type":"uint256","indexed":false,"internalType":"uint256"},{"name":"_toTokenId","type":"uint256","indexed":false,"internalType":"uint256"}],"anonymous":false},{"type":"event","name":"MetadataUpdate","inputs":[{"name":"_tokenId","type":"uint256","indexed":false,"internalType":"uint256"}],"anonymous":false},{"type":"event","name":"Mint","inputs":[{"name":"owner","type":"address","indexed":true,"internalType":"address"},{"name":"tokenId","type":"uint256","indexed":true,"internalType":"uint256"}],"anonymous":false},{"type":"event","name":"NewEpoch","inputs":[{"name":"epoch","type":"uint256","indexed":true,"internalType":"uint256"},{"name":"revealBlock","type":"uint64","indexed":true,"internalType":"uint64"}],"anonymous":false},{"type":"event","name":"OwnershipHandoverCanceled","inputs":[{"name":"pendingOwner","type":"address","indexed":true,"internalType":"address"}],"anonymous":false},{"type":"event","name":"OwnershipHandoverRequested","inputs":[{"name":"pendingOwner","type":"address","indexed":true,"internalType":"address"}],"anonymous":false},{"type":"event","name":"OwnershipTransferred","inputs":[{"name":"oldOwner","type":"address","indexed":true,"internalType":"address"},{"name":"newOwner","type":"address","indexed":true,"internalType":"address"}],"anonymous":false},{"type":"event","name":"Transfer","inputs":[{"name":"from","type":"address","indexed":true,"internalType":"address"},{"name":"to","type":"address","indexed":true,"internalType":"address"},{"name":"tokenId","type":"uint256","indexed":true,"internalType":"uint256"}],"anonymous":false},{"type":"error","name":"AlreadyInitialized","inputs":[]},{"type":"error","name":"CantTransfer","inputs":[]},{"type":"error","name":"NewOwnerIsZeroAddress","inputs":[]},{"type":"error","name":"NoHandoverRequest","inputs":[]},{"type":"error","name":"NotATBA","inputs":[]},{"type":"error","name":"NotAValidMinterContract","inputs":[]},{"type":"error","name":"TraitNotFound","inputs":[{"name":"_tokenId","type":"uint256","internalType":"uint256"}]},{"type":"error","name":"TraitTokenDoesntExist","inputs":[]},{"type":"error","name":"Unauthorized","inputs":[]}],"bytecode":{"object":"0x60806040523480156200001157600080fd5b5060405162006c9438038062006c948339810160408190526200003491620000fb565b6040518060400160405280600b81526020016a506574657254726169747360a81b81525060405180604001604052806003815260200162282a2960e91b8152508160009081620000859190620001cd565b506001620000948282620001cd565b505050620000a833620000bf60201b60201c565b6015805460ff191691151591909117905562000299565b6001600160a01b0316638b78c6d8198190558060007f8be0079c531659141344cd1fd0a4f28419497f9722a3daafe3b4186f6b6457e08180a350565b6000602082840312156200010e57600080fd5b815180151581146200011f57600080fd5b9392505050565b634e487b7160e01b600052604160045260246000fd5b600181811c908216806200015157607f821691505b6020821081036200017257634e487b7160e01b600052602260045260246000fd5b50919050565b601f821115620001c8576000816000526020600020601f850160051c81016020861015620001a35750805b601f850160051c820191505b81811015620001c457828155600101620001af565b5050505b505050565b81516001600160401b03811115620001e957620001e962000126565b6200020181620001fa84546200013c565b8462000178565b602080601f831160018114620002395760008415620002205750858301515b600019600386901b1c1916600185901b178555620001c4565b600085815260208120601f198616915b828110156200026a5788860151825594840194600190910190840162000249565b5085821015620002895787850151600019600388901b60f8161c191681555b5050505050600190811b01905550565b6169eb80620002a96000396000f3fe6080604052600436106103b85760003560e01c8063859e7d32116101f2578063c77915311161010d578063e8a1268d116100a0578063f12719421161006f578063f127194214610c1d578063f2fde38b14610c3d578063f901667f14610c50578063fee81cf414610c7057600080fd5b8063e8a1268d14610b74578063e985e9c514610ba1578063ea13954414610bea578063f04e283e14610c0a57600080fd5b8063e08714a6116100dc578063e08714a614610afd578063e14d026f14610b1d578063e1defed914610b34578063e4623c1b14610b5457600080fd5b8063c779153114610a70578063c87b56dd14610a90578063d1bfc2af14610ab0578063df2c2b8814610add57600080fd5b8063a5e2912a11610185578063acb586df11610154578063acb586df14610a01578063b88d4fde14610a21578063b97dd9e214610771578063bb12d21d14610a4157600080fd5b8063a5e2912a14610971578063a8498c7414610991578063aa271e1a146109b1578063abc8c7af146109e157600080fd5b806395d89b41116101c157806395d89b41146108fc578063a1d6268014610911578063a22cb46514610931578063a2c12c941461095157600080fd5b8063859e7d32146107bc578063898aa117146108a35780638d37c537146108c35780638da5cb5b146108e357600080fd5b806333a70328116102e257806354d1f13d11610275578063715018a611610244578063715018a61461074957806373ad6c2d14610751578063757991a814610771578063817a29a41461078657600080fd5b806354d1f13d146106ec5780635c1ef256146106f45780636352211e1461070957806370a082311461072957600080fd5b806342966c68116102b157806342966c681461066a578063438b63001461068a5780634f6ccce7146106b757806351dc7189146106d757600080fd5b806333a70328146105dc57806336d34ab91461060a57806340d097c31461062a57806342842e0e1461064a57600080fd5b80631ca976041161035a578063239ffa6811610329578063239ffa681461057f57806323b872dd1461059457806325692962146105b45780632f745c59146105bc57600080fd5b80631ca97604146104f2578063208c25a31461051257806321b12c231461053f578063238ac9331461055f57600080fd5b8063081812fc11610396578063081812fc1461044c578063095ea7b31461046c578063150b7a021461048e57806318160ddd146104d357600080fd5b806301ffc9a7146103bd57806306fdde03146103f25780630754617214610414575b600080fd5b3480156103c957600080fd5b506103dd6103d83660046152c5565b610ca3565b60405190151581526020015b60405180910390f35b3480156103fe57600080fd5b50610407610cb4565b6040516103e99190615339565b34801561042057600080fd5b50600f54610434906001600160a01b031681565b6040516001600160a01b0390911681526020016103e9565b34801561045857600080fd5b5061043461046736600461534c565b610d46565b34801561047857600080fd5b5061048c61048736600461538a565b610d6d565b005b34801561049a57600080fd5b506104ba6104a93660046153b6565b630a85bd0160e11b95945050505050565b6040516001600160e01b031990911681526020016103e9565b3480156104df57600080fd5b506008545b6040519081526020016103e9565b3480156104fe57600080fd5b50601254610434906001600160a01b031681565b34801561051e57600080fd5b5061053261052d36600461534c565b610e87565b6040516103e991906154d4565b34801561054b57600080fd5b5061040761055a366004615613565b610f4f565b34801561056b57600080fd5b50601054610434906001600160a01b031681565b34801561058b57600080fd5b5061048c611798565b3480156105a057600080fd5b5061048c6105af366004615647565b611974565b61048c6119a5565b3480156105c857600080fd5b506104e46105d736600461538a565b6119f4565b3480156105e857600080fd5b506105fc6105f736600461572c565b611a8a565b6040516103e9929190615757565b34801561061657600080fd5b5061048c61062536600461577c565b611c34565b34801561063657600080fd5b506104e46106453660046157a9565b611ccd565b34801561065657600080fd5b5061048c610665366004615647565b611d3a565b34801561067657600080fd5b5061048c61068536600461534c565b611d55565b34801561069657600080fd5b506106aa6106a53660046157a9565b611d5e565b6040516103e991906157c6565b3480156106c357600080fd5b506104e46106d236600461534c565b611df5565b3480156106e357600080fd5b506105fc611e88565b61048c611fa8565b34801561070057600080fd5b50610407611fe4565b34801561071557600080fd5b5061043461072436600461534c565b6120b4565b34801561073557600080fd5b506104e46107443660046157a9565b612114565b61048c61219a565b34801561075d57600080fd5b5061048c61076c3660046157a9565b6121ae565b34801561077d57600080fd5b50600b546104e4565b34801561079257600080fd5b506107a66107a136600461534c565b6121d8565b6040516103e99a9998979695949392919061580a565b3480156107c857600080fd5b5061085a6107d736600461534c565b6040805160808082018352600080835260208084018290528385018290526060938401829052948152600c855283902083519182018452546001600160801b03811682526001600160401b03600160801b8204169482019490945260ff600160c01b85048116151593820193909352600160c81b90930490911615159082015290565b6040516103e9919081516001600160801b031681526020808301516001600160401b03169082015260408083015115159082015260609182015115159181019190915260800190565b3480156108af57600080fd5b506104076108be366004615613565b612570565b3480156108cf57600080fd5b5061048c6108de3660046158bf565b6127c2565b3480156108ef57600080fd5b50638b78c6d81954610434565b34801561090857600080fd5b506104076128c1565b34801561091d57600080fd5b5061040761092c36600461534c565b6128d0565b34801561093d57600080fd5b5061048c61094c366004615a2d565b612f2f565b34801561095d57600080fd5b5061048c61096c3660046157a9565b612f3e565b34801561097d57600080fd5b5061040761098c36600461534c565b612f68565b34801561099d57600080fd5b506104076109ac36600461534c565b612fc4565b3480156109bd57600080fd5b506103dd6109cc3660046157a9565b60146020526000908152604090205460ff1681565b3480156109ed57600080fd5b50601354610434906001600160a01b031681565b348015610a0d57600080fd5b50610532610a1c36600461534c565b61307c565b348015610a2d57600080fd5b5061048c610a3c366004615a66565b61321b565b348015610a4d57600080fd5b50610a61610a5c366004615af6565b613253565b6040516103e993929190615bef565b348015610a7c57600080fd5b50610407610a8b36600461534c565b613352565b348015610a9c57600080fd5b50610407610aab36600461534c565b6133ac565b348015610abc57600080fd5b50610ad0610acb36600461534c565b6133ed565b6040516103e99190615c32565b348015610ae957600080fd5b506105fc610af8366004615af6565b6137fa565b348015610b0957600080fd5b506105fc610b18366004615d3b565b6138d9565b348015610b2957600080fd5b50600b546104e49081565b348015610b4057600080fd5b5061048c610b4f366004615da7565b613964565b348015610b6057600080fd5b5061048c610b6f366004615e0a565b613985565b348015610b8057600080fd5b50610b94610b8f36600461534c565b6139bb565b6040516103e99190615eaf565b348015610bad57600080fd5b506103dd610bbc366004615ebd565b6001600160a01b03918216600090815260056020908152604080832093909416825291909152205460ff1690565b348015610bf657600080fd5b50610ad0610c0536600461534c565b613dc8565b61048c610c183660046157a9565b6141c3565b348015610c2957600080fd5b50610a61610c38366004615eeb565b614200565b61048c610c4b3660046157a9565b6142ba565b348015610c5c57600080fd5b50610a61610c6b36600461572c565b6142e1565b348015610c7c57600080fd5b506104e4610c8b3660046157a9565b63389a75e1600c908152600091909152602090205490565b6000610cae82614468565b92915050565b606060008054610cc390615f70565b80601f0160208091040260200160405190810160405280929190818152602001828054610cef90615f70565b8015610d3c5780601f10610d1157610100808354040283529160200191610d3c565b820191906000526020600020905b815481529060010190602001808311610d1f57829003601f168201915b5050505050905090565b6000610d518261448d565b506000908152600460205260409020546001600160a01b031690565b6000610d78826120b4565b9050806001600160a01b0316836001600160a01b031603610dea5760405162461bcd60e51b815260206004820152602160248201527f4552433732313a20617070726f76616c20746f2063757272656e74206f776e656044820152603960f91b60648201526084015b60405180910390fd5b336001600160a01b0382161480610e065750610e068133610bbc565b610e785760405162461bcd60e51b815260206004820152603e60248201527f4552433732313a20617070726f76652063616c6c6572206973206e6f7420746f60448201527f6b656e206f776e6572206e6f7220617070726f76656420666f7220616c6c00006064820152608401610de1565b610e8283836144ec565b505050565b610ebd6040805160c08101825260008082526020820181905291810182905260608101829052608081018290529060a082015290565b6000828152600a6020908152604091829020825160c08101845281548152600182015460ff90811615159382019390935260028201549381019390935260038101546001600160a01b03166060840152600481015460808401526005810154909160a0840191166007811115610f3557610f35615454565b6007811115610f4657610f46615454565b90525092915050565b60606000604051806102000160405280604051806040016040528060018152602001600360fc1b8152508152602001604051806040016040528060018152602001603160f81b8152508152602001604051806040016040528060018152602001601960f91b8152508152602001604051806040016040528060018152602001603360f81b8152508152602001604051806040016040528060018152602001600d60fa1b8152508152602001604051806040016040528060018152602001603560f81b8152508152602001604051806040016040528060018152602001601b60f91b8152508152602001604051806040016040528060018152602001603760f81b8152508152602001604051806040016040528060018152602001600760fb1b8152508152602001604051806040016040528060018152602001603960f81b8152508152602001604051806040016040528060018152602001606160f81b8152508152602001604051806040016040528060018152602001603160f91b8152508152602001604051806040016040528060018152602001606360f81b8152508152602001604051806040016040528060018152602001601960fa1b8152508152602001604051806040016040528060018152602001606560f81b8152508152602001604051806040016040528060018152602001603360f91b81525081525090506000604051806103c00160405280604051806040016040528060018152602001600360fc1b8152508152602001604051806040016040528060018152602001603160f81b8152508152602001604051806040016040528060018152602001601960f91b8152508152602001604051806040016040528060018152602001603360f81b8152508152602001604051806040016040528060018152602001600d60fa1b8152508152602001604051806040016040528060018152602001603560f81b8152508152602001604051806040016040528060018152602001601b60f91b8152508152602001604051806040016040528060018152602001603760f81b8152508152602001604051806040016040528060018152602001600760fb1b8152508152602001604051806040016040528060018152602001603960f81b815250815260200160405180604001604052806002815260200161031360f41b815250815260200160405180604001604052806002815260200161313160f01b815250815260200160405180604001604052806002815260200161189960f11b815250815260200160405180604001604052806002815260200161313360f01b8152508152602001604051806040016040528060028152602001610c4d60f21b815250815260200160405180604001604052806002815260200161313560f01b815250815260200160405180604001604052806002815260200161189b60f11b815250815260200160405180604001604052806002815260200161313760f01b815250815260200160405180604001604052806002815260200161062760f31b815250815260200160405180604001604052806002815260200161313960f01b815250815260200160405180604001604052806002815260200161032360f41b815250815260200160405180604001604052806002815260200161323160f01b815250815260200160405180604001604052806002815260200161191960f11b815250815260200160405180604001604052806002815260200161323360f01b8152508152602001604051806040016040528060028152602001610c8d60f21b815250815260200160405180604001604052806002815260200161323560f01b815250815260200160405180604001604052806002815260200161191b60f11b815250815260200160405180604001604052806002815260200161323760f01b815250815260200160405180604001604052806002815260200161064760f31b815250815260200160405180604001604052806002815260200161323960f01b815250815250905060005b61119481101561179057600060f81b85828151811061153757611537615fa4565b01602001516001600160f81b031916111561177e576000601e61155b600584615fe6565b6115659190615ffa565b90506000601e611576600585615fe6565b6115809190615fe6565b905060008560048961159387600261600e565b815181106115a3576115a3615fa4565b016020015160f81c901c60ff16601081106115c0576115c0615fa4565b602002015186896115d287600261600e565b815181106115e2576115e2615fa4565b60209101015160f81c600f16601081106115fe576115fe615fa4565b60200201518760048b61161289600361600e565b8151811061162257611622615fa4565b016020015160f81c901c60ff166010811061163f5761163f615fa4565b6020020151888b61165189600361600e565b8151811061166157611661615fa4565b60209101015160f81c600f166010811061167d5761167d615fa4565b60200201518960048d6116908b8361600e565b815181106116a0576116a0615fa4565b016020015160f81c901c60ff16601081106116bd576116bd615fa4565b60200201518a8d6116cf8b600461600e565b815181106116df576116df615fa4565b60209101015160f81c600f16601081106116fb576116fb615fa4565b602002015160405160200161171596959493929190616021565b6040516020818303038152906040529050868584601e811061173957611739615fa4565b60200201518684601e811061175057611750615fa4565b60200201518360405160200161176994939291906160a0565b60405160208183030381529060405296505050505b61178960058261600e565b9050611516565b505050919050565b600b546000908152600c602052604090208054600160c01b900460ff1615806117f057508054600160c81b900460ff161580156117f057506117dc6101004361615a565b8154600160801b90046001600160401b0316105b1561183b5761180043603261600e565b815460ff60c01b196001600160401b0392909216600160801b029190911668ffffffffffffffffff60801b1990911617600160c01b17815550565b8054600160801b90046001600160401b031643111561197157805460408051600160801b9092046001600160401b031640602083015244908201526001600160801b03906060016040516020818303038152906040528051906020012060001c6118a59190615ffa565b8154600160c81b6001600160801b039290921679ff000000000000000000ffffffffffffffffffffffffffffffff199091161717808255600b54604051600160801b9092046001600160401b0316917f78611aecfda8d341359c248df527c95aef93d446c92bb928b2a81b7abcb1d8d990600090a3604080516000815260001960208201527f6bd5c950a8d8df17f772f5af37cb3655737899cbf903264b9795592da439661c910160405180910390a1600b80546000906119659061616d565b90915550611971611798565b50565b61197e338261455a565b61199a5760405162461bcd60e51b8152600401610de190616186565b610e828383836145d9565b60006202a3006001600160401b03164201905063389a75e1600c5233600052806020600c2055337fdbf36a107da19e49527a7176a1babf963b4b0ff8cde35ee35d6cd8f1f9ac7e1d600080a250565b60006119ff83612114565b8210611a615760405162461bcd60e51b815260206004820152602b60248201527f455243373231456e756d657261626c653a206f776e657220696e646578206f7560448201526a74206f6620626f756e647360a81b6064820152608401610de1565b506001600160a01b03919091166000908152600660209081526040808320938352929052205490565b60608083602001518015611a9e5750600083115b15611be957608084015160009081526011602052604090819020600281015491516301be83d160e11b81529091611bd29173__$4987fe9f4e800c5c4c1535f64ed232842a$__9163037d07a291611afb9160ff1690600401615eaf565b600060405180830381865af4158015611b18573d6000803e3d6000fd5b505050506040513d6000823e601f3d908101601f19168201604052611b4091908101906161d4565b826001018054611b4f90615f70565b80601f0160208091040260200160405190810160405280929190818152602001828054611b7b90615f70565b8015611bc85780601f10611b9d57610100808354040283529160200191611bc8565b820191906000526020600020905b815481529060010190602001808311611bab57829003601f168201915b5050505050614780565b9150611be18560800151612f68565b925050611c2d565b604051806040016040528060028152602001617b7d60f01b81525090506040518060400160405280600b81526020016a1e39bb339f1e17b9bb339f60a91b81525091505b9250929050565b6000828152600a602090815260409182902083518155908301516001808301805492151560ff1993841617905592840151600283015560608401516003830180546001600160a01b039092166001600160a01b03199092169190911790556080840151600483015560a0840151600583018054869592939192911690836007811115611cc257611cc2615454565b021790555050505050565b6000611cd7611798565b6000611ce260085490565b611ced90600161600e565b9050611cf983826147ac565b604080516000815260001960208201527f6bd5c950a8d8df17f772f5af37cb3655737899cbf903264b9795592da439661c910160405180910390a192915050565b610e828383836040518060200160405280600081525061321b565b611971816147c6565b60606000611d6b83612114565b90506000816001600160401b03811115611d8757611d876154e2565b604051908082528060200260200182016040528015611db0578160200160208202803683370190505b50905060005b82811015611ded57611dc885826119f4565b828281518110611dda57611dda615fa4565b6020908102919091010152600101611db6565b509392505050565b6000611e0060085490565b8210611e635760405162461bcd60e51b815260206004820152602c60248201527f455243373231456e756d657261626c653a20676c6f62616c20696e646578206f60448201526b7574206f6620626f756e647360a01b6064820152608401610de1565b60088281548110611e7657611e76615fa4565b90600052602060002001549050919050565b600d80548190611e9790615f70565b80601f0160208091040260200160405190810160405280929190818152602001828054611ec390615f70565b8015611f105780601f10611ee557610100808354040283529160200191611f10565b820191906000526020600020905b815481529060010190602001808311611ef357829003601f168201915b505050505090806001018054611f2590615f70565b80601f0160208091040260200160405190810160405280929190818152602001828054611f5190615f70565b8015611f9e5780601f10611f7357610100808354040283529160200191611f9e565b820191906000526020600020905b815481529060010190602001808311611f8157829003601f168201915b5050505050905082565b63389a75e1600c523360005260006020600c2055337ffa7b8eab7da67f412cc9575ed43464468f9bfbae89d1675917346ca6d8fe3c92600080a2565b6060600061207e600d6000018054611ffb90615f70565b80601f016020809104026020016040519081016040528092919081815260200182805461202790615f70565b80156120745780601f1061204957610100808354040283529160200191612074565b820191906000526020600020905b81548152906001019060200180831161205757829003601f168201915b5050505050612570565b9050600061208b82610f4f565b90508060405160200161209e9190616241565b6040516020818303038152906040529250505090565b6000818152600260205260408120546001600160a01b031680610cae5760405162461bcd60e51b8152602060048201526018602482015277115490cdcc8c4e881a5b9d985b1a59081d1bdad95b88125160421b6044820152606401610de1565b60006001600160a01b03821661217e5760405162461bcd60e51b815260206004820152602960248201527f4552433732313a2061646472657373207a65726f206973206e6f7420612076616044820152683634b21037bbb732b960b91b6064820152608401610de1565b506001600160a01b031660009081526003602052604090205490565b6121a261486d565b6121ac6000614888565b565b6121b661486d565b601380546001600160a01b0319166001600160a01b0392909216919091179055565b601160205260009081526040902080546001820180549192916121fa90615f70565b80601f016020809104026020016040519081016040528092919081815260200182805461222690615f70565b80156122735780601f1061224857610100808354040283529160200191612273565b820191906000526020600020905b81548152906001019060200180831161225657829003601f168201915b5050506002840154600385018054949560ff90921694919350915061229790615f70565b80601f01602080910402602001604051908101604052809291908181526020018280546122c390615f70565b80156123105780601f106122e557610100808354040283529160200191612310565b820191906000526020600020905b8154815290600101906020018083116122f357829003601f168201915b50505050509080600401805461232590615f70565b80601f016020809104026020016040519081016040528092919081815260200182805461235190615f70565b801561239e5780601f106123735761010080835404028352916020019161239e565b820191906000526020600020905b81548152906001019060200180831161238157829003601f168201915b5050505050908060050180546123b390615f70565b80601f01602080910402602001604051908101604052809291908181526020018280546123df90615f70565b801561242c5780601f106124015761010080835404028352916020019161242c565b820191906000526020600020905b81548152906001019060200180831161240f57829003601f168201915b5050506006840154600785015460088601805495966001600160a01b039384169692909316945091925061245f90615f70565b80601f016020809104026020016040519081016040528092919081815260200182805461248b90615f70565b80156124d85780601f106124ad576101008083540402835291602001916124d8565b820191906000526020600020905b8154815290600101906020018083116124bb57829003601f168201915b5050505050908060090180546124ed90615f70565b80601f016020809104026020016040519081016040528092919081815260200182805461251990615f70565b80156125665780601f1061253b57610100808354040283529160200191612566565b820191906000526020600020905b81548152906001019060200180831161254957829003601f168201915b505050505090508a565b8051604080516111948082526111c08201909252606092916000919060208201818036833701905050905060006125a8600584615fe6565b905060005b818110156127b85760006125c28260056162ab565b905060008782815181106125d8576125d8615fa4565b016020015160f81c90506000886125f084600161600e565b8151811061260057612600615fa4565b016020015160f81c9050600060ff831661261b83601e6162ab565b612625919061600e565b6126309060056162ab565b905089848151811061264457612644615fa4565b602001015160f81c60f81b87828151811061266157612661615fa4565b60200101906001600160f81b031916908160001a90535089846001018151811061268d5761268d615fa4565b602001015160f81c60f81b8782600101815181106126ad576126ad615fa4565b60200101906001600160f81b031916908160001a9053508984600201815181106126d9576126d9615fa4565b602001015160f81c60f81b8782600201815181106126f9576126f9615fa4565b60200101906001600160f81b031916908160001a90535089846003018151811061272557612725615fa4565b602001015160f81c60f81b87826003018151811061274557612745615fa4565b60200101906001600160f81b031916908160001a90535089846004018151811061277157612771615fa4565b602001015160f81c60f81b87826004018151811061279157612791615fa4565b60200101906001600160f81b031916908160001a90535050600190930192506125ad915050565b5090949350505050565b6000828152601160209081526040909120825181559082015182919060018201906127ed908261630a565b50604082015160028201805460ff1916600183600781111561281157612811615454565b02179055506060820151600382019061282a908261630a565b506080820151600482019061283f908261630a565b5060a08201516005820190612854908261630a565b5060c08201516006820180546001600160a01b039283166001600160a01b03199182161790915560e084015160078401805491909316911617905561010082015160088201906128a4908261630a565b5061012082015160098201906128ba908261630a565b5050505050565b606060018054610cc390615f70565b60608060608060006128e0611fe4565b905060006128ed8761307c565b9050806020015115612e0d5760006011600083608001518152602001908152602001600020604051806101400160405290816000820154815260200160018201805461293890615f70565b80601f016020809104026020016040519081016040528092919081815260200182805461296490615f70565b80156129b15780601f10612986576101008083540402835291602001916129b1565b820191906000526020600020905b81548152906001019060200180831161299457829003601f168201915b5050509183525050600282015460209091019060ff1660078111156129d8576129d8615454565b60078111156129e9576129e9615454565b81526020016003820180546129fd90615f70565b80601f0160208091040260200160405190810160405280929190818152602001828054612a2990615f70565b8015612a765780601f10612a4b57610100808354040283529160200191612a76565b820191906000526020600020905b815481529060010190602001808311612a5957829003601f168201915b50505050508152602001600482018054612a8f90615f70565b80601f0160208091040260200160405190810160405280929190818152602001828054612abb90615f70565b8015612b085780601f10612add57610100808354040283529160200191612b08565b820191906000526020600020905b815481529060010190602001808311612aeb57829003601f168201915b50505050508152602001600582018054612b2190615f70565b80601f0160208091040260200160405190810160405280929190818152602001828054612b4d90615f70565b8015612b9a5780601f10612b6f57610100808354040283529160200191612b9a565b820191906000526020600020905b815481529060010190602001808311612b7d57829003601f168201915b505050918352505060068201546001600160a01b0390811660208301526007830154166040820152600882018054606090920191612bd790615f70565b80601f0160208091040260200160405190810160405280929190818152602001828054612c0390615f70565b8015612c505780601f10612c2557610100808354040283529160200191612c50565b820191906000526020600020905b815481529060010190602001808311612c3357829003601f168201915b50505050508152602001600982018054612c6990615f70565b80601f0160208091040260200160405190810160405280929190818152602001828054612c9590615f70565b8015612ce25780601f10612cb757610100808354040283529160200191612ce2565b820191906000526020600020905b815481529060010190602001808311612cc557829003601f168201915b5050505050815250509050612cfa8260800151612f68565b9450612d8973__$4987fe9f4e800c5c4c1535f64ed232842a$__63037d07a28460a001516040518263ffffffff1660e01b8152600401612d3a9190615eaf565b600060405180830381865af4158015612d57573d6000803e3d6000fd5b505050506040513d6000823e601f3d908101601f19168201604052612d7f91908101906161d4565b8260200151614780565b612db76040518060400160405280600781526020016621b932b0ba37b960c91b815250836101000151614780565b612de46040518060400160405280600681526020016529b2b0b9b7b760d11b815250846101200151614780565b604051602001612df6939291906163c9565b604051602081830303815290604052935050612e5e565b6040518060400160405280600f81526020016e2261747472696275746573223a5b5d60881b81525092506040518060400160405280600b81526020016a1e39bb339f1e17b9bb339f60a91b81525093505b60405180610100016040528060d281526020016168e460d291398285604051602001612e8c9392919061644c565b60405160208183030381529060405294506000612ea8866148c6565b604051602001612eb891906164a0565b60405160208183030381529060405290506000612ed4896148d4565b8583604051602001612ee8939291906164fc565b6040516020818303038152906040529050612f02816148c6565b604051602001612f1291906165b7565b604051602081830303815290604052975050505050505050919050565b612f3a338383614918565b5050565b612f4661486d565b601280546001600160a01b0319166001600160a01b0392909216919091179055565b6000818152601160205260408120600401805460609291612f8c91611ffb90615f70565b90506000612f9982610f4f565b905080604051602001612fac91906165fc565b60405160208183030381529060405292505050919050565b60606000612fd18361307c565b60808101516000908152601160205260409020600501805491925090612ff690615f70565b80601f016020809104026020016040519081016040528092919081815260200182805461302290615f70565b801561306f5780601f106130445761010080835404028352916020019161306f565b820191906000526020600020905b81548152906001019060200180831161305257829003601f168201915b5050505050915050919050565b6130b26040805160c08101825260008082526020820181905291810182905260608101829052608081018290529060a082015290565b6000828152600a60209081526040808320815160c08101835281548152600182015460ff90811615159482019490945260028201549281019290925260038101546001600160a01b031660608301526004810154608083015260058101549192909160a084019116600781111561312b5761312b615454565b600781111561313c5761313c615454565b90525080516000908152600c602052604090205460608201519192506001600160801b0316906001600160a01b03811615801561317b57506040830151155b1561319c5760405163082d451d60e01b815260048101869052602401610de1565b60155460405163687d69df60e11b81526001600160a01b0383169163d0fad3be916131d19160ff169087908790600401616641565b60c060405180830381865afa1580156131ee573d6000803e3d6000fd5b505050506040513d601f19601f82011682018060405250810190613212919061666f565b95945050505050565b613225338361455a565b6132415760405162461bcd60e51b8152600401610de190616186565b61324d848484846149e6565b50505050565b606080606060008460c00151111561327e576132758460c00151848385614200565b91945090925090505b60a0840151156132a1576132988460a00151848385614200565b91945090925090505b6080840151156132c4576132bb8460800151848385614200565b91945090925090505b6040840151156132e7576132de8460400151848385614200565b91945090925090505b60208401511561330a576133018460200151848385614200565b91945090925090505b83511561332857835161331f90848385614200565b91945090925090505b60608401511561334b576133428460600151848385614200565b91945090925090505b9193909250565b6060600061335f8361307c565b905080602001511561337f576133788160800151612f68565b91506133a6565b6040518060400160405280600b81526020016a1e39bb339f1e17b9bb339f60a91b81525091505b50919050565b6000818152600260205260409020546060906001600160a01b03166133e457604051632df0e24560e21b815260040160405180910390fd5b610cae826128d0565b6133f561524a565b60006134008361307c565b90506011600082608001518152602001908152602001600020604051806101400160405290816000820154815260200160018201805461343f90615f70565b80601f016020809104026020016040519081016040528092919081815260200182805461346b90615f70565b80156134b85780601f1061348d576101008083540402835291602001916134b8565b820191906000526020600020905b81548152906001019060200180831161349b57829003601f168201915b5050509183525050600282015460209091019060ff1660078111156134df576134df615454565b60078111156134f0576134f0615454565b815260200160038201805461350490615f70565b80601f016020809104026020016040519081016040528092919081815260200182805461353090615f70565b801561357d5780601f106135525761010080835404028352916020019161357d565b820191906000526020600020905b81548152906001019060200180831161356057829003601f168201915b5050505050815260200160048201805461359690615f70565b80601f01602080910402602001604051908101604052809291908181526020018280546135c290615f70565b801561360f5780601f106135e45761010080835404028352916020019161360f565b820191906000526020600020905b8154815290600101906020018083116135f257829003601f168201915b5050505050815260200160058201805461362890615f70565b80601f016020809104026020016040519081016040528092919081815260200182805461365490615f70565b80156136a15780601f10613676576101008083540402835291602001916136a1565b820191906000526020600020905b81548152906001019060200180831161368457829003601f168201915b505050918352505060068201546001600160a01b03908116602083015260078301541660408201526008820180546060909201916136de90615f70565b80601f016020809104026020016040519081016040528092919081815260200182805461370a90615f70565b80156137575780601f1061372c57610100808354040283529160200191613757565b820191906000526020600020905b81548152906001019060200180831161373a57829003601f168201915b5050505050815260200160098201805461377090615f70565b80601f016020809104026020016040519081016040528092919081815260200182805461379c90615f70565b80156137e95780601f106137be576101008083540402835291602001916137e9565b820191906000526020600020905b8154815290600101906020018083116137cc57829003601f168201915b505050505081525050915050919050565b60608060008360c00151111561381f576138198360c0015183836138d9565b90925090505b60a08301511561383e576138388360a0015183836138d9565b90925090505b60808301511561385d57613857836080015183836138d9565b90925090505b60408301511561387c57613876836040015183836138d9565b90925090505b60208301511561389b57613895836020015183836138d9565b90925090505b8251156138b55782516138af9083836138d9565b90925090505b6060830151156138d4576138ce836060015183836138d9565b90925090505b915091565b60608060608060006138ea8861307c565b90506138f68189611a8a565b875190945090925060000361391057819450829350613959565b86826040516020016139239291906166e1565b60405160208183030381529060405294508583604051602001613947929190616710565b60405160208183030381529060405293505b505050935093915050565b61396c61486d565b600d613978838261630a565b50600e610e82828261630a565b60005b8151811015612f3a576139b38282815181106139a6576139a6615fa4565b60200260200101516147c6565b600101613988565b6000806139c78361307c565b9050600060116000836080015181526020019081526020016000206040518061014001604052908160008201548152602001600182018054613a0890615f70565b80601f0160208091040260200160405190810160405280929190818152602001828054613a3490615f70565b8015613a815780601f10613a5657610100808354040283529160200191613a81565b820191906000526020600020905b815481529060010190602001808311613a6457829003601f168201915b5050509183525050600282015460209091019060ff166007811115613aa857613aa8615454565b6007811115613ab957613ab9615454565b8152602001600382018054613acd90615f70565b80601f0160208091040260200160405190810160405280929190818152602001828054613af990615f70565b8015613b465780601f10613b1b57610100808354040283529160200191613b46565b820191906000526020600020905b815481529060010190602001808311613b2957829003601f168201915b50505050508152602001600482018054613b5f90615f70565b80601f0160208091040260200160405190810160405280929190818152602001828054613b8b90615f70565b8015613bd85780601f10613bad57610100808354040283529160200191613bd8565b820191906000526020600020905b815481529060010190602001808311613bbb57829003601f168201915b50505050508152602001600582018054613bf190615f70565b80601f0160208091040260200160405190810160405280929190818152602001828054613c1d90615f70565b8015613c6a5780601f10613c3f57610100808354040283529160200191613c6a565b820191906000526020600020905b815481529060010190602001808311613c4d57829003601f168201915b505050918352505060068201546001600160a01b0390811660208301526007830154166040820152600882018054606090920191613ca790615f70565b80601f0160208091040260200160405190810160405280929190818152602001828054613cd390615f70565b8015613d205780601f10613cf557610100808354040283529160200191613d20565b820191906000526020600020905b815481529060010190602001808311613d0357829003601f168201915b50505050508152602001600982018054613d3990615f70565b80601f0160208091040260200160405190810160405280929190818152602001828054613d6590615f70565b8015613db25780601f10613d8757610100808354040283529160200191613db2565b820191906000526020600020905b815481529060010190602001808311613d9557829003601f168201915b5050509190925250505060400151949350505050565b613dd061524a565b601160008381526020019081526020016000206040518061014001604052908160008201548152602001600182018054613e0990615f70565b80601f0160208091040260200160405190810160405280929190818152602001828054613e3590615f70565b8015613e825780601f10613e5757610100808354040283529160200191613e82565b820191906000526020600020905b815481529060010190602001808311613e6557829003601f168201915b5050509183525050600282015460209091019060ff166007811115613ea957613ea9615454565b6007811115613eba57613eba615454565b8152602001600382018054613ece90615f70565b80601f0160208091040260200160405190810160405280929190818152602001828054613efa90615f70565b8015613f475780601f10613f1c57610100808354040283529160200191613f47565b820191906000526020600020905b815481529060010190602001808311613f2a57829003601f168201915b50505050508152602001600482018054613f6090615f70565b80601f0160208091040260200160405190810160405280929190818152602001828054613f8c90615f70565b8015613fd95780601f10613fae57610100808354040283529160200191613fd9565b820191906000526020600020905b815481529060010190602001808311613fbc57829003601f168201915b50505050508152602001600582018054613ff290615f70565b80601f016020809104026020016040519081016040528092919081815260200182805461401e90615f70565b801561406b5780601f106140405761010080835404028352916020019161406b565b820191906000526020600020905b81548152906001019060200180831161404e57829003601f168201915b505050918352505060068201546001600160a01b03908116602083015260078301541660408201526008820180546060909201916140a890615f70565b80601f01602080910402602001604051908101604052809291908181526020018280546140d490615f70565b80156141215780601f106140f657610100808354040283529160200191614121565b820191906000526020600020905b81548152906001019060200180831161410457829003601f168201915b5050505050815260200160098201805461413a90615f70565b80601f016020809104026020016040519081016040528092919081815260200182805461416690615f70565b80156141b35780601f10614188576101008083540402835291602001916141b3565b820191906000526020600020905b81548152906001019060200180831161419657829003601f168201915b5050505050815250509050919050565b6141cb61486d565b63389a75e1600c52806000526020600c2080544211156141f357636f5e88186000526004601cfd5b6000905561197181614888565b60608060608060608060006142148b61307c565b9050614220818c6142e1565b8b51909650919450925060000361423f578296508395508194506142ac565b89836040516020016142529291906166e1565b60405160208183030381529060405296508884604051602001614276929190616710565b6040516020818303038152906040529550878260405160200161429a9291906166e1565b60405160208183030381529060405294505b505050509450945094915050565b6142c261486d565b8060601b6142d857637448fbae6000526004601cfd5b61197181614888565b6060806060846020015180156142f75750600084115b1561440b576080850180516000908152601160205260409020905161431b90612f68565b60028201546040516301be83d160e11b81529195506143609173__$4987fe9f4e800c5c4c1535f64ed232842a$__9163037d07a291611afb9160ff1690600401615eaf565b6080870151600090815260116020526040902060050180549193509061438590615f70565b80601f01602080910402602001604051908101604052809291908181526020018280546143b190615f70565b80156143fe5780601f106143d3576101008083540402835291602001916143fe565b820191906000526020600020905b8154815290600101906020018083116143e157829003601f168201915b5050505050925050614461565b6040518060400160405280600b81526020016a1e39bb339f1e17b9bb339f60a91b8152509250604051806040016040528060028152602001617b7d60f01b81525090506040518060200160405280600081525091505b9250925092565b60006001600160e01b0319821663780e9d6360e01b1480610cae5750610cae82614a19565b6000818152600260205260409020546001600160a01b03166119715760405162461bcd60e51b8152602060048201526018602482015277115490cdcc8c4e881a5b9d985b1a59081d1bdad95b88125160421b6044820152606401610de1565b600081815260046020526040902080546001600160a01b0319166001600160a01b0384169081179091558190614521826120b4565b6001600160a01b03167f8c5be1e5ebec7d5bd14f71427d1e84f3dd0314c0f7b2291e5b200ac8c7c3b92560405160405180910390a45050565b600080614566836120b4565b9050806001600160a01b0316846001600160a01b031614806145ad57506001600160a01b0380821660009081526005602090815260408083209388168352929052205460ff165b806145d15750836001600160a01b03166145c684610d46565b6001600160a01b0316145b949350505050565b826001600160a01b03166145ec826120b4565b6001600160a01b0316146146505760405162461bcd60e51b815260206004820152602560248201527f4552433732313a207472616e736665722066726f6d20696e636f72726563742060448201526437bbb732b960d91b6064820152608401610de1565b6001600160a01b0382166146b25760405162461bcd60e51b8152602060048201526024808201527f4552433732313a207472616e7366657220746f20746865207a65726f206164646044820152637265737360e01b6064820152608401610de1565b6146bd838383614a69565b6146c86000826144ec565b6001600160a01b03831660009081526003602052604081208054600192906146f190849061615a565b90915550506001600160a01b038216600090815260036020526040812080546001929061471f90849061600e565b909155505060008181526002602052604080822080546001600160a01b0319166001600160a01b0386811691821790925591518493918716917fddf252ad1be2c89b69c2b068fc378daa952ba7f163c4a11628f55a4df523b3ef91a4505050565b6060828260405160200161479592919061674c565b604051602081830303815290604052905092915050565b612f3a828260405180602001604052806000815250614bd1565b60006147d1826120b4565b90506147df81600084614a69565b6147ea6000836144ec565b6001600160a01b038116600090815260036020526040812080546001929061481390849061615a565b909155505060008281526002602052604080822080546001600160a01b0319169055518391906001600160a01b038416907fddf252ad1be2c89b69c2b068fc378daa952ba7f163c4a11628f55a4df523b3ef908390a45050565b638b78c6d8195433146121ac576382b429006000526004601cfd5b638b78c6d81980546001600160a01b039092169182907f8be0079c531659141344cd1fd0a4f28419497f9722a3daafe3b4186f6b6457e0600080a355565b6060610cae82600080614c04565b60606080604051019050602081016040526000815280600019835b928101926030600a8206018453600a9004806148ef575050819003601f19909101908152919050565b816001600160a01b0316836001600160a01b0316036149795760405162461bcd60e51b815260206004820152601960248201527f4552433732313a20617070726f766520746f2063616c6c6572000000000000006044820152606401610de1565b6001600160a01b03838116600081815260056020908152604080832094871680845294825291829020805460ff191686151590811790915591519182527f17307eab39ab6107e8899845ad3d59bd9653f200f220920489ca2b5937696c31910160405180910390a3505050565b6149f18484846145d9565b6149fd84848484614ceb565b61324d5760405162461bcd60e51b8152600401610de1906167bd565b60006001600160e01b031982166380ac58cd60e01b1480614a4a57506001600160e01b03198216635b5e139f60e01b145b80610cae57506301ffc9a760e01b6001600160e01b0319831614610cae565b601354604051634f6088cd60e01b8152600481018390526000916001600160a01b031690634f6088cd90602401608060405180830381865afa158015614ab3573d6000803e3d6000fd5b505050506040513d601f19601f82011682018060405250810190614ad7919061680f565b5090925050506001600160a01b03811615614b17576013546001600160a01b03163314614b175760405163bf646b0f60e01b815260040160405180910390fd5b6001600160a01b038316614b3a57614b2f8284614dec565b61324d848484614eb4565b60125460405162525fcd60e91b81526001600160a01b0385811660048301529091169063a4bf9a0090602401602060405180830381865afa158015614b83573d6000803e3d6000fd5b505050506040513d601f19601f82011682018060405250810190614ba79190616864565b600003614bc7576040516326a45c0160e21b815260040160405180910390fd5b614b2f8284614dec565b614bdb8383614f6c565b614be86000848484614ceb565b610e825760405162461bcd60e51b8152600401610de1906167bd565b606083518015611ded576003600282010460021b60405192507f4142434445464748494a4b4c4d4e4f505152535455565758595a616263646566601f526106708515027f6768696a6b6c6d6e6f707172737475767778797a303132333435363738392d5f18603f52602083018181015b6003880197508751603f8160121c1651600053603f81600c1c1651600153603f8160061c1651600253603f811651600353506000518252600482019150808210614c7457602001604052613d3d60f01b60038406600204808303919091526000861515909102918290035290038252509392505050565b60006001600160a01b0384163b15614de157604051630a85bd0160e11b81526001600160a01b0385169063150b7a0290614d2f90339089908890889060040161687d565b6020604051808303816000875af1925050508015614d6a575060408051601f3d908101601f19168201909252614d67918101906168b0565b60015b614dc7573d808015614d98576040519150601f19603f3d011682016040523d82523d6000602084013e614d9d565b606091505b508051600003614dbf5760405162461bcd60e51b8152600401610de1906167bd565b805181602001fd5b6001600160e01b031916630a85bd0160e11b1490506145d1565b506001949350505050565b601354604051632e1d274f60e01b8152600481018490526001600160a01b0390911690632e1d274f90602401600060405180830381600087803b158015614e3257600080fd5b505af1158015614e46573d6000803e3d6000fd5b50506013546040516302fbe78f60e41b8152600481018690526001600160a01b0385811660248301529091169250632fbe78f09150604401600060405180830381600087803b158015614e9857600080fd5b505af1158015614eac573d6000803e3d6000fd5b505050505050565b6001600160a01b038316614f0f57614f0a81600880546000838152600960205260408120829055600182018355919091527ff3f7a9fe364faab93b216da50a3214154f22a0a2b415b23a84c8169e8b636ee30155565b614f32565b816001600160a01b0316836001600160a01b031614614f3257614f3283826150ba565b6001600160a01b038216614f4957610e8281615157565b826001600160a01b0316826001600160a01b031614610e8257610e828282615206565b6001600160a01b038216614fc25760405162461bcd60e51b815260206004820181905260248201527f4552433732313a206d696e7420746f20746865207a65726f20616464726573736044820152606401610de1565b6000818152600260205260409020546001600160a01b0316156150275760405162461bcd60e51b815260206004820152601c60248201527f4552433732313a20746f6b656e20616c7265616479206d696e746564000000006044820152606401610de1565b61503360008383614a69565b6001600160a01b038216600090815260036020526040812080546001929061505c90849061600e565b909155505060008181526002602052604080822080546001600160a01b0319166001600160a01b03861690811790915590518392907fddf252ad1be2c89b69c2b068fc378daa952ba7f163c4a11628f55a4df523b3ef908290a45050565b600060016150c784612114565b6150d1919061615a565b600083815260076020526040902054909150808214615124576001600160a01b03841660009081526006602090815260408083208584528252808320548484528184208190558352600790915290208190555b5060009182526007602090815260408084208490556001600160a01b039094168352600681528383209183525290812055565b6008546000906151699060019061615a565b6000838152600960205260408120546008805493945090928490811061519157615191615fa4565b9060005260206000200154905080600883815481106151b2576151b2615fa4565b60009182526020808320909101929092558281526009909152604080822084905585825281205560088054806151ea576151ea6168cd565b6001900381819060005260206000200160009055905550505050565b600061521183612114565b6001600160a01b039093166000908152600660209081526040808320868452825280832085905593825260079052919091209190915550565b60408051610140810182526000808252606060208301529091820190815260200160608152602001606081526020016060815260200160006001600160a01b0316815260200160006001600160a01b0316815260200160608152602001606081525090565b6001600160e01b03198116811461197157600080fd5b6000602082840312156152d757600080fd5b81356152e2816152af565b9392505050565b60005b838110156153045781810151838201526020016152ec565b50506000910152565b600081518084526153258160208601602086016152e9565b601f01601f19169290920160200192915050565b6020815260006152e2602083018461530d565b60006020828403121561535e57600080fd5b5035919050565b6001600160a01b038116811461197157600080fd5b803561538581615365565b919050565b6000806040838503121561539d57600080fd5b82356153a881615365565b946020939093013593505050565b6000806000806000608086880312156153ce57600080fd5b85356153d981615365565b945060208601356153e981615365565b93506040860135925060608601356001600160401b038082111561540c57600080fd5b818801915088601f83011261542057600080fd5b81358181111561542f57600080fd5b89602082850101111561544157600080fd5b9699959850939650602001949392505050565b634e487b7160e01b600052602160045260246000fd5b6008811061548857634e487b7160e01b600052602160045260246000fd5b9052565b805182526020810151151560208301526040810151604083015260018060a01b0360608201511660608301526080810151608083015260a0810151610e8260a084018261546a565b60c08101610cae828461548c565b634e487b7160e01b600052604160045260246000fd5b60405160c081016001600160401b038111828210171561551a5761551a6154e2565b60405290565b60405161014081016001600160401b038111828210171561551a5761551a6154e2565b60405161018081016001600160401b038111828210171561551a5761551a6154e2565b604051601f8201601f191681016001600160401b038111828210171561558e5761558e6154e2565b604052919050565b60006001600160401b038211156155af576155af6154e2565b50601f01601f191660200190565b600082601f8301126155ce57600080fd5b81356155e16155dc82615596565b615566565b8181528460208386010111156155f657600080fd5b816020850160208301376000918101602001919091529392505050565b60006020828403121561562557600080fd5b81356001600160401b0381111561563b57600080fd5b6145d1848285016155bd565b60008060006060848603121561565c57600080fd5b833561566781615365565b9250602084013561567781615365565b929592945050506040919091013590565b801515811461197157600080fd5b803561538581615688565b6008811061197157600080fd5b8035615385816156a1565b600060c082840312156156cb57600080fd5b6156d36154f8565b90508135815260208201356156e781615688565b602082015260408281013590820152606082013561570481615365565b60608201526080828101359082015260a0820135615721816156a1565b60a082015292915050565b60008060e0838503121561573f57600080fd5b61574984846156b9565b9460c0939093013593505050565b60408152600061576a604083018561530d565b8281036020840152613212818561530d565b60008060e0838503121561578f57600080fd5b823591506157a084602085016156b9565b90509250929050565b6000602082840312156157bb57600080fd5b81356152e281615365565b6020808252825182820181905260009190848201906040850190845b818110156157fe578351835292840192918401916001016157e2565b50909695505050505050565b60006101408c83528060208401526158248184018d61530d565b9050615833604084018c61546a565b8281036060840152615845818b61530d565b90508281036080840152615859818a61530d565b905082810360a084015261586d818961530d565b6001600160a01b0388811660c0860152871660e08501528381036101008501529050615899818661530d565b90508281036101208401526158ae818561530d565b9d9c50505050505050505050505050565b600080604083850312156158d257600080fd5b8235915060208301356001600160401b03808211156158f057600080fd5b90840190610140828703121561590557600080fd5b61590d615520565b8235815260208301358281111561592357600080fd5b61592f888286016155bd565b602083015250615941604084016156ae565b604082015260608301358281111561595857600080fd5b615964888286016155bd565b60608301525060808301358281111561597c57600080fd5b615988888286016155bd565b60808301525060a0830135828111156159a057600080fd5b6159ac888286016155bd565b60a0830152506159be60c0840161537a565b60c08201526159cf60e0840161537a565b60e082015261010080840135838111156159e857600080fd5b6159f4898287016155bd565b8284015250506101208084013583811115615a0e57600080fd5b615a1a898287016155bd565b8284015250508093505050509250929050565b60008060408385031215615a4057600080fd5b8235615a4b81615365565b91506020830135615a5b81615688565b809150509250929050565b60008060008060808587031215615a7c57600080fd5b8435615a8781615365565b93506020850135615a9781615365565b92506040850135915060608501356001600160401b03811115615ab957600080fd5b615ac5878288016155bd565b91505092959194509250565b803563ffffffff8116811461538557600080fd5b803560ff8116811461538557600080fd5b600060208284031215615b0857600080fd5b81356001600160401b0380821115615b1f57600080fd5b908301906101808286031215615b3457600080fd5b615b3c615543565b823581526020830135602082015260408301356040820152606083013560608201526080830135608082015260a083013560a082015260c083013560c0820152615b8860e08401615ad1565b60e08201526101008381013590820152610120615ba6818501615ae5565b908201526101408381013583811115615bbe57600080fd5b615bca888287016155bd565b8284015250506101609150615be0828401615696565b91810191909152949350505050565b606081526000615c02606083018661530d565b8281036020840152615c14818661530d565b90508281036040840152615c28818561530d565b9695505050505050565b602081528151602082015260006020830151610140806040850152615c5b61016085018361530d565b91506040850151615c6f606086018261546a565b506060850151601f1980868503016080870152615c8c848361530d565b935060808701519150808685030160a0870152615ca9848361530d565b935060a08701519150808685030160c0870152615cc6848361530d565b935060c08701519150615ce460e08701836001600160a01b03169052565b60e08701519150610100615d02818801846001600160a01b03169052565b80880151925050610120818786030181880152615d1f858461530d565b908801518782039092018488015293509050615c28838261530d565b600080600060608486031215615d5057600080fd5b8335925060208401356001600160401b0380821115615d6e57600080fd5b615d7a878388016155bd565b93506040860135915080821115615d9057600080fd5b50615d9d868287016155bd565b9150509250925092565b60008060408385031215615dba57600080fd5b82356001600160401b0380821115615dd157600080fd5b615ddd868387016155bd565b93506020850135915080821115615df357600080fd5b50615e00858286016155bd565b9150509250929050565b60006020808385031215615e1d57600080fd5b82356001600160401b0380821115615e3457600080fd5b818501915085601f830112615e4857600080fd5b813581811115615e5a57615e5a6154e2565b8060051b9150615e6b848301615566565b8181529183018401918481019088841115615e8557600080fd5b938501935b83851015615ea357843582529385019390850190615e8a565b98975050505050505050565b60208101610cae828461546a565b60008060408385031215615ed057600080fd5b8235615edb81615365565b91506020830135615a5b81615365565b60008060008060808587031215615f0157600080fd5b8435935060208501356001600160401b0380821115615f1f57600080fd5b615f2b888389016155bd565b94506040870135915080821115615f4157600080fd5b615f4d888389016155bd565b93506060870135915080821115615f6357600080fd5b50615ac5878288016155bd565b600181811c90821680615f8457607f821691505b6020821081036133a657634e487b7160e01b600052602260045260246000fd5b634e487b7160e01b600052603260045260246000fd5b634e487b7160e01b600052601260045260246000fd5b634e487b7160e01b600052601160045260246000fd5b600082615ff557615ff5615fba565b500490565b60008261600957616009615fba565b500690565b80820180821115610cae57610cae615fd0565b6000875160206160348285838d016152e9565b8851918401916160478184848d016152e9565b88519201916160598184848c016152e9565b875192019161606b8184848b016152e9565b865192019161607d8184848a016152e9565b855192019161608f81848489016152e9565b919091019998505050505050505050565b600085516160b2818460208a016152e9565b681e3932b1ba103c1e9160b91b90830190815285516160d8816009840160208a016152e9565b6411103c9e9160d91b6009929091019182015284516160fe81600e8401602089016152e9565b7f222077696474683d223122206865696768743d2231222066696c6c3d22230000600e9290910191820152835161613c81602c8401602088016152e9565b6211179f60e91b602c9290910191820152602f019695505050505050565b81810381811115610cae57610cae615fd0565b60006001820161617f5761617f615fd0565b5060010190565b6020808252602e908201527f4552433732313a2063616c6c6572206973206e6f7420746f6b656e206f776e6560408201526d1c881b9bdc88185c1c1c9bdd995960921b606082015260800190565b6000602082840312156161e657600080fd5b81516001600160401b038111156161fc57600080fd5b8201601f8101841361620d57600080fd5b805161621b6155dc82615596565b81815285602083850101111561623057600080fd5b6132128260208301602086016152e9565b7f3c672069643d2267686f73742220636c6173733d226722207374796c653d226f81526d3830b1b4ba3c9d101a98129d911f60911b60208201526000825161629081602e8501602087016152e9565b631e17b39f60e11b602e939091019283015250603201919050565b8082028115828204841417610cae57610cae615fd0565b601f821115610e82576000816000526020600020601f850160051c810160208610156162eb5750805b601f850160051c820191505b81811015614eac578281556001016162f7565b81516001600160401b03811115616323576163236154e2565b616337816163318454615f70565b846162c2565b602080601f83116001811461636c57600084156163545750858301515b600019600386901b1c1916600185901b178555614eac565b600085815260208120601f198616915b8281101561639b5788860151825594840194600190910190840161637c565b50858210156163b95787850151600019600388901b60f8161c191681555b5050505050600190811b01905550565b6d2261747472696275746573223a5b60901b815283516000906163f381600e8501602089016152e9565b8083019050600b60fa1b80600e830152855161641681600f850160208a016152e9565b600f92019182015283516164318160108401602088016152e9565b605d60f81b6010929091019182015260110195945050505050565b6000845161645e8184602089016152e9565b8451908301906164728183602089016152e9565b84519101906164858183602088016152e9565b651e17b9bb339f60d11b910190815260060195945050505050565b7f22696d616765223a22646174613a696d6167652f7376672b786d6c3b626173658152620d8d0b60ea1b6020820152600082516164e48160238501602087016152e9565b601160f91b6023939091019283015250602401919050565b757b226e616d65223a225065746572205472616974202360501b8152835160009061652e8160168501602089016152e9565b7f222c226465736372697074696f6e223a2254686973206973206a757374206120601691840191820152651d195cdd088b60d21b6036820152845161657a81603c8401602089016152e9565b600b60fa1b603c9290910191820152835161659c81603d8401602088016152e9565b607d60f81b603d9290910191820152603e0195945050505050565b7f646174613a6170706c69636174696f6e2f6a736f6e3b6261736536342c0000008152600082516165ef81601d8501602087016152e9565b91909101601d0192915050565b6d1e339034b21e912a3930b4ba111f60911b8152815160009061662681600e8501602087016152e9565b631e17b39f60e11b600e939091019283015250601201919050565b83151581526101008101616658602083018561548c565b6001600160801b03831660e0830152949350505050565b600060c0828403121561668157600080fd5b6166896154f8565b82518152602083015161669b81615688565b60208201526040838101519082015260608301516166b881615365565b60608201526080838101519082015260a08301516166d5816156a1565b60a08201529392505050565b600083516166f38184602088016152e9565b8351908301906167078183602088016152e9565b01949350505050565b600083516167228184602088016152e9565b600b60fa1b90830190815283516167408160018401602088016152e9565b01600101949350505050565b6e3d913a3930b4ba2fba3cb832911d1160891b8152825160009061677781600f8501602088016152e9565b6a1116113b30b63ab2911d1160a91b600f9184019182015283516167a281601a8401602088016152e9565b61227d60f01b601a9290910191820152601c01949350505050565b60208082526032908201527f4552433732313a207472616e7366657220746f206e6f6e20455243373231526560408201527131b2b4bb32b91034b6b83632b6b2b73a32b960711b606082015260800190565b6000806000806080858703121561682557600080fd5b84519350602085015161683781615365565b604086015190935061684881615365565b606086015190925061685981615365565b939692955090935050565b60006020828403121561687657600080fd5b5051919050565b6001600160a01b0385811682528416602082015260408101839052608060608201819052600090615c289083018461530d565b6000602082840312156168c257600080fd5b81516152e2816152af565b634e487b7160e01b600052603160045260246000fdfe3c7376672073686170652d72656e646572696e673d2263726973704564676573222076696577426f783d22302030203330203330222066696c6c3d226e6f6e652220786d6c6e733d22687474703a2f2f7777772e77332e6f72672f323030302f737667223e3c7374796c653e726563747b77696474683a3170783b206865696768743a203170783b7d202e62677b77696474683a333070783b206865696768743a20333070783b7d203c2f7374796c653e3c7265637420636c6173733d226267222066696c6c3d2223304436453944222f3ea2646970667358221220b122e66bfde21eae6e6d88d851faad1c0bbaead1f984bdc9efa133bab5564bc364736f6c63430008160033","linkReferences":{"src/TraitCategory.sol":{"TraitCategory":[{"start":7546,"length":20},{"start":12202,"length":20},{"start":17887,"length":20}]}}},"methodIdentifiers":{"approve(address,uint256)":"095ea7b3","balanceOf(address)":"70a08231","burn(uint256)":"42966c68","burnBatch(uint256[])":"e4623c1b","callGetSVGZmapAndMetadataTrait(uint256,string,string,bytes)":"f1271942","callGetSvgAndMetadataTrait(uint256,string,string)":"e08714a6","cancelOwnershipHandover()":"54d1f13d","completeOwnershipHandover(address)":"f04e283e","createSvgFromPixels(bytes)":"21b12c23","getApproved(uint256)":"081812fc","getCurrentEpoch()":"b97dd9e2","getEpoch()":"757991a8","getEpochData(uint256)":"859e7d32","getGhostSvg()":"5c1ef256","getSVGZmapAndMetadataTrait((uint256,bool,uint256,address,uint256,uint8),uint256)":"f901667f","getStoredTraitForTokenId(uint256)":"208c25a3","getSvgAndMetadata((uint256,uint256,uint256,uint256,uint256,uint256,uint256,uint32,uint256,uint8,string,bool))":"df2c2b88","getSvgAndMetadataTrait((uint256,bool,uint256,address,uint256,uint8),uint256)":"33a70328","getSvgForTokenId(uint256)":"c7791531","getSvgZmapsAndMetadata((uint256,uint256,uint256,uint256,uint256,uint256,uint256,uint32,uint256,uint8,string,bool))":"bb12d21d","getTrait(uint256)":"acb586df","getTraitImage(bytes)":"898aa117","getTraitImageSvg(uint256)":"a5e2912a","getTraitIndexToMetadata(uint256)":"ea139544","getTraitMetadata(uint256)":"d1bfc2af","getTraitType(uint256)":"e8a1268d","getZMapForTokenId(uint256)":"a8498c74","ghost()":"51dc7189","isApprovedForAll(address,address)":"e985e9c5","isMinter(address)":"aa271e1a","marketplace()":"abc8c7af","minter()":"07546172","name()":"06fdde03","onERC721Received(address,address,uint256,bytes)":"150b7a02","owner()":"8da5cb5b","ownerOf(uint256)":"6352211e","ownershipHandoverExpiresAt(address)":"fee81cf4","petersMain()":"1ca97604","renderAsDataUri(uint256)":"a1d62680","renounceOwnership()":"715018a6","requestOwnershipHandover()":"25692962","resolveEpochIfNecessary()":"239ffa68","safeMint(address)":"40d097c3","safeTransferFrom(address,address,uint256)":"42842e0e","safeTransferFrom(address,address,uint256,bytes)":"b88d4fde","setApprovalForAll(address,bool)":"a22cb465","setGhostMaps(bytes,bytes)":"e1defed9","setMarketplace(address)":"73ad6c2d","setPetersMain(address)":"a2c12c94","setTraitForTokenId(uint256,(uint256,bool,uint256,address,uint256,uint8))":"36d34ab9","setTraitIndexToMetadata(uint256,(uint256,string,uint8,string,bytes,bytes,address,address,string,string))":"8d37c537","signer()":"238ac933","supportsInterface(bytes4)":"01ffc9a7","symbol()":"95d89b41","tokenByIndex(uint256)":"4f6ccce7","tokenOfOwnerByIndex(address,uint256)":"2f745c59","tokenURI(uint256)":"c87b56dd","totalSupply()":"18160ddd","traitIndexToMetadata(uint256)":"817a29a4","traitTokens()":"e14d026f","transferFrom(address,address,uint256)":"23b872dd","transferOwnership(address)":"f2fde38b","walletOfOwner(address)":"438b6300"},"id":42}