{"abi":[{"type":"constructor","inputs":[{"name":"localDeploy_","type":"bool","internalType":"bool"}],"stateMutability":"nonpayable"},{"type":"function","name":"approve","inputs":[{"name":"to","type":"address","internalType":"address"},{"name":"tokenId","type":"uint256","internalType":"uint256"}],"outputs":[],"stateMutability":"nonpayable"},{"type":"function","name":"balanceOf","inputs":[{"name":"owner","type":"address","internalType":"address"}],"outputs":[{"name":"","type":"uint256","internalType":"uint256"}],"stateMutability":"view"},{"type":"function","name":"callGetSVGZmapAndMetadataTrait","inputs":[{"name":"_traitId","type":"uint256","internalType":"uint256"},{"name":"_traitsSvg","type":"string","internalType":"string"},{"name":"_traitsAttributes","type":"string","internalType":"string"},{"name":"_traitZMaps","type":"bytes","internalType":"bytes"}],"outputs":[{"name":"traitsSvg","type":"string","internalType":"string"},{"name":"traitsAttributes","type":"string","internalType":"string"},{"name":"traitZMaps","type":"bytes","internalType":"bytes"}],"stateMutability":"view"},{"type":"function","name":"callGetSvgAndMetadataTrait","inputs":[{"name":"_traitId","type":"uint256","internalType":"uint256"},{"name":"_traitsSvg","type":"string","internalType":"string"},{"name":"_traitsAttributes","type":"string","internalType":"string"}],"outputs":[{"name":"traitsSvg","type":"string","internalType":"string"},{"name":"traitsAttributes","type":"string","internalType":"string"}],"stateMutability":"view"},{"type":"function","name":"cancelOwnershipHandover","inputs":[],"outputs":[],"stateMutability":"payable"},{"type":"function","name":"completeOwnershipHandover","inputs":[{"name":"pendingOwner","type":"address","internalType":"address"}],"outputs":[],"stateMutability":"payable"},{"type":"function","name":"createSvgFromPixels","inputs":[{"name":"_pixels","type":"bytes","internalType":"bytes"}],"outputs":[{"name":"svgParts","type":"bytes","internalType":"bytes"}],"stateMutability":"pure"},{"type":"function","name":"getApproved","inputs":[{"name":"tokenId","type":"uint256","internalType":"uint256"}],"outputs":[{"name":"","type":"address","internalType":"address"}],"stateMutability":"view"},{"type":"function","name":"getCurrentEpoch","inputs":[],"outputs":[{"name":"","type":"uint256","internalType":"uint256"}],"stateMutability":"view"},{"type":"function","name":"getEpoch","inputs":[],"outputs":[{"name":"","type":"uint256","internalType":"uint256"}],"stateMutability":"view"},{"type":"function","name":"getEpochData","inputs":[{"name":"index","type":"uint256","internalType":"uint256"}],"outputs":[{"name":"","type":"tuple","internalType":"struct CommitReveal.Epoch","components":[{"name":"randomness","type":"uint128","internalType":"uint128"},{"name":"revealBlock","type":"uint64","internalType":"uint64"},{"name":"committed","type":"bool","internalType":"bool"},{"name":"revealed","type":"bool","internalType":"bool"}]}],"stateMutability":"view"},{"type":"function","name":"getGhostSvg","inputs":[],"outputs":[{"name":"svg","type":"string","internalType":"string"}],"stateMutability":"view"},{"type":"function","name":"getSVGZmapAndMetadataTrait","inputs":[{"name":"trait","type":"tuple","internalType":"struct ITraitStorage.StoredTrait","components":[{"name":"tokenId","type":"uint256","internalType":"uint256"},{"name":"epoch","type":"uint256","internalType":"uint256"},{"name":"isRevealed","type":"bool","internalType":"bool"},{"name":"seed","type":"uint256","internalType":"uint256"},{"name":"renderMinterContract","type":"address","internalType":"address"},{"name":"traitIndex","type":"uint256","internalType":"uint256"},{"name":"traitType","type":"uint8","internalType":"enum TraitCategory.Name"}]},{"name":"traitId","type":"uint256","internalType":"uint256"}],"outputs":[{"name":"traitSvg","type":"string","internalType":"string"},{"name":"traitZmap","type":"bytes","internalType":"bytes"},{"name":"traitAttributes","type":"string","internalType":"string"}],"stateMutability":"view"},{"type":"function","name":"getStoredTraitForTokenId","inputs":[{"name":"_tokenId","type":"uint256","internalType":"uint256"}],"outputs":[{"name":"","type":"tuple","internalType":"struct ITraitStorage.StoredTrait","components":[{"name":"tokenId","type":"uint256","internalType":"uint256"},{"name":"epoch","type":"uint256","internalType":"uint256"},{"name":"isRevealed","type":"bool","internalType":"bool"},{"name":"seed","type":"uint256","internalType":"uint256"},{"name":"renderMinterContract","type":"address","internalType":"address"},{"name":"traitIndex","type":"uint256","internalType":"uint256"},{"name":"traitType","type":"uint8","internalType":"enum TraitCategory.Name"}]}],"stateMutability":"view"},{"type":"function","name":"getSvgAndMetadata","inputs":[{"name":"storedPeter","type":"tuple","internalType":"struct IPeterStorage.StoredPeter","components":[{"name":"hatId","type":"uint256","internalType":"uint256"},{"name":"hairId","type":"uint256","internalType":"uint256"},{"name":"faceId","type":"uint256","internalType":"uint256"},{"name":"accessoryId","type":"uint256","internalType":"uint256"},{"name":"topId","type":"uint256","internalType":"uint256"},{"name":"bottomId","type":"uint256","internalType":"uint256"},{"name":"shoesId","type":"uint256","internalType":"uint256"},{"name":"epoch","type":"uint32","internalType":"uint32"},{"name":"tokenId","type":"uint16","internalType":"uint16"},{"name":"bodyIndex","type":"uint256","internalType":"uint256"},{"name":"isRevealed","type":"bool","internalType":"bool"},{"name":"seed","type":"uint256","internalType":"uint256"},{"name":"backgroundColor","type":"string","internalType":"string"},{"name":"renderZ","type":"bool","internalType":"bool"}]}],"outputs":[{"name":"traitsSvg","type":"string","internalType":"string"},{"name":"traitsAttributes","type":"string","internalType":"string"}],"stateMutability":"view"},{"type":"function","name":"getSvgAndMetadataTrait","inputs":[{"name":"trait","type":"tuple","internalType":"struct ITraitStorage.StoredTrait","components":[{"name":"tokenId","type":"uint256","internalType":"uint256"},{"name":"epoch","type":"uint256","internalType":"uint256"},{"name":"isRevealed","type":"bool","internalType":"bool"},{"name":"seed","type":"uint256","internalType":"uint256"},{"name":"renderMinterContract","type":"address","internalType":"address"},{"name":"traitIndex","type":"uint256","internalType":"uint256"},{"name":"traitType","type":"uint8","internalType":"enum TraitCategory.Name"}]},{"name":"traitId","type":"uint256","internalType":"uint256"}],"outputs":[{"name":"traitSvg","type":"string","internalType":"string"},{"name":"traitAttributes","type":"string","internalType":"string"}],"stateMutability":"view"},{"type":"function","name":"getSvgForTokenId","inputs":[{"name":"_tokenId","type":"uint256","internalType":"uint256"}],"outputs":[{"name":"traitSvg","type":"string","internalType":"string"}],"stateMutability":"view"},{"type":"function","name":"getSvgZmapsAndMetadata","inputs":[{"name":"storedPeter","type":"tuple","internalType":"struct IPeterStorage.StoredPeter","components":[{"name":"hatId","type":"uint256","internalType":"uint256"},{"name":"hairId","type":"uint256","internalType":"uint256"},{"name":"faceId","type":"uint256","internalType":"uint256"},{"name":"accessoryId","type":"uint256","internalType":"uint256"},{"name":"topId","type":"uint256","internalType":"uint256"},{"name":"bottomId","type":"uint256","internalType":"uint256"},{"name":"shoesId","type":"uint256","internalType":"uint256"},{"name":"epoch","type":"uint32","internalType":"uint32"},{"name":"tokenId","type":"uint16","internalType":"uint16"},{"name":"bodyIndex","type":"uint256","internalType":"uint256"},{"name":"isRevealed","type":"bool","internalType":"bool"},{"name":"seed","type":"uint256","internalType":"uint256"},{"name":"backgroundColor","type":"string","internalType":"string"},{"name":"renderZ","type":"bool","internalType":"bool"}]}],"outputs":[{"name":"traitsSvg","type":"string","internalType":"string"},{"name":"traitZMaps","type":"bytes","internalType":"bytes"},{"name":"traitsAttributes","type":"string","internalType":"string"}],"stateMutability":"view"},{"type":"function","name":"getTrait","inputs":[{"name":"_tokenId","type":"uint256","internalType":"uint256"}],"outputs":[{"name":"","type":"tuple","internalType":"struct ITraitStorage.StoredTrait","components":[{"name":"tokenId","type":"uint256","internalType":"uint256"},{"name":"epoch","type":"uint256","internalType":"uint256"},{"name":"isRevealed","type":"bool","internalType":"bool"},{"name":"seed","type":"uint256","internalType":"uint256"},{"name":"renderMinterContract","type":"address","internalType":"address"},{"name":"traitIndex","type":"uint256","internalType":"uint256"},{"name":"traitType","type":"uint8","internalType":"enum TraitCategory.Name"}]}],"stateMutability":"view"},{"type":"function","name":"getTraitImage","inputs":[{"name":"colorMap","type":"bytes","internalType":"bytes"}],"outputs":[{"name":"","type":"bytes","internalType":"bytes"}],"stateMutability":"pure"},{"type":"function","name":"getTraitImageSvg","inputs":[{"name":"index","type":"uint256","internalType":"uint256"}],"outputs":[{"name":"svg","type":"string","internalType":"string"}],"stateMutability":"view"},{"type":"function","name":"getTraitIndexToMetadata","inputs":[{"name":"_traitIndex","type":"uint256","internalType":"uint256"}],"outputs":[{"name":"","type":"tuple","internalType":"struct ITraitStorage.TraitMetadata","components":[{"name":"traitIndex","type":"uint256","internalType":"uint256"},{"name":"traitName","type":"string","internalType":"string"},{"name":"traitType","type":"uint8","internalType":"enum TraitCategory.Name"},{"name":"animations","type":"string","internalType":"string"},{"name":"colorMap","type":"bytes","internalType":"bytes"},{"name":"zMap","type":"bytes","internalType":"bytes"},{"name":"renderMinterContract","type":"address","internalType":"address"}]}],"stateMutability":"view"},{"type":"function","name":"getTraitMetadata","inputs":[{"name":"_tokenId","type":"uint256","internalType":"uint256"}],"outputs":[{"name":"","type":"tuple","internalType":"struct ITraitStorage.TraitMetadata","components":[{"name":"traitIndex","type":"uint256","internalType":"uint256"},{"name":"traitName","type":"string","internalType":"string"},{"name":"traitType","type":"uint8","internalType":"enum TraitCategory.Name"},{"name":"animations","type":"string","internalType":"string"},{"name":"colorMap","type":"bytes","internalType":"bytes"},{"name":"zMap","type":"bytes","internalType":"bytes"},{"name":"renderMinterContract","type":"address","internalType":"address"}]}],"stateMutability":"view"},{"type":"function","name":"getTraitType","inputs":[{"name":"_tokenId","type":"uint256","internalType":"uint256"}],"outputs":[{"name":"","type":"uint8","internalType":"enum TraitCategory.Name"}],"stateMutability":"view"},{"type":"function","name":"getZMapForTokenId","inputs":[{"name":"_tokenId","type":"uint256","internalType":"uint256"}],"outputs":[{"name":"","type":"string","internalType":"string"}],"stateMutability":"view"},{"type":"function","name":"ghost","inputs":[],"outputs":[{"name":"colorMap","type":"bytes","internalType":"bytes"},{"name":"zMap","type":"bytes","internalType":"bytes"}],"stateMutability":"view"},{"type":"function","name":"isApprovedForAll","inputs":[{"name":"owner","type":"address","internalType":"address"},{"name":"operator","type":"address","internalType":"address"}],"outputs":[{"name":"","type":"bool","internalType":"bool"}],"stateMutability":"view"},{"type":"function","name":"isMinter","inputs":[{"name":"","type":"address","internalType":"address"}],"outputs":[{"name":"","type":"bool","internalType":"bool"}],"stateMutability":"view"},{"type":"function","name":"minter","inputs":[],"outputs":[{"name":"","type":"address","internalType":"address"}],"stateMutability":"view"},{"type":"function","name":"name","inputs":[],"outputs":[{"name":"","type":"string","internalType":"string"}],"stateMutability":"view"},{"type":"function","name":"onERC721Received","inputs":[{"name":"","type":"address","internalType":"address"},{"name":"","type":"address","internalType":"address"},{"name":"","type":"uint256","internalType":"uint256"},{"name":"","type":"bytes","internalType":"bytes"}],"outputs":[{"name":"","type":"bytes4","internalType":"bytes4"}],"stateMutability":"pure"},{"type":"function","name":"owner","inputs":[],"outputs":[{"name":"result","type":"address","internalType":"address"}],"stateMutability":"view"},{"type":"function","name":"ownerOf","inputs":[{"name":"tokenId","type":"uint256","internalType":"uint256"}],"outputs":[{"name":"","type":"address","internalType":"address"}],"stateMutability":"view"},{"type":"function","name":"ownershipHandoverExpiresAt","inputs":[{"name":"pendingOwner","type":"address","internalType":"address"}],"outputs":[{"name":"result","type":"uint256","internalType":"uint256"}],"stateMutability":"view"},{"type":"function","name":"renderAsDataUri","inputs":[{"name":"_tokenId","type":"uint256","internalType":"uint256"}],"outputs":[{"name":"","type":"string","internalType":"string"}],"stateMutability":"view"},{"type":"function","name":"renounceOwnership","inputs":[],"outputs":[],"stateMutability":"payable"},{"type":"function","name":"requestOwnershipHandover","inputs":[],"outputs":[],"stateMutability":"payable"},{"type":"function","name":"resolveEpochIfNecessary","inputs":[],"outputs":[],"stateMutability":"nonpayable"},{"type":"function","name":"safeMint","inputs":[{"name":"_to","type":"address","internalType":"address"}],"outputs":[{"name":"","type":"uint256","internalType":"uint256"}],"stateMutability":"nonpayable"},{"type":"function","name":"safeTransferFrom","inputs":[{"name":"from","type":"address","internalType":"address"},{"name":"to","type":"address","internalType":"address"},{"name":"tokenId","type":"uint256","internalType":"uint256"}],"outputs":[],"stateMutability":"nonpayable"},{"type":"function","name":"safeTransferFrom","inputs":[{"name":"from","type":"address","internalType":"address"},{"name":"to","type":"address","internalType":"address"},{"name":"tokenId","type":"uint256","internalType":"uint256"},{"name":"data","type":"bytes","internalType":"bytes"}],"outputs":[],"stateMutability":"nonpayable"},{"type":"function","name":"setApprovalForAll","inputs":[{"name":"operator","type":"address","internalType":"address"},{"name":"approved","type":"bool","internalType":"bool"}],"outputs":[],"stateMutability":"nonpayable"},{"type":"function","name":"setGhostMaps","inputs":[{"name":"_colorMap","type":"bytes","internalType":"bytes"},{"name":"_zMap","type":"bytes","internalType":"bytes"}],"outputs":[],"stateMutability":"nonpayable"},{"type":"function","name":"setTraitForTokenId","inputs":[{"name":"_tokenId","type":"uint256","internalType":"uint256"},{"name":"_trait","type":"tuple","internalType":"struct ITraitStorage.StoredTrait","components":[{"name":"tokenId","type":"uint256","internalType":"uint256"},{"name":"epoch","type":"uint256","internalType":"uint256"},{"name":"isRevealed","type":"bool","internalType":"bool"},{"name":"seed","type":"uint256","internalType":"uint256"},{"name":"renderMinterContract","type":"address","internalType":"address"},{"name":"traitIndex","type":"uint256","internalType":"uint256"},{"name":"traitType","type":"uint8","internalType":"enum TraitCategory.Name"}]}],"outputs":[],"stateMutability":"nonpayable"},{"type":"function","name":"setTraitIndexToMetadata","inputs":[{"name":"_traitIndex","type":"uint256","internalType":"uint256"},{"name":"_metadata","type":"tuple","internalType":"struct ITraitStorage.TraitMetadata","components":[{"name":"traitIndex","type":"uint256","internalType":"uint256"},{"name":"traitName","type":"string","internalType":"string"},{"name":"traitType","type":"uint8","internalType":"enum TraitCategory.Name"},{"name":"animations","type":"string","internalType":"string"},{"name":"colorMap","type":"bytes","internalType":"bytes"},{"name":"zMap","type":"bytes","internalType":"bytes"},{"name":"renderMinterContract","type":"address","internalType":"address"}]}],"outputs":[],"stateMutability":"nonpayable"},{"type":"function","name":"signer","inputs":[],"outputs":[{"name":"","type":"address","internalType":"address"}],"stateMutability":"view"},{"type":"function","name":"supportsInterface","inputs":[{"name":"interfaceId","type":"bytes4","internalType":"bytes4"}],"outputs":[{"name":"","type":"bool","internalType":"bool"}],"stateMutability":"view"},{"type":"function","name":"symbol","inputs":[],"outputs":[{"name":"","type":"string","internalType":"string"}],"stateMutability":"view"},{"type":"function","name":"tokenByIndex","inputs":[{"name":"index","type":"uint256","internalType":"uint256"}],"outputs":[{"name":"","type":"uint256","internalType":"uint256"}],"stateMutability":"view"},{"type":"function","name":"tokenOfOwnerByIndex","inputs":[{"name":"owner","type":"address","internalType":"address"},{"name":"index","type":"uint256","internalType":"uint256"}],"outputs":[{"name":"","type":"uint256","internalType":"uint256"}],"stateMutability":"view"},{"type":"function","name":"tokenURI","inputs":[{"name":"_tokenId","type":"uint256","internalType":"uint256"}],"outputs":[{"name":"","type":"string","internalType":"string"}],"stateMutability":"view"},{"type":"function","name":"totalSupply","inputs":[],"outputs":[{"name":"","type":"uint256","internalType":"uint256"}],"stateMutability":"view"},{"type":"function","name":"traitIndexToMetadata","inputs":[{"name":"","type":"uint256","internalType":"uint256"}],"outputs":[{"name":"traitIndex","type":"uint256","internalType":"uint256"},{"name":"traitName","type":"string","internalType":"string"},{"name":"traitType","type":"uint8","internalType":"enum TraitCategory.Name"},{"name":"animations","type":"string","internalType":"string"},{"name":"colorMap","type":"bytes","internalType":"bytes"},{"name":"zMap","type":"bytes","internalType":"bytes"},{"name":"renderMinterContract","type":"address","internalType":"address"}],"stateMutability":"view"},{"type":"function","name":"traitTokens","inputs":[],"outputs":[{"name":"epoch","type":"uint256","internalType":"uint256"}],"stateMutability":"view"},{"type":"function","name":"transferFrom","inputs":[{"name":"from","type":"address","internalType":"address"},{"name":"to","type":"address","internalType":"address"},{"name":"tokenId","type":"uint256","internalType":"uint256"}],"outputs":[],"stateMutability":"nonpayable"},{"type":"function","name":"transferOwnership","inputs":[{"name":"newOwner","type":"address","internalType":"address"}],"outputs":[],"stateMutability":"payable"},{"type":"function","name":"walletOfOwner","inputs":[{"name":"_owner","type":"address","internalType":"address"}],"outputs":[{"name":"","type":"uint256[]","internalType":"uint256[]"}],"stateMutability":"view"},{"type":"event","name":"Approval","inputs":[{"name":"owner","type":"address","indexed":true,"internalType":"address"},{"name":"approved","type":"address","indexed":true,"internalType":"address"},{"name":"tokenId","type":"uint256","indexed":true,"internalType":"uint256"}],"anonymous":false},{"type":"event","name":"ApprovalForAll","inputs":[{"name":"owner","type":"address","indexed":true,"internalType":"address"},{"name":"operator","type":"address","indexed":true,"internalType":"address"},{"name":"approved","type":"bool","indexed":false,"internalType":"bool"}],"anonymous":false},{"type":"event","name":"BatchMetadataUpdate","inputs":[{"name":"_fromTokenId","type":"uint256","indexed":false,"internalType":"uint256"},{"name":"_toTokenId","type":"uint256","indexed":false,"internalType":"uint256"}],"anonymous":false},{"type":"event","name":"MetadataUpdate","inputs":[{"name":"_tokenId","type":"uint256","indexed":false,"internalType":"uint256"}],"anonymous":false},{"type":"event","name":"Mint","inputs":[{"name":"owner","type":"address","indexed":true,"internalType":"address"},{"name":"tokenId","type":"uint256","indexed":true,"internalType":"uint256"}],"anonymous":false},{"type":"event","name":"NewEpoch","inputs":[{"name":"epoch","type":"uint256","indexed":true,"internalType":"uint256"},{"name":"revealBlock","type":"uint64","indexed":true,"internalType":"uint64"}],"anonymous":false},{"type":"event","name":"OwnershipHandoverCanceled","inputs":[{"name":"pendingOwner","type":"address","indexed":true,"internalType":"address"}],"anonymous":false},{"type":"event","name":"OwnershipHandoverRequested","inputs":[{"name":"pendingOwner","type":"address","indexed":true,"internalType":"address"}],"anonymous":false},{"type":"event","name":"OwnershipTransferred","inputs":[{"name":"oldOwner","type":"address","indexed":true,"internalType":"address"},{"name":"newOwner","type":"address","indexed":true,"internalType":"address"}],"anonymous":false},{"type":"event","name":"Transfer","inputs":[{"name":"from","type":"address","indexed":true,"internalType":"address"},{"name":"to","type":"address","indexed":true,"internalType":"address"},{"name":"tokenId","type":"uint256","indexed":true,"internalType":"uint256"}],"anonymous":false},{"type":"error","name":"AlreadyInitialized","inputs":[]},{"type":"error","name":"NewOwnerIsZeroAddress","inputs":[]},{"type":"error","name":"NoHandoverRequest","inputs":[]},{"type":"error","name":"NotAValidMinterContract","inputs":[]},{"type":"error","name":"TraitNotFound","inputs":[{"name":"_tokenId","type":"uint256","internalType":"uint256"}]},{"type":"error","name":"TraitTokenDoesntExist","inputs":[]},{"type":"error","name":"Unauthorized","inputs":[]}],"bytecode":{"object":"0x60806040523480156200001157600080fd5b5060405162005ff638038062005ff68339810160408190526200003491620000fb565b6040518060400160405280600b81526020016a506574657254726169747360a81b81525060405180604001604052806003815260200162282a2960e91b8152508160009081620000859190620001cd565b506001620000948282620001cd565b505050620000a833620000bf60201b60201c565b6013805460ff191691151591909117905562000299565b6001600160a01b0316638b78c6d8198190558060007f8be0079c531659141344cd1fd0a4f28419497f9722a3daafe3b4186f6b6457e08180a350565b6000602082840312156200010e57600080fd5b815180151581146200011f57600080fd5b9392505050565b634e487b7160e01b600052604160045260246000fd5b600181811c908216806200015157607f821691505b6020821081036200017257634e487b7160e01b600052602260045260246000fd5b50919050565b601f821115620001c8576000816000526020600020601f850160051c81016020861015620001a35750805b601f850160051c820191505b81811015620001c457828155600101620001af565b5050505b505050565b81516001600160401b03811115620001e957620001e962000126565b6200020181620001fa84546200013c565b8462000178565b602080601f831160018114620002395760008415620002205750858301515b600019600386901b1c1916600185901b178555620001c4565b600085815260208120601f198616915b828110156200026a5788860151825594840194600190910190840162000249565b5085821015620002895787850151600019600388901b60f8161c191681555b5050505050600190811b01905550565b615d4d80620002a96000396000f3fe6080604052600436106103765760003560e01c8063715018a6116101d1578063b88d4fde11610102578063e1defed9116100a0578063f04e283e1161006f578063f04e283e14610b25578063f127194214610b38578063f2fde38b14610b58578063fee81cf414610b6b57600080fd5b8063e1defed914610a6f578063e8a1268d14610a8f578063e985e9c514610abc578063ea13954414610b0557600080fd5b8063c87b56dd116100dc578063c87b56dd146109eb578063d1bfc2af14610a0b578063e08714a614610a38578063e14d026f14610a5857600080fd5b8063b88d4fde146109ab578063b97dd9e21461073e578063c7791531146109cb57600080fd5b8063a0d97fce1161016f578063a5e2912a11610149578063a5e2912a1461091b578063a8498c741461093b578063aa271e1a1461095b578063acb586df1461098b57600080fd5b8063a0d97fce146108bb578063a1d62680146108db578063a22cb465146108fb57600080fd5b8063859e7d32116101ab578063859e7d3214610786578063898aa1171461086d5780638da5cb5b1461088d57806395d89b41146108a657600080fd5b8063715018a614610736578063757991a81461073e578063817a29a41461075357600080fd5b806325692962116102ab578063438b63001161024957806354d1f13d1161022357806354d1f13d146106d95780635c1ef256146106e15780636352211e146106f657806370a082311461071657600080fd5b8063438b6300146106775780634f6ccce7146106a457806351dc7189146106c457600080fd5b80633fe9cfab116102855780633fe9cfab146105f757806340d097c314610617578063415273f51461063757806342842e0e1461065757600080fd5b806325692962146105a15780632f745c59146105a9578063356c8624146105c957600080fd5b80631bcd52ca11610318578063238ac933116102f2578063238ac9331461052c578063239ffa681461054c57806323b872dd14610561578063246b58a31461058157600080fd5b80631bcd52ca146104b0578063208c25a3146104df57806321b12c231461050c57600080fd5b8063081812fc11610354578063081812fc1461040a578063095ea7b31461042a578063150b7a021461044c57806318160ddd1461049157600080fd5b806301ffc9a71461037b57806306fdde03146103b057806307546172146103d2575b600080fd5b34801561038757600080fd5b5061039b610396366004614841565b610b9e565b60405190151581526020015b60405180910390f35b3480156103bc57600080fd5b506103c5610baf565b6040516103a791906148b5565b3480156103de57600080fd5b50600f546103f2906001600160a01b031681565b6040516001600160a01b0390911681526020016103a7565b34801561041657600080fd5b506103f26104253660046148c8565b610c41565b34801561043657600080fd5b5061044a610445366004614906565b610c68565b005b34801561045857600080fd5b50610478610467366004614932565b630a85bd0160e11b95945050505050565b6040516001600160e01b031990911681526020016103a7565b34801561049d57600080fd5b506008545b6040519081526020016103a7565b3480156104bc57600080fd5b506104d06104cb366004614b1d565b610d82565b6040516103a793929190614c33565b3480156104eb57600080fd5b506104ff6104fa3660046148c8565b610ece565b6040516103a79190614d00565b34801561051857600080fd5b506103c5610527366004614d0e565b610f74565b34801561053857600080fd5b506010546103f2906001600160a01b031681565b34801561055857600080fd5b5061044a6117bd565b34801561056d57600080fd5b5061044a61057c366004614d42565b611999565b34801561058d57600080fd5b506104d061059c366004614e18565b6119ca565b61044a611c28565b3480156105b557600080fd5b506104a26105c4366004614906565b611c77565b3480156105d557600080fd5b506105e96105e4366004614e18565b611d0d565b6040516103a7929190614e44565b34801561060357600080fd5b5061044a610612366004614e69565b611de0565b34801561062357600080fd5b506104a2610632366004614f79565b611ea0565b34801561064357600080fd5b5061044a610652366004614f96565b611f0d565b34801561066357600080fd5b5061044a610672366004614d42565b611fb3565b34801561068357600080fd5b50610697610692366004614f79565b611fce565b6040516103a79190614fc4565b3480156106b057600080fd5b506104a26106bf3660046148c8565b612065565b3480156106d057600080fd5b506105e96120f8565b61044a612218565b3480156106ed57600080fd5b506103c5612254565b34801561070257600080fd5b506103f26107113660046148c8565b612324565b34801561072257600080fd5b506104a2610731366004614f79565b612384565b61044a61240a565b34801561074a57600080fd5b50600b546104a2565b34801561075f57600080fd5b5061077361076e3660046148c8565b61241e565b6040516103a79796959493929190615008565b34801561079257600080fd5b506108246107a13660046148c8565b6040805160808082018352600080835260208084018290528385018290526060938401829052948152600c855283902083519182018452546001600160801b03811682526001600160401b03600160801b8204169482019490945260ff600160c01b85048116151593820193909352600160c81b90930490911615159082015290565b6040516103a7919081516001600160801b031681526020808301516001600160401b03169082015260408083015115159082015260609182015115159181019190915260800190565b34801561087957600080fd5b506103c5610888366004614d0e565b61268b565b34801561089957600080fd5b50638b78c6d819546103f2565b3480156108b257600080fd5b506103c56128dd565b3480156108c757600080fd5b506105e96108d6366004614b1d565b6128ec565b3480156108e757600080fd5b506103c56108f63660046148c8565b6129ff565b34801561090757600080fd5b5061044a610916366004615085565b612ecf565b34801561092757600080fd5b506103c56109363660046148c8565b612ede565b34801561094757600080fd5b506103c56109563660046148c8565b612f3a565b34801561096757600080fd5b5061039b610976366004614f79565b60126020526000908152604090205460ff1681565b34801561099757600080fd5b506104ff6109a63660046148c8565b612ff2565b3480156109b757600080fd5b5061044a6109c63660046150be565b61316f565b3480156109d757600080fd5b506103c56109e63660046148c8565b6131a7565b3480156109f757600080fd5b506103c5610a063660046148c8565b613201565b348015610a1757600080fd5b50610a2b610a263660046148c8565b613242565b6040516103a79190615129565b348015610a4457600080fd5b506105e9610a533660046151de565b61351a565b348015610a6457600080fd5b50600b546104a29081565b348015610a7b57600080fd5b5061044a610a8a36600461524a565b6135a5565b348015610a9b57600080fd5b50610aaf610aaa3660046148c8565b6135c6565b6040516103a791906152ad565b348015610ac857600080fd5b5061039b610ad73660046152bb565b6001600160a01b03918216600090815260056020908152604080832093909416825291909152205460ff1690565b348015610b1157600080fd5b50610a2b610b203660046148c8565b61389e565b61044a610b33366004614f79565b613b64565b348015610b4457600080fd5b506104d0610b533660046152e9565b613ba1565b61044a610b66366004614f79565b613c5b565b348015610b7757600080fd5b506104a2610b86366004614f79565b63389a75e1600c908152600091909152602090205490565b6000610ba982613c82565b92915050565b606060008054610bbe9061536e565b80601f0160208091040260200160405190810160405280929190818152602001828054610bea9061536e565b8015610c375780601f10610c0c57610100808354040283529160200191610c37565b820191906000526020600020905b815481529060010190602001808311610c1a57829003601f168201915b5050505050905090565b6000610c4c82613ca7565b506000908152600460205260409020546001600160a01b031690565b6000610c7382612324565b9050806001600160a01b0316836001600160a01b031603610ce55760405162461bcd60e51b815260206004820152602160248201527f4552433732313a20617070726f76616c20746f2063757272656e74206f776e656044820152603960f91b60648201526084015b60405180910390fd5b336001600160a01b0382161480610d015750610d018133610ad7565b610d735760405162461bcd60e51b815260206004820152603e60248201527f4552433732313a20617070726f76652063616c6c6572206973206e6f7420746f60448201527f6b656e206f776e6572206e6f7220617070726f76656420666f7220616c6c00006064820152608401610cdc565b610d7d8383613d06565b505050565b6060806060836101400151610dd7576040518060200160405280600081525060405180602001604052806000815250604051806040016040528060028152602001617b7d60f01b815250925092509250610ec7565b60c084015115610dfa57610df18460c00151848385613ba1565b91945090925090505b60a084015115610e1d57610e148460a00151848385613ba1565b91945090925090505b608084015115610e4057610e378460800151848385613ba1565b91945090925090505b604084015115610e6357610e5a8460400151848385613ba1565b91945090925090505b602084015115610e8657610e7d8460200151848385613ba1565b91945090925090505b835115610ea4578351610e9b90848385613ba1565b91945090925090505b606084015115610ec757610ebe8460600151848385613ba1565b91945090925090505b9193909250565b610ed661478d565b6000828152600a6020908152604091829020825160e08101845281548152600182015492810192909252600281015460ff9081161515938301939093526003810154606083015260048101546001600160a01b03166080830152600581015460a08301526006808201549293919260c08501921690811115610f5a57610f5a614c76565b6006811115610f6b57610f6b614c76565b90525092915050565b60606000604051806102000160405280604051806040016040528060018152602001600360fc1b8152508152602001604051806040016040528060018152602001603160f81b8152508152602001604051806040016040528060018152602001601960f91b8152508152602001604051806040016040528060018152602001603360f81b8152508152602001604051806040016040528060018152602001600d60fa1b8152508152602001604051806040016040528060018152602001603560f81b8152508152602001604051806040016040528060018152602001601b60f91b8152508152602001604051806040016040528060018152602001603760f81b8152508152602001604051806040016040528060018152602001600760fb1b8152508152602001604051806040016040528060018152602001603960f81b8152508152602001604051806040016040528060018152602001606160f81b8152508152602001604051806040016040528060018152602001603160f91b8152508152602001604051806040016040528060018152602001606360f81b8152508152602001604051806040016040528060018152602001601960fa1b8152508152602001604051806040016040528060018152602001606560f81b8152508152602001604051806040016040528060018152602001603360f91b81525081525090506000604051806103c00160405280604051806040016040528060018152602001600360fc1b8152508152602001604051806040016040528060018152602001603160f81b8152508152602001604051806040016040528060018152602001601960f91b8152508152602001604051806040016040528060018152602001603360f81b8152508152602001604051806040016040528060018152602001600d60fa1b8152508152602001604051806040016040528060018152602001603560f81b8152508152602001604051806040016040528060018152602001601b60f91b8152508152602001604051806040016040528060018152602001603760f81b8152508152602001604051806040016040528060018152602001600760fb1b8152508152602001604051806040016040528060018152602001603960f81b815250815260200160405180604001604052806002815260200161031360f41b815250815260200160405180604001604052806002815260200161313160f01b815250815260200160405180604001604052806002815260200161189960f11b815250815260200160405180604001604052806002815260200161313360f01b8152508152602001604051806040016040528060028152602001610c4d60f21b815250815260200160405180604001604052806002815260200161313560f01b815250815260200160405180604001604052806002815260200161189b60f11b815250815260200160405180604001604052806002815260200161313760f01b815250815260200160405180604001604052806002815260200161062760f31b815250815260200160405180604001604052806002815260200161313960f01b815250815260200160405180604001604052806002815260200161032360f41b815250815260200160405180604001604052806002815260200161323160f01b815250815260200160405180604001604052806002815260200161191960f11b815250815260200160405180604001604052806002815260200161323360f01b8152508152602001604051806040016040528060028152602001610c8d60f21b815250815260200160405180604001604052806002815260200161323560f01b815250815260200160405180604001604052806002815260200161191b60f11b815250815260200160405180604001604052806002815260200161323760f01b815250815260200160405180604001604052806002815260200161064760f31b815250815260200160405180604001604052806002815260200161323960f01b815250815250905060005b6111948110156117b557600060f81b85828151811061155c5761155c6153a2565b01602001516001600160f81b03191611156117a3576000601e6115806005846153e4565b61158a91906153f8565b90506000601e61159b6005856153e4565b6115a591906153e4565b90506000856004896115b887600261540c565b815181106115c8576115c86153a2565b016020015160f81c901c60ff16601081106115e5576115e56153a2565b602002015186896115f787600261540c565b81518110611607576116076153a2565b60209101015160f81c600f1660108110611623576116236153a2565b60200201518760048b61163789600361540c565b81518110611647576116476153a2565b016020015160f81c901c60ff1660108110611664576116646153a2565b6020020151888b61167689600361540c565b81518110611686576116866153a2565b60209101015160f81c600f16601081106116a2576116a26153a2565b60200201518960048d6116b58b8361540c565b815181106116c5576116c56153a2565b016020015160f81c901c60ff16601081106116e2576116e26153a2565b60200201518a8d6116f48b600461540c565b81518110611704576117046153a2565b60209101015160f81c600f1660108110611720576117206153a2565b602002015160405160200161173a9695949392919061541f565b6040516020818303038152906040529050868584601e811061175e5761175e6153a2565b60200201518684601e8110611775576117756153a2565b60200201518360405160200161178e949392919061549e565b60405160208183030381529060405296505050505b6117ae60058261540c565b905061153b565b505050919050565b600b546000908152600c602052604090208054600160c01b900460ff16158061181557508054600160c81b900460ff16158015611815575061180161010043615558565b8154600160801b90046001600160401b0316105b156118605761182543603261540c565b815460ff60c01b196001600160401b0392909216600160801b029190911668ffffffffffffffffff60801b1990911617600160c01b17815550565b8054600160801b90046001600160401b031643111561199657805460408051600160801b9092046001600160401b031640602083015244908201526001600160801b03906060016040516020818303038152906040528051906020012060001c6118ca91906153f8565b8154600160c81b6001600160801b039290921679ff000000000000000000ffffffffffffffffffffffffffffffff199091161717808255600b54604051600160801b9092046001600160401b0316917f78611aecfda8d341359c248df527c95aef93d446c92bb928b2a81b7abcb1d8d990600090a3604080516000815260001960208201527f6bd5c950a8d8df17f772f5af37cb3655737899cbf903264b9795592da439661c910160405180910390a1600b805460009061198a9061556b565b909155506119966117bd565b50565b6119a33382613d74565b6119bf5760405162461bcd60e51b8152600401610cdc90615584565b610d7d838383613df3565b6060806060846040015180156119e05750600084115b15611bcb5760a08501805160009081526011602052604090209051611a0490612ede565b60028201546040516301be83d160e11b8152919550611b209173__$4987fe9f4e800c5c4c1535f64ed232842a$__9163037d07a291611a499160ff16906004016152ad565b600060405180830381865af4158015611a66573d6000803e3d6000fd5b505050506040513d6000823e601f3d908101601f19168201604052611a8e91908101906155d2565b826001018054611a9d9061536e565b80601f0160208091040260200160405190810160405280929190818152602001828054611ac99061536e565b8015611b165780601f10611aeb57610100808354040283529160200191611b16565b820191906000526020600020905b815481529060010190602001808311611af957829003601f168201915b5050505050613f9a565b60a08701516000908152601160205260409020600501805491935090611b459061536e565b80601f0160208091040260200160405190810160405280929190818152602001828054611b719061536e565b8015611bbe5780601f10611b9357610100808354040283529160200191611bbe565b820191906000526020600020905b815481529060010190602001808311611ba157829003601f168201915b5050505050925050611c21565b6040518060400160405280600b81526020016a1e39bb339f1e17b9bb339f60a91b8152509250604051806040016040528060028152602001617b7d60f01b81525090506040518060200160405280600081525091505b9250925092565b60006202a3006001600160401b03164201905063389a75e1600c5233600052806020600c2055337fdbf36a107da19e49527a7176a1babf963b4b0ff8cde35ee35d6cd8f1f9ac7e1d600080a250565b6000611c8283612384565b8210611ce45760405162461bcd60e51b815260206004820152602b60248201527f455243373231456e756d657261626c653a206f776e657220696e646578206f7560448201526a74206f6620626f756e647360a81b6064820152608401610cdc565b506001600160a01b03919091166000908152600660209081526040808320938352929052205490565b60608083604001518015611d215750600083115b15611d955760a084015160009081526011602052604090819020600281015491516301be83d160e11b81529091611d7e9173__$4987fe9f4e800c5c4c1535f64ed232842a$__9163037d07a291611a499160ff16906004016152ad565b9150611d8d8560a00151612ede565b925050611dd9565b604051806040016040528060028152602001617b7d60f01b81525090506040518060400160405280600b81526020016a1e39bb339f1e17b9bb339f60a91b81525091505b9250929050565b600082815260116020908152604090912082518155908201518291906001820190611e0b908261568f565b50604082015160028201805460ff19166001836006811115611e2f57611e2f614c76565b021790555060608201516003820190611e48908261568f565b5060808201516004820190611e5d908261568f565b5060a08201516005820190611e72908261568f565b5060c09190910151600690910180546001600160a01b0319166001600160a01b039092169190911790555050565b6000611eaa6117bd565b6000611eb560085490565b611ec090600161540c565b9050611ecc8382613fc6565b604080516000815260001960208201527f6bd5c950a8d8df17f772f5af37cb3655737899cbf903264b9795592da439661c910160405180910390a192915050565b6000828152600a602090815260409182902083518155908301516001808301919091559183015160028201805491151560ff199283161790556060840151600383015560808401516004830180546001600160a01b039092166001600160a01b031990921691909117905560a0840151600583015560c0840151600680840180548796939491939116918490811115611fa857611fa8614c76565b021790555050505050565b610d7d8383836040518060200160405280600081525061316f565b60606000611fdb83612384565b90506000816001600160401b03811115611ff757611ff76149d0565b604051908082528060200260200182016040528015612020578160200160208202803683370190505b50905060005b8281101561205d576120388582611c77565b82828151811061204a5761204a6153a2565b6020908102919091010152600101612026565b509392505050565b600061207060085490565b82106120d35760405162461bcd60e51b815260206004820152602c60248201527f455243373231456e756d657261626c653a20676c6f62616c20696e646578206f60448201526b7574206f6620626f756e647360a01b6064820152608401610cdc565b600882815481106120e6576120e66153a2565b90600052602060002001549050919050565b600d805481906121079061536e565b80601f01602080910402602001604051908101604052809291908181526020018280546121339061536e565b80156121805780601f1061215557610100808354040283529160200191612180565b820191906000526020600020905b81548152906001019060200180831161216357829003601f168201915b5050505050908060010180546121959061536e565b80601f01602080910402602001604051908101604052809291908181526020018280546121c19061536e565b801561220e5780601f106121e35761010080835404028352916020019161220e565b820191906000526020600020905b8154815290600101906020018083116121f157829003601f168201915b5050505050905082565b63389a75e1600c523360005260006020600c2055337ffa7b8eab7da67f412cc9575ed43464468f9bfbae89d1675917346ca6d8fe3c92600080a2565b606060006122ee600d600001805461226b9061536e565b80601f01602080910402602001604051908101604052809291908181526020018280546122979061536e565b80156122e45780601f106122b9576101008083540402835291602001916122e4565b820191906000526020600020905b8154815290600101906020018083116122c757829003601f168201915b505050505061268b565b905060006122fb82610f74565b90508060405160200161230e919061574e565b6040516020818303038152906040529250505090565b6000818152600260205260408120546001600160a01b031680610ba95760405162461bcd60e51b8152602060048201526018602482015277115490cdcc8c4e881a5b9d985b1a59081d1bdad95b88125160421b6044820152606401610cdc565b60006001600160a01b0382166123ee5760405162461bcd60e51b815260206004820152602960248201527f4552433732313a2061646472657373207a65726f206973206e6f7420612076616044820152683634b21037bbb732b960b91b6064820152608401610cdc565b506001600160a01b031660009081526003602052604090205490565b612412613fe0565b61241c6000613ffb565b565b601160205260009081526040902080546001820180549192916124409061536e565b80601f016020809104026020016040519081016040528092919081815260200182805461246c9061536e565b80156124b95780601f1061248e576101008083540402835291602001916124b9565b820191906000526020600020905b81548152906001019060200180831161249c57829003601f168201915b5050506002840154600385018054949560ff9092169491935091506124dd9061536e565b80601f01602080910402602001604051908101604052809291908181526020018280546125099061536e565b80156125565780601f1061252b57610100808354040283529160200191612556565b820191906000526020600020905b81548152906001019060200180831161253957829003601f168201915b50505050509080600401805461256b9061536e565b80601f01602080910402602001604051908101604052809291908181526020018280546125979061536e565b80156125e45780601f106125b9576101008083540402835291602001916125e4565b820191906000526020600020905b8154815290600101906020018083116125c757829003601f168201915b5050505050908060050180546125f99061536e565b80601f01602080910402602001604051908101604052809291908181526020018280546126259061536e565b80156126725780601f1061264757610100808354040283529160200191612672565b820191906000526020600020905b81548152906001019060200180831161265557829003601f168201915b505050600690930154919250506001600160a01b031687565b8051604080516111948082526111c08201909252606092916000919060208201818036833701905050905060006126c36005846153e4565b905060005b818110156128d35760006126dd8260056157b8565b905060008782815181106126f3576126f36153a2565b016020015160f81c905060008861270b84600161540c565b8151811061271b5761271b6153a2565b016020015160f81c9050600060ff831661273683601e6157b8565b612740919061540c565b61274b9060056157b8565b905089848151811061275f5761275f6153a2565b602001015160f81c60f81b87828151811061277c5761277c6153a2565b60200101906001600160f81b031916908160001a9053508984600101815181106127a8576127a86153a2565b602001015160f81c60f81b8782600101815181106127c8576127c86153a2565b60200101906001600160f81b031916908160001a9053508984600201815181106127f4576127f46153a2565b602001015160f81c60f81b878260020181518110612814576128146153a2565b60200101906001600160f81b031916908160001a905350898460030181518110612840576128406153a2565b602001015160f81c60f81b878260030181518110612860576128606153a2565b60200101906001600160f81b031916908160001a90535089846004018151811061288c5761288c6153a2565b602001015160f81c60f81b8782600401815181106128ac576128ac6153a2565b60200101906001600160f81b031916908160001a90535050600190930192506126c8915050565b5090949350505050565b606060018054610bbe9061536e565b606080826101400151612926575050604080516020808201835260008252825180840190935260028352617b7d60f01b9083015292909150565b60c0830151156129455761293f8360c00151838361351a565b90925090505b60a0830151156129645761295e8360a00151838361351a565b90925090505b6080830151156129835761297d8360800151838361351a565b90925090505b6040830151156129a25761299c8360400151838361351a565b90925090505b6020830151156129c1576129bb8360200151838361351a565b90925090505b8251156129db5782516129d590838361351a565b90925090505b6060830151156129fa576129f48360600151838361351a565b90925090505b915091565b6060806060806000612a0f612254565b90506000612a1c87612ff2565b9050806040015115612dad576000601160008360a0015181526020019081526020016000206040518060e001604052908160008201548152602001600182018054612a669061536e565b80601f0160208091040260200160405190810160405280929190818152602001828054612a929061536e565b8015612adf5780601f10612ab457610100808354040283529160200191612adf565b820191906000526020600020905b815481529060010190602001808311612ac257829003601f168201915b5050509183525050600282015460209091019060ff166006811115612b0657612b06614c76565b6006811115612b1757612b17614c76565b8152602001600382018054612b2b9061536e565b80601f0160208091040260200160405190810160405280929190818152602001828054612b579061536e565b8015612ba45780601f10612b7957610100808354040283529160200191612ba4565b820191906000526020600020905b815481529060010190602001808311612b8757829003601f168201915b50505050508152602001600482018054612bbd9061536e565b80601f0160208091040260200160405190810160405280929190818152602001828054612be99061536e565b8015612c365780601f10612c0b57610100808354040283529160200191612c36565b820191906000526020600020905b815481529060010190602001808311612c1957829003601f168201915b50505050508152602001600582018054612c4f9061536e565b80601f0160208091040260200160405190810160405280929190818152602001828054612c7b9061536e565b8015612cc85780601f10612c9d57610100808354040283529160200191612cc8565b820191906000526020600020905b815481529060010190602001808311612cab57829003601f168201915b5050509183525050600691909101546001600160a01b031660209091015260a0830151909150612cf790612ede565b9450612d8673__$4987fe9f4e800c5c4c1535f64ed232842a$__63037d07a28460c001516040518263ffffffff1660e01b8152600401612d3791906152ad565b600060405180830381865af4158015612d54573d6000803e3d6000fd5b505050506040513d6000823e601f3d908101601f19168201604052612d7c91908101906155d2565b8260200151613f9a565b604051602001612d9691906157cf565b604051602081830303815290604052935050612dfe565b6040518060400160405280600f81526020016e2261747472696275746573223a5b5d60881b81525092506040518060400160405280600b81526020016a1e39bb339f1e17b9bb339f60a91b81525093505b60405180610100016040528060d28152602001615c4660d291398285604051602001612e2c93929190615811565b60405160208183030381529060405294506000612e4886614039565b604051602001612e589190615865565b60405160208183030381529060405290506000612e7489614047565b8583604051602001612e88939291906158c1565b6040516020818303038152906040529050612ea281614039565b604051602001612eb2919061597c565b604051602081830303815290604052975050505050505050919050565b612eda33838361408b565b5050565b6000818152601160205260408120600401805460609291612f029161226b9061536e565b90506000612f0f82610f74565b905080604051602001612f2291906159c1565b60405160208183030381529060405292505050919050565b60606000612f4783612ff2565b60a08101516000908152601160205260409020600501805491925090612f6c9061536e565b80601f0160208091040260200160405190810160405280929190818152602001828054612f989061536e565b8015612fe55780601f10612fba57610100808354040283529160200191612fe5565b820191906000526020600020905b815481529060010190602001808311612fc857829003601f168201915b5050505050915050919050565b612ffa61478d565b6000828152600a60209081526040808320815160e08101835281548152600182015493810193909352600281015460ff9081161515928401929092526003810154606084015260048101546001600160a01b03166080840152600581015460a0840152600680820154919260c0850192169081111561307b5761307b614c76565b600681111561308c5761308c614c76565b9052506020808201516000908152600c909152604090205460808201519192506001600160801b0316906001600160a01b0381161580156130cf57506060830151155b156130f05760405163082d451d60e01b815260048101869052602401610cdc565b6013546040516355a1333960e11b81526001600160a01b0383169163ab426672916131259160ff169087908790600401615a06565b60e060405180830381865afa158015613142573d6000803e3d6000fd5b505050506040513d601f19601f820116820180604052508101906131669190615a35565b95945050505050565b6131793383613d74565b6131955760405162461bcd60e51b8152600401610cdc90615584565b6131a184848484614159565b50505050565b606060006131b483612ff2565b90508060400151156131d4576131cd8160a00151612ede565b91506131fb565b6040518060400160405280600b81526020016a1e39bb339f1e17b9bb339f60a91b81525091505b50919050565b6000818152600260205260409020546060906001600160a01b031661323957604051632df0e24560e21b815260040160405180910390fd5b610ba9826129ff565b61324a6147e5565b600061325583612ff2565b9050601160008260a0015181526020019081526020016000206040518060e0016040529081600082015481526020016001820180546132939061536e565b80601f01602080910402602001604051908101604052809291908181526020018280546132bf9061536e565b801561330c5780601f106132e15761010080835404028352916020019161330c565b820191906000526020600020905b8154815290600101906020018083116132ef57829003601f168201915b5050509183525050600282015460209091019060ff16600681111561333357613333614c76565b600681111561334457613344614c76565b81526020016003820180546133589061536e565b80601f01602080910402602001604051908101604052809291908181526020018280546133849061536e565b80156133d15780601f106133a6576101008083540402835291602001916133d1565b820191906000526020600020905b8154815290600101906020018083116133b457829003601f168201915b505050505081526020016004820180546133ea9061536e565b80601f01602080910402602001604051908101604052809291908181526020018280546134169061536e565b80156134635780601f1061343857610100808354040283529160200191613463565b820191906000526020600020905b81548152906001019060200180831161344657829003601f168201915b5050505050815260200160058201805461347c9061536e565b80601f01602080910402602001604051908101604052809291908181526020018280546134a89061536e565b80156134f55780601f106134ca576101008083540402835291602001916134f5565b820191906000526020600020905b8154815290600101906020018083116134d857829003601f168201915b5050509183525050600691909101546001600160a01b03166020909101529392505050565b606080606080600061352b88612ff2565b90506135378189611d0d565b87519094509092506000036135515781945082935061359a565b8682604051602001613564929190615ab1565b60405160208183030381529060405294508583604051602001613588929190615ae0565b60405160208183030381529060405293505b505050935093915050565b6135ad613fe0565b600d6135b9838261568f565b50600e610d7d828261568f565b6000806135d283612ff2565b90506000601160008360a0015181526020019081526020016000206040518060e0016040529081600082015481526020016001820180546136129061536e565b80601f016020809104026020016040519081016040528092919081815260200182805461363e9061536e565b801561368b5780601f106136605761010080835404028352916020019161368b565b820191906000526020600020905b81548152906001019060200180831161366e57829003601f168201915b5050509183525050600282015460209091019060ff1660068111156136b2576136b2614c76565b60068111156136c3576136c3614c76565b81526020016003820180546136d79061536e565b80601f01602080910402602001604051908101604052809291908181526020018280546137039061536e565b80156137505780601f1061372557610100808354040283529160200191613750565b820191906000526020600020905b81548152906001019060200180831161373357829003601f168201915b505050505081526020016004820180546137699061536e565b80601f01602080910402602001604051908101604052809291908181526020018280546137959061536e565b80156137e25780601f106137b7576101008083540402835291602001916137e2565b820191906000526020600020905b8154815290600101906020018083116137c557829003601f168201915b505050505081526020016005820180546137fb9061536e565b80601f01602080910402602001604051908101604052809291908181526020018280546138279061536e565b80156138745780601f1061384957610100808354040283529160200191613874565b820191906000526020600020905b81548152906001019060200180831161385757829003601f168201915b5050509183525050600691909101546001600160a01b031660209091015260400151949350505050565b6138a66147e5565b601160008381526020019081526020016000206040518060e0016040529081600082015481526020016001820180546138de9061536e565b80601f016020809104026020016040519081016040528092919081815260200182805461390a9061536e565b80156139575780601f1061392c57610100808354040283529160200191613957565b820191906000526020600020905b81548152906001019060200180831161393a57829003601f168201915b5050509183525050600282015460209091019060ff16600681111561397e5761397e614c76565b600681111561398f5761398f614c76565b81526020016003820180546139a39061536e565b80601f01602080910402602001604051908101604052809291908181526020018280546139cf9061536e565b8015613a1c5780601f106139f157610100808354040283529160200191613a1c565b820191906000526020600020905b8154815290600101906020018083116139ff57829003601f168201915b50505050508152602001600482018054613a359061536e565b80601f0160208091040260200160405190810160405280929190818152602001828054613a619061536e565b8015613aae5780601f10613a8357610100808354040283529160200191613aae565b820191906000526020600020905b815481529060010190602001808311613a9157829003601f168201915b50505050508152602001600582018054613ac79061536e565b80601f0160208091040260200160405190810160405280929190818152602001828054613af39061536e565b8015613b405780601f10613b1557610100808354040283529160200191613b40565b820191906000526020600020905b815481529060010190602001808311613b2357829003601f168201915b5050509183525050600691909101546001600160a01b031660209091015292915050565b613b6c613fe0565b63389a75e1600c52806000526020600c208054421115613b9457636f5e88186000526004601cfd5b6000905561199681613ffb565b6060806060806060806000613bb58b612ff2565b9050613bc1818c6119ca565b8b519096509194509250600003613be057829650839550819450613c4d565b8983604051602001613bf3929190615ab1565b60405160208183030381529060405296508884604051602001613c17929190615ae0565b60405160208183030381529060405295508782604051602001613c3b929190615ab1565b60405160208183030381529060405294505b505050509450945094915050565b613c63613fe0565b8060601b613c7957637448fbae6000526004601cfd5b61199681613ffb565b60006001600160e01b0319821663780e9d6360e01b1480610ba95750610ba98261418c565b6000818152600260205260409020546001600160a01b03166119965760405162461bcd60e51b8152602060048201526018602482015277115490cdcc8c4e881a5b9d985b1a59081d1bdad95b88125160421b6044820152606401610cdc565b600081815260046020526040902080546001600160a01b0319166001600160a01b0384169081179091558190613d3b82612324565b6001600160a01b03167f8c5be1e5ebec7d5bd14f71427d1e84f3dd0314c0f7b2291e5b200ac8c7c3b92560405160405180910390a45050565b600080613d8083612324565b9050806001600160a01b0316846001600160a01b03161480613dc757506001600160a01b0380821660009081526005602090815260408083209388168352929052205460ff165b80613deb5750836001600160a01b0316613de084610c41565b6001600160a01b0316145b949350505050565b826001600160a01b0316613e0682612324565b6001600160a01b031614613e6a5760405162461bcd60e51b815260206004820152602560248201527f4552433732313a207472616e736665722066726f6d20696e636f72726563742060448201526437bbb732b960d91b6064820152608401610cdc565b6001600160a01b038216613ecc5760405162461bcd60e51b8152602060048201526024808201527f4552433732313a207472616e7366657220746f20746865207a65726f206164646044820152637265737360e01b6064820152608401610cdc565b613ed78383836141dc565b613ee2600082613d06565b6001600160a01b0383166000908152600360205260408120805460019290613f0b908490615558565b90915550506001600160a01b0382166000908152600360205260408120805460019290613f3990849061540c565b909155505060008181526002602052604080822080546001600160a01b0319166001600160a01b0386811691821790925591518493918716917fddf252ad1be2c89b69c2b068fc378daa952ba7f163c4a11628f55a4df523b3ef91a4505050565b60608282604051602001613faf929190615b1c565b604051602081830303815290604052905092915050565b612eda828260405180602001604052806000815250614294565b638b78c6d81954331461241c576382b429006000526004601cfd5b638b78c6d81980546001600160a01b039092169182907f8be0079c531659141344cd1fd0a4f28419497f9722a3daafe3b4186f6b6457e0600080a355565b6060610ba9826000806142c7565b60606080604051019050602081016040526000815280600019835b928101926030600a8206018453600a900480614062575050819003601f19909101908152919050565b816001600160a01b0316836001600160a01b0316036140ec5760405162461bcd60e51b815260206004820152601960248201527f4552433732313a20617070726f766520746f2063616c6c6572000000000000006044820152606401610cdc565b6001600160a01b03838116600081815260056020908152604080832094871680845294825291829020805460ff191686151590811790915591519182527f17307eab39ab6107e8899845ad3d59bd9653f200f220920489ca2b5937696c31910160405180910390a3505050565b614164848484613df3565b614170848484846143ae565b6131a15760405162461bcd60e51b8152600401610cdc90615b8d565b60006001600160e01b031982166380ac58cd60e01b14806141bd57506001600160e01b03198216635b5e139f60e01b145b80610ba957506301ffc9a760e01b6001600160e01b0319831614610ba9565b6001600160a01b0383166142375761423281600880546000838152600960205260408120829055600182018355919091527ff3f7a9fe364faab93b216da50a3214154f22a0a2b415b23a84c8169e8b636ee30155565b61425a565b816001600160a01b0316836001600160a01b03161461425a5761425a83826144af565b6001600160a01b03821661427157610d7d8161454c565b826001600160a01b0316826001600160a01b031614610d7d57610d7d82826145fb565b61429e838361463f565b6142ab60008484846143ae565b610d7d5760405162461bcd60e51b8152600401610cdc90615b8d565b60608351801561205d576003600282010460021b60405192507f4142434445464748494a4b4c4d4e4f505152535455565758595a616263646566601f526106708515027f6768696a6b6c6d6e6f707172737475767778797a303132333435363738392d5f18603f52602083018181015b6003880197508751603f8160121c1651600053603f81600c1c1651600153603f8160061c1651600253603f81165160035350600051825260048201915080821061433757602001604052613d3d60f01b60038406600204808303919091526000861515909102918290035290038252509392505050565b60006001600160a01b0384163b156144a457604051630a85bd0160e11b81526001600160a01b0385169063150b7a02906143f2903390899088908890600401615bdf565b6020604051808303816000875af192505050801561442d575060408051601f3d908101601f1916820190925261442a91810190615c12565b60015b61448a573d80801561445b576040519150601f19603f3d011682016040523d82523d6000602084013e614460565b606091505b5080516000036144825760405162461bcd60e51b8152600401610cdc90615b8d565b805181602001fd5b6001600160e01b031916630a85bd0160e11b149050613deb565b506001949350505050565b600060016144bc84612384565b6144c69190615558565b600083815260076020526040902054909150808214614519576001600160a01b03841660009081526006602090815260408083208584528252808320548484528184208190558352600790915290208190555b5060009182526007602090815260408084208490556001600160a01b039094168352600681528383209183525290812055565b60085460009061455e90600190615558565b60008381526009602052604081205460088054939450909284908110614586576145866153a2565b9060005260206000200154905080600883815481106145a7576145a76153a2565b60009182526020808320909101929092558281526009909152604080822084905585825281205560088054806145df576145df615c2f565b6001900381819060005260206000200160009055905550505050565b600061460683612384565b6001600160a01b039093166000908152600660209081526040808320868452825280832085905593825260079052919091209190915550565b6001600160a01b0382166146955760405162461bcd60e51b815260206004820181905260248201527f4552433732313a206d696e7420746f20746865207a65726f20616464726573736044820152606401610cdc565b6000818152600260205260409020546001600160a01b0316156146fa5760405162461bcd60e51b815260206004820152601c60248201527f4552433732313a20746f6b656e20616c7265616479206d696e746564000000006044820152606401610cdc565b614706600083836141dc565b6001600160a01b038216600090815260036020526040812080546001929061472f90849061540c565b909155505060008181526002602052604080822080546001600160a01b0319166001600160a01b03861690811790915590518392907fddf252ad1be2c89b69c2b068fc378daa952ba7f163c4a11628f55a4df523b3ef908290a45050565b6040518060e0016040528060008152602001600081526020016000151581526020016000815260200160006001600160a01b0316815260200160008152602001600060068111156147e0576147e0614c76565b905290565b6040805160e0810182526000808252606060208301529091820190815260200160608152602001606081526020016060815260200160006001600160a01b031681525090565b6001600160e01b03198116811461199657600080fd5b60006020828403121561485357600080fd5b813561485e8161482b565b9392505050565b60005b83811015614880578181015183820152602001614868565b50506000910152565b600081518084526148a1816020860160208601614865565b601f01601f19169290920160200192915050565b60208152600061485e6020830184614889565b6000602082840312156148da57600080fd5b5035919050565b6001600160a01b038116811461199657600080fd5b8035614901816148e1565b919050565b6000806040838503121561491957600080fd5b8235614924816148e1565b946020939093013593505050565b60008060008060006080868803121561494a57600080fd5b8535614955816148e1565b94506020860135614965816148e1565b93506040860135925060608601356001600160401b038082111561498857600080fd5b818801915088601f83011261499c57600080fd5b8135818111156149ab57600080fd5b8960208285010111156149bd57600080fd5b9699959850939650602001949392505050565b634e487b7160e01b600052604160045260246000fd5b6040516101c081016001600160401b0381118282101715614a0957614a096149d0565b60405290565b60405160e081016001600160401b0381118282101715614a0957614a096149d0565b604051601f8201601f191681016001600160401b0381118282101715614a5957614a596149d0565b604052919050565b803563ffffffff8116811461490157600080fd5b803561ffff8116811461490157600080fd5b801515811461199657600080fd5b803561490181614a87565b60006001600160401b03821115614ab957614ab96149d0565b50601f01601f191660200190565b600082601f830112614ad857600080fd5b8135614aeb614ae682614aa0565b614a31565b818152846020838601011115614b0057600080fd5b816020850160208301376000918101602001919091529392505050565b600060208284031215614b2f57600080fd5b81356001600160401b0380821115614b4657600080fd5b908301906101c08286031215614b5b57600080fd5b614b636149e6565b823581526020830135602082015260408301356040820152606083013560608201526080830135608082015260a083013560a082015260c083013560c0820152614baf60e08401614a61565b60e0820152610100614bc2818501614a75565b908201526101208381013590820152610140614bdf818501614a95565b9082015261016083810135908201526101808084013583811115614c0257600080fd5b614c0e88828701614ac7565b8284015250506101a09150614c24828401614a95565b91810191909152949350505050565b606081526000614c466060830186614889565b8281036020840152614c588186614889565b90508281036040840152614c6c8185614889565b9695505050505050565b634e487b7160e01b600052602160045260246000fd5b60078110614caa57634e487b7160e01b600052602160045260246000fd5b9052565b80518252602081015160208301526040810151151560408301526060810151606083015260018060a01b03608082015116608083015260a081015160a083015260c0810151610d7d60c0840182614c8c565b60e08101610ba98284614cae565b600060208284031215614d2057600080fd5b81356001600160401b03811115614d3657600080fd5b613deb84828501614ac7565b600080600060608486031215614d5757600080fd5b8335614d62816148e1565b92506020840135614d72816148e1565b929592945050506040919091013590565b6007811061199657600080fd5b803561490181614d83565b600060e08284031215614dad57600080fd5b614db5614a0f565b905081358152602082013560208201526040820135614dd381614a87565b6040820152606082810135908201526080820135614df0816148e1565b608082015260a0828101359082015260c0820135614e0d81614d83565b60c082015292915050565b6000806101008385031215614e2c57600080fd5b614e368484614d9b565b9460e0939093013593505050565b604081526000614e576040830185614889565b82810360208401526131668185614889565b60008060408385031215614e7c57600080fd5b8235915060208301356001600160401b0380821115614e9a57600080fd5b9084019060e08287031215614eae57600080fd5b614eb6614a0f565b82358152602083013582811115614ecc57600080fd5b614ed888828601614ac7565b602083015250614eea60408401614d90565b6040820152606083013582811115614f0157600080fd5b614f0d88828601614ac7565b606083015250608083013582811115614f2557600080fd5b614f3188828601614ac7565b60808301525060a083013582811115614f4957600080fd5b614f5588828601614ac7565b60a083015250614f6760c084016148f6565b60c08201528093505050509250929050565b600060208284031215614f8b57600080fd5b813561485e816148e1565b6000806101008385031215614faa57600080fd5b82359150614fbb8460208501614d9b565b90509250929050565b6020808252825182820181905260009190848201906040850190845b81811015614ffc57835183529284019291840191600101614fe0565b50909695505050505050565b87815260e06020820152600061502160e0830189614889565b61502e6040840189614c8c565b82810360608401526150408188614889565b905082810360808401526150548187614889565b905082810360a08401526150688186614889565b91505060018060a01b03831660c083015298975050505050505050565b6000806040838503121561509857600080fd5b82356150a3816148e1565b915060208301356150b381614a87565b809150509250929050565b600080600080608085870312156150d457600080fd5b84356150df816148e1565b935060208501356150ef816148e1565b92506040850135915060608501356001600160401b0381111561511157600080fd5b61511d87828801614ac7565b91505092959194509250565b60208152815160208201526000602083015160e06040840152615150610100840182614889565b905060408401516151646060850182614c8c565b506060840151601f19808584030160808601526151818383614889565b925060808601519150808584030160a086015261519e8383614889565b925060a08601519150808584030160c0860152506151bc8282614889565b60c095909501516001600160a01b031660e09490940193909352509192915050565b6000806000606084860312156151f357600080fd5b8335925060208401356001600160401b038082111561521157600080fd5b61521d87838801614ac7565b9350604086013591508082111561523357600080fd5b5061524086828701614ac7565b9150509250925092565b6000806040838503121561525d57600080fd5b82356001600160401b038082111561527457600080fd5b61528086838701614ac7565b9350602085013591508082111561529657600080fd5b506152a385828601614ac7565b9150509250929050565b60208101610ba98284614c8c565b600080604083850312156152ce57600080fd5b82356152d9816148e1565b915060208301356150b3816148e1565b600080600080608085870312156152ff57600080fd5b8435935060208501356001600160401b038082111561531d57600080fd5b61532988838901614ac7565b9450604087013591508082111561533f57600080fd5b61534b88838901614ac7565b9350606087013591508082111561536157600080fd5b5061511d87828801614ac7565b600181811c9082168061538257607f821691505b6020821081036131fb57634e487b7160e01b600052602260045260246000fd5b634e487b7160e01b600052603260045260246000fd5b634e487b7160e01b600052601260045260246000fd5b634e487b7160e01b600052601160045260246000fd5b6000826153f3576153f36153b8565b500490565b600082615407576154076153b8565b500690565b80820180821115610ba957610ba96153ce565b6000875160206154328285838d01614865565b8851918401916154458184848d01614865565b88519201916154578184848c01614865565b87519201916154698184848b01614865565b865192019161547b8184848a01614865565b855192019161548d8184848901614865565b919091019998505050505050505050565b600085516154b0818460208a01614865565b681e3932b1ba103c1e9160b91b90830190815285516154d6816009840160208a01614865565b6411103c9e9160d91b6009929091019182015284516154fc81600e840160208901614865565b7f222077696474683d223122206865696768743d2231222066696c6c3d22230000600e9290910191820152835161553a81602c840160208801614865565b6211179f60e91b602c9290910191820152602f019695505050505050565b81810381811115610ba957610ba96153ce565b60006001820161557d5761557d6153ce565b5060010190565b6020808252602e908201527f4552433732313a2063616c6c6572206973206e6f7420746f6b656e206f776e6560408201526d1c881b9bdc88185c1c1c9bdd995960921b606082015260800190565b6000602082840312156155e457600080fd5b81516001600160401b038111156155fa57600080fd5b8201601f8101841361560b57600080fd5b8051615619614ae682614aa0565b81815285602083850101111561562e57600080fd5b613166826020830160208601614865565b601f821115610d7d576000816000526020600020601f850160051c810160208610156156685750805b601f850160051c820191505b8181101561568757828155600101615674565b505050505050565b81516001600160401b038111156156a8576156a86149d0565b6156bc816156b6845461536e565b8461563f565b602080601f8311600181146156f157600084156156d95750858301515b600019600386901b1c1916600185901b178555615687565b600085815260208120601f198616915b8281101561572057888601518255948401946001909101908401615701565b508582101561573e5787850151600019600388901b60f8161c191681555b5050505050600190811b01905550565b7f3c672069643d2267686f73742220636c6173733d226722207374796c653d226f81526d3830b1b4ba3c9d101a98129d911f60911b60208201526000825161579d81602e850160208701614865565b631e17b39f60e11b602e939091019283015250603201919050565b8082028115828204841417610ba957610ba96153ce565b6d2261747472696275746573223a5b60901b815281516000906157f981600e850160208701614865565b605d60f81b600e939091019283015250600f01919050565b60008451615823818460208901614865565b845190830190615837818360208901614865565b845191019061584a818360208801614865565b651e17b9bb339f60d11b910190815260060195945050505050565b7f22696d616765223a22646174613a696d6167652f7376672b786d6c3b626173658152620d8d0b60ea1b6020820152600082516158a9816023850160208701614865565b601160f91b6023939091019283015250602401919050565b757b226e616d65223a225065746572205472616974202360501b815283516000906158f3816016850160208901614865565b7f222c226465736372697074696f6e223a2254686973206973206a757374206120601691840191820152651d195cdd088b60d21b6036820152845161593f81603c840160208901614865565b600b60fa1b603c9290910191820152835161596181603d840160208801614865565b607d60f81b603d9290910191820152603e0195945050505050565b7f646174613a6170706c69636174696f6e2f6a736f6e3b6261736536342c0000008152600082516159b481601d850160208701614865565b91909101601d0192915050565b6d1e339034b21e912a3930b4ba111f60911b815281516000906159eb81600e850160208701614865565b631e17b39f60e11b600e939091019283015250601201919050565b83151581526101208101615a1d6020830185614cae565b6001600160801b038316610100830152949350505050565b600060e08284031215615a4757600080fd5b615a4f614a0f565b82518152602083015160208201526040830151615a6b81614a87565b6040820152606083810151908201526080830151615a88816148e1565b608082015260a0838101519082015260c0830151615aa581614d83565b60c08201529392505050565b60008351615ac3818460208801614865565b835190830190615ad7818360208801614865565b01949350505050565b60008351615af2818460208801614865565b600b60fa1b9083019081528351615b10816001840160208801614865565b01600101949350505050565b6e3d913a3930b4ba2fba3cb832911d1160891b81528251600090615b4781600f850160208801614865565b6a1116113b30b63ab2911d1160a91b600f918401918201528351615b7281601a840160208801614865565b61227d60f01b601a9290910191820152601c01949350505050565b60208082526032908201527f4552433732313a207472616e7366657220746f206e6f6e20455243373231526560408201527131b2b4bb32b91034b6b83632b6b2b73a32b960711b606082015260800190565b6001600160a01b0385811682528416602082015260408101839052608060608201819052600090614c6c90830184614889565b600060208284031215615c2457600080fd5b815161485e8161482b565b634e487b7160e01b600052603160045260246000fdfe3c7376672073686170652d72656e646572696e673d2263726973704564676573222076696577426f783d22302030203330203330222066696c6c3d226e6f6e652220786d6c6e733d22687474703a2f2f7777772e77332e6f72672f323030302f737667223e3c7374796c653e726563747b77696474683a3170783b206865696768743a203170783b7d202e62677b77696474683a333070783b206865696768743a20333070783b7d203c2f7374796c653e3c7265637420636c6173733d226267222066696c6c3d2223304436453944222f3ea2646970667358221220b8973f801a8b54ce6cc39b9cf8419f9d53b00a6f1176d4202fa23b99d3fddbfe64736f6c63430008160033","linkReferences":{"src/TraitCategory.sol":{"TraitCategory":[{"start":7368,"length":20},{"start":8189,"length":20},{"start":12199,"length":20}]}}},"methodIdentifiers":{"approve(address,uint256)":"095ea7b3","balanceOf(address)":"70a08231","callGetSVGZmapAndMetadataTrait(uint256,string,string,bytes)":"f1271942","callGetSvgAndMetadataTrait(uint256,string,string)":"e08714a6","cancelOwnershipHandover()":"54d1f13d","completeOwnershipHandover(address)":"f04e283e","createSvgFromPixels(bytes)":"21b12c23","getApproved(uint256)":"081812fc","getCurrentEpoch()":"b97dd9e2","getEpoch()":"757991a8","getEpochData(uint256)":"859e7d32","getGhostSvg()":"5c1ef256","getSVGZmapAndMetadataTrait((uint256,uint256,bool,uint256,address,uint256,uint8),uint256)":"246b58a3","getStoredTraitForTokenId(uint256)":"208c25a3","getSvgAndMetadata((uint256,uint256,uint256,uint256,uint256,uint256,uint256,uint32,uint16,uint256,bool,uint256,string,bool))":"a0d97fce","getSvgAndMetadataTrait((uint256,uint256,bool,uint256,address,uint256,uint8),uint256)":"356c8624","getSvgForTokenId(uint256)":"c7791531","getSvgZmapsAndMetadata((uint256,uint256,uint256,uint256,uint256,uint256,uint256,uint32,uint16,uint256,bool,uint256,string,bool))":"1bcd52ca","getTrait(uint256)":"acb586df","getTraitImage(bytes)":"898aa117","getTraitImageSvg(uint256)":"a5e2912a","getTraitIndexToMetadata(uint256)":"ea139544","getTraitMetadata(uint256)":"d1bfc2af","getTraitType(uint256)":"e8a1268d","getZMapForTokenId(uint256)":"a8498c74","ghost()":"51dc7189","isApprovedForAll(address,address)":"e985e9c5","isMinter(address)":"aa271e1a","minter()":"07546172","name()":"06fdde03","onERC721Received(address,address,uint256,bytes)":"150b7a02","owner()":"8da5cb5b","ownerOf(uint256)":"6352211e","ownershipHandoverExpiresAt(address)":"fee81cf4","renderAsDataUri(uint256)":"a1d62680","renounceOwnership()":"715018a6","requestOwnershipHandover()":"25692962","resolveEpochIfNecessary()":"239ffa68","safeMint(address)":"40d097c3","safeTransferFrom(address,address,uint256)":"42842e0e","safeTransferFrom(address,address,uint256,bytes)":"b88d4fde","setApprovalForAll(address,bool)":"a22cb465","setGhostMaps(bytes,bytes)":"e1defed9","setTraitForTokenId(uint256,(uint256,uint256,bool,uint256,address,uint256,uint8))":"415273f5","setTraitIndexToMetadata(uint256,(uint256,string,uint8,string,bytes,bytes,address))":"3fe9cfab","signer()":"238ac933","supportsInterface(bytes4)":"01ffc9a7","symbol()":"95d89b41","tokenByIndex(uint256)":"4f6ccce7","tokenOfOwnerByIndex(address,uint256)":"2f745c59","tokenURI(uint256)":"c87b56dd","totalSupply()":"18160ddd","traitIndexToMetadata(uint256)":"817a29a4","traitTokens()":"e14d026f","transferFrom(address,address,uint256)":"23b872dd","transferOwnership(address)":"f2fde38b","walletOfOwner(address)":"438b6300"},"id":41}