{"abi":[{"type":"constructor","inputs":[{"name":"localDeploy_","type":"bool","internalType":"bool"}],"stateMutability":"nonpayable"},{"type":"function","name":"approve","inputs":[{"name":"to","type":"address","internalType":"address"},{"name":"tokenId","type":"uint256","internalType":"uint256"}],"outputs":[],"stateMutability":"nonpayable"},{"type":"function","name":"balanceOf","inputs":[{"name":"owner","type":"address","internalType":"address"}],"outputs":[{"name":"","type":"uint256","internalType":"uint256"}],"stateMutability":"view"},{"type":"function","name":"callGetSVGZmapAndMetadataTrait","inputs":[{"name":"_traitId","type":"uint256","internalType":"uint256"},{"name":"_traitsSvg","type":"string","internalType":"string"},{"name":"_traitsAttributes","type":"string","internalType":"string"},{"name":"_traitZMaps","type":"bytes","internalType":"bytes"}],"outputs":[{"name":"traitsSvg","type":"string","internalType":"string"},{"name":"traitsAttributes","type":"string","internalType":"string"},{"name":"traitZMaps","type":"bytes","internalType":"bytes"}],"stateMutability":"view"},{"type":"function","name":"callGetSvgAndMetadataTrait","inputs":[{"name":"_traitId","type":"uint256","internalType":"uint256"},{"name":"_traitsSvg","type":"string","internalType":"string"},{"name":"_traitsAttributes","type":"string","internalType":"string"}],"outputs":[{"name":"traitsSvg","type":"string","internalType":"string"},{"name":"traitsAttributes","type":"string","internalType":"string"}],"stateMutability":"view"},{"type":"function","name":"cancelOwnershipHandover","inputs":[],"outputs":[],"stateMutability":"payable"},{"type":"function","name":"completeOwnershipHandover","inputs":[{"name":"pendingOwner","type":"address","internalType":"address"}],"outputs":[],"stateMutability":"payable"},{"type":"function","name":"createSvgFromPixels","inputs":[{"name":"_pixels","type":"bytes","internalType":"bytes"}],"outputs":[{"name":"svgParts","type":"bytes","internalType":"bytes"}],"stateMutability":"pure"},{"type":"function","name":"getApproved","inputs":[{"name":"tokenId","type":"uint256","internalType":"uint256"}],"outputs":[{"name":"","type":"address","internalType":"address"}],"stateMutability":"view"},{"type":"function","name":"getCurrentEpoch","inputs":[],"outputs":[{"name":"","type":"uint256","internalType":"uint256"}],"stateMutability":"view"},{"type":"function","name":"getEpoch","inputs":[],"outputs":[{"name":"","type":"uint256","internalType":"uint256"}],"stateMutability":"view"},{"type":"function","name":"getEpochData","inputs":[{"name":"index","type":"uint256","internalType":"uint256"}],"outputs":[{"name":"","type":"tuple","internalType":"struct CommitReveal.Epoch","components":[{"name":"randomness","type":"uint128","internalType":"uint128"},{"name":"revealBlock","type":"uint64","internalType":"uint64"},{"name":"committed","type":"bool","internalType":"bool"},{"name":"revealed","type":"bool","internalType":"bool"}]}],"stateMutability":"view"},{"type":"function","name":"getGhostSvg","inputs":[],"outputs":[{"name":"svg","type":"string","internalType":"string"}],"stateMutability":"view"},{"type":"function","name":"getSVGZmapAndMetadataTrait","inputs":[{"name":"trait","type":"tuple","internalType":"struct ITraitStorage.StoredTrait","components":[{"name":"epoch","type":"uint256","internalType":"uint256"},{"name":"isRevealed","type":"bool","internalType":"bool"},{"name":"seed","type":"uint256","internalType":"uint256"},{"name":"renderMinterContract","type":"address","internalType":"address"},{"name":"traitIndex","type":"uint256","internalType":"uint256"},{"name":"traitType","type":"uint8","internalType":"enum TraitCategory.Name"}]},{"name":"traitId","type":"uint256","internalType":"uint256"}],"outputs":[{"name":"traitSvg","type":"string","internalType":"string"},{"name":"traitZmap","type":"bytes","internalType":"bytes"},{"name":"traitAttributes","type":"string","internalType":"string"}],"stateMutability":"view"},{"type":"function","name":"getStoredTraitForTokenId","inputs":[{"name":"_tokenId","type":"uint256","internalType":"uint256"}],"outputs":[{"name":"","type":"tuple","internalType":"struct ITraitStorage.StoredTrait","components":[{"name":"epoch","type":"uint256","internalType":"uint256"},{"name":"isRevealed","type":"bool","internalType":"bool"},{"name":"seed","type":"uint256","internalType":"uint256"},{"name":"renderMinterContract","type":"address","internalType":"address"},{"name":"traitIndex","type":"uint256","internalType":"uint256"},{"name":"traitType","type":"uint8","internalType":"enum TraitCategory.Name"}]}],"stateMutability":"view"},{"type":"function","name":"getSvgAndMetadata","inputs":[{"name":"storedPeter","type":"tuple","internalType":"struct IPeterStorage.StoredPeter","components":[{"name":"headId","type":"uint256","internalType":"uint256"},{"name":"hairId","type":"uint256","internalType":"uint256"},{"name":"faceId","type":"uint256","internalType":"uint256"},{"name":"accessoryId","type":"uint256","internalType":"uint256"},{"name":"topId","type":"uint256","internalType":"uint256"},{"name":"bottomId","type":"uint256","internalType":"uint256"},{"name":"shoesId","type":"uint256","internalType":"uint256"},{"name":"epoch","type":"uint32","internalType":"uint32"},{"name":"tokenId","type":"uint256","internalType":"uint256"},{"name":"bodyIndex","type":"uint8","internalType":"uint8"},{"name":"backgroundColor","type":"string","internalType":"string"},{"name":"renderZ","type":"bool","internalType":"bool"}]}],"outputs":[{"name":"traitsSvg","type":"string","internalType":"string"},{"name":"traitsAttributes","type":"string","internalType":"string"}],"stateMutability":"view"},{"type":"function","name":"getSvgAndMetadataTrait","inputs":[{"name":"trait","type":"tuple","internalType":"struct ITraitStorage.StoredTrait","components":[{"name":"epoch","type":"uint256","internalType":"uint256"},{"name":"isRevealed","type":"bool","internalType":"bool"},{"name":"seed","type":"uint256","internalType":"uint256"},{"name":"renderMinterContract","type":"address","internalType":"address"},{"name":"traitIndex","type":"uint256","internalType":"uint256"},{"name":"traitType","type":"uint8","internalType":"enum TraitCategory.Name"}]},{"name":"traitId","type":"uint256","internalType":"uint256"}],"outputs":[{"name":"traitSvg","type":"string","internalType":"string"},{"name":"traitAttributes","type":"string","internalType":"string"}],"stateMutability":"view"},{"type":"function","name":"getSvgForTokenId","inputs":[{"name":"_tokenId","type":"uint256","internalType":"uint256"}],"outputs":[{"name":"traitSvg","type":"string","internalType":"string"}],"stateMutability":"view"},{"type":"function","name":"getSvgZmapsAndMetadata","inputs":[{"name":"storedPeter","type":"tuple","internalType":"struct IPeterStorage.StoredPeter","components":[{"name":"headId","type":"uint256","internalType":"uint256"},{"name":"hairId","type":"uint256","internalType":"uint256"},{"name":"faceId","type":"uint256","internalType":"uint256"},{"name":"accessoryId","type":"uint256","internalType":"uint256"},{"name":"topId","type":"uint256","internalType":"uint256"},{"name":"bottomId","type":"uint256","internalType":"uint256"},{"name":"shoesId","type":"uint256","internalType":"uint256"},{"name":"epoch","type":"uint32","internalType":"uint32"},{"name":"tokenId","type":"uint256","internalType":"uint256"},{"name":"bodyIndex","type":"uint8","internalType":"uint8"},{"name":"backgroundColor","type":"string","internalType":"string"},{"name":"renderZ","type":"bool","internalType":"bool"}]}],"outputs":[{"name":"traitsSvg","type":"string","internalType":"string"},{"name":"traitZMaps","type":"bytes","internalType":"bytes"},{"name":"traitsAttributes","type":"string","internalType":"string"}],"stateMutability":"view"},{"type":"function","name":"getTrait","inputs":[{"name":"_tokenId","type":"uint256","internalType":"uint256"}],"outputs":[{"name":"","type":"tuple","internalType":"struct ITraitStorage.StoredTrait","components":[{"name":"epoch","type":"uint256","internalType":"uint256"},{"name":"isRevealed","type":"bool","internalType":"bool"},{"name":"seed","type":"uint256","internalType":"uint256"},{"name":"renderMinterContract","type":"address","internalType":"address"},{"name":"traitIndex","type":"uint256","internalType":"uint256"},{"name":"traitType","type":"uint8","internalType":"enum TraitCategory.Name"}]}],"stateMutability":"view"},{"type":"function","name":"getTraitImage","inputs":[{"name":"colorMap","type":"bytes","internalType":"bytes"}],"outputs":[{"name":"","type":"bytes","internalType":"bytes"}],"stateMutability":"pure"},{"type":"function","name":"getTraitImageSvg","inputs":[{"name":"index","type":"uint256","internalType":"uint256"}],"outputs":[{"name":"svg","type":"string","internalType":"string"}],"stateMutability":"view"},{"type":"function","name":"getTraitIndexToMetadata","inputs":[{"name":"_traitIndex","type":"uint256","internalType":"uint256"}],"outputs":[{"name":"","type":"tuple","internalType":"struct ITraitStorage.TraitMetadata","components":[{"name":"traitIndex","type":"uint256","internalType":"uint256"},{"name":"traitName","type":"string","internalType":"string"},{"name":"traitType","type":"uint8","internalType":"enum TraitCategory.Name"},{"name":"animations","type":"string","internalType":"string"},{"name":"colorMap","type":"bytes","internalType":"bytes"},{"name":"zMap","type":"bytes","internalType":"bytes"},{"name":"renderMinterContract","type":"address","internalType":"address"},{"name":"creatorAddress","type":"address","internalType":"address"},{"name":"creatorName","type":"string","internalType":"string"},{"name":"season","type":"string","internalType":"string"}]}],"stateMutability":"view"},{"type":"function","name":"getTraitMetadata","inputs":[{"name":"_tokenId","type":"uint256","internalType":"uint256"}],"outputs":[{"name":"","type":"tuple","internalType":"struct ITraitStorage.TraitMetadata","components":[{"name":"traitIndex","type":"uint256","internalType":"uint256"},{"name":"traitName","type":"string","internalType":"string"},{"name":"traitType","type":"uint8","internalType":"enum TraitCategory.Name"},{"name":"animations","type":"string","internalType":"string"},{"name":"colorMap","type":"bytes","internalType":"bytes"},{"name":"zMap","type":"bytes","internalType":"bytes"},{"name":"renderMinterContract","type":"address","internalType":"address"},{"name":"creatorAddress","type":"address","internalType":"address"},{"name":"creatorName","type":"string","internalType":"string"},{"name":"season","type":"string","internalType":"string"}]}],"stateMutability":"view"},{"type":"function","name":"getTraitType","inputs":[{"name":"_tokenId","type":"uint256","internalType":"uint256"}],"outputs":[{"name":"","type":"uint8","internalType":"enum TraitCategory.Name"}],"stateMutability":"view"},{"type":"function","name":"getZMapForTokenId","inputs":[{"name":"_tokenId","type":"uint256","internalType":"uint256"}],"outputs":[{"name":"","type":"string","internalType":"string"}],"stateMutability":"view"},{"type":"function","name":"ghost","inputs":[],"outputs":[{"name":"colorMap","type":"bytes","internalType":"bytes"},{"name":"zMap","type":"bytes","internalType":"bytes"}],"stateMutability":"view"},{"type":"function","name":"isApprovedForAll","inputs":[{"name":"owner","type":"address","internalType":"address"},{"name":"operator","type":"address","internalType":"address"}],"outputs":[{"name":"","type":"bool","internalType":"bool"}],"stateMutability":"view"},{"type":"function","name":"isMinter","inputs":[{"name":"","type":"address","internalType":"address"}],"outputs":[{"name":"","type":"bool","internalType":"bool"}],"stateMutability":"view"},{"type":"function","name":"marketplace","inputs":[],"outputs":[{"name":"","type":"address","internalType":"contract ChonksMarket"}],"stateMutability":"view"},{"type":"function","name":"minter","inputs":[],"outputs":[{"name":"","type":"address","internalType":"address"}],"stateMutability":"view"},{"type":"function","name":"name","inputs":[],"outputs":[{"name":"","type":"string","internalType":"string"}],"stateMutability":"view"},{"type":"function","name":"onERC721Received","inputs":[{"name":"","type":"address","internalType":"address"},{"name":"","type":"address","internalType":"address"},{"name":"","type":"uint256","internalType":"uint256"},{"name":"","type":"bytes","internalType":"bytes"}],"outputs":[{"name":"","type":"bytes4","internalType":"bytes4"}],"stateMutability":"pure"},{"type":"function","name":"owner","inputs":[],"outputs":[{"name":"result","type":"address","internalType":"address"}],"stateMutability":"view"},{"type":"function","name":"ownerOf","inputs":[{"name":"tokenId","type":"uint256","internalType":"uint256"}],"outputs":[{"name":"","type":"address","internalType":"address"}],"stateMutability":"view"},{"type":"function","name":"ownershipHandoverExpiresAt","inputs":[{"name":"pendingOwner","type":"address","internalType":"address"}],"outputs":[{"name":"result","type":"uint256","internalType":"uint256"}],"stateMutability":"view"},{"type":"function","name":"petersMain","inputs":[],"outputs":[{"name":"","type":"address","internalType":"contract PetersMain"}],"stateMutability":"view"},{"type":"function","name":"renderAsDataUri","inputs":[{"name":"_tokenId","type":"uint256","internalType":"uint256"}],"outputs":[{"name":"","type":"string","internalType":"string"}],"stateMutability":"view"},{"type":"function","name":"renounceOwnership","inputs":[],"outputs":[],"stateMutability":"payable"},{"type":"function","name":"requestOwnershipHandover","inputs":[],"outputs":[],"stateMutability":"payable"},{"type":"function","name":"resolveEpochIfNecessary","inputs":[],"outputs":[],"stateMutability":"nonpayable"},{"type":"function","name":"safeMint","inputs":[{"name":"_to","type":"address","internalType":"address"}],"outputs":[{"name":"","type":"uint256","internalType":"uint256"}],"stateMutability":"nonpayable"},{"type":"function","name":"safeTransferFrom","inputs":[{"name":"from","type":"address","internalType":"address"},{"name":"to","type":"address","internalType":"address"},{"name":"tokenId","type":"uint256","internalType":"uint256"}],"outputs":[],"stateMutability":"nonpayable"},{"type":"function","name":"safeTransferFrom","inputs":[{"name":"from","type":"address","internalType":"address"},{"name":"to","type":"address","internalType":"address"},{"name":"tokenId","type":"uint256","internalType":"uint256"},{"name":"data","type":"bytes","internalType":"bytes"}],"outputs":[],"stateMutability":"nonpayable"},{"type":"function","name":"setApprovalForAll","inputs":[{"name":"operator","type":"address","internalType":"address"},{"name":"approved","type":"bool","internalType":"bool"}],"outputs":[],"stateMutability":"nonpayable"},{"type":"function","name":"setGhostMaps","inputs":[{"name":"_colorMap","type":"bytes","internalType":"bytes"},{"name":"_zMap","type":"bytes","internalType":"bytes"}],"outputs":[],"stateMutability":"nonpayable"},{"type":"function","name":"setMarketplace","inputs":[{"name":"_marketplace","type":"address","internalType":"address"}],"outputs":[],"stateMutability":"nonpayable"},{"type":"function","name":"setPetersMain","inputs":[{"name":"_petersMain","type":"address","internalType":"address"}],"outputs":[],"stateMutability":"nonpayable"},{"type":"function","name":"setTraitForTokenId","inputs":[{"name":"_tokenId","type":"uint256","internalType":"uint256"},{"name":"_trait","type":"tuple","internalType":"struct ITraitStorage.StoredTrait","components":[{"name":"epoch","type":"uint256","internalType":"uint256"},{"name":"isRevealed","type":"bool","internalType":"bool"},{"name":"seed","type":"uint256","internalType":"uint256"},{"name":"renderMinterContract","type":"address","internalType":"address"},{"name":"traitIndex","type":"uint256","internalType":"uint256"},{"name":"traitType","type":"uint8","internalType":"enum TraitCategory.Name"}]}],"outputs":[],"stateMutability":"nonpayable"},{"type":"function","name":"setTraitIndexToMetadata","inputs":[{"name":"_traitIndex","type":"uint256","internalType":"uint256"},{"name":"_metadata","type":"tuple","internalType":"struct ITraitStorage.TraitMetadata","components":[{"name":"traitIndex","type":"uint256","internalType":"uint256"},{"name":"traitName","type":"string","internalType":"string"},{"name":"traitType","type":"uint8","internalType":"enum TraitCategory.Name"},{"name":"animations","type":"string","internalType":"string"},{"name":"colorMap","type":"bytes","internalType":"bytes"},{"name":"zMap","type":"bytes","internalType":"bytes"},{"name":"renderMinterContract","type":"address","internalType":"address"},{"name":"creatorAddress","type":"address","internalType":"address"},{"name":"creatorName","type":"string","internalType":"string"},{"name":"season","type":"string","internalType":"string"}]}],"outputs":[],"stateMutability":"nonpayable"},{"type":"function","name":"signer","inputs":[],"outputs":[{"name":"","type":"address","internalType":"address"}],"stateMutability":"view"},{"type":"function","name":"supportsInterface","inputs":[{"name":"interfaceId","type":"bytes4","internalType":"bytes4"}],"outputs":[{"name":"","type":"bool","internalType":"bool"}],"stateMutability":"view"},{"type":"function","name":"symbol","inputs":[],"outputs":[{"name":"","type":"string","internalType":"string"}],"stateMutability":"view"},{"type":"function","name":"tokenByIndex","inputs":[{"name":"index","type":"uint256","internalType":"uint256"}],"outputs":[{"name":"","type":"uint256","internalType":"uint256"}],"stateMutability":"view"},{"type":"function","name":"tokenOfOwnerByIndex","inputs":[{"name":"owner","type":"address","internalType":"address"},{"name":"index","type":"uint256","internalType":"uint256"}],"outputs":[{"name":"","type":"uint256","internalType":"uint256"}],"stateMutability":"view"},{"type":"function","name":"tokenURI","inputs":[{"name":"_tokenId","type":"uint256","internalType":"uint256"}],"outputs":[{"name":"","type":"string","internalType":"string"}],"stateMutability":"view"},{"type":"function","name":"totalSupply","inputs":[],"outputs":[{"name":"","type":"uint256","internalType":"uint256"}],"stateMutability":"view"},{"type":"function","name":"traitIndexToMetadata","inputs":[{"name":"","type":"uint256","internalType":"uint256"}],"outputs":[{"name":"traitIndex","type":"uint256","internalType":"uint256"},{"name":"traitName","type":"string","internalType":"string"},{"name":"traitType","type":"uint8","internalType":"enum TraitCategory.Name"},{"name":"animations","type":"string","internalType":"string"},{"name":"colorMap","type":"bytes","internalType":"bytes"},{"name":"zMap","type":"bytes","internalType":"bytes"},{"name":"renderMinterContract","type":"address","internalType":"address"},{"name":"creatorAddress","type":"address","internalType":"address"},{"name":"creatorName","type":"string","internalType":"string"},{"name":"season","type":"string","internalType":"string"}],"stateMutability":"view"},{"type":"function","name":"traitTokens","inputs":[],"outputs":[{"name":"epoch","type":"uint256","internalType":"uint256"}],"stateMutability":"view"},{"type":"function","name":"transferFrom","inputs":[{"name":"from","type":"address","internalType":"address"},{"name":"to","type":"address","internalType":"address"},{"name":"tokenId","type":"uint256","internalType":"uint256"}],"outputs":[],"stateMutability":"nonpayable"},{"type":"function","name":"transferOwnership","inputs":[{"name":"newOwner","type":"address","internalType":"address"}],"outputs":[],"stateMutability":"payable"},{"type":"function","name":"walletOfOwner","inputs":[{"name":"_owner","type":"address","internalType":"address"}],"outputs":[{"name":"","type":"uint256[]","internalType":"uint256[]"}],"stateMutability":"view"},{"type":"event","name":"Approval","inputs":[{"name":"owner","type":"address","indexed":true,"internalType":"address"},{"name":"approved","type":"address","indexed":true,"internalType":"address"},{"name":"tokenId","type":"uint256","indexed":true,"internalType":"uint256"}],"anonymous":false},{"type":"event","name":"ApprovalForAll","inputs":[{"name":"owner","type":"address","indexed":true,"internalType":"address"},{"name":"operator","type":"address","indexed":true,"internalType":"address"},{"name":"approved","type":"bool","indexed":false,"internalType":"bool"}],"anonymous":false},{"type":"event","name":"BatchMetadataUpdate","inputs":[{"name":"_fromTokenId","type":"uint256","indexed":false,"internalType":"uint256"},{"name":"_toTokenId","type":"uint256","indexed":false,"internalType":"uint256"}],"anonymous":false},{"type":"event","name":"MetadataUpdate","inputs":[{"name":"_tokenId","type":"uint256","indexed":false,"internalType":"uint256"}],"anonymous":false},{"type":"event","name":"Mint","inputs":[{"name":"owner","type":"address","indexed":true,"internalType":"address"},{"name":"tokenId","type":"uint256","indexed":true,"internalType":"uint256"}],"anonymous":false},{"type":"event","name":"NewEpoch","inputs":[{"name":"epoch","type":"uint256","indexed":true,"internalType":"uint256"},{"name":"revealBlock","type":"uint64","indexed":true,"internalType":"uint64"}],"anonymous":false},{"type":"event","name":"OwnershipHandoverCanceled","inputs":[{"name":"pendingOwner","type":"address","indexed":true,"internalType":"address"}],"anonymous":false},{"type":"event","name":"OwnershipHandoverRequested","inputs":[{"name":"pendingOwner","type":"address","indexed":true,"internalType":"address"}],"anonymous":false},{"type":"event","name":"OwnershipTransferred","inputs":[{"name":"oldOwner","type":"address","indexed":true,"internalType":"address"},{"name":"newOwner","type":"address","indexed":true,"internalType":"address"}],"anonymous":false},{"type":"event","name":"Transfer","inputs":[{"name":"from","type":"address","indexed":true,"internalType":"address"},{"name":"to","type":"address","indexed":true,"internalType":"address"},{"name":"tokenId","type":"uint256","indexed":true,"internalType":"uint256"}],"anonymous":false},{"type":"error","name":"AlreadyInitialized","inputs":[]},{"type":"error","name":"NewOwnerIsZeroAddress","inputs":[]},{"type":"error","name":"NoHandoverRequest","inputs":[]},{"type":"error","name":"NotATBA","inputs":[]},{"type":"error","name":"NotAValidMinterContract","inputs":[]},{"type":"error","name":"TraitNotFound","inputs":[{"name":"_tokenId","type":"uint256","internalType":"uint256"}]},{"type":"error","name":"TraitTokenDoesntExist","inputs":[]},{"type":"error","name":"Unauthorized","inputs":[]}],"bytecode":{"object":"0x60806040523480156200001157600080fd5b5060405162006992380380620069928339810160408190526200003491620000fb565b6040518060400160405280600b81526020016a506574657254726169747360a81b81525060405180604001604052806003815260200162282a2960e91b8152508160009081620000859190620001cd565b506001620000948282620001cd565b505050620000a833620000bf60201b60201c565b6015805460ff191691151591909117905562000299565b6001600160a01b0316638b78c6d8198190558060007f8be0079c531659141344cd1fd0a4f28419497f9722a3daafe3b4186f6b6457e08180a350565b6000602082840312156200010e57600080fd5b815180151581146200011f57600080fd5b9392505050565b634e487b7160e01b600052604160045260246000fd5b600181811c908216806200015157607f821691505b6020821081036200017257634e487b7160e01b600052602260045260246000fd5b50919050565b601f821115620001c8576000816000526020600020601f850160051c81016020861015620001a35750805b601f850160051c820191505b81811015620001c457828155600101620001af565b5050505b505050565b81516001600160401b03811115620001e957620001e962000126565b6200020181620001fa84546200013c565b8462000178565b602080601f831160018114620002395760008415620002205750858301515b600019600386901b1c1916600185901b178555620001c4565b600085815260208120601f198616915b828110156200026a5788860151825594840194600190910190840162000249565b5085821015620002895787850151600019600388901b60f8161c191681555b5050505050600190811b01905550565b6166e980620002a96000396000f3fe6080604052600436106103a25760003560e01c8063859e7d32116101e7578063bb12d21d1161010d578063e8a1268d116100a0578063f12719421161006f578063f127194214610bc7578063f2fde38b14610be7578063f901667f14610bfa578063fee81cf414610c1a57600080fd5b8063e8a1268d14610b1e578063e985e9c514610b4b578063ea13954414610b94578063f04e283e14610bb457600080fd5b8063df2c2b88116100dc578063df2c2b8814610aa7578063e08714a614610ac7578063e14d026f14610ae7578063e1defed914610afe57600080fd5b8063bb12d21d14610a0b578063c779153114610a3a578063c87b56dd14610a5a578063d1bfc2af14610a7a57600080fd5b8063a2c12c9411610185578063abc8c7af11610154578063abc8c7af146109ab578063acb586df146109cb578063b88d4fde146109eb578063b97dd9e21461073b57600080fd5b8063a2c12c941461091b578063a5e2912a1461093b578063a8498c741461095b578063aa271e1a1461097b57600080fd5b80638da5cb5b116101c15780638da5cb5b146108ad57806395d89b41146108c6578063a1d62680146108db578063a22cb465146108fb57600080fd5b8063859e7d3214610786578063898aa1171461086d5780638d37c5371461088d57600080fd5b806333a70328116102cc57806354d1f13d1161026a578063715018a611610239578063715018a61461071357806373ad6c2d1461071b578063757991a81461073b578063817a29a41461075057600080fd5b806354d1f13d146106b65780635c1ef256146106be5780636352211e146106d357806370a08231146106f357600080fd5b806342842e0e116102a657806342842e0e14610634578063438b6300146106545780634f6ccce71461068157806351dc7189146106a157600080fd5b806333a70328146105c657806336d34ab9146105f457806340d097c31461061457600080fd5b80631ca9760411610344578063239ffa6811610313578063239ffa681461056957806323b872dd1461057e578063256929621461059e5780632f745c59146105a657600080fd5b80631ca97604146104dc578063208c25a3146104fc57806321b12c2314610529578063238ac9331461054957600080fd5b8063081812fc11610380578063081812fc14610436578063095ea7b314610456578063150b7a021461047857806318160ddd146104bd57600080fd5b806301ffc9a7146103a757806306fdde03146103dc57806307546172146103fe575b600080fd5b3480156103b357600080fd5b506103c76103c23660046150b5565b610c4d565b60405190151581526020015b60405180910390f35b3480156103e857600080fd5b506103f1610c5e565b6040516103d39190615129565b34801561040a57600080fd5b50600f5461041e906001600160a01b031681565b6040516001600160a01b0390911681526020016103d3565b34801561044257600080fd5b5061041e61045136600461513c565b610cf0565b34801561046257600080fd5b5061047661047136600461517a565b610d17565b005b34801561048457600080fd5b506104a46104933660046151a6565b630a85bd0160e11b95945050505050565b6040516001600160e01b031990911681526020016103d3565b3480156104c957600080fd5b506008545b6040519081526020016103d3565b3480156104e857600080fd5b5060125461041e906001600160a01b031681565b34801561050857600080fd5b5061051c61051736600461513c565b610e31565b6040516103d391906152c4565b34801561053557600080fd5b506103f1610544366004615403565b610ef9565b34801561055557600080fd5b5060105461041e906001600160a01b031681565b34801561057557600080fd5b50610476611742565b34801561058a57600080fd5b50610476610599366004615437565b61191e565b61047661194f565b3480156105b257600080fd5b506104ce6105c136600461517a565b61199e565b3480156105d257600080fd5b506105e66105e136600461551c565b611a34565b6040516103d3929190615547565b34801561060057600080fd5b5061047661060f36600461556c565b611bde565b34801561062057600080fd5b506104ce61062f366004615599565b611c77565b34801561064057600080fd5b5061047661064f366004615437565b611ce4565b34801561066057600080fd5b5061067461066f366004615599565b611cff565b6040516103d391906155b6565b34801561068d57600080fd5b506104ce61069c36600461513c565b611d96565b3480156106ad57600080fd5b506105e6611e29565b610476611f49565b3480156106ca57600080fd5b506103f1611f85565b3480156106df57600080fd5b5061041e6106ee36600461513c565b612055565b3480156106ff57600080fd5b506104ce61070e366004615599565b6120b5565b61047661213b565b34801561072757600080fd5b50610476610736366004615599565b61214f565b34801561074757600080fd5b50600b546104ce565b34801561075c57600080fd5b5061077061076b36600461513c565b612179565b6040516103d39a999897969594939291906155fa565b34801561079257600080fd5b506108246107a136600461513c565b6040805160808082018352600080835260208084018290528385018290526060938401829052948152600c855283902083519182018452546001600160801b03811682526001600160401b03600160801b8204169482019490945260ff600160c01b85048116151593820193909352600160c81b90930490911615159082015290565b6040516103d3919081516001600160801b031681526020808301516001600160401b03169082015260408083015115159082015260609182015115159181019190915260800190565b34801561087957600080fd5b506103f1610888366004615403565b612511565b34801561089957600080fd5b506104766108a83660046156af565b612763565b3480156108b957600080fd5b50638b78c6d8195461041e565b3480156108d257600080fd5b506103f1612862565b3480156108e757600080fd5b506103f16108f636600461513c565b612871565b34801561090757600080fd5b5061047661091636600461581d565b612ed0565b34801561092757600080fd5b50610476610936366004615599565b612edf565b34801561094757600080fd5b506103f161095636600461513c565b612f09565b34801561096757600080fd5b506103f161097636600461513c565b612f65565b34801561098757600080fd5b506103c7610996366004615599565b60146020526000908152604090205460ff1681565b3480156109b757600080fd5b5060135461041e906001600160a01b031681565b3480156109d757600080fd5b5061051c6109e636600461513c565b61301d565b3480156109f757600080fd5b50610476610a06366004615856565b6131bc565b348015610a1757600080fd5b50610a2b610a263660046158e6565b6131f4565b6040516103d3939291906159df565b348015610a4657600080fd5b506103f1610a5536600461513c565b6132f3565b348015610a6657600080fd5b506103f1610a7536600461513c565b61334d565b348015610a8657600080fd5b50610a9a610a9536600461513c565b61338e565b6040516103d39190615a22565b348015610ab357600080fd5b506105e6610ac23660046158e6565b61379b565b348015610ad357600080fd5b506105e6610ae2366004615b2b565b61387a565b348015610af357600080fd5b50600b546104ce9081565b348015610b0a57600080fd5b50610476610b19366004615b97565b613905565b348015610b2a57600080fd5b50610b3e610b3936600461513c565b613926565b6040516103d39190615bfa565b348015610b5757600080fd5b506103c7610b66366004615c08565b6001600160a01b03918216600090815260056020908152604080832093909416825291909152205460ff1690565b348015610ba057600080fd5b50610a9a610baf36600461513c565b613d33565b610476610bc2366004615599565b61412e565b348015610bd357600080fd5b50610a2b610be2366004615c36565b61416b565b610476610bf5366004615599565b614225565b348015610c0657600080fd5b50610a2b610c1536600461551c565b61424c565b348015610c2657600080fd5b506104ce610c35366004615599565b63389a75e1600c908152600091909152602090205490565b6000610c58826143d3565b92915050565b606060008054610c6d90615cbb565b80601f0160208091040260200160405190810160405280929190818152602001828054610c9990615cbb565b8015610ce65780601f10610cbb57610100808354040283529160200191610ce6565b820191906000526020600020905b815481529060010190602001808311610cc957829003601f168201915b5050505050905090565b6000610cfb826143f8565b506000908152600460205260409020546001600160a01b031690565b6000610d2282612055565b9050806001600160a01b0316836001600160a01b031603610d945760405162461bcd60e51b815260206004820152602160248201527f4552433732313a20617070726f76616c20746f2063757272656e74206f776e656044820152603960f91b60648201526084015b60405180910390fd5b336001600160a01b0382161480610db05750610db08133610b66565b610e225760405162461bcd60e51b815260206004820152603e60248201527f4552433732313a20617070726f76652063616c6c6572206973206e6f7420746f60448201527f6b656e206f776e6572206e6f7220617070726f76656420666f7220616c6c00006064820152608401610d8b565b610e2c8383614457565b505050565b610e676040805160c08101825260008082526020820181905291810182905260608101829052608081018290529060a082015290565b6000828152600a6020908152604091829020825160c08101845281548152600182015460ff90811615159382019390935260028201549381019390935260038101546001600160a01b03166060840152600481015460808401526005810154909160a0840191166007811115610edf57610edf615244565b6007811115610ef057610ef0615244565b90525092915050565b60606000604051806102000160405280604051806040016040528060018152602001600360fc1b8152508152602001604051806040016040528060018152602001603160f81b8152508152602001604051806040016040528060018152602001601960f91b8152508152602001604051806040016040528060018152602001603360f81b8152508152602001604051806040016040528060018152602001600d60fa1b8152508152602001604051806040016040528060018152602001603560f81b8152508152602001604051806040016040528060018152602001601b60f91b8152508152602001604051806040016040528060018152602001603760f81b8152508152602001604051806040016040528060018152602001600760fb1b8152508152602001604051806040016040528060018152602001603960f81b8152508152602001604051806040016040528060018152602001606160f81b8152508152602001604051806040016040528060018152602001603160f91b8152508152602001604051806040016040528060018152602001606360f81b8152508152602001604051806040016040528060018152602001601960fa1b8152508152602001604051806040016040528060018152602001606560f81b8152508152602001604051806040016040528060018152602001603360f91b81525081525090506000604051806103c00160405280604051806040016040528060018152602001600360fc1b8152508152602001604051806040016040528060018152602001603160f81b8152508152602001604051806040016040528060018152602001601960f91b8152508152602001604051806040016040528060018152602001603360f81b8152508152602001604051806040016040528060018152602001600d60fa1b8152508152602001604051806040016040528060018152602001603560f81b8152508152602001604051806040016040528060018152602001601b60f91b8152508152602001604051806040016040528060018152602001603760f81b8152508152602001604051806040016040528060018152602001600760fb1b8152508152602001604051806040016040528060018152602001603960f81b815250815260200160405180604001604052806002815260200161031360f41b815250815260200160405180604001604052806002815260200161313160f01b815250815260200160405180604001604052806002815260200161189960f11b815250815260200160405180604001604052806002815260200161313360f01b8152508152602001604051806040016040528060028152602001610c4d60f21b815250815260200160405180604001604052806002815260200161313560f01b815250815260200160405180604001604052806002815260200161189b60f11b815250815260200160405180604001604052806002815260200161313760f01b815250815260200160405180604001604052806002815260200161062760f31b815250815260200160405180604001604052806002815260200161313960f01b815250815260200160405180604001604052806002815260200161032360f41b815250815260200160405180604001604052806002815260200161323160f01b815250815260200160405180604001604052806002815260200161191960f11b815250815260200160405180604001604052806002815260200161323360f01b8152508152602001604051806040016040528060028152602001610c8d60f21b815250815260200160405180604001604052806002815260200161323560f01b815250815260200160405180604001604052806002815260200161191b60f11b815250815260200160405180604001604052806002815260200161323760f01b815250815260200160405180604001604052806002815260200161064760f31b815250815260200160405180604001604052806002815260200161323960f01b815250815250905060005b61119481101561173a57600060f81b8582815181106114e1576114e1615cef565b01602001516001600160f81b0319161115611728576000601e611505600584615d31565b61150f9190615d45565b90506000601e611520600585615d31565b61152a9190615d31565b905060008560048961153d876002615d59565b8151811061154d5761154d615cef565b016020015160f81c901c60ff166010811061156a5761156a615cef565b6020020151868961157c876002615d59565b8151811061158c5761158c615cef565b60209101015160f81c600f16601081106115a8576115a8615cef565b60200201518760048b6115bc896003615d59565b815181106115cc576115cc615cef565b016020015160f81c901c60ff16601081106115e9576115e9615cef565b6020020151888b6115fb896003615d59565b8151811061160b5761160b615cef565b60209101015160f81c600f166010811061162757611627615cef565b60200201518960048d61163a8b83615d59565b8151811061164a5761164a615cef565b016020015160f81c901c60ff166010811061166757611667615cef565b60200201518a8d6116798b6004615d59565b8151811061168957611689615cef565b60209101015160f81c600f16601081106116a5576116a5615cef565b60200201516040516020016116bf96959493929190615d6c565b6040516020818303038152906040529050868584601e81106116e3576116e3615cef565b60200201518684601e81106116fa576116fa615cef565b6020020151836040516020016117139493929190615deb565b60405160208183030381529060405296505050505b611733600582615d59565b90506114c0565b505050919050565b600b546000908152600c602052604090208054600160c01b900460ff16158061179a57508054600160c81b900460ff1615801561179a575061178661010043615ea5565b8154600160801b90046001600160401b0316105b156117e5576117aa436032615d59565b815460ff60c01b196001600160401b0392909216600160801b029190911668ffffffffffffffffff60801b1990911617600160c01b17815550565b8054600160801b90046001600160401b031643111561191b57805460408051600160801b9092046001600160401b031640602083015244908201526001600160801b03906060016040516020818303038152906040528051906020012060001c61184f9190615d45565b8154600160c81b6001600160801b039290921679ff000000000000000000ffffffffffffffffffffffffffffffff199091161717808255600b54604051600160801b9092046001600160401b0316917f78611aecfda8d341359c248df527c95aef93d446c92bb928b2a81b7abcb1d8d990600090a3604080516000815260001960208201527f6bd5c950a8d8df17f772f5af37cb3655737899cbf903264b9795592da439661c910160405180910390a1600b805460009061190f90615eb8565b9091555061191b611742565b50565b61192833826144c5565b6119445760405162461bcd60e51b8152600401610d8b90615ed1565b610e2c838383614544565b60006202a3006001600160401b03164201905063389a75e1600c5233600052806020600c2055337fdbf36a107da19e49527a7176a1babf963b4b0ff8cde35ee35d6cd8f1f9ac7e1d600080a250565b60006119a9836120b5565b8210611a0b5760405162461bcd60e51b815260206004820152602b60248201527f455243373231456e756d657261626c653a206f776e657220696e646578206f7560448201526a74206f6620626f756e647360a81b6064820152608401610d8b565b506001600160a01b03919091166000908152600660209081526040808320938352929052205490565b60608083602001518015611a485750600083115b15611b9357608084015160009081526011602052604090819020600281015491516301be83d160e11b81529091611b7c9173__$4987fe9f4e800c5c4c1535f64ed232842a$__9163037d07a291611aa59160ff1690600401615bfa565b600060405180830381865af4158015611ac2573d6000803e3d6000fd5b505050506040513d6000823e601f3d908101601f19168201604052611aea9190810190615f1f565b826001018054611af990615cbb565b80601f0160208091040260200160405190810160405280929190818152602001828054611b2590615cbb565b8015611b725780601f10611b4757610100808354040283529160200191611b72565b820191906000526020600020905b815481529060010190602001808311611b5557829003601f168201915b50505050506146eb565b9150611b8b8560800151612f09565b925050611bd7565b604051806040016040528060028152602001617b7d60f01b81525090506040518060400160405280600b81526020016a1e39bb339f1e17b9bb339f60a91b81525091505b9250929050565b6000828152600a602090815260409182902083518155908301516001808301805492151560ff1993841617905592840151600283015560608401516003830180546001600160a01b039092166001600160a01b03199092169190911790556080840151600483015560a0840151600583018054869592939192911690836007811115611c6c57611c6c615244565b021790555050505050565b6000611c81611742565b6000611c8c60085490565b611c97906001615d59565b9050611ca38382614717565b604080516000815260001960208201527f6bd5c950a8d8df17f772f5af37cb3655737899cbf903264b9795592da439661c910160405180910390a192915050565b610e2c838383604051806020016040528060008152506131bc565b60606000611d0c836120b5565b90506000816001600160401b03811115611d2857611d286152d2565b604051908082528060200260200182016040528015611d51578160200160208202803683370190505b50905060005b82811015611d8e57611d69858261199e565b828281518110611d7b57611d7b615cef565b6020908102919091010152600101611d57565b509392505050565b6000611da160085490565b8210611e045760405162461bcd60e51b815260206004820152602c60248201527f455243373231456e756d657261626c653a20676c6f62616c20696e646578206f60448201526b7574206f6620626f756e647360a01b6064820152608401610d8b565b60088281548110611e1757611e17615cef565b90600052602060002001549050919050565b600d80548190611e3890615cbb565b80601f0160208091040260200160405190810160405280929190818152602001828054611e6490615cbb565b8015611eb15780601f10611e8657610100808354040283529160200191611eb1565b820191906000526020600020905b815481529060010190602001808311611e9457829003601f168201915b505050505090806001018054611ec690615cbb565b80601f0160208091040260200160405190810160405280929190818152602001828054611ef290615cbb565b8015611f3f5780601f10611f1457610100808354040283529160200191611f3f565b820191906000526020600020905b815481529060010190602001808311611f2257829003601f168201915b5050505050905082565b63389a75e1600c523360005260006020600c2055337ffa7b8eab7da67f412cc9575ed43464468f9bfbae89d1675917346ca6d8fe3c92600080a2565b6060600061201f600d6000018054611f9c90615cbb565b80601f0160208091040260200160405190810160405280929190818152602001828054611fc890615cbb565b80156120155780601f10611fea57610100808354040283529160200191612015565b820191906000526020600020905b815481529060010190602001808311611ff857829003601f168201915b5050505050612511565b9050600061202c82610ef9565b90508060405160200161203f9190615f8c565b6040516020818303038152906040529250505090565b6000818152600260205260408120546001600160a01b031680610c585760405162461bcd60e51b8152602060048201526018602482015277115490cdcc8c4e881a5b9d985b1a59081d1bdad95b88125160421b6044820152606401610d8b565b60006001600160a01b03821661211f5760405162461bcd60e51b815260206004820152602960248201527f4552433732313a2061646472657373207a65726f206973206e6f7420612076616044820152683634b21037bbb732b960b91b6064820152608401610d8b565b506001600160a01b031660009081526003602052604090205490565b612143614731565b61214d600061474c565b565b612157614731565b601380546001600160a01b0319166001600160a01b0392909216919091179055565b6011602052600090815260409020805460018201805491929161219b90615cbb565b80601f01602080910402602001604051908101604052809291908181526020018280546121c790615cbb565b80156122145780601f106121e957610100808354040283529160200191612214565b820191906000526020600020905b8154815290600101906020018083116121f757829003601f168201915b5050506002840154600385018054949560ff90921694919350915061223890615cbb565b80601f016020809104026020016040519081016040528092919081815260200182805461226490615cbb565b80156122b15780601f10612286576101008083540402835291602001916122b1565b820191906000526020600020905b81548152906001019060200180831161229457829003601f168201915b5050505050908060040180546122c690615cbb565b80601f01602080910402602001604051908101604052809291908181526020018280546122f290615cbb565b801561233f5780601f106123145761010080835404028352916020019161233f565b820191906000526020600020905b81548152906001019060200180831161232257829003601f168201915b50505050509080600501805461235490615cbb565b80601f016020809104026020016040519081016040528092919081815260200182805461238090615cbb565b80156123cd5780601f106123a2576101008083540402835291602001916123cd565b820191906000526020600020905b8154815290600101906020018083116123b057829003601f168201915b5050506006840154600785015460088601805495966001600160a01b039384169692909316945091925061240090615cbb565b80601f016020809104026020016040519081016040528092919081815260200182805461242c90615cbb565b80156124795780601f1061244e57610100808354040283529160200191612479565b820191906000526020600020905b81548152906001019060200180831161245c57829003601f168201915b50505050509080600901805461248e90615cbb565b80601f01602080910402602001604051908101604052809291908181526020018280546124ba90615cbb565b80156125075780601f106124dc57610100808354040283529160200191612507565b820191906000526020600020905b8154815290600101906020018083116124ea57829003601f168201915b505050505090508a565b8051604080516111948082526111c0820190925260609291600091906020820181803683370190505090506000612549600584615d31565b905060005b81811015612759576000612563826005615ff6565b9050600087828151811061257957612579615cef565b016020015160f81c9050600088612591846001615d59565b815181106125a1576125a1615cef565b016020015160f81c9050600060ff83166125bc83601e615ff6565b6125c69190615d59565b6125d1906005615ff6565b90508984815181106125e5576125e5615cef565b602001015160f81c60f81b87828151811061260257612602615cef565b60200101906001600160f81b031916908160001a90535089846001018151811061262e5761262e615cef565b602001015160f81c60f81b87826001018151811061264e5761264e615cef565b60200101906001600160f81b031916908160001a90535089846002018151811061267a5761267a615cef565b602001015160f81c60f81b87826002018151811061269a5761269a615cef565b60200101906001600160f81b031916908160001a9053508984600301815181106126c6576126c6615cef565b602001015160f81c60f81b8782600301815181106126e6576126e6615cef565b60200101906001600160f81b031916908160001a90535089846004018151811061271257612712615cef565b602001015160f81c60f81b87826004018151811061273257612732615cef565b60200101906001600160f81b031916908160001a905350506001909301925061254e915050565b5090949350505050565b60008281526011602090815260409091208251815590820151829190600182019061278e908261605d565b50604082015160028201805460ff191660018360078111156127b2576127b2615244565b0217905550606082015160038201906127cb908261605d565b50608082015160048201906127e0908261605d565b5060a082015160058201906127f5908261605d565b5060c08201516006820180546001600160a01b039283166001600160a01b03199182161790915560e08401516007840180549190931691161790556101008201516008820190612845908261605d565b50610120820151600982019061285b908261605d565b5050505050565b606060018054610c6d90615cbb565b6060806060806000612881611f85565b9050600061288e8761301d565b9050806020015115612dae576000601160008360800151815260200190815260200160002060405180610140016040529081600082015481526020016001820180546128d990615cbb565b80601f016020809104026020016040519081016040528092919081815260200182805461290590615cbb565b80156129525780601f1061292757610100808354040283529160200191612952565b820191906000526020600020905b81548152906001019060200180831161293557829003601f168201915b5050509183525050600282015460209091019060ff16600781111561297957612979615244565b600781111561298a5761298a615244565b815260200160038201805461299e90615cbb565b80601f01602080910402602001604051908101604052809291908181526020018280546129ca90615cbb565b8015612a175780601f106129ec57610100808354040283529160200191612a17565b820191906000526020600020905b8154815290600101906020018083116129fa57829003601f168201915b50505050508152602001600482018054612a3090615cbb565b80601f0160208091040260200160405190810160405280929190818152602001828054612a5c90615cbb565b8015612aa95780601f10612a7e57610100808354040283529160200191612aa9565b820191906000526020600020905b815481529060010190602001808311612a8c57829003601f168201915b50505050508152602001600582018054612ac290615cbb565b80601f0160208091040260200160405190810160405280929190818152602001828054612aee90615cbb565b8015612b3b5780601f10612b1057610100808354040283529160200191612b3b565b820191906000526020600020905b815481529060010190602001808311612b1e57829003601f168201915b505050918352505060068201546001600160a01b0390811660208301526007830154166040820152600882018054606090920191612b7890615cbb565b80601f0160208091040260200160405190810160405280929190818152602001828054612ba490615cbb565b8015612bf15780601f10612bc657610100808354040283529160200191612bf1565b820191906000526020600020905b815481529060010190602001808311612bd457829003601f168201915b50505050508152602001600982018054612c0a90615cbb565b80601f0160208091040260200160405190810160405280929190818152602001828054612c3690615cbb565b8015612c835780601f10612c5857610100808354040283529160200191612c83565b820191906000526020600020905b815481529060010190602001808311612c6657829003601f168201915b5050505050815250509050612c9b8260800151612f09565b9450612d2a73__$4987fe9f4e800c5c4c1535f64ed232842a$__63037d07a28460a001516040518263ffffffff1660e01b8152600401612cdb9190615bfa565b600060405180830381865af4158015612cf8573d6000803e3d6000fd5b505050506040513d6000823e601f3d908101601f19168201604052612d209190810190615f1f565b82602001516146eb565b612d586040518060400160405280600781526020016621b932b0ba37b960c91b8152508361010001516146eb565b612d856040518060400160405280600681526020016529b2b0b9b7b760d11b8152508461012001516146eb565b604051602001612d979392919061611c565b604051602081830303815290604052935050612dff565b6040518060400160405280600f81526020016e2261747472696275746573223a5b5d60881b81525092506040518060400160405280600b81526020016a1e39bb339f1e17b9bb339f60a91b81525093505b60405180610100016040528060d281526020016165e260d291398285604051602001612e2d9392919061619f565b60405160208183030381529060405294506000612e498661478a565b604051602001612e5991906161f3565b60405160208183030381529060405290506000612e7589614798565b8583604051602001612e899392919061624f565b6040516020818303038152906040529050612ea38161478a565b604051602001612eb3919061630a565b604051602081830303815290604052975050505050505050919050565b612edb3383836147dc565b5050565b612ee7614731565b601280546001600160a01b0319166001600160a01b0392909216919091179055565b6000818152601160205260408120600401805460609291612f2d91611f9c90615cbb565b90506000612f3a82610ef9565b905080604051602001612f4d919061634f565b60405160208183030381529060405292505050919050565b60606000612f728361301d565b60808101516000908152601160205260409020600501805491925090612f9790615cbb565b80601f0160208091040260200160405190810160405280929190818152602001828054612fc390615cbb565b80156130105780601f10612fe557610100808354040283529160200191613010565b820191906000526020600020905b815481529060010190602001808311612ff357829003601f168201915b5050505050915050919050565b6130536040805160c08101825260008082526020820181905291810182905260608101829052608081018290529060a082015290565b6000828152600a60209081526040808320815160c08101835281548152600182015460ff90811615159482019490945260028201549281019290925260038101546001600160a01b031660608301526004810154608083015260058101549192909160a08401911660078111156130cc576130cc615244565b60078111156130dd576130dd615244565b90525080516000908152600c602052604090205460608201519192506001600160801b0316906001600160a01b03811615801561311c57506040830151155b1561313d5760405163082d451d60e01b815260048101869052602401610d8b565b60155460405163687d69df60e11b81526001600160a01b0383169163d0fad3be916131729160ff169087908790600401616394565b60c060405180830381865afa15801561318f573d6000803e3d6000fd5b505050506040513d601f19601f820116820180604052508101906131b391906163c2565b95945050505050565b6131c633836144c5565b6131e25760405162461bcd60e51b8152600401610d8b90615ed1565b6131ee848484846148aa565b50505050565b606080606060008460c00151111561321f576132168460c0015184838561416b565b91945090925090505b60a084015115613242576132398460a0015184838561416b565b91945090925090505b6080840151156132655761325c846080015184838561416b565b91945090925090505b6040840151156132885761327f846040015184838561416b565b91945090925090505b6020840151156132ab576132a2846020015184838561416b565b91945090925090505b8351156132c95783516132c09084838561416b565b91945090925090505b6060840151156132ec576132e3846060015184838561416b565b91945090925090505b9193909250565b606060006133008361301d565b9050806020015115613320576133198160800151612f09565b9150613347565b6040518060400160405280600b81526020016a1e39bb339f1e17b9bb339f60a91b81525091505b50919050565b6000818152600260205260409020546060906001600160a01b031661338557604051632df0e24560e21b815260040160405180910390fd5b610c5882612871565b61339661503a565b60006133a18361301d565b9050601160008260800151815260200190815260200160002060405180610140016040529081600082015481526020016001820180546133e090615cbb565b80601f016020809104026020016040519081016040528092919081815260200182805461340c90615cbb565b80156134595780601f1061342e57610100808354040283529160200191613459565b820191906000526020600020905b81548152906001019060200180831161343c57829003601f168201915b5050509183525050600282015460209091019060ff16600781111561348057613480615244565b600781111561349157613491615244565b81526020016003820180546134a590615cbb565b80601f01602080910402602001604051908101604052809291908181526020018280546134d190615cbb565b801561351e5780601f106134f35761010080835404028352916020019161351e565b820191906000526020600020905b81548152906001019060200180831161350157829003601f168201915b5050505050815260200160048201805461353790615cbb565b80601f016020809104026020016040519081016040528092919081815260200182805461356390615cbb565b80156135b05780601f10613585576101008083540402835291602001916135b0565b820191906000526020600020905b81548152906001019060200180831161359357829003601f168201915b505050505081526020016005820180546135c990615cbb565b80601f01602080910402602001604051908101604052809291908181526020018280546135f590615cbb565b80156136425780601f1061361757610100808354040283529160200191613642565b820191906000526020600020905b81548152906001019060200180831161362557829003601f168201915b505050918352505060068201546001600160a01b039081166020830152600783015416604082015260088201805460609092019161367f90615cbb565b80601f01602080910402602001604051908101604052809291908181526020018280546136ab90615cbb565b80156136f85780601f106136cd576101008083540402835291602001916136f8565b820191906000526020600020905b8154815290600101906020018083116136db57829003601f168201915b5050505050815260200160098201805461371190615cbb565b80601f016020809104026020016040519081016040528092919081815260200182805461373d90615cbb565b801561378a5780601f1061375f5761010080835404028352916020019161378a565b820191906000526020600020905b81548152906001019060200180831161376d57829003601f168201915b505050505081525050915050919050565b60608060008360c0015111156137c0576137ba8360c00151838361387a565b90925090505b60a0830151156137df576137d98360a00151838361387a565b90925090505b6080830151156137fe576137f88360800151838361387a565b90925090505b60408301511561381d576138178360400151838361387a565b90925090505b60208301511561383c576138368360200151838361387a565b90925090505b82511561385657825161385090838361387a565b90925090505b6060830151156138755761386f8360600151838361387a565b90925090505b915091565b606080606080600061388b8861301d565b90506138978189611a34565b87519094509092506000036138b1578194508293506138fa565b86826040516020016138c4929190616434565b604051602081830303815290604052945085836040516020016138e8929190616463565b60405160208183030381529060405293505b505050935093915050565b61390d614731565b600d613919838261605d565b50600e610e2c828261605d565b6000806139328361301d565b905060006011600083608001518152602001908152602001600020604051806101400160405290816000820154815260200160018201805461397390615cbb565b80601f016020809104026020016040519081016040528092919081815260200182805461399f90615cbb565b80156139ec5780601f106139c1576101008083540402835291602001916139ec565b820191906000526020600020905b8154815290600101906020018083116139cf57829003601f168201915b5050509183525050600282015460209091019060ff166007811115613a1357613a13615244565b6007811115613a2457613a24615244565b8152602001600382018054613a3890615cbb565b80601f0160208091040260200160405190810160405280929190818152602001828054613a6490615cbb565b8015613ab15780601f10613a8657610100808354040283529160200191613ab1565b820191906000526020600020905b815481529060010190602001808311613a9457829003601f168201915b50505050508152602001600482018054613aca90615cbb565b80601f0160208091040260200160405190810160405280929190818152602001828054613af690615cbb565b8015613b435780601f10613b1857610100808354040283529160200191613b43565b820191906000526020600020905b815481529060010190602001808311613b2657829003601f168201915b50505050508152602001600582018054613b5c90615cbb565b80601f0160208091040260200160405190810160405280929190818152602001828054613b8890615cbb565b8015613bd55780601f10613baa57610100808354040283529160200191613bd5565b820191906000526020600020905b815481529060010190602001808311613bb857829003601f168201915b505050918352505060068201546001600160a01b0390811660208301526007830154166040820152600882018054606090920191613c1290615cbb565b80601f0160208091040260200160405190810160405280929190818152602001828054613c3e90615cbb565b8015613c8b5780601f10613c6057610100808354040283529160200191613c8b565b820191906000526020600020905b815481529060010190602001808311613c6e57829003601f168201915b50505050508152602001600982018054613ca490615cbb565b80601f0160208091040260200160405190810160405280929190818152602001828054613cd090615cbb565b8015613d1d5780601f10613cf257610100808354040283529160200191613d1d565b820191906000526020600020905b815481529060010190602001808311613d0057829003601f168201915b5050509190925250505060400151949350505050565b613d3b61503a565b601160008381526020019081526020016000206040518061014001604052908160008201548152602001600182018054613d7490615cbb565b80601f0160208091040260200160405190810160405280929190818152602001828054613da090615cbb565b8015613ded5780601f10613dc257610100808354040283529160200191613ded565b820191906000526020600020905b815481529060010190602001808311613dd057829003601f168201915b5050509183525050600282015460209091019060ff166007811115613e1457613e14615244565b6007811115613e2557613e25615244565b8152602001600382018054613e3990615cbb565b80601f0160208091040260200160405190810160405280929190818152602001828054613e6590615cbb565b8015613eb25780601f10613e8757610100808354040283529160200191613eb2565b820191906000526020600020905b815481529060010190602001808311613e9557829003601f168201915b50505050508152602001600482018054613ecb90615cbb565b80601f0160208091040260200160405190810160405280929190818152602001828054613ef790615cbb565b8015613f445780601f10613f1957610100808354040283529160200191613f44565b820191906000526020600020905b815481529060010190602001808311613f2757829003601f168201915b50505050508152602001600582018054613f5d90615cbb565b80601f0160208091040260200160405190810160405280929190818152602001828054613f8990615cbb565b8015613fd65780601f10613fab57610100808354040283529160200191613fd6565b820191906000526020600020905b815481529060010190602001808311613fb957829003601f168201915b505050918352505060068201546001600160a01b039081166020830152600783015416604082015260088201805460609092019161401390615cbb565b80601f016020809104026020016040519081016040528092919081815260200182805461403f90615cbb565b801561408c5780601f106140615761010080835404028352916020019161408c565b820191906000526020600020905b81548152906001019060200180831161406f57829003601f168201915b505050505081526020016009820180546140a590615cbb565b80601f01602080910402602001604051908101604052809291908181526020018280546140d190615cbb565b801561411e5780601f106140f35761010080835404028352916020019161411e565b820191906000526020600020905b81548152906001019060200180831161410157829003601f168201915b5050505050815250509050919050565b614136614731565b63389a75e1600c52806000526020600c20805442111561415e57636f5e88186000526004601cfd5b6000905561191b8161474c565b606080606080606080600061417f8b61301d565b905061418b818c61424c565b8b5190965091945092506000036141aa57829650839550819450614217565b89836040516020016141bd929190616434565b604051602081830303815290604052965088846040516020016141e1929190616463565b60405160208183030381529060405295508782604051602001614205929190616434565b60405160208183030381529060405294505b505050509450945094915050565b61422d614731565b8060601b61424357637448fbae6000526004601cfd5b61191b8161474c565b6060806060846020015180156142625750600084115b15614376576080850180516000908152601160205260409020905161428690612f09565b60028201546040516301be83d160e11b81529195506142cb9173__$4987fe9f4e800c5c4c1535f64ed232842a$__9163037d07a291611aa59160ff1690600401615bfa565b608087015160009081526011602052604090206005018054919350906142f090615cbb565b80601f016020809104026020016040519081016040528092919081815260200182805461431c90615cbb565b80156143695780601f1061433e57610100808354040283529160200191614369565b820191906000526020600020905b81548152906001019060200180831161434c57829003601f168201915b50505050509250506143cc565b6040518060400160405280600b81526020016a1e39bb339f1e17b9bb339f60a91b8152509250604051806040016040528060028152602001617b7d60f01b81525090506040518060200160405280600081525091505b9250925092565b60006001600160e01b0319821663780e9d6360e01b1480610c585750610c58826148dd565b6000818152600260205260409020546001600160a01b031661191b5760405162461bcd60e51b8152602060048201526018602482015277115490cdcc8c4e881a5b9d985b1a59081d1bdad95b88125160421b6044820152606401610d8b565b600081815260046020526040902080546001600160a01b0319166001600160a01b038416908117909155819061448c82612055565b6001600160a01b03167f8c5be1e5ebec7d5bd14f71427d1e84f3dd0314c0f7b2291e5b200ac8c7c3b92560405160405180910390a45050565b6000806144d183612055565b9050806001600160a01b0316846001600160a01b0316148061451857506001600160a01b0380821660009081526005602090815260408083209388168352929052205460ff165b8061453c5750836001600160a01b031661453184610cf0565b6001600160a01b0316145b949350505050565b826001600160a01b031661455782612055565b6001600160a01b0316146145bb5760405162461bcd60e51b815260206004820152602560248201527f4552433732313a207472616e736665722066726f6d20696e636f72726563742060448201526437bbb732b960d91b6064820152608401610d8b565b6001600160a01b03821661461d5760405162461bcd60e51b8152602060048201526024808201527f4552433732313a207472616e7366657220746f20746865207a65726f206164646044820152637265737360e01b6064820152608401610d8b565b61462883838361492d565b614633600082614457565b6001600160a01b038316600090815260036020526040812080546001929061465c908490615ea5565b90915550506001600160a01b038216600090815260036020526040812080546001929061468a908490615d59565b909155505060008181526002602052604080822080546001600160a01b0319166001600160a01b0386811691821790925591518493918716917fddf252ad1be2c89b69c2b068fc378daa952ba7f163c4a11628f55a4df523b3ef91a4505050565b6060828260405160200161470092919061649f565b604051602081830303815290604052905092915050565b612edb828260405180602001604052806000815250614a89565b638b78c6d81954331461214d576382b429006000526004601cfd5b638b78c6d81980546001600160a01b039092169182907f8be0079c531659141344cd1fd0a4f28419497f9722a3daafe3b4186f6b6457e0600080a355565b6060610c5882600080614abc565b60606080604051019050602081016040526000815280600019835b928101926030600a8206018453600a9004806147b3575050819003601f19909101908152919050565b816001600160a01b0316836001600160a01b03160361483d5760405162461bcd60e51b815260206004820152601960248201527f4552433732313a20617070726f766520746f2063616c6c6572000000000000006044820152606401610d8b565b6001600160a01b03838116600081815260056020908152604080832094871680845294825291829020805460ff191686151590811790915591519182527f17307eab39ab6107e8899845ad3d59bd9653f200f220920489ca2b5937696c31910160405180910390a3505050565b6148b5848484614544565b6148c184848484614ba3565b6131ee5760405162461bcd60e51b8152600401610d8b90616510565b60006001600160e01b031982166380ac58cd60e01b148061490e57506001600160e01b03198216635b5e139f60e01b145b80610c5857506301ffc9a760e01b6001600160e01b0319831614610c58565b60125460405162525fcd60e91b81526001600160a01b0384811660048301529091169063a4bf9a0090602401602060405180830381865afa158015614976573d6000803e3d6000fd5b505050506040513d601f19601f8201168201806040525081019061499a9190616562565b6000036149ba576040516326a45c0160e21b815260040160405180910390fd5b601354604051632e1d274f60e01b8152600481018390526001600160a01b0390911690632e1d274f90602401600060405180830381600087803b158015614a0057600080fd5b505af1158015614a14573d6000803e3d6000fd5b50506013546040516302fbe78f60e41b8152600481018590526001600160a01b0386811660248301529091169250632fbe78f09150604401600060405180830381600087803b158015614a6657600080fd5b505af1158015614a7a573d6000803e3d6000fd5b50505050610e2c838383614ca4565b614a938383614d5c565b614aa06000848484614ba3565b610e2c5760405162461bcd60e51b8152600401610d8b90616510565b606083518015611d8e576003600282010460021b60405192507f4142434445464748494a4b4c4d4e4f505152535455565758595a616263646566601f526106708515027f6768696a6b6c6d6e6f707172737475767778797a303132333435363738392d5f18603f52602083018181015b6003880197508751603f8160121c1651600053603f81600c1c1651600153603f8160061c1651600253603f811651600353506000518252600482019150808210614b2c57602001604052613d3d60f01b60038406600204808303919091526000861515909102918290035290038252509392505050565b60006001600160a01b0384163b15614c9957604051630a85bd0160e11b81526001600160a01b0385169063150b7a0290614be790339089908890889060040161657b565b6020604051808303816000875af1925050508015614c22575060408051601f3d908101601f19168201909252614c1f918101906165ae565b60015b614c7f573d808015614c50576040519150601f19603f3d011682016040523d82523d6000602084013e614c55565b606091505b508051600003614c775760405162461bcd60e51b8152600401610d8b90616510565b805181602001fd5b6001600160e01b031916630a85bd0160e11b14905061453c565b506001949350505050565b6001600160a01b038316614cff57614cfa81600880546000838152600960205260408120829055600182018355919091527ff3f7a9fe364faab93b216da50a3214154f22a0a2b415b23a84c8169e8b636ee30155565b614d22565b816001600160a01b0316836001600160a01b031614614d2257614d228382614eaa565b6001600160a01b038216614d3957610e2c81614f47565b826001600160a01b0316826001600160a01b031614610e2c57610e2c8282614ff6565b6001600160a01b038216614db25760405162461bcd60e51b815260206004820181905260248201527f4552433732313a206d696e7420746f20746865207a65726f20616464726573736044820152606401610d8b565b6000818152600260205260409020546001600160a01b031615614e175760405162461bcd60e51b815260206004820152601c60248201527f4552433732313a20746f6b656e20616c7265616479206d696e746564000000006044820152606401610d8b565b614e236000838361492d565b6001600160a01b0382166000908152600360205260408120805460019290614e4c908490615d59565b909155505060008181526002602052604080822080546001600160a01b0319166001600160a01b03861690811790915590518392907fddf252ad1be2c89b69c2b068fc378daa952ba7f163c4a11628f55a4df523b3ef908290a45050565b60006001614eb7846120b5565b614ec19190615ea5565b600083815260076020526040902054909150808214614f14576001600160a01b03841660009081526006602090815260408083208584528252808320548484528184208190558352600790915290208190555b5060009182526007602090815260408084208490556001600160a01b039094168352600681528383209183525290812055565b600854600090614f5990600190615ea5565b60008381526009602052604081205460088054939450909284908110614f8157614f81615cef565b906000526020600020015490508060088381548110614fa257614fa2615cef565b6000918252602080832090910192909255828152600990915260408082208490558582528120556008805480614fda57614fda6165cb565b6001900381819060005260206000200160009055905550505050565b6000615001836120b5565b6001600160a01b039093166000908152600660209081526040808320868452825280832085905593825260079052919091209190915550565b60408051610140810182526000808252606060208301529091820190815260200160608152602001606081526020016060815260200160006001600160a01b0316815260200160006001600160a01b0316815260200160608152602001606081525090565b6001600160e01b03198116811461191b57600080fd5b6000602082840312156150c757600080fd5b81356150d28161509f565b9392505050565b60005b838110156150f45781810151838201526020016150dc565b50506000910152565b600081518084526151158160208601602086016150d9565b601f01601f19169290920160200192915050565b6020815260006150d260208301846150fd565b60006020828403121561514e57600080fd5b5035919050565b6001600160a01b038116811461191b57600080fd5b803561517581615155565b919050565b6000806040838503121561518d57600080fd5b823561519881615155565b946020939093013593505050565b6000806000806000608086880312156151be57600080fd5b85356151c981615155565b945060208601356151d981615155565b93506040860135925060608601356001600160401b03808211156151fc57600080fd5b818801915088601f83011261521057600080fd5b81358181111561521f57600080fd5b89602082850101111561523157600080fd5b9699959850939650602001949392505050565b634e487b7160e01b600052602160045260246000fd5b6008811061527857634e487b7160e01b600052602160045260246000fd5b9052565b805182526020810151151560208301526040810151604083015260018060a01b0360608201511660608301526080810151608083015260a0810151610e2c60a084018261525a565b60c08101610c58828461527c565b634e487b7160e01b600052604160045260246000fd5b60405160c081016001600160401b038111828210171561530a5761530a6152d2565b60405290565b60405161014081016001600160401b038111828210171561530a5761530a6152d2565b60405161018081016001600160401b038111828210171561530a5761530a6152d2565b604051601f8201601f191681016001600160401b038111828210171561537e5761537e6152d2565b604052919050565b60006001600160401b0382111561539f5761539f6152d2565b50601f01601f191660200190565b600082601f8301126153be57600080fd5b81356153d16153cc82615386565b615356565b8181528460208386010111156153e657600080fd5b816020850160208301376000918101602001919091529392505050565b60006020828403121561541557600080fd5b81356001600160401b0381111561542b57600080fd5b61453c848285016153ad565b60008060006060848603121561544c57600080fd5b833561545781615155565b9250602084013561546781615155565b929592945050506040919091013590565b801515811461191b57600080fd5b803561517581615478565b6008811061191b57600080fd5b803561517581615491565b600060c082840312156154bb57600080fd5b6154c36152e8565b90508135815260208201356154d781615478565b60208201526040828101359082015260608201356154f481615155565b60608201526080828101359082015260a082013561551181615491565b60a082015292915050565b60008060e0838503121561552f57600080fd5b61553984846154a9565b9460c0939093013593505050565b60408152600061555a60408301856150fd565b82810360208401526131b381856150fd565b60008060e0838503121561557f57600080fd5b8235915061559084602085016154a9565b90509250929050565b6000602082840312156155ab57600080fd5b81356150d281615155565b6020808252825182820181905260009190848201906040850190845b818110156155ee578351835292840192918401916001016155d2565b50909695505050505050565b60006101408c83528060208401526156148184018d6150fd565b9050615623604084018c61525a565b8281036060840152615635818b6150fd565b90508281036080840152615649818a6150fd565b905082810360a084015261565d81896150fd565b6001600160a01b0388811660c0860152871660e0850152838103610100850152905061568981866150fd565b905082810361012084015261569e81856150fd565b9d9c50505050505050505050505050565b600080604083850312156156c257600080fd5b8235915060208301356001600160401b03808211156156e057600080fd5b9084019061014082870312156156f557600080fd5b6156fd615310565b8235815260208301358281111561571357600080fd5b61571f888286016153ad565b6020830152506157316040840161549e565b604082015260608301358281111561574857600080fd5b615754888286016153ad565b60608301525060808301358281111561576c57600080fd5b615778888286016153ad565b60808301525060a08301358281111561579057600080fd5b61579c888286016153ad565b60a0830152506157ae60c0840161516a565b60c08201526157bf60e0840161516a565b60e082015261010080840135838111156157d857600080fd5b6157e4898287016153ad565b82840152505061012080840135838111156157fe57600080fd5b61580a898287016153ad565b8284015250508093505050509250929050565b6000806040838503121561583057600080fd5b823561583b81615155565b9150602083013561584b81615478565b809150509250929050565b6000806000806080858703121561586c57600080fd5b843561587781615155565b9350602085013561588781615155565b92506040850135915060608501356001600160401b038111156158a957600080fd5b6158b5878288016153ad565b91505092959194509250565b803563ffffffff8116811461517557600080fd5b803560ff8116811461517557600080fd5b6000602082840312156158f857600080fd5b81356001600160401b038082111561590f57600080fd5b90830190610180828603121561592457600080fd5b61592c615333565b823581526020830135602082015260408301356040820152606083013560608201526080830135608082015260a083013560a082015260c083013560c082015261597860e084016158c1565b60e082015261010083810135908201526101206159968185016158d5565b9082015261014083810135838111156159ae57600080fd5b6159ba888287016153ad565b82840152505061016091506159d0828401615486565b91810191909152949350505050565b6060815260006159f260608301866150fd565b8281036020840152615a0481866150fd565b90508281036040840152615a1881856150fd565b9695505050505050565b602081528151602082015260006020830151610140806040850152615a4b6101608501836150fd565b91506040850151615a5f606086018261525a565b506060850151601f1980868503016080870152615a7c84836150fd565b935060808701519150808685030160a0870152615a9984836150fd565b935060a08701519150808685030160c0870152615ab684836150fd565b935060c08701519150615ad460e08701836001600160a01b03169052565b60e08701519150610100615af2818801846001600160a01b03169052565b80880151925050610120818786030181880152615b0f85846150fd565b908801518782039092018488015293509050615a1883826150fd565b600080600060608486031215615b4057600080fd5b8335925060208401356001600160401b0380821115615b5e57600080fd5b615b6a878388016153ad565b93506040860135915080821115615b8057600080fd5b50615b8d868287016153ad565b9150509250925092565b60008060408385031215615baa57600080fd5b82356001600160401b0380821115615bc157600080fd5b615bcd868387016153ad565b93506020850135915080821115615be357600080fd5b50615bf0858286016153ad565b9150509250929050565b60208101610c58828461525a565b60008060408385031215615c1b57600080fd5b8235615c2681615155565b9150602083013561584b81615155565b60008060008060808587031215615c4c57600080fd5b8435935060208501356001600160401b0380821115615c6a57600080fd5b615c76888389016153ad565b94506040870135915080821115615c8c57600080fd5b615c98888389016153ad565b93506060870135915080821115615cae57600080fd5b506158b5878288016153ad565b600181811c90821680615ccf57607f821691505b60208210810361334757634e487b7160e01b600052602260045260246000fd5b634e487b7160e01b600052603260045260246000fd5b634e487b7160e01b600052601260045260246000fd5b634e487b7160e01b600052601160045260246000fd5b600082615d4057615d40615d05565b500490565b600082615d5457615d54615d05565b500690565b80820180821115610c5857610c58615d1b565b600087516020615d7f8285838d016150d9565b885191840191615d928184848d016150d9565b8851920191615da48184848c016150d9565b8751920191615db68184848b016150d9565b8651920191615dc88184848a016150d9565b8551920191615dda81848489016150d9565b919091019998505050505050505050565b60008551615dfd818460208a016150d9565b681e3932b1ba103c1e9160b91b9083019081528551615e23816009840160208a016150d9565b6411103c9e9160d91b600992909101918201528451615e4981600e8401602089016150d9565b7f222077696474683d223122206865696768743d2231222066696c6c3d22230000600e92909101918201528351615e8781602c8401602088016150d9565b6211179f60e91b602c9290910191820152602f019695505050505050565b81810381811115610c5857610c58615d1b565b600060018201615eca57615eca615d1b565b5060010190565b6020808252602e908201527f4552433732313a2063616c6c6572206973206e6f7420746f6b656e206f776e6560408201526d1c881b9bdc88185c1c1c9bdd995960921b606082015260800190565b600060208284031215615f3157600080fd5b81516001600160401b03811115615f4757600080fd5b8201601f81018413615f5857600080fd5b8051615f666153cc82615386565b818152856020838501011115615f7b57600080fd5b6131b38260208301602086016150d9565b7f3c672069643d2267686f73742220636c6173733d226722207374796c653d226f81526d3830b1b4ba3c9d101a98129d911f60911b602082015260008251615fdb81602e8501602087016150d9565b631e17b39f60e11b602e939091019283015250603201919050565b8082028115828204841417610c5857610c58615d1b565b601f821115610e2c576000816000526020600020601f850160051c810160208610156160365750805b601f850160051c820191505b8181101561605557828155600101616042565b505050505050565b81516001600160401b03811115616076576160766152d2565b61608a816160848454615cbb565b8461600d565b602080601f8311600181146160bf57600084156160a75750858301515b600019600386901b1c1916600185901b178555616055565b600085815260208120601f198616915b828110156160ee578886015182559484019460019091019084016160cf565b508582101561610c5787850151600019600388901b60f8161c191681555b5050505050600190811b01905550565b6d2261747472696275746573223a5b60901b8152835160009061614681600e8501602089016150d9565b8083019050600b60fa1b80600e830152855161616981600f850160208a016150d9565b600f92019182015283516161848160108401602088016150d9565b605d60f81b6010929091019182015260110195945050505050565b600084516161b18184602089016150d9565b8451908301906161c58183602089016150d9565b84519101906161d88183602088016150d9565b651e17b9bb339f60d11b910190815260060195945050505050565b7f22696d616765223a22646174613a696d6167652f7376672b786d6c3b626173658152620d8d0b60ea1b6020820152600082516162378160238501602087016150d9565b601160f91b6023939091019283015250602401919050565b757b226e616d65223a225065746572205472616974202360501b815283516000906162818160168501602089016150d9565b7f222c226465736372697074696f6e223a2254686973206973206a757374206120601691840191820152651d195cdd088b60d21b603682015284516162cd81603c8401602089016150d9565b600b60fa1b603c929091019182015283516162ef81603d8401602088016150d9565b607d60f81b603d9290910191820152603e0195945050505050565b7f646174613a6170706c69636174696f6e2f6a736f6e3b6261736536342c00000081526000825161634281601d8501602087016150d9565b91909101601d0192915050565b6d1e339034b21e912a3930b4ba111f60911b8152815160009061637981600e8501602087016150d9565b631e17b39f60e11b600e939091019283015250601201919050565b831515815261010081016163ab602083018561527c565b6001600160801b03831660e0830152949350505050565b600060c082840312156163d457600080fd5b6163dc6152e8565b8251815260208301516163ee81615478565b602082015260408381015190820152606083015161640b81615155565b60608201526080838101519082015260a083015161642881615491565b60a08201529392505050565b600083516164468184602088016150d9565b83519083019061645a8183602088016150d9565b01949350505050565b600083516164758184602088016150d9565b600b60fa1b90830190815283516164938160018401602088016150d9565b01600101949350505050565b6e3d913a3930b4ba2fba3cb832911d1160891b815282516000906164ca81600f8501602088016150d9565b6a1116113b30b63ab2911d1160a91b600f9184019182015283516164f581601a8401602088016150d9565b61227d60f01b601a9290910191820152601c01949350505050565b60208082526032908201527f4552433732313a207472616e7366657220746f206e6f6e20455243373231526560408201527131b2b4bb32b91034b6b83632b6b2b73a32b960711b606082015260800190565b60006020828403121561657457600080fd5b5051919050565b6001600160a01b0385811682528416602082015260408101839052608060608201819052600090615a18908301846150fd565b6000602082840312156165c057600080fd5b81516150d28161509f565b634e487b7160e01b600052603160045260246000fdfe3c7376672073686170652d72656e646572696e673d2263726973704564676573222076696577426f783d22302030203330203330222066696c6c3d226e6f6e652220786d6c6e733d22687474703a2f2f7777772e77332e6f72672f323030302f737667223e3c7374796c653e726563747b77696474683a3170783b206865696768743a203170783b7d202e62677b77696474683a333070783b206865696768743a20333070783b7d203c2f7374796c653e3c7265637420636c6173733d226267222066696c6c3d2223304436453944222f3ea2646970667358221220ea32b801d6bf366b6e6f4af665e18935c44fa38db189a0467a1add5ac7a09d4a64736f6c63430008160033","linkReferences":{"src/TraitCategory.sol":{"TraitCategory":[{"start":7460,"length":20},{"start":12107,"length":20},{"start":17738,"length":20}]}}},"methodIdentifiers":{"approve(address,uint256)":"095ea7b3","balanceOf(address)":"70a08231","callGetSVGZmapAndMetadataTrait(uint256,string,string,bytes)":"f1271942","callGetSvgAndMetadataTrait(uint256,string,string)":"e08714a6","cancelOwnershipHandover()":"54d1f13d","completeOwnershipHandover(address)":"f04e283e","createSvgFromPixels(bytes)":"21b12c23","getApproved(uint256)":"081812fc","getCurrentEpoch()":"b97dd9e2","getEpoch()":"757991a8","getEpochData(uint256)":"859e7d32","getGhostSvg()":"5c1ef256","getSVGZmapAndMetadataTrait((uint256,bool,uint256,address,uint256,uint8),uint256)":"f901667f","getStoredTraitForTokenId(uint256)":"208c25a3","getSvgAndMetadata((uint256,uint256,uint256,uint256,uint256,uint256,uint256,uint32,uint256,uint8,string,bool))":"df2c2b88","getSvgAndMetadataTrait((uint256,bool,uint256,address,uint256,uint8),uint256)":"33a70328","getSvgForTokenId(uint256)":"c7791531","getSvgZmapsAndMetadata((uint256,uint256,uint256,uint256,uint256,uint256,uint256,uint32,uint256,uint8,string,bool))":"bb12d21d","getTrait(uint256)":"acb586df","getTraitImage(bytes)":"898aa117","getTraitImageSvg(uint256)":"a5e2912a","getTraitIndexToMetadata(uint256)":"ea139544","getTraitMetadata(uint256)":"d1bfc2af","getTraitType(uint256)":"e8a1268d","getZMapForTokenId(uint256)":"a8498c74","ghost()":"51dc7189","isApprovedForAll(address,address)":"e985e9c5","isMinter(address)":"aa271e1a","marketplace()":"abc8c7af","minter()":"07546172","name()":"06fdde03","onERC721Received(address,address,uint256,bytes)":"150b7a02","owner()":"8da5cb5b","ownerOf(uint256)":"6352211e","ownershipHandoverExpiresAt(address)":"fee81cf4","petersMain()":"1ca97604","renderAsDataUri(uint256)":"a1d62680","renounceOwnership()":"715018a6","requestOwnershipHandover()":"25692962","resolveEpochIfNecessary()":"239ffa68","safeMint(address)":"40d097c3","safeTransferFrom(address,address,uint256)":"42842e0e","safeTransferFrom(address,address,uint256,bytes)":"b88d4fde","setApprovalForAll(address,bool)":"a22cb465","setGhostMaps(bytes,bytes)":"e1defed9","setMarketplace(address)":"73ad6c2d","setPetersMain(address)":"a2c12c94","setTraitForTokenId(uint256,(uint256,bool,uint256,address,uint256,uint8))":"36d34ab9","setTraitIndexToMetadata(uint256,(uint256,string,uint8,string,bytes,bytes,address,address,string,string))":"8d37c537","signer()":"238ac933","supportsInterface(bytes4)":"01ffc9a7","symbol()":"95d89b41","tokenByIndex(uint256)":"4f6ccce7","tokenOfOwnerByIndex(address,uint256)":"2f745c59","tokenURI(uint256)":"c87b56dd","totalSupply()":"18160ddd","traitIndexToMetadata(uint256)":"817a29a4","traitTokens()":"e14d026f","transferFrom(address,address,uint256)":"23b872dd","transferOwnership(address)":"f2fde38b","walletOfOwner(address)":"438b6300"},"id":59}