{"abi":[{"type":"constructor","inputs":[{"name":"localDeploy_","type":"bool","internalType":"bool"}],"stateMutability":"nonpayable"},{"type":"function","name":"approve","inputs":[{"name":"_operator","type":"address","internalType":"address"},{"name":"_tokenId","type":"uint256","internalType":"uint256"}],"outputs":[],"stateMutability":"nonpayable"},{"type":"function","name":"balanceOf","inputs":[{"name":"owner","type":"address","internalType":"address"}],"outputs":[{"name":"","type":"uint256","internalType":"uint256"}],"stateMutability":"view"},{"type":"function","name":"burn","inputs":[{"name":"tokenId","type":"uint256","internalType":"uint256"}],"outputs":[],"stateMutability":"nonpayable"},{"type":"function","name":"burnBatch","inputs":[{"name":"tokenIds","type":"uint256[]","internalType":"uint256[]"}],"outputs":[],"stateMutability":"nonpayable"},{"type":"function","name":"callGetSVGZmapAndMetadataTrait","inputs":[{"name":"_traitId","type":"uint256","internalType":"uint256"},{"name":"_traitsSvg","type":"string","internalType":"string"},{"name":"_traitsAttributes","type":"string","internalType":"string"},{"name":"_traitZMaps","type":"bytes","internalType":"bytes"}],"outputs":[{"name":"traitsSvg","type":"string","internalType":"string"},{"name":"traitsAttributes","type":"string","internalType":"string"},{"name":"traitZMaps","type":"bytes","internalType":"bytes"}],"stateMutability":"view"},{"type":"function","name":"callGetSvgAndMetadataTrait","inputs":[{"name":"_traitId","type":"uint256","internalType":"uint256"},{"name":"_traitsSvg","type":"string","internalType":"string"},{"name":"_traitsAttributes","type":"string","internalType":"string"}],"outputs":[{"name":"traitsSvg","type":"string","internalType":"string"},{"name":"traitsAttributes","type":"string","internalType":"string"}],"stateMutability":"view"},{"type":"function","name":"cancelOwnershipHandover","inputs":[],"outputs":[],"stateMutability":"payable"},{"type":"function","name":"completeOwnershipHandover","inputs":[{"name":"pendingOwner","type":"address","internalType":"address"}],"outputs":[],"stateMutability":"payable"},{"type":"function","name":"createSvgFromPixels","inputs":[{"name":"_pixels","type":"bytes","internalType":"bytes"}],"outputs":[{"name":"svgParts","type":"bytes","internalType":"bytes"}],"stateMutability":"pure"},{"type":"function","name":"getApproved","inputs":[{"name":"tokenId","type":"uint256","internalType":"uint256"}],"outputs":[{"name":"","type":"address","internalType":"address"}],"stateMutability":"view"},{"type":"function","name":"getCurrentEpoch","inputs":[],"outputs":[{"name":"","type":"uint256","internalType":"uint256"}],"stateMutability":"view"},{"type":"function","name":"getEpoch","inputs":[],"outputs":[{"name":"","type":"uint256","internalType":"uint256"}],"stateMutability":"view"},{"type":"function","name":"getEpochData","inputs":[{"name":"index","type":"uint256","internalType":"uint256"}],"outputs":[{"name":"","type":"tuple","internalType":"struct CommitReveal.Epoch","components":[{"name":"randomness","type":"uint128","internalType":"uint128"},{"name":"revealBlock","type":"uint64","internalType":"uint64"},{"name":"committed","type":"bool","internalType":"bool"},{"name":"revealed","type":"bool","internalType":"bool"}]}],"stateMutability":"view"},{"type":"function","name":"getGhostSvg","inputs":[],"outputs":[{"name":"svg","type":"string","internalType":"string"}],"stateMutability":"view"},{"type":"function","name":"getSVGZmapAndMetadataTrait","inputs":[{"name":"trait","type":"tuple","internalType":"struct ITraitStorage.StoredTrait","components":[{"name":"epoch","type":"uint256","internalType":"uint256"},{"name":"isRevealed","type":"bool","internalType":"bool"},{"name":"seed","type":"uint256","internalType":"uint256"},{"name":"renderMinterContract","type":"address","internalType":"address"},{"name":"traitIndex","type":"uint256","internalType":"uint256"},{"name":"traitType","type":"uint8","internalType":"enum TraitCategory.Name"}]},{"name":"traitId","type":"uint256","internalType":"uint256"}],"outputs":[{"name":"traitSvg","type":"string","internalType":"string"},{"name":"traitZmap","type":"bytes","internalType":"bytes"},{"name":"traitAttributes","type":"string","internalType":"string"}],"stateMutability":"view"},{"type":"function","name":"getStoredTraitForTokenId","inputs":[{"name":"_tokenId","type":"uint256","internalType":"uint256"}],"outputs":[{"name":"","type":"tuple","internalType":"struct ITraitStorage.StoredTrait","components":[{"name":"epoch","type":"uint256","internalType":"uint256"},{"name":"isRevealed","type":"bool","internalType":"bool"},{"name":"seed","type":"uint256","internalType":"uint256"},{"name":"renderMinterContract","type":"address","internalType":"address"},{"name":"traitIndex","type":"uint256","internalType":"uint256"},{"name":"traitType","type":"uint8","internalType":"enum TraitCategory.Name"}]}],"stateMutability":"view"},{"type":"function","name":"getSvgAndMetadata","inputs":[{"name":"storedPeter","type":"tuple","internalType":"struct IPeterStorage.StoredPeter","components":[{"name":"headId","type":"uint256","internalType":"uint256"},{"name":"hairId","type":"uint256","internalType":"uint256"},{"name":"faceId","type":"uint256","internalType":"uint256"},{"name":"accessoryId","type":"uint256","internalType":"uint256"},{"name":"topId","type":"uint256","internalType":"uint256"},{"name":"bottomId","type":"uint256","internalType":"uint256"},{"name":"shoesId","type":"uint256","internalType":"uint256"},{"name":"epoch","type":"uint32","internalType":"uint32"},{"name":"tokenId","type":"uint256","internalType":"uint256"},{"name":"bodyIndex","type":"uint8","internalType":"uint8"},{"name":"backgroundColor","type":"string","internalType":"string"},{"name":"renderZ","type":"bool","internalType":"bool"}]}],"outputs":[{"name":"traitsSvg","type":"string","internalType":"string"},{"name":"traitsAttributes","type":"string","internalType":"string"}],"stateMutability":"view"},{"type":"function","name":"getSvgAndMetadataTrait","inputs":[{"name":"trait","type":"tuple","internalType":"struct ITraitStorage.StoredTrait","components":[{"name":"epoch","type":"uint256","internalType":"uint256"},{"name":"isRevealed","type":"bool","internalType":"bool"},{"name":"seed","type":"uint256","internalType":"uint256"},{"name":"renderMinterContract","type":"address","internalType":"address"},{"name":"traitIndex","type":"uint256","internalType":"uint256"},{"name":"traitType","type":"uint8","internalType":"enum TraitCategory.Name"}]},{"name":"traitId","type":"uint256","internalType":"uint256"}],"outputs":[{"name":"traitSvg","type":"string","internalType":"string"},{"name":"traitAttributes","type":"string","internalType":"string"}],"stateMutability":"view"},{"type":"function","name":"getSvgForTokenId","inputs":[{"name":"_tokenId","type":"uint256","internalType":"uint256"}],"outputs":[{"name":"traitSvg","type":"string","internalType":"string"}],"stateMutability":"view"},{"type":"function","name":"getSvgZmapsAndMetadata","inputs":[{"name":"storedPeter","type":"tuple","internalType":"struct IPeterStorage.StoredPeter","components":[{"name":"headId","type":"uint256","internalType":"uint256"},{"name":"hairId","type":"uint256","internalType":"uint256"},{"name":"faceId","type":"uint256","internalType":"uint256"},{"name":"accessoryId","type":"uint256","internalType":"uint256"},{"name":"topId","type":"uint256","internalType":"uint256"},{"name":"bottomId","type":"uint256","internalType":"uint256"},{"name":"shoesId","type":"uint256","internalType":"uint256"},{"name":"epoch","type":"uint32","internalType":"uint32"},{"name":"tokenId","type":"uint256","internalType":"uint256"},{"name":"bodyIndex","type":"uint8","internalType":"uint8"},{"name":"backgroundColor","type":"string","internalType":"string"},{"name":"renderZ","type":"bool","internalType":"bool"}]}],"outputs":[{"name":"traitsSvg","type":"string","internalType":"string"},{"name":"traitZMaps","type":"bytes","internalType":"bytes"},{"name":"traitsAttributes","type":"string","internalType":"string"}],"stateMutability":"view"},{"type":"function","name":"getTrait","inputs":[{"name":"_tokenId","type":"uint256","internalType":"uint256"}],"outputs":[{"name":"","type":"tuple","internalType":"struct ITraitStorage.StoredTrait","components":[{"name":"epoch","type":"uint256","internalType":"uint256"},{"name":"isRevealed","type":"bool","internalType":"bool"},{"name":"seed","type":"uint256","internalType":"uint256"},{"name":"renderMinterContract","type":"address","internalType":"address"},{"name":"traitIndex","type":"uint256","internalType":"uint256"},{"name":"traitType","type":"uint8","internalType":"enum TraitCategory.Name"}]}],"stateMutability":"view"},{"type":"function","name":"getTraitImage","inputs":[{"name":"colorMap","type":"bytes","internalType":"bytes"}],"outputs":[{"name":"","type":"bytes","internalType":"bytes"}],"stateMutability":"pure"},{"type":"function","name":"getTraitImageSvg","inputs":[{"name":"index","type":"uint256","internalType":"uint256"}],"outputs":[{"name":"svg","type":"string","internalType":"string"}],"stateMutability":"view"},{"type":"function","name":"getTraitIndexToMetadata","inputs":[{"name":"_traitIndex","type":"uint256","internalType":"uint256"}],"outputs":[{"name":"","type":"tuple","internalType":"struct ITraitStorage.TraitMetadata","components":[{"name":"traitIndex","type":"uint256","internalType":"uint256"},{"name":"traitName","type":"string","internalType":"string"},{"name":"traitType","type":"uint8","internalType":"enum TraitCategory.Name"},{"name":"animations","type":"string","internalType":"string"},{"name":"colorMap","type":"bytes","internalType":"bytes"},{"name":"zMap","type":"bytes","internalType":"bytes"},{"name":"renderMinterContract","type":"address","internalType":"address"},{"name":"creatorAddress","type":"address","internalType":"address"},{"name":"creatorName","type":"string","internalType":"string"},{"name":"season","type":"string","internalType":"string"}]}],"stateMutability":"view"},{"type":"function","name":"getTraitMetadata","inputs":[{"name":"_tokenId","type":"uint256","internalType":"uint256"}],"outputs":[{"name":"","type":"tuple","internalType":"struct ITraitStorage.TraitMetadata","components":[{"name":"traitIndex","type":"uint256","internalType":"uint256"},{"name":"traitName","type":"string","internalType":"string"},{"name":"traitType","type":"uint8","internalType":"enum TraitCategory.Name"},{"name":"animations","type":"string","internalType":"string"},{"name":"colorMap","type":"bytes","internalType":"bytes"},{"name":"zMap","type":"bytes","internalType":"bytes"},{"name":"renderMinterContract","type":"address","internalType":"address"},{"name":"creatorAddress","type":"address","internalType":"address"},{"name":"creatorName","type":"string","internalType":"string"},{"name":"season","type":"string","internalType":"string"}]}],"stateMutability":"view"},{"type":"function","name":"getTraitType","inputs":[{"name":"_tokenId","type":"uint256","internalType":"uint256"}],"outputs":[{"name":"","type":"uint8","internalType":"enum TraitCategory.Name"}],"stateMutability":"view"},{"type":"function","name":"getZMapForTokenId","inputs":[{"name":"_tokenId","type":"uint256","internalType":"uint256"}],"outputs":[{"name":"","type":"string","internalType":"string"}],"stateMutability":"view"},{"type":"function","name":"ghost","inputs":[],"outputs":[{"name":"colorMap","type":"bytes","internalType":"bytes"},{"name":"zMap","type":"bytes","internalType":"bytes"}],"stateMutability":"view"},{"type":"function","name":"invalidateAllOperatorApprovals","inputs":[{"name":"_tokenId","type":"uint256","internalType":"uint256"}],"outputs":[],"stateMutability":"nonpayable"},{"type":"function","name":"isApprovedForAll","inputs":[{"name":"owner","type":"address","internalType":"address"},{"name":"operator","type":"address","internalType":"address"}],"outputs":[{"name":"","type":"bool","internalType":"bool"}],"stateMutability":"view"},{"type":"function","name":"isMinter","inputs":[{"name":"","type":"address","internalType":"address"}],"outputs":[{"name":"","type":"bool","internalType":"bool"}],"stateMutability":"view"},{"type":"function","name":"marketplace","inputs":[],"outputs":[{"name":"","type":"address","internalType":"contract ChonksMarket"}],"stateMutability":"view"},{"type":"function","name":"minter","inputs":[],"outputs":[{"name":"","type":"address","internalType":"address"}],"stateMutability":"view"},{"type":"function","name":"name","inputs":[],"outputs":[{"name":"","type":"string","internalType":"string"}],"stateMutability":"view"},{"type":"function","name":"onERC721Received","inputs":[{"name":"","type":"address","internalType":"address"},{"name":"","type":"address","internalType":"address"},{"name":"","type":"uint256","internalType":"uint256"},{"name":"","type":"bytes","internalType":"bytes"}],"outputs":[{"name":"","type":"bytes4","internalType":"bytes4"}],"stateMutability":"pure"},{"type":"function","name":"owner","inputs":[],"outputs":[{"name":"result","type":"address","internalType":"address"}],"stateMutability":"view"},{"type":"function","name":"ownerOf","inputs":[{"name":"tokenId","type":"uint256","internalType":"uint256"}],"outputs":[{"name":"","type":"address","internalType":"address"}],"stateMutability":"view"},{"type":"function","name":"ownershipHandoverExpiresAt","inputs":[{"name":"pendingOwner","type":"address","internalType":"address"}],"outputs":[{"name":"result","type":"uint256","internalType":"uint256"}],"stateMutability":"view"},{"type":"function","name":"petersMain","inputs":[],"outputs":[{"name":"","type":"address","internalType":"contract PetersMain"}],"stateMutability":"view"},{"type":"function","name":"renderAsDataUri","inputs":[{"name":"_tokenId","type":"uint256","internalType":"uint256"}],"outputs":[{"name":"","type":"string","internalType":"string"}],"stateMutability":"view"},{"type":"function","name":"renounceOwnership","inputs":[],"outputs":[],"stateMutability":"payable"},{"type":"function","name":"requestOwnershipHandover","inputs":[],"outputs":[],"stateMutability":"payable"},{"type":"function","name":"resolveEpochIfNecessary","inputs":[],"outputs":[],"stateMutability":"nonpayable"},{"type":"function","name":"safeMint","inputs":[{"name":"_to","type":"address","internalType":"address"}],"outputs":[{"name":"","type":"uint256","internalType":"uint256"}],"stateMutability":"nonpayable"},{"type":"function","name":"safeTransferFrom","inputs":[{"name":"from","type":"address","internalType":"address"},{"name":"to","type":"address","internalType":"address"},{"name":"tokenId","type":"uint256","internalType":"uint256"}],"outputs":[],"stateMutability":"nonpayable"},{"type":"function","name":"safeTransferFrom","inputs":[{"name":"from","type":"address","internalType":"address"},{"name":"to","type":"address","internalType":"address"},{"name":"tokenId","type":"uint256","internalType":"uint256"},{"name":"data","type":"bytes","internalType":"bytes"}],"outputs":[],"stateMutability":"nonpayable"},{"type":"function","name":"setApprovalForAll","inputs":[{"name":"_operator","type":"address","internalType":"address"},{"name":"_approved","type":"bool","internalType":"bool"}],"outputs":[],"stateMutability":"nonpayable"},{"type":"function","name":"setGhostMaps","inputs":[{"name":"_colorMap","type":"bytes","internalType":"bytes"},{"name":"_zMap","type":"bytes","internalType":"bytes"}],"outputs":[],"stateMutability":"nonpayable"},{"type":"function","name":"setMarketplace","inputs":[{"name":"_marketplace","type":"address","internalType":"address"}],"outputs":[],"stateMutability":"nonpayable"},{"type":"function","name":"setPetersMain","inputs":[{"name":"_petersMain","type":"address","internalType":"address"}],"outputs":[],"stateMutability":"nonpayable"},{"type":"function","name":"setTraitForTokenId","inputs":[{"name":"_tokenId","type":"uint256","internalType":"uint256"},{"name":"_trait","type":"tuple","internalType":"struct ITraitStorage.StoredTrait","components":[{"name":"epoch","type":"uint256","internalType":"uint256"},{"name":"isRevealed","type":"bool","internalType":"bool"},{"name":"seed","type":"uint256","internalType":"uint256"},{"name":"renderMinterContract","type":"address","internalType":"address"},{"name":"traitIndex","type":"uint256","internalType":"uint256"},{"name":"traitType","type":"uint8","internalType":"enum TraitCategory.Name"}]}],"outputs":[],"stateMutability":"nonpayable"},{"type":"function","name":"setTraitIndexToMetadata","inputs":[{"name":"_traitIndex","type":"uint256","internalType":"uint256"},{"name":"_metadata","type":"tuple","internalType":"struct ITraitStorage.TraitMetadata","components":[{"name":"traitIndex","type":"uint256","internalType":"uint256"},{"name":"traitName","type":"string","internalType":"string"},{"name":"traitType","type":"uint8","internalType":"enum TraitCategory.Name"},{"name":"animations","type":"string","internalType":"string"},{"name":"colorMap","type":"bytes","internalType":"bytes"},{"name":"zMap","type":"bytes","internalType":"bytes"},{"name":"renderMinterContract","type":"address","internalType":"address"},{"name":"creatorAddress","type":"address","internalType":"address"},{"name":"creatorName","type":"string","internalType":"string"},{"name":"season","type":"string","internalType":"string"}]}],"outputs":[],"stateMutability":"nonpayable"},{"type":"function","name":"signer","inputs":[],"outputs":[{"name":"","type":"address","internalType":"address"}],"stateMutability":"view"},{"type":"function","name":"supportsInterface","inputs":[{"name":"interfaceId","type":"bytes4","internalType":"bytes4"}],"outputs":[{"name":"","type":"bool","internalType":"bool"}],"stateMutability":"view"},{"type":"function","name":"symbol","inputs":[],"outputs":[{"name":"","type":"string","internalType":"string"}],"stateMutability":"view"},{"type":"function","name":"tokenByIndex","inputs":[{"name":"index","type":"uint256","internalType":"uint256"}],"outputs":[{"name":"","type":"uint256","internalType":"uint256"}],"stateMutability":"view"},{"type":"function","name":"tokenOfOwnerByIndex","inputs":[{"name":"owner","type":"address","internalType":"address"},{"name":"index","type":"uint256","internalType":"uint256"}],"outputs":[{"name":"","type":"uint256","internalType":"uint256"}],"stateMutability":"view"},{"type":"function","name":"tokenURI","inputs":[{"name":"_tokenId","type":"uint256","internalType":"uint256"}],"outputs":[{"name":"","type":"string","internalType":"string"}],"stateMutability":"view"},{"type":"function","name":"totalSupply","inputs":[],"outputs":[{"name":"","type":"uint256","internalType":"uint256"}],"stateMutability":"view"},{"type":"function","name":"traitIdToApprovedOperators","inputs":[{"name":"traitId","type":"uint256","internalType":"uint256"},{"name":"","type":"uint256","internalType":"uint256"}],"outputs":[{"name":"operators","type":"address","internalType":"address"}],"stateMutability":"view"},{"type":"function","name":"traitIndexToMetadata","inputs":[{"name":"","type":"uint256","internalType":"uint256"}],"outputs":[{"name":"traitIndex","type":"uint256","internalType":"uint256"},{"name":"traitName","type":"string","internalType":"string"},{"name":"traitType","type":"uint8","internalType":"enum TraitCategory.Name"},{"name":"animations","type":"string","internalType":"string"},{"name":"colorMap","type":"bytes","internalType":"bytes"},{"name":"zMap","type":"bytes","internalType":"bytes"},{"name":"renderMinterContract","type":"address","internalType":"address"},{"name":"creatorAddress","type":"address","internalType":"address"},{"name":"creatorName","type":"string","internalType":"string"},{"name":"season","type":"string","internalType":"string"}],"stateMutability":"view"},{"type":"function","name":"traitTokens","inputs":[],"outputs":[{"name":"epoch","type":"uint256","internalType":"uint256"}],"stateMutability":"view"},{"type":"function","name":"transferFrom","inputs":[{"name":"from","type":"address","internalType":"address"},{"name":"to","type":"address","internalType":"address"},{"name":"tokenId","type":"uint256","internalType":"uint256"}],"outputs":[],"stateMutability":"nonpayable"},{"type":"function","name":"transferOwnership","inputs":[{"name":"newOwner","type":"address","internalType":"address"}],"outputs":[],"stateMutability":"payable"},{"type":"function","name":"walletOfOwner","inputs":[{"name":"_owner","type":"address","internalType":"address"}],"outputs":[{"name":"","type":"uint256[]","internalType":"uint256[]"}],"stateMutability":"view"},{"type":"event","name":"AllOperatorApprovalsInvalidated","inputs":[{"name":"tokenId","type":"uint256","indexed":true,"internalType":"uint256"}],"anonymous":false},{"type":"event","name":"Approval","inputs":[{"name":"owner","type":"address","indexed":true,"internalType":"address"},{"name":"approved","type":"address","indexed":true,"internalType":"address"},{"name":"tokenId","type":"uint256","indexed":true,"internalType":"uint256"}],"anonymous":false},{"type":"event","name":"ApprovalForAll","inputs":[{"name":"owner","type":"address","indexed":true,"internalType":"address"},{"name":"operator","type":"address","indexed":true,"internalType":"address"},{"name":"approved","type":"bool","indexed":false,"internalType":"bool"}],"anonymous":false},{"type":"event","name":"BatchMetadataUpdate","inputs":[{"name":"_fromTokenId","type":"uint256","indexed":false,"internalType":"uint256"},{"name":"_toTokenId","type":"uint256","indexed":false,"internalType":"uint256"}],"anonymous":false},{"type":"event","name":"MetadataUpdate","inputs":[{"name":"_tokenId","type":"uint256","indexed":false,"internalType":"uint256"}],"anonymous":false},{"type":"event","name":"Mint","inputs":[{"name":"owner","type":"address","indexed":true,"internalType":"address"},{"name":"tokenId","type":"uint256","indexed":true,"internalType":"uint256"}],"anonymous":false},{"type":"event","name":"NewEpoch","inputs":[{"name":"epoch","type":"uint256","indexed":true,"internalType":"uint256"},{"name":"revealBlock","type":"uint64","indexed":true,"internalType":"uint64"}],"anonymous":false},{"type":"event","name":"OwnershipHandoverCanceled","inputs":[{"name":"pendingOwner","type":"address","indexed":true,"internalType":"address"}],"anonymous":false},{"type":"event","name":"OwnershipHandoverRequested","inputs":[{"name":"pendingOwner","type":"address","indexed":true,"internalType":"address"}],"anonymous":false},{"type":"event","name":"OwnershipTransferred","inputs":[{"name":"oldOwner","type":"address","indexed":true,"internalType":"address"},{"name":"newOwner","type":"address","indexed":true,"internalType":"address"}],"anonymous":false},{"type":"event","name":"Transfer","inputs":[{"name":"from","type":"address","indexed":true,"internalType":"address"},{"name":"to","type":"address","indexed":true,"internalType":"address"},{"name":"tokenId","type":"uint256","indexed":true,"internalType":"uint256"}],"anonymous":false},{"type":"error","name":"AlreadyInitialized","inputs":[]},{"type":"error","name":"CantTransfer","inputs":[]},{"type":"error","name":"NewOwnerIsZeroAddress","inputs":[]},{"type":"error","name":"NoHandoverRequest","inputs":[]},{"type":"error","name":"NotATBA","inputs":[]},{"type":"error","name":"NotAValidMinterContract","inputs":[]},{"type":"error","name":"NotYourTrait","inputs":[]},{"type":"error","name":"TraitNotFound","inputs":[{"name":"_tokenId","type":"uint256","internalType":"uint256"}]},{"type":"error","name":"TraitTokenDoesntExist","inputs":[]},{"type":"error","name":"Unauthorized","inputs":[]}],"bytecode":{"object":"0x60806040523480156200001157600080fd5b506040516200748b3803806200748b8339810160408190526200003491620000fa565b6040518060400160405280600b81526020016a506574657254726169747360a81b81525060405180604001604052806003815260200162282a2960e91b8152508160009081620000859190620001cc565b506001620000948282620001cc565b50506001600a5550620000a733620000be565b6017805460ff191691151591909117905562000298565b6001600160a01b0316638b78c6d8198190558060007f8be0079c531659141344cd1fd0a4f28419497f9722a3daafe3b4186f6b6457e08180a350565b6000602082840312156200010d57600080fd5b815180151581146200011e57600080fd5b9392505050565b634e487b7160e01b600052604160045260246000fd5b600181811c908216806200015057607f821691505b6020821081036200017157634e487b7160e01b600052602260045260246000fd5b50919050565b601f821115620001c7576000816000526020600020601f850160051c81016020861015620001a25750805b601f850160051c820191505b81811015620001c357828155600101620001ae565b5050505b505050565b81516001600160401b03811115620001e857620001e862000125565b6200020081620001f984546200013b565b8462000177565b602080601f8311600181146200023857600084156200021f5750858301515b600019600386901b1c1916600185901b178555620001c3565b600085815260208120601f198616915b82811015620002695788860151825594840194600190910190840162000248565b5085821015620002885787850151600019600388901b60f8161c191681555b5050505050600190811b01905550565b6171e380620002a86000396000f3fe6080604052600436106103ce5760003560e01c8063859e7d32116101fd578063bb12d21d11610118578063e4623c1b116100ab578063f04e283e1161007a578063f04e283e14610c60578063f127194214610c73578063f2fde38b14610c93578063f901667f14610ca6578063fee81cf414610cc657600080fd5b8063e4623c1b14610baa578063e8a1268d14610bca578063e985e9c514610bf7578063ea13954414610c4057600080fd5b8063df2c2b88116100e7578063df2c2b8814610b33578063e08714a614610b53578063e14d026f14610b73578063e1defed914610b8a57600080fd5b8063bb12d21d14610a97578063c779153114610ac6578063c87b56dd14610ae6578063d1bfc2af14610b0657600080fd5b8063a2c12c9411610190578063abc8c7af1161015f578063abc8c7af14610a37578063acb586df14610a57578063b88d4fde14610a77578063b97dd9e2146107a757600080fd5b8063a2c12c94146109a7578063a5e2912a146109c7578063a8498c74146109e7578063aa271e1a14610a0757600080fd5b806390f63842116101cc57806390f638421461093257806395d89b4114610952578063a1d6268014610967578063a22cb4651461098757600080fd5b8063859e7d32146107f2578063898aa117146108d95780638d37c537146108f95780638da5cb5b1461091957600080fd5b806333a70328116102ed57806354d1f13d11610280578063715018a61161024f578063715018a61461077f57806373ad6c2d14610787578063757991a8146107a7578063817a29a4146107bc57600080fd5b806354d1f13d146107225780635c1ef2561461072a5780636352211e1461073f57806370a082311461075f57600080fd5b806342966c68116102bc57806342966c68146106a0578063438b6300146106c05780634f6ccce7146106ed57806351dc71891461070d57600080fd5b806333a703281461061257806336d34ab91461064057806340d097c31461066057806342842e0e1461068057600080fd5b80631ca9760411610365578063239ffa6811610334578063239ffa68146105b557806323b872dd146105ca57806325692962146105ea5780632f745c59146105f257600080fd5b80631ca9760414610528578063208c25a31461054857806321b12c2314610575578063238ac9331461059557600080fd5b8063095ea7b3116103a1578063095ea7b31461048257806311f3910d146104a4578063150b7a02146104c457806318160ddd1461050957600080fd5b806301ffc9a7146103d357806306fdde0314610408578063075461721461042a578063081812fc14610462575b600080fd5b3480156103df57600080fd5b506103f36103ee366004615a9b565b610cf9565b60405190151581526020015b60405180910390f35b34801561041457600080fd5b5061041d610d0a565b6040516103ff9190615b0f565b34801561043657600080fd5b5060105461044a906001600160a01b031681565b6040516001600160a01b0390911681526020016103ff565b34801561046e57600080fd5b5061044a61047d366004615b22565b610d9c565b34801561048e57600080fd5b506104a261049d366004615b60565b610dc3565b005b3480156104b057600080fd5b5061044a6104bf366004615b8c565b610fee565b3480156104d057600080fd5b506104f06104df366004615bae565b630a85bd0160e11b95945050505050565b6040516001600160e01b031990911681526020016103ff565b34801561051557600080fd5b506008545b6040519081526020016103ff565b34801561053457600080fd5b5060145461044a906001600160a01b031681565b34801561055457600080fd5b50610568610563366004615b22565b611026565b6040516103ff9190615ccc565b34801561058157600080fd5b5061041d610590366004615e0b565b6110ee565b3480156105a157600080fd5b5060115461044a906001600160a01b031681565b3480156105c157600080fd5b506104a2611937565b3480156105d657600080fd5b506104a26105e5366004615e3f565b611b13565b6104a2611b52565b3480156105fe57600080fd5b5061051a61060d366004615b60565b611ba1565b34801561061e57600080fd5b5061063261062d366004615f24565b611c37565b6040516103ff929190615f4f565b34801561064c57600080fd5b506104a261065b366004615f74565b611de1565b34801561066c57600080fd5b5061051a61067b366004615fa1565b611e7a565b34801561068c57600080fd5b506104a261069b366004615e3f565b611f43565b3480156106ac57600080fd5b506104a26106bb366004615b22565b611f5e565b3480156106cc57600080fd5b506106e06106db366004615fa1565b611f67565b6040516103ff9190615fbe565b3480156106f957600080fd5b5061051a610708366004615b22565b611ffe565b34801561071957600080fd5b50610632612091565b6104a26121b1565b34801561073657600080fd5b5061041d6121ed565b34801561074b57600080fd5b5061044a61075a366004615b22565b6122bd565b34801561076b57600080fd5b5061051a61077a366004615fa1565b61231d565b6104a26123a3565b34801561079357600080fd5b506104a26107a2366004615fa1565b6123b7565b3480156107b357600080fd5b50600c5461051a565b3480156107c857600080fd5b506107dc6107d7366004615b22565b6123e1565b6040516103ff9a99989796959493929190616002565b3480156107fe57600080fd5b5061089061080d366004615b22565b6040805160808082018352600080835260208084018290528385018290526060938401829052948152600d855283902083519182018452546001600160801b03811682526001600160401b03600160801b8204169482019490945260ff600160c01b85048116151593820193909352600160c81b90930490911615159082015290565b6040516103ff919081516001600160801b031681526020808301516001600160401b03169082015260408083015115159082015260609182015115159181019190915260800190565b3480156108e557600080fd5b5061041d6108f4366004615e0b565b612779565b34801561090557600080fd5b506104a26109143660046160b7565b6129cb565b34801561092557600080fd5b50638b78c6d8195461044a565b34801561093e57600080fd5b506104a261094d366004615b22565b612aca565b34801561095e57600080fd5b5061041d612c21565b34801561097357600080fd5b5061041d610982366004615b22565b612c30565b34801561099357600080fd5b506104a26109a2366004616225565b61328f565b3480156109b357600080fd5b506104a26109c2366004615fa1565b6134cc565b3480156109d357600080fd5b5061041d6109e2366004615b22565b6134f6565b3480156109f357600080fd5b5061041d610a02366004615b22565b613552565b348015610a1357600080fd5b506103f3610a22366004615fa1565b60166020526000908152604090205460ff1681565b348015610a4357600080fd5b5060155461044a906001600160a01b031681565b348015610a6357600080fd5b50610568610a72366004615b22565b61360a565b348015610a8357600080fd5b506104a2610a9236600461625e565b6137a9565b348015610aa357600080fd5b50610ab7610ab23660046162ee565b6137e1565b6040516103ff939291906163e7565b348015610ad257600080fd5b5061041d610ae1366004615b22565b6138e0565b348015610af257600080fd5b5061041d610b01366004615b22565b61393a565b348015610b1257600080fd5b50610b26610b21366004615b22565b61397b565b6040516103ff919061642a565b348015610b3f57600080fd5b50610632610b4e3660046162ee565b613d88565b348015610b5f57600080fd5b50610632610b6e366004616533565b613e67565b348015610b7f57600080fd5b50600c5461051a9081565b348015610b9657600080fd5b506104a2610ba536600461659f565b613ef2565b348015610bb657600080fd5b506104a2610bc5366004616602565b613f13565b348015610bd657600080fd5b50610bea610be5366004615b22565b613f49565b6040516103ff91906166a7565b348015610c0357600080fd5b506103f3610c123660046166b5565b6001600160a01b03918216600090815260056020908152604080832093909416825291909152205460ff1690565b348015610c4c57600080fd5b50610b26610c5b366004615b22565b614356565b6104a2610c6e366004615fa1565b614751565b348015610c7f57600080fd5b50610ab7610c8e3660046166e3565b61478e565b6104a2610ca1366004615fa1565b614848565b348015610cb257600080fd5b50610ab7610cc1366004615f24565b61486f565b348015610cd257600080fd5b5061051a610ce1366004615fa1565b63389a75e1600c908152600091909152602090205490565b6000610d04826149f6565b92915050565b606060008054610d1990616768565b80601f0160208091040260200160405190810160405280929190818152602001828054610d4590616768565b8015610d925780601f10610d6757610100808354040283529160200191610d92565b820191906000526020600020905b815481529060010190602001808311610d7557829003601f168201915b5050505050905090565b6000610da782614a1b565b506000908152600460205260409020546001600160a01b031690565b6000818152600260205260409020546001600160a01b0316610df857604051632df0e24560e21b815260040160405180910390fd5b33610e02826122bd565b6001600160a01b031614610e2957604051633e79b9f360e01b815260040160405180910390fd5b6001600160a01b038216610f4a576000818152601360205260408120905b8154811015610f4357836001600160a01b0316828281548110610e6c57610e6c61679c565b6000918252602090912001546001600160a01b031603610f3b5781548290610e96906001906167c8565b81548110610ea657610ea661679c565b9060005260206000200160009054906101000a90046001600160a01b0316828281548110610ed657610ed661679c565b9060005260206000200160006101000a8154816001600160a01b0302191690836001600160a01b0316021790555081805480610f1457610f146167db565b600082815260209020810160001990810180546001600160a01b0319169055019055610f43565b600101610e47565b5050610fe0565b600081815260136020526040812090805b8254811015610fab57846001600160a01b0316838281548110610f8057610f8061679c565b6000918252602090912001546001600160a01b031603610fa35760019150610fab565b600101610f5b565b5080610fdd5781546001810183556000838152602090200180546001600160a01b0319166001600160a01b0386161790555b50505b610fea8282614a7a565b5050565b6013602052816000526040600020818154811061100a57600080fd5b6000918252602090912001546001600160a01b03169150829050565b61105c6040805160c08101825260008082526020820181905291810182905260608101829052608081018290529060a082015290565b6000828152600b6020908152604091829020825160c08101845281548152600182015460ff90811615159382019390935260028201549381019390935260038101546001600160a01b03166060840152600481015460808401526005810154909160a08401911660078111156110d4576110d4615c4c565b60078111156110e5576110e5615c4c565b90525092915050565b60606000604051806102000160405280604051806040016040528060018152602001600360fc1b8152508152602001604051806040016040528060018152602001603160f81b8152508152602001604051806040016040528060018152602001601960f91b8152508152602001604051806040016040528060018152602001603360f81b8152508152602001604051806040016040528060018152602001600d60fa1b8152508152602001604051806040016040528060018152602001603560f81b8152508152602001604051806040016040528060018152602001601b60f91b8152508152602001604051806040016040528060018152602001603760f81b8152508152602001604051806040016040528060018152602001600760fb1b8152508152602001604051806040016040528060018152602001603960f81b8152508152602001604051806040016040528060018152602001606160f81b8152508152602001604051806040016040528060018152602001603160f91b8152508152602001604051806040016040528060018152602001606360f81b8152508152602001604051806040016040528060018152602001601960fa1b8152508152602001604051806040016040528060018152602001606560f81b8152508152602001604051806040016040528060018152602001603360f91b81525081525090506000604051806103c00160405280604051806040016040528060018152602001600360fc1b8152508152602001604051806040016040528060018152602001603160f81b8152508152602001604051806040016040528060018152602001601960f91b8152508152602001604051806040016040528060018152602001603360f81b8152508152602001604051806040016040528060018152602001600d60fa1b8152508152602001604051806040016040528060018152602001603560f81b8152508152602001604051806040016040528060018152602001601b60f91b8152508152602001604051806040016040528060018152602001603760f81b8152508152602001604051806040016040528060018152602001600760fb1b8152508152602001604051806040016040528060018152602001603960f81b815250815260200160405180604001604052806002815260200161031360f41b815250815260200160405180604001604052806002815260200161313160f01b815250815260200160405180604001604052806002815260200161189960f11b815250815260200160405180604001604052806002815260200161313360f01b8152508152602001604051806040016040528060028152602001610c4d60f21b815250815260200160405180604001604052806002815260200161313560f01b815250815260200160405180604001604052806002815260200161189b60f11b815250815260200160405180604001604052806002815260200161313760f01b815250815260200160405180604001604052806002815260200161062760f31b815250815260200160405180604001604052806002815260200161313960f01b815250815260200160405180604001604052806002815260200161032360f41b815250815260200160405180604001604052806002815260200161323160f01b815250815260200160405180604001604052806002815260200161191960f11b815250815260200160405180604001604052806002815260200161323360f01b8152508152602001604051806040016040528060028152602001610c8d60f21b815250815260200160405180604001604052806002815260200161323560f01b815250815260200160405180604001604052806002815260200161191b60f11b815250815260200160405180604001604052806002815260200161323760f01b815250815260200160405180604001604052806002815260200161064760f31b815250815260200160405180604001604052806002815260200161323960f01b815250815250905060005b61119481101561192f57600060f81b8582815181106116d6576116d661679c565b01602001516001600160f81b031916111561191d576000601e6116fa600584616807565b611704919061681b565b90506000601e611715600585616807565b61171f9190616807565b905060008560048961173287600261682f565b815181106117425761174261679c565b016020015160f81c901c60ff166010811061175f5761175f61679c565b6020020151868961177187600261682f565b815181106117815761178161679c565b60209101015160f81c600f166010811061179d5761179d61679c565b60200201518760048b6117b189600361682f565b815181106117c1576117c161679c565b016020015160f81c901c60ff16601081106117de576117de61679c565b6020020151888b6117f089600361682f565b815181106118005761180061679c565b60209101015160f81c600f166010811061181c5761181c61679c565b60200201518960048d61182f8b8361682f565b8151811061183f5761183f61679c565b016020015160f81c901c60ff166010811061185c5761185c61679c565b60200201518a8d61186e8b600461682f565b8151811061187e5761187e61679c565b60209101015160f81c600f166010811061189a5761189a61679c565b60200201516040516020016118b496959493929190616842565b6040516020818303038152906040529050868584601e81106118d8576118d861679c565b60200201518684601e81106118ef576118ef61679c565b60200201518360405160200161190894939291906168c1565b60405160208183030381529060405296505050505b61192860058261682f565b90506116b5565b505050919050565b600c546000908152600d602052604090208054600160c01b900460ff16158061198f57508054600160c81b900460ff1615801561198f575061197b610100436167c8565b8154600160801b90046001600160401b0316105b156119da5761199f43603261682f565b815460ff60c01b196001600160401b0392909216600160801b029190911668ffffffffffffffffff60801b1990911617600160c01b17815550565b8054600160801b90046001600160401b0316431115611b1057805460408051600160801b9092046001600160401b031640602083015244908201526001600160801b03906060016040516020818303038152906040528051906020012060001c611a44919061681b565b8154600160c81b6001600160801b039290921679ff000000000000000000ffffffffffffffffffffffffffffffff199091161717808255600c54604051600160801b9092046001600160401b0316917f78611aecfda8d341359c248df527c95aef93d446c92bb928b2a81b7abcb1d8d990600090a3604080516000815260001960208201527f6bd5c950a8d8df17f772f5af37cb3655737899cbf903264b9795592da439661c910160405180910390a1600c8054600090611b049061697b565b90915550611b10611937565b50565b611b1d3382614b8a565b611b425760405162461bcd60e51b8152600401611b3990616994565b60405180910390fd5b611b4d838383614c09565b505050565b60006202a3006001600160401b03164201905063389a75e1600c5233600052806020600c2055337fdbf36a107da19e49527a7176a1babf963b4b0ff8cde35ee35d6cd8f1f9ac7e1d600080a250565b6000611bac8361231d565b8210611c0e5760405162461bcd60e51b815260206004820152602b60248201527f455243373231456e756d657261626c653a206f776e657220696e646578206f7560448201526a74206f6620626f756e647360a81b6064820152608401611b39565b506001600160a01b03919091166000908152600660209081526040808320938352929052205490565b60608083602001518015611c4b5750600083115b15611d9657608084015160009081526012602052604090819020600281015491516301be83d160e11b81529091611d7f9173__$4987fe9f4e800c5c4c1535f64ed232842a$__9163037d07a291611ca89160ff16906004016166a7565b600060405180830381865af4158015611cc5573d6000803e3d6000fd5b505050506040513d6000823e601f3d908101601f19168201604052611ced91908101906169e2565b826001018054611cfc90616768565b80601f0160208091040260200160405190810160405280929190818152602001828054611d2890616768565b8015611d755780601f10611d4a57610100808354040283529160200191611d75565b820191906000526020600020905b815481529060010190602001808311611d5857829003601f168201915b5050505050614db6565b9150611d8e85608001516134f6565b925050611dda565b604051806040016040528060028152602001617b7d60f01b81525090506040518060400160405280600b81526020016a1e39bb339f1e17b9bb339f60a91b81525091505b9250929050565b6000828152600b602090815260409182902083518155908301516001808301805492151560ff1993841617905592840151600283015560608401516003830180546001600160a01b039092166001600160a01b03199092169190911790556080840151600483015560a0840151600583018054869592939192911690836007811115611e6f57611e6f615c4c565b021790555050505050565b60006002600a5403611ece5760405162461bcd60e51b815260206004820152601f60248201527f5265656e7472616e637947756172643a207265656e7472616e742063616c6c006044820152606401611b39565b6002600a55611edb611937565b6000611ee660085490565b611ef190600161682f565b9050611efd8382614de2565b604080516000815260001960208201527f6bd5c950a8d8df17f772f5af37cb3655737899cbf903264b9795592da439661c910160405180910390a16001600a5592915050565b611b4d838383604051806020016040528060008152506137a9565b611b1081614dfc565b60606000611f748361231d565b90506000816001600160401b03811115611f9057611f90615cda565b604051908082528060200260200182016040528015611fb9578160200160208202803683370190505b50905060005b82811015611ff657611fd18582611ba1565b828281518110611fe357611fe361679c565b6020908102919091010152600101611fbf565b509392505050565b600061200960085490565b821061206c5760405162461bcd60e51b815260206004820152602c60248201527f455243373231456e756d657261626c653a20676c6f62616c20696e646578206f60448201526b7574206f6620626f756e647360a01b6064820152608401611b39565b6008828154811061207f5761207f61679c565b90600052602060002001549050919050565b600e805481906120a090616768565b80601f01602080910402602001604051908101604052809291908181526020018280546120cc90616768565b80156121195780601f106120ee57610100808354040283529160200191612119565b820191906000526020600020905b8154815290600101906020018083116120fc57829003601f168201915b50505050509080600101805461212e90616768565b80601f016020809104026020016040519081016040528092919081815260200182805461215a90616768565b80156121a75780601f1061217c576101008083540402835291602001916121a7565b820191906000526020600020905b81548152906001019060200180831161218a57829003601f168201915b5050505050905082565b63389a75e1600c523360005260006020600c2055337ffa7b8eab7da67f412cc9575ed43464468f9bfbae89d1675917346ca6d8fe3c92600080a2565b60606000612287600e600001805461220490616768565b80601f016020809104026020016040519081016040528092919081815260200182805461223090616768565b801561227d5780601f106122525761010080835404028352916020019161227d565b820191906000526020600020905b81548152906001019060200180831161226057829003601f168201915b5050505050612779565b90506000612294826110ee565b9050806040516020016122a79190616a4f565b6040516020818303038152906040529250505090565b6000818152600260205260408120546001600160a01b031680610d045760405162461bcd60e51b8152602060048201526018602482015277115490cdcc8c4e881a5b9d985b1a59081d1bdad95b88125160421b6044820152606401611b39565b60006001600160a01b0382166123875760405162461bcd60e51b815260206004820152602960248201527f4552433732313a2061646472657373207a65726f206973206e6f7420612076616044820152683634b21037bbb732b960b91b6064820152608401611b39565b506001600160a01b031660009081526003602052604090205490565b6123ab614eab565b6123b56000614ec6565b565b6123bf614eab565b601580546001600160a01b0319166001600160a01b0392909216919091179055565b6012602052600090815260409020805460018201805491929161240390616768565b80601f016020809104026020016040519081016040528092919081815260200182805461242f90616768565b801561247c5780601f106124515761010080835404028352916020019161247c565b820191906000526020600020905b81548152906001019060200180831161245f57829003601f168201915b5050506002840154600385018054949560ff9092169491935091506124a090616768565b80601f01602080910402602001604051908101604052809291908181526020018280546124cc90616768565b80156125195780601f106124ee57610100808354040283529160200191612519565b820191906000526020600020905b8154815290600101906020018083116124fc57829003601f168201915b50505050509080600401805461252e90616768565b80601f016020809104026020016040519081016040528092919081815260200182805461255a90616768565b80156125a75780601f1061257c576101008083540402835291602001916125a7565b820191906000526020600020905b81548152906001019060200180831161258a57829003601f168201915b5050505050908060050180546125bc90616768565b80601f01602080910402602001604051908101604052809291908181526020018280546125e890616768565b80156126355780601f1061260a57610100808354040283529160200191612635565b820191906000526020600020905b81548152906001019060200180831161261857829003601f168201915b5050506006840154600785015460088601805495966001600160a01b039384169692909316945091925061266890616768565b80601f016020809104026020016040519081016040528092919081815260200182805461269490616768565b80156126e15780601f106126b6576101008083540402835291602001916126e1565b820191906000526020600020905b8154815290600101906020018083116126c457829003601f168201915b5050505050908060090180546126f690616768565b80601f016020809104026020016040519081016040528092919081815260200182805461272290616768565b801561276f5780601f106127445761010080835404028352916020019161276f565b820191906000526020600020905b81548152906001019060200180831161275257829003601f168201915b505050505090508a565b8051604080516111948082526111c08201909252606092916000919060208201818036833701905050905060006127b1600584616807565b905060005b818110156129c15760006127cb826005616ab9565b905060008782815181106127e1576127e161679c565b016020015160f81c90506000886127f984600161682f565b815181106128095761280961679c565b016020015160f81c9050600060ff831661282483601e616ab9565b61282e919061682f565b612839906005616ab9565b905089848151811061284d5761284d61679c565b602001015160f81c60f81b87828151811061286a5761286a61679c565b60200101906001600160f81b031916908160001a9053508984600101815181106128965761289661679c565b602001015160f81c60f81b8782600101815181106128b6576128b661679c565b60200101906001600160f81b031916908160001a9053508984600201815181106128e2576128e261679c565b602001015160f81c60f81b8782600201815181106129025761290261679c565b60200101906001600160f81b031916908160001a90535089846003018151811061292e5761292e61679c565b602001015160f81c60f81b87826003018151811061294e5761294e61679c565b60200101906001600160f81b031916908160001a90535089846004018151811061297a5761297a61679c565b602001015160f81c60f81b87826004018151811061299a5761299a61679c565b60200101906001600160f81b031916908160001a90535050600190930192506127b6915050565b5090949350505050565b6000828152601260209081526040909120825181559082015182919060018201906129f69082616b18565b50604082015160028201805460ff19166001836007811115612a1a57612a1a615c4c565b021790555060608201516003820190612a339082616b18565b5060808201516004820190612a489082616b18565b5060a08201516005820190612a5d9082616b18565b5060c08201516006820180546001600160a01b039283166001600160a01b03199182161790915560e08401516007840180549190931691161790556101008201516008820190612aad9082616b18565b506101208201516009820190612ac39082616b18565b5050505050565b6000818152600260205260409020546001600160a01b0316612aff57604051632df0e24560e21b815260040160405180910390fd5b33612b09826122bd565b6001600160a01b031614612b3057604051633e79b9f360e01b815260040160405180910390fd5b6000818152601360205260408120612b47916159e9565b612b52600082614a7a565b600081815260136020908152604080832080548251818502810185019093528083529192909190830182828015612bb257602002820191906000526020600020905b81546001600160a01b03168152600190910190602001808311612b94575b5050505050905060005b8151811015612bf157612be9828281518110612bda57612bda61679c565b60200260200101516000614f04565b600101612bbc565b5060405182907fe6727257e6b1474b2ced9b705eafa89027508be445f1a76db669635c92f5242090600090a25050565b606060018054610d1990616768565b6060806060806000612c406121ed565b90506000612c4d8761360a565b905080602001511561316d57600060126000836080015181526020019081526020016000206040518061014001604052908160008201548152602001600182018054612c9890616768565b80601f0160208091040260200160405190810160405280929190818152602001828054612cc490616768565b8015612d115780601f10612ce657610100808354040283529160200191612d11565b820191906000526020600020905b815481529060010190602001808311612cf457829003601f168201915b5050509183525050600282015460209091019060ff166007811115612d3857612d38615c4c565b6007811115612d4957612d49615c4c565b8152602001600382018054612d5d90616768565b80601f0160208091040260200160405190810160405280929190818152602001828054612d8990616768565b8015612dd65780601f10612dab57610100808354040283529160200191612dd6565b820191906000526020600020905b815481529060010190602001808311612db957829003601f168201915b50505050508152602001600482018054612def90616768565b80601f0160208091040260200160405190810160405280929190818152602001828054612e1b90616768565b8015612e685780601f10612e3d57610100808354040283529160200191612e68565b820191906000526020600020905b815481529060010190602001808311612e4b57829003601f168201915b50505050508152602001600582018054612e8190616768565b80601f0160208091040260200160405190810160405280929190818152602001828054612ead90616768565b8015612efa5780601f10612ecf57610100808354040283529160200191612efa565b820191906000526020600020905b815481529060010190602001808311612edd57829003601f168201915b505050918352505060068201546001600160a01b0390811660208301526007830154166040820152600882018054606090920191612f3790616768565b80601f0160208091040260200160405190810160405280929190818152602001828054612f6390616768565b8015612fb05780601f10612f8557610100808354040283529160200191612fb0565b820191906000526020600020905b815481529060010190602001808311612f9357829003601f168201915b50505050508152602001600982018054612fc990616768565b80601f0160208091040260200160405190810160405280929190818152602001828054612ff590616768565b80156130425780601f1061301757610100808354040283529160200191613042565b820191906000526020600020905b81548152906001019060200180831161302557829003601f168201915b505050505081525050905061305a82608001516134f6565b94506130e973__$4987fe9f4e800c5c4c1535f64ed232842a$__63037d07a28460a001516040518263ffffffff1660e01b815260040161309a91906166a7565b600060405180830381865af41580156130b7573d6000803e3d6000fd5b505050506040513d6000823e601f3d908101601f191682016040526130df91908101906169e2565b8260200151614db6565b6131176040518060400160405280600781526020016621b932b0ba37b960c91b815250836101000151614db6565b6131446040518060400160405280600681526020016529b2b0b9b7b760d11b815250846101200151614db6565b60405160200161315693929190616bd7565b6040516020818303038152906040529350506131be565b6040518060400160405280600f81526020016e2261747472696275746573223a5b5d60881b81525092506040518060400160405280600b81526020016a1e39bb339f1e17b9bb339f60a91b81525093505b60405180610100016040528060d281526020016170dc60d2913982856040516020016131ec93929190616c5a565b6040516020818303038152906040529450600061320886614f0f565b6040516020016132189190616cae565b6040516020818303038152906040529050600061323489614f1d565b858360405160200161324893929190616d0a565b604051602081830303815290604052905061326281614f0f565b6040516020016132729190616dc5565b604051602081830303815290604052975050505050505050919050565b336001600160a01b038316036132e35760405162461bcd60e51b815260206004820152601960248201527822a9219b99189d1030b8383937bb32903a379031b0b63632b960391b6044820152606401611b39565b60006132ee3361231d565b905060005b818110156134c15760006133073383611ba1565b905083156133a957600081815260136020526040812090805b825481101561337057876001600160a01b03168382815481106133455761334561679c565b6000918252602090912001546001600160a01b0316036133685760019150613370565b600101613320565b50806133a25781546001810183556000838152602090200180546001600160a01b0319166001600160a01b0389161790555b50506134b8565b6000818152601360205260408120905b81548110156134b557866001600160a01b03168282815481106133de576133de61679c565b6000918252602090912001546001600160a01b0316036134ad5781548290613408906001906167c8565b815481106134185761341861679c565b9060005260206000200160009054906101000a90046001600160a01b03168282815481106134485761344861679c565b9060005260206000200160006101000a8154816001600160a01b0302191690836001600160a01b0316021790555081805480613486576134866167db565b600082815260209020810160001990810180546001600160a01b03191690550190556134b5565b6001016133b9565b50505b506001016132f3565b50611b4d8383614f04565b6134d4614eab565b601480546001600160a01b0319166001600160a01b0392909216919091179055565b600081815260126020526040812060040180546060929161351a9161220490616768565b90506000613527826110ee565b90508060405160200161353a9190616e0a565b60405160208183030381529060405292505050919050565b6060600061355f8361360a565b6080810151600090815260126020526040902060050180549192509061358490616768565b80601f01602080910402602001604051908101604052809291908181526020018280546135b090616768565b80156135fd5780601f106135d2576101008083540402835291602001916135fd565b820191906000526020600020905b8154815290600101906020018083116135e057829003601f168201915b5050505050915050919050565b6136406040805160c08101825260008082526020820181905291810182905260608101829052608081018290529060a082015290565b6000828152600b60209081526040808320815160c08101835281548152600182015460ff90811615159482019490945260028201549281019290925260038101546001600160a01b031660608301526004810154608083015260058101549192909160a08401911660078111156136b9576136b9615c4c565b60078111156136ca576136ca615c4c565b90525080516000908152600d602052604090205460608201519192506001600160801b0316906001600160a01b03811615801561370957506040830151155b1561372a5760405163082d451d60e01b815260048101869052602401611b39565b60175460405163687d69df60e11b81526001600160a01b0383169163d0fad3be9161375f9160ff169087908790600401616e4f565b60c060405180830381865afa15801561377c573d6000803e3d6000fd5b505050506040513d601f19601f820116820180604052508101906137a09190616e7d565b95945050505050565b6137b33383614b8a565b6137cf5760405162461bcd60e51b8152600401611b3990616994565b6137db84848484614f61565b50505050565b606080606060008460c00151111561380c576138038460c0015184838561478e565b91945090925090505b60a08401511561382f576138268460a0015184838561478e565b91945090925090505b60808401511561385257613849846080015184838561478e565b91945090925090505b6040840151156138755761386c846040015184838561478e565b91945090925090505b6020840151156138985761388f846020015184838561478e565b91945090925090505b8351156138b65783516138ad9084838561478e565b91945090925090505b6060840151156138d9576138d0846060015184838561478e565b91945090925090505b9193909250565b606060006138ed8361360a565b905080602001511561390d5761390681608001516134f6565b9150613934565b6040518060400160405280600b81526020016a1e39bb339f1e17b9bb339f60a91b81525091505b50919050565b6000818152600260205260409020546060906001600160a01b031661397257604051632df0e24560e21b815260040160405180910390fd5b610d0482612c30565b613983615a07565b600061398e8361360a565b9050601260008260800151815260200190815260200160002060405180610140016040529081600082015481526020016001820180546139cd90616768565b80601f01602080910402602001604051908101604052809291908181526020018280546139f990616768565b8015613a465780601f10613a1b57610100808354040283529160200191613a46565b820191906000526020600020905b815481529060010190602001808311613a2957829003601f168201915b5050509183525050600282015460209091019060ff166007811115613a6d57613a6d615c4c565b6007811115613a7e57613a7e615c4c565b8152602001600382018054613a9290616768565b80601f0160208091040260200160405190810160405280929190818152602001828054613abe90616768565b8015613b0b5780601f10613ae057610100808354040283529160200191613b0b565b820191906000526020600020905b815481529060010190602001808311613aee57829003601f168201915b50505050508152602001600482018054613b2490616768565b80601f0160208091040260200160405190810160405280929190818152602001828054613b5090616768565b8015613b9d5780601f10613b7257610100808354040283529160200191613b9d565b820191906000526020600020905b815481529060010190602001808311613b8057829003601f168201915b50505050508152602001600582018054613bb690616768565b80601f0160208091040260200160405190810160405280929190818152602001828054613be290616768565b8015613c2f5780601f10613c0457610100808354040283529160200191613c2f565b820191906000526020600020905b815481529060010190602001808311613c1257829003601f168201915b505050918352505060068201546001600160a01b0390811660208301526007830154166040820152600882018054606090920191613c6c90616768565b80601f0160208091040260200160405190810160405280929190818152602001828054613c9890616768565b8015613ce55780601f10613cba57610100808354040283529160200191613ce5565b820191906000526020600020905b815481529060010190602001808311613cc857829003601f168201915b50505050508152602001600982018054613cfe90616768565b80601f0160208091040260200160405190810160405280929190818152602001828054613d2a90616768565b8015613d775780601f10613d4c57610100808354040283529160200191613d77565b820191906000526020600020905b815481529060010190602001808311613d5a57829003601f168201915b505050505081525050915050919050565b60608060008360c001511115613dad57613da78360c001518383613e67565b90925090505b60a083015115613dcc57613dc68360a001518383613e67565b90925090505b608083015115613deb57613de583608001518383613e67565b90925090505b604083015115613e0a57613e0483604001518383613e67565b90925090505b602083015115613e2957613e2383602001518383613e67565b90925090505b825115613e43578251613e3d908383613e67565b90925090505b606083015115613e6257613e5c83606001518383613e67565b90925090505b915091565b6060806060806000613e788861360a565b9050613e848189611c37565b8751909450909250600003613e9e57819450829350613ee7565b8682604051602001613eb1929190616eef565b60405160208183030381529060405294508583604051602001613ed5929190616f1e565b60405160208183030381529060405293505b505050935093915050565b613efa614eab565b600e613f068382616b18565b50600f611b4d8282616b18565b60005b8151811015610fea57613f41828281518110613f3457613f3461679c565b6020026020010151614dfc565b600101613f16565b600080613f558361360a565b9050600060126000836080015181526020019081526020016000206040518061014001604052908160008201548152602001600182018054613f9690616768565b80601f0160208091040260200160405190810160405280929190818152602001828054613fc290616768565b801561400f5780601f10613fe45761010080835404028352916020019161400f565b820191906000526020600020905b815481529060010190602001808311613ff257829003601f168201915b5050509183525050600282015460209091019060ff16600781111561403657614036615c4c565b600781111561404757614047615c4c565b815260200160038201805461405b90616768565b80601f016020809104026020016040519081016040528092919081815260200182805461408790616768565b80156140d45780601f106140a9576101008083540402835291602001916140d4565b820191906000526020600020905b8154815290600101906020018083116140b757829003601f168201915b505050505081526020016004820180546140ed90616768565b80601f016020809104026020016040519081016040528092919081815260200182805461411990616768565b80156141665780601f1061413b57610100808354040283529160200191614166565b820191906000526020600020905b81548152906001019060200180831161414957829003601f168201915b5050505050815260200160058201805461417f90616768565b80601f01602080910402602001604051908101604052809291908181526020018280546141ab90616768565b80156141f85780601f106141cd576101008083540402835291602001916141f8565b820191906000526020600020905b8154815290600101906020018083116141db57829003601f168201915b505050918352505060068201546001600160a01b039081166020830152600783015416604082015260088201805460609092019161423590616768565b80601f016020809104026020016040519081016040528092919081815260200182805461426190616768565b80156142ae5780601f10614283576101008083540402835291602001916142ae565b820191906000526020600020905b81548152906001019060200180831161429157829003601f168201915b505050505081526020016009820180546142c790616768565b80601f01602080910402602001604051908101604052809291908181526020018280546142f390616768565b80156143405780601f1061431557610100808354040283529160200191614340565b820191906000526020600020905b81548152906001019060200180831161432357829003601f168201915b5050509190925250505060400151949350505050565b61435e615a07565b60126000838152602001908152602001600020604051806101400160405290816000820154815260200160018201805461439790616768565b80601f01602080910402602001604051908101604052809291908181526020018280546143c390616768565b80156144105780601f106143e557610100808354040283529160200191614410565b820191906000526020600020905b8154815290600101906020018083116143f357829003601f168201915b5050509183525050600282015460209091019060ff16600781111561443757614437615c4c565b600781111561444857614448615c4c565b815260200160038201805461445c90616768565b80601f016020809104026020016040519081016040528092919081815260200182805461448890616768565b80156144d55780601f106144aa576101008083540402835291602001916144d5565b820191906000526020600020905b8154815290600101906020018083116144b857829003601f168201915b505050505081526020016004820180546144ee90616768565b80601f016020809104026020016040519081016040528092919081815260200182805461451a90616768565b80156145675780601f1061453c57610100808354040283529160200191614567565b820191906000526020600020905b81548152906001019060200180831161454a57829003601f168201915b5050505050815260200160058201805461458090616768565b80601f01602080910402602001604051908101604052809291908181526020018280546145ac90616768565b80156145f95780601f106145ce576101008083540402835291602001916145f9565b820191906000526020600020905b8154815290600101906020018083116145dc57829003601f168201915b505050918352505060068201546001600160a01b039081166020830152600783015416604082015260088201805460609092019161463690616768565b80601f016020809104026020016040519081016040528092919081815260200182805461466290616768565b80156146af5780601f10614684576101008083540402835291602001916146af565b820191906000526020600020905b81548152906001019060200180831161469257829003601f168201915b505050505081526020016009820180546146c890616768565b80601f01602080910402602001604051908101604052809291908181526020018280546146f490616768565b80156147415780601f1061471657610100808354040283529160200191614741565b820191906000526020600020905b81548152906001019060200180831161472457829003601f168201915b5050505050815250509050919050565b614759614eab565b63389a75e1600c52806000526020600c20805442111561478157636f5e88186000526004601cfd5b60009055611b1081614ec6565b60608060608060608060006147a28b61360a565b90506147ae818c61486f565b8b5190965091945092506000036147cd5782965083955081945061483a565b89836040516020016147e0929190616eef565b60405160208183030381529060405296508884604051602001614804929190616f1e565b60405160208183030381529060405295508782604051602001614828929190616eef565b60405160208183030381529060405294505b505050509450945094915050565b614850614eab565b8060601b61486657637448fbae6000526004601cfd5b611b1081614ec6565b6060806060846020015180156148855750600084115b1561499957608085018051600090815260126020526040902090516148a9906134f6565b60028201546040516301be83d160e11b81529195506148ee9173__$4987fe9f4e800c5c4c1535f64ed232842a$__9163037d07a291611ca89160ff16906004016166a7565b6080870151600090815260126020526040902060050180549193509061491390616768565b80601f016020809104026020016040519081016040528092919081815260200182805461493f90616768565b801561498c5780601f106149615761010080835404028352916020019161498c565b820191906000526020600020905b81548152906001019060200180831161496f57829003601f168201915b50505050509250506149ef565b6040518060400160405280600b81526020016a1e39bb339f1e17b9bb339f60a91b8152509250604051806040016040528060028152602001617b7d60f01b81525090506040518060200160405280600081525091505b9250925092565b60006001600160e01b0319821663780e9d6360e01b1480610d045750610d0482614f94565b6000818152600260205260409020546001600160a01b0316611b105760405162461bcd60e51b8152602060048201526018602482015277115490cdcc8c4e881a5b9d985b1a59081d1bdad95b88125160421b6044820152606401611b39565b6000614a85826122bd565b9050806001600160a01b0316836001600160a01b031603614af25760405162461bcd60e51b815260206004820152602160248201527f4552433732313a20617070726f76616c20746f2063757272656e74206f776e656044820152603960f91b6064820152608401611b39565b336001600160a01b0382161480614b0e5750614b0e8133610c12565b614b805760405162461bcd60e51b815260206004820152603e60248201527f4552433732313a20617070726f76652063616c6c6572206973206e6f7420746f60448201527f6b656e206f776e6572206e6f7220617070726f76656420666f7220616c6c00006064820152608401611b39565b611b4d8383614fe4565b600080614b96836122bd565b9050806001600160a01b0316846001600160a01b03161480614bdd57506001600160a01b0380821660009081526005602090815260408083209388168352929052205460ff165b80614c015750836001600160a01b0316614bf684610d9c565b6001600160a01b0316145b949350505050565b826001600160a01b0316614c1c826122bd565b6001600160a01b031614614c805760405162461bcd60e51b815260206004820152602560248201527f4552433732313a207472616e736665722066726f6d20696e636f72726563742060448201526437bbb732b960d91b6064820152608401611b39565b6001600160a01b038216614ce25760405162461bcd60e51b8152602060048201526024808201527f4552433732313a207472616e7366657220746f20746865207a65726f206164646044820152637265737360e01b6064820152608401611b39565b614ced838383615052565b614cf8600082614fe4565b6001600160a01b0383166000908152600360205260408120805460019290614d219084906167c8565b90915550506001600160a01b0382166000908152600360205260408120805460019290614d4f90849061682f565b909155505060008181526002602052604080822080546001600160a01b0319166001600160a01b0386811691821790925591518493918716917fddf252ad1be2c89b69c2b068fc378daa952ba7f163c4a11628f55a4df523b3ef91a4611b4d8383836151ba565b60608282604051602001614dcb929190616f5a565b604051602081830303815290604052905092915050565b610fea82826040518060200160405280600081525061529e565b6000614e07826122bd565b9050614e1581600084615052565b614e20600083614fe4565b6001600160a01b0381166000908152600360205260408120805460019290614e499084906167c8565b909155505060008281526002602052604080822080546001600160a01b0319169055518391906001600160a01b038416907fddf252ad1be2c89b69c2b068fc378daa952ba7f163c4a11628f55a4df523b3ef908390a4610fea816000846151ba565b638b78c6d8195433146123b5576382b429006000526004601cfd5b638b78c6d81980546001600160a01b039092169182907f8be0079c531659141344cd1fd0a4f28419497f9722a3daafe3b4186f6b6457e0600080a355565b610fea3383836152d1565b6060610d048260008061539b565b60606080604051019050602081016040526000815280600019835b928101926030600a8206018453600a900480614f38575050819003601f19909101908152919050565b614f6c848484614c09565b614f7884848484615482565b6137db5760405162461bcd60e51b8152600401611b3990616fcb565b60006001600160e01b031982166380ac58cd60e01b1480614fc557506001600160e01b03198216635b5e139f60e01b145b80610d0457506301ffc9a760e01b6001600160e01b0319831614610d04565b600081815260046020526040902080546001600160a01b0319166001600160a01b0384169081179091558190615019826122bd565b6001600160a01b03167f8c5be1e5ebec7d5bd14f71427d1e84f3dd0314c0f7b2291e5b200ac8c7c3b92560405160405180910390a45050565b601554604051634f6088cd60e01b8152600481018390526000916001600160a01b031690634f6088cd90602401608060405180830381865afa15801561509c573d6000803e3d6000fd5b505050506040513d601f19601f820116820180604052508101906150c0919061701d565b5090925050506001600160a01b03811615615100576015546001600160a01b031633146151005760405163bf646b0f60e01b815260040160405180910390fd5b6001600160a01b038316615123576151188284615583565b6137db84848461564b565b60145460405162525fcd60e91b81526001600160a01b0385811660048301529091169063a4bf9a0090602401602060405180830381865afa15801561516c573d6000803e3d6000fd5b505050506040513d601f19601f820116820180604052508101906151909190617072565b6000036151b0576040516326a45c0160e21b815260040160405180910390fd5b6151188284615583565b60006151c5826122bd565b60145460405162525fcd60e91b81526001600160a01b0380841660048301529293506000929091169063a4bf9a0090602401602060405180830381865afa158015615214573d6000803e3d6000fd5b505050506040513d601f19601f820116820180604052508101906152389190617072565b60155460405163236313ff60e11b8152600481018390529192506001600160a01b0316906346c627fe90602401600060405180830381600087803b15801561527f57600080fd5b505af1158015615293573d6000803e3d6000fd5b505050505050505050565b6152a88383615703565b6152b56000848484615482565b611b4d5760405162461bcd60e51b8152600401611b3990616fcb565b816001600160a01b0316836001600160a01b03160361532e5760405162461bcd60e51b815260206004820152601960248201527822a9219b99189d1030b8383937bb32903a379031b0b63632b960391b6044820152606401611b39565b6001600160a01b03838116600081815260056020908152604080832094871680845294825291829020805460ff191686151590811790915591519182527f17307eab39ab6107e8899845ad3d59bd9653f200f220920489ca2b5937696c31910160405180910390a3505050565b606083518015611ff6576003600282010460021b60405192507f4142434445464748494a4b4c4d4e4f505152535455565758595a616263646566601f526106708515027f6768696a6b6c6d6e6f707172737475767778797a303132333435363738392d5f18603f52602083018181015b6003880197508751603f8160121c1651600053603f81600c1c1651600153603f8160061c1651600253603f81165160035350600051825260048201915080821061540b57602001604052613d3d60f01b60038406600204808303919091526000861515909102918290035290038252509392505050565b60006001600160a01b0384163b1561557857604051630a85bd0160e11b81526001600160a01b0385169063150b7a02906154c690339089908890889060040161708b565b6020604051808303816000875af1925050508015615501575060408051601f3d908101601f191682019092526154fe918101906170be565b60015b61555e573d80801561552f576040519150601f19603f3d011682016040523d82523d6000602084013e615534565b606091505b5080516000036155565760405162461bcd60e51b8152600401611b3990616fcb565b805181602001fd5b6001600160e01b031916630a85bd0160e11b149050614c01565b506001949350505050565b601554604051632e1d274f60e01b8152600481018490526001600160a01b0390911690632e1d274f90602401600060405180830381600087803b1580156155c957600080fd5b505af11580156155dd573d6000803e3d6000fd5b50506015546040516302fbe78f60e41b8152600481018690526001600160a01b0385811660248301529091169250632fbe78f09150604401600060405180830381600087803b15801561562f57600080fd5b505af1158015615643573d6000803e3d6000fd5b505050505050565b6001600160a01b0383166156a6576156a181600880546000838152600960205260408120829055600182018355919091527ff3f7a9fe364faab93b216da50a3214154f22a0a2b415b23a84c8169e8b636ee30155565b6156c9565b816001600160a01b0316836001600160a01b0316146156c9576156c98382615859565b6001600160a01b0382166156e057611b4d816158f6565b826001600160a01b0316826001600160a01b031614611b4d57611b4d82826159a5565b6001600160a01b0382166157595760405162461bcd60e51b815260206004820181905260248201527f4552433732313a206d696e7420746f20746865207a65726f20616464726573736044820152606401611b39565b6000818152600260205260409020546001600160a01b0316156157be5760405162461bcd60e51b815260206004820152601c60248201527f4552433732313a20746f6b656e20616c7265616479206d696e746564000000006044820152606401611b39565b6157ca60008383615052565b6001600160a01b03821660009081526003602052604081208054600192906157f390849061682f565b909155505060008181526002602052604080822080546001600160a01b0319166001600160a01b03861690811790915590518392907fddf252ad1be2c89b69c2b068fc378daa952ba7f163c4a11628f55a4df523b3ef908290a4610fea600083836151ba565b600060016158668461231d565b61587091906167c8565b6000838152600760205260409020549091508082146158c3576001600160a01b03841660009081526006602090815260408083208584528252808320548484528184208190558352600790915290208190555b5060009182526007602090815260408084208490556001600160a01b039094168352600681528383209183525290812055565b600854600090615908906001906167c8565b600083815260096020526040812054600880549394509092849081106159305761593061679c565b9060005260206000200154905080600883815481106159515761595161679c565b6000918252602080832090910192909255828152600990915260408082208490558582528120556008805480615989576159896167db565b6001900381819060005260206000200160009055905550505050565b60006159b08361231d565b6001600160a01b039093166000908152600660209081526040808320868452825280832085905593825260079052919091209190915550565b5080546000825590600052602060002090810190611b109190615a6c565b60408051610140810182526000808252606060208301529091820190815260200160608152602001606081526020016060815260200160006001600160a01b0316815260200160006001600160a01b0316815260200160608152602001606081525090565b5b80821115615a815760008155600101615a6d565b5090565b6001600160e01b031981168114611b1057600080fd5b600060208284031215615aad57600080fd5b8135615ab881615a85565b9392505050565b60005b83811015615ada578181015183820152602001615ac2565b50506000910152565b60008151808452615afb816020860160208601615abf565b601f01601f19169290920160200192915050565b602081526000615ab86020830184615ae3565b600060208284031215615b3457600080fd5b5035919050565b6001600160a01b0381168114611b1057600080fd5b8035615b5b81615b3b565b919050565b60008060408385031215615b7357600080fd5b8235615b7e81615b3b565b946020939093013593505050565b60008060408385031215615b9f57600080fd5b50508035926020909101359150565b600080600080600060808688031215615bc657600080fd5b8535615bd181615b3b565b94506020860135615be181615b3b565b93506040860135925060608601356001600160401b0380821115615c0457600080fd5b818801915088601f830112615c1857600080fd5b813581811115615c2757600080fd5b896020828501011115615c3957600080fd5b9699959850939650602001949392505050565b634e487b7160e01b600052602160045260246000fd5b60088110615c8057634e487b7160e01b600052602160045260246000fd5b9052565b805182526020810151151560208301526040810151604083015260018060a01b0360608201511660608301526080810151608083015260a0810151611b4d60a0840182615c62565b60c08101610d048284615c84565b634e487b7160e01b600052604160045260246000fd5b60405160c081016001600160401b0381118282101715615d1257615d12615cda565b60405290565b60405161014081016001600160401b0381118282101715615d1257615d12615cda565b60405161018081016001600160401b0381118282101715615d1257615d12615cda565b604051601f8201601f191681016001600160401b0381118282101715615d8657615d86615cda565b604052919050565b60006001600160401b03821115615da757615da7615cda565b50601f01601f191660200190565b600082601f830112615dc657600080fd5b8135615dd9615dd482615d8e565b615d5e565b818152846020838601011115615dee57600080fd5b816020850160208301376000918101602001919091529392505050565b600060208284031215615e1d57600080fd5b81356001600160401b03811115615e3357600080fd5b614c0184828501615db5565b600080600060608486031215615e5457600080fd5b8335615e5f81615b3b565b92506020840135615e6f81615b3b565b929592945050506040919091013590565b8015158114611b1057600080fd5b8035615b5b81615e80565b60088110611b1057600080fd5b8035615b5b81615e99565b600060c08284031215615ec357600080fd5b615ecb615cf0565b9050813581526020820135615edf81615e80565b6020820152604082810135908201526060820135615efc81615b3b565b60608201526080828101359082015260a0820135615f1981615e99565b60a082015292915050565b60008060e08385031215615f3757600080fd5b615f418484615eb1565b9460c0939093013593505050565b604081526000615f626040830185615ae3565b82810360208401526137a08185615ae3565b60008060e08385031215615f8757600080fd5b82359150615f988460208501615eb1565b90509250929050565b600060208284031215615fb357600080fd5b8135615ab881615b3b565b6020808252825182820181905260009190848201906040850190845b81811015615ff657835183529284019291840191600101615fda565b50909695505050505050565b60006101408c835280602084015261601c8184018d615ae3565b905061602b604084018c615c62565b828103606084015261603d818b615ae3565b90508281036080840152616051818a615ae3565b905082810360a08401526160658189615ae3565b6001600160a01b0388811660c0860152871660e085015283810361010085015290506160918186615ae3565b90508281036101208401526160a68185615ae3565b9d9c50505050505050505050505050565b600080604083850312156160ca57600080fd5b8235915060208301356001600160401b03808211156160e857600080fd5b9084019061014082870312156160fd57600080fd5b616105615d18565b8235815260208301358281111561611b57600080fd5b61612788828601615db5565b60208301525061613960408401615ea6565b604082015260608301358281111561615057600080fd5b61615c88828601615db5565b60608301525060808301358281111561617457600080fd5b61618088828601615db5565b60808301525060a08301358281111561619857600080fd5b6161a488828601615db5565b60a0830152506161b660c08401615b50565b60c08201526161c760e08401615b50565b60e082015261010080840135838111156161e057600080fd5b6161ec89828701615db5565b828401525050610120808401358381111561620657600080fd5b61621289828701615db5565b8284015250508093505050509250929050565b6000806040838503121561623857600080fd5b823561624381615b3b565b9150602083013561625381615e80565b809150509250929050565b6000806000806080858703121561627457600080fd5b843561627f81615b3b565b9350602085013561628f81615b3b565b92506040850135915060608501356001600160401b038111156162b157600080fd5b6162bd87828801615db5565b91505092959194509250565b803563ffffffff81168114615b5b57600080fd5b803560ff81168114615b5b57600080fd5b60006020828403121561630057600080fd5b81356001600160401b038082111561631757600080fd5b90830190610180828603121561632c57600080fd5b616334615d3b565b823581526020830135602082015260408301356040820152606083013560608201526080830135608082015260a083013560a082015260c083013560c082015261638060e084016162c9565b60e0820152610100838101359082015261012061639e8185016162dd565b9082015261014083810135838111156163b657600080fd5b6163c288828701615db5565b82840152505061016091506163d8828401615e8e565b91810191909152949350505050565b6060815260006163fa6060830186615ae3565b828103602084015261640c8186615ae3565b905082810360408401526164208185615ae3565b9695505050505050565b602081528151602082015260006020830151610140806040850152616453610160850183615ae3565b915060408501516164676060860182615c62565b506060850151601f19808685030160808701526164848483615ae3565b935060808701519150808685030160a08701526164a18483615ae3565b935060a08701519150808685030160c08701526164be8483615ae3565b935060c087015191506164dc60e08701836001600160a01b03169052565b60e087015191506101006164fa818801846001600160a01b03169052565b808801519250506101208187860301818801526165178584615ae3565b9088015187820390920184880152935090506164208382615ae3565b60008060006060848603121561654857600080fd5b8335925060208401356001600160401b038082111561656657600080fd5b61657287838801615db5565b9350604086013591508082111561658857600080fd5b5061659586828701615db5565b9150509250925092565b600080604083850312156165b257600080fd5b82356001600160401b03808211156165c957600080fd5b6165d586838701615db5565b935060208501359150808211156165eb57600080fd5b506165f885828601615db5565b9150509250929050565b6000602080838503121561661557600080fd5b82356001600160401b038082111561662c57600080fd5b818501915085601f83011261664057600080fd5b81358181111561665257616652615cda565b8060051b9150616663848301615d5e565b818152918301840191848101908884111561667d57600080fd5b938501935b8385101561669b57843582529385019390850190616682565b98975050505050505050565b60208101610d048284615c62565b600080604083850312156166c857600080fd5b82356166d381615b3b565b9150602083013561625381615b3b565b600080600080608085870312156166f957600080fd5b8435935060208501356001600160401b038082111561671757600080fd5b61672388838901615db5565b9450604087013591508082111561673957600080fd5b61674588838901615db5565b9350606087013591508082111561675b57600080fd5b506162bd87828801615db5565b600181811c9082168061677c57607f821691505b60208210810361393457634e487b7160e01b600052602260045260246000fd5b634e487b7160e01b600052603260045260246000fd5b634e487b7160e01b600052601160045260246000fd5b81810381811115610d0457610d046167b2565b634e487b7160e01b600052603160045260246000fd5b634e487b7160e01b600052601260045260246000fd5b600082616816576168166167f1565b500490565b60008261682a5761682a6167f1565b500690565b80820180821115610d0457610d046167b2565b6000875160206168558285838d01615abf565b8851918401916168688184848d01615abf565b885192019161687a8184848c01615abf565b875192019161688c8184848b01615abf565b865192019161689e8184848a01615abf565b85519201916168b08184848901615abf565b919091019998505050505050505050565b600085516168d3818460208a01615abf565b681e3932b1ba103c1e9160b91b90830190815285516168f9816009840160208a01615abf565b6411103c9e9160d91b60099290910191820152845161691f81600e840160208901615abf565b7f222077696474683d223122206865696768743d2231222066696c6c3d22230000600e9290910191820152835161695d81602c840160208801615abf565b6211179f60e91b602c9290910191820152602f019695505050505050565b60006001820161698d5761698d6167b2565b5060010190565b6020808252602e908201527f4552433732313a2063616c6c6572206973206e6f7420746f6b656e206f776e6560408201526d1c881b9bdc88185c1c1c9bdd995960921b606082015260800190565b6000602082840312156169f457600080fd5b81516001600160401b03811115616a0a57600080fd5b8201601f81018413616a1b57600080fd5b8051616a29615dd482615d8e565b818152856020838501011115616a3e57600080fd5b6137a0826020830160208601615abf565b7f3c672069643d2267686f73742220636c6173733d226722207374796c653d226f81526d3830b1b4ba3c9d101a98129d911f60911b602082015260008251616a9e81602e850160208701615abf565b631e17b39f60e11b602e939091019283015250603201919050565b8082028115828204841417610d0457610d046167b2565b601f821115611b4d576000816000526020600020601f850160051c81016020861015616af95750805b601f850160051c820191505b8181101561564357828155600101616b05565b81516001600160401b03811115616b3157616b31615cda565b616b4581616b3f8454616768565b84616ad0565b602080601f831160018114616b7a5760008415616b625750858301515b600019600386901b1c1916600185901b178555615643565b600085815260208120601f198616915b82811015616ba957888601518255948401946001909101908401616b8a565b5085821015616bc75787850151600019600388901b60f8161c191681555b5050505050600190811b01905550565b6d2261747472696275746573223a5b60901b81528351600090616c0181600e850160208901615abf565b8083019050600b60fa1b80600e8301528551616c2481600f850160208a01615abf565b600f9201918201528351616c3f816010840160208801615abf565b605d60f81b6010929091019182015260110195945050505050565b60008451616c6c818460208901615abf565b845190830190616c80818360208901615abf565b8451910190616c93818360208801615abf565b651e17b9bb339f60d11b910190815260060195945050505050565b7f22696d616765223a22646174613a696d6167652f7376672b786d6c3b626173658152620d8d0b60ea1b602082015260008251616cf2816023850160208701615abf565b601160f91b6023939091019283015250602401919050565b757b226e616d65223a225065746572205472616974202360501b81528351600090616d3c816016850160208901615abf565b7f222c226465736372697074696f6e223a2254686973206973206a757374206120601691840191820152651d195cdd088b60d21b60368201528451616d8881603c840160208901615abf565b600b60fa1b603c92909101918201528351616daa81603d840160208801615abf565b607d60f81b603d9290910191820152603e0195945050505050565b7f646174613a6170706c69636174696f6e2f6a736f6e3b6261736536342c000000815260008251616dfd81601d850160208701615abf565b91909101601d0192915050565b6d1e339034b21e912a3930b4ba111f60911b81528151600090616e3481600e850160208701615abf565b631e17b39f60e11b600e939091019283015250601201919050565b83151581526101008101616e666020830185615c84565b6001600160801b03831660e0830152949350505050565b600060c08284031215616e8f57600080fd5b616e97615cf0565b825181526020830151616ea981615e80565b6020820152604083810151908201526060830151616ec681615b3b565b60608201526080838101519082015260a0830151616ee381615e99565b60a08201529392505050565b60008351616f01818460208801615abf565b835190830190616f15818360208801615abf565b01949350505050565b60008351616f30818460208801615abf565b600b60fa1b9083019081528351616f4e816001840160208801615abf565b01600101949350505050565b6e3d913a3930b4ba2fba3cb832911d1160891b81528251600090616f8581600f850160208801615abf565b6a1116113b30b63ab2911d1160a91b600f918401918201528351616fb081601a840160208801615abf565b61227d60f01b601a9290910191820152601c01949350505050565b60208082526032908201527f4552433732313a207472616e7366657220746f206e6f6e20455243373231526560408201527131b2b4bb32b91034b6b83632b6b2b73a32b960711b606082015260800190565b6000806000806080858703121561703357600080fd5b84519350602085015161704581615b3b565b604086015190935061705681615b3b565b606086015190925061706781615b3b565b939692955090935050565b60006020828403121561708457600080fd5b5051919050565b6001600160a01b038581168252841660208201526040810183905260806060820181905260009061642090830184615ae3565b6000602082840312156170d057600080fd5b8151615ab881615a8556fe3c7376672073686170652d72656e646572696e673d2263726973704564676573222076696577426f783d22302030203330203330222066696c6c3d226e6f6e652220786d6c6e733d22687474703a2f2f7777772e77332e6f72672f323030302f737667223e3c7374796c653e726563747b77696474683a3170783b206865696768743a203170783b7d202e62677b77696474683a333070783b206865696768743a20333070783b7d203c2f7374796c653e3c7265637420636c6173733d226267222066696c6c3d2223304436453944222f3ea2646970667358221220c83c5edecf68dfd586f9a1592d4b80a34224cbc37b02ea91d1ae872543a8dd2c64736f6c63430008160033","linkReferences":{"src/TraitCategory.sol":{"TraitCategory":[{"start":7974,"length":20},{"start":13065,"length":20},{"start":19308,"length":20}]}}},"methodIdentifiers":{"approve(address,uint256)":"095ea7b3","balanceOf(address)":"70a08231","burn(uint256)":"42966c68","burnBatch(uint256[])":"e4623c1b","callGetSVGZmapAndMetadataTrait(uint256,string,string,bytes)":"f1271942","callGetSvgAndMetadataTrait(uint256,string,string)":"e08714a6","cancelOwnershipHandover()":"54d1f13d","completeOwnershipHandover(address)":"f04e283e","createSvgFromPixels(bytes)":"21b12c23","getApproved(uint256)":"081812fc","getCurrentEpoch()":"b97dd9e2","getEpoch()":"757991a8","getEpochData(uint256)":"859e7d32","getGhostSvg()":"5c1ef256","getSVGZmapAndMetadataTrait((uint256,bool,uint256,address,uint256,uint8),uint256)":"f901667f","getStoredTraitForTokenId(uint256)":"208c25a3","getSvgAndMetadata((uint256,uint256,uint256,uint256,uint256,uint256,uint256,uint32,uint256,uint8,string,bool))":"df2c2b88","getSvgAndMetadataTrait((uint256,bool,uint256,address,uint256,uint8),uint256)":"33a70328","getSvgForTokenId(uint256)":"c7791531","getSvgZmapsAndMetadata((uint256,uint256,uint256,uint256,uint256,uint256,uint256,uint32,uint256,uint8,string,bool))":"bb12d21d","getTrait(uint256)":"acb586df","getTraitImage(bytes)":"898aa117","getTraitImageSvg(uint256)":"a5e2912a","getTraitIndexToMetadata(uint256)":"ea139544","getTraitMetadata(uint256)":"d1bfc2af","getTraitType(uint256)":"e8a1268d","getZMapForTokenId(uint256)":"a8498c74","ghost()":"51dc7189","invalidateAllOperatorApprovals(uint256)":"90f63842","isApprovedForAll(address,address)":"e985e9c5","isMinter(address)":"aa271e1a","marketplace()":"abc8c7af","minter()":"07546172","name()":"06fdde03","onERC721Received(address,address,uint256,bytes)":"150b7a02","owner()":"8da5cb5b","ownerOf(uint256)":"6352211e","ownershipHandoverExpiresAt(address)":"fee81cf4","petersMain()":"1ca97604","renderAsDataUri(uint256)":"a1d62680","renounceOwnership()":"715018a6","requestOwnershipHandover()":"25692962","resolveEpochIfNecessary()":"239ffa68","safeMint(address)":"40d097c3","safeTransferFrom(address,address,uint256)":"42842e0e","safeTransferFrom(address,address,uint256,bytes)":"b88d4fde","setApprovalForAll(address,bool)":"a22cb465","setGhostMaps(bytes,bytes)":"e1defed9","setMarketplace(address)":"73ad6c2d","setPetersMain(address)":"a2c12c94","setTraitForTokenId(uint256,(uint256,bool,uint256,address,uint256,uint8))":"36d34ab9","setTraitIndexToMetadata(uint256,(uint256,string,uint8,string,bytes,bytes,address,address,string,string))":"8d37c537","signer()":"238ac933","supportsInterface(bytes4)":"01ffc9a7","symbol()":"95d89b41","tokenByIndex(uint256)":"4f6ccce7","tokenOfOwnerByIndex(address,uint256)":"2f745c59","tokenURI(uint256)":"c87b56dd","totalSupply()":"18160ddd","traitIdToApprovedOperators(uint256,uint256)":"11f3910d","traitIndexToMetadata(uint256)":"817a29a4","traitTokens()":"e14d026f","transferFrom(address,address,uint256)":"23b872dd","transferOwnership(address)":"f2fde38b","walletOfOwner(address)":"438b6300"},"id":45}