{"abi":[{"type":"constructor","inputs":[{"name":"localDeploy_","type":"bool","internalType":"bool"}],"stateMutability":"nonpayable"},{"type":"function","name":"addMinter","inputs":[{"name":"_minter","type":"address","internalType":"address"}],"outputs":[],"stateMutability":"nonpayable"},{"type":"function","name":"approve","inputs":[{"name":"_operator","type":"address","internalType":"address"},{"name":"_tokenId","type":"uint256","internalType":"uint256"}],"outputs":[],"stateMutability":"nonpayable"},{"type":"function","name":"balanceOf","inputs":[{"name":"owner","type":"address","internalType":"address"}],"outputs":[{"name":"","type":"uint256","internalType":"uint256"}],"stateMutability":"view"},{"type":"function","name":"burn","inputs":[{"name":"tokenId","type":"uint256","internalType":"uint256"}],"outputs":[],"stateMutability":"nonpayable"},{"type":"function","name":"burnBatch","inputs":[{"name":"tokenIds","type":"uint256[]","internalType":"uint256[]"}],"outputs":[],"stateMutability":"nonpayable"},{"type":"function","name":"callGetSVGZmapAndMetadataTrait","inputs":[{"name":"_traitId","type":"uint256","internalType":"uint256"},{"name":"_traitsSvg","type":"string","internalType":"string"},{"name":"_traitsAttributes","type":"string","internalType":"string"},{"name":"_traitZMaps","type":"bytes","internalType":"bytes"}],"outputs":[{"name":"traitsSvg","type":"string","internalType":"string"},{"name":"traitsAttributes","type":"string","internalType":"string"},{"name":"traitZMaps","type":"bytes","internalType":"bytes"}],"stateMutability":"view"},{"type":"function","name":"callGetSvgAndMetadataTrait","inputs":[{"name":"_traitId","type":"uint256","internalType":"uint256"},{"name":"_traitsSvg","type":"string","internalType":"string"},{"name":"_traitsAttributes","type":"string","internalType":"string"}],"outputs":[{"name":"traitsSvg","type":"string","internalType":"string"},{"name":"traitsAttributes","type":"string","internalType":"string"}],"stateMutability":"view"},{"type":"function","name":"cancelOwnershipHandover","inputs":[],"outputs":[],"stateMutability":"payable"},{"type":"function","name":"completeOwnershipHandover","inputs":[{"name":"pendingOwner","type":"address","internalType":"address"}],"outputs":[],"stateMutability":"payable"},{"type":"function","name":"createSvgFromPixels","inputs":[{"name":"_pixels","type":"bytes","internalType":"bytes"}],"outputs":[{"name":"svgParts","type":"bytes","internalType":"bytes"}],"stateMutability":"view"},{"type":"function","name":"getApproved","inputs":[{"name":"tokenId","type":"uint256","internalType":"uint256"}],"outputs":[{"name":"","type":"address","internalType":"address"}],"stateMutability":"view"},{"type":"function","name":"getApprovedOperators","inputs":[{"name":"traitId","type":"uint256","internalType":"uint256"}],"outputs":[{"name":"","type":"address[]","internalType":"address[]"}],"stateMutability":"view"},{"type":"function","name":"getApprovedOperatorsLength","inputs":[{"name":"traitId","type":"uint256","internalType":"uint256"}],"outputs":[{"name":"","type":"uint256","internalType":"uint256"}],"stateMutability":"view"},{"type":"function","name":"getCurrentEpoch","inputs":[],"outputs":[{"name":"","type":"uint256","internalType":"uint256"}],"stateMutability":"view"},{"type":"function","name":"getEpoch","inputs":[],"outputs":[{"name":"","type":"uint256","internalType":"uint256"}],"stateMutability":"view"},{"type":"function","name":"getEpochData","inputs":[{"name":"index","type":"uint256","internalType":"uint256"}],"outputs":[{"name":"","type":"tuple","internalType":"struct CommitReveal.Epoch","components":[{"name":"randomness","type":"uint128","internalType":"uint128"},{"name":"revealBlock","type":"uint64","internalType":"uint64"},{"name":"committed","type":"bool","internalType":"bool"},{"name":"revealed","type":"bool","internalType":"bool"}]}],"stateMutability":"view"},{"type":"function","name":"getGhostSvg","inputs":[],"outputs":[{"name":"svg","type":"string","internalType":"string"}],"stateMutability":"view"},{"type":"function","name":"getSVGZmapAndMetadataTrait","inputs":[{"name":"trait","type":"tuple","internalType":"struct ITraitStorage.StoredTrait","components":[{"name":"epoch","type":"uint256","internalType":"uint256"},{"name":"isRevealed","type":"bool","internalType":"bool"},{"name":"seed","type":"uint256","internalType":"uint256"},{"name":"renderMinterContract","type":"address","internalType":"address"},{"name":"traitIndex","type":"uint256","internalType":"uint256"},{"name":"traitType","type":"uint8","internalType":"enum TraitCategory.Name"}]},{"name":"traitId","type":"uint256","internalType":"uint256"}],"outputs":[{"name":"traitSvg","type":"string","internalType":"string"},{"name":"traitZmap","type":"bytes","internalType":"bytes"},{"name":"traitAttributes","type":"string","internalType":"string"}],"stateMutability":"view"},{"type":"function","name":"getStoredTraitForTokenId","inputs":[{"name":"_tokenId","type":"uint256","internalType":"uint256"}],"outputs":[{"name":"","type":"tuple","internalType":"struct ITraitStorage.StoredTrait","components":[{"name":"epoch","type":"uint256","internalType":"uint256"},{"name":"isRevealed","type":"bool","internalType":"bool"},{"name":"seed","type":"uint256","internalType":"uint256"},{"name":"renderMinterContract","type":"address","internalType":"address"},{"name":"traitIndex","type":"uint256","internalType":"uint256"},{"name":"traitType","type":"uint8","internalType":"enum TraitCategory.Name"}]}],"stateMutability":"view"},{"type":"function","name":"getSvgAndMetadata","inputs":[{"name":"storedPeter","type":"tuple","internalType":"struct IPeterStorage.StoredPeter","components":[{"name":"headId","type":"uint256","internalType":"uint256"},{"name":"hairId","type":"uint256","internalType":"uint256"},{"name":"faceId","type":"uint256","internalType":"uint256"},{"name":"accessoryId","type":"uint256","internalType":"uint256"},{"name":"topId","type":"uint256","internalType":"uint256"},{"name":"bottomId","type":"uint256","internalType":"uint256"},{"name":"shoesId","type":"uint256","internalType":"uint256"},{"name":"epoch","type":"uint32","internalType":"uint32"},{"name":"tokenId","type":"uint256","internalType":"uint256"},{"name":"bodyIndex","type":"uint8","internalType":"uint8"},{"name":"backgroundColor","type":"string","internalType":"string"},{"name":"render3D","type":"bool","internalType":"bool"}]}],"outputs":[{"name":"traitsSvg","type":"string","internalType":"string"},{"name":"traitsAttributes","type":"string","internalType":"string"}],"stateMutability":"view"},{"type":"function","name":"getSvgAndMetadataTrait","inputs":[{"name":"trait","type":"tuple","internalType":"struct ITraitStorage.StoredTrait","components":[{"name":"epoch","type":"uint256","internalType":"uint256"},{"name":"isRevealed","type":"bool","internalType":"bool"},{"name":"seed","type":"uint256","internalType":"uint256"},{"name":"renderMinterContract","type":"address","internalType":"address"},{"name":"traitIndex","type":"uint256","internalType":"uint256"},{"name":"traitType","type":"uint8","internalType":"enum TraitCategory.Name"}]},{"name":"traitId","type":"uint256","internalType":"uint256"}],"outputs":[{"name":"traitSvg","type":"string","internalType":"string"},{"name":"traitAttributes","type":"string","internalType":"string"}],"stateMutability":"view"},{"type":"function","name":"getSvgForTokenId","inputs":[{"name":"_tokenId","type":"uint256","internalType":"uint256"}],"outputs":[{"name":"traitSvg","type":"string","internalType":"string"}],"stateMutability":"view"},{"type":"function","name":"getSvgZmapsAndMetadata","inputs":[{"name":"storedPeter","type":"tuple","internalType":"struct IPeterStorage.StoredPeter","components":[{"name":"headId","type":"uint256","internalType":"uint256"},{"name":"hairId","type":"uint256","internalType":"uint256"},{"name":"faceId","type":"uint256","internalType":"uint256"},{"name":"accessoryId","type":"uint256","internalType":"uint256"},{"name":"topId","type":"uint256","internalType":"uint256"},{"name":"bottomId","type":"uint256","internalType":"uint256"},{"name":"shoesId","type":"uint256","internalType":"uint256"},{"name":"epoch","type":"uint32","internalType":"uint32"},{"name":"tokenId","type":"uint256","internalType":"uint256"},{"name":"bodyIndex","type":"uint8","internalType":"uint8"},{"name":"backgroundColor","type":"string","internalType":"string"},{"name":"render3D","type":"bool","internalType":"bool"}]}],"outputs":[{"name":"traitsSvg","type":"string","internalType":"string"},{"name":"traitZMaps","type":"bytes","internalType":"bytes"},{"name":"traitsAttributes","type":"string","internalType":"string"}],"stateMutability":"view"},{"type":"function","name":"getTrait","inputs":[{"name":"_tokenId","type":"uint256","internalType":"uint256"}],"outputs":[{"name":"","type":"tuple","internalType":"struct ITraitStorage.StoredTrait","components":[{"name":"epoch","type":"uint256","internalType":"uint256"},{"name":"isRevealed","type":"bool","internalType":"bool"},{"name":"seed","type":"uint256","internalType":"uint256"},{"name":"renderMinterContract","type":"address","internalType":"address"},{"name":"traitIndex","type":"uint256","internalType":"uint256"},{"name":"traitType","type":"uint8","internalType":"enum TraitCategory.Name"}]}],"stateMutability":"view"},{"type":"function","name":"getTraitImageSvg","inputs":[{"name":"index","type":"uint256","internalType":"uint256"}],"outputs":[{"name":"svg","type":"string","internalType":"string"}],"stateMutability":"view"},{"type":"function","name":"getTraitIndexToMetadata","inputs":[{"name":"_traitIndex","type":"uint256","internalType":"uint256"}],"outputs":[{"name":"","type":"tuple","internalType":"struct ITraitStorage.TraitMetadata","components":[{"name":"traitIndex","type":"uint256","internalType":"uint256"},{"name":"traitName","type":"string","internalType":"string"},{"name":"traitType","type":"uint8","internalType":"enum TraitCategory.Name"},{"name":"animations","type":"string","internalType":"string"},{"name":"colorMap","type":"bytes","internalType":"bytes"},{"name":"zMap","type":"bytes","internalType":"bytes"},{"name":"renderMinterContract","type":"address","internalType":"address"},{"name":"creatorAddress","type":"address","internalType":"address"},{"name":"creatorName","type":"string","internalType":"string"},{"name":"season","type":"string","internalType":"string"}]}],"stateMutability":"view"},{"type":"function","name":"getTraitMetadata","inputs":[{"name":"_tokenId","type":"uint256","internalType":"uint256"}],"outputs":[{"name":"","type":"tuple","internalType":"struct ITraitStorage.TraitMetadata","components":[{"name":"traitIndex","type":"uint256","internalType":"uint256"},{"name":"traitName","type":"string","internalType":"string"},{"name":"traitType","type":"uint8","internalType":"enum TraitCategory.Name"},{"name":"animations","type":"string","internalType":"string"},{"name":"colorMap","type":"bytes","internalType":"bytes"},{"name":"zMap","type":"bytes","internalType":"bytes"},{"name":"renderMinterContract","type":"address","internalType":"address"},{"name":"creatorAddress","type":"address","internalType":"address"},{"name":"creatorName","type":"string","internalType":"string"},{"name":"season","type":"string","internalType":"string"}]}],"stateMutability":"view"},{"type":"function","name":"getTraitType","inputs":[{"name":"_tokenId","type":"uint256","internalType":"uint256"}],"outputs":[{"name":"","type":"uint8","internalType":"enum TraitCategory.Name"}],"stateMutability":"view"},{"type":"function","name":"getZMapForTokenId","inputs":[{"name":"_tokenId","type":"uint256","internalType":"uint256"}],"outputs":[{"name":"","type":"string","internalType":"string"}],"stateMutability":"view"},{"type":"function","name":"invalidateAllOperatorApprovals","inputs":[{"name":"_tokenId","type":"uint256","internalType":"uint256"}],"outputs":[],"stateMutability":"nonpayable"},{"type":"function","name":"isApprovedForAll","inputs":[{"name":"owner","type":"address","internalType":"address"},{"name":"operator","type":"address","internalType":"address"}],"outputs":[{"name":"","type":"bool","internalType":"bool"}],"stateMutability":"view"},{"type":"function","name":"isMinter","inputs":[{"name":"","type":"address","internalType":"address"}],"outputs":[{"name":"","type":"bool","internalType":"bool"}],"stateMutability":"view"},{"type":"function","name":"marketplace","inputs":[],"outputs":[{"name":"","type":"address","internalType":"contract ChonksMarket"}],"stateMutability":"view"},{"type":"function","name":"minter","inputs":[],"outputs":[{"name":"","type":"address","internalType":"address"}],"stateMutability":"view"},{"type":"function","name":"name","inputs":[],"outputs":[{"name":"","type":"string","internalType":"string"}],"stateMutability":"view"},{"type":"function","name":"owner","inputs":[],"outputs":[{"name":"result","type":"address","internalType":"address"}],"stateMutability":"view"},{"type":"function","name":"ownerOf","inputs":[{"name":"tokenId","type":"uint256","internalType":"uint256"}],"outputs":[{"name":"","type":"address","internalType":"address"}],"stateMutability":"view"},{"type":"function","name":"ownershipHandoverExpiresAt","inputs":[{"name":"pendingOwner","type":"address","internalType":"address"}],"outputs":[{"name":"result","type":"uint256","internalType":"uint256"}],"stateMutability":"view"},{"type":"function","name":"petersMain","inputs":[],"outputs":[{"name":"","type":"address","internalType":"contract PetersMain"}],"stateMutability":"view"},{"type":"function","name":"removeMinter","inputs":[{"name":"_minter","type":"address","internalType":"address"}],"outputs":[],"stateMutability":"nonpayable"},{"type":"function","name":"renderAsDataUri","inputs":[{"name":"_tokenId","type":"uint256","internalType":"uint256"}],"outputs":[{"name":"","type":"string","internalType":"string"}],"stateMutability":"view"},{"type":"function","name":"renounceOwnership","inputs":[],"outputs":[],"stateMutability":"payable"},{"type":"function","name":"requestOwnershipHandover","inputs":[],"outputs":[],"stateMutability":"payable"},{"type":"function","name":"resolveEpochIfNecessary","inputs":[],"outputs":[],"stateMutability":"nonpayable"},{"type":"function","name":"safeMint","inputs":[{"name":"_to","type":"address","internalType":"address"}],"outputs":[{"name":"","type":"uint256","internalType":"uint256"}],"stateMutability":"nonpayable"},{"type":"function","name":"safeTransferFrom","inputs":[{"name":"from","type":"address","internalType":"address"},{"name":"to","type":"address","internalType":"address"},{"name":"tokenId","type":"uint256","internalType":"uint256"}],"outputs":[],"stateMutability":"nonpayable"},{"type":"function","name":"safeTransferFrom","inputs":[{"name":"from","type":"address","internalType":"address"},{"name":"to","type":"address","internalType":"address"},{"name":"tokenId","type":"uint256","internalType":"uint256"},{"name":"data","type":"bytes","internalType":"bytes"}],"outputs":[],"stateMutability":"nonpayable"},{"type":"function","name":"setApprovalForAll","inputs":[{"name":"_operator","type":"address","internalType":"address"},{"name":"_approved","type":"bool","internalType":"bool"}],"outputs":[],"stateMutability":"nonpayable"},{"type":"function","name":"setGhostMaps","inputs":[{"name":"_colorMap","type":"bytes","internalType":"bytes"},{"name":"_zMap","type":"bytes","internalType":"bytes"}],"outputs":[],"stateMutability":"nonpayable"},{"type":"function","name":"setMarketplace","inputs":[{"name":"_marketplace","type":"address","internalType":"address"}],"outputs":[],"stateMutability":"nonpayable"},{"type":"function","name":"setPetersMain","inputs":[{"name":"_petersMain","type":"address","internalType":"address"}],"outputs":[],"stateMutability":"nonpayable"},{"type":"function","name":"setTraitForTokenId","inputs":[{"name":"_tokenId","type":"uint256","internalType":"uint256"},{"name":"_trait","type":"tuple","internalType":"struct ITraitStorage.StoredTrait","components":[{"name":"epoch","type":"uint256","internalType":"uint256"},{"name":"isRevealed","type":"bool","internalType":"bool"},{"name":"seed","type":"uint256","internalType":"uint256"},{"name":"renderMinterContract","type":"address","internalType":"address"},{"name":"traitIndex","type":"uint256","internalType":"uint256"},{"name":"traitType","type":"uint8","internalType":"enum TraitCategory.Name"}]}],"outputs":[],"stateMutability":"nonpayable"},{"type":"function","name":"setTraitIndexToMetadata","inputs":[{"name":"_traitIndex","type":"uint256","internalType":"uint256"},{"name":"_metadata","type":"tuple","internalType":"struct ITraitStorage.TraitMetadata","components":[{"name":"traitIndex","type":"uint256","internalType":"uint256"},{"name":"traitName","type":"string","internalType":"string"},{"name":"traitType","type":"uint8","internalType":"enum TraitCategory.Name"},{"name":"animations","type":"string","internalType":"string"},{"name":"colorMap","type":"bytes","internalType":"bytes"},{"name":"zMap","type":"bytes","internalType":"bytes"},{"name":"renderMinterContract","type":"address","internalType":"address"},{"name":"creatorAddress","type":"address","internalType":"address"},{"name":"creatorName","type":"string","internalType":"string"},{"name":"season","type":"string","internalType":"string"}]}],"outputs":[],"stateMutability":"nonpayable"},{"type":"function","name":"setTraitRenderer","inputs":[{"name":"_traitRenderer","type":"address","internalType":"address"}],"outputs":[],"stateMutability":"nonpayable"},{"type":"function","name":"signer","inputs":[],"outputs":[{"name":"","type":"address","internalType":"address"}],"stateMutability":"view"},{"type":"function","name":"supportsInterface","inputs":[{"name":"interfaceId","type":"bytes4","internalType":"bytes4"}],"outputs":[{"name":"","type":"bool","internalType":"bool"}],"stateMutability":"view"},{"type":"function","name":"symbol","inputs":[],"outputs":[{"name":"","type":"string","internalType":"string"}],"stateMutability":"view"},{"type":"function","name":"tokenByIndex","inputs":[{"name":"index","type":"uint256","internalType":"uint256"}],"outputs":[{"name":"","type":"uint256","internalType":"uint256"}],"stateMutability":"view"},{"type":"function","name":"tokenOfOwnerByIndex","inputs":[{"name":"owner","type":"address","internalType":"address"},{"name":"index","type":"uint256","internalType":"uint256"}],"outputs":[{"name":"","type":"uint256","internalType":"uint256"}],"stateMutability":"view"},{"type":"function","name":"tokenURI","inputs":[{"name":"_tokenId","type":"uint256","internalType":"uint256"}],"outputs":[{"name":"","type":"string","internalType":"string"}],"stateMutability":"view"},{"type":"function","name":"totalSupply","inputs":[],"outputs":[{"name":"","type":"uint256","internalType":"uint256"}],"stateMutability":"view"},{"type":"function","name":"traitIdToApprovedOperators","inputs":[{"name":"traitId","type":"uint256","internalType":"uint256"},{"name":"","type":"uint256","internalType":"uint256"}],"outputs":[{"name":"operators","type":"address","internalType":"address"}],"stateMutability":"view"},{"type":"function","name":"traitIndexToMetadata","inputs":[{"name":"","type":"uint256","internalType":"uint256"}],"outputs":[{"name":"traitIndex","type":"uint256","internalType":"uint256"},{"name":"traitName","type":"string","internalType":"string"},{"name":"traitType","type":"uint8","internalType":"enum TraitCategory.Name"},{"name":"animations","type":"string","internalType":"string"},{"name":"colorMap","type":"bytes","internalType":"bytes"},{"name":"zMap","type":"bytes","internalType":"bytes"},{"name":"renderMinterContract","type":"address","internalType":"address"},{"name":"creatorAddress","type":"address","internalType":"address"},{"name":"creatorName","type":"string","internalType":"string"},{"name":"season","type":"string","internalType":"string"}],"stateMutability":"view"},{"type":"function","name":"traitRenderer","inputs":[],"outputs":[{"name":"","type":"address","internalType":"contract TraitRenderer"}],"stateMutability":"view"},{"type":"function","name":"traitTokens","inputs":[],"outputs":[{"name":"epoch","type":"uint256","internalType":"uint256"}],"stateMutability":"view"},{"type":"function","name":"transferFrom","inputs":[{"name":"from","type":"address","internalType":"address"},{"name":"to","type":"address","internalType":"address"},{"name":"tokenId","type":"uint256","internalType":"uint256"}],"outputs":[],"stateMutability":"nonpayable"},{"type":"function","name":"transferOwnership","inputs":[{"name":"newOwner","type":"address","internalType":"address"}],"outputs":[],"stateMutability":"payable"},{"type":"function","name":"walletOfOwner","inputs":[{"name":"_owner","type":"address","internalType":"address"}],"outputs":[{"name":"","type":"uint256[]","internalType":"uint256[]"}],"stateMutability":"view"},{"type":"event","name":"AllOperatorApprovalsInvalidated","inputs":[{"name":"tokenId","type":"uint256","indexed":true,"internalType":"uint256"}],"anonymous":false},{"type":"event","name":"Approval","inputs":[{"name":"owner","type":"address","indexed":true,"internalType":"address"},{"name":"approved","type":"address","indexed":true,"internalType":"address"},{"name":"tokenId","type":"uint256","indexed":true,"internalType":"uint256"}],"anonymous":false},{"type":"event","name":"ApprovalForAll","inputs":[{"name":"owner","type":"address","indexed":true,"internalType":"address"},{"name":"operator","type":"address","indexed":true,"internalType":"address"},{"name":"approved","type":"bool","indexed":false,"internalType":"bool"}],"anonymous":false},{"type":"event","name":"BatchMetadataUpdate","inputs":[{"name":"_fromTokenId","type":"uint256","indexed":false,"internalType":"uint256"},{"name":"_toTokenId","type":"uint256","indexed":false,"internalType":"uint256"}],"anonymous":false},{"type":"event","name":"MetadataUpdate","inputs":[{"name":"_tokenId","type":"uint256","indexed":false,"internalType":"uint256"}],"anonymous":false},{"type":"event","name":"Mint","inputs":[{"name":"owner","type":"address","indexed":true,"internalType":"address"},{"name":"tokenId","type":"uint256","indexed":true,"internalType":"uint256"}],"anonymous":false},{"type":"event","name":"NewEpoch","inputs":[{"name":"epoch","type":"uint256","indexed":true,"internalType":"uint256"},{"name":"revealBlock","type":"uint64","indexed":true,"internalType":"uint64"}],"anonymous":false},{"type":"event","name":"OwnershipHandoverCanceled","inputs":[{"name":"pendingOwner","type":"address","indexed":true,"internalType":"address"}],"anonymous":false},{"type":"event","name":"OwnershipHandoverRequested","inputs":[{"name":"pendingOwner","type":"address","indexed":true,"internalType":"address"}],"anonymous":false},{"type":"event","name":"OwnershipTransferred","inputs":[{"name":"oldOwner","type":"address","indexed":true,"internalType":"address"},{"name":"newOwner","type":"address","indexed":true,"internalType":"address"}],"anonymous":false},{"type":"event","name":"Transfer","inputs":[{"name":"from","type":"address","indexed":true,"internalType":"address"},{"name":"to","type":"address","indexed":true,"internalType":"address"},{"name":"tokenId","type":"uint256","indexed":true,"internalType":"uint256"}],"anonymous":false},{"type":"error","name":"AlreadyInitialized","inputs":[]},{"type":"error","name":"CantTransfer","inputs":[]},{"type":"error","name":"NewOwnerIsZeroAddress","inputs":[]},{"type":"error","name":"NoHandoverRequest","inputs":[]},{"type":"error","name":"NotATBA","inputs":[]},{"type":"error","name":"NotAValidMinterContract","inputs":[]},{"type":"error","name":"NotYourTrait","inputs":[]},{"type":"error","name":"TraitNotFound","inputs":[{"name":"_tokenId","type":"uint256","internalType":"uint256"}]},{"type":"error","name":"TraitTokenDoesntExist","inputs":[]},{"type":"error","name":"Unauthorized","inputs":[]}],"bytecode":{"object":"0x60806040523480156200001157600080fd5b5060405162008f0e38038062008f0e833981016040819052620000349162000152565b6040518060400160405280600b81526020016a506574657254726169747360a81b81525060405180604001604052806003815260200162282a2960e91b815250816000908162000085919062000224565b50600162000094828262000224565b50506001600a5550620000a73362000108565b6016805460ff1916821515179055604051620000c39062000144565b604051809103906000f080158015620000e0573d6000803e3d6000fd5b50600e80546001600160a01b0319166001600160a01b039290921691909117905550620002f0565b6001600160a01b0316638b78c6d8198190558060007f8be0079c531659141344cd1fd0a4f28419497f9722a3daafe3b4186f6b6457e08180a350565b612fc68062005f4883390190565b6000602082840312156200016557600080fd5b815180151581146200017657600080fd5b9392505050565b634e487b7160e01b600052604160045260246000fd5b600181811c90821680620001a857607f821691505b602082108103620001c957634e487b7160e01b600052602260045260246000fd5b50919050565b601f8211156200021f576000816000526020600020601f850160051c81016020861015620001fa5750805b601f850160051c820191505b818110156200021b5782815560010162000206565b5050505b505050565b81516001600160401b038111156200024057620002406200017d565b620002588162000251845462000193565b84620001cf565b602080601f831160018114620002905760008415620002775750858301515b600019600386901b1c1916600185901b1785556200021b565b600085815260208120601f198616915b82811015620002c157888601518255948401946001909101908401620002a0565b5085821015620002e05787850151600019600388901b60f8161c191681555b5050505050600190811b01905550565b615c4880620003006000396000f3fe6080604052600436106103ee5760003560e01c80638d37c53711610208578063c779153111610118578063e4623c1b116100ab578063f04e283e1161007a578063f04e283e14610ce4578063f127194214610cf7578063f2fde38b14610d17578063f901667f14610d2a578063fee81cf414610d4a57600080fd5b8063e4623c1b14610c2e578063e8a1268d14610c4e578063e985e9c514610c7b578063ea13954414610cc457600080fd5b8063df2c2b88116100e7578063df2c2b8814610bb7578063e08714a614610bd7578063e14d026f14610bf7578063e1defed914610c0e57600080fd5b8063c779153114610b2a578063c876371b14610b4a578063c87b56dd14610b6a578063d1bfc2af14610b8a57600080fd5b8063a5e2912a1161019b578063acb586df1161016a578063acb586df14610a8e578063b88d4fde14610aae578063b97dd9e2146107de578063bb12d21d14610ace578063c1ff78be14610afd57600080fd5b8063a5e2912a146109fe578063a8498c7414610a1e578063aa271e1a14610a3e578063abc8c7af14610a6e57600080fd5b8063983b2d56116101d7578063983b2d561461097e578063a1d626801461099e578063a22cb465146109be578063a2c12c94146109de57600080fd5b80638d37c537146109105780638da5cb5b1461093057806390f638421461094957806395d89b411461096957600080fd5b80633092afd51161030357806354d1f13d11610296578063715018a611610265578063715018a6146107b657806373ad6c2d146107be578063757991a8146107de578063817a29a4146107f3578063859e7d321461082957600080fd5b806354d1f13d146107595780635c1ef256146107615780636352211e1461077657806370a082311461079657600080fd5b806342842e0e116102d257806342842e0e146106cc57806342966c68146106ec578063438b63001461070c5780634f6ccce71461073957600080fd5b80633092afd51461063e57806333a703281461065e57806336d34ab91461068c57806340d097c3146106ac57600080fd5b806318160ddd11610386578063238ac93311610355578063238ac933146105c1578063239ffa68146105e157806323b872dd146105f657806325692962146106165780632f745c591461061e57600080fd5b806318160ddd146105355780631ca9760414610554578063208c25a31461057457806321b12c23146105a157600080fd5b8063081812fc116103c2578063081812fc146104b3578063095ea7b3146104d357806311f3910d146104f5578063120def241461051557600080fd5b8062db6348146103f357806301ffc9a71461042957806306fdde0314610459578063075461721461047b575b600080fd5b3480156103ff57600080fd5b5061041361040e3660046146d7565b610d7d565b60405161042091906146f0565b60405180910390f35b34801561043557600080fd5b50610449610444366004614753565b610de9565b6040519015158152602001610420565b34801561046557600080fd5b5061046e610dfa565b60405161042091906147c7565b34801561048757600080fd5b50600f5461049b906001600160a01b031681565b6040516001600160a01b039091168152602001610420565b3480156104bf57600080fd5b5061049b6104ce3660046146d7565b610e8c565b3480156104df57600080fd5b506104f36104ee3660046147ff565b610eb3565b005b34801561050157600080fd5b5061049b61051036600461482b565b6110de565b34801561052157600080fd5b506104f361053036600461484d565b611116565b34801561054157600080fd5b506008545b604051908152602001610420565b34801561056057600080fd5b5060135461049b906001600160a01b031681565b34801561058057600080fd5b5061059461058f3660046146d7565b611140565b60405161042091906148ea565b3480156105ad57600080fd5b5061046e6105bc366004614a29565b611208565b3480156105cd57600080fd5b5060105461049b906001600160a01b031681565b3480156105ed57600080fd5b506104f361127e565b34801561060257600080fd5b506104f3610611366004614a5d565b61145a565b6104f3611499565b34801561062a57600080fd5b506105466106393660046147ff565b6114e8565b34801561064a57600080fd5b506104f361065936600461484d565b61157e565b34801561066a57600080fd5b5061067e610679366004614b42565b6115a7565b604051610420929190614b6d565b34801561069857600080fd5b506104f36106a7366004614b92565b611642565b3480156106b857600080fd5b506105466106c736600461484d565b6116db565b3480156106d857600080fd5b506104f36106e7366004614a5d565b611748565b3480156106f857600080fd5b506104f36107073660046146d7565b611763565b34801561071857600080fd5b5061072c61072736600461484d565b61176c565b6040516104209190614bbf565b34801561074557600080fd5b506105466107543660046146d7565b611803565b6104f3611896565b34801561076d57600080fd5b5061046e6118d2565b34801561078257600080fd5b5061049b6107913660046146d7565b611949565b3480156107a257600080fd5b506105466107b136600461484d565b6119a9565b6104f3611a2f565b3480156107ca57600080fd5b506104f36107d936600461484d565b611a43565b3480156107ea57600080fd5b50600c54610546565b3480156107ff57600080fd5b5061081361080e3660046146d7565b611a6d565b6040516104209a99989796959493929190614bf7565b34801561083557600080fd5b506108c76108443660046146d7565b6040805160808082018352600080835260208084018290528385018290526060938401829052948152600d855283902083519182018452546001600160801b03811682526001600160401b03600160801b8204169482019490945260ff600160c01b85048116151593820193909352600160c81b90930490911615159082015290565b604051610420919081516001600160801b031681526020808301516001600160401b03169082015260408083015115159082015260609182015115159181019190915260800190565b34801561091c57600080fd5b506104f361092b366004614cac565b611e05565b34801561093c57600080fd5b50638b78c6d8195461049b565b34801561095557600080fd5b506104f36109643660046146d7565b611f04565b34801561097557600080fd5b5061046e61208a565b34801561098a57600080fd5b506104f361099936600461484d565b612099565b3480156109aa57600080fd5b5061046e6109b93660046146d7565b6120c5565b3480156109ca57600080fd5b506104f36109d9366004614e1a565b6121b8565b3480156109ea57600080fd5b506104f36109f936600461484d565b6123f5565b348015610a0a57600080fd5b5061046e610a193660046146d7565b61241f565b348015610a2a57600080fd5b5061046e610a393660046146d7565b612461565b348015610a4a57600080fd5b50610449610a5936600461484d565b60156020526000908152604090205460ff1681565b348015610a7a57600080fd5b5060145461049b906001600160a01b031681565b348015610a9a57600080fd5b50610594610aa93660046146d7565b612519565b348015610aba57600080fd5b506104f3610ac9366004614e53565b6126b8565b348015610ada57600080fd5b50610aee610ae9366004614ee3565b6126f0565b60405161042093929190614fdc565b348015610b0957600080fd5b50610546610b183660046146d7565b60009081526012602052604090205490565b348015610b3657600080fd5b5061046e610b453660046146d7565b61277f565b348015610b5657600080fd5b50600e5461049b906001600160a01b031681565b348015610b7657600080fd5b5061046e610b853660046146d7565b6127d9565b348015610b9657600080fd5b50610baa610ba53660046146d7565b61281a565b604051610420919061501f565b348015610bc357600080fd5b5061067e610bd2366004614ee3565b612c27565b348015610be357600080fd5b5061067e610bf2366004615128565b612cb2565b348015610c0357600080fd5b50600c546105469081565b348015610c1a57600080fd5b506104f3610c29366004615194565b612d5f565b348015610c3a57600080fd5b506104f3610c493660046151f7565b612dcf565b348015610c5a57600080fd5b50610c6e610c693660046146d7565b612e05565b604051610420919061529c565b348015610c8757600080fd5b50610449610c963660046152aa565b6001600160a01b03918216600090815260056020908152604080832093909416825291909152205460ff1690565b348015610cd057600080fd5b50610baa610cdf3660046146d7565b613212565b6104f3610cf236600461484d565b61360d565b348015610d0357600080fd5b50610aee610d123660046152d8565b61364a565b6104f3610d2536600461484d565b613700565b348015610d3657600080fd5b50610aee610d45366004614b42565b613727565b348015610d5657600080fd5b50610546610d6536600461484d565b63389a75e1600c908152600091909152602090205490565b600081815260126020908152604091829020805483518184028101840190945280845260609392830182828015610ddd57602002820191906000526020600020905b81546001600160a01b03168152600190910190602001808311610dbf575b50505050509050919050565b6000610df4826137c6565b92915050565b606060008054610e099061535d565b80601f0160208091040260200160405190810160405280929190818152602001828054610e359061535d565b8015610e825780601f10610e5757610100808354040283529160200191610e82565b820191906000526020600020905b815481529060010190602001808311610e6557829003601f168201915b5050505050905090565b6000610e97826137eb565b506000908152600460205260409020546001600160a01b031690565b6000818152600260205260409020546001600160a01b0316610ee857604051632df0e24560e21b815260040160405180910390fd5b33610ef282611949565b6001600160a01b031614610f1957604051633e79b9f360e01b815260040160405180910390fd5b6001600160a01b03821661103a576000818152601260205260408120905b815481101561103357836001600160a01b0316828281548110610f5c57610f5c615391565b6000918252602090912001546001600160a01b03160361102b5781548290610f86906001906153bd565b81548110610f9657610f96615391565b9060005260206000200160009054906101000a90046001600160a01b0316828281548110610fc657610fc6615391565b9060005260206000200160006101000a8154816001600160a01b0302191690836001600160a01b0316021790555081805480611004576110046153d0565b600082815260209020810160001990810180546001600160a01b0319169055019055611033565b600101610f37565b50506110d0565b600081815260126020526040812090805b825481101561109b57846001600160a01b031683828154811061107057611070615391565b6000918252602090912001546001600160a01b031603611093576001915061109b565b60010161104b565b50806110cd5781546001810183556000838152602090200180546001600160a01b0319166001600160a01b0386161790555b50505b6110da828261384a565b5050565b601260205281600052604060002081815481106110fa57600080fd5b6000918252602090912001546001600160a01b03169150829050565b61111e61395a565b600e80546001600160a01b0319166001600160a01b0392909216919091179055565b6111766040805160c08101825260008082526020820181905291810182905260608101829052608081018290529060a082015290565b6000828152600b6020908152604091829020825160c08101845281548152600182015460ff90811615159382019390935260028201549381019390935260038101546001600160a01b03166060840152600481015460808401526005810154909160a08401911660078111156111ee576111ee61486a565b60078111156111ff576111ff61486a565b90525092915050565b600e546040516321b12c2360e01b81526060916001600160a01b0316906321b12c23906112399085906004016147c7565b600060405180830381865afa158015611256573d6000803e3d6000fd5b505050506040513d6000823e601f3d908101601f19168201604052610df4919081019061542b565b600c546000908152600d602052604090208054600160c01b900460ff1615806112d657508054600160c81b900460ff161580156112d657506112c2610100436153bd565b8154600160801b90046001600160401b0316105b15611321576112e643603261545f565b815460ff60c01b196001600160401b0392909216600160801b029190911668ffffffffffffffffff60801b1990911617600160c01b17815550565b8054600160801b90046001600160401b031643111561145757805460408051600160801b9092046001600160401b031640602083015244908201526001600160801b03906060016040516020818303038152906040528051906020012060001c61138b9190615472565b8154600160c81b6001600160801b039290921679ff000000000000000000ffffffffffffffffffffffffffffffff199091161717808255600c54604051600160801b9092046001600160401b0316917f78611aecfda8d341359c248df527c95aef93d446c92bb928b2a81b7abcb1d8d990600090a3604080516000815260001960208201527f6bd5c950a8d8df17f772f5af37cb3655737899cbf903264b9795592da439661c910160405180910390a1600c805460009061144b90615494565b9091555061145761127e565b50565b6114643382613975565b6114895760405162461bcd60e51b8152600401611480906154ad565b60405180910390fd5b6114948383836139f3565b505050565b60006202a3006001600160401b03164201905063389a75e1600c5233600052806020600c2055337fdbf36a107da19e49527a7176a1babf963b4b0ff8cde35ee35d6cd8f1f9ac7e1d600080a250565b60006114f3836119a9565b82106115555760405162461bcd60e51b815260206004820152602b60248201527f455243373231456e756d657261626c653a206f776e657220696e646578206f7560448201526a74206f6620626f756e647360a81b6064820152608401611480565b506001600160a01b03919091166000908152600660209081526040808320938352929052205490565b61158661395a565b6001600160a01b03166000908152601560205260409020805460ff19169055565b600e5460808301516000908152601160205260409081902090516317de5cbf60e11b815260609283926001600160a01b0390911691632fbcb97e916115f29188918891600401615656565b600060405180830381865afa15801561160f573d6000803e3d6000fd5b505050506040513d6000823e601f3d908101601f19168201604052611637919081019061567d565b915091509250929050565b6000828152600b602090815260409182902083518155908301516001808301805492151560ff1993841617905592840151600283015560608401516003830180546001600160a01b039092166001600160a01b03199092169190911790556080840151600483015560a08401516005830180548695929391929116908360078111156116d0576116d061486a565b021790555050505050565b60006116e561127e565b60006116f060085490565b6116fb90600161545f565b90506117078382613ba0565b604080516000815260001960208201527f6bd5c950a8d8df17f772f5af37cb3655737899cbf903264b9795592da439661c910160405180910390a192915050565b611494838383604051806020016040528060008152506126b8565b61145781613bba565b60606000611779836119a9565b90506000816001600160401b03811115611795576117956148f8565b6040519080825280602002602001820160405280156117be578160200160208202803683370190505b50905060005b828110156117fb576117d685826114e8565b8282815181106117e8576117e8615391565b60209081029190910101526001016117c4565b509392505050565b600061180e60085490565b82106118715760405162461bcd60e51b815260206004820152602c60248201527f455243373231456e756d657261626c653a20676c6f62616c20696e646578206f60448201526b7574206f6620626f756e647360a01b6064820152608401611480565b6008828154811061188457611884615391565b90600052602060002001549050919050565b63389a75e1600c523360005260006020600c2055337ffa7b8eab7da67f412cc9575ed43464468f9bfbae89d1675917346ca6d8fe3c92600080a2565b600e5460408051632e0f792b60e11b815290516060926001600160a01b031691635c1ef2569160048083019260009291908290030181865afa15801561191c573d6000803e3d6000fd5b505050506040513d6000823e601f3d908101601f19168201604052611944919081019061542b565b905090565b6000818152600260205260408120546001600160a01b031680610df45760405162461bcd60e51b8152602060048201526018602482015277115490cdcc8c4e881a5b9d985b1a59081d1bdad95b88125160421b6044820152606401611480565b60006001600160a01b038216611a135760405162461bcd60e51b815260206004820152602960248201527f4552433732313a2061646472657373207a65726f206973206e6f7420612076616044820152683634b21037bbb732b960b91b6064820152608401611480565b506001600160a01b031660009081526003602052604090205490565b611a3761395a565b611a416000613c69565b565b611a4b61395a565b601480546001600160a01b0319166001600160a01b0392909216919091179055565b60116020526000908152604090208054600182018054919291611a8f9061535d565b80601f0160208091040260200160405190810160405280929190818152602001828054611abb9061535d565b8015611b085780601f10611add57610100808354040283529160200191611b08565b820191906000526020600020905b815481529060010190602001808311611aeb57829003601f168201915b5050506002840154600385018054949560ff909216949193509150611b2c9061535d565b80601f0160208091040260200160405190810160405280929190818152602001828054611b589061535d565b8015611ba55780601f10611b7a57610100808354040283529160200191611ba5565b820191906000526020600020905b815481529060010190602001808311611b8857829003601f168201915b505050505090806004018054611bba9061535d565b80601f0160208091040260200160405190810160405280929190818152602001828054611be69061535d565b8015611c335780601f10611c0857610100808354040283529160200191611c33565b820191906000526020600020905b815481529060010190602001808311611c1657829003601f168201915b505050505090806005018054611c489061535d565b80601f0160208091040260200160405190810160405280929190818152602001828054611c749061535d565b8015611cc15780601f10611c9657610100808354040283529160200191611cc1565b820191906000526020600020905b815481529060010190602001808311611ca457829003601f168201915b5050506006840154600785015460088601805495966001600160a01b0393841696929093169450919250611cf49061535d565b80601f0160208091040260200160405190810160405280929190818152602001828054611d209061535d565b8015611d6d5780601f10611d4257610100808354040283529160200191611d6d565b820191906000526020600020905b815481529060010190602001808311611d5057829003601f168201915b505050505090806009018054611d829061535d565b80601f0160208091040260200160405190810160405280929190818152602001828054611dae9061535d565b8015611dfb5780601f10611dd057610100808354040283529160200191611dfb565b820191906000526020600020905b815481529060010190602001808311611dde57829003601f168201915b505050505090508a565b600082815260116020908152604090912082518155908201518291906001820190611e30908261571e565b50604082015160028201805460ff19166001836007811115611e5457611e5461486a565b021790555060608201516003820190611e6d908261571e565b5060808201516004820190611e82908261571e565b5060a08201516005820190611e97908261571e565b5060c08201516006820180546001600160a01b039283166001600160a01b03199182161790915560e08401516007840180549190931691161790556101008201516008820190611ee7908261571e565b506101208201516009820190611efd908261571e565b5050505050565b6000818152600260205260409020546001600160a01b0316611f3957604051632df0e24560e21b815260040160405180910390fd5b33611f4382611949565b6001600160a01b031614158015611f6557506013546001600160a01b03163314155b15611f8357604051633e79b9f360e01b815260040160405180910390fd5b600081815260126020908152604080832080548251818502810185019093528083529192909190830182828015611fe357602002820191906000526020600020905b81546001600160a01b03168152600190910190602001808311611fc5575b505050505090508051600003611ff7575050565b612002600083613ca7565b60005b81518110156120435761203b61201a84611949565b83838151811061202c5761202c615391565b60200260200101516000613d15565b600101612005565b50600082815260126020526040812061205b9161463b565b60405182907fe6727257e6b1474b2ced9b705eafa89027508be445f1a76db669635c92f5242090600090a25050565b606060018054610e099061535d565b6120a161395a565b6001600160a01b03166000908152601560205260409020805460ff19166001179055565b606060006120d283612519565b905060008160200151612108576040518060400160405280600b81526020016a1e39bb339f1e17b9bb339f60a91b815250612115565b612115826080015161241f565b600e54608084015160009081526011602052604090209192506001600160a01b03169063a5e11e05908690859061214a6118d2565b866040518663ffffffff1660e01b815260040161216b9594939291906157dd565b600060405180830381865afa158015612188573d6000803e3d6000fd5b505050506040513d6000823e601f3d908101601f191682016040526121b0919081019061542b565b949350505050565b336001600160a01b0383160361220c5760405162461bcd60e51b815260206004820152601960248201527822a9219b99189d1030b8383937bb32903a379031b0b63632b960391b6044820152606401611480565b6000612217336119a9565b905060005b818110156123ea57600061223033836114e8565b905083156122d257600081815260126020526040812090805b825481101561229957876001600160a01b031683828154811061226e5761226e615391565b6000918252602090912001546001600160a01b0316036122915760019150612299565b600101612249565b50806122cb5781546001810183556000838152602090200180546001600160a01b0319166001600160a01b0389161790555b50506123e1565b6000818152601260205260408120905b81548110156123de57866001600160a01b031682828154811061230757612307615391565b6000918252602090912001546001600160a01b0316036123d65781548290612331906001906153bd565b8154811061234157612341615391565b9060005260206000200160009054906101000a90046001600160a01b031682828154811061237157612371615391565b9060005260206000200160006101000a8154816001600160a01b0302191690836001600160a01b03160217905550818054806123af576123af6153d0565b600082815260209020810160001990810180546001600160a01b03191690550190556123de565b6001016122e2565b50505b5060010161221c565b506114948383613ddf565b6123fd61395a565b601380546001600160a01b0319166001600160a01b0392909216919091179055565b600e54600082815260116020526040908190209051631349027b60e31b81526060926001600160a01b031691639a4813d891611239916004908101910161582e565b6060600061246e83612519565b608081015160009081526011602052604090206005018054919250906124939061535d565b80601f01602080910402602001604051908101604052809291908181526020018280546124bf9061535d565b801561250c5780601f106124e15761010080835404028352916020019161250c565b820191906000526020600020905b8154815290600101906020018083116124ef57829003601f168201915b5050505050915050919050565b61254f6040805160c08101825260008082526020820181905291810182905260608101829052608081018290529060a082015290565b6000828152600b60209081526040808320815160c08101835281548152600182015460ff90811615159482019490945260028201549281019290925260038101546001600160a01b031660608301526004810154608083015260058101549192909160a08401911660078111156125c8576125c861486a565b60078111156125d9576125d961486a565b90525080516000908152600d602052604090205460608201519192506001600160801b0316906001600160a01b03811615801561261857506040830151155b156126395760405163082d451d60e01b815260048101869052602401611480565b60165460405163687d69df60e11b81526001600160a01b0383169163d0fad3be9161266e9160ff169087908790600401615841565b60c060405180830381865afa15801561268b573d6000803e3d6000fd5b505050506040513d601f19601f820116820180604052508101906126af919061586f565b95945050505050565b6126c23383613975565b6126de5760405162461bcd60e51b8152600401611480906154ad565b6126ea84848484613dea565b50505050565b600e54604051635ab38bf760e01b8152606091829182916001600160a01b031690635ab38bf79061272d908790309063f127194290600401615992565b600060405180830381865afa15801561274a573d6000803e3d6000fd5b505050506040513d6000823e601f3d908101601f1916820160405261277291908101906159c4565b9250925092509193909250565b6060600061278c83612519565b90508060200151156127ac576127a5816080015161241f565b91506127d3565b6040518060400160405280600b81526020016a1e39bb339f1e17b9bb339f60a91b81525091505b50919050565b6000818152600260205260409020546060906001600160a01b031661281157604051632df0e24560e21b815260040160405180910390fd5b610df4826120c5565b612822614659565b600061282d83612519565b90506011600082608001518152602001908152602001600020604051806101400160405290816000820154815260200160018201805461286c9061535d565b80601f01602080910402602001604051908101604052809291908181526020018280546128989061535d565b80156128e55780601f106128ba576101008083540402835291602001916128e5565b820191906000526020600020905b8154815290600101906020018083116128c857829003601f168201915b5050509183525050600282015460209091019060ff16600781111561290c5761290c61486a565b600781111561291d5761291d61486a565b81526020016003820180546129319061535d565b80601f016020809104026020016040519081016040528092919081815260200182805461295d9061535d565b80156129aa5780601f1061297f576101008083540402835291602001916129aa565b820191906000526020600020905b81548152906001019060200180831161298d57829003601f168201915b505050505081526020016004820180546129c39061535d565b80601f01602080910402602001604051908101604052809291908181526020018280546129ef9061535d565b8015612a3c5780601f10612a1157610100808354040283529160200191612a3c565b820191906000526020600020905b815481529060010190602001808311612a1f57829003601f168201915b50505050508152602001600582018054612a559061535d565b80601f0160208091040260200160405190810160405280929190818152602001828054612a819061535d565b8015612ace5780601f10612aa357610100808354040283529160200191612ace565b820191906000526020600020905b815481529060010190602001808311612ab157829003601f168201915b505050918352505060068201546001600160a01b0390811660208301526007830154166040820152600882018054606090920191612b0b9061535d565b80601f0160208091040260200160405190810160405280929190818152602001828054612b379061535d565b8015612b845780601f10612b5957610100808354040283529160200191612b84565b820191906000526020600020905b815481529060010190602001808311612b6757829003601f168201915b50505050508152602001600982018054612b9d9061535d565b80601f0160208091040260200160405190810160405280929190818152602001828054612bc99061535d565b8015612c165780601f10612beb57610100808354040283529160200191612c16565b820191906000526020600020905b815481529060010190602001808311612bf957829003601f168201915b505050505081525050915050919050565b600e546040516338ce943360e01b815260609182916001600160a01b03909116906338ce943390612c64908690309063e08714a690600401615992565b600060405180830381865afa158015612c81573d6000803e3d6000fd5b505050506040513d6000823e601f3d908101601f19168201604052612ca9919081019061567d565b91509150915091565b6060806000612cc086612519565b600e546080820151600090815260116020526040908190209051630a6ab71760e21b81529293506001600160a01b03909116916329aadc5c91612d0d918a918a918a918891600401615a41565b600060405180830381865afa158015612d2a573d6000803e3d6000fd5b505050506040513d6000823e601f3d908101601f19168201604052612d52919081019061567d565b9250925050935093915050565b612d6761395a565b600e5460405163e1defed960e01b81526001600160a01b039091169063e1defed990612d999085908590600401614b6d565b600060405180830381600087803b158015612db357600080fd5b505af1158015612dc7573d6000803e3d6000fd5b505050505050565b60005b81518110156110da57612dfd828281518110612df057612df0615391565b6020026020010151613bba565b600101612dd2565b600080612e1183612519565b9050600060116000836080015181526020019081526020016000206040518061014001604052908160008201548152602001600182018054612e529061535d565b80601f0160208091040260200160405190810160405280929190818152602001828054612e7e9061535d565b8015612ecb5780601f10612ea057610100808354040283529160200191612ecb565b820191906000526020600020905b815481529060010190602001808311612eae57829003601f168201915b5050509183525050600282015460209091019060ff166007811115612ef257612ef261486a565b6007811115612f0357612f0361486a565b8152602001600382018054612f179061535d565b80601f0160208091040260200160405190810160405280929190818152602001828054612f439061535d565b8015612f905780601f10612f6557610100808354040283529160200191612f90565b820191906000526020600020905b815481529060010190602001808311612f7357829003601f168201915b50505050508152602001600482018054612fa99061535d565b80601f0160208091040260200160405190810160405280929190818152602001828054612fd59061535d565b80156130225780601f10612ff757610100808354040283529160200191613022565b820191906000526020600020905b81548152906001019060200180831161300557829003601f168201915b5050505050815260200160058201805461303b9061535d565b80601f01602080910402602001604051908101604052809291908181526020018280546130679061535d565b80156130b45780601f10613089576101008083540402835291602001916130b4565b820191906000526020600020905b81548152906001019060200180831161309757829003601f168201915b505050918352505060068201546001600160a01b03908116602083015260078301541660408201526008820180546060909201916130f19061535d565b80601f016020809104026020016040519081016040528092919081815260200182805461311d9061535d565b801561316a5780601f1061313f5761010080835404028352916020019161316a565b820191906000526020600020905b81548152906001019060200180831161314d57829003601f168201915b505050505081526020016009820180546131839061535d565b80601f01602080910402602001604051908101604052809291908181526020018280546131af9061535d565b80156131fc5780601f106131d1576101008083540402835291602001916131fc565b820191906000526020600020905b8154815290600101906020018083116131df57829003601f168201915b5050509190925250505060400151949350505050565b61321a614659565b6011600083815260200190815260200160002060405180610140016040529081600082015481526020016001820180546132539061535d565b80601f016020809104026020016040519081016040528092919081815260200182805461327f9061535d565b80156132cc5780601f106132a1576101008083540402835291602001916132cc565b820191906000526020600020905b8154815290600101906020018083116132af57829003601f168201915b5050509183525050600282015460209091019060ff1660078111156132f3576132f361486a565b60078111156133045761330461486a565b81526020016003820180546133189061535d565b80601f01602080910402602001604051908101604052809291908181526020018280546133449061535d565b80156133915780601f1061336657610100808354040283529160200191613391565b820191906000526020600020905b81548152906001019060200180831161337457829003601f168201915b505050505081526020016004820180546133aa9061535d565b80601f01602080910402602001604051908101604052809291908181526020018280546133d69061535d565b80156134235780601f106133f857610100808354040283529160200191613423565b820191906000526020600020905b81548152906001019060200180831161340657829003601f168201915b5050505050815260200160058201805461343c9061535d565b80601f01602080910402602001604051908101604052809291908181526020018280546134689061535d565b80156134b55780601f1061348a576101008083540402835291602001916134b5565b820191906000526020600020905b81548152906001019060200180831161349857829003601f168201915b505050918352505060068201546001600160a01b03908116602083015260078301541660408201526008820180546060909201916134f29061535d565b80601f016020809104026020016040519081016040528092919081815260200182805461351e9061535d565b801561356b5780601f106135405761010080835404028352916020019161356b565b820191906000526020600020905b81548152906001019060200180831161354e57829003601f168201915b505050505081526020016009820180546135849061535d565b80601f01602080910402602001604051908101604052809291908181526020018280546135b09061535d565b80156135fd5780601f106135d2576101008083540402835291602001916135fd565b820191906000526020600020905b8154815290600101906020018083116135e057829003601f168201915b5050505050815250509050919050565b61361561395a565b63389a75e1600c52806000526020600c20805442111561363d57636f5e88186000526004601cfd5b6000905561145781613c69565b6060806060600061365a88612519565b600e54608082015160009081526011602052604090819020905163aeea03e560e01b81529293506001600160a01b039091169163aeea03e5916136aa918c918c918c918c91899190600401615a91565b600060405180830381865afa1580156136c7573d6000803e3d6000fd5b505050506040513d6000823e601f3d908101601f191682016040526136ef91908101906159c4565b935093509350509450945094915050565b61370861395a565b8060601b61371e57637448fbae6000526004601cfd5b61145781613c69565b600e5460808301516000908152601160205260409081902090516330235ddd60e21b8152606092839283926001600160a01b039092169163c08d7774916137749189918991600401615656565b600060405180830381865afa158015613791573d6000803e3d6000fd5b505050506040513d6000823e601f3d908101601f191682016040526137b991908101906159c4565b9250925092509250925092565b60006001600160e01b0319821663780e9d6360e01b1480610df45750610df482613e1d565b6000818152600260205260409020546001600160a01b03166114575760405162461bcd60e51b8152602060048201526018602482015277115490cdcc8c4e881a5b9d985b1a59081d1bdad95b88125160421b6044820152606401611480565b600061385582611949565b9050806001600160a01b0316836001600160a01b0316036138c25760405162461bcd60e51b815260206004820152602160248201527f4552433732313a20617070726f76616c20746f2063757272656e74206f776e656044820152603960f91b6064820152608401611480565b336001600160a01b03821614806138de57506138de8133610c96565b6139505760405162461bcd60e51b815260206004820152603e60248201527f4552433732313a20617070726f76652063616c6c6572206973206e6f7420746f60448201527f6b656e206f776e6572206e6f7220617070726f76656420666f7220616c6c00006064820152608401611480565b6114948383613ca7565b638b78c6d819543314611a41576382b429006000526004601cfd5b60008061398183611949565b9050806001600160a01b0316846001600160a01b031614806139c857506001600160a01b0380821660009081526005602090815260408083209388168352929052205460ff165b806121b05750836001600160a01b03166139e184610e8c565b6001600160a01b031614949350505050565b826001600160a01b0316613a0682611949565b6001600160a01b031614613a6a5760405162461bcd60e51b815260206004820152602560248201527f4552433732313a207472616e736665722066726f6d20696e636f72726563742060448201526437bbb732b960d91b6064820152608401611480565b6001600160a01b038216613acc5760405162461bcd60e51b8152602060048201526024808201527f4552433732313a207472616e7366657220746f20746865207a65726f206164646044820152637265737360e01b6064820152608401611480565b613ad7838383613e6d565b613ae2600082613ca7565b6001600160a01b0383166000908152600360205260408120805460019290613b0b9084906153bd565b90915550506001600160a01b0382166000908152600360205260408120805460019290613b3990849061545f565b909155505060008181526002602052604080822080546001600160a01b0319166001600160a01b0386811691821790925591518493918716917fddf252ad1be2c89b69c2b068fc378daa952ba7f163c4a11628f55a4df523b3ef91a4611494838383613fee565b6110da8282604051806020016040528060008152506140d2565b6000613bc582611949565b9050613bd381600084613e6d565b613bde600083613ca7565b6001600160a01b0381166000908152600360205260408120805460019290613c079084906153bd565b909155505060008281526002602052604080822080546001600160a01b0319169055518391906001600160a01b038416907fddf252ad1be2c89b69c2b068fc378daa952ba7f163c4a11628f55a4df523b3ef908390a46110da81600084613fee565b638b78c6d81980546001600160a01b039092169182907f8be0079c531659141344cd1fd0a4f28419497f9722a3daafe3b4186f6b6457e0600080a355565b600081815260046020526040902080546001600160a01b0319166001600160a01b0384169081179091558190613cdc82611949565b6001600160a01b03167f8c5be1e5ebec7d5bd14f71427d1e84f3dd0314c0f7b2291e5b200ac8c7c3b92560405160405180910390a45050565b816001600160a01b0316836001600160a01b031603613d725760405162461bcd60e51b815260206004820152601960248201527822a9219b99189d1030b8383937bb32903a379031b0b63632b960391b6044820152606401611480565b6001600160a01b03838116600081815260056020908152604080832094871680845294825291829020805460ff191686151590811790915591519182527f17307eab39ab6107e8899845ad3d59bd9653f200f220920489ca2b5937696c31910160405180910390a3505050565b6110da338383613d15565b613df58484846139f3565b613e0184848484614105565b6126ea5760405162461bcd60e51b815260040161148090615b02565b60006001600160e01b031982166380ac58cd60e01b1480613e4e57506001600160e01b03198216635b5e139f60e01b145b80610df457506301ffc9a760e01b6001600160e01b0319831614610df4565b6001600160a01b038316613e8657611494838383614206565b601454604051634f6088cd60e01b8152600481018390526000916001600160a01b031690634f6088cd90602401608060405180830381865afa158015613ed0573d6000803e3d6000fd5b505050506040513d601f19601f82011682018060405250810190613ef49190615b54565b5090925050506001600160a01b03811615613f34576014546001600160a01b03163314613f345760405163bf646b0f60e01b815260040160405180910390fd5b6001600160a01b038316613f5757613f4c82846142be565b6126ea848484614206565b60135460405162525fcd60e91b81526001600160a01b0385811660048301529091169063a4bf9a0090602401602060405180830381865afa158015613fa0573d6000803e3d6000fd5b505050506040513d601f19601f82011682018060405250810190613fc49190615ba9565b600003613fe4576040516326a45c0160e21b815260040160405180910390fd5b613f4c82846142be565b6000613ff982611949565b60135460405162525fcd60e91b81526001600160a01b0380841660048301529293506000929091169063a4bf9a0090602401602060405180830381865afa158015614048573d6000803e3d6000fd5b505050506040513d601f19601f8201168201806040525081019061406c9190615ba9565b60145460405163236313ff60e11b8152600481018390529192506001600160a01b0316906346c627fe90602401600060405180830381600087803b1580156140b357600080fd5b505af11580156140c7573d6000803e3d6000fd5b505050505050505050565b6140dc8383614355565b6140e96000848484614105565b6114945760405162461bcd60e51b815260040161148090615b02565b60006001600160a01b0384163b156141fb57604051630a85bd0160e11b81526001600160a01b0385169063150b7a0290614149903390899088908890600401615bc2565b6020604051808303816000875af1925050508015614184575060408051601f3d908101601f1916820190925261418191810190615bf5565b60015b6141e1573d8080156141b2576040519150601f19603f3d011682016040523d82523d6000602084013e6141b7565b606091505b5080516000036141d95760405162461bcd60e51b815260040161148090615b02565b805181602001fd5b6001600160e01b031916630a85bd0160e11b1490506121b0565b506001949350505050565b6001600160a01b0383166142615761425c81600880546000838152600960205260408120829055600182018355919091527ff3f7a9fe364faab93b216da50a3214154f22a0a2b415b23a84c8169e8b636ee30155565b614284565b816001600160a01b0316836001600160a01b0316146142845761428483826144ab565b6001600160a01b03821661429b5761149481614548565b826001600160a01b0316826001600160a01b0316146114945761149482826145f7565b601454604051632e1d274f60e01b8152600481018490526001600160a01b0390911690632e1d274f90602401600060405180830381600087803b15801561430457600080fd5b505af1158015614318573d6000803e3d6000fd5b50506014546040516302fbe78f60e41b8152600481018690526001600160a01b0385811660248301529091169250632fbe78f09150604401612d99565b6001600160a01b0382166143ab5760405162461bcd60e51b815260206004820181905260248201527f4552433732313a206d696e7420746f20746865207a65726f20616464726573736044820152606401611480565b6000818152600260205260409020546001600160a01b0316156144105760405162461bcd60e51b815260206004820152601c60248201527f4552433732313a20746f6b656e20616c7265616479206d696e746564000000006044820152606401611480565b61441c60008383613e6d565b6001600160a01b038216600090815260036020526040812080546001929061444590849061545f565b909155505060008181526002602052604080822080546001600160a01b0319166001600160a01b03861690811790915590518392907fddf252ad1be2c89b69c2b068fc378daa952ba7f163c4a11628f55a4df523b3ef908290a46110da60008383613fee565b600060016144b8846119a9565b6144c291906153bd565b600083815260076020526040902054909150808214614515576001600160a01b03841660009081526006602090815260408083208584528252808320548484528184208190558352600790915290208190555b5060009182526007602090815260408084208490556001600160a01b039094168352600681528383209183525290812055565b60085460009061455a906001906153bd565b6000838152600960205260408120546008805493945090928490811061458257614582615391565b9060005260206000200154905080600883815481106145a3576145a3615391565b60009182526020808320909101929092558281526009909152604080822084905585825281205560088054806145db576145db6153d0565b6001900381819060005260206000200160009055905550505050565b6000614602836119a9565b6001600160a01b039093166000908152600660209081526040808320868452825280832085905593825260079052919091209190915550565b508054600082559060005260206000209081019061145791906146be565b60408051610140810182526000808252606060208301529091820190815260200160608152602001606081526020016060815260200160006001600160a01b0316815260200160006001600160a01b0316815260200160608152602001606081525090565b5b808211156146d357600081556001016146bf565b5090565b6000602082840312156146e957600080fd5b5035919050565b6020808252825182820181905260009190848201906040850190845b818110156147315783516001600160a01b03168352928401929184019160010161470c565b50909695505050505050565b6001600160e01b03198116811461145757600080fd5b60006020828403121561476557600080fd5b81356147708161473d565b9392505050565b60005b8381101561479257818101518382015260200161477a565b50506000910152565b600081518084526147b3816020860160208601614777565b601f01601f19169290920160200192915050565b602081526000614770602083018461479b565b6001600160a01b038116811461145757600080fd5b80356147fa816147da565b919050565b6000806040838503121561481257600080fd5b823561481d816147da565b946020939093013593505050565b6000806040838503121561483e57600080fd5b50508035926020909101359150565b60006020828403121561485f57600080fd5b8135614770816147da565b634e487b7160e01b600052602160045260246000fd5b6008811061489e57634e487b7160e01b600052602160045260246000fd5b9052565b805182526020810151151560208301526040810151604083015260018060a01b0360608201511660608301526080810151608083015260a081015161149460a0840182614880565b60c08101610df482846148a2565b634e487b7160e01b600052604160045260246000fd5b60405160c081016001600160401b0381118282101715614930576149306148f8565b60405290565b60405161014081016001600160401b0381118282101715614930576149306148f8565b60405161018081016001600160401b0381118282101715614930576149306148f8565b604051601f8201601f191681016001600160401b03811182821017156149a4576149a46148f8565b604052919050565b60006001600160401b038211156149c5576149c56148f8565b50601f01601f191660200190565b600082601f8301126149e457600080fd5b81356149f76149f2826149ac565b61497c565b818152846020838601011115614a0c57600080fd5b816020850160208301376000918101602001919091529392505050565b600060208284031215614a3b57600080fd5b81356001600160401b03811115614a5157600080fd5b6121b0848285016149d3565b600080600060608486031215614a7257600080fd5b8335614a7d816147da565b92506020840135614a8d816147da565b929592945050506040919091013590565b801515811461145757600080fd5b80356147fa81614a9e565b6008811061145757600080fd5b80356147fa81614ab7565b600060c08284031215614ae157600080fd5b614ae961490e565b9050813581526020820135614afd81614a9e565b6020820152604082810135908201526060820135614b1a816147da565b60608201526080828101359082015260a0820135614b3781614ab7565b60a082015292915050565b60008060e08385031215614b5557600080fd5b614b5f8484614acf565b9460c0939093013593505050565b604081526000614b80604083018561479b565b82810360208401526126af818561479b565b60008060e08385031215614ba557600080fd5b82359150614bb68460208501614acf565b90509250929050565b6020808252825182820181905260009190848201906040850190845b8181101561473157835183529284019291840191600101614bdb565b60006101408c8352806020840152614c118184018d61479b565b9050614c20604084018c614880565b8281036060840152614c32818b61479b565b90508281036080840152614c46818a61479b565b905082810360a0840152614c5a818961479b565b6001600160a01b0388811660c0860152871660e08501528381036101008501529050614c86818661479b565b9050828103610120840152614c9b818561479b565b9d9c50505050505050505050505050565b60008060408385031215614cbf57600080fd5b8235915060208301356001600160401b0380821115614cdd57600080fd5b908401906101408287031215614cf257600080fd5b614cfa614936565b82358152602083013582811115614d1057600080fd5b614d1c888286016149d3565b602083015250614d2e60408401614ac4565b6040820152606083013582811115614d4557600080fd5b614d51888286016149d3565b606083015250608083013582811115614d6957600080fd5b614d75888286016149d3565b60808301525060a083013582811115614d8d57600080fd5b614d99888286016149d3565b60a083015250614dab60c084016147ef565b60c0820152614dbc60e084016147ef565b60e08201526101008084013583811115614dd557600080fd5b614de1898287016149d3565b8284015250506101208084013583811115614dfb57600080fd5b614e07898287016149d3565b8284015250508093505050509250929050565b60008060408385031215614e2d57600080fd5b8235614e38816147da565b91506020830135614e4881614a9e565b809150509250929050565b60008060008060808587031215614e6957600080fd5b8435614e74816147da565b93506020850135614e84816147da565b92506040850135915060608501356001600160401b03811115614ea657600080fd5b614eb2878288016149d3565b91505092959194509250565b803563ffffffff811681146147fa57600080fd5b803560ff811681146147fa57600080fd5b600060208284031215614ef557600080fd5b81356001600160401b0380821115614f0c57600080fd5b908301906101808286031215614f2157600080fd5b614f29614959565b823581526020830135602082015260408301356040820152606083013560608201526080830135608082015260a083013560a082015260c083013560c0820152614f7560e08401614ebe565b60e08201526101008381013590820152610120614f93818501614ed2565b908201526101408381013583811115614fab57600080fd5b614fb7888287016149d3565b8284015250506101609150614fcd828401614aac565b91810191909152949350505050565b606081526000614fef606083018661479b565b8281036020840152615001818661479b565b90508281036040840152615015818561479b565b9695505050505050565b60208152815160208201526000602083015161014080604085015261504861016085018361479b565b9150604085015161505c6060860182614880565b506060850151601f1980868503016080870152615079848361479b565b935060808701519150808685030160a0870152615096848361479b565b935060a08701519150808685030160c08701526150b3848361479b565b935060c087015191506150d160e08701836001600160a01b03169052565b60e087015191506101006150ef818801846001600160a01b03169052565b8088015192505061012081878603018188015261510c858461479b565b908801518782039092018488015293509050615015838261479b565b60008060006060848603121561513d57600080fd5b8335925060208401356001600160401b038082111561515b57600080fd5b615167878388016149d3565b9350604086013591508082111561517d57600080fd5b5061518a868287016149d3565b9150509250925092565b600080604083850312156151a757600080fd5b82356001600160401b03808211156151be57600080fd5b6151ca868387016149d3565b935060208501359150808211156151e057600080fd5b506151ed858286016149d3565b9150509250929050565b6000602080838503121561520a57600080fd5b82356001600160401b038082111561522157600080fd5b818501915085601f83011261523557600080fd5b813581811115615247576152476148f8565b8060051b915061525884830161497c565b818152918301840191848101908884111561527257600080fd5b938501935b8385101561529057843582529385019390850190615277565b98975050505050505050565b60208101610df48284614880565b600080604083850312156152bd57600080fd5b82356152c8816147da565b91506020830135614e48816147da565b600080600080608085870312156152ee57600080fd5b8435935060208501356001600160401b038082111561530c57600080fd5b615318888389016149d3565b9450604087013591508082111561532e57600080fd5b61533a888389016149d3565b9350606087013591508082111561535057600080fd5b50614eb2878288016149d3565b600181811c9082168061537157607f821691505b6020821081036127d357634e487b7160e01b600052602260045260246000fd5b634e487b7160e01b600052603260045260246000fd5b634e487b7160e01b600052601160045260246000fd5b81810381811115610df457610df46153a7565b634e487b7160e01b600052603160045260246000fd5b600082601f8301126153f757600080fd5b81516154056149f2826149ac565b81815284602083860101111561541a57600080fd5b6121b0826020830160208701614777565b60006020828403121561543d57600080fd5b81516001600160401b0381111561545357600080fd5b6121b0848285016153e6565b80820180821115610df457610df46153a7565b60008261548f57634e487b7160e01b600052601260045260246000fd5b500690565b6000600182016154a6576154a66153a7565b5060010190565b6020808252602e908201527f4552433732313a2063616c6c6572206973206e6f7420746f6b656e206f776e6560408201526d1c881b9bdc88185c1c1c9bdd995960921b606082015260800190565b600081546155088161535d565b808552602060018381168015615525576001811461553f5761556d565b60ff1985168884015283151560051b88018301955061556d565b866000528260002060005b858110156155655781548a820186015290830190840161554a565b890184019650505b505050505092915050565b600061014082548452806020850152615596818501600185016154fb565b90506155a6600284015460ff1690565b6155b36040860182614880565b5083810360608501526155c981600385016154fb565b905083810360808501526155e081600485016154fb565b905083810360a08501526155f781600585016154fb565b905061560d60068401546001600160a01b031690565b6001600160a01b0390811660c086015260078401541660e085015283810361010085015261563e81600885016154fb565b90508381036101208501526121b081600985016154fb565b600061010061566583876148a2565b8460c08401528060e084015261501581840185615578565b6000806040838503121561569057600080fd5b82516001600160401b03808211156156a757600080fd5b6156b3868387016153e6565b935060208501519150808211156156c957600080fd5b506151ed858286016153e6565b601f821115611494576000816000526020600020601f850160051c810160208610156156ff5750805b601f850160051c820191505b81811015612dc75782815560010161570b565b81516001600160401b03811115615737576157376148f8565b61574b81615745845461535d565b846156d6565b602080601f83116001811461578057600084156157685750858301515b600019600386901b1c1916600185901b178555612dc7565b600085815260208120601f198616915b828110156157af57888601518255948401946001909101908401615790565b50858210156157cd5787850151600019600388901b60f8161c191681555b5050505050600190811b01905550565b60006101408783526157f260208401886148a2565b8060e084015261580481840187615578565b9050828103610100840152615819818661479b565b9050828103610120840152615290818561479b565b60208152600061477060208301846154fb565b8315158152610100810161585860208301856148a2565b6001600160801b03831660e0830152949350505050565b600060c0828403121561588157600080fd5b61588961490e565b82518152602083015161589b81614a9e565b60208201526040838101519082015260608301516158b8816147da565b60608201526080838101519082015260a08301516158d581614ab7565b60a08201529392505050565b6000610180825184526020830151602085015260408301516040850152606083015160608501526080830151608085015260a083015160a085015260c083015160c085015260e083015161593d60e086018263ffffffff169052565b5061010083810151908501526101208084015160ff1690850152610140808401518186018390526159708387018261479b565b92505050610160808401516159888287018215159052565b5090949350505050565b6040815260006159a560408301866158e1565b90506121b060208301848660201b63ffffffff919091161760401b9052565b6000806000606084860312156159d957600080fd5b83516001600160401b03808211156159f057600080fd5b6159fc878388016153e6565b94506020860151915080821115615a1257600080fd5b615a1e878388016153e6565b93506040860151915080821115615a3457600080fd5b5061518a868287016153e6565b6000610140878352806020840152615a5b8184018861479b565b90508281036040840152615a6f818761479b565b9050615a7e60608401866148a2565b8281036101208401526152908185615578565b6000610160888352806020840152615aab8184018961479b565b90508281036040840152615abf818861479b565b90508281036060840152615ad3818761479b565b9050615ae260808401866148a2565b828103610140840152615af58185615578565b9998505050505050505050565b60208082526032908201527f4552433732313a207472616e7366657220746f206e6f6e20455243373231526560408201527131b2b4bb32b91034b6b83632b6b2b73a32b960711b606082015260800190565b60008060008060808587031215615b6a57600080fd5b845193506020850151615b7c816147da565b6040860151909350615b8d816147da565b6060860151909250615b9e816147da565b939692955090935050565b600060208284031215615bbb57600080fd5b5051919050565b6001600160a01b03858116825284166020820152604081018390526080606082018190526000906150159083018461479b565b600060208284031215615c0757600080fd5b81516147708161473d56fea2646970667358221220cb02304d4a9402d8ed6db479bd125311a259c6ad0535789f83307a650fe2044064736f6c63430008160033608060405234801561001057600080fd5b50612fa6806100206000396000f3fe608060405234801561001057600080fd5b50600436106100f55760003560e01c80635c1ef25611610097578063aeea03e511610066578063aeea03e5146101e8578063c08d7774146101fb578063e1defed91461020e578063e6ab9d5a1461022357600080fd5b80635c1ef256146101a7578063898aa117146101af5780639a4813d8146101c2578063a5e11e05146101d557600080fd5b806338ce9433116100d357806338ce94331461015757806351dc71891461016a5780635ab38bf7146101725780635bf382591461019457600080fd5b806321b12c23146100fa57806329aadc5c146101235780632fbcb97e14610144575b600080fd5b61010d610108366004611e7e565b61022b565b60405161011a9190611f0a565b60405180910390f35b61013661013136600461212f565b610a74565b60405161011a9291906121d4565b610136610152366004612202565b610af4565b610136610165366004612369565b610bfc565b610136610f69565b610185610180366004612369565b611089565b60405161011a939291906123cc565b61010d6101a2366004611e7e565b61141e565b61010d611462565b61010d6101bd366004611e7e565b611531565b61010d6101d0366004611e7e565b611783565b61010d6101e336600461240f565b6117c8565b6101856101f63660046124a8565b6119f7565b610185610209366004612202565b611aa6565b61022161021c366004612570565b611bc9565b005b61010d611be7565b60606000604051806102000160405280604051806040016040528060018152602001600360fc1b8152508152602001604051806040016040528060018152602001603160f81b8152508152602001604051806040016040528060018152602001601960f91b8152508152602001604051806040016040528060018152602001603360f81b8152508152602001604051806040016040528060018152602001600d60fa1b8152508152602001604051806040016040528060018152602001603560f81b8152508152602001604051806040016040528060018152602001601b60f91b8152508152602001604051806040016040528060018152602001603760f81b8152508152602001604051806040016040528060018152602001600760fb1b8152508152602001604051806040016040528060018152602001603960f81b8152508152602001604051806040016040528060018152602001606160f81b8152508152602001604051806040016040528060018152602001603160f91b8152508152602001604051806040016040528060018152602001606360f81b8152508152602001604051806040016040528060018152602001601960fa1b8152508152602001604051806040016040528060018152602001606560f81b8152508152602001604051806040016040528060018152602001603360f91b81525081525090506000604051806103c00160405280604051806040016040528060018152602001600360fc1b8152508152602001604051806040016040528060018152602001603160f81b8152508152602001604051806040016040528060018152602001601960f91b8152508152602001604051806040016040528060018152602001603360f81b8152508152602001604051806040016040528060018152602001600d60fa1b8152508152602001604051806040016040528060018152602001603560f81b8152508152602001604051806040016040528060018152602001601b60f91b8152508152602001604051806040016040528060018152602001603760f81b8152508152602001604051806040016040528060018152602001600760fb1b8152508152602001604051806040016040528060018152602001603960f81b815250815260200160405180604001604052806002815260200161031360f41b815250815260200160405180604001604052806002815260200161313160f01b815250815260200160405180604001604052806002815260200161189960f11b815250815260200160405180604001604052806002815260200161313360f01b8152508152602001604051806040016040528060028152602001610c4d60f21b815250815260200160405180604001604052806002815260200161313560f01b815250815260200160405180604001604052806002815260200161189b60f11b815250815260200160405180604001604052806002815260200161313760f01b815250815260200160405180604001604052806002815260200161062760f31b815250815260200160405180604001604052806002815260200161313960f01b815250815260200160405180604001604052806002815260200161032360f41b815250815260200160405180604001604052806002815260200161323160f01b815250815260200160405180604001604052806002815260200161191960f11b815250815260200160405180604001604052806002815260200161323360f01b8152508152602001604051806040016040528060028152602001610c8d60f21b815250815260200160405180604001604052806002815260200161323560f01b815250815260200160405180604001604052806002815260200161191b60f11b815250815260200160405180604001604052806002815260200161323760f01b815250815260200160405180604001604052806002815260200161064760f31b815250815260200160405180604001604052806002815260200161323960f01b815250815250905060005b611194811015610a6c57600060f81b858281518110610813576108136125d3565b01602001516001600160f81b0319161115610a5a576000601e610837600584612615565b6108419190612629565b90506000601e610852600585612615565b61085c9190612615565b905060008560048961086f87600261263d565b8151811061087f5761087f6125d3565b016020015160f81c901c60ff166010811061089c5761089c6125d3565b602002015186896108ae87600261263d565b815181106108be576108be6125d3565b60209101015160f81c600f16601081106108da576108da6125d3565b60200201518760048b6108ee89600361263d565b815181106108fe576108fe6125d3565b016020015160f81c901c60ff166010811061091b5761091b6125d3565b6020020151888b61092d89600361263d565b8151811061093d5761093d6125d3565b60209101015160f81c600f1660108110610959576109596125d3565b60200201518960048d61096c8b8361263d565b8151811061097c5761097c6125d3565b016020015160f81c901c60ff1660108110610999576109996125d3565b60200201518a8d6109ab8b600461263d565b815181106109bb576109bb6125d3565b60209101015160f81c600f16601081106109d7576109d76125d3565b60200201516040516020016109f196959493929190612650565b6040516020818303038152906040529050868584601e8110610a1557610a156125d3565b60200201518684601e8110610a2c57610a2c6125d3565b602002015183604051602001610a4594939291906126cf565b60405160208183030381529060405296505050505b610a6560058261263d565b90506107f2565b505050919050565b606080606080610a85868a87610af4565b8851909350909150600003610a9f57809350819250610ae8565b8781604051602001610ab2929190612789565b60405160208183030381529060405293508682604051602001610ad69291906127b8565b60405160208183030381529060405292505b50509550959350505050565b60608084602001518015610b085750600084115b15610bb05760408084015190516301be83d160e11b8152610b9a9173__$4987fe9f4e800c5c4c1535f64ed232842a$__9163037d07a291610b4b916004016127f4565b600060405180830381865af4158015610b68573d6000803e3d6000fd5b505050506040513d6000823e601f3d908101601f19168201604052610b90919081019061286c565b8460200151611c08565b9050610ba98360800151611783565b9150610bf4565b604051806040016040528060028152602001617b7d60f01b81525090506040518060400160405280600b81526020016a1e39bb339f1e17b9bb339f60a91b81525091505b935093915050565b60608060008560c001511115610c7e5783838660c0015184846040518463ffffffff1660e01b8152600401610c33939291906128a0565b600060405180830381865afa158015610c50573d6000803e3d6000fd5b505050506040513d6000823e601f3d908101601f19168201604052610c7891908101906128cb565b90925090505b60a085015115610cfa5783838660a0015184846040518463ffffffff1660e01b8152600401610caf939291906128a0565b600060405180830381865afa158015610ccc573d6000803e3d6000fd5b505050506040513d6000823e601f3d908101601f19168201604052610cf491908101906128cb565b90925090505b608085015115610d76578383866080015184846040518463ffffffff1660e01b8152600401610d2b939291906128a0565b600060405180830381865afa158015610d48573d6000803e3d6000fd5b505050506040513d6000823e601f3d908101601f19168201604052610d7091908101906128cb565b90925090505b604085015115610df2578383866040015184846040518463ffffffff1660e01b8152600401610da7939291906128a0565b600060405180830381865afa158015610dc4573d6000803e3d6000fd5b505050506040513d6000823e601f3d908101601f19168201604052610dec91908101906128cb565b90925090505b602085015115610e6e578383866020015184846040518463ffffffff1660e01b8152600401610e23939291906128a0565b600060405180830381865afa158015610e40573d6000803e3d6000fd5b505050506040513d6000823e601f3d908101601f19168201604052610e6891908101906128cb565b90925090505b845115610ee7578383866000015184846040518463ffffffff1660e01b8152600401610e9c939291906128a0565b600060405180830381865afa158015610eb9573d6000803e3d6000fd5b505050506040513d6000823e601f3d908101601f19168201604052610ee191908101906128cb565b90925090505b606085015115610bf4578383866060015184846040518463ffffffff1660e01b8152600401610f18939291906128a0565b600060405180830381865afa158015610f35573d6000803e3d6000fd5b505050506040513d6000823e601f3d908101601f19168201604052610f5d91908101906128cb565b90969095509350505050565b600080548190610f7890612924565b80601f0160208091040260200160405190810160405280929190818152602001828054610fa490612924565b8015610ff15780601f10610fc657610100808354040283529160200191610ff1565b820191906000526020600020905b815481529060010190602001808311610fd457829003601f168201915b50505050509080600101805461100690612924565b80601f016020809104026020016040519081016040528092919081815260200182805461103290612924565b801561107f5780601f106110545761010080835404028352916020019161107f565b820191906000526020600020905b81548152906001019060200180831161106257829003601f168201915b5050505050905082565b606080606060008660c0015111156111125784848760c001518584866040518563ffffffff1660e01b81526004016110c4949392919061295e565b600060405180830381865afa1580156110e1573d6000803e3d6000fd5b505050506040513d6000823e601f3d908101601f1916820160405261110991908101906129a8565b91945090925090505b60a0860151156111935784848760a001518584866040518563ffffffff1660e01b8152600401611145949392919061295e565b600060405180830381865afa158015611162573d6000803e3d6000fd5b505050506040513d6000823e601f3d908101601f1916820160405261118a91908101906129a8565b91945090925090505b60808601511561121457848487608001518584866040518563ffffffff1660e01b81526004016111c6949392919061295e565b600060405180830381865afa1580156111e3573d6000803e3d6000fd5b505050506040513d6000823e601f3d908101601f1916820160405261120b91908101906129a8565b91945090925090505b60408601511561129557848487604001518584866040518563ffffffff1660e01b8152600401611247949392919061295e565b600060405180830381865afa158015611264573d6000803e3d6000fd5b505050506040513d6000823e601f3d908101601f1916820160405261128c91908101906129a8565b91945090925090505b60208601511561131657848487602001518584866040518563ffffffff1660e01b81526004016112c8949392919061295e565b600060405180830381865afa1580156112e5573d6000803e3d6000fd5b505050506040513d6000823e601f3d908101601f1916820160405261130d91908101906129a8565b91945090925090505b85511561139457848487600001518584866040518563ffffffff1660e01b8152600401611346949392919061295e565b600060405180830381865afa158015611363573d6000803e3d6000fd5b505050506040513d6000823e601f3d908101601f1916820160405261138b91908101906129a8565b91945090925090505b60608601511561141557848487606001518584866040518563ffffffff1660e01b81526004016113c7949392919061295e565b600060405180830381865afa1580156113e4573d6000803e3d6000fd5b505050506040513d6000823e601f3d908101601f1916820160405261140c91908101906129a8565b91945090925090505b93509350939050565b606060405180610100016040528060d28152602001612e9f60d291398260405160200161144c929190612a39565b6040516020818303038152906040529050919050565b606060006114fb60008001805461147890612924565b80601f01602080910402602001604051908101604052809291908181526020018280546114a490612924565b80156114f15780601f106114c6576101008083540402835291602001916114f1565b820191906000526020600020905b8154815290600101906020018083116114d457829003601f168201915b5050505050611531565b905060006115088261022b565b90508060405160200161151b9190612a79565b6040516020818303038152906040529250505090565b8051604080516111948082526111c0820190925260609291600091906020820181803683370190505090506000611569600584612615565b905060005b81811015611779576000611583826005612ae3565b90506000878281518110611599576115996125d3565b016020015160f81c90506000886115b184600161263d565b815181106115c1576115c16125d3565b016020015160f81c9050600060ff83166115dc83601e612ae3565b6115e6919061263d565b6115f1906005612ae3565b9050898481518110611605576116056125d3565b602001015160f81c60f81b878281518110611622576116226125d3565b60200101906001600160f81b031916908160001a90535089846001018151811061164e5761164e6125d3565b602001015160f81c60f81b87826001018151811061166e5761166e6125d3565b60200101906001600160f81b031916908160001a90535089846002018151811061169a5761169a6125d3565b602001015160f81c60f81b8782600201815181106116ba576116ba6125d3565b60200101906001600160f81b031916908160001a9053508984600301815181106116e6576116e66125d3565b602001015160f81c60f81b878260030181518110611706576117066125d3565b60200101906001600160f81b031916908160001a905350898460040181518110611732576117326125d3565b602001015160f81c60f81b878260040181518110611752576117526125d3565b60200101906001600160f81b031916908160001a905350506001909301925061156e915050565b5090949350505050565b6060600061179083611531565b9050600061179d8261022b565b9050806040516020016117b09190612afa565b60405160208183030381529060405292505050919050565b60608060608660200151156118e75760a08701516040516301be83d160e11b81526118649173__$4987fe9f4e800c5c4c1535f64ed232842a$__9163037d07a291611815916004016127f4565b600060405180830381865af4158015611832573d6000803e3d6000fd5b505050506040513d6000823e601f3d908101601f1916820160405261185a919081019061286c565b8760200151611c08565b6118926040518060400160405280600781526020016621b932b0ba37b960c91b815250886101000151611c08565b6118bf6040518060400160405280600681526020016529b2b0b9b7b760d11b815250896101200151611c08565b6040516020016118d193929190612b3f565b6040516020818303038152906040529050611938565b6040518060400160405280600f81526020016e2261747472696275746573223a5b5d60881b81525090506040518060400160405280600b81526020016a1e39bb339f1e17b9bb339f60a91b81525093505b611962858560405160200161194e929190612789565b60405160208183030381529060405261141e565b9150600061196f83611c35565b60405160200161197f9190612bc2565b6040516020818303038152906040529050600061199b8a611c43565b83836040516020016119af93929190612c1e565b60405160208183030381529060405290506119c981611c35565b6040516020016119d99190612cd9565b60405160208183030381529060405294505050505095945050505050565b606080606080606080611a0b888d89611aa6565b8c519095509193509150600003611a2a57819550829450809350611a97565b8a82604051602001611a3d929190612789565b60405160208183030381529060405295508983604051602001611a619291906127b8565b60405160208183030381529060405294508881604051602001611a85929190612789565b60405160208183030381529060405293505b50505096509650969350505050565b606080606085602001518015611abc5750600085115b15611b6b57611ace8460800151611783565b9250611b5d73__$4987fe9f4e800c5c4c1535f64ed232842a$__63037d07a286604001516040518263ffffffff1660e01b8152600401611b0e91906127f4565b600060405180830381865af4158015611b2b573d6000803e3d6000fd5b505050506040513d6000823e601f3d908101601f19168201604052611b53919081019061286c565b8560200151611c08565b90508360a001519150611415565b6040518060400160405280600b81526020016a1e39bb339f1e17b9bb339f60a91b8152509250604051806040016040528060028152602001617b7d60f01b815250905060405180602001604052806000815250915093509350939050565b6000611bd58382612d6e565b506001611be28282612d6e565b505050565b606060405180610100016040528060d28152602001612e9f60d29139905090565b60608282604051602001611c1d929190612e2d565b60405160208183030381529060405290505b92915050565b6060611c2f82600080611c87565b60606080604051019050602081016040526000815280600019835b928101926030600a8206018453600a900480611c5e575050819003601f19909101908152919050565b606083518015611d67576003600282010460021b60405192507f4142434445464748494a4b4c4d4e4f505152535455565758595a616263646566601f526106708515027f6768696a6b6c6d6e6f707172737475767778797a303132333435363738392d5f18603f52602083018181015b6003880197508751603f8160121c1651600053603f81600c1c1651600153603f8160061c1651600253603f811651600353506000518252600482019150808210611cf757602001604052613d3d60f01b600384066002048083039190915260008615159091029182900352900382525b509392505050565b634e487b7160e01b600052604160045260246000fd5b60405161014081016001600160401b0381118282101715611da857611da8611d6f565b60405290565b60405161018081016001600160401b0381118282101715611da857611da8611d6f565b604051601f8201601f191681016001600160401b0381118282101715611df957611df9611d6f565b604052919050565b60006001600160401b03821115611e1a57611e1a611d6f565b50601f01601f191660200190565b600082601f830112611e3957600080fd5b8135611e4c611e4782611e01565b611dd1565b818152846020838601011115611e6157600080fd5b816020850160208301376000918101602001919091529392505050565b600060208284031215611e9057600080fd5b81356001600160401b03811115611ea657600080fd5b611eb284828501611e28565b949350505050565b60005b83811015611ed5578181015183820152602001611ebd565b50506000910152565b60008151808452611ef6816020860160208601611eba565b601f01601f19169290920160200192915050565b602081526000611f1d6020830184611ede565b9392505050565b80358015158114611f3457600080fd5b919050565b80356001600160a01b0381168114611f3457600080fd5b803560088110611f3457600080fd5b600060c08284031215611f7157600080fd5b60405160c081018181106001600160401b0382111715611f9357611f93611d6f565b60405282358152905080611fa960208401611f24565b602082015260408301356040820152611fc460608401611f39565b606082015260808301356080820152611fdf60a08401611f50565b60a08201525092915050565b60006101408284031215611ffe57600080fd5b612006611d85565b90508135815260208201356001600160401b038082111561202657600080fd5b61203285838601611e28565b602084015261204360408501611f50565b6040840152606084013591508082111561205c57600080fd5b61206885838601611e28565b6060840152608084013591508082111561208157600080fd5b61208d85838601611e28565b608084015260a08401359150808211156120a657600080fd5b6120b285838601611e28565b60a08401526120c360c08501611f39565b60c08401526120d460e08501611f39565b60e0840152610100915081840135818111156120ef57600080fd5b6120fb86828701611e28565b83850152506101209150818401358181111561211657600080fd5b61212286828701611e28565b8385015250505092915050565b6000806000806000610140868803121561214857600080fd5b8535945060208601356001600160401b038082111561216657600080fd5b61217289838a01611e28565b9550604088013591508082111561218857600080fd5b61219489838a01611e28565b94506121a38960608a01611f5f565b93506101208801359150808211156121ba57600080fd5b506121c788828901611feb565b9150509295509295909350565b6040815260006121e76040830185611ede565b82810360208401526121f98185611ede565b95945050505050565b6000806000610100848603121561221857600080fd5b6122228585611f5f565b925060c0840135915060e08401356001600160401b0381111561224457600080fd5b61225086828701611feb565b9150509250925092565b803563ffffffff81168114611f3457600080fd5b803560ff81168114611f3457600080fd5b6000610180828403121561229257600080fd5b61229a611dae565b9050813581526020820135602082015260408201356040820152606082013560608201526080820135608082015260a082013560a082015260c082013560c08201526122e860e0830161225a565b60e0820152610100828101359082015261012061230681840161226e565b90820152610140828101356001600160401b0381111561232557600080fd5b61233185828601611e28565b828401525050610160612345818401611f24565b9082015292915050565b67ffffffffffffffff198116811461236657600080fd5b50565b60008060006040848603121561237e57600080fd5b83356001600160401b0381111561239457600080fd5b6123a08682870161227f565b93505060208401356123b18161234f565b9295606084901c955060409390931c63ffffffff1693505050565b6060815260006123df6060830186611ede565b82810360208401526123f18186611ede565b905082810360408401526124058185611ede565b9695505050505050565b6000806000806000610140868803121561242857600080fd5b853594506124398760208801611f5f565b935060e08601356001600160401b038082111561245557600080fd5b61246189838a01611feb565b945061010088013591508082111561247857600080fd5b61248489838a01611e28565b935061012088013591508082111561249b57600080fd5b506121c788828901611e28565b60008060008060008061016087890312156124c257600080fd5b8635955060208701356001600160401b03808211156124e057600080fd5b6124ec8a838b01611e28565b9650604089013591508082111561250257600080fd5b61250e8a838b01611e28565b9550606089013591508082111561252457600080fd5b6125308a838b01611e28565b945061253f8a60808b01611f5f565b935061014089013591508082111561255657600080fd5b5061256389828a01611feb565b9150509295509295509295565b6000806040838503121561258357600080fd5b82356001600160401b038082111561259a57600080fd5b6125a686838701611e28565b935060208501359150808211156125bc57600080fd5b506125c985828601611e28565b9150509250929050565b634e487b7160e01b600052603260045260246000fd5b634e487b7160e01b600052601260045260246000fd5b634e487b7160e01b600052601160045260246000fd5b600082612624576126246125e9565b500490565b600082612638576126386125e9565b500690565b80820180821115611c2f57611c2f6125ff565b6000875160206126638285838d01611eba565b8851918401916126768184848d01611eba565b88519201916126888184848c01611eba565b875192019161269a8184848b01611eba565b86519201916126ac8184848a01611eba565b85519201916126be8184848901611eba565b919091019998505050505050505050565b600085516126e1818460208a01611eba565b681e3932b1ba103c1e9160b91b9083019081528551612707816009840160208a01611eba565b6411103c9e9160d91b60099290910191820152845161272d81600e840160208901611eba565b7f222077696474683d223122206865696768743d2231222066696c6c3d22230000600e9290910191820152835161276b81602c840160208801611eba565b6211179f60e91b602c9290910191820152602f019695505050505050565b6000835161279b818460208801611eba565b8351908301906127af818360208801611eba565b01949350505050565b600083516127ca818460208801611eba565b600b60fa1b90830190815283516127e8816001840160208801611eba565b01600101949350505050565b602081016008831061281657634e487b7160e01b600052602160045260246000fd5b91905290565b600061282a611e4784611e01565b905082815283838301111561283e57600080fd5b611f1d836020830184611eba565b600082601f83011261285d57600080fd5b611f1d8383516020850161281c565b60006020828403121561287e57600080fd5b81516001600160401b0381111561289457600080fd5b611eb28482850161284c565b8381526060602082015260006128b96060830185611ede565b82810360408401526124058185611ede565b600080604083850312156128de57600080fd5b82516001600160401b03808211156128f557600080fd5b6129018683870161284c565b9350602085015191508082111561291757600080fd5b506125c98582860161284c565b600181811c9082168061293857607f821691505b60208210810361295857634e487b7160e01b600052602260045260246000fd5b50919050565b8481526080602082015260006129776080830186611ede565b82810360408401526129898186611ede565b9050828103606084015261299d8185611ede565b979650505050505050565b6000806000606084860312156129bd57600080fd5b83516001600160401b03808211156129d457600080fd5b6129e08783880161284c565b945060208601519150808211156129f657600080fd5b612a028783880161284c565b93506040860151915080821115612a1857600080fd5b508401601f81018613612a2a57600080fd5b6122508682516020840161281c565b60008351612a4b818460208801611eba565b835190830190612a5f818360208801611eba565b651e17b9bb339f60d11b9101908152600601949350505050565b7f3c672069643d2267686f73742220636c6173733d226722207374796c653d226f81526d3830b1b4ba3c9d101a98129d911f60911b602082015260008251612ac881602e850160208701611eba565b631e17b39f60e11b602e939091019283015250603201919050565b8082028115828204841417611c2f57611c2f6125ff565b6d1e339034b21e912a3930b4ba111f60911b81528151600090612b2481600e850160208701611eba565b631e17b39f60e11b600e939091019283015250601201919050565b6d2261747472696275746573223a5b60901b81528351600090612b6981600e850160208901611eba565b8083019050600b60fa1b80600e8301528551612b8c81600f850160208a01611eba565b600f9201918201528351612ba7816010840160208801611eba565b605d60f81b6010929091019182015260110195945050505050565b7f22696d616765223a22646174613a696d6167652f7376672b786d6c3b626173658152620d8d0b60ea1b602082015260008251612c06816023850160208701611eba565b601160f91b6023939091019283015250602401919050565b757b226e616d65223a225065746572205472616974202360501b81528351600090612c50816016850160208901611eba565b7f222c226465736372697074696f6e223a2254686973206973206a757374206120601691840191820152651d195cdd088b60d21b60368201528451612c9c81603c840160208901611eba565b600b60fa1b603c92909101918201528351612cbe81603d840160208801611eba565b607d60f81b603d9290910191820152603e0195945050505050565b7f646174613a6170706c69636174696f6e2f6a736f6e3b6261736536342c000000815260008251612d1181601d850160208701611eba565b91909101601d0192915050565b601f821115611be2576000816000526020600020601f850160051c81016020861015612d475750805b601f850160051c820191505b81811015612d6657828155600101612d53565b505050505050565b81516001600160401b03811115612d8757612d87611d6f565b612d9b81612d958454612924565b84612d1e565b602080601f831160018114612dd05760008415612db85750858301515b600019600386901b1c1916600185901b178555612d66565b600085815260208120601f198616915b82811015612dff57888601518255948401946001909101908401612de0565b5085821015612e1d5787850151600019600388901b60f8161c191681555b5050505050600190811b01905550565b6e3d913a3930b4ba2fba3cb832911d1160891b81528251600090612e5881600f850160208801611eba565b6a1116113b30b63ab2911d1160a91b600f918401918201528351612e8381601a840160208801611eba565b61227d60f01b601a9290910191820152601c0194935050505056fe3c7376672073686170652d72656e646572696e673d2263726973704564676573222076696577426f783d22302030203330203330222066696c6c3d226e6f6e652220786d6c6e733d22687474703a2f2f7777772e77332e6f72672f323030302f737667223e3c7374796c653e726563747b77696474683a3170783b206865696768743a203170783b7d202e62677b77696474683a333070783b206865696768743a20333070783b7d203c2f7374796c653e3c7265637420636c6173733d226267222066696c6c3d2223304436453944222f3ea2646970667358221220bc6c8314ed993ea6ace252cc9d85b25ee8f90a62b9c5a6df24f2a0ce2d08694d64736f6c63430008160033","linkReferences":{"src/TraitCategory.sol":{"TraitCategory":[{"start":27277,"length":20},{"start":30551,"length":20},{"start":31293,"length":20}]}}},"methodIdentifiers":{"addMinter(address)":"983b2d56","approve(address,uint256)":"095ea7b3","balanceOf(address)":"70a08231","burn(uint256)":"42966c68","burnBatch(uint256[])":"e4623c1b","callGetSVGZmapAndMetadataTrait(uint256,string,string,bytes)":"f1271942","callGetSvgAndMetadataTrait(uint256,string,string)":"e08714a6","cancelOwnershipHandover()":"54d1f13d","completeOwnershipHandover(address)":"f04e283e","createSvgFromPixels(bytes)":"21b12c23","getApproved(uint256)":"081812fc","getApprovedOperators(uint256)":"00db6348","getApprovedOperatorsLength(uint256)":"c1ff78be","getCurrentEpoch()":"b97dd9e2","getEpoch()":"757991a8","getEpochData(uint256)":"859e7d32","getGhostSvg()":"5c1ef256","getSVGZmapAndMetadataTrait((uint256,bool,uint256,address,uint256,uint8),uint256)":"f901667f","getStoredTraitForTokenId(uint256)":"208c25a3","getSvgAndMetadata((uint256,uint256,uint256,uint256,uint256,uint256,uint256,uint32,uint256,uint8,string,bool))":"df2c2b88","getSvgAndMetadataTrait((uint256,bool,uint256,address,uint256,uint8),uint256)":"33a70328","getSvgForTokenId(uint256)":"c7791531","getSvgZmapsAndMetadata((uint256,uint256,uint256,uint256,uint256,uint256,uint256,uint32,uint256,uint8,string,bool))":"bb12d21d","getTrait(uint256)":"acb586df","getTraitImageSvg(uint256)":"a5e2912a","getTraitIndexToMetadata(uint256)":"ea139544","getTraitMetadata(uint256)":"d1bfc2af","getTraitType(uint256)":"e8a1268d","getZMapForTokenId(uint256)":"a8498c74","invalidateAllOperatorApprovals(uint256)":"90f63842","isApprovedForAll(address,address)":"e985e9c5","isMinter(address)":"aa271e1a","marketplace()":"abc8c7af","minter()":"07546172","name()":"06fdde03","owner()":"8da5cb5b","ownerOf(uint256)":"6352211e","ownershipHandoverExpiresAt(address)":"fee81cf4","petersMain()":"1ca97604","removeMinter(address)":"3092afd5","renderAsDataUri(uint256)":"a1d62680","renounceOwnership()":"715018a6","requestOwnershipHandover()":"25692962","resolveEpochIfNecessary()":"239ffa68","safeMint(address)":"40d097c3","safeTransferFrom(address,address,uint256)":"42842e0e","safeTransferFrom(address,address,uint256,bytes)":"b88d4fde","setApprovalForAll(address,bool)":"a22cb465","setGhostMaps(bytes,bytes)":"e1defed9","setMarketplace(address)":"73ad6c2d","setPetersMain(address)":"a2c12c94","setTraitForTokenId(uint256,(uint256,bool,uint256,address,uint256,uint8))":"36d34ab9","setTraitIndexToMetadata(uint256,(uint256,string,uint8,string,bytes,bytes,address,address,string,string))":"8d37c537","setTraitRenderer(address)":"120def24","signer()":"238ac933","supportsInterface(bytes4)":"01ffc9a7","symbol()":"95d89b41","tokenByIndex(uint256)":"4f6ccce7","tokenOfOwnerByIndex(address,uint256)":"2f745c59","tokenURI(uint256)":"c87b56dd","totalSupply()":"18160ddd","traitIdToApprovedOperators(uint256,uint256)":"11f3910d","traitIndexToMetadata(uint256)":"817a29a4","traitRenderer()":"c876371b","traitTokens()":"e14d026f","transferFrom(address,address,uint256)":"23b872dd","transferOwnership(address)":"f2fde38b","walletOfOwner(address)":"438b6300"},"id":57}