{"abi":[{"type":"constructor","inputs":[{"name":"localDeploy_","type":"bool","internalType":"bool"}],"stateMutability":"nonpayable"},{"type":"function","name":"addMinter","inputs":[{"name":"_minter","type":"address","internalType":"address"}],"outputs":[],"stateMutability":"nonpayable"},{"type":"function","name":"approve","inputs":[{"name":"_operator","type":"address","internalType":"address"},{"name":"_tokenId","type":"uint256","internalType":"uint256"}],"outputs":[],"stateMutability":"nonpayable"},{"type":"function","name":"balanceOf","inputs":[{"name":"owner","type":"address","internalType":"address"}],"outputs":[{"name":"","type":"uint256","internalType":"uint256"}],"stateMutability":"view"},{"type":"function","name":"burn","inputs":[{"name":"tokenId","type":"uint256","internalType":"uint256"}],"outputs":[],"stateMutability":"nonpayable"},{"type":"function","name":"burnBatch","inputs":[{"name":"tokenIds","type":"uint256[]","internalType":"uint256[]"}],"outputs":[],"stateMutability":"nonpayable"},{"type":"function","name":"callGetSVGZmapAndMetadataTrait","inputs":[{"name":"_traitId","type":"uint256","internalType":"uint256"},{"name":"_traitsSvg","type":"string","internalType":"string"},{"name":"_traitsAttributes","type":"string","internalType":"string"},{"name":"_traitZMaps","type":"bytes","internalType":"bytes"}],"outputs":[{"name":"traitsSvg","type":"string","internalType":"string"},{"name":"traitsAttributes","type":"string","internalType":"string"},{"name":"traitZMaps","type":"bytes","internalType":"bytes"}],"stateMutability":"view"},{"type":"function","name":"callGetSvgAndMetadataTrait","inputs":[{"name":"_traitId","type":"uint256","internalType":"uint256"},{"name":"_traitsSvg","type":"string","internalType":"string"},{"name":"_traitsAttributes","type":"string","internalType":"string"}],"outputs":[{"name":"traitsSvg","type":"string","internalType":"string"},{"name":"traitsAttributes","type":"string","internalType":"string"}],"stateMutability":"view"},{"type":"function","name":"cancelOwnershipHandover","inputs":[],"outputs":[],"stateMutability":"payable"},{"type":"function","name":"completeOwnershipHandover","inputs":[{"name":"pendingOwner","type":"address","internalType":"address"}],"outputs":[],"stateMutability":"payable"},{"type":"function","name":"createSvgFromPixels","inputs":[{"name":"_pixels","type":"bytes","internalType":"bytes"}],"outputs":[{"name":"svgParts","type":"bytes","internalType":"bytes"}],"stateMutability":"view"},{"type":"function","name":"getApproved","inputs":[{"name":"tokenId","type":"uint256","internalType":"uint256"}],"outputs":[{"name":"","type":"address","internalType":"address"}],"stateMutability":"view"},{"type":"function","name":"getApprovedOperators","inputs":[{"name":"traitId","type":"uint256","internalType":"uint256"}],"outputs":[{"name":"","type":"address[]","internalType":"address[]"}],"stateMutability":"view"},{"type":"function","name":"getApprovedOperatorsLength","inputs":[{"name":"traitId","type":"uint256","internalType":"uint256"}],"outputs":[{"name":"","type":"uint256","internalType":"uint256"}],"stateMutability":"view"},{"type":"function","name":"getCurrentEpoch","inputs":[],"outputs":[{"name":"","type":"uint256","internalType":"uint256"}],"stateMutability":"view"},{"type":"function","name":"getEpoch","inputs":[],"outputs":[{"name":"","type":"uint256","internalType":"uint256"}],"stateMutability":"view"},{"type":"function","name":"getEpochData","inputs":[{"name":"index","type":"uint256","internalType":"uint256"}],"outputs":[{"name":"","type":"tuple","internalType":"struct CommitReveal.Epoch","components":[{"name":"randomness","type":"uint128","internalType":"uint128"},{"name":"revealBlock","type":"uint64","internalType":"uint64"},{"name":"committed","type":"bool","internalType":"bool"},{"name":"revealed","type":"bool","internalType":"bool"}]}],"stateMutability":"view"},{"type":"function","name":"getGhostSvg","inputs":[],"outputs":[{"name":"svg","type":"string","internalType":"string"}],"stateMutability":"view"},{"type":"function","name":"getSVGZmapAndMetadataTrait","inputs":[{"name":"trait","type":"tuple","internalType":"struct ITraitStorage.StoredTrait","components":[{"name":"epoch","type":"uint256","internalType":"uint256"},{"name":"isRevealed","type":"bool","internalType":"bool"},{"name":"seed","type":"uint256","internalType":"uint256"},{"name":"renderMinterContract","type":"address","internalType":"address"},{"name":"traitIndex","type":"uint256","internalType":"uint256"},{"name":"traitType","type":"uint8","internalType":"enum TraitCategory.Name"}]},{"name":"traitId","type":"uint256","internalType":"uint256"}],"outputs":[{"name":"traitSvg","type":"string","internalType":"string"},{"name":"traitZmap","type":"bytes","internalType":"bytes"},{"name":"traitAttributes","type":"string","internalType":"string"}],"stateMutability":"view"},{"type":"function","name":"getStoredTraitForTokenId","inputs":[{"name":"_tokenId","type":"uint256","internalType":"uint256"}],"outputs":[{"name":"","type":"tuple","internalType":"struct ITraitStorage.StoredTrait","components":[{"name":"epoch","type":"uint256","internalType":"uint256"},{"name":"isRevealed","type":"bool","internalType":"bool"},{"name":"seed","type":"uint256","internalType":"uint256"},{"name":"renderMinterContract","type":"address","internalType":"address"},{"name":"traitIndex","type":"uint256","internalType":"uint256"},{"name":"traitType","type":"uint8","internalType":"enum TraitCategory.Name"}]}],"stateMutability":"view"},{"type":"function","name":"getSvgAndMetadata","inputs":[{"name":"storedPeter","type":"tuple","internalType":"struct IPeterStorage.StoredPeter","components":[{"name":"headId","type":"uint256","internalType":"uint256"},{"name":"hairId","type":"uint256","internalType":"uint256"},{"name":"faceId","type":"uint256","internalType":"uint256"},{"name":"accessoryId","type":"uint256","internalType":"uint256"},{"name":"topId","type":"uint256","internalType":"uint256"},{"name":"bottomId","type":"uint256","internalType":"uint256"},{"name":"shoesId","type":"uint256","internalType":"uint256"},{"name":"epoch","type":"uint32","internalType":"uint32"},{"name":"tokenId","type":"uint256","internalType":"uint256"},{"name":"bodyIndex","type":"uint8","internalType":"uint8"},{"name":"backgroundColor","type":"string","internalType":"string"},{"name":"render3D","type":"bool","internalType":"bool"}]}],"outputs":[{"name":"traitsSvg","type":"string","internalType":"string"},{"name":"traitsAttributes","type":"string","internalType":"string"}],"stateMutability":"view"},{"type":"function","name":"getSvgAndMetadataTrait","inputs":[{"name":"trait","type":"tuple","internalType":"struct ITraitStorage.StoredTrait","components":[{"name":"epoch","type":"uint256","internalType":"uint256"},{"name":"isRevealed","type":"bool","internalType":"bool"},{"name":"seed","type":"uint256","internalType":"uint256"},{"name":"renderMinterContract","type":"address","internalType":"address"},{"name":"traitIndex","type":"uint256","internalType":"uint256"},{"name":"traitType","type":"uint8","internalType":"enum TraitCategory.Name"}]},{"name":"traitId","type":"uint256","internalType":"uint256"}],"outputs":[{"name":"traitSvg","type":"string","internalType":"string"},{"name":"traitAttributes","type":"string","internalType":"string"}],"stateMutability":"view"},{"type":"function","name":"getSvgForTokenId","inputs":[{"name":"_tokenId","type":"uint256","internalType":"uint256"}],"outputs":[{"name":"traitSvg","type":"string","internalType":"string"}],"stateMutability":"view"},{"type":"function","name":"getSvgZmapsAndMetadata","inputs":[{"name":"storedPeter","type":"tuple","internalType":"struct IPeterStorage.StoredPeter","components":[{"name":"headId","type":"uint256","internalType":"uint256"},{"name":"hairId","type":"uint256","internalType":"uint256"},{"name":"faceId","type":"uint256","internalType":"uint256"},{"name":"accessoryId","type":"uint256","internalType":"uint256"},{"name":"topId","type":"uint256","internalType":"uint256"},{"name":"bottomId","type":"uint256","internalType":"uint256"},{"name":"shoesId","type":"uint256","internalType":"uint256"},{"name":"epoch","type":"uint32","internalType":"uint32"},{"name":"tokenId","type":"uint256","internalType":"uint256"},{"name":"bodyIndex","type":"uint8","internalType":"uint8"},{"name":"backgroundColor","type":"string","internalType":"string"},{"name":"render3D","type":"bool","internalType":"bool"}]}],"outputs":[{"name":"traitsSvg","type":"string","internalType":"string"},{"name":"traitZMaps","type":"bytes","internalType":"bytes"},{"name":"traitsAttributes","type":"string","internalType":"string"}],"stateMutability":"view"},{"type":"function","name":"getTrait","inputs":[{"name":"_tokenId","type":"uint256","internalType":"uint256"}],"outputs":[{"name":"","type":"tuple","internalType":"struct ITraitStorage.StoredTrait","components":[{"name":"epoch","type":"uint256","internalType":"uint256"},{"name":"isRevealed","type":"bool","internalType":"bool"},{"name":"seed","type":"uint256","internalType":"uint256"},{"name":"renderMinterContract","type":"address","internalType":"address"},{"name":"traitIndex","type":"uint256","internalType":"uint256"},{"name":"traitType","type":"uint8","internalType":"enum TraitCategory.Name"}]}],"stateMutability":"view"},{"type":"function","name":"getTraitImageSvg","inputs":[{"name":"index","type":"uint256","internalType":"uint256"}],"outputs":[{"name":"svg","type":"string","internalType":"string"}],"stateMutability":"view"},{"type":"function","name":"getTraitIndexToMetadata","inputs":[{"name":"_traitIndex","type":"uint256","internalType":"uint256"}],"outputs":[{"name":"","type":"tuple","internalType":"struct ITraitStorage.TraitMetadata","components":[{"name":"traitIndex","type":"uint256","internalType":"uint256"},{"name":"traitName","type":"string","internalType":"string"},{"name":"traitType","type":"uint8","internalType":"enum TraitCategory.Name"},{"name":"animations","type":"string","internalType":"string"},{"name":"colorMap","type":"bytes","internalType":"bytes"},{"name":"zMap","type":"bytes","internalType":"bytes"},{"name":"renderMinterContract","type":"address","internalType":"address"},{"name":"creatorAddress","type":"address","internalType":"address"},{"name":"creatorName","type":"string","internalType":"string"},{"name":"season","type":"string","internalType":"string"}]}],"stateMutability":"view"},{"type":"function","name":"getTraitMetadata","inputs":[{"name":"_tokenId","type":"uint256","internalType":"uint256"}],"outputs":[{"name":"","type":"tuple","internalType":"struct ITraitStorage.TraitMetadata","components":[{"name":"traitIndex","type":"uint256","internalType":"uint256"},{"name":"traitName","type":"string","internalType":"string"},{"name":"traitType","type":"uint8","internalType":"enum TraitCategory.Name"},{"name":"animations","type":"string","internalType":"string"},{"name":"colorMap","type":"bytes","internalType":"bytes"},{"name":"zMap","type":"bytes","internalType":"bytes"},{"name":"renderMinterContract","type":"address","internalType":"address"},{"name":"creatorAddress","type":"address","internalType":"address"},{"name":"creatorName","type":"string","internalType":"string"},{"name":"season","type":"string","internalType":"string"}]}],"stateMutability":"view"},{"type":"function","name":"getTraitType","inputs":[{"name":"_tokenId","type":"uint256","internalType":"uint256"}],"outputs":[{"name":"","type":"uint8","internalType":"enum TraitCategory.Name"}],"stateMutability":"view"},{"type":"function","name":"getZMapForTokenId","inputs":[{"name":"_tokenId","type":"uint256","internalType":"uint256"}],"outputs":[{"name":"","type":"string","internalType":"string"}],"stateMutability":"view"},{"type":"function","name":"invalidateAllOperatorApprovals","inputs":[{"name":"_tokenId","type":"uint256","internalType":"uint256"}],"outputs":[],"stateMutability":"nonpayable"},{"type":"function","name":"isApprovedForAll","inputs":[{"name":"owner","type":"address","internalType":"address"},{"name":"operator","type":"address","internalType":"address"}],"outputs":[{"name":"","type":"bool","internalType":"bool"}],"stateMutability":"view"},{"type":"function","name":"isMinter","inputs":[{"name":"","type":"address","internalType":"address"}],"outputs":[{"name":"","type":"bool","internalType":"bool"}],"stateMutability":"view"},{"type":"function","name":"marketplace","inputs":[],"outputs":[{"name":"","type":"address","internalType":"contract ChonksMarket"}],"stateMutability":"view"},{"type":"function","name":"name","inputs":[],"outputs":[{"name":"","type":"string","internalType":"string"}],"stateMutability":"view"},{"type":"function","name":"onERC721Received","inputs":[{"name":"","type":"address","internalType":"address"},{"name":"","type":"address","internalType":"address"},{"name":"","type":"uint256","internalType":"uint256"},{"name":"","type":"bytes","internalType":"bytes"}],"outputs":[{"name":"","type":"bytes4","internalType":"bytes4"}],"stateMutability":"pure"},{"type":"function","name":"owner","inputs":[],"outputs":[{"name":"result","type":"address","internalType":"address"}],"stateMutability":"view"},{"type":"function","name":"ownerOf","inputs":[{"name":"tokenId","type":"uint256","internalType":"uint256"}],"outputs":[{"name":"","type":"address","internalType":"address"}],"stateMutability":"view"},{"type":"function","name":"ownershipHandoverExpiresAt","inputs":[{"name":"pendingOwner","type":"address","internalType":"address"}],"outputs":[{"name":"result","type":"uint256","internalType":"uint256"}],"stateMutability":"view"},{"type":"function","name":"petersMain","inputs":[],"outputs":[{"name":"","type":"address","internalType":"contract PetersMain"}],"stateMutability":"view"},{"type":"function","name":"removeMinter","inputs":[{"name":"_minter","type":"address","internalType":"address"}],"outputs":[],"stateMutability":"nonpayable"},{"type":"function","name":"renderAsDataUri","inputs":[{"name":"_tokenId","type":"uint256","internalType":"uint256"}],"outputs":[{"name":"","type":"string","internalType":"string"}],"stateMutability":"view"},{"type":"function","name":"renounceOwnership","inputs":[],"outputs":[],"stateMutability":"payable"},{"type":"function","name":"requestOwnershipHandover","inputs":[],"outputs":[],"stateMutability":"payable"},{"type":"function","name":"resolveEpochIfNecessary","inputs":[],"outputs":[],"stateMutability":"nonpayable"},{"type":"function","name":"safeMint","inputs":[{"name":"_to","type":"address","internalType":"address"}],"outputs":[{"name":"","type":"uint256","internalType":"uint256"}],"stateMutability":"nonpayable"},{"type":"function","name":"safeTransferFrom","inputs":[{"name":"from","type":"address","internalType":"address"},{"name":"to","type":"address","internalType":"address"},{"name":"tokenId","type":"uint256","internalType":"uint256"}],"outputs":[],"stateMutability":"nonpayable"},{"type":"function","name":"safeTransferFrom","inputs":[{"name":"from","type":"address","internalType":"address"},{"name":"to","type":"address","internalType":"address"},{"name":"tokenId","type":"uint256","internalType":"uint256"},{"name":"data","type":"bytes","internalType":"bytes"}],"outputs":[],"stateMutability":"nonpayable"},{"type":"function","name":"setApprovalForAll","inputs":[{"name":"_operator","type":"address","internalType":"address"},{"name":"_approved","type":"bool","internalType":"bool"}],"outputs":[],"stateMutability":"nonpayable"},{"type":"function","name":"setGhostMaps","inputs":[{"name":"_colorMap","type":"bytes","internalType":"bytes"},{"name":"_zMap","type":"bytes","internalType":"bytes"}],"outputs":[],"stateMutability":"nonpayable"},{"type":"function","name":"setMarketplace","inputs":[{"name":"_marketplace","type":"address","internalType":"address"}],"outputs":[],"stateMutability":"nonpayable"},{"type":"function","name":"setPetersMain","inputs":[{"name":"_petersMain","type":"address","internalType":"address"}],"outputs":[],"stateMutability":"nonpayable"},{"type":"function","name":"setTraitForTokenId","inputs":[{"name":"_tokenId","type":"uint256","internalType":"uint256"},{"name":"_trait","type":"tuple","internalType":"struct ITraitStorage.StoredTrait","components":[{"name":"epoch","type":"uint256","internalType":"uint256"},{"name":"isRevealed","type":"bool","internalType":"bool"},{"name":"seed","type":"uint256","internalType":"uint256"},{"name":"renderMinterContract","type":"address","internalType":"address"},{"name":"traitIndex","type":"uint256","internalType":"uint256"},{"name":"traitType","type":"uint8","internalType":"enum TraitCategory.Name"}]}],"outputs":[],"stateMutability":"nonpayable"},{"type":"function","name":"setTraitIndexToMetadata","inputs":[{"name":"_traitIndex","type":"uint256","internalType":"uint256"},{"name":"_metadata","type":"tuple","internalType":"struct ITraitStorage.TraitMetadata","components":[{"name":"traitIndex","type":"uint256","internalType":"uint256"},{"name":"traitName","type":"string","internalType":"string"},{"name":"traitType","type":"uint8","internalType":"enum TraitCategory.Name"},{"name":"animations","type":"string","internalType":"string"},{"name":"colorMap","type":"bytes","internalType":"bytes"},{"name":"zMap","type":"bytes","internalType":"bytes"},{"name":"renderMinterContract","type":"address","internalType":"address"},{"name":"creatorAddress","type":"address","internalType":"address"},{"name":"creatorName","type":"string","internalType":"string"},{"name":"season","type":"string","internalType":"string"}]}],"outputs":[],"stateMutability":"nonpayable"},{"type":"function","name":"setTraitRenderer","inputs":[{"name":"_traitRenderer","type":"address","internalType":"address"}],"outputs":[],"stateMutability":"nonpayable"},{"type":"function","name":"signer","inputs":[],"outputs":[{"name":"","type":"address","internalType":"address"}],"stateMutability":"view"},{"type":"function","name":"supportsInterface","inputs":[{"name":"interfaceId","type":"bytes4","internalType":"bytes4"}],"outputs":[{"name":"","type":"bool","internalType":"bool"}],"stateMutability":"view"},{"type":"function","name":"symbol","inputs":[],"outputs":[{"name":"","type":"string","internalType":"string"}],"stateMutability":"view"},{"type":"function","name":"tokenByIndex","inputs":[{"name":"index","type":"uint256","internalType":"uint256"}],"outputs":[{"name":"","type":"uint256","internalType":"uint256"}],"stateMutability":"view"},{"type":"function","name":"tokenOfOwnerByIndex","inputs":[{"name":"owner","type":"address","internalType":"address"},{"name":"index","type":"uint256","internalType":"uint256"}],"outputs":[{"name":"","type":"uint256","internalType":"uint256"}],"stateMutability":"view"},{"type":"function","name":"tokenURI","inputs":[{"name":"_tokenId","type":"uint256","internalType":"uint256"}],"outputs":[{"name":"","type":"string","internalType":"string"}],"stateMutability":"view"},{"type":"function","name":"totalSupply","inputs":[],"outputs":[{"name":"","type":"uint256","internalType":"uint256"}],"stateMutability":"view"},{"type":"function","name":"traitIdToApprovedOperators","inputs":[{"name":"traitId","type":"uint256","internalType":"uint256"},{"name":"","type":"uint256","internalType":"uint256"}],"outputs":[{"name":"operators","type":"address","internalType":"address"}],"stateMutability":"view"},{"type":"function","name":"traitIndexToMetadata","inputs":[{"name":"","type":"uint256","internalType":"uint256"}],"outputs":[{"name":"traitIndex","type":"uint256","internalType":"uint256"},{"name":"traitName","type":"string","internalType":"string"},{"name":"traitType","type":"uint8","internalType":"enum TraitCategory.Name"},{"name":"animations","type":"string","internalType":"string"},{"name":"colorMap","type":"bytes","internalType":"bytes"},{"name":"zMap","type":"bytes","internalType":"bytes"},{"name":"renderMinterContract","type":"address","internalType":"address"},{"name":"creatorAddress","type":"address","internalType":"address"},{"name":"creatorName","type":"string","internalType":"string"},{"name":"season","type":"string","internalType":"string"}],"stateMutability":"view"},{"type":"function","name":"traitRenderer","inputs":[],"outputs":[{"name":"","type":"address","internalType":"contract TraitRenderer"}],"stateMutability":"view"},{"type":"function","name":"traitTokens","inputs":[],"outputs":[{"name":"epoch","type":"uint256","internalType":"uint256"}],"stateMutability":"view"},{"type":"function","name":"transferFrom","inputs":[{"name":"from","type":"address","internalType":"address"},{"name":"to","type":"address","internalType":"address"},{"name":"tokenId","type":"uint256","internalType":"uint256"}],"outputs":[],"stateMutability":"nonpayable"},{"type":"function","name":"transferOwnership","inputs":[{"name":"newOwner","type":"address","internalType":"address"}],"outputs":[],"stateMutability":"payable"},{"type":"function","name":"walletOfOwner","inputs":[{"name":"_owner","type":"address","internalType":"address"}],"outputs":[{"name":"","type":"uint256[]","internalType":"uint256[]"}],"stateMutability":"view"},{"type":"event","name":"AllOperatorApprovalsInvalidated","inputs":[{"name":"tokenId","type":"uint256","indexed":true,"internalType":"uint256"}],"anonymous":false},{"type":"event","name":"Approval","inputs":[{"name":"owner","type":"address","indexed":true,"internalType":"address"},{"name":"approved","type":"address","indexed":true,"internalType":"address"},{"name":"tokenId","type":"uint256","indexed":true,"internalType":"uint256"}],"anonymous":false},{"type":"event","name":"ApprovalForAll","inputs":[{"name":"owner","type":"address","indexed":true,"internalType":"address"},{"name":"operator","type":"address","indexed":true,"internalType":"address"},{"name":"approved","type":"bool","indexed":false,"internalType":"bool"}],"anonymous":false},{"type":"event","name":"BatchMetadataUpdate","inputs":[{"name":"_fromTokenId","type":"uint256","indexed":false,"internalType":"uint256"},{"name":"_toTokenId","type":"uint256","indexed":false,"internalType":"uint256"}],"anonymous":false},{"type":"event","name":"MetadataUpdate","inputs":[{"name":"_tokenId","type":"uint256","indexed":false,"internalType":"uint256"}],"anonymous":false},{"type":"event","name":"Mint","inputs":[{"name":"owner","type":"address","indexed":true,"internalType":"address"},{"name":"tokenId","type":"uint256","indexed":true,"internalType":"uint256"}],"anonymous":false},{"type":"event","name":"NewEpoch","inputs":[{"name":"epoch","type":"uint256","indexed":true,"internalType":"uint256"},{"name":"revealBlock","type":"uint64","indexed":true,"internalType":"uint64"}],"anonymous":false},{"type":"event","name":"OwnershipHandoverCanceled","inputs":[{"name":"pendingOwner","type":"address","indexed":true,"internalType":"address"}],"anonymous":false},{"type":"event","name":"OwnershipHandoverRequested","inputs":[{"name":"pendingOwner","type":"address","indexed":true,"internalType":"address"}],"anonymous":false},{"type":"event","name":"OwnershipTransferred","inputs":[{"name":"oldOwner","type":"address","indexed":true,"internalType":"address"},{"name":"newOwner","type":"address","indexed":true,"internalType":"address"}],"anonymous":false},{"type":"event","name":"Transfer","inputs":[{"name":"from","type":"address","indexed":true,"internalType":"address"},{"name":"to","type":"address","indexed":true,"internalType":"address"},{"name":"tokenId","type":"uint256","indexed":true,"internalType":"uint256"}],"anonymous":false},{"type":"error","name":"AlreadyInitialized","inputs":[]},{"type":"error","name":"CantTransfer","inputs":[]},{"type":"error","name":"NewOwnerIsZeroAddress","inputs":[]},{"type":"error","name":"NoHandoverRequest","inputs":[]},{"type":"error","name":"NotATBA","inputs":[]},{"type":"error","name":"NotAValidMinterContract","inputs":[]},{"type":"error","name":"NotYourTrait","inputs":[]},{"type":"error","name":"TraitNotFound","inputs":[{"name":"_tokenId","type":"uint256","internalType":"uint256"}]},{"type":"error","name":"TraitTokenDoesntExist","inputs":[]},{"type":"error","name":"Unauthorized","inputs":[]}],"bytecode":{"object":"0x60806040523480156200001157600080fd5b506040516200909938038062009099833981016040819052620000349162000152565b6040518060400160405280600b81526020016a506574657254726169747360a81b81525060405180604001604052806003815260200162282a2960e91b815250816000908162000085919062000224565b50600162000094828262000224565b50506001600a5550620000a73362000108565b6015805460ff1916821515179055604051620000c39062000144565b604051809103906000f080158015620000e0573d6000803e3d6000fd5b50600e80546001600160a01b0319166001600160a01b039290921691909117905550620002f0565b6001600160a01b0316638b78c6d8198190558060007f8be0079c531659141344cd1fd0a4f28419497f9722a3daafe3b4186f6b6457e08180a350565b612fc680620060d383390190565b6000602082840312156200016557600080fd5b815180151581146200017657600080fd5b9392505050565b634e487b7160e01b600052604160045260246000fd5b600181811c90821680620001a857607f821691505b602082108103620001c957634e487b7160e01b600052602260045260246000fd5b50919050565b601f8211156200021f576000816000526020600020601f850160051c81016020861015620001fa5750805b601f850160051c820191505b818110156200021b5782815560010162000206565b5050505b505050565b81516001600160401b038111156200024057620002406200017d565b620002588162000251845462000193565b84620001cf565b602080601f831160018114620002905760008415620002775750858301515b600019600386901b1c1916600185901b1785556200021b565b600085815260208120601f198616915b82811015620002c157888601518255948401946001909101908401620002a0565b5085821015620002e05787850151600019600388901b60f8161c191681555b5050505050600190811b01905550565b615dd380620003006000396000f3fe6080604052600436106103ee5760003560e01c80638d37c53711610208578063c779153111610118578063e4623c1b116100ab578063f04e283e1161007a578063f04e283e14610d09578063f127194214610d1c578063f2fde38b14610d3c578063f901667f14610d4f578063fee81cf414610d6f57600080fd5b8063e4623c1b14610c53578063e8a1268d14610c73578063e985e9c514610ca0578063ea13954414610ce957600080fd5b8063df2c2b88116100e7578063df2c2b8814610bdc578063e08714a614610bfc578063e14d026f14610c1c578063e1defed914610c3357600080fd5b8063c779153114610b4f578063c876371b14610b6f578063c87b56dd14610b8f578063d1bfc2af14610baf57600080fd5b8063a5e2912a1161019b578063acb586df1161016a578063acb586df14610ab3578063b88d4fde14610ad3578063b97dd9e214610803578063bb12d21d14610af3578063c1ff78be14610b2257600080fd5b8063a5e2912a14610a23578063a8498c7414610a43578063aa271e1a14610a63578063abc8c7af14610a9357600080fd5b8063983b2d56116101d7578063983b2d56146109a3578063a1d62680146109c3578063a22cb465146109e3578063a2c12c9414610a0357600080fd5b80638d37c537146109355780638da5cb5b1461095557806390f638421461096e57806395d89b411461098e57600080fd5b80633092afd51161030357806354d1f13d11610296578063715018a611610265578063715018a6146107db57806373ad6c2d146107e3578063757991a814610803578063817a29a414610818578063859e7d321461084e57600080fd5b806354d1f13d1461077e5780635c1ef256146107865780636352211e1461079b57806370a08231146107bb57600080fd5b806342842e0e116102d257806342842e0e146106f157806342966c6814610711578063438b6300146107315780634f6ccce71461075e57600080fd5b80633092afd51461066357806333a703281461068357806336d34ab9146106b157806340d097c3146106d157600080fd5b806318160ddd11610386578063238ac93311610355578063238ac933146105e6578063239ffa681461060657806323b872dd1461061b578063256929621461063b5780632f745c591461064357600080fd5b806318160ddd1461055a5780631ca9760414610579578063208c25a31461059957806321b12c23146105c657600080fd5b8063095ea7b3116103c2578063095ea7b3146104b357806311f3910d146104d5578063120def24146104f5578063150b7a021461051557600080fd5b8062db6348146103f357806301ffc9a71461042957806306fdde0314610459578063081812fc1461047b575b600080fd5b3480156103ff57600080fd5b5061041361040e3660046147c4565b610da2565b60405161042091906147dd565b60405180910390f35b34801561043557600080fd5b50610449610444366004614840565b610e0e565b6040519015158152602001610420565b34801561046557600080fd5b5061046e610e1f565b60405161042091906148b4565b34801561048757600080fd5b5061049b6104963660046147c4565b610eb1565b6040516001600160a01b039091168152602001610420565b3480156104bf57600080fd5b506104d36104ce3660046148ec565b610ed8565b005b3480156104e157600080fd5b5061049b6104f0366004614918565b611103565b34801561050157600080fd5b506104d361051036600461493a565b61113b565b34801561052157600080fd5b50610541610530366004614957565b630a85bd0160e11b95945050505050565b6040516001600160e01b03199091168152602001610420565b34801561056657600080fd5b506008545b604051908152602001610420565b34801561058557600080fd5b5060125461049b906001600160a01b031681565b3480156105a557600080fd5b506105b96105b43660046147c4565b611165565b6040516104209190614a75565b3480156105d257600080fd5b5061046e6105e1366004614bb4565b61122d565b3480156105f257600080fd5b50600f5461049b906001600160a01b031681565b34801561061257600080fd5b506104d36112a3565b34801561062757600080fd5b506104d3610636366004614be8565b61147f565b6104d36114be565b34801561064f57600080fd5b5061056b61065e3660046148ec565b61150d565b34801561066f57600080fd5b506104d361067e36600461493a565b6115a3565b34801561068f57600080fd5b506106a361069e366004614ccd565b6115cc565b604051610420929190614cf8565b3480156106bd57600080fd5b506104d36106cc366004614d1d565b611667565b3480156106dd57600080fd5b5061056b6106ec36600461493a565b611734565b3480156106fd57600080fd5b506104d361070c366004614be8565b6117d5565b34801561071d57600080fd5b506104d361072c3660046147c4565b6117f0565b34801561073d57600080fd5b5061075161074c36600461493a565b6117f9565b6040516104209190614d4a565b34801561076a57600080fd5b5061056b6107793660046147c4565b611890565b6104d3611923565b34801561079257600080fd5b5061046e61195f565b3480156107a757600080fd5b5061049b6107b63660046147c4565b6119d6565b3480156107c757600080fd5b5061056b6107d636600461493a565b611a36565b6104d3611abc565b3480156107ef57600080fd5b506104d36107fe36600461493a565b611ad0565b34801561080f57600080fd5b50600c5461056b565b34801561082457600080fd5b506108386108333660046147c4565b611afa565b6040516104209a99989796959493929190614d82565b34801561085a57600080fd5b506108ec6108693660046147c4565b6040805160808082018352600080835260208084018290528385018290526060938401829052948152600d855283902083519182018452546001600160801b03811682526001600160401b03600160801b8204169482019490945260ff600160c01b85048116151593820193909352600160c81b90930490911615159082015290565b604051610420919081516001600160801b031681526020808301516001600160401b03169082015260408083015115159082015260609182015115159181019190915260800190565b34801561094157600080fd5b506104d3610950366004614e37565b611e92565b34801561096157600080fd5b50638b78c6d8195461049b565b34801561097a57600080fd5b506104d36109893660046147c4565b611f91565b34801561099a57600080fd5b5061046e612117565b3480156109af57600080fd5b506104d36109be36600461493a565b612126565b3480156109cf57600080fd5b5061046e6109de3660046147c4565b612152565b3480156109ef57600080fd5b506104d36109fe366004614fa5565b612245565b348015610a0f57600080fd5b506104d3610a1e36600461493a565b612482565b348015610a2f57600080fd5b5061046e610a3e3660046147c4565b6124ac565b348015610a4f57600080fd5b5061046e610a5e3660046147c4565b6124ee565b348015610a6f57600080fd5b50610449610a7e36600461493a565b60146020526000908152604090205460ff1681565b348015610a9f57600080fd5b5060135461049b906001600160a01b031681565b348015610abf57600080fd5b506105b9610ace3660046147c4565b6125a6565b348015610adf57600080fd5b506104d3610aee366004614fde565b612745565b348015610aff57600080fd5b50610b13610b0e36600461506e565b61277d565b60405161042093929190615167565b348015610b2e57600080fd5b5061056b610b3d3660046147c4565b60009081526011602052604090205490565b348015610b5b57600080fd5b5061046e610b6a3660046147c4565b61280c565b348015610b7b57600080fd5b50600e5461049b906001600160a01b031681565b348015610b9b57600080fd5b5061046e610baa3660046147c4565b612862565b348015610bbb57600080fd5b50610bcf610bca3660046147c4565b6128a3565b60405161042091906151aa565b348015610be857600080fd5b506106a3610bf736600461506e565b612cb0565b348015610c0857600080fd5b506106a3610c173660046152b3565b612d3b565b348015610c2857600080fd5b50600c5461056b9081565b348015610c3f57600080fd5b506104d3610c4e36600461531f565b612de8565b348015610c5f57600080fd5b506104d3610c6e366004615382565b612e58565b348015610c7f57600080fd5b50610c93610c8e3660046147c4565b612e8e565b6040516104209190615427565b348015610cac57600080fd5b50610449610cbb366004615435565b6001600160a01b03918216600090815260056020908152604080832093909416825291909152205460ff1690565b348015610cf557600080fd5b50610bcf610d043660046147c4565b61329b565b6104d3610d1736600461493a565b613696565b348015610d2857600080fd5b50610b13610d37366004615463565b6136d3565b6104d3610d4a36600461493a565b613789565b348015610d5b57600080fd5b50610b13610d6a366004614ccd565b6137b0565b348015610d7b57600080fd5b5061056b610d8a36600461493a565b63389a75e1600c908152600091909152602090205490565b600081815260116020908152604091829020805483518184028101840190945280845260609392830182828015610e0257602002820191906000526020600020905b81546001600160a01b03168152600190910190602001808311610de4575b50505050509050919050565b6000610e198261384f565b92915050565b606060008054610e2e906154e8565b80601f0160208091040260200160405190810160405280929190818152602001828054610e5a906154e8565b8015610ea75780601f10610e7c57610100808354040283529160200191610ea7565b820191906000526020600020905b815481529060010190602001808311610e8a57829003601f168201915b5050505050905090565b6000610ebc82613874565b506000908152600460205260409020546001600160a01b031690565b6000818152600260205260409020546001600160a01b0316610f0d57604051632df0e24560e21b815260040160405180910390fd5b33610f17826119d6565b6001600160a01b031614610f3e57604051633e79b9f360e01b815260040160405180910390fd5b6001600160a01b03821661105f576000818152601160205260408120905b815481101561105857836001600160a01b0316828281548110610f8157610f8161551c565b6000918252602090912001546001600160a01b0316036110505781548290610fab90600190615548565b81548110610fbb57610fbb61551c565b9060005260206000200160009054906101000a90046001600160a01b0316828281548110610feb57610feb61551c565b9060005260206000200160006101000a8154816001600160a01b0302191690836001600160a01b03160217905550818054806110295761102961555b565b600082815260209020810160001990810180546001600160a01b0319169055019055611058565b600101610f5c565b50506110f5565b600081815260116020526040812090805b82548110156110c057846001600160a01b03168382815481106110955761109561551c565b6000918252602090912001546001600160a01b0316036110b857600191506110c0565b600101611070565b50806110f25781546001810183556000838152602090200180546001600160a01b0319166001600160a01b0386161790555b50505b6110ff82826138d3565b5050565b6011602052816000526040600020818154811061111f57600080fd5b6000918252602090912001546001600160a01b03169150829050565b6111436139e3565b600e80546001600160a01b0319166001600160a01b0392909216919091179055565b61119b6040805160c08101825260008082526020820181905291810182905260608101829052608081018290529060a082015290565b6000828152600b6020908152604091829020825160c08101845281548152600182015460ff90811615159382019390935260028201549381019390935260038101546001600160a01b03166060840152600481015460808401526005810154909160a0840191166007811115611213576112136149f5565b6007811115611224576112246149f5565b90525092915050565b600e546040516321b12c2360e01b81526060916001600160a01b0316906321b12c239061125e9085906004016148b4565b600060405180830381865afa15801561127b573d6000803e3d6000fd5b505050506040513d6000823e601f3d908101601f19168201604052610e1991908101906155b6565b600c546000908152600d602052604090208054600160c01b900460ff1615806112fb57508054600160c81b900460ff161580156112fb57506112e761010043615548565b8154600160801b90046001600160401b0316105b156113465761130b4360326155ea565b815460ff60c01b196001600160401b0392909216600160801b029190911668ffffffffffffffffff60801b1990911617600160c01b17815550565b8054600160801b90046001600160401b031643111561147c57805460408051600160801b9092046001600160401b031640602083015244908201526001600160801b03906060016040516020818303038152906040528051906020012060001c6113b091906155fd565b8154600160c81b6001600160801b039290921679ff000000000000000000ffffffffffffffffffffffffffffffff199091161717808255600c54604051600160801b9092046001600160401b0316917f78611aecfda8d341359c248df527c95aef93d446c92bb928b2a81b7abcb1d8d990600090a3604080516000815260001960208201527f6bd5c950a8d8df17f772f5af37cb3655737899cbf903264b9795592da439661c910160405180910390a1600c80546000906114709061561f565b9091555061147c6112a3565b50565b61148933826139fe565b6114ae5760405162461bcd60e51b81526004016114a590615638565b60405180910390fd5b6114b9838383613a7c565b505050565b60006202a3006001600160401b03164201905063389a75e1600c5233600052806020600c2055337fdbf36a107da19e49527a7176a1babf963b4b0ff8cde35ee35d6cd8f1f9ac7e1d600080a250565b600061151883611a36565b821061157a5760405162461bcd60e51b815260206004820152602b60248201527f455243373231456e756d657261626c653a206f776e657220696e646578206f7560448201526a74206f6620626f756e647360a81b60648201526084016114a5565b506001600160a01b03919091166000908152600660209081526040808320938352929052205490565b6115ab6139e3565b6001600160a01b03166000908152601460205260409020805460ff19169055565b600e5460808301516000908152601060205260409081902090516317de5cbf60e11b815260609283926001600160a01b0390911691632fbcb97e9161161791889188916004016157e1565b600060405180830381865afa158015611634573d6000803e3d6000fd5b505050506040513d6000823e601f3d908101601f1916820160405261165c9190810190615808565b915091509250929050565b61169b604051806040016040528060138152602001721cd95d1d1c985a5d199bdc9d1bdad95b881a59606a1b815250613c29565b6000828152600b602090815260409182902083518155908301516001808301805492151560ff1993841617905592840151600283015560608401516003830180546001600160a01b039092166001600160a01b03199092169190911790556080840151600483015560a0840151600583018054869592939192911690836007811115611729576117296149f5565b021790555050505050565b3360008181526014602052604081205490919060ff166117675760405163090a0b6960e21b815260040160405180910390fd5b61176f6112a3565b600061177a60085490565b6117859060016155ea565b90506117918482613c6c565b604080516000815260001960208201527f6bd5c950a8d8df17f772f5af37cb3655737899cbf903264b9795592da439661c910160405180910390a191505b50919050565b6114b983838360405180602001604052806000815250612745565b61147c81613c86565b6060600061180683611a36565b90506000816001600160401b0381111561182257611822614a83565b60405190808252806020026020018201604052801561184b578160200160208202803683370190505b50905060005b8281101561188857611863858261150d565b8282815181106118755761187561551c565b6020908102919091010152600101611851565b509392505050565b600061189b60085490565b82106118fe5760405162461bcd60e51b815260206004820152602c60248201527f455243373231456e756d657261626c653a20676c6f62616c20696e646578206f60448201526b7574206f6620626f756e647360a01b60648201526084016114a5565b600882815481106119115761191161551c565b90600052602060002001549050919050565b63389a75e1600c523360005260006020600c2055337ffa7b8eab7da67f412cc9575ed43464468f9bfbae89d1675917346ca6d8fe3c92600080a2565b600e5460408051632e0f792b60e11b815290516060926001600160a01b031691635c1ef2569160048083019260009291908290030181865afa1580156119a9573d6000803e3d6000fd5b505050506040513d6000823e601f3d908101601f191682016040526119d191908101906155b6565b905090565b6000818152600260205260408120546001600160a01b031680610e195760405162461bcd60e51b8152602060048201526018602482015277115490cdcc8c4e881a5b9d985b1a59081d1bdad95b88125160421b60448201526064016114a5565b60006001600160a01b038216611aa05760405162461bcd60e51b815260206004820152602960248201527f4552433732313a2061646472657373207a65726f206973206e6f7420612076616044820152683634b21037bbb732b960b91b60648201526084016114a5565b506001600160a01b031660009081526003602052604090205490565b611ac46139e3565b611ace6000613d35565b565b611ad86139e3565b601380546001600160a01b0319166001600160a01b0392909216919091179055565b60106020526000908152604090208054600182018054919291611b1c906154e8565b80601f0160208091040260200160405190810160405280929190818152602001828054611b48906154e8565b8015611b955780601f10611b6a57610100808354040283529160200191611b95565b820191906000526020600020905b815481529060010190602001808311611b7857829003601f168201915b5050506002840154600385018054949560ff909216949193509150611bb9906154e8565b80601f0160208091040260200160405190810160405280929190818152602001828054611be5906154e8565b8015611c325780601f10611c0757610100808354040283529160200191611c32565b820191906000526020600020905b815481529060010190602001808311611c1557829003601f168201915b505050505090806004018054611c47906154e8565b80601f0160208091040260200160405190810160405280929190818152602001828054611c73906154e8565b8015611cc05780601f10611c9557610100808354040283529160200191611cc0565b820191906000526020600020905b815481529060010190602001808311611ca357829003601f168201915b505050505090806005018054611cd5906154e8565b80601f0160208091040260200160405190810160405280929190818152602001828054611d01906154e8565b8015611d4e5780601f10611d2357610100808354040283529160200191611d4e565b820191906000526020600020905b815481529060010190602001808311611d3157829003601f168201915b5050506006840154600785015460088601805495966001600160a01b0393841696929093169450919250611d81906154e8565b80601f0160208091040260200160405190810160405280929190818152602001828054611dad906154e8565b8015611dfa5780601f10611dcf57610100808354040283529160200191611dfa565b820191906000526020600020905b815481529060010190602001808311611ddd57829003601f168201915b505050505090806009018054611e0f906154e8565b80601f0160208091040260200160405190810160405280929190818152602001828054611e3b906154e8565b8015611e885780601f10611e5d57610100808354040283529160200191611e88565b820191906000526020600020905b815481529060010190602001808311611e6b57829003601f168201915b505050505090508a565b600082815260106020908152604090912082518155908201518291906001820190611ebd90826158a9565b50604082015160028201805460ff19166001836007811115611ee157611ee16149f5565b021790555060608201516003820190611efa90826158a9565b5060808201516004820190611f0f90826158a9565b5060a08201516005820190611f2490826158a9565b5060c08201516006820180546001600160a01b039283166001600160a01b03199182161790915560e08401516007840180549190931691161790556101008201516008820190611f7490826158a9565b506101208201516009820190611f8a90826158a9565b5050505050565b6000818152600260205260409020546001600160a01b0316611fc657604051632df0e24560e21b815260040160405180910390fd5b33611fd0826119d6565b6001600160a01b031614158015611ff257506012546001600160a01b03163314155b1561201057604051633e79b9f360e01b815260040160405180910390fd5b60008181526011602090815260408083208054825181850281018501909352808352919290919083018282801561207057602002820191906000526020600020905b81546001600160a01b03168152600190910190602001808311612052575b505050505090508051600003612084575050565b61208f600083613d73565b60005b81518110156120d0576120c86120a7846119d6565b8383815181106120b9576120b961551c565b60200260200101516000613de1565b600101612092565b5060008281526011602052604081206120e891614728565b60405182907fe6727257e6b1474b2ced9b705eafa89027508be445f1a76db669635c92f5242090600090a25050565b606060018054610e2e906154e8565b61212e6139e3565b6001600160a01b03166000908152601460205260409020805460ff19166001179055565b6060600061215f836125a6565b905060008160200151612195576040518060400160405280600b81526020016a1e39bb339f1e17b9bb339f60a91b8152506121a2565b6121a282608001516124ac565b600e54608084015160009081526010602052604090209192506001600160a01b03169063a5e11e0590869085906121d761195f565b866040518663ffffffff1660e01b81526004016121f8959493929190615968565b600060405180830381865afa158015612215573d6000803e3d6000fd5b505050506040513d6000823e601f3d908101601f1916820160405261223d91908101906155b6565b949350505050565b336001600160a01b038316036122995760405162461bcd60e51b815260206004820152601960248201527822a9219b99189d1030b8383937bb32903a379031b0b63632b960391b60448201526064016114a5565b60006122a433611a36565b905060005b818110156124775760006122bd338361150d565b9050831561235f57600081815260116020526040812090805b825481101561232657876001600160a01b03168382815481106122fb576122fb61551c565b6000918252602090912001546001600160a01b03160361231e5760019150612326565b6001016122d6565b50806123585781546001810183556000838152602090200180546001600160a01b0319166001600160a01b0389161790555b505061246e565b6000818152601160205260408120905b815481101561246b57866001600160a01b03168282815481106123945761239461551c565b6000918252602090912001546001600160a01b03160361246357815482906123be90600190615548565b815481106123ce576123ce61551c565b9060005260206000200160009054906101000a90046001600160a01b03168282815481106123fe576123fe61551c565b9060005260206000200160006101000a8154816001600160a01b0302191690836001600160a01b031602179055508180548061243c5761243c61555b565b600082815260209020810160001990810180546001600160a01b031916905501905561246b565b60010161236f565b50505b506001016122a9565b506114b98383613eab565b61248a6139e3565b601280546001600160a01b0319166001600160a01b0392909216919091179055565b600e54600082815260106020526040908190209051631349027b60e31b81526060926001600160a01b031691639a4813d89161125e91600490810191016159b9565b606060006124fb836125a6565b60808101516000908152601060205260409020600501805491925090612520906154e8565b80601f016020809104026020016040519081016040528092919081815260200182805461254c906154e8565b80156125995780601f1061256e57610100808354040283529160200191612599565b820191906000526020600020905b81548152906001019060200180831161257c57829003601f168201915b5050505050915050919050565b6125dc6040805160c08101825260008082526020820181905291810182905260608101829052608081018290529060a082015290565b6000828152600b60209081526040808320815160c08101835281548152600182015460ff90811615159482019490945260028201549281019290925260038101546001600160a01b031660608301526004810154608083015260058101549192909160a0840191166007811115612655576126556149f5565b6007811115612666576126666149f5565b90525080516000908152600d602052604090205460608201519192506001600160801b0316906001600160a01b0381161580156126a557506040830151155b156126c65760405163082d451d60e01b8152600481018690526024016114a5565b60155460405163687d69df60e11b81526001600160a01b0383169163d0fad3be916126fb9160ff1690879087906004016159cc565b60c060405180830381865afa158015612718573d6000803e3d6000fd5b505050506040513d601f19601f8201168201806040525081019061273c91906159fa565b95945050505050565b61274f33836139fe565b61276b5760405162461bcd60e51b81526004016114a590615638565b61277784848484613eb6565b50505050565b600e54604051635ab38bf760e01b8152606091829182916001600160a01b031690635ab38bf7906127ba908790309063f127194290600401615b1d565b600060405180830381865afa1580156127d7573d6000803e3d6000fd5b505050506040513d6000823e601f3d908101601f191682016040526127ff9190810190615b4f565b9250925092509193909250565b60606000612819836125a6565b90508060200151156128395761283281608001516124ac565b91506117cf565b505060408051808201909152600b81526a1e39bb339f1e17b9bb339f60a91b6020820152919050565b6000818152600260205260409020546060906001600160a01b031661289a57604051632df0e24560e21b815260040160405180910390fd5b610e1982612152565b6128ab614746565b60006128b6836125a6565b9050601060008260800151815260200190815260200160002060405180610140016040529081600082015481526020016001820180546128f5906154e8565b80601f0160208091040260200160405190810160405280929190818152602001828054612921906154e8565b801561296e5780601f106129435761010080835404028352916020019161296e565b820191906000526020600020905b81548152906001019060200180831161295157829003601f168201915b5050509183525050600282015460209091019060ff166007811115612995576129956149f5565b60078111156129a6576129a66149f5565b81526020016003820180546129ba906154e8565b80601f01602080910402602001604051908101604052809291908181526020018280546129e6906154e8565b8015612a335780601f10612a0857610100808354040283529160200191612a33565b820191906000526020600020905b815481529060010190602001808311612a1657829003601f168201915b50505050508152602001600482018054612a4c906154e8565b80601f0160208091040260200160405190810160405280929190818152602001828054612a78906154e8565b8015612ac55780601f10612a9a57610100808354040283529160200191612ac5565b820191906000526020600020905b815481529060010190602001808311612aa857829003601f168201915b50505050508152602001600582018054612ade906154e8565b80601f0160208091040260200160405190810160405280929190818152602001828054612b0a906154e8565b8015612b575780601f10612b2c57610100808354040283529160200191612b57565b820191906000526020600020905b815481529060010190602001808311612b3a57829003601f168201915b505050918352505060068201546001600160a01b0390811660208301526007830154166040820152600882018054606090920191612b94906154e8565b80601f0160208091040260200160405190810160405280929190818152602001828054612bc0906154e8565b8015612c0d5780601f10612be257610100808354040283529160200191612c0d565b820191906000526020600020905b815481529060010190602001808311612bf057829003601f168201915b50505050508152602001600982018054612c26906154e8565b80601f0160208091040260200160405190810160405280929190818152602001828054612c52906154e8565b8015612c9f5780601f10612c7457610100808354040283529160200191612c9f565b820191906000526020600020905b815481529060010190602001808311612c8257829003601f168201915b505050505081525050915050919050565b600e546040516338ce943360e01b815260609182916001600160a01b03909116906338ce943390612ced908690309063e08714a690600401615b1d565b600060405180830381865afa158015612d0a573d6000803e3d6000fd5b505050506040513d6000823e601f3d908101601f19168201604052612d329190810190615808565b91509150915091565b6060806000612d49866125a6565b600e546080820151600090815260106020526040908190209051630a6ab71760e21b81529293506001600160a01b03909116916329aadc5c91612d96918a918a918a918891600401615bcc565b600060405180830381865afa158015612db3573d6000803e3d6000fd5b505050506040513d6000823e601f3d908101601f19168201604052612ddb9190810190615808565b9250925050935093915050565b612df06139e3565b600e5460405163e1defed960e01b81526001600160a01b039091169063e1defed990612e229085908590600401614cf8565b600060405180830381600087803b158015612e3c57600080fd5b505af1158015612e50573d6000803e3d6000fd5b505050505050565b60005b81518110156110ff57612e86828281518110612e7957612e7961551c565b6020026020010151613c86565b600101612e5b565b600080612e9a836125a6565b9050600060106000836080015181526020019081526020016000206040518061014001604052908160008201548152602001600182018054612edb906154e8565b80601f0160208091040260200160405190810160405280929190818152602001828054612f07906154e8565b8015612f545780601f10612f2957610100808354040283529160200191612f54565b820191906000526020600020905b815481529060010190602001808311612f3757829003601f168201915b5050509183525050600282015460209091019060ff166007811115612f7b57612f7b6149f5565b6007811115612f8c57612f8c6149f5565b8152602001600382018054612fa0906154e8565b80601f0160208091040260200160405190810160405280929190818152602001828054612fcc906154e8565b80156130195780601f10612fee57610100808354040283529160200191613019565b820191906000526020600020905b815481529060010190602001808311612ffc57829003601f168201915b50505050508152602001600482018054613032906154e8565b80601f016020809104026020016040519081016040528092919081815260200182805461305e906154e8565b80156130ab5780601f10613080576101008083540402835291602001916130ab565b820191906000526020600020905b81548152906001019060200180831161308e57829003601f168201915b505050505081526020016005820180546130c4906154e8565b80601f01602080910402602001604051908101604052809291908181526020018280546130f0906154e8565b801561313d5780601f106131125761010080835404028352916020019161313d565b820191906000526020600020905b81548152906001019060200180831161312057829003601f168201915b505050918352505060068201546001600160a01b039081166020830152600783015416604082015260088201805460609092019161317a906154e8565b80601f01602080910402602001604051908101604052809291908181526020018280546131a6906154e8565b80156131f35780601f106131c8576101008083540402835291602001916131f3565b820191906000526020600020905b8154815290600101906020018083116131d657829003601f168201915b5050505050815260200160098201805461320c906154e8565b80601f0160208091040260200160405190810160405280929190818152602001828054613238906154e8565b80156132855780601f1061325a57610100808354040283529160200191613285565b820191906000526020600020905b81548152906001019060200180831161326857829003601f168201915b5050509190925250505060400151949350505050565b6132a3614746565b6010600083815260200190815260200160002060405180610140016040529081600082015481526020016001820180546132dc906154e8565b80601f0160208091040260200160405190810160405280929190818152602001828054613308906154e8565b80156133555780601f1061332a57610100808354040283529160200191613355565b820191906000526020600020905b81548152906001019060200180831161333857829003601f168201915b5050509183525050600282015460209091019060ff16600781111561337c5761337c6149f5565b600781111561338d5761338d6149f5565b81526020016003820180546133a1906154e8565b80601f01602080910402602001604051908101604052809291908181526020018280546133cd906154e8565b801561341a5780601f106133ef5761010080835404028352916020019161341a565b820191906000526020600020905b8154815290600101906020018083116133fd57829003601f168201915b50505050508152602001600482018054613433906154e8565b80601f016020809104026020016040519081016040528092919081815260200182805461345f906154e8565b80156134ac5780601f10613481576101008083540402835291602001916134ac565b820191906000526020600020905b81548152906001019060200180831161348f57829003601f168201915b505050505081526020016005820180546134c5906154e8565b80601f01602080910402602001604051908101604052809291908181526020018280546134f1906154e8565b801561353e5780601f106135135761010080835404028352916020019161353e565b820191906000526020600020905b81548152906001019060200180831161352157829003601f168201915b505050918352505060068201546001600160a01b039081166020830152600783015416604082015260088201805460609092019161357b906154e8565b80601f01602080910402602001604051908101604052809291908181526020018280546135a7906154e8565b80156135f45780601f106135c9576101008083540402835291602001916135f4565b820191906000526020600020905b8154815290600101906020018083116135d757829003601f168201915b5050505050815260200160098201805461360d906154e8565b80601f0160208091040260200160405190810160405280929190818152602001828054613639906154e8565b80156136865780601f1061365b57610100808354040283529160200191613686565b820191906000526020600020905b81548152906001019060200180831161366957829003601f168201915b5050505050815250509050919050565b61369e6139e3565b63389a75e1600c52806000526020600c2080544211156136c657636f5e88186000526004601cfd5b6000905561147c81613d35565b606080606060006136e3886125a6565b600e54608082015160009081526010602052604090819020905163aeea03e560e01b81529293506001600160a01b039091169163aeea03e591613733918c918c918c918c91899190600401615c1c565b600060405180830381865afa158015613750573d6000803e3d6000fd5b505050506040513d6000823e601f3d908101601f191682016040526137789190810190615b4f565b935093509350509450945094915050565b6137916139e3565b8060601b6137a757637448fbae6000526004601cfd5b61147c81613d35565b600e5460808301516000908152601060205260409081902090516330235ddd60e21b8152606092839283926001600160a01b039092169163c08d7774916137fd91899189916004016157e1565b600060405180830381865afa15801561381a573d6000803e3d6000fd5b505050506040513d6000823e601f3d908101601f191682016040526138429190810190615b4f565b9250925092509250925092565b60006001600160e01b0319821663780e9d6360e01b1480610e195750610e1982613ee9565b6000818152600260205260409020546001600160a01b031661147c5760405162461bcd60e51b8152602060048201526018602482015277115490cdcc8c4e881a5b9d985b1a59081d1bdad95b88125160421b60448201526064016114a5565b60006138de826119d6565b9050806001600160a01b0316836001600160a01b03160361394b5760405162461bcd60e51b815260206004820152602160248201527f4552433732313a20617070726f76616c20746f2063757272656e74206f776e656044820152603960f91b60648201526084016114a5565b336001600160a01b038216148061396757506139678133610cbb565b6139d95760405162461bcd60e51b815260206004820152603e60248201527f4552433732313a20617070726f76652063616c6c6572206973206e6f7420746f60448201527f6b656e206f776e6572206e6f7220617070726f76656420666f7220616c6c000060648201526084016114a5565b6114b98383613d73565b638b78c6d819543314611ace576382b429006000526004601cfd5b600080613a0a836119d6565b9050806001600160a01b0316846001600160a01b03161480613a5157506001600160a01b0380821660009081526005602090815260408083209388168352929052205460ff165b8061223d5750836001600160a01b0316613a6a84610eb1565b6001600160a01b031614949350505050565b826001600160a01b0316613a8f826119d6565b6001600160a01b031614613af35760405162461bcd60e51b815260206004820152602560248201527f4552433732313a207472616e736665722066726f6d20696e636f72726563742060448201526437bbb732b960d91b60648201526084016114a5565b6001600160a01b038216613b555760405162461bcd60e51b8152602060048201526024808201527f4552433732313a207472616e7366657220746f20746865207a65726f206164646044820152637265737360e01b60648201526084016114a5565b613b60838383613f39565b613b6b600082613d73565b6001600160a01b0383166000908152600360205260408120805460019290613b94908490615548565b90915550506001600160a01b0382166000908152600360205260408120805460019290613bc29084906155ea565b909155505060008181526002602052604080822080546001600160a01b0319166001600160a01b0386811691821790925591518493918716917fddf252ad1be2c89b69c2b068fc378daa952ba7f163c4a11628f55a4df523b3ef91a46114b98383836140ba565b61147c81604051602401613c3d91906148b4565b60408051601f198184030181529190526020810180516001600160e01b031663104c13eb60e21b17905261419e565b6110ff8282604051806020016040528060008152506141bf565b6000613c91826119d6565b9050613c9f81600084613f39565b613caa600083613d73565b6001600160a01b0381166000908152600360205260408120805460019290613cd3908490615548565b909155505060008281526002602052604080822080546001600160a01b0319169055518391906001600160a01b038416907fddf252ad1be2c89b69c2b068fc378daa952ba7f163c4a11628f55a4df523b3ef908390a46110ff816000846140ba565b638b78c6d81980546001600160a01b039092169182907f8be0079c531659141344cd1fd0a4f28419497f9722a3daafe3b4186f6b6457e0600080a355565b600081815260046020526040902080546001600160a01b0319166001600160a01b0384169081179091558190613da8826119d6565b6001600160a01b03167f8c5be1e5ebec7d5bd14f71427d1e84f3dd0314c0f7b2291e5b200ac8c7c3b92560405160405180910390a45050565b816001600160a01b0316836001600160a01b031603613e3e5760405162461bcd60e51b815260206004820152601960248201527822a9219b99189d1030b8383937bb32903a379031b0b63632b960391b60448201526064016114a5565b6001600160a01b03838116600081815260056020908152604080832094871680845294825291829020805460ff191686151590811790915591519182527f17307eab39ab6107e8899845ad3d59bd9653f200f220920489ca2b5937696c31910160405180910390a3505050565b6110ff338383613de1565b613ec1848484613a7c565b613ecd848484846141f2565b6127775760405162461bcd60e51b81526004016114a590615c8d565b60006001600160e01b031982166380ac58cd60e01b1480613f1a57506001600160e01b03198216635b5e139f60e01b145b80610e1957506301ffc9a760e01b6001600160e01b0319831614610e19565b6001600160a01b038316613f52576114b98383836142f3565b601354604051634f6088cd60e01b8152600481018390526000916001600160a01b031690634f6088cd90602401608060405180830381865afa158015613f9c573d6000803e3d6000fd5b505050506040513d601f19601f82011682018060405250810190613fc09190615cdf565b5090925050506001600160a01b03811615614000576013546001600160a01b031633146140005760405163bf646b0f60e01b815260040160405180910390fd5b6001600160a01b0383166140235761401882846143ab565b6127778484846142f3565b60125460405162525fcd60e91b81526001600160a01b0385811660048301529091169063a4bf9a0090602401602060405180830381865afa15801561406c573d6000803e3d6000fd5b505050506040513d601f19601f820116820180604052508101906140909190615d34565b6000036140b0576040516326a45c0160e21b815260040160405180910390fd5b61401882846143ab565b60006140c5826119d6565b60125460405162525fcd60e91b81526001600160a01b0380841660048301529293506000929091169063a4bf9a0090602401602060405180830381865afa158015614114573d6000803e3d6000fd5b505050506040513d601f19601f820116820180604052508101906141389190615d34565b60135460405163236313ff60e11b8152600481018390529192506001600160a01b0316906346c627fe90602401600060405180830381600087803b15801561417f57600080fd5b505af1158015614193573d6000803e3d6000fd5b505050505050505050565b80516a636f6e736f6c652e6c6f67602083016000808483855afa5050505050565b6141c98383614442565b6141d660008484846141f2565b6114b95760405162461bcd60e51b81526004016114a590615c8d565b60006001600160a01b0384163b156142e857604051630a85bd0160e11b81526001600160a01b0385169063150b7a0290614236903390899088908890600401615d4d565b6020604051808303816000875af1925050508015614271575060408051601f3d908101601f1916820190925261426e91810190615d80565b60015b6142ce573d80801561429f576040519150601f19603f3d011682016040523d82523d6000602084013e6142a4565b606091505b5080516000036142c65760405162461bcd60e51b81526004016114a590615c8d565b805181602001fd5b6001600160e01b031916630a85bd0160e11b14905061223d565b506001949350505050565b6001600160a01b03831661434e5761434981600880546000838152600960205260408120829055600182018355919091527ff3f7a9fe364faab93b216da50a3214154f22a0a2b415b23a84c8169e8b636ee30155565b614371565b816001600160a01b0316836001600160a01b031614614371576143718382614598565b6001600160a01b038216614388576114b981614635565b826001600160a01b0316826001600160a01b0316146114b9576114b982826146e4565b601354604051632e1d274f60e01b8152600481018490526001600160a01b0390911690632e1d274f90602401600060405180830381600087803b1580156143f157600080fd5b505af1158015614405573d6000803e3d6000fd5b50506013546040516302fbe78f60e41b8152600481018690526001600160a01b0385811660248301529091169250632fbe78f09150604401612e22565b6001600160a01b0382166144985760405162461bcd60e51b815260206004820181905260248201527f4552433732313a206d696e7420746f20746865207a65726f206164647265737360448201526064016114a5565b6000818152600260205260409020546001600160a01b0316156144fd5760405162461bcd60e51b815260206004820152601c60248201527f4552433732313a20746f6b656e20616c7265616479206d696e7465640000000060448201526064016114a5565b61450960008383613f39565b6001600160a01b03821660009081526003602052604081208054600192906145329084906155ea565b909155505060008181526002602052604080822080546001600160a01b0319166001600160a01b03861690811790915590518392907fddf252ad1be2c89b69c2b068fc378daa952ba7f163c4a11628f55a4df523b3ef908290a46110ff600083836140ba565b600060016145a584611a36565b6145af9190615548565b600083815260076020526040902054909150808214614602576001600160a01b03841660009081526006602090815260408083208584528252808320548484528184208190558352600790915290208190555b5060009182526007602090815260408084208490556001600160a01b039094168352600681528383209183525290812055565b60085460009061464790600190615548565b6000838152600960205260408120546008805493945090928490811061466f5761466f61551c565b9060005260206000200154905080600883815481106146905761469061551c565b60009182526020808320909101929092558281526009909152604080822084905585825281205560088054806146c8576146c861555b565b6001900381819060005260206000200160009055905550505050565b60006146ef83611a36565b6001600160a01b039093166000908152600660209081526040808320868452825280832085905593825260079052919091209190915550565b508054600082559060005260206000209081019061147c91906147ab565b60408051610140810182526000808252606060208301529091820190815260200160608152602001606081526020016060815260200160006001600160a01b0316815260200160006001600160a01b0316815260200160608152602001606081525090565b5b808211156147c057600081556001016147ac565b5090565b6000602082840312156147d657600080fd5b5035919050565b6020808252825182820181905260009190848201906040850190845b8181101561481e5783516001600160a01b0316835292840192918401916001016147f9565b50909695505050505050565b6001600160e01b03198116811461147c57600080fd5b60006020828403121561485257600080fd5b813561485d8161482a565b9392505050565b60005b8381101561487f578181015183820152602001614867565b50506000910152565b600081518084526148a0816020860160208601614864565b601f01601f19169290920160200192915050565b60208152600061485d6020830184614888565b6001600160a01b038116811461147c57600080fd5b80356148e7816148c7565b919050565b600080604083850312156148ff57600080fd5b823561490a816148c7565b946020939093013593505050565b6000806040838503121561492b57600080fd5b50508035926020909101359150565b60006020828403121561494c57600080fd5b813561485d816148c7565b60008060008060006080868803121561496f57600080fd5b853561497a816148c7565b9450602086013561498a816148c7565b93506040860135925060608601356001600160401b03808211156149ad57600080fd5b818801915088601f8301126149c157600080fd5b8135818111156149d057600080fd5b8960208285010111156149e257600080fd5b9699959850939650602001949392505050565b634e487b7160e01b600052602160045260246000fd5b60088110614a2957634e487b7160e01b600052602160045260246000fd5b9052565b805182526020810151151560208301526040810151604083015260018060a01b0360608201511660608301526080810151608083015260a08101516114b960a0840182614a0b565b60c08101610e198284614a2d565b634e487b7160e01b600052604160045260246000fd5b60405160c081016001600160401b0381118282101715614abb57614abb614a83565b60405290565b60405161014081016001600160401b0381118282101715614abb57614abb614a83565b60405161018081016001600160401b0381118282101715614abb57614abb614a83565b604051601f8201601f191681016001600160401b0381118282101715614b2f57614b2f614a83565b604052919050565b60006001600160401b03821115614b5057614b50614a83565b50601f01601f191660200190565b600082601f830112614b6f57600080fd5b8135614b82614b7d82614b37565b614b07565b818152846020838601011115614b9757600080fd5b816020850160208301376000918101602001919091529392505050565b600060208284031215614bc657600080fd5b81356001600160401b03811115614bdc57600080fd5b61223d84828501614b5e565b600080600060608486031215614bfd57600080fd5b8335614c08816148c7565b92506020840135614c18816148c7565b929592945050506040919091013590565b801515811461147c57600080fd5b80356148e781614c29565b6008811061147c57600080fd5b80356148e781614c42565b600060c08284031215614c6c57600080fd5b614c74614a99565b9050813581526020820135614c8881614c29565b6020820152604082810135908201526060820135614ca5816148c7565b60608201526080828101359082015260a0820135614cc281614c42565b60a082015292915050565b60008060e08385031215614ce057600080fd5b614cea8484614c5a565b9460c0939093013593505050565b604081526000614d0b6040830185614888565b828103602084015261273c8185614888565b60008060e08385031215614d3057600080fd5b82359150614d418460208501614c5a565b90509250929050565b6020808252825182820181905260009190848201906040850190845b8181101561481e57835183529284019291840191600101614d66565b60006101408c8352806020840152614d9c8184018d614888565b9050614dab604084018c614a0b565b8281036060840152614dbd818b614888565b90508281036080840152614dd1818a614888565b905082810360a0840152614de58189614888565b6001600160a01b0388811660c0860152871660e08501528381036101008501529050614e118186614888565b9050828103610120840152614e268185614888565b9d9c50505050505050505050505050565b60008060408385031215614e4a57600080fd5b8235915060208301356001600160401b0380821115614e6857600080fd5b908401906101408287031215614e7d57600080fd5b614e85614ac1565b82358152602083013582811115614e9b57600080fd5b614ea788828601614b5e565b602083015250614eb960408401614c4f565b6040820152606083013582811115614ed057600080fd5b614edc88828601614b5e565b606083015250608083013582811115614ef457600080fd5b614f0088828601614b5e565b60808301525060a083013582811115614f1857600080fd5b614f2488828601614b5e565b60a083015250614f3660c084016148dc565b60c0820152614f4760e084016148dc565b60e08201526101008084013583811115614f6057600080fd5b614f6c89828701614b5e565b8284015250506101208084013583811115614f8657600080fd5b614f9289828701614b5e565b8284015250508093505050509250929050565b60008060408385031215614fb857600080fd5b8235614fc3816148c7565b91506020830135614fd381614c29565b809150509250929050565b60008060008060808587031215614ff457600080fd5b8435614fff816148c7565b9350602085013561500f816148c7565b92506040850135915060608501356001600160401b0381111561503157600080fd5b61503d87828801614b5e565b91505092959194509250565b803563ffffffff811681146148e757600080fd5b803560ff811681146148e757600080fd5b60006020828403121561508057600080fd5b81356001600160401b038082111561509757600080fd5b9083019061018082860312156150ac57600080fd5b6150b4614ae4565b823581526020830135602082015260408301356040820152606083013560608201526080830135608082015260a083013560a082015260c083013560c082015261510060e08401615049565b60e0820152610100838101359082015261012061511e81850161505d565b90820152610140838101358381111561513657600080fd5b61514288828701614b5e565b8284015250506101609150615158828401614c37565b91810191909152949350505050565b60608152600061517a6060830186614888565b828103602084015261518c8186614888565b905082810360408401526151a08185614888565b9695505050505050565b6020815281516020820152600060208301516101408060408501526151d3610160850183614888565b915060408501516151e76060860182614a0b565b506060850151601f19808685030160808701526152048483614888565b935060808701519150808685030160a08701526152218483614888565b935060a08701519150808685030160c087015261523e8483614888565b935060c0870151915061525c60e08701836001600160a01b03169052565b60e0870151915061010061527a818801846001600160a01b03169052565b808801519250506101208187860301818801526152978584614888565b9088015187820390920184880152935090506151a08382614888565b6000806000606084860312156152c857600080fd5b8335925060208401356001600160401b03808211156152e657600080fd5b6152f287838801614b5e565b9350604086013591508082111561530857600080fd5b5061531586828701614b5e565b9150509250925092565b6000806040838503121561533257600080fd5b82356001600160401b038082111561534957600080fd5b61535586838701614b5e565b9350602085013591508082111561536b57600080fd5b5061537885828601614b5e565b9150509250929050565b6000602080838503121561539557600080fd5b82356001600160401b03808211156153ac57600080fd5b818501915085601f8301126153c057600080fd5b8135818111156153d2576153d2614a83565b8060051b91506153e3848301614b07565b81815291830184019184810190888411156153fd57600080fd5b938501935b8385101561541b57843582529385019390850190615402565b98975050505050505050565b60208101610e198284614a0b565b6000806040838503121561544857600080fd5b8235615453816148c7565b91506020830135614fd3816148c7565b6000806000806080858703121561547957600080fd5b8435935060208501356001600160401b038082111561549757600080fd5b6154a388838901614b5e565b945060408701359150808211156154b957600080fd5b6154c588838901614b5e565b935060608701359150808211156154db57600080fd5b5061503d87828801614b5e565b600181811c908216806154fc57607f821691505b6020821081036117cf57634e487b7160e01b600052602260045260246000fd5b634e487b7160e01b600052603260045260246000fd5b634e487b7160e01b600052601160045260246000fd5b81810381811115610e1957610e19615532565b634e487b7160e01b600052603160045260246000fd5b600082601f83011261558257600080fd5b8151615590614b7d82614b37565b8181528460208386010111156155a557600080fd5b61223d826020830160208701614864565b6000602082840312156155c857600080fd5b81516001600160401b038111156155de57600080fd5b61223d84828501615571565b80820180821115610e1957610e19615532565b60008261561a57634e487b7160e01b600052601260045260246000fd5b500690565b60006001820161563157615631615532565b5060010190565b6020808252602e908201527f4552433732313a2063616c6c6572206973206e6f7420746f6b656e206f776e6560408201526d1c881b9bdc88185c1c1c9bdd995960921b606082015260800190565b60008154615693816154e8565b8085526020600183811680156156b057600181146156ca576156f8565b60ff1985168884015283151560051b8801830195506156f8565b866000528260002060005b858110156156f05781548a82018601529083019084016156d5565b890184019650505b505050505092915050565b60006101408254845280602085015261572181850160018501615686565b9050615731600284015460ff1690565b61573e6040860182614a0b565b5083810360608501526157548160038501615686565b9050838103608085015261576b8160048501615686565b905083810360a08501526157828160058501615686565b905061579860068401546001600160a01b031690565b6001600160a01b0390811660c086015260078401541660e08501528381036101008501526157c98160088501615686565b905083810361012085015261223d8160098501615686565b60006101006157f08387614a2d565b8460c08401528060e08401526151a081840185615703565b6000806040838503121561581b57600080fd5b82516001600160401b038082111561583257600080fd5b61583e86838701615571565b9350602085015191508082111561585457600080fd5b5061537885828601615571565b601f8211156114b9576000816000526020600020601f850160051c8101602086101561588a5750805b601f850160051c820191505b81811015612e5057828155600101615896565b81516001600160401b038111156158c2576158c2614a83565b6158d6816158d084546154e8565b84615861565b602080601f83116001811461590b57600084156158f35750858301515b600019600386901b1c1916600185901b178555612e50565b600085815260208120601f198616915b8281101561593a5788860151825594840194600190910190840161591b565b50858210156159585787850151600019600388901b60f8161c191681555b5050505050600190811b01905550565b600061014087835261597d6020840188614a2d565b8060e084015261598f81840187615703565b90508281036101008401526159a48186614888565b905082810361012084015261541b8185614888565b60208152600061485d6020830184615686565b831515815261010081016159e36020830185614a2d565b6001600160801b03831660e0830152949350505050565b600060c08284031215615a0c57600080fd5b615a14614a99565b825181526020830151615a2681614c29565b6020820152604083810151908201526060830151615a43816148c7565b60608201526080838101519082015260a0830151615a6081614c42565b60a08201529392505050565b6000610180825184526020830151602085015260408301516040850152606083015160608501526080830151608085015260a083015160a085015260c083015160c085015260e0830151615ac860e086018263ffffffff169052565b5061010083810151908501526101208084015160ff169085015261014080840151818601839052615afb83870182614888565b9250505061016080840151615b138287018215159052565b5090949350505050565b604081526000615b306040830186615a6c565b905061223d60208301848660201b63ffffffff919091161760401b9052565b600080600060608486031215615b6457600080fd5b83516001600160401b0380821115615b7b57600080fd5b615b8787838801615571565b94506020860151915080821115615b9d57600080fd5b615ba987838801615571565b93506040860151915080821115615bbf57600080fd5b5061531586828701615571565b6000610140878352806020840152615be681840188614888565b90508281036040840152615bfa8187614888565b9050615c096060840186614a2d565b82810361012084015261541b8185615703565b6000610160888352806020840152615c3681840189614888565b90508281036040840152615c4a8188614888565b90508281036060840152615c5e8187614888565b9050615c6d6080840186614a2d565b828103610140840152615c808185615703565b9998505050505050505050565b60208082526032908201527f4552433732313a207472616e7366657220746f206e6f6e20455243373231526560408201527131b2b4bb32b91034b6b83632b6b2b73a32b960711b606082015260800190565b60008060008060808587031215615cf557600080fd5b845193506020850151615d07816148c7565b6040860151909350615d18816148c7565b6060860151909250615d29816148c7565b939692955090935050565b600060208284031215615d4657600080fd5b5051919050565b6001600160a01b03858116825284166020820152604081018390526080606082018190526000906151a090830184614888565b600060208284031215615d9257600080fd5b815161485d8161482a56fea26469706673582212201081ae595767af2af721846f415122297b25a6e3ef7c9608db7fc40d33d2501b64736f6c63430008160033608060405234801561001057600080fd5b50612fa6806100206000396000f3fe608060405234801561001057600080fd5b50600436106100f55760003560e01c80635c1ef25611610097578063aeea03e511610066578063aeea03e5146101e8578063c08d7774146101fb578063e1defed91461020e578063e6ab9d5a1461022357600080fd5b80635c1ef256146101a7578063898aa117146101af5780639a4813d8146101c2578063a5e11e05146101d557600080fd5b806338ce9433116100d357806338ce94331461015757806351dc71891461016a5780635ab38bf7146101725780635bf382591461019457600080fd5b806321b12c23146100fa57806329aadc5c146101235780632fbcb97e14610144575b600080fd5b61010d610108366004611e7e565b61022b565b60405161011a9190611f0a565b60405180910390f35b61013661013136600461212f565b610a74565b60405161011a9291906121d4565b610136610152366004612202565b610af4565b610136610165366004612369565b610bfc565b610136610f69565b610185610180366004612369565b611089565b60405161011a939291906123cc565b61010d6101a2366004611e7e565b61141e565b61010d611462565b61010d6101bd366004611e7e565b611531565b61010d6101d0366004611e7e565b611783565b61010d6101e336600461240f565b6117c8565b6101856101f63660046124a8565b6119f7565b610185610209366004612202565b611aa6565b61022161021c366004612570565b611bc9565b005b61010d611be7565b60606000604051806102000160405280604051806040016040528060018152602001600360fc1b8152508152602001604051806040016040528060018152602001603160f81b8152508152602001604051806040016040528060018152602001601960f91b8152508152602001604051806040016040528060018152602001603360f81b8152508152602001604051806040016040528060018152602001600d60fa1b8152508152602001604051806040016040528060018152602001603560f81b8152508152602001604051806040016040528060018152602001601b60f91b8152508152602001604051806040016040528060018152602001603760f81b8152508152602001604051806040016040528060018152602001600760fb1b8152508152602001604051806040016040528060018152602001603960f81b8152508152602001604051806040016040528060018152602001606160f81b8152508152602001604051806040016040528060018152602001603160f91b8152508152602001604051806040016040528060018152602001606360f81b8152508152602001604051806040016040528060018152602001601960fa1b8152508152602001604051806040016040528060018152602001606560f81b8152508152602001604051806040016040528060018152602001603360f91b81525081525090506000604051806103c00160405280604051806040016040528060018152602001600360fc1b8152508152602001604051806040016040528060018152602001603160f81b8152508152602001604051806040016040528060018152602001601960f91b8152508152602001604051806040016040528060018152602001603360f81b8152508152602001604051806040016040528060018152602001600d60fa1b8152508152602001604051806040016040528060018152602001603560f81b8152508152602001604051806040016040528060018152602001601b60f91b8152508152602001604051806040016040528060018152602001603760f81b8152508152602001604051806040016040528060018152602001600760fb1b8152508152602001604051806040016040528060018152602001603960f81b815250815260200160405180604001604052806002815260200161031360f41b815250815260200160405180604001604052806002815260200161313160f01b815250815260200160405180604001604052806002815260200161189960f11b815250815260200160405180604001604052806002815260200161313360f01b8152508152602001604051806040016040528060028152602001610c4d60f21b815250815260200160405180604001604052806002815260200161313560f01b815250815260200160405180604001604052806002815260200161189b60f11b815250815260200160405180604001604052806002815260200161313760f01b815250815260200160405180604001604052806002815260200161062760f31b815250815260200160405180604001604052806002815260200161313960f01b815250815260200160405180604001604052806002815260200161032360f41b815250815260200160405180604001604052806002815260200161323160f01b815250815260200160405180604001604052806002815260200161191960f11b815250815260200160405180604001604052806002815260200161323360f01b8152508152602001604051806040016040528060028152602001610c8d60f21b815250815260200160405180604001604052806002815260200161323560f01b815250815260200160405180604001604052806002815260200161191b60f11b815250815260200160405180604001604052806002815260200161323760f01b815250815260200160405180604001604052806002815260200161064760f31b815250815260200160405180604001604052806002815260200161323960f01b815250815250905060005b611194811015610a6c57600060f81b858281518110610813576108136125d3565b01602001516001600160f81b0319161115610a5a576000601e610837600584612615565b6108419190612629565b90506000601e610852600585612615565b61085c9190612615565b905060008560048961086f87600261263d565b8151811061087f5761087f6125d3565b016020015160f81c901c60ff166010811061089c5761089c6125d3565b602002015186896108ae87600261263d565b815181106108be576108be6125d3565b60209101015160f81c600f16601081106108da576108da6125d3565b60200201518760048b6108ee89600361263d565b815181106108fe576108fe6125d3565b016020015160f81c901c60ff166010811061091b5761091b6125d3565b6020020151888b61092d89600361263d565b8151811061093d5761093d6125d3565b60209101015160f81c600f1660108110610959576109596125d3565b60200201518960048d61096c8b8361263d565b8151811061097c5761097c6125d3565b016020015160f81c901c60ff1660108110610999576109996125d3565b60200201518a8d6109ab8b600461263d565b815181106109bb576109bb6125d3565b60209101015160f81c600f16601081106109d7576109d76125d3565b60200201516040516020016109f196959493929190612650565b6040516020818303038152906040529050868584601e8110610a1557610a156125d3565b60200201518684601e8110610a2c57610a2c6125d3565b602002015183604051602001610a4594939291906126cf565b60405160208183030381529060405296505050505b610a6560058261263d565b90506107f2565b505050919050565b606080606080610a85868a87610af4565b8851909350909150600003610a9f57809350819250610ae8565b8781604051602001610ab2929190612789565b60405160208183030381529060405293508682604051602001610ad69291906127b8565b60405160208183030381529060405292505b50509550959350505050565b60608084602001518015610b085750600084115b15610bb05760408084015190516301be83d160e11b8152610b9a9173__$4987fe9f4e800c5c4c1535f64ed232842a$__9163037d07a291610b4b916004016127f4565b600060405180830381865af4158015610b68573d6000803e3d6000fd5b505050506040513d6000823e601f3d908101601f19168201604052610b90919081019061286c565b8460200151611c08565b9050610ba98360800151611783565b9150610bf4565b604051806040016040528060028152602001617b7d60f01b81525090506040518060400160405280600b81526020016a1e39bb339f1e17b9bb339f60a91b81525091505b935093915050565b60608060008560c001511115610c7e5783838660c0015184846040518463ffffffff1660e01b8152600401610c33939291906128a0565b600060405180830381865afa158015610c50573d6000803e3d6000fd5b505050506040513d6000823e601f3d908101601f19168201604052610c7891908101906128cb565b90925090505b60a085015115610cfa5783838660a0015184846040518463ffffffff1660e01b8152600401610caf939291906128a0565b600060405180830381865afa158015610ccc573d6000803e3d6000fd5b505050506040513d6000823e601f3d908101601f19168201604052610cf491908101906128cb565b90925090505b608085015115610d76578383866080015184846040518463ffffffff1660e01b8152600401610d2b939291906128a0565b600060405180830381865afa158015610d48573d6000803e3d6000fd5b505050506040513d6000823e601f3d908101601f19168201604052610d7091908101906128cb565b90925090505b604085015115610df2578383866040015184846040518463ffffffff1660e01b8152600401610da7939291906128a0565b600060405180830381865afa158015610dc4573d6000803e3d6000fd5b505050506040513d6000823e601f3d908101601f19168201604052610dec91908101906128cb565b90925090505b602085015115610e6e578383866020015184846040518463ffffffff1660e01b8152600401610e23939291906128a0565b600060405180830381865afa158015610e40573d6000803e3d6000fd5b505050506040513d6000823e601f3d908101601f19168201604052610e6891908101906128cb565b90925090505b845115610ee7578383866000015184846040518463ffffffff1660e01b8152600401610e9c939291906128a0565b600060405180830381865afa158015610eb9573d6000803e3d6000fd5b505050506040513d6000823e601f3d908101601f19168201604052610ee191908101906128cb565b90925090505b606085015115610bf4578383866060015184846040518463ffffffff1660e01b8152600401610f18939291906128a0565b600060405180830381865afa158015610f35573d6000803e3d6000fd5b505050506040513d6000823e601f3d908101601f19168201604052610f5d91908101906128cb565b90969095509350505050565b600080548190610f7890612924565b80601f0160208091040260200160405190810160405280929190818152602001828054610fa490612924565b8015610ff15780601f10610fc657610100808354040283529160200191610ff1565b820191906000526020600020905b815481529060010190602001808311610fd457829003601f168201915b50505050509080600101805461100690612924565b80601f016020809104026020016040519081016040528092919081815260200182805461103290612924565b801561107f5780601f106110545761010080835404028352916020019161107f565b820191906000526020600020905b81548152906001019060200180831161106257829003601f168201915b5050505050905082565b606080606060008660c0015111156111125784848760c001518584866040518563ffffffff1660e01b81526004016110c4949392919061295e565b600060405180830381865afa1580156110e1573d6000803e3d6000fd5b505050506040513d6000823e601f3d908101601f1916820160405261110991908101906129a8565b91945090925090505b60a0860151156111935784848760a001518584866040518563ffffffff1660e01b8152600401611145949392919061295e565b600060405180830381865afa158015611162573d6000803e3d6000fd5b505050506040513d6000823e601f3d908101601f1916820160405261118a91908101906129a8565b91945090925090505b60808601511561121457848487608001518584866040518563ffffffff1660e01b81526004016111c6949392919061295e565b600060405180830381865afa1580156111e3573d6000803e3d6000fd5b505050506040513d6000823e601f3d908101601f1916820160405261120b91908101906129a8565b91945090925090505b60408601511561129557848487604001518584866040518563ffffffff1660e01b8152600401611247949392919061295e565b600060405180830381865afa158015611264573d6000803e3d6000fd5b505050506040513d6000823e601f3d908101601f1916820160405261128c91908101906129a8565b91945090925090505b60208601511561131657848487602001518584866040518563ffffffff1660e01b81526004016112c8949392919061295e565b600060405180830381865afa1580156112e5573d6000803e3d6000fd5b505050506040513d6000823e601f3d908101601f1916820160405261130d91908101906129a8565b91945090925090505b85511561139457848487600001518584866040518563ffffffff1660e01b8152600401611346949392919061295e565b600060405180830381865afa158015611363573d6000803e3d6000fd5b505050506040513d6000823e601f3d908101601f1916820160405261138b91908101906129a8565b91945090925090505b60608601511561141557848487606001518584866040518563ffffffff1660e01b81526004016113c7949392919061295e565b600060405180830381865afa1580156113e4573d6000803e3d6000fd5b505050506040513d6000823e601f3d908101601f1916820160405261140c91908101906129a8565b91945090925090505b93509350939050565b606060405180610100016040528060d28152602001612e9f60d291398260405160200161144c929190612a39565b6040516020818303038152906040529050919050565b606060006114fb60008001805461147890612924565b80601f01602080910402602001604051908101604052809291908181526020018280546114a490612924565b80156114f15780601f106114c6576101008083540402835291602001916114f1565b820191906000526020600020905b8154815290600101906020018083116114d457829003601f168201915b5050505050611531565b905060006115088261022b565b90508060405160200161151b9190612a79565b6040516020818303038152906040529250505090565b8051604080516111948082526111c0820190925260609291600091906020820181803683370190505090506000611569600584612615565b905060005b81811015611779576000611583826005612ae3565b90506000878281518110611599576115996125d3565b016020015160f81c90506000886115b184600161263d565b815181106115c1576115c16125d3565b016020015160f81c9050600060ff83166115dc83601e612ae3565b6115e6919061263d565b6115f1906005612ae3565b9050898481518110611605576116056125d3565b602001015160f81c60f81b878281518110611622576116226125d3565b60200101906001600160f81b031916908160001a90535089846001018151811061164e5761164e6125d3565b602001015160f81c60f81b87826001018151811061166e5761166e6125d3565b60200101906001600160f81b031916908160001a90535089846002018151811061169a5761169a6125d3565b602001015160f81c60f81b8782600201815181106116ba576116ba6125d3565b60200101906001600160f81b031916908160001a9053508984600301815181106116e6576116e66125d3565b602001015160f81c60f81b878260030181518110611706576117066125d3565b60200101906001600160f81b031916908160001a905350898460040181518110611732576117326125d3565b602001015160f81c60f81b878260040181518110611752576117526125d3565b60200101906001600160f81b031916908160001a905350506001909301925061156e915050565b5090949350505050565b6060600061179083611531565b9050600061179d8261022b565b9050806040516020016117b09190612afa565b60405160208183030381529060405292505050919050565b60608060608660200151156118e75760a08701516040516301be83d160e11b81526118649173__$4987fe9f4e800c5c4c1535f64ed232842a$__9163037d07a291611815916004016127f4565b600060405180830381865af4158015611832573d6000803e3d6000fd5b505050506040513d6000823e601f3d908101601f1916820160405261185a919081019061286c565b8760200151611c08565b6118926040518060400160405280600781526020016621b932b0ba37b960c91b815250886101000151611c08565b6118bf6040518060400160405280600681526020016529b2b0b9b7b760d11b815250896101200151611c08565b6040516020016118d193929190612b3f565b6040516020818303038152906040529050611938565b6040518060400160405280600f81526020016e2261747472696275746573223a5b5d60881b81525090506040518060400160405280600b81526020016a1e39bb339f1e17b9bb339f60a91b81525093505b611962858560405160200161194e929190612789565b60405160208183030381529060405261141e565b9150600061196f83611c35565b60405160200161197f9190612bc2565b6040516020818303038152906040529050600061199b8a611c43565b83836040516020016119af93929190612c1e565b60405160208183030381529060405290506119c981611c35565b6040516020016119d99190612cd9565b60405160208183030381529060405294505050505095945050505050565b606080606080606080611a0b888d89611aa6565b8c519095509193509150600003611a2a57819550829450809350611a97565b8a82604051602001611a3d929190612789565b60405160208183030381529060405295508983604051602001611a619291906127b8565b60405160208183030381529060405294508881604051602001611a85929190612789565b60405160208183030381529060405293505b50505096509650969350505050565b606080606085602001518015611abc5750600085115b15611b6b57611ace8460800151611783565b9250611b5d73__$4987fe9f4e800c5c4c1535f64ed232842a$__63037d07a286604001516040518263ffffffff1660e01b8152600401611b0e91906127f4565b600060405180830381865af4158015611b2b573d6000803e3d6000fd5b505050506040513d6000823e601f3d908101601f19168201604052611b53919081019061286c565b8560200151611c08565b90508360a001519150611415565b6040518060400160405280600b81526020016a1e39bb339f1e17b9bb339f60a91b8152509250604051806040016040528060028152602001617b7d60f01b815250905060405180602001604052806000815250915093509350939050565b6000611bd58382612d6e565b506001611be28282612d6e565b505050565b606060405180610100016040528060d28152602001612e9f60d29139905090565b60608282604051602001611c1d929190612e2d565b60405160208183030381529060405290505b92915050565b6060611c2f82600080611c87565b60606080604051019050602081016040526000815280600019835b928101926030600a8206018453600a900480611c5e575050819003601f19909101908152919050565b606083518015611d67576003600282010460021b60405192507f4142434445464748494a4b4c4d4e4f505152535455565758595a616263646566601f526106708515027f6768696a6b6c6d6e6f707172737475767778797a303132333435363738392d5f18603f52602083018181015b6003880197508751603f8160121c1651600053603f81600c1c1651600153603f8160061c1651600253603f811651600353506000518252600482019150808210611cf757602001604052613d3d60f01b600384066002048083039190915260008615159091029182900352900382525b509392505050565b634e487b7160e01b600052604160045260246000fd5b60405161014081016001600160401b0381118282101715611da857611da8611d6f565b60405290565b60405161018081016001600160401b0381118282101715611da857611da8611d6f565b604051601f8201601f191681016001600160401b0381118282101715611df957611df9611d6f565b604052919050565b60006001600160401b03821115611e1a57611e1a611d6f565b50601f01601f191660200190565b600082601f830112611e3957600080fd5b8135611e4c611e4782611e01565b611dd1565b818152846020838601011115611e6157600080fd5b816020850160208301376000918101602001919091529392505050565b600060208284031215611e9057600080fd5b81356001600160401b03811115611ea657600080fd5b611eb284828501611e28565b949350505050565b60005b83811015611ed5578181015183820152602001611ebd565b50506000910152565b60008151808452611ef6816020860160208601611eba565b601f01601f19169290920160200192915050565b602081526000611f1d6020830184611ede565b9392505050565b80358015158114611f3457600080fd5b919050565b80356001600160a01b0381168114611f3457600080fd5b803560088110611f3457600080fd5b600060c08284031215611f7157600080fd5b60405160c081018181106001600160401b0382111715611f9357611f93611d6f565b60405282358152905080611fa960208401611f24565b602082015260408301356040820152611fc460608401611f39565b606082015260808301356080820152611fdf60a08401611f50565b60a08201525092915050565b60006101408284031215611ffe57600080fd5b612006611d85565b90508135815260208201356001600160401b038082111561202657600080fd5b61203285838601611e28565b602084015261204360408501611f50565b6040840152606084013591508082111561205c57600080fd5b61206885838601611e28565b6060840152608084013591508082111561208157600080fd5b61208d85838601611e28565b608084015260a08401359150808211156120a657600080fd5b6120b285838601611e28565b60a08401526120c360c08501611f39565b60c08401526120d460e08501611f39565b60e0840152610100915081840135818111156120ef57600080fd5b6120fb86828701611e28565b83850152506101209150818401358181111561211657600080fd5b61212286828701611e28565b8385015250505092915050565b6000806000806000610140868803121561214857600080fd5b8535945060208601356001600160401b038082111561216657600080fd5b61217289838a01611e28565b9550604088013591508082111561218857600080fd5b61219489838a01611e28565b94506121a38960608a01611f5f565b93506101208801359150808211156121ba57600080fd5b506121c788828901611feb565b9150509295509295909350565b6040815260006121e76040830185611ede565b82810360208401526121f98185611ede565b95945050505050565b6000806000610100848603121561221857600080fd5b6122228585611f5f565b925060c0840135915060e08401356001600160401b0381111561224457600080fd5b61225086828701611feb565b9150509250925092565b803563ffffffff81168114611f3457600080fd5b803560ff81168114611f3457600080fd5b6000610180828403121561229257600080fd5b61229a611dae565b9050813581526020820135602082015260408201356040820152606082013560608201526080820135608082015260a082013560a082015260c082013560c08201526122e860e0830161225a565b60e0820152610100828101359082015261012061230681840161226e565b90820152610140828101356001600160401b0381111561232557600080fd5b61233185828601611e28565b828401525050610160612345818401611f24565b9082015292915050565b67ffffffffffffffff198116811461236657600080fd5b50565b60008060006040848603121561237e57600080fd5b83356001600160401b0381111561239457600080fd5b6123a08682870161227f565b93505060208401356123b18161234f565b9295606084901c955060409390931c63ffffffff1693505050565b6060815260006123df6060830186611ede565b82810360208401526123f18186611ede565b905082810360408401526124058185611ede565b9695505050505050565b6000806000806000610140868803121561242857600080fd5b853594506124398760208801611f5f565b935060e08601356001600160401b038082111561245557600080fd5b61246189838a01611feb565b945061010088013591508082111561247857600080fd5b61248489838a01611e28565b935061012088013591508082111561249b57600080fd5b506121c788828901611e28565b60008060008060008061016087890312156124c257600080fd5b8635955060208701356001600160401b03808211156124e057600080fd5b6124ec8a838b01611e28565b9650604089013591508082111561250257600080fd5b61250e8a838b01611e28565b9550606089013591508082111561252457600080fd5b6125308a838b01611e28565b945061253f8a60808b01611f5f565b935061014089013591508082111561255657600080fd5b5061256389828a01611feb565b9150509295509295509295565b6000806040838503121561258357600080fd5b82356001600160401b038082111561259a57600080fd5b6125a686838701611e28565b935060208501359150808211156125bc57600080fd5b506125c985828601611e28565b9150509250929050565b634e487b7160e01b600052603260045260246000fd5b634e487b7160e01b600052601260045260246000fd5b634e487b7160e01b600052601160045260246000fd5b600082612624576126246125e9565b500490565b600082612638576126386125e9565b500690565b80820180821115611c2f57611c2f6125ff565b6000875160206126638285838d01611eba565b8851918401916126768184848d01611eba565b88519201916126888184848c01611eba565b875192019161269a8184848b01611eba565b86519201916126ac8184848a01611eba565b85519201916126be8184848901611eba565b919091019998505050505050505050565b600085516126e1818460208a01611eba565b681e3932b1ba103c1e9160b91b9083019081528551612707816009840160208a01611eba565b6411103c9e9160d91b60099290910191820152845161272d81600e840160208901611eba565b7f222077696474683d223122206865696768743d2231222066696c6c3d22230000600e9290910191820152835161276b81602c840160208801611eba565b6211179f60e91b602c9290910191820152602f019695505050505050565b6000835161279b818460208801611eba565b8351908301906127af818360208801611eba565b01949350505050565b600083516127ca818460208801611eba565b600b60fa1b90830190815283516127e8816001840160208801611eba565b01600101949350505050565b602081016008831061281657634e487b7160e01b600052602160045260246000fd5b91905290565b600061282a611e4784611e01565b905082815283838301111561283e57600080fd5b611f1d836020830184611eba565b600082601f83011261285d57600080fd5b611f1d8383516020850161281c565b60006020828403121561287e57600080fd5b81516001600160401b0381111561289457600080fd5b611eb28482850161284c565b8381526060602082015260006128b96060830185611ede565b82810360408401526124058185611ede565b600080604083850312156128de57600080fd5b82516001600160401b03808211156128f557600080fd5b6129018683870161284c565b9350602085015191508082111561291757600080fd5b506125c98582860161284c565b600181811c9082168061293857607f821691505b60208210810361295857634e487b7160e01b600052602260045260246000fd5b50919050565b8481526080602082015260006129776080830186611ede565b82810360408401526129898186611ede565b9050828103606084015261299d8185611ede565b979650505050505050565b6000806000606084860312156129bd57600080fd5b83516001600160401b03808211156129d457600080fd5b6129e08783880161284c565b945060208601519150808211156129f657600080fd5b612a028783880161284c565b93506040860151915080821115612a1857600080fd5b508401601f81018613612a2a57600080fd5b6122508682516020840161281c565b60008351612a4b818460208801611eba565b835190830190612a5f818360208801611eba565b651e17b9bb339f60d11b9101908152600601949350505050565b7f3c672069643d2267686f73742220636c6173733d226722207374796c653d226f81526d3830b1b4ba3c9d101a98129d911f60911b602082015260008251612ac881602e850160208701611eba565b631e17b39f60e11b602e939091019283015250603201919050565b8082028115828204841417611c2f57611c2f6125ff565b6d1e339034b21e912a3930b4ba111f60911b81528151600090612b2481600e850160208701611eba565b631e17b39f60e11b600e939091019283015250601201919050565b6d2261747472696275746573223a5b60901b81528351600090612b6981600e850160208901611eba565b8083019050600b60fa1b80600e8301528551612b8c81600f850160208a01611eba565b600f9201918201528351612ba7816010840160208801611eba565b605d60f81b6010929091019182015260110195945050505050565b7f22696d616765223a22646174613a696d6167652f7376672b786d6c3b626173658152620d8d0b60ea1b602082015260008251612c06816023850160208701611eba565b601160f91b6023939091019283015250602401919050565b757b226e616d65223a225065746572205472616974202360501b81528351600090612c50816016850160208901611eba565b7f222c226465736372697074696f6e223a2254686973206973206a757374206120601691840191820152651d195cdd088b60d21b60368201528451612c9c81603c840160208901611eba565b600b60fa1b603c92909101918201528351612cbe81603d840160208801611eba565b607d60f81b603d9290910191820152603e0195945050505050565b7f646174613a6170706c69636174696f6e2f6a736f6e3b6261736536342c000000815260008251612d1181601d850160208701611eba565b91909101601d0192915050565b601f821115611be2576000816000526020600020601f850160051c81016020861015612d475750805b601f850160051c820191505b81811015612d6657828155600101612d53565b505050505050565b81516001600160401b03811115612d8757612d87611d6f565b612d9b81612d958454612924565b84612d1e565b602080601f831160018114612dd05760008415612db85750858301515b600019600386901b1c1916600185901b178555612d66565b600085815260208120601f198616915b82811015612dff57888601518255948401946001909101908401612de0565b5085821015612e1d5787850151600019600388901b60f8161c191681555b5050505050600190811b01905550565b6e3d913a3930b4ba2fba3cb832911d1160891b81528251600090612e5881600f850160208801611eba565b6a1116113b30b63ab2911d1160a91b600f918401918201528351612e8381601a840160208801611eba565b61227d60f01b601a9290910191820152601c0194935050505056fe3c7376672073686170652d72656e646572696e673d2263726973704564676573222076696577426f783d22302030203330203330222066696c6c3d226e6f6e652220786d6c6e733d22687474703a2f2f7777772e77332e6f72672f323030302f737667223e3c7374796c653e726563747b77696474683a3170783b206865696768743a203170783b7d202e62677b77696474683a333070783b206865696768743a20333070783b7d203c2f7374796c653e3c7265637420636c6173733d226267222066696c6c3d2223304436453944222f3ea2646970667358221220bc6c8314ed993ea6ace252cc9d85b25ee8f90a62b9c5a6df24f2a0ce2d08694d64736f6c63430008160033","linkReferences":{"src/TraitCategory.sol":{"TraitCategory":[{"start":27672,"length":20},{"start":30946,"length":20},{"start":31688,"length":20}]}}},"methodIdentifiers":{"addMinter(address)":"983b2d56","approve(address,uint256)":"095ea7b3","balanceOf(address)":"70a08231","burn(uint256)":"42966c68","burnBatch(uint256[])":"e4623c1b","callGetSVGZmapAndMetadataTrait(uint256,string,string,bytes)":"f1271942","callGetSvgAndMetadataTrait(uint256,string,string)":"e08714a6","cancelOwnershipHandover()":"54d1f13d","completeOwnershipHandover(address)":"f04e283e","createSvgFromPixels(bytes)":"21b12c23","getApproved(uint256)":"081812fc","getApprovedOperators(uint256)":"00db6348","getApprovedOperatorsLength(uint256)":"c1ff78be","getCurrentEpoch()":"b97dd9e2","getEpoch()":"757991a8","getEpochData(uint256)":"859e7d32","getGhostSvg()":"5c1ef256","getSVGZmapAndMetadataTrait((uint256,bool,uint256,address,uint256,uint8),uint256)":"f901667f","getStoredTraitForTokenId(uint256)":"208c25a3","getSvgAndMetadata((uint256,uint256,uint256,uint256,uint256,uint256,uint256,uint32,uint256,uint8,string,bool))":"df2c2b88","getSvgAndMetadataTrait((uint256,bool,uint256,address,uint256,uint8),uint256)":"33a70328","getSvgForTokenId(uint256)":"c7791531","getSvgZmapsAndMetadata((uint256,uint256,uint256,uint256,uint256,uint256,uint256,uint32,uint256,uint8,string,bool))":"bb12d21d","getTrait(uint256)":"acb586df","getTraitImageSvg(uint256)":"a5e2912a","getTraitIndexToMetadata(uint256)":"ea139544","getTraitMetadata(uint256)":"d1bfc2af","getTraitType(uint256)":"e8a1268d","getZMapForTokenId(uint256)":"a8498c74","invalidateAllOperatorApprovals(uint256)":"90f63842","isApprovedForAll(address,address)":"e985e9c5","isMinter(address)":"aa271e1a","marketplace()":"abc8c7af","name()":"06fdde03","onERC721Received(address,address,uint256,bytes)":"150b7a02","owner()":"8da5cb5b","ownerOf(uint256)":"6352211e","ownershipHandoverExpiresAt(address)":"fee81cf4","petersMain()":"1ca97604","removeMinter(address)":"3092afd5","renderAsDataUri(uint256)":"a1d62680","renounceOwnership()":"715018a6","requestOwnershipHandover()":"25692962","resolveEpochIfNecessary()":"239ffa68","safeMint(address)":"40d097c3","safeTransferFrom(address,address,uint256)":"42842e0e","safeTransferFrom(address,address,uint256,bytes)":"b88d4fde","setApprovalForAll(address,bool)":"a22cb465","setGhostMaps(bytes,bytes)":"e1defed9","setMarketplace(address)":"73ad6c2d","setPetersMain(address)":"a2c12c94","setTraitForTokenId(uint256,(uint256,bool,uint256,address,uint256,uint8))":"36d34ab9","setTraitIndexToMetadata(uint256,(uint256,string,uint8,string,bytes,bytes,address,address,string,string))":"8d37c537","setTraitRenderer(address)":"120def24","signer()":"238ac933","supportsInterface(bytes4)":"01ffc9a7","symbol()":"95d89b41","tokenByIndex(uint256)":"4f6ccce7","tokenOfOwnerByIndex(address,uint256)":"2f745c59","tokenURI(uint256)":"c87b56dd","totalSupply()":"18160ddd","traitIdToApprovedOperators(uint256,uint256)":"11f3910d","traitIndexToMetadata(uint256)":"817a29a4","traitRenderer()":"c876371b","traitTokens()":"e14d026f","transferFrom(address,address,uint256)":"23b872dd","transferOwnership(address)":"f2fde38b","walletOfOwner(address)":"438b6300"},"id":42}