{"abi":[{"type":"constructor","inputs":[{"name":"localDeploy_","type":"bool","internalType":"bool"}],"stateMutability":"nonpayable"},{"type":"function","name":"approve","inputs":[{"name":"to","type":"address","internalType":"address"},{"name":"tokenId","type":"uint256","internalType":"uint256"}],"outputs":[],"stateMutability":"nonpayable"},{"type":"function","name":"balanceOf","inputs":[{"name":"owner","type":"address","internalType":"address"}],"outputs":[{"name":"","type":"uint256","internalType":"uint256"}],"stateMutability":"view"},{"type":"function","name":"callGetSVGZmapAndMetadataTrait","inputs":[{"name":"_traitId","type":"uint256","internalType":"uint256"},{"name":"_traitsSvg","type":"string","internalType":"string"},{"name":"_traitsAttributes","type":"string","internalType":"string"},{"name":"_traitZMaps","type":"bytes","internalType":"bytes"}],"outputs":[{"name":"traitsSvg","type":"string","internalType":"string"},{"name":"traitsAttributes","type":"string","internalType":"string"},{"name":"traitZMaps","type":"bytes","internalType":"bytes"}],"stateMutability":"view"},{"type":"function","name":"callGetSvgAndMetadataTrait","inputs":[{"name":"_traitId","type":"uint256","internalType":"uint256"},{"name":"_traitsSvg","type":"string","internalType":"string"},{"name":"_traitsAttributes","type":"string","internalType":"string"}],"outputs":[{"name":"traitsSvg","type":"string","internalType":"string"},{"name":"traitsAttributes","type":"string","internalType":"string"}],"stateMutability":"view"},{"type":"function","name":"cancelOwnershipHandover","inputs":[],"outputs":[],"stateMutability":"payable"},{"type":"function","name":"completeOwnershipHandover","inputs":[{"name":"pendingOwner","type":"address","internalType":"address"}],"outputs":[],"stateMutability":"payable"},{"type":"function","name":"createSvgFromPixels","inputs":[{"name":"_pixels","type":"bytes","internalType":"bytes"}],"outputs":[{"name":"svgParts","type":"bytes","internalType":"bytes"}],"stateMutability":"pure"},{"type":"function","name":"getApproved","inputs":[{"name":"tokenId","type":"uint256","internalType":"uint256"}],"outputs":[{"name":"","type":"address","internalType":"address"}],"stateMutability":"view"},{"type":"function","name":"getCurrentEpoch","inputs":[],"outputs":[{"name":"","type":"uint256","internalType":"uint256"}],"stateMutability":"view"},{"type":"function","name":"getEpoch","inputs":[],"outputs":[{"name":"","type":"uint256","internalType":"uint256"}],"stateMutability":"view"},{"type":"function","name":"getEpochData","inputs":[{"name":"index","type":"uint256","internalType":"uint256"}],"outputs":[{"name":"","type":"tuple","internalType":"struct CommitReveal.Epoch","components":[{"name":"randomness","type":"uint128","internalType":"uint128"},{"name":"revealBlock","type":"uint64","internalType":"uint64"},{"name":"committed","type":"bool","internalType":"bool"},{"name":"revealed","type":"bool","internalType":"bool"}]}],"stateMutability":"view"},{"type":"function","name":"getGhostSvg","inputs":[],"outputs":[{"name":"svg","type":"string","internalType":"string"}],"stateMutability":"view"},{"type":"function","name":"getSVGZmapAndMetadataTrait","inputs":[{"name":"trait","type":"tuple","internalType":"struct ITraitStorage.StoredTrait","components":[{"name":"tokenId","type":"uint256","internalType":"uint256"},{"name":"epoch","type":"uint256","internalType":"uint256"},{"name":"isRevealed","type":"bool","internalType":"bool"},{"name":"seed","type":"uint256","internalType":"uint256"},{"name":"renderMinterContract","type":"address","internalType":"address"},{"name":"traitIndex","type":"uint256","internalType":"uint256"},{"name":"traitType","type":"uint8","internalType":"enum TraitCategory.Name"}]},{"name":"traitId","type":"uint256","internalType":"uint256"}],"outputs":[{"name":"traitSvg","type":"string","internalType":"string"},{"name":"traitZmap","type":"bytes","internalType":"bytes"},{"name":"traitAttributes","type":"string","internalType":"string"}],"stateMutability":"view"},{"type":"function","name":"getStoredTraitForTokenId","inputs":[{"name":"_tokenId","type":"uint256","internalType":"uint256"}],"outputs":[{"name":"","type":"tuple","internalType":"struct ITraitStorage.StoredTrait","components":[{"name":"tokenId","type":"uint256","internalType":"uint256"},{"name":"epoch","type":"uint256","internalType":"uint256"},{"name":"isRevealed","type":"bool","internalType":"bool"},{"name":"seed","type":"uint256","internalType":"uint256"},{"name":"renderMinterContract","type":"address","internalType":"address"},{"name":"traitIndex","type":"uint256","internalType":"uint256"},{"name":"traitType","type":"uint8","internalType":"enum TraitCategory.Name"}]}],"stateMutability":"view"},{"type":"function","name":"getSvgAndMetadata","inputs":[{"name":"storedPeter","type":"tuple","internalType":"struct IPeterStorage.StoredPeter","components":[{"name":"hatId","type":"uint256","internalType":"uint256"},{"name":"hairId","type":"uint256","internalType":"uint256"},{"name":"glassesId","type":"uint256","internalType":"uint256"},{"name":"handheldId","type":"uint256","internalType":"uint256"},{"name":"shirtId","type":"uint256","internalType":"uint256"},{"name":"pantsId","type":"uint256","internalType":"uint256"},{"name":"shoesId","type":"uint256","internalType":"uint256"},{"name":"epoch","type":"uint32","internalType":"uint32"},{"name":"tokenId","type":"uint16","internalType":"uint16"},{"name":"bodyIndex","type":"uint256","internalType":"uint256"},{"name":"isRevealed","type":"bool","internalType":"bool"},{"name":"seed","type":"uint256","internalType":"uint256"},{"name":"backgroundColor","type":"string","internalType":"string"},{"name":"renderZ","type":"bool","internalType":"bool"}]}],"outputs":[{"name":"traitsSvg","type":"string","internalType":"string"},{"name":"traitsAttributes","type":"string","internalType":"string"}],"stateMutability":"view"},{"type":"function","name":"getSvgAndMetadataTrait","inputs":[{"name":"trait","type":"tuple","internalType":"struct ITraitStorage.StoredTrait","components":[{"name":"tokenId","type":"uint256","internalType":"uint256"},{"name":"epoch","type":"uint256","internalType":"uint256"},{"name":"isRevealed","type":"bool","internalType":"bool"},{"name":"seed","type":"uint256","internalType":"uint256"},{"name":"renderMinterContract","type":"address","internalType":"address"},{"name":"traitIndex","type":"uint256","internalType":"uint256"},{"name":"traitType","type":"uint8","internalType":"enum TraitCategory.Name"}]},{"name":"traitId","type":"uint256","internalType":"uint256"}],"outputs":[{"name":"traitSvg","type":"string","internalType":"string"},{"name":"traitAttributes","type":"string","internalType":"string"}],"stateMutability":"view"},{"type":"function","name":"getSvgForTokenId","inputs":[{"name":"_tokenId","type":"uint256","internalType":"uint256"}],"outputs":[{"name":"traitSvg","type":"string","internalType":"string"}],"stateMutability":"view"},{"type":"function","name":"getSvgZmapsAndMetadata","inputs":[{"name":"storedPeter","type":"tuple","internalType":"struct IPeterStorage.StoredPeter","components":[{"name":"hatId","type":"uint256","internalType":"uint256"},{"name":"hairId","type":"uint256","internalType":"uint256"},{"name":"glassesId","type":"uint256","internalType":"uint256"},{"name":"handheldId","type":"uint256","internalType":"uint256"},{"name":"shirtId","type":"uint256","internalType":"uint256"},{"name":"pantsId","type":"uint256","internalType":"uint256"},{"name":"shoesId","type":"uint256","internalType":"uint256"},{"name":"epoch","type":"uint32","internalType":"uint32"},{"name":"tokenId","type":"uint16","internalType":"uint16"},{"name":"bodyIndex","type":"uint256","internalType":"uint256"},{"name":"isRevealed","type":"bool","internalType":"bool"},{"name":"seed","type":"uint256","internalType":"uint256"},{"name":"backgroundColor","type":"string","internalType":"string"},{"name":"renderZ","type":"bool","internalType":"bool"}]}],"outputs":[{"name":"traitsSvg","type":"string","internalType":"string"},{"name":"traitZMaps","type":"bytes","internalType":"bytes"},{"name":"traitsAttributes","type":"string","internalType":"string"}],"stateMutability":"view"},{"type":"function","name":"getTrait","inputs":[{"name":"_tokenId","type":"uint256","internalType":"uint256"}],"outputs":[{"name":"","type":"tuple","internalType":"struct ITraitStorage.StoredTrait","components":[{"name":"tokenId","type":"uint256","internalType":"uint256"},{"name":"epoch","type":"uint256","internalType":"uint256"},{"name":"isRevealed","type":"bool","internalType":"bool"},{"name":"seed","type":"uint256","internalType":"uint256"},{"name":"renderMinterContract","type":"address","internalType":"address"},{"name":"traitIndex","type":"uint256","internalType":"uint256"},{"name":"traitType","type":"uint8","internalType":"enum TraitCategory.Name"}]}],"stateMutability":"view"},{"type":"function","name":"getTraitImage","inputs":[{"name":"colorMap","type":"bytes","internalType":"bytes"}],"outputs":[{"name":"","type":"bytes","internalType":"bytes"}],"stateMutability":"pure"},{"type":"function","name":"getTraitImageSvg","inputs":[{"name":"index","type":"uint256","internalType":"uint256"}],"outputs":[{"name":"svg","type":"string","internalType":"string"}],"stateMutability":"view"},{"type":"function","name":"getTraitIndexToMetadata","inputs":[{"name":"_traitIndex","type":"uint256","internalType":"uint256"}],"outputs":[{"name":"","type":"tuple","internalType":"struct ITraitStorage.TraitMetadata","components":[{"name":"traitIndex","type":"uint256","internalType":"uint256"},{"name":"traitName","type":"string","internalType":"string"},{"name":"traitType","type":"uint8","internalType":"enum TraitCategory.Name"},{"name":"animations","type":"string","internalType":"string"},{"name":"colorMap","type":"bytes","internalType":"bytes"},{"name":"zMap","type":"bytes","internalType":"bytes"},{"name":"renderMinterContract","type":"address","internalType":"address"}]}],"stateMutability":"view"},{"type":"function","name":"getTraitMetadata","inputs":[{"name":"_tokenId","type":"uint256","internalType":"uint256"}],"outputs":[{"name":"","type":"tuple","internalType":"struct ITraitStorage.TraitMetadata","components":[{"name":"traitIndex","type":"uint256","internalType":"uint256"},{"name":"traitName","type":"string","internalType":"string"},{"name":"traitType","type":"uint8","internalType":"enum TraitCategory.Name"},{"name":"animations","type":"string","internalType":"string"},{"name":"colorMap","type":"bytes","internalType":"bytes"},{"name":"zMap","type":"bytes","internalType":"bytes"},{"name":"renderMinterContract","type":"address","internalType":"address"}]}],"stateMutability":"view"},{"type":"function","name":"getTraitType","inputs":[{"name":"_tokenId","type":"uint256","internalType":"uint256"}],"outputs":[{"name":"","type":"uint8","internalType":"enum TraitCategory.Name"}],"stateMutability":"view"},{"type":"function","name":"ghost","inputs":[],"outputs":[{"name":"colorMap","type":"bytes","internalType":"bytes"},{"name":"zMap","type":"bytes","internalType":"bytes"}],"stateMutability":"view"},{"type":"function","name":"isApprovedForAll","inputs":[{"name":"owner","type":"address","internalType":"address"},{"name":"operator","type":"address","internalType":"address"}],"outputs":[{"name":"","type":"bool","internalType":"bool"}],"stateMutability":"view"},{"type":"function","name":"isMinter","inputs":[{"name":"","type":"address","internalType":"address"}],"outputs":[{"name":"","type":"bool","internalType":"bool"}],"stateMutability":"view"},{"type":"function","name":"minter","inputs":[],"outputs":[{"name":"","type":"address","internalType":"address"}],"stateMutability":"view"},{"type":"function","name":"name","inputs":[],"outputs":[{"name":"","type":"string","internalType":"string"}],"stateMutability":"view"},{"type":"function","name":"onERC721Received","inputs":[{"name":"","type":"address","internalType":"address"},{"name":"","type":"address","internalType":"address"},{"name":"","type":"uint256","internalType":"uint256"},{"name":"","type":"bytes","internalType":"bytes"}],"outputs":[{"name":"","type":"bytes4","internalType":"bytes4"}],"stateMutability":"pure"},{"type":"function","name":"owner","inputs":[],"outputs":[{"name":"result","type":"address","internalType":"address"}],"stateMutability":"view"},{"type":"function","name":"ownerOf","inputs":[{"name":"tokenId","type":"uint256","internalType":"uint256"}],"outputs":[{"name":"","type":"address","internalType":"address"}],"stateMutability":"view"},{"type":"function","name":"ownershipHandoverExpiresAt","inputs":[{"name":"pendingOwner","type":"address","internalType":"address"}],"outputs":[{"name":"result","type":"uint256","internalType":"uint256"}],"stateMutability":"view"},{"type":"function","name":"renderAsDataUri","inputs":[{"name":"_tokenId","type":"uint256","internalType":"uint256"}],"outputs":[{"name":"","type":"string","internalType":"string"}],"stateMutability":"view"},{"type":"function","name":"renounceOwnership","inputs":[],"outputs":[],"stateMutability":"payable"},{"type":"function","name":"requestOwnershipHandover","inputs":[],"outputs":[],"stateMutability":"payable"},{"type":"function","name":"resolveEpochIfNecessary","inputs":[],"outputs":[],"stateMutability":"nonpayable"},{"type":"function","name":"safeMint","inputs":[{"name":"_to","type":"address","internalType":"address"}],"outputs":[{"name":"","type":"uint256","internalType":"uint256"}],"stateMutability":"nonpayable"},{"type":"function","name":"safeTransferFrom","inputs":[{"name":"from","type":"address","internalType":"address"},{"name":"to","type":"address","internalType":"address"},{"name":"tokenId","type":"uint256","internalType":"uint256"}],"outputs":[],"stateMutability":"nonpayable"},{"type":"function","name":"safeTransferFrom","inputs":[{"name":"from","type":"address","internalType":"address"},{"name":"to","type":"address","internalType":"address"},{"name":"tokenId","type":"uint256","internalType":"uint256"},{"name":"data","type":"bytes","internalType":"bytes"}],"outputs":[],"stateMutability":"nonpayable"},{"type":"function","name":"setApprovalForAll","inputs":[{"name":"operator","type":"address","internalType":"address"},{"name":"approved","type":"bool","internalType":"bool"}],"outputs":[],"stateMutability":"nonpayable"},{"type":"function","name":"setGhostMaps","inputs":[{"name":"_colorMap","type":"bytes","internalType":"bytes"},{"name":"_zMap","type":"bytes","internalType":"bytes"}],"outputs":[],"stateMutability":"nonpayable"},{"type":"function","name":"setTraitForTokenId","inputs":[{"name":"_tokenId","type":"uint256","internalType":"uint256"},{"name":"_trait","type":"tuple","internalType":"struct ITraitStorage.StoredTrait","components":[{"name":"tokenId","type":"uint256","internalType":"uint256"},{"name":"epoch","type":"uint256","internalType":"uint256"},{"name":"isRevealed","type":"bool","internalType":"bool"},{"name":"seed","type":"uint256","internalType":"uint256"},{"name":"renderMinterContract","type":"address","internalType":"address"},{"name":"traitIndex","type":"uint256","internalType":"uint256"},{"name":"traitType","type":"uint8","internalType":"enum TraitCategory.Name"}]}],"outputs":[],"stateMutability":"nonpayable"},{"type":"function","name":"setTraitIndexToMetadata","inputs":[{"name":"_traitIndex","type":"uint256","internalType":"uint256"},{"name":"_metadata","type":"tuple","internalType":"struct ITraitStorage.TraitMetadata","components":[{"name":"traitIndex","type":"uint256","internalType":"uint256"},{"name":"traitName","type":"string","internalType":"string"},{"name":"traitType","type":"uint8","internalType":"enum TraitCategory.Name"},{"name":"animations","type":"string","internalType":"string"},{"name":"colorMap","type":"bytes","internalType":"bytes"},{"name":"zMap","type":"bytes","internalType":"bytes"},{"name":"renderMinterContract","type":"address","internalType":"address"}]}],"outputs":[],"stateMutability":"nonpayable"},{"type":"function","name":"signer","inputs":[],"outputs":[{"name":"","type":"address","internalType":"address"}],"stateMutability":"view"},{"type":"function","name":"supportsInterface","inputs":[{"name":"interfaceId","type":"bytes4","internalType":"bytes4"}],"outputs":[{"name":"","type":"bool","internalType":"bool"}],"stateMutability":"view"},{"type":"function","name":"symbol","inputs":[],"outputs":[{"name":"","type":"string","internalType":"string"}],"stateMutability":"view"},{"type":"function","name":"tokenByIndex","inputs":[{"name":"index","type":"uint256","internalType":"uint256"}],"outputs":[{"name":"","type":"uint256","internalType":"uint256"}],"stateMutability":"view"},{"type":"function","name":"tokenOfOwnerByIndex","inputs":[{"name":"owner","type":"address","internalType":"address"},{"name":"index","type":"uint256","internalType":"uint256"}],"outputs":[{"name":"","type":"uint256","internalType":"uint256"}],"stateMutability":"view"},{"type":"function","name":"tokenURI","inputs":[{"name":"_tokenId","type":"uint256","internalType":"uint256"}],"outputs":[{"name":"","type":"string","internalType":"string"}],"stateMutability":"view"},{"type":"function","name":"totalSupply","inputs":[],"outputs":[{"name":"","type":"uint256","internalType":"uint256"}],"stateMutability":"view"},{"type":"function","name":"traitIndexToMetadata","inputs":[{"name":"","type":"uint256","internalType":"uint256"}],"outputs":[{"name":"traitIndex","type":"uint256","internalType":"uint256"},{"name":"traitName","type":"string","internalType":"string"},{"name":"traitType","type":"uint8","internalType":"enum TraitCategory.Name"},{"name":"animations","type":"string","internalType":"string"},{"name":"colorMap","type":"bytes","internalType":"bytes"},{"name":"zMap","type":"bytes","internalType":"bytes"},{"name":"renderMinterContract","type":"address","internalType":"address"}],"stateMutability":"view"},{"type":"function","name":"traitTokens","inputs":[],"outputs":[{"name":"epoch","type":"uint256","internalType":"uint256"}],"stateMutability":"view"},{"type":"function","name":"transferFrom","inputs":[{"name":"from","type":"address","internalType":"address"},{"name":"to","type":"address","internalType":"address"},{"name":"tokenId","type":"uint256","internalType":"uint256"}],"outputs":[],"stateMutability":"nonpayable"},{"type":"function","name":"transferOwnership","inputs":[{"name":"newOwner","type":"address","internalType":"address"}],"outputs":[],"stateMutability":"payable"},{"type":"function","name":"walletOfOwner","inputs":[{"name":"_owner","type":"address","internalType":"address"}],"outputs":[{"name":"","type":"uint256[]","internalType":"uint256[]"}],"stateMutability":"view"},{"type":"event","name":"Approval","inputs":[{"name":"owner","type":"address","indexed":true,"internalType":"address"},{"name":"approved","type":"address","indexed":true,"internalType":"address"},{"name":"tokenId","type":"uint256","indexed":true,"internalType":"uint256"}],"anonymous":false},{"type":"event","name":"ApprovalForAll","inputs":[{"name":"owner","type":"address","indexed":true,"internalType":"address"},{"name":"operator","type":"address","indexed":true,"internalType":"address"},{"name":"approved","type":"bool","indexed":false,"internalType":"bool"}],"anonymous":false},{"type":"event","name":"BatchMetadataUpdate","inputs":[{"name":"_fromTokenId","type":"uint256","indexed":false,"internalType":"uint256"},{"name":"_toTokenId","type":"uint256","indexed":false,"internalType":"uint256"}],"anonymous":false},{"type":"event","name":"MetadataUpdate","inputs":[{"name":"_tokenId","type":"uint256","indexed":false,"internalType":"uint256"}],"anonymous":false},{"type":"event","name":"NewEpoch","inputs":[{"name":"epoch","type":"uint256","indexed":true,"internalType":"uint256"},{"name":"revealBlock","type":"uint64","indexed":true,"internalType":"uint64"}],"anonymous":false},{"type":"event","name":"OwnershipHandoverCanceled","inputs":[{"name":"pendingOwner","type":"address","indexed":true,"internalType":"address"}],"anonymous":false},{"type":"event","name":"OwnershipHandoverRequested","inputs":[{"name":"pendingOwner","type":"address","indexed":true,"internalType":"address"}],"anonymous":false},{"type":"event","name":"OwnershipTransferred","inputs":[{"name":"oldOwner","type":"address","indexed":true,"internalType":"address"},{"name":"newOwner","type":"address","indexed":true,"internalType":"address"}],"anonymous":false},{"type":"event","name":"Transfer","inputs":[{"name":"from","type":"address","indexed":true,"internalType":"address"},{"name":"to","type":"address","indexed":true,"internalType":"address"},{"name":"tokenId","type":"uint256","indexed":true,"internalType":"uint256"}],"anonymous":false},{"type":"error","name":"AlreadyInitialized","inputs":[]},{"type":"error","name":"NewOwnerIsZeroAddress","inputs":[]},{"type":"error","name":"NoHandoverRequest","inputs":[]},{"type":"error","name":"NotAValidMinterContract","inputs":[]},{"type":"error","name":"TraitNotFound","inputs":[{"name":"_tokenId","type":"uint256","internalType":"uint256"}]},{"type":"error","name":"TraitTokenDoesntExist","inputs":[]},{"type":"error","name":"Unauthorized","inputs":[]}],"bytecode":{"object":"0x60806040523480156200001157600080fd5b5060405162005ef038038062005ef08339810160408190526200003491620000fb565b6040518060400160405280600b81526020016a506574657254726169747360a81b81525060405180604001604052806003815260200162282a2960e91b8152508160009081620000859190620001cd565b506001620000948282620001cd565b505050620000a833620000bf60201b60201c565b6013805460ff191691151591909117905562000299565b6001600160a01b0316638b78c6d8198190558060007f8be0079c531659141344cd1fd0a4f28419497f9722a3daafe3b4186f6b6457e08180a350565b6000602082840312156200010e57600080fd5b815180151581146200011f57600080fd5b9392505050565b634e487b7160e01b600052604160045260246000fd5b600181811c908216806200015157607f821691505b6020821081036200017257634e487b7160e01b600052602260045260246000fd5b50919050565b601f821115620001c8576000816000526020600020601f850160051c81016020861015620001a35750805b601f850160051c820191505b81811015620001c457828155600101620001af565b5050505b505050565b81516001600160401b03811115620001e957620001e962000126565b6200020181620001fa84546200013c565b8462000178565b602080601f831160018114620002395760008415620002205750858301515b600019600386901b1c1916600185901b178555620001c4565b600085815260208120601f198616915b828110156200026a5788860151825594840194600190910190840162000249565b5085821015620002895787850151600019600388901b60f8161c191681555b5050505050600190811b01905550565b615c4780620002a96000396000f3fe60806040526004361061036b5760003560e01c8063715018a6116101c6578063b97dd9e2116100f7578063e8a1268d11610095578063f04e283e1161006f578063f04e283e14610afa578063f127194214610b0d578063f2fde38b14610b2d578063fee81cf414610b4057600080fd5b8063e8a1268d14610a64578063e985e9c514610a91578063ea13954414610ada57600080fd5b8063d1bfc2af116100d1578063d1bfc2af146109e0578063e08714a614610a0d578063e14d026f14610a2d578063e1defed914610a4457600080fd5b8063b97dd9e214610733578063c7791531146109a0578063c87b56dd146109c057600080fd5b8063a0d97fce11610164578063a5e2912a1161013e578063a5e2912a14610910578063aa271e1a14610930578063acb586df14610960578063b88d4fde1461098057600080fd5b8063a0d97fce146108b0578063a1d62680146108d0578063a22cb465146108f057600080fd5b8063859e7d32116101a0578063859e7d321461077b578063898aa117146108625780638da5cb5b1461088257806395d89b411461089b57600080fd5b8063715018a61461072b578063757991a814610733578063817a29a41461074857600080fd5b806325692962116102a0578063438b63001161023e57806354d1f13d1161021857806354d1f13d146106ce5780635c1ef256146106d65780636352211e146106eb57806370a082311461070b57600080fd5b8063438b63001461066c5780634f6ccce71461069957806351dc7189146106b957600080fd5b80633fe9cfab1161027a5780633fe9cfab146105ec57806340d097c31461060c578063415273f51461062c57806342842e0e1461064c57600080fd5b806325692962146105965780632f745c591461059e578063356c8624146105be57600080fd5b80631bcd52ca1161030d578063238ac933116102e7578063238ac93314610521578063239ffa681461054157806323b872dd14610556578063246b58a31461057657600080fd5b80631bcd52ca146104a5578063208c25a3146104d457806321b12c231461050157600080fd5b8063081812fc11610349578063081812fc146103ff578063095ea7b31461041f578063150b7a021461044157806318160ddd1461048657600080fd5b806301ffc9a71461037057806306fdde03146103a557806307546172146103c7575b600080fd5b34801561037c57600080fd5b5061039061038b36600461473b565b610b73565b60405190151581526020015b60405180910390f35b3480156103b157600080fd5b506103ba610b84565b60405161039c91906147af565b3480156103d357600080fd5b50600f546103e7906001600160a01b031681565b6040516001600160a01b03909116815260200161039c565b34801561040b57600080fd5b506103e761041a3660046147c2565b610c16565b34801561042b57600080fd5b5061043f61043a366004614800565b610c3d565b005b34801561044d57600080fd5b5061046d61045c36600461482c565b630a85bd0160e11b95945050505050565b6040516001600160e01b0319909116815260200161039c565b34801561049257600080fd5b506008545b60405190815260200161039c565b3480156104b157600080fd5b506104c56104c0366004614a17565b610d57565b60405161039c93929190614b2d565b3480156104e057600080fd5b506104f46104ef3660046147c2565b610e80565b60405161039c9190614bfa565b34801561050d57600080fd5b506103ba61051c366004614c08565b610f26565b34801561052d57600080fd5b506010546103e7906001600160a01b031681565b34801561054d57600080fd5b5061043f61176f565b34801561056257600080fd5b5061043f610571366004614c3c565b61194b565b34801561058257600080fd5b506104c5610591366004614d12565b61197c565b61043f611bda565b3480156105aa57600080fd5b506104976105b9366004614800565b611c29565b3480156105ca57600080fd5b506105de6105d9366004614d12565b611cbf565b60405161039c929190614d3e565b3480156105f857600080fd5b5061043f610607366004614d63565b611d92565b34801561061857600080fd5b50610497610627366004614e73565b611e52565b34801561063857600080fd5b5061043f610647366004614e90565b611ebf565b34801561065857600080fd5b5061043f610667366004614c3c565b611f65565b34801561067857600080fd5b5061068c610687366004614e73565b611f80565b60405161039c9190614ebe565b3480156106a557600080fd5b506104976106b43660046147c2565b612017565b3480156106c557600080fd5b506105de6120aa565b61043f6121ca565b3480156106e257600080fd5b506103ba612206565b3480156106f757600080fd5b506103e76107063660046147c2565b6122d6565b34801561071757600080fd5b50610497610726366004614e73565b612336565b61043f6123bc565b34801561073f57600080fd5b50600b54610497565b34801561075457600080fd5b506107686107633660046147c2565b6123d0565b60405161039c9796959493929190614f02565b34801561078757600080fd5b506108196107963660046147c2565b6040805160808082018352600080835260208084018290528385018290526060938401829052948152600c855283902083519182018452546001600160801b03811682526001600160401b03600160801b8204169482019490945260ff600160c01b85048116151593820193909352600160c81b90930490911615159082015290565b60405161039c919081516001600160801b031681526020808301516001600160401b03169082015260408083015115159082015260609182015115159181019190915260800190565b34801561086e57600080fd5b506103ba61087d366004614c08565b61263d565b34801561088e57600080fd5b50638b78c6d819546103e7565b3480156108a757600080fd5b506103ba61288f565b3480156108bc57600080fd5b506105de6108cb366004614a17565b61289e565b3480156108dc57600080fd5b506103ba6108eb3660046147c2565b6129b1565b3480156108fc57600080fd5b5061043f61090b366004614f7f565b612e81565b34801561091c57600080fd5b506103ba61092b3660046147c2565b612e90565b34801561093c57600080fd5b5061039061094b366004614e73565b60126020526000908152604090205460ff1681565b34801561096c57600080fd5b506104f461097b3660046147c2565b612eec565b34801561098c57600080fd5b5061043f61099b366004614fb8565b613069565b3480156109ac57600080fd5b506103ba6109bb3660046147c2565b6130a1565b3480156109cc57600080fd5b506103ba6109db3660046147c2565b6130fb565b3480156109ec57600080fd5b50610a006109fb3660046147c2565b61313c565b60405161039c9190615023565b348015610a1957600080fd5b506105de610a283660046150d8565b613414565b348015610a3957600080fd5b50600b546104979081565b348015610a5057600080fd5b5061043f610a5f366004615144565b61349f565b348015610a7057600080fd5b50610a84610a7f3660046147c2565b6134c0565b60405161039c91906151a7565b348015610a9d57600080fd5b50610390610aac3660046151b5565b6001600160a01b03918216600090815260056020908152604080832093909416825291909152205460ff1690565b348015610ae657600080fd5b50610a00610af53660046147c2565b613798565b61043f610b08366004614e73565b613a5e565b348015610b1957600080fd5b506104c5610b283660046151e3565b613a9b565b61043f610b3b366004614e73565b613b55565b348015610b4c57600080fd5b50610497610b5b366004614e73565b63389a75e1600c908152600091909152602090205490565b6000610b7e82613b7c565b92915050565b606060008054610b9390615268565b80601f0160208091040260200160405190810160405280929190818152602001828054610bbf90615268565b8015610c0c5780601f10610be157610100808354040283529160200191610c0c565b820191906000526020600020905b815481529060010190602001808311610bef57829003601f168201915b5050505050905090565b6000610c2182613ba1565b506000908152600460205260409020546001600160a01b031690565b6000610c48826122d6565b9050806001600160a01b0316836001600160a01b031603610cba5760405162461bcd60e51b815260206004820152602160248201527f4552433732313a20617070726f76616c20746f2063757272656e74206f776e656044820152603960f91b60648201526084015b60405180910390fd5b336001600160a01b0382161480610cd65750610cd68133610aac565b610d485760405162461bcd60e51b815260206004820152603e60248201527f4552433732313a20617070726f76652063616c6c6572206973206e6f7420746f60448201527f6b656e206f776e6572206e6f7220617070726f76656420666f7220616c6c00006064820152608401610cb1565b610d528383613c00565b505050565b6060806060836101400151610dac576040518060200160405280600081525060405180602001604052806000815250604051806040016040528060028152602001617b7d60f01b815250925092509250610e79565b835115610dca578351610dc190848385613a9b565b91945090925090505b602084015115610ded57610de48460200151848385613a9b565b91945090925090505b60c084015115610e1057610e078460c00151848385613a9b565b91945090925090505b60a084015115610e3357610e2a8460a00151848385613a9b565b91945090925090505b608084015115610e5657610e4d8460800151848385613a9b565b91945090925090505b606084015115610e7957610e708460600151848385613a9b565b91945090925090505b9193909250565b610e88614687565b6000828152600a6020908152604091829020825160e08101845281548152600182015492810192909252600281015460ff9081161515938301939093526003810154606083015260048101546001600160a01b03166080830152600581015460a08301526006808201549293919260c08501921690811115610f0c57610f0c614b70565b6006811115610f1d57610f1d614b70565b90525092915050565b60606000604051806102000160405280604051806040016040528060018152602001600360fc1b8152508152602001604051806040016040528060018152602001603160f81b8152508152602001604051806040016040528060018152602001601960f91b8152508152602001604051806040016040528060018152602001603360f81b8152508152602001604051806040016040528060018152602001600d60fa1b8152508152602001604051806040016040528060018152602001603560f81b8152508152602001604051806040016040528060018152602001601b60f91b8152508152602001604051806040016040528060018152602001603760f81b8152508152602001604051806040016040528060018152602001600760fb1b8152508152602001604051806040016040528060018152602001603960f81b8152508152602001604051806040016040528060018152602001606160f81b8152508152602001604051806040016040528060018152602001603160f91b8152508152602001604051806040016040528060018152602001606360f81b8152508152602001604051806040016040528060018152602001601960fa1b8152508152602001604051806040016040528060018152602001606560f81b8152508152602001604051806040016040528060018152602001603360f91b81525081525090506000604051806103c00160405280604051806040016040528060018152602001600360fc1b8152508152602001604051806040016040528060018152602001603160f81b8152508152602001604051806040016040528060018152602001601960f91b8152508152602001604051806040016040528060018152602001603360f81b8152508152602001604051806040016040528060018152602001600d60fa1b8152508152602001604051806040016040528060018152602001603560f81b8152508152602001604051806040016040528060018152602001601b60f91b8152508152602001604051806040016040528060018152602001603760f81b8152508152602001604051806040016040528060018152602001600760fb1b8152508152602001604051806040016040528060018152602001603960f81b815250815260200160405180604001604052806002815260200161031360f41b815250815260200160405180604001604052806002815260200161313160f01b815250815260200160405180604001604052806002815260200161189960f11b815250815260200160405180604001604052806002815260200161313360f01b8152508152602001604051806040016040528060028152602001610c4d60f21b815250815260200160405180604001604052806002815260200161313560f01b815250815260200160405180604001604052806002815260200161189b60f11b815250815260200160405180604001604052806002815260200161313760f01b815250815260200160405180604001604052806002815260200161062760f31b815250815260200160405180604001604052806002815260200161313960f01b815250815260200160405180604001604052806002815260200161032360f41b815250815260200160405180604001604052806002815260200161323160f01b815250815260200160405180604001604052806002815260200161191960f11b815250815260200160405180604001604052806002815260200161323360f01b8152508152602001604051806040016040528060028152602001610c8d60f21b815250815260200160405180604001604052806002815260200161323560f01b815250815260200160405180604001604052806002815260200161191b60f11b815250815260200160405180604001604052806002815260200161323760f01b815250815260200160405180604001604052806002815260200161064760f31b815250815260200160405180604001604052806002815260200161323960f01b815250815250905060005b61119481101561176757600060f81b85828151811061150e5761150e61529c565b01602001516001600160f81b0319161115611755576000601e6115326005846152de565b61153c91906152f2565b90506000601e61154d6005856152de565b61155791906152de565b905060008560048961156a876002615306565b8151811061157a5761157a61529c565b016020015160f81c901c60ff16601081106115975761159761529c565b602002015186896115a9876002615306565b815181106115b9576115b961529c565b60209101015160f81c600f16601081106115d5576115d561529c565b60200201518760048b6115e9896003615306565b815181106115f9576115f961529c565b016020015160f81c901c60ff16601081106116165761161661529c565b6020020151888b611628896003615306565b815181106116385761163861529c565b60209101015160f81c600f16601081106116545761165461529c565b60200201518960048d6116678b83615306565b815181106116775761167761529c565b016020015160f81c901c60ff16601081106116945761169461529c565b60200201518a8d6116a68b6004615306565b815181106116b6576116b661529c565b60209101015160f81c600f16601081106116d2576116d261529c565b60200201516040516020016116ec96959493929190615319565b6040516020818303038152906040529050868584601e81106117105761171061529c565b60200201518684601e81106117275761172761529c565b6020020151836040516020016117409493929190615398565b60405160208183030381529060405296505050505b611760600582615306565b90506114ed565b505050919050565b600b546000908152600c602052604090208054600160c01b900460ff1615806117c757508054600160c81b900460ff161580156117c757506117b361010043615452565b8154600160801b90046001600160401b0316105b15611812576117d7436032615306565b815460ff60c01b196001600160401b0392909216600160801b029190911668ffffffffffffffffff60801b1990911617600160c01b17815550565b8054600160801b90046001600160401b031643111561194857805460408051600160801b9092046001600160401b031640602083015244908201526001600160801b03906060016040516020818303038152906040528051906020012060001c61187c91906152f2565b8154600160c81b6001600160801b039290921679ff000000000000000000ffffffffffffffffffffffffffffffff199091161717808255600b54604051600160801b9092046001600160401b0316917f78611aecfda8d341359c248df527c95aef93d446c92bb928b2a81b7abcb1d8d990600090a3604080516000815260001960208201527f6bd5c950a8d8df17f772f5af37cb3655737899cbf903264b9795592da439661c910160405180910390a1600b805460009061193c90615465565b9091555061194861176f565b50565b6119553382613c6e565b6119715760405162461bcd60e51b8152600401610cb19061547e565b610d52838383613ced565b6060806060846040015180156119925750600084115b15611b7d5760a085018051600090815260116020526040902090516119b690612e90565b60028201546040516301be83d160e11b8152919550611ad29173__$4987fe9f4e800c5c4c1535f64ed232842a$__9163037d07a2916119fb9160ff16906004016151a7565b600060405180830381865af4158015611a18573d6000803e3d6000fd5b505050506040513d6000823e601f3d908101601f19168201604052611a4091908101906154cc565b826001018054611a4f90615268565b80601f0160208091040260200160405190810160405280929190818152602001828054611a7b90615268565b8015611ac85780601f10611a9d57610100808354040283529160200191611ac8565b820191906000526020600020905b815481529060010190602001808311611aab57829003601f168201915b5050505050613e94565b60a08701516000908152601160205260409020600501805491935090611af790615268565b80601f0160208091040260200160405190810160405280929190818152602001828054611b2390615268565b8015611b705780601f10611b4557610100808354040283529160200191611b70565b820191906000526020600020905b815481529060010190602001808311611b5357829003601f168201915b5050505050925050611bd3565b6040518060400160405280600b81526020016a1e39bb339f1e17b9bb339f60a91b8152509250604051806040016040528060028152602001617b7d60f01b81525090506040518060200160405280600081525091505b9250925092565b60006202a3006001600160401b03164201905063389a75e1600c5233600052806020600c2055337fdbf36a107da19e49527a7176a1babf963b4b0ff8cde35ee35d6cd8f1f9ac7e1d600080a250565b6000611c3483612336565b8210611c965760405162461bcd60e51b815260206004820152602b60248201527f455243373231456e756d657261626c653a206f776e657220696e646578206f7560448201526a74206f6620626f756e647360a81b6064820152608401610cb1565b506001600160a01b03919091166000908152600660209081526040808320938352929052205490565b60608083604001518015611cd35750600083115b15611d475760a084015160009081526011602052604090819020600281015491516301be83d160e11b81529091611d309173__$4987fe9f4e800c5c4c1535f64ed232842a$__9163037d07a2916119fb9160ff16906004016151a7565b9150611d3f8560a00151612e90565b925050611d8b565b604051806040016040528060028152602001617b7d60f01b81525090506040518060400160405280600b81526020016a1e39bb339f1e17b9bb339f60a91b81525091505b9250929050565b600082815260116020908152604090912082518155908201518291906001820190611dbd9082615589565b50604082015160028201805460ff19166001836006811115611de157611de1614b70565b021790555060608201516003820190611dfa9082615589565b5060808201516004820190611e0f9082615589565b5060a08201516005820190611e249082615589565b5060c09190910151600690910180546001600160a01b0319166001600160a01b039092169190911790555050565b6000611e5c61176f565b6000611e6760085490565b611e72906001615306565b9050611e7e8382613ec0565b604080516000815260001960208201527f6bd5c950a8d8df17f772f5af37cb3655737899cbf903264b9795592da439661c910160405180910390a192915050565b6000828152600a602090815260409182902083518155908301516001808301919091559183015160028201805491151560ff199283161790556060840151600383015560808401516004830180546001600160a01b039092166001600160a01b031990921691909117905560a0840151600583015560c0840151600680840180548796939491939116918490811115611f5a57611f5a614b70565b021790555050505050565b610d5283838360405180602001604052806000815250613069565b60606000611f8d83612336565b90506000816001600160401b03811115611fa957611fa96148ca565b604051908082528060200260200182016040528015611fd2578160200160208202803683370190505b50905060005b8281101561200f57611fea8582611c29565b828281518110611ffc57611ffc61529c565b6020908102919091010152600101611fd8565b509392505050565b600061202260085490565b82106120855760405162461bcd60e51b815260206004820152602c60248201527f455243373231456e756d657261626c653a20676c6f62616c20696e646578206f60448201526b7574206f6620626f756e647360a01b6064820152608401610cb1565b600882815481106120985761209861529c565b90600052602060002001549050919050565b600d805481906120b990615268565b80601f01602080910402602001604051908101604052809291908181526020018280546120e590615268565b80156121325780601f1061210757610100808354040283529160200191612132565b820191906000526020600020905b81548152906001019060200180831161211557829003601f168201915b50505050509080600101805461214790615268565b80601f016020809104026020016040519081016040528092919081815260200182805461217390615268565b80156121c05780601f10612195576101008083540402835291602001916121c0565b820191906000526020600020905b8154815290600101906020018083116121a357829003601f168201915b5050505050905082565b63389a75e1600c523360005260006020600c2055337ffa7b8eab7da67f412cc9575ed43464468f9bfbae89d1675917346ca6d8fe3c92600080a2565b606060006122a0600d600001805461221d90615268565b80601f016020809104026020016040519081016040528092919081815260200182805461224990615268565b80156122965780601f1061226b57610100808354040283529160200191612296565b820191906000526020600020905b81548152906001019060200180831161227957829003601f168201915b505050505061263d565b905060006122ad82610f26565b9050806040516020016122c09190615648565b6040516020818303038152906040529250505090565b6000818152600260205260408120546001600160a01b031680610b7e5760405162461bcd60e51b8152602060048201526018602482015277115490cdcc8c4e881a5b9d985b1a59081d1bdad95b88125160421b6044820152606401610cb1565b60006001600160a01b0382166123a05760405162461bcd60e51b815260206004820152602960248201527f4552433732313a2061646472657373207a65726f206973206e6f7420612076616044820152683634b21037bbb732b960b91b6064820152608401610cb1565b506001600160a01b031660009081526003602052604090205490565b6123c4613eda565b6123ce6000613ef5565b565b601160205260009081526040902080546001820180549192916123f290615268565b80601f016020809104026020016040519081016040528092919081815260200182805461241e90615268565b801561246b5780601f106124405761010080835404028352916020019161246b565b820191906000526020600020905b81548152906001019060200180831161244e57829003601f168201915b5050506002840154600385018054949560ff90921694919350915061248f90615268565b80601f01602080910402602001604051908101604052809291908181526020018280546124bb90615268565b80156125085780601f106124dd57610100808354040283529160200191612508565b820191906000526020600020905b8154815290600101906020018083116124eb57829003601f168201915b50505050509080600401805461251d90615268565b80601f016020809104026020016040519081016040528092919081815260200182805461254990615268565b80156125965780601f1061256b57610100808354040283529160200191612596565b820191906000526020600020905b81548152906001019060200180831161257957829003601f168201915b5050505050908060050180546125ab90615268565b80601f01602080910402602001604051908101604052809291908181526020018280546125d790615268565b80156126245780601f106125f957610100808354040283529160200191612624565b820191906000526020600020905b81548152906001019060200180831161260757829003601f168201915b505050600690930154919250506001600160a01b031687565b8051604080516111948082526111c08201909252606092916000919060208201818036833701905050905060006126756005846152de565b905060005b8181101561288557600061268f8260056156b2565b905060008782815181106126a5576126a561529c565b016020015160f81c90506000886126bd846001615306565b815181106126cd576126cd61529c565b016020015160f81c9050600060ff83166126e883601e6156b2565b6126f29190615306565b6126fd9060056156b2565b90508984815181106127115761271161529c565b602001015160f81c60f81b87828151811061272e5761272e61529c565b60200101906001600160f81b031916908160001a90535089846001018151811061275a5761275a61529c565b602001015160f81c60f81b87826001018151811061277a5761277a61529c565b60200101906001600160f81b031916908160001a9053508984600201815181106127a6576127a661529c565b602001015160f81c60f81b8782600201815181106127c6576127c661529c565b60200101906001600160f81b031916908160001a9053508984600301815181106127f2576127f261529c565b602001015160f81c60f81b8782600301815181106128125761281261529c565b60200101906001600160f81b031916908160001a90535089846004018151811061283e5761283e61529c565b602001015160f81c60f81b87826004018151811061285e5761285e61529c565b60200101906001600160f81b031916908160001a905350506001909301925061267a915050565b5090949350505050565b606060018054610b9390615268565b6060808261014001516128d8575050604080516020808201835260008252825180840190935260028352617b7d60f01b9083015292909150565b8251156128f25782516128ec908383613414565b90925090505b6020830151156129115761290b83602001518383613414565b90925090505b6040830151156129305761292a83604001518383613414565b90925090505b60608301511561294f5761294983606001518383613414565b90925090505b60808301511561296e5761296883608001518383613414565b90925090505b60a08301511561298d576129878360a001518383613414565b90925090505b60c0830151156129ac576129a68360c001518383613414565b90925090505b915091565b60608060608060006129c1612206565b905060006129ce87612eec565b9050806040015115612d5f576000601160008360a0015181526020019081526020016000206040518060e001604052908160008201548152602001600182018054612a1890615268565b80601f0160208091040260200160405190810160405280929190818152602001828054612a4490615268565b8015612a915780601f10612a6657610100808354040283529160200191612a91565b820191906000526020600020905b815481529060010190602001808311612a7457829003601f168201915b5050509183525050600282015460209091019060ff166006811115612ab857612ab8614b70565b6006811115612ac957612ac9614b70565b8152602001600382018054612add90615268565b80601f0160208091040260200160405190810160405280929190818152602001828054612b0990615268565b8015612b565780601f10612b2b57610100808354040283529160200191612b56565b820191906000526020600020905b815481529060010190602001808311612b3957829003601f168201915b50505050508152602001600482018054612b6f90615268565b80601f0160208091040260200160405190810160405280929190818152602001828054612b9b90615268565b8015612be85780601f10612bbd57610100808354040283529160200191612be8565b820191906000526020600020905b815481529060010190602001808311612bcb57829003601f168201915b50505050508152602001600582018054612c0190615268565b80601f0160208091040260200160405190810160405280929190818152602001828054612c2d90615268565b8015612c7a5780601f10612c4f57610100808354040283529160200191612c7a565b820191906000526020600020905b815481529060010190602001808311612c5d57829003601f168201915b5050509183525050600691909101546001600160a01b031660209091015260a0830151909150612ca990612e90565b9450612d3873__$4987fe9f4e800c5c4c1535f64ed232842a$__63037d07a28460c001516040518263ffffffff1660e01b8152600401612ce991906151a7565b600060405180830381865af4158015612d06573d6000803e3d6000fd5b505050506040513d6000823e601f3d908101601f19168201604052612d2e91908101906154cc565b8260200151613e94565b604051602001612d4891906156c9565b604051602081830303815290604052935050612db0565b6040518060400160405280600f81526020016e2261747472696275746573223a5b5d60881b81525092506040518060400160405280600b81526020016a1e39bb339f1e17b9bb339f60a91b81525093505b60405180610100016040528060d28152602001615b4060d291398285604051602001612dde9392919061570b565b60405160208183030381529060405294506000612dfa86613f33565b604051602001612e0a919061575f565b60405160208183030381529060405290506000612e2689613f41565b8583604051602001612e3a939291906157bb565b6040516020818303038152906040529050612e5481613f33565b604051602001612e649190615876565b604051602081830303815290604052975050505050505050919050565b612e8c338383613f85565b5050565b6000818152601160205260408120600401805460609291612eb49161221d90615268565b90506000612ec182610f26565b905080604051602001612ed491906158bb565b60405160208183030381529060405292505050919050565b612ef4614687565b6000828152600a60209081526040808320815160e08101835281548152600182015493810193909352600281015460ff9081161515928401929092526003810154606084015260048101546001600160a01b03166080840152600581015460a0840152600680820154919260c08501921690811115612f7557612f75614b70565b6006811115612f8657612f86614b70565b9052506020808201516000908152600c909152604090205460808201519192506001600160801b0316906001600160a01b038116158015612fc957506060830151155b15612fea5760405163082d451d60e01b815260048101869052602401610cb1565b6013546040516355a1333960e11b81526001600160a01b0383169163ab4266729161301f9160ff169087908790600401615900565b60e060405180830381865afa15801561303c573d6000803e3d6000fd5b505050506040513d601f19601f82011682018060405250810190613060919061592f565b95945050505050565b6130733383613c6e565b61308f5760405162461bcd60e51b8152600401610cb19061547e565b61309b84848484614053565b50505050565b606060006130ae83612eec565b90508060400151156130ce576130c78160a00151612e90565b91506130f5565b6040518060400160405280600b81526020016a1e39bb339f1e17b9bb339f60a91b81525091505b50919050565b6000818152600260205260409020546060906001600160a01b031661313357604051632df0e24560e21b815260040160405180910390fd5b610b7e826129b1565b6131446146df565b600061314f83612eec565b9050601160008260a0015181526020019081526020016000206040518060e00160405290816000820154815260200160018201805461318d90615268565b80601f01602080910402602001604051908101604052809291908181526020018280546131b990615268565b80156132065780601f106131db57610100808354040283529160200191613206565b820191906000526020600020905b8154815290600101906020018083116131e957829003601f168201915b5050509183525050600282015460209091019060ff16600681111561322d5761322d614b70565b600681111561323e5761323e614b70565b815260200160038201805461325290615268565b80601f016020809104026020016040519081016040528092919081815260200182805461327e90615268565b80156132cb5780601f106132a0576101008083540402835291602001916132cb565b820191906000526020600020905b8154815290600101906020018083116132ae57829003601f168201915b505050505081526020016004820180546132e490615268565b80601f016020809104026020016040519081016040528092919081815260200182805461331090615268565b801561335d5780601f106133325761010080835404028352916020019161335d565b820191906000526020600020905b81548152906001019060200180831161334057829003601f168201915b5050505050815260200160058201805461337690615268565b80601f01602080910402602001604051908101604052809291908181526020018280546133a290615268565b80156133ef5780601f106133c4576101008083540402835291602001916133ef565b820191906000526020600020905b8154815290600101906020018083116133d257829003601f168201915b5050509183525050600691909101546001600160a01b03166020909101529392505050565b606080606080600061342588612eec565b90506134318189611cbf565b875190945090925060000361344b57819450829350613494565b868260405160200161345e9291906159ab565b604051602081830303815290604052945085836040516020016134829291906159da565b60405160208183030381529060405293505b505050935093915050565b6134a7613eda565b600d6134b38382615589565b50600e610d528282615589565b6000806134cc83612eec565b90506000601160008360a0015181526020019081526020016000206040518060e00160405290816000820154815260200160018201805461350c90615268565b80601f016020809104026020016040519081016040528092919081815260200182805461353890615268565b80156135855780601f1061355a57610100808354040283529160200191613585565b820191906000526020600020905b81548152906001019060200180831161356857829003601f168201915b5050509183525050600282015460209091019060ff1660068111156135ac576135ac614b70565b60068111156135bd576135bd614b70565b81526020016003820180546135d190615268565b80601f01602080910402602001604051908101604052809291908181526020018280546135fd90615268565b801561364a5780601f1061361f5761010080835404028352916020019161364a565b820191906000526020600020905b81548152906001019060200180831161362d57829003601f168201915b5050505050815260200160048201805461366390615268565b80601f016020809104026020016040519081016040528092919081815260200182805461368f90615268565b80156136dc5780601f106136b1576101008083540402835291602001916136dc565b820191906000526020600020905b8154815290600101906020018083116136bf57829003601f168201915b505050505081526020016005820180546136f590615268565b80601f016020809104026020016040519081016040528092919081815260200182805461372190615268565b801561376e5780601f106137435761010080835404028352916020019161376e565b820191906000526020600020905b81548152906001019060200180831161375157829003601f168201915b5050509183525050600691909101546001600160a01b031660209091015260400151949350505050565b6137a06146df565b601160008381526020019081526020016000206040518060e0016040529081600082015481526020016001820180546137d890615268565b80601f016020809104026020016040519081016040528092919081815260200182805461380490615268565b80156138515780601f1061382657610100808354040283529160200191613851565b820191906000526020600020905b81548152906001019060200180831161383457829003601f168201915b5050509183525050600282015460209091019060ff16600681111561387857613878614b70565b600681111561388957613889614b70565b815260200160038201805461389d90615268565b80601f01602080910402602001604051908101604052809291908181526020018280546138c990615268565b80156139165780601f106138eb57610100808354040283529160200191613916565b820191906000526020600020905b8154815290600101906020018083116138f957829003601f168201915b5050505050815260200160048201805461392f90615268565b80601f016020809104026020016040519081016040528092919081815260200182805461395b90615268565b80156139a85780601f1061397d576101008083540402835291602001916139a8565b820191906000526020600020905b81548152906001019060200180831161398b57829003601f168201915b505050505081526020016005820180546139c190615268565b80601f01602080910402602001604051908101604052809291908181526020018280546139ed90615268565b8015613a3a5780601f10613a0f57610100808354040283529160200191613a3a565b820191906000526020600020905b815481529060010190602001808311613a1d57829003601f168201915b5050509183525050600691909101546001600160a01b031660209091015292915050565b613a66613eda565b63389a75e1600c52806000526020600c208054421115613a8e57636f5e88186000526004601cfd5b6000905561194881613ef5565b6060806060806060806000613aaf8b612eec565b9050613abb818c61197c565b8b519096509194509250600003613ada57829650839550819450613b47565b8983604051602001613aed9291906159ab565b60405160208183030381529060405296508884604051602001613b119291906159da565b60405160208183030381529060405295508782604051602001613b359291906159ab565b60405160208183030381529060405294505b505050509450945094915050565b613b5d613eda565b8060601b613b7357637448fbae6000526004601cfd5b61194881613ef5565b60006001600160e01b0319821663780e9d6360e01b1480610b7e5750610b7e82614086565b6000818152600260205260409020546001600160a01b03166119485760405162461bcd60e51b8152602060048201526018602482015277115490cdcc8c4e881a5b9d985b1a59081d1bdad95b88125160421b6044820152606401610cb1565b600081815260046020526040902080546001600160a01b0319166001600160a01b0384169081179091558190613c35826122d6565b6001600160a01b03167f8c5be1e5ebec7d5bd14f71427d1e84f3dd0314c0f7b2291e5b200ac8c7c3b92560405160405180910390a45050565b600080613c7a836122d6565b9050806001600160a01b0316846001600160a01b03161480613cc157506001600160a01b0380821660009081526005602090815260408083209388168352929052205460ff165b80613ce55750836001600160a01b0316613cda84610c16565b6001600160a01b0316145b949350505050565b826001600160a01b0316613d00826122d6565b6001600160a01b031614613d645760405162461bcd60e51b815260206004820152602560248201527f4552433732313a207472616e736665722066726f6d20696e636f72726563742060448201526437bbb732b960d91b6064820152608401610cb1565b6001600160a01b038216613dc65760405162461bcd60e51b8152602060048201526024808201527f4552433732313a207472616e7366657220746f20746865207a65726f206164646044820152637265737360e01b6064820152608401610cb1565b613dd18383836140d6565b613ddc600082613c00565b6001600160a01b0383166000908152600360205260408120805460019290613e05908490615452565b90915550506001600160a01b0382166000908152600360205260408120805460019290613e33908490615306565b909155505060008181526002602052604080822080546001600160a01b0319166001600160a01b0386811691821790925591518493918716917fddf252ad1be2c89b69c2b068fc378daa952ba7f163c4a11628f55a4df523b3ef91a4505050565b60608282604051602001613ea9929190615a16565b604051602081830303815290604052905092915050565b612e8c82826040518060200160405280600081525061418e565b638b78c6d8195433146123ce576382b429006000526004601cfd5b638b78c6d81980546001600160a01b039092169182907f8be0079c531659141344cd1fd0a4f28419497f9722a3daafe3b4186f6b6457e0600080a355565b6060610b7e826000806141c1565b60606080604051019050602081016040526000815280600019835b928101926030600a8206018453600a900480613f5c575050819003601f19909101908152919050565b816001600160a01b0316836001600160a01b031603613fe65760405162461bcd60e51b815260206004820152601960248201527f4552433732313a20617070726f766520746f2063616c6c6572000000000000006044820152606401610cb1565b6001600160a01b03838116600081815260056020908152604080832094871680845294825291829020805460ff191686151590811790915591519182527f17307eab39ab6107e8899845ad3d59bd9653f200f220920489ca2b5937696c31910160405180910390a3505050565b61405e848484613ced565b61406a848484846142a8565b61309b5760405162461bcd60e51b8152600401610cb190615a87565b60006001600160e01b031982166380ac58cd60e01b14806140b757506001600160e01b03198216635b5e139f60e01b145b80610b7e57506301ffc9a760e01b6001600160e01b0319831614610b7e565b6001600160a01b0383166141315761412c81600880546000838152600960205260408120829055600182018355919091527ff3f7a9fe364faab93b216da50a3214154f22a0a2b415b23a84c8169e8b636ee30155565b614154565b816001600160a01b0316836001600160a01b0316146141545761415483826143a9565b6001600160a01b03821661416b57610d5281614446565b826001600160a01b0316826001600160a01b031614610d5257610d5282826144f5565b6141988383614539565b6141a560008484846142a8565b610d525760405162461bcd60e51b8152600401610cb190615a87565b60608351801561200f576003600282010460021b60405192507f4142434445464748494a4b4c4d4e4f505152535455565758595a616263646566601f526106708515027f6768696a6b6c6d6e6f707172737475767778797a303132333435363738392d5f18603f52602083018181015b6003880197508751603f8160121c1651600053603f81600c1c1651600153603f8160061c1651600253603f81165160035350600051825260048201915080821061423157602001604052613d3d60f01b60038406600204808303919091526000861515909102918290035290038252509392505050565b60006001600160a01b0384163b1561439e57604051630a85bd0160e11b81526001600160a01b0385169063150b7a02906142ec903390899088908890600401615ad9565b6020604051808303816000875af1925050508015614327575060408051601f3d908101601f1916820190925261432491810190615b0c565b60015b614384573d808015614355576040519150601f19603f3d011682016040523d82523d6000602084013e61435a565b606091505b50805160000361437c5760405162461bcd60e51b8152600401610cb190615a87565b805181602001fd5b6001600160e01b031916630a85bd0160e11b149050613ce5565b506001949350505050565b600060016143b684612336565b6143c09190615452565b600083815260076020526040902054909150808214614413576001600160a01b03841660009081526006602090815260408083208584528252808320548484528184208190558352600790915290208190555b5060009182526007602090815260408084208490556001600160a01b039094168352600681528383209183525290812055565b60085460009061445890600190615452565b600083815260096020526040812054600880549394509092849081106144805761448061529c565b9060005260206000200154905080600883815481106144a1576144a161529c565b60009182526020808320909101929092558281526009909152604080822084905585825281205560088054806144d9576144d9615b29565b6001900381819060005260206000200160009055905550505050565b600061450083612336565b6001600160a01b039093166000908152600660209081526040808320868452825280832085905593825260079052919091209190915550565b6001600160a01b03821661458f5760405162461bcd60e51b815260206004820181905260248201527f4552433732313a206d696e7420746f20746865207a65726f20616464726573736044820152606401610cb1565b6000818152600260205260409020546001600160a01b0316156145f45760405162461bcd60e51b815260206004820152601c60248201527f4552433732313a20746f6b656e20616c7265616479206d696e746564000000006044820152606401610cb1565b614600600083836140d6565b6001600160a01b0382166000908152600360205260408120805460019290614629908490615306565b909155505060008181526002602052604080822080546001600160a01b0319166001600160a01b03861690811790915590518392907fddf252ad1be2c89b69c2b068fc378daa952ba7f163c4a11628f55a4df523b3ef908290a45050565b6040518060e0016040528060008152602001600081526020016000151581526020016000815260200160006001600160a01b0316815260200160008152602001600060068111156146da576146da614b70565b905290565b6040805160e0810182526000808252606060208301529091820190815260200160608152602001606081526020016060815260200160006001600160a01b031681525090565b6001600160e01b03198116811461194857600080fd5b60006020828403121561474d57600080fd5b813561475881614725565b9392505050565b60005b8381101561477a578181015183820152602001614762565b50506000910152565b6000815180845261479b81602086016020860161475f565b601f01601f19169290920160200192915050565b6020815260006147586020830184614783565b6000602082840312156147d457600080fd5b5035919050565b6001600160a01b038116811461194857600080fd5b80356147fb816147db565b919050565b6000806040838503121561481357600080fd5b823561481e816147db565b946020939093013593505050565b60008060008060006080868803121561484457600080fd5b853561484f816147db565b9450602086013561485f816147db565b93506040860135925060608601356001600160401b038082111561488257600080fd5b818801915088601f83011261489657600080fd5b8135818111156148a557600080fd5b8960208285010111156148b757600080fd5b9699959850939650602001949392505050565b634e487b7160e01b600052604160045260246000fd5b6040516101c081016001600160401b0381118282101715614903576149036148ca565b60405290565b60405160e081016001600160401b0381118282101715614903576149036148ca565b604051601f8201601f191681016001600160401b0381118282101715614953576149536148ca565b604052919050565b803563ffffffff811681146147fb57600080fd5b803561ffff811681146147fb57600080fd5b801515811461194857600080fd5b80356147fb81614981565b60006001600160401b038211156149b3576149b36148ca565b50601f01601f191660200190565b600082601f8301126149d257600080fd5b81356149e56149e08261499a565b61492b565b8181528460208386010111156149fa57600080fd5b816020850160208301376000918101602001919091529392505050565b600060208284031215614a2957600080fd5b81356001600160401b0380821115614a4057600080fd5b908301906101c08286031215614a5557600080fd5b614a5d6148e0565b823581526020830135602082015260408301356040820152606083013560608201526080830135608082015260a083013560a082015260c083013560c0820152614aa960e0840161495b565b60e0820152610100614abc81850161496f565b908201526101208381013590820152610140614ad981850161498f565b9082015261016083810135908201526101808084013583811115614afc57600080fd5b614b08888287016149c1565b8284015250506101a09150614b1e82840161498f565b91810191909152949350505050565b606081526000614b406060830186614783565b8281036020840152614b528186614783565b90508281036040840152614b668185614783565b9695505050505050565b634e487b7160e01b600052602160045260246000fd5b60078110614ba457634e487b7160e01b600052602160045260246000fd5b9052565b80518252602081015160208301526040810151151560408301526060810151606083015260018060a01b03608082015116608083015260a081015160a083015260c0810151610d5260c0840182614b86565b60e08101610b7e8284614ba8565b600060208284031215614c1a57600080fd5b81356001600160401b03811115614c3057600080fd5b613ce5848285016149c1565b600080600060608486031215614c5157600080fd5b8335614c5c816147db565b92506020840135614c6c816147db565b929592945050506040919091013590565b6007811061194857600080fd5b80356147fb81614c7d565b600060e08284031215614ca757600080fd5b614caf614909565b905081358152602082013560208201526040820135614ccd81614981565b6040820152606082810135908201526080820135614cea816147db565b608082015260a0828101359082015260c0820135614d0781614c7d565b60c082015292915050565b6000806101008385031215614d2657600080fd5b614d308484614c95565b9460e0939093013593505050565b604081526000614d516040830185614783565b82810360208401526130608185614783565b60008060408385031215614d7657600080fd5b8235915060208301356001600160401b0380821115614d9457600080fd5b9084019060e08287031215614da857600080fd5b614db0614909565b82358152602083013582811115614dc657600080fd5b614dd2888286016149c1565b602083015250614de460408401614c8a565b6040820152606083013582811115614dfb57600080fd5b614e07888286016149c1565b606083015250608083013582811115614e1f57600080fd5b614e2b888286016149c1565b60808301525060a083013582811115614e4357600080fd5b614e4f888286016149c1565b60a083015250614e6160c084016147f0565b60c08201528093505050509250929050565b600060208284031215614e8557600080fd5b8135614758816147db565b6000806101008385031215614ea457600080fd5b82359150614eb58460208501614c95565b90509250929050565b6020808252825182820181905260009190848201906040850190845b81811015614ef657835183529284019291840191600101614eda565b50909695505050505050565b87815260e060208201526000614f1b60e0830189614783565b614f286040840189614b86565b8281036060840152614f3a8188614783565b90508281036080840152614f4e8187614783565b905082810360a0840152614f628186614783565b91505060018060a01b03831660c083015298975050505050505050565b60008060408385031215614f9257600080fd5b8235614f9d816147db565b91506020830135614fad81614981565b809150509250929050565b60008060008060808587031215614fce57600080fd5b8435614fd9816147db565b93506020850135614fe9816147db565b92506040850135915060608501356001600160401b0381111561500b57600080fd5b615017878288016149c1565b91505092959194509250565b60208152815160208201526000602083015160e0604084015261504a610100840182614783565b9050604084015161505e6060850182614b86565b506060840151601f198085840301608086015261507b8383614783565b925060808601519150808584030160a08601526150988383614783565b925060a08601519150808584030160c0860152506150b68282614783565b60c095909501516001600160a01b031660e09490940193909352509192915050565b6000806000606084860312156150ed57600080fd5b8335925060208401356001600160401b038082111561510b57600080fd5b615117878388016149c1565b9350604086013591508082111561512d57600080fd5b5061513a868287016149c1565b9150509250925092565b6000806040838503121561515757600080fd5b82356001600160401b038082111561516e57600080fd5b61517a868387016149c1565b9350602085013591508082111561519057600080fd5b5061519d858286016149c1565b9150509250929050565b60208101610b7e8284614b86565b600080604083850312156151c857600080fd5b82356151d3816147db565b91506020830135614fad816147db565b600080600080608085870312156151f957600080fd5b8435935060208501356001600160401b038082111561521757600080fd5b615223888389016149c1565b9450604087013591508082111561523957600080fd5b615245888389016149c1565b9350606087013591508082111561525b57600080fd5b50615017878288016149c1565b600181811c9082168061527c57607f821691505b6020821081036130f557634e487b7160e01b600052602260045260246000fd5b634e487b7160e01b600052603260045260246000fd5b634e487b7160e01b600052601260045260246000fd5b634e487b7160e01b600052601160045260246000fd5b6000826152ed576152ed6152b2565b500490565b600082615301576153016152b2565b500690565b80820180821115610b7e57610b7e6152c8565b60008751602061532c8285838d0161475f565b88519184019161533f8184848d0161475f565b88519201916153518184848c0161475f565b87519201916153638184848b0161475f565b86519201916153758184848a0161475f565b8551920191615387818484890161475f565b919091019998505050505050505050565b600085516153aa818460208a0161475f565b681e3932b1ba103c1e9160b91b90830190815285516153d0816009840160208a0161475f565b6411103c9e9160d91b6009929091019182015284516153f681600e84016020890161475f565b7f222077696474683d223122206865696768743d2231222066696c6c3d22230000600e9290910191820152835161543481602c84016020880161475f565b6211179f60e91b602c9290910191820152602f019695505050505050565b81810381811115610b7e57610b7e6152c8565b600060018201615477576154776152c8565b5060010190565b6020808252602e908201527f4552433732313a2063616c6c6572206973206e6f7420746f6b656e206f776e6560408201526d1c881b9bdc88185c1c1c9bdd995960921b606082015260800190565b6000602082840312156154de57600080fd5b81516001600160401b038111156154f457600080fd5b8201601f8101841361550557600080fd5b80516155136149e08261499a565b81815285602083850101111561552857600080fd5b61306082602083016020860161475f565b601f821115610d52576000816000526020600020601f850160051c810160208610156155625750805b601f850160051c820191505b818110156155815782815560010161556e565b505050505050565b81516001600160401b038111156155a2576155a26148ca565b6155b6816155b08454615268565b84615539565b602080601f8311600181146155eb57600084156155d35750858301515b600019600386901b1c1916600185901b178555615581565b600085815260208120601f198616915b8281101561561a578886015182559484019460019091019084016155fb565b50858210156156385787850151600019600388901b60f8161c191681555b5050505050600190811b01905550565b7f3c672069643d2267686f73742220636c6173733d226722207374796c653d226f81526d3830b1b4ba3c9d101a98129d911f60911b60208201526000825161569781602e85016020870161475f565b631e17b39f60e11b602e939091019283015250603201919050565b8082028115828204841417610b7e57610b7e6152c8565b6d2261747472696275746573223a5b60901b815281516000906156f381600e85016020870161475f565b605d60f81b600e939091019283015250600f01919050565b6000845161571d81846020890161475f565b84519083019061573181836020890161475f565b845191019061574481836020880161475f565b651e17b9bb339f60d11b910190815260060195945050505050565b7f22696d616765223a22646174613a696d6167652f7376672b786d6c3b626173658152620d8d0b60ea1b6020820152600082516157a381602385016020870161475f565b601160f91b6023939091019283015250602401919050565b757b226e616d65223a225065746572205472616974202360501b815283516000906157ed81601685016020890161475f565b7f222c226465736372697074696f6e223a2254686973206973206a757374206120601691840191820152651d195cdd088b60d21b6036820152845161583981603c84016020890161475f565b600b60fa1b603c9290910191820152835161585b81603d84016020880161475f565b607d60f81b603d9290910191820152603e0195945050505050565b7f646174613a6170706c69636174696f6e2f6a736f6e3b6261736536342c0000008152600082516158ae81601d85016020870161475f565b91909101601d0192915050565b6d1e339034b21e912a3930b4ba111f60911b815281516000906158e581600e85016020870161475f565b631e17b39f60e11b600e939091019283015250601201919050565b831515815261012081016159176020830185614ba8565b6001600160801b038316610100830152949350505050565b600060e0828403121561594157600080fd5b615949614909565b8251815260208301516020820152604083015161596581614981565b6040820152606083810151908201526080830151615982816147db565b608082015260a0838101519082015260c083015161599f81614c7d565b60c08201529392505050565b600083516159bd81846020880161475f565b8351908301906159d181836020880161475f565b01949350505050565b600083516159ec81846020880161475f565b600b60fa1b9083019081528351615a0a81600184016020880161475f565b01600101949350505050565b6e3d913a3930b4ba2fba3cb832911d1160891b81528251600090615a4181600f85016020880161475f565b6a1116113b30b63ab2911d1160a91b600f918401918201528351615a6c81601a84016020880161475f565b61227d60f01b601a9290910191820152601c01949350505050565b60208082526032908201527f4552433732313a207472616e7366657220746f206e6f6e20455243373231526560408201527131b2b4bb32b91034b6b83632b6b2b73a32b960711b606082015260800190565b6001600160a01b0385811682528416602082015260408101839052608060608201819052600090614b6690830184614783565b600060208284031215615b1e57600080fd5b815161475881614725565b634e487b7160e01b600052603160045260246000fdfe3c7376672073686170652d72656e646572696e673d2263726973704564676573222076696577426f783d22302030203330203330222066696c6c3d226e6f6e652220786d6c6e733d22687474703a2f2f7777772e77332e6f72672f323030302f737667223e3c7374796c653e726563747b77696474683a3170783b206865696768743a203170783b7d202e62677b77696474683a333070783b206865696768743a20333070783b7d203c2f7374796c653e3c7265637420636c6173733d226267222066696c6c3d2223304436453944222f3ea26469706673582212206f6e77ce1d3dd688ea63bd8860d5d302c720709de4ae7390af2a5c001feb0e0564736f6c63430008160033","linkReferences":{"src/TraitCategory.sol":{"TraitCategory":[{"start":7290,"length":20},{"start":8111,"length":20},{"start":12121,"length":20}]}}},"methodIdentifiers":{"approve(address,uint256)":"095ea7b3","balanceOf(address)":"70a08231","callGetSVGZmapAndMetadataTrait(uint256,string,string,bytes)":"f1271942","callGetSvgAndMetadataTrait(uint256,string,string)":"e08714a6","cancelOwnershipHandover()":"54d1f13d","completeOwnershipHandover(address)":"f04e283e","createSvgFromPixels(bytes)":"21b12c23","getApproved(uint256)":"081812fc","getCurrentEpoch()":"b97dd9e2","getEpoch()":"757991a8","getEpochData(uint256)":"859e7d32","getGhostSvg()":"5c1ef256","getSVGZmapAndMetadataTrait((uint256,uint256,bool,uint256,address,uint256,uint8),uint256)":"246b58a3","getStoredTraitForTokenId(uint256)":"208c25a3","getSvgAndMetadata((uint256,uint256,uint256,uint256,uint256,uint256,uint256,uint32,uint16,uint256,bool,uint256,string,bool))":"a0d97fce","getSvgAndMetadataTrait((uint256,uint256,bool,uint256,address,uint256,uint8),uint256)":"356c8624","getSvgForTokenId(uint256)":"c7791531","getSvgZmapsAndMetadata((uint256,uint256,uint256,uint256,uint256,uint256,uint256,uint32,uint16,uint256,bool,uint256,string,bool))":"1bcd52ca","getTrait(uint256)":"acb586df","getTraitImage(bytes)":"898aa117","getTraitImageSvg(uint256)":"a5e2912a","getTraitIndexToMetadata(uint256)":"ea139544","getTraitMetadata(uint256)":"d1bfc2af","getTraitType(uint256)":"e8a1268d","ghost()":"51dc7189","isApprovedForAll(address,address)":"e985e9c5","isMinter(address)":"aa271e1a","minter()":"07546172","name()":"06fdde03","onERC721Received(address,address,uint256,bytes)":"150b7a02","owner()":"8da5cb5b","ownerOf(uint256)":"6352211e","ownershipHandoverExpiresAt(address)":"fee81cf4","renderAsDataUri(uint256)":"a1d62680","renounceOwnership()":"715018a6","requestOwnershipHandover()":"25692962","resolveEpochIfNecessary()":"239ffa68","safeMint(address)":"40d097c3","safeTransferFrom(address,address,uint256)":"42842e0e","safeTransferFrom(address,address,uint256,bytes)":"b88d4fde","setApprovalForAll(address,bool)":"a22cb465","setGhostMaps(bytes,bytes)":"e1defed9","setTraitForTokenId(uint256,(uint256,uint256,bool,uint256,address,uint256,uint8))":"415273f5","setTraitIndexToMetadata(uint256,(uint256,string,uint8,string,bytes,bytes,address))":"3fe9cfab","signer()":"238ac933","supportsInterface(bytes4)":"01ffc9a7","symbol()":"95d89b41","tokenByIndex(uint256)":"4f6ccce7","tokenOfOwnerByIndex(address,uint256)":"2f745c59","tokenURI(uint256)":"c87b56dd","totalSupply()":"18160ddd","traitIndexToMetadata(uint256)":"817a29a4","traitTokens()":"e14d026f","transferFrom(address,address,uint256)":"23b872dd","transferOwnership(address)":"f2fde38b","walletOfOwner(address)":"438b6300"},"id":39}