{"abi":[{"type":"constructor","inputs":[{"name":"localDeploy_","type":"bool","internalType":"bool"}],"stateMutability":"nonpayable"},{"type":"function","name":"approve","inputs":[{"name":"_operator","type":"address","internalType":"address"},{"name":"_tokenId","type":"uint256","internalType":"uint256"}],"outputs":[],"stateMutability":"nonpayable"},{"type":"function","name":"balanceOf","inputs":[{"name":"owner","type":"address","internalType":"address"}],"outputs":[{"name":"","type":"uint256","internalType":"uint256"}],"stateMutability":"view"},{"type":"function","name":"burn","inputs":[{"name":"tokenId","type":"uint256","internalType":"uint256"}],"outputs":[],"stateMutability":"nonpayable"},{"type":"function","name":"burnBatch","inputs":[{"name":"tokenIds","type":"uint256[]","internalType":"uint256[]"}],"outputs":[],"stateMutability":"nonpayable"},{"type":"function","name":"callGetSVGZmapAndMetadataTrait","inputs":[{"name":"_traitId","type":"uint256","internalType":"uint256"},{"name":"_traitsSvg","type":"string","internalType":"string"},{"name":"_traitsAttributes","type":"string","internalType":"string"},{"name":"_traitZMaps","type":"bytes","internalType":"bytes"}],"outputs":[{"name":"traitsSvg","type":"string","internalType":"string"},{"name":"traitsAttributes","type":"string","internalType":"string"},{"name":"traitZMaps","type":"bytes","internalType":"bytes"}],"stateMutability":"view"},{"type":"function","name":"callGetSvgAndMetadataTrait","inputs":[{"name":"_traitId","type":"uint256","internalType":"uint256"},{"name":"_traitsSvg","type":"string","internalType":"string"},{"name":"_traitsAttributes","type":"string","internalType":"string"}],"outputs":[{"name":"traitsSvg","type":"string","internalType":"string"},{"name":"traitsAttributes","type":"string","internalType":"string"}],"stateMutability":"view"},{"type":"function","name":"cancelOwnershipHandover","inputs":[],"outputs":[],"stateMutability":"payable"},{"type":"function","name":"completeOwnershipHandover","inputs":[{"name":"pendingOwner","type":"address","internalType":"address"}],"outputs":[],"stateMutability":"payable"},{"type":"function","name":"createSvgFromPixels","inputs":[{"name":"_pixels","type":"bytes","internalType":"bytes"}],"outputs":[{"name":"svgParts","type":"bytes","internalType":"bytes"}],"stateMutability":"view"},{"type":"function","name":"getApproved","inputs":[{"name":"tokenId","type":"uint256","internalType":"uint256"}],"outputs":[{"name":"","type":"address","internalType":"address"}],"stateMutability":"view"},{"type":"function","name":"getApprovedOperators","inputs":[{"name":"traitId","type":"uint256","internalType":"uint256"}],"outputs":[{"name":"","type":"address[]","internalType":"address[]"}],"stateMutability":"view"},{"type":"function","name":"getApprovedOperatorsLength","inputs":[{"name":"traitId","type":"uint256","internalType":"uint256"}],"outputs":[{"name":"","type":"uint256","internalType":"uint256"}],"stateMutability":"view"},{"type":"function","name":"getCurrentEpoch","inputs":[],"outputs":[{"name":"","type":"uint256","internalType":"uint256"}],"stateMutability":"view"},{"type":"function","name":"getEpoch","inputs":[],"outputs":[{"name":"","type":"uint256","internalType":"uint256"}],"stateMutability":"view"},{"type":"function","name":"getEpochData","inputs":[{"name":"index","type":"uint256","internalType":"uint256"}],"outputs":[{"name":"","type":"tuple","internalType":"struct CommitReveal.Epoch","components":[{"name":"randomness","type":"uint128","internalType":"uint128"},{"name":"revealBlock","type":"uint64","internalType":"uint64"},{"name":"committed","type":"bool","internalType":"bool"},{"name":"revealed","type":"bool","internalType":"bool"}]}],"stateMutability":"view"},{"type":"function","name":"getGhostSvg","inputs":[],"outputs":[{"name":"svg","type":"string","internalType":"string"}],"stateMutability":"view"},{"type":"function","name":"getSVGZmapAndMetadataTrait","inputs":[{"name":"trait","type":"tuple","internalType":"struct ITraitStorage.StoredTrait","components":[{"name":"epoch","type":"uint256","internalType":"uint256"},{"name":"isRevealed","type":"bool","internalType":"bool"},{"name":"seed","type":"uint256","internalType":"uint256"},{"name":"renderMinterContract","type":"address","internalType":"address"},{"name":"traitIndex","type":"uint256","internalType":"uint256"},{"name":"traitType","type":"uint8","internalType":"enum TraitCategory.Name"}]},{"name":"traitId","type":"uint256","internalType":"uint256"}],"outputs":[{"name":"traitSvg","type":"string","internalType":"string"},{"name":"traitZmap","type":"bytes","internalType":"bytes"},{"name":"traitAttributes","type":"string","internalType":"string"}],"stateMutability":"view"},{"type":"function","name":"getStoredTraitForTokenId","inputs":[{"name":"_tokenId","type":"uint256","internalType":"uint256"}],"outputs":[{"name":"","type":"tuple","internalType":"struct ITraitStorage.StoredTrait","components":[{"name":"epoch","type":"uint256","internalType":"uint256"},{"name":"isRevealed","type":"bool","internalType":"bool"},{"name":"seed","type":"uint256","internalType":"uint256"},{"name":"renderMinterContract","type":"address","internalType":"address"},{"name":"traitIndex","type":"uint256","internalType":"uint256"},{"name":"traitType","type":"uint8","internalType":"enum TraitCategory.Name"}]}],"stateMutability":"view"},{"type":"function","name":"getSvgAndMetadata","inputs":[{"name":"storedPeter","type":"tuple","internalType":"struct IPeterStorage.StoredPeter","components":[{"name":"headId","type":"uint256","internalType":"uint256"},{"name":"hairId","type":"uint256","internalType":"uint256"},{"name":"faceId","type":"uint256","internalType":"uint256"},{"name":"accessoryId","type":"uint256","internalType":"uint256"},{"name":"topId","type":"uint256","internalType":"uint256"},{"name":"bottomId","type":"uint256","internalType":"uint256"},{"name":"shoesId","type":"uint256","internalType":"uint256"},{"name":"epoch","type":"uint32","internalType":"uint32"},{"name":"tokenId","type":"uint256","internalType":"uint256"},{"name":"bodyIndex","type":"uint8","internalType":"uint8"},{"name":"backgroundColor","type":"string","internalType":"string"},{"name":"renderZ","type":"bool","internalType":"bool"}]}],"outputs":[{"name":"traitsSvg","type":"string","internalType":"string"},{"name":"traitsAttributes","type":"string","internalType":"string"}],"stateMutability":"view"},{"type":"function","name":"getSvgAndMetadataTrait","inputs":[{"name":"trait","type":"tuple","internalType":"struct ITraitStorage.StoredTrait","components":[{"name":"epoch","type":"uint256","internalType":"uint256"},{"name":"isRevealed","type":"bool","internalType":"bool"},{"name":"seed","type":"uint256","internalType":"uint256"},{"name":"renderMinterContract","type":"address","internalType":"address"},{"name":"traitIndex","type":"uint256","internalType":"uint256"},{"name":"traitType","type":"uint8","internalType":"enum TraitCategory.Name"}]},{"name":"traitId","type":"uint256","internalType":"uint256"}],"outputs":[{"name":"traitSvg","type":"string","internalType":"string"},{"name":"traitAttributes","type":"string","internalType":"string"}],"stateMutability":"view"},{"type":"function","name":"getSvgForTokenId","inputs":[{"name":"_tokenId","type":"uint256","internalType":"uint256"}],"outputs":[{"name":"traitSvg","type":"string","internalType":"string"}],"stateMutability":"view"},{"type":"function","name":"getSvgZmapsAndMetadata","inputs":[{"name":"storedPeter","type":"tuple","internalType":"struct IPeterStorage.StoredPeter","components":[{"name":"headId","type":"uint256","internalType":"uint256"},{"name":"hairId","type":"uint256","internalType":"uint256"},{"name":"faceId","type":"uint256","internalType":"uint256"},{"name":"accessoryId","type":"uint256","internalType":"uint256"},{"name":"topId","type":"uint256","internalType":"uint256"},{"name":"bottomId","type":"uint256","internalType":"uint256"},{"name":"shoesId","type":"uint256","internalType":"uint256"},{"name":"epoch","type":"uint32","internalType":"uint32"},{"name":"tokenId","type":"uint256","internalType":"uint256"},{"name":"bodyIndex","type":"uint8","internalType":"uint8"},{"name":"backgroundColor","type":"string","internalType":"string"},{"name":"renderZ","type":"bool","internalType":"bool"}]}],"outputs":[{"name":"traitsSvg","type":"string","internalType":"string"},{"name":"traitZMaps","type":"bytes","internalType":"bytes"},{"name":"traitsAttributes","type":"string","internalType":"string"}],"stateMutability":"view"},{"type":"function","name":"getTrait","inputs":[{"name":"_tokenId","type":"uint256","internalType":"uint256"}],"outputs":[{"name":"","type":"tuple","internalType":"struct ITraitStorage.StoredTrait","components":[{"name":"epoch","type":"uint256","internalType":"uint256"},{"name":"isRevealed","type":"bool","internalType":"bool"},{"name":"seed","type":"uint256","internalType":"uint256"},{"name":"renderMinterContract","type":"address","internalType":"address"},{"name":"traitIndex","type":"uint256","internalType":"uint256"},{"name":"traitType","type":"uint8","internalType":"enum TraitCategory.Name"}]}],"stateMutability":"view"},{"type":"function","name":"getTraitImage","inputs":[{"name":"colorMap","type":"bytes","internalType":"bytes"}],"outputs":[{"name":"","type":"bytes","internalType":"bytes"}],"stateMutability":"view"},{"type":"function","name":"getTraitImageSvg","inputs":[{"name":"index","type":"uint256","internalType":"uint256"}],"outputs":[{"name":"svg","type":"string","internalType":"string"}],"stateMutability":"view"},{"type":"function","name":"getTraitIndexToMetadata","inputs":[{"name":"_traitIndex","type":"uint256","internalType":"uint256"}],"outputs":[{"name":"","type":"tuple","internalType":"struct ITraitStorage.TraitMetadata","components":[{"name":"traitIndex","type":"uint256","internalType":"uint256"},{"name":"traitName","type":"string","internalType":"string"},{"name":"traitType","type":"uint8","internalType":"enum TraitCategory.Name"},{"name":"animations","type":"string","internalType":"string"},{"name":"colorMap","type":"bytes","internalType":"bytes"},{"name":"zMap","type":"bytes","internalType":"bytes"},{"name":"renderMinterContract","type":"address","internalType":"address"},{"name":"creatorAddress","type":"address","internalType":"address"},{"name":"creatorName","type":"string","internalType":"string"},{"name":"season","type":"string","internalType":"string"}]}],"stateMutability":"view"},{"type":"function","name":"getTraitMetadata","inputs":[{"name":"_tokenId","type":"uint256","internalType":"uint256"}],"outputs":[{"name":"","type":"tuple","internalType":"struct ITraitStorage.TraitMetadata","components":[{"name":"traitIndex","type":"uint256","internalType":"uint256"},{"name":"traitName","type":"string","internalType":"string"},{"name":"traitType","type":"uint8","internalType":"enum TraitCategory.Name"},{"name":"animations","type":"string","internalType":"string"},{"name":"colorMap","type":"bytes","internalType":"bytes"},{"name":"zMap","type":"bytes","internalType":"bytes"},{"name":"renderMinterContract","type":"address","internalType":"address"},{"name":"creatorAddress","type":"address","internalType":"address"},{"name":"creatorName","type":"string","internalType":"string"},{"name":"season","type":"string","internalType":"string"}]}],"stateMutability":"view"},{"type":"function","name":"getTraitType","inputs":[{"name":"_tokenId","type":"uint256","internalType":"uint256"}],"outputs":[{"name":"","type":"uint8","internalType":"enum TraitCategory.Name"}],"stateMutability":"view"},{"type":"function","name":"getZMapForTokenId","inputs":[{"name":"_tokenId","type":"uint256","internalType":"uint256"}],"outputs":[{"name":"","type":"string","internalType":"string"}],"stateMutability":"view"},{"type":"function","name":"invalidateAllOperatorApprovals","inputs":[{"name":"_tokenId","type":"uint256","internalType":"uint256"}],"outputs":[],"stateMutability":"nonpayable"},{"type":"function","name":"isApprovedForAll","inputs":[{"name":"owner","type":"address","internalType":"address"},{"name":"operator","type":"address","internalType":"address"}],"outputs":[{"name":"","type":"bool","internalType":"bool"}],"stateMutability":"view"},{"type":"function","name":"isMinter","inputs":[{"name":"","type":"address","internalType":"address"}],"outputs":[{"name":"","type":"bool","internalType":"bool"}],"stateMutability":"view"},{"type":"function","name":"marketplace","inputs":[],"outputs":[{"name":"","type":"address","internalType":"contract ChonksMarket"}],"stateMutability":"view"},{"type":"function","name":"minter","inputs":[],"outputs":[{"name":"","type":"address","internalType":"address"}],"stateMutability":"view"},{"type":"function","name":"name","inputs":[],"outputs":[{"name":"","type":"string","internalType":"string"}],"stateMutability":"view"},{"type":"function","name":"owner","inputs":[],"outputs":[{"name":"result","type":"address","internalType":"address"}],"stateMutability":"view"},{"type":"function","name":"ownerOf","inputs":[{"name":"tokenId","type":"uint256","internalType":"uint256"}],"outputs":[{"name":"","type":"address","internalType":"address"}],"stateMutability":"view"},{"type":"function","name":"ownershipHandoverExpiresAt","inputs":[{"name":"pendingOwner","type":"address","internalType":"address"}],"outputs":[{"name":"result","type":"uint256","internalType":"uint256"}],"stateMutability":"view"},{"type":"function","name":"petersMain","inputs":[],"outputs":[{"name":"","type":"address","internalType":"contract PetersMain"}],"stateMutability":"view"},{"type":"function","name":"renderAsDataUri","inputs":[{"name":"_tokenId","type":"uint256","internalType":"uint256"}],"outputs":[{"name":"","type":"string","internalType":"string"}],"stateMutability":"view"},{"type":"function","name":"renounceOwnership","inputs":[],"outputs":[],"stateMutability":"payable"},{"type":"function","name":"requestOwnershipHandover","inputs":[],"outputs":[],"stateMutability":"payable"},{"type":"function","name":"resolveEpochIfNecessary","inputs":[],"outputs":[],"stateMutability":"nonpayable"},{"type":"function","name":"safeMint","inputs":[{"name":"_to","type":"address","internalType":"address"}],"outputs":[{"name":"","type":"uint256","internalType":"uint256"}],"stateMutability":"nonpayable"},{"type":"function","name":"safeTransferFrom","inputs":[{"name":"from","type":"address","internalType":"address"},{"name":"to","type":"address","internalType":"address"},{"name":"tokenId","type":"uint256","internalType":"uint256"}],"outputs":[],"stateMutability":"nonpayable"},{"type":"function","name":"safeTransferFrom","inputs":[{"name":"from","type":"address","internalType":"address"},{"name":"to","type":"address","internalType":"address"},{"name":"tokenId","type":"uint256","internalType":"uint256"},{"name":"data","type":"bytes","internalType":"bytes"}],"outputs":[],"stateMutability":"nonpayable"},{"type":"function","name":"setApprovalForAll","inputs":[{"name":"_operator","type":"address","internalType":"address"},{"name":"_approved","type":"bool","internalType":"bool"}],"outputs":[],"stateMutability":"nonpayable"},{"type":"function","name":"setGhostMaps","inputs":[{"name":"_colorMap","type":"bytes","internalType":"bytes"},{"name":"_zMap","type":"bytes","internalType":"bytes"}],"outputs":[],"stateMutability":"nonpayable"},{"type":"function","name":"setMarketplace","inputs":[{"name":"_marketplace","type":"address","internalType":"address"}],"outputs":[],"stateMutability":"nonpayable"},{"type":"function","name":"setPetersMain","inputs":[{"name":"_petersMain","type":"address","internalType":"address"}],"outputs":[],"stateMutability":"nonpayable"},{"type":"function","name":"setTraitForTokenId","inputs":[{"name":"_tokenId","type":"uint256","internalType":"uint256"},{"name":"_trait","type":"tuple","internalType":"struct ITraitStorage.StoredTrait","components":[{"name":"epoch","type":"uint256","internalType":"uint256"},{"name":"isRevealed","type":"bool","internalType":"bool"},{"name":"seed","type":"uint256","internalType":"uint256"},{"name":"renderMinterContract","type":"address","internalType":"address"},{"name":"traitIndex","type":"uint256","internalType":"uint256"},{"name":"traitType","type":"uint8","internalType":"enum TraitCategory.Name"}]}],"outputs":[],"stateMutability":"nonpayable"},{"type":"function","name":"setTraitIndexToMetadata","inputs":[{"name":"_traitIndex","type":"uint256","internalType":"uint256"},{"name":"_metadata","type":"tuple","internalType":"struct ITraitStorage.TraitMetadata","components":[{"name":"traitIndex","type":"uint256","internalType":"uint256"},{"name":"traitName","type":"string","internalType":"string"},{"name":"traitType","type":"uint8","internalType":"enum TraitCategory.Name"},{"name":"animations","type":"string","internalType":"string"},{"name":"colorMap","type":"bytes","internalType":"bytes"},{"name":"zMap","type":"bytes","internalType":"bytes"},{"name":"renderMinterContract","type":"address","internalType":"address"},{"name":"creatorAddress","type":"address","internalType":"address"},{"name":"creatorName","type":"string","internalType":"string"},{"name":"season","type":"string","internalType":"string"}]}],"outputs":[],"stateMutability":"nonpayable"},{"type":"function","name":"setTraitRenderer","inputs":[{"name":"_traitRenderer","type":"address","internalType":"address"}],"outputs":[],"stateMutability":"nonpayable"},{"type":"function","name":"signer","inputs":[],"outputs":[{"name":"","type":"address","internalType":"address"}],"stateMutability":"view"},{"type":"function","name":"supportsInterface","inputs":[{"name":"interfaceId","type":"bytes4","internalType":"bytes4"}],"outputs":[{"name":"","type":"bool","internalType":"bool"}],"stateMutability":"view"},{"type":"function","name":"symbol","inputs":[],"outputs":[{"name":"","type":"string","internalType":"string"}],"stateMutability":"view"},{"type":"function","name":"tokenByIndex","inputs":[{"name":"index","type":"uint256","internalType":"uint256"}],"outputs":[{"name":"","type":"uint256","internalType":"uint256"}],"stateMutability":"view"},{"type":"function","name":"tokenOfOwnerByIndex","inputs":[{"name":"owner","type":"address","internalType":"address"},{"name":"index","type":"uint256","internalType":"uint256"}],"outputs":[{"name":"","type":"uint256","internalType":"uint256"}],"stateMutability":"view"},{"type":"function","name":"tokenURI","inputs":[{"name":"_tokenId","type":"uint256","internalType":"uint256"}],"outputs":[{"name":"","type":"string","internalType":"string"}],"stateMutability":"view"},{"type":"function","name":"totalSupply","inputs":[],"outputs":[{"name":"","type":"uint256","internalType":"uint256"}],"stateMutability":"view"},{"type":"function","name":"traitIdToApprovedOperators","inputs":[{"name":"traitId","type":"uint256","internalType":"uint256"},{"name":"","type":"uint256","internalType":"uint256"}],"outputs":[{"name":"operators","type":"address","internalType":"address"}],"stateMutability":"view"},{"type":"function","name":"traitIndexToMetadata","inputs":[{"name":"","type":"uint256","internalType":"uint256"}],"outputs":[{"name":"traitIndex","type":"uint256","internalType":"uint256"},{"name":"traitName","type":"string","internalType":"string"},{"name":"traitType","type":"uint8","internalType":"enum TraitCategory.Name"},{"name":"animations","type":"string","internalType":"string"},{"name":"colorMap","type":"bytes","internalType":"bytes"},{"name":"zMap","type":"bytes","internalType":"bytes"},{"name":"renderMinterContract","type":"address","internalType":"address"},{"name":"creatorAddress","type":"address","internalType":"address"},{"name":"creatorName","type":"string","internalType":"string"},{"name":"season","type":"string","internalType":"string"}],"stateMutability":"view"},{"type":"function","name":"traitRenderer","inputs":[],"outputs":[{"name":"","type":"address","internalType":"contract TraitRenderer"}],"stateMutability":"view"},{"type":"function","name":"traitTokens","inputs":[],"outputs":[{"name":"epoch","type":"uint256","internalType":"uint256"}],"stateMutability":"view"},{"type":"function","name":"transferFrom","inputs":[{"name":"from","type":"address","internalType":"address"},{"name":"to","type":"address","internalType":"address"},{"name":"tokenId","type":"uint256","internalType":"uint256"}],"outputs":[],"stateMutability":"nonpayable"},{"type":"function","name":"transferOwnership","inputs":[{"name":"newOwner","type":"address","internalType":"address"}],"outputs":[],"stateMutability":"payable"},{"type":"function","name":"walletOfOwner","inputs":[{"name":"_owner","type":"address","internalType":"address"}],"outputs":[{"name":"","type":"uint256[]","internalType":"uint256[]"}],"stateMutability":"view"},{"type":"event","name":"AllOperatorApprovalsInvalidated","inputs":[{"name":"tokenId","type":"uint256","indexed":true,"internalType":"uint256"}],"anonymous":false},{"type":"event","name":"Approval","inputs":[{"name":"owner","type":"address","indexed":true,"internalType":"address"},{"name":"approved","type":"address","indexed":true,"internalType":"address"},{"name":"tokenId","type":"uint256","indexed":true,"internalType":"uint256"}],"anonymous":false},{"type":"event","name":"ApprovalForAll","inputs":[{"name":"owner","type":"address","indexed":true,"internalType":"address"},{"name":"operator","type":"address","indexed":true,"internalType":"address"},{"name":"approved","type":"bool","indexed":false,"internalType":"bool"}],"anonymous":false},{"type":"event","name":"BatchMetadataUpdate","inputs":[{"name":"_fromTokenId","type":"uint256","indexed":false,"internalType":"uint256"},{"name":"_toTokenId","type":"uint256","indexed":false,"internalType":"uint256"}],"anonymous":false},{"type":"event","name":"MetadataUpdate","inputs":[{"name":"_tokenId","type":"uint256","indexed":false,"internalType":"uint256"}],"anonymous":false},{"type":"event","name":"Mint","inputs":[{"name":"owner","type":"address","indexed":true,"internalType":"address"},{"name":"tokenId","type":"uint256","indexed":true,"internalType":"uint256"}],"anonymous":false},{"type":"event","name":"NewEpoch","inputs":[{"name":"epoch","type":"uint256","indexed":true,"internalType":"uint256"},{"name":"revealBlock","type":"uint64","indexed":true,"internalType":"uint64"}],"anonymous":false},{"type":"event","name":"OwnershipHandoverCanceled","inputs":[{"name":"pendingOwner","type":"address","indexed":true,"internalType":"address"}],"anonymous":false},{"type":"event","name":"OwnershipHandoverRequested","inputs":[{"name":"pendingOwner","type":"address","indexed":true,"internalType":"address"}],"anonymous":false},{"type":"event","name":"OwnershipTransferred","inputs":[{"name":"oldOwner","type":"address","indexed":true,"internalType":"address"},{"name":"newOwner","type":"address","indexed":true,"internalType":"address"}],"anonymous":false},{"type":"event","name":"Transfer","inputs":[{"name":"from","type":"address","indexed":true,"internalType":"address"},{"name":"to","type":"address","indexed":true,"internalType":"address"},{"name":"tokenId","type":"uint256","indexed":true,"internalType":"uint256"}],"anonymous":false},{"type":"error","name":"AlreadyInitialized","inputs":[]},{"type":"error","name":"CantTransfer","inputs":[]},{"type":"error","name":"NewOwnerIsZeroAddress","inputs":[]},{"type":"error","name":"NoHandoverRequest","inputs":[]},{"type":"error","name":"NotATBA","inputs":[]},{"type":"error","name":"NotAValidMinterContract","inputs":[]},{"type":"error","name":"NotYourTrait","inputs":[]},{"type":"error","name":"TraitNotFound","inputs":[{"name":"_tokenId","type":"uint256","internalType":"uint256"}]},{"type":"error","name":"TraitTokenDoesntExist","inputs":[]},{"type":"error","name":"Unauthorized","inputs":[]}],"bytecode":{"object":"0x60806040523480156200001157600080fd5b5060405162008f0e38038062008f0e833981016040819052620000349162000152565b6040518060400160405280600b81526020016a506574657254726169747360a81b81525060405180604001604052806003815260200162282a2960e91b815250816000908162000085919062000224565b50600162000094828262000224565b50506001600a5550620000a73362000108565b6016805460ff1916821515179055604051620000c39062000144565b604051809103906000f080158015620000e0573d6000803e3d6000fd5b50600e80546001600160a01b0319166001600160a01b039290921691909117905550620002f0565b6001600160a01b0316638b78c6d8198190558060007f8be0079c531659141344cd1fd0a4f28419497f9722a3daafe3b4186f6b6457e08180a350565b61300d8062005f0183390190565b6000602082840312156200016557600080fd5b815180151581146200017657600080fd5b9392505050565b634e487b7160e01b600052604160045260246000fd5b600181811c90821680620001a857607f821691505b602082108103620001c957634e487b7160e01b600052602260045260246000fd5b50919050565b601f8211156200021f576000816000526020600020601f850160051c81016020861015620001fa5750805b601f850160051c820191505b818110156200021b5782815560010162000206565b5050505b505050565b81516001600160401b038111156200024057620002406200017d565b620002588162000251845462000193565b84620001cf565b602080601f831160018114620002905760008415620002775750858301515b600019600386901b1c1916600185901b1785556200021b565b600085815260208120601f198616915b82811015620002c157888601518255948401946001909101908401620002a0565b5085821015620002e05787850151600019600388901b60f8161c191681555b5050505050600190811b01905550565b615c0180620003006000396000f3fe6080604052600436106103e35760003560e01c8063898aa11711610208578063c779153111610118578063e4623c1b116100ab578063f04e283e1161007a578063f04e283e14610cb9578063f127194214610ccc578063f2fde38b14610cec578063f901667f14610cff578063fee81cf414610d1f57600080fd5b8063e4623c1b14610c03578063e8a1268d14610c23578063e985e9c514610c50578063ea13954414610c9957600080fd5b8063df2c2b88116100e7578063df2c2b8814610b8c578063e08714a614610bac578063e14d026f14610bcc578063e1defed914610be357600080fd5b8063c779153114610aff578063c876371b14610b1f578063c87b56dd14610b3f578063d1bfc2af14610b5f57600080fd5b8063a5e2912a1161019b578063acb586df1161016a578063acb586df14610a63578063b88d4fde14610a83578063b97dd9e2146107b3578063bb12d21d14610aa3578063c1ff78be14610ad257600080fd5b8063a5e2912a146109d3578063a8498c74146109f3578063aa271e1a14610a13578063abc8c7af14610a4357600080fd5b806395d89b41116101d757806395d89b411461095e578063a1d6268014610973578063a22cb46514610993578063a2c12c94146109b357600080fd5b8063898aa117146108e55780638d37c537146109055780638da5cb5b1461092557806390f638421461093e57600080fd5b80632f745c591161030357806354d1f13d11610296578063715018a611610265578063715018a61461078b57806373ad6c2d14610793578063757991a8146107b3578063817a29a4146107c8578063859e7d32146107fe57600080fd5b806354d1f13d1461072e5780635c1ef256146107365780636352211e1461074b57806370a082311461076b57600080fd5b806342842e0e116102d257806342842e0e146106a157806342966c68146106c1578063438b6300146106e15780634f6ccce71461070e57600080fd5b80632f745c591461061357806333a703281461063357806336d34ab91461066157806340d097c31461068157600080fd5b806318160ddd1161037b578063238ac9331161034a578063238ac933146105b6578063239ffa68146105d657806323b872dd146105eb578063256929621461060b57600080fd5b806318160ddd1461052a5780631ca9760414610549578063208c25a31461056957806321b12c231461059657600080fd5b8063081812fc116103b7578063081812fc146104a8578063095ea7b3146104c857806311f3910d146104ea578063120def241461050a57600080fd5b8062db6348146103e857806301ffc9a71461041e57806306fdde031461044e5780630754617214610470575b600080fd5b3480156103f457600080fd5b5061040861040336600461468a565b610d52565b60405161041591906146a3565b60405180910390f35b34801561042a57600080fd5b5061043e610439366004614706565b610dbe565b6040519015158152602001610415565b34801561045a57600080fd5b50610463610dcf565b604051610415919061477a565b34801561047c57600080fd5b50600f54610490906001600160a01b031681565b6040516001600160a01b039091168152602001610415565b3480156104b457600080fd5b506104906104c336600461468a565b610e61565b3480156104d457600080fd5b506104e86104e33660046147b2565b610e88565b005b3480156104f657600080fd5b506104906105053660046147de565b6110b3565b34801561051657600080fd5b506104e8610525366004614800565b6110eb565b34801561053657600080fd5b506008545b604051908152602001610415565b34801561055557600080fd5b50601354610490906001600160a01b031681565b34801561057557600080fd5b5061058961058436600461468a565b611115565b604051610415919061489d565b3480156105a257600080fd5b506104636105b13660046149dc565b6111dd565b3480156105c257600080fd5b50601054610490906001600160a01b031681565b3480156105e257600080fd5b506104e8611253565b3480156105f757600080fd5b506104e8610606366004614a10565b61142f565b6104e861146e565b34801561061f57600080fd5b5061053b61062e3660046147b2565b6114bd565b34801561063f57600080fd5b5061065361064e366004614af5565b611553565b604051610415929190614b20565b34801561066d57600080fd5b506104e861067c366004614b45565b6115ee565b34801561068d57600080fd5b5061053b61069c366004614800565b611687565b3480156106ad57600080fd5b506104e86106bc366004614a10565b6116f4565b3480156106cd57600080fd5b506104e86106dc36600461468a565b61170f565b3480156106ed57600080fd5b506107016106fc366004614800565b611718565b6040516104159190614b72565b34801561071a57600080fd5b5061053b61072936600461468a565b6117af565b6104e8611842565b34801561074257600080fd5b5061046361187e565b34801561075757600080fd5b5061049061076636600461468a565b6118f5565b34801561077757600080fd5b5061053b610786366004614800565b611955565b6104e86119db565b34801561079f57600080fd5b506104e86107ae366004614800565b6119ef565b3480156107bf57600080fd5b50600c5461053b565b3480156107d457600080fd5b506107e86107e336600461468a565b611a19565b6040516104159a99989796959493929190614baa565b34801561080a57600080fd5b5061089c61081936600461468a565b6040805160808082018352600080835260208084018290528385018290526060938401829052948152600d855283902083519182018452546001600160801b03811682526001600160401b03600160801b8204169482019490945260ff600160c01b85048116151593820193909352600160c81b90930490911615159082015290565b604051610415919081516001600160801b031681526020808301516001600160401b03169082015260408083015115159082015260609182015115159181019190915260800190565b3480156108f157600080fd5b506104636109003660046149dc565b611db1565b34801561091157600080fd5b506104e8610920366004614c5f565b611de2565b34801561093157600080fd5b50638b78c6d81954610490565b34801561094a57600080fd5b506104e861095936600461468a565b611ee1565b34801561096a57600080fd5b50610463612067565b34801561097f57600080fd5b5061046361098e36600461468a565b612076565b34801561099f57600080fd5b506104e86109ae366004614dcd565b612169565b3480156109bf57600080fd5b506104e86109ce366004614800565b6123a6565b3480156109df57600080fd5b506104636109ee36600461468a565b6123d0565b3480156109ff57600080fd5b50610463610a0e36600461468a565b612414565b348015610a1f57600080fd5b5061043e610a2e366004614800565b60156020526000908152604090205460ff1681565b348015610a4f57600080fd5b50601454610490906001600160a01b031681565b348015610a6f57600080fd5b50610589610a7e36600461468a565b6124cc565b348015610a8f57600080fd5b506104e8610a9e366004614e06565b61266b565b348015610aaf57600080fd5b50610ac3610abe366004614e96565b6126a3565b60405161041593929190614f8f565b348015610ade57600080fd5b5061053b610aed36600461468a565b60009081526012602052604090205490565b348015610b0b57600080fd5b50610463610b1a36600461468a565b612732565b348015610b2b57600080fd5b50600e54610490906001600160a01b031681565b348015610b4b57600080fd5b50610463610b5a36600461468a565b61278c565b348015610b6b57600080fd5b50610b7f610b7a36600461468a565b6127cd565b6040516104159190614fd2565b348015610b9857600080fd5b50610653610ba7366004614e96565b612bda565b348015610bb857600080fd5b50610653610bc73660046150db565b612c65565b348015610bd857600080fd5b50600c5461053b9081565b348015610bef57600080fd5b506104e8610bfe366004615147565b612d12565b348015610c0f57600080fd5b506104e8610c1e3660046151aa565b612d82565b348015610c2f57600080fd5b50610c43610c3e36600461468a565b612db8565b604051610415919061524f565b348015610c5c57600080fd5b5061043e610c6b36600461525d565b6001600160a01b03918216600090815260056020908152604080832093909416825291909152205460ff1690565b348015610ca557600080fd5b50610b7f610cb436600461468a565b6131c5565b6104e8610cc7366004614800565b6135c0565b348015610cd857600080fd5b50610ac3610ce736600461528b565b6135fd565b6104e8610cfa366004614800565b6136b3565b348015610d0b57600080fd5b50610ac3610d1a366004614af5565b6136da565b348015610d2b57600080fd5b5061053b610d3a366004614800565b63389a75e1600c908152600091909152602090205490565b600081815260126020908152604091829020805483518184028101840190945280845260609392830182828015610db257602002820191906000526020600020905b81546001600160a01b03168152600190910190602001808311610d94575b50505050509050919050565b6000610dc982613779565b92915050565b606060008054610dde90615310565b80601f0160208091040260200160405190810160405280929190818152602001828054610e0a90615310565b8015610e575780601f10610e2c57610100808354040283529160200191610e57565b820191906000526020600020905b815481529060010190602001808311610e3a57829003601f168201915b5050505050905090565b6000610e6c8261379e565b506000908152600460205260409020546001600160a01b031690565b6000818152600260205260409020546001600160a01b0316610ebd57604051632df0e24560e21b815260040160405180910390fd5b33610ec7826118f5565b6001600160a01b031614610eee57604051633e79b9f360e01b815260040160405180910390fd5b6001600160a01b03821661100f576000818152601260205260408120905b815481101561100857836001600160a01b0316828281548110610f3157610f31615344565b6000918252602090912001546001600160a01b0316036110005781548290610f5b90600190615370565b81548110610f6b57610f6b615344565b9060005260206000200160009054906101000a90046001600160a01b0316828281548110610f9b57610f9b615344565b9060005260206000200160006101000a8154816001600160a01b0302191690836001600160a01b0316021790555081805480610fd957610fd9615383565b600082815260209020810160001990810180546001600160a01b0319169055019055611008565b600101610f0c565b50506110a5565b600081815260126020526040812090805b825481101561107057846001600160a01b031683828154811061104557611045615344565b6000918252602090912001546001600160a01b0316036110685760019150611070565b600101611020565b50806110a25781546001810183556000838152602090200180546001600160a01b0319166001600160a01b0386161790555b50505b6110af82826137fd565b5050565b601260205281600052604060002081815481106110cf57600080fd5b6000918252602090912001546001600160a01b03169150829050565b6110f361390d565b600e80546001600160a01b0319166001600160a01b0392909216919091179055565b61114b6040805160c08101825260008082526020820181905291810182905260608101829052608081018290529060a082015290565b6000828152600b6020908152604091829020825160c08101845281548152600182015460ff90811615159382019390935260028201549381019390935260038101546001600160a01b03166060840152600481015460808401526005810154909160a08401911660078111156111c3576111c361481d565b60078111156111d4576111d461481d565b90525092915050565b600e546040516321b12c2360e01b81526060916001600160a01b0316906321b12c239061120e90859060040161477a565b600060405180830381865afa15801561122b573d6000803e3d6000fd5b505050506040513d6000823e601f3d908101601f19168201604052610dc991908101906153de565b600c546000908152600d602052604090208054600160c01b900460ff1615806112ab57508054600160c81b900460ff161580156112ab575061129761010043615370565b8154600160801b90046001600160401b0316105b156112f6576112bb436032615412565b815460ff60c01b196001600160401b0392909216600160801b029190911668ffffffffffffffffff60801b1990911617600160c01b17815550565b8054600160801b90046001600160401b031643111561142c57805460408051600160801b9092046001600160401b031640602083015244908201526001600160801b03906060016040516020818303038152906040528051906020012060001c6113609190615425565b8154600160c81b6001600160801b039290921679ff000000000000000000ffffffffffffffffffffffffffffffff199091161717808255600c54604051600160801b9092046001600160401b0316917f78611aecfda8d341359c248df527c95aef93d446c92bb928b2a81b7abcb1d8d990600090a3604080516000815260001960208201527f6bd5c950a8d8df17f772f5af37cb3655737899cbf903264b9795592da439661c910160405180910390a1600c805460009061142090615447565b9091555061142c611253565b50565b6114393382613928565b61145e5760405162461bcd60e51b815260040161145590615460565b60405180910390fd5b6114698383836139a6565b505050565b60006202a3006001600160401b03164201905063389a75e1600c5233600052806020600c2055337fdbf36a107da19e49527a7176a1babf963b4b0ff8cde35ee35d6cd8f1f9ac7e1d600080a250565b60006114c883611955565b821061152a5760405162461bcd60e51b815260206004820152602b60248201527f455243373231456e756d657261626c653a206f776e657220696e646578206f7560448201526a74206f6620626f756e647360a81b6064820152608401611455565b506001600160a01b03919091166000908152600660209081526040808320938352929052205490565b600e5460808301516000908152601160205260409081902090516317de5cbf60e11b815260609283926001600160a01b0390911691632fbcb97e9161159e9188918891600401615609565b600060405180830381865afa1580156115bb573d6000803e3d6000fd5b505050506040513d6000823e601f3d908101601f191682016040526115e39190810190615630565b915091509250929050565b6000828152600b602090815260409182902083518155908301516001808301805492151560ff1993841617905592840151600283015560608401516003830180546001600160a01b039092166001600160a01b03199092169190911790556080840151600483015560a084015160058301805486959293919291169083600781111561167c5761167c61481d565b021790555050505050565b6000611691611253565b600061169c60085490565b6116a7906001615412565b90506116b38382613b53565b604080516000815260001960208201527f6bd5c950a8d8df17f772f5af37cb3655737899cbf903264b9795592da439661c910160405180910390a192915050565b6114698383836040518060200160405280600081525061266b565b61142c81613b6d565b6060600061172583611955565b90506000816001600160401b03811115611741576117416148ab565b60405190808252806020026020018201604052801561176a578160200160208202803683370190505b50905060005b828110156117a75761178285826114bd565b82828151811061179457611794615344565b6020908102919091010152600101611770565b509392505050565b60006117ba60085490565b821061181d5760405162461bcd60e51b815260206004820152602c60248201527f455243373231456e756d657261626c653a20676c6f62616c20696e646578206f60448201526b7574206f6620626f756e647360a01b6064820152608401611455565b6008828154811061183057611830615344565b90600052602060002001549050919050565b63389a75e1600c523360005260006020600c2055337ffa7b8eab7da67f412cc9575ed43464468f9bfbae89d1675917346ca6d8fe3c92600080a2565b600e5460408051632e0f792b60e11b815290516060926001600160a01b031691635c1ef2569160048083019260009291908290030181865afa1580156118c8573d6000803e3d6000fd5b505050506040513d6000823e601f3d908101601f191682016040526118f091908101906153de565b905090565b6000818152600260205260408120546001600160a01b031680610dc95760405162461bcd60e51b8152602060048201526018602482015277115490cdcc8c4e881a5b9d985b1a59081d1bdad95b88125160421b6044820152606401611455565b60006001600160a01b0382166119bf5760405162461bcd60e51b815260206004820152602960248201527f4552433732313a2061646472657373207a65726f206973206e6f7420612076616044820152683634b21037bbb732b960b91b6064820152608401611455565b506001600160a01b031660009081526003602052604090205490565b6119e361390d565b6119ed6000613c1c565b565b6119f761390d565b601480546001600160a01b0319166001600160a01b0392909216919091179055565b60116020526000908152604090208054600182018054919291611a3b90615310565b80601f0160208091040260200160405190810160405280929190818152602001828054611a6790615310565b8015611ab45780601f10611a8957610100808354040283529160200191611ab4565b820191906000526020600020905b815481529060010190602001808311611a9757829003601f168201915b5050506002840154600385018054949560ff909216949193509150611ad890615310565b80601f0160208091040260200160405190810160405280929190818152602001828054611b0490615310565b8015611b515780601f10611b2657610100808354040283529160200191611b51565b820191906000526020600020905b815481529060010190602001808311611b3457829003601f168201915b505050505090806004018054611b6690615310565b80601f0160208091040260200160405190810160405280929190818152602001828054611b9290615310565b8015611bdf5780601f10611bb457610100808354040283529160200191611bdf565b820191906000526020600020905b815481529060010190602001808311611bc257829003601f168201915b505050505090806005018054611bf490615310565b80601f0160208091040260200160405190810160405280929190818152602001828054611c2090615310565b8015611c6d5780601f10611c4257610100808354040283529160200191611c6d565b820191906000526020600020905b815481529060010190602001808311611c5057829003601f168201915b5050506006840154600785015460088601805495966001600160a01b0393841696929093169450919250611ca090615310565b80601f0160208091040260200160405190810160405280929190818152602001828054611ccc90615310565b8015611d195780601f10611cee57610100808354040283529160200191611d19565b820191906000526020600020905b815481529060010190602001808311611cfc57829003601f168201915b505050505090806009018054611d2e90615310565b80601f0160208091040260200160405190810160405280929190818152602001828054611d5a90615310565b8015611da75780601f10611d7c57610100808354040283529160200191611da7565b820191906000526020600020905b815481529060010190602001808311611d8a57829003601f168201915b505050505090508a565b600e5460405163898aa11760e01b81526060916001600160a01b03169063898aa1179061120e90859060040161477a565b600082815260116020908152604090912082518155908201518291906001820190611e0d90826156d1565b50604082015160028201805460ff19166001836007811115611e3157611e3161481d565b021790555060608201516003820190611e4a90826156d1565b5060808201516004820190611e5f90826156d1565b5060a08201516005820190611e7490826156d1565b5060c08201516006820180546001600160a01b039283166001600160a01b03199182161790915560e08401516007840180549190931691161790556101008201516008820190611ec490826156d1565b506101208201516009820190611eda90826156d1565b5050505050565b6000818152600260205260409020546001600160a01b0316611f1657604051632df0e24560e21b815260040160405180910390fd5b33611f20826118f5565b6001600160a01b031614158015611f4257506013546001600160a01b03163314155b15611f6057604051633e79b9f360e01b815260040160405180910390fd5b600081815260126020908152604080832080548251818502810185019093528083529192909190830182828015611fc057602002820191906000526020600020905b81546001600160a01b03168152600190910190602001808311611fa2575b505050505090508051600003611fd4575050565b611fdf600083613c5a565b60005b815181101561202057612018611ff7846118f5565b83838151811061200957612009615344565b60200260200101516000613cc8565b600101611fe2565b506000828152601260205260408120612038916145ee565b60405182907fe6727257e6b1474b2ced9b705eafa89027508be445f1a76db669635c92f5242090600090a25050565b606060018054610dde90615310565b60606000612083836124cc565b9050600081602001516120b9576040518060400160405280600b81526020016a1e39bb339f1e17b9bb339f60a91b8152506120c6565b6120c682608001516123d0565b600e54608084015160009081526011602052604090209192506001600160a01b03169063a5e11e0590869085906120fb61187e565b866040518663ffffffff1660e01b815260040161211c959493929190615790565b600060405180830381865afa158015612139573d6000803e3d6000fd5b505050506040513d6000823e601f3d908101601f1916820160405261216191908101906153de565b949350505050565b336001600160a01b038316036121bd5760405162461bcd60e51b815260206004820152601960248201527822a9219b99189d1030b8383937bb32903a379031b0b63632b960391b6044820152606401611455565b60006121c833611955565b905060005b8181101561239b5760006121e133836114bd565b9050831561228357600081815260126020526040812090805b825481101561224a57876001600160a01b031683828154811061221f5761221f615344565b6000918252602090912001546001600160a01b031603612242576001915061224a565b6001016121fa565b508061227c5781546001810183556000838152602090200180546001600160a01b0319166001600160a01b0389161790555b5050612392565b6000818152601260205260408120905b815481101561238f57866001600160a01b03168282815481106122b8576122b8615344565b6000918252602090912001546001600160a01b03160361238757815482906122e290600190615370565b815481106122f2576122f2615344565b9060005260206000200160009054906101000a90046001600160a01b031682828154811061232257612322615344565b9060005260206000200160006101000a8154816001600160a01b0302191690836001600160a01b031602179055508180548061236057612360615383565b600082815260209020810160001990810180546001600160a01b031916905501905561238f565b600101612293565b50505b506001016121cd565b506114698383613d92565b6123ae61390d565b601380546001600160a01b0319166001600160a01b0392909216919091179055565b600e54600082815260116020526040908190209051634d6d9d4160e01b81526060926001600160a01b031691634d6d9d419161120e918691600491820191016157e1565b60606000612421836124cc565b6080810151600090815260116020526040902060050180549192509061244690615310565b80601f016020809104026020016040519081016040528092919081815260200182805461247290615310565b80156124bf5780601f10612494576101008083540402835291602001916124bf565b820191906000526020600020905b8154815290600101906020018083116124a257829003601f168201915b5050505050915050919050565b6125026040805160c08101825260008082526020820181905291810182905260608101829052608081018290529060a082015290565b6000828152600b60209081526040808320815160c08101835281548152600182015460ff90811615159482019490945260028201549281019290925260038101546001600160a01b031660608301526004810154608083015260058101549192909160a084019116600781111561257b5761257b61481d565b600781111561258c5761258c61481d565b90525080516000908152600d602052604090205460608201519192506001600160801b0316906001600160a01b0381161580156125cb57506040830151155b156125ec5760405163082d451d60e01b815260048101869052602401611455565b60165460405163687d69df60e11b81526001600160a01b0383169163d0fad3be916126219160ff1690879087906004016157fa565b60c060405180830381865afa15801561263e573d6000803e3d6000fd5b505050506040513d601f19601f820116820180604052508101906126629190615828565b95945050505050565b6126753383613928565b6126915760405162461bcd60e51b815260040161145590615460565b61269d84848484613d9d565b50505050565b600e54604051635ab38bf760e01b8152606091829182916001600160a01b031690635ab38bf7906126e0908790309063f12719429060040161594b565b600060405180830381865afa1580156126fd573d6000803e3d6000fd5b505050506040513d6000823e601f3d908101601f19168201604052612725919081019061597d565b9250925092509193909250565b6060600061273f836124cc565b905080602001511561275f5761275881608001516123d0565b9150612786565b6040518060400160405280600b81526020016a1e39bb339f1e17b9bb339f60a91b81525091505b50919050565b6000818152600260205260409020546060906001600160a01b03166127c457604051632df0e24560e21b815260040160405180910390fd5b610dc982612076565b6127d561460c565b60006127e0836124cc565b90506011600082608001518152602001908152602001600020604051806101400160405290816000820154815260200160018201805461281f90615310565b80601f016020809104026020016040519081016040528092919081815260200182805461284b90615310565b80156128985780601f1061286d57610100808354040283529160200191612898565b820191906000526020600020905b81548152906001019060200180831161287b57829003601f168201915b5050509183525050600282015460209091019060ff1660078111156128bf576128bf61481d565b60078111156128d0576128d061481d565b81526020016003820180546128e490615310565b80601f016020809104026020016040519081016040528092919081815260200182805461291090615310565b801561295d5780601f106129325761010080835404028352916020019161295d565b820191906000526020600020905b81548152906001019060200180831161294057829003601f168201915b5050505050815260200160048201805461297690615310565b80601f01602080910402602001604051908101604052809291908181526020018280546129a290615310565b80156129ef5780601f106129c4576101008083540402835291602001916129ef565b820191906000526020600020905b8154815290600101906020018083116129d257829003601f168201915b50505050508152602001600582018054612a0890615310565b80601f0160208091040260200160405190810160405280929190818152602001828054612a3490615310565b8015612a815780601f10612a5657610100808354040283529160200191612a81565b820191906000526020600020905b815481529060010190602001808311612a6457829003601f168201915b505050918352505060068201546001600160a01b0390811660208301526007830154166040820152600882018054606090920191612abe90615310565b80601f0160208091040260200160405190810160405280929190818152602001828054612aea90615310565b8015612b375780601f10612b0c57610100808354040283529160200191612b37565b820191906000526020600020905b815481529060010190602001808311612b1a57829003601f168201915b50505050508152602001600982018054612b5090615310565b80601f0160208091040260200160405190810160405280929190818152602001828054612b7c90615310565b8015612bc95780601f10612b9e57610100808354040283529160200191612bc9565b820191906000526020600020905b815481529060010190602001808311612bac57829003601f168201915b505050505081525050915050919050565b600e546040516338ce943360e01b815260609182916001600160a01b03909116906338ce943390612c17908690309063e08714a69060040161594b565b600060405180830381865afa158015612c34573d6000803e3d6000fd5b505050506040513d6000823e601f3d908101601f19168201604052612c5c9190810190615630565b91509150915091565b6060806000612c73866124cc565b600e546080820151600090815260116020526040908190209051630a6ab71760e21b81529293506001600160a01b03909116916329aadc5c91612cc0918a918a918a9188916004016159fa565b600060405180830381865afa158015612cdd573d6000803e3d6000fd5b505050506040513d6000823e601f3d908101601f19168201604052612d059190810190615630565b9250925050935093915050565b612d1a61390d565b600e5460405163e1defed960e01b81526001600160a01b039091169063e1defed990612d4c9085908590600401614b20565b600060405180830381600087803b158015612d6657600080fd5b505af1158015612d7a573d6000803e3d6000fd5b505050505050565b60005b81518110156110af57612db0828281518110612da357612da3615344565b6020026020010151613b6d565b600101612d85565b600080612dc4836124cc565b9050600060116000836080015181526020019081526020016000206040518061014001604052908160008201548152602001600182018054612e0590615310565b80601f0160208091040260200160405190810160405280929190818152602001828054612e3190615310565b8015612e7e5780601f10612e5357610100808354040283529160200191612e7e565b820191906000526020600020905b815481529060010190602001808311612e6157829003601f168201915b5050509183525050600282015460209091019060ff166007811115612ea557612ea561481d565b6007811115612eb657612eb661481d565b8152602001600382018054612eca90615310565b80601f0160208091040260200160405190810160405280929190818152602001828054612ef690615310565b8015612f435780601f10612f1857610100808354040283529160200191612f43565b820191906000526020600020905b815481529060010190602001808311612f2657829003601f168201915b50505050508152602001600482018054612f5c90615310565b80601f0160208091040260200160405190810160405280929190818152602001828054612f8890615310565b8015612fd55780601f10612faa57610100808354040283529160200191612fd5565b820191906000526020600020905b815481529060010190602001808311612fb857829003601f168201915b50505050508152602001600582018054612fee90615310565b80601f016020809104026020016040519081016040528092919081815260200182805461301a90615310565b80156130675780601f1061303c57610100808354040283529160200191613067565b820191906000526020600020905b81548152906001019060200180831161304a57829003601f168201915b505050918352505060068201546001600160a01b03908116602083015260078301541660408201526008820180546060909201916130a490615310565b80601f01602080910402602001604051908101604052809291908181526020018280546130d090615310565b801561311d5780601f106130f25761010080835404028352916020019161311d565b820191906000526020600020905b81548152906001019060200180831161310057829003601f168201915b5050505050815260200160098201805461313690615310565b80601f016020809104026020016040519081016040528092919081815260200182805461316290615310565b80156131af5780601f10613184576101008083540402835291602001916131af565b820191906000526020600020905b81548152906001019060200180831161319257829003601f168201915b5050509190925250505060400151949350505050565b6131cd61460c565b60116000838152602001908152602001600020604051806101400160405290816000820154815260200160018201805461320690615310565b80601f016020809104026020016040519081016040528092919081815260200182805461323290615310565b801561327f5780601f106132545761010080835404028352916020019161327f565b820191906000526020600020905b81548152906001019060200180831161326257829003601f168201915b5050509183525050600282015460209091019060ff1660078111156132a6576132a661481d565b60078111156132b7576132b761481d565b81526020016003820180546132cb90615310565b80601f01602080910402602001604051908101604052809291908181526020018280546132f790615310565b80156133445780601f1061331957610100808354040283529160200191613344565b820191906000526020600020905b81548152906001019060200180831161332757829003601f168201915b5050505050815260200160048201805461335d90615310565b80601f016020809104026020016040519081016040528092919081815260200182805461338990615310565b80156133d65780601f106133ab576101008083540402835291602001916133d6565b820191906000526020600020905b8154815290600101906020018083116133b957829003601f168201915b505050505081526020016005820180546133ef90615310565b80601f016020809104026020016040519081016040528092919081815260200182805461341b90615310565b80156134685780601f1061343d57610100808354040283529160200191613468565b820191906000526020600020905b81548152906001019060200180831161344b57829003601f168201915b505050918352505060068201546001600160a01b03908116602083015260078301541660408201526008820180546060909201916134a590615310565b80601f01602080910402602001604051908101604052809291908181526020018280546134d190615310565b801561351e5780601f106134f35761010080835404028352916020019161351e565b820191906000526020600020905b81548152906001019060200180831161350157829003601f168201915b5050505050815260200160098201805461353790615310565b80601f016020809104026020016040519081016040528092919081815260200182805461356390615310565b80156135b05780601f10613585576101008083540402835291602001916135b0565b820191906000526020600020905b81548152906001019060200180831161359357829003601f168201915b5050505050815250509050919050565b6135c861390d565b63389a75e1600c52806000526020600c2080544211156135f057636f5e88186000526004601cfd5b6000905561142c81613c1c565b6060806060600061360d886124cc565b600e54608082015160009081526011602052604090819020905163aeea03e560e01b81529293506001600160a01b039091169163aeea03e59161365d918c918c918c918c91899190600401615a4a565b600060405180830381865afa15801561367a573d6000803e3d6000fd5b505050506040513d6000823e601f3d908101601f191682016040526136a2919081019061597d565b935093509350509450945094915050565b6136bb61390d565b8060601b6136d157637448fbae6000526004601cfd5b61142c81613c1c565b600e5460808301516000908152601160205260409081902090516330235ddd60e21b8152606092839283926001600160a01b039092169163c08d7774916137279189918991600401615609565b600060405180830381865afa158015613744573d6000803e3d6000fd5b505050506040513d6000823e601f3d908101601f1916820160405261376c919081019061597d565b9250925092509250925092565b60006001600160e01b0319821663780e9d6360e01b1480610dc95750610dc982613dd0565b6000818152600260205260409020546001600160a01b031661142c5760405162461bcd60e51b8152602060048201526018602482015277115490cdcc8c4e881a5b9d985b1a59081d1bdad95b88125160421b6044820152606401611455565b6000613808826118f5565b9050806001600160a01b0316836001600160a01b0316036138755760405162461bcd60e51b815260206004820152602160248201527f4552433732313a20617070726f76616c20746f2063757272656e74206f776e656044820152603960f91b6064820152608401611455565b336001600160a01b038216148061389157506138918133610c6b565b6139035760405162461bcd60e51b815260206004820152603e60248201527f4552433732313a20617070726f76652063616c6c6572206973206e6f7420746f60448201527f6b656e206f776e6572206e6f7220617070726f76656420666f7220616c6c00006064820152608401611455565b6114698383613c5a565b638b78c6d8195433146119ed576382b429006000526004601cfd5b600080613934836118f5565b9050806001600160a01b0316846001600160a01b0316148061397b57506001600160a01b0380821660009081526005602090815260408083209388168352929052205460ff165b806121615750836001600160a01b031661399484610e61565b6001600160a01b031614949350505050565b826001600160a01b03166139b9826118f5565b6001600160a01b031614613a1d5760405162461bcd60e51b815260206004820152602560248201527f4552433732313a207472616e736665722066726f6d20696e636f72726563742060448201526437bbb732b960d91b6064820152608401611455565b6001600160a01b038216613a7f5760405162461bcd60e51b8152602060048201526024808201527f4552433732313a207472616e7366657220746f20746865207a65726f206164646044820152637265737360e01b6064820152608401611455565b613a8a838383613e20565b613a95600082613c5a565b6001600160a01b0383166000908152600360205260408120805460019290613abe908490615370565b90915550506001600160a01b0382166000908152600360205260408120805460019290613aec908490615412565b909155505060008181526002602052604080822080546001600160a01b0319166001600160a01b0386811691821790925591518493918716917fddf252ad1be2c89b69c2b068fc378daa952ba7f163c4a11628f55a4df523b3ef91a4611469838383613fa1565b6110af828260405180602001604052806000815250614085565b6000613b78826118f5565b9050613b8681600084613e20565b613b91600083613c5a565b6001600160a01b0381166000908152600360205260408120805460019290613bba908490615370565b909155505060008281526002602052604080822080546001600160a01b0319169055518391906001600160a01b038416907fddf252ad1be2c89b69c2b068fc378daa952ba7f163c4a11628f55a4df523b3ef908390a46110af81600084613fa1565b638b78c6d81980546001600160a01b039092169182907f8be0079c531659141344cd1fd0a4f28419497f9722a3daafe3b4186f6b6457e0600080a355565b600081815260046020526040902080546001600160a01b0319166001600160a01b0384169081179091558190613c8f826118f5565b6001600160a01b03167f8c5be1e5ebec7d5bd14f71427d1e84f3dd0314c0f7b2291e5b200ac8c7c3b92560405160405180910390a45050565b816001600160a01b0316836001600160a01b031603613d255760405162461bcd60e51b815260206004820152601960248201527822a9219b99189d1030b8383937bb32903a379031b0b63632b960391b6044820152606401611455565b6001600160a01b03838116600081815260056020908152604080832094871680845294825291829020805460ff191686151590811790915591519182527f17307eab39ab6107e8899845ad3d59bd9653f200f220920489ca2b5937696c31910160405180910390a3505050565b6110af338383613cc8565b613da88484846139a6565b613db4848484846140b8565b61269d5760405162461bcd60e51b815260040161145590615abb565b60006001600160e01b031982166380ac58cd60e01b1480613e0157506001600160e01b03198216635b5e139f60e01b145b80610dc957506301ffc9a760e01b6001600160e01b0319831614610dc9565b6001600160a01b038316613e39576114698383836141b9565b601454604051634f6088cd60e01b8152600481018390526000916001600160a01b031690634f6088cd90602401608060405180830381865afa158015613e83573d6000803e3d6000fd5b505050506040513d601f19601f82011682018060405250810190613ea79190615b0d565b5090925050506001600160a01b03811615613ee7576014546001600160a01b03163314613ee75760405163bf646b0f60e01b815260040160405180910390fd5b6001600160a01b038316613f0a57613eff8284614271565b61269d8484846141b9565b60135460405162525fcd60e91b81526001600160a01b0385811660048301529091169063a4bf9a0090602401602060405180830381865afa158015613f53573d6000803e3d6000fd5b505050506040513d601f19601f82011682018060405250810190613f779190615b62565b600003613f97576040516326a45c0160e21b815260040160405180910390fd5b613eff8284614271565b6000613fac826118f5565b60135460405162525fcd60e91b81526001600160a01b0380841660048301529293506000929091169063a4bf9a0090602401602060405180830381865afa158015613ffb573d6000803e3d6000fd5b505050506040513d601f19601f8201168201806040525081019061401f9190615b62565b60145460405163236313ff60e11b8152600481018390529192506001600160a01b0316906346c627fe90602401600060405180830381600087803b15801561406657600080fd5b505af115801561407a573d6000803e3d6000fd5b505050505050505050565b61408f8383614308565b61409c60008484846140b8565b6114695760405162461bcd60e51b815260040161145590615abb565b60006001600160a01b0384163b156141ae57604051630a85bd0160e11b81526001600160a01b0385169063150b7a02906140fc903390899088908890600401615b7b565b6020604051808303816000875af1925050508015614137575060408051601f3d908101601f1916820190925261413491810190615bae565b60015b614194573d808015614165576040519150601f19603f3d011682016040523d82523d6000602084013e61416a565b606091505b50805160000361418c5760405162461bcd60e51b815260040161145590615abb565b805181602001fd5b6001600160e01b031916630a85bd0160e11b149050612161565b506001949350505050565b6001600160a01b0383166142145761420f81600880546000838152600960205260408120829055600182018355919091527ff3f7a9fe364faab93b216da50a3214154f22a0a2b415b23a84c8169e8b636ee30155565b614237565b816001600160a01b0316836001600160a01b03161461423757614237838261445e565b6001600160a01b03821661424e57611469816144fb565b826001600160a01b0316826001600160a01b0316146114695761146982826145aa565b601454604051632e1d274f60e01b8152600481018490526001600160a01b0390911690632e1d274f90602401600060405180830381600087803b1580156142b757600080fd5b505af11580156142cb573d6000803e3d6000fd5b50506014546040516302fbe78f60e41b8152600481018690526001600160a01b0385811660248301529091169250632fbe78f09150604401612d4c565b6001600160a01b03821661435e5760405162461bcd60e51b815260206004820181905260248201527f4552433732313a206d696e7420746f20746865207a65726f20616464726573736044820152606401611455565b6000818152600260205260409020546001600160a01b0316156143c35760405162461bcd60e51b815260206004820152601c60248201527f4552433732313a20746f6b656e20616c7265616479206d696e746564000000006044820152606401611455565b6143cf60008383613e20565b6001600160a01b03821660009081526003602052604081208054600192906143f8908490615412565b909155505060008181526002602052604080822080546001600160a01b0319166001600160a01b03861690811790915590518392907fddf252ad1be2c89b69c2b068fc378daa952ba7f163c4a11628f55a4df523b3ef908290a46110af60008383613fa1565b6000600161446b84611955565b6144759190615370565b6000838152600760205260409020549091508082146144c8576001600160a01b03841660009081526006602090815260408083208584528252808320548484528184208190558352600790915290208190555b5060009182526007602090815260408084208490556001600160a01b039094168352600681528383209183525290812055565b60085460009061450d90600190615370565b6000838152600960205260408120546008805493945090928490811061453557614535615344565b90600052602060002001549050806008838154811061455657614556615344565b600091825260208083209091019290925582815260099091526040808220849055858252812055600880548061458e5761458e615383565b6001900381819060005260206000200160009055905550505050565b60006145b583611955565b6001600160a01b039093166000908152600660209081526040808320868452825280832085905593825260079052919091209190915550565b508054600082559060005260206000209081019061142c9190614671565b60408051610140810182526000808252606060208301529091820190815260200160608152602001606081526020016060815260200160006001600160a01b0316815260200160006001600160a01b0316815260200160608152602001606081525090565b5b808211156146865760008155600101614672565b5090565b60006020828403121561469c57600080fd5b5035919050565b6020808252825182820181905260009190848201906040850190845b818110156146e45783516001600160a01b0316835292840192918401916001016146bf565b50909695505050505050565b6001600160e01b03198116811461142c57600080fd5b60006020828403121561471857600080fd5b8135614723816146f0565b9392505050565b60005b8381101561474557818101518382015260200161472d565b50506000910152565b6000815180845261476681602086016020860161472a565b601f01601f19169290920160200192915050565b602081526000614723602083018461474e565b6001600160a01b038116811461142c57600080fd5b80356147ad8161478d565b919050565b600080604083850312156147c557600080fd5b82356147d08161478d565b946020939093013593505050565b600080604083850312156147f157600080fd5b50508035926020909101359150565b60006020828403121561481257600080fd5b81356147238161478d565b634e487b7160e01b600052602160045260246000fd5b6008811061485157634e487b7160e01b600052602160045260246000fd5b9052565b805182526020810151151560208301526040810151604083015260018060a01b0360608201511660608301526080810151608083015260a081015161146960a0840182614833565b60c08101610dc98284614855565b634e487b7160e01b600052604160045260246000fd5b60405160c081016001600160401b03811182821017156148e3576148e36148ab565b60405290565b60405161014081016001600160401b03811182821017156148e3576148e36148ab565b60405161018081016001600160401b03811182821017156148e3576148e36148ab565b604051601f8201601f191681016001600160401b0381118282101715614957576149576148ab565b604052919050565b60006001600160401b03821115614978576149786148ab565b50601f01601f191660200190565b600082601f83011261499757600080fd5b81356149aa6149a58261495f565b61492f565b8181528460208386010111156149bf57600080fd5b816020850160208301376000918101602001919091529392505050565b6000602082840312156149ee57600080fd5b81356001600160401b03811115614a0457600080fd5b61216184828501614986565b600080600060608486031215614a2557600080fd5b8335614a308161478d565b92506020840135614a408161478d565b929592945050506040919091013590565b801515811461142c57600080fd5b80356147ad81614a51565b6008811061142c57600080fd5b80356147ad81614a6a565b600060c08284031215614a9457600080fd5b614a9c6148c1565b9050813581526020820135614ab081614a51565b6020820152604082810135908201526060820135614acd8161478d565b60608201526080828101359082015260a0820135614aea81614a6a565b60a082015292915050565b60008060e08385031215614b0857600080fd5b614b128484614a82565b9460c0939093013593505050565b604081526000614b33604083018561474e565b8281036020840152612662818561474e565b60008060e08385031215614b5857600080fd5b82359150614b698460208501614a82565b90509250929050565b6020808252825182820181905260009190848201906040850190845b818110156146e457835183529284019291840191600101614b8e565b60006101408c8352806020840152614bc48184018d61474e565b9050614bd3604084018c614833565b8281036060840152614be5818b61474e565b90508281036080840152614bf9818a61474e565b905082810360a0840152614c0d818961474e565b6001600160a01b0388811660c0860152871660e08501528381036101008501529050614c39818661474e565b9050828103610120840152614c4e818561474e565b9d9c50505050505050505050505050565b60008060408385031215614c7257600080fd5b8235915060208301356001600160401b0380821115614c9057600080fd5b908401906101408287031215614ca557600080fd5b614cad6148e9565b82358152602083013582811115614cc357600080fd5b614ccf88828601614986565b602083015250614ce160408401614a77565b6040820152606083013582811115614cf857600080fd5b614d0488828601614986565b606083015250608083013582811115614d1c57600080fd5b614d2888828601614986565b60808301525060a083013582811115614d4057600080fd5b614d4c88828601614986565b60a083015250614d5e60c084016147a2565b60c0820152614d6f60e084016147a2565b60e08201526101008084013583811115614d8857600080fd5b614d9489828701614986565b8284015250506101208084013583811115614dae57600080fd5b614dba89828701614986565b8284015250508093505050509250929050565b60008060408385031215614de057600080fd5b8235614deb8161478d565b91506020830135614dfb81614a51565b809150509250929050565b60008060008060808587031215614e1c57600080fd5b8435614e278161478d565b93506020850135614e378161478d565b92506040850135915060608501356001600160401b03811115614e5957600080fd5b614e6587828801614986565b91505092959194509250565b803563ffffffff811681146147ad57600080fd5b803560ff811681146147ad57600080fd5b600060208284031215614ea857600080fd5b81356001600160401b0380821115614ebf57600080fd5b908301906101808286031215614ed457600080fd5b614edc61490c565b823581526020830135602082015260408301356040820152606083013560608201526080830135608082015260a083013560a082015260c083013560c0820152614f2860e08401614e71565b60e08201526101008381013590820152610120614f46818501614e85565b908201526101408381013583811115614f5e57600080fd5b614f6a88828701614986565b8284015250506101609150614f80828401614a5f565b91810191909152949350505050565b606081526000614fa2606083018661474e565b8281036020840152614fb4818661474e565b90508281036040840152614fc8818561474e565b9695505050505050565b602081528151602082015260006020830151610140806040850152614ffb61016085018361474e565b9150604085015161500f6060860182614833565b506060850151601f198086850301608087015261502c848361474e565b935060808701519150808685030160a0870152615049848361474e565b935060a08701519150808685030160c0870152615066848361474e565b935060c0870151915061508460e08701836001600160a01b03169052565b60e087015191506101006150a2818801846001600160a01b03169052565b808801519250506101208187860301818801526150bf858461474e565b908801518782039092018488015293509050614fc8838261474e565b6000806000606084860312156150f057600080fd5b8335925060208401356001600160401b038082111561510e57600080fd5b61511a87838801614986565b9350604086013591508082111561513057600080fd5b5061513d86828701614986565b9150509250925092565b6000806040838503121561515a57600080fd5b82356001600160401b038082111561517157600080fd5b61517d86838701614986565b9350602085013591508082111561519357600080fd5b506151a085828601614986565b9150509250929050565b600060208083850312156151bd57600080fd5b82356001600160401b03808211156151d457600080fd5b818501915085601f8301126151e857600080fd5b8135818111156151fa576151fa6148ab565b8060051b915061520b84830161492f565b818152918301840191848101908884111561522557600080fd5b938501935b838510156152435784358252938501939085019061522a565b98975050505050505050565b60208101610dc98284614833565b6000806040838503121561527057600080fd5b823561527b8161478d565b91506020830135614dfb8161478d565b600080600080608085870312156152a157600080fd5b8435935060208501356001600160401b03808211156152bf57600080fd5b6152cb88838901614986565b945060408701359150808211156152e157600080fd5b6152ed88838901614986565b9350606087013591508082111561530357600080fd5b50614e6587828801614986565b600181811c9082168061532457607f821691505b60208210810361278657634e487b7160e01b600052602260045260246000fd5b634e487b7160e01b600052603260045260246000fd5b634e487b7160e01b600052601160045260246000fd5b81810381811115610dc957610dc961535a565b634e487b7160e01b600052603160045260246000fd5b600082601f8301126153aa57600080fd5b81516153b86149a58261495f565b8181528460208386010111156153cd57600080fd5b61216182602083016020870161472a565b6000602082840312156153f057600080fd5b81516001600160401b0381111561540657600080fd5b61216184828501615399565b80820180821115610dc957610dc961535a565b60008261544257634e487b7160e01b600052601260045260246000fd5b500690565b6000600182016154595761545961535a565b5060010190565b6020808252602e908201527f4552433732313a2063616c6c6572206973206e6f7420746f6b656e206f776e6560408201526d1c881b9bdc88185c1c1c9bdd995960921b606082015260800190565b600081546154bb81615310565b8085526020600183811680156154d857600181146154f257615520565b60ff1985168884015283151560051b880183019550615520565b866000528260002060005b858110156155185781548a82018601529083019084016154fd565b890184019650505b505050505092915050565b600061014082548452806020850152615549818501600185016154ae565b9050615559600284015460ff1690565b6155666040860182614833565b50838103606085015261557c81600385016154ae565b9050838103608085015261559381600485016154ae565b905083810360a08501526155aa81600585016154ae565b90506155c060068401546001600160a01b031690565b6001600160a01b0390811660c086015260078401541660e08501528381036101008501526155f181600885016154ae565b905083810361012085015261216181600985016154ae565b60006101006156188387614855565b8460c08401528060e0840152614fc88184018561552b565b6000806040838503121561564357600080fd5b82516001600160401b038082111561565a57600080fd5b61566686838701615399565b9350602085015191508082111561567c57600080fd5b506151a085828601615399565b601f821115611469576000816000526020600020601f850160051c810160208610156156b25750805b601f850160051c820191505b81811015612d7a578281556001016156be565b81516001600160401b038111156156ea576156ea6148ab565b6156fe816156f88454615310565b84615689565b602080601f831160018114615733576000841561571b5750858301515b600019600386901b1c1916600185901b178555612d7a565b600085815260208120601f198616915b8281101561576257888601518255948401946001909101908401615743565b50858210156157805787850151600019600388901b60f8161c191681555b5050505050600190811b01905550565b60006101408783526157a56020840188614855565b8060e08401526157b78184018761552b565b90508281036101008401526157cc818661474e565b9050828103610120840152615243818561474e565b82815260406020820152600061216160408301846154ae565b831515815261010081016158116020830185614855565b6001600160801b03831660e0830152949350505050565b600060c0828403121561583a57600080fd5b6158426148c1565b82518152602083015161585481614a51565b60208201526040838101519082015260608301516158718161478d565b60608201526080838101519082015260a083015161588e81614a6a565b60a08201529392505050565b6000610180825184526020830151602085015260408301516040850152606083015160608501526080830151608085015260a083015160a085015260c083015160c085015260e08301516158f660e086018263ffffffff169052565b5061010083810151908501526101208084015160ff1690850152610140808401518186018390526159298387018261474e565b92505050610160808401516159418287018215159052565b5090949350505050565b60408152600061595e604083018661589a565b905061216160208301848660201b63ffffffff919091161760401b9052565b60008060006060848603121561599257600080fd5b83516001600160401b03808211156159a957600080fd5b6159b587838801615399565b945060208601519150808211156159cb57600080fd5b6159d787838801615399565b935060408601519150808211156159ed57600080fd5b5061513d86828701615399565b6000610140878352806020840152615a148184018861474e565b90508281036040840152615a28818761474e565b9050615a376060840186614855565b828103610120840152615243818561552b565b6000610160888352806020840152615a648184018961474e565b90508281036040840152615a78818861474e565b90508281036060840152615a8c818761474e565b9050615a9b6080840186614855565b828103610140840152615aae818561552b565b9998505050505050505050565b60208082526032908201527f4552433732313a207472616e7366657220746f206e6f6e20455243373231526560408201527131b2b4bb32b91034b6b83632b6b2b73a32b960711b606082015260800190565b60008060008060808587031215615b2357600080fd5b845193506020850151615b358161478d565b6040860151909350615b468161478d565b6060860151909250615b578161478d565b939692955090935050565b600060208284031215615b7457600080fd5b5051919050565b6001600160a01b0385811682528416602082015260408101839052608060608201819052600090614fc89083018461474e565b600060208284031215615bc057600080fd5b8151614723816146f056fea2646970667358221220a19239c846d6687e5c2788dab0d0452728fa70b8b71473eae6e0ce616a73bef064736f6c63430008160033608060405234801561001057600080fd5b50612fed806100206000396000f3fe608060405234801561001057600080fd5b50600436106100f55760003560e01c80635bf3825911610097578063aeea03e511610066578063aeea03e5146101e8578063c08d7774146101fb578063e1defed91461020e578063e6ab9d5a1461022357600080fd5b80635bf38259146101a75780635c1ef256146101ba578063898aa117146101c2578063a5e11e05146101d557600080fd5b806338ce9433116100d357806338ce9433146101575780634d6d9d411461016a57806351dc71891461017d5780635ab38bf71461018557600080fd5b806321b12c23146100fa57806329aadc5c146101235780632fbcb97e14610144575b600080fd5b61010d610108366004611e89565b61022b565b60405161011a9190611f15565b60405180910390f35b61013661013136600461213a565b610a74565b60405161011a9291906121df565b61013661015236600461220d565b610af4565b610136610165366004612374565b610c01565b61010d6101783660046123d7565b610f6e565b610136610fb5565b610198610193366004612374565b6110d5565b60405161011a9392919061241d565b61010d6101b5366004611e89565b61146a565b61010d6114ae565b61010d6101d0366004611e89565b61157d565b61010d6101e3366004612460565b6117cf565b6101986101f63660046124f9565b6119fe565b61019861020936600461220d565b611aad565b61022161021c3660046125c1565b611bd5565b005b61010d611bf3565b60606000604051806102000160405280604051806040016040528060018152602001600360fc1b8152508152602001604051806040016040528060018152602001603160f81b8152508152602001604051806040016040528060018152602001601960f91b8152508152602001604051806040016040528060018152602001603360f81b8152508152602001604051806040016040528060018152602001600d60fa1b8152508152602001604051806040016040528060018152602001603560f81b8152508152602001604051806040016040528060018152602001601b60f91b8152508152602001604051806040016040528060018152602001603760f81b8152508152602001604051806040016040528060018152602001600760fb1b8152508152602001604051806040016040528060018152602001603960f81b8152508152602001604051806040016040528060018152602001606160f81b8152508152602001604051806040016040528060018152602001603160f91b8152508152602001604051806040016040528060018152602001606360f81b8152508152602001604051806040016040528060018152602001601960fa1b8152508152602001604051806040016040528060018152602001606560f81b8152508152602001604051806040016040528060018152602001603360f91b81525081525090506000604051806103c00160405280604051806040016040528060018152602001600360fc1b8152508152602001604051806040016040528060018152602001603160f81b8152508152602001604051806040016040528060018152602001601960f91b8152508152602001604051806040016040528060018152602001603360f81b8152508152602001604051806040016040528060018152602001600d60fa1b8152508152602001604051806040016040528060018152602001603560f81b8152508152602001604051806040016040528060018152602001601b60f91b8152508152602001604051806040016040528060018152602001603760f81b8152508152602001604051806040016040528060018152602001600760fb1b8152508152602001604051806040016040528060018152602001603960f81b815250815260200160405180604001604052806002815260200161031360f41b815250815260200160405180604001604052806002815260200161313160f01b815250815260200160405180604001604052806002815260200161189960f11b815250815260200160405180604001604052806002815260200161313360f01b8152508152602001604051806040016040528060028152602001610c4d60f21b815250815260200160405180604001604052806002815260200161313560f01b815250815260200160405180604001604052806002815260200161189b60f11b815250815260200160405180604001604052806002815260200161313760f01b815250815260200160405180604001604052806002815260200161062760f31b815250815260200160405180604001604052806002815260200161313960f01b815250815260200160405180604001604052806002815260200161032360f41b815250815260200160405180604001604052806002815260200161323160f01b815250815260200160405180604001604052806002815260200161191960f11b815250815260200160405180604001604052806002815260200161323360f01b8152508152602001604051806040016040528060028152602001610c8d60f21b815250815260200160405180604001604052806002815260200161323560f01b815250815260200160405180604001604052806002815260200161191b60f11b815250815260200160405180604001604052806002815260200161323760f01b815250815260200160405180604001604052806002815260200161064760f31b815250815260200160405180604001604052806002815260200161323960f01b815250815250905060005b611194811015610a6c57600060f81b8582815181106108135761081361261a565b01602001516001600160f81b0319161115610a5a576000601e61083760058461265c565b6108419190612670565b90506000601e61085260058561265c565b61085c919061265c565b905060008560048961086f876002612684565b8151811061087f5761087f61261a565b016020015160f81c901c60ff166010811061089c5761089c61261a565b602002015186896108ae876002612684565b815181106108be576108be61261a565b60209101015160f81c600f16601081106108da576108da61261a565b60200201518760048b6108ee896003612684565b815181106108fe576108fe61261a565b016020015160f81c901c60ff166010811061091b5761091b61261a565b6020020151888b61092d896003612684565b8151811061093d5761093d61261a565b60209101015160f81c600f16601081106109595761095961261a565b60200201518960048d61096c8b83612684565b8151811061097c5761097c61261a565b016020015160f81c901c60ff16601081106109995761099961261a565b60200201518a8d6109ab8b6004612684565b815181106109bb576109bb61261a565b60209101015160f81c600f16601081106109d7576109d761261a565b60200201516040516020016109f196959493929190612697565b6040516020818303038152906040529050868584601e8110610a1557610a1561261a565b60200201518684601e8110610a2c57610a2c61261a565b602002015183604051602001610a459493929190612716565b60405160208183030381529060405296505050505b610a65600582612684565b90506107f2565b505050919050565b606080606080610a85868a87610af4565b8851909350909150600003610a9f57809350819250610ae8565b8781604051602001610ab29291906127d0565b60405160208183030381529060405293508682604051602001610ad69291906127ff565b60405160208183030381529060405292505b50509550959350505050565b60608084602001518015610b085750600084115b15610bb55760408084015190516301be83d160e11b8152610b9a9173__$4987fe9f4e800c5c4c1535f64ed232842a$__9163037d07a291610b4b9160040161283b565b600060405180830381865af4158015610b68573d6000803e3d6000fd5b505050506040513d6000823e601f3d908101601f19168201604052610b9091908101906128b3565b8460200151611c14565b9050610bae85608001518460800151610f6e565b9150610bf9565b604051806040016040528060028152602001617b7d60f01b81525090506040518060400160405280600b81526020016a1e39bb339f1e17b9bb339f60a91b81525091505b935093915050565b60608060008560c001511115610c835783838660c0015184846040518463ffffffff1660e01b8152600401610c38939291906128e7565b600060405180830381865afa158015610c55573d6000803e3d6000fd5b505050506040513d6000823e601f3d908101601f19168201604052610c7d9190810190612912565b90925090505b60a085015115610cff5783838660a0015184846040518463ffffffff1660e01b8152600401610cb4939291906128e7565b600060405180830381865afa158015610cd1573d6000803e3d6000fd5b505050506040513d6000823e601f3d908101601f19168201604052610cf99190810190612912565b90925090505b608085015115610d7b578383866080015184846040518463ffffffff1660e01b8152600401610d30939291906128e7565b600060405180830381865afa158015610d4d573d6000803e3d6000fd5b505050506040513d6000823e601f3d908101601f19168201604052610d759190810190612912565b90925090505b604085015115610df7578383866040015184846040518463ffffffff1660e01b8152600401610dac939291906128e7565b600060405180830381865afa158015610dc9573d6000803e3d6000fd5b505050506040513d6000823e601f3d908101601f19168201604052610df19190810190612912565b90925090505b602085015115610e73578383866020015184846040518463ffffffff1660e01b8152600401610e28939291906128e7565b600060405180830381865afa158015610e45573d6000803e3d6000fd5b505050506040513d6000823e601f3d908101601f19168201604052610e6d9190810190612912565b90925090505b845115610eec578383866000015184846040518463ffffffff1660e01b8152600401610ea1939291906128e7565b600060405180830381865afa158015610ebe573d6000803e3d6000fd5b505050506040513d6000823e601f3d908101601f19168201604052610ee69190810190612912565b90925090505b606085015115610bf9578383866060015184846040518463ffffffff1660e01b8152600401610f1d939291906128e7565b600060405180830381865afa158015610f3a573d6000803e3d6000fd5b505050506040513d6000823e601f3d908101601f19168201604052610f629190810190612912565b90969095509350505050565b60606000610f7b8361157d565b90506000610f888261022b565b905080604051602001610f9b919061296b565b604051602081830303815290604052925050505b92915050565b600080548190610fc4906129b0565b80601f0160208091040260200160405190810160405280929190818152602001828054610ff0906129b0565b801561103d5780601f106110125761010080835404028352916020019161103d565b820191906000526020600020905b81548152906001019060200180831161102057829003601f168201915b505050505090806001018054611052906129b0565b80601f016020809104026020016040519081016040528092919081815260200182805461107e906129b0565b80156110cb5780601f106110a0576101008083540402835291602001916110cb565b820191906000526020600020905b8154815290600101906020018083116110ae57829003601f168201915b5050505050905082565b606080606060008660c00151111561115e5784848760c001518584866040518563ffffffff1660e01b815260040161111094939291906129ea565b600060405180830381865afa15801561112d573d6000803e3d6000fd5b505050506040513d6000823e601f3d908101601f191682016040526111559190810190612a34565b91945090925090505b60a0860151156111df5784848760a001518584866040518563ffffffff1660e01b815260040161119194939291906129ea565b600060405180830381865afa1580156111ae573d6000803e3d6000fd5b505050506040513d6000823e601f3d908101601f191682016040526111d69190810190612a34565b91945090925090505b60808601511561126057848487608001518584866040518563ffffffff1660e01b815260040161121294939291906129ea565b600060405180830381865afa15801561122f573d6000803e3d6000fd5b505050506040513d6000823e601f3d908101601f191682016040526112579190810190612a34565b91945090925090505b6040860151156112e157848487604001518584866040518563ffffffff1660e01b815260040161129394939291906129ea565b600060405180830381865afa1580156112b0573d6000803e3d6000fd5b505050506040513d6000823e601f3d908101601f191682016040526112d89190810190612a34565b91945090925090505b60208601511561136257848487602001518584866040518563ffffffff1660e01b815260040161131494939291906129ea565b600060405180830381865afa158015611331573d6000803e3d6000fd5b505050506040513d6000823e601f3d908101601f191682016040526113599190810190612a34565b91945090925090505b8551156113e057848487600001518584866040518563ffffffff1660e01b815260040161139294939291906129ea565b600060405180830381865afa1580156113af573d6000803e3d6000fd5b505050506040513d6000823e601f3d908101601f191682016040526113d79190810190612a34565b91945090925090505b60608601511561146157848487606001518584866040518563ffffffff1660e01b815260040161141394939291906129ea565b600060405180830381865afa158015611430573d6000803e3d6000fd5b505050506040513d6000823e601f3d908101601f191682016040526114589190810190612a34565b91945090925090505b93509350939050565b606060405180610100016040528060d28152602001612ee660d2913982604051602001611498929190612ac5565b6040516020818303038152906040529050919050565b606060006115476000800180546114c4906129b0565b80601f01602080910402602001604051908101604052809291908181526020018280546114f0906129b0565b801561153d5780601f106115125761010080835404028352916020019161153d565b820191906000526020600020905b81548152906001019060200180831161152057829003601f168201915b505050505061157d565b905060006115548261022b565b9050806040516020016115679190612b05565b6040516020818303038152906040529250505090565b8051604080516111948082526111c08201909252606092916000919060208201818036833701905050905060006115b560058461265c565b905060005b818110156117c55760006115cf826005612b6f565b905060008782815181106115e5576115e561261a565b016020015160f81c90506000886115fd846001612684565b8151811061160d5761160d61261a565b016020015160f81c9050600060ff831661162883601e612b6f565b6116329190612684565b61163d906005612b6f565b90508984815181106116515761165161261a565b602001015160f81c60f81b87828151811061166e5761166e61261a565b60200101906001600160f81b031916908160001a90535089846001018151811061169a5761169a61261a565b602001015160f81c60f81b8782600101815181106116ba576116ba61261a565b60200101906001600160f81b031916908160001a9053508984600201815181106116e6576116e661261a565b602001015160f81c60f81b8782600201815181106117065761170661261a565b60200101906001600160f81b031916908160001a9053508984600301815181106117325761173261261a565b602001015160f81c60f81b8782600301815181106117525761175261261a565b60200101906001600160f81b031916908160001a90535089846004018151811061177e5761177e61261a565b602001015160f81c60f81b87826004018151811061179e5761179e61261a565b60200101906001600160f81b031916908160001a90535050600190930192506115ba915050565b5090949350505050565b60608060608660200151156118ee5760a08701516040516301be83d160e11b815261186b9173__$4987fe9f4e800c5c4c1535f64ed232842a$__9163037d07a29161181c9160040161283b565b600060405180830381865af4158015611839573d6000803e3d6000fd5b505050506040513d6000823e601f3d908101601f1916820160405261186191908101906128b3565b8760200151611c14565b6118996040518060400160405280600781526020016621b932b0ba37b960c91b815250886101000151611c14565b6118c66040518060400160405280600681526020016529b2b0b9b7b760d11b815250896101200151611c14565b6040516020016118d893929190612b86565b604051602081830303815290604052905061193f565b6040518060400160405280600f81526020016e2261747472696275746573223a5b5d60881b81525090506040518060400160405280600b81526020016a1e39bb339f1e17b9bb339f60a91b81525093505b61196985856040516020016119559291906127d0565b60405160208183030381529060405261146a565b9150600061197683611c40565b6040516020016119869190612c09565b604051602081830303815290604052905060006119a28a611c4e565b83836040516020016119b693929190612c65565b60405160208183030381529060405290506119d081611c40565b6040516020016119e09190612d20565b60405160208183030381529060405294505050505095945050505050565b606080606080606080611a12888d89611aad565b8c519095509193509150600003611a3157819550829450809350611a9e565b8a82604051602001611a449291906127d0565b60405160208183030381529060405295508983604051602001611a689291906127ff565b60405160208183030381529060405294508881604051602001611a8c9291906127d0565b60405160208183030381529060405293505b50505096509650969350505050565b606080606085602001518015611ac35750600085115b15611b7757611ada86608001518560800151610f6e565b9250611b6973__$4987fe9f4e800c5c4c1535f64ed232842a$__63037d07a286604001516040518263ffffffff1660e01b8152600401611b1a919061283b565b600060405180830381865af4158015611b37573d6000803e3d6000fd5b505050506040513d6000823e601f3d908101601f19168201604052611b5f91908101906128b3565b8560200151611c14565b90508360a001519150611461565b6040518060400160405280600b81526020016a1e39bb339f1e17b9bb339f60a91b8152509250604051806040016040528060028152602001617b7d60f01b815250905060405180602001604052806000815250915093509350939050565b6000611be18382612db5565b506001611bee8282612db5565b505050565b606060405180610100016040528060d28152602001612ee660d29139905090565b60608282604051602001611c29929190612e74565b604051602081830303815290604052905092915050565b6060610faf82600080611c92565b60606080604051019050602081016040526000815280600019835b928101926030600a8206018453600a900480611c69575050819003601f19909101908152919050565b606083518015611d72576003600282010460021b60405192507f4142434445464748494a4b4c4d4e4f505152535455565758595a616263646566601f526106708515027f6768696a6b6c6d6e6f707172737475767778797a303132333435363738392d5f18603f52602083018181015b6003880197508751603f8160121c1651600053603f81600c1c1651600153603f8160061c1651600253603f811651600353506000518252600482019150808210611d0257602001604052613d3d60f01b600384066002048083039190915260008615159091029182900352900382525b509392505050565b634e487b7160e01b600052604160045260246000fd5b60405161014081016001600160401b0381118282101715611db357611db3611d7a565b60405290565b60405161018081016001600160401b0381118282101715611db357611db3611d7a565b604051601f8201601f191681016001600160401b0381118282101715611e0457611e04611d7a565b604052919050565b60006001600160401b03821115611e2557611e25611d7a565b50601f01601f191660200190565b600082601f830112611e4457600080fd5b8135611e57611e5282611e0c565b611ddc565b818152846020838601011115611e6c57600080fd5b816020850160208301376000918101602001919091529392505050565b600060208284031215611e9b57600080fd5b81356001600160401b03811115611eb157600080fd5b611ebd84828501611e33565b949350505050565b60005b83811015611ee0578181015183820152602001611ec8565b50506000910152565b60008151808452611f01816020860160208601611ec5565b601f01601f19169290920160200192915050565b602081526000611f286020830184611ee9565b9392505050565b80358015158114611f3f57600080fd5b919050565b80356001600160a01b0381168114611f3f57600080fd5b803560088110611f3f57600080fd5b600060c08284031215611f7c57600080fd5b60405160c081018181106001600160401b0382111715611f9e57611f9e611d7a565b60405282358152905080611fb460208401611f2f565b602082015260408301356040820152611fcf60608401611f44565b606082015260808301356080820152611fea60a08401611f5b565b60a08201525092915050565b6000610140828403121561200957600080fd5b612011611d90565b90508135815260208201356001600160401b038082111561203157600080fd5b61203d85838601611e33565b602084015261204e60408501611f5b565b6040840152606084013591508082111561206757600080fd5b61207385838601611e33565b6060840152608084013591508082111561208c57600080fd5b61209885838601611e33565b608084015260a08401359150808211156120b157600080fd5b6120bd85838601611e33565b60a08401526120ce60c08501611f44565b60c08401526120df60e08501611f44565b60e0840152610100915081840135818111156120fa57600080fd5b61210686828701611e33565b83850152506101209150818401358181111561212157600080fd5b61212d86828701611e33565b8385015250505092915050565b6000806000806000610140868803121561215357600080fd5b8535945060208601356001600160401b038082111561217157600080fd5b61217d89838a01611e33565b9550604088013591508082111561219357600080fd5b61219f89838a01611e33565b94506121ae8960608a01611f6a565b93506101208801359150808211156121c557600080fd5b506121d288828901611ff6565b9150509295509295909350565b6040815260006121f26040830185611ee9565b82810360208401526122048185611ee9565b95945050505050565b6000806000610100848603121561222357600080fd5b61222d8585611f6a565b925060c0840135915060e08401356001600160401b0381111561224f57600080fd5b61225b86828701611ff6565b9150509250925092565b803563ffffffff81168114611f3f57600080fd5b803560ff81168114611f3f57600080fd5b6000610180828403121561229d57600080fd5b6122a5611db9565b9050813581526020820135602082015260408201356040820152606082013560608201526080820135608082015260a082013560a082015260c082013560c08201526122f360e08301612265565b60e08201526101008281013590820152610120612311818401612279565b90820152610140828101356001600160401b0381111561233057600080fd5b61233c85828601611e33565b828401525050610160612350818401611f2f565b9082015292915050565b67ffffffffffffffff198116811461237157600080fd5b50565b60008060006040848603121561238957600080fd5b83356001600160401b0381111561239f57600080fd5b6123ab8682870161228a565b93505060208401356123bc8161235a565b9295606084901c955060409390931c63ffffffff1693505050565b600080604083850312156123ea57600080fd5b8235915060208301356001600160401b0381111561240757600080fd5b61241385828601611e33565b9150509250929050565b6060815260006124306060830186611ee9565b82810360208401526124428186611ee9565b905082810360408401526124568185611ee9565b9695505050505050565b6000806000806000610140868803121561247957600080fd5b8535945061248a8760208801611f6a565b935060e08601356001600160401b03808211156124a657600080fd5b6124b289838a01611ff6565b94506101008801359150808211156124c957600080fd5b6124d589838a01611e33565b93506101208801359150808211156124ec57600080fd5b506121d288828901611e33565b600080600080600080610160878903121561251357600080fd5b8635955060208701356001600160401b038082111561253157600080fd5b61253d8a838b01611e33565b9650604089013591508082111561255357600080fd5b61255f8a838b01611e33565b9550606089013591508082111561257557600080fd5b6125818a838b01611e33565b94506125908a60808b01611f6a565b93506101408901359150808211156125a757600080fd5b506125b489828a01611ff6565b9150509295509295509295565b600080604083850312156125d457600080fd5b82356001600160401b03808211156125eb57600080fd5b6125f786838701611e33565b9350602085013591508082111561260d57600080fd5b5061241385828601611e33565b634e487b7160e01b600052603260045260246000fd5b634e487b7160e01b600052601260045260246000fd5b634e487b7160e01b600052601160045260246000fd5b60008261266b5761266b612630565b500490565b60008261267f5761267f612630565b500690565b80820180821115610faf57610faf612646565b6000875160206126aa8285838d01611ec5565b8851918401916126bd8184848d01611ec5565b88519201916126cf8184848c01611ec5565b87519201916126e18184848b01611ec5565b86519201916126f38184848a01611ec5565b85519201916127058184848901611ec5565b919091019998505050505050505050565b60008551612728818460208a01611ec5565b681e3932b1ba103c1e9160b91b908301908152855161274e816009840160208a01611ec5565b6411103c9e9160d91b60099290910191820152845161277481600e840160208901611ec5565b7f222077696474683d223122206865696768743d2231222066696c6c3d22230000600e929091019182015283516127b281602c840160208801611ec5565b6211179f60e91b602c9290910191820152602f019695505050505050565b600083516127e2818460208801611ec5565b8351908301906127f6818360208801611ec5565b01949350505050565b60008351612811818460208801611ec5565b600b60fa1b908301908152835161282f816001840160208801611ec5565b01600101949350505050565b602081016008831061285d57634e487b7160e01b600052602160045260246000fd5b91905290565b6000612871611e5284611e0c565b905082815283838301111561288557600080fd5b611f28836020830184611ec5565b600082601f8301126128a457600080fd5b611f2883835160208501612863565b6000602082840312156128c557600080fd5b81516001600160401b038111156128db57600080fd5b611ebd84828501612893565b8381526060602082015260006129006060830185611ee9565b82810360408401526124568185611ee9565b6000806040838503121561292557600080fd5b82516001600160401b038082111561293c57600080fd5b61294886838701612893565b9350602085015191508082111561295e57600080fd5b5061241385828601612893565b6d1e339034b21e912a3930b4ba111f60911b8152815160009061299581600e850160208701611ec5565b631e17b39f60e11b600e939091019283015250601201919050565b600181811c908216806129c457607f821691505b6020821081036129e457634e487b7160e01b600052602260045260246000fd5b50919050565b848152608060208201526000612a036080830186611ee9565b8281036040840152612a158186611ee9565b90508281036060840152612a298185611ee9565b979650505050505050565b600080600060608486031215612a4957600080fd5b83516001600160401b0380821115612a6057600080fd5b612a6c87838801612893565b94506020860151915080821115612a8257600080fd5b612a8e87838801612893565b93506040860151915080821115612aa457600080fd5b508401601f81018613612ab657600080fd5b61225b86825160208401612863565b60008351612ad7818460208801611ec5565b835190830190612aeb818360208801611ec5565b651e17b9bb339f60d11b9101908152600601949350505050565b7f3c672069643d2267686f73742220636c6173733d226722207374796c653d226f81526d3830b1b4ba3c9d101a98129d911f60911b602082015260008251612b5481602e850160208701611ec5565b631e17b39f60e11b602e939091019283015250603201919050565b8082028115828204841417610faf57610faf612646565b6d2261747472696275746573223a5b60901b81528351600090612bb081600e850160208901611ec5565b8083019050600b60fa1b80600e8301528551612bd381600f850160208a01611ec5565b600f9201918201528351612bee816010840160208801611ec5565b605d60f81b6010929091019182015260110195945050505050565b7f22696d616765223a22646174613a696d6167652f7376672b786d6c3b626173658152620d8d0b60ea1b602082015260008251612c4d816023850160208701611ec5565b601160f91b6023939091019283015250602401919050565b757b226e616d65223a225065746572205472616974202360501b81528351600090612c97816016850160208901611ec5565b7f222c226465736372697074696f6e223a2254686973206973206a757374206120601691840191820152651d195cdd088b60d21b60368201528451612ce381603c840160208901611ec5565b600b60fa1b603c92909101918201528351612d0581603d840160208801611ec5565b607d60f81b603d9290910191820152603e0195945050505050565b7f646174613a6170706c69636174696f6e2f6a736f6e3b6261736536342c000000815260008251612d5881601d850160208701611ec5565b91909101601d0192915050565b601f821115611bee576000816000526020600020601f850160051c81016020861015612d8e5750805b601f850160051c820191505b81811015612dad57828155600101612d9a565b505050505050565b81516001600160401b03811115612dce57612dce611d7a565b612de281612ddc84546129b0565b84612d65565b602080601f831160018114612e175760008415612dff5750858301515b600019600386901b1c1916600185901b178555612dad565b600085815260208120601f198616915b82811015612e4657888601518255948401946001909101908401612e27565b5085821015612e645787850151600019600388901b60f8161c191681555b5050505050600190811b01905550565b6e3d913a3930b4ba2fba3cb832911d1160891b81528251600090612e9f81600f850160208801611ec5565b6a1116113b30b63ab2911d1160a91b600f918401918201528351612eca81601a840160208801611ec5565b61227d60f01b601a9290910191820152601c0194935050505056fe3c7376672073686170652d72656e646572696e673d2263726973704564676573222076696577426f783d22302030203330203330222066696c6c3d226e6f6e652220786d6c6e733d22687474703a2f2f7777772e77332e6f72672f323030302f737667223e3c7374796c653e726563747b77696474683a3170783b206865696768743a203170783b7d202e62677b77696474683a333070783b206865696768743a20333070783b7d203c2f7374796c653e3c7265637420636c6173733d226267222066696c6c3d2223304436453944222f3ea26469706673582212204f8e48f9082dd5b3a4ffc52fa948907c8d5095ba9bd3da42c0f2e5edee7fdadc64736f6c63430008160033","linkReferences":{"src/TraitCategory.sol":{"TraitCategory":[{"start":27206,"length":20},{"start":30487,"length":20},{"start":31234,"length":20}]}}},"methodIdentifiers":{"approve(address,uint256)":"095ea7b3","balanceOf(address)":"70a08231","burn(uint256)":"42966c68","burnBatch(uint256[])":"e4623c1b","callGetSVGZmapAndMetadataTrait(uint256,string,string,bytes)":"f1271942","callGetSvgAndMetadataTrait(uint256,string,string)":"e08714a6","cancelOwnershipHandover()":"54d1f13d","completeOwnershipHandover(address)":"f04e283e","createSvgFromPixels(bytes)":"21b12c23","getApproved(uint256)":"081812fc","getApprovedOperators(uint256)":"00db6348","getApprovedOperatorsLength(uint256)":"c1ff78be","getCurrentEpoch()":"b97dd9e2","getEpoch()":"757991a8","getEpochData(uint256)":"859e7d32","getGhostSvg()":"5c1ef256","getSVGZmapAndMetadataTrait((uint256,bool,uint256,address,uint256,uint8),uint256)":"f901667f","getStoredTraitForTokenId(uint256)":"208c25a3","getSvgAndMetadata((uint256,uint256,uint256,uint256,uint256,uint256,uint256,uint32,uint256,uint8,string,bool))":"df2c2b88","getSvgAndMetadataTrait((uint256,bool,uint256,address,uint256,uint8),uint256)":"33a70328","getSvgForTokenId(uint256)":"c7791531","getSvgZmapsAndMetadata((uint256,uint256,uint256,uint256,uint256,uint256,uint256,uint32,uint256,uint8,string,bool))":"bb12d21d","getTrait(uint256)":"acb586df","getTraitImage(bytes)":"898aa117","getTraitImageSvg(uint256)":"a5e2912a","getTraitIndexToMetadata(uint256)":"ea139544","getTraitMetadata(uint256)":"d1bfc2af","getTraitType(uint256)":"e8a1268d","getZMapForTokenId(uint256)":"a8498c74","invalidateAllOperatorApprovals(uint256)":"90f63842","isApprovedForAll(address,address)":"e985e9c5","isMinter(address)":"aa271e1a","marketplace()":"abc8c7af","minter()":"07546172","name()":"06fdde03","owner()":"8da5cb5b","ownerOf(uint256)":"6352211e","ownershipHandoverExpiresAt(address)":"fee81cf4","petersMain()":"1ca97604","renderAsDataUri(uint256)":"a1d62680","renounceOwnership()":"715018a6","requestOwnershipHandover()":"25692962","resolveEpochIfNecessary()":"239ffa68","safeMint(address)":"40d097c3","safeTransferFrom(address,address,uint256)":"42842e0e","safeTransferFrom(address,address,uint256,bytes)":"b88d4fde","setApprovalForAll(address,bool)":"a22cb465","setGhostMaps(bytes,bytes)":"e1defed9","setMarketplace(address)":"73ad6c2d","setPetersMain(address)":"a2c12c94","setTraitForTokenId(uint256,(uint256,bool,uint256,address,uint256,uint8))":"36d34ab9","setTraitIndexToMetadata(uint256,(uint256,string,uint8,string,bytes,bytes,address,address,string,string))":"8d37c537","setTraitRenderer(address)":"120def24","signer()":"238ac933","supportsInterface(bytes4)":"01ffc9a7","symbol()":"95d89b41","tokenByIndex(uint256)":"4f6ccce7","tokenOfOwnerByIndex(address,uint256)":"2f745c59","tokenURI(uint256)":"c87b56dd","totalSupply()":"18160ddd","traitIdToApprovedOperators(uint256,uint256)":"11f3910d","traitIndexToMetadata(uint256)":"817a29a4","traitRenderer()":"c876371b","traitTokens()":"e14d026f","transferFrom(address,address,uint256)":"23b872dd","transferOwnership(address)":"f2fde38b","walletOfOwner(address)":"438b6300"},"id":44}