{"abi":[{"type":"constructor","inputs":[{"name":"localDeploy_","type":"bool","internalType":"bool"}],"stateMutability":"nonpayable"},{"type":"function","name":"addMinter","inputs":[{"name":"_minter","type":"address","internalType":"address"}],"outputs":[],"stateMutability":"nonpayable"},{"type":"function","name":"approve","inputs":[{"name":"_operator","type":"address","internalType":"address"},{"name":"_tokenId","type":"uint256","internalType":"uint256"}],"outputs":[],"stateMutability":"nonpayable"},{"type":"function","name":"balanceOf","inputs":[{"name":"owner","type":"address","internalType":"address"}],"outputs":[{"name":"","type":"uint256","internalType":"uint256"}],"stateMutability":"view"},{"type":"function","name":"burn","inputs":[{"name":"tokenId","type":"uint256","internalType":"uint256"}],"outputs":[],"stateMutability":"nonpayable"},{"type":"function","name":"burnBatch","inputs":[{"name":"tokenIds","type":"uint256[]","internalType":"uint256[]"}],"outputs":[],"stateMutability":"nonpayable"},{"type":"function","name":"callGetSVGZmapAndMetadataTrait","inputs":[{"name":"_traitId","type":"uint256","internalType":"uint256"},{"name":"_traitsSvg","type":"string","internalType":"string"},{"name":"_traitsAttributes","type":"string","internalType":"string"},{"name":"_traitZMaps","type":"bytes","internalType":"bytes"}],"outputs":[{"name":"traitsSvg","type":"string","internalType":"string"},{"name":"traitsAttributes","type":"string","internalType":"string"},{"name":"traitZMaps","type":"bytes","internalType":"bytes"}],"stateMutability":"view"},{"type":"function","name":"callGetSvgAndMetadataTrait","inputs":[{"name":"_traitId","type":"uint256","internalType":"uint256"},{"name":"_traitsSvg","type":"string","internalType":"string"},{"name":"_traitsAttributes","type":"string","internalType":"string"}],"outputs":[{"name":"traitsSvg","type":"string","internalType":"string"},{"name":"traitsAttributes","type":"string","internalType":"string"}],"stateMutability":"view"},{"type":"function","name":"cancelOwnershipHandover","inputs":[],"outputs":[],"stateMutability":"payable"},{"type":"function","name":"completeOwnershipHandover","inputs":[{"name":"pendingOwner","type":"address","internalType":"address"}],"outputs":[],"stateMutability":"payable"},{"type":"function","name":"createSvgFromPixels","inputs":[{"name":"_pixels","type":"bytes","internalType":"bytes"}],"outputs":[{"name":"svgParts","type":"bytes","internalType":"bytes"}],"stateMutability":"view"},{"type":"function","name":"getApproved","inputs":[{"name":"tokenId","type":"uint256","internalType":"uint256"}],"outputs":[{"name":"","type":"address","internalType":"address"}],"stateMutability":"view"},{"type":"function","name":"getApprovedOperators","inputs":[{"name":"traitId","type":"uint256","internalType":"uint256"}],"outputs":[{"name":"","type":"address[]","internalType":"address[]"}],"stateMutability":"view"},{"type":"function","name":"getApprovedOperatorsLength","inputs":[{"name":"traitId","type":"uint256","internalType":"uint256"}],"outputs":[{"name":"","type":"uint256","internalType":"uint256"}],"stateMutability":"view"},{"type":"function","name":"getCurrentEpoch","inputs":[],"outputs":[{"name":"","type":"uint256","internalType":"uint256"}],"stateMutability":"view"},{"type":"function","name":"getEpoch","inputs":[],"outputs":[{"name":"","type":"uint256","internalType":"uint256"}],"stateMutability":"view"},{"type":"function","name":"getEpochData","inputs":[{"name":"index","type":"uint256","internalType":"uint256"}],"outputs":[{"name":"","type":"tuple","internalType":"struct CommitReveal.Epoch","components":[{"name":"randomness","type":"uint128","internalType":"uint128"},{"name":"revealBlock","type":"uint64","internalType":"uint64"},{"name":"committed","type":"bool","internalType":"bool"},{"name":"revealed","type":"bool","internalType":"bool"}]}],"stateMutability":"view"},{"type":"function","name":"getGhostSvg","inputs":[],"outputs":[{"name":"svg","type":"string","internalType":"string"}],"stateMutability":"view"},{"type":"function","name":"getSVGZmapAndMetadataTrait","inputs":[{"name":"trait","type":"tuple","internalType":"struct ITraitStorage.StoredTrait","components":[{"name":"epoch","type":"uint256","internalType":"uint256"},{"name":"isRevealed","type":"bool","internalType":"bool"},{"name":"seed","type":"uint256","internalType":"uint256"},{"name":"renderMinterContract","type":"address","internalType":"address"},{"name":"traitIndex","type":"uint256","internalType":"uint256"},{"name":"traitType","type":"uint8","internalType":"enum TraitCategory.Name"}]},{"name":"traitId","type":"uint256","internalType":"uint256"}],"outputs":[{"name":"traitSvg","type":"string","internalType":"string"},{"name":"traitZmap","type":"bytes","internalType":"bytes"},{"name":"traitAttributes","type":"string","internalType":"string"}],"stateMutability":"view"},{"type":"function","name":"getStoredTraitForTokenId","inputs":[{"name":"_tokenId","type":"uint256","internalType":"uint256"}],"outputs":[{"name":"","type":"tuple","internalType":"struct ITraitStorage.StoredTrait","components":[{"name":"epoch","type":"uint256","internalType":"uint256"},{"name":"isRevealed","type":"bool","internalType":"bool"},{"name":"seed","type":"uint256","internalType":"uint256"},{"name":"renderMinterContract","type":"address","internalType":"address"},{"name":"traitIndex","type":"uint256","internalType":"uint256"},{"name":"traitType","type":"uint8","internalType":"enum TraitCategory.Name"}]}],"stateMutability":"view"},{"type":"function","name":"getSvgAndMetadata","inputs":[{"name":"storedPeter","type":"tuple","internalType":"struct IPeterStorage.StoredPeter","components":[{"name":"headId","type":"uint256","internalType":"uint256"},{"name":"hairId","type":"uint256","internalType":"uint256"},{"name":"faceId","type":"uint256","internalType":"uint256"},{"name":"accessoryId","type":"uint256","internalType":"uint256"},{"name":"topId","type":"uint256","internalType":"uint256"},{"name":"bottomId","type":"uint256","internalType":"uint256"},{"name":"shoesId","type":"uint256","internalType":"uint256"},{"name":"epoch","type":"uint32","internalType":"uint32"},{"name":"tokenId","type":"uint256","internalType":"uint256"},{"name":"bodyIndex","type":"uint8","internalType":"uint8"},{"name":"backgroundColor","type":"string","internalType":"string"},{"name":"render3D","type":"bool","internalType":"bool"}]}],"outputs":[{"name":"traitsSvg","type":"string","internalType":"string"},{"name":"traitsAttributes","type":"string","internalType":"string"}],"stateMutability":"view"},{"type":"function","name":"getSvgAndMetadataTrait","inputs":[{"name":"trait","type":"tuple","internalType":"struct ITraitStorage.StoredTrait","components":[{"name":"epoch","type":"uint256","internalType":"uint256"},{"name":"isRevealed","type":"bool","internalType":"bool"},{"name":"seed","type":"uint256","internalType":"uint256"},{"name":"renderMinterContract","type":"address","internalType":"address"},{"name":"traitIndex","type":"uint256","internalType":"uint256"},{"name":"traitType","type":"uint8","internalType":"enum TraitCategory.Name"}]},{"name":"traitId","type":"uint256","internalType":"uint256"}],"outputs":[{"name":"traitSvg","type":"string","internalType":"string"},{"name":"traitAttributes","type":"string","internalType":"string"}],"stateMutability":"view"},{"type":"function","name":"getSvgForTokenId","inputs":[{"name":"_tokenId","type":"uint256","internalType":"uint256"}],"outputs":[{"name":"traitSvg","type":"string","internalType":"string"}],"stateMutability":"view"},{"type":"function","name":"getSvgZmapsAndMetadata","inputs":[{"name":"storedPeter","type":"tuple","internalType":"struct IPeterStorage.StoredPeter","components":[{"name":"headId","type":"uint256","internalType":"uint256"},{"name":"hairId","type":"uint256","internalType":"uint256"},{"name":"faceId","type":"uint256","internalType":"uint256"},{"name":"accessoryId","type":"uint256","internalType":"uint256"},{"name":"topId","type":"uint256","internalType":"uint256"},{"name":"bottomId","type":"uint256","internalType":"uint256"},{"name":"shoesId","type":"uint256","internalType":"uint256"},{"name":"epoch","type":"uint32","internalType":"uint32"},{"name":"tokenId","type":"uint256","internalType":"uint256"},{"name":"bodyIndex","type":"uint8","internalType":"uint8"},{"name":"backgroundColor","type":"string","internalType":"string"},{"name":"render3D","type":"bool","internalType":"bool"}]}],"outputs":[{"name":"traitsSvg","type":"string","internalType":"string"},{"name":"traitZMaps","type":"bytes","internalType":"bytes"},{"name":"traitsAttributes","type":"string","internalType":"string"}],"stateMutability":"view"},{"type":"function","name":"getTrait","inputs":[{"name":"_tokenId","type":"uint256","internalType":"uint256"}],"outputs":[{"name":"","type":"tuple","internalType":"struct ITraitStorage.StoredTrait","components":[{"name":"epoch","type":"uint256","internalType":"uint256"},{"name":"isRevealed","type":"bool","internalType":"bool"},{"name":"seed","type":"uint256","internalType":"uint256"},{"name":"renderMinterContract","type":"address","internalType":"address"},{"name":"traitIndex","type":"uint256","internalType":"uint256"},{"name":"traitType","type":"uint8","internalType":"enum TraitCategory.Name"}]}],"stateMutability":"view"},{"type":"function","name":"getTraitImageSvg","inputs":[{"name":"index","type":"uint256","internalType":"uint256"}],"outputs":[{"name":"svg","type":"string","internalType":"string"}],"stateMutability":"view"},{"type":"function","name":"getTraitIndexToMetadata","inputs":[{"name":"_traitIndex","type":"uint256","internalType":"uint256"}],"outputs":[{"name":"","type":"tuple","internalType":"struct ITraitStorage.TraitMetadata","components":[{"name":"traitIndex","type":"uint256","internalType":"uint256"},{"name":"traitName","type":"string","internalType":"string"},{"name":"traitType","type":"uint8","internalType":"enum TraitCategory.Name"},{"name":"animations","type":"string","internalType":"string"},{"name":"colorMap","type":"bytes","internalType":"bytes"},{"name":"zMap","type":"bytes","internalType":"bytes"},{"name":"renderMinterContract","type":"address","internalType":"address"},{"name":"creatorAddress","type":"address","internalType":"address"},{"name":"creatorName","type":"string","internalType":"string"},{"name":"season","type":"string","internalType":"string"}]}],"stateMutability":"view"},{"type":"function","name":"getTraitMetadata","inputs":[{"name":"_tokenId","type":"uint256","internalType":"uint256"}],"outputs":[{"name":"","type":"tuple","internalType":"struct ITraitStorage.TraitMetadata","components":[{"name":"traitIndex","type":"uint256","internalType":"uint256"},{"name":"traitName","type":"string","internalType":"string"},{"name":"traitType","type":"uint8","internalType":"enum TraitCategory.Name"},{"name":"animations","type":"string","internalType":"string"},{"name":"colorMap","type":"bytes","internalType":"bytes"},{"name":"zMap","type":"bytes","internalType":"bytes"},{"name":"renderMinterContract","type":"address","internalType":"address"},{"name":"creatorAddress","type":"address","internalType":"address"},{"name":"creatorName","type":"string","internalType":"string"},{"name":"season","type":"string","internalType":"string"}]}],"stateMutability":"view"},{"type":"function","name":"getTraitType","inputs":[{"name":"_tokenId","type":"uint256","internalType":"uint256"}],"outputs":[{"name":"","type":"uint8","internalType":"enum TraitCategory.Name"}],"stateMutability":"view"},{"type":"function","name":"getZMapForTokenId","inputs":[{"name":"_tokenId","type":"uint256","internalType":"uint256"}],"outputs":[{"name":"","type":"string","internalType":"string"}],"stateMutability":"view"},{"type":"function","name":"invalidateAllOperatorApprovals","inputs":[{"name":"_tokenId","type":"uint256","internalType":"uint256"}],"outputs":[],"stateMutability":"nonpayable"},{"type":"function","name":"isApprovedForAll","inputs":[{"name":"owner","type":"address","internalType":"address"},{"name":"operator","type":"address","internalType":"address"}],"outputs":[{"name":"","type":"bool","internalType":"bool"}],"stateMutability":"view"},{"type":"function","name":"isMinter","inputs":[{"name":"","type":"address","internalType":"address"}],"outputs":[{"name":"","type":"bool","internalType":"bool"}],"stateMutability":"view"},{"type":"function","name":"marketplace","inputs":[],"outputs":[{"name":"","type":"address","internalType":"contract ChonksMarket"}],"stateMutability":"view"},{"type":"function","name":"name","inputs":[],"outputs":[{"name":"","type":"string","internalType":"string"}],"stateMutability":"view"},{"type":"function","name":"owner","inputs":[],"outputs":[{"name":"result","type":"address","internalType":"address"}],"stateMutability":"view"},{"type":"function","name":"ownerOf","inputs":[{"name":"tokenId","type":"uint256","internalType":"uint256"}],"outputs":[{"name":"","type":"address","internalType":"address"}],"stateMutability":"view"},{"type":"function","name":"ownershipHandoverExpiresAt","inputs":[{"name":"pendingOwner","type":"address","internalType":"address"}],"outputs":[{"name":"result","type":"uint256","internalType":"uint256"}],"stateMutability":"view"},{"type":"function","name":"petersMain","inputs":[],"outputs":[{"name":"","type":"address","internalType":"contract PetersMain"}],"stateMutability":"view"},{"type":"function","name":"removeMinter","inputs":[{"name":"_minter","type":"address","internalType":"address"}],"outputs":[],"stateMutability":"nonpayable"},{"type":"function","name":"renderAsDataUri","inputs":[{"name":"_tokenId","type":"uint256","internalType":"uint256"}],"outputs":[{"name":"","type":"string","internalType":"string"}],"stateMutability":"view"},{"type":"function","name":"renounceOwnership","inputs":[],"outputs":[],"stateMutability":"payable"},{"type":"function","name":"requestOwnershipHandover","inputs":[],"outputs":[],"stateMutability":"payable"},{"type":"function","name":"resolveEpochIfNecessary","inputs":[],"outputs":[],"stateMutability":"nonpayable"},{"type":"function","name":"safeMint","inputs":[{"name":"_to","type":"address","internalType":"address"}],"outputs":[{"name":"","type":"uint256","internalType":"uint256"}],"stateMutability":"nonpayable"},{"type":"function","name":"safeTransferFrom","inputs":[{"name":"from","type":"address","internalType":"address"},{"name":"to","type":"address","internalType":"address"},{"name":"tokenId","type":"uint256","internalType":"uint256"}],"outputs":[],"stateMutability":"nonpayable"},{"type":"function","name":"safeTransferFrom","inputs":[{"name":"from","type":"address","internalType":"address"},{"name":"to","type":"address","internalType":"address"},{"name":"tokenId","type":"uint256","internalType":"uint256"},{"name":"data","type":"bytes","internalType":"bytes"}],"outputs":[],"stateMutability":"nonpayable"},{"type":"function","name":"setApprovalForAll","inputs":[{"name":"_operator","type":"address","internalType":"address"},{"name":"_approved","type":"bool","internalType":"bool"}],"outputs":[],"stateMutability":"nonpayable"},{"type":"function","name":"setGhostMaps","inputs":[{"name":"_colorMap","type":"bytes","internalType":"bytes"},{"name":"_zMap","type":"bytes","internalType":"bytes"}],"outputs":[],"stateMutability":"nonpayable"},{"type":"function","name":"setMarketplace","inputs":[{"name":"_marketplace","type":"address","internalType":"address"}],"outputs":[],"stateMutability":"nonpayable"},{"type":"function","name":"setPetersMain","inputs":[{"name":"_petersMain","type":"address","internalType":"address"}],"outputs":[],"stateMutability":"nonpayable"},{"type":"function","name":"setTraitForTokenId","inputs":[{"name":"_tokenId","type":"uint256","internalType":"uint256"},{"name":"_trait","type":"tuple","internalType":"struct ITraitStorage.StoredTrait","components":[{"name":"epoch","type":"uint256","internalType":"uint256"},{"name":"isRevealed","type":"bool","internalType":"bool"},{"name":"seed","type":"uint256","internalType":"uint256"},{"name":"renderMinterContract","type":"address","internalType":"address"},{"name":"traitIndex","type":"uint256","internalType":"uint256"},{"name":"traitType","type":"uint8","internalType":"enum TraitCategory.Name"}]}],"outputs":[],"stateMutability":"nonpayable"},{"type":"function","name":"setTraitIndexToMetadata","inputs":[{"name":"_traitIndex","type":"uint256","internalType":"uint256"},{"name":"_metadata","type":"tuple","internalType":"struct ITraitStorage.TraitMetadata","components":[{"name":"traitIndex","type":"uint256","internalType":"uint256"},{"name":"traitName","type":"string","internalType":"string"},{"name":"traitType","type":"uint8","internalType":"enum TraitCategory.Name"},{"name":"animations","type":"string","internalType":"string"},{"name":"colorMap","type":"bytes","internalType":"bytes"},{"name":"zMap","type":"bytes","internalType":"bytes"},{"name":"renderMinterContract","type":"address","internalType":"address"},{"name":"creatorAddress","type":"address","internalType":"address"},{"name":"creatorName","type":"string","internalType":"string"},{"name":"season","type":"string","internalType":"string"}]}],"outputs":[],"stateMutability":"nonpayable"},{"type":"function","name":"setTraitRenderer","inputs":[{"name":"_traitRenderer","type":"address","internalType":"address"}],"outputs":[],"stateMutability":"nonpayable"},{"type":"function","name":"signer","inputs":[],"outputs":[{"name":"","type":"address","internalType":"address"}],"stateMutability":"view"},{"type":"function","name":"supportsInterface","inputs":[{"name":"interfaceId","type":"bytes4","internalType":"bytes4"}],"outputs":[{"name":"","type":"bool","internalType":"bool"}],"stateMutability":"view"},{"type":"function","name":"symbol","inputs":[],"outputs":[{"name":"","type":"string","internalType":"string"}],"stateMutability":"view"},{"type":"function","name":"tokenByIndex","inputs":[{"name":"index","type":"uint256","internalType":"uint256"}],"outputs":[{"name":"","type":"uint256","internalType":"uint256"}],"stateMutability":"view"},{"type":"function","name":"tokenOfOwnerByIndex","inputs":[{"name":"owner","type":"address","internalType":"address"},{"name":"index","type":"uint256","internalType":"uint256"}],"outputs":[{"name":"","type":"uint256","internalType":"uint256"}],"stateMutability":"view"},{"type":"function","name":"tokenURI","inputs":[{"name":"_tokenId","type":"uint256","internalType":"uint256"}],"outputs":[{"name":"","type":"string","internalType":"string"}],"stateMutability":"view"},{"type":"function","name":"totalSupply","inputs":[],"outputs":[{"name":"","type":"uint256","internalType":"uint256"}],"stateMutability":"view"},{"type":"function","name":"traitIdToApprovedOperators","inputs":[{"name":"traitId","type":"uint256","internalType":"uint256"},{"name":"","type":"uint256","internalType":"uint256"}],"outputs":[{"name":"operators","type":"address","internalType":"address"}],"stateMutability":"view"},{"type":"function","name":"traitIndexToMetadata","inputs":[{"name":"","type":"uint256","internalType":"uint256"}],"outputs":[{"name":"traitIndex","type":"uint256","internalType":"uint256"},{"name":"traitName","type":"string","internalType":"string"},{"name":"traitType","type":"uint8","internalType":"enum TraitCategory.Name"},{"name":"animations","type":"string","internalType":"string"},{"name":"colorMap","type":"bytes","internalType":"bytes"},{"name":"zMap","type":"bytes","internalType":"bytes"},{"name":"renderMinterContract","type":"address","internalType":"address"},{"name":"creatorAddress","type":"address","internalType":"address"},{"name":"creatorName","type":"string","internalType":"string"},{"name":"season","type":"string","internalType":"string"}],"stateMutability":"view"},{"type":"function","name":"traitRenderer","inputs":[],"outputs":[{"name":"","type":"address","internalType":"contract TraitRenderer"}],"stateMutability":"view"},{"type":"function","name":"traitTokens","inputs":[],"outputs":[{"name":"epoch","type":"uint256","internalType":"uint256"}],"stateMutability":"view"},{"type":"function","name":"transferFrom","inputs":[{"name":"from","type":"address","internalType":"address"},{"name":"to","type":"address","internalType":"address"},{"name":"tokenId","type":"uint256","internalType":"uint256"}],"outputs":[],"stateMutability":"nonpayable"},{"type":"function","name":"transferOwnership","inputs":[{"name":"newOwner","type":"address","internalType":"address"}],"outputs":[],"stateMutability":"payable"},{"type":"function","name":"walletOfOwner","inputs":[{"name":"_owner","type":"address","internalType":"address"}],"outputs":[{"name":"","type":"uint256[]","internalType":"uint256[]"}],"stateMutability":"view"},{"type":"event","name":"AllOperatorApprovalsInvalidated","inputs":[{"name":"tokenId","type":"uint256","indexed":true,"internalType":"uint256"}],"anonymous":false},{"type":"event","name":"Approval","inputs":[{"name":"owner","type":"address","indexed":true,"internalType":"address"},{"name":"approved","type":"address","indexed":true,"internalType":"address"},{"name":"tokenId","type":"uint256","indexed":true,"internalType":"uint256"}],"anonymous":false},{"type":"event","name":"ApprovalForAll","inputs":[{"name":"owner","type":"address","indexed":true,"internalType":"address"},{"name":"operator","type":"address","indexed":true,"internalType":"address"},{"name":"approved","type":"bool","indexed":false,"internalType":"bool"}],"anonymous":false},{"type":"event","name":"BatchMetadataUpdate","inputs":[{"name":"_fromTokenId","type":"uint256","indexed":false,"internalType":"uint256"},{"name":"_toTokenId","type":"uint256","indexed":false,"internalType":"uint256"}],"anonymous":false},{"type":"event","name":"MetadataUpdate","inputs":[{"name":"_tokenId","type":"uint256","indexed":false,"internalType":"uint256"}],"anonymous":false},{"type":"event","name":"Mint","inputs":[{"name":"owner","type":"address","indexed":true,"internalType":"address"},{"name":"tokenId","type":"uint256","indexed":true,"internalType":"uint256"}],"anonymous":false},{"type":"event","name":"NewEpoch","inputs":[{"name":"epoch","type":"uint256","indexed":true,"internalType":"uint256"},{"name":"revealBlock","type":"uint64","indexed":true,"internalType":"uint64"}],"anonymous":false},{"type":"event","name":"OwnershipHandoverCanceled","inputs":[{"name":"pendingOwner","type":"address","indexed":true,"internalType":"address"}],"anonymous":false},{"type":"event","name":"OwnershipHandoverRequested","inputs":[{"name":"pendingOwner","type":"address","indexed":true,"internalType":"address"}],"anonymous":false},{"type":"event","name":"OwnershipTransferred","inputs":[{"name":"oldOwner","type":"address","indexed":true,"internalType":"address"},{"name":"newOwner","type":"address","indexed":true,"internalType":"address"}],"anonymous":false},{"type":"event","name":"Transfer","inputs":[{"name":"from","type":"address","indexed":true,"internalType":"address"},{"name":"to","type":"address","indexed":true,"internalType":"address"},{"name":"tokenId","type":"uint256","indexed":true,"internalType":"uint256"}],"anonymous":false},{"type":"error","name":"AlreadyInitialized","inputs":[]},{"type":"error","name":"CantTransfer","inputs":[]},{"type":"error","name":"NewOwnerIsZeroAddress","inputs":[]},{"type":"error","name":"NoHandoverRequest","inputs":[]},{"type":"error","name":"NotATBA","inputs":[]},{"type":"error","name":"NotAValidMinterContract","inputs":[]},{"type":"error","name":"NotYourTrait","inputs":[]},{"type":"error","name":"SetMarketplaceAddress","inputs":[]},{"type":"error","name":"SetPetersMainAddress","inputs":[]},{"type":"error","name":"TraitNotFound","inputs":[{"name":"_tokenId","type":"uint256","internalType":"uint256"}]},{"type":"error","name":"TraitTokenDoesntExist","inputs":[]},{"type":"error","name":"Unauthorized","inputs":[]}],"bytecode":{"object":"0x60806040523480156200001157600080fd5b506040516200907e3803806200907e833981016040819052620000349162000152565b6040518060400160405280600b81526020016a506574657254726169747360a81b81525060405180604001604052806003815260200162282a2960e91b815250816000908162000085919062000224565b50600162000094828262000224565b50506001600a5550620000a73362000108565b6015805460ff1916821515179055604051620000c39062000144565b604051809103906000f080158015620000e0573d6000803e3d6000fd5b50600e80546001600160a01b0319166001600160a01b039290921691909117905550620002f0565b6001600160a01b0316638b78c6d8198190558060007f8be0079c531659141344cd1fd0a4f28419497f9722a3daafe3b4186f6b6457e08180a350565b612fc680620060b883390190565b6000602082840312156200016557600080fd5b815180151581146200017657600080fd5b9392505050565b634e487b7160e01b600052604160045260246000fd5b600181811c90821680620001a857607f821691505b602082108103620001c957634e487b7160e01b600052602260045260246000fd5b50919050565b601f8211156200021f576000816000526020600020601f850160051c81016020861015620001fa5750805b601f850160051c820191505b818110156200021b5782815560010162000206565b5050505b505050565b81516001600160401b038111156200024057620002406200017d565b620002588162000251845462000193565b84620001cf565b602080601f831160018114620002905760008415620002775750858301515b600019600386901b1c1916600185901b1785556200021b565b600085815260208120601f198616915b82811015620002c157888601518255948401946001909101908401620002a0565b5085821015620002e05787850151600019600388901b60f8161c191681555b5050505050600190811b01905550565b615db880620003006000396000f3fe6080604052600436106103e35760003560e01c80638d37c53711610208578063c779153111610118578063e4623c1b116100ab578063f04e283e1161007a578063f04e283e14610cb9578063f127194214610ccc578063f2fde38b14610cec578063f901667f14610cff578063fee81cf414610d1f57600080fd5b8063e4623c1b14610c03578063e8a1268d14610c23578063e985e9c514610c50578063ea13954414610c9957600080fd5b8063df2c2b88116100e7578063df2c2b8814610b8c578063e08714a614610bac578063e14d026f14610bcc578063e1defed914610be357600080fd5b8063c779153114610aff578063c876371b14610b1f578063c87b56dd14610b3f578063d1bfc2af14610b5f57600080fd5b8063a5e2912a1161019b578063acb586df1161016a578063acb586df14610a63578063b88d4fde14610a83578063b97dd9e2146107b3578063bb12d21d14610aa3578063c1ff78be14610ad257600080fd5b8063a5e2912a146109d3578063a8498c74146109f3578063aa271e1a14610a13578063abc8c7af14610a4357600080fd5b8063983b2d56116101d7578063983b2d5614610953578063a1d6268014610973578063a22cb46514610993578063a2c12c94146109b357600080fd5b80638d37c537146108e55780638da5cb5b1461090557806390f638421461091e57806395d89b411461093e57600080fd5b80633092afd51161030357806354d1f13d11610296578063715018a611610265578063715018a61461078b57806373ad6c2d14610793578063757991a8146107b3578063817a29a4146107c8578063859e7d32146107fe57600080fd5b806354d1f13d1461072e5780635c1ef256146107365780636352211e1461074b57806370a082311461076b57600080fd5b806342842e0e116102d257806342842e0e146106a157806342966c68146106c1578063438b6300146106e15780634f6ccce71461070e57600080fd5b80633092afd51461061357806333a703281461063357806336d34ab91461066157806340d097c31461068157600080fd5b80631ca976041161037b578063239ffa681161034a578063239ffa68146105b657806323b872dd146105cb57806325692962146105eb5780632f745c59146105f357600080fd5b80631ca9760414610529578063208c25a31461054957806321b12c2314610576578063238ac9331461059657600080fd5b8063095ea7b3116103b7578063095ea7b3146104a857806311f3910d146104ca578063120def24146104ea57806318160ddd1461050a57600080fd5b8062db6348146103e857806301ffc9a71461041e57806306fdde031461044e578063081812fc14610470575b600080fd5b3480156103f457600080fd5b50610408610403366004614825565b610d52565b604051610415919061483e565b60405180910390f35b34801561042a57600080fd5b5061043e6104393660046148a1565b610dbe565b6040519015158152602001610415565b34801561045a57600080fd5b50610463610dcf565b6040516104159190614915565b34801561047c57600080fd5b5061049061048b366004614825565b610e61565b6040516001600160a01b039091168152602001610415565b3480156104b457600080fd5b506104c86104c336600461494d565b610e88565b005b3480156104d657600080fd5b506104906104e5366004614979565b6110b3565b3480156104f657600080fd5b506104c861050536600461499b565b6110eb565b34801561051657600080fd5b506008545b604051908152602001610415565b34801561053557600080fd5b50601254610490906001600160a01b031681565b34801561055557600080fd5b50610569610564366004614825565b611115565b6040516104159190614a38565b34801561058257600080fd5b50610463610591366004614b77565b6111dd565b3480156105a257600080fd5b50600f54610490906001600160a01b031681565b3480156105c257600080fd5b506104c8611253565b3480156105d757600080fd5b506104c86105e6366004614bab565b61142f565b6104c861146e565b3480156105ff57600080fd5b5061051b61060e36600461494d565b6114bd565b34801561061f57600080fd5b506104c861062e36600461499b565b611553565b34801561063f57600080fd5b5061065361064e366004614c90565b61157c565b604051610415929190614cbb565b34801561066d57600080fd5b506104c861067c366004614ce0565b611617565b34801561068d57600080fd5b5061051b61069c36600461499b565b6116b0565b3480156106ad57600080fd5b506104c86106bc366004614bab565b611751565b3480156106cd57600080fd5b506104c86106dc366004614825565b61176c565b3480156106ed57600080fd5b506107016106fc36600461499b565b611775565b6040516104159190614d0d565b34801561071a57600080fd5b5061051b610729366004614825565b61188a565b6104c861191d565b34801561074257600080fd5b50610463611959565b34801561075757600080fd5b50610490610766366004614825565b6119d0565b34801561077757600080fd5b5061051b61078636600461499b565b611a30565b6104c8611ab6565b34801561079f57600080fd5b506104c86107ae36600461499b565b611aca565b3480156107bf57600080fd5b50600c5461051b565b3480156107d457600080fd5b506107e86107e3366004614825565b611af4565b6040516104159a99989796959493929190614d45565b34801561080a57600080fd5b5061089c610819366004614825565b6040805160808082018352600080835260208084018290528385018290526060938401829052948152600d855283902083519182018452546001600160801b03811682526001600160401b03600160801b8204169482019490945260ff600160c01b85048116151593820193909352600160c81b90930490911615159082015290565b604051610415919081516001600160801b031681526020808301516001600160401b03169082015260408083015115159082015260609182015115159181019190915260800190565b3480156108f157600080fd5b506104c8610900366004614dfa565b611e8c565b34801561091157600080fd5b50638b78c6d81954610490565b34801561092a57600080fd5b506104c8610939366004614825565b611f8b565b34801561094a57600080fd5b50610463612111565b34801561095f57600080fd5b506104c861096e36600461499b565b612120565b34801561097f57600080fd5b5061046361098e366004614825565b61214c565b34801561099f57600080fd5b506104c86109ae366004614f68565b61223f565b3480156109bf57600080fd5b506104c86109ce36600461499b565b61247c565b3480156109df57600080fd5b506104636109ee366004614825565b6124a6565b3480156109ff57600080fd5b50610463610a0e366004614825565b6124e8565b348015610a1f57600080fd5b5061043e610a2e36600461499b565b60146020526000908152604090205460ff1681565b348015610a4f57600080fd5b50601354610490906001600160a01b031681565b348015610a6f57600080fd5b50610569610a7e366004614825565b6125a0565b348015610a8f57600080fd5b506104c8610a9e366004614fa1565b61273f565b348015610aaf57600080fd5b50610ac3610abe366004615031565b612777565b6040516104159392919061512a565b348015610ade57600080fd5b5061051b610aed366004614825565b60009081526011602052604090205490565b348015610b0b57600080fd5b50610463610b1a366004614825565b612806565b348015610b2b57600080fd5b50600e54610490906001600160a01b031681565b348015610b4b57600080fd5b50610463610b5a366004614825565b61285c565b348015610b6b57600080fd5b50610b7f610b7a366004614825565b61289d565b604051610415919061516d565b348015610b9857600080fd5b50610653610ba7366004615031565b612caa565b348015610bb857600080fd5b50610653610bc7366004615276565b612d35565b348015610bd857600080fd5b50600c5461051b9081565b348015610bef57600080fd5b506104c8610bfe3660046152e2565b612de2565b348015610c0f57600080fd5b506104c8610c1e366004615345565b612e52565b348015610c2f57600080fd5b50610c43610c3e366004614825565b612e88565b60405161041591906153ea565b348015610c5c57600080fd5b5061043e610c6b3660046153f8565b6001600160a01b03918216600090815260056020908152604080832093909416825291909152205460ff1690565b348015610ca557600080fd5b50610b7f610cb4366004614825565b613295565b6104c8610cc736600461499b565b613690565b348015610cd857600080fd5b50610ac3610ce7366004615426565b6136cd565b6104c8610cfa36600461499b565b613783565b348015610d0b57600080fd5b50610ac3610d1a366004614c90565b6137aa565b348015610d2b57600080fd5b5061051b610d3a36600461499b565b63389a75e1600c908152600091909152602090205490565b600081815260116020908152604091829020805483518184028101840190945280845260609392830182828015610db257602002820191906000526020600020905b81546001600160a01b03168152600190910190602001808311610d94575b50505050509050919050565b6000610dc982613849565b92915050565b606060008054610dde906154ab565b80601f0160208091040260200160405190810160405280929190818152602001828054610e0a906154ab565b8015610e575780601f10610e2c57610100808354040283529160200191610e57565b820191906000526020600020905b815481529060010190602001808311610e3a57829003601f168201915b5050505050905090565b6000610e6c8261386e565b506000908152600460205260409020546001600160a01b031690565b6000818152600260205260409020546001600160a01b0316610ebd57604051632df0e24560e21b815260040160405180910390fd5b33610ec7826119d0565b6001600160a01b031614610eee57604051633e79b9f360e01b815260040160405180910390fd5b6001600160a01b03821661100f576000818152601160205260408120905b815481101561100857836001600160a01b0316828281548110610f3157610f316154df565b6000918252602090912001546001600160a01b0316036110005781548290610f5b9060019061550b565b81548110610f6b57610f6b6154df565b9060005260206000200160009054906101000a90046001600160a01b0316828281548110610f9b57610f9b6154df565b9060005260206000200160006101000a8154816001600160a01b0302191690836001600160a01b0316021790555081805480610fd957610fd961551e565b600082815260209020810160001990810180546001600160a01b0319169055019055611008565b600101610f0c565b50506110a5565b600081815260116020526040812090805b825481101561107057846001600160a01b0316838281548110611045576110456154df565b6000918252602090912001546001600160a01b0316036110685760019150611070565b600101611020565b50806110a25781546001810183556000838152602090200180546001600160a01b0319166001600160a01b0386161790555b50505b6110af82826138cd565b5050565b601160205281600052604060002081815481106110cf57600080fd5b6000918252602090912001546001600160a01b03169150829050565b6110f36139dd565b600e80546001600160a01b0319166001600160a01b0392909216919091179055565b61114b6040805160c08101825260008082526020820181905291810182905260608101829052608081018290529060a082015290565b6000828152600b6020908152604091829020825160c08101845281548152600182015460ff90811615159382019390935260028201549381019390935260038101546001600160a01b03166060840152600481015460808401526005810154909160a08401911660078111156111c3576111c36149b8565b60078111156111d4576111d46149b8565b90525092915050565b600e546040516321b12c2360e01b81526060916001600160a01b0316906321b12c239061120e908590600401614915565b600060405180830381865afa15801561122b573d6000803e3d6000fd5b505050506040513d6000823e601f3d908101601f19168201604052610dc99190810190615579565b600c546000908152600d602052604090208054600160c01b900460ff1615806112ab57508054600160c81b900460ff161580156112ab57506112976101004361550b565b8154600160801b90046001600160401b0316105b156112f6576112bb4360326155ad565b815460ff60c01b196001600160401b0392909216600160801b029190911668ffffffffffffffffff60801b1990911617600160c01b17815550565b8054600160801b90046001600160401b031643111561142c57805460408051600160801b9092046001600160401b031640602083015244908201526001600160801b03906060016040516020818303038152906040528051906020012060001c61136091906155c0565b8154600160c81b6001600160801b039290921679ff000000000000000000ffffffffffffffffffffffffffffffff199091161717808255600c54604051600160801b9092046001600160401b0316917f78611aecfda8d341359c248df527c95aef93d446c92bb928b2a81b7abcb1d8d990600090a3604080516000815260001960208201527f6bd5c950a8d8df17f772f5af37cb3655737899cbf903264b9795592da439661c910160405180910390a1600c8054600090611420906155e2565b9091555061142c611253565b50565b61143933826139f8565b61145e5760405162461bcd60e51b8152600401611455906155fb565b60405180910390fd5b611469838383613a76565b505050565b60006202a3006001600160401b03164201905063389a75e1600c5233600052806020600c2055337fdbf36a107da19e49527a7176a1babf963b4b0ff8cde35ee35d6cd8f1f9ac7e1d600080a250565b60006114c883611a30565b821061152a5760405162461bcd60e51b815260206004820152602b60248201527f455243373231456e756d657261626c653a206f776e657220696e646578206f7560448201526a74206f6620626f756e647360a81b6064820152608401611455565b506001600160a01b03919091166000908152600660209081526040808320938352929052205490565b61155b6139dd565b6001600160a01b03166000908152601460205260409020805460ff19169055565b600e5460808301516000908152601060205260409081902090516317de5cbf60e11b815260609283926001600160a01b0390911691632fbcb97e916115c791889188916004016157a4565b600060405180830381865afa1580156115e4573d6000803e3d6000fd5b505050506040513d6000823e601f3d908101601f1916820160405261160c91908101906157cb565b915091509250929050565b6000828152600b602090815260409182902083518155908301516001808301805492151560ff1993841617905592840151600283015560608401516003830180546001600160a01b039092166001600160a01b03199092169190911790556080840151600483015560a08401516005830180548695929391929116908360078111156116a5576116a56149b8565b021790555050505050565b3360008181526014602052604081205490919060ff166116e35760405163090a0b6960e21b815260040160405180910390fd5b6116eb611253565b60006116f660085490565b6117019060016155ad565b905061170d8482613c23565b604080516000815260001960208201527f6bd5c950a8d8df17f772f5af37cb3655737899cbf903264b9795592da439661c910160405180910390a191505b50919050565b6114698383836040518060200160405280600081525061273f565b61142c81613c3d565b60606117b26040518060400160405280601181526020017062616c616e63654f66285f6f776e65722960781b8152506117ad84611a30565b613cec565b60006117bd83611a30565b90506000816001600160401b038111156117d9576117d9614a46565b604051908082528060200260200182016040528015611802578160200160208202803683370190505b50905060005b82811015611882576118536040518060400160405280601e81526020017f746f6b656e4f664f776e65724279496e646578285f6f776e65722c20692900008152506117ad87846114bd565b61185d85826114bd565b82828151811061186f5761186f6154df565b6020908102919091010152600101611808565b509392505050565b600061189560085490565b82106118f85760405162461bcd60e51b815260206004820152602c60248201527f455243373231456e756d657261626c653a20676c6f62616c20696e646578206f60448201526b7574206f6620626f756e647360a01b6064820152608401611455565b6008828154811061190b5761190b6154df565b90600052602060002001549050919050565b63389a75e1600c523360005260006020600c2055337ffa7b8eab7da67f412cc9575ed43464468f9bfbae89d1675917346ca6d8fe3c92600080a2565b600e5460408051632e0f792b60e11b815290516060926001600160a01b031691635c1ef2569160048083019260009291908290030181865afa1580156119a3573d6000803e3d6000fd5b505050506040513d6000823e601f3d908101601f191682016040526119cb9190810190615579565b905090565b6000818152600260205260408120546001600160a01b031680610dc95760405162461bcd60e51b8152602060048201526018602482015277115490cdcc8c4e881a5b9d985b1a59081d1bdad95b88125160421b6044820152606401611455565b60006001600160a01b038216611a9a5760405162461bcd60e51b815260206004820152602960248201527f4552433732313a2061646472657373207a65726f206973206e6f7420612076616044820152683634b21037bbb732b960b91b6064820152608401611455565b506001600160a01b031660009081526003602052604090205490565b611abe6139dd565b611ac86000613d31565b565b611ad26139dd565b601380546001600160a01b0319166001600160a01b0392909216919091179055565b60106020526000908152604090208054600182018054919291611b16906154ab565b80601f0160208091040260200160405190810160405280929190818152602001828054611b42906154ab565b8015611b8f5780601f10611b6457610100808354040283529160200191611b8f565b820191906000526020600020905b815481529060010190602001808311611b7257829003601f168201915b5050506002840154600385018054949560ff909216949193509150611bb3906154ab565b80601f0160208091040260200160405190810160405280929190818152602001828054611bdf906154ab565b8015611c2c5780601f10611c0157610100808354040283529160200191611c2c565b820191906000526020600020905b815481529060010190602001808311611c0f57829003601f168201915b505050505090806004018054611c41906154ab565b80601f0160208091040260200160405190810160405280929190818152602001828054611c6d906154ab565b8015611cba5780601f10611c8f57610100808354040283529160200191611cba565b820191906000526020600020905b815481529060010190602001808311611c9d57829003601f168201915b505050505090806005018054611ccf906154ab565b80601f0160208091040260200160405190810160405280929190818152602001828054611cfb906154ab565b8015611d485780601f10611d1d57610100808354040283529160200191611d48565b820191906000526020600020905b815481529060010190602001808311611d2b57829003601f168201915b5050506006840154600785015460088601805495966001600160a01b0393841696929093169450919250611d7b906154ab565b80601f0160208091040260200160405190810160405280929190818152602001828054611da7906154ab565b8015611df45780601f10611dc957610100808354040283529160200191611df4565b820191906000526020600020905b815481529060010190602001808311611dd757829003601f168201915b505050505090806009018054611e09906154ab565b80601f0160208091040260200160405190810160405280929190818152602001828054611e35906154ab565b8015611e825780601f10611e5757610100808354040283529160200191611e82565b820191906000526020600020905b815481529060010190602001808311611e6557829003601f168201915b505050505090508a565b600082815260106020908152604090912082518155908201518291906001820190611eb7908261586c565b50604082015160028201805460ff19166001836007811115611edb57611edb6149b8565b021790555060608201516003820190611ef4908261586c565b5060808201516004820190611f09908261586c565b5060a08201516005820190611f1e908261586c565b5060c08201516006820180546001600160a01b039283166001600160a01b03199182161790915560e08401516007840180549190931691161790556101008201516008820190611f6e908261586c565b506101208201516009820190611f84908261586c565b5050505050565b6000818152600260205260409020546001600160a01b0316611fc057604051632df0e24560e21b815260040160405180910390fd5b33611fca826119d0565b6001600160a01b031614158015611fec57506012546001600160a01b03163314155b1561200a57604051633e79b9f360e01b815260040160405180910390fd5b60008181526011602090815260408083208054825181850281018501909352808352919290919083018282801561206a57602002820191906000526020600020905b81546001600160a01b0316815260019091019060200180831161204c575b50505050509050805160000361207e575050565b612089600083613d6f565b60005b81518110156120ca576120c26120a1846119d0565b8383815181106120b3576120b36154df565b60200260200101516000613ddd565b60010161208c565b5060008281526011602052604081206120e291614789565b60405182907fe6727257e6b1474b2ced9b705eafa89027508be445f1a76db669635c92f5242090600090a25050565b606060018054610dde906154ab565b6121286139dd565b6001600160a01b03166000908152601460205260409020805460ff19166001179055565b60606000612159836125a0565b90506000816020015161218f576040518060400160405280600b81526020016a1e39bb339f1e17b9bb339f60a91b81525061219c565b61219c82608001516124a6565b600e54608084015160009081526010602052604090209192506001600160a01b03169063a5e11e0590869085906121d1611959565b866040518663ffffffff1660e01b81526004016121f295949392919061592b565b600060405180830381865afa15801561220f573d6000803e3d6000fd5b505050506040513d6000823e601f3d908101601f191682016040526122379190810190615579565b949350505050565b336001600160a01b038316036122935760405162461bcd60e51b815260206004820152601960248201527822a9219b99189d1030b8383937bb32903a379031b0b63632b960391b6044820152606401611455565b600061229e33611a30565b905060005b818110156124715760006122b733836114bd565b9050831561235957600081815260116020526040812090805b825481101561232057876001600160a01b03168382815481106122f5576122f56154df565b6000918252602090912001546001600160a01b0316036123185760019150612320565b6001016122d0565b50806123525781546001810183556000838152602090200180546001600160a01b0319166001600160a01b0389161790555b5050612468565b6000818152601160205260408120905b815481101561246557866001600160a01b031682828154811061238e5761238e6154df565b6000918252602090912001546001600160a01b03160361245d57815482906123b89060019061550b565b815481106123c8576123c86154df565b9060005260206000200160009054906101000a90046001600160a01b03168282815481106123f8576123f86154df565b9060005260206000200160006101000a8154816001600160a01b0302191690836001600160a01b03160217905550818054806124365761243661551e565b600082815260209020810160001990810180546001600160a01b0319169055019055612465565b600101612369565b50505b506001016122a3565b506114698383613ea7565b6124846139dd565b601280546001600160a01b0319166001600160a01b0392909216919091179055565b600e54600082815260106020526040908190209051631349027b60e31b81526060926001600160a01b031691639a4813d89161120e916004908101910161597c565b606060006124f5836125a0565b6080810151600090815260106020526040902060050180549192509061251a906154ab565b80601f0160208091040260200160405190810160405280929190818152602001828054612546906154ab565b80156125935780601f1061256857610100808354040283529160200191612593565b820191906000526020600020905b81548152906001019060200180831161257657829003601f168201915b5050505050915050919050565b6125d66040805160c08101825260008082526020820181905291810182905260608101829052608081018290529060a082015290565b6000828152600b60209081526040808320815160c08101835281548152600182015460ff90811615159482019490945260028201549281019290925260038101546001600160a01b031660608301526004810154608083015260058101549192909160a084019116600781111561264f5761264f6149b8565b6007811115612660576126606149b8565b90525080516000908152600d602052604090205460608201519192506001600160801b0316906001600160a01b03811615801561269f57506040830151155b156126c05760405163082d451d60e01b815260048101869052602401611455565b60155460405163687d69df60e11b81526001600160a01b0383169163d0fad3be916126f59160ff16908790879060040161598f565b60c060405180830381865afa158015612712573d6000803e3d6000fd5b505050506040513d601f19601f8201168201806040525081019061273691906159bd565b95945050505050565b61274933836139f8565b6127655760405162461bcd60e51b8152600401611455906155fb565b61277184848484613eb2565b50505050565b600e54604051635ab38bf760e01b8152606091829182916001600160a01b031690635ab38bf7906127b4908790309063f127194290600401615ae0565b600060405180830381865afa1580156127d1573d6000803e3d6000fd5b505050506040513d6000823e601f3d908101601f191682016040526127f99190810190615b12565b9250925092509193909250565b60606000612813836125a0565b90508060200151156128335761282c81608001516124a6565b915061174b565b505060408051808201909152600b81526a1e39bb339f1e17b9bb339f60a91b6020820152919050565b6000818152600260205260409020546060906001600160a01b031661289457604051632df0e24560e21b815260040160405180910390fd5b610dc98261214c565b6128a56147a7565b60006128b0836125a0565b9050601060008260800151815260200190815260200160002060405180610140016040529081600082015481526020016001820180546128ef906154ab565b80601f016020809104026020016040519081016040528092919081815260200182805461291b906154ab565b80156129685780601f1061293d57610100808354040283529160200191612968565b820191906000526020600020905b81548152906001019060200180831161294b57829003601f168201915b5050509183525050600282015460209091019060ff16600781111561298f5761298f6149b8565b60078111156129a0576129a06149b8565b81526020016003820180546129b4906154ab565b80601f01602080910402602001604051908101604052809291908181526020018280546129e0906154ab565b8015612a2d5780601f10612a0257610100808354040283529160200191612a2d565b820191906000526020600020905b815481529060010190602001808311612a1057829003601f168201915b50505050508152602001600482018054612a46906154ab565b80601f0160208091040260200160405190810160405280929190818152602001828054612a72906154ab565b8015612abf5780601f10612a9457610100808354040283529160200191612abf565b820191906000526020600020905b815481529060010190602001808311612aa257829003601f168201915b50505050508152602001600582018054612ad8906154ab565b80601f0160208091040260200160405190810160405280929190818152602001828054612b04906154ab565b8015612b515780601f10612b2657610100808354040283529160200191612b51565b820191906000526020600020905b815481529060010190602001808311612b3457829003601f168201915b505050918352505060068201546001600160a01b0390811660208301526007830154166040820152600882018054606090920191612b8e906154ab565b80601f0160208091040260200160405190810160405280929190818152602001828054612bba906154ab565b8015612c075780601f10612bdc57610100808354040283529160200191612c07565b820191906000526020600020905b815481529060010190602001808311612bea57829003601f168201915b50505050508152602001600982018054612c20906154ab565b80601f0160208091040260200160405190810160405280929190818152602001828054612c4c906154ab565b8015612c995780601f10612c6e57610100808354040283529160200191612c99565b820191906000526020600020905b815481529060010190602001808311612c7c57829003601f168201915b505050505081525050915050919050565b600e546040516338ce943360e01b815260609182916001600160a01b03909116906338ce943390612ce7908690309063e08714a690600401615ae0565b600060405180830381865afa158015612d04573d6000803e3d6000fd5b505050506040513d6000823e601f3d908101601f19168201604052612d2c91908101906157cb565b91509150915091565b6060806000612d43866125a0565b600e546080820151600090815260106020526040908190209051630a6ab71760e21b81529293506001600160a01b03909116916329aadc5c91612d90918a918a918a918891600401615b8f565b600060405180830381865afa158015612dad573d6000803e3d6000fd5b505050506040513d6000823e601f3d908101601f19168201604052612dd591908101906157cb565b9250925050935093915050565b612dea6139dd565b600e5460405163e1defed960e01b81526001600160a01b039091169063e1defed990612e1c9085908590600401614cbb565b600060405180830381600087803b158015612e3657600080fd5b505af1158015612e4a573d6000803e3d6000fd5b505050505050565b60005b81518110156110af57612e80828281518110612e7357612e736154df565b6020026020010151613c3d565b600101612e55565b600080612e94836125a0565b9050600060106000836080015181526020019081526020016000206040518061014001604052908160008201548152602001600182018054612ed5906154ab565b80601f0160208091040260200160405190810160405280929190818152602001828054612f01906154ab565b8015612f4e5780601f10612f2357610100808354040283529160200191612f4e565b820191906000526020600020905b815481529060010190602001808311612f3157829003601f168201915b5050509183525050600282015460209091019060ff166007811115612f7557612f756149b8565b6007811115612f8657612f866149b8565b8152602001600382018054612f9a906154ab565b80601f0160208091040260200160405190810160405280929190818152602001828054612fc6906154ab565b80156130135780601f10612fe857610100808354040283529160200191613013565b820191906000526020600020905b815481529060010190602001808311612ff657829003601f168201915b5050505050815260200160048201805461302c906154ab565b80601f0160208091040260200160405190810160405280929190818152602001828054613058906154ab565b80156130a55780601f1061307a576101008083540402835291602001916130a5565b820191906000526020600020905b81548152906001019060200180831161308857829003601f168201915b505050505081526020016005820180546130be906154ab565b80601f01602080910402602001604051908101604052809291908181526020018280546130ea906154ab565b80156131375780601f1061310c57610100808354040283529160200191613137565b820191906000526020600020905b81548152906001019060200180831161311a57829003601f168201915b505050918352505060068201546001600160a01b0390811660208301526007830154166040820152600882018054606090920191613174906154ab565b80601f01602080910402602001604051908101604052809291908181526020018280546131a0906154ab565b80156131ed5780601f106131c2576101008083540402835291602001916131ed565b820191906000526020600020905b8154815290600101906020018083116131d057829003601f168201915b50505050508152602001600982018054613206906154ab565b80601f0160208091040260200160405190810160405280929190818152602001828054613232906154ab565b801561327f5780601f106132545761010080835404028352916020019161327f565b820191906000526020600020905b81548152906001019060200180831161326257829003601f168201915b5050509190925250505060400151949350505050565b61329d6147a7565b6010600083815260200190815260200160002060405180610140016040529081600082015481526020016001820180546132d6906154ab565b80601f0160208091040260200160405190810160405280929190818152602001828054613302906154ab565b801561334f5780601f106133245761010080835404028352916020019161334f565b820191906000526020600020905b81548152906001019060200180831161333257829003601f168201915b5050509183525050600282015460209091019060ff166007811115613376576133766149b8565b6007811115613387576133876149b8565b815260200160038201805461339b906154ab565b80601f01602080910402602001604051908101604052809291908181526020018280546133c7906154ab565b80156134145780601f106133e957610100808354040283529160200191613414565b820191906000526020600020905b8154815290600101906020018083116133f757829003601f168201915b5050505050815260200160048201805461342d906154ab565b80601f0160208091040260200160405190810160405280929190818152602001828054613459906154ab565b80156134a65780601f1061347b576101008083540402835291602001916134a6565b820191906000526020600020905b81548152906001019060200180831161348957829003601f168201915b505050505081526020016005820180546134bf906154ab565b80601f01602080910402602001604051908101604052809291908181526020018280546134eb906154ab565b80156135385780601f1061350d57610100808354040283529160200191613538565b820191906000526020600020905b81548152906001019060200180831161351b57829003601f168201915b505050918352505060068201546001600160a01b0390811660208301526007830154166040820152600882018054606090920191613575906154ab565b80601f01602080910402602001604051908101604052809291908181526020018280546135a1906154ab565b80156135ee5780601f106135c3576101008083540402835291602001916135ee565b820191906000526020600020905b8154815290600101906020018083116135d157829003601f168201915b50505050508152602001600982018054613607906154ab565b80601f0160208091040260200160405190810160405280929190818152602001828054613633906154ab565b80156136805780601f1061365557610100808354040283529160200191613680565b820191906000526020600020905b81548152906001019060200180831161366357829003601f168201915b5050505050815250509050919050565b6136986139dd565b63389a75e1600c52806000526020600c2080544211156136c057636f5e88186000526004601cfd5b6000905561142c81613d31565b606080606060006136dd886125a0565b600e54608082015160009081526010602052604090819020905163aeea03e560e01b81529293506001600160a01b039091169163aeea03e59161372d918c918c918c918c91899190600401615bdf565b600060405180830381865afa15801561374a573d6000803e3d6000fd5b505050506040513d6000823e601f3d908101601f191682016040526137729190810190615b12565b935093509350509450945094915050565b61378b6139dd565b8060601b6137a157637448fbae6000526004601cfd5b61142c81613d31565b600e5460808301516000908152601060205260409081902090516330235ddd60e21b8152606092839283926001600160a01b039092169163c08d7774916137f791899189916004016157a4565b600060405180830381865afa158015613814573d6000803e3d6000fd5b505050506040513d6000823e601f3d908101601f1916820160405261383c9190810190615b12565b9250925092509250925092565b60006001600160e01b0319821663780e9d6360e01b1480610dc95750610dc982613ee5565b6000818152600260205260409020546001600160a01b031661142c5760405162461bcd60e51b8152602060048201526018602482015277115490cdcc8c4e881a5b9d985b1a59081d1bdad95b88125160421b6044820152606401611455565b60006138d8826119d0565b9050806001600160a01b0316836001600160a01b0316036139455760405162461bcd60e51b815260206004820152602160248201527f4552433732313a20617070726f76616c20746f2063757272656e74206f776e656044820152603960f91b6064820152608401611455565b336001600160a01b038216148061396157506139618133610c6b565b6139d35760405162461bcd60e51b815260206004820152603e60248201527f4552433732313a20617070726f76652063616c6c6572206973206e6f7420746f60448201527f6b656e206f776e6572206e6f7220617070726f76656420666f7220616c6c00006064820152608401611455565b6114698383613d6f565b638b78c6d819543314611ac8576382b429006000526004601cfd5b600080613a04836119d0565b9050806001600160a01b0316846001600160a01b03161480613a4b57506001600160a01b0380821660009081526005602090815260408083209388168352929052205460ff165b806122375750836001600160a01b0316613a6484610e61565b6001600160a01b031614949350505050565b826001600160a01b0316613a89826119d0565b6001600160a01b031614613aed5760405162461bcd60e51b815260206004820152602560248201527f4552433732313a207472616e736665722066726f6d20696e636f72726563742060448201526437bbb732b960d91b6064820152608401611455565b6001600160a01b038216613b4f5760405162461bcd60e51b8152602060048201526024808201527f4552433732313a207472616e7366657220746f20746865207a65726f206164646044820152637265737360e01b6064820152608401611455565b613b5a838383613f35565b613b65600082613d6f565b6001600160a01b0383166000908152600360205260408120805460019290613b8e90849061550b565b90915550506001600160a01b0382166000908152600360205260408120805460019290613bbc9084906155ad565b909155505060008181526002602052604080822080546001600160a01b0319166001600160a01b0386811691821790925591518493918716917fddf252ad1be2c89b69c2b068fc378daa952ba7f163c4a11628f55a4df523b3ef91a46114698383836140b6565b6110af8282604051806020016040528060008152506141ff565b6000613c48826119d0565b9050613c5681600084613f35565b613c61600083613d6f565b6001600160a01b0381166000908152600360205260408120805460019290613c8a90849061550b565b909155505060008281526002602052604080822080546001600160a01b0319169055518391906001600160a01b038416907fddf252ad1be2c89b69c2b068fc378daa952ba7f163c4a11628f55a4df523b3ef908390a46110af816000846140b6565b6110af8282604051602401613d02929190615c50565b60408051601f198184030181529190526020810180516001600160e01b03166309710a9d60e41b179052614232565b638b78c6d81980546001600160a01b039092169182907f8be0079c531659141344cd1fd0a4f28419497f9722a3daafe3b4186f6b6457e0600080a355565b600081815260046020526040902080546001600160a01b0319166001600160a01b0384169081179091558190613da4826119d0565b6001600160a01b03167f8c5be1e5ebec7d5bd14f71427d1e84f3dd0314c0f7b2291e5b200ac8c7c3b92560405160405180910390a45050565b816001600160a01b0316836001600160a01b031603613e3a5760405162461bcd60e51b815260206004820152601960248201527822a9219b99189d1030b8383937bb32903a379031b0b63632b960391b6044820152606401611455565b6001600160a01b03838116600081815260056020908152604080832094871680845294825291829020805460ff191686151590811790915591519182527f17307eab39ab6107e8899845ad3d59bd9653f200f220920489ca2b5937696c31910160405180910390a3505050565b6110af338383613ddd565b613ebd848484613a76565b613ec984848484614253565b6127715760405162461bcd60e51b815260040161145590615c72565b60006001600160e01b031982166380ac58cd60e01b1480613f1657506001600160e01b03198216635b5e139f60e01b145b80610dc957506301ffc9a760e01b6001600160e01b0319831614610dc9565b6001600160a01b038316613f4e57611469838383614354565b601354604051634f6088cd60e01b8152600481018390526000916001600160a01b031690634f6088cd90602401608060405180830381865afa158015613f98573d6000803e3d6000fd5b505050506040513d601f19601f82011682018060405250810190613fbc9190615cc4565b5090925050506001600160a01b03811615613ffc576013546001600160a01b03163314613ffc5760405163bf646b0f60e01b815260040160405180910390fd5b6001600160a01b03831661401f57614014828461440c565b612771848484614354565b60125460405162525fcd60e91b81526001600160a01b0385811660048301529091169063a4bf9a0090602401602060405180830381865afa158015614068573d6000803e3d6000fd5b505050506040513d601f19601f8201168201806040525081019061408c9190615d19565b6000036140ac576040516326a45c0160e21b815260040160405180910390fd5b614014828461440c565b6012546001600160a01b03166140df5760405163787124d760e11b815260040160405180910390fd5b6013546001600160a01b03166141085760405163382eb47160e21b815260040160405180910390fd5b6001600160a01b03831661411b57505050565b6000614126826119d0565b60125460405162525fcd60e91b81526001600160a01b0380841660048301529293506000929091169063a4bf9a0090602401602060405180830381865afa158015614175573d6000803e3d6000fd5b505050506040513d601f19601f820116820180604052508101906141999190615d19565b60135460405163236313ff60e11b8152600481018390529192506001600160a01b0316906346c627fe90602401600060405180830381600087803b1580156141e057600080fd5b505af11580156141f4573d6000803e3d6000fd5b505050505050505050565b61420983836144a3565b6142166000848484614253565b6114695760405162461bcd60e51b815260040161145590615c72565b80516a636f6e736f6c652e6c6f67602083016000808483855afa5050505050565b60006001600160a01b0384163b1561434957604051630a85bd0160e11b81526001600160a01b0385169063150b7a0290614297903390899088908890600401615d32565b6020604051808303816000875af19250505080156142d2575060408051601f3d908101601f191682019092526142cf91810190615d65565b60015b61432f573d808015614300576040519150601f19603f3d011682016040523d82523d6000602084013e614305565b606091505b5080516000036143275760405162461bcd60e51b815260040161145590615c72565b805181602001fd5b6001600160e01b031916630a85bd0160e11b149050612237565b506001949350505050565b6001600160a01b0383166143af576143aa81600880546000838152600960205260408120829055600182018355919091527ff3f7a9fe364faab93b216da50a3214154f22a0a2b415b23a84c8169e8b636ee30155565b6143d2565b816001600160a01b0316836001600160a01b0316146143d2576143d283826145f9565b6001600160a01b0382166143e95761146981614696565b826001600160a01b0316826001600160a01b031614611469576114698282614745565b601354604051632e1d274f60e01b8152600481018490526001600160a01b0390911690632e1d274f90602401600060405180830381600087803b15801561445257600080fd5b505af1158015614466573d6000803e3d6000fd5b50506013546040516302fbe78f60e41b8152600481018690526001600160a01b0385811660248301529091169250632fbe78f09150604401612e1c565b6001600160a01b0382166144f95760405162461bcd60e51b815260206004820181905260248201527f4552433732313a206d696e7420746f20746865207a65726f20616464726573736044820152606401611455565b6000818152600260205260409020546001600160a01b03161561455e5760405162461bcd60e51b815260206004820152601c60248201527f4552433732313a20746f6b656e20616c7265616479206d696e746564000000006044820152606401611455565b61456a60008383613f35565b6001600160a01b03821660009081526003602052604081208054600192906145939084906155ad565b909155505060008181526002602052604080822080546001600160a01b0319166001600160a01b03861690811790915590518392907fddf252ad1be2c89b69c2b068fc378daa952ba7f163c4a11628f55a4df523b3ef908290a46110af600083836140b6565b6000600161460684611a30565b614610919061550b565b600083815260076020526040902054909150808214614663576001600160a01b03841660009081526006602090815260408083208584528252808320548484528184208190558352600790915290208190555b5060009182526007602090815260408084208490556001600160a01b039094168352600681528383209183525290812055565b6008546000906146a89060019061550b565b600083815260096020526040812054600880549394509092849081106146d0576146d06154df565b9060005260206000200154905080600883815481106146f1576146f16154df565b60009182526020808320909101929092558281526009909152604080822084905585825281205560088054806147295761472961551e565b6001900381819060005260206000200160009055905550505050565b600061475083611a30565b6001600160a01b039093166000908152600660209081526040808320868452825280832085905593825260079052919091209190915550565b508054600082559060005260206000209081019061142c919061480c565b60408051610140810182526000808252606060208301529091820190815260200160608152602001606081526020016060815260200160006001600160a01b0316815260200160006001600160a01b0316815260200160608152602001606081525090565b5b80821115614821576000815560010161480d565b5090565b60006020828403121561483757600080fd5b5035919050565b6020808252825182820181905260009190848201906040850190845b8181101561487f5783516001600160a01b03168352928401929184019160010161485a565b50909695505050505050565b6001600160e01b03198116811461142c57600080fd5b6000602082840312156148b357600080fd5b81356148be8161488b565b9392505050565b60005b838110156148e05781810151838201526020016148c8565b50506000910152565b600081518084526149018160208601602086016148c5565b601f01601f19169290920160200192915050565b6020815260006148be60208301846148e9565b6001600160a01b038116811461142c57600080fd5b803561494881614928565b919050565b6000806040838503121561496057600080fd5b823561496b81614928565b946020939093013593505050565b6000806040838503121561498c57600080fd5b50508035926020909101359150565b6000602082840312156149ad57600080fd5b81356148be81614928565b634e487b7160e01b600052602160045260246000fd5b600881106149ec57634e487b7160e01b600052602160045260246000fd5b9052565b805182526020810151151560208301526040810151604083015260018060a01b0360608201511660608301526080810151608083015260a081015161146960a08401826149ce565b60c08101610dc982846149f0565b634e487b7160e01b600052604160045260246000fd5b60405160c081016001600160401b0381118282101715614a7e57614a7e614a46565b60405290565b60405161014081016001600160401b0381118282101715614a7e57614a7e614a46565b60405161018081016001600160401b0381118282101715614a7e57614a7e614a46565b604051601f8201601f191681016001600160401b0381118282101715614af257614af2614a46565b604052919050565b60006001600160401b03821115614b1357614b13614a46565b50601f01601f191660200190565b600082601f830112614b3257600080fd5b8135614b45614b4082614afa565b614aca565b818152846020838601011115614b5a57600080fd5b816020850160208301376000918101602001919091529392505050565b600060208284031215614b8957600080fd5b81356001600160401b03811115614b9f57600080fd5b61223784828501614b21565b600080600060608486031215614bc057600080fd5b8335614bcb81614928565b92506020840135614bdb81614928565b929592945050506040919091013590565b801515811461142c57600080fd5b803561494881614bec565b6008811061142c57600080fd5b803561494881614c05565b600060c08284031215614c2f57600080fd5b614c37614a5c565b9050813581526020820135614c4b81614bec565b6020820152604082810135908201526060820135614c6881614928565b60608201526080828101359082015260a0820135614c8581614c05565b60a082015292915050565b60008060e08385031215614ca357600080fd5b614cad8484614c1d565b9460c0939093013593505050565b604081526000614cce60408301856148e9565b828103602084015261273681856148e9565b60008060e08385031215614cf357600080fd5b82359150614d048460208501614c1d565b90509250929050565b6020808252825182820181905260009190848201906040850190845b8181101561487f57835183529284019291840191600101614d29565b60006101408c8352806020840152614d5f8184018d6148e9565b9050614d6e604084018c6149ce565b8281036060840152614d80818b6148e9565b90508281036080840152614d94818a6148e9565b905082810360a0840152614da881896148e9565b6001600160a01b0388811660c0860152871660e08501528381036101008501529050614dd481866148e9565b9050828103610120840152614de981856148e9565b9d9c50505050505050505050505050565b60008060408385031215614e0d57600080fd5b8235915060208301356001600160401b0380821115614e2b57600080fd5b908401906101408287031215614e4057600080fd5b614e48614a84565b82358152602083013582811115614e5e57600080fd5b614e6a88828601614b21565b602083015250614e7c60408401614c12565b6040820152606083013582811115614e9357600080fd5b614e9f88828601614b21565b606083015250608083013582811115614eb757600080fd5b614ec388828601614b21565b60808301525060a083013582811115614edb57600080fd5b614ee788828601614b21565b60a083015250614ef960c0840161493d565b60c0820152614f0a60e0840161493d565b60e08201526101008084013583811115614f2357600080fd5b614f2f89828701614b21565b8284015250506101208084013583811115614f4957600080fd5b614f5589828701614b21565b8284015250508093505050509250929050565b60008060408385031215614f7b57600080fd5b8235614f8681614928565b91506020830135614f9681614bec565b809150509250929050565b60008060008060808587031215614fb757600080fd5b8435614fc281614928565b93506020850135614fd281614928565b92506040850135915060608501356001600160401b03811115614ff457600080fd5b61500087828801614b21565b91505092959194509250565b803563ffffffff8116811461494857600080fd5b803560ff8116811461494857600080fd5b60006020828403121561504357600080fd5b81356001600160401b038082111561505a57600080fd5b90830190610180828603121561506f57600080fd5b615077614aa7565b823581526020830135602082015260408301356040820152606083013560608201526080830135608082015260a083013560a082015260c083013560c08201526150c360e0840161500c565b60e082015261010083810135908201526101206150e1818501615020565b9082015261014083810135838111156150f957600080fd5b61510588828701614b21565b828401525050610160915061511b828401614bfa565b91810191909152949350505050565b60608152600061513d60608301866148e9565b828103602084015261514f81866148e9565b9050828103604084015261516381856148e9565b9695505050505050565b6020815281516020820152600060208301516101408060408501526151966101608501836148e9565b915060408501516151aa60608601826149ce565b506060850151601f19808685030160808701526151c784836148e9565b935060808701519150808685030160a08701526151e484836148e9565b935060a08701519150808685030160c087015261520184836148e9565b935060c0870151915061521f60e08701836001600160a01b03169052565b60e0870151915061010061523d818801846001600160a01b03169052565b8088015192505061012081878603018188015261525a85846148e9565b90880151878203909201848801529350905061516383826148e9565b60008060006060848603121561528b57600080fd5b8335925060208401356001600160401b03808211156152a957600080fd5b6152b587838801614b21565b935060408601359150808211156152cb57600080fd5b506152d886828701614b21565b9150509250925092565b600080604083850312156152f557600080fd5b82356001600160401b038082111561530c57600080fd5b61531886838701614b21565b9350602085013591508082111561532e57600080fd5b5061533b85828601614b21565b9150509250929050565b6000602080838503121561535857600080fd5b82356001600160401b038082111561536f57600080fd5b818501915085601f83011261538357600080fd5b81358181111561539557615395614a46565b8060051b91506153a6848301614aca565b81815291830184019184810190888411156153c057600080fd5b938501935b838510156153de578435825293850193908501906153c5565b98975050505050505050565b60208101610dc982846149ce565b6000806040838503121561540b57600080fd5b823561541681614928565b91506020830135614f9681614928565b6000806000806080858703121561543c57600080fd5b8435935060208501356001600160401b038082111561545a57600080fd5b61546688838901614b21565b9450604087013591508082111561547c57600080fd5b61548888838901614b21565b9350606087013591508082111561549e57600080fd5b5061500087828801614b21565b600181811c908216806154bf57607f821691505b60208210810361174b57634e487b7160e01b600052602260045260246000fd5b634e487b7160e01b600052603260045260246000fd5b634e487b7160e01b600052601160045260246000fd5b81810381811115610dc957610dc96154f5565b634e487b7160e01b600052603160045260246000fd5b600082601f83011261554557600080fd5b8151615553614b4082614afa565b81815284602083860101111561556857600080fd5b6122378260208301602087016148c5565b60006020828403121561558b57600080fd5b81516001600160401b038111156155a157600080fd5b61223784828501615534565b80820180821115610dc957610dc96154f5565b6000826155dd57634e487b7160e01b600052601260045260246000fd5b500690565b6000600182016155f4576155f46154f5565b5060010190565b6020808252602e908201527f4552433732313a2063616c6c6572206973206e6f7420746f6b656e206f776e6560408201526d1c881b9bdc88185c1c1c9bdd995960921b606082015260800190565b60008154615656816154ab565b808552602060018381168015615673576001811461568d576156bb565b60ff1985168884015283151560051b8801830195506156bb565b866000528260002060005b858110156156b35781548a8201860152908301908401615698565b890184019650505b505050505092915050565b6000610140825484528060208501526156e481850160018501615649565b90506156f4600284015460ff1690565b61570160408601826149ce565b5083810360608501526157178160038501615649565b9050838103608085015261572e8160048501615649565b905083810360a08501526157458160058501615649565b905061575b60068401546001600160a01b031690565b6001600160a01b0390811660c086015260078401541660e085015283810361010085015261578c8160088501615649565b90508381036101208501526122378160098501615649565b60006101006157b383876149f0565b8460c08401528060e0840152615163818401856156c6565b600080604083850312156157de57600080fd5b82516001600160401b03808211156157f557600080fd5b61580186838701615534565b9350602085015191508082111561581757600080fd5b5061533b85828601615534565b601f821115611469576000816000526020600020601f850160051c8101602086101561584d5750805b601f850160051c820191505b81811015612e4a57828155600101615859565b81516001600160401b0381111561588557615885614a46565b6158998161589384546154ab565b84615824565b602080601f8311600181146158ce57600084156158b65750858301515b600019600386901b1c1916600185901b178555612e4a565b600085815260208120601f198616915b828110156158fd578886015182559484019460019091019084016158de565b508582101561591b5787850151600019600388901b60f8161c191681555b5050505050600190811b01905550565b600061014087835261594060208401886149f0565b8060e0840152615952818401876156c6565b905082810361010084015261596781866148e9565b90508281036101208401526153de81856148e9565b6020815260006148be6020830184615649565b831515815261010081016159a660208301856149f0565b6001600160801b03831660e0830152949350505050565b600060c082840312156159cf57600080fd5b6159d7614a5c565b8251815260208301516159e981614bec565b6020820152604083810151908201526060830151615a0681614928565b60608201526080838101519082015260a0830151615a2381614c05565b60a08201529392505050565b6000610180825184526020830151602085015260408301516040850152606083015160608501526080830151608085015260a083015160a085015260c083015160c085015260e0830151615a8b60e086018263ffffffff169052565b5061010083810151908501526101208084015160ff169085015261014080840151818601839052615abe838701826148e9565b9250505061016080840151615ad68287018215159052565b5090949350505050565b604081526000615af36040830186615a2f565b905061223760208301848660201b63ffffffff919091161760401b9052565b600080600060608486031215615b2757600080fd5b83516001600160401b0380821115615b3e57600080fd5b615b4a87838801615534565b94506020860151915080821115615b6057600080fd5b615b6c87838801615534565b93506040860151915080821115615b8257600080fd5b506152d886828701615534565b6000610140878352806020840152615ba9818401886148e9565b90508281036040840152615bbd81876148e9565b9050615bcc60608401866149f0565b8281036101208401526153de81856156c6565b6000610160888352806020840152615bf9818401896148e9565b90508281036040840152615c0d81886148e9565b90508281036060840152615c2181876148e9565b9050615c3060808401866149f0565b828103610140840152615c4381856156c6565b9998505050505050505050565b604081526000615c6360408301856148e9565b90508260208301529392505050565b60208082526032908201527f4552433732313a207472616e7366657220746f206e6f6e20455243373231526560408201527131b2b4bb32b91034b6b83632b6b2b73a32b960711b606082015260800190565b60008060008060808587031215615cda57600080fd5b845193506020850151615cec81614928565b6040860151909350615cfd81614928565b6060860151909250615d0e81614928565b939692955090935050565b600060208284031215615d2b57600080fd5b5051919050565b6001600160a01b0385811682528416602082015260408101839052608060608201819052600090615163908301846148e9565b600060208284031215615d7757600080fd5b81516148be8161488b56fea2646970667358221220aa43ee15847bd928ec8e8785302b352048ea03db8965f96d05137d2380ec2f5864736f6c63430008160033608060405234801561001057600080fd5b50612fa6806100206000396000f3fe608060405234801561001057600080fd5b50600436106100f55760003560e01c80635c1ef25611610097578063aeea03e511610066578063aeea03e5146101e8578063c08d7774146101fb578063e1defed91461020e578063e6ab9d5a1461022357600080fd5b80635c1ef256146101a7578063898aa117146101af5780639a4813d8146101c2578063a5e11e05146101d557600080fd5b806338ce9433116100d357806338ce94331461015757806351dc71891461016a5780635ab38bf7146101725780635bf382591461019457600080fd5b806321b12c23146100fa57806329aadc5c146101235780632fbcb97e14610144575b600080fd5b61010d610108366004611e7e565b61022b565b60405161011a9190611f0a565b60405180910390f35b61013661013136600461212f565b610a74565b60405161011a9291906121d4565b610136610152366004612202565b610af4565b610136610165366004612369565b610bfc565b610136610f69565b610185610180366004612369565b611089565b60405161011a939291906123cc565b61010d6101a2366004611e7e565b61141e565b61010d611462565b61010d6101bd366004611e7e565b611531565b61010d6101d0366004611e7e565b611783565b61010d6101e336600461240f565b6117c8565b6101856101f63660046124a8565b6119f7565b610185610209366004612202565b611aa6565b61022161021c366004612570565b611bc9565b005b61010d611be7565b60606000604051806102000160405280604051806040016040528060018152602001600360fc1b8152508152602001604051806040016040528060018152602001603160f81b8152508152602001604051806040016040528060018152602001601960f91b8152508152602001604051806040016040528060018152602001603360f81b8152508152602001604051806040016040528060018152602001600d60fa1b8152508152602001604051806040016040528060018152602001603560f81b8152508152602001604051806040016040528060018152602001601b60f91b8152508152602001604051806040016040528060018152602001603760f81b8152508152602001604051806040016040528060018152602001600760fb1b8152508152602001604051806040016040528060018152602001603960f81b8152508152602001604051806040016040528060018152602001606160f81b8152508152602001604051806040016040528060018152602001603160f91b8152508152602001604051806040016040528060018152602001606360f81b8152508152602001604051806040016040528060018152602001601960fa1b8152508152602001604051806040016040528060018152602001606560f81b8152508152602001604051806040016040528060018152602001603360f91b81525081525090506000604051806103c00160405280604051806040016040528060018152602001600360fc1b8152508152602001604051806040016040528060018152602001603160f81b8152508152602001604051806040016040528060018152602001601960f91b8152508152602001604051806040016040528060018152602001603360f81b8152508152602001604051806040016040528060018152602001600d60fa1b8152508152602001604051806040016040528060018152602001603560f81b8152508152602001604051806040016040528060018152602001601b60f91b8152508152602001604051806040016040528060018152602001603760f81b8152508152602001604051806040016040528060018152602001600760fb1b8152508152602001604051806040016040528060018152602001603960f81b815250815260200160405180604001604052806002815260200161031360f41b815250815260200160405180604001604052806002815260200161313160f01b815250815260200160405180604001604052806002815260200161189960f11b815250815260200160405180604001604052806002815260200161313360f01b8152508152602001604051806040016040528060028152602001610c4d60f21b815250815260200160405180604001604052806002815260200161313560f01b815250815260200160405180604001604052806002815260200161189b60f11b815250815260200160405180604001604052806002815260200161313760f01b815250815260200160405180604001604052806002815260200161062760f31b815250815260200160405180604001604052806002815260200161313960f01b815250815260200160405180604001604052806002815260200161032360f41b815250815260200160405180604001604052806002815260200161323160f01b815250815260200160405180604001604052806002815260200161191960f11b815250815260200160405180604001604052806002815260200161323360f01b8152508152602001604051806040016040528060028152602001610c8d60f21b815250815260200160405180604001604052806002815260200161323560f01b815250815260200160405180604001604052806002815260200161191b60f11b815250815260200160405180604001604052806002815260200161323760f01b815250815260200160405180604001604052806002815260200161064760f31b815250815260200160405180604001604052806002815260200161323960f01b815250815250905060005b611194811015610a6c57600060f81b858281518110610813576108136125d3565b01602001516001600160f81b0319161115610a5a576000601e610837600584612615565b6108419190612629565b90506000601e610852600585612615565b61085c9190612615565b905060008560048961086f87600261263d565b8151811061087f5761087f6125d3565b016020015160f81c901c60ff166010811061089c5761089c6125d3565b602002015186896108ae87600261263d565b815181106108be576108be6125d3565b60209101015160f81c600f16601081106108da576108da6125d3565b60200201518760048b6108ee89600361263d565b815181106108fe576108fe6125d3565b016020015160f81c901c60ff166010811061091b5761091b6125d3565b6020020151888b61092d89600361263d565b8151811061093d5761093d6125d3565b60209101015160f81c600f1660108110610959576109596125d3565b60200201518960048d61096c8b8361263d565b8151811061097c5761097c6125d3565b016020015160f81c901c60ff1660108110610999576109996125d3565b60200201518a8d6109ab8b600461263d565b815181106109bb576109bb6125d3565b60209101015160f81c600f16601081106109d7576109d76125d3565b60200201516040516020016109f196959493929190612650565b6040516020818303038152906040529050868584601e8110610a1557610a156125d3565b60200201518684601e8110610a2c57610a2c6125d3565b602002015183604051602001610a4594939291906126cf565b60405160208183030381529060405296505050505b610a6560058261263d565b90506107f2565b505050919050565b606080606080610a85868a87610af4565b8851909350909150600003610a9f57809350819250610ae8565b8781604051602001610ab2929190612789565b60405160208183030381529060405293508682604051602001610ad69291906127b8565b60405160208183030381529060405292505b50509550959350505050565b60608084602001518015610b085750600084115b15610bb05760408084015190516301be83d160e11b8152610b9a9173__$4987fe9f4e800c5c4c1535f64ed232842a$__9163037d07a291610b4b916004016127f4565b600060405180830381865af4158015610b68573d6000803e3d6000fd5b505050506040513d6000823e601f3d908101601f19168201604052610b90919081019061286c565b8460200151611c08565b9050610ba98360800151611783565b9150610bf4565b604051806040016040528060028152602001617b7d60f01b81525090506040518060400160405280600b81526020016a1e39bb339f1e17b9bb339f60a91b81525091505b935093915050565b60608060008560c001511115610c7e5783838660c0015184846040518463ffffffff1660e01b8152600401610c33939291906128a0565b600060405180830381865afa158015610c50573d6000803e3d6000fd5b505050506040513d6000823e601f3d908101601f19168201604052610c7891908101906128cb565b90925090505b60a085015115610cfa5783838660a0015184846040518463ffffffff1660e01b8152600401610caf939291906128a0565b600060405180830381865afa158015610ccc573d6000803e3d6000fd5b505050506040513d6000823e601f3d908101601f19168201604052610cf491908101906128cb565b90925090505b608085015115610d76578383866080015184846040518463ffffffff1660e01b8152600401610d2b939291906128a0565b600060405180830381865afa158015610d48573d6000803e3d6000fd5b505050506040513d6000823e601f3d908101601f19168201604052610d7091908101906128cb565b90925090505b604085015115610df2578383866040015184846040518463ffffffff1660e01b8152600401610da7939291906128a0565b600060405180830381865afa158015610dc4573d6000803e3d6000fd5b505050506040513d6000823e601f3d908101601f19168201604052610dec91908101906128cb565b90925090505b602085015115610e6e578383866020015184846040518463ffffffff1660e01b8152600401610e23939291906128a0565b600060405180830381865afa158015610e40573d6000803e3d6000fd5b505050506040513d6000823e601f3d908101601f19168201604052610e6891908101906128cb565b90925090505b845115610ee7578383866000015184846040518463ffffffff1660e01b8152600401610e9c939291906128a0565b600060405180830381865afa158015610eb9573d6000803e3d6000fd5b505050506040513d6000823e601f3d908101601f19168201604052610ee191908101906128cb565b90925090505b606085015115610bf4578383866060015184846040518463ffffffff1660e01b8152600401610f18939291906128a0565b600060405180830381865afa158015610f35573d6000803e3d6000fd5b505050506040513d6000823e601f3d908101601f19168201604052610f5d91908101906128cb565b90969095509350505050565b600080548190610f7890612924565b80601f0160208091040260200160405190810160405280929190818152602001828054610fa490612924565b8015610ff15780601f10610fc657610100808354040283529160200191610ff1565b820191906000526020600020905b815481529060010190602001808311610fd457829003601f168201915b50505050509080600101805461100690612924565b80601f016020809104026020016040519081016040528092919081815260200182805461103290612924565b801561107f5780601f106110545761010080835404028352916020019161107f565b820191906000526020600020905b81548152906001019060200180831161106257829003601f168201915b5050505050905082565b606080606060008660c0015111156111125784848760c001518584866040518563ffffffff1660e01b81526004016110c4949392919061295e565b600060405180830381865afa1580156110e1573d6000803e3d6000fd5b505050506040513d6000823e601f3d908101601f1916820160405261110991908101906129a8565b91945090925090505b60a0860151156111935784848760a001518584866040518563ffffffff1660e01b8152600401611145949392919061295e565b600060405180830381865afa158015611162573d6000803e3d6000fd5b505050506040513d6000823e601f3d908101601f1916820160405261118a91908101906129a8565b91945090925090505b60808601511561121457848487608001518584866040518563ffffffff1660e01b81526004016111c6949392919061295e565b600060405180830381865afa1580156111e3573d6000803e3d6000fd5b505050506040513d6000823e601f3d908101601f1916820160405261120b91908101906129a8565b91945090925090505b60408601511561129557848487604001518584866040518563ffffffff1660e01b8152600401611247949392919061295e565b600060405180830381865afa158015611264573d6000803e3d6000fd5b505050506040513d6000823e601f3d908101601f1916820160405261128c91908101906129a8565b91945090925090505b60208601511561131657848487602001518584866040518563ffffffff1660e01b81526004016112c8949392919061295e565b600060405180830381865afa1580156112e5573d6000803e3d6000fd5b505050506040513d6000823e601f3d908101601f1916820160405261130d91908101906129a8565b91945090925090505b85511561139457848487600001518584866040518563ffffffff1660e01b8152600401611346949392919061295e565b600060405180830381865afa158015611363573d6000803e3d6000fd5b505050506040513d6000823e601f3d908101601f1916820160405261138b91908101906129a8565b91945090925090505b60608601511561141557848487606001518584866040518563ffffffff1660e01b81526004016113c7949392919061295e565b600060405180830381865afa1580156113e4573d6000803e3d6000fd5b505050506040513d6000823e601f3d908101601f1916820160405261140c91908101906129a8565b91945090925090505b93509350939050565b606060405180610100016040528060d28152602001612e9f60d291398260405160200161144c929190612a39565b6040516020818303038152906040529050919050565b606060006114fb60008001805461147890612924565b80601f01602080910402602001604051908101604052809291908181526020018280546114a490612924565b80156114f15780601f106114c6576101008083540402835291602001916114f1565b820191906000526020600020905b8154815290600101906020018083116114d457829003601f168201915b5050505050611531565b905060006115088261022b565b90508060405160200161151b9190612a79565b6040516020818303038152906040529250505090565b8051604080516111948082526111c0820190925260609291600091906020820181803683370190505090506000611569600584612615565b905060005b81811015611779576000611583826005612ae3565b90506000878281518110611599576115996125d3565b016020015160f81c90506000886115b184600161263d565b815181106115c1576115c16125d3565b016020015160f81c9050600060ff83166115dc83601e612ae3565b6115e6919061263d565b6115f1906005612ae3565b9050898481518110611605576116056125d3565b602001015160f81c60f81b878281518110611622576116226125d3565b60200101906001600160f81b031916908160001a90535089846001018151811061164e5761164e6125d3565b602001015160f81c60f81b87826001018151811061166e5761166e6125d3565b60200101906001600160f81b031916908160001a90535089846002018151811061169a5761169a6125d3565b602001015160f81c60f81b8782600201815181106116ba576116ba6125d3565b60200101906001600160f81b031916908160001a9053508984600301815181106116e6576116e66125d3565b602001015160f81c60f81b878260030181518110611706576117066125d3565b60200101906001600160f81b031916908160001a905350898460040181518110611732576117326125d3565b602001015160f81c60f81b878260040181518110611752576117526125d3565b60200101906001600160f81b031916908160001a905350506001909301925061156e915050565b5090949350505050565b6060600061179083611531565b9050600061179d8261022b565b9050806040516020016117b09190612afa565b60405160208183030381529060405292505050919050565b60608060608660200151156118e75760a08701516040516301be83d160e11b81526118649173__$4987fe9f4e800c5c4c1535f64ed232842a$__9163037d07a291611815916004016127f4565b600060405180830381865af4158015611832573d6000803e3d6000fd5b505050506040513d6000823e601f3d908101601f1916820160405261185a919081019061286c565b8760200151611c08565b6118926040518060400160405280600781526020016621b932b0ba37b960c91b815250886101000151611c08565b6118bf6040518060400160405280600681526020016529b2b0b9b7b760d11b815250896101200151611c08565b6040516020016118d193929190612b3f565b6040516020818303038152906040529050611938565b6040518060400160405280600f81526020016e2261747472696275746573223a5b5d60881b81525090506040518060400160405280600b81526020016a1e39bb339f1e17b9bb339f60a91b81525093505b611962858560405160200161194e929190612789565b60405160208183030381529060405261141e565b9150600061196f83611c35565b60405160200161197f9190612bc2565b6040516020818303038152906040529050600061199b8a611c43565b83836040516020016119af93929190612c1e565b60405160208183030381529060405290506119c981611c35565b6040516020016119d99190612cd9565b60405160208183030381529060405294505050505095945050505050565b606080606080606080611a0b888d89611aa6565b8c519095509193509150600003611a2a57819550829450809350611a97565b8a82604051602001611a3d929190612789565b60405160208183030381529060405295508983604051602001611a619291906127b8565b60405160208183030381529060405294508881604051602001611a85929190612789565b60405160208183030381529060405293505b50505096509650969350505050565b606080606085602001518015611abc5750600085115b15611b6b57611ace8460800151611783565b9250611b5d73__$4987fe9f4e800c5c4c1535f64ed232842a$__63037d07a286604001516040518263ffffffff1660e01b8152600401611b0e91906127f4565b600060405180830381865af4158015611b2b573d6000803e3d6000fd5b505050506040513d6000823e601f3d908101601f19168201604052611b53919081019061286c565b8560200151611c08565b90508360a001519150611415565b6040518060400160405280600b81526020016a1e39bb339f1e17b9bb339f60a91b8152509250604051806040016040528060028152602001617b7d60f01b815250905060405180602001604052806000815250915093509350939050565b6000611bd58382612d6e565b506001611be28282612d6e565b505050565b606060405180610100016040528060d28152602001612e9f60d29139905090565b60608282604051602001611c1d929190612e2d565b60405160208183030381529060405290505b92915050565b6060611c2f82600080611c87565b60606080604051019050602081016040526000815280600019835b928101926030600a8206018453600a900480611c5e575050819003601f19909101908152919050565b606083518015611d67576003600282010460021b60405192507f4142434445464748494a4b4c4d4e4f505152535455565758595a616263646566601f526106708515027f6768696a6b6c6d6e6f707172737475767778797a303132333435363738392d5f18603f52602083018181015b6003880197508751603f8160121c1651600053603f81600c1c1651600153603f8160061c1651600253603f811651600353506000518252600482019150808210611cf757602001604052613d3d60f01b600384066002048083039190915260008615159091029182900352900382525b509392505050565b634e487b7160e01b600052604160045260246000fd5b60405161014081016001600160401b0381118282101715611da857611da8611d6f565b60405290565b60405161018081016001600160401b0381118282101715611da857611da8611d6f565b604051601f8201601f191681016001600160401b0381118282101715611df957611df9611d6f565b604052919050565b60006001600160401b03821115611e1a57611e1a611d6f565b50601f01601f191660200190565b600082601f830112611e3957600080fd5b8135611e4c611e4782611e01565b611dd1565b818152846020838601011115611e6157600080fd5b816020850160208301376000918101602001919091529392505050565b600060208284031215611e9057600080fd5b81356001600160401b03811115611ea657600080fd5b611eb284828501611e28565b949350505050565b60005b83811015611ed5578181015183820152602001611ebd565b50506000910152565b60008151808452611ef6816020860160208601611eba565b601f01601f19169290920160200192915050565b602081526000611f1d6020830184611ede565b9392505050565b80358015158114611f3457600080fd5b919050565b80356001600160a01b0381168114611f3457600080fd5b803560088110611f3457600080fd5b600060c08284031215611f7157600080fd5b60405160c081018181106001600160401b0382111715611f9357611f93611d6f565b60405282358152905080611fa960208401611f24565b602082015260408301356040820152611fc460608401611f39565b606082015260808301356080820152611fdf60a08401611f50565b60a08201525092915050565b60006101408284031215611ffe57600080fd5b612006611d85565b90508135815260208201356001600160401b038082111561202657600080fd5b61203285838601611e28565b602084015261204360408501611f50565b6040840152606084013591508082111561205c57600080fd5b61206885838601611e28565b6060840152608084013591508082111561208157600080fd5b61208d85838601611e28565b608084015260a08401359150808211156120a657600080fd5b6120b285838601611e28565b60a08401526120c360c08501611f39565b60c08401526120d460e08501611f39565b60e0840152610100915081840135818111156120ef57600080fd5b6120fb86828701611e28565b83850152506101209150818401358181111561211657600080fd5b61212286828701611e28565b8385015250505092915050565b6000806000806000610140868803121561214857600080fd5b8535945060208601356001600160401b038082111561216657600080fd5b61217289838a01611e28565b9550604088013591508082111561218857600080fd5b61219489838a01611e28565b94506121a38960608a01611f5f565b93506101208801359150808211156121ba57600080fd5b506121c788828901611feb565b9150509295509295909350565b6040815260006121e76040830185611ede565b82810360208401526121f98185611ede565b95945050505050565b6000806000610100848603121561221857600080fd5b6122228585611f5f565b925060c0840135915060e08401356001600160401b0381111561224457600080fd5b61225086828701611feb565b9150509250925092565b803563ffffffff81168114611f3457600080fd5b803560ff81168114611f3457600080fd5b6000610180828403121561229257600080fd5b61229a611dae565b9050813581526020820135602082015260408201356040820152606082013560608201526080820135608082015260a082013560a082015260c082013560c08201526122e860e0830161225a565b60e0820152610100828101359082015261012061230681840161226e565b90820152610140828101356001600160401b0381111561232557600080fd5b61233185828601611e28565b828401525050610160612345818401611f24565b9082015292915050565b67ffffffffffffffff198116811461236657600080fd5b50565b60008060006040848603121561237e57600080fd5b83356001600160401b0381111561239457600080fd5b6123a08682870161227f565b93505060208401356123b18161234f565b9295606084901c955060409390931c63ffffffff1693505050565b6060815260006123df6060830186611ede565b82810360208401526123f18186611ede565b905082810360408401526124058185611ede565b9695505050505050565b6000806000806000610140868803121561242857600080fd5b853594506124398760208801611f5f565b935060e08601356001600160401b038082111561245557600080fd5b61246189838a01611feb565b945061010088013591508082111561247857600080fd5b61248489838a01611e28565b935061012088013591508082111561249b57600080fd5b506121c788828901611e28565b60008060008060008061016087890312156124c257600080fd5b8635955060208701356001600160401b03808211156124e057600080fd5b6124ec8a838b01611e28565b9650604089013591508082111561250257600080fd5b61250e8a838b01611e28565b9550606089013591508082111561252457600080fd5b6125308a838b01611e28565b945061253f8a60808b01611f5f565b935061014089013591508082111561255657600080fd5b5061256389828a01611feb565b9150509295509295509295565b6000806040838503121561258357600080fd5b82356001600160401b038082111561259a57600080fd5b6125a686838701611e28565b935060208501359150808211156125bc57600080fd5b506125c985828601611e28565b9150509250929050565b634e487b7160e01b600052603260045260246000fd5b634e487b7160e01b600052601260045260246000fd5b634e487b7160e01b600052601160045260246000fd5b600082612624576126246125e9565b500490565b600082612638576126386125e9565b500690565b80820180821115611c2f57611c2f6125ff565b6000875160206126638285838d01611eba565b8851918401916126768184848d01611eba565b88519201916126888184848c01611eba565b875192019161269a8184848b01611eba565b86519201916126ac8184848a01611eba565b85519201916126be8184848901611eba565b919091019998505050505050505050565b600085516126e1818460208a01611eba565b681e3932b1ba103c1e9160b91b9083019081528551612707816009840160208a01611eba565b6411103c9e9160d91b60099290910191820152845161272d81600e840160208901611eba565b7f222077696474683d223122206865696768743d2231222066696c6c3d22230000600e9290910191820152835161276b81602c840160208801611eba565b6211179f60e91b602c9290910191820152602f019695505050505050565b6000835161279b818460208801611eba565b8351908301906127af818360208801611eba565b01949350505050565b600083516127ca818460208801611eba565b600b60fa1b90830190815283516127e8816001840160208801611eba565b01600101949350505050565b602081016008831061281657634e487b7160e01b600052602160045260246000fd5b91905290565b600061282a611e4784611e01565b905082815283838301111561283e57600080fd5b611f1d836020830184611eba565b600082601f83011261285d57600080fd5b611f1d8383516020850161281c565b60006020828403121561287e57600080fd5b81516001600160401b0381111561289457600080fd5b611eb28482850161284c565b8381526060602082015260006128b96060830185611ede565b82810360408401526124058185611ede565b600080604083850312156128de57600080fd5b82516001600160401b03808211156128f557600080fd5b6129018683870161284c565b9350602085015191508082111561291757600080fd5b506125c98582860161284c565b600181811c9082168061293857607f821691505b60208210810361295857634e487b7160e01b600052602260045260246000fd5b50919050565b8481526080602082015260006129776080830186611ede565b82810360408401526129898186611ede565b9050828103606084015261299d8185611ede565b979650505050505050565b6000806000606084860312156129bd57600080fd5b83516001600160401b03808211156129d457600080fd5b6129e08783880161284c565b945060208601519150808211156129f657600080fd5b612a028783880161284c565b93506040860151915080821115612a1857600080fd5b508401601f81018613612a2a57600080fd5b6122508682516020840161281c565b60008351612a4b818460208801611eba565b835190830190612a5f818360208801611eba565b651e17b9bb339f60d11b9101908152600601949350505050565b7f3c672069643d2267686f73742220636c6173733d226722207374796c653d226f81526d3830b1b4ba3c9d101a98129d911f60911b602082015260008251612ac881602e850160208701611eba565b631e17b39f60e11b602e939091019283015250603201919050565b8082028115828204841417611c2f57611c2f6125ff565b6d1e339034b21e912a3930b4ba111f60911b81528151600090612b2481600e850160208701611eba565b631e17b39f60e11b600e939091019283015250601201919050565b6d2261747472696275746573223a5b60901b81528351600090612b6981600e850160208901611eba565b8083019050600b60fa1b80600e8301528551612b8c81600f850160208a01611eba565b600f9201918201528351612ba7816010840160208801611eba565b605d60f81b6010929091019182015260110195945050505050565b7f22696d616765223a22646174613a696d6167652f7376672b786d6c3b626173658152620d8d0b60ea1b602082015260008251612c06816023850160208701611eba565b601160f91b6023939091019283015250602401919050565b757b226e616d65223a225065746572205472616974202360501b81528351600090612c50816016850160208901611eba565b7f222c226465736372697074696f6e223a2254686973206973206a757374206120601691840191820152651d195cdd088b60d21b60368201528451612c9c81603c840160208901611eba565b600b60fa1b603c92909101918201528351612cbe81603d840160208801611eba565b607d60f81b603d9290910191820152603e0195945050505050565b7f646174613a6170706c69636174696f6e2f6a736f6e3b6261736536342c000000815260008251612d1181601d850160208701611eba565b91909101601d0192915050565b601f821115611be2576000816000526020600020601f850160051c81016020861015612d475750805b601f850160051c820191505b81811015612d6657828155600101612d53565b505050505050565b81516001600160401b03811115612d8757612d87611d6f565b612d9b81612d958454612924565b84612d1e565b602080601f831160018114612dd05760008415612db85750858301515b600019600386901b1c1916600185901b178555612d66565b600085815260208120601f198616915b82811015612dff57888601518255948401946001909101908401612de0565b5085821015612e1d5787850151600019600388901b60f8161c191681555b5050505050600190811b01905550565b6e3d913a3930b4ba2fba3cb832911d1160891b81528251600090612e5881600f850160208801611eba565b6a1116113b30b63ab2911d1160a91b600f918401918201528351612e8381601a840160208801611eba565b61227d60f01b601a9290910191820152601c0194935050505056fe3c7376672073686170652d72656e646572696e673d2263726973704564676573222076696577426f783d22302030203330203330222066696c6c3d226e6f6e652220786d6c6e733d22687474703a2f2f7777772e77332e6f72672f323030302f737667223e3c7374796c653e726563747b77696474683a3170783b206865696768743a203170783b7d202e62677b77696474683a333070783b206865696768743a20333070783b7d203c2f7374796c653e3c7265637420636c6173733d226267222066696c6c3d2223304436453944222f3ea2646970667358221220bc6c8314ed993ea6ace252cc9d85b25ee8f90a62b9c5a6df24f2a0ce2d08694d64736f6c63430008160033","linkReferences":{"src/TraitCategory.sol":{"TraitCategory":[{"start":27645,"length":20},{"start":30919,"length":20},{"start":31661,"length":20}]}}},"methodIdentifiers":{"addMinter(address)":"983b2d56","approve(address,uint256)":"095ea7b3","balanceOf(address)":"70a08231","burn(uint256)":"42966c68","burnBatch(uint256[])":"e4623c1b","callGetSVGZmapAndMetadataTrait(uint256,string,string,bytes)":"f1271942","callGetSvgAndMetadataTrait(uint256,string,string)":"e08714a6","cancelOwnershipHandover()":"54d1f13d","completeOwnershipHandover(address)":"f04e283e","createSvgFromPixels(bytes)":"21b12c23","getApproved(uint256)":"081812fc","getApprovedOperators(uint256)":"00db6348","getApprovedOperatorsLength(uint256)":"c1ff78be","getCurrentEpoch()":"b97dd9e2","getEpoch()":"757991a8","getEpochData(uint256)":"859e7d32","getGhostSvg()":"5c1ef256","getSVGZmapAndMetadataTrait((uint256,bool,uint256,address,uint256,uint8),uint256)":"f901667f","getStoredTraitForTokenId(uint256)":"208c25a3","getSvgAndMetadata((uint256,uint256,uint256,uint256,uint256,uint256,uint256,uint32,uint256,uint8,string,bool))":"df2c2b88","getSvgAndMetadataTrait((uint256,bool,uint256,address,uint256,uint8),uint256)":"33a70328","getSvgForTokenId(uint256)":"c7791531","getSvgZmapsAndMetadata((uint256,uint256,uint256,uint256,uint256,uint256,uint256,uint32,uint256,uint8,string,bool))":"bb12d21d","getTrait(uint256)":"acb586df","getTraitImageSvg(uint256)":"a5e2912a","getTraitIndexToMetadata(uint256)":"ea139544","getTraitMetadata(uint256)":"d1bfc2af","getTraitType(uint256)":"e8a1268d","getZMapForTokenId(uint256)":"a8498c74","invalidateAllOperatorApprovals(uint256)":"90f63842","isApprovedForAll(address,address)":"e985e9c5","isMinter(address)":"aa271e1a","marketplace()":"abc8c7af","name()":"06fdde03","owner()":"8da5cb5b","ownerOf(uint256)":"6352211e","ownershipHandoverExpiresAt(address)":"fee81cf4","petersMain()":"1ca97604","removeMinter(address)":"3092afd5","renderAsDataUri(uint256)":"a1d62680","renounceOwnership()":"715018a6","requestOwnershipHandover()":"25692962","resolveEpochIfNecessary()":"239ffa68","safeMint(address)":"40d097c3","safeTransferFrom(address,address,uint256)":"42842e0e","safeTransferFrom(address,address,uint256,bytes)":"b88d4fde","setApprovalForAll(address,bool)":"a22cb465","setGhostMaps(bytes,bytes)":"e1defed9","setMarketplace(address)":"73ad6c2d","setPetersMain(address)":"a2c12c94","setTraitForTokenId(uint256,(uint256,bool,uint256,address,uint256,uint8))":"36d34ab9","setTraitIndexToMetadata(uint256,(uint256,string,uint8,string,bytes,bytes,address,address,string,string))":"8d37c537","setTraitRenderer(address)":"120def24","signer()":"238ac933","supportsInterface(bytes4)":"01ffc9a7","symbol()":"95d89b41","tokenByIndex(uint256)":"4f6ccce7","tokenOfOwnerByIndex(address,uint256)":"2f745c59","tokenURI(uint256)":"c87b56dd","totalSupply()":"18160ddd","traitIdToApprovedOperators(uint256,uint256)":"11f3910d","traitIndexToMetadata(uint256)":"817a29a4","traitRenderer()":"c876371b","traitTokens()":"e14d026f","transferFrom(address,address,uint256)":"23b872dd","transferOwnership(address)":"f2fde38b","walletOfOwner(address)":"438b6300"},"id":44}