{"abi":[{"type":"constructor","inputs":[{"name":"localDeploy_","type":"bool","internalType":"bool"}],"stateMutability":"nonpayable"},{"type":"function","name":"approve","inputs":[{"name":"_operator","type":"address","internalType":"address"},{"name":"_tokenId","type":"uint256","internalType":"uint256"}],"outputs":[],"stateMutability":"nonpayable"},{"type":"function","name":"balanceOf","inputs":[{"name":"owner","type":"address","internalType":"address"}],"outputs":[{"name":"","type":"uint256","internalType":"uint256"}],"stateMutability":"view"},{"type":"function","name":"burn","inputs":[{"name":"tokenId","type":"uint256","internalType":"uint256"}],"outputs":[],"stateMutability":"nonpayable"},{"type":"function","name":"burnBatch","inputs":[{"name":"tokenIds","type":"uint256[]","internalType":"uint256[]"}],"outputs":[],"stateMutability":"nonpayable"},{"type":"function","name":"callGetSVGZmapAndMetadataTrait","inputs":[{"name":"_traitId","type":"uint256","internalType":"uint256"},{"name":"_traitsSvg","type":"string","internalType":"string"},{"name":"_traitsAttributes","type":"string","internalType":"string"},{"name":"_traitZMaps","type":"bytes","internalType":"bytes"}],"outputs":[{"name":"traitsSvg","type":"string","internalType":"string"},{"name":"traitsAttributes","type":"string","internalType":"string"},{"name":"traitZMaps","type":"bytes","internalType":"bytes"}],"stateMutability":"view"},{"type":"function","name":"callGetSvgAndMetadataTrait","inputs":[{"name":"_traitId","type":"uint256","internalType":"uint256"},{"name":"_traitsSvg","type":"string","internalType":"string"},{"name":"_traitsAttributes","type":"string","internalType":"string"}],"outputs":[{"name":"traitsSvg","type":"string","internalType":"string"},{"name":"traitsAttributes","type":"string","internalType":"string"}],"stateMutability":"view"},{"type":"function","name":"cancelOwnershipHandover","inputs":[],"outputs":[],"stateMutability":"payable"},{"type":"function","name":"completeOwnershipHandover","inputs":[{"name":"pendingOwner","type":"address","internalType":"address"}],"outputs":[],"stateMutability":"payable"},{"type":"function","name":"createSvgFromPixels","inputs":[{"name":"_pixels","type":"bytes","internalType":"bytes"}],"outputs":[{"name":"svgParts","type":"bytes","internalType":"bytes"}],"stateMutability":"pure"},{"type":"function","name":"getApproved","inputs":[{"name":"tokenId","type":"uint256","internalType":"uint256"}],"outputs":[{"name":"","type":"address","internalType":"address"}],"stateMutability":"view"},{"type":"function","name":"getCurrentEpoch","inputs":[],"outputs":[{"name":"","type":"uint256","internalType":"uint256"}],"stateMutability":"view"},{"type":"function","name":"getEpoch","inputs":[],"outputs":[{"name":"","type":"uint256","internalType":"uint256"}],"stateMutability":"view"},{"type":"function","name":"getEpochData","inputs":[{"name":"index","type":"uint256","internalType":"uint256"}],"outputs":[{"name":"","type":"tuple","internalType":"struct CommitReveal.Epoch","components":[{"name":"randomness","type":"uint128","internalType":"uint128"},{"name":"revealBlock","type":"uint64","internalType":"uint64"},{"name":"committed","type":"bool","internalType":"bool"},{"name":"revealed","type":"bool","internalType":"bool"}]}],"stateMutability":"view"},{"type":"function","name":"getGhostSvg","inputs":[],"outputs":[{"name":"svg","type":"string","internalType":"string"}],"stateMutability":"view"},{"type":"function","name":"getSVGZmapAndMetadataTrait","inputs":[{"name":"trait","type":"tuple","internalType":"struct ITraitStorage.StoredTrait","components":[{"name":"epoch","type":"uint256","internalType":"uint256"},{"name":"isRevealed","type":"bool","internalType":"bool"},{"name":"seed","type":"uint256","internalType":"uint256"},{"name":"renderMinterContract","type":"address","internalType":"address"},{"name":"traitIndex","type":"uint256","internalType":"uint256"},{"name":"traitType","type":"uint8","internalType":"enum TraitCategory.Name"}]},{"name":"traitId","type":"uint256","internalType":"uint256"}],"outputs":[{"name":"traitSvg","type":"string","internalType":"string"},{"name":"traitZmap","type":"bytes","internalType":"bytes"},{"name":"traitAttributes","type":"string","internalType":"string"}],"stateMutability":"view"},{"type":"function","name":"getStoredTraitForTokenId","inputs":[{"name":"_tokenId","type":"uint256","internalType":"uint256"}],"outputs":[{"name":"","type":"tuple","internalType":"struct ITraitStorage.StoredTrait","components":[{"name":"epoch","type":"uint256","internalType":"uint256"},{"name":"isRevealed","type":"bool","internalType":"bool"},{"name":"seed","type":"uint256","internalType":"uint256"},{"name":"renderMinterContract","type":"address","internalType":"address"},{"name":"traitIndex","type":"uint256","internalType":"uint256"},{"name":"traitType","type":"uint8","internalType":"enum TraitCategory.Name"}]}],"stateMutability":"view"},{"type":"function","name":"getSvgAndMetadata","inputs":[{"name":"storedPeter","type":"tuple","internalType":"struct IPeterStorage.StoredPeter","components":[{"name":"headId","type":"uint256","internalType":"uint256"},{"name":"hairId","type":"uint256","internalType":"uint256"},{"name":"faceId","type":"uint256","internalType":"uint256"},{"name":"accessoryId","type":"uint256","internalType":"uint256"},{"name":"topId","type":"uint256","internalType":"uint256"},{"name":"bottomId","type":"uint256","internalType":"uint256"},{"name":"shoesId","type":"uint256","internalType":"uint256"},{"name":"epoch","type":"uint32","internalType":"uint32"},{"name":"tokenId","type":"uint256","internalType":"uint256"},{"name":"bodyIndex","type":"uint8","internalType":"uint8"},{"name":"backgroundColor","type":"string","internalType":"string"},{"name":"renderZ","type":"bool","internalType":"bool"}]}],"outputs":[{"name":"traitsSvg","type":"string","internalType":"string"},{"name":"traitsAttributes","type":"string","internalType":"string"}],"stateMutability":"view"},{"type":"function","name":"getSvgAndMetadataTrait","inputs":[{"name":"trait","type":"tuple","internalType":"struct ITraitStorage.StoredTrait","components":[{"name":"epoch","type":"uint256","internalType":"uint256"},{"name":"isRevealed","type":"bool","internalType":"bool"},{"name":"seed","type":"uint256","internalType":"uint256"},{"name":"renderMinterContract","type":"address","internalType":"address"},{"name":"traitIndex","type":"uint256","internalType":"uint256"},{"name":"traitType","type":"uint8","internalType":"enum TraitCategory.Name"}]},{"name":"traitId","type":"uint256","internalType":"uint256"}],"outputs":[{"name":"traitSvg","type":"string","internalType":"string"},{"name":"traitAttributes","type":"string","internalType":"string"}],"stateMutability":"view"},{"type":"function","name":"getSvgForTokenId","inputs":[{"name":"_tokenId","type":"uint256","internalType":"uint256"}],"outputs":[{"name":"traitSvg","type":"string","internalType":"string"}],"stateMutability":"view"},{"type":"function","name":"getSvgZmapsAndMetadata","inputs":[{"name":"storedPeter","type":"tuple","internalType":"struct IPeterStorage.StoredPeter","components":[{"name":"headId","type":"uint256","internalType":"uint256"},{"name":"hairId","type":"uint256","internalType":"uint256"},{"name":"faceId","type":"uint256","internalType":"uint256"},{"name":"accessoryId","type":"uint256","internalType":"uint256"},{"name":"topId","type":"uint256","internalType":"uint256"},{"name":"bottomId","type":"uint256","internalType":"uint256"},{"name":"shoesId","type":"uint256","internalType":"uint256"},{"name":"epoch","type":"uint32","internalType":"uint32"},{"name":"tokenId","type":"uint256","internalType":"uint256"},{"name":"bodyIndex","type":"uint8","internalType":"uint8"},{"name":"backgroundColor","type":"string","internalType":"string"},{"name":"renderZ","type":"bool","internalType":"bool"}]}],"outputs":[{"name":"traitsSvg","type":"string","internalType":"string"},{"name":"traitZMaps","type":"bytes","internalType":"bytes"},{"name":"traitsAttributes","type":"string","internalType":"string"}],"stateMutability":"view"},{"type":"function","name":"getTrait","inputs":[{"name":"_tokenId","type":"uint256","internalType":"uint256"}],"outputs":[{"name":"","type":"tuple","internalType":"struct ITraitStorage.StoredTrait","components":[{"name":"epoch","type":"uint256","internalType":"uint256"},{"name":"isRevealed","type":"bool","internalType":"bool"},{"name":"seed","type":"uint256","internalType":"uint256"},{"name":"renderMinterContract","type":"address","internalType":"address"},{"name":"traitIndex","type":"uint256","internalType":"uint256"},{"name":"traitType","type":"uint8","internalType":"enum TraitCategory.Name"}]}],"stateMutability":"view"},{"type":"function","name":"getTraitImage","inputs":[{"name":"colorMap","type":"bytes","internalType":"bytes"}],"outputs":[{"name":"","type":"bytes","internalType":"bytes"}],"stateMutability":"pure"},{"type":"function","name":"getTraitImageSvg","inputs":[{"name":"index","type":"uint256","internalType":"uint256"}],"outputs":[{"name":"svg","type":"string","internalType":"string"}],"stateMutability":"view"},{"type":"function","name":"getTraitIndexToMetadata","inputs":[{"name":"_traitIndex","type":"uint256","internalType":"uint256"}],"outputs":[{"name":"","type":"tuple","internalType":"struct ITraitStorage.TraitMetadata","components":[{"name":"traitIndex","type":"uint256","internalType":"uint256"},{"name":"traitName","type":"string","internalType":"string"},{"name":"traitType","type":"uint8","internalType":"enum TraitCategory.Name"},{"name":"animations","type":"string","internalType":"string"},{"name":"colorMap","type":"bytes","internalType":"bytes"},{"name":"zMap","type":"bytes","internalType":"bytes"},{"name":"renderMinterContract","type":"address","internalType":"address"},{"name":"creatorAddress","type":"address","internalType":"address"},{"name":"creatorName","type":"string","internalType":"string"},{"name":"season","type":"string","internalType":"string"}]}],"stateMutability":"view"},{"type":"function","name":"getTraitMetadata","inputs":[{"name":"_tokenId","type":"uint256","internalType":"uint256"}],"outputs":[{"name":"","type":"tuple","internalType":"struct ITraitStorage.TraitMetadata","components":[{"name":"traitIndex","type":"uint256","internalType":"uint256"},{"name":"traitName","type":"string","internalType":"string"},{"name":"traitType","type":"uint8","internalType":"enum TraitCategory.Name"},{"name":"animations","type":"string","internalType":"string"},{"name":"colorMap","type":"bytes","internalType":"bytes"},{"name":"zMap","type":"bytes","internalType":"bytes"},{"name":"renderMinterContract","type":"address","internalType":"address"},{"name":"creatorAddress","type":"address","internalType":"address"},{"name":"creatorName","type":"string","internalType":"string"},{"name":"season","type":"string","internalType":"string"}]}],"stateMutability":"view"},{"type":"function","name":"getTraitType","inputs":[{"name":"_tokenId","type":"uint256","internalType":"uint256"}],"outputs":[{"name":"","type":"uint8","internalType":"enum TraitCategory.Name"}],"stateMutability":"view"},{"type":"function","name":"getZMapForTokenId","inputs":[{"name":"_tokenId","type":"uint256","internalType":"uint256"}],"outputs":[{"name":"","type":"string","internalType":"string"}],"stateMutability":"view"},{"type":"function","name":"ghost","inputs":[],"outputs":[{"name":"colorMap","type":"bytes","internalType":"bytes"},{"name":"zMap","type":"bytes","internalType":"bytes"}],"stateMutability":"view"},{"type":"function","name":"invalidateAllOperatorApprovals","inputs":[{"name":"_tokenId","type":"uint256","internalType":"uint256"}],"outputs":[],"stateMutability":"nonpayable"},{"type":"function","name":"isApprovedForAll","inputs":[{"name":"owner","type":"address","internalType":"address"},{"name":"operator","type":"address","internalType":"address"}],"outputs":[{"name":"","type":"bool","internalType":"bool"}],"stateMutability":"view"},{"type":"function","name":"isMinter","inputs":[{"name":"","type":"address","internalType":"address"}],"outputs":[{"name":"","type":"bool","internalType":"bool"}],"stateMutability":"view"},{"type":"function","name":"marketplace","inputs":[],"outputs":[{"name":"","type":"address","internalType":"contract ChonksMarket"}],"stateMutability":"view"},{"type":"function","name":"minter","inputs":[],"outputs":[{"name":"","type":"address","internalType":"address"}],"stateMutability":"view"},{"type":"function","name":"name","inputs":[],"outputs":[{"name":"","type":"string","internalType":"string"}],"stateMutability":"view"},{"type":"function","name":"onERC721Received","inputs":[{"name":"","type":"address","internalType":"address"},{"name":"","type":"address","internalType":"address"},{"name":"","type":"uint256","internalType":"uint256"},{"name":"","type":"bytes","internalType":"bytes"}],"outputs":[{"name":"","type":"bytes4","internalType":"bytes4"}],"stateMutability":"pure"},{"type":"function","name":"owner","inputs":[],"outputs":[{"name":"result","type":"address","internalType":"address"}],"stateMutability":"view"},{"type":"function","name":"ownerOf","inputs":[{"name":"tokenId","type":"uint256","internalType":"uint256"}],"outputs":[{"name":"","type":"address","internalType":"address"}],"stateMutability":"view"},{"type":"function","name":"ownershipHandoverExpiresAt","inputs":[{"name":"pendingOwner","type":"address","internalType":"address"}],"outputs":[{"name":"result","type":"uint256","internalType":"uint256"}],"stateMutability":"view"},{"type":"function","name":"petersMain","inputs":[],"outputs":[{"name":"","type":"address","internalType":"contract PetersMain"}],"stateMutability":"view"},{"type":"function","name":"renderAsDataUri","inputs":[{"name":"_tokenId","type":"uint256","internalType":"uint256"}],"outputs":[{"name":"","type":"string","internalType":"string"}],"stateMutability":"view"},{"type":"function","name":"renounceOwnership","inputs":[],"outputs":[],"stateMutability":"payable"},{"type":"function","name":"requestOwnershipHandover","inputs":[],"outputs":[],"stateMutability":"payable"},{"type":"function","name":"resolveEpochIfNecessary","inputs":[],"outputs":[],"stateMutability":"nonpayable"},{"type":"function","name":"safeMint","inputs":[{"name":"_to","type":"address","internalType":"address"}],"outputs":[{"name":"","type":"uint256","internalType":"uint256"}],"stateMutability":"nonpayable"},{"type":"function","name":"safeTransferFrom","inputs":[{"name":"from","type":"address","internalType":"address"},{"name":"to","type":"address","internalType":"address"},{"name":"tokenId","type":"uint256","internalType":"uint256"}],"outputs":[],"stateMutability":"nonpayable"},{"type":"function","name":"safeTransferFrom","inputs":[{"name":"from","type":"address","internalType":"address"},{"name":"to","type":"address","internalType":"address"},{"name":"tokenId","type":"uint256","internalType":"uint256"},{"name":"data","type":"bytes","internalType":"bytes"}],"outputs":[],"stateMutability":"nonpayable"},{"type":"function","name":"setApprovalForAll","inputs":[{"name":"_operator","type":"address","internalType":"address"},{"name":"_approved","type":"bool","internalType":"bool"}],"outputs":[],"stateMutability":"nonpayable"},{"type":"function","name":"setGhostMaps","inputs":[{"name":"_colorMap","type":"bytes","internalType":"bytes"},{"name":"_zMap","type":"bytes","internalType":"bytes"}],"outputs":[],"stateMutability":"nonpayable"},{"type":"function","name":"setMarketplace","inputs":[{"name":"_marketplace","type":"address","internalType":"address"}],"outputs":[],"stateMutability":"nonpayable"},{"type":"function","name":"setPetersMain","inputs":[{"name":"_petersMain","type":"address","internalType":"address"}],"outputs":[],"stateMutability":"nonpayable"},{"type":"function","name":"setTraitForTokenId","inputs":[{"name":"_tokenId","type":"uint256","internalType":"uint256"},{"name":"_trait","type":"tuple","internalType":"struct ITraitStorage.StoredTrait","components":[{"name":"epoch","type":"uint256","internalType":"uint256"},{"name":"isRevealed","type":"bool","internalType":"bool"},{"name":"seed","type":"uint256","internalType":"uint256"},{"name":"renderMinterContract","type":"address","internalType":"address"},{"name":"traitIndex","type":"uint256","internalType":"uint256"},{"name":"traitType","type":"uint8","internalType":"enum TraitCategory.Name"}]}],"outputs":[],"stateMutability":"nonpayable"},{"type":"function","name":"setTraitIndexToMetadata","inputs":[{"name":"_traitIndex","type":"uint256","internalType":"uint256"},{"name":"_metadata","type":"tuple","internalType":"struct ITraitStorage.TraitMetadata","components":[{"name":"traitIndex","type":"uint256","internalType":"uint256"},{"name":"traitName","type":"string","internalType":"string"},{"name":"traitType","type":"uint8","internalType":"enum TraitCategory.Name"},{"name":"animations","type":"string","internalType":"string"},{"name":"colorMap","type":"bytes","internalType":"bytes"},{"name":"zMap","type":"bytes","internalType":"bytes"},{"name":"renderMinterContract","type":"address","internalType":"address"},{"name":"creatorAddress","type":"address","internalType":"address"},{"name":"creatorName","type":"string","internalType":"string"},{"name":"season","type":"string","internalType":"string"}]}],"outputs":[],"stateMutability":"nonpayable"},{"type":"function","name":"signer","inputs":[],"outputs":[{"name":"","type":"address","internalType":"address"}],"stateMutability":"view"},{"type":"function","name":"supportsInterface","inputs":[{"name":"interfaceId","type":"bytes4","internalType":"bytes4"}],"outputs":[{"name":"","type":"bool","internalType":"bool"}],"stateMutability":"view"},{"type":"function","name":"symbol","inputs":[],"outputs":[{"name":"","type":"string","internalType":"string"}],"stateMutability":"view"},{"type":"function","name":"tokenByIndex","inputs":[{"name":"index","type":"uint256","internalType":"uint256"}],"outputs":[{"name":"","type":"uint256","internalType":"uint256"}],"stateMutability":"view"},{"type":"function","name":"tokenOfOwnerByIndex","inputs":[{"name":"owner","type":"address","internalType":"address"},{"name":"index","type":"uint256","internalType":"uint256"}],"outputs":[{"name":"","type":"uint256","internalType":"uint256"}],"stateMutability":"view"},{"type":"function","name":"tokenURI","inputs":[{"name":"_tokenId","type":"uint256","internalType":"uint256"}],"outputs":[{"name":"","type":"string","internalType":"string"}],"stateMutability":"view"},{"type":"function","name":"totalSupply","inputs":[],"outputs":[{"name":"","type":"uint256","internalType":"uint256"}],"stateMutability":"view"},{"type":"function","name":"traitIdToApprovedOperators","inputs":[{"name":"traitId","type":"uint256","internalType":"uint256"},{"name":"","type":"uint256","internalType":"uint256"}],"outputs":[{"name":"operators","type":"address","internalType":"address"}],"stateMutability":"view"},{"type":"function","name":"traitIndexToMetadata","inputs":[{"name":"","type":"uint256","internalType":"uint256"}],"outputs":[{"name":"traitIndex","type":"uint256","internalType":"uint256"},{"name":"traitName","type":"string","internalType":"string"},{"name":"traitType","type":"uint8","internalType":"enum TraitCategory.Name"},{"name":"animations","type":"string","internalType":"string"},{"name":"colorMap","type":"bytes","internalType":"bytes"},{"name":"zMap","type":"bytes","internalType":"bytes"},{"name":"renderMinterContract","type":"address","internalType":"address"},{"name":"creatorAddress","type":"address","internalType":"address"},{"name":"creatorName","type":"string","internalType":"string"},{"name":"season","type":"string","internalType":"string"}],"stateMutability":"view"},{"type":"function","name":"traitTokens","inputs":[],"outputs":[{"name":"epoch","type":"uint256","internalType":"uint256"}],"stateMutability":"view"},{"type":"function","name":"transferFrom","inputs":[{"name":"from","type":"address","internalType":"address"},{"name":"to","type":"address","internalType":"address"},{"name":"tokenId","type":"uint256","internalType":"uint256"}],"outputs":[],"stateMutability":"nonpayable"},{"type":"function","name":"transferOwnership","inputs":[{"name":"newOwner","type":"address","internalType":"address"}],"outputs":[],"stateMutability":"payable"},{"type":"function","name":"walletOfOwner","inputs":[{"name":"_owner","type":"address","internalType":"address"}],"outputs":[{"name":"","type":"uint256[]","internalType":"uint256[]"}],"stateMutability":"view"},{"type":"event","name":"AllOperatorApprovalsInvalidated","inputs":[{"name":"tokenId","type":"uint256","indexed":true,"internalType":"uint256"}],"anonymous":false},{"type":"event","name":"Approval","inputs":[{"name":"owner","type":"address","indexed":true,"internalType":"address"},{"name":"approved","type":"address","indexed":true,"internalType":"address"},{"name":"tokenId","type":"uint256","indexed":true,"internalType":"uint256"}],"anonymous":false},{"type":"event","name":"ApprovalForAll","inputs":[{"name":"owner","type":"address","indexed":true,"internalType":"address"},{"name":"operator","type":"address","indexed":true,"internalType":"address"},{"name":"approved","type":"bool","indexed":false,"internalType":"bool"}],"anonymous":false},{"type":"event","name":"BatchMetadataUpdate","inputs":[{"name":"_fromTokenId","type":"uint256","indexed":false,"internalType":"uint256"},{"name":"_toTokenId","type":"uint256","indexed":false,"internalType":"uint256"}],"anonymous":false},{"type":"event","name":"MetadataUpdate","inputs":[{"name":"_tokenId","type":"uint256","indexed":false,"internalType":"uint256"}],"anonymous":false},{"type":"event","name":"Mint","inputs":[{"name":"owner","type":"address","indexed":true,"internalType":"address"},{"name":"tokenId","type":"uint256","indexed":true,"internalType":"uint256"}],"anonymous":false},{"type":"event","name":"NewEpoch","inputs":[{"name":"epoch","type":"uint256","indexed":true,"internalType":"uint256"},{"name":"revealBlock","type":"uint64","indexed":true,"internalType":"uint64"}],"anonymous":false},{"type":"event","name":"OwnershipHandoverCanceled","inputs":[{"name":"pendingOwner","type":"address","indexed":true,"internalType":"address"}],"anonymous":false},{"type":"event","name":"OwnershipHandoverRequested","inputs":[{"name":"pendingOwner","type":"address","indexed":true,"internalType":"address"}],"anonymous":false},{"type":"event","name":"OwnershipTransferred","inputs":[{"name":"oldOwner","type":"address","indexed":true,"internalType":"address"},{"name":"newOwner","type":"address","indexed":true,"internalType":"address"}],"anonymous":false},{"type":"event","name":"Transfer","inputs":[{"name":"from","type":"address","indexed":true,"internalType":"address"},{"name":"to","type":"address","indexed":true,"internalType":"address"},{"name":"tokenId","type":"uint256","indexed":true,"internalType":"uint256"}],"anonymous":false},{"type":"error","name":"AlreadyInitialized","inputs":[]},{"type":"error","name":"CantTransfer","inputs":[]},{"type":"error","name":"NewOwnerIsZeroAddress","inputs":[]},{"type":"error","name":"NoHandoverRequest","inputs":[]},{"type":"error","name":"NotATBA","inputs":[]},{"type":"error","name":"NotAValidMinterContract","inputs":[]},{"type":"error","name":"NotYourTrait","inputs":[]},{"type":"error","name":"TraitNotFound","inputs":[{"name":"_tokenId","type":"uint256","internalType":"uint256"}]},{"type":"error","name":"TraitTokenDoesntExist","inputs":[]},{"type":"error","name":"Unauthorized","inputs":[]}],"bytecode":{"object":"0x60806040523480156200001157600080fd5b50604051620078453803806200784583398101604081905262000034916200021d565b6040518060400160405280600b81526020016a506574657254726169747360a81b81525060405180604001604052806003815260200162282a2960e91b8152508160009081620000859190620002ef565b506001620000948282620002ef565b50506001600a5550620000a73362000122565b6017805460ff191682151517905560408051606081019091526030808252620000db9190620078156020830139826200015e565b60408051808201909152601981527f5065746572547261697473204f776e65722073657420746f3a0000000000000060208201526200011b9033620001af565b5062000455565b6001600160a01b0316638b78c6d8198190558060007f8be0079c531659141344cd1fd0a4f28419497f9722a3daafe3b4186f6b6457e08180a350565b620001ab82826040516024016200017792919062000403565b60408051601f198184030181529190526020810180516001600160e01b0390811663c3b5563560e01b17909152620001fc16565b5050565b620001ab8282604051602401620001c892919062000429565b60408051601f198184030181529190526020810180516001600160e01b0390811663319af33360e01b17909152620001fc16565b80516a636f6e736f6c652e6c6f67602083016000808483855afa5050505050565b6000602082840312156200023057600080fd5b815180151581146200024157600080fd5b9392505050565b634e487b7160e01b600052604160045260246000fd5b600181811c908216806200027357607f821691505b6020821081036200029457634e487b7160e01b600052602260045260246000fd5b50919050565b601f821115620002ea576000816000526020600020601f850160051c81016020861015620002c55750805b601f850160051c820191505b81811015620002e657828155600101620002d1565b5050505b505050565b81516001600160401b038111156200030b576200030b62000248565b62000323816200031c84546200025e565b846200029a565b602080601f8311600181146200035b5760008415620003425750858301515b600019600386901b1c1916600185901b178555620002e6565b600085815260208120601f198616915b828110156200038c578886015182559484019460019091019084016200036b565b5085821015620003ab5787850151600019600388901b60f8161c191681555b5050505050600190811b01905550565b6000815180845260005b81811015620003e357602081850181015186830182015201620003c5565b506000602082860101526020601f19601f83011685010191505092915050565b604081526000620004186040830185620003bb565b905082151560208301529392505050565b6040815260006200043e6040830185620003bb565b905060018060a01b03831660208301529392505050565b6173b080620004656000396000f3fe6080604052600436106103ce5760003560e01c8063859e7d32116101fd578063bb12d21d11610118578063e4623c1b116100ab578063f04e283e1161007a578063f04e283e14610c60578063f127194214610c73578063f2fde38b14610c93578063f901667f14610ca6578063fee81cf414610cc657600080fd5b8063e4623c1b14610baa578063e8a1268d14610bca578063e985e9c514610bf7578063ea13954414610c4057600080fd5b8063df2c2b88116100e7578063df2c2b8814610b33578063e08714a614610b53578063e14d026f14610b73578063e1defed914610b8a57600080fd5b8063bb12d21d14610a97578063c779153114610ac6578063c87b56dd14610ae6578063d1bfc2af14610b0657600080fd5b8063a2c12c9411610190578063abc8c7af1161015f578063abc8c7af14610a37578063acb586df14610a57578063b88d4fde14610a77578063b97dd9e2146107a757600080fd5b8063a2c12c94146109a7578063a5e2912a146109c7578063a8498c74146109e7578063aa271e1a14610a0757600080fd5b806390f63842116101cc57806390f638421461093257806395d89b4114610952578063a1d6268014610967578063a22cb4651461098757600080fd5b8063859e7d32146107f2578063898aa117146108d95780638d37c537146108f95780638da5cb5b1461091957600080fd5b806333a70328116102ed57806354d1f13d11610280578063715018a61161024f578063715018a61461077f57806373ad6c2d14610787578063757991a8146107a7578063817a29a4146107bc57600080fd5b806354d1f13d146107225780635c1ef2561461072a5780636352211e1461073f57806370a082311461075f57600080fd5b806342966c68116102bc57806342966c68146106a0578063438b6300146106c05780634f6ccce7146106ed57806351dc71891461070d57600080fd5b806333a703281461061257806336d34ab91461064057806340d097c31461066057806342842e0e1461068057600080fd5b80631ca9760411610365578063239ffa6811610334578063239ffa68146105b557806323b872dd146105ca57806325692962146105ea5780632f745c59146105f257600080fd5b80631ca9760414610528578063208c25a31461054857806321b12c2314610575578063238ac9331461059557600080fd5b8063095ea7b3116103a1578063095ea7b31461048257806311f3910d146104a4578063150b7a02146104c457806318160ddd1461050957600080fd5b806301ffc9a7146103d357806306fdde0314610408578063075461721461042a578063081812fc14610462575b600080fd5b3480156103df57600080fd5b506103f36103ee366004615c1c565b610cf9565b60405190151581526020015b60405180910390f35b34801561041457600080fd5b5061041d610d0a565b6040516103ff9190615c90565b34801561043657600080fd5b5060105461044a906001600160a01b031681565b6040516001600160a01b0390911681526020016103ff565b34801561046e57600080fd5b5061044a61047d366004615ca3565b610d9c565b34801561048e57600080fd5b506104a261049d366004615ce1565b610dc3565b005b3480156104b057600080fd5b5061044a6104bf366004615d0d565b610fee565b3480156104d057600080fd5b506104f06104df366004615d2f565b630a85bd0160e11b95945050505050565b6040516001600160e01b031990911681526020016103ff565b34801561051557600080fd5b506008545b6040519081526020016103ff565b34801561053457600080fd5b5060145461044a906001600160a01b031681565b34801561055457600080fd5b50610568610563366004615ca3565b611026565b6040516103ff9190615e4d565b34801561058157600080fd5b5061041d610590366004615f8c565b6110ee565b3480156105a157600080fd5b5060115461044a906001600160a01b031681565b3480156105c157600080fd5b506104a2611937565b3480156105d657600080fd5b506104a26105e5366004615fc0565b611b13565b6104a2611b52565b3480156105fe57600080fd5b5061051a61060d366004615ce1565b611ba1565b34801561061e57600080fd5b5061063261062d3660046160a5565b611c37565b6040516103ff9291906160d0565b34801561064c57600080fd5b506104a261065b3660046160f5565b611de1565b34801561066c57600080fd5b5061051a61067b366004616122565b611e7a565b34801561068c57600080fd5b506104a261069b366004615fc0565b611fd6565b3480156106ac57600080fd5b506104a26106bb366004615ca3565b611ff1565b3480156106cc57600080fd5b506106e06106db366004616122565b611ffa565b6040516103ff919061613f565b3480156106f957600080fd5b5061051a610708366004615ca3565b612091565b34801561071957600080fd5b50610632612124565b6104a2612244565b34801561073657600080fd5b5061041d612280565b34801561074b57600080fd5b5061044a61075a366004615ca3565b612350565b34801561076b57600080fd5b5061051a61077a366004616122565b6123b0565b6104a2612436565b34801561079357600080fd5b506104a26107a2366004616122565b61244a565b3480156107b357600080fd5b50600c5461051a565b3480156107c857600080fd5b506107dc6107d7366004615ca3565b612474565b6040516103ff9a99989796959493929190616183565b3480156107fe57600080fd5b5061089061080d366004615ca3565b6040805160808082018352600080835260208084018290528385018290526060938401829052948152600d855283902083519182018452546001600160801b03811682526001600160401b03600160801b8204169482019490945260ff600160c01b85048116151593820193909352600160c81b90930490911615159082015290565b6040516103ff919081516001600160801b031681526020808301516001600160401b03169082015260408083015115159082015260609182015115159181019190915260800190565b3480156108e557600080fd5b5061041d6108f4366004615f8c565b61280c565b34801561090557600080fd5b506104a2610914366004616238565b612a5e565b34801561092557600080fd5b50638b78c6d8195461044a565b34801561093e57600080fd5b506104a261094d366004615ca3565b612b5d565b34801561095e57600080fd5b5061041d612cb4565b34801561097357600080fd5b5061041d610982366004615ca3565b612cc3565b34801561099357600080fd5b506104a26109a23660046163a6565b613322565b3480156109b357600080fd5b506104a26109c2366004616122565b61355f565b3480156109d357600080fd5b5061041d6109e2366004615ca3565b613589565b3480156109f357600080fd5b5061041d610a02366004615ca3565b6135e5565b348015610a1357600080fd5b506103f3610a22366004616122565b60166020526000908152604090205460ff1681565b348015610a4357600080fd5b5060155461044a906001600160a01b031681565b348015610a6357600080fd5b50610568610a72366004615ca3565b61369d565b348015610a8357600080fd5b506104a2610a923660046163df565b61383c565b348015610aa357600080fd5b50610ab7610ab236600461646f565b613874565b6040516103ff93929190616568565b348015610ad257600080fd5b5061041d610ae1366004615ca3565b613973565b348015610af257600080fd5b5061041d610b01366004615ca3565b6139cd565b348015610b1257600080fd5b50610b26610b21366004615ca3565b613a0e565b6040516103ff91906165ab565b348015610b3f57600080fd5b50610632610b4e36600461646f565b613e1b565b348015610b5f57600080fd5b50610632610b6e3660046166b4565b613efa565b348015610b7f57600080fd5b50600c5461051a9081565b348015610b9657600080fd5b506104a2610ba5366004616720565b613f85565b348015610bb657600080fd5b506104a2610bc5366004616783565b613fa6565b348015610bd657600080fd5b50610bea610be5366004615ca3565b613fdc565b6040516103ff9190616828565b348015610c0357600080fd5b506103f3610c12366004616836565b6001600160a01b03918216600090815260056020908152604080832093909416825291909152205460ff1690565b348015610c4c57600080fd5b50610b26610c5b366004615ca3565b6143e9565b6104a2610c6e366004616122565b6147e4565b348015610c7f57600080fd5b50610ab7610c8e366004616864565b614821565b6104a2610ca1366004616122565b6148db565b348015610cb257600080fd5b50610ab7610cc13660046160a5565b614902565b348015610cd257600080fd5b5061051a610ce1366004616122565b63389a75e1600c908152600091909152602090205490565b6000610d0482614a89565b92915050565b606060008054610d19906168e9565b80601f0160208091040260200160405190810160405280929190818152602001828054610d45906168e9565b8015610d925780601f10610d6757610100808354040283529160200191610d92565b820191906000526020600020905b815481529060010190602001808311610d7557829003601f168201915b5050505050905090565b6000610da782614aae565b506000908152600460205260409020546001600160a01b031690565b6000818152600260205260409020546001600160a01b0316610df857604051632df0e24560e21b815260040160405180910390fd5b33610e0282612350565b6001600160a01b031614610e2957604051633e79b9f360e01b815260040160405180910390fd5b6001600160a01b038216610f4a576000818152601360205260408120905b8154811015610f4357836001600160a01b0316828281548110610e6c57610e6c61691d565b6000918252602090912001546001600160a01b031603610f3b5781548290610e9690600190616949565b81548110610ea657610ea661691d565b9060005260206000200160009054906101000a90046001600160a01b0316828281548110610ed657610ed661691d565b9060005260206000200160006101000a8154816001600160a01b0302191690836001600160a01b0316021790555081805480610f1457610f1461695c565b600082815260209020810160001990810180546001600160a01b0319169055019055610f43565b600101610e47565b5050610fe0565b600081815260136020526040812090805b8254811015610fab57846001600160a01b0316838281548110610f8057610f8061691d565b6000918252602090912001546001600160a01b031603610fa35760019150610fab565b600101610f5b565b5080610fdd5781546001810183556000838152602090200180546001600160a01b0319166001600160a01b0386161790555b50505b610fea8282614b0d565b5050565b6013602052816000526040600020818154811061100a57600080fd5b6000918252602090912001546001600160a01b03169150829050565b61105c6040805160c08101825260008082526020820181905291810182905260608101829052608081018290529060a082015290565b6000828152600b6020908152604091829020825160c08101845281548152600182015460ff90811615159382019390935260028201549381019390935260038101546001600160a01b03166060840152600481015460808401526005810154909160a08401911660078111156110d4576110d4615dcd565b60078111156110e5576110e5615dcd565b90525092915050565b60606000604051806102000160405280604051806040016040528060018152602001600360fc1b8152508152602001604051806040016040528060018152602001603160f81b8152508152602001604051806040016040528060018152602001601960f91b8152508152602001604051806040016040528060018152602001603360f81b8152508152602001604051806040016040528060018152602001600d60fa1b8152508152602001604051806040016040528060018152602001603560f81b8152508152602001604051806040016040528060018152602001601b60f91b8152508152602001604051806040016040528060018152602001603760f81b8152508152602001604051806040016040528060018152602001600760fb1b8152508152602001604051806040016040528060018152602001603960f81b8152508152602001604051806040016040528060018152602001606160f81b8152508152602001604051806040016040528060018152602001603160f91b8152508152602001604051806040016040528060018152602001606360f81b8152508152602001604051806040016040528060018152602001601960fa1b8152508152602001604051806040016040528060018152602001606560f81b8152508152602001604051806040016040528060018152602001603360f91b81525081525090506000604051806103c00160405280604051806040016040528060018152602001600360fc1b8152508152602001604051806040016040528060018152602001603160f81b8152508152602001604051806040016040528060018152602001601960f91b8152508152602001604051806040016040528060018152602001603360f81b8152508152602001604051806040016040528060018152602001600d60fa1b8152508152602001604051806040016040528060018152602001603560f81b8152508152602001604051806040016040528060018152602001601b60f91b8152508152602001604051806040016040528060018152602001603760f81b8152508152602001604051806040016040528060018152602001600760fb1b8152508152602001604051806040016040528060018152602001603960f81b815250815260200160405180604001604052806002815260200161031360f41b815250815260200160405180604001604052806002815260200161313160f01b815250815260200160405180604001604052806002815260200161189960f11b815250815260200160405180604001604052806002815260200161313360f01b8152508152602001604051806040016040528060028152602001610c4d60f21b815250815260200160405180604001604052806002815260200161313560f01b815250815260200160405180604001604052806002815260200161189b60f11b815250815260200160405180604001604052806002815260200161313760f01b815250815260200160405180604001604052806002815260200161062760f31b815250815260200160405180604001604052806002815260200161313960f01b815250815260200160405180604001604052806002815260200161032360f41b815250815260200160405180604001604052806002815260200161323160f01b815250815260200160405180604001604052806002815260200161191960f11b815250815260200160405180604001604052806002815260200161323360f01b8152508152602001604051806040016040528060028152602001610c8d60f21b815250815260200160405180604001604052806002815260200161323560f01b815250815260200160405180604001604052806002815260200161191b60f11b815250815260200160405180604001604052806002815260200161323760f01b815250815260200160405180604001604052806002815260200161064760f31b815250815260200160405180604001604052806002815260200161323960f01b815250815250905060005b61119481101561192f57600060f81b8582815181106116d6576116d661691d565b01602001516001600160f81b031916111561191d576000601e6116fa600584616988565b611704919061699c565b90506000601e611715600585616988565b61171f9190616988565b90506000856004896117328760026169b0565b815181106117425761174261691d565b016020015160f81c901c60ff166010811061175f5761175f61691d565b602002015186896117718760026169b0565b815181106117815761178161691d565b60209101015160f81c600f166010811061179d5761179d61691d565b60200201518760048b6117b18960036169b0565b815181106117c1576117c161691d565b016020015160f81c901c60ff16601081106117de576117de61691d565b6020020151888b6117f08960036169b0565b815181106118005761180061691d565b60209101015160f81c600f166010811061181c5761181c61691d565b60200201518960048d61182f8b836169b0565b8151811061183f5761183f61691d565b016020015160f81c901c60ff166010811061185c5761185c61691d565b60200201518a8d61186e8b60046169b0565b8151811061187e5761187e61691d565b60209101015160f81c600f166010811061189a5761189a61691d565b60200201516040516020016118b4969594939291906169c3565b6040516020818303038152906040529050868584601e81106118d8576118d861691d565b60200201518684601e81106118ef576118ef61691d565b6020020151836040516020016119089493929190616a42565b60405160208183030381529060405296505050505b6119286005826169b0565b90506116b5565b505050919050565b600c546000908152600d602052604090208054600160c01b900460ff16158061198f57508054600160c81b900460ff1615801561198f575061197b61010043616949565b8154600160801b90046001600160401b0316105b156119da5761199f4360326169b0565b815460ff60c01b196001600160401b0392909216600160801b029190911668ffffffffffffffffff60801b1990911617600160c01b17815550565b8054600160801b90046001600160401b0316431115611b1057805460408051600160801b9092046001600160401b031640602083015244908201526001600160801b03906060016040516020818303038152906040528051906020012060001c611a44919061699c565b8154600160c81b6001600160801b039290921679ff000000000000000000ffffffffffffffffffffffffffffffff199091161717808255600c54604051600160801b9092046001600160401b0316917f78611aecfda8d341359c248df527c95aef93d446c92bb928b2a81b7abcb1d8d990600090a3604080516000815260001960208201527f6bd5c950a8d8df17f772f5af37cb3655737899cbf903264b9795592da439661c910160405180910390a1600c8054600090611b0490616afc565b90915550611b10611937565b50565b611b1d3382614c1d565b611b425760405162461bcd60e51b8152600401611b3990616b15565b60405180910390fd5b611b4d838383614c9c565b505050565b60006202a3006001600160401b03164201905063389a75e1600c5233600052806020600c2055337fdbf36a107da19e49527a7176a1babf963b4b0ff8cde35ee35d6cd8f1f9ac7e1d600080a250565b6000611bac836123b0565b8210611c0e5760405162461bcd60e51b815260206004820152602b60248201527f455243373231456e756d657261626c653a206f776e657220696e646578206f7560448201526a74206f6620626f756e647360a81b6064820152608401611b39565b506001600160a01b03919091166000908152600660209081526040808320938352929052205490565b60608083602001518015611c4b5750600083115b15611d9657608084015160009081526012602052604090819020600281015491516301be83d160e11b81529091611d7f9173__$4987fe9f4e800c5c4c1535f64ed232842a$__9163037d07a291611ca89160ff1690600401616828565b600060405180830381865af4158015611cc5573d6000803e3d6000fd5b505050506040513d6000823e601f3d908101601f19168201604052611ced9190810190616b63565b826001018054611cfc906168e9565b80601f0160208091040260200160405190810160405280929190818152602001828054611d28906168e9565b8015611d755780601f10611d4a57610100808354040283529160200191611d75565b820191906000526020600020905b815481529060010190602001808311611d5857829003601f168201915b5050505050614e49565b9150611d8e8560800151613589565b925050611dda565b604051806040016040528060028152602001617b7d60f01b81525090506040518060400160405280600b81526020016a1e39bb339f1e17b9bb339f60a91b81525091505b9250929050565b6000828152600b602090815260409182902083518155908301516001808301805492151560ff1993841617905592840151600283015560608401516003830180546001600160a01b039092166001600160a01b03199092169190911790556080840151600483015560a0840151600583018054869592939192911690836007811115611e6f57611e6f615dcd565b021790555050505050565b6000611ebb6040518060400160405280601981526020017f506574657254726169747320736166654d696e742c20746f3a0000000000000081525083614e75565b611eee604051806040016040528060128152602001713932b9b7b63b34b7339032b837b1b417171760711b815250614eba565b611ef6611937565b611f346040518060400160405280601f81526020017f50657465725472616974732063616c6c696e6720736166654d696e742e2e2e00815250614eba565b6000611f3f60085490565b611f4a9060016169b0565b9050611f568382614efd565b611f956040518060400160405280601d81526020017f506574657254726169747320736166654d696e74656420746f6b656e3a00000081525082614f17565b604080516000815260001960208201527f6bd5c950a8d8df17f772f5af37cb3655737899cbf903264b9795592da439661c910160405180910390a192915050565b611b4d8383836040518060200160405280600081525061383c565b611b1081614f5c565b60606000612007836123b0565b90506000816001600160401b0381111561202357612023615e5b565b60405190808252806020026020018201604052801561204c578160200160208202803683370190505b50905060005b82811015612089576120648582611ba1565b8282815181106120765761207661691d565b6020908102919091010152600101612052565b509392505050565b600061209c60085490565b82106120ff5760405162461bcd60e51b815260206004820152602c60248201527f455243373231456e756d657261626c653a20676c6f62616c20696e646578206f60448201526b7574206f6620626f756e647360a01b6064820152608401611b39565b600882815481106121125761211261691d565b90600052602060002001549050919050565b600e80548190612133906168e9565b80601f016020809104026020016040519081016040528092919081815260200182805461215f906168e9565b80156121ac5780601f10612181576101008083540402835291602001916121ac565b820191906000526020600020905b81548152906001019060200180831161218f57829003601f168201915b5050505050908060010180546121c1906168e9565b80601f01602080910402602001604051908101604052809291908181526020018280546121ed906168e9565b801561223a5780601f1061220f5761010080835404028352916020019161223a565b820191906000526020600020905b81548152906001019060200180831161221d57829003601f168201915b5050505050905082565b63389a75e1600c523360005260006020600c2055337ffa7b8eab7da67f412cc9575ed43464468f9bfbae89d1675917346ca6d8fe3c92600080a2565b6060600061231a600e6000018054612297906168e9565b80601f01602080910402602001604051908101604052809291908181526020018280546122c3906168e9565b80156123105780601f106122e557610100808354040283529160200191612310565b820191906000526020600020905b8154815290600101906020018083116122f357829003601f168201915b505050505061280c565b90506000612327826110ee565b90508060405160200161233a9190616bd0565b6040516020818303038152906040529250505090565b6000818152600260205260408120546001600160a01b031680610d045760405162461bcd60e51b8152602060048201526018602482015277115490cdcc8c4e881a5b9d985b1a59081d1bdad95b88125160421b6044820152606401611b39565b60006001600160a01b03821661241a5760405162461bcd60e51b815260206004820152602960248201527f4552433732313a2061646472657373207a65726f206973206e6f7420612076616044820152683634b21037bbb732b960b91b6064820152608401611b39565b506001600160a01b031660009081526003602052604090205490565b61243e61500b565b6124486000615026565b565b61245261500b565b601580546001600160a01b0319166001600160a01b0392909216919091179055565b60126020526000908152604090208054600182018054919291612496906168e9565b80601f01602080910402602001604051908101604052809291908181526020018280546124c2906168e9565b801561250f5780601f106124e45761010080835404028352916020019161250f565b820191906000526020600020905b8154815290600101906020018083116124f257829003601f168201915b5050506002840154600385018054949560ff909216949193509150612533906168e9565b80601f016020809104026020016040519081016040528092919081815260200182805461255f906168e9565b80156125ac5780601f10612581576101008083540402835291602001916125ac565b820191906000526020600020905b81548152906001019060200180831161258f57829003601f168201915b5050505050908060040180546125c1906168e9565b80601f01602080910402602001604051908101604052809291908181526020018280546125ed906168e9565b801561263a5780601f1061260f5761010080835404028352916020019161263a565b820191906000526020600020905b81548152906001019060200180831161261d57829003601f168201915b50505050509080600501805461264f906168e9565b80601f016020809104026020016040519081016040528092919081815260200182805461267b906168e9565b80156126c85780601f1061269d576101008083540402835291602001916126c8565b820191906000526020600020905b8154815290600101906020018083116126ab57829003601f168201915b5050506006840154600785015460088601805495966001600160a01b03938416969290931694509192506126fb906168e9565b80601f0160208091040260200160405190810160405280929190818152602001828054612727906168e9565b80156127745780601f1061274957610100808354040283529160200191612774565b820191906000526020600020905b81548152906001019060200180831161275757829003601f168201915b505050505090806009018054612789906168e9565b80601f01602080910402602001604051908101604052809291908181526020018280546127b5906168e9565b80156128025780601f106127d757610100808354040283529160200191612802565b820191906000526020600020905b8154815290600101906020018083116127e557829003601f168201915b505050505090508a565b8051604080516111948082526111c0820190925260609291600091906020820181803683370190505090506000612844600584616988565b905060005b81811015612a5457600061285e826005616c3a565b905060008782815181106128745761287461691d565b016020015160f81c905060008861288c8460016169b0565b8151811061289c5761289c61691d565b016020015160f81c9050600060ff83166128b783601e616c3a565b6128c191906169b0565b6128cc906005616c3a565b90508984815181106128e0576128e061691d565b602001015160f81c60f81b8782815181106128fd576128fd61691d565b60200101906001600160f81b031916908160001a9053508984600101815181106129295761292961691d565b602001015160f81c60f81b8782600101815181106129495761294961691d565b60200101906001600160f81b031916908160001a9053508984600201815181106129755761297561691d565b602001015160f81c60f81b8782600201815181106129955761299561691d565b60200101906001600160f81b031916908160001a9053508984600301815181106129c1576129c161691d565b602001015160f81c60f81b8782600301815181106129e1576129e161691d565b60200101906001600160f81b031916908160001a905350898460040181518110612a0d57612a0d61691d565b602001015160f81c60f81b878260040181518110612a2d57612a2d61691d565b60200101906001600160f81b031916908160001a9053505060019093019250612849915050565b5090949350505050565b600082815260126020908152604090912082518155908201518291906001820190612a899082616c99565b50604082015160028201805460ff19166001836007811115612aad57612aad615dcd565b021790555060608201516003820190612ac69082616c99565b5060808201516004820190612adb9082616c99565b5060a08201516005820190612af09082616c99565b5060c08201516006820180546001600160a01b039283166001600160a01b03199182161790915560e08401516007840180549190931691161790556101008201516008820190612b409082616c99565b506101208201516009820190612b569082616c99565b5050505050565b6000818152600260205260409020546001600160a01b0316612b9257604051632df0e24560e21b815260040160405180910390fd5b33612b9c82612350565b6001600160a01b031614612bc357604051633e79b9f360e01b815260040160405180910390fd5b6000818152601360205260408120612bda91615b6a565b612be5600082614b0d565b600081815260136020908152604080832080548251818502810185019093528083529192909190830182828015612c4557602002820191906000526020600020905b81546001600160a01b03168152600190910190602001808311612c27575b5050505050905060005b8151811015612c8457612c7c828281518110612c6d57612c6d61691d565b60200260200101516000615064565b600101612c4f565b5060405182907fe6727257e6b1474b2ced9b705eafa89027508be445f1a76db669635c92f5242090600090a25050565b606060018054610d19906168e9565b6060806060806000612cd3612280565b90506000612ce08761369d565b905080602001511561320057600060126000836080015181526020019081526020016000206040518061014001604052908160008201548152602001600182018054612d2b906168e9565b80601f0160208091040260200160405190810160405280929190818152602001828054612d57906168e9565b8015612da45780601f10612d7957610100808354040283529160200191612da4565b820191906000526020600020905b815481529060010190602001808311612d8757829003601f168201915b5050509183525050600282015460209091019060ff166007811115612dcb57612dcb615dcd565b6007811115612ddc57612ddc615dcd565b8152602001600382018054612df0906168e9565b80601f0160208091040260200160405190810160405280929190818152602001828054612e1c906168e9565b8015612e695780601f10612e3e57610100808354040283529160200191612e69565b820191906000526020600020905b815481529060010190602001808311612e4c57829003601f168201915b50505050508152602001600482018054612e82906168e9565b80601f0160208091040260200160405190810160405280929190818152602001828054612eae906168e9565b8015612efb5780601f10612ed057610100808354040283529160200191612efb565b820191906000526020600020905b815481529060010190602001808311612ede57829003601f168201915b50505050508152602001600582018054612f14906168e9565b80601f0160208091040260200160405190810160405280929190818152602001828054612f40906168e9565b8015612f8d5780601f10612f6257610100808354040283529160200191612f8d565b820191906000526020600020905b815481529060010190602001808311612f7057829003601f168201915b505050918352505060068201546001600160a01b0390811660208301526007830154166040820152600882018054606090920191612fca906168e9565b80601f0160208091040260200160405190810160405280929190818152602001828054612ff6906168e9565b80156130435780601f1061301857610100808354040283529160200191613043565b820191906000526020600020905b81548152906001019060200180831161302657829003601f168201915b5050505050815260200160098201805461305c906168e9565b80601f0160208091040260200160405190810160405280929190818152602001828054613088906168e9565b80156130d55780601f106130aa576101008083540402835291602001916130d5565b820191906000526020600020905b8154815290600101906020018083116130b857829003601f168201915b50505050508152505090506130ed8260800151613589565b945061317c73__$4987fe9f4e800c5c4c1535f64ed232842a$__63037d07a28460a001516040518263ffffffff1660e01b815260040161312d9190616828565b600060405180830381865af415801561314a573d6000803e3d6000fd5b505050506040513d6000823e601f3d908101601f191682016040526131729190810190616b63565b8260200151614e49565b6131aa6040518060400160405280600781526020016621b932b0ba37b960c91b815250836101000151614e49565b6131d76040518060400160405280600681526020016529b2b0b9b7b760d11b815250846101200151614e49565b6040516020016131e993929190616d58565b604051602081830303815290604052935050613251565b6040518060400160405280600f81526020016e2261747472696275746573223a5b5d60881b81525092506040518060400160405280600b81526020016a1e39bb339f1e17b9bb339f60a91b81525093505b60405180610100016040528060d281526020016172a960d29139828560405160200161327f93929190616ddb565b6040516020818303038152906040529450600061329b8661506f565b6040516020016132ab9190616e2f565b604051602081830303815290604052905060006132c78961507d565b85836040516020016132db93929190616e8b565b60405160208183030381529060405290506132f58161506f565b6040516020016133059190616f46565b604051602081830303815290604052975050505050505050919050565b336001600160a01b038316036133765760405162461bcd60e51b815260206004820152601960248201527822a9219b99189d1030b8383937bb32903a379031b0b63632b960391b6044820152606401611b39565b6000613381336123b0565b905060005b8181101561355457600061339a3383611ba1565b9050831561343c57600081815260136020526040812090805b825481101561340357876001600160a01b03168382815481106133d8576133d861691d565b6000918252602090912001546001600160a01b0316036133fb5760019150613403565b6001016133b3565b50806134355781546001810183556000838152602090200180546001600160a01b0319166001600160a01b0389161790555b505061354b565b6000818152601360205260408120905b815481101561354857866001600160a01b03168282815481106134715761347161691d565b6000918252602090912001546001600160a01b031603613540578154829061349b90600190616949565b815481106134ab576134ab61691d565b9060005260206000200160009054906101000a90046001600160a01b03168282815481106134db576134db61691d565b9060005260206000200160006101000a8154816001600160a01b0302191690836001600160a01b03160217905550818054806135195761351961695c565b600082815260209020810160001990810180546001600160a01b0319169055019055613548565b60010161344c565b50505b50600101613386565b50611b4d8383615064565b61356761500b565b601480546001600160a01b0319166001600160a01b0392909216919091179055565b60008181526012602052604081206004018054606092916135ad91612297906168e9565b905060006135ba826110ee565b9050806040516020016135cd9190616f8b565b60405160208183030381529060405292505050919050565b606060006135f28361369d565b60808101516000908152601260205260409020600501805491925090613617906168e9565b80601f0160208091040260200160405190810160405280929190818152602001828054613643906168e9565b80156136905780601f1061366557610100808354040283529160200191613690565b820191906000526020600020905b81548152906001019060200180831161367357829003601f168201915b5050505050915050919050565b6136d36040805160c08101825260008082526020820181905291810182905260608101829052608081018290529060a082015290565b6000828152600b60209081526040808320815160c08101835281548152600182015460ff90811615159482019490945260028201549281019290925260038101546001600160a01b031660608301526004810154608083015260058101549192909160a084019116600781111561374c5761374c615dcd565b600781111561375d5761375d615dcd565b90525080516000908152600d602052604090205460608201519192506001600160801b0316906001600160a01b03811615801561379c57506040830151155b156137bd5760405163082d451d60e01b815260048101869052602401611b39565b60175460405163687d69df60e11b81526001600160a01b0383169163d0fad3be916137f29160ff169087908790600401616fd0565b60c060405180830381865afa15801561380f573d6000803e3d6000fd5b505050506040513d601f19601f820116820180604052508101906138339190616ffe565b95945050505050565b6138463383614c1d565b6138625760405162461bcd60e51b8152600401611b3990616b15565b61386e848484846150c1565b50505050565b606080606060008460c00151111561389f576138968460c00151848385614821565b91945090925090505b60a0840151156138c2576138b98460a00151848385614821565b91945090925090505b6080840151156138e5576138dc8460800151848385614821565b91945090925090505b604084015115613908576138ff8460400151848385614821565b91945090925090505b60208401511561392b576139228460200151848385614821565b91945090925090505b83511561394957835161394090848385614821565b91945090925090505b60608401511561396c576139638460600151848385614821565b91945090925090505b9193909250565b606060006139808361369d565b90508060200151156139a0576139998160800151613589565b91506139c7565b6040518060400160405280600b81526020016a1e39bb339f1e17b9bb339f60a91b81525091505b50919050565b6000818152600260205260409020546060906001600160a01b0316613a0557604051632df0e24560e21b815260040160405180910390fd5b610d0482612cc3565b613a16615b88565b6000613a218361369d565b905060126000826080015181526020019081526020016000206040518061014001604052908160008201548152602001600182018054613a60906168e9565b80601f0160208091040260200160405190810160405280929190818152602001828054613a8c906168e9565b8015613ad95780601f10613aae57610100808354040283529160200191613ad9565b820191906000526020600020905b815481529060010190602001808311613abc57829003601f168201915b5050509183525050600282015460209091019060ff166007811115613b0057613b00615dcd565b6007811115613b1157613b11615dcd565b8152602001600382018054613b25906168e9565b80601f0160208091040260200160405190810160405280929190818152602001828054613b51906168e9565b8015613b9e5780601f10613b7357610100808354040283529160200191613b9e565b820191906000526020600020905b815481529060010190602001808311613b8157829003601f168201915b50505050508152602001600482018054613bb7906168e9565b80601f0160208091040260200160405190810160405280929190818152602001828054613be3906168e9565b8015613c305780601f10613c0557610100808354040283529160200191613c30565b820191906000526020600020905b815481529060010190602001808311613c1357829003601f168201915b50505050508152602001600582018054613c49906168e9565b80601f0160208091040260200160405190810160405280929190818152602001828054613c75906168e9565b8015613cc25780601f10613c9757610100808354040283529160200191613cc2565b820191906000526020600020905b815481529060010190602001808311613ca557829003601f168201915b505050918352505060068201546001600160a01b0390811660208301526007830154166040820152600882018054606090920191613cff906168e9565b80601f0160208091040260200160405190810160405280929190818152602001828054613d2b906168e9565b8015613d785780601f10613d4d57610100808354040283529160200191613d78565b820191906000526020600020905b815481529060010190602001808311613d5b57829003601f168201915b50505050508152602001600982018054613d91906168e9565b80601f0160208091040260200160405190810160405280929190818152602001828054613dbd906168e9565b8015613e0a5780601f10613ddf57610100808354040283529160200191613e0a565b820191906000526020600020905b815481529060010190602001808311613ded57829003601f168201915b505050505081525050915050919050565b60608060008360c001511115613e4057613e3a8360c001518383613efa565b90925090505b60a083015115613e5f57613e598360a001518383613efa565b90925090505b608083015115613e7e57613e7883608001518383613efa565b90925090505b604083015115613e9d57613e9783604001518383613efa565b90925090505b602083015115613ebc57613eb683602001518383613efa565b90925090505b825115613ed6578251613ed0908383613efa565b90925090505b606083015115613ef557613eef83606001518383613efa565b90925090505b915091565b6060806060806000613f0b8861369d565b9050613f178189611c37565b8751909450909250600003613f3157819450829350613f7a565b8682604051602001613f44929190617070565b60405160208183030381529060405294508583604051602001613f6892919061709f565b60405160208183030381529060405293505b505050935093915050565b613f8d61500b565b600e613f998382616c99565b50600f611b4d8282616c99565b60005b8151811015610fea57613fd4828281518110613fc757613fc761691d565b6020026020010151614f5c565b600101613fa9565b600080613fe88361369d565b9050600060126000836080015181526020019081526020016000206040518061014001604052908160008201548152602001600182018054614029906168e9565b80601f0160208091040260200160405190810160405280929190818152602001828054614055906168e9565b80156140a25780601f10614077576101008083540402835291602001916140a2565b820191906000526020600020905b81548152906001019060200180831161408557829003601f168201915b5050509183525050600282015460209091019060ff1660078111156140c9576140c9615dcd565b60078111156140da576140da615dcd565b81526020016003820180546140ee906168e9565b80601f016020809104026020016040519081016040528092919081815260200182805461411a906168e9565b80156141675780601f1061413c57610100808354040283529160200191614167565b820191906000526020600020905b81548152906001019060200180831161414a57829003601f168201915b50505050508152602001600482018054614180906168e9565b80601f01602080910402602001604051908101604052809291908181526020018280546141ac906168e9565b80156141f95780601f106141ce576101008083540402835291602001916141f9565b820191906000526020600020905b8154815290600101906020018083116141dc57829003601f168201915b50505050508152602001600582018054614212906168e9565b80601f016020809104026020016040519081016040528092919081815260200182805461423e906168e9565b801561428b5780601f106142605761010080835404028352916020019161428b565b820191906000526020600020905b81548152906001019060200180831161426e57829003601f168201915b505050918352505060068201546001600160a01b03908116602083015260078301541660408201526008820180546060909201916142c8906168e9565b80601f01602080910402602001604051908101604052809291908181526020018280546142f4906168e9565b80156143415780601f1061431657610100808354040283529160200191614341565b820191906000526020600020905b81548152906001019060200180831161432457829003601f168201915b5050505050815260200160098201805461435a906168e9565b80601f0160208091040260200160405190810160405280929190818152602001828054614386906168e9565b80156143d35780601f106143a8576101008083540402835291602001916143d3565b820191906000526020600020905b8154815290600101906020018083116143b657829003601f168201915b5050509190925250505060400151949350505050565b6143f1615b88565b60126000838152602001908152602001600020604051806101400160405290816000820154815260200160018201805461442a906168e9565b80601f0160208091040260200160405190810160405280929190818152602001828054614456906168e9565b80156144a35780601f10614478576101008083540402835291602001916144a3565b820191906000526020600020905b81548152906001019060200180831161448657829003601f168201915b5050509183525050600282015460209091019060ff1660078111156144ca576144ca615dcd565b60078111156144db576144db615dcd565b81526020016003820180546144ef906168e9565b80601f016020809104026020016040519081016040528092919081815260200182805461451b906168e9565b80156145685780601f1061453d57610100808354040283529160200191614568565b820191906000526020600020905b81548152906001019060200180831161454b57829003601f168201915b50505050508152602001600482018054614581906168e9565b80601f01602080910402602001604051908101604052809291908181526020018280546145ad906168e9565b80156145fa5780601f106145cf576101008083540402835291602001916145fa565b820191906000526020600020905b8154815290600101906020018083116145dd57829003601f168201915b50505050508152602001600582018054614613906168e9565b80601f016020809104026020016040519081016040528092919081815260200182805461463f906168e9565b801561468c5780601f106146615761010080835404028352916020019161468c565b820191906000526020600020905b81548152906001019060200180831161466f57829003601f168201915b505050918352505060068201546001600160a01b03908116602083015260078301541660408201526008820180546060909201916146c9906168e9565b80601f01602080910402602001604051908101604052809291908181526020018280546146f5906168e9565b80156147425780601f1061471757610100808354040283529160200191614742565b820191906000526020600020905b81548152906001019060200180831161472557829003601f168201915b5050505050815260200160098201805461475b906168e9565b80601f0160208091040260200160405190810160405280929190818152602001828054614787906168e9565b80156147d45780601f106147a9576101008083540402835291602001916147d4565b820191906000526020600020905b8154815290600101906020018083116147b757829003601f168201915b5050505050815250509050919050565b6147ec61500b565b63389a75e1600c52806000526020600c20805442111561481457636f5e88186000526004601cfd5b60009055611b1081615026565b60608060608060608060006148358b61369d565b9050614841818c614902565b8b519096509194509250600003614860578296508395508194506148cd565b8983604051602001614873929190617070565b6040516020818303038152906040529650888460405160200161489792919061709f565b604051602081830303815290604052955087826040516020016148bb929190617070565b60405160208183030381529060405294505b505050509450945094915050565b6148e361500b565b8060601b6148f957637448fbae6000526004601cfd5b611b1081615026565b6060806060846020015180156149185750600084115b15614a2c576080850180516000908152601260205260409020905161493c90613589565b60028201546040516301be83d160e11b81529195506149819173__$4987fe9f4e800c5c4c1535f64ed232842a$__9163037d07a291611ca89160ff1690600401616828565b608087015160009081526012602052604090206005018054919350906149a6906168e9565b80601f01602080910402602001604051908101604052809291908181526020018280546149d2906168e9565b8015614a1f5780601f106149f457610100808354040283529160200191614a1f565b820191906000526020600020905b815481529060010190602001808311614a0257829003601f168201915b5050505050925050614a82565b6040518060400160405280600b81526020016a1e39bb339f1e17b9bb339f60a91b8152509250604051806040016040528060028152602001617b7d60f01b81525090506040518060200160405280600081525091505b9250925092565b60006001600160e01b0319821663780e9d6360e01b1480610d045750610d04826150f4565b6000818152600260205260409020546001600160a01b0316611b105760405162461bcd60e51b8152602060048201526018602482015277115490cdcc8c4e881a5b9d985b1a59081d1bdad95b88125160421b6044820152606401611b39565b6000614b1882612350565b9050806001600160a01b0316836001600160a01b031603614b855760405162461bcd60e51b815260206004820152602160248201527f4552433732313a20617070726f76616c20746f2063757272656e74206f776e656044820152603960f91b6064820152608401611b39565b336001600160a01b0382161480614ba15750614ba18133610c12565b614c135760405162461bcd60e51b815260206004820152603e60248201527f4552433732313a20617070726f76652063616c6c6572206973206e6f7420746f60448201527f6b656e206f776e6572206e6f7220617070726f76656420666f7220616c6c00006064820152608401611b39565b611b4d8383615144565b600080614c2983612350565b9050806001600160a01b0316846001600160a01b03161480614c7057506001600160a01b0380821660009081526005602090815260408083209388168352929052205460ff165b80614c945750836001600160a01b0316614c8984610d9c565b6001600160a01b0316145b949350505050565b826001600160a01b0316614caf82612350565b6001600160a01b031614614d135760405162461bcd60e51b815260206004820152602560248201527f4552433732313a207472616e736665722066726f6d20696e636f72726563742060448201526437bbb732b960d91b6064820152608401611b39565b6001600160a01b038216614d755760405162461bcd60e51b8152602060048201526024808201527f4552433732313a207472616e7366657220746f20746865207a65726f206164646044820152637265737360e01b6064820152608401611b39565b614d808383836151b2565b614d8b600082615144565b6001600160a01b0383166000908152600360205260408120805460019290614db4908490616949565b90915550506001600160a01b0382166000908152600360205260408120805460019290614de29084906169b0565b909155505060008181526002602052604080822080546001600160a01b0319166001600160a01b0386811691821790925591518493918716917fddf252ad1be2c89b69c2b068fc378daa952ba7f163c4a11628f55a4df523b3ef91a4611b4d83838361531a565b60608282604051602001614e5e9291906170db565b604051602081830303815290604052905092915050565b610fea8282604051602401614e8b92919061714c565b60408051601f198184030181529190526020810180516001600160e01b031663319af33360e01b1790526153fe565b611b1081604051602401614ece9190615c90565b60408051601f198184030181529190526020810180516001600160e01b031663104c13eb60e21b1790526153fe565b610fea82826040518060200160405280600081525061541f565b610fea8282604051602401614f2d929190617176565b60408051601f198184030181529190526020810180516001600160e01b03166309710a9d60e41b1790526153fe565b6000614f6782612350565b9050614f75816000846151b2565b614f80600083615144565b6001600160a01b0381166000908152600360205260408120805460019290614fa9908490616949565b909155505060008281526002602052604080822080546001600160a01b0319169055518391906001600160a01b038416907fddf252ad1be2c89b69c2b068fc378daa952ba7f163c4a11628f55a4df523b3ef908390a4610fea8160008461531a565b638b78c6d819543314612448576382b429006000526004601cfd5b638b78c6d81980546001600160a01b039092169182907f8be0079c531659141344cd1fd0a4f28419497f9722a3daafe3b4186f6b6457e0600080a355565b610fea338383615452565b6060610d048260008061551c565b60606080604051019050602081016040526000815280600019835b928101926030600a8206018453600a900480615098575050819003601f19909101908152919050565b6150cc848484614c9c565b6150d884848484615603565b61386e5760405162461bcd60e51b8152600401611b3990617198565b60006001600160e01b031982166380ac58cd60e01b148061512557506001600160e01b03198216635b5e139f60e01b145b80610d0457506301ffc9a760e01b6001600160e01b0319831614610d04565b600081815260046020526040902080546001600160a01b0319166001600160a01b038416908117909155819061517982612350565b6001600160a01b03167f8c5be1e5ebec7d5bd14f71427d1e84f3dd0314c0f7b2291e5b200ac8c7c3b92560405160405180910390a45050565b601554604051634f6088cd60e01b8152600481018390526000916001600160a01b031690634f6088cd90602401608060405180830381865afa1580156151fc573d6000803e3d6000fd5b505050506040513d601f19601f8201168201806040525081019061522091906171ea565b5090925050506001600160a01b03811615615260576015546001600160a01b031633146152605760405163bf646b0f60e01b815260040160405180910390fd5b6001600160a01b038316615283576152788284615704565b61386e8484846157cc565b60145460405162525fcd60e91b81526001600160a01b0385811660048301529091169063a4bf9a0090602401602060405180830381865afa1580156152cc573d6000803e3d6000fd5b505050506040513d601f19601f820116820180604052508101906152f0919061723f565b600003615310576040516326a45c0160e21b815260040160405180910390fd5b6152788284615704565b600061532582612350565b60145460405162525fcd60e91b81526001600160a01b0380841660048301529293506000929091169063a4bf9a0090602401602060405180830381865afa158015615374573d6000803e3d6000fd5b505050506040513d601f19601f82011682018060405250810190615398919061723f565b60155460405163236313ff60e11b8152600481018390529192506001600160a01b0316906346c627fe90602401600060405180830381600087803b1580156153df57600080fd5b505af11580156153f3573d6000803e3d6000fd5b505050505050505050565b80516a636f6e736f6c652e6c6f67602083016000808483855afa5050505050565b6154298383615884565b6154366000848484615603565b611b4d5760405162461bcd60e51b8152600401611b3990617198565b816001600160a01b0316836001600160a01b0316036154af5760405162461bcd60e51b815260206004820152601960248201527822a9219b99189d1030b8383937bb32903a379031b0b63632b960391b6044820152606401611b39565b6001600160a01b03838116600081815260056020908152604080832094871680845294825291829020805460ff191686151590811790915591519182527f17307eab39ab6107e8899845ad3d59bd9653f200f220920489ca2b5937696c31910160405180910390a3505050565b606083518015612089576003600282010460021b60405192507f4142434445464748494a4b4c4d4e4f505152535455565758595a616263646566601f526106708515027f6768696a6b6c6d6e6f707172737475767778797a303132333435363738392d5f18603f52602083018181015b6003880197508751603f8160121c1651600053603f81600c1c1651600153603f8160061c1651600253603f81165160035350600051825260048201915080821061558c57602001604052613d3d60f01b60038406600204808303919091526000861515909102918290035290038252509392505050565b60006001600160a01b0384163b156156f957604051630a85bd0160e11b81526001600160a01b0385169063150b7a0290615647903390899088908890600401617258565b6020604051808303816000875af1925050508015615682575060408051601f3d908101601f1916820190925261567f9181019061728b565b60015b6156df573d8080156156b0576040519150601f19603f3d011682016040523d82523d6000602084013e6156b5565b606091505b5080516000036156d75760405162461bcd60e51b8152600401611b3990617198565b805181602001fd5b6001600160e01b031916630a85bd0160e11b149050614c94565b506001949350505050565b601554604051632e1d274f60e01b8152600481018490526001600160a01b0390911690632e1d274f90602401600060405180830381600087803b15801561574a57600080fd5b505af115801561575e573d6000803e3d6000fd5b50506015546040516302fbe78f60e41b8152600481018690526001600160a01b0385811660248301529091169250632fbe78f09150604401600060405180830381600087803b1580156157b057600080fd5b505af11580156157c4573d6000803e3d6000fd5b505050505050565b6001600160a01b0383166158275761582281600880546000838152600960205260408120829055600182018355919091527ff3f7a9fe364faab93b216da50a3214154f22a0a2b415b23a84c8169e8b636ee30155565b61584a565b816001600160a01b0316836001600160a01b03161461584a5761584a83826159da565b6001600160a01b03821661586157611b4d81615a77565b826001600160a01b0316826001600160a01b031614611b4d57611b4d8282615b26565b6001600160a01b0382166158da5760405162461bcd60e51b815260206004820181905260248201527f4552433732313a206d696e7420746f20746865207a65726f20616464726573736044820152606401611b39565b6000818152600260205260409020546001600160a01b03161561593f5760405162461bcd60e51b815260206004820152601c60248201527f4552433732313a20746f6b656e20616c7265616479206d696e746564000000006044820152606401611b39565b61594b600083836151b2565b6001600160a01b03821660009081526003602052604081208054600192906159749084906169b0565b909155505060008181526002602052604080822080546001600160a01b0319166001600160a01b03861690811790915590518392907fddf252ad1be2c89b69c2b068fc378daa952ba7f163c4a11628f55a4df523b3ef908290a4610fea6000838361531a565b600060016159e7846123b0565b6159f19190616949565b600083815260076020526040902054909150808214615a44576001600160a01b03841660009081526006602090815260408083208584528252808320548484528184208190558352600790915290208190555b5060009182526007602090815260408084208490556001600160a01b039094168352600681528383209183525290812055565b600854600090615a8990600190616949565b60008381526009602052604081205460088054939450909284908110615ab157615ab161691d565b906000526020600020015490508060088381548110615ad257615ad261691d565b6000918252602080832090910192909255828152600990915260408082208490558582528120556008805480615b0a57615b0a61695c565b6001900381819060005260206000200160009055905550505050565b6000615b31836123b0565b6001600160a01b039093166000908152600660209081526040808320868452825280832085905593825260079052919091209190915550565b5080546000825590600052602060002090810190611b109190615bed565b60408051610140810182526000808252606060208301529091820190815260200160608152602001606081526020016060815260200160006001600160a01b0316815260200160006001600160a01b0316815260200160608152602001606081525090565b5b80821115615c025760008155600101615bee565b5090565b6001600160e01b031981168114611b1057600080fd5b600060208284031215615c2e57600080fd5b8135615c3981615c06565b9392505050565b60005b83811015615c5b578181015183820152602001615c43565b50506000910152565b60008151808452615c7c816020860160208601615c40565b601f01601f19169290920160200192915050565b602081526000615c396020830184615c64565b600060208284031215615cb557600080fd5b5035919050565b6001600160a01b0381168114611b1057600080fd5b8035615cdc81615cbc565b919050565b60008060408385031215615cf457600080fd5b8235615cff81615cbc565b946020939093013593505050565b60008060408385031215615d2057600080fd5b50508035926020909101359150565b600080600080600060808688031215615d4757600080fd5b8535615d5281615cbc565b94506020860135615d6281615cbc565b93506040860135925060608601356001600160401b0380821115615d8557600080fd5b818801915088601f830112615d9957600080fd5b813581811115615da857600080fd5b896020828501011115615dba57600080fd5b9699959850939650602001949392505050565b634e487b7160e01b600052602160045260246000fd5b60088110615e0157634e487b7160e01b600052602160045260246000fd5b9052565b805182526020810151151560208301526040810151604083015260018060a01b0360608201511660608301526080810151608083015260a0810151611b4d60a0840182615de3565b60c08101610d048284615e05565b634e487b7160e01b600052604160045260246000fd5b60405160c081016001600160401b0381118282101715615e9357615e93615e5b565b60405290565b60405161014081016001600160401b0381118282101715615e9357615e93615e5b565b60405161018081016001600160401b0381118282101715615e9357615e93615e5b565b604051601f8201601f191681016001600160401b0381118282101715615f0757615f07615e5b565b604052919050565b60006001600160401b03821115615f2857615f28615e5b565b50601f01601f191660200190565b600082601f830112615f4757600080fd5b8135615f5a615f5582615f0f565b615edf565b818152846020838601011115615f6f57600080fd5b816020850160208301376000918101602001919091529392505050565b600060208284031215615f9e57600080fd5b81356001600160401b03811115615fb457600080fd5b614c9484828501615f36565b600080600060608486031215615fd557600080fd5b8335615fe081615cbc565b92506020840135615ff081615cbc565b929592945050506040919091013590565b8015158114611b1057600080fd5b8035615cdc81616001565b60088110611b1057600080fd5b8035615cdc8161601a565b600060c0828403121561604457600080fd5b61604c615e71565b905081358152602082013561606081616001565b602082015260408281013590820152606082013561607d81615cbc565b60608201526080828101359082015260a082013561609a8161601a565b60a082015292915050565b60008060e083850312156160b857600080fd5b6160c28484616032565b9460c0939093013593505050565b6040815260006160e36040830185615c64565b82810360208401526138338185615c64565b60008060e0838503121561610857600080fd5b823591506161198460208501616032565b90509250929050565b60006020828403121561613457600080fd5b8135615c3981615cbc565b6020808252825182820181905260009190848201906040850190845b818110156161775783518352928401929184019160010161615b565b50909695505050505050565b60006101408c835280602084015261619d8184018d615c64565b90506161ac604084018c615de3565b82810360608401526161be818b615c64565b905082810360808401526161d2818a615c64565b905082810360a08401526161e68189615c64565b6001600160a01b0388811660c0860152871660e085015283810361010085015290506162128186615c64565b90508281036101208401526162278185615c64565b9d9c50505050505050505050505050565b6000806040838503121561624b57600080fd5b8235915060208301356001600160401b038082111561626957600080fd5b90840190610140828703121561627e57600080fd5b616286615e99565b8235815260208301358281111561629c57600080fd5b6162a888828601615f36565b6020830152506162ba60408401616027565b60408201526060830135828111156162d157600080fd5b6162dd88828601615f36565b6060830152506080830135828111156162f557600080fd5b61630188828601615f36565b60808301525060a08301358281111561631957600080fd5b61632588828601615f36565b60a08301525061633760c08401615cd1565b60c082015261634860e08401615cd1565b60e0820152610100808401358381111561636157600080fd5b61636d89828701615f36565b828401525050610120808401358381111561638757600080fd5b61639389828701615f36565b8284015250508093505050509250929050565b600080604083850312156163b957600080fd5b82356163c481615cbc565b915060208301356163d481616001565b809150509250929050565b600080600080608085870312156163f557600080fd5b843561640081615cbc565b9350602085013561641081615cbc565b92506040850135915060608501356001600160401b0381111561643257600080fd5b61643e87828801615f36565b91505092959194509250565b803563ffffffff81168114615cdc57600080fd5b803560ff81168114615cdc57600080fd5b60006020828403121561648157600080fd5b81356001600160401b038082111561649857600080fd5b9083019061018082860312156164ad57600080fd5b6164b5615ebc565b823581526020830135602082015260408301356040820152606083013560608201526080830135608082015260a083013560a082015260c083013560c082015261650160e0840161644a565b60e0820152610100838101359082015261012061651f81850161645e565b90820152610140838101358381111561653757600080fd5b61654388828701615f36565b828401525050610160915061655982840161600f565b91810191909152949350505050565b60608152600061657b6060830186615c64565b828103602084015261658d8186615c64565b905082810360408401526165a18185615c64565b9695505050505050565b6020815281516020820152600060208301516101408060408501526165d4610160850183615c64565b915060408501516165e86060860182615de3565b506060850151601f19808685030160808701526166058483615c64565b935060808701519150808685030160a08701526166228483615c64565b935060a08701519150808685030160c087015261663f8483615c64565b935060c0870151915061665d60e08701836001600160a01b03169052565b60e0870151915061010061667b818801846001600160a01b03169052565b808801519250506101208187860301818801526166988584615c64565b9088015187820390920184880152935090506165a18382615c64565b6000806000606084860312156166c957600080fd5b8335925060208401356001600160401b03808211156166e757600080fd5b6166f387838801615f36565b9350604086013591508082111561670957600080fd5b5061671686828701615f36565b9150509250925092565b6000806040838503121561673357600080fd5b82356001600160401b038082111561674a57600080fd5b61675686838701615f36565b9350602085013591508082111561676c57600080fd5b5061677985828601615f36565b9150509250929050565b6000602080838503121561679657600080fd5b82356001600160401b03808211156167ad57600080fd5b818501915085601f8301126167c157600080fd5b8135818111156167d3576167d3615e5b565b8060051b91506167e4848301615edf565b81815291830184019184810190888411156167fe57600080fd5b938501935b8385101561681c57843582529385019390850190616803565b98975050505050505050565b60208101610d048284615de3565b6000806040838503121561684957600080fd5b823561685481615cbc565b915060208301356163d481615cbc565b6000806000806080858703121561687a57600080fd5b8435935060208501356001600160401b038082111561689857600080fd5b6168a488838901615f36565b945060408701359150808211156168ba57600080fd5b6168c688838901615f36565b935060608701359150808211156168dc57600080fd5b5061643e87828801615f36565b600181811c908216806168fd57607f821691505b6020821081036139c757634e487b7160e01b600052602260045260246000fd5b634e487b7160e01b600052603260045260246000fd5b634e487b7160e01b600052601160045260246000fd5b81810381811115610d0457610d04616933565b634e487b7160e01b600052603160045260246000fd5b634e487b7160e01b600052601260045260246000fd5b60008261699757616997616972565b500490565b6000826169ab576169ab616972565b500690565b80820180821115610d0457610d04616933565b6000875160206169d68285838d01615c40565b8851918401916169e98184848d01615c40565b88519201916169fb8184848c01615c40565b8751920191616a0d8184848b01615c40565b8651920191616a1f8184848a01615c40565b8551920191616a318184848901615c40565b919091019998505050505050505050565b60008551616a54818460208a01615c40565b681e3932b1ba103c1e9160b91b9083019081528551616a7a816009840160208a01615c40565b6411103c9e9160d91b600992909101918201528451616aa081600e840160208901615c40565b7f222077696474683d223122206865696768743d2231222066696c6c3d22230000600e92909101918201528351616ade81602c840160208801615c40565b6211179f60e91b602c9290910191820152602f019695505050505050565b600060018201616b0e57616b0e616933565b5060010190565b6020808252602e908201527f4552433732313a2063616c6c6572206973206e6f7420746f6b656e206f776e6560408201526d1c881b9bdc88185c1c1c9bdd995960921b606082015260800190565b600060208284031215616b7557600080fd5b81516001600160401b03811115616b8b57600080fd5b8201601f81018413616b9c57600080fd5b8051616baa615f5582615f0f565b818152856020838501011115616bbf57600080fd5b613833826020830160208601615c40565b7f3c672069643d2267686f73742220636c6173733d226722207374796c653d226f81526d3830b1b4ba3c9d101a98129d911f60911b602082015260008251616c1f81602e850160208701615c40565b631e17b39f60e11b602e939091019283015250603201919050565b8082028115828204841417610d0457610d04616933565b601f821115611b4d576000816000526020600020601f850160051c81016020861015616c7a5750805b601f850160051c820191505b818110156157c457828155600101616c86565b81516001600160401b03811115616cb257616cb2615e5b565b616cc681616cc084546168e9565b84616c51565b602080601f831160018114616cfb5760008415616ce35750858301515b600019600386901b1c1916600185901b1785556157c4565b600085815260208120601f198616915b82811015616d2a57888601518255948401946001909101908401616d0b565b5085821015616d485787850151600019600388901b60f8161c191681555b5050505050600190811b01905550565b6d2261747472696275746573223a5b60901b81528351600090616d8281600e850160208901615c40565b8083019050600b60fa1b80600e8301528551616da581600f850160208a01615c40565b600f9201918201528351616dc0816010840160208801615c40565b605d60f81b6010929091019182015260110195945050505050565b60008451616ded818460208901615c40565b845190830190616e01818360208901615c40565b8451910190616e14818360208801615c40565b651e17b9bb339f60d11b910190815260060195945050505050565b7f22696d616765223a22646174613a696d6167652f7376672b786d6c3b626173658152620d8d0b60ea1b602082015260008251616e73816023850160208701615c40565b601160f91b6023939091019283015250602401919050565b757b226e616d65223a225065746572205472616974202360501b81528351600090616ebd816016850160208901615c40565b7f222c226465736372697074696f6e223a2254686973206973206a757374206120601691840191820152651d195cdd088b60d21b60368201528451616f0981603c840160208901615c40565b600b60fa1b603c92909101918201528351616f2b81603d840160208801615c40565b607d60f81b603d9290910191820152603e0195945050505050565b7f646174613a6170706c69636174696f6e2f6a736f6e3b6261736536342c000000815260008251616f7e81601d850160208701615c40565b91909101601d0192915050565b6d1e339034b21e912a3930b4ba111f60911b81528151600090616fb581600e850160208701615c40565b631e17b39f60e11b600e939091019283015250601201919050565b83151581526101008101616fe76020830185615e05565b6001600160801b03831660e0830152949350505050565b600060c0828403121561701057600080fd5b617018615e71565b82518152602083015161702a81616001565b602082015260408381015190820152606083015161704781615cbc565b60608201526080838101519082015260a08301516170648161601a565b60a08201529392505050565b60008351617082818460208801615c40565b835190830190617096818360208801615c40565b01949350505050565b600083516170b1818460208801615c40565b600b60fa1b90830190815283516170cf816001840160208801615c40565b01600101949350505050565b6e3d913a3930b4ba2fba3cb832911d1160891b8152825160009061710681600f850160208801615c40565b6a1116113b30b63ab2911d1160a91b600f91840191820152835161713181601a840160208801615c40565b61227d60f01b601a9290910191820152601c01949350505050565b60408152600061715f6040830185615c64565b905060018060a01b03831660208301529392505050565b6040815260006171896040830185615c64565b90508260208301529392505050565b60208082526032908201527f4552433732313a207472616e7366657220746f206e6f6e20455243373231526560408201527131b2b4bb32b91034b6b83632b6b2b73a32b960711b606082015260800190565b6000806000806080858703121561720057600080fd5b84519350602085015161721281615cbc565b604086015190935061722381615cbc565b606086015190925061723481615cbc565b939692955090935050565b60006020828403121561725157600080fd5b5051919050565b6001600160a01b03858116825284166020820152604081018390526080606082018190526000906165a190830184615c64565b60006020828403121561729d57600080fd5b8151615c3981615c0656fe3c7376672073686170652d72656e646572696e673d2263726973704564676573222076696577426f783d22302030203330203330222066696c6c3d226e6f6e652220786d6c6e733d22687474703a2f2f7777772e77332e6f72672f323030302f737667223e3c7374796c653e726563747b77696474683a3170783b206865696768743a203170783b7d202e62677b77696474683a333070783b206865696768743a20333070783b7d203c2f7374796c653e3c7265637420636c6173733d226267222066696c6c3d2223304436453944222f3ea2646970667358221220bd8153c4a5ce461d87e6ffcfcb33679ae0061ab06501daa8548f4dddb8204e9d64736f6c63430008160033506574657254726169747320436f6e7374727563746f722063616c6c65642077697468206c6f63616c4465706c6f793a","linkReferences":{"src/TraitCategory.sol":{"TraitCategory":[{"start":8419,"length":20},{"start":13657,"length":20},{"start":19900,"length":20}]}}},"methodIdentifiers":{"approve(address,uint256)":"095ea7b3","balanceOf(address)":"70a08231","burn(uint256)":"42966c68","burnBatch(uint256[])":"e4623c1b","callGetSVGZmapAndMetadataTrait(uint256,string,string,bytes)":"f1271942","callGetSvgAndMetadataTrait(uint256,string,string)":"e08714a6","cancelOwnershipHandover()":"54d1f13d","completeOwnershipHandover(address)":"f04e283e","createSvgFromPixels(bytes)":"21b12c23","getApproved(uint256)":"081812fc","getCurrentEpoch()":"b97dd9e2","getEpoch()":"757991a8","getEpochData(uint256)":"859e7d32","getGhostSvg()":"5c1ef256","getSVGZmapAndMetadataTrait((uint256,bool,uint256,address,uint256,uint8),uint256)":"f901667f","getStoredTraitForTokenId(uint256)":"208c25a3","getSvgAndMetadata((uint256,uint256,uint256,uint256,uint256,uint256,uint256,uint32,uint256,uint8,string,bool))":"df2c2b88","getSvgAndMetadataTrait((uint256,bool,uint256,address,uint256,uint8),uint256)":"33a70328","getSvgForTokenId(uint256)":"c7791531","getSvgZmapsAndMetadata((uint256,uint256,uint256,uint256,uint256,uint256,uint256,uint32,uint256,uint8,string,bool))":"bb12d21d","getTrait(uint256)":"acb586df","getTraitImage(bytes)":"898aa117","getTraitImageSvg(uint256)":"a5e2912a","getTraitIndexToMetadata(uint256)":"ea139544","getTraitMetadata(uint256)":"d1bfc2af","getTraitType(uint256)":"e8a1268d","getZMapForTokenId(uint256)":"a8498c74","ghost()":"51dc7189","invalidateAllOperatorApprovals(uint256)":"90f63842","isApprovedForAll(address,address)":"e985e9c5","isMinter(address)":"aa271e1a","marketplace()":"abc8c7af","minter()":"07546172","name()":"06fdde03","onERC721Received(address,address,uint256,bytes)":"150b7a02","owner()":"8da5cb5b","ownerOf(uint256)":"6352211e","ownershipHandoverExpiresAt(address)":"fee81cf4","petersMain()":"1ca97604","renderAsDataUri(uint256)":"a1d62680","renounceOwnership()":"715018a6","requestOwnershipHandover()":"25692962","resolveEpochIfNecessary()":"239ffa68","safeMint(address)":"40d097c3","safeTransferFrom(address,address,uint256)":"42842e0e","safeTransferFrom(address,address,uint256,bytes)":"b88d4fde","setApprovalForAll(address,bool)":"a22cb465","setGhostMaps(bytes,bytes)":"e1defed9","setMarketplace(address)":"73ad6c2d","setPetersMain(address)":"a2c12c94","setTraitForTokenId(uint256,(uint256,bool,uint256,address,uint256,uint8))":"36d34ab9","setTraitIndexToMetadata(uint256,(uint256,string,uint8,string,bytes,bytes,address,address,string,string))":"8d37c537","signer()":"238ac933","supportsInterface(bytes4)":"01ffc9a7","symbol()":"95d89b41","tokenByIndex(uint256)":"4f6ccce7","tokenOfOwnerByIndex(address,uint256)":"2f745c59","tokenURI(uint256)":"c87b56dd","totalSupply()":"18160ddd","traitIdToApprovedOperators(uint256,uint256)":"11f3910d","traitIndexToMetadata(uint256)":"817a29a4","traitTokens()":"e14d026f","transferFrom(address,address,uint256)":"23b872dd","transferOwnership(address)":"f2fde38b","walletOfOwner(address)":"438b6300"},"id":45}