{"abi":[{"type":"constructor","inputs":[{"name":"localDeploy_","type":"bool","internalType":"bool"}],"stateMutability":"nonpayable"},{"type":"function","name":"addApprovedInvalidator","inputs":[{"name":"_invalidator","type":"address","internalType":"address"}],"outputs":[],"stateMutability":"nonpayable"},{"type":"function","name":"addMinter","inputs":[{"name":"_minter","type":"address","internalType":"address"}],"outputs":[],"stateMutability":"nonpayable"},{"type":"function","name":"approve","inputs":[{"name":"_operator","type":"address","internalType":"address"},{"name":"_tokenId","type":"uint256","internalType":"uint256"}],"outputs":[],"stateMutability":"nonpayable"},{"type":"function","name":"approvedInvalidators","inputs":[{"name":"","type":"address","internalType":"address"}],"outputs":[{"name":"","type":"bool","internalType":"bool"}],"stateMutability":"view"},{"type":"function","name":"balanceOf","inputs":[{"name":"owner","type":"address","internalType":"address"}],"outputs":[{"name":"","type":"uint256","internalType":"uint256"}],"stateMutability":"view"},{"type":"function","name":"burn","inputs":[{"name":"tokenId","type":"uint256","internalType":"uint256"}],"outputs":[],"stateMutability":"nonpayable"},{"type":"function","name":"burnBatch","inputs":[{"name":"tokenIds","type":"uint256[]","internalType":"uint256[]"}],"outputs":[],"stateMutability":"nonpayable"},{"type":"function","name":"callGetSVGZmapAndMetadataTrait","inputs":[{"name":"_traitId","type":"uint256","internalType":"uint256"},{"name":"_traitsSvg","type":"string","internalType":"string"},{"name":"_traitsAttributes","type":"string","internalType":"string"},{"name":"_traitZMaps","type":"bytes","internalType":"bytes"}],"outputs":[{"name":"traitsSvg","type":"string","internalType":"string"},{"name":"traitsAttributes","type":"string","internalType":"string"},{"name":"traitZMaps","type":"bytes","internalType":"bytes"}],"stateMutability":"view"},{"type":"function","name":"callGetSvgAndMetadataTrait","inputs":[{"name":"_traitId","type":"uint256","internalType":"uint256"},{"name":"_traitsSvg","type":"string","internalType":"string"},{"name":"_traitsAttributes","type":"string","internalType":"string"}],"outputs":[{"name":"traitsSvg","type":"string","internalType":"string"},{"name":"traitsAttributes","type":"string","internalType":"string"}],"stateMutability":"view"},{"type":"function","name":"cancelOwnershipHandover","inputs":[],"outputs":[],"stateMutability":"payable"},{"type":"function","name":"completeOwnershipHandover","inputs":[{"name":"pendingOwner","type":"address","internalType":"address"}],"outputs":[],"stateMutability":"payable"},{"type":"function","name":"createSvgFromPixels","inputs":[{"name":"_pixels","type":"bytes","internalType":"bytes"}],"outputs":[{"name":"svgParts","type":"bytes","internalType":"bytes"}],"stateMutability":"view"},{"type":"function","name":"getApproved","inputs":[{"name":"tokenId","type":"uint256","internalType":"uint256"}],"outputs":[{"name":"","type":"address","internalType":"address"}],"stateMutability":"view"},{"type":"function","name":"getApprovedOperators","inputs":[{"name":"traitId","type":"uint256","internalType":"uint256"}],"outputs":[{"name":"","type":"address[]","internalType":"address[]"}],"stateMutability":"view"},{"type":"function","name":"getApprovedOperatorsLength","inputs":[{"name":"traitId","type":"uint256","internalType":"uint256"}],"outputs":[{"name":"","type":"uint256","internalType":"uint256"}],"stateMutability":"view"},{"type":"function","name":"getCurrentEpoch","inputs":[],"outputs":[{"name":"","type":"uint256","internalType":"uint256"}],"stateMutability":"view"},{"type":"function","name":"getEpoch","inputs":[],"outputs":[{"name":"","type":"uint256","internalType":"uint256"}],"stateMutability":"view"},{"type":"function","name":"getEpochData","inputs":[{"name":"index","type":"uint256","internalType":"uint256"}],"outputs":[{"name":"","type":"tuple","internalType":"struct CommitReveal.Epoch","components":[{"name":"randomness","type":"uint128","internalType":"uint128"},{"name":"revealBlock","type":"uint64","internalType":"uint64"},{"name":"committed","type":"bool","internalType":"bool"},{"name":"revealed","type":"bool","internalType":"bool"}]}],"stateMutability":"view"},{"type":"function","name":"getGhostSvg","inputs":[],"outputs":[{"name":"svg","type":"string","internalType":"string"}],"stateMutability":"view"},{"type":"function","name":"getSVGZmapAndMetadataTrait","inputs":[{"name":"trait","type":"tuple","internalType":"struct ITraitStorage.StoredTrait","components":[{"name":"epoch","type":"uint256","internalType":"uint256"},{"name":"isRevealed","type":"bool","internalType":"bool"},{"name":"seed","type":"uint256","internalType":"uint256"},{"name":"renderMinterContract","type":"address","internalType":"address"},{"name":"traitIndex","type":"uint256","internalType":"uint256"},{"name":"traitType","type":"uint8","internalType":"enum TraitCategory.Name"}]},{"name":"traitId","type":"uint256","internalType":"uint256"}],"outputs":[{"name":"traitSvg","type":"string","internalType":"string"},{"name":"traitZmap","type":"bytes","internalType":"bytes"},{"name":"traitAttributes","type":"string","internalType":"string"}],"stateMutability":"view"},{"type":"function","name":"getStoredTraitForTokenId","inputs":[{"name":"_tokenId","type":"uint256","internalType":"uint256"}],"outputs":[{"name":"","type":"tuple","internalType":"struct ITraitStorage.StoredTrait","components":[{"name":"epoch","type":"uint256","internalType":"uint256"},{"name":"isRevealed","type":"bool","internalType":"bool"},{"name":"seed","type":"uint256","internalType":"uint256"},{"name":"renderMinterContract","type":"address","internalType":"address"},{"name":"traitIndex","type":"uint256","internalType":"uint256"},{"name":"traitType","type":"uint8","internalType":"enum TraitCategory.Name"}]}],"stateMutability":"view"},{"type":"function","name":"getSvgAndMetadata","inputs":[{"name":"storedPeter","type":"tuple","internalType":"struct IPeterStorage.StoredPeter","components":[{"name":"headId","type":"uint256","internalType":"uint256"},{"name":"hairId","type":"uint256","internalType":"uint256"},{"name":"faceId","type":"uint256","internalType":"uint256"},{"name":"accessoryId","type":"uint256","internalType":"uint256"},{"name":"topId","type":"uint256","internalType":"uint256"},{"name":"bottomId","type":"uint256","internalType":"uint256"},{"name":"shoesId","type":"uint256","internalType":"uint256"},{"name":"epoch","type":"uint32","internalType":"uint32"},{"name":"tokenId","type":"uint256","internalType":"uint256"},{"name":"bodyIndex","type":"uint8","internalType":"uint8"},{"name":"backgroundColor","type":"string","internalType":"string"},{"name":"render3D","type":"bool","internalType":"bool"}]}],"outputs":[{"name":"traitsSvg","type":"string","internalType":"string"},{"name":"traitsAttributes","type":"string","internalType":"string"}],"stateMutability":"view"},{"type":"function","name":"getSvgAndMetadataTrait","inputs":[{"name":"trait","type":"tuple","internalType":"struct ITraitStorage.StoredTrait","components":[{"name":"epoch","type":"uint256","internalType":"uint256"},{"name":"isRevealed","type":"bool","internalType":"bool"},{"name":"seed","type":"uint256","internalType":"uint256"},{"name":"renderMinterContract","type":"address","internalType":"address"},{"name":"traitIndex","type":"uint256","internalType":"uint256"},{"name":"traitType","type":"uint8","internalType":"enum TraitCategory.Name"}]},{"name":"traitId","type":"uint256","internalType":"uint256"}],"outputs":[{"name":"traitSvg","type":"string","internalType":"string"},{"name":"traitAttributes","type":"string","internalType":"string"}],"stateMutability":"view"},{"type":"function","name":"getSvgForTokenId","inputs":[{"name":"_tokenId","type":"uint256","internalType":"uint256"}],"outputs":[{"name":"traitSvg","type":"string","internalType":"string"}],"stateMutability":"view"},{"type":"function","name":"getSvgZmapsAndMetadata","inputs":[{"name":"storedPeter","type":"tuple","internalType":"struct IPeterStorage.StoredPeter","components":[{"name":"headId","type":"uint256","internalType":"uint256"},{"name":"hairId","type":"uint256","internalType":"uint256"},{"name":"faceId","type":"uint256","internalType":"uint256"},{"name":"accessoryId","type":"uint256","internalType":"uint256"},{"name":"topId","type":"uint256","internalType":"uint256"},{"name":"bottomId","type":"uint256","internalType":"uint256"},{"name":"shoesId","type":"uint256","internalType":"uint256"},{"name":"epoch","type":"uint32","internalType":"uint32"},{"name":"tokenId","type":"uint256","internalType":"uint256"},{"name":"bodyIndex","type":"uint8","internalType":"uint8"},{"name":"backgroundColor","type":"string","internalType":"string"},{"name":"render3D","type":"bool","internalType":"bool"}]}],"outputs":[{"name":"traitsSvg","type":"string","internalType":"string"},{"name":"traitZMaps","type":"bytes","internalType":"bytes"},{"name":"traitsAttributes","type":"string","internalType":"string"}],"stateMutability":"view"},{"type":"function","name":"getTrait","inputs":[{"name":"_tokenId","type":"uint256","internalType":"uint256"}],"outputs":[{"name":"","type":"tuple","internalType":"struct ITraitStorage.StoredTrait","components":[{"name":"epoch","type":"uint256","internalType":"uint256"},{"name":"isRevealed","type":"bool","internalType":"bool"},{"name":"seed","type":"uint256","internalType":"uint256"},{"name":"renderMinterContract","type":"address","internalType":"address"},{"name":"traitIndex","type":"uint256","internalType":"uint256"},{"name":"traitType","type":"uint8","internalType":"enum TraitCategory.Name"}]}],"stateMutability":"view"},{"type":"function","name":"getTraitImageSvg","inputs":[{"name":"index","type":"uint256","internalType":"uint256"}],"outputs":[{"name":"svg","type":"string","internalType":"string"}],"stateMutability":"view"},{"type":"function","name":"getTraitIndexToMetadata","inputs":[{"name":"_traitIndex","type":"uint256","internalType":"uint256"}],"outputs":[{"name":"","type":"tuple","internalType":"struct ITraitStorage.TraitMetadata","components":[{"name":"traitIndex","type":"uint256","internalType":"uint256"},{"name":"traitName","type":"string","internalType":"string"},{"name":"traitType","type":"uint8","internalType":"enum TraitCategory.Name"},{"name":"animations","type":"string","internalType":"string"},{"name":"colorMap","type":"bytes","internalType":"bytes"},{"name":"zMap","type":"bytes","internalType":"bytes"},{"name":"renderMinterContract","type":"address","internalType":"address"},{"name":"creatorAddress","type":"address","internalType":"address"},{"name":"creatorName","type":"string","internalType":"string"},{"name":"season","type":"string","internalType":"string"}]}],"stateMutability":"view"},{"type":"function","name":"getTraitMetadata","inputs":[{"name":"_tokenId","type":"uint256","internalType":"uint256"}],"outputs":[{"name":"","type":"tuple","internalType":"struct ITraitStorage.TraitMetadata","components":[{"name":"traitIndex","type":"uint256","internalType":"uint256"},{"name":"traitName","type":"string","internalType":"string"},{"name":"traitType","type":"uint8","internalType":"enum TraitCategory.Name"},{"name":"animations","type":"string","internalType":"string"},{"name":"colorMap","type":"bytes","internalType":"bytes"},{"name":"zMap","type":"bytes","internalType":"bytes"},{"name":"renderMinterContract","type":"address","internalType":"address"},{"name":"creatorAddress","type":"address","internalType":"address"},{"name":"creatorName","type":"string","internalType":"string"},{"name":"season","type":"string","internalType":"string"}]}],"stateMutability":"view"},{"type":"function","name":"getTraitType","inputs":[{"name":"_tokenId","type":"uint256","internalType":"uint256"}],"outputs":[{"name":"","type":"uint8","internalType":"enum TraitCategory.Name"}],"stateMutability":"view"},{"type":"function","name":"getZMapForTokenId","inputs":[{"name":"_tokenId","type":"uint256","internalType":"uint256"}],"outputs":[{"name":"","type":"string","internalType":"string"}],"stateMutability":"view"},{"type":"function","name":"invalidateAllOperatorApprovals","inputs":[{"name":"_tokenId","type":"uint256","internalType":"uint256"}],"outputs":[],"stateMutability":"nonpayable"},{"type":"function","name":"isApprovedForAll","inputs":[{"name":"owner","type":"address","internalType":"address"},{"name":"operator","type":"address","internalType":"address"}],"outputs":[{"name":"","type":"bool","internalType":"bool"}],"stateMutability":"view"},{"type":"function","name":"isMinter","inputs":[{"name":"","type":"address","internalType":"address"}],"outputs":[{"name":"","type":"bool","internalType":"bool"}],"stateMutability":"view"},{"type":"function","name":"marketplace","inputs":[],"outputs":[{"name":"","type":"address","internalType":"contract ChonksMarket"}],"stateMutability":"view"},{"type":"function","name":"name","inputs":[],"outputs":[{"name":"","type":"string","internalType":"string"}],"stateMutability":"view"},{"type":"function","name":"owner","inputs":[],"outputs":[{"name":"result","type":"address","internalType":"address"}],"stateMutability":"view"},{"type":"function","name":"ownerOf","inputs":[{"name":"tokenId","type":"uint256","internalType":"uint256"}],"outputs":[{"name":"","type":"address","internalType":"address"}],"stateMutability":"view"},{"type":"function","name":"ownershipHandoverExpiresAt","inputs":[{"name":"pendingOwner","type":"address","internalType":"address"}],"outputs":[{"name":"result","type":"uint256","internalType":"uint256"}],"stateMutability":"view"},{"type":"function","name":"petersMain","inputs":[],"outputs":[{"name":"","type":"address","internalType":"contract PetersMain"}],"stateMutability":"view"},{"type":"function","name":"removeApprovedInvalidator","inputs":[{"name":"_invalidator","type":"address","internalType":"address"}],"outputs":[],"stateMutability":"nonpayable"},{"type":"function","name":"removeMinter","inputs":[{"name":"_minter","type":"address","internalType":"address"}],"outputs":[],"stateMutability":"nonpayable"},{"type":"function","name":"renderAsDataUri","inputs":[{"name":"_tokenId","type":"uint256","internalType":"uint256"}],"outputs":[{"name":"","type":"string","internalType":"string"}],"stateMutability":"view"},{"type":"function","name":"renounceOwnership","inputs":[],"outputs":[],"stateMutability":"payable"},{"type":"function","name":"requestOwnershipHandover","inputs":[],"outputs":[],"stateMutability":"payable"},{"type":"function","name":"resolveEpochIfNecessary","inputs":[],"outputs":[],"stateMutability":"nonpayable"},{"type":"function","name":"safeMint","inputs":[{"name":"_to","type":"address","internalType":"address"}],"outputs":[{"name":"","type":"uint256","internalType":"uint256"}],"stateMutability":"nonpayable"},{"type":"function","name":"safeTransferFrom","inputs":[{"name":"from","type":"address","internalType":"address"},{"name":"to","type":"address","internalType":"address"},{"name":"tokenId","type":"uint256","internalType":"uint256"}],"outputs":[],"stateMutability":"nonpayable"},{"type":"function","name":"safeTransferFrom","inputs":[{"name":"from","type":"address","internalType":"address"},{"name":"to","type":"address","internalType":"address"},{"name":"tokenId","type":"uint256","internalType":"uint256"},{"name":"data","type":"bytes","internalType":"bytes"}],"outputs":[],"stateMutability":"nonpayable"},{"type":"function","name":"setApprovalForAll","inputs":[{"name":"_operator","type":"address","internalType":"address"},{"name":"_approved","type":"bool","internalType":"bool"}],"outputs":[],"stateMutability":"nonpayable"},{"type":"function","name":"setGhostMaps","inputs":[{"name":"_colorMap","type":"bytes","internalType":"bytes"},{"name":"_zMap","type":"bytes","internalType":"bytes"}],"outputs":[],"stateMutability":"nonpayable"},{"type":"function","name":"setMarketplace","inputs":[{"name":"_marketplace","type":"address","internalType":"address"}],"outputs":[],"stateMutability":"nonpayable"},{"type":"function","name":"setPetersMain","inputs":[{"name":"_petersMain","type":"address","internalType":"address"}],"outputs":[],"stateMutability":"nonpayable"},{"type":"function","name":"setTraitForTokenId","inputs":[{"name":"_tokenId","type":"uint256","internalType":"uint256"},{"name":"_trait","type":"tuple","internalType":"struct ITraitStorage.StoredTrait","components":[{"name":"epoch","type":"uint256","internalType":"uint256"},{"name":"isRevealed","type":"bool","internalType":"bool"},{"name":"seed","type":"uint256","internalType":"uint256"},{"name":"renderMinterContract","type":"address","internalType":"address"},{"name":"traitIndex","type":"uint256","internalType":"uint256"},{"name":"traitType","type":"uint8","internalType":"enum TraitCategory.Name"}]}],"outputs":[],"stateMutability":"nonpayable"},{"type":"function","name":"setTraitIndexToMetadata","inputs":[{"name":"_traitIndex","type":"uint256","internalType":"uint256"},{"name":"_metadata","type":"tuple","internalType":"struct ITraitStorage.TraitMetadata","components":[{"name":"traitIndex","type":"uint256","internalType":"uint256"},{"name":"traitName","type":"string","internalType":"string"},{"name":"traitType","type":"uint8","internalType":"enum TraitCategory.Name"},{"name":"animations","type":"string","internalType":"string"},{"name":"colorMap","type":"bytes","internalType":"bytes"},{"name":"zMap","type":"bytes","internalType":"bytes"},{"name":"renderMinterContract","type":"address","internalType":"address"},{"name":"creatorAddress","type":"address","internalType":"address"},{"name":"creatorName","type":"string","internalType":"string"},{"name":"season","type":"string","internalType":"string"}]}],"outputs":[],"stateMutability":"nonpayable"},{"type":"function","name":"setTraitRenderer","inputs":[{"name":"_traitRenderer","type":"address","internalType":"address"}],"outputs":[],"stateMutability":"nonpayable"},{"type":"function","name":"signer","inputs":[],"outputs":[{"name":"","type":"address","internalType":"address"}],"stateMutability":"view"},{"type":"function","name":"supportsInterface","inputs":[{"name":"interfaceId","type":"bytes4","internalType":"bytes4"}],"outputs":[{"name":"","type":"bool","internalType":"bool"}],"stateMutability":"view"},{"type":"function","name":"symbol","inputs":[],"outputs":[{"name":"","type":"string","internalType":"string"}],"stateMutability":"view"},{"type":"function","name":"tokenByIndex","inputs":[{"name":"index","type":"uint256","internalType":"uint256"}],"outputs":[{"name":"","type":"uint256","internalType":"uint256"}],"stateMutability":"view"},{"type":"function","name":"tokenOfOwnerByIndex","inputs":[{"name":"owner","type":"address","internalType":"address"},{"name":"index","type":"uint256","internalType":"uint256"}],"outputs":[{"name":"","type":"uint256","internalType":"uint256"}],"stateMutability":"view"},{"type":"function","name":"tokenURI","inputs":[{"name":"_tokenId","type":"uint256","internalType":"uint256"}],"outputs":[{"name":"","type":"string","internalType":"string"}],"stateMutability":"view"},{"type":"function","name":"totalSupply","inputs":[],"outputs":[{"name":"","type":"uint256","internalType":"uint256"}],"stateMutability":"view"},{"type":"function","name":"traitIdToApprovedOperators","inputs":[{"name":"traitId","type":"uint256","internalType":"uint256"},{"name":"","type":"uint256","internalType":"uint256"}],"outputs":[{"name":"operators","type":"address","internalType":"address"}],"stateMutability":"view"},{"type":"function","name":"traitIndexToMetadata","inputs":[{"name":"","type":"uint256","internalType":"uint256"}],"outputs":[{"name":"traitIndex","type":"uint256","internalType":"uint256"},{"name":"traitName","type":"string","internalType":"string"},{"name":"traitType","type":"uint8","internalType":"enum TraitCategory.Name"},{"name":"animations","type":"string","internalType":"string"},{"name":"colorMap","type":"bytes","internalType":"bytes"},{"name":"zMap","type":"bytes","internalType":"bytes"},{"name":"renderMinterContract","type":"address","internalType":"address"},{"name":"creatorAddress","type":"address","internalType":"address"},{"name":"creatorName","type":"string","internalType":"string"},{"name":"season","type":"string","internalType":"string"}],"stateMutability":"view"},{"type":"function","name":"traitRenderer","inputs":[],"outputs":[{"name":"","type":"address","internalType":"contract TraitRenderer"}],"stateMutability":"view"},{"type":"function","name":"traitTokens","inputs":[],"outputs":[{"name":"epoch","type":"uint256","internalType":"uint256"}],"stateMutability":"view"},{"type":"function","name":"transferFrom","inputs":[{"name":"from","type":"address","internalType":"address"},{"name":"to","type":"address","internalType":"address"},{"name":"tokenId","type":"uint256","internalType":"uint256"}],"outputs":[],"stateMutability":"nonpayable"},{"type":"function","name":"transferOwnership","inputs":[{"name":"newOwner","type":"address","internalType":"address"}],"outputs":[],"stateMutability":"payable"},{"type":"function","name":"walletOfOwner","inputs":[{"name":"_owner","type":"address","internalType":"address"}],"outputs":[{"name":"","type":"uint256[]","internalType":"uint256[]"}],"stateMutability":"view"},{"type":"event","name":"AllOperatorApprovalsInvalidated","inputs":[{"name":"tokenId","type":"uint256","indexed":true,"internalType":"uint256"}],"anonymous":false},{"type":"event","name":"Approval","inputs":[{"name":"owner","type":"address","indexed":true,"internalType":"address"},{"name":"approved","type":"address","indexed":true,"internalType":"address"},{"name":"tokenId","type":"uint256","indexed":true,"internalType":"uint256"}],"anonymous":false},{"type":"event","name":"ApprovalForAll","inputs":[{"name":"owner","type":"address","indexed":true,"internalType":"address"},{"name":"operator","type":"address","indexed":true,"internalType":"address"},{"name":"approved","type":"bool","indexed":false,"internalType":"bool"}],"anonymous":false},{"type":"event","name":"BatchMetadataUpdate","inputs":[{"name":"_fromTokenId","type":"uint256","indexed":false,"internalType":"uint256"},{"name":"_toTokenId","type":"uint256","indexed":false,"internalType":"uint256"}],"anonymous":false},{"type":"event","name":"MetadataUpdate","inputs":[{"name":"_tokenId","type":"uint256","indexed":false,"internalType":"uint256"}],"anonymous":false},{"type":"event","name":"Mint","inputs":[{"name":"owner","type":"address","indexed":true,"internalType":"address"},{"name":"tokenId","type":"uint256","indexed":true,"internalType":"uint256"}],"anonymous":false},{"type":"event","name":"NewEpoch","inputs":[{"name":"epoch","type":"uint256","indexed":true,"internalType":"uint256"},{"name":"revealBlock","type":"uint64","indexed":true,"internalType":"uint64"}],"anonymous":false},{"type":"event","name":"OwnershipHandoverCanceled","inputs":[{"name":"pendingOwner","type":"address","indexed":true,"internalType":"address"}],"anonymous":false},{"type":"event","name":"OwnershipHandoverRequested","inputs":[{"name":"pendingOwner","type":"address","indexed":true,"internalType":"address"}],"anonymous":false},{"type":"event","name":"OwnershipTransferred","inputs":[{"name":"oldOwner","type":"address","indexed":true,"internalType":"address"},{"name":"newOwner","type":"address","indexed":true,"internalType":"address"}],"anonymous":false},{"type":"event","name":"Transfer","inputs":[{"name":"from","type":"address","indexed":true,"internalType":"address"},{"name":"to","type":"address","indexed":true,"internalType":"address"},{"name":"tokenId","type":"uint256","indexed":true,"internalType":"uint256"}],"anonymous":false},{"type":"error","name":"AlreadyInitialized","inputs":[]},{"type":"error","name":"CantTransfer","inputs":[]},{"type":"error","name":"NewOwnerIsZeroAddress","inputs":[]},{"type":"error","name":"NoHandoverRequest","inputs":[]},{"type":"error","name":"NotATBA","inputs":[]},{"type":"error","name":"NotAValidMinterContract","inputs":[]},{"type":"error","name":"NotYourTrait","inputs":[]},{"type":"error","name":"SetMarketplaceAddress","inputs":[]},{"type":"error","name":"SetPetersMainAddress","inputs":[]},{"type":"error","name":"TraitNotFound","inputs":[{"name":"_tokenId","type":"uint256","internalType":"uint256"}]},{"type":"error","name":"TraitTokenDoesntExist","inputs":[]},{"type":"error","name":"Unauthorized","inputs":[]}],"bytecode":{"object":"0x60806040523480156200001157600080fd5b506040516200929038038062009290833981016040819052620000349162000152565b6040518060400160405280600b81526020016a506574657254726169747360a81b81525060405180604001604052806003815260200162282a2960e91b815250816000908162000085919062000224565b50600162000094828262000224565b50506001600a5550620000a73362000108565b6016805460ff1916821515179055604051620000c39062000144565b604051809103906000f080158015620000e0573d6000803e3d6000fd5b50600e80546001600160a01b0319166001600160a01b039290921691909117905550620002f0565b6001600160a01b0316638b78c6d8198190558060007f8be0079c531659141344cd1fd0a4f28419497f9722a3daafe3b4186f6b6457e08180a350565b612fc680620062ca83390190565b6000602082840312156200016557600080fd5b815180151581146200017657600080fd5b9392505050565b634e487b7160e01b600052604160045260246000fd5b600181811c90821680620001a857607f821691505b602082108103620001c957634e487b7160e01b600052602260045260246000fd5b50919050565b601f8211156200021f576000816000526020600020601f850160051c81016020861015620001fa5750805b601f850160051c820191505b818110156200021b5782815560010162000206565b5050505b505050565b81516001600160401b038111156200024057620002406200017d565b620002588162000251845462000193565b84620001cf565b602080601f831160018114620002905760008415620002775750858301515b600019600386901b1c1916600185901b1785556200021b565b600085815260208120601f198616915b82811015620002c157888601518255948401946001909101908401620002a0565b5085821015620002e05787850151600019600388901b60f8161c191681555b5050505050600190811b01905550565b615fca80620003006000396000f3fe6080604052600436106104045760003560e01c806390f6384211610213578063c876371b11610123578063e8a1268d116100ab578063f12719421161007a578063f127194214610d3d578063f2fde38b14610d5d578063f677c01314610d70578063f901667f14610d90578063fee81cf414610db057600080fd5b8063e8a1268d14610c94578063e985e9c514610cc1578063ea13954414610d0a578063f04e283e14610d2a57600080fd5b8063df2c2b88116100f2578063df2c2b8814610bfd578063e08714a614610c1d578063e14d026f14610c3d578063e1defed914610c54578063e4623c1b14610c7457600080fd5b8063c876371b14610b70578063c87b56dd14610b90578063cde2180a14610bb0578063d1bfc2af14610bd057600080fd5b8063aa271e1a116101a6578063b88d4fde11610175578063b88d4fde14610ad4578063b97dd9e2146107d4578063bb12d21d14610af4578063c1ff78be14610b23578063c779153114610b5057600080fd5b8063aa271e1a14610a34578063abc8c7af14610a64578063acb586df14610a84578063b3148f7514610aa457600080fd5b8063a22cb465116101e2578063a22cb465146109b4578063a2c12c94146109d4578063a5e2912a146109f4578063a8498c7414610a1457600080fd5b806390f638421461093f57806395d89b411461095f578063983b2d5614610974578063a1d626801461099457600080fd5b806333a70328116103195780636352211e116102a1578063757991a811610270578063757991a8146107d4578063817a29a4146107e9578063859e7d321461081f5780638d37c537146109065780638da5cb5b1461092657600080fd5b80636352211e1461076c57806370a082311461078c578063715018a6146107ac57806373ad6c2d146107b457600080fd5b806342966c68116102e857806342966c68146106e2578063438b6300146107025780634f6ccce71461072f57806354d1f13d1461074f5780635c1ef2561461075757600080fd5b806333a703281461065457806336d34ab91461068257806340d097c3146106a257806342842e0e146106c257600080fd5b80631ca976041161039c578063239ffa681161036b578063239ffa68146105d757806323b872dd146105ec578063256929621461060c5780632f745c59146106145780633092afd51461063457600080fd5b80631ca976041461054a578063208c25a31461056a57806321b12c2314610597578063238ac933146105b757600080fd5b8063095ea7b3116103d8578063095ea7b3146104c957806311f3910d146104eb578063120def241461050b57806318160ddd1461052b57600080fd5b8062db63481461040957806301ffc9a71461043f57806306fdde031461046f578063081812fc14610491575b600080fd5b34801561041557600080fd5b50610429610424366004614a37565b610de3565b6040516104369190614a50565b60405180910390f35b34801561044b57600080fd5b5061045f61045a366004614ab3565b610e4f565b6040519015158152602001610436565b34801561047b57600080fd5b50610484610e60565b6040516104369190614b27565b34801561049d57600080fd5b506104b16104ac366004614a37565b610ef2565b6040516001600160a01b039091168152602001610436565b3480156104d557600080fd5b506104e96104e4366004614b5f565b610f19565b005b3480156104f757600080fd5b506104b1610506366004614b8b565b611144565b34801561051757600080fd5b506104e9610526366004614bad565b61117c565b34801561053757600080fd5b506008545b604051908152602001610436565b34801561055657600080fd5b506012546104b1906001600160a01b031681565b34801561057657600080fd5b5061058a610585366004614a37565b6111a6565b6040516104369190614c4a565b3480156105a357600080fd5b506104846105b2366004614d89565b61126e565b3480156105c357600080fd5b50600f546104b1906001600160a01b031681565b3480156105e357600080fd5b506104e96112e4565b3480156105f857600080fd5b506104e9610607366004614dbd565b6114c0565b6104e96114ff565b34801561062057600080fd5b5061053c61062f366004614b5f565b61154e565b34801561064057600080fd5b506104e961064f366004614bad565b6115e4565b34801561066057600080fd5b5061067461066f366004614ea2565b61160d565b604051610436929190614ecd565b34801561068e57600080fd5b506104e961069d366004614ef2565b6116a8565b3480156106ae57600080fd5b5061053c6106bd366004614bad565b611741565b3480156106ce57600080fd5b506104e96106dd366004614dbd565b6117e2565b3480156106ee57600080fd5b506104e96106fd366004614a37565b6117fd565b34801561070e57600080fd5b5061072261071d366004614bad565b611806565b6040516104369190614f1f565b34801561073b57600080fd5b5061053c61074a366004614a37565b61191b565b6104e96119ae565b34801561076357600080fd5b506104846119ea565b34801561077857600080fd5b506104b1610787366004614a37565b611a61565b34801561079857600080fd5b5061053c6107a7366004614bad565b611ac1565b6104e9611b47565b3480156107c057600080fd5b506104e96107cf366004614bad565b611b5b565b3480156107e057600080fd5b50600c5461053c565b3480156107f557600080fd5b50610809610804366004614a37565b611b85565b6040516104369a99989796959493929190614f57565b34801561082b57600080fd5b506108bd61083a366004614a37565b6040805160808082018352600080835260208084018290528385018290526060938401829052948152600d855283902083519182018452546001600160801b03811682526001600160401b03600160801b8204169482019490945260ff600160c01b85048116151593820193909352600160c81b90930490911615159082015290565b604051610436919081516001600160801b031681526020808301516001600160401b03169082015260408083015115159082015260609182015115159181019190915260800190565b34801561091257600080fd5b506104e961092136600461500c565b611f1d565b34801561093257600080fd5b50638b78c6d819546104b1565b34801561094b57600080fd5b506104e961095a366004614a37565b61201c565b34801561096b57600080fd5b506104846121be565b34801561098057600080fd5b506104e961098f366004614bad565b6121cd565b3480156109a057600080fd5b506104846109af366004614a37565b6121f9565b3480156109c057600080fd5b506104e96109cf36600461517a565b6122ec565b3480156109e057600080fd5b506104e96109ef366004614bad565b612529565b348015610a0057600080fd5b50610484610a0f366004614a37565b612553565b348015610a2057600080fd5b50610484610a2f366004614a37565b612595565b348015610a4057600080fd5b5061045f610a4f366004614bad565b60146020526000908152604090205460ff1681565b348015610a7057600080fd5b506013546104b1906001600160a01b031681565b348015610a9057600080fd5b5061058a610a9f366004614a37565b61264d565b348015610ab057600080fd5b5061045f610abf366004614bad565b60156020526000908152604090205460ff1681565b348015610ae057600080fd5b506104e9610aef3660046151b3565b6127ec565b348015610b0057600080fd5b50610b14610b0f366004615243565b612824565b6040516104369392919061533c565b348015610b2f57600080fd5b5061053c610b3e366004614a37565b60009081526011602052604090205490565b348015610b5c57600080fd5b50610484610b6b366004614a37565b6128b3565b348015610b7c57600080fd5b50600e546104b1906001600160a01b031681565b348015610b9c57600080fd5b50610484610bab366004614a37565b612909565b348015610bbc57600080fd5b506104e9610bcb366004614bad565b61294a565b348015610bdc57600080fd5b50610bf0610beb366004614a37565b612973565b604051610436919061537f565b348015610c0957600080fd5b50610674610c18366004615243565b612d80565b348015610c2957600080fd5b50610674610c38366004615488565b612e0b565b348015610c4957600080fd5b50600c5461053c9081565b348015610c6057600080fd5b506104e9610c6f3660046154f4565b612eb8565b348015610c8057600080fd5b506104e9610c8f366004615557565b612f28565b348015610ca057600080fd5b50610cb4610caf366004614a37565b612f5e565b60405161043691906155fc565b348015610ccd57600080fd5b5061045f610cdc36600461560a565b6001600160a01b03918216600090815260056020908152604080832093909416825291909152205460ff1690565b348015610d1657600080fd5b50610bf0610d25366004614a37565b61336b565b6104e9610d38366004614bad565b613766565b348015610d4957600080fd5b50610b14610d58366004615638565b6137a3565b6104e9610d6b366004614bad565b613859565b348015610d7c57600080fd5b506104e9610d8b366004614bad565b613880565b348015610d9c57600080fd5b50610b14610dab366004614ea2565b6138ac565b348015610dbc57600080fd5b5061053c610dcb366004614bad565b63389a75e1600c908152600091909152602090205490565b600081815260116020908152604091829020805483518184028101840190945280845260609392830182828015610e4357602002820191906000526020600020905b81546001600160a01b03168152600190910190602001808311610e25575b50505050509050919050565b6000610e5a8261394b565b92915050565b606060008054610e6f906156bd565b80601f0160208091040260200160405190810160405280929190818152602001828054610e9b906156bd565b8015610ee85780601f10610ebd57610100808354040283529160200191610ee8565b820191906000526020600020905b815481529060010190602001808311610ecb57829003601f168201915b5050505050905090565b6000610efd82613970565b506000908152600460205260409020546001600160a01b031690565b6000818152600260205260409020546001600160a01b0316610f4e57604051632df0e24560e21b815260040160405180910390fd5b33610f5882611a61565b6001600160a01b031614610f7f57604051633e79b9f360e01b815260040160405180910390fd5b6001600160a01b0382166110a0576000818152601160205260408120905b815481101561109957836001600160a01b0316828281548110610fc257610fc26156f1565b6000918252602090912001546001600160a01b0316036110915781548290610fec9060019061571d565b81548110610ffc57610ffc6156f1565b9060005260206000200160009054906101000a90046001600160a01b031682828154811061102c5761102c6156f1565b9060005260206000200160006101000a8154816001600160a01b0302191690836001600160a01b031602179055508180548061106a5761106a615730565b600082815260209020810160001990810180546001600160a01b0319169055019055611099565b600101610f9d565b5050611136565b600081815260116020526040812090805b825481101561110157846001600160a01b03168382815481106110d6576110d66156f1565b6000918252602090912001546001600160a01b0316036110f95760019150611101565b6001016110b1565b50806111335781546001810183556000838152602090200180546001600160a01b0319166001600160a01b0386161790555b50505b61114082826139cf565b5050565b6011602052816000526040600020818154811061116057600080fd5b6000918252602090912001546001600160a01b03169150829050565b611184613adf565b600e80546001600160a01b0319166001600160a01b0392909216919091179055565b6111dc6040805160c08101825260008082526020820181905291810182905260608101829052608081018290529060a082015290565b6000828152600b6020908152604091829020825160c08101845281548152600182015460ff90811615159382019390935260028201549381019390935260038101546001600160a01b03166060840152600481015460808401526005810154909160a084019116600781111561125457611254614bca565b600781111561126557611265614bca565b90525092915050565b600e546040516321b12c2360e01b81526060916001600160a01b0316906321b12c239061129f908590600401614b27565b600060405180830381865afa1580156112bc573d6000803e3d6000fd5b505050506040513d6000823e601f3d908101601f19168201604052610e5a919081019061578b565b600c546000908152600d602052604090208054600160c01b900460ff16158061133c57508054600160c81b900460ff1615801561133c57506113286101004361571d565b8154600160801b90046001600160401b0316105b156113875761134c4360326157bf565b815460ff60c01b196001600160401b0392909216600160801b029190911668ffffffffffffffffff60801b1990911617600160c01b17815550565b8054600160801b90046001600160401b03164311156114bd57805460408051600160801b9092046001600160401b031640602083015244908201526001600160801b03906060016040516020818303038152906040528051906020012060001c6113f191906157d2565b8154600160c81b6001600160801b039290921679ff000000000000000000ffffffffffffffffffffffffffffffff199091161717808255600c54604051600160801b9092046001600160401b0316917f78611aecfda8d341359c248df527c95aef93d446c92bb928b2a81b7abcb1d8d990600090a3604080516000815260001960208201527f6bd5c950a8d8df17f772f5af37cb3655737899cbf903264b9795592da439661c910160405180910390a1600c80546000906114b1906157f4565b909155506114bd6112e4565b50565b6114ca3382613afa565b6114ef5760405162461bcd60e51b81526004016114e69061580d565b60405180910390fd5b6114fa838383613b78565b505050565b60006202a3006001600160401b03164201905063389a75e1600c5233600052806020600c2055337fdbf36a107da19e49527a7176a1babf963b4b0ff8cde35ee35d6cd8f1f9ac7e1d600080a250565b600061155983611ac1565b82106115bb5760405162461bcd60e51b815260206004820152602b60248201527f455243373231456e756d657261626c653a206f776e657220696e646578206f7560448201526a74206f6620626f756e647360a81b60648201526084016114e6565b506001600160a01b03919091166000908152600660209081526040808320938352929052205490565b6115ec613adf565b6001600160a01b03166000908152601460205260409020805460ff19169055565b600e5460808301516000908152601060205260409081902090516317de5cbf60e11b815260609283926001600160a01b0390911691632fbcb97e9161165891889188916004016159b6565b600060405180830381865afa158015611675573d6000803e3d6000fd5b505050506040513d6000823e601f3d908101601f1916820160405261169d91908101906159dd565b915091509250929050565b6000828152600b602090815260409182902083518155908301516001808301805492151560ff1993841617905592840151600283015560608401516003830180546001600160a01b039092166001600160a01b03199092169190911790556080840151600483015560a084015160058301805486959293919291169083600781111561173657611736614bca565b021790555050505050565b3360008181526014602052604081205490919060ff166117745760405163090a0b6960e21b815260040160405180910390fd5b61177c6112e4565b600061178760085490565b6117929060016157bf565b905061179e8482613d25565b604080516000815260001960208201527f6bd5c950a8d8df17f772f5af37cb3655737899cbf903264b9795592da439661c910160405180910390a191505b50919050565b6114fa838383604051806020016040528060008152506127ec565b6114bd81613d3f565b60606118436040518060400160405280601181526020017062616c616e63654f66285f6f776e65722960781b81525061183e84611ac1565b613dee565b600061184e83611ac1565b90506000816001600160401b0381111561186a5761186a614c58565b604051908082528060200260200182016040528015611893578160200160208202803683370190505b50905060005b82811015611913576118e46040518060400160405280601e81526020017f746f6b656e4f664f776e65724279496e646578285f6f776e65722c206929000081525061183e878461154e565b6118ee858261154e565b828281518110611900576119006156f1565b6020908102919091010152600101611899565b509392505050565b600061192660085490565b82106119895760405162461bcd60e51b815260206004820152602c60248201527f455243373231456e756d657261626c653a20676c6f62616c20696e646578206f60448201526b7574206f6620626f756e647360a01b60648201526084016114e6565b6008828154811061199c5761199c6156f1565b90600052602060002001549050919050565b63389a75e1600c523360005260006020600c2055337ffa7b8eab7da67f412cc9575ed43464468f9bfbae89d1675917346ca6d8fe3c92600080a2565b600e5460408051632e0f792b60e11b815290516060926001600160a01b031691635c1ef2569160048083019260009291908290030181865afa158015611a34573d6000803e3d6000fd5b505050506040513d6000823e601f3d908101601f19168201604052611a5c919081019061578b565b905090565b6000818152600260205260408120546001600160a01b031680610e5a5760405162461bcd60e51b8152602060048201526018602482015277115490cdcc8c4e881a5b9d985b1a59081d1bdad95b88125160421b60448201526064016114e6565b60006001600160a01b038216611b2b5760405162461bcd60e51b815260206004820152602960248201527f4552433732313a2061646472657373207a65726f206973206e6f7420612076616044820152683634b21037bbb732b960b91b60648201526084016114e6565b506001600160a01b031660009081526003602052604090205490565b611b4f613adf565b611b596000613e33565b565b611b63613adf565b601380546001600160a01b0319166001600160a01b0392909216919091179055565b60106020526000908152604090208054600182018054919291611ba7906156bd565b80601f0160208091040260200160405190810160405280929190818152602001828054611bd3906156bd565b8015611c205780601f10611bf557610100808354040283529160200191611c20565b820191906000526020600020905b815481529060010190602001808311611c0357829003601f168201915b5050506002840154600385018054949560ff909216949193509150611c44906156bd565b80601f0160208091040260200160405190810160405280929190818152602001828054611c70906156bd565b8015611cbd5780601f10611c9257610100808354040283529160200191611cbd565b820191906000526020600020905b815481529060010190602001808311611ca057829003601f168201915b505050505090806004018054611cd2906156bd565b80601f0160208091040260200160405190810160405280929190818152602001828054611cfe906156bd565b8015611d4b5780601f10611d2057610100808354040283529160200191611d4b565b820191906000526020600020905b815481529060010190602001808311611d2e57829003601f168201915b505050505090806005018054611d60906156bd565b80601f0160208091040260200160405190810160405280929190818152602001828054611d8c906156bd565b8015611dd95780601f10611dae57610100808354040283529160200191611dd9565b820191906000526020600020905b815481529060010190602001808311611dbc57829003601f168201915b5050506006840154600785015460088601805495966001600160a01b0393841696929093169450919250611e0c906156bd565b80601f0160208091040260200160405190810160405280929190818152602001828054611e38906156bd565b8015611e855780601f10611e5a57610100808354040283529160200191611e85565b820191906000526020600020905b815481529060010190602001808311611e6857829003601f168201915b505050505090806009018054611e9a906156bd565b80601f0160208091040260200160405190810160405280929190818152602001828054611ec6906156bd565b8015611f135780601f10611ee857610100808354040283529160200191611f13565b820191906000526020600020905b815481529060010190602001808311611ef657829003601f168201915b505050505090508a565b600082815260106020908152604090912082518155908201518291906001820190611f489082615a7e565b50604082015160028201805460ff19166001836007811115611f6c57611f6c614bca565b021790555060608201516003820190611f859082615a7e565b5060808201516004820190611f9a9082615a7e565b5060a08201516005820190611faf9082615a7e565b5060c08201516006820180546001600160a01b039283166001600160a01b03199182161790915560e08401516007840180549190931691161790556101008201516008820190611fff9082615a7e565b5061012082015160098201906120159082615a7e565b5050505050565b6000818152600260205260409020546001600160a01b031661205157604051632df0e24560e21b815260040160405180910390fd5b3361205b82611a61565b6001600160a01b03161415801561207d57506012546001600160a01b03163314155b801561209957503360009081526015602052604090205460ff16155b156120b757604051633e79b9f360e01b815260040160405180910390fd5b60008181526011602090815260408083208054825181850281018501909352808352919290919083018282801561211757602002820191906000526020600020905b81546001600160a01b031681526001909101906020018083116120f9575b50505050509050805160000361212b575050565b612136600083613e71565b60005b81518110156121775761216f61214e84611a61565b838381518110612160576121606156f1565b60200260200101516000613edf565b600101612139565b50600082815260116020526040812061218f9161499b565b60405182907fe6727257e6b1474b2ced9b705eafa89027508be445f1a76db669635c92f5242090600090a25050565b606060018054610e6f906156bd565b6121d5613adf565b6001600160a01b03166000908152601460205260409020805460ff19166001179055565b606060006122068361264d565b90506000816020015161223c576040518060400160405280600b81526020016a1e39bb339f1e17b9bb339f60a91b815250612249565b6122498260800151612553565b600e54608084015160009081526010602052604090209192506001600160a01b03169063a5e11e05908690859061227e6119ea565b866040518663ffffffff1660e01b815260040161229f959493929190615b3d565b600060405180830381865afa1580156122bc573d6000803e3d6000fd5b505050506040513d6000823e601f3d908101601f191682016040526122e4919081019061578b565b949350505050565b336001600160a01b038316036123405760405162461bcd60e51b815260206004820152601960248201527822a9219b99189d1030b8383937bb32903a379031b0b63632b960391b60448201526064016114e6565b600061234b33611ac1565b905060005b8181101561251e576000612364338361154e565b9050831561240657600081815260116020526040812090805b82548110156123cd57876001600160a01b03168382815481106123a2576123a26156f1565b6000918252602090912001546001600160a01b0316036123c557600191506123cd565b60010161237d565b50806123ff5781546001810183556000838152602090200180546001600160a01b0319166001600160a01b0389161790555b5050612515565b6000818152601160205260408120905b815481101561251257866001600160a01b031682828154811061243b5761243b6156f1565b6000918252602090912001546001600160a01b03160361250a57815482906124659060019061571d565b81548110612475576124756156f1565b9060005260206000200160009054906101000a90046001600160a01b03168282815481106124a5576124a56156f1565b9060005260206000200160006101000a8154816001600160a01b0302191690836001600160a01b03160217905550818054806124e3576124e3615730565b600082815260209020810160001990810180546001600160a01b0319169055019055612512565b600101612416565b50505b50600101612350565b506114fa8383613fa9565b612531613adf565b601280546001600160a01b0319166001600160a01b0392909216919091179055565b600e54600082815260106020526040908190209051631349027b60e31b81526060926001600160a01b031691639a4813d89161129f9160049081019101615b8e565b606060006125a28361264d565b608081015160009081526010602052604090206005018054919250906125c7906156bd565b80601f01602080910402602001604051908101604052809291908181526020018280546125f3906156bd565b80156126405780601f1061261557610100808354040283529160200191612640565b820191906000526020600020905b81548152906001019060200180831161262357829003601f168201915b5050505050915050919050565b6126836040805160c08101825260008082526020820181905291810182905260608101829052608081018290529060a082015290565b6000828152600b60209081526040808320815160c08101835281548152600182015460ff90811615159482019490945260028201549281019290925260038101546001600160a01b031660608301526004810154608083015260058101549192909160a08401911660078111156126fc576126fc614bca565b600781111561270d5761270d614bca565b90525080516000908152600d602052604090205460608201519192506001600160801b0316906001600160a01b03811615801561274c57506040830151155b1561276d5760405163082d451d60e01b8152600481018690526024016114e6565b60165460405163687d69df60e11b81526001600160a01b0383169163d0fad3be916127a29160ff169087908790600401615ba1565b60c060405180830381865afa1580156127bf573d6000803e3d6000fd5b505050506040513d601f19601f820116820180604052508101906127e39190615bcf565b95945050505050565b6127f63383613afa565b6128125760405162461bcd60e51b81526004016114e69061580d565b61281e84848484613fb4565b50505050565b600e54604051635ab38bf760e01b8152606091829182916001600160a01b031690635ab38bf790612861908790309063f127194290600401615cf2565b600060405180830381865afa15801561287e573d6000803e3d6000fd5b505050506040513d6000823e601f3d908101601f191682016040526128a69190810190615d24565b9250925092509193909250565b606060006128c08361264d565b90508060200151156128e0576128d98160800151612553565b91506117dc565b505060408051808201909152600b81526a1e39bb339f1e17b9bb339f60a91b6020820152919050565b6000818152600260205260409020546060906001600160a01b031661294157604051632df0e24560e21b815260040160405180910390fd5b610e5a826121f9565b612952613adf565b6001600160a01b03166000908152601560205260409020805460ff19169055565b61297b6149b9565b60006129868361264d565b9050601060008260800151815260200190815260200160002060405180610140016040529081600082015481526020016001820180546129c5906156bd565b80601f01602080910402602001604051908101604052809291908181526020018280546129f1906156bd565b8015612a3e5780601f10612a1357610100808354040283529160200191612a3e565b820191906000526020600020905b815481529060010190602001808311612a2157829003601f168201915b5050509183525050600282015460209091019060ff166007811115612a6557612a65614bca565b6007811115612a7657612a76614bca565b8152602001600382018054612a8a906156bd565b80601f0160208091040260200160405190810160405280929190818152602001828054612ab6906156bd565b8015612b035780601f10612ad857610100808354040283529160200191612b03565b820191906000526020600020905b815481529060010190602001808311612ae657829003601f168201915b50505050508152602001600482018054612b1c906156bd565b80601f0160208091040260200160405190810160405280929190818152602001828054612b48906156bd565b8015612b955780601f10612b6a57610100808354040283529160200191612b95565b820191906000526020600020905b815481529060010190602001808311612b7857829003601f168201915b50505050508152602001600582018054612bae906156bd565b80601f0160208091040260200160405190810160405280929190818152602001828054612bda906156bd565b8015612c275780601f10612bfc57610100808354040283529160200191612c27565b820191906000526020600020905b815481529060010190602001808311612c0a57829003601f168201915b505050918352505060068201546001600160a01b0390811660208301526007830154166040820152600882018054606090920191612c64906156bd565b80601f0160208091040260200160405190810160405280929190818152602001828054612c90906156bd565b8015612cdd5780601f10612cb257610100808354040283529160200191612cdd565b820191906000526020600020905b815481529060010190602001808311612cc057829003601f168201915b50505050508152602001600982018054612cf6906156bd565b80601f0160208091040260200160405190810160405280929190818152602001828054612d22906156bd565b8015612d6f5780601f10612d4457610100808354040283529160200191612d6f565b820191906000526020600020905b815481529060010190602001808311612d5257829003601f168201915b505050505081525050915050919050565b600e546040516338ce943360e01b815260609182916001600160a01b03909116906338ce943390612dbd908690309063e08714a690600401615cf2565b600060405180830381865afa158015612dda573d6000803e3d6000fd5b505050506040513d6000823e601f3d908101601f19168201604052612e0291908101906159dd565b91509150915091565b6060806000612e198661264d565b600e546080820151600090815260106020526040908190209051630a6ab71760e21b81529293506001600160a01b03909116916329aadc5c91612e66918a918a918a918891600401615da1565b600060405180830381865afa158015612e83573d6000803e3d6000fd5b505050506040513d6000823e601f3d908101601f19168201604052612eab91908101906159dd565b9250925050935093915050565b612ec0613adf565b600e5460405163e1defed960e01b81526001600160a01b039091169063e1defed990612ef29085908590600401614ecd565b600060405180830381600087803b158015612f0c57600080fd5b505af1158015612f20573d6000803e3d6000fd5b505050505050565b60005b815181101561114057612f56828281518110612f4957612f496156f1565b6020026020010151613d3f565b600101612f2b565b600080612f6a8361264d565b9050600060106000836080015181526020019081526020016000206040518061014001604052908160008201548152602001600182018054612fab906156bd565b80601f0160208091040260200160405190810160405280929190818152602001828054612fd7906156bd565b80156130245780601f10612ff957610100808354040283529160200191613024565b820191906000526020600020905b81548152906001019060200180831161300757829003601f168201915b5050509183525050600282015460209091019060ff16600781111561304b5761304b614bca565b600781111561305c5761305c614bca565b8152602001600382018054613070906156bd565b80601f016020809104026020016040519081016040528092919081815260200182805461309c906156bd565b80156130e95780601f106130be576101008083540402835291602001916130e9565b820191906000526020600020905b8154815290600101906020018083116130cc57829003601f168201915b50505050508152602001600482018054613102906156bd565b80601f016020809104026020016040519081016040528092919081815260200182805461312e906156bd565b801561317b5780601f106131505761010080835404028352916020019161317b565b820191906000526020600020905b81548152906001019060200180831161315e57829003601f168201915b50505050508152602001600582018054613194906156bd565b80601f01602080910402602001604051908101604052809291908181526020018280546131c0906156bd565b801561320d5780601f106131e25761010080835404028352916020019161320d565b820191906000526020600020905b8154815290600101906020018083116131f057829003601f168201915b505050918352505060068201546001600160a01b039081166020830152600783015416604082015260088201805460609092019161324a906156bd565b80601f0160208091040260200160405190810160405280929190818152602001828054613276906156bd565b80156132c35780601f10613298576101008083540402835291602001916132c3565b820191906000526020600020905b8154815290600101906020018083116132a657829003601f168201915b505050505081526020016009820180546132dc906156bd565b80601f0160208091040260200160405190810160405280929190818152602001828054613308906156bd565b80156133555780601f1061332a57610100808354040283529160200191613355565b820191906000526020600020905b81548152906001019060200180831161333857829003601f168201915b5050509190925250505060400151949350505050565b6133736149b9565b6010600083815260200190815260200160002060405180610140016040529081600082015481526020016001820180546133ac906156bd565b80601f01602080910402602001604051908101604052809291908181526020018280546133d8906156bd565b80156134255780601f106133fa57610100808354040283529160200191613425565b820191906000526020600020905b81548152906001019060200180831161340857829003601f168201915b5050509183525050600282015460209091019060ff16600781111561344c5761344c614bca565b600781111561345d5761345d614bca565b8152602001600382018054613471906156bd565b80601f016020809104026020016040519081016040528092919081815260200182805461349d906156bd565b80156134ea5780601f106134bf576101008083540402835291602001916134ea565b820191906000526020600020905b8154815290600101906020018083116134cd57829003601f168201915b50505050508152602001600482018054613503906156bd565b80601f016020809104026020016040519081016040528092919081815260200182805461352f906156bd565b801561357c5780601f106135515761010080835404028352916020019161357c565b820191906000526020600020905b81548152906001019060200180831161355f57829003601f168201915b50505050508152602001600582018054613595906156bd565b80601f01602080910402602001604051908101604052809291908181526020018280546135c1906156bd565b801561360e5780601f106135e35761010080835404028352916020019161360e565b820191906000526020600020905b8154815290600101906020018083116135f157829003601f168201915b505050918352505060068201546001600160a01b039081166020830152600783015416604082015260088201805460609092019161364b906156bd565b80601f0160208091040260200160405190810160405280929190818152602001828054613677906156bd565b80156136c45780601f10613699576101008083540402835291602001916136c4565b820191906000526020600020905b8154815290600101906020018083116136a757829003601f168201915b505050505081526020016009820180546136dd906156bd565b80601f0160208091040260200160405190810160405280929190818152602001828054613709906156bd565b80156137565780601f1061372b57610100808354040283529160200191613756565b820191906000526020600020905b81548152906001019060200180831161373957829003601f168201915b5050505050815250509050919050565b61376e613adf565b63389a75e1600c52806000526020600c20805442111561379657636f5e88186000526004601cfd5b600090556114bd81613e33565b606080606060006137b38861264d565b600e54608082015160009081526010602052604090819020905163aeea03e560e01b81529293506001600160a01b039091169163aeea03e591613803918c918c918c918c91899190600401615df1565b600060405180830381865afa158015613820573d6000803e3d6000fd5b505050506040513d6000823e601f3d908101601f191682016040526138489190810190615d24565b935093509350509450945094915050565b613861613adf565b8060601b61387757637448fbae6000526004601cfd5b6114bd81613e33565b613888613adf565b6001600160a01b03166000908152601560205260409020805460ff19166001179055565b600e5460808301516000908152601060205260409081902090516330235ddd60e21b8152606092839283926001600160a01b039092169163c08d7774916138f991899189916004016159b6565b600060405180830381865afa158015613916573d6000803e3d6000fd5b505050506040513d6000823e601f3d908101601f1916820160405261393e9190810190615d24565b9250925092509250925092565b60006001600160e01b0319821663780e9d6360e01b1480610e5a5750610e5a82613fe7565b6000818152600260205260409020546001600160a01b03166114bd5760405162461bcd60e51b8152602060048201526018602482015277115490cdcc8c4e881a5b9d985b1a59081d1bdad95b88125160421b60448201526064016114e6565b60006139da82611a61565b9050806001600160a01b0316836001600160a01b031603613a475760405162461bcd60e51b815260206004820152602160248201527f4552433732313a20617070726f76616c20746f2063757272656e74206f776e656044820152603960f91b60648201526084016114e6565b336001600160a01b0382161480613a635750613a638133610cdc565b613ad55760405162461bcd60e51b815260206004820152603e60248201527f4552433732313a20617070726f76652063616c6c6572206973206e6f7420746f60448201527f6b656e206f776e6572206e6f7220617070726f76656420666f7220616c6c000060648201526084016114e6565b6114fa8383613e71565b638b78c6d819543314611b59576382b429006000526004601cfd5b600080613b0683611a61565b9050806001600160a01b0316846001600160a01b03161480613b4d57506001600160a01b0380821660009081526005602090815260408083209388168352929052205460ff165b806122e45750836001600160a01b0316613b6684610ef2565b6001600160a01b031614949350505050565b826001600160a01b0316613b8b82611a61565b6001600160a01b031614613bef5760405162461bcd60e51b815260206004820152602560248201527f4552433732313a207472616e736665722066726f6d20696e636f72726563742060448201526437bbb732b960d91b60648201526084016114e6565b6001600160a01b038216613c515760405162461bcd60e51b8152602060048201526024808201527f4552433732313a207472616e7366657220746f20746865207a65726f206164646044820152637265737360e01b60648201526084016114e6565b613c5c838383614037565b613c67600082613e71565b6001600160a01b0383166000908152600360205260408120805460019290613c9090849061571d565b90915550506001600160a01b0382166000908152600360205260408120805460019290613cbe9084906157bf565b909155505060008181526002602052604080822080546001600160a01b0319166001600160a01b0386811691821790925591518493918716917fddf252ad1be2c89b69c2b068fc378daa952ba7f163c4a11628f55a4df523b3ef91a46114fa8383836141b8565b611140828260405180602001604052806000815250614301565b6000613d4a82611a61565b9050613d5881600084614037565b613d63600083613e71565b6001600160a01b0381166000908152600360205260408120805460019290613d8c90849061571d565b909155505060008281526002602052604080822080546001600160a01b0319169055518391906001600160a01b038416907fddf252ad1be2c89b69c2b068fc378daa952ba7f163c4a11628f55a4df523b3ef908390a4611140816000846141b8565b6111408282604051602401613e04929190615e62565b60408051601f198184030181529190526020810180516001600160e01b03166309710a9d60e41b179052614334565b638b78c6d81980546001600160a01b039092169182907f8be0079c531659141344cd1fd0a4f28419497f9722a3daafe3b4186f6b6457e0600080a355565b600081815260046020526040902080546001600160a01b0319166001600160a01b0384169081179091558190613ea682611a61565b6001600160a01b03167f8c5be1e5ebec7d5bd14f71427d1e84f3dd0314c0f7b2291e5b200ac8c7c3b92560405160405180910390a45050565b816001600160a01b0316836001600160a01b031603613f3c5760405162461bcd60e51b815260206004820152601960248201527822a9219b99189d1030b8383937bb32903a379031b0b63632b960391b60448201526064016114e6565b6001600160a01b03838116600081815260056020908152604080832094871680845294825291829020805460ff191686151590811790915591519182527f17307eab39ab6107e8899845ad3d59bd9653f200f220920489ca2b5937696c31910160405180910390a3505050565b611140338383613edf565b613fbf848484613b78565b613fcb84848484614355565b61281e5760405162461bcd60e51b81526004016114e690615e84565b60006001600160e01b031982166380ac58cd60e01b148061401857506001600160e01b03198216635b5e139f60e01b145b80610e5a57506301ffc9a760e01b6001600160e01b0319831614610e5a565b6001600160a01b038316614050576114fa838383614456565b601354604051634f6088cd60e01b8152600481018390526000916001600160a01b031690634f6088cd90602401608060405180830381865afa15801561409a573d6000803e3d6000fd5b505050506040513d601f19601f820116820180604052508101906140be9190615ed6565b5090925050506001600160a01b038116156140fe576013546001600160a01b031633146140fe5760405163bf646b0f60e01b815260040160405180910390fd5b6001600160a01b03831661412157614116828461450e565b61281e848484614456565b60125460405162525fcd60e91b81526001600160a01b0385811660048301529091169063a4bf9a0090602401602060405180830381865afa15801561416a573d6000803e3d6000fd5b505050506040513d601f19601f8201168201806040525081019061418e9190615f2b565b6000036141ae576040516326a45c0160e21b815260040160405180910390fd5b614116828461450e565b6012546001600160a01b03166141e15760405163787124d760e11b815260040160405180910390fd5b6013546001600160a01b031661420a5760405163382eb47160e21b815260040160405180910390fd5b6001600160a01b03831661421d57505050565b600061422882611a61565b60125460405162525fcd60e91b81526001600160a01b0380841660048301529293506000929091169063a4bf9a0090602401602060405180830381865afa158015614277573d6000803e3d6000fd5b505050506040513d601f19601f8201168201806040525081019061429b9190615f2b565b60135460405163236313ff60e11b8152600481018390529192506001600160a01b0316906346c627fe90602401600060405180830381600087803b1580156142e257600080fd5b505af11580156142f6573d6000803e3d6000fd5b505050505050505050565b61430b83836146b5565b6143186000848484614355565b6114fa5760405162461bcd60e51b81526004016114e690615e84565b80516a636f6e736f6c652e6c6f67602083016000808483855afa5050505050565b60006001600160a01b0384163b1561444b57604051630a85bd0160e11b81526001600160a01b0385169063150b7a0290614399903390899088908890600401615f44565b6020604051808303816000875af19250505080156143d4575060408051601f3d908101601f191682019092526143d191810190615f77565b60015b614431573d808015614402576040519150601f19603f3d011682016040523d82523d6000602084013e614407565b606091505b5080516000036144295760405162461bcd60e51b81526004016114e690615e84565b805181602001fd5b6001600160e01b031916630a85bd0160e11b1490506122e4565b506001949350505050565b6001600160a01b0383166144b1576144ac81600880546000838152600960205260408120829055600182018355919091527ff3f7a9fe364faab93b216da50a3214154f22a0a2b415b23a84c8169e8b636ee30155565b6144d4565b816001600160a01b0316836001600160a01b0316146144d4576144d4838261480b565b6001600160a01b0382166144eb576114fa816148a8565b826001600160a01b0316826001600160a01b0316146114fa576114fa8282614957565b600061451983611a61565b60125460405162525fcd60e91b81526001600160a01b0380841660048301529293506000929091169063a4bf9a0090602401602060405180830381865afa158015614568573d6000803e3d6000fd5b505050506040513d601f19601f8201168201806040525081019061458c9190615f2b565b60135460405163236313ff60e11b8152600481018390529192506001600160a01b0316906346c627fe90602401600060405180830381600087803b1580156145d357600080fd5b505af11580156145e7573d6000803e3d6000fd5b5050601354604051632e1d274f60e01b8152600481018890526001600160a01b039091169250632e1d274f9150602401600060405180830381600087803b15801561463157600080fd5b505af1158015614645573d6000803e3d6000fd5b50506013546040516302fbe78f60e41b8152600481018890526001600160a01b0387811660248301529091169250632fbe78f09150604401600060405180830381600087803b15801561469757600080fd5b505af11580156146ab573d6000803e3d6000fd5b5050505050505050565b6001600160a01b03821661470b5760405162461bcd60e51b815260206004820181905260248201527f4552433732313a206d696e7420746f20746865207a65726f206164647265737360448201526064016114e6565b6000818152600260205260409020546001600160a01b0316156147705760405162461bcd60e51b815260206004820152601c60248201527f4552433732313a20746f6b656e20616c7265616479206d696e7465640000000060448201526064016114e6565b61477c60008383614037565b6001600160a01b03821660009081526003602052604081208054600192906147a59084906157bf565b909155505060008181526002602052604080822080546001600160a01b0319166001600160a01b03861690811790915590518392907fddf252ad1be2c89b69c2b068fc378daa952ba7f163c4a11628f55a4df523b3ef908290a4611140600083836141b8565b6000600161481884611ac1565b614822919061571d565b600083815260076020526040902054909150808214614875576001600160a01b03841660009081526006602090815260408083208584528252808320548484528184208190558352600790915290208190555b5060009182526007602090815260408084208490556001600160a01b039094168352600681528383209183525290812055565b6008546000906148ba9060019061571d565b600083815260096020526040812054600880549394509092849081106148e2576148e26156f1565b906000526020600020015490508060088381548110614903576149036156f1565b600091825260208083209091019290925582815260099091526040808220849055858252812055600880548061493b5761493b615730565b6001900381819060005260206000200160009055905550505050565b600061496283611ac1565b6001600160a01b039093166000908152600660209081526040808320868452825280832085905593825260079052919091209190915550565b50805460008255906000526020600020908101906114bd9190614a1e565b60408051610140810182526000808252606060208301529091820190815260200160608152602001606081526020016060815260200160006001600160a01b0316815260200160006001600160a01b0316815260200160608152602001606081525090565b5b80821115614a335760008155600101614a1f565b5090565b600060208284031215614a4957600080fd5b5035919050565b6020808252825182820181905260009190848201906040850190845b81811015614a915783516001600160a01b031683529284019291840191600101614a6c565b50909695505050505050565b6001600160e01b0319811681146114bd57600080fd5b600060208284031215614ac557600080fd5b8135614ad081614a9d565b9392505050565b60005b83811015614af2578181015183820152602001614ada565b50506000910152565b60008151808452614b13816020860160208601614ad7565b601f01601f19169290920160200192915050565b602081526000614ad06020830184614afb565b6001600160a01b03811681146114bd57600080fd5b8035614b5a81614b3a565b919050565b60008060408385031215614b7257600080fd5b8235614b7d81614b3a565b946020939093013593505050565b60008060408385031215614b9e57600080fd5b50508035926020909101359150565b600060208284031215614bbf57600080fd5b8135614ad081614b3a565b634e487b7160e01b600052602160045260246000fd5b60088110614bfe57634e487b7160e01b600052602160045260246000fd5b9052565b805182526020810151151560208301526040810151604083015260018060a01b0360608201511660608301526080810151608083015260a08101516114fa60a0840182614be0565b60c08101610e5a8284614c02565b634e487b7160e01b600052604160045260246000fd5b60405160c081016001600160401b0381118282101715614c9057614c90614c58565b60405290565b60405161014081016001600160401b0381118282101715614c9057614c90614c58565b60405161018081016001600160401b0381118282101715614c9057614c90614c58565b604051601f8201601f191681016001600160401b0381118282101715614d0457614d04614c58565b604052919050565b60006001600160401b03821115614d2557614d25614c58565b50601f01601f191660200190565b600082601f830112614d4457600080fd5b8135614d57614d5282614d0c565b614cdc565b818152846020838601011115614d6c57600080fd5b816020850160208301376000918101602001919091529392505050565b600060208284031215614d9b57600080fd5b81356001600160401b03811115614db157600080fd5b6122e484828501614d33565b600080600060608486031215614dd257600080fd5b8335614ddd81614b3a565b92506020840135614ded81614b3a565b929592945050506040919091013590565b80151581146114bd57600080fd5b8035614b5a81614dfe565b600881106114bd57600080fd5b8035614b5a81614e17565b600060c08284031215614e4157600080fd5b614e49614c6e565b9050813581526020820135614e5d81614dfe565b6020820152604082810135908201526060820135614e7a81614b3a565b60608201526080828101359082015260a0820135614e9781614e17565b60a082015292915050565b60008060e08385031215614eb557600080fd5b614ebf8484614e2f565b9460c0939093013593505050565b604081526000614ee06040830185614afb565b82810360208401526127e38185614afb565b60008060e08385031215614f0557600080fd5b82359150614f168460208501614e2f565b90509250929050565b6020808252825182820181905260009190848201906040850190845b81811015614a9157835183529284019291840191600101614f3b565b60006101408c8352806020840152614f718184018d614afb565b9050614f80604084018c614be0565b8281036060840152614f92818b614afb565b90508281036080840152614fa6818a614afb565b905082810360a0840152614fba8189614afb565b6001600160a01b0388811660c0860152871660e08501528381036101008501529050614fe68186614afb565b9050828103610120840152614ffb8185614afb565b9d9c50505050505050505050505050565b6000806040838503121561501f57600080fd5b8235915060208301356001600160401b038082111561503d57600080fd5b90840190610140828703121561505257600080fd5b61505a614c96565b8235815260208301358281111561507057600080fd5b61507c88828601614d33565b60208301525061508e60408401614e24565b60408201526060830135828111156150a557600080fd5b6150b188828601614d33565b6060830152506080830135828111156150c957600080fd5b6150d588828601614d33565b60808301525060a0830135828111156150ed57600080fd5b6150f988828601614d33565b60a08301525061510b60c08401614b4f565b60c082015261511c60e08401614b4f565b60e0820152610100808401358381111561513557600080fd5b61514189828701614d33565b828401525050610120808401358381111561515b57600080fd5b61516789828701614d33565b8284015250508093505050509250929050565b6000806040838503121561518d57600080fd5b823561519881614b3a565b915060208301356151a881614dfe565b809150509250929050565b600080600080608085870312156151c957600080fd5b84356151d481614b3a565b935060208501356151e481614b3a565b92506040850135915060608501356001600160401b0381111561520657600080fd5b61521287828801614d33565b91505092959194509250565b803563ffffffff81168114614b5a57600080fd5b803560ff81168114614b5a57600080fd5b60006020828403121561525557600080fd5b81356001600160401b038082111561526c57600080fd5b90830190610180828603121561528157600080fd5b615289614cb9565b823581526020830135602082015260408301356040820152606083013560608201526080830135608082015260a083013560a082015260c083013560c08201526152d560e0840161521e565b60e082015261010083810135908201526101206152f3818501615232565b90820152610140838101358381111561530b57600080fd5b61531788828701614d33565b828401525050610160915061532d828401614e0c565b91810191909152949350505050565b60608152600061534f6060830186614afb565b82810360208401526153618186614afb565b905082810360408401526153758185614afb565b9695505050505050565b6020815281516020820152600060208301516101408060408501526153a8610160850183614afb565b915060408501516153bc6060860182614be0565b506060850151601f19808685030160808701526153d98483614afb565b935060808701519150808685030160a08701526153f68483614afb565b935060a08701519150808685030160c08701526154138483614afb565b935060c0870151915061543160e08701836001600160a01b03169052565b60e0870151915061010061544f818801846001600160a01b03169052565b8088015192505061012081878603018188015261546c8584614afb565b9088015187820390920184880152935090506153758382614afb565b60008060006060848603121561549d57600080fd5b8335925060208401356001600160401b03808211156154bb57600080fd5b6154c787838801614d33565b935060408601359150808211156154dd57600080fd5b506154ea86828701614d33565b9150509250925092565b6000806040838503121561550757600080fd5b82356001600160401b038082111561551e57600080fd5b61552a86838701614d33565b9350602085013591508082111561554057600080fd5b5061554d85828601614d33565b9150509250929050565b6000602080838503121561556a57600080fd5b82356001600160401b038082111561558157600080fd5b818501915085601f83011261559557600080fd5b8135818111156155a7576155a7614c58565b8060051b91506155b8848301614cdc565b81815291830184019184810190888411156155d257600080fd5b938501935b838510156155f0578435825293850193908501906155d7565b98975050505050505050565b60208101610e5a8284614be0565b6000806040838503121561561d57600080fd5b823561562881614b3a565b915060208301356151a881614b3a565b6000806000806080858703121561564e57600080fd5b8435935060208501356001600160401b038082111561566c57600080fd5b61567888838901614d33565b9450604087013591508082111561568e57600080fd5b61569a88838901614d33565b935060608701359150808211156156b057600080fd5b5061521287828801614d33565b600181811c908216806156d157607f821691505b6020821081036117dc57634e487b7160e01b600052602260045260246000fd5b634e487b7160e01b600052603260045260246000fd5b634e487b7160e01b600052601160045260246000fd5b81810381811115610e5a57610e5a615707565b634e487b7160e01b600052603160045260246000fd5b600082601f83011261575757600080fd5b8151615765614d5282614d0c565b81815284602083860101111561577a57600080fd5b6122e4826020830160208701614ad7565b60006020828403121561579d57600080fd5b81516001600160401b038111156157b357600080fd5b6122e484828501615746565b80820180821115610e5a57610e5a615707565b6000826157ef57634e487b7160e01b600052601260045260246000fd5b500690565b60006001820161580657615806615707565b5060010190565b6020808252602e908201527f4552433732313a2063616c6c6572206973206e6f7420746f6b656e206f776e6560408201526d1c881b9bdc88185c1c1c9bdd995960921b606082015260800190565b60008154615868816156bd565b808552602060018381168015615885576001811461589f576158cd565b60ff1985168884015283151560051b8801830195506158cd565b866000528260002060005b858110156158c55781548a82018601529083019084016158aa565b890184019650505b505050505092915050565b6000610140825484528060208501526158f68185016001850161585b565b9050615906600284015460ff1690565b6159136040860182614be0565b508381036060850152615929816003850161585b565b90508381036080850152615940816004850161585b565b905083810360a0850152615957816005850161585b565b905061596d60068401546001600160a01b031690565b6001600160a01b0390811660c086015260078401541660e085015283810361010085015261599e816008850161585b565b90508381036101208501526122e4816009850161585b565b60006101006159c58387614c02565b8460c08401528060e0840152615375818401856158d8565b600080604083850312156159f057600080fd5b82516001600160401b0380821115615a0757600080fd5b615a1386838701615746565b93506020850151915080821115615a2957600080fd5b5061554d85828601615746565b601f8211156114fa576000816000526020600020601f850160051c81016020861015615a5f5750805b601f850160051c820191505b81811015612f2057828155600101615a6b565b81516001600160401b03811115615a9757615a97614c58565b615aab81615aa584546156bd565b84615a36565b602080601f831160018114615ae05760008415615ac85750858301515b600019600386901b1c1916600185901b178555612f20565b600085815260208120601f198616915b82811015615b0f57888601518255948401946001909101908401615af0565b5085821015615b2d5787850151600019600388901b60f8161c191681555b5050505050600190811b01905550565b6000610140878352615b526020840188614c02565b8060e0840152615b64818401876158d8565b9050828103610100840152615b798186614afb565b90508281036101208401526155f08185614afb565b602081526000614ad0602083018461585b565b83151581526101008101615bb86020830185614c02565b6001600160801b03831660e0830152949350505050565b600060c08284031215615be157600080fd5b615be9614c6e565b825181526020830151615bfb81614dfe565b6020820152604083810151908201526060830151615c1881614b3a565b60608201526080838101519082015260a0830151615c3581614e17565b60a08201529392505050565b6000610180825184526020830151602085015260408301516040850152606083015160608501526080830151608085015260a083015160a085015260c083015160c085015260e0830151615c9d60e086018263ffffffff169052565b5061010083810151908501526101208084015160ff169085015261014080840151818601839052615cd083870182614afb565b9250505061016080840151615ce88287018215159052565b5090949350505050565b604081526000615d056040830186615c41565b90506122e460208301848660201b63ffffffff919091161760401b9052565b600080600060608486031215615d3957600080fd5b83516001600160401b0380821115615d5057600080fd5b615d5c87838801615746565b94506020860151915080821115615d7257600080fd5b615d7e87838801615746565b93506040860151915080821115615d9457600080fd5b506154ea86828701615746565b6000610140878352806020840152615dbb81840188614afb565b90508281036040840152615dcf8187614afb565b9050615dde6060840186614c02565b8281036101208401526155f081856158d8565b6000610160888352806020840152615e0b81840189614afb565b90508281036040840152615e1f8188614afb565b90508281036060840152615e338187614afb565b9050615e426080840186614c02565b828103610140840152615e5581856158d8565b9998505050505050505050565b604081526000615e756040830185614afb565b90508260208301529392505050565b60208082526032908201527f4552433732313a207472616e7366657220746f206e6f6e20455243373231526560408201527131b2b4bb32b91034b6b83632b6b2b73a32b960711b606082015260800190565b60008060008060808587031215615eec57600080fd5b845193506020850151615efe81614b3a565b6040860151909350615f0f81614b3a565b6060860151909250615f2081614b3a565b939692955090935050565b600060208284031215615f3d57600080fd5b5051919050565b6001600160a01b038581168252841660208201526040810183905260806060820181905260009061537590830184614afb565b600060208284031215615f8957600080fd5b8151614ad081614a9d56fea2646970667358221220075e1f16e59d77e4e2f2cd67d5d691325b960197b922adac1a0ca5bd36de280f64736f6c63430008160033608060405234801561001057600080fd5b50612fa6806100206000396000f3fe608060405234801561001057600080fd5b50600436106100f55760003560e01c80635c1ef25611610097578063aeea03e511610066578063aeea03e5146101e8578063c08d7774146101fb578063e1defed91461020e578063e6ab9d5a1461022357600080fd5b80635c1ef256146101a7578063898aa117146101af5780639a4813d8146101c2578063a5e11e05146101d557600080fd5b806338ce9433116100d357806338ce94331461015757806351dc71891461016a5780635ab38bf7146101725780635bf382591461019457600080fd5b806321b12c23146100fa57806329aadc5c146101235780632fbcb97e14610144575b600080fd5b61010d610108366004611e7e565b61022b565b60405161011a9190611f0a565b60405180910390f35b61013661013136600461212f565b610a74565b60405161011a9291906121d4565b610136610152366004612202565b610af4565b610136610165366004612369565b610bfc565b610136610f69565b610185610180366004612369565b611089565b60405161011a939291906123cc565b61010d6101a2366004611e7e565b61141e565b61010d611462565b61010d6101bd366004611e7e565b611531565b61010d6101d0366004611e7e565b611783565b61010d6101e336600461240f565b6117c8565b6101856101f63660046124a8565b6119f7565b610185610209366004612202565b611aa6565b61022161021c366004612570565b611bc9565b005b61010d611be7565b60606000604051806102000160405280604051806040016040528060018152602001600360fc1b8152508152602001604051806040016040528060018152602001603160f81b8152508152602001604051806040016040528060018152602001601960f91b8152508152602001604051806040016040528060018152602001603360f81b8152508152602001604051806040016040528060018152602001600d60fa1b8152508152602001604051806040016040528060018152602001603560f81b8152508152602001604051806040016040528060018152602001601b60f91b8152508152602001604051806040016040528060018152602001603760f81b8152508152602001604051806040016040528060018152602001600760fb1b8152508152602001604051806040016040528060018152602001603960f81b8152508152602001604051806040016040528060018152602001606160f81b8152508152602001604051806040016040528060018152602001603160f91b8152508152602001604051806040016040528060018152602001606360f81b8152508152602001604051806040016040528060018152602001601960fa1b8152508152602001604051806040016040528060018152602001606560f81b8152508152602001604051806040016040528060018152602001603360f91b81525081525090506000604051806103c00160405280604051806040016040528060018152602001600360fc1b8152508152602001604051806040016040528060018152602001603160f81b8152508152602001604051806040016040528060018152602001601960f91b8152508152602001604051806040016040528060018152602001603360f81b8152508152602001604051806040016040528060018152602001600d60fa1b8152508152602001604051806040016040528060018152602001603560f81b8152508152602001604051806040016040528060018152602001601b60f91b8152508152602001604051806040016040528060018152602001603760f81b8152508152602001604051806040016040528060018152602001600760fb1b8152508152602001604051806040016040528060018152602001603960f81b815250815260200160405180604001604052806002815260200161031360f41b815250815260200160405180604001604052806002815260200161313160f01b815250815260200160405180604001604052806002815260200161189960f11b815250815260200160405180604001604052806002815260200161313360f01b8152508152602001604051806040016040528060028152602001610c4d60f21b815250815260200160405180604001604052806002815260200161313560f01b815250815260200160405180604001604052806002815260200161189b60f11b815250815260200160405180604001604052806002815260200161313760f01b815250815260200160405180604001604052806002815260200161062760f31b815250815260200160405180604001604052806002815260200161313960f01b815250815260200160405180604001604052806002815260200161032360f41b815250815260200160405180604001604052806002815260200161323160f01b815250815260200160405180604001604052806002815260200161191960f11b815250815260200160405180604001604052806002815260200161323360f01b8152508152602001604051806040016040528060028152602001610c8d60f21b815250815260200160405180604001604052806002815260200161323560f01b815250815260200160405180604001604052806002815260200161191b60f11b815250815260200160405180604001604052806002815260200161323760f01b815250815260200160405180604001604052806002815260200161064760f31b815250815260200160405180604001604052806002815260200161323960f01b815250815250905060005b611194811015610a6c57600060f81b858281518110610813576108136125d3565b01602001516001600160f81b0319161115610a5a576000601e610837600584612615565b6108419190612629565b90506000601e610852600585612615565b61085c9190612615565b905060008560048961086f87600261263d565b8151811061087f5761087f6125d3565b016020015160f81c901c60ff166010811061089c5761089c6125d3565b602002015186896108ae87600261263d565b815181106108be576108be6125d3565b60209101015160f81c600f16601081106108da576108da6125d3565b60200201518760048b6108ee89600361263d565b815181106108fe576108fe6125d3565b016020015160f81c901c60ff166010811061091b5761091b6125d3565b6020020151888b61092d89600361263d565b8151811061093d5761093d6125d3565b60209101015160f81c600f1660108110610959576109596125d3565b60200201518960048d61096c8b8361263d565b8151811061097c5761097c6125d3565b016020015160f81c901c60ff1660108110610999576109996125d3565b60200201518a8d6109ab8b600461263d565b815181106109bb576109bb6125d3565b60209101015160f81c600f16601081106109d7576109d76125d3565b60200201516040516020016109f196959493929190612650565b6040516020818303038152906040529050868584601e8110610a1557610a156125d3565b60200201518684601e8110610a2c57610a2c6125d3565b602002015183604051602001610a4594939291906126cf565b60405160208183030381529060405296505050505b610a6560058261263d565b90506107f2565b505050919050565b606080606080610a85868a87610af4565b8851909350909150600003610a9f57809350819250610ae8565b8781604051602001610ab2929190612789565b60405160208183030381529060405293508682604051602001610ad69291906127b8565b60405160208183030381529060405292505b50509550959350505050565b60608084602001518015610b085750600084115b15610bb05760408084015190516301be83d160e11b8152610b9a9173__$4987fe9f4e800c5c4c1535f64ed232842a$__9163037d07a291610b4b916004016127f4565b600060405180830381865af4158015610b68573d6000803e3d6000fd5b505050506040513d6000823e601f3d908101601f19168201604052610b90919081019061286c565b8460200151611c08565b9050610ba98360800151611783565b9150610bf4565b604051806040016040528060028152602001617b7d60f01b81525090506040518060400160405280600b81526020016a1e39bb339f1e17b9bb339f60a91b81525091505b935093915050565b60608060008560c001511115610c7e5783838660c0015184846040518463ffffffff1660e01b8152600401610c33939291906128a0565b600060405180830381865afa158015610c50573d6000803e3d6000fd5b505050506040513d6000823e601f3d908101601f19168201604052610c7891908101906128cb565b90925090505b60a085015115610cfa5783838660a0015184846040518463ffffffff1660e01b8152600401610caf939291906128a0565b600060405180830381865afa158015610ccc573d6000803e3d6000fd5b505050506040513d6000823e601f3d908101601f19168201604052610cf491908101906128cb565b90925090505b608085015115610d76578383866080015184846040518463ffffffff1660e01b8152600401610d2b939291906128a0565b600060405180830381865afa158015610d48573d6000803e3d6000fd5b505050506040513d6000823e601f3d908101601f19168201604052610d7091908101906128cb565b90925090505b604085015115610df2578383866040015184846040518463ffffffff1660e01b8152600401610da7939291906128a0565b600060405180830381865afa158015610dc4573d6000803e3d6000fd5b505050506040513d6000823e601f3d908101601f19168201604052610dec91908101906128cb565b90925090505b602085015115610e6e578383866020015184846040518463ffffffff1660e01b8152600401610e23939291906128a0565b600060405180830381865afa158015610e40573d6000803e3d6000fd5b505050506040513d6000823e601f3d908101601f19168201604052610e6891908101906128cb565b90925090505b845115610ee7578383866000015184846040518463ffffffff1660e01b8152600401610e9c939291906128a0565b600060405180830381865afa158015610eb9573d6000803e3d6000fd5b505050506040513d6000823e601f3d908101601f19168201604052610ee191908101906128cb565b90925090505b606085015115610bf4578383866060015184846040518463ffffffff1660e01b8152600401610f18939291906128a0565b600060405180830381865afa158015610f35573d6000803e3d6000fd5b505050506040513d6000823e601f3d908101601f19168201604052610f5d91908101906128cb565b90969095509350505050565b600080548190610f7890612924565b80601f0160208091040260200160405190810160405280929190818152602001828054610fa490612924565b8015610ff15780601f10610fc657610100808354040283529160200191610ff1565b820191906000526020600020905b815481529060010190602001808311610fd457829003601f168201915b50505050509080600101805461100690612924565b80601f016020809104026020016040519081016040528092919081815260200182805461103290612924565b801561107f5780601f106110545761010080835404028352916020019161107f565b820191906000526020600020905b81548152906001019060200180831161106257829003601f168201915b5050505050905082565b606080606060008660c0015111156111125784848760c001518584866040518563ffffffff1660e01b81526004016110c4949392919061295e565b600060405180830381865afa1580156110e1573d6000803e3d6000fd5b505050506040513d6000823e601f3d908101601f1916820160405261110991908101906129a8565b91945090925090505b60a0860151156111935784848760a001518584866040518563ffffffff1660e01b8152600401611145949392919061295e565b600060405180830381865afa158015611162573d6000803e3d6000fd5b505050506040513d6000823e601f3d908101601f1916820160405261118a91908101906129a8565b91945090925090505b60808601511561121457848487608001518584866040518563ffffffff1660e01b81526004016111c6949392919061295e565b600060405180830381865afa1580156111e3573d6000803e3d6000fd5b505050506040513d6000823e601f3d908101601f1916820160405261120b91908101906129a8565b91945090925090505b60408601511561129557848487604001518584866040518563ffffffff1660e01b8152600401611247949392919061295e565b600060405180830381865afa158015611264573d6000803e3d6000fd5b505050506040513d6000823e601f3d908101601f1916820160405261128c91908101906129a8565b91945090925090505b60208601511561131657848487602001518584866040518563ffffffff1660e01b81526004016112c8949392919061295e565b600060405180830381865afa1580156112e5573d6000803e3d6000fd5b505050506040513d6000823e601f3d908101601f1916820160405261130d91908101906129a8565b91945090925090505b85511561139457848487600001518584866040518563ffffffff1660e01b8152600401611346949392919061295e565b600060405180830381865afa158015611363573d6000803e3d6000fd5b505050506040513d6000823e601f3d908101601f1916820160405261138b91908101906129a8565b91945090925090505b60608601511561141557848487606001518584866040518563ffffffff1660e01b81526004016113c7949392919061295e565b600060405180830381865afa1580156113e4573d6000803e3d6000fd5b505050506040513d6000823e601f3d908101601f1916820160405261140c91908101906129a8565b91945090925090505b93509350939050565b606060405180610100016040528060d28152602001612e9f60d291398260405160200161144c929190612a39565b6040516020818303038152906040529050919050565b606060006114fb60008001805461147890612924565b80601f01602080910402602001604051908101604052809291908181526020018280546114a490612924565b80156114f15780601f106114c6576101008083540402835291602001916114f1565b820191906000526020600020905b8154815290600101906020018083116114d457829003601f168201915b5050505050611531565b905060006115088261022b565b90508060405160200161151b9190612a79565b6040516020818303038152906040529250505090565b8051604080516111948082526111c0820190925260609291600091906020820181803683370190505090506000611569600584612615565b905060005b81811015611779576000611583826005612ae3565b90506000878281518110611599576115996125d3565b016020015160f81c90506000886115b184600161263d565b815181106115c1576115c16125d3565b016020015160f81c9050600060ff83166115dc83601e612ae3565b6115e6919061263d565b6115f1906005612ae3565b9050898481518110611605576116056125d3565b602001015160f81c60f81b878281518110611622576116226125d3565b60200101906001600160f81b031916908160001a90535089846001018151811061164e5761164e6125d3565b602001015160f81c60f81b87826001018151811061166e5761166e6125d3565b60200101906001600160f81b031916908160001a90535089846002018151811061169a5761169a6125d3565b602001015160f81c60f81b8782600201815181106116ba576116ba6125d3565b60200101906001600160f81b031916908160001a9053508984600301815181106116e6576116e66125d3565b602001015160f81c60f81b878260030181518110611706576117066125d3565b60200101906001600160f81b031916908160001a905350898460040181518110611732576117326125d3565b602001015160f81c60f81b878260040181518110611752576117526125d3565b60200101906001600160f81b031916908160001a905350506001909301925061156e915050565b5090949350505050565b6060600061179083611531565b9050600061179d8261022b565b9050806040516020016117b09190612afa565b60405160208183030381529060405292505050919050565b60608060608660200151156118e75760a08701516040516301be83d160e11b81526118649173__$4987fe9f4e800c5c4c1535f64ed232842a$__9163037d07a291611815916004016127f4565b600060405180830381865af4158015611832573d6000803e3d6000fd5b505050506040513d6000823e601f3d908101601f1916820160405261185a919081019061286c565b8760200151611c08565b6118926040518060400160405280600781526020016621b932b0ba37b960c91b815250886101000151611c08565b6118bf6040518060400160405280600681526020016529b2b0b9b7b760d11b815250896101200151611c08565b6040516020016118d193929190612b3f565b6040516020818303038152906040529050611938565b6040518060400160405280600f81526020016e2261747472696275746573223a5b5d60881b81525090506040518060400160405280600b81526020016a1e39bb339f1e17b9bb339f60a91b81525093505b611962858560405160200161194e929190612789565b60405160208183030381529060405261141e565b9150600061196f83611c35565b60405160200161197f9190612bc2565b6040516020818303038152906040529050600061199b8a611c43565b83836040516020016119af93929190612c1e565b60405160208183030381529060405290506119c981611c35565b6040516020016119d99190612cd9565b60405160208183030381529060405294505050505095945050505050565b606080606080606080611a0b888d89611aa6565b8c519095509193509150600003611a2a57819550829450809350611a97565b8a82604051602001611a3d929190612789565b60405160208183030381529060405295508983604051602001611a619291906127b8565b60405160208183030381529060405294508881604051602001611a85929190612789565b60405160208183030381529060405293505b50505096509650969350505050565b606080606085602001518015611abc5750600085115b15611b6b57611ace8460800151611783565b9250611b5d73__$4987fe9f4e800c5c4c1535f64ed232842a$__63037d07a286604001516040518263ffffffff1660e01b8152600401611b0e91906127f4565b600060405180830381865af4158015611b2b573d6000803e3d6000fd5b505050506040513d6000823e601f3d908101601f19168201604052611b53919081019061286c565b8560200151611c08565b90508360a001519150611415565b6040518060400160405280600b81526020016a1e39bb339f1e17b9bb339f60a91b8152509250604051806040016040528060028152602001617b7d60f01b815250905060405180602001604052806000815250915093509350939050565b6000611bd58382612d6e565b506001611be28282612d6e565b505050565b606060405180610100016040528060d28152602001612e9f60d29139905090565b60608282604051602001611c1d929190612e2d565b60405160208183030381529060405290505b92915050565b6060611c2f82600080611c87565b60606080604051019050602081016040526000815280600019835b928101926030600a8206018453600a900480611c5e575050819003601f19909101908152919050565b606083518015611d67576003600282010460021b60405192507f4142434445464748494a4b4c4d4e4f505152535455565758595a616263646566601f526106708515027f6768696a6b6c6d6e6f707172737475767778797a303132333435363738392d5f18603f52602083018181015b6003880197508751603f8160121c1651600053603f81600c1c1651600153603f8160061c1651600253603f811651600353506000518252600482019150808210611cf757602001604052613d3d60f01b600384066002048083039190915260008615159091029182900352900382525b509392505050565b634e487b7160e01b600052604160045260246000fd5b60405161014081016001600160401b0381118282101715611da857611da8611d6f565b60405290565b60405161018081016001600160401b0381118282101715611da857611da8611d6f565b604051601f8201601f191681016001600160401b0381118282101715611df957611df9611d6f565b604052919050565b60006001600160401b03821115611e1a57611e1a611d6f565b50601f01601f191660200190565b600082601f830112611e3957600080fd5b8135611e4c611e4782611e01565b611dd1565b818152846020838601011115611e6157600080fd5b816020850160208301376000918101602001919091529392505050565b600060208284031215611e9057600080fd5b81356001600160401b03811115611ea657600080fd5b611eb284828501611e28565b949350505050565b60005b83811015611ed5578181015183820152602001611ebd565b50506000910152565b60008151808452611ef6816020860160208601611eba565b601f01601f19169290920160200192915050565b602081526000611f1d6020830184611ede565b9392505050565b80358015158114611f3457600080fd5b919050565b80356001600160a01b0381168114611f3457600080fd5b803560088110611f3457600080fd5b600060c08284031215611f7157600080fd5b60405160c081018181106001600160401b0382111715611f9357611f93611d6f565b60405282358152905080611fa960208401611f24565b602082015260408301356040820152611fc460608401611f39565b606082015260808301356080820152611fdf60a08401611f50565b60a08201525092915050565b60006101408284031215611ffe57600080fd5b612006611d85565b90508135815260208201356001600160401b038082111561202657600080fd5b61203285838601611e28565b602084015261204360408501611f50565b6040840152606084013591508082111561205c57600080fd5b61206885838601611e28565b6060840152608084013591508082111561208157600080fd5b61208d85838601611e28565b608084015260a08401359150808211156120a657600080fd5b6120b285838601611e28565b60a08401526120c360c08501611f39565b60c08401526120d460e08501611f39565b60e0840152610100915081840135818111156120ef57600080fd5b6120fb86828701611e28565b83850152506101209150818401358181111561211657600080fd5b61212286828701611e28565b8385015250505092915050565b6000806000806000610140868803121561214857600080fd5b8535945060208601356001600160401b038082111561216657600080fd5b61217289838a01611e28565b9550604088013591508082111561218857600080fd5b61219489838a01611e28565b94506121a38960608a01611f5f565b93506101208801359150808211156121ba57600080fd5b506121c788828901611feb565b9150509295509295909350565b6040815260006121e76040830185611ede565b82810360208401526121f98185611ede565b95945050505050565b6000806000610100848603121561221857600080fd5b6122228585611f5f565b925060c0840135915060e08401356001600160401b0381111561224457600080fd5b61225086828701611feb565b9150509250925092565b803563ffffffff81168114611f3457600080fd5b803560ff81168114611f3457600080fd5b6000610180828403121561229257600080fd5b61229a611dae565b9050813581526020820135602082015260408201356040820152606082013560608201526080820135608082015260a082013560a082015260c082013560c08201526122e860e0830161225a565b60e0820152610100828101359082015261012061230681840161226e565b90820152610140828101356001600160401b0381111561232557600080fd5b61233185828601611e28565b828401525050610160612345818401611f24565b9082015292915050565b67ffffffffffffffff198116811461236657600080fd5b50565b60008060006040848603121561237e57600080fd5b83356001600160401b0381111561239457600080fd5b6123a08682870161227f565b93505060208401356123b18161234f565b9295606084901c955060409390931c63ffffffff1693505050565b6060815260006123df6060830186611ede565b82810360208401526123f18186611ede565b905082810360408401526124058185611ede565b9695505050505050565b6000806000806000610140868803121561242857600080fd5b853594506124398760208801611f5f565b935060e08601356001600160401b038082111561245557600080fd5b61246189838a01611feb565b945061010088013591508082111561247857600080fd5b61248489838a01611e28565b935061012088013591508082111561249b57600080fd5b506121c788828901611e28565b60008060008060008061016087890312156124c257600080fd5b8635955060208701356001600160401b03808211156124e057600080fd5b6124ec8a838b01611e28565b9650604089013591508082111561250257600080fd5b61250e8a838b01611e28565b9550606089013591508082111561252457600080fd5b6125308a838b01611e28565b945061253f8a60808b01611f5f565b935061014089013591508082111561255657600080fd5b5061256389828a01611feb565b9150509295509295509295565b6000806040838503121561258357600080fd5b82356001600160401b038082111561259a57600080fd5b6125a686838701611e28565b935060208501359150808211156125bc57600080fd5b506125c985828601611e28565b9150509250929050565b634e487b7160e01b600052603260045260246000fd5b634e487b7160e01b600052601260045260246000fd5b634e487b7160e01b600052601160045260246000fd5b600082612624576126246125e9565b500490565b600082612638576126386125e9565b500690565b80820180821115611c2f57611c2f6125ff565b6000875160206126638285838d01611eba565b8851918401916126768184848d01611eba565b88519201916126888184848c01611eba565b875192019161269a8184848b01611eba565b86519201916126ac8184848a01611eba565b85519201916126be8184848901611eba565b919091019998505050505050505050565b600085516126e1818460208a01611eba565b681e3932b1ba103c1e9160b91b9083019081528551612707816009840160208a01611eba565b6411103c9e9160d91b60099290910191820152845161272d81600e840160208901611eba565b7f222077696474683d223122206865696768743d2231222066696c6c3d22230000600e9290910191820152835161276b81602c840160208801611eba565b6211179f60e91b602c9290910191820152602f019695505050505050565b6000835161279b818460208801611eba565b8351908301906127af818360208801611eba565b01949350505050565b600083516127ca818460208801611eba565b600b60fa1b90830190815283516127e8816001840160208801611eba565b01600101949350505050565b602081016008831061281657634e487b7160e01b600052602160045260246000fd5b91905290565b600061282a611e4784611e01565b905082815283838301111561283e57600080fd5b611f1d836020830184611eba565b600082601f83011261285d57600080fd5b611f1d8383516020850161281c565b60006020828403121561287e57600080fd5b81516001600160401b0381111561289457600080fd5b611eb28482850161284c565b8381526060602082015260006128b96060830185611ede565b82810360408401526124058185611ede565b600080604083850312156128de57600080fd5b82516001600160401b03808211156128f557600080fd5b6129018683870161284c565b9350602085015191508082111561291757600080fd5b506125c98582860161284c565b600181811c9082168061293857607f821691505b60208210810361295857634e487b7160e01b600052602260045260246000fd5b50919050565b8481526080602082015260006129776080830186611ede565b82810360408401526129898186611ede565b9050828103606084015261299d8185611ede565b979650505050505050565b6000806000606084860312156129bd57600080fd5b83516001600160401b03808211156129d457600080fd5b6129e08783880161284c565b945060208601519150808211156129f657600080fd5b612a028783880161284c565b93506040860151915080821115612a1857600080fd5b508401601f81018613612a2a57600080fd5b6122508682516020840161281c565b60008351612a4b818460208801611eba565b835190830190612a5f818360208801611eba565b651e17b9bb339f60d11b9101908152600601949350505050565b7f3c672069643d2267686f73742220636c6173733d226722207374796c653d226f81526d3830b1b4ba3c9d101a98129d911f60911b602082015260008251612ac881602e850160208701611eba565b631e17b39f60e11b602e939091019283015250603201919050565b8082028115828204841417611c2f57611c2f6125ff565b6d1e339034b21e912a3930b4ba111f60911b81528151600090612b2481600e850160208701611eba565b631e17b39f60e11b600e939091019283015250601201919050565b6d2261747472696275746573223a5b60901b81528351600090612b6981600e850160208901611eba565b8083019050600b60fa1b80600e8301528551612b8c81600f850160208a01611eba565b600f9201918201528351612ba7816010840160208801611eba565b605d60f81b6010929091019182015260110195945050505050565b7f22696d616765223a22646174613a696d6167652f7376672b786d6c3b626173658152620d8d0b60ea1b602082015260008251612c06816023850160208701611eba565b601160f91b6023939091019283015250602401919050565b757b226e616d65223a225065746572205472616974202360501b81528351600090612c50816016850160208901611eba565b7f222c226465736372697074696f6e223a2254686973206973206a757374206120601691840191820152651d195cdd088b60d21b60368201528451612c9c81603c840160208901611eba565b600b60fa1b603c92909101918201528351612cbe81603d840160208801611eba565b607d60f81b603d9290910191820152603e0195945050505050565b7f646174613a6170706c69636174696f6e2f6a736f6e3b6261736536342c000000815260008251612d1181601d850160208701611eba565b91909101601d0192915050565b601f821115611be2576000816000526020600020601f850160051c81016020861015612d475750805b601f850160051c820191505b81811015612d6657828155600101612d53565b505050505050565b81516001600160401b03811115612d8757612d87611d6f565b612d9b81612d958454612924565b84612d1e565b602080601f831160018114612dd05760008415612db85750858301515b600019600386901b1c1916600185901b178555612d66565b600085815260208120601f198616915b82811015612dff57888601518255948401946001909101908401612de0565b5085821015612e1d5787850151600019600388901b60f8161c191681555b5050505050600190811b01905550565b6e3d913a3930b4ba2fba3cb832911d1160891b81528251600090612e5881600f850160208801611eba565b6a1116113b30b63ab2911d1160a91b600f918401918201528351612e8381601a840160208801611eba565b61227d60f01b601a9290910191820152601c0194935050505056fe3c7376672073686170652d72656e646572696e673d2263726973704564676573222076696577426f783d22302030203330203330222066696c6c3d226e6f6e652220786d6c6e733d22687474703a2f2f7777772e77332e6f72672f323030302f737667223e3c7374796c653e726563747b77696474683a3170783b206865696768743a203170783b7d202e62677b77696474683a333070783b206865696768743a20333070783b7d203c2f7374796c653e3c7265637420636c6173733d226267222066696c6c3d2223304436453944222f3ea2646970667358221220bc6c8314ed993ea6ace252cc9d85b25ee8f90a62b9c5a6df24f2a0ce2d08694d64736f6c63430008160033","linkReferences":{"src/TraitCategory.sol":{"TraitCategory":[{"start":28175,"length":20},{"start":31449,"length":20},{"start":32191,"length":20}]}}},"methodIdentifiers":{"addApprovedInvalidator(address)":"f677c013","addMinter(address)":"983b2d56","approve(address,uint256)":"095ea7b3","approvedInvalidators(address)":"b3148f75","balanceOf(address)":"70a08231","burn(uint256)":"42966c68","burnBatch(uint256[])":"e4623c1b","callGetSVGZmapAndMetadataTrait(uint256,string,string,bytes)":"f1271942","callGetSvgAndMetadataTrait(uint256,string,string)":"e08714a6","cancelOwnershipHandover()":"54d1f13d","completeOwnershipHandover(address)":"f04e283e","createSvgFromPixels(bytes)":"21b12c23","getApproved(uint256)":"081812fc","getApprovedOperators(uint256)":"00db6348","getApprovedOperatorsLength(uint256)":"c1ff78be","getCurrentEpoch()":"b97dd9e2","getEpoch()":"757991a8","getEpochData(uint256)":"859e7d32","getGhostSvg()":"5c1ef256","getSVGZmapAndMetadataTrait((uint256,bool,uint256,address,uint256,uint8),uint256)":"f901667f","getStoredTraitForTokenId(uint256)":"208c25a3","getSvgAndMetadata((uint256,uint256,uint256,uint256,uint256,uint256,uint256,uint32,uint256,uint8,string,bool))":"df2c2b88","getSvgAndMetadataTrait((uint256,bool,uint256,address,uint256,uint8),uint256)":"33a70328","getSvgForTokenId(uint256)":"c7791531","getSvgZmapsAndMetadata((uint256,uint256,uint256,uint256,uint256,uint256,uint256,uint32,uint256,uint8,string,bool))":"bb12d21d","getTrait(uint256)":"acb586df","getTraitImageSvg(uint256)":"a5e2912a","getTraitIndexToMetadata(uint256)":"ea139544","getTraitMetadata(uint256)":"d1bfc2af","getTraitType(uint256)":"e8a1268d","getZMapForTokenId(uint256)":"a8498c74","invalidateAllOperatorApprovals(uint256)":"90f63842","isApprovedForAll(address,address)":"e985e9c5","isMinter(address)":"aa271e1a","marketplace()":"abc8c7af","name()":"06fdde03","owner()":"8da5cb5b","ownerOf(uint256)":"6352211e","ownershipHandoverExpiresAt(address)":"fee81cf4","petersMain()":"1ca97604","removeApprovedInvalidator(address)":"cde2180a","removeMinter(address)":"3092afd5","renderAsDataUri(uint256)":"a1d62680","renounceOwnership()":"715018a6","requestOwnershipHandover()":"25692962","resolveEpochIfNecessary()":"239ffa68","safeMint(address)":"40d097c3","safeTransferFrom(address,address,uint256)":"42842e0e","safeTransferFrom(address,address,uint256,bytes)":"b88d4fde","setApprovalForAll(address,bool)":"a22cb465","setGhostMaps(bytes,bytes)":"e1defed9","setMarketplace(address)":"73ad6c2d","setPetersMain(address)":"a2c12c94","setTraitForTokenId(uint256,(uint256,bool,uint256,address,uint256,uint8))":"36d34ab9","setTraitIndexToMetadata(uint256,(uint256,string,uint8,string,bytes,bytes,address,address,string,string))":"8d37c537","setTraitRenderer(address)":"120def24","signer()":"238ac933","supportsInterface(bytes4)":"01ffc9a7","symbol()":"95d89b41","tokenByIndex(uint256)":"4f6ccce7","tokenOfOwnerByIndex(address,uint256)":"2f745c59","tokenURI(uint256)":"c87b56dd","totalSupply()":"18160ddd","traitIdToApprovedOperators(uint256,uint256)":"11f3910d","traitIndexToMetadata(uint256)":"817a29a4","traitRenderer()":"c876371b","traitTokens()":"e14d026f","transferFrom(address,address,uint256)":"23b872dd","transferOwnership(address)":"f2fde38b","walletOfOwner(address)":"438b6300"},"id":44}