{"abi":[{"type":"constructor","inputs":[{"name":"localDeploy_","type":"bool","internalType":"bool"}],"stateMutability":"nonpayable"},{"type":"function","name":"approve","inputs":[{"name":"_operator","type":"address","internalType":"address"},{"name":"_tokenId","type":"uint256","internalType":"uint256"}],"outputs":[],"stateMutability":"nonpayable"},{"type":"function","name":"balanceOf","inputs":[{"name":"owner","type":"address","internalType":"address"}],"outputs":[{"name":"","type":"uint256","internalType":"uint256"}],"stateMutability":"view"},{"type":"function","name":"burn","inputs":[{"name":"tokenId","type":"uint256","internalType":"uint256"}],"outputs":[],"stateMutability":"nonpayable"},{"type":"function","name":"burnBatch","inputs":[{"name":"tokenIds","type":"uint256[]","internalType":"uint256[]"}],"outputs":[],"stateMutability":"nonpayable"},{"type":"function","name":"callGetSVGZmapAndMetadataTrait","inputs":[{"name":"_traitId","type":"uint256","internalType":"uint256"},{"name":"_traitsSvg","type":"string","internalType":"string"},{"name":"_traitsAttributes","type":"string","internalType":"string"},{"name":"_traitZMaps","type":"bytes","internalType":"bytes"}],"outputs":[{"name":"traitsSvg","type":"string","internalType":"string"},{"name":"traitsAttributes","type":"string","internalType":"string"},{"name":"traitZMaps","type":"bytes","internalType":"bytes"}],"stateMutability":"view"},{"type":"function","name":"callGetSvgAndMetadataTrait","inputs":[{"name":"_traitId","type":"uint256","internalType":"uint256"},{"name":"_traitsSvg","type":"string","internalType":"string"},{"name":"_traitsAttributes","type":"string","internalType":"string"}],"outputs":[{"name":"traitsSvg","type":"string","internalType":"string"},{"name":"traitsAttributes","type":"string","internalType":"string"}],"stateMutability":"view"},{"type":"function","name":"cancelOwnershipHandover","inputs":[],"outputs":[],"stateMutability":"payable"},{"type":"function","name":"completeOwnershipHandover","inputs":[{"name":"pendingOwner","type":"address","internalType":"address"}],"outputs":[],"stateMutability":"payable"},{"type":"function","name":"createSvgFromPixels","inputs":[{"name":"_pixels","type":"bytes","internalType":"bytes"}],"outputs":[{"name":"svgParts","type":"bytes","internalType":"bytes"}],"stateMutability":"pure"},{"type":"function","name":"getApproved","inputs":[{"name":"tokenId","type":"uint256","internalType":"uint256"}],"outputs":[{"name":"","type":"address","internalType":"address"}],"stateMutability":"view"},{"type":"function","name":"getApprovedOperators","inputs":[{"name":"traitId","type":"uint256","internalType":"uint256"}],"outputs":[{"name":"","type":"address[]","internalType":"address[]"}],"stateMutability":"view"},{"type":"function","name":"getApprovedOperatorsLength","inputs":[{"name":"traitId","type":"uint256","internalType":"uint256"}],"outputs":[{"name":"","type":"uint256","internalType":"uint256"}],"stateMutability":"view"},{"type":"function","name":"getCurrentEpoch","inputs":[],"outputs":[{"name":"","type":"uint256","internalType":"uint256"}],"stateMutability":"view"},{"type":"function","name":"getEpoch","inputs":[],"outputs":[{"name":"","type":"uint256","internalType":"uint256"}],"stateMutability":"view"},{"type":"function","name":"getEpochData","inputs":[{"name":"index","type":"uint256","internalType":"uint256"}],"outputs":[{"name":"","type":"tuple","internalType":"struct CommitReveal.Epoch","components":[{"name":"randomness","type":"uint128","internalType":"uint128"},{"name":"revealBlock","type":"uint64","internalType":"uint64"},{"name":"committed","type":"bool","internalType":"bool"},{"name":"revealed","type":"bool","internalType":"bool"}]}],"stateMutability":"view"},{"type":"function","name":"getGhostSvg","inputs":[],"outputs":[{"name":"svg","type":"string","internalType":"string"}],"stateMutability":"view"},{"type":"function","name":"getSVGZmapAndMetadataTrait","inputs":[{"name":"trait","type":"tuple","internalType":"struct ITraitStorage.StoredTrait","components":[{"name":"epoch","type":"uint256","internalType":"uint256"},{"name":"isRevealed","type":"bool","internalType":"bool"},{"name":"seed","type":"uint256","internalType":"uint256"},{"name":"renderMinterContract","type":"address","internalType":"address"},{"name":"traitIndex","type":"uint256","internalType":"uint256"},{"name":"traitType","type":"uint8","internalType":"enum TraitCategory.Name"}]},{"name":"traitId","type":"uint256","internalType":"uint256"}],"outputs":[{"name":"traitSvg","type":"string","internalType":"string"},{"name":"traitZmap","type":"bytes","internalType":"bytes"},{"name":"traitAttributes","type":"string","internalType":"string"}],"stateMutability":"view"},{"type":"function","name":"getStoredTraitForTokenId","inputs":[{"name":"_tokenId","type":"uint256","internalType":"uint256"}],"outputs":[{"name":"","type":"tuple","internalType":"struct ITraitStorage.StoredTrait","components":[{"name":"epoch","type":"uint256","internalType":"uint256"},{"name":"isRevealed","type":"bool","internalType":"bool"},{"name":"seed","type":"uint256","internalType":"uint256"},{"name":"renderMinterContract","type":"address","internalType":"address"},{"name":"traitIndex","type":"uint256","internalType":"uint256"},{"name":"traitType","type":"uint8","internalType":"enum TraitCategory.Name"}]}],"stateMutability":"view"},{"type":"function","name":"getSvgAndMetadata","inputs":[{"name":"storedPeter","type":"tuple","internalType":"struct IPeterStorage.StoredPeter","components":[{"name":"headId","type":"uint256","internalType":"uint256"},{"name":"hairId","type":"uint256","internalType":"uint256"},{"name":"faceId","type":"uint256","internalType":"uint256"},{"name":"accessoryId","type":"uint256","internalType":"uint256"},{"name":"topId","type":"uint256","internalType":"uint256"},{"name":"bottomId","type":"uint256","internalType":"uint256"},{"name":"shoesId","type":"uint256","internalType":"uint256"},{"name":"epoch","type":"uint32","internalType":"uint32"},{"name":"tokenId","type":"uint256","internalType":"uint256"},{"name":"bodyIndex","type":"uint8","internalType":"uint8"},{"name":"backgroundColor","type":"string","internalType":"string"},{"name":"renderZ","type":"bool","internalType":"bool"}]}],"outputs":[{"name":"traitsSvg","type":"string","internalType":"string"},{"name":"traitsAttributes","type":"string","internalType":"string"}],"stateMutability":"view"},{"type":"function","name":"getSvgAndMetadataTrait","inputs":[{"name":"trait","type":"tuple","internalType":"struct ITraitStorage.StoredTrait","components":[{"name":"epoch","type":"uint256","internalType":"uint256"},{"name":"isRevealed","type":"bool","internalType":"bool"},{"name":"seed","type":"uint256","internalType":"uint256"},{"name":"renderMinterContract","type":"address","internalType":"address"},{"name":"traitIndex","type":"uint256","internalType":"uint256"},{"name":"traitType","type":"uint8","internalType":"enum TraitCategory.Name"}]},{"name":"traitId","type":"uint256","internalType":"uint256"}],"outputs":[{"name":"traitSvg","type":"string","internalType":"string"},{"name":"traitAttributes","type":"string","internalType":"string"}],"stateMutability":"view"},{"type":"function","name":"getSvgForTokenId","inputs":[{"name":"_tokenId","type":"uint256","internalType":"uint256"}],"outputs":[{"name":"traitSvg","type":"string","internalType":"string"}],"stateMutability":"view"},{"type":"function","name":"getSvgZmapsAndMetadata","inputs":[{"name":"storedPeter","type":"tuple","internalType":"struct IPeterStorage.StoredPeter","components":[{"name":"headId","type":"uint256","internalType":"uint256"},{"name":"hairId","type":"uint256","internalType":"uint256"},{"name":"faceId","type":"uint256","internalType":"uint256"},{"name":"accessoryId","type":"uint256","internalType":"uint256"},{"name":"topId","type":"uint256","internalType":"uint256"},{"name":"bottomId","type":"uint256","internalType":"uint256"},{"name":"shoesId","type":"uint256","internalType":"uint256"},{"name":"epoch","type":"uint32","internalType":"uint32"},{"name":"tokenId","type":"uint256","internalType":"uint256"},{"name":"bodyIndex","type":"uint8","internalType":"uint8"},{"name":"backgroundColor","type":"string","internalType":"string"},{"name":"renderZ","type":"bool","internalType":"bool"}]}],"outputs":[{"name":"traitsSvg","type":"string","internalType":"string"},{"name":"traitZMaps","type":"bytes","internalType":"bytes"},{"name":"traitsAttributes","type":"string","internalType":"string"}],"stateMutability":"view"},{"type":"function","name":"getTrait","inputs":[{"name":"_tokenId","type":"uint256","internalType":"uint256"}],"outputs":[{"name":"","type":"tuple","internalType":"struct ITraitStorage.StoredTrait","components":[{"name":"epoch","type":"uint256","internalType":"uint256"},{"name":"isRevealed","type":"bool","internalType":"bool"},{"name":"seed","type":"uint256","internalType":"uint256"},{"name":"renderMinterContract","type":"address","internalType":"address"},{"name":"traitIndex","type":"uint256","internalType":"uint256"},{"name":"traitType","type":"uint8","internalType":"enum TraitCategory.Name"}]}],"stateMutability":"view"},{"type":"function","name":"getTraitImage","inputs":[{"name":"colorMap","type":"bytes","internalType":"bytes"}],"outputs":[{"name":"","type":"bytes","internalType":"bytes"}],"stateMutability":"pure"},{"type":"function","name":"getTraitImageSvg","inputs":[{"name":"index","type":"uint256","internalType":"uint256"}],"outputs":[{"name":"svg","type":"string","internalType":"string"}],"stateMutability":"view"},{"type":"function","name":"getTraitIndexToMetadata","inputs":[{"name":"_traitIndex","type":"uint256","internalType":"uint256"}],"outputs":[{"name":"","type":"tuple","internalType":"struct ITraitStorage.TraitMetadata","components":[{"name":"traitIndex","type":"uint256","internalType":"uint256"},{"name":"traitName","type":"string","internalType":"string"},{"name":"traitType","type":"uint8","internalType":"enum TraitCategory.Name"},{"name":"animations","type":"string","internalType":"string"},{"name":"colorMap","type":"bytes","internalType":"bytes"},{"name":"zMap","type":"bytes","internalType":"bytes"},{"name":"renderMinterContract","type":"address","internalType":"address"},{"name":"creatorAddress","type":"address","internalType":"address"},{"name":"creatorName","type":"string","internalType":"string"},{"name":"season","type":"string","internalType":"string"}]}],"stateMutability":"view"},{"type":"function","name":"getTraitMetadata","inputs":[{"name":"_tokenId","type":"uint256","internalType":"uint256"}],"outputs":[{"name":"","type":"tuple","internalType":"struct ITraitStorage.TraitMetadata","components":[{"name":"traitIndex","type":"uint256","internalType":"uint256"},{"name":"traitName","type":"string","internalType":"string"},{"name":"traitType","type":"uint8","internalType":"enum TraitCategory.Name"},{"name":"animations","type":"string","internalType":"string"},{"name":"colorMap","type":"bytes","internalType":"bytes"},{"name":"zMap","type":"bytes","internalType":"bytes"},{"name":"renderMinterContract","type":"address","internalType":"address"},{"name":"creatorAddress","type":"address","internalType":"address"},{"name":"creatorName","type":"string","internalType":"string"},{"name":"season","type":"string","internalType":"string"}]}],"stateMutability":"view"},{"type":"function","name":"getTraitType","inputs":[{"name":"_tokenId","type":"uint256","internalType":"uint256"}],"outputs":[{"name":"","type":"uint8","internalType":"enum TraitCategory.Name"}],"stateMutability":"view"},{"type":"function","name":"getZMapForTokenId","inputs":[{"name":"_tokenId","type":"uint256","internalType":"uint256"}],"outputs":[{"name":"","type":"string","internalType":"string"}],"stateMutability":"view"},{"type":"function","name":"ghost","inputs":[],"outputs":[{"name":"colorMap","type":"bytes","internalType":"bytes"},{"name":"zMap","type":"bytes","internalType":"bytes"}],"stateMutability":"view"},{"type":"function","name":"invalidateAllOperatorApprovals","inputs":[{"name":"_tokenId","type":"uint256","internalType":"uint256"}],"outputs":[],"stateMutability":"nonpayable"},{"type":"function","name":"isApprovedForAll","inputs":[{"name":"owner","type":"address","internalType":"address"},{"name":"operator","type":"address","internalType":"address"}],"outputs":[{"name":"","type":"bool","internalType":"bool"}],"stateMutability":"view"},{"type":"function","name":"isMinter","inputs":[{"name":"","type":"address","internalType":"address"}],"outputs":[{"name":"","type":"bool","internalType":"bool"}],"stateMutability":"view"},{"type":"function","name":"marketplace","inputs":[],"outputs":[{"name":"","type":"address","internalType":"contract ChonksMarket"}],"stateMutability":"view"},{"type":"function","name":"minter","inputs":[],"outputs":[{"name":"","type":"address","internalType":"address"}],"stateMutability":"view"},{"type":"function","name":"name","inputs":[],"outputs":[{"name":"","type":"string","internalType":"string"}],"stateMutability":"view"},{"type":"function","name":"onERC721Received","inputs":[{"name":"","type":"address","internalType":"address"},{"name":"","type":"address","internalType":"address"},{"name":"","type":"uint256","internalType":"uint256"},{"name":"","type":"bytes","internalType":"bytes"}],"outputs":[{"name":"","type":"bytes4","internalType":"bytes4"}],"stateMutability":"pure"},{"type":"function","name":"owner","inputs":[],"outputs":[{"name":"result","type":"address","internalType":"address"}],"stateMutability":"view"},{"type":"function","name":"ownerOf","inputs":[{"name":"tokenId","type":"uint256","internalType":"uint256"}],"outputs":[{"name":"","type":"address","internalType":"address"}],"stateMutability":"view"},{"type":"function","name":"ownershipHandoverExpiresAt","inputs":[{"name":"pendingOwner","type":"address","internalType":"address"}],"outputs":[{"name":"result","type":"uint256","internalType":"uint256"}],"stateMutability":"view"},{"type":"function","name":"petersMain","inputs":[],"outputs":[{"name":"","type":"address","internalType":"contract PetersMain"}],"stateMutability":"view"},{"type":"function","name":"renderAsDataUri","inputs":[{"name":"_tokenId","type":"uint256","internalType":"uint256"}],"outputs":[{"name":"","type":"string","internalType":"string"}],"stateMutability":"view"},{"type":"function","name":"renounceOwnership","inputs":[],"outputs":[],"stateMutability":"payable"},{"type":"function","name":"requestOwnershipHandover","inputs":[],"outputs":[],"stateMutability":"payable"},{"type":"function","name":"resolveEpochIfNecessary","inputs":[],"outputs":[],"stateMutability":"nonpayable"},{"type":"function","name":"safeMint","inputs":[{"name":"_to","type":"address","internalType":"address"}],"outputs":[{"name":"","type":"uint256","internalType":"uint256"}],"stateMutability":"nonpayable"},{"type":"function","name":"safeTransferFrom","inputs":[{"name":"from","type":"address","internalType":"address"},{"name":"to","type":"address","internalType":"address"},{"name":"tokenId","type":"uint256","internalType":"uint256"}],"outputs":[],"stateMutability":"nonpayable"},{"type":"function","name":"safeTransferFrom","inputs":[{"name":"from","type":"address","internalType":"address"},{"name":"to","type":"address","internalType":"address"},{"name":"tokenId","type":"uint256","internalType":"uint256"},{"name":"data","type":"bytes","internalType":"bytes"}],"outputs":[],"stateMutability":"nonpayable"},{"type":"function","name":"setApprovalForAll","inputs":[{"name":"_operator","type":"address","internalType":"address"},{"name":"_approved","type":"bool","internalType":"bool"}],"outputs":[],"stateMutability":"nonpayable"},{"type":"function","name":"setGhostMaps","inputs":[{"name":"_colorMap","type":"bytes","internalType":"bytes"},{"name":"_zMap","type":"bytes","internalType":"bytes"}],"outputs":[],"stateMutability":"nonpayable"},{"type":"function","name":"setMarketplace","inputs":[{"name":"_marketplace","type":"address","internalType":"address"}],"outputs":[],"stateMutability":"nonpayable"},{"type":"function","name":"setPetersMain","inputs":[{"name":"_petersMain","type":"address","internalType":"address"}],"outputs":[],"stateMutability":"nonpayable"},{"type":"function","name":"setTraitForTokenId","inputs":[{"name":"_tokenId","type":"uint256","internalType":"uint256"},{"name":"_trait","type":"tuple","internalType":"struct ITraitStorage.StoredTrait","components":[{"name":"epoch","type":"uint256","internalType":"uint256"},{"name":"isRevealed","type":"bool","internalType":"bool"},{"name":"seed","type":"uint256","internalType":"uint256"},{"name":"renderMinterContract","type":"address","internalType":"address"},{"name":"traitIndex","type":"uint256","internalType":"uint256"},{"name":"traitType","type":"uint8","internalType":"enum TraitCategory.Name"}]}],"outputs":[],"stateMutability":"nonpayable"},{"type":"function","name":"setTraitIndexToMetadata","inputs":[{"name":"_traitIndex","type":"uint256","internalType":"uint256"},{"name":"_metadata","type":"tuple","internalType":"struct ITraitStorage.TraitMetadata","components":[{"name":"traitIndex","type":"uint256","internalType":"uint256"},{"name":"traitName","type":"string","internalType":"string"},{"name":"traitType","type":"uint8","internalType":"enum TraitCategory.Name"},{"name":"animations","type":"string","internalType":"string"},{"name":"colorMap","type":"bytes","internalType":"bytes"},{"name":"zMap","type":"bytes","internalType":"bytes"},{"name":"renderMinterContract","type":"address","internalType":"address"},{"name":"creatorAddress","type":"address","internalType":"address"},{"name":"creatorName","type":"string","internalType":"string"},{"name":"season","type":"string","internalType":"string"}]}],"outputs":[],"stateMutability":"nonpayable"},{"type":"function","name":"signer","inputs":[],"outputs":[{"name":"","type":"address","internalType":"address"}],"stateMutability":"view"},{"type":"function","name":"supportsInterface","inputs":[{"name":"interfaceId","type":"bytes4","internalType":"bytes4"}],"outputs":[{"name":"","type":"bool","internalType":"bool"}],"stateMutability":"view"},{"type":"function","name":"symbol","inputs":[],"outputs":[{"name":"","type":"string","internalType":"string"}],"stateMutability":"view"},{"type":"function","name":"tokenByIndex","inputs":[{"name":"index","type":"uint256","internalType":"uint256"}],"outputs":[{"name":"","type":"uint256","internalType":"uint256"}],"stateMutability":"view"},{"type":"function","name":"tokenOfOwnerByIndex","inputs":[{"name":"owner","type":"address","internalType":"address"},{"name":"index","type":"uint256","internalType":"uint256"}],"outputs":[{"name":"","type":"uint256","internalType":"uint256"}],"stateMutability":"view"},{"type":"function","name":"tokenURI","inputs":[{"name":"_tokenId","type":"uint256","internalType":"uint256"}],"outputs":[{"name":"","type":"string","internalType":"string"}],"stateMutability":"view"},{"type":"function","name":"totalSupply","inputs":[],"outputs":[{"name":"","type":"uint256","internalType":"uint256"}],"stateMutability":"view"},{"type":"function","name":"traitIdToApprovedOperators","inputs":[{"name":"traitId","type":"uint256","internalType":"uint256"},{"name":"","type":"uint256","internalType":"uint256"}],"outputs":[{"name":"operators","type":"address","internalType":"address"}],"stateMutability":"view"},{"type":"function","name":"traitIndexToMetadata","inputs":[{"name":"","type":"uint256","internalType":"uint256"}],"outputs":[{"name":"traitIndex","type":"uint256","internalType":"uint256"},{"name":"traitName","type":"string","internalType":"string"},{"name":"traitType","type":"uint8","internalType":"enum TraitCategory.Name"},{"name":"animations","type":"string","internalType":"string"},{"name":"colorMap","type":"bytes","internalType":"bytes"},{"name":"zMap","type":"bytes","internalType":"bytes"},{"name":"renderMinterContract","type":"address","internalType":"address"},{"name":"creatorAddress","type":"address","internalType":"address"},{"name":"creatorName","type":"string","internalType":"string"},{"name":"season","type":"string","internalType":"string"}],"stateMutability":"view"},{"type":"function","name":"traitTokens","inputs":[],"outputs":[{"name":"epoch","type":"uint256","internalType":"uint256"}],"stateMutability":"view"},{"type":"function","name":"transferFrom","inputs":[{"name":"from","type":"address","internalType":"address"},{"name":"to","type":"address","internalType":"address"},{"name":"tokenId","type":"uint256","internalType":"uint256"}],"outputs":[],"stateMutability":"nonpayable"},{"type":"function","name":"transferOwnership","inputs":[{"name":"newOwner","type":"address","internalType":"address"}],"outputs":[],"stateMutability":"payable"},{"type":"function","name":"walletOfOwner","inputs":[{"name":"_owner","type":"address","internalType":"address"}],"outputs":[{"name":"","type":"uint256[]","internalType":"uint256[]"}],"stateMutability":"view"},{"type":"event","name":"AllOperatorApprovalsInvalidated","inputs":[{"name":"tokenId","type":"uint256","indexed":true,"internalType":"uint256"}],"anonymous":false},{"type":"event","name":"Approval","inputs":[{"name":"owner","type":"address","indexed":true,"internalType":"address"},{"name":"approved","type":"address","indexed":true,"internalType":"address"},{"name":"tokenId","type":"uint256","indexed":true,"internalType":"uint256"}],"anonymous":false},{"type":"event","name":"ApprovalForAll","inputs":[{"name":"owner","type":"address","indexed":true,"internalType":"address"},{"name":"operator","type":"address","indexed":true,"internalType":"address"},{"name":"approved","type":"bool","indexed":false,"internalType":"bool"}],"anonymous":false},{"type":"event","name":"BatchMetadataUpdate","inputs":[{"name":"_fromTokenId","type":"uint256","indexed":false,"internalType":"uint256"},{"name":"_toTokenId","type":"uint256","indexed":false,"internalType":"uint256"}],"anonymous":false},{"type":"event","name":"MetadataUpdate","inputs":[{"name":"_tokenId","type":"uint256","indexed":false,"internalType":"uint256"}],"anonymous":false},{"type":"event","name":"Mint","inputs":[{"name":"owner","type":"address","indexed":true,"internalType":"address"},{"name":"tokenId","type":"uint256","indexed":true,"internalType":"uint256"}],"anonymous":false},{"type":"event","name":"NewEpoch","inputs":[{"name":"epoch","type":"uint256","indexed":true,"internalType":"uint256"},{"name":"revealBlock","type":"uint64","indexed":true,"internalType":"uint64"}],"anonymous":false},{"type":"event","name":"OwnershipHandoverCanceled","inputs":[{"name":"pendingOwner","type":"address","indexed":true,"internalType":"address"}],"anonymous":false},{"type":"event","name":"OwnershipHandoverRequested","inputs":[{"name":"pendingOwner","type":"address","indexed":true,"internalType":"address"}],"anonymous":false},{"type":"event","name":"OwnershipTransferred","inputs":[{"name":"oldOwner","type":"address","indexed":true,"internalType":"address"},{"name":"newOwner","type":"address","indexed":true,"internalType":"address"}],"anonymous":false},{"type":"event","name":"Transfer","inputs":[{"name":"from","type":"address","indexed":true,"internalType":"address"},{"name":"to","type":"address","indexed":true,"internalType":"address"},{"name":"tokenId","type":"uint256","indexed":true,"internalType":"uint256"}],"anonymous":false},{"type":"error","name":"AlreadyInitialized","inputs":[]},{"type":"error","name":"CantTransfer","inputs":[]},{"type":"error","name":"NewOwnerIsZeroAddress","inputs":[]},{"type":"error","name":"NoHandoverRequest","inputs":[]},{"type":"error","name":"NotATBA","inputs":[]},{"type":"error","name":"NotAValidMinterContract","inputs":[]},{"type":"error","name":"NotYourTrait","inputs":[]},{"type":"error","name":"TraitNotFound","inputs":[{"name":"_tokenId","type":"uint256","internalType":"uint256"}]},{"type":"error","name":"TraitTokenDoesntExist","inputs":[]},{"type":"error","name":"Unauthorized","inputs":[]}],"bytecode":{"object":"0x60806040523480156200001157600080fd5b5060405162007aa938038062007aa98339810160408190526200003491620000fa565b6040518060400160405280600b81526020016a506574657254726169747360a81b81525060405180604001604052806003815260200162282a2960e91b8152508160009081620000859190620001cc565b506001620000948282620001cc565b50506001600a5550620000a733620000be565b6017805460ff191691151591909117905562000298565b6001600160a01b0316638b78c6d8198190558060007f8be0079c531659141344cd1fd0a4f28419497f9722a3daafe3b4186f6b6457e08180a350565b6000602082840312156200010d57600080fd5b815180151581146200011e57600080fd5b9392505050565b634e487b7160e01b600052604160045260246000fd5b600181811c908216806200015057607f821691505b6020821081036200017157634e487b7160e01b600052602260045260246000fd5b50919050565b601f821115620001c7576000816000526020600020601f850160051c81016020861015620001a25750805b601f850160051c820191505b81811015620001c357828155600101620001ae565b5050505b505050565b81516001600160401b03811115620001e857620001e862000125565b6200020081620001f984546200013b565b8462000177565b602080601f8311600181146200023857600084156200021f5750858301515b600019600386901b1c1916600185901b178555620001c3565b600085815260208120601f198616915b82811015620002695788860151825594840194600190910190840162000248565b5085821015620002885787850151600019600388901b60f8161c191681555b5050505050600190811b01905550565b61780180620002a86000396000f3fe6080604052600436106103e35760003560e01c8063859e7d3211610208578063c1ff78be11610118578063e4623c1b116100ab578063f04e283e1161007a578063f04e283e14610cd3578063f127194214610ce6578063f2fde38b14610d06578063f901667f14610d19578063fee81cf414610d3957600080fd5b8063e4623c1b14610c1d578063e8a1268d14610c3d578063e985e9c514610c6a578063ea13954414610cb357600080fd5b8063df2c2b88116100e7578063df2c2b8814610ba6578063e08714a614610bc6578063e14d026f14610be6578063e1defed914610bfd57600080fd5b8063c1ff78be14610b0c578063c779153114610b39578063c87b56dd14610b59578063d1bfc2af14610b7957600080fd5b8063a2c12c941161019b578063abc8c7af1161016a578063abc8c7af14610a7d578063acb586df14610a9d578063b88d4fde14610abd578063b97dd9e2146107ed578063bb12d21d14610add57600080fd5b8063a2c12c94146109ed578063a5e2912a14610a0d578063a8498c7414610a2d578063aa271e1a14610a4d57600080fd5b806390f63842116101d757806390f638421461097857806395d89b4114610998578063a1d62680146109ad578063a22cb465146109cd57600080fd5b8063859e7d3214610838578063898aa1171461091f5780638d37c5371461093f5780638da5cb5b1461095f57600080fd5b80632f745c591161030357806351dc71891161029657806370a082311161026557806370a08231146107a5578063715018a6146107c557806373ad6c2d146107cd578063757991a8146107ed578063817a29a41461080257600080fd5b806351dc71891461075357806354d1f13d146107685780635c1ef256146107705780636352211e1461078557600080fd5b806342842e0e116102d257806342842e0e146106c657806342966c68146106e6578063438b6300146107065780634f6ccce71461073357600080fd5b80632f745c591461063857806333a703281461065857806336d34ab91461068657806340d097c3146106a657600080fd5b806318160ddd1161037b578063238ac9331161034a578063238ac933146105db578063239ffa68146105fb57806323b872dd14610610578063256929621461063057600080fd5b806318160ddd1461054f5780631ca976041461056e578063208c25a31461058e57806321b12c23146105bb57600080fd5b8063081812fc116103b7578063081812fc146104a8578063095ea7b3146104c857806311f3910d146104ea578063150b7a021461050a57600080fd5b8062db6348146103e857806301ffc9a71461041e57806306fdde031461044e5780630754617214610470575b600080fd5b3480156103f457600080fd5b50610408610403366004615f65565b610d6c565b6040516104159190615f7e565b60405180910390f35b34801561042a57600080fd5b5061043e610439366004615fe1565b610dd8565b6040519015158152602001610415565b34801561045a57600080fd5b50610463610de9565b6040516104159190616055565b34801561047c57600080fd5b50601054610490906001600160a01b031681565b6040516001600160a01b039091168152602001610415565b3480156104b457600080fd5b506104906104c3366004615f65565b610e7b565b3480156104d457600080fd5b506104e86104e336600461608d565b610ea2565b005b3480156104f657600080fd5b506104906105053660046160b9565b6110cd565b34801561051657600080fd5b506105366105253660046160db565b630a85bd0160e11b95945050505050565b6040516001600160e01b03199091168152602001610415565b34801561055b57600080fd5b506008545b604051908152602001610415565b34801561057a57600080fd5b50601454610490906001600160a01b031681565b34801561059a57600080fd5b506105ae6105a9366004615f65565b611105565b60405161041591906161f9565b3480156105c757600080fd5b506104636105d6366004616338565b6111cd565b3480156105e757600080fd5b50601154610490906001600160a01b031681565b34801561060757600080fd5b506104e8611a16565b34801561061c57600080fd5b506104e861062b36600461636c565b611bf2565b6104e8611c31565b34801561064457600080fd5b5061056061065336600461608d565b611c80565b34801561066457600080fd5b50610678610673366004616451565b611d16565b60405161041592919061647c565b34801561069257600080fd5b506104e86106a13660046164a1565b611ec0565b3480156106b257600080fd5b506105606106c13660046164ce565b611f59565b3480156106d257600080fd5b506104e86106e136600461636c565b6120b5565b3480156106f257600080fd5b506104e8610701366004615f65565b6120d0565b34801561071257600080fd5b506107266107213660046164ce565b6120d9565b60405161041591906164eb565b34801561073f57600080fd5b5061056061074e366004615f65565b612170565b34801561075f57600080fd5b50610678612203565b6104e8612323565b34801561077c57600080fd5b5061046361235f565b34801561079157600080fd5b506104906107a0366004615f65565b61242f565b3480156107b157600080fd5b506105606107c03660046164ce565b61248f565b6104e8612515565b3480156107d957600080fd5b506104e86107e83660046164ce565b612529565b3480156107f957600080fd5b50600c54610560565b34801561080e57600080fd5b5061082261081d366004615f65565b612553565b6040516104159a99989796959493929190616523565b34801561084457600080fd5b506108d6610853366004615f65565b6040805160808082018352600080835260208084018290528385018290526060938401829052948152600d855283902083519182018452546001600160801b03811682526001600160401b03600160801b8204169482019490945260ff600160c01b85048116151593820193909352600160c81b90930490911615159082015290565b604051610415919081516001600160801b031681526020808301516001600160401b03169082015260408083015115159082015260609182015115159181019190915260800190565b34801561092b57600080fd5b5061046361093a366004616338565b6128eb565b34801561094b57600080fd5b506104e861095a3660046165d8565b612b3d565b34801561096b57600080fd5b50638b78c6d81954610490565b34801561098457600080fd5b506104e8610993366004615f65565b612c3c565b3480156109a457600080fd5b50610463612deb565b3480156109b957600080fd5b506104636109c8366004615f65565b612dfa565b3480156109d957600080fd5b506104e86109e8366004616746565b613459565b3480156109f957600080fd5b506104e8610a083660046164ce565b6136ca565b348015610a1957600080fd5b50610463610a28366004615f65565b6136f4565b348015610a3957600080fd5b50610463610a48366004615f65565b613750565b348015610a5957600080fd5b5061043e610a683660046164ce565b60166020526000908152604090205460ff1681565b348015610a8957600080fd5b50601554610490906001600160a01b031681565b348015610aa957600080fd5b506105ae610ab8366004615f65565b613808565b348015610ac957600080fd5b506104e8610ad836600461677f565b6139a7565b348015610ae957600080fd5b50610afd610af836600461680f565b6139df565b60405161041593929190616908565b348015610b1857600080fd5b50610560610b27366004615f65565b60009081526013602052604090205490565b348015610b4557600080fd5b50610463610b54366004615f65565b613ade565b348015610b6557600080fd5b50610463610b74366004615f65565b613b38565b348015610b8557600080fd5b50610b99610b94366004615f65565b613b79565b604051610415919061694b565b348015610bb257600080fd5b50610678610bc136600461680f565b613f86565b348015610bd257600080fd5b50610678610be1366004616a54565b614065565b348015610bf257600080fd5b50600c546105609081565b348015610c0957600080fd5b506104e8610c18366004616ac0565b6140f0565b348015610c2957600080fd5b506104e8610c38366004616b23565b614111565b348015610c4957600080fd5b50610c5d610c58366004615f65565b614147565b6040516104159190616bc8565b348015610c7657600080fd5b5061043e610c85366004616bd6565b6001600160a01b03918216600090815260056020908152604080832093909416825291909152205460ff1690565b348015610cbf57600080fd5b50610b99610cce366004615f65565b614554565b6104e8610ce13660046164ce565b61494f565b348015610cf257600080fd5b50610afd610d01366004616c04565b61498c565b6104e8610d143660046164ce565b614a46565b348015610d2557600080fd5b50610afd610d34366004616451565b614a6d565b348015610d4557600080fd5b50610560610d543660046164ce565b63389a75e1600c908152600091909152602090205490565b600081815260136020908152604091829020805483518184028101840190945280845260609392830182828015610dcc57602002820191906000526020600020905b81546001600160a01b03168152600190910190602001808311610dae575b50505050509050919050565b6000610de382614bf4565b92915050565b606060008054610df890616c89565b80601f0160208091040260200160405190810160405280929190818152602001828054610e2490616c89565b8015610e715780601f10610e4657610100808354040283529160200191610e71565b820191906000526020600020905b815481529060010190602001808311610e5457829003601f168201915b5050505050905090565b6000610e8682614c19565b506000908152600460205260409020546001600160a01b031690565b6000818152600260205260409020546001600160a01b0316610ed757604051632df0e24560e21b815260040160405180910390fd5b33610ee18261242f565b6001600160a01b031614610f0857604051633e79b9f360e01b815260040160405180910390fd5b6001600160a01b038216611029576000818152601360205260408120905b815481101561102257836001600160a01b0316828281548110610f4b57610f4b616cbd565b6000918252602090912001546001600160a01b03160361101a5781548290610f7590600190616ce9565b81548110610f8557610f85616cbd565b9060005260206000200160009054906101000a90046001600160a01b0316828281548110610fb557610fb5616cbd565b9060005260206000200160006101000a8154816001600160a01b0302191690836001600160a01b0316021790555081805480610ff357610ff3616cfc565b600082815260209020810160001990810180546001600160a01b0319169055019055611022565b600101610f26565b50506110bf565b600081815260136020526040812090805b825481101561108a57846001600160a01b031683828154811061105f5761105f616cbd565b6000918252602090912001546001600160a01b031603611082576001915061108a565b60010161103a565b50806110bc5781546001810183556000838152602090200180546001600160a01b0319166001600160a01b0386161790555b50505b6110c98282614c78565b5050565b601360205281600052604060002081815481106110e957600080fd5b6000918252602090912001546001600160a01b03169150829050565b61113b6040805160c08101825260008082526020820181905291810182905260608101829052608081018290529060a082015290565b6000828152600b6020908152604091829020825160c08101845281548152600182015460ff90811615159382019390935260028201549381019390935260038101546001600160a01b03166060840152600481015460808401526005810154909160a08401911660078111156111b3576111b3616179565b60078111156111c4576111c4616179565b90525092915050565b60606000604051806102000160405280604051806040016040528060018152602001600360fc1b8152508152602001604051806040016040528060018152602001603160f81b8152508152602001604051806040016040528060018152602001601960f91b8152508152602001604051806040016040528060018152602001603360f81b8152508152602001604051806040016040528060018152602001600d60fa1b8152508152602001604051806040016040528060018152602001603560f81b8152508152602001604051806040016040528060018152602001601b60f91b8152508152602001604051806040016040528060018152602001603760f81b8152508152602001604051806040016040528060018152602001600760fb1b8152508152602001604051806040016040528060018152602001603960f81b8152508152602001604051806040016040528060018152602001606160f81b8152508152602001604051806040016040528060018152602001603160f91b8152508152602001604051806040016040528060018152602001606360f81b8152508152602001604051806040016040528060018152602001601960fa1b8152508152602001604051806040016040528060018152602001606560f81b8152508152602001604051806040016040528060018152602001603360f91b81525081525090506000604051806103c00160405280604051806040016040528060018152602001600360fc1b8152508152602001604051806040016040528060018152602001603160f81b8152508152602001604051806040016040528060018152602001601960f91b8152508152602001604051806040016040528060018152602001603360f81b8152508152602001604051806040016040528060018152602001600d60fa1b8152508152602001604051806040016040528060018152602001603560f81b8152508152602001604051806040016040528060018152602001601b60f91b8152508152602001604051806040016040528060018152602001603760f81b8152508152602001604051806040016040528060018152602001600760fb1b8152508152602001604051806040016040528060018152602001603960f81b815250815260200160405180604001604052806002815260200161031360f41b815250815260200160405180604001604052806002815260200161313160f01b815250815260200160405180604001604052806002815260200161189960f11b815250815260200160405180604001604052806002815260200161313360f01b8152508152602001604051806040016040528060028152602001610c4d60f21b815250815260200160405180604001604052806002815260200161313560f01b815250815260200160405180604001604052806002815260200161189b60f11b815250815260200160405180604001604052806002815260200161313760f01b815250815260200160405180604001604052806002815260200161062760f31b815250815260200160405180604001604052806002815260200161313960f01b815250815260200160405180604001604052806002815260200161032360f41b815250815260200160405180604001604052806002815260200161323160f01b815250815260200160405180604001604052806002815260200161191960f11b815250815260200160405180604001604052806002815260200161323360f01b8152508152602001604051806040016040528060028152602001610c8d60f21b815250815260200160405180604001604052806002815260200161323560f01b815250815260200160405180604001604052806002815260200161191b60f11b815250815260200160405180604001604052806002815260200161323760f01b815250815260200160405180604001604052806002815260200161064760f31b815250815260200160405180604001604052806002815260200161323960f01b815250815250905060005b611194811015611a0e57600060f81b8582815181106117b5576117b5616cbd565b01602001516001600160f81b03191611156119fc576000601e6117d9600584616d28565b6117e39190616d3c565b90506000601e6117f4600585616d28565b6117fe9190616d28565b9050600085600489611811876002616d50565b8151811061182157611821616cbd565b016020015160f81c901c60ff166010811061183e5761183e616cbd565b60200201518689611850876002616d50565b8151811061186057611860616cbd565b60209101015160f81c600f166010811061187c5761187c616cbd565b60200201518760048b611890896003616d50565b815181106118a0576118a0616cbd565b016020015160f81c901c60ff16601081106118bd576118bd616cbd565b6020020151888b6118cf896003616d50565b815181106118df576118df616cbd565b60209101015160f81c600f16601081106118fb576118fb616cbd565b60200201518960048d61190e8b83616d50565b8151811061191e5761191e616cbd565b016020015160f81c901c60ff166010811061193b5761193b616cbd565b60200201518a8d61194d8b6004616d50565b8151811061195d5761195d616cbd565b60209101015160f81c600f166010811061197957611979616cbd565b602002015160405160200161199396959493929190616d63565b6040516020818303038152906040529050868584601e81106119b7576119b7616cbd565b60200201518684601e81106119ce576119ce616cbd565b6020020151836040516020016119e79493929190616de2565b60405160208183030381529060405296505050505b611a07600582616d50565b9050611794565b505050919050565b600c546000908152600d602052604090208054600160c01b900460ff161580611a6e57508054600160c81b900460ff16158015611a6e5750611a5a61010043616ce9565b8154600160801b90046001600160401b0316105b15611ab957611a7e436032616d50565b815460ff60c01b196001600160401b0392909216600160801b029190911668ffffffffffffffffff60801b1990911617600160c01b17815550565b8054600160801b90046001600160401b0316431115611bef57805460408051600160801b9092046001600160401b031640602083015244908201526001600160801b03906060016040516020818303038152906040528051906020012060001c611b239190616d3c565b8154600160c81b6001600160801b039290921679ff000000000000000000ffffffffffffffffffffffffffffffff199091161717808255600c54604051600160801b9092046001600160401b0316917f78611aecfda8d341359c248df527c95aef93d446c92bb928b2a81b7abcb1d8d990600090a3604080516000815260001960208201527f6bd5c950a8d8df17f772f5af37cb3655737899cbf903264b9795592da439661c910160405180910390a1600c8054600090611be390616e9c565b90915550611bef611a16565b50565b611bfc3382614d88565b611c215760405162461bcd60e51b8152600401611c1890616eb5565b60405180910390fd5b611c2c838383614e07565b505050565b60006202a3006001600160401b03164201905063389a75e1600c5233600052806020600c2055337fdbf36a107da19e49527a7176a1babf963b4b0ff8cde35ee35d6cd8f1f9ac7e1d600080a250565b6000611c8b8361248f565b8210611ced5760405162461bcd60e51b815260206004820152602b60248201527f455243373231456e756d657261626c653a206f776e657220696e646578206f7560448201526a74206f6620626f756e647360a81b6064820152608401611c18565b506001600160a01b03919091166000908152600660209081526040808320938352929052205490565b60608083602001518015611d2a5750600083115b15611e7557608084015160009081526012602052604090819020600281015491516301be83d160e11b81529091611e5e9173__$4987fe9f4e800c5c4c1535f64ed232842a$__9163037d07a291611d879160ff1690600401616bc8565b600060405180830381865af4158015611da4573d6000803e3d6000fd5b505050506040513d6000823e601f3d908101601f19168201604052611dcc9190810190616f03565b826001018054611ddb90616c89565b80601f0160208091040260200160405190810160405280929190818152602001828054611e0790616c89565b8015611e545780601f10611e2957610100808354040283529160200191611e54565b820191906000526020600020905b815481529060010190602001808311611e3757829003601f168201915b5050505050614fb4565b9150611e6d85608001516136f4565b925050611eb9565b604051806040016040528060028152602001617b7d60f01b81525090506040518060400160405280600b81526020016a1e39bb339f1e17b9bb339f60a91b81525091505b9250929050565b6000828152600b602090815260409182902083518155908301516001808301805492151560ff1993841617905592840151600283015560608401516003830180546001600160a01b039092166001600160a01b03199092169190911790556080840151600483015560a0840151600583018054869592939192911690836007811115611f4e57611f4e616179565b021790555050505050565b6000611f9a6040518060400160405280601981526020017f506574657254726169747320736166654d696e742c20746f3a0000000000000081525083614fe0565b611fcd604051806040016040528060128152602001713932b9b7b63b34b7339032b837b1b417171760711b815250615025565b611fd5611a16565b6120136040518060400160405280601f81526020017f50657465725472616974732063616c6c696e6720736166654d696e742e2e2e00815250615025565b600061201e60085490565b612029906001616d50565b90506120358382615068565b6120746040518060400160405280601d81526020017f506574657254726169747320736166654d696e74656420746f6b656e3a00000081525082615082565b604080516000815260001960208201527f6bd5c950a8d8df17f772f5af37cb3655737899cbf903264b9795592da439661c910160405180910390a192915050565b611c2c838383604051806020016040528060008152506139a7565b611bef816150c7565b606060006120e68361248f565b90506000816001600160401b0381111561210257612102616207565b60405190808252806020026020018201604052801561212b578160200160208202803683370190505b50905060005b82811015612168576121438582611c80565b82828151811061215557612155616cbd565b6020908102919091010152600101612131565b509392505050565b600061217b60085490565b82106121de5760405162461bcd60e51b815260206004820152602c60248201527f455243373231456e756d657261626c653a20676c6f62616c20696e646578206f60448201526b7574206f6620626f756e647360a01b6064820152608401611c18565b600882815481106121f1576121f1616cbd565b90600052602060002001549050919050565b600e8054819061221290616c89565b80601f016020809104026020016040519081016040528092919081815260200182805461223e90616c89565b801561228b5780601f106122605761010080835404028352916020019161228b565b820191906000526020600020905b81548152906001019060200180831161226e57829003601f168201915b5050505050908060010180546122a090616c89565b80601f01602080910402602001604051908101604052809291908181526020018280546122cc90616c89565b80156123195780601f106122ee57610100808354040283529160200191612319565b820191906000526020600020905b8154815290600101906020018083116122fc57829003601f168201915b5050505050905082565b63389a75e1600c523360005260006020600c2055337ffa7b8eab7da67f412cc9575ed43464468f9bfbae89d1675917346ca6d8fe3c92600080a2565b606060006123f9600e600001805461237690616c89565b80601f01602080910402602001604051908101604052809291908181526020018280546123a290616c89565b80156123ef5780601f106123c4576101008083540402835291602001916123ef565b820191906000526020600020905b8154815290600101906020018083116123d257829003601f168201915b50505050506128eb565b90506000612406826111cd565b9050806040516020016124199190616f70565b6040516020818303038152906040529250505090565b6000818152600260205260408120546001600160a01b031680610de35760405162461bcd60e51b8152602060048201526018602482015277115490cdcc8c4e881a5b9d985b1a59081d1bdad95b88125160421b6044820152606401611c18565b60006001600160a01b0382166124f95760405162461bcd60e51b815260206004820152602960248201527f4552433732313a2061646472657373207a65726f206973206e6f7420612076616044820152683634b21037bbb732b960b91b6064820152608401611c18565b506001600160a01b031660009081526003602052604090205490565b61251d615176565b6125276000615191565b565b612531615176565b601580546001600160a01b0319166001600160a01b0392909216919091179055565b6012602052600090815260409020805460018201805491929161257590616c89565b80601f01602080910402602001604051908101604052809291908181526020018280546125a190616c89565b80156125ee5780601f106125c3576101008083540402835291602001916125ee565b820191906000526020600020905b8154815290600101906020018083116125d157829003601f168201915b5050506002840154600385018054949560ff90921694919350915061261290616c89565b80601f016020809104026020016040519081016040528092919081815260200182805461263e90616c89565b801561268b5780601f106126605761010080835404028352916020019161268b565b820191906000526020600020905b81548152906001019060200180831161266e57829003601f168201915b5050505050908060040180546126a090616c89565b80601f01602080910402602001604051908101604052809291908181526020018280546126cc90616c89565b80156127195780601f106126ee57610100808354040283529160200191612719565b820191906000526020600020905b8154815290600101906020018083116126fc57829003601f168201915b50505050509080600501805461272e90616c89565b80601f016020809104026020016040519081016040528092919081815260200182805461275a90616c89565b80156127a75780601f1061277c576101008083540402835291602001916127a7565b820191906000526020600020905b81548152906001019060200180831161278a57829003601f168201915b5050506006840154600785015460088601805495966001600160a01b03938416969290931694509192506127da90616c89565b80601f016020809104026020016040519081016040528092919081815260200182805461280690616c89565b80156128535780601f1061282857610100808354040283529160200191612853565b820191906000526020600020905b81548152906001019060200180831161283657829003601f168201915b50505050509080600901805461286890616c89565b80601f016020809104026020016040519081016040528092919081815260200182805461289490616c89565b80156128e15780601f106128b6576101008083540402835291602001916128e1565b820191906000526020600020905b8154815290600101906020018083116128c457829003601f168201915b505050505090508a565b8051604080516111948082526111c0820190925260609291600091906020820181803683370190505090506000612923600584616d28565b905060005b81811015612b3357600061293d826005616fda565b9050600087828151811061295357612953616cbd565b016020015160f81c905060008861296b846001616d50565b8151811061297b5761297b616cbd565b016020015160f81c9050600060ff831661299683601e616fda565b6129a09190616d50565b6129ab906005616fda565b90508984815181106129bf576129bf616cbd565b602001015160f81c60f81b8782815181106129dc576129dc616cbd565b60200101906001600160f81b031916908160001a905350898460010181518110612a0857612a08616cbd565b602001015160f81c60f81b878260010181518110612a2857612a28616cbd565b60200101906001600160f81b031916908160001a905350898460020181518110612a5457612a54616cbd565b602001015160f81c60f81b878260020181518110612a7457612a74616cbd565b60200101906001600160f81b031916908160001a905350898460030181518110612aa057612aa0616cbd565b602001015160f81c60f81b878260030181518110612ac057612ac0616cbd565b60200101906001600160f81b031916908160001a905350898460040181518110612aec57612aec616cbd565b602001015160f81c60f81b878260040181518110612b0c57612b0c616cbd565b60200101906001600160f81b031916908160001a9053505060019093019250612928915050565b5090949350505050565b600082815260126020908152604090912082518155908201518291906001820190612b689082617039565b50604082015160028201805460ff19166001836007811115612b8c57612b8c616179565b021790555060608201516003820190612ba59082617039565b5060808201516004820190612bba9082617039565b5060a08201516005820190612bcf9082617039565b5060c08201516006820180546001600160a01b039283166001600160a01b03199182161790915560e08401516007840180549190931691161790556101008201516008820190612c1f9082617039565b506101208201516009820190612c359082617039565b5050505050565b612c5e6040518060600160405280602681526020016177846026913982615082565b612c99604051806040016040528060118152602001706f776e65724f66285f746f6b656e49642960781b815250612c948361242f565b614fe0565b612cc56040518060400160405280600a81526020016936b9b39739b2b73232b960b11b81525033614fe0565b6000818152600260205260409020546001600160a01b0316612cfa57604051632df0e24560e21b815260040160405180910390fd5b6000818152601360205260408120612d1191615ec9565b612d1c600082614c78565b600081815260136020908152604080832080548251818502810185019093528083529192909190830182828015612d7c57602002820191906000526020600020905b81546001600160a01b03168152600190910190602001808311612d5e575b5050505050905060005b8151811015612dbb57612db3828281518110612da457612da4616cbd565b602002602001015160006151cf565b600101612d86565b5060405182907fe6727257e6b1474b2ced9b705eafa89027508be445f1a76db669635c92f5242090600090a25050565b606060018054610df890616c89565b6060806060806000612e0a61235f565b90506000612e1787613808565b905080602001511561333757600060126000836080015181526020019081526020016000206040518061014001604052908160008201548152602001600182018054612e6290616c89565b80601f0160208091040260200160405190810160405280929190818152602001828054612e8e90616c89565b8015612edb5780601f10612eb057610100808354040283529160200191612edb565b820191906000526020600020905b815481529060010190602001808311612ebe57829003601f168201915b5050509183525050600282015460209091019060ff166007811115612f0257612f02616179565b6007811115612f1357612f13616179565b8152602001600382018054612f2790616c89565b80601f0160208091040260200160405190810160405280929190818152602001828054612f5390616c89565b8015612fa05780601f10612f7557610100808354040283529160200191612fa0565b820191906000526020600020905b815481529060010190602001808311612f8357829003601f168201915b50505050508152602001600482018054612fb990616c89565b80601f0160208091040260200160405190810160405280929190818152602001828054612fe590616c89565b80156130325780601f1061300757610100808354040283529160200191613032565b820191906000526020600020905b81548152906001019060200180831161301557829003601f168201915b5050505050815260200160058201805461304b90616c89565b80601f016020809104026020016040519081016040528092919081815260200182805461307790616c89565b80156130c45780601f10613099576101008083540402835291602001916130c4565b820191906000526020600020905b8154815290600101906020018083116130a757829003601f168201915b505050918352505060068201546001600160a01b039081166020830152600783015416604082015260088201805460609092019161310190616c89565b80601f016020809104026020016040519081016040528092919081815260200182805461312d90616c89565b801561317a5780601f1061314f5761010080835404028352916020019161317a565b820191906000526020600020905b81548152906001019060200180831161315d57829003601f168201915b5050505050815260200160098201805461319390616c89565b80601f01602080910402602001604051908101604052809291908181526020018280546131bf90616c89565b801561320c5780601f106131e15761010080835404028352916020019161320c565b820191906000526020600020905b8154815290600101906020018083116131ef57829003601f168201915b505050505081525050905061322482608001516136f4565b94506132b373__$4987fe9f4e800c5c4c1535f64ed232842a$__63037d07a28460a001516040518263ffffffff1660e01b81526004016132649190616bc8565b600060405180830381865af4158015613281573d6000803e3d6000fd5b505050506040513d6000823e601f3d908101601f191682016040526132a99190810190616f03565b8260200151614fb4565b6132e16040518060400160405280600781526020016621b932b0ba37b960c91b815250836101000151614fb4565b61330e6040518060400160405280600681526020016529b2b0b9b7b760d11b815250846101200151614fb4565b604051602001613320939291906170f8565b604051602081830303815290604052935050613388565b6040518060400160405280600f81526020016e2261747472696275746573223a5b5d60881b81525092506040518060400160405280600b81526020016a1e39bb339f1e17b9bb339f60a91b81525093505b60405180610100016040528060d281526020016176b260d2913982856040516020016133b69392919061717b565b604051602081830303815290604052945060006133d2866151da565b6040516020016133e291906171cf565b604051602081830303815290604052905060006133fe896151e8565b85836040516020016134129392919061722b565b604051602081830303815290604052905061342c816151da565b60405160200161343c91906172e6565b604051602081830303815290604052975050505050505050919050565b61348d604051806040016040528060118152602001701cd95d105c1c1c9bdd985b119bdc905b1b607a1b815250838361522c565b336001600160a01b038316036134e15760405162461bcd60e51b815260206004820152601960248201527822a9219b99189d1030b8383937bb32903a379031b0b63632b960391b6044820152606401611c18565b60006134ec3361248f565b905060005b818110156136bf5760006135053383611c80565b905083156135a757600081815260136020526040812090805b825481101561356e57876001600160a01b031683828154811061354357613543616cbd565b6000918252602090912001546001600160a01b031603613566576001915061356e565b60010161351e565b50806135a05781546001810183556000838152602090200180546001600160a01b0319166001600160a01b0389161790555b50506136b6565b6000818152601360205260408120905b81548110156136b357866001600160a01b03168282815481106135dc576135dc616cbd565b6000918252602090912001546001600160a01b0316036136ab578154829061360690600190616ce9565b8154811061361657613616616cbd565b9060005260206000200160009054906101000a90046001600160a01b031682828154811061364657613646616cbd565b9060005260206000200160006101000a8154816001600160a01b0302191690836001600160a01b031602179055508180548061368457613684616cfc565b600082815260209020810160001990810180546001600160a01b03191690550190556136b3565b6001016135b7565b50505b506001016134f1565b50611c2c83836151cf565b6136d2615176565b601480546001600160a01b0319166001600160a01b0392909216919091179055565b60008181526012602052604081206004018054606092916137189161237690616c89565b90506000613725826111cd565b905080604051602001613738919061732b565b60405160208183030381529060405292505050919050565b6060600061375d83613808565b6080810151600090815260126020526040902060050180549192509061378290616c89565b80601f01602080910402602001604051908101604052809291908181526020018280546137ae90616c89565b80156137fb5780601f106137d0576101008083540402835291602001916137fb565b820191906000526020600020905b8154815290600101906020018083116137de57829003601f168201915b5050505050915050919050565b61383e6040805160c08101825260008082526020820181905291810182905260608101829052608081018290529060a082015290565b6000828152600b60209081526040808320815160c08101835281548152600182015460ff90811615159482019490945260028201549281019290925260038101546001600160a01b031660608301526004810154608083015260058101549192909160a08401911660078111156138b7576138b7616179565b60078111156138c8576138c8616179565b90525080516000908152600d602052604090205460608201519192506001600160801b0316906001600160a01b03811615801561390757506040830151155b156139285760405163082d451d60e01b815260048101869052602401611c18565b60175460405163687d69df60e11b81526001600160a01b0383169163d0fad3be9161395d9160ff169087908790600401617370565b60c060405180830381865afa15801561397a573d6000803e3d6000fd5b505050506040513d601f19601f8201168201806040525081019061399e919061739e565b95945050505050565b6139b13383614d88565b6139cd5760405162461bcd60e51b8152600401611c1890616eb5565b6139d984848484615273565b50505050565b606080606060008460c001511115613a0a57613a018460c0015184838561498c565b91945090925090505b60a084015115613a2d57613a248460a0015184838561498c565b91945090925090505b608084015115613a5057613a47846080015184838561498c565b91945090925090505b604084015115613a7357613a6a846040015184838561498c565b91945090925090505b602084015115613a9657613a8d846020015184838561498c565b91945090925090505b835115613ab4578351613aab9084838561498c565b91945090925090505b606084015115613ad757613ace846060015184838561498c565b91945090925090505b9193909250565b60606000613aeb83613808565b9050806020015115613b0b57613b0481608001516136f4565b9150613b32565b6040518060400160405280600b81526020016a1e39bb339f1e17b9bb339f60a91b81525091505b50919050565b6000818152600260205260409020546060906001600160a01b0316613b7057604051632df0e24560e21b815260040160405180910390fd5b610de382612dfa565b613b81615ee7565b6000613b8c83613808565b905060126000826080015181526020019081526020016000206040518061014001604052908160008201548152602001600182018054613bcb90616c89565b80601f0160208091040260200160405190810160405280929190818152602001828054613bf790616c89565b8015613c445780601f10613c1957610100808354040283529160200191613c44565b820191906000526020600020905b815481529060010190602001808311613c2757829003601f168201915b5050509183525050600282015460209091019060ff166007811115613c6b57613c6b616179565b6007811115613c7c57613c7c616179565b8152602001600382018054613c9090616c89565b80601f0160208091040260200160405190810160405280929190818152602001828054613cbc90616c89565b8015613d095780601f10613cde57610100808354040283529160200191613d09565b820191906000526020600020905b815481529060010190602001808311613cec57829003601f168201915b50505050508152602001600482018054613d2290616c89565b80601f0160208091040260200160405190810160405280929190818152602001828054613d4e90616c89565b8015613d9b5780601f10613d7057610100808354040283529160200191613d9b565b820191906000526020600020905b815481529060010190602001808311613d7e57829003601f168201915b50505050508152602001600582018054613db490616c89565b80601f0160208091040260200160405190810160405280929190818152602001828054613de090616c89565b8015613e2d5780601f10613e0257610100808354040283529160200191613e2d565b820191906000526020600020905b815481529060010190602001808311613e1057829003601f168201915b505050918352505060068201546001600160a01b0390811660208301526007830154166040820152600882018054606090920191613e6a90616c89565b80601f0160208091040260200160405190810160405280929190818152602001828054613e9690616c89565b8015613ee35780601f10613eb857610100808354040283529160200191613ee3565b820191906000526020600020905b815481529060010190602001808311613ec657829003601f168201915b50505050508152602001600982018054613efc90616c89565b80601f0160208091040260200160405190810160405280929190818152602001828054613f2890616c89565b8015613f755780601f10613f4a57610100808354040283529160200191613f75565b820191906000526020600020905b815481529060010190602001808311613f5857829003601f168201915b505050505081525050915050919050565b60608060008360c001511115613fab57613fa58360c001518383614065565b90925090505b60a083015115613fca57613fc48360a001518383614065565b90925090505b608083015115613fe957613fe383608001518383614065565b90925090505b6040830151156140085761400283604001518383614065565b90925090505b6020830151156140275761402183602001518383614065565b90925090505b82511561404157825161403b908383614065565b90925090505b6060830151156140605761405a83606001518383614065565b90925090505b915091565b606080606080600061407688613808565b90506140828189611d16565b875190945090925060000361409c578194508293506140e5565b86826040516020016140af929190617410565b604051602081830303815290604052945085836040516020016140d392919061743f565b60405160208183030381529060405293505b505050935093915050565b6140f8615176565b600e6141048382617039565b50600f611c2c8282617039565b60005b81518110156110c95761413f82828151811061413257614132616cbd565b60200260200101516150c7565b600101614114565b60008061415383613808565b905060006012600083608001518152602001908152602001600020604051806101400160405290816000820154815260200160018201805461419490616c89565b80601f01602080910402602001604051908101604052809291908181526020018280546141c090616c89565b801561420d5780601f106141e25761010080835404028352916020019161420d565b820191906000526020600020905b8154815290600101906020018083116141f057829003601f168201915b5050509183525050600282015460209091019060ff16600781111561423457614234616179565b600781111561424557614245616179565b815260200160038201805461425990616c89565b80601f016020809104026020016040519081016040528092919081815260200182805461428590616c89565b80156142d25780601f106142a7576101008083540402835291602001916142d2565b820191906000526020600020905b8154815290600101906020018083116142b557829003601f168201915b505050505081526020016004820180546142eb90616c89565b80601f016020809104026020016040519081016040528092919081815260200182805461431790616c89565b80156143645780601f1061433957610100808354040283529160200191614364565b820191906000526020600020905b81548152906001019060200180831161434757829003601f168201915b5050505050815260200160058201805461437d90616c89565b80601f01602080910402602001604051908101604052809291908181526020018280546143a990616c89565b80156143f65780601f106143cb576101008083540402835291602001916143f6565b820191906000526020600020905b8154815290600101906020018083116143d957829003601f168201915b505050918352505060068201546001600160a01b039081166020830152600783015416604082015260088201805460609092019161443390616c89565b80601f016020809104026020016040519081016040528092919081815260200182805461445f90616c89565b80156144ac5780601f10614481576101008083540402835291602001916144ac565b820191906000526020600020905b81548152906001019060200180831161448f57829003601f168201915b505050505081526020016009820180546144c590616c89565b80601f01602080910402602001604051908101604052809291908181526020018280546144f190616c89565b801561453e5780601f106145135761010080835404028352916020019161453e565b820191906000526020600020905b81548152906001019060200180831161452157829003601f168201915b5050509190925250505060400151949350505050565b61455c615ee7565b60126000838152602001908152602001600020604051806101400160405290816000820154815260200160018201805461459590616c89565b80601f01602080910402602001604051908101604052809291908181526020018280546145c190616c89565b801561460e5780601f106145e35761010080835404028352916020019161460e565b820191906000526020600020905b8154815290600101906020018083116145f157829003601f168201915b5050509183525050600282015460209091019060ff16600781111561463557614635616179565b600781111561464657614646616179565b815260200160038201805461465a90616c89565b80601f016020809104026020016040519081016040528092919081815260200182805461468690616c89565b80156146d35780601f106146a8576101008083540402835291602001916146d3565b820191906000526020600020905b8154815290600101906020018083116146b657829003601f168201915b505050505081526020016004820180546146ec90616c89565b80601f016020809104026020016040519081016040528092919081815260200182805461471890616c89565b80156147655780601f1061473a57610100808354040283529160200191614765565b820191906000526020600020905b81548152906001019060200180831161474857829003601f168201915b5050505050815260200160058201805461477e90616c89565b80601f01602080910402602001604051908101604052809291908181526020018280546147aa90616c89565b80156147f75780601f106147cc576101008083540402835291602001916147f7565b820191906000526020600020905b8154815290600101906020018083116147da57829003601f168201915b505050918352505060068201546001600160a01b039081166020830152600783015416604082015260088201805460609092019161483490616c89565b80601f016020809104026020016040519081016040528092919081815260200182805461486090616c89565b80156148ad5780601f10614882576101008083540402835291602001916148ad565b820191906000526020600020905b81548152906001019060200180831161489057829003601f168201915b505050505081526020016009820180546148c690616c89565b80601f01602080910402602001604051908101604052809291908181526020018280546148f290616c89565b801561493f5780601f106149145761010080835404028352916020019161493f565b820191906000526020600020905b81548152906001019060200180831161492257829003601f168201915b5050505050815250509050919050565b614957615176565b63389a75e1600c52806000526020600c20805442111561497f57636f5e88186000526004601cfd5b60009055611bef81615191565b60608060608060608060006149a08b613808565b90506149ac818c614a6d565b8b5190965091945092506000036149cb57829650839550819450614a38565b89836040516020016149de929190617410565b60405160208183030381529060405296508884604051602001614a0292919061743f565b60405160208183030381529060405295508782604051602001614a26929190617410565b60405160208183030381529060405294505b505050509450945094915050565b614a4e615176565b8060601b614a6457637448fbae6000526004601cfd5b611bef81615191565b606080606084602001518015614a835750600084115b15614b975760808501805160009081526012602052604090209051614aa7906136f4565b60028201546040516301be83d160e11b8152919550614aec9173__$4987fe9f4e800c5c4c1535f64ed232842a$__9163037d07a291611d879160ff1690600401616bc8565b60808701516000908152601260205260409020600501805491935090614b1190616c89565b80601f0160208091040260200160405190810160405280929190818152602001828054614b3d90616c89565b8015614b8a5780601f10614b5f57610100808354040283529160200191614b8a565b820191906000526020600020905b815481529060010190602001808311614b6d57829003601f168201915b5050505050925050614bed565b6040518060400160405280600b81526020016a1e39bb339f1e17b9bb339f60a91b8152509250604051806040016040528060028152602001617b7d60f01b81525090506040518060200160405280600081525091505b9250925092565b60006001600160e01b0319821663780e9d6360e01b1480610de35750610de3826152a6565b6000818152600260205260409020546001600160a01b0316611bef5760405162461bcd60e51b8152602060048201526018602482015277115490cdcc8c4e881a5b9d985b1a59081d1bdad95b88125160421b6044820152606401611c18565b6000614c838261242f565b9050806001600160a01b0316836001600160a01b031603614cf05760405162461bcd60e51b815260206004820152602160248201527f4552433732313a20617070726f76616c20746f2063757272656e74206f776e656044820152603960f91b6064820152608401611c18565b336001600160a01b0382161480614d0c5750614d0c8133610c85565b614d7e5760405162461bcd60e51b815260206004820152603e60248201527f4552433732313a20617070726f76652063616c6c6572206973206e6f7420746f60448201527f6b656e206f776e6572206e6f7220617070726f76656420666f7220616c6c00006064820152608401611c18565b611c2c83836152f6565b600080614d948361242f565b9050806001600160a01b0316846001600160a01b03161480614ddb57506001600160a01b0380821660009081526005602090815260408083209388168352929052205460ff165b80614dff5750836001600160a01b0316614df484610e7b565b6001600160a01b0316145b949350505050565b826001600160a01b0316614e1a8261242f565b6001600160a01b031614614e7e5760405162461bcd60e51b815260206004820152602560248201527f4552433732313a207472616e736665722066726f6d20696e636f72726563742060448201526437bbb732b960d91b6064820152608401611c18565b6001600160a01b038216614ee05760405162461bcd60e51b8152602060048201526024808201527f4552433732313a207472616e7366657220746f20746865207a65726f206164646044820152637265737360e01b6064820152608401611c18565b614eeb838383615364565b614ef66000826152f6565b6001600160a01b0383166000908152600360205260408120805460019290614f1f908490616ce9565b90915550506001600160a01b0382166000908152600360205260408120805460019290614f4d908490616d50565b909155505060008181526002602052604080822080546001600160a01b0319166001600160a01b0386811691821790925591518493918716917fddf252ad1be2c89b69c2b068fc378daa952ba7f163c4a11628f55a4df523b3ef91a4611c2c83838361556e565b60608282604051602001614fc992919061747b565b604051602081830303815290604052905092915050565b6110c98282604051602401614ff69291906174ec565b60408051601f198184030181529190526020810180516001600160e01b031663319af33360e01b179052615714565b611bef816040516024016150399190616055565b60408051601f198184030181529190526020810180516001600160e01b031663104c13eb60e21b179052615714565b6110c9828260405180602001604052806000815250615735565b6110c98282604051602401615098929190617516565b60408051601f198184030181529190526020810180516001600160e01b03166309710a9d60e41b179052615714565b60006150d28261242f565b90506150e081600084615364565b6150eb6000836152f6565b6001600160a01b0381166000908152600360205260408120805460019290615114908490616ce9565b909155505060008281526002602052604080822080546001600160a01b0319169055518391906001600160a01b038416907fddf252ad1be2c89b69c2b068fc378daa952ba7f163c4a11628f55a4df523b3ef908390a46110c98160008461556e565b638b78c6d819543314612527576382b429006000526004601cfd5b638b78c6d81980546001600160a01b039092169182907f8be0079c531659141344cd1fd0a4f28419497f9722a3daafe3b4186f6b6457e0600080a355565b6110c9338383615768565b6060610de382600080615832565b60606080604051019050602081016040526000815280600019835b928101926030600a8206018453600a900480615203575050819003601f19909101908152919050565b611c2c83838360405160240161524493929190617538565b60408051601f198184030181529190526020810180516001600160e01b031663324757b560e21b179052615714565b61527e848484614e07565b61528a84848484615919565b6139d95760405162461bcd60e51b8152600401611c189061756b565b60006001600160e01b031982166380ac58cd60e01b14806152d757506001600160e01b03198216635b5e139f60e01b145b80610de357506301ffc9a760e01b6001600160e01b0319831614610de3565b600081815260046020526040902080546001600160a01b0319166001600160a01b038416908117909155819061532b8261242f565b6001600160a01b03167f8c5be1e5ebec7d5bd14f71427d1e84f3dd0314c0f7b2291e5b200ac8c7c3b92560405160405180910390a45050565b6153a56040518060400160405280601b81526020017f5f6265666f7265546f6b656e5472616e73666572205472616974730000000000815250848484615a1a565b6001600160a01b0383166153df576153d46040518060600160405280602281526020016177aa60229139615025565b611c2c838383615a63565b601554604051634f6088cd60e01b8152600481018390526000916001600160a01b031690634f6088cd90602401608060405180830381865afa158015615429573d6000803e3d6000fd5b505050506040513d601f19601f8201168201806040525081019061544d91906175bd565b505091505061547a6040518060400160405280600681526020016539b2b63632b960d11b81525082614fe0565b6001600160a01b038116156154b4576015546001600160a01b031633146154b45760405163bf646b0f60e01b815260040160405180910390fd5b6001600160a01b0383166154d7576154cc8284615b1b565b6139d9848484615a63565b60145460405162525fcd60e91b81526001600160a01b0385811660048301529091169063a4bf9a0090602401602060405180830381865afa158015615520573d6000803e3d6000fd5b505050506040513d601f19601f820116820180604052508101906155449190617612565b600003615564576040516326a45c0160e21b815260040160405180910390fd5b6154cc8284615b1b565b6155ad6040518060400160405280601a81526020017f5f6166746572546f6b656e5472616e736665722054726169747300000000000081525082615082565b60006155b88261242f565b90506155df6040518060400160405280600381526020016274626160e81b81525082614fe0565b60408051808201909152600a8152693832ba32b939a6b0b4b760b11b602082015260145461561691906001600160a01b0316614fe0565b60145460405162525fcd60e91b81526001600160a01b038381166004830152600092169063a4bf9a0090602401602060405180830381865afa158015615660573d6000803e3d6000fd5b505050506040513d601f19601f820116820180604052508101906156849190617612565b90506156af6040518060400160405280600781526020016618da1bdb9ad25960ca1b81525082615082565b60155460405163236313ff60e11b8152600481018390526001600160a01b03909116906346c627fe90602401600060405180830381600087803b1580156156f557600080fd5b505af1158015615709573d6000803e3d6000fd5b505050505050505050565b80516a636f6e736f6c652e6c6f67602083016000808483855afa5050505050565b61573f8383615be3565b61574c6000848484615919565b611c2c5760405162461bcd60e51b8152600401611c189061756b565b816001600160a01b0316836001600160a01b0316036157c55760405162461bcd60e51b815260206004820152601960248201527822a9219b99189d1030b8383937bb32903a379031b0b63632b960391b6044820152606401611c18565b6001600160a01b03838116600081815260056020908152604080832094871680845294825291829020805460ff191686151590811790915591519182527f17307eab39ab6107e8899845ad3d59bd9653f200f220920489ca2b5937696c31910160405180910390a3505050565b606083518015612168576003600282010460021b60405192507f4142434445464748494a4b4c4d4e4f505152535455565758595a616263646566601f526106708515027f6768696a6b6c6d6e6f707172737475767778797a303132333435363738392d5f18603f52602083018181015b6003880197508751603f8160121c1651600053603f81600c1c1651600153603f8160061c1651600253603f8116516003535060005182526004820191508082106158a257602001604052613d3d60f01b60038406600204808303919091526000861515909102918290035290038252509392505050565b60006001600160a01b0384163b15615a0f57604051630a85bd0160e11b81526001600160a01b0385169063150b7a029061595d90339089908890889060040161762b565b6020604051808303816000875af1925050508015615998575060408051601f3d908101601f191682019092526159959181019061765e565b60015b6159f5573d8080156159c6576040519150601f19603f3d011682016040523d82523d6000602084013e6159cb565b606091505b5080516000036159ed5760405162461bcd60e51b8152600401611c189061756b565b805181602001fd5b6001600160e01b031916630a85bd0160e11b149050614dff565b506001949350505050565b6139d984848484604051602401615a34949392919061767b565b60408051601f198184030181529190526020810180516001600160e01b0316636eb7943d60e01b179052615714565b6001600160a01b038316615abe57615ab981600880546000838152600960205260408120829055600182018355919091527ff3f7a9fe364faab93b216da50a3214154f22a0a2b415b23a84c8169e8b636ee30155565b615ae1565b816001600160a01b0316836001600160a01b031614615ae157615ae18382615d39565b6001600160a01b038216615af857611c2c81615dd6565b826001600160a01b0316826001600160a01b031614611c2c57611c2c8282615e85565b601554604051632e1d274f60e01b8152600481018490526001600160a01b0390911690632e1d274f90602401600060405180830381600087803b158015615b6157600080fd5b505af1158015615b75573d6000803e3d6000fd5b50506015546040516302fbe78f60e41b8152600481018690526001600160a01b0385811660248301529091169250632fbe78f09150604401600060405180830381600087803b158015615bc757600080fd5b505af1158015615bdb573d6000803e3d6000fd5b505050505050565b6001600160a01b038216615c395760405162461bcd60e51b815260206004820181905260248201527f4552433732313a206d696e7420746f20746865207a65726f20616464726573736044820152606401611c18565b6000818152600260205260409020546001600160a01b031615615c9e5760405162461bcd60e51b815260206004820152601c60248201527f4552433732313a20746f6b656e20616c7265616479206d696e746564000000006044820152606401611c18565b615caa60008383615364565b6001600160a01b0382166000908152600360205260408120805460019290615cd3908490616d50565b909155505060008181526002602052604080822080546001600160a01b0319166001600160a01b03861690811790915590518392907fddf252ad1be2c89b69c2b068fc378daa952ba7f163c4a11628f55a4df523b3ef908290a46110c96000838361556e565b60006001615d468461248f565b615d509190616ce9565b600083815260076020526040902054909150808214615da3576001600160a01b03841660009081526006602090815260408083208584528252808320548484528184208190558352600790915290208190555b5060009182526007602090815260408084208490556001600160a01b039094168352600681528383209183525290812055565b600854600090615de890600190616ce9565b60008381526009602052604081205460088054939450909284908110615e1057615e10616cbd565b906000526020600020015490508060088381548110615e3157615e31616cbd565b6000918252602080832090910192909255828152600990915260408082208490558582528120556008805480615e6957615e69616cfc565b6001900381819060005260206000200160009055905550505050565b6000615e908361248f565b6001600160a01b039093166000908152600660209081526040808320868452825280832085905593825260079052919091209190915550565b5080546000825590600052602060002090810190611bef9190615f4c565b60408051610140810182526000808252606060208301529091820190815260200160608152602001606081526020016060815260200160006001600160a01b0316815260200160006001600160a01b0316815260200160608152602001606081525090565b5b80821115615f615760008155600101615f4d565b5090565b600060208284031215615f7757600080fd5b5035919050565b6020808252825182820181905260009190848201906040850190845b81811015615fbf5783516001600160a01b031683529284019291840191600101615f9a565b50909695505050505050565b6001600160e01b031981168114611bef57600080fd5b600060208284031215615ff357600080fd5b8135615ffe81615fcb565b9392505050565b60005b83811015616020578181015183820152602001616008565b50506000910152565b60008151808452616041816020860160208601616005565b601f01601f19169290920160200192915050565b602081526000615ffe6020830184616029565b6001600160a01b0381168114611bef57600080fd5b803561608881616068565b919050565b600080604083850312156160a057600080fd5b82356160ab81616068565b946020939093013593505050565b600080604083850312156160cc57600080fd5b50508035926020909101359150565b6000806000806000608086880312156160f357600080fd5b85356160fe81616068565b9450602086013561610e81616068565b93506040860135925060608601356001600160401b038082111561613157600080fd5b818801915088601f83011261614557600080fd5b81358181111561615457600080fd5b89602082850101111561616657600080fd5b9699959850939650602001949392505050565b634e487b7160e01b600052602160045260246000fd5b600881106161ad57634e487b7160e01b600052602160045260246000fd5b9052565b805182526020810151151560208301526040810151604083015260018060a01b0360608201511660608301526080810151608083015260a0810151611c2c60a084018261618f565b60c08101610de382846161b1565b634e487b7160e01b600052604160045260246000fd5b60405160c081016001600160401b038111828210171561623f5761623f616207565b60405290565b60405161014081016001600160401b038111828210171561623f5761623f616207565b60405161018081016001600160401b038111828210171561623f5761623f616207565b604051601f8201601f191681016001600160401b03811182821017156162b3576162b3616207565b604052919050565b60006001600160401b038211156162d4576162d4616207565b50601f01601f191660200190565b600082601f8301126162f357600080fd5b8135616306616301826162bb565b61628b565b81815284602083860101111561631b57600080fd5b816020850160208301376000918101602001919091529392505050565b60006020828403121561634a57600080fd5b81356001600160401b0381111561636057600080fd5b614dff848285016162e2565b60008060006060848603121561638157600080fd5b833561638c81616068565b9250602084013561639c81616068565b929592945050506040919091013590565b8015158114611bef57600080fd5b8035616088816163ad565b60088110611bef57600080fd5b8035616088816163c6565b600060c082840312156163f057600080fd5b6163f861621d565b905081358152602082013561640c816163ad565b602082015260408281013590820152606082013561642981616068565b60608201526080828101359082015260a0820135616446816163c6565b60a082015292915050565b60008060e0838503121561646457600080fd5b61646e84846163de565b9460c0939093013593505050565b60408152600061648f6040830185616029565b828103602084015261399e8185616029565b60008060e083850312156164b457600080fd5b823591506164c584602085016163de565b90509250929050565b6000602082840312156164e057600080fd5b8135615ffe81616068565b6020808252825182820181905260009190848201906040850190845b81811015615fbf57835183529284019291840191600101616507565b60006101408c835280602084015261653d8184018d616029565b905061654c604084018c61618f565b828103606084015261655e818b616029565b90508281036080840152616572818a616029565b905082810360a08401526165868189616029565b6001600160a01b0388811660c0860152871660e085015283810361010085015290506165b28186616029565b90508281036101208401526165c78185616029565b9d9c50505050505050505050505050565b600080604083850312156165eb57600080fd5b8235915060208301356001600160401b038082111561660957600080fd5b90840190610140828703121561661e57600080fd5b616626616245565b8235815260208301358281111561663c57600080fd5b616648888286016162e2565b60208301525061665a604084016163d3565b604082015260608301358281111561667157600080fd5b61667d888286016162e2565b60608301525060808301358281111561669557600080fd5b6166a1888286016162e2565b60808301525060a0830135828111156166b957600080fd5b6166c5888286016162e2565b60a0830152506166d760c0840161607d565b60c08201526166e860e0840161607d565b60e0820152610100808401358381111561670157600080fd5b61670d898287016162e2565b828401525050610120808401358381111561672757600080fd5b616733898287016162e2565b8284015250508093505050509250929050565b6000806040838503121561675957600080fd5b823561676481616068565b91506020830135616774816163ad565b809150509250929050565b6000806000806080858703121561679557600080fd5b84356167a081616068565b935060208501356167b081616068565b92506040850135915060608501356001600160401b038111156167d257600080fd5b6167de878288016162e2565b91505092959194509250565b803563ffffffff8116811461608857600080fd5b803560ff8116811461608857600080fd5b60006020828403121561682157600080fd5b81356001600160401b038082111561683857600080fd5b90830190610180828603121561684d57600080fd5b616855616268565b823581526020830135602082015260408301356040820152606083013560608201526080830135608082015260a083013560a082015260c083013560c08201526168a160e084016167ea565b60e082015261010083810135908201526101206168bf8185016167fe565b9082015261014083810135838111156168d757600080fd5b6168e3888287016162e2565b82840152505061016091506168f98284016163bb565b91810191909152949350505050565b60608152600061691b6060830186616029565b828103602084015261692d8186616029565b905082810360408401526169418185616029565b9695505050505050565b602081528151602082015260006020830151610140806040850152616974610160850183616029565b91506040850151616988606086018261618f565b506060850151601f19808685030160808701526169a58483616029565b935060808701519150808685030160a08701526169c28483616029565b935060a08701519150808685030160c08701526169df8483616029565b935060c087015191506169fd60e08701836001600160a01b03169052565b60e08701519150610100616a1b818801846001600160a01b03169052565b80880151925050610120818786030181880152616a388584616029565b9088015187820390920184880152935090506169418382616029565b600080600060608486031215616a6957600080fd5b8335925060208401356001600160401b0380821115616a8757600080fd5b616a93878388016162e2565b93506040860135915080821115616aa957600080fd5b50616ab6868287016162e2565b9150509250925092565b60008060408385031215616ad357600080fd5b82356001600160401b0380821115616aea57600080fd5b616af6868387016162e2565b93506020850135915080821115616b0c57600080fd5b50616b19858286016162e2565b9150509250929050565b60006020808385031215616b3657600080fd5b82356001600160401b0380821115616b4d57600080fd5b818501915085601f830112616b6157600080fd5b813581811115616b7357616b73616207565b8060051b9150616b8484830161628b565b8181529183018401918481019088841115616b9e57600080fd5b938501935b83851015616bbc57843582529385019390850190616ba3565b98975050505050505050565b60208101610de3828461618f565b60008060408385031215616be957600080fd5b8235616bf481616068565b9150602083013561677481616068565b60008060008060808587031215616c1a57600080fd5b8435935060208501356001600160401b0380821115616c3857600080fd5b616c44888389016162e2565b94506040870135915080821115616c5a57600080fd5b616c66888389016162e2565b93506060870135915080821115616c7c57600080fd5b506167de878288016162e2565b600181811c90821680616c9d57607f821691505b602082108103613b3257634e487b7160e01b600052602260045260246000fd5b634e487b7160e01b600052603260045260246000fd5b634e487b7160e01b600052601160045260246000fd5b81810381811115610de357610de3616cd3565b634e487b7160e01b600052603160045260246000fd5b634e487b7160e01b600052601260045260246000fd5b600082616d3757616d37616d12565b500490565b600082616d4b57616d4b616d12565b500690565b80820180821115610de357610de3616cd3565b600087516020616d768285838d01616005565b885191840191616d898184848d01616005565b8851920191616d9b8184848c01616005565b8751920191616dad8184848b01616005565b8651920191616dbf8184848a01616005565b8551920191616dd18184848901616005565b919091019998505050505050505050565b60008551616df4818460208a01616005565b681e3932b1ba103c1e9160b91b9083019081528551616e1a816009840160208a01616005565b6411103c9e9160d91b600992909101918201528451616e4081600e840160208901616005565b7f222077696474683d223122206865696768743d2231222066696c6c3d22230000600e92909101918201528351616e7e81602c840160208801616005565b6211179f60e91b602c9290910191820152602f019695505050505050565b600060018201616eae57616eae616cd3565b5060010190565b6020808252602e908201527f4552433732313a2063616c6c6572206973206e6f7420746f6b656e206f776e6560408201526d1c881b9bdc88185c1c1c9bdd995960921b606082015260800190565b600060208284031215616f1557600080fd5b81516001600160401b03811115616f2b57600080fd5b8201601f81018413616f3c57600080fd5b8051616f4a616301826162bb565b818152856020838501011115616f5f57600080fd5b61399e826020830160208601616005565b7f3c672069643d2267686f73742220636c6173733d226722207374796c653d226f81526d3830b1b4ba3c9d101a98129d911f60911b602082015260008251616fbf81602e850160208701616005565b631e17b39f60e11b602e939091019283015250603201919050565b8082028115828204841417610de357610de3616cd3565b601f821115611c2c576000816000526020600020601f850160051c8101602086101561701a5750805b601f850160051c820191505b81811015615bdb57828155600101617026565b81516001600160401b0381111561705257617052616207565b617066816170608454616c89565b84616ff1565b602080601f83116001811461709b57600084156170835750858301515b600019600386901b1c1916600185901b178555615bdb565b600085815260208120601f198616915b828110156170ca578886015182559484019460019091019084016170ab565b50858210156170e85787850151600019600388901b60f8161c191681555b5050505050600190811b01905550565b6d2261747472696275746573223a5b60901b8152835160009061712281600e850160208901616005565b8083019050600b60fa1b80600e830152855161714581600f850160208a01616005565b600f9201918201528351617160816010840160208801616005565b605d60f81b6010929091019182015260110195945050505050565b6000845161718d818460208901616005565b8451908301906171a1818360208901616005565b84519101906171b4818360208801616005565b651e17b9bb339f60d11b910190815260060195945050505050565b7f22696d616765223a22646174613a696d6167652f7376672b786d6c3b626173658152620d8d0b60ea1b602082015260008251617213816023850160208701616005565b601160f91b6023939091019283015250602401919050565b757b226e616d65223a225065746572205472616974202360501b8152835160009061725d816016850160208901616005565b7f222c226465736372697074696f6e223a2254686973206973206a757374206120601691840191820152651d195cdd088b60d21b603682015284516172a981603c840160208901616005565b600b60fa1b603c929091019182015283516172cb81603d840160208801616005565b607d60f81b603d9290910191820152603e0195945050505050565b7f646174613a6170706c69636174696f6e2f6a736f6e3b6261736536342c00000081526000825161731e81601d850160208701616005565b91909101601d0192915050565b6d1e339034b21e912a3930b4ba111f60911b8152815160009061735581600e850160208701616005565b631e17b39f60e11b600e939091019283015250601201919050565b8315158152610100810161738760208301856161b1565b6001600160801b03831660e0830152949350505050565b600060c082840312156173b057600080fd5b6173b861621d565b8251815260208301516173ca816163ad565b60208201526040838101519082015260608301516173e781616068565b60608201526080838101519082015260a0830151617404816163c6565b60a08201529392505050565b60008351617422818460208801616005565b835190830190617436818360208801616005565b01949350505050565b60008351617451818460208801616005565b600b60fa1b908301908152835161746f816001840160208801616005565b01600101949350505050565b6e3d913a3930b4ba2fba3cb832911d1160891b815282516000906174a681600f850160208801616005565b6a1116113b30b63ab2911d1160a91b600f9184019182015283516174d181601a840160208801616005565b61227d60f01b601a9290910191820152601c01949350505050565b6040815260006174ff6040830185616029565b905060018060a01b03831660208301529392505050565b6040815260006175296040830185616029565b90508260208301529392505050565b60608152600061754b6060830186616029565b6001600160a01b0394909416602083015250901515604090910152919050565b60208082526032908201527f4552433732313a207472616e7366657220746f206e6f6e20455243373231526560408201527131b2b4bb32b91034b6b83632b6b2b73a32b960711b606082015260800190565b600080600080608085870312156175d357600080fd5b8451935060208501516175e581616068565b60408601519093506175f681616068565b606086015190925061760781616068565b939692955090935050565b60006020828403121561762457600080fd5b5051919050565b6001600160a01b038581168252841660208201526040810183905260806060820181905260009061694190830184616029565b60006020828403121561767057600080fd5b8151615ffe81615fcb565b60808152600061768e6080830187616029565b6001600160a01b039586166020840152939094166040820152606001529291505056fe3c7376672073686170652d72656e646572696e673d2263726973704564676573222076696577426f783d22302030203330203330222066696c6c3d226e6f6e652220786d6c6e733d22687474703a2f2f7777772e77332e6f72672f323030302f737667223e3c7374796c653e726563747b77696474683a3170783b206865696768743a203170783b7d202e62677b77696474683a333070783b206865696768743a20333070783b7d203c2f7374796c653e3c7265637420636c6173733d226267222066696c6c3d2223304436453944222f3e3d3d3d20696e76616c6964617465416c6c4f70657261746f72417070726f76616c73203d3d3d66726f6d206973203020736f2063616c6c20737570657220616e642072657475726ea264697066735822122024cd586f15336a3fe3c0a2d42d7fb2188ab7b1fb7375e5359ad223da15d3649c64736f6c63430008160033","linkReferences":{"src/TraitCategory.sol":{"TraitCategory":[{"start":8197,"length":20},{"start":13523,"length":20},{"start":19818,"length":20}]}}},"methodIdentifiers":{"approve(address,uint256)":"095ea7b3","balanceOf(address)":"70a08231","burn(uint256)":"42966c68","burnBatch(uint256[])":"e4623c1b","callGetSVGZmapAndMetadataTrait(uint256,string,string,bytes)":"f1271942","callGetSvgAndMetadataTrait(uint256,string,string)":"e08714a6","cancelOwnershipHandover()":"54d1f13d","completeOwnershipHandover(address)":"f04e283e","createSvgFromPixels(bytes)":"21b12c23","getApproved(uint256)":"081812fc","getApprovedOperators(uint256)":"00db6348","getApprovedOperatorsLength(uint256)":"c1ff78be","getCurrentEpoch()":"b97dd9e2","getEpoch()":"757991a8","getEpochData(uint256)":"859e7d32","getGhostSvg()":"5c1ef256","getSVGZmapAndMetadataTrait((uint256,bool,uint256,address,uint256,uint8),uint256)":"f901667f","getStoredTraitForTokenId(uint256)":"208c25a3","getSvgAndMetadata((uint256,uint256,uint256,uint256,uint256,uint256,uint256,uint32,uint256,uint8,string,bool))":"df2c2b88","getSvgAndMetadataTrait((uint256,bool,uint256,address,uint256,uint8),uint256)":"33a70328","getSvgForTokenId(uint256)":"c7791531","getSvgZmapsAndMetadata((uint256,uint256,uint256,uint256,uint256,uint256,uint256,uint32,uint256,uint8,string,bool))":"bb12d21d","getTrait(uint256)":"acb586df","getTraitImage(bytes)":"898aa117","getTraitImageSvg(uint256)":"a5e2912a","getTraitIndexToMetadata(uint256)":"ea139544","getTraitMetadata(uint256)":"d1bfc2af","getTraitType(uint256)":"e8a1268d","getZMapForTokenId(uint256)":"a8498c74","ghost()":"51dc7189","invalidateAllOperatorApprovals(uint256)":"90f63842","isApprovedForAll(address,address)":"e985e9c5","isMinter(address)":"aa271e1a","marketplace()":"abc8c7af","minter()":"07546172","name()":"06fdde03","onERC721Received(address,address,uint256,bytes)":"150b7a02","owner()":"8da5cb5b","ownerOf(uint256)":"6352211e","ownershipHandoverExpiresAt(address)":"fee81cf4","petersMain()":"1ca97604","renderAsDataUri(uint256)":"a1d62680","renounceOwnership()":"715018a6","requestOwnershipHandover()":"25692962","resolveEpochIfNecessary()":"239ffa68","safeMint(address)":"40d097c3","safeTransferFrom(address,address,uint256)":"42842e0e","safeTransferFrom(address,address,uint256,bytes)":"b88d4fde","setApprovalForAll(address,bool)":"a22cb465","setGhostMaps(bytes,bytes)":"e1defed9","setMarketplace(address)":"73ad6c2d","setPetersMain(address)":"a2c12c94","setTraitForTokenId(uint256,(uint256,bool,uint256,address,uint256,uint8))":"36d34ab9","setTraitIndexToMetadata(uint256,(uint256,string,uint8,string,bytes,bytes,address,address,string,string))":"8d37c537","signer()":"238ac933","supportsInterface(bytes4)":"01ffc9a7","symbol()":"95d89b41","tokenByIndex(uint256)":"4f6ccce7","tokenOfOwnerByIndex(address,uint256)":"2f745c59","tokenURI(uint256)":"c87b56dd","totalSupply()":"18160ddd","traitIdToApprovedOperators(uint256,uint256)":"11f3910d","traitIndexToMetadata(uint256)":"817a29a4","traitTokens()":"e14d026f","transferFrom(address,address,uint256)":"23b872dd","transferOwnership(address)":"f2fde38b","walletOfOwner(address)":"438b6300"},"id":45}