{"abi":[{"type":"constructor","inputs":[{"name":"localDeploy_","type":"bool","internalType":"bool"}],"stateMutability":"nonpayable"},{"type":"function","name":"addApprovedInvalidator","inputs":[{"name":"_invalidator","type":"address","internalType":"address"}],"outputs":[],"stateMutability":"nonpayable"},{"type":"function","name":"addMinter","inputs":[{"name":"_minter","type":"address","internalType":"address"}],"outputs":[],"stateMutability":"nonpayable"},{"type":"function","name":"approve","inputs":[{"name":"_operator","type":"address","internalType":"address"},{"name":"_tokenId","type":"uint256","internalType":"uint256"}],"outputs":[],"stateMutability":"nonpayable"},{"type":"function","name":"approvedInvalidators","inputs":[{"name":"","type":"address","internalType":"address"}],"outputs":[{"name":"","type":"bool","internalType":"bool"}],"stateMutability":"view"},{"type":"function","name":"balanceOf","inputs":[{"name":"owner","type":"address","internalType":"address"}],"outputs":[{"name":"","type":"uint256","internalType":"uint256"}],"stateMutability":"view"},{"type":"function","name":"burn","inputs":[{"name":"tokenId","type":"uint256","internalType":"uint256"}],"outputs":[],"stateMutability":"nonpayable"},{"type":"function","name":"burnBatch","inputs":[{"name":"tokenIds","type":"uint256[]","internalType":"uint256[]"}],"outputs":[],"stateMutability":"nonpayable"},{"type":"function","name":"callGetSVGZmapAndMetadataTrait","inputs":[{"name":"_traitId","type":"uint256","internalType":"uint256"},{"name":"_traitsSvg","type":"string","internalType":"string"},{"name":"_traitsAttributes","type":"string","internalType":"string"},{"name":"_traitZMaps","type":"bytes","internalType":"bytes"}],"outputs":[{"name":"traitsSvg","type":"string","internalType":"string"},{"name":"traitsAttributes","type":"string","internalType":"string"},{"name":"traitZMaps","type":"bytes","internalType":"bytes"}],"stateMutability":"view"},{"type":"function","name":"callGetSvgAndMetadataTrait","inputs":[{"name":"_traitId","type":"uint256","internalType":"uint256"},{"name":"_traitsSvg","type":"string","internalType":"string"},{"name":"_traitsAttributes","type":"string","internalType":"string"}],"outputs":[{"name":"traitsSvg","type":"string","internalType":"string"},{"name":"traitsAttributes","type":"string","internalType":"string"}],"stateMutability":"view"},{"type":"function","name":"cancelOwnershipHandover","inputs":[],"outputs":[],"stateMutability":"payable"},{"type":"function","name":"chonksMain","inputs":[],"outputs":[{"name":"","type":"address","internalType":"contract ChonksMain"}],"stateMutability":"view"},{"type":"function","name":"completeOwnershipHandover","inputs":[{"name":"pendingOwner","type":"address","internalType":"address"}],"outputs":[],"stateMutability":"payable"},{"type":"function","name":"createSvgFromPixels","inputs":[{"name":"_pixels","type":"bytes","internalType":"bytes"}],"outputs":[{"name":"svgParts","type":"bytes","internalType":"bytes"}],"stateMutability":"view"},{"type":"function","name":"getApproved","inputs":[{"name":"tokenId","type":"uint256","internalType":"uint256"}],"outputs":[{"name":"","type":"address","internalType":"address"}],"stateMutability":"view"},{"type":"function","name":"getApprovedOperators","inputs":[{"name":"traitId","type":"uint256","internalType":"uint256"}],"outputs":[{"name":"","type":"address[]","internalType":"address[]"}],"stateMutability":"view"},{"type":"function","name":"getCurrentEpoch","inputs":[],"outputs":[{"name":"","type":"uint256","internalType":"uint256"}],"stateMutability":"view"},{"type":"function","name":"getEpoch","inputs":[],"outputs":[{"name":"","type":"uint256","internalType":"uint256"}],"stateMutability":"view"},{"type":"function","name":"getEpochData","inputs":[{"name":"index","type":"uint256","internalType":"uint256"}],"outputs":[{"name":"","type":"tuple","internalType":"struct CommitReveal.Epoch","components":[{"name":"randomness","type":"uint128","internalType":"uint128"},{"name":"revealBlock","type":"uint64","internalType":"uint64"},{"name":"committed","type":"bool","internalType":"bool"},{"name":"revealed","type":"bool","internalType":"bool"}]}],"stateMutability":"view"},{"type":"function","name":"getGhostSvg","inputs":[],"outputs":[{"name":"svg","type":"string","internalType":"string"}],"stateMutability":"view"},{"type":"function","name":"getSVGZmapAndMetadataTrait","inputs":[{"name":"trait","type":"tuple","internalType":"struct ITraitStorage.StoredTrait","components":[{"name":"epoch","type":"uint256","internalType":"uint256"},{"name":"isRevealed","type":"bool","internalType":"bool"},{"name":"seed","type":"uint256","internalType":"uint256"},{"name":"renderMinterContract","type":"address","internalType":"address"},{"name":"traitIndex","type":"uint256","internalType":"uint256"},{"name":"traitType","type":"uint8","internalType":"enum TraitCategory.Name"}]},{"name":"traitId","type":"uint256","internalType":"uint256"}],"outputs":[{"name":"traitSvg","type":"string","internalType":"string"},{"name":"traitZmap","type":"bytes","internalType":"bytes"},{"name":"traitAttributes","type":"string","internalType":"string"}],"stateMutability":"view"},{"type":"function","name":"getStoredTraitForTokenId","inputs":[{"name":"_tokenId","type":"uint256","internalType":"uint256"}],"outputs":[{"name":"","type":"tuple","internalType":"struct ITraitStorage.StoredTrait","components":[{"name":"epoch","type":"uint256","internalType":"uint256"},{"name":"isRevealed","type":"bool","internalType":"bool"},{"name":"seed","type":"uint256","internalType":"uint256"},{"name":"renderMinterContract","type":"address","internalType":"address"},{"name":"traitIndex","type":"uint256","internalType":"uint256"},{"name":"traitType","type":"uint8","internalType":"enum TraitCategory.Name"}]}],"stateMutability":"view"},{"type":"function","name":"getSvgAndMetadata","inputs":[{"name":"storedChonk","type":"tuple","internalType":"struct IChonkStorage.StoredChonk","components":[{"name":"headId","type":"uint256","internalType":"uint256"},{"name":"hairId","type":"uint256","internalType":"uint256"},{"name":"faceId","type":"uint256","internalType":"uint256"},{"name":"accessoryId","type":"uint256","internalType":"uint256"},{"name":"topId","type":"uint256","internalType":"uint256"},{"name":"bottomId","type":"uint256","internalType":"uint256"},{"name":"shoesId","type":"uint256","internalType":"uint256"},{"name":"epoch","type":"uint32","internalType":"uint32"},{"name":"tokenId","type":"uint256","internalType":"uint256"},{"name":"bodyIndex","type":"uint8","internalType":"uint8"},{"name":"backgroundColor","type":"string","internalType":"string"},{"name":"render3D","type":"bool","internalType":"bool"}]}],"outputs":[{"name":"traitsSvg","type":"string","internalType":"string"},{"name":"traitsAttributes","type":"string","internalType":"string"}],"stateMutability":"view"},{"type":"function","name":"getSvgAndMetadataTrait","inputs":[{"name":"trait","type":"tuple","internalType":"struct ITraitStorage.StoredTrait","components":[{"name":"epoch","type":"uint256","internalType":"uint256"},{"name":"isRevealed","type":"bool","internalType":"bool"},{"name":"seed","type":"uint256","internalType":"uint256"},{"name":"renderMinterContract","type":"address","internalType":"address"},{"name":"traitIndex","type":"uint256","internalType":"uint256"},{"name":"traitType","type":"uint8","internalType":"enum TraitCategory.Name"}]},{"name":"traitId","type":"uint256","internalType":"uint256"}],"outputs":[{"name":"traitSvg","type":"string","internalType":"string"},{"name":"traitAttributes","type":"string","internalType":"string"}],"stateMutability":"view"},{"type":"function","name":"getSvgForTokenId","inputs":[{"name":"_tokenId","type":"uint256","internalType":"uint256"}],"outputs":[{"name":"traitSvg","type":"string","internalType":"string"}],"stateMutability":"view"},{"type":"function","name":"getSvgZmapsAndMetadata","inputs":[{"name":"storedChonk","type":"tuple","internalType":"struct IChonkStorage.StoredChonk","components":[{"name":"headId","type":"uint256","internalType":"uint256"},{"name":"hairId","type":"uint256","internalType":"uint256"},{"name":"faceId","type":"uint256","internalType":"uint256"},{"name":"accessoryId","type":"uint256","internalType":"uint256"},{"name":"topId","type":"uint256","internalType":"uint256"},{"name":"bottomId","type":"uint256","internalType":"uint256"},{"name":"shoesId","type":"uint256","internalType":"uint256"},{"name":"epoch","type":"uint32","internalType":"uint32"},{"name":"tokenId","type":"uint256","internalType":"uint256"},{"name":"bodyIndex","type":"uint8","internalType":"uint8"},{"name":"backgroundColor","type":"string","internalType":"string"},{"name":"render3D","type":"bool","internalType":"bool"}]}],"outputs":[{"name":"traitsSvg","type":"string","internalType":"string"},{"name":"traitZMaps","type":"bytes","internalType":"bytes"},{"name":"traitsAttributes","type":"string","internalType":"string"}],"stateMutability":"view"},{"type":"function","name":"getTrait","inputs":[{"name":"_tokenId","type":"uint256","internalType":"uint256"}],"outputs":[{"name":"","type":"tuple","internalType":"struct ITraitStorage.StoredTrait","components":[{"name":"epoch","type":"uint256","internalType":"uint256"},{"name":"isRevealed","type":"bool","internalType":"bool"},{"name":"seed","type":"uint256","internalType":"uint256"},{"name":"renderMinterContract","type":"address","internalType":"address"},{"name":"traitIndex","type":"uint256","internalType":"uint256"},{"name":"traitType","type":"uint8","internalType":"enum TraitCategory.Name"}]}],"stateMutability":"view"},{"type":"function","name":"getTraitImageSvg","inputs":[{"name":"index","type":"uint256","internalType":"uint256"}],"outputs":[{"name":"svg","type":"string","internalType":"string"}],"stateMutability":"view"},{"type":"function","name":"getTraitIndexToMetadata","inputs":[{"name":"_traitIndex","type":"uint256","internalType":"uint256"}],"outputs":[{"name":"","type":"tuple","internalType":"struct ITraitStorage.TraitMetadata","components":[{"name":"traitIndex","type":"uint256","internalType":"uint256"},{"name":"traitName","type":"string","internalType":"string"},{"name":"traitType","type":"uint8","internalType":"enum TraitCategory.Name"},{"name":"animations","type":"string","internalType":"string"},{"name":"colorMap","type":"bytes","internalType":"bytes"},{"name":"zMap","type":"bytes","internalType":"bytes"},{"name":"renderMinterContract","type":"address","internalType":"address"},{"name":"creatorAddress","type":"address","internalType":"address"},{"name":"creatorName","type":"string","internalType":"string"},{"name":"season","type":"string","internalType":"string"}]}],"stateMutability":"view"},{"type":"function","name":"getTraitMetadata","inputs":[{"name":"_tokenId","type":"uint256","internalType":"uint256"}],"outputs":[{"name":"","type":"tuple","internalType":"struct ITraitStorage.TraitMetadata","components":[{"name":"traitIndex","type":"uint256","internalType":"uint256"},{"name":"traitName","type":"string","internalType":"string"},{"name":"traitType","type":"uint8","internalType":"enum TraitCategory.Name"},{"name":"animations","type":"string","internalType":"string"},{"name":"colorMap","type":"bytes","internalType":"bytes"},{"name":"zMap","type":"bytes","internalType":"bytes"},{"name":"renderMinterContract","type":"address","internalType":"address"},{"name":"creatorAddress","type":"address","internalType":"address"},{"name":"creatorName","type":"string","internalType":"string"},{"name":"season","type":"string","internalType":"string"}]}],"stateMutability":"view"},{"type":"function","name":"getTraitType","inputs":[{"name":"_tokenId","type":"uint256","internalType":"uint256"}],"outputs":[{"name":"","type":"uint8","internalType":"enum TraitCategory.Name"}],"stateMutability":"view"},{"type":"function","name":"getZMapForTokenId","inputs":[{"name":"_tokenId","type":"uint256","internalType":"uint256"}],"outputs":[{"name":"","type":"string","internalType":"string"}],"stateMutability":"view"},{"type":"function","name":"invalidateAllOperatorApprovals","inputs":[{"name":"_tokenId","type":"uint256","internalType":"uint256"}],"outputs":[],"stateMutability":"nonpayable"},{"type":"function","name":"isApprovedForAll","inputs":[{"name":"owner","type":"address","internalType":"address"},{"name":"operator","type":"address","internalType":"address"}],"outputs":[{"name":"","type":"bool","internalType":"bool"}],"stateMutability":"view"},{"type":"function","name":"isMinter","inputs":[{"name":"","type":"address","internalType":"address"}],"outputs":[{"name":"","type":"bool","internalType":"bool"}],"stateMutability":"view"},{"type":"function","name":"marketplace","inputs":[],"outputs":[{"name":"","type":"address","internalType":"contract ChonksMarket"}],"stateMutability":"view"},{"type":"function","name":"name","inputs":[],"outputs":[{"name":"","type":"string","internalType":"string"}],"stateMutability":"view"},{"type":"function","name":"owner","inputs":[],"outputs":[{"name":"result","type":"address","internalType":"address"}],"stateMutability":"view"},{"type":"function","name":"ownerOf","inputs":[{"name":"tokenId","type":"uint256","internalType":"uint256"}],"outputs":[{"name":"","type":"address","internalType":"address"}],"stateMutability":"view"},{"type":"function","name":"ownershipHandoverExpiresAt","inputs":[{"name":"pendingOwner","type":"address","internalType":"address"}],"outputs":[{"name":"result","type":"uint256","internalType":"uint256"}],"stateMutability":"view"},{"type":"function","name":"removeApprovedInvalidator","inputs":[{"name":"_invalidator","type":"address","internalType":"address"}],"outputs":[],"stateMutability":"nonpayable"},{"type":"function","name":"removeMinter","inputs":[{"name":"_minter","type":"address","internalType":"address"}],"outputs":[],"stateMutability":"nonpayable"},{"type":"function","name":"renderAsDataUri","inputs":[{"name":"_tokenId","type":"uint256","internalType":"uint256"}],"outputs":[{"name":"","type":"string","internalType":"string"}],"stateMutability":"view"},{"type":"function","name":"renounceOwnership","inputs":[],"outputs":[],"stateMutability":"payable"},{"type":"function","name":"requestOwnershipHandover","inputs":[],"outputs":[],"stateMutability":"payable"},{"type":"function","name":"resolveEpochIfNecessary","inputs":[],"outputs":[],"stateMutability":"nonpayable"},{"type":"function","name":"safeMint","inputs":[{"name":"_to","type":"address","internalType":"address"}],"outputs":[{"name":"","type":"uint256","internalType":"uint256"}],"stateMutability":"nonpayable"},{"type":"function","name":"safeTransferFrom","inputs":[{"name":"from","type":"address","internalType":"address"},{"name":"to","type":"address","internalType":"address"},{"name":"tokenId","type":"uint256","internalType":"uint256"}],"outputs":[],"stateMutability":"nonpayable"},{"type":"function","name":"safeTransferFrom","inputs":[{"name":"from","type":"address","internalType":"address"},{"name":"to","type":"address","internalType":"address"},{"name":"tokenId","type":"uint256","internalType":"uint256"},{"name":"data","type":"bytes","internalType":"bytes"}],"outputs":[],"stateMutability":"nonpayable"},{"type":"function","name":"setApprovalForAll","inputs":[{"name":"_operator","type":"address","internalType":"address"},{"name":"_approved","type":"bool","internalType":"bool"}],"outputs":[],"stateMutability":"nonpayable"},{"type":"function","name":"setChonksMain","inputs":[{"name":"_ChonksMain","type":"address","internalType":"address"}],"outputs":[],"stateMutability":"nonpayable"},{"type":"function","name":"setGhostMaps","inputs":[{"name":"_colorMap","type":"bytes","internalType":"bytes"},{"name":"_zMap","type":"bytes","internalType":"bytes"}],"outputs":[],"stateMutability":"nonpayable"},{"type":"function","name":"setMarketplace","inputs":[{"name":"_marketplace","type":"address","internalType":"address"}],"outputs":[],"stateMutability":"nonpayable"},{"type":"function","name":"setTraitForTokenId","inputs":[{"name":"_tokenId","type":"uint256","internalType":"uint256"},{"name":"_trait","type":"tuple","internalType":"struct ITraitStorage.StoredTrait","components":[{"name":"epoch","type":"uint256","internalType":"uint256"},{"name":"isRevealed","type":"bool","internalType":"bool"},{"name":"seed","type":"uint256","internalType":"uint256"},{"name":"renderMinterContract","type":"address","internalType":"address"},{"name":"traitIndex","type":"uint256","internalType":"uint256"},{"name":"traitType","type":"uint8","internalType":"enum TraitCategory.Name"}]}],"outputs":[],"stateMutability":"nonpayable"},{"type":"function","name":"setTraitIndexToMetadata","inputs":[{"name":"_traitIndex","type":"uint256","internalType":"uint256"},{"name":"_metadata","type":"tuple","internalType":"struct ITraitStorage.TraitMetadata","components":[{"name":"traitIndex","type":"uint256","internalType":"uint256"},{"name":"traitName","type":"string","internalType":"string"},{"name":"traitType","type":"uint8","internalType":"enum TraitCategory.Name"},{"name":"animations","type":"string","internalType":"string"},{"name":"colorMap","type":"bytes","internalType":"bytes"},{"name":"zMap","type":"bytes","internalType":"bytes"},{"name":"renderMinterContract","type":"address","internalType":"address"},{"name":"creatorAddress","type":"address","internalType":"address"},{"name":"creatorName","type":"string","internalType":"string"},{"name":"season","type":"string","internalType":"string"}]}],"outputs":[],"stateMutability":"nonpayable"},{"type":"function","name":"setTraitRenderer","inputs":[{"name":"_traitRenderer","type":"address","internalType":"address"}],"outputs":[],"stateMutability":"nonpayable"},{"type":"function","name":"signer","inputs":[],"outputs":[{"name":"","type":"address","internalType":"address"}],"stateMutability":"view"},{"type":"function","name":"supportsInterface","inputs":[{"name":"interfaceId","type":"bytes4","internalType":"bytes4"}],"outputs":[{"name":"","type":"bool","internalType":"bool"}],"stateMutability":"view"},{"type":"function","name":"symbol","inputs":[],"outputs":[{"name":"","type":"string","internalType":"string"}],"stateMutability":"view"},{"type":"function","name":"tokenByIndex","inputs":[{"name":"index","type":"uint256","internalType":"uint256"}],"outputs":[{"name":"","type":"uint256","internalType":"uint256"}],"stateMutability":"view"},{"type":"function","name":"tokenOfOwnerByIndex","inputs":[{"name":"owner","type":"address","internalType":"address"},{"name":"index","type":"uint256","internalType":"uint256"}],"outputs":[{"name":"","type":"uint256","internalType":"uint256"}],"stateMutability":"view"},{"type":"function","name":"tokenURI","inputs":[{"name":"_tokenId","type":"uint256","internalType":"uint256"}],"outputs":[{"name":"","type":"string","internalType":"string"}],"stateMutability":"view"},{"type":"function","name":"totalSupply","inputs":[],"outputs":[{"name":"","type":"uint256","internalType":"uint256"}],"stateMutability":"view"},{"type":"function","name":"traitIdToApprovedOperators","inputs":[{"name":"traitId","type":"uint256","internalType":"uint256"},{"name":"","type":"uint256","internalType":"uint256"}],"outputs":[{"name":"operators","type":"address","internalType":"address"}],"stateMutability":"view"},{"type":"function","name":"traitIndexToMetadata","inputs":[{"name":"","type":"uint256","internalType":"uint256"}],"outputs":[{"name":"traitIndex","type":"uint256","internalType":"uint256"},{"name":"traitName","type":"string","internalType":"string"},{"name":"traitType","type":"uint8","internalType":"enum TraitCategory.Name"},{"name":"animations","type":"string","internalType":"string"},{"name":"colorMap","type":"bytes","internalType":"bytes"},{"name":"zMap","type":"bytes","internalType":"bytes"},{"name":"renderMinterContract","type":"address","internalType":"address"},{"name":"creatorAddress","type":"address","internalType":"address"},{"name":"creatorName","type":"string","internalType":"string"},{"name":"season","type":"string","internalType":"string"}],"stateMutability":"view"},{"type":"function","name":"traitRenderer","inputs":[],"outputs":[{"name":"","type":"address","internalType":"contract TraitRenderer"}],"stateMutability":"view"},{"type":"function","name":"traitTokens","inputs":[],"outputs":[{"name":"epoch","type":"uint256","internalType":"uint256"}],"stateMutability":"view"},{"type":"function","name":"transferFrom","inputs":[{"name":"from","type":"address","internalType":"address"},{"name":"to","type":"address","internalType":"address"},{"name":"tokenId","type":"uint256","internalType":"uint256"}],"outputs":[],"stateMutability":"nonpayable"},{"type":"function","name":"transferOwnership","inputs":[{"name":"newOwner","type":"address","internalType":"address"}],"outputs":[],"stateMutability":"payable"},{"type":"function","name":"walletOfOwner","inputs":[{"name":"_owner","type":"address","internalType":"address"}],"outputs":[{"name":"","type":"uint256[]","internalType":"uint256[]"}],"stateMutability":"view"},{"type":"event","name":"AllOperatorApprovalsInvalidated","inputs":[{"name":"tokenId","type":"uint256","indexed":true,"internalType":"uint256"}],"anonymous":false},{"type":"event","name":"Approval","inputs":[{"name":"owner","type":"address","indexed":true,"internalType":"address"},{"name":"approved","type":"address","indexed":true,"internalType":"address"},{"name":"tokenId","type":"uint256","indexed":true,"internalType":"uint256"}],"anonymous":false},{"type":"event","name":"ApprovalForAll","inputs":[{"name":"owner","type":"address","indexed":true,"internalType":"address"},{"name":"operator","type":"address","indexed":true,"internalType":"address"},{"name":"approved","type":"bool","indexed":false,"internalType":"bool"}],"anonymous":false},{"type":"event","name":"BatchMetadataUpdate","inputs":[{"name":"_fromTokenId","type":"uint256","indexed":false,"internalType":"uint256"},{"name":"_toTokenId","type":"uint256","indexed":false,"internalType":"uint256"}],"anonymous":false},{"type":"event","name":"MetadataUpdate","inputs":[{"name":"_tokenId","type":"uint256","indexed":false,"internalType":"uint256"}],"anonymous":false},{"type":"event","name":"NewEpoch","inputs":[{"name":"epoch","type":"uint256","indexed":true,"internalType":"uint256"},{"name":"revealBlock","type":"uint64","indexed":true,"internalType":"uint64"}],"anonymous":false},{"type":"event","name":"OwnershipHandoverCanceled","inputs":[{"name":"pendingOwner","type":"address","indexed":true,"internalType":"address"}],"anonymous":false},{"type":"event","name":"OwnershipHandoverRequested","inputs":[{"name":"pendingOwner","type":"address","indexed":true,"internalType":"address"}],"anonymous":false},{"type":"event","name":"OwnershipTransferred","inputs":[{"name":"oldOwner","type":"address","indexed":true,"internalType":"address"},{"name":"newOwner","type":"address","indexed":true,"internalType":"address"}],"anonymous":false},{"type":"event","name":"Transfer","inputs":[{"name":"from","type":"address","indexed":true,"internalType":"address"},{"name":"to","type":"address","indexed":true,"internalType":"address"},{"name":"tokenId","type":"uint256","indexed":true,"internalType":"uint256"}],"anonymous":false},{"type":"error","name":"AlreadyInitialized","inputs":[]},{"type":"error","name":"CantTransfer","inputs":[]},{"type":"error","name":"NewOwnerIsZeroAddress","inputs":[]},{"type":"error","name":"NoHandoverRequest","inputs":[]},{"type":"error","name":"NotATBA","inputs":[]},{"type":"error","name":"NotAValidMinterContract","inputs":[]},{"type":"error","name":"NotYourTrait","inputs":[]},{"type":"error","name":"SetChonksMainAddress","inputs":[]},{"type":"error","name":"SetMarketplaceAddress","inputs":[]},{"type":"error","name":"TraitNotFound","inputs":[{"name":"_tokenId","type":"uint256","internalType":"uint256"}]},{"type":"error","name":"TraitTokenDoesntExist","inputs":[]},{"type":"error","name":"Unauthorized","inputs":[]}],"bytecode":{"object":"0x60806040523480156200001157600080fd5b50604051620092623803806200926283398101604081905262000034916200015c565b6040518060400160405280600c81526020016b43686f6e6b2054726169747360a01b8152506040518060400160405280600c81526020016b43484f4e4b2054524149545360a01b81525081600090816200008f91906200022e565b5060016200009e82826200022e565b50506001600a5550620000b13362000112565b6016805460ff1916821515179055604051620000cd906200014e565b604051809103906000f080158015620000ea573d6000803e3d6000fd5b50600e80546001600160a01b0319166001600160a01b039290921691909117905550620002fa565b6001600160a01b0316638b78c6d8198190558060007f8be0079c531659141344cd1fd0a4f28419497f9722a3daafe3b4186f6b6457e08180a350565b612fc6806200629c83390190565b6000602082840312156200016f57600080fd5b815180151581146200018057600080fd5b9392505050565b634e487b7160e01b600052604160045260246000fd5b600181811c90821680620001b257607f821691505b602082108103620001d357634e487b7160e01b600052602260045260246000fd5b50919050565b601f82111562000229576000816000526020600020601f850160051c81016020861015620002045750805b601f850160051c820191505b81811015620002255782815560010162000210565b5050505b505050565b81516001600160401b038111156200024a576200024a62000187565b62000262816200025b84546200019d565b84620001d9565b602080601f8311600181146200029a5760008415620002815750858301515b600019600386901b1c1916600185901b17855562000225565b600085815260208120601f198616915b82811015620002cb57888601518255948401946001909101908401620002aa565b5085821015620002ea5787850151600019600388901b60f8161c191681555b5050505050600190811b01905550565b615f92806200030a6000396000f3fe6080604052600436106103f95760003560e01c80638da5cb5b11610213578063c876371b11610123578063e8a1268d116100ab578063f12719421161007a578063f127194214610d05578063f2fde38b14610d25578063f677c01314610d38578063f901667f14610d58578063fee81cf414610d7857600080fd5b8063e8a1268d14610c5c578063e985e9c514610c89578063ea13954414610cd2578063f04e283e14610cf257600080fd5b8063df2c2b88116100f2578063df2c2b8814610bc5578063e08714a614610be5578063e14d026f14610c05578063e1defed914610c1c578063e4623c1b14610c3c57600080fd5b8063c876371b14610b38578063c87b56dd14610b58578063cde2180a14610b78578063d1bfc2af14610b9857600080fd5b8063aa271e1a116101a6578063b88d4fde11610175578063b88d4fde14610aa9578063b97dd9e2146107c9578063ba7270f314610ac9578063bb12d21d14610ae9578063c779153114610b1857600080fd5b8063aa271e1a14610a09578063abc8c7af14610a39578063acb586df14610a59578063b3148f7514610a7957600080fd5b8063a1d62680116101e2578063a1d6268014610989578063a22cb465146109a9578063a5e2912a146109c9578063a8498c74146109e957600080fd5b80638da5cb5b1461091b57806390f638421461093457806395d89b4114610954578063983b2d561461096957600080fd5b806336d34ab91161030e5780636352211e116102a157806373ad6c2d1161027057806373ad6c2d146107a9578063757991a8146107c9578063817a29a4146107de578063859e7d32146108145780638d37c537146108fb57600080fd5b80636352211e1461074157806370a0823114610761578063713dbc2714610781578063715018a6146107a157600080fd5b8063438b6300116102dd578063438b6300146106d75780634f6ccce71461070457806354d1f13d146107245780635c1ef2561461072c57600080fd5b806336d34ab91461065757806340d097c31461067757806342842e0e1461069757806342966c68146106b757600080fd5b8063208c25a31161039157806323b872dd1161036057806323b872dd146105c157806325692962146105e15780632f745c59146105e95780633092afd51461060957806333a703281461062957600080fd5b8063208c25a31461053f57806321b12c231461056c578063238ac9331461058c578063239ffa68146105ac57600080fd5b8063095ea7b3116103cd578063095ea7b3146104be57806311f3910d146104e0578063120def241461050057806318160ddd1461052057600080fd5b8062db6348146103fe57806301ffc9a71461043457806306fdde0314610464578063081812fc14610486575b600080fd5b34801561040a57600080fd5b5061041e6104193660046149ff565b610dab565b60405161042b9190614a18565b60405180910390f35b34801561044057600080fd5b5061045461044f366004614a7b565b610e17565b604051901515815260200161042b565b34801561047057600080fd5b50610479610e28565b60405161042b9190614aef565b34801561049257600080fd5b506104a66104a13660046149ff565b610eba565b6040516001600160a01b03909116815260200161042b565b3480156104ca57600080fd5b506104de6104d9366004614b27565b610ee1565b005b3480156104ec57600080fd5b506104a66104fb366004614b53565b61110c565b34801561050c57600080fd5b506104de61051b366004614b75565b611144565b34801561052c57600080fd5b506008545b60405190815260200161042b565b34801561054b57600080fd5b5061055f61055a3660046149ff565b61116e565b60405161042b9190614c12565b34801561057857600080fd5b50610479610587366004614d51565b611236565b34801561059857600080fd5b50600f546104a6906001600160a01b031681565b3480156105b857600080fd5b506104de6112ac565b3480156105cd57600080fd5b506104de6105dc366004614d85565b611488565b6104de6114c7565b3480156105f557600080fd5b50610531610604366004614b27565b611516565b34801561061557600080fd5b506104de610624366004614b75565b6115ac565b34801561063557600080fd5b50610649610644366004614e6a565b6115d5565b60405161042b929190614e95565b34801561066357600080fd5b506104de610672366004614eba565b611670565b34801561068357600080fd5b50610531610692366004614b75565b611709565b3480156106a357600080fd5b506104de6106b2366004614d85565b6117aa565b3480156106c357600080fd5b506104de6106d23660046149ff565b6117c5565b3480156106e357600080fd5b506106f76106f2366004614b75565b6117ce565b60405161042b9190614ee7565b34801561071057600080fd5b5061053161071f3660046149ff565b6118e3565b6104de611976565b34801561073857600080fd5b506104796119b2565b34801561074d57600080fd5b506104a661075c3660046149ff565b611a29565b34801561076d57600080fd5b5061053161077c366004614b75565b611a89565b34801561078d57600080fd5b506104de61079c366004614b75565b611b0f565b6104de611b39565b3480156107b557600080fd5b506104de6107c4366004614b75565b611b4d565b3480156107d557600080fd5b50600c54610531565b3480156107ea57600080fd5b506107fe6107f93660046149ff565b611b77565b60405161042b9a99989796959493929190614f1f565b34801561082057600080fd5b506108b261082f3660046149ff565b6040805160808082018352600080835260208084018290528385018290526060938401829052948152600d855283902083519182018452546001600160801b03811682526001600160401b03600160801b8204169482019490945260ff600160c01b85048116151593820193909352600160c81b90930490911615159082015290565b60405161042b919081516001600160801b031681526020808301516001600160401b03169082015260408083015115159082015260609182015115159181019190915260800190565b34801561090757600080fd5b506104de610916366004614fd4565b611f0f565b34801561092757600080fd5b50638b78c6d819546104a6565b34801561094057600080fd5b506104de61094f3660046149ff565b61200e565b34801561096057600080fd5b506104796121b0565b34801561097557600080fd5b506104de610984366004614b75565b6121bf565b34801561099557600080fd5b506104796109a43660046149ff565b6121eb565b3480156109b557600080fd5b506104de6109c4366004615142565b6122de565b3480156109d557600080fd5b506104796109e43660046149ff565b61251b565b3480156109f557600080fd5b50610479610a043660046149ff565b61255d565b348015610a1557600080fd5b50610454610a24366004614b75565b60146020526000908152604090205460ff1681565b348015610a4557600080fd5b506013546104a6906001600160a01b031681565b348015610a6557600080fd5b5061055f610a743660046149ff565b612615565b348015610a8557600080fd5b50610454610a94366004614b75565b60156020526000908152604090205460ff1681565b348015610ab557600080fd5b506104de610ac436600461517b565b6127b4565b348015610ad557600080fd5b506012546104a6906001600160a01b031681565b348015610af557600080fd5b50610b09610b0436600461520b565b6127ec565b60405161042b93929190615304565b348015610b2457600080fd5b50610479610b333660046149ff565b61287b565b348015610b4457600080fd5b50600e546104a6906001600160a01b031681565b348015610b6457600080fd5b50610479610b733660046149ff565b6128d1565b348015610b8457600080fd5b506104de610b93366004614b75565b612912565b348015610ba457600080fd5b50610bb8610bb33660046149ff565b61293b565b60405161042b9190615347565b348015610bd157600080fd5b50610649610be036600461520b565b612d48565b348015610bf157600080fd5b50610649610c00366004615450565b612dd3565b348015610c1157600080fd5b50600c546105319081565b348015610c2857600080fd5b506104de610c373660046154bc565b612e80565b348015610c4857600080fd5b506104de610c5736600461551f565b612ef0565b348015610c6857600080fd5b50610c7c610c773660046149ff565b612f26565b60405161042b91906155c4565b348015610c9557600080fd5b50610454610ca43660046155d2565b6001600160a01b03918216600090815260056020908152604080832093909416825291909152205460ff1690565b348015610cde57600080fd5b50610bb8610ced3660046149ff565b613333565b6104de610d00366004614b75565b61372e565b348015610d1157600080fd5b50610b09610d20366004615600565b61376b565b6104de610d33366004614b75565b613821565b348015610d4457600080fd5b506104de610d53366004614b75565b613848565b348015610d6457600080fd5b50610b09610d73366004614e6a565b613874565b348015610d8457600080fd5b50610531610d93366004614b75565b63389a75e1600c908152600091909152602090205490565b600081815260116020908152604091829020805483518184028101840190945280845260609392830182828015610e0b57602002820191906000526020600020905b81546001600160a01b03168152600190910190602001808311610ded575b50505050509050919050565b6000610e2282613913565b92915050565b606060008054610e3790615685565b80601f0160208091040260200160405190810160405280929190818152602001828054610e6390615685565b8015610eb05780601f10610e8557610100808354040283529160200191610eb0565b820191906000526020600020905b815481529060010190602001808311610e9357829003601f168201915b5050505050905090565b6000610ec582613938565b506000908152600460205260409020546001600160a01b031690565b6000818152600260205260409020546001600160a01b0316610f1657604051632df0e24560e21b815260040160405180910390fd5b33610f2082611a29565b6001600160a01b031614610f4757604051633e79b9f360e01b815260040160405180910390fd5b6001600160a01b038216611068576000818152601160205260408120905b815481101561106157836001600160a01b0316828281548110610f8a57610f8a6156b9565b6000918252602090912001546001600160a01b0316036110595781548290610fb4906001906156e5565b81548110610fc457610fc46156b9565b9060005260206000200160009054906101000a90046001600160a01b0316828281548110610ff457610ff46156b9565b9060005260206000200160006101000a8154816001600160a01b0302191690836001600160a01b0316021790555081805480611032576110326156f8565b600082815260209020810160001990810180546001600160a01b0319169055019055611061565b600101610f65565b50506110fe565b600081815260116020526040812090805b82548110156110c957846001600160a01b031683828154811061109e5761109e6156b9565b6000918252602090912001546001600160a01b0316036110c157600191506110c9565b600101611079565b50806110fb5781546001810183556000838152602090200180546001600160a01b0319166001600160a01b0386161790555b50505b6111088282613997565b5050565b6011602052816000526040600020818154811061112857600080fd5b6000918252602090912001546001600160a01b03169150829050565b61114c613aa7565b600e80546001600160a01b0319166001600160a01b0392909216919091179055565b6111a46040805160c08101825260008082526020820181905291810182905260608101829052608081018290529060a082015290565b6000828152600b6020908152604091829020825160c08101845281548152600182015460ff90811615159382019390935260028201549381019390935260038101546001600160a01b03166060840152600481015460808401526005810154909160a084019116600781111561121c5761121c614b92565b600781111561122d5761122d614b92565b90525092915050565b600e546040516321b12c2360e01b81526060916001600160a01b0316906321b12c2390611267908590600401614aef565b600060405180830381865afa158015611284573d6000803e3d6000fd5b505050506040513d6000823e601f3d908101601f19168201604052610e229190810190615753565b600c546000908152600d602052604090208054600160c01b900460ff16158061130457508054600160c81b900460ff1615801561130457506112f0610100436156e5565b8154600160801b90046001600160401b0316105b1561134f57611314436032615787565b815460ff60c01b196001600160401b0392909216600160801b029190911668ffffffffffffffffff60801b1990911617600160c01b17815550565b8054600160801b90046001600160401b031643111561148557805460408051600160801b9092046001600160401b031640602083015244908201526001600160801b03906060016040516020818303038152906040528051906020012060001c6113b9919061579a565b8154600160c81b6001600160801b039290921679ff000000000000000000ffffffffffffffffffffffffffffffff199091161717808255600c54604051600160801b9092046001600160401b0316917f78611aecfda8d341359c248df527c95aef93d446c92bb928b2a81b7abcb1d8d990600090a3604080516000815260001960208201527f6bd5c950a8d8df17f772f5af37cb3655737899cbf903264b9795592da439661c910160405180910390a1600c8054600090611479906157bc565b909155506114856112ac565b50565b6114923382613ac2565b6114b75760405162461bcd60e51b81526004016114ae906157d5565b60405180910390fd5b6114c2838383613b40565b505050565b60006202a3006001600160401b03164201905063389a75e1600c5233600052806020600c2055337fdbf36a107da19e49527a7176a1babf963b4b0ff8cde35ee35d6cd8f1f9ac7e1d600080a250565b600061152183611a89565b82106115835760405162461bcd60e51b815260206004820152602b60248201527f455243373231456e756d657261626c653a206f776e657220696e646578206f7560448201526a74206f6620626f756e647360a81b60648201526084016114ae565b506001600160a01b03919091166000908152600660209081526040808320938352929052205490565b6115b4613aa7565b6001600160a01b03166000908152601460205260409020805460ff19169055565b600e5460808301516000908152601060205260409081902090516317de5cbf60e11b815260609283926001600160a01b0390911691632fbcb97e91611620918891889160040161597e565b600060405180830381865afa15801561163d573d6000803e3d6000fd5b505050506040513d6000823e601f3d908101601f1916820160405261166591908101906159a5565b915091509250929050565b6000828152600b602090815260409182902083518155908301516001808301805492151560ff1993841617905592840151600283015560608401516003830180546001600160a01b039092166001600160a01b03199092169190911790556080840151600483015560a08401516005830180548695929391929116908360078111156116fe576116fe614b92565b021790555050505050565b3360008181526014602052604081205490919060ff1661173c5760405163090a0b6960e21b815260040160405180910390fd5b6117446112ac565b600061174f60085490565b61175a906001615787565b90506117668482613ced565b604080516000815260001960208201527f6bd5c950a8d8df17f772f5af37cb3655737899cbf903264b9795592da439661c910160405180910390a191505b50919050565b6114c2838383604051806020016040528060008152506127b4565b61148581613d07565b606061180b6040518060400160405280601181526020017062616c616e63654f66285f6f776e65722960781b81525061180684611a89565b613db6565b600061181683611a89565b90506000816001600160401b0381111561183257611832614c20565b60405190808252806020026020018201604052801561185b578160200160208202803683370190505b50905060005b828110156118db576118ac6040518060400160405280601e81526020017f746f6b656e4f664f776e65724279496e646578285f6f776e65722c20692900008152506118068784611516565b6118b68582611516565b8282815181106118c8576118c86156b9565b6020908102919091010152600101611861565b509392505050565b60006118ee60085490565b82106119515760405162461bcd60e51b815260206004820152602c60248201527f455243373231456e756d657261626c653a20676c6f62616c20696e646578206f60448201526b7574206f6620626f756e647360a01b60648201526084016114ae565b60088281548110611964576119646156b9565b90600052602060002001549050919050565b63389a75e1600c523360005260006020600c2055337ffa7b8eab7da67f412cc9575ed43464468f9bfbae89d1675917346ca6d8fe3c92600080a2565b600e5460408051632e0f792b60e11b815290516060926001600160a01b031691635c1ef2569160048083019260009291908290030181865afa1580156119fc573d6000803e3d6000fd5b505050506040513d6000823e601f3d908101601f19168201604052611a249190810190615753565b905090565b6000818152600260205260408120546001600160a01b031680610e225760405162461bcd60e51b8152602060048201526018602482015277115490cdcc8c4e881a5b9d985b1a59081d1bdad95b88125160421b60448201526064016114ae565b60006001600160a01b038216611af35760405162461bcd60e51b815260206004820152602960248201527f4552433732313a2061646472657373207a65726f206973206e6f7420612076616044820152683634b21037bbb732b960b91b60648201526084016114ae565b506001600160a01b031660009081526003602052604090205490565b611b17613aa7565b601280546001600160a01b0319166001600160a01b0392909216919091179055565b611b41613aa7565b611b4b6000613dfb565b565b611b55613aa7565b601380546001600160a01b0319166001600160a01b0392909216919091179055565b60106020526000908152604090208054600182018054919291611b9990615685565b80601f0160208091040260200160405190810160405280929190818152602001828054611bc590615685565b8015611c125780601f10611be757610100808354040283529160200191611c12565b820191906000526020600020905b815481529060010190602001808311611bf557829003601f168201915b5050506002840154600385018054949560ff909216949193509150611c3690615685565b80601f0160208091040260200160405190810160405280929190818152602001828054611c6290615685565b8015611caf5780601f10611c8457610100808354040283529160200191611caf565b820191906000526020600020905b815481529060010190602001808311611c9257829003601f168201915b505050505090806004018054611cc490615685565b80601f0160208091040260200160405190810160405280929190818152602001828054611cf090615685565b8015611d3d5780601f10611d1257610100808354040283529160200191611d3d565b820191906000526020600020905b815481529060010190602001808311611d2057829003601f168201915b505050505090806005018054611d5290615685565b80601f0160208091040260200160405190810160405280929190818152602001828054611d7e90615685565b8015611dcb5780601f10611da057610100808354040283529160200191611dcb565b820191906000526020600020905b815481529060010190602001808311611dae57829003601f168201915b5050506006840154600785015460088601805495966001600160a01b0393841696929093169450919250611dfe90615685565b80601f0160208091040260200160405190810160405280929190818152602001828054611e2a90615685565b8015611e775780601f10611e4c57610100808354040283529160200191611e77565b820191906000526020600020905b815481529060010190602001808311611e5a57829003601f168201915b505050505090806009018054611e8c90615685565b80601f0160208091040260200160405190810160405280929190818152602001828054611eb890615685565b8015611f055780601f10611eda57610100808354040283529160200191611f05565b820191906000526020600020905b815481529060010190602001808311611ee857829003601f168201915b505050505090508a565b600082815260106020908152604090912082518155908201518291906001820190611f3a9082615a46565b50604082015160028201805460ff19166001836007811115611f5e57611f5e614b92565b021790555060608201516003820190611f779082615a46565b5060808201516004820190611f8c9082615a46565b5060a08201516005820190611fa19082615a46565b5060c08201516006820180546001600160a01b039283166001600160a01b03199182161790915560e08401516007840180549190931691161790556101008201516008820190611ff19082615a46565b5061012082015160098201906120079082615a46565b5050505050565b6000818152600260205260409020546001600160a01b031661204357604051632df0e24560e21b815260040160405180910390fd5b3361204d82611a29565b6001600160a01b03161415801561206f57506012546001600160a01b03163314155b801561208b57503360009081526015602052604090205460ff16155b156120a957604051633e79b9f360e01b815260040160405180910390fd5b60008181526011602090815260408083208054825181850281018501909352808352919290919083018282801561210957602002820191906000526020600020905b81546001600160a01b031681526001909101906020018083116120eb575b50505050509050805160000361211d575050565b612128600083613e39565b60005b81518110156121695761216161214084611a29565b838381518110612152576121526156b9565b60200260200101516000613ea7565b60010161212b565b50600082815260116020526040812061218191614963565b60405182907fe6727257e6b1474b2ced9b705eafa89027508be445f1a76db669635c92f5242090600090a25050565b606060018054610e3790615685565b6121c7613aa7565b6001600160a01b03166000908152601460205260409020805460ff19166001179055565b606060006121f883612615565b90506000816020015161222e576040518060400160405280600b81526020016a1e39bb339f1e17b9bb339f60a91b81525061223b565b61223b826080015161251b565b600e54608084015160009081526010602052604090209192506001600160a01b03169063a5e11e0590869085906122706119b2565b866040518663ffffffff1660e01b8152600401612291959493929190615b05565b600060405180830381865afa1580156122ae573d6000803e3d6000fd5b505050506040513d6000823e601f3d908101601f191682016040526122d69190810190615753565b949350505050565b336001600160a01b038316036123325760405162461bcd60e51b815260206004820152601960248201527822a9219b99189d1030b8383937bb32903a379031b0b63632b960391b60448201526064016114ae565b600061233d33611a89565b905060005b818110156125105760006123563383611516565b905083156123f857600081815260116020526040812090805b82548110156123bf57876001600160a01b0316838281548110612394576123946156b9565b6000918252602090912001546001600160a01b0316036123b757600191506123bf565b60010161236f565b50806123f15781546001810183556000838152602090200180546001600160a01b0319166001600160a01b0389161790555b5050612507565b6000818152601160205260408120905b815481101561250457866001600160a01b031682828154811061242d5761242d6156b9565b6000918252602090912001546001600160a01b0316036124fc5781548290612457906001906156e5565b81548110612467576124676156b9565b9060005260206000200160009054906101000a90046001600160a01b0316828281548110612497576124976156b9565b9060005260206000200160006101000a8154816001600160a01b0302191690836001600160a01b03160217905550818054806124d5576124d56156f8565b600082815260209020810160001990810180546001600160a01b0319169055019055612504565b600101612408565b50505b50600101612342565b506114c28383613f71565b600e54600082815260106020526040908190209051631349027b60e31b81526060926001600160a01b031691639a4813d8916112679160049081019101615b56565b6060600061256a83612615565b6080810151600090815260106020526040902060050180549192509061258f90615685565b80601f01602080910402602001604051908101604052809291908181526020018280546125bb90615685565b80156126085780601f106125dd57610100808354040283529160200191612608565b820191906000526020600020905b8154815290600101906020018083116125eb57829003601f168201915b5050505050915050919050565b61264b6040805160c08101825260008082526020820181905291810182905260608101829052608081018290529060a082015290565b6000828152600b60209081526040808320815160c08101835281548152600182015460ff90811615159482019490945260028201549281019290925260038101546001600160a01b031660608301526004810154608083015260058101549192909160a08401911660078111156126c4576126c4614b92565b60078111156126d5576126d5614b92565b90525080516000908152600d602052604090205460608201519192506001600160801b0316906001600160a01b03811615801561271457506040830151155b156127355760405163082d451d60e01b8152600481018690526024016114ae565b60165460405163687d69df60e11b81526001600160a01b0383169163d0fad3be9161276a9160ff169087908790600401615b69565b60c060405180830381865afa158015612787573d6000803e3d6000fd5b505050506040513d601f19601f820116820180604052508101906127ab9190615b97565b95945050505050565b6127be3383613ac2565b6127da5760405162461bcd60e51b81526004016114ae906157d5565b6127e684848484613f7c565b50505050565b600e54604051635ab38bf760e01b8152606091829182916001600160a01b031690635ab38bf790612829908790309063f127194290600401615cba565b600060405180830381865afa158015612846573d6000803e3d6000fd5b505050506040513d6000823e601f3d908101601f1916820160405261286e9190810190615cec565b9250925092509193909250565b6060600061288883612615565b90508060200151156128a8576128a1816080015161251b565b91506117a4565b505060408051808201909152600b81526a1e39bb339f1e17b9bb339f60a91b6020820152919050565b6000818152600260205260409020546060906001600160a01b031661290957604051632df0e24560e21b815260040160405180910390fd5b610e22826121eb565b61291a613aa7565b6001600160a01b03166000908152601560205260409020805460ff19169055565b612943614981565b600061294e83612615565b90506010600082608001518152602001908152602001600020604051806101400160405290816000820154815260200160018201805461298d90615685565b80601f01602080910402602001604051908101604052809291908181526020018280546129b990615685565b8015612a065780601f106129db57610100808354040283529160200191612a06565b820191906000526020600020905b8154815290600101906020018083116129e957829003601f168201915b5050509183525050600282015460209091019060ff166007811115612a2d57612a2d614b92565b6007811115612a3e57612a3e614b92565b8152602001600382018054612a5290615685565b80601f0160208091040260200160405190810160405280929190818152602001828054612a7e90615685565b8015612acb5780601f10612aa057610100808354040283529160200191612acb565b820191906000526020600020905b815481529060010190602001808311612aae57829003601f168201915b50505050508152602001600482018054612ae490615685565b80601f0160208091040260200160405190810160405280929190818152602001828054612b1090615685565b8015612b5d5780601f10612b3257610100808354040283529160200191612b5d565b820191906000526020600020905b815481529060010190602001808311612b4057829003601f168201915b50505050508152602001600582018054612b7690615685565b80601f0160208091040260200160405190810160405280929190818152602001828054612ba290615685565b8015612bef5780601f10612bc457610100808354040283529160200191612bef565b820191906000526020600020905b815481529060010190602001808311612bd257829003601f168201915b505050918352505060068201546001600160a01b0390811660208301526007830154166040820152600882018054606090920191612c2c90615685565b80601f0160208091040260200160405190810160405280929190818152602001828054612c5890615685565b8015612ca55780601f10612c7a57610100808354040283529160200191612ca5565b820191906000526020600020905b815481529060010190602001808311612c8857829003601f168201915b50505050508152602001600982018054612cbe90615685565b80601f0160208091040260200160405190810160405280929190818152602001828054612cea90615685565b8015612d375780601f10612d0c57610100808354040283529160200191612d37565b820191906000526020600020905b815481529060010190602001808311612d1a57829003601f168201915b505050505081525050915050919050565b600e546040516338ce943360e01b815260609182916001600160a01b03909116906338ce943390612d85908690309063e08714a690600401615cba565b600060405180830381865afa158015612da2573d6000803e3d6000fd5b505050506040513d6000823e601f3d908101601f19168201604052612dca91908101906159a5565b91509150915091565b6060806000612de186612615565b600e546080820151600090815260106020526040908190209051630a6ab71760e21b81529293506001600160a01b03909116916329aadc5c91612e2e918a918a918a918891600401615d69565b600060405180830381865afa158015612e4b573d6000803e3d6000fd5b505050506040513d6000823e601f3d908101601f19168201604052612e7391908101906159a5565b9250925050935093915050565b612e88613aa7565b600e5460405163e1defed960e01b81526001600160a01b039091169063e1defed990612eba9085908590600401614e95565b600060405180830381600087803b158015612ed457600080fd5b505af1158015612ee8573d6000803e3d6000fd5b505050505050565b60005b815181101561110857612f1e828281518110612f1157612f116156b9565b6020026020010151613d07565b600101612ef3565b600080612f3283612615565b9050600060106000836080015181526020019081526020016000206040518061014001604052908160008201548152602001600182018054612f7390615685565b80601f0160208091040260200160405190810160405280929190818152602001828054612f9f90615685565b8015612fec5780601f10612fc157610100808354040283529160200191612fec565b820191906000526020600020905b815481529060010190602001808311612fcf57829003601f168201915b5050509183525050600282015460209091019060ff16600781111561301357613013614b92565b600781111561302457613024614b92565b815260200160038201805461303890615685565b80601f016020809104026020016040519081016040528092919081815260200182805461306490615685565b80156130b15780601f10613086576101008083540402835291602001916130b1565b820191906000526020600020905b81548152906001019060200180831161309457829003601f168201915b505050505081526020016004820180546130ca90615685565b80601f01602080910402602001604051908101604052809291908181526020018280546130f690615685565b80156131435780601f1061311857610100808354040283529160200191613143565b820191906000526020600020905b81548152906001019060200180831161312657829003601f168201915b5050505050815260200160058201805461315c90615685565b80601f016020809104026020016040519081016040528092919081815260200182805461318890615685565b80156131d55780601f106131aa576101008083540402835291602001916131d5565b820191906000526020600020905b8154815290600101906020018083116131b857829003601f168201915b505050918352505060068201546001600160a01b039081166020830152600783015416604082015260088201805460609092019161321290615685565b80601f016020809104026020016040519081016040528092919081815260200182805461323e90615685565b801561328b5780601f106132605761010080835404028352916020019161328b565b820191906000526020600020905b81548152906001019060200180831161326e57829003601f168201915b505050505081526020016009820180546132a490615685565b80601f01602080910402602001604051908101604052809291908181526020018280546132d090615685565b801561331d5780601f106132f25761010080835404028352916020019161331d565b820191906000526020600020905b81548152906001019060200180831161330057829003601f168201915b5050509190925250505060400151949350505050565b61333b614981565b60106000838152602001908152602001600020604051806101400160405290816000820154815260200160018201805461337490615685565b80601f01602080910402602001604051908101604052809291908181526020018280546133a090615685565b80156133ed5780601f106133c2576101008083540402835291602001916133ed565b820191906000526020600020905b8154815290600101906020018083116133d057829003601f168201915b5050509183525050600282015460209091019060ff16600781111561341457613414614b92565b600781111561342557613425614b92565b815260200160038201805461343990615685565b80601f016020809104026020016040519081016040528092919081815260200182805461346590615685565b80156134b25780601f10613487576101008083540402835291602001916134b2565b820191906000526020600020905b81548152906001019060200180831161349557829003601f168201915b505050505081526020016004820180546134cb90615685565b80601f01602080910402602001604051908101604052809291908181526020018280546134f790615685565b80156135445780601f1061351957610100808354040283529160200191613544565b820191906000526020600020905b81548152906001019060200180831161352757829003601f168201915b5050505050815260200160058201805461355d90615685565b80601f016020809104026020016040519081016040528092919081815260200182805461358990615685565b80156135d65780601f106135ab576101008083540402835291602001916135d6565b820191906000526020600020905b8154815290600101906020018083116135b957829003601f168201915b505050918352505060068201546001600160a01b039081166020830152600783015416604082015260088201805460609092019161361390615685565b80601f016020809104026020016040519081016040528092919081815260200182805461363f90615685565b801561368c5780601f106136615761010080835404028352916020019161368c565b820191906000526020600020905b81548152906001019060200180831161366f57829003601f168201915b505050505081526020016009820180546136a590615685565b80601f01602080910402602001604051908101604052809291908181526020018280546136d190615685565b801561371e5780601f106136f35761010080835404028352916020019161371e565b820191906000526020600020905b81548152906001019060200180831161370157829003601f168201915b5050505050815250509050919050565b613736613aa7565b63389a75e1600c52806000526020600c20805442111561375e57636f5e88186000526004601cfd5b6000905561148581613dfb565b6060806060600061377b88612615565b600e54608082015160009081526010602052604090819020905163aeea03e560e01b81529293506001600160a01b039091169163aeea03e5916137cb918c918c918c918c91899190600401615db9565b600060405180830381865afa1580156137e8573d6000803e3d6000fd5b505050506040513d6000823e601f3d908101601f191682016040526138109190810190615cec565b935093509350509450945094915050565b613829613aa7565b8060601b61383f57637448fbae6000526004601cfd5b61148581613dfb565b613850613aa7565b6001600160a01b03166000908152601560205260409020805460ff19166001179055565b600e5460808301516000908152601060205260409081902090516330235ddd60e21b8152606092839283926001600160a01b039092169163c08d7774916138c1918991899160040161597e565b600060405180830381865afa1580156138de573d6000803e3d6000fd5b505050506040513d6000823e601f3d908101601f191682016040526139069190810190615cec565b9250925092509250925092565b60006001600160e01b0319821663780e9d6360e01b1480610e225750610e2282613faf565b6000818152600260205260409020546001600160a01b03166114855760405162461bcd60e51b8152602060048201526018602482015277115490cdcc8c4e881a5b9d985b1a59081d1bdad95b88125160421b60448201526064016114ae565b60006139a282611a29565b9050806001600160a01b0316836001600160a01b031603613a0f5760405162461bcd60e51b815260206004820152602160248201527f4552433732313a20617070726f76616c20746f2063757272656e74206f776e656044820152603960f91b60648201526084016114ae565b336001600160a01b0382161480613a2b5750613a2b8133610ca4565b613a9d5760405162461bcd60e51b815260206004820152603e60248201527f4552433732313a20617070726f76652063616c6c6572206973206e6f7420746f60448201527f6b656e206f776e6572206e6f7220617070726f76656420666f7220616c6c000060648201526084016114ae565b6114c28383613e39565b638b78c6d819543314611b4b576382b429006000526004601cfd5b600080613ace83611a29565b9050806001600160a01b0316846001600160a01b03161480613b1557506001600160a01b0380821660009081526005602090815260408083209388168352929052205460ff165b806122d65750836001600160a01b0316613b2e84610eba565b6001600160a01b031614949350505050565b826001600160a01b0316613b5382611a29565b6001600160a01b031614613bb75760405162461bcd60e51b815260206004820152602560248201527f4552433732313a207472616e736665722066726f6d20696e636f72726563742060448201526437bbb732b960d91b60648201526084016114ae565b6001600160a01b038216613c195760405162461bcd60e51b8152602060048201526024808201527f4552433732313a207472616e7366657220746f20746865207a65726f206164646044820152637265737360e01b60648201526084016114ae565b613c24838383613fff565b613c2f600082613e39565b6001600160a01b0383166000908152600360205260408120805460019290613c589084906156e5565b90915550506001600160a01b0382166000908152600360205260408120805460019290613c86908490615787565b909155505060008181526002602052604080822080546001600160a01b0319166001600160a01b0386811691821790925591518493918716917fddf252ad1be2c89b69c2b068fc378daa952ba7f163c4a11628f55a4df523b3ef91a46114c2838383614180565b6111088282604051806020016040528060008152506142c9565b6000613d1282611a29565b9050613d2081600084613fff565b613d2b600083613e39565b6001600160a01b0381166000908152600360205260408120805460019290613d549084906156e5565b909155505060008281526002602052604080822080546001600160a01b0319169055518391906001600160a01b038416907fddf252ad1be2c89b69c2b068fc378daa952ba7f163c4a11628f55a4df523b3ef908390a461110881600084614180565b6111088282604051602401613dcc929190615e2a565b60408051601f198184030181529190526020810180516001600160e01b03166309710a9d60e41b1790526142fc565b638b78c6d81980546001600160a01b039092169182907f8be0079c531659141344cd1fd0a4f28419497f9722a3daafe3b4186f6b6457e0600080a355565b600081815260046020526040902080546001600160a01b0319166001600160a01b0384169081179091558190613e6e82611a29565b6001600160a01b03167f8c5be1e5ebec7d5bd14f71427d1e84f3dd0314c0f7b2291e5b200ac8c7c3b92560405160405180910390a45050565b816001600160a01b0316836001600160a01b031603613f045760405162461bcd60e51b815260206004820152601960248201527822a9219b99189d1030b8383937bb32903a379031b0b63632b960391b60448201526064016114ae565b6001600160a01b03838116600081815260056020908152604080832094871680845294825291829020805460ff191686151590811790915591519182527f17307eab39ab6107e8899845ad3d59bd9653f200f220920489ca2b5937696c31910160405180910390a3505050565b611108338383613ea7565b613f87848484613b40565b613f938484848461431d565b6127e65760405162461bcd60e51b81526004016114ae90615e4c565b60006001600160e01b031982166380ac58cd60e01b1480613fe057506001600160e01b03198216635b5e139f60e01b145b80610e2257506301ffc9a760e01b6001600160e01b0319831614610e22565b6001600160a01b038316614018576114c283838361441e565b601354604051634f6088cd60e01b8152600481018390526000916001600160a01b031690634f6088cd90602401608060405180830381865afa158015614062573d6000803e3d6000fd5b505050506040513d601f19601f820116820180604052508101906140869190615e9e565b5090925050506001600160a01b038116156140c6576013546001600160a01b031633146140c65760405163bf646b0f60e01b815260040160405180910390fd5b6001600160a01b0383166140e9576140de82846144d6565b6127e684848461441e565b60125460405162525fcd60e91b81526001600160a01b0385811660048301529091169063a4bf9a0090602401602060405180830381865afa158015614132573d6000803e3d6000fd5b505050506040513d601f19601f820116820180604052508101906141569190615ef3565b600003614176576040516326a45c0160e21b815260040160405180910390fd5b6140de82846144d6565b6012546001600160a01b03166141a957604051632d51864760e01b815260040160405180910390fd5b6013546001600160a01b03166141d25760405163382eb47160e21b815260040160405180910390fd5b6001600160a01b0383166141e557505050565b60006141f082611a29565b60125460405162525fcd60e91b81526001600160a01b0380841660048301529293506000929091169063a4bf9a0090602401602060405180830381865afa15801561423f573d6000803e3d6000fd5b505050506040513d601f19601f820116820180604052508101906142639190615ef3565b60135460405163236313ff60e11b8152600481018390529192506001600160a01b0316906346c627fe90602401600060405180830381600087803b1580156142aa57600080fd5b505af11580156142be573d6000803e3d6000fd5b505050505050505050565b6142d3838361467d565b6142e0600084848461431d565b6114c25760405162461bcd60e51b81526004016114ae90615e4c565b80516a636f6e736f6c652e6c6f67602083016000808483855afa5050505050565b60006001600160a01b0384163b1561441357604051630a85bd0160e11b81526001600160a01b0385169063150b7a0290614361903390899088908890600401615f0c565b6020604051808303816000875af192505050801561439c575060408051601f3d908101601f1916820190925261439991810190615f3f565b60015b6143f9573d8080156143ca576040519150601f19603f3d011682016040523d82523d6000602084013e6143cf565b606091505b5080516000036143f15760405162461bcd60e51b81526004016114ae90615e4c565b805181602001fd5b6001600160e01b031916630a85bd0160e11b1490506122d6565b506001949350505050565b6001600160a01b0383166144795761447481600880546000838152600960205260408120829055600182018355919091527ff3f7a9fe364faab93b216da50a3214154f22a0a2b415b23a84c8169e8b636ee30155565b61449c565b816001600160a01b0316836001600160a01b03161461449c5761449c83826147d3565b6001600160a01b0382166144b3576114c281614870565b826001600160a01b0316826001600160a01b0316146114c2576114c2828261491f565b60006144e183611a29565b60125460405162525fcd60e91b81526001600160a01b0380841660048301529293506000929091169063a4bf9a0090602401602060405180830381865afa158015614530573d6000803e3d6000fd5b505050506040513d601f19601f820116820180604052508101906145549190615ef3565b60135460405163236313ff60e11b8152600481018390529192506001600160a01b0316906346c627fe90602401600060405180830381600087803b15801561459b57600080fd5b505af11580156145af573d6000803e3d6000fd5b5050601354604051632e1d274f60e01b8152600481018890526001600160a01b039091169250632e1d274f9150602401600060405180830381600087803b1580156145f957600080fd5b505af115801561460d573d6000803e3d6000fd5b50506013546040516302fbe78f60e41b8152600481018890526001600160a01b0387811660248301529091169250632fbe78f09150604401600060405180830381600087803b15801561465f57600080fd5b505af1158015614673573d6000803e3d6000fd5b5050505050505050565b6001600160a01b0382166146d35760405162461bcd60e51b815260206004820181905260248201527f4552433732313a206d696e7420746f20746865207a65726f206164647265737360448201526064016114ae565b6000818152600260205260409020546001600160a01b0316156147385760405162461bcd60e51b815260206004820152601c60248201527f4552433732313a20746f6b656e20616c7265616479206d696e7465640000000060448201526064016114ae565b61474460008383613fff565b6001600160a01b038216600090815260036020526040812080546001929061476d908490615787565b909155505060008181526002602052604080822080546001600160a01b0319166001600160a01b03861690811790915590518392907fddf252ad1be2c89b69c2b068fc378daa952ba7f163c4a11628f55a4df523b3ef908290a461110860008383614180565b600060016147e084611a89565b6147ea91906156e5565b60008381526007602052604090205490915080821461483d576001600160a01b03841660009081526006602090815260408083208584528252808320548484528184208190558352600790915290208190555b5060009182526007602090815260408084208490556001600160a01b039094168352600681528383209183525290812055565b600854600090614882906001906156e5565b600083815260096020526040812054600880549394509092849081106148aa576148aa6156b9565b9060005260206000200154905080600883815481106148cb576148cb6156b9565b6000918252602080832090910192909255828152600990915260408082208490558582528120556008805480614903576149036156f8565b6001900381819060005260206000200160009055905550505050565b600061492a83611a89565b6001600160a01b039093166000908152600660209081526040808320868452825280832085905593825260079052919091209190915550565b508054600082559060005260206000209081019061148591906149e6565b60408051610140810182526000808252606060208301529091820190815260200160608152602001606081526020016060815260200160006001600160a01b0316815260200160006001600160a01b0316815260200160608152602001606081525090565b5b808211156149fb57600081556001016149e7565b5090565b600060208284031215614a1157600080fd5b5035919050565b6020808252825182820181905260009190848201906040850190845b81811015614a595783516001600160a01b031683529284019291840191600101614a34565b50909695505050505050565b6001600160e01b03198116811461148557600080fd5b600060208284031215614a8d57600080fd5b8135614a9881614a65565b9392505050565b60005b83811015614aba578181015183820152602001614aa2565b50506000910152565b60008151808452614adb816020860160208601614a9f565b601f01601f19169290920160200192915050565b602081526000614a986020830184614ac3565b6001600160a01b038116811461148557600080fd5b8035614b2281614b02565b919050565b60008060408385031215614b3a57600080fd5b8235614b4581614b02565b946020939093013593505050565b60008060408385031215614b6657600080fd5b50508035926020909101359150565b600060208284031215614b8757600080fd5b8135614a9881614b02565b634e487b7160e01b600052602160045260246000fd5b60088110614bc657634e487b7160e01b600052602160045260246000fd5b9052565b805182526020810151151560208301526040810151604083015260018060a01b0360608201511660608301526080810151608083015260a08101516114c260a0840182614ba8565b60c08101610e228284614bca565b634e487b7160e01b600052604160045260246000fd5b60405160c081016001600160401b0381118282101715614c5857614c58614c20565b60405290565b60405161014081016001600160401b0381118282101715614c5857614c58614c20565b60405161018081016001600160401b0381118282101715614c5857614c58614c20565b604051601f8201601f191681016001600160401b0381118282101715614ccc57614ccc614c20565b604052919050565b60006001600160401b03821115614ced57614ced614c20565b50601f01601f191660200190565b600082601f830112614d0c57600080fd5b8135614d1f614d1a82614cd4565b614ca4565b818152846020838601011115614d3457600080fd5b816020850160208301376000918101602001919091529392505050565b600060208284031215614d6357600080fd5b81356001600160401b03811115614d7957600080fd5b6122d684828501614cfb565b600080600060608486031215614d9a57600080fd5b8335614da581614b02565b92506020840135614db581614b02565b929592945050506040919091013590565b801515811461148557600080fd5b8035614b2281614dc6565b6008811061148557600080fd5b8035614b2281614ddf565b600060c08284031215614e0957600080fd5b614e11614c36565b9050813581526020820135614e2581614dc6565b6020820152604082810135908201526060820135614e4281614b02565b60608201526080828101359082015260a0820135614e5f81614ddf565b60a082015292915050565b60008060e08385031215614e7d57600080fd5b614e878484614df7565b9460c0939093013593505050565b604081526000614ea86040830185614ac3565b82810360208401526127ab8185614ac3565b60008060e08385031215614ecd57600080fd5b82359150614ede8460208501614df7565b90509250929050565b6020808252825182820181905260009190848201906040850190845b81811015614a5957835183529284019291840191600101614f03565b60006101408c8352806020840152614f398184018d614ac3565b9050614f48604084018c614ba8565b8281036060840152614f5a818b614ac3565b90508281036080840152614f6e818a614ac3565b905082810360a0840152614f828189614ac3565b6001600160a01b0388811660c0860152871660e08501528381036101008501529050614fae8186614ac3565b9050828103610120840152614fc38185614ac3565b9d9c50505050505050505050505050565b60008060408385031215614fe757600080fd5b8235915060208301356001600160401b038082111561500557600080fd5b90840190610140828703121561501a57600080fd5b615022614c5e565b8235815260208301358281111561503857600080fd5b61504488828601614cfb565b60208301525061505660408401614dec565b604082015260608301358281111561506d57600080fd5b61507988828601614cfb565b60608301525060808301358281111561509157600080fd5b61509d88828601614cfb565b60808301525060a0830135828111156150b557600080fd5b6150c188828601614cfb565b60a0830152506150d360c08401614b17565b60c08201526150e460e08401614b17565b60e082015261010080840135838111156150fd57600080fd5b61510989828701614cfb565b828401525050610120808401358381111561512357600080fd5b61512f89828701614cfb565b8284015250508093505050509250929050565b6000806040838503121561515557600080fd5b823561516081614b02565b9150602083013561517081614dc6565b809150509250929050565b6000806000806080858703121561519157600080fd5b843561519c81614b02565b935060208501356151ac81614b02565b92506040850135915060608501356001600160401b038111156151ce57600080fd5b6151da87828801614cfb565b91505092959194509250565b803563ffffffff81168114614b2257600080fd5b803560ff81168114614b2257600080fd5b60006020828403121561521d57600080fd5b81356001600160401b038082111561523457600080fd5b90830190610180828603121561524957600080fd5b615251614c81565b823581526020830135602082015260408301356040820152606083013560608201526080830135608082015260a083013560a082015260c083013560c082015261529d60e084016151e6565b60e082015261010083810135908201526101206152bb8185016151fa565b9082015261014083810135838111156152d357600080fd5b6152df88828701614cfb565b82840152505061016091506152f5828401614dd4565b91810191909152949350505050565b6060815260006153176060830186614ac3565b82810360208401526153298186614ac3565b9050828103604084015261533d8185614ac3565b9695505050505050565b602081528151602082015260006020830151610140806040850152615370610160850183614ac3565b915060408501516153846060860182614ba8565b506060850151601f19808685030160808701526153a18483614ac3565b935060808701519150808685030160a08701526153be8483614ac3565b935060a08701519150808685030160c08701526153db8483614ac3565b935060c087015191506153f960e08701836001600160a01b03169052565b60e08701519150610100615417818801846001600160a01b03169052565b808801519250506101208187860301818801526154348584614ac3565b90880151878203909201848801529350905061533d8382614ac3565b60008060006060848603121561546557600080fd5b8335925060208401356001600160401b038082111561548357600080fd5b61548f87838801614cfb565b935060408601359150808211156154a557600080fd5b506154b286828701614cfb565b9150509250925092565b600080604083850312156154cf57600080fd5b82356001600160401b03808211156154e657600080fd5b6154f286838701614cfb565b9350602085013591508082111561550857600080fd5b5061551585828601614cfb565b9150509250929050565b6000602080838503121561553257600080fd5b82356001600160401b038082111561554957600080fd5b818501915085601f83011261555d57600080fd5b81358181111561556f5761556f614c20565b8060051b9150615580848301614ca4565b818152918301840191848101908884111561559a57600080fd5b938501935b838510156155b85784358252938501939085019061559f565b98975050505050505050565b60208101610e228284614ba8565b600080604083850312156155e557600080fd5b82356155f081614b02565b9150602083013561517081614b02565b6000806000806080858703121561561657600080fd5b8435935060208501356001600160401b038082111561563457600080fd5b61564088838901614cfb565b9450604087013591508082111561565657600080fd5b61566288838901614cfb565b9350606087013591508082111561567857600080fd5b506151da87828801614cfb565b600181811c9082168061569957607f821691505b6020821081036117a457634e487b7160e01b600052602260045260246000fd5b634e487b7160e01b600052603260045260246000fd5b634e487b7160e01b600052601160045260246000fd5b81810381811115610e2257610e226156cf565b634e487b7160e01b600052603160045260246000fd5b600082601f83011261571f57600080fd5b815161572d614d1a82614cd4565b81815284602083860101111561574257600080fd5b6122d6826020830160208701614a9f565b60006020828403121561576557600080fd5b81516001600160401b0381111561577b57600080fd5b6122d68482850161570e565b80820180821115610e2257610e226156cf565b6000826157b757634e487b7160e01b600052601260045260246000fd5b500690565b6000600182016157ce576157ce6156cf565b5060010190565b6020808252602e908201527f4552433732313a2063616c6c6572206973206e6f7420746f6b656e206f776e6560408201526d1c881b9bdc88185c1c1c9bdd995960921b606082015260800190565b6000815461583081615685565b80855260206001838116801561584d576001811461586757615895565b60ff1985168884015283151560051b880183019550615895565b866000528260002060005b8581101561588d5781548a8201860152908301908401615872565b890184019650505b505050505092915050565b6000610140825484528060208501526158be81850160018501615823565b90506158ce600284015460ff1690565b6158db6040860182614ba8565b5083810360608501526158f18160038501615823565b905083810360808501526159088160048501615823565b905083810360a085015261591f8160058501615823565b905061593560068401546001600160a01b031690565b6001600160a01b0390811660c086015260078401541660e08501528381036101008501526159668160088501615823565b90508381036101208501526122d68160098501615823565b600061010061598d8387614bca565b8460c08401528060e084015261533d818401856158a0565b600080604083850312156159b857600080fd5b82516001600160401b03808211156159cf57600080fd5b6159db8683870161570e565b935060208501519150808211156159f157600080fd5b506155158582860161570e565b601f8211156114c2576000816000526020600020601f850160051c81016020861015615a275750805b601f850160051c820191505b81811015612ee857828155600101615a33565b81516001600160401b03811115615a5f57615a5f614c20565b615a7381615a6d8454615685565b846159fe565b602080601f831160018114615aa85760008415615a905750858301515b600019600386901b1c1916600185901b178555612ee8565b600085815260208120601f198616915b82811015615ad757888601518255948401946001909101908401615ab8565b5085821015615af55787850151600019600388901b60f8161c191681555b5050505050600190811b01905550565b6000610140878352615b1a6020840188614bca565b8060e0840152615b2c818401876158a0565b9050828103610100840152615b418186614ac3565b90508281036101208401526155b88185614ac3565b602081526000614a986020830184615823565b83151581526101008101615b806020830185614bca565b6001600160801b03831660e0830152949350505050565b600060c08284031215615ba957600080fd5b615bb1614c36565b825181526020830151615bc381614dc6565b6020820152604083810151908201526060830151615be081614b02565b60608201526080838101519082015260a0830151615bfd81614ddf565b60a08201529392505050565b6000610180825184526020830151602085015260408301516040850152606083015160608501526080830151608085015260a083015160a085015260c083015160c085015260e0830151615c6560e086018263ffffffff169052565b5061010083810151908501526101208084015160ff169085015261014080840151818601839052615c9883870182614ac3565b9250505061016080840151615cb08287018215159052565b5090949350505050565b604081526000615ccd6040830186615c09565b90506122d660208301848660201b63ffffffff919091161760401b9052565b600080600060608486031215615d0157600080fd5b83516001600160401b0380821115615d1857600080fd5b615d248783880161570e565b94506020860151915080821115615d3a57600080fd5b615d468783880161570e565b93506040860151915080821115615d5c57600080fd5b506154b28682870161570e565b6000610140878352806020840152615d8381840188614ac3565b90508281036040840152615d978187614ac3565b9050615da66060840186614bca565b8281036101208401526155b881856158a0565b6000610160888352806020840152615dd381840189614ac3565b90508281036040840152615de78188614ac3565b90508281036060840152615dfb8187614ac3565b9050615e0a6080840186614bca565b828103610140840152615e1d81856158a0565b9998505050505050505050565b604081526000615e3d6040830185614ac3565b90508260208301529392505050565b60208082526032908201527f4552433732313a207472616e7366657220746f206e6f6e20455243373231526560408201527131b2b4bb32b91034b6b83632b6b2b73a32b960711b606082015260800190565b60008060008060808587031215615eb457600080fd5b845193506020850151615ec681614b02565b6040860151909350615ed781614b02565b6060860151909250615ee881614b02565b939692955090935050565b600060208284031215615f0557600080fd5b5051919050565b6001600160a01b038581168252841660208201526040810183905260806060820181905260009061533d90830184614ac3565b600060208284031215615f5157600080fd5b8151614a9881614a6556fea2646970667358221220ff0eba8a9abc50e42baab168e98ff63aaf16150d00fc015dcbb48984d1c6a85964736f6c63430008160033608060405234801561001057600080fd5b50612fa6806100206000396000f3fe608060405234801561001057600080fd5b50600436106100f55760003560e01c80635c1ef25611610097578063aeea03e511610066578063aeea03e5146101e8578063c08d7774146101fb578063e1defed91461020e578063e6ab9d5a1461022357600080fd5b80635c1ef256146101a7578063898aa117146101af5780639a4813d8146101c2578063a5e11e05146101d557600080fd5b806338ce9433116100d357806338ce94331461015757806351dc71891461016a5780635ab38bf7146101725780635bf382591461019457600080fd5b806321b12c23146100fa57806329aadc5c146101235780632fbcb97e14610144575b600080fd5b61010d610108366004611e7e565b61022b565b60405161011a9190611f0a565b60405180910390f35b61013661013136600461212f565b610a74565b60405161011a9291906121d4565b610136610152366004612202565b610af4565b610136610165366004612369565b610bfc565b610136610f69565b610185610180366004612369565b611089565b60405161011a939291906123cc565b61010d6101a2366004611e7e565b61141e565b61010d611462565b61010d6101bd366004611e7e565b611531565b61010d6101d0366004611e7e565b611783565b61010d6101e336600461240f565b6117c8565b6101856101f63660046124a8565b6119f7565b610185610209366004612202565b611aa6565b61022161021c366004612570565b611bc9565b005b61010d611be7565b60606000604051806102000160405280604051806040016040528060018152602001600360fc1b8152508152602001604051806040016040528060018152602001603160f81b8152508152602001604051806040016040528060018152602001601960f91b8152508152602001604051806040016040528060018152602001603360f81b8152508152602001604051806040016040528060018152602001600d60fa1b8152508152602001604051806040016040528060018152602001603560f81b8152508152602001604051806040016040528060018152602001601b60f91b8152508152602001604051806040016040528060018152602001603760f81b8152508152602001604051806040016040528060018152602001600760fb1b8152508152602001604051806040016040528060018152602001603960f81b8152508152602001604051806040016040528060018152602001606160f81b8152508152602001604051806040016040528060018152602001603160f91b8152508152602001604051806040016040528060018152602001606360f81b8152508152602001604051806040016040528060018152602001601960fa1b8152508152602001604051806040016040528060018152602001606560f81b8152508152602001604051806040016040528060018152602001603360f91b81525081525090506000604051806103c00160405280604051806040016040528060018152602001600360fc1b8152508152602001604051806040016040528060018152602001603160f81b8152508152602001604051806040016040528060018152602001601960f91b8152508152602001604051806040016040528060018152602001603360f81b8152508152602001604051806040016040528060018152602001600d60fa1b8152508152602001604051806040016040528060018152602001603560f81b8152508152602001604051806040016040528060018152602001601b60f91b8152508152602001604051806040016040528060018152602001603760f81b8152508152602001604051806040016040528060018152602001600760fb1b8152508152602001604051806040016040528060018152602001603960f81b815250815260200160405180604001604052806002815260200161031360f41b815250815260200160405180604001604052806002815260200161313160f01b815250815260200160405180604001604052806002815260200161189960f11b815250815260200160405180604001604052806002815260200161313360f01b8152508152602001604051806040016040528060028152602001610c4d60f21b815250815260200160405180604001604052806002815260200161313560f01b815250815260200160405180604001604052806002815260200161189b60f11b815250815260200160405180604001604052806002815260200161313760f01b815250815260200160405180604001604052806002815260200161062760f31b815250815260200160405180604001604052806002815260200161313960f01b815250815260200160405180604001604052806002815260200161032360f41b815250815260200160405180604001604052806002815260200161323160f01b815250815260200160405180604001604052806002815260200161191960f11b815250815260200160405180604001604052806002815260200161323360f01b8152508152602001604051806040016040528060028152602001610c8d60f21b815250815260200160405180604001604052806002815260200161323560f01b815250815260200160405180604001604052806002815260200161191b60f11b815250815260200160405180604001604052806002815260200161323760f01b815250815260200160405180604001604052806002815260200161064760f31b815250815260200160405180604001604052806002815260200161323960f01b815250815250905060005b611194811015610a6c57600060f81b858281518110610813576108136125d3565b01602001516001600160f81b0319161115610a5a576000601e610837600584612615565b6108419190612629565b90506000601e610852600585612615565b61085c9190612615565b905060008560048961086f87600261263d565b8151811061087f5761087f6125d3565b016020015160f81c901c60ff166010811061089c5761089c6125d3565b602002015186896108ae87600261263d565b815181106108be576108be6125d3565b60209101015160f81c600f16601081106108da576108da6125d3565b60200201518760048b6108ee89600361263d565b815181106108fe576108fe6125d3565b016020015160f81c901c60ff166010811061091b5761091b6125d3565b6020020151888b61092d89600361263d565b8151811061093d5761093d6125d3565b60209101015160f81c600f1660108110610959576109596125d3565b60200201518960048d61096c8b8361263d565b8151811061097c5761097c6125d3565b016020015160f81c901c60ff1660108110610999576109996125d3565b60200201518a8d6109ab8b600461263d565b815181106109bb576109bb6125d3565b60209101015160f81c600f16601081106109d7576109d76125d3565b60200201516040516020016109f196959493929190612650565b6040516020818303038152906040529050868584601e8110610a1557610a156125d3565b60200201518684601e8110610a2c57610a2c6125d3565b602002015183604051602001610a4594939291906126cf565b60405160208183030381529060405296505050505b610a6560058261263d565b90506107f2565b505050919050565b606080606080610a85868a87610af4565b8851909350909150600003610a9f57809350819250610ae8565b8781604051602001610ab2929190612789565b60405160208183030381529060405293508682604051602001610ad69291906127b8565b60405160208183030381529060405292505b50509550959350505050565b60608084602001518015610b085750600084115b15610bb05760408084015190516301be83d160e11b8152610b9a9173__$4987fe9f4e800c5c4c1535f64ed232842a$__9163037d07a291610b4b916004016127f4565b600060405180830381865af4158015610b68573d6000803e3d6000fd5b505050506040513d6000823e601f3d908101601f19168201604052610b90919081019061286c565b8460200151611c08565b9050610ba98360800151611783565b9150610bf4565b604051806040016040528060028152602001617b7d60f01b81525090506040518060400160405280600b81526020016a1e39bb339f1e17b9bb339f60a91b81525091505b935093915050565b60608060008560c001511115610c7e5783838660c0015184846040518463ffffffff1660e01b8152600401610c33939291906128a0565b600060405180830381865afa158015610c50573d6000803e3d6000fd5b505050506040513d6000823e601f3d908101601f19168201604052610c7891908101906128cb565b90925090505b60a085015115610cfa5783838660a0015184846040518463ffffffff1660e01b8152600401610caf939291906128a0565b600060405180830381865afa158015610ccc573d6000803e3d6000fd5b505050506040513d6000823e601f3d908101601f19168201604052610cf491908101906128cb565b90925090505b608085015115610d76578383866080015184846040518463ffffffff1660e01b8152600401610d2b939291906128a0565b600060405180830381865afa158015610d48573d6000803e3d6000fd5b505050506040513d6000823e601f3d908101601f19168201604052610d7091908101906128cb565b90925090505b604085015115610df2578383866040015184846040518463ffffffff1660e01b8152600401610da7939291906128a0565b600060405180830381865afa158015610dc4573d6000803e3d6000fd5b505050506040513d6000823e601f3d908101601f19168201604052610dec91908101906128cb565b90925090505b602085015115610e6e578383866020015184846040518463ffffffff1660e01b8152600401610e23939291906128a0565b600060405180830381865afa158015610e40573d6000803e3d6000fd5b505050506040513d6000823e601f3d908101601f19168201604052610e6891908101906128cb565b90925090505b845115610ee7578383866000015184846040518463ffffffff1660e01b8152600401610e9c939291906128a0565b600060405180830381865afa158015610eb9573d6000803e3d6000fd5b505050506040513d6000823e601f3d908101601f19168201604052610ee191908101906128cb565b90925090505b606085015115610bf4578383866060015184846040518463ffffffff1660e01b8152600401610f18939291906128a0565b600060405180830381865afa158015610f35573d6000803e3d6000fd5b505050506040513d6000823e601f3d908101601f19168201604052610f5d91908101906128cb565b90969095509350505050565b600080548190610f7890612924565b80601f0160208091040260200160405190810160405280929190818152602001828054610fa490612924565b8015610ff15780601f10610fc657610100808354040283529160200191610ff1565b820191906000526020600020905b815481529060010190602001808311610fd457829003601f168201915b50505050509080600101805461100690612924565b80601f016020809104026020016040519081016040528092919081815260200182805461103290612924565b801561107f5780601f106110545761010080835404028352916020019161107f565b820191906000526020600020905b81548152906001019060200180831161106257829003601f168201915b5050505050905082565b606080606060008660c0015111156111125784848760c001518584866040518563ffffffff1660e01b81526004016110c4949392919061295e565b600060405180830381865afa1580156110e1573d6000803e3d6000fd5b505050506040513d6000823e601f3d908101601f1916820160405261110991908101906129a8565b91945090925090505b60a0860151156111935784848760a001518584866040518563ffffffff1660e01b8152600401611145949392919061295e565b600060405180830381865afa158015611162573d6000803e3d6000fd5b505050506040513d6000823e601f3d908101601f1916820160405261118a91908101906129a8565b91945090925090505b60808601511561121457848487608001518584866040518563ffffffff1660e01b81526004016111c6949392919061295e565b600060405180830381865afa1580156111e3573d6000803e3d6000fd5b505050506040513d6000823e601f3d908101601f1916820160405261120b91908101906129a8565b91945090925090505b60408601511561129557848487604001518584866040518563ffffffff1660e01b8152600401611247949392919061295e565b600060405180830381865afa158015611264573d6000803e3d6000fd5b505050506040513d6000823e601f3d908101601f1916820160405261128c91908101906129a8565b91945090925090505b60208601511561131657848487602001518584866040518563ffffffff1660e01b81526004016112c8949392919061295e565b600060405180830381865afa1580156112e5573d6000803e3d6000fd5b505050506040513d6000823e601f3d908101601f1916820160405261130d91908101906129a8565b91945090925090505b85511561139457848487600001518584866040518563ffffffff1660e01b8152600401611346949392919061295e565b600060405180830381865afa158015611363573d6000803e3d6000fd5b505050506040513d6000823e601f3d908101601f1916820160405261138b91908101906129a8565b91945090925090505b60608601511561141557848487606001518584866040518563ffffffff1660e01b81526004016113c7949392919061295e565b600060405180830381865afa1580156113e4573d6000803e3d6000fd5b505050506040513d6000823e601f3d908101601f1916820160405261140c91908101906129a8565b91945090925090505b93509350939050565b606060405180610100016040528060d28152602001612e9f60d291398260405160200161144c929190612a39565b6040516020818303038152906040529050919050565b606060006114fb60008001805461147890612924565b80601f01602080910402602001604051908101604052809291908181526020018280546114a490612924565b80156114f15780601f106114c6576101008083540402835291602001916114f1565b820191906000526020600020905b8154815290600101906020018083116114d457829003601f168201915b5050505050611531565b905060006115088261022b565b90508060405160200161151b9190612a79565b6040516020818303038152906040529250505090565b8051604080516111948082526111c0820190925260609291600091906020820181803683370190505090506000611569600584612615565b905060005b81811015611779576000611583826005612ae3565b90506000878281518110611599576115996125d3565b016020015160f81c90506000886115b184600161263d565b815181106115c1576115c16125d3565b016020015160f81c9050600060ff83166115dc83601e612ae3565b6115e6919061263d565b6115f1906005612ae3565b9050898481518110611605576116056125d3565b602001015160f81c60f81b878281518110611622576116226125d3565b60200101906001600160f81b031916908160001a90535089846001018151811061164e5761164e6125d3565b602001015160f81c60f81b87826001018151811061166e5761166e6125d3565b60200101906001600160f81b031916908160001a90535089846002018151811061169a5761169a6125d3565b602001015160f81c60f81b8782600201815181106116ba576116ba6125d3565b60200101906001600160f81b031916908160001a9053508984600301815181106116e6576116e66125d3565b602001015160f81c60f81b878260030181518110611706576117066125d3565b60200101906001600160f81b031916908160001a905350898460040181518110611732576117326125d3565b602001015160f81c60f81b878260040181518110611752576117526125d3565b60200101906001600160f81b031916908160001a905350506001909301925061156e915050565b5090949350505050565b6060600061179083611531565b9050600061179d8261022b565b9050806040516020016117b09190612afa565b60405160208183030381529060405292505050919050565b60608060608660200151156118e75760a08701516040516301be83d160e11b81526118649173__$4987fe9f4e800c5c4c1535f64ed232842a$__9163037d07a291611815916004016127f4565b600060405180830381865af4158015611832573d6000803e3d6000fd5b505050506040513d6000823e601f3d908101601f1916820160405261185a919081019061286c565b8760200151611c08565b6118926040518060400160405280600781526020016621b932b0ba37b960c91b815250886101000151611c08565b6118bf6040518060400160405280600681526020016529b2b0b9b7b760d11b815250896101200151611c08565b6040516020016118d193929190612b3f565b6040516020818303038152906040529050611938565b6040518060400160405280600f81526020016e2261747472696275746573223a5b5d60881b81525090506040518060400160405280600b81526020016a1e39bb339f1e17b9bb339f60a91b81525093505b611962858560405160200161194e929190612789565b60405160208183030381529060405261141e565b9150600061196f83611c35565b60405160200161197f9190612bc2565b6040516020818303038152906040529050600061199b8a611c43565b83836040516020016119af93929190612c1e565b60405160208183030381529060405290506119c981611c35565b6040516020016119d99190612cd9565b60405160208183030381529060405294505050505095945050505050565b606080606080606080611a0b888d89611aa6565b8c519095509193509150600003611a2a57819550829450809350611a97565b8a82604051602001611a3d929190612789565b60405160208183030381529060405295508983604051602001611a619291906127b8565b60405160208183030381529060405294508881604051602001611a85929190612789565b60405160208183030381529060405293505b50505096509650969350505050565b606080606085602001518015611abc5750600085115b15611b6b57611ace8460800151611783565b9250611b5d73__$4987fe9f4e800c5c4c1535f64ed232842a$__63037d07a286604001516040518263ffffffff1660e01b8152600401611b0e91906127f4565b600060405180830381865af4158015611b2b573d6000803e3d6000fd5b505050506040513d6000823e601f3d908101601f19168201604052611b53919081019061286c565b8560200151611c08565b90508360a001519150611415565b6040518060400160405280600b81526020016a1e39bb339f1e17b9bb339f60a91b8152509250604051806040016040528060028152602001617b7d60f01b815250905060405180602001604052806000815250915093509350939050565b6000611bd58382612d6e565b506001611be28282612d6e565b505050565b606060405180610100016040528060d28152602001612e9f60d29139905090565b60608282604051602001611c1d929190612e2d565b60405160208183030381529060405290505b92915050565b6060611c2f82600080611c87565b60606080604051019050602081016040526000815280600019835b928101926030600a8206018453600a900480611c5e575050819003601f19909101908152919050565b606083518015611d67576003600282010460021b60405192507f4142434445464748494a4b4c4d4e4f505152535455565758595a616263646566601f526106708515027f6768696a6b6c6d6e6f707172737475767778797a303132333435363738392d5f18603f52602083018181015b6003880197508751603f8160121c1651600053603f81600c1c1651600153603f8160061c1651600253603f811651600353506000518252600482019150808210611cf757602001604052613d3d60f01b600384066002048083039190915260008615159091029182900352900382525b509392505050565b634e487b7160e01b600052604160045260246000fd5b60405161014081016001600160401b0381118282101715611da857611da8611d6f565b60405290565b60405161018081016001600160401b0381118282101715611da857611da8611d6f565b604051601f8201601f191681016001600160401b0381118282101715611df957611df9611d6f565b604052919050565b60006001600160401b03821115611e1a57611e1a611d6f565b50601f01601f191660200190565b600082601f830112611e3957600080fd5b8135611e4c611e4782611e01565b611dd1565b818152846020838601011115611e6157600080fd5b816020850160208301376000918101602001919091529392505050565b600060208284031215611e9057600080fd5b81356001600160401b03811115611ea657600080fd5b611eb284828501611e28565b949350505050565b60005b83811015611ed5578181015183820152602001611ebd565b50506000910152565b60008151808452611ef6816020860160208601611eba565b601f01601f19169290920160200192915050565b602081526000611f1d6020830184611ede565b9392505050565b80358015158114611f3457600080fd5b919050565b80356001600160a01b0381168114611f3457600080fd5b803560088110611f3457600080fd5b600060c08284031215611f7157600080fd5b60405160c081018181106001600160401b0382111715611f9357611f93611d6f565b60405282358152905080611fa960208401611f24565b602082015260408301356040820152611fc460608401611f39565b606082015260808301356080820152611fdf60a08401611f50565b60a08201525092915050565b60006101408284031215611ffe57600080fd5b612006611d85565b90508135815260208201356001600160401b038082111561202657600080fd5b61203285838601611e28565b602084015261204360408501611f50565b6040840152606084013591508082111561205c57600080fd5b61206885838601611e28565b6060840152608084013591508082111561208157600080fd5b61208d85838601611e28565b608084015260a08401359150808211156120a657600080fd5b6120b285838601611e28565b60a08401526120c360c08501611f39565b60c08401526120d460e08501611f39565b60e0840152610100915081840135818111156120ef57600080fd5b6120fb86828701611e28565b83850152506101209150818401358181111561211657600080fd5b61212286828701611e28565b8385015250505092915050565b6000806000806000610140868803121561214857600080fd5b8535945060208601356001600160401b038082111561216657600080fd5b61217289838a01611e28565b9550604088013591508082111561218857600080fd5b61219489838a01611e28565b94506121a38960608a01611f5f565b93506101208801359150808211156121ba57600080fd5b506121c788828901611feb565b9150509295509295909350565b6040815260006121e76040830185611ede565b82810360208401526121f98185611ede565b95945050505050565b6000806000610100848603121561221857600080fd5b6122228585611f5f565b925060c0840135915060e08401356001600160401b0381111561224457600080fd5b61225086828701611feb565b9150509250925092565b803563ffffffff81168114611f3457600080fd5b803560ff81168114611f3457600080fd5b6000610180828403121561229257600080fd5b61229a611dae565b9050813581526020820135602082015260408201356040820152606082013560608201526080820135608082015260a082013560a082015260c082013560c08201526122e860e0830161225a565b60e0820152610100828101359082015261012061230681840161226e565b90820152610140828101356001600160401b0381111561232557600080fd5b61233185828601611e28565b828401525050610160612345818401611f24565b9082015292915050565b67ffffffffffffffff198116811461236657600080fd5b50565b60008060006040848603121561237e57600080fd5b83356001600160401b0381111561239457600080fd5b6123a08682870161227f565b93505060208401356123b18161234f565b9295606084901c955060409390931c63ffffffff1693505050565b6060815260006123df6060830186611ede565b82810360208401526123f18186611ede565b905082810360408401526124058185611ede565b9695505050505050565b6000806000806000610140868803121561242857600080fd5b853594506124398760208801611f5f565b935060e08601356001600160401b038082111561245557600080fd5b61246189838a01611feb565b945061010088013591508082111561247857600080fd5b61248489838a01611e28565b935061012088013591508082111561249b57600080fd5b506121c788828901611e28565b60008060008060008061016087890312156124c257600080fd5b8635955060208701356001600160401b03808211156124e057600080fd5b6124ec8a838b01611e28565b9650604089013591508082111561250257600080fd5b61250e8a838b01611e28565b9550606089013591508082111561252457600080fd5b6125308a838b01611e28565b945061253f8a60808b01611f5f565b935061014089013591508082111561255657600080fd5b5061256389828a01611feb565b9150509295509295509295565b6000806040838503121561258357600080fd5b82356001600160401b038082111561259a57600080fd5b6125a686838701611e28565b935060208501359150808211156125bc57600080fd5b506125c985828601611e28565b9150509250929050565b634e487b7160e01b600052603260045260246000fd5b634e487b7160e01b600052601260045260246000fd5b634e487b7160e01b600052601160045260246000fd5b600082612624576126246125e9565b500490565b600082612638576126386125e9565b500690565b80820180821115611c2f57611c2f6125ff565b6000875160206126638285838d01611eba565b8851918401916126768184848d01611eba565b88519201916126888184848c01611eba565b875192019161269a8184848b01611eba565b86519201916126ac8184848a01611eba565b85519201916126be8184848901611eba565b919091019998505050505050505050565b600085516126e1818460208a01611eba565b681e3932b1ba103c1e9160b91b9083019081528551612707816009840160208a01611eba565b6411103c9e9160d91b60099290910191820152845161272d81600e840160208901611eba565b7f222077696474683d223122206865696768743d2231222066696c6c3d22230000600e9290910191820152835161276b81602c840160208801611eba565b6211179f60e91b602c9290910191820152602f019695505050505050565b6000835161279b818460208801611eba565b8351908301906127af818360208801611eba565b01949350505050565b600083516127ca818460208801611eba565b600b60fa1b90830190815283516127e8816001840160208801611eba565b01600101949350505050565b602081016008831061281657634e487b7160e01b600052602160045260246000fd5b91905290565b600061282a611e4784611e01565b905082815283838301111561283e57600080fd5b611f1d836020830184611eba565b600082601f83011261285d57600080fd5b611f1d8383516020850161281c565b60006020828403121561287e57600080fd5b81516001600160401b0381111561289457600080fd5b611eb28482850161284c565b8381526060602082015260006128b96060830185611ede565b82810360408401526124058185611ede565b600080604083850312156128de57600080fd5b82516001600160401b03808211156128f557600080fd5b6129018683870161284c565b9350602085015191508082111561291757600080fd5b506125c98582860161284c565b600181811c9082168061293857607f821691505b60208210810361295857634e487b7160e01b600052602260045260246000fd5b50919050565b8481526080602082015260006129776080830186611ede565b82810360408401526129898186611ede565b9050828103606084015261299d8185611ede565b979650505050505050565b6000806000606084860312156129bd57600080fd5b83516001600160401b03808211156129d457600080fd5b6129e08783880161284c565b945060208601519150808211156129f657600080fd5b612a028783880161284c565b93506040860151915080821115612a1857600080fd5b508401601f81018613612a2a57600080fd5b6122508682516020840161281c565b60008351612a4b818460208801611eba565b835190830190612a5f818360208801611eba565b651e17b9bb339f60d11b9101908152600601949350505050565b7f3c672069643d2267686f73742220636c6173733d226722207374796c653d226f81526d3830b1b4ba3c9d101a98129d911f60911b602082015260008251612ac881602e850160208701611eba565b631e17b39f60e11b602e939091019283015250603201919050565b8082028115828204841417611c2f57611c2f6125ff565b6d1e339034b21e912a3930b4ba111f60911b81528151600090612b2481600e850160208701611eba565b631e17b39f60e11b600e939091019283015250601201919050565b6d2261747472696275746573223a5b60901b81528351600090612b6981600e850160208901611eba565b8083019050600b60fa1b80600e8301528551612b8c81600f850160208a01611eba565b600f9201918201528351612ba7816010840160208801611eba565b605d60f81b6010929091019182015260110195945050505050565b7f22696d616765223a22646174613a696d6167652f7376672b786d6c3b626173658152620d8d0b60ea1b602082015260008251612c06816023850160208701611eba565b601160f91b6023939091019283015250602401919050565b757b226e616d65223a2243686f6e6b205472616974202360501b81528351600090612c50816016850160208901611eba565b7f222c226465736372697074696f6e223a2254686973206973206a757374206120601691840191820152651d195cdd088b60d21b60368201528451612c9c81603c840160208901611eba565b600b60fa1b603c92909101918201528351612cbe81603d840160208801611eba565b607d60f81b603d9290910191820152603e0195945050505050565b7f646174613a6170706c69636174696f6e2f6a736f6e3b6261736536342c000000815260008251612d1181601d850160208701611eba565b91909101601d0192915050565b601f821115611be2576000816000526020600020601f850160051c81016020861015612d475750805b601f850160051c820191505b81811015612d6657828155600101612d53565b505050505050565b81516001600160401b03811115612d8757612d87611d6f565b612d9b81612d958454612924565b84612d1e565b602080601f831160018114612dd05760008415612db85750858301515b600019600386901b1c1916600185901b178555612d66565b600085815260208120601f198616915b82811015612dff57888601518255948401946001909101908401612de0565b5085821015612e1d5787850151600019600388901b60f8161c191681555b5050505050600190811b01905550565b6e3d913a3930b4ba2fba3cb832911d1160891b81528251600090612e5881600f850160208801611eba565b6a1116113b30b63ab2911d1160a91b600f918401918201528351612e8381601a840160208801611eba565b61227d60f01b601a9290910191820152601c0194935050505056fe3c7376672073686170652d72656e646572696e673d2263726973704564676573222076696577426f783d22302030203330203330222066696c6c3d226e6f6e652220786d6c6e733d22687474703a2f2f7777772e77332e6f72672f323030302f737667223e3c7374796c653e726563747b77696474683a3170783b206865696768743a203170783b7d202e62677b77696474683a333070783b206865696768743a20333070783b7d203c2f7374796c653e3c7265637420636c6173733d226267222066696c6c3d2223304436453944222f3ea2646970667358221220f7355c2a63fe4d8f591d9afcb333ec5a0626a1614562c826914391c19b079b4864736f6c63430008160033","linkReferences":{"src/TraitCategory.sol":{"TraitCategory":[{"start":28129,"length":20},{"start":31403,"length":20},{"start":32145,"length":20}]}}},"methodIdentifiers":{"addApprovedInvalidator(address)":"f677c013","addMinter(address)":"983b2d56","approve(address,uint256)":"095ea7b3","approvedInvalidators(address)":"b3148f75","balanceOf(address)":"70a08231","burn(uint256)":"42966c68","burnBatch(uint256[])":"e4623c1b","callGetSVGZmapAndMetadataTrait(uint256,string,string,bytes)":"f1271942","callGetSvgAndMetadataTrait(uint256,string,string)":"e08714a6","cancelOwnershipHandover()":"54d1f13d","chonksMain()":"ba7270f3","completeOwnershipHandover(address)":"f04e283e","createSvgFromPixels(bytes)":"21b12c23","getApproved(uint256)":"081812fc","getApprovedOperators(uint256)":"00db6348","getCurrentEpoch()":"b97dd9e2","getEpoch()":"757991a8","getEpochData(uint256)":"859e7d32","getGhostSvg()":"5c1ef256","getSVGZmapAndMetadataTrait((uint256,bool,uint256,address,uint256,uint8),uint256)":"f901667f","getStoredTraitForTokenId(uint256)":"208c25a3","getSvgAndMetadata((uint256,uint256,uint256,uint256,uint256,uint256,uint256,uint32,uint256,uint8,string,bool))":"df2c2b88","getSvgAndMetadataTrait((uint256,bool,uint256,address,uint256,uint8),uint256)":"33a70328","getSvgForTokenId(uint256)":"c7791531","getSvgZmapsAndMetadata((uint256,uint256,uint256,uint256,uint256,uint256,uint256,uint32,uint256,uint8,string,bool))":"bb12d21d","getTrait(uint256)":"acb586df","getTraitImageSvg(uint256)":"a5e2912a","getTraitIndexToMetadata(uint256)":"ea139544","getTraitMetadata(uint256)":"d1bfc2af","getTraitType(uint256)":"e8a1268d","getZMapForTokenId(uint256)":"a8498c74","invalidateAllOperatorApprovals(uint256)":"90f63842","isApprovedForAll(address,address)":"e985e9c5","isMinter(address)":"aa271e1a","marketplace()":"abc8c7af","name()":"06fdde03","owner()":"8da5cb5b","ownerOf(uint256)":"6352211e","ownershipHandoverExpiresAt(address)":"fee81cf4","removeApprovedInvalidator(address)":"cde2180a","removeMinter(address)":"3092afd5","renderAsDataUri(uint256)":"a1d62680","renounceOwnership()":"715018a6","requestOwnershipHandover()":"25692962","resolveEpochIfNecessary()":"239ffa68","safeMint(address)":"40d097c3","safeTransferFrom(address,address,uint256)":"42842e0e","safeTransferFrom(address,address,uint256,bytes)":"b88d4fde","setApprovalForAll(address,bool)":"a22cb465","setChonksMain(address)":"713dbc27","setGhostMaps(bytes,bytes)":"e1defed9","setMarketplace(address)":"73ad6c2d","setTraitForTokenId(uint256,(uint256,bool,uint256,address,uint256,uint8))":"36d34ab9","setTraitIndexToMetadata(uint256,(uint256,string,uint8,string,bytes,bytes,address,address,string,string))":"8d37c537","setTraitRenderer(address)":"120def24","signer()":"238ac933","supportsInterface(bytes4)":"01ffc9a7","symbol()":"95d89b41","tokenByIndex(uint256)":"4f6ccce7","tokenOfOwnerByIndex(address,uint256)":"2f745c59","tokenURI(uint256)":"c87b56dd","totalSupply()":"18160ddd","traitIdToApprovedOperators(uint256,uint256)":"11f3910d","traitIndexToMetadata(uint256)":"817a29a4","traitRenderer()":"c876371b","traitTokens()":"e14d026f","transferFrom(address,address,uint256)":"23b872dd","transferOwnership(address)":"f2fde38b","walletOfOwner(address)":"438b6300"},"id":40}