{"abi":[{"type":"constructor","inputs":[{"name":"localDeploy_","type":"bool","internalType":"bool"}],"stateMutability":"nonpayable"},{"type":"function","name":"addApprovedInvalidator","inputs":[{"name":"_invalidator","type":"address","internalType":"address"}],"outputs":[],"stateMutability":"nonpayable"},{"type":"function","name":"addMinter","inputs":[{"name":"_minter","type":"address","internalType":"address"}],"outputs":[],"stateMutability":"nonpayable"},{"type":"function","name":"approve","inputs":[{"name":"_operator","type":"address","internalType":"address"},{"name":"_tokenId","type":"uint256","internalType":"uint256"}],"outputs":[],"stateMutability":"nonpayable"},{"type":"function","name":"approvedInvalidators","inputs":[{"name":"","type":"address","internalType":"address"}],"outputs":[{"name":"","type":"bool","internalType":"bool"}],"stateMutability":"view"},{"type":"function","name":"balanceOf","inputs":[{"name":"owner","type":"address","internalType":"address"}],"outputs":[{"name":"","type":"uint256","internalType":"uint256"}],"stateMutability":"view"},{"type":"function","name":"burn","inputs":[{"name":"_tokenId","type":"uint256","internalType":"uint256"}],"outputs":[],"stateMutability":"nonpayable"},{"type":"function","name":"burnBatch","inputs":[{"name":"tokenIds","type":"uint256[]","internalType":"uint256[]"}],"outputs":[],"stateMutability":"nonpayable"},{"type":"function","name":"callGetSVGZmapAndMetadataTrait","inputs":[{"name":"_traitId","type":"uint256","internalType":"uint256"},{"name":"_traitsSvg","type":"string","internalType":"string"},{"name":"_traitsAttributes","type":"string","internalType":"string"},{"name":"_traitZMaps","type":"bytes","internalType":"bytes"}],"outputs":[{"name":"traitsSvg","type":"string","internalType":"string"},{"name":"traitsAttributes","type":"string","internalType":"string"},{"name":"traitZMaps","type":"bytes","internalType":"bytes"}],"stateMutability":"view"},{"type":"function","name":"callGetSvgAndMetadataTrait","inputs":[{"name":"_traitId","type":"uint256","internalType":"uint256"},{"name":"_traitsSvg","type":"string","internalType":"string"},{"name":"_traitsAttributes","type":"string","internalType":"string"}],"outputs":[{"name":"traitsSvg","type":"string","internalType":"string"},{"name":"traitsAttributes","type":"string","internalType":"string"}],"stateMutability":"view"},{"type":"function","name":"cancelOwnershipHandover","inputs":[],"outputs":[],"stateMutability":"payable"},{"type":"function","name":"chonksMain","inputs":[],"outputs":[{"name":"","type":"address","internalType":"contract ChonksMain"}],"stateMutability":"view"},{"type":"function","name":"completeOwnershipHandover","inputs":[{"name":"pendingOwner","type":"address","internalType":"address"}],"outputs":[],"stateMutability":"payable"},{"type":"function","name":"createSvgFromPixels","inputs":[{"name":"_pixels","type":"bytes","internalType":"bytes"}],"outputs":[{"name":"svgParts","type":"bytes","internalType":"bytes"}],"stateMutability":"view"},{"type":"function","name":"getApproved","inputs":[{"name":"tokenId","type":"uint256","internalType":"uint256"}],"outputs":[{"name":"","type":"address","internalType":"address"}],"stateMutability":"view"},{"type":"function","name":"getApprovedOperators","inputs":[{"name":"traitId","type":"uint256","internalType":"uint256"}],"outputs":[{"name":"","type":"address[]","internalType":"address[]"}],"stateMutability":"view"},{"type":"function","name":"getCurrentEpoch","inputs":[],"outputs":[{"name":"","type":"uint256","internalType":"uint256"}],"stateMutability":"view"},{"type":"function","name":"getEpoch","inputs":[],"outputs":[{"name":"","type":"uint256","internalType":"uint256"}],"stateMutability":"view"},{"type":"function","name":"getEpochData","inputs":[{"name":"index","type":"uint256","internalType":"uint256"}],"outputs":[{"name":"","type":"tuple","internalType":"struct CommitReveal.Epoch","components":[{"name":"randomness","type":"uint128","internalType":"uint128"},{"name":"revealBlock","type":"uint64","internalType":"uint64"},{"name":"committed","type":"bool","internalType":"bool"},{"name":"revealed","type":"bool","internalType":"bool"}]}],"stateMutability":"view"},{"type":"function","name":"getGhostSvg","inputs":[],"outputs":[{"name":"svg","type":"string","internalType":"string"}],"stateMutability":"view"},{"type":"function","name":"getSVGZmapAndMetadataTrait","inputs":[{"name":"trait","type":"tuple","internalType":"struct ITraitStorage.StoredTrait","components":[{"name":"epoch","type":"uint256","internalType":"uint256"},{"name":"isRevealed","type":"bool","internalType":"bool"},{"name":"seed","type":"uint256","internalType":"uint256"},{"name":"renderMinterContract","type":"address","internalType":"address"},{"name":"traitIndex","type":"uint256","internalType":"uint256"},{"name":"traitType","type":"uint8","internalType":"enum TraitCategory.Name"}]},{"name":"traitId","type":"uint256","internalType":"uint256"}],"outputs":[{"name":"traitSvg","type":"string","internalType":"string"},{"name":"traitZmap","type":"bytes","internalType":"bytes"},{"name":"traitAttributes","type":"string","internalType":"string"}],"stateMutability":"view"},{"type":"function","name":"getStoredTraitForTokenId","inputs":[{"name":"_tokenId","type":"uint256","internalType":"uint256"}],"outputs":[{"name":"","type":"tuple","internalType":"struct ITraitStorage.StoredTrait","components":[{"name":"epoch","type":"uint256","internalType":"uint256"},{"name":"isRevealed","type":"bool","internalType":"bool"},{"name":"seed","type":"uint256","internalType":"uint256"},{"name":"renderMinterContract","type":"address","internalType":"address"},{"name":"traitIndex","type":"uint256","internalType":"uint256"},{"name":"traitType","type":"uint8","internalType":"enum TraitCategory.Name"}]}],"stateMutability":"view"},{"type":"function","name":"getSvgAndMetadata","inputs":[{"name":"storedChonk","type":"tuple","internalType":"struct IChonkStorage.StoredChonk","components":[{"name":"headId","type":"uint256","internalType":"uint256"},{"name":"hairId","type":"uint256","internalType":"uint256"},{"name":"faceId","type":"uint256","internalType":"uint256"},{"name":"accessoryId","type":"uint256","internalType":"uint256"},{"name":"topId","type":"uint256","internalType":"uint256"},{"name":"bottomId","type":"uint256","internalType":"uint256"},{"name":"shoesId","type":"uint256","internalType":"uint256"},{"name":"epoch","type":"uint32","internalType":"uint32"},{"name":"tokenId","type":"uint256","internalType":"uint256"},{"name":"bodyIndex","type":"uint8","internalType":"uint8"},{"name":"backgroundColor","type":"string","internalType":"string"},{"name":"render3D","type":"bool","internalType":"bool"}]}],"outputs":[{"name":"traitsSvg","type":"string","internalType":"string"},{"name":"traitsAttributes","type":"string","internalType":"string"}],"stateMutability":"view"},{"type":"function","name":"getSvgAndMetadataTrait","inputs":[{"name":"trait","type":"tuple","internalType":"struct ITraitStorage.StoredTrait","components":[{"name":"epoch","type":"uint256","internalType":"uint256"},{"name":"isRevealed","type":"bool","internalType":"bool"},{"name":"seed","type":"uint256","internalType":"uint256"},{"name":"renderMinterContract","type":"address","internalType":"address"},{"name":"traitIndex","type":"uint256","internalType":"uint256"},{"name":"traitType","type":"uint8","internalType":"enum TraitCategory.Name"}]},{"name":"traitId","type":"uint256","internalType":"uint256"}],"outputs":[{"name":"traitSvg","type":"string","internalType":"string"},{"name":"traitAttributes","type":"string","internalType":"string"}],"stateMutability":"view"},{"type":"function","name":"getSvgForTokenId","inputs":[{"name":"_tokenId","type":"uint256","internalType":"uint256"}],"outputs":[{"name":"traitSvg","type":"string","internalType":"string"}],"stateMutability":"view"},{"type":"function","name":"getSvgZmapsAndMetadata","inputs":[{"name":"storedChonk","type":"tuple","internalType":"struct IChonkStorage.StoredChonk","components":[{"name":"headId","type":"uint256","internalType":"uint256"},{"name":"hairId","type":"uint256","internalType":"uint256"},{"name":"faceId","type":"uint256","internalType":"uint256"},{"name":"accessoryId","type":"uint256","internalType":"uint256"},{"name":"topId","type":"uint256","internalType":"uint256"},{"name":"bottomId","type":"uint256","internalType":"uint256"},{"name":"shoesId","type":"uint256","internalType":"uint256"},{"name":"epoch","type":"uint32","internalType":"uint32"},{"name":"tokenId","type":"uint256","internalType":"uint256"},{"name":"bodyIndex","type":"uint8","internalType":"uint8"},{"name":"backgroundColor","type":"string","internalType":"string"},{"name":"render3D","type":"bool","internalType":"bool"}]}],"outputs":[{"name":"traitsSvg","type":"string","internalType":"string"},{"name":"traitZMaps","type":"bytes","internalType":"bytes"},{"name":"traitsAttributes","type":"string","internalType":"string"}],"stateMutability":"view"},{"type":"function","name":"getTrait","inputs":[{"name":"_tokenId","type":"uint256","internalType":"uint256"}],"outputs":[{"name":"","type":"tuple","internalType":"struct ITraitStorage.StoredTrait","components":[{"name":"epoch","type":"uint256","internalType":"uint256"},{"name":"isRevealed","type":"bool","internalType":"bool"},{"name":"seed","type":"uint256","internalType":"uint256"},{"name":"renderMinterContract","type":"address","internalType":"address"},{"name":"traitIndex","type":"uint256","internalType":"uint256"},{"name":"traitType","type":"uint8","internalType":"enum TraitCategory.Name"}]}],"stateMutability":"view"},{"type":"function","name":"getTraitImageSvg","inputs":[{"name":"index","type":"uint256","internalType":"uint256"}],"outputs":[{"name":"svg","type":"string","internalType":"string"}],"stateMutability":"view"},{"type":"function","name":"getTraitIndexToMetadata","inputs":[{"name":"_traitIndex","type":"uint256","internalType":"uint256"}],"outputs":[{"name":"","type":"tuple","internalType":"struct ITraitStorage.TraitMetadata","components":[{"name":"traitIndex","type":"uint256","internalType":"uint256"},{"name":"traitName","type":"string","internalType":"string"},{"name":"traitType","type":"uint8","internalType":"enum TraitCategory.Name"},{"name":"animations","type":"string","internalType":"string"},{"name":"colorMap","type":"bytes","internalType":"bytes"},{"name":"zMap","type":"bytes","internalType":"bytes"},{"name":"renderMinterContract","type":"address","internalType":"address"},{"name":"creatorAddress","type":"address","internalType":"address"},{"name":"creatorName","type":"string","internalType":"string"},{"name":"season","type":"string","internalType":"string"}]}],"stateMutability":"view"},{"type":"function","name":"getTraitMetadata","inputs":[{"name":"_tokenId","type":"uint256","internalType":"uint256"}],"outputs":[{"name":"","type":"tuple","internalType":"struct ITraitStorage.TraitMetadata","components":[{"name":"traitIndex","type":"uint256","internalType":"uint256"},{"name":"traitName","type":"string","internalType":"string"},{"name":"traitType","type":"uint8","internalType":"enum TraitCategory.Name"},{"name":"animations","type":"string","internalType":"string"},{"name":"colorMap","type":"bytes","internalType":"bytes"},{"name":"zMap","type":"bytes","internalType":"bytes"},{"name":"renderMinterContract","type":"address","internalType":"address"},{"name":"creatorAddress","type":"address","internalType":"address"},{"name":"creatorName","type":"string","internalType":"string"},{"name":"season","type":"string","internalType":"string"}]}],"stateMutability":"view"},{"type":"function","name":"getTraitType","inputs":[{"name":"_tokenId","type":"uint256","internalType":"uint256"}],"outputs":[{"name":"","type":"uint8","internalType":"enum TraitCategory.Name"}],"stateMutability":"view"},{"type":"function","name":"getZMapForTokenId","inputs":[{"name":"_tokenId","type":"uint256","internalType":"uint256"}],"outputs":[{"name":"","type":"string","internalType":"string"}],"stateMutability":"view"},{"type":"function","name":"invalidateAllOperatorApprovals","inputs":[{"name":"_tokenId","type":"uint256","internalType":"uint256"}],"outputs":[],"stateMutability":"nonpayable"},{"type":"function","name":"isApprovedForAll","inputs":[{"name":"owner","type":"address","internalType":"address"},{"name":"operator","type":"address","internalType":"address"}],"outputs":[{"name":"","type":"bool","internalType":"bool"}],"stateMutability":"view"},{"type":"function","name":"isMinter","inputs":[{"name":"","type":"address","internalType":"address"}],"outputs":[{"name":"","type":"bool","internalType":"bool"}],"stateMutability":"view"},{"type":"function","name":"marketplace","inputs":[],"outputs":[{"name":"","type":"address","internalType":"contract ChonksMarket"}],"stateMutability":"view"},{"type":"function","name":"name","inputs":[],"outputs":[{"name":"","type":"string","internalType":"string"}],"stateMutability":"view"},{"type":"function","name":"nextTokenId","inputs":[],"outputs":[{"name":"","type":"uint256","internalType":"uint256"}],"stateMutability":"view"},{"type":"function","name":"owner","inputs":[],"outputs":[{"name":"result","type":"address","internalType":"address"}],"stateMutability":"view"},{"type":"function","name":"ownerOf","inputs":[{"name":"tokenId","type":"uint256","internalType":"uint256"}],"outputs":[{"name":"","type":"address","internalType":"address"}],"stateMutability":"view"},{"type":"function","name":"ownershipHandoverExpiresAt","inputs":[{"name":"pendingOwner","type":"address","internalType":"address"}],"outputs":[{"name":"result","type":"uint256","internalType":"uint256"}],"stateMutability":"view"},{"type":"function","name":"removeApprovedInvalidator","inputs":[{"name":"_invalidator","type":"address","internalType":"address"}],"outputs":[],"stateMutability":"nonpayable"},{"type":"function","name":"removeMinter","inputs":[{"name":"_minter","type":"address","internalType":"address"}],"outputs":[],"stateMutability":"nonpayable"},{"type":"function","name":"renderAsDataUri","inputs":[{"name":"_tokenId","type":"uint256","internalType":"uint256"}],"outputs":[{"name":"","type":"string","internalType":"string"}],"stateMutability":"view"},{"type":"function","name":"renounceOwnership","inputs":[],"outputs":[],"stateMutability":"payable"},{"type":"function","name":"requestOwnershipHandover","inputs":[],"outputs":[],"stateMutability":"payable"},{"type":"function","name":"resolveEpochIfNecessary","inputs":[],"outputs":[],"stateMutability":"nonpayable"},{"type":"function","name":"safeMint","inputs":[{"name":"_to","type":"address","internalType":"address"}],"outputs":[{"name":"","type":"uint256","internalType":"uint256"}],"stateMutability":"nonpayable"},{"type":"function","name":"safeTransferFrom","inputs":[{"name":"from","type":"address","internalType":"address"},{"name":"to","type":"address","internalType":"address"},{"name":"tokenId","type":"uint256","internalType":"uint256"}],"outputs":[],"stateMutability":"nonpayable"},{"type":"function","name":"safeTransferFrom","inputs":[{"name":"from","type":"address","internalType":"address"},{"name":"to","type":"address","internalType":"address"},{"name":"tokenId","type":"uint256","internalType":"uint256"},{"name":"data","type":"bytes","internalType":"bytes"}],"outputs":[],"stateMutability":"nonpayable"},{"type":"function","name":"setApprovalForAll","inputs":[{"name":"_operator","type":"address","internalType":"address"},{"name":"_approved","type":"bool","internalType":"bool"}],"outputs":[],"stateMutability":"nonpayable"},{"type":"function","name":"setChonksMain","inputs":[{"name":"_ChonksMain","type":"address","internalType":"address"}],"outputs":[],"stateMutability":"nonpayable"},{"type":"function","name":"setGhostMaps","inputs":[{"name":"_colorMap","type":"bytes","internalType":"bytes"},{"name":"_zMap","type":"bytes","internalType":"bytes"}],"outputs":[],"stateMutability":"nonpayable"},{"type":"function","name":"setMarketplace","inputs":[{"name":"_marketplace","type":"address","internalType":"address"}],"outputs":[],"stateMutability":"nonpayable"},{"type":"function","name":"setTraitForTokenId","inputs":[{"name":"_tokenId","type":"uint256","internalType":"uint256"},{"name":"_trait","type":"tuple","internalType":"struct ITraitStorage.StoredTrait","components":[{"name":"epoch","type":"uint256","internalType":"uint256"},{"name":"isRevealed","type":"bool","internalType":"bool"},{"name":"seed","type":"uint256","internalType":"uint256"},{"name":"renderMinterContract","type":"address","internalType":"address"},{"name":"traitIndex","type":"uint256","internalType":"uint256"},{"name":"traitType","type":"uint8","internalType":"enum TraitCategory.Name"}]}],"outputs":[],"stateMutability":"nonpayable"},{"type":"function","name":"setTraitIndexToMetadata","inputs":[{"name":"_traitIndex","type":"uint256","internalType":"uint256"},{"name":"_metadata","type":"tuple","internalType":"struct ITraitStorage.TraitMetadata","components":[{"name":"traitIndex","type":"uint256","internalType":"uint256"},{"name":"traitName","type":"string","internalType":"string"},{"name":"traitType","type":"uint8","internalType":"enum TraitCategory.Name"},{"name":"animations","type":"string","internalType":"string"},{"name":"colorMap","type":"bytes","internalType":"bytes"},{"name":"zMap","type":"bytes","internalType":"bytes"},{"name":"renderMinterContract","type":"address","internalType":"address"},{"name":"creatorAddress","type":"address","internalType":"address"},{"name":"creatorName","type":"string","internalType":"string"},{"name":"season","type":"string","internalType":"string"}]}],"outputs":[],"stateMutability":"nonpayable"},{"type":"function","name":"setTraitRenderer","inputs":[{"name":"_traitRenderer","type":"address","internalType":"address"}],"outputs":[],"stateMutability":"nonpayable"},{"type":"function","name":"supportsInterface","inputs":[{"name":"interfaceId","type":"bytes4","internalType":"bytes4"}],"outputs":[{"name":"","type":"bool","internalType":"bool"}],"stateMutability":"view"},{"type":"function","name":"symbol","inputs":[],"outputs":[{"name":"","type":"string","internalType":"string"}],"stateMutability":"view"},{"type":"function","name":"tokenByIndex","inputs":[{"name":"index","type":"uint256","internalType":"uint256"}],"outputs":[{"name":"","type":"uint256","internalType":"uint256"}],"stateMutability":"view"},{"type":"function","name":"tokenOfOwnerByIndex","inputs":[{"name":"owner","type":"address","internalType":"address"},{"name":"index","type":"uint256","internalType":"uint256"}],"outputs":[{"name":"","type":"uint256","internalType":"uint256"}],"stateMutability":"view"},{"type":"function","name":"tokenURI","inputs":[{"name":"_tokenId","type":"uint256","internalType":"uint256"}],"outputs":[{"name":"","type":"string","internalType":"string"}],"stateMutability":"view"},{"type":"function","name":"totalSupply","inputs":[],"outputs":[{"name":"","type":"uint256","internalType":"uint256"}],"stateMutability":"view"},{"type":"function","name":"traitIdToApprovedOperators","inputs":[{"name":"traitId","type":"uint256","internalType":"uint256"},{"name":"","type":"uint256","internalType":"uint256"}],"outputs":[{"name":"operators","type":"address","internalType":"address"}],"stateMutability":"view"},{"type":"function","name":"traitIndexToMetadata","inputs":[{"name":"","type":"uint256","internalType":"uint256"}],"outputs":[{"name":"traitIndex","type":"uint256","internalType":"uint256"},{"name":"traitName","type":"string","internalType":"string"},{"name":"traitType","type":"uint8","internalType":"enum TraitCategory.Name"},{"name":"animations","type":"string","internalType":"string"},{"name":"colorMap","type":"bytes","internalType":"bytes"},{"name":"zMap","type":"bytes","internalType":"bytes"},{"name":"renderMinterContract","type":"address","internalType":"address"},{"name":"creatorAddress","type":"address","internalType":"address"},{"name":"creatorName","type":"string","internalType":"string"},{"name":"season","type":"string","internalType":"string"}],"stateMutability":"view"},{"type":"function","name":"traitRenderer","inputs":[],"outputs":[{"name":"","type":"address","internalType":"contract TraitRenderer"}],"stateMutability":"view"},{"type":"function","name":"traitTokens","inputs":[],"outputs":[{"name":"epoch","type":"uint256","internalType":"uint256"}],"stateMutability":"view"},{"type":"function","name":"transferFrom","inputs":[{"name":"from","type":"address","internalType":"address"},{"name":"to","type":"address","internalType":"address"},{"name":"tokenId","type":"uint256","internalType":"uint256"}],"outputs":[],"stateMutability":"nonpayable"},{"type":"function","name":"transferOwnership","inputs":[{"name":"newOwner","type":"address","internalType":"address"}],"outputs":[],"stateMutability":"payable"},{"type":"function","name":"walletOfOwner","inputs":[{"name":"_owner","type":"address","internalType":"address"}],"outputs":[{"name":"","type":"uint256[]","internalType":"uint256[]"}],"stateMutability":"view"},{"type":"event","name":"AllOperatorApprovalsInvalidated","inputs":[{"name":"tokenId","type":"uint256","indexed":true,"internalType":"uint256"}],"anonymous":false},{"type":"event","name":"Approval","inputs":[{"name":"owner","type":"address","indexed":true,"internalType":"address"},{"name":"approved","type":"address","indexed":true,"internalType":"address"},{"name":"tokenId","type":"uint256","indexed":true,"internalType":"uint256"}],"anonymous":false},{"type":"event","name":"ApprovalForAll","inputs":[{"name":"owner","type":"address","indexed":true,"internalType":"address"},{"name":"operator","type":"address","indexed":true,"internalType":"address"},{"name":"approved","type":"bool","indexed":false,"internalType":"bool"}],"anonymous":false},{"type":"event","name":"BatchMetadataUpdate","inputs":[{"name":"_fromTokenId","type":"uint256","indexed":false,"internalType":"uint256"},{"name":"_toTokenId","type":"uint256","indexed":false,"internalType":"uint256"}],"anonymous":false},{"type":"event","name":"MetadataUpdate","inputs":[{"name":"_tokenId","type":"uint256","indexed":false,"internalType":"uint256"}],"anonymous":false},{"type":"event","name":"NewEpoch","inputs":[{"name":"epoch","type":"uint256","indexed":true,"internalType":"uint256"},{"name":"revealBlock","type":"uint64","indexed":true,"internalType":"uint64"}],"anonymous":false},{"type":"event","name":"OwnershipHandoverCanceled","inputs":[{"name":"pendingOwner","type":"address","indexed":true,"internalType":"address"}],"anonymous":false},{"type":"event","name":"OwnershipHandoverRequested","inputs":[{"name":"pendingOwner","type":"address","indexed":true,"internalType":"address"}],"anonymous":false},{"type":"event","name":"OwnershipTransferred","inputs":[{"name":"oldOwner","type":"address","indexed":true,"internalType":"address"},{"name":"newOwner","type":"address","indexed":true,"internalType":"address"}],"anonymous":false},{"type":"event","name":"Transfer","inputs":[{"name":"from","type":"address","indexed":true,"internalType":"address"},{"name":"to","type":"address","indexed":true,"internalType":"address"},{"name":"tokenId","type":"uint256","indexed":true,"internalType":"uint256"}],"anonymous":false},{"type":"error","name":"AddressCantBurn","inputs":[]},{"type":"error","name":"AlreadyInitialized","inputs":[]},{"type":"error","name":"CantTransfer","inputs":[]},{"type":"error","name":"NewOwnerIsZeroAddress","inputs":[]},{"type":"error","name":"NoHandoverRequest","inputs":[]},{"type":"error","name":"NotATBA","inputs":[]},{"type":"error","name":"NotAValidMinterContract","inputs":[]},{"type":"error","name":"NotYourTrait","inputs":[]},{"type":"error","name":"SetChonksMainAddress","inputs":[]},{"type":"error","name":"SetMarketplaceAddress","inputs":[]},{"type":"error","name":"TraitNotFound","inputs":[{"name":"_tokenId","type":"uint256","internalType":"uint256"}]},{"type":"error","name":"TraitTokenDoesntExist","inputs":[]},{"type":"error","name":"Unauthorized","inputs":[]}],"bytecode":{"object":"0x60806040523480156200001157600080fd5b50604051620093843803806200938483398101604081905262000034916200015c565b6040518060400160405280600c81526020016b43686f6e6b2054726169747360a01b8152506040518060400160405280600c81526020016b43484f4e4b2054524149545360a01b81525081600090816200008f91906200022e565b5060016200009e82826200022e565b50506001600a5550620000b13362000112565b6015805460ff1916821515179055604051620000cd906200014e565b604051809103906000f080158015620000ea573d6000803e3d6000fd5b50600e80546001600160a01b0319166001600160a01b039290921691909117905550620002fa565b6001600160a01b0316638b78c6d8198190558060007f8be0079c531659141344cd1fd0a4f28419497f9722a3daafe3b4186f6b6457e08180a350565b612fc680620063be83390190565b6000602082840312156200016f57600080fd5b815180151581146200018057600080fd5b9392505050565b634e487b7160e01b600052604160045260246000fd5b600181811c90821680620001b257607f821691505b602082108103620001d357634e487b7160e01b600052602260045260246000fd5b50919050565b601f82111562000229576000816000526020600020601f850160051c81016020861015620002045750805b601f850160051c820191505b81811015620002255782815560010162000210565b5050505b505050565b81516001600160401b038111156200024a576200024a62000187565b62000262816200025b84546200019d565b84620001d9565b602080601f8311600181146200029a5760008415620002815750858301515b600019600386901b1c1916600185901b17855562000225565b600085815260208120601f198616915b82811015620002cb57888601518255948401946001909101908401620002aa565b5085821015620002ea5787850151600019600388901b60f8161c191681555b5050505050600190811b01905550565b6160b4806200030a6000396000f3fe6080604052600436106103f95760003560e01c80638da5cb5b11610213578063c876371b11610123578063e8a1268d116100ab578063f12719421161007a578063f127194214610cfb578063f2fde38b14610d1b578063f677c01314610d2e578063f901667f14610d4e578063fee81cf414610d6e57600080fd5b8063e8a1268d14610c52578063e985e9c514610c7f578063ea13954414610cc8578063f04e283e14610ce857600080fd5b8063df2c2b88116100f2578063df2c2b8814610bbb578063e08714a614610bdb578063e14d026f14610bfb578063e1defed914610c12578063e4623c1b14610c3257600080fd5b8063c876371b14610b2e578063c87b56dd14610b4e578063cde2180a14610b6e578063d1bfc2af14610b8e57600080fd5b8063aa271e1a116101a6578063b88d4fde11610175578063b88d4fde14610a9f578063b97dd9e2146107bf578063ba7270f314610abf578063bb12d21d14610adf578063c779153114610b0e57600080fd5b8063aa271e1a146109ff578063abc8c7af14610a2f578063acb586df14610a4f578063b3148f7514610a6f57600080fd5b8063a1d62680116101e2578063a1d626801461097f578063a22cb4651461099f578063a5e2912a146109bf578063a8498c74146109df57600080fd5b80638da5cb5b1461091157806390f638421461092a57806395d89b411461094a578063983b2d561461095f57600080fd5b806340d097c31161030e57806370a08231116102a157806375794a3c1161027057806375794a3c146107a9578063757991a8146107bf578063817a29a4146107d4578063859e7d321461080a5780638d37c537146108f157600080fd5b806370a0823114610741578063713dbc2714610761578063715018a61461078157806373ad6c2d1461078957600080fd5b80634f6ccce7116102dd5780634f6ccce7146106e457806354d1f13d146107045780635c1ef2561461070c5780636352211e1461072157600080fd5b806340d097c31461065757806342842e0e1461067757806342966c6814610697578063438b6300146106b757600080fd5b8063208c25a311610391578063256929621161036057806325692962146105c15780632f745c59146105c95780633092afd5146105e957806333a703281461060957806336d34ab91461063757600080fd5b8063208c25a31461053f57806321b12c231461056c578063239ffa681461058c57806323b872dd146105a157600080fd5b8063095ea7b3116103cd578063095ea7b3146104be57806311f3910d146104e0578063120def241461050057806318160ddd1461052057600080fd5b8062db6348146103fe57806301ffc9a71461043457806306fdde0314610464578063081812fc14610486575b600080fd5b34801561040a57600080fd5b5061041e610419366004614b21565b610da1565b60405161042b9190614b3a565b60405180910390f35b34801561044057600080fd5b5061045461044f366004614b9d565b610e0d565b604051901515815260200161042b565b34801561047057600080fd5b50610479610e1e565b60405161042b9190614c11565b34801561049257600080fd5b506104a66104a1366004614b21565b610eb0565b6040516001600160a01b03909116815260200161042b565b3480156104ca57600080fd5b506104de6104d9366004614c49565b610ed7565b005b3480156104ec57600080fd5b506104a66104fb366004614c75565b611102565b34801561050c57600080fd5b506104de61051b366004614c97565b61113a565b34801561052c57600080fd5b506008545b60405190815260200161042b565b34801561054b57600080fd5b5061055f61055a366004614b21565b611164565b60405161042b9190614d34565b34801561057857600080fd5b50610479610587366004614e73565b61122c565b34801561059857600080fd5b506104de6112a2565b3480156105ad57600080fd5b506104de6105bc366004614ea7565b61147e565b6104de6114bd565b3480156105d557600080fd5b506105316105e4366004614c49565b61150c565b3480156105f557600080fd5b506104de610604366004614c97565b6115a2565b34801561061557600080fd5b50610629610624366004614f8c565b6115cb565b60405161042b929190614fb7565b34801561064357600080fd5b506104de610652366004614fdc565b611666565b34801561066357600080fd5b50610531610672366004614c97565b611730565b34801561068357600080fd5b506104de610692366004614ea7565b6117d1565b3480156106a357600080fd5b506104de6106b2366004614b21565b6117ec565b3480156106c357600080fd5b506106d76106d2366004614c97565b611825565b60405161042b9190615009565b3480156106f057600080fd5b506105316106ff366004614b21565b611904565b6104de611997565b34801561071857600080fd5b506104796119d3565b34801561072d57600080fd5b506104a661073c366004614b21565b611a4a565b34801561074d57600080fd5b5061053161075c366004614c97565b611aaa565b34801561076d57600080fd5b506104de61077c366004614c97565b611b30565b6104de611b5a565b34801561079557600080fd5b506104de6107a4366004614c97565b611b6e565b3480156107b557600080fd5b5061053160165481565b3480156107cb57600080fd5b50600c54610531565b3480156107e057600080fd5b506107f46107ef366004614b21565b611b98565b60405161042b9a99989796959493929190615041565b34801561081657600080fd5b506108a8610825366004614b21565b6040805160808082018352600080835260208084018290528385018290526060938401829052948152600d855283902083519182018452546001600160801b03811682526001600160401b03600160801b8204169482019490945260ff600160c01b85048116151593820193909352600160c81b90930490911615159082015290565b60405161042b919081516001600160801b031681526020808301516001600160401b03169082015260408083015115159082015260609182015115159181019190915260800190565b3480156108fd57600080fd5b506104de61090c3660046150f6565b611f30565b34801561091d57600080fd5b50638b78c6d819546104a6565b34801561093657600080fd5b506104de610945366004614b21565b61202f565b34801561095657600080fd5b506104796121d1565b34801561096b57600080fd5b506104de61097a366004614c97565b6121e0565b34801561098b57600080fd5b5061047961099a366004614b21565b61220c565b3480156109ab57600080fd5b506104de6109ba366004615264565b6122ff565b3480156109cb57600080fd5b506104796109da366004614b21565b61253c565b3480156109eb57600080fd5b506104796109fa366004614b21565b61257e565b348015610a0b57600080fd5b50610454610a1a366004614c97565b60136020526000908152604090205460ff1681565b348015610a3b57600080fd5b506012546104a6906001600160a01b031681565b348015610a5b57600080fd5b5061055f610a6a366004614b21565b612636565b348015610a7b57600080fd5b50610454610a8a366004614c97565b60146020526000908152604090205460ff1681565b348015610aab57600080fd5b506104de610aba36600461529d565b6127d5565b348015610acb57600080fd5b506011546104a6906001600160a01b031681565b348015610aeb57600080fd5b50610aff610afa36600461532d565b61280d565b60405161042b93929190615426565b348015610b1a57600080fd5b50610479610b29366004614b21565b61289c565b348015610b3a57600080fd5b50600e546104a6906001600160a01b031681565b348015610b5a57600080fd5b50610479610b69366004614b21565b6128f2565b348015610b7a57600080fd5b506104de610b89366004614c97565b612933565b348015610b9a57600080fd5b50610bae610ba9366004614b21565b61295c565b60405161042b9190615469565b348015610bc757600080fd5b50610629610bd636600461532d565b612d69565b348015610be757600080fd5b50610629610bf6366004615572565b612df4565b348015610c0757600080fd5b50600c546105319081565b348015610c1e57600080fd5b506104de610c2d3660046155de565b612ea1565b348015610c3e57600080fd5b506104de610c4d366004615641565b612f11565b348015610c5e57600080fd5b50610c72610c6d366004614b21565b612f77565b60405161042b91906156e6565b348015610c8b57600080fd5b50610454610c9a3660046156f4565b6001600160a01b03918216600090815260056020908152604080832093909416825291909152205460ff1690565b348015610cd457600080fd5b50610bae610ce3366004614b21565b613384565b6104de610cf6366004614c97565b61377f565b348015610d0757600080fd5b50610aff610d16366004615722565b6137bc565b6104de610d29366004614c97565b613872565b348015610d3a57600080fd5b506104de610d49366004614c97565b613899565b348015610d5a57600080fd5b50610aff610d69366004614f8c565b6138c5565b348015610d7a57600080fd5b50610531610d89366004614c97565b63389a75e1600c908152600091909152602090205490565b600081815260106020908152604091829020805483518184028101840190945280845260609392830182828015610e0157602002820191906000526020600020905b81546001600160a01b03168152600190910190602001808311610de3575b50505050509050919050565b6000610e1882613964565b92915050565b606060008054610e2d906157a7565b80601f0160208091040260200160405190810160405280929190818152602001828054610e59906157a7565b8015610ea65780601f10610e7b57610100808354040283529160200191610ea6565b820191906000526020600020905b815481529060010190602001808311610e8957829003601f168201915b5050505050905090565b6000610ebb82613989565b506000908152600460205260409020546001600160a01b031690565b6000818152600260205260409020546001600160a01b0316610f0c57604051632df0e24560e21b815260040160405180910390fd5b33610f1682611a4a565b6001600160a01b031614610f3d57604051633e79b9f360e01b815260040160405180910390fd5b6001600160a01b03821661105e576000818152601060205260408120905b815481101561105757836001600160a01b0316828281548110610f8057610f806157db565b6000918252602090912001546001600160a01b03160361104f5781548290610faa90600190615807565b81548110610fba57610fba6157db565b9060005260206000200160009054906101000a90046001600160a01b0316828281548110610fea57610fea6157db565b9060005260206000200160006101000a8154816001600160a01b0302191690836001600160a01b03160217905550818054806110285761102861581a565b600082815260209020810160001990810180546001600160a01b0319169055019055611057565b600101610f5b565b50506110f4565b600081815260106020526040812090805b82548110156110bf57846001600160a01b0316838281548110611094576110946157db565b6000918252602090912001546001600160a01b0316036110b757600191506110bf565b60010161106f565b50806110f15781546001810183556000838152602090200180546001600160a01b0319166001600160a01b0386161790555b50505b6110fe82826139e8565b5050565b6010602052816000526040600020818154811061111e57600080fd5b6000918252602090912001546001600160a01b03169150829050565b611142613af8565b600e80546001600160a01b0319166001600160a01b0392909216919091179055565b61119a6040805160c08101825260008082526020820181905291810182905260608101829052608081018290529060a082015290565b6000828152600b6020908152604091829020825160c08101845281548152600182015460ff90811615159382019390935260028201549381019390935260038101546001600160a01b03166060840152600481015460808401526005810154909160a084019116600781111561121257611212614cb4565b600781111561122357611223614cb4565b90525092915050565b600e546040516321b12c2360e01b81526060916001600160a01b0316906321b12c239061125d908590600401614c11565b600060405180830381865afa15801561127a573d6000803e3d6000fd5b505050506040513d6000823e601f3d908101601f19168201604052610e189190810190615875565b600c546000908152600d602052604090208054600160c01b900460ff1615806112fa57508054600160c81b900460ff161580156112fa57506112e661010043615807565b8154600160801b90046001600160401b0316105b156113455761130a4360326158a9565b815460ff60c01b196001600160401b0392909216600160801b029190911668ffffffffffffffffff60801b1990911617600160c01b17815550565b8054600160801b90046001600160401b031643111561147b57805460408051600160801b9092046001600160401b031640602083015244908201526001600160801b03906060016040516020818303038152906040528051906020012060001c6113af91906158bc565b8154600160c81b6001600160801b039290921679ff000000000000000000ffffffffffffffffffffffffffffffff199091161717808255600c54604051600160801b9092046001600160401b0316917f78611aecfda8d341359c248df527c95aef93d446c92bb928b2a81b7abcb1d8d990600090a3604080516000815260001960208201527f6bd5c950a8d8df17f772f5af37cb3655737899cbf903264b9795592da439661c910160405180910390a1600c805460009061146f906158de565b9091555061147b6112a2565b50565b6114883382613b13565b6114ad5760405162461bcd60e51b81526004016114a4906158f7565b60405180910390fd5b6114b8838383613b91565b505050565b60006202a3006001600160401b03164201905063389a75e1600c5233600052806020600c2055337fdbf36a107da19e49527a7176a1babf963b4b0ff8cde35ee35d6cd8f1f9ac7e1d600080a250565b600061151783611aaa565b82106115795760405162461bcd60e51b815260206004820152602b60248201527f455243373231456e756d657261626c653a206f776e657220696e646578206f7560448201526a74206f6620626f756e647360a81b60648201526084016114a4565b506001600160a01b03919091166000908152600660209081526040808320938352929052205490565b6115aa613af8565b6001600160a01b03166000908152601360205260409020805460ff19169055565b600e5460808301516000908152600f60205260409081902090516317de5cbf60e11b815260609283926001600160a01b0390911691632fbcb97e916116169188918891600401615aa0565b600060405180830381865afa158015611633573d6000803e3d6000fd5b505050506040513d6000823e601f3d908101601f1916820160405261165b9190810190615ac7565b915091509250929050565b3360008181526013602052604090205460ff166116965760405163090a0b6960e21b815260040160405180910390fd5b6000838152600b602090815260409182902084518155908401516001808301805492151560ff1993841617905592850151600283015560608501516003830180546001600160a01b039092166001600160a01b03199092169190911790556080850151600483015560a085015160058301805487959293919291169083600781111561172457611724614cb4565b02179055505050505050565b3360008181526013602052604081205490919060ff166117635760405163090a0b6960e21b815260040160405180910390fd5b61176b6112a2565b600060166000815461177c906158de565b9182905550905061178d8482613d3e565b604080516000815260001960208201527f6bd5c950a8d8df17f772f5af37cb3655737899cbf903264b9795592da439661c910160405180910390a191505b50919050565b6114b8838383604051806020016040528060008152506127d5565b3360009081526013602052604090205460ff1661181c57604051631758e6d560e11b815260040160405180910390fd5b61147b81613d58565b6060600061183283611aaa565b90506000816001600160401b0381111561184e5761184e614d42565b604051908082528060200260200182016040528015611877578160200160208202803683370190505b50905060005b828110156118fc576118cd6040518060400160405280601e81526020017f746f6b656e4f664f776e65724279496e646578285f6f776e65722c20692900008152506118c8878461150c565b613e07565b6118d7858261150c565b8282815181106118e9576118e96157db565b602090810291909101015260010161187d565b509392505050565b600061190f60085490565b82106119725760405162461bcd60e51b815260206004820152602c60248201527f455243373231456e756d657261626c653a20676c6f62616c20696e646578206f60448201526b7574206f6620626f756e647360a01b60648201526084016114a4565b60088281548110611985576119856157db565b90600052602060002001549050919050565b63389a75e1600c523360005260006020600c2055337ffa7b8eab7da67f412cc9575ed43464468f9bfbae89d1675917346ca6d8fe3c92600080a2565b600e5460408051632e0f792b60e11b815290516060926001600160a01b031691635c1ef2569160048083019260009291908290030181865afa158015611a1d573d6000803e3d6000fd5b505050506040513d6000823e601f3d908101601f19168201604052611a459190810190615875565b905090565b6000818152600260205260408120546001600160a01b031680610e185760405162461bcd60e51b8152602060048201526018602482015277115490cdcc8c4e881a5b9d985b1a59081d1bdad95b88125160421b60448201526064016114a4565b60006001600160a01b038216611b145760405162461bcd60e51b815260206004820152602960248201527f4552433732313a2061646472657373207a65726f206973206e6f7420612076616044820152683634b21037bbb732b960b91b60648201526084016114a4565b506001600160a01b031660009081526003602052604090205490565b611b38613af8565b601180546001600160a01b0319166001600160a01b0392909216919091179055565b611b62613af8565b611b6c6000613e4c565b565b611b76613af8565b601280546001600160a01b0319166001600160a01b0392909216919091179055565b600f6020526000908152604090208054600182018054919291611bba906157a7565b80601f0160208091040260200160405190810160405280929190818152602001828054611be6906157a7565b8015611c335780601f10611c0857610100808354040283529160200191611c33565b820191906000526020600020905b815481529060010190602001808311611c1657829003601f168201915b5050506002840154600385018054949560ff909216949193509150611c57906157a7565b80601f0160208091040260200160405190810160405280929190818152602001828054611c83906157a7565b8015611cd05780601f10611ca557610100808354040283529160200191611cd0565b820191906000526020600020905b815481529060010190602001808311611cb357829003601f168201915b505050505090806004018054611ce5906157a7565b80601f0160208091040260200160405190810160405280929190818152602001828054611d11906157a7565b8015611d5e5780601f10611d3357610100808354040283529160200191611d5e565b820191906000526020600020905b815481529060010190602001808311611d4157829003601f168201915b505050505090806005018054611d73906157a7565b80601f0160208091040260200160405190810160405280929190818152602001828054611d9f906157a7565b8015611dec5780601f10611dc157610100808354040283529160200191611dec565b820191906000526020600020905b815481529060010190602001808311611dcf57829003601f168201915b5050506006840154600785015460088601805495966001600160a01b0393841696929093169450919250611e1f906157a7565b80601f0160208091040260200160405190810160405280929190818152602001828054611e4b906157a7565b8015611e985780601f10611e6d57610100808354040283529160200191611e98565b820191906000526020600020905b815481529060010190602001808311611e7b57829003601f168201915b505050505090806009018054611ead906157a7565b80601f0160208091040260200160405190810160405280929190818152602001828054611ed9906157a7565b8015611f265780601f10611efb57610100808354040283529160200191611f26565b820191906000526020600020905b815481529060010190602001808311611f0957829003601f168201915b505050505090508a565b6000828152600f6020908152604090912082518155908201518291906001820190611f5b9082615b68565b50604082015160028201805460ff19166001836007811115611f7f57611f7f614cb4565b021790555060608201516003820190611f989082615b68565b5060808201516004820190611fad9082615b68565b5060a08201516005820190611fc29082615b68565b5060c08201516006820180546001600160a01b039283166001600160a01b03199182161790915560e084015160078401805491909316911617905561010082015160088201906120129082615b68565b5061012082015160098201906120289082615b68565b5050505050565b6000818152600260205260409020546001600160a01b031661206457604051632df0e24560e21b815260040160405180910390fd5b3361206e82611a4a565b6001600160a01b03161415801561209057506011546001600160a01b03163314155b80156120ac57503360009081526014602052604090205460ff16155b156120ca57604051633e79b9f360e01b815260040160405180910390fd5b60008181526010602090815260408083208054825181850281018501909352808352919290919083018282801561212a57602002820191906000526020600020905b81546001600160a01b0316815260019091019060200180831161210c575b50505050509050805160000361213e575050565b612149600083613e8a565b60005b815181101561218a5761218261216184611a4a565b838381518110612173576121736157db565b60200260200101516000613ef8565b60010161214c565b5060008281526010602052604081206121a291614a85565b60405182907fe6727257e6b1474b2ced9b705eafa89027508be445f1a76db669635c92f5242090600090a25050565b606060018054610e2d906157a7565b6121e8613af8565b6001600160a01b03166000908152601360205260409020805460ff19166001179055565b6060600061221983612636565b90506000816020015161224f576040518060400160405280600b81526020016a1e39bb339f1e17b9bb339f60a91b81525061225c565b61225c826080015161253c565b600e5460808401516000908152600f602052604090209192506001600160a01b03169063a5e11e0590869085906122916119d3565b866040518663ffffffff1660e01b81526004016122b2959493929190615c27565b600060405180830381865afa1580156122cf573d6000803e3d6000fd5b505050506040513d6000823e601f3d908101601f191682016040526122f79190810190615875565b949350505050565b336001600160a01b038316036123535760405162461bcd60e51b815260206004820152601960248201527822a9219b99189d1030b8383937bb32903a379031b0b63632b960391b60448201526064016114a4565b600061235e33611aaa565b905060005b81811015612531576000612377338361150c565b9050831561241957600081815260106020526040812090805b82548110156123e057876001600160a01b03168382815481106123b5576123b56157db565b6000918252602090912001546001600160a01b0316036123d857600191506123e0565b600101612390565b50806124125781546001810183556000838152602090200180546001600160a01b0319166001600160a01b0389161790555b5050612528565b6000818152601060205260408120905b815481101561252557866001600160a01b031682828154811061244e5761244e6157db565b6000918252602090912001546001600160a01b03160361251d578154829061247890600190615807565b81548110612488576124886157db565b9060005260206000200160009054906101000a90046001600160a01b03168282815481106124b8576124b86157db565b9060005260206000200160006101000a8154816001600160a01b0302191690836001600160a01b03160217905550818054806124f6576124f661581a565b600082815260209020810160001990810180546001600160a01b0319169055019055612525565b600101612429565b50505b50600101612363565b506114b88383613fc2565b600e546000828152600f6020526040908190209051631349027b60e31b81526060926001600160a01b031691639a4813d89161125d9160049081019101615c78565b6060600061258b83612636565b60808101516000908152600f602052604090206005018054919250906125b0906157a7565b80601f01602080910402602001604051908101604052809291908181526020018280546125dc906157a7565b80156126295780601f106125fe57610100808354040283529160200191612629565b820191906000526020600020905b81548152906001019060200180831161260c57829003601f168201915b5050505050915050919050565b61266c6040805160c08101825260008082526020820181905291810182905260608101829052608081018290529060a082015290565b6000828152600b60209081526040808320815160c08101835281548152600182015460ff90811615159482019490945260028201549281019290925260038101546001600160a01b031660608301526004810154608083015260058101549192909160a08401911660078111156126e5576126e5614cb4565b60078111156126f6576126f6614cb4565b90525080516000908152600d602052604090205460608201519192506001600160801b0316906001600160a01b03811615801561273557506040830151155b156127565760405163082d451d60e01b8152600481018690526024016114a4565b60155460405163687d69df60e11b81526001600160a01b0383169163d0fad3be9161278b9160ff169087908790600401615c8b565b60c060405180830381865afa1580156127a8573d6000803e3d6000fd5b505050506040513d601f19601f820116820180604052508101906127cc9190615cb9565b95945050505050565b6127df3383613b13565b6127fb5760405162461bcd60e51b81526004016114a4906158f7565b61280784848484613fcd565b50505050565b600e54604051635ab38bf760e01b8152606091829182916001600160a01b031690635ab38bf79061284a908790309063f127194290600401615ddc565b600060405180830381865afa158015612867573d6000803e3d6000fd5b505050506040513d6000823e601f3d908101601f1916820160405261288f9190810190615e0e565b9250925092509193909250565b606060006128a983612636565b90508060200151156128c9576128c2816080015161253c565b91506117cb565b505060408051808201909152600b81526a1e39bb339f1e17b9bb339f60a91b6020820152919050565b6000818152600260205260409020546060906001600160a01b031661292a57604051632df0e24560e21b815260040160405180910390fd5b610e188261220c565b61293b613af8565b6001600160a01b03166000908152601460205260409020805460ff19169055565b612964614aa3565b600061296f83612636565b9050600f60008260800151815260200190815260200160002060405180610140016040529081600082015481526020016001820180546129ae906157a7565b80601f01602080910402602001604051908101604052809291908181526020018280546129da906157a7565b8015612a275780601f106129fc57610100808354040283529160200191612a27565b820191906000526020600020905b815481529060010190602001808311612a0a57829003601f168201915b5050509183525050600282015460209091019060ff166007811115612a4e57612a4e614cb4565b6007811115612a5f57612a5f614cb4565b8152602001600382018054612a73906157a7565b80601f0160208091040260200160405190810160405280929190818152602001828054612a9f906157a7565b8015612aec5780601f10612ac157610100808354040283529160200191612aec565b820191906000526020600020905b815481529060010190602001808311612acf57829003601f168201915b50505050508152602001600482018054612b05906157a7565b80601f0160208091040260200160405190810160405280929190818152602001828054612b31906157a7565b8015612b7e5780601f10612b5357610100808354040283529160200191612b7e565b820191906000526020600020905b815481529060010190602001808311612b6157829003601f168201915b50505050508152602001600582018054612b97906157a7565b80601f0160208091040260200160405190810160405280929190818152602001828054612bc3906157a7565b8015612c105780601f10612be557610100808354040283529160200191612c10565b820191906000526020600020905b815481529060010190602001808311612bf357829003601f168201915b505050918352505060068201546001600160a01b0390811660208301526007830154166040820152600882018054606090920191612c4d906157a7565b80601f0160208091040260200160405190810160405280929190818152602001828054612c79906157a7565b8015612cc65780601f10612c9b57610100808354040283529160200191612cc6565b820191906000526020600020905b815481529060010190602001808311612ca957829003601f168201915b50505050508152602001600982018054612cdf906157a7565b80601f0160208091040260200160405190810160405280929190818152602001828054612d0b906157a7565b8015612d585780601f10612d2d57610100808354040283529160200191612d58565b820191906000526020600020905b815481529060010190602001808311612d3b57829003601f168201915b505050505081525050915050919050565b600e546040516338ce943360e01b815260609182916001600160a01b03909116906338ce943390612da6908690309063e08714a690600401615ddc565b600060405180830381865afa158015612dc3573d6000803e3d6000fd5b505050506040513d6000823e601f3d908101601f19168201604052612deb9190810190615ac7565b91509150915091565b6060806000612e0286612636565b600e5460808201516000908152600f6020526040908190209051630a6ab71760e21b81529293506001600160a01b03909116916329aadc5c91612e4f918a918a918a918891600401615e8b565b600060405180830381865afa158015612e6c573d6000803e3d6000fd5b505050506040513d6000823e601f3d908101601f19168201604052612e949190810190615ac7565b9250925050935093915050565b612ea9613af8565b600e5460405163e1defed960e01b81526001600160a01b039091169063e1defed990612edb9085908590600401614fb7565b600060405180830381600087803b158015612ef557600080fd5b505af1158015612f09573d6000803e3d6000fd5b505050505050565b3360009081526013602052604090205460ff16612f4157604051631758e6d560e11b815260040160405180910390fd5b60005b81518110156110fe57612f6f828281518110612f6257612f626157db565b6020026020010151613d58565b600101612f44565b600080612f8383612636565b90506000600f6000836080015181526020019081526020016000206040518061014001604052908160008201548152602001600182018054612fc4906157a7565b80601f0160208091040260200160405190810160405280929190818152602001828054612ff0906157a7565b801561303d5780601f106130125761010080835404028352916020019161303d565b820191906000526020600020905b81548152906001019060200180831161302057829003601f168201915b5050509183525050600282015460209091019060ff16600781111561306457613064614cb4565b600781111561307557613075614cb4565b8152602001600382018054613089906157a7565b80601f01602080910402602001604051908101604052809291908181526020018280546130b5906157a7565b80156131025780601f106130d757610100808354040283529160200191613102565b820191906000526020600020905b8154815290600101906020018083116130e557829003601f168201915b5050505050815260200160048201805461311b906157a7565b80601f0160208091040260200160405190810160405280929190818152602001828054613147906157a7565b80156131945780601f1061316957610100808354040283529160200191613194565b820191906000526020600020905b81548152906001019060200180831161317757829003601f168201915b505050505081526020016005820180546131ad906157a7565b80601f01602080910402602001604051908101604052809291908181526020018280546131d9906157a7565b80156132265780601f106131fb57610100808354040283529160200191613226565b820191906000526020600020905b81548152906001019060200180831161320957829003601f168201915b505050918352505060068201546001600160a01b0390811660208301526007830154166040820152600882018054606090920191613263906157a7565b80601f016020809104026020016040519081016040528092919081815260200182805461328f906157a7565b80156132dc5780601f106132b1576101008083540402835291602001916132dc565b820191906000526020600020905b8154815290600101906020018083116132bf57829003601f168201915b505050505081526020016009820180546132f5906157a7565b80601f0160208091040260200160405190810160405280929190818152602001828054613321906157a7565b801561336e5780601f106133435761010080835404028352916020019161336e565b820191906000526020600020905b81548152906001019060200180831161335157829003601f168201915b5050509190925250505060400151949350505050565b61338c614aa3565b600f600083815260200190815260200160002060405180610140016040529081600082015481526020016001820180546133c5906157a7565b80601f01602080910402602001604051908101604052809291908181526020018280546133f1906157a7565b801561343e5780601f106134135761010080835404028352916020019161343e565b820191906000526020600020905b81548152906001019060200180831161342157829003601f168201915b5050509183525050600282015460209091019060ff16600781111561346557613465614cb4565b600781111561347657613476614cb4565b815260200160038201805461348a906157a7565b80601f01602080910402602001604051908101604052809291908181526020018280546134b6906157a7565b80156135035780601f106134d857610100808354040283529160200191613503565b820191906000526020600020905b8154815290600101906020018083116134e657829003601f168201915b5050505050815260200160048201805461351c906157a7565b80601f0160208091040260200160405190810160405280929190818152602001828054613548906157a7565b80156135955780601f1061356a57610100808354040283529160200191613595565b820191906000526020600020905b81548152906001019060200180831161357857829003601f168201915b505050505081526020016005820180546135ae906157a7565b80601f01602080910402602001604051908101604052809291908181526020018280546135da906157a7565b80156136275780601f106135fc57610100808354040283529160200191613627565b820191906000526020600020905b81548152906001019060200180831161360a57829003601f168201915b505050918352505060068201546001600160a01b0390811660208301526007830154166040820152600882018054606090920191613664906157a7565b80601f0160208091040260200160405190810160405280929190818152602001828054613690906157a7565b80156136dd5780601f106136b2576101008083540402835291602001916136dd565b820191906000526020600020905b8154815290600101906020018083116136c057829003601f168201915b505050505081526020016009820180546136f6906157a7565b80601f0160208091040260200160405190810160405280929190818152602001828054613722906157a7565b801561376f5780601f106137445761010080835404028352916020019161376f565b820191906000526020600020905b81548152906001019060200180831161375257829003601f168201915b5050505050815250509050919050565b613787613af8565b63389a75e1600c52806000526020600c2080544211156137af57636f5e88186000526004601cfd5b6000905561147b81613e4c565b606080606060006137cc88612636565b600e5460808201516000908152600f602052604090819020905163aeea03e560e01b81529293506001600160a01b039091169163aeea03e59161381c918c918c918c918c91899190600401615edb565b600060405180830381865afa158015613839573d6000803e3d6000fd5b505050506040513d6000823e601f3d908101601f191682016040526138619190810190615e0e565b935093509350509450945094915050565b61387a613af8565b8060601b61389057637448fbae6000526004601cfd5b61147b81613e4c565b6138a1613af8565b6001600160a01b03166000908152601460205260409020805460ff19166001179055565b600e5460808301516000908152600f60205260409081902090516330235ddd60e21b8152606092839283926001600160a01b039092169163c08d7774916139129189918991600401615aa0565b600060405180830381865afa15801561392f573d6000803e3d6000fd5b505050506040513d6000823e601f3d908101601f191682016040526139579190810190615e0e565b9250925092509250925092565b60006001600160e01b0319821663780e9d6360e01b1480610e185750610e1882614000565b6000818152600260205260409020546001600160a01b031661147b5760405162461bcd60e51b8152602060048201526018602482015277115490cdcc8c4e881a5b9d985b1a59081d1bdad95b88125160421b60448201526064016114a4565b60006139f382611a4a565b9050806001600160a01b0316836001600160a01b031603613a605760405162461bcd60e51b815260206004820152602160248201527f4552433732313a20617070726f76616c20746f2063757272656e74206f776e656044820152603960f91b60648201526084016114a4565b336001600160a01b0382161480613a7c5750613a7c8133610c9a565b613aee5760405162461bcd60e51b815260206004820152603e60248201527f4552433732313a20617070726f76652063616c6c6572206973206e6f7420746f60448201527f6b656e206f776e6572206e6f7220617070726f76656420666f7220616c6c000060648201526084016114a4565b6114b88383613e8a565b638b78c6d819543314611b6c576382b429006000526004601cfd5b600080613b1f83611a4a565b9050806001600160a01b0316846001600160a01b03161480613b6657506001600160a01b0380821660009081526005602090815260408083209388168352929052205460ff165b806122f75750836001600160a01b0316613b7f84610eb0565b6001600160a01b031614949350505050565b826001600160a01b0316613ba482611a4a565b6001600160a01b031614613c085760405162461bcd60e51b815260206004820152602560248201527f4552433732313a207472616e736665722066726f6d20696e636f72726563742060448201526437bbb732b960d91b60648201526084016114a4565b6001600160a01b038216613c6a5760405162461bcd60e51b8152602060048201526024808201527f4552433732313a207472616e7366657220746f20746865207a65726f206164646044820152637265737360e01b60648201526084016114a4565b613c75838383614050565b613c80600082613e8a565b6001600160a01b0383166000908152600360205260408120805460019290613ca9908490615807565b90915550506001600160a01b0382166000908152600360205260408120805460019290613cd79084906158a9565b909155505060008181526002602052604080822080546001600160a01b0319166001600160a01b0386811691821790925591518493918716917fddf252ad1be2c89b69c2b068fc378daa952ba7f163c4a11628f55a4df523b3ef91a46114b8838383614259565b6110fe82826040518060200160405280600081525061441e565b6000613d6382611a4a565b9050613d7181600084614050565b613d7c600083613e8a565b6001600160a01b0381166000908152600360205260408120805460019290613da5908490615807565b909155505060008281526002602052604080822080546001600160a01b0319169055518391906001600160a01b038416907fddf252ad1be2c89b69c2b068fc378daa952ba7f163c4a11628f55a4df523b3ef908390a46110fe81600084614259565b6110fe8282604051602401613e1d929190615f4c565b60408051601f198184030181529190526020810180516001600160e01b03166309710a9d60e41b179052614451565b638b78c6d81980546001600160a01b039092169182907f8be0079c531659141344cd1fd0a4f28419497f9722a3daafe3b4186f6b6457e0600080a355565b600081815260046020526040902080546001600160a01b0319166001600160a01b0384169081179091558190613ebf82611a4a565b6001600160a01b03167f8c5be1e5ebec7d5bd14f71427d1e84f3dd0314c0f7b2291e5b200ac8c7c3b92560405160405180910390a45050565b816001600160a01b0316836001600160a01b031603613f555760405162461bcd60e51b815260206004820152601960248201527822a9219b99189d1030b8383937bb32903a379031b0b63632b960391b60448201526064016114a4565b6001600160a01b03838116600081815260056020908152604080832094871680845294825291829020805460ff191686151590811790915591519182527f17307eab39ab6107e8899845ad3d59bd9653f200f220920489ca2b5937696c31910160405180910390a3505050565b6110fe338383613ef8565b613fd8848484613b91565b613fe484848484614472565b6128075760405162461bcd60e51b81526004016114a490615f6e565b60006001600160e01b031982166380ac58cd60e01b148061403157506001600160e01b03198216635b5e139f60e01b145b80610e1857506301ffc9a760e01b6001600160e01b0319831614610e18565b6001600160a01b038316614069576114b8838383614573565b601254604051634f6088cd60e01b8152600481018390526000916001600160a01b031690634f6088cd90602401608060405180830381865afa1580156140b3573d6000803e3d6000fd5b505050506040513d601f19601f820116820180604052508101906140d79190615fc0565b5090925050506001600160a01b03811615614117576012546001600160a01b031633146141175760405163bf646b0f60e01b815260040160405180910390fd5b6001600160a01b0383166141b75761412f828461462b565b600061413a83611a4a565b60115460405162525fcd60e91b81526001600160a01b03808416600483015292935091169063a4bf9a0090602401602060405180830381865afa158015614185573d6000803e3d6000fd5b505050506040513d601f19601f820116820180604052508101906141a99190616015565b601755612028858585614573565b60115460405162525fcd60e91b81526001600160a01b0385811660048301529091169063a4bf9a0090602401602060405180830381865afa158015614200573d6000803e3d6000fd5b505050506040513d601f19601f820116820180604052508101906142249190616015565b600003614244576040516326a45c0160e21b815260040160405180910390fd5b61424e828461462b565b612807848484614573565b6011546001600160a01b031661428257604051632d51864760e01b815260040160405180910390fd5b6012546001600160a01b03166142ab5760405163382eb47160e21b815260040160405180910390fd5b6001600160a01b0383166142be57505050565b6001600160a01b03821661433a5760178054600090915560125460405163236313ff60e11b8152600481018390526001600160a01b03909116906346c627fe906024015b600060405180830381600087803b15801561431c57600080fd5b505af1158015614330573d6000803e3d6000fd5b5050505050505050565b600061434582611a4a565b60115460405162525fcd60e91b81526001600160a01b0380841660048301529293506000929091169063a4bf9a0090602401602060405180830381865afa158015614394573d6000803e3d6000fd5b505050506040513d601f19601f820116820180604052508101906143b89190616015565b60125460405163236313ff60e11b8152600481018390529192506001600160a01b0316906346c627fe90602401600060405180830381600087803b1580156143ff57600080fd5b505af1158015614413573d6000803e3d6000fd5b505050505050505050565b614428838361479f565b6144356000848484614472565b6114b85760405162461bcd60e51b81526004016114a490615f6e565b80516a636f6e736f6c652e6c6f67602083016000808483855afa5050505050565b60006001600160a01b0384163b1561456857604051630a85bd0160e11b81526001600160a01b0385169063150b7a02906144b690339089908890889060040161602e565b6020604051808303816000875af19250505080156144f1575060408051601f3d908101601f191682019092526144ee91810190616061565b60015b61454e573d80801561451f576040519150601f19603f3d011682016040523d82523d6000602084013e614524565b606091505b5080516000036145465760405162461bcd60e51b81526004016114a490615f6e565b805181602001fd5b6001600160e01b031916630a85bd0160e11b1490506122f7565b506001949350505050565b6001600160a01b0383166145ce576145c981600880546000838152600960205260408120829055600182018355919091527ff3f7a9fe364faab93b216da50a3214154f22a0a2b415b23a84c8169e8b636ee30155565b6145f1565b816001600160a01b0316836001600160a01b0316146145f1576145f183826148f5565b6001600160a01b038216614608576114b881614992565b826001600160a01b0316826001600160a01b0316146114b8576114b88282614a41565b600061463683611a4a565b60115460405162525fcd60e91b81526001600160a01b0380841660048301529293506000929091169063a4bf9a0090602401602060405180830381865afa158015614685573d6000803e3d6000fd5b505050506040513d601f19601f820116820180604052508101906146a99190616015565b60125460405163236313ff60e11b8152600481018390529192506001600160a01b0316906346c627fe90602401600060405180830381600087803b1580156146f057600080fd5b505af1158015614704573d6000803e3d6000fd5b5050601254604051632e1d274f60e01b8152600481018890526001600160a01b039091169250632e1d274f9150602401600060405180830381600087803b15801561474e57600080fd5b505af1158015614762573d6000803e3d6000fd5b50506012546040516302fbe78f60e41b8152600481018890526001600160a01b0387811660248301529091169250632fbe78f09150604401614302565b6001600160a01b0382166147f55760405162461bcd60e51b815260206004820181905260248201527f4552433732313a206d696e7420746f20746865207a65726f206164647265737360448201526064016114a4565b6000818152600260205260409020546001600160a01b03161561485a5760405162461bcd60e51b815260206004820152601c60248201527f4552433732313a20746f6b656e20616c7265616479206d696e7465640000000060448201526064016114a4565b61486660008383614050565b6001600160a01b038216600090815260036020526040812080546001929061488f9084906158a9565b909155505060008181526002602052604080822080546001600160a01b0319166001600160a01b03861690811790915590518392907fddf252ad1be2c89b69c2b068fc378daa952ba7f163c4a11628f55a4df523b3ef908290a46110fe60008383614259565b6000600161490284611aaa565b61490c9190615807565b60008381526007602052604090205490915080821461495f576001600160a01b03841660009081526006602090815260408083208584528252808320548484528184208190558352600790915290208190555b5060009182526007602090815260408084208490556001600160a01b039094168352600681528383209183525290812055565b6008546000906149a490600190615807565b600083815260096020526040812054600880549394509092849081106149cc576149cc6157db565b9060005260206000200154905080600883815481106149ed576149ed6157db565b6000918252602080832090910192909255828152600990915260408082208490558582528120556008805480614a2557614a2561581a565b6001900381819060005260206000200160009055905550505050565b6000614a4c83611aaa565b6001600160a01b039093166000908152600660209081526040808320868452825280832085905593825260079052919091209190915550565b508054600082559060005260206000209081019061147b9190614b08565b60408051610140810182526000808252606060208301529091820190815260200160608152602001606081526020016060815260200160006001600160a01b0316815260200160006001600160a01b0316815260200160608152602001606081525090565b5b80821115614b1d5760008155600101614b09565b5090565b600060208284031215614b3357600080fd5b5035919050565b6020808252825182820181905260009190848201906040850190845b81811015614b7b5783516001600160a01b031683529284019291840191600101614b56565b50909695505050505050565b6001600160e01b03198116811461147b57600080fd5b600060208284031215614baf57600080fd5b8135614bba81614b87565b9392505050565b60005b83811015614bdc578181015183820152602001614bc4565b50506000910152565b60008151808452614bfd816020860160208601614bc1565b601f01601f19169290920160200192915050565b602081526000614bba6020830184614be5565b6001600160a01b038116811461147b57600080fd5b8035614c4481614c24565b919050565b60008060408385031215614c5c57600080fd5b8235614c6781614c24565b946020939093013593505050565b60008060408385031215614c8857600080fd5b50508035926020909101359150565b600060208284031215614ca957600080fd5b8135614bba81614c24565b634e487b7160e01b600052602160045260246000fd5b60088110614ce857634e487b7160e01b600052602160045260246000fd5b9052565b805182526020810151151560208301526040810151604083015260018060a01b0360608201511660608301526080810151608083015260a08101516114b860a0840182614cca565b60c08101610e188284614cec565b634e487b7160e01b600052604160045260246000fd5b60405160c081016001600160401b0381118282101715614d7a57614d7a614d42565b60405290565b60405161014081016001600160401b0381118282101715614d7a57614d7a614d42565b60405161018081016001600160401b0381118282101715614d7a57614d7a614d42565b604051601f8201601f191681016001600160401b0381118282101715614dee57614dee614d42565b604052919050565b60006001600160401b03821115614e0f57614e0f614d42565b50601f01601f191660200190565b600082601f830112614e2e57600080fd5b8135614e41614e3c82614df6565b614dc6565b818152846020838601011115614e5657600080fd5b816020850160208301376000918101602001919091529392505050565b600060208284031215614e8557600080fd5b81356001600160401b03811115614e9b57600080fd5b6122f784828501614e1d565b600080600060608486031215614ebc57600080fd5b8335614ec781614c24565b92506020840135614ed781614c24565b929592945050506040919091013590565b801515811461147b57600080fd5b8035614c4481614ee8565b6008811061147b57600080fd5b8035614c4481614f01565b600060c08284031215614f2b57600080fd5b614f33614d58565b9050813581526020820135614f4781614ee8565b6020820152604082810135908201526060820135614f6481614c24565b60608201526080828101359082015260a0820135614f8181614f01565b60a082015292915050565b60008060e08385031215614f9f57600080fd5b614fa98484614f19565b9460c0939093013593505050565b604081526000614fca6040830185614be5565b82810360208401526127cc8185614be5565b60008060e08385031215614fef57600080fd5b823591506150008460208501614f19565b90509250929050565b6020808252825182820181905260009190848201906040850190845b81811015614b7b57835183529284019291840191600101615025565b60006101408c835280602084015261505b8184018d614be5565b905061506a604084018c614cca565b828103606084015261507c818b614be5565b90508281036080840152615090818a614be5565b905082810360a08401526150a48189614be5565b6001600160a01b0388811660c0860152871660e085015283810361010085015290506150d08186614be5565b90508281036101208401526150e58185614be5565b9d9c50505050505050505050505050565b6000806040838503121561510957600080fd5b8235915060208301356001600160401b038082111561512757600080fd5b90840190610140828703121561513c57600080fd5b615144614d80565b8235815260208301358281111561515a57600080fd5b61516688828601614e1d565b60208301525061517860408401614f0e565b604082015260608301358281111561518f57600080fd5b61519b88828601614e1d565b6060830152506080830135828111156151b357600080fd5b6151bf88828601614e1d565b60808301525060a0830135828111156151d757600080fd5b6151e388828601614e1d565b60a0830152506151f560c08401614c39565b60c082015261520660e08401614c39565b60e0820152610100808401358381111561521f57600080fd5b61522b89828701614e1d565b828401525050610120808401358381111561524557600080fd5b61525189828701614e1d565b8284015250508093505050509250929050565b6000806040838503121561527757600080fd5b823561528281614c24565b9150602083013561529281614ee8565b809150509250929050565b600080600080608085870312156152b357600080fd5b84356152be81614c24565b935060208501356152ce81614c24565b92506040850135915060608501356001600160401b038111156152f057600080fd5b6152fc87828801614e1d565b91505092959194509250565b803563ffffffff81168114614c4457600080fd5b803560ff81168114614c4457600080fd5b60006020828403121561533f57600080fd5b81356001600160401b038082111561535657600080fd5b90830190610180828603121561536b57600080fd5b615373614da3565b823581526020830135602082015260408301356040820152606083013560608201526080830135608082015260a083013560a082015260c083013560c08201526153bf60e08401615308565b60e082015261010083810135908201526101206153dd81850161531c565b9082015261014083810135838111156153f557600080fd5b61540188828701614e1d565b8284015250506101609150615417828401614ef6565b91810191909152949350505050565b6060815260006154396060830186614be5565b828103602084015261544b8186614be5565b9050828103604084015261545f8185614be5565b9695505050505050565b602081528151602082015260006020830151610140806040850152615492610160850183614be5565b915060408501516154a66060860182614cca565b506060850151601f19808685030160808701526154c38483614be5565b935060808701519150808685030160a08701526154e08483614be5565b935060a08701519150808685030160c08701526154fd8483614be5565b935060c0870151915061551b60e08701836001600160a01b03169052565b60e08701519150610100615539818801846001600160a01b03169052565b808801519250506101208187860301818801526155568584614be5565b90880151878203909201848801529350905061545f8382614be5565b60008060006060848603121561558757600080fd5b8335925060208401356001600160401b03808211156155a557600080fd5b6155b187838801614e1d565b935060408601359150808211156155c757600080fd5b506155d486828701614e1d565b9150509250925092565b600080604083850312156155f157600080fd5b82356001600160401b038082111561560857600080fd5b61561486838701614e1d565b9350602085013591508082111561562a57600080fd5b5061563785828601614e1d565b9150509250929050565b6000602080838503121561565457600080fd5b82356001600160401b038082111561566b57600080fd5b818501915085601f83011261567f57600080fd5b81358181111561569157615691614d42565b8060051b91506156a2848301614dc6565b81815291830184019184810190888411156156bc57600080fd5b938501935b838510156156da578435825293850193908501906156c1565b98975050505050505050565b60208101610e188284614cca565b6000806040838503121561570757600080fd5b823561571281614c24565b9150602083013561529281614c24565b6000806000806080858703121561573857600080fd5b8435935060208501356001600160401b038082111561575657600080fd5b61576288838901614e1d565b9450604087013591508082111561577857600080fd5b61578488838901614e1d565b9350606087013591508082111561579a57600080fd5b506152fc87828801614e1d565b600181811c908216806157bb57607f821691505b6020821081036117cb57634e487b7160e01b600052602260045260246000fd5b634e487b7160e01b600052603260045260246000fd5b634e487b7160e01b600052601160045260246000fd5b81810381811115610e1857610e186157f1565b634e487b7160e01b600052603160045260246000fd5b600082601f83011261584157600080fd5b815161584f614e3c82614df6565b81815284602083860101111561586457600080fd5b6122f7826020830160208701614bc1565b60006020828403121561588757600080fd5b81516001600160401b0381111561589d57600080fd5b6122f784828501615830565b80820180821115610e1857610e186157f1565b6000826158d957634e487b7160e01b600052601260045260246000fd5b500690565b6000600182016158f0576158f06157f1565b5060010190565b6020808252602e908201527f4552433732313a2063616c6c6572206973206e6f7420746f6b656e206f776e6560408201526d1c881b9bdc88185c1c1c9bdd995960921b606082015260800190565b60008154615952816157a7565b80855260206001838116801561596f5760018114615989576159b7565b60ff1985168884015283151560051b8801830195506159b7565b866000528260002060005b858110156159af5781548a8201860152908301908401615994565b890184019650505b505050505092915050565b6000610140825484528060208501526159e081850160018501615945565b90506159f0600284015460ff1690565b6159fd6040860182614cca565b508381036060850152615a138160038501615945565b90508381036080850152615a2a8160048501615945565b905083810360a0850152615a418160058501615945565b9050615a5760068401546001600160a01b031690565b6001600160a01b0390811660c086015260078401541660e0850152838103610100850152615a888160088501615945565b90508381036101208501526122f78160098501615945565b6000610100615aaf8387614cec565b8460c08401528060e084015261545f818401856159c2565b60008060408385031215615ada57600080fd5b82516001600160401b0380821115615af157600080fd5b615afd86838701615830565b93506020850151915080821115615b1357600080fd5b5061563785828601615830565b601f8211156114b8576000816000526020600020601f850160051c81016020861015615b495750805b601f850160051c820191505b81811015612f0957828155600101615b55565b81516001600160401b03811115615b8157615b81614d42565b615b9581615b8f84546157a7565b84615b20565b602080601f831160018114615bca5760008415615bb25750858301515b600019600386901b1c1916600185901b178555612f09565b600085815260208120601f198616915b82811015615bf957888601518255948401946001909101908401615bda565b5085821015615c175787850151600019600388901b60f8161c191681555b5050505050600190811b01905550565b6000610140878352615c3c6020840188614cec565b8060e0840152615c4e818401876159c2565b9050828103610100840152615c638186614be5565b90508281036101208401526156da8185614be5565b602081526000614bba6020830184615945565b83151581526101008101615ca26020830185614cec565b6001600160801b03831660e0830152949350505050565b600060c08284031215615ccb57600080fd5b615cd3614d58565b825181526020830151615ce581614ee8565b6020820152604083810151908201526060830151615d0281614c24565b60608201526080838101519082015260a0830151615d1f81614f01565b60a08201529392505050565b6000610180825184526020830151602085015260408301516040850152606083015160608501526080830151608085015260a083015160a085015260c083015160c085015260e0830151615d8760e086018263ffffffff169052565b5061010083810151908501526101208084015160ff169085015261014080840151818601839052615dba83870182614be5565b9250505061016080840151615dd28287018215159052565b5090949350505050565b604081526000615def6040830186615d2b565b90506122f760208301848660201b63ffffffff919091161760401b9052565b600080600060608486031215615e2357600080fd5b83516001600160401b0380821115615e3a57600080fd5b615e4687838801615830565b94506020860151915080821115615e5c57600080fd5b615e6887838801615830565b93506040860151915080821115615e7e57600080fd5b506155d486828701615830565b6000610140878352806020840152615ea581840188614be5565b90508281036040840152615eb98187614be5565b9050615ec86060840186614cec565b8281036101208401526156da81856159c2565b6000610160888352806020840152615ef581840189614be5565b90508281036040840152615f098188614be5565b90508281036060840152615f1d8187614be5565b9050615f2c6080840186614cec565b828103610140840152615f3f81856159c2565b9998505050505050505050565b604081526000615f5f6040830185614be5565b90508260208301529392505050565b60208082526032908201527f4552433732313a207472616e7366657220746f206e6f6e20455243373231526560408201527131b2b4bb32b91034b6b83632b6b2b73a32b960711b606082015260800190565b60008060008060808587031215615fd657600080fd5b845193506020850151615fe881614c24565b6040860151909350615ff981614c24565b606086015190925061600a81614c24565b939692955090935050565b60006020828403121561602757600080fd5b5051919050565b6001600160a01b038581168252841660208201526040810183905260806060820181905260009061545f90830184614be5565b60006020828403121561607357600080fd5b8151614bba81614b8756fea2646970667358221220a39c4d62b2bb9ca869cb4fe587bbe752fead2ff262af3110f785be8c59d9ed4464736f6c63430008160033608060405234801561001057600080fd5b50612fa6806100206000396000f3fe608060405234801561001057600080fd5b50600436106100f55760003560e01c80635c1ef25611610097578063aeea03e511610066578063aeea03e5146101e8578063c08d7774146101fb578063e1defed91461020e578063e6ab9d5a1461022357600080fd5b80635c1ef256146101a7578063898aa117146101af5780639a4813d8146101c2578063a5e11e05146101d557600080fd5b806338ce9433116100d357806338ce94331461015757806351dc71891461016a5780635ab38bf7146101725780635bf382591461019457600080fd5b806321b12c23146100fa57806329aadc5c146101235780632fbcb97e14610144575b600080fd5b61010d610108366004611e7e565b61022b565b60405161011a9190611f0a565b60405180910390f35b61013661013136600461212f565b610a74565b60405161011a9291906121d4565b610136610152366004612202565b610af4565b610136610165366004612369565b610bfc565b610136610f69565b610185610180366004612369565b611089565b60405161011a939291906123cc565b61010d6101a2366004611e7e565b61141e565b61010d611462565b61010d6101bd366004611e7e565b611531565b61010d6101d0366004611e7e565b611783565b61010d6101e336600461240f565b6117c8565b6101856101f63660046124a8565b6119f7565b610185610209366004612202565b611aa6565b61022161021c366004612570565b611bc9565b005b61010d611be7565b60606000604051806102000160405280604051806040016040528060018152602001600360fc1b8152508152602001604051806040016040528060018152602001603160f81b8152508152602001604051806040016040528060018152602001601960f91b8152508152602001604051806040016040528060018152602001603360f81b8152508152602001604051806040016040528060018152602001600d60fa1b8152508152602001604051806040016040528060018152602001603560f81b8152508152602001604051806040016040528060018152602001601b60f91b8152508152602001604051806040016040528060018152602001603760f81b8152508152602001604051806040016040528060018152602001600760fb1b8152508152602001604051806040016040528060018152602001603960f81b8152508152602001604051806040016040528060018152602001606160f81b8152508152602001604051806040016040528060018152602001603160f91b8152508152602001604051806040016040528060018152602001606360f81b8152508152602001604051806040016040528060018152602001601960fa1b8152508152602001604051806040016040528060018152602001606560f81b8152508152602001604051806040016040528060018152602001603360f91b81525081525090506000604051806103c00160405280604051806040016040528060018152602001600360fc1b8152508152602001604051806040016040528060018152602001603160f81b8152508152602001604051806040016040528060018152602001601960f91b8152508152602001604051806040016040528060018152602001603360f81b8152508152602001604051806040016040528060018152602001600d60fa1b8152508152602001604051806040016040528060018152602001603560f81b8152508152602001604051806040016040528060018152602001601b60f91b8152508152602001604051806040016040528060018152602001603760f81b8152508152602001604051806040016040528060018152602001600760fb1b8152508152602001604051806040016040528060018152602001603960f81b815250815260200160405180604001604052806002815260200161031360f41b815250815260200160405180604001604052806002815260200161313160f01b815250815260200160405180604001604052806002815260200161189960f11b815250815260200160405180604001604052806002815260200161313360f01b8152508152602001604051806040016040528060028152602001610c4d60f21b815250815260200160405180604001604052806002815260200161313560f01b815250815260200160405180604001604052806002815260200161189b60f11b815250815260200160405180604001604052806002815260200161313760f01b815250815260200160405180604001604052806002815260200161062760f31b815250815260200160405180604001604052806002815260200161313960f01b815250815260200160405180604001604052806002815260200161032360f41b815250815260200160405180604001604052806002815260200161323160f01b815250815260200160405180604001604052806002815260200161191960f11b815250815260200160405180604001604052806002815260200161323360f01b8152508152602001604051806040016040528060028152602001610c8d60f21b815250815260200160405180604001604052806002815260200161323560f01b815250815260200160405180604001604052806002815260200161191b60f11b815250815260200160405180604001604052806002815260200161323760f01b815250815260200160405180604001604052806002815260200161064760f31b815250815260200160405180604001604052806002815260200161323960f01b815250815250905060005b611194811015610a6c57600060f81b858281518110610813576108136125d3565b01602001516001600160f81b0319161115610a5a576000601e610837600584612615565b6108419190612629565b90506000601e610852600585612615565b61085c9190612615565b905060008560048961086f87600261263d565b8151811061087f5761087f6125d3565b016020015160f81c901c60ff166010811061089c5761089c6125d3565b602002015186896108ae87600261263d565b815181106108be576108be6125d3565b60209101015160f81c600f16601081106108da576108da6125d3565b60200201518760048b6108ee89600361263d565b815181106108fe576108fe6125d3565b016020015160f81c901c60ff166010811061091b5761091b6125d3565b6020020151888b61092d89600361263d565b8151811061093d5761093d6125d3565b60209101015160f81c600f1660108110610959576109596125d3565b60200201518960048d61096c8b8361263d565b8151811061097c5761097c6125d3565b016020015160f81c901c60ff1660108110610999576109996125d3565b60200201518a8d6109ab8b600461263d565b815181106109bb576109bb6125d3565b60209101015160f81c600f16601081106109d7576109d76125d3565b60200201516040516020016109f196959493929190612650565b6040516020818303038152906040529050868584601e8110610a1557610a156125d3565b60200201518684601e8110610a2c57610a2c6125d3565b602002015183604051602001610a4594939291906126cf565b60405160208183030381529060405296505050505b610a6560058261263d565b90506107f2565b505050919050565b606080606080610a85868a87610af4565b8851909350909150600003610a9f57809350819250610ae8565b8781604051602001610ab2929190612789565b60405160208183030381529060405293508682604051602001610ad69291906127b8565b60405160208183030381529060405292505b50509550959350505050565b60608084602001518015610b085750600084115b15610bb05760408084015190516301be83d160e11b8152610b9a9173__$4987fe9f4e800c5c4c1535f64ed232842a$__9163037d07a291610b4b916004016127f4565b600060405180830381865af4158015610b68573d6000803e3d6000fd5b505050506040513d6000823e601f3d908101601f19168201604052610b90919081019061286c565b8460200151611c08565b9050610ba98360800151611783565b9150610bf4565b604051806040016040528060028152602001617b7d60f01b81525090506040518060400160405280600b81526020016a1e39bb339f1e17b9bb339f60a91b81525091505b935093915050565b60608060008560c001511115610c7e5783838660c0015184846040518463ffffffff1660e01b8152600401610c33939291906128a0565b600060405180830381865afa158015610c50573d6000803e3d6000fd5b505050506040513d6000823e601f3d908101601f19168201604052610c7891908101906128cb565b90925090505b60a085015115610cfa5783838660a0015184846040518463ffffffff1660e01b8152600401610caf939291906128a0565b600060405180830381865afa158015610ccc573d6000803e3d6000fd5b505050506040513d6000823e601f3d908101601f19168201604052610cf491908101906128cb565b90925090505b608085015115610d76578383866080015184846040518463ffffffff1660e01b8152600401610d2b939291906128a0565b600060405180830381865afa158015610d48573d6000803e3d6000fd5b505050506040513d6000823e601f3d908101601f19168201604052610d7091908101906128cb565b90925090505b604085015115610df2578383866040015184846040518463ffffffff1660e01b8152600401610da7939291906128a0565b600060405180830381865afa158015610dc4573d6000803e3d6000fd5b505050506040513d6000823e601f3d908101601f19168201604052610dec91908101906128cb565b90925090505b602085015115610e6e578383866020015184846040518463ffffffff1660e01b8152600401610e23939291906128a0565b600060405180830381865afa158015610e40573d6000803e3d6000fd5b505050506040513d6000823e601f3d908101601f19168201604052610e6891908101906128cb565b90925090505b845115610ee7578383866000015184846040518463ffffffff1660e01b8152600401610e9c939291906128a0565b600060405180830381865afa158015610eb9573d6000803e3d6000fd5b505050506040513d6000823e601f3d908101601f19168201604052610ee191908101906128cb565b90925090505b606085015115610bf4578383866060015184846040518463ffffffff1660e01b8152600401610f18939291906128a0565b600060405180830381865afa158015610f35573d6000803e3d6000fd5b505050506040513d6000823e601f3d908101601f19168201604052610f5d91908101906128cb565b90969095509350505050565b600080548190610f7890612924565b80601f0160208091040260200160405190810160405280929190818152602001828054610fa490612924565b8015610ff15780601f10610fc657610100808354040283529160200191610ff1565b820191906000526020600020905b815481529060010190602001808311610fd457829003601f168201915b50505050509080600101805461100690612924565b80601f016020809104026020016040519081016040528092919081815260200182805461103290612924565b801561107f5780601f106110545761010080835404028352916020019161107f565b820191906000526020600020905b81548152906001019060200180831161106257829003601f168201915b5050505050905082565b606080606060008660c0015111156111125784848760c001518584866040518563ffffffff1660e01b81526004016110c4949392919061295e565b600060405180830381865afa1580156110e1573d6000803e3d6000fd5b505050506040513d6000823e601f3d908101601f1916820160405261110991908101906129a8565b91945090925090505b60a0860151156111935784848760a001518584866040518563ffffffff1660e01b8152600401611145949392919061295e565b600060405180830381865afa158015611162573d6000803e3d6000fd5b505050506040513d6000823e601f3d908101601f1916820160405261118a91908101906129a8565b91945090925090505b60808601511561121457848487608001518584866040518563ffffffff1660e01b81526004016111c6949392919061295e565b600060405180830381865afa1580156111e3573d6000803e3d6000fd5b505050506040513d6000823e601f3d908101601f1916820160405261120b91908101906129a8565b91945090925090505b60408601511561129557848487604001518584866040518563ffffffff1660e01b8152600401611247949392919061295e565b600060405180830381865afa158015611264573d6000803e3d6000fd5b505050506040513d6000823e601f3d908101601f1916820160405261128c91908101906129a8565b91945090925090505b60208601511561131657848487602001518584866040518563ffffffff1660e01b81526004016112c8949392919061295e565b600060405180830381865afa1580156112e5573d6000803e3d6000fd5b505050506040513d6000823e601f3d908101601f1916820160405261130d91908101906129a8565b91945090925090505b85511561139457848487600001518584866040518563ffffffff1660e01b8152600401611346949392919061295e565b600060405180830381865afa158015611363573d6000803e3d6000fd5b505050506040513d6000823e601f3d908101601f1916820160405261138b91908101906129a8565b91945090925090505b60608601511561141557848487606001518584866040518563ffffffff1660e01b81526004016113c7949392919061295e565b600060405180830381865afa1580156113e4573d6000803e3d6000fd5b505050506040513d6000823e601f3d908101601f1916820160405261140c91908101906129a8565b91945090925090505b93509350939050565b606060405180610100016040528060d28152602001612e9f60d291398260405160200161144c929190612a39565b6040516020818303038152906040529050919050565b606060006114fb60008001805461147890612924565b80601f01602080910402602001604051908101604052809291908181526020018280546114a490612924565b80156114f15780601f106114c6576101008083540402835291602001916114f1565b820191906000526020600020905b8154815290600101906020018083116114d457829003601f168201915b5050505050611531565b905060006115088261022b565b90508060405160200161151b9190612a79565b6040516020818303038152906040529250505090565b8051604080516111948082526111c0820190925260609291600091906020820181803683370190505090506000611569600584612615565b905060005b81811015611779576000611583826005612ae3565b90506000878281518110611599576115996125d3565b016020015160f81c90506000886115b184600161263d565b815181106115c1576115c16125d3565b016020015160f81c9050600060ff83166115dc83601e612ae3565b6115e6919061263d565b6115f1906005612ae3565b9050898481518110611605576116056125d3565b602001015160f81c60f81b878281518110611622576116226125d3565b60200101906001600160f81b031916908160001a90535089846001018151811061164e5761164e6125d3565b602001015160f81c60f81b87826001018151811061166e5761166e6125d3565b60200101906001600160f81b031916908160001a90535089846002018151811061169a5761169a6125d3565b602001015160f81c60f81b8782600201815181106116ba576116ba6125d3565b60200101906001600160f81b031916908160001a9053508984600301815181106116e6576116e66125d3565b602001015160f81c60f81b878260030181518110611706576117066125d3565b60200101906001600160f81b031916908160001a905350898460040181518110611732576117326125d3565b602001015160f81c60f81b878260040181518110611752576117526125d3565b60200101906001600160f81b031916908160001a905350506001909301925061156e915050565b5090949350505050565b6060600061179083611531565b9050600061179d8261022b565b9050806040516020016117b09190612afa565b60405160208183030381529060405292505050919050565b60608060608660200151156118e75760a08701516040516301be83d160e11b81526118649173__$4987fe9f4e800c5c4c1535f64ed232842a$__9163037d07a291611815916004016127f4565b600060405180830381865af4158015611832573d6000803e3d6000fd5b505050506040513d6000823e601f3d908101601f1916820160405261185a919081019061286c565b8760200151611c08565b6118926040518060400160405280600781526020016621b932b0ba37b960c91b815250886101000151611c08565b6118bf6040518060400160405280600681526020016529b2b0b9b7b760d11b815250896101200151611c08565b6040516020016118d193929190612b3f565b6040516020818303038152906040529050611938565b6040518060400160405280600f81526020016e2261747472696275746573223a5b5d60881b81525090506040518060400160405280600b81526020016a1e39bb339f1e17b9bb339f60a91b81525093505b611962858560405160200161194e929190612789565b60405160208183030381529060405261141e565b9150600061196f83611c35565b60405160200161197f9190612bc2565b6040516020818303038152906040529050600061199b8a611c43565b83836040516020016119af93929190612c1e565b60405160208183030381529060405290506119c981611c35565b6040516020016119d99190612cd9565b60405160208183030381529060405294505050505095945050505050565b606080606080606080611a0b888d89611aa6565b8c519095509193509150600003611a2a57819550829450809350611a97565b8a82604051602001611a3d929190612789565b60405160208183030381529060405295508983604051602001611a619291906127b8565b60405160208183030381529060405294508881604051602001611a85929190612789565b60405160208183030381529060405293505b50505096509650969350505050565b606080606085602001518015611abc5750600085115b15611b6b57611ace8460800151611783565b9250611b5d73__$4987fe9f4e800c5c4c1535f64ed232842a$__63037d07a286604001516040518263ffffffff1660e01b8152600401611b0e91906127f4565b600060405180830381865af4158015611b2b573d6000803e3d6000fd5b505050506040513d6000823e601f3d908101601f19168201604052611b53919081019061286c565b8560200151611c08565b90508360a001519150611415565b6040518060400160405280600b81526020016a1e39bb339f1e17b9bb339f60a91b8152509250604051806040016040528060028152602001617b7d60f01b815250905060405180602001604052806000815250915093509350939050565b6000611bd58382612d6e565b506001611be28282612d6e565b505050565b606060405180610100016040528060d28152602001612e9f60d29139905090565b60608282604051602001611c1d929190612e2d565b60405160208183030381529060405290505b92915050565b6060611c2f82600080611c87565b60606080604051019050602081016040526000815280600019835b928101926030600a8206018453600a900480611c5e575050819003601f19909101908152919050565b606083518015611d67576003600282010460021b60405192507f4142434445464748494a4b4c4d4e4f505152535455565758595a616263646566601f526106708515027f6768696a6b6c6d6e6f707172737475767778797a303132333435363738392d5f18603f52602083018181015b6003880197508751603f8160121c1651600053603f81600c1c1651600153603f8160061c1651600253603f811651600353506000518252600482019150808210611cf757602001604052613d3d60f01b600384066002048083039190915260008615159091029182900352900382525b509392505050565b634e487b7160e01b600052604160045260246000fd5b60405161014081016001600160401b0381118282101715611da857611da8611d6f565b60405290565b60405161018081016001600160401b0381118282101715611da857611da8611d6f565b604051601f8201601f191681016001600160401b0381118282101715611df957611df9611d6f565b604052919050565b60006001600160401b03821115611e1a57611e1a611d6f565b50601f01601f191660200190565b600082601f830112611e3957600080fd5b8135611e4c611e4782611e01565b611dd1565b818152846020838601011115611e6157600080fd5b816020850160208301376000918101602001919091529392505050565b600060208284031215611e9057600080fd5b81356001600160401b03811115611ea657600080fd5b611eb284828501611e28565b949350505050565b60005b83811015611ed5578181015183820152602001611ebd565b50506000910152565b60008151808452611ef6816020860160208601611eba565b601f01601f19169290920160200192915050565b602081526000611f1d6020830184611ede565b9392505050565b80358015158114611f3457600080fd5b919050565b80356001600160a01b0381168114611f3457600080fd5b803560088110611f3457600080fd5b600060c08284031215611f7157600080fd5b60405160c081018181106001600160401b0382111715611f9357611f93611d6f565b60405282358152905080611fa960208401611f24565b602082015260408301356040820152611fc460608401611f39565b606082015260808301356080820152611fdf60a08401611f50565b60a08201525092915050565b60006101408284031215611ffe57600080fd5b612006611d85565b90508135815260208201356001600160401b038082111561202657600080fd5b61203285838601611e28565b602084015261204360408501611f50565b6040840152606084013591508082111561205c57600080fd5b61206885838601611e28565b6060840152608084013591508082111561208157600080fd5b61208d85838601611e28565b608084015260a08401359150808211156120a657600080fd5b6120b285838601611e28565b60a08401526120c360c08501611f39565b60c08401526120d460e08501611f39565b60e0840152610100915081840135818111156120ef57600080fd5b6120fb86828701611e28565b83850152506101209150818401358181111561211657600080fd5b61212286828701611e28565b8385015250505092915050565b6000806000806000610140868803121561214857600080fd5b8535945060208601356001600160401b038082111561216657600080fd5b61217289838a01611e28565b9550604088013591508082111561218857600080fd5b61219489838a01611e28565b94506121a38960608a01611f5f565b93506101208801359150808211156121ba57600080fd5b506121c788828901611feb565b9150509295509295909350565b6040815260006121e76040830185611ede565b82810360208401526121f98185611ede565b95945050505050565b6000806000610100848603121561221857600080fd5b6122228585611f5f565b925060c0840135915060e08401356001600160401b0381111561224457600080fd5b61225086828701611feb565b9150509250925092565b803563ffffffff81168114611f3457600080fd5b803560ff81168114611f3457600080fd5b6000610180828403121561229257600080fd5b61229a611dae565b9050813581526020820135602082015260408201356040820152606082013560608201526080820135608082015260a082013560a082015260c082013560c08201526122e860e0830161225a565b60e0820152610100828101359082015261012061230681840161226e565b90820152610140828101356001600160401b0381111561232557600080fd5b61233185828601611e28565b828401525050610160612345818401611f24565b9082015292915050565b67ffffffffffffffff198116811461236657600080fd5b50565b60008060006040848603121561237e57600080fd5b83356001600160401b0381111561239457600080fd5b6123a08682870161227f565b93505060208401356123b18161234f565b9295606084901c955060409390931c63ffffffff1693505050565b6060815260006123df6060830186611ede565b82810360208401526123f18186611ede565b905082810360408401526124058185611ede565b9695505050505050565b6000806000806000610140868803121561242857600080fd5b853594506124398760208801611f5f565b935060e08601356001600160401b038082111561245557600080fd5b61246189838a01611feb565b945061010088013591508082111561247857600080fd5b61248489838a01611e28565b935061012088013591508082111561249b57600080fd5b506121c788828901611e28565b60008060008060008061016087890312156124c257600080fd5b8635955060208701356001600160401b03808211156124e057600080fd5b6124ec8a838b01611e28565b9650604089013591508082111561250257600080fd5b61250e8a838b01611e28565b9550606089013591508082111561252457600080fd5b6125308a838b01611e28565b945061253f8a60808b01611f5f565b935061014089013591508082111561255657600080fd5b5061256389828a01611feb565b9150509295509295509295565b6000806040838503121561258357600080fd5b82356001600160401b038082111561259a57600080fd5b6125a686838701611e28565b935060208501359150808211156125bc57600080fd5b506125c985828601611e28565b9150509250929050565b634e487b7160e01b600052603260045260246000fd5b634e487b7160e01b600052601260045260246000fd5b634e487b7160e01b600052601160045260246000fd5b600082612624576126246125e9565b500490565b600082612638576126386125e9565b500690565b80820180821115611c2f57611c2f6125ff565b6000875160206126638285838d01611eba565b8851918401916126768184848d01611eba565b88519201916126888184848c01611eba565b875192019161269a8184848b01611eba565b86519201916126ac8184848a01611eba565b85519201916126be8184848901611eba565b919091019998505050505050505050565b600085516126e1818460208a01611eba565b681e3932b1ba103c1e9160b91b9083019081528551612707816009840160208a01611eba565b6411103c9e9160d91b60099290910191820152845161272d81600e840160208901611eba565b7f222077696474683d223122206865696768743d2231222066696c6c3d22230000600e9290910191820152835161276b81602c840160208801611eba565b6211179f60e91b602c9290910191820152602f019695505050505050565b6000835161279b818460208801611eba565b8351908301906127af818360208801611eba565b01949350505050565b600083516127ca818460208801611eba565b600b60fa1b90830190815283516127e8816001840160208801611eba565b01600101949350505050565b602081016008831061281657634e487b7160e01b600052602160045260246000fd5b91905290565b600061282a611e4784611e01565b905082815283838301111561283e57600080fd5b611f1d836020830184611eba565b600082601f83011261285d57600080fd5b611f1d8383516020850161281c565b60006020828403121561287e57600080fd5b81516001600160401b0381111561289457600080fd5b611eb28482850161284c565b8381526060602082015260006128b96060830185611ede565b82810360408401526124058185611ede565b600080604083850312156128de57600080fd5b82516001600160401b03808211156128f557600080fd5b6129018683870161284c565b9350602085015191508082111561291757600080fd5b506125c98582860161284c565b600181811c9082168061293857607f821691505b60208210810361295857634e487b7160e01b600052602260045260246000fd5b50919050565b8481526080602082015260006129776080830186611ede565b82810360408401526129898186611ede565b9050828103606084015261299d8185611ede565b979650505050505050565b6000806000606084860312156129bd57600080fd5b83516001600160401b03808211156129d457600080fd5b6129e08783880161284c565b945060208601519150808211156129f657600080fd5b612a028783880161284c565b93506040860151915080821115612a1857600080fd5b508401601f81018613612a2a57600080fd5b6122508682516020840161281c565b60008351612a4b818460208801611eba565b835190830190612a5f818360208801611eba565b651e17b9bb339f60d11b9101908152600601949350505050565b7f3c672069643d2267686f73742220636c6173733d226722207374796c653d226f81526d3830b1b4ba3c9d101a98129d911f60911b602082015260008251612ac881602e850160208701611eba565b631e17b39f60e11b602e939091019283015250603201919050565b8082028115828204841417611c2f57611c2f6125ff565b6d1e339034b21e912a3930b4ba111f60911b81528151600090612b2481600e850160208701611eba565b631e17b39f60e11b600e939091019283015250601201919050565b6d2261747472696275746573223a5b60901b81528351600090612b6981600e850160208901611eba565b8083019050600b60fa1b80600e8301528551612b8c81600f850160208a01611eba565b600f9201918201528351612ba7816010840160208801611eba565b605d60f81b6010929091019182015260110195945050505050565b7f22696d616765223a22646174613a696d6167652f7376672b786d6c3b626173658152620d8d0b60ea1b602082015260008251612c06816023850160208701611eba565b601160f91b6023939091019283015250602401919050565b757b226e616d65223a2243686f6e6b205472616974202360501b81528351600090612c50816016850160208901611eba565b7f222c226465736372697074696f6e223a2254686973206973206a757374206120601691840191820152651d195cdd088b60d21b60368201528451612c9c81603c840160208901611eba565b600b60fa1b603c92909101918201528351612cbe81603d840160208801611eba565b607d60f81b603d9290910191820152603e0195945050505050565b7f646174613a6170706c69636174696f6e2f6a736f6e3b6261736536342c000000815260008251612d1181601d850160208701611eba565b91909101601d0192915050565b601f821115611be2576000816000526020600020601f850160051c81016020861015612d475750805b601f850160051c820191505b81811015612d6657828155600101612d53565b505050505050565b81516001600160401b03811115612d8757612d87611d6f565b612d9b81612d958454612924565b84612d1e565b602080601f831160018114612dd05760008415612db85750858301515b600019600386901b1c1916600185901b178555612d66565b600085815260208120601f198616915b82811015612dff57888601518255948401946001909101908401612de0565b5085821015612e1d5787850151600019600388901b60f8161c191681555b5050505050600190811b01905550565b6e3d913a3930b4ba2fba3cb832911d1160891b81528251600090612e5881600f850160208801611eba565b6a1116113b30b63ab2911d1160a91b600f918401918201528351612e8381601a840160208801611eba565b61227d60f01b601a9290910191820152601c0194935050505056fe3c7376672073686170652d72656e646572696e673d2263726973704564676573222076696577426f783d22302030203330203330222066696c6c3d226e6f6e652220786d6c6e733d22687474703a2f2f7777772e77332e6f72672f323030302f737667223e3c7374796c653e726563747b77696474683a3170783b206865696768743a203170783b7d202e62677b77696474683a333070783b206865696768743a20333070783b7d203c2f7374796c653e3c7265637420636c6173733d226267222066696c6c3d2223304436453944222f3ea2646970667358221220f7355c2a63fe4d8f591d9afcb333ec5a0626a1614562c826914391c19b079b4864736f6c63430008160033","linkReferences":{"src/TraitCategory.sol":{"TraitCategory":[{"start":28419,"length":20},{"start":31693,"length":20},{"start":32435,"length":20}]}}},"methodIdentifiers":{"addApprovedInvalidator(address)":"f677c013","addMinter(address)":"983b2d56","approve(address,uint256)":"095ea7b3","approvedInvalidators(address)":"b3148f75","balanceOf(address)":"70a08231","burn(uint256)":"42966c68","burnBatch(uint256[])":"e4623c1b","callGetSVGZmapAndMetadataTrait(uint256,string,string,bytes)":"f1271942","callGetSvgAndMetadataTrait(uint256,string,string)":"e08714a6","cancelOwnershipHandover()":"54d1f13d","chonksMain()":"ba7270f3","completeOwnershipHandover(address)":"f04e283e","createSvgFromPixels(bytes)":"21b12c23","getApproved(uint256)":"081812fc","getApprovedOperators(uint256)":"00db6348","getCurrentEpoch()":"b97dd9e2","getEpoch()":"757991a8","getEpochData(uint256)":"859e7d32","getGhostSvg()":"5c1ef256","getSVGZmapAndMetadataTrait((uint256,bool,uint256,address,uint256,uint8),uint256)":"f901667f","getStoredTraitForTokenId(uint256)":"208c25a3","getSvgAndMetadata((uint256,uint256,uint256,uint256,uint256,uint256,uint256,uint32,uint256,uint8,string,bool))":"df2c2b88","getSvgAndMetadataTrait((uint256,bool,uint256,address,uint256,uint8),uint256)":"33a70328","getSvgForTokenId(uint256)":"c7791531","getSvgZmapsAndMetadata((uint256,uint256,uint256,uint256,uint256,uint256,uint256,uint32,uint256,uint8,string,bool))":"bb12d21d","getTrait(uint256)":"acb586df","getTraitImageSvg(uint256)":"a5e2912a","getTraitIndexToMetadata(uint256)":"ea139544","getTraitMetadata(uint256)":"d1bfc2af","getTraitType(uint256)":"e8a1268d","getZMapForTokenId(uint256)":"a8498c74","invalidateAllOperatorApprovals(uint256)":"90f63842","isApprovedForAll(address,address)":"e985e9c5","isMinter(address)":"aa271e1a","marketplace()":"abc8c7af","name()":"06fdde03","nextTokenId()":"75794a3c","owner()":"8da5cb5b","ownerOf(uint256)":"6352211e","ownershipHandoverExpiresAt(address)":"fee81cf4","removeApprovedInvalidator(address)":"cde2180a","removeMinter(address)":"3092afd5","renderAsDataUri(uint256)":"a1d62680","renounceOwnership()":"715018a6","requestOwnershipHandover()":"25692962","resolveEpochIfNecessary()":"239ffa68","safeMint(address)":"40d097c3","safeTransferFrom(address,address,uint256)":"42842e0e","safeTransferFrom(address,address,uint256,bytes)":"b88d4fde","setApprovalForAll(address,bool)":"a22cb465","setChonksMain(address)":"713dbc27","setGhostMaps(bytes,bytes)":"e1defed9","setMarketplace(address)":"73ad6c2d","setTraitForTokenId(uint256,(uint256,bool,uint256,address,uint256,uint8))":"36d34ab9","setTraitIndexToMetadata(uint256,(uint256,string,uint8,string,bytes,bytes,address,address,string,string))":"8d37c537","setTraitRenderer(address)":"120def24","supportsInterface(bytes4)":"01ffc9a7","symbol()":"95d89b41","tokenByIndex(uint256)":"4f6ccce7","tokenOfOwnerByIndex(address,uint256)":"2f745c59","tokenURI(uint256)":"c87b56dd","totalSupply()":"18160ddd","traitIdToApprovedOperators(uint256,uint256)":"11f3910d","traitIndexToMetadata(uint256)":"817a29a4","traitRenderer()":"c876371b","traitTokens()":"e14d026f","transferFrom(address,address,uint256)":"23b872dd","transferOwnership(address)":"f2fde38b","walletOfOwner(address)":"438b6300"},"id":41}