{"abi":[{"type":"constructor","inputs":[],"stateMutability":"nonpayable"},{"type":"function","name":"addMinter","inputs":[{"name":"_minter","type":"address","internalType":"address"}],"outputs":[],"stateMutability":"nonpayable"},{"type":"function","name":"approve","inputs":[{"name":"to","type":"address","internalType":"address"},{"name":"tokenId","type":"uint256","internalType":"uint256"}],"outputs":[],"stateMutability":"nonpayable"},{"type":"function","name":"balanceOf","inputs":[{"name":"owner","type":"address","internalType":"address"}],"outputs":[{"name":"","type":"uint256","internalType":"uint256"}],"stateMutability":"view"},{"type":"function","name":"burn","inputs":[{"name":"_tokenId","type":"uint256","internalType":"uint256"}],"outputs":[],"stateMutability":"nonpayable"},{"type":"function","name":"burnBatch","inputs":[{"name":"tokenIds","type":"uint256[]","internalType":"uint256[]"}],"outputs":[],"stateMutability":"nonpayable"},{"type":"function","name":"callGetSVGZmapAndMetadataTrait","inputs":[{"name":"_traitId","type":"uint256","internalType":"uint256"},{"name":"_traitsSvg","type":"string","internalType":"string"},{"name":"_traitsAttributes","type":"string","internalType":"string"},{"name":"_traitZMaps","type":"bytes","internalType":"bytes"}],"outputs":[{"name":"traitsSvg","type":"string","internalType":"string"},{"name":"traitsAttributes","type":"string","internalType":"string"},{"name":"traitZMaps","type":"bytes","internalType":"bytes"}],"stateMutability":"view"},{"type":"function","name":"callGetSvgAndMetadataTrait","inputs":[{"name":"_traitId","type":"uint256","internalType":"uint256"},{"name":"_traitsSvg","type":"string","internalType":"string"},{"name":"_traitsAttributes","type":"string","internalType":"string"}],"outputs":[{"name":"traitsSvg","type":"string","internalType":"string"},{"name":"traitsAttributes","type":"string","internalType":"string"}],"stateMutability":"view"},{"type":"function","name":"cancelOwnershipHandover","inputs":[],"outputs":[],"stateMutability":"payable"},{"type":"function","name":"chonkTraitsV1","inputs":[],"outputs":[{"name":"","type":"address","internalType":"contract IChonkTraitsV1"}],"stateMutability":"view"},{"type":"function","name":"chonksMain","inputs":[],"outputs":[{"name":"","type":"address","internalType":"contract ChonksMain"}],"stateMutability":"view"},{"type":"function","name":"completeOwnershipHandover","inputs":[{"name":"pendingOwner","type":"address","internalType":"address"}],"outputs":[],"stateMutability":"payable"},{"type":"function","name":"createSvgFromPixels","inputs":[{"name":"_pixels","type":"bytes","internalType":"bytes"}],"outputs":[{"name":"svgParts","type":"bytes","internalType":"bytes"}],"stateMutability":"view"},{"type":"function","name":"getApproved","inputs":[{"name":"tokenId","type":"uint256","internalType":"uint256"}],"outputs":[{"name":"","type":"address","internalType":"address"}],"stateMutability":"view"},{"type":"function","name":"getColorMapForTokenId","inputs":[{"name":"_tokenId","type":"uint256","internalType":"uint256"}],"outputs":[{"name":"","type":"bytes","internalType":"bytes"}],"stateMutability":"view"},{"type":"function","name":"getCurrentEpoch","inputs":[],"outputs":[{"name":"","type":"uint256","internalType":"uint256"}],"stateMutability":"view"},{"type":"function","name":"getEpochData","inputs":[{"name":"_index","type":"uint256","internalType":"uint256"}],"outputs":[{"name":"","type":"tuple","internalType":"struct CommitReveal.Epoch","components":[{"name":"randomness","type":"uint128","internalType":"uint128"},{"name":"revealBlock","type":"uint64","internalType":"uint64"},{"name":"committed","type":"bool","internalType":"bool"},{"name":"revealed","type":"bool","internalType":"bool"}]}],"stateMutability":"view"},{"type":"function","name":"getGhostSvg","inputs":[],"outputs":[{"name":"","type":"string","internalType":"string"}],"stateMutability":"view"},{"type":"function","name":"getSVGZmapAndMetadataTrait","inputs":[{"name":"_trait","type":"tuple","internalType":"struct ITraitStorage.StoredTrait","components":[{"name":"epoch","type":"uint256","internalType":"uint256"},{"name":"isRevealed","type":"bool","internalType":"bool"},{"name":"seed","type":"uint256","internalType":"uint256"},{"name":"dataMinterContract","type":"address","internalType":"address"},{"name":"traitIndex","type":"uint256","internalType":"uint256"},{"name":"traitType","type":"uint8","internalType":"enum TraitCategory.Name"}]},{"name":"_traitId","type":"uint256","internalType":"uint256"}],"outputs":[{"name":"traitSvg","type":"string","internalType":"string"},{"name":"traitZmap","type":"bytes","internalType":"bytes"},{"name":"traitAttributes","type":"string","internalType":"string"}],"stateMutability":"view"},{"type":"function","name":"getStoredTraitForTokenId","inputs":[{"name":"_tokenId","type":"uint256","internalType":"uint256"}],"outputs":[{"name":"","type":"tuple","internalType":"struct ITraitStorage.StoredTrait","components":[{"name":"epoch","type":"uint256","internalType":"uint256"},{"name":"isRevealed","type":"bool","internalType":"bool"},{"name":"seed","type":"uint256","internalType":"uint256"},{"name":"dataMinterContract","type":"address","internalType":"address"},{"name":"traitIndex","type":"uint256","internalType":"uint256"},{"name":"traitType","type":"uint8","internalType":"enum TraitCategory.Name"}]}],"stateMutability":"view"},{"type":"function","name":"getSvgAndMetadata","inputs":[{"name":"_storedChonk","type":"tuple","internalType":"struct IChonkStorage.StoredChonk","components":[{"name":"tokenId","type":"uint256","internalType":"uint256"},{"name":"headId","type":"uint256","internalType":"uint256"},{"name":"hairId","type":"uint256","internalType":"uint256"},{"name":"faceId","type":"uint256","internalType":"uint256"},{"name":"accessoryId","type":"uint256","internalType":"uint256"},{"name":"topId","type":"uint256","internalType":"uint256"},{"name":"bottomId","type":"uint256","internalType":"uint256"},{"name":"shoesId","type":"uint256","internalType":"uint256"},{"name":"bodyIndex","type":"uint8","internalType":"uint8"},{"name":"backgroundColor","type":"string","internalType":"string"},{"name":"render3D","type":"bool","internalType":"bool"}]}],"outputs":[{"name":"traitsSvg","type":"string","internalType":"string"},{"name":"traitsAttributes","type":"string","internalType":"string"}],"stateMutability":"view"},{"type":"function","name":"getSvgAndMetadataTrait","inputs":[{"name":"_trait","type":"tuple","internalType":"struct ITraitStorage.StoredTrait","components":[{"name":"epoch","type":"uint256","internalType":"uint256"},{"name":"isRevealed","type":"bool","internalType":"bool"},{"name":"seed","type":"uint256","internalType":"uint256"},{"name":"dataMinterContract","type":"address","internalType":"address"},{"name":"traitIndex","type":"uint256","internalType":"uint256"},{"name":"traitType","type":"uint8","internalType":"enum TraitCategory.Name"}]},{"name":"_traitId","type":"uint256","internalType":"uint256"}],"outputs":[{"name":"traitSvg","type":"string","internalType":"string"},{"name":"traitAttributes","type":"string","internalType":"string"}],"stateMutability":"view"},{"type":"function","name":"getSvgForTokenId","inputs":[{"name":"_tokenId","type":"uint256","internalType":"uint256"}],"outputs":[{"name":"traitSvg","type":"string","internalType":"string"}],"stateMutability":"view"},{"type":"function","name":"getSvgZmapsAndMetadata","inputs":[{"name":"_storedChonk","type":"tuple","internalType":"struct IChonkStorage.StoredChonk","components":[{"name":"tokenId","type":"uint256","internalType":"uint256"},{"name":"headId","type":"uint256","internalType":"uint256"},{"name":"hairId","type":"uint256","internalType":"uint256"},{"name":"faceId","type":"uint256","internalType":"uint256"},{"name":"accessoryId","type":"uint256","internalType":"uint256"},{"name":"topId","type":"uint256","internalType":"uint256"},{"name":"bottomId","type":"uint256","internalType":"uint256"},{"name":"shoesId","type":"uint256","internalType":"uint256"},{"name":"bodyIndex","type":"uint8","internalType":"uint8"},{"name":"backgroundColor","type":"string","internalType":"string"},{"name":"render3D","type":"bool","internalType":"bool"}]}],"outputs":[{"name":"traitsSvg","type":"string","internalType":"string"},{"name":"traitZMaps","type":"bytes","internalType":"bytes"},{"name":"traitsAttributes","type":"string","internalType":"string"}],"stateMutability":"view"},{"type":"function","name":"getTrait","inputs":[{"name":"_tokenId","type":"uint256","internalType":"uint256"}],"outputs":[{"name":"","type":"tuple","internalType":"struct ITraitStorage.StoredTrait","components":[{"name":"epoch","type":"uint256","internalType":"uint256"},{"name":"isRevealed","type":"bool","internalType":"bool"},{"name":"seed","type":"uint256","internalType":"uint256"},{"name":"dataMinterContract","type":"address","internalType":"address"},{"name":"traitIndex","type":"uint256","internalType":"uint256"},{"name":"traitType","type":"uint8","internalType":"enum TraitCategory.Name"}]}],"stateMutability":"view"},{"type":"function","name":"getTraitImageSvg","inputs":[{"name":"_index","type":"uint256","internalType":"uint256"}],"outputs":[{"name":"svg","type":"string","internalType":"string"}],"stateMutability":"view"},{"type":"function","name":"getTraitIndexToMetadata","inputs":[{"name":"_traitIndex","type":"uint256","internalType":"uint256"}],"outputs":[{"name":"","type":"tuple","internalType":"struct ITraitStorage.TraitMetadata","components":[{"name":"traitIndex","type":"uint256","internalType":"uint256"},{"name":"traitName","type":"string","internalType":"string"},{"name":"traitType","type":"uint8","internalType":"enum TraitCategory.Name"},{"name":"colorMap","type":"bytes","internalType":"bytes"},{"name":"zMap","type":"bytes","internalType":"bytes"},{"name":"dataMinterContract","type":"address","internalType":"address"},{"name":"creatorAddress","type":"address","internalType":"address"},{"name":"creatorName","type":"string","internalType":"string"},{"name":"release","type":"string","internalType":"string"}]}],"stateMutability":"view"},{"type":"function","name":"getTraitMetadata","inputs":[{"name":"_tokenId","type":"uint256","internalType":"uint256"}],"outputs":[{"name":"","type":"tuple","internalType":"struct ITraitStorage.TraitMetadata","components":[{"name":"traitIndex","type":"uint256","internalType":"uint256"},{"name":"traitName","type":"string","internalType":"string"},{"name":"traitType","type":"uint8","internalType":"enum TraitCategory.Name"},{"name":"colorMap","type":"bytes","internalType":"bytes"},{"name":"zMap","type":"bytes","internalType":"bytes"},{"name":"dataMinterContract","type":"address","internalType":"address"},{"name":"creatorAddress","type":"address","internalType":"address"},{"name":"creatorName","type":"string","internalType":"string"},{"name":"release","type":"string","internalType":"string"}]}],"stateMutability":"view"},{"type":"function","name":"getZMapForTokenId","inputs":[{"name":"_tokenId","type":"uint256","internalType":"uint256"}],"outputs":[{"name":"","type":"string","internalType":"string"}],"stateMutability":"view"},{"type":"function","name":"invalidateAllOperatorApprovals","inputs":[{"name":"_tokenId","type":"uint256","internalType":"uint256"}],"outputs":[],"stateMutability":"nonpayable"},{"type":"function","name":"isApprovedForAll","inputs":[{"name":"_tba","type":"address","internalType":"address"},{"name":"_operator","type":"address","internalType":"address"}],"outputs":[{"name":"","type":"bool","internalType":"bool"}],"stateMutability":"view"},{"type":"function","name":"isMinter","inputs":[{"name":"","type":"address","internalType":"address"}],"outputs":[{"name":"","type":"bool","internalType":"bool"}],"stateMutability":"view"},{"type":"function","name":"marketplace","inputs":[],"outputs":[{"name":"","type":"address","internalType":"contract ChonksMarket"}],"stateMutability":"view"},{"type":"function","name":"name","inputs":[],"outputs":[{"name":"","type":"string","internalType":"string"}],"stateMutability":"view"},{"type":"function","name":"nextTokenId","inputs":[],"outputs":[{"name":"","type":"uint256","internalType":"uint256"}],"stateMutability":"view"},{"type":"function","name":"owner","inputs":[],"outputs":[{"name":"result","type":"address","internalType":"address"}],"stateMutability":"view"},{"type":"function","name":"ownerOf","inputs":[{"name":"tokenId","type":"uint256","internalType":"uint256"}],"outputs":[{"name":"","type":"address","internalType":"address"}],"stateMutability":"view"},{"type":"function","name":"ownershipHandoverExpiresAt","inputs":[{"name":"pendingOwner","type":"address","internalType":"address"}],"outputs":[{"name":"result","type":"uint256","internalType":"uint256"}],"stateMutability":"view"},{"type":"function","name":"removeMinter","inputs":[{"name":"_minter","type":"address","internalType":"address"}],"outputs":[],"stateMutability":"nonpayable"},{"type":"function","name":"renderAsDataUri","inputs":[{"name":"_tokenId","type":"uint256","internalType":"uint256"}],"outputs":[{"name":"","type":"string","internalType":"string"}],"stateMutability":"view"},{"type":"function","name":"renounceOwnership","inputs":[],"outputs":[],"stateMutability":"payable"},{"type":"function","name":"replaceMint","inputs":[{"name":"_to","type":"address","internalType":"address"},{"name":"_tokenId","type":"uint256","internalType":"uint256"}],"outputs":[],"stateMutability":"nonpayable"},{"type":"function","name":"replaceMintPermisssionsRevoked","inputs":[],"outputs":[{"name":"","type":"bool","internalType":"bool"}],"stateMutability":"view"},{"type":"function","name":"requestOwnershipHandover","inputs":[],"outputs":[],"stateMutability":"payable"},{"type":"function","name":"resolveEpochIfNecessary","inputs":[],"outputs":[],"stateMutability":"nonpayable"},{"type":"function","name":"revokeReplaceMintPermissions","inputs":[],"outputs":[],"stateMutability":"nonpayable"},{"type":"function","name":"safeMint","inputs":[{"name":"_to","type":"address","internalType":"address"}],"outputs":[{"name":"","type":"uint256","internalType":"uint256"}],"stateMutability":"nonpayable"},{"type":"function","name":"safeTransferFrom","inputs":[{"name":"from","type":"address","internalType":"address"},{"name":"to","type":"address","internalType":"address"},{"name":"tokenId","type":"uint256","internalType":"uint256"}],"outputs":[],"stateMutability":"nonpayable"},{"type":"function","name":"safeTransferFrom","inputs":[{"name":"from","type":"address","internalType":"address"},{"name":"to","type":"address","internalType":"address"},{"name":"tokenId","type":"uint256","internalType":"uint256"},{"name":"data","type":"bytes","internalType":"bytes"}],"outputs":[],"stateMutability":"nonpayable"},{"type":"function","name":"setApprovalForAll","inputs":[{"name":"_operator","type":"address","internalType":"address"},{"name":"_approved","type":"bool","internalType":"bool"}],"outputs":[],"stateMutability":"nonpayable"},{"type":"function","name":"setDescriptionParts","inputs":[{"name":"_descriptionParts","type":"string[2]","internalType":"string[2]"}],"outputs":[],"stateMutability":"nonpayable"},{"type":"function","name":"setGhostMaps","inputs":[{"name":"_colorMap","type":"bytes","internalType":"bytes"},{"name":"_zMap","type":"bytes","internalType":"bytes"}],"outputs":[],"stateMutability":"nonpayable"},{"type":"function","name":"setMarketplace","inputs":[{"name":"_marketplace","type":"address","internalType":"address"}],"outputs":[],"stateMutability":"nonpayable"},{"type":"function","name":"setTraitForTokenId","inputs":[{"name":"_tokenId","type":"uint256","internalType":"uint256"},{"name":"_trait","type":"tuple","internalType":"struct ITraitStorage.StoredTrait","components":[{"name":"epoch","type":"uint256","internalType":"uint256"},{"name":"isRevealed","type":"bool","internalType":"bool"},{"name":"seed","type":"uint256","internalType":"uint256"},{"name":"dataMinterContract","type":"address","internalType":"address"},{"name":"traitIndex","type":"uint256","internalType":"uint256"},{"name":"traitType","type":"uint8","internalType":"enum TraitCategory.Name"}]}],"outputs":[],"stateMutability":"nonpayable"},{"type":"function","name":"setTraitIndexToMetadata","inputs":[{"name":"_traitIndex","type":"uint256","internalType":"uint256"},{"name":"_metadata","type":"tuple","internalType":"struct ITraitStorage.TraitMetadata","components":[{"name":"traitIndex","type":"uint256","internalType":"uint256"},{"name":"traitName","type":"string","internalType":"string"},{"name":"traitType","type":"uint8","internalType":"enum TraitCategory.Name"},{"name":"colorMap","type":"bytes","internalType":"bytes"},{"name":"zMap","type":"bytes","internalType":"bytes"},{"name":"dataMinterContract","type":"address","internalType":"address"},{"name":"creatorAddress","type":"address","internalType":"address"},{"name":"creatorName","type":"string","internalType":"string"},{"name":"release","type":"string","internalType":"string"}]}],"outputs":[],"stateMutability":"nonpayable"},{"type":"function","name":"setTraitRenderer","inputs":[{"name":"_traitRenderer","type":"address","internalType":"address"}],"outputs":[],"stateMutability":"nonpayable"},{"type":"function","name":"supportsInterface","inputs":[{"name":"interfaceId","type":"bytes4","internalType":"bytes4"}],"outputs":[{"name":"","type":"bool","internalType":"bool"}],"stateMutability":"view"},{"type":"function","name":"symbol","inputs":[],"outputs":[{"name":"","type":"string","internalType":"string"}],"stateMutability":"view"},{"type":"function","name":"tokenByIndex","inputs":[{"name":"index","type":"uint256","internalType":"uint256"}],"outputs":[{"name":"","type":"uint256","internalType":"uint256"}],"stateMutability":"view"},{"type":"function","name":"tokenOfOwnerByIndex","inputs":[{"name":"owner","type":"address","internalType":"address"},{"name":"index","type":"uint256","internalType":"uint256"}],"outputs":[{"name":"","type":"uint256","internalType":"uint256"}],"stateMutability":"view"},{"type":"function","name":"tokenURI","inputs":[{"name":"_tokenId","type":"uint256","internalType":"uint256"}],"outputs":[{"name":"","type":"string","internalType":"string"}],"stateMutability":"view"},{"type":"function","name":"totalSupply","inputs":[],"outputs":[{"name":"","type":"uint256","internalType":"uint256"}],"stateMutability":"view"},{"type":"function","name":"traitIndexToMetadata","inputs":[{"name":"","type":"uint256","internalType":"uint256"}],"outputs":[{"name":"traitIndex","type":"uint256","internalType":"uint256"},{"name":"traitName","type":"string","internalType":"string"},{"name":"traitType","type":"uint8","internalType":"enum TraitCategory.Name"},{"name":"colorMap","type":"bytes","internalType":"bytes"},{"name":"zMap","type":"bytes","internalType":"bytes"},{"name":"dataMinterContract","type":"address","internalType":"address"},{"name":"creatorAddress","type":"address","internalType":"address"},{"name":"creatorName","type":"string","internalType":"string"},{"name":"release","type":"string","internalType":"string"}],"stateMutability":"view"},{"type":"function","name":"traitRenderer","inputs":[],"outputs":[{"name":"","type":"address","internalType":"contract TraitRenderer"}],"stateMutability":"view"},{"type":"function","name":"traitTokens","inputs":[],"outputs":[{"name":"epoch","type":"uint256","internalType":"uint256"}],"stateMutability":"view"},{"type":"function","name":"transferFrom","inputs":[{"name":"from","type":"address","internalType":"address"},{"name":"to","type":"address","internalType":"address"},{"name":"tokenId","type":"uint256","internalType":"uint256"}],"outputs":[],"stateMutability":"nonpayable"},{"type":"function","name":"transferOwnership","inputs":[{"name":"newOwner","type":"address","internalType":"address"}],"outputs":[],"stateMutability":"payable"},{"type":"function","name":"updateEpochOnce","inputs":[],"outputs":[],"stateMutability":"nonpayable"},{"type":"function","name":"walletOfOwner","inputs":[{"name":"_owner","type":"address","internalType":"address"}],"outputs":[{"name":"","type":"uint256[]","internalType":"uint256[]"}],"stateMutability":"view"},{"type":"event","name":"AllOperatorApprovalsInvalidated","inputs":[{"name":"tokenId","type":"uint256","indexed":true,"internalType":"uint256"}],"anonymous":false},{"type":"event","name":"Approval","inputs":[{"name":"owner","type":"address","indexed":true,"internalType":"address"},{"name":"approved","type":"address","indexed":true,"internalType":"address"},{"name":"tokenId","type":"uint256","indexed":true,"internalType":"uint256"}],"anonymous":false},{"type":"event","name":"ApprovalForAll","inputs":[{"name":"owner","type":"address","indexed":true,"internalType":"address"},{"name":"operator","type":"address","indexed":true,"internalType":"address"},{"name":"approved","type":"bool","indexed":false,"internalType":"bool"}],"anonymous":false},{"type":"event","name":"BatchMetadataUpdate","inputs":[{"name":"_fromTokenId","type":"uint256","indexed":false,"internalType":"uint256"},{"name":"_toTokenId","type":"uint256","indexed":false,"internalType":"uint256"}],"anonymous":false},{"type":"event","name":"MetadataUpdate","inputs":[{"name":"_tokenId","type":"uint256","indexed":false,"internalType":"uint256"}],"anonymous":false},{"type":"event","name":"NewEpoch","inputs":[{"name":"epoch","type":"uint256","indexed":true,"internalType":"uint256"},{"name":"revealBlock","type":"uint64","indexed":true,"internalType":"uint64"}],"anonymous":false},{"type":"event","name":"OwnershipHandoverCanceled","inputs":[{"name":"pendingOwner","type":"address","indexed":true,"internalType":"address"}],"anonymous":false},{"type":"event","name":"OwnershipHandoverRequested","inputs":[{"name":"pendingOwner","type":"address","indexed":true,"internalType":"address"}],"anonymous":false},{"type":"event","name":"OwnershipTransferred","inputs":[{"name":"oldOwner","type":"address","indexed":true,"internalType":"address"},{"name":"newOwner","type":"address","indexed":true,"internalType":"address"}],"anonymous":false},{"type":"event","name":"TBAApprovalForAll","inputs":[{"name":"tba","type":"address","indexed":true,"internalType":"address"},{"name":"owner","type":"address","indexed":true,"internalType":"address"},{"name":"operator","type":"address","indexed":true,"internalType":"address"},{"name":"approved","type":"bool","indexed":false,"internalType":"bool"}],"anonymous":false},{"type":"event","name":"Transfer","inputs":[{"name":"from","type":"address","indexed":true,"internalType":"address"},{"name":"to","type":"address","indexed":true,"internalType":"address"},{"name":"tokenId","type":"uint256","indexed":true,"internalType":"uint256"}],"anonymous":false},{"type":"error","name":"AddressCantBurn","inputs":[]},{"type":"error","name":"AlreadyInitialized","inputs":[]},{"type":"error","name":"CantTransfer","inputs":[]},{"type":"error","name":"CantTransferEquipped","inputs":[]},{"type":"error","name":"NewOwnerIsZeroAddress","inputs":[]},{"type":"error","name":"NoHandoverRequest","inputs":[]},{"type":"error","name":"NotATBA","inputs":[]},{"type":"error","name":"NotAValidMinterContract","inputs":[]},{"type":"error","name":"NotYourTrait","inputs":[]},{"type":"error","name":"ReplaceMintPermissionsRevoked","inputs":[]},{"type":"error","name":"SetChonksMainAddress","inputs":[]},{"type":"error","name":"SetMarketplaceAddress","inputs":[]},{"type":"error","name":"TraitAlreadyExists","inputs":[]},{"type":"error","name":"TraitIDTooLow","inputs":[]},{"type":"error","name":"TraitNotFound","inputs":[{"name":"_tokenId","type":"uint256","internalType":"uint256"}]},{"type":"error","name":"TraitTokenDoesntExist","inputs":[]},{"type":"error","name":"Unauthorized","inputs":[]}],"bytecode":{"object":"0x6080604052600e80546001600160a01b03191673785afed7ce24e76ac1d603be09c1fd20e0e1e6b7179055620532a66012553480156200003e57600080fd5b506040518060400160405280600c81526020016b43686f6e6b2054726169747360a01b8152506040518060400160405280600c81526020016b43484f4e4b2054524149545360a01b81525081600090816200009a9190620001a5565b506001620000a98282620001a5565b50506001600a5550620000bc33620000c2565b62000271565b6001600160a01b0316638b78c6d8198190558060007f8be0079c531659141344cd1fd0a4f28419497f9722a3daafe3b4186f6b6457e08180a350565b634e487b7160e01b600052604160045260246000fd5b600181811c908216806200012957607f821691505b6020821081036200014a57634e487b7160e01b600052602260045260246000fd5b50919050565b601f821115620001a0576000816000526020600020601f850160051c810160208610156200017b5750805b601f850160051c820191505b818110156200019c5782815560010162000187565b5050505b505050565b81516001600160401b03811115620001c157620001c1620000fe565b620001d981620001d2845462000114565b8462000150565b602080601f831160018114620002115760008415620001f85750858301515b600019600386901b1c1916600185901b1785556200019c565b600085815260208120601f198616915b82811015620002425788860151825594840194600190910190840162000221565b5085821015620002615787850151600019600388901b60f8161c191681555b5050505050600190811b01905550565b615f4180620002816000396000f3fe6080604052600436106103ef5760003560e01c806390f6384211610208578063bc08503311610118578063e1defed9116100ab578063f04e283e1161007a578063f04e283e14610c16578063f127194214610c29578063f2fde38b14610c49578063f901667f14610c5c578063fee81cf414610c7c57600080fd5b8063e1defed914610b96578063e4623c1b14610bb6578063e985e9c514610bd6578063ea13954414610bf657600080fd5b8063d1bfc2af116100e7578063d1bfc2af14610b12578063dcbaaad514610b3f578063e08714a614610b5f578063e14d026f14610b7f57600080fd5b8063bc08503314610a90578063c779153114610ab2578063c876371b14610ad2578063c87b56dd14610af257600080fd5b8063a8498c741161019b578063acb586df1161016a578063acb586df146109f3578063b88d4fde14610a13578063b966c51d14610a33578063b97dd9e214610a53578063ba7270f314610a6857600080fd5b8063a8498c7414610963578063a9684c5814610983578063aa271e1a146109a3578063abc8c7af146109d357600080fd5b80639a6b9596116101d75780639a6b9596146108e9578063a1d6268014610903578063a22cb46514610923578063a5e2912a1461094357600080fd5b806390f638421461087f57806395d89b411461089f578063983b2d56146108b457806398d8d288146108d457600080fd5b806333a70328116103035780635c1ef2561161029657806373ad6c2d1161026557806373ad6c2d1461079257806375794a3c146107b2578063817a29a4146107c8578063859e7d32146107fd5780638da5cb5b1461086657600080fd5b80635c1ef256146107355780636352211e1461074a57806370a082311461076a578063715018a61461078a57600080fd5b806342966c68116102d257806342966c68146106c0578063438b6300146106e05780634f6ccce71461070d57806354d1f13d1461072d57600080fd5b806333a703281461063257806336d34ab91461066057806340d097c31461068057806342842e0e146106a057600080fd5b806321b12c2311610386578063256929621161035557806325692962146105b557806326f2052a146105bd5780632f745c59146105dd5780633092afd5146105fd57806331d2866a1461061d57600080fd5b806321b12c2314610531578063239ffa681461055157806323b872dd14610566578063250818ea1461058657600080fd5b8063120def24116103c2578063120def24146104a557806318160ddd146104c55780631f787d2f146104e4578063208c25a31461050457600080fd5b806301ffc9a7146103f457806306fdde0314610429578063081812fc1461044b578063095ea7b314610483575b600080fd5b34801561040057600080fd5b5061041461040f366004614716565b610caf565b60405190151581526020015b60405180910390f35b34801561043557600080fd5b5061043e610cc0565b6040516104209190614783565b34801561045757600080fd5b5061046b610466366004614796565b610d52565b6040516001600160a01b039091168152602001610420565b34801561048f57600080fd5b506104a361049e3660046147d4565b610d79565b005b3480156104b157600080fd5b506104a36104c0366004614800565b610e93565b3480156104d157600080fd5b506008545b604051908152602001610420565b3480156104f057600080fd5b506104a36104ff3660046147d4565b610ebd565b34801561051057600080fd5b5061052461051f366004614796565b610f1b565b604051610420919061489d565b34801561053d57600080fd5b5061043e61054c3660046149fe565b61105c565b34801561055d57600080fd5b506104a36110d2565b34801561057257600080fd5b506104a3610581366004614a32565b6112ae565b34801561059257600080fd5b506105a66105a1366004614a9d565b6112df565b60405161042093929190614b84565b6104a361136e565b3480156105c957600080fd5b506104a36105d8366004614bc7565b6113bd565b3480156105e957600080fd5b506104d66105f83660046147d4565b6113d6565b34801561060957600080fd5b506104a3610618366004614800565b61146c565b34801561062957600080fd5b506104a3611495565b34801561063e57600080fd5b5061065261064d366004614cec565b6114d8565b604051610420929190614d17565b34801561066c57600080fd5b506104a361067b366004614d3c565b6115fd565b34801561068c57600080fd5b506104d661069b366004614800565b6116ea565b3480156106ac57600080fd5b506104a36106bb366004614a32565b611750565b3480156106cc57600080fd5b506104a36106db366004614796565b61176b565b3480156106ec57600080fd5b506107006106fb366004614800565b6117a4565b6040516104209190614d69565b34801561071957600080fd5b506104d6610728366004614796565b61183b565b6104a36118ce565b34801561074157600080fd5b5061043e61190a565b34801561075657600080fd5b5061046b610765366004614796565b611981565b34801561077657600080fd5b506104d6610785366004614800565b6119e1565b6104a3611a67565b34801561079e57600080fd5b506104a36107ad366004614800565b611a7b565b3480156107be57600080fd5b506104d660125481565b3480156107d457600080fd5b506107e86107e3366004614796565b611aa5565b60405161042099989796959493929190614dad565b34801561080957600080fd5b5061081d610818366004614796565b611daf565b604051610420919081516001600160801b031681526020808301516001600160401b03169082015260408083015115159082015260609182015115159181019190915260800190565b34801561087257600080fd5b50638b78c6d8195461046b565b34801561088b57600080fd5b506104a361089a366004614796565b611eb3565b3480156108ab57600080fd5b5061043e611fab565b3480156108c057600080fd5b506104a36108cf366004614800565b611fba565b3480156108e057600080fd5b506104a3611fe6565b3480156108f557600080fd5b506016546104149060ff1681565b34801561090f57600080fd5b5061043e61091e366004614796565b611ffd565b34801561092f57600080fd5b506104a361093e366004614e4c565b61212f565b34801561094f57600080fd5b5061043e61095e366004614796565b6122f6565b34801561096f57600080fd5b5061043e61097e366004614796565b6124ee565b34801561098f57600080fd5b5061065261099e366004614a9d565b6125e2565b3480156109af57600080fd5b506104146109be366004614800565b60116020526000908152604090205460ff1681565b3480156109df57600080fd5b50600f5461046b906001600160a01b031681565b3480156109ff57600080fd5b50610524610a0e366004614796565b61266d565b348015610a1f57600080fd5b506104a3610a2e366004614e85565b612841565b348015610a3f57600080fd5b506104a3610a4e366004614ef0565b612879565b348015610a5f57600080fd5b50600c546104d6565b348015610a7457600080fd5b5061046b7307152bfde079b5319e5308c43fb1dbc9c76cb4f981565b348015610a9c57600080fd5b5061046b600080516020615eec83398151915281565b348015610abe57600080fd5b5061043e610acd366004614796565b612a38565b348015610ade57600080fd5b50600e5461046b906001600160a01b031681565b348015610afe57600080fd5b5061043e610b0d366004614796565b612a8e565b348015610b1e57600080fd5b50610b32610b2d366004614796565b612acf565b6040516104209190615038565b348015610b4b57600080fd5b5061043e610b5a366004614796565b612ec6565b348015610b6b57600080fd5b50610652610b7a36600461511c565b612edb565b348015610b8b57600080fd5b50600c546104d69081565b348015610ba257600080fd5b506104a3610bb1366004615188565b613016565b348015610bc257600080fd5b506104a3610bd13660046151eb565b613086565b348015610be257600080fd5b50610414610bf1366004615290565b61314c565b348015610c0257600080fd5b50610b32610c11366004614796565b613283565b6104a3610c24366004614800565b613355565b348015610c3557600080fd5b506105a6610c443660046152be565b613392565b6104a3610c57366004614800565b6134da565b348015610c6857600080fd5b506105a6610c77366004614cec565b613501565b348015610c8857600080fd5b506104d6610c97366004614800565b63389a75e1600c908152600091909152602090205490565b6000610cba8261362c565b92915050565b606060008054610ccf90615343565b80601f0160208091040260200160405190810160405280929190818152602001828054610cfb90615343565b8015610d485780601f10610d1d57610100808354040283529160200191610d48565b820191906000526020600020905b815481529060010190602001808311610d2b57829003601f168201915b5050505050905090565b6000610d5d82613651565b506000908152600460205260409020546001600160a01b031690565b6000610d8482611981565b9050806001600160a01b0316836001600160a01b031603610df65760405162461bcd60e51b815260206004820152602160248201527f4552433732313a20617070726f76616c20746f2063757272656e74206f776e656044820152603960f91b60648201526084015b60405180910390fd5b336001600160a01b0382161480610e125750610e12813361314c565b610e845760405162461bcd60e51b815260206004820152603e60248201527f4552433732313a20617070726f76652063616c6c6572206973206e6f7420746f60448201527f6b656e206f776e6572206e6f7220617070726f76656420666f7220616c6c00006064820152608401610ded565b610e8e83836136b0565b505050565b610e9b61371e565b600e80546001600160a01b0319166001600160a01b0392909216919091179055565b3360008181526011602052604090205460ff16610eed5760405163090a0b6960e21b815260040160405180910390fd5b60165460ff1615610f115760405163cb207e0d60e01b815260040160405180910390fd5b610e8e8383613739565b610f516040805160c08101825260008082526020820181905291810182905260608101829052608081018290529060a082015290565b620532a68211610fca5760405163208c25a360e01b815260048101839052600080516020615eec8339815191529063208c25a3906024015b60c060405180830381865afa158015610fa6573d6000803e3d6000fd5b505050506040513d601f19601f82011682018060405250810190610cba919061538d565b6000828152600b6020908152604091829020825160c08101845281548152600182015460ff90811615159382019390935260028201549381019390935260038101546001600160a01b03166060840152600481015460808401526005810154909160a08401911660078111156110425761104261481d565b60078111156110535761105361481d565b90525092915050565b600e546040516321b12c2360e01b81526060916001600160a01b0316906321b12c239061108d908590600401614783565b600060405180830381865afa1580156110aa573d6000803e3d6000fd5b505050506040513d6000823e601f3d908101601f19168201604052610cba9190810190615444565b600c546000908152600d602052604090208054600160c01b900460ff16158061112a57508054600160c81b900460ff1615801561112a57506111166101004361548e565b8154600160801b90046001600160401b0316105b156111755761113a4360326154a1565b815460ff60c01b196001600160401b0392909216600160801b029190911668ffffffffffffffffff60801b1990911617600160c01b17815550565b8054600160801b90046001600160401b03164311156112ab57805460408051600160801b9092046001600160401b031640602083015244908201526001600160801b03906060016040516020818303038152906040528051906020012060001c6111df91906154b4565b8154600160c81b6001600160801b039290921679ff000000000000000000ffffffffffffffffffffffffffffffff199091161717808255600c54604051600160801b9092046001600160401b0316917f78611aecfda8d341359c248df527c95aef93d446c92bb928b2a81b7abcb1d8d990600090a3604080516000815260001960208201527f6bd5c950a8d8df17f772f5af37cb3655737899cbf903264b9795592da439661c910160405180910390a1600c805460009061129f906154d6565b909155506112ab6110d2565b50565b6112b83382613753565b6112d45760405162461bcd60e51b8152600401610ded906154ef565b610e8e8383836137b1565b600e5460405163d42f766360e01b8152606091829182916001600160a01b03169063d42f76639061131c908790309063f1271942906004016155dd565b600060405180830381865afa158015611339573d6000803e3d6000fd5b505050506040513d6000823e601f3d908101601f19168201604052611361919081019061560f565b9250925092509193909250565b60006202a3006001600160401b03164201905063389a75e1600c5233600052806020600c2055337fdbf36a107da19e49527a7176a1babf963b4b0ff8cde35ee35d6cd8f1f9ac7e1d600080a250565b6113c561371e565b6113d260148260026145f2565b5050565b60006113e1836119e1565b82106114435760405162461bcd60e51b815260206004820152602b60248201527f455243373231456e756d657261626c653a206f776e657220696e646578206f7560448201526a74206f6620626f756e647360a81b6064820152608401610ded565b506001600160a01b03919091166000908152600660209081526040808320938352929052205490565b61147461371e565b6001600160a01b03166000908152601160205260409020805460ff19169055565b3360008181526011602052604090205460ff166114c55760405163090a0b6960e21b815260040160405180910390fd5b600c546000036112ab5761030a600c5550565b606080620532a6831161156657604051630674e06560e31b8152600080516020615eec833981519152906333a7032890611518908790879060040161568c565b600060405180830381865afa158015611535573d6000803e3d6000fd5b505050506040513d6000823e601f3d908101601f1916820160405261155d91908101906156a7565b915091506115f6565b600e546080850151600090815260106020526040908190209051630bfb083b60e41b81526001600160a01b039092169163bfb083b0916115ac9188918891600401615843565b600060405180830381865afa1580156115c9573d6000803e3d6000fd5b505050506040513d6000823e601f3d908101601f191682016040526115f191908101906156a7565b915091505b9250929050565b3360008181526011602052604090205460ff1661162d5760405163090a0b6960e21b815260040160405180910390fd5b620532a683116116505760405163918c6c1560e01b815260040160405180910390fd5b6000838152600b602090815260409182902084518155908401516001808301805492151560ff1993841617905592850151600283015560608501516003830180546001600160a01b039092166001600160a01b03199092169190911790556080850151600483015560a08501516005830180548795929391929116908360078111156116de576116de61481d565b02179055505050505050565b3360008181526011602052604081205490919060ff1661171d5760405163090a0b6960e21b815260040160405180910390fd5b6117256110d2565b6000601260008154611736906154d6565b918290555090506117478482613739565b91505b50919050565b610e8e83838360405180602001604052806000815250612841565b3360009081526011602052604090205460ff1661179b57604051631758e6d560e11b815260040160405180910390fd5b6112ab8161395e565b606060006117b1836119e1565b90506000816001600160401b038111156117cd576117cd6148ab565b6040519080825280602002602001820160405280156117f6578160200160208202803683370190505b50905060005b828110156118335761180e85826113d6565b8282815181106118205761182061586a565b60209081029190910101526001016117fc565b509392505050565b600061184660085490565b82106118a95760405162461bcd60e51b815260206004820152602c60248201527f455243373231456e756d657261626c653a20676c6f62616c20696e646578206f60448201526b7574206f6620626f756e647360a01b6064820152608401610ded565b600882815481106118bc576118bc61586a565b90600052602060002001549050919050565b63389a75e1600c523360005260006020600c2055337ffa7b8eab7da67f412cc9575ed43464468f9bfbae89d1675917346ca6d8fe3c92600080a2565b600e5460408051632e0f792b60e11b815290516060926001600160a01b031691635c1ef2569160048083019260009291908290030181865afa158015611954573d6000803e3d6000fd5b505050506040513d6000823e601f3d908101601f1916820160405261197c9190810190615444565b905090565b6000818152600260205260408120546001600160a01b031680610cba5760405162461bcd60e51b8152602060048201526018602482015277115490cdcc8c4e881a5b9d985b1a59081d1bdad95b88125160421b6044820152606401610ded565b60006001600160a01b038216611a4b5760405162461bcd60e51b815260206004820152602960248201527f4552433732313a2061646472657373207a65726f206973206e6f7420612076616044820152683634b21037bbb732b960b91b6064820152608401610ded565b506001600160a01b031660009081526003602052604090205490565b611a6f61371e565b611a796000613a0d565b565b611a8361371e565b600f80546001600160a01b0319166001600160a01b0392909216919091179055565b60106020526000908152604090208054600182018054919291611ac790615343565b80601f0160208091040260200160405190810160405280929190818152602001828054611af390615343565b8015611b405780601f10611b1557610100808354040283529160200191611b40565b820191906000526020600020905b815481529060010190602001808311611b2357829003601f168201915b5050506002840154600385018054949560ff909216949193509150611b6490615343565b80601f0160208091040260200160405190810160405280929190818152602001828054611b9090615343565b8015611bdd5780601f10611bb257610100808354040283529160200191611bdd565b820191906000526020600020905b815481529060010190602001808311611bc057829003601f168201915b505050505090806004018054611bf290615343565b80601f0160208091040260200160405190810160405280929190818152602001828054611c1e90615343565b8015611c6b5780601f10611c4057610100808354040283529160200191611c6b565b820191906000526020600020905b815481529060010190602001808311611c4e57829003601f168201915b5050506005840154600685015460078601805495966001600160a01b0393841696929093169450919250611c9e90615343565b80601f0160208091040260200160405190810160405280929190818152602001828054611cca90615343565b8015611d175780601f10611cec57610100808354040283529160200191611d17565b820191906000526020600020905b815481529060010190602001808311611cfa57829003601f168201915b505050505090806008018054611d2c90615343565b80601f0160208091040260200160405190810160405280929190818152602001828054611d5890615343565b8015611da55780601f10611d7a57610100808354040283529160200191611da5565b820191906000526020600020905b815481529060010190602001808311611d8857829003601f168201915b5050505050905089565b6040805160808101825260008082526020820181905291810182905260608101919091526103098211611e4a576040516342cf3e9960e11b815260048101839052600080516020615eec8339815191529063859e7d3290602401608060405180830381865afa158015611e26573d6000803e3d6000fd5b505050506040513d601f19601f82011682018060405250810190610cba9190615880565b506000908152600d6020908152604091829020825160808101845290546001600160801b03811682526001600160401b03600160801b8204169282019290925260ff600160c01b83048116151593820193909352600160c81b9091049091161515606082015290565b604051636670434960e01b8152600481018290526000907307152bfde079b5319e5308c43fb1dbc9c76cb4f990636670434990602401608060405180830381865afa158015611f06573d6000803e3d6000fd5b505050506040513d601f19601f82011682018060405250810190611f2a919061591c565b5092505050336001600160a01b0316611f4283611981565b6001600160a01b031614158015611f6257506001600160a01b0381163314155b8015611f825750337307152bfde079b5319e5308c43fb1dbc9c76cb4f914155b15611fa057604051633e79b9f360e01b815260040160405180910390fd5b6113d26000836136b0565b606060018054610ccf90615343565b611fc261371e565b6001600160a01b03166000908152601160205260409020805460ff19166001179055565b611fee61371e565b6016805460ff19166001179055565b6060620532a6821161203b57604051630143ac4d60e71b815260048101839052600080516020615eec8339815191529063a1d626809060240161108d565b60006120468361266d565b90506000816020015161207c576040518060400160405280600b81526020016a1e39bb339f1e17b9bb339f60a91b815250612089565b61208982608001516122f6565b600e54608084015160009081526010602052604090209192506001600160a01b03169063ac499bbc90869085906120be61190a565b8660146040518763ffffffff1660e01b81526004016120e296959493929190615971565b600060405180830381865afa1580156120ff573d6000803e3d6000fd5b505050506040513d6000823e601f3d908101601f191682016040526121279190810190615444565b949350505050565b336001600160a01b038316036121875760405162461bcd60e51b815260206004820152601960248201527f4552433732313a20617070726f766520746f2063616c6c6572000000000000006044820152606401610ded565b60405163423965e560e11b81523360048201526000907307152bfde079b5319e5308c43fb1dbc9c76cb4f990638472cbca90602401602060405180830381865afa1580156121d9573d6000803e3d6000fd5b505050506040513d601f19601f820116820180604052508101906121fd9190615a14565b6040516331a9108f60e11b8152600481018290529091506000907307152bfde079b5319e5308c43fb1dbc9c76cb4f990636352211e90602401602060405180830381865afa158015612253573d6000803e3d6000fd5b505050506040513d601f19601f820116820180604052508101906122779190615a2d565b3360008181526017602090815260408083206001600160a01b03868116808652918452828520908b1680865290845293829020805460ff19168a15159081179091559151918252949550919392917fb35a3e86f41df9a708de503b8afccb6c992167394cba9e16a3b5c466d378d1aa910160405180910390a450505050565b6040516352f1489560e11b815260048101829052606090600080516020615eec8339815191529063a5e2912a90602401600060405180830381865afa158015612343573d6000803e3d6000fd5b505050506040513d6000823e601f3d908101601f1916820160405261236b9190810190615444565b9050600081511180156123cd57506040805180820190915260128152711e339034b21e912a3930b4ba111f1e17b39f60711b6020918201528151908201207fb6491396077b2019fd311df30a263f5b6f84c028f31b91717e9f140465bce24314155b156123d757919050565b600082815260106020526040812060030180546123f390615343565b80601f016020809104026020016040519081016040528092919081815260200182805461241f90615343565b801561246c5780601f106124415761010080835404028352916020019161246c565b820191906000526020600020905b81548152906001019060200180831161244f57829003601f168201915b5050600e54604051631349027b60e31b81529495506001600160a01b031693639a4813d893506124a29250859150600401614783565b600060405180830381865afa1580156124bf573d6000803e3d6000fd5b505050506040513d6000823e601f3d908101601f191682016040526124e79190810190615444565b9392505050565b6060620532a6821161252c57604051632a12631d60e21b815260048101839052600080516020615eec8339815191529063a8498c749060240161108d565b60006125378361266d565b6080810151600090815260106020526040902060040180549192509061255c90615343565b80601f016020809104026020016040519081016040528092919081815260200182805461258890615343565b80156125d55780601f106125aa576101008083540402835291602001916125d5565b820191906000526020600020905b8154815290600101906020018083116125b857829003601f168201915b5050505050915050919050565b600e54604051631b4751fb60e01b815260609182916001600160a01b0390911690631b4751fb9061261f908690309063e08714a6906004016155dd565b600060405180830381865afa15801561263c573d6000803e3d6000fd5b505050506040513d6000823e601f3d908101601f1916820160405261266491908101906156a7565b91509150915091565b6126a36040805160c08101825260008082526020820181905291810182905260608101829052608081018290529060a082015290565b620532a682116126df5760405163acb586df60e01b815260048101839052600080516020615eec8339815191529063acb586df90602401610f89565b6000828152600b60209081526040808320815160c08101835281548152600182015460ff90811615159482019490945260028201549281019290925260038101546001600160a01b031660608301526004810154608083015260058101549192909160a08401911660078111156127585761275861481d565b60078111156127695761276961481d565b90525080516000908152600d602052604090205460608201519192506001600160801b0316906001600160a01b0381161580156127a857506040830151155b156127c95760405163082d451d60e01b815260048101869052602401610ded565b604051630ac7cb6f60e01b81526001600160a01b03821690630ac7cb6f906127f79086908690600401615a4a565b60c060405180830381865afa158015612814573d6000803e3d6000fd5b505050506040513d601f19601f82011682018060405250810190612838919061538d565b95945050505050565b61284b3383613753565b6128675760405162461bcd60e51b8152600401610ded906154ef565b61287384848484613a4b565b50505050565b3360008181526011602052604090205460ff166128a95760405163090a0b6960e21b815260040160405180910390fd5b604051633a84e55160e21b815260048101849052600090600080516020615eec8339815191529063ea13954490602401600060405180830381865afa1580156128f6573d6000803e3d6000fd5b505050506040513d6000823e601f3d908101601f1916820160405261291e9190810190615a6e565b60a08101519091506001600160a01b03161561294d5760405163cb391f5760e01b815260040160405180910390fd5b6000848152601060209081526040909120845181559084015184919060018201906129789082615bf4565b50604082015160028201805460ff1916600183600781111561299c5761299c61481d565b0217905550606082015160038201906129b59082615bf4565b50608082015160048201906129ca9082615bf4565b5060a08201516005820180546001600160a01b039283166001600160a01b03199182161790915560c084015160068401805491909316911617905560e08201516007820190612a199082615bf4565b506101008201516008820190612a2f9082615bf4565b50505050505050565b60606000612a458361266d565b9050806020015115612a6557612a5e81608001516122f6565b915061174a565b505060408051808201909152600b81526a1e39bb339f1e17b9bb339f60a91b6020820152919050565b6000818152600260205260409020546060906001600160a01b0316612ac657604051632df0e24560e21b815260040160405180910390fd5b610cba82611ffd565b612ad761463b565b620532a68211612b535760405163d1bfc2af60e01b815260048101839052600080516020615eec8339815191529063d1bfc2af90602401600060405180830381865afa158015612b2b573d6000803e3d6000fd5b505050506040513d6000823e601f3d908101601f19168201604052610cba9190810190615a6e565b6000612b5e8361266d565b905060106000826080015181526020019081526020016000206040518061012001604052908160008201548152602001600182018054612b9d90615343565b80601f0160208091040260200160405190810160405280929190818152602001828054612bc990615343565b8015612c165780601f10612beb57610100808354040283529160200191612c16565b820191906000526020600020905b815481529060010190602001808311612bf957829003601f168201915b5050509183525050600282015460209091019060ff166007811115612c3d57612c3d61481d565b6007811115612c4e57612c4e61481d565b8152602001600382018054612c6290615343565b80601f0160208091040260200160405190810160405280929190818152602001828054612c8e90615343565b8015612cdb5780601f10612cb057610100808354040283529160200191612cdb565b820191906000526020600020905b815481529060010190602001808311612cbe57829003601f168201915b50505050508152602001600482018054612cf490615343565b80601f0160208091040260200160405190810160405280929190818152602001828054612d2090615343565b8015612d6d5780601f10612d4257610100808354040283529160200191612d6d565b820191906000526020600020905b815481529060010190602001808311612d5057829003601f168201915b505050918352505060058201546001600160a01b0390811660208301526006830154166040820152600782018054606090920191612daa90615343565b80601f0160208091040260200160405190810160405280929190818152602001828054612dd690615343565b8015612e235780601f10612df857610100808354040283529160200191612e23565b820191906000526020600020905b815481529060010190602001808311612e0657829003601f168201915b50505050508152602001600882018054612e3c90615343565b80601f0160208091040260200160405190810160405280929190818152602001828054612e6890615343565b8015612eb55780601f10612e8a57610100808354040283529160200191612eb5565b820191906000526020600020905b815481529060010190602001808311612e9857829003601f168201915b505050505081525050915050919050565b6060612ed182612acf565b6060015192915050565b606080620532a68511612f6b576040516370438a5360e11b8152600080516020615eec8339815191529063e08714a690612f1d90889088908890600401615cb3565b600060405180830381865afa158015612f3a573d6000803e3d6000fd5b505050506040513d6000823e601f3d908101601f19168201604052612f6291908101906156a7565b9150915061300e565b6000612f768661266d565b600e5460808201516000908152601060205260409081902090516354a2ab0560e01b81529293506001600160a01b03909116916354a2ab0591612fc3918a918a918a918891600401615cde565b600060405180830381865afa158015612fe0573d6000803e3d6000fd5b505050506040513d6000823e601f3d908101601f1916820160405261300891908101906156a7565b92509250505b935093915050565b61301e61371e565b600e5460405163e1defed960e01b81526001600160a01b039091169063e1defed9906130509085908590600401614d17565b600060405180830381600087803b15801561306a57600080fd5b505af115801561307e573d6000803e3d6000fd5b505050505050565b6002600a54036130d85760405162461bcd60e51b815260206004820152601f60248201527f5265656e7472616e637947756172643a207265656e7472616e742063616c6c006044820152606401610ded565b6002600a553360009081526011602052604090205460ff1661310d57604051631758e6d560e11b815260040160405180910390fd5b60005b81518110156131435761313b82828151811061312e5761312e61586a565b602002602001015161395e565b600101613110565b50506001600a55565b60405163423965e560e11b81526001600160a01b038316600482015260009081907307152bfde079b5319e5308c43fb1dbc9c76cb4f990638472cbca90602401602060405180830381865afa1580156131a9573d6000803e3d6000fd5b505050506040513d601f19601f820116820180604052508101906131cd9190615a14565b6040516331a9108f60e11b8152600481018290529091506000907307152bfde079b5319e5308c43fb1dbc9c76cb4f990636352211e90602401602060405180830381865afa158015613223573d6000803e3d6000fd5b505050506040513d601f19601f820116820180604052508101906132479190615a2d565b6001600160a01b039586166000908152601760209081526040808320938916835292815282822096909716815294909552505050205460ff1690565b61328b61463b565b604051633a84e55160e21b815260048101839052600090600080516020615eec8339815191529063ea13954490602401600060405180830381865afa1580156132d8573d6000803e3d6000fd5b505050506040513d6000823e601f3d908101601f191682016040526133009190810190615a6e565b60a08101519091506001600160a01b03161561331c5792915050565b601060008481526020019081526020016000206040518061012001604052908160008201548152602001600182018054612b9d90615343565b61335d61371e565b63389a75e1600c52806000526020600c20805442111561338557636f5e88186000526004601cfd5b600090556112ab81613a0d565b6060806060620532a68711613428576040516378938ca160e11b8152600080516020615eec8339815191529063f1271942906133d8908a908a908a908a90600401615d2e565b600060405180830381865afa1580156133f5573d6000803e3d6000fd5b505050506040513d6000823e601f3d908101601f1916820160405261341d919081019061560f565b9250925092506134d0565b60006134338861266d565b600e546080820151600090815260106020526040908190209051631c1fc8db60e01b81529293506001600160a01b0390911691631c1fc8db91613483918c918c918c918c91899190600401615d78565b600060405180830381865afa1580156134a0573d6000803e3d6000fd5b505050506040513d6000823e601f3d908101601f191682016040526134c8919081019061560f565b935093509350505b9450945094915050565b6134e261371e565b8060601b6134f857637448fbae6000526004601cfd5b6112ab81613a0d565b6060806060620532a684116135935760405163f901667f60e01b8152600080516020615eec8339815191529063f901667f90613543908890889060040161568c565b600060405180830381865afa158015613560573d6000803e3d6000fd5b505050506040513d6000823e601f3d908101601f19168201604052613588919081019061560f565b925092509250613625565b600e546080860151600090815260106020526040908190209051633c05553b60e01b81526001600160a01b0390921691633c05553b916135d99189918991600401615843565b600060405180830381865afa1580156135f6573d6000803e3d6000fd5b505050506040513d6000823e601f3d908101601f1916820160405261361e919081019061560f565b9250925092505b9250925092565b60006001600160e01b0319821663780e9d6360e01b1480610cba5750610cba82613a7e565b6000818152600260205260409020546001600160a01b03166112ab5760405162461bcd60e51b8152602060048201526018602482015277115490cdcc8c4e881a5b9d985b1a59081d1bdad95b88125160421b6044820152606401610ded565b600081815260046020526040902080546001600160a01b0319166001600160a01b03841690811790915581906136e582611981565b6001600160a01b03167f8c5be1e5ebec7d5bd14f71427d1e84f3dd0314c0f7b2291e5b200ac8c7c3b92560405160405180910390a45050565b638b78c6d819543314611a79576382b429006000526004601cfd5b6113d2828260405180602001604052806000815250613ace565b60008061375f83611981565b9050806001600160a01b0316846001600160a01b031614806137865750613786818561314c565b806121275750836001600160a01b031661379f84610d52565b6001600160a01b031614949350505050565b826001600160a01b03166137c482611981565b6001600160a01b0316146138285760405162461bcd60e51b815260206004820152602560248201527f4552433732313a207472616e736665722066726f6d20696e636f72726563742060448201526437bbb732b960d91b6064820152608401610ded565b6001600160a01b03821661388a5760405162461bcd60e51b8152602060048201526024808201527f4552433732313a207472616e7366657220746f20746865207a65726f206164646044820152637265737360e01b6064820152608401610ded565b613895838383613b01565b6138a06000826136b0565b6001600160a01b03831660009081526003602052604081208054600192906138c990849061548e565b90915550506001600160a01b03821660009081526003602052604081208054600192906138f79084906154a1565b909155505060008181526002602052604080822080546001600160a01b0319166001600160a01b0386811691821790925591518493918716917fddf252ad1be2c89b69c2b068fc378daa952ba7f163c4a11628f55a4df523b3ef91a4610e8e838383613dc9565b600061396982611981565b905061397781600084613b01565b6139826000836136b0565b6001600160a01b03811660009081526003602052604081208054600192906139ab90849061548e565b909155505060008281526002602052604080822080546001600160a01b0319169055518391906001600160a01b038416907fddf252ad1be2c89b69c2b068fc378daa952ba7f163c4a11628f55a4df523b3ef908390a46113d281600084613dc9565b638b78c6d81980546001600160a01b039092169182907f8be0079c531659141344cd1fd0a4f28419497f9722a3daafe3b4186f6b6457e0600080a355565b613a568484846137b1565b613a6284848484613fd1565b6128735760405162461bcd60e51b8152600401610ded90615de9565b60006001600160e01b031982166380ac58cd60e01b1480613aaf57506001600160e01b03198216635b5e139f60e01b145b80610cba57506301ffc9a760e01b6001600160e01b0319831614610cba565b613ad883836140d2565b613ae56000848484613fd1565b610e8e5760405162461bcd60e51b8152600401610ded90615de9565b6001600160a01b038316613b1a57610e8e838383614228565b6001600160a01b038216613bc957613b3281836142e0565b6000613b3d82611981565b60405162525fcd60e91b81526001600160a01b03821660048201529091507307152bfde079b5319e5308c43fb1dbc9c76cb4f99063a4bf9a0090602401602060405180830381865afa158015613b97573d6000803e3d6000fd5b505050506040513d601f19601f82011682018060405250810190613bbb9190615a14565b601355612873848484614228565b60405162525fcd60e91b81526001600160a01b03831660048201527307152bfde079b5319e5308c43fb1dbc9c76cb4f99063a4bf9a0090602401602060405180830381865afa158015613c20573d6000803e3d6000fd5b505050506040513d601f19601f82011682018060405250810190613c449190615a14565b600003613c64576040516326a45c0160e21b815260040160405180910390fd5b604051636670434960e01b8152600481018290526000907307152bfde079b5319e5308c43fb1dbc9c76cb4f990636670434990602401608060405180830381865afa158015613cb7573d6000803e3d6000fd5b505050506040513d601f19601f82011682018060405250810190613cdb919061591c565b93505050508015613cff5760405163290ea0ff60e01b815260040160405180910390fd5b600f54604051634f6088cd60e01b8152600481018490526000916001600160a01b031690634f6088cd90602401608060405180830381865afa158015613d49573d6000803e3d6000fd5b505050506040513d601f19601f82011682018060405250810190613d6d9190615e3b565b5090925050506001600160a01b03811615613dad57600f546001600160a01b03163314613dad5760405163bf646b0f60e01b815260040160405180910390fd5b613db783856142e0565b613dc2858585614228565b5050505050565b600f546001600160a01b0316613df25760405163382eb47160e21b815260040160405180910390fd5b6001600160a01b038316613e0557505050565b6001600160a01b038216613edf57601380546000909155600f5460405163236313ff60e11b8152600481018390526001600160a01b03909116906346c627fe90602401600060405180830381600087803b158015613e6257600080fd5b505af1158015613e76573d6000803e3d6000fd5b5050600f5460405163125bc37160e11b8152600481018590526001600160a01b0390911692506324b786e291506024015b600060405180830381600087803b158015613ec157600080fd5b505af1158015613ed5573d6000803e3d6000fd5b5050505050505050565b6000613eea82611981565b60405162525fcd60e91b81526001600160a01b03821660048201529091506000907307152bfde079b5319e5308c43fb1dbc9c76cb4f99063a4bf9a0090602401602060405180830381865afa158015613f47573d6000803e3d6000fd5b505050506040513d601f19601f82011682018060405250810190613f6b9190615a14565b600f5460405163125bc37160e11b8152600481018390529192506001600160a01b0316906324b786e290602401600060405180830381600087803b158015613fb257600080fd5b505af1158015613fc6573d6000803e3d6000fd5b505050505050505050565b60006001600160a01b0384163b156140c757604051630a85bd0160e11b81526001600160a01b0385169063150b7a0290614015903390899088908890600401615e85565b6020604051808303816000875af1925050508015614050575060408051601f3d908101601f1916820190925261404d91810190615eb8565b60015b6140ad573d80801561407e576040519150601f19603f3d011682016040523d82523d6000602084013e614083565b606091505b5080516000036140a55760405162461bcd60e51b8152600401610ded90615de9565b805181602001fd5b6001600160e01b031916630a85bd0160e11b149050612127565b506001949350505050565b6001600160a01b0382166141285760405162461bcd60e51b815260206004820181905260248201527f4552433732313a206d696e7420746f20746865207a65726f20616464726573736044820152606401610ded565b6000818152600260205260409020546001600160a01b03161561418d5760405162461bcd60e51b815260206004820152601c60248201527f4552433732313a20746f6b656e20616c7265616479206d696e746564000000006044820152606401610ded565b61419960008383613b01565b6001600160a01b03821660009081526003602052604081208054600192906141c29084906154a1565b909155505060008181526002602052604080822080546001600160a01b0319166001600160a01b03861690811790915590518392907fddf252ad1be2c89b69c2b068fc378daa952ba7f163c4a11628f55a4df523b3ef908290a46113d260008383613dc9565b6001600160a01b0383166142835761427e81600880546000838152600960205260408120829055600182018355919091527ff3f7a9fe364faab93b216da50a3214154f22a0a2b415b23a84c8169e8b636ee30155565b6142a6565b816001600160a01b0316836001600160a01b0316146142a6576142a68382614462565b6001600160a01b0382166142bd57610e8e816144ff565b826001600160a01b0316826001600160a01b031614610e8e57610e8e82826145ae565b60006142eb83611981565b60405162525fcd60e91b81526001600160a01b03821660048201529091506000907307152bfde079b5319e5308c43fb1dbc9c76cb4f99063a4bf9a0090602401602060405180830381865afa158015614348573d6000803e3d6000fd5b505050506040513d601f19601f8201168201806040525081019061436c9190615a14565b600f5460405163236313ff60e11b8152600481018390529192506001600160a01b0316906346c627fe90602401600060405180830381600087803b1580156143b357600080fd5b505af11580156143c7573d6000803e3d6000fd5b5050600f5460405163662c08cd60e01b8152600481018890526001600160a01b03909116925063662c08cd9150602401600060405180830381600087803b15801561441157600080fd5b505af1158015614425573d6000803e3d6000fd5b5050600f546040516302fbe78f60e41b8152600481018890526001600160a01b0387811660248301529091169250632fbe78f09150604401613ea7565b6000600161446f846119e1565b614479919061548e565b6000838152600760205260409020549091508082146144cc576001600160a01b03841660009081526006602090815260408083208584528252808320548484528184208190558352600790915290208190555b5060009182526007602090815260408084208490556001600160a01b039094168352600681528383209183525290812055565b6008546000906145119060019061548e565b600083815260096020526040812054600880549394509092849081106145395761453961586a565b90600052602060002001549050806008838154811061455a5761455a61586a565b600091825260208083209091019290925582815260099091526040808220849055858252812055600880548061459257614592615ed5565b6001900381819060005260206000200160009055905550505050565b60006145b9836119e1565b6001600160a01b039093166000908152600660209081526040808320868452825280832085905593825260079052919091209190915550565b826002810192821561462b579160200282015b8281111561462b578251829061461b9082615bf4565b5091602001919060010190614605565b50614637929150614699565b5090565b604080516101208101825260008082526060602083015290918201908152602001606081526020016060815260200160006001600160a01b0316815260200160006001600160a01b0316815260200160608152602001606081525090565b808211156146375760006146ad82826146b6565b50600101614699565b5080546146c290615343565b6000825580601f106146d2575050565b601f0160209004906000526020600020908101906112ab91905b8082111561463757600081556001016146ec565b6001600160e01b0319811681146112ab57600080fd5b60006020828403121561472857600080fd5b81356124e781614700565b60005b8381101561474e578181015183820152602001614736565b50506000910152565b6000815180845261476f816020860160208601614733565b601f01601f19169290920160200192915050565b6020815260006124e76020830184614757565b6000602082840312156147a857600080fd5b5035919050565b6001600160a01b03811681146112ab57600080fd5b80356147cf816147af565b919050565b600080604083850312156147e757600080fd5b82356147f2816147af565b946020939093013593505050565b60006020828403121561481257600080fd5b81356124e7816147af565b634e487b7160e01b600052602160045260246000fd5b6008811061485157634e487b7160e01b600052602160045260246000fd5b9052565b805182526020810151151560208301526040810151604083015260018060a01b0360608201511660608301526080810151608083015260a0810151610e8e60a0840182614833565b60c08101610cba8284614855565b634e487b7160e01b600052604160045260246000fd5b60405161016081016001600160401b03811182821017156148e4576148e46148ab565b60405290565b604080519081016001600160401b03811182821017156148e4576148e46148ab565b60405160c081016001600160401b03811182821017156148e4576148e46148ab565b60405161012081016001600160401b03811182821017156148e4576148e46148ab565b604051601f8201601f191681016001600160401b0381118282101715614979576149796148ab565b604052919050565b60006001600160401b0382111561499a5761499a6148ab565b50601f01601f191660200190565b600082601f8301126149b957600080fd5b81356149cc6149c782614981565b614951565b8181528460208386010111156149e157600080fd5b816020850160208301376000918101602001919091529392505050565b600060208284031215614a1057600080fd5b81356001600160401b03811115614a2657600080fd5b612127848285016149a8565b600080600060608486031215614a4757600080fd5b8335614a52816147af565b92506020840135614a62816147af565b929592945050506040919091013590565b803560ff811681146147cf57600080fd5b80151581146112ab57600080fd5b80356147cf81614a84565b600060208284031215614aaf57600080fd5b81356001600160401b0380821115614ac657600080fd5b908301906101608286031215614adb57600080fd5b614ae36148c1565b823581526020830135602082015260408301356040820152606083013560608201526080830135608082015260a083013560a082015260c083013560c082015260e083013560e0820152610100614b3b818501614a73565b908201526101208381013583811115614b5357600080fd5b614b5f888287016149a8565b8284015250506101409150614b75828401614a92565b91810191909152949350505050565b606081526000614b976060830186614757565b8281036020840152614ba98186614757565b90508281036040840152614bbd8185614757565b9695505050505050565b60006020808385031215614bda57600080fd5b82356001600160401b0380821115614bf157600080fd5b818501915085601f830112614c0557600080fd5b614c0d6148ea565b806040840188811115614c1f57600080fd5b845b81811015614c5357803585811115614c395760008081fd5b614c458b8289016149a8565b855250928601928601614c21565b509098975050505050505050565b600881106112ab57600080fd5b80356147cf81614c61565b600060c08284031215614c8b57600080fd5b614c9361490c565b9050813581526020820135614ca781614a84565b6020820152604082810135908201526060820135614cc4816147af565b60608201526080828101359082015260a0820135614ce181614c61565b60a082015292915050565b60008060e08385031215614cff57600080fd5b614d098484614c79565b9460c0939093013593505050565b604081526000614d2a6040830185614757565b82810360208401526128388185614757565b60008060e08385031215614d4f57600080fd5b82359150614d608460208501614c79565b90509250929050565b6020808252825182820181905260009190848201906040850190845b81811015614da157835183529284019291840191600101614d85565b50909695505050505050565b60006101208b8352806020840152614dc78184018c614757565b9050614dd6604084018b614833565b8281036060840152614de8818a614757565b90508281036080840152614dfc8189614757565b6001600160a01b0388811660a0860152871660c085015283810360e08501529050614e278186614757565b9050828103610100840152614e3c8185614757565b9c9b505050505050505050505050565b60008060408385031215614e5f57600080fd5b8235614e6a816147af565b91506020830135614e7a81614a84565b809150509250929050565b60008060008060808587031215614e9b57600080fd5b8435614ea6816147af565b93506020850135614eb6816147af565b92506040850135915060608501356001600160401b03811115614ed857600080fd5b614ee4878288016149a8565b91505092959194509250565b60008060408385031215614f0357600080fd5b8235915060208301356001600160401b0380821115614f2157600080fd5b908401906101208287031215614f3657600080fd5b614f3e61492e565b82358152602083013582811115614f5457600080fd5b614f60888286016149a8565b602083015250614f7260408401614c6e565b6040820152606083013582811115614f8957600080fd5b614f95888286016149a8565b606083015250608083013582811115614fad57600080fd5b614fb9888286016149a8565b608083015250614fcb60a084016147c4565b60a0820152614fdc60c084016147c4565b60c082015260e083013582811115614ff357600080fd5b614fff888286016149a8565b60e083015250610100808401358381111561501957600080fd5b615025898287016149a8565b8284015250508093505050509250929050565b602081528151602082015260006020830151610120806040850152615061610140850183614757565b915060408501516150756060860182614833565b506060850151601f19808685030160808701526150928483614757565b935060808701519150808685030160a08701526150af8483614757565b935060a087015191506150cd60c08701836001600160a01b03169052565b60c08701516001600160a01b03811660e0880152915060e087015191506101008187860301818801526151008584614757565b908801518782039092018488015293509050614bbd8382614757565b60008060006060848603121561513157600080fd5b8335925060208401356001600160401b038082111561514f57600080fd5b61515b878388016149a8565b9350604086013591508082111561517157600080fd5b5061517e868287016149a8565b9150509250925092565b6000806040838503121561519b57600080fd5b82356001600160401b03808211156151b257600080fd5b6151be868387016149a8565b935060208501359150808211156151d457600080fd5b506151e1858286016149a8565b9150509250929050565b600060208083850312156151fe57600080fd5b82356001600160401b038082111561521557600080fd5b818501915085601f83011261522957600080fd5b81358181111561523b5761523b6148ab565b8060051b915061524c848301614951565b818152918301840191848101908884111561526657600080fd5b938501935b838510156152845784358252938501939085019061526b565b98975050505050505050565b600080604083850312156152a357600080fd5b82356152ae816147af565b91506020830135614e7a816147af565b600080600080608085870312156152d457600080fd5b8435935060208501356001600160401b03808211156152f257600080fd5b6152fe888389016149a8565b9450604087013591508082111561531457600080fd5b615320888389016149a8565b9350606087013591508082111561533657600080fd5b50614ee4878288016149a8565b600181811c9082168061535757607f821691505b60208210810361174a57634e487b7160e01b600052602260045260246000fd5b80516147cf816147af565b80516147cf81614c61565b600060c0828403121561539f57600080fd5b6153a761490c565b8251815260208301516153b981614a84565b60208201526040838101519082015260608301516153d6816147af565b60608201526080838101519082015260a08301516153f381614c61565b60a08201529392505050565b600082601f83011261541057600080fd5b815161541e6149c782614981565b81815284602083860101111561543357600080fd5b612127826020830160208701614733565b60006020828403121561545657600080fd5b81516001600160401b0381111561546c57600080fd5b612127848285016153ff565b634e487b7160e01b600052601160045260246000fd5b81810381811115610cba57610cba615478565b80820180821115610cba57610cba615478565b6000826154d157634e487b7160e01b600052601260045260246000fd5b500690565b6000600182016154e8576154e8615478565b5060010190565b6020808252602e908201527f4552433732313a2063616c6c6572206973206e6f7420746f6b656e206f776e6560408201526d1c881b9bdc88185c1c1c9bdd995960921b606082015260800190565b6000610160825184526020830151602085015260408301516040850152606083015160608501526080830151608085015260a083015160a085015260c083015160c085015260e083015160e0850152610100808401516155a18287018260ff169052565b50506101208084015182828701526155bb83870182614757565b92505050610140808401516155d38287018215159052565b5090949350505050565b6040815260006155f0604083018661553d565b905061212760208301848660201b63ffffffff919091161760401b9052565b60008060006060848603121561562457600080fd5b83516001600160401b038082111561563b57600080fd5b615647878388016153ff565b9450602086015191508082111561565d57600080fd5b615669878388016153ff565b9350604086015191508082111561567f57600080fd5b5061517e868287016153ff565b60e0810161569a8285614855565b8260c08301529392505050565b600080604083850312156156ba57600080fd5b82516001600160401b03808211156156d157600080fd5b6156dd868387016153ff565b935060208501519150808211156156f357600080fd5b506151e1858286016153ff565b6000815461570d81615343565b80855260206001838116801561572a576001811461574457615772565b60ff1985168884015283151560051b880183019550615772565b866000528260002060005b8581101561576a5781548a820186015290830190840161574f565b890184019650505b505050505092915050565b60006101208254845280602085015261579b81850160018501615700565b90506157ab600284015460ff1690565b6157b86040860182614833565b5083810360608501526157ce8160038501615700565b905083810360808501526157e58160048501615700565b90506157fb60058401546001600160a01b031690565b6001600160a01b0390811660a086015260068401541660c085015283810360e085015261582b8160078501615700565b90508381036101008501526121278160088501615700565b60006101006158528387614855565b8460c08401528060e0840152614bbd8184018561577d565b634e487b7160e01b600052603260045260246000fd5b60006080828403121561589257600080fd5b604051608081016001600160401b0382821081831117156158b5576158b56148ab565b81604052845191506001600160801b03821682146158d257600080fd5b90825260208401519080821682146158e957600080fd5b50602082015260408301516158fd81614a84565b6040820152606083015161591081614a84565b60608201529392505050565b6000806000806080858703121561593257600080fd5b845161593d816147af565b602086015160408701519195509350615955816147af565b606086015190925061596681614a84565b939692955090935050565b60006101608883526020615988602085018a614855565b8160e085015261599a8285018961577d565b91508382036101008501526159af8288614757565b91508382036101208501526159c48287614757565b848103610140860152915081604081018660005b6002811015615a025785830384526159f08383615700565b938501939250600191820191016159d8565b50909c9b505050505050505050505050565b600060208284031215615a2657600080fd5b5051919050565b600060208284031215615a3f57600080fd5b81516124e7816147af565b60e08101615a588285614855565b6001600160801b03831660c08301529392505050565b600060208284031215615a8057600080fd5b81516001600160401b0380821115615a9757600080fd5b908301906101208286031215615aac57600080fd5b615ab461492e565b82518152602083015182811115615aca57600080fd5b615ad6878286016153ff565b602083015250615ae860408401615382565b6040820152606083015182811115615aff57600080fd5b615b0b878286016153ff565b606083015250608083015182811115615b2357600080fd5b615b2f878286016153ff565b608083015250615b4160a08401615377565b60a0820152615b5260c08401615377565b60c082015260e083015182811115615b6957600080fd5b615b75878286016153ff565b60e0830152506101008084015183811115615b8f57600080fd5b615b9b888287016153ff565b918301919091525095945050505050565b601f821115610e8e576000816000526020600020601f850160051c81016020861015615bd55750805b601f850160051c820191505b8181101561307e57828155600101615be1565b81516001600160401b03811115615c0d57615c0d6148ab565b615c2181615c1b8454615343565b84615bac565b602080601f831160018114615c565760008415615c3e5750858301515b600019600386901b1c1916600185901b17855561307e565b600085815260208120601f198616915b82811015615c8557888601518255948401946001909101908401615c66565b5085821015615ca35787850151600019600388901b60f8161c191681555b5050505050600190811b01905550565b838152606060208201526000615ccc6060830185614757565b8281036040840152614bbd8185614757565b6000610140878352806020840152615cf881840188614757565b90508281036040840152615d0c8187614757565b9050615d1b6060840186614855565b828103610120840152615284818561577d565b848152608060208201526000615d476080830186614757565b8281036040840152615d598186614757565b90508281036060840152615d6d8185614757565b979650505050505050565b6000610160888352806020840152615d9281840189614757565b90508281036040840152615da68188614757565b90508281036060840152615dba8187614757565b9050615dc96080840186614855565b828103610140840152615ddc818561577d565b9998505050505050505050565b60208082526032908201527f4552433732313a207472616e7366657220746f206e6f6e20455243373231526560408201527131b2b4bb32b91034b6b83632b6b2b73a32b960711b606082015260800190565b60008060008060808587031215615e5157600080fd5b845193506020850151615e63816147af565b6040860151909350615e74816147af565b6060860151909250615966816147af565b6001600160a01b0385811682528416602082015260408101839052608060608201819052600090614bbd90830184614757565b600060208284031215615eca57600080fd5b81516124e781614700565b634e487b7160e01b600052603160045260246000fdfe0000000000000000000000006b8f34e0559aa9a5507e74ad93374d9745cdbf09a2646970667358221220316453ce9cf534f1620727a837d7c11f6f2f00da0f25176415b568b760667bfa64736f6c63430008160033","linkReferences":{}},"methodIdentifiers":{"addMinter(address)":"983b2d56","approve(address,uint256)":"095ea7b3","balanceOf(address)":"70a08231","burn(uint256)":"42966c68","burnBatch(uint256[])":"e4623c1b","callGetSVGZmapAndMetadataTrait(uint256,string,string,bytes)":"f1271942","callGetSvgAndMetadataTrait(uint256,string,string)":"e08714a6","cancelOwnershipHandover()":"54d1f13d","chonkTraitsV1()":"bc085033","chonksMain()":"ba7270f3","completeOwnershipHandover(address)":"f04e283e","createSvgFromPixels(bytes)":"21b12c23","getApproved(uint256)":"081812fc","getColorMapForTokenId(uint256)":"dcbaaad5","getCurrentEpoch()":"b97dd9e2","getEpochData(uint256)":"859e7d32","getGhostSvg()":"5c1ef256","getSVGZmapAndMetadataTrait((uint256,bool,uint256,address,uint256,uint8),uint256)":"f901667f","getStoredTraitForTokenId(uint256)":"208c25a3","getSvgAndMetadata((uint256,uint256,uint256,uint256,uint256,uint256,uint256,uint256,uint8,string,bool))":"a9684c58","getSvgAndMetadataTrait((uint256,bool,uint256,address,uint256,uint8),uint256)":"33a70328","getSvgForTokenId(uint256)":"c7791531","getSvgZmapsAndMetadata((uint256,uint256,uint256,uint256,uint256,uint256,uint256,uint256,uint8,string,bool))":"250818ea","getTrait(uint256)":"acb586df","getTraitImageSvg(uint256)":"a5e2912a","getTraitIndexToMetadata(uint256)":"ea139544","getTraitMetadata(uint256)":"d1bfc2af","getZMapForTokenId(uint256)":"a8498c74","invalidateAllOperatorApprovals(uint256)":"90f63842","isApprovedForAll(address,address)":"e985e9c5","isMinter(address)":"aa271e1a","marketplace()":"abc8c7af","name()":"06fdde03","nextTokenId()":"75794a3c","owner()":"8da5cb5b","ownerOf(uint256)":"6352211e","ownershipHandoverExpiresAt(address)":"fee81cf4","removeMinter(address)":"3092afd5","renderAsDataUri(uint256)":"a1d62680","renounceOwnership()":"715018a6","replaceMint(address,uint256)":"1f787d2f","replaceMintPermisssionsRevoked()":"9a6b9596","requestOwnershipHandover()":"25692962","resolveEpochIfNecessary()":"239ffa68","revokeReplaceMintPermissions()":"98d8d288","safeMint(address)":"40d097c3","safeTransferFrom(address,address,uint256)":"42842e0e","safeTransferFrom(address,address,uint256,bytes)":"b88d4fde","setApprovalForAll(address,bool)":"a22cb465","setDescriptionParts(string[2])":"26f2052a","setGhostMaps(bytes,bytes)":"e1defed9","setMarketplace(address)":"73ad6c2d","setTraitForTokenId(uint256,(uint256,bool,uint256,address,uint256,uint8))":"36d34ab9","setTraitIndexToMetadata(uint256,(uint256,string,uint8,bytes,bytes,address,address,string,string))":"b966c51d","setTraitRenderer(address)":"120def24","supportsInterface(bytes4)":"01ffc9a7","symbol()":"95d89b41","tokenByIndex(uint256)":"4f6ccce7","tokenOfOwnerByIndex(address,uint256)":"2f745c59","tokenURI(uint256)":"c87b56dd","totalSupply()":"18160ddd","traitIndexToMetadata(uint256)":"817a29a4","traitRenderer()":"c876371b","traitTokens()":"e14d026f","transferFrom(address,address,uint256)":"23b872dd","transferOwnership(address)":"f2fde38b","updateEpochOnce()":"31d2866a","walletOfOwner(address)":"438b6300"},"id":41}