{"abi":[{"type":"constructor","inputs":[],"stateMutability":"nonpayable"},{"type":"function","name":"addMinter","inputs":[{"name":"_minter","type":"address","internalType":"address"}],"outputs":[],"stateMutability":"nonpayable"},{"type":"function","name":"approve","inputs":[{"name":"to","type":"address","internalType":"address"},{"name":"tokenId","type":"uint256","internalType":"uint256"}],"outputs":[],"stateMutability":"nonpayable"},{"type":"function","name":"balanceOf","inputs":[{"name":"owner","type":"address","internalType":"address"}],"outputs":[{"name":"","type":"uint256","internalType":"uint256"}],"stateMutability":"view"},{"type":"function","name":"burn","inputs":[{"name":"_tokenId","type":"uint256","internalType":"uint256"}],"outputs":[],"stateMutability":"nonpayable"},{"type":"function","name":"burnBatch","inputs":[{"name":"tokenIds","type":"uint256[]","internalType":"uint256[]"}],"outputs":[],"stateMutability":"nonpayable"},{"type":"function","name":"callGetSVGZmapAndMetadataTrait","inputs":[{"name":"_traitId","type":"uint256","internalType":"uint256"},{"name":"_traitsSvg","type":"string","internalType":"string"},{"name":"_traitsAttributes","type":"string","internalType":"string"},{"name":"_traitZMaps","type":"bytes","internalType":"bytes"}],"outputs":[{"name":"traitsSvg","type":"string","internalType":"string"},{"name":"traitsAttributes","type":"string","internalType":"string"},{"name":"traitZMaps","type":"bytes","internalType":"bytes"}],"stateMutability":"view"},{"type":"function","name":"callGetSvgAndMetadataTrait","inputs":[{"name":"_traitId","type":"uint256","internalType":"uint256"},{"name":"_traitsSvg","type":"string","internalType":"string"},{"name":"_traitsAttributes","type":"string","internalType":"string"}],"outputs":[{"name":"traitsSvg","type":"string","internalType":"string"},{"name":"traitsAttributes","type":"string","internalType":"string"}],"stateMutability":"view"},{"type":"function","name":"cancelOwnershipHandover","inputs":[],"outputs":[],"stateMutability":"payable"},{"type":"function","name":"chonkIdToTraitMerkleRoot","inputs":[{"name":"chonkId","type":"uint256","internalType":"uint256"}],"outputs":[{"name":"traitMerkleRoot","type":"bytes32","internalType":"bytes32"}],"stateMutability":"view"},{"type":"function","name":"chonkTraitsV1","inputs":[],"outputs":[{"name":"","type":"address","internalType":"contract IChonkTraitsV1"}],"stateMutability":"view"},{"type":"function","name":"chonksMain","inputs":[],"outputs":[{"name":"","type":"address","internalType":"contract ChonksMain"}],"stateMutability":"view"},{"type":"function","name":"completeOwnershipHandover","inputs":[{"name":"pendingOwner","type":"address","internalType":"address"}],"outputs":[],"stateMutability":"payable"},{"type":"function","name":"createSvgFromPixels","inputs":[{"name":"_pixels","type":"bytes","internalType":"bytes"}],"outputs":[{"name":"svgParts","type":"bytes","internalType":"bytes"}],"stateMutability":"view"},{"type":"function","name":"getApproved","inputs":[{"name":"tokenId","type":"uint256","internalType":"uint256"}],"outputs":[{"name":"","type":"address","internalType":"address"}],"stateMutability":"view"},{"type":"function","name":"getColorMapForTokenId","inputs":[{"name":"_tokenId","type":"uint256","internalType":"uint256"}],"outputs":[{"name":"","type":"bytes","internalType":"bytes"}],"stateMutability":"view"},{"type":"function","name":"getCurrentEpoch","inputs":[],"outputs":[{"name":"","type":"uint256","internalType":"uint256"}],"stateMutability":"view"},{"type":"function","name":"getEpochData","inputs":[{"name":"_index","type":"uint256","internalType":"uint256"}],"outputs":[{"name":"","type":"tuple","internalType":"struct CommitReveal.Epoch","components":[{"name":"randomness","type":"uint128","internalType":"uint128"},{"name":"revealBlock","type":"uint64","internalType":"uint64"},{"name":"committed","type":"bool","internalType":"bool"},{"name":"revealed","type":"bool","internalType":"bool"}]}],"stateMutability":"view"},{"type":"function","name":"getGhostSvg","inputs":[],"outputs":[{"name":"","type":"string","internalType":"string"}],"stateMutability":"view"},{"type":"function","name":"getSVGZmapAndMetadataTrait","inputs":[{"name":"_trait","type":"tuple","internalType":"struct ITraitStorage.StoredTrait","components":[{"name":"epoch","type":"uint256","internalType":"uint256"},{"name":"isRevealed","type":"bool","internalType":"bool"},{"name":"seed","type":"uint256","internalType":"uint256"},{"name":"dataMinterContract","type":"address","internalType":"address"},{"name":"traitIndex","type":"uint256","internalType":"uint256"},{"name":"traitType","type":"uint8","internalType":"enum TraitCategory.Name"}]},{"name":"_traitId","type":"uint256","internalType":"uint256"}],"outputs":[{"name":"traitSvg","type":"string","internalType":"string"},{"name":"traitZmap","type":"bytes","internalType":"bytes"},{"name":"traitAttributes","type":"string","internalType":"string"}],"stateMutability":"view"},{"type":"function","name":"getStoredTraitForTokenId","inputs":[{"name":"_tokenId","type":"uint256","internalType":"uint256"}],"outputs":[{"name":"","type":"tuple","internalType":"struct ITraitStorage.StoredTrait","components":[{"name":"epoch","type":"uint256","internalType":"uint256"},{"name":"isRevealed","type":"bool","internalType":"bool"},{"name":"seed","type":"uint256","internalType":"uint256"},{"name":"dataMinterContract","type":"address","internalType":"address"},{"name":"traitIndex","type":"uint256","internalType":"uint256"},{"name":"traitType","type":"uint8","internalType":"enum TraitCategory.Name"}]}],"stateMutability":"view"},{"type":"function","name":"getSvgAndMetadata","inputs":[{"name":"_storedChonk","type":"tuple","internalType":"struct IChonkStorage.StoredChonk","components":[{"name":"tokenId","type":"uint256","internalType":"uint256"},{"name":"headId","type":"uint256","internalType":"uint256"},{"name":"hairId","type":"uint256","internalType":"uint256"},{"name":"faceId","type":"uint256","internalType":"uint256"},{"name":"accessoryId","type":"uint256","internalType":"uint256"},{"name":"topId","type":"uint256","internalType":"uint256"},{"name":"bottomId","type":"uint256","internalType":"uint256"},{"name":"shoesId","type":"uint256","internalType":"uint256"},{"name":"bodyIndex","type":"uint8","internalType":"uint8"},{"name":"backgroundColor","type":"string","internalType":"string"},{"name":"render3D","type":"bool","internalType":"bool"}]}],"outputs":[{"name":"traitsSvg","type":"string","internalType":"string"},{"name":"traitsAttributes","type":"string","internalType":"string"}],"stateMutability":"view"},{"type":"function","name":"getSvgAndMetadataTrait","inputs":[{"name":"_trait","type":"tuple","internalType":"struct ITraitStorage.StoredTrait","components":[{"name":"epoch","type":"uint256","internalType":"uint256"},{"name":"isRevealed","type":"bool","internalType":"bool"},{"name":"seed","type":"uint256","internalType":"uint256"},{"name":"dataMinterContract","type":"address","internalType":"address"},{"name":"traitIndex","type":"uint256","internalType":"uint256"},{"name":"traitType","type":"uint8","internalType":"enum TraitCategory.Name"}]},{"name":"_traitId","type":"uint256","internalType":"uint256"}],"outputs":[{"name":"traitSvg","type":"string","internalType":"string"},{"name":"traitAttributes","type":"string","internalType":"string"}],"stateMutability":"view"},{"type":"function","name":"getSvgForTokenId","inputs":[{"name":"_tokenId","type":"uint256","internalType":"uint256"}],"outputs":[{"name":"traitSvg","type":"string","internalType":"string"}],"stateMutability":"view"},{"type":"function","name":"getSvgZmapsAndMetadata","inputs":[{"name":"_storedChonk","type":"tuple","internalType":"struct IChonkStorage.StoredChonk","components":[{"name":"tokenId","type":"uint256","internalType":"uint256"},{"name":"headId","type":"uint256","internalType":"uint256"},{"name":"hairId","type":"uint256","internalType":"uint256"},{"name":"faceId","type":"uint256","internalType":"uint256"},{"name":"accessoryId","type":"uint256","internalType":"uint256"},{"name":"topId","type":"uint256","internalType":"uint256"},{"name":"bottomId","type":"uint256","internalType":"uint256"},{"name":"shoesId","type":"uint256","internalType":"uint256"},{"name":"bodyIndex","type":"uint8","internalType":"uint8"},{"name":"backgroundColor","type":"string","internalType":"string"},{"name":"render3D","type":"bool","internalType":"bool"}]}],"outputs":[{"name":"traitsSvg","type":"string","internalType":"string"},{"name":"traitZMaps","type":"bytes","internalType":"bytes"},{"name":"traitsAttributes","type":"string","internalType":"string"}],"stateMutability":"view"},{"type":"function","name":"getTrait","inputs":[{"name":"_tokenId","type":"uint256","internalType":"uint256"}],"outputs":[{"name":"","type":"tuple","internalType":"struct ITraitStorage.StoredTrait","components":[{"name":"epoch","type":"uint256","internalType":"uint256"},{"name":"isRevealed","type":"bool","internalType":"bool"},{"name":"seed","type":"uint256","internalType":"uint256"},{"name":"dataMinterContract","type":"address","internalType":"address"},{"name":"traitIndex","type":"uint256","internalType":"uint256"},{"name":"traitType","type":"uint8","internalType":"enum TraitCategory.Name"}]}],"stateMutability":"view"},{"type":"function","name":"getTraitImageSvg","inputs":[{"name":"_index","type":"uint256","internalType":"uint256"}],"outputs":[{"name":"svg","type":"string","internalType":"string"}],"stateMutability":"view"},{"type":"function","name":"getTraitIndexToMetadata","inputs":[{"name":"_traitIndex","type":"uint256","internalType":"uint256"}],"outputs":[{"name":"","type":"tuple","internalType":"struct ITraitStorage.TraitMetadata","components":[{"name":"traitIndex","type":"uint256","internalType":"uint256"},{"name":"traitName","type":"string","internalType":"string"},{"name":"traitType","type":"uint8","internalType":"enum TraitCategory.Name"},{"name":"colorMap","type":"bytes","internalType":"bytes"},{"name":"zMap","type":"bytes","internalType":"bytes"},{"name":"dataMinterContract","type":"address","internalType":"address"},{"name":"creatorAddress","type":"address","internalType":"address"},{"name":"creatorName","type":"string","internalType":"string"},{"name":"release","type":"string","internalType":"string"}]}],"stateMutability":"view"},{"type":"function","name":"getTraitMetadata","inputs":[{"name":"_tokenId","type":"uint256","internalType":"uint256"}],"outputs":[{"name":"","type":"tuple","internalType":"struct ITraitStorage.TraitMetadata","components":[{"name":"traitIndex","type":"uint256","internalType":"uint256"},{"name":"traitName","type":"string","internalType":"string"},{"name":"traitType","type":"uint8","internalType":"enum TraitCategory.Name"},{"name":"colorMap","type":"bytes","internalType":"bytes"},{"name":"zMap","type":"bytes","internalType":"bytes"},{"name":"dataMinterContract","type":"address","internalType":"address"},{"name":"creatorAddress","type":"address","internalType":"address"},{"name":"creatorName","type":"string","internalType":"string"},{"name":"release","type":"string","internalType":"string"}]}],"stateMutability":"view"},{"type":"function","name":"getZMapForTokenId","inputs":[{"name":"_tokenId","type":"uint256","internalType":"uint256"}],"outputs":[{"name":"","type":"string","internalType":"string"}],"stateMutability":"view"},{"type":"function","name":"invalidateAllOperatorApprovals","inputs":[{"name":"_tokenId","type":"uint256","internalType":"uint256"}],"outputs":[],"stateMutability":"nonpayable"},{"type":"function","name":"isApprovedForAll","inputs":[{"name":"_tba","type":"address","internalType":"address"},{"name":"_operator","type":"address","internalType":"address"}],"outputs":[{"name":"","type":"bool","internalType":"bool"}],"stateMutability":"view"},{"type":"function","name":"isMinter","inputs":[{"name":"","type":"address","internalType":"address"}],"outputs":[{"name":"","type":"bool","internalType":"bool"}],"stateMutability":"view"},{"type":"function","name":"marketplace","inputs":[],"outputs":[{"name":"","type":"address","internalType":"contract ChonksMarket"}],"stateMutability":"view"},{"type":"function","name":"name","inputs":[],"outputs":[{"name":"","type":"string","internalType":"string"}],"stateMutability":"view"},{"type":"function","name":"nextTokenId","inputs":[],"outputs":[{"name":"","type":"uint256","internalType":"uint256"}],"stateMutability":"view"},{"type":"function","name":"owner","inputs":[],"outputs":[{"name":"result","type":"address","internalType":"address"}],"stateMutability":"view"},{"type":"function","name":"ownerOf","inputs":[{"name":"tokenId","type":"uint256","internalType":"uint256"}],"outputs":[{"name":"","type":"address","internalType":"address"}],"stateMutability":"view"},{"type":"function","name":"ownershipHandoverExpiresAt","inputs":[{"name":"pendingOwner","type":"address","internalType":"address"}],"outputs":[{"name":"result","type":"uint256","internalType":"uint256"}],"stateMutability":"view"},{"type":"function","name":"removeMinter","inputs":[{"name":"_minter","type":"address","internalType":"address"}],"outputs":[],"stateMutability":"nonpayable"},{"type":"function","name":"renderAsDataUri","inputs":[{"name":"_tokenId","type":"uint256","internalType":"uint256"}],"outputs":[{"name":"","type":"string","internalType":"string"}],"stateMutability":"view"},{"type":"function","name":"renounceOwnership","inputs":[],"outputs":[],"stateMutability":"payable"},{"type":"function","name":"replaceMint","inputs":[{"name":"_to","type":"address","internalType":"address"},{"name":"_tokenId","type":"uint256","internalType":"uint256"}],"outputs":[],"stateMutability":"nonpayable"},{"type":"function","name":"replaceMintPermisssionsRevoked","inputs":[],"outputs":[{"name":"","type":"bool","internalType":"bool"}],"stateMutability":"view"},{"type":"function","name":"requestOwnershipHandover","inputs":[],"outputs":[],"stateMutability":"payable"},{"type":"function","name":"resolveEpochIfNecessary","inputs":[],"outputs":[],"stateMutability":"nonpayable"},{"type":"function","name":"revokeReplaceMintPermissions","inputs":[],"outputs":[],"stateMutability":"nonpayable"},{"type":"function","name":"safeMint","inputs":[{"name":"_to","type":"address","internalType":"address"}],"outputs":[{"name":"","type":"uint256","internalType":"uint256"}],"stateMutability":"nonpayable"},{"type":"function","name":"safeTransferFrom","inputs":[{"name":"from","type":"address","internalType":"address"},{"name":"to","type":"address","internalType":"address"},{"name":"tokenId","type":"uint256","internalType":"uint256"}],"outputs":[],"stateMutability":"nonpayable"},{"type":"function","name":"safeTransferFrom","inputs":[{"name":"from","type":"address","internalType":"address"},{"name":"to","type":"address","internalType":"address"},{"name":"tokenId","type":"uint256","internalType":"uint256"},{"name":"data","type":"bytes","internalType":"bytes"}],"outputs":[],"stateMutability":"nonpayable"},{"type":"function","name":"setApprovalForAll","inputs":[{"name":"_operator","type":"address","internalType":"address"},{"name":"_approved","type":"bool","internalType":"bool"}],"outputs":[],"stateMutability":"nonpayable"},{"type":"function","name":"setDescriptionParts","inputs":[{"name":"_descriptionParts","type":"string[2]","internalType":"string[2]"}],"outputs":[],"stateMutability":"nonpayable"},{"type":"function","name":"setGhostMaps","inputs":[{"name":"_colorMap","type":"bytes","internalType":"bytes"},{"name":"_zMap","type":"bytes","internalType":"bytes"}],"outputs":[],"stateMutability":"nonpayable"},{"type":"function","name":"setMarketplace","inputs":[{"name":"_marketplace","type":"address","internalType":"address"}],"outputs":[],"stateMutability":"nonpayable"},{"type":"function","name":"setTraitForTokenId","inputs":[{"name":"_tokenId","type":"uint256","internalType":"uint256"},{"name":"_trait","type":"tuple","internalType":"struct ITraitStorage.StoredTrait","components":[{"name":"epoch","type":"uint256","internalType":"uint256"},{"name":"isRevealed","type":"bool","internalType":"bool"},{"name":"seed","type":"uint256","internalType":"uint256"},{"name":"dataMinterContract","type":"address","internalType":"address"},{"name":"traitIndex","type":"uint256","internalType":"uint256"},{"name":"traitType","type":"uint8","internalType":"enum TraitCategory.Name"}]}],"outputs":[],"stateMutability":"nonpayable"},{"type":"function","name":"setTraitIndexToMetadata","inputs":[{"name":"_traitIndex","type":"uint256","internalType":"uint256"},{"name":"_metadata","type":"tuple","internalType":"struct ITraitStorage.TraitMetadata","components":[{"name":"traitIndex","type":"uint256","internalType":"uint256"},{"name":"traitName","type":"string","internalType":"string"},{"name":"traitType","type":"uint8","internalType":"enum TraitCategory.Name"},{"name":"colorMap","type":"bytes","internalType":"bytes"},{"name":"zMap","type":"bytes","internalType":"bytes"},{"name":"dataMinterContract","type":"address","internalType":"address"},{"name":"creatorAddress","type":"address","internalType":"address"},{"name":"creatorName","type":"string","internalType":"string"},{"name":"release","type":"string","internalType":"string"}]}],"outputs":[],"stateMutability":"nonpayable"},{"type":"function","name":"setTraitRenderer","inputs":[{"name":"_traitRenderer","type":"address","internalType":"address"}],"outputs":[],"stateMutability":"nonpayable"},{"type":"function","name":"supportsInterface","inputs":[{"name":"interfaceId","type":"bytes4","internalType":"bytes4"}],"outputs":[{"name":"","type":"bool","internalType":"bool"}],"stateMutability":"view"},{"type":"function","name":"symbol","inputs":[],"outputs":[{"name":"","type":"string","internalType":"string"}],"stateMutability":"view"},{"type":"function","name":"tokenByIndex","inputs":[{"name":"index","type":"uint256","internalType":"uint256"}],"outputs":[{"name":"","type":"uint256","internalType":"uint256"}],"stateMutability":"view"},{"type":"function","name":"tokenOfOwnerByIndex","inputs":[{"name":"owner","type":"address","internalType":"address"},{"name":"index","type":"uint256","internalType":"uint256"}],"outputs":[{"name":"","type":"uint256","internalType":"uint256"}],"stateMutability":"view"},{"type":"function","name":"tokenURI","inputs":[{"name":"_tokenId","type":"uint256","internalType":"uint256"}],"outputs":[{"name":"","type":"string","internalType":"string"}],"stateMutability":"view"},{"type":"function","name":"totalSupply","inputs":[],"outputs":[{"name":"","type":"uint256","internalType":"uint256"}],"stateMutability":"view"},{"type":"function","name":"traitIndexToMetadata","inputs":[{"name":"","type":"uint256","internalType":"uint256"}],"outputs":[{"name":"traitIndex","type":"uint256","internalType":"uint256"},{"name":"traitName","type":"string","internalType":"string"},{"name":"traitType","type":"uint8","internalType":"enum TraitCategory.Name"},{"name":"colorMap","type":"bytes","internalType":"bytes"},{"name":"zMap","type":"bytes","internalType":"bytes"},{"name":"dataMinterContract","type":"address","internalType":"address"},{"name":"creatorAddress","type":"address","internalType":"address"},{"name":"creatorName","type":"string","internalType":"string"},{"name":"release","type":"string","internalType":"string"}],"stateMutability":"view"},{"type":"function","name":"traitRenderer","inputs":[],"outputs":[{"name":"","type":"address","internalType":"contract TraitRenderer"}],"stateMutability":"view"},{"type":"function","name":"traitTokens","inputs":[],"outputs":[{"name":"epoch","type":"uint256","internalType":"uint256"}],"stateMutability":"view"},{"type":"function","name":"transferFrom","inputs":[{"name":"from","type":"address","internalType":"address"},{"name":"to","type":"address","internalType":"address"},{"name":"tokenId","type":"uint256","internalType":"uint256"}],"outputs":[],"stateMutability":"nonpayable"},{"type":"function","name":"transferOwnership","inputs":[{"name":"newOwner","type":"address","internalType":"address"}],"outputs":[],"stateMutability":"payable"},{"type":"function","name":"updateEpochOnce","inputs":[],"outputs":[],"stateMutability":"nonpayable"},{"type":"function","name":"walletOfOwner","inputs":[{"name":"_owner","type":"address","internalType":"address"}],"outputs":[{"name":"","type":"uint256[]","internalType":"uint256[]"}],"stateMutability":"view"},{"type":"event","name":"AllOperatorApprovalsInvalidated","inputs":[{"name":"tokenId","type":"uint256","indexed":true,"internalType":"uint256"}],"anonymous":false},{"type":"event","name":"Approval","inputs":[{"name":"owner","type":"address","indexed":true,"internalType":"address"},{"name":"approved","type":"address","indexed":true,"internalType":"address"},{"name":"tokenId","type":"uint256","indexed":true,"internalType":"uint256"}],"anonymous":false},{"type":"event","name":"ApprovalForAll","inputs":[{"name":"owner","type":"address","indexed":true,"internalType":"address"},{"name":"operator","type":"address","indexed":true,"internalType":"address"},{"name":"approved","type":"bool","indexed":false,"internalType":"bool"}],"anonymous":false},{"type":"event","name":"BatchMetadataUpdate","inputs":[{"name":"_fromTokenId","type":"uint256","indexed":false,"internalType":"uint256"},{"name":"_toTokenId","type":"uint256","indexed":false,"internalType":"uint256"}],"anonymous":false},{"type":"event","name":"MetadataUpdate","inputs":[{"name":"_tokenId","type":"uint256","indexed":false,"internalType":"uint256"}],"anonymous":false},{"type":"event","name":"NewEpoch","inputs":[{"name":"epoch","type":"uint256","indexed":true,"internalType":"uint256"},{"name":"revealBlock","type":"uint64","indexed":true,"internalType":"uint64"}],"anonymous":false},{"type":"event","name":"OwnershipHandoverCanceled","inputs":[{"name":"pendingOwner","type":"address","indexed":true,"internalType":"address"}],"anonymous":false},{"type":"event","name":"OwnershipHandoverRequested","inputs":[{"name":"pendingOwner","type":"address","indexed":true,"internalType":"address"}],"anonymous":false},{"type":"event","name":"OwnershipTransferred","inputs":[{"name":"oldOwner","type":"address","indexed":true,"internalType":"address"},{"name":"newOwner","type":"address","indexed":true,"internalType":"address"}],"anonymous":false},{"type":"event","name":"TBAApprovalForAll","inputs":[{"name":"tba","type":"address","indexed":true,"internalType":"address"},{"name":"owner","type":"address","indexed":true,"internalType":"address"},{"name":"operator","type":"address","indexed":true,"internalType":"address"},{"name":"approved","type":"bool","indexed":false,"internalType":"bool"}],"anonymous":false},{"type":"event","name":"Transfer","inputs":[{"name":"from","type":"address","indexed":true,"internalType":"address"},{"name":"to","type":"address","indexed":true,"internalType":"address"},{"name":"tokenId","type":"uint256","indexed":true,"internalType":"uint256"}],"anonymous":false},{"type":"error","name":"AddressCantBurn","inputs":[]},{"type":"error","name":"AlreadyInitialized","inputs":[]},{"type":"error","name":"CantTransfer","inputs":[]},{"type":"error","name":"CantTransferEquipped","inputs":[]},{"type":"error","name":"NewOwnerIsZeroAddress","inputs":[]},{"type":"error","name":"NoHandoverRequest","inputs":[]},{"type":"error","name":"NotATBA","inputs":[]},{"type":"error","name":"NotAValidMinterContract","inputs":[]},{"type":"error","name":"NotYourTrait","inputs":[]},{"type":"error","name":"ReplaceMintPermissionsRevoked","inputs":[]},{"type":"error","name":"SetChonksMainAddress","inputs":[]},{"type":"error","name":"SetMarketplaceAddress","inputs":[]},{"type":"error","name":"TraitAlreadyExists","inputs":[]},{"type":"error","name":"TraitIDTooLow","inputs":[]},{"type":"error","name":"TraitNotFound","inputs":[{"name":"_tokenId","type":"uint256","internalType":"uint256"}]},{"type":"error","name":"TraitTokenDoesntExist","inputs":[]},{"type":"error","name":"Unauthorized","inputs":[]}],"bytecode":{"object":"0x6080604052600e80546001600160a01b03191673785afed7ce24e76ac1d603be09c1fd20e0e1e6b7179055620532a66012553480156200003e57600080fd5b506040518060400160405280600c81526020016b43686f6e6b2054726169747360a01b8152506040518060400160405280600c81526020016b43484f4e4b2054524149545360a01b81525081600090816200009a9190620001a5565b506001620000a98282620001a5565b50506001600a5550620000bc33620000c2565b62000271565b6001600160a01b0316638b78c6d8198190558060007f8be0079c531659141344cd1fd0a4f28419497f9722a3daafe3b4186f6b6457e08180a350565b634e487b7160e01b600052604160045260246000fd5b600181811c908216806200012957607f821691505b6020821081036200014a57634e487b7160e01b600052602260045260246000fd5b50919050565b601f821115620001a0576000816000526020600020601f850160051c810160208610156200017b5750805b601f850160051c820191505b818110156200019c5782815560010162000187565b5050505b505050565b81516001600160401b03811115620001c157620001c1620000fe565b620001d981620001d2845462000114565b8462000150565b602080601f831160018114620002115760008415620001f85750858301515b600019600386901b1c1916600185901b1785556200019c565b600085815260208120601f198616915b82811015620002425788860151825594840194600190910190840162000221565b5085821015620002615787850151600019600388901b60f8161c191681555b5050505050600190811b01905550565b615f6a80620002816000396000f3fe6080604052600436106103fa5760003560e01c806390f6384211610213578063bc08503311610123578063e4623c1b116100ab578063f04e283e1161007a578063f04e283e14610c4e578063f127194214610c61578063f2fde38b14610c81578063f901667f14610c94578063fee81cf414610cb457600080fd5b8063e4623c1b14610bc1578063e48109a414610be1578063e985e9c514610c0e578063ea13954414610c2e57600080fd5b8063d1bfc2af116100f2578063d1bfc2af14610b1d578063dcbaaad514610b4a578063e08714a614610b6a578063e14d026f14610b8a578063e1defed914610ba157600080fd5b8063bc08503314610a9b578063c779153114610abd578063c876371b14610add578063c87b56dd14610afd57600080fd5b8063a8498c74116101a6578063acb586df11610175578063acb586df146109fe578063b88d4fde14610a1e578063b966c51d14610a3e578063b97dd9e214610a5e578063ba7270f314610a7357600080fd5b8063a8498c741461096e578063a9684c581461098e578063aa271e1a146109ae578063abc8c7af146109de57600080fd5b80639a6b9596116101e25780639a6b9596146108f4578063a1d626801461090e578063a22cb4651461092e578063a5e2912a1461094e57600080fd5b806390f638421461088a57806395d89b41146108aa578063983b2d56146108bf57806398d8d288146108df57600080fd5b806333a703281161030e5780635c1ef256116102a157806373ad6c2d1161027057806373ad6c2d1461079d57806375794a3c146107bd578063817a29a4146107d3578063859e7d32146108085780638da5cb5b1461087157600080fd5b80635c1ef256146107405780636352211e1461075557806370a0823114610775578063715018a61461079557600080fd5b806342966c68116102dd57806342966c68146106cb578063438b6300146106eb5780634f6ccce71461071857806354d1f13d1461073857600080fd5b806333a703281461063d57806336d34ab91461066b57806340d097c31461068b57806342842e0e146106ab57600080fd5b806321b12c2311610391578063256929621161036057806325692962146105c057806326f2052a146105c85780632f745c59146105e85780633092afd51461060857806331d2866a1461062857600080fd5b806321b12c231461053c578063239ffa681461055c57806323b872dd14610571578063250818ea1461059157600080fd5b8063120def24116103cd578063120def24146104b057806318160ddd146104d05780631f787d2f146104ef578063208c25a31461050f57600080fd5b806301ffc9a7146103ff57806306fdde0314610434578063081812fc14610456578063095ea7b31461048e575b600080fd5b34801561040b57600080fd5b5061041f61041a36600461470c565b610ce7565b60405190151581526020015b60405180910390f35b34801561044057600080fd5b50610449610cf8565b60405161042b9190614779565b34801561046257600080fd5b5061047661047136600461478c565b610d8a565b6040516001600160a01b03909116815260200161042b565b34801561049a57600080fd5b506104ae6104a93660046147ca565b610db1565b005b3480156104bc57600080fd5b506104ae6104cb3660046147f6565b610ecb565b3480156104dc57600080fd5b506008545b60405190815260200161042b565b3480156104fb57600080fd5b506104ae61050a3660046147ca565b610ef5565b34801561051b57600080fd5b5061052f61052a36600461478c565b610f53565b60405161042b9190614893565b34801561054857600080fd5b506104496105573660046149f4565b611094565b34801561056857600080fd5b506104ae61110a565b34801561057d57600080fd5b506104ae61058c366004614a28565b6112e6565b34801561059d57600080fd5b506105b16105ac366004614a93565b611317565b60405161042b93929190614b7a565b6104ae6113a6565b3480156105d457600080fd5b506104ae6105e3366004614bbd565b6113f5565b3480156105f457600080fd5b506104e16106033660046147ca565b61140e565b34801561061457600080fd5b506104ae6106233660046147f6565b6114a4565b34801561063457600080fd5b506104ae6114cd565b34801561064957600080fd5b5061065d610658366004614ce2565b611510565b60405161042b929190614d0d565b34801561067757600080fd5b506104ae610686366004614d32565b611635565b34801561069757600080fd5b506104e16106a63660046147f6565b611722565b3480156106b757600080fd5b506104ae6106c6366004614a28565b611788565b3480156106d757600080fd5b506104ae6106e636600461478c565b6117a3565b3480156106f757600080fd5b5061070b6107063660046147f6565b6117dc565b60405161042b9190614d5f565b34801561072457600080fd5b506104e161073336600461478c565b611873565b6104ae611906565b34801561074c57600080fd5b50610449611942565b34801561076157600080fd5b5061047661077036600461478c565b6119b9565b34801561078157600080fd5b506104e16107903660046147f6565b611a19565b6104ae611a9f565b3480156107a957600080fd5b506104ae6107b83660046147f6565b611ab3565b3480156107c957600080fd5b506104e160125481565b3480156107df57600080fd5b506107f36107ee36600461478c565b611add565b60405161042b99989796959493929190614da3565b34801561081457600080fd5b5061082861082336600461478c565b611de7565b60405161042b919081516001600160801b031681526020808301516001600160401b03169082015260408083015115159082015260609182015115159181019190915260800190565b34801561087d57600080fd5b50638b78c6d81954610476565b34801561089657600080fd5b506104ae6108a536600461478c565b611eeb565b3480156108b657600080fd5b50610449611fe3565b3480156108cb57600080fd5b506104ae6108da3660046147f6565b611ff2565b3480156108eb57600080fd5b506104ae61201e565b34801561090057600080fd5b5060165461041f9060ff1681565b34801561091a57600080fd5b5061044961092936600461478c565b612035565b34801561093a57600080fd5b506104ae610949366004614e42565b612167565b34801561095a57600080fd5b5061044961096936600461478c565b61232e565b34801561097a57600080fd5b5061044961098936600461478c565b612526565b34801561099a57600080fd5b5061065d6109a9366004614a93565b61261a565b3480156109ba57600080fd5b5061041f6109c93660046147f6565b60116020526000908152604090205460ff1681565b3480156109ea57600080fd5b50600f54610476906001600160a01b031681565b348015610a0a57600080fd5b5061052f610a1936600461478c565b6126a5565b348015610a2a57600080fd5b506104ae610a39366004614e7b565b612879565b348015610a4a57600080fd5b506104ae610a59366004614ee6565b6128b1565b348015610a6a57600080fd5b50600c546104e1565b348015610a7f57600080fd5b506104767307152bfde079b5319e5308c43fb1dbc9c76cb4f981565b348015610aa757600080fd5b50610476600080516020615f1583398151915281565b348015610ac957600080fd5b50610449610ad836600461478c565b612a70565b348015610ae957600080fd5b50600e54610476906001600160a01b031681565b348015610b0957600080fd5b50610449610b1836600461478c565b612ac6565b348015610b2957600080fd5b50610b3d610b3836600461478c565b612b07565b60405161042b919061502e565b348015610b5657600080fd5b50610449610b6536600461478c565b612efe565b348015610b7657600080fd5b5061065d610b85366004615112565b612f13565b348015610b9657600080fd5b50600c546104e19081565b348015610bad57600080fd5b506104ae610bbc36600461517e565b61304e565b348015610bcd57600080fd5b506104ae610bdc3660046151e1565b6130be565b348015610bed57600080fd5b506104e1610bfc36600461478c565b60186020526000908152604090205481565b348015610c1a57600080fd5b5061041f610c29366004615286565b613124565b348015610c3a57600080fd5b50610b3d610c4936600461478c565b61325b565b6104ae610c5c3660046147f6565b61332c565b348015610c6d57600080fd5b506105b1610c7c3660046152b4565b613369565b6104ae610c8f3660046147f6565b6134b1565b348015610ca057600080fd5b506105b1610caf366004614ce2565b6134d8565b348015610cc057600080fd5b506104e1610ccf3660046147f6565b63389a75e1600c908152600091909152602090205490565b6000610cf282613603565b92915050565b606060008054610d0790615339565b80601f0160208091040260200160405190810160405280929190818152602001828054610d3390615339565b8015610d805780601f10610d5557610100808354040283529160200191610d80565b820191906000526020600020905b815481529060010190602001808311610d6357829003601f168201915b5050505050905090565b6000610d9582613628565b506000908152600460205260409020546001600160a01b031690565b6000610dbc826119b9565b9050806001600160a01b0316836001600160a01b031603610e2e5760405162461bcd60e51b815260206004820152602160248201527f4552433732313a20617070726f76616c20746f2063757272656e74206f776e656044820152603960f91b60648201526084015b60405180910390fd5b336001600160a01b0382161480610e4a5750610e4a8133613124565b610ebc5760405162461bcd60e51b815260206004820152603e60248201527f4552433732313a20617070726f76652063616c6c6572206973206e6f7420746f60448201527f6b656e206f776e6572206e6f7220617070726f76656420666f7220616c6c00006064820152608401610e25565b610ec68383613687565b505050565b610ed36136f5565b600e80546001600160a01b0319166001600160a01b0392909216919091179055565b3360008181526011602052604090205460ff16610f255760405163090a0b6960e21b815260040160405180910390fd5b60165460ff1615610f495760405163cb207e0d60e01b815260040160405180910390fd5b610ec68383613710565b610f896040805160c08101825260008082526020820181905291810182905260608101829052608081018290529060a082015290565b620532a682116110025760405163208c25a360e01b815260048101839052600080516020615f158339815191529063208c25a3906024015b60c060405180830381865afa158015610fde573d6000803e3d6000fd5b505050506040513d601f19601f82011682018060405250810190610cf29190615383565b6000828152600b6020908152604091829020825160c08101845281548152600182015460ff90811615159382019390935260028201549381019390935260038101546001600160a01b03166060840152600481015460808401526005810154909160a084019116600781111561107a5761107a614813565b600781111561108b5761108b614813565b90525092915050565b600e546040516321b12c2360e01b81526060916001600160a01b0316906321b12c23906110c5908590600401614779565b600060405180830381865afa1580156110e2573d6000803e3d6000fd5b505050506040513d6000823e601f3d908101601f19168201604052610cf2919081019061543a565b600c546000908152600d602052604090208054600160c01b900460ff16158061116257508054600160c81b900460ff16158015611162575061114e61010043615484565b8154600160801b90046001600160401b0316105b156111ad57611172436032615497565b815460ff60c01b196001600160401b0392909216600160801b029190911668ffffffffffffffffff60801b1990911617600160c01b17815550565b8054600160801b90046001600160401b03164311156112e357805460408051600160801b9092046001600160401b031640602083015244908201526001600160801b03906060016040516020818303038152906040528051906020012060001c61121791906154aa565b8154600160c81b6001600160801b039290921679ff000000000000000000ffffffffffffffffffffffffffffffff199091161717808255600c54604051600160801b9092046001600160401b0316917f78611aecfda8d341359c248df527c95aef93d446c92bb928b2a81b7abcb1d8d990600090a3604080516000815260001960208201527f6bd5c950a8d8df17f772f5af37cb3655737899cbf903264b9795592da439661c910160405180910390a1600c80546000906112d7906154cc565b909155506112e361110a565b50565b6112f0338261372a565b61130c5760405162461bcd60e51b8152600401610e25906154e5565b610ec6838383613788565b600e5460405163d42f766360e01b8152606091829182916001600160a01b03169063d42f766390611354908790309063f1271942906004016155d3565b600060405180830381865afa158015611371573d6000803e3d6000fd5b505050506040513d6000823e601f3d908101601f191682016040526113999190810190615605565b9250925092509193909250565b60006202a3006001600160401b03164201905063389a75e1600c5233600052806020600c2055337fdbf36a107da19e49527a7176a1babf963b4b0ff8cde35ee35d6cd8f1f9ac7e1d600080a250565b6113fd6136f5565b61140a60148260026145e8565b5050565b600061141983611a19565b821061147b5760405162461bcd60e51b815260206004820152602b60248201527f455243373231456e756d657261626c653a206f776e657220696e646578206f7560448201526a74206f6620626f756e647360a81b6064820152608401610e25565b506001600160a01b03919091166000908152600660209081526040808320938352929052205490565b6114ac6136f5565b6001600160a01b03166000908152601160205260409020805460ff19169055565b3360008181526011602052604090205460ff166114fd5760405163090a0b6960e21b815260040160405180910390fd5b600c546000036112e35761030a600c5550565b606080620532a6831161159e57604051630674e06560e31b8152600080516020615f15833981519152906333a70328906115509087908790600401615682565b600060405180830381865afa15801561156d573d6000803e3d6000fd5b505050506040513d6000823e601f3d908101601f19168201604052611595919081019061569d565b9150915061162e565b600e546080850151600090815260106020526040908190209051630bfb083b60e41b81526001600160a01b039092169163bfb083b0916115e49188918891600401615839565b600060405180830381865afa158015611601573d6000803e3d6000fd5b505050506040513d6000823e601f3d908101601f19168201604052611629919081019061569d565b915091505b9250929050565b3360008181526011602052604090205460ff166116655760405163090a0b6960e21b815260040160405180910390fd5b620532a683116116885760405163918c6c1560e01b815260040160405180910390fd5b6000838152600b602090815260409182902084518155908401516001808301805492151560ff1993841617905592850151600283015560608501516003830180546001600160a01b039092166001600160a01b03199092169190911790556080850151600483015560a085015160058301805487959293919291169083600781111561171657611716614813565b02179055505050505050565b3360008181526011602052604081205490919060ff166117555760405163090a0b6960e21b815260040160405180910390fd5b61175d61110a565b600060126000815461176e906154cc565b9182905550905061177f8482613710565b91505b50919050565b610ec683838360405180602001604052806000815250612879565b3360009081526011602052604090205460ff166117d357604051631758e6d560e11b815260040160405180910390fd5b6112e381613935565b606060006117e983611a19565b90506000816001600160401b03811115611805576118056148a1565b60405190808252806020026020018201604052801561182e578160200160208202803683370190505b50905060005b8281101561186b57611846858261140e565b82828151811061185857611858615860565b6020908102919091010152600101611834565b509392505050565b600061187e60085490565b82106118e15760405162461bcd60e51b815260206004820152602c60248201527f455243373231456e756d657261626c653a20676c6f62616c20696e646578206f60448201526b7574206f6620626f756e647360a01b6064820152608401610e25565b600882815481106118f4576118f4615860565b90600052602060002001549050919050565b63389a75e1600c523360005260006020600c2055337ffa7b8eab7da67f412cc9575ed43464468f9bfbae89d1675917346ca6d8fe3c92600080a2565b600e5460408051632e0f792b60e11b815290516060926001600160a01b031691635c1ef2569160048083019260009291908290030181865afa15801561198c573d6000803e3d6000fd5b505050506040513d6000823e601f3d908101601f191682016040526119b4919081019061543a565b905090565b6000818152600260205260408120546001600160a01b031680610cf25760405162461bcd60e51b8152602060048201526018602482015277115490cdcc8c4e881a5b9d985b1a59081d1bdad95b88125160421b6044820152606401610e25565b60006001600160a01b038216611a835760405162461bcd60e51b815260206004820152602960248201527f4552433732313a2061646472657373207a65726f206973206e6f7420612076616044820152683634b21037bbb732b960b91b6064820152608401610e25565b506001600160a01b031660009081526003602052604090205490565b611aa76136f5565b611ab160006139e4565b565b611abb6136f5565b600f80546001600160a01b0319166001600160a01b0392909216919091179055565b60106020526000908152604090208054600182018054919291611aff90615339565b80601f0160208091040260200160405190810160405280929190818152602001828054611b2b90615339565b8015611b785780601f10611b4d57610100808354040283529160200191611b78565b820191906000526020600020905b815481529060010190602001808311611b5b57829003601f168201915b5050506002840154600385018054949560ff909216949193509150611b9c90615339565b80601f0160208091040260200160405190810160405280929190818152602001828054611bc890615339565b8015611c155780601f10611bea57610100808354040283529160200191611c15565b820191906000526020600020905b815481529060010190602001808311611bf857829003601f168201915b505050505090806004018054611c2a90615339565b80601f0160208091040260200160405190810160405280929190818152602001828054611c5690615339565b8015611ca35780601f10611c7857610100808354040283529160200191611ca3565b820191906000526020600020905b815481529060010190602001808311611c8657829003601f168201915b5050506005840154600685015460078601805495966001600160a01b0393841696929093169450919250611cd690615339565b80601f0160208091040260200160405190810160405280929190818152602001828054611d0290615339565b8015611d4f5780601f10611d2457610100808354040283529160200191611d4f565b820191906000526020600020905b815481529060010190602001808311611d3257829003601f168201915b505050505090806008018054611d6490615339565b80601f0160208091040260200160405190810160405280929190818152602001828054611d9090615339565b8015611ddd5780601f10611db257610100808354040283529160200191611ddd565b820191906000526020600020905b815481529060010190602001808311611dc057829003601f168201915b5050505050905089565b6040805160808101825260008082526020820181905291810182905260608101919091526103098211611e82576040516342cf3e9960e11b815260048101839052600080516020615f158339815191529063859e7d3290602401608060405180830381865afa158015611e5e573d6000803e3d6000fd5b505050506040513d601f19601f82011682018060405250810190610cf29190615876565b506000908152600d6020908152604091829020825160808101845290546001600160801b03811682526001600160401b03600160801b8204169282019290925260ff600160c01b83048116151593820193909352600160c81b9091049091161515606082015290565b604051636670434960e01b8152600481018290526000907307152bfde079b5319e5308c43fb1dbc9c76cb4f990636670434990602401608060405180830381865afa158015611f3e573d6000803e3d6000fd5b505050506040513d601f19601f82011682018060405250810190611f629190615912565b5092505050336001600160a01b0316611f7a836119b9565b6001600160a01b031614158015611f9a57506001600160a01b0381163314155b8015611fba5750337307152bfde079b5319e5308c43fb1dbc9c76cb4f914155b15611fd857604051633e79b9f360e01b815260040160405180910390fd5b61140a600083613687565b606060018054610d0790615339565b611ffa6136f5565b6001600160a01b03166000908152601160205260409020805460ff19166001179055565b6120266136f5565b6016805460ff19166001179055565b6060620532a6821161207357604051630143ac4d60e71b815260048101839052600080516020615f158339815191529063a1d62680906024016110c5565b600061207e836126a5565b9050600081602001516120b4576040518060400160405280600b81526020016a1e39bb339f1e17b9bb339f60a91b8152506120c1565b6120c1826080015161232e565b600e54608084015160009081526010602052604090209192506001600160a01b03169063ac499bbc90869085906120f6611942565b8660146040518763ffffffff1660e01b815260040161211a96959493929190615967565b600060405180830381865afa158015612137573d6000803e3d6000fd5b505050506040513d6000823e601f3d908101601f1916820160405261215f919081019061543a565b949350505050565b336001600160a01b038316036121bf5760405162461bcd60e51b815260206004820152601960248201527f4552433732313a20617070726f766520746f2063616c6c6572000000000000006044820152606401610e25565b60405163423965e560e11b81523360048201526000907307152bfde079b5319e5308c43fb1dbc9c76cb4f990638472cbca90602401602060405180830381865afa158015612211573d6000803e3d6000fd5b505050506040513d601f19601f820116820180604052508101906122359190615a0a565b6040516331a9108f60e11b8152600481018290529091506000907307152bfde079b5319e5308c43fb1dbc9c76cb4f990636352211e90602401602060405180830381865afa15801561228b573d6000803e3d6000fd5b505050506040513d601f19601f820116820180604052508101906122af9190615a23565b3360008181526017602090815260408083206001600160a01b03868116808652918452828520908b1680865290845293829020805460ff19168a15159081179091559151918252949550919392917fb35a3e86f41df9a708de503b8afccb6c992167394cba9e16a3b5c466d378d1aa910160405180910390a450505050565b6040516352f1489560e11b815260048101829052606090600080516020615f158339815191529063a5e2912a90602401600060405180830381865afa15801561237b573d6000803e3d6000fd5b505050506040513d6000823e601f3d908101601f191682016040526123a3919081019061543a565b90506000815111801561240557506040805180820190915260128152711e339034b21e912a3930b4ba111f1e17b39f60711b6020918201528151908201207fb6491396077b2019fd311df30a263f5b6f84c028f31b91717e9f140465bce24314155b1561240f57919050565b6000828152601060205260408120600301805461242b90615339565b80601f016020809104026020016040519081016040528092919081815260200182805461245790615339565b80156124a45780601f10612479576101008083540402835291602001916124a4565b820191906000526020600020905b81548152906001019060200180831161248757829003601f168201915b5050600e54604051631349027b60e31b81529495506001600160a01b031693639a4813d893506124da9250859150600401614779565b600060405180830381865afa1580156124f7573d6000803e3d6000fd5b505050506040513d6000823e601f3d908101601f1916820160405261251f919081019061543a565b9392505050565b6060620532a6821161256457604051632a12631d60e21b815260048101839052600080516020615f158339815191529063a8498c74906024016110c5565b600061256f836126a5565b6080810151600090815260106020526040902060040180549192509061259490615339565b80601f01602080910402602001604051908101604052809291908181526020018280546125c090615339565b801561260d5780601f106125e25761010080835404028352916020019161260d565b820191906000526020600020905b8154815290600101906020018083116125f057829003601f168201915b5050505050915050919050565b600e54604051631b4751fb60e01b815260609182916001600160a01b0390911690631b4751fb90612657908690309063e08714a6906004016155d3565b600060405180830381865afa158015612674573d6000803e3d6000fd5b505050506040513d6000823e601f3d908101601f1916820160405261269c919081019061569d565b91509150915091565b6126db6040805160c08101825260008082526020820181905291810182905260608101829052608081018290529060a082015290565b620532a682116127175760405163acb586df60e01b815260048101839052600080516020615f158339815191529063acb586df90602401610fc1565b6000828152600b60209081526040808320815160c08101835281548152600182015460ff90811615159482019490945260028201549281019290925260038101546001600160a01b031660608301526004810154608083015260058101549192909160a084019116600781111561279057612790614813565b60078111156127a1576127a1614813565b90525080516000908152600d602052604090205460608201519192506001600160801b0316906001600160a01b0381161580156127e057506040830151155b156128015760405163082d451d60e01b815260048101869052602401610e25565b604051630ac7cb6f60e01b81526001600160a01b03821690630ac7cb6f9061282f9086908690600401615a40565b60c060405180830381865afa15801561284c573d6000803e3d6000fd5b505050506040513d601f19601f820116820180604052508101906128709190615383565b95945050505050565b612883338361372a565b61289f5760405162461bcd60e51b8152600401610e25906154e5565b6128ab84848484613a22565b50505050565b3360008181526011602052604090205460ff166128e15760405163090a0b6960e21b815260040160405180910390fd5b604051633a84e55160e21b815260048101849052600090600080516020615f158339815191529063ea13954490602401600060405180830381865afa15801561292e573d6000803e3d6000fd5b505050506040513d6000823e601f3d908101601f191682016040526129569190810190615a64565b60a08101519091506001600160a01b0316156129855760405163cb391f5760e01b815260040160405180910390fd5b6000848152601060209081526040909120845181559084015184919060018201906129b09082615bea565b50604082015160028201805460ff191660018360078111156129d4576129d4614813565b0217905550606082015160038201906129ed9082615bea565b5060808201516004820190612a029082615bea565b5060a08201516005820180546001600160a01b039283166001600160a01b03199182161790915560c084015160068401805491909316911617905560e08201516007820190612a519082615bea565b506101008201516008820190612a679082615bea565b50505050505050565b60606000612a7d836126a5565b9050806020015115612a9d57612a96816080015161232e565b9150611782565b505060408051808201909152600b81526a1e39bb339f1e17b9bb339f60a91b6020820152919050565b6000818152600260205260409020546060906001600160a01b0316612afe57604051632df0e24560e21b815260040160405180910390fd5b610cf282612035565b612b0f614631565b620532a68211612b8b5760405163d1bfc2af60e01b815260048101839052600080516020615f158339815191529063d1bfc2af90602401600060405180830381865afa158015612b63573d6000803e3d6000fd5b505050506040513d6000823e601f3d908101601f19168201604052610cf29190810190615a64565b6000612b96836126a5565b905060106000826080015181526020019081526020016000206040518061012001604052908160008201548152602001600182018054612bd590615339565b80601f0160208091040260200160405190810160405280929190818152602001828054612c0190615339565b8015612c4e5780601f10612c2357610100808354040283529160200191612c4e565b820191906000526020600020905b815481529060010190602001808311612c3157829003601f168201915b5050509183525050600282015460209091019060ff166007811115612c7557612c75614813565b6007811115612c8657612c86614813565b8152602001600382018054612c9a90615339565b80601f0160208091040260200160405190810160405280929190818152602001828054612cc690615339565b8015612d135780601f10612ce857610100808354040283529160200191612d13565b820191906000526020600020905b815481529060010190602001808311612cf657829003601f168201915b50505050508152602001600482018054612d2c90615339565b80601f0160208091040260200160405190810160405280929190818152602001828054612d5890615339565b8015612da55780601f10612d7a57610100808354040283529160200191612da5565b820191906000526020600020905b815481529060010190602001808311612d8857829003601f168201915b505050918352505060058201546001600160a01b0390811660208301526006830154166040820152600782018054606090920191612de290615339565b80601f0160208091040260200160405190810160405280929190818152602001828054612e0e90615339565b8015612e5b5780601f10612e3057610100808354040283529160200191612e5b565b820191906000526020600020905b815481529060010190602001808311612e3e57829003601f168201915b50505050508152602001600882018054612e7490615339565b80601f0160208091040260200160405190810160405280929190818152602001828054612ea090615339565b8015612eed5780601f10612ec257610100808354040283529160200191612eed565b820191906000526020600020905b815481529060010190602001808311612ed057829003601f168201915b505050505081525050915050919050565b6060612f0982612b07565b6060015192915050565b606080620532a68511612fa3576040516370438a5360e11b8152600080516020615f158339815191529063e08714a690612f5590889088908890600401615ca9565b600060405180830381865afa158015612f72573d6000803e3d6000fd5b505050506040513d6000823e601f3d908101601f19168201604052612f9a919081019061569d565b91509150613046565b6000612fae866126a5565b600e5460808201516000908152601060205260409081902090516354a2ab0560e01b81529293506001600160a01b03909116916354a2ab0591612ffb918a918a918a918891600401615cd4565b600060405180830381865afa158015613018573d6000803e3d6000fd5b505050506040513d6000823e601f3d908101601f19168201604052613040919081019061569d565b92509250505b935093915050565b6130566136f5565b600e5460405163e1defed960e01b81526001600160a01b039091169063e1defed9906130889085908590600401614d0d565b600060405180830381600087803b1580156130a257600080fd5b505af11580156130b6573d6000803e3d6000fd5b505050505050565b3360009081526011602052604090205460ff166130ee57604051631758e6d560e11b815260040160405180910390fd5b60005b815181101561140a5761311c82828151811061310f5761310f615860565b6020026020010151613935565b6001016130f1565b60405163423965e560e11b81526001600160a01b038316600482015260009081907307152bfde079b5319e5308c43fb1dbc9c76cb4f990638472cbca90602401602060405180830381865afa158015613181573d6000803e3d6000fd5b505050506040513d601f19601f820116820180604052508101906131a59190615a0a565b6040516331a9108f60e11b8152600481018290529091506000907307152bfde079b5319e5308c43fb1dbc9c76cb4f990636352211e90602401602060405180830381865afa1580156131fb573d6000803e3d6000fd5b505050506040513d601f19601f8201168201806040525081019061321f9190615a23565b6001600160a01b039586166000908152601760209081526040808320938916835292815282822096909716815294909552505050205460ff1690565b613263614631565b604051633a84e55160e21b815260048101839052600090600080516020615f158339815191529063ea13954490602401600060405180830381865afa1580156132b0573d6000803e3d6000fd5b505050506040513d6000823e601f3d908101601f191682016040526132d89190810190615a64565b60a08101519091506001600160a01b03166132f35792915050565b601060008481526020019081526020016000206040518061012001604052908160008201548152602001600182018054612bd590615339565b6133346136f5565b63389a75e1600c52806000526020600c20805442111561335c57636f5e88186000526004601cfd5b600090556112e3816139e4565b6060806060620532a687116133ff576040516378938ca160e11b8152600080516020615f158339815191529063f1271942906133af908a908a908a908a90600401615d24565b600060405180830381865afa1580156133cc573d6000803e3d6000fd5b505050506040513d6000823e601f3d908101601f191682016040526133f49190810190615605565b9250925092506134a7565b600061340a886126a5565b600e546080820151600090815260106020526040908190209051631c1fc8db60e01b81529293506001600160a01b0390911691631c1fc8db9161345a918c918c918c918c91899190600401615d6e565b600060405180830381865afa158015613477573d6000803e3d6000fd5b505050506040513d6000823e601f3d908101601f1916820160405261349f9190810190615605565b935093509350505b9450945094915050565b6134b96136f5565b8060601b6134cf57637448fbae6000526004601cfd5b6112e3816139e4565b6060806060620532a6841161356a5760405163f901667f60e01b8152600080516020615f158339815191529063f901667f9061351a9088908890600401615682565b600060405180830381865afa158015613537573d6000803e3d6000fd5b505050506040513d6000823e601f3d908101601f1916820160405261355f9190810190615605565b9250925092506135fc565b600e546080860151600090815260106020526040908190209051633c05553b60e01b81526001600160a01b0390921691633c05553b916135b09189918991600401615839565b600060405180830381865afa1580156135cd573d6000803e3d6000fd5b505050506040513d6000823e601f3d908101601f191682016040526135f59190810190615605565b9250925092505b9250925092565b60006001600160e01b0319821663780e9d6360e01b1480610cf25750610cf282613a55565b6000818152600260205260409020546001600160a01b03166112e35760405162461bcd60e51b8152602060048201526018602482015277115490cdcc8c4e881a5b9d985b1a59081d1bdad95b88125160421b6044820152606401610e25565b600081815260046020526040902080546001600160a01b0319166001600160a01b03841690811790915581906136bc826119b9565b6001600160a01b03167f8c5be1e5ebec7d5bd14f71427d1e84f3dd0314c0f7b2291e5b200ac8c7c3b92560405160405180910390a45050565b638b78c6d819543314611ab1576382b429006000526004601cfd5b61140a828260405180602001604052806000815250613aa5565b600080613736836119b9565b9050806001600160a01b0316846001600160a01b0316148061375d575061375d8185613124565b8061215f5750836001600160a01b031661377684610d8a565b6001600160a01b031614949350505050565b826001600160a01b031661379b826119b9565b6001600160a01b0316146137ff5760405162461bcd60e51b815260206004820152602560248201527f4552433732313a207472616e736665722066726f6d20696e636f72726563742060448201526437bbb732b960d91b6064820152608401610e25565b6001600160a01b0382166138615760405162461bcd60e51b8152602060048201526024808201527f4552433732313a207472616e7366657220746f20746865207a65726f206164646044820152637265737360e01b6064820152608401610e25565b61386c838383613ad8565b613877600082613687565b6001600160a01b03831660009081526003602052604081208054600192906138a0908490615484565b90915550506001600160a01b03821660009081526003602052604081208054600192906138ce908490615497565b909155505060008181526002602052604080822080546001600160a01b0319166001600160a01b0386811691821790925591518493918716917fddf252ad1be2c89b69c2b068fc378daa952ba7f163c4a11628f55a4df523b3ef91a4610ec6838383613e68565b6000613940826119b9565b905061394e81600084613ad8565b613959600083613687565b6001600160a01b0381166000908152600360205260408120805460019290613982908490615484565b909155505060008281526002602052604080822080546001600160a01b0319169055518391906001600160a01b038416907fddf252ad1be2c89b69c2b068fc378daa952ba7f163c4a11628f55a4df523b3ef908390a461140a81600084613e68565b638b78c6d81980546001600160a01b039092169182907f8be0079c531659141344cd1fd0a4f28419497f9722a3daafe3b4186f6b6457e0600080a355565b613a2d848484613788565b613a3984848484613f20565b6128ab5760405162461bcd60e51b8152600401610e2590615ddf565b60006001600160e01b031982166380ac58cd60e01b1480613a8657506001600160e01b03198216635b5e139f60e01b145b80610cf257506301ffc9a760e01b6001600160e01b0319831614610cf2565b613aaf8383614021565b613abc6000848484613f20565b610ec65760405162461bcd60e51b8152600401610e2590615ddf565b613afa604051806040016040528060018152602001606160f81b815250614177565b6001600160a01b038316613b1357610ec68383836141ba565b613b35604051806040016040528060018152602001603160f91b815250614177565b60405162525fcd60e91b81526001600160a01b03831660048201527307152bfde079b5319e5308c43fb1dbc9c76cb4f99063a4bf9a0090602401602060405180830381865afa158015613b8c573d6000803e3d6000fd5b505050506040513d601f19601f82011682018060405250810190613bb09190615a0a565b600003613bd0576040516326a45c0160e21b815260040160405180910390fd5b613bf2604051806040016040528060018152602001606360f81b815250614177565b604051636670434960e01b8152600481018290526000907307152bfde079b5319e5308c43fb1dbc9c76cb4f990636670434990602401608060405180830381865afa158015613c45573d6000803e3d6000fd5b505050506040513d601f19601f82011682018060405250810190613c699190615912565b93505050508015613c8d5760405163290ea0ff60e01b815260040160405180910390fd5b613caf604051806040016040528060018152602001601960fa1b815250614177565b600f54604051634f6088cd60e01b8152600481018490526000916001600160a01b031690634f6088cd90602401608060405180830381865afa158015613cf9573d6000803e3d6000fd5b505050506040513d601f19601f82011682018060405250810190613d1d9190615e31565b5090925050506001600160a01b03811615613d5d57600f546001600160a01b03163314613d5d5760405163bf646b0f60e01b815260040160405180910390fd5b6001600160a01b038416613e0c57613d758385614272565b6000613d80846119b9565b60405162525fcd60e91b81526001600160a01b03821660048201529091507307152bfde079b5319e5308c43fb1dbc9c76cb4f99063a4bf9a0090602401602060405180830381865afa158015613dda573d6000803e3d6000fd5b505050506040513d601f19601f82011682018060405250810190613dfe9190615a0a565b6013556130b68686866141ba565b613e4c6040518060400160405280601781526020017f7a7a7a206265666f7265546f6b656e5472616e7366657200000000000000000081525084866143f4565b613e568385614272565b613e618585856141ba565b5050505050565b600f546001600160a01b0316613e915760405163382eb47160e21b815260040160405180910390fd5b6001600160a01b038316613ea457505050565b6001600160a01b038216610ec657601380546000909155600f5460405163236313ff60e11b8152600481018390526001600160a01b03909116906346c627fe906024015b600060405180830381600087803b158015613f0257600080fd5b505af1158015613f16573d6000803e3d6000fd5b5050505050505050565b60006001600160a01b0384163b1561401657604051630a85bd0160e11b81526001600160a01b0385169063150b7a0290613f64903390899088908890600401615e7b565b6020604051808303816000875af1925050508015613f9f575060408051601f3d908101601f19168201909252613f9c91810190615eae565b60015b613ffc573d808015613fcd576040519150601f19603f3d011682016040523d82523d6000602084013e613fd2565b606091505b508051600003613ff45760405162461bcd60e51b8152600401610e2590615ddf565b805181602001fd5b6001600160e01b031916630a85bd0160e11b14905061215f565b506001949350505050565b6001600160a01b0382166140775760405162461bcd60e51b815260206004820181905260248201527f4552433732313a206d696e7420746f20746865207a65726f20616464726573736044820152606401610e25565b6000818152600260205260409020546001600160a01b0316156140dc5760405162461bcd60e51b815260206004820152601c60248201527f4552433732313a20746f6b656e20616c7265616479206d696e746564000000006044820152606401610e25565b6140e860008383613ad8565b6001600160a01b0382166000908152600360205260408120805460019290614111908490615497565b909155505060008181526002602052604080822080546001600160a01b0319166001600160a01b03861690811790915590518392907fddf252ad1be2c89b69c2b068fc378daa952ba7f163c4a11628f55a4df523b3ef908290a461140a60008383613e68565b6112e38160405160240161418b9190614779565b60408051601f198184030181529190526020810180516001600160e01b031663104c13eb60e21b179052614437565b6001600160a01b0383166142155761421081600880546000838152600960205260408120829055600182018355919091527ff3f7a9fe364faab93b216da50a3214154f22a0a2b415b23a84c8169e8b636ee30155565b614238565b816001600160a01b0316836001600160a01b031614614238576142388382614458565b6001600160a01b03821661424f57610ec6816144f5565b826001600160a01b0316826001600160a01b031614610ec657610ec682826145a4565b600061427d836119b9565b60405162525fcd60e91b81526001600160a01b03821660048201529091506000907307152bfde079b5319e5308c43fb1dbc9c76cb4f99063a4bf9a0090602401602060405180830381865afa1580156142da573d6000803e3d6000fd5b505050506040513d601f19601f820116820180604052508101906142fe9190615a0a565b600f5460405163236313ff60e11b8152600481018390529192506001600160a01b0316906346c627fe90602401600060405180830381600087803b15801561434557600080fd5b505af1158015614359573d6000803e3d6000fd5b5050600f54604051632e1d274f60e01b8152600481018890526001600160a01b039091169250632e1d274f9150602401600060405180830381600087803b1580156143a357600080fd5b505af11580156143b7573d6000803e3d6000fd5b5050600f546040516302fbe78f60e41b8152600481018890526001600160a01b0387811660248301529091169250632fbe78f09150604401613ee8565b610ec683838360405160240161440c93929190615ecb565b60408051601f198184030181529190526020810180516001600160e01b031663e3849f7960e01b1790525b80516a636f6e736f6c652e6c6f67602083016000808483855afa5050505050565b6000600161446584611a19565b61446f9190615484565b6000838152600760205260409020549091508082146144c2576001600160a01b03841660009081526006602090815260408083208584528252808320548484528184208190558352600790915290208190555b5060009182526007602090815260408084208490556001600160a01b039094168352600681528383209183525290812055565b60085460009061450790600190615484565b6000838152600960205260408120546008805493945090928490811061452f5761452f615860565b90600052602060002001549050806008838154811061455057614550615860565b600091825260208083209091019290925582815260099091526040808220849055858252812055600880548061458857614588615efe565b6001900381819060005260206000200160009055905550505050565b60006145af83611a19565b6001600160a01b039093166000908152600660209081526040808320868452825280832085905593825260079052919091209190915550565b8260028101928215614621579160200282015b8281111561462157825182906146119082615bea565b50916020019190600101906145fb565b5061462d92915061468f565b5090565b604080516101208101825260008082526060602083015290918201908152602001606081526020016060815260200160006001600160a01b0316815260200160006001600160a01b0316815260200160608152602001606081525090565b8082111561462d5760006146a382826146ac565b5060010161468f565b5080546146b890615339565b6000825580601f106146c8575050565b601f0160209004906000526020600020908101906112e391905b8082111561462d57600081556001016146e2565b6001600160e01b0319811681146112e357600080fd5b60006020828403121561471e57600080fd5b813561251f816146f6565b60005b8381101561474457818101518382015260200161472c565b50506000910152565b60008151808452614765816020860160208601614729565b601f01601f19169290920160200192915050565b60208152600061251f602083018461474d565b60006020828403121561479e57600080fd5b5035919050565b6001600160a01b03811681146112e357600080fd5b80356147c5816147a5565b919050565b600080604083850312156147dd57600080fd5b82356147e8816147a5565b946020939093013593505050565b60006020828403121561480857600080fd5b813561251f816147a5565b634e487b7160e01b600052602160045260246000fd5b6008811061484757634e487b7160e01b600052602160045260246000fd5b9052565b805182526020810151151560208301526040810151604083015260018060a01b0360608201511660608301526080810151608083015260a0810151610ec660a0840182614829565b60c08101610cf2828461484b565b634e487b7160e01b600052604160045260246000fd5b60405161016081016001600160401b03811182821017156148da576148da6148a1565b60405290565b604080519081016001600160401b03811182821017156148da576148da6148a1565b60405160c081016001600160401b03811182821017156148da576148da6148a1565b60405161012081016001600160401b03811182821017156148da576148da6148a1565b604051601f8201601f191681016001600160401b038111828210171561496f5761496f6148a1565b604052919050565b60006001600160401b03821115614990576149906148a1565b50601f01601f191660200190565b600082601f8301126149af57600080fd5b81356149c26149bd82614977565b614947565b8181528460208386010111156149d757600080fd5b816020850160208301376000918101602001919091529392505050565b600060208284031215614a0657600080fd5b81356001600160401b03811115614a1c57600080fd5b61215f8482850161499e565b600080600060608486031215614a3d57600080fd5b8335614a48816147a5565b92506020840135614a58816147a5565b929592945050506040919091013590565b803560ff811681146147c557600080fd5b80151581146112e357600080fd5b80356147c581614a7a565b600060208284031215614aa557600080fd5b81356001600160401b0380821115614abc57600080fd5b908301906101608286031215614ad157600080fd5b614ad96148b7565b823581526020830135602082015260408301356040820152606083013560608201526080830135608082015260a083013560a082015260c083013560c082015260e083013560e0820152610100614b31818501614a69565b908201526101208381013583811115614b4957600080fd5b614b558882870161499e565b8284015250506101409150614b6b828401614a88565b91810191909152949350505050565b606081526000614b8d606083018661474d565b8281036020840152614b9f818661474d565b90508281036040840152614bb3818561474d565b9695505050505050565b60006020808385031215614bd057600080fd5b82356001600160401b0380821115614be757600080fd5b818501915085601f830112614bfb57600080fd5b614c036148e0565b806040840188811115614c1557600080fd5b845b81811015614c4957803585811115614c2f5760008081fd5b614c3b8b82890161499e565b855250928601928601614c17565b509098975050505050505050565b600881106112e357600080fd5b80356147c581614c57565b600060c08284031215614c8157600080fd5b614c89614902565b9050813581526020820135614c9d81614a7a565b6020820152604082810135908201526060820135614cba816147a5565b60608201526080828101359082015260a0820135614cd781614c57565b60a082015292915050565b60008060e08385031215614cf557600080fd5b614cff8484614c6f565b9460c0939093013593505050565b604081526000614d20604083018561474d565b8281036020840152612870818561474d565b60008060e08385031215614d4557600080fd5b82359150614d568460208501614c6f565b90509250929050565b6020808252825182820181905260009190848201906040850190845b81811015614d9757835183529284019291840191600101614d7b565b50909695505050505050565b60006101208b8352806020840152614dbd8184018c61474d565b9050614dcc604084018b614829565b8281036060840152614dde818a61474d565b90508281036080840152614df2818961474d565b6001600160a01b0388811660a0860152871660c085015283810360e08501529050614e1d818661474d565b9050828103610100840152614e32818561474d565b9c9b505050505050505050505050565b60008060408385031215614e5557600080fd5b8235614e60816147a5565b91506020830135614e7081614a7a565b809150509250929050565b60008060008060808587031215614e9157600080fd5b8435614e9c816147a5565b93506020850135614eac816147a5565b92506040850135915060608501356001600160401b03811115614ece57600080fd5b614eda8782880161499e565b91505092959194509250565b60008060408385031215614ef957600080fd5b8235915060208301356001600160401b0380821115614f1757600080fd5b908401906101208287031215614f2c57600080fd5b614f34614924565b82358152602083013582811115614f4a57600080fd5b614f568882860161499e565b602083015250614f6860408401614c64565b6040820152606083013582811115614f7f57600080fd5b614f8b8882860161499e565b606083015250608083013582811115614fa357600080fd5b614faf8882860161499e565b608083015250614fc160a084016147ba565b60a0820152614fd260c084016147ba565b60c082015260e083013582811115614fe957600080fd5b614ff58882860161499e565b60e083015250610100808401358381111561500f57600080fd5b61501b8982870161499e565b8284015250508093505050509250929050565b60208152815160208201526000602083015161012080604085015261505761014085018361474d565b9150604085015161506b6060860182614829565b506060850151601f1980868503016080870152615088848361474d565b935060808701519150808685030160a08701526150a5848361474d565b935060a087015191506150c360c08701836001600160a01b03169052565b60c08701516001600160a01b03811660e0880152915060e087015191506101008187860301818801526150f6858461474d565b908801518782039092018488015293509050614bb3838261474d565b60008060006060848603121561512757600080fd5b8335925060208401356001600160401b038082111561514557600080fd5b6151518783880161499e565b9350604086013591508082111561516757600080fd5b506151748682870161499e565b9150509250925092565b6000806040838503121561519157600080fd5b82356001600160401b03808211156151a857600080fd5b6151b48683870161499e565b935060208501359150808211156151ca57600080fd5b506151d78582860161499e565b9150509250929050565b600060208083850312156151f457600080fd5b82356001600160401b038082111561520b57600080fd5b818501915085601f83011261521f57600080fd5b813581811115615231576152316148a1565b8060051b9150615242848301614947565b818152918301840191848101908884111561525c57600080fd5b938501935b8385101561527a57843582529385019390850190615261565b98975050505050505050565b6000806040838503121561529957600080fd5b82356152a4816147a5565b91506020830135614e70816147a5565b600080600080608085870312156152ca57600080fd5b8435935060208501356001600160401b03808211156152e857600080fd5b6152f48883890161499e565b9450604087013591508082111561530a57600080fd5b6153168883890161499e565b9350606087013591508082111561532c57600080fd5b50614eda8782880161499e565b600181811c9082168061534d57607f821691505b60208210810361178257634e487b7160e01b600052602260045260246000fd5b80516147c5816147a5565b80516147c581614c57565b600060c0828403121561539557600080fd5b61539d614902565b8251815260208301516153af81614a7a565b60208201526040838101519082015260608301516153cc816147a5565b60608201526080838101519082015260a08301516153e981614c57565b60a08201529392505050565b600082601f83011261540657600080fd5b81516154146149bd82614977565b81815284602083860101111561542957600080fd5b61215f826020830160208701614729565b60006020828403121561544c57600080fd5b81516001600160401b0381111561546257600080fd5b61215f848285016153f5565b634e487b7160e01b600052601160045260246000fd5b81810381811115610cf257610cf261546e565b80820180821115610cf257610cf261546e565b6000826154c757634e487b7160e01b600052601260045260246000fd5b500690565b6000600182016154de576154de61546e565b5060010190565b6020808252602e908201527f4552433732313a2063616c6c6572206973206e6f7420746f6b656e206f776e6560408201526d1c881b9bdc88185c1c1c9bdd995960921b606082015260800190565b6000610160825184526020830151602085015260408301516040850152606083015160608501526080830151608085015260a083015160a085015260c083015160c085015260e083015160e0850152610100808401516155978287018260ff169052565b50506101208084015182828701526155b18387018261474d565b92505050610140808401516155c98287018215159052565b5090949350505050565b6040815260006155e66040830186615533565b905061215f60208301848660201b63ffffffff919091161760401b9052565b60008060006060848603121561561a57600080fd5b83516001600160401b038082111561563157600080fd5b61563d878388016153f5565b9450602086015191508082111561565357600080fd5b61565f878388016153f5565b9350604086015191508082111561567557600080fd5b50615174868287016153f5565b60e08101615690828561484b565b8260c08301529392505050565b600080604083850312156156b057600080fd5b82516001600160401b03808211156156c757600080fd5b6156d3868387016153f5565b935060208501519150808211156156e957600080fd5b506151d7858286016153f5565b6000815461570381615339565b808552602060018381168015615720576001811461573a57615768565b60ff1985168884015283151560051b880183019550615768565b866000528260002060005b858110156157605781548a8201860152908301908401615745565b890184019650505b505050505092915050565b600061012082548452806020850152615791818501600185016156f6565b90506157a1600284015460ff1690565b6157ae6040860182614829565b5083810360608501526157c481600385016156f6565b905083810360808501526157db81600485016156f6565b90506157f160058401546001600160a01b031690565b6001600160a01b0390811660a086015260068401541660c085015283810360e085015261582181600785016156f6565b905083810361010085015261215f81600885016156f6565b6000610100615848838761484b565b8460c08401528060e0840152614bb381840185615773565b634e487b7160e01b600052603260045260246000fd5b60006080828403121561588857600080fd5b604051608081016001600160401b0382821081831117156158ab576158ab6148a1565b81604052845191506001600160801b03821682146158c857600080fd5b90825260208401519080821682146158df57600080fd5b50602082015260408301516158f381614a7a565b6040820152606083015161590681614a7a565b60608201529392505050565b6000806000806080858703121561592857600080fd5b8451615933816147a5565b60208601516040870151919550935061594b816147a5565b606086015190925061595c81614a7a565b939692955090935050565b6000610160888352602061597e602085018a61484b565b8160e085015261599082850189615773565b91508382036101008501526159a5828861474d565b91508382036101208501526159ba828761474d565b848103610140860152915081604081018660005b60028110156159f85785830384526159e683836156f6565b938501939250600191820191016159ce565b50909c9b505050505050505050505050565b600060208284031215615a1c57600080fd5b5051919050565b600060208284031215615a3557600080fd5b815161251f816147a5565b60e08101615a4e828561484b565b6001600160801b03831660c08301529392505050565b600060208284031215615a7657600080fd5b81516001600160401b0380821115615a8d57600080fd5b908301906101208286031215615aa257600080fd5b615aaa614924565b82518152602083015182811115615ac057600080fd5b615acc878286016153f5565b602083015250615ade60408401615378565b6040820152606083015182811115615af557600080fd5b615b01878286016153f5565b606083015250608083015182811115615b1957600080fd5b615b25878286016153f5565b608083015250615b3760a0840161536d565b60a0820152615b4860c0840161536d565b60c082015260e083015182811115615b5f57600080fd5b615b6b878286016153f5565b60e0830152506101008084015183811115615b8557600080fd5b615b91888287016153f5565b918301919091525095945050505050565b601f821115610ec6576000816000526020600020601f850160051c81016020861015615bcb5750805b601f850160051c820191505b818110156130b657828155600101615bd7565b81516001600160401b03811115615c0357615c036148a1565b615c1781615c118454615339565b84615ba2565b602080601f831160018114615c4c5760008415615c345750858301515b600019600386901b1c1916600185901b1785556130b6565b600085815260208120601f198616915b82811015615c7b57888601518255948401946001909101908401615c5c565b5085821015615c995787850151600019600388901b60f8161c191681555b5050505050600190811b01905550565b838152606060208201526000615cc2606083018561474d565b8281036040840152614bb3818561474d565b6000610140878352806020840152615cee8184018861474d565b90508281036040840152615d02818761474d565b9050615d11606084018661484b565b82810361012084015261527a8185615773565b848152608060208201526000615d3d608083018661474d565b8281036040840152615d4f818661474d565b90508281036060840152615d63818561474d565b979650505050505050565b6000610160888352806020840152615d888184018961474d565b90508281036040840152615d9c818861474d565b90508281036060840152615db0818761474d565b9050615dbf608084018661484b565b828103610140840152615dd28185615773565b9998505050505050505050565b60208082526032908201527f4552433732313a207472616e7366657220746f206e6f6e20455243373231526560408201527131b2b4bb32b91034b6b83632b6b2b73a32b960711b606082015260800190565b60008060008060808587031215615e4757600080fd5b845193506020850151615e59816147a5565b6040860151909350615e6a816147a5565b606086015190925061595c816147a5565b6001600160a01b0385811682528416602082015260408101839052608060608201819052600090614bb39083018461474d565b600060208284031215615ec057600080fd5b815161251f816146f6565b606081526000615ede606083018661474d565b6020830194909452506001600160a01b0391909116604090910152919050565b634e487b7160e01b600052603160045260246000fdfe0000000000000000000000006b8f34e0559aa9a5507e74ad93374d9745cdbf09a264697066735822122039d4f79fc81e687e05f50cdc8850c104efc89f9f9455030deefce80e669b908a64736f6c63430008160033","linkReferences":{}},"methodIdentifiers":{"addMinter(address)":"983b2d56","approve(address,uint256)":"095ea7b3","balanceOf(address)":"70a08231","burn(uint256)":"42966c68","burnBatch(uint256[])":"e4623c1b","callGetSVGZmapAndMetadataTrait(uint256,string,string,bytes)":"f1271942","callGetSvgAndMetadataTrait(uint256,string,string)":"e08714a6","cancelOwnershipHandover()":"54d1f13d","chonkIdToTraitMerkleRoot(uint256)":"e48109a4","chonkTraitsV1()":"bc085033","chonksMain()":"ba7270f3","completeOwnershipHandover(address)":"f04e283e","createSvgFromPixels(bytes)":"21b12c23","getApproved(uint256)":"081812fc","getColorMapForTokenId(uint256)":"dcbaaad5","getCurrentEpoch()":"b97dd9e2","getEpochData(uint256)":"859e7d32","getGhostSvg()":"5c1ef256","getSVGZmapAndMetadataTrait((uint256,bool,uint256,address,uint256,uint8),uint256)":"f901667f","getStoredTraitForTokenId(uint256)":"208c25a3","getSvgAndMetadata((uint256,uint256,uint256,uint256,uint256,uint256,uint256,uint256,uint8,string,bool))":"a9684c58","getSvgAndMetadataTrait((uint256,bool,uint256,address,uint256,uint8),uint256)":"33a70328","getSvgForTokenId(uint256)":"c7791531","getSvgZmapsAndMetadata((uint256,uint256,uint256,uint256,uint256,uint256,uint256,uint256,uint8,string,bool))":"250818ea","getTrait(uint256)":"acb586df","getTraitImageSvg(uint256)":"a5e2912a","getTraitIndexToMetadata(uint256)":"ea139544","getTraitMetadata(uint256)":"d1bfc2af","getZMapForTokenId(uint256)":"a8498c74","invalidateAllOperatorApprovals(uint256)":"90f63842","isApprovedForAll(address,address)":"e985e9c5","isMinter(address)":"aa271e1a","marketplace()":"abc8c7af","name()":"06fdde03","nextTokenId()":"75794a3c","owner()":"8da5cb5b","ownerOf(uint256)":"6352211e","ownershipHandoverExpiresAt(address)":"fee81cf4","removeMinter(address)":"3092afd5","renderAsDataUri(uint256)":"a1d62680","renounceOwnership()":"715018a6","replaceMint(address,uint256)":"1f787d2f","replaceMintPermisssionsRevoked()":"9a6b9596","requestOwnershipHandover()":"25692962","resolveEpochIfNecessary()":"239ffa68","revokeReplaceMintPermissions()":"98d8d288","safeMint(address)":"40d097c3","safeTransferFrom(address,address,uint256)":"42842e0e","safeTransferFrom(address,address,uint256,bytes)":"b88d4fde","setApprovalForAll(address,bool)":"a22cb465","setDescriptionParts(string[2])":"26f2052a","setGhostMaps(bytes,bytes)":"e1defed9","setMarketplace(address)":"73ad6c2d","setTraitForTokenId(uint256,(uint256,bool,uint256,address,uint256,uint8))":"36d34ab9","setTraitIndexToMetadata(uint256,(uint256,string,uint8,bytes,bytes,address,address,string,string))":"b966c51d","setTraitRenderer(address)":"120def24","supportsInterface(bytes4)":"01ffc9a7","symbol()":"95d89b41","tokenByIndex(uint256)":"4f6ccce7","tokenOfOwnerByIndex(address,uint256)":"2f745c59","tokenURI(uint256)":"c87b56dd","totalSupply()":"18160ddd","traitIndexToMetadata(uint256)":"817a29a4","traitRenderer()":"c876371b","traitTokens()":"e14d026f","transferFrom(address,address,uint256)":"23b872dd","transferOwnership(address)":"f2fde38b","updateEpochOnce()":"31d2866a","walletOfOwner(address)":"438b6300"},"id":43}