{"abi":[{"type":"constructor","inputs":[{"name":"localDeploy_","type":"bool","internalType":"bool"}],"stateMutability":"nonpayable"},{"type":"function","name":"addApprovedInvalidator","inputs":[{"name":"_invalidator","type":"address","internalType":"address"}],"outputs":[],"stateMutability":"nonpayable"},{"type":"function","name":"addMinter","inputs":[{"name":"_minter","type":"address","internalType":"address"}],"outputs":[],"stateMutability":"nonpayable"},{"type":"function","name":"approve","inputs":[{"name":"_operator","type":"address","internalType":"address"},{"name":"_tokenId","type":"uint256","internalType":"uint256"}],"outputs":[],"stateMutability":"nonpayable"},{"type":"function","name":"approvedInvalidators","inputs":[{"name":"","type":"address","internalType":"address"}],"outputs":[{"name":"","type":"bool","internalType":"bool"}],"stateMutability":"view"},{"type":"function","name":"balanceOf","inputs":[{"name":"owner","type":"address","internalType":"address"}],"outputs":[{"name":"","type":"uint256","internalType":"uint256"}],"stateMutability":"view"},{"type":"function","name":"burn","inputs":[{"name":"_tokenId","type":"uint256","internalType":"uint256"}],"outputs":[],"stateMutability":"nonpayable"},{"type":"function","name":"burnBatch","inputs":[{"name":"tokenIds","type":"uint256[]","internalType":"uint256[]"}],"outputs":[],"stateMutability":"nonpayable"},{"type":"function","name":"callGetSVGZmapAndMetadataTrait","inputs":[{"name":"_traitId","type":"uint256","internalType":"uint256"},{"name":"_traitsSvg","type":"string","internalType":"string"},{"name":"_traitsAttributes","type":"string","internalType":"string"},{"name":"_traitZMaps","type":"bytes","internalType":"bytes"}],"outputs":[{"name":"traitsSvg","type":"string","internalType":"string"},{"name":"traitsAttributes","type":"string","internalType":"string"},{"name":"traitZMaps","type":"bytes","internalType":"bytes"}],"stateMutability":"view"},{"type":"function","name":"callGetSvgAndMetadataTrait","inputs":[{"name":"_traitId","type":"uint256","internalType":"uint256"},{"name":"_traitsSvg","type":"string","internalType":"string"},{"name":"_traitsAttributes","type":"string","internalType":"string"}],"outputs":[{"name":"traitsSvg","type":"string","internalType":"string"},{"name":"traitsAttributes","type":"string","internalType":"string"}],"stateMutability":"view"},{"type":"function","name":"cancelOwnershipHandover","inputs":[],"outputs":[],"stateMutability":"payable"},{"type":"function","name":"chonksMain","inputs":[],"outputs":[{"name":"","type":"address","internalType":"contract ChonksMain"}],"stateMutability":"view"},{"type":"function","name":"completeOwnershipHandover","inputs":[{"name":"pendingOwner","type":"address","internalType":"address"}],"outputs":[],"stateMutability":"payable"},{"type":"function","name":"createSvgFromPixels","inputs":[{"name":"_pixels","type":"bytes","internalType":"bytes"}],"outputs":[{"name":"svgParts","type":"bytes","internalType":"bytes"}],"stateMutability":"view"},{"type":"function","name":"getApproved","inputs":[{"name":"tokenId","type":"uint256","internalType":"uint256"}],"outputs":[{"name":"","type":"address","internalType":"address"}],"stateMutability":"view"},{"type":"function","name":"getApprovedOperators","inputs":[{"name":"traitId","type":"uint256","internalType":"uint256"}],"outputs":[{"name":"","type":"address[]","internalType":"address[]"}],"stateMutability":"view"},{"type":"function","name":"getCurrentEpoch","inputs":[],"outputs":[{"name":"","type":"uint256","internalType":"uint256"}],"stateMutability":"view"},{"type":"function","name":"getEpoch","inputs":[],"outputs":[{"name":"","type":"uint256","internalType":"uint256"}],"stateMutability":"view"},{"type":"function","name":"getEpochData","inputs":[{"name":"index","type":"uint256","internalType":"uint256"}],"outputs":[{"name":"","type":"tuple","internalType":"struct CommitReveal.Epoch","components":[{"name":"randomness","type":"uint128","internalType":"uint128"},{"name":"revealBlock","type":"uint64","internalType":"uint64"},{"name":"committed","type":"bool","internalType":"bool"},{"name":"revealed","type":"bool","internalType":"bool"}]}],"stateMutability":"view"},{"type":"function","name":"getGhostSvg","inputs":[],"outputs":[{"name":"svg","type":"string","internalType":"string"}],"stateMutability":"view"},{"type":"function","name":"getSVGZmapAndMetadataTrait","inputs":[{"name":"trait","type":"tuple","internalType":"struct ITraitStorage.StoredTrait","components":[{"name":"epoch","type":"uint256","internalType":"uint256"},{"name":"isRevealed","type":"bool","internalType":"bool"},{"name":"seed","type":"uint256","internalType":"uint256"},{"name":"renderMinterContract","type":"address","internalType":"address"},{"name":"traitIndex","type":"uint256","internalType":"uint256"},{"name":"traitType","type":"uint8","internalType":"enum TraitCategory.Name"}]},{"name":"traitId","type":"uint256","internalType":"uint256"}],"outputs":[{"name":"traitSvg","type":"string","internalType":"string"},{"name":"traitZmap","type":"bytes","internalType":"bytes"},{"name":"traitAttributes","type":"string","internalType":"string"}],"stateMutability":"view"},{"type":"function","name":"getStoredTraitForTokenId","inputs":[{"name":"_tokenId","type":"uint256","internalType":"uint256"}],"outputs":[{"name":"","type":"tuple","internalType":"struct ITraitStorage.StoredTrait","components":[{"name":"epoch","type":"uint256","internalType":"uint256"},{"name":"isRevealed","type":"bool","internalType":"bool"},{"name":"seed","type":"uint256","internalType":"uint256"},{"name":"renderMinterContract","type":"address","internalType":"address"},{"name":"traitIndex","type":"uint256","internalType":"uint256"},{"name":"traitType","type":"uint8","internalType":"enum TraitCategory.Name"}]}],"stateMutability":"view"},{"type":"function","name":"getSvgAndMetadata","inputs":[{"name":"storedChonk","type":"tuple","internalType":"struct IChonkStorage.StoredChonk","components":[{"name":"headId","type":"uint256","internalType":"uint256"},{"name":"hairId","type":"uint256","internalType":"uint256"},{"name":"faceId","type":"uint256","internalType":"uint256"},{"name":"accessoryId","type":"uint256","internalType":"uint256"},{"name":"topId","type":"uint256","internalType":"uint256"},{"name":"bottomId","type":"uint256","internalType":"uint256"},{"name":"shoesId","type":"uint256","internalType":"uint256"},{"name":"epoch","type":"uint32","internalType":"uint32"},{"name":"tokenId","type":"uint256","internalType":"uint256"},{"name":"bodyIndex","type":"uint8","internalType":"uint8"},{"name":"backgroundColor","type":"string","internalType":"string"},{"name":"render3D","type":"bool","internalType":"bool"}]}],"outputs":[{"name":"traitsSvg","type":"string","internalType":"string"},{"name":"traitsAttributes","type":"string","internalType":"string"}],"stateMutability":"view"},{"type":"function","name":"getSvgAndMetadataTrait","inputs":[{"name":"trait","type":"tuple","internalType":"struct ITraitStorage.StoredTrait","components":[{"name":"epoch","type":"uint256","internalType":"uint256"},{"name":"isRevealed","type":"bool","internalType":"bool"},{"name":"seed","type":"uint256","internalType":"uint256"},{"name":"renderMinterContract","type":"address","internalType":"address"},{"name":"traitIndex","type":"uint256","internalType":"uint256"},{"name":"traitType","type":"uint8","internalType":"enum TraitCategory.Name"}]},{"name":"traitId","type":"uint256","internalType":"uint256"}],"outputs":[{"name":"traitSvg","type":"string","internalType":"string"},{"name":"traitAttributes","type":"string","internalType":"string"}],"stateMutability":"view"},{"type":"function","name":"getSvgForTokenId","inputs":[{"name":"_tokenId","type":"uint256","internalType":"uint256"}],"outputs":[{"name":"traitSvg","type":"string","internalType":"string"}],"stateMutability":"view"},{"type":"function","name":"getSvgZmapsAndMetadata","inputs":[{"name":"storedChonk","type":"tuple","internalType":"struct IChonkStorage.StoredChonk","components":[{"name":"headId","type":"uint256","internalType":"uint256"},{"name":"hairId","type":"uint256","internalType":"uint256"},{"name":"faceId","type":"uint256","internalType":"uint256"},{"name":"accessoryId","type":"uint256","internalType":"uint256"},{"name":"topId","type":"uint256","internalType":"uint256"},{"name":"bottomId","type":"uint256","internalType":"uint256"},{"name":"shoesId","type":"uint256","internalType":"uint256"},{"name":"epoch","type":"uint32","internalType":"uint32"},{"name":"tokenId","type":"uint256","internalType":"uint256"},{"name":"bodyIndex","type":"uint8","internalType":"uint8"},{"name":"backgroundColor","type":"string","internalType":"string"},{"name":"render3D","type":"bool","internalType":"bool"}]}],"outputs":[{"name":"traitsSvg","type":"string","internalType":"string"},{"name":"traitZMaps","type":"bytes","internalType":"bytes"},{"name":"traitsAttributes","type":"string","internalType":"string"}],"stateMutability":"view"},{"type":"function","name":"getTrait","inputs":[{"name":"_tokenId","type":"uint256","internalType":"uint256"}],"outputs":[{"name":"","type":"tuple","internalType":"struct ITraitStorage.StoredTrait","components":[{"name":"epoch","type":"uint256","internalType":"uint256"},{"name":"isRevealed","type":"bool","internalType":"bool"},{"name":"seed","type":"uint256","internalType":"uint256"},{"name":"renderMinterContract","type":"address","internalType":"address"},{"name":"traitIndex","type":"uint256","internalType":"uint256"},{"name":"traitType","type":"uint8","internalType":"enum TraitCategory.Name"}]}],"stateMutability":"view"},{"type":"function","name":"getTraitImageSvg","inputs":[{"name":"index","type":"uint256","internalType":"uint256"}],"outputs":[{"name":"svg","type":"string","internalType":"string"}],"stateMutability":"view"},{"type":"function","name":"getTraitIndexToMetadata","inputs":[{"name":"_traitIndex","type":"uint256","internalType":"uint256"}],"outputs":[{"name":"","type":"tuple","internalType":"struct ITraitStorage.TraitMetadata","components":[{"name":"traitIndex","type":"uint256","internalType":"uint256"},{"name":"traitName","type":"string","internalType":"string"},{"name":"traitType","type":"uint8","internalType":"enum TraitCategory.Name"},{"name":"animations","type":"string","internalType":"string"},{"name":"colorMap","type":"bytes","internalType":"bytes"},{"name":"zMap","type":"bytes","internalType":"bytes"},{"name":"renderMinterContract","type":"address","internalType":"address"},{"name":"creatorAddress","type":"address","internalType":"address"},{"name":"creatorName","type":"string","internalType":"string"},{"name":"release","type":"string","internalType":"string"}]}],"stateMutability":"view"},{"type":"function","name":"getTraitMetadata","inputs":[{"name":"_tokenId","type":"uint256","internalType":"uint256"}],"outputs":[{"name":"","type":"tuple","internalType":"struct ITraitStorage.TraitMetadata","components":[{"name":"traitIndex","type":"uint256","internalType":"uint256"},{"name":"traitName","type":"string","internalType":"string"},{"name":"traitType","type":"uint8","internalType":"enum TraitCategory.Name"},{"name":"animations","type":"string","internalType":"string"},{"name":"colorMap","type":"bytes","internalType":"bytes"},{"name":"zMap","type":"bytes","internalType":"bytes"},{"name":"renderMinterContract","type":"address","internalType":"address"},{"name":"creatorAddress","type":"address","internalType":"address"},{"name":"creatorName","type":"string","internalType":"string"},{"name":"release","type":"string","internalType":"string"}]}],"stateMutability":"view"},{"type":"function","name":"getTraitType","inputs":[{"name":"_tokenId","type":"uint256","internalType":"uint256"}],"outputs":[{"name":"","type":"uint8","internalType":"enum TraitCategory.Name"}],"stateMutability":"view"},{"type":"function","name":"getZMapForTokenId","inputs":[{"name":"_tokenId","type":"uint256","internalType":"uint256"}],"outputs":[{"name":"","type":"string","internalType":"string"}],"stateMutability":"view"},{"type":"function","name":"invalidateAllOperatorApprovals","inputs":[{"name":"_tokenId","type":"uint256","internalType":"uint256"}],"outputs":[],"stateMutability":"nonpayable"},{"type":"function","name":"isApprovedForAll","inputs":[{"name":"owner","type":"address","internalType":"address"},{"name":"operator","type":"address","internalType":"address"}],"outputs":[{"name":"","type":"bool","internalType":"bool"}],"stateMutability":"view"},{"type":"function","name":"isMinter","inputs":[{"name":"","type":"address","internalType":"address"}],"outputs":[{"name":"","type":"bool","internalType":"bool"}],"stateMutability":"view"},{"type":"function","name":"marketplace","inputs":[],"outputs":[{"name":"","type":"address","internalType":"contract ChonksMarket"}],"stateMutability":"view"},{"type":"function","name":"mintStartTime","inputs":[],"outputs":[{"name":"","type":"uint256","internalType":"uint256"}],"stateMutability":"view"},{"type":"function","name":"name","inputs":[],"outputs":[{"name":"","type":"string","internalType":"string"}],"stateMutability":"view"},{"type":"function","name":"nextTokenId","inputs":[],"outputs":[{"name":"","type":"uint256","internalType":"uint256"}],"stateMutability":"view"},{"type":"function","name":"owner","inputs":[],"outputs":[{"name":"result","type":"address","internalType":"address"}],"stateMutability":"view"},{"type":"function","name":"ownerOf","inputs":[{"name":"tokenId","type":"uint256","internalType":"uint256"}],"outputs":[{"name":"","type":"address","internalType":"address"}],"stateMutability":"view"},{"type":"function","name":"ownershipHandoverExpiresAt","inputs":[{"name":"pendingOwner","type":"address","internalType":"address"}],"outputs":[{"name":"result","type":"uint256","internalType":"uint256"}],"stateMutability":"view"},{"type":"function","name":"removeApprovedInvalidator","inputs":[{"name":"_invalidator","type":"address","internalType":"address"}],"outputs":[],"stateMutability":"nonpayable"},{"type":"function","name":"removeMinter","inputs":[{"name":"_minter","type":"address","internalType":"address"}],"outputs":[],"stateMutability":"nonpayable"},{"type":"function","name":"renderAsDataUri","inputs":[{"name":"_tokenId","type":"uint256","internalType":"uint256"}],"outputs":[{"name":"","type":"string","internalType":"string"}],"stateMutability":"view"},{"type":"function","name":"renounceOwnership","inputs":[],"outputs":[],"stateMutability":"payable"},{"type":"function","name":"requestOwnershipHandover","inputs":[],"outputs":[],"stateMutability":"payable"},{"type":"function","name":"resolveEpochIfNecessary","inputs":[],"outputs":[],"stateMutability":"nonpayable"},{"type":"function","name":"safeMint","inputs":[{"name":"_to","type":"address","internalType":"address"}],"outputs":[{"name":"","type":"uint256","internalType":"uint256"}],"stateMutability":"nonpayable"},{"type":"function","name":"safeTransferFrom","inputs":[{"name":"from","type":"address","internalType":"address"},{"name":"to","type":"address","internalType":"address"},{"name":"tokenId","type":"uint256","internalType":"uint256"}],"outputs":[],"stateMutability":"nonpayable"},{"type":"function","name":"safeTransferFrom","inputs":[{"name":"from","type":"address","internalType":"address"},{"name":"to","type":"address","internalType":"address"},{"name":"tokenId","type":"uint256","internalType":"uint256"},{"name":"data","type":"bytes","internalType":"bytes"}],"outputs":[],"stateMutability":"nonpayable"},{"type":"function","name":"setApprovalForAll","inputs":[{"name":"_operator","type":"address","internalType":"address"},{"name":"_approved","type":"bool","internalType":"bool"}],"outputs":[],"stateMutability":"nonpayable"},{"type":"function","name":"setChonksMain","inputs":[{"name":"_ChonksMain","type":"address","internalType":"address"}],"outputs":[],"stateMutability":"nonpayable"},{"type":"function","name":"setDescriptionParts","inputs":[{"name":"_descriptionParts","type":"string[2]","internalType":"string[2]"}],"outputs":[],"stateMutability":"nonpayable"},{"type":"function","name":"setGhostMaps","inputs":[{"name":"_colorMap","type":"bytes","internalType":"bytes"},{"name":"_zMap","type":"bytes","internalType":"bytes"}],"outputs":[],"stateMutability":"nonpayable"},{"type":"function","name":"setMarketplace","inputs":[{"name":"_marketplace","type":"address","internalType":"address"}],"outputs":[],"stateMutability":"nonpayable"},{"type":"function","name":"setMintStartTime","inputs":[{"name":"_mintStartTime","type":"uint256","internalType":"uint256"}],"outputs":[],"stateMutability":"nonpayable"},{"type":"function","name":"setTraitForTokenId","inputs":[{"name":"_tokenId","type":"uint256","internalType":"uint256"},{"name":"_trait","type":"tuple","internalType":"struct ITraitStorage.StoredTrait","components":[{"name":"epoch","type":"uint256","internalType":"uint256"},{"name":"isRevealed","type":"bool","internalType":"bool"},{"name":"seed","type":"uint256","internalType":"uint256"},{"name":"renderMinterContract","type":"address","internalType":"address"},{"name":"traitIndex","type":"uint256","internalType":"uint256"},{"name":"traitType","type":"uint8","internalType":"enum TraitCategory.Name"}]}],"outputs":[],"stateMutability":"nonpayable"},{"type":"function","name":"setTraitIndexToMetadata","inputs":[{"name":"_traitIndex","type":"uint256","internalType":"uint256"},{"name":"_metadata","type":"tuple","internalType":"struct ITraitStorage.TraitMetadata","components":[{"name":"traitIndex","type":"uint256","internalType":"uint256"},{"name":"traitName","type":"string","internalType":"string"},{"name":"traitType","type":"uint8","internalType":"enum TraitCategory.Name"},{"name":"animations","type":"string","internalType":"string"},{"name":"colorMap","type":"bytes","internalType":"bytes"},{"name":"zMap","type":"bytes","internalType":"bytes"},{"name":"renderMinterContract","type":"address","internalType":"address"},{"name":"creatorAddress","type":"address","internalType":"address"},{"name":"creatorName","type":"string","internalType":"string"},{"name":"release","type":"string","internalType":"string"}]}],"outputs":[],"stateMutability":"nonpayable"},{"type":"function","name":"setTraitRenderer","inputs":[{"name":"_traitRenderer","type":"address","internalType":"address"}],"outputs":[],"stateMutability":"nonpayable"},{"type":"function","name":"supportsInterface","inputs":[{"name":"interfaceId","type":"bytes4","internalType":"bytes4"}],"outputs":[{"name":"","type":"bool","internalType":"bool"}],"stateMutability":"view"},{"type":"function","name":"symbol","inputs":[],"outputs":[{"name":"","type":"string","internalType":"string"}],"stateMutability":"view"},{"type":"function","name":"tokenByIndex","inputs":[{"name":"index","type":"uint256","internalType":"uint256"}],"outputs":[{"name":"","type":"uint256","internalType":"uint256"}],"stateMutability":"view"},{"type":"function","name":"tokenOfOwnerByIndex","inputs":[{"name":"owner","type":"address","internalType":"address"},{"name":"index","type":"uint256","internalType":"uint256"}],"outputs":[{"name":"","type":"uint256","internalType":"uint256"}],"stateMutability":"view"},{"type":"function","name":"tokenURI","inputs":[{"name":"_tokenId","type":"uint256","internalType":"uint256"}],"outputs":[{"name":"","type":"string","internalType":"string"}],"stateMutability":"view"},{"type":"function","name":"totalSupply","inputs":[],"outputs":[{"name":"","type":"uint256","internalType":"uint256"}],"stateMutability":"view"},{"type":"function","name":"traitIdToApprovedOperators","inputs":[{"name":"traitId","type":"uint256","internalType":"uint256"},{"name":"","type":"uint256","internalType":"uint256"}],"outputs":[{"name":"operators","type":"address","internalType":"address"}],"stateMutability":"view"},{"type":"function","name":"traitIndexToMetadata","inputs":[{"name":"","type":"uint256","internalType":"uint256"}],"outputs":[{"name":"traitIndex","type":"uint256","internalType":"uint256"},{"name":"traitName","type":"string","internalType":"string"},{"name":"traitType","type":"uint8","internalType":"enum TraitCategory.Name"},{"name":"animations","type":"string","internalType":"string"},{"name":"colorMap","type":"bytes","internalType":"bytes"},{"name":"zMap","type":"bytes","internalType":"bytes"},{"name":"renderMinterContract","type":"address","internalType":"address"},{"name":"creatorAddress","type":"address","internalType":"address"},{"name":"creatorName","type":"string","internalType":"string"},{"name":"release","type":"string","internalType":"string"}],"stateMutability":"view"},{"type":"function","name":"traitRenderer","inputs":[],"outputs":[{"name":"","type":"address","internalType":"contract TraitRenderer"}],"stateMutability":"view"},{"type":"function","name":"traitTokens","inputs":[],"outputs":[{"name":"epoch","type":"uint256","internalType":"uint256"}],"stateMutability":"view"},{"type":"function","name":"transferFrom","inputs":[{"name":"from","type":"address","internalType":"address"},{"name":"to","type":"address","internalType":"address"},{"name":"tokenId","type":"uint256","internalType":"uint256"}],"outputs":[],"stateMutability":"nonpayable"},{"type":"function","name":"transferOwnership","inputs":[{"name":"newOwner","type":"address","internalType":"address"}],"outputs":[],"stateMutability":"payable"},{"type":"function","name":"walletOfOwner","inputs":[{"name":"_owner","type":"address","internalType":"address"}],"outputs":[{"name":"","type":"uint256[]","internalType":"uint256[]"}],"stateMutability":"view"},{"type":"event","name":"AllOperatorApprovalsInvalidated","inputs":[{"name":"tokenId","type":"uint256","indexed":true,"internalType":"uint256"}],"anonymous":false},{"type":"event","name":"Approval","inputs":[{"name":"owner","type":"address","indexed":true,"internalType":"address"},{"name":"approved","type":"address","indexed":true,"internalType":"address"},{"name":"tokenId","type":"uint256","indexed":true,"internalType":"uint256"}],"anonymous":false},{"type":"event","name":"ApprovalForAll","inputs":[{"name":"owner","type":"address","indexed":true,"internalType":"address"},{"name":"operator","type":"address","indexed":true,"internalType":"address"},{"name":"approved","type":"bool","indexed":false,"internalType":"bool"}],"anonymous":false},{"type":"event","name":"BatchMetadataUpdate","inputs":[{"name":"_fromTokenId","type":"uint256","indexed":false,"internalType":"uint256"},{"name":"_toTokenId","type":"uint256","indexed":false,"internalType":"uint256"}],"anonymous":false},{"type":"event","name":"MetadataUpdate","inputs":[{"name":"_tokenId","type":"uint256","indexed":false,"internalType":"uint256"}],"anonymous":false},{"type":"event","name":"NewEpoch","inputs":[{"name":"epoch","type":"uint256","indexed":true,"internalType":"uint256"},{"name":"revealBlock","type":"uint64","indexed":true,"internalType":"uint64"}],"anonymous":false},{"type":"event","name":"OwnershipHandoverCanceled","inputs":[{"name":"pendingOwner","type":"address","indexed":true,"internalType":"address"}],"anonymous":false},{"type":"event","name":"OwnershipHandoverRequested","inputs":[{"name":"pendingOwner","type":"address","indexed":true,"internalType":"address"}],"anonymous":false},{"type":"event","name":"OwnershipTransferred","inputs":[{"name":"oldOwner","type":"address","indexed":true,"internalType":"address"},{"name":"newOwner","type":"address","indexed":true,"internalType":"address"}],"anonymous":false},{"type":"event","name":"Transfer","inputs":[{"name":"from","type":"address","indexed":true,"internalType":"address"},{"name":"to","type":"address","indexed":true,"internalType":"address"},{"name":"tokenId","type":"uint256","indexed":true,"internalType":"uint256"}],"anonymous":false},{"type":"error","name":"AddressCantBurn","inputs":[]},{"type":"error","name":"AlreadyInitialized","inputs":[]},{"type":"error","name":"CantTransfer","inputs":[]},{"type":"error","name":"CantTransferDuringMint","inputs":[]},{"type":"error","name":"NewOwnerIsZeroAddress","inputs":[]},{"type":"error","name":"NoHandoverRequest","inputs":[]},{"type":"error","name":"NotATBA","inputs":[]},{"type":"error","name":"NotAValidMinterContract","inputs":[]},{"type":"error","name":"NotYourTrait","inputs":[]},{"type":"error","name":"SetChonksMainAddress","inputs":[]},{"type":"error","name":"SetMarketplaceAddress","inputs":[]},{"type":"error","name":"TraitNotFound","inputs":[{"name":"_tokenId","type":"uint256","internalType":"uint256"}]},{"type":"error","name":"TraitTokenDoesntExist","inputs":[]},{"type":"error","name":"Unauthorized","inputs":[]}],"bytecode":{"object":"0x60806040523480156200001157600080fd5b50604051620096323803806200963283398101604081905262000034916200015c565b6040518060400160405280600c81526020016b43686f6e6b2054726169747360a01b8152506040518060400160405280600c81526020016b43484f4e4b2054524149545360a01b81525081600090816200008f91906200022e565b5060016200009e82826200022e565b50506001600a5550620000b13362000112565b6015805460ff1916821515179055604051620000cd906200014e565b604051809103906000f080158015620000ea573d6000803e3d6000fd5b50600e80546001600160a01b0319166001600160a01b039290921691909117905550620002fa565b6001600160a01b0316638b78c6d8198190558060007f8be0079c531659141344cd1fd0a4f28419497f9722a3daafe3b4186f6b6457e08180a350565b6130ce806200656483390190565b6000602082840312156200016f57600080fd5b815180151581146200018057600080fd5b9392505050565b634e487b7160e01b600052604160045260246000fd5b600181811c90821680620001b257607f821691505b602082108103620001d357634e487b7160e01b600052602260045260246000fd5b50919050565b601f82111562000229576000816000526020600020601f850160051c81016020861015620002045750805b601f850160051c820191505b81811015620002255782815560010162000210565b5050505b505050565b81516001600160401b038111156200024a576200024a62000187565b62000262816200025b84546200019d565b84620001d9565b602080601f8311600181146200029a5760008415620002815750858301515b600019600386901b1c1916600185901b17855562000225565b600085815260208120601f198616915b82811015620002cb57888601518255948401946001909101908401620002aa565b5085821015620002ea5787850151600019600388901b60f8161c191681555b5050505050600190811b01905550565b61625a806200030a6000396000f3fe60806040526004361061041a5760003560e01c806390f638421161021e578063c87b56dd11610123578063e8a1268d116100ab578063f12719421161007a578063f127194214610d72578063f2fde38b14610d92578063f677c01314610da5578063f901667f14610dc5578063fee81cf414610de557600080fd5b8063e8a1268d14610cc9578063e985e9c514610cf6578063ea13954414610d3f578063f04e283e14610d5f57600080fd5b8063df2c2b88116100f2578063df2c2b8814610c32578063e08714a614610c52578063e14d026f14610c72578063e1defed914610c89578063e4623c1b14610ca957600080fd5b8063c87b56dd14610ba5578063cde2180a14610bc5578063d1bfc2af14610be5578063d5b3621b14610c1257600080fd5b8063abc8c7af116101a6578063b97dd9e211610175578063b97dd9e214610800578063ba7270f314610b16578063bb12d21d14610b36578063c779153114610b65578063c876371b14610b8557600080fd5b8063abc8c7af14610a86578063acb586df14610aa6578063b3148f7514610ac6578063b88d4fde14610af657600080fd5b8063a1d62680116101ed578063a1d62680146109d6578063a22cb465146109f6578063a5e2912a14610a16578063a8498c7414610a36578063aa271e1a14610a5657600080fd5b806390f638421461096b578063931e2e491461098b57806395d89b41146109a1578063983b2d56146109b657600080fd5b806340d097c311610324578063713dbc27116102ac578063757991a81161027b578063757991a814610800578063817a29a414610815578063859e7d321461084b5780638d37c537146109325780638da5cb5b1461095257600080fd5b8063713dbc27146107a2578063715018a6146107c257806373ad6c2d146107ca57806375794a3c146107ea57600080fd5b80634f6ccce7116102f35780634f6ccce71461072557806354d1f13d146107455780635c1ef2561461074d5780636352211e1461076257806370a082311461078257600080fd5b806340d097c31461069857806342842e0e146106b857806342966c68146106d8578063438b6300146106f857600080fd5b806321b12c23116103a757806326f2052a1161037657806326f2052a146105ea5780632f745c591461060a5780633092afd51461062a57806333a703281461064a57806336d34ab91461067857600080fd5b806321b12c231461058d578063239ffa68146105ad57806323b872dd146105c257806325692962146105e257600080fd5b8063095ea7b3116103ee578063095ea7b3146104df57806311f3910d14610501578063120def241461052157806318160ddd14610541578063208c25a31461056057600080fd5b8062db63481461041f57806301ffc9a71461045557806306fdde0314610485578063081812fc146104a7575b600080fd5b34801561042b57600080fd5b5061043f61043a366004614bdb565b610e18565b60405161044c9190614bf4565b60405180910390f35b34801561046157600080fd5b50610475610470366004614c57565b610e84565b604051901515815260200161044c565b34801561049157600080fd5b5061049a610e95565b60405161044c9190614ccb565b3480156104b357600080fd5b506104c76104c2366004614bdb565b610f27565b6040516001600160a01b03909116815260200161044c565b3480156104eb57600080fd5b506104ff6104fa366004614d03565b610f4e565b005b34801561050d57600080fd5b506104c761051c366004614d2f565b611179565b34801561052d57600080fd5b506104ff61053c366004614d51565b6111b1565b34801561054d57600080fd5b506008545b60405190815260200161044c565b34801561056c57600080fd5b5061058061057b366004614bdb565b6111db565b60405161044c9190614dee565b34801561059957600080fd5b5061049a6105a8366004614f4f565b6112a3565b3480156105b957600080fd5b506104ff611319565b3480156105ce57600080fd5b506104ff6105dd366004614f83565b6114f5565b6104ff611534565b3480156105f657600080fd5b506104ff610605366004614fc4565b611583565b34801561061657600080fd5b50610552610625366004614d03565b611598565b34801561063657600080fd5b506104ff610645366004614d51565b61162e565b34801561065657600080fd5b5061066a610665366004615102565b611657565b60405161044c92919061512d565b34801561068457600080fd5b506104ff610693366004615152565b6116f2565b3480156106a457600080fd5b506105526106b3366004614d51565b6117bc565b3480156106c457600080fd5b506104ff6106d3366004614f83565b61185d565b3480156106e457600080fd5b506104ff6106f3366004614bdb565b611878565b34801561070457600080fd5b50610718610713366004614d51565b6118b1565b60405161044c919061517f565b34801561073157600080fd5b50610552610740366004614bdb565b611948565b6104ff6119db565b34801561075957600080fd5b5061049a611a17565b34801561076e57600080fd5b506104c761077d366004614bdb565b611a8e565b34801561078e57600080fd5b5061055261079d366004614d51565b611aee565b3480156107ae57600080fd5b506104ff6107bd366004614d51565b611b74565b6104ff611b9e565b3480156107d657600080fd5b506104ff6107e5366004614d51565b611bb2565b3480156107f657600080fd5b5061055260165481565b34801561080c57600080fd5b50600c54610552565b34801561082157600080fd5b50610835610830366004614bdb565b611bdc565b60405161044c9a999897969594939291906151b7565b34801561085757600080fd5b506108e9610866366004614bdb565b6040805160808082018352600080835260208084018290528385018290526060938401829052948152600d855283902083519182018452546001600160801b03811682526001600160401b03600160801b8204169482019490945260ff600160c01b85048116151593820193909352600160c81b90930490911615159082015290565b60405161044c919081516001600160801b031681526020808301516001600160401b03169082015260408083015115159082015260609182015115159181019190915260800190565b34801561093e57600080fd5b506104ff61094d36600461526c565b611f74565b34801561095e57600080fd5b50638b78c6d819546104c7565b34801561097757600080fd5b506104ff610986366004614bdb565b612073565b34801561099757600080fd5b5061055260185481565b3480156109ad57600080fd5b5061049a612215565b3480156109c257600080fd5b506104ff6109d1366004614d51565b612224565b3480156109e257600080fd5b5061049a6109f1366004614bdb565b612250565b348015610a0257600080fd5b506104ff610a113660046153da565b612346565b348015610a2257600080fd5b5061049a610a31366004614bdb565b612583565b348015610a4257600080fd5b5061049a610a51366004614bdb565b6125c5565b348015610a6257600080fd5b50610475610a71366004614d51565b60136020526000908152604090205460ff1681565b348015610a9257600080fd5b506012546104c7906001600160a01b031681565b348015610ab257600080fd5b50610580610ac1366004614bdb565b61267d565b348015610ad257600080fd5b50610475610ae1366004614d51565b60146020526000908152604090205460ff1681565b348015610b0257600080fd5b506104ff610b11366004615413565b61281c565b348015610b2257600080fd5b506011546104c7906001600160a01b031681565b348015610b4257600080fd5b50610b56610b513660046154a3565b612854565b60405161044c9392919061559c565b348015610b7157600080fd5b5061049a610b80366004614bdb565b6128e3565b348015610b9157600080fd5b50600e546104c7906001600160a01b031681565b348015610bb157600080fd5b5061049a610bc0366004614bdb565b612939565b348015610bd157600080fd5b506104ff610be0366004614d51565b61297a565b348015610bf157600080fd5b50610c05610c00366004614bdb565b6129a3565b60405161044c91906155df565b348015610c1e57600080fd5b506104ff610c2d366004614bdb565b612db0565b348015610c3e57600080fd5b5061066a610c4d3660046154a3565b612dbd565b348015610c5e57600080fd5b5061066a610c6d3660046156e8565b612e48565b348015610c7e57600080fd5b50600c546105529081565b348015610c9557600080fd5b506104ff610ca4366004615754565b612ef5565b348015610cb557600080fd5b506104ff610cc43660046157b7565b612f65565b348015610cd557600080fd5b50610ce9610ce4366004614bdb565b612fcb565b60405161044c919061585c565b348015610d0257600080fd5b50610475610d1136600461586a565b6001600160a01b03918216600090815260056020908152604080832093909416825291909152205460ff1690565b348015610d4b57600080fd5b50610c05610d5a366004614bdb565b6133d8565b6104ff610d6d366004614d51565b6137d3565b348015610d7e57600080fd5b50610b56610d8d366004615898565b613810565b6104ff610da0366004614d51565b6138c6565b348015610db157600080fd5b506104ff610dc0366004614d51565b6138ed565b348015610dd157600080fd5b50610b56610de0366004615102565b613919565b348015610df157600080fd5b50610552610e00366004614d51565b63389a75e1600c908152600091909152602090205490565b600081815260106020908152604091829020805483518184028101840190945280845260609392830182828015610e7857602002820191906000526020600020905b81546001600160a01b03168152600190910190602001808311610e5a575b50505050509050919050565b6000610e8f826139b8565b92915050565b606060008054610ea49061591d565b80601f0160208091040260200160405190810160405280929190818152602001828054610ed09061591d565b8015610f1d5780601f10610ef257610100808354040283529160200191610f1d565b820191906000526020600020905b815481529060010190602001808311610f0057829003601f168201915b5050505050905090565b6000610f32826139dd565b506000908152600460205260409020546001600160a01b031690565b6000818152600260205260409020546001600160a01b0316610f8357604051632df0e24560e21b815260040160405180910390fd5b33610f8d82611a8e565b6001600160a01b031614610fb457604051633e79b9f360e01b815260040160405180910390fd5b6001600160a01b0382166110d5576000818152601060205260408120905b81548110156110ce57836001600160a01b0316828281548110610ff757610ff7615951565b6000918252602090912001546001600160a01b0316036110c657815482906110219060019061597d565b8154811061103157611031615951565b9060005260206000200160009054906101000a90046001600160a01b031682828154811061106157611061615951565b9060005260206000200160006101000a8154816001600160a01b0302191690836001600160a01b031602179055508180548061109f5761109f615990565b600082815260209020810160001990810180546001600160a01b03191690550190556110ce565b600101610fd2565b505061116b565b600081815260106020526040812090805b825481101561113657846001600160a01b031683828154811061110b5761110b615951565b6000918252602090912001546001600160a01b03160361112e5760019150611136565b6001016110e6565b50806111685781546001810183556000838152602090200180546001600160a01b0319166001600160a01b0386161790555b50505b6111758282613a3c565b5050565b6010602052816000526040600020818154811061119557600080fd5b6000918252602090912001546001600160a01b03169150829050565b6111b9613b4c565b600e80546001600160a01b0319166001600160a01b0392909216919091179055565b6112116040805160c08101825260008082526020820181905291810182905260608101829052608081018290529060a082015290565b6000828152600b6020908152604091829020825160c08101845281548152600182015460ff90811615159382019390935260028201549381019390935260038101546001600160a01b03166060840152600481015460808401526005810154909160a084019116600781111561128957611289614d6e565b600781111561129a5761129a614d6e565b90525092915050565b600e546040516321b12c2360e01b81526060916001600160a01b0316906321b12c23906112d4908590600401614ccb565b600060405180830381865afa1580156112f1573d6000803e3d6000fd5b505050506040513d6000823e601f3d908101601f19168201604052610e8f91908101906159eb565b600c546000908152600d602052604090208054600160c01b900460ff16158061137157508054600160c81b900460ff16158015611371575061135d6101004361597d565b8154600160801b90046001600160401b0316105b156113bc57611381436032615a1f565b815460ff60c01b196001600160401b0392909216600160801b029190911668ffffffffffffffffff60801b1990911617600160c01b17815550565b8054600160801b90046001600160401b03164311156114f257805460408051600160801b9092046001600160401b031640602083015244908201526001600160801b03906060016040516020818303038152906040528051906020012060001c6114269190615a32565b8154600160c81b6001600160801b039290921679ff000000000000000000ffffffffffffffffffffffffffffffff199091161717808255600c54604051600160801b9092046001600160401b0316917f78611aecfda8d341359c248df527c95aef93d446c92bb928b2a81b7abcb1d8d990600090a3604080516000815260001960208201527f6bd5c950a8d8df17f772f5af37cb3655737899cbf903264b9795592da439661c910160405180910390a1600c80546000906114e690615a54565b909155506114f2611319565b50565b6114ff3382613b67565b6115245760405162461bcd60e51b815260040161151b90615a6d565b60405180910390fd5b61152f838383613be5565b505050565b60006202a3006001600160401b03164201905063389a75e1600c5233600052806020600c2055337fdbf36a107da19e49527a7176a1babf963b4b0ff8cde35ee35d6cd8f1f9ac7e1d600080a250565b61158b613b4c565b6111756019826002614aa3565b60006115a383611aee565b82106116055760405162461bcd60e51b815260206004820152602b60248201527f455243373231456e756d657261626c653a206f776e657220696e646578206f7560448201526a74206f6620626f756e647360a81b606482015260840161151b565b506001600160a01b03919091166000908152600660209081526040808320938352929052205490565b611636613b4c565b6001600160a01b03166000908152601360205260409020805460ff19169055565b600e5460808301516000908152600f60205260409081902090516317de5cbf60e11b815260609283926001600160a01b0390911691632fbcb97e916116a29188918891600401615c16565b600060405180830381865afa1580156116bf573d6000803e3d6000fd5b505050506040513d6000823e601f3d908101601f191682016040526116e79190810190615c3d565b915091509250929050565b3360008181526013602052604090205460ff166117225760405163090a0b6960e21b815260040160405180910390fd5b6000838152600b602090815260409182902084518155908401516001808301805492151560ff1993841617905592850151600283015560608501516003830180546001600160a01b039092166001600160a01b03199092169190911790556080850151600483015560a08501516005830180548795929391929116908360078111156117b0576117b0614d6e565b02179055505050505050565b3360008181526013602052604081205490919060ff166117ef5760405163090a0b6960e21b815260040160405180910390fd5b6117f7611319565b600060166000815461180890615a54565b918290555090506118198482613d92565b604080516000815260001960208201527f6bd5c950a8d8df17f772f5af37cb3655737899cbf903264b9795592da439661c910160405180910390a191505b50919050565b61152f8383836040518060200160405280600081525061281c565b3360009081526013602052604090205460ff166118a857604051631758e6d560e11b815260040160405180910390fd5b6114f281613dac565b606060006118be83611aee565b90506000816001600160401b038111156118da576118da614dfc565b604051908082528060200260200182016040528015611903578160200160208202803683370190505b50905060005b828110156119405761191b8582611598565b82828151811061192d5761192d615951565b6020908102919091010152600101611909565b509392505050565b600061195360085490565b82106119b65760405162461bcd60e51b815260206004820152602c60248201527f455243373231456e756d657261626c653a20676c6f62616c20696e646578206f60448201526b7574206f6620626f756e647360a01b606482015260840161151b565b600882815481106119c9576119c9615951565b90600052602060002001549050919050565b63389a75e1600c523360005260006020600c2055337ffa7b8eab7da67f412cc9575ed43464468f9bfbae89d1675917346ca6d8fe3c92600080a2565b600e5460408051632e0f792b60e11b815290516060926001600160a01b031691635c1ef2569160048083019260009291908290030181865afa158015611a61573d6000803e3d6000fd5b505050506040513d6000823e601f3d908101601f19168201604052611a8991908101906159eb565b905090565b6000818152600260205260408120546001600160a01b031680610e8f5760405162461bcd60e51b8152602060048201526018602482015277115490cdcc8c4e881a5b9d985b1a59081d1bdad95b88125160421b604482015260640161151b565b60006001600160a01b038216611b585760405162461bcd60e51b815260206004820152602960248201527f4552433732313a2061646472657373207a65726f206973206e6f7420612076616044820152683634b21037bbb732b960b91b606482015260840161151b565b506001600160a01b031660009081526003602052604090205490565b611b7c613b4c565b601180546001600160a01b0319166001600160a01b0392909216919091179055565b611ba6613b4c565b611bb06000613e5b565b565b611bba613b4c565b601280546001600160a01b0319166001600160a01b0392909216919091179055565b600f6020526000908152604090208054600182018054919291611bfe9061591d565b80601f0160208091040260200160405190810160405280929190818152602001828054611c2a9061591d565b8015611c775780601f10611c4c57610100808354040283529160200191611c77565b820191906000526020600020905b815481529060010190602001808311611c5a57829003601f168201915b5050506002840154600385018054949560ff909216949193509150611c9b9061591d565b80601f0160208091040260200160405190810160405280929190818152602001828054611cc79061591d565b8015611d145780601f10611ce957610100808354040283529160200191611d14565b820191906000526020600020905b815481529060010190602001808311611cf757829003601f168201915b505050505090806004018054611d299061591d565b80601f0160208091040260200160405190810160405280929190818152602001828054611d559061591d565b8015611da25780601f10611d7757610100808354040283529160200191611da2565b820191906000526020600020905b815481529060010190602001808311611d8557829003601f168201915b505050505090806005018054611db79061591d565b80601f0160208091040260200160405190810160405280929190818152602001828054611de39061591d565b8015611e305780601f10611e0557610100808354040283529160200191611e30565b820191906000526020600020905b815481529060010190602001808311611e1357829003601f168201915b5050506006840154600785015460088601805495966001600160a01b0393841696929093169450919250611e639061591d565b80601f0160208091040260200160405190810160405280929190818152602001828054611e8f9061591d565b8015611edc5780601f10611eb157610100808354040283529160200191611edc565b820191906000526020600020905b815481529060010190602001808311611ebf57829003601f168201915b505050505090806009018054611ef19061591d565b80601f0160208091040260200160405190810160405280929190818152602001828054611f1d9061591d565b8015611f6a5780601f10611f3f57610100808354040283529160200191611f6a565b820191906000526020600020905b815481529060010190602001808311611f4d57829003601f168201915b505050505090508a565b6000828152600f6020908152604090912082518155908201518291906001820190611f9f9082615cde565b50604082015160028201805460ff19166001836007811115611fc357611fc3614d6e565b021790555060608201516003820190611fdc9082615cde565b5060808201516004820190611ff19082615cde565b5060a082015160058201906120069082615cde565b5060c08201516006820180546001600160a01b039283166001600160a01b03199182161790915560e084015160078401805491909316911617905561010082015160088201906120569082615cde565b50610120820151600982019061206c9082615cde565b5050505050565b6000818152600260205260409020546001600160a01b03166120a857604051632df0e24560e21b815260040160405180910390fd5b336120b282611a8e565b6001600160a01b0316141580156120d457506011546001600160a01b03163314155b80156120f057503360009081526014602052604090205460ff16155b1561210e57604051633e79b9f360e01b815260040160405180910390fd5b60008181526010602090815260408083208054825181850281018501909352808352919290919083018282801561216e57602002820191906000526020600020905b81546001600160a01b03168152600190910190602001808311612150575b505050505090508051600003612182575050565b61218d600083613e99565b60005b81518110156121ce576121c66121a584611a8e565b8383815181106121b7576121b7615951565b60200260200101516000613f07565b600101612190565b5060008281526010602052604081206121e691614aec565b60405182907fe6727257e6b1474b2ced9b705eafa89027508be445f1a76db669635c92f5242090600090a25050565b606060018054610ea49061591d565b61222c613b4c565b6001600160a01b03166000908152601360205260409020805460ff19166001179055565b6060600061225d8361267d565b905060008160200151612293576040518060400160405280600b81526020016a1e39bb339f1e17b9bb339f60a91b8152506122a0565b6122a08260800151612583565b600e5460808401516000908152600f602052604090209192506001600160a01b031690636150dc0390869085906122d5611a17565b8660196040518763ffffffff1660e01b81526004016122f996959493929190615d9d565b600060405180830381865afa158015612316573d6000803e3d6000fd5b505050506040513d6000823e601f3d908101601f1916820160405261233e91908101906159eb565b949350505050565b336001600160a01b0383160361239a5760405162461bcd60e51b815260206004820152601960248201527822a9219b99189d1030b8383937bb32903a379031b0b63632b960391b604482015260640161151b565b60006123a533611aee565b905060005b818110156125785760006123be3383611598565b9050831561246057600081815260106020526040812090805b825481101561242757876001600160a01b03168382815481106123fc576123fc615951565b6000918252602090912001546001600160a01b03160361241f5760019150612427565b6001016123d7565b50806124595781546001810183556000838152602090200180546001600160a01b0319166001600160a01b0389161790555b505061256f565b6000818152601060205260408120905b815481101561256c57866001600160a01b031682828154811061249557612495615951565b6000918252602090912001546001600160a01b03160361256457815482906124bf9060019061597d565b815481106124cf576124cf615951565b9060005260206000200160009054906101000a90046001600160a01b03168282815481106124ff576124ff615951565b9060005260206000200160006101000a8154816001600160a01b0302191690836001600160a01b031602179055508180548061253d5761253d615990565b600082815260209020810160001990810180546001600160a01b031916905501905561256c565b600101612470565b50505b506001016123aa565b5061152f8383613fd1565b600e546000828152600f6020526040908190209051631349027b60e31b81526060926001600160a01b031691639a4813d8916112d49160049081019101615e40565b606060006125d28361267d565b60808101516000908152600f602052604090206005018054919250906125f79061591d565b80601f01602080910402602001604051908101604052809291908181526020018280546126239061591d565b80156126705780601f1061264557610100808354040283529160200191612670565b820191906000526020600020905b81548152906001019060200180831161265357829003601f168201915b5050505050915050919050565b6126b36040805160c08101825260008082526020820181905291810182905260608101829052608081018290529060a082015290565b6000828152600b60209081526040808320815160c08101835281548152600182015460ff90811615159482019490945260028201549281019290925260038101546001600160a01b031660608301526004810154608083015260058101549192909160a084019116600781111561272c5761272c614d6e565b600781111561273d5761273d614d6e565b90525080516000908152600d602052604090205460608201519192506001600160801b0316906001600160a01b03811615801561277c57506040830151155b1561279d5760405163082d451d60e01b81526004810186905260240161151b565b60155460405163687d69df60e11b81526001600160a01b0383169163d0fad3be916127d29160ff169087908790600401615e53565b60c060405180830381865afa1580156127ef573d6000803e3d6000fd5b505050506040513d601f19601f820116820180604052508101906128139190615e81565b95945050505050565b6128263383613b67565b6128425760405162461bcd60e51b815260040161151b90615a6d565b61284e84848484613fdc565b50505050565b600e54604051635ab38bf760e01b8152606091829182916001600160a01b031690635ab38bf790612891908790309063f127194290600401615fa4565b600060405180830381865afa1580156128ae573d6000803e3d6000fd5b505050506040513d6000823e601f3d908101601f191682016040526128d69190810190615fd6565b9250925092509193909250565b606060006128f08361267d565b9050806020015115612910576129098160800151612583565b9150611857565b505060408051808201909152600b81526a1e39bb339f1e17b9bb339f60a91b6020820152919050565b6000818152600260205260409020546060906001600160a01b031661297157604051632df0e24560e21b815260040160405180910390fd5b610e8f82612250565b612982613b4c565b6001600160a01b03166000908152601460205260409020805460ff19169055565b6129ab614b0a565b60006129b68361267d565b9050600f60008260800151815260200190815260200160002060405180610140016040529081600082015481526020016001820180546129f59061591d565b80601f0160208091040260200160405190810160405280929190818152602001828054612a219061591d565b8015612a6e5780601f10612a4357610100808354040283529160200191612a6e565b820191906000526020600020905b815481529060010190602001808311612a5157829003601f168201915b5050509183525050600282015460209091019060ff166007811115612a9557612a95614d6e565b6007811115612aa657612aa6614d6e565b8152602001600382018054612aba9061591d565b80601f0160208091040260200160405190810160405280929190818152602001828054612ae69061591d565b8015612b335780601f10612b0857610100808354040283529160200191612b33565b820191906000526020600020905b815481529060010190602001808311612b1657829003601f168201915b50505050508152602001600482018054612b4c9061591d565b80601f0160208091040260200160405190810160405280929190818152602001828054612b789061591d565b8015612bc55780601f10612b9a57610100808354040283529160200191612bc5565b820191906000526020600020905b815481529060010190602001808311612ba857829003601f168201915b50505050508152602001600582018054612bde9061591d565b80601f0160208091040260200160405190810160405280929190818152602001828054612c0a9061591d565b8015612c575780601f10612c2c57610100808354040283529160200191612c57565b820191906000526020600020905b815481529060010190602001808311612c3a57829003601f168201915b505050918352505060068201546001600160a01b0390811660208301526007830154166040820152600882018054606090920191612c949061591d565b80601f0160208091040260200160405190810160405280929190818152602001828054612cc09061591d565b8015612d0d5780601f10612ce257610100808354040283529160200191612d0d565b820191906000526020600020905b815481529060010190602001808311612cf057829003601f168201915b50505050508152602001600982018054612d269061591d565b80601f0160208091040260200160405190810160405280929190818152602001828054612d529061591d565b8015612d9f5780601f10612d7457610100808354040283529160200191612d9f565b820191906000526020600020905b815481529060010190602001808311612d8257829003601f168201915b505050505081525050915050919050565b612db8613b4c565b601855565b600e546040516338ce943360e01b815260609182916001600160a01b03909116906338ce943390612dfa908690309063e08714a690600401615fa4565b600060405180830381865afa158015612e17573d6000803e3d6000fd5b505050506040513d6000823e601f3d908101601f19168201604052612e3f9190810190615c3d565b91509150915091565b6060806000612e568661267d565b600e5460808201516000908152600f6020526040908190209051630a6ab71760e21b81529293506001600160a01b03909116916329aadc5c91612ea3918a918a918a918891600401616053565b600060405180830381865afa158015612ec0573d6000803e3d6000fd5b505050506040513d6000823e601f3d908101601f19168201604052612ee89190810190615c3d565b9250925050935093915050565b612efd613b4c565b600e5460405163e1defed960e01b81526001600160a01b039091169063e1defed990612f2f908590859060040161512d565b600060405180830381600087803b158015612f4957600080fd5b505af1158015612f5d573d6000803e3d6000fd5b505050505050565b3360009081526013602052604090205460ff16612f9557604051631758e6d560e11b815260040160405180910390fd5b60005b815181101561117557612fc3828281518110612fb657612fb6615951565b6020026020010151613dac565b600101612f98565b600080612fd78361267d565b90506000600f60008360800151815260200190815260200160002060405180610140016040529081600082015481526020016001820180546130189061591d565b80601f01602080910402602001604051908101604052809291908181526020018280546130449061591d565b80156130915780601f1061306657610100808354040283529160200191613091565b820191906000526020600020905b81548152906001019060200180831161307457829003601f168201915b5050509183525050600282015460209091019060ff1660078111156130b8576130b8614d6e565b60078111156130c9576130c9614d6e565b81526020016003820180546130dd9061591d565b80601f01602080910402602001604051908101604052809291908181526020018280546131099061591d565b80156131565780601f1061312b57610100808354040283529160200191613156565b820191906000526020600020905b81548152906001019060200180831161313957829003601f168201915b5050505050815260200160048201805461316f9061591d565b80601f016020809104026020016040519081016040528092919081815260200182805461319b9061591d565b80156131e85780601f106131bd576101008083540402835291602001916131e8565b820191906000526020600020905b8154815290600101906020018083116131cb57829003601f168201915b505050505081526020016005820180546132019061591d565b80601f016020809104026020016040519081016040528092919081815260200182805461322d9061591d565b801561327a5780601f1061324f5761010080835404028352916020019161327a565b820191906000526020600020905b81548152906001019060200180831161325d57829003601f168201915b505050918352505060068201546001600160a01b03908116602083015260078301541660408201526008820180546060909201916132b79061591d565b80601f01602080910402602001604051908101604052809291908181526020018280546132e39061591d565b80156133305780601f1061330557610100808354040283529160200191613330565b820191906000526020600020905b81548152906001019060200180831161331357829003601f168201915b505050505081526020016009820180546133499061591d565b80601f01602080910402602001604051908101604052809291908181526020018280546133759061591d565b80156133c25780601f10613397576101008083540402835291602001916133c2565b820191906000526020600020905b8154815290600101906020018083116133a557829003601f168201915b5050509190925250505060400151949350505050565b6133e0614b0a565b600f600083815260200190815260200160002060405180610140016040529081600082015481526020016001820180546134199061591d565b80601f01602080910402602001604051908101604052809291908181526020018280546134459061591d565b80156134925780601f1061346757610100808354040283529160200191613492565b820191906000526020600020905b81548152906001019060200180831161347557829003601f168201915b5050509183525050600282015460209091019060ff1660078111156134b9576134b9614d6e565b60078111156134ca576134ca614d6e565b81526020016003820180546134de9061591d565b80601f016020809104026020016040519081016040528092919081815260200182805461350a9061591d565b80156135575780601f1061352c57610100808354040283529160200191613557565b820191906000526020600020905b81548152906001019060200180831161353a57829003601f168201915b505050505081526020016004820180546135709061591d565b80601f016020809104026020016040519081016040528092919081815260200182805461359c9061591d565b80156135e95780601f106135be576101008083540402835291602001916135e9565b820191906000526020600020905b8154815290600101906020018083116135cc57829003601f168201915b505050505081526020016005820180546136029061591d565b80601f016020809104026020016040519081016040528092919081815260200182805461362e9061591d565b801561367b5780601f106136505761010080835404028352916020019161367b565b820191906000526020600020905b81548152906001019060200180831161365e57829003601f168201915b505050918352505060068201546001600160a01b03908116602083015260078301541660408201526008820180546060909201916136b89061591d565b80601f01602080910402602001604051908101604052809291908181526020018280546136e49061591d565b80156137315780601f1061370657610100808354040283529160200191613731565b820191906000526020600020905b81548152906001019060200180831161371457829003601f168201915b5050505050815260200160098201805461374a9061591d565b80601f01602080910402602001604051908101604052809291908181526020018280546137769061591d565b80156137c35780601f10613798576101008083540402835291602001916137c3565b820191906000526020600020905b8154815290600101906020018083116137a657829003601f168201915b5050505050815250509050919050565b6137db613b4c565b63389a75e1600c52806000526020600c20805442111561380357636f5e88186000526004601cfd5b600090556114f281613e5b565b606080606060006138208861267d565b600e5460808201516000908152600f602052604090819020905163aeea03e560e01b81529293506001600160a01b039091169163aeea03e591613870918c918c918c918c918991906004016160a3565b600060405180830381865afa15801561388d573d6000803e3d6000fd5b505050506040513d6000823e601f3d908101601f191682016040526138b59190810190615fd6565b935093509350509450945094915050565b6138ce613b4c565b8060601b6138e457637448fbae6000526004601cfd5b6114f281613e5b565b6138f5613b4c565b6001600160a01b03166000908152601460205260409020805460ff19166001179055565b600e5460808301516000908152600f60205260409081902090516330235ddd60e21b8152606092839283926001600160a01b039092169163c08d7774916139669189918991600401615c16565b600060405180830381865afa158015613983573d6000803e3d6000fd5b505050506040513d6000823e601f3d908101601f191682016040526139ab9190810190615fd6565b9250925092509250925092565b60006001600160e01b0319821663780e9d6360e01b1480610e8f5750610e8f8261400f565b6000818152600260205260409020546001600160a01b03166114f25760405162461bcd60e51b8152602060048201526018602482015277115490cdcc8c4e881a5b9d985b1a59081d1bdad95b88125160421b604482015260640161151b565b6000613a4782611a8e565b9050806001600160a01b0316836001600160a01b031603613ab45760405162461bcd60e51b815260206004820152602160248201527f4552433732313a20617070726f76616c20746f2063757272656e74206f776e656044820152603960f91b606482015260840161151b565b336001600160a01b0382161480613ad05750613ad08133610d11565b613b425760405162461bcd60e51b815260206004820152603e60248201527f4552433732313a20617070726f76652063616c6c6572206973206e6f7420746f60448201527f6b656e206f776e6572206e6f7220617070726f76656420666f7220616c6c0000606482015260840161151b565b61152f8383613e99565b638b78c6d819543314611bb0576382b429006000526004601cfd5b600080613b7383611a8e565b9050806001600160a01b0316846001600160a01b03161480613bba57506001600160a01b0380821660009081526005602090815260408083209388168352929052205460ff165b8061233e5750836001600160a01b0316613bd384610f27565b6001600160a01b031614949350505050565b826001600160a01b0316613bf882611a8e565b6001600160a01b031614613c5c5760405162461bcd60e51b815260206004820152602560248201527f4552433732313a207472616e736665722066726f6d20696e636f72726563742060448201526437bbb732b960d91b606482015260840161151b565b6001600160a01b038216613cbe5760405162461bcd60e51b8152602060048201526024808201527f4552433732313a207472616e7366657220746f20746865207a65726f206164646044820152637265737360e01b606482015260840161151b565b613cc983838361405f565b613cd4600082613e99565b6001600160a01b0383166000908152600360205260408120805460019290613cfd90849061597d565b90915550506001600160a01b0382166000908152600360205260408120805460019290613d2b908490615a1f565b909155505060008181526002602052604080822080546001600160a01b0319166001600160a01b0386811691821790925591518493918716917fddf252ad1be2c89b69c2b068fc378daa952ba7f163c4a11628f55a4df523b3ef91a461152f838383614298565b61117582826040518060200160405280600081525061445d565b6000613db782611a8e565b9050613dc58160008461405f565b613dd0600083613e99565b6001600160a01b0381166000908152600360205260408120805460019290613df990849061597d565b909155505060008281526002602052604080822080546001600160a01b0319169055518391906001600160a01b038416907fddf252ad1be2c89b69c2b068fc378daa952ba7f163c4a11628f55a4df523b3ef908390a461117581600084614298565b638b78c6d81980546001600160a01b039092169182907f8be0079c531659141344cd1fd0a4f28419497f9722a3daafe3b4186f6b6457e0600080a355565b600081815260046020526040902080546001600160a01b0319166001600160a01b0384169081179091558190613ece82611a8e565b6001600160a01b03167f8c5be1e5ebec7d5bd14f71427d1e84f3dd0314c0f7b2291e5b200ac8c7c3b92560405160405180910390a45050565b816001600160a01b0316836001600160a01b031603613f645760405162461bcd60e51b815260206004820152601960248201527822a9219b99189d1030b8383937bb32903a379031b0b63632b960391b604482015260640161151b565b6001600160a01b03838116600081815260056020908152604080832094871680845294825291829020805460ff191686151590811790915591519182527f17307eab39ab6107e8899845ad3d59bd9653f200f220920489ca2b5937696c31910160405180910390a3505050565b611175338383613f07565b613fe7848484613be5565b613ff384848484614490565b61284e5760405162461bcd60e51b815260040161151b90616114565b60006001600160e01b031982166380ac58cd60e01b148061404057506001600160e01b03198216635b5e139f60e01b145b80610e8f57506301ffc9a760e01b6001600160e01b0319831614610e8f565b60185461406f9062015180615a1f565b42101561408f5760405163ae735dad60e01b815260040160405180910390fd5b6001600160a01b0383166140a85761152f838383614591565b601254604051634f6088cd60e01b8152600481018390526000916001600160a01b031690634f6088cd90602401608060405180830381865afa1580156140f2573d6000803e3d6000fd5b505050506040513d601f19601f820116820180604052508101906141169190616166565b5090925050506001600160a01b03811615614156576012546001600160a01b031633146141565760405163bf646b0f60e01b815260040160405180910390fd5b6001600160a01b0383166141f65761416e8284614649565b600061417983611a8e565b60115460405162525fcd60e91b81526001600160a01b03808416600483015292935091169063a4bf9a0090602401602060405180830381865afa1580156141c4573d6000803e3d6000fd5b505050506040513d601f19601f820116820180604052508101906141e891906161bb565b60175561206c858585614591565b60115460405162525fcd60e91b81526001600160a01b0385811660048301529091169063a4bf9a0090602401602060405180830381865afa15801561423f573d6000803e3d6000fd5b505050506040513d601f19601f8201168201806040525081019061426391906161bb565b600003614283576040516326a45c0160e21b815260040160405180910390fd5b61428d8284614649565b61284e848484614591565b6011546001600160a01b03166142c157604051632d51864760e01b815260040160405180910390fd5b6012546001600160a01b03166142ea5760405163382eb47160e21b815260040160405180910390fd5b6001600160a01b0383166142fd57505050565b6001600160a01b0382166143795760178054600090915560125460405163236313ff60e11b8152600481018390526001600160a01b03909116906346c627fe906024015b600060405180830381600087803b15801561435b57600080fd5b505af115801561436f573d6000803e3d6000fd5b5050505050505050565b600061438482611a8e565b60115460405162525fcd60e91b81526001600160a01b0380841660048301529293506000929091169063a4bf9a0090602401602060405180830381865afa1580156143d3573d6000803e3d6000fd5b505050506040513d601f19601f820116820180604052508101906143f791906161bb565b60125460405163236313ff60e11b8152600481018390529192506001600160a01b0316906346c627fe90602401600060405180830381600087803b15801561443e57600080fd5b505af1158015614452573d6000803e3d6000fd5b505050505050505050565b61446783836147bd565b6144746000848484614490565b61152f5760405162461bcd60e51b815260040161151b90616114565b60006001600160a01b0384163b1561458657604051630a85bd0160e11b81526001600160a01b0385169063150b7a02906144d49033908990889088906004016161d4565b6020604051808303816000875af192505050801561450f575060408051601f3d908101601f1916820190925261450c91810190616207565b60015b61456c573d80801561453d576040519150601f19603f3d011682016040523d82523d6000602084013e614542565b606091505b5080516000036145645760405162461bcd60e51b815260040161151b90616114565b805181602001fd5b6001600160e01b031916630a85bd0160e11b14905061233e565b506001949350505050565b6001600160a01b0383166145ec576145e781600880546000838152600960205260408120829055600182018355919091527ff3f7a9fe364faab93b216da50a3214154f22a0a2b415b23a84c8169e8b636ee30155565b61460f565b816001600160a01b0316836001600160a01b03161461460f5761460f8382614913565b6001600160a01b0382166146265761152f816149b0565b826001600160a01b0316826001600160a01b03161461152f5761152f8282614a5f565b600061465483611a8e565b60115460405162525fcd60e91b81526001600160a01b0380841660048301529293506000929091169063a4bf9a0090602401602060405180830381865afa1580156146a3573d6000803e3d6000fd5b505050506040513d601f19601f820116820180604052508101906146c791906161bb565b60125460405163236313ff60e11b8152600481018390529192506001600160a01b0316906346c627fe90602401600060405180830381600087803b15801561470e57600080fd5b505af1158015614722573d6000803e3d6000fd5b5050601254604051632e1d274f60e01b8152600481018890526001600160a01b039091169250632e1d274f9150602401600060405180830381600087803b15801561476c57600080fd5b505af1158015614780573d6000803e3d6000fd5b50506012546040516302fbe78f60e41b8152600481018890526001600160a01b0387811660248301529091169250632fbe78f09150604401614341565b6001600160a01b0382166148135760405162461bcd60e51b815260206004820181905260248201527f4552433732313a206d696e7420746f20746865207a65726f2061646472657373604482015260640161151b565b6000818152600260205260409020546001600160a01b0316156148785760405162461bcd60e51b815260206004820152601c60248201527f4552433732313a20746f6b656e20616c7265616479206d696e74656400000000604482015260640161151b565b6148846000838361405f565b6001600160a01b03821660009081526003602052604081208054600192906148ad908490615a1f565b909155505060008181526002602052604080822080546001600160a01b0319166001600160a01b03861690811790915590518392907fddf252ad1be2c89b69c2b068fc378daa952ba7f163c4a11628f55a4df523b3ef908290a461117560008383614298565b6000600161492084611aee565b61492a919061597d565b60008381526007602052604090205490915080821461497d576001600160a01b03841660009081526006602090815260408083208584528252808320548484528184208190558352600790915290208190555b5060009182526007602090815260408084208490556001600160a01b039094168352600681528383209183525290812055565b6008546000906149c29060019061597d565b600083815260096020526040812054600880549394509092849081106149ea576149ea615951565b906000526020600020015490508060088381548110614a0b57614a0b615951565b6000918252602080832090910192909255828152600990915260408082208490558582528120556008805480614a4357614a43615990565b6001900381819060005260206000200160009055905550505050565b6000614a6a83611aee565b6001600160a01b039093166000908152600660209081526040808320868452825280832085905593825260079052919091209190915550565b8260028101928215614adc579160200282015b82811115614adc5782518290614acc9082615cde565b5091602001919060010190614ab6565b50614ae8929150614b6f565b5090565b50805460008255906000526020600020908101906114f29190614b8c565b60408051610140810182526000808252606060208301529091820190815260200160608152602001606081526020016060815260200160006001600160a01b0316815260200160006001600160a01b0316815260200160608152602001606081525090565b80821115614ae8576000614b838282614ba1565b50600101614b6f565b5b80821115614ae85760008155600101614b8d565b508054614bad9061591d565b6000825580601f10614bbd575050565b601f0160209004906000526020600020908101906114f29190614b8c565b600060208284031215614bed57600080fd5b5035919050565b6020808252825182820181905260009190848201906040850190845b81811015614c355783516001600160a01b031683529284019291840191600101614c10565b50909695505050505050565b6001600160e01b0319811681146114f257600080fd5b600060208284031215614c6957600080fd5b8135614c7481614c41565b9392505050565b60005b83811015614c96578181015183820152602001614c7e565b50506000910152565b60008151808452614cb7816020860160208601614c7b565b601f01601f19169290920160200192915050565b602081526000614c746020830184614c9f565b6001600160a01b03811681146114f257600080fd5b8035614cfe81614cde565b919050565b60008060408385031215614d1657600080fd5b8235614d2181614cde565b946020939093013593505050565b60008060408385031215614d4257600080fd5b50508035926020909101359150565b600060208284031215614d6357600080fd5b8135614c7481614cde565b634e487b7160e01b600052602160045260246000fd5b60088110614da257634e487b7160e01b600052602160045260246000fd5b9052565b805182526020810151151560208301526040810151604083015260018060a01b0360608201511660608301526080810151608083015260a081015161152f60a0840182614d84565b60c08101610e8f8284614da6565b634e487b7160e01b600052604160045260246000fd5b604080519081016001600160401b0381118282101715614e3457614e34614dfc565b60405290565b60405160c081016001600160401b0381118282101715614e3457614e34614dfc565b60405161014081016001600160401b0381118282101715614e3457614e34614dfc565b60405161018081016001600160401b0381118282101715614e3457614e34614dfc565b604051601f8201601f191681016001600160401b0381118282101715614eca57614eca614dfc565b604052919050565b60006001600160401b03821115614eeb57614eeb614dfc565b50601f01601f191660200190565b600082601f830112614f0a57600080fd5b8135614f1d614f1882614ed2565b614ea2565b818152846020838601011115614f3257600080fd5b816020850160208301376000918101602001919091529392505050565b600060208284031215614f6157600080fd5b81356001600160401b03811115614f7757600080fd5b61233e84828501614ef9565b600080600060608486031215614f9857600080fd5b8335614fa381614cde565b92506020840135614fb381614cde565b929592945050506040919091013590565b60006020808385031215614fd757600080fd5b82356001600160401b0380821115614fee57600080fd5b818501915085601f83011261500257600080fd5b61500a614e12565b80604084018881111561501c57600080fd5b845b81811015615050578035858111156150365760008081fd5b6150428b828901614ef9565b85525092860192860161501e565b509098975050505050505050565b80151581146114f257600080fd5b8035614cfe8161505e565b600881106114f257600080fd5b8035614cfe81615077565b600060c082840312156150a157600080fd5b6150a9614e3a565b90508135815260208201356150bd8161505e565b60208201526040828101359082015260608201356150da81614cde565b60608201526080828101359082015260a08201356150f781615077565b60a082015292915050565b60008060e0838503121561511557600080fd5b61511f848461508f565b9460c0939093013593505050565b6040815260006151406040830185614c9f565b82810360208401526128138185614c9f565b60008060e0838503121561516557600080fd5b82359150615176846020850161508f565b90509250929050565b6020808252825182820181905260009190848201906040850190845b81811015614c355783518352928401929184019160010161519b565b60006101408c83528060208401526151d18184018d614c9f565b90506151e0604084018c614d84565b82810360608401526151f2818b614c9f565b90508281036080840152615206818a614c9f565b905082810360a084015261521a8189614c9f565b6001600160a01b0388811660c0860152871660e085015283810361010085015290506152468186614c9f565b905082810361012084015261525b8185614c9f565b9d9c50505050505050505050505050565b6000806040838503121561527f57600080fd5b8235915060208301356001600160401b038082111561529d57600080fd5b9084019061014082870312156152b257600080fd5b6152ba614e5c565b823581526020830135828111156152d057600080fd5b6152dc88828601614ef9565b6020830152506152ee60408401615084565b604082015260608301358281111561530557600080fd5b61531188828601614ef9565b60608301525060808301358281111561532957600080fd5b61533588828601614ef9565b60808301525060a08301358281111561534d57600080fd5b61535988828601614ef9565b60a08301525061536b60c08401614cf3565b60c082015261537c60e08401614cf3565b60e0820152610100808401358381111561539557600080fd5b6153a189828701614ef9565b82840152505061012080840135838111156153bb57600080fd5b6153c789828701614ef9565b8284015250508093505050509250929050565b600080604083850312156153ed57600080fd5b82356153f881614cde565b915060208301356154088161505e565b809150509250929050565b6000806000806080858703121561542957600080fd5b843561543481614cde565b9350602085013561544481614cde565b92506040850135915060608501356001600160401b0381111561546657600080fd5b61547287828801614ef9565b91505092959194509250565b803563ffffffff81168114614cfe57600080fd5b803560ff81168114614cfe57600080fd5b6000602082840312156154b557600080fd5b81356001600160401b03808211156154cc57600080fd5b9083019061018082860312156154e157600080fd5b6154e9614e7f565b823581526020830135602082015260408301356040820152606083013560608201526080830135608082015260a083013560a082015260c083013560c082015261553560e0840161547e565b60e08201526101008381013590820152610120615553818501615492565b90820152610140838101358381111561556b57600080fd5b61557788828701614ef9565b828401525050610160915061558d82840161506c565b91810191909152949350505050565b6060815260006155af6060830186614c9f565b82810360208401526155c18186614c9f565b905082810360408401526155d58185614c9f565b9695505050505050565b602081528151602082015260006020830151610140806040850152615608610160850183614c9f565b9150604085015161561c6060860182614d84565b506060850151601f19808685030160808701526156398483614c9f565b935060808701519150808685030160a08701526156568483614c9f565b935060a08701519150808685030160c08701526156738483614c9f565b935060c0870151915061569160e08701836001600160a01b03169052565b60e087015191506101006156af818801846001600160a01b03169052565b808801519250506101208187860301818801526156cc8584614c9f565b9088015187820390920184880152935090506155d58382614c9f565b6000806000606084860312156156fd57600080fd5b8335925060208401356001600160401b038082111561571b57600080fd5b61572787838801614ef9565b9350604086013591508082111561573d57600080fd5b5061574a86828701614ef9565b9150509250925092565b6000806040838503121561576757600080fd5b82356001600160401b038082111561577e57600080fd5b61578a86838701614ef9565b935060208501359150808211156157a057600080fd5b506157ad85828601614ef9565b9150509250929050565b600060208083850312156157ca57600080fd5b82356001600160401b03808211156157e157600080fd5b818501915085601f8301126157f557600080fd5b81358181111561580757615807614dfc565b8060051b9150615818848301614ea2565b818152918301840191848101908884111561583257600080fd5b938501935b8385101561585057843582529385019390850190615837565b98975050505050505050565b60208101610e8f8284614d84565b6000806040838503121561587d57600080fd5b823561588881614cde565b9150602083013561540881614cde565b600080600080608085870312156158ae57600080fd5b8435935060208501356001600160401b03808211156158cc57600080fd5b6158d888838901614ef9565b945060408701359150808211156158ee57600080fd5b6158fa88838901614ef9565b9350606087013591508082111561591057600080fd5b5061547287828801614ef9565b600181811c9082168061593157607f821691505b60208210810361185757634e487b7160e01b600052602260045260246000fd5b634e487b7160e01b600052603260045260246000fd5b634e487b7160e01b600052601160045260246000fd5b81810381811115610e8f57610e8f615967565b634e487b7160e01b600052603160045260246000fd5b600082601f8301126159b757600080fd5b81516159c5614f1882614ed2565b8181528460208386010111156159da57600080fd5b61233e826020830160208701614c7b565b6000602082840312156159fd57600080fd5b81516001600160401b03811115615a1357600080fd5b61233e848285016159a6565b80820180821115610e8f57610e8f615967565b600082615a4f57634e487b7160e01b600052601260045260246000fd5b500690565b600060018201615a6657615a66615967565b5060010190565b6020808252602e908201527f4552433732313a2063616c6c6572206973206e6f7420746f6b656e206f776e6560408201526d1c881b9bdc88185c1c1c9bdd995960921b606082015260800190565b60008154615ac88161591d565b808552602060018381168015615ae55760018114615aff57615b2d565b60ff1985168884015283151560051b880183019550615b2d565b866000528260002060005b85811015615b255781548a8201860152908301908401615b0a565b890184019650505b505050505092915050565b600061014082548452806020850152615b5681850160018501615abb565b9050615b66600284015460ff1690565b615b736040860182614d84565b508381036060850152615b898160038501615abb565b90508381036080850152615ba08160048501615abb565b905083810360a0850152615bb78160058501615abb565b9050615bcd60068401546001600160a01b031690565b6001600160a01b0390811660c086015260078401541660e0850152838103610100850152615bfe8160088501615abb565b905083810361012085015261233e8160098501615abb565b6000610100615c258387614da6565b8460c08401528060e08401526155d581840185615b38565b60008060408385031215615c5057600080fd5b82516001600160401b0380821115615c6757600080fd5b615c73868387016159a6565b93506020850151915080821115615c8957600080fd5b506157ad858286016159a6565b601f82111561152f576000816000526020600020601f850160051c81016020861015615cbf5750805b601f850160051c820191505b81811015612f5d57828155600101615ccb565b81516001600160401b03811115615cf757615cf7614dfc565b615d0b81615d05845461591d565b84615c96565b602080601f831160018114615d405760008415615d285750858301515b600019600386901b1c1916600185901b178555612f5d565b600085815260208120601f198616915b82811015615d6f57888601518255948401946001909101908401615d50565b5085821015615d8d5787850151600019600388901b60f8161c191681555b5050505050600190811b01905550565b60006101608883526020615db4602085018a614da6565b8160e0850152615dc682850189615b38565b9150838203610100850152615ddb8288614c9f565b9150838203610120850152615df08287614c9f565b848103610140860152915081604081018660005b6002811015615e2e578583038452615e1c8383615abb565b93850193925060019182019101615e04565b50909c9b505050505050505050505050565b602081526000614c746020830184615abb565b83151581526101008101615e6a6020830185614da6565b6001600160801b03831660e0830152949350505050565b600060c08284031215615e9357600080fd5b615e9b614e3a565b825181526020830151615ead8161505e565b6020820152604083810151908201526060830151615eca81614cde565b60608201526080838101519082015260a0830151615ee781615077565b60a08201529392505050565b6000610180825184526020830151602085015260408301516040850152606083015160608501526080830151608085015260a083015160a085015260c083015160c085015260e0830151615f4f60e086018263ffffffff169052565b5061010083810151908501526101208084015160ff169085015261014080840151818601839052615f8283870182614c9f565b9250505061016080840151615f9a8287018215159052565b5090949350505050565b604081526000615fb76040830186615ef3565b905061233e60208301848660201b63ffffffff919091161760401b9052565b600080600060608486031215615feb57600080fd5b83516001600160401b038082111561600257600080fd5b61600e878388016159a6565b9450602086015191508082111561602457600080fd5b616030878388016159a6565b9350604086015191508082111561604657600080fd5b5061574a868287016159a6565b600061014087835280602084015261606d81840188614c9f565b905082810360408401526160818187614c9f565b90506160906060840186614da6565b8281036101208401526158508185615b38565b60006101608883528060208401526160bd81840189614c9f565b905082810360408401526160d18188614c9f565b905082810360608401526160e58187614c9f565b90506160f46080840186614da6565b8281036101408401526161078185615b38565b9998505050505050505050565b60208082526032908201527f4552433732313a207472616e7366657220746f206e6f6e20455243373231526560408201527131b2b4bb32b91034b6b83632b6b2b73a32b960711b606082015260800190565b6000806000806080858703121561617c57600080fd5b84519350602085015161618e81614cde565b604086015190935061619f81614cde565b60608601519092506161b081614cde565b939692955090935050565b6000602082840312156161cd57600080fd5b5051919050565b6001600160a01b03858116825284166020820152604081018390526080606082018190526000906155d590830184614c9f565b60006020828403121561621957600080fd5b8151614c7481614c4156fea2646970667358221220b378573690c0d89ab9864111367f79d0280f1d14cab985cd1e11480792c39aaa64736f6c63430008160033608060405234801561001057600080fd5b506130ae806100206000396000f3fe608060405234801561001057600080fd5b50600436106100f55760003560e01c80635c1ef25611610097578063aeea03e511610066578063aeea03e5146101e8578063c08d7774146101fb578063e1defed91461020e578063e6ab9d5a1461022357600080fd5b80635c1ef256146101a75780636150dc03146101af578063898aa117146101c25780639a4813d8146101d557600080fd5b806338ce9433116100d357806338ce94331461015757806351dc71891461016a5780635ab38bf7146101725780635bf382591461019457600080fd5b806321b12c23146100fa57806329aadc5c146101235780632fbcb97e14610144575b600080fd5b61010d610108366004611e91565b61022b565b60405161011a9190611f1d565b60405180910390f35b610136610131366004612142565b610a74565b60405161011a9291906121e7565b610136610152366004612215565b610af4565b61013661016536600461237c565b610bfc565b610136610f69565b61018561018036600461237c565b611089565b60405161011a939291906123df565b61010d6101a2366004611e91565b61141e565b61010d611462565b61010d6101bd3660046124ad565b611531565b61010d6101d0366004611e91565b611773565b61010d6101e3366004611e91565b6119c5565b6101856101f6366004612577565b611a0a565b610185610209366004612215565b611ab9565b61022161021c366004612632565b611bdc565b005b61010d611bfa565b60606000604051806102000160405280604051806040016040528060018152602001600360fc1b8152508152602001604051806040016040528060018152602001603160f81b8152508152602001604051806040016040528060018152602001601960f91b8152508152602001604051806040016040528060018152602001603360f81b8152508152602001604051806040016040528060018152602001600d60fa1b8152508152602001604051806040016040528060018152602001603560f81b8152508152602001604051806040016040528060018152602001601b60f91b8152508152602001604051806040016040528060018152602001603760f81b8152508152602001604051806040016040528060018152602001600760fb1b8152508152602001604051806040016040528060018152602001603960f81b8152508152602001604051806040016040528060018152602001606160f81b8152508152602001604051806040016040528060018152602001603160f91b8152508152602001604051806040016040528060018152602001606360f81b8152508152602001604051806040016040528060018152602001601960fa1b8152508152602001604051806040016040528060018152602001606560f81b8152508152602001604051806040016040528060018152602001603360f91b81525081525090506000604051806103c00160405280604051806040016040528060018152602001600360fc1b8152508152602001604051806040016040528060018152602001603160f81b8152508152602001604051806040016040528060018152602001601960f91b8152508152602001604051806040016040528060018152602001603360f81b8152508152602001604051806040016040528060018152602001600d60fa1b8152508152602001604051806040016040528060018152602001603560f81b8152508152602001604051806040016040528060018152602001601b60f91b8152508152602001604051806040016040528060018152602001603760f81b8152508152602001604051806040016040528060018152602001600760fb1b8152508152602001604051806040016040528060018152602001603960f81b815250815260200160405180604001604052806002815260200161031360f41b815250815260200160405180604001604052806002815260200161313160f01b815250815260200160405180604001604052806002815260200161189960f11b815250815260200160405180604001604052806002815260200161313360f01b8152508152602001604051806040016040528060028152602001610c4d60f21b815250815260200160405180604001604052806002815260200161313560f01b815250815260200160405180604001604052806002815260200161189b60f11b815250815260200160405180604001604052806002815260200161313760f01b815250815260200160405180604001604052806002815260200161062760f31b815250815260200160405180604001604052806002815260200161313960f01b815250815260200160405180604001604052806002815260200161032360f41b815250815260200160405180604001604052806002815260200161323160f01b815250815260200160405180604001604052806002815260200161191960f11b815250815260200160405180604001604052806002815260200161323360f01b8152508152602001604051806040016040528060028152602001610c8d60f21b815250815260200160405180604001604052806002815260200161323560f01b815250815260200160405180604001604052806002815260200161191b60f11b815250815260200160405180604001604052806002815260200161323760f01b815250815260200160405180604001604052806002815260200161064760f31b815250815260200160405180604001604052806002815260200161323960f01b815250815250905060005b611194811015610a6c57600060f81b85828151811061081357610813612695565b01602001516001600160f81b0319161115610a5a576000601e6108376005846126d7565b61084191906126eb565b90506000601e6108526005856126d7565b61085c91906126d7565b905060008560048961086f8760026126ff565b8151811061087f5761087f612695565b016020015160f81c901c60ff166010811061089c5761089c612695565b602002015186896108ae8760026126ff565b815181106108be576108be612695565b60209101015160f81c600f16601081106108da576108da612695565b60200201518760048b6108ee8960036126ff565b815181106108fe576108fe612695565b016020015160f81c901c60ff166010811061091b5761091b612695565b6020020151888b61092d8960036126ff565b8151811061093d5761093d612695565b60209101015160f81c600f166010811061095957610959612695565b60200201518960048d61096c8b836126ff565b8151811061097c5761097c612695565b016020015160f81c901c60ff166010811061099957610999612695565b60200201518a8d6109ab8b60046126ff565b815181106109bb576109bb612695565b60209101015160f81c600f16601081106109d7576109d7612695565b60200201516040516020016109f19695949392919061272e565b6040516020818303038152906040529050868584601e8110610a1557610a15612695565b60200201518684601e8110610a2c57610a2c612695565b602002015183604051602001610a4594939291906127ad565b60405160208183030381529060405296505050505b610a656005826126ff565b90506107f2565b505050919050565b606080606080610a85868a87610af4565b8851909350909150600003610a9f57809350819250610ae8565b8781604051602001610ab2929190612867565b60405160208183030381529060405293508682604051602001610ad6929190612896565b60405160208183030381529060405292505b50509550959350505050565b60608084602001518015610b085750600084115b15610bb05760408084015190516301be83d160e11b8152610b9a9173__$4987fe9f4e800c5c4c1535f64ed232842a$__9163037d07a291610b4b916004016128d2565b600060405180830381865af4158015610b68573d6000803e3d6000fd5b505050506040513d6000823e601f3d908101601f19168201604052610b90919081019061294a565b8460200151611c1b565b9050610ba983608001516119c5565b9150610bf4565b604051806040016040528060028152602001617b7d60f01b81525090506040518060400160405280600b81526020016a1e39bb339f1e17b9bb339f60a91b81525091505b935093915050565b60608060008560c001511115610c7e5783838660c0015184846040518463ffffffff1660e01b8152600401610c339392919061297e565b600060405180830381865afa158015610c50573d6000803e3d6000fd5b505050506040513d6000823e601f3d908101601f19168201604052610c7891908101906129a9565b90925090505b60a085015115610cfa5783838660a0015184846040518463ffffffff1660e01b8152600401610caf9392919061297e565b600060405180830381865afa158015610ccc573d6000803e3d6000fd5b505050506040513d6000823e601f3d908101601f19168201604052610cf491908101906129a9565b90925090505b608085015115610d76578383866080015184846040518463ffffffff1660e01b8152600401610d2b9392919061297e565b600060405180830381865afa158015610d48573d6000803e3d6000fd5b505050506040513d6000823e601f3d908101601f19168201604052610d7091908101906129a9565b90925090505b604085015115610df2578383866040015184846040518463ffffffff1660e01b8152600401610da79392919061297e565b600060405180830381865afa158015610dc4573d6000803e3d6000fd5b505050506040513d6000823e601f3d908101601f19168201604052610dec91908101906129a9565b90925090505b602085015115610e6e578383866020015184846040518463ffffffff1660e01b8152600401610e239392919061297e565b600060405180830381865afa158015610e40573d6000803e3d6000fd5b505050506040513d6000823e601f3d908101601f19168201604052610e6891908101906129a9565b90925090505b845115610ee7578383866000015184846040518463ffffffff1660e01b8152600401610e9c9392919061297e565b600060405180830381865afa158015610eb9573d6000803e3d6000fd5b505050506040513d6000823e601f3d908101601f19168201604052610ee191908101906129a9565b90925090505b606085015115610bf4578383866060015184846040518463ffffffff1660e01b8152600401610f189392919061297e565b600060405180830381865afa158015610f35573d6000803e3d6000fd5b505050506040513d6000823e601f3d908101601f19168201604052610f5d91908101906129a9565b90969095509350505050565b600080548190610f7890612a02565b80601f0160208091040260200160405190810160405280929190818152602001828054610fa490612a02565b8015610ff15780601f10610fc657610100808354040283529160200191610ff1565b820191906000526020600020905b815481529060010190602001808311610fd457829003601f168201915b50505050509080600101805461100690612a02565b80601f016020809104026020016040519081016040528092919081815260200182805461103290612a02565b801561107f5780601f106110545761010080835404028352916020019161107f565b820191906000526020600020905b81548152906001019060200180831161106257829003601f168201915b5050505050905082565b606080606060008660c0015111156111125784848760c001518584866040518563ffffffff1660e01b81526004016110c49493929190612a3c565b600060405180830381865afa1580156110e1573d6000803e3d6000fd5b505050506040513d6000823e601f3d908101601f191682016040526111099190810190612a86565b91945090925090505b60a0860151156111935784848760a001518584866040518563ffffffff1660e01b81526004016111459493929190612a3c565b600060405180830381865afa158015611162573d6000803e3d6000fd5b505050506040513d6000823e601f3d908101601f1916820160405261118a9190810190612a86565b91945090925090505b60808601511561121457848487608001518584866040518563ffffffff1660e01b81526004016111c69493929190612a3c565b600060405180830381865afa1580156111e3573d6000803e3d6000fd5b505050506040513d6000823e601f3d908101601f1916820160405261120b9190810190612a86565b91945090925090505b60408601511561129557848487604001518584866040518563ffffffff1660e01b81526004016112479493929190612a3c565b600060405180830381865afa158015611264573d6000803e3d6000fd5b505050506040513d6000823e601f3d908101601f1916820160405261128c9190810190612a86565b91945090925090505b60208601511561131657848487602001518584866040518563ffffffff1660e01b81526004016112c89493929190612a3c565b600060405180830381865afa1580156112e5573d6000803e3d6000fd5b505050506040513d6000823e601f3d908101601f1916820160405261130d9190810190612a86565b91945090925090505b85511561139457848487600001518584866040518563ffffffff1660e01b81526004016113469493929190612a3c565b600060405180830381865afa158015611363573d6000803e3d6000fd5b505050506040513d6000823e601f3d908101601f1916820160405261138b9190810190612a86565b91945090925090505b60608601511561141557848487606001518584866040518563ffffffff1660e01b81526004016113c79493929190612a3c565b600060405180830381865afa1580156113e4573d6000803e3d6000fd5b505050506040513d6000823e601f3d908101601f1916820160405261140c9190810190612a86565b91945090925090505b93509350939050565b606060405180610100016040528060d28152602001612fa760d291398260405160200161144c929190612b17565b6040516020818303038152906040529050919050565b606060006114fb60008001805461147890612a02565b80601f01602080910402602001604051908101604052809291908181526020018280546114a490612a02565b80156114f15780601f106114c6576101008083540402835291602001916114f1565b820191906000526020600020905b8154815290600101906020018083116114d457829003601f168201915b5050505050611773565b905060006115088261022b565b90508060405160200161151b9190612b57565b6040516020818303038152906040529250505090565b60608060608760200151156116515760a08801516040516301be83d160e11b81526115cd9173__$4987fe9f4e800c5c4c1535f64ed232842a$__9163037d07a29161157e916004016128d2565b600060405180830381865af415801561159b573d6000803e3d6000fd5b505050506040513d6000823e601f3d908101601f191682016040526115c3919081019061294a565b8860200151611c1b565b6115fb6040518060400160405280600781526020016621b932b0ba37b960c91b815250896101000151611c1b565b6116296040518060400160405280600781526020016652656c6561736560c81b8152508a6101200151611c1b565b60405160200161163b93929190612bc1565b60405160208183030381529060405290506116a2565b6040518060400160405280600f81526020016e2261747472696275746573223a5b5d60881b81525090506040518060400160405280600b81526020016a1e39bb339f1e17b9bb339f60a91b81525094505b6116cc86866040516020016116b8929190612867565b60405160208183030381529060405261141e565b915060006116d983611c48565b6040516020016116e99190612c44565b604051602081830303815290604052905060006117058b611c56565b86516117108d611c56565b6020808a015160405161172a959493928991899101612ca0565b604051602081830303815290604052905061174481611c48565b6040516020016117549190612d85565b6040516020818303038152906040529450505050509695505050505050565b8051604080516111948082526111c08201909252606092916000919060208201818036833701905050905060006117ab6005846126d7565b905060005b818110156119bb5760006117c5826005612dca565b905060008782815181106117db576117db612695565b016020015160f81c90506000886117f38460016126ff565b8151811061180357611803612695565b016020015160f81c9050600060ff831661181e83601e612dca565b61182891906126ff565b611833906005612dca565b905089848151811061184757611847612695565b602001015160f81c60f81b87828151811061186457611864612695565b60200101906001600160f81b031916908160001a90535089846001018151811061189057611890612695565b602001015160f81c60f81b8782600101815181106118b0576118b0612695565b60200101906001600160f81b031916908160001a9053508984600201815181106118dc576118dc612695565b602001015160f81c60f81b8782600201815181106118fc576118fc612695565b60200101906001600160f81b031916908160001a90535089846003018151811061192857611928612695565b602001015160f81c60f81b87826003018151811061194857611948612695565b60200101906001600160f81b031916908160001a90535089846004018151811061197457611974612695565b602001015160f81c60f81b87826004018151811061199457611994612695565b60200101906001600160f81b031916908160001a90535050600190930192506117b0915050565b5090949350505050565b606060006119d283611773565b905060006119df8261022b565b9050806040516020016119f29190612de1565b60405160208183030381529060405292505050919050565b606080606080606080611a1e888d89611ab9565b8c519095509193509150600003611a3d57819550829450809350611aaa565b8a82604051602001611a50929190612867565b60405160208183030381529060405295508983604051602001611a74929190612896565b60405160208183030381529060405294508881604051602001611a98929190612867565b60405160208183030381529060405293505b50505096509650969350505050565b606080606085602001518015611acf5750600085115b15611b7e57611ae184608001516119c5565b9250611b7073__$4987fe9f4e800c5c4c1535f64ed232842a$__63037d07a286604001516040518263ffffffff1660e01b8152600401611b2191906128d2565b600060405180830381865af4158015611b3e573d6000803e3d6000fd5b505050506040513d6000823e601f3d908101601f19168201604052611b66919081019061294a565b8560200151611c1b565b90508360a001519150611415565b6040518060400160405280600b81526020016a1e39bb339f1e17b9bb339f60a91b8152509250604051806040016040528060028152602001617b7d60f01b815250905060405180602001604052806000815250915093509350939050565b6000611be88382612e76565b506001611bf58282612e76565b505050565b606060405180610100016040528060d28152602001612fa760d29139905090565b60608282604051602001611c30929190612f35565b60405160208183030381529060405290505b92915050565b6060611c4282600080611c9a565b60606080604051019050602081016040526000815280600019835b928101926030600a8206018453600a900480611c71575050819003601f19909101908152919050565b606083518015611d7a576003600282010460021b60405192507f4142434445464748494a4b4c4d4e4f505152535455565758595a616263646566601f526106708515027f6768696a6b6c6d6e6f707172737475767778797a303132333435363738392d5f18603f52602083018181015b6003880197508751603f8160121c1651600053603f81600c1c1651600153603f8160061c1651600253603f811651600353506000518252600482019150808210611d0a57602001604052613d3d60f01b600384066002048083039190915260008615159091029182900352900382525b509392505050565b634e487b7160e01b600052604160045260246000fd5b60405161014081016001600160401b0381118282101715611dbb57611dbb611d82565b60405290565b60405161018081016001600160401b0381118282101715611dbb57611dbb611d82565b604051601f8201601f191681016001600160401b0381118282101715611e0c57611e0c611d82565b604052919050565b60006001600160401b03821115611e2d57611e2d611d82565b50601f01601f191660200190565b600082601f830112611e4c57600080fd5b8135611e5f611e5a82611e14565b611de4565b818152846020838601011115611e7457600080fd5b816020850160208301376000918101602001919091529392505050565b600060208284031215611ea357600080fd5b81356001600160401b03811115611eb957600080fd5b611ec584828501611e3b565b949350505050565b60005b83811015611ee8578181015183820152602001611ed0565b50506000910152565b60008151808452611f09816020860160208601611ecd565b601f01601f19169290920160200192915050565b602081526000611f306020830184611ef1565b9392505050565b80358015158114611f4757600080fd5b919050565b80356001600160a01b0381168114611f4757600080fd5b803560088110611f4757600080fd5b600060c08284031215611f8457600080fd5b60405160c081018181106001600160401b0382111715611fa657611fa6611d82565b60405282358152905080611fbc60208401611f37565b602082015260408301356040820152611fd760608401611f4c565b606082015260808301356080820152611ff260a08401611f63565b60a08201525092915050565b6000610140828403121561201157600080fd5b612019611d98565b90508135815260208201356001600160401b038082111561203957600080fd5b61204585838601611e3b565b602084015261205660408501611f63565b6040840152606084013591508082111561206f57600080fd5b61207b85838601611e3b565b6060840152608084013591508082111561209457600080fd5b6120a085838601611e3b565b608084015260a08401359150808211156120b957600080fd5b6120c585838601611e3b565b60a08401526120d660c08501611f4c565b60c08401526120e760e08501611f4c565b60e08401526101009150818401358181111561210257600080fd5b61210e86828701611e3b565b83850152506101209150818401358181111561212957600080fd5b61213586828701611e3b565b8385015250505092915050565b6000806000806000610140868803121561215b57600080fd5b8535945060208601356001600160401b038082111561217957600080fd5b61218589838a01611e3b565b9550604088013591508082111561219b57600080fd5b6121a789838a01611e3b565b94506121b68960608a01611f72565b93506101208801359150808211156121cd57600080fd5b506121da88828901611ffe565b9150509295509295909350565b6040815260006121fa6040830185611ef1565b828103602084015261220c8185611ef1565b95945050505050565b6000806000610100848603121561222b57600080fd5b6122358585611f72565b925060c0840135915060e08401356001600160401b0381111561225757600080fd5b61226386828701611ffe565b9150509250925092565b803563ffffffff81168114611f4757600080fd5b803560ff81168114611f4757600080fd5b600061018082840312156122a557600080fd5b6122ad611dc1565b9050813581526020820135602082015260408201356040820152606082013560608201526080820135608082015260a082013560a082015260c082013560c08201526122fb60e0830161226d565b60e08201526101008281013590820152610120612319818401612281565b90820152610140828101356001600160401b0381111561233857600080fd5b61234485828601611e3b565b828401525050610160612358818401611f37565b9082015292915050565b67ffffffffffffffff198116811461237957600080fd5b50565b60008060006040848603121561239157600080fd5b83356001600160401b038111156123a757600080fd5b6123b386828701612292565b93505060208401356123c481612362565b9295606084901c955060409390931c63ffffffff1693505050565b6060815260006123f26060830186611ef1565b82810360208401526124048186611ef1565b905082810360408401526124188185611ef1565b9695505050505050565b600082601f83011261243357600080fd5b604051604081016001600160401b03828210818311171561245657612456611d82565b6040918252829185018681111561246c57600080fd5b855b818110156124a1578035838111156124865760008081fd5b61249289828a01611e3b565b8552506020938401930161246e565b50929695505050505050565b60008060008060008061016087890312156124c757600080fd5b863595506124d88860208901611f72565b945060e08701356001600160401b03808211156124f457600080fd5b6125008a838b01611ffe565b955061010089013591508082111561251757600080fd5b6125238a838b01611e3b565b945061012089013591508082111561253a57600080fd5b6125468a838b01611e3b565b935061014089013591508082111561255d57600080fd5b5061256a89828a01612422565b9150509295509295509295565b600080600080600080610160878903121561259157600080fd5b8635955060208701356001600160401b03808211156125af57600080fd5b6125bb8a838b01611e3b565b965060408901359150808211156125d157600080fd5b6125dd8a838b01611e3b565b955060608901359150808211156125f357600080fd5b6125ff8a838b01611e3b565b945061260e8a60808b01611f72565b935061014089013591508082111561262557600080fd5b5061256a89828a01611ffe565b6000806040838503121561264557600080fd5b82356001600160401b038082111561265c57600080fd5b61266886838701611e3b565b9350602085013591508082111561267e57600080fd5b5061268b85828601611e3b565b9150509250929050565b634e487b7160e01b600052603260045260246000fd5b634e487b7160e01b600052601260045260246000fd5b634e487b7160e01b600052601160045260246000fd5b6000826126e6576126e66126ab565b500490565b6000826126fa576126fa6126ab565b500690565b80820180821115611c4257611c426126c1565b60008151612724818560208601611ecd565b9290920192915050565b6000875160206127418285838d01611ecd565b8851918401916127548184848d01611ecd565b88519201916127668184848c01611ecd565b87519201916127788184848b01611ecd565b865192019161278a8184848a01611ecd565b855192019161279c8184848901611ecd565b919091019998505050505050505050565b600085516127bf818460208a01611ecd565b681e3932b1ba103c1e9160b91b90830190815285516127e5816009840160208a01611ecd565b6411103c9e9160d91b60099290910191820152845161280b81600e840160208901611ecd565b7f222077696474683d223122206865696768743d2231222066696c6c3d22230000600e9290910191820152835161284981602c840160208801611ecd565b6211179f60e91b602c9290910191820152602f019695505050505050565b60008351612879818460208801611ecd565b83519083019061288d818360208801611ecd565b01949350505050565b600083516128a8818460208801611ecd565b600b60fa1b90830190815283516128c6816001840160208801611ecd565b01600101949350505050565b60208101600883106128f457634e487b7160e01b600052602160045260246000fd5b91905290565b6000612908611e5a84611e14565b905082815283838301111561291c57600080fd5b611f30836020830184611ecd565b600082601f83011261293b57600080fd5b611f30838351602085016128fa565b60006020828403121561295c57600080fd5b81516001600160401b0381111561297257600080fd5b611ec58482850161292a565b8381526060602082015260006129976060830185611ef1565b82810360408401526124188185611ef1565b600080604083850312156129bc57600080fd5b82516001600160401b03808211156129d357600080fd5b6129df8683870161292a565b935060208501519150808211156129f557600080fd5b5061268b8582860161292a565b600181811c90821680612a1657607f821691505b602082108103612a3657634e487b7160e01b600052602260045260246000fd5b50919050565b848152608060208201526000612a556080830186611ef1565b8281036040840152612a678186611ef1565b90508281036060840152612a7b8185611ef1565b979650505050505050565b600080600060608486031215612a9b57600080fd5b83516001600160401b0380821115612ab257600080fd5b612abe8783880161292a565b94506020860151915080821115612ad457600080fd5b612ae08783880161292a565b93506040860151915080821115612af657600080fd5b508401601f81018613612b0857600080fd5b612263868251602084016128fa565b60008351612b29818460208801611ecd565b835190830190612b3d818360208801611ecd565b651e17b9bb339f60d11b9101908152600601949350505050565b7f3c672069643d2267686f73742220636c6173733d226722207374796c653d226f81526d3830b1b4ba3c9d101a98129d911f60911b602082015260008251612ba681602e850160208701611ecd565b631e17b39f60e11b602e939091019283015250603201919050565b6d2261747472696275746573223a5b60901b81528351600090612beb81600e850160208901611ecd565b8083019050600b60fa1b80600e8301528551612c0e81600f850160208a01611ecd565b600f9201918201528351612c29816010840160208801611ecd565b605d60f81b6010929091019182015260110195945050505050565b7f22696d616765223a22646174613a696d6167652f7376672b786d6c3b626173658152620d8d0b60ea1b602082015260008251612c88816023850160208701611ecd565b601160f91b6023939091019283015250602401919050565b757b226e616d65223a2243686f6e6b205472616974202360501b81528651600090612cd2816016850160208c01611ecd565b701116113232b9b1b934b83a34b7b7111d1160791b6016918401918201528751612d03816027840160208c01611ecd565b8751910190612d19816027840160208b01611ecd565b8651910190612d2f816027840160208a01611ecd565b61088b60f21b602792909101918201528451612d52816029840160208901611ecd565b600b60fa1b60299290910191820152612d6e602a820185612712565b607d60f81b81526001019998505050505050505050565b7f646174613a6170706c69636174696f6e2f6a736f6e3b6261736536342c000000815260008251612dbd81601d850160208701611ecd565b91909101601d0192915050565b8082028115828204841417611c4257611c426126c1565b6d1e339034b21e912a3930b4ba111f60911b81528151600090612e0b81600e850160208701611ecd565b631e17b39f60e11b600e939091019283015250601201919050565b601f821115611bf5576000816000526020600020601f850160051c81016020861015612e4f5750805b601f850160051c820191505b81811015612e6e57828155600101612e5b565b505050505050565b81516001600160401b03811115612e8f57612e8f611d82565b612ea381612e9d8454612a02565b84612e26565b602080601f831160018114612ed85760008415612ec05750858301515b600019600386901b1c1916600185901b178555612e6e565b600085815260208120601f198616915b82811015612f0757888601518255948401946001909101908401612ee8565b5085821015612f255787850151600019600388901b60f8161c191681555b5050505050600190811b01905550565b6e3d913a3930b4ba2fba3cb832911d1160891b81528251600090612f6081600f850160208801611ecd565b6a1116113b30b63ab2911d1160a91b600f918401918201528351612f8b81601a840160208801611ecd565b61227d60f01b601a9290910191820152601c0194935050505056fe3c7376672073686170652d72656e646572696e673d2263726973704564676573222076696577426f783d22302030203330203330222066696c6c3d226e6f6e652220786d6c6e733d22687474703a2f2f7777772e77332e6f72672f323030302f737667223e3c7374796c653e726563747b77696474683a3170783b206865696768743a203170783b7d202e62677b77696474683a333070783b206865696768743a20333070783b7d203c2f7374796c653e3c7265637420636c6173733d226267222066696c6c3d2223304436453944222f3ea264697066735822122014bb996609ceb94421d9d9eb9fed9675bccf8da810966e4fff22a45d50d5379f64736f6c63430008160033","linkReferences":{"src/TraitCategory.sol":{"TraitCategory":[{"start":28841,"length":20},{"start":31452,"length":20},{"start":32876,"length":20}]}}},"methodIdentifiers":{"addApprovedInvalidator(address)":"f677c013","addMinter(address)":"983b2d56","approve(address,uint256)":"095ea7b3","approvedInvalidators(address)":"b3148f75","balanceOf(address)":"70a08231","burn(uint256)":"42966c68","burnBatch(uint256[])":"e4623c1b","callGetSVGZmapAndMetadataTrait(uint256,string,string,bytes)":"f1271942","callGetSvgAndMetadataTrait(uint256,string,string)":"e08714a6","cancelOwnershipHandover()":"54d1f13d","chonksMain()":"ba7270f3","completeOwnershipHandover(address)":"f04e283e","createSvgFromPixels(bytes)":"21b12c23","getApproved(uint256)":"081812fc","getApprovedOperators(uint256)":"00db6348","getCurrentEpoch()":"b97dd9e2","getEpoch()":"757991a8","getEpochData(uint256)":"859e7d32","getGhostSvg()":"5c1ef256","getSVGZmapAndMetadataTrait((uint256,bool,uint256,address,uint256,uint8),uint256)":"f901667f","getStoredTraitForTokenId(uint256)":"208c25a3","getSvgAndMetadata((uint256,uint256,uint256,uint256,uint256,uint256,uint256,uint32,uint256,uint8,string,bool))":"df2c2b88","getSvgAndMetadataTrait((uint256,bool,uint256,address,uint256,uint8),uint256)":"33a70328","getSvgForTokenId(uint256)":"c7791531","getSvgZmapsAndMetadata((uint256,uint256,uint256,uint256,uint256,uint256,uint256,uint32,uint256,uint8,string,bool))":"bb12d21d","getTrait(uint256)":"acb586df","getTraitImageSvg(uint256)":"a5e2912a","getTraitIndexToMetadata(uint256)":"ea139544","getTraitMetadata(uint256)":"d1bfc2af","getTraitType(uint256)":"e8a1268d","getZMapForTokenId(uint256)":"a8498c74","invalidateAllOperatorApprovals(uint256)":"90f63842","isApprovedForAll(address,address)":"e985e9c5","isMinter(address)":"aa271e1a","marketplace()":"abc8c7af","mintStartTime()":"931e2e49","name()":"06fdde03","nextTokenId()":"75794a3c","owner()":"8da5cb5b","ownerOf(uint256)":"6352211e","ownershipHandoverExpiresAt(address)":"fee81cf4","removeApprovedInvalidator(address)":"cde2180a","removeMinter(address)":"3092afd5","renderAsDataUri(uint256)":"a1d62680","renounceOwnership()":"715018a6","requestOwnershipHandover()":"25692962","resolveEpochIfNecessary()":"239ffa68","safeMint(address)":"40d097c3","safeTransferFrom(address,address,uint256)":"42842e0e","safeTransferFrom(address,address,uint256,bytes)":"b88d4fde","setApprovalForAll(address,bool)":"a22cb465","setChonksMain(address)":"713dbc27","setDescriptionParts(string[2])":"26f2052a","setGhostMaps(bytes,bytes)":"e1defed9","setMarketplace(address)":"73ad6c2d","setMintStartTime(uint256)":"d5b3621b","setTraitForTokenId(uint256,(uint256,bool,uint256,address,uint256,uint8))":"36d34ab9","setTraitIndexToMetadata(uint256,(uint256,string,uint8,string,bytes,bytes,address,address,string,string))":"8d37c537","setTraitRenderer(address)":"120def24","supportsInterface(bytes4)":"01ffc9a7","symbol()":"95d89b41","tokenByIndex(uint256)":"4f6ccce7","tokenOfOwnerByIndex(address,uint256)":"2f745c59","tokenURI(uint256)":"c87b56dd","totalSupply()":"18160ddd","traitIdToApprovedOperators(uint256,uint256)":"11f3910d","traitIndexToMetadata(uint256)":"817a29a4","traitRenderer()":"c876371b","traitTokens()":"e14d026f","transferFrom(address,address,uint256)":"23b872dd","transferOwnership(address)":"f2fde38b","walletOfOwner(address)":"438b6300"},"id":41}