{"abi":[{"type":"constructor","inputs":[{"name":"localDeploy_","type":"bool","internalType":"bool"}],"stateMutability":"nonpayable"},{"type":"function","name":"addApprovedInvalidator","inputs":[{"name":"_invalidator","type":"address","internalType":"address"}],"outputs":[],"stateMutability":"nonpayable"},{"type":"function","name":"addMinter","inputs":[{"name":"_minter","type":"address","internalType":"address"}],"outputs":[],"stateMutability":"nonpayable"},{"type":"function","name":"approve","inputs":[{"name":"_operator","type":"address","internalType":"address"},{"name":"_tokenId","type":"uint256","internalType":"uint256"}],"outputs":[],"stateMutability":"nonpayable"},{"type":"function","name":"approvedInvalidators","inputs":[{"name":"","type":"address","internalType":"address"}],"outputs":[{"name":"","type":"bool","internalType":"bool"}],"stateMutability":"view"},{"type":"function","name":"balanceOf","inputs":[{"name":"owner","type":"address","internalType":"address"}],"outputs":[{"name":"","type":"uint256","internalType":"uint256"}],"stateMutability":"view"},{"type":"function","name":"burn","inputs":[{"name":"_tokenId","type":"uint256","internalType":"uint256"}],"outputs":[],"stateMutability":"nonpayable"},{"type":"function","name":"burnBatch","inputs":[{"name":"tokenIds","type":"uint256[]","internalType":"uint256[]"}],"outputs":[],"stateMutability":"nonpayable"},{"type":"function","name":"callGetSVGZmapAndMetadataTrait","inputs":[{"name":"_traitId","type":"uint256","internalType":"uint256"},{"name":"_traitsSvg","type":"string","internalType":"string"},{"name":"_traitsAttributes","type":"string","internalType":"string"},{"name":"_traitZMaps","type":"bytes","internalType":"bytes"}],"outputs":[{"name":"traitsSvg","type":"string","internalType":"string"},{"name":"traitsAttributes","type":"string","internalType":"string"},{"name":"traitZMaps","type":"bytes","internalType":"bytes"}],"stateMutability":"view"},{"type":"function","name":"callGetSvgAndMetadataTrait","inputs":[{"name":"_traitId","type":"uint256","internalType":"uint256"},{"name":"_traitsSvg","type":"string","internalType":"string"},{"name":"_traitsAttributes","type":"string","internalType":"string"}],"outputs":[{"name":"traitsSvg","type":"string","internalType":"string"},{"name":"traitsAttributes","type":"string","internalType":"string"}],"stateMutability":"view"},{"type":"function","name":"cancelOwnershipHandover","inputs":[],"outputs":[],"stateMutability":"payable"},{"type":"function","name":"chonksMain","inputs":[],"outputs":[{"name":"","type":"address","internalType":"contract ChonksMain"}],"stateMutability":"view"},{"type":"function","name":"completeOwnershipHandover","inputs":[{"name":"pendingOwner","type":"address","internalType":"address"}],"outputs":[],"stateMutability":"payable"},{"type":"function","name":"createSvgFromPixels","inputs":[{"name":"_pixels","type":"bytes","internalType":"bytes"}],"outputs":[{"name":"svgParts","type":"bytes","internalType":"bytes"}],"stateMutability":"view"},{"type":"function","name":"getApproved","inputs":[{"name":"tokenId","type":"uint256","internalType":"uint256"}],"outputs":[{"name":"","type":"address","internalType":"address"}],"stateMutability":"view"},{"type":"function","name":"getApprovedOperators","inputs":[{"name":"traitId","type":"uint256","internalType":"uint256"}],"outputs":[{"name":"","type":"address[]","internalType":"address[]"}],"stateMutability":"view"},{"type":"function","name":"getCurrentEpoch","inputs":[],"outputs":[{"name":"","type":"uint256","internalType":"uint256"}],"stateMutability":"view"},{"type":"function","name":"getEpoch","inputs":[],"outputs":[{"name":"","type":"uint256","internalType":"uint256"}],"stateMutability":"view"},{"type":"function","name":"getEpochData","inputs":[{"name":"index","type":"uint256","internalType":"uint256"}],"outputs":[{"name":"","type":"tuple","internalType":"struct CommitReveal.Epoch","components":[{"name":"randomness","type":"uint128","internalType":"uint128"},{"name":"revealBlock","type":"uint64","internalType":"uint64"},{"name":"committed","type":"bool","internalType":"bool"},{"name":"revealed","type":"bool","internalType":"bool"}]}],"stateMutability":"view"},{"type":"function","name":"getGhostSvg","inputs":[],"outputs":[{"name":"svg","type":"string","internalType":"string"}],"stateMutability":"view"},{"type":"function","name":"getSVGZmapAndMetadataTrait","inputs":[{"name":"trait","type":"tuple","internalType":"struct ITraitStorage.StoredTrait","components":[{"name":"epoch","type":"uint256","internalType":"uint256"},{"name":"isRevealed","type":"bool","internalType":"bool"},{"name":"seed","type":"uint256","internalType":"uint256"},{"name":"renderMinterContract","type":"address","internalType":"address"},{"name":"traitIndex","type":"uint256","internalType":"uint256"},{"name":"traitType","type":"uint8","internalType":"enum TraitCategory.Name"}]},{"name":"traitId","type":"uint256","internalType":"uint256"}],"outputs":[{"name":"traitSvg","type":"string","internalType":"string"},{"name":"traitZmap","type":"bytes","internalType":"bytes"},{"name":"traitAttributes","type":"string","internalType":"string"}],"stateMutability":"view"},{"type":"function","name":"getStoredTraitForTokenId","inputs":[{"name":"_tokenId","type":"uint256","internalType":"uint256"}],"outputs":[{"name":"","type":"tuple","internalType":"struct ITraitStorage.StoredTrait","components":[{"name":"epoch","type":"uint256","internalType":"uint256"},{"name":"isRevealed","type":"bool","internalType":"bool"},{"name":"seed","type":"uint256","internalType":"uint256"},{"name":"renderMinterContract","type":"address","internalType":"address"},{"name":"traitIndex","type":"uint256","internalType":"uint256"},{"name":"traitType","type":"uint8","internalType":"enum TraitCategory.Name"}]}],"stateMutability":"view"},{"type":"function","name":"getSvgAndMetadata","inputs":[{"name":"storedChonk","type":"tuple","internalType":"struct IChonkStorage.StoredChonk","components":[{"name":"headId","type":"uint256","internalType":"uint256"},{"name":"hairId","type":"uint256","internalType":"uint256"},{"name":"faceId","type":"uint256","internalType":"uint256"},{"name":"accessoryId","type":"uint256","internalType":"uint256"},{"name":"topId","type":"uint256","internalType":"uint256"},{"name":"bottomId","type":"uint256","internalType":"uint256"},{"name":"shoesId","type":"uint256","internalType":"uint256"},{"name":"epoch","type":"uint32","internalType":"uint32"},{"name":"tokenId","type":"uint256","internalType":"uint256"},{"name":"bodyIndex","type":"uint8","internalType":"uint8"},{"name":"backgroundColor","type":"string","internalType":"string"},{"name":"render3D","type":"bool","internalType":"bool"}]}],"outputs":[{"name":"traitsSvg","type":"string","internalType":"string"},{"name":"traitsAttributes","type":"string","internalType":"string"}],"stateMutability":"view"},{"type":"function","name":"getSvgAndMetadataTrait","inputs":[{"name":"trait","type":"tuple","internalType":"struct ITraitStorage.StoredTrait","components":[{"name":"epoch","type":"uint256","internalType":"uint256"},{"name":"isRevealed","type":"bool","internalType":"bool"},{"name":"seed","type":"uint256","internalType":"uint256"},{"name":"renderMinterContract","type":"address","internalType":"address"},{"name":"traitIndex","type":"uint256","internalType":"uint256"},{"name":"traitType","type":"uint8","internalType":"enum TraitCategory.Name"}]},{"name":"traitId","type":"uint256","internalType":"uint256"}],"outputs":[{"name":"traitSvg","type":"string","internalType":"string"},{"name":"traitAttributes","type":"string","internalType":"string"}],"stateMutability":"view"},{"type":"function","name":"getSvgForTokenId","inputs":[{"name":"_tokenId","type":"uint256","internalType":"uint256"}],"outputs":[{"name":"traitSvg","type":"string","internalType":"string"}],"stateMutability":"view"},{"type":"function","name":"getSvgZmapsAndMetadata","inputs":[{"name":"storedChonk","type":"tuple","internalType":"struct IChonkStorage.StoredChonk","components":[{"name":"headId","type":"uint256","internalType":"uint256"},{"name":"hairId","type":"uint256","internalType":"uint256"},{"name":"faceId","type":"uint256","internalType":"uint256"},{"name":"accessoryId","type":"uint256","internalType":"uint256"},{"name":"topId","type":"uint256","internalType":"uint256"},{"name":"bottomId","type":"uint256","internalType":"uint256"},{"name":"shoesId","type":"uint256","internalType":"uint256"},{"name":"epoch","type":"uint32","internalType":"uint32"},{"name":"tokenId","type":"uint256","internalType":"uint256"},{"name":"bodyIndex","type":"uint8","internalType":"uint8"},{"name":"backgroundColor","type":"string","internalType":"string"},{"name":"render3D","type":"bool","internalType":"bool"}]}],"outputs":[{"name":"traitsSvg","type":"string","internalType":"string"},{"name":"traitZMaps","type":"bytes","internalType":"bytes"},{"name":"traitsAttributes","type":"string","internalType":"string"}],"stateMutability":"view"},{"type":"function","name":"getTrait","inputs":[{"name":"_tokenId","type":"uint256","internalType":"uint256"}],"outputs":[{"name":"","type":"tuple","internalType":"struct ITraitStorage.StoredTrait","components":[{"name":"epoch","type":"uint256","internalType":"uint256"},{"name":"isRevealed","type":"bool","internalType":"bool"},{"name":"seed","type":"uint256","internalType":"uint256"},{"name":"renderMinterContract","type":"address","internalType":"address"},{"name":"traitIndex","type":"uint256","internalType":"uint256"},{"name":"traitType","type":"uint8","internalType":"enum TraitCategory.Name"}]}],"stateMutability":"view"},{"type":"function","name":"getTraitImageSvg","inputs":[{"name":"index","type":"uint256","internalType":"uint256"}],"outputs":[{"name":"svg","type":"string","internalType":"string"}],"stateMutability":"view"},{"type":"function","name":"getTraitIndexToMetadata","inputs":[{"name":"_traitIndex","type":"uint256","internalType":"uint256"}],"outputs":[{"name":"","type":"tuple","internalType":"struct ITraitStorage.TraitMetadata","components":[{"name":"traitIndex","type":"uint256","internalType":"uint256"},{"name":"traitName","type":"string","internalType":"string"},{"name":"traitType","type":"uint8","internalType":"enum TraitCategory.Name"},{"name":"animations","type":"string","internalType":"string"},{"name":"colorMap","type":"bytes","internalType":"bytes"},{"name":"zMap","type":"bytes","internalType":"bytes"},{"name":"renderMinterContract","type":"address","internalType":"address"},{"name":"creatorAddress","type":"address","internalType":"address"},{"name":"creatorName","type":"string","internalType":"string"},{"name":"release","type":"string","internalType":"string"}]}],"stateMutability":"view"},{"type":"function","name":"getTraitMetadata","inputs":[{"name":"_tokenId","type":"uint256","internalType":"uint256"}],"outputs":[{"name":"","type":"tuple","internalType":"struct ITraitStorage.TraitMetadata","components":[{"name":"traitIndex","type":"uint256","internalType":"uint256"},{"name":"traitName","type":"string","internalType":"string"},{"name":"traitType","type":"uint8","internalType":"enum TraitCategory.Name"},{"name":"animations","type":"string","internalType":"string"},{"name":"colorMap","type":"bytes","internalType":"bytes"},{"name":"zMap","type":"bytes","internalType":"bytes"},{"name":"renderMinterContract","type":"address","internalType":"address"},{"name":"creatorAddress","type":"address","internalType":"address"},{"name":"creatorName","type":"string","internalType":"string"},{"name":"release","type":"string","internalType":"string"}]}],"stateMutability":"view"},{"type":"function","name":"getZMapForTokenId","inputs":[{"name":"_tokenId","type":"uint256","internalType":"uint256"}],"outputs":[{"name":"","type":"string","internalType":"string"}],"stateMutability":"view"},{"type":"function","name":"invalidateAllOperatorApprovals","inputs":[{"name":"_tokenId","type":"uint256","internalType":"uint256"}],"outputs":[],"stateMutability":"nonpayable"},{"type":"function","name":"isApprovedForAll","inputs":[{"name":"owner","type":"address","internalType":"address"},{"name":"operator","type":"address","internalType":"address"}],"outputs":[{"name":"","type":"bool","internalType":"bool"}],"stateMutability":"view"},{"type":"function","name":"isMinter","inputs":[{"name":"","type":"address","internalType":"address"}],"outputs":[{"name":"","type":"bool","internalType":"bool"}],"stateMutability":"view"},{"type":"function","name":"marketplace","inputs":[],"outputs":[{"name":"","type":"address","internalType":"contract ChonksMarket"}],"stateMutability":"view"},{"type":"function","name":"mintStartTime","inputs":[],"outputs":[{"name":"","type":"uint256","internalType":"uint256"}],"stateMutability":"view"},{"type":"function","name":"name","inputs":[],"outputs":[{"name":"","type":"string","internalType":"string"}],"stateMutability":"view"},{"type":"function","name":"nextTokenId","inputs":[],"outputs":[{"name":"","type":"uint256","internalType":"uint256"}],"stateMutability":"view"},{"type":"function","name":"owner","inputs":[],"outputs":[{"name":"result","type":"address","internalType":"address"}],"stateMutability":"view"},{"type":"function","name":"ownerOf","inputs":[{"name":"tokenId","type":"uint256","internalType":"uint256"}],"outputs":[{"name":"","type":"address","internalType":"address"}],"stateMutability":"view"},{"type":"function","name":"ownershipHandoverExpiresAt","inputs":[{"name":"pendingOwner","type":"address","internalType":"address"}],"outputs":[{"name":"result","type":"uint256","internalType":"uint256"}],"stateMutability":"view"},{"type":"function","name":"removeApprovedInvalidator","inputs":[{"name":"_invalidator","type":"address","internalType":"address"}],"outputs":[],"stateMutability":"nonpayable"},{"type":"function","name":"removeMinter","inputs":[{"name":"_minter","type":"address","internalType":"address"}],"outputs":[],"stateMutability":"nonpayable"},{"type":"function","name":"renderAsDataUri","inputs":[{"name":"_tokenId","type":"uint256","internalType":"uint256"}],"outputs":[{"name":"","type":"string","internalType":"string"}],"stateMutability":"view"},{"type":"function","name":"renounceOwnership","inputs":[],"outputs":[],"stateMutability":"payable"},{"type":"function","name":"requestOwnershipHandover","inputs":[],"outputs":[],"stateMutability":"payable"},{"type":"function","name":"resolveEpochIfNecessary","inputs":[],"outputs":[],"stateMutability":"nonpayable"},{"type":"function","name":"safeMint","inputs":[{"name":"_to","type":"address","internalType":"address"}],"outputs":[{"name":"","type":"uint256","internalType":"uint256"}],"stateMutability":"nonpayable"},{"type":"function","name":"safeTransferFrom","inputs":[{"name":"from","type":"address","internalType":"address"},{"name":"to","type":"address","internalType":"address"},{"name":"tokenId","type":"uint256","internalType":"uint256"}],"outputs":[],"stateMutability":"nonpayable"},{"type":"function","name":"safeTransferFrom","inputs":[{"name":"from","type":"address","internalType":"address"},{"name":"to","type":"address","internalType":"address"},{"name":"tokenId","type":"uint256","internalType":"uint256"},{"name":"data","type":"bytes","internalType":"bytes"}],"outputs":[],"stateMutability":"nonpayable"},{"type":"function","name":"setApprovalForAll","inputs":[{"name":"_operator","type":"address","internalType":"address"},{"name":"_approved","type":"bool","internalType":"bool"}],"outputs":[],"stateMutability":"nonpayable"},{"type":"function","name":"setChonksMain","inputs":[{"name":"_ChonksMain","type":"address","internalType":"address"}],"outputs":[],"stateMutability":"nonpayable"},{"type":"function","name":"setDescriptionParts","inputs":[{"name":"_descriptionParts","type":"string[2]","internalType":"string[2]"}],"outputs":[],"stateMutability":"nonpayable"},{"type":"function","name":"setGhostMaps","inputs":[{"name":"_colorMap","type":"bytes","internalType":"bytes"},{"name":"_zMap","type":"bytes","internalType":"bytes"}],"outputs":[],"stateMutability":"nonpayable"},{"type":"function","name":"setMarketplace","inputs":[{"name":"_marketplace","type":"address","internalType":"address"}],"outputs":[],"stateMutability":"nonpayable"},{"type":"function","name":"setMintStartTime","inputs":[{"name":"_mintStartTime","type":"uint256","internalType":"uint256"}],"outputs":[],"stateMutability":"nonpayable"},{"type":"function","name":"setTraitForTokenId","inputs":[{"name":"_tokenId","type":"uint256","internalType":"uint256"},{"name":"_trait","type":"tuple","internalType":"struct ITraitStorage.StoredTrait","components":[{"name":"epoch","type":"uint256","internalType":"uint256"},{"name":"isRevealed","type":"bool","internalType":"bool"},{"name":"seed","type":"uint256","internalType":"uint256"},{"name":"renderMinterContract","type":"address","internalType":"address"},{"name":"traitIndex","type":"uint256","internalType":"uint256"},{"name":"traitType","type":"uint8","internalType":"enum TraitCategory.Name"}]}],"outputs":[],"stateMutability":"nonpayable"},{"type":"function","name":"setTraitIndexToMetadata","inputs":[{"name":"_traitIndex","type":"uint256","internalType":"uint256"},{"name":"_metadata","type":"tuple","internalType":"struct ITraitStorage.TraitMetadata","components":[{"name":"traitIndex","type":"uint256","internalType":"uint256"},{"name":"traitName","type":"string","internalType":"string"},{"name":"traitType","type":"uint8","internalType":"enum TraitCategory.Name"},{"name":"animations","type":"string","internalType":"string"},{"name":"colorMap","type":"bytes","internalType":"bytes"},{"name":"zMap","type":"bytes","internalType":"bytes"},{"name":"renderMinterContract","type":"address","internalType":"address"},{"name":"creatorAddress","type":"address","internalType":"address"},{"name":"creatorName","type":"string","internalType":"string"},{"name":"release","type":"string","internalType":"string"}]}],"outputs":[],"stateMutability":"nonpayable"},{"type":"function","name":"setTraitRenderer","inputs":[{"name":"_traitRenderer","type":"address","internalType":"address"}],"outputs":[],"stateMutability":"nonpayable"},{"type":"function","name":"supportsInterface","inputs":[{"name":"interfaceId","type":"bytes4","internalType":"bytes4"}],"outputs":[{"name":"","type":"bool","internalType":"bool"}],"stateMutability":"view"},{"type":"function","name":"symbol","inputs":[],"outputs":[{"name":"","type":"string","internalType":"string"}],"stateMutability":"view"},{"type":"function","name":"tokenByIndex","inputs":[{"name":"index","type":"uint256","internalType":"uint256"}],"outputs":[{"name":"","type":"uint256","internalType":"uint256"}],"stateMutability":"view"},{"type":"function","name":"tokenOfOwnerByIndex","inputs":[{"name":"owner","type":"address","internalType":"address"},{"name":"index","type":"uint256","internalType":"uint256"}],"outputs":[{"name":"","type":"uint256","internalType":"uint256"}],"stateMutability":"view"},{"type":"function","name":"tokenURI","inputs":[{"name":"_tokenId","type":"uint256","internalType":"uint256"}],"outputs":[{"name":"","type":"string","internalType":"string"}],"stateMutability":"view"},{"type":"function","name":"totalSupply","inputs":[],"outputs":[{"name":"","type":"uint256","internalType":"uint256"}],"stateMutability":"view"},{"type":"function","name":"traitIdToApprovedOperators","inputs":[{"name":"traitId","type":"uint256","internalType":"uint256"},{"name":"","type":"uint256","internalType":"uint256"}],"outputs":[{"name":"operators","type":"address","internalType":"address"}],"stateMutability":"view"},{"type":"function","name":"traitIndexToMetadata","inputs":[{"name":"","type":"uint256","internalType":"uint256"}],"outputs":[{"name":"traitIndex","type":"uint256","internalType":"uint256"},{"name":"traitName","type":"string","internalType":"string"},{"name":"traitType","type":"uint8","internalType":"enum TraitCategory.Name"},{"name":"animations","type":"string","internalType":"string"},{"name":"colorMap","type":"bytes","internalType":"bytes"},{"name":"zMap","type":"bytes","internalType":"bytes"},{"name":"renderMinterContract","type":"address","internalType":"address"},{"name":"creatorAddress","type":"address","internalType":"address"},{"name":"creatorName","type":"string","internalType":"string"},{"name":"release","type":"string","internalType":"string"}],"stateMutability":"view"},{"type":"function","name":"traitRenderer","inputs":[],"outputs":[{"name":"","type":"address","internalType":"contract TraitRenderer"}],"stateMutability":"view"},{"type":"function","name":"traitTokens","inputs":[],"outputs":[{"name":"epoch","type":"uint256","internalType":"uint256"}],"stateMutability":"view"},{"type":"function","name":"transferFrom","inputs":[{"name":"from","type":"address","internalType":"address"},{"name":"to","type":"address","internalType":"address"},{"name":"tokenId","type":"uint256","internalType":"uint256"}],"outputs":[],"stateMutability":"nonpayable"},{"type":"function","name":"transferOwnership","inputs":[{"name":"newOwner","type":"address","internalType":"address"}],"outputs":[],"stateMutability":"payable"},{"type":"function","name":"walletOfOwner","inputs":[{"name":"_owner","type":"address","internalType":"address"}],"outputs":[{"name":"","type":"uint256[]","internalType":"uint256[]"}],"stateMutability":"view"},{"type":"event","name":"AllOperatorApprovalsInvalidated","inputs":[{"name":"tokenId","type":"uint256","indexed":true,"internalType":"uint256"}],"anonymous":false},{"type":"event","name":"Approval","inputs":[{"name":"owner","type":"address","indexed":true,"internalType":"address"},{"name":"approved","type":"address","indexed":true,"internalType":"address"},{"name":"tokenId","type":"uint256","indexed":true,"internalType":"uint256"}],"anonymous":false},{"type":"event","name":"ApprovalForAll","inputs":[{"name":"owner","type":"address","indexed":true,"internalType":"address"},{"name":"operator","type":"address","indexed":true,"internalType":"address"},{"name":"approved","type":"bool","indexed":false,"internalType":"bool"}],"anonymous":false},{"type":"event","name":"BatchMetadataUpdate","inputs":[{"name":"_fromTokenId","type":"uint256","indexed":false,"internalType":"uint256"},{"name":"_toTokenId","type":"uint256","indexed":false,"internalType":"uint256"}],"anonymous":false},{"type":"event","name":"MetadataUpdate","inputs":[{"name":"_tokenId","type":"uint256","indexed":false,"internalType":"uint256"}],"anonymous":false},{"type":"event","name":"NewEpoch","inputs":[{"name":"epoch","type":"uint256","indexed":true,"internalType":"uint256"},{"name":"revealBlock","type":"uint64","indexed":true,"internalType":"uint64"}],"anonymous":false},{"type":"event","name":"OwnershipHandoverCanceled","inputs":[{"name":"pendingOwner","type":"address","indexed":true,"internalType":"address"}],"anonymous":false},{"type":"event","name":"OwnershipHandoverRequested","inputs":[{"name":"pendingOwner","type":"address","indexed":true,"internalType":"address"}],"anonymous":false},{"type":"event","name":"OwnershipTransferred","inputs":[{"name":"oldOwner","type":"address","indexed":true,"internalType":"address"},{"name":"newOwner","type":"address","indexed":true,"internalType":"address"}],"anonymous":false},{"type":"event","name":"Transfer","inputs":[{"name":"from","type":"address","indexed":true,"internalType":"address"},{"name":"to","type":"address","indexed":true,"internalType":"address"},{"name":"tokenId","type":"uint256","indexed":true,"internalType":"uint256"}],"anonymous":false},{"type":"error","name":"AddressCantBurn","inputs":[]},{"type":"error","name":"AlreadyInitialized","inputs":[]},{"type":"error","name":"CantTransfer","inputs":[]},{"type":"error","name":"CantTransferDuringMint","inputs":[]},{"type":"error","name":"NewOwnerIsZeroAddress","inputs":[]},{"type":"error","name":"NoHandoverRequest","inputs":[]},{"type":"error","name":"NotATBA","inputs":[]},{"type":"error","name":"NotAValidMinterContract","inputs":[]},{"type":"error","name":"NotYourTrait","inputs":[]},{"type":"error","name":"SetChonksMainAddress","inputs":[]},{"type":"error","name":"SetMarketplaceAddress","inputs":[]},{"type":"error","name":"TraitNotFound","inputs":[{"name":"_tokenId","type":"uint256","internalType":"uint256"}]},{"type":"error","name":"TraitTokenDoesntExist","inputs":[]},{"type":"error","name":"Unauthorized","inputs":[]}],"bytecode":{"object":"0x60806040523480156200001157600080fd5b50604051620091df380380620091df83398101604081905262000034916200015c565b6040518060400160405280600c81526020016b43686f6e6b2054726169747360a01b8152506040518060400160405280600c81526020016b43484f4e4b2054524149545360a01b81525081600090816200008f91906200022e565b5060016200009e82826200022e565b50506001600a5550620000b13362000112565b6015805460ff1916821515179055604051620000cd906200014e565b604051809103906000f080158015620000ea573d6000803e3d6000fd5b50600e80546001600160a01b0319166001600160a01b039290921691909117905550620002fa565b6001600160a01b0316638b78c6d8198190558060007f8be0079c531659141344cd1fd0a4f28419497f9722a3daafe3b4186f6b6457e08180a350565b6130ce806200611183390190565b6000602082840312156200016f57600080fd5b815180151581146200018057600080fd5b9392505050565b634e487b7160e01b600052604160045260246000fd5b600181811c90821680620001b257607f821691505b602082108103620001d357634e487b7160e01b600052602260045260246000fd5b50919050565b601f82111562000229576000816000526020600020601f850160051c81016020861015620002045750805b601f850160051c820191505b81811015620002255782815560010162000210565b5050505b505050565b81516001600160401b038111156200024a576200024a62000187565b62000262816200025b84546200019d565b84620001d9565b602080601f8311600181146200029a5760008415620002815750858301515b600019600386901b1c1916600185901b17855562000225565b600085815260208120601f198616915b82811015620002cb57888601518255948401946001909101908401620002aa565b5085821015620002ea5787850151600019600388901b60f8161c191681555b5050505050600190811b01905550565b615e07806200030a6000396000f3fe60806040526004361061040f5760003560e01c80638da5cb5b1161021e578063c876371b11610123578063e4623c1b116100ab578063f12719421161007a578063f127194214610d3a578063f2fde38b14610d5a578063f677c01314610d6d578063f901667f14610d8d578063fee81cf414610dad57600080fd5b8063e4623c1b14610c9e578063e985e9c514610cbe578063ea13954414610d07578063f04e283e14610d2757600080fd5b8063d5b3621b116100f2578063d5b3621b14610c07578063df2c2b8814610c27578063e08714a614610c47578063e14d026f14610c67578063e1defed914610c7e57600080fd5b8063c876371b14610b7a578063c87b56dd14610b9a578063cde2180a14610bba578063d1bfc2af14610bda57600080fd5b8063aa271e1a116101a6578063b88d4fde11610175578063b88d4fde14610aeb578063b97dd9e2146107f5578063ba7270f314610b0b578063bb12d21d14610b2b578063c779153114610b5a57600080fd5b8063aa271e1a14610a4b578063abc8c7af14610a7b578063acb586df14610a9b578063b3148f7514610abb57600080fd5b8063983b2d56116101ed578063983b2d56146109ab578063a1d62680146109cb578063a22cb465146109eb578063a5e2912a14610a0b578063a8498c7414610a2b57600080fd5b80638da5cb5b1461094757806390f6384214610960578063931e2e491461098057806395d89b411461099657600080fd5b806336d34ab91161032457806370a08231116102ac57806375794a3c1161027b57806375794a3c146107df578063757991a8146107f5578063817a29a41461080a578063859e7d32146108405780638d37c5371461092757600080fd5b806370a0823114610777578063713dbc2714610797578063715018a6146107b757806373ad6c2d146107bf57600080fd5b8063438b6300116102f3578063438b6300146106ed5780634f6ccce71461071a57806354d1f13d1461073a5780635c1ef256146107425780636352211e1461075757600080fd5b806336d34ab91461066d57806340d097c31461068d57806342842e0e146106ad57806342966c68146106cd57600080fd5b8063208c25a3116103a7578063256929621161037657806325692962146105d757806326f2052a146105df5780632f745c59146105ff5780633092afd51461061f57806333a703281461063f57600080fd5b8063208c25a31461055557806321b12c2314610582578063239ffa68146105a257806323b872dd146105b757600080fd5b8063095ea7b3116103e3578063095ea7b3146104d457806311f3910d146104f6578063120def241461051657806318160ddd1461053657600080fd5b8062db63481461041457806301ffc9a71461044a57806306fdde031461047a578063081812fc1461049c575b600080fd5b34801561042057600080fd5b5061043461042f366004614796565b610de0565b60405161044191906147af565b60405180910390f35b34801561045657600080fd5b5061046a610465366004614812565b610e4c565b6040519015158152602001610441565b34801561048657600080fd5b5061048f610e5d565b6040516104419190614886565b3480156104a857600080fd5b506104bc6104b7366004614796565b610eef565b6040516001600160a01b039091168152602001610441565b3480156104e057600080fd5b506104f46104ef3660046148be565b610f16565b005b34801561050257600080fd5b506104bc6105113660046148ea565b611141565b34801561052257600080fd5b506104f461053136600461490c565b611179565b34801561054257600080fd5b506008545b604051908152602001610441565b34801561056157600080fd5b50610575610570366004614796565b6111a3565b60405161044191906149a9565b34801561058e57600080fd5b5061048f61059d366004614b0a565b61126b565b3480156105ae57600080fd5b506104f46112e1565b3480156105c357600080fd5b506104f46105d2366004614b3e565b6114bd565b6104f46114fc565b3480156105eb57600080fd5b506104f46105fa366004614b7f565b61154b565b34801561060b57600080fd5b5061054761061a3660046148be565b611560565b34801561062b57600080fd5b506104f461063a36600461490c565b6115f6565b34801561064b57600080fd5b5061065f61065a366004614cbd565b61161f565b604051610441929190614ce8565b34801561067957600080fd5b506104f4610688366004614d0d565b6116ba565b34801561069957600080fd5b506105476106a836600461490c565b611784565b3480156106b957600080fd5b506104f46106c8366004614b3e565b611825565b3480156106d957600080fd5b506104f46106e8366004614796565b611840565b3480156106f957600080fd5b5061070d61070836600461490c565b611879565b6040516104419190614d3a565b34801561072657600080fd5b50610547610735366004614796565b611910565b6104f46119a3565b34801561074e57600080fd5b5061048f6119df565b34801561076357600080fd5b506104bc610772366004614796565b611a56565b34801561078357600080fd5b5061054761079236600461490c565b611ab6565b3480156107a357600080fd5b506104f46107b236600461490c565b611b3c565b6104f4611b66565b3480156107cb57600080fd5b506104f46107da36600461490c565b611b7a565b3480156107eb57600080fd5b5061054760165481565b34801561080157600080fd5b50600c54610547565b34801561081657600080fd5b5061082a610825366004614796565b611ba4565b6040516104419a99989796959493929190614d72565b34801561084c57600080fd5b506108de61085b366004614796565b6040805160808082018352600080835260208084018290528385018290526060938401829052948152600d855283902083519182018452546001600160801b03811682526001600160401b03600160801b8204169482019490945260ff600160c01b85048116151593820193909352600160c81b90930490911615159082015290565b604051610441919081516001600160801b031681526020808301516001600160401b03169082015260408083015115159082015260609182015115159181019190915260800190565b34801561093357600080fd5b506104f4610942366004614e27565b611f3c565b34801561095357600080fd5b50638b78c6d819546104bc565b34801561096c57600080fd5b506104f461097b366004614796565b61203b565b34801561098c57600080fd5b5061054760185481565b3480156109a257600080fd5b5061048f6121dd565b3480156109b757600080fd5b506104f46109c636600461490c565b6121ec565b3480156109d757600080fd5b5061048f6109e6366004614796565b612218565b3480156109f757600080fd5b506104f4610a06366004614f95565b61230e565b348015610a1757600080fd5b5061048f610a26366004614796565b61254b565b348015610a3757600080fd5b5061048f610a46366004614796565b61258d565b348015610a5757600080fd5b5061046a610a6636600461490c565b60136020526000908152604090205460ff1681565b348015610a8757600080fd5b506012546104bc906001600160a01b031681565b348015610aa757600080fd5b50610575610ab6366004614796565b612645565b348015610ac757600080fd5b5061046a610ad636600461490c565b60146020526000908152604090205460ff1681565b348015610af757600080fd5b506104f4610b06366004614fce565b6127e4565b348015610b1757600080fd5b506011546104bc906001600160a01b031681565b348015610b3757600080fd5b50610b4b610b4636600461505e565b61281c565b60405161044193929190615157565b348015610b6657600080fd5b5061048f610b75366004614796565b6128ab565b348015610b8657600080fd5b50600e546104bc906001600160a01b031681565b348015610ba657600080fd5b5061048f610bb5366004614796565b612901565b348015610bc657600080fd5b506104f4610bd536600461490c565b612942565b348015610be657600080fd5b50610bfa610bf5366004614796565b61296b565b604051610441919061519a565b348015610c1357600080fd5b506104f4610c22366004614796565b612d78565b348015610c3357600080fd5b5061065f610c4236600461505e565b612d85565b348015610c5357600080fd5b5061065f610c623660046152a3565b612e10565b348015610c7357600080fd5b50600c546105479081565b348015610c8a57600080fd5b506104f4610c9936600461530f565b612ebd565b348015610caa57600080fd5b506104f4610cb9366004615372565b612f2d565b348015610cca57600080fd5b5061046a610cd9366004615417565b6001600160a01b03918216600090815260056020908152604080832093909416825291909152205460ff1690565b348015610d1357600080fd5b50610bfa610d22366004614796565b612f93565b6104f4610d3536600461490c565b61338e565b348015610d4657600080fd5b50610b4b610d55366004615445565b6133cb565b6104f4610d6836600461490c565b613481565b348015610d7957600080fd5b506104f4610d8836600461490c565b6134a8565b348015610d9957600080fd5b50610b4b610da8366004614cbd565b6134d4565b348015610db957600080fd5b50610547610dc836600461490c565b63389a75e1600c908152600091909152602090205490565b600081815260106020908152604091829020805483518184028101840190945280845260609392830182828015610e4057602002820191906000526020600020905b81546001600160a01b03168152600190910190602001808311610e22575b50505050509050919050565b6000610e5782613573565b92915050565b606060008054610e6c906154ca565b80601f0160208091040260200160405190810160405280929190818152602001828054610e98906154ca565b8015610ee55780601f10610eba57610100808354040283529160200191610ee5565b820191906000526020600020905b815481529060010190602001808311610ec857829003601f168201915b5050505050905090565b6000610efa82613598565b506000908152600460205260409020546001600160a01b031690565b6000818152600260205260409020546001600160a01b0316610f4b57604051632df0e24560e21b815260040160405180910390fd5b33610f5582611a56565b6001600160a01b031614610f7c57604051633e79b9f360e01b815260040160405180910390fd5b6001600160a01b03821661109d576000818152601060205260408120905b815481101561109657836001600160a01b0316828281548110610fbf57610fbf6154fe565b6000918252602090912001546001600160a01b03160361108e5781548290610fe99060019061552a565b81548110610ff957610ff96154fe565b9060005260206000200160009054906101000a90046001600160a01b0316828281548110611029576110296154fe565b9060005260206000200160006101000a8154816001600160a01b0302191690836001600160a01b03160217905550818054806110675761106761553d565b600082815260209020810160001990810180546001600160a01b0319169055019055611096565b600101610f9a565b5050611133565b600081815260106020526040812090805b82548110156110fe57846001600160a01b03168382815481106110d3576110d36154fe565b6000918252602090912001546001600160a01b0316036110f657600191506110fe565b6001016110ae565b50806111305781546001810183556000838152602090200180546001600160a01b0319166001600160a01b0386161790555b50505b61113d82826135f7565b5050565b6010602052816000526040600020818154811061115d57600080fd5b6000918252602090912001546001600160a01b03169150829050565b611181613707565b600e80546001600160a01b0319166001600160a01b0392909216919091179055565b6111d96040805160c08101825260008082526020820181905291810182905260608101829052608081018290529060a082015290565b6000828152600b6020908152604091829020825160c08101845281548152600182015460ff90811615159382019390935260028201549381019390935260038101546001600160a01b03166060840152600481015460808401526005810154909160a084019116600781111561125157611251614929565b600781111561126257611262614929565b90525092915050565b600e546040516321b12c2360e01b81526060916001600160a01b0316906321b12c239061129c908590600401614886565b600060405180830381865afa1580156112b9573d6000803e3d6000fd5b505050506040513d6000823e601f3d908101601f19168201604052610e579190810190615598565b600c546000908152600d602052604090208054600160c01b900460ff16158061133957508054600160c81b900460ff1615801561133957506113256101004361552a565b8154600160801b90046001600160401b0316105b15611384576113494360326155cc565b815460ff60c01b196001600160401b0392909216600160801b029190911668ffffffffffffffffff60801b1990911617600160c01b17815550565b8054600160801b90046001600160401b03164311156114ba57805460408051600160801b9092046001600160401b031640602083015244908201526001600160801b03906060016040516020818303038152906040528051906020012060001c6113ee91906155df565b8154600160c81b6001600160801b039290921679ff000000000000000000ffffffffffffffffffffffffffffffff199091161717808255600c54604051600160801b9092046001600160401b0316917f78611aecfda8d341359c248df527c95aef93d446c92bb928b2a81b7abcb1d8d990600090a3604080516000815260001960208201527f6bd5c950a8d8df17f772f5af37cb3655737899cbf903264b9795592da439661c910160405180910390a1600c80546000906114ae90615601565b909155506114ba6112e1565b50565b6114c73382613722565b6114ec5760405162461bcd60e51b81526004016114e39061561a565b60405180910390fd5b6114f78383836137a0565b505050565b60006202a3006001600160401b03164201905063389a75e1600c5233600052806020600c2055337fdbf36a107da19e49527a7176a1babf963b4b0ff8cde35ee35d6cd8f1f9ac7e1d600080a250565b611553613707565b61113d601982600261465e565b600061156b83611ab6565b82106115cd5760405162461bcd60e51b815260206004820152602b60248201527f455243373231456e756d657261626c653a206f776e657220696e646578206f7560448201526a74206f6620626f756e647360a81b60648201526084016114e3565b506001600160a01b03919091166000908152600660209081526040808320938352929052205490565b6115fe613707565b6001600160a01b03166000908152601360205260409020805460ff19169055565b600e5460808301516000908152600f60205260409081902090516317de5cbf60e11b815260609283926001600160a01b0390911691632fbcb97e9161166a91889188916004016157c3565b600060405180830381865afa158015611687573d6000803e3d6000fd5b505050506040513d6000823e601f3d908101601f191682016040526116af91908101906157ea565b915091509250929050565b3360008181526013602052604090205460ff166116ea5760405163090a0b6960e21b815260040160405180910390fd5b6000838152600b602090815260409182902084518155908401516001808301805492151560ff1993841617905592850151600283015560608501516003830180546001600160a01b039092166001600160a01b03199092169190911790556080850151600483015560a085015160058301805487959293919291169083600781111561177857611778614929565b02179055505050505050565b3360008181526013602052604081205490919060ff166117b75760405163090a0b6960e21b815260040160405180910390fd5b6117bf6112e1565b60006016600081546117d090615601565b918290555090506117e1848261394d565b604080516000815260001960208201527f6bd5c950a8d8df17f772f5af37cb3655737899cbf903264b9795592da439661c910160405180910390a191505b50919050565b6114f7838383604051806020016040528060008152506127e4565b3360009081526013602052604090205460ff1661187057604051631758e6d560e11b815260040160405180910390fd5b6114ba81613967565b6060600061188683611ab6565b90506000816001600160401b038111156118a2576118a26149b7565b6040519080825280602002602001820160405280156118cb578160200160208202803683370190505b50905060005b82811015611908576118e38582611560565b8282815181106118f5576118f56154fe565b60209081029190910101526001016118d1565b509392505050565b600061191b60085490565b821061197e5760405162461bcd60e51b815260206004820152602c60248201527f455243373231456e756d657261626c653a20676c6f62616c20696e646578206f60448201526b7574206f6620626f756e647360a01b60648201526084016114e3565b60088281548110611991576119916154fe565b90600052602060002001549050919050565b63389a75e1600c523360005260006020600c2055337ffa7b8eab7da67f412cc9575ed43464468f9bfbae89d1675917346ca6d8fe3c92600080a2565b600e5460408051632e0f792b60e11b815290516060926001600160a01b031691635c1ef2569160048083019260009291908290030181865afa158015611a29573d6000803e3d6000fd5b505050506040513d6000823e601f3d908101601f19168201604052611a519190810190615598565b905090565b6000818152600260205260408120546001600160a01b031680610e575760405162461bcd60e51b8152602060048201526018602482015277115490cdcc8c4e881a5b9d985b1a59081d1bdad95b88125160421b60448201526064016114e3565b60006001600160a01b038216611b205760405162461bcd60e51b815260206004820152602960248201527f4552433732313a2061646472657373207a65726f206973206e6f7420612076616044820152683634b21037bbb732b960b91b60648201526084016114e3565b506001600160a01b031660009081526003602052604090205490565b611b44613707565b601180546001600160a01b0319166001600160a01b0392909216919091179055565b611b6e613707565b611b786000613a16565b565b611b82613707565b601280546001600160a01b0319166001600160a01b0392909216919091179055565b600f6020526000908152604090208054600182018054919291611bc6906154ca565b80601f0160208091040260200160405190810160405280929190818152602001828054611bf2906154ca565b8015611c3f5780601f10611c1457610100808354040283529160200191611c3f565b820191906000526020600020905b815481529060010190602001808311611c2257829003601f168201915b5050506002840154600385018054949560ff909216949193509150611c63906154ca565b80601f0160208091040260200160405190810160405280929190818152602001828054611c8f906154ca565b8015611cdc5780601f10611cb157610100808354040283529160200191611cdc565b820191906000526020600020905b815481529060010190602001808311611cbf57829003601f168201915b505050505090806004018054611cf1906154ca565b80601f0160208091040260200160405190810160405280929190818152602001828054611d1d906154ca565b8015611d6a5780601f10611d3f57610100808354040283529160200191611d6a565b820191906000526020600020905b815481529060010190602001808311611d4d57829003601f168201915b505050505090806005018054611d7f906154ca565b80601f0160208091040260200160405190810160405280929190818152602001828054611dab906154ca565b8015611df85780601f10611dcd57610100808354040283529160200191611df8565b820191906000526020600020905b815481529060010190602001808311611ddb57829003601f168201915b5050506006840154600785015460088601805495966001600160a01b0393841696929093169450919250611e2b906154ca565b80601f0160208091040260200160405190810160405280929190818152602001828054611e57906154ca565b8015611ea45780601f10611e7957610100808354040283529160200191611ea4565b820191906000526020600020905b815481529060010190602001808311611e8757829003601f168201915b505050505090806009018054611eb9906154ca565b80601f0160208091040260200160405190810160405280929190818152602001828054611ee5906154ca565b8015611f325780601f10611f0757610100808354040283529160200191611f32565b820191906000526020600020905b815481529060010190602001808311611f1557829003601f168201915b505050505090508a565b6000828152600f6020908152604090912082518155908201518291906001820190611f67908261588b565b50604082015160028201805460ff19166001836007811115611f8b57611f8b614929565b021790555060608201516003820190611fa4908261588b565b5060808201516004820190611fb9908261588b565b5060a08201516005820190611fce908261588b565b5060c08201516006820180546001600160a01b039283166001600160a01b03199182161790915560e0840151600784018054919093169116179055610100820151600882019061201e908261588b565b506101208201516009820190612034908261588b565b5050505050565b6000818152600260205260409020546001600160a01b031661207057604051632df0e24560e21b815260040160405180910390fd5b3361207a82611a56565b6001600160a01b03161415801561209c57506011546001600160a01b03163314155b80156120b857503360009081526014602052604090205460ff16155b156120d657604051633e79b9f360e01b815260040160405180910390fd5b60008181526010602090815260408083208054825181850281018501909352808352919290919083018282801561213657602002820191906000526020600020905b81546001600160a01b03168152600190910190602001808311612118575b50505050509050805160000361214a575050565b612155600083613a54565b60005b81518110156121965761218e61216d84611a56565b83838151811061217f5761217f6154fe565b60200260200101516000613ac2565b600101612158565b5060008281526010602052604081206121ae916146a7565b60405182907fe6727257e6b1474b2ced9b705eafa89027508be445f1a76db669635c92f5242090600090a25050565b606060018054610e6c906154ca565b6121f4613707565b6001600160a01b03166000908152601360205260409020805460ff19166001179055565b6060600061222583612645565b90506000816020015161225b576040518060400160405280600b81526020016a1e39bb339f1e17b9bb339f60a91b815250612268565b612268826080015161254b565b600e5460808401516000908152600f602052604090209192506001600160a01b031690636150dc03908690859061229d6119df565b8660196040518763ffffffff1660e01b81526004016122c19695949392919061594a565b600060405180830381865afa1580156122de573d6000803e3d6000fd5b505050506040513d6000823e601f3d908101601f191682016040526123069190810190615598565b949350505050565b336001600160a01b038316036123625760405162461bcd60e51b815260206004820152601960248201527822a9219b99189d1030b8383937bb32903a379031b0b63632b960391b60448201526064016114e3565b600061236d33611ab6565b905060005b818110156125405760006123863383611560565b9050831561242857600081815260106020526040812090805b82548110156123ef57876001600160a01b03168382815481106123c4576123c46154fe565b6000918252602090912001546001600160a01b0316036123e757600191506123ef565b60010161239f565b50806124215781546001810183556000838152602090200180546001600160a01b0319166001600160a01b0389161790555b5050612537565b6000818152601060205260408120905b815481101561253457866001600160a01b031682828154811061245d5761245d6154fe565b6000918252602090912001546001600160a01b03160361252c57815482906124879060019061552a565b81548110612497576124976154fe565b9060005260206000200160009054906101000a90046001600160a01b03168282815481106124c7576124c76154fe565b9060005260206000200160006101000a8154816001600160a01b0302191690836001600160a01b03160217905550818054806125055761250561553d565b600082815260209020810160001990810180546001600160a01b0319169055019055612534565b600101612438565b50505b50600101612372565b506114f78383613b8c565b600e546000828152600f6020526040908190209051631349027b60e31b81526060926001600160a01b031691639a4813d89161129c91600490810191016159ed565b6060600061259a83612645565b60808101516000908152600f602052604090206005018054919250906125bf906154ca565b80601f01602080910402602001604051908101604052809291908181526020018280546125eb906154ca565b80156126385780601f1061260d57610100808354040283529160200191612638565b820191906000526020600020905b81548152906001019060200180831161261b57829003601f168201915b5050505050915050919050565b61267b6040805160c08101825260008082526020820181905291810182905260608101829052608081018290529060a082015290565b6000828152600b60209081526040808320815160c08101835281548152600182015460ff90811615159482019490945260028201549281019290925260038101546001600160a01b031660608301526004810154608083015260058101549192909160a08401911660078111156126f4576126f4614929565b600781111561270557612705614929565b90525080516000908152600d602052604090205460608201519192506001600160801b0316906001600160a01b03811615801561274457506040830151155b156127655760405163082d451d60e01b8152600481018690526024016114e3565b60155460405163687d69df60e11b81526001600160a01b0383169163d0fad3be9161279a9160ff169087908790600401615a00565b60c060405180830381865afa1580156127b7573d6000803e3d6000fd5b505050506040513d601f19601f820116820180604052508101906127db9190615a2e565b95945050505050565b6127ee3383613722565b61280a5760405162461bcd60e51b81526004016114e39061561a565b61281684848484613b97565b50505050565b600e54604051635ab38bf760e01b8152606091829182916001600160a01b031690635ab38bf790612859908790309063f127194290600401615b51565b600060405180830381865afa158015612876573d6000803e3d6000fd5b505050506040513d6000823e601f3d908101601f1916820160405261289e9190810190615b83565b9250925092509193909250565b606060006128b883612645565b90508060200151156128d8576128d1816080015161254b565b915061181f565b505060408051808201909152600b81526a1e39bb339f1e17b9bb339f60a91b6020820152919050565b6000818152600260205260409020546060906001600160a01b031661293957604051632df0e24560e21b815260040160405180910390fd5b610e5782612218565b61294a613707565b6001600160a01b03166000908152601460205260409020805460ff19169055565b6129736146c5565b600061297e83612645565b9050600f60008260800151815260200190815260200160002060405180610140016040529081600082015481526020016001820180546129bd906154ca565b80601f01602080910402602001604051908101604052809291908181526020018280546129e9906154ca565b8015612a365780601f10612a0b57610100808354040283529160200191612a36565b820191906000526020600020905b815481529060010190602001808311612a1957829003601f168201915b5050509183525050600282015460209091019060ff166007811115612a5d57612a5d614929565b6007811115612a6e57612a6e614929565b8152602001600382018054612a82906154ca565b80601f0160208091040260200160405190810160405280929190818152602001828054612aae906154ca565b8015612afb5780601f10612ad057610100808354040283529160200191612afb565b820191906000526020600020905b815481529060010190602001808311612ade57829003601f168201915b50505050508152602001600482018054612b14906154ca565b80601f0160208091040260200160405190810160405280929190818152602001828054612b40906154ca565b8015612b8d5780601f10612b6257610100808354040283529160200191612b8d565b820191906000526020600020905b815481529060010190602001808311612b7057829003601f168201915b50505050508152602001600582018054612ba6906154ca565b80601f0160208091040260200160405190810160405280929190818152602001828054612bd2906154ca565b8015612c1f5780601f10612bf457610100808354040283529160200191612c1f565b820191906000526020600020905b815481529060010190602001808311612c0257829003601f168201915b505050918352505060068201546001600160a01b0390811660208301526007830154166040820152600882018054606090920191612c5c906154ca565b80601f0160208091040260200160405190810160405280929190818152602001828054612c88906154ca565b8015612cd55780601f10612caa57610100808354040283529160200191612cd5565b820191906000526020600020905b815481529060010190602001808311612cb857829003601f168201915b50505050508152602001600982018054612cee906154ca565b80601f0160208091040260200160405190810160405280929190818152602001828054612d1a906154ca565b8015612d675780601f10612d3c57610100808354040283529160200191612d67565b820191906000526020600020905b815481529060010190602001808311612d4a57829003601f168201915b505050505081525050915050919050565b612d80613707565b601855565b600e546040516338ce943360e01b815260609182916001600160a01b03909116906338ce943390612dc2908690309063e08714a690600401615b51565b600060405180830381865afa158015612ddf573d6000803e3d6000fd5b505050506040513d6000823e601f3d908101601f19168201604052612e0791908101906157ea565b91509150915091565b6060806000612e1e86612645565b600e5460808201516000908152600f6020526040908190209051630a6ab71760e21b81529293506001600160a01b03909116916329aadc5c91612e6b918a918a918a918891600401615c00565b600060405180830381865afa158015612e88573d6000803e3d6000fd5b505050506040513d6000823e601f3d908101601f19168201604052612eb091908101906157ea565b9250925050935093915050565b612ec5613707565b600e5460405163e1defed960e01b81526001600160a01b039091169063e1defed990612ef79085908590600401614ce8565b600060405180830381600087803b158015612f1157600080fd5b505af1158015612f25573d6000803e3d6000fd5b505050505050565b3360009081526013602052604090205460ff16612f5d57604051631758e6d560e11b815260040160405180910390fd5b60005b815181101561113d57612f8b828281518110612f7e57612f7e6154fe565b6020026020010151613967565b600101612f60565b612f9b6146c5565b600f60008381526020019081526020016000206040518061014001604052908160008201548152602001600182018054612fd4906154ca565b80601f0160208091040260200160405190810160405280929190818152602001828054613000906154ca565b801561304d5780601f106130225761010080835404028352916020019161304d565b820191906000526020600020905b81548152906001019060200180831161303057829003601f168201915b5050509183525050600282015460209091019060ff16600781111561307457613074614929565b600781111561308557613085614929565b8152602001600382018054613099906154ca565b80601f01602080910402602001604051908101604052809291908181526020018280546130c5906154ca565b80156131125780601f106130e757610100808354040283529160200191613112565b820191906000526020600020905b8154815290600101906020018083116130f557829003601f168201915b5050505050815260200160048201805461312b906154ca565b80601f0160208091040260200160405190810160405280929190818152602001828054613157906154ca565b80156131a45780601f10613179576101008083540402835291602001916131a4565b820191906000526020600020905b81548152906001019060200180831161318757829003601f168201915b505050505081526020016005820180546131bd906154ca565b80601f01602080910402602001604051908101604052809291908181526020018280546131e9906154ca565b80156132365780601f1061320b57610100808354040283529160200191613236565b820191906000526020600020905b81548152906001019060200180831161321957829003601f168201915b505050918352505060068201546001600160a01b0390811660208301526007830154166040820152600882018054606090920191613273906154ca565b80601f016020809104026020016040519081016040528092919081815260200182805461329f906154ca565b80156132ec5780601f106132c1576101008083540402835291602001916132ec565b820191906000526020600020905b8154815290600101906020018083116132cf57829003601f168201915b50505050508152602001600982018054613305906154ca565b80601f0160208091040260200160405190810160405280929190818152602001828054613331906154ca565b801561337e5780601f106133535761010080835404028352916020019161337e565b820191906000526020600020905b81548152906001019060200180831161336157829003601f168201915b5050505050815250509050919050565b613396613707565b63389a75e1600c52806000526020600c2080544211156133be57636f5e88186000526004601cfd5b600090556114ba81613a16565b606080606060006133db88612645565b600e5460808201516000908152600f602052604090819020905163aeea03e560e01b81529293506001600160a01b039091169163aeea03e59161342b918c918c918c918c91899190600401615c50565b600060405180830381865afa158015613448573d6000803e3d6000fd5b505050506040513d6000823e601f3d908101601f191682016040526134709190810190615b83565b935093509350509450945094915050565b613489613707565b8060601b61349f57637448fbae6000526004601cfd5b6114ba81613a16565b6134b0613707565b6001600160a01b03166000908152601460205260409020805460ff19166001179055565b600e5460808301516000908152600f60205260409081902090516330235ddd60e21b8152606092839283926001600160a01b039092169163c08d77749161352191899189916004016157c3565b600060405180830381865afa15801561353e573d6000803e3d6000fd5b505050506040513d6000823e601f3d908101601f191682016040526135669190810190615b83565b9250925092509250925092565b60006001600160e01b0319821663780e9d6360e01b1480610e575750610e5782613bca565b6000818152600260205260409020546001600160a01b03166114ba5760405162461bcd60e51b8152602060048201526018602482015277115490cdcc8c4e881a5b9d985b1a59081d1bdad95b88125160421b60448201526064016114e3565b600061360282611a56565b9050806001600160a01b0316836001600160a01b03160361366f5760405162461bcd60e51b815260206004820152602160248201527f4552433732313a20617070726f76616c20746f2063757272656e74206f776e656044820152603960f91b60648201526084016114e3565b336001600160a01b038216148061368b575061368b8133610cd9565b6136fd5760405162461bcd60e51b815260206004820152603e60248201527f4552433732313a20617070726f76652063616c6c6572206973206e6f7420746f60448201527f6b656e206f776e6572206e6f7220617070726f76656420666f7220616c6c000060648201526084016114e3565b6114f78383613a54565b638b78c6d819543314611b78576382b429006000526004601cfd5b60008061372e83611a56565b9050806001600160a01b0316846001600160a01b0316148061377557506001600160a01b0380821660009081526005602090815260408083209388168352929052205460ff165b806123065750836001600160a01b031661378e84610eef565b6001600160a01b031614949350505050565b826001600160a01b03166137b382611a56565b6001600160a01b0316146138175760405162461bcd60e51b815260206004820152602560248201527f4552433732313a207472616e736665722066726f6d20696e636f72726563742060448201526437bbb732b960d91b60648201526084016114e3565b6001600160a01b0382166138795760405162461bcd60e51b8152602060048201526024808201527f4552433732313a207472616e7366657220746f20746865207a65726f206164646044820152637265737360e01b60648201526084016114e3565b613884838383613c1a565b61388f600082613a54565b6001600160a01b03831660009081526003602052604081208054600192906138b890849061552a565b90915550506001600160a01b03821660009081526003602052604081208054600192906138e69084906155cc565b909155505060008181526002602052604080822080546001600160a01b0319166001600160a01b0386811691821790925591518493918716917fddf252ad1be2c89b69c2b068fc378daa952ba7f163c4a11628f55a4df523b3ef91a46114f7838383613e53565b61113d828260405180602001604052806000815250614018565b600061397282611a56565b905061398081600084613c1a565b61398b600083613a54565b6001600160a01b03811660009081526003602052604081208054600192906139b490849061552a565b909155505060008281526002602052604080822080546001600160a01b0319169055518391906001600160a01b038416907fddf252ad1be2c89b69c2b068fc378daa952ba7f163c4a11628f55a4df523b3ef908390a461113d81600084613e53565b638b78c6d81980546001600160a01b039092169182907f8be0079c531659141344cd1fd0a4f28419497f9722a3daafe3b4186f6b6457e0600080a355565b600081815260046020526040902080546001600160a01b0319166001600160a01b0384169081179091558190613a8982611a56565b6001600160a01b03167f8c5be1e5ebec7d5bd14f71427d1e84f3dd0314c0f7b2291e5b200ac8c7c3b92560405160405180910390a45050565b816001600160a01b0316836001600160a01b031603613b1f5760405162461bcd60e51b815260206004820152601960248201527822a9219b99189d1030b8383937bb32903a379031b0b63632b960391b60448201526064016114e3565b6001600160a01b03838116600081815260056020908152604080832094871680845294825291829020805460ff191686151590811790915591519182527f17307eab39ab6107e8899845ad3d59bd9653f200f220920489ca2b5937696c31910160405180910390a3505050565b61113d338383613ac2565b613ba28484846137a0565b613bae8484848461404b565b6128165760405162461bcd60e51b81526004016114e390615cc1565b60006001600160e01b031982166380ac58cd60e01b1480613bfb57506001600160e01b03198216635b5e139f60e01b145b80610e5757506301ffc9a760e01b6001600160e01b0319831614610e57565b601854613c2a90620151806155cc565b421015613c4a5760405163ae735dad60e01b815260040160405180910390fd5b6001600160a01b038316613c63576114f783838361414c565b601254604051634f6088cd60e01b8152600481018390526000916001600160a01b031690634f6088cd90602401608060405180830381865afa158015613cad573d6000803e3d6000fd5b505050506040513d601f19601f82011682018060405250810190613cd19190615d13565b5090925050506001600160a01b03811615613d11576012546001600160a01b03163314613d115760405163bf646b0f60e01b815260040160405180910390fd5b6001600160a01b038316613db157613d298284614204565b6000613d3483611a56565b60115460405162525fcd60e91b81526001600160a01b03808416600483015292935091169063a4bf9a0090602401602060405180830381865afa158015613d7f573d6000803e3d6000fd5b505050506040513d601f19601f82011682018060405250810190613da39190615d68565b60175561203485858561414c565b60115460405162525fcd60e91b81526001600160a01b0385811660048301529091169063a4bf9a0090602401602060405180830381865afa158015613dfa573d6000803e3d6000fd5b505050506040513d601f19601f82011682018060405250810190613e1e9190615d68565b600003613e3e576040516326a45c0160e21b815260040160405180910390fd5b613e488284614204565b61281684848461414c565b6011546001600160a01b0316613e7c57604051632d51864760e01b815260040160405180910390fd5b6012546001600160a01b0316613ea55760405163382eb47160e21b815260040160405180910390fd5b6001600160a01b038316613eb857505050565b6001600160a01b038216613f345760178054600090915560125460405163236313ff60e11b8152600481018390526001600160a01b03909116906346c627fe906024015b600060405180830381600087803b158015613f1657600080fd5b505af1158015613f2a573d6000803e3d6000fd5b5050505050505050565b6000613f3f82611a56565b60115460405162525fcd60e91b81526001600160a01b0380841660048301529293506000929091169063a4bf9a0090602401602060405180830381865afa158015613f8e573d6000803e3d6000fd5b505050506040513d601f19601f82011682018060405250810190613fb29190615d68565b60125460405163236313ff60e11b8152600481018390529192506001600160a01b0316906346c627fe90602401600060405180830381600087803b158015613ff957600080fd5b505af115801561400d573d6000803e3d6000fd5b505050505050505050565b6140228383614378565b61402f600084848461404b565b6114f75760405162461bcd60e51b81526004016114e390615cc1565b60006001600160a01b0384163b1561414157604051630a85bd0160e11b81526001600160a01b0385169063150b7a029061408f903390899088908890600401615d81565b6020604051808303816000875af19250505080156140ca575060408051601f3d908101601f191682019092526140c791810190615db4565b60015b614127573d8080156140f8576040519150601f19603f3d011682016040523d82523d6000602084013e6140fd565b606091505b50805160000361411f5760405162461bcd60e51b81526004016114e390615cc1565b805181602001fd5b6001600160e01b031916630a85bd0160e11b149050612306565b506001949350505050565b6001600160a01b0383166141a7576141a281600880546000838152600960205260408120829055600182018355919091527ff3f7a9fe364faab93b216da50a3214154f22a0a2b415b23a84c8169e8b636ee30155565b6141ca565b816001600160a01b0316836001600160a01b0316146141ca576141ca83826144ce565b6001600160a01b0382166141e1576114f78161456b565b826001600160a01b0316826001600160a01b0316146114f7576114f7828261461a565b600061420f83611a56565b60115460405162525fcd60e91b81526001600160a01b0380841660048301529293506000929091169063a4bf9a0090602401602060405180830381865afa15801561425e573d6000803e3d6000fd5b505050506040513d601f19601f820116820180604052508101906142829190615d68565b60125460405163236313ff60e11b8152600481018390529192506001600160a01b0316906346c627fe90602401600060405180830381600087803b1580156142c957600080fd5b505af11580156142dd573d6000803e3d6000fd5b5050601254604051632e1d274f60e01b8152600481018890526001600160a01b039091169250632e1d274f9150602401600060405180830381600087803b15801561432757600080fd5b505af115801561433b573d6000803e3d6000fd5b50506012546040516302fbe78f60e41b8152600481018890526001600160a01b0387811660248301529091169250632fbe78f09150604401613efc565b6001600160a01b0382166143ce5760405162461bcd60e51b815260206004820181905260248201527f4552433732313a206d696e7420746f20746865207a65726f206164647265737360448201526064016114e3565b6000818152600260205260409020546001600160a01b0316156144335760405162461bcd60e51b815260206004820152601c60248201527f4552433732313a20746f6b656e20616c7265616479206d696e7465640000000060448201526064016114e3565b61443f60008383613c1a565b6001600160a01b03821660009081526003602052604081208054600192906144689084906155cc565b909155505060008181526002602052604080822080546001600160a01b0319166001600160a01b03861690811790915590518392907fddf252ad1be2c89b69c2b068fc378daa952ba7f163c4a11628f55a4df523b3ef908290a461113d60008383613e53565b600060016144db84611ab6565b6144e5919061552a565b600083815260076020526040902054909150808214614538576001600160a01b03841660009081526006602090815260408083208584528252808320548484528184208190558352600790915290208190555b5060009182526007602090815260408084208490556001600160a01b039094168352600681528383209183525290812055565b60085460009061457d9060019061552a565b600083815260096020526040812054600880549394509092849081106145a5576145a56154fe565b9060005260206000200154905080600883815481106145c6576145c66154fe565b60009182526020808320909101929092558281526009909152604080822084905585825281205560088054806145fe576145fe61553d565b6001900381819060005260206000200160009055905550505050565b600061462583611ab6565b6001600160a01b039093166000908152600660209081526040808320868452825280832085905593825260079052919091209190915550565b8260028101928215614697579160200282015b828111156146975782518290614687908261588b565b5091602001919060010190614671565b506146a392915061472a565b5090565b50805460008255906000526020600020908101906114ba9190614747565b60408051610140810182526000808252606060208301529091820190815260200160608152602001606081526020016060815260200160006001600160a01b0316815260200160006001600160a01b0316815260200160608152602001606081525090565b808211156146a357600061473e828261475c565b5060010161472a565b5b808211156146a35760008155600101614748565b508054614768906154ca565b6000825580601f10614778575050565b601f0160209004906000526020600020908101906114ba9190614747565b6000602082840312156147a857600080fd5b5035919050565b6020808252825182820181905260009190848201906040850190845b818110156147f05783516001600160a01b0316835292840192918401916001016147cb565b50909695505050505050565b6001600160e01b0319811681146114ba57600080fd5b60006020828403121561482457600080fd5b813561482f816147fc565b9392505050565b60005b83811015614851578181015183820152602001614839565b50506000910152565b60008151808452614872816020860160208601614836565b601f01601f19169290920160200192915050565b60208152600061482f602083018461485a565b6001600160a01b03811681146114ba57600080fd5b80356148b981614899565b919050565b600080604083850312156148d157600080fd5b82356148dc81614899565b946020939093013593505050565b600080604083850312156148fd57600080fd5b50508035926020909101359150565b60006020828403121561491e57600080fd5b813561482f81614899565b634e487b7160e01b600052602160045260246000fd5b6008811061495d57634e487b7160e01b600052602160045260246000fd5b9052565b805182526020810151151560208301526040810151604083015260018060a01b0360608201511660608301526080810151608083015260a08101516114f760a084018261493f565b60c08101610e578284614961565b634e487b7160e01b600052604160045260246000fd5b604080519081016001600160401b03811182821017156149ef576149ef6149b7565b60405290565b60405160c081016001600160401b03811182821017156149ef576149ef6149b7565b60405161014081016001600160401b03811182821017156149ef576149ef6149b7565b60405161018081016001600160401b03811182821017156149ef576149ef6149b7565b604051601f8201601f191681016001600160401b0381118282101715614a8557614a856149b7565b604052919050565b60006001600160401b03821115614aa657614aa66149b7565b50601f01601f191660200190565b600082601f830112614ac557600080fd5b8135614ad8614ad382614a8d565b614a5d565b818152846020838601011115614aed57600080fd5b816020850160208301376000918101602001919091529392505050565b600060208284031215614b1c57600080fd5b81356001600160401b03811115614b3257600080fd5b61230684828501614ab4565b600080600060608486031215614b5357600080fd5b8335614b5e81614899565b92506020840135614b6e81614899565b929592945050506040919091013590565b60006020808385031215614b9257600080fd5b82356001600160401b0380821115614ba957600080fd5b818501915085601f830112614bbd57600080fd5b614bc56149cd565b806040840188811115614bd757600080fd5b845b81811015614c0b57803585811115614bf15760008081fd5b614bfd8b828901614ab4565b855250928601928601614bd9565b509098975050505050505050565b80151581146114ba57600080fd5b80356148b981614c19565b600881106114ba57600080fd5b80356148b981614c32565b600060c08284031215614c5c57600080fd5b614c646149f5565b9050813581526020820135614c7881614c19565b6020820152604082810135908201526060820135614c9581614899565b60608201526080828101359082015260a0820135614cb281614c32565b60a082015292915050565b60008060e08385031215614cd057600080fd5b614cda8484614c4a565b9460c0939093013593505050565b604081526000614cfb604083018561485a565b82810360208401526127db818561485a565b60008060e08385031215614d2057600080fd5b82359150614d318460208501614c4a565b90509250929050565b6020808252825182820181905260009190848201906040850190845b818110156147f057835183529284019291840191600101614d56565b60006101408c8352806020840152614d8c8184018d61485a565b9050614d9b604084018c61493f565b8281036060840152614dad818b61485a565b90508281036080840152614dc1818a61485a565b905082810360a0840152614dd5818961485a565b6001600160a01b0388811660c0860152871660e08501528381036101008501529050614e01818661485a565b9050828103610120840152614e16818561485a565b9d9c50505050505050505050505050565b60008060408385031215614e3a57600080fd5b8235915060208301356001600160401b0380821115614e5857600080fd5b908401906101408287031215614e6d57600080fd5b614e75614a17565b82358152602083013582811115614e8b57600080fd5b614e9788828601614ab4565b602083015250614ea960408401614c3f565b6040820152606083013582811115614ec057600080fd5b614ecc88828601614ab4565b606083015250608083013582811115614ee457600080fd5b614ef088828601614ab4565b60808301525060a083013582811115614f0857600080fd5b614f1488828601614ab4565b60a083015250614f2660c084016148ae565b60c0820152614f3760e084016148ae565b60e08201526101008084013583811115614f5057600080fd5b614f5c89828701614ab4565b8284015250506101208084013583811115614f7657600080fd5b614f8289828701614ab4565b8284015250508093505050509250929050565b60008060408385031215614fa857600080fd5b8235614fb381614899565b91506020830135614fc381614c19565b809150509250929050565b60008060008060808587031215614fe457600080fd5b8435614fef81614899565b93506020850135614fff81614899565b92506040850135915060608501356001600160401b0381111561502157600080fd5b61502d87828801614ab4565b91505092959194509250565b803563ffffffff811681146148b957600080fd5b803560ff811681146148b957600080fd5b60006020828403121561507057600080fd5b81356001600160401b038082111561508757600080fd5b90830190610180828603121561509c57600080fd5b6150a4614a3a565b823581526020830135602082015260408301356040820152606083013560608201526080830135608082015260a083013560a082015260c083013560c08201526150f060e08401615039565b60e0820152610100838101359082015261012061510e81850161504d565b90820152610140838101358381111561512657600080fd5b61513288828701614ab4565b8284015250506101609150615148828401614c27565b91810191909152949350505050565b60608152600061516a606083018661485a565b828103602084015261517c818661485a565b90508281036040840152615190818561485a565b9695505050505050565b6020815281516020820152600060208301516101408060408501526151c361016085018361485a565b915060408501516151d7606086018261493f565b506060850151601f19808685030160808701526151f4848361485a565b935060808701519150808685030160a0870152615211848361485a565b935060a08701519150808685030160c087015261522e848361485a565b935060c0870151915061524c60e08701836001600160a01b03169052565b60e0870151915061010061526a818801846001600160a01b03169052565b80880151925050610120818786030181880152615287858461485a565b908801518782039092018488015293509050615190838261485a565b6000806000606084860312156152b857600080fd5b8335925060208401356001600160401b03808211156152d657600080fd5b6152e287838801614ab4565b935060408601359150808211156152f857600080fd5b5061530586828701614ab4565b9150509250925092565b6000806040838503121561532257600080fd5b82356001600160401b038082111561533957600080fd5b61534586838701614ab4565b9350602085013591508082111561535b57600080fd5b5061536885828601614ab4565b9150509250929050565b6000602080838503121561538557600080fd5b82356001600160401b038082111561539c57600080fd5b818501915085601f8301126153b057600080fd5b8135818111156153c2576153c26149b7565b8060051b91506153d3848301614a5d565b81815291830184019184810190888411156153ed57600080fd5b938501935b8385101561540b578435825293850193908501906153f2565b98975050505050505050565b6000806040838503121561542a57600080fd5b823561543581614899565b91506020830135614fc381614899565b6000806000806080858703121561545b57600080fd5b8435935060208501356001600160401b038082111561547957600080fd5b61548588838901614ab4565b9450604087013591508082111561549b57600080fd5b6154a788838901614ab4565b935060608701359150808211156154bd57600080fd5b5061502d87828801614ab4565b600181811c908216806154de57607f821691505b60208210810361181f57634e487b7160e01b600052602260045260246000fd5b634e487b7160e01b600052603260045260246000fd5b634e487b7160e01b600052601160045260246000fd5b81810381811115610e5757610e57615514565b634e487b7160e01b600052603160045260246000fd5b600082601f83011261556457600080fd5b8151615572614ad382614a8d565b81815284602083860101111561558757600080fd5b612306826020830160208701614836565b6000602082840312156155aa57600080fd5b81516001600160401b038111156155c057600080fd5b61230684828501615553565b80820180821115610e5757610e57615514565b6000826155fc57634e487b7160e01b600052601260045260246000fd5b500690565b60006001820161561357615613615514565b5060010190565b6020808252602e908201527f4552433732313a2063616c6c6572206973206e6f7420746f6b656e206f776e6560408201526d1c881b9bdc88185c1c1c9bdd995960921b606082015260800190565b60008154615675816154ca565b80855260206001838116801561569257600181146156ac576156da565b60ff1985168884015283151560051b8801830195506156da565b866000528260002060005b858110156156d25781548a82018601529083019084016156b7565b890184019650505b505050505092915050565b60006101408254845280602085015261570381850160018501615668565b9050615713600284015460ff1690565b615720604086018261493f565b5083810360608501526157368160038501615668565b9050838103608085015261574d8160048501615668565b905083810360a08501526157648160058501615668565b905061577a60068401546001600160a01b031690565b6001600160a01b0390811660c086015260078401541660e08501528381036101008501526157ab8160088501615668565b90508381036101208501526123068160098501615668565b60006101006157d28387614961565b8460c08401528060e0840152615190818401856156e5565b600080604083850312156157fd57600080fd5b82516001600160401b038082111561581457600080fd5b61582086838701615553565b9350602085015191508082111561583657600080fd5b5061536885828601615553565b601f8211156114f7576000816000526020600020601f850160051c8101602086101561586c5750805b601f850160051c820191505b81811015612f2557828155600101615878565b81516001600160401b038111156158a4576158a46149b7565b6158b8816158b284546154ca565b84615843565b602080601f8311600181146158ed57600084156158d55750858301515b600019600386901b1c1916600185901b178555612f25565b600085815260208120601f198616915b8281101561591c578886015182559484019460019091019084016158fd565b508582101561593a5787850151600019600388901b60f8161c191681555b5050505050600190811b01905550565b60006101608883526020615961602085018a614961565b8160e0850152615973828501896156e5565b9150838203610100850152615988828861485a565b915083820361012085015261599d828761485a565b848103610140860152915081604081018660005b60028110156159db5785830384526159c98383615668565b938501939250600191820191016159b1565b50909c9b505050505050505050505050565b60208152600061482f6020830184615668565b83151581526101008101615a176020830185614961565b6001600160801b03831660e0830152949350505050565b600060c08284031215615a4057600080fd5b615a486149f5565b825181526020830151615a5a81614c19565b6020820152604083810151908201526060830151615a7781614899565b60608201526080838101519082015260a0830151615a9481614c32565b60a08201529392505050565b6000610180825184526020830151602085015260408301516040850152606083015160608501526080830151608085015260a083015160a085015260c083015160c085015260e0830151615afc60e086018263ffffffff169052565b5061010083810151908501526101208084015160ff169085015261014080840151818601839052615b2f8387018261485a565b9250505061016080840151615b478287018215159052565b5090949350505050565b604081526000615b646040830186615aa0565b905061230660208301848660201b63ffffffff919091161760401b9052565b600080600060608486031215615b9857600080fd5b83516001600160401b0380821115615baf57600080fd5b615bbb87838801615553565b94506020860151915080821115615bd157600080fd5b615bdd87838801615553565b93506040860151915080821115615bf357600080fd5b5061530586828701615553565b6000610140878352806020840152615c1a8184018861485a565b90508281036040840152615c2e818761485a565b9050615c3d6060840186614961565b82810361012084015261540b81856156e5565b6000610160888352806020840152615c6a8184018961485a565b90508281036040840152615c7e818861485a565b90508281036060840152615c92818761485a565b9050615ca16080840186614961565b828103610140840152615cb481856156e5565b9998505050505050505050565b60208082526032908201527f4552433732313a207472616e7366657220746f206e6f6e20455243373231526560408201527131b2b4bb32b91034b6b83632b6b2b73a32b960711b606082015260800190565b60008060008060808587031215615d2957600080fd5b845193506020850151615d3b81614899565b6040860151909350615d4c81614899565b6060860151909250615d5d81614899565b939692955090935050565b600060208284031215615d7a57600080fd5b5051919050565b6001600160a01b03858116825284166020820152604081018390526080606082018190526000906151909083018461485a565b600060208284031215615dc657600080fd5b815161482f816147fc56fea2646970667358221220f214c6b0f482b51ec70af99d04795304abfa5440b8e563c0bb40646895af1e0564736f6c63430008160033608060405234801561001057600080fd5b506130ae806100206000396000f3fe608060405234801561001057600080fd5b50600436106100f55760003560e01c80635c1ef25611610097578063aeea03e511610066578063aeea03e5146101e8578063c08d7774146101fb578063e1defed91461020e578063e6ab9d5a1461022357600080fd5b80635c1ef256146101a75780636150dc03146101af578063898aa117146101c25780639a4813d8146101d557600080fd5b806338ce9433116100d357806338ce94331461015757806351dc71891461016a5780635ab38bf7146101725780635bf382591461019457600080fd5b806321b12c23146100fa57806329aadc5c146101235780632fbcb97e14610144575b600080fd5b61010d610108366004611e91565b61022b565b60405161011a9190611f1d565b60405180910390f35b610136610131366004612142565b610a74565b60405161011a9291906121e7565b610136610152366004612215565b610af4565b61013661016536600461237c565b610bfc565b610136610f69565b61018561018036600461237c565b611089565b60405161011a939291906123df565b61010d6101a2366004611e91565b61141e565b61010d611462565b61010d6101bd3660046124ad565b611531565b61010d6101d0366004611e91565b611773565b61010d6101e3366004611e91565b6119c5565b6101856101f6366004612577565b611a0a565b610185610209366004612215565b611ab9565b61022161021c366004612632565b611bdc565b005b61010d611bfa565b60606000604051806102000160405280604051806040016040528060018152602001600360fc1b8152508152602001604051806040016040528060018152602001603160f81b8152508152602001604051806040016040528060018152602001601960f91b8152508152602001604051806040016040528060018152602001603360f81b8152508152602001604051806040016040528060018152602001600d60fa1b8152508152602001604051806040016040528060018152602001603560f81b8152508152602001604051806040016040528060018152602001601b60f91b8152508152602001604051806040016040528060018152602001603760f81b8152508152602001604051806040016040528060018152602001600760fb1b8152508152602001604051806040016040528060018152602001603960f81b8152508152602001604051806040016040528060018152602001606160f81b8152508152602001604051806040016040528060018152602001603160f91b8152508152602001604051806040016040528060018152602001606360f81b8152508152602001604051806040016040528060018152602001601960fa1b8152508152602001604051806040016040528060018152602001606560f81b8152508152602001604051806040016040528060018152602001603360f91b81525081525090506000604051806103c00160405280604051806040016040528060018152602001600360fc1b8152508152602001604051806040016040528060018152602001603160f81b8152508152602001604051806040016040528060018152602001601960f91b8152508152602001604051806040016040528060018152602001603360f81b8152508152602001604051806040016040528060018152602001600d60fa1b8152508152602001604051806040016040528060018152602001603560f81b8152508152602001604051806040016040528060018152602001601b60f91b8152508152602001604051806040016040528060018152602001603760f81b8152508152602001604051806040016040528060018152602001600760fb1b8152508152602001604051806040016040528060018152602001603960f81b815250815260200160405180604001604052806002815260200161031360f41b815250815260200160405180604001604052806002815260200161313160f01b815250815260200160405180604001604052806002815260200161189960f11b815250815260200160405180604001604052806002815260200161313360f01b8152508152602001604051806040016040528060028152602001610c4d60f21b815250815260200160405180604001604052806002815260200161313560f01b815250815260200160405180604001604052806002815260200161189b60f11b815250815260200160405180604001604052806002815260200161313760f01b815250815260200160405180604001604052806002815260200161062760f31b815250815260200160405180604001604052806002815260200161313960f01b815250815260200160405180604001604052806002815260200161032360f41b815250815260200160405180604001604052806002815260200161323160f01b815250815260200160405180604001604052806002815260200161191960f11b815250815260200160405180604001604052806002815260200161323360f01b8152508152602001604051806040016040528060028152602001610c8d60f21b815250815260200160405180604001604052806002815260200161323560f01b815250815260200160405180604001604052806002815260200161191b60f11b815250815260200160405180604001604052806002815260200161323760f01b815250815260200160405180604001604052806002815260200161064760f31b815250815260200160405180604001604052806002815260200161323960f01b815250815250905060005b611194811015610a6c57600060f81b85828151811061081357610813612695565b01602001516001600160f81b0319161115610a5a576000601e6108376005846126d7565b61084191906126eb565b90506000601e6108526005856126d7565b61085c91906126d7565b905060008560048961086f8760026126ff565b8151811061087f5761087f612695565b016020015160f81c901c60ff166010811061089c5761089c612695565b602002015186896108ae8760026126ff565b815181106108be576108be612695565b60209101015160f81c600f16601081106108da576108da612695565b60200201518760048b6108ee8960036126ff565b815181106108fe576108fe612695565b016020015160f81c901c60ff166010811061091b5761091b612695565b6020020151888b61092d8960036126ff565b8151811061093d5761093d612695565b60209101015160f81c600f166010811061095957610959612695565b60200201518960048d61096c8b836126ff565b8151811061097c5761097c612695565b016020015160f81c901c60ff166010811061099957610999612695565b60200201518a8d6109ab8b60046126ff565b815181106109bb576109bb612695565b60209101015160f81c600f16601081106109d7576109d7612695565b60200201516040516020016109f19695949392919061272e565b6040516020818303038152906040529050868584601e8110610a1557610a15612695565b60200201518684601e8110610a2c57610a2c612695565b602002015183604051602001610a4594939291906127ad565b60405160208183030381529060405296505050505b610a656005826126ff565b90506107f2565b505050919050565b606080606080610a85868a87610af4565b8851909350909150600003610a9f57809350819250610ae8565b8781604051602001610ab2929190612867565b60405160208183030381529060405293508682604051602001610ad6929190612896565b60405160208183030381529060405292505b50509550959350505050565b60608084602001518015610b085750600084115b15610bb05760408084015190516301be83d160e11b8152610b9a9173__$4987fe9f4e800c5c4c1535f64ed232842a$__9163037d07a291610b4b916004016128d2565b600060405180830381865af4158015610b68573d6000803e3d6000fd5b505050506040513d6000823e601f3d908101601f19168201604052610b90919081019061294a565b8460200151611c1b565b9050610ba983608001516119c5565b9150610bf4565b604051806040016040528060028152602001617b7d60f01b81525090506040518060400160405280600b81526020016a1e39bb339f1e17b9bb339f60a91b81525091505b935093915050565b60608060008560c001511115610c7e5783838660c0015184846040518463ffffffff1660e01b8152600401610c339392919061297e565b600060405180830381865afa158015610c50573d6000803e3d6000fd5b505050506040513d6000823e601f3d908101601f19168201604052610c7891908101906129a9565b90925090505b60a085015115610cfa5783838660a0015184846040518463ffffffff1660e01b8152600401610caf9392919061297e565b600060405180830381865afa158015610ccc573d6000803e3d6000fd5b505050506040513d6000823e601f3d908101601f19168201604052610cf491908101906129a9565b90925090505b608085015115610d76578383866080015184846040518463ffffffff1660e01b8152600401610d2b9392919061297e565b600060405180830381865afa158015610d48573d6000803e3d6000fd5b505050506040513d6000823e601f3d908101601f19168201604052610d7091908101906129a9565b90925090505b604085015115610df2578383866040015184846040518463ffffffff1660e01b8152600401610da79392919061297e565b600060405180830381865afa158015610dc4573d6000803e3d6000fd5b505050506040513d6000823e601f3d908101601f19168201604052610dec91908101906129a9565b90925090505b602085015115610e6e578383866020015184846040518463ffffffff1660e01b8152600401610e239392919061297e565b600060405180830381865afa158015610e40573d6000803e3d6000fd5b505050506040513d6000823e601f3d908101601f19168201604052610e6891908101906129a9565b90925090505b845115610ee7578383866000015184846040518463ffffffff1660e01b8152600401610e9c9392919061297e565b600060405180830381865afa158015610eb9573d6000803e3d6000fd5b505050506040513d6000823e601f3d908101601f19168201604052610ee191908101906129a9565b90925090505b606085015115610bf4578383866060015184846040518463ffffffff1660e01b8152600401610f189392919061297e565b600060405180830381865afa158015610f35573d6000803e3d6000fd5b505050506040513d6000823e601f3d908101601f19168201604052610f5d91908101906129a9565b90969095509350505050565b600080548190610f7890612a02565b80601f0160208091040260200160405190810160405280929190818152602001828054610fa490612a02565b8015610ff15780601f10610fc657610100808354040283529160200191610ff1565b820191906000526020600020905b815481529060010190602001808311610fd457829003601f168201915b50505050509080600101805461100690612a02565b80601f016020809104026020016040519081016040528092919081815260200182805461103290612a02565b801561107f5780601f106110545761010080835404028352916020019161107f565b820191906000526020600020905b81548152906001019060200180831161106257829003601f168201915b5050505050905082565b606080606060008660c0015111156111125784848760c001518584866040518563ffffffff1660e01b81526004016110c49493929190612a3c565b600060405180830381865afa1580156110e1573d6000803e3d6000fd5b505050506040513d6000823e601f3d908101601f191682016040526111099190810190612a86565b91945090925090505b60a0860151156111935784848760a001518584866040518563ffffffff1660e01b81526004016111459493929190612a3c565b600060405180830381865afa158015611162573d6000803e3d6000fd5b505050506040513d6000823e601f3d908101601f1916820160405261118a9190810190612a86565b91945090925090505b60808601511561121457848487608001518584866040518563ffffffff1660e01b81526004016111c69493929190612a3c565b600060405180830381865afa1580156111e3573d6000803e3d6000fd5b505050506040513d6000823e601f3d908101601f1916820160405261120b9190810190612a86565b91945090925090505b60408601511561129557848487604001518584866040518563ffffffff1660e01b81526004016112479493929190612a3c565b600060405180830381865afa158015611264573d6000803e3d6000fd5b505050506040513d6000823e601f3d908101601f1916820160405261128c9190810190612a86565b91945090925090505b60208601511561131657848487602001518584866040518563ffffffff1660e01b81526004016112c89493929190612a3c565b600060405180830381865afa1580156112e5573d6000803e3d6000fd5b505050506040513d6000823e601f3d908101601f1916820160405261130d9190810190612a86565b91945090925090505b85511561139457848487600001518584866040518563ffffffff1660e01b81526004016113469493929190612a3c565b600060405180830381865afa158015611363573d6000803e3d6000fd5b505050506040513d6000823e601f3d908101601f1916820160405261138b9190810190612a86565b91945090925090505b60608601511561141557848487606001518584866040518563ffffffff1660e01b81526004016113c79493929190612a3c565b600060405180830381865afa1580156113e4573d6000803e3d6000fd5b505050506040513d6000823e601f3d908101601f1916820160405261140c9190810190612a86565b91945090925090505b93509350939050565b606060405180610100016040528060d28152602001612fa760d291398260405160200161144c929190612b17565b6040516020818303038152906040529050919050565b606060006114fb60008001805461147890612a02565b80601f01602080910402602001604051908101604052809291908181526020018280546114a490612a02565b80156114f15780601f106114c6576101008083540402835291602001916114f1565b820191906000526020600020905b8154815290600101906020018083116114d457829003601f168201915b5050505050611773565b905060006115088261022b565b90508060405160200161151b9190612b57565b6040516020818303038152906040529250505090565b60608060608760200151156116515760a08801516040516301be83d160e11b81526115cd9173__$4987fe9f4e800c5c4c1535f64ed232842a$__9163037d07a29161157e916004016128d2565b600060405180830381865af415801561159b573d6000803e3d6000fd5b505050506040513d6000823e601f3d908101601f191682016040526115c3919081019061294a565b8860200151611c1b565b6115fb6040518060400160405280600781526020016621b932b0ba37b960c91b815250896101000151611c1b565b6116296040518060400160405280600781526020016652656c6561736560c81b8152508a6101200151611c1b565b60405160200161163b93929190612bc1565b60405160208183030381529060405290506116a2565b6040518060400160405280600f81526020016e2261747472696275746573223a5b5d60881b81525090506040518060400160405280600b81526020016a1e39bb339f1e17b9bb339f60a91b81525094505b6116cc86866040516020016116b8929190612867565b60405160208183030381529060405261141e565b915060006116d983611c48565b6040516020016116e99190612c44565b604051602081830303815290604052905060006117058b611c56565b86516117108d611c56565b6020808a015160405161172a959493928991899101612ca0565b604051602081830303815290604052905061174481611c48565b6040516020016117549190612d85565b6040516020818303038152906040529450505050509695505050505050565b8051604080516111948082526111c08201909252606092916000919060208201818036833701905050905060006117ab6005846126d7565b905060005b818110156119bb5760006117c5826005612dca565b905060008782815181106117db576117db612695565b016020015160f81c90506000886117f38460016126ff565b8151811061180357611803612695565b016020015160f81c9050600060ff831661181e83601e612dca565b61182891906126ff565b611833906005612dca565b905089848151811061184757611847612695565b602001015160f81c60f81b87828151811061186457611864612695565b60200101906001600160f81b031916908160001a90535089846001018151811061189057611890612695565b602001015160f81c60f81b8782600101815181106118b0576118b0612695565b60200101906001600160f81b031916908160001a9053508984600201815181106118dc576118dc612695565b602001015160f81c60f81b8782600201815181106118fc576118fc612695565b60200101906001600160f81b031916908160001a90535089846003018151811061192857611928612695565b602001015160f81c60f81b87826003018151811061194857611948612695565b60200101906001600160f81b031916908160001a90535089846004018151811061197457611974612695565b602001015160f81c60f81b87826004018151811061199457611994612695565b60200101906001600160f81b031916908160001a90535050600190930192506117b0915050565b5090949350505050565b606060006119d283611773565b905060006119df8261022b565b9050806040516020016119f29190612de1565b60405160208183030381529060405292505050919050565b606080606080606080611a1e888d89611ab9565b8c519095509193509150600003611a3d57819550829450809350611aaa565b8a82604051602001611a50929190612867565b60405160208183030381529060405295508983604051602001611a74929190612896565b60405160208183030381529060405294508881604051602001611a98929190612867565b60405160208183030381529060405293505b50505096509650969350505050565b606080606085602001518015611acf5750600085115b15611b7e57611ae184608001516119c5565b9250611b7073__$4987fe9f4e800c5c4c1535f64ed232842a$__63037d07a286604001516040518263ffffffff1660e01b8152600401611b2191906128d2565b600060405180830381865af4158015611b3e573d6000803e3d6000fd5b505050506040513d6000823e601f3d908101601f19168201604052611b66919081019061294a565b8560200151611c1b565b90508360a001519150611415565b6040518060400160405280600b81526020016a1e39bb339f1e17b9bb339f60a91b8152509250604051806040016040528060028152602001617b7d60f01b815250905060405180602001604052806000815250915093509350939050565b6000611be88382612e76565b506001611bf58282612e76565b505050565b606060405180610100016040528060d28152602001612fa760d29139905090565b60608282604051602001611c30929190612f35565b60405160208183030381529060405290505b92915050565b6060611c4282600080611c9a565b60606080604051019050602081016040526000815280600019835b928101926030600a8206018453600a900480611c71575050819003601f19909101908152919050565b606083518015611d7a576003600282010460021b60405192507f4142434445464748494a4b4c4d4e4f505152535455565758595a616263646566601f526106708515027f6768696a6b6c6d6e6f707172737475767778797a303132333435363738392d5f18603f52602083018181015b6003880197508751603f8160121c1651600053603f81600c1c1651600153603f8160061c1651600253603f811651600353506000518252600482019150808210611d0a57602001604052613d3d60f01b600384066002048083039190915260008615159091029182900352900382525b509392505050565b634e487b7160e01b600052604160045260246000fd5b60405161014081016001600160401b0381118282101715611dbb57611dbb611d82565b60405290565b60405161018081016001600160401b0381118282101715611dbb57611dbb611d82565b604051601f8201601f191681016001600160401b0381118282101715611e0c57611e0c611d82565b604052919050565b60006001600160401b03821115611e2d57611e2d611d82565b50601f01601f191660200190565b600082601f830112611e4c57600080fd5b8135611e5f611e5a82611e14565b611de4565b818152846020838601011115611e7457600080fd5b816020850160208301376000918101602001919091529392505050565b600060208284031215611ea357600080fd5b81356001600160401b03811115611eb957600080fd5b611ec584828501611e3b565b949350505050565b60005b83811015611ee8578181015183820152602001611ed0565b50506000910152565b60008151808452611f09816020860160208601611ecd565b601f01601f19169290920160200192915050565b602081526000611f306020830184611ef1565b9392505050565b80358015158114611f4757600080fd5b919050565b80356001600160a01b0381168114611f4757600080fd5b803560088110611f4757600080fd5b600060c08284031215611f8457600080fd5b60405160c081018181106001600160401b0382111715611fa657611fa6611d82565b60405282358152905080611fbc60208401611f37565b602082015260408301356040820152611fd760608401611f4c565b606082015260808301356080820152611ff260a08401611f63565b60a08201525092915050565b6000610140828403121561201157600080fd5b612019611d98565b90508135815260208201356001600160401b038082111561203957600080fd5b61204585838601611e3b565b602084015261205660408501611f63565b6040840152606084013591508082111561206f57600080fd5b61207b85838601611e3b565b6060840152608084013591508082111561209457600080fd5b6120a085838601611e3b565b608084015260a08401359150808211156120b957600080fd5b6120c585838601611e3b565b60a08401526120d660c08501611f4c565b60c08401526120e760e08501611f4c565b60e08401526101009150818401358181111561210257600080fd5b61210e86828701611e3b565b83850152506101209150818401358181111561212957600080fd5b61213586828701611e3b565b8385015250505092915050565b6000806000806000610140868803121561215b57600080fd5b8535945060208601356001600160401b038082111561217957600080fd5b61218589838a01611e3b565b9550604088013591508082111561219b57600080fd5b6121a789838a01611e3b565b94506121b68960608a01611f72565b93506101208801359150808211156121cd57600080fd5b506121da88828901611ffe565b9150509295509295909350565b6040815260006121fa6040830185611ef1565b828103602084015261220c8185611ef1565b95945050505050565b6000806000610100848603121561222b57600080fd5b6122358585611f72565b925060c0840135915060e08401356001600160401b0381111561225757600080fd5b61226386828701611ffe565b9150509250925092565b803563ffffffff81168114611f4757600080fd5b803560ff81168114611f4757600080fd5b600061018082840312156122a557600080fd5b6122ad611dc1565b9050813581526020820135602082015260408201356040820152606082013560608201526080820135608082015260a082013560a082015260c082013560c08201526122fb60e0830161226d565b60e08201526101008281013590820152610120612319818401612281565b90820152610140828101356001600160401b0381111561233857600080fd5b61234485828601611e3b565b828401525050610160612358818401611f37565b9082015292915050565b67ffffffffffffffff198116811461237957600080fd5b50565b60008060006040848603121561239157600080fd5b83356001600160401b038111156123a757600080fd5b6123b386828701612292565b93505060208401356123c481612362565b9295606084901c955060409390931c63ffffffff1693505050565b6060815260006123f26060830186611ef1565b82810360208401526124048186611ef1565b905082810360408401526124188185611ef1565b9695505050505050565b600082601f83011261243357600080fd5b604051604081016001600160401b03828210818311171561245657612456611d82565b6040918252829185018681111561246c57600080fd5b855b818110156124a1578035838111156124865760008081fd5b61249289828a01611e3b565b8552506020938401930161246e565b50929695505050505050565b60008060008060008061016087890312156124c757600080fd5b863595506124d88860208901611f72565b945060e08701356001600160401b03808211156124f457600080fd5b6125008a838b01611ffe565b955061010089013591508082111561251757600080fd5b6125238a838b01611e3b565b945061012089013591508082111561253a57600080fd5b6125468a838b01611e3b565b935061014089013591508082111561255d57600080fd5b5061256a89828a01612422565b9150509295509295509295565b600080600080600080610160878903121561259157600080fd5b8635955060208701356001600160401b03808211156125af57600080fd5b6125bb8a838b01611e3b565b965060408901359150808211156125d157600080fd5b6125dd8a838b01611e3b565b955060608901359150808211156125f357600080fd5b6125ff8a838b01611e3b565b945061260e8a60808b01611f72565b935061014089013591508082111561262557600080fd5b5061256a89828a01611ffe565b6000806040838503121561264557600080fd5b82356001600160401b038082111561265c57600080fd5b61266886838701611e3b565b9350602085013591508082111561267e57600080fd5b5061268b85828601611e3b565b9150509250929050565b634e487b7160e01b600052603260045260246000fd5b634e487b7160e01b600052601260045260246000fd5b634e487b7160e01b600052601160045260246000fd5b6000826126e6576126e66126ab565b500490565b6000826126fa576126fa6126ab565b500690565b80820180821115611c4257611c426126c1565b60008151612724818560208601611ecd565b9290920192915050565b6000875160206127418285838d01611ecd565b8851918401916127548184848d01611ecd565b88519201916127668184848c01611ecd565b87519201916127788184848b01611ecd565b865192019161278a8184848a01611ecd565b855192019161279c8184848901611ecd565b919091019998505050505050505050565b600085516127bf818460208a01611ecd565b681e3932b1ba103c1e9160b91b90830190815285516127e5816009840160208a01611ecd565b6411103c9e9160d91b60099290910191820152845161280b81600e840160208901611ecd565b7f222077696474683d223122206865696768743d2231222066696c6c3d22230000600e9290910191820152835161284981602c840160208801611ecd565b6211179f60e91b602c9290910191820152602f019695505050505050565b60008351612879818460208801611ecd565b83519083019061288d818360208801611ecd565b01949350505050565b600083516128a8818460208801611ecd565b600b60fa1b90830190815283516128c6816001840160208801611ecd565b01600101949350505050565b60208101600883106128f457634e487b7160e01b600052602160045260246000fd5b91905290565b6000612908611e5a84611e14565b905082815283838301111561291c57600080fd5b611f30836020830184611ecd565b600082601f83011261293b57600080fd5b611f30838351602085016128fa565b60006020828403121561295c57600080fd5b81516001600160401b0381111561297257600080fd5b611ec58482850161292a565b8381526060602082015260006129976060830185611ef1565b82810360408401526124188185611ef1565b600080604083850312156129bc57600080fd5b82516001600160401b03808211156129d357600080fd5b6129df8683870161292a565b935060208501519150808211156129f557600080fd5b5061268b8582860161292a565b600181811c90821680612a1657607f821691505b602082108103612a3657634e487b7160e01b600052602260045260246000fd5b50919050565b848152608060208201526000612a556080830186611ef1565b8281036040840152612a678186611ef1565b90508281036060840152612a7b8185611ef1565b979650505050505050565b600080600060608486031215612a9b57600080fd5b83516001600160401b0380821115612ab257600080fd5b612abe8783880161292a565b94506020860151915080821115612ad457600080fd5b612ae08783880161292a565b93506040860151915080821115612af657600080fd5b508401601f81018613612b0857600080fd5b612263868251602084016128fa565b60008351612b29818460208801611ecd565b835190830190612b3d818360208801611ecd565b651e17b9bb339f60d11b9101908152600601949350505050565b7f3c672069643d2267686f73742220636c6173733d226722207374796c653d226f81526d3830b1b4ba3c9d101a98129d911f60911b602082015260008251612ba681602e850160208701611ecd565b631e17b39f60e11b602e939091019283015250603201919050565b6d2261747472696275746573223a5b60901b81528351600090612beb81600e850160208901611ecd565b8083019050600b60fa1b80600e8301528551612c0e81600f850160208a01611ecd565b600f9201918201528351612c29816010840160208801611ecd565b605d60f81b6010929091019182015260110195945050505050565b7f22696d616765223a22646174613a696d6167652f7376672b786d6c3b626173658152620d8d0b60ea1b602082015260008251612c88816023850160208701611ecd565b601160f91b6023939091019283015250602401919050565b757b226e616d65223a2243686f6e6b205472616974202360501b81528651600090612cd2816016850160208c01611ecd565b701116113232b9b1b934b83a34b7b7111d1160791b6016918401918201528751612d03816027840160208c01611ecd565b8751910190612d19816027840160208b01611ecd565b8651910190612d2f816027840160208a01611ecd565b61088b60f21b602792909101918201528451612d52816029840160208901611ecd565b600b60fa1b60299290910191820152612d6e602a820185612712565b607d60f81b81526001019998505050505050505050565b7f646174613a6170706c69636174696f6e2f6a736f6e3b6261736536342c000000815260008251612dbd81601d850160208701611ecd565b91909101601d0192915050565b8082028115828204841417611c4257611c426126c1565b6d1e339034b21e912a3930b4ba111f60911b81528151600090612e0b81600e850160208701611ecd565b631e17b39f60e11b600e939091019283015250601201919050565b601f821115611bf5576000816000526020600020601f850160051c81016020861015612e4f5750805b601f850160051c820191505b81811015612e6e57828155600101612e5b565b505050505050565b81516001600160401b03811115612e8f57612e8f611d82565b612ea381612e9d8454612a02565b84612e26565b602080601f831160018114612ed85760008415612ec05750858301515b600019600386901b1c1916600185901b178555612e6e565b600085815260208120601f198616915b82811015612f0757888601518255948401946001909101908401612ee8565b5085821015612f255787850151600019600388901b60f8161c191681555b5050505050600190811b01905550565b6e3d913a3930b4ba2fba3cb832911d1160891b81528251600090612f6081600f850160208801611ecd565b6a1116113b30b63ab2911d1160a91b600f918401918201528351612f8b81601a840160208801611ecd565b61227d60f01b601a9290910191820152601c0194935050505056fe3c7376672073686170652d72656e646572696e673d2263726973704564676573222076696577426f783d22302030203330203330222066696c6c3d226e6f6e652220786d6c6e733d22687474703a2f2f7777772e77332e6f72672f323030302f737667223e3c7374796c653e726563747b77696474683a3170783b206865696768743a203170783b7d202e62677b77696474683a333070783b206865696768743a20333070783b7d203c2f7374796c653e3c7265637420636c6173733d226267222066696c6c3d2223304436453944222f3ea264697066735822122014bb996609ceb94421d9d9eb9fed9675bccf8da810966e4fff22a45d50d5379f64736f6c63430008160033","linkReferences":{"src/TraitCategory.sol":{"TraitCategory":[{"start":27734,"length":20},{"start":30345,"length":20},{"start":31769,"length":20}]}}},"methodIdentifiers":{"addApprovedInvalidator(address)":"f677c013","addMinter(address)":"983b2d56","approve(address,uint256)":"095ea7b3","approvedInvalidators(address)":"b3148f75","balanceOf(address)":"70a08231","burn(uint256)":"42966c68","burnBatch(uint256[])":"e4623c1b","callGetSVGZmapAndMetadataTrait(uint256,string,string,bytes)":"f1271942","callGetSvgAndMetadataTrait(uint256,string,string)":"e08714a6","cancelOwnershipHandover()":"54d1f13d","chonksMain()":"ba7270f3","completeOwnershipHandover(address)":"f04e283e","createSvgFromPixels(bytes)":"21b12c23","getApproved(uint256)":"081812fc","getApprovedOperators(uint256)":"00db6348","getCurrentEpoch()":"b97dd9e2","getEpoch()":"757991a8","getEpochData(uint256)":"859e7d32","getGhostSvg()":"5c1ef256","getSVGZmapAndMetadataTrait((uint256,bool,uint256,address,uint256,uint8),uint256)":"f901667f","getStoredTraitForTokenId(uint256)":"208c25a3","getSvgAndMetadata((uint256,uint256,uint256,uint256,uint256,uint256,uint256,uint32,uint256,uint8,string,bool))":"df2c2b88","getSvgAndMetadataTrait((uint256,bool,uint256,address,uint256,uint8),uint256)":"33a70328","getSvgForTokenId(uint256)":"c7791531","getSvgZmapsAndMetadata((uint256,uint256,uint256,uint256,uint256,uint256,uint256,uint32,uint256,uint8,string,bool))":"bb12d21d","getTrait(uint256)":"acb586df","getTraitImageSvg(uint256)":"a5e2912a","getTraitIndexToMetadata(uint256)":"ea139544","getTraitMetadata(uint256)":"d1bfc2af","getZMapForTokenId(uint256)":"a8498c74","invalidateAllOperatorApprovals(uint256)":"90f63842","isApprovedForAll(address,address)":"e985e9c5","isMinter(address)":"aa271e1a","marketplace()":"abc8c7af","mintStartTime()":"931e2e49","name()":"06fdde03","nextTokenId()":"75794a3c","owner()":"8da5cb5b","ownerOf(uint256)":"6352211e","ownershipHandoverExpiresAt(address)":"fee81cf4","removeApprovedInvalidator(address)":"cde2180a","removeMinter(address)":"3092afd5","renderAsDataUri(uint256)":"a1d62680","renounceOwnership()":"715018a6","requestOwnershipHandover()":"25692962","resolveEpochIfNecessary()":"239ffa68","safeMint(address)":"40d097c3","safeTransferFrom(address,address,uint256)":"42842e0e","safeTransferFrom(address,address,uint256,bytes)":"b88d4fde","setApprovalForAll(address,bool)":"a22cb465","setChonksMain(address)":"713dbc27","setDescriptionParts(string[2])":"26f2052a","setGhostMaps(bytes,bytes)":"e1defed9","setMarketplace(address)":"73ad6c2d","setMintStartTime(uint256)":"d5b3621b","setTraitForTokenId(uint256,(uint256,bool,uint256,address,uint256,uint8))":"36d34ab9","setTraitIndexToMetadata(uint256,(uint256,string,uint8,string,bytes,bytes,address,address,string,string))":"8d37c537","setTraitRenderer(address)":"120def24","supportsInterface(bytes4)":"01ffc9a7","symbol()":"95d89b41","tokenByIndex(uint256)":"4f6ccce7","tokenOfOwnerByIndex(address,uint256)":"2f745c59","tokenURI(uint256)":"c87b56dd","totalSupply()":"18160ddd","traitIdToApprovedOperators(uint256,uint256)":"11f3910d","traitIndexToMetadata(uint256)":"817a29a4","traitRenderer()":"c876371b","traitTokens()":"e14d026f","transferFrom(address,address,uint256)":"23b872dd","transferOwnership(address)":"f2fde38b","walletOfOwner(address)":"438b6300"},"id":41}