{"abi":[{"type":"constructor","inputs":[],"stateMutability":"nonpayable"},{"type":"function","name":"addMinter","inputs":[{"name":"_minter","type":"address","internalType":"address"}],"outputs":[],"stateMutability":"nonpayable"},{"type":"function","name":"approve","inputs":[{"name":"to","type":"address","internalType":"address"},{"name":"tokenId","type":"uint256","internalType":"uint256"}],"outputs":[],"stateMutability":"nonpayable"},{"type":"function","name":"balanceOf","inputs":[{"name":"owner","type":"address","internalType":"address"}],"outputs":[{"name":"","type":"uint256","internalType":"uint256"}],"stateMutability":"view"},{"type":"function","name":"burn","inputs":[{"name":"_tokenId","type":"uint256","internalType":"uint256"}],"outputs":[],"stateMutability":"nonpayable"},{"type":"function","name":"burnBatch","inputs":[{"name":"tokenIds","type":"uint256[]","internalType":"uint256[]"}],"outputs":[],"stateMutability":"nonpayable"},{"type":"function","name":"callGetSVGZmapAndMetadataTrait","inputs":[{"name":"_traitId","type":"uint256","internalType":"uint256"},{"name":"_traitsSvg","type":"string","internalType":"string"},{"name":"_traitsAttributes","type":"string","internalType":"string"},{"name":"_traitZMaps","type":"bytes","internalType":"bytes"}],"outputs":[{"name":"traitsSvg","type":"string","internalType":"string"},{"name":"traitsAttributes","type":"string","internalType":"string"},{"name":"traitZMaps","type":"bytes","internalType":"bytes"}],"stateMutability":"view"},{"type":"function","name":"callGetSvgAndMetadataTrait","inputs":[{"name":"_traitId","type":"uint256","internalType":"uint256"},{"name":"_traitsSvg","type":"string","internalType":"string"},{"name":"_traitsAttributes","type":"string","internalType":"string"}],"outputs":[{"name":"traitsSvg","type":"string","internalType":"string"},{"name":"traitsAttributes","type":"string","internalType":"string"}],"stateMutability":"view"},{"type":"function","name":"cancelOwnershipHandover","inputs":[],"outputs":[],"stateMutability":"payable"},{"type":"function","name":"chonkTraitsV1","inputs":[],"outputs":[{"name":"","type":"address","internalType":"contract IChonkTraitsV1"}],"stateMutability":"view"},{"type":"function","name":"chonksMain","inputs":[],"outputs":[{"name":"","type":"address","internalType":"contract ChonksMain"}],"stateMutability":"view"},{"type":"function","name":"completeOwnershipHandover","inputs":[{"name":"pendingOwner","type":"address","internalType":"address"}],"outputs":[],"stateMutability":"payable"},{"type":"function","name":"createSvgFromPixels","inputs":[{"name":"_pixels","type":"bytes","internalType":"bytes"}],"outputs":[{"name":"svgParts","type":"bytes","internalType":"bytes"}],"stateMutability":"view"},{"type":"function","name":"getApproved","inputs":[{"name":"tokenId","type":"uint256","internalType":"uint256"}],"outputs":[{"name":"","type":"address","internalType":"address"}],"stateMutability":"view"},{"type":"function","name":"getColorMapForTokenId","inputs":[{"name":"_tokenId","type":"uint256","internalType":"uint256"}],"outputs":[{"name":"","type":"bytes","internalType":"bytes"}],"stateMutability":"view"},{"type":"function","name":"getCurrentEpoch","inputs":[],"outputs":[{"name":"","type":"uint256","internalType":"uint256"}],"stateMutability":"view"},{"type":"function","name":"getEpochData","inputs":[{"name":"index","type":"uint256","internalType":"uint256"}],"outputs":[{"name":"","type":"tuple","internalType":"struct CommitReveal.Epoch","components":[{"name":"randomness","type":"uint128","internalType":"uint128"},{"name":"revealBlock","type":"uint64","internalType":"uint64"},{"name":"committed","type":"bool","internalType":"bool"},{"name":"revealed","type":"bool","internalType":"bool"}]}],"stateMutability":"view"},{"type":"function","name":"getGhostSvg","inputs":[],"outputs":[{"name":"","type":"string","internalType":"string"}],"stateMutability":"view"},{"type":"function","name":"getSVGZmapAndMetadataTrait","inputs":[{"name":"_trait","type":"tuple","internalType":"struct ITraitStorage.StoredTrait","components":[{"name":"epoch","type":"uint256","internalType":"uint256"},{"name":"isRevealed","type":"bool","internalType":"bool"},{"name":"seed","type":"uint256","internalType":"uint256"},{"name":"dataMinterContract","type":"address","internalType":"address"},{"name":"traitIndex","type":"uint256","internalType":"uint256"},{"name":"traitType","type":"uint8","internalType":"enum TraitCategory.Name"}]},{"name":"_traitId","type":"uint256","internalType":"uint256"}],"outputs":[{"name":"traitSvg","type":"string","internalType":"string"},{"name":"traitZmap","type":"bytes","internalType":"bytes"},{"name":"traitAttributes","type":"string","internalType":"string"}],"stateMutability":"view"},{"type":"function","name":"getStoredTraitForTokenId","inputs":[{"name":"_tokenId","type":"uint256","internalType":"uint256"}],"outputs":[{"name":"","type":"tuple","internalType":"struct ITraitStorage.StoredTrait","components":[{"name":"epoch","type":"uint256","internalType":"uint256"},{"name":"isRevealed","type":"bool","internalType":"bool"},{"name":"seed","type":"uint256","internalType":"uint256"},{"name":"dataMinterContract","type":"address","internalType":"address"},{"name":"traitIndex","type":"uint256","internalType":"uint256"},{"name":"traitType","type":"uint8","internalType":"enum TraitCategory.Name"}]}],"stateMutability":"view"},{"type":"function","name":"getSvgAndMetadata","inputs":[{"name":"_storedChonk","type":"tuple","internalType":"struct IChonkStorage.StoredChonk","components":[{"name":"tokenId","type":"uint256","internalType":"uint256"},{"name":"headId","type":"uint256","internalType":"uint256"},{"name":"hairId","type":"uint256","internalType":"uint256"},{"name":"faceId","type":"uint256","internalType":"uint256"},{"name":"accessoryId","type":"uint256","internalType":"uint256"},{"name":"topId","type":"uint256","internalType":"uint256"},{"name":"bottomId","type":"uint256","internalType":"uint256"},{"name":"shoesId","type":"uint256","internalType":"uint256"},{"name":"bodyIndex","type":"uint8","internalType":"uint8"},{"name":"backgroundColor","type":"string","internalType":"string"},{"name":"render3D","type":"bool","internalType":"bool"}]}],"outputs":[{"name":"traitsSvg","type":"string","internalType":"string"},{"name":"traitsAttributes","type":"string","internalType":"string"}],"stateMutability":"view"},{"type":"function","name":"getSvgAndMetadataTrait","inputs":[{"name":"_trait","type":"tuple","internalType":"struct ITraitStorage.StoredTrait","components":[{"name":"epoch","type":"uint256","internalType":"uint256"},{"name":"isRevealed","type":"bool","internalType":"bool"},{"name":"seed","type":"uint256","internalType":"uint256"},{"name":"dataMinterContract","type":"address","internalType":"address"},{"name":"traitIndex","type":"uint256","internalType":"uint256"},{"name":"traitType","type":"uint8","internalType":"enum TraitCategory.Name"}]},{"name":"_traitId","type":"uint256","internalType":"uint256"}],"outputs":[{"name":"traitSvg","type":"string","internalType":"string"},{"name":"traitAttributes","type":"string","internalType":"string"}],"stateMutability":"view"},{"type":"function","name":"getSvgForTokenId","inputs":[{"name":"_tokenId","type":"uint256","internalType":"uint256"}],"outputs":[{"name":"traitSvg","type":"string","internalType":"string"}],"stateMutability":"view"},{"type":"function","name":"getSvgZmapsAndMetadata","inputs":[{"name":"_storedChonk","type":"tuple","internalType":"struct IChonkStorage.StoredChonk","components":[{"name":"tokenId","type":"uint256","internalType":"uint256"},{"name":"headId","type":"uint256","internalType":"uint256"},{"name":"hairId","type":"uint256","internalType":"uint256"},{"name":"faceId","type":"uint256","internalType":"uint256"},{"name":"accessoryId","type":"uint256","internalType":"uint256"},{"name":"topId","type":"uint256","internalType":"uint256"},{"name":"bottomId","type":"uint256","internalType":"uint256"},{"name":"shoesId","type":"uint256","internalType":"uint256"},{"name":"bodyIndex","type":"uint8","internalType":"uint8"},{"name":"backgroundColor","type":"string","internalType":"string"},{"name":"render3D","type":"bool","internalType":"bool"}]}],"outputs":[{"name":"traitsSvg","type":"string","internalType":"string"},{"name":"traitZMaps","type":"bytes","internalType":"bytes"},{"name":"traitsAttributes","type":"string","internalType":"string"}],"stateMutability":"view"},{"type":"function","name":"getTrait","inputs":[{"name":"_tokenId","type":"uint256","internalType":"uint256"}],"outputs":[{"name":"","type":"tuple","internalType":"struct ITraitStorage.StoredTrait","components":[{"name":"epoch","type":"uint256","internalType":"uint256"},{"name":"isRevealed","type":"bool","internalType":"bool"},{"name":"seed","type":"uint256","internalType":"uint256"},{"name":"dataMinterContract","type":"address","internalType":"address"},{"name":"traitIndex","type":"uint256","internalType":"uint256"},{"name":"traitType","type":"uint8","internalType":"enum TraitCategory.Name"}]}],"stateMutability":"view"},{"type":"function","name":"getTraitImageSvg","inputs":[{"name":"_index","type":"uint256","internalType":"uint256"}],"outputs":[{"name":"svg","type":"string","internalType":"string"}],"stateMutability":"view"},{"type":"function","name":"getTraitIndexToMetadata","inputs":[{"name":"_traitIndex","type":"uint256","internalType":"uint256"}],"outputs":[{"name":"","type":"tuple","internalType":"struct ITraitStorage.TraitMetadata","components":[{"name":"traitIndex","type":"uint256","internalType":"uint256"},{"name":"traitName","type":"string","internalType":"string"},{"name":"traitType","type":"uint8","internalType":"enum TraitCategory.Name"},{"name":"colorMap","type":"bytes","internalType":"bytes"},{"name":"zMap","type":"bytes","internalType":"bytes"},{"name":"dataMinterContract","type":"address","internalType":"address"},{"name":"creatorAddress","type":"address","internalType":"address"},{"name":"creatorName","type":"string","internalType":"string"},{"name":"release","type":"string","internalType":"string"}]}],"stateMutability":"view"},{"type":"function","name":"getTraitMetadata","inputs":[{"name":"_tokenId","type":"uint256","internalType":"uint256"}],"outputs":[{"name":"","type":"tuple","internalType":"struct ITraitStorage.TraitMetadata","components":[{"name":"traitIndex","type":"uint256","internalType":"uint256"},{"name":"traitName","type":"string","internalType":"string"},{"name":"traitType","type":"uint8","internalType":"enum TraitCategory.Name"},{"name":"colorMap","type":"bytes","internalType":"bytes"},{"name":"zMap","type":"bytes","internalType":"bytes"},{"name":"dataMinterContract","type":"address","internalType":"address"},{"name":"creatorAddress","type":"address","internalType":"address"},{"name":"creatorName","type":"string","internalType":"string"},{"name":"release","type":"string","internalType":"string"}]}],"stateMutability":"view"},{"type":"function","name":"getZMapForTokenId","inputs":[{"name":"_tokenId","type":"uint256","internalType":"uint256"}],"outputs":[{"name":"","type":"string","internalType":"string"}],"stateMutability":"view"},{"type":"function","name":"invalidateAllOperatorApprovals","inputs":[{"name":"_tokenId","type":"uint256","internalType":"uint256"}],"outputs":[],"stateMutability":"nonpayable"},{"type":"function","name":"isApprovedForAll","inputs":[{"name":"_tba","type":"address","internalType":"address"},{"name":"_operator","type":"address","internalType":"address"}],"outputs":[{"name":"","type":"bool","internalType":"bool"}],"stateMutability":"view"},{"type":"function","name":"isMinter","inputs":[{"name":"","type":"address","internalType":"address"}],"outputs":[{"name":"","type":"bool","internalType":"bool"}],"stateMutability":"view"},{"type":"function","name":"marketplace","inputs":[],"outputs":[{"name":"","type":"address","internalType":"contract ChonksMarket"}],"stateMutability":"view"},{"type":"function","name":"name","inputs":[],"outputs":[{"name":"","type":"string","internalType":"string"}],"stateMutability":"view"},{"type":"function","name":"nextTokenId","inputs":[],"outputs":[{"name":"","type":"uint256","internalType":"uint256"}],"stateMutability":"view"},{"type":"function","name":"owner","inputs":[],"outputs":[{"name":"result","type":"address","internalType":"address"}],"stateMutability":"view"},{"type":"function","name":"ownerOf","inputs":[{"name":"tokenId","type":"uint256","internalType":"uint256"}],"outputs":[{"name":"","type":"address","internalType":"address"}],"stateMutability":"view"},{"type":"function","name":"ownershipHandoverExpiresAt","inputs":[{"name":"pendingOwner","type":"address","internalType":"address"}],"outputs":[{"name":"result","type":"uint256","internalType":"uint256"}],"stateMutability":"view"},{"type":"function","name":"removeMinter","inputs":[{"name":"_minter","type":"address","internalType":"address"}],"outputs":[],"stateMutability":"nonpayable"},{"type":"function","name":"renderAsDataUri","inputs":[{"name":"_tokenId","type":"uint256","internalType":"uint256"}],"outputs":[{"name":"","type":"string","internalType":"string"}],"stateMutability":"view"},{"type":"function","name":"renounceOwnership","inputs":[],"outputs":[],"stateMutability":"payable"},{"type":"function","name":"replaceMint","inputs":[{"name":"_to","type":"address","internalType":"address"},{"name":"_tokenId","type":"uint256","internalType":"uint256"}],"outputs":[],"stateMutability":"nonpayable"},{"type":"function","name":"replaceMintPermisssionsRevoked","inputs":[],"outputs":[{"name":"","type":"bool","internalType":"bool"}],"stateMutability":"view"},{"type":"function","name":"requestOwnershipHandover","inputs":[],"outputs":[],"stateMutability":"payable"},{"type":"function","name":"resolveEpochIfNecessary","inputs":[],"outputs":[],"stateMutability":"nonpayable"},{"type":"function","name":"revokeReplaceMintPermissions","inputs":[],"outputs":[],"stateMutability":"nonpayable"},{"type":"function","name":"safeMint","inputs":[{"name":"_to","type":"address","internalType":"address"}],"outputs":[{"name":"","type":"uint256","internalType":"uint256"}],"stateMutability":"nonpayable"},{"type":"function","name":"safeTransferFrom","inputs":[{"name":"from","type":"address","internalType":"address"},{"name":"to","type":"address","internalType":"address"},{"name":"tokenId","type":"uint256","internalType":"uint256"}],"outputs":[],"stateMutability":"nonpayable"},{"type":"function","name":"safeTransferFrom","inputs":[{"name":"from","type":"address","internalType":"address"},{"name":"to","type":"address","internalType":"address"},{"name":"tokenId","type":"uint256","internalType":"uint256"},{"name":"data","type":"bytes","internalType":"bytes"}],"outputs":[],"stateMutability":"nonpayable"},{"type":"function","name":"setApprovalForAll","inputs":[{"name":"_operator","type":"address","internalType":"address"},{"name":"_approved","type":"bool","internalType":"bool"}],"outputs":[],"stateMutability":"nonpayable"},{"type":"function","name":"setDescriptionParts","inputs":[{"name":"_descriptionParts","type":"string[2]","internalType":"string[2]"}],"outputs":[],"stateMutability":"nonpayable"},{"type":"function","name":"setGhostMaps","inputs":[{"name":"_colorMap","type":"bytes","internalType":"bytes"},{"name":"_zMap","type":"bytes","internalType":"bytes"}],"outputs":[],"stateMutability":"nonpayable"},{"type":"function","name":"setMarketplace","inputs":[{"name":"_marketplace","type":"address","internalType":"address"}],"outputs":[],"stateMutability":"nonpayable"},{"type":"function","name":"setTraitForTokenId","inputs":[{"name":"_tokenId","type":"uint256","internalType":"uint256"},{"name":"_trait","type":"tuple","internalType":"struct ITraitStorage.StoredTrait","components":[{"name":"epoch","type":"uint256","internalType":"uint256"},{"name":"isRevealed","type":"bool","internalType":"bool"},{"name":"seed","type":"uint256","internalType":"uint256"},{"name":"dataMinterContract","type":"address","internalType":"address"},{"name":"traitIndex","type":"uint256","internalType":"uint256"},{"name":"traitType","type":"uint8","internalType":"enum TraitCategory.Name"}]}],"outputs":[],"stateMutability":"nonpayable"},{"type":"function","name":"setTraitIndexToMetadata","inputs":[{"name":"_traitIndex","type":"uint256","internalType":"uint256"},{"name":"_metadata","type":"tuple","internalType":"struct ITraitStorage.TraitMetadata","components":[{"name":"traitIndex","type":"uint256","internalType":"uint256"},{"name":"traitName","type":"string","internalType":"string"},{"name":"traitType","type":"uint8","internalType":"enum TraitCategory.Name"},{"name":"colorMap","type":"bytes","internalType":"bytes"},{"name":"zMap","type":"bytes","internalType":"bytes"},{"name":"dataMinterContract","type":"address","internalType":"address"},{"name":"creatorAddress","type":"address","internalType":"address"},{"name":"creatorName","type":"string","internalType":"string"},{"name":"release","type":"string","internalType":"string"}]}],"outputs":[],"stateMutability":"nonpayable"},{"type":"function","name":"setTraitRenderer","inputs":[{"name":"_traitRenderer","type":"address","internalType":"address"}],"outputs":[],"stateMutability":"nonpayable"},{"type":"function","name":"supportsInterface","inputs":[{"name":"interfaceId","type":"bytes4","internalType":"bytes4"}],"outputs":[{"name":"","type":"bool","internalType":"bool"}],"stateMutability":"view"},{"type":"function","name":"symbol","inputs":[],"outputs":[{"name":"","type":"string","internalType":"string"}],"stateMutability":"view"},{"type":"function","name":"tokenByIndex","inputs":[{"name":"index","type":"uint256","internalType":"uint256"}],"outputs":[{"name":"","type":"uint256","internalType":"uint256"}],"stateMutability":"view"},{"type":"function","name":"tokenOfOwnerByIndex","inputs":[{"name":"owner","type":"address","internalType":"address"},{"name":"index","type":"uint256","internalType":"uint256"}],"outputs":[{"name":"","type":"uint256","internalType":"uint256"}],"stateMutability":"view"},{"type":"function","name":"tokenURI","inputs":[{"name":"_tokenId","type":"uint256","internalType":"uint256"}],"outputs":[{"name":"","type":"string","internalType":"string"}],"stateMutability":"view"},{"type":"function","name":"totalSupply","inputs":[],"outputs":[{"name":"","type":"uint256","internalType":"uint256"}],"stateMutability":"view"},{"type":"function","name":"traitIndexToMetadata","inputs":[{"name":"","type":"uint256","internalType":"uint256"}],"outputs":[{"name":"traitIndex","type":"uint256","internalType":"uint256"},{"name":"traitName","type":"string","internalType":"string"},{"name":"traitType","type":"uint8","internalType":"enum TraitCategory.Name"},{"name":"colorMap","type":"bytes","internalType":"bytes"},{"name":"zMap","type":"bytes","internalType":"bytes"},{"name":"dataMinterContract","type":"address","internalType":"address"},{"name":"creatorAddress","type":"address","internalType":"address"},{"name":"creatorName","type":"string","internalType":"string"},{"name":"release","type":"string","internalType":"string"}],"stateMutability":"view"},{"type":"function","name":"traitRenderer","inputs":[],"outputs":[{"name":"","type":"address","internalType":"contract TraitRenderer"}],"stateMutability":"view"},{"type":"function","name":"traitTokens","inputs":[],"outputs":[{"name":"epoch","type":"uint256","internalType":"uint256"}],"stateMutability":"view"},{"type":"function","name":"transferFrom","inputs":[{"name":"from","type":"address","internalType":"address"},{"name":"to","type":"address","internalType":"address"},{"name":"tokenId","type":"uint256","internalType":"uint256"}],"outputs":[],"stateMutability":"nonpayable"},{"type":"function","name":"transferOwnership","inputs":[{"name":"newOwner","type":"address","internalType":"address"}],"outputs":[],"stateMutability":"payable"},{"type":"function","name":"updateEpochOnce","inputs":[],"outputs":[],"stateMutability":"nonpayable"},{"type":"function","name":"walletOfOwner","inputs":[{"name":"_owner","type":"address","internalType":"address"}],"outputs":[{"name":"","type":"uint256[]","internalType":"uint256[]"}],"stateMutability":"view"},{"type":"event","name":"AllOperatorApprovalsInvalidated","inputs":[{"name":"tokenId","type":"uint256","indexed":true,"internalType":"uint256"}],"anonymous":false},{"type":"event","name":"Approval","inputs":[{"name":"owner","type":"address","indexed":true,"internalType":"address"},{"name":"approved","type":"address","indexed":true,"internalType":"address"},{"name":"tokenId","type":"uint256","indexed":true,"internalType":"uint256"}],"anonymous":false},{"type":"event","name":"ApprovalForAll","inputs":[{"name":"owner","type":"address","indexed":true,"internalType":"address"},{"name":"operator","type":"address","indexed":true,"internalType":"address"},{"name":"approved","type":"bool","indexed":false,"internalType":"bool"}],"anonymous":false},{"type":"event","name":"BatchMetadataUpdate","inputs":[{"name":"_fromTokenId","type":"uint256","indexed":false,"internalType":"uint256"},{"name":"_toTokenId","type":"uint256","indexed":false,"internalType":"uint256"}],"anonymous":false},{"type":"event","name":"MetadataUpdate","inputs":[{"name":"_tokenId","type":"uint256","indexed":false,"internalType":"uint256"}],"anonymous":false},{"type":"event","name":"NewEpoch","inputs":[{"name":"epoch","type":"uint256","indexed":true,"internalType":"uint256"},{"name":"revealBlock","type":"uint64","indexed":true,"internalType":"uint64"}],"anonymous":false},{"type":"event","name":"OwnershipHandoverCanceled","inputs":[{"name":"pendingOwner","type":"address","indexed":true,"internalType":"address"}],"anonymous":false},{"type":"event","name":"OwnershipHandoverRequested","inputs":[{"name":"pendingOwner","type":"address","indexed":true,"internalType":"address"}],"anonymous":false},{"type":"event","name":"OwnershipTransferred","inputs":[{"name":"oldOwner","type":"address","indexed":true,"internalType":"address"},{"name":"newOwner","type":"address","indexed":true,"internalType":"address"}],"anonymous":false},{"type":"event","name":"TBAApprovalForAll","inputs":[{"name":"tba","type":"address","indexed":true,"internalType":"address"},{"name":"owner","type":"address","indexed":true,"internalType":"address"},{"name":"operator","type":"address","indexed":true,"internalType":"address"},{"name":"approved","type":"bool","indexed":false,"internalType":"bool"}],"anonymous":false},{"type":"event","name":"Transfer","inputs":[{"name":"from","type":"address","indexed":true,"internalType":"address"},{"name":"to","type":"address","indexed":true,"internalType":"address"},{"name":"tokenId","type":"uint256","indexed":true,"internalType":"uint256"}],"anonymous":false},{"type":"error","name":"AddressCantBurn","inputs":[]},{"type":"error","name":"AlreadyInitialized","inputs":[]},{"type":"error","name":"CantApproveWithoutTraits","inputs":[]},{"type":"error","name":"CantTransfer","inputs":[]},{"type":"error","name":"CantTransferEquipped","inputs":[]},{"type":"error","name":"MintStartTimeAlreadySet","inputs":[]},{"type":"error","name":"NewOwnerIsZeroAddress","inputs":[]},{"type":"error","name":"NoHandoverRequest","inputs":[]},{"type":"error","name":"NotATBA","inputs":[]},{"type":"error","name":"NotAValidMinterContract","inputs":[]},{"type":"error","name":"NotYourTrait","inputs":[]},{"type":"error","name":"ReplaceMintPermissionsRevoked","inputs":[]},{"type":"error","name":"SetChonksMainAddress","inputs":[]},{"type":"error","name":"SetMarketplaceAddress","inputs":[]},{"type":"error","name":"TraitAlreadyExists","inputs":[]},{"type":"error","name":"TraitIDTooLow","inputs":[]},{"type":"error","name":"TraitNotFound","inputs":[{"name":"_tokenId","type":"uint256","internalType":"uint256"}]},{"type":"error","name":"TraitTokenDoesntExist","inputs":[]},{"type":"error","name":"Unauthorized","inputs":[]}],"bytecode":{"object":"0x6080604052600e80546001600160a01b03191673785afed7ce24e76ac1d603be09c1fd20e0e1e6b7179055620532a66012553480156200003e57600080fd5b506040518060400160405280600c81526020016b43686f6e6b2054726169747360a01b8152506040518060400160405280600c81526020016b43484f4e4b2054524149545360a01b81525081600090816200009a9190620001a5565b506001620000a98282620001a5565b50506001600a5550620000bc33620000c2565b62000271565b6001600160a01b0316638b78c6d8198190558060007f8be0079c531659141344cd1fd0a4f28419497f9722a3daafe3b4186f6b6457e08180a350565b634e487b7160e01b600052604160045260246000fd5b600181811c908216806200012957607f821691505b6020821081036200014a57634e487b7160e01b600052602260045260246000fd5b50919050565b601f821115620001a0576000816000526020600020601f850160051c810160208610156200017b5750805b601f850160051c820191505b818110156200019c5782815560010162000187565b5050505b505050565b81516001600160401b03811115620001c157620001c1620000fe565b620001d981620001d2845462000114565b8462000150565b602080601f831160018114620002115760008415620001f85750858301515b600019600386901b1c1916600185901b1785556200019c565b600085815260208120601f198616915b82811015620002425788860151825594840194600190910190840162000221565b5085821015620002615787850151600019600388901b60f8161c191681555b5050505050600190811b01905550565b615f1180620002816000396000f3fe6080604052600436106103ef5760003560e01c806390f6384211610208578063bc08503311610118578063e1defed9116100ab578063f04e283e1161007a578063f04e283e14610c16578063f127194214610c29578063f2fde38b14610c49578063f901667f14610c5c578063fee81cf414610c7c57600080fd5b8063e1defed914610b96578063e4623c1b14610bb6578063e985e9c514610bd6578063ea13954414610bf657600080fd5b8063d1bfc2af116100e7578063d1bfc2af14610b12578063dcbaaad514610b3f578063e08714a614610b5f578063e14d026f14610b7f57600080fd5b8063bc08503314610a90578063c779153114610ab2578063c876371b14610ad2578063c87b56dd14610af257600080fd5b8063a8498c741161019b578063acb586df1161016a578063acb586df146109f3578063b88d4fde14610a13578063b966c51d14610a33578063b97dd9e214610a53578063ba7270f314610a6857600080fd5b8063a8498c7414610963578063a9684c5814610983578063aa271e1a146109a3578063abc8c7af146109d357600080fd5b80639a6b9596116101d75780639a6b9596146108e9578063a1d6268014610903578063a22cb46514610923578063a5e2912a1461094357600080fd5b806390f638421461087f57806395d89b411461089f578063983b2d56146108b457806398d8d288146108d457600080fd5b806333a70328116103035780635c1ef2561161029657806373ad6c2d1161026557806373ad6c2d1461079257806375794a3c146107b2578063817a29a4146107c8578063859e7d32146107fd5780638da5cb5b1461086657600080fd5b80635c1ef256146107355780636352211e1461074a57806370a082311461076a578063715018a61461078a57600080fd5b806342966c68116102d257806342966c68146106c0578063438b6300146106e05780634f6ccce71461070d57806354d1f13d1461072d57600080fd5b806333a703281461063257806336d34ab91461066057806340d097c31461068057806342842e0e146106a057600080fd5b806321b12c2311610386578063256929621161035557806325692962146105b557806326f2052a146105bd5780632f745c59146105dd5780633092afd5146105fd57806331d2866a1461061d57600080fd5b806321b12c2314610531578063239ffa681461055157806323b872dd14610566578063250818ea1461058657600080fd5b8063120def24116103c2578063120def24146104a557806318160ddd146104c55780631f787d2f146104e4578063208c25a31461050457600080fd5b806301ffc9a7146103f457806306fdde0314610429578063081812fc1461044b578063095ea7b314610483575b600080fd5b34801561040057600080fd5b5061041461040f3660046146e6565b610caf565b60405190151581526020015b60405180910390f35b34801561043557600080fd5b5061043e610cc0565b6040516104209190614753565b34801561045757600080fd5b5061046b610466366004614766565b610d52565b6040516001600160a01b039091168152602001610420565b34801561048f57600080fd5b506104a361049e3660046147a4565b610d79565b005b3480156104b157600080fd5b506104a36104c03660046147d0565b610e93565b3480156104d157600080fd5b506008545b604051908152602001610420565b3480156104f057600080fd5b506104a36104ff3660046147a4565b610ebd565b34801561051057600080fd5b5061052461051f366004614766565b610f1b565b604051610420919061486d565b34801561053d57600080fd5b5061043e61054c3660046149ce565b61105c565b34801561055d57600080fd5b506104a36110d2565b34801561057257600080fd5b506104a3610581366004614a02565b6112ae565b34801561059257600080fd5b506105a66105a1366004614a6d565b6112df565b60405161042093929190614b54565b6104a361136e565b3480156105c957600080fd5b506104a36105d8366004614b97565b6113bd565b3480156105e957600080fd5b506104d66105f83660046147a4565b6113d6565b34801561060957600080fd5b506104a36106183660046147d0565b61146c565b34801561062957600080fd5b506104a3611495565b34801561063e57600080fd5b5061065261064d366004614cbc565b6114d8565b604051610420929190614ce7565b34801561066c57600080fd5b506104a361067b366004614d0c565b6115fd565b34801561068c57600080fd5b506104d661069b3660046147d0565b6116ea565b3480156106ac57600080fd5b506104a36106bb366004614a02565b611750565b3480156106cc57600080fd5b506104a36106db366004614766565b61176b565b3480156106ec57600080fd5b506107006106fb3660046147d0565b6117a4565b6040516104209190614d39565b34801561071957600080fd5b506104d6610728366004614766565b61183b565b6104a36118ce565b34801561074157600080fd5b5061043e61190a565b34801561075657600080fd5b5061046b610765366004614766565b611981565b34801561077657600080fd5b506104d66107853660046147d0565b6119e1565b6104a3611a67565b34801561079e57600080fd5b506104a36107ad3660046147d0565b611a7b565b3480156107be57600080fd5b506104d660125481565b3480156107d457600080fd5b506107e86107e3366004614766565b611aa5565b60405161042099989796959493929190614d7d565b34801561080957600080fd5b5061081d610818366004614766565b611daf565b604051610420919081516001600160801b031681526020808301516001600160401b03169082015260408083015115159082015260609182015115159181019190915260800190565b34801561087257600080fd5b50638b78c6d8195461046b565b34801561088b57600080fd5b506104a361089a366004614766565b611eb3565b3480156108ab57600080fd5b5061043e611fab565b3480156108c057600080fd5b506104a36108cf3660046147d0565b611fba565b3480156108e057600080fd5b506104a3611fe6565b3480156108f557600080fd5b506016546104149060ff1681565b34801561090f57600080fd5b5061043e61091e366004614766565b611ffd565b34801561092f57600080fd5b506104a361093e366004614e1c565b61212f565b34801561094f57600080fd5b5061043e61095e366004614766565b6122f6565b34801561096f57600080fd5b5061043e61097e366004614766565b6124ee565b34801561098f57600080fd5b5061065261099e366004614a6d565b6125e2565b3480156109af57600080fd5b506104146109be3660046147d0565b60116020526000908152604090205460ff1681565b3480156109df57600080fd5b50600f5461046b906001600160a01b031681565b3480156109ff57600080fd5b50610524610a0e366004614766565b61266d565b348015610a1f57600080fd5b506104a3610a2e366004614e55565b612841565b348015610a3f57600080fd5b506104a3610a4e366004614ec0565b612879565b348015610a5f57600080fd5b50600c546104d6565b348015610a7457600080fd5b5061046b7307152bfde079b5319e5308c43fb1dbc9c76cb4f981565b348015610a9c57600080fd5b5061046b600080516020615ebc83398151915281565b348015610abe57600080fd5b5061043e610acd366004614766565b612a38565b348015610ade57600080fd5b50600e5461046b906001600160a01b031681565b348015610afe57600080fd5b5061043e610b0d366004614766565b612a8e565b348015610b1e57600080fd5b50610b32610b2d366004614766565b612acf565b6040516104209190615008565b348015610b4b57600080fd5b5061043e610b5a366004614766565b612ec6565b348015610b6b57600080fd5b50610652610b7a3660046150ec565b612f06565b348015610b8b57600080fd5b50600c546104d69081565b348015610ba257600080fd5b506104a3610bb1366004615158565b613041565b348015610bc257600080fd5b506104a3610bd13660046151bb565b6130b1565b348015610be257600080fd5b50610414610bf1366004615260565b613117565b348015610c0257600080fd5b50610b32610c11366004614766565b61324e565b6104a3610c243660046147d0565b61331f565b348015610c3557600080fd5b506105a6610c4436600461528e565b61335c565b6104a3610c573660046147d0565b6134a4565b348015610c6857600080fd5b506105a6610c77366004614cbc565b6134cb565b348015610c8857600080fd5b506104d6610c973660046147d0565b63389a75e1600c908152600091909152602090205490565b6000610cba826135f6565b92915050565b606060008054610ccf90615313565b80601f0160208091040260200160405190810160405280929190818152602001828054610cfb90615313565b8015610d485780601f10610d1d57610100808354040283529160200191610d48565b820191906000526020600020905b815481529060010190602001808311610d2b57829003601f168201915b5050505050905090565b6000610d5d8261361b565b506000908152600460205260409020546001600160a01b031690565b6000610d8482611981565b9050806001600160a01b0316836001600160a01b031603610df65760405162461bcd60e51b815260206004820152602160248201527f4552433732313a20617070726f76616c20746f2063757272656e74206f776e656044820152603960f91b60648201526084015b60405180910390fd5b336001600160a01b0382161480610e125750610e128133613117565b610e845760405162461bcd60e51b815260206004820152603e60248201527f4552433732313a20617070726f76652063616c6c6572206973206e6f7420746f60448201527f6b656e206f776e6572206e6f7220617070726f76656420666f7220616c6c00006064820152608401610ded565b610e8e838361367a565b505050565b610e9b6136e8565b600e80546001600160a01b0319166001600160a01b0392909216919091179055565b3360008181526011602052604090205460ff16610eed5760405163090a0b6960e21b815260040160405180910390fd5b60165460ff1615610f115760405163cb207e0d60e01b815260040160405180910390fd5b610e8e8383613703565b610f516040805160c08101825260008082526020820181905291810182905260608101829052608081018290529060a082015290565b620532a68211610fca5760405163208c25a360e01b815260048101839052600080516020615ebc8339815191529063208c25a3906024015b60c060405180830381865afa158015610fa6573d6000803e3d6000fd5b505050506040513d601f19601f82011682018060405250810190610cba919061535d565b6000828152600b6020908152604091829020825160c08101845281548152600182015460ff90811615159382019390935260028201549381019390935260038101546001600160a01b03166060840152600481015460808401526005810154909160a0840191166007811115611042576110426147ed565b6007811115611053576110536147ed565b90525092915050565b600e546040516321b12c2360e01b81526060916001600160a01b0316906321b12c239061108d908590600401614753565b600060405180830381865afa1580156110aa573d6000803e3d6000fd5b505050506040513d6000823e601f3d908101601f19168201604052610cba9190810190615414565b600c546000908152600d602052604090208054600160c01b900460ff16158061112a57508054600160c81b900460ff1615801561112a57506111166101004361545e565b8154600160801b90046001600160401b0316105b156111755761113a436032615471565b815460ff60c01b196001600160401b0392909216600160801b029190911668ffffffffffffffffff60801b1990911617600160c01b17815550565b8054600160801b90046001600160401b03164311156112ab57805460408051600160801b9092046001600160401b031640602083015244908201526001600160801b03906060016040516020818303038152906040528051906020012060001c6111df9190615484565b8154600160c81b6001600160801b039290921679ff000000000000000000ffffffffffffffffffffffffffffffff199091161717808255600c54604051600160801b9092046001600160401b0316917f78611aecfda8d341359c248df527c95aef93d446c92bb928b2a81b7abcb1d8d990600090a3604080516000815260001960208201527f6bd5c950a8d8df17f772f5af37cb3655737899cbf903264b9795592da439661c910160405180910390a1600c805460009061129f906154a6565b909155506112ab6110d2565b50565b6112b8338261371d565b6112d45760405162461bcd60e51b8152600401610ded906154bf565b610e8e83838361377b565b600e5460405163d42f766360e01b8152606091829182916001600160a01b03169063d42f76639061131c908790309063f1271942906004016155ad565b600060405180830381865afa158015611339573d6000803e3d6000fd5b505050506040513d6000823e601f3d908101601f1916820160405261136191908101906155df565b9250925092509193909250565b60006202a3006001600160401b03164201905063389a75e1600c5233600052806020600c2055337fdbf36a107da19e49527a7176a1babf963b4b0ff8cde35ee35d6cd8f1f9ac7e1d600080a250565b6113c56136e8565b6113d260148260026145c2565b5050565b60006113e1836119e1565b82106114435760405162461bcd60e51b815260206004820152602b60248201527f455243373231456e756d657261626c653a206f776e657220696e646578206f7560448201526a74206f6620626f756e647360a81b6064820152608401610ded565b506001600160a01b03919091166000908152600660209081526040808320938352929052205490565b6114746136e8565b6001600160a01b03166000908152601160205260409020805460ff19169055565b3360008181526011602052604090205460ff166114c55760405163090a0b6960e21b815260040160405180910390fd5b600c546000036112ab5761030a600c5550565b606080620532a6831161156657604051630674e06560e31b8152600080516020615ebc833981519152906333a7032890611518908790879060040161565c565b600060405180830381865afa158015611535573d6000803e3d6000fd5b505050506040513d6000823e601f3d908101601f1916820160405261155d9190810190615677565b915091506115f6565b600e546080850151600090815260106020526040908190209051630bfb083b60e41b81526001600160a01b039092169163bfb083b0916115ac9188918891600401615813565b600060405180830381865afa1580156115c9573d6000803e3d6000fd5b505050506040513d6000823e601f3d908101601f191682016040526115f19190810190615677565b915091505b9250929050565b3360008181526011602052604090205460ff1661162d5760405163090a0b6960e21b815260040160405180910390fd5b620532a683116116505760405163918c6c1560e01b815260040160405180910390fd5b6000838152600b602090815260409182902084518155908401516001808301805492151560ff1993841617905592850151600283015560608501516003830180546001600160a01b039092166001600160a01b03199092169190911790556080850151600483015560a08501516005830180548795929391929116908360078111156116de576116de6147ed565b02179055505050505050565b3360008181526011602052604081205490919060ff1661171d5760405163090a0b6960e21b815260040160405180910390fd5b6117256110d2565b6000601260008154611736906154a6565b918290555090506117478482613703565b91505b50919050565b610e8e83838360405180602001604052806000815250612841565b3360009081526011602052604090205460ff1661179b57604051631758e6d560e11b815260040160405180910390fd5b6112ab81613928565b606060006117b1836119e1565b90506000816001600160401b038111156117cd576117cd61487b565b6040519080825280602002602001820160405280156117f6578160200160208202803683370190505b50905060005b828110156118335761180e85826113d6565b8282815181106118205761182061583a565b60209081029190910101526001016117fc565b509392505050565b600061184660085490565b82106118a95760405162461bcd60e51b815260206004820152602c60248201527f455243373231456e756d657261626c653a20676c6f62616c20696e646578206f60448201526b7574206f6620626f756e647360a01b6064820152608401610ded565b600882815481106118bc576118bc61583a565b90600052602060002001549050919050565b63389a75e1600c523360005260006020600c2055337ffa7b8eab7da67f412cc9575ed43464468f9bfbae89d1675917346ca6d8fe3c92600080a2565b600e5460408051632e0f792b60e11b815290516060926001600160a01b031691635c1ef2569160048083019260009291908290030181865afa158015611954573d6000803e3d6000fd5b505050506040513d6000823e601f3d908101601f1916820160405261197c9190810190615414565b905090565b6000818152600260205260408120546001600160a01b031680610cba5760405162461bcd60e51b8152602060048201526018602482015277115490cdcc8c4e881a5b9d985b1a59081d1bdad95b88125160421b6044820152606401610ded565b60006001600160a01b038216611a4b5760405162461bcd60e51b815260206004820152602960248201527f4552433732313a2061646472657373207a65726f206973206e6f7420612076616044820152683634b21037bbb732b960b91b6064820152608401610ded565b506001600160a01b031660009081526003602052604090205490565b611a6f6136e8565b611a7960006139d7565b565b611a836136e8565b600f80546001600160a01b0319166001600160a01b0392909216919091179055565b60106020526000908152604090208054600182018054919291611ac790615313565b80601f0160208091040260200160405190810160405280929190818152602001828054611af390615313565b8015611b405780601f10611b1557610100808354040283529160200191611b40565b820191906000526020600020905b815481529060010190602001808311611b2357829003601f168201915b5050506002840154600385018054949560ff909216949193509150611b6490615313565b80601f0160208091040260200160405190810160405280929190818152602001828054611b9090615313565b8015611bdd5780601f10611bb257610100808354040283529160200191611bdd565b820191906000526020600020905b815481529060010190602001808311611bc057829003601f168201915b505050505090806004018054611bf290615313565b80601f0160208091040260200160405190810160405280929190818152602001828054611c1e90615313565b8015611c6b5780601f10611c4057610100808354040283529160200191611c6b565b820191906000526020600020905b815481529060010190602001808311611c4e57829003601f168201915b5050506005840154600685015460078601805495966001600160a01b0393841696929093169450919250611c9e90615313565b80601f0160208091040260200160405190810160405280929190818152602001828054611cca90615313565b8015611d175780601f10611cec57610100808354040283529160200191611d17565b820191906000526020600020905b815481529060010190602001808311611cfa57829003601f168201915b505050505090806008018054611d2c90615313565b80601f0160208091040260200160405190810160405280929190818152602001828054611d5890615313565b8015611da55780601f10611d7a57610100808354040283529160200191611da5565b820191906000526020600020905b815481529060010190602001808311611d8857829003601f168201915b5050505050905089565b6040805160808101825260008082526020820181905291810182905260608101919091526103098211611e4a576040516342cf3e9960e11b815260048101839052600080516020615ebc8339815191529063859e7d3290602401608060405180830381865afa158015611e26573d6000803e3d6000fd5b505050506040513d601f19601f82011682018060405250810190610cba9190615850565b506000908152600d6020908152604091829020825160808101845290546001600160801b03811682526001600160401b03600160801b8204169282019290925260ff600160c01b83048116151593820193909352600160c81b9091049091161515606082015290565b604051636670434960e01b8152600481018290526000907307152bfde079b5319e5308c43fb1dbc9c76cb4f990636670434990602401608060405180830381865afa158015611f06573d6000803e3d6000fd5b505050506040513d601f19601f82011682018060405250810190611f2a91906158ec565b5092505050336001600160a01b0316611f4283611981565b6001600160a01b031614158015611f6257506001600160a01b0381163314155b8015611f825750337307152bfde079b5319e5308c43fb1dbc9c76cb4f914155b15611fa057604051633e79b9f360e01b815260040160405180910390fd5b6113d260008361367a565b606060018054610ccf90615313565b611fc26136e8565b6001600160a01b03166000908152601160205260409020805460ff19166001179055565b611fee6136e8565b6016805460ff19166001179055565b6060620532a6821161203b57604051630143ac4d60e71b815260048101839052600080516020615ebc8339815191529063a1d626809060240161108d565b60006120468361266d565b90506000816020015161207c576040518060400160405280600b81526020016a1e39bb339f1e17b9bb339f60a91b815250612089565b61208982608001516122f6565b600e54608084015160009081526010602052604090209192506001600160a01b03169063ac499bbc90869085906120be61190a565b8660146040518763ffffffff1660e01b81526004016120e296959493929190615941565b600060405180830381865afa1580156120ff573d6000803e3d6000fd5b505050506040513d6000823e601f3d908101601f191682016040526121279190810190615414565b949350505050565b336001600160a01b038316036121875760405162461bcd60e51b815260206004820152601960248201527f4552433732313a20617070726f766520746f2063616c6c6572000000000000006044820152606401610ded565b60405163423965e560e11b81523360048201526000907307152bfde079b5319e5308c43fb1dbc9c76cb4f990638472cbca90602401602060405180830381865afa1580156121d9573d6000803e3d6000fd5b505050506040513d601f19601f820116820180604052508101906121fd91906159e4565b6040516331a9108f60e11b8152600481018290529091506000907307152bfde079b5319e5308c43fb1dbc9c76cb4f990636352211e90602401602060405180830381865afa158015612253573d6000803e3d6000fd5b505050506040513d601f19601f8201168201806040525081019061227791906159fd565b3360008181526017602090815260408083206001600160a01b03868116808652918452828520908b1680865290845293829020805460ff19168a15159081179091559151918252949550919392917fb35a3e86f41df9a708de503b8afccb6c992167394cba9e16a3b5c466d378d1aa910160405180910390a450505050565b6040516352f1489560e11b815260048101829052606090600080516020615ebc8339815191529063a5e2912a90602401600060405180830381865afa158015612343573d6000803e3d6000fd5b505050506040513d6000823e601f3d908101601f1916820160405261236b9190810190615414565b9050600081511180156123cd57506040805180820190915260128152711e339034b21e912a3930b4ba111f1e17b39f60711b6020918201528151908201207fb6491396077b2019fd311df30a263f5b6f84c028f31b91717e9f140465bce24314155b156123d757919050565b600082815260106020526040812060030180546123f390615313565b80601f016020809104026020016040519081016040528092919081815260200182805461241f90615313565b801561246c5780601f106124415761010080835404028352916020019161246c565b820191906000526020600020905b81548152906001019060200180831161244f57829003601f168201915b5050600e54604051631349027b60e31b81529495506001600160a01b031693639a4813d893506124a29250859150600401614753565b600060405180830381865afa1580156124bf573d6000803e3d6000fd5b505050506040513d6000823e601f3d908101601f191682016040526124e79190810190615414565b9392505050565b6060620532a6821161252c57604051632a12631d60e21b815260048101839052600080516020615ebc8339815191529063a8498c749060240161108d565b60006125378361266d565b6080810151600090815260106020526040902060040180549192509061255c90615313565b80601f016020809104026020016040519081016040528092919081815260200182805461258890615313565b80156125d55780601f106125aa576101008083540402835291602001916125d5565b820191906000526020600020905b8154815290600101906020018083116125b857829003601f168201915b5050505050915050919050565b600e54604051631b4751fb60e01b815260609182916001600160a01b0390911690631b4751fb9061261f908690309063e08714a6906004016155ad565b600060405180830381865afa15801561263c573d6000803e3d6000fd5b505050506040513d6000823e601f3d908101601f191682016040526126649190810190615677565b91509150915091565b6126a36040805160c08101825260008082526020820181905291810182905260608101829052608081018290529060a082015290565b620532a682116126df5760405163acb586df60e01b815260048101839052600080516020615ebc8339815191529063acb586df90602401610f89565b6000828152600b60209081526040808320815160c08101835281548152600182015460ff90811615159482019490945260028201549281019290925260038101546001600160a01b031660608301526004810154608083015260058101549192909160a0840191166007811115612758576127586147ed565b6007811115612769576127696147ed565b90525080516000908152600d602052604090205460608201519192506001600160801b0316906001600160a01b0381161580156127a857506040830151155b156127c95760405163082d451d60e01b815260048101869052602401610ded565b604051630ac7cb6f60e01b81526001600160a01b03821690630ac7cb6f906127f79086908690600401615a1a565b60c060405180830381865afa158015612814573d6000803e3d6000fd5b505050506040513d601f19601f82011682018060405250810190612838919061535d565b95945050505050565b61284b338361371d565b6128675760405162461bcd60e51b8152600401610ded906154bf565b61287384848484613a15565b50505050565b3360008181526011602052604090205460ff166128a95760405163090a0b6960e21b815260040160405180910390fd5b604051633a84e55160e21b815260048101849052600090600080516020615ebc8339815191529063ea13954490602401600060405180830381865afa1580156128f6573d6000803e3d6000fd5b505050506040513d6000823e601f3d908101601f1916820160405261291e9190810190615a3e565b60a08101519091506001600160a01b03161561294d5760405163cb391f5760e01b815260040160405180910390fd5b6000848152601060209081526040909120845181559084015184919060018201906129789082615bc4565b50604082015160028201805460ff1916600183600781111561299c5761299c6147ed565b0217905550606082015160038201906129b59082615bc4565b50608082015160048201906129ca9082615bc4565b5060a08201516005820180546001600160a01b039283166001600160a01b03199182161790915560c084015160068401805491909316911617905560e08201516007820190612a199082615bc4565b506101008201516008820190612a2f9082615bc4565b50505050505050565b60606000612a458361266d565b9050806020015115612a6557612a5e81608001516122f6565b915061174a565b505060408051808201909152600b81526a1e39bb339f1e17b9bb339f60a91b6020820152919050565b6000818152600260205260409020546060906001600160a01b0316612ac657604051632df0e24560e21b815260040160405180910390fd5b610cba82611ffd565b612ad761460b565b620532a68211612b535760405163d1bfc2af60e01b815260048101839052600080516020615ebc8339815191529063d1bfc2af90602401600060405180830381865afa158015612b2b573d6000803e3d6000fd5b505050506040513d6000823e601f3d908101601f19168201604052610cba9190810190615a3e565b6000612b5e8361266d565b905060106000826080015181526020019081526020016000206040518061012001604052908160008201548152602001600182018054612b9d90615313565b80601f0160208091040260200160405190810160405280929190818152602001828054612bc990615313565b8015612c165780601f10612beb57610100808354040283529160200191612c16565b820191906000526020600020905b815481529060010190602001808311612bf957829003601f168201915b5050509183525050600282015460209091019060ff166007811115612c3d57612c3d6147ed565b6007811115612c4e57612c4e6147ed565b8152602001600382018054612c6290615313565b80601f0160208091040260200160405190810160405280929190818152602001828054612c8e90615313565b8015612cdb5780601f10612cb057610100808354040283529160200191612cdb565b820191906000526020600020905b815481529060010190602001808311612cbe57829003601f168201915b50505050508152602001600482018054612cf490615313565b80601f0160208091040260200160405190810160405280929190818152602001828054612d2090615313565b8015612d6d5780601f10612d4257610100808354040283529160200191612d6d565b820191906000526020600020905b815481529060010190602001808311612d5057829003601f168201915b505050918352505060058201546001600160a01b0390811660208301526006830154166040820152600782018054606090920191612daa90615313565b80601f0160208091040260200160405190810160405280929190818152602001828054612dd690615313565b8015612e235780601f10612df857610100808354040283529160200191612e23565b820191906000526020600020905b815481529060010190602001808311612e0657829003601f168201915b50505050508152602001600882018054612e3c90615313565b80601f0160208091040260200160405190810160405280929190818152602001828054612e6890615313565b8015612eb55780601f10612e8a57610100808354040283529160200191612eb5565b820191906000526020600020905b815481529060010190602001808311612e9857829003601f168201915b505050505081525050915050919050565b6060612ef36040518060400160405280600a815260200169776520696e206865726560b01b815250613a48565b612efc82612acf565b6060015192915050565b606080620532a68511612f96576040516370438a5360e11b8152600080516020615ebc8339815191529063e08714a690612f4890889088908890600401615c83565b600060405180830381865afa158015612f65573d6000803e3d6000fd5b505050506040513d6000823e601f3d908101601f19168201604052612f8d9190810190615677565b91509150613039565b6000612fa18661266d565b600e5460808201516000908152601060205260409081902090516354a2ab0560e01b81529293506001600160a01b03909116916354a2ab0591612fee918a918a918a918891600401615cae565b600060405180830381865afa15801561300b573d6000803e3d6000fd5b505050506040513d6000823e601f3d908101601f191682016040526130339190810190615677565b92509250505b935093915050565b6130496136e8565b600e5460405163e1defed960e01b81526001600160a01b039091169063e1defed99061307b9085908590600401614ce7565b600060405180830381600087803b15801561309557600080fd5b505af11580156130a9573d6000803e3d6000fd5b505050505050565b3360009081526011602052604090205460ff166130e157604051631758e6d560e11b815260040160405180910390fd5b60005b81518110156113d25761310f8282815181106131025761310261583a565b6020026020010151613928565b6001016130e4565b60405163423965e560e11b81526001600160a01b038316600482015260009081907307152bfde079b5319e5308c43fb1dbc9c76cb4f990638472cbca90602401602060405180830381865afa158015613174573d6000803e3d6000fd5b505050506040513d601f19601f8201168201806040525081019061319891906159e4565b6040516331a9108f60e11b8152600481018290529091506000907307152bfde079b5319e5308c43fb1dbc9c76cb4f990636352211e90602401602060405180830381865afa1580156131ee573d6000803e3d6000fd5b505050506040513d601f19601f8201168201806040525081019061321291906159fd565b6001600160a01b039586166000908152601760209081526040808320938916835292815282822096909716815294909552505050205460ff1690565b61325661460b565b604051633a84e55160e21b815260048101839052600090600080516020615ebc8339815191529063ea13954490602401600060405180830381865afa1580156132a3573d6000803e3d6000fd5b505050506040513d6000823e601f3d908101601f191682016040526132cb9190810190615a3e565b60a08101519091506001600160a01b03166132e65792915050565b601060008481526020019081526020016000206040518061012001604052908160008201548152602001600182018054612b9d90615313565b6133276136e8565b63389a75e1600c52806000526020600c20805442111561334f57636f5e88186000526004601cfd5b600090556112ab816139d7565b6060806060620532a687116133f2576040516378938ca160e11b8152600080516020615ebc8339815191529063f1271942906133a2908a908a908a908a90600401615cfe565b600060405180830381865afa1580156133bf573d6000803e3d6000fd5b505050506040513d6000823e601f3d908101601f191682016040526133e791908101906155df565b92509250925061349a565b60006133fd8861266d565b600e546080820151600090815260106020526040908190209051631c1fc8db60e01b81529293506001600160a01b0390911691631c1fc8db9161344d918c918c918c918c91899190600401615d48565b600060405180830381865afa15801561346a573d6000803e3d6000fd5b505050506040513d6000823e601f3d908101601f1916820160405261349291908101906155df565b935093509350505b9450945094915050565b6134ac6136e8565b8060601b6134c257637448fbae6000526004601cfd5b6112ab816139d7565b6060806060620532a6841161355d5760405163f901667f60e01b8152600080516020615ebc8339815191529063f901667f9061350d908890889060040161565c565b600060405180830381865afa15801561352a573d6000803e3d6000fd5b505050506040513d6000823e601f3d908101601f1916820160405261355291908101906155df565b9250925092506135ef565b600e546080860151600090815260106020526040908190209051633c05553b60e01b81526001600160a01b0390921691633c05553b916135a39189918991600401615813565b600060405180830381865afa1580156135c0573d6000803e3d6000fd5b505050506040513d6000823e601f3d908101601f191682016040526135e891908101906155df565b9250925092505b9250925092565b60006001600160e01b0319821663780e9d6360e01b1480610cba5750610cba82613a8b565b6000818152600260205260409020546001600160a01b03166112ab5760405162461bcd60e51b8152602060048201526018602482015277115490cdcc8c4e881a5b9d985b1a59081d1bdad95b88125160421b6044820152606401610ded565b600081815260046020526040902080546001600160a01b0319166001600160a01b03841690811790915581906136af82611981565b6001600160a01b03167f8c5be1e5ebec7d5bd14f71427d1e84f3dd0314c0f7b2291e5b200ac8c7c3b92560405160405180910390a45050565b638b78c6d819543314611a79576382b429006000526004601cfd5b6113d2828260405180602001604052806000815250613adb565b60008061372983611981565b9050806001600160a01b0316846001600160a01b0316148061375057506137508185613117565b806121275750836001600160a01b031661376984610d52565b6001600160a01b031614949350505050565b826001600160a01b031661378e82611981565b6001600160a01b0316146137f25760405162461bcd60e51b815260206004820152602560248201527f4552433732313a207472616e736665722066726f6d20696e636f72726563742060448201526437bbb732b960d91b6064820152608401610ded565b6001600160a01b0382166138545760405162461bcd60e51b8152602060048201526024808201527f4552433732313a207472616e7366657220746f20746865207a65726f206164646044820152637265737360e01b6064820152608401610ded565b61385f838383613b0e565b61386a60008261367a565b6001600160a01b038316600090815260036020526040812080546001929061389390849061545e565b90915550506001600160a01b03821660009081526003602052604081208054600192906138c1908490615471565b909155505060008181526002602052604080822080546001600160a01b0319166001600160a01b0386811691821790925591518493918716917fddf252ad1be2c89b69c2b068fc378daa952ba7f163c4a11628f55a4df523b3ef91a4610e8e838383613dd6565b600061393382611981565b905061394181600084613b0e565b61394c60008361367a565b6001600160a01b038116600090815260036020526040812080546001929061397590849061545e565b909155505060008281526002602052604080822080546001600160a01b0319169055518391906001600160a01b038416907fddf252ad1be2c89b69c2b068fc378daa952ba7f163c4a11628f55a4df523b3ef908390a46113d281600084613dd6565b638b78c6d81980546001600160a01b039092169182907f8be0079c531659141344cd1fd0a4f28419497f9722a3daafe3b4186f6b6457e0600080a355565b613a2084848461377b565b613a2c84848484613f80565b6128735760405162461bcd60e51b8152600401610ded90615db9565b6112ab81604051602401613a5c9190614753565b60408051601f198184030181529190526020810180516001600160e01b031663104c13eb60e21b179052614081565b60006001600160e01b031982166380ac58cd60e01b1480613abc57506001600160e01b03198216635b5e139f60e01b145b80610cba57506301ffc9a760e01b6001600160e01b0319831614610cba565b613ae583836140a2565b613af26000848484613f80565b610e8e5760405162461bcd60e51b8152600401610ded90615db9565b6001600160a01b038316613b2757610e8e8383836141f8565b60405162525fcd60e91b81526001600160a01b03831660048201527307152bfde079b5319e5308c43fb1dbc9c76cb4f99063a4bf9a0090602401602060405180830381865afa158015613b7e573d6000803e3d6000fd5b505050506040513d601f19601f82011682018060405250810190613ba291906159e4565b600003613bc2576040516326a45c0160e21b815260040160405180910390fd5b604051636670434960e01b8152600481018290526000907307152bfde079b5319e5308c43fb1dbc9c76cb4f990636670434990602401608060405180830381865afa158015613c15573d6000803e3d6000fd5b505050506040513d601f19601f82011682018060405250810190613c3991906158ec565b93505050508015613c5d5760405163290ea0ff60e01b815260040160405180910390fd5b600f54604051634f6088cd60e01b8152600481018490526000916001600160a01b031690634f6088cd90602401608060405180830381865afa158015613ca7573d6000803e3d6000fd5b505050506040513d601f19601f82011682018060405250810190613ccb9190615e0b565b5090925050506001600160a01b03811615613d0b57600f546001600160a01b03163314613d0b5760405163bf646b0f60e01b815260040160405180910390fd5b6001600160a01b038416613dba57613d2383856142b0565b6000613d2e84611981565b60405162525fcd60e91b81526001600160a01b03821660048201529091507307152bfde079b5319e5308c43fb1dbc9c76cb4f99063a4bf9a0090602401602060405180830381865afa158015613d88573d6000803e3d6000fd5b505050506040513d601f19601f82011682018060405250810190613dac91906159e4565b6013556130a98686866141f8565b613dc483856142b0565b613dcf8585856141f8565b5050505050565b600f546001600160a01b0316613dff5760405163382eb47160e21b815260040160405180910390fd5b6001600160a01b038316613e1257505050565b6001600160a01b038216613e8e57601380546000909155600f5460405163236313ff60e11b8152600481018390526001600160a01b03909116906346c627fe906024015b600060405180830381600087803b158015613e7057600080fd5b505af1158015613e84573d6000803e3d6000fd5b5050505050505050565b6000613e9982611981565b60405162525fcd60e91b81526001600160a01b03821660048201529091506000907307152bfde079b5319e5308c43fb1dbc9c76cb4f99063a4bf9a0090602401602060405180830381865afa158015613ef6573d6000803e3d6000fd5b505050506040513d601f19601f82011682018060405250810190613f1a91906159e4565b600f5460405163236313ff60e11b8152600481018390529192506001600160a01b0316906346c627fe90602401600060405180830381600087803b158015613f6157600080fd5b505af1158015613f75573d6000803e3d6000fd5b505050505050505050565b60006001600160a01b0384163b1561407657604051630a85bd0160e11b81526001600160a01b0385169063150b7a0290613fc4903390899088908890600401615e55565b6020604051808303816000875af1925050508015613fff575060408051601f3d908101601f19168201909252613ffc91810190615e88565b60015b61405c573d80801561402d576040519150601f19603f3d011682016040523d82523d6000602084013e614032565b606091505b5080516000036140545760405162461bcd60e51b8152600401610ded90615db9565b805181602001fd5b6001600160e01b031916630a85bd0160e11b149050612127565b506001949350505050565b80516a636f6e736f6c652e6c6f67602083016000808483855afa5050505050565b6001600160a01b0382166140f85760405162461bcd60e51b815260206004820181905260248201527f4552433732313a206d696e7420746f20746865207a65726f20616464726573736044820152606401610ded565b6000818152600260205260409020546001600160a01b03161561415d5760405162461bcd60e51b815260206004820152601c60248201527f4552433732313a20746f6b656e20616c7265616479206d696e746564000000006044820152606401610ded565b61416960008383613b0e565b6001600160a01b0382166000908152600360205260408120805460019290614192908490615471565b909155505060008181526002602052604080822080546001600160a01b0319166001600160a01b03861690811790915590518392907fddf252ad1be2c89b69c2b068fc378daa952ba7f163c4a11628f55a4df523b3ef908290a46113d260008383613dd6565b6001600160a01b0383166142535761424e81600880546000838152600960205260408120829055600182018355919091527ff3f7a9fe364faab93b216da50a3214154f22a0a2b415b23a84c8169e8b636ee30155565b614276565b816001600160a01b0316836001600160a01b031614614276576142768382614432565b6001600160a01b03821661428d57610e8e816144cf565b826001600160a01b0316826001600160a01b031614610e8e57610e8e828261457e565b60006142bb83611981565b60405162525fcd60e91b81526001600160a01b03821660048201529091506000907307152bfde079b5319e5308c43fb1dbc9c76cb4f99063a4bf9a0090602401602060405180830381865afa158015614318573d6000803e3d6000fd5b505050506040513d601f19601f8201168201806040525081019061433c91906159e4565b600f5460405163236313ff60e11b8152600481018390529192506001600160a01b0316906346c627fe90602401600060405180830381600087803b15801561438357600080fd5b505af1158015614397573d6000803e3d6000fd5b5050600f54604051632e1d274f60e01b8152600481018890526001600160a01b039091169250632e1d274f9150602401600060405180830381600087803b1580156143e157600080fd5b505af11580156143f5573d6000803e3d6000fd5b5050600f546040516302fbe78f60e41b8152600481018890526001600160a01b0387811660248301529091169250632fbe78f09150604401613e56565b6000600161443f846119e1565b614449919061545e565b60008381526007602052604090205490915080821461449c576001600160a01b03841660009081526006602090815260408083208584528252808320548484528184208190558352600790915290208190555b5060009182526007602090815260408084208490556001600160a01b039094168352600681528383209183525290812055565b6008546000906144e19060019061545e565b600083815260096020526040812054600880549394509092849081106145095761450961583a565b90600052602060002001549050806008838154811061452a5761452a61583a565b600091825260208083209091019290925582815260099091526040808220849055858252812055600880548061456257614562615ea5565b6001900381819060005260206000200160009055905550505050565b6000614589836119e1565b6001600160a01b039093166000908152600660209081526040808320868452825280832085905593825260079052919091209190915550565b82600281019282156145fb579160200282015b828111156145fb57825182906145eb9082615bc4565b50916020019190600101906145d5565b50614607929150614669565b5090565b604080516101208101825260008082526060602083015290918201908152602001606081526020016060815260200160006001600160a01b0316815260200160006001600160a01b0316815260200160608152602001606081525090565b8082111561460757600061467d8282614686565b50600101614669565b50805461469290615313565b6000825580601f106146a2575050565b601f0160209004906000526020600020908101906112ab91905b8082111561460757600081556001016146bc565b6001600160e01b0319811681146112ab57600080fd5b6000602082840312156146f857600080fd5b81356124e7816146d0565b60005b8381101561471e578181015183820152602001614706565b50506000910152565b6000815180845261473f816020860160208601614703565b601f01601f19169290920160200192915050565b6020815260006124e76020830184614727565b60006020828403121561477857600080fd5b5035919050565b6001600160a01b03811681146112ab57600080fd5b803561479f8161477f565b919050565b600080604083850312156147b757600080fd5b82356147c28161477f565b946020939093013593505050565b6000602082840312156147e257600080fd5b81356124e78161477f565b634e487b7160e01b600052602160045260246000fd5b6008811061482157634e487b7160e01b600052602160045260246000fd5b9052565b805182526020810151151560208301526040810151604083015260018060a01b0360608201511660608301526080810151608083015260a0810151610e8e60a0840182614803565b60c08101610cba8284614825565b634e487b7160e01b600052604160045260246000fd5b60405161016081016001600160401b03811182821017156148b4576148b461487b565b60405290565b604080519081016001600160401b03811182821017156148b4576148b461487b565b60405160c081016001600160401b03811182821017156148b4576148b461487b565b60405161012081016001600160401b03811182821017156148b4576148b461487b565b604051601f8201601f191681016001600160401b03811182821017156149495761494961487b565b604052919050565b60006001600160401b0382111561496a5761496a61487b565b50601f01601f191660200190565b600082601f83011261498957600080fd5b813561499c61499782614951565b614921565b8181528460208386010111156149b157600080fd5b816020850160208301376000918101602001919091529392505050565b6000602082840312156149e057600080fd5b81356001600160401b038111156149f657600080fd5b61212784828501614978565b600080600060608486031215614a1757600080fd5b8335614a228161477f565b92506020840135614a328161477f565b929592945050506040919091013590565b803560ff8116811461479f57600080fd5b80151581146112ab57600080fd5b803561479f81614a54565b600060208284031215614a7f57600080fd5b81356001600160401b0380821115614a9657600080fd5b908301906101608286031215614aab57600080fd5b614ab3614891565b823581526020830135602082015260408301356040820152606083013560608201526080830135608082015260a083013560a082015260c083013560c082015260e083013560e0820152610100614b0b818501614a43565b908201526101208381013583811115614b2357600080fd5b614b2f88828701614978565b8284015250506101409150614b45828401614a62565b91810191909152949350505050565b606081526000614b676060830186614727565b8281036020840152614b798186614727565b90508281036040840152614b8d8185614727565b9695505050505050565b60006020808385031215614baa57600080fd5b82356001600160401b0380821115614bc157600080fd5b818501915085601f830112614bd557600080fd5b614bdd6148ba565b806040840188811115614bef57600080fd5b845b81811015614c2357803585811115614c095760008081fd5b614c158b828901614978565b855250928601928601614bf1565b509098975050505050505050565b600881106112ab57600080fd5b803561479f81614c31565b600060c08284031215614c5b57600080fd5b614c636148dc565b9050813581526020820135614c7781614a54565b6020820152604082810135908201526060820135614c948161477f565b60608201526080828101359082015260a0820135614cb181614c31565b60a082015292915050565b60008060e08385031215614ccf57600080fd5b614cd98484614c49565b9460c0939093013593505050565b604081526000614cfa6040830185614727565b82810360208401526128388185614727565b60008060e08385031215614d1f57600080fd5b82359150614d308460208501614c49565b90509250929050565b6020808252825182820181905260009190848201906040850190845b81811015614d7157835183529284019291840191600101614d55565b50909695505050505050565b60006101208b8352806020840152614d978184018c614727565b9050614da6604084018b614803565b8281036060840152614db8818a614727565b90508281036080840152614dcc8189614727565b6001600160a01b0388811660a0860152871660c085015283810360e08501529050614df78186614727565b9050828103610100840152614e0c8185614727565b9c9b505050505050505050505050565b60008060408385031215614e2f57600080fd5b8235614e3a8161477f565b91506020830135614e4a81614a54565b809150509250929050565b60008060008060808587031215614e6b57600080fd5b8435614e768161477f565b93506020850135614e868161477f565b92506040850135915060608501356001600160401b03811115614ea857600080fd5b614eb487828801614978565b91505092959194509250565b60008060408385031215614ed357600080fd5b8235915060208301356001600160401b0380821115614ef157600080fd5b908401906101208287031215614f0657600080fd5b614f0e6148fe565b82358152602083013582811115614f2457600080fd5b614f3088828601614978565b602083015250614f4260408401614c3e565b6040820152606083013582811115614f5957600080fd5b614f6588828601614978565b606083015250608083013582811115614f7d57600080fd5b614f8988828601614978565b608083015250614f9b60a08401614794565b60a0820152614fac60c08401614794565b60c082015260e083013582811115614fc357600080fd5b614fcf88828601614978565b60e0830152506101008084013583811115614fe957600080fd5b614ff589828701614978565b8284015250508093505050509250929050565b602081528151602082015260006020830151610120806040850152615031610140850183614727565b915060408501516150456060860182614803565b506060850151601f19808685030160808701526150628483614727565b935060808701519150808685030160a087015261507f8483614727565b935060a0870151915061509d60c08701836001600160a01b03169052565b60c08701516001600160a01b03811660e0880152915060e087015191506101008187860301818801526150d08584614727565b908801518782039092018488015293509050614b8d8382614727565b60008060006060848603121561510157600080fd5b8335925060208401356001600160401b038082111561511f57600080fd5b61512b87838801614978565b9350604086013591508082111561514157600080fd5b5061514e86828701614978565b9150509250925092565b6000806040838503121561516b57600080fd5b82356001600160401b038082111561518257600080fd5b61518e86838701614978565b935060208501359150808211156151a457600080fd5b506151b185828601614978565b9150509250929050565b600060208083850312156151ce57600080fd5b82356001600160401b03808211156151e557600080fd5b818501915085601f8301126151f957600080fd5b81358181111561520b5761520b61487b565b8060051b915061521c848301614921565b818152918301840191848101908884111561523657600080fd5b938501935b838510156152545784358252938501939085019061523b565b98975050505050505050565b6000806040838503121561527357600080fd5b823561527e8161477f565b91506020830135614e4a8161477f565b600080600080608085870312156152a457600080fd5b8435935060208501356001600160401b03808211156152c257600080fd5b6152ce88838901614978565b945060408701359150808211156152e457600080fd5b6152f088838901614978565b9350606087013591508082111561530657600080fd5b50614eb487828801614978565b600181811c9082168061532757607f821691505b60208210810361174a57634e487b7160e01b600052602260045260246000fd5b805161479f8161477f565b805161479f81614c31565b600060c0828403121561536f57600080fd5b6153776148dc565b82518152602083015161538981614a54565b60208201526040838101519082015260608301516153a68161477f565b60608201526080838101519082015260a08301516153c381614c31565b60a08201529392505050565b600082601f8301126153e057600080fd5b81516153ee61499782614951565b81815284602083860101111561540357600080fd5b612127826020830160208701614703565b60006020828403121561542657600080fd5b81516001600160401b0381111561543c57600080fd5b612127848285016153cf565b634e487b7160e01b600052601160045260246000fd5b81810381811115610cba57610cba615448565b80820180821115610cba57610cba615448565b6000826154a157634e487b7160e01b600052601260045260246000fd5b500690565b6000600182016154b8576154b8615448565b5060010190565b6020808252602e908201527f4552433732313a2063616c6c6572206973206e6f7420746f6b656e206f776e6560408201526d1c881b9bdc88185c1c1c9bdd995960921b606082015260800190565b6000610160825184526020830151602085015260408301516040850152606083015160608501526080830151608085015260a083015160a085015260c083015160c085015260e083015160e0850152610100808401516155718287018260ff169052565b505061012080840151828287015261558b83870182614727565b92505050610140808401516155a38287018215159052565b5090949350505050565b6040815260006155c0604083018661550d565b905061212760208301848660201b63ffffffff919091161760401b9052565b6000806000606084860312156155f457600080fd5b83516001600160401b038082111561560b57600080fd5b615617878388016153cf565b9450602086015191508082111561562d57600080fd5b615639878388016153cf565b9350604086015191508082111561564f57600080fd5b5061514e868287016153cf565b60e0810161566a8285614825565b8260c08301529392505050565b6000806040838503121561568a57600080fd5b82516001600160401b03808211156156a157600080fd5b6156ad868387016153cf565b935060208501519150808211156156c357600080fd5b506151b1858286016153cf565b600081546156dd81615313565b8085526020600183811680156156fa576001811461571457615742565b60ff1985168884015283151560051b880183019550615742565b866000528260002060005b8581101561573a5781548a820186015290830190840161571f565b890184019650505b505050505092915050565b60006101208254845280602085015261576b818501600185016156d0565b905061577b600284015460ff1690565b6157886040860182614803565b50838103606085015261579e81600385016156d0565b905083810360808501526157b581600485016156d0565b90506157cb60058401546001600160a01b031690565b6001600160a01b0390811660a086015260068401541660c085015283810360e08501526157fb81600785016156d0565b905083810361010085015261212781600885016156d0565b60006101006158228387614825565b8460c08401528060e0840152614b8d8184018561574d565b634e487b7160e01b600052603260045260246000fd5b60006080828403121561586257600080fd5b604051608081016001600160401b0382821081831117156158855761588561487b565b81604052845191506001600160801b03821682146158a257600080fd5b90825260208401519080821682146158b957600080fd5b50602082015260408301516158cd81614a54565b604082015260608301516158e081614a54565b60608201529392505050565b6000806000806080858703121561590257600080fd5b845161590d8161477f565b6020860151604087015191955093506159258161477f565b606086015190925061593681614a54565b939692955090935050565b60006101608883526020615958602085018a614825565b8160e085015261596a8285018961574d565b915083820361010085015261597f8288614727565b91508382036101208501526159948287614727565b848103610140860152915081604081018660005b60028110156159d25785830384526159c083836156d0565b938501939250600191820191016159a8565b50909c9b505050505050505050505050565b6000602082840312156159f657600080fd5b5051919050565b600060208284031215615a0f57600080fd5b81516124e78161477f565b60e08101615a288285614825565b6001600160801b03831660c08301529392505050565b600060208284031215615a5057600080fd5b81516001600160401b0380821115615a6757600080fd5b908301906101208286031215615a7c57600080fd5b615a846148fe565b82518152602083015182811115615a9a57600080fd5b615aa6878286016153cf565b602083015250615ab860408401615352565b6040820152606083015182811115615acf57600080fd5b615adb878286016153cf565b606083015250608083015182811115615af357600080fd5b615aff878286016153cf565b608083015250615b1160a08401615347565b60a0820152615b2260c08401615347565b60c082015260e083015182811115615b3957600080fd5b615b45878286016153cf565b60e0830152506101008084015183811115615b5f57600080fd5b615b6b888287016153cf565b918301919091525095945050505050565b601f821115610e8e576000816000526020600020601f850160051c81016020861015615ba55750805b601f850160051c820191505b818110156130a957828155600101615bb1565b81516001600160401b03811115615bdd57615bdd61487b565b615bf181615beb8454615313565b84615b7c565b602080601f831160018114615c265760008415615c0e5750858301515b600019600386901b1c1916600185901b1785556130a9565b600085815260208120601f198616915b82811015615c5557888601518255948401946001909101908401615c36565b5085821015615c735787850151600019600388901b60f8161c191681555b5050505050600190811b01905550565b838152606060208201526000615c9c6060830185614727565b8281036040840152614b8d8185614727565b6000610140878352806020840152615cc881840188614727565b90508281036040840152615cdc8187614727565b9050615ceb6060840186614825565b828103610120840152615254818561574d565b848152608060208201526000615d176080830186614727565b8281036040840152615d298186614727565b90508281036060840152615d3d8185614727565b979650505050505050565b6000610160888352806020840152615d6281840189614727565b90508281036040840152615d768188614727565b90508281036060840152615d8a8187614727565b9050615d996080840186614825565b828103610140840152615dac818561574d565b9998505050505050505050565b60208082526032908201527f4552433732313a207472616e7366657220746f206e6f6e20455243373231526560408201527131b2b4bb32b91034b6b83632b6b2b73a32b960711b606082015260800190565b60008060008060808587031215615e2157600080fd5b845193506020850151615e338161477f565b6040860151909350615e448161477f565b60608601519092506159368161477f565b6001600160a01b0385811682528416602082015260408101839052608060608201819052600090614b8d90830184614727565b600060208284031215615e9a57600080fd5b81516124e7816146d0565b634e487b7160e01b600052603160045260246000fdfe0000000000000000000000006b8f34e0559aa9a5507e74ad93374d9745cdbf09a2646970667358221220d3fb7b0cd6e7475ea93474d15886b3101bc822de6dd7aeffe1038675769eff7264736f6c63430008160033","linkReferences":{}},"methodIdentifiers":{"addMinter(address)":"983b2d56","approve(address,uint256)":"095ea7b3","balanceOf(address)":"70a08231","burn(uint256)":"42966c68","burnBatch(uint256[])":"e4623c1b","callGetSVGZmapAndMetadataTrait(uint256,string,string,bytes)":"f1271942","callGetSvgAndMetadataTrait(uint256,string,string)":"e08714a6","cancelOwnershipHandover()":"54d1f13d","chonkTraitsV1()":"bc085033","chonksMain()":"ba7270f3","completeOwnershipHandover(address)":"f04e283e","createSvgFromPixels(bytes)":"21b12c23","getApproved(uint256)":"081812fc","getColorMapForTokenId(uint256)":"dcbaaad5","getCurrentEpoch()":"b97dd9e2","getEpochData(uint256)":"859e7d32","getGhostSvg()":"5c1ef256","getSVGZmapAndMetadataTrait((uint256,bool,uint256,address,uint256,uint8),uint256)":"f901667f","getStoredTraitForTokenId(uint256)":"208c25a3","getSvgAndMetadata((uint256,uint256,uint256,uint256,uint256,uint256,uint256,uint256,uint8,string,bool))":"a9684c58","getSvgAndMetadataTrait((uint256,bool,uint256,address,uint256,uint8),uint256)":"33a70328","getSvgForTokenId(uint256)":"c7791531","getSvgZmapsAndMetadata((uint256,uint256,uint256,uint256,uint256,uint256,uint256,uint256,uint8,string,bool))":"250818ea","getTrait(uint256)":"acb586df","getTraitImageSvg(uint256)":"a5e2912a","getTraitIndexToMetadata(uint256)":"ea139544","getTraitMetadata(uint256)":"d1bfc2af","getZMapForTokenId(uint256)":"a8498c74","invalidateAllOperatorApprovals(uint256)":"90f63842","isApprovedForAll(address,address)":"e985e9c5","isMinter(address)":"aa271e1a","marketplace()":"abc8c7af","name()":"06fdde03","nextTokenId()":"75794a3c","owner()":"8da5cb5b","ownerOf(uint256)":"6352211e","ownershipHandoverExpiresAt(address)":"fee81cf4","removeMinter(address)":"3092afd5","renderAsDataUri(uint256)":"a1d62680","renounceOwnership()":"715018a6","replaceMint(address,uint256)":"1f787d2f","replaceMintPermisssionsRevoked()":"9a6b9596","requestOwnershipHandover()":"25692962","resolveEpochIfNecessary()":"239ffa68","revokeReplaceMintPermissions()":"98d8d288","safeMint(address)":"40d097c3","safeTransferFrom(address,address,uint256)":"42842e0e","safeTransferFrom(address,address,uint256,bytes)":"b88d4fde","setApprovalForAll(address,bool)":"a22cb465","setDescriptionParts(string[2])":"26f2052a","setGhostMaps(bytes,bytes)":"e1defed9","setMarketplace(address)":"73ad6c2d","setTraitForTokenId(uint256,(uint256,bool,uint256,address,uint256,uint8))":"36d34ab9","setTraitIndexToMetadata(uint256,(uint256,string,uint8,bytes,bytes,address,address,string,string))":"b966c51d","setTraitRenderer(address)":"120def24","supportsInterface(bytes4)":"01ffc9a7","symbol()":"95d89b41","tokenByIndex(uint256)":"4f6ccce7","tokenOfOwnerByIndex(address,uint256)":"2f745c59","tokenURI(uint256)":"c87b56dd","totalSupply()":"18160ddd","traitIndexToMetadata(uint256)":"817a29a4","traitRenderer()":"c876371b","traitTokens()":"e14d026f","transferFrom(address,address,uint256)":"23b872dd","transferOwnership(address)":"f2fde38b","updateEpochOnce()":"31d2866a","walletOfOwner(address)":"438b6300"},"id":41}