{"abi":[{"type":"constructor","inputs":[{"name":"localDeploy_","type":"bool","internalType":"bool"}],"stateMutability":"nonpayable"},{"type":"function","name":"addApprovedInvalidator","inputs":[{"name":"_invalidator","type":"address","internalType":"address"}],"outputs":[],"stateMutability":"nonpayable"},{"type":"function","name":"addMinter","inputs":[{"name":"_minter","type":"address","internalType":"address"}],"outputs":[],"stateMutability":"nonpayable"},{"type":"function","name":"approve","inputs":[{"name":"_operator","type":"address","internalType":"address"},{"name":"_tokenId","type":"uint256","internalType":"uint256"}],"outputs":[],"stateMutability":"nonpayable"},{"type":"function","name":"approvedInvalidators","inputs":[{"name":"","type":"address","internalType":"address"}],"outputs":[{"name":"","type":"bool","internalType":"bool"}],"stateMutability":"view"},{"type":"function","name":"balanceOf","inputs":[{"name":"owner","type":"address","internalType":"address"}],"outputs":[{"name":"","type":"uint256","internalType":"uint256"}],"stateMutability":"view"},{"type":"function","name":"burn","inputs":[{"name":"tokenId","type":"uint256","internalType":"uint256"}],"outputs":[],"stateMutability":"nonpayable"},{"type":"function","name":"burnBatch","inputs":[{"name":"tokenIds","type":"uint256[]","internalType":"uint256[]"}],"outputs":[],"stateMutability":"nonpayable"},{"type":"function","name":"callGetSVGZmapAndMetadataTrait","inputs":[{"name":"_traitId","type":"uint256","internalType":"uint256"},{"name":"_traitsSvg","type":"string","internalType":"string"},{"name":"_traitsAttributes","type":"string","internalType":"string"},{"name":"_traitZMaps","type":"bytes","internalType":"bytes"}],"outputs":[{"name":"traitsSvg","type":"string","internalType":"string"},{"name":"traitsAttributes","type":"string","internalType":"string"},{"name":"traitZMaps","type":"bytes","internalType":"bytes"}],"stateMutability":"view"},{"type":"function","name":"callGetSvgAndMetadataTrait","inputs":[{"name":"_traitId","type":"uint256","internalType":"uint256"},{"name":"_traitsSvg","type":"string","internalType":"string"},{"name":"_traitsAttributes","type":"string","internalType":"string"}],"outputs":[{"name":"traitsSvg","type":"string","internalType":"string"},{"name":"traitsAttributes","type":"string","internalType":"string"}],"stateMutability":"view"},{"type":"function","name":"cancelOwnershipHandover","inputs":[],"outputs":[],"stateMutability":"payable"},{"type":"function","name":"chonksMain","inputs":[],"outputs":[{"name":"","type":"address","internalType":"contract ChonksMain"}],"stateMutability":"view"},{"type":"function","name":"completeOwnershipHandover","inputs":[{"name":"pendingOwner","type":"address","internalType":"address"}],"outputs":[],"stateMutability":"payable"},{"type":"function","name":"createSvgFromPixels","inputs":[{"name":"_pixels","type":"bytes","internalType":"bytes"}],"outputs":[{"name":"svgParts","type":"bytes","internalType":"bytes"}],"stateMutability":"view"},{"type":"function","name":"getApproved","inputs":[{"name":"tokenId","type":"uint256","internalType":"uint256"}],"outputs":[{"name":"","type":"address","internalType":"address"}],"stateMutability":"view"},{"type":"function","name":"getApprovedOperators","inputs":[{"name":"traitId","type":"uint256","internalType":"uint256"}],"outputs":[{"name":"","type":"address[]","internalType":"address[]"}],"stateMutability":"view"},{"type":"function","name":"getCurrentEpoch","inputs":[],"outputs":[{"name":"","type":"uint256","internalType":"uint256"}],"stateMutability":"view"},{"type":"function","name":"getEpoch","inputs":[],"outputs":[{"name":"","type":"uint256","internalType":"uint256"}],"stateMutability":"view"},{"type":"function","name":"getEpochData","inputs":[{"name":"index","type":"uint256","internalType":"uint256"}],"outputs":[{"name":"","type":"tuple","internalType":"struct CommitReveal.Epoch","components":[{"name":"randomness","type":"uint128","internalType":"uint128"},{"name":"revealBlock","type":"uint64","internalType":"uint64"},{"name":"committed","type":"bool","internalType":"bool"},{"name":"revealed","type":"bool","internalType":"bool"}]}],"stateMutability":"view"},{"type":"function","name":"getGhostSvg","inputs":[],"outputs":[{"name":"svg","type":"string","internalType":"string"}],"stateMutability":"view"},{"type":"function","name":"getSVGZmapAndMetadataTrait","inputs":[{"name":"trait","type":"tuple","internalType":"struct ITraitStorage.StoredTrait","components":[{"name":"epoch","type":"uint256","internalType":"uint256"},{"name":"isRevealed","type":"bool","internalType":"bool"},{"name":"seed","type":"uint256","internalType":"uint256"},{"name":"renderMinterContract","type":"address","internalType":"address"},{"name":"traitIndex","type":"uint256","internalType":"uint256"},{"name":"traitType","type":"uint8","internalType":"enum TraitCategory.Name"}]},{"name":"traitId","type":"uint256","internalType":"uint256"}],"outputs":[{"name":"traitSvg","type":"string","internalType":"string"},{"name":"traitZmap","type":"bytes","internalType":"bytes"},{"name":"traitAttributes","type":"string","internalType":"string"}],"stateMutability":"view"},{"type":"function","name":"getStoredTraitForTokenId","inputs":[{"name":"_tokenId","type":"uint256","internalType":"uint256"}],"outputs":[{"name":"","type":"tuple","internalType":"struct ITraitStorage.StoredTrait","components":[{"name":"epoch","type":"uint256","internalType":"uint256"},{"name":"isRevealed","type":"bool","internalType":"bool"},{"name":"seed","type":"uint256","internalType":"uint256"},{"name":"renderMinterContract","type":"address","internalType":"address"},{"name":"traitIndex","type":"uint256","internalType":"uint256"},{"name":"traitType","type":"uint8","internalType":"enum TraitCategory.Name"}]}],"stateMutability":"view"},{"type":"function","name":"getSvgAndMetadata","inputs":[{"name":"storedChonk","type":"tuple","internalType":"struct IChonkStorage.StoredChonk","components":[{"name":"headId","type":"uint256","internalType":"uint256"},{"name":"hairId","type":"uint256","internalType":"uint256"},{"name":"faceId","type":"uint256","internalType":"uint256"},{"name":"accessoryId","type":"uint256","internalType":"uint256"},{"name":"topId","type":"uint256","internalType":"uint256"},{"name":"bottomId","type":"uint256","internalType":"uint256"},{"name":"shoesId","type":"uint256","internalType":"uint256"},{"name":"epoch","type":"uint32","internalType":"uint32"},{"name":"tokenId","type":"uint256","internalType":"uint256"},{"name":"bodyIndex","type":"uint8","internalType":"uint8"},{"name":"backgroundColor","type":"string","internalType":"string"},{"name":"render3D","type":"bool","internalType":"bool"}]}],"outputs":[{"name":"traitsSvg","type":"string","internalType":"string"},{"name":"traitsAttributes","type":"string","internalType":"string"}],"stateMutability":"view"},{"type":"function","name":"getSvgAndMetadataTrait","inputs":[{"name":"trait","type":"tuple","internalType":"struct ITraitStorage.StoredTrait","components":[{"name":"epoch","type":"uint256","internalType":"uint256"},{"name":"isRevealed","type":"bool","internalType":"bool"},{"name":"seed","type":"uint256","internalType":"uint256"},{"name":"renderMinterContract","type":"address","internalType":"address"},{"name":"traitIndex","type":"uint256","internalType":"uint256"},{"name":"traitType","type":"uint8","internalType":"enum TraitCategory.Name"}]},{"name":"traitId","type":"uint256","internalType":"uint256"}],"outputs":[{"name":"traitSvg","type":"string","internalType":"string"},{"name":"traitAttributes","type":"string","internalType":"string"}],"stateMutability":"view"},{"type":"function","name":"getSvgForTokenId","inputs":[{"name":"_tokenId","type":"uint256","internalType":"uint256"}],"outputs":[{"name":"traitSvg","type":"string","internalType":"string"}],"stateMutability":"view"},{"type":"function","name":"getSvgZmapsAndMetadata","inputs":[{"name":"storedChonk","type":"tuple","internalType":"struct IChonkStorage.StoredChonk","components":[{"name":"headId","type":"uint256","internalType":"uint256"},{"name":"hairId","type":"uint256","internalType":"uint256"},{"name":"faceId","type":"uint256","internalType":"uint256"},{"name":"accessoryId","type":"uint256","internalType":"uint256"},{"name":"topId","type":"uint256","internalType":"uint256"},{"name":"bottomId","type":"uint256","internalType":"uint256"},{"name":"shoesId","type":"uint256","internalType":"uint256"},{"name":"epoch","type":"uint32","internalType":"uint32"},{"name":"tokenId","type":"uint256","internalType":"uint256"},{"name":"bodyIndex","type":"uint8","internalType":"uint8"},{"name":"backgroundColor","type":"string","internalType":"string"},{"name":"render3D","type":"bool","internalType":"bool"}]}],"outputs":[{"name":"traitsSvg","type":"string","internalType":"string"},{"name":"traitZMaps","type":"bytes","internalType":"bytes"},{"name":"traitsAttributes","type":"string","internalType":"string"}],"stateMutability":"view"},{"type":"function","name":"getTrait","inputs":[{"name":"_tokenId","type":"uint256","internalType":"uint256"}],"outputs":[{"name":"","type":"tuple","internalType":"struct ITraitStorage.StoredTrait","components":[{"name":"epoch","type":"uint256","internalType":"uint256"},{"name":"isRevealed","type":"bool","internalType":"bool"},{"name":"seed","type":"uint256","internalType":"uint256"},{"name":"renderMinterContract","type":"address","internalType":"address"},{"name":"traitIndex","type":"uint256","internalType":"uint256"},{"name":"traitType","type":"uint8","internalType":"enum TraitCategory.Name"}]}],"stateMutability":"view"},{"type":"function","name":"getTraitImageSvg","inputs":[{"name":"index","type":"uint256","internalType":"uint256"}],"outputs":[{"name":"svg","type":"string","internalType":"string"}],"stateMutability":"view"},{"type":"function","name":"getTraitIndexToMetadata","inputs":[{"name":"_traitIndex","type":"uint256","internalType":"uint256"}],"outputs":[{"name":"","type":"tuple","internalType":"struct ITraitStorage.TraitMetadata","components":[{"name":"traitIndex","type":"uint256","internalType":"uint256"},{"name":"traitName","type":"string","internalType":"string"},{"name":"traitType","type":"uint8","internalType":"enum TraitCategory.Name"},{"name":"animations","type":"string","internalType":"string"},{"name":"colorMap","type":"bytes","internalType":"bytes"},{"name":"zMap","type":"bytes","internalType":"bytes"},{"name":"renderMinterContract","type":"address","internalType":"address"},{"name":"creatorAddress","type":"address","internalType":"address"},{"name":"creatorName","type":"string","internalType":"string"},{"name":"season","type":"string","internalType":"string"}]}],"stateMutability":"view"},{"type":"function","name":"getTraitMetadata","inputs":[{"name":"_tokenId","type":"uint256","internalType":"uint256"}],"outputs":[{"name":"","type":"tuple","internalType":"struct ITraitStorage.TraitMetadata","components":[{"name":"traitIndex","type":"uint256","internalType":"uint256"},{"name":"traitName","type":"string","internalType":"string"},{"name":"traitType","type":"uint8","internalType":"enum TraitCategory.Name"},{"name":"animations","type":"string","internalType":"string"},{"name":"colorMap","type":"bytes","internalType":"bytes"},{"name":"zMap","type":"bytes","internalType":"bytes"},{"name":"renderMinterContract","type":"address","internalType":"address"},{"name":"creatorAddress","type":"address","internalType":"address"},{"name":"creatorName","type":"string","internalType":"string"},{"name":"season","type":"string","internalType":"string"}]}],"stateMutability":"view"},{"type":"function","name":"getTraitType","inputs":[{"name":"_tokenId","type":"uint256","internalType":"uint256"}],"outputs":[{"name":"","type":"uint8","internalType":"enum TraitCategory.Name"}],"stateMutability":"view"},{"type":"function","name":"getZMapForTokenId","inputs":[{"name":"_tokenId","type":"uint256","internalType":"uint256"}],"outputs":[{"name":"","type":"string","internalType":"string"}],"stateMutability":"view"},{"type":"function","name":"invalidateAllOperatorApprovals","inputs":[{"name":"_tokenId","type":"uint256","internalType":"uint256"}],"outputs":[],"stateMutability":"nonpayable"},{"type":"function","name":"isApprovedForAll","inputs":[{"name":"owner","type":"address","internalType":"address"},{"name":"operator","type":"address","internalType":"address"}],"outputs":[{"name":"","type":"bool","internalType":"bool"}],"stateMutability":"view"},{"type":"function","name":"isMinter","inputs":[{"name":"","type":"address","internalType":"address"}],"outputs":[{"name":"","type":"bool","internalType":"bool"}],"stateMutability":"view"},{"type":"function","name":"marketplace","inputs":[],"outputs":[{"name":"","type":"address","internalType":"contract ChonksMarket"}],"stateMutability":"view"},{"type":"function","name":"name","inputs":[],"outputs":[{"name":"","type":"string","internalType":"string"}],"stateMutability":"view"},{"type":"function","name":"owner","inputs":[],"outputs":[{"name":"result","type":"address","internalType":"address"}],"stateMutability":"view"},{"type":"function","name":"ownerOf","inputs":[{"name":"tokenId","type":"uint256","internalType":"uint256"}],"outputs":[{"name":"","type":"address","internalType":"address"}],"stateMutability":"view"},{"type":"function","name":"ownershipHandoverExpiresAt","inputs":[{"name":"pendingOwner","type":"address","internalType":"address"}],"outputs":[{"name":"result","type":"uint256","internalType":"uint256"}],"stateMutability":"view"},{"type":"function","name":"removeApprovedInvalidator","inputs":[{"name":"_invalidator","type":"address","internalType":"address"}],"outputs":[],"stateMutability":"nonpayable"},{"type":"function","name":"removeMinter","inputs":[{"name":"_minter","type":"address","internalType":"address"}],"outputs":[],"stateMutability":"nonpayable"},{"type":"function","name":"renderAsDataUri","inputs":[{"name":"_tokenId","type":"uint256","internalType":"uint256"}],"outputs":[{"name":"","type":"string","internalType":"string"}],"stateMutability":"view"},{"type":"function","name":"renounceOwnership","inputs":[],"outputs":[],"stateMutability":"payable"},{"type":"function","name":"requestOwnershipHandover","inputs":[],"outputs":[],"stateMutability":"payable"},{"type":"function","name":"resolveEpochIfNecessary","inputs":[],"outputs":[],"stateMutability":"nonpayable"},{"type":"function","name":"safeMint","inputs":[{"name":"_to","type":"address","internalType":"address"}],"outputs":[{"name":"","type":"uint256","internalType":"uint256"}],"stateMutability":"nonpayable"},{"type":"function","name":"safeTransferFrom","inputs":[{"name":"from","type":"address","internalType":"address"},{"name":"to","type":"address","internalType":"address"},{"name":"tokenId","type":"uint256","internalType":"uint256"}],"outputs":[],"stateMutability":"nonpayable"},{"type":"function","name":"safeTransferFrom","inputs":[{"name":"from","type":"address","internalType":"address"},{"name":"to","type":"address","internalType":"address"},{"name":"tokenId","type":"uint256","internalType":"uint256"},{"name":"data","type":"bytes","internalType":"bytes"}],"outputs":[],"stateMutability":"nonpayable"},{"type":"function","name":"setApprovalForAll","inputs":[{"name":"_operator","type":"address","internalType":"address"},{"name":"_approved","type":"bool","internalType":"bool"}],"outputs":[],"stateMutability":"nonpayable"},{"type":"function","name":"setChonksMain","inputs":[{"name":"_ChonksMain","type":"address","internalType":"address"}],"outputs":[],"stateMutability":"nonpayable"},{"type":"function","name":"setGhostMaps","inputs":[{"name":"_colorMap","type":"bytes","internalType":"bytes"},{"name":"_zMap","type":"bytes","internalType":"bytes"}],"outputs":[],"stateMutability":"nonpayable"},{"type":"function","name":"setMarketplace","inputs":[{"name":"_marketplace","type":"address","internalType":"address"}],"outputs":[],"stateMutability":"nonpayable"},{"type":"function","name":"setTraitForTokenId","inputs":[{"name":"_tokenId","type":"uint256","internalType":"uint256"},{"name":"_trait","type":"tuple","internalType":"struct ITraitStorage.StoredTrait","components":[{"name":"epoch","type":"uint256","internalType":"uint256"},{"name":"isRevealed","type":"bool","internalType":"bool"},{"name":"seed","type":"uint256","internalType":"uint256"},{"name":"renderMinterContract","type":"address","internalType":"address"},{"name":"traitIndex","type":"uint256","internalType":"uint256"},{"name":"traitType","type":"uint8","internalType":"enum TraitCategory.Name"}]}],"outputs":[],"stateMutability":"nonpayable"},{"type":"function","name":"setTraitIndexToMetadata","inputs":[{"name":"_traitIndex","type":"uint256","internalType":"uint256"},{"name":"_metadata","type":"tuple","internalType":"struct ITraitStorage.TraitMetadata","components":[{"name":"traitIndex","type":"uint256","internalType":"uint256"},{"name":"traitName","type":"string","internalType":"string"},{"name":"traitType","type":"uint8","internalType":"enum TraitCategory.Name"},{"name":"animations","type":"string","internalType":"string"},{"name":"colorMap","type":"bytes","internalType":"bytes"},{"name":"zMap","type":"bytes","internalType":"bytes"},{"name":"renderMinterContract","type":"address","internalType":"address"},{"name":"creatorAddress","type":"address","internalType":"address"},{"name":"creatorName","type":"string","internalType":"string"},{"name":"season","type":"string","internalType":"string"}]}],"outputs":[],"stateMutability":"nonpayable"},{"type":"function","name":"setTraitRenderer","inputs":[{"name":"_traitRenderer","type":"address","internalType":"address"}],"outputs":[],"stateMutability":"nonpayable"},{"type":"function","name":"signer","inputs":[],"outputs":[{"name":"","type":"address","internalType":"address"}],"stateMutability":"view"},{"type":"function","name":"supportsInterface","inputs":[{"name":"interfaceId","type":"bytes4","internalType":"bytes4"}],"outputs":[{"name":"","type":"bool","internalType":"bool"}],"stateMutability":"view"},{"type":"function","name":"symbol","inputs":[],"outputs":[{"name":"","type":"string","internalType":"string"}],"stateMutability":"view"},{"type":"function","name":"tokenByIndex","inputs":[{"name":"index","type":"uint256","internalType":"uint256"}],"outputs":[{"name":"","type":"uint256","internalType":"uint256"}],"stateMutability":"view"},{"type":"function","name":"tokenOfOwnerByIndex","inputs":[{"name":"owner","type":"address","internalType":"address"},{"name":"index","type":"uint256","internalType":"uint256"}],"outputs":[{"name":"","type":"uint256","internalType":"uint256"}],"stateMutability":"view"},{"type":"function","name":"tokenURI","inputs":[{"name":"_tokenId","type":"uint256","internalType":"uint256"}],"outputs":[{"name":"","type":"string","internalType":"string"}],"stateMutability":"view"},{"type":"function","name":"totalSupply","inputs":[],"outputs":[{"name":"","type":"uint256","internalType":"uint256"}],"stateMutability":"view"},{"type":"function","name":"traitIdToApprovedOperators","inputs":[{"name":"traitId","type":"uint256","internalType":"uint256"},{"name":"","type":"uint256","internalType":"uint256"}],"outputs":[{"name":"operators","type":"address","internalType":"address"}],"stateMutability":"view"},{"type":"function","name":"traitIndexToMetadata","inputs":[{"name":"","type":"uint256","internalType":"uint256"}],"outputs":[{"name":"traitIndex","type":"uint256","internalType":"uint256"},{"name":"traitName","type":"string","internalType":"string"},{"name":"traitType","type":"uint8","internalType":"enum TraitCategory.Name"},{"name":"animations","type":"string","internalType":"string"},{"name":"colorMap","type":"bytes","internalType":"bytes"},{"name":"zMap","type":"bytes","internalType":"bytes"},{"name":"renderMinterContract","type":"address","internalType":"address"},{"name":"creatorAddress","type":"address","internalType":"address"},{"name":"creatorName","type":"string","internalType":"string"},{"name":"season","type":"string","internalType":"string"}],"stateMutability":"view"},{"type":"function","name":"traitRenderer","inputs":[],"outputs":[{"name":"","type":"address","internalType":"contract TraitRenderer"}],"stateMutability":"view"},{"type":"function","name":"traitTokens","inputs":[],"outputs":[{"name":"epoch","type":"uint256","internalType":"uint256"}],"stateMutability":"view"},{"type":"function","name":"transferFrom","inputs":[{"name":"from","type":"address","internalType":"address"},{"name":"to","type":"address","internalType":"address"},{"name":"tokenId","type":"uint256","internalType":"uint256"}],"outputs":[],"stateMutability":"nonpayable"},{"type":"function","name":"transferOwnership","inputs":[{"name":"newOwner","type":"address","internalType":"address"}],"outputs":[],"stateMutability":"payable"},{"type":"function","name":"walletOfOwner","inputs":[{"name":"_owner","type":"address","internalType":"address"}],"outputs":[{"name":"","type":"uint256[]","internalType":"uint256[]"}],"stateMutability":"view"},{"type":"event","name":"AllOperatorApprovalsInvalidated","inputs":[{"name":"tokenId","type":"uint256","indexed":true,"internalType":"uint256"}],"anonymous":false},{"type":"event","name":"Approval","inputs":[{"name":"owner","type":"address","indexed":true,"internalType":"address"},{"name":"approved","type":"address","indexed":true,"internalType":"address"},{"name":"tokenId","type":"uint256","indexed":true,"internalType":"uint256"}],"anonymous":false},{"type":"event","name":"ApprovalForAll","inputs":[{"name":"owner","type":"address","indexed":true,"internalType":"address"},{"name":"operator","type":"address","indexed":true,"internalType":"address"},{"name":"approved","type":"bool","indexed":false,"internalType":"bool"}],"anonymous":false},{"type":"event","name":"BatchMetadataUpdate","inputs":[{"name":"_fromTokenId","type":"uint256","indexed":false,"internalType":"uint256"},{"name":"_toTokenId","type":"uint256","indexed":false,"internalType":"uint256"}],"anonymous":false},{"type":"event","name":"MetadataUpdate","inputs":[{"name":"_tokenId","type":"uint256","indexed":false,"internalType":"uint256"}],"anonymous":false},{"type":"event","name":"NewEpoch","inputs":[{"name":"epoch","type":"uint256","indexed":true,"internalType":"uint256"},{"name":"revealBlock","type":"uint64","indexed":true,"internalType":"uint64"}],"anonymous":false},{"type":"event","name":"OwnershipHandoverCanceled","inputs":[{"name":"pendingOwner","type":"address","indexed":true,"internalType":"address"}],"anonymous":false},{"type":"event","name":"OwnershipHandoverRequested","inputs":[{"name":"pendingOwner","type":"address","indexed":true,"internalType":"address"}],"anonymous":false},{"type":"event","name":"OwnershipTransferred","inputs":[{"name":"oldOwner","type":"address","indexed":true,"internalType":"address"},{"name":"newOwner","type":"address","indexed":true,"internalType":"address"}],"anonymous":false},{"type":"event","name":"Transfer","inputs":[{"name":"from","type":"address","indexed":true,"internalType":"address"},{"name":"to","type":"address","indexed":true,"internalType":"address"},{"name":"tokenId","type":"uint256","indexed":true,"internalType":"uint256"}],"anonymous":false},{"type":"error","name":"AlreadyInitialized","inputs":[]},{"type":"error","name":"CantTransfer","inputs":[]},{"type":"error","name":"NewOwnerIsZeroAddress","inputs":[]},{"type":"error","name":"NoHandoverRequest","inputs":[]},{"type":"error","name":"NotATBA","inputs":[]},{"type":"error","name":"NotAValidMinterContract","inputs":[]},{"type":"error","name":"NotYourTrait","inputs":[]},{"type":"error","name":"SetChonksMainAddress","inputs":[]},{"type":"error","name":"SetMarketplaceAddress","inputs":[]},{"type":"error","name":"TraitNotFound","inputs":[{"name":"_tokenId","type":"uint256","internalType":"uint256"}]},{"type":"error","name":"TraitTokenDoesntExist","inputs":[]},{"type":"error","name":"Unauthorized","inputs":[]}],"bytecode":{"object":"0x60806040523480156200001157600080fd5b506040516200ea9c3803806200ea9c8339818101604052810190620000379190620002aa565b6040518060400160405280600c81526020017f43686f6e6b2054726169747300000000000000000000000000000000000000008152506040518060400160405280600c81526020017f43484f4e4b2054524149545300000000000000000000000000000000000000008152508160009081620000b4919062000556565b508060019081620000c6919062000556565b5050506001600a81905550620000e2336200016f60201b60201c565b80601660006101000a81548160ff0219169083151502179055506040516200010a906200025a565b604051809103906000f08015801562000127573d6000803e3d6000fd5b50600e60006101000a81548173ffffffffffffffffffffffffffffffffffffffff021916908373ffffffffffffffffffffffffffffffffffffffff160217905550506200063d565b6200017f6200025560201b60201c565b15620001fd577fffffffffffffffffffffffffffffffffffffffffffffffffffffffff74873927805415620001bc57630dc149f06000526004601cfd5b8160601b60601c9150811560ff1b821781558160007f8be0079c531659141344cd1fd0a4f28419497f9722a3daafe3b4186f6b6457e0600080a35062000252565b8060601b60601c9050807fffffffffffffffffffffffffffffffffffffffffffffffffffffffff74873927558060007f8be0079c531659141344cd1fd0a4f28419497f9722a3daafe3b4186f6b6457e0600080a35b50565b600090565b6146d2806200a3ca83390190565b600080fd5b60008115159050919050565b62000284816200026d565b81146200029057600080fd5b50565b600081519050620002a48162000279565b92915050565b600060208284031215620002c357620002c262000268565b5b6000620002d38482850162000293565b91505092915050565b600081519050919050565b7f4e487b7100000000000000000000000000000000000000000000000000000000600052604160045260246000fd5b7f4e487b7100000000000000000000000000000000000000000000000000000000600052602260045260246000fd5b600060028204905060018216806200035e57607f821691505b60208210810362000374576200037362000316565b5b50919050565b60008190508160005260206000209050919050565b60006020601f8301049050919050565b600082821b905092915050565b600060088302620003de7fffffffffffffffffffffffffffffffffffffffffffffffffffffffffffffffff826200039f565b620003ea86836200039f565b95508019841693508086168417925050509392505050565b6000819050919050565b6000819050919050565b600062000437620004316200042b8462000402565b6200040c565b62000402565b9050919050565b6000819050919050565b620004538362000416565b6200046b62000462826200043e565b848454620003ac565b825550505050565b600090565b6200048262000473565b6200048f81848462000448565b505050565b5b81811015620004b757620004ab60008262000478565b60018101905062000495565b5050565b601f8211156200050657620004d0816200037a565b620004db846200038f565b81016020851015620004eb578190505b62000503620004fa856200038f565b83018262000494565b50505b505050565b600082821c905092915050565b60006200052b600019846008026200050b565b1980831691505092915050565b600062000546838362000518565b9150826002028217905092915050565b6200056182620002dc565b67ffffffffffffffff8111156200057d576200057c620002e7565b5b62000589825462000345565b62000596828285620004bb565b600060209050601f831160018114620005ce5760008415620005b9578287015190505b620005c5858262000538565b86555062000635565b601f198416620005de866200037a565b60005b828110156200060857848901518255600182019150602085019450602081019050620005e1565b8683101562000628578489015162000624601f89168262000518565b8355505b6001600288020188555050505b505050505050565b619d7d806200064d6000396000f3fe6080604052600436106103f95760003560e01c80638da5cb5b11610213578063c876371b11610123578063e8a1268d116100ab578063f12719421161007a578063f127194214611040578063f2fde38b1461107f578063f677c0131461109b578063f901667f146110c4578063fee81cf414611103576103f9565b8063e8a1268d14610f6d578063e985e9c514610faa578063ea13954414610fe7578063f04e283e14611024576103f9565b8063df2c2b88116100f2578063df2c2b8814610e74578063e08714a614610eb2578063e14d026f14610ef0578063e1defed914610f1b578063e4623c1b14610f44576103f9565b8063c876371b14610da6578063c87b56dd14610dd1578063cde2180a14610e0e578063d1bfc2af14610e37576103f9565b8063aa271e1a116101a6578063b88d4fde11610175578063b88d4fde14610cab578063b97dd9e214610cd4578063ba7270f314610cff578063bb12d21d14610d2a578063c779153114610d69576103f9565b8063aa271e1a14610bc9578063abc8c7af14610c06578063acb586df14610c31578063b3148f7514610c6e576103f9565b8063a1d62680116101e2578063a1d6268014610ae9578063a22cb46514610b26578063a5e2912a14610b4f578063a8498c7414610b8c576103f9565b80638da5cb5b14610a4157806390f6384214610a6c57806395d89b4114610a95578063983b2d5614610ac0576103f9565b806336d34ab91161030e5780636352211e116102a157806373ad6c2d1161027057806373ad6c2d14610941578063757991a81461096a578063817a29a414610995578063859e7d32146109db5780638d37c53714610a18576103f9565b80636352211e1461089457806370a08231146108d1578063713dbc271461090e578063715018a614610937576103f9565b8063438b6300116102dd578063438b6300146107e55780634f6ccce71461082257806354d1f13d1461085f5780635c1ef25614610869576103f9565b806336d34ab91461072d57806340d097c31461075657806342842e0e1461079357806342966c68146107bc576103f9565b8063208c25a31161039157806323b872dd1161036057806323b872dd14610656578063256929621461067f5780632f745c59146106895780633092afd5146106c657806333a70328146106ef576103f9565b8063208c25a31461059a57806321b12c23146105d7578063238ac93314610614578063239ffa681461063f576103f9565b8063095ea7b3116103cd578063095ea7b3146104e057806311f3910d14610509578063120def241461054657806318160ddd1461056f576103f9565b8062db6348146103fe57806301ffc9a71461043b57806306fdde0314610478578063081812fc146104a3575b600080fd5b34801561040a57600080fd5b5061042560048036038101906104209190616b6f565b611140565b6040516104329190616c8c565b60405180910390f35b34801561044757600080fd5b50610462600480360381019061045d9190616d06565b6111e1565b60405161046f9190616d4e565b60405180910390f35b34801561048457600080fd5b5061048d6111f3565b60405161049a9190616df9565b60405180910390f35b3480156104af57600080fd5b506104ca60048036038101906104c59190616b6f565b611285565b6040516104d79190616e2a565b60405180910390f35b3480156104ec57600080fd5b5061050760048036038101906105029190616e71565b6112cb565b005b34801561051557600080fd5b50610530600480360381019061052b9190616eb1565b61166c565b60405161053d9190616e2a565b60405180910390f35b34801561055257600080fd5b5061056d60048036038101906105689190616ef1565b6116ba565b005b34801561057b57600080fd5b50610584611706565b6040516105919190616f2d565b60405180910390f35b3480156105a657600080fd5b506105c160048036038101906105bc9190616b6f565b611713565b6040516105ce9190617058565b60405180910390f35b3480156105e357600080fd5b506105fe60048036038101906105f991906171a8565b61180d565b60405161060b9190617246565b60405180910390f35b34801561062057600080fd5b506106296118b7565b6040516106369190616e2a565b60405180910390f35b34801561064b57600080fd5b506106546118dd565b005b34801561066257600080fd5b5061067d60048036038101906106789190617268565b611b8d565b005b610687611bed565b005b34801561069557600080fd5b506106b060048036038101906106ab9190616e71565b611c41565b6040516106bd9190616f2d565b60405180910390f35b3480156106d257600080fd5b506106ed60048036038101906106e89190616ef1565b611ce6565b005b3480156106fb57600080fd5b50610716600480360381019061071191906173b6565b611d49565b6040516107249291906173f6565b60405180910390f35b34801561073957600080fd5b50610754600480360381019061074f919061742d565b611e12565b005b34801561076257600080fd5b5061077d60048036038101906107789190616ef1565b611ee5565b60405161078a9190616f2d565b60405180910390f35b34801561079f57600080fd5b506107ba60048036038101906107b59190617268565b611ff9565b005b3480156107c857600080fd5b506107e360048036038101906107de9190616b6f565b612019565b005b3480156107f157600080fd5b5061080c60048036038101906108079190616ef1565b612025565b604051610819919061751c565b60405180910390f35b34801561082e57600080fd5b5061084960048036038101906108449190616b6f565b61215a565b6040516108569190616f2d565b60405180910390f35b6108676121cb565b005b34801561087557600080fd5b5061087e612207565b60405161088b9190616df9565b60405180910390f35b3480156108a057600080fd5b506108bb60048036038101906108b69190616b6f565b6122a4565b6040516108c89190616e2a565b60405180910390f35b3480156108dd57600080fd5b506108f860048036038101906108f39190616ef1565b612355565b6040516109059190616f2d565b60405180910390f35b34801561091a57600080fd5b5061093560048036038101906109309190616ef1565b61240c565b005b61093f612458565b005b34801561094d57600080fd5b5061096860048036038101906109639190616ef1565b61246c565b005b34801561097657600080fd5b5061097f6124b8565b60405161098c9190616f2d565b60405180910390f35b3480156109a157600080fd5b506109bc60048036038101906109b79190616b6f565b6124c5565b6040516109d29a9998979695949392919061754d565b60405180910390f35b3480156109e757600080fd5b50610a0260048036038101906109fd9190616b6f565b612896565b604051610a0f91906176b6565b60405180910390f35b348015610a2457600080fd5b50610a3f6004803603810190610a3a9190617910565b612978565b005b348015610a4d57600080fd5b50610a56612ae1565b604051610a639190616e2a565b60405180910390f35b348015610a7857600080fd5b50610a936004803603810190610a8e9190616b6f565b612b0a565b005b348015610aa157600080fd5b50610aaa612db5565b604051610ab79190616df9565b60405180910390f35b348015610acc57600080fd5b50610ae76004803603810190610ae29190616ef1565b612e47565b005b348015610af557600080fd5b50610b106004803603810190610b0b9190616b6f565b612eaa565b604051610b1d9190616df9565b60405180910390f35b348015610b3257600080fd5b50610b4d6004803603810190610b48919061796c565b612fde565b005b348015610b5b57600080fd5b50610b766004803603810190610b719190616b6f565b613347565b604051610b839190616df9565b60405180910390f35b348015610b9857600080fd5b50610bb36004803603810190610bae9190616b6f565b613406565b604051610bc09190616df9565b60405180910390f35b348015610bd557600080fd5b50610bf06004803603810190610beb9190616ef1565b6134c0565b604051610bfd9190616d4e565b60405180910390f35b348015610c1257600080fd5b50610c1b6134e0565b604051610c289190617a0b565b60405180910390f35b348015610c3d57600080fd5b50610c586004803603810190610c539190616b6f565b613506565b604051610c659190617058565b60405180910390f35b348015610c7a57600080fd5b50610c956004803603810190610c909190616ef1565b613761565b604051610ca29190616d4e565b60405180910390f35b348015610cb757600080fd5b50610cd26004803603810190610ccd9190617a26565b613781565b005b348015610ce057600080fd5b50610ce96137e3565b604051610cf69190616f2d565b60405180910390f35b348015610d0b57600080fd5b50610d146137f0565b604051610d219190617aca565b60405180910390f35b348015610d3657600080fd5b50610d516004803603810190610d4c9190617c98565b613816565b604051610d6093929190617ce1565b60405180910390f35b348015610d7557600080fd5b50610d906004803603810190610d8b9190616b6f565b6138e7565b604051610d9d9190616df9565b60405180910390f35b348015610db257600080fd5b50610dbb613953565b604051610dc89190617d4e565b60405180910390f35b348015610ddd57600080fd5b50610df86004803603810190610df39190616b6f565b613979565b604051610e059190616df9565b60405180910390f35b348015610e1a57600080fd5b50610e356004803603810190610e309190616ef1565b6139ca565b005b348015610e4357600080fd5b50610e5e6004803603810190610e599190616b6f565b613a2d565b604051610e6b9190617efa565b60405180910390f35b348015610e8057600080fd5b50610e9b6004803603810190610e969190617c98565b613eca565b604051610ea99291906173f6565b60405180910390f35b348015610ebe57600080fd5b50610ed96004803603810190610ed49190617f1c565b613f95565b604051610ee79291906173f6565b60405180910390f35b348015610efc57600080fd5b50610f05614071565b604051610f129190616f2d565b60405180910390f35b348015610f2757600080fd5b50610f426004803603810190610f3d9190617fa7565b61407d565b005b348015610f5057600080fd5b50610f6b6004803603810190610f6691906180e7565b614118565b005b348015610f7957600080fd5b50610f946004803603810190610f8f9190616b6f565b614156565b604051610fa19190618130565b60405180910390f35b348015610fb657600080fd5b50610fd16004803603810190610fcc919061814b565b6145f6565b604051610fde9190616d4e565b60405180910390f35b348015610ff357600080fd5b5061100e60048036038101906110099190616b6f565b61468a565b60405161101b9190617efa565b60405180910390f35b61103e60048036038101906110399190616ef1565b614b15565b005b34801561104c57600080fd5b506110676004803603810190611062919061818b565b614b56565b60405161107693929190618246565b60405180910390f35b61109960048036038101906110949190616ef1565b614c3a565b005b3480156110a757600080fd5b506110c260048036038101906110bd9190616ef1565b614c64565b005b3480156110d057600080fd5b506110eb60048036038101906110e691906173b6565b614cc7565b6040516110fa93929190617ce1565b60405180910390f35b34801561110f57600080fd5b5061112a60048036038101906111259190616ef1565b614d94565b6040516111379190616f2d565b60405180910390f35b6060601160008381526020019081526020016000208054806020026020016040519081016040528092919081815260200182805480156111d557602002820191906000526020600020905b8160009054906101000a900473ffffffffffffffffffffffffffffffffffffffff1673ffffffffffffffffffffffffffffffffffffffff168152602001906001019080831161118b575b50505050509050919050565b60006111ec82614daf565b9050919050565b606060008054611202906182c1565b80601f016020809104026020016040519081016040528092919081815260200182805461122e906182c1565b801561127b5780601f106112505761010080835404028352916020019161127b565b820191906000526020600020905b81548152906001019060200180831161125e57829003601f168201915b5050505050905090565b600061129082614e29565b6004600083815260200190815260200160002060009054906101000a900473ffffffffffffffffffffffffffffffffffffffff169050919050565b6112d481614e74565b61130a576040517fb7c3891400000000000000000000000000000000000000000000000000000000815260040160405180910390fd5b3373ffffffffffffffffffffffffffffffffffffffff1661132a826122a4565b73ffffffffffffffffffffffffffffffffffffffff1614611377576040517f3e79b9f300000000000000000000000000000000000000000000000000000000815260040160405180910390fd5b600073ffffffffffffffffffffffffffffffffffffffff168273ffffffffffffffffffffffffffffffffffffffff160361154757600060116000838152602001908152602001600020905060005b8180549050811015611540578373ffffffffffffffffffffffffffffffffffffffff168282815481106113fb576113fa6182f2565b5b9060005260206000200160009054906101000a900473ffffffffffffffffffffffffffffffffffffffff1673ffffffffffffffffffffffffffffffffffffffff16036115355781600183805490506114539190618350565b81548110611464576114636182f2565b5b9060005260206000200160009054906101000a900473ffffffffffffffffffffffffffffffffffffffff168282815481106114a2576114a16182f2565b5b9060005260206000200160006101000a81548173ffffffffffffffffffffffffffffffffffffffff021916908373ffffffffffffffffffffffffffffffffffffffff160217905550818054806114fb576114fa618384565b5b6001900381819060005260206000200160006101000a81549073ffffffffffffffffffffffffffffffffffffffff02191690559055611540565b8060010190506113c5565b505061165e565b60006011600083815260200190815260200160002090506000805b82805490508110156115f2578473ffffffffffffffffffffffffffffffffffffffff16838281548110611598576115976182f2565b5b9060005260206000200160009054906101000a900473ffffffffffffffffffffffffffffffffffffffff1673ffffffffffffffffffffffffffffffffffffffff16036115e757600191506115f2565b806001019050611562565b508061165b5781849080600181540180825580915050600190039060005260206000200160009091909190916101000a81548173ffffffffffffffffffffffffffffffffffffffff021916908373ffffffffffffffffffffffffffffffffffffffff1602179055505b50505b6116688282614ee0565b5050565b6011602052816000526040600020818154811061168857600080fd5b906000526020600020016000915091509054906101000a900473ffffffffffffffffffffffffffffffffffffffff1681565b6116c2614ff7565b80600e60006101000a81548173ffffffffffffffffffffffffffffffffffffffff021916908373ffffffffffffffffffffffffffffffffffffffff16021790555050565b6000600880549050905090565b61171b6169ae565b600b60000160008381526020019081526020016000206040518060c0016040529081600082015481526020016001820160009054906101000a900460ff16151515158152602001600282015481526020016003820160009054906101000a900473ffffffffffffffffffffffffffffffffffffffff1673ffffffffffffffffffffffffffffffffffffffff1673ffffffffffffffffffffffffffffffffffffffff168152602001600482015481526020016005820160009054906101000a900460ff1660078111156117f0576117ef616f66565b5b600781111561180257611801616f66565b5b815250509050919050565b6060600e60009054906101000a900473ffffffffffffffffffffffffffffffffffffffff1673ffffffffffffffffffffffffffffffffffffffff166321b12c23836040518263ffffffff1660e01b815260040161186a9190617246565b600060405180830381865afa158015611887573d6000803e3d6000fd5b505050506040513d6000823e3d601f19601f820116820180604052508101906118b09190618423565b9050919050565b600f60009054906101000a900473ffffffffffffffffffffffffffffffffffffffff1681565b6000600b6002016000600b6001015481526020019081526020016000209050600015158160000160189054906101000a900460ff161515148061196f5750600015158160000160199054906101000a900460ff16151514801561196e5750610100436119499190618350565b8160000160109054906101000a900467ffffffffffffffff1667ffffffffffffffff16105b5b156119cd57603243611981919061846c565b8160000160106101000a81548167ffffffffffffffff021916908367ffffffffffffffff16021790555060018160000160186101000a81548160ff021916908315150217905550611b8a565b8060000160109054906101000a900467ffffffffffffffff1667ffffffffffffffff16431115611b89576fffffffffffffffffffffffffffffffff8160000160109054906101000a900467ffffffffffffffff1667ffffffffffffffff164044604051602001611a3e9291906184ec565b6040516020818303038152906040528051906020012060001c611a619190618547565b8160000160006101000a8154816fffffffffffffffffffffffffffffffff02191690836fffffffffffffffffffffffffffffffff16021790555060018160000160196101000a81548160ff0219169083151502179055508060000160109054906101000a900467ffffffffffffffff1667ffffffffffffffff16600b600101547f78611aecfda8d341359c248df527c95aef93d446c92bb928b2a81b7abcb1d8d960405160405180910390a37f6bd5c950a8d8df17f772f5af37cb3655737899cbf903264b9795592da439661c60007fffffffffffffffffffffffffffffffffffffffffffffffffffffffffffffffff604051611b5f9291906185b3565b60405180910390a1600b60010160008154611b79906185dc565b91905081905550611b886118dd565b5b5b50565b611b9e611b9861502f565b82615037565b611bdd576040517f08c379a0000000000000000000000000000000000000000000000000000000008152600401611bd490618696565b60405180910390fd5b611be88383836150cc565b505050565b6000611bf7615332565b67ffffffffffffffff164201905063389a75e1600c5233600052806020600c2055337fdbf36a107da19e49527a7176a1babf963b4b0ff8cde35ee35d6cd8f1f9ac7e1d600080a250565b6000611c4c83612355565b8210611c8d576040517f08c379a0000000000000000000000000000000000000000000000000000000008152600401611c8490618728565b60405180910390fd5b600660008473ffffffffffffffffffffffffffffffffffffffff1673ffffffffffffffffffffffffffffffffffffffff168152602001908152602001600020600083815260200190815260200160002054905092915050565b611cee614ff7565b6000601460008373ffffffffffffffffffffffffffffffffffffffff1673ffffffffffffffffffffffffffffffffffffffff16815260200190815260200160002060006101000a81548160ff02191690831515021790555050565b606080600e60009054906101000a900473ffffffffffffffffffffffffffffffffffffffff1673ffffffffffffffffffffffffffffffffffffffff16632fbcb97e858560106000896080015181526020019081526020016000206040518463ffffffff1660e01b8152600401611dc193929190618a2f565b600060405180830381865afa158015611dde573d6000803e3d6000fd5b505050506040513d6000823e3d601f19601f82011682018060405250810190611e079190618ade565b915091509250929050565b80600b60000160008481526020019081526020016000206000820151816000015560208201518160010160006101000a81548160ff0219169083151502179055506040820151816002015560608201518160030160006101000a81548173ffffffffffffffffffffffffffffffffffffffff021916908373ffffffffffffffffffffffffffffffffffffffff1602179055506080820151816004015560a08201518160050160006101000a81548160ff02191690836007811115611ed957611ed8616f66565b5b02179055509050505050565b600033601460008273ffffffffffffffffffffffffffffffffffffffff1673ffffffffffffffffffffffffffffffffffffffff16815260200190815260200160002060009054906101000a900460ff16611f6b576040517f24282da400000000000000000000000000000000000000000000000000000000815260040160405180910390fd5b611f736118dd565b60006001611f7f611706565b611f89919061846c565b9050611f95848261533d565b7f6bd5c950a8d8df17f772f5af37cb3655737899cbf903264b9795592da439661c60007fffffffffffffffffffffffffffffffffffffffffffffffffffffffffffffffff604051611fe79291906185b3565b60405180910390a18092505050919050565b61201483838360405180602001604052806000815250613781565b505050565b6120228161535b565b50565b606061206e6040518060400160405280601181526020017f62616c616e63654f66285f6f776e65722900000000000000000000000000000081525061206984612355565b615478565b600061207983612355565b905060008167ffffffffffffffff8111156120975761209661707d565b5b6040519080825280602002602001820160405280156120c55781602001602082028036833780820191505090505b50905060005b8281101561214f5761211b6040518060400160405280601e81526020017f746f6b656e4f664f776e65724279496e646578285f6f776e65722c20692900008152506121168784611c41565b615478565b6121258582611c41565b828281518110612138576121376182f2565b5b6020026020010181815250508060010190506120cb565b508092505050919050565b6000612164611706565b82106121a5576040517f08c379a000000000000000000000000000000000000000000000000000000000815260040161219c90618bc8565b60405180910390fd5b600882815481106121b9576121b86182f2565b5b90600052602060002001549050919050565b63389a75e1600c523360005260006020600c2055337ffa7b8eab7da67f412cc9575ed43464468f9bfbae89d1675917346ca6d8fe3c92600080a2565b6060600e60009054906101000a900473ffffffffffffffffffffffffffffffffffffffff1673ffffffffffffffffffffffffffffffffffffffff16635c1ef2566040518163ffffffff1660e01b8152600401600060405180830381865afa158015612276573d6000803e3d6000fd5b505050506040513d6000823e3d601f19601f8201168201806040525081019061229f9190618be8565b905090565b6000806002600084815260200190815260200160002060009054906101000a900473ffffffffffffffffffffffffffffffffffffffff169050600073ffffffffffffffffffffffffffffffffffffffff168173ffffffffffffffffffffffffffffffffffffffff160361234c576040517f08c379a000000000000000000000000000000000000000000000000000000000815260040161234390618c7d565b60405180910390fd5b80915050919050565b60008073ffffffffffffffffffffffffffffffffffffffff168273ffffffffffffffffffffffffffffffffffffffff16036123c5576040517f08c379a00000000000000000000000000000000000000000000000000000000081526004016123bc90618d0f565b60405180910390fd5b600360008373ffffffffffffffffffffffffffffffffffffffff1673ffffffffffffffffffffffffffffffffffffffff168152602001908152602001600020549050919050565b612414614ff7565b80601260006101000a81548173ffffffffffffffffffffffffffffffffffffffff021916908373ffffffffffffffffffffffffffffffffffffffff16021790555050565b612460614ff7565b61246a6000615514565b565b612474614ff7565b80601360006101000a81548173ffffffffffffffffffffffffffffffffffffffff021916908373ffffffffffffffffffffffffffffffffffffffff16021790555050565b6000600b60010154905090565b60106020528060005260406000206000915090508060000154908060010180546124ee906182c1565b80601f016020809104026020016040519081016040528092919081815260200182805461251a906182c1565b80156125675780601f1061253c57610100808354040283529160200191612567565b820191906000526020600020905b81548152906001019060200180831161254a57829003601f168201915b5050505050908060020160009054906101000a900460ff169080600301805461258f906182c1565b80601f01602080910402602001604051908101604052809291908181526020018280546125bb906182c1565b80156126085780601f106125dd57610100808354040283529160200191612608565b820191906000526020600020905b8154815290600101906020018083116125eb57829003601f168201915b50505050509080600401805461261d906182c1565b80601f0160208091040260200160405190810160405280929190818152602001828054612649906182c1565b80156126965780601f1061266b57610100808354040283529160200191612696565b820191906000526020600020905b81548152906001019060200180831161267957829003601f168201915b5050505050908060050180546126ab906182c1565b80601f01602080910402602001604051908101604052809291908181526020018280546126d7906182c1565b80156127245780601f106126f957610100808354040283529160200191612724565b820191906000526020600020905b81548152906001019060200180831161270757829003601f168201915b5050505050908060060160009054906101000a900473ffffffffffffffffffffffffffffffffffffffff16908060070160009054906101000a900473ffffffffffffffffffffffffffffffffffffffff1690806008018054612785906182c1565b80601f01602080910402602001604051908101604052809291908181526020018280546127b1906182c1565b80156127fe5780601f106127d3576101008083540402835291602001916127fe565b820191906000526020600020905b8154815290600101906020018083116127e157829003601f168201915b505050505090806009018054612813906182c1565b80601f016020809104026020016040519081016040528092919081815260200182805461283f906182c1565b801561288c5780601f106128615761010080835404028352916020019161288c565b820191906000526020600020905b81548152906001019060200180831161286f57829003601f168201915b505050505090508a565b61289e616a0e565b600b60020160008381526020019081526020016000206040518060800160405290816000820160009054906101000a90046fffffffffffffffffffffffffffffffff166fffffffffffffffffffffffffffffffff166fffffffffffffffffffffffffffffffff1681526020016000820160109054906101000a900467ffffffffffffffff1667ffffffffffffffff1667ffffffffffffffff1681526020016000820160189054906101000a900460ff161515151581526020016000820160199054906101000a900460ff1615151515815250509050919050565b80601060008481526020019081526020016000206000820151816000015560208201518160010190816129ab9190618ebc565b5060408201518160020160006101000a81548160ff021916908360078111156129d7576129d6616f66565b5b021790555060608201518160030190816129f19190618ebc565b506080820151816004019081612a079190618fd4565b5060a0820151816005019081612a1d9190618fd4565b5060c08201518160060160006101000a81548173ffffffffffffffffffffffffffffffffffffffff021916908373ffffffffffffffffffffffffffffffffffffffff16021790555060e08201518160070160006101000a81548173ffffffffffffffffffffffffffffffffffffffff021916908373ffffffffffffffffffffffffffffffffffffffff160217905550610100820151816008019081612ac29190618ebc565b50610120820151816009019081612ad99190618ebc565b509050505050565b60007fffffffffffffffffffffffffffffffffffffffffffffffffffffffff7487392754905090565b612b1381614e74565b612b49576040517fb7c3891400000000000000000000000000000000000000000000000000000000815260040160405180910390fd5b3373ffffffffffffffffffffffffffffffffffffffff16612b69826122a4565b73ffffffffffffffffffffffffffffffffffffffff1614158015612bdb5750601260009054906101000a900473ffffffffffffffffffffffffffffffffffffffff1673ffffffffffffffffffffffffffffffffffffffff163373ffffffffffffffffffffffffffffffffffffffff1614155b8015612c315750601560003373ffffffffffffffffffffffffffffffffffffffff1673ffffffffffffffffffffffffffffffffffffffff16815260200190815260200160002060009054906101000a900460ff16155b15612c68576040517f3e79b9f300000000000000000000000000000000000000000000000000000000815260040160405180910390fd5b600060116000838152602001908152602001600020805480602002602001604051908101604052809291908181526020018280548015612cfd57602002820191906000526020600020905b8160009054906101000a900473ffffffffffffffffffffffffffffffffffffffff1673ffffffffffffffffffffffffffffffffffffffff1681526020019060010190808311612cb3575b505050505090506000815103612d135750612db2565b612d1e6000836155dc565b60005b8151811015612d6357612d58612d36846122a4565b838381518110612d4957612d486182f2565b5b60200260200101516000615695565b806001019050612d21565b50601160008381526020019081526020016000206000612d839190616a56565b817fe6727257e6b1474b2ced9b705eafa89027508be445f1a76db669635c92f5242060405160405180910390a2505b50565b606060018054612dc4906182c1565b80601f0160208091040260200160405190810160405280929190818152602001828054612df0906182c1565b8015612e3d5780601f10612e1257610100808354040283529160200191612e3d565b820191906000526020600020905b815481529060010190602001808311612e2057829003601f168201915b5050505050905090565b612e4f614ff7565b6001601460008373ffffffffffffffffffffffffffffffffffffffff1673ffffffffffffffffffffffffffffffffffffffff16815260200190815260200160002060006101000a81548160ff02191690831515021790555050565b60606000612eb783613506565b905060008160200151612eff576040518060400160405280600b81526020017f3c7376673e3c2f7376673e000000000000000000000000000000000000000000815250612f0d565b612f0c8260800151613347565b5b9050600e60009054906101000a900473ffffffffffffffffffffffffffffffffffffffff1673ffffffffffffffffffffffffffffffffffffffff1663a5e11e0585846010600087608001518152602001908152602001600020612f6e612207565b866040518663ffffffff1660e01b8152600401612f8f9594939291906190a6565b600060405180830381865afa158015612fac573d6000803e3d6000fd5b505050506040513d6000823e3d601f19601f82011682018060405250810190612fd59190618be8565b92505050919050565b3373ffffffffffffffffffffffffffffffffffffffff168273ffffffffffffffffffffffffffffffffffffffff160361304c576040517f08c379a00000000000000000000000000000000000000000000000000000000081526004016130439061915d565b60405180910390fd5b600061305733612355565b905060005b818110156133375760006130703383611c41565b905083156131935760006011600083815260200190815260200160002090506000805b8280549050811015613123578773ffffffffffffffffffffffffffffffffffffffff168382815481106130c9576130c86182f2565b5b9060005260206000200160009054906101000a900473ffffffffffffffffffffffffffffffffffffffff1673ffffffffffffffffffffffffffffffffffffffff16036131185760019150613123565b806001019050613093565b508061318c5781879080600181540180825580915050600190039060005260206000200160009091909190916101000a81548173ffffffffffffffffffffffffffffffffffffffff021916908373ffffffffffffffffffffffffffffffffffffffff1602179055505b505061332b565b600060116000838152602001908152602001600020905060005b8180549050811015613328578673ffffffffffffffffffffffffffffffffffffffff168282815481106131e3576131e26182f2565b5b9060005260206000200160009054906101000a900473ffffffffffffffffffffffffffffffffffffffff1673ffffffffffffffffffffffffffffffffffffffff160361331d57816001838054905061323b9190618350565b8154811061324c5761324b6182f2565b5b9060005260206000200160009054906101000a900473ffffffffffffffffffffffffffffffffffffffff1682828154811061328a576132896182f2565b5b9060005260206000200160006101000a81548173ffffffffffffffffffffffffffffffffffffffff021916908373ffffffffffffffffffffffffffffffffffffffff160217905550818054806132e3576132e2618384565b5b6001900381819060005260206000200160006101000a81549073ffffffffffffffffffffffffffffffffffffffff02191690559055613328565b8060010190506131ad565b50505b5080600101905061305c565b506133428383615801565b505050565b6060600e60009054906101000a900473ffffffffffffffffffffffffffffffffffffffff1673ffffffffffffffffffffffffffffffffffffffff16639a4813d8601060008581526020019081526020016000206004016040518263ffffffff1660e01b81526004016133b99190619201565b600060405180830381865afa1580156133d6573d6000803e3d6000fd5b505050506040513d6000823e3d601f19601f820116820180604052508101906133ff9190618be8565b9050919050565b6060600061341383613506565b90506010600082608001518152602001908152602001600020600501805461343a906182c1565b80601f0160208091040260200160405190810160405280929190818152602001828054613466906182c1565b80156134b35780601f10613488576101008083540402835291602001916134b3565b820191906000526020600020905b81548152906001019060200180831161349657829003601f168201915b5050505050915050919050565b60146020528060005260406000206000915054906101000a900460ff1681565b601360009054906101000a900473ffffffffffffffffffffffffffffffffffffffff1681565b61350e6169ae565b6000600b60000160008481526020019081526020016000206040518060c0016040529081600082015481526020016001820160009054906101000a900460ff16151515158152602001600282015481526020016003820160009054906101000a900473ffffffffffffffffffffffffffffffffffffffff1673ffffffffffffffffffffffffffffffffffffffff1673ffffffffffffffffffffffffffffffffffffffff168152602001600482015481526020016005820160009054906101000a900460ff1660078111156135e5576135e4616f66565b5b60078111156135f7576135f6616f66565b5b8152505090506000600b60020160008360000151815260200190815260200160002060000160009054906101000a90046fffffffffffffffffffffffffffffffff169050600082606001519050600073ffffffffffffffffffffffffffffffffffffffff16836060015173ffffffffffffffffffffffffffffffffffffffff16148015613688575060008360400151145b156136ca57846040517f082d451d0000000000000000000000000000000000000000000000000000000081526004016136c19190616f2d565b60405180910390fd5b8073ffffffffffffffffffffffffffffffffffffffff1663d0fad3be601660009054906101000a900460ff1685856040518463ffffffff1660e01b815260040161371693929190619232565b60c060405180830381865afa158015613733573d6000803e3d6000fd5b505050506040513d601f19601f82011682018060405250810190613757919061935e565b9350505050919050565b60156020528060005260406000206000915054906101000a900460ff1681565b61379261378c61502f565b83615037565b6137d1576040517f08c379a00000000000000000000000000000000000000000000000000000000081526004016137c890618696565b60405180910390fd5b6137dd84848484615817565b50505050565b6000600b60010154905090565b601260009054906101000a900473ffffffffffffffffffffffffffffffffffffffff1681565b6060806060600e60009054906101000a900473ffffffffffffffffffffffffffffffffffffffff1673ffffffffffffffffffffffffffffffffffffffff16635ab38bf7853073ffffffffffffffffffffffffffffffffffffffff1663f12719426040518463ffffffff1660e01b815260040161389493929190619519565b600060405180830381865afa1580156138b1573d6000803e3d6000fd5b505050506040513d6000823e3d601f19601f820116820180604052508101906138da919061954b565b9250925092509193909250565b606060006138f483613506565b90508060200151156139145761390d8160800151613347565b915061394d565b6040518060400160405280600b81526020017f3c7376673e3c2f7376673e00000000000000000000000000000000000000000081525091505b50919050565b600e60009054906101000a900473ffffffffffffffffffffffffffffffffffffffff1681565b606061398482614e74565b6139ba576040517fb7c3891400000000000000000000000000000000000000000000000000000000815260040160405180910390fd5b6139c382612eaa565b9050919050565b6139d2614ff7565b6000601560008373ffffffffffffffffffffffffffffffffffffffff1673ffffffffffffffffffffffffffffffffffffffff16815260200190815260200160002060006101000a81548160ff02191690831515021790555050565b613a35616a77565b6000613a4083613506565b905060106000826080015181526020019081526020016000206040518061014001604052908160008201548152602001600182018054613a7f906182c1565b80601f0160208091040260200160405190810160405280929190818152602001828054613aab906182c1565b8015613af85780601f10613acd57610100808354040283529160200191613af8565b820191906000526020600020905b815481529060010190602001808311613adb57829003601f168201915b505050505081526020016002820160009054906101000a900460ff166007811115613b2657613b25616f66565b5b6007811115613b3857613b37616f66565b5b8152602001600382018054613b4c906182c1565b80601f0160208091040260200160405190810160405280929190818152602001828054613b78906182c1565b8015613bc55780601f10613b9a57610100808354040283529160200191613bc5565b820191906000526020600020905b815481529060010190602001808311613ba857829003601f168201915b50505050508152602001600482018054613bde906182c1565b80601f0160208091040260200160405190810160405280929190818152602001828054613c0a906182c1565b8015613c575780601f10613c2c57610100808354040283529160200191613c57565b820191906000526020600020905b815481529060010190602001808311613c3a57829003601f168201915b50505050508152602001600582018054613c70906182c1565b80601f0160208091040260200160405190810160405280929190818152602001828054613c9c906182c1565b8015613ce95780601f10613cbe57610100808354040283529160200191613ce9565b820191906000526020600020905b815481529060010190602001808311613ccc57829003601f168201915b505050505081526020016006820160009054906101000a900473ffffffffffffffffffffffffffffffffffffffff1673ffffffffffffffffffffffffffffffffffffffff1673ffffffffffffffffffffffffffffffffffffffff1681526020016007820160009054906101000a900473ffffffffffffffffffffffffffffffffffffffff1673ffffffffffffffffffffffffffffffffffffffff1673ffffffffffffffffffffffffffffffffffffffff168152602001600882018054613dae906182c1565b80601f0160208091040260200160405190810160405280929190818152602001828054613dda906182c1565b8015613e275780601f10613dfc57610100808354040283529160200191613e27565b820191906000526020600020905b815481529060010190602001808311613e0a57829003601f168201915b50505050508152602001600982018054613e40906182c1565b80601f0160208091040260200160405190810160405280929190818152602001828054613e6c906182c1565b8015613eb95780601f10613e8e57610100808354040283529160200191613eb9565b820191906000526020600020905b815481529060010190602001808311613e9c57829003601f168201915b505050505081525050915050919050565b606080600e60009054906101000a900473ffffffffffffffffffffffffffffffffffffffff1673ffffffffffffffffffffffffffffffffffffffff166338ce9433843073ffffffffffffffffffffffffffffffffffffffff1663e08714a66040518463ffffffff1660e01b8152600401613f4693929190619621565b600060405180830381865afa158015613f63573d6000803e3d6000fd5b505050506040513d6000823e3d601f19601f82011682018060405250810190613f8c9190618ade565b91509150915091565b6060806000613fa386613506565b9050600e60009054906101000a900473ffffffffffffffffffffffffffffffffffffffff1673ffffffffffffffffffffffffffffffffffffffff166329aadc5c8787878560106000886080015181526020019081526020016000206040518663ffffffff1660e01b815260040161401e959493929190619653565b600060405180830381865afa15801561403b573d6000803e3d6000fd5b505050506040513d6000823e3d601f19601f820116820180604052508101906140649190618ade565b9250925050935093915050565b600b8060010154905081565b614085614ff7565b600e60009054906101000a900473ffffffffffffffffffffffffffffffffffffffff1673ffffffffffffffffffffffffffffffffffffffff1663e1defed983836040518363ffffffff1660e01b81526004016140e29291906196bd565b600060405180830381600087803b1580156140fc57600080fd5b505af1158015614110573d6000803e3d6000fd5b505050505050565b60005b81518110156141525761414782828151811061413a576141396182f2565b5b602002602001015161535b565b80600101905061411b565b5050565b60008061416283613506565b90506000601060008360800151815260200190815260200160002060405180610140016040529081600082015481526020016001820180546141a3906182c1565b80601f01602080910402602001604051908101604052809291908181526020018280546141cf906182c1565b801561421c5780601f106141f15761010080835404028352916020019161421c565b820191906000526020600020905b8154815290600101906020018083116141ff57829003601f168201915b505050505081526020016002820160009054906101000a900460ff16600781111561424a57614249616f66565b5b600781111561425c5761425b616f66565b5b8152602001600382018054614270906182c1565b80601f016020809104026020016040519081016040528092919081815260200182805461429c906182c1565b80156142e95780601f106142be576101008083540402835291602001916142e9565b820191906000526020600020905b8154815290600101906020018083116142cc57829003601f168201915b50505050508152602001600482018054614302906182c1565b80601f016020809104026020016040519081016040528092919081815260200182805461432e906182c1565b801561437b5780601f106143505761010080835404028352916020019161437b565b820191906000526020600020905b81548152906001019060200180831161435e57829003601f168201915b50505050508152602001600582018054614394906182c1565b80601f01602080910402602001604051908101604052809291908181526020018280546143c0906182c1565b801561440d5780601f106143e25761010080835404028352916020019161440d565b820191906000526020600020905b8154815290600101906020018083116143f057829003601f168201915b505050505081526020016006820160009054906101000a900473ffffffffffffffffffffffffffffffffffffffff1673ffffffffffffffffffffffffffffffffffffffff1673ffffffffffffffffffffffffffffffffffffffff1681526020016007820160009054906101000a900473ffffffffffffffffffffffffffffffffffffffff1673ffffffffffffffffffffffffffffffffffffffff1673ffffffffffffffffffffffffffffffffffffffff1681526020016008820180546144d2906182c1565b80601f01602080910402602001604051908101604052809291908181526020018280546144fe906182c1565b801561454b5780601f106145205761010080835404028352916020019161454b565b820191906000526020600020905b81548152906001019060200180831161452e57829003601f168201915b50505050508152602001600982018054614564906182c1565b80601f0160208091040260200160405190810160405280929190818152602001828054614590906182c1565b80156145dd5780601f106145b2576101008083540402835291602001916145dd565b820191906000526020600020905b8154815290600101906020018083116145c057829003601f168201915b5050505050815250509050806040015192505050919050565b6000600560008473ffffffffffffffffffffffffffffffffffffffff1673ffffffffffffffffffffffffffffffffffffffff16815260200190815260200160002060008373ffffffffffffffffffffffffffffffffffffffff1673ffffffffffffffffffffffffffffffffffffffff16815260200190815260200160002060009054906101000a900460ff16905092915050565b614692616a77565b6010600083815260200190815260200160002060405180610140016040529081600082015481526020016001820180546146cb906182c1565b80601f01602080910402602001604051908101604052809291908181526020018280546146f7906182c1565b80156147445780601f1061471957610100808354040283529160200191614744565b820191906000526020600020905b81548152906001019060200180831161472757829003601f168201915b505050505081526020016002820160009054906101000a900460ff16600781111561477257614771616f66565b5b600781111561478457614783616f66565b5b8152602001600382018054614798906182c1565b80601f01602080910402602001604051908101604052809291908181526020018280546147c4906182c1565b80156148115780601f106147e657610100808354040283529160200191614811565b820191906000526020600020905b8154815290600101906020018083116147f457829003601f168201915b5050505050815260200160048201805461482a906182c1565b80601f0160208091040260200160405190810160405280929190818152602001828054614856906182c1565b80156148a35780601f10614878576101008083540402835291602001916148a3565b820191906000526020600020905b81548152906001019060200180831161488657829003601f168201915b505050505081526020016005820180546148bc906182c1565b80601f01602080910402602001604051908101604052809291908181526020018280546148e8906182c1565b80156149355780601f1061490a57610100808354040283529160200191614935565b820191906000526020600020905b81548152906001019060200180831161491857829003601f168201915b505050505081526020016006820160009054906101000a900473ffffffffffffffffffffffffffffffffffffffff1673ffffffffffffffffffffffffffffffffffffffff1673ffffffffffffffffffffffffffffffffffffffff1681526020016007820160009054906101000a900473ffffffffffffffffffffffffffffffffffffffff1673ffffffffffffffffffffffffffffffffffffffff1673ffffffffffffffffffffffffffffffffffffffff1681526020016008820180546149fa906182c1565b80601f0160208091040260200160405190810160405280929190818152602001828054614a26906182c1565b8015614a735780601f10614a4857610100808354040283529160200191614a73565b820191906000526020600020905b815481529060010190602001808311614a5657829003601f168201915b50505050508152602001600982018054614a8c906182c1565b80601f0160208091040260200160405190810160405280929190818152602001828054614ab8906182c1565b8015614b055780601f10614ada57610100808354040283529160200191614b05565b820191906000526020600020905b815481529060010190602001808311614ae857829003601f168201915b5050505050815250509050919050565b614b1d614ff7565b63389a75e1600c52806000526020600c208054421115614b4557636f5e88186000526004601cfd5b6000815550614b5381615514565b50565b60608060606000614b6688613506565b9050600e60009054906101000a900473ffffffffffffffffffffffffffffffffffffffff1673ffffffffffffffffffffffffffffffffffffffff1663aeea03e5898989898660106000896080015181526020019081526020016000206040518763ffffffff1660e01b8152600401614be3969594939291906196f4565b600060405180830381865afa158015614c00573d6000803e3d6000fd5b505050506040513d6000823e3d601f19601f82011682018060405250810190614c299190619773565b935093509350509450945094915050565b614c42614ff7565b8060601b614c5857637448fbae6000526004601cfd5b614c6181615514565b50565b614c6c614ff7565b6001601560008373ffffffffffffffffffffffffffffffffffffffff1673ffffffffffffffffffffffffffffffffffffffff16815260200190815260200160002060006101000a81548160ff02191690831515021790555050565b6060806060600e60009054906101000a900473ffffffffffffffffffffffffffffffffffffffff1673ffffffffffffffffffffffffffffffffffffffff1663c08d77748686601060008a6080015181526020019081526020016000206040518463ffffffff1660e01b8152600401614d4193929190618a2f565b600060405180830381865afa158015614d5e573d6000803e3d6000fd5b505050506040513d6000823e3d601f19601f82011682018060405250810190614d87919061954b565b9250925092509250925092565b600063389a75e1600c52816000526020600c20549050919050565b60007f780e9d63000000000000000000000000000000000000000000000000000000007bffffffffffffffffffffffffffffffffffffffffffffffffffffffff1916827bffffffffffffffffffffffffffffffffffffffffffffffffffffffff19161480614e225750614e2182615873565b5b9050919050565b614e3281614e74565b614e71576040517f08c379a0000000000000000000000000000000000000000000000000000000008152600401614e6890618c7d565b60405180910390fd5b50565b60008073ffffffffffffffffffffffffffffffffffffffff166002600084815260200190815260200160002060009054906101000a900473ffffffffffffffffffffffffffffffffffffffff1673ffffffffffffffffffffffffffffffffffffffff1614159050919050565b6000614eeb826122a4565b90508073ffffffffffffffffffffffffffffffffffffffff168373ffffffffffffffffffffffffffffffffffffffff1603614f5b576040517f08c379a0000000000000000000000000000000000000000000000000000000008152600401614f529061988c565b60405180910390fd5b8073ffffffffffffffffffffffffffffffffffffffff16614f7a61502f565b73ffffffffffffffffffffffffffffffffffffffff161480614fa95750614fa881614fa361502f565b6145f6565b5b614fe8576040517f08c379a0000000000000000000000000000000000000000000000000000000008152600401614fdf9061991e565b60405180910390fd5b614ff283836155dc565b505050565b7fffffffffffffffffffffffffffffffffffffffffffffffffffffffff7487392754331461502d576382b429006000526004601cfd5b565b600033905090565b600080615043836122a4565b90508073ffffffffffffffffffffffffffffffffffffffff168473ffffffffffffffffffffffffffffffffffffffff161480615085575061508481856145f6565b5b806150c357508373ffffffffffffffffffffffffffffffffffffffff166150ab84611285565b73ffffffffffffffffffffffffffffffffffffffff16145b91505092915050565b8273ffffffffffffffffffffffffffffffffffffffff166150ec826122a4565b73ffffffffffffffffffffffffffffffffffffffff1614615142576040517f08c379a0000000000000000000000000000000000000000000000000000000008152600401615139906199b0565b60405180910390fd5b600073ffffffffffffffffffffffffffffffffffffffff168273ffffffffffffffffffffffffffffffffffffffff16036151b1576040517f08c379a00000000000000000000000000000000000000000000000000000000081526004016151a890619a42565b60405180910390fd5b6151bc838383615955565b6151c76000826155dc565b6001600360008573ffffffffffffffffffffffffffffffffffffffff1673ffffffffffffffffffffffffffffffffffffffff16815260200190815260200160002060008282546152179190618350565b925050819055506001600360008473ffffffffffffffffffffffffffffffffffffffff1673ffffffffffffffffffffffffffffffffffffffff168152602001908152602001600020600082825461526e919061846c565b92505081905550816002600083815260200190815260200160002060006101000a81548173ffffffffffffffffffffffffffffffffffffffff021916908373ffffffffffffffffffffffffffffffffffffffff160217905550808273ffffffffffffffffffffffffffffffffffffffff168473ffffffffffffffffffffffffffffffffffffffff167fddf252ad1be2c89b69c2b068fc378daa952ba7f163c4a11628f55a4df523b3ef60405160405180910390a461532d838383615c38565b505050565b60006202a300905090565b615357828260405180602001604052806000815250615ebf565b5050565b6000615366826122a4565b905061537481600084615955565b61537f6000836155dc565b6001600360008373ffffffffffffffffffffffffffffffffffffffff1673ffffffffffffffffffffffffffffffffffffffff16815260200190815260200160002060008282546153cf9190618350565b925050819055506002600083815260200190815260200160002060006101000a81549073ffffffffffffffffffffffffffffffffffffffff021916905581600073ffffffffffffffffffffffffffffffffffffffff168273ffffffffffffffffffffffffffffffffffffffff167fddf252ad1be2c89b69c2b068fc378daa952ba7f163c4a11628f55a4df523b3ef60405160405180910390a461547481600084615c38565b5050565b615510828260405160240161548e929190619a62565b6040516020818303038152906040527f9710a9d0000000000000000000000000000000000000000000000000000000007bffffffffffffffffffffffffffffffffffffffffffffffffffffffff19166020820180517bffffffffffffffffffffffffffffffffffffffffffffffffffffffff8381831617835250505050615f1a565b5050565b61551c615f43565b15615582577fffffffffffffffffffffffffffffffffffffffffffffffffffffffff748739278160601b60601c91508181547f8be0079c531659141344cd1fd0a4f28419497f9722a3daafe3b4186f6b6457e0600080a3811560ff1b82178155506155d9565b7fffffffffffffffffffffffffffffffffffffffffffffffffffffffff748739278160601b60601c91508181547f8be0079c531659141344cd1fd0a4f28419497f9722a3daafe3b4186f6b6457e0600080a3818155505b50565b816004600083815260200190815260200160002060006101000a81548173ffffffffffffffffffffffffffffffffffffffff021916908373ffffffffffffffffffffffffffffffffffffffff160217905550808273ffffffffffffffffffffffffffffffffffffffff1661564f836122a4565b73ffffffffffffffffffffffffffffffffffffffff167f8c5be1e5ebec7d5bd14f71427d1e84f3dd0314c0f7b2291e5b200ac8c7c3b92560405160405180910390a45050565b8173ffffffffffffffffffffffffffffffffffffffff168373ffffffffffffffffffffffffffffffffffffffff1603615703576040517f08c379a00000000000000000000000000000000000000000000000000000000081526004016156fa9061915d565b60405180910390fd5b80600560008573ffffffffffffffffffffffffffffffffffffffff1673ffffffffffffffffffffffffffffffffffffffff16815260200190815260200160002060008473ffffffffffffffffffffffffffffffffffffffff1673ffffffffffffffffffffffffffffffffffffffff16815260200190815260200160002060006101000a81548160ff0219169083151502179055508173ffffffffffffffffffffffffffffffffffffffff168373ffffffffffffffffffffffffffffffffffffffff167f17307eab39ab6107e8899845ad3d59bd9653f200f220920489ca2b5937696c31836040516157f49190616d4e565b60405180910390a3505050565b61581361580c61502f565b8383615695565b5050565b6158228484846150cc565b61582e84848484615f48565b61586d576040517f08c379a000000000000000000000000000000000000000000000000000000000815260040161586490619b04565b60405180910390fd5b50505050565b60007f80ac58cd000000000000000000000000000000000000000000000000000000007bffffffffffffffffffffffffffffffffffffffffffffffffffffffff1916827bffffffffffffffffffffffffffffffffffffffffffffffffffffffff1916148061593e57507f5b5e139f000000000000000000000000000000000000000000000000000000007bffffffffffffffffffffffffffffffffffffffffffffffffffffffff1916827bffffffffffffffffffffffffffffffffffffffffffffffffffffffff1916145b8061594e575061594d826160cf565b5b9050919050565b600073ffffffffffffffffffffffffffffffffffffffff168373ffffffffffffffffffffffffffffffffffffffff160361599957615994838383616139565b615c33565b6000601360009054906101000a900473ffffffffffffffffffffffffffffffffffffffff1673ffffffffffffffffffffffffffffffffffffffff16634f6088cd836040518263ffffffff1660e01b81526004016159f69190616f2d565b608060405180830381865afa158015615a13573d6000803e3d6000fd5b505050506040513d601f19601f82011682018060405250810190615a379190619b24565b5050915050600073ffffffffffffffffffffffffffffffffffffffff168173ffffffffffffffffffffffffffffffffffffffff1614615af857601360009054906101000a900473ffffffffffffffffffffffffffffffffffffffff1673ffffffffffffffffffffffffffffffffffffffff163373ffffffffffffffffffffffffffffffffffffffff1614615af7576040517fbf646b0f00000000000000000000000000000000000000000000000000000000815260040160405180910390fd5b5b600073ffffffffffffffffffffffffffffffffffffffff168373ffffffffffffffffffffffffffffffffffffffff1603615b4757615b36828461624b565b615b41848484616139565b50615c33565b6000601260009054906101000a900473ffffffffffffffffffffffffffffffffffffffff1673ffffffffffffffffffffffffffffffffffffffff1663a4bf9a00856040518263ffffffff1660e01b8152600401615ba49190616e2a565b602060405180830381865afa158015615bc1573d6000803e3d6000fd5b505050506040513d601f19601f82011682018060405250810190615be59190619b8b565b03615c1c576040517f9a91700400000000000000000000000000000000000000000000000000000000815260040160405180910390fd5b615c26828461624b565b615c31848484616139565b505b505050565b600073ffffffffffffffffffffffffffffffffffffffff16601260009054906101000a900473ffffffffffffffffffffffffffffffffffffffff1673ffffffffffffffffffffffffffffffffffffffff1603615cc0576040517f2d51864700000000000000000000000000000000000000000000000000000000815260040160405180910390fd5b600073ffffffffffffffffffffffffffffffffffffffff16601360009054906101000a900473ffffffffffffffffffffffffffffffffffffffff1673ffffffffffffffffffffffffffffffffffffffff1603615d48576040517fe0bad1c400000000000000000000000000000000000000000000000000000000815260040160405180910390fd5b600073ffffffffffffffffffffffffffffffffffffffff168373ffffffffffffffffffffffffffffffffffffffff160315615eba576000615d88826122a4565b90506000601260009054906101000a900473ffffffffffffffffffffffffffffffffffffffff1673ffffffffffffffffffffffffffffffffffffffff1663a4bf9a00836040518263ffffffff1660e01b8152600401615de79190616e2a565b602060405180830381865afa158015615e04573d6000803e3d6000fd5b505050506040513d601f19601f82011682018060405250810190615e289190619b8b565b9050601360009054906101000a900473ffffffffffffffffffffffffffffffffffffffff1673ffffffffffffffffffffffffffffffffffffffff166346c627fe826040518263ffffffff1660e01b8152600401615e859190616f2d565b600060405180830381600087803b158015615e9f57600080fd5b505af1158015615eb3573d6000803e3d6000fd5b5050505050505b505050565b615ec983836164a7565b615ed66000848484615f48565b615f15576040517f08c379a0000000000000000000000000000000000000000000000000000000008152600401615f0c90619b04565b60405180910390fd5b505050565b60008151905060006a636f6e736f6c652e6c6f679050602083016000808483855afa5050505050565b600090565b6000615f698473ffffffffffffffffffffffffffffffffffffffff16616680565b156160c2578373ffffffffffffffffffffffffffffffffffffffff1663150b7a02615f9261502f565b8786866040518563ffffffff1660e01b8152600401615fb49493929190619bb8565b6020604051808303816000875af1925050508015615ff057506040513d601f19601f82011682018060405250810190615fed9190619c19565b60015b616072573d8060008114616020576040519150601f19603f3d011682016040523d82523d6000602084013e616025565b606091505b50600081510361606a576040517f08c379a000000000000000000000000000000000000000000000000000000000815260040161606190619b04565b60405180910390fd5b805181602001fd5b63150b7a0260e01b7bffffffffffffffffffffffffffffffffffffffffffffffffffffffff1916817bffffffffffffffffffffffffffffffffffffffffffffffffffffffff1916149150506160c7565b600190505b949350505050565b60007f01ffc9a7000000000000000000000000000000000000000000000000000000007bffffffffffffffffffffffffffffffffffffffffffffffffffffffff1916827bffffffffffffffffffffffffffffffffffffffffffffffffffffffff1916149050919050565b6161448383836166a3565b600073ffffffffffffffffffffffffffffffffffffffff168373ffffffffffffffffffffffffffffffffffffffff160361618657616181816166a8565b6161c5565b8173ffffffffffffffffffffffffffffffffffffffff168373ffffffffffffffffffffffffffffffffffffffff16146161c4576161c383826166f1565b5b5b600073ffffffffffffffffffffffffffffffffffffffff168273ffffffffffffffffffffffffffffffffffffffff1603616207576162028161685e565b616246565b8273ffffffffffffffffffffffffffffffffffffffff168273ffffffffffffffffffffffffffffffffffffffff161461624557616244828261692f565b5b5b505050565b6000616256836122a4565b90506000601260009054906101000a900473ffffffffffffffffffffffffffffffffffffffff1673ffffffffffffffffffffffffffffffffffffffff1663a4bf9a00836040518263ffffffff1660e01b81526004016162b59190616e2a565b602060405180830381865afa1580156162d2573d6000803e3d6000fd5b505050506040513d601f19601f820116820180604052508101906162f69190619b8b565b9050601360009054906101000a900473ffffffffffffffffffffffffffffffffffffffff1673ffffffffffffffffffffffffffffffffffffffff166346c627fe826040518263ffffffff1660e01b81526004016163539190616f2d565b600060405180830381600087803b15801561636d57600080fd5b505af1158015616381573d6000803e3d6000fd5b50505050601360009054906101000a900473ffffffffffffffffffffffffffffffffffffffff1673ffffffffffffffffffffffffffffffffffffffff16632e1d274f856040518263ffffffff1660e01b81526004016163e09190616f2d565b600060405180830381600087803b1580156163fa57600080fd5b505af115801561640e573d6000803e3d6000fd5b50505050601360009054906101000a900473ffffffffffffffffffffffffffffffffffffffff1673ffffffffffffffffffffffffffffffffffffffff16632fbe78f085856040518363ffffffff1660e01b815260040161646f929190619c46565b600060405180830381600087803b15801561648957600080fd5b505af115801561649d573d6000803e3d6000fd5b5050505050505050565b600073ffffffffffffffffffffffffffffffffffffffff168273ffffffffffffffffffffffffffffffffffffffff1603616516576040517f08c379a000000000000000000000000000000000000000000000000000000000815260040161650d90619cbb565b60405180910390fd5b61651f81614e74565b1561655f576040517f08c379a000000000000000000000000000000000000000000000000000000000815260040161655690619d27565b60405180910390fd5b61656b60008383615955565b6001600360008473ffffffffffffffffffffffffffffffffffffffff1673ffffffffffffffffffffffffffffffffffffffff16815260200190815260200160002060008282546165bb919061846c565b92505081905550816002600083815260200190815260200160002060006101000a81548173ffffffffffffffffffffffffffffffffffffffff021916908373ffffffffffffffffffffffffffffffffffffffff160217905550808273ffffffffffffffffffffffffffffffffffffffff16600073ffffffffffffffffffffffffffffffffffffffff167fddf252ad1be2c89b69c2b068fc378daa952ba7f163c4a11628f55a4df523b3ef60405160405180910390a461667c60008383615c38565b5050565b6000808273ffffffffffffffffffffffffffffffffffffffff163b119050919050565b505050565b6008805490506009600083815260200190815260200160002081905550600881908060018154018082558091505060019003906000526020600020016000909190919091505550565b600060016166fe84612355565b6167089190618350565b90506000600760008481526020019081526020016000205490508181146167ed576000600660008673ffffffffffffffffffffffffffffffffffffffff1673ffffffffffffffffffffffffffffffffffffffff168152602001908152602001600020600084815260200190815260200160002054905080600660008773ffffffffffffffffffffffffffffffffffffffff1673ffffffffffffffffffffffffffffffffffffffff168152602001908152602001600020600084815260200190815260200160002081905550816007600083815260200190815260200160002081905550505b6007600084815260200190815260200160002060009055600660008573ffffffffffffffffffffffffffffffffffffffff1673ffffffffffffffffffffffffffffffffffffffff16815260200190815260200160002060008381526020019081526020016000206000905550505050565b600060016008805490506168729190618350565b90506000600960008481526020019081526020016000205490506000600883815481106168a2576168a16182f2565b5b9060005260206000200154905080600883815481106168c4576168c36182f2565b5b90600052602060002001819055508160096000838152602001908152602001600020819055506009600085815260200190815260200160002060009055600880548061691357616912618384565b5b6001900381819060005260206000200160009055905550505050565b600061693a83612355565b905081600660008573ffffffffffffffffffffffffffffffffffffffff1673ffffffffffffffffffffffffffffffffffffffff168152602001908152602001600020600083815260200190815260200160002081905550806007600084815260200190815260200160002081905550505050565b6040518060c001604052806000815260200160001515815260200160008152602001600073ffffffffffffffffffffffffffffffffffffffff1681526020016000815260200160006007811115616a0857616a07616f66565b5b81525090565b604051806080016040528060006fffffffffffffffffffffffffffffffff168152602001600067ffffffffffffffff1681526020016000151581526020016000151581525090565b5080546000825590600052602060002090810190616a749190616b08565b50565b604051806101400160405280600081526020016060815260200160006007811115616aa557616aa4616f66565b5b8152602001606081526020016060815260200160608152602001600073ffffffffffffffffffffffffffffffffffffffff168152602001600073ffffffffffffffffffffffffffffffffffffffff16815260200160608152602001606081525090565b5b80821115616b21576000816000905550600101616b09565b5090565b6000604051905090565b600080fd5b600080fd5b6000819050919050565b616b4c81616b39565b8114616b5757600080fd5b50565b600081359050616b6981616b43565b92915050565b600060208284031215616b8557616b84616b2f565b5b6000616b9384828501616b5a565b91505092915050565b600081519050919050565b600082825260208201905092915050565b6000819050602082019050919050565b600073ffffffffffffffffffffffffffffffffffffffff82169050919050565b6000616bf382616bc8565b9050919050565b616c0381616be8565b82525050565b6000616c158383616bfa565b60208301905092915050565b6000602082019050919050565b6000616c3982616b9c565b616c438185616ba7565b9350616c4e83616bb8565b8060005b83811015616c7f578151616c668882616c09565b9750616c7183616c21565b925050600181019050616c52565b5085935050505092915050565b60006020820190508181036000830152616ca68184616c2e565b905092915050565b60007fffffffff0000000000000000000000000000000000000000000000000000000082169050919050565b616ce381616cae565b8114616cee57600080fd5b50565b600081359050616d0081616cda565b92915050565b600060208284031215616d1c57616d1b616b2f565b5b6000616d2a84828501616cf1565b91505092915050565b60008115159050919050565b616d4881616d33565b82525050565b6000602082019050616d636000830184616d3f565b92915050565b600081519050919050565b600082825260208201905092915050565b60005b83811015616da3578082015181840152602081019050616d88565b60008484015250505050565b6000601f19601f8301169050919050565b6000616dcb82616d69565b616dd58185616d74565b9350616de5818560208601616d85565b616dee81616daf565b840191505092915050565b60006020820190508181036000830152616e138184616dc0565b905092915050565b616e2481616be8565b82525050565b6000602082019050616e3f6000830184616e1b565b92915050565b616e4e81616be8565b8114616e5957600080fd5b50565b600081359050616e6b81616e45565b92915050565b60008060408385031215616e8857616e87616b2f565b5b6000616e9685828601616e5c565b9250506020616ea785828601616b5a565b9150509250929050565b60008060408385031215616ec857616ec7616b2f565b5b6000616ed685828601616b5a565b9250506020616ee785828601616b5a565b9150509250929050565b600060208284031215616f0757616f06616b2f565b5b6000616f1584828501616e5c565b91505092915050565b616f2781616b39565b82525050565b6000602082019050616f426000830184616f1e565b92915050565b616f5181616b39565b82525050565b616f6081616d33565b82525050565b7f4e487b7100000000000000000000000000000000000000000000000000000000600052602160045260246000fd5b60088110616fa657616fa5616f66565b5b50565b6000819050616fb782616f95565b919050565b6000616fc782616fa9565b9050919050565b616fd781616fbc565b82525050565b60c082016000820151616ff36000850182616f48565b5060208201516170066020850182616f57565b5060408201516170196040850182616f48565b50606082015161702c6060850182616bfa565b50608082015161703f6080850182616f48565b5060a082015161705260a0850182616fce565b50505050565b600060c08201905061706d6000830184616fdd565b92915050565b600080fd5b600080fd5b7f4e487b7100000000000000000000000000000000000000000000000000000000600052604160045260246000fd5b6170b582616daf565b810181811067ffffffffffffffff821117156170d4576170d361707d565b5b80604052505050565b60006170e7616b25565b90506170f382826170ac565b919050565b600067ffffffffffffffff8211156171135761711261707d565b5b61711c82616daf565b9050602081019050919050565b82818337600083830152505050565b600061714b617146846170f8565b6170dd565b90508281526020810184848401111561716757617166617078565b5b617172848285617129565b509392505050565b600082601f83011261718f5761718e617073565b5b813561719f848260208601617138565b91505092915050565b6000602082840312156171be576171bd616b2f565b5b600082013567ffffffffffffffff8111156171dc576171db616b34565b5b6171e88482850161717a565b91505092915050565b600081519050919050565b600082825260208201905092915050565b6000617218826171f1565b61722281856171fc565b9350617232818560208601616d85565b61723b81616daf565b840191505092915050565b60006020820190508181036000830152617260818461720d565b905092915050565b60008060006060848603121561728157617280616b2f565b5b600061728f86828701616e5c565b93505060206172a086828701616e5c565b92505060406172b186828701616b5a565b9150509250925092565b600080fd5b600080fd5b6172ce81616d33565b81146172d957600080fd5b50565b6000813590506172eb816172c5565b92915050565b600881106172fe57600080fd5b50565b600081359050617310816172f1565b92915050565b600060c0828403121561732c5761732b6172bb565b5b61733660c06170dd565b9050600061734684828501616b5a565b600083015250602061735a848285016172dc565b602083015250604061736e84828501616b5a565b604083015250606061738284828501616e5c565b606083015250608061739684828501616b5a565b60808301525060a06173aa84828501617301565b60a08301525092915050565b60008060e083850312156173cd576173cc616b2f565b5b60006173db85828601617316565b92505060c06173ec85828601616b5a565b9150509250929050565b600060408201905081810360008301526174108185616dc0565b905081810360208301526174248184616dc0565b90509392505050565b60008060e0838503121561744457617443616b2f565b5b600061745285828601616b5a565b925050602061746385828601617316565b9150509250929050565b600081519050919050565b600082825260208201905092915050565b6000819050602082019050919050565b60006174a58383616f48565b60208301905092915050565b6000602082019050919050565b60006174c98261746d565b6174d38185617478565b93506174de83617489565b8060005b8381101561750f5781516174f68882617499565b9750617501836174b1565b9250506001810190506174e2565b5085935050505092915050565b6000602082019050818103600083015261753681846174be565b905092915050565b61754781616fbc565b82525050565b600061014082019050617563600083018d616f1e565b8181036020830152617575818c616dc0565b9050617584604083018b61753e565b8181036060830152617596818a616dc0565b905081810360808301526175aa818961720d565b905081810360a08301526175be818861720d565b90506175cd60c0830187616e1b565b6175da60e0830186616e1b565b8181036101008301526175ed8185616dc0565b90508181036101208301526176028184616dc0565b90509b9a5050505050505050505050565b60006fffffffffffffffffffffffffffffffff82169050919050565b61763881617613565b82525050565b600067ffffffffffffffff82169050919050565b61765b8161763e565b82525050565b608082016000820151617677600085018261762f565b50602082015161768a6020850182617652565b50604082015161769d6040850182616f57565b5060608201516176b06060850182616f57565b50505050565b60006080820190506176cb6000830184617661565b92915050565b600067ffffffffffffffff8211156176ec576176eb61707d565b5b6176f582616daf565b9050602081019050919050565b6000617715617710846176d1565b6170dd565b90508281526020810184848401111561773157617730617078565b5b61773c848285617129565b509392505050565b600082601f83011261775957617758617073565b5b8135617769848260208601617702565b91505092915050565b60006101408284031215617789576177886172bb565b5b6177946101406170dd565b905060006177a484828501616b5a565b600083015250602082013567ffffffffffffffff8111156177c8576177c76172c0565b5b6177d484828501617744565b60208301525060406177e884828501617301565b604083015250606082013567ffffffffffffffff81111561780c5761780b6172c0565b5b61781884828501617744565b606083015250608082013567ffffffffffffffff81111561783c5761783b6172c0565b5b6178488482850161717a565b60808301525060a082013567ffffffffffffffff81111561786c5761786b6172c0565b5b6178788482850161717a565b60a08301525060c061788c84828501616e5c565b60c08301525060e06178a084828501616e5c565b60e08301525061010082013567ffffffffffffffff8111156178c5576178c46172c0565b5b6178d184828501617744565b6101008301525061012082013567ffffffffffffffff8111156178f7576178f66172c0565b5b61790384828501617744565b6101208301525092915050565b6000806040838503121561792757617926616b2f565b5b600061793585828601616b5a565b925050602083013567ffffffffffffffff81111561795657617955616b34565b5b61796285828601617772565b9150509250929050565b6000806040838503121561798357617982616b2f565b5b600061799185828601616e5c565b92505060206179a2858286016172dc565b9150509250929050565b6000819050919050565b60006179d16179cc6179c784616bc8565b6179ac565b616bc8565b9050919050565b60006179e3826179b6565b9050919050565b60006179f5826179d8565b9050919050565b617a05816179ea565b82525050565b6000602082019050617a2060008301846179fc565b92915050565b60008060008060808587031215617a4057617a3f616b2f565b5b6000617a4e87828801616e5c565b9450506020617a5f87828801616e5c565b9350506040617a7087828801616b5a565b925050606085013567ffffffffffffffff811115617a9157617a90616b34565b5b617a9d8782880161717a565b91505092959194509250565b6000617ab4826179d8565b9050919050565b617ac481617aa9565b82525050565b6000602082019050617adf6000830184617abb565b92915050565b600063ffffffff82169050919050565b617afe81617ae5565b8114617b0957600080fd5b50565b600081359050617b1b81617af5565b92915050565b600060ff82169050919050565b617b3781617b21565b8114617b4257600080fd5b50565b600081359050617b5481617b2e565b92915050565b60006101808284031215617b7157617b706172bb565b5b617b7c6101806170dd565b90506000617b8c84828501616b5a565b6000830152506020617ba084828501616b5a565b6020830152506040617bb484828501616b5a565b6040830152506060617bc884828501616b5a565b6060830152506080617bdc84828501616b5a565b60808301525060a0617bf084828501616b5a565b60a08301525060c0617c0484828501616b5a565b60c08301525060e0617c1884828501617b0c565b60e083015250610100617c2d84828501616b5a565b61010083015250610120617c4384828501617b45565b6101208301525061014082013567ffffffffffffffff811115617c6957617c686172c0565b5b617c7584828501617744565b61014083015250610160617c8b848285016172dc565b6101608301525092915050565b600060208284031215617cae57617cad616b2f565b5b600082013567ffffffffffffffff811115617ccc57617ccb616b34565b5b617cd884828501617b5a565b91505092915050565b60006060820190508181036000830152617cfb8186616dc0565b90508181036020830152617d0f818561720d565b90508181036040830152617d238184616dc0565b9050949350505050565b6000617d38826179d8565b9050919050565b617d4881617d2d565b82525050565b6000602082019050617d636000830184617d3f565b92915050565b600082825260208201905092915050565b6000617d8582616d69565b617d8f8185617d69565b9350617d9f818560208601616d85565b617da881616daf565b840191505092915050565b600082825260208201905092915050565b6000617dcf826171f1565b617dd98185617db3565b9350617de9818560208601616d85565b617df281616daf565b840191505092915050565b600061014083016000830151617e166000860182616f48565b5060208301518482036020860152617e2e8282617d7a565b9150506040830151617e436040860182616fce565b5060608301518482036060860152617e5b8282617d7a565b91505060808301518482036080860152617e758282617dc4565b91505060a083015184820360a0860152617e8f8282617dc4565b91505060c0830151617ea460c0860182616bfa565b5060e0830151617eb760e0860182616bfa565b50610100830151848203610100860152617ed18282617d7a565b915050610120830151848203610120860152617eed8282617d7a565b9150508091505092915050565b60006020820190508181036000830152617f148184617dfd565b905092915050565b600080600060608486031215617f3557617f34616b2f565b5b6000617f4386828701616b5a565b935050602084013567ffffffffffffffff811115617f6457617f63616b34565b5b617f7086828701617744565b925050604084013567ffffffffffffffff811115617f9157617f90616b34565b5b617f9d86828701617744565b9150509250925092565b60008060408385031215617fbe57617fbd616b2f565b5b600083013567ffffffffffffffff811115617fdc57617fdb616b34565b5b617fe88582860161717a565b925050602083013567ffffffffffffffff81111561800957618008616b34565b5b6180158582860161717a565b9150509250929050565b600067ffffffffffffffff82111561803a5761803961707d565b5b602082029050602081019050919050565b600080fd5b600061806361805e8461801f565b6170dd565b905080838252602082019050602084028301858111156180865761808561804b565b5b835b818110156180af578061809b8882616b5a565b845260208401935050602081019050618088565b5050509392505050565b600082601f8301126180ce576180cd617073565b5b81356180de848260208601618050565b91505092915050565b6000602082840312156180fd576180fc616b2f565b5b600082013567ffffffffffffffff81111561811b5761811a616b34565b5b618127848285016180b9565b91505092915050565b6000602082019050618145600083018461753e565b92915050565b6000806040838503121561816257618161616b2f565b5b600061817085828601616e5c565b925050602061818185828601616e5c565b9150509250929050565b600080600080608085870312156181a5576181a4616b2f565b5b60006181b387828801616b5a565b945050602085013567ffffffffffffffff8111156181d4576181d3616b34565b5b6181e087828801617744565b935050604085013567ffffffffffffffff81111561820157618200616b34565b5b61820d87828801617744565b925050606085013567ffffffffffffffff81111561822e5761822d616b34565b5b61823a8782880161717a565b91505092959194509250565b600060608201905081810360008301526182608186616dc0565b905081810360208301526182748185616dc0565b90508181036040830152618288818461720d565b9050949350505050565b7f4e487b7100000000000000000000000000000000000000000000000000000000600052602260045260246000fd5b600060028204905060018216806182d957607f821691505b6020821081036182ec576182eb618292565b5b50919050565b7f4e487b7100000000000000000000000000000000000000000000000000000000600052603260045260246000fd5b7f4e487b7100000000000000000000000000000000000000000000000000000000600052601160045260246000fd5b600061835b82616b39565b915061836683616b39565b925082820390508181111561837e5761837d618321565b5b92915050565b7f4e487b7100000000000000000000000000000000000000000000000000000000600052603160045260246000fd5b60006183c66183c1846170f8565b6170dd565b9050828152602081018484840111156183e2576183e1617078565b5b6183ed848285616d85565b509392505050565b600082601f83011261840a57618409617073565b5b815161841a8482602086016183b3565b91505092915050565b60006020828403121561843957618438616b2f565b5b600082015167ffffffffffffffff81111561845757618456616b34565b5b618463848285016183f5565b91505092915050565b600061847782616b39565b915061848283616b39565b925082820190508082111561849a57618499618321565b5b92915050565b6000819050919050565b6000819050919050565b6184c56184c0826184a0565b6184aa565b82525050565b6000819050919050565b6184e66184e182616b39565b6184cb565b82525050565b60006184f882856184b4565b60208201915061850882846184d5565b6020820191508190509392505050565b7f4e487b7100000000000000000000000000000000000000000000000000000000600052601260045260246000fd5b600061855282616b39565b915061855d83616b39565b92508261856d5761856c618518565b5b828206905092915050565b6000819050919050565b600061859d61859861859384618578565b6179ac565b616b39565b9050919050565b6185ad81618582565b82525050565b60006040820190506185c860008301856185a4565b6185d56020830184616f1e565b9392505050565b60006185e782616b39565b91507fffffffffffffffffffffffffffffffffffffffffffffffffffffffffffffffff820361861957618618618321565b5b600182019050919050565b7f4552433732313a2063616c6c6572206973206e6f7420746f6b656e206f776e6560008201527f72206e6f7220617070726f766564000000000000000000000000000000000000602082015250565b6000618680602e83616d74565b915061868b82618624565b604082019050919050565b600060208201905081810360008301526186af81618673565b9050919050565b7f455243373231456e756d657261626c653a206f776e657220696e646578206f7560008201527f74206f6620626f756e6473000000000000000000000000000000000000000000602082015250565b6000618712602b83616d74565b915061871d826186b6565b604082019050919050565b6000602082019050818103600083015261874181618705565b9050919050565b60008160001c9050919050565b6000819050919050565b600061877261876d83618748565b618755565b9050919050565b60008190508160005260206000209050919050565b6000815461879b816182c1565b6187a58186617d69565b945060018216600081146187c057600181146187d657618809565b60ff198316865281151560200286019350618809565b6187df85618779565b60005b83811015618801578154818901526001820191506020810190506187e2565b808801955050505b50505092915050565b600060ff82169050919050565b600061883261882d83618748565b618812565b9050919050565b60008190508160005260206000209050919050565b6000815461885b816182c1565b6188658186617db3565b945060018216600081146188805760018114618896576188c9565b60ff1983168652811515602002860193506188c9565b61889f85618839565b60005b838110156188c1578154818901526001820191506020810190506188a2565b808801955050505b50505092915050565b600073ffffffffffffffffffffffffffffffffffffffff82169050919050565b600061890561890083618748565b6188d2565b9050919050565b6000610140830160008084015490506189248161875f565b6189316000870182616f48565b50600184018583036020870152618948838261878e565b9250506002840154905061895b8161881f565b6189686040870182616fce565b5060038401858303606087015261897f838261878e565b925050600484018583036080870152618998838261884e565b9250506005840185830360a08701526189b1838261884e565b925050600684015490506189c4816188f2565b6189d160c0870182616bfa565b50600784015490506189e2816188f2565b6189ef60e0870182616bfa565b5060088401858303610100870152618a07838261878e565b92505060098401858303610120870152618a21838261878e565b925050819250505092915050565b600061010082019050618a456000830186616fdd565b618a5260c0830185616f1e565b81810360e0830152618a64818461890c565b9050949350505050565b6000618a81618a7c846176d1565b6170dd565b905082815260208101848484011115618a9d57618a9c617078565b5b618aa8848285616d85565b509392505050565b600082601f830112618ac557618ac4617073565b5b8151618ad5848260208601618a6e565b91505092915050565b60008060408385031215618af557618af4616b2f565b5b600083015167ffffffffffffffff811115618b1357618b12616b34565b5b618b1f85828601618ab0565b925050602083015167ffffffffffffffff811115618b4057618b3f616b34565b5b618b4c85828601618ab0565b9150509250929050565b7f455243373231456e756d657261626c653a20676c6f62616c20696e646578206f60008201527f7574206f6620626f756e64730000000000000000000000000000000000000000602082015250565b6000618bb2602c83616d74565b9150618bbd82618b56565b604082019050919050565b60006020820190508181036000830152618be181618ba5565b9050919050565b600060208284031215618bfe57618bfd616b2f565b5b600082015167ffffffffffffffff811115618c1c57618c1b616b34565b5b618c2884828501618ab0565b91505092915050565b7f4552433732313a20696e76616c696420746f6b656e2049440000000000000000600082015250565b6000618c67601883616d74565b9150618c7282618c31565b602082019050919050565b60006020820190508181036000830152618c9681618c5a565b9050919050565b7f4552433732313a2061646472657373207a65726f206973206e6f74206120766160008201527f6c6964206f776e65720000000000000000000000000000000000000000000000602082015250565b6000618cf9602983616d74565b9150618d0482618c9d565b604082019050919050565b60006020820190508181036000830152618d2881618cec565b9050919050565b60006020601f8301049050919050565b600082821b905092915050565b600060088302618d7c7fffffffffffffffffffffffffffffffffffffffffffffffffffffffffffffffff82618d3f565b618d868683618d3f565b95508019841693508086168417925050509392505050565b6000618db9618db4618daf84616b39565b6179ac565b616b39565b9050919050565b6000819050919050565b618dd383618d9e565b618de7618ddf82618dc0565b848454618d4c565b825550505050565b600090565b618dfc618def565b618e07818484618dca565b505050565b5b81811015618e2b57618e20600082618df4565b600181019050618e0d565b5050565b601f821115618e7057618e4181618779565b618e4a84618d2f565b81016020851015618e59578190505b618e6d618e6585618d2f565b830182618e0c565b50505b505050565b600082821c905092915050565b6000618e9360001984600802618e75565b1980831691505092915050565b6000618eac8383618e82565b9150826002028217905092915050565b618ec582616d69565b67ffffffffffffffff811115618ede57618edd61707d565b5b618ee882546182c1565b618ef3828285618e2f565b600060209050601f831160018114618f265760008415618f14578287015190505b618f1e8582618ea0565b865550618f86565b601f198416618f3486618779565b60005b82811015618f5c57848901518255600182019150602085019450602081019050618f37565b86831015618f795784890151618f75601f891682618e82565b8355505b6001600288020188555050505b505050505050565b601f821115618fcf57618fa081618839565b618fa984618d2f565b81016020851015618fb8578190505b618fcc618fc485618d2f565b830182618e0c565b50505b505050565b618fdd826171f1565b67ffffffffffffffff811115618ff657618ff561707d565b5b61900082546182c1565b61900b828285618f8e565b600060209050601f83116001811461903e576000841561902c578287015190505b6190368582618ea0565b86555061909e565b601f19841661904c86618839565b60005b828110156190745784890151825560018201915060208501945060208101905061904f565b86831015619091578489015161908d601f891682618e82565b8355505b6001600288020188555050505b505050505050565b6000610140820190506190bc6000830188616f1e565b6190c96020830187616fdd565b81810360e08301526190db818661890c565b90508181036101008301526190f08185616dc0565b90508181036101208301526191058184616dc0565b90509695505050505050565b7f4552433732313a20617070726f766520746f2063616c6c657200000000000000600082015250565b6000619147601983616d74565b915061915282619111565b602082019050919050565b600060208201905081810360008301526191768161913a565b9050919050565b6000815461918a816182c1565b61919481866171fc565b945060018216600081146191af57600181146191c5576191f8565b60ff1983168652811515602002860193506191f8565b6191ce85618839565b60005b838110156191f0578154818901526001820191506020810190506191d1565b808801955050505b50505092915050565b6000602082019050818103600083015261921b818461917d565b905092915050565b61922c81617613565b82525050565b6000610100820190506192486000830186616d3f565b6192556020830185616fdd565b61926260e0830184619223565b949350505050565b60008151905061927981616b43565b92915050565b60008151905061928e816172c5565b92915050565b6000815190506192a381616e45565b92915050565b6000815190506192b8816172f1565b92915050565b600060c082840312156192d4576192d36172bb565b5b6192de60c06170dd565b905060006192ee8482850161926a565b60008301525060206193028482850161927f565b60208301525060406193168482850161926a565b604083015250606061932a84828501619294565b606083015250608061933e8482850161926a565b60808301525060a0619352848285016192a9565b60a08301525092915050565b600060c0828403121561937457619373616b2f565b5b6000619382848285016192be565b91505092915050565b61939481617ae5565b82525050565b6193a381617b21565b82525050565b6000610180830160008301516193c26000860182616f48565b5060208301516193d56020860182616f48565b5060408301516193e86040860182616f48565b5060608301516193fb6060860182616f48565b50608083015161940e6080860182616f48565b5060a083015161942160a0860182616f48565b5060c083015161943460c0860182616f48565b5060e083015161944760e086018261938b565b5061010083015161945c610100860182616f48565b5061012083015161947161012086018261939a565b5061014083015184820361014086015261948b8282617d7a565b9150506101608301516194a2610160860182616f57565b508091505092915050565b60008160201b9050919050565b60008160401b9050919050565b60006194e263ffffffff84166194dc846194ad565b176194ba565b905092915050565b6000808291508390509250929050565b61950482826194ea565b9250905061951282826194c7565b8352505050565b6000604082019050818103600083015261953381866193a9565b90506195436020830184866194fa565b949350505050565b60008060006060848603121561956457619563616b2f565b5b600084015167ffffffffffffffff81111561958257619581616b34565b5b61958e86828701618ab0565b935050602084015167ffffffffffffffff8111156195af576195ae616b34565b5b6195bb868287016183f5565b925050604084015167ffffffffffffffff8111156195dc576195db616b34565b5b6195e886828701618ab0565b9150509250925092565b6000808291508390509250929050565b61960c82826195f2565b9250905061961a82826194c7565b8352505050565b6000604082019050818103600083015261963b81866193a9565b905061964b602083018486619602565b949350505050565b6000610140820190506196696000830188616f1e565b818103602083015261967b8187616dc0565b9050818103604083015261968f8186616dc0565b905061969e6060830185616fdd565b8181036101208301526196b1818461890c565b90509695505050505050565b600060408201905081810360008301526196d7818561720d565b905081810360208301526196eb818461720d565b90509392505050565b60006101608201905061970a6000830189616f1e565b818103602083015261971c8188616dc0565b905081810360408301526197308187616dc0565b90508181036060830152619744818661720d565b90506197536080830185616fdd565b818103610140830152619766818461890c565b9050979650505050505050565b60008060006060848603121561978c5761978b616b2f565b5b600084015167ffffffffffffffff8111156197aa576197a9616b34565b5b6197b686828701618ab0565b935050602084015167ffffffffffffffff8111156197d7576197d6616b34565b5b6197e386828701618ab0565b925050604084015167ffffffffffffffff81111561980457619803616b34565b5b619810868287016183f5565b9150509250925092565b7f4552433732313a20617070726f76616c20746f2063757272656e74206f776e6560008201527f7200000000000000000000000000000000000000000000000000000000000000602082015250565b6000619876602183616d74565b91506198818261981a565b604082019050919050565b600060208201905081810360008301526198a581619869565b9050919050565b7f4552433732313a20617070726f76652063616c6c6572206973206e6f7420746f60008201527f6b656e206f776e6572206e6f7220617070726f76656420666f7220616c6c0000602082015250565b6000619908603e83616d74565b9150619913826198ac565b604082019050919050565b60006020820190508181036000830152619937816198fb565b9050919050565b7f4552433732313a207472616e736665722066726f6d20696e636f72726563742060008201527f6f776e6572000000000000000000000000000000000000000000000000000000602082015250565b600061999a602583616d74565b91506199a58261993e565b604082019050919050565b600060208201905081810360008301526199c98161998d565b9050919050565b7f4552433732313a207472616e7366657220746f20746865207a65726f2061646460008201527f7265737300000000000000000000000000000000000000000000000000000000602082015250565b6000619a2c602483616d74565b9150619a37826199d0565b604082019050919050565b60006020820190508181036000830152619a5b81619a1f565b9050919050565b60006040820190508181036000830152619a7c8185616dc0565b9050619a8b6020830184616f1e565b9392505050565b7f4552433732313a207472616e7366657220746f206e6f6e20455243373231526560008201527f63656976657220696d706c656d656e7465720000000000000000000000000000602082015250565b6000619aee603283616d74565b9150619af982619a92565b604082019050919050565b60006020820190508181036000830152619b1d81619ae1565b9050919050565b60008060008060808587031215619b3e57619b3d616b2f565b5b6000619b4c8782880161926a565b9450506020619b5d87828801619294565b9350506040619b6e87828801619294565b9250506060619b7f87828801619294565b91505092959194509250565b600060208284031215619ba157619ba0616b2f565b5b6000619baf8482850161926a565b91505092915050565b6000608082019050619bcd6000830187616e1b565b619bda6020830186616e1b565b619be76040830185616f1e565b8181036060830152619bf9818461720d565b905095945050505050565b600081519050619c1381616cda565b92915050565b600060208284031215619c2f57619c2e616b2f565b5b6000619c3d84828501619c04565b91505092915050565b6000604082019050619c5b6000830185616f1e565b619c686020830184616e1b565b9392505050565b7f4552433732313a206d696e7420746f20746865207a65726f2061646472657373600082015250565b6000619ca5602083616d74565b9150619cb082619c6f565b602082019050919050565b60006020820190508181036000830152619cd481619c98565b9050919050565b7f4552433732313a20746f6b656e20616c7265616479206d696e74656400000000600082015250565b6000619d11601c83616d74565b9150619d1c82619cdb565b602082019050919050565b60006020820190508181036000830152619d4081619d04565b905091905056fea26469706673582212202a0251c84bc0e70516fdaba5e9acf20251567530ff25d526843e01bc1db2adcc64736f6c63430008160033608060405234801561001057600080fd5b506146b2806100206000396000f3fe608060405234801561001057600080fd5b50600436106100f55760003560e01c80635c1ef25611610097578063aeea03e511610066578063aeea03e5146102ec578063c08d77741461031e578063e1defed914610350578063e6ab9d5a1461036c576100f5565b80635c1ef2561461023e578063898aa1171461025c5780639a4813d81461028c578063a5e11e05146102bc576100f5565b806338ce9433116100d357806338ce94331461018c57806351dc7189146101bd5780635ab38bf7146101dc5780635bf382591461020e576100f5565b806321b12c23146100fa57806329aadc5c1461012a5780632fbcb97e1461015b575b600080fd5b610114600480360381019061010f91906127af565b61038a565b6040516101219190612877565b60405180910390f35b610144600480360381019061013f9190612c73565b61113a565b604051610152929190612d99565b60405180910390f35b61017560048036038101906101709190612dd0565b6111bc565b604051610183929190612d99565b60405180910390f35b6101a660048036038101906101a191906130be565b6112f2565b6040516101b4929190612d99565b60405180910390f35b6101c5611692565b6040516101d392919061311e565b60405180910390f35b6101f660048036038101906101f191906131b3565b6117b4565b60405161020593929190613213565b60405180910390f35b6102286004803603810190610223919061325f565b611b81565b60405161023591906132a8565b60405180910390f35b610246611bc5565b60405161025391906132a8565b60405180910390f35b610276600480360381019061027191906127af565b611c94565b6040516102839190612877565b60405180910390f35b6102a660048036038101906102a191906127af565b611fb5565b6040516102b391906132a8565b60405180910390f35b6102d660048036038101906102d191906132ca565b611ffa565b6040516102e391906132a8565b60405180910390f35b6103066004803603810190610301919061339c565b612277565b6040516103159392919061349b565b60405180910390f35b61033860048036038101906103339190612dd0565b61232a565b60405161034793929190613213565b60405180910390f35b61036a600480360381019061036591906134e7565b61247c565b005b6103746124a5565b60405161038191906132a8565b60405180910390f35b606060006040518061020001604052806040518060400160405280600181526020017f300000000000000000000000000000000000000000000000000000000000000081525081526020016040518060400160405280600181526020017f310000000000000000000000000000000000000000000000000000000000000081525081526020016040518060400160405280600181526020017f320000000000000000000000000000000000000000000000000000000000000081525081526020016040518060400160405280600181526020017f330000000000000000000000000000000000000000000000000000000000000081525081526020016040518060400160405280600181526020017f340000000000000000000000000000000000000000000000000000000000000081525081526020016040518060400160405280600181526020017f350000000000000000000000000000000000000000000000000000000000000081525081526020016040518060400160405280600181526020017f360000000000000000000000000000000000000000000000000000000000000081525081526020016040518060400160405280600181526020017f370000000000000000000000000000000000000000000000000000000000000081525081526020016040518060400160405280600181526020017f380000000000000000000000000000000000000000000000000000000000000081525081526020016040518060400160405280600181526020017f390000000000000000000000000000000000000000000000000000000000000081525081526020016040518060400160405280600181526020017f610000000000000000000000000000000000000000000000000000000000000081525081526020016040518060400160405280600181526020017f620000000000000000000000000000000000000000000000000000000000000081525081526020016040518060400160405280600181526020017f630000000000000000000000000000000000000000000000000000000000000081525081526020016040518060400160405280600181526020017f640000000000000000000000000000000000000000000000000000000000000081525081526020016040518060400160405280600181526020017f650000000000000000000000000000000000000000000000000000000000000081525081526020016040518060400160405280600181526020017f660000000000000000000000000000000000000000000000000000000000000081525081525090506000604051806103c001604052806040518060400160405280600181526020017f300000000000000000000000000000000000000000000000000000000000000081525081526020016040518060400160405280600181526020017f310000000000000000000000000000000000000000000000000000000000000081525081526020016040518060400160405280600181526020017f320000000000000000000000000000000000000000000000000000000000000081525081526020016040518060400160405280600181526020017f330000000000000000000000000000000000000000000000000000000000000081525081526020016040518060400160405280600181526020017f340000000000000000000000000000000000000000000000000000000000000081525081526020016040518060400160405280600181526020017f350000000000000000000000000000000000000000000000000000000000000081525081526020016040518060400160405280600181526020017f360000000000000000000000000000000000000000000000000000000000000081525081526020016040518060400160405280600181526020017f370000000000000000000000000000000000000000000000000000000000000081525081526020016040518060400160405280600181526020017f380000000000000000000000000000000000000000000000000000000000000081525081526020016040518060400160405280600181526020017f390000000000000000000000000000000000000000000000000000000000000081525081526020016040518060400160405280600281526020017f313000000000000000000000000000000000000000000000000000000000000081525081526020016040518060400160405280600281526020017f313100000000000000000000000000000000000000000000000000000000000081525081526020016040518060400160405280600281526020017f313200000000000000000000000000000000000000000000000000000000000081525081526020016040518060400160405280600281526020017f313300000000000000000000000000000000000000000000000000000000000081525081526020016040518060400160405280600281526020017f313400000000000000000000000000000000000000000000000000000000000081525081526020016040518060400160405280600281526020017f313500000000000000000000000000000000000000000000000000000000000081525081526020016040518060400160405280600281526020017f313600000000000000000000000000000000000000000000000000000000000081525081526020016040518060400160405280600281526020017f313700000000000000000000000000000000000000000000000000000000000081525081526020016040518060400160405280600281526020017f313800000000000000000000000000000000000000000000000000000000000081525081526020016040518060400160405280600281526020017f313900000000000000000000000000000000000000000000000000000000000081525081526020016040518060400160405280600281526020017f323000000000000000000000000000000000000000000000000000000000000081525081526020016040518060400160405280600281526020017f323100000000000000000000000000000000000000000000000000000000000081525081526020016040518060400160405280600281526020017f323200000000000000000000000000000000000000000000000000000000000081525081526020016040518060400160405280600281526020017f323300000000000000000000000000000000000000000000000000000000000081525081526020016040518060400160405280600281526020017f323400000000000000000000000000000000000000000000000000000000000081525081526020016040518060400160405280600281526020017f323500000000000000000000000000000000000000000000000000000000000081525081526020016040518060400160405280600281526020017f323600000000000000000000000000000000000000000000000000000000000081525081526020016040518060400160405280600281526020017f323700000000000000000000000000000000000000000000000000000000000081525081526020016040518060400160405280600281526020017f323800000000000000000000000000000000000000000000000000000000000081525081526020016040518060400160405280600281526020017f3239000000000000000000000000000000000000000000000000000000000000815250815250905060005b61119481101561113257600060f81b858281518110610e6757610e6661355f565b5b602001015160f81c60f81b7effffffffffffffffffffffffffffffffffffffffffffffffffffffffffffff1916111561111e576000601e600583610eab91906135ec565b610eb5919061361d565b90506000601e600584610ec891906135ec565b610ed291906135ec565b9050600085600489600287610ee7919061364e565b81518110610ef857610ef761355f565b5b602001015160f81c60f81b60f81c60ff16901c60ff1660108110610f1f57610f1e61355f565b5b602002015186600f8a600288610f35919061364e565b81518110610f4657610f4561355f565b5b602001015160f81c60f81b60f81c1660ff1660108110610f6957610f6861355f565b5b60200201518760048b600389610f7f919061364e565b81518110610f9057610f8f61355f565b5b602001015160f81c60f81b60f81c60ff16901c60ff1660108110610fb757610fb661355f565b5b602002015188600f8c60038a610fcd919061364e565b81518110610fde57610fdd61355f565b5b602001015160f81c60f81b60f81c1660ff16601081106110015761100061355f565b5b60200201518960048d60048b611017919061364e565b815181106110285761102761355f565b5b602001015160f81c60f81b60f81c60ff16901c60ff166010811061104f5761104e61355f565b5b60200201518a600f8e60048c611065919061364e565b815181106110765761107561355f565b5b602001015160f81c60f81b60f81c1660ff16601081106110995761109861355f565b5b60200201516040516020016110b3969594939291906136be565b6040516020818303038152906040529050868584601e81106110d8576110d761355f565b5b60200201518684601e81106110f0576110ef61355f565b5b6020020151836040516020016111099493929190613882565b60405160208183030381529060405296505050505b60058161112b919061364e565b9050610e45565b505050919050565b60608060608061114b868a876111bc565b80935081925050506000875103611167578093508192506111b0565b878160405160200161117a9291906138ec565b6040516020818303038152906040529350868260405160200161119e929190613936565b60405160208183030381529060405292505b50509550959350505050565b606080846020015180156111d05750600084115b156112795761126373__$4987fe9f4e800c5c4c1535f64ed232842a$__63037d07a285604001516040518263ffffffff1660e01b815260040161121391906139e0565b600060405180830381865af4158015611230573d6000803e3d6000fd5b505050506040513d6000823e3d601f19601f820116820180604052508101906112599190613a6b565b84602001516124c6565b90506112728360800151611fb5565b91506112ea565b6040518060400160405280600281526020017f7b7d00000000000000000000000000000000000000000000000000000000000081525090506040518060400160405280600b81526020017f3c7376673e3c2f7376673e00000000000000000000000000000000000000000081525091505b935093915050565b60608060008560c0015111156113785783838660c0015184846040518463ffffffff1660e01b815260040161132993929190613ac3565b600060405180830381865afa158015611346573d6000803e3d6000fd5b505050506040513d6000823e3d601f19601f8201168201806040525081019061136f9190613b08565b80925081935050505b60008560a0015111156113fb5783838660a0015184846040518463ffffffff1660e01b81526004016113ac93929190613ac3565b600060405180830381865afa1580156113c9573d6000803e3d6000fd5b505050506040513d6000823e3d601f19601f820116820180604052508101906113f29190613b08565b80925081935050505b60008560800151111561147e578383866080015184846040518463ffffffff1660e01b815260040161142f93929190613ac3565b600060405180830381865afa15801561144c573d6000803e3d6000fd5b505050506040513d6000823e3d601f19601f820116820180604052508101906114759190613b08565b80925081935050505b600085604001511115611501578383866040015184846040518463ffffffff1660e01b81526004016114b293929190613ac3565b600060405180830381865afa1580156114cf573d6000803e3d6000fd5b505050506040513d6000823e3d601f19601f820116820180604052508101906114f89190613b08565b80925081935050505b600085602001511115611584578383866020015184846040518463ffffffff1660e01b815260040161153593929190613ac3565b600060405180830381865afa158015611552573d6000803e3d6000fd5b505050506040513d6000823e3d601f19601f8201168201806040525081019061157b9190613b08565b80925081935050505b600085600001511115611607578383866000015184846040518463ffffffff1660e01b81526004016115b893929190613ac3565b600060405180830381865afa1580156115d5573d6000803e3d6000fd5b505050506040513d6000823e3d601f19601f820116820180604052508101906115fe9190613b08565b80925081935050505b60008560600151111561168a578383866060015184846040518463ffffffff1660e01b815260040161163b93929190613ac3565b600060405180830381865afa158015611658573d6000803e3d6000fd5b505050506040513d6000823e3d601f19601f820116820180604052508101906116819190613b08565b80925081935050505b935093915050565b60008060000180546116a390613baf565b80601f01602080910402602001604051908101604052809291908181526020018280546116cf90613baf565b801561171c5780601f106116f15761010080835404028352916020019161171c565b820191906000526020600020905b8154815290600101906020018083116116ff57829003601f168201915b50505050509080600101805461173190613baf565b80601f016020809104026020016040519081016040528092919081815260200182805461175d90613baf565b80156117aa5780601f1061177f576101008083540402835291602001916117aa565b820191906000526020600020905b81548152906001019060200180831161178d57829003601f168201915b5050505050905082565b606080606060008660c0015111156118425784848760c001518584866040518563ffffffff1660e01b81526004016117ef9493929190613be0565b600060405180830381865afa15801561180c573d6000803e3d6000fd5b505050506040513d6000823e3d601f19601f820116820180604052508101906118359190613caa565b8094508193508295505050505b60008660a0015111156118cb5784848760a001518584866040518563ffffffff1660e01b81526004016118789493929190613be0565b600060405180830381865afa158015611895573d6000803e3d6000fd5b505050506040513d6000823e3d601f19601f820116820180604052508101906118be9190613caa565b8094508193508295505050505b60008660800151111561195457848487608001518584866040518563ffffffff1660e01b81526004016119019493929190613be0565b600060405180830381865afa15801561191e573d6000803e3d6000fd5b505050506040513d6000823e3d601f19601f820116820180604052508101906119479190613caa565b8094508193508295505050505b6000866040015111156119dd57848487604001518584866040518563ffffffff1660e01b815260040161198a9493929190613be0565b600060405180830381865afa1580156119a7573d6000803e3d6000fd5b505050506040513d6000823e3d601f19601f820116820180604052508101906119d09190613caa565b8094508193508295505050505b600086602001511115611a6657848487602001518584866040518563ffffffff1660e01b8152600401611a139493929190613be0565b600060405180830381865afa158015611a30573d6000803e3d6000fd5b505050506040513d6000823e3d601f19601f82011682018060405250810190611a599190613caa565b8094508193508295505050505b600086600001511115611aef57848487600001518584866040518563ffffffff1660e01b8152600401611a9c9493929190613be0565b600060405180830381865afa158015611ab9573d6000803e3d6000fd5b505050506040513d6000823e3d601f19601f82011682018060405250810190611ae29190613caa565b8094508193508295505050505b600086606001511115611b7857848487606001518584866040518563ffffffff1660e01b8152600401611b259493929190613be0565b600060405180830381865afa158015611b42573d6000803e3d6000fd5b505050506040513d6000823e3d601f19601f82011682018060405250810190611b6b9190613caa565b8094508193508295505050505b93509350939050565b606060405180610100016040528060d281526020016145ab60d2913982604051602001611baf929190613d77565b6040516020818303038152906040529050919050565b60606000611c5e600080018054611bdb90613baf565b80601f0160208091040260200160405190810160405280929190818152602001828054611c0790613baf565b8015611c545780601f10611c2957610100808354040283529160200191611c54565b820191906000526020600020905b815481529060010190602001808311611c3757829003601f168201915b5050505050611c94565b90506000611c6b8261038a565b905080604051602001611c7e9190613e68565b6040516020818303038152906040529250505090565b6060600082519050600061119467ffffffffffffffff811115611cba57611cb9612684565b5b6040519080825280601f01601f191660200182016040528015611cec5781602001600182028036833780820191505090505b5090506000600583611cfe91906135ec565b905060005b81811015611fa9576000600582611d1a9190613e95565b90506000878281518110611d3157611d3061355f565b5b602001015160f81c60f81b60f81c9050600088600184611d51919061364e565b81518110611d6257611d6161355f565b5b602001015160f81c60f81b60f81c9050600060058360ff16601e8460ff16611d8a9190613e95565b611d94919061364e565b611d9e9190613e95565b9050898481518110611db357611db261355f565b5b602001015160f81c60f81b878281518110611dd157611dd061355f565b5b60200101907effffffffffffffffffffffffffffffffffffffffffffffffffffffffffffff1916908160001a905350896001850181518110611e1657611e1561355f565b5b602001015160f81c60f81b876001830181518110611e3757611e3661355f565b5b60200101907effffffffffffffffffffffffffffffffffffffffffffffffffffffffffffff1916908160001a905350896002850181518110611e7c57611e7b61355f565b5b602001015160f81c60f81b876002830181518110611e9d57611e9c61355f565b5b60200101907effffffffffffffffffffffffffffffffffffffffffffffffffffffffffffff1916908160001a905350896003850181518110611ee257611ee161355f565b5b602001015160f81c60f81b876003830181518110611f0357611f0261355f565b5b60200101907effffffffffffffffffffffffffffffffffffffffffffffffffffffffffffff1916908160001a905350896004850181518110611f4857611f4761355f565b5b602001015160f81c60f81b876004830181518110611f6957611f6861355f565b5b60200101907effffffffffffffffffffffffffffffffffffffffffffffffffffffffffffff1916908160001a905350505050508080600101915050611d03565b50819350505050919050565b60606000611fc283611c94565b90506000611fcf8261038a565b905080604051602001611fe29190613f23565b60405160208183030381529060405292505050919050565b60608060608660200151156121475761209773__$4987fe9f4e800c5c4c1535f64ed232842a$__63037d07a28960a001516040518263ffffffff1660e01b815260040161204791906139e0565b600060405180830381865af4158015612064573d6000803e3d6000fd5b505050506040513d6000823e3d601f19601f8201168201806040525081019061208d9190613a6b565b87602001516124c6565b6120db6040518060400160405280600781526020017f43726561746f72000000000000000000000000000000000000000000000000008152508861010001516124c6565b61211f6040518060400160405280600681526020017f536561736f6e00000000000000000000000000000000000000000000000000008152508961012001516124c6565b60405160200161213193929190613f9c565b60405160208183030381529060405290506121b8565b6040518060400160405280600f81526020017f2261747472696275746573223a5b5d000000000000000000000000000000000081525090506040518060400160405280600b81526020017f3c7376673e3c2f7376673e00000000000000000000000000000000000000000081525093505b6121e285856040516020016121ce9291906138ec565b604051602081830303815290604052611b81565b915060006121ef836124f2565b6040516020016121ff91906140a1565b6040516020818303038152906040529050600061221b8a612507565b838360405160200161222f93929190614190565b6040516020818303038152906040529050612249816124f2565b604051602001612259919061421f565b60405160208183030381529060405294505050505095945050505050565b60608060608060608061228b888d8961232a565b80955081935082945050505060008a51036122ae5781955082945080935061231b565b8a826040516020016122c19291906138ec565b604051602081830303815290604052955089836040516020016122e5929190613936565b60405160208183030381529060405294508881604051602001612309929190614245565b60405160208183030381529060405293505b50505096509650969350505050565b6060806060856020015180156123405750600085115b156123f0576123528460800151611fb5565b92506123e273__$4987fe9f4e800c5c4c1535f64ed232842a$__63037d07a286604001516040518263ffffffff1660e01b815260040161239291906139e0565b600060405180830381865af41580156123af573d6000803e3d6000fd5b505050506040513d6000823e3d601f19601f820116820180604052508101906123d89190613a6b565b85602001516124c6565b90508360a001519150612473565b6040518060400160405280600b81526020017f3c7376673e3c2f7376673e00000000000000000000000000000000000000000081525092506040518060400160405280600281526020017f7b7d00000000000000000000000000000000000000000000000000000000000081525090506040518060200160405280600081525091505b93509350939050565b8160008001908161248d9190614415565b5080600060010190816124a09190614415565b505050565b606060405180610100016040528060d281526020016145ab60d29139905090565b606082826040516020016124db929190614559565b604051602081830303815290604052905092915050565b606061250082600080612558565b9050919050565b60606080604051019050602081016040526000815280600019835b600115612543578184019350600a81066030018453600a8104905080612522575b50828203602084039350808452505050919050565b60608351801561264d576003600282010460021b60405192507f4142434445464748494a4b4c4d4e4f505152535455565758595a616263646566601f526106708515027f6768696a6b6c6d6e6f707172737475767778797a303132333435363738392d5f18603f52602083018181015b60011561261e576003880197508751603f8160121c1651600053603f81600c1c1651600153603f8160061c1651600253603f8116516003536000518352600483019250818310612618575061261e565b506125c8565b6020810160405260038406600204613d3d60f01b81840352808715150290506000818403528084038652505050505b509392505050565b6000604051905090565b600080fd5b600080fd5b600080fd5b600080fd5b6000601f19601f8301169050919050565b7f4e487b7100000000000000000000000000000000000000000000000000000000600052604160045260246000fd5b6126bc82612673565b810181811067ffffffffffffffff821117156126db576126da612684565b5b80604052505050565b60006126ee612655565b90506126fa82826126b3565b919050565b600067ffffffffffffffff82111561271a57612719612684565b5b61272382612673565b9050602081019050919050565b82818337600083830152505050565b600061275261274d846126ff565b6126e4565b90508281526020810184848401111561276e5761276d61266e565b5b612779848285612730565b509392505050565b600082601f83011261279657612795612669565b5b81356127a684826020860161273f565b91505092915050565b6000602082840312156127c5576127c461265f565b5b600082013567ffffffffffffffff8111156127e3576127e2612664565b5b6127ef84828501612781565b91505092915050565b600081519050919050565b600082825260208201905092915050565b60005b83811015612832578082015181840152602081019050612817565b60008484015250505050565b6000612849826127f8565b6128538185612803565b9350612863818560208601612814565b61286c81612673565b840191505092915050565b60006020820190508181036000830152612891818461283e565b905092915050565b6000819050919050565b6128ac81612899565b81146128b757600080fd5b50565b6000813590506128c9816128a3565b92915050565b600067ffffffffffffffff8211156128ea576128e9612684565b5b6128f382612673565b9050602081019050919050565b600061291361290e846128cf565b6126e4565b90508281526020810184848401111561292f5761292e61266e565b5b61293a848285612730565b509392505050565b600082601f83011261295757612956612669565b5b8135612967848260208601612900565b91505092915050565b600080fd5b600080fd5b60008115159050919050565b61298f8161297a565b811461299a57600080fd5b50565b6000813590506129ac81612986565b92915050565b600073ffffffffffffffffffffffffffffffffffffffff82169050919050565b60006129dd826129b2565b9050919050565b6129ed816129d2565b81146129f857600080fd5b50565b600081359050612a0a816129e4565b92915050565b60088110612a1d57600080fd5b50565b600081359050612a2f81612a10565b92915050565b600060c08284031215612a4b57612a4a612970565b5b612a5560c06126e4565b90506000612a65848285016128ba565b6000830152506020612a798482850161299d565b6020830152506040612a8d848285016128ba565b6040830152506060612aa1848285016129fb565b6060830152506080612ab5848285016128ba565b60808301525060a0612ac984828501612a20565b60a08301525092915050565b60006101408284031215612aec57612aeb612970565b5b612af76101406126e4565b90506000612b07848285016128ba565b600083015250602082013567ffffffffffffffff811115612b2b57612b2a612975565b5b612b3784828501612942565b6020830152506040612b4b84828501612a20565b604083015250606082013567ffffffffffffffff811115612b6f57612b6e612975565b5b612b7b84828501612942565b606083015250608082013567ffffffffffffffff811115612b9f57612b9e612975565b5b612bab84828501612781565b60808301525060a082013567ffffffffffffffff811115612bcf57612bce612975565b5b612bdb84828501612781565b60a08301525060c0612bef848285016129fb565b60c08301525060e0612c03848285016129fb565b60e08301525061010082013567ffffffffffffffff811115612c2857612c27612975565b5b612c3484828501612942565b6101008301525061012082013567ffffffffffffffff811115612c5a57612c59612975565b5b612c6684828501612942565b6101208301525092915050565b60008060008060006101408688031215612c9057612c8f61265f565b5b6000612c9e888289016128ba565b955050602086013567ffffffffffffffff811115612cbf57612cbe612664565b5b612ccb88828901612942565b945050604086013567ffffffffffffffff811115612cec57612ceb612664565b5b612cf888828901612942565b9350506060612d0988828901612a35565b92505061012086013567ffffffffffffffff811115612d2b57612d2a612664565b5b612d3788828901612ad5565b9150509295509295909350565b600081519050919050565b600082825260208201905092915050565b6000612d6b82612d44565b612d758185612d4f565b9350612d85818560208601612814565b612d8e81612673565b840191505092915050565b60006040820190508181036000830152612db38185612d60565b90508181036020830152612dc78184612d60565b90509392505050565b60008060006101008486031215612dea57612de961265f565b5b6000612df886828701612a35565b93505060c0612e09868287016128ba565b92505060e084013567ffffffffffffffff811115612e2a57612e29612664565b5b612e3686828701612ad5565b9150509250925092565b600063ffffffff82169050919050565b612e5981612e40565b8114612e6457600080fd5b50565b600081359050612e7681612e50565b92915050565b600060ff82169050919050565b612e9281612e7c565b8114612e9d57600080fd5b50565b600081359050612eaf81612e89565b92915050565b60006101808284031215612ecc57612ecb612970565b5b612ed76101806126e4565b90506000612ee7848285016128ba565b6000830152506020612efb848285016128ba565b6020830152506040612f0f848285016128ba565b6040830152506060612f23848285016128ba565b6060830152506080612f37848285016128ba565b60808301525060a0612f4b848285016128ba565b60a08301525060c0612f5f848285016128ba565b60c08301525060e0612f7384828501612e67565b60e083015250610100612f88848285016128ba565b61010083015250610120612f9e84828501612ea0565b6101208301525061014082013567ffffffffffffffff811115612fc457612fc3612975565b5b612fd084828501612942565b61014083015250610160612fe68482850161299d565b6101608301525092915050565b60007fffffffffffffffffffffffffffffffffffffffffffffffff000000000000000082169050919050565b600061302a82612ff3565b9050919050565b61303a8161301f565b811461304557600080fd5b50565b60008135905061305781613031565b92915050565b60008160201c9050919050565b60008160401c9050919050565b6000806130838361306a565b925063ffffffff831690506130978361305d565b9150915091565b6000806130b36130ae8585613048565b613077565b915091509250929050565b6000806000604084860312156130d7576130d661265f565b5b600084013567ffffffffffffffff8111156130f5576130f4612664565b5b61310186828701612eb5565b93505060206131128682870161309e565b92509250509250925092565b60006040820190508181036000830152613138818561283e565b9050818103602083015261314c818461283e565b90509392505050565b600061316082612ff3565b9050919050565b61317081613155565b811461317b57600080fd5b50565b60008135905061318d81613167565b92915050565b6000806131a86131a3858561317e565b613077565b915091509250929050565b6000806000604084860312156131cc576131cb61265f565b5b600084013567ffffffffffffffff8111156131ea576131e9612664565b5b6131f686828701612eb5565b935050602061320786828701613193565b92509250509250925092565b6000606082019050818103600083015261322d8186612d60565b90508181036020830152613241818561283e565b905081810360408301526132558184612d60565b9050949350505050565b6000602082840312156132755761327461265f565b5b600082013567ffffffffffffffff81111561329357613292612664565b5b61329f84828501612942565b91505092915050565b600060208201905081810360008301526132c28184612d60565b905092915050565b600080600080600061014086880312156132e7576132e661265f565b5b60006132f5888289016128ba565b955050602061330688828901612a35565b94505060e086013567ffffffffffffffff81111561332757613326612664565b5b61333388828901612ad5565b93505061010086013567ffffffffffffffff81111561335557613354612664565b5b61336188828901612942565b92505061012086013567ffffffffffffffff81111561338357613382612664565b5b61338f88828901612942565b9150509295509295909350565b60008060008060008061016087890312156133ba576133b961265f565b5b60006133c889828a016128ba565b965050602087013567ffffffffffffffff8111156133e9576133e8612664565b5b6133f589828a01612942565b955050604087013567ffffffffffffffff81111561341657613415612664565b5b61342289828a01612942565b945050606087013567ffffffffffffffff81111561344357613442612664565b5b61344f89828a01612781565b935050608061346089828a01612a35565b92505061014087013567ffffffffffffffff81111561348257613481612664565b5b61348e89828a01612ad5565b9150509295509295509295565b600060608201905081810360008301526134b58186612d60565b905081810360208301526134c98185612d60565b905081810360408301526134dd818461283e565b9050949350505050565b600080604083850312156134fe576134fd61265f565b5b600083013567ffffffffffffffff81111561351c5761351b612664565b5b61352885828601612781565b925050602083013567ffffffffffffffff81111561354957613548612664565b5b61355585828601612781565b9150509250929050565b7f4e487b7100000000000000000000000000000000000000000000000000000000600052603260045260246000fd5b7f4e487b7100000000000000000000000000000000000000000000000000000000600052601260045260246000fd5b7f4e487b7100000000000000000000000000000000000000000000000000000000600052601160045260246000fd5b60006135f782612899565b915061360283612899565b9250826136125761361161358e565b5b828204905092915050565b600061362882612899565b915061363383612899565b9250826136435761364261358e565b5b828206905092915050565b600061365982612899565b915061366483612899565b925082820190508082111561367c5761367b6135bd565b5b92915050565b600081905092915050565b600061369882612d44565b6136a28185613682565b93506136b2818560208601612814565b80840191505092915050565b60006136ca828961368d565b91506136d6828861368d565b91506136e2828761368d565b91506136ee828661368d565b91506136fa828561368d565b9150613706828461368d565b9150819050979650505050505050565b600081905092915050565b600061372c826127f8565b6137368185613716565b9350613746818560208601612814565b80840191505092915050565b7f3c7265637420783d220000000000000000000000000000000000000000000000600082015250565b6000613788600983613682565b915061379382613752565b600982019050919050565b7f2220793d22000000000000000000000000000000000000000000000000000000600082015250565b60006137d4600583613682565b91506137df8261379e565b600582019050919050565b7f222077696474683d223122206865696768743d2231222066696c6c3d22230000600082015250565b6000613820601e83613682565b915061382b826137ea565b601e82019050919050565b7f222f3e0000000000000000000000000000000000000000000000000000000000600082015250565b600061386c600383613682565b915061387782613836565b600382019050919050565b600061388e8287613721565b91506138998261377b565b91506138a5828661368d565b91506138b0826137c7565b91506138bc828561368d565b91506138c782613813565b91506138d38284613721565b91506138de8261385f565b915081905095945050505050565b60006138f8828561368d565b9150613904828461368d565b91508190509392505050565b7f2c00000000000000000000000000000000000000000000000000000000000000815250565b6000613942828561368d565b915061394d82613910565b60018201915061395d828461368d565b91508190509392505050565b7f4e487b7100000000000000000000000000000000000000000000000000000000600052602160045260246000fd5b600881106139a9576139a8613969565b5b50565b60008190506139ba82613998565b919050565b60006139ca826139ac565b9050919050565b6139da816139bf565b82525050565b60006020820190506139f560008301846139d1565b92915050565b6000613a0e613a09846128cf565b6126e4565b905082815260208101848484011115613a2a57613a2961266e565b5b613a35848285612814565b509392505050565b600082601f830112613a5257613a51612669565b5b8151613a628482602086016139fb565b91505092915050565b600060208284031215613a8157613a8061265f565b5b600082015167ffffffffffffffff811115613a9f57613a9e612664565b5b613aab84828501613a3d565b91505092915050565b613abd81612899565b82525050565b6000606082019050613ad86000830186613ab4565b8181036020830152613aea8185612d60565b90508181036040830152613afe8184612d60565b9050949350505050565b60008060408385031215613b1f57613b1e61265f565b5b600083015167ffffffffffffffff811115613b3d57613b3c612664565b5b613b4985828601613a3d565b925050602083015167ffffffffffffffff811115613b6a57613b69612664565b5b613b7685828601613a3d565b9150509250929050565b7f4e487b7100000000000000000000000000000000000000000000000000000000600052602260045260246000fd5b60006002820490506001821680613bc757607f821691505b602082108103613bda57613bd9613b80565b5b50919050565b6000608082019050613bf56000830187613ab4565b8181036020830152613c078186612d60565b90508181036040830152613c1b8185612d60565b90508181036060830152613c2f818461283e565b905095945050505050565b6000613c4d613c48846126ff565b6126e4565b905082815260208101848484011115613c6957613c6861266e565b5b613c74848285612814565b509392505050565b600082601f830112613c9157613c90612669565b5b8151613ca1848260208601613c3a565b91505092915050565b600080600060608486031215613cc357613cc261265f565b5b600084015167ffffffffffffffff811115613ce157613ce0612664565b5b613ced86828701613a3d565b935050602084015167ffffffffffffffff811115613d0e57613d0d612664565b5b613d1a86828701613a3d565b925050604084015167ffffffffffffffff811115613d3b57613d3a612664565b5b613d4786828701613c7c565b9150509250925092565b7f3c2f7376673e0000000000000000000000000000000000000000000000000000815250565b6000613d83828561368d565b9150613d8f828461368d565b9150613d9a82613d51565b6006820191508190509392505050565b7f3c672069643d2267686f73742220636c6173733d226722207374796c653d226f60008201527f7061636974793a203530253b223e000000000000000000000000000000000000602082015250565b6000613e06602e83613682565b9150613e1182613daa565b602e82019050919050565b7f3c2f673e00000000000000000000000000000000000000000000000000000000600082015250565b6000613e52600483613682565b9150613e5d82613e1c565b600482019050919050565b6000613e7382613df9565b9150613e7f8284613721565b9150613e8a82613e45565b915081905092915050565b6000613ea082612899565b9150613eab83612899565b9250828202613eb981612899565b91508282048414831517613ed057613ecf6135bd565b5b5092915050565b7f3c672069643d225472616974223e000000000000000000000000000000000000600082015250565b6000613f0d600e83613682565b9150613f1882613ed7565b600e82019050919050565b6000613f2e82613f00565b9150613f3a8284613721565b9150613f4582613e45565b915081905092915050565b7f2261747472696275746573223a5b000000000000000000000000000000000000815250565b7f5d00000000000000000000000000000000000000000000000000000000000000815250565b6000613fa782613f50565b600e82019150613fb7828661368d565b9150613fc282613910565b600182019150613fd2828561368d565b9150613fdd82613910565b600182019150613fed828461368d565b9150613ff882613f76565b600182019150819050949350505050565b7f22696d616765223a22646174613a696d6167652f7376672b786d6c3b6261736560008201527f36342c0000000000000000000000000000000000000000000000000000000000602082015250565b6000614065602383613682565b915061407082614009565b602382019050919050565b7f2200000000000000000000000000000000000000000000000000000000000000815250565b60006140ac82614058565b91506140b8828461368d565b91506140c38261407b565b60018201915081905092915050565b7f7b226e616d65223a2243686f6e6b205472616974202300000000000000000000815250565b7f222c226465736372697074696f6e223a2254686973206973206a75737420612060008201527f74657374222c0000000000000000000000000000000000000000000000000000602082015250565b6000614154602683613682565b915061415f826140f8565b602682019050919050565b7f7d00000000000000000000000000000000000000000000000000000000000000815250565b600061419b826140d2565b6016820191506141ab828661368d565b91506141b682614147565b91506141c2828561368d565b91506141cd82613910565b6001820191506141dd828461368d565b91506141e88261416a565b600182019150819050949350505050565b7f646174613a6170706c69636174696f6e2f6a736f6e3b6261736536342c000000815250565b600061422a826141f9565b601d8201915061423a828461368d565b915081905092915050565b60006142518285613721565b915061425d8284613721565b91508190509392505050565b60008190508160005260206000209050919050565b60006020601f8301049050919050565b600082821b905092915050565b6000600883026142cb7fffffffffffffffffffffffffffffffffffffffffffffffffffffffffffffffff8261428e565b6142d5868361428e565b95508019841693508086168417925050509392505050565b6000819050919050565b600061431261430d61430884612899565b6142ed565b612899565b9050919050565b6000819050919050565b61432c836142f7565b61434061433882614319565b84845461429b565b825550505050565b600090565b614355614348565b614360818484614323565b505050565b5b818110156143845761437960008261434d565b600181019050614366565b5050565b601f8211156143c95761439a81614269565b6143a38461427e565b810160208510156143b2578190505b6143c66143be8561427e565b830182614365565b50505b505050565b600082821c905092915050565b60006143ec600019846008026143ce565b1980831691505092915050565b600061440583836143db565b9150826002028217905092915050565b61441e826127f8565b67ffffffffffffffff81111561443757614436612684565b5b6144418254613baf565b61444c828285614388565b600060209050601f83116001811461447f576000841561446d578287015190505b61447785826143f9565b8655506144df565b601f19841661448d86614269565b60005b828110156144b557848901518255600182019150602085019450602081019050614490565b868310156144d257848901516144ce601f8916826143db565b8355505b6001600288020188555050505b505050505050565b7f7b2274726169745f74797065223a220000000000000000000000000000000000815250565b7f222c2276616c7565223a22000000000000000000000000000000000000000000815250565b7f227d000000000000000000000000000000000000000000000000000000000000815250565b6000614564826144e7565b600f82019150614574828561368d565b915061457f8261450d565b600b8201915061458f828461368d565b915061459a82614533565b600282019150819050939250505056fe3c7376672073686170652d72656e646572696e673d2263726973704564676573222076696577426f783d22302030203330203330222066696c6c3d226e6f6e652220786d6c6e733d22687474703a2f2f7777772e77332e6f72672f323030302f737667223e3c7374796c653e726563747b77696474683a3170783b206865696768743a203170783b7d202e62677b77696474683a333070783b206865696768743a20333070783b7d203c2f7374796c653e3c7265637420636c6173733d226267222066696c6c3d2223304436453944222f3ea264697066735822122015b13d5c810f7f2e5634d09d7ec6d495630eb5407723010f41b647638be96fd064736f6c63430008160033","linkReferences":{"src/TraitCategory.sol":{"TraitCategory":[{"start":46532,"length":20},{"start":50168,"length":20},{"start":51011,"length":20}]}}},"methodIdentifiers":{"addApprovedInvalidator(address)":"f677c013","addMinter(address)":"983b2d56","approve(address,uint256)":"095ea7b3","approvedInvalidators(address)":"b3148f75","balanceOf(address)":"70a08231","burn(uint256)":"42966c68","burnBatch(uint256[])":"e4623c1b","callGetSVGZmapAndMetadataTrait(uint256,string,string,bytes)":"f1271942","callGetSvgAndMetadataTrait(uint256,string,string)":"e08714a6","cancelOwnershipHandover()":"54d1f13d","chonksMain()":"ba7270f3","completeOwnershipHandover(address)":"f04e283e","createSvgFromPixels(bytes)":"21b12c23","getApproved(uint256)":"081812fc","getApprovedOperators(uint256)":"00db6348","getCurrentEpoch()":"b97dd9e2","getEpoch()":"757991a8","getEpochData(uint256)":"859e7d32","getGhostSvg()":"5c1ef256","getSVGZmapAndMetadataTrait((uint256,bool,uint256,address,uint256,uint8),uint256)":"f901667f","getStoredTraitForTokenId(uint256)":"208c25a3","getSvgAndMetadata((uint256,uint256,uint256,uint256,uint256,uint256,uint256,uint32,uint256,uint8,string,bool))":"df2c2b88","getSvgAndMetadataTrait((uint256,bool,uint256,address,uint256,uint8),uint256)":"33a70328","getSvgForTokenId(uint256)":"c7791531","getSvgZmapsAndMetadata((uint256,uint256,uint256,uint256,uint256,uint256,uint256,uint32,uint256,uint8,string,bool))":"bb12d21d","getTrait(uint256)":"acb586df","getTraitImageSvg(uint256)":"a5e2912a","getTraitIndexToMetadata(uint256)":"ea139544","getTraitMetadata(uint256)":"d1bfc2af","getTraitType(uint256)":"e8a1268d","getZMapForTokenId(uint256)":"a8498c74","invalidateAllOperatorApprovals(uint256)":"90f63842","isApprovedForAll(address,address)":"e985e9c5","isMinter(address)":"aa271e1a","marketplace()":"abc8c7af","name()":"06fdde03","owner()":"8da5cb5b","ownerOf(uint256)":"6352211e","ownershipHandoverExpiresAt(address)":"fee81cf4","removeApprovedInvalidator(address)":"cde2180a","removeMinter(address)":"3092afd5","renderAsDataUri(uint256)":"a1d62680","renounceOwnership()":"715018a6","requestOwnershipHandover()":"25692962","resolveEpochIfNecessary()":"239ffa68","safeMint(address)":"40d097c3","safeTransferFrom(address,address,uint256)":"42842e0e","safeTransferFrom(address,address,uint256,bytes)":"b88d4fde","setApprovalForAll(address,bool)":"a22cb465","setChonksMain(address)":"713dbc27","setGhostMaps(bytes,bytes)":"e1defed9","setMarketplace(address)":"73ad6c2d","setTraitForTokenId(uint256,(uint256,bool,uint256,address,uint256,uint8))":"36d34ab9","setTraitIndexToMetadata(uint256,(uint256,string,uint8,string,bytes,bytes,address,address,string,string))":"8d37c537","setTraitRenderer(address)":"120def24","signer()":"238ac933","supportsInterface(bytes4)":"01ffc9a7","symbol()":"95d89b41","tokenByIndex(uint256)":"4f6ccce7","tokenOfOwnerByIndex(address,uint256)":"2f745c59","tokenURI(uint256)":"c87b56dd","totalSupply()":"18160ddd","traitIdToApprovedOperators(uint256,uint256)":"11f3910d","traitIndexToMetadata(uint256)":"817a29a4","traitRenderer()":"c876371b","traitTokens()":"e14d026f","transferFrom(address,address,uint256)":"23b872dd","transferOwnership(address)":"f2fde38b","walletOfOwner(address)":"438b6300"},"id":56}