{"abi":[{"type":"constructor","inputs":[{"name":"localDeploy_","type":"bool","internalType":"bool"}],"stateMutability":"nonpayable"},{"type":"function","name":"_debugPostConstructorMint","inputs":[],"outputs":[],"stateMutability":"nonpayable"},{"type":"function","name":"_nextTokenId","inputs":[],"outputs":[{"name":"","type":"uint256","internalType":"uint256"}],"stateMutability":"view"},{"type":"function","name":"addNewBody","inputs":[{"name":"_bodyIndex","type":"uint256","internalType":"uint256"},{"name":"_bodyName","type":"string","internalType":"string"},{"name":"_colorMap","type":"bytes","internalType":"bytes"},{"name":"_zMap","type":"bytes","internalType":"bytes"}],"outputs":[],"stateMutability":"nonpayable"},{"type":"function","name":"approve","inputs":[{"name":"to","type":"address","internalType":"address"},{"name":"tokenId","type":"uint256","internalType":"uint256"}],"outputs":[],"stateMutability":"nonpayable"},{"type":"function","name":"balanceOf","inputs":[{"name":"owner","type":"address","internalType":"address"}],"outputs":[{"name":"","type":"uint256","internalType":"uint256"}],"stateMutability":"view"},{"type":"function","name":"bodyIndexToMetadata","inputs":[{"name":"","type":"uint256","internalType":"uint256"}],"outputs":[{"name":"bodyIndex","type":"uint256","internalType":"uint256"},{"name":"bodyName","type":"string","internalType":"string"},{"name":"colorMap","type":"bytes","internalType":"bytes"},{"name":"zMap","type":"bytes","internalType":"bytes"}],"stateMutability":"view"},{"type":"function","name":"cancelOwnershipHandover","inputs":[],"outputs":[],"stateMutability":"payable"},{"type":"function","name":"checkIfTraitIsEquipped","inputs":[{"name":"_chonkId","type":"uint256","internalType":"uint256"},{"name":"_traitId","type":"uint256","internalType":"uint256"}],"outputs":[{"name":"","type":"bool","internalType":"bool"}],"stateMutability":"view"},{"type":"function","name":"chonkIdToApprovedOperators","inputs":[{"name":"chonkId","type":"uint256","internalType":"uint256"},{"name":"","type":"uint256","internalType":"uint256"}],"outputs":[{"name":"operators","type":"address","internalType":"address"}],"stateMutability":"view"},{"type":"function","name":"completeOwnershipHandover","inputs":[{"name":"pendingOwner","type":"address","internalType":"address"}],"outputs":[],"stateMutability":"payable"},{"type":"function","name":"equip","inputs":[{"name":"_peterTokenId","type":"uint256","internalType":"uint256"},{"name":"_traitTokenId","type":"uint256","internalType":"uint256"}],"outputs":[],"stateMutability":"nonpayable"},{"type":"function","name":"equipAll","inputs":[{"name":"_peterTokenId","type":"uint256","internalType":"uint256"},{"name":"_headTokenId","type":"uint256","internalType":"uint256"},{"name":"_hairTokenId","type":"uint256","internalType":"uint256"},{"name":"_faceTokenId","type":"uint256","internalType":"uint256"},{"name":"_accessoryTokenId","type":"uint256","internalType":"uint256"},{"name":"_topTokenId","type":"uint256","internalType":"uint256"},{"name":"_bottomTokenId","type":"uint256","internalType":"uint256"},{"name":"_shoesTokenId","type":"uint256","internalType":"uint256"}],"outputs":[],"stateMutability":"nonpayable"},{"type":"function","name":"firstSeasonRenderMinter","inputs":[],"outputs":[{"name":"","type":"address","internalType":"contract FirstSeasonRenderMinter"}],"stateMutability":"view"},{"type":"function","name":"getApproved","inputs":[{"name":"tokenId","type":"uint256","internalType":"uint256"}],"outputs":[{"name":"","type":"address","internalType":"address"}],"stateMutability":"view"},{"type":"function","name":"getBackpackSVGs","inputs":[{"name":"_tokenId","type":"uint256","internalType":"uint256"}],"outputs":[{"name":"","type":"string","internalType":"string"}],"stateMutability":"view"},{"type":"function","name":"getBodyImageSvg","inputs":[{"name":"_index","type":"uint256","internalType":"uint256"}],"outputs":[{"name":"svg","type":"string","internalType":"string"}],"stateMutability":"view"},{"type":"function","name":"getBodySVGZmapsAndMetadata","inputs":[{"name":"storedPeter","type":"tuple","internalType":"struct IPeterStorage.StoredPeter","components":[{"name":"headId","type":"uint256","internalType":"uint256"},{"name":"hairId","type":"uint256","internalType":"uint256"},{"name":"faceId","type":"uint256","internalType":"uint256"},{"name":"accessoryId","type":"uint256","internalType":"uint256"},{"name":"topId","type":"uint256","internalType":"uint256"},{"name":"bottomId","type":"uint256","internalType":"uint256"},{"name":"shoesId","type":"uint256","internalType":"uint256"},{"name":"epoch","type":"uint32","internalType":"uint32"},{"name":"tokenId","type":"uint256","internalType":"uint256"},{"name":"bodyIndex","type":"uint8","internalType":"uint8"},{"name":"backgroundColor","type":"string","internalType":"string"},{"name":"render3D","type":"bool","internalType":"bool"}]}],"outputs":[{"name":"","type":"string","internalType":"string"},{"name":"","type":"bytes","internalType":"bytes"},{"name":"","type":"string","internalType":"string"}],"stateMutability":"view"},{"type":"function","name":"getBodySvgAndMetadata","inputs":[{"name":"storedPeter","type":"tuple","internalType":"struct IPeterStorage.StoredPeter","components":[{"name":"headId","type":"uint256","internalType":"uint256"},{"name":"hairId","type":"uint256","internalType":"uint256"},{"name":"faceId","type":"uint256","internalType":"uint256"},{"name":"accessoryId","type":"uint256","internalType":"uint256"},{"name":"topId","type":"uint256","internalType":"uint256"},{"name":"bottomId","type":"uint256","internalType":"uint256"},{"name":"shoesId","type":"uint256","internalType":"uint256"},{"name":"epoch","type":"uint32","internalType":"uint32"},{"name":"tokenId","type":"uint256","internalType":"uint256"},{"name":"bodyIndex","type":"uint8","internalType":"uint8"},{"name":"backgroundColor","type":"string","internalType":"string"},{"name":"render3D","type":"bool","internalType":"bool"}]}],"outputs":[{"name":"","type":"string","internalType":"string"},{"name":"","type":"string","internalType":"string"}],"stateMutability":"view"},{"type":"function","name":"getBodyZMap","inputs":[{"name":"_tokenId","type":"uint256","internalType":"uint256"}],"outputs":[{"name":"","type":"string","internalType":"string"}],"stateMutability":"view"},{"type":"function","name":"getFullPictureForTrait","inputs":[{"name":"_chonkTraitTokenId","type":"uint256","internalType":"uint256"}],"outputs":[{"name":"traitOwnerTBA","type":"address","internalType":"address"},{"name":"chonkTokenId","type":"uint256","internalType":"uint256"},{"name":"chonkOwner","type":"address","internalType":"address"}],"stateMutability":"view"},{"type":"function","name":"getOwnerAndTBAAddressForChonkId","inputs":[{"name":"_chonkId","type":"uint256","internalType":"uint256"}],"outputs":[{"name":"owner","type":"address","internalType":"address"},{"name":"tbaAddress","type":"address","internalType":"address"}],"stateMutability":"view"},{"type":"function","name":"getPeter","inputs":[{"name":"_tokenId","type":"uint256","internalType":"uint256"}],"outputs":[{"name":"","type":"tuple","internalType":"struct IPeterStorage.StoredPeter","components":[{"name":"headId","type":"uint256","internalType":"uint256"},{"name":"hairId","type":"uint256","internalType":"uint256"},{"name":"faceId","type":"uint256","internalType":"uint256"},{"name":"accessoryId","type":"uint256","internalType":"uint256"},{"name":"topId","type":"uint256","internalType":"uint256"},{"name":"bottomId","type":"uint256","internalType":"uint256"},{"name":"shoesId","type":"uint256","internalType":"uint256"},{"name":"epoch","type":"uint32","internalType":"uint32"},{"name":"tokenId","type":"uint256","internalType":"uint256"},{"name":"bodyIndex","type":"uint8","internalType":"uint8"},{"name":"backgroundColor","type":"string","internalType":"string"},{"name":"render3D","type":"bool","internalType":"bool"}]}],"stateMutability":"view"},{"type":"function","name":"getPeterZMap","inputs":[{"name":"_tokenId","type":"uint256","internalType":"uint256"}],"outputs":[{"name":"","type":"string","internalType":"string"}],"stateMutability":"view"},{"type":"function","name":"getTBAAddressForChonkId","inputs":[{"name":"_chonkId","type":"uint256","internalType":"uint256"}],"outputs":[{"name":"","type":"address","internalType":"address"}],"stateMutability":"view"},{"type":"function","name":"getTokenRenderZ","inputs":[{"name":"_peterTokenId","type":"uint256","internalType":"uint256"}],"outputs":[{"name":"","type":"bool","internalType":"bool"}],"stateMutability":"view"},{"type":"function","name":"getTraitTokens","inputs":[{"name":"_tbaAddress","type":"address","internalType":"address"}],"outputs":[{"name":"","type":"uint256[]","internalType":"uint256[]"}],"stateMutability":"view"},{"type":"function","name":"getTraitsForChonkId","inputs":[{"name":"_chonkId","type":"uint256","internalType":"uint256"}],"outputs":[{"name":"traitTokens","type":"uint256[]","internalType":"uint256[]"}],"stateMutability":"view"},{"type":"function","name":"isApprovedForAll","inputs":[{"name":"owner","type":"address","internalType":"address"},{"name":"operator","type":"address","internalType":"address"}],"outputs":[{"name":"","type":"bool","internalType":"bool"}],"stateMutability":"view"},{"type":"function","name":"mainRenderer2D","inputs":[],"outputs":[{"name":"","type":"address","internalType":"contract MainRenderer2D"}],"stateMutability":"view"},{"type":"function","name":"mainRenderer3D","inputs":[],"outputs":[{"name":"","type":"address","internalType":"contract MainRenderer3D"}],"stateMutability":"view"},{"type":"function","name":"marketplace","inputs":[],"outputs":[{"name":"","type":"address","internalType":"contract ChonksMarket"}],"stateMutability":"view"},{"type":"function","name":"maxTraitsToOutput","inputs":[],"outputs":[{"name":"","type":"uint256","internalType":"uint256"}],"stateMutability":"view"},{"type":"function","name":"mint","inputs":[{"name":"_amount","type":"uint256","internalType":"uint256"}],"outputs":[],"stateMutability":"payable"},{"type":"function","name":"mintStartTime","inputs":[],"outputs":[{"name":"","type":"uint256","internalType":"uint256"}],"stateMutability":"view"},{"type":"function","name":"name","inputs":[],"outputs":[{"name":"","type":"string","internalType":"string"}],"stateMutability":"view"},{"type":"function","name":"owner","inputs":[],"outputs":[{"name":"result","type":"address","internalType":"address"}],"stateMutability":"view"},{"type":"function","name":"ownerOf","inputs":[{"name":"tokenId","type":"uint256","internalType":"uint256"}],"outputs":[{"name":"","type":"address","internalType":"address"}],"stateMutability":"view"},{"type":"function","name":"ownershipHandoverExpiresAt","inputs":[{"name":"pendingOwner","type":"address","internalType":"address"}],"outputs":[{"name":"result","type":"uint256","internalType":"uint256"}],"stateMutability":"view"},{"type":"function","name":"peterMakeover","inputs":[{"name":"_peterTokenId","type":"uint256","internalType":"uint256"},{"name":"_headTokenId","type":"uint256","internalType":"uint256"},{"name":"_hairTokenId","type":"uint256","internalType":"uint256"},{"name":"_faceTokenId","type":"uint256","internalType":"uint256"},{"name":"_accessoryTokenId","type":"uint256","internalType":"uint256"},{"name":"_topTokenId","type":"uint256","internalType":"uint256"},{"name":"_bottomTokenId","type":"uint256","internalType":"uint256"},{"name":"_shoesTokenId","type":"uint256","internalType":"uint256"},{"name":"_bodyIndex","type":"uint8","internalType":"uint8"},{"name":"_backgroundColor","type":"string","internalType":"string"}],"outputs":[],"stateMutability":"nonpayable"},{"type":"function","name":"price","inputs":[],"outputs":[{"name":"","type":"uint256","internalType":"uint256"}],"stateMutability":"view"},{"type":"function","name":"renderAsDataUri","inputs":[{"name":"_tokenId","type":"uint256","internalType":"uint256"}],"outputs":[{"name":"","type":"string","internalType":"string"}],"stateMutability":"view"},{"type":"function","name":"renderAsDataUri2D","inputs":[{"name":"_tokenId","type":"uint256","internalType":"uint256"}],"outputs":[{"name":"","type":"string","internalType":"string"}],"stateMutability":"view"},{"type":"function","name":"renderAsDataUri3D","inputs":[{"name":"_tokenId","type":"uint256","internalType":"uint256"}],"outputs":[{"name":"","type":"string","internalType":"string"}],"stateMutability":"view"},{"type":"function","name":"renounceOwnership","inputs":[],"outputs":[],"stateMutability":"payable"},{"type":"function","name":"requestOwnershipHandover","inputs":[],"outputs":[],"stateMutability":"payable"},{"type":"function","name":"safeTransferFrom","inputs":[{"name":"from","type":"address","internalType":"address"},{"name":"to","type":"address","internalType":"address"},{"name":"tokenId","type":"uint256","internalType":"uint256"}],"outputs":[],"stateMutability":"nonpayable"},{"type":"function","name":"safeTransferFrom","inputs":[{"name":"from","type":"address","internalType":"address"},{"name":"to","type":"address","internalType":"address"},{"name":"tokenId","type":"uint256","internalType":"uint256"},{"name":"data","type":"bytes","internalType":"bytes"}],"outputs":[],"stateMutability":"nonpayable"},{"type":"function","name":"setApprovalForAll","inputs":[{"name":"operator","type":"address","internalType":"address"},{"name":"approved","type":"bool","internalType":"bool"}],"outputs":[],"stateMutability":"nonpayable"},{"type":"function","name":"setBackgroundColor","inputs":[{"name":"_peterTokenId","type":"uint256","internalType":"uint256"},{"name":"_color","type":"string","internalType":"string"}],"outputs":[],"stateMutability":"nonpayable"},{"type":"function","name":"setBodyIndex","inputs":[{"name":"_peterTokenId","type":"uint256","internalType":"uint256"},{"name":"_bodyIndex","type":"uint8","internalType":"uint8"}],"outputs":[],"stateMutability":"nonpayable"},{"type":"function","name":"setFirstSeasonRenderMinter","inputs":[{"name":"_dataContract","type":"address","internalType":"address"}],"outputs":[],"stateMutability":"nonpayable"},{"type":"function","name":"setMainRenderer2D","inputs":[{"name":"_mainRenderer2D","type":"address","internalType":"address"}],"outputs":[],"stateMutability":"nonpayable"},{"type":"function","name":"setMainRenderer3D","inputs":[{"name":"_mainRenderer3D","type":"address","internalType":"address"}],"outputs":[],"stateMutability":"nonpayable"},{"type":"function","name":"setMarketplace","inputs":[{"name":"_marketplace","type":"address","internalType":"address"}],"outputs":[],"stateMutability":"nonpayable"},{"type":"function","name":"setMaxTraitsToOutput","inputs":[{"name":"_maxTraitsToOutput","type":"uint256","internalType":"uint256"}],"outputs":[],"stateMutability":"nonpayable"},{"type":"function","name":"setMintStartTime","inputs":[{"name":"_mintStartTime","type":"uint256","internalType":"uint256"}],"outputs":[],"stateMutability":"nonpayable"},{"type":"function","name":"setPrice","inputs":[{"name":"_priceInWei","type":"uint256","internalType":"uint256"}],"outputs":[],"stateMutability":"nonpayable"},{"type":"function","name":"setTokenRender3D","inputs":[{"name":"_peterTokenId","type":"uint256","internalType":"uint256"},{"name":"_render3D","type":"bool","internalType":"bool"}],"outputs":[],"stateMutability":"nonpayable"},{"type":"function","name":"setTraitsContract","inputs":[{"name":"_address","type":"address","internalType":"contract PeterTraits"}],"outputs":[],"stateMutability":"nonpayable"},{"type":"function","name":"setWithdrawAddress","inputs":[{"name":"_withdrawAddress","type":"address","internalType":"address"}],"outputs":[],"stateMutability":"nonpayable"},{"type":"function","name":"supportsInterface","inputs":[{"name":"interfaceId","type":"bytes4","internalType":"bytes4"}],"outputs":[{"name":"","type":"bool","internalType":"bool"}],"stateMutability":"view"},{"type":"function","name":"symbol","inputs":[],"outputs":[{"name":"","type":"string","internalType":"string"}],"stateMutability":"view"},{"type":"function","name":"tbaAddressToTokenId","inputs":[{"name":"","type":"address","internalType":"address"}],"outputs":[{"name":"","type":"uint256","internalType":"uint256"}],"stateMutability":"view"},{"type":"function","name":"tokenByIndex","inputs":[{"name":"index","type":"uint256","internalType":"uint256"}],"outputs":[{"name":"","type":"uint256","internalType":"uint256"}],"stateMutability":"view"},{"type":"function","name":"tokenIdToTBAAccountAddress","inputs":[{"name":"","type":"uint256","internalType":"uint256"}],"outputs":[{"name":"","type":"address","internalType":"address"}],"stateMutability":"view"},{"type":"function","name":"tokenOfOwnerByIndex","inputs":[{"name":"owner","type":"address","internalType":"address"},{"name":"index","type":"uint256","internalType":"uint256"}],"outputs":[{"name":"","type":"uint256","internalType":"uint256"}],"stateMutability":"view"},{"type":"function","name":"tokenURI","inputs":[{"name":"_tokenId","type":"uint256","internalType":"uint256"}],"outputs":[{"name":"","type":"string","internalType":"string"}],"stateMutability":"view"},{"type":"function","name":"totalSupply","inputs":[],"outputs":[{"name":"","type":"uint256","internalType":"uint256"}],"stateMutability":"view"},{"type":"function","name":"traitsContract","inputs":[],"outputs":[{"name":"","type":"address","internalType":"contract PeterTraits"}],"stateMutability":"view"},{"type":"function","name":"transferFrom","inputs":[{"name":"from","type":"address","internalType":"address"},{"name":"to","type":"address","internalType":"address"},{"name":"tokenId","type":"uint256","internalType":"uint256"}],"outputs":[],"stateMutability":"nonpayable"},{"type":"function","name":"transferOwnership","inputs":[{"name":"newOwner","type":"address","internalType":"address"}],"outputs":[],"stateMutability":"payable"},{"type":"function","name":"unequip","inputs":[{"name":"_peterTokenId","type":"uint256","internalType":"uint256"},{"name":"traitType","type":"uint8","internalType":"enum TraitCategory.Name"}],"outputs":[],"stateMutability":"nonpayable"},{"type":"function","name":"unequipAll","inputs":[{"name":"_peterTokenId","type":"uint256","internalType":"uint256"}],"outputs":[],"stateMutability":"nonpayable"},{"type":"function","name":"walletOfOwner","inputs":[{"name":"_owner","type":"address","internalType":"address"}],"outputs":[{"name":"","type":"uint256[]","internalType":"uint256[]"}],"stateMutability":"view"},{"type":"function","name":"withdraw","inputs":[],"outputs":[],"stateMutability":"nonpayable"},{"type":"function","name":"withdrawAddress","inputs":[],"outputs":[{"name":"","type":"address","internalType":"address"}],"stateMutability":"view"},{"type":"event","name":"Approval","inputs":[{"name":"owner","type":"address","indexed":true,"internalType":"address"},{"name":"approved","type":"address","indexed":true,"internalType":"address"},{"name":"tokenId","type":"uint256","indexed":true,"internalType":"uint256"}],"anonymous":false},{"type":"event","name":"ApprovalForAll","inputs":[{"name":"owner","type":"address","indexed":true,"internalType":"address"},{"name":"operator","type":"address","indexed":true,"internalType":"address"},{"name":"approved","type":"bool","indexed":false,"internalType":"bool"}],"anonymous":false},{"type":"event","name":"BackgroundColor","inputs":[{"name":"owner","type":"address","indexed":true,"internalType":"address"},{"name":"tokenId","type":"uint256","indexed":true,"internalType":"uint256"},{"name":"color","type":"string","indexed":false,"internalType":"string"}],"anonymous":false},{"type":"event","name":"BatchMetadataUpdate","inputs":[{"name":"_fromTokenId","type":"uint256","indexed":false,"internalType":"uint256"},{"name":"_toTokenId","type":"uint256","indexed":false,"internalType":"uint256"}],"anonymous":false},{"type":"event","name":"BodyIndex","inputs":[{"name":"owner","type":"address","indexed":true,"internalType":"address"},{"name":"tokenId","type":"uint256","indexed":true,"internalType":"uint256"},{"name":"_bodyIndex","type":"uint8","indexed":false,"internalType":"uint8"}],"anonymous":false},{"type":"event","name":"Equip","inputs":[{"name":"owner","type":"address","indexed":true,"internalType":"address"},{"name":"tokenId","type":"uint256","indexed":true,"internalType":"uint256"},{"name":"traitTokenId","type":"uint256","indexed":true,"internalType":"uint256"},{"name":"traitCategory","type":"uint8","indexed":false,"internalType":"uint8"}],"anonymous":false},{"type":"event","name":"EquipAll","inputs":[{"name":"owner","type":"address","indexed":true,"internalType":"address"},{"name":"tokenId","type":"uint256","indexed":true,"internalType":"uint256"}],"anonymous":false},{"type":"event","name":"MetadataUpdate","inputs":[{"name":"_tokenId","type":"uint256","indexed":false,"internalType":"uint256"}],"anonymous":false},{"type":"event","name":"Mint","inputs":[{"name":"owner","type":"address","indexed":true,"internalType":"address"},{"name":"tokenId","type":"uint256","indexed":true,"internalType":"uint256"}],"anonymous":false},{"type":"event","name":"OwnershipHandoverCanceled","inputs":[{"name":"pendingOwner","type":"address","indexed":true,"internalType":"address"}],"anonymous":false},{"type":"event","name":"OwnershipHandoverRequested","inputs":[{"name":"pendingOwner","type":"address","indexed":true,"internalType":"address"}],"anonymous":false},{"type":"event","name":"OwnershipTransferred","inputs":[{"name":"oldOwner","type":"address","indexed":true,"internalType":"address"},{"name":"newOwner","type":"address","indexed":true,"internalType":"address"}],"anonymous":false},{"type":"event","name":"Render3D","inputs":[{"name":"owner","type":"address","indexed":true,"internalType":"address"},{"name":"tokenId","type":"uint256","indexed":true,"internalType":"uint256"},{"name":"renderZ","type":"bool","indexed":false,"internalType":"bool"}],"anonymous":false},{"type":"event","name":"Transfer","inputs":[{"name":"from","type":"address","indexed":true,"internalType":"address"},{"name":"to","type":"address","indexed":true,"internalType":"address"},{"name":"tokenId","type":"uint256","indexed":true,"internalType":"uint256"}],"anonymous":false},{"type":"event","name":"Unequip","inputs":[{"name":"owner","type":"address","indexed":true,"internalType":"address"},{"name":"tokenId","type":"uint256","indexed":true,"internalType":"uint256"},{"name":"traitCategory","type":"uint8","indexed":false,"internalType":"uint8"}],"anonymous":false},{"type":"event","name":"UnequipAll","inputs":[{"name":"owner","type":"address","indexed":true,"internalType":"address"},{"name":"tokenId","type":"uint256","indexed":true,"internalType":"uint256"}],"anonymous":false},{"type":"error","name":"AlreadyInitialized","inputs":[]},{"type":"error","name":"BodyAlreadyExists","inputs":[]},{"type":"error","name":"CantBeZero","inputs":[]},{"type":"error","name":"CantTransfer","inputs":[]},{"type":"error","name":"CantTransferToTBAs","inputs":[]},{"type":"error","name":"FirstSeasonRenderMinterNotSet","inputs":[]},{"type":"error","name":"IncorrectPeterOwner","inputs":[]},{"type":"error","name":"IncorrectTBAOwner","inputs":[]},{"type":"error","name":"IncorrectTraitType","inputs":[]},{"type":"error","name":"InsufficientFunds","inputs":[]},{"type":"error","name":"InvalidBodyIndex","inputs":[]},{"type":"error","name":"InvalidColor","inputs":[]},{"type":"error","name":"InvalidLevelAmount","inputs":[]},{"type":"error","name":"InvalidSignature","inputs":[]},{"type":"error","name":"MintEnded","inputs":[]},{"type":"error","name":"MintNotStarted","inputs":[]},{"type":"error","name":"NewOwnerIsZeroAddress","inputs":[]},{"type":"error","name":"NoHandoverRequest","inputs":[]},{"type":"error","name":"NonceAlreadyUsed","inputs":[]},{"type":"error","name":"PeterDoesntExist","inputs":[]},{"type":"error","name":"Unauthorized","inputs":[]},{"type":"error","name":"UseUnequip","inputs":[]},{"type":"error","name":"WithdrawFailed","inputs":[]},{"type":"error","name":"markaSaysNo","inputs":[]}],"bytecode":{"object":"0x608060405260636015553480156200001657600080fd5b5060405162005b5138038062005b51833981016040819052620000399162000100565b6040518060400160405280600a81526020016914195d195c8815195cdd60b21b815250604051806040016040528060058152602001642822aa22a960d91b81525081600090816200008b9190620001d2565b5060016200009a8282620001d2565b50506001600a5550620000ad33620000c4565b600b805460ff19169115159190911790556200029e565b6001600160a01b0316638b78c6d8198190558060007f8be0079c531659141344cd1fd0a4f28419497f9722a3daafe3b4186f6b6457e08180a350565b6000602082840312156200011357600080fd5b815180151581146200012457600080fd5b9392505050565b634e487b7160e01b600052604160045260246000fd5b600181811c908216806200015657607f821691505b6020821081036200017757634e487b7160e01b600052602260045260246000fd5b50919050565b601f821115620001cd576000816000526020600020601f850160051c81016020861015620001a85750805b601f850160051c820191505b81811015620001c957828155600101620001b4565b5050505b505050565b81516001600160401b03811115620001ee57620001ee6200012b565b6200020681620001ff845462000141565b846200017d565b602080601f8311600181146200023e5760008415620002255750858301515b600019600386901b1c1916600185901b178555620001c9565b600085815260208120601f198616915b828110156200026f578886015182559484019460019091019084016200024e565b50858210156200028e5787850151600019600388901b60f8161c191681555b5050505050600190811b01905550565b6158a380620002ae6000396000f3fe6080604052600436106104465760003560e01c80638da5cb5b11610234578063b88d4fde1161012e578063e1405540116100b6578063f2fde38b1161007a578063f2fde38b14610d99578063f3f8efb914610dac578063f4bec0b614610dcc578063f6a0c93214610dec578063fee81cf414610e2257600080fd5b8063e140554014610ce7578063e3d2155514610d07578063e985e9c514610d1d578063f04e283e14610d66578063f2361e2314610d7957600080fd5b8063c87b56dd116100fd578063c87b56dd14610c47578063cdb6dd5c14610c67578063d5b3621b14610c87578063d68c4f3214610ca7578063dceef0ec14610cc757600080fd5b8063b88d4fde14610bba578063be928ff614610bda578063bef1dfb714610c07578063c093afdb14610c2757600080fd5b80639c7be2f1116101bc578063a22cb46511610180578063a22cb46514610aff578063a23830ae14610b1f578063a4bf9a0014610b4d578063abc8c7af14610b7a578063b66ef6e314610b9a57600080fd5b80639c7be2f114610a815780639f6e463714610a96578063a035b1fe14610ab6578063a0712d6814610acc578063a1d6268014610adf57600080fd5b8063931e2e4911610203578063931e2e49146109e057806393ccba72146109f657806395d89b4114610a16578063998cfb6e14610a2b5780639c05d68d14610a4b57600080fd5b80638da5cb5b14610958578063916c546b1461097157806391b7f5ed1461099157806392012f08146109b157600080fd5b80633ab1a4941161034557806358a97640116102cd578063715018a611610291578063715018a6146108bd57806373ad6c2d146108c55780637e2e6c47146108e55780638200ea51146109055780638aa1e4c81461093857600080fd5b806358a97640146107f35780635eabd84a146108135780636352211e14610833578063667043491461085357806370a082311461089d57600080fd5b80634a4333a3116103145780634a4333a3146107755780634a60f620146107955780634f6ccce7146107ab57806354d1f13d146107cb57806355737f35146107d357600080fd5b80633ab1a494146106f35780633ccfd60b1461071357806342842e0e14610728578063438b63001461074857600080fd5b80631581b600116103d35780632bd1ca45116103975780632bd1ca45146106535780632f745c59146106735780633044825b14610693578063306c7334146106b357806333d3d9bf146106d357600080fd5b80631581b600146105cc57806318160ddd146105ec57806323b872dd1461060b578063256929621461062b578063282575321461063357600080fd5b8063081812fc1161041a578063081812fc14610504578063095ea7b31461053c5780630c83f9d71461055c57806313ea0ae31461058c57806314fe8ff4146105ac57600080fd5b80621792061461044b57806301ffc9a71461046d57806304003bd0146104a257806306fdde03146104e2575b600080fd5b34801561045757600080fd5b5061046b6104663660046147c8565b610e55565b005b34801561047957600080fd5b5061048d6104883660046147fb565b610e7f565b60405190151581526020015b60405180910390f35b3480156104ae57600080fd5b506104c26104bd366004614818565b610e90565b604080516001600160a01b03938416815292909116602083015201610499565b3480156104ee57600080fd5b506104f7610ebf565b6040516104999190614881565b34801561051057600080fd5b5061052461051f366004614818565b610f51565b6040516001600160a01b039091168152602001610499565b34801561054857600080fd5b5061046b610557366004614894565b610f78565b34801561056857600080fd5b5061057c610577366004614818565b611092565b60405161049994939291906148c0565b34801561059857600080fd5b50601254610524906001600160a01b031681565b3480156105b857600080fd5b506104f76105c7366004614818565b611253565b3480156105d857600080fd5b50601754610524906001600160a01b031681565b3480156105f857600080fd5b506008545b604051908152602001610499565b34801561061757600080fd5b5061046b61062636600461490a565b611497565b61046b6114c8565b34801561063f57600080fd5b5061046b61064e36600461494b565b611517565b34801561065f57600080fd5b506104f761066e366004614818565b611710565b34801561067f57600080fd5b506105fd61068e366004614894565b6117d4565b34801561069f57600080fd5b5061046b6106ae366004614818565b61186a565b3480156106bf57600080fd5b506104f76106ce366004614818565b611925565b3480156106df57600080fd5b5061046b6106ee366004614818565b611948565b3480156106ff57600080fd5b5061046b61070e3660046147c8565b611955565b34801561071f57600080fd5b5061046b61197f565b34801561073457600080fd5b5061046b61074336600461490a565b6119fe565b34801561075457600080fd5b506107686107633660046147c8565b611a19565b604051610499919061496d565b34801561078157600080fd5b5061046b6107903660046149b1565b611ab0565b3480156107a157600080fd5b506105fd60165481565b3480156107b757600080fd5b506105fd6107c6366004614818565b611e18565b61046b611eab565b3480156107df57600080fd5b506105246107ee36600461494b565b611ee7565b3480156107ff57600080fd5b5061046b61080e3660046147c8565b611f1f565b34801561081f57600080fd5b5061046b61082e3660046147c8565b611f49565b34801561083f57600080fd5b5061052461084e366004614818565b611f73565b34801561085f57600080fd5b5061087361086e366004614818565b611fd3565b604080516001600160a01b0394851681526020810193909352921691810191909152606001610499565b3480156108a957600080fd5b506105fd6108b83660046147c8565b612074565b61046b6120fa565b3480156108d157600080fd5b5061046b6108e03660046147c8565b61210e565b3480156108f157600080fd5b5061046b6109003660046147c8565b612138565b34801561091157600080fd5b5061048d610920366004614818565b6000908152600c60205260409020600b015460ff1690565b34801561094457600080fd5b5061048d61095336600461494b565b612162565b34801561096457600080fd5b50638b78c6d81954610524565b34801561097d57600080fd5b506104f761098c366004614818565b6121d1565b34801561099d57600080fd5b5061046b6109ac366004614818565b6122d4565b3480156109bd57600080fd5b506109d16109cc366004614b2c565b6122e1565b60405161049993929190614c25565b3480156109ec57600080fd5b506105fd60195481565b348015610a0257600080fd5b5061046b610a11366004614c5e565b612432565b348015610a2257600080fd5b506104f761249e565b348015610a3757600080fd5b50610768610a463660046147c8565b6124ad565b348015610a5757600080fd5b50610524610a66366004614818565b601a602052600090815260409020546001600160a01b031681565b348015610a8d57600080fd5b5061046b612523565b348015610aa257600080fd5b50610768610ab1366004614818565b612581565b348015610ac257600080fd5b506105fd60185481565b61046b610ada366004614818565b6125a5565b348015610aeb57600080fd5b506104f7610afa366004614818565b612937565b348015610b0b57600080fd5b5061046b610b1a366004614cfa565b612967565b348015610b2b57600080fd5b50610b3f610b3a366004614b2c565b612972565b604051610499929190614d2f565b348015610b5957600080fd5b506105fd610b683660046147c8565b601b6020526000908152604090205481565b348015610b8657600080fd5b50601154610524906001600160a01b031681565b348015610ba657600080fd5b50601454610524906001600160a01b031681565b348015610bc657600080fd5b5061046b610bd5366004614d5d565b612a20565b348015610be657600080fd5b50610bfa610bf5366004614818565b612a58565b6040516104999190614dc8565b348015610c1357600080fd5b5061046b610c22366004614e7f565b612bfe565b348015610c3357600080fd5b50601054610524906001600160a01b031681565b348015610c5357600080fd5b506104f7610c62366004614818565b612ca9565b348015610c7357600080fd5b5061046b610c82366004614eaf565b612cea565b348015610c9357600080fd5b5061046b610ca2366004614818565b612eae565b348015610cb357600080fd5b5061046b610cc2366004614edf565b612ebb565b348015610cd357600080fd5b506104f7610ce2366004614818565b613137565b348015610cf357600080fd5b5061046b610d02366004614f25565b613409565b348015610d1357600080fd5b506105fd60155481565b348015610d2957600080fd5b5061048d610d38366004614f48565b6001600160a01b03918216600090815260056020908152604080832093909416825291909152205460ff1690565b61046b610d743660046147c8565b6134d1565b348015610d8557600080fd5b5061046b610d94366004614f76565b61350e565b61046b610da73660046147c8565b61355b565b348015610db857600080fd5b506104f7610dc7366004614818565b613582565b348015610dd857600080fd5b50601354610524906001600160a01b031681565b348015610df857600080fd5b50610524610e07366004614818565b6000908152601a60205260409020546001600160a01b031690565b348015610e2e57600080fd5b506105fd610e3d3660046147c8565b63389a75e1600c908152600091909152602090205490565b610e5d613809565b601480546001600160a01b0319166001600160a01b0392909216919091179055565b6000610e8a82613824565b92915050565b600080610e9c83611f73565b6000938452601a60205260409093205492936001600160a01b0390931692915050565b606060008054610ece90614ffb565b80601f0160208091040260200160405190810160405280929190818152602001828054610efa90614ffb565b8015610f475780601f10610f1c57610100808354040283529160200191610f47565b820191906000526020600020905b815481529060010190602001808311610f2a57829003601f168201915b5050505050905090565b6000610f5c82613849565b506000908152600460205260409020546001600160a01b031690565b6000610f8382611f73565b9050806001600160a01b0316836001600160a01b031603610ff55760405162461bcd60e51b815260206004820152602160248201527f4552433732313a20617070726f76616c20746f2063757272656e74206f776e656044820152603960f91b60648201526084015b60405180910390fd5b336001600160a01b038216148061101157506110118133610d38565b6110835760405162461bcd60e51b815260206004820152603e60248201527f4552433732313a20617070726f76652063616c6c6572206973206e6f7420746f60448201527f6b656e206f776e6572206e6f7220617070726f76656420666f7220616c6c00006064820152608401610fec565b61108d83836138a8565b505050565b600f60205260009081526040902080546001820180549192916110b490614ffb565b80601f01602080910402602001604051908101604052809291908181526020018280546110e090614ffb565b801561112d5780601f106111025761010080835404028352916020019161112d565b820191906000526020600020905b81548152906001019060200180831161111057829003601f168201915b50505050509080600201805461114290614ffb565b80601f016020809104026020016040519081016040528092919081815260200182805461116e90614ffb565b80156111bb5780601f10611190576101008083540402835291602001916111bb565b820191906000526020600020905b81548152906001019060200180831161119e57829003601f168201915b5050505050908060030180546111d090614ffb565b80601f01602080910402602001604051908101604052809291908181526020018280546111fc90614ffb565b80156112495780601f1061121e57610100808354040283529160200191611249565b820191906000526020600020905b81548152906001019060200180831161122c57829003601f168201915b5050505050905084565b6060600061126083612581565b90506000601060009054906101000a90046001600160a01b03166001600160a01b0316635c1ef2566040518163ffffffff1660e01b8152600401600060405180830381865afa1580156112b7573d6000803e3d6000fd5b505050506040513d6000823e601f3d908101601f191682016040526112df919081019061507a565b905060006015548351106112f5576015546112f8565b82515b90506000816001600160401b0381111561131457611314614a06565b60405190808252806020026020018201604052801561134757816020015b60608152602001906001900390816113325790505b50905060005b8281101561140e5760105485516001600160a01b039091169063c77915319087908490811061137e5761137e6150ae565b60200260200101516040518263ffffffff1660e01b81526004016113a491815260200190565b600060405180830381865afa1580156113c1573d6000803e3d6000fd5b505050506040513d6000823e601f3d908101601f191682016040526113e9919081019061507a565b8282815181106113fb576113fb6150ae565b602090810291909101015260010161134d565b506013548451601554604051631719ff8760e11b81526001600160a01b0390931692632e33ff0e92611448928892879291906004016150c4565b600060405180830381865afa158015611465573d6000803e3d6000fd5b505050506040513d6000823e601f3d908101601f1916820160405261148d919081019061507a565b9695505050505050565b6114a13382613916565b6114bd5760405162461bcd60e51b8152600401610fec90615145565b61108d838383613994565b60006202a3006001600160401b03164201905063389a75e1600c5233600052806020600c2055337fdbf36a107da19e49527a7176a1babf963b4b0ff8cde35ee35d6cd8f1f9ac7e1d600080a250565b8161152181611f73565b6001600160a01b0316336001600160a01b031614611552576040516324adc17160e11b815260040160405180910390fd5b8160000361157357604051630754c7f360e41b815260040160405180910390fd5b600061157f8484613b3b565b9050600181600781111561159557611595615193565b036115ac576000848152600c602052604090208390555b60028160078111156115c0576115c0615193565b036115da576000848152600c602052604090206001018390555b60038160078111156115ee576115ee615193565b03611608576000848152600c602052604090206002018390555b600481600781111561161c5761161c615193565b03611636576000848152600c602052604090206003018390555b600581600781111561164a5761164a615193565b03611664576000848152600c602052604090206004018390555b600681600781111561167857611678615193565b03611692576000848152600c602052604090206005018390555b60078160078111156116a6576116a6615193565b036116c0576000848152600c602052604090206006018390555b82846116cb86611f73565b6001600160a01b031660008051602061584e8339815191528460078111156116f5576116f5615193565b60405160ff909116815260200160405180910390a450505050565b6060806060600061172085612a58565b905061172b816122e1565b5060105460405163bb12d21d60e01b81529195506001600160a01b0316915063bb12d21d9061175e908490600401614dc8565b600060405180830381865afa15801561177b573d6000803e3d6000fd5b505050506040513d6000823e601f3d908101601f191682016040526117a391908101906151a9565b506040519093506117bb915084908490602001615230565b6040516020818303038152906040529350505050919050565b60006117df83612074565b82106118415760405162461bcd60e51b815260206004820152602b60248201527f455243373231456e756d657261626c653a206f776e657220696e646578206f7560448201526a74206f6620626f756e647360a81b6064820152608401610fec565b506001600160a01b03919091166000908152600660209081526040808320938352929052205490565b8061187481611f73565b6001600160a01b0316336001600160a01b0316146118a5576040516324adc17160e11b815260040160405180910390fd5b6000828152600c6020526040812081815560018101829055600281018290556003810182905560048101829055600581018290556006810191909155826118eb81611f73565b6001600160a01b03167f46078a2cd4c69c3b4a27bdc69fdfe03d442ebcf405f1a68e9b5df6bc3e24429760405160405180910390a3505050565b606080600061193384612a58565b905061193e816122e1565b5095945050505050565b611950613809565b601555565b61195d613809565b601780546001600160a01b0319166001600160a01b0392909216919091179055565b611987613809565b6017546040516000916001600160a01b03169047908381818185875af1925050503d80600081146119d4576040519150601f19603f3d011682016040523d82523d6000602084013e6119d9565b606091505b50509050806119fb57604051631d42c86760e21b815260040160405180910390fd5b50565b61108d83838360405180602001604052806000815250612a20565b60606000611a2683612074565b90506000816001600160401b03811115611a4257611a42614a06565b604051908082528060200260200182016040528015611a6b578160200160208202803683370190505b50905060005b82811015611aa857611a8385826117d4565b828281518110611a9557611a956150ae565b6020908102919091010152600101611a71565b509392505050565b87611aba81611f73565b6001600160a01b0316336001600160a01b031614611aeb576040516324adc17160e11b815260040160405180910390fd5b8715611b5257611afb8989613bc0565b611b06886001613cb8565b6000898152600c602052604090208890558789611b2281611f73565b6001600160a01b031660008051602061584e833981519152600160405160ff909116815260200160405180910390a45b8615611bbc57611b628988613bc0565b611b6d876002613cb8565b6000898152600c602052604090206001018790558689611b8c81611f73565b6001600160a01b031660008051602061584e833981519152600260405160ff909116815260200160405180910390a45b8515611c2657611bcc8987613bc0565b611bd7866003613cb8565b6000898152600c602052604090206002018690558589611bf681611f73565b6001600160a01b031660008051602061584e833981519152600360405160ff909116815260200160405180910390a45b8415611c9057611c368986613bc0565b611c41856004613cb8565b6000898152600c602052604090206003018590558489611c6081611f73565b6001600160a01b031660008051602061584e833981519152600460405160ff909116815260200160405180910390a45b8315611cfa57611ca08985613bc0565b611cab846005613cb8565b6000898152600c602052604090206004018490558389611cca81611f73565b6001600160a01b031660008051602061584e833981519152600560405160ff909116815260200160405180910390a45b8215611d6457611d0a8984613bc0565b611d15836006613cb8565b6000898152600c602052604090206005018390558289611d3481611f73565b6001600160a01b031660008051602061584e833981519152600660405160ff909116815260200160405180910390a45b8115611dce57611d748983613bc0565b611d7f826007613cb8565b6000898152600c602052604090206006018290558189611d9e81611f73565b6001600160a01b031660008051602061584e833981519152600760405160ff909116815260200160405180910390a45b88611dd88a611f73565b6001600160a01b03167f56680590212b09eb4b72a2eba8801b037ec046dfc754538e924f5bb6a8c4db6c60405160405180910390a3505050505050505050565b6000611e2360085490565b8210611e865760405162461bcd60e51b815260206004820152602c60248201527f455243373231456e756d657261626c653a20676c6f62616c20696e646578206f60448201526b7574206f6620626f756e647360a01b6064820152608401610fec565b60088281548110611e9957611e996150ae565b90600052602060002001549050919050565b63389a75e1600c523360005260006020600c2055337ffa7b8eab7da67f412cc9575ed43464468f9bfbae89d1675917346ca6d8fe3c92600080a2565b601c6020528160005260406000208181548110611f0357600080fd5b6000918252602090912001546001600160a01b03169150829050565b611f27613809565b601280546001600160a01b0319166001600160a01b0392909216919091179055565b611f51613809565b601080546001600160a01b0319166001600160a01b0392909216919091179055565b6000818152600260205260408120546001600160a01b031680610e8a5760405162461bcd60e51b8152602060048201526018602482015277115490cdcc8c4e881a5b9d985b1a59081d1bdad95b88125160421b6044820152606401610fec565b6010546040516331a9108f60e11b815260048101839052600091829182916001600160a01b031690636352211e90602401602060405180830381865afa158015612021573d6000803e3d6000fd5b505050506040513d601f19601f82011682018060405250810190612045919061525f565b6001600160a01b0381166000908152601b6020526040902054909350915061206c82611f73565b929491935050565b60006001600160a01b0382166120de5760405162461bcd60e51b815260206004820152602960248201527f4552433732313a2061646472657373207a65726f206973206e6f7420612076616044820152683634b21037bbb732b960b91b6064820152608401610fec565b506001600160a01b031660009081526003602052604090205490565b612102613809565b61210c6000613dba565b565b612116613809565b601180546001600160a01b0319166001600160a01b0392909216919091179055565b612140613809565b601380546001600160a01b0319166001600160a01b0392909216919091179055565b60008061216e84612a58565b80519091508314806121835750828160200151145b806121915750828160400151145b8061219f5750828160600151145b806121ad5750828160800151145b806121bb5750828160a00151145b806121c95750828160c00151145b949350505050565b6013546000828152600f602052604080822090516371bed9e160e11b81526060936001600160a01b03169163e37db3c29161221291600201906004016152f9565b600060405180830381865afa15801561222f573d6000803e3d6000fd5b505050506040513d6000823e601f3d908101601f19168201604052612257919081019061507a565b6013546040516335b07b7960e11b81529192506001600160a01b031690636b60f6f290612288908490600401614881565b600060405180830381865afa1580156122a5573d6000803e3d6000fd5b505050506040513d6000823e601f3d908101601f191682016040526122cd919081019061507a565b9392505050565b6122dc613809565b601855565b60608060606122f784610120015160ff166121d1565b6101208501805160ff9081166000908152600f602052604080822060135494519093168252908190209051630d88d4ff60e01b81526003909201926001600160a01b031691630d88d4ff916123549160019091019060040161530c565b600060405180830381865afa158015612371573d6000803e3d6000fd5b505050506040513d6000823e601f3d908101601f19168201604052612399919081019061507a565b8180546123a590614ffb565b80601f01602080910402602001604051908101604052809291908181526020018280546123d190614ffb565b801561241e5780601f106123f35761010080835404028352916020019161241e565b820191906000526020600020905b81548152906001019060200180831161240157829003601f168201915b505050505091509250925092509193909250565b8961243c81611f73565b6001600160a01b0316336001600160a01b03161461246d576040516324adc17160e11b815260040160405180910390fd5b61247d8b8b8b8b8b8b8b8b611ab0565b6124878b84613409565b6124918b83612ebb565b5050505050505050505050565b606060018054610ece90614ffb565b60105460405162438b6360e81b81526001600160a01b03838116600483015260609260009291169063438b630090602401600060405180830381865afa1580156124fb573d6000803e3d6000fd5b505050506040513d6000823e601f3d908101601f191682016040526122cd919081019061533f565b600b5460ff161561210c5760005b600a81101561254c5761254460046125a5565b600101612531565b5061257660016040518060400160405280600681526020016533333333333360d11b815250612ebb565b61210c600180612bfe565b6000818152601a60205260409020546060906001600160a01b03166122cd816124ad565b6012546001600160a01b03166125ce57604051633390ca8960e21b815260040160405180910390fd5b806000036125ef5760405163e7195f5160e01b815260040160405180910390fd5b806018546125fd91906153fa565b341461261c5760405163356680b760e01b815260040160405180910390fd5b60005b8181101561293357600060166000815461263890615411565b918290555090506126493382613df8565b604051638a54c52f60e01b81527355266d75d1a14e4572138116af39863ed6596e7f600482015260006024820181905262014a34604483015230606483015260848201839052906f6551c19487814612e58fe0681377575890638a54c52f9060a4016020604051808303816000875af11580156126ca573d6000803e3d6000fd5b505050506040513d601f19601f820116820180604052508101906126ee919061525f565b6000838152601a6020908152604080832080546001600160a01b0319166001600160a01b038616908117909155808452601b90925291829020859055905163189acdbd60e31b81527341c8f39463a868d3a88af00cd0fe7102f30e44ec60048201529192509063c4d66de890602401600060405180830381600087803b15801561277757600080fd5b505af115801561278b573d6000803e3d6000fd5b5050601254604051637458922960e11b81526001600160a01b03858116600483015260009450909116915063e8b12452906024016000604051808303816000875af11580156127de573d6000803e3d6000fd5b505050506040513d6000823e601f3d908101601f19168201604052612806919081019061533f565b6000848152600c6020526040812060088101869055825192935091839190612830576128306150ae565b6020026020010151816006018190555081600181518110612853576128536150ae565b6020026020010151816005018190555081600281518110612876576128766150ae565b6020026020010151816004018190555081600381518110612899576128996150ae565b602002602001015181600101819055506005846040516020016128be91815260200190565b6040516020818303038152906040528051906020012060001c6128e1919061542a565b60098201805460ff191660ff929092169190911790556040805180820190915260068152650c110d914e5160d21b6020820152600a8201906129239082615494565b505050505080600101905061261f565b5050565b6060600061294483612a58565b905080610160015161295e5761295983613582565b6122cd565b6122cd83613137565b612933338383613f46565b60608061298683610120015160ff166121d1565b60135461012085015160ff166000908152600f6020526040908190209051630d88d4ff60e01b81526001600160a01b0390921691630d88d4ff916129d29160019091019060040161530c565b600060405180830381865afa1580156129ef573d6000803e3d6000fd5b505050506040513d6000823e601f3d908101601f19168201604052612a17919081019061507a565b91509150915091565b612a2a3383613916565b612a465760405162461bcd60e51b8152600401610fec90615145565b612a528484848461400c565b50505050565b612ac760405180610180016040528060008152602001600081526020016000815260200160008152602001600081526020016000815260200160008152602001600063ffffffff16815260200160008152602001600060ff168152602001606081526020016000151581525090565b6000828152600c60209081526040808320815161018081018352815481526001820154938101939093526002810154918301919091526003810154606083015260048101546080830152600581015460a0830152600681015460c0830152600781015463ffffffff1660e08301526008810154610100830152600981015460ff16610120830152600a8101805461014084019190612b6490614ffb565b80601f0160208091040260200160405190810160405280929190818152602001828054612b9090614ffb565b8015612bdd5780601f10612bb257610100808354040283529160200191612bdd565b820191906000526020600020905b815481529060010190602001808311612bc057829003601f168201915b5050509183525050600b919091015460ff1615156020909101529392505050565b81612c0881611f73565b6001600160a01b0316336001600160a01b031614612c39576040516324adc17160e11b815260040160405180910390fd5b6000838152600c60205260409020600b01805460ff191683151517905582612c6081611f73565b6001600160a01b03167f6dd9e2813f787f711671bf91b2e57a72b9b61bc279b934201f3fd29b3b5f8cbe84604051612c9c911515815260200190565b60405180910390a3505050565b6000818152600260205260409020546060906001600160a01b0316612ce157604051631a65aaab60e31b815260040160405180910390fd5b610e8a82612937565b81612cf481611f73565b6001600160a01b0316336001600160a01b031614612d25576040516324adc17160e11b815260040160405180910390fd5b6001826007811115612d3957612d39615193565b03612d4e576000838152600c60205260408120555b6002826007811115612d6257612d62615193565b03612d7a576000838152600c60205260408120600101555b6003826007811115612d8e57612d8e615193565b03612da6576000838152600c60205260408120600201555b6004826007811115612dba57612dba615193565b03612dd2576000838152600c60205260408120600301555b6005826007811115612de657612de6615193565b03612dfe576000838152600c60205260408120600401555b6006826007811115612e1257612e12615193565b03612e2a576000838152600c60205260408120600501555b6007826007811115612e3e57612e3e615193565b03612e56576000838152600c60205260408120600601555b82612e6084611f73565b6001600160a01b03167f3d8ac56c725fc7985e9444622a45baee28ba67d8a964045f747b465121f40e71846007811115612e9c57612e9c615193565b60405160ff9091168152602001612c9c565b612eb6613809565b601955565b81612ec581611f73565b6001600160a01b0316336001600160a01b031614612ef6576040516324adc17160e11b815260040160405180910390fd5b81518290600614612f1a57604051631cf7e9c560e01b815260040160405180910390fd5b60408051808201909152600681526503036393432360d41b6020918201528151908201207fc9a8162f44485821dce92aaad6bb1b8cc6d457721d5ae939092ca3297c7dd0a501612f7d5760405163a3c0b7b960e01b815260040160405180910390fd5b60005b60068110156130ca57603060f81b828281518110612fa057612fa06150ae565b01602001516001600160f81b03191610801590612fe15750603960f81b828281518110612fcf57612fcf6150ae565b01602001516001600160f81b03191611155b1580156130435750604160f81b828281518110613000576130006150ae565b01602001516001600160f81b031916108015906130415750604660f81b82828151811061302f5761302f6150ae565b01602001516001600160f81b03191611155b155b80156130a45750606160f81b828281518110613061576130616150ae565b01602001516001600160f81b031916108015906130a25750606660f81b828281518110613090576130906150ae565b01602001516001600160f81b03191611155b155b156130c257604051631cf7e9c560e01b815260040160405180910390fd5b600101612f80565b506000848152600c60205260409020600a016130e68482615494565b50836130f185611f73565b6001600160a01b03167f2e34f8c0f6052b66319b4a5df14eac164c6af8a0b37f612d4304a777e1ae7a3d856040516131299190614881565b60405180910390a350505050565b60608060608060608060608060606131706040518060800160405280606081526020016060815260200160608152602001600081525090565b600061317b8c612a58565b9050613186816122e1565b60105460405163bb12d21d60e01b8152939d50919a5095506001600160a01b03169063bb12d21d906131bc908490600401614dc8565b600060405180830381865afa1580156131d9573d6000803e3d6000fd5b505050506040513d6000823e601f3d908101601f1916820160405261320191908101906151a9565b604051929b50909850955061321c9085908790602001615553565b60405160208183030381529060405292508787604051602001613240929190615230565b60408051601f19818403018152919052610140820151835295506132638c612581565b51606083015261012081015160ff166000908152600f60205260409020600101805461328e90614ffb565b80601f01602080910402602001604051908101604052809291908181526020018280546132ba90614ffb565b80156133075780601f106132dc57610100808354040283529160200191613307565b820191906000526020600020905b8154815290600101906020018083116132ea57829003601f168201915b505050505082602001819052506133308c6000908152600c60205260409020600b015460ff1690565b61335457604051806040016040528060028152602001610c9160f21b815250613370565b604051806040016040528060028152602001610cd160f21b8152505b60408084019190915260145490516367b6032760e11b81526001600160a01b039091169063cf6c064e906133b4908f908e9089908f908c908e908b90600401615617565b600060405180830381865afa1580156133d1573d6000803e3d6000fd5b505050506040513d6000823e601f3d908101601f191682016040526133f9919081019061507a565b9c9b505050505050505050505050565b8161341381611f73565b6001600160a01b0316336001600160a01b031614613444576040516324adc17160e11b815260040160405180910390fd5b60048260ff161115613469576040516329ba348d60e11b815260040160405180910390fd5b6000838152600c60205260409020600901805460ff191660ff84161790558261349181611f73565b60405160ff851681526001600160a01b0391909116907f454db5768a3f8187a5dd5e9cca100cf699d74d8a03f793d16da3932cdf34d35890602001612c9c565b6134d9613809565b63389a75e1600c52806000526020600c20805442111561350157636f5e88186000526004601cfd5b600090556119fb81613dba565b613516613809565b6000848152600f60205260409020848155600181016135358582615494565b50600281016135448482615494565b50600381016135538382615494565b505050505050565b613563613809565b8060601b61357957637448fbae6000526004601cfd5b6119fb81613dba565b606080606080606080600061359688612a58565b90506135a181612972565b601054604051631be5857160e31b81529298509096506001600160a01b03169063df2c2b88906135d5908490600401614dc8565b600060405180830381865afa1580156135f2573d6000803e3d6000fd5b505050506040513d6000823e601f3d908101601f1916820160405261361a91908101906156a0565b909450925061362888611253565b91506136556040518060800160405280606081526020016060815260200160608152602001600081525090565b610140820151815261366689612581565b51606082015261012082015160ff166000908152600f60205260409020600101805461369190614ffb565b80601f01602080910402602001604051908101604052809291908181526020018280546136bd90614ffb565b801561370a5780601f106136df5761010080835404028352916020019161370a565b820191906000526020600020905b8154815290600101906020018083116136ed57829003601f168201915b50505050508160200181905250613733896000908152600c60205260409020600b015460ff1690565b61375757604051806040016040528060028152602001610c9160f21b815250613773565b604051806040016040528060028152602001610cd160f21b8152505b6040808301919091526013549051630ed2eb5b60e41b81526001600160a01b039091169063ed2eb5b0906137b7908c908b908b908b908b908b908a90600401615617565b600060405180830381865afa1580156137d4573d6000803e3d6000fd5b505050506040513d6000823e601f3d908101601f191682016040526137fc919081019061507a565b9998505050505050505050565b638b78c6d81954331461210c576382b429006000526004601cfd5b60006001600160e01b0319821663780e9d6360e01b1480610e8a5750610e8a8261403f565b6000818152600260205260409020546001600160a01b03166119fb5760405162461bcd60e51b8152602060048201526018602482015277115490cdcc8c4e881a5b9d985b1a59081d1bdad95b88125160421b6044820152606401610fec565b600081815260046020526040902080546001600160a01b0319166001600160a01b03841690811790915581906138dd82611f73565b6001600160a01b03167f8c5be1e5ebec7d5bd14f71427d1e84f3dd0314c0f7b2291e5b200ac8c7c3b92560405160405180910390a45050565b60008061392283611f73565b9050806001600160a01b0316846001600160a01b0316148061396957506001600160a01b0380821660009081526005602090815260408083209388168352929052205460ff165b806121c95750836001600160a01b031661398284610f51565b6001600160a01b031614949350505050565b826001600160a01b03166139a782611f73565b6001600160a01b031614613a0b5760405162461bcd60e51b815260206004820152602560248201527f4552433732313a207472616e736665722066726f6d20696e636f72726563742060448201526437bbb732b960d91b6064820152608401610fec565b6001600160a01b038216613a6d5760405162461bcd60e51b8152602060048201526024808201527f4552433732313a207472616e7366657220746f20746865207a65726f206164646044820152637265737360e01b6064820152608401610fec565b613a7883838361408f565b613a836000826138a8565b6001600160a01b0383166000908152600360205260408120805460019290613aac9084906156f9565b90915550506001600160a01b0382166000908152600360205260408120805460019290613ada90849061570c565b909155505060008181526002602052604080822080546001600160a01b0319166001600160a01b0386811691821790925591518493918716917fddf252ad1be2c89b69c2b068fc378daa952ba7f163c4a11628f55a4df523b3ef91a4505050565b6000613b478383613bc0565b60105460405163e8a1268d60e01b8152600481018490526001600160a01b039091169063e8a1268d90602401602060405180830381865afa158015613b90573d6000803e3d6000fd5b505050506040513d601f19601f82011682018060405250810190613bb4919061571f565b9050610e8a8282613cb8565b81613bca81611f73565b6001600160a01b0316336001600160a01b031614613bfb576040516324adc17160e11b815260040160405180910390fd5b6000838152601a60205260408082205460105491516331a9108f60e11b8152600481018690526001600160a01b0391821693929190911690636352211e90602401602060405180830381865afa158015613c59573d6000803e3d6000fd5b505050506040513d601f19601f82011682018060405250810190613c7d919061525f565b9050816001600160a01b0316816001600160a01b031614613cb15760405163e6ca793160e01b815260040160405180910390fd5b5050505050565b60105460405163e8a1268d60e01b8152600481018490526000916001600160a01b03169063e8a1268d90602401602060405180830381865afa158015613d02573d6000803e3d6000fd5b505050506040513d601f19601f82011682018060405250810190613d26919061571f565b9050816007811115613d3a57613d3a615193565b604051602001613d4c91815260200190565b60405160208183030381529060405280519060200120816007811115613d7457613d74615193565b604051602001613d8691815260200190565b604051602081830303815290604052805190602001201461108d57604051633e54c6fb60e11b815260040160405180910390fd5b638b78c6d81980546001600160a01b039092169182907f8be0079c531659141344cd1fd0a4f28419497f9722a3daafe3b4186f6b6457e0600080a355565b6001600160a01b038216613e4e5760405162461bcd60e51b815260206004820181905260248201527f4552433732313a206d696e7420746f20746865207a65726f20616464726573736044820152606401610fec565b6000818152600260205260409020546001600160a01b031615613eb35760405162461bcd60e51b815260206004820152601c60248201527f4552433732313a20746f6b656e20616c7265616479206d696e746564000000006044820152606401610fec565b613ebf6000838361408f565b6001600160a01b0382166000908152600360205260408120805460019290613ee890849061570c565b909155505060008181526002602052604080822080546001600160a01b0319166001600160a01b03861690811790915590518392907fddf252ad1be2c89b69c2b068fc378daa952ba7f163c4a11628f55a4df523b3ef908290a45050565b816001600160a01b0316836001600160a01b031603613fa75760405162461bcd60e51b815260206004820152601960248201527f4552433732313a20617070726f766520746f2063616c6c6572000000000000006044820152606401610fec565b6001600160a01b03838116600081815260056020908152604080832094871680845294825291829020805460ff191686151590811790915591519182527f17307eab39ab6107e8899845ad3d59bd9653f200f220920489ca2b5937696c319101612c9c565b614017848484613994565b6140238484848461446a565b612a525760405162461bcd60e51b8152600401610fec9061573c565b60006001600160e01b031982166380ac58cd60e01b148061407057506001600160e01b03198216635b5e139f60e01b145b80610e8a57506301ffc9a760e01b6001600160e01b0319831614610e8a565b6001600160a01b0383166140a85761108d83838361456b565b6001600160a01b0382166000908152601b6020526040902054156140df57604051639a42da2960e01b815260040160405180910390fd5b6000818152601a602052604080822054601054915162438b6360e81b81526001600160a01b03918216600482018190529392919091169063438b630090602401600060405180830381865afa15801561413c573d6000803e3d6000fd5b505050506040513d6000823e601f3d908101601f19168201604052614164919081019061533f565b9050600061417185611a19565b9050600081516001600160401b0381111561418e5761418e614a06565b6040519080825280602002602001820160405280156141b7578160200160208202803683370190505b50905060005b825181101561423857601a60008483815181106141dc576141dc6150ae565b6020026020010151815260200190815260200160002060009054906101000a90046001600160a01b0316828281518110614218576142186150ae565b6001600160a01b03909216602092830291909101909101526001016141bd565b5060115460405163644ec52760e01b8152600481018790526001600160a01b039091169063644ec52790602401600060405180830381600087803b15801561427f57600080fd5b505af1158015614293573d6000803e3d6000fd5b5050601154604051631e92beb560e31b8152600481018990526001600160a01b038a81166024830152909116925063f495f5a89150604401600060405180830381600087803b1580156142e557600080fd5b505af11580156142f9573d6000803e3d6000fd5b5050505060005b835181101561445557600084828151811061431d5761431d6150ae565b6020908102919091010151601154604051632e1d274f60e01b8152600481018390529192506001600160a01b031690632e1d274f90602401600060405180830381600087803b15801561436f57600080fd5b505af1158015614383573d6000803e3d6000fd5b5050601154604051632333520b60e11b81526001600160a01b039091169250634666a41691506143b9908490879060040161578e565b600060405180830381600087803b1580156143d357600080fd5b505af11580156143e7573d6000803e3d6000fd5b505060105460405163487b1c2160e11b8152600481018590526001600160a01b0390911692506390f638429150602401600060405180830381600087803b15801561443157600080fd5b505af1158015614445573d6000803e3d6000fd5b5050505050806001019050614300565b5061446187878761456b565b50505050505050565b60006001600160a01b0384163b1561456057604051630a85bd0160e11b81526001600160a01b0385169063150b7a02906144ae9033908990889088906004016157e7565b6020604051808303816000875af19250505080156144e9575060408051601f3d908101601f191682019092526144e69181019061581a565b60015b614546573d808015614517576040519150601f19603f3d011682016040523d82523d6000602084013e61451c565b606091505b50805160000361453e5760405162461bcd60e51b8152600401610fec9061573c565b805181602001fd5b6001600160e01b031916630a85bd0160e11b1490506121c9565b506001949350505050565b6001600160a01b0383166145c6576145c181600880546000838152600960205260408120829055600182018355919091527ff3f7a9fe364faab93b216da50a3214154f22a0a2b415b23a84c8169e8b636ee30155565b6145e9565b816001600160a01b0316836001600160a01b0316146145e9576145e98382614623565b6001600160a01b0382166146005761108d816146c0565b826001600160a01b0316826001600160a01b03161461108d5761108d828261476f565b6000600161463084612074565b61463a91906156f9565b60008381526007602052604090205490915080821461468d576001600160a01b03841660009081526006602090815260408083208584528252808320548484528184208190558352600790915290208190555b5060009182526007602090815260408084208490556001600160a01b039094168352600681528383209183525290812055565b6008546000906146d2906001906156f9565b600083815260096020526040812054600880549394509092849081106146fa576146fa6150ae565b90600052602060002001549050806008838154811061471b5761471b6150ae565b600091825260208083209091019290925582815260099091526040808220849055858252812055600880548061475357614753615837565b6001900381819060005260206000200160009055905550505050565b600061477a83612074565b6001600160a01b039093166000908152600660209081526040808320868452825280832085905593825260079052919091209190915550565b6001600160a01b03811681146119fb57600080fd5b6000602082840312156147da57600080fd5b81356122cd816147b3565b6001600160e01b0319811681146119fb57600080fd5b60006020828403121561480d57600080fd5b81356122cd816147e5565b60006020828403121561482a57600080fd5b5035919050565b60005b8381101561484c578181015183820152602001614834565b50506000910152565b6000815180845261486d816020860160208601614831565b601f01601f19169290920160200192915050565b6020815260006122cd6020830184614855565b600080604083850312156148a757600080fd5b82356148b2816147b3565b946020939093013593505050565b8481526080602082015260006148d96080830186614855565b82810360408401526148eb8186614855565b905082810360608401526148ff8185614855565b979650505050505050565b60008060006060848603121561491f57600080fd5b833561492a816147b3565b9250602084013561493a816147b3565b929592945050506040919091013590565b6000806040838503121561495e57600080fd5b50508035926020909101359150565b6020808252825182820181905260009190848201906040850190845b818110156149a557835183529284019291840191600101614989565b50909695505050505050565b600080600080600080600080610100898b0312156149ce57600080fd5b505086359860208801359850604088013597606081013597506080810135965060a0810135955060c0810135945060e0013592509050565b634e487b7160e01b600052604160045260246000fd5b60405161018081016001600160401b0381118282101715614a3f57614a3f614a06565b60405290565b604051601f8201601f191681016001600160401b0381118282101715614a6d57614a6d614a06565b604052919050565b803563ffffffff81168114614a8957600080fd5b919050565b803560ff81168114614a8957600080fd5b60006001600160401b03821115614ab857614ab8614a06565b50601f01601f191660200190565b600082601f830112614ad757600080fd5b8135614aea614ae582614a9f565b614a45565b818152846020838601011115614aff57600080fd5b816020850160208301376000918101602001919091529392505050565b80358015158114614a8957600080fd5b600060208284031215614b3e57600080fd5b81356001600160401b0380821115614b5557600080fd5b908301906101808286031215614b6a57600080fd5b614b72614a1c565b823581526020830135602082015260408301356040820152606083013560608201526080830135608082015260a083013560a082015260c083013560c0820152614bbe60e08401614a75565b60e08201526101008381013590820152610120614bdc818501614a8e565b908201526101408381013583811115614bf457600080fd5b614c0088828701614ac6565b8284015250506101609150614c16828401614b1c565b91810191909152949350505050565b606081526000614c386060830186614855565b8281036020840152614c4a8186614855565b9050828103604084015261148d8185614855565b6000806000806000806000806000806101408b8d031215614c7e57600080fd5b8a35995060208b0135985060408b0135975060608b0135965060808b0135955060a08b0135945060c08b0135935060e08b01359250614cc06101008c01614a8e565b91506101208b01356001600160401b03811115614cdc57600080fd5b614ce88d828e01614ac6565b9150509295989b9194979a5092959850565b60008060408385031215614d0d57600080fd5b8235614d18816147b3565b9150614d2660208401614b1c565b90509250929050565b604081526000614d426040830185614855565b8281036020840152614d548185614855565b95945050505050565b60008060008060808587031215614d7357600080fd5b8435614d7e816147b3565b93506020850135614d8e816147b3565b92506040850135915060608501356001600160401b03811115614db057600080fd5b614dbc87828801614ac6565b91505092959194509250565b6020815281516020820152602082015160408201526040820151606082015260608201516080820152608082015160a082015260a082015160c082015260c082015160e0820152600060e0830151610100614e2a8185018363ffffffff169052565b840151610120848101919091528401519050610140614e4d8185018360ff169052565b808501519150506101806101608181860152614e6d6101a0860184614855565b95015115159301929092525090919050565b60008060408385031215614e9257600080fd5b82359150614d2660208401614b1c565b600881106119fb57600080fd5b60008060408385031215614ec257600080fd5b823591506020830135614ed481614ea2565b809150509250929050565b60008060408385031215614ef257600080fd5b8235915060208301356001600160401b03811115614f0f57600080fd5b614f1b85828601614ac6565b9150509250929050565b60008060408385031215614f3857600080fd5b82359150614d2660208401614a8e565b60008060408385031215614f5b57600080fd5b8235614f66816147b3565b91506020830135614ed4816147b3565b60008060008060808587031215614f8c57600080fd5b8435935060208501356001600160401b0380821115614faa57600080fd5b614fb688838901614ac6565b94506040870135915080821115614fcc57600080fd5b614fd888838901614ac6565b93506060870135915080821115614fee57600080fd5b50614dbc87828801614ac6565b600181811c9082168061500f57607f821691505b60208210810361502f57634e487b7160e01b600052602260045260246000fd5b50919050565b600082601f83011261504657600080fd5b8151615054614ae582614a9f565b81815284602083860101111561506957600080fd5b6121c9826020830160208701614831565b60006020828403121561508c57600080fd5b81516001600160401b038111156150a257600080fd5b6121c984828501615035565b634e487b7160e01b600052603260045260246000fd5b6080815260006150d76080830187614855565b6020838203818501528187518084528284019150828160051b850101838a0160005b8381101561512757601f19878403018552615115838351614855565b948601949250908501906001016150f9565b50506040870198909852505050506060909101919091525092915050565b6020808252602e908201527f4552433732313a2063616c6c6572206973206e6f7420746f6b656e206f776e6560408201526d1c881b9bdc88185c1c1c9bdd995960921b606082015260800190565b634e487b7160e01b600052602160045260246000fd5b6000806000606084860312156151be57600080fd5b83516001600160401b03808211156151d557600080fd5b6151e187838801615035565b945060208601519150808211156151f757600080fd5b61520387838801615035565b9350604086015191508082111561521957600080fd5b5061522686828701615035565b9150509250925092565b60008351615242818460208801614831565b835190830190615256818360208801614831565b01949350505050565b60006020828403121561527157600080fd5b81516122cd816147b3565b6000815461528981614ffb565b8085526020600183811680156152a657600181146152c0576152ee565b60ff1985168884015283151560051b8801830195506152ee565b866000528260002060005b858110156152e65781548a82018601529083019084016152cb565b890184019650505b505050505092915050565b6020815260006122cd602083018461527c565b604081526009604082015268426f6479205479706560b81b60608201526080602082015260006122cd608083018461527c565b6000602080838503121561535257600080fd5b82516001600160401b038082111561536957600080fd5b818501915085601f83011261537d57600080fd5b81518181111561538f5761538f614a06565b8060051b91506153a0848301614a45565b81815291830184019184810190888411156153ba57600080fd5b938501935b838510156153d8578451825293850193908501906153bf565b98975050505050505050565b634e487b7160e01b600052601160045260246000fd5b8082028115828204841417610e8a57610e8a6153e4565b600060018201615423576154236153e4565b5060010190565b60008261544757634e487b7160e01b600052601260045260246000fd5b500690565b601f82111561108d576000816000526020600020601f850160051c810160208610156154755750805b601f850160051c820191505b8181101561355357828155600101615481565b81516001600160401b038111156154ad576154ad614a06565b6154c1816154bb8454614ffb565b8461544c565b602080601f8311600181146154f657600084156154de5750858301515b600019600386901b1c1916600185901b178555613553565b600085815260208120601f198616915b8281101561552557888601518255948401946001909101908401615506565b50858210156155435787850151600019600388901b60f8161c191681555b5050505050600190811b01905550565b6d2261747472696275746573223a5b60901b8152825160009061557d81600e850160208801614831565b600b60fa1b600e91840191820152835161559e81600f840160208801614831565b605d60f81b600f9290910191820152601001949350505050565b60008151608084526155cd6080850182614855565b9050602083015184820360208601526155e68282614855565b915050604083015184820360408601526156008282614855565b915050606083015160608501528091505092915050565b87815260e06020820152600061563060e0830189614855565b82810360408401526156428189614855565b905082810360608401526156568188614855565b9050828103608084015261566a8187614855565b905082810360a084015261567e8186614855565b905082810360c084015261569281856155b8565b9a9950505050505050505050565b600080604083850312156156b357600080fd5b82516001600160401b03808211156156ca57600080fd5b6156d686838701615035565b935060208501519150808211156156ec57600080fd5b50614f1b85828601615035565b81810381811115610e8a57610e8a6153e4565b80820180821115610e8a57610e8a6153e4565b60006020828403121561573157600080fd5b81516122cd81614ea2565b60208082526032908201527f4552433732313a207472616e7366657220746f206e6f6e20455243373231526560408201527131b2b4bb32b91034b6b83632b6b2b73a32b960711b606082015260800190565b60006040820184835260206040602085015281855180845260608601915060208701935060005b818110156157da5784516001600160a01b0316835293830193918301916001016157b5565b5090979650505050505050565b6001600160a01b038581168252841660208201526040810183905260806060820181905260009061148d90830184614855565b60006020828403121561582c57600080fd5b81516122cd816147e5565b634e487b7160e01b600052603160045260246000fdfec94c1c47471ed97c1d309bab965192a3e4be3807f42d015b699bfbdcf24dd9f6a26469706673582212208b16008e6b7c1b80d25d682dd8d89fb723fc378f9694fbed2c20e4d45bca3be764736f6c63430008160033","linkReferences":{}},"methodIdentifiers":{"_debugPostConstructorMint()":"9c7be2f1","_nextTokenId()":"4a60f620","addNewBody(uint256,string,bytes,bytes)":"f2361e23","approve(address,uint256)":"095ea7b3","balanceOf(address)":"70a08231","bodyIndexToMetadata(uint256)":"0c83f9d7","cancelOwnershipHandover()":"54d1f13d","checkIfTraitIsEquipped(uint256,uint256)":"8aa1e4c8","chonkIdToApprovedOperators(uint256,uint256)":"55737f35","completeOwnershipHandover(address)":"f04e283e","equip(uint256,uint256)":"28257532","equipAll(uint256,uint256,uint256,uint256,uint256,uint256,uint256,uint256)":"4a4333a3","firstSeasonRenderMinter()":"13ea0ae3","getApproved(uint256)":"081812fc","getBackpackSVGs(uint256)":"14fe8ff4","getBodyImageSvg(uint256)":"916c546b","getBodySVGZmapsAndMetadata((uint256,uint256,uint256,uint256,uint256,uint256,uint256,uint32,uint256,uint8,string,bool))":"92012f08","getBodySvgAndMetadata((uint256,uint256,uint256,uint256,uint256,uint256,uint256,uint32,uint256,uint8,string,bool))":"a23830ae","getBodyZMap(uint256)":"306c7334","getFullPictureForTrait(uint256)":"66704349","getOwnerAndTBAAddressForChonkId(uint256)":"04003bd0","getPeter(uint256)":"be928ff6","getPeterZMap(uint256)":"2bd1ca45","getTBAAddressForChonkId(uint256)":"f6a0c932","getTokenRenderZ(uint256)":"8200ea51","getTraitTokens(address)":"998cfb6e","getTraitsForChonkId(uint256)":"9f6e4637","isApprovedForAll(address,address)":"e985e9c5","mainRenderer2D()":"f4bec0b6","mainRenderer3D()":"b66ef6e3","marketplace()":"abc8c7af","maxTraitsToOutput()":"e3d21555","mint(uint256)":"a0712d68","mintStartTime()":"931e2e49","name()":"06fdde03","owner()":"8da5cb5b","ownerOf(uint256)":"6352211e","ownershipHandoverExpiresAt(address)":"fee81cf4","peterMakeover(uint256,uint256,uint256,uint256,uint256,uint256,uint256,uint256,uint8,string)":"93ccba72","price()":"a035b1fe","renderAsDataUri(uint256)":"a1d62680","renderAsDataUri2D(uint256)":"f3f8efb9","renderAsDataUri3D(uint256)":"dceef0ec","renounceOwnership()":"715018a6","requestOwnershipHandover()":"25692962","safeTransferFrom(address,address,uint256)":"42842e0e","safeTransferFrom(address,address,uint256,bytes)":"b88d4fde","setApprovalForAll(address,bool)":"a22cb465","setBackgroundColor(uint256,string)":"d68c4f32","setBodyIndex(uint256,uint8)":"e1405540","setFirstSeasonRenderMinter(address)":"58a97640","setMainRenderer2D(address)":"7e2e6c47","setMainRenderer3D(address)":"00179206","setMarketplace(address)":"73ad6c2d","setMaxTraitsToOutput(uint256)":"33d3d9bf","setMintStartTime(uint256)":"d5b3621b","setPrice(uint256)":"91b7f5ed","setTokenRender3D(uint256,bool)":"bef1dfb7","setTraitsContract(address)":"5eabd84a","setWithdrawAddress(address)":"3ab1a494","supportsInterface(bytes4)":"01ffc9a7","symbol()":"95d89b41","tbaAddressToTokenId(address)":"a4bf9a00","tokenByIndex(uint256)":"4f6ccce7","tokenIdToTBAAccountAddress(uint256)":"9c05d68d","tokenOfOwnerByIndex(address,uint256)":"2f745c59","tokenURI(uint256)":"c87b56dd","totalSupply()":"18160ddd","traitsContract()":"c093afdb","transferFrom(address,address,uint256)":"23b872dd","transferOwnership(address)":"f2fde38b","unequip(uint256,uint8)":"cdb6dd5c","unequipAll(uint256)":"3044825b","walletOfOwner(address)":"438b6300","withdraw()":"3ccfd60b","withdrawAddress()":"1581b600"},"id":45}