{"abi":[{"type":"constructor","inputs":[{"name":"localDeploy_","type":"bool","internalType":"bool"}],"stateMutability":"nonpayable"},{"type":"function","name":"_debugPostConstructorMint","inputs":[],"outputs":[],"stateMutability":"nonpayable"},{"type":"function","name":"_nextTokenId","inputs":[],"outputs":[{"name":"","type":"uint256","internalType":"uint256"}],"stateMutability":"view"},{"type":"function","name":"addNewBody","inputs":[{"name":"_bodyIndex","type":"uint256","internalType":"uint256"},{"name":"_bodyName","type":"string","internalType":"string"},{"name":"_colorMap","type":"bytes","internalType":"bytes"},{"name":"_zMap","type":"bytes","internalType":"bytes"}],"outputs":[],"stateMutability":"nonpayable"},{"type":"function","name":"approve","inputs":[{"name":"_operator","type":"address","internalType":"address"},{"name":"_chonkId","type":"uint256","internalType":"uint256"}],"outputs":[],"stateMutability":"nonpayable"},{"type":"function","name":"balanceOf","inputs":[{"name":"owner","type":"address","internalType":"address"}],"outputs":[{"name":"","type":"uint256","internalType":"uint256"}],"stateMutability":"view"},{"type":"function","name":"bodyIndexToMetadata","inputs":[{"name":"","type":"uint256","internalType":"uint256"}],"outputs":[{"name":"bodyIndex","type":"uint256","internalType":"uint256"},{"name":"bodyName","type":"string","internalType":"string"},{"name":"colorMap","type":"bytes","internalType":"bytes"},{"name":"zMap","type":"bytes","internalType":"bytes"}],"stateMutability":"view"},{"type":"function","name":"cancelOwnershipHandover","inputs":[],"outputs":[],"stateMutability":"payable"},{"type":"function","name":"checkIfTraitIsEquipped","inputs":[{"name":"_chonkId","type":"uint256","internalType":"uint256"},{"name":"_traitId","type":"uint256","internalType":"uint256"}],"outputs":[{"name":"","type":"bool","internalType":"bool"}],"stateMutability":"view"},{"type":"function","name":"chonkIdToApprovedOperators","inputs":[{"name":"chonkId","type":"uint256","internalType":"uint256"},{"name":"","type":"uint256","internalType":"uint256"}],"outputs":[{"name":"operators","type":"address","internalType":"address"}],"stateMutability":"view"},{"type":"function","name":"completeOwnershipHandover","inputs":[{"name":"pendingOwner","type":"address","internalType":"address"}],"outputs":[],"stateMutability":"payable"},{"type":"function","name":"equip","inputs":[{"name":"_peterTokenId","type":"uint256","internalType":"uint256"},{"name":"_traitTokenId","type":"uint256","internalType":"uint256"}],"outputs":[],"stateMutability":"nonpayable"},{"type":"function","name":"equipAll","inputs":[{"name":"_peterTokenId","type":"uint256","internalType":"uint256"},{"name":"_headTokenId","type":"uint256","internalType":"uint256"},{"name":"_hairTokenId","type":"uint256","internalType":"uint256"},{"name":"_faceTokenId","type":"uint256","internalType":"uint256"},{"name":"_accessoryTokenId","type":"uint256","internalType":"uint256"},{"name":"_topTokenId","type":"uint256","internalType":"uint256"},{"name":"_bottomTokenId","type":"uint256","internalType":"uint256"},{"name":"_shoesTokenId","type":"uint256","internalType":"uint256"}],"outputs":[],"stateMutability":"nonpayable"},{"type":"function","name":"firstSeasonRenderMinter","inputs":[],"outputs":[{"name":"","type":"address","internalType":"contract FirstSeasonRenderMinter"}],"stateMutability":"view"},{"type":"function","name":"getApproved","inputs":[{"name":"tokenId","type":"uint256","internalType":"uint256"}],"outputs":[{"name":"","type":"address","internalType":"address"}],"stateMutability":"view"},{"type":"function","name":"getBackpackSVGs","inputs":[{"name":"_tokenId","type":"uint256","internalType":"uint256"}],"outputs":[{"name":"","type":"string","internalType":"string"}],"stateMutability":"view"},{"type":"function","name":"getBodyImageSvg","inputs":[{"name":"_index","type":"uint256","internalType":"uint256"}],"outputs":[{"name":"svg","type":"string","internalType":"string"}],"stateMutability":"view"},{"type":"function","name":"getBodySVGZmapsAndMetadata","inputs":[{"name":"storedPeter","type":"tuple","internalType":"struct IPeterStorage.StoredPeter","components":[{"name":"headId","type":"uint256","internalType":"uint256"},{"name":"hairId","type":"uint256","internalType":"uint256"},{"name":"faceId","type":"uint256","internalType":"uint256"},{"name":"accessoryId","type":"uint256","internalType":"uint256"},{"name":"topId","type":"uint256","internalType":"uint256"},{"name":"bottomId","type":"uint256","internalType":"uint256"},{"name":"shoesId","type":"uint256","internalType":"uint256"},{"name":"epoch","type":"uint32","internalType":"uint32"},{"name":"tokenId","type":"uint256","internalType":"uint256"},{"name":"bodyIndex","type":"uint8","internalType":"uint8"},{"name":"backgroundColor","type":"string","internalType":"string"},{"name":"render3D","type":"bool","internalType":"bool"}]}],"outputs":[{"name":"","type":"string","internalType":"string"},{"name":"","type":"bytes","internalType":"bytes"},{"name":"","type":"string","internalType":"string"}],"stateMutability":"view"},{"type":"function","name":"getBodySvgAndMetadata","inputs":[{"name":"storedPeter","type":"tuple","internalType":"struct IPeterStorage.StoredPeter","components":[{"name":"headId","type":"uint256","internalType":"uint256"},{"name":"hairId","type":"uint256","internalType":"uint256"},{"name":"faceId","type":"uint256","internalType":"uint256"},{"name":"accessoryId","type":"uint256","internalType":"uint256"},{"name":"topId","type":"uint256","internalType":"uint256"},{"name":"bottomId","type":"uint256","internalType":"uint256"},{"name":"shoesId","type":"uint256","internalType":"uint256"},{"name":"epoch","type":"uint32","internalType":"uint32"},{"name":"tokenId","type":"uint256","internalType":"uint256"},{"name":"bodyIndex","type":"uint8","internalType":"uint8"},{"name":"backgroundColor","type":"string","internalType":"string"},{"name":"render3D","type":"bool","internalType":"bool"}]}],"outputs":[{"name":"","type":"string","internalType":"string"},{"name":"","type":"string","internalType":"string"}],"stateMutability":"view"},{"type":"function","name":"getBodyZMap","inputs":[{"name":"_tokenId","type":"uint256","internalType":"uint256"}],"outputs":[{"name":"","type":"string","internalType":"string"}],"stateMutability":"view"},{"type":"function","name":"getChonkIdToApprovedOperators","inputs":[{"name":"_chonkId","type":"uint256","internalType":"uint256"}],"outputs":[{"name":"","type":"address[]","internalType":"address[]"}],"stateMutability":"view"},{"type":"function","name":"getFullPictureForTrait","inputs":[{"name":"_chonkTraitTokenId","type":"uint256","internalType":"uint256"}],"outputs":[{"name":"traitOwnerTBA","type":"address","internalType":"address"},{"name":"chonkTokenId","type":"uint256","internalType":"uint256"},{"name":"chonkOwner","type":"address","internalType":"address"},{"name":"isEquipped","type":"bool","internalType":"bool"}],"stateMutability":"view"},{"type":"function","name":"getOwnerAndTBAAddressForChonkId","inputs":[{"name":"_chonkId","type":"uint256","internalType":"uint256"}],"outputs":[{"name":"owner","type":"address","internalType":"address"},{"name":"tbaAddress","type":"address","internalType":"address"}],"stateMutability":"view"},{"type":"function","name":"getPeter","inputs":[{"name":"_tokenId","type":"uint256","internalType":"uint256"}],"outputs":[{"name":"","type":"tuple","internalType":"struct IPeterStorage.StoredPeter","components":[{"name":"headId","type":"uint256","internalType":"uint256"},{"name":"hairId","type":"uint256","internalType":"uint256"},{"name":"faceId","type":"uint256","internalType":"uint256"},{"name":"accessoryId","type":"uint256","internalType":"uint256"},{"name":"topId","type":"uint256","internalType":"uint256"},{"name":"bottomId","type":"uint256","internalType":"uint256"},{"name":"shoesId","type":"uint256","internalType":"uint256"},{"name":"epoch","type":"uint32","internalType":"uint32"},{"name":"tokenId","type":"uint256","internalType":"uint256"},{"name":"bodyIndex","type":"uint8","internalType":"uint8"},{"name":"backgroundColor","type":"string","internalType":"string"},{"name":"render3D","type":"bool","internalType":"bool"}]}],"stateMutability":"view"},{"type":"function","name":"getPeterZMap","inputs":[{"name":"_tokenId","type":"uint256","internalType":"uint256"}],"outputs":[{"name":"","type":"string","internalType":"string"}],"stateMutability":"view"},{"type":"function","name":"getTBAAddressForChonkId","inputs":[{"name":"_chonkId","type":"uint256","internalType":"uint256"}],"outputs":[{"name":"","type":"address","internalType":"address"}],"stateMutability":"view"},{"type":"function","name":"getTokenRenderZ","inputs":[{"name":"_peterTokenId","type":"uint256","internalType":"uint256"}],"outputs":[{"name":"","type":"bool","internalType":"bool"}],"stateMutability":"view"},{"type":"function","name":"getTraitTokens","inputs":[{"name":"_tbaAddress","type":"address","internalType":"address"}],"outputs":[{"name":"","type":"uint256[]","internalType":"uint256[]"}],"stateMutability":"view"},{"type":"function","name":"getTraitsForChonkId","inputs":[{"name":"_chonkId","type":"uint256","internalType":"uint256"}],"outputs":[{"name":"traitTokens","type":"uint256[]","internalType":"uint256[]"}],"stateMutability":"view"},{"type":"function","name":"isApprovedForAll","inputs":[{"name":"owner","type":"address","internalType":"address"},{"name":"operator","type":"address","internalType":"address"}],"outputs":[{"name":"","type":"bool","internalType":"bool"}],"stateMutability":"view"},{"type":"function","name":"mainRenderer2D","inputs":[],"outputs":[{"name":"","type":"address","internalType":"contract MainRenderer2D"}],"stateMutability":"view"},{"type":"function","name":"mainRenderer3D","inputs":[],"outputs":[{"name":"","type":"address","internalType":"contract MainRenderer3D"}],"stateMutability":"view"},{"type":"function","name":"marketplace","inputs":[],"outputs":[{"name":"","type":"address","internalType":"contract ChonksMarket"}],"stateMutability":"view"},{"type":"function","name":"maxTraitsToOutput","inputs":[],"outputs":[{"name":"","type":"uint256","internalType":"uint256"}],"stateMutability":"view"},{"type":"function","name":"mint","inputs":[{"name":"_amount","type":"uint256","internalType":"uint256"}],"outputs":[],"stateMutability":"payable"},{"type":"function","name":"mintStartTime","inputs":[],"outputs":[{"name":"","type":"uint256","internalType":"uint256"}],"stateMutability":"view"},{"type":"function","name":"name","inputs":[],"outputs":[{"name":"","type":"string","internalType":"string"}],"stateMutability":"view"},{"type":"function","name":"owner","inputs":[],"outputs":[{"name":"result","type":"address","internalType":"address"}],"stateMutability":"view"},{"type":"function","name":"ownerOf","inputs":[{"name":"tokenId","type":"uint256","internalType":"uint256"}],"outputs":[{"name":"","type":"address","internalType":"address"}],"stateMutability":"view"},{"type":"function","name":"ownershipHandoverExpiresAt","inputs":[{"name":"pendingOwner","type":"address","internalType":"address"}],"outputs":[{"name":"result","type":"uint256","internalType":"uint256"}],"stateMutability":"view"},{"type":"function","name":"peterMakeover","inputs":[{"name":"_peterTokenId","type":"uint256","internalType":"uint256"},{"name":"_headTokenId","type":"uint256","internalType":"uint256"},{"name":"_hairTokenId","type":"uint256","internalType":"uint256"},{"name":"_faceTokenId","type":"uint256","internalType":"uint256"},{"name":"_accessoryTokenId","type":"uint256","internalType":"uint256"},{"name":"_topTokenId","type":"uint256","internalType":"uint256"},{"name":"_bottomTokenId","type":"uint256","internalType":"uint256"},{"name":"_shoesTokenId","type":"uint256","internalType":"uint256"},{"name":"_bodyIndex","type":"uint8","internalType":"uint8"},{"name":"_backgroundColor","type":"string","internalType":"string"}],"outputs":[],"stateMutability":"nonpayable"},{"type":"function","name":"price","inputs":[],"outputs":[{"name":"","type":"uint256","internalType":"uint256"}],"stateMutability":"view"},{"type":"function","name":"renderAsDataUri","inputs":[{"name":"_tokenId","type":"uint256","internalType":"uint256"}],"outputs":[{"name":"","type":"string","internalType":"string"}],"stateMutability":"view"},{"type":"function","name":"renderAsDataUri2D","inputs":[{"name":"_tokenId","type":"uint256","internalType":"uint256"}],"outputs":[{"name":"","type":"string","internalType":"string"}],"stateMutability":"view"},{"type":"function","name":"renderAsDataUri3D","inputs":[{"name":"_tokenId","type":"uint256","internalType":"uint256"}],"outputs":[{"name":"","type":"string","internalType":"string"}],"stateMutability":"view"},{"type":"function","name":"renounceOwnership","inputs":[],"outputs":[],"stateMutability":"payable"},{"type":"function","name":"requestOwnershipHandover","inputs":[],"outputs":[],"stateMutability":"payable"},{"type":"function","name":"safeTransferFrom","inputs":[{"name":"from","type":"address","internalType":"address"},{"name":"to","type":"address","internalType":"address"},{"name":"tokenId","type":"uint256","internalType":"uint256"}],"outputs":[],"stateMutability":"nonpayable"},{"type":"function","name":"safeTransferFrom","inputs":[{"name":"from","type":"address","internalType":"address"},{"name":"to","type":"address","internalType":"address"},{"name":"tokenId","type":"uint256","internalType":"uint256"},{"name":"data","type":"bytes","internalType":"bytes"}],"outputs":[],"stateMutability":"nonpayable"},{"type":"function","name":"setApprovalForAll","inputs":[{"name":"_operator","type":"address","internalType":"address"},{"name":"_approved","type":"bool","internalType":"bool"}],"outputs":[],"stateMutability":"nonpayable"},{"type":"function","name":"setApprovalForAllChonksMarketplace","inputs":[{"name":"_chonkId","type":"uint256","internalType":"uint256"},{"name":"_operator","type":"address","internalType":"address"},{"name":"_approved","type":"bool","internalType":"bool"}],"outputs":[],"stateMutability":"nonpayable"},{"type":"function","name":"setBackgroundColor","inputs":[{"name":"_peterTokenId","type":"uint256","internalType":"uint256"},{"name":"_color","type":"string","internalType":"string"}],"outputs":[],"stateMutability":"nonpayable"},{"type":"function","name":"setBodyIndex","inputs":[{"name":"_peterTokenId","type":"uint256","internalType":"uint256"},{"name":"_bodyIndex","type":"uint8","internalType":"uint8"}],"outputs":[],"stateMutability":"nonpayable"},{"type":"function","name":"setFirstSeasonRenderMinter","inputs":[{"name":"_dataContract","type":"address","internalType":"address"}],"outputs":[],"stateMutability":"nonpayable"},{"type":"function","name":"setMainRenderer2D","inputs":[{"name":"_mainRenderer2D","type":"address","internalType":"address"}],"outputs":[],"stateMutability":"nonpayable"},{"type":"function","name":"setMainRenderer3D","inputs":[{"name":"_mainRenderer3D","type":"address","internalType":"address"}],"outputs":[],"stateMutability":"nonpayable"},{"type":"function","name":"setMarketplace","inputs":[{"name":"_marketplace","type":"address","internalType":"address"}],"outputs":[],"stateMutability":"nonpayable"},{"type":"function","name":"setMaxTraitsToOutput","inputs":[{"name":"_maxTraitsToOutput","type":"uint256","internalType":"uint256"}],"outputs":[],"stateMutability":"nonpayable"},{"type":"function","name":"setMintStartTime","inputs":[{"name":"_mintStartTime","type":"uint256","internalType":"uint256"}],"outputs":[],"stateMutability":"nonpayable"},{"type":"function","name":"setPrice","inputs":[{"name":"_priceInWei","type":"uint256","internalType":"uint256"}],"outputs":[],"stateMutability":"nonpayable"},{"type":"function","name":"setTokenRender3D","inputs":[{"name":"_peterTokenId","type":"uint256","internalType":"uint256"},{"name":"_render3D","type":"bool","internalType":"bool"}],"outputs":[],"stateMutability":"nonpayable"},{"type":"function","name":"setTraitsContract","inputs":[{"name":"_address","type":"address","internalType":"contract PeterTraits"}],"outputs":[],"stateMutability":"nonpayable"},{"type":"function","name":"setWithdrawAddress","inputs":[{"name":"_withdrawAddress","type":"address","internalType":"address"}],"outputs":[],"stateMutability":"nonpayable"},{"type":"function","name":"supportsInterface","inputs":[{"name":"interfaceId","type":"bytes4","internalType":"bytes4"}],"outputs":[{"name":"","type":"bool","internalType":"bool"}],"stateMutability":"view"},{"type":"function","name":"symbol","inputs":[],"outputs":[{"name":"","type":"string","internalType":"string"}],"stateMutability":"view"},{"type":"function","name":"tbaAddressToTokenId","inputs":[{"name":"","type":"address","internalType":"address"}],"outputs":[{"name":"","type":"uint256","internalType":"uint256"}],"stateMutability":"view"},{"type":"function","name":"tokenByIndex","inputs":[{"name":"index","type":"uint256","internalType":"uint256"}],"outputs":[{"name":"","type":"uint256","internalType":"uint256"}],"stateMutability":"view"},{"type":"function","name":"tokenIdToTBAAccountAddress","inputs":[{"name":"","type":"uint256","internalType":"uint256"}],"outputs":[{"name":"","type":"address","internalType":"address"}],"stateMutability":"view"},{"type":"function","name":"tokenOfOwnerByIndex","inputs":[{"name":"owner","type":"address","internalType":"address"},{"name":"index","type":"uint256","internalType":"uint256"}],"outputs":[{"name":"","type":"uint256","internalType":"uint256"}],"stateMutability":"view"},{"type":"function","name":"tokenURI","inputs":[{"name":"_tokenId","type":"uint256","internalType":"uint256"}],"outputs":[{"name":"","type":"string","internalType":"string"}],"stateMutability":"view"},{"type":"function","name":"totalSupply","inputs":[],"outputs":[{"name":"","type":"uint256","internalType":"uint256"}],"stateMutability":"view"},{"type":"function","name":"traitsContract","inputs":[],"outputs":[{"name":"","type":"address","internalType":"contract PeterTraits"}],"stateMutability":"view"},{"type":"function","name":"transferFrom","inputs":[{"name":"from","type":"address","internalType":"address"},{"name":"to","type":"address","internalType":"address"},{"name":"tokenId","type":"uint256","internalType":"uint256"}],"outputs":[],"stateMutability":"nonpayable"},{"type":"function","name":"transferOwnership","inputs":[{"name":"newOwner","type":"address","internalType":"address"}],"outputs":[],"stateMutability":"payable"},{"type":"function","name":"unequip","inputs":[{"name":"_peterTokenId","type":"uint256","internalType":"uint256"},{"name":"traitType","type":"uint8","internalType":"enum TraitCategory.Name"}],"outputs":[],"stateMutability":"nonpayable"},{"type":"function","name":"unequipAll","inputs":[{"name":"_peterTokenId","type":"uint256","internalType":"uint256"}],"outputs":[],"stateMutability":"nonpayable"},{"type":"function","name":"walletOfOwner","inputs":[{"name":"_owner","type":"address","internalType":"address"}],"outputs":[{"name":"","type":"uint256[]","internalType":"uint256[]"}],"stateMutability":"view"},{"type":"function","name":"withdraw","inputs":[],"outputs":[],"stateMutability":"nonpayable"},{"type":"function","name":"withdrawAddress","inputs":[],"outputs":[{"name":"","type":"address","internalType":"address"}],"stateMutability":"view"},{"type":"event","name":"Approval","inputs":[{"name":"owner","type":"address","indexed":true,"internalType":"address"},{"name":"approved","type":"address","indexed":true,"internalType":"address"},{"name":"tokenId","type":"uint256","indexed":true,"internalType":"uint256"}],"anonymous":false},{"type":"event","name":"ApprovalForAll","inputs":[{"name":"owner","type":"address","indexed":true,"internalType":"address"},{"name":"operator","type":"address","indexed":true,"internalType":"address"},{"name":"approved","type":"bool","indexed":false,"internalType":"bool"}],"anonymous":false},{"type":"event","name":"BackgroundColor","inputs":[{"name":"owner","type":"address","indexed":true,"internalType":"address"},{"name":"tokenId","type":"uint256","indexed":true,"internalType":"uint256"},{"name":"color","type":"string","indexed":false,"internalType":"string"}],"anonymous":false},{"type":"event","name":"BatchMetadataUpdate","inputs":[{"name":"_fromTokenId","type":"uint256","indexed":false,"internalType":"uint256"},{"name":"_toTokenId","type":"uint256","indexed":false,"internalType":"uint256"}],"anonymous":false},{"type":"event","name":"BodyIndex","inputs":[{"name":"owner","type":"address","indexed":true,"internalType":"address"},{"name":"tokenId","type":"uint256","indexed":true,"internalType":"uint256"},{"name":"_bodyIndex","type":"uint8","indexed":false,"internalType":"uint8"}],"anonymous":false},{"type":"event","name":"Equip","inputs":[{"name":"owner","type":"address","indexed":true,"internalType":"address"},{"name":"tokenId","type":"uint256","indexed":true,"internalType":"uint256"},{"name":"traitTokenId","type":"uint256","indexed":true,"internalType":"uint256"},{"name":"traitCategory","type":"uint8","indexed":false,"internalType":"uint8"}],"anonymous":false},{"type":"event","name":"EquipAll","inputs":[{"name":"owner","type":"address","indexed":true,"internalType":"address"},{"name":"tokenId","type":"uint256","indexed":true,"internalType":"uint256"}],"anonymous":false},{"type":"event","name":"MetadataUpdate","inputs":[{"name":"_tokenId","type":"uint256","indexed":false,"internalType":"uint256"}],"anonymous":false},{"type":"event","name":"Mint","inputs":[{"name":"owner","type":"address","indexed":true,"internalType":"address"},{"name":"tokenId","type":"uint256","indexed":true,"internalType":"uint256"}],"anonymous":false},{"type":"event","name":"OwnershipHandoverCanceled","inputs":[{"name":"pendingOwner","type":"address","indexed":true,"internalType":"address"}],"anonymous":false},{"type":"event","name":"OwnershipHandoverRequested","inputs":[{"name":"pendingOwner","type":"address","indexed":true,"internalType":"address"}],"anonymous":false},{"type":"event","name":"OwnershipTransferred","inputs":[{"name":"oldOwner","type":"address","indexed":true,"internalType":"address"},{"name":"newOwner","type":"address","indexed":true,"internalType":"address"}],"anonymous":false},{"type":"event","name":"Render3D","inputs":[{"name":"owner","type":"address","indexed":true,"internalType":"address"},{"name":"tokenId","type":"uint256","indexed":true,"internalType":"uint256"},{"name":"renderZ","type":"bool","indexed":false,"internalType":"bool"}],"anonymous":false},{"type":"event","name":"Transfer","inputs":[{"name":"from","type":"address","indexed":true,"internalType":"address"},{"name":"to","type":"address","indexed":true,"internalType":"address"},{"name":"tokenId","type":"uint256","indexed":true,"internalType":"uint256"}],"anonymous":false},{"type":"event","name":"Unequip","inputs":[{"name":"owner","type":"address","indexed":true,"internalType":"address"},{"name":"tokenId","type":"uint256","indexed":true,"internalType":"uint256"},{"name":"traitCategory","type":"uint8","indexed":false,"internalType":"uint8"}],"anonymous":false},{"type":"event","name":"UnequipAll","inputs":[{"name":"owner","type":"address","indexed":true,"internalType":"address"},{"name":"tokenId","type":"uint256","indexed":true,"internalType":"uint256"}],"anonymous":false},{"type":"error","name":"AlreadyInitialized","inputs":[]},{"type":"error","name":"BodyAlreadyExists","inputs":[]},{"type":"error","name":"CantBeZero","inputs":[]},{"type":"error","name":"CantTransfer","inputs":[]},{"type":"error","name":"CantTransferToTBAs","inputs":[]},{"type":"error","name":"FirstSeasonRenderMinterNotSet","inputs":[]},{"type":"error","name":"IncorrectPeterOwner","inputs":[]},{"type":"error","name":"IncorrectTBAOwner","inputs":[]},{"type":"error","name":"IncorrectTraitType","inputs":[]},{"type":"error","name":"InsufficientFunds","inputs":[]},{"type":"error","name":"InvalidBodyIndex","inputs":[]},{"type":"error","name":"InvalidColor","inputs":[]},{"type":"error","name":"InvalidLevelAmount","inputs":[]},{"type":"error","name":"InvalidSignature","inputs":[]},{"type":"error","name":"MintEnded","inputs":[]},{"type":"error","name":"MintNotStarted","inputs":[]},{"type":"error","name":"NewOwnerIsZeroAddress","inputs":[]},{"type":"error","name":"NoHandoverRequest","inputs":[]},{"type":"error","name":"NonceAlreadyUsed","inputs":[]},{"type":"error","name":"PeterDoesntExist","inputs":[]},{"type":"error","name":"Unauthorized","inputs":[]},{"type":"error","name":"UseUnequip","inputs":[]},{"type":"error","name":"WithdrawFailed","inputs":[]},{"type":"error","name":"markaSaysNo","inputs":[]}],"bytecode":{"object":"0x608060405260636015553480156200001657600080fd5b5060405162005e0338038062005e03833981016040819052620000399162000100565b6040518060400160405280600a81526020016914195d195c8815195cdd60b21b815250604051806040016040528060058152602001642822aa22a960d91b81525081600090816200008b9190620001d2565b5060016200009a8282620001d2565b50506001600a5550620000ad33620000c4565b600b805460ff19169115159190911790556200029e565b6001600160a01b0316638b78c6d8198190558060007f8be0079c531659141344cd1fd0a4f28419497f9722a3daafe3b4186f6b6457e08180a350565b6000602082840312156200011357600080fd5b815180151581146200012457600080fd5b9392505050565b634e487b7160e01b600052604160045260246000fd5b600181811c908216806200015657607f821691505b6020821081036200017757634e487b7160e01b600052602260045260246000fd5b50919050565b601f821115620001cd576000816000526020600020601f850160051c81016020861015620001a85750805b601f850160051c820191505b81811015620001c957828155600101620001b4565b5050505b505050565b81516001600160401b03811115620001ee57620001ee6200012b565b6200020681620001ff845462000141565b846200017d565b602080601f8311600181146200023e5760008415620002255750858301515b600019600386901b1c1916600185901b178555620001c9565b600085815260208120601f198616915b828110156200026f578886015182559484019460019091019084016200024e565b50858210156200028e5787850151600019600388901b60f8161c191681555b5050505050600190811b01905550565b615b5580620002ae6000396000f3fe60806040526004361061045c5760003560e01c80638aa1e4c81161023f578063b66ef6e311610139578063e1405540116100b6578063f2fde38b1161007a578063f2fde38b14610e07578063f3f8efb914610e1a578063f4bec0b614610e3a578063f6a0c93214610e5a578063fee81cf414610e9057600080fd5b8063e140554014610d55578063e3d2155514610d75578063e985e9c514610d8b578063f04e283e14610dd4578063f2361e2314610de757600080fd5b8063c87b56dd116100fd578063c87b56dd14610cb5578063cdb6dd5c14610cd5578063d5b3621b14610cf5578063d68c4f3214610d15578063dceef0ec14610d3557600080fd5b8063b66ef6e314610c08578063b88d4fde14610c28578063be928ff614610c48578063bef1dfb714610c75578063c093afdb14610c9557600080fd5b80639c05d68d116101c7578063a1d626801161018b578063a1d6268014610b4d578063a22cb46514610b6d578063a23830ae14610b8d578063a4bf9a0014610bbb578063abc8c7af14610be857600080fd5b80639c05d68d14610ab95780639c7be2f114610aef5780639f6e463714610b04578063a035b1fe14610b24578063a0712d6814610b3a57600080fd5b806392012f081161020e57806392012f0814610a1f578063931e2e4914610a4e57806393ccba7214610a6457806395d89b4114610a84578063998cfb6e14610a9957600080fd5b80638aa1e4c8146109a65780638da5cb5b146109c6578063916c546b146109df57806391b7f5ed146109ff57600080fd5b80633ab1a4941161035b57806358a97640116102d857806370a082311161029c57806370a082311461090b578063715018a61461092b57806373ad6c2d146109335780637e2e6c47146109535780638200ea511461097357600080fd5b806358a97640146108295780635eabd84a146108495780636352211e14610869578063667043491461088957806367d2afe2146108de57600080fd5b80634a60f6201161031f5780634a60f620146107ab5780634f6ccce7146107c157806354d1f13d146107e1578063550ab247146107e957806355737f351461080957600080fd5b80633ab1a494146107095780633ccfd60b1461072957806342842e0e1461073e578063438b63001461075e5780634a4333a31461078b57600080fd5b80631581b600116103e95780632bd1ca45116103ad5780632bd1ca45146106695780632f745c59146106895780633044825b146106a9578063306c7334146106c957806333d3d9bf146106e957600080fd5b80631581b600146105e257806318160ddd1461060257806323b872dd146106215780632569296214610641578063282575321461064957600080fd5b8063081812fc11610430578063081812fc1461051a578063095ea7b3146105525780630c83f9d71461057257806313ea0ae3146105a257806314fe8ff4146105c257600080fd5b80621792061461046157806301ffc9a71461048357806304003bd0146104b857806306fdde03146104f8575b600080fd5b34801561046d57600080fd5b5061048161047c366004614a24565b610ec3565b005b34801561048f57600080fd5b506104a361049e366004614a57565b610eed565b60405190151581526020015b60405180910390f35b3480156104c457600080fd5b506104d86104d3366004614a74565b610efe565b604080516001600160a01b039384168152929091166020830152016104af565b34801561050457600080fd5b5061050d610f2d565b6040516104af9190614add565b34801561052657600080fd5b5061053a610535366004614a74565b610fbf565b6040516001600160a01b0390911681526020016104af565b34801561055e57600080fd5b5061048161056d366004614af0565b610fe6565b34801561057e57600080fd5b5061059261058d366004614a74565b611037565b6040516104af9493929190614b1c565b3480156105ae57600080fd5b5060125461053a906001600160a01b031681565b3480156105ce57600080fd5b5061050d6105dd366004614a74565b6111f8565b3480156105ee57600080fd5b5060175461053a906001600160a01b031681565b34801561060e57600080fd5b506008545b6040519081526020016104af565b34801561062d57600080fd5b5061048161063c366004614b66565b61143c565b61048161147b565b34801561065557600080fd5b50610481610664366004614ba7565b6114ca565b34801561067557600080fd5b5061050d610684366004614a74565b6116c3565b34801561069557600080fd5b506106136106a4366004614af0565b611787565b3480156106b557600080fd5b506104816106c4366004614a74565b61181d565b3480156106d557600080fd5b5061050d6106e4366004614a74565b6118d8565b3480156106f557600080fd5b50610481610704366004614a74565b6118fb565b34801561071557600080fd5b50610481610724366004614a24565b611908565b34801561073557600080fd5b50610481611932565b34801561074a57600080fd5b50610481610759366004614b66565b6119b1565b34801561076a57600080fd5b5061077e610779366004614a24565b6119cc565b6040516104af9190614bc9565b34801561079757600080fd5b506104816107a6366004614c0d565b611a63565b3480156107b757600080fd5b5061061360165481565b3480156107cd57600080fd5b506106136107dc366004614a74565b611dcb565b610481611e5e565b3480156107f557600080fd5b50610481610804366004614c77565b611e9a565b34801561081557600080fd5b5061053a610824366004614ba7565b611ef0565b34801561083557600080fd5b50610481610844366004614a24565b611f28565b34801561085557600080fd5b50610481610864366004614a24565b611f52565b34801561087557600080fd5b5061053a610884366004614a74565b611f7c565b34801561089557600080fd5b506108a96108a4366004614a74565b611fdc565b6040516104af94939291906001600160a01b039485168152602081019390935292166040820152901515606082015260800190565b3480156108ea57600080fd5b506108fe6108f9366004614a74565b61208e565b6040516104af9190614cfa565b34801561091757600080fd5b50610613610926366004614a24565b6120fa565b610481612180565b34801561093f57600080fd5b5061048161094e366004614a24565b612194565b34801561095f57600080fd5b5061048161096e366004614a24565b6121be565b34801561097f57600080fd5b506104a361098e366004614a74565b6000908152600c60205260409020600b015460ff1690565b3480156109b257600080fd5b506104a36109c1366004614ba7565b6121e8565b3480156109d257600080fd5b50638b78c6d8195461053a565b3480156109eb57600080fd5b5061050d6109fa366004614a74565b612257565b348015610a0b57600080fd5b50610481610a1a366004614a74565b61235a565b348015610a2b57600080fd5b50610a3f610a3a366004614e1e565b612367565b6040516104af93929190614f17565b348015610a5a57600080fd5b5061061360195481565b348015610a7057600080fd5b50610481610a7f366004614f50565b6124b8565b348015610a9057600080fd5b5061050d612524565b348015610aa557600080fd5b5061077e610ab4366004614a24565b612533565b348015610ac557600080fd5b5061053a610ad4366004614a74565b601a602052600090815260409020546001600160a01b031681565b348015610afb57600080fd5b506104816125a9565b348015610b1057600080fd5b5061077e610b1f366004614a74565b612607565b348015610b3057600080fd5b5061061360185481565b610481610b48366004614a74565b61262b565b348015610b5957600080fd5b5061050d610b68366004614a74565b6129b9565b348015610b7957600080fd5b50610481610b88366004614fec565b6129e9565b348015610b9957600080fd5b50610bad610ba8366004614e1e565b612a62565b6040516104af929190615021565b348015610bc757600080fd5b50610613610bd6366004614a24565b601b6020526000908152604090205481565b348015610bf457600080fd5b5060115461053a906001600160a01b031681565b348015610c1457600080fd5b5060145461053a906001600160a01b031681565b348015610c3457600080fd5b50610481610c4336600461504f565b612b10565b348015610c5457600080fd5b50610c68610c63366004614a74565b612b42565b6040516104af91906150ba565b348015610c8157600080fd5b50610481610c90366004615171565b612ce8565b348015610ca157600080fd5b5060105461053a906001600160a01b031681565b348015610cc157600080fd5b5061050d610cd0366004614a74565b612d93565b348015610ce157600080fd5b50610481610cf03660046151a1565b612dd4565b348015610d0157600080fd5b50610481610d10366004614a74565b612f98565b348015610d2157600080fd5b50610481610d303660046151d1565b612fa5565b348015610d4157600080fd5b5061050d610d50366004614a74565b613221565b348015610d6157600080fd5b50610481610d70366004615217565b6134f3565b348015610d8157600080fd5b5061061360155481565b348015610d9757600080fd5b506104a3610da636600461523a565b6001600160a01b03918216600090815260056020908152604080832093909416825291909152205460ff1690565b610481610de2366004614a24565b6135bb565b348015610df357600080fd5b50610481610e02366004615268565b6135f8565b610481610e15366004614a24565b613645565b348015610e2657600080fd5b5061050d610e35366004614a74565b61366c565b348015610e4657600080fd5b5060135461053a906001600160a01b031681565b348015610e6657600080fd5b5061053a610e75366004614a74565b6000908152601a60205260409020546001600160a01b031690565b348015610e9c57600080fd5b50610613610eab366004614a24565b63389a75e1600c908152600091909152602090205490565b610ecb6138f3565b601480546001600160a01b0319166001600160a01b0392909216919091179055565b6000610ef88261390e565b92915050565b600080610f0a83611f7c565b6000938452601a60205260409093205492936001600160a01b0390931692915050565b606060008054610f3c906152ed565b80601f0160208091040260200160405190810160405280929190818152602001828054610f68906152ed565b8015610fb55780601f10610f8a57610100808354040283529160200191610fb5565b820191906000526020600020905b815481529060010190602001808311610f9857829003601f168201915b5050505050905090565b6000610fca82613933565b506000908152600460205260409020546001600160a01b031690565b610fef81611f7c565b6001600160a01b0316336001600160a01b03161461101f576040516282b42960e81b815260040160405180910390fd5b6110298183613992565b61103382826139d1565b5050565b600f6020526000908152604090208054600182018054919291611059906152ed565b80601f0160208091040260200160405190810160405280929190818152602001828054611085906152ed565b80156110d25780601f106110a7576101008083540402835291602001916110d2565b820191906000526020600020905b8154815290600101906020018083116110b557829003601f168201915b5050505050908060020180546110e7906152ed565b80601f0160208091040260200160405190810160405280929190818152602001828054611113906152ed565b80156111605780601f1061113557610100808354040283529160200191611160565b820191906000526020600020905b81548152906001019060200180831161114357829003601f168201915b505050505090806003018054611175906152ed565b80601f01602080910402602001604051908101604052809291908181526020018280546111a1906152ed565b80156111ee5780601f106111c3576101008083540402835291602001916111ee565b820191906000526020600020905b8154815290600101906020018083116111d157829003601f168201915b5050505050905084565b6060600061120583612607565b90506000601060009054906101000a90046001600160a01b03166001600160a01b0316635c1ef2566040518163ffffffff1660e01b8152600401600060405180830381865afa15801561125c573d6000803e3d6000fd5b505050506040513d6000823e601f3d908101601f19168201604052611284919081019061536c565b9050600060155483511061129a5760155461129d565b82515b90506000816001600160401b038111156112b9576112b9614d0d565b6040519080825280602002602001820160405280156112ec57816020015b60608152602001906001900390816112d75790505b50905060005b828110156113b35760105485516001600160a01b039091169063c779153190879084908110611323576113236153a0565b60200260200101516040518263ffffffff1660e01b815260040161134991815260200190565b600060405180830381865afa158015611366573d6000803e3d6000fd5b505050506040513d6000823e601f3d908101601f1916820160405261138e919081019061536c565b8282815181106113a0576113a06153a0565b60209081029190910101526001016112f2565b506013548451601554604051631719ff8760e11b81526001600160a01b0390931692632e33ff0e926113ed928892879291906004016153b6565b600060405180830381865afa15801561140a573d6000803e3d6000fd5b505050506040513d6000823e601f3d908101601f19168201604052611432919081019061536c565b9695505050505050565b6114463382613a3f565b61146b5760405162461bcd60e51b815260040161146290615437565b60405180910390fd5b611476838383613abd565b505050565b60006202a3006001600160401b03164201905063389a75e1600c5233600052806020600c2055337fdbf36a107da19e49527a7176a1babf963b4b0ff8cde35ee35d6cd8f1f9ac7e1d600080a250565b816114d481611f7c565b6001600160a01b0316336001600160a01b031614611505576040516324adc17160e11b815260040160405180910390fd5b8160000361152657604051630754c7f360e41b815260040160405180910390fd5b60006115328484613c6a565b9050600181600781111561154857611548615485565b0361155f576000848152600c602052604090208390555b600281600781111561157357611573615485565b0361158d576000848152600c602052604090206001018390555b60038160078111156115a1576115a1615485565b036115bb576000848152600c602052604090206002018390555b60048160078111156115cf576115cf615485565b036115e9576000848152600c602052604090206003018390555b60058160078111156115fd576115fd615485565b03611617576000848152600c602052604090206004018390555b600681600781111561162b5761162b615485565b03611645576000848152600c602052604090206005018390555b600781600781111561165957611659615485565b03611673576000848152600c602052604090206006018390555b828461167e86611f7c565b6001600160a01b0316600080516020615b008339815191528460078111156116a8576116a8615485565b60405160ff909116815260200160405180910390a450505050565b606080606060006116d385612b42565b90506116de81612367565b5060105460405163bb12d21d60e01b81529195506001600160a01b0316915063bb12d21d906117119084906004016150ba565b600060405180830381865afa15801561172e573d6000803e3d6000fd5b505050506040513d6000823e601f3d908101601f19168201604052611756919081019061549b565b5060405190935061176e915084908490602001615522565b6040516020818303038152906040529350505050919050565b6000611792836120fa565b82106117f45760405162461bcd60e51b815260206004820152602b60248201527f455243373231456e756d657261626c653a206f776e657220696e646578206f7560448201526a74206f6620626f756e647360a81b6064820152608401611462565b506001600160a01b03919091166000908152600660209081526040808320938352929052205490565b8061182781611f7c565b6001600160a01b0316336001600160a01b031614611858576040516324adc17160e11b815260040160405180910390fd5b6000828152600c60205260408120818155600181018290556002810182905560038101829055600481018290556005810182905560068101919091558261189e81611f7c565b6001600160a01b03167f46078a2cd4c69c3b4a27bdc69fdfe03d442ebcf405f1a68e9b5df6bc3e24429760405160405180910390a3505050565b60608060006118e684612b42565b90506118f181612367565b5095945050505050565b6119036138f3565b601555565b6119106138f3565b601780546001600160a01b0319166001600160a01b0392909216919091179055565b61193a6138f3565b6017546040516000916001600160a01b03169047908381818185875af1925050503d8060008114611987576040519150601f19603f3d011682016040523d82523d6000602084013e61198c565b606091505b50509050806119ae57604051631d42c86760e21b815260040160405180910390fd5b50565b61147683838360405180602001604052806000815250612b10565b606060006119d9836120fa565b90506000816001600160401b038111156119f5576119f5614d0d565b604051908082528060200260200182016040528015611a1e578160200160208202803683370190505b50905060005b82811015611a5b57611a368582611787565b828281518110611a4857611a486153a0565b6020908102919091010152600101611a24565b509392505050565b87611a6d81611f7c565b6001600160a01b0316336001600160a01b031614611a9e576040516324adc17160e11b815260040160405180910390fd5b8715611b0557611aae8989613cef565b611ab9886001613de7565b6000898152600c602052604090208890558789611ad581611f7c565b6001600160a01b0316600080516020615b00833981519152600160405160ff909116815260200160405180910390a45b8615611b6f57611b158988613cef565b611b20876002613de7565b6000898152600c602052604090206001018790558689611b3f81611f7c565b6001600160a01b0316600080516020615b00833981519152600260405160ff909116815260200160405180910390a45b8515611bd957611b7f8987613cef565b611b8a866003613de7565b6000898152600c602052604090206002018690558589611ba981611f7c565b6001600160a01b0316600080516020615b00833981519152600360405160ff909116815260200160405180910390a45b8415611c4357611be98986613cef565b611bf4856004613de7565b6000898152600c602052604090206003018590558489611c1381611f7c565b6001600160a01b0316600080516020615b00833981519152600460405160ff909116815260200160405180910390a45b8315611cad57611c538985613cef565b611c5e846005613de7565b6000898152600c602052604090206004018490558389611c7d81611f7c565b6001600160a01b0316600080516020615b00833981519152600560405160ff909116815260200160405180910390a45b8215611d1757611cbd8984613cef565b611cc8836006613de7565b6000898152600c602052604090206005018390558289611ce781611f7c565b6001600160a01b0316600080516020615b00833981519152600660405160ff909116815260200160405180910390a45b8115611d8157611d278983613cef565b611d32826007613de7565b6000898152600c602052604090206006018290558189611d5181611f7c565b6001600160a01b0316600080516020615b00833981519152600760405160ff909116815260200160405180910390a45b88611d8b8a611f7c565b6001600160a01b03167f56680590212b09eb4b72a2eba8801b037ec046dfc754538e924f5bb6a8c4db6c60405160405180910390a3505050505050505050565b6000611dd660085490565b8210611e395760405162461bcd60e51b815260206004820152602c60248201527f455243373231456e756d657261626c653a20676c6f62616c20696e646578206f60448201526b7574206f6620626f756e647360a01b6064820152608401611462565b60088281548110611e4c57611e4c6153a0565b90600052602060002001549050919050565b63389a75e1600c523360005260006020600c2055337ffa7b8eab7da67f412cc9575ed43464468f9bfbae89d1675917346ca6d8fe3c92600080a2565b6000611ea584611f7c565b90506001600160a01b0381163314611ecf576040516282b42960e81b815260040160405180910390fd5b8115611edf57611edf8484613992565b611eea818484613ee9565b50505050565b601c6020528160005260406000208181548110611f0c57600080fd5b6000918252602090912001546001600160a01b03169150829050565b611f306138f3565b601280546001600160a01b0319166001600160a01b0392909216919091179055565b611f5a6138f3565b601080546001600160a01b0319166001600160a01b0392909216919091179055565b6000818152600260205260408120546001600160a01b031680610ef85760405162461bcd60e51b8152602060048201526018602482015277115490cdcc8c4e881a5b9d985b1a59081d1bdad95b88125160421b6044820152606401611462565b6010546040516331a9108f60e11b8152600481018390526000918291829182916001600160a01b0390911690636352211e90602401602060405180830381865afa15801561202e573d6000803e3d6000fd5b505050506040513d601f19601f820116820180604052508101906120529190615551565b6001600160a01b0381166000908152601b6020526040902054909450925061207983611f7c565b915061208583866121e8565b90509193509193565b6000818152601c60209081526040918290208054835181840281018401909452808452606093928301828280156120ee57602002820191906000526020600020905b81546001600160a01b031681526001909101906020018083116120d0575b50505050509050919050565b60006001600160a01b0382166121645760405162461bcd60e51b815260206004820152602960248201527f4552433732313a2061646472657373207a65726f206973206e6f7420612076616044820152683634b21037bbb732b960b91b6064820152608401611462565b506001600160a01b031660009081526003602052604090205490565b6121886138f3565b6121926000613faf565b565b61219c6138f3565b601180546001600160a01b0319166001600160a01b0392909216919091179055565b6121c66138f3565b601380546001600160a01b0319166001600160a01b0392909216919091179055565b6000806121f484612b42565b80519091508314806122095750828160200151145b806122175750828160400151145b806122255750828160600151145b806122335750828160800151145b806122415750828160a00151145b8061224f5750828160c00151145b949350505050565b6013546000828152600f602052604080822090516371bed9e160e11b81526060936001600160a01b03169163e37db3c29161229891600201906004016155eb565b600060405180830381865afa1580156122b5573d6000803e3d6000fd5b505050506040513d6000823e601f3d908101601f191682016040526122dd919081019061536c565b6013546040516335b07b7960e11b81529192506001600160a01b031690636b60f6f29061230e908490600401614add565b600060405180830381865afa15801561232b573d6000803e3d6000fd5b505050506040513d6000823e601f3d908101601f19168201604052612353919081019061536c565b9392505050565b6123626138f3565b601855565b606080606061237d84610120015160ff16612257565b6101208501805160ff9081166000908152600f602052604080822060135494519093168252908190209051630d88d4ff60e01b81526003909201926001600160a01b031691630d88d4ff916123da916001909101906004016155fe565b600060405180830381865afa1580156123f7573d6000803e3d6000fd5b505050506040513d6000823e601f3d908101601f1916820160405261241f919081019061536c565b81805461242b906152ed565b80601f0160208091040260200160405190810160405280929190818152602001828054612457906152ed565b80156124a45780601f10612479576101008083540402835291602001916124a4565b820191906000526020600020905b81548152906001019060200180831161248757829003601f168201915b505050505091509250925092509193909250565b896124c281611f7c565b6001600160a01b0316336001600160a01b0316146124f3576040516324adc17160e11b815260040160405180910390fd5b6125038b8b8b8b8b8b8b8b611a63565b61250d8b846134f3565b6125178b83612fa5565b5050505050505050505050565b606060018054610f3c906152ed565b60105460405162438b6360e81b81526001600160a01b03838116600483015260609260009291169063438b630090602401600060405180830381865afa158015612581573d6000803e3d6000fd5b505050506040513d6000823e601f3d908101601f191682016040526123539190810190615631565b600b5460ff16156121925760005b600a8110156125d2576125ca600461262b565b6001016125b7565b506125fc60016040518060400160405280600681526020016533333333333360d11b815250612fa5565b612192600180612ce8565b6000818152601a60205260409020546060906001600160a01b031661235381612533565b6012546001600160a01b031661265457604051633390ca8960e21b815260040160405180910390fd5b806000036126755760405163e7195f5160e01b815260040160405180910390fd5b8060185461268391906156ec565b34146126a25760405163356680b760e01b815260040160405180910390fd5b60005b818110156110335760006016600081546126be90615703565b918290555090506126cf3382613fed565b604051638a54c52f60e01b81527355266d75d1a14e4572138116af39863ed6596e7f600482015260006024820181905262014a34604483015230606483015260848201839052906f6551c19487814612e58fe0681377575890638a54c52f9060a4016020604051808303816000875af1158015612750573d6000803e3d6000fd5b505050506040513d601f19601f820116820180604052508101906127749190615551565b6000838152601a6020908152604080832080546001600160a01b0319166001600160a01b038616908117909155808452601b90925291829020859055905163189acdbd60e31b81527341c8f39463a868d3a88af00cd0fe7102f30e44ec60048201529192509063c4d66de890602401600060405180830381600087803b1580156127fd57600080fd5b505af1158015612811573d6000803e3d6000fd5b5050601254604051637458922960e11b81526001600160a01b03858116600483015260009450909116915063e8b12452906024016000604051808303816000875af1158015612864573d6000803e3d6000fd5b505050506040513d6000823e601f3d908101601f1916820160405261288c9190810190615631565b6000848152600c60205260408120600881018690558251929350918391906128b6576128b66153a0565b60200260200101518160060181905550816001815181106128d9576128d96153a0565b60200260200101518160050181905550816002815181106128fc576128fc6153a0565b602002602001015181600401819055508160038151811061291f5761291f6153a0565b6020026020010151816001018190555060058460405160200161294491815260200190565b6040516020818303038152906040528051906020012060001c612967919061571c565b60098201805460ff191660ff929092169190911790556040805180820190915260068152650c110d914e5160d21b6020820152600a8201906129a99082615786565b50505050508060010190506126a5565b606060006129c683612b42565b90508061016001516129e0576129db8361366c565b612353565b61235383613221565b8015612a575760006129fa336119cc565b90508051600003612a1d576040516282b42960e81b815260040160405180910390fd5b60005b8151811015612a5457612a4c828281518110612a3e57612a3e6153a0565b602002602001015185613992565b600101612a20565b50505b611033338383613ee9565b606080612a7683610120015160ff16612257565b60135461012085015160ff166000908152600f6020526040908190209051630d88d4ff60e01b81526001600160a01b0390921691630d88d4ff91612ac2916001909101906004016155fe565b600060405180830381865afa158015612adf573d6000803e3d6000fd5b505050506040513d6000823e601f3d908101601f19168201604052612b07919081019061536c565b91509150915091565b612b1a3383613a3f565b612b365760405162461bcd60e51b815260040161146290615437565b611eea84848484614143565b612bb160405180610180016040528060008152602001600081526020016000815260200160008152602001600081526020016000815260200160008152602001600063ffffffff16815260200160008152602001600060ff168152602001606081526020016000151581525090565b6000828152600c60209081526040808320815161018081018352815481526001820154938101939093526002810154918301919091526003810154606083015260048101546080830152600581015460a0830152600681015460c0830152600781015463ffffffff1660e08301526008810154610100830152600981015460ff16610120830152600a8101805461014084019190612c4e906152ed565b80601f0160208091040260200160405190810160405280929190818152602001828054612c7a906152ed565b8015612cc75780601f10612c9c57610100808354040283529160200191612cc7565b820191906000526020600020905b815481529060010190602001808311612caa57829003601f168201915b5050509183525050600b919091015460ff1615156020909101529392505050565b81612cf281611f7c565b6001600160a01b0316336001600160a01b031614612d23576040516324adc17160e11b815260040160405180910390fd5b6000838152600c60205260409020600b01805460ff191683151517905582612d4a81611f7c565b6001600160a01b03167f6dd9e2813f787f711671bf91b2e57a72b9b61bc279b934201f3fd29b3b5f8cbe84604051612d86911515815260200190565b60405180910390a3505050565b6000818152600260205260409020546060906001600160a01b0316612dcb57604051631a65aaab60e31b815260040160405180910390fd5b610ef8826129b9565b81612dde81611f7c565b6001600160a01b0316336001600160a01b031614612e0f576040516324adc17160e11b815260040160405180910390fd5b6001826007811115612e2357612e23615485565b03612e38576000838152600c60205260408120555b6002826007811115612e4c57612e4c615485565b03612e64576000838152600c60205260408120600101555b6003826007811115612e7857612e78615485565b03612e90576000838152600c60205260408120600201555b6004826007811115612ea457612ea4615485565b03612ebc576000838152600c60205260408120600301555b6005826007811115612ed057612ed0615485565b03612ee8576000838152600c60205260408120600401555b6006826007811115612efc57612efc615485565b03612f14576000838152600c60205260408120600501555b6007826007811115612f2857612f28615485565b03612f40576000838152600c60205260408120600601555b82612f4a84611f7c565b6001600160a01b03167f3d8ac56c725fc7985e9444622a45baee28ba67d8a964045f747b465121f40e71846007811115612f8657612f86615485565b60405160ff9091168152602001612d86565b612fa06138f3565b601955565b81612faf81611f7c565b6001600160a01b0316336001600160a01b031614612fe0576040516324adc17160e11b815260040160405180910390fd5b8151829060061461300457604051631cf7e9c560e01b815260040160405180910390fd5b60408051808201909152600681526503036393432360d41b6020918201528151908201207fc9a8162f44485821dce92aaad6bb1b8cc6d457721d5ae939092ca3297c7dd0a5016130675760405163a3c0b7b960e01b815260040160405180910390fd5b60005b60068110156131b457603060f81b82828151811061308a5761308a6153a0565b01602001516001600160f81b031916108015906130cb5750603960f81b8282815181106130b9576130b96153a0565b01602001516001600160f81b03191611155b15801561312d5750604160f81b8282815181106130ea576130ea6153a0565b01602001516001600160f81b0319161080159061312b5750604660f81b828281518110613119576131196153a0565b01602001516001600160f81b03191611155b155b801561318e5750606160f81b82828151811061314b5761314b6153a0565b01602001516001600160f81b0319161080159061318c5750606660f81b82828151811061317a5761317a6153a0565b01602001516001600160f81b03191611155b155b156131ac57604051631cf7e9c560e01b815260040160405180910390fd5b60010161306a565b506000848152600c60205260409020600a016131d08482615786565b50836131db85611f7c565b6001600160a01b03167f2e34f8c0f6052b66319b4a5df14eac164c6af8a0b37f612d4304a777e1ae7a3d856040516132139190614add565b60405180910390a350505050565b606080606080606080606080606061325a6040518060800160405280606081526020016060815260200160608152602001600081525090565b60006132658c612b42565b905061327081612367565b60105460405163bb12d21d60e01b8152939d50919a5095506001600160a01b03169063bb12d21d906132a69084906004016150ba565b600060405180830381865afa1580156132c3573d6000803e3d6000fd5b505050506040513d6000823e601f3d908101601f191682016040526132eb919081019061549b565b604051929b5090985095506133069085908790602001615845565b6040516020818303038152906040529250878760405160200161332a929190615522565b60408051601f198184030181529190526101408201518352955061334d8c612607565b51606083015261012081015160ff166000908152600f602052604090206001018054613378906152ed565b80601f01602080910402602001604051908101604052809291908181526020018280546133a4906152ed565b80156133f15780601f106133c6576101008083540402835291602001916133f1565b820191906000526020600020905b8154815290600101906020018083116133d457829003601f168201915b5050505050826020018190525061341a8c6000908152600c60205260409020600b015460ff1690565b61343e57604051806040016040528060028152602001610c9160f21b81525061345a565b604051806040016040528060028152602001610cd160f21b8152505b60408084019190915260145490516367b6032760e11b81526001600160a01b039091169063cf6c064e9061349e908f908e9089908f908c908e908b90600401615909565b600060405180830381865afa1580156134bb573d6000803e3d6000fd5b505050506040513d6000823e601f3d908101601f191682016040526134e3919081019061536c565b9c9b505050505050505050505050565b816134fd81611f7c565b6001600160a01b0316336001600160a01b03161461352e576040516324adc17160e11b815260040160405180910390fd5b60048260ff161115613553576040516329ba348d60e11b815260040160405180910390fd5b6000838152600c60205260409020600901805460ff191660ff84161790558261357b81611f7c565b60405160ff851681526001600160a01b0391909116907f454db5768a3f8187a5dd5e9cca100cf699d74d8a03f793d16da3932cdf34d35890602001612d86565b6135c36138f3565b63389a75e1600c52806000526020600c2080544211156135eb57636f5e88186000526004601cfd5b600090556119ae81613faf565b6136006138f3565b6000848152600f602052604090208481556001810161361f8582615786565b506002810161362e8482615786565b506003810161363d8382615786565b505050505050565b61364d6138f3565b8060601b61366357637448fbae6000526004601cfd5b6119ae81613faf565b606080606080606080600061368088612b42565b905061368b81612a62565b601054604051631be5857160e31b81529298509096506001600160a01b03169063df2c2b88906136bf9084906004016150ba565b600060405180830381865afa1580156136dc573d6000803e3d6000fd5b505050506040513d6000823e601f3d908101601f191682016040526137049190810190615992565b9094509250613712886111f8565b915061373f6040518060800160405280606081526020016060815260200160608152602001600081525090565b610140820151815261375089612607565b51606082015261012082015160ff166000908152600f60205260409020600101805461377b906152ed565b80601f01602080910402602001604051908101604052809291908181526020018280546137a7906152ed565b80156137f45780601f106137c9576101008083540402835291602001916137f4565b820191906000526020600020905b8154815290600101906020018083116137d757829003601f168201915b5050505050816020018190525061381d896000908152600c60205260409020600b015460ff1690565b61384157604051806040016040528060028152602001610c9160f21b81525061385d565b604051806040016040528060028152602001610cd160f21b8152505b6040808301919091526013549051630ed2eb5b60e41b81526001600160a01b039091169063ed2eb5b0906138a1908c908b908b908b908b908b908a90600401615909565b600060405180830381865afa1580156138be573d6000803e3d6000fd5b505050506040513d6000823e601f3d908101601f191682016040526138e6919081019061536c565b9998505050505050505050565b638b78c6d819543314612192576382b429006000526004601cfd5b60006001600160e01b0319821663780e9d6360e01b1480610ef85750610ef882614176565b6000818152600260205260409020546001600160a01b03166119ae5760405162461bcd60e51b8152602060048201526018602482015277115490cdcc8c4e881a5b9d985b1a59081d1bdad95b88125160421b6044820152606401611462565b6000918252601c6020908152604083208054600181018255908452922090910180546001600160a01b0319166001600160a01b03909216919091179055565b600081815260046020526040902080546001600160a01b0319166001600160a01b0384169081179091558190613a0682611f7c565b6001600160a01b03167f8c5be1e5ebec7d5bd14f71427d1e84f3dd0314c0f7b2291e5b200ac8c7c3b92560405160405180910390a45050565b600080613a4b83611f7c565b9050806001600160a01b0316846001600160a01b03161480613a9257506001600160a01b0380821660009081526005602090815260408083209388168352929052205460ff165b8061224f5750836001600160a01b0316613aab84610fbf565b6001600160a01b031614949350505050565b826001600160a01b0316613ad082611f7c565b6001600160a01b031614613b345760405162461bcd60e51b815260206004820152602560248201527f4552433732313a207472616e736665722066726f6d20696e636f72726563742060448201526437bbb732b960d91b6064820152608401611462565b6001600160a01b038216613b965760405162461bcd60e51b8152602060048201526024808201527f4552433732313a207472616e7366657220746f20746865207a65726f206164646044820152637265737360e01b6064820152608401611462565b613ba18383836141c6565b613bac6000826139d1565b6001600160a01b0383166000908152600360205260408120805460019290613bd59084906159eb565b90915550506001600160a01b0382166000908152600360205260408120805460019290613c039084906159fe565b909155505060008181526002602052604080822080546001600160a01b0319166001600160a01b0386811691821790925591518493918716917fddf252ad1be2c89b69c2b068fc378daa952ba7f163c4a11628f55a4df523b3ef91a46114768383836145a1565b6000613c768383613cef565b60105460405163e8a1268d60e01b8152600481018490526001600160a01b039091169063e8a1268d90602401602060405180830381865afa158015613cbf573d6000803e3d6000fd5b505050506040513d601f19601f82011682018060405250810190613ce39190615a11565b9050610ef88282613de7565b81613cf981611f7c565b6001600160a01b0316336001600160a01b031614613d2a576040516324adc17160e11b815260040160405180910390fd5b6000838152601a60205260408082205460105491516331a9108f60e11b8152600481018690526001600160a01b0391821693929190911690636352211e90602401602060405180830381865afa158015613d88573d6000803e3d6000fd5b505050506040513d601f19601f82011682018060405250810190613dac9190615551565b9050816001600160a01b0316816001600160a01b031614613de05760405163e6ca793160e01b815260040160405180910390fd5b5050505050565b60105460405163e8a1268d60e01b8152600481018490526000916001600160a01b03169063e8a1268d90602401602060405180830381865afa158015613e31573d6000803e3d6000fd5b505050506040513d601f19601f82011682018060405250810190613e559190615a11565b9050816007811115613e6957613e69615485565b604051602001613e7b91815260200190565b60405160208183030381529060405280519060200120816007811115613ea357613ea3615485565b604051602001613eb591815260200190565b604051602081830303815290604052805190602001201461147657604051633e54c6fb60e11b815260040160405180910390fd5b816001600160a01b0316836001600160a01b031603613f4a5760405162461bcd60e51b815260206004820152601960248201527f4552433732313a20617070726f766520746f2063616c6c6572000000000000006044820152606401611462565b6001600160a01b03838116600081815260056020908152604080832094871680845294825291829020805460ff191686151590811790915591519182527f17307eab39ab6107e8899845ad3d59bd9653f200f220920489ca2b5937696c319101612d86565b638b78c6d81980546001600160a01b039092169182907f8be0079c531659141344cd1fd0a4f28419497f9722a3daafe3b4186f6b6457e0600080a355565b6001600160a01b0382166140435760405162461bcd60e51b815260206004820181905260248201527f4552433732313a206d696e7420746f20746865207a65726f20616464726573736044820152606401611462565b6000818152600260205260409020546001600160a01b0316156140a85760405162461bcd60e51b815260206004820152601c60248201527f4552433732313a20746f6b656e20616c7265616479206d696e746564000000006044820152606401611462565b6140b4600083836141c6565b6001600160a01b03821660009081526003602052604081208054600192906140dd9084906159fe565b909155505060008181526002602052604080822080546001600160a01b0319166001600160a01b03861690811790915590518392907fddf252ad1be2c89b69c2b068fc378daa952ba7f163c4a11628f55a4df523b3ef908290a4611033600083836145a1565b61414e848484613abd565b61415a848484846145ab565b611eea5760405162461bcd60e51b815260040161146290615a2e565b60006001600160e01b031982166380ac58cd60e01b14806141a757506001600160e01b03198216635b5e139f60e01b145b80610ef857506301ffc9a760e01b6001600160e01b0319831614610ef8565b6001600160a01b0383166141df576114768383836146ac565b6001600160a01b0382166000908152601b60205260409020541561421657604051639a42da2960e01b815260040160405180910390fd5b6000818152601a602052604080822054601054915162438b6360e81b81526001600160a01b03918216600482018190529392919091169063438b630090602401600060405180830381865afa158015614273573d6000803e3d6000fd5b505050506040513d6000823e601f3d908101601f1916820160405261429b9190810190615631565b905060006142a8856119cc565b9050600081516001600160401b038111156142c5576142c5614d0d565b6040519080825280602002602001820160405280156142ee578160200160208202803683370190505b50905060005b825181101561436f57601a6000848381518110614313576143136153a0565b6020026020010151815260200190815260200160002060009054906101000a90046001600160a01b031682828151811061434f5761434f6153a0565b6001600160a01b03909216602092830291909101909101526001016142f4565b5060115460405163644ec52760e01b8152600481018790526001600160a01b039091169063644ec52790602401600060405180830381600087803b1580156143b657600080fd5b505af11580156143ca573d6000803e3d6000fd5b5050601154604051631e92beb560e31b8152600481018990526001600160a01b038a81166024830152909116925063f495f5a89150604401600060405180830381600087803b15801561441c57600080fd5b505af1158015614430573d6000803e3d6000fd5b5050505060005b835181101561458c576000848281518110614454576144546153a0565b6020908102919091010151601154604051632e1d274f60e01b8152600481018390529192506001600160a01b031690632e1d274f90602401600060405180830381600087803b1580156144a657600080fd5b505af11580156144ba573d6000803e3d6000fd5b5050601154604051632333520b60e11b81526001600160a01b039091169250634666a41691506144f09084908790600401615a80565b600060405180830381600087803b15801561450a57600080fd5b505af115801561451e573d6000803e3d6000fd5b505060105460405163487b1c2160e11b8152600481018590526001600160a01b0390911692506390f638429150602401600060405180830381600087803b15801561456857600080fd5b505af115801561457c573d6000803e3d6000fd5b5050505050806001019050614437565b506145988787876146ac565b50505050505050565b6114768184614764565b60006001600160a01b0384163b156146a157604051630a85bd0160e11b81526001600160a01b0385169063150b7a02906145ef903390899088908890600401615a99565b6020604051808303816000875af192505050801561462a575060408051601f3d908101601f1916820190925261462791810190615acc565b60015b614687573d808015614658576040519150601f19603f3d011682016040523d82523d6000602084013e61465d565b606091505b50805160000361467f5760405162461bcd60e51b815260040161146290615a2e565b805181602001fd5b6001600160e01b031916630a85bd0160e11b14905061224f565b506001949350505050565b6001600160a01b0383166147075761470281600880546000838152600960205260408120829055600182018355919091527ff3f7a9fe364faab93b216da50a3214154f22a0a2b415b23a84c8169e8b636ee30155565b61472a565b816001600160a01b0316836001600160a01b03161461472a5761472a838261484d565b6001600160a01b03821661474157611476816148ea565b826001600160a01b0316826001600160a01b031614611476576114768282614999565b6000828152601c60209081526040808320805482518185028101850190935280835291929091908301828280156147c457602002820191906000526020600020905b81546001600160a01b031681526001909101906020018083116147a6575b5050506000868152601a60205260408120549394506001600160a01b03909316929150505b82518110156148355761481784848381518110614808576148086153a0565b60200260200101516000613ee9565b61482d82848381518110614808576148086153a0565b6001016147e9565b506000848152601c60205260408120611eea916149dd565b6000600161485a846120fa565b61486491906159eb565b6000838152600760205260409020549091508082146148b7576001600160a01b03841660009081526006602090815260408083208584528252808320548484528184208190558352600790915290208190555b5060009182526007602090815260408084208490556001600160a01b039094168352600681528383209183525290812055565b6008546000906148fc906001906159eb565b60008381526009602052604081205460088054939450909284908110614924576149246153a0565b906000526020600020015490508060088381548110614945576149456153a0565b600091825260208083209091019290925582815260099091526040808220849055858252812055600880548061497d5761497d615ae9565b6001900381819060005260206000200160009055905550505050565b60006149a4836120fa565b6001600160a01b039093166000908152600660209081526040808320868452825280832085905593825260079052919091209190915550565b50805460008255906000526020600020908101906119ae91905b80821115614a0b57600081556001016149f7565b5090565b6001600160a01b03811681146119ae57600080fd5b600060208284031215614a3657600080fd5b813561235381614a0f565b6001600160e01b0319811681146119ae57600080fd5b600060208284031215614a6957600080fd5b813561235381614a41565b600060208284031215614a8657600080fd5b5035919050565b60005b83811015614aa8578181015183820152602001614a90565b50506000910152565b60008151808452614ac9816020860160208601614a8d565b601f01601f19169290920160200192915050565b6020815260006123536020830184614ab1565b60008060408385031215614b0357600080fd5b8235614b0e81614a0f565b946020939093013593505050565b848152608060208201526000614b356080830186614ab1565b8281036040840152614b478186614ab1565b90508281036060840152614b5b8185614ab1565b979650505050505050565b600080600060608486031215614b7b57600080fd5b8335614b8681614a0f565b92506020840135614b9681614a0f565b929592945050506040919091013590565b60008060408385031215614bba57600080fd5b50508035926020909101359150565b6020808252825182820181905260009190848201906040850190845b81811015614c0157835183529284019291840191600101614be5565b50909695505050505050565b600080600080600080600080610100898b031215614c2a57600080fd5b505086359860208801359850604088013597606081013597506080810135965060a0810135955060c0810135945060e0013592509050565b80358015158114614c7257600080fd5b919050565b600080600060608486031215614c8c57600080fd5b833592506020840135614c9e81614a0f565b9150614cac60408501614c62565b90509250925092565b60008151808452602080850194506020840160005b83811015614cef5781516001600160a01b031687529582019590820190600101614cca565b509495945050505050565b6020815260006123536020830184614cb5565b634e487b7160e01b600052604160045260246000fd5b60405161018081016001600160401b0381118282101715614d4657614d46614d0d565b60405290565b604051601f8201601f191681016001600160401b0381118282101715614d7457614d74614d0d565b604052919050565b803563ffffffff81168114614c7257600080fd5b803560ff81168114614c7257600080fd5b60006001600160401b03821115614dba57614dba614d0d565b50601f01601f191660200190565b600082601f830112614dd957600080fd5b8135614dec614de782614da1565b614d4c565b818152846020838601011115614e0157600080fd5b816020850160208301376000918101602001919091529392505050565b600060208284031215614e3057600080fd5b81356001600160401b0380821115614e4757600080fd5b908301906101808286031215614e5c57600080fd5b614e64614d23565b823581526020830135602082015260408301356040820152606083013560608201526080830135608082015260a083013560a082015260c083013560c0820152614eb060e08401614d7c565b60e08201526101008381013590820152610120614ece818501614d90565b908201526101408381013583811115614ee657600080fd5b614ef288828701614dc8565b8284015250506101609150614f08828401614c62565b91810191909152949350505050565b606081526000614f2a6060830186614ab1565b8281036020840152614f3c8186614ab1565b905082810360408401526114328185614ab1565b6000806000806000806000806000806101408b8d031215614f7057600080fd5b8a35995060208b0135985060408b0135975060608b0135965060808b0135955060a08b0135945060c08b0135935060e08b01359250614fb26101008c01614d90565b91506101208b01356001600160401b03811115614fce57600080fd5b614fda8d828e01614dc8565b9150509295989b9194979a5092959850565b60008060408385031215614fff57600080fd5b823561500a81614a0f565b915061501860208401614c62565b90509250929050565b6040815260006150346040830185614ab1565b82810360208401526150468185614ab1565b95945050505050565b6000806000806080858703121561506557600080fd5b843561507081614a0f565b9350602085013561508081614a0f565b92506040850135915060608501356001600160401b038111156150a257600080fd5b6150ae87828801614dc8565b91505092959194509250565b6020815281516020820152602082015160408201526040820151606082015260608201516080820152608082015160a082015260a082015160c082015260c082015160e0820152600060e083015161010061511c8185018363ffffffff169052565b84015161012084810191909152840151905061014061513f8185018360ff169052565b80850151915050610180610160818186015261515f6101a0860184614ab1565b95015115159301929092525090919050565b6000806040838503121561518457600080fd5b8235915061501860208401614c62565b600881106119ae57600080fd5b600080604083850312156151b457600080fd5b8235915060208301356151c681615194565b809150509250929050565b600080604083850312156151e457600080fd5b8235915060208301356001600160401b0381111561520157600080fd5b61520d85828601614dc8565b9150509250929050565b6000806040838503121561522a57600080fd5b8235915061501860208401614d90565b6000806040838503121561524d57600080fd5b823561525881614a0f565b915060208301356151c681614a0f565b6000806000806080858703121561527e57600080fd5b8435935060208501356001600160401b038082111561529c57600080fd5b6152a888838901614dc8565b945060408701359150808211156152be57600080fd5b6152ca88838901614dc8565b935060608701359150808211156152e057600080fd5b506150ae87828801614dc8565b600181811c9082168061530157607f821691505b60208210810361532157634e487b7160e01b600052602260045260246000fd5b50919050565b600082601f83011261533857600080fd5b8151615346614de782614da1565b81815284602083860101111561535b57600080fd5b61224f826020830160208701614a8d565b60006020828403121561537e57600080fd5b81516001600160401b0381111561539457600080fd5b61224f84828501615327565b634e487b7160e01b600052603260045260246000fd5b6080815260006153c96080830187614ab1565b6020838203818501528187518084528284019150828160051b850101838a0160005b8381101561541957601f19878403018552615407838351614ab1565b948601949250908501906001016153eb565b50506040870198909852505050506060909101919091525092915050565b6020808252602e908201527f4552433732313a2063616c6c6572206973206e6f7420746f6b656e206f776e6560408201526d1c881b9bdc88185c1c1c9bdd995960921b606082015260800190565b634e487b7160e01b600052602160045260246000fd5b6000806000606084860312156154b057600080fd5b83516001600160401b03808211156154c757600080fd5b6154d387838801615327565b945060208601519150808211156154e957600080fd5b6154f587838801615327565b9350604086015191508082111561550b57600080fd5b5061551886828701615327565b9150509250925092565b60008351615534818460208801614a8d565b835190830190615548818360208801614a8d565b01949350505050565b60006020828403121561556357600080fd5b815161235381614a0f565b6000815461557b816152ed565b80855260206001838116801561559857600181146155b2576155e0565b60ff1985168884015283151560051b8801830195506155e0565b866000528260002060005b858110156155d85781548a82018601529083019084016155bd565b890184019650505b505050505092915050565b602081526000612353602083018461556e565b604081526009604082015268426f6479205479706560b81b6060820152608060208201526000612353608083018461556e565b6000602080838503121561564457600080fd5b82516001600160401b038082111561565b57600080fd5b818501915085601f83011261566f57600080fd5b81518181111561568157615681614d0d565b8060051b9150615692848301614d4c565b81815291830184019184810190888411156156ac57600080fd5b938501935b838510156156ca578451825293850193908501906156b1565b98975050505050505050565b634e487b7160e01b600052601160045260246000fd5b8082028115828204841417610ef857610ef86156d6565b600060018201615715576157156156d6565b5060010190565b60008261573957634e487b7160e01b600052601260045260246000fd5b500690565b601f821115611476576000816000526020600020601f850160051c810160208610156157675750805b601f850160051c820191505b8181101561363d57828155600101615773565b81516001600160401b0381111561579f5761579f614d0d565b6157b3816157ad84546152ed565b8461573e565b602080601f8311600181146157e857600084156157d05750858301515b600019600386901b1c1916600185901b17855561363d565b600085815260208120601f198616915b82811015615817578886015182559484019460019091019084016157f8565b50858210156158355787850151600019600388901b60f8161c191681555b5050505050600190811b01905550565b6d2261747472696275746573223a5b60901b8152825160009061586f81600e850160208801614a8d565b600b60fa1b600e91840191820152835161589081600f840160208801614a8d565b605d60f81b600f9290910191820152601001949350505050565b60008151608084526158bf6080850182614ab1565b9050602083015184820360208601526158d88282614ab1565b915050604083015184820360408601526158f28282614ab1565b915050606083015160608501528091505092915050565b87815260e06020820152600061592260e0830189614ab1565b82810360408401526159348189614ab1565b905082810360608401526159488188614ab1565b9050828103608084015261595c8187614ab1565b905082810360a08401526159708186614ab1565b905082810360c084015261598481856158aa565b9a9950505050505050505050565b600080604083850312156159a557600080fd5b82516001600160401b03808211156159bc57600080fd5b6159c886838701615327565b935060208501519150808211156159de57600080fd5b5061520d85828601615327565b81810381811115610ef857610ef86156d6565b80820180821115610ef857610ef86156d6565b600060208284031215615a2357600080fd5b815161235381615194565b60208082526032908201527f4552433732313a207472616e7366657220746f206e6f6e20455243373231526560408201527131b2b4bb32b91034b6b83632b6b2b73a32b960711b606082015260800190565b82815260406020820152600061224f6040830184614cb5565b6001600160a01b038581168252841660208201526040810183905260806060820181905260009061143290830184614ab1565b600060208284031215615ade57600080fd5b815161235381614a41565b634e487b7160e01b600052603160045260246000fdfec94c1c47471ed97c1d309bab965192a3e4be3807f42d015b699bfbdcf24dd9f6a264697066735822122021716c6dfcb7f4da33b4f40b52b04ee05eeef850c9b47ce85643b08b48c0ad9c64736f6c63430008160033","linkReferences":{}},"methodIdentifiers":{"_debugPostConstructorMint()":"9c7be2f1","_nextTokenId()":"4a60f620","addNewBody(uint256,string,bytes,bytes)":"f2361e23","approve(address,uint256)":"095ea7b3","balanceOf(address)":"70a08231","bodyIndexToMetadata(uint256)":"0c83f9d7","cancelOwnershipHandover()":"54d1f13d","checkIfTraitIsEquipped(uint256,uint256)":"8aa1e4c8","chonkIdToApprovedOperators(uint256,uint256)":"55737f35","completeOwnershipHandover(address)":"f04e283e","equip(uint256,uint256)":"28257532","equipAll(uint256,uint256,uint256,uint256,uint256,uint256,uint256,uint256)":"4a4333a3","firstSeasonRenderMinter()":"13ea0ae3","getApproved(uint256)":"081812fc","getBackpackSVGs(uint256)":"14fe8ff4","getBodyImageSvg(uint256)":"916c546b","getBodySVGZmapsAndMetadata((uint256,uint256,uint256,uint256,uint256,uint256,uint256,uint32,uint256,uint8,string,bool))":"92012f08","getBodySvgAndMetadata((uint256,uint256,uint256,uint256,uint256,uint256,uint256,uint32,uint256,uint8,string,bool))":"a23830ae","getBodyZMap(uint256)":"306c7334","getChonkIdToApprovedOperators(uint256)":"67d2afe2","getFullPictureForTrait(uint256)":"66704349","getOwnerAndTBAAddressForChonkId(uint256)":"04003bd0","getPeter(uint256)":"be928ff6","getPeterZMap(uint256)":"2bd1ca45","getTBAAddressForChonkId(uint256)":"f6a0c932","getTokenRenderZ(uint256)":"8200ea51","getTraitTokens(address)":"998cfb6e","getTraitsForChonkId(uint256)":"9f6e4637","isApprovedForAll(address,address)":"e985e9c5","mainRenderer2D()":"f4bec0b6","mainRenderer3D()":"b66ef6e3","marketplace()":"abc8c7af","maxTraitsToOutput()":"e3d21555","mint(uint256)":"a0712d68","mintStartTime()":"931e2e49","name()":"06fdde03","owner()":"8da5cb5b","ownerOf(uint256)":"6352211e","ownershipHandoverExpiresAt(address)":"fee81cf4","peterMakeover(uint256,uint256,uint256,uint256,uint256,uint256,uint256,uint256,uint8,string)":"93ccba72","price()":"a035b1fe","renderAsDataUri(uint256)":"a1d62680","renderAsDataUri2D(uint256)":"f3f8efb9","renderAsDataUri3D(uint256)":"dceef0ec","renounceOwnership()":"715018a6","requestOwnershipHandover()":"25692962","safeTransferFrom(address,address,uint256)":"42842e0e","safeTransferFrom(address,address,uint256,bytes)":"b88d4fde","setApprovalForAll(address,bool)":"a22cb465","setApprovalForAllChonksMarketplace(uint256,address,bool)":"550ab247","setBackgroundColor(uint256,string)":"d68c4f32","setBodyIndex(uint256,uint8)":"e1405540","setFirstSeasonRenderMinter(address)":"58a97640","setMainRenderer2D(address)":"7e2e6c47","setMainRenderer3D(address)":"00179206","setMarketplace(address)":"73ad6c2d","setMaxTraitsToOutput(uint256)":"33d3d9bf","setMintStartTime(uint256)":"d5b3621b","setPrice(uint256)":"91b7f5ed","setTokenRender3D(uint256,bool)":"bef1dfb7","setTraitsContract(address)":"5eabd84a","setWithdrawAddress(address)":"3ab1a494","supportsInterface(bytes4)":"01ffc9a7","symbol()":"95d89b41","tbaAddressToTokenId(address)":"a4bf9a00","tokenByIndex(uint256)":"4f6ccce7","tokenIdToTBAAccountAddress(uint256)":"9c05d68d","tokenOfOwnerByIndex(address,uint256)":"2f745c59","tokenURI(uint256)":"c87b56dd","totalSupply()":"18160ddd","traitsContract()":"c093afdb","transferFrom(address,address,uint256)":"23b872dd","transferOwnership(address)":"f2fde38b","unequip(uint256,uint8)":"cdb6dd5c","unequipAll(uint256)":"3044825b","walletOfOwner(address)":"438b6300","withdraw()":"3ccfd60b","withdrawAddress()":"1581b600"},"id":45}