{"abi":[{"type":"constructor","inputs":[{"name":"localDeploy_","type":"bool","internalType":"bool"}],"stateMutability":"nonpayable"},{"type":"function","name":"_debugPostConstructorMint","inputs":[],"outputs":[],"stateMutability":"nonpayable"},{"type":"function","name":"_nextTokenId","inputs":[],"outputs":[{"name":"","type":"uint256","internalType":"uint256"}],"stateMutability":"view"},{"type":"function","name":"addNewBody","inputs":[{"name":"_bodyIndex","type":"uint256","internalType":"uint256"},{"name":"_bodyName","type":"string","internalType":"string"},{"name":"_colorMap","type":"bytes","internalType":"bytes"},{"name":"_zMap","type":"bytes","internalType":"bytes"}],"outputs":[],"stateMutability":"nonpayable"},{"type":"function","name":"approve","inputs":[{"name":"_operator","type":"address","internalType":"address"},{"name":"_chonkId","type":"uint256","internalType":"uint256"}],"outputs":[],"stateMutability":"nonpayable"},{"type":"function","name":"balanceOf","inputs":[{"name":"owner","type":"address","internalType":"address"}],"outputs":[{"name":"","type":"uint256","internalType":"uint256"}],"stateMutability":"view"},{"type":"function","name":"bodyIndexToMetadata","inputs":[{"name":"","type":"uint256","internalType":"uint256"}],"outputs":[{"name":"bodyIndex","type":"uint256","internalType":"uint256"},{"name":"bodyName","type":"string","internalType":"string"},{"name":"colorMap","type":"bytes","internalType":"bytes"},{"name":"zMap","type":"bytes","internalType":"bytes"}],"stateMutability":"view"},{"type":"function","name":"cancelOwnershipHandover","inputs":[],"outputs":[],"stateMutability":"payable"},{"type":"function","name":"checkIfTraitIsEquipped","inputs":[{"name":"_chonkId","type":"uint256","internalType":"uint256"},{"name":"_traitId","type":"uint256","internalType":"uint256"}],"outputs":[{"name":"","type":"bool","internalType":"bool"}],"stateMutability":"view"},{"type":"function","name":"chonkIdToApprovedOperators","inputs":[{"name":"chonkId","type":"uint256","internalType":"uint256"},{"name":"","type":"uint256","internalType":"uint256"}],"outputs":[{"name":"operators","type":"address","internalType":"address"}],"stateMutability":"view"},{"type":"function","name":"completeOwnershipHandover","inputs":[{"name":"pendingOwner","type":"address","internalType":"address"}],"outputs":[],"stateMutability":"payable"},{"type":"function","name":"equip","inputs":[{"name":"_peterTokenId","type":"uint256","internalType":"uint256"},{"name":"_traitTokenId","type":"uint256","internalType":"uint256"}],"outputs":[],"stateMutability":"nonpayable"},{"type":"function","name":"equipAll","inputs":[{"name":"_peterTokenId","type":"uint256","internalType":"uint256"},{"name":"_headTokenId","type":"uint256","internalType":"uint256"},{"name":"_hairTokenId","type":"uint256","internalType":"uint256"},{"name":"_faceTokenId","type":"uint256","internalType":"uint256"},{"name":"_accessoryTokenId","type":"uint256","internalType":"uint256"},{"name":"_topTokenId","type":"uint256","internalType":"uint256"},{"name":"_bottomTokenId","type":"uint256","internalType":"uint256"},{"name":"_shoesTokenId","type":"uint256","internalType":"uint256"}],"outputs":[],"stateMutability":"nonpayable"},{"type":"function","name":"firstSeasonRenderMinter","inputs":[],"outputs":[{"name":"","type":"address","internalType":"contract FirstSeasonRenderMinter"}],"stateMutability":"view"},{"type":"function","name":"getApproved","inputs":[{"name":"tokenId","type":"uint256","internalType":"uint256"}],"outputs":[{"name":"","type":"address","internalType":"address"}],"stateMutability":"view"},{"type":"function","name":"getBackpackSVGs","inputs":[{"name":"_tokenId","type":"uint256","internalType":"uint256"}],"outputs":[{"name":"","type":"string","internalType":"string"}],"stateMutability":"view"},{"type":"function","name":"getBodyImageSvg","inputs":[{"name":"_index","type":"uint256","internalType":"uint256"}],"outputs":[{"name":"svg","type":"string","internalType":"string"}],"stateMutability":"view"},{"type":"function","name":"getBodySVGZmapsAndMetadata","inputs":[{"name":"storedPeter","type":"tuple","internalType":"struct IPeterStorage.StoredPeter","components":[{"name":"headId","type":"uint256","internalType":"uint256"},{"name":"hairId","type":"uint256","internalType":"uint256"},{"name":"faceId","type":"uint256","internalType":"uint256"},{"name":"accessoryId","type":"uint256","internalType":"uint256"},{"name":"topId","type":"uint256","internalType":"uint256"},{"name":"bottomId","type":"uint256","internalType":"uint256"},{"name":"shoesId","type":"uint256","internalType":"uint256"},{"name":"epoch","type":"uint32","internalType":"uint32"},{"name":"tokenId","type":"uint256","internalType":"uint256"},{"name":"bodyIndex","type":"uint8","internalType":"uint8"},{"name":"backgroundColor","type":"string","internalType":"string"},{"name":"render3D","type":"bool","internalType":"bool"}]}],"outputs":[{"name":"","type":"string","internalType":"string"},{"name":"","type":"bytes","internalType":"bytes"},{"name":"","type":"string","internalType":"string"}],"stateMutability":"view"},{"type":"function","name":"getBodySvgAndMetadata","inputs":[{"name":"storedPeter","type":"tuple","internalType":"struct IPeterStorage.StoredPeter","components":[{"name":"headId","type":"uint256","internalType":"uint256"},{"name":"hairId","type":"uint256","internalType":"uint256"},{"name":"faceId","type":"uint256","internalType":"uint256"},{"name":"accessoryId","type":"uint256","internalType":"uint256"},{"name":"topId","type":"uint256","internalType":"uint256"},{"name":"bottomId","type":"uint256","internalType":"uint256"},{"name":"shoesId","type":"uint256","internalType":"uint256"},{"name":"epoch","type":"uint32","internalType":"uint32"},{"name":"tokenId","type":"uint256","internalType":"uint256"},{"name":"bodyIndex","type":"uint8","internalType":"uint8"},{"name":"backgroundColor","type":"string","internalType":"string"},{"name":"render3D","type":"bool","internalType":"bool"}]}],"outputs":[{"name":"","type":"string","internalType":"string"},{"name":"","type":"string","internalType":"string"}],"stateMutability":"view"},{"type":"function","name":"getBodyZMap","inputs":[{"name":"_tokenId","type":"uint256","internalType":"uint256"}],"outputs":[{"name":"","type":"string","internalType":"string"}],"stateMutability":"view"},{"type":"function","name":"getChonkIdToApprovedOperators","inputs":[{"name":"_chonkId","type":"uint256","internalType":"uint256"}],"outputs":[{"name":"","type":"address[]","internalType":"address[]"}],"stateMutability":"view"},{"type":"function","name":"getFullPictureForTrait","inputs":[{"name":"_chonkTraitTokenId","type":"uint256","internalType":"uint256"}],"outputs":[{"name":"traitOwnerTBA","type":"address","internalType":"address"},{"name":"chonkTokenId","type":"uint256","internalType":"uint256"},{"name":"chonkOwner","type":"address","internalType":"address"}],"stateMutability":"view"},{"type":"function","name":"getOwnerAndTBAAddressForChonkId","inputs":[{"name":"_chonkId","type":"uint256","internalType":"uint256"}],"outputs":[{"name":"owner","type":"address","internalType":"address"},{"name":"tbaAddress","type":"address","internalType":"address"}],"stateMutability":"view"},{"type":"function","name":"getPeter","inputs":[{"name":"_tokenId","type":"uint256","internalType":"uint256"}],"outputs":[{"name":"","type":"tuple","internalType":"struct IPeterStorage.StoredPeter","components":[{"name":"headId","type":"uint256","internalType":"uint256"},{"name":"hairId","type":"uint256","internalType":"uint256"},{"name":"faceId","type":"uint256","internalType":"uint256"},{"name":"accessoryId","type":"uint256","internalType":"uint256"},{"name":"topId","type":"uint256","internalType":"uint256"},{"name":"bottomId","type":"uint256","internalType":"uint256"},{"name":"shoesId","type":"uint256","internalType":"uint256"},{"name":"epoch","type":"uint32","internalType":"uint32"},{"name":"tokenId","type":"uint256","internalType":"uint256"},{"name":"bodyIndex","type":"uint8","internalType":"uint8"},{"name":"backgroundColor","type":"string","internalType":"string"},{"name":"render3D","type":"bool","internalType":"bool"}]}],"stateMutability":"view"},{"type":"function","name":"getPeterZMap","inputs":[{"name":"_tokenId","type":"uint256","internalType":"uint256"}],"outputs":[{"name":"","type":"string","internalType":"string"}],"stateMutability":"view"},{"type":"function","name":"getTBAAddressForChonkId","inputs":[{"name":"_chonkId","type":"uint256","internalType":"uint256"}],"outputs":[{"name":"","type":"address","internalType":"address"}],"stateMutability":"view"},{"type":"function","name":"getTokenRenderZ","inputs":[{"name":"_peterTokenId","type":"uint256","internalType":"uint256"}],"outputs":[{"name":"","type":"bool","internalType":"bool"}],"stateMutability":"view"},{"type":"function","name":"getTraitTokens","inputs":[{"name":"_tbaAddress","type":"address","internalType":"address"}],"outputs":[{"name":"","type":"uint256[]","internalType":"uint256[]"}],"stateMutability":"view"},{"type":"function","name":"getTraitsForChonkId","inputs":[{"name":"_chonkId","type":"uint256","internalType":"uint256"}],"outputs":[{"name":"traitTokens","type":"uint256[]","internalType":"uint256[]"}],"stateMutability":"view"},{"type":"function","name":"isApprovedForAll","inputs":[{"name":"owner","type":"address","internalType":"address"},{"name":"operator","type":"address","internalType":"address"}],"outputs":[{"name":"","type":"bool","internalType":"bool"}],"stateMutability":"view"},{"type":"function","name":"mainRenderer2D","inputs":[],"outputs":[{"name":"","type":"address","internalType":"contract MainRenderer2D"}],"stateMutability":"view"},{"type":"function","name":"mainRenderer3D","inputs":[],"outputs":[{"name":"","type":"address","internalType":"contract MainRenderer3D"}],"stateMutability":"view"},{"type":"function","name":"marketplace","inputs":[],"outputs":[{"name":"","type":"address","internalType":"contract ChonksMarket"}],"stateMutability":"view"},{"type":"function","name":"maxTraitsToOutput","inputs":[],"outputs":[{"name":"","type":"uint256","internalType":"uint256"}],"stateMutability":"view"},{"type":"function","name":"mint","inputs":[{"name":"_amount","type":"uint256","internalType":"uint256"}],"outputs":[],"stateMutability":"payable"},{"type":"function","name":"mintStartTime","inputs":[],"outputs":[{"name":"","type":"uint256","internalType":"uint256"}],"stateMutability":"view"},{"type":"function","name":"name","inputs":[],"outputs":[{"name":"","type":"string","internalType":"string"}],"stateMutability":"view"},{"type":"function","name":"owner","inputs":[],"outputs":[{"name":"result","type":"address","internalType":"address"}],"stateMutability":"view"},{"type":"function","name":"ownerOf","inputs":[{"name":"tokenId","type":"uint256","internalType":"uint256"}],"outputs":[{"name":"","type":"address","internalType":"address"}],"stateMutability":"view"},{"type":"function","name":"ownershipHandoverExpiresAt","inputs":[{"name":"pendingOwner","type":"address","internalType":"address"}],"outputs":[{"name":"result","type":"uint256","internalType":"uint256"}],"stateMutability":"view"},{"type":"function","name":"peterMakeover","inputs":[{"name":"_peterTokenId","type":"uint256","internalType":"uint256"},{"name":"_headTokenId","type":"uint256","internalType":"uint256"},{"name":"_hairTokenId","type":"uint256","internalType":"uint256"},{"name":"_faceTokenId","type":"uint256","internalType":"uint256"},{"name":"_accessoryTokenId","type":"uint256","internalType":"uint256"},{"name":"_topTokenId","type":"uint256","internalType":"uint256"},{"name":"_bottomTokenId","type":"uint256","internalType":"uint256"},{"name":"_shoesTokenId","type":"uint256","internalType":"uint256"},{"name":"_bodyIndex","type":"uint8","internalType":"uint8"},{"name":"_backgroundColor","type":"string","internalType":"string"}],"outputs":[],"stateMutability":"nonpayable"},{"type":"function","name":"price","inputs":[],"outputs":[{"name":"","type":"uint256","internalType":"uint256"}],"stateMutability":"view"},{"type":"function","name":"renderAsDataUri","inputs":[{"name":"_tokenId","type":"uint256","internalType":"uint256"}],"outputs":[{"name":"","type":"string","internalType":"string"}],"stateMutability":"view"},{"type":"function","name":"renderAsDataUri2D","inputs":[{"name":"_tokenId","type":"uint256","internalType":"uint256"}],"outputs":[{"name":"","type":"string","internalType":"string"}],"stateMutability":"view"},{"type":"function","name":"renderAsDataUri3D","inputs":[{"name":"_tokenId","type":"uint256","internalType":"uint256"}],"outputs":[{"name":"","type":"string","internalType":"string"}],"stateMutability":"view"},{"type":"function","name":"renounceOwnership","inputs":[],"outputs":[],"stateMutability":"payable"},{"type":"function","name":"requestOwnershipHandover","inputs":[],"outputs":[],"stateMutability":"payable"},{"type":"function","name":"safeTransferFrom","inputs":[{"name":"from","type":"address","internalType":"address"},{"name":"to","type":"address","internalType":"address"},{"name":"tokenId","type":"uint256","internalType":"uint256"}],"outputs":[],"stateMutability":"nonpayable"},{"type":"function","name":"safeTransferFrom","inputs":[{"name":"from","type":"address","internalType":"address"},{"name":"to","type":"address","internalType":"address"},{"name":"tokenId","type":"uint256","internalType":"uint256"},{"name":"data","type":"bytes","internalType":"bytes"}],"outputs":[],"stateMutability":"nonpayable"},{"type":"function","name":"setApprovalForAll","inputs":[{"name":"_operator","type":"address","internalType":"address"},{"name":"_approved","type":"bool","internalType":"bool"}],"outputs":[],"stateMutability":"nonpayable"},{"type":"function","name":"setApprovalForAllChonksMarketplace","inputs":[{"name":"_chonkId","type":"uint256","internalType":"uint256"},{"name":"_operator","type":"address","internalType":"address"},{"name":"_approved","type":"bool","internalType":"bool"}],"outputs":[],"stateMutability":"nonpayable"},{"type":"function","name":"setBackgroundColor","inputs":[{"name":"_peterTokenId","type":"uint256","internalType":"uint256"},{"name":"_color","type":"string","internalType":"string"}],"outputs":[],"stateMutability":"nonpayable"},{"type":"function","name":"setBodyIndex","inputs":[{"name":"_peterTokenId","type":"uint256","internalType":"uint256"},{"name":"_bodyIndex","type":"uint8","internalType":"uint8"}],"outputs":[],"stateMutability":"nonpayable"},{"type":"function","name":"setFirstSeasonRenderMinter","inputs":[{"name":"_dataContract","type":"address","internalType":"address"}],"outputs":[],"stateMutability":"nonpayable"},{"type":"function","name":"setMainRenderer2D","inputs":[{"name":"_mainRenderer2D","type":"address","internalType":"address"}],"outputs":[],"stateMutability":"nonpayable"},{"type":"function","name":"setMainRenderer3D","inputs":[{"name":"_mainRenderer3D","type":"address","internalType":"address"}],"outputs":[],"stateMutability":"nonpayable"},{"type":"function","name":"setMarketplace","inputs":[{"name":"_marketplace","type":"address","internalType":"address"}],"outputs":[],"stateMutability":"nonpayable"},{"type":"function","name":"setMaxTraitsToOutput","inputs":[{"name":"_maxTraitsToOutput","type":"uint256","internalType":"uint256"}],"outputs":[],"stateMutability":"nonpayable"},{"type":"function","name":"setMintStartTime","inputs":[{"name":"_mintStartTime","type":"uint256","internalType":"uint256"}],"outputs":[],"stateMutability":"nonpayable"},{"type":"function","name":"setPrice","inputs":[{"name":"_priceInWei","type":"uint256","internalType":"uint256"}],"outputs":[],"stateMutability":"nonpayable"},{"type":"function","name":"setTokenRender3D","inputs":[{"name":"_peterTokenId","type":"uint256","internalType":"uint256"},{"name":"_render3D","type":"bool","internalType":"bool"}],"outputs":[],"stateMutability":"nonpayable"},{"type":"function","name":"setTraitsContract","inputs":[{"name":"_address","type":"address","internalType":"contract PeterTraits"}],"outputs":[],"stateMutability":"nonpayable"},{"type":"function","name":"setWithdrawAddress","inputs":[{"name":"_withdrawAddress","type":"address","internalType":"address"}],"outputs":[],"stateMutability":"nonpayable"},{"type":"function","name":"supportsInterface","inputs":[{"name":"interfaceId","type":"bytes4","internalType":"bytes4"}],"outputs":[{"name":"","type":"bool","internalType":"bool"}],"stateMutability":"view"},{"type":"function","name":"symbol","inputs":[],"outputs":[{"name":"","type":"string","internalType":"string"}],"stateMutability":"view"},{"type":"function","name":"tbaAddressToTokenId","inputs":[{"name":"","type":"address","internalType":"address"}],"outputs":[{"name":"","type":"uint256","internalType":"uint256"}],"stateMutability":"view"},{"type":"function","name":"tokenByIndex","inputs":[{"name":"index","type":"uint256","internalType":"uint256"}],"outputs":[{"name":"","type":"uint256","internalType":"uint256"}],"stateMutability":"view"},{"type":"function","name":"tokenIdToTBAAccountAddress","inputs":[{"name":"","type":"uint256","internalType":"uint256"}],"outputs":[{"name":"","type":"address","internalType":"address"}],"stateMutability":"view"},{"type":"function","name":"tokenOfOwnerByIndex","inputs":[{"name":"owner","type":"address","internalType":"address"},{"name":"index","type":"uint256","internalType":"uint256"}],"outputs":[{"name":"","type":"uint256","internalType":"uint256"}],"stateMutability":"view"},{"type":"function","name":"tokenURI","inputs":[{"name":"_tokenId","type":"uint256","internalType":"uint256"}],"outputs":[{"name":"","type":"string","internalType":"string"}],"stateMutability":"view"},{"type":"function","name":"totalSupply","inputs":[],"outputs":[{"name":"","type":"uint256","internalType":"uint256"}],"stateMutability":"view"},{"type":"function","name":"traitsContract","inputs":[],"outputs":[{"name":"","type":"address","internalType":"contract PeterTraits"}],"stateMutability":"view"},{"type":"function","name":"transferFrom","inputs":[{"name":"from","type":"address","internalType":"address"},{"name":"to","type":"address","internalType":"address"},{"name":"tokenId","type":"uint256","internalType":"uint256"}],"outputs":[],"stateMutability":"nonpayable"},{"type":"function","name":"transferOwnership","inputs":[{"name":"newOwner","type":"address","internalType":"address"}],"outputs":[],"stateMutability":"payable"},{"type":"function","name":"unequip","inputs":[{"name":"_peterTokenId","type":"uint256","internalType":"uint256"},{"name":"traitType","type":"uint8","internalType":"enum TraitCategory.Name"}],"outputs":[],"stateMutability":"nonpayable"},{"type":"function","name":"unequipAll","inputs":[{"name":"_peterTokenId","type":"uint256","internalType":"uint256"}],"outputs":[],"stateMutability":"nonpayable"},{"type":"function","name":"walletOfOwner","inputs":[{"name":"_owner","type":"address","internalType":"address"}],"outputs":[{"name":"","type":"uint256[]","internalType":"uint256[]"}],"stateMutability":"view"},{"type":"function","name":"withdraw","inputs":[],"outputs":[],"stateMutability":"nonpayable"},{"type":"function","name":"withdrawAddress","inputs":[],"outputs":[{"name":"","type":"address","internalType":"address"}],"stateMutability":"view"},{"type":"event","name":"Approval","inputs":[{"name":"owner","type":"address","indexed":true,"internalType":"address"},{"name":"approved","type":"address","indexed":true,"internalType":"address"},{"name":"tokenId","type":"uint256","indexed":true,"internalType":"uint256"}],"anonymous":false},{"type":"event","name":"ApprovalForAll","inputs":[{"name":"owner","type":"address","indexed":true,"internalType":"address"},{"name":"operator","type":"address","indexed":true,"internalType":"address"},{"name":"approved","type":"bool","indexed":false,"internalType":"bool"}],"anonymous":false},{"type":"event","name":"BackgroundColor","inputs":[{"name":"owner","type":"address","indexed":true,"internalType":"address"},{"name":"tokenId","type":"uint256","indexed":true,"internalType":"uint256"},{"name":"color","type":"string","indexed":false,"internalType":"string"}],"anonymous":false},{"type":"event","name":"BatchMetadataUpdate","inputs":[{"name":"_fromTokenId","type":"uint256","indexed":false,"internalType":"uint256"},{"name":"_toTokenId","type":"uint256","indexed":false,"internalType":"uint256"}],"anonymous":false},{"type":"event","name":"BodyIndex","inputs":[{"name":"owner","type":"address","indexed":true,"internalType":"address"},{"name":"tokenId","type":"uint256","indexed":true,"internalType":"uint256"},{"name":"_bodyIndex","type":"uint8","indexed":false,"internalType":"uint8"}],"anonymous":false},{"type":"event","name":"Equip","inputs":[{"name":"owner","type":"address","indexed":true,"internalType":"address"},{"name":"tokenId","type":"uint256","indexed":true,"internalType":"uint256"},{"name":"traitTokenId","type":"uint256","indexed":true,"internalType":"uint256"},{"name":"traitCategory","type":"uint8","indexed":false,"internalType":"uint8"}],"anonymous":false},{"type":"event","name":"EquipAll","inputs":[{"name":"owner","type":"address","indexed":true,"internalType":"address"},{"name":"tokenId","type":"uint256","indexed":true,"internalType":"uint256"}],"anonymous":false},{"type":"event","name":"MetadataUpdate","inputs":[{"name":"_tokenId","type":"uint256","indexed":false,"internalType":"uint256"}],"anonymous":false},{"type":"event","name":"Mint","inputs":[{"name":"owner","type":"address","indexed":true,"internalType":"address"},{"name":"tokenId","type":"uint256","indexed":true,"internalType":"uint256"}],"anonymous":false},{"type":"event","name":"OwnershipHandoverCanceled","inputs":[{"name":"pendingOwner","type":"address","indexed":true,"internalType":"address"}],"anonymous":false},{"type":"event","name":"OwnershipHandoverRequested","inputs":[{"name":"pendingOwner","type":"address","indexed":true,"internalType":"address"}],"anonymous":false},{"type":"event","name":"OwnershipTransferred","inputs":[{"name":"oldOwner","type":"address","indexed":true,"internalType":"address"},{"name":"newOwner","type":"address","indexed":true,"internalType":"address"}],"anonymous":false},{"type":"event","name":"Render3D","inputs":[{"name":"owner","type":"address","indexed":true,"internalType":"address"},{"name":"tokenId","type":"uint256","indexed":true,"internalType":"uint256"},{"name":"renderZ","type":"bool","indexed":false,"internalType":"bool"}],"anonymous":false},{"type":"event","name":"Transfer","inputs":[{"name":"from","type":"address","indexed":true,"internalType":"address"},{"name":"to","type":"address","indexed":true,"internalType":"address"},{"name":"tokenId","type":"uint256","indexed":true,"internalType":"uint256"}],"anonymous":false},{"type":"event","name":"Unequip","inputs":[{"name":"owner","type":"address","indexed":true,"internalType":"address"},{"name":"tokenId","type":"uint256","indexed":true,"internalType":"uint256"},{"name":"traitCategory","type":"uint8","indexed":false,"internalType":"uint8"}],"anonymous":false},{"type":"event","name":"UnequipAll","inputs":[{"name":"owner","type":"address","indexed":true,"internalType":"address"},{"name":"tokenId","type":"uint256","indexed":true,"internalType":"uint256"}],"anonymous":false},{"type":"error","name":"AlreadyInitialized","inputs":[]},{"type":"error","name":"BodyAlreadyExists","inputs":[]},{"type":"error","name":"CantBeZero","inputs":[]},{"type":"error","name":"CantTransfer","inputs":[]},{"type":"error","name":"CantTransferToTBAs","inputs":[]},{"type":"error","name":"FirstSeasonRenderMinterNotSet","inputs":[]},{"type":"error","name":"IncorrectPeterOwner","inputs":[]},{"type":"error","name":"IncorrectTBAOwner","inputs":[]},{"type":"error","name":"IncorrectTraitType","inputs":[]},{"type":"error","name":"InsufficientFunds","inputs":[]},{"type":"error","name":"InvalidBodyIndex","inputs":[]},{"type":"error","name":"InvalidColor","inputs":[]},{"type":"error","name":"InvalidLevelAmount","inputs":[]},{"type":"error","name":"InvalidSignature","inputs":[]},{"type":"error","name":"MintEnded","inputs":[]},{"type":"error","name":"MintNotStarted","inputs":[]},{"type":"error","name":"NewOwnerIsZeroAddress","inputs":[]},{"type":"error","name":"NoHandoverRequest","inputs":[]},{"type":"error","name":"NonceAlreadyUsed","inputs":[]},{"type":"error","name":"PeterDoesntExist","inputs":[]},{"type":"error","name":"Unauthorized","inputs":[]},{"type":"error","name":"UseUnequip","inputs":[]},{"type":"error","name":"WithdrawFailed","inputs":[]},{"type":"error","name":"markaSaysNo","inputs":[]}],"bytecode":{"object":"0x608060405260636015553480156200001657600080fd5b5060405162005de738038062005de7833981016040819052620000399162000100565b6040518060400160405280600a81526020016914195d195c8815195cdd60b21b815250604051806040016040528060058152602001642822aa22a960d91b81525081600090816200008b9190620001d2565b5060016200009a8282620001d2565b50506001600a5550620000ad33620000c4565b600b805460ff19169115159190911790556200029e565b6001600160a01b0316638b78c6d8198190558060007f8be0079c531659141344cd1fd0a4f28419497f9722a3daafe3b4186f6b6457e08180a350565b6000602082840312156200011357600080fd5b815180151581146200012457600080fd5b9392505050565b634e487b7160e01b600052604160045260246000fd5b600181811c908216806200015657607f821691505b6020821081036200017757634e487b7160e01b600052602260045260246000fd5b50919050565b601f821115620001cd576000816000526020600020601f850160051c81016020861015620001a85750805b601f850160051c820191505b81811015620001c957828155600101620001b4565b5050505b505050565b81516001600160401b03811115620001ee57620001ee6200012b565b6200020681620001ff845462000141565b846200017d565b602080601f8311600181146200023e5760008415620002255750858301515b600019600386901b1c1916600185901b178555620001c9565b600085815260208120601f198616915b828110156200026f578886015182559484019460019091019084016200024e565b50858210156200028e5787850151600019600388901b60f8161c191681555b5050505050600190811b01905550565b615b3980620002ae6000396000f3fe60806040526004361061045c5760003560e01c80638aa1e4c81161023f578063b66ef6e311610139578063e1405540116100b6578063f2fde38b1161007a578063f2fde38b14610dfc578063f3f8efb914610e0f578063f4bec0b614610e2f578063f6a0c93214610e4f578063fee81cf414610e8557600080fd5b8063e140554014610d4a578063e3d2155514610d6a578063e985e9c514610d80578063f04e283e14610dc9578063f2361e2314610ddc57600080fd5b8063c87b56dd116100fd578063c87b56dd14610caa578063cdb6dd5c14610cca578063d5b3621b14610cea578063d68c4f3214610d0a578063dceef0ec14610d2a57600080fd5b8063b66ef6e314610bfd578063b88d4fde14610c1d578063be928ff614610c3d578063bef1dfb714610c6a578063c093afdb14610c8a57600080fd5b80639c05d68d116101c7578063a1d626801161018b578063a1d6268014610b42578063a22cb46514610b62578063a23830ae14610b82578063a4bf9a0014610bb0578063abc8c7af14610bdd57600080fd5b80639c05d68d14610aae5780639c7be2f114610ae45780639f6e463714610af9578063a035b1fe14610b19578063a0712d6814610b2f57600080fd5b806392012f081161020e57806392012f0814610a14578063931e2e4914610a4357806393ccba7214610a5957806395d89b4114610a79578063998cfb6e14610a8e57600080fd5b80638aa1e4c81461099b5780638da5cb5b146109bb578063916c546b146109d457806391b7f5ed146109f457600080fd5b80633ab1a4941161035b57806358a97640116102d857806370a082311161029c57806370a0823114610900578063715018a61461092057806373ad6c2d146109285780637e2e6c47146109485780638200ea511461096857600080fd5b806358a97640146108295780635eabd84a146108495780636352211e14610869578063667043491461088957806367d2afe2146108d357600080fd5b80634a60f6201161031f5780634a60f620146107ab5780634f6ccce7146107c157806354d1f13d146107e1578063550ab247146107e957806355737f351461080957600080fd5b80633ab1a494146107095780633ccfd60b1461072957806342842e0e1461073e578063438b63001461075e5780634a4333a31461078b57600080fd5b80631581b600116103e95780632bd1ca45116103ad5780632bd1ca45146106695780632f745c59146106895780633044825b146106a9578063306c7334146106c957806333d3d9bf146106e957600080fd5b80631581b600146105e257806318160ddd1461060257806323b872dd146106215780632569296214610641578063282575321461064957600080fd5b8063081812fc11610430578063081812fc1461051a578063095ea7b3146105525780630c83f9d71461057257806313ea0ae3146105a257806314fe8ff4146105c257600080fd5b80621792061461046157806301ffc9a71461048357806304003bd0146104b857806306fdde03146104f8575b600080fd5b34801561046d57600080fd5b5061048161047c366004614a08565b610eb8565b005b34801561048f57600080fd5b506104a361049e366004614a3b565b610ee2565b60405190151581526020015b60405180910390f35b3480156104c457600080fd5b506104d86104d3366004614a58565b610ef3565b604080516001600160a01b039384168152929091166020830152016104af565b34801561050457600080fd5b5061050d610f22565b6040516104af9190614ac1565b34801561052657600080fd5b5061053a610535366004614a58565b610fb4565b6040516001600160a01b0390911681526020016104af565b34801561055e57600080fd5b5061048161056d366004614ad4565b610fdb565b34801561057e57600080fd5b5061059261058d366004614a58565b61102c565b6040516104af9493929190614b00565b3480156105ae57600080fd5b5060125461053a906001600160a01b031681565b3480156105ce57600080fd5b5061050d6105dd366004614a58565b6111ed565b3480156105ee57600080fd5b5060175461053a906001600160a01b031681565b34801561060e57600080fd5b506008545b6040519081526020016104af565b34801561062d57600080fd5b5061048161063c366004614b4a565b611431565b610481611470565b34801561065557600080fd5b50610481610664366004614b8b565b6114bf565b34801561067557600080fd5b5061050d610684366004614a58565b6116b8565b34801561069557600080fd5b506106136106a4366004614ad4565b61177c565b3480156106b557600080fd5b506104816106c4366004614a58565b611812565b3480156106d557600080fd5b5061050d6106e4366004614a58565b6118cd565b3480156106f557600080fd5b50610481610704366004614a58565b6118f0565b34801561071557600080fd5b50610481610724366004614a08565b6118fd565b34801561073557600080fd5b50610481611927565b34801561074a57600080fd5b50610481610759366004614b4a565b6119a6565b34801561076a57600080fd5b5061077e610779366004614a08565b6119c1565b6040516104af9190614bad565b34801561079757600080fd5b506104816107a6366004614bf1565b611a58565b3480156107b757600080fd5b5061061360165481565b3480156107cd57600080fd5b506106136107dc366004614a58565b611dc0565b610481611e53565b3480156107f557600080fd5b50610481610804366004614c5b565b611e8f565b34801561081557600080fd5b5061053a610824366004614b8b565b611ee5565b34801561083557600080fd5b50610481610844366004614a08565b611f1d565b34801561085557600080fd5b50610481610864366004614a08565b611f47565b34801561087557600080fd5b5061053a610884366004614a58565b611f71565b34801561089557600080fd5b506108a96108a4366004614a58565b611fd1565b604080516001600160a01b03948516815260208101939093529216918101919091526060016104af565b3480156108df57600080fd5b506108f36108ee366004614a58565b612072565b6040516104af9190614cde565b34801561090c57600080fd5b5061061361091b366004614a08565b6120de565b610481612164565b34801561093457600080fd5b50610481610943366004614a08565b612178565b34801561095457600080fd5b50610481610963366004614a08565b6121a2565b34801561097457600080fd5b506104a3610983366004614a58565b6000908152600c60205260409020600b015460ff1690565b3480156109a757600080fd5b506104a36109b6366004614b8b565b6121cc565b3480156109c757600080fd5b50638b78c6d8195461053a565b3480156109e057600080fd5b5061050d6109ef366004614a58565b61223b565b348015610a0057600080fd5b50610481610a0f366004614a58565b61233e565b348015610a2057600080fd5b50610a34610a2f366004614e02565b61234b565b6040516104af93929190614efb565b348015610a4f57600080fd5b5061061360195481565b348015610a6557600080fd5b50610481610a74366004614f34565b61249c565b348015610a8557600080fd5b5061050d612508565b348015610a9a57600080fd5b5061077e610aa9366004614a08565b612517565b348015610aba57600080fd5b5061053a610ac9366004614a58565b601a602052600090815260409020546001600160a01b031681565b348015610af057600080fd5b5061048161258d565b348015610b0557600080fd5b5061077e610b14366004614a58565b6125eb565b348015610b2557600080fd5b5061061360185481565b610481610b3d366004614a58565b61260f565b348015610b4e57600080fd5b5061050d610b5d366004614a58565b61299d565b348015610b6e57600080fd5b50610481610b7d366004614fd0565b6129cd565b348015610b8e57600080fd5b50610ba2610b9d366004614e02565b612a46565b6040516104af929190615005565b348015610bbc57600080fd5b50610613610bcb366004614a08565b601b6020526000908152604090205481565b348015610be957600080fd5b5060115461053a906001600160a01b031681565b348015610c0957600080fd5b5060145461053a906001600160a01b031681565b348015610c2957600080fd5b50610481610c38366004615033565b612af4565b348015610c4957600080fd5b50610c5d610c58366004614a58565b612b26565b6040516104af919061509e565b348015610c7657600080fd5b50610481610c85366004615155565b612ccc565b348015610c9657600080fd5b5060105461053a906001600160a01b031681565b348015610cb657600080fd5b5061050d610cc5366004614a58565b612d77565b348015610cd657600080fd5b50610481610ce5366004615185565b612db8565b348015610cf657600080fd5b50610481610d05366004614a58565b612f7c565b348015610d1657600080fd5b50610481610d253660046151b5565b612f89565b348015610d3657600080fd5b5061050d610d45366004614a58565b613205565b348015610d5657600080fd5b50610481610d653660046151fb565b6134d7565b348015610d7657600080fd5b5061061360155481565b348015610d8c57600080fd5b506104a3610d9b36600461521e565b6001600160a01b03918216600090815260056020908152604080832093909416825291909152205460ff1690565b610481610dd7366004614a08565b61359f565b348015610de857600080fd5b50610481610df736600461524c565b6135dc565b610481610e0a366004614a08565b613629565b348015610e1b57600080fd5b5061050d610e2a366004614a58565b613650565b348015610e3b57600080fd5b5060135461053a906001600160a01b031681565b348015610e5b57600080fd5b5061053a610e6a366004614a58565b6000908152601a60205260409020546001600160a01b031690565b348015610e9157600080fd5b50610613610ea0366004614a08565b63389a75e1600c908152600091909152602090205490565b610ec06138d7565b601480546001600160a01b0319166001600160a01b0392909216919091179055565b6000610eed826138f2565b92915050565b600080610eff83611f71565b6000938452601a60205260409093205492936001600160a01b0390931692915050565b606060008054610f31906152d1565b80601f0160208091040260200160405190810160405280929190818152602001828054610f5d906152d1565b8015610faa5780601f10610f7f57610100808354040283529160200191610faa565b820191906000526020600020905b815481529060010190602001808311610f8d57829003601f168201915b5050505050905090565b6000610fbf82613917565b506000908152600460205260409020546001600160a01b031690565b610fe481611f71565b6001600160a01b0316336001600160a01b031614611014576040516282b42960e81b815260040160405180910390fd5b61101e8183613976565b61102882826139b5565b5050565b600f602052600090815260409020805460018201805491929161104e906152d1565b80601f016020809104026020016040519081016040528092919081815260200182805461107a906152d1565b80156110c75780601f1061109c576101008083540402835291602001916110c7565b820191906000526020600020905b8154815290600101906020018083116110aa57829003601f168201915b5050505050908060020180546110dc906152d1565b80601f0160208091040260200160405190810160405280929190818152602001828054611108906152d1565b80156111555780601f1061112a57610100808354040283529160200191611155565b820191906000526020600020905b81548152906001019060200180831161113857829003601f168201915b50505050509080600301805461116a906152d1565b80601f0160208091040260200160405190810160405280929190818152602001828054611196906152d1565b80156111e35780601f106111b8576101008083540402835291602001916111e3565b820191906000526020600020905b8154815290600101906020018083116111c657829003601f168201915b5050505050905084565b606060006111fa836125eb565b90506000601060009054906101000a90046001600160a01b03166001600160a01b0316635c1ef2566040518163ffffffff1660e01b8152600401600060405180830381865afa158015611251573d6000803e3d6000fd5b505050506040513d6000823e601f3d908101601f191682016040526112799190810190615350565b9050600060155483511061128f57601554611292565b82515b90506000816001600160401b038111156112ae576112ae614cf1565b6040519080825280602002602001820160405280156112e157816020015b60608152602001906001900390816112cc5790505b50905060005b828110156113a85760105485516001600160a01b039091169063c77915319087908490811061131857611318615384565b60200260200101516040518263ffffffff1660e01b815260040161133e91815260200190565b600060405180830381865afa15801561135b573d6000803e3d6000fd5b505050506040513d6000823e601f3d908101601f191682016040526113839190810190615350565b82828151811061139557611395615384565b60209081029190910101526001016112e7565b506013548451601554604051631719ff8760e11b81526001600160a01b0390931692632e33ff0e926113e29288928792919060040161539a565b600060405180830381865afa1580156113ff573d6000803e3d6000fd5b505050506040513d6000823e601f3d908101601f191682016040526114279190810190615350565b9695505050505050565b61143b3382613a23565b6114605760405162461bcd60e51b81526004016114579061541b565b60405180910390fd5b61146b838383613aa1565b505050565b60006202a3006001600160401b03164201905063389a75e1600c5233600052806020600c2055337fdbf36a107da19e49527a7176a1babf963b4b0ff8cde35ee35d6cd8f1f9ac7e1d600080a250565b816114c981611f71565b6001600160a01b0316336001600160a01b0316146114fa576040516324adc17160e11b815260040160405180910390fd5b8160000361151b57604051630754c7f360e41b815260040160405180910390fd5b60006115278484613c4e565b9050600181600781111561153d5761153d615469565b03611554576000848152600c602052604090208390555b600281600781111561156857611568615469565b03611582576000848152600c602052604090206001018390555b600381600781111561159657611596615469565b036115b0576000848152600c602052604090206002018390555b60048160078111156115c4576115c4615469565b036115de576000848152600c602052604090206003018390555b60058160078111156115f2576115f2615469565b0361160c576000848152600c602052604090206004018390555b600681600781111561162057611620615469565b0361163a576000848152600c602052604090206005018390555b600781600781111561164e5761164e615469565b03611668576000848152600c602052604090206006018390555b828461167386611f71565b6001600160a01b0316600080516020615ae483398151915284600781111561169d5761169d615469565b60405160ff909116815260200160405180910390a450505050565b606080606060006116c885612b26565b90506116d38161234b565b5060105460405163bb12d21d60e01b81529195506001600160a01b0316915063bb12d21d9061170690849060040161509e565b600060405180830381865afa158015611723573d6000803e3d6000fd5b505050506040513d6000823e601f3d908101601f1916820160405261174b919081019061547f565b50604051909350611763915084908490602001615506565b6040516020818303038152906040529350505050919050565b6000611787836120de565b82106117e95760405162461bcd60e51b815260206004820152602b60248201527f455243373231456e756d657261626c653a206f776e657220696e646578206f7560448201526a74206f6620626f756e647360a81b6064820152608401611457565b506001600160a01b03919091166000908152600660209081526040808320938352929052205490565b8061181c81611f71565b6001600160a01b0316336001600160a01b03161461184d576040516324adc17160e11b815260040160405180910390fd5b6000828152600c60205260408120818155600181018290556002810182905560038101829055600481018290556005810182905560068101919091558261189381611f71565b6001600160a01b03167f46078a2cd4c69c3b4a27bdc69fdfe03d442ebcf405f1a68e9b5df6bc3e24429760405160405180910390a3505050565b60608060006118db84612b26565b90506118e68161234b565b5095945050505050565b6118f86138d7565b601555565b6119056138d7565b601780546001600160a01b0319166001600160a01b0392909216919091179055565b61192f6138d7565b6017546040516000916001600160a01b03169047908381818185875af1925050503d806000811461197c576040519150601f19603f3d011682016040523d82523d6000602084013e611981565b606091505b50509050806119a357604051631d42c86760e21b815260040160405180910390fd5b50565b61146b83838360405180602001604052806000815250612af4565b606060006119ce836120de565b90506000816001600160401b038111156119ea576119ea614cf1565b604051908082528060200260200182016040528015611a13578160200160208202803683370190505b50905060005b82811015611a5057611a2b858261177c565b828281518110611a3d57611a3d615384565b6020908102919091010152600101611a19565b509392505050565b87611a6281611f71565b6001600160a01b0316336001600160a01b031614611a93576040516324adc17160e11b815260040160405180910390fd5b8715611afa57611aa38989613cd3565b611aae886001613dcb565b6000898152600c602052604090208890558789611aca81611f71565b6001600160a01b0316600080516020615ae4833981519152600160405160ff909116815260200160405180910390a45b8615611b6457611b0a8988613cd3565b611b15876002613dcb565b6000898152600c602052604090206001018790558689611b3481611f71565b6001600160a01b0316600080516020615ae4833981519152600260405160ff909116815260200160405180910390a45b8515611bce57611b748987613cd3565b611b7f866003613dcb565b6000898152600c602052604090206002018690558589611b9e81611f71565b6001600160a01b0316600080516020615ae4833981519152600360405160ff909116815260200160405180910390a45b8415611c3857611bde8986613cd3565b611be9856004613dcb565b6000898152600c602052604090206003018590558489611c0881611f71565b6001600160a01b0316600080516020615ae4833981519152600460405160ff909116815260200160405180910390a45b8315611ca257611c488985613cd3565b611c53846005613dcb565b6000898152600c602052604090206004018490558389611c7281611f71565b6001600160a01b0316600080516020615ae4833981519152600560405160ff909116815260200160405180910390a45b8215611d0c57611cb28984613cd3565b611cbd836006613dcb565b6000898152600c602052604090206005018390558289611cdc81611f71565b6001600160a01b0316600080516020615ae4833981519152600660405160ff909116815260200160405180910390a45b8115611d7657611d1c8983613cd3565b611d27826007613dcb565b6000898152600c602052604090206006018290558189611d4681611f71565b6001600160a01b0316600080516020615ae4833981519152600760405160ff909116815260200160405180910390a45b88611d808a611f71565b6001600160a01b03167f56680590212b09eb4b72a2eba8801b037ec046dfc754538e924f5bb6a8c4db6c60405160405180910390a3505050505050505050565b6000611dcb60085490565b8210611e2e5760405162461bcd60e51b815260206004820152602c60248201527f455243373231456e756d657261626c653a20676c6f62616c20696e646578206f60448201526b7574206f6620626f756e647360a01b6064820152608401611457565b60088281548110611e4157611e41615384565b90600052602060002001549050919050565b63389a75e1600c523360005260006020600c2055337ffa7b8eab7da67f412cc9575ed43464468f9bfbae89d1675917346ca6d8fe3c92600080a2565b6000611e9a84611f71565b90506001600160a01b0381163314611ec4576040516282b42960e81b815260040160405180910390fd5b8115611ed457611ed48484613976565b611edf818484613ecd565b50505050565b601c6020528160005260406000208181548110611f0157600080fd5b6000918252602090912001546001600160a01b03169150829050565b611f256138d7565b601280546001600160a01b0319166001600160a01b0392909216919091179055565b611f4f6138d7565b601080546001600160a01b0319166001600160a01b0392909216919091179055565b6000818152600260205260408120546001600160a01b031680610eed5760405162461bcd60e51b8152602060048201526018602482015277115490cdcc8c4e881a5b9d985b1a59081d1bdad95b88125160421b6044820152606401611457565b6010546040516331a9108f60e11b815260048101839052600091829182916001600160a01b031690636352211e90602401602060405180830381865afa15801561201f573d6000803e3d6000fd5b505050506040513d601f19601f820116820180604052508101906120439190615535565b6001600160a01b0381166000908152601b6020526040902054909350915061206a82611f71565b929491935050565b6000818152601c60209081526040918290208054835181840281018401909452808452606093928301828280156120d257602002820191906000526020600020905b81546001600160a01b031681526001909101906020018083116120b4575b50505050509050919050565b60006001600160a01b0382166121485760405162461bcd60e51b815260206004820152602960248201527f4552433732313a2061646472657373207a65726f206973206e6f7420612076616044820152683634b21037bbb732b960b91b6064820152608401611457565b506001600160a01b031660009081526003602052604090205490565b61216c6138d7565b6121766000613f93565b565b6121806138d7565b601180546001600160a01b0319166001600160a01b0392909216919091179055565b6121aa6138d7565b601380546001600160a01b0319166001600160a01b0392909216919091179055565b6000806121d884612b26565b80519091508314806121ed5750828160200151145b806121fb5750828160400151145b806122095750828160600151145b806122175750828160800151145b806122255750828160a00151145b806122335750828160c00151145b949350505050565b6013546000828152600f602052604080822090516371bed9e160e11b81526060936001600160a01b03169163e37db3c29161227c91600201906004016155cf565b600060405180830381865afa158015612299573d6000803e3d6000fd5b505050506040513d6000823e601f3d908101601f191682016040526122c19190810190615350565b6013546040516335b07b7960e11b81529192506001600160a01b031690636b60f6f2906122f2908490600401614ac1565b600060405180830381865afa15801561230f573d6000803e3d6000fd5b505050506040513d6000823e601f3d908101601f191682016040526123379190810190615350565b9392505050565b6123466138d7565b601855565b606080606061236184610120015160ff1661223b565b6101208501805160ff9081166000908152600f602052604080822060135494519093168252908190209051630d88d4ff60e01b81526003909201926001600160a01b031691630d88d4ff916123be916001909101906004016155e2565b600060405180830381865afa1580156123db573d6000803e3d6000fd5b505050506040513d6000823e601f3d908101601f191682016040526124039190810190615350565b81805461240f906152d1565b80601f016020809104026020016040519081016040528092919081815260200182805461243b906152d1565b80156124885780601f1061245d57610100808354040283529160200191612488565b820191906000526020600020905b81548152906001019060200180831161246b57829003601f168201915b505050505091509250925092509193909250565b896124a681611f71565b6001600160a01b0316336001600160a01b0316146124d7576040516324adc17160e11b815260040160405180910390fd5b6124e78b8b8b8b8b8b8b8b611a58565b6124f18b846134d7565b6124fb8b83612f89565b5050505050505050505050565b606060018054610f31906152d1565b60105460405162438b6360e81b81526001600160a01b03838116600483015260609260009291169063438b630090602401600060405180830381865afa158015612565573d6000803e3d6000fd5b505050506040513d6000823e601f3d908101601f191682016040526123379190810190615615565b600b5460ff16156121765760005b600a8110156125b6576125ae600461260f565b60010161259b565b506125e060016040518060400160405280600681526020016533333333333360d11b815250612f89565b612176600180612ccc565b6000818152601a60205260409020546060906001600160a01b031661233781612517565b6012546001600160a01b031661263857604051633390ca8960e21b815260040160405180910390fd5b806000036126595760405163e7195f5160e01b815260040160405180910390fd5b8060185461266791906156d0565b34146126865760405163356680b760e01b815260040160405180910390fd5b60005b818110156110285760006016600081546126a2906156e7565b918290555090506126b33382613fd1565b604051638a54c52f60e01b81527355266d75d1a14e4572138116af39863ed6596e7f600482015260006024820181905262014a34604483015230606483015260848201839052906f6551c19487814612e58fe0681377575890638a54c52f9060a4016020604051808303816000875af1158015612734573d6000803e3d6000fd5b505050506040513d601f19601f820116820180604052508101906127589190615535565b6000838152601a6020908152604080832080546001600160a01b0319166001600160a01b038616908117909155808452601b90925291829020859055905163189acdbd60e31b81527341c8f39463a868d3a88af00cd0fe7102f30e44ec60048201529192509063c4d66de890602401600060405180830381600087803b1580156127e157600080fd5b505af11580156127f5573d6000803e3d6000fd5b5050601254604051637458922960e11b81526001600160a01b03858116600483015260009450909116915063e8b12452906024016000604051808303816000875af1158015612848573d6000803e3d6000fd5b505050506040513d6000823e601f3d908101601f191682016040526128709190810190615615565b6000848152600c602052604081206008810186905582519293509183919061289a5761289a615384565b60200260200101518160060181905550816001815181106128bd576128bd615384565b60200260200101518160050181905550816002815181106128e0576128e0615384565b602002602001015181600401819055508160038151811061290357612903615384565b6020026020010151816001018190555060058460405160200161292891815260200190565b6040516020818303038152906040528051906020012060001c61294b9190615700565b60098201805460ff191660ff929092169190911790556040805180820190915260068152650c110d914e5160d21b6020820152600a82019061298d908261576a565b5050505050806001019050612689565b606060006129aa83612b26565b90508061016001516129c4576129bf83613650565b612337565b61233783613205565b8015612a3b5760006129de336119c1565b90508051600003612a01576040516282b42960e81b815260040160405180910390fd5b60005b8151811015612a3857612a30828281518110612a2257612a22615384565b602002602001015185613976565b600101612a04565b50505b611028338383613ecd565b606080612a5a83610120015160ff1661223b565b60135461012085015160ff166000908152600f6020526040908190209051630d88d4ff60e01b81526001600160a01b0390921691630d88d4ff91612aa6916001909101906004016155e2565b600060405180830381865afa158015612ac3573d6000803e3d6000fd5b505050506040513d6000823e601f3d908101601f19168201604052612aeb9190810190615350565b91509150915091565b612afe3383613a23565b612b1a5760405162461bcd60e51b81526004016114579061541b565b611edf84848484614127565b612b9560405180610180016040528060008152602001600081526020016000815260200160008152602001600081526020016000815260200160008152602001600063ffffffff16815260200160008152602001600060ff168152602001606081526020016000151581525090565b6000828152600c60209081526040808320815161018081018352815481526001820154938101939093526002810154918301919091526003810154606083015260048101546080830152600581015460a0830152600681015460c0830152600781015463ffffffff1660e08301526008810154610100830152600981015460ff16610120830152600a8101805461014084019190612c32906152d1565b80601f0160208091040260200160405190810160405280929190818152602001828054612c5e906152d1565b8015612cab5780601f10612c8057610100808354040283529160200191612cab565b820191906000526020600020905b815481529060010190602001808311612c8e57829003601f168201915b5050509183525050600b919091015460ff1615156020909101529392505050565b81612cd681611f71565b6001600160a01b0316336001600160a01b031614612d07576040516324adc17160e11b815260040160405180910390fd5b6000838152600c60205260409020600b01805460ff191683151517905582612d2e81611f71565b6001600160a01b03167f6dd9e2813f787f711671bf91b2e57a72b9b61bc279b934201f3fd29b3b5f8cbe84604051612d6a911515815260200190565b60405180910390a3505050565b6000818152600260205260409020546060906001600160a01b0316612daf57604051631a65aaab60e31b815260040160405180910390fd5b610eed8261299d565b81612dc281611f71565b6001600160a01b0316336001600160a01b031614612df3576040516324adc17160e11b815260040160405180910390fd5b6001826007811115612e0757612e07615469565b03612e1c576000838152600c60205260408120555b6002826007811115612e3057612e30615469565b03612e48576000838152600c60205260408120600101555b6003826007811115612e5c57612e5c615469565b03612e74576000838152600c60205260408120600201555b6004826007811115612e8857612e88615469565b03612ea0576000838152600c60205260408120600301555b6005826007811115612eb457612eb4615469565b03612ecc576000838152600c60205260408120600401555b6006826007811115612ee057612ee0615469565b03612ef8576000838152600c60205260408120600501555b6007826007811115612f0c57612f0c615469565b03612f24576000838152600c60205260408120600601555b82612f2e84611f71565b6001600160a01b03167f3d8ac56c725fc7985e9444622a45baee28ba67d8a964045f747b465121f40e71846007811115612f6a57612f6a615469565b60405160ff9091168152602001612d6a565b612f846138d7565b601955565b81612f9381611f71565b6001600160a01b0316336001600160a01b031614612fc4576040516324adc17160e11b815260040160405180910390fd5b81518290600614612fe857604051631cf7e9c560e01b815260040160405180910390fd5b60408051808201909152600681526503036393432360d41b6020918201528151908201207fc9a8162f44485821dce92aaad6bb1b8cc6d457721d5ae939092ca3297c7dd0a50161304b5760405163a3c0b7b960e01b815260040160405180910390fd5b60005b600681101561319857603060f81b82828151811061306e5761306e615384565b01602001516001600160f81b031916108015906130af5750603960f81b82828151811061309d5761309d615384565b01602001516001600160f81b03191611155b1580156131115750604160f81b8282815181106130ce576130ce615384565b01602001516001600160f81b0319161080159061310f5750604660f81b8282815181106130fd576130fd615384565b01602001516001600160f81b03191611155b155b80156131725750606160f81b82828151811061312f5761312f615384565b01602001516001600160f81b031916108015906131705750606660f81b82828151811061315e5761315e615384565b01602001516001600160f81b03191611155b155b1561319057604051631cf7e9c560e01b815260040160405180910390fd5b60010161304e565b506000848152600c60205260409020600a016131b4848261576a565b50836131bf85611f71565b6001600160a01b03167f2e34f8c0f6052b66319b4a5df14eac164c6af8a0b37f612d4304a777e1ae7a3d856040516131f79190614ac1565b60405180910390a350505050565b606080606080606080606080606061323e6040518060800160405280606081526020016060815260200160608152602001600081525090565b60006132498c612b26565b90506132548161234b565b60105460405163bb12d21d60e01b8152939d50919a5095506001600160a01b03169063bb12d21d9061328a90849060040161509e565b600060405180830381865afa1580156132a7573d6000803e3d6000fd5b505050506040513d6000823e601f3d908101601f191682016040526132cf919081019061547f565b604051929b5090985095506132ea9085908790602001615829565b6040516020818303038152906040529250878760405160200161330e929190615506565b60408051601f19818403018152919052610140820151835295506133318c6125eb565b51606083015261012081015160ff166000908152600f60205260409020600101805461335c906152d1565b80601f0160208091040260200160405190810160405280929190818152602001828054613388906152d1565b80156133d55780601f106133aa576101008083540402835291602001916133d5565b820191906000526020600020905b8154815290600101906020018083116133b857829003601f168201915b505050505082602001819052506133fe8c6000908152600c60205260409020600b015460ff1690565b61342257604051806040016040528060028152602001610c9160f21b81525061343e565b604051806040016040528060028152602001610cd160f21b8152505b60408084019190915260145490516367b6032760e11b81526001600160a01b039091169063cf6c064e90613482908f908e9089908f908c908e908b906004016158ed565b600060405180830381865afa15801561349f573d6000803e3d6000fd5b505050506040513d6000823e601f3d908101601f191682016040526134c79190810190615350565b9c9b505050505050505050505050565b816134e181611f71565b6001600160a01b0316336001600160a01b031614613512576040516324adc17160e11b815260040160405180910390fd5b60048260ff161115613537576040516329ba348d60e11b815260040160405180910390fd5b6000838152600c60205260409020600901805460ff191660ff84161790558261355f81611f71565b60405160ff851681526001600160a01b0391909116907f454db5768a3f8187a5dd5e9cca100cf699d74d8a03f793d16da3932cdf34d35890602001612d6a565b6135a76138d7565b63389a75e1600c52806000526020600c2080544211156135cf57636f5e88186000526004601cfd5b600090556119a381613f93565b6135e46138d7565b6000848152600f6020526040902084815560018101613603858261576a565b5060028101613612848261576a565b5060038101613621838261576a565b505050505050565b6136316138d7565b8060601b61364757637448fbae6000526004601cfd5b6119a381613f93565b606080606080606080600061366488612b26565b905061366f81612a46565b601054604051631be5857160e31b81529298509096506001600160a01b03169063df2c2b88906136a390849060040161509e565b600060405180830381865afa1580156136c0573d6000803e3d6000fd5b505050506040513d6000823e601f3d908101601f191682016040526136e89190810190615976565b90945092506136f6886111ed565b91506137236040518060800160405280606081526020016060815260200160608152602001600081525090565b6101408201518152613734896125eb565b51606082015261012082015160ff166000908152600f60205260409020600101805461375f906152d1565b80601f016020809104026020016040519081016040528092919081815260200182805461378b906152d1565b80156137d85780601f106137ad576101008083540402835291602001916137d8565b820191906000526020600020905b8154815290600101906020018083116137bb57829003601f168201915b50505050508160200181905250613801896000908152600c60205260409020600b015460ff1690565b61382557604051806040016040528060028152602001610c9160f21b815250613841565b604051806040016040528060028152602001610cd160f21b8152505b6040808301919091526013549051630ed2eb5b60e41b81526001600160a01b039091169063ed2eb5b090613885908c908b908b908b908b908b908a906004016158ed565b600060405180830381865afa1580156138a2573d6000803e3d6000fd5b505050506040513d6000823e601f3d908101601f191682016040526138ca9190810190615350565b9998505050505050505050565b638b78c6d819543314612176576382b429006000526004601cfd5b60006001600160e01b0319821663780e9d6360e01b1480610eed5750610eed8261415a565b6000818152600260205260409020546001600160a01b03166119a35760405162461bcd60e51b8152602060048201526018602482015277115490cdcc8c4e881a5b9d985b1a59081d1bdad95b88125160421b6044820152606401611457565b6000918252601c6020908152604083208054600181018255908452922090910180546001600160a01b0319166001600160a01b03909216919091179055565b600081815260046020526040902080546001600160a01b0319166001600160a01b03841690811790915581906139ea82611f71565b6001600160a01b03167f8c5be1e5ebec7d5bd14f71427d1e84f3dd0314c0f7b2291e5b200ac8c7c3b92560405160405180910390a45050565b600080613a2f83611f71565b9050806001600160a01b0316846001600160a01b03161480613a7657506001600160a01b0380821660009081526005602090815260408083209388168352929052205460ff165b806122335750836001600160a01b0316613a8f84610fb4565b6001600160a01b031614949350505050565b826001600160a01b0316613ab482611f71565b6001600160a01b031614613b185760405162461bcd60e51b815260206004820152602560248201527f4552433732313a207472616e736665722066726f6d20696e636f72726563742060448201526437bbb732b960d91b6064820152608401611457565b6001600160a01b038216613b7a5760405162461bcd60e51b8152602060048201526024808201527f4552433732313a207472616e7366657220746f20746865207a65726f206164646044820152637265737360e01b6064820152608401611457565b613b858383836141aa565b613b906000826139b5565b6001600160a01b0383166000908152600360205260408120805460019290613bb99084906159cf565b90915550506001600160a01b0382166000908152600360205260408120805460019290613be79084906159e2565b909155505060008181526002602052604080822080546001600160a01b0319166001600160a01b0386811691821790925591518493918716917fddf252ad1be2c89b69c2b068fc378daa952ba7f163c4a11628f55a4df523b3ef91a461146b838383614585565b6000613c5a8383613cd3565b60105460405163e8a1268d60e01b8152600481018490526001600160a01b039091169063e8a1268d90602401602060405180830381865afa158015613ca3573d6000803e3d6000fd5b505050506040513d601f19601f82011682018060405250810190613cc791906159f5565b9050610eed8282613dcb565b81613cdd81611f71565b6001600160a01b0316336001600160a01b031614613d0e576040516324adc17160e11b815260040160405180910390fd5b6000838152601a60205260408082205460105491516331a9108f60e11b8152600481018690526001600160a01b0391821693929190911690636352211e90602401602060405180830381865afa158015613d6c573d6000803e3d6000fd5b505050506040513d601f19601f82011682018060405250810190613d909190615535565b9050816001600160a01b0316816001600160a01b031614613dc45760405163e6ca793160e01b815260040160405180910390fd5b5050505050565b60105460405163e8a1268d60e01b8152600481018490526000916001600160a01b03169063e8a1268d90602401602060405180830381865afa158015613e15573d6000803e3d6000fd5b505050506040513d601f19601f82011682018060405250810190613e3991906159f5565b9050816007811115613e4d57613e4d615469565b604051602001613e5f91815260200190565b60405160208183030381529060405280519060200120816007811115613e8757613e87615469565b604051602001613e9991815260200190565b604051602081830303815290604052805190602001201461146b57604051633e54c6fb60e11b815260040160405180910390fd5b816001600160a01b0316836001600160a01b031603613f2e5760405162461bcd60e51b815260206004820152601960248201527f4552433732313a20617070726f766520746f2063616c6c6572000000000000006044820152606401611457565b6001600160a01b03838116600081815260056020908152604080832094871680845294825291829020805460ff191686151590811790915591519182527f17307eab39ab6107e8899845ad3d59bd9653f200f220920489ca2b5937696c319101612d6a565b638b78c6d81980546001600160a01b039092169182907f8be0079c531659141344cd1fd0a4f28419497f9722a3daafe3b4186f6b6457e0600080a355565b6001600160a01b0382166140275760405162461bcd60e51b815260206004820181905260248201527f4552433732313a206d696e7420746f20746865207a65726f20616464726573736044820152606401611457565b6000818152600260205260409020546001600160a01b03161561408c5760405162461bcd60e51b815260206004820152601c60248201527f4552433732313a20746f6b656e20616c7265616479206d696e746564000000006044820152606401611457565b614098600083836141aa565b6001600160a01b03821660009081526003602052604081208054600192906140c19084906159e2565b909155505060008181526002602052604080822080546001600160a01b0319166001600160a01b03861690811790915590518392907fddf252ad1be2c89b69c2b068fc378daa952ba7f163c4a11628f55a4df523b3ef908290a461102860008383614585565b614132848484613aa1565b61413e8484848461458f565b611edf5760405162461bcd60e51b815260040161145790615a12565b60006001600160e01b031982166380ac58cd60e01b148061418b57506001600160e01b03198216635b5e139f60e01b145b80610eed57506301ffc9a760e01b6001600160e01b0319831614610eed565b6001600160a01b0383166141c35761146b838383614690565b6001600160a01b0382166000908152601b6020526040902054156141fa57604051639a42da2960e01b815260040160405180910390fd5b6000818152601a602052604080822054601054915162438b6360e81b81526001600160a01b03918216600482018190529392919091169063438b630090602401600060405180830381865afa158015614257573d6000803e3d6000fd5b505050506040513d6000823e601f3d908101601f1916820160405261427f9190810190615615565b9050600061428c856119c1565b9050600081516001600160401b038111156142a9576142a9614cf1565b6040519080825280602002602001820160405280156142d2578160200160208202803683370190505b50905060005b825181101561435357601a60008483815181106142f7576142f7615384565b6020026020010151815260200190815260200160002060009054906101000a90046001600160a01b031682828151811061433357614333615384565b6001600160a01b03909216602092830291909101909101526001016142d8565b5060115460405163644ec52760e01b8152600481018790526001600160a01b039091169063644ec52790602401600060405180830381600087803b15801561439a57600080fd5b505af11580156143ae573d6000803e3d6000fd5b5050601154604051631e92beb560e31b8152600481018990526001600160a01b038a81166024830152909116925063f495f5a89150604401600060405180830381600087803b15801561440057600080fd5b505af1158015614414573d6000803e3d6000fd5b5050505060005b835181101561457057600084828151811061443857614438615384565b6020908102919091010151601154604051632e1d274f60e01b8152600481018390529192506001600160a01b031690632e1d274f90602401600060405180830381600087803b15801561448a57600080fd5b505af115801561449e573d6000803e3d6000fd5b5050601154604051632333520b60e11b81526001600160a01b039091169250634666a41691506144d49084908790600401615a64565b600060405180830381600087803b1580156144ee57600080fd5b505af1158015614502573d6000803e3d6000fd5b505060105460405163487b1c2160e11b8152600481018590526001600160a01b0390911692506390f638429150602401600060405180830381600087803b15801561454c57600080fd5b505af1158015614560573d6000803e3d6000fd5b505050505080600101905061441b565b5061457c878787614690565b50505050505050565b61146b8184614748565b60006001600160a01b0384163b1561468557604051630a85bd0160e11b81526001600160a01b0385169063150b7a02906145d3903390899088908890600401615a7d565b6020604051808303816000875af192505050801561460e575060408051601f3d908101601f1916820190925261460b91810190615ab0565b60015b61466b573d80801561463c576040519150601f19603f3d011682016040523d82523d6000602084013e614641565b606091505b5080516000036146635760405162461bcd60e51b815260040161145790615a12565b805181602001fd5b6001600160e01b031916630a85bd0160e11b149050612233565b506001949350505050565b6001600160a01b0383166146eb576146e681600880546000838152600960205260408120829055600182018355919091527ff3f7a9fe364faab93b216da50a3214154f22a0a2b415b23a84c8169e8b636ee30155565b61470e565b816001600160a01b0316836001600160a01b03161461470e5761470e8382614831565b6001600160a01b0382166147255761146b816148ce565b826001600160a01b0316826001600160a01b03161461146b5761146b828261497d565b6000828152601c60209081526040808320805482518185028101850190935280835291929091908301828280156147a857602002820191906000526020600020905b81546001600160a01b0316815260019091019060200180831161478a575b5050506000868152601a60205260408120549394506001600160a01b03909316929150505b8251811015614819576147fb848483815181106147ec576147ec615384565b60200260200101516000613ecd565b614811828483815181106147ec576147ec615384565b6001016147cd565b506000848152601c60205260408120611edf916149c1565b6000600161483e846120de565b61484891906159cf565b60008381526007602052604090205490915080821461489b576001600160a01b03841660009081526006602090815260408083208584528252808320548484528184208190558352600790915290208190555b5060009182526007602090815260408084208490556001600160a01b039094168352600681528383209183525290812055565b6008546000906148e0906001906159cf565b6000838152600960205260408120546008805493945090928490811061490857614908615384565b90600052602060002001549050806008838154811061492957614929615384565b600091825260208083209091019290925582815260099091526040808220849055858252812055600880548061496157614961615acd565b6001900381819060005260206000200160009055905550505050565b6000614988836120de565b6001600160a01b039093166000908152600660209081526040808320868452825280832085905593825260079052919091209190915550565b50805460008255906000526020600020908101906119a391905b808211156149ef57600081556001016149db565b5090565b6001600160a01b03811681146119a357600080fd5b600060208284031215614a1a57600080fd5b8135612337816149f3565b6001600160e01b0319811681146119a357600080fd5b600060208284031215614a4d57600080fd5b813561233781614a25565b600060208284031215614a6a57600080fd5b5035919050565b60005b83811015614a8c578181015183820152602001614a74565b50506000910152565b60008151808452614aad816020860160208601614a71565b601f01601f19169290920160200192915050565b6020815260006123376020830184614a95565b60008060408385031215614ae757600080fd5b8235614af2816149f3565b946020939093013593505050565b848152608060208201526000614b196080830186614a95565b8281036040840152614b2b8186614a95565b90508281036060840152614b3f8185614a95565b979650505050505050565b600080600060608486031215614b5f57600080fd5b8335614b6a816149f3565b92506020840135614b7a816149f3565b929592945050506040919091013590565b60008060408385031215614b9e57600080fd5b50508035926020909101359150565b6020808252825182820181905260009190848201906040850190845b81811015614be557835183529284019291840191600101614bc9565b50909695505050505050565b600080600080600080600080610100898b031215614c0e57600080fd5b505086359860208801359850604088013597606081013597506080810135965060a0810135955060c0810135945060e0013592509050565b80358015158114614c5657600080fd5b919050565b600080600060608486031215614c7057600080fd5b833592506020840135614c82816149f3565b9150614c9060408501614c46565b90509250925092565b60008151808452602080850194506020840160005b83811015614cd35781516001600160a01b031687529582019590820190600101614cae565b509495945050505050565b6020815260006123376020830184614c99565b634e487b7160e01b600052604160045260246000fd5b60405161018081016001600160401b0381118282101715614d2a57614d2a614cf1565b60405290565b604051601f8201601f191681016001600160401b0381118282101715614d5857614d58614cf1565b604052919050565b803563ffffffff81168114614c5657600080fd5b803560ff81168114614c5657600080fd5b60006001600160401b03821115614d9e57614d9e614cf1565b50601f01601f191660200190565b600082601f830112614dbd57600080fd5b8135614dd0614dcb82614d85565b614d30565b818152846020838601011115614de557600080fd5b816020850160208301376000918101602001919091529392505050565b600060208284031215614e1457600080fd5b81356001600160401b0380821115614e2b57600080fd5b908301906101808286031215614e4057600080fd5b614e48614d07565b823581526020830135602082015260408301356040820152606083013560608201526080830135608082015260a083013560a082015260c083013560c0820152614e9460e08401614d60565b60e08201526101008381013590820152610120614eb2818501614d74565b908201526101408381013583811115614eca57600080fd5b614ed688828701614dac565b8284015250506101609150614eec828401614c46565b91810191909152949350505050565b606081526000614f0e6060830186614a95565b8281036020840152614f208186614a95565b905082810360408401526114278185614a95565b6000806000806000806000806000806101408b8d031215614f5457600080fd5b8a35995060208b0135985060408b0135975060608b0135965060808b0135955060a08b0135945060c08b0135935060e08b01359250614f966101008c01614d74565b91506101208b01356001600160401b03811115614fb257600080fd5b614fbe8d828e01614dac565b9150509295989b9194979a5092959850565b60008060408385031215614fe357600080fd5b8235614fee816149f3565b9150614ffc60208401614c46565b90509250929050565b6040815260006150186040830185614a95565b828103602084015261502a8185614a95565b95945050505050565b6000806000806080858703121561504957600080fd5b8435615054816149f3565b93506020850135615064816149f3565b92506040850135915060608501356001600160401b0381111561508657600080fd5b61509287828801614dac565b91505092959194509250565b6020815281516020820152602082015160408201526040820151606082015260608201516080820152608082015160a082015260a082015160c082015260c082015160e0820152600060e08301516101006151008185018363ffffffff169052565b8401516101208481019190915284015190506101406151238185018360ff169052565b8085015191505061018061016081818601526151436101a0860184614a95565b95015115159301929092525090919050565b6000806040838503121561516857600080fd5b82359150614ffc60208401614c46565b600881106119a357600080fd5b6000806040838503121561519857600080fd5b8235915060208301356151aa81615178565b809150509250929050565b600080604083850312156151c857600080fd5b8235915060208301356001600160401b038111156151e557600080fd5b6151f185828601614dac565b9150509250929050565b6000806040838503121561520e57600080fd5b82359150614ffc60208401614d74565b6000806040838503121561523157600080fd5b823561523c816149f3565b915060208301356151aa816149f3565b6000806000806080858703121561526257600080fd5b8435935060208501356001600160401b038082111561528057600080fd5b61528c88838901614dac565b945060408701359150808211156152a257600080fd5b6152ae88838901614dac565b935060608701359150808211156152c457600080fd5b5061509287828801614dac565b600181811c908216806152e557607f821691505b60208210810361530557634e487b7160e01b600052602260045260246000fd5b50919050565b600082601f83011261531c57600080fd5b815161532a614dcb82614d85565b81815284602083860101111561533f57600080fd5b612233826020830160208701614a71565b60006020828403121561536257600080fd5b81516001600160401b0381111561537857600080fd5b6122338482850161530b565b634e487b7160e01b600052603260045260246000fd5b6080815260006153ad6080830187614a95565b6020838203818501528187518084528284019150828160051b850101838a0160005b838110156153fd57601f198784030185526153eb838351614a95565b948601949250908501906001016153cf565b50506040870198909852505050506060909101919091525092915050565b6020808252602e908201527f4552433732313a2063616c6c6572206973206e6f7420746f6b656e206f776e6560408201526d1c881b9bdc88185c1c1c9bdd995960921b606082015260800190565b634e487b7160e01b600052602160045260246000fd5b60008060006060848603121561549457600080fd5b83516001600160401b03808211156154ab57600080fd5b6154b78783880161530b565b945060208601519150808211156154cd57600080fd5b6154d98783880161530b565b935060408601519150808211156154ef57600080fd5b506154fc8682870161530b565b9150509250925092565b60008351615518818460208801614a71565b83519083019061552c818360208801614a71565b01949350505050565b60006020828403121561554757600080fd5b8151612337816149f3565b6000815461555f816152d1565b80855260206001838116801561557c5760018114615596576155c4565b60ff1985168884015283151560051b8801830195506155c4565b866000528260002060005b858110156155bc5781548a82018601529083019084016155a1565b890184019650505b505050505092915050565b6020815260006123376020830184615552565b604081526009604082015268426f6479205479706560b81b60608201526080602082015260006123376080830184615552565b6000602080838503121561562857600080fd5b82516001600160401b038082111561563f57600080fd5b818501915085601f83011261565357600080fd5b81518181111561566557615665614cf1565b8060051b9150615676848301614d30565b818152918301840191848101908884111561569057600080fd5b938501935b838510156156ae57845182529385019390850190615695565b98975050505050505050565b634e487b7160e01b600052601160045260246000fd5b8082028115828204841417610eed57610eed6156ba565b6000600182016156f9576156f96156ba565b5060010190565b60008261571d57634e487b7160e01b600052601260045260246000fd5b500690565b601f82111561146b576000816000526020600020601f850160051c8101602086101561574b5750805b601f850160051c820191505b8181101561362157828155600101615757565b81516001600160401b0381111561578357615783614cf1565b6157978161579184546152d1565b84615722565b602080601f8311600181146157cc57600084156157b45750858301515b600019600386901b1c1916600185901b178555613621565b600085815260208120601f198616915b828110156157fb578886015182559484019460019091019084016157dc565b50858210156158195787850151600019600388901b60f8161c191681555b5050505050600190811b01905550565b6d2261747472696275746573223a5b60901b8152825160009061585381600e850160208801614a71565b600b60fa1b600e91840191820152835161587481600f840160208801614a71565b605d60f81b600f9290910191820152601001949350505050565b60008151608084526158a36080850182614a95565b9050602083015184820360208601526158bc8282614a95565b915050604083015184820360408601526158d68282614a95565b915050606083015160608501528091505092915050565b87815260e06020820152600061590660e0830189614a95565b82810360408401526159188189614a95565b9050828103606084015261592c8188614a95565b905082810360808401526159408187614a95565b905082810360a08401526159548186614a95565b905082810360c0840152615968818561588e565b9a9950505050505050505050565b6000806040838503121561598957600080fd5b82516001600160401b03808211156159a057600080fd5b6159ac8683870161530b565b935060208501519150808211156159c257600080fd5b506151f18582860161530b565b81810381811115610eed57610eed6156ba565b80820180821115610eed57610eed6156ba565b600060208284031215615a0757600080fd5b815161233781615178565b60208082526032908201527f4552433732313a207472616e7366657220746f206e6f6e20455243373231526560408201527131b2b4bb32b91034b6b83632b6b2b73a32b960711b606082015260800190565b8281526040602082015260006122336040830184614c99565b6001600160a01b038581168252841660208201526040810183905260806060820181905260009061142790830184614a95565b600060208284031215615ac257600080fd5b815161233781614a25565b634e487b7160e01b600052603160045260246000fdfec94c1c47471ed97c1d309bab965192a3e4be3807f42d015b699bfbdcf24dd9f6a264697066735822122038c21deabcc77d0913e522cdcc2220dfe86e1783126eee24266c3ca3bb2f3f8264736f6c63430008160033","linkReferences":{}},"methodIdentifiers":{"_debugPostConstructorMint()":"9c7be2f1","_nextTokenId()":"4a60f620","addNewBody(uint256,string,bytes,bytes)":"f2361e23","approve(address,uint256)":"095ea7b3","balanceOf(address)":"70a08231","bodyIndexToMetadata(uint256)":"0c83f9d7","cancelOwnershipHandover()":"54d1f13d","checkIfTraitIsEquipped(uint256,uint256)":"8aa1e4c8","chonkIdToApprovedOperators(uint256,uint256)":"55737f35","completeOwnershipHandover(address)":"f04e283e","equip(uint256,uint256)":"28257532","equipAll(uint256,uint256,uint256,uint256,uint256,uint256,uint256,uint256)":"4a4333a3","firstSeasonRenderMinter()":"13ea0ae3","getApproved(uint256)":"081812fc","getBackpackSVGs(uint256)":"14fe8ff4","getBodyImageSvg(uint256)":"916c546b","getBodySVGZmapsAndMetadata((uint256,uint256,uint256,uint256,uint256,uint256,uint256,uint32,uint256,uint8,string,bool))":"92012f08","getBodySvgAndMetadata((uint256,uint256,uint256,uint256,uint256,uint256,uint256,uint32,uint256,uint8,string,bool))":"a23830ae","getBodyZMap(uint256)":"306c7334","getChonkIdToApprovedOperators(uint256)":"67d2afe2","getFullPictureForTrait(uint256)":"66704349","getOwnerAndTBAAddressForChonkId(uint256)":"04003bd0","getPeter(uint256)":"be928ff6","getPeterZMap(uint256)":"2bd1ca45","getTBAAddressForChonkId(uint256)":"f6a0c932","getTokenRenderZ(uint256)":"8200ea51","getTraitTokens(address)":"998cfb6e","getTraitsForChonkId(uint256)":"9f6e4637","isApprovedForAll(address,address)":"e985e9c5","mainRenderer2D()":"f4bec0b6","mainRenderer3D()":"b66ef6e3","marketplace()":"abc8c7af","maxTraitsToOutput()":"e3d21555","mint(uint256)":"a0712d68","mintStartTime()":"931e2e49","name()":"06fdde03","owner()":"8da5cb5b","ownerOf(uint256)":"6352211e","ownershipHandoverExpiresAt(address)":"fee81cf4","peterMakeover(uint256,uint256,uint256,uint256,uint256,uint256,uint256,uint256,uint8,string)":"93ccba72","price()":"a035b1fe","renderAsDataUri(uint256)":"a1d62680","renderAsDataUri2D(uint256)":"f3f8efb9","renderAsDataUri3D(uint256)":"dceef0ec","renounceOwnership()":"715018a6","requestOwnershipHandover()":"25692962","safeTransferFrom(address,address,uint256)":"42842e0e","safeTransferFrom(address,address,uint256,bytes)":"b88d4fde","setApprovalForAll(address,bool)":"a22cb465","setApprovalForAllChonksMarketplace(uint256,address,bool)":"550ab247","setBackgroundColor(uint256,string)":"d68c4f32","setBodyIndex(uint256,uint8)":"e1405540","setFirstSeasonRenderMinter(address)":"58a97640","setMainRenderer2D(address)":"7e2e6c47","setMainRenderer3D(address)":"00179206","setMarketplace(address)":"73ad6c2d","setMaxTraitsToOutput(uint256)":"33d3d9bf","setMintStartTime(uint256)":"d5b3621b","setPrice(uint256)":"91b7f5ed","setTokenRender3D(uint256,bool)":"bef1dfb7","setTraitsContract(address)":"5eabd84a","setWithdrawAddress(address)":"3ab1a494","supportsInterface(bytes4)":"01ffc9a7","symbol()":"95d89b41","tbaAddressToTokenId(address)":"a4bf9a00","tokenByIndex(uint256)":"4f6ccce7","tokenIdToTBAAccountAddress(uint256)":"9c05d68d","tokenOfOwnerByIndex(address,uint256)":"2f745c59","tokenURI(uint256)":"c87b56dd","totalSupply()":"18160ddd","traitsContract()":"c093afdb","transferFrom(address,address,uint256)":"23b872dd","transferOwnership(address)":"f2fde38b","unequip(uint256,uint8)":"cdb6dd5c","unequipAll(uint256)":"3044825b","walletOfOwner(address)":"438b6300","withdraw()":"3ccfd60b","withdrawAddress()":"1581b600"},"id":45}