{"abi":[{"type":"constructor","inputs":[{"name":"localDeploy_","type":"bool","internalType":"bool"}],"stateMutability":"nonpayable"},{"type":"function","name":"_debugPostConstructorMint","inputs":[],"outputs":[],"stateMutability":"nonpayable"},{"type":"function","name":"addNewBody","inputs":[{"name":"_bodyIndex","type":"uint256","internalType":"uint256"},{"name":"_bodyName","type":"string","internalType":"string"},{"name":"_colorMap","type":"bytes","internalType":"bytes"},{"name":"_zMap","type":"bytes","internalType":"bytes"}],"outputs":[],"stateMutability":"nonpayable"},{"type":"function","name":"approve","inputs":[{"name":"to","type":"address","internalType":"address"},{"name":"tokenId","type":"uint256","internalType":"uint256"}],"outputs":[],"stateMutability":"nonpayable"},{"type":"function","name":"balanceOf","inputs":[{"name":"owner","type":"address","internalType":"address"}],"outputs":[{"name":"","type":"uint256","internalType":"uint256"}],"stateMutability":"view"},{"type":"function","name":"bodyIndexToMetadata","inputs":[{"name":"","type":"uint256","internalType":"uint256"}],"outputs":[{"name":"bodyIndex","type":"uint256","internalType":"uint256"},{"name":"bodyName","type":"string","internalType":"string"},{"name":"colorMap","type":"bytes","internalType":"bytes"},{"name":"zMap","type":"bytes","internalType":"bytes"}],"stateMutability":"view"},{"type":"function","name":"cancelOwnershipHandover","inputs":[],"outputs":[],"stateMutability":"payable"},{"type":"function","name":"checkIfTraitIsEquipped","inputs":[{"name":"_chonkId","type":"uint256","internalType":"uint256"},{"name":"_traitId","type":"uint256","internalType":"uint256"}],"outputs":[{"name":"","type":"bool","internalType":"bool"}],"stateMutability":"view"},{"type":"function","name":"chonkIdToApprovedOperators","inputs":[{"name":"chonkId","type":"uint256","internalType":"uint256"},{"name":"","type":"uint256","internalType":"uint256"}],"outputs":[{"name":"operators","type":"address","internalType":"address"}],"stateMutability":"view"},{"type":"function","name":"completeOwnershipHandover","inputs":[{"name":"pendingOwner","type":"address","internalType":"address"}],"outputs":[],"stateMutability":"payable"},{"type":"function","name":"equipAccessory","inputs":[{"name":"_peterTokenId","type":"uint256","internalType":"uint256"},{"name":"_traitTokenId","type":"uint256","internalType":"uint256"}],"outputs":[],"stateMutability":"nonpayable"},{"type":"function","name":"equipAll","inputs":[{"name":"_peterTokenId","type":"uint256","internalType":"uint256"},{"name":"_headTokenId","type":"uint256","internalType":"uint256"},{"name":"_hairTokenId","type":"uint256","internalType":"uint256"},{"name":"_faceTokenId","type":"uint256","internalType":"uint256"},{"name":"_accessoryTokenId","type":"uint256","internalType":"uint256"},{"name":"_topTokenId","type":"uint256","internalType":"uint256"},{"name":"_bottomTokenId","type":"uint256","internalType":"uint256"},{"name":"_shoesTokenId","type":"uint256","internalType":"uint256"}],"outputs":[],"stateMutability":"nonpayable"},{"type":"function","name":"equipBottom","inputs":[{"name":"_peterTokenId","type":"uint256","internalType":"uint256"},{"name":"_traitTokenId","type":"uint256","internalType":"uint256"}],"outputs":[],"stateMutability":"nonpayable"},{"type":"function","name":"equipFace","inputs":[{"name":"_peterTokenId","type":"uint256","internalType":"uint256"},{"name":"_traitTokenId","type":"uint256","internalType":"uint256"}],"outputs":[],"stateMutability":"nonpayable"},{"type":"function","name":"equipHair","inputs":[{"name":"_peterTokenId","type":"uint256","internalType":"uint256"},{"name":"_traitTokenId","type":"uint256","internalType":"uint256"}],"outputs":[],"stateMutability":"nonpayable"},{"type":"function","name":"equipHead","inputs":[{"name":"_peterTokenId","type":"uint256","internalType":"uint256"},{"name":"_traitTokenId","type":"uint256","internalType":"uint256"}],"outputs":[],"stateMutability":"nonpayable"},{"type":"function","name":"equipShoes","inputs":[{"name":"_peterTokenId","type":"uint256","internalType":"uint256"},{"name":"_traitTokenId","type":"uint256","internalType":"uint256"}],"outputs":[],"stateMutability":"nonpayable"},{"type":"function","name":"equipTop","inputs":[{"name":"_peterTokenId","type":"uint256","internalType":"uint256"},{"name":"_traitTokenId","type":"uint256","internalType":"uint256"}],"outputs":[],"stateMutability":"nonpayable"},{"type":"function","name":"firstSeasonRenderMinter","inputs":[],"outputs":[{"name":"","type":"address","internalType":"contract FirstSeasonRenderMinter"}],"stateMutability":"view"},{"type":"function","name":"getApproved","inputs":[{"name":"tokenId","type":"uint256","internalType":"uint256"}],"outputs":[{"name":"","type":"address","internalType":"address"}],"stateMutability":"view"},{"type":"function","name":"getBackpackSVGs","inputs":[{"name":"_tokenId","type":"uint256","internalType":"uint256"}],"outputs":[{"name":"","type":"string","internalType":"string"}],"stateMutability":"view"},{"type":"function","name":"getBodyImageSvg","inputs":[{"name":"_index","type":"uint256","internalType":"uint256"}],"outputs":[{"name":"svg","type":"string","internalType":"string"}],"stateMutability":"view"},{"type":"function","name":"getBodySVGZmapsAndMetadata","inputs":[{"name":"storedPeter","type":"tuple","internalType":"struct IPeterStorage.StoredPeter","components":[{"name":"headId","type":"uint256","internalType":"uint256"},{"name":"hairId","type":"uint256","internalType":"uint256"},{"name":"faceId","type":"uint256","internalType":"uint256"},{"name":"accessoryId","type":"uint256","internalType":"uint256"},{"name":"topId","type":"uint256","internalType":"uint256"},{"name":"bottomId","type":"uint256","internalType":"uint256"},{"name":"shoesId","type":"uint256","internalType":"uint256"},{"name":"epoch","type":"uint32","internalType":"uint32"},{"name":"tokenId","type":"uint256","internalType":"uint256"},{"name":"bodyIndex","type":"uint8","internalType":"uint8"},{"name":"backgroundColor","type":"string","internalType":"string"},{"name":"render3D","type":"bool","internalType":"bool"}]}],"outputs":[{"name":"","type":"string","internalType":"string"},{"name":"","type":"bytes","internalType":"bytes"},{"name":"","type":"string","internalType":"string"}],"stateMutability":"view"},{"type":"function","name":"getBodySvgAndMetadata","inputs":[{"name":"storedPeter","type":"tuple","internalType":"struct IPeterStorage.StoredPeter","components":[{"name":"headId","type":"uint256","internalType":"uint256"},{"name":"hairId","type":"uint256","internalType":"uint256"},{"name":"faceId","type":"uint256","internalType":"uint256"},{"name":"accessoryId","type":"uint256","internalType":"uint256"},{"name":"topId","type":"uint256","internalType":"uint256"},{"name":"bottomId","type":"uint256","internalType":"uint256"},{"name":"shoesId","type":"uint256","internalType":"uint256"},{"name":"epoch","type":"uint32","internalType":"uint32"},{"name":"tokenId","type":"uint256","internalType":"uint256"},{"name":"bodyIndex","type":"uint8","internalType":"uint8"},{"name":"backgroundColor","type":"string","internalType":"string"},{"name":"render3D","type":"bool","internalType":"bool"}]}],"outputs":[{"name":"","type":"string","internalType":"string"},{"name":"","type":"string","internalType":"string"}],"stateMutability":"view"},{"type":"function","name":"getBodyZMap","inputs":[{"name":"_tokenId","type":"uint256","internalType":"uint256"}],"outputs":[{"name":"","type":"string","internalType":"string"}],"stateMutability":"view"},{"type":"function","name":"getFullPictureForTrait","inputs":[{"name":"_chonkTraitTokenId","type":"uint256","internalType":"uint256"}],"outputs":[{"name":"traitOwnerTBA","type":"address","internalType":"address"},{"name":"chonkTokenId","type":"uint256","internalType":"uint256"},{"name":"chonkOwner","type":"address","internalType":"address"}],"stateMutability":"view"},{"type":"function","name":"getOwnerAndTBAAddressForChonkId","inputs":[{"name":"_chonkId","type":"uint256","internalType":"uint256"}],"outputs":[{"name":"owner","type":"address","internalType":"address"},{"name":"tbaAddress","type":"address","internalType":"address"}],"stateMutability":"view"},{"type":"function","name":"getPeter","inputs":[{"name":"_tokenId","type":"uint256","internalType":"uint256"}],"outputs":[{"name":"","type":"tuple","internalType":"struct IPeterStorage.StoredPeter","components":[{"name":"headId","type":"uint256","internalType":"uint256"},{"name":"hairId","type":"uint256","internalType":"uint256"},{"name":"faceId","type":"uint256","internalType":"uint256"},{"name":"accessoryId","type":"uint256","internalType":"uint256"},{"name":"topId","type":"uint256","internalType":"uint256"},{"name":"bottomId","type":"uint256","internalType":"uint256"},{"name":"shoesId","type":"uint256","internalType":"uint256"},{"name":"epoch","type":"uint32","internalType":"uint32"},{"name":"tokenId","type":"uint256","internalType":"uint256"},{"name":"bodyIndex","type":"uint8","internalType":"uint8"},{"name":"backgroundColor","type":"string","internalType":"string"},{"name":"render3D","type":"bool","internalType":"bool"}]}],"stateMutability":"view"},{"type":"function","name":"getPeterZMap","inputs":[{"name":"_tokenId","type":"uint256","internalType":"uint256"}],"outputs":[{"name":"","type":"string","internalType":"string"}],"stateMutability":"view"},{"type":"function","name":"getTBAAddressForChonkId","inputs":[{"name":"_chonkId","type":"uint256","internalType":"uint256"}],"outputs":[{"name":"","type":"address","internalType":"address"}],"stateMutability":"view"},{"type":"function","name":"getTokenRenderZ","inputs":[{"name":"_peterTokenId","type":"uint256","internalType":"uint256"}],"outputs":[{"name":"","type":"bool","internalType":"bool"}],"stateMutability":"view"},{"type":"function","name":"getTraitTokens","inputs":[{"name":"_tbaAddress","type":"address","internalType":"address"}],"outputs":[{"name":"","type":"uint256[]","internalType":"uint256[]"}],"stateMutability":"view"},{"type":"function","name":"getTraitsForChonkId","inputs":[{"name":"_chonkId","type":"uint256","internalType":"uint256"}],"outputs":[{"name":"traitTokens","type":"uint256[]","internalType":"uint256[]"}],"stateMutability":"view"},{"type":"function","name":"isApprovedForAll","inputs":[{"name":"owner","type":"address","internalType":"address"},{"name":"operator","type":"address","internalType":"address"}],"outputs":[{"name":"","type":"bool","internalType":"bool"}],"stateMutability":"view"},{"type":"function","name":"mainRenderer2D","inputs":[],"outputs":[{"name":"","type":"address","internalType":"contract MainRenderer2D"}],"stateMutability":"view"},{"type":"function","name":"mainRenderer3D","inputs":[],"outputs":[{"name":"","type":"address","internalType":"contract MainRenderer3D"}],"stateMutability":"view"},{"type":"function","name":"marketplace","inputs":[],"outputs":[{"name":"","type":"address","internalType":"contract ChonksMarket"}],"stateMutability":"view"},{"type":"function","name":"mint","inputs":[{"name":"_amount","type":"uint8","internalType":"uint8"}],"outputs":[],"stateMutability":"payable"},{"type":"function","name":"name","inputs":[],"outputs":[{"name":"","type":"string","internalType":"string"}],"stateMutability":"view"},{"type":"function","name":"owner","inputs":[],"outputs":[{"name":"result","type":"address","internalType":"address"}],"stateMutability":"view"},{"type":"function","name":"ownerOf","inputs":[{"name":"tokenId","type":"uint256","internalType":"uint256"}],"outputs":[{"name":"","type":"address","internalType":"address"}],"stateMutability":"view"},{"type":"function","name":"ownershipHandoverExpiresAt","inputs":[{"name":"pendingOwner","type":"address","internalType":"address"}],"outputs":[{"name":"result","type":"uint256","internalType":"uint256"}],"stateMutability":"view"},{"type":"function","name":"peterMakeover","inputs":[{"name":"_peterTokenId","type":"uint256","internalType":"uint256"},{"name":"_headTokenId","type":"uint256","internalType":"uint256"},{"name":"_hairTokenId","type":"uint256","internalType":"uint256"},{"name":"_faceTokenId","type":"uint256","internalType":"uint256"},{"name":"_accessoryTokenId","type":"uint256","internalType":"uint256"},{"name":"_topTokenId","type":"uint256","internalType":"uint256"},{"name":"_bottomTokenId","type":"uint256","internalType":"uint256"},{"name":"_shoesTokenId","type":"uint256","internalType":"uint256"},{"name":"_bodyIndex","type":"uint8","internalType":"uint8"},{"name":"_backgroundColor","type":"string","internalType":"string"}],"outputs":[],"stateMutability":"nonpayable"},{"type":"function","name":"price","inputs":[],"outputs":[{"name":"","type":"uint256","internalType":"uint256"}],"stateMutability":"view"},{"type":"function","name":"renderAsDataUri","inputs":[{"name":"_tokenId","type":"uint256","internalType":"uint256"}],"outputs":[{"name":"","type":"string","internalType":"string"}],"stateMutability":"view"},{"type":"function","name":"renderAsDataUri2D","inputs":[{"name":"_tokenId","type":"uint256","internalType":"uint256"}],"outputs":[{"name":"","type":"string","internalType":"string"}],"stateMutability":"view"},{"type":"function","name":"renderAsDataUri3D","inputs":[{"name":"_tokenId","type":"uint256","internalType":"uint256"}],"outputs":[{"name":"","type":"string","internalType":"string"}],"stateMutability":"view"},{"type":"function","name":"renounceOwnership","inputs":[],"outputs":[],"stateMutability":"payable"},{"type":"function","name":"requestOwnershipHandover","inputs":[],"outputs":[],"stateMutability":"payable"},{"type":"function","name":"safeTransferFrom","inputs":[{"name":"from","type":"address","internalType":"address"},{"name":"to","type":"address","internalType":"address"},{"name":"tokenId","type":"uint256","internalType":"uint256"}],"outputs":[],"stateMutability":"nonpayable"},{"type":"function","name":"safeTransferFrom","inputs":[{"name":"from","type":"address","internalType":"address"},{"name":"to","type":"address","internalType":"address"},{"name":"tokenId","type":"uint256","internalType":"uint256"},{"name":"data","type":"bytes","internalType":"bytes"}],"outputs":[],"stateMutability":"nonpayable"},{"type":"function","name":"setApprovalForAll","inputs":[{"name":"operator","type":"address","internalType":"address"},{"name":"approved","type":"bool","internalType":"bool"}],"outputs":[],"stateMutability":"nonpayable"},{"type":"function","name":"setBackgroundColor","inputs":[{"name":"_peterTokenId","type":"uint256","internalType":"uint256"},{"name":"_color","type":"string","internalType":"string"}],"outputs":[],"stateMutability":"nonpayable"},{"type":"function","name":"setBodyIndex","inputs":[{"name":"_peterTokenId","type":"uint256","internalType":"uint256"},{"name":"_bodyIndex","type":"uint8","internalType":"uint8"}],"outputs":[],"stateMutability":"nonpayable"},{"type":"function","name":"setFirstSeasonRenderMinter","inputs":[{"name":"_dataContract","type":"address","internalType":"address"}],"outputs":[],"stateMutability":"nonpayable"},{"type":"function","name":"setMainRenderer2D","inputs":[{"name":"_mainRenderer2D","type":"address","internalType":"address"}],"outputs":[],"stateMutability":"nonpayable"},{"type":"function","name":"setMainRenderer3D","inputs":[{"name":"_mainRenderer3D","type":"address","internalType":"address"}],"outputs":[],"stateMutability":"nonpayable"},{"type":"function","name":"setMarketplace","inputs":[{"name":"_marketplace","type":"address","internalType":"address"}],"outputs":[],"stateMutability":"nonpayable"},{"type":"function","name":"setMaxTraitsToOutput","inputs":[{"name":"_maxTraitsToOutput","type":"uint256","internalType":"uint256"}],"outputs":[],"stateMutability":"nonpayable"},{"type":"function","name":"setPrice","inputs":[{"name":"_priceInWei","type":"uint256","internalType":"uint256"}],"outputs":[],"stateMutability":"nonpayable"},{"type":"function","name":"setSystemAddress","inputs":[{"name":"_systemAddress","type":"address","internalType":"address"}],"outputs":[],"stateMutability":"nonpayable"},{"type":"function","name":"setTokenRender3D","inputs":[{"name":"_peterTokenId","type":"uint256","internalType":"uint256"},{"name":"_render3D","type":"bool","internalType":"bool"}],"outputs":[],"stateMutability":"nonpayable"},{"type":"function","name":"setTraitsContract","inputs":[{"name":"_address","type":"address","internalType":"contract PeterTraits"}],"outputs":[],"stateMutability":"nonpayable"},{"type":"function","name":"supportsInterface","inputs":[{"name":"interfaceId","type":"bytes4","internalType":"bytes4"}],"outputs":[{"name":"","type":"bool","internalType":"bool"}],"stateMutability":"view"},{"type":"function","name":"symbol","inputs":[],"outputs":[{"name":"","type":"string","internalType":"string"}],"stateMutability":"view"},{"type":"function","name":"tbaAddressToTokenId","inputs":[{"name":"","type":"address","internalType":"address"}],"outputs":[{"name":"","type":"uint256","internalType":"uint256"}],"stateMutability":"view"},{"type":"function","name":"tokenByIndex","inputs":[{"name":"index","type":"uint256","internalType":"uint256"}],"outputs":[{"name":"","type":"uint256","internalType":"uint256"}],"stateMutability":"view"},{"type":"function","name":"tokenIdToTBAAccountAddress","inputs":[{"name":"","type":"uint256","internalType":"uint256"}],"outputs":[{"name":"","type":"address","internalType":"address"}],"stateMutability":"view"},{"type":"function","name":"tokenOfOwnerByIndex","inputs":[{"name":"owner","type":"address","internalType":"address"},{"name":"index","type":"uint256","internalType":"uint256"}],"outputs":[{"name":"","type":"uint256","internalType":"uint256"}],"stateMutability":"view"},{"type":"function","name":"tokenURI","inputs":[{"name":"_tokenId","type":"uint256","internalType":"uint256"}],"outputs":[{"name":"","type":"string","internalType":"string"}],"stateMutability":"view"},{"type":"function","name":"totalSupply","inputs":[],"outputs":[{"name":"","type":"uint256","internalType":"uint256"}],"stateMutability":"view"},{"type":"function","name":"traitsContract","inputs":[],"outputs":[{"name":"","type":"address","internalType":"contract PeterTraits"}],"stateMutability":"view"},{"type":"function","name":"transferFrom","inputs":[{"name":"from","type":"address","internalType":"address"},{"name":"to","type":"address","internalType":"address"},{"name":"tokenId","type":"uint256","internalType":"uint256"}],"outputs":[],"stateMutability":"nonpayable"},{"type":"function","name":"transferOwnership","inputs":[{"name":"newOwner","type":"address","internalType":"address"}],"outputs":[],"stateMutability":"payable"},{"type":"function","name":"unequipAccessory","inputs":[{"name":"_peterTokenId","type":"uint256","internalType":"uint256"}],"outputs":[],"stateMutability":"nonpayable"},{"type":"function","name":"unequipAll","inputs":[{"name":"_peterTokenId","type":"uint256","internalType":"uint256"}],"outputs":[],"stateMutability":"nonpayable"},{"type":"function","name":"unequipBottom","inputs":[{"name":"_peterTokenId","type":"uint256","internalType":"uint256"}],"outputs":[],"stateMutability":"nonpayable"},{"type":"function","name":"unequipFace","inputs":[{"name":"_peterTokenId","type":"uint256","internalType":"uint256"}],"outputs":[],"stateMutability":"nonpayable"},{"type":"function","name":"unequipHair","inputs":[{"name":"_peterTokenId","type":"uint256","internalType":"uint256"}],"outputs":[],"stateMutability":"nonpayable"},{"type":"function","name":"unequipHead","inputs":[{"name":"_peterTokenId","type":"uint256","internalType":"uint256"}],"outputs":[],"stateMutability":"nonpayable"},{"type":"function","name":"unequipShoes","inputs":[{"name":"_peterTokenId","type":"uint256","internalType":"uint256"}],"outputs":[],"stateMutability":"nonpayable"},{"type":"function","name":"unequipTop","inputs":[{"name":"_peterTokenId","type":"uint256","internalType":"uint256"}],"outputs":[],"stateMutability":"nonpayable"},{"type":"function","name":"walletOfOwner","inputs":[{"name":"_owner","type":"address","internalType":"address"}],"outputs":[{"name":"","type":"uint256[]","internalType":"uint256[]"}],"stateMutability":"view"},{"type":"event","name":"Approval","inputs":[{"name":"owner","type":"address","indexed":true,"internalType":"address"},{"name":"approved","type":"address","indexed":true,"internalType":"address"},{"name":"tokenId","type":"uint256","indexed":true,"internalType":"uint256"}],"anonymous":false},{"type":"event","name":"ApprovalForAll","inputs":[{"name":"owner","type":"address","indexed":true,"internalType":"address"},{"name":"operator","type":"address","indexed":true,"internalType":"address"},{"name":"approved","type":"bool","indexed":false,"internalType":"bool"}],"anonymous":false},{"type":"event","name":"BackgroundColor","inputs":[{"name":"owner","type":"address","indexed":true,"internalType":"address"},{"name":"tokenId","type":"uint256","indexed":true,"internalType":"uint256"},{"name":"color","type":"string","indexed":false,"internalType":"string"}],"anonymous":false},{"type":"event","name":"BatchMetadataUpdate","inputs":[{"name":"_fromTokenId","type":"uint256","indexed":false,"internalType":"uint256"},{"name":"_toTokenId","type":"uint256","indexed":false,"internalType":"uint256"}],"anonymous":false},{"type":"event","name":"BodyIndex","inputs":[{"name":"owner","type":"address","indexed":true,"internalType":"address"},{"name":"tokenId","type":"uint256","indexed":true,"internalType":"uint256"},{"name":"_bodyIndex","type":"uint8","indexed":false,"internalType":"uint8"}],"anonymous":false},{"type":"event","name":"Equip","inputs":[{"name":"owner","type":"address","indexed":true,"internalType":"address"},{"name":"tokenId","type":"uint256","indexed":true,"internalType":"uint256"},{"name":"traitTokenId","type":"uint256","indexed":true,"internalType":"uint256"},{"name":"traitCategory","type":"string","indexed":false,"internalType":"string"}],"anonymous":false},{"type":"event","name":"EquipAll","inputs":[{"name":"owner","type":"address","indexed":true,"internalType":"address"},{"name":"tokenId","type":"uint256","indexed":true,"internalType":"uint256"}],"anonymous":false},{"type":"event","name":"MetadataUpdate","inputs":[{"name":"_tokenId","type":"uint256","indexed":false,"internalType":"uint256"}],"anonymous":false},{"type":"event","name":"Mint","inputs":[{"name":"owner","type":"address","indexed":true,"internalType":"address"},{"name":"tokenId","type":"uint256","indexed":true,"internalType":"uint256"}],"anonymous":false},{"type":"event","name":"OwnershipHandoverCanceled","inputs":[{"name":"pendingOwner","type":"address","indexed":true,"internalType":"address"}],"anonymous":false},{"type":"event","name":"OwnershipHandoverRequested","inputs":[{"name":"pendingOwner","type":"address","indexed":true,"internalType":"address"}],"anonymous":false},{"type":"event","name":"OwnershipTransferred","inputs":[{"name":"oldOwner","type":"address","indexed":true,"internalType":"address"},{"name":"newOwner","type":"address","indexed":true,"internalType":"address"}],"anonymous":false},{"type":"event","name":"Render3D","inputs":[{"name":"owner","type":"address","indexed":true,"internalType":"address"},{"name":"tokenId","type":"uint256","indexed":true,"internalType":"uint256"},{"name":"renderZ","type":"bool","indexed":false,"internalType":"bool"}],"anonymous":false},{"type":"event","name":"Transfer","inputs":[{"name":"from","type":"address","indexed":true,"internalType":"address"},{"name":"to","type":"address","indexed":true,"internalType":"address"},{"name":"tokenId","type":"uint256","indexed":true,"internalType":"uint256"}],"anonymous":false},{"type":"event","name":"Unequip","inputs":[{"name":"owner","type":"address","indexed":true,"internalType":"address"},{"name":"tokenId","type":"uint256","indexed":true,"internalType":"uint256"},{"name":"traitCategory","type":"string","indexed":true,"internalType":"string"}],"anonymous":false},{"type":"event","name":"UnequipAll","inputs":[{"name":"owner","type":"address","indexed":true,"internalType":"address"},{"name":"tokenId","type":"uint256","indexed":true,"internalType":"uint256"}],"anonymous":false},{"type":"error","name":"AlreadyInitialized","inputs":[]},{"type":"error","name":"BodyAlreadyExists","inputs":[]},{"type":"error","name":"CantTransfer","inputs":[]},{"type":"error","name":"CantTransferToTBAs","inputs":[]},{"type":"error","name":"FirstSeasonRenderMinterNotSet","inputs":[]},{"type":"error","name":"IncorrectPeterOwner","inputs":[]},{"type":"error","name":"IncorrectTBAOwner","inputs":[]},{"type":"error","name":"IncorrectTraitType","inputs":[]},{"type":"error","name":"InvalidBodyIndex","inputs":[]},{"type":"error","name":"InvalidColor","inputs":[]},{"type":"error","name":"InvalidLevelAmount","inputs":[]},{"type":"error","name":"InvalidSignature","inputs":[]},{"type":"error","name":"NewOwnerIsZeroAddress","inputs":[]},{"type":"error","name":"NoHandoverRequest","inputs":[]},{"type":"error","name":"NonceAlreadyUsed","inputs":[]},{"type":"error","name":"PeterDoesntExist","inputs":[]},{"type":"error","name":"Unauthorized","inputs":[]},{"type":"error","name":"markaSaysNo","inputs":[]}],"bytecode":{"object":"0x608060405260636014553480156200001657600080fd5b5060405162005cbb38038062005cbb833981016040819052620000399162000100565b6040518060400160405280600a81526020016914195d195c8815195cdd60b21b815250604051806040016040528060058152602001642822aa22a960d91b81525081600090816200008b9190620001d2565b5060016200009a8282620001d2565b50506001600a5550620000ad33620000c4565b600b805460ff19169115159190911790556200029e565b6001600160a01b0316638b78c6d8198190558060007f8be0079c531659141344cd1fd0a4f28419497f9722a3daafe3b4186f6b6457e08180a350565b6000602082840312156200011357600080fd5b815180151581146200012457600080fd5b9392505050565b634e487b7160e01b600052604160045260246000fd5b600181811c908216806200015657607f821691505b6020821081036200017757634e487b7160e01b600052602260045260246000fd5b50919050565b601f821115620001cd576000816000526020600020601f850160051c81016020861015620001a85750805b601f850160051c820191505b81811015620001c957828155600101620001b4565b5050505b505050565b81516001600160401b03811115620001ee57620001ee6200012b565b6200020681620001ff845462000141565b846200017d565b602080601f8311600181146200023e5760008415620002255750858301515b600019600386901b1c1916600185901b178555620001c9565b600085815260208120601f198616915b828110156200026f578886015182559484019460019091019084016200024e565b50858210156200028e5787850151600019600388901b60f8161c191681555b5050505050600190811b01905550565b615a0d80620002ae6000396000f3fe6080604052600436106104885760003560e01c80637afe8d3411610255578063a4bf9a0011610144578063dceef0ec116100c1578063f2361e2311610085578063f2361e2314610ea4578063f2fde38b14610ec4578063f3f8efb914610ed7578063f4bec0b614610ef7578063f6a0c93214610f17578063fee81cf414610f4d57600080fd5b8063dceef0ec14610de8578063e140554014610e08578063e985e9c514610e28578063f04e283e14610e71578063f18dc22d14610e8457600080fd5b8063bef1dfb711610108578063bef1dfb714610d48578063c093afdb14610d68578063c87b56dd14610d88578063d5b55c8b14610da8578063d68c4f3214610dc857600080fd5b8063a4bf9a0014610c8e578063abc8c7af14610cbb578063b66ef6e314610cdb578063b88d4fde14610cfb578063be928ff614610d1b57600080fd5b806395d89b41116101d25780639f6e4637116101965780639f6e463714610bea578063a035b1fe14610c0a578063a1d6268014610c20578063a22cb46514610c40578063a23830ae14610c6057600080fd5b806395d89b4114610b4a578063998cfb6e14610b5f5780639c05d68d14610b7f5780639c76201514610bb55780639c7be2f114610bd557600080fd5b8063916c546b11610219578063916c546b14610a9b57806391b7f5ed14610abb57806392012f0814610adb57806393ccba7214610b0a57806394cbd9c414610b2a57600080fd5b80637afe8d34146109ef5780637e2e6c4714610a0f5780638200ea5114610a2f5780638aa1e4c814610a625780638da5cb5b14610a8257600080fd5b80633044825b1161037c57806355737f35116102f95780636352211e116102bd5780636352211e1461092a578063667043491461094a5780636ecd23061461099457806370a08231146109a7578063715018a6146109c757806373ad6c2d146109cf57600080fd5b806355737f351461088a57806358180d35146108aa57806358a97640146108ca5780635eabd84a146108ea57806360b77b231461090a57600080fd5b8063438b630011610340578063438b6300146107f557806345a10d0f146108225780634a4333a3146108425780634f6ccce71461086257806354d1f13d1461088257600080fd5b80633044825b14610755578063306c73341461077557806333d3d9bf14610795578063347bd8f4146107b557806342842e0e146107d557600080fd5b8063105338e01161040a57806323b872dd116103ce57806323b872dd146106cd57806325692962146106ed578063293ed3f7146106f55780632bd1ca45146107155780632f745c591461073557600080fd5b8063105338e01461062e57806313ea0ae31461064e57806314fe8ff41461066e57806318160ddd1461068e5780631e162a33146106ad57600080fd5b806306fdde031161045157806306fdde0314610564578063081812fc14610586578063095ea7b3146105be5780630c83f9d7146105de5780630f1623201461060e57600080fd5b80621792061461048d57806301ffc9a7146104af57806304003bd0146104e45780630447a45e146105245780630621019714610544575b600080fd5b34801561049957600080fd5b506104ad6104a836600461495c565b610f80565b005b3480156104bb57600080fd5b506104cf6104ca36600461498f565b610faa565b60405190151581526020015b60405180910390f35b3480156104f057600080fd5b506105046104ff3660046149ac565b610fbb565b604080516001600160a01b039384168152929091166020830152016104db565b34801561053057600080fd5b506104ad61053f3660046149c5565b610fea565b34801561055057600080fd5b506104ad61055f36600461495c565b6110a8565b34801561057057600080fd5b506105796110d2565b6040516104db9190614a37565b34801561059257600080fd5b506105a66105a13660046149ac565b611164565b6040516001600160a01b0390911681526020016104db565b3480156105ca57600080fd5b506104ad6105d9366004614a4a565b61118b565b3480156105ea57600080fd5b506105fe6105f93660046149ac565b6112a5565b6040516104db9493929190614a76565b34801561061a57600080fd5b506104ad6106293660046149c5565b611466565b34801561063a57600080fd5b506104ad6106493660046149ac565b611512565b34801561065a57600080fd5b506012546105a6906001600160a01b031681565b34801561067a57600080fd5b506105796106893660046149ac565b6115bd565b34801561069a57600080fd5b506008545b6040519081526020016104db565b3480156106b957600080fd5b506104ad6106c83660046149c5565b611801565b3480156106d957600080fd5b506104ad6106e8366004614ac0565b6118aa565b6104ad6118db565b34801561070157600080fd5b506104ad6107103660046149ac565b61192a565b34801561072157600080fd5b506105796107303660046149ac565b611993565b34801561074157600080fd5b5061069f610750366004614a4a565b611a57565b34801561076157600080fd5b506104ad6107703660046149ac565b611aed565b34801561078157600080fd5b506105796107903660046149ac565b611ba8565b3480156107a157600080fd5b506104ad6107b03660046149ac565b611bcb565b3480156107c157600080fd5b506104ad6107d03660046149ac565b611bd8565b3480156107e157600080fd5b506104ad6107f0366004614ac0565b611c3b565b34801561080157600080fd5b5061081561081036600461495c565b611c56565b6040516104db9190614b01565b34801561082e57600080fd5b506104ad61083d3660046149c5565b611ced565b34801561084e57600080fd5b506104ad61085d366004614b45565b611d9b565b34801561086e57600080fd5b5061069f61087d3660046149ac565b611e90565b6104ad611f23565b34801561089657600080fd5b506105a66108a53660046149c5565b611f5f565b3480156108b657600080fd5b506104ad6108c53660046149ac565b611f97565b3480156108d657600080fd5b506104ad6108e536600461495c565b611ffc565b3480156108f657600080fd5b506104ad61090536600461495c565b612026565b34801561091657600080fd5b506104ad6109253660046149c5565b612050565b34801561093657600080fd5b506105a66109453660046149ac565b6120fd565b34801561095657600080fd5b5061096a6109653660046149ac565b61215d565b604080516001600160a01b03948516815260208101939093529216918101919091526060016104db565b6104ad6109a2366004614bb0565b6121fe565b3480156109b357600080fd5b5061069f6109c236600461495c565b61220a565b6104ad612290565b3480156109db57600080fd5b506104ad6109ea36600461495c565b6122a4565b3480156109fb57600080fd5b506104ad610a0a3660046149ac565b6122ce565b348015610a1b57600080fd5b506104ad610a2a36600461495c565b61232f565b348015610a3b57600080fd5b506104cf610a4a3660046149ac565b6000908152600c60205260409020600b015460ff1690565b348015610a6e57600080fd5b506104cf610a7d3660046149c5565b612359565b348015610a8e57600080fd5b50638b78c6d819546105a6565b348015610aa757600080fd5b50610579610ab63660046149ac565b6123c8565b348015610ac757600080fd5b506104ad610ad63660046149ac565b6124cb565b348015610ae757600080fd5b50610afb610af6366004614cdb565b6124d8565b6040516104db93929190614dd4565b348015610b1657600080fd5b506104ad610b25366004614e0d565b612629565b348015610b3657600080fd5b506104ad610b453660046149c5565b612695565b348015610b5657600080fd5b50610579612741565b348015610b6b57600080fd5b50610815610b7a36600461495c565b612750565b348015610b8b57600080fd5b506105a6610b9a3660046149ac565b6019602052600090815260409020546001600160a01b031681565b348015610bc157600080fd5b506104ad610bd03660046149ac565b6127c6565b348015610be157600080fd5b506104ad61282c565b348015610bf657600080fd5b50610815610c053660046149ac565b61287f565b348015610c1657600080fd5b5061069f60175481565b348015610c2c57600080fd5b50610579610c3b3660046149ac565b6128a3565b348015610c4c57600080fd5b506104ad610c5b366004614ea9565b6128d3565b348015610c6c57600080fd5b50610c80610c7b366004614cdb565b6128e2565b6040516104db929190614ede565b348015610c9a57600080fd5b5061069f610ca936600461495c565b601a6020526000908152604090205481565b348015610cc757600080fd5b506011546105a6906001600160a01b031681565b348015610ce757600080fd5b506015546105a6906001600160a01b031681565b348015610d0757600080fd5b506104ad610d16366004614f0c565b612990565b348015610d2757600080fd5b50610d3b610d363660046149ac565b6129c8565b6040516104db9190614f77565b348015610d5457600080fd5b506104ad610d6336600461502e565b612b6e565b348015610d7457600080fd5b506010546105a6906001600160a01b031681565b348015610d9457600080fd5b50610579610da33660046149ac565b612c19565b348015610db457600080fd5b506104ad610dc33660046149ac565b612c5a565b348015610dd457600080fd5b506104ad610de3366004615051565b612cbe565b348015610df457600080fd5b50610579610e033660046149ac565b612f3a565b348015610e1457600080fd5b506104ad610e23366004615097565b61320c565b348015610e3457600080fd5b506104cf610e433660046150ba565b6001600160a01b03918216600090815260056020908152604080832093909416825291909152205460ff1690565b6104ad610e7f36600461495c565b6132dd565b348015610e9057600080fd5b506104ad610e9f3660046149c5565b61331a565b348015610eb057600080fd5b506104ad610ebf3660046150f3565b6133c5565b6104ad610ed236600461495c565b613412565b348015610ee357600080fd5b50610579610ef23660046149ac565b613439565b348015610f0357600080fd5b506013546105a6906001600160a01b031681565b348015610f2357600080fd5b506105a6610f323660046149ac565b6000908152601960205260409020546001600160a01b031690565b348015610f5957600080fd5b5061069f610f6836600461495c565b63389a75e1600c908152600091909152602090205490565b610f886136c0565b601580546001600160a01b0319166001600160a01b0392909216919091179055565b6000610fb5826136db565b92915050565b600080610fc7836120fd565b6000938452601960205260409093205492936001600160a01b0390931692915050565b81610ff4816120fd565b6001600160a01b0316336001600160a01b031614611025576040516324adc17160e11b815260040160405180910390fd5b611030826004613700565b61103a8383613802565b6000838152600c602052604090206003018290558183611059816120fd565b6001600160a01b03166000805160206159b883398151915260405161109b906020808252600990820152684163636573736f727960b81b604082015260600190565b60405180910390a4505050565b6110b06136c0565b601880546001600160a01b0319166001600160a01b0392909216919091179055565b6060600080546110e190615178565b80601f016020809104026020016040519081016040528092919081815260200182805461110d90615178565b801561115a5780601f1061112f5761010080835404028352916020019161115a565b820191906000526020600020905b81548152906001019060200180831161113d57829003601f168201915b5050505050905090565b600061116f826138fa565b506000908152600460205260409020546001600160a01b031690565b6000611196826120fd565b9050806001600160a01b0316836001600160a01b0316036112085760405162461bcd60e51b815260206004820152602160248201527f4552433732313a20617070726f76616c20746f2063757272656e74206f776e656044820152603960f91b60648201526084015b60405180910390fd5b336001600160a01b038216148061122457506112248133610e43565b6112965760405162461bcd60e51b815260206004820152603e60248201527f4552433732313a20617070726f76652063616c6c6572206973206e6f7420746f60448201527f6b656e206f776e6572206e6f7220617070726f76656420666f7220616c6c000060648201526084016111ff565b6112a08383613959565b505050565b600f60205260009081526040902080546001820180549192916112c790615178565b80601f01602080910402602001604051908101604052809291908181526020018280546112f390615178565b80156113405780601f1061131557610100808354040283529160200191611340565b820191906000526020600020905b81548152906001019060200180831161132357829003601f168201915b50505050509080600201805461135590615178565b80601f016020809104026020016040519081016040528092919081815260200182805461138190615178565b80156113ce5780601f106113a3576101008083540402835291602001916113ce565b820191906000526020600020905b8154815290600101906020018083116113b157829003601f168201915b5050505050908060030180546113e390615178565b80601f016020809104026020016040519081016040528092919081815260200182805461140f90615178565b801561145c5780601f106114315761010080835404028352916020019161145c565b820191906000526020600020905b81548152906001019060200180831161143f57829003601f168201915b5050505050905084565b81611470816120fd565b6001600160a01b0316336001600160a01b0316146114a1576040516324adc17160e11b815260040160405180910390fd5b6114ac826003613700565b6114b68383613802565b6000838152600c6020526040902060020182905581836114d5816120fd565b6001600160a01b03166000805160206159b883398151915260405161109b906020808252600490820152634661636560e01b604082015260600190565b8061151c816120fd565b6001600160a01b0316336001600160a01b03161461154d576040516324adc17160e11b815260040160405180910390fd5b6000828152600c60205260408082206001019190915551632430b4b960e11b81526004015b604051809103902082611584846120fd565b6001600160a01b03167fe428b1839105819dce5e635ac7e16ed2a43028f6e294bab8655e29acb5dc60bb60405160405180910390a45050565b606060006115ca8361287f565b90506000601060009054906101000a90046001600160a01b03166001600160a01b0316635c1ef2566040518163ffffffff1660e01b8152600401600060405180830381865afa158015611621573d6000803e3d6000fd5b505050506040513d6000823e601f3d908101601f1916820160405261164991908101906151f7565b9050600060145483511061165f57601454611662565b82515b90506000816001600160401b0381111561167e5761167e614bcb565b6040519080825280602002602001820160405280156116b157816020015b606081526020019060019003908161169c5790505b50905060005b828110156117785760105485516001600160a01b039091169063c7791531908790849081106116e8576116e861522b565b60200260200101516040518263ffffffff1660e01b815260040161170e91815260200190565b600060405180830381865afa15801561172b573d6000803e3d6000fd5b505050506040513d6000823e601f3d908101601f1916820160405261175391908101906151f7565b8282815181106117655761176561522b565b60209081029190910101526001016116b7565b506013548451601454604051631719ff8760e11b81526001600160a01b0390931692632e33ff0e926117b292889287929190600401615241565b600060405180830381865afa1580156117cf573d6000803e3d6000fd5b505050506040513d6000823e601f3d908101601f191682016040526117f791908101906151f7565b9695505050505050565b8161180b816120fd565b6001600160a01b0316336001600160a01b03161461183c576040516324adc17160e11b815260040160405180910390fd5b611847826001613700565b6118518383613802565b6000838152600c60205260409020829055818361186d816120fd565b6001600160a01b03166000805160206159b883398151915260405161109b906020808252600490820152631219585960e21b604082015260600190565b6118b433826139c7565b6118d05760405162461bcd60e51b81526004016111ff906152c2565b6112a0838383613a45565b60006202a3006001600160401b03164201905063389a75e1600c5233600052806020600c2055337fdbf36a107da19e49527a7176a1babf963b4b0ff8cde35ee35d6cd8f1f9ac7e1d600080a250565b80611934816120fd565b6001600160a01b0316336001600160a01b031614611965576040516324adc17160e11b815260040160405180910390fd5b6000828152600c60205260408082206003019190915551684163636573736f727960b81b8152600901611572565b606080606060006119a3856129c8565b90506119ae816124d8565b5060105460405163bb12d21d60e01b81529195506001600160a01b0316915063bb12d21d906119e1908490600401614f77565b600060405180830381865afa1580156119fe573d6000803e3d6000fd5b505050506040513d6000823e601f3d908101601f19168201604052611a269190810190615310565b50604051909350611a3e915084908490602001615397565b6040516020818303038152906040529350505050919050565b6000611a628361220a565b8210611ac45760405162461bcd60e51b815260206004820152602b60248201527f455243373231456e756d657261626c653a206f776e657220696e646578206f7560448201526a74206f6620626f756e647360a81b60648201526084016111ff565b506001600160a01b03919091166000908152600660209081526040808320938352929052205490565b80611af7816120fd565b6001600160a01b0316336001600160a01b031614611b28576040516324adc17160e11b815260040160405180910390fd5b6000828152600c602052604081208181556001810182905560028101829055600381018290556004810182905560058101829055600681019190915582611b6e816120fd565b6001600160a01b03167f46078a2cd4c69c3b4a27bdc69fdfe03d442ebcf405f1a68e9b5df6bc3e24429760405160405180910390a3505050565b6060806000611bb6846129c8565b9050611bc1816124d8565b5095945050505050565b611bd36136c0565b601455565b80611be2816120fd565b6001600160a01b0316336001600160a01b031614611c13576040516324adc17160e11b815260040160405180910390fd5b6000828152600c60205260408082206004019190915551620546f760ec1b8152600301611572565b6112a083838360405180602001604052806000815250612990565b60606000611c638361220a565b90506000816001600160401b03811115611c7f57611c7f614bcb565b604051908082528060200260200182016040528015611ca8578160200160208202803683370190505b50905060005b82811015611ce557611cc08582611a57565b828281518110611cd257611cd261522b565b6020908102919091010152600101611cae565b509392505050565b81611cf7816120fd565b6001600160a01b0316336001600160a01b031614611d28576040516324adc17160e11b815260040160405180910390fd5b611d33826006613700565b611d3d8383613802565b6000838152600c602052604090206005018290558183611d5c816120fd565b6001600160a01b03166000805160206159b883398151915260405161109b90602080825260069082015265426f74746f6d60d01b604082015260600190565b87611da5816120fd565b6001600160a01b0316336001600160a01b031614611dd6576040516324adc17160e11b815260040160405180910390fd5b8715611de657611de68989611801565b8615611df657611df68988612695565b8515611e0657611e068987611466565b8415611e1657611e168986610fea565b8315611e2657611e26898561331a565b8215611e3657611e368984611ced565b8115611e4657611e468983612050565b88611e508a6120fd565b6001600160a01b03167f56680590212b09eb4b72a2eba8801b037ec046dfc754538e924f5bb6a8c4db6c60405160405180910390a3505050505050505050565b6000611e9b60085490565b8210611efe5760405162461bcd60e51b815260206004820152602c60248201527f455243373231456e756d657261626c653a20676c6f62616c20696e646578206f60448201526b7574206f6620626f756e647360a01b60648201526084016111ff565b60088281548110611f1157611f1161522b565b90600052602060002001549050919050565b63389a75e1600c523360005260006020600c2055337ffa7b8eab7da67f412cc9575ed43464468f9bfbae89d1675917346ca6d8fe3c92600080a2565b601b6020528160005260406000208181548110611f7b57600080fd5b6000918252602090912001546001600160a01b03169150829050565b80611fa1816120fd565b6001600160a01b0316336001600160a01b031614611fd2576040516324adc17160e11b815260040160405180910390fd5b6000828152600c602052604080822060060191909155516453686f657360d81b8152600501611572565b6120046136c0565b601280546001600160a01b0319166001600160a01b0392909216919091179055565b61202e6136c0565b601080546001600160a01b0319166001600160a01b0392909216919091179055565b8161205a816120fd565b6001600160a01b0316336001600160a01b03161461208b576040516324adc17160e11b815260040160405180910390fd5b612096826007613700565b6120a08383613802565b6000838152600c6020526040902060060182905581836120bf816120fd565b6001600160a01b03166000805160206159b883398151915260405161109b9060208082526005908201526453686f657360d81b604082015260600190565b6000818152600260205260408120546001600160a01b031680610fb55760405162461bcd60e51b8152602060048201526018602482015277115490cdcc8c4e881a5b9d985b1a59081d1bdad95b88125160421b60448201526064016111ff565b6010546040516331a9108f60e11b815260048101839052600091829182916001600160a01b031690636352211e90602401602060405180830381865afa1580156121ab573d6000803e3d6000fd5b505050506040513d601f19601f820116820180604052508101906121cf91906153c6565b6001600160a01b0381166000908152601a602052604090205490935091506121f6826120fd565b929491935050565b61220781613bec565b50565b60006001600160a01b0382166122745760405162461bcd60e51b815260206004820152602960248201527f4552433732313a2061646472657373207a65726f206973206e6f7420612076616044820152683634b21037bbb732b960b91b60648201526084016111ff565b506001600160a01b031660009081526003602052604090205490565b6122986136c0565b6122a26000613f4e565b565b6122ac6136c0565b601180546001600160a01b0319166001600160a01b0392909216919091179055565b806122d8816120fd565b6001600160a01b0316336001600160a01b031614612309576040516324adc17160e11b815260040160405180910390fd5b6000828152600c60205260408082209190915551631219585960e21b8152600401611572565b6123376136c0565b601380546001600160a01b0319166001600160a01b0392909216919091179055565b600080612365846129c8565b805190915083148061237a5750828160200151145b806123885750828160400151145b806123965750828160600151145b806123a45750828160800151145b806123b25750828160a00151145b806123c05750828160c00151145b949350505050565b6013546000828152600f602052604080822090516371bed9e160e11b81526060936001600160a01b03169163e37db3c2916124099160020190600401615460565b600060405180830381865afa158015612426573d6000803e3d6000fd5b505050506040513d6000823e601f3d908101601f1916820160405261244e91908101906151f7565b6013546040516335b07b7960e11b81529192506001600160a01b031690636b60f6f29061247f908490600401614a37565b600060405180830381865afa15801561249c573d6000803e3d6000fd5b505050506040513d6000823e601f3d908101601f191682016040526124c491908101906151f7565b9392505050565b6124d36136c0565b601755565b60608060606124ee84610120015160ff166123c8565b6101208501805160ff9081166000908152600f602052604080822060135494519093168252908190209051630d88d4ff60e01b81526003909201926001600160a01b031691630d88d4ff9161254b91600190910190600401615473565b600060405180830381865afa158015612568573d6000803e3d6000fd5b505050506040513d6000823e601f3d908101601f1916820160405261259091908101906151f7565b81805461259c90615178565b80601f01602080910402602001604051908101604052809291908181526020018280546125c890615178565b80156126155780601f106125ea57610100808354040283529160200191612615565b820191906000526020600020905b8154815290600101906020018083116125f857829003601f168201915b505050505091509250925092509193909250565b89612633816120fd565b6001600160a01b0316336001600160a01b031614612664576040516324adc17160e11b815260040160405180910390fd5b6126748b8b8b8b8b8b8b8b611d9b565b61267e8b8461320c565b6126888b83612cbe565b5050505050505050505050565b8161269f816120fd565b6001600160a01b0316336001600160a01b0316146126d0576040516324adc17160e11b815260040160405180910390fd5b6126db826002613700565b6126e58383613802565b6000838152600c602052604090206001018290558183612704816120fd565b6001600160a01b03166000805160206159b883398151915260405161109b906020808252600490820152632430b4b960e11b604082015260600190565b6060600180546110e190615178565b60105460405162438b6360e81b81526001600160a01b03838116600483015260609260009291169063438b630090602401600060405180830381865afa15801561279e573d6000803e3d6000fd5b505050506040513d6000823e601f3d908101601f191682016040526124c491908101906154a6565b806127d0816120fd565b6001600160a01b0316336001600160a01b031614612801576040516324adc17160e11b815260040160405180910390fd5b6000828152600c6020526040808220600501919091555165426f74746f6d60d01b8152600601611572565b600b5460ff16156122a25760005b60018110156128555761284d60046121fe565b60010161283a565b506122a260016040518060400160405280600681526020016533333333333360d11b815250612cbe565b6000818152601960205260409020546060906001600160a01b03166124c481612750565b606060006128b0836129c8565b90508061016001516128ca576128c583613439565b6124c4565b6124c483612f3a565b6128de338383613f8c565b5050565b6060806128f683610120015160ff166123c8565b60135461012085015160ff166000908152600f6020526040908190209051630d88d4ff60e01b81526001600160a01b0390921691630d88d4ff9161294291600190910190600401615473565b600060405180830381865afa15801561295f573d6000803e3d6000fd5b505050506040513d6000823e601f3d908101601f1916820160405261298791908101906151f7565b91509150915091565b61299a33836139c7565b6129b65760405162461bcd60e51b81526004016111ff906152c2565b6129c284848484614052565b50505050565b612a3760405180610180016040528060008152602001600081526020016000815260200160008152602001600081526020016000815260200160008152602001600063ffffffff16815260200160008152602001600060ff168152602001606081526020016000151581525090565b6000828152600c60209081526040808320815161018081018352815481526001820154938101939093526002810154918301919091526003810154606083015260048101546080830152600581015460a0830152600681015460c0830152600781015463ffffffff1660e08301526008810154610100830152600981015460ff16610120830152600a8101805461014084019190612ad490615178565b80601f0160208091040260200160405190810160405280929190818152602001828054612b0090615178565b8015612b4d5780601f10612b2257610100808354040283529160200191612b4d565b820191906000526020600020905b815481529060010190602001808311612b3057829003601f168201915b5050509183525050600b919091015460ff1615156020909101529392505050565b81612b78816120fd565b6001600160a01b0316336001600160a01b031614612ba9576040516324adc17160e11b815260040160405180910390fd5b6000838152600c60205260409020600b01805460ff191683151517905582612bd0816120fd565b6001600160a01b03167f6dd9e2813f787f711671bf91b2e57a72b9b61bc279b934201f3fd29b3b5f8cbe84604051612c0c911515815260200190565b60405180910390a3505050565b6000818152600260205260409020546060906001600160a01b0316612c5157604051631a65aaab60e31b815260040160405180910390fd5b610fb5826128a3565b80612c64816120fd565b6001600160a01b0316336001600160a01b031614612c95576040516324adc17160e11b815260040160405180910390fd5b6000828152600c60205260408082206002019190915551634661636560e01b8152600401611572565b81612cc8816120fd565b6001600160a01b0316336001600160a01b031614612cf9576040516324adc17160e11b815260040160405180910390fd5b81518290600614612d1d57604051631cf7e9c560e01b815260040160405180910390fd5b60408051808201909152600681526503036393432360d41b6020918201528151908201207fc9a8162f44485821dce92aaad6bb1b8cc6d457721d5ae939092ca3297c7dd0a501612d805760405163a3c0b7b960e01b815260040160405180910390fd5b60005b6006811015612ecd57603060f81b828281518110612da357612da361522b565b01602001516001600160f81b03191610801590612de45750603960f81b828281518110612dd257612dd261522b565b01602001516001600160f81b03191611155b158015612e465750604160f81b828281518110612e0357612e0361522b565b01602001516001600160f81b03191610801590612e445750604660f81b828281518110612e3257612e3261522b565b01602001516001600160f81b03191611155b155b8015612ea75750606160f81b828281518110612e6457612e6461522b565b01602001516001600160f81b03191610801590612ea55750606660f81b828281518110612e9357612e9361522b565b01602001516001600160f81b03191611155b155b15612ec557604051631cf7e9c560e01b815260040160405180910390fd5b600101612d83565b506000848152600c60205260409020600a01612ee98482615593565b5083612ef4856120fd565b6001600160a01b03167f2e34f8c0f6052b66319b4a5df14eac164c6af8a0b37f612d4304a777e1ae7a3d85604051612f2c9190614a37565b60405180910390a350505050565b6060806060806060806060806060612f736040518060800160405280606081526020016060815260200160608152602001600081525090565b6000612f7e8c6129c8565b9050612f89816124d8565b60105460405163bb12d21d60e01b8152939d50919a5095506001600160a01b03169063bb12d21d90612fbf908490600401614f77565b600060405180830381865afa158015612fdc573d6000803e3d6000fd5b505050506040513d6000823e601f3d908101601f191682016040526130049190810190615310565b604051929b50909850955061301f9085908790602001615652565b60405160208183030381529060405292508787604051602001613043929190615397565b60408051601f19818403018152919052610140820151835295506130668c61287f565b51606083015261012081015160ff166000908152600f60205260409020600101805461309190615178565b80601f01602080910402602001604051908101604052809291908181526020018280546130bd90615178565b801561310a5780601f106130df5761010080835404028352916020019161310a565b820191906000526020600020905b8154815290600101906020018083116130ed57829003601f168201915b505050505082602001819052506131338c6000908152600c60205260409020600b015460ff1690565b61315757604051806040016040528060028152602001610c9160f21b815250613173565b604051806040016040528060028152602001610cd160f21b8152505b60408084019190915260155490516367b6032760e11b81526001600160a01b039091169063cf6c064e906131b7908f908e9089908f908c908e908b90600401615716565b600060405180830381865afa1580156131d4573d6000803e3d6000fd5b505050506040513d6000823e601f3d908101601f191682016040526131fc91908101906151f7565b9c9b505050505050505050505050565b81613216816120fd565b6001600160a01b0316336001600160a01b031614613247576040516324adc17160e11b815260040160405180910390fd5b60038260ff16111561326c576040516329ba348d60e11b815260040160405180910390fd5b60ff8216156112a0576000838152600c60205260409020600901805460ff191660ff84161790558261329d816120fd565b60405160ff851681526001600160a01b0391909116907f454db5768a3f8187a5dd5e9cca100cf699d74d8a03f793d16da3932cdf34d35890602001612c0c565b6132e56136c0565b63389a75e1600c52806000526020600c20805442111561330d57636f5e88186000526004601cfd5b6000905561220781613f4e565b81613324816120fd565b6001600160a01b0316336001600160a01b031614613355576040516324adc17160e11b815260040160405180910390fd5b613360826005613700565b61336a8383613802565b6000838152600c602052604090206004018290558183613389816120fd565b6001600160a01b03166000805160206159b883398151915260405161109b906020808252600390820152620546f760ec1b604082015260600190565b6133cd6136c0565b6000848152600f60205260409020848155600181016133ec8582615593565b50600281016133fb8482615593565b506003810161340a8382615593565b505050505050565b61341a6136c0565b8060601b61343057637448fbae6000526004601cfd5b61220781613f4e565b606080606080606080600061344d886129c8565b9050613458816128e2565b601054604051631be5857160e31b81529298509096506001600160a01b03169063df2c2b889061348c908490600401614f77565b600060405180830381865afa1580156134a9573d6000803e3d6000fd5b505050506040513d6000823e601f3d908101601f191682016040526134d1919081019061579f565b90945092506134df886115bd565b915061350c6040518060800160405280606081526020016060815260200160608152602001600081525090565b610140820151815261351d8961287f565b51606082015261012082015160ff166000908152600f60205260409020600101805461354890615178565b80601f016020809104026020016040519081016040528092919081815260200182805461357490615178565b80156135c15780601f10613596576101008083540402835291602001916135c1565b820191906000526020600020905b8154815290600101906020018083116135a457829003601f168201915b505050505081602001819052506135ea896000908152600c60205260409020600b015460ff1690565b61360e57604051806040016040528060028152602001610c9160f21b81525061362a565b604051806040016040528060028152602001610cd160f21b8152505b6040808301919091526013549051630ed2eb5b60e41b81526001600160a01b039091169063ed2eb5b09061366e908c908b908b908b908b908b908a90600401615716565b600060405180830381865afa15801561368b573d6000803e3d6000fd5b505050506040513d6000823e601f3d908101601f191682016040526136b391908101906151f7565b9998505050505050505050565b638b78c6d8195433146122a2576382b429006000526004601cfd5b60006001600160e01b0319821663780e9d6360e01b1480610fb55750610fb582614085565b60105460405163e8a1268d60e01b8152600481018490526000916001600160a01b03169063e8a1268d90602401602060405180830381865afa15801561374a573d6000803e3d6000fd5b505050506040513d601f19601f8201168201806040525081019061376e91906157f8565b905081600781111561378257613782615819565b60405160200161379491815260200190565b604051602081830303815290604052805190602001208160078111156137bc576137bc615819565b6040516020016137ce91815260200190565b60405160208183030381529060405280519060200120146112a057604051633e54c6fb60e11b815260040160405180910390fd5b8161380c816120fd565b6001600160a01b0316336001600160a01b03161461383d576040516324adc17160e11b815260040160405180910390fd5b6000838152601960205260408082205460105491516331a9108f60e11b8152600481018690526001600160a01b0391821693929190911690636352211e90602401602060405180830381865afa15801561389b573d6000803e3d6000fd5b505050506040513d601f19601f820116820180604052508101906138bf91906153c6565b9050816001600160a01b0316816001600160a01b0316146138f35760405163e6ca793160e01b815260040160405180910390fd5b5050505050565b6000818152600260205260409020546001600160a01b03166122075760405162461bcd60e51b8152602060048201526018602482015277115490cdcc8c4e881a5b9d985b1a59081d1bdad95b88125160421b60448201526064016111ff565b600081815260046020526040902080546001600160a01b0319166001600160a01b038416908117909155819061398e826120fd565b6001600160a01b03167f8c5be1e5ebec7d5bd14f71427d1e84f3dd0314c0f7b2291e5b200ac8c7c3b92560405160405180910390a45050565b6000806139d3836120fd565b9050806001600160a01b0316846001600160a01b03161480613a1a57506001600160a01b0380821660009081526005602090815260408083209388168352929052205460ff165b806123c05750836001600160a01b0316613a3384611164565b6001600160a01b031614949350505050565b826001600160a01b0316613a58826120fd565b6001600160a01b031614613abc5760405162461bcd60e51b815260206004820152602560248201527f4552433732313a207472616e736665722066726f6d20696e636f72726563742060448201526437bbb732b960d91b60648201526084016111ff565b6001600160a01b038216613b1e5760405162461bcd60e51b8152602060048201526024808201527f4552433732313a207472616e7366657220746f20746865207a65726f206164646044820152637265737360e01b60648201526084016111ff565b613b298383836140d5565b613b34600082613959565b6001600160a01b0383166000908152600360205260408120805460019290613b5d908490615845565b90915550506001600160a01b0382166000908152600360205260408120805460019290613b8b908490615858565b909155505060008181526002602052604080822080546001600160a01b0319166001600160a01b0386811691821790925591518493918716917fddf252ad1be2c89b69c2b068fc378daa952ba7f163c4a11628f55a4df523b3ef91a4505050565b6012546001600160a01b0316613c1557604051633390ca8960e21b815260040160405180910390fd5b6000601660008154613c269061586b565b91829055509050613c3733826144b0565b604051638a54c52f60e01b81527355266d75d1a14e4572138116af39863ed6596e7f600482015260006024820181905262014a34604483015230606483015260848201839052906f6551c19487814612e58fe0681377575890638a54c52f9060a4016020604051808303816000875af1158015613cb8573d6000803e3d6000fd5b505050506040513d601f19601f82011682018060405250810190613cdc91906153c6565b600083815260196020908152604080832080546001600160a01b0319166001600160a01b038616908117909155808452601a90925291829020859055905163189acdbd60e31b81527341c8f39463a868d3a88af00cd0fe7102f30e44ec60048201529192509063c4d66de890602401600060405180830381600087803b158015613d6557600080fd5b505af1158015613d79573d6000803e3d6000fd5b50506012546040516358a2727360e01b81526001600160a01b03858116600483015260ff881660248301526000945090911691506358a27273906044016000604051808303816000875af1158015613dd5573d6000803e3d6000fd5b505050506040513d6000823e601f3d908101601f19168201604052613dfd91908101906154a6565b6000848152600c6020526040812060088101869055825192935091839190613e2757613e2761522b565b6020026020010151816006018190555081600181518110613e4a57613e4a61522b565b6020026020010151816005018190555081600281518110613e6d57613e6d61522b565b6020026020010151816004018190555081600381518110613e9057613e9061522b565b6020908102919091018101516001830155600b8201805460ff19169055604080518083018790528151808203840181529082019091528051910120613ed790600490615884565b60098201805460ff191660ff929092169190911790556040805180820190915260068152650c110d914e5160d21b6020820152600a820190613f199082615593565b50604051849033907f0f6798a560793a54c3bcfe86a93cde1e73087d944c0ea20544137d412139688590600090a35050505050565b638b78c6d81980546001600160a01b039092169182907f8be0079c531659141344cd1fd0a4f28419497f9722a3daafe3b4186f6b6457e0600080a355565b816001600160a01b0316836001600160a01b031603613fed5760405162461bcd60e51b815260206004820152601960248201527f4552433732313a20617070726f766520746f2063616c6c65720000000000000060448201526064016111ff565b6001600160a01b03838116600081815260056020908152604080832094871680845294825291829020805460ff191686151590811790915591519182527f17307eab39ab6107e8899845ad3d59bd9653f200f220920489ca2b5937696c319101612c0c565b61405d848484613a45565b614069848484846145fe565b6129c25760405162461bcd60e51b81526004016111ff906158a6565b60006001600160e01b031982166380ac58cd60e01b14806140b657506001600160e01b03198216635b5e139f60e01b145b80610fb557506301ffc9a760e01b6001600160e01b0319831614610fb5565b6001600160a01b0383166140ee576112a08383836146ff565b6001600160a01b0382166000908152601a60205260409020541561412557604051639a42da2960e01b815260040160405180910390fd5b60008181526019602052604080822054601054915162438b6360e81b81526001600160a01b03918216600482018190529392919091169063438b630090602401600060405180830381865afa158015614182573d6000803e3d6000fd5b505050506040513d6000823e601f3d908101601f191682016040526141aa91908101906154a6565b905060006141b785611c56565b9050600081516001600160401b038111156141d4576141d4614bcb565b6040519080825280602002602001820160405280156141fd578160200160208202803683370190505b50905060005b825181101561427e57601960008483815181106142225761422261522b565b6020026020010151815260200190815260200160002060009054906101000a90046001600160a01b031682828151811061425e5761425e61522b565b6001600160a01b0390921660209283029190910190910152600101614203565b5060115460405163644ec52760e01b8152600481018790526001600160a01b039091169063644ec52790602401600060405180830381600087803b1580156142c557600080fd5b505af11580156142d9573d6000803e3d6000fd5b5050601154604051631e92beb560e31b8152600481018990526001600160a01b038a81166024830152909116925063f495f5a89150604401600060405180830381600087803b15801561432b57600080fd5b505af115801561433f573d6000803e3d6000fd5b5050505060005b835181101561449b5760008482815181106143635761436361522b565b6020908102919091010151601154604051632e1d274f60e01b8152600481018390529192506001600160a01b031690632e1d274f90602401600060405180830381600087803b1580156143b557600080fd5b505af11580156143c9573d6000803e3d6000fd5b5050601154604051632333520b60e11b81526001600160a01b039091169250634666a41691506143ff90849087906004016158f8565b600060405180830381600087803b15801561441957600080fd5b505af115801561442d573d6000803e3d6000fd5b505060105460405163487b1c2160e11b8152600481018590526001600160a01b0390911692506390f638429150602401600060405180830381600087803b15801561447757600080fd5b505af115801561448b573d6000803e3d6000fd5b5050505050806001019050614346565b506144a78787876146ff565b50505050505050565b6001600160a01b0382166145065760405162461bcd60e51b815260206004820181905260248201527f4552433732313a206d696e7420746f20746865207a65726f206164647265737360448201526064016111ff565b6000818152600260205260409020546001600160a01b03161561456b5760405162461bcd60e51b815260206004820152601c60248201527f4552433732313a20746f6b656e20616c7265616479206d696e7465640000000060448201526064016111ff565b614577600083836140d5565b6001600160a01b03821660009081526003602052604081208054600192906145a0908490615858565b909155505060008181526002602052604080822080546001600160a01b0319166001600160a01b03861690811790915590518392907fddf252ad1be2c89b69c2b068fc378daa952ba7f163c4a11628f55a4df523b3ef908290a45050565b60006001600160a01b0384163b156146f457604051630a85bd0160e11b81526001600160a01b0385169063150b7a0290614642903390899088908890600401615951565b6020604051808303816000875af192505050801561467d575060408051601f3d908101601f1916820190925261467a91810190615984565b60015b6146da573d8080156146ab576040519150601f19603f3d011682016040523d82523d6000602084013e6146b0565b606091505b5080516000036146d25760405162461bcd60e51b81526004016111ff906158a6565b805181602001fd5b6001600160e01b031916630a85bd0160e11b1490506123c0565b506001949350505050565b6001600160a01b03831661475a5761475581600880546000838152600960205260408120829055600182018355919091527ff3f7a9fe364faab93b216da50a3214154f22a0a2b415b23a84c8169e8b636ee30155565b61477d565b816001600160a01b0316836001600160a01b03161461477d5761477d83826147b7565b6001600160a01b038216614794576112a081614854565b826001600160a01b0316826001600160a01b0316146112a0576112a08282614903565b600060016147c48461220a565b6147ce9190615845565b600083815260076020526040902054909150808214614821576001600160a01b03841660009081526006602090815260408083208584528252808320548484528184208190558352600790915290208190555b5060009182526007602090815260408084208490556001600160a01b039094168352600681528383209183525290812055565b60085460009061486690600190615845565b6000838152600960205260408120546008805493945090928490811061488e5761488e61522b565b9060005260206000200154905080600883815481106148af576148af61522b565b60009182526020808320909101929092558281526009909152604080822084905585825281205560088054806148e7576148e76159a1565b6001900381819060005260206000200160009055905550505050565b600061490e8361220a565b6001600160a01b039093166000908152600660209081526040808320868452825280832085905593825260079052919091209190915550565b6001600160a01b038116811461220757600080fd5b60006020828403121561496e57600080fd5b81356124c481614947565b6001600160e01b03198116811461220757600080fd5b6000602082840312156149a157600080fd5b81356124c481614979565b6000602082840312156149be57600080fd5b5035919050565b600080604083850312156149d857600080fd5b50508035926020909101359150565b60005b83811015614a025781810151838201526020016149ea565b50506000910152565b60008151808452614a238160208601602086016149e7565b601f01601f19169290920160200192915050565b6020815260006124c46020830184614a0b565b60008060408385031215614a5d57600080fd5b8235614a6881614947565b946020939093013593505050565b848152608060208201526000614a8f6080830186614a0b565b8281036040840152614aa18186614a0b565b90508281036060840152614ab58185614a0b565b979650505050505050565b600080600060608486031215614ad557600080fd5b8335614ae081614947565b92506020840135614af081614947565b929592945050506040919091013590565b6020808252825182820181905260009190848201906040850190845b81811015614b3957835183529284019291840191600101614b1d565b50909695505050505050565b600080600080600080600080610100898b031215614b6257600080fd5b505086359860208801359850604088013597606081013597506080810135965060a0810135955060c0810135945060e0013592509050565b803560ff81168114614bab57600080fd5b919050565b600060208284031215614bc257600080fd5b6124c482614b9a565b634e487b7160e01b600052604160045260246000fd5b60405161018081016001600160401b0381118282101715614c0457614c04614bcb565b60405290565b604051601f8201601f191681016001600160401b0381118282101715614c3257614c32614bcb565b604052919050565b803563ffffffff81168114614bab57600080fd5b60006001600160401b03821115614c6757614c67614bcb565b50601f01601f191660200190565b600082601f830112614c8657600080fd5b8135614c99614c9482614c4e565b614c0a565b818152846020838601011115614cae57600080fd5b816020850160208301376000918101602001919091529392505050565b80358015158114614bab57600080fd5b600060208284031215614ced57600080fd5b81356001600160401b0380821115614d0457600080fd5b908301906101808286031215614d1957600080fd5b614d21614be1565b823581526020830135602082015260408301356040820152606083013560608201526080830135608082015260a083013560a082015260c083013560c0820152614d6d60e08401614c3a565b60e08201526101008381013590820152610120614d8b818501614b9a565b908201526101408381013583811115614da357600080fd5b614daf88828701614c75565b8284015250506101609150614dc5828401614ccb565b91810191909152949350505050565b606081526000614de76060830186614a0b565b8281036020840152614df98186614a0b565b905082810360408401526117f78185614a0b565b6000806000806000806000806000806101408b8d031215614e2d57600080fd5b8a35995060208b0135985060408b0135975060608b0135965060808b0135955060a08b0135945060c08b0135935060e08b01359250614e6f6101008c01614b9a565b91506101208b01356001600160401b03811115614e8b57600080fd5b614e978d828e01614c75565b9150509295989b9194979a5092959850565b60008060408385031215614ebc57600080fd5b8235614ec781614947565b9150614ed560208401614ccb565b90509250929050565b604081526000614ef16040830185614a0b565b8281036020840152614f038185614a0b565b95945050505050565b60008060008060808587031215614f2257600080fd5b8435614f2d81614947565b93506020850135614f3d81614947565b92506040850135915060608501356001600160401b03811115614f5f57600080fd5b614f6b87828801614c75565b91505092959194509250565b6020815281516020820152602082015160408201526040820151606082015260608201516080820152608082015160a082015260a082015160c082015260c082015160e0820152600060e0830151610100614fd98185018363ffffffff169052565b840151610120848101919091528401519050610140614ffc8185018360ff169052565b80850151915050610180610160818186015261501c6101a0860184614a0b565b95015115159301929092525090919050565b6000806040838503121561504157600080fd5b82359150614ed560208401614ccb565b6000806040838503121561506457600080fd5b8235915060208301356001600160401b0381111561508157600080fd5b61508d85828601614c75565b9150509250929050565b600080604083850312156150aa57600080fd5b82359150614ed560208401614b9a565b600080604083850312156150cd57600080fd5b82356150d881614947565b915060208301356150e881614947565b809150509250929050565b6000806000806080858703121561510957600080fd5b8435935060208501356001600160401b038082111561512757600080fd5b61513388838901614c75565b9450604087013591508082111561514957600080fd5b61515588838901614c75565b9350606087013591508082111561516b57600080fd5b50614f6b87828801614c75565b600181811c9082168061518c57607f821691505b6020821081036151ac57634e487b7160e01b600052602260045260246000fd5b50919050565b600082601f8301126151c357600080fd5b81516151d1614c9482614c4e565b8181528460208386010111156151e657600080fd5b6123c08260208301602087016149e7565b60006020828403121561520957600080fd5b81516001600160401b0381111561521f57600080fd5b6123c0848285016151b2565b634e487b7160e01b600052603260045260246000fd5b6080815260006152546080830187614a0b565b6020838203818501528187518084528284019150828160051b850101838a0160005b838110156152a457601f19878403018552615292838351614a0b565b94860194925090850190600101615276565b50506040870198909852505050506060909101919091525092915050565b6020808252602e908201527f4552433732313a2063616c6c6572206973206e6f7420746f6b656e206f776e6560408201526d1c881b9bdc88185c1c1c9bdd995960921b606082015260800190565b60008060006060848603121561532557600080fd5b83516001600160401b038082111561533c57600080fd5b615348878388016151b2565b9450602086015191508082111561535e57600080fd5b61536a878388016151b2565b9350604086015191508082111561538057600080fd5b5061538d868287016151b2565b9150509250925092565b600083516153a98184602088016149e7565b8351908301906153bd8183602088016149e7565b01949350505050565b6000602082840312156153d857600080fd5b81516124c481614947565b600081546153f081615178565b80855260206001838116801561540d576001811461542757615455565b60ff1985168884015283151560051b880183019550615455565b866000528260002060005b8581101561544d5781548a8201860152908301908401615432565b890184019650505b505050505092915050565b6020815260006124c460208301846153e3565b604081526009604082015268426f6479205479706560b81b60608201526080602082015260006124c460808301846153e3565b600060208083850312156154b957600080fd5b82516001600160401b03808211156154d057600080fd5b818501915085601f8301126154e457600080fd5b8151818111156154f6576154f6614bcb565b8060051b9150615507848301614c0a565b818152918301840191848101908884111561552157600080fd5b938501935b8385101561553f57845182529385019390850190615526565b98975050505050505050565b601f8211156112a0576000816000526020600020601f850160051c810160208610156155745750805b601f850160051c820191505b8181101561340a57828155600101615580565b81516001600160401b038111156155ac576155ac614bcb565b6155c0816155ba8454615178565b8461554b565b602080601f8311600181146155f557600084156155dd5750858301515b600019600386901b1c1916600185901b17855561340a565b600085815260208120601f198616915b8281101561562457888601518255948401946001909101908401615605565b50858210156156425787850151600019600388901b60f8161c191681555b5050505050600190811b01905550565b6d2261747472696275746573223a5b60901b8152825160009061567c81600e8501602088016149e7565b600b60fa1b600e91840191820152835161569d81600f8401602088016149e7565b605d60f81b600f9290910191820152601001949350505050565b60008151608084526156cc6080850182614a0b565b9050602083015184820360208601526156e58282614a0b565b915050604083015184820360408601526156ff8282614a0b565b915050606083015160608501528091505092915050565b87815260e06020820152600061572f60e0830189614a0b565b82810360408401526157418189614a0b565b905082810360608401526157558188614a0b565b905082810360808401526157698187614a0b565b905082810360a084015261577d8186614a0b565b905082810360c084015261579181856156b7565b9a9950505050505050505050565b600080604083850312156157b257600080fd5b82516001600160401b03808211156157c957600080fd5b6157d5868387016151b2565b935060208501519150808211156157eb57600080fd5b5061508d858286016151b2565b60006020828403121561580a57600080fd5b8151600881106124c457600080fd5b634e487b7160e01b600052602160045260246000fd5b634e487b7160e01b600052601160045260246000fd5b81810381811115610fb557610fb561582f565b80820180821115610fb557610fb561582f565b60006001820161587d5761587d61582f565b5060010190565b6000826158a157634e487b7160e01b600052601260045260246000fd5b500690565b60208082526032908201527f4552433732313a207472616e7366657220746f206e6f6e20455243373231526560408201527131b2b4bb32b91034b6b83632b6b2b73a32b960711b606082015260800190565b60006040820184835260206040602085015281855180845260608601915060208701935060005b818110156159445784516001600160a01b03168352938301939183019160010161591f565b5090979650505050505050565b6001600160a01b03858116825284166020820152604081018390526080606082018190526000906117f790830184614a0b565b60006020828403121561599657600080fd5b81516124c481614979565b634e487b7160e01b600052603160045260246000fdfe8aea9baa1ab7209ce94784ac5f5149343f8d985fd4278de25a7b390989f2cf85a26469706673582212206304738c38ffcce76f86f19c55244e1ae83bef4449cab756ef88ed82537addc064736f6c63430008160033","linkReferences":{}},"methodIdentifiers":{"_debugPostConstructorMint()":"9c7be2f1","addNewBody(uint256,string,bytes,bytes)":"f2361e23","approve(address,uint256)":"095ea7b3","balanceOf(address)":"70a08231","bodyIndexToMetadata(uint256)":"0c83f9d7","cancelOwnershipHandover()":"54d1f13d","checkIfTraitIsEquipped(uint256,uint256)":"8aa1e4c8","chonkIdToApprovedOperators(uint256,uint256)":"55737f35","completeOwnershipHandover(address)":"f04e283e","equipAccessory(uint256,uint256)":"0447a45e","equipAll(uint256,uint256,uint256,uint256,uint256,uint256,uint256,uint256)":"4a4333a3","equipBottom(uint256,uint256)":"45a10d0f","equipFace(uint256,uint256)":"0f162320","equipHair(uint256,uint256)":"94cbd9c4","equipHead(uint256,uint256)":"1e162a33","equipShoes(uint256,uint256)":"60b77b23","equipTop(uint256,uint256)":"f18dc22d","firstSeasonRenderMinter()":"13ea0ae3","getApproved(uint256)":"081812fc","getBackpackSVGs(uint256)":"14fe8ff4","getBodyImageSvg(uint256)":"916c546b","getBodySVGZmapsAndMetadata((uint256,uint256,uint256,uint256,uint256,uint256,uint256,uint32,uint256,uint8,string,bool))":"92012f08","getBodySvgAndMetadata((uint256,uint256,uint256,uint256,uint256,uint256,uint256,uint32,uint256,uint8,string,bool))":"a23830ae","getBodyZMap(uint256)":"306c7334","getFullPictureForTrait(uint256)":"66704349","getOwnerAndTBAAddressForChonkId(uint256)":"04003bd0","getPeter(uint256)":"be928ff6","getPeterZMap(uint256)":"2bd1ca45","getTBAAddressForChonkId(uint256)":"f6a0c932","getTokenRenderZ(uint256)":"8200ea51","getTraitTokens(address)":"998cfb6e","getTraitsForChonkId(uint256)":"9f6e4637","isApprovedForAll(address,address)":"e985e9c5","mainRenderer2D()":"f4bec0b6","mainRenderer3D()":"b66ef6e3","marketplace()":"abc8c7af","mint(uint8)":"6ecd2306","name()":"06fdde03","owner()":"8da5cb5b","ownerOf(uint256)":"6352211e","ownershipHandoverExpiresAt(address)":"fee81cf4","peterMakeover(uint256,uint256,uint256,uint256,uint256,uint256,uint256,uint256,uint8,string)":"93ccba72","price()":"a035b1fe","renderAsDataUri(uint256)":"a1d62680","renderAsDataUri2D(uint256)":"f3f8efb9","renderAsDataUri3D(uint256)":"dceef0ec","renounceOwnership()":"715018a6","requestOwnershipHandover()":"25692962","safeTransferFrom(address,address,uint256)":"42842e0e","safeTransferFrom(address,address,uint256,bytes)":"b88d4fde","setApprovalForAll(address,bool)":"a22cb465","setBackgroundColor(uint256,string)":"d68c4f32","setBodyIndex(uint256,uint8)":"e1405540","setFirstSeasonRenderMinter(address)":"58a97640","setMainRenderer2D(address)":"7e2e6c47","setMainRenderer3D(address)":"00179206","setMarketplace(address)":"73ad6c2d","setMaxTraitsToOutput(uint256)":"33d3d9bf","setPrice(uint256)":"91b7f5ed","setSystemAddress(address)":"06210197","setTokenRender3D(uint256,bool)":"bef1dfb7","setTraitsContract(address)":"5eabd84a","supportsInterface(bytes4)":"01ffc9a7","symbol()":"95d89b41","tbaAddressToTokenId(address)":"a4bf9a00","tokenByIndex(uint256)":"4f6ccce7","tokenIdToTBAAccountAddress(uint256)":"9c05d68d","tokenOfOwnerByIndex(address,uint256)":"2f745c59","tokenURI(uint256)":"c87b56dd","totalSupply()":"18160ddd","traitsContract()":"c093afdb","transferFrom(address,address,uint256)":"23b872dd","transferOwnership(address)":"f2fde38b","unequipAccessory(uint256)":"293ed3f7","unequipAll(uint256)":"3044825b","unequipBottom(uint256)":"9c762015","unequipFace(uint256)":"d5b55c8b","unequipHair(uint256)":"105338e0","unequipHead(uint256)":"7afe8d34","unequipShoes(uint256)":"58180d35","unequipTop(uint256)":"347bd8f4","walletOfOwner(address)":"438b6300"},"id":45}