{"abi":[{"type":"constructor","inputs":[{"name":"localDeploy_","type":"bool","internalType":"bool"}],"stateMutability":"nonpayable"},{"type":"function","name":"_debugPostConstructorMint","inputs":[],"outputs":[],"stateMutability":"nonpayable"},{"type":"function","name":"addNewBody","inputs":[{"name":"_bodyIndex","type":"uint256","internalType":"uint256"},{"name":"_bodyName","type":"string","internalType":"string"},{"name":"_colorMap","type":"bytes","internalType":"bytes"},{"name":"_zMap","type":"bytes","internalType":"bytes"}],"outputs":[],"stateMutability":"nonpayable"},{"type":"function","name":"approve","inputs":[{"name":"to","type":"address","internalType":"address"},{"name":"tokenId","type":"uint256","internalType":"uint256"}],"outputs":[],"stateMutability":"nonpayable"},{"type":"function","name":"balanceOf","inputs":[{"name":"owner","type":"address","internalType":"address"}],"outputs":[{"name":"","type":"uint256","internalType":"uint256"}],"stateMutability":"view"},{"type":"function","name":"bodyIndexToMetadata","inputs":[{"name":"","type":"uint256","internalType":"uint256"}],"outputs":[{"name":"bodyIndex","type":"uint256","internalType":"uint256"},{"name":"bodyName","type":"string","internalType":"string"},{"name":"colorMap","type":"bytes","internalType":"bytes"},{"name":"zMap","type":"bytes","internalType":"bytes"}],"stateMutability":"view"},{"type":"function","name":"buyTrait","inputs":[{"name":"_tokenId","type":"uint256","internalType":"uint256"}],"outputs":[],"stateMutability":"nonpayable"},{"type":"function","name":"cancelOwnershipHandover","inputs":[],"outputs":[],"stateMutability":"payable"},{"type":"function","name":"checkIfTraitIsEquipped","inputs":[{"name":"_chonkId","type":"uint256","internalType":"uint256"},{"name":"_traitId","type":"uint256","internalType":"uint256"}],"outputs":[{"name":"","type":"bool","internalType":"bool"}],"stateMutability":"view"},{"type":"function","name":"chonkIdToApprovedOperators","inputs":[{"name":"chonkId","type":"uint256","internalType":"uint256"},{"name":"","type":"uint256","internalType":"uint256"}],"outputs":[{"name":"operators","type":"address","internalType":"address"}],"stateMutability":"view"},{"type":"function","name":"completeOwnershipHandover","inputs":[{"name":"pendingOwner","type":"address","internalType":"address"}],"outputs":[],"stateMutability":"payable"},{"type":"function","name":"equipAccessory","inputs":[{"name":"_peterTokenId","type":"uint256","internalType":"uint256"},{"name":"_traitTokenId","type":"uint256","internalType":"uint256"}],"outputs":[],"stateMutability":"nonpayable"},{"type":"function","name":"equipAll","inputs":[{"name":"_peterTokenId","type":"uint256","internalType":"uint256"},{"name":"_headTokenId","type":"uint256","internalType":"uint256"},{"name":"_hairTokenId","type":"uint256","internalType":"uint256"},{"name":"_faceTokenId","type":"uint256","internalType":"uint256"},{"name":"_accessoryTokenId","type":"uint256","internalType":"uint256"},{"name":"_topTokenId","type":"uint256","internalType":"uint256"},{"name":"_bottomTokenId","type":"uint256","internalType":"uint256"},{"name":"_shoesTokenId","type":"uint256","internalType":"uint256"}],"outputs":[],"stateMutability":"nonpayable"},{"type":"function","name":"equipBottom","inputs":[{"name":"_peterTokenId","type":"uint256","internalType":"uint256"},{"name":"_traitTokenId","type":"uint256","internalType":"uint256"}],"outputs":[],"stateMutability":"nonpayable"},{"type":"function","name":"equipFace","inputs":[{"name":"_peterTokenId","type":"uint256","internalType":"uint256"},{"name":"_traitTokenId","type":"uint256","internalType":"uint256"}],"outputs":[],"stateMutability":"nonpayable"},{"type":"function","name":"equipHair","inputs":[{"name":"_peterTokenId","type":"uint256","internalType":"uint256"},{"name":"_traitTokenId","type":"uint256","internalType":"uint256"}],"outputs":[],"stateMutability":"nonpayable"},{"type":"function","name":"equipHead","inputs":[{"name":"_peterTokenId","type":"uint256","internalType":"uint256"},{"name":"_traitTokenId","type":"uint256","internalType":"uint256"}],"outputs":[],"stateMutability":"nonpayable"},{"type":"function","name":"equipShoes","inputs":[{"name":"_peterTokenId","type":"uint256","internalType":"uint256"},{"name":"_traitTokenId","type":"uint256","internalType":"uint256"}],"outputs":[],"stateMutability":"nonpayable"},{"type":"function","name":"equipTop","inputs":[{"name":"_peterTokenId","type":"uint256","internalType":"uint256"},{"name":"_traitTokenId","type":"uint256","internalType":"uint256"}],"outputs":[],"stateMutability":"nonpayable"},{"type":"function","name":"firstSeasonRenderMinter","inputs":[],"outputs":[{"name":"","type":"address","internalType":"contract FirstSeasonRenderMinter"}],"stateMutability":"view"},{"type":"function","name":"getApproved","inputs":[{"name":"tokenId","type":"uint256","internalType":"uint256"}],"outputs":[{"name":"","type":"address","internalType":"address"}],"stateMutability":"view"},{"type":"function","name":"getBackpackSVGs","inputs":[{"name":"_tokenId","type":"uint256","internalType":"uint256"}],"outputs":[{"name":"backpackSVGs","type":"string","internalType":"string"}],"stateMutability":"view"},{"type":"function","name":"getBodyImage","inputs":[{"name":"colorMap","type":"bytes","internalType":"bytes"}],"outputs":[{"name":"","type":"bytes","internalType":"bytes"}],"stateMutability":"pure"},{"type":"function","name":"getBodyImageSvg","inputs":[{"name":"_index","type":"uint256","internalType":"uint256"}],"outputs":[{"name":"svg","type":"string","internalType":"string"}],"stateMutability":"view"},{"type":"function","name":"getBodySVGZmapsAndMetadata","inputs":[{"name":"storedPeter","type":"tuple","internalType":"struct IPeterStorage.StoredPeter","components":[{"name":"headId","type":"uint256","internalType":"uint256"},{"name":"hairId","type":"uint256","internalType":"uint256"},{"name":"faceId","type":"uint256","internalType":"uint256"},{"name":"accessoryId","type":"uint256","internalType":"uint256"},{"name":"topId","type":"uint256","internalType":"uint256"},{"name":"bottomId","type":"uint256","internalType":"uint256"},{"name":"shoesId","type":"uint256","internalType":"uint256"},{"name":"epoch","type":"uint32","internalType":"uint32"},{"name":"tokenId","type":"uint256","internalType":"uint256"},{"name":"bodyIndex","type":"uint8","internalType":"uint8"},{"name":"backgroundColor","type":"string","internalType":"string"},{"name":"renderZ","type":"bool","internalType":"bool"}]}],"outputs":[{"name":"","type":"string","internalType":"string"},{"name":"","type":"bytes","internalType":"bytes"},{"name":"","type":"string","internalType":"string"}],"stateMutability":"view"},{"type":"function","name":"getBodySvgAndMetadata","inputs":[{"name":"storedPeter","type":"tuple","internalType":"struct IPeterStorage.StoredPeter","components":[{"name":"headId","type":"uint256","internalType":"uint256"},{"name":"hairId","type":"uint256","internalType":"uint256"},{"name":"faceId","type":"uint256","internalType":"uint256"},{"name":"accessoryId","type":"uint256","internalType":"uint256"},{"name":"topId","type":"uint256","internalType":"uint256"},{"name":"bottomId","type":"uint256","internalType":"uint256"},{"name":"shoesId","type":"uint256","internalType":"uint256"},{"name":"epoch","type":"uint32","internalType":"uint32"},{"name":"tokenId","type":"uint256","internalType":"uint256"},{"name":"bodyIndex","type":"uint8","internalType":"uint8"},{"name":"backgroundColor","type":"string","internalType":"string"},{"name":"renderZ","type":"bool","internalType":"bool"}]}],"outputs":[{"name":"","type":"string","internalType":"string"},{"name":"","type":"string","internalType":"string"}],"stateMutability":"view"},{"type":"function","name":"getBodyZMap","inputs":[{"name":"_tokenId","type":"uint256","internalType":"uint256"}],"outputs":[{"name":"","type":"string","internalType":"string"}],"stateMutability":"view"},{"type":"function","name":"getFullPictureForTrait","inputs":[{"name":"_chonkTraitTokenId","type":"uint256","internalType":"uint256"}],"outputs":[{"name":"traitOwnerTBA","type":"address","internalType":"address"},{"name":"chonkTokenId","type":"uint256","internalType":"uint256"},{"name":"chonkOwner","type":"address","internalType":"address"}],"stateMutability":"view"},{"type":"function","name":"getOwnerAndTBAAddressForChonkId","inputs":[{"name":"_chonkId","type":"uint256","internalType":"uint256"}],"outputs":[{"name":"owner","type":"address","internalType":"address"},{"name":"tbaAddress","type":"address","internalType":"address"}],"stateMutability":"view"},{"type":"function","name":"getPeter","inputs":[{"name":"_tokenId","type":"uint256","internalType":"uint256"}],"outputs":[{"name":"","type":"tuple","internalType":"struct IPeterStorage.StoredPeter","components":[{"name":"headId","type":"uint256","internalType":"uint256"},{"name":"hairId","type":"uint256","internalType":"uint256"},{"name":"faceId","type":"uint256","internalType":"uint256"},{"name":"accessoryId","type":"uint256","internalType":"uint256"},{"name":"topId","type":"uint256","internalType":"uint256"},{"name":"bottomId","type":"uint256","internalType":"uint256"},{"name":"shoesId","type":"uint256","internalType":"uint256"},{"name":"epoch","type":"uint32","internalType":"uint32"},{"name":"tokenId","type":"uint256","internalType":"uint256"},{"name":"bodyIndex","type":"uint8","internalType":"uint8"},{"name":"backgroundColor","type":"string","internalType":"string"},{"name":"renderZ","type":"bool","internalType":"bool"}]}],"stateMutability":"view"},{"type":"function","name":"getPeterZMap","inputs":[{"name":"_tokenId","type":"uint256","internalType":"uint256"}],"outputs":[{"name":"","type":"string","internalType":"string"}],"stateMutability":"view"},{"type":"function","name":"getTBAAddressForChonkId","inputs":[{"name":"_chonkId","type":"uint256","internalType":"uint256"}],"outputs":[{"name":"","type":"address","internalType":"address"}],"stateMutability":"view"},{"type":"function","name":"getTokenRenderZ","inputs":[{"name":"_peterTokenId","type":"uint256","internalType":"uint256"}],"outputs":[{"name":"","type":"bool","internalType":"bool"}],"stateMutability":"view"},{"type":"function","name":"getTraitTokens","inputs":[{"name":"_tbaAddress","type":"address","internalType":"address"}],"outputs":[{"name":"","type":"uint256[]","internalType":"uint256[]"}],"stateMutability":"view"},{"type":"function","name":"getTraitsForChonkId","inputs":[{"name":"_chonkId","type":"uint256","internalType":"uint256"}],"outputs":[{"name":"traitTokens","type":"uint256[]","internalType":"uint256[]"}],"stateMutability":"view"},{"type":"function","name":"isApprovedForAll","inputs":[{"name":"owner","type":"address","internalType":"address"},{"name":"operator","type":"address","internalType":"address"}],"outputs":[{"name":"","type":"bool","internalType":"bool"}],"stateMutability":"view"},{"type":"function","name":"mainRenderer","inputs":[],"outputs":[{"name":"","type":"address","internalType":"contract MainRenderer"}],"stateMutability":"view"},{"type":"function","name":"marketplace","inputs":[],"outputs":[{"name":"","type":"address","internalType":"contract ChonksMarket"}],"stateMutability":"view"},{"type":"function","name":"mint","inputs":[{"name":"_amount","type":"uint8","internalType":"uint8"}],"outputs":[],"stateMutability":"payable"},{"type":"function","name":"name","inputs":[],"outputs":[{"name":"","type":"string","internalType":"string"}],"stateMutability":"view"},{"type":"function","name":"owner","inputs":[],"outputs":[{"name":"result","type":"address","internalType":"address"}],"stateMutability":"view"},{"type":"function","name":"ownerOf","inputs":[{"name":"tokenId","type":"uint256","internalType":"uint256"}],"outputs":[{"name":"","type":"address","internalType":"address"}],"stateMutability":"view"},{"type":"function","name":"ownershipHandoverExpiresAt","inputs":[{"name":"pendingOwner","type":"address","internalType":"address"}],"outputs":[{"name":"result","type":"uint256","internalType":"uint256"}],"stateMutability":"view"},{"type":"function","name":"peterMakeover","inputs":[{"name":"_peterTokenId","type":"uint256","internalType":"uint256"},{"name":"_headTokenId","type":"uint256","internalType":"uint256"},{"name":"_hairTokenId","type":"uint256","internalType":"uint256"},{"name":"_faceTokenId","type":"uint256","internalType":"uint256"},{"name":"_accessoryTokenId","type":"uint256","internalType":"uint256"},{"name":"_topTokenId","type":"uint256","internalType":"uint256"},{"name":"_bottomTokenId","type":"uint256","internalType":"uint256"},{"name":"_shoesTokenId","type":"uint256","internalType":"uint256"},{"name":"_bodyIndex","type":"uint8","internalType":"uint8"},{"name":"_backgroundColor","type":"string","internalType":"string"}],"outputs":[],"stateMutability":"nonpayable"},{"type":"function","name":"price","inputs":[],"outputs":[{"name":"","type":"uint256","internalType":"uint256"}],"stateMutability":"view"},{"type":"function","name":"renderAsDataUri","inputs":[{"name":"_tokenId","type":"uint256","internalType":"uint256"}],"outputs":[{"name":"","type":"string","internalType":"string"}],"stateMutability":"view"},{"type":"function","name":"renderAsDataUriSVG","inputs":[{"name":"_tokenId","type":"uint256","internalType":"uint256"}],"outputs":[{"name":"","type":"string","internalType":"string"}],"stateMutability":"view"},{"type":"function","name":"renderAsDataUriZ","inputs":[{"name":"_tokenId","type":"uint256","internalType":"uint256"}],"outputs":[{"name":"","type":"string","internalType":"string"}],"stateMutability":"view"},{"type":"function","name":"renounceOwnership","inputs":[],"outputs":[],"stateMutability":"payable"},{"type":"function","name":"requestOwnershipHandover","inputs":[],"outputs":[],"stateMutability":"payable"},{"type":"function","name":"safeTransferFrom","inputs":[{"name":"from","type":"address","internalType":"address"},{"name":"to","type":"address","internalType":"address"},{"name":"tokenId","type":"uint256","internalType":"uint256"}],"outputs":[],"stateMutability":"nonpayable"},{"type":"function","name":"safeTransferFrom","inputs":[{"name":"from","type":"address","internalType":"address"},{"name":"to","type":"address","internalType":"address"},{"name":"tokenId","type":"uint256","internalType":"uint256"},{"name":"data","type":"bytes","internalType":"bytes"}],"outputs":[],"stateMutability":"nonpayable"},{"type":"function","name":"setApprovalForAll","inputs":[{"name":"operator","type":"address","internalType":"address"},{"name":"approved","type":"bool","internalType":"bool"}],"outputs":[],"stateMutability":"nonpayable"},{"type":"function","name":"setBodyIndex","inputs":[{"name":"_peterTokenId","type":"uint256","internalType":"uint256"},{"name":"_bodyIndex","type":"uint8","internalType":"uint8"}],"outputs":[],"stateMutability":"nonpayable"},{"type":"function","name":"setFirstSeasonRenderMinter","inputs":[{"name":"_dataContract","type":"address","internalType":"address"}],"outputs":[],"stateMutability":"nonpayable"},{"type":"function","name":"setMainRenderer","inputs":[{"name":"_mainRenderer","type":"address","internalType":"address"}],"outputs":[],"stateMutability":"nonpayable"},{"type":"function","name":"setMarketplace","inputs":[{"name":"_marketplace","type":"address","internalType":"address"}],"outputs":[],"stateMutability":"nonpayable"},{"type":"function","name":"setMaxTraitsToOutput","inputs":[{"name":"_maxTraitsToOutput","type":"uint256","internalType":"uint256"}],"outputs":[],"stateMutability":"nonpayable"},{"type":"function","name":"setPrice","inputs":[{"name":"_priceInWei","type":"uint256","internalType":"uint256"}],"outputs":[],"stateMutability":"nonpayable"},{"type":"function","name":"setSystemAddress","inputs":[{"name":"_systemAddress","type":"address","internalType":"address"}],"outputs":[],"stateMutability":"nonpayable"},{"type":"function","name":"setTokenRenderZ","inputs":[{"name":"_peterTokenId","type":"uint256","internalType":"uint256"},{"name":"_renderZ","type":"bool","internalType":"bool"}],"outputs":[],"stateMutability":"nonpayable"},{"type":"function","name":"setTraitsContract","inputs":[{"name":"_address","type":"address","internalType":"contract PeterTraits"}],"outputs":[],"stateMutability":"nonpayable"},{"type":"function","name":"setZRenderer","inputs":[{"name":"_zRenderer","type":"address","internalType":"address"}],"outputs":[],"stateMutability":"nonpayable"},{"type":"function","name":"supportsInterface","inputs":[{"name":"interfaceId","type":"bytes4","internalType":"bytes4"}],"outputs":[{"name":"","type":"bool","internalType":"bool"}],"stateMutability":"view"},{"type":"function","name":"symbol","inputs":[],"outputs":[{"name":"","type":"string","internalType":"string"}],"stateMutability":"view"},{"type":"function","name":"tbaAddressToTokenId","inputs":[{"name":"","type":"address","internalType":"address"}],"outputs":[{"name":"","type":"uint256","internalType":"uint256"}],"stateMutability":"view"},{"type":"function","name":"tokenByIndex","inputs":[{"name":"index","type":"uint256","internalType":"uint256"}],"outputs":[{"name":"","type":"uint256","internalType":"uint256"}],"stateMutability":"view"},{"type":"function","name":"tokenIdToTBAAccountAddress","inputs":[{"name":"","type":"uint256","internalType":"uint256"}],"outputs":[{"name":"","type":"address","internalType":"address"}],"stateMutability":"view"},{"type":"function","name":"tokenOfOwnerByIndex","inputs":[{"name":"owner","type":"address","internalType":"address"},{"name":"index","type":"uint256","internalType":"uint256"}],"outputs":[{"name":"","type":"uint256","internalType":"uint256"}],"stateMutability":"view"},{"type":"function","name":"tokenURI","inputs":[{"name":"_tokenId","type":"uint256","internalType":"uint256"}],"outputs":[{"name":"","type":"string","internalType":"string"}],"stateMutability":"view"},{"type":"function","name":"totalSupply","inputs":[],"outputs":[{"name":"","type":"uint256","internalType":"uint256"}],"stateMutability":"view"},{"type":"function","name":"traitsContract","inputs":[],"outputs":[{"name":"","type":"address","internalType":"contract PeterTraits"}],"stateMutability":"view"},{"type":"function","name":"transferFrom","inputs":[{"name":"from","type":"address","internalType":"address"},{"name":"to","type":"address","internalType":"address"},{"name":"tokenId","type":"uint256","internalType":"uint256"}],"outputs":[],"stateMutability":"nonpayable"},{"type":"function","name":"transferOwnership","inputs":[{"name":"newOwner","type":"address","internalType":"address"}],"outputs":[],"stateMutability":"payable"},{"type":"function","name":"unequipAccessory","inputs":[{"name":"_peterTokenId","type":"uint256","internalType":"uint256"}],"outputs":[],"stateMutability":"nonpayable"},{"type":"function","name":"unequipAll","inputs":[{"name":"_peterTokenId","type":"uint256","internalType":"uint256"}],"outputs":[],"stateMutability":"nonpayable"},{"type":"function","name":"unequipBottom","inputs":[{"name":"_peterTokenId","type":"uint256","internalType":"uint256"}],"outputs":[],"stateMutability":"nonpayable"},{"type":"function","name":"unequipFace","inputs":[{"name":"_peterTokenId","type":"uint256","internalType":"uint256"}],"outputs":[],"stateMutability":"nonpayable"},{"type":"function","name":"unequipHair","inputs":[{"name":"_peterTokenId","type":"uint256","internalType":"uint256"}],"outputs":[],"stateMutability":"nonpayable"},{"type":"function","name":"unequipHead","inputs":[{"name":"_peterTokenId","type":"uint256","internalType":"uint256"}],"outputs":[],"stateMutability":"nonpayable"},{"type":"function","name":"unequipShoes","inputs":[{"name":"_peterTokenId","type":"uint256","internalType":"uint256"}],"outputs":[],"stateMutability":"nonpayable"},{"type":"function","name":"unequipTop","inputs":[{"name":"_peterTokenId","type":"uint256","internalType":"uint256"}],"outputs":[],"stateMutability":"nonpayable"},{"type":"function","name":"walletOfOwner","inputs":[{"name":"_owner","type":"address","internalType":"address"}],"outputs":[{"name":"","type":"uint256[]","internalType":"uint256[]"}],"stateMutability":"view"},{"type":"function","name":"zRenderer","inputs":[],"outputs":[{"name":"","type":"address","internalType":"contract ZRenderer"}],"stateMutability":"view"},{"type":"event","name":"Approval","inputs":[{"name":"owner","type":"address","indexed":true,"internalType":"address"},{"name":"approved","type":"address","indexed":true,"internalType":"address"},{"name":"tokenId","type":"uint256","indexed":true,"internalType":"uint256"}],"anonymous":false},{"type":"event","name":"ApprovalForAll","inputs":[{"name":"owner","type":"address","indexed":true,"internalType":"address"},{"name":"operator","type":"address","indexed":true,"internalType":"address"},{"name":"approved","type":"bool","indexed":false,"internalType":"bool"}],"anonymous":false},{"type":"event","name":"BackgroundColor","inputs":[{"name":"owner","type":"address","indexed":true,"internalType":"address"},{"name":"tokenId","type":"uint256","indexed":true,"internalType":"uint256"},{"name":"color","type":"string","indexed":false,"internalType":"string"}],"anonymous":false},{"type":"event","name":"BatchMetadataUpdate","inputs":[{"name":"_fromTokenId","type":"uint256","indexed":false,"internalType":"uint256"},{"name":"_toTokenId","type":"uint256","indexed":false,"internalType":"uint256"}],"anonymous":false},{"type":"event","name":"BodyIndex","inputs":[{"name":"owner","type":"address","indexed":true,"internalType":"address"},{"name":"tokenId","type":"uint256","indexed":true,"internalType":"uint256"},{"name":"_bodyIndex","type":"uint8","indexed":false,"internalType":"uint8"}],"anonymous":false},{"type":"event","name":"Equip","inputs":[{"name":"owner","type":"address","indexed":true,"internalType":"address"},{"name":"tokenId","type":"uint256","indexed":true,"internalType":"uint256"},{"name":"traitTokenId","type":"uint256","indexed":true,"internalType":"uint256"},{"name":"traitCategory","type":"string","indexed":false,"internalType":"string"}],"anonymous":false},{"type":"event","name":"EquipAll","inputs":[{"name":"owner","type":"address","indexed":true,"internalType":"address"},{"name":"tokenId","type":"uint256","indexed":true,"internalType":"uint256"}],"anonymous":false},{"type":"event","name":"MetadataUpdate","inputs":[{"name":"_tokenId","type":"uint256","indexed":false,"internalType":"uint256"}],"anonymous":false},{"type":"event","name":"Mint","inputs":[{"name":"owner","type":"address","indexed":true,"internalType":"address"},{"name":"tokenId","type":"uint256","indexed":true,"internalType":"uint256"}],"anonymous":false},{"type":"event","name":"OwnershipHandoverCanceled","inputs":[{"name":"pendingOwner","type":"address","indexed":true,"internalType":"address"}],"anonymous":false},{"type":"event","name":"OwnershipHandoverRequested","inputs":[{"name":"pendingOwner","type":"address","indexed":true,"internalType":"address"}],"anonymous":false},{"type":"event","name":"OwnershipTransferred","inputs":[{"name":"oldOwner","type":"address","indexed":true,"internalType":"address"},{"name":"newOwner","type":"address","indexed":true,"internalType":"address"}],"anonymous":false},{"type":"event","name":"RenderZ","inputs":[{"name":"owner","type":"address","indexed":true,"internalType":"address"},{"name":"tokenId","type":"uint256","indexed":true,"internalType":"uint256"},{"name":"renderZ","type":"bool","indexed":false,"internalType":"bool"}],"anonymous":false},{"type":"event","name":"Transfer","inputs":[{"name":"from","type":"address","indexed":true,"internalType":"address"},{"name":"to","type":"address","indexed":true,"internalType":"address"},{"name":"tokenId","type":"uint256","indexed":true,"internalType":"uint256"}],"anonymous":false},{"type":"event","name":"Unequip","inputs":[{"name":"owner","type":"address","indexed":true,"internalType":"address"},{"name":"tokenId","type":"uint256","indexed":true,"internalType":"uint256"},{"name":"traitCategory","type":"string","indexed":true,"internalType":"string"}],"anonymous":false},{"type":"event","name":"UnequipAll","inputs":[{"name":"owner","type":"address","indexed":true,"internalType":"address"},{"name":"tokenId","type":"uint256","indexed":true,"internalType":"uint256"}],"anonymous":false},{"type":"error","name":"AlreadyInitialized","inputs":[]},{"type":"error","name":"BodyAlreadyExists","inputs":[]},{"type":"error","name":"CantTransfer","inputs":[]},{"type":"error","name":"CantTransferToTBAs","inputs":[]},{"type":"error","name":"FirstSeasonRenderMinterNotSet","inputs":[]},{"type":"error","name":"IncorrectPeterOwner","inputs":[]},{"type":"error","name":"IncorrectTBAOwner","inputs":[]},{"type":"error","name":"IncorrectTraitType","inputs":[]},{"type":"error","name":"InvalidBodyIndex","inputs":[]},{"type":"error","name":"InvalidColor","inputs":[]},{"type":"error","name":"InvalidLevelAmount","inputs":[]},{"type":"error","name":"InvalidSignature","inputs":[]},{"type":"error","name":"NewOwnerIsZeroAddress","inputs":[]},{"type":"error","name":"NoHandoverRequest","inputs":[]},{"type":"error","name":"NonceAlreadyUsed","inputs":[]},{"type":"error","name":"PeterDoesntExist","inputs":[]},{"type":"error","name":"Unauthorized","inputs":[]},{"type":"error","name":"markaSaysNo","inputs":[]}],"bytecode":{"object":"0x60806040526063601c553480156200001657600080fd5b506040516200651938038062006519833981016040819052620000399162000100565b6040518060400160405280600a81526020016914195d195c8815195cdd60b21b815250604051806040016040528060058152602001642822aa22a960d91b81525081600090816200008b9190620001d2565b5060016200009a8282620001d2565b50506001600a5550620000ad33620000c4565b600b805460ff19169115159190911790556200029e565b6001600160a01b0316638b78c6d8198190558060007f8be0079c531659141344cd1fd0a4f28419497f9722a3daafe3b4186f6b6457e08180a350565b6000602082840312156200011357600080fd5b815180151581146200012457600080fd5b9392505050565b634e487b7160e01b600052604160045260246000fd5b600181811c908216806200015657607f821691505b6020821081036200017757634e487b7160e01b600052602260045260246000fd5b50919050565b601f821115620001cd576000816000526020600020601f850160051c81016020861015620001a85750805b601f850160051c820191505b81811015620001c957828155600101620001b4565b5050505b505050565b81516001600160401b03811115620001ee57620001ee6200012b565b6200020681620001ff845462000141565b846200017d565b602080601f8311600181146200023e5760008415620002255750858301515b600019600386901b1c1916600185901b178555620001c9565b600085815260208120601f198616915b828110156200026f578886015182559484019460019091019084016200024e565b50858210156200028e5787850151600019600388901b60f8161c191681555b5050505050600190811b01905550565b61626b80620002ae6000396000f3fe6080604052600436106104945760003560e01c80636ecd230611610260578063a15c561b11610144578063c87b56dd116100c1578063f04e283e11610085578063f04e283e14610edd578063f18dc22d14610ef0578063f2361e2314610f10578063f2fde38b14610f30578063f6a0c93214610f43578063fee81cf414610f7957600080fd5b8063c87b56dd14610e14578063d5b55c8b14610e34578063e140554014610e54578063e37db3c214610e74578063e985e9c514610e9457600080fd5b8063abc8c7af11610108578063abc8c7af14610d67578063b28fbe4014610d87578063b88d4fde14610da7578063be928ff614610dc7578063c093afdb14610df457600080fd5b8063a15c561b14610cac578063a1d6268014610ccc578063a22cb46514610cec578063a23830ae14610d0c578063a4bf9a0014610d3a57600080fd5b806391b7f5ed116101dd578063998cfb6e116101a1578063998cfb6e14610beb5780639c05d68d14610c0b5780639c76201514610c415780639c7be2f114610c615780639f6e463714610c76578063a035b1fe14610c9657600080fd5b806391b7f5ed14610b4757806392012f0814610b6757806393ccba7214610b9657806394cbd9c414610bb657806395d89b4114610bd657600080fd5b80637afe8d34116102245780637afe8d3414610a9b5780638200ea5114610abb5780638aa1e4c814610aee5780638da5cb5b14610b0e578063916c546b14610b2757600080fd5b80636ecd230614610a2057806370a0823114610a33578063715018a614610a5357806373ad6c2d14610a5b5780637557f2dc14610a7b57600080fd5b80632f745c59116103875780634f6ccce7116103045780635eabd84a116102c85780635eabd84a1461093657806360b77b23146109565780636273ca2c146109765780636352211e1461099657806366704349146109b657806366b89b5a14610a0057600080fd5b80634f6ccce7146108ae57806354d1f13d146108ce57806355737f35146108d657806358180d35146108f657806358a976401461091657600080fd5b806342842e0e1161034b57806342842e0e14610801578063438b63001461082157806345a10d0f1461084e5780634a4333a31461086e5780634ddb39611461088e57600080fd5b80632f745c59146107615780633044825b14610781578063306c7334146107a157806333d3d9bf146107c1578063347bd8f4146107e157600080fd5b8063105338e0116104155780631e162a33116103d95780631e162a33146106d957806323b872dd146106f95780632569296214610719578063293ed3f7146107215780632bd1ca451461074157600080fd5b8063105338e01461063a57806313ea0ae31461065a57806314fe8ff41461067a578063172b054d1461069a57806318160ddd146106ba57600080fd5b806307f4e0451161045c57806307f4e04514610572578063081812fc14610592578063095ea7b3146105ca5780630c83f9d7146105ea5780630f1623201461061a57600080fd5b806301ffc9a71461049957806304003bd0146104ce5780630447a45e1461050e578063062101971461053057806306fdde0314610550575b600080fd5b3480156104a557600080fd5b506104b96104b4366004614ae9565b610fac565b60405190151581526020015b60405180910390f35b3480156104da57600080fd5b506104ee6104e9366004614b06565b610fbd565b604080516001600160a01b039384168152929091166020830152016104c5565b34801561051a57600080fd5b5061052e610529366004614b1f565b610fec565b005b34801561053c57600080fd5b5061052e61054b366004614b56565b6110aa565b34801561055c57600080fd5b506105656110d4565b6040516104c59190614bc3565b34801561057e57600080fd5b5061052e61058d366004614beb565b611166565b34801561059e57600080fd5b506105b26105ad366004614b06565b611211565b6040516001600160a01b0390911681526020016104c5565b3480156105d657600080fd5b5061052e6105e5366004614c17565b611238565b3480156105f657600080fd5b5061060a610605366004614b06565b611352565b6040516104c59493929190614c43565b34801561062657600080fd5b5061052e610635366004614b1f565b611513565b34801561064657600080fd5b5061052e610655366004614b06565b6115bf565b34801561066657600080fd5b506012546105b2906001600160a01b031681565b34801561068657600080fd5b50610565610695366004614b06565b61166a565b3480156106a657600080fd5b5061052e6106b5366004614b56565b6118e3565b3480156106c657600080fd5b506008545b6040519081526020016104c5565b3480156106e557600080fd5b5061052e6106f4366004614b1f565b61190d565b34801561070557600080fd5b5061052e610714366004614c8d565b6119b6565b61052e6119e7565b34801561072d57600080fd5b5061052e61073c366004614b06565b611a36565b34801561074d57600080fd5b5061056561075c366004614b06565b611a9f565b34801561076d57600080fd5b506106cb61077c366004614c17565b611b63565b34801561078d57600080fd5b5061052e61079c366004614b06565b611bf9565b3480156107ad57600080fd5b506105656107bc366004614b06565b611cb4565b3480156107cd57600080fd5b5061052e6107dc366004614b06565b611cd7565b3480156107ed57600080fd5b5061052e6107fc366004614b06565b611ce4565b34801561080d57600080fd5b5061052e61081c366004614c8d565b611d47565b34801561082d57600080fd5b5061084161083c366004614b56565b611d62565b6040516104c59190614cce565b34801561085a57600080fd5b5061052e610869366004614b1f565b611df9565b34801561087a57600080fd5b5061052e610889366004614d12565b611ea7565b34801561089a57600080fd5b5061052e6108a9366004614b56565b611f9c565b3480156108ba57600080fd5b506106cb6108c9366004614b06565b611fc6565b61052e612059565b3480156108e257600080fd5b506105b26108f1366004614b1f565b612095565b34801561090257600080fd5b5061052e610911366004614b06565b6120cd565b34801561092257600080fd5b5061052e610931366004614b56565b612132565b34801561094257600080fd5b5061052e610951366004614b56565b61215c565b34801561096257600080fd5b5061052e610971366004614b1f565b612186565b34801561098257600080fd5b5061052e610991366004614b06565b612233565b3480156109a257600080fd5b506105b26109b1366004614b06565b6122b7565b3480156109c257600080fd5b506109d66109d1366004614b06565b612317565b604080516001600160a01b03948516815260208101939093529216918101919091526060016104c5565b348015610a0c57600080fd5b506013546105b2906001600160a01b031681565b61052e610a2e366004614d78565b6123b8565b348015610a3f57600080fd5b506106cb610a4e366004614b56565b6123c4565b61052e61244a565b348015610a6757600080fd5b5061052e610a76366004614b56565b61245e565b348015610a8757600080fd5b50610565610a96366004614b06565b612488565b348015610aa757600080fd5b5061052e610ab6366004614b06565b61275a565b348015610ac757600080fd5b506104b9610ad6366004614b06565b6000908152600c60205260409020600b015460ff1690565b348015610afa57600080fd5b506104b9610b09366004614b1f565b6127bb565b348015610b1a57600080fd5b50638b78c6d819546105b2565b348015610b3357600080fd5b50610565610b42366004614b06565b61282a565b348015610b5357600080fd5b5061052e610b62366004614b06565b61294e565b348015610b7357600080fd5b50610b87610b82366004614e93565b61295b565b6040516104c593929190614f8c565b348015610ba257600080fd5b5061052e610bb1366004614fcf565b612af9565b348015610bc257600080fd5b5061052e610bd1366004614b1f565b612b5b565b348015610be257600080fd5b50610565612c07565b348015610bf757600080fd5b50610841610c06366004614b56565b612c16565b348015610c1757600080fd5b506105b2610c26366004614b06565b6018602052600090815260409020546001600160a01b031681565b348015610c4d57600080fd5b5061052e610c5c366004614b06565b612c8c565b348015610c6d57600080fd5b5061052e612cf2565b348015610c8257600080fd5b50610841610c91366004614b06565b612d1b565b348015610ca257600080fd5b506106cb60165481565b348015610cb857600080fd5b506014546105b2906001600160a01b031681565b348015610cd857600080fd5b50610565610ce7366004614b06565b612d3f565b348015610cf857600080fd5b5061052e610d0736600461506b565b612d6f565b348015610d1857600080fd5b50610d2c610d27366004614e93565b612d7e565b6040516104c5929190615097565b348015610d4657600080fd5b506106cb610d55366004614b56565b60196020526000908152604090205481565b348015610d7357600080fd5b506011546105b2906001600160a01b031681565b348015610d9357600080fd5b50610565610da2366004614b06565b612de9565b348015610db357600080fd5b5061052e610dc23660046150c5565b613070565b348015610dd357600080fd5b50610de7610de2366004614b06565b6130a8565b6040516104c59190615130565b348015610e0057600080fd5b506010546105b2906001600160a01b031681565b348015610e2057600080fd5b50610565610e2f366004614b06565b61324e565b348015610e4057600080fd5b5061052e610e4f366004614b06565b61328f565b348015610e6057600080fd5b5061052e610e6f3660046151e8565b6132f3565b348015610e8057600080fd5b50610565610e8f36600461520b565b6133c4565b348015610ea057600080fd5b506104b9610eaf36600461523f565b6001600160a01b03918216600090815260056020908152604080832093909416825291909152205460ff1690565b61052e610eeb366004614b56565b613676565b348015610efc57600080fd5b5061052e610f0b366004614b1f565b6136b3565b348015610f1c57600080fd5b5061052e610f2b366004615278565b61375e565b61052e610f3e366004614b56565b6137ab565b348015610f4f57600080fd5b506105b2610f5e366004614b06565b6000908152601860205260409020546001600160a01b031690565b348015610f8557600080fd5b506106cb610f94366004614b56565b63389a75e1600c908152600091909152602090205490565b6000610fb7826137d2565b92915050565b600080610fc9836122b7565b6000938452601860205260409093205492936001600160a01b0390931692915050565b81610ff6816122b7565b6001600160a01b0316336001600160a01b031614611027576040516324adc17160e11b815260040160405180910390fd5b6110328260046137f7565b61103c83836138f9565b6000838152600c60205260409020600301829055818361105b816122b7565b6001600160a01b0316600080516020615d1183398151915260405161109d906020808252600990820152684163636573736f727960b81b604082015260600190565b60405180910390a4505050565b6110b26139f1565b601780546001600160a01b0319166001600160a01b0392909216919091179055565b6060600080546110e3906152fd565b80601f016020809104026020016040519081016040528092919081815260200182805461110f906152fd565b801561115c5780601f106111315761010080835404028352916020019161115c565b820191906000526020600020905b81548152906001019060200180831161113f57829003601f168201915b5050505050905090565b81611170816122b7565b6001600160a01b0316336001600160a01b0316146111a1576040516324adc17160e11b815260040160405180910390fd5b6000838152600c60205260409020600b01805460ff1916831515179055826111c8816122b7565b6001600160a01b03167f0b42132106437554485bc84e473475fc8313b019bfc026285cf6ed57639803b884604051611204911515815260200190565b60405180910390a3505050565b600061121c82613a0c565b506000908152600460205260409020546001600160a01b031690565b6000611243826122b7565b9050806001600160a01b0316836001600160a01b0316036112b55760405162461bcd60e51b815260206004820152602160248201527f4552433732313a20617070726f76616c20746f2063757272656e74206f776e656044820152603960f91b60648201526084015b60405180910390fd5b336001600160a01b03821614806112d157506112d18133610eaf565b6113435760405162461bcd60e51b815260206004820152603e60248201527f4552433732313a20617070726f76652063616c6c6572206973206e6f7420746f60448201527f6b656e206f776e6572206e6f7220617070726f76656420666f7220616c6c000060648201526084016112ac565b61134d8383613a6b565b505050565b600f6020526000908152604090208054600182018054919291611374906152fd565b80601f01602080910402602001604051908101604052809291908181526020018280546113a0906152fd565b80156113ed5780601f106113c2576101008083540402835291602001916113ed565b820191906000526020600020905b8154815290600101906020018083116113d057829003601f168201915b505050505090806002018054611402906152fd565b80601f016020809104026020016040519081016040528092919081815260200182805461142e906152fd565b801561147b5780601f106114505761010080835404028352916020019161147b565b820191906000526020600020905b81548152906001019060200180831161145e57829003601f168201915b505050505090806003018054611490906152fd565b80601f01602080910402602001604051908101604052809291908181526020018280546114bc906152fd565b80156115095780601f106114de57610100808354040283529160200191611509565b820191906000526020600020905b8154815290600101906020018083116114ec57829003601f168201915b5050505050905084565b8161151d816122b7565b6001600160a01b0316336001600160a01b03161461154e576040516324adc17160e11b815260040160405180910390fd5b6115598260036137f7565b61156383836138f9565b6000838152600c602052604090206002018290558183611582816122b7565b6001600160a01b0316600080516020615d1183398151915260405161109d906020808252600490820152634661636560e01b604082015260600190565b806115c9816122b7565b6001600160a01b0316336001600160a01b0316146115fa576040516324adc17160e11b815260040160405180910390fd5b6000828152600c60205260408082206001019190915551632430b4b960e11b81526004015b604051809103902082611631846122b7565b6001600160a01b03167fe428b1839105819dce5e635ac7e16ed2a43028f6e294bab8655e29acb5dc60bb60405160405180910390a45050565b6060600061167783612d1b565b905060006040518060400160405280601b81526020017f3c7376672076696577426f783d223020302031353020313530223e000000000081525090506000604051806040016040528060068152602001651e17b9bb339f60d11b815250905060606000601060009054906101000a90046001600160a01b03166001600160a01b0316635c1ef2566040518163ffffffff1660e01b8152600401600060405180830381865afa15801561172d573d6000803e3d6000fd5b505050506040513d6000823e601f3d908101601f19168201604052611755919081019061537c565b90506000601c5486511061176b57601c5461176e565b85515b90506040518061054001604052806105058152602001615d3161050591398260405160200161179e9291906153b0565b604051602081830303815290604052925060005b818110156118835760105487516000916001600160a01b03169063c7791531908a90859081106117e4576117e4615407565b60200260200101516040518263ffffffff1660e01b815260040161180a91815260200190565b600060405180830381865afa158015611827573d6000803e3d6000fd5b505050506040513d6000823e601f3d908101601f1916820160405261184f919081019061537c565b905084878288604051602001611868949392919061541d565b60408051601f198184030181529190529450506001016117b2565b50601c54865111156118b6578285856040516020016118a493929190615474565b60405160208183030381529060405292505b826040516020016118c7919061558f565b60408051601f1981840301815291905298975050505050505050565b6118eb6139f1565b601480546001600160a01b0319166001600160a01b0392909216919091179055565b81611917816122b7565b6001600160a01b0316336001600160a01b031614611948576040516324adc17160e11b815260040160405180910390fd5b6119538260016137f7565b61195d83836138f9565b6000838152600c602052604090208290558183611979816122b7565b6001600160a01b0316600080516020615d1183398151915260405161109d906020808252600490820152631219585960e21b604082015260600190565b6119c03382613ad9565b6119dc5760405162461bcd60e51b81526004016112ac906155b7565b61134d838383613b57565b60006202a3006001600160401b03164201905063389a75e1600c5233600052806020600c2055337fdbf36a107da19e49527a7176a1babf963b4b0ff8cde35ee35d6cd8f1f9ac7e1d600080a250565b80611a40816122b7565b6001600160a01b0316336001600160a01b031614611a71576040516324adc17160e11b815260040160405180910390fd5b6000828152600c60205260408082206003019190915551684163636573736f727960b81b815260090161161f565b60608060606000611aaf856130a8565b9050611aba8161295b565b5060105460405163bb12d21d60e01b81529195506001600160a01b0316915063bb12d21d90611aed908490600401615130565b600060405180830381865afa158015611b0a573d6000803e3d6000fd5b505050506040513d6000823e601f3d908101601f19168201604052611b329190810190615605565b50604051909350611b4a91508490849060200161568c565b6040516020818303038152906040529350505050919050565b6000611b6e836123c4565b8210611bd05760405162461bcd60e51b815260206004820152602b60248201527f455243373231456e756d657261626c653a206f776e657220696e646578206f7560448201526a74206f6620626f756e647360a81b60648201526084016112ac565b506001600160a01b03919091166000908152600660209081526040808320938352929052205490565b80611c03816122b7565b6001600160a01b0316336001600160a01b031614611c34576040516324adc17160e11b815260040160405180910390fd5b6000828152600c602052604081208181556001810182905560028101829055600381018290556004810182905560058101829055600681019190915582611c7a816122b7565b6001600160a01b03167f46078a2cd4c69c3b4a27bdc69fdfe03d442ebcf405f1a68e9b5df6bc3e24429760405160405180910390a3505050565b6060806000611cc2846130a8565b9050611ccd8161295b565b5095945050505050565b611cdf6139f1565b601c55565b80611cee816122b7565b6001600160a01b0316336001600160a01b031614611d1f576040516324adc17160e11b815260040160405180910390fd5b6000828152600c60205260408082206004019190915551620546f760ec1b815260030161161f565b61134d83838360405180602001604052806000815250613070565b60606000611d6f836123c4565b90506000816001600160401b03811115611d8b57611d8b614d93565b604051908082528060200260200182016040528015611db4578160200160208202803683370190505b50905060005b82811015611df157611dcc8582611b63565b828281518110611dde57611dde615407565b6020908102919091010152600101611dba565b509392505050565b81611e03816122b7565b6001600160a01b0316336001600160a01b031614611e34576040516324adc17160e11b815260040160405180910390fd5b611e3f8260066137f7565b611e4983836138f9565b6000838152600c602052604090206005018290558183611e68816122b7565b6001600160a01b0316600080516020615d1183398151915260405161109d90602080825260069082015265426f74746f6d60d01b604082015260600190565b87611eb1816122b7565b6001600160a01b0316336001600160a01b031614611ee2576040516324adc17160e11b815260040160405180910390fd5b8715611ef257611ef2898961190d565b8615611f0257611f028988612b5b565b8515611f1257611f128987611513565b8415611f2257611f228986610fec565b8315611f3257611f3289856136b3565b8215611f4257611f428984611df9565b8115611f5257611f528983612186565b88611f5c8a6122b7565b6001600160a01b03167f56680590212b09eb4b72a2eba8801b037ec046dfc754538e924f5bb6a8c4db6c60405160405180910390a3505050505050505050565b611fa46139f1565b601380546001600160a01b0319166001600160a01b0392909216919091179055565b6000611fd160085490565b82106120345760405162461bcd60e51b815260206004820152602c60248201527f455243373231456e756d657261626c653a20676c6f62616c20696e646578206f60448201526b7574206f6620626f756e647360a01b60648201526084016112ac565b6008828154811061204757612047615407565b90600052602060002001549050919050565b63389a75e1600c523360005260006020600c2055337ffa7b8eab7da67f412cc9575ed43464468f9bfbae89d1675917346ca6d8fe3c92600080a2565b601a60205281600052604060002081815481106120b157600080fd5b6000918252602090912001546001600160a01b03169150829050565b806120d7816122b7565b6001600160a01b0316336001600160a01b031614612108576040516324adc17160e11b815260040160405180910390fd5b6000828152600c602052604080822060060191909155516453686f657360d81b815260050161161f565b61213a6139f1565b601280546001600160a01b0319166001600160a01b0392909216919091179055565b6121646139f1565b601080546001600160a01b0319166001600160a01b0392909216919091179055565b81612190816122b7565b6001600160a01b0316336001600160a01b0316146121c1576040516324adc17160e11b815260040160405180910390fd5b6121cc8260076137f7565b6121d683836138f9565b6000838152600c6020526040902060060182905581836121f5816122b7565b6001600160a01b0316600080516020615d1183398151915260405161109d9060208082526005908201526453686f657360d81b604082015260600190565b600081815260186020526040908190205460105491516340d097c360e01b81526001600160a01b03918216600482018190529291909116906340d097c3906024016020604051808303816000875af1158015612293573d6000803e3d6000fd5b505050506040513d601f19601f8201168201806040525081019061134d91906156bb565b6000818152600260205260408120546001600160a01b031680610fb75760405162461bcd60e51b8152602060048201526018602482015277115490cdcc8c4e881a5b9d985b1a59081d1bdad95b88125160421b60448201526064016112ac565b6010546040516331a9108f60e11b815260048101839052600091829182916001600160a01b031690636352211e90602401602060405180830381865afa158015612365573d6000803e3d6000fd5b505050506040513d601f19601f8201168201806040525081019061238991906156d4565b6001600160a01b03811660009081526019602052604090205490935091506123b0826122b7565b929491935050565b6123c181613cfe565b50565b60006001600160a01b03821661242e5760405162461bcd60e51b815260206004820152602960248201527f4552433732313a2061646472657373207a65726f206973206e6f7420612076616044820152683634b21037bbb732b960b91b60648201526084016112ac565b506001600160a01b031660009081526003602052604090205490565b6124526139f1565b61245c6000614060565b565b6124666139f1565b601180546001600160a01b0319166001600160a01b0392909216919091179055565b60608060608060608060608060606124c16040518060800160405280606081526020016060815260200160608152602001600081525090565b60006124cc8c6130a8565b90506124d78161295b565b60105460405163bb12d21d60e01b8152939d50919a5095506001600160a01b03169063bb12d21d9061250d908490600401615130565b600060405180830381865afa15801561252a573d6000803e3d6000fd5b505050506040513d6000823e601f3d908101601f191682016040526125529190810190615605565b604051929b50909850955061256d90859087906020016156f1565b6040516020818303038152906040529250878760405160200161259192919061568c565b60408051601f19818403018152919052610140820151835295506125b48c612d1b565b51606083015261012081015160ff166000908152600f6020526040902060010180546125df906152fd565b80601f016020809104026020016040519081016040528092919081815260200182805461260b906152fd565b80156126585780601f1061262d57610100808354040283529160200191612658565b820191906000526020600020905b81548152906001019060200180831161263b57829003601f168201915b505050505082602001819052506126818c6000908152600c60205260409020600b015460ff1690565b6126a557604051806040016040528060028152602001610c9160f21b8152506126c1565b604051806040016040528060028152602001610cd160f21b8152505b60408084019190915260145490516332d01b2560e21b81526001600160a01b039091169063cb406c9490612705908f908e9089908f908c908e908b906004016157b5565b600060405180830381865afa158015612722573d6000803e3d6000fd5b505050506040513d6000823e601f3d908101601f1916820160405261274a919081019061537c565b9c9b505050505050505050505050565b80612764816122b7565b6001600160a01b0316336001600160a01b031614612795576040516324adc17160e11b815260040160405180910390fd5b6000828152600c60205260408082209190915551631219585960e21b815260040161161f565b6000806127c7846130a8565b80519091508314806127dc5750828160200151145b806127ea5750828160400151145b806127f85750828160600151145b806128065750828160800151145b806128145750828160a00151145b806128225750828160c00151145b949350505050565b6000818152600f602052604081206002018054606092916128d19161284e906152fd565b80601f016020809104026020016040519081016040528092919081815260200182805461287a906152fd565b80156128c75780601f1061289c576101008083540402835291602001916128c7565b820191906000526020600020905b8154815290600101906020018083116128aa57829003601f168201915b50505050506133c4565b6013546040516335b07b7960e11b81529192506001600160a01b031690636b60f6f290612902908490600401614bc3565b600060405180830381865afa15801561291f573d6000803e3d6000fd5b505050506040513d6000823e601f3d908101601f19168201604052612947919081019061537c565b9392505050565b6129566139f1565b601655565b606080606061297184610120015160ff1661282a565b600f600086610120015160ff168152602001908152602001600020600301612a6060405180604001604052806009815260200168426f6479205479706560b81b815250600f600089610120015160ff16815260200190815260200160002060010180546129dd906152fd565b80601f0160208091040260200160405190810160405280929190818152602001828054612a09906152fd565b8015612a565780601f10612a2b57610100808354040283529160200191612a56565b820191906000526020600020905b815481529060010190602001808311612a3957829003601f168201915b505050505061409e565b818054612a6c906152fd565b80601f0160208091040260200160405190810160405280929190818152602001828054612a98906152fd565b8015612ae55780601f10612aba57610100808354040283529160200191612ae5565b820191906000526020600020905b815481529060010190602001808311612ac857829003601f168201915b505050505091509250925092509193909250565b89612b03816122b7565b6001600160a01b0316336001600160a01b031614612b34576040516324adc17160e11b815260040160405180910390fd5b612b448b8b8b8b8b8b8b8b611ea7565b612b4e8b846132f3565b5050505050505050505050565b81612b65816122b7565b6001600160a01b0316336001600160a01b031614612b96576040516324adc17160e11b815260040160405180910390fd5b612ba18260026137f7565b612bab83836138f9565b6000838152600c602052604090206001018290558183612bca816122b7565b6001600160a01b0316600080516020615d1183398151915260405161109d906020808252600490820152632430b4b960e11b604082015260600190565b6060600180546110e3906152fd565b60105460405162438b6360e81b81526001600160a01b03838116600483015260609260009291169063438b630090602401600060405180830381865afa158015612c64573d6000803e3d6000fd5b505050506040513d6000823e601f3d908101601f19168201604052612947919081019061583e565b80612c96816122b7565b6001600160a01b0316336001600160a01b031614612cc7576040516324adc17160e11b815260040160405180910390fd5b6000828152600c6020526040808220600501919091555165426f74746f6d60d01b815260060161161f565b600b5460ff161561245c5760005b60018110156123c157612d1360046123b8565b600101612d00565b6000818152601860205260409020546060906001600160a01b031661294781612c16565b60606000612d4c836130a8565b9050806101600151612d6657612d6183612de9565b612947565b61294783612488565b612d7a3383836140ca565b5050565b606080612d9283610120015160ff1661282a565b612de060405180604001604052806009815260200168426f6479205479706560b81b815250600f600087610120015160ff16815260200190815260200160002060010180546129dd906152fd565b91509150915091565b6060806060806060806000612dfd886130a8565b9050612e0881612d7e565b601054604051631be5857160e31b81529298509096506001600160a01b03169063df2c2b8890612e3c908490600401615130565b600060405180830381865afa158015612e59573d6000803e3d6000fd5b505050506040513d6000823e601f3d908101601f19168201604052612e8191908101906158e3565b9094509250612e8f8861166a565b9150612ebc6040518060800160405280606081526020016060815260200160608152602001600081525090565b6101408201518152612ecd89612d1b565b51606082015261012082015160ff166000908152600f602052604090206001018054612ef8906152fd565b80601f0160208091040260200160405190810160405280929190818152602001828054612f24906152fd565b8015612f715780601f10612f4657610100808354040283529160200191612f71565b820191906000526020600020905b815481529060010190602001808311612f5457829003601f168201915b50505050508160200181905250612f9a896000908152600c60205260409020600b015460ff1690565b612fbe57604051806040016040528060028152602001610c9160f21b815250612fda565b604051806040016040528060028152602001610cd160f21b8152505b6040808301919091526013549051634e2fa37760e11b81526001600160a01b0390911690639c5f46ee9061301e908c908b908b908b908b908b908a906004016157b5565b600060405180830381865afa15801561303b573d6000803e3d6000fd5b505050506040513d6000823e601f3d908101601f19168201604052613063919081019061537c565b9998505050505050505050565b61307a3383613ad9565b6130965760405162461bcd60e51b81526004016112ac906155b7565b6130a284848484614190565b50505050565b61311760405180610180016040528060008152602001600081526020016000815260200160008152602001600081526020016000815260200160008152602001600063ffffffff16815260200160008152602001600060ff168152602001606081526020016000151581525090565b6000828152600c60209081526040808320815161018081018352815481526001820154938101939093526002810154918301919091526003810154606083015260048101546080830152600581015460a0830152600681015460c0830152600781015463ffffffff1660e08301526008810154610100830152600981015460ff16610120830152600a81018054610140840191906131b4906152fd565b80601f01602080910402602001604051908101604052809291908181526020018280546131e0906152fd565b801561322d5780601f106132025761010080835404028352916020019161322d565b820191906000526020600020905b81548152906001019060200180831161321057829003601f168201915b5050509183525050600b919091015460ff1615156020909101529392505050565b6000818152600260205260409020546060906001600160a01b031661328657604051631a65aaab60e31b815260040160405180910390fd5b610fb782612d3f565b80613299816122b7565b6001600160a01b0316336001600160a01b0316146132ca576040516324adc17160e11b815260040160405180910390fd5b6000828152600c60205260408082206002019190915551634661636560e01b815260040161161f565b816132fd816122b7565b6001600160a01b0316336001600160a01b03161461332e576040516324adc17160e11b815260040160405180910390fd5b60038260ff161115613353576040516329ba348d60e11b815260040160405180910390fd5b60ff82161561134d576000838152600c60205260409020600901805460ff191660ff841617905582613384816122b7565b60405160ff851681526001600160a01b0391909116907f454db5768a3f8187a5dd5e9cca100cf699d74d8a03f793d16da3932cdf34d35890602001611204565b805160609080158015906133e057506133de60058261595c565b155b61342c5760405162461bcd60e51b815260206004820152601960248201527f496e76616c696420626f6479206279746573206c656e6774680000000000000060448201526064016112ac565b604080516111948082526111c08201909252600091602082018180368337019050509050600061345d600584615986565b905060005b8181101561366c57600061347782600561599a565b9050600087828151811061348d5761348d615407565b016020015160f81c90506000886134a58460016159b1565b815181106134b5576134b5615407565b016020015160f81c9050600060ff83166134d083601e61599a565b6134da91906159b1565b6134e590600561599a565b90508984815181106134f9576134f9615407565b602001015160f81c60f81b87828151811061351657613516615407565b60200101906001600160f81b031916908160001a90535089846001018151811061354257613542615407565b602001015160f81c60f81b87826001018151811061356257613562615407565b60200101906001600160f81b031916908160001a90535089846002018151811061358e5761358e615407565b602001015160f81c60f81b8782600201815181106135ae576135ae615407565b60200101906001600160f81b031916908160001a9053508984600301815181106135da576135da615407565b602001015160f81c60f81b8782600301815181106135fa576135fa615407565b60200101906001600160f81b031916908160001a90535089846004018151811061362657613626615407565b602001015160f81c60f81b87826004018151811061364657613646615407565b60200101906001600160f81b031916908160001a90535050505050806001019050613462565b5090949350505050565b61367e6139f1565b63389a75e1600c52806000526020600c2080544211156136a657636f5e88186000526004601cfd5b600090556123c181614060565b816136bd816122b7565b6001600160a01b0316336001600160a01b0316146136ee576040516324adc17160e11b815260040160405180910390fd5b6136f98260056137f7565b61370383836138f9565b6000838152600c602052604090206004018290558183613722816122b7565b6001600160a01b0316600080516020615d1183398151915260405161109d906020808252600390820152620546f760ec1b604082015260600190565b6137666139f1565b6000848152600f60205260409020848155600181016137858582615a0c565b50600281016137948482615a0c565b50600381016137a38382615a0c565b505050505050565b6137b36139f1565b8060601b6137c957637448fbae6000526004601cfd5b6123c181614060565b60006001600160e01b0319821663780e9d6360e01b1480610fb75750610fb7826141c3565b60105460405163e8a1268d60e01b8152600481018490526000916001600160a01b03169063e8a1268d90602401602060405180830381865afa158015613841573d6000803e3d6000fd5b505050506040513d601f19601f820116820180604052508101906138659190615acb565b905081600781111561387957613879615aec565b60405160200161388b91815260200190565b604051602081830303815290604052805190602001208160078111156138b3576138b3615aec565b6040516020016138c591815260200190565b604051602081830303815290604052805190602001201461134d57604051633e54c6fb60e11b815260040160405180910390fd5b81613903816122b7565b6001600160a01b0316336001600160a01b031614613934576040516324adc17160e11b815260040160405180910390fd5b6000838152601860205260408082205460105491516331a9108f60e11b8152600481018690526001600160a01b0391821693929190911690636352211e90602401602060405180830381865afa158015613992573d6000803e3d6000fd5b505050506040513d601f19601f820116820180604052508101906139b691906156d4565b9050816001600160a01b0316816001600160a01b0316146139ea5760405163e6ca793160e01b815260040160405180910390fd5b5050505050565b638b78c6d81954331461245c576382b429006000526004601cfd5b6000818152600260205260409020546001600160a01b03166123c15760405162461bcd60e51b8152602060048201526018602482015277115490cdcc8c4e881a5b9d985b1a59081d1bdad95b88125160421b60448201526064016112ac565b600081815260046020526040902080546001600160a01b0319166001600160a01b0384169081179091558190613aa0826122b7565b6001600160a01b03167f8c5be1e5ebec7d5bd14f71427d1e84f3dd0314c0f7b2291e5b200ac8c7c3b92560405160405180910390a45050565b600080613ae5836122b7565b9050806001600160a01b0316846001600160a01b03161480613b2c57506001600160a01b0380821660009081526005602090815260408083209388168352929052205460ff165b806128225750836001600160a01b0316613b4584611211565b6001600160a01b031614949350505050565b826001600160a01b0316613b6a826122b7565b6001600160a01b031614613bce5760405162461bcd60e51b815260206004820152602560248201527f4552433732313a207472616e736665722066726f6d20696e636f72726563742060448201526437bbb732b960d91b60648201526084016112ac565b6001600160a01b038216613c305760405162461bcd60e51b8152602060048201526024808201527f4552433732313a207472616e7366657220746f20746865207a65726f206164646044820152637265737360e01b60648201526084016112ac565b613c3b838383614213565b613c46600082613a6b565b6001600160a01b0383166000908152600360205260408120805460019290613c6f908490615b02565b90915550506001600160a01b0382166000908152600360205260408120805460019290613c9d9084906159b1565b909155505060008181526002602052604080822080546001600160a01b0319166001600160a01b0386811691821790925591518493918716917fddf252ad1be2c89b69c2b068fc378daa952ba7f163c4a11628f55a4df523b3ef91a4505050565b6012546001600160a01b0316613d2757604051633390ca8960e21b815260040160405180910390fd5b6000601560008154613d3890615b15565b91829055509050613d49338261463c565b604051638a54c52f60e01b81527355266d75d1a14e4572138116af39863ed6596e7f600482015260006024820181905262014a34604483015230606483015260848201839052906f6551c19487814612e58fe0681377575890638a54c52f9060a4016020604051808303816000875af1158015613dca573d6000803e3d6000fd5b505050506040513d601f19601f82011682018060405250810190613dee91906156d4565b600083815260186020908152604080832080546001600160a01b0319166001600160a01b038616908117909155808452601990925291829020859055905163189acdbd60e31b81527341c8f39463a868d3a88af00cd0fe7102f30e44ec60048201529192509063c4d66de890602401600060405180830381600087803b158015613e7757600080fd5b505af1158015613e8b573d6000803e3d6000fd5b50506012546040516358a2727360e01b81526001600160a01b03858116600483015260ff881660248301526000945090911691506358a27273906044016000604051808303816000875af1158015613ee7573d6000803e3d6000fd5b505050506040513d6000823e601f3d908101601f19168201604052613f0f919081019061583e565b6000848152600c6020526040812060088101869055825192935091839190613f3957613f39615407565b6020026020010151816006018190555081600181518110613f5c57613f5c615407565b6020026020010151816005018190555081600281518110613f7f57613f7f615407565b6020026020010151816004018190555081600381518110613fa257613fa2615407565b6020908102919091018101516001830155600b8201805460ff19169055604080518083018790528151808203840181529082019091528051910120613fe99060049061595c565b60098201805460ff191660ff929092169190911790556040805180820190915260068152650c110d914e5160d21b6020820152600a82019061402b9082615a0c565b50604051849033907f0f6798a560793a54c3bcfe86a93cde1e73087d944c0ea20544137d412139688590600090a35050505050565b638b78c6d81980546001600160a01b039092169182907f8be0079c531659141344cd1fd0a4f28419497f9722a3daafe3b4186f6b6457e0600080a355565b606082826040516020016140b3929190615b2e565b604051602081830303815290604052905092915050565b816001600160a01b0316836001600160a01b03160361412b5760405162461bcd60e51b815260206004820152601960248201527f4552433732313a20617070726f766520746f2063616c6c65720000000000000060448201526064016112ac565b6001600160a01b03838116600081815260056020908152604080832094871680845294825291829020805460ff191686151590811790915591519182527f17307eab39ab6107e8899845ad3d59bd9653f200f220920489ca2b5937696c319101611204565b61419b848484613b57565b6141a78484848461478a565b6130a25760405162461bcd60e51b81526004016112ac90615b9f565b60006001600160e01b031982166380ac58cd60e01b14806141f457506001600160e01b03198216635b5e139f60e01b145b80610fb757506301ffc9a760e01b6001600160e01b0319831614610fb7565b6001600160a01b03831661422c5761134d83838361488b565b6001600160a01b0382166000908152601960205260409020541561426357604051639a42da2960e01b815260040160405180910390fd5b60008181526018602052604080822054601054915162438b6360e81b81526001600160a01b03918216600482018190529392919091169063438b630090602401600060405180830381865afa1580156142c0573d6000803e3d6000fd5b505050506040513d6000823e601f3d908101601f191682016040526142e8919081019061583e565b601154604051638b32238360e01b8152600481018690529192506000916001600160a01b0390911690638b32238390602401600060405180830381865afa158015614337573d6000803e3d6000fd5b505050506040513d6000823e601f3d908101601f1916820160405261435f9190810190615bf1565b5091935050506001600160a01b0382161590506143a1576011546001600160a01b031633146143a15760405163bf646b0f60e01b815260040160405180910390fd5b60115460405163644ec52760e01b8152600481018690526001600160a01b039091169063644ec52790602401600060405180830381600087803b1580156143e757600080fd5b505af11580156143fb573d6000803e3d6000fd5b5050601154604051631e92beb560e31b8152600481018890526001600160a01b038981166024830152909116925063f495f5a89150604401600060405180830381600087803b15801561444d57600080fd5b505af1158015614461573d6000803e3d6000fd5b5050505060005b825181101561463057600083828151811061448557614485615407565b6020908102919091010151601154604051632e1d274f60e01b8152600481018390529192506001600160a01b031690632e1d274f90602401600060405180830381600087803b1580156144d757600080fd5b505af11580156144eb573d6000803e3d6000fd5b50506010546040516360ffbc5f60e11b815260048101859052600093506001600160a01b03909116915063c1ff78be90602401602060405180830381865afa15801561453b573d6000803e3d6000fd5b505050506040513d601f19601f8201168201806040525081019061455f91906156bb565b9050801561462657601054604051602481018490526001600160a01b03888116926374420f4c9291169060009060440160408051601f198184030181529181526020820180516001600160e01b031663487b1c2160e11b1790525160e085901b6001600160e01b03191681526145dd93929190600190600401615c72565b6000604051808303816000875af11580156145fc573d6000803e3d6000fd5b505050506040513d6000823e601f3d908101601f19168201604052614624919081019061537c565b505b5050600101614468565b506137a386868661488b565b6001600160a01b0382166146925760405162461bcd60e51b815260206004820181905260248201527f4552433732313a206d696e7420746f20746865207a65726f206164647265737360448201526064016112ac565b6000818152600260205260409020546001600160a01b0316156146f75760405162461bcd60e51b815260206004820152601c60248201527f4552433732313a20746f6b656e20616c7265616479206d696e7465640000000060448201526064016112ac565b61470360008383614213565b6001600160a01b038216600090815260036020526040812080546001929061472c9084906159b1565b909155505060008181526002602052604080822080546001600160a01b0319166001600160a01b03861690811790915590518392907fddf252ad1be2c89b69c2b068fc378daa952ba7f163c4a11628f55a4df523b3ef908290a45050565b60006001600160a01b0384163b1561488057604051630a85bd0160e11b81526001600160a01b0385169063150b7a02906147ce903390899088908890600401615caa565b6020604051808303816000875af1925050508015614809575060408051601f3d908101601f1916820190925261480691810190615cdd565b60015b614866573d808015614837576040519150601f19603f3d011682016040523d82523d6000602084013e61483c565b606091505b50805160000361485e5760405162461bcd60e51b81526004016112ac90615b9f565b805181602001fd5b6001600160e01b031916630a85bd0160e11b149050612822565b506001949350505050565b6001600160a01b0383166148e6576148e181600880546000838152600960205260408120829055600182018355919091527ff3f7a9fe364faab93b216da50a3214154f22a0a2b415b23a84c8169e8b636ee30155565b614909565b816001600160a01b0316836001600160a01b031614614909576149098382614943565b6001600160a01b0382166149205761134d816149e0565b826001600160a01b0316826001600160a01b03161461134d5761134d8282614a8f565b60006001614950846123c4565b61495a9190615b02565b6000838152600760205260409020549091508082146149ad576001600160a01b03841660009081526006602090815260408083208584528252808320548484528184208190558352600790915290208190555b5060009182526007602090815260408084208490556001600160a01b039094168352600681528383209183525290812055565b6008546000906149f290600190615b02565b60008381526009602052604081205460088054939450909284908110614a1a57614a1a615407565b906000526020600020015490508060088381548110614a3b57614a3b615407565b6000918252602080832090910192909255828152600990915260408082208490558582528120556008805480614a7357614a73615cfa565b6001900381819060005260206000200160009055905550505050565b6000614a9a836123c4565b6001600160a01b039093166000908152600660209081526040808320868452825280832085905593825260079052919091209190915550565b6001600160e01b0319811681146123c157600080fd5b600060208284031215614afb57600080fd5b813561294781614ad3565b600060208284031215614b1857600080fd5b5035919050565b60008060408385031215614b3257600080fd5b50508035926020909101359150565b6001600160a01b03811681146123c157600080fd5b600060208284031215614b6857600080fd5b813561294781614b41565b60005b83811015614b8e578181015183820152602001614b76565b50506000910152565b60008151808452614baf816020860160208601614b73565b601f01601f19169290920160200192915050565b6020815260006129476020830184614b97565b80358015158114614be657600080fd5b919050565b60008060408385031215614bfe57600080fd5b82359150614c0e60208401614bd6565b90509250929050565b60008060408385031215614c2a57600080fd5b8235614c3581614b41565b946020939093013593505050565b848152608060208201526000614c5c6080830186614b97565b8281036040840152614c6e8186614b97565b90508281036060840152614c828185614b97565b979650505050505050565b600080600060608486031215614ca257600080fd5b8335614cad81614b41565b92506020840135614cbd81614b41565b929592945050506040919091013590565b6020808252825182820181905260009190848201906040850190845b81811015614d0657835183529284019291840191600101614cea565b50909695505050505050565b600080600080600080600080610100898b031215614d2f57600080fd5b505086359860208801359850604088013597606081013597506080810135965060a0810135955060c0810135945060e0013592509050565b803560ff81168114614be657600080fd5b600060208284031215614d8a57600080fd5b61294782614d67565b634e487b7160e01b600052604160045260246000fd5b60405161018081016001600160401b0381118282101715614dcc57614dcc614d93565b60405290565b604051601f8201601f191681016001600160401b0381118282101715614dfa57614dfa614d93565b604052919050565b803563ffffffff81168114614be657600080fd5b60006001600160401b03821115614e2f57614e2f614d93565b50601f01601f191660200190565b600082601f830112614e4e57600080fd5b8135614e61614e5c82614e16565b614dd2565b818152846020838601011115614e7657600080fd5b816020850160208301376000918101602001919091529392505050565b600060208284031215614ea557600080fd5b81356001600160401b0380821115614ebc57600080fd5b908301906101808286031215614ed157600080fd5b614ed9614da9565b823581526020830135602082015260408301356040820152606083013560608201526080830135608082015260a083013560a082015260c083013560c0820152614f2560e08401614e02565b60e08201526101008381013590820152610120614f43818501614d67565b908201526101408381013583811115614f5b57600080fd5b614f6788828701614e3d565b8284015250506101609150614f7d828401614bd6565b91810191909152949350505050565b606081526000614f9f6060830186614b97565b8281036020840152614fb18186614b97565b90508281036040840152614fc58185614b97565b9695505050505050565b6000806000806000806000806000806101408b8d031215614fef57600080fd5b8a35995060208b0135985060408b0135975060608b0135965060808b0135955060a08b0135945060c08b0135935060e08b013592506150316101008c01614d67565b91506101208b01356001600160401b0381111561504d57600080fd5b6150598d828e01614e3d565b9150509295989b9194979a5092959850565b6000806040838503121561507e57600080fd5b823561508981614b41565b9150614c0e60208401614bd6565b6040815260006150aa6040830185614b97565b82810360208401526150bc8185614b97565b95945050505050565b600080600080608085870312156150db57600080fd5b84356150e681614b41565b935060208501356150f681614b41565b92506040850135915060608501356001600160401b0381111561511857600080fd5b61512487828801614e3d565b91505092959194509250565b6020815281516020820152602082015160408201526040820151606082015260608201516080820152608082015160a082015260a082015160c082015260c082015160e0820152600060e08301516101006151928185018363ffffffff169052565b8401516101208481019190915284015190506101406151b58185018360ff169052565b8085015191505061018061016081818601526151d56101a0860184614b97565b908601518015158387015290925061366c565b600080604083850312156151fb57600080fd5b82359150614c0e60208401614d67565b60006020828403121561521d57600080fd5b81356001600160401b0381111561523357600080fd5b61282284828501614e3d565b6000806040838503121561525257600080fd5b823561525d81614b41565b9150602083013561526d81614b41565b809150509250929050565b6000806000806080858703121561528e57600080fd5b8435935060208501356001600160401b03808211156152ac57600080fd5b6152b888838901614e3d565b945060408701359150808211156152ce57600080fd5b6152da88838901614e3d565b935060608701359150808211156152f057600080fd5b5061512487828801614e3d565b600181811c9082168061531157607f821691505b60208210810361533157634e487b7160e01b600052602260045260246000fd5b50919050565b600082601f83011261534857600080fd5b8151615356614e5c82614e16565b81815284602083860101111561536b57600080fd5b612822826020830160208701614b73565b60006020828403121561538e57600080fd5b81516001600160401b038111156153a457600080fd5b61282284828501615337565b600083516153c2818460208801614b73565b8351908301906153d6818360208801614b73565b7f3c672069643d226261636b7061636b547261697473223e0000000000000000009101908152601701949350505050565b634e487b7160e01b600052603260045260246000fd5b6000855161542f818460208a01614b73565b855190830190615443818360208a01614b73565b8551910190615456818360208901614b73565b8451910190615469818360208801614b73565b019695505050505050565b60008451615486818460208901614b73565b84519083019061549a818360208901614b73565b8082019150507f3c672069643d224d6f7265547261697473223e3c72656374207374796c653d2281527f77696474683a313070783b206865696768743a3270783b2220783d223130222060208201527f793d223136222066696c6c3d2223666666666666223e3c2f726563743e3c726560408201527f6374207374796c653d226865696768743a313070783b2077696474683a32707860608201527f3b2220783d2231342220793d223132222066696c6c3d2223666666666666223e60808201526a1e17b932b1ba1f1e17b39f60a91b60a082015283516155828160ab840160208801614b73565b0160ab0195945050505050565b600082516155a1818460208701614b73565b631e17b39f60e11b920191825250600401919050565b6020808252602e908201527f4552433732313a2063616c6c6572206973206e6f7420746f6b656e206f776e6560408201526d1c881b9bdc88185c1c1c9bdd995960921b606082015260800190565b60008060006060848603121561561a57600080fd5b83516001600160401b038082111561563157600080fd5b61563d87838801615337565b9450602086015191508082111561565357600080fd5b61565f87838801615337565b9350604086015191508082111561567557600080fd5b5061568286828701615337565b9150509250925092565b6000835161569e818460208801614b73565b8351908301906156b2818360208801614b73565b01949350505050565b6000602082840312156156cd57600080fd5b5051919050565b6000602082840312156156e657600080fd5b815161294781614b41565b6d2261747472696275746573223a5b60901b8152825160009061571b81600e850160208801614b73565b600b60fa1b600e91840191820152835161573c81600f840160208801614b73565b605d60f81b600f9290910191820152601001949350505050565b600081516080845261576b6080850182614b97565b9050602083015184820360208601526157848282614b97565b9150506040830151848203604086015261579e8282614b97565b915050606083015160608501528091505092915050565b87815260e0602082015260006157ce60e0830189614b97565b82810360408401526157e08189614b97565b905082810360608401526157f48188614b97565b905082810360808401526158088187614b97565b905082810360a084015261581c8186614b97565b905082810360c08401526158308185615756565b9a9950505050505050505050565b6000602080838503121561585157600080fd5b82516001600160401b038082111561586857600080fd5b818501915085601f83011261587c57600080fd5b81518181111561588e5761588e614d93565b8060051b915061589f848301614dd2565b81815291830184019184810190888411156158b957600080fd5b938501935b838510156158d7578451825293850193908501906158be565b98975050505050505050565b600080604083850312156158f657600080fd5b82516001600160401b038082111561590d57600080fd5b61591986838701615337565b9350602085015191508082111561592f57600080fd5b5061593c85828601615337565b9150509250929050565b634e487b7160e01b600052601260045260246000fd5b60008261596b5761596b615946565b500690565b634e487b7160e01b600052601160045260246000fd5b60008261599557615995615946565b500490565b8082028115828204841417610fb757610fb7615970565b80820180821115610fb757610fb7615970565b601f82111561134d576000816000526020600020601f850160051c810160208610156159ed5750805b601f850160051c820191505b818110156137a3578281556001016159f9565b81516001600160401b03811115615a2557615a25614d93565b615a3981615a3384546152fd565b846159c4565b602080601f831160018114615a6e5760008415615a565750858301515b600019600386901b1c1916600185901b1785556137a3565b600085815260208120601f198616915b82811015615a9d57888601518255948401946001909101908401615a7e565b5085821015615abb5787850151600019600388901b60f8161c191681555b5050505050600190811b01905550565b600060208284031215615add57600080fd5b81516008811061294757600080fd5b634e487b7160e01b600052602160045260246000fd5b81810381811115610fb757610fb7615970565b600060018201615b2757615b27615970565b5060010190565b6e3d913a3930b4ba2fba3cb832911d1160891b81528251600090615b5981600f850160208801614b73565b6a1116113b30b63ab2911d1160a91b600f918401918201528351615b8481601a840160208801614b73565b61227d60f01b601a9290910191820152601c01949350505050565b60208082526032908201527f4552433732313a207472616e7366657220746f206e6f6e20455243373231526560408201527131b2b4bb32b91034b6b83632b6b2b73a32b960711b606082015260800190565b600080600080600060a08688031215615c0957600080fd5b855194506020860151615c1b81614b41565b6040870151909450615c2c81614b41565b6060870151909350615c3d81614b41565b60808701519092506001600160401b03811115615c5957600080fd5b615c6588828901615337565b9150509295509295909350565b60018060a01b0385168152836020820152608060408201526000615c996080830185614b97565b905082606083015295945050505050565b6001600160a01b0385811682528416602082015260408101839052608060608201819052600090614fc590830184614b97565b600060208284031215615cef57600080fd5b815161294781614ad3565b634e487b7160e01b600052603160045260246000fdfe8aea9baa1ab7209ce94784ac5f5149343f8d985fd4278de25a7b390989f2cf853c672069643d22416c6c20547261697473223e3c672069643d226261636b7061636b2220636c6173733d22636c6f736564223e3c7061746820643d224d302030204c33302030204c3330203330204c30203330205a222066696c6c3d227267622831322c203130392c203135372922202f3e3c7376672069643d226261636b7061636b5549222076696577426f783d223020302031323020313230223e203c7374796c653e2e75697b77696474683a3170783b206865696768743a203170783b2066696c6c3a77686974657d3c2f7374796c653e203c672069643d22636c6f736542746e22207472616e73666f726d3d227472616e736c61746528322c3229223e203c7265637420783d22312220793d22312220636c6173733d227569223e3c2f726563743e203c7265637420783d22322220793d22322220636c6173733d227569223e3c2f726563743e203c7265637420783d22332220793d22332220636c6173733d227569223e3c2f726563743e203c7265637420783d22342220793d22342220636c6173733d227569223e3c2f726563743e203c7265637420783d22352220793d22352220636c6173733d227569223e3c2f726563743e203c7265637420783d22352220793d22312220636c6173733d227569223e3c2f726563743e203c7265637420783d22342220793d22322220636c6173733d227569223e3c2f726563743e203c212d2d203c7265637420783d22332220793d2233222077696474683d223122206865696768743d2231222066696c6c3d227768697465223e3c2f726563743e202d2d3e203c7265637420783d22322220793d22342220636c6173733d227569223e3c2f726563743e203c7265637420783d22312220793d22352220636c6173733d227569223e3c2f726563743e203c2f673e203c672069643d226c65667442746e2220636c6173733d22627574746f6e22207472616e73666f726d3d227472616e736c6174652834352c31313029223e203c7061746820643d224d302030204c362030204c362036204c302036205a222066696c6c3d227472616e73706172656e7422202f3e203c7265637420783d22322220793d22302220636c6173733d227569223e3c2f726563743e203c7265637420783d22312220793d22312220636c6173733d227569223e3c2f726563743e203c7265637420783d22302220793d22322220636c6173733d227569223e3c2f726563743e203c7265637420783d22312220793d22332220636c6173733d227569223e3c2f726563743e203c7265637420783d22322220793d22342220636c6173733d227569223e3c2f726563743e203c2f673e203c672069643d22726967687442746e2220636c6173733d22627574746f6e22207472616e73666f726d3d227472616e736c6174652836352c31313029223e203c7061746820643d224d302030204c362030204c362036204c302036205a222066696c6c3d227472616e73706172656e7422202f3e203c7265637420783d22332220793d22302220636c6173733d227569223e3c2f726563743e203c7265637420783d22342220793d22312220636c6173733d227569223e3c2f726563743e203c7265637420783d22352220793d22322220636c6173733d227569223e3c2f726563743e203c7265637420783d22342220793d22332220636c6173733d227569223e3c2f726563743e203c7265637420783d22332220793d22342220636c6173733d227569223e3c2f726563743e203c2f673e203c2f7376673e20a26469706673582212209b132fc88f0154ffdd7fce398661c62310e6cc581491044b053036bdfb4da71964736f6c63430008160033","linkReferences":{}},"methodIdentifiers":{"_debugPostConstructorMint()":"9c7be2f1","addNewBody(uint256,string,bytes,bytes)":"f2361e23","approve(address,uint256)":"095ea7b3","balanceOf(address)":"70a08231","bodyIndexToMetadata(uint256)":"0c83f9d7","buyTrait(uint256)":"6273ca2c","cancelOwnershipHandover()":"54d1f13d","checkIfTraitIsEquipped(uint256,uint256)":"8aa1e4c8","chonkIdToApprovedOperators(uint256,uint256)":"55737f35","completeOwnershipHandover(address)":"f04e283e","equipAccessory(uint256,uint256)":"0447a45e","equipAll(uint256,uint256,uint256,uint256,uint256,uint256,uint256,uint256)":"4a4333a3","equipBottom(uint256,uint256)":"45a10d0f","equipFace(uint256,uint256)":"0f162320","equipHair(uint256,uint256)":"94cbd9c4","equipHead(uint256,uint256)":"1e162a33","equipShoes(uint256,uint256)":"60b77b23","equipTop(uint256,uint256)":"f18dc22d","firstSeasonRenderMinter()":"13ea0ae3","getApproved(uint256)":"081812fc","getBackpackSVGs(uint256)":"14fe8ff4","getBodyImage(bytes)":"e37db3c2","getBodyImageSvg(uint256)":"916c546b","getBodySVGZmapsAndMetadata((uint256,uint256,uint256,uint256,uint256,uint256,uint256,uint32,uint256,uint8,string,bool))":"92012f08","getBodySvgAndMetadata((uint256,uint256,uint256,uint256,uint256,uint256,uint256,uint32,uint256,uint8,string,bool))":"a23830ae","getBodyZMap(uint256)":"306c7334","getFullPictureForTrait(uint256)":"66704349","getOwnerAndTBAAddressForChonkId(uint256)":"04003bd0","getPeter(uint256)":"be928ff6","getPeterZMap(uint256)":"2bd1ca45","getTBAAddressForChonkId(uint256)":"f6a0c932","getTokenRenderZ(uint256)":"8200ea51","getTraitTokens(address)":"998cfb6e","getTraitsForChonkId(uint256)":"9f6e4637","isApprovedForAll(address,address)":"e985e9c5","mainRenderer()":"66b89b5a","marketplace()":"abc8c7af","mint(uint8)":"6ecd2306","name()":"06fdde03","owner()":"8da5cb5b","ownerOf(uint256)":"6352211e","ownershipHandoverExpiresAt(address)":"fee81cf4","peterMakeover(uint256,uint256,uint256,uint256,uint256,uint256,uint256,uint256,uint8,string)":"93ccba72","price()":"a035b1fe","renderAsDataUri(uint256)":"a1d62680","renderAsDataUriSVG(uint256)":"b28fbe40","renderAsDataUriZ(uint256)":"7557f2dc","renounceOwnership()":"715018a6","requestOwnershipHandover()":"25692962","safeTransferFrom(address,address,uint256)":"42842e0e","safeTransferFrom(address,address,uint256,bytes)":"b88d4fde","setApprovalForAll(address,bool)":"a22cb465","setBodyIndex(uint256,uint8)":"e1405540","setFirstSeasonRenderMinter(address)":"58a97640","setMainRenderer(address)":"4ddb3961","setMarketplace(address)":"73ad6c2d","setMaxTraitsToOutput(uint256)":"33d3d9bf","setPrice(uint256)":"91b7f5ed","setSystemAddress(address)":"06210197","setTokenRenderZ(uint256,bool)":"07f4e045","setTraitsContract(address)":"5eabd84a","setZRenderer(address)":"172b054d","supportsInterface(bytes4)":"01ffc9a7","symbol()":"95d89b41","tbaAddressToTokenId(address)":"a4bf9a00","tokenByIndex(uint256)":"4f6ccce7","tokenIdToTBAAccountAddress(uint256)":"9c05d68d","tokenOfOwnerByIndex(address,uint256)":"2f745c59","tokenURI(uint256)":"c87b56dd","totalSupply()":"18160ddd","traitsContract()":"c093afdb","transferFrom(address,address,uint256)":"23b872dd","transferOwnership(address)":"f2fde38b","unequipAccessory(uint256)":"293ed3f7","unequipAll(uint256)":"3044825b","unequipBottom(uint256)":"9c762015","unequipFace(uint256)":"d5b55c8b","unequipHair(uint256)":"105338e0","unequipHead(uint256)":"7afe8d34","unequipShoes(uint256)":"58180d35","unequipTop(uint256)":"347bd8f4","walletOfOwner(address)":"438b6300","zRenderer()":"a15c561b"},"id":45}