{"abi":[{"type":"constructor","inputs":[{"name":"localDeploy_","type":"bool","internalType":"bool"}],"stateMutability":"nonpayable"},{"type":"function","name":"MAX_TRAITS_TO_OUTPUT","inputs":[],"outputs":[{"name":"","type":"uint256","internalType":"uint256"}],"stateMutability":"view"},{"type":"function","name":"_debugPostConstructorMint","inputs":[],"outputs":[],"stateMutability":"nonpayable"},{"type":"function","name":"addNewBody","inputs":[{"name":"_bodyIndex","type":"uint256","internalType":"uint256"},{"name":"_bodyName","type":"string","internalType":"string"},{"name":"_colorMap","type":"bytes","internalType":"bytes"},{"name":"_zMap","type":"bytes","internalType":"bytes"}],"outputs":[],"stateMutability":"nonpayable"},{"type":"function","name":"approve","inputs":[{"name":"to","type":"address","internalType":"address"},{"name":"tokenId","type":"uint256","internalType":"uint256"}],"outputs":[],"stateMutability":"nonpayable"},{"type":"function","name":"balanceOf","inputs":[{"name":"owner","type":"address","internalType":"address"}],"outputs":[{"name":"","type":"uint256","internalType":"uint256"}],"stateMutability":"view"},{"type":"function","name":"bodyIndexToMetadata","inputs":[{"name":"","type":"uint256","internalType":"uint256"}],"outputs":[{"name":"bodyIndex","type":"uint256","internalType":"uint256"},{"name":"bodyName","type":"string","internalType":"string"},{"name":"colorMap","type":"bytes","internalType":"bytes"},{"name":"zMap","type":"bytes","internalType":"bytes"}],"stateMutability":"view"},{"type":"function","name":"buyTrait","inputs":[{"name":"_tokenId","type":"uint256","internalType":"uint256"}],"outputs":[],"stateMutability":"nonpayable"},{"type":"function","name":"cancelOwnershipHandover","inputs":[],"outputs":[],"stateMutability":"payable"},{"type":"function","name":"completeOwnershipHandover","inputs":[{"name":"pendingOwner","type":"address","internalType":"address"}],"outputs":[],"stateMutability":"payable"},{"type":"function","name":"equipAll","inputs":[{"name":"_peterTokenId","type":"uint256","internalType":"uint256"},{"name":"_hatTokenId","type":"uint256","internalType":"uint256"},{"name":"_hairTokenId","type":"uint256","internalType":"uint256"},{"name":"_glassesTokenId","type":"uint256","internalType":"uint256"},{"name":"_handheldTokenId","type":"uint256","internalType":"uint256"},{"name":"_shirtTokenId","type":"uint256","internalType":"uint256"},{"name":"_pantsTokenId","type":"uint256","internalType":"uint256"},{"name":"_shoesTokenId","type":"uint256","internalType":"uint256"}],"outputs":[],"stateMutability":"nonpayable"},{"type":"function","name":"equipGlasses","inputs":[{"name":"_peterTokenId","type":"uint256","internalType":"uint256"},{"name":"_traitTokenId","type":"uint256","internalType":"uint256"}],"outputs":[],"stateMutability":"nonpayable"},{"type":"function","name":"equipHair","inputs":[{"name":"_peterTokenId","type":"uint256","internalType":"uint256"},{"name":"_traitTokenId","type":"uint256","internalType":"uint256"}],"outputs":[],"stateMutability":"nonpayable"},{"type":"function","name":"equipHandheld","inputs":[{"name":"_peterTokenId","type":"uint256","internalType":"uint256"},{"name":"_traitTokenId","type":"uint256","internalType":"uint256"}],"outputs":[],"stateMutability":"nonpayable"},{"type":"function","name":"equipHat","inputs":[{"name":"_peterTokenId","type":"uint256","internalType":"uint256"},{"name":"_traitTokenId","type":"uint256","internalType":"uint256"}],"outputs":[],"stateMutability":"nonpayable"},{"type":"function","name":"equipPants","inputs":[{"name":"_peterTokenId","type":"uint256","internalType":"uint256"},{"name":"_traitTokenId","type":"uint256","internalType":"uint256"}],"outputs":[],"stateMutability":"nonpayable"},{"type":"function","name":"equipShirt","inputs":[{"name":"_peterTokenId","type":"uint256","internalType":"uint256"},{"name":"_traitTokenId","type":"uint256","internalType":"uint256"}],"outputs":[],"stateMutability":"nonpayable"},{"type":"function","name":"equipShoes","inputs":[{"name":"_peterTokenId","type":"uint256","internalType":"uint256"},{"name":"_traitTokenId","type":"uint256","internalType":"uint256"}],"outputs":[],"stateMutability":"nonpayable"},{"type":"function","name":"firstSeasonRenderMinter","inputs":[],"outputs":[{"name":"","type":"address","internalType":"contract FirstSeasonRenderMinter"}],"stateMutability":"view"},{"type":"function","name":"getApproved","inputs":[{"name":"tokenId","type":"uint256","internalType":"uint256"}],"outputs":[{"name":"","type":"address","internalType":"address"}],"stateMutability":"view"},{"type":"function","name":"getBackpackSVGs","inputs":[{"name":"_tokenId","type":"uint256","internalType":"uint256"}],"outputs":[{"name":"backpackSVGs","type":"string","internalType":"string"}],"stateMutability":"view"},{"type":"function","name":"getBodyImage","inputs":[{"name":"colorMap","type":"bytes","internalType":"bytes"}],"outputs":[{"name":"","type":"bytes","internalType":"bytes"}],"stateMutability":"pure"},{"type":"function","name":"getBodyImageSvg","inputs":[{"name":"_index","type":"uint256","internalType":"uint256"}],"outputs":[{"name":"svg","type":"string","internalType":"string"}],"stateMutability":"view"},{"type":"function","name":"getBodySVGZmapsAndMetadata","inputs":[{"name":"storedPeter","type":"tuple","internalType":"struct IPeterStorage.StoredPeter","components":[{"name":"hatId","type":"uint256","internalType":"uint256"},{"name":"hairId","type":"uint256","internalType":"uint256"},{"name":"glassesId","type":"uint256","internalType":"uint256"},{"name":"handheldId","type":"uint256","internalType":"uint256"},{"name":"shirtId","type":"uint256","internalType":"uint256"},{"name":"pantsId","type":"uint256","internalType":"uint256"},{"name":"shoesId","type":"uint256","internalType":"uint256"},{"name":"epoch","type":"uint32","internalType":"uint32"},{"name":"tokenId","type":"uint16","internalType":"uint16"},{"name":"bodyIndex","type":"uint256","internalType":"uint256"},{"name":"isRevealed","type":"bool","internalType":"bool"},{"name":"seed","type":"uint256","internalType":"uint256"},{"name":"backgroundColor","type":"string","internalType":"string"},{"name":"renderZ","type":"bool","internalType":"bool"}]}],"outputs":[{"name":"","type":"string","internalType":"string"},{"name":"","type":"bytes","internalType":"bytes"},{"name":"","type":"string","internalType":"string"}],"stateMutability":"view"},{"type":"function","name":"getBodySvgAndMetadata","inputs":[{"name":"storedPeter","type":"tuple","internalType":"struct IPeterStorage.StoredPeter","components":[{"name":"hatId","type":"uint256","internalType":"uint256"},{"name":"hairId","type":"uint256","internalType":"uint256"},{"name":"glassesId","type":"uint256","internalType":"uint256"},{"name":"handheldId","type":"uint256","internalType":"uint256"},{"name":"shirtId","type":"uint256","internalType":"uint256"},{"name":"pantsId","type":"uint256","internalType":"uint256"},{"name":"shoesId","type":"uint256","internalType":"uint256"},{"name":"epoch","type":"uint32","internalType":"uint32"},{"name":"tokenId","type":"uint16","internalType":"uint16"},{"name":"bodyIndex","type":"uint256","internalType":"uint256"},{"name":"isRevealed","type":"bool","internalType":"bool"},{"name":"seed","type":"uint256","internalType":"uint256"},{"name":"backgroundColor","type":"string","internalType":"string"},{"name":"renderZ","type":"bool","internalType":"bool"}]}],"outputs":[{"name":"","type":"string","internalType":"string"},{"name":"","type":"string","internalType":"string"}],"stateMutability":"view"},{"type":"function","name":"getBodyZMap","inputs":[{"name":"_tokenId","type":"uint256","internalType":"uint256"}],"outputs":[{"name":"","type":"string","internalType":"string"}],"stateMutability":"view"},{"type":"function","name":"getEpoch","inputs":[],"outputs":[{"name":"","type":"uint256","internalType":"uint256"}],"stateMutability":"view"},{"type":"function","name":"getEpochData","inputs":[{"name":"index","type":"uint256","internalType":"uint256"}],"outputs":[{"name":"","type":"tuple","internalType":"struct CommitReveal.Epoch","components":[{"name":"randomness","type":"uint128","internalType":"uint128"},{"name":"revealBlock","type":"uint64","internalType":"uint64"},{"name":"committed","type":"bool","internalType":"bool"},{"name":"revealed","type":"bool","internalType":"bool"}]}],"stateMutability":"view"},{"type":"function","name":"getOwnerAndTBAAddressForTokenId","inputs":[{"name":"_tokenId","type":"uint256","internalType":"uint256"}],"outputs":[{"name":"owner","type":"address","internalType":"address"},{"name":"tbaAddress","type":"address","internalType":"address"}],"stateMutability":"view"},{"type":"function","name":"getPeter","inputs":[{"name":"_tokenId","type":"uint256","internalType":"uint256"}],"outputs":[{"name":"","type":"tuple","internalType":"struct IPeterStorage.StoredPeter","components":[{"name":"hatId","type":"uint256","internalType":"uint256"},{"name":"hairId","type":"uint256","internalType":"uint256"},{"name":"glassesId","type":"uint256","internalType":"uint256"},{"name":"handheldId","type":"uint256","internalType":"uint256"},{"name":"shirtId","type":"uint256","internalType":"uint256"},{"name":"pantsId","type":"uint256","internalType":"uint256"},{"name":"shoesId","type":"uint256","internalType":"uint256"},{"name":"epoch","type":"uint32","internalType":"uint32"},{"name":"tokenId","type":"uint16","internalType":"uint16"},{"name":"bodyIndex","type":"uint256","internalType":"uint256"},{"name":"isRevealed","type":"bool","internalType":"bool"},{"name":"seed","type":"uint256","internalType":"uint256"},{"name":"backgroundColor","type":"string","internalType":"string"},{"name":"renderZ","type":"bool","internalType":"bool"}]}],"stateMutability":"view"},{"type":"function","name":"getPeterZMap","inputs":[{"name":"_tokenId","type":"uint256","internalType":"uint256"}],"outputs":[{"name":"","type":"string","internalType":"string"}],"stateMutability":"view"},{"type":"function","name":"getTraitTokens","inputs":[{"name":"_tbaAddress","type":"address","internalType":"address"}],"outputs":[{"name":"","type":"uint256[]","internalType":"uint256[]"}],"stateMutability":"view"},{"type":"function","name":"isApprovedForAll","inputs":[{"name":"owner","type":"address","internalType":"address"},{"name":"operator","type":"address","internalType":"address"}],"outputs":[{"name":"","type":"bool","internalType":"bool"}],"stateMutability":"view"},{"type":"function","name":"mainRenderer","inputs":[],"outputs":[{"name":"","type":"address","internalType":"contract MainRenderer"}],"stateMutability":"view"},{"type":"function","name":"mint","inputs":[],"outputs":[],"stateMutability":"payable"},{"type":"function","name":"name","inputs":[],"outputs":[{"name":"","type":"string","internalType":"string"}],"stateMutability":"view"},{"type":"function","name":"owner","inputs":[],"outputs":[{"name":"result","type":"address","internalType":"address"}],"stateMutability":"view"},{"type":"function","name":"ownerOf","inputs":[{"name":"tokenId","type":"uint256","internalType":"uint256"}],"outputs":[{"name":"","type":"address","internalType":"address"}],"stateMutability":"view"},{"type":"function","name":"ownershipHandoverExpiresAt","inputs":[{"name":"pendingOwner","type":"address","internalType":"address"}],"outputs":[{"name":"result","type":"uint256","internalType":"uint256"}],"stateMutability":"view"},{"type":"function","name":"price","inputs":[],"outputs":[{"name":"","type":"uint256","internalType":"uint256"}],"stateMutability":"view"},{"type":"function","name":"renderAsDataUri","inputs":[{"name":"_tokenId","type":"uint256","internalType":"uint256"}],"outputs":[{"name":"","type":"string","internalType":"string"}],"stateMutability":"view"},{"type":"function","name":"renderAsDataUriSVG","inputs":[{"name":"_tokenId","type":"uint256","internalType":"uint256"}],"outputs":[{"name":"","type":"string","internalType":"string"}],"stateMutability":"view"},{"type":"function","name":"renderAsDataUriZ","inputs":[{"name":"_tokenId","type":"uint256","internalType":"uint256"}],"outputs":[{"name":"","type":"string","internalType":"string"}],"stateMutability":"view"},{"type":"function","name":"renounceOwnership","inputs":[],"outputs":[],"stateMutability":"payable"},{"type":"function","name":"requestOwnershipHandover","inputs":[],"outputs":[],"stateMutability":"payable"},{"type":"function","name":"resolveEpochIfNecessary","inputs":[],"outputs":[],"stateMutability":"nonpayable"},{"type":"function","name":"safeTransferFrom","inputs":[{"name":"from","type":"address","internalType":"address"},{"name":"to","type":"address","internalType":"address"},{"name":"tokenId","type":"uint256","internalType":"uint256"}],"outputs":[],"stateMutability":"nonpayable"},{"type":"function","name":"safeTransferFrom","inputs":[{"name":"from","type":"address","internalType":"address"},{"name":"to","type":"address","internalType":"address"},{"name":"tokenId","type":"uint256","internalType":"uint256"},{"name":"data","type":"bytes","internalType":"bytes"}],"outputs":[],"stateMutability":"nonpayable"},{"type":"function","name":"setApprovalForAll","inputs":[{"name":"operator","type":"address","internalType":"address"},{"name":"approved","type":"bool","internalType":"bool"}],"outputs":[],"stateMutability":"nonpayable"},{"type":"function","name":"setBackgroundColor","inputs":[{"name":"_peterTokenId","type":"uint256","internalType":"uint256"},{"name":"_color","type":"string","internalType":"string"}],"outputs":[],"stateMutability":"nonpayable"},{"type":"function","name":"setBodyIndex","inputs":[{"name":"_peterTokenId","type":"uint256","internalType":"uint256"},{"name":"_bodyIndex","type":"uint256","internalType":"uint256"}],"outputs":[],"stateMutability":"nonpayable"},{"type":"function","name":"setFirstSeasonRenderMinter","inputs":[{"name":"_dataContract","type":"address","internalType":"address"}],"outputs":[],"stateMutability":"nonpayable"},{"type":"function","name":"setMainRenderer","inputs":[{"name":"_mainRenderer","type":"address","internalType":"address"}],"outputs":[],"stateMutability":"nonpayable"},{"type":"function","name":"setMaxTraitsToOutput","inputs":[{"name":"_maxTraitsToOutput","type":"uint256","internalType":"uint256"}],"outputs":[],"stateMutability":"nonpayable"},{"type":"function","name":"setPrice","inputs":[{"name":"_priceInWei","type":"uint256","internalType":"uint256"}],"outputs":[],"stateMutability":"nonpayable"},{"type":"function","name":"setRenderZ","inputs":[{"name":"_peterTokenId","type":"uint256","internalType":"uint256"},{"name":"_renderZ","type":"bool","internalType":"bool"}],"outputs":[],"stateMutability":"nonpayable"},{"type":"function","name":"setTraitsContract","inputs":[{"name":"_address","type":"address","internalType":"contract PeterTraits"}],"outputs":[],"stateMutability":"nonpayable"},{"type":"function","name":"setZRenderer","inputs":[{"name":"_zRenderer","type":"address","internalType":"address"}],"outputs":[],"stateMutability":"nonpayable"},{"type":"function","name":"supportsInterface","inputs":[{"name":"interfaceId","type":"bytes4","internalType":"bytes4"}],"outputs":[{"name":"","type":"bool","internalType":"bool"}],"stateMutability":"view"},{"type":"function","name":"symbol","inputs":[],"outputs":[{"name":"","type":"string","internalType":"string"}],"stateMutability":"view"},{"type":"function","name":"tokenByIndex","inputs":[{"name":"index","type":"uint256","internalType":"uint256"}],"outputs":[{"name":"","type":"uint256","internalType":"uint256"}],"stateMutability":"view"},{"type":"function","name":"tokenIdToTBAAccountAddress","inputs":[{"name":"","type":"uint256","internalType":"uint256"}],"outputs":[{"name":"","type":"uint160","internalType":"uint160"}],"stateMutability":"view"},{"type":"function","name":"tokenOfOwnerByIndex","inputs":[{"name":"owner","type":"address","internalType":"address"},{"name":"index","type":"uint256","internalType":"uint256"}],"outputs":[{"name":"","type":"uint256","internalType":"uint256"}],"stateMutability":"view"},{"type":"function","name":"tokenURI","inputs":[{"name":"_tokenId","type":"uint256","internalType":"uint256"}],"outputs":[{"name":"","type":"string","internalType":"string"}],"stateMutability":"view"},{"type":"function","name":"totalSupply","inputs":[],"outputs":[{"name":"","type":"uint256","internalType":"uint256"}],"stateMutability":"view"},{"type":"function","name":"traitsContract","inputs":[],"outputs":[{"name":"","type":"address","internalType":"contract PeterTraits"}],"stateMutability":"view"},{"type":"function","name":"transferFrom","inputs":[{"name":"from","type":"address","internalType":"address"},{"name":"to","type":"address","internalType":"address"},{"name":"tokenId","type":"uint256","internalType":"uint256"}],"outputs":[],"stateMutability":"nonpayable"},{"type":"function","name":"transferOwnership","inputs":[{"name":"newOwner","type":"address","internalType":"address"}],"outputs":[],"stateMutability":"payable"},{"type":"function","name":"unequipAll","inputs":[{"name":"_peterTokenId","type":"uint256","internalType":"uint256"}],"outputs":[],"stateMutability":"nonpayable"},{"type":"function","name":"unequipGlasses","inputs":[{"name":"_peterTokenId","type":"uint256","internalType":"uint256"}],"outputs":[],"stateMutability":"nonpayable"},{"type":"function","name":"unequipHair","inputs":[{"name":"_peterTokenId","type":"uint256","internalType":"uint256"}],"outputs":[],"stateMutability":"nonpayable"},{"type":"function","name":"unequipHandheld","inputs":[{"name":"_peterTokenId","type":"uint256","internalType":"uint256"}],"outputs":[],"stateMutability":"nonpayable"},{"type":"function","name":"unequipHat","inputs":[{"name":"_peterTokenId","type":"uint256","internalType":"uint256"}],"outputs":[],"stateMutability":"nonpayable"},{"type":"function","name":"unequipPants","inputs":[{"name":"_peterTokenId","type":"uint256","internalType":"uint256"}],"outputs":[],"stateMutability":"nonpayable"},{"type":"function","name":"unequipShirt","inputs":[{"name":"_peterTokenId","type":"uint256","internalType":"uint256"}],"outputs":[],"stateMutability":"nonpayable"},{"type":"function","name":"unequipShoes","inputs":[{"name":"_peterTokenId","type":"uint256","internalType":"uint256"}],"outputs":[],"stateMutability":"nonpayable"},{"type":"function","name":"walletOfOwner","inputs":[{"name":"_owner","type":"address","internalType":"address"}],"outputs":[{"name":"","type":"uint256[]","internalType":"uint256[]"}],"stateMutability":"view"},{"type":"function","name":"zRenderer","inputs":[],"outputs":[{"name":"","type":"address","internalType":"contract ZRenderer"}],"stateMutability":"view"},{"type":"event","name":"Approval","inputs":[{"name":"owner","type":"address","indexed":true,"internalType":"address"},{"name":"approved","type":"address","indexed":true,"internalType":"address"},{"name":"tokenId","type":"uint256","indexed":true,"internalType":"uint256"}],"anonymous":false},{"type":"event","name":"ApprovalForAll","inputs":[{"name":"owner","type":"address","indexed":true,"internalType":"address"},{"name":"operator","type":"address","indexed":true,"internalType":"address"},{"name":"approved","type":"bool","indexed":false,"internalType":"bool"}],"anonymous":false},{"type":"event","name":"BatchMetadataUpdate","inputs":[{"name":"_fromTokenId","type":"uint256","indexed":false,"internalType":"uint256"},{"name":"_toTokenId","type":"uint256","indexed":false,"internalType":"uint256"}],"anonymous":false},{"type":"event","name":"Equip","inputs":[{"name":"owner","type":"address","indexed":true,"internalType":"address"},{"name":"tokenId","type":"uint256","indexed":true,"internalType":"uint256"},{"name":"traitTokenId","type":"uint256","indexed":true,"internalType":"uint256"},{"name":"traitCategory","type":"string","indexed":false,"internalType":"string"}],"anonymous":false},{"type":"event","name":"EquipAll","inputs":[{"name":"owner","type":"address","indexed":true,"internalType":"address"},{"name":"tokenId","type":"uint256","indexed":true,"internalType":"uint256"}],"anonymous":false},{"type":"event","name":"MetadataUpdate","inputs":[{"name":"_tokenId","type":"uint256","indexed":false,"internalType":"uint256"}],"anonymous":false},{"type":"event","name":"Mint","inputs":[{"name":"owner","type":"address","indexed":true,"internalType":"address"},{"name":"tokenId","type":"uint256","indexed":true,"internalType":"uint256"}],"anonymous":false},{"type":"event","name":"NewEpoch","inputs":[{"name":"epoch","type":"uint256","indexed":true,"internalType":"uint256"},{"name":"revealBlock","type":"uint64","indexed":true,"internalType":"uint64"}],"anonymous":false},{"type":"event","name":"OwnershipHandoverCanceled","inputs":[{"name":"pendingOwner","type":"address","indexed":true,"internalType":"address"}],"anonymous":false},{"type":"event","name":"OwnershipHandoverRequested","inputs":[{"name":"pendingOwner","type":"address","indexed":true,"internalType":"address"}],"anonymous":false},{"type":"event","name":"OwnershipTransferred","inputs":[{"name":"oldOwner","type":"address","indexed":true,"internalType":"address"},{"name":"newOwner","type":"address","indexed":true,"internalType":"address"}],"anonymous":false},{"type":"event","name":"Transfer","inputs":[{"name":"from","type":"address","indexed":true,"internalType":"address"},{"name":"to","type":"address","indexed":true,"internalType":"address"},{"name":"tokenId","type":"uint256","indexed":true,"internalType":"uint256"}],"anonymous":false},{"type":"event","name":"Unequip","inputs":[{"name":"owner","type":"address","indexed":true,"internalType":"address"},{"name":"tokenId","type":"uint256","indexed":true,"internalType":"uint256"},{"name":"traitCategory","type":"string","indexed":true,"internalType":"string"}],"anonymous":false},{"type":"event","name":"UnequipAll","inputs":[{"name":"owner","type":"address","indexed":true,"internalType":"address"},{"name":"tokenId","type":"uint256","indexed":true,"internalType":"uint256"}],"anonymous":false},{"type":"error","name":"AlreadyInitialized","inputs":[]},{"type":"error","name":"BodyAlreadyExists","inputs":[]},{"type":"error","name":"FirstSeasonRenderMinterNotSet","inputs":[]},{"type":"error","name":"IncorrectPeterOwner","inputs":[]},{"type":"error","name":"IncorrectTBAOwner","inputs":[]},{"type":"error","name":"IncorrectTraitType","inputs":[]},{"type":"error","name":"NewOwnerIsZeroAddress","inputs":[]},{"type":"error","name":"NoHandoverRequest","inputs":[]},{"type":"error","name":"PeterDoesntExist","inputs":[]},{"type":"error","name":"Unauthorized","inputs":[]}],"bytecode":{"object":"0x6080604052600060105560456012553480156200001b57600080fd5b5060405162005bd538038062005bd58339810160408190526200003e9162000106565b6040518060400160405280600a81526020016914195d195c8815195cdd60b21b815250604051806040016040528060058152602001642822aa22a960d91b8152508160009081620000909190620001d8565b5060016200009f8282620001d8565b505050620000b333620000ca60201b60201c565b600a805460ff1916911515919091179055620002a4565b6001600160a01b0316638b78c6d8198190558060007f8be0079c531659141344cd1fd0a4f28419497f9722a3daafe3b4186f6b6457e08180a350565b6000602082840312156200011957600080fd5b815180151581146200012a57600080fd5b9392505050565b634e487b7160e01b600052604160045260246000fd5b600181811c908216806200015c57607f821691505b6020821081036200017d57634e487b7160e01b600052602260045260246000fd5b50919050565b601f821115620001d3576000816000526020600020601f850160051c81016020861015620001ae5750805b601f850160051c820191505b81811015620001cf57828155600101620001ba565b5050505b505050565b81516001600160401b03811115620001f457620001f462000131565b6200020c8162000205845462000147565b8462000183565b602080601f8311600181146200024457600084156200022b5750858301515b600019600386901b1c1916600185901b178555620001cf565b600085815260208120601f198616915b82811015620002755788860151825594840194600190910190840162000254565b5085821015620002945787850151600019600388901b60f8161c191681555b5050505050600190811b01905550565b61592180620002b46000396000f3fe6080604052600436106104525760003560e01c8063661ee23a1161023f578063a22cb46511610139578063cc9a5d37116100b6578063f04e283e1161007a578063f04e283e14610e6b578063f225dc4014610e7e578063f2361e2314610e9e578063f2fde38b14610ebe578063fee81cf414610ed157600080fd5b8063cc9a5d3714610d82578063d68c4f3214610dc2578063e37db3c214610de2578063e5a6826114610e02578063e985e9c514610e2257600080fd5b8063b53d1fd7116100fd578063b53d1fd714610cb7578063b88d4fde14610cf5578063be928ff614610d15578063c093afdb14610d42578063c87b56dd14610d6257600080fd5b8063a22cb46514610c17578063a860c96c14610c37578063a959bb1d14610c57578063b28fbe4014610c77578063b528279314610c9757600080fd5b8063916c546b116101c75780639c05d68d1161018b5780639c05d68d14610b765780639c7be2f114610bac578063a035b1fe14610bc1578063a15c561b14610bd7578063a1d6268014610bf757600080fd5b8063916c546b14610ae157806391b7f5ed14610b0157806394cbd9c414610b2157806395d89b4114610b41578063998cfb6e14610b5657600080fd5b80637365eea81161020e5780637365eea81461098c5780637557f2dc146109ac578063757991a8146109cc578063859e7d32146109e15780638da5cb5b14610ac857600080fd5b8063661ee23a1461091657806366b89b5a1461094457806370a0823114610964578063715018a61461098457600080fd5b80633044825b116103505780634ddb3961116102d85780635a5474dd1161029c5780635a5474dd146108765780635eabd84a1461089657806360b77b23146108b65780636273ca2c146108d65780636352211e146108f657600080fd5b80634ddb3961146107ee5780634f6ccce71461080e57806354d1f13d1461082e57806358180d351461083657806358a976401461085657600080fd5b806342842e0e1161031f57806342842e0e14610732578063438b630014610752578063457e7e611461077f57806345d2d7bd1461079f5780634a4333a3146107ce57600080fd5b80633044825b146106b2578063306c7334146106d257806333d3d9bf146106f25780633fdc97fd1461071257600080fd5b806314fe8ff4116103de578063239ffa68116103a2578063239ffa681461063557806323b872dd1461064a578063256929621461066a5780632bd1ca45146106725780632f745c591461069257600080fd5b806314fe8ff4146105a0578063172b054d146105c057806318160ddd146105e057806320e0b93c146105ff57806321468d021461061557600080fd5b8063095ea7b311610425578063095ea7b3146105085780630c83f9d714610528578063105338e0146105585780631249c58b1461057857806313ea0ae31461058057600080fd5b806301ffc9a71461045757806306e02a351461048c57806306fdde03146104ae578063081812fc146104d0575b600080fd5b34801561046357600080fd5b50610477610472366004614233565b610f04565b60405190151581526020015b60405180910390f35b34801561049857600080fd5b506104ac6104a7366004614250565b610f15565b005b3480156104ba57600080fd5b506104c3610f8e565b60405161048391906142b9565b3480156104dc57600080fd5b506104f06104eb366004614250565b611020565b6040516001600160a01b039091168152602001610483565b34801561051457600080fd5b506104ac6105233660046142e1565b611047565b34801561053457600080fd5b50610548610543366004614250565b611161565b604051610483949392919061430d565b34801561056457600080fd5b506104ac610573366004614250565b611322565b6104ac611354565b34801561058c57600080fd5b506014546104f0906001600160a01b031681565b3480156105ac57600080fd5b506104c36105bb366004614250565b611769565b3480156105cc57600080fd5b506104ac6105db366004614357565b6119cb565b3480156105ec57600080fd5b506008545b604051908152602001610483565b34801561060b57600080fd5b506105f160125481565b34801561062157600080fd5b506104ac610630366004614374565b6119f5565b34801561064157600080fd5b506104ac611a75565b34801561065657600080fd5b506104ac610665366004614396565b611c51565b6104ac611c82565b34801561067e57600080fd5b506104c361068d366004614250565b611cd1565b34801561069e57600080fd5b506105f16106ad3660046142e1565b611d95565b3480156106be57600080fd5b506104ac6106cd366004614250565b611e2b565b3480156106de57600080fd5b506104c36106ed366004614250565b611eb3565b3480156106fe57600080fd5b506104ac61070d366004614250565b611ed6565b34801561071e57600080fd5b506104ac61072d366004614250565b611ee3565b34801561073e57600080fd5b506104ac61074d366004614396565b611f18565b34801561075e57600080fd5b5061077261076d366004614357565b611f33565b60405161048391906143d7565b34801561078b57600080fd5b506104ac61079a366004614374565b611fca565b3480156107ab57600080fd5b506107bf6107ba366004614542565b61202f565b60405161048393929190614658565b3480156107da57600080fd5b506104ac6107e936600461469b565b612219565b3480156107fa57600080fd5b506104ac610809366004614357565b6122d2565b34801561081a57600080fd5b506105f1610829366004614250565b6122fc565b6104ac61238f565b34801561084257600080fd5b506104ac610851366004614250565b6123cb565b34801561086257600080fd5b506104ac610871366004614357565b6123fe565b34801561088257600080fd5b506104ac610891366004614374565b612428565b3480156108a257600080fd5b506104ac6108b1366004614357565b61249a565b3480156108c257600080fd5b506104ac6108d1366004614374565b6124c4565b3480156108e257600080fd5b506104ac6108f1366004614250565b612536565b34801561090257600080fd5b506104f0610911366004614250565b6125ba565b34801561092257600080fd5b50610936610931366004614542565b61261a565b6040516104839291906146f0565b34801561095057600080fd5b506015546104f0906001600160a01b031681565b34801561097057600080fd5b506105f161097f366004614357565b6126c1565b6104ac612747565b34801561099857600080fd5b506104ac6109a7366004614250565b61275b565b3480156109b857600080fd5b506104c36109c7366004614250565b612791565b3480156109d857600080fd5b50600d546105f1565b3480156109ed57600080fd5b50610a7f6109fc366004614250565b6040805160808082018352600080835260208084018290528385018290526060938401829052948152600c855283902083519182018452546001600160801b03811682526001600160401b03600160801b8204169482019490945260ff600160c01b85048116151593820193909352600160c81b90930490911615159082015290565b604051610483919081516001600160801b031681526020808301516001600160401b03169082015260408083015115159082015260609182015115159181019190915260800190565b348015610ad457600080fd5b50638b78c6d819546104f0565b348015610aed57600080fd5b506104c3610afc366004614250565b612971565b348015610b0d57600080fd5b506104ac610b1c366004614250565b612a95565b348015610b2d57600080fd5b506104ac610b3c366004614374565b612aa2565b348015610b4d57600080fd5b506104c3612b13565b348015610b6257600080fd5b50610772610b71366004614357565b612b22565b348015610b8257600080fd5b506104f0610b91366004614250565b6013602052600090815260409020546001600160a01b031681565b348015610bb857600080fd5b506104ac612b98565b348015610bcd57600080fd5b506105f160115481565b348015610be357600080fd5b506016546104f0906001600160a01b031681565b348015610c0357600080fd5b506104c3610c12366004614250565b612bbf565b348015610c2357600080fd5b506104ac610c3236600461471e565b612bef565b348015610c4357600080fd5b506104ac610c52366004614374565b612bfe565b348015610c6357600080fd5b506104ac610c72366004614250565b612c70565b348015610c8357600080fd5b506104c3610c92366004614250565b612ca3565b348015610ca357600080fd5b506104ac610cb2366004614250565b612e02565b348015610cc357600080fd5b506104ac610cd2366004614753565b6000918252600b6020526040909120600c01805460ff1916911515919091179055565b348015610d0157600080fd5b506104ac610d10366004614776565b612e30565b348015610d2157600080fd5b50610d35610d30366004614250565b612e68565b60405161048391906147e1565b348015610d4e57600080fd5b50600f546104f0906001600160a01b031681565b348015610d6e57600080fd5b506104c3610d7d366004614250565b613125565b348015610d8e57600080fd5b50610da2610d9d366004614250565b613166565b604080516001600160a01b03938416815292909116602083015201610483565b348015610dce57600080fd5b506104ac610ddd3660046148bd565b613195565b348015610dee57600080fd5b506104c3610dfd366004614903565b6131f2565b348015610e0e57600080fd5b506104ac610e1d366004614374565b6134a4565b348015610e2e57600080fd5b50610477610e3d366004614937565b6001600160a01b03918216600090815260056020908152604080832093909416825291909152205460ff1690565b6104ac610e79366004614357565b613511565b348015610e8a57600080fd5b506104ac610e99366004614374565b61354e565b348015610eaa57600080fd5b506104ac610eb9366004614970565b6135c3565b6104ac610ecc366004614357565b613610565b348015610edd57600080fd5b506105f1610eec366004614357565b63389a75e1600c908152600091909152602090205490565b6000610f0f82613637565b92915050565b610f1e8161365c565b6000818152600b6020526040808220600590810192909255516450616e747360d81b8152015b604051809103902081610f56836125ba565b6001600160a01b03167fe428b1839105819dce5e635ac7e16ed2a43028f6e294bab8655e29acb5dc60bb60405160405180910390a450565b606060008054610f9d906149f5565b80601f0160208091040260200160405190810160405280929190818152602001828054610fc9906149f5565b80156110165780601f10610feb57610100808354040283529160200191611016565b820191906000526020600020905b815481529060010190602001808311610ff957829003601f168201915b5050505050905090565b600061102b82613696565b506000908152600460205260409020546001600160a01b031690565b6000611052826125ba565b9050806001600160a01b0316836001600160a01b0316036110c45760405162461bcd60e51b815260206004820152602160248201527f4552433732313a20617070726f76616c20746f2063757272656e74206f776e656044820152603960f91b60648201526084015b60405180910390fd5b336001600160a01b03821614806110e057506110e08133610e3d565b6111525760405162461bcd60e51b815260206004820152603e60248201527f4552433732313a20617070726f76652063616c6c6572206973206e6f7420746f60448201527f6b656e206f776e6572206e6f7220617070726f76656420666f7220616c6c000060648201526084016110bb565b61115c83836136f5565b505050565b600e6020526000908152604090208054600182018054919291611183906149f5565b80601f01602080910402602001604051908101604052809291908181526020018280546111af906149f5565b80156111fc5780601f106111d1576101008083540402835291602001916111fc565b820191906000526020600020905b8154815290600101906020018083116111df57829003601f168201915b505050505090806002018054611211906149f5565b80601f016020809104026020016040519081016040528092919081815260200182805461123d906149f5565b801561128a5780601f1061125f5761010080835404028352916020019161128a565b820191906000526020600020905b81548152906001019060200180831161126d57829003601f168201915b50505050509080600301805461129f906149f5565b80601f01602080910402602001604051908101604052809291908181526020018280546112cb906149f5565b80156113185780601f106112ed57610100808354040283529160200191611318565b820191906000526020600020905b8154815290600101906020018083116112fb57829003601f168201915b5050505050905084565b61132b8161365c565b6000818152600b60205260408082206001019190915551632430b4b960e11b8152600401610f44565b6014546001600160a01b031661137d57604051633390ca8960e21b815260040160405180910390fd5b6007611387611a75565b600060106000815461139890614a45565b918290555090506113a93382613763565b604051638a54c52f60e01b81527355266d75d1a14e4572138116af39863ed6596e7f600482015260006024820181905262014a34604483015230606483015260848201839052906f6551c19487814612e58fe0681377575890638a54c52f9060a4016020604051808303816000875af115801561142a573d6000803e3d6000fd5b505050506040513d601f19601f8201168201806040525081019061144e9190614a5e565b6000838152601360205260409081902080546001600160a01b0319166001600160a01b038416908117909155905163189acdbd60e31b81527341c8f39463a868d3a88af00cd0fe7102f30e44ec60048201529192509063c4d66de890602401600060405180830381600087803b1580156114c757600080fd5b505af11580156114db573d6000803e3d6000fd5b5050601454604051638fe4a24560e01b81526001600160a01b03858116600483015260248201889052600094509091169150638fe4a245906044016000604051808303816000875af1158015611535573d6000803e3d6000fd5b505050506040513d6000823e601f3d908101601f1916820160405261155d9190810190614a7b565b6000848152600b60205260408120600d5460078201805461ffff8916600a850181905563ffffffff90931665ffffffffffff19909116176401000000009092029190911790558251929350918391906115b8576115b8614b20565b60200260200101518160060181905550816001815181106115db576115db614b20565b60200260200101518160050181905550816002815181106115fe576115fe614b20565b60200260200101518160040181905550600385111561163b578160038151811061162a5761162a614b20565b602002602001015181600101819055505b6004851115611668578160048151811061165757611657614b20565b602002602001015181600201819055505b6005851115611692578160058151811061168457611684614b20565b602090810291909101015181555b60068511156116bf57816006815181106116ae576116ae614b20565b602002602001015181600301819055505b600c8101805460ff19169055600160088201556040805180820190915260068152650c110d914e5160d21b6020820152600b8201906116fe9082614b7e565b50604051849033907f0f6798a560793a54c3bcfe86a93cde1e73087d944c0ea20544137d412139688590600090a36117626040518060400160405280601481526020017336b4b73a32b2103137b23c903a37b5b2b724b21d60611b815250856138b1565b5050505050565b6000818152601360205260408120546060916001600160a01b039091169061179082612b22565b905060006040518060400160405280601b81526020017f3c7376672076696577426f783d223020302031353020313530223e000000000081525090506000604051806040016040528060068152602001651e17b9bb339f60d11b815250905060606000600f60009054906101000a90046001600160a01b03166001600160a01b0316635c1ef2566040518163ffffffff1660e01b8152600401600060405180830381865afa158015611846573d6000803e3d6000fd5b505050506040513d6000823e601f3d908101601f1916820160405261186e9190810190614c8d565b9050600060125486511061188457601254611887565b85515b905060405180610540016040528061050581526020016153e76105059139826040516020016118b7929190614cc1565b604051602081830303815290604052925060005b8181101561199c57600f5487516000916001600160a01b03169063c7791531908a90859081106118fd576118fd614b20565b60200260200101516040518263ffffffff1660e01b815260040161192391815260200190565b600060405180830381865afa158015611940573d6000803e3d6000fd5b505050506040513d6000823e601f3d908101601f191682016040526119689190810190614c8d565b9050848782886040516020016119819493929190614d18565b60408051601f198184030181529190529450506001016118cb565b50826040516020016119ae9190614d6f565b60408051601f198184030181529190529998505050505050505050565b6119d36138f6565b601680546001600160a01b0319166001600160a01b0392909216919091179055565b6119ff8282613911565b611a0a8160026139d0565b6000828152600b602052604090206002018190558082611a29816125ba565b6001600160a01b03166000805160206153c7833981519152604051611a6990602080825260079082015266476c617373657360c81b604082015260600190565b60405180910390a45050565b600d546000908152600c602052604090208054600160c01b900460ff161580611acd57508054600160c81b900460ff16158015611acd5750611ab961010043614d97565b8154600160801b90046001600160401b0316105b15611b1857611add436032614daa565b815460ff60c01b196001600160401b0392909216600160801b029190911668ffffffffffffffffff60801b1990911617600160c01b17815550565b8054600160801b90046001600160401b0316431115611c4e57805460408051600160801b9092046001600160401b031640602083015244908201526001600160801b03906060016040516020818303038152906040528051906020012060001c611b829190614dd3565b8154600160c81b6001600160801b039290921679ff000000000000000000ffffffffffffffffffffffffffffffff199091161717808255600d54604051600160801b9092046001600160401b0316917f78611aecfda8d341359c248df527c95aef93d446c92bb928b2a81b7abcb1d8d990600090a3604080516000815260001960208201527f6bd5c950a8d8df17f772f5af37cb3655737899cbf903264b9795592da439661c910160405180910390a1600d8054600090611c4290614a45565b90915550611c4e611a75565b50565b611c5b3382613ad2565b611c775760405162461bcd60e51b81526004016110bb90614de7565b61115c838383613b51565b60006202a3006001600160401b03164201905063389a75e1600c5233600052806020600c2055337fdbf36a107da19e49527a7176a1babf963b4b0ff8cde35ee35d6cd8f1f9ac7e1d600080a250565b60608060606000611ce185612e68565b9050611cec8161202f565b50600f54604051630de6a96560e11b81529195506001600160a01b03169150631bcd52ca90611d1f9084906004016147e1565b600060405180830381865afa158015611d3c573d6000803e3d6000fd5b505050506040513d6000823e601f3d908101601f19168201604052611d649190810190614e35565b50604051909350611d7c915084908490602001614ed3565b6040516020818303038152906040529350505050919050565b6000611da0836126c1565b8210611e025760405162461bcd60e51b815260206004820152602b60248201527f455243373231456e756d657261626c653a206f776e657220696e646578206f7560448201526a74206f6620626f756e647360a81b60648201526084016110bb565b506001600160a01b03919091166000908152600660209081526040808320938352929052205490565b611e348161365c565b6000818152600b602052604081208181556001810182905560028101829055600381018290556004810182905560058101829055600681019190915581611e7a816125ba565b6001600160a01b03167f46078a2cd4c69c3b4a27bdc69fdfe03d442ebcf405f1a68e9b5df6bc3e24429760405160405180910390a35050565b6060806000611ec184612e68565b9050611ecc8161202f565b5095945050505050565b611ede6138f6565b601255565b611eec8161365c565b6000818152600b6020526040808220600201919091555166476c617373657360c81b8152600701610f44565b61115c83838360405180602001604052806000815250612e30565b60606000611f40836126c1565b90506000816001600160401b03811115611f5c57611f5c61441b565b604051908082528060200260200182016040528015611f85578160200160208202803683370190505b50905060005b82811015611fc257611f9d8582611d95565b828281518110611faf57611faf614b20565b6020908102919091010152600101611f8b565b509392505050565b6001811080611fd95750600481115b1561201a5760405162461bcd60e51b8152602060048201526011602482015270092dcecc2d8d2c840c4dec8f292dcc8caf607b1b60448201526064016110bb565b6000918252600b602052604090912060080155565b606080606083610140015161208d576040518060a00160405280606581526020016153626065913960405180602001604052806000815250604051806040016040528060028152602001617b7d60f01b815250925092509250612212565b61209b846101200151612971565b600e6000866101200151815260200190815260200160002060030161217f60405180604001604052806004815260200163426f647960e01b815250600e6000896101200151815260200190815260200160002060010180546120fc906149f5565b80601f0160208091040260200160405190810160405280929190818152602001828054612128906149f5565b80156121755780601f1061214a57610100808354040283529160200191612175565b820191906000526020600020905b81548152906001019060200180831161215857829003601f168201915b5050505050613cf8565b81805461218b906149f5565b80601f01602080910402602001604051908101604052809291908181526020018280546121b7906149f5565b80156122045780601f106121d957610100808354040283529160200191612204565b820191906000526020600020905b8154815290600101906020018083116121e757829003601f168201915b505050505091509250925092505b9193909250565b86156122295761222988886134a4565b8515612239576122398887612aa2565b84156122495761224988866119f5565b831561225957612259888561354e565b8215612269576122698884612bfe565b8115612279576122798883612428565b80156122895761228988826124c4565b87612293896125ba565b6001600160a01b03167f56680590212b09eb4b72a2eba8801b037ec046dfc754538e924f5bb6a8c4db6c60405160405180910390a35050505050505050565b6122da6138f6565b601580546001600160a01b0319166001600160a01b0392909216919091179055565b600061230760085490565b821061236a5760405162461bcd60e51b815260206004820152602c60248201527f455243373231456e756d657261626c653a20676c6f62616c20696e646578206f60448201526b7574206f6620626f756e647360a01b60648201526084016110bb565b6008828154811061237d5761237d614b20565b90600052602060002001549050919050565b63389a75e1600c523360005260006020600c2055337ffa7b8eab7da67f412cc9575ed43464468f9bfbae89d1675917346ca6d8fe3c92600080a2565b6123d48161365c565b6000818152600b602052604080822060060191909155516453686f657360d81b8152600501610f44565b6124066138f6565b601480546001600160a01b0319166001600160a01b0392909216919091179055565b6124328282613911565b61243d8160056139d0565b6000828152600b60205260409020600501819055808261245c816125ba565b6001600160a01b03166000805160206153c7833981519152604051611a699060208082526005908201526450616e747360d81b604082015260600190565b6124a26138f6565b600f80546001600160a01b0319166001600160a01b0392909216919091179055565b6124ce8282613911565b6124d98160066139d0565b6000828152600b6020526040902060060181905580826124f8816125ba565b6001600160a01b03166000805160206153c7833981519152604051611a699060208082526005908201526453686f657360d81b604082015260600190565b6000818152601360205260409081902054600f5491516340d097c360e01b81526001600160a01b03918216600482018190529291909116906340d097c3906024016020604051808303816000875af1158015612596573d6000803e3d6000fd5b505050506040513d601f19601f8201168201806040525081019061115c9190614f02565b6000818152600260205260408120546001600160a01b031680610f0f5760405162461bcd60e51b8152602060048201526018602482015277115490cdcc8c4e881a5b9d985b1a59081d1bdad95b88125160421b60448201526064016110bb565b606080826101400151612664576040518060a001604052806065815260200161536260659139604051806040016040528060028152602001617b7d60f01b81525091509150915091565b612672836101200151612971565b6126b860405180604001604052806004815260200163426f647960e01b815250600e6000876101200151815260200190815260200160002060010180546120fc906149f5565b91509150915091565b60006001600160a01b03821661272b5760405162461bcd60e51b815260206004820152602960248201527f4552433732313a2061646472657373207a65726f206973206e6f7420612076616044820152683634b21037bbb732b960b91b60648201526084016110bb565b506001600160a01b031660009081526003602052604090205490565b61274f6138f6565b6127596000613d24565b565b6127648161365c565b6000818152600b602052604080822060030191909155516712185b991a195b1960c21b8152600801610f44565b60608060608060608060608060608060006127ab8c612e68565b90506127b68161202f565b600f54604051630de6a96560e11b8152939d50919a5095506001600160a01b031690631bcd52ca906127ec9084906004016147e1565b600060405180830381865afa158015612809573d6000803e3d6000fd5b505050506040513d6000823e601f3d908101601f191682016040526128319190810190614e35565b604051929b50909850955061284c9085908790602001614f1b565b60405160208183030381529060405292508787604051602001612870929190614ed3565b60408051601f1981840301815290829052610180830151909750612898918190602001614f80565b60408051601f198184030181528282019091526060808352602083015292508161018001518160000181905250828160200181905250601660009054906101000a90046001600160a01b03166001600160a01b0316637149ebf68e8d888e8b8d886040518863ffffffff1660e01b815260040161291b9796959493929190615025565b600060405180830381865afa158015612938573d6000803e3d6000fd5b505050506040513d6000823e601f3d908101601f191682016040526129609190810190614c8d565b9d9c50505050505050505050505050565b6000818152600e60205260408120600201805460609291612a1891612995906149f5565b80601f01602080910402602001604051908101604052809291908181526020018280546129c1906149f5565b8015612a0e5780601f106129e357610100808354040283529160200191612a0e565b820191906000526020600020905b8154815290600101906020018083116129f157829003601f168201915b50505050506131f2565b6015546040516335b07b7960e11b81529192506001600160a01b031690636b60f6f290612a499084906004016142b9565b600060405180830381865afa158015612a66573d6000803e3d6000fd5b505050506040513d6000823e601f3d908101601f19168201604052612a8e9190810190614c8d565b9392505050565b612a9d6138f6565b601155565b612aac8282613911565b612ab78160016139d0565b6000828152600b602052604090206001018190558082612ad6816125ba565b6001600160a01b03166000805160206153c7833981519152604051611a69906020808252600490820152632430b4b960e11b604082015260600190565b606060018054610f9d906149f5565b600f5460405162438b6360e81b81526001600160a01b03838116600483015260609260009291169063438b630090602401600060405180830381865afa158015612b70573d6000803e3d6000fd5b505050506040513d6000823e601f3d908101601f19168201604052612a8e9190810190614a7b565b600a5460ff16156127595760005b6064811015611c4e57612bb7611354565b600101612ba6565b60606000612bcc83612e68565b9050806101a00151612be657612be183612ca3565b612a8e565b612a8e83612791565b612bfa338383613d62565b5050565b612c088282613911565b612c138160046139d0565b6000828152600b602052604090206004018190558082612c32816125ba565b6001600160a01b03166000805160206153c7833981519152604051611a699060208082526005908201526414da1a5c9d60da1b604082015260600190565b612c798161365c565b6000818152600b602052604080822060040191909155516414da1a5c9d60da1b8152600501610f44565b60608060608060608060606000612cb989612e68565b9050612cc48161261a565b600f5460405163506cbfe760e11b81529299509097506001600160a01b03169063a0d97fce90612cf89084906004016147e1565b600060405180830381865afa158015612d15573d6000803e3d6000fd5b505050506040513d6000823e601f3d908101601f19168201604052612d3d91908101906150d2565b9095509350612d4b89611769565b610180820151604051919450612d65918190602001614f80565b60408051601f1981840301815290829052601554631f8ac0db60e21b83529093506001600160a01b031690637e2b036c90612db0908c908b908b908b908b908b908b9060040161512b565b600060405180830381865afa158015612dcd573d6000803e3d6000fd5b505050506040513d6000823e601f3d908101601f19168201604052612df59190810190614c8d565b9998505050505050505050565b612e0b8161365c565b6000818152600b602052604080822091909155516212185d60ea1b8152600301610f44565b612e3a3383613ad2565b612e565760405162461bcd60e51b81526004016110bb90614de7565b612e6284848484613e30565b50505050565b612ee8604051806101c0016040528060008152602001600081526020016000815260200160008152602001600081526020016000815260200160008152602001600063ffffffff168152602001600061ffff1681526020016000815260200160001515815260200160008152602001606081526020016000151581525090565b6000828152600b6020818152604080842081516101c081018352815481526001820154938101939093526002810154918301919091526003810154606083015260048101546080830152600581015460a0830152600681015460c0830152600781015463ffffffff811660e0840152640100000000900461ffff166101008301526008810154610120830152600981015460ff161515610140830152600a810154610160830152918201805491929161018084019190612fa7906149f5565b80601f0160208091040260200160405190810160405280929190818152602001828054612fd3906149f5565b80156130205780601f10612ff557610100808354040283529160200191613020565b820191906000526020600020905b81548152906001019060200180831161300357829003601f168201915b5050509183525050600c9182015460ff16151560209182015260e083015163ffffffff1660009081529181526040918290205461010084015192519394506001600160801b039081169390926130a69285920160809290921b6fffffffffffffffffffffffffffffffff1916825260f01b6001600160f01b031916601082015260120190565b6040516020818303038152906040528051906020012060001c6130c99190614dd3565b610160830152600a5460ff1615156001146130f0576000816001600160801b0316116130f3565b60015b151561014083015261016082015161310d90600490614dd3565b613118906001614daa565b6101208301525092915050565b6000818152600260205260409020546060906001600160a01b031661315d57604051631a65aaab60e31b815260040160405180910390fd5b610f0f82612bbf565b600080613172836125ba565b6000938452601360205260409093205492936001600160a01b0390931692915050565b80516006146131d65760405162461bcd60e51b815260206004820152600d60248201526c24b73b30b634b21031b7b637b960991b60448201526064016110bb565b6000828152600b602081905260409091200161115c8282614b7e565b8051606090801580159061320e575061320c600582614dd3565b155b61325a5760405162461bcd60e51b815260206004820152601960248201527f496e76616c696420626f6479206279746573206c656e6774680000000000000060448201526064016110bb565b604080516111948082526111c08201909252600091602082018180368337019050509050600061328b6005846151b4565b905060005b8181101561349a5760006132a58260056151c8565b905060008782815181106132bb576132bb614b20565b016020015160f81c90506000886132d3846001614daa565b815181106132e3576132e3614b20565b016020015160f81c9050600060ff83166132fe83601e6151c8565b6133089190614daa565b6133139060056151c8565b905089848151811061332757613327614b20565b602001015160f81c60f81b87828151811061334457613344614b20565b60200101906001600160f81b031916908160001a90535089846001018151811061337057613370614b20565b602001015160f81c60f81b87826001018151811061339057613390614b20565b60200101906001600160f81b031916908160001a9053508984600201815181106133bc576133bc614b20565b602001015160f81c60f81b8782600201815181106133dc576133dc614b20565b60200101906001600160f81b031916908160001a90535089846003018151811061340857613408614b20565b602001015160f81c60f81b87826003018151811061342857613428614b20565b60200101906001600160f81b031916908160001a90535089846004018151811061345457613454614b20565b602001015160f81c60f81b87826004018151811061347457613474614b20565b60200101906001600160f81b031916908160001a90535050505050806001019050613290565b5090949350505050565b6134ae8282613911565b6134b98160006139d0565b6000828152600b6020526040902081905580826134d5816125ba565b6001600160a01b03166000805160206153c7833981519152604051611a699060208082526003908201526212185d60ea1b604082015260600190565b6135196138f6565b63389a75e1600c52806000526020600c20805442111561354157636f5e88186000526004601cfd5b60009055611c4e81613d24565b6135588282613911565b6135638160036139d0565b6000828152600b602052604090206003018190558082613582816125ba565b6001600160a01b03166000805160206153c7833981519152604051611a699060208082526008908201526712185b991a195b1960c21b604082015260600190565b6135cb6138f6565b6000848152600e60205260409020848155600181016135ea8582614b7e565b50600281016135f98482614b7e565b50600381016136088382614b7e565b505050505050565b6136186138f6565b8060601b61362e57637448fbae6000526004601cfd5b611c4e81613d24565b60006001600160e01b0319821663780e9d6360e01b1480610f0f5750610f0f82613e63565b613665816125ba565b6001600160a01b0316336001600160a01b031614611c4e576040516324adc17160e11b815260040160405180910390fd5b6000818152600260205260409020546001600160a01b0316611c4e5760405162461bcd60e51b8152602060048201526018602482015277115490cdcc8c4e881a5b9d985b1a59081d1bdad95b88125160421b60448201526064016110bb565b600081815260046020526040902080546001600160a01b0319166001600160a01b038416908117909155819061372a826125ba565b6001600160a01b03167f8c5be1e5ebec7d5bd14f71427d1e84f3dd0314c0f7b2291e5b200ac8c7c3b92560405160405180910390a45050565b6001600160a01b0382166137b95760405162461bcd60e51b815260206004820181905260248201527f4552433732313a206d696e7420746f20746865207a65726f206164647265737360448201526064016110bb565b6000818152600260205260409020546001600160a01b03161561381e5760405162461bcd60e51b815260206004820152601c60248201527f4552433732313a20746f6b656e20616c7265616479206d696e7465640000000060448201526064016110bb565b61382a60008383613eb3565b6001600160a01b0382166000908152600360205260408120805460019290613853908490614daa565b909155505060008181526002602052604080822080546001600160a01b0319166001600160a01b03861690811790915590518392907fddf252ad1be2c89b69c2b068fc378daa952ba7f163c4a11628f55a4df523b3ef908290a45050565b612bfa82826040516024016138c79291906151df565b60408051601f198184030181529190526020810180516001600160e01b03166309710a9d60e41b179052613f6b565b638b78c6d819543314612759576382b429006000526004601cfd5b61391a8261365c565b60008281526013602052604080822054600f5491516331a9108f60e11b8152600481018590526001600160a01b0391821693929190911690636352211e90602401602060405180830381865afa158015613978573d6000803e3d6000fd5b505050506040513d601f19601f8201168201806040525081019061399c9190614a5e565b9050816001600160a01b0316816001600160a01b031614612e625760405163e6ca793160e01b815260040160405180910390fd5b600f5460405163e8a1268d60e01b8152600481018490526000916001600160a01b03169063e8a1268d90602401602060405180830381865afa158015613a1a573d6000803e3d6000fd5b505050506040513d601f19601f82011682018060405250810190613a3e9190615201565b9050816006811115613a5257613a52615222565b604051602001613a6491815260200190565b60405160208183030381529060405280519060200120816006811115613a8c57613a8c615222565b604051602001613a9e91815260200190565b604051602081830303815290604052805190602001201461115c57604051633e54c6fb60e11b815260040160405180910390fd5b600080613ade836125ba565b9050806001600160a01b0316846001600160a01b03161480613b2557506001600160a01b0380821660009081526005602090815260408083209388168352929052205460ff165b80613b495750836001600160a01b0316613b3e84611020565b6001600160a01b0316145b949350505050565b826001600160a01b0316613b64826125ba565b6001600160a01b031614613bc85760405162461bcd60e51b815260206004820152602560248201527f4552433732313a207472616e736665722066726f6d20696e636f72726563742060448201526437bbb732b960d91b60648201526084016110bb565b6001600160a01b038216613c2a5760405162461bcd60e51b8152602060048201526024808201527f4552433732313a207472616e7366657220746f20746865207a65726f206164646044820152637265737360e01b60648201526084016110bb565b613c35838383613eb3565b613c406000826136f5565b6001600160a01b0383166000908152600360205260408120805460019290613c69908490614d97565b90915550506001600160a01b0382166000908152600360205260408120805460019290613c97908490614daa565b909155505060008181526002602052604080822080546001600160a01b0319166001600160a01b0386811691821790925591518493918716917fddf252ad1be2c89b69c2b068fc378daa952ba7f163c4a11628f55a4df523b3ef91a4505050565b60608282604051602001613d0d929190615238565b604051602081830303815290604052905092915050565b638b78c6d81980546001600160a01b039092169182907f8be0079c531659141344cd1fd0a4f28419497f9722a3daafe3b4186f6b6457e0600080a355565b816001600160a01b0316836001600160a01b031603613dc35760405162461bcd60e51b815260206004820152601960248201527f4552433732313a20617070726f766520746f2063616c6c65720000000000000060448201526064016110bb565b6001600160a01b03838116600081815260056020908152604080832094871680845294825291829020805460ff191686151590811790915591519182527f17307eab39ab6107e8899845ad3d59bd9653f200f220920489ca2b5937696c31910160405180910390a3505050565b613e3b848484613b51565b613e4784848484613f8c565b612e625760405162461bcd60e51b81526004016110bb906152a9565b60006001600160e01b031982166380ac58cd60e01b1480613e9457506001600160e01b03198216635b5e139f60e01b145b80610f0f57506301ffc9a760e01b6001600160e01b0319831614610f0f565b6001600160a01b038316613f0e57613f0981600880546000838152600960205260408120829055600182018355919091527ff3f7a9fe364faab93b216da50a3214154f22a0a2b415b23a84c8169e8b636ee30155565b613f31565b816001600160a01b0316836001600160a01b031614613f3157613f31838261408d565b6001600160a01b038216613f485761115c8161412a565b826001600160a01b0316826001600160a01b03161461115c5761115c82826141d9565b80516a636f6e736f6c652e6c6f67602083016000808483855afa5050505050565b60006001600160a01b0384163b1561408257604051630a85bd0160e11b81526001600160a01b0385169063150b7a0290613fd09033908990889088906004016152fb565b6020604051808303816000875af192505050801561400b575060408051601f3d908101601f191682019092526140089181019061532e565b60015b614068573d808015614039576040519150601f19603f3d011682016040523d82523d6000602084013e61403e565b606091505b5080516000036140605760405162461bcd60e51b81526004016110bb906152a9565b805181602001fd5b6001600160e01b031916630a85bd0160e11b149050613b49565b506001949350505050565b6000600161409a846126c1565b6140a49190614d97565b6000838152600760205260409020549091508082146140f7576001600160a01b03841660009081526006602090815260408083208584528252808320548484528184208190558352600790915290208190555b5060009182526007602090815260408084208490556001600160a01b039094168352600681528383209183525290812055565b60085460009061413c90600190614d97565b6000838152600960205260408120546008805493945090928490811061416457614164614b20565b90600052602060002001549050806008838154811061418557614185614b20565b60009182526020808320909101929092558281526009909152604080822084905585825281205560088054806141bd576141bd61534b565b6001900381819060005260206000200160009055905550505050565b60006141e4836126c1565b6001600160a01b039093166000908152600660209081526040808320868452825280832085905593825260079052919091209190915550565b6001600160e01b031981168114611c4e57600080fd5b60006020828403121561424557600080fd5b8135612a8e8161421d565b60006020828403121561426257600080fd5b5035919050565b60005b8381101561428457818101518382015260200161426c565b50506000910152565b600081518084526142a5816020860160208601614269565b601f01601f19169290920160200192915050565b602081526000612a8e602083018461428d565b6001600160a01b0381168114611c4e57600080fd5b600080604083850312156142f457600080fd5b82356142ff816142cc565b946020939093013593505050565b848152608060208201526000614326608083018661428d565b8281036040840152614338818661428d565b9050828103606084015261434c818561428d565b979650505050505050565b60006020828403121561436957600080fd5b8135612a8e816142cc565b6000806040838503121561438757600080fd5b50508035926020909101359150565b6000806000606084860312156143ab57600080fd5b83356143b6816142cc565b925060208401356143c6816142cc565b929592945050506040919091013590565b6020808252825182820181905260009190848201906040850190845b8181101561440f578351835292840192918401916001016143f3565b50909695505050505050565b634e487b7160e01b600052604160045260246000fd5b6040516101c081016001600160401b03811182821017156144545761445461441b565b60405290565b604051601f8201601f191681016001600160401b03811182821017156144825761448261441b565b604052919050565b803563ffffffff8116811461449e57600080fd5b919050565b803561ffff8116811461449e57600080fd5b8035801515811461449e57600080fd5b60006001600160401b038211156144de576144de61441b565b50601f01601f191660200190565b600082601f8301126144fd57600080fd5b813561451061450b826144c5565b61445a565b81815284602083860101111561452557600080fd5b816020850160208301376000918101602001919091529392505050565b60006020828403121561455457600080fd5b81356001600160401b038082111561456b57600080fd5b908301906101c0828603121561458057600080fd5b614588614431565b823581526020830135602082015260408301356040820152606083013560608201526080830135608082015260a083013560a082015260c083013560c08201526145d460e0840161448a565b60e08201526101006145e78185016144a3565b9082015261012083810135908201526101406146048185016144b5565b908201526101608381013590820152610180808401358381111561462757600080fd5b614633888287016144ec565b8284015250506101a091506146498284016144b5565b91810191909152949350505050565b60608152600061466b606083018661428d565b828103602084015261467d818661428d565b90508281036040840152614691818561428d565b9695505050505050565b600080600080600080600080610100898b0312156146b857600080fd5b505086359860208801359850604088013597606081013597506080810135965060a0810135955060c0810135945060e0013592509050565b604081526000614703604083018561428d565b8281036020840152614715818561428d565b95945050505050565b6000806040838503121561473157600080fd5b823561473c816142cc565b915061474a602084016144b5565b90509250929050565b6000806040838503121561476657600080fd5b8235915061474a602084016144b5565b6000806000806080858703121561478c57600080fd5b8435614797816142cc565b935060208501356147a7816142cc565b92506040850135915060608501356001600160401b038111156147c957600080fd5b6147d5878288016144ec565b91505092959194509250565b6020815281516020820152602082015160408201526040820151606082015260608201516080820152608082015160a082015260a082015160c082015260c082015160e0820152600060e08301516101006148438185018363ffffffff169052565b840151905061012061485a8482018361ffff169052565b84015161014084810191909152840151905061016061487c8185018315159052565b840151610180848101919091528401516101c06101a0808601829052919250906148aa6101e086018461428d565b908601518015158387015290925061349a565b600080604083850312156148d057600080fd5b8235915060208301356001600160401b038111156148ed57600080fd5b6148f9858286016144ec565b9150509250929050565b60006020828403121561491557600080fd5b81356001600160401b0381111561492b57600080fd5b613b49848285016144ec565b6000806040838503121561494a57600080fd5b8235614955816142cc565b91506020830135614965816142cc565b809150509250929050565b6000806000806080858703121561498657600080fd5b8435935060208501356001600160401b03808211156149a457600080fd5b6149b0888389016144ec565b945060408701359150808211156149c657600080fd5b6149d2888389016144ec565b935060608701359150808211156149e857600080fd5b506147d5878288016144ec565b600181811c90821680614a0957607f821691505b602082108103614a2957634e487b7160e01b600052602260045260246000fd5b50919050565b634e487b7160e01b600052601160045260246000fd5b600060018201614a5757614a57614a2f565b5060010190565b600060208284031215614a7057600080fd5b8151612a8e816142cc565b60006020808385031215614a8e57600080fd5b82516001600160401b0380821115614aa557600080fd5b818501915085601f830112614ab957600080fd5b815181811115614acb57614acb61441b565b8060051b9150614adc84830161445a565b8181529183018401918481019088841115614af657600080fd5b938501935b83851015614b1457845182529385019390850190614afb565b98975050505050505050565b634e487b7160e01b600052603260045260246000fd5b601f82111561115c576000816000526020600020601f850160051c81016020861015614b5f5750805b601f850160051c820191505b8181101561360857828155600101614b6b565b81516001600160401b03811115614b9757614b9761441b565b614bab81614ba584546149f5565b84614b36565b602080601f831160018114614be05760008415614bc85750858301515b600019600386901b1c1916600185901b178555613608565b600085815260208120601f198616915b82811015614c0f57888601518255948401946001909101908401614bf0565b5085821015614c2d5787850151600019600388901b60f8161c191681555b5050505050600190811b01905550565b6000614c4b61450b846144c5565b9050828152838383011115614c5f57600080fd5b612a8e836020830184614269565b600082601f830112614c7e57600080fd5b612a8e83835160208501614c3d565b600060208284031215614c9f57600080fd5b81516001600160401b03811115614cb557600080fd5b613b4984828501614c6d565b60008351614cd3818460208801614269565b835190830190614ce7818360208801614269565b7f3c672069643d226261636b7061636b547261697473223e0000000000000000009101908152601701949350505050565b60008551614d2a818460208a01614269565b855190830190614d3e818360208a01614269565b8551910190614d51818360208901614269565b8451910190614d64818360208801614269565b019695505050505050565b60008251614d81818460208701614269565b631e17b39f60e11b920191825250600401919050565b81810381811115610f0f57610f0f614a2f565b80820180821115610f0f57610f0f614a2f565b634e487b7160e01b600052601260045260246000fd5b600082614de257614de2614dbd565b500690565b6020808252602e908201527f4552433732313a2063616c6c6572206973206e6f7420746f6b656e206f776e6560408201526d1c881b9bdc88185c1c1c9bdd995960921b606082015260800190565b600080600060608486031215614e4a57600080fd5b83516001600160401b0380821115614e6157600080fd5b614e6d87838801614c6d565b94506020860151915080821115614e8357600080fd5b818601915086601f830112614e9757600080fd5b614ea687835160208501614c3d565b93506040860151915080821115614ebc57600080fd5b50614ec986828701614c6d565b9150509250925092565b60008351614ee5818460208801614269565b835190830190614ef9818360208801614269565b01949350505050565b600060208284031215614f1457600080fd5b5051919050565b6d2261747472696275746573223a5b60901b81528251600090614f4581600e850160208801614269565b600b60fa1b600e918401918201528351614f6681600f840160208801614269565b605d60f81b600f9290910191820152601001949350505050565b661e39ba3cb6329f60c91b81527f626f64792c207376677b206261636b67726f756e643a20230000000000000000600782015260008351614fc881601f850160208801614269565b6f3b207d2e6267207b2066696c6c3a202360801b601f918401918201528351614ff881602f840160208801614269565b623b207d60e81b602f9290910191820152671e17b9ba3cb6329f60c11b6032820152603a01949350505050565b87815260e06020820152600061503e60e083018961428d565b8281036040840152615050818961428d565b90508281036060840152615064818861428d565b90508281036080840152615078818761428d565b905082810360a084015261508c818661428d565b905082810360c08401528351604082526150a9604083018261428d565b9050602085015182820360208401526150c2828261428d565b9c9b505050505050505050505050565b600080604083850312156150e557600080fd5b82516001600160401b03808211156150fc57600080fd5b61510886838701614c6d565b9350602085015191508082111561511e57600080fd5b506148f985828601614c6d565b87815260e06020820152600061514460e083018961428d565b8281036040840152615156818961428d565b9050828103606084015261516a818861428d565b9050828103608084015261517e818761428d565b905082810360a0840152615192818661428d565b905082810360c08401526151a6818561428d565b9a9950505050505050505050565b6000826151c3576151c3614dbd565b500490565b8082028115828204841417610f0f57610f0f614a2f565b6040815260006151f2604083018561428d565b90508260208301529392505050565b60006020828403121561521357600080fd5b815160078110612a8e57600080fd5b634e487b7160e01b600052602160045260246000fd5b6e3d913a3930b4ba2fba3cb832911d1160891b8152825160009061526381600f850160208801614269565b6a1116113b30b63ab2911d1160a91b600f91840191820152835161528e81601a840160208801614269565b61227d60f01b601a9290910191820152601c01949350505050565b60208082526032908201527f4552433732313a207472616e7366657220746f206e6f6e20455243373231526560408201527131b2b4bb32b91034b6b83632b6b2b73a32b960711b606082015260800190565b6001600160a01b03858116825284166020820152604081018390526080606082018190526000906146919083018461428d565b60006020828403121561534057600080fd5b8151612a8e8161421d565b634e487b7160e01b600052603160045260246000fdfe3c7376673e3c7465787420783d22382220793d22313522207374796c653d22666f6e743a206e6f726d616c203270782073616e732d73657269663b2066696c6c3a20626c61636b3b223e436f6d696e6720536f6f6e2e2e2e3c2f746578743e3c2f7376673e8aea9baa1ab7209ce94784ac5f5149343f8d985fd4278de25a7b390989f2cf853c672069643d22416c6c20547261697473223e3c672069643d226261636b7061636b2220636c6173733d22636c6f736564223e3c7061746820643d224d302030204c33302030204c3330203330204c30203330205a222066696c6c3d227267622831322c203130392c203135372922202f3e3c7376672069643d226261636b7061636b5549222076696577426f783d223020302031323020313230223e203c7374796c653e2e75697b77696474683a3170783b206865696768743a203170783b2066696c6c3a77686974657d3c2f7374796c653e203c672069643d22636c6f736542746e22207472616e73666f726d3d227472616e736c61746528322c3229223e203c7265637420783d22312220793d22312220636c6173733d227569223e3c2f726563743e203c7265637420783d22322220793d22322220636c6173733d227569223e3c2f726563743e203c7265637420783d22332220793d22332220636c6173733d227569223e3c2f726563743e203c7265637420783d22342220793d22342220636c6173733d227569223e3c2f726563743e203c7265637420783d22352220793d22352220636c6173733d227569223e3c2f726563743e203c7265637420783d22352220793d22312220636c6173733d227569223e3c2f726563743e203c7265637420783d22342220793d22322220636c6173733d227569223e3c2f726563743e203c212d2d203c7265637420783d22332220793d2233222077696474683d223122206865696768743d2231222066696c6c3d227768697465223e3c2f726563743e202d2d3e203c7265637420783d22322220793d22342220636c6173733d227569223e3c2f726563743e203c7265637420783d22312220793d22352220636c6173733d227569223e3c2f726563743e203c2f673e203c672069643d226c65667442746e2220636c6173733d22627574746f6e22207472616e73666f726d3d227472616e736c6174652834352c31313029223e203c7061746820643d224d302030204c362030204c362036204c302036205a222066696c6c3d227472616e73706172656e7422202f3e203c7265637420783d22322220793d22302220636c6173733d227569223e3c2f726563743e203c7265637420783d22312220793d22312220636c6173733d227569223e3c2f726563743e203c7265637420783d22302220793d22322220636c6173733d227569223e3c2f726563743e203c7265637420783d22312220793d22332220636c6173733d227569223e3c2f726563743e203c7265637420783d22322220793d22342220636c6173733d227569223e3c2f726563743e203c2f673e203c672069643d22726967687442746e2220636c6173733d22627574746f6e22207472616e73666f726d3d227472616e736c6174652836352c31313029223e203c7061746820643d224d302030204c362030204c362036204c302036205a222066696c6c3d227472616e73706172656e7422202f3e203c7265637420783d22332220793d22302220636c6173733d227569223e3c2f726563743e203c7265637420783d22342220793d22312220636c6173733d227569223e3c2f726563743e203c7265637420783d22352220793d22322220636c6173733d227569223e3c2f726563743e203c7265637420783d22342220793d22332220636c6173733d227569223e3c2f726563743e203c7265637420783d22332220793d22342220636c6173733d227569223e3c2f726563743e203c2f673e203c2f7376673e20a26469706673582212205cedac74f95687fb53da4fc7b6b66a9483b3d724d11646d3b5faab7c856d6aa864736f6c63430008160033","linkReferences":{}},"methodIdentifiers":{"MAX_TRAITS_TO_OUTPUT()":"20e0b93c","_debugPostConstructorMint()":"9c7be2f1","addNewBody(uint256,string,bytes,bytes)":"f2361e23","approve(address,uint256)":"095ea7b3","balanceOf(address)":"70a08231","bodyIndexToMetadata(uint256)":"0c83f9d7","buyTrait(uint256)":"6273ca2c","cancelOwnershipHandover()":"54d1f13d","completeOwnershipHandover(address)":"f04e283e","equipAll(uint256,uint256,uint256,uint256,uint256,uint256,uint256,uint256)":"4a4333a3","equipGlasses(uint256,uint256)":"21468d02","equipHair(uint256,uint256)":"94cbd9c4","equipHandheld(uint256,uint256)":"f225dc40","equipHat(uint256,uint256)":"e5a68261","equipPants(uint256,uint256)":"5a5474dd","equipShirt(uint256,uint256)":"a860c96c","equipShoes(uint256,uint256)":"60b77b23","firstSeasonRenderMinter()":"13ea0ae3","getApproved(uint256)":"081812fc","getBackpackSVGs(uint256)":"14fe8ff4","getBodyImage(bytes)":"e37db3c2","getBodyImageSvg(uint256)":"916c546b","getBodySVGZmapsAndMetadata((uint256,uint256,uint256,uint256,uint256,uint256,uint256,uint32,uint16,uint256,bool,uint256,string,bool))":"45d2d7bd","getBodySvgAndMetadata((uint256,uint256,uint256,uint256,uint256,uint256,uint256,uint32,uint16,uint256,bool,uint256,string,bool))":"661ee23a","getBodyZMap(uint256)":"306c7334","getEpoch()":"757991a8","getEpochData(uint256)":"859e7d32","getOwnerAndTBAAddressForTokenId(uint256)":"cc9a5d37","getPeter(uint256)":"be928ff6","getPeterZMap(uint256)":"2bd1ca45","getTraitTokens(address)":"998cfb6e","isApprovedForAll(address,address)":"e985e9c5","mainRenderer()":"66b89b5a","mint()":"1249c58b","name()":"06fdde03","owner()":"8da5cb5b","ownerOf(uint256)":"6352211e","ownershipHandoverExpiresAt(address)":"fee81cf4","price()":"a035b1fe","renderAsDataUri(uint256)":"a1d62680","renderAsDataUriSVG(uint256)":"b28fbe40","renderAsDataUriZ(uint256)":"7557f2dc","renounceOwnership()":"715018a6","requestOwnershipHandover()":"25692962","resolveEpochIfNecessary()":"239ffa68","safeTransferFrom(address,address,uint256)":"42842e0e","safeTransferFrom(address,address,uint256,bytes)":"b88d4fde","setApprovalForAll(address,bool)":"a22cb465","setBackgroundColor(uint256,string)":"d68c4f32","setBodyIndex(uint256,uint256)":"457e7e61","setFirstSeasonRenderMinter(address)":"58a97640","setMainRenderer(address)":"4ddb3961","setMaxTraitsToOutput(uint256)":"33d3d9bf","setPrice(uint256)":"91b7f5ed","setRenderZ(uint256,bool)":"b53d1fd7","setTraitsContract(address)":"5eabd84a","setZRenderer(address)":"172b054d","supportsInterface(bytes4)":"01ffc9a7","symbol()":"95d89b41","tokenByIndex(uint256)":"4f6ccce7","tokenIdToTBAAccountAddress(uint256)":"9c05d68d","tokenOfOwnerByIndex(address,uint256)":"2f745c59","tokenURI(uint256)":"c87b56dd","totalSupply()":"18160ddd","traitsContract()":"c093afdb","transferFrom(address,address,uint256)":"23b872dd","transferOwnership(address)":"f2fde38b","unequipAll(uint256)":"3044825b","unequipGlasses(uint256)":"3fdc97fd","unequipHair(uint256)":"105338e0","unequipHandheld(uint256)":"7365eea8","unequipHat(uint256)":"b5282793","unequipPants(uint256)":"06e02a35","unequipShirt(uint256)":"a959bb1d","unequipShoes(uint256)":"58180d35","walletOfOwner(address)":"438b6300","zRenderer()":"a15c561b"},"id":39}