{"abi":[{"type":"constructor","inputs":[{"name":"localDeploy_","type":"bool","internalType":"bool"}],"stateMutability":"nonpayable"},{"type":"function","name":"_debugPostConstructorMint","inputs":[],"outputs":[],"stateMutability":"nonpayable"},{"type":"function","name":"addNewBody","inputs":[{"name":"_bodyIndex","type":"uint256","internalType":"uint256"},{"name":"_bodyName","type":"string","internalType":"string"},{"name":"_colorMap","type":"bytes","internalType":"bytes"},{"name":"_zMap","type":"bytes","internalType":"bytes"}],"outputs":[],"stateMutability":"nonpayable"},{"type":"function","name":"approve","inputs":[{"name":"to","type":"address","internalType":"address"},{"name":"tokenId","type":"uint256","internalType":"uint256"}],"outputs":[],"stateMutability":"nonpayable"},{"type":"function","name":"balanceOf","inputs":[{"name":"owner","type":"address","internalType":"address"}],"outputs":[{"name":"","type":"uint256","internalType":"uint256"}],"stateMutability":"view"},{"type":"function","name":"bodyIndexToMetadata","inputs":[{"name":"","type":"uint256","internalType":"uint256"}],"outputs":[{"name":"bodyIndex","type":"uint256","internalType":"uint256"},{"name":"bodyName","type":"string","internalType":"string"},{"name":"colorMap","type":"bytes","internalType":"bytes"},{"name":"zMap","type":"bytes","internalType":"bytes"}],"stateMutability":"view"},{"type":"function","name":"buyTrait","inputs":[{"name":"_tokenId","type":"uint256","internalType":"uint256"}],"outputs":[],"stateMutability":"nonpayable"},{"type":"function","name":"cancelOwnershipHandover","inputs":[],"outputs":[],"stateMutability":"payable"},{"type":"function","name":"completeOwnershipHandover","inputs":[{"name":"pendingOwner","type":"address","internalType":"address"}],"outputs":[],"stateMutability":"payable"},{"type":"function","name":"equipAccessory","inputs":[{"name":"_peterTokenId","type":"uint256","internalType":"uint256"},{"name":"_traitTokenId","type":"uint256","internalType":"uint256"}],"outputs":[],"stateMutability":"nonpayable"},{"type":"function","name":"equipAll","inputs":[{"name":"_peterTokenId","type":"uint256","internalType":"uint256"},{"name":"_headTokenId","type":"uint256","internalType":"uint256"},{"name":"_hairTokenId","type":"uint256","internalType":"uint256"},{"name":"_faceTokenId","type":"uint256","internalType":"uint256"},{"name":"_accessoryTokenId","type":"uint256","internalType":"uint256"},{"name":"_topTokenId","type":"uint256","internalType":"uint256"},{"name":"_bottomTokenId","type":"uint256","internalType":"uint256"},{"name":"_shoesTokenId","type":"uint256","internalType":"uint256"}],"outputs":[],"stateMutability":"nonpayable"},{"type":"function","name":"equipBottom","inputs":[{"name":"_peterTokenId","type":"uint256","internalType":"uint256"},{"name":"_traitTokenId","type":"uint256","internalType":"uint256"}],"outputs":[],"stateMutability":"nonpayable"},{"type":"function","name":"equipFace","inputs":[{"name":"_peterTokenId","type":"uint256","internalType":"uint256"},{"name":"_traitTokenId","type":"uint256","internalType":"uint256"}],"outputs":[],"stateMutability":"nonpayable"},{"type":"function","name":"equipHair","inputs":[{"name":"_peterTokenId","type":"uint256","internalType":"uint256"},{"name":"_traitTokenId","type":"uint256","internalType":"uint256"}],"outputs":[],"stateMutability":"nonpayable"},{"type":"function","name":"equipHead","inputs":[{"name":"_peterTokenId","type":"uint256","internalType":"uint256"},{"name":"_traitTokenId","type":"uint256","internalType":"uint256"}],"outputs":[],"stateMutability":"nonpayable"},{"type":"function","name":"equipShoes","inputs":[{"name":"_peterTokenId","type":"uint256","internalType":"uint256"},{"name":"_traitTokenId","type":"uint256","internalType":"uint256"}],"outputs":[],"stateMutability":"nonpayable"},{"type":"function","name":"equipTop","inputs":[{"name":"_peterTokenId","type":"uint256","internalType":"uint256"},{"name":"_traitTokenId","type":"uint256","internalType":"uint256"}],"outputs":[],"stateMutability":"nonpayable"},{"type":"function","name":"firstSeasonRenderMinter","inputs":[],"outputs":[{"name":"","type":"address","internalType":"contract FirstSeasonRenderMinter"}],"stateMutability":"view"},{"type":"function","name":"getApproved","inputs":[{"name":"tokenId","type":"uint256","internalType":"uint256"}],"outputs":[{"name":"","type":"address","internalType":"address"}],"stateMutability":"view"},{"type":"function","name":"getBackpackSVGs","inputs":[{"name":"_tokenId","type":"uint256","internalType":"uint256"}],"outputs":[{"name":"backpackSVGs","type":"string","internalType":"string"}],"stateMutability":"view"},{"type":"function","name":"getBodyImage","inputs":[{"name":"colorMap","type":"bytes","internalType":"bytes"}],"outputs":[{"name":"","type":"bytes","internalType":"bytes"}],"stateMutability":"pure"},{"type":"function","name":"getBodyImageSvg","inputs":[{"name":"_index","type":"uint256","internalType":"uint256"}],"outputs":[{"name":"svg","type":"string","internalType":"string"}],"stateMutability":"view"},{"type":"function","name":"getBodySVGZmapsAndMetadata","inputs":[{"name":"storedPeter","type":"tuple","internalType":"struct IPeterStorage.StoredPeter","components":[{"name":"headId","type":"uint256","internalType":"uint256"},{"name":"hairId","type":"uint256","internalType":"uint256"},{"name":"faceId","type":"uint256","internalType":"uint256"},{"name":"accessoryId","type":"uint256","internalType":"uint256"},{"name":"topId","type":"uint256","internalType":"uint256"},{"name":"bottomId","type":"uint256","internalType":"uint256"},{"name":"shoesId","type":"uint256","internalType":"uint256"},{"name":"epoch","type":"uint32","internalType":"uint32"},{"name":"tokenId","type":"uint256","internalType":"uint256"},{"name":"bodyIndex","type":"uint8","internalType":"uint8"},{"name":"backgroundColor","type":"string","internalType":"string"},{"name":"renderZ","type":"bool","internalType":"bool"}]}],"outputs":[{"name":"","type":"string","internalType":"string"},{"name":"","type":"bytes","internalType":"bytes"},{"name":"","type":"string","internalType":"string"}],"stateMutability":"view"},{"type":"function","name":"getBodySvgAndMetadata","inputs":[{"name":"storedPeter","type":"tuple","internalType":"struct IPeterStorage.StoredPeter","components":[{"name":"headId","type":"uint256","internalType":"uint256"},{"name":"hairId","type":"uint256","internalType":"uint256"},{"name":"faceId","type":"uint256","internalType":"uint256"},{"name":"accessoryId","type":"uint256","internalType":"uint256"},{"name":"topId","type":"uint256","internalType":"uint256"},{"name":"bottomId","type":"uint256","internalType":"uint256"},{"name":"shoesId","type":"uint256","internalType":"uint256"},{"name":"epoch","type":"uint32","internalType":"uint32"},{"name":"tokenId","type":"uint256","internalType":"uint256"},{"name":"bodyIndex","type":"uint8","internalType":"uint8"},{"name":"backgroundColor","type":"string","internalType":"string"},{"name":"renderZ","type":"bool","internalType":"bool"}]}],"outputs":[{"name":"","type":"string","internalType":"string"},{"name":"","type":"string","internalType":"string"}],"stateMutability":"view"},{"type":"function","name":"getBodyZMap","inputs":[{"name":"_tokenId","type":"uint256","internalType":"uint256"}],"outputs":[{"name":"","type":"string","internalType":"string"}],"stateMutability":"view"},{"type":"function","name":"getFullPictureForTrait","inputs":[{"name":"_chonkTraitTokenId","type":"uint256","internalType":"uint256"}],"outputs":[{"name":"traitOwnerTBA","type":"address","internalType":"address"},{"name":"chonkTokenId","type":"uint256","internalType":"uint256"},{"name":"chonkOwner","type":"address","internalType":"address"}],"stateMutability":"view"},{"type":"function","name":"getOwnerAndTBAAddressForChonkId","inputs":[{"name":"_tokenId","type":"uint256","internalType":"uint256"}],"outputs":[{"name":"owner","type":"address","internalType":"address"},{"name":"tbaAddress","type":"address","internalType":"address"}],"stateMutability":"view"},{"type":"function","name":"getPeter","inputs":[{"name":"_tokenId","type":"uint256","internalType":"uint256"}],"outputs":[{"name":"","type":"tuple","internalType":"struct IPeterStorage.StoredPeter","components":[{"name":"headId","type":"uint256","internalType":"uint256"},{"name":"hairId","type":"uint256","internalType":"uint256"},{"name":"faceId","type":"uint256","internalType":"uint256"},{"name":"accessoryId","type":"uint256","internalType":"uint256"},{"name":"topId","type":"uint256","internalType":"uint256"},{"name":"bottomId","type":"uint256","internalType":"uint256"},{"name":"shoesId","type":"uint256","internalType":"uint256"},{"name":"epoch","type":"uint32","internalType":"uint32"},{"name":"tokenId","type":"uint256","internalType":"uint256"},{"name":"bodyIndex","type":"uint8","internalType":"uint8"},{"name":"backgroundColor","type":"string","internalType":"string"},{"name":"renderZ","type":"bool","internalType":"bool"}]}],"stateMutability":"view"},{"type":"function","name":"getPeterZMap","inputs":[{"name":"_tokenId","type":"uint256","internalType":"uint256"}],"outputs":[{"name":"","type":"string","internalType":"string"}],"stateMutability":"view"},{"type":"function","name":"getTBAAddressForTokenId","inputs":[{"name":"_tokenId","type":"uint256","internalType":"uint256"}],"outputs":[{"name":"","type":"address","internalType":"address"}],"stateMutability":"view"},{"type":"function","name":"getTokenRenderZ","inputs":[{"name":"_peterTokenId","type":"uint256","internalType":"uint256"}],"outputs":[{"name":"","type":"bool","internalType":"bool"}],"stateMutability":"view"},{"type":"function","name":"getTraitTokens","inputs":[{"name":"_tbaAddress","type":"address","internalType":"address"}],"outputs":[{"name":"","type":"uint256[]","internalType":"uint256[]"}],"stateMutability":"view"},{"type":"function","name":"getTraitsForChonkId","inputs":[{"name":"_tokenId","type":"uint256","internalType":"uint256"}],"outputs":[{"name":"traitTokens","type":"uint256[]","internalType":"uint256[]"}],"stateMutability":"view"},{"type":"function","name":"isApprovedForAll","inputs":[{"name":"owner","type":"address","internalType":"address"},{"name":"operator","type":"address","internalType":"address"}],"outputs":[{"name":"","type":"bool","internalType":"bool"}],"stateMutability":"view"},{"type":"function","name":"mainRenderer","inputs":[],"outputs":[{"name":"","type":"address","internalType":"contract MainRenderer"}],"stateMutability":"view"},{"type":"function","name":"marketplace","inputs":[],"outputs":[{"name":"","type":"address","internalType":"contract ChonksMarket"}],"stateMutability":"view"},{"type":"function","name":"mint","inputs":[],"outputs":[],"stateMutability":"payable"},{"type":"function","name":"mintByLevel","inputs":[{"name":"amount","type":"uint8","internalType":"uint8"},{"name":"nonce","type":"string","internalType":"string"},{"name":"signature","type":"bytes","internalType":"bytes"}],"outputs":[],"stateMutability":"payable"},{"type":"function","name":"name","inputs":[],"outputs":[{"name":"","type":"string","internalType":"string"}],"stateMutability":"view"},{"type":"function","name":"owner","inputs":[],"outputs":[{"name":"result","type":"address","internalType":"address"}],"stateMutability":"view"},{"type":"function","name":"ownerOf","inputs":[{"name":"tokenId","type":"uint256","internalType":"uint256"}],"outputs":[{"name":"","type":"address","internalType":"address"}],"stateMutability":"view"},{"type":"function","name":"ownershipHandoverExpiresAt","inputs":[{"name":"pendingOwner","type":"address","internalType":"address"}],"outputs":[{"name":"result","type":"uint256","internalType":"uint256"}],"stateMutability":"view"},{"type":"function","name":"peterMakeover","inputs":[{"name":"_peterTokenId","type":"uint256","internalType":"uint256"},{"name":"_headTokenId","type":"uint256","internalType":"uint256"},{"name":"_hairTokenId","type":"uint256","internalType":"uint256"},{"name":"_faceTokenId","type":"uint256","internalType":"uint256"},{"name":"_accessoryTokenId","type":"uint256","internalType":"uint256"},{"name":"_topTokenId","type":"uint256","internalType":"uint256"},{"name":"_bottomTokenId","type":"uint256","internalType":"uint256"},{"name":"_shoesTokenId","type":"uint256","internalType":"uint256"},{"name":"_bodyIndex","type":"uint8","internalType":"uint8"},{"name":"_backgroundColor","type":"string","internalType":"string"}],"outputs":[],"stateMutability":"nonpayable"},{"type":"function","name":"price","inputs":[],"outputs":[{"name":"","type":"uint256","internalType":"uint256"}],"stateMutability":"view"},{"type":"function","name":"renderAsDataUri","inputs":[{"name":"_tokenId","type":"uint256","internalType":"uint256"}],"outputs":[{"name":"","type":"string","internalType":"string"}],"stateMutability":"view"},{"type":"function","name":"renderAsDataUriSVG","inputs":[{"name":"_tokenId","type":"uint256","internalType":"uint256"}],"outputs":[{"name":"","type":"string","internalType":"string"}],"stateMutability":"view"},{"type":"function","name":"renderAsDataUriZ","inputs":[{"name":"_tokenId","type":"uint256","internalType":"uint256"}],"outputs":[{"name":"","type":"string","internalType":"string"}],"stateMutability":"view"},{"type":"function","name":"renounceOwnership","inputs":[],"outputs":[],"stateMutability":"payable"},{"type":"function","name":"requestOwnershipHandover","inputs":[],"outputs":[],"stateMutability":"payable"},{"type":"function","name":"safeTransferFrom","inputs":[{"name":"from","type":"address","internalType":"address"},{"name":"to","type":"address","internalType":"address"},{"name":"tokenId","type":"uint256","internalType":"uint256"}],"outputs":[],"stateMutability":"nonpayable"},{"type":"function","name":"safeTransferFrom","inputs":[{"name":"from","type":"address","internalType":"address"},{"name":"to","type":"address","internalType":"address"},{"name":"tokenId","type":"uint256","internalType":"uint256"},{"name":"data","type":"bytes","internalType":"bytes"}],"outputs":[],"stateMutability":"nonpayable"},{"type":"function","name":"setApprovalForAll","inputs":[{"name":"operator","type":"address","internalType":"address"},{"name":"approved","type":"bool","internalType":"bool"}],"outputs":[],"stateMutability":"nonpayable"},{"type":"function","name":"setBackgroundColor","inputs":[{"name":"_peterTokenId","type":"uint256","internalType":"uint256"},{"name":"_color","type":"string","internalType":"string"}],"outputs":[],"stateMutability":"nonpayable"},{"type":"function","name":"setBodyIndex","inputs":[{"name":"_peterTokenId","type":"uint256","internalType":"uint256"},{"name":"_bodyIndex","type":"uint8","internalType":"uint8"}],"outputs":[],"stateMutability":"nonpayable"},{"type":"function","name":"setFirstSeasonRenderMinter","inputs":[{"name":"_dataContract","type":"address","internalType":"address"}],"outputs":[],"stateMutability":"nonpayable"},{"type":"function","name":"setMainRenderer","inputs":[{"name":"_mainRenderer","type":"address","internalType":"address"}],"outputs":[],"stateMutability":"nonpayable"},{"type":"function","name":"setMarketplace","inputs":[{"name":"_marketplace","type":"address","internalType":"address"}],"outputs":[],"stateMutability":"nonpayable"},{"type":"function","name":"setMaxTraitsToOutput","inputs":[{"name":"_maxTraitsToOutput","type":"uint256","internalType":"uint256"}],"outputs":[],"stateMutability":"nonpayable"},{"type":"function","name":"setPrice","inputs":[{"name":"_priceInWei","type":"uint256","internalType":"uint256"}],"outputs":[],"stateMutability":"nonpayable"},{"type":"function","name":"setSystemAddress","inputs":[{"name":"_systemAddress","type":"address","internalType":"address"}],"outputs":[],"stateMutability":"nonpayable"},{"type":"function","name":"setTokenRenderZ","inputs":[{"name":"_peterTokenId","type":"uint256","internalType":"uint256"},{"name":"_renderZ","type":"bool","internalType":"bool"}],"outputs":[],"stateMutability":"nonpayable"},{"type":"function","name":"setTraitsContract","inputs":[{"name":"_address","type":"address","internalType":"contract PeterTraits"}],"outputs":[],"stateMutability":"nonpayable"},{"type":"function","name":"setZRenderer","inputs":[{"name":"_zRenderer","type":"address","internalType":"address"}],"outputs":[],"stateMutability":"nonpayable"},{"type":"function","name":"supportsInterface","inputs":[{"name":"interfaceId","type":"bytes4","internalType":"bytes4"}],"outputs":[{"name":"","type":"bool","internalType":"bool"}],"stateMutability":"view"},{"type":"function","name":"symbol","inputs":[],"outputs":[{"name":"","type":"string","internalType":"string"}],"stateMutability":"view"},{"type":"function","name":"tbaAddressToTokenId","inputs":[{"name":"","type":"address","internalType":"address"}],"outputs":[{"name":"","type":"uint256","internalType":"uint256"}],"stateMutability":"view"},{"type":"function","name":"tokenByIndex","inputs":[{"name":"index","type":"uint256","internalType":"uint256"}],"outputs":[{"name":"","type":"uint256","internalType":"uint256"}],"stateMutability":"view"},{"type":"function","name":"tokenIdToTBAAccountAddress","inputs":[{"name":"","type":"uint256","internalType":"uint256"}],"outputs":[{"name":"","type":"address","internalType":"address"}],"stateMutability":"view"},{"type":"function","name":"tokenOfOwnerByIndex","inputs":[{"name":"owner","type":"address","internalType":"address"},{"name":"index","type":"uint256","internalType":"uint256"}],"outputs":[{"name":"","type":"uint256","internalType":"uint256"}],"stateMutability":"view"},{"type":"function","name":"tokenURI","inputs":[{"name":"_tokenId","type":"uint256","internalType":"uint256"}],"outputs":[{"name":"","type":"string","internalType":"string"}],"stateMutability":"view"},{"type":"function","name":"totalSupply","inputs":[],"outputs":[{"name":"","type":"uint256","internalType":"uint256"}],"stateMutability":"view"},{"type":"function","name":"traitsContract","inputs":[],"outputs":[{"name":"","type":"address","internalType":"contract PeterTraits"}],"stateMutability":"view"},{"type":"function","name":"transferFrom","inputs":[{"name":"from","type":"address","internalType":"address"},{"name":"to","type":"address","internalType":"address"},{"name":"tokenId","type":"uint256","internalType":"uint256"}],"outputs":[],"stateMutability":"nonpayable"},{"type":"function","name":"transferOwnership","inputs":[{"name":"newOwner","type":"address","internalType":"address"}],"outputs":[],"stateMutability":"payable"},{"type":"function","name":"unequipAccessory","inputs":[{"name":"_peterTokenId","type":"uint256","internalType":"uint256"}],"outputs":[],"stateMutability":"nonpayable"},{"type":"function","name":"unequipAll","inputs":[{"name":"_peterTokenId","type":"uint256","internalType":"uint256"}],"outputs":[],"stateMutability":"nonpayable"},{"type":"function","name":"unequipBottom","inputs":[{"name":"_peterTokenId","type":"uint256","internalType":"uint256"}],"outputs":[],"stateMutability":"nonpayable"},{"type":"function","name":"unequipFace","inputs":[{"name":"_peterTokenId","type":"uint256","internalType":"uint256"}],"outputs":[],"stateMutability":"nonpayable"},{"type":"function","name":"unequipHair","inputs":[{"name":"_peterTokenId","type":"uint256","internalType":"uint256"}],"outputs":[],"stateMutability":"nonpayable"},{"type":"function","name":"unequipHead","inputs":[{"name":"_peterTokenId","type":"uint256","internalType":"uint256"}],"outputs":[],"stateMutability":"nonpayable"},{"type":"function","name":"unequipShoes","inputs":[{"name":"_peterTokenId","type":"uint256","internalType":"uint256"}],"outputs":[],"stateMutability":"nonpayable"},{"type":"function","name":"unequipTop","inputs":[{"name":"_peterTokenId","type":"uint256","internalType":"uint256"}],"outputs":[],"stateMutability":"nonpayable"},{"type":"function","name":"walletOfOwner","inputs":[{"name":"_owner","type":"address","internalType":"address"}],"outputs":[{"name":"","type":"uint256[]","internalType":"uint256[]"}],"stateMutability":"view"},{"type":"function","name":"zRenderer","inputs":[],"outputs":[{"name":"","type":"address","internalType":"contract ZRenderer"}],"stateMutability":"view"},{"type":"event","name":"Approval","inputs":[{"name":"owner","type":"address","indexed":true,"internalType":"address"},{"name":"approved","type":"address","indexed":true,"internalType":"address"},{"name":"tokenId","type":"uint256","indexed":true,"internalType":"uint256"}],"anonymous":false},{"type":"event","name":"ApprovalForAll","inputs":[{"name":"owner","type":"address","indexed":true,"internalType":"address"},{"name":"operator","type":"address","indexed":true,"internalType":"address"},{"name":"approved","type":"bool","indexed":false,"internalType":"bool"}],"anonymous":false},{"type":"event","name":"BackgroundColor","inputs":[{"name":"owner","type":"address","indexed":true,"internalType":"address"},{"name":"tokenId","type":"uint256","indexed":true,"internalType":"uint256"},{"name":"color","type":"string","indexed":false,"internalType":"string"}],"anonymous":false},{"type":"event","name":"BatchMetadataUpdate","inputs":[{"name":"_fromTokenId","type":"uint256","indexed":false,"internalType":"uint256"},{"name":"_toTokenId","type":"uint256","indexed":false,"internalType":"uint256"}],"anonymous":false},{"type":"event","name":"BodyIndex","inputs":[{"name":"owner","type":"address","indexed":true,"internalType":"address"},{"name":"tokenId","type":"uint256","indexed":true,"internalType":"uint256"},{"name":"_bodyIndex","type":"uint8","indexed":false,"internalType":"uint8"}],"anonymous":false},{"type":"event","name":"Equip","inputs":[{"name":"owner","type":"address","indexed":true,"internalType":"address"},{"name":"tokenId","type":"uint256","indexed":true,"internalType":"uint256"},{"name":"traitTokenId","type":"uint256","indexed":true,"internalType":"uint256"},{"name":"traitCategory","type":"string","indexed":false,"internalType":"string"}],"anonymous":false},{"type":"event","name":"EquipAll","inputs":[{"name":"owner","type":"address","indexed":true,"internalType":"address"},{"name":"tokenId","type":"uint256","indexed":true,"internalType":"uint256"}],"anonymous":false},{"type":"event","name":"MetadataUpdate","inputs":[{"name":"_tokenId","type":"uint256","indexed":false,"internalType":"uint256"}],"anonymous":false},{"type":"event","name":"Mint","inputs":[{"name":"owner","type":"address","indexed":true,"internalType":"address"},{"name":"tokenId","type":"uint256","indexed":true,"internalType":"uint256"}],"anonymous":false},{"type":"event","name":"OwnershipHandoverCanceled","inputs":[{"name":"pendingOwner","type":"address","indexed":true,"internalType":"address"}],"anonymous":false},{"type":"event","name":"OwnershipHandoverRequested","inputs":[{"name":"pendingOwner","type":"address","indexed":true,"internalType":"address"}],"anonymous":false},{"type":"event","name":"OwnershipTransferred","inputs":[{"name":"oldOwner","type":"address","indexed":true,"internalType":"address"},{"name":"newOwner","type":"address","indexed":true,"internalType":"address"}],"anonymous":false},{"type":"event","name":"RenderZ","inputs":[{"name":"owner","type":"address","indexed":true,"internalType":"address"},{"name":"tokenId","type":"uint256","indexed":true,"internalType":"uint256"},{"name":"renderZ","type":"bool","indexed":false,"internalType":"bool"}],"anonymous":false},{"type":"event","name":"Transfer","inputs":[{"name":"from","type":"address","indexed":true,"internalType":"address"},{"name":"to","type":"address","indexed":true,"internalType":"address"},{"name":"tokenId","type":"uint256","indexed":true,"internalType":"uint256"}],"anonymous":false},{"type":"event","name":"Unequip","inputs":[{"name":"owner","type":"address","indexed":true,"internalType":"address"},{"name":"tokenId","type":"uint256","indexed":true,"internalType":"uint256"},{"name":"traitCategory","type":"string","indexed":true,"internalType":"string"}],"anonymous":false},{"type":"event","name":"UnequipAll","inputs":[{"name":"owner","type":"address","indexed":true,"internalType":"address"},{"name":"tokenId","type":"uint256","indexed":true,"internalType":"uint256"}],"anonymous":false},{"type":"error","name":"AlreadyInitialized","inputs":[]},{"type":"error","name":"BodyAlreadyExists","inputs":[]},{"type":"error","name":"FirstSeasonRenderMinterNotSet","inputs":[]},{"type":"error","name":"IncorrectPeterOwner","inputs":[]},{"type":"error","name":"IncorrectTBAOwner","inputs":[]},{"type":"error","name":"IncorrectTraitType","inputs":[]},{"type":"error","name":"InvalidBodyIndex","inputs":[]},{"type":"error","name":"InvalidColor","inputs":[]},{"type":"error","name":"InvalidLevelAmount","inputs":[]},{"type":"error","name":"InvalidSignature","inputs":[]},{"type":"error","name":"NewOwnerIsZeroAddress","inputs":[]},{"type":"error","name":"NoHandoverRequest","inputs":[]},{"type":"error","name":"NonceAlreadyUsed","inputs":[]},{"type":"error","name":"PeterDoesntExist","inputs":[]},{"type":"error","name":"Unauthorized","inputs":[]}],"bytecode":{"object":"0x608060405260636013553480156200001657600080fd5b50604051620067d2380380620067d2833981016040819052620000399162000101565b6040518060400160405280600a81526020016914195d195c8815195cdd60b21b815250604051806040016040528060058152602001642822aa22a960d91b81525081600090816200008b9190620001d3565b5060016200009a8282620001d3565b505050620000ae33620000c560201b60201c565b600a805460ff19169115159190911790556200029f565b6001600160a01b0316638b78c6d8198190558060007f8be0079c531659141344cd1fd0a4f28419497f9722a3daafe3b4186f6b6457e08180a350565b6000602082840312156200011457600080fd5b815180151581146200012557600080fd5b9392505050565b634e487b7160e01b600052604160045260246000fd5b600181811c908216806200015757607f821691505b6020821081036200017857634e487b7160e01b600052602260045260246000fd5b50919050565b601f821115620001ce576000816000526020600020601f850160051c81016020861015620001a95750805b601f850160051c820191505b81811015620001ca57828155600101620001b5565b5050505b505050565b81516001600160401b03811115620001ef57620001ef6200012c565b620002078162000200845462000142565b846200017e565b602080601f8311600181146200023f5760008415620002265750858301515b600019600386901b1c1916600185901b178555620001ca565b600085815260208120601f198616915b8281101562000270578886015182559484019460019091019084016200024f565b50858210156200028f5787850151600019600388901b60f8161c191681555b5050505050600190811b01905550565b61652380620002af6000396000f3fe6080604052600436106104945760003560e01c8063715018a611610260578063a22cb46511610144578063cef80d4a116100c1578063e985e9c511610085578063e985e9c514610eb3578063f04e283e14610efc578063f18dc22d14610f0f578063f2361e2314610f2f578063f2fde38b14610f4f578063fee81cf414610f6257600080fd5b8063cef80d4a14610e20578063d5b55c8b14610e33578063d68c4f3214610e53578063e140554014610e73578063e37db3c214610e9357600080fd5b8063b88d4fde11610108578063b88d4fde14610d53578063be928ff614610d73578063c093afdb14610da0578063c87b56dd14610dc0578063cc9a5d3714610de057600080fd5b8063a22cb46514610c98578063a23830ae14610cb8578063a4bf9a0014610ce6578063abc8c7af14610d13578063b28fbe4014610d3357600080fd5b806392012f08116101dd5780639c05d68d116101a15780639c05d68d14610bd75780639c76201514610c0d5780639c7be2f114610c2d578063a035b1fe14610c42578063a15c561b14610c58578063a1d6268014610c7857600080fd5b806392012f0814610b3357806393ccba7214610b6257806394cbd9c414610b8257806395d89b4114610ba2578063998cfb6e14610bb757600080fd5b8063850ad51a11610224578063850ad51a14610a845780638da5cb5b14610aa45780638e29d3e914610abd578063916c546b14610af357806391b7f5ed14610b1357600080fd5b8063715018a6146109e857806373ad6c2d146109f05780637557f2dc14610a105780637afe8d3414610a305780638200ea5114610a5057600080fd5b80632f745c59116103875780634f6ccce71161030457806360b77b23116102c857806360b77b23146108fe5780636273ca2c1461091e5780636352211e1461093e578063667043491461095e57806366b89b5a146109a857806370a08231146109c857600080fd5b80634f6ccce71461087657806354d1f13d1461089657806358180d351461089e57806358a97640146108be5780635eabd84a146108de57600080fd5b806342842e0e1161034b57806342842e0e146107c9578063438b6300146107e957806345a10d0f146108165780634a4333a3146108365780634ddb39611461085657600080fd5b80632f745c59146107295780633044825b14610749578063306c73341461076957806333d3d9bf14610789578063347bd8f4146107a957600080fd5b80631249c58b116104155780631e162a33116103d95780631e162a33146106a157806323b872dd146106c157806325692962146106e1578063293ed3f7146106e95780632bd1ca451461070957600080fd5b80631249c58b1461061a57806313ea0ae31461062257806314fe8ff414610642578063172b054d1461066257806318160ddd1461068257600080fd5b8063081812fc1161045c578063081812fc14610552578063095ea7b31461058a5780630c83f9d7146105aa5780630f162320146105da578063105338e0146105fa57600080fd5b806301ffc9a7146104995780630447a45e146104ce57806306210197146104f057806306fdde031461051057806307f4e04514610532575b600080fd5b3480156104a557600080fd5b506104b96104b4366004614cc1565b610f95565b60405190151581526020015b60405180910390f35b3480156104da57600080fd5b506104ee6104e9366004614cde565b610fa6565b005b3480156104fc57600080fd5b506104ee61050b366004614d15565b611028565b34801561051c57600080fd5b50610525611052565b6040516104c59190614d82565b34801561053e57600080fd5b506104ee61054d366004614daa565b6110e4565b34801561055e57600080fd5b5061057261056d366004614dd6565b61115d565b6040516001600160a01b0390911681526020016104c5565b34801561059657600080fd5b506104ee6105a5366004614def565b611184565b3480156105b657600080fd5b506105ca6105c5366004614dd6565b61129e565b6040516104c59493929190614e1b565b3480156105e657600080fd5b506104ee6105f5366004614cde565b61145f565b34801561060657600080fd5b506104ee610615366004614dd6565b6114d0565b6104ee611548565b34801561062e57600080fd5b50601654610572906001600160a01b031681565b34801561064e57600080fd5b5061052561065d366004614dd6565b611554565b34801561066e57600080fd5b506104ee61067d366004614d15565b6117cd565b34801561068e57600080fd5b506008545b6040519081526020016104c5565b3480156106ad57600080fd5b506104ee6106bc366004614cde565b6117f7565b3480156106cd57600080fd5b506104ee6106dc366004614e65565b611865565b6104ee611896565b3480156106f557600080fd5b506104ee610704366004614dd6565b6118e5565b34801561071557600080fd5b50610525610724366004614dd6565b61191c565b34801561073557600080fd5b50610693610744366004614def565b6119e0565b34801561075557600080fd5b506104ee610764366004614dd6565b611a76565b34801561077557600080fd5b50610525610784366004614dd6565b611afe565b34801561079557600080fd5b506104ee6107a4366004614dd6565b611b21565b3480156107b557600080fd5b506104ee6107c4366004614dd6565b611b2e565b3480156107d557600080fd5b506104ee6107e4366004614e65565b611b5f565b3480156107f557600080fd5b50610809610804366004614d15565b611b7a565b6040516104c59190614ea6565b34801561082257600080fd5b506104ee610831366004614cde565b611c11565b34801561084257600080fd5b506104ee610851366004614eea565b611c84565b34801561086257600080fd5b506104ee610871366004614d15565b611d3d565b34801561088257600080fd5b50610693610891366004614dd6565b611d67565b6104ee611dfa565b3480156108aa57600080fd5b506104ee6108b9366004614dd6565b611e36565b3480156108ca57600080fd5b506104ee6108d9366004614d15565b611e69565b3480156108ea57600080fd5b506104ee6108f9366004614d15565b611e93565b34801561090a57600080fd5b506104ee610919366004614cde565b611ebd565b34801561092a57600080fd5b506104ee610939366004614dd6565b611f2f565b34801561094a57600080fd5b50610572610959366004614dd6565b611fb3565b34801561096a57600080fd5b5061097e610979366004614dd6565b612013565b604080516001600160a01b03948516815260208101939093529216918101919091526060016104c5565b3480156109b457600080fd5b50601754610572906001600160a01b031681565b3480156109d457600080fd5b506106936109e3366004614d15565b6120b4565b6104ee61213a565b3480156109fc57600080fd5b506104ee610a0b366004614d15565b61214c565b348015610a1c57600080fd5b50610525610a2b366004614dd6565b612176565b348015610a3c57600080fd5b506104ee610a4b366004614dd6565b612441565b348015610a5c57600080fd5b506104b9610a6b366004614dd6565b6000908152600b60208190526040909120015460ff1690565b348015610a9057600080fd5b50610809610a9f366004614dd6565b612470565b348015610ab057600080fd5b50638b78c6d81954610572565b348015610ac957600080fd5b50610572610ad8366004614dd6565b6000908152601460205260409020546001600160a01b031690565b348015610aff57600080fd5b50610525610b0e366004614dd6565b61249b565b348015610b1f57600080fd5b506104ee610b2e366004614dd6565b6125b8565b348015610b3f57600080fd5b50610b53610b4e366004615050565b6125c5565b6040516104c593929190615149565b348015610b6e57600080fd5b506104ee610b7d36600461518c565b612763565b348015610b8e57600080fd5b506104ee610b9d366004614cde565b612793565b348015610bae57600080fd5b50610525612804565b348015610bc357600080fd5b50610809610bd2366004614d15565b612813565b348015610be357600080fd5b50610572610bf2366004614dd6565b6014602052600090815260409020546001600160a01b031681565b348015610c1957600080fd5b506104ee610c28366004614dd6565b612889565b348015610c3957600080fd5b506104ee6128bd565b348015610c4e57600080fd5b5061069360125481565b348015610c6457600080fd5b50601854610572906001600160a01b031681565b348015610c8457600080fd5b50610525610c93366004614dd6565b612919565b348015610ca457600080fd5b506104ee610cb3366004615228565b612949565b348015610cc457600080fd5b50610cd8610cd3366004615050565b612958565b6040516104c5929190615254565b348015610cf257600080fd5b50610693610d01366004614d15565b60156020526000908152604090205481565b348015610d1f57600080fd5b50601054610572906001600160a01b031681565b348015610d3f57600080fd5b50610525610d4e366004614dd6565b6129c3565b348015610d5f57600080fd5b506104ee610d6e366004615282565b612c43565b348015610d7f57600080fd5b50610d93610d8e366004614dd6565b612c7b565b6040516104c591906152ed565b348015610dac57600080fd5b50600f54610572906001600160a01b031681565b348015610dcc57600080fd5b50610525610ddb366004614dd6565b612e21565b348015610dec57600080fd5b50610e00610dfb366004614dd6565b612e62565b604080516001600160a01b039384168152929091166020830152016104c5565b6104ee610e2e3660046153e6565b612e91565b348015610e3f57600080fd5b506104ee610e4e366004614dd6565b612f9c565b348015610e5f57600080fd5b506104ee610e6e366004615466565b612fce565b348015610e7f57600080fd5b506104ee610e8e3660046154ac565b6131c1565b348015610e9f57600080fd5b50610525610eae3660046154cf565b613260565b348015610ebf57600080fd5b506104b9610ece366004615503565b6001600160a01b03918216600090815260056020908152604080832093909416825291909152205460ff1690565b6104ee610f0a366004614d15565b613512565b348015610f1b57600080fd5b506104ee610f2a366004614cde565b613552565b348015610f3b57600080fd5b506104ee610f4a36600461553c565b6135c2565b6104ee610f5d366004614d15565b61360f565b348015610f6e57600080fd5b50610693610f7d366004614d15565b63389a75e1600c908152600091909152602090205490565b6000610fa082613636565b92915050565b610fb0828261365b565b610fbb81600461371a565b6000828152600b602052604090206003018190558082610fda81611fb3565b6001600160a01b0316600080516020615fc983398151915260405161101c906020808252600990820152684163636573736f727960b81b604082015260600190565b60405180910390a45050565b61103061381c565b601a80546001600160a01b0319166001600160a01b0392909216919091179055565b606060008054611061906155c1565b80601f016020809104026020016040519081016040528092919081815260200182805461108d906155c1565b80156110da5780601f106110af576101008083540402835291602001916110da565b820191906000526020600020905b8154815290600101906020018083116110bd57829003601f168201915b5050505050905090565b6110ed82613837565b6000828152600b6020819052604090912001805460ff19168215151790558161111581611fb3565b6001600160a01b03167f0b42132106437554485bc84e473475fc8313b019bfc026285cf6ed57639803b883604051611151911515815260200190565b60405180910390a35050565b600061116882613871565b506000908152600460205260409020546001600160a01b031690565b600061118f82611fb3565b9050806001600160a01b0316836001600160a01b0316036112015760405162461bcd60e51b815260206004820152602160248201527f4552433732313a20617070726f76616c20746f2063757272656e74206f776e656044820152603960f91b60648201526084015b60405180910390fd5b336001600160a01b038216148061121d575061121d8133610ece565b61128f5760405162461bcd60e51b815260206004820152603e60248201527f4552433732313a20617070726f76652063616c6c6572206973206e6f7420746f60448201527f6b656e206f776e6572206e6f7220617070726f76656420666f7220616c6c000060648201526084016111f8565b61129983836138d0565b505050565b600e60205260009081526040902080546001820180549192916112c0906155c1565b80601f01602080910402602001604051908101604052809291908181526020018280546112ec906155c1565b80156113395780601f1061130e57610100808354040283529160200191611339565b820191906000526020600020905b81548152906001019060200180831161131c57829003601f168201915b50505050509080600201805461134e906155c1565b80601f016020809104026020016040519081016040528092919081815260200182805461137a906155c1565b80156113c75780601f1061139c576101008083540402835291602001916113c7565b820191906000526020600020905b8154815290600101906020018083116113aa57829003601f168201915b5050505050908060030180546113dc906155c1565b80601f0160208091040260200160405190810160405280929190818152602001828054611408906155c1565b80156114555780601f1061142a57610100808354040283529160200191611455565b820191906000526020600020905b81548152906001019060200180831161143857829003601f168201915b5050505050905084565b611469828261365b565b61147481600361371a565b6000828152600b60205260409020600201819055808261149381611fb3565b6001600160a01b0316600080516020615fc983398151915260405161101c906020808252600490820152634661636560e01b604082015260600190565b6114d981613837565b6000818152600b60205260408082206001019190915551632430b4b960e11b81526004015b60405180910390208161151083611fb3565b6001600160a01b03167fe428b1839105819dce5e635ac7e16ed2a43028f6e294bab8655e29acb5dc60bb60405160405180910390a450565b611552600461393e565b565b6060600061156183612470565b905060006040518060400160405280601b81526020017f3c7376672076696577426f783d223020302031353020313530223e000000000081525090506000604051806040016040528060068152602001651e17b9bb339f60d11b815250905060606000600f60009054906101000a90046001600160a01b03166001600160a01b0316635c1ef2566040518163ffffffff1660e01b8152600401600060405180830381865afa158015611617573d6000803e3d6000fd5b505050506040513d6000823e601f3d908101601f1916820160405261163f919081019061564b565b9050600060135486511061165557601354611658565b85515b90506040518061054001604052806105058152602001615fe961050591398260405160200161168892919061567f565b604051602081830303815290604052925060005b8181101561176d57600f5487516000916001600160a01b03169063c7791531908a90859081106116ce576116ce6156d6565b60200260200101516040518263ffffffff1660e01b81526004016116f491815260200190565b600060405180830381865afa158015611711573d6000803e3d6000fd5b505050506040513d6000823e601f3d908101601f19168201604052611739919081019061564b565b90508487828860405160200161175294939291906156ec565b60408051601f1981840301815291905294505060010161169c565b50601354865111156117a05782858560405160200161178e93929190615743565b60405160208183030381529060405292505b826040516020016117b1919061585e565b60408051601f1981840301815291905298975050505050505050565b6117d561381c565b601880546001600160a01b0319166001600160a01b0392909216919091179055565b611801828261365b565b61180c81600161371a565b6000828152600b60205260409020819055808261182881611fb3565b6001600160a01b0316600080516020615fc983398151915260405161101c906020808252600490820152631219585960e21b604082015260600190565b61186f3382613ca0565b61188b5760405162461bcd60e51b81526004016111f890615886565b611299838383613d1f565b60006202a3006001600160401b03164201905063389a75e1600c5233600052806020600c2055337fdbf36a107da19e49527a7176a1babf963b4b0ff8cde35ee35d6cd8f1f9ac7e1d600080a250565b6118ee81613837565b6000818152600b60205260408082206003019190915551684163636573736f727960b81b81526009016114fe565b6060806060600061192c85612c7b565b9050611937816125c5565b50600f5460405163bb12d21d60e01b81529195506001600160a01b0316915063bb12d21d9061196a9084906004016152ed565b600060405180830381865afa158015611987573d6000803e3d6000fd5b505050506040513d6000823e601f3d908101601f191682016040526119af91908101906158d4565b506040519093506119c7915084908490602001615972565b6040516020818303038152906040529350505050919050565b60006119eb836120b4565b8210611a4d5760405162461bcd60e51b815260206004820152602b60248201527f455243373231456e756d657261626c653a206f776e657220696e646578206f7560448201526a74206f6620626f756e647360a81b60648201526084016111f8565b506001600160a01b03919091166000908152600660209081526040808320938352929052205490565b611a7f81613837565b6000818152600b602052604081208181556001810182905560028101829055600381018290556004810182905560058101829055600681019190915581611ac581611fb3565b6001600160a01b03167f46078a2cd4c69c3b4a27bdc69fdfe03d442ebcf405f1a68e9b5df6bc3e24429760405160405180910390a35050565b6060806000611b0c84612c7b565b9050611b17816125c5565b5095945050505050565b611b2961381c565b601355565b611b3781613837565b6000818152600b60205260408082206004019190915551620546f760ec1b81526003016114fe565b61129983838360405180602001604052806000815250612c43565b60606000611b87836120b4565b90506000816001600160401b03811115611ba357611ba3614f3f565b604051908082528060200260200182016040528015611bcc578160200160208202803683370190505b50905060005b82811015611c0957611be485826119e0565b828281518110611bf657611bf66156d6565b6020908102919091010152600101611bd2565b509392505050565b611c1b828261365b565b611c2681600661371a565b6000828152600b602052604090206005018190558082611c4581611fb3565b6001600160a01b0316600080516020615fc983398151915260405161101c90602080825260069082015265426f74746f6d60d01b604082015260600190565b8615611c9457611c9488886117f7565b8515611ca457611ca48887612793565b8415611cb457611cb4888661145f565b8315611cc457611cc48885610fa6565b8215611cd457611cd48884613552565b8115611ce457611ce48883611c11565b8015611cf457611cf48882611ebd565b87611cfe89611fb3565b6001600160a01b03167f56680590212b09eb4b72a2eba8801b037ec046dfc754538e924f5bb6a8c4db6c60405160405180910390a35050505050505050565b611d4561381c565b601780546001600160a01b0319166001600160a01b0392909216919091179055565b6000611d7260085490565b8210611dd55760405162461bcd60e51b815260206004820152602c60248201527f455243373231456e756d657261626c653a20676c6f62616c20696e646578206f60448201526b7574206f6620626f756e647360a01b60648201526084016111f8565b60088281548110611de857611de86156d6565b90600052602060002001549050919050565b63389a75e1600c523360005260006020600c2055337ffa7b8eab7da67f412cc9575ed43464468f9bfbae89d1675917346ca6d8fe3c92600080a2565b611e3f81613837565b6000818152600b602052604080822060060191909155516453686f657360d81b81526005016114fe565b611e7161381c565b601680546001600160a01b0319166001600160a01b0392909216919091179055565b611e9b61381c565b600f80546001600160a01b0319166001600160a01b0392909216919091179055565b611ec7828261365b565b611ed281600761371a565b6000828152600b602052604090206006018190558082611ef181611fb3565b6001600160a01b0316600080516020615fc983398151915260405161101c9060208082526005908201526453686f657360d81b604082015260600190565b6000818152601460205260409081902054600f5491516340d097c360e01b81526001600160a01b03918216600482018190529291909116906340d097c3906024016020604051808303816000875af1158015611f8f573d6000803e3d6000fd5b505050506040513d601f19601f8201168201806040525081019061129991906159a1565b6000818152600260205260408120546001600160a01b031680610fa05760405162461bcd60e51b8152602060048201526018602482015277115490cdcc8c4e881a5b9d985b1a59081d1bdad95b88125160421b60448201526064016111f8565b600f546040516331a9108f60e11b815260048101839052600091829182916001600160a01b031690636352211e90602401602060405180830381865afa158015612061573d6000803e3d6000fd5b505050506040513d601f19601f8201168201806040525081019061208591906159ba565b6001600160a01b03811660009081526015602052604090205490935091506120ac82611fb3565b929491935050565b60006001600160a01b03821661211e5760405162461bcd60e51b815260206004820152602960248201527f4552433732313a2061646472657373207a65726f206973206e6f7420612076616044820152683634b21037bbb732b960b91b60648201526084016111f8565b506001600160a01b031660009081526003602052604090205490565b61214261381c565b6115526000613ec6565b61215461381c565b601080546001600160a01b0319166001600160a01b0392909216919091179055565b60608060608060608060608060606121af6040518060800160405280606081526020016060815260200160608152602001600081525090565b60006121ba8c612c7b565b90506121c5816125c5565b600f5460405163bb12d21d60e01b8152939d50919a5095506001600160a01b03169063bb12d21d906121fb9084906004016152ed565b600060405180830381865afa158015612218573d6000803e3d6000fd5b505050506040513d6000823e601f3d908101601f1916820160405261224091908101906158d4565b604051929b50909850955061225b90859087906020016159d7565b6040516020818303038152906040529250878760405160200161227f929190615972565b60408051601f19818403018152919052610140820151835295506122a28c612470565b51606083015261012081015160ff166000908152600e6020526040902060010180546122cd906155c1565b80601f01602080910402602001604051908101604052809291908181526020018280546122f9906155c1565b80156123465780601f1061231b57610100808354040283529160200191612346565b820191906000526020600020905b81548152906001019060200180831161232957829003601f168201915b505050506020808501929092525060008d8152600b9182905260409020015460ff1661238c57604051806040016040528060028152602001610c9160f21b8152506123a8565b604051806040016040528060028152602001610cd160f21b8152505b60408084019190915260185490516332d01b2560e21b81526001600160a01b039091169063cb406c94906123ec908f908e9089908f908c908e908b90600401615a9b565b600060405180830381865afa158015612409573d6000803e3d6000fd5b505050506040513d6000823e601f3d908101601f19168201604052612431919081019061564b565b9c9b505050505050505050505050565b61244a81613837565b6000818152600b60205260408082209190915551631219585960e21b81526004016114fe565b6000818152601460205260409020546060906001600160a01b031661249481612813565b9392505050565b6000818152600e60205260408120600201805460609291612542916124bf906155c1565b80601f01602080910402602001604051908101604052809291908181526020018280546124eb906155c1565b80156125385780601f1061250d57610100808354040283529160200191612538565b820191906000526020600020905b81548152906001019060200180831161251b57829003601f168201915b5050505050613260565b6017546040516335b07b7960e11b81529192506001600160a01b031690636b60f6f290612573908490600401614d82565b600060405180830381865afa158015612590573d6000803e3d6000fd5b505050506040513d6000823e601f3d908101601f19168201604052612494919081019061564b565b6125c061381c565b601255565b60608060606125db84610120015160ff1661249b565b600e600086610120015160ff1681526020019081526020016000206003016126ca60405180604001604052806009815260200168426f6479205479706560b81b815250600e600089610120015160ff1681526020019081526020016000206001018054612647906155c1565b80601f0160208091040260200160405190810160405280929190818152602001828054612673906155c1565b80156126c05780601f10612695576101008083540402835291602001916126c0565b820191906000526020600020905b8154815290600101906020018083116126a357829003601f168201915b5050505050613f04565b8180546126d6906155c1565b80601f0160208091040260200160405190810160405280929190818152602001828054612702906155c1565b801561274f5780601f106127245761010080835404028352916020019161274f565b820191906000526020600020905b81548152906001019060200180831161273257829003601f168201915b505050505091509250925092509193909250565b6127738a8a8a8a8a8a8a8a611c84565b61277d8a836131c1565b6127878a82612fce565b50505050505050505050565b61279d828261365b565b6127a881600261371a565b6000828152600b6020526040902060010181905580826127c781611fb3565b6001600160a01b0316600080516020615fc983398151915260405161101c906020808252600490820152632430b4b960e11b604082015260600190565b606060018054611061906155c1565b600f5460405162438b6360e81b81526001600160a01b03838116600483015260609260009291169063438b630090602401600060405180830381865afa158015612861573d6000803e3d6000fd5b505050506040513d6000823e601f3d908101601f191682016040526124949190810190615b24565b61289281613837565b6000818152600b6020526040808220600501919091555165426f74746f6d60d01b81526006016114fe565b600a5460ff16156115525760005b60648110156128e4576128dc611548565b6001016128cb565b5061290e60016040518060400160405280600681526020016533333333333360d11b815250612fce565b6115526001806110e4565b6060600061292683612c7b565b90508061016001516129405761293b836129c3565b612494565b61249483612176565b612954338383613f30565b5050565b60608061296c83610120015160ff1661249b565b6129ba60405180604001604052806009815260200168426f6479205479706560b81b815250600e600087610120015160ff1681526020019081526020016000206001018054612647906155c1565b91509150915091565b60608060608060608060006129d788612c7b565b90506129e281612958565b600f54604051631be5857160e31b81529298509096506001600160a01b03169063df2c2b8890612a169084906004016152ed565b600060405180830381865afa158015612a33573d6000803e3d6000fd5b505050506040513d6000823e601f3d908101601f19168201604052612a5b9190810190615bc9565b9094509250612a6988611554565b9150612a966040518060800160405280606081526020016060815260200160608152602001600081525090565b6101408201518152612aa789612470565b51606082015261012082015160ff166000908152600e602052604090206001018054612ad2906155c1565b80601f0160208091040260200160405190810160405280929190818152602001828054612afe906155c1565b8015612b4b5780601f10612b2057610100808354040283529160200191612b4b565b820191906000526020600020905b815481529060010190602001808311612b2e57829003601f168201915b505050506020808401929092525060008a8152600b9182905260409020015460ff16612b9157604051806040016040528060028152602001610c9160f21b815250612bad565b604051806040016040528060028152602001610cd160f21b8152505b6040808301919091526017549051634e2fa37760e11b81526001600160a01b0390911690639c5f46ee90612bf1908c908b908b908b908b908b908a90600401615a9b565b600060405180830381865afa158015612c0e573d6000803e3d6000fd5b505050506040513d6000823e601f3d908101601f19168201604052612c36919081019061564b565b9998505050505050505050565b612c4d3383613ca0565b612c695760405162461bcd60e51b81526004016111f890615886565b612c7584848484613ff6565b50505050565b612cea60405180610180016040528060008152602001600081526020016000815260200160008152602001600081526020016000815260200160008152602001600063ffffffff16815260200160008152602001600060ff168152602001606081526020016000151581525090565b6000828152600b60209081526040808320815161018081018352815481526001820154938101939093526002810154918301919091526003810154606083015260048101546080830152600581015460a0830152600681015460c0830152600781015463ffffffff1660e08301526008810154610100830152600981015460ff16610120830152600a8101805461014084019190612d87906155c1565b80601f0160208091040260200160405190810160405280929190818152602001828054612db3906155c1565b8015612e005780601f10612dd557610100808354040283529160200191612e00565b820191906000526020600020905b815481529060010190602001808311612de357829003601f168201915b5050509183525050600b919091015460ff1615156020909101529392505050565b6000818152600260205260409020546060906001600160a01b0316612e5957604051631a65aaab60e31b815260040160405180910390fd5b610fa082612919565b600080612e6e83611fb3565b6000938452601460205260409093205492936001600160a01b0390931692915050565b60048560ff161080612ea6575060078560ff16115b15612ec4576040516367af3f5360e01b815260040160405180910390fd5b612ef9338585604051602001612edc93929190615c22565b604051602081830303815290604052805190602001208383614029565b612f1657604051638baa579f60e01b815260040160405180910390fd5b60198484604051612f28929190615c4e565b9081526040519081900360200190205460ff1615612f5857604051623f613760e71b815260040160405180910390fd5b612f618561393e565b600160198585604051612f75929190615c4e565b908152604051908190036020019020805491151560ff199092169190911790555050505050565b612fa581613837565b6000818152600b60205260408082206002019190915551634661636560e01b81526004016114fe565b612fd782613837565b8051600003612fe4575050565b8051819060061461300857604051631cf7e9c560e01b815260040160405180910390fd5b60005b600681101561315557603060f81b82828151811061302b5761302b6156d6565b01602001516001600160f81b0319161080159061306c5750603960f81b82828151811061305a5761305a6156d6565b01602001516001600160f81b03191611155b1580156130ce5750604160f81b82828151811061308b5761308b6156d6565b01602001516001600160f81b031916108015906130cc5750604660f81b8282815181106130ba576130ba6156d6565b01602001516001600160f81b03191611155b155b801561312f5750606160f81b8282815181106130ec576130ec6156d6565b01602001516001600160f81b0319161080159061312d5750606660f81b82828151811061311b5761311b6156d6565b01602001516001600160f81b03191611155b155b1561314d57604051631cf7e9c560e01b815260040160405180910390fd5b60010161300b565b506000838152600b60205260409020600a016131718382615ca6565b508261317c84611fb3565b6001600160a01b03167f2e34f8c0f6052b66319b4a5df14eac164c6af8a0b37f612d4304a777e1ae7a3d846040516131b49190614d82565b60405180910390a3505050565b6131ca82613837565b60038160ff1611156131ef576040516329ba348d60e11b815260040160405180910390fd5b60ff811615612954576000828152600b60205260409020600901805460ff191660ff83161790558161322081611fb3565b60405160ff841681526001600160a01b0391909116907f454db5768a3f8187a5dd5e9cca100cf699d74d8a03f793d16da3932cdf34d35890602001611151565b8051606090801580159061327c575061327a600582615d7b565b155b6132c85760405162461bcd60e51b815260206004820152601960248201527f496e76616c696420626f6479206279746573206c656e6774680000000000000060448201526064016111f8565b604080516111948082526111c0820190925260009160208201818036833701905050905060006132f9600584615da5565b905060005b81811015613508576000613313826005615db9565b90506000878281518110613329576133296156d6565b016020015160f81c9050600088613341846001615dd0565b81518110613351576133516156d6565b016020015160f81c9050600060ff831661336c83601e615db9565b6133769190615dd0565b613381906005615db9565b9050898481518110613395576133956156d6565b602001015160f81c60f81b8782815181106133b2576133b26156d6565b60200101906001600160f81b031916908160001a9053508984600101815181106133de576133de6156d6565b602001015160f81c60f81b8782600101815181106133fe576133fe6156d6565b60200101906001600160f81b031916908160001a90535089846002018151811061342a5761342a6156d6565b602001015160f81c60f81b87826002018151811061344a5761344a6156d6565b60200101906001600160f81b031916908160001a905350898460030181518110613476576134766156d6565b602001015160f81c60f81b878260030181518110613496576134966156d6565b60200101906001600160f81b031916908160001a9053508984600401815181106134c2576134c26156d6565b602001015160f81c60f81b8782600401815181106134e2576134e26156d6565b60200101906001600160f81b031916908160001a905350505050508060010190506132fe565b5090949350505050565b61351a61381c565b63389a75e1600c52806000526020600c20805442111561354257636f5e88186000526004601cfd5b6000905561354f81613ec6565b50565b61355c828261365b565b61356781600561371a565b6000828152600b60205260409020600401819055808261358681611fb3565b6001600160a01b0316600080516020615fc983398151915260405161101c906020808252600390820152620546f760ec1b604082015260600190565b6135ca61381c565b6000848152600e60205260409020848155600181016135e98582615ca6565b50600281016135f88482615ca6565b50600381016136078382615ca6565b505050505050565b61361761381c565b8060601b61362d57637448fbae6000526004601cfd5b61354f81613ec6565b60006001600160e01b0319821663780e9d6360e01b1480610fa05750610fa08261413b565b61366482613837565b60008281526014602052604080822054600f5491516331a9108f60e11b8152600481018590526001600160a01b0391821693929190911690636352211e90602401602060405180830381865afa1580156136c2573d6000803e3d6000fd5b505050506040513d601f19601f820116820180604052508101906136e691906159ba565b9050816001600160a01b0316816001600160a01b031614612c755760405163e6ca793160e01b815260040160405180910390fd5b600f5460405163e8a1268d60e01b8152600481018490526000916001600160a01b03169063e8a1268d90602401602060405180830381865afa158015613764573d6000803e3d6000fd5b505050506040513d601f19601f820116820180604052508101906137889190615de3565b905081600781111561379c5761379c615e04565b6040516020016137ae91815260200190565b604051602081830303815290604052805190602001208160078111156137d6576137d6615e04565b6040516020016137e891815260200190565b604051602081830303815290604052805190602001201461129957604051633e54c6fb60e11b815260040160405180910390fd5b638b78c6d819543314611552576382b429006000526004601cfd5b61384081611fb3565b6001600160a01b0316336001600160a01b03161461354f576040516324adc17160e11b815260040160405180910390fd5b6000818152600260205260409020546001600160a01b031661354f5760405162461bcd60e51b8152602060048201526018602482015277115490cdcc8c4e881a5b9d985b1a59081d1bdad95b88125160421b60448201526064016111f8565b600081815260046020526040902080546001600160a01b0319166001600160a01b038416908117909155819061390582611fb3565b6001600160a01b03167f8c5be1e5ebec7d5bd14f71427d1e84f3dd0314c0f7b2291e5b200ac8c7c3b92560405160405180910390a45050565b6016546001600160a01b031661396757604051633390ca8960e21b815260040160405180910390fd5b600060116000815461397890615e1a565b91829055509050613989338261418b565b604051638a54c52f60e01b81527355266d75d1a14e4572138116af39863ed6596e7f600482015260006024820181905262014a34604483015230606483015260848201839052906f6551c19487814612e58fe0681377575890638a54c52f9060a4016020604051808303816000875af1158015613a0a573d6000803e3d6000fd5b505050506040513d601f19601f82011682018060405250810190613a2e91906159ba565b600083815260146020908152604080832080546001600160a01b0319166001600160a01b038616908117909155808452601590925291829020859055905163189acdbd60e31b81527341c8f39463a868d3a88af00cd0fe7102f30e44ec60048201529192509063c4d66de890602401600060405180830381600087803b158015613ab757600080fd5b505af1158015613acb573d6000803e3d6000fd5b50506016546040516358a2727360e01b81526001600160a01b03858116600483015260ff881660248301526000945090911691506358a27273906044016000604051808303816000875af1158015613b27573d6000803e3d6000fd5b505050506040513d6000823e601f3d908101601f19168201604052613b4f9190810190615b24565b6000848152600b6020526040812060088101869055825192935091839190613b7957613b796156d6565b6020026020010151816006018190555081600181518110613b9c57613b9c6156d6565b6020026020010151816005018190555081600281518110613bbf57613bbf6156d6565b6020026020010151816004018190555081600381518110613be257613be26156d6565b6020908102919091018101516001830155600b8201805460ff19169055604080518083018790528151808203840181529082019091528051910120613c2990600490615d7b565b60098201805460ff191660ff929092169190911790556040805180820190915260068152650c110d914e5160d21b6020820152600a820190613c6b9082615ca6565b50604051849033907f0f6798a560793a54c3bcfe86a93cde1e73087d944c0ea20544137d412139688590600090a35050505050565b600080613cac83611fb3565b9050806001600160a01b0316846001600160a01b03161480613cf357506001600160a01b0380821660009081526005602090815260408083209388168352929052205460ff165b80613d175750836001600160a01b0316613d0c8461115d565b6001600160a01b0316145b949350505050565b826001600160a01b0316613d3282611fb3565b6001600160a01b031614613d965760405162461bcd60e51b815260206004820152602560248201527f4552433732313a207472616e736665722066726f6d20696e636f72726563742060448201526437bbb732b960d91b60648201526084016111f8565b6001600160a01b038216613df85760405162461bcd60e51b8152602060048201526024808201527f4552433732313a207472616e7366657220746f20746865207a65726f206164646044820152637265737360e01b60648201526084016111f8565b613e038383836142d9565b613e0e6000826138d0565b6001600160a01b0383166000908152600360205260408120805460019290613e37908490615e33565b90915550506001600160a01b0382166000908152600360205260408120805460019290613e65908490615dd0565b909155505060008181526002602052604080822080546001600160a01b0319166001600160a01b0386811691821790925591518493918716917fddf252ad1be2c89b69c2b068fc378daa952ba7f163c4a11628f55a4df523b3ef91a4505050565b638b78c6d81980546001600160a01b039092169182907f8be0079c531659141344cd1fd0a4f28419497f9722a3daafe3b4186f6b6457e0600080a355565b60608282604051602001613f19929190615e46565b604051602081830303815290604052905092915050565b816001600160a01b0316836001600160a01b031603613f915760405162461bcd60e51b815260206004820152601960248201527f4552433732313a20617070726f766520746f2063616c6c65720000000000000060448201526064016111f8565b6001600160a01b03838116600081815260056020908152604080832094871680845294825291829020805460ff191686151590811790915591519182527f17307eab39ab6107e8899845ad3d59bd9653f200f220920489ca2b5937696c3191016131b4565b614001848484613d1f565b61400d848484846145fc565b612c755760405162461bcd60e51b81526004016111f890615eb7565b601a546000906001600160a01b031661407d5760405162461bcd60e51b81526020600482015260166024820152754d697373696e672073797374656d206164647265737360501b60448201526064016111f8565b60006140d6856040517f19457468657265756d205369676e6564204d6573736167653a0a3332000000006020820152603c8101829052600090605c01604051602081830303815290604052805190602001209050919050565b601a54604080516020601f88018190048102820181019092528681529293506001600160a01b039091169161412891879087908190840183828082843760009201919091525086939250506146fd9050565b6001600160a01b03161495945050505050565b60006001600160e01b031982166380ac58cd60e01b148061416c57506001600160e01b03198216635b5e139f60e01b145b80610fa057506301ffc9a760e01b6001600160e01b0319831614610fa0565b6001600160a01b0382166141e15760405162461bcd60e51b815260206004820181905260248201527f4552433732313a206d696e7420746f20746865207a65726f206164647265737360448201526064016111f8565b6000818152600260205260409020546001600160a01b0316156142465760405162461bcd60e51b815260206004820152601c60248201527f4552433732313a20746f6b656e20616c7265616479206d696e7465640000000060448201526064016111f8565b614252600083836142d9565b6001600160a01b038216600090815260036020526040812080546001929061427b908490615dd0565b909155505060008181526002602052604080822080546001600160a01b0319166001600160a01b03861690811790915590518392907fddf252ad1be2c89b69c2b068fc378daa952ba7f163c4a11628f55a4df523b3ef908290a45050565b60105460405163644ec52760e01b8152600481018390526001600160a01b039091169063644ec52790602401600060405180830381600087803b15801561431f57600080fd5b505af1158015614333573d6000803e3d6000fd5b5050601054604051631e92beb560e31b8152600481018590526001600160a01b038681166024830152909116925063f495f5a89150604401600060405180830381600087803b15801561438557600080fd5b505af1158015614399573d6000803e3d6000fd5b5050600f5460008481526014602052604080822054905162438b6360e81b81526001600160a01b039182166004820152919450909116915063438b630090602401600060405180830381865afa1580156143f7573d6000803e3d6000fd5b505050506040513d6000823e601f3d908101601f1916820160405261441f9190810190615b24565b905060005b81518110156145f0576000828281518110614441576144416156d6565b6020908102919091010151601054604051632e1d274f60e01b8152600481018390529192506001600160a01b031690632e1d274f90602401600060405180830381600087803b15801561449357600080fd5b505af11580156144a7573d6000803e3d6000fd5b5050505060006144b686611b7a565b9050600081516001600160401b038111156144d3576144d3614f3f565b6040519080825280602002602001820160405280156144fc578160200160208202803683370190505b50905060005b825181101561457d5760146000848381518110614521576145216156d6565b6020026020010151815260200190815260200160002060009054906101000a90046001600160a01b031682828151811061455d5761455d6156d6565b6001600160a01b0390921660209283029190910190910152600101614502565b50601054604051632333520b60e11b81526001600160a01b0390911690634666a416906145b09086908590600401615f09565b600060405180830381600087803b1580156145ca57600080fd5b505af11580156145de573d6000803e3d6000fd5b50505050505050806001019050614424565b50612c75848484614719565b60006001600160a01b0384163b156146f257604051630a85bd0160e11b81526001600160a01b0385169063150b7a0290614640903390899088908890600401615f62565b6020604051808303816000875af192505050801561467b575060408051601f3d908101601f1916820190925261467891810190615f95565b60015b6146d8573d8080156146a9576040519150601f19603f3d011682016040523d82523d6000602084013e6146ae565b606091505b5080516000036146d05760405162461bcd60e51b81526004016111f890615eb7565b805181602001fd5b6001600160e01b031916630a85bd0160e11b149050613d17565b506001949350505050565b600080600061470c85856147d1565b91509150611c098161483f565b6001600160a01b0383166147745761476f81600880546000838152600960205260408120829055600182018355919091527ff3f7a9fe364faab93b216da50a3214154f22a0a2b415b23a84c8169e8b636ee30155565b614797565b816001600160a01b0316836001600160a01b0316146147975761479783826149f5565b6001600160a01b0382166147ae5761129981614a92565b826001600160a01b0316826001600160a01b031614611299576112998282614b41565b60008082516041036148075760208301516040840151606085015160001a6147fb87828585614b85565b94509450505050614838565b82516040036148305760208301516040840151614825868383614c72565b935093505050614838565b506000905060025b9250929050565b600081600481111561485357614853615e04565b0361485b5750565b600181600481111561486f5761486f615e04565b036148bc5760405162461bcd60e51b815260206004820152601860248201527f45434453413a20696e76616c6964207369676e6174757265000000000000000060448201526064016111f8565b60028160048111156148d0576148d0615e04565b0361491d5760405162461bcd60e51b815260206004820152601f60248201527f45434453413a20696e76616c6964207369676e6174757265206c656e6774680060448201526064016111f8565b600381600481111561493157614931615e04565b036149895760405162461bcd60e51b815260206004820152602260248201527f45434453413a20696e76616c6964207369676e6174757265202773272076616c604482015261756560f01b60648201526084016111f8565b600481600481111561499d5761499d615e04565b0361354f5760405162461bcd60e51b815260206004820152602260248201527f45434453413a20696e76616c6964207369676e6174757265202776272076616c604482015261756560f01b60648201526084016111f8565b60006001614a02846120b4565b614a0c9190615e33565b600083815260076020526040902054909150808214614a5f576001600160a01b03841660009081526006602090815260408083208584528252808320548484528184208190558352600790915290208190555b5060009182526007602090815260408084208490556001600160a01b039094168352600681528383209183525290812055565b600854600090614aa490600190615e33565b60008381526009602052604081205460088054939450909284908110614acc57614acc6156d6565b906000526020600020015490508060088381548110614aed57614aed6156d6565b6000918252602080832090910192909255828152600990915260408082208490558582528120556008805480614b2557614b25615fb2565b6001900381819060005260206000200160009055905550505050565b6000614b4c836120b4565b6001600160a01b039093166000908152600660209081526040808320868452825280832085905593825260079052919091209190915550565b6000807f7fffffffffffffffffffffffffffffff5d576e7357a4501ddfe92f46681b20a0831115614bbc5750600090506003614c69565b8460ff16601b14158015614bd457508460ff16601c14155b15614be55750600090506004614c69565b6040805160008082526020820180845289905260ff881692820192909252606081018690526080810185905260019060a0016020604051602081039080840390855afa158015614c39573d6000803e3d6000fd5b5050604051601f1901519150506001600160a01b038116614c6257600060019250925050614c69565b9150600090505b94509492505050565b6000806001600160ff1b03831681614c8f60ff86901c601b615dd0565b9050614c9d87828885614b85565b935093505050935093915050565b6001600160e01b03198116811461354f57600080fd5b600060208284031215614cd357600080fd5b813561249481614cab565b60008060408385031215614cf157600080fd5b50508035926020909101359150565b6001600160a01b038116811461354f57600080fd5b600060208284031215614d2757600080fd5b813561249481614d00565b60005b83811015614d4d578181015183820152602001614d35565b50506000910152565b60008151808452614d6e816020860160208601614d32565b601f01601f19169290920160200192915050565b6020815260006124946020830184614d56565b80358015158114614da557600080fd5b919050565b60008060408385031215614dbd57600080fd5b82359150614dcd60208401614d95565b90509250929050565b600060208284031215614de857600080fd5b5035919050565b60008060408385031215614e0257600080fd5b8235614e0d81614d00565b946020939093013593505050565b848152608060208201526000614e346080830186614d56565b8281036040840152614e468186614d56565b90508281036060840152614e5a8185614d56565b979650505050505050565b600080600060608486031215614e7a57600080fd5b8335614e8581614d00565b92506020840135614e9581614d00565b929592945050506040919091013590565b6020808252825182820181905260009190848201906040850190845b81811015614ede57835183529284019291840191600101614ec2565b50909695505050505050565b600080600080600080600080610100898b031215614f0757600080fd5b505086359860208801359850604088013597606081013597506080810135965060a0810135955060c0810135945060e0013592509050565b634e487b7160e01b600052604160045260246000fd5b60405161018081016001600160401b0381118282101715614f7857614f78614f3f565b60405290565b604051601f8201601f191681016001600160401b0381118282101715614fa657614fa6614f3f565b604052919050565b803563ffffffff81168114614da557600080fd5b803560ff81168114614da557600080fd5b60006001600160401b03821115614fec57614fec614f3f565b50601f01601f191660200190565b600082601f83011261500b57600080fd5b813561501e61501982614fd3565b614f7e565b81815284602083860101111561503357600080fd5b816020850160208301376000918101602001919091529392505050565b60006020828403121561506257600080fd5b81356001600160401b038082111561507957600080fd5b90830190610180828603121561508e57600080fd5b615096614f55565b823581526020830135602082015260408301356040820152606083013560608201526080830135608082015260a083013560a082015260c083013560c08201526150e260e08401614fae565b60e08201526101008381013590820152610120615100818501614fc2565b90820152610140838101358381111561511857600080fd5b61512488828701614ffa565b828401525050610160915061513a828401614d95565b91810191909152949350505050565b60608152600061515c6060830186614d56565b828103602084015261516e8186614d56565b905082810360408401526151828185614d56565b9695505050505050565b6000806000806000806000806000806101408b8d0312156151ac57600080fd5b8a35995060208b0135985060408b0135975060608b0135965060808b0135955060a08b0135945060c08b0135935060e08b013592506151ee6101008c01614fc2565b91506101208b01356001600160401b0381111561520a57600080fd5b6152168d828e01614ffa565b9150509295989b9194979a5092959850565b6000806040838503121561523b57600080fd5b823561524681614d00565b9150614dcd60208401614d95565b6040815260006152676040830185614d56565b82810360208401526152798185614d56565b95945050505050565b6000806000806080858703121561529857600080fd5b84356152a381614d00565b935060208501356152b381614d00565b92506040850135915060608501356001600160401b038111156152d557600080fd5b6152e187828801614ffa565b91505092959194509250565b6020815281516020820152602082015160408201526040820151606082015260608201516080820152608082015160a082015260a082015160c082015260c082015160e0820152600060e083015161010061534f8185018363ffffffff169052565b8401516101208481019190915284015190506101406153728185018360ff169052565b8085015191505061018061016081818601526153926101a0860184614d56565b9086015180151583870152909250613508565b60008083601f8401126153b757600080fd5b5081356001600160401b038111156153ce57600080fd5b60208301915083602082850101111561483857600080fd5b6000806000806000606086880312156153fe57600080fd5b61540786614fc2565b945060208601356001600160401b038082111561542357600080fd5b61542f89838a016153a5565b9096509450604088013591508082111561544857600080fd5b50615455888289016153a5565b969995985093965092949392505050565b6000806040838503121561547957600080fd5b8235915060208301356001600160401b0381111561549657600080fd5b6154a285828601614ffa565b9150509250929050565b600080604083850312156154bf57600080fd5b82359150614dcd60208401614fc2565b6000602082840312156154e157600080fd5b81356001600160401b038111156154f757600080fd5b613d1784828501614ffa565b6000806040838503121561551657600080fd5b823561552181614d00565b9150602083013561553181614d00565b809150509250929050565b6000806000806080858703121561555257600080fd5b8435935060208501356001600160401b038082111561557057600080fd5b61557c88838901614ffa565b9450604087013591508082111561559257600080fd5b61559e88838901614ffa565b935060608701359150808211156155b457600080fd5b506152e187828801614ffa565b600181811c908216806155d557607f821691505b6020821081036155f557634e487b7160e01b600052602260045260246000fd5b50919050565b600061560961501984614fd3565b905082815283838301111561561d57600080fd5b612494836020830184614d32565b600082601f83011261563c57600080fd5b612494838351602085016155fb565b60006020828403121561565d57600080fd5b81516001600160401b0381111561567357600080fd5b613d178482850161562b565b60008351615691818460208801614d32565b8351908301906156a5818360208801614d32565b7f3c672069643d226261636b7061636b547261697473223e0000000000000000009101908152601701949350505050565b634e487b7160e01b600052603260045260246000fd5b600085516156fe818460208a01614d32565b855190830190615712818360208a01614d32565b8551910190615725818360208901614d32565b8451910190615738818360208801614d32565b019695505050505050565b60008451615755818460208901614d32565b845190830190615769818360208901614d32565b8082019150507f3c672069643d224d6f7265547261697473223e3c72656374207374796c653d2281527f77696474683a313070783b206865696768743a3270783b2220783d223130222060208201527f793d223136222066696c6c3d2223666666666666223e3c2f726563743e3c726560408201527f6374207374796c653d226865696768743a313070783b2077696474683a32707860608201527f3b2220783d2231342220793d223132222066696c6c3d2223666666666666223e60808201526a1e17b932b1ba1f1e17b39f60a91b60a082015283516158518160ab840160208801614d32565b0160ab0195945050505050565b60008251615870818460208701614d32565b631e17b39f60e11b920191825250600401919050565b6020808252602e908201527f4552433732313a2063616c6c6572206973206e6f7420746f6b656e206f776e6560408201526d1c881b9bdc88185c1c1c9bdd995960921b606082015260800190565b6000806000606084860312156158e957600080fd5b83516001600160401b038082111561590057600080fd5b61590c8783880161562b565b9450602086015191508082111561592257600080fd5b818601915086601f83011261593657600080fd5b615945878351602085016155fb565b9350604086015191508082111561595b57600080fd5b506159688682870161562b565b9150509250925092565b60008351615984818460208801614d32565b835190830190615998818360208801614d32565b01949350505050565b6000602082840312156159b357600080fd5b5051919050565b6000602082840312156159cc57600080fd5b815161249481614d00565b6d2261747472696275746573223a5b60901b81528251600090615a0181600e850160208801614d32565b600b60fa1b600e918401918201528351615a2281600f840160208801614d32565b605d60f81b600f9290910191820152601001949350505050565b6000815160808452615a516080850182614d56565b905060208301518482036020860152615a6a8282614d56565b91505060408301518482036040860152615a848282614d56565b915050606083015160608501528091505092915050565b87815260e060208201526000615ab460e0830189614d56565b8281036040840152615ac68189614d56565b90508281036060840152615ada8188614d56565b90508281036080840152615aee8187614d56565b905082810360a0840152615b028186614d56565b905082810360c0840152615b168185615a3c565b9a9950505050505050505050565b60006020808385031215615b3757600080fd5b82516001600160401b0380821115615b4e57600080fd5b818501915085601f830112615b6257600080fd5b815181811115615b7457615b74614f3f565b8060051b9150615b85848301614f7e565b8181529183018401918481019088841115615b9f57600080fd5b938501935b83851015615bbd57845182529385019390850190615ba4565b98975050505050505050565b60008060408385031215615bdc57600080fd5b82516001600160401b0380821115615bf357600080fd5b615bff8683870161562b565b93506020850151915080821115615c1557600080fd5b506154a28582860161562b565b6bffffffffffffffffffffffff198460601b168152818360148301376000910160140190815292915050565b8183823760009101908152919050565b601f821115611299576000816000526020600020601f850160051c81016020861015615c875750805b601f850160051c820191505b8181101561360757828155600101615c93565b81516001600160401b03811115615cbf57615cbf614f3f565b615cd381615ccd84546155c1565b84615c5e565b602080601f831160018114615d085760008415615cf05750858301515b600019600386901b1c1916600185901b178555613607565b600085815260208120601f198616915b82811015615d3757888601518255948401946001909101908401615d18565b5085821015615d555787850151600019600388901b60f8161c191681555b5050505050600190811b01905550565b634e487b7160e01b600052601260045260246000fd5b600082615d8a57615d8a615d65565b500690565b634e487b7160e01b600052601160045260246000fd5b600082615db457615db4615d65565b500490565b8082028115828204841417610fa057610fa0615d8f565b80820180821115610fa057610fa0615d8f565b600060208284031215615df557600080fd5b81516008811061249457600080fd5b634e487b7160e01b600052602160045260246000fd5b600060018201615e2c57615e2c615d8f565b5060010190565b81810381811115610fa057610fa0615d8f565b6e3d913a3930b4ba2fba3cb832911d1160891b81528251600090615e7181600f850160208801614d32565b6a1116113b30b63ab2911d1160a91b600f918401918201528351615e9c81601a840160208801614d32565b61227d60f01b601a9290910191820152601c01949350505050565b60208082526032908201527f4552433732313a207472616e7366657220746f206e6f6e20455243373231526560408201527131b2b4bb32b91034b6b83632b6b2b73a32b960711b606082015260800190565b60006040820184835260206040602085015281855180845260608601915060208701935060005b81811015615f555784516001600160a01b031683529383019391830191600101615f30565b5090979650505050505050565b6001600160a01b038581168252841660208201526040810183905260806060820181905260009061518290830184614d56565b600060208284031215615fa757600080fd5b815161249481614cab565b634e487b7160e01b600052603160045260246000fdfe8aea9baa1ab7209ce94784ac5f5149343f8d985fd4278de25a7b390989f2cf853c672069643d22416c6c20547261697473223e3c672069643d226261636b7061636b2220636c6173733d22636c6f736564223e3c7061746820643d224d302030204c33302030204c3330203330204c30203330205a222066696c6c3d227267622831322c203130392c203135372922202f3e3c7376672069643d226261636b7061636b5549222076696577426f783d223020302031323020313230223e203c7374796c653e2e75697b77696474683a3170783b206865696768743a203170783b2066696c6c3a77686974657d3c2f7374796c653e203c672069643d22636c6f736542746e22207472616e73666f726d3d227472616e736c61746528322c3229223e203c7265637420783d22312220793d22312220636c6173733d227569223e3c2f726563743e203c7265637420783d22322220793d22322220636c6173733d227569223e3c2f726563743e203c7265637420783d22332220793d22332220636c6173733d227569223e3c2f726563743e203c7265637420783d22342220793d22342220636c6173733d227569223e3c2f726563743e203c7265637420783d22352220793d22352220636c6173733d227569223e3c2f726563743e203c7265637420783d22352220793d22312220636c6173733d227569223e3c2f726563743e203c7265637420783d22342220793d22322220636c6173733d227569223e3c2f726563743e203c212d2d203c7265637420783d22332220793d2233222077696474683d223122206865696768743d2231222066696c6c3d227768697465223e3c2f726563743e202d2d3e203c7265637420783d22322220793d22342220636c6173733d227569223e3c2f726563743e203c7265637420783d22312220793d22352220636c6173733d227569223e3c2f726563743e203c2f673e203c672069643d226c65667442746e2220636c6173733d22627574746f6e22207472616e73666f726d3d227472616e736c6174652834352c31313029223e203c7061746820643d224d302030204c362030204c362036204c302036205a222066696c6c3d227472616e73706172656e7422202f3e203c7265637420783d22322220793d22302220636c6173733d227569223e3c2f726563743e203c7265637420783d22312220793d22312220636c6173733d227569223e3c2f726563743e203c7265637420783d22302220793d22322220636c6173733d227569223e3c2f726563743e203c7265637420783d22312220793d22332220636c6173733d227569223e3c2f726563743e203c7265637420783d22322220793d22342220636c6173733d227569223e3c2f726563743e203c2f673e203c672069643d22726967687442746e2220636c6173733d22627574746f6e22207472616e73666f726d3d227472616e736c6174652836352c31313029223e203c7061746820643d224d302030204c362030204c362036204c302036205a222066696c6c3d227472616e73706172656e7422202f3e203c7265637420783d22332220793d22302220636c6173733d227569223e3c2f726563743e203c7265637420783d22342220793d22312220636c6173733d227569223e3c2f726563743e203c7265637420783d22352220793d22322220636c6173733d227569223e3c2f726563743e203c7265637420783d22342220793d22332220636c6173733d227569223e3c2f726563743e203c7265637420783d22332220793d22342220636c6173733d227569223e3c2f726563743e203c2f673e203c2f7376673e20a264697066735822122080289d38d6ed60b321818d35ae271636fbcc76b4766edd00bf4d838c934e1a3164736f6c63430008160033","linkReferences":{}},"methodIdentifiers":{"_debugPostConstructorMint()":"9c7be2f1","addNewBody(uint256,string,bytes,bytes)":"f2361e23","approve(address,uint256)":"095ea7b3","balanceOf(address)":"70a08231","bodyIndexToMetadata(uint256)":"0c83f9d7","buyTrait(uint256)":"6273ca2c","cancelOwnershipHandover()":"54d1f13d","completeOwnershipHandover(address)":"f04e283e","equipAccessory(uint256,uint256)":"0447a45e","equipAll(uint256,uint256,uint256,uint256,uint256,uint256,uint256,uint256)":"4a4333a3","equipBottom(uint256,uint256)":"45a10d0f","equipFace(uint256,uint256)":"0f162320","equipHair(uint256,uint256)":"94cbd9c4","equipHead(uint256,uint256)":"1e162a33","equipShoes(uint256,uint256)":"60b77b23","equipTop(uint256,uint256)":"f18dc22d","firstSeasonRenderMinter()":"13ea0ae3","getApproved(uint256)":"081812fc","getBackpackSVGs(uint256)":"14fe8ff4","getBodyImage(bytes)":"e37db3c2","getBodyImageSvg(uint256)":"916c546b","getBodySVGZmapsAndMetadata((uint256,uint256,uint256,uint256,uint256,uint256,uint256,uint32,uint256,uint8,string,bool))":"92012f08","getBodySvgAndMetadata((uint256,uint256,uint256,uint256,uint256,uint256,uint256,uint32,uint256,uint8,string,bool))":"a23830ae","getBodyZMap(uint256)":"306c7334","getFullPictureForTrait(uint256)":"66704349","getOwnerAndTBAAddressForChonkId(uint256)":"cc9a5d37","getPeter(uint256)":"be928ff6","getPeterZMap(uint256)":"2bd1ca45","getTBAAddressForTokenId(uint256)":"8e29d3e9","getTokenRenderZ(uint256)":"8200ea51","getTraitTokens(address)":"998cfb6e","getTraitsForChonkId(uint256)":"850ad51a","isApprovedForAll(address,address)":"e985e9c5","mainRenderer()":"66b89b5a","marketplace()":"abc8c7af","mint()":"1249c58b","mintByLevel(uint8,string,bytes)":"cef80d4a","name()":"06fdde03","owner()":"8da5cb5b","ownerOf(uint256)":"6352211e","ownershipHandoverExpiresAt(address)":"fee81cf4","peterMakeover(uint256,uint256,uint256,uint256,uint256,uint256,uint256,uint256,uint8,string)":"93ccba72","price()":"a035b1fe","renderAsDataUri(uint256)":"a1d62680","renderAsDataUriSVG(uint256)":"b28fbe40","renderAsDataUriZ(uint256)":"7557f2dc","renounceOwnership()":"715018a6","requestOwnershipHandover()":"25692962","safeTransferFrom(address,address,uint256)":"42842e0e","safeTransferFrom(address,address,uint256,bytes)":"b88d4fde","setApprovalForAll(address,bool)":"a22cb465","setBackgroundColor(uint256,string)":"d68c4f32","setBodyIndex(uint256,uint8)":"e1405540","setFirstSeasonRenderMinter(address)":"58a97640","setMainRenderer(address)":"4ddb3961","setMarketplace(address)":"73ad6c2d","setMaxTraitsToOutput(uint256)":"33d3d9bf","setPrice(uint256)":"91b7f5ed","setSystemAddress(address)":"06210197","setTokenRenderZ(uint256,bool)":"07f4e045","setTraitsContract(address)":"5eabd84a","setZRenderer(address)":"172b054d","supportsInterface(bytes4)":"01ffc9a7","symbol()":"95d89b41","tbaAddressToTokenId(address)":"a4bf9a00","tokenByIndex(uint256)":"4f6ccce7","tokenIdToTBAAccountAddress(uint256)":"9c05d68d","tokenOfOwnerByIndex(address,uint256)":"2f745c59","tokenURI(uint256)":"c87b56dd","totalSupply()":"18160ddd","traitsContract()":"c093afdb","transferFrom(address,address,uint256)":"23b872dd","transferOwnership(address)":"f2fde38b","unequipAccessory(uint256)":"293ed3f7","unequipAll(uint256)":"3044825b","unequipBottom(uint256)":"9c762015","unequipFace(uint256)":"d5b55c8b","unequipHair(uint256)":"105338e0","unequipHead(uint256)":"7afe8d34","unequipShoes(uint256)":"58180d35","unequipTop(uint256)":"347bd8f4","walletOfOwner(address)":"438b6300","zRenderer()":"a15c561b"},"id":60}