{"abi":[{"type":"constructor","inputs":[{"name":"localDeploy_","type":"bool","internalType":"bool"}],"stateMutability":"nonpayable"},{"type":"function","name":"MAX_TRAITS_TO_OUTPUT","inputs":[],"outputs":[{"name":"","type":"uint256","internalType":"uint256"}],"stateMutability":"view"},{"type":"function","name":"_debugPostConstructorMint","inputs":[],"outputs":[],"stateMutability":"nonpayable"},{"type":"function","name":"addNewBody","inputs":[{"name":"_bodyIndex","type":"uint256","internalType":"uint256"},{"name":"_bodyName","type":"string","internalType":"string"},{"name":"_colorMap","type":"bytes","internalType":"bytes"},{"name":"_zMap","type":"bytes","internalType":"bytes"}],"outputs":[],"stateMutability":"nonpayable"},{"type":"function","name":"approve","inputs":[{"name":"to","type":"address","internalType":"address"},{"name":"tokenId","type":"uint256","internalType":"uint256"}],"outputs":[],"stateMutability":"nonpayable"},{"type":"function","name":"balanceOf","inputs":[{"name":"owner","type":"address","internalType":"address"}],"outputs":[{"name":"","type":"uint256","internalType":"uint256"}],"stateMutability":"view"},{"type":"function","name":"bodyIndexToMetadata","inputs":[{"name":"","type":"uint256","internalType":"uint256"}],"outputs":[{"name":"bodyIndex","type":"uint256","internalType":"uint256"},{"name":"bodyName","type":"string","internalType":"string"},{"name":"colorMap","type":"bytes","internalType":"bytes"},{"name":"zMap","type":"bytes","internalType":"bytes"}],"stateMutability":"view"},{"type":"function","name":"buyTrait","inputs":[{"name":"_tokenId","type":"uint256","internalType":"uint256"}],"outputs":[],"stateMutability":"nonpayable"},{"type":"function","name":"cancelOwnershipHandover","inputs":[],"outputs":[],"stateMutability":"payable"},{"type":"function","name":"completeOwnershipHandover","inputs":[{"name":"pendingOwner","type":"address","internalType":"address"}],"outputs":[],"stateMutability":"payable"},{"type":"function","name":"equipAll","inputs":[{"name":"_peterTokenId","type":"uint256","internalType":"uint256"},{"name":"_hatTokenId","type":"uint256","internalType":"uint256"},{"name":"_hairTokenId","type":"uint256","internalType":"uint256"},{"name":"_glassesTokenId","type":"uint256","internalType":"uint256"},{"name":"_handheldTokenId","type":"uint256","internalType":"uint256"},{"name":"_shirtTokenId","type":"uint256","internalType":"uint256"},{"name":"_pantsTokenId","type":"uint256","internalType":"uint256"},{"name":"_shoesTokenId","type":"uint256","internalType":"uint256"}],"outputs":[],"stateMutability":"nonpayable"},{"type":"function","name":"equipGlasses","inputs":[{"name":"_peterTokenId","type":"uint256","internalType":"uint256"},{"name":"_traitTokenId","type":"uint256","internalType":"uint256"}],"outputs":[],"stateMutability":"nonpayable"},{"type":"function","name":"equipHair","inputs":[{"name":"_peterTokenId","type":"uint256","internalType":"uint256"},{"name":"_traitTokenId","type":"uint256","internalType":"uint256"}],"outputs":[],"stateMutability":"nonpayable"},{"type":"function","name":"equipHandheld","inputs":[{"name":"_peterTokenId","type":"uint256","internalType":"uint256"},{"name":"_traitTokenId","type":"uint256","internalType":"uint256"}],"outputs":[],"stateMutability":"nonpayable"},{"type":"function","name":"equipHat","inputs":[{"name":"_peterTokenId","type":"uint256","internalType":"uint256"},{"name":"_traitTokenId","type":"uint256","internalType":"uint256"}],"outputs":[],"stateMutability":"nonpayable"},{"type":"function","name":"equipPants","inputs":[{"name":"_peterTokenId","type":"uint256","internalType":"uint256"},{"name":"_traitTokenId","type":"uint256","internalType":"uint256"}],"outputs":[],"stateMutability":"nonpayable"},{"type":"function","name":"equipShirt","inputs":[{"name":"_peterTokenId","type":"uint256","internalType":"uint256"},{"name":"_traitTokenId","type":"uint256","internalType":"uint256"}],"outputs":[],"stateMutability":"nonpayable"},{"type":"function","name":"equipShoes","inputs":[{"name":"_peterTokenId","type":"uint256","internalType":"uint256"},{"name":"_traitTokenId","type":"uint256","internalType":"uint256"}],"outputs":[],"stateMutability":"nonpayable"},{"type":"function","name":"firstSeasonRenderMinter","inputs":[],"outputs":[{"name":"","type":"address","internalType":"contract FirstSeasonRenderMinter"}],"stateMutability":"view"},{"type":"function","name":"getApproved","inputs":[{"name":"tokenId","type":"uint256","internalType":"uint256"}],"outputs":[{"name":"","type":"address","internalType":"address"}],"stateMutability":"view"},{"type":"function","name":"getBackpackSVGs","inputs":[{"name":"_tokenId","type":"uint256","internalType":"uint256"}],"outputs":[{"name":"backpackSVGs","type":"string","internalType":"string"}],"stateMutability":"view"},{"type":"function","name":"getBodyImage","inputs":[{"name":"colorMap","type":"bytes","internalType":"bytes"}],"outputs":[{"name":"","type":"bytes","internalType":"bytes"}],"stateMutability":"pure"},{"type":"function","name":"getBodyImageSvg","inputs":[{"name":"_index","type":"uint256","internalType":"uint256"}],"outputs":[{"name":"svg","type":"string","internalType":"string"}],"stateMutability":"view"},{"type":"function","name":"getBodySVGZmapsAndMetadata","inputs":[{"name":"storedPeter","type":"tuple","internalType":"struct IPeterStorage.StoredPeter","components":[{"name":"hatId","type":"uint256","internalType":"uint256"},{"name":"hairId","type":"uint256","internalType":"uint256"},{"name":"glassesId","type":"uint256","internalType":"uint256"},{"name":"handheldId","type":"uint256","internalType":"uint256"},{"name":"shirtId","type":"uint256","internalType":"uint256"},{"name":"pantsId","type":"uint256","internalType":"uint256"},{"name":"shoesId","type":"uint256","internalType":"uint256"},{"name":"epoch","type":"uint32","internalType":"uint32"},{"name":"tokenId","type":"uint16","internalType":"uint16"},{"name":"bodyIndex","type":"uint256","internalType":"uint256"},{"name":"isRevealed","type":"bool","internalType":"bool"},{"name":"seed","type":"uint256","internalType":"uint256"},{"name":"backgroundColor","type":"string","internalType":"string"},{"name":"renderZ","type":"bool","internalType":"bool"}]}],"outputs":[{"name":"","type":"string","internalType":"string"},{"name":"","type":"bytes","internalType":"bytes"},{"name":"","type":"string","internalType":"string"}],"stateMutability":"view"},{"type":"function","name":"getBodySvgAndMetadata","inputs":[{"name":"storedPeter","type":"tuple","internalType":"struct IPeterStorage.StoredPeter","components":[{"name":"hatId","type":"uint256","internalType":"uint256"},{"name":"hairId","type":"uint256","internalType":"uint256"},{"name":"glassesId","type":"uint256","internalType":"uint256"},{"name":"handheldId","type":"uint256","internalType":"uint256"},{"name":"shirtId","type":"uint256","internalType":"uint256"},{"name":"pantsId","type":"uint256","internalType":"uint256"},{"name":"shoesId","type":"uint256","internalType":"uint256"},{"name":"epoch","type":"uint32","internalType":"uint32"},{"name":"tokenId","type":"uint16","internalType":"uint16"},{"name":"bodyIndex","type":"uint256","internalType":"uint256"},{"name":"isRevealed","type":"bool","internalType":"bool"},{"name":"seed","type":"uint256","internalType":"uint256"},{"name":"backgroundColor","type":"string","internalType":"string"},{"name":"renderZ","type":"bool","internalType":"bool"}]}],"outputs":[{"name":"","type":"string","internalType":"string"},{"name":"","type":"string","internalType":"string"}],"stateMutability":"view"},{"type":"function","name":"getBodyZMap","inputs":[{"name":"_tokenId","type":"uint256","internalType":"uint256"}],"outputs":[{"name":"","type":"string","internalType":"string"}],"stateMutability":"view"},{"type":"function","name":"getEpoch","inputs":[],"outputs":[{"name":"","type":"uint256","internalType":"uint256"}],"stateMutability":"view"},{"type":"function","name":"getEpochData","inputs":[{"name":"index","type":"uint256","internalType":"uint256"}],"outputs":[{"name":"","type":"tuple","internalType":"struct CommitReveal.Epoch","components":[{"name":"randomness","type":"uint128","internalType":"uint128"},{"name":"revealBlock","type":"uint64","internalType":"uint64"},{"name":"committed","type":"bool","internalType":"bool"},{"name":"revealed","type":"bool","internalType":"bool"}]}],"stateMutability":"view"},{"type":"function","name":"getOwnerAndTBAAddressForTokenId","inputs":[{"name":"_tokenId","type":"uint256","internalType":"uint256"}],"outputs":[{"name":"owner","type":"address","internalType":"address"},{"name":"tbaAddress","type":"address","internalType":"address"}],"stateMutability":"view"},{"type":"function","name":"getPeter","inputs":[{"name":"_tokenId","type":"uint256","internalType":"uint256"}],"outputs":[{"name":"","type":"tuple","internalType":"struct IPeterStorage.StoredPeter","components":[{"name":"hatId","type":"uint256","internalType":"uint256"},{"name":"hairId","type":"uint256","internalType":"uint256"},{"name":"glassesId","type":"uint256","internalType":"uint256"},{"name":"handheldId","type":"uint256","internalType":"uint256"},{"name":"shirtId","type":"uint256","internalType":"uint256"},{"name":"pantsId","type":"uint256","internalType":"uint256"},{"name":"shoesId","type":"uint256","internalType":"uint256"},{"name":"epoch","type":"uint32","internalType":"uint32"},{"name":"tokenId","type":"uint16","internalType":"uint16"},{"name":"bodyIndex","type":"uint256","internalType":"uint256"},{"name":"isRevealed","type":"bool","internalType":"bool"},{"name":"seed","type":"uint256","internalType":"uint256"},{"name":"backgroundColor","type":"string","internalType":"string"},{"name":"renderZ","type":"bool","internalType":"bool"}]}],"stateMutability":"view"},{"type":"function","name":"getPeterZMap","inputs":[{"name":"_tokenId","type":"uint256","internalType":"uint256"}],"outputs":[{"name":"","type":"string","internalType":"string"}],"stateMutability":"view"},{"type":"function","name":"getTraitTokens","inputs":[{"name":"_tbaAddress","type":"address","internalType":"address"}],"outputs":[{"name":"","type":"uint256[]","internalType":"uint256[]"}],"stateMutability":"view"},{"type":"function","name":"isApprovedForAll","inputs":[{"name":"owner","type":"address","internalType":"address"},{"name":"operator","type":"address","internalType":"address"}],"outputs":[{"name":"","type":"bool","internalType":"bool"}],"stateMutability":"view"},{"type":"function","name":"mainRenderer","inputs":[],"outputs":[{"name":"","type":"address","internalType":"contract MainRenderer"}],"stateMutability":"view"},{"type":"function","name":"mint","inputs":[],"outputs":[],"stateMutability":"payable"},{"type":"function","name":"name","inputs":[],"outputs":[{"name":"","type":"string","internalType":"string"}],"stateMutability":"view"},{"type":"function","name":"owner","inputs":[],"outputs":[{"name":"result","type":"address","internalType":"address"}],"stateMutability":"view"},{"type":"function","name":"ownerOf","inputs":[{"name":"tokenId","type":"uint256","internalType":"uint256"}],"outputs":[{"name":"","type":"address","internalType":"address"}],"stateMutability":"view"},{"type":"function","name":"ownershipHandoverExpiresAt","inputs":[{"name":"pendingOwner","type":"address","internalType":"address"}],"outputs":[{"name":"result","type":"uint256","internalType":"uint256"}],"stateMutability":"view"},{"type":"function","name":"price","inputs":[],"outputs":[{"name":"","type":"uint256","internalType":"uint256"}],"stateMutability":"view"},{"type":"function","name":"renderAsDataUri","inputs":[{"name":"_tokenId","type":"uint256","internalType":"uint256"}],"outputs":[{"name":"","type":"string","internalType":"string"}],"stateMutability":"view"},{"type":"function","name":"renderAsDataUriSVG","inputs":[{"name":"_tokenId","type":"uint256","internalType":"uint256"}],"outputs":[{"name":"","type":"string","internalType":"string"}],"stateMutability":"view"},{"type":"function","name":"renderAsDataUriZ","inputs":[{"name":"_tokenId","type":"uint256","internalType":"uint256"}],"outputs":[{"name":"","type":"string","internalType":"string"}],"stateMutability":"view"},{"type":"function","name":"renounceOwnership","inputs":[],"outputs":[],"stateMutability":"payable"},{"type":"function","name":"requestOwnershipHandover","inputs":[],"outputs":[],"stateMutability":"payable"},{"type":"function","name":"resolveEpochIfNecessary","inputs":[],"outputs":[],"stateMutability":"nonpayable"},{"type":"function","name":"safeTransferFrom","inputs":[{"name":"from","type":"address","internalType":"address"},{"name":"to","type":"address","internalType":"address"},{"name":"tokenId","type":"uint256","internalType":"uint256"}],"outputs":[],"stateMutability":"nonpayable"},{"type":"function","name":"safeTransferFrom","inputs":[{"name":"from","type":"address","internalType":"address"},{"name":"to","type":"address","internalType":"address"},{"name":"tokenId","type":"uint256","internalType":"uint256"},{"name":"data","type":"bytes","internalType":"bytes"}],"outputs":[],"stateMutability":"nonpayable"},{"type":"function","name":"setApprovalForAll","inputs":[{"name":"operator","type":"address","internalType":"address"},{"name":"approved","type":"bool","internalType":"bool"}],"outputs":[],"stateMutability":"nonpayable"},{"type":"function","name":"setBackgroundColor","inputs":[{"name":"_peterTokenId","type":"uint256","internalType":"uint256"},{"name":"_color","type":"string","internalType":"string"}],"outputs":[],"stateMutability":"nonpayable"},{"type":"function","name":"setBodyIndex","inputs":[{"name":"_peterTokenId","type":"uint256","internalType":"uint256"},{"name":"_bodyIndex","type":"uint256","internalType":"uint256"}],"outputs":[],"stateMutability":"nonpayable"},{"type":"function","name":"setFirstSeasonRenderMinter","inputs":[{"name":"_dataContract","type":"address","internalType":"address"}],"outputs":[],"stateMutability":"nonpayable"},{"type":"function","name":"setMainRenderer","inputs":[{"name":"_mainRenderer","type":"address","internalType":"address"}],"outputs":[],"stateMutability":"nonpayable"},{"type":"function","name":"setMaxTraitsToOutput","inputs":[{"name":"_maxTraitsToOutput","type":"uint256","internalType":"uint256"}],"outputs":[],"stateMutability":"nonpayable"},{"type":"function","name":"setPrice","inputs":[{"name":"_priceInWei","type":"uint256","internalType":"uint256"}],"outputs":[],"stateMutability":"nonpayable"},{"type":"function","name":"setRenderZ","inputs":[{"name":"_peterTokenId","type":"uint256","internalType":"uint256"},{"name":"_renderZ","type":"bool","internalType":"bool"}],"outputs":[],"stateMutability":"nonpayable"},{"type":"function","name":"setTraitsContract","inputs":[{"name":"_address","type":"address","internalType":"contract PeterTraits"}],"outputs":[],"stateMutability":"nonpayable"},{"type":"function","name":"setZRenderer","inputs":[{"name":"_zRenderer","type":"address","internalType":"address"}],"outputs":[],"stateMutability":"nonpayable"},{"type":"function","name":"supportsInterface","inputs":[{"name":"interfaceId","type":"bytes4","internalType":"bytes4"}],"outputs":[{"name":"","type":"bool","internalType":"bool"}],"stateMutability":"view"},{"type":"function","name":"symbol","inputs":[],"outputs":[{"name":"","type":"string","internalType":"string"}],"stateMutability":"view"},{"type":"function","name":"tokenByIndex","inputs":[{"name":"index","type":"uint256","internalType":"uint256"}],"outputs":[{"name":"","type":"uint256","internalType":"uint256"}],"stateMutability":"view"},{"type":"function","name":"tokenIdToTBAAccountAddress","inputs":[{"name":"","type":"uint256","internalType":"uint256"}],"outputs":[{"name":"","type":"uint160","internalType":"uint160"}],"stateMutability":"view"},{"type":"function","name":"tokenOfOwnerByIndex","inputs":[{"name":"owner","type":"address","internalType":"address"},{"name":"index","type":"uint256","internalType":"uint256"}],"outputs":[{"name":"","type":"uint256","internalType":"uint256"}],"stateMutability":"view"},{"type":"function","name":"tokenURI","inputs":[{"name":"_tokenId","type":"uint256","internalType":"uint256"}],"outputs":[{"name":"","type":"string","internalType":"string"}],"stateMutability":"view"},{"type":"function","name":"totalSupply","inputs":[],"outputs":[{"name":"","type":"uint256","internalType":"uint256"}],"stateMutability":"view"},{"type":"function","name":"traitsContract","inputs":[],"outputs":[{"name":"","type":"address","internalType":"contract PeterTraits"}],"stateMutability":"view"},{"type":"function","name":"transferFrom","inputs":[{"name":"from","type":"address","internalType":"address"},{"name":"to","type":"address","internalType":"address"},{"name":"tokenId","type":"uint256","internalType":"uint256"}],"outputs":[],"stateMutability":"nonpayable"},{"type":"function","name":"transferOwnership","inputs":[{"name":"newOwner","type":"address","internalType":"address"}],"outputs":[],"stateMutability":"payable"},{"type":"function","name":"unequipAll","inputs":[{"name":"_peterTokenId","type":"uint256","internalType":"uint256"}],"outputs":[],"stateMutability":"nonpayable"},{"type":"function","name":"unequipGlasses","inputs":[{"name":"_peterTokenId","type":"uint256","internalType":"uint256"}],"outputs":[],"stateMutability":"nonpayable"},{"type":"function","name":"unequipHair","inputs":[{"name":"_peterTokenId","type":"uint256","internalType":"uint256"}],"outputs":[],"stateMutability":"nonpayable"},{"type":"function","name":"unequipHandheld","inputs":[{"name":"_peterTokenId","type":"uint256","internalType":"uint256"}],"outputs":[],"stateMutability":"nonpayable"},{"type":"function","name":"unequipHat","inputs":[{"name":"_peterTokenId","type":"uint256","internalType":"uint256"}],"outputs":[],"stateMutability":"nonpayable"},{"type":"function","name":"unequipPants","inputs":[{"name":"_peterTokenId","type":"uint256","internalType":"uint256"}],"outputs":[],"stateMutability":"nonpayable"},{"type":"function","name":"unequipShirt","inputs":[{"name":"_peterTokenId","type":"uint256","internalType":"uint256"}],"outputs":[],"stateMutability":"nonpayable"},{"type":"function","name":"unequipShoes","inputs":[{"name":"_peterTokenId","type":"uint256","internalType":"uint256"}],"outputs":[],"stateMutability":"nonpayable"},{"type":"function","name":"walletOfOwner","inputs":[{"name":"_owner","type":"address","internalType":"address"}],"outputs":[{"name":"","type":"uint256[]","internalType":"uint256[]"}],"stateMutability":"view"},{"type":"function","name":"zRenderer","inputs":[],"outputs":[{"name":"","type":"address","internalType":"contract ZRenderer"}],"stateMutability":"view"},{"type":"event","name":"Approval","inputs":[{"name":"owner","type":"address","indexed":true,"internalType":"address"},{"name":"approved","type":"address","indexed":true,"internalType":"address"},{"name":"tokenId","type":"uint256","indexed":true,"internalType":"uint256"}],"anonymous":false},{"type":"event","name":"ApprovalForAll","inputs":[{"name":"owner","type":"address","indexed":true,"internalType":"address"},{"name":"operator","type":"address","indexed":true,"internalType":"address"},{"name":"approved","type":"bool","indexed":false,"internalType":"bool"}],"anonymous":false},{"type":"event","name":"BatchMetadataUpdate","inputs":[{"name":"_fromTokenId","type":"uint256","indexed":false,"internalType":"uint256"},{"name":"_toTokenId","type":"uint256","indexed":false,"internalType":"uint256"}],"anonymous":false},{"type":"event","name":"Equip","inputs":[{"name":"owner","type":"address","indexed":true,"internalType":"address"},{"name":"tokenId","type":"uint256","indexed":true,"internalType":"uint256"},{"name":"traitTokenId","type":"uint256","indexed":true,"internalType":"uint256"},{"name":"traitCategory","type":"string","indexed":false,"internalType":"string"}],"anonymous":false},{"type":"event","name":"EquipAll","inputs":[{"name":"owner","type":"address","indexed":true,"internalType":"address"},{"name":"tokenId","type":"uint256","indexed":true,"internalType":"uint256"}],"anonymous":false},{"type":"event","name":"MetadataUpdate","inputs":[{"name":"_tokenId","type":"uint256","indexed":false,"internalType":"uint256"}],"anonymous":false},{"type":"event","name":"Mint","inputs":[{"name":"owner","type":"address","indexed":true,"internalType":"address"},{"name":"tokenId","type":"uint256","indexed":true,"internalType":"uint256"}],"anonymous":false},{"type":"event","name":"NewEpoch","inputs":[{"name":"epoch","type":"uint256","indexed":true,"internalType":"uint256"},{"name":"revealBlock","type":"uint64","indexed":true,"internalType":"uint64"}],"anonymous":false},{"type":"event","name":"OwnershipHandoverCanceled","inputs":[{"name":"pendingOwner","type":"address","indexed":true,"internalType":"address"}],"anonymous":false},{"type":"event","name":"OwnershipHandoverRequested","inputs":[{"name":"pendingOwner","type":"address","indexed":true,"internalType":"address"}],"anonymous":false},{"type":"event","name":"OwnershipTransferred","inputs":[{"name":"oldOwner","type":"address","indexed":true,"internalType":"address"},{"name":"newOwner","type":"address","indexed":true,"internalType":"address"}],"anonymous":false},{"type":"event","name":"Transfer","inputs":[{"name":"from","type":"address","indexed":true,"internalType":"address"},{"name":"to","type":"address","indexed":true,"internalType":"address"},{"name":"tokenId","type":"uint256","indexed":true,"internalType":"uint256"}],"anonymous":false},{"type":"event","name":"Unequip","inputs":[{"name":"owner","type":"address","indexed":true,"internalType":"address"},{"name":"tokenId","type":"uint256","indexed":true,"internalType":"uint256"},{"name":"traitCategory","type":"string","indexed":true,"internalType":"string"}],"anonymous":false},{"type":"event","name":"UnequipAll","inputs":[{"name":"owner","type":"address","indexed":true,"internalType":"address"},{"name":"tokenId","type":"uint256","indexed":true,"internalType":"uint256"}],"anonymous":false},{"type":"error","name":"AlreadyInitialized","inputs":[]},{"type":"error","name":"BodyAlreadyExists","inputs":[]},{"type":"error","name":"FirstSeasonRenderMinterNotSet","inputs":[]},{"type":"error","name":"IncorrectPeterOwner","inputs":[]},{"type":"error","name":"IncorrectTBAOwner","inputs":[]},{"type":"error","name":"IncorrectTraitType","inputs":[]},{"type":"error","name":"NewOwnerIsZeroAddress","inputs":[]},{"type":"error","name":"NoHandoverRequest","inputs":[]},{"type":"error","name":"PeterDoesntExist","inputs":[]},{"type":"error","name":"Unauthorized","inputs":[]}],"bytecode":{"object":"0x6080604052600060105560456012553480156200001b57600080fd5b5060405162005b3a38038062005b3a8339810160408190526200003e9162000106565b6040518060400160405280600a81526020016914195d195c8815195cdd60b21b815250604051806040016040528060058152602001642822aa22a960d91b8152508160009081620000909190620001d8565b5060016200009f8282620001d8565b505050620000b333620000ca60201b60201c565b600a805460ff1916911515919091179055620002a4565b6001600160a01b0316638b78c6d8198190558060007f8be0079c531659141344cd1fd0a4f28419497f9722a3daafe3b4186f6b6457e08180a350565b6000602082840312156200011957600080fd5b815180151581146200012a57600080fd5b9392505050565b634e487b7160e01b600052604160045260246000fd5b600181811c908216806200015c57607f821691505b6020821081036200017d57634e487b7160e01b600052602260045260246000fd5b50919050565b601f821115620001d3576000816000526020600020601f850160051c81016020861015620001ae5750805b601f850160051c820191505b81811015620001cf57828155600101620001ba565b5050505b505050565b81516001600160401b03811115620001f457620001f462000131565b6200020c8162000205845462000147565b8462000183565b602080601f8311600181146200024457600084156200022b5750858301515b600019600386901b1c1916600185901b178555620001cf565b600085815260208120601f198616915b82811015620002755788860151825594840194600190910190840162000254565b5085821015620002945787850151600019600388901b60f8161c191681555b5050505050600190811b01905550565b61588680620002b46000396000f3fe6080604052600436106104525760003560e01c8063661ee23a1161023f578063a22cb46511610139578063cc9a5d37116100b6578063f04e283e1161007a578063f04e283e14610e6b578063f225dc4014610e7e578063f2361e2314610e9e578063f2fde38b14610ebe578063fee81cf414610ed157600080fd5b8063cc9a5d3714610d82578063d68c4f3214610dc2578063e37db3c214610de2578063e5a6826114610e02578063e985e9c514610e2257600080fd5b8063b53d1fd7116100fd578063b53d1fd714610cb7578063b88d4fde14610cf5578063be928ff614610d15578063c093afdb14610d42578063c87b56dd14610d6257600080fd5b8063a22cb46514610c17578063a860c96c14610c37578063a959bb1d14610c57578063b28fbe4014610c77578063b528279314610c9757600080fd5b8063916c546b116101c75780639c05d68d1161018b5780639c05d68d14610b765780639c7be2f114610bac578063a035b1fe14610bc1578063a15c561b14610bd7578063a1d6268014610bf757600080fd5b8063916c546b14610ae157806391b7f5ed14610b0157806394cbd9c414610b2157806395d89b4114610b41578063998cfb6e14610b5657600080fd5b80637365eea81161020e5780637365eea81461098c5780637557f2dc146109ac578063757991a8146109cc578063859e7d32146109e15780638da5cb5b14610ac857600080fd5b8063661ee23a1461091657806366b89b5a1461094457806370a0823114610964578063715018a61461098457600080fd5b80633044825b116103505780634ddb3961116102d85780635a5474dd1161029c5780635a5474dd146108765780635eabd84a1461089657806360b77b23146108b65780636273ca2c146108d65780636352211e146108f657600080fd5b80634ddb3961146107ee5780634f6ccce71461080e57806354d1f13d1461082e57806358180d351461083657806358a976401461085657600080fd5b806342842e0e1161031f57806342842e0e14610732578063438b630014610752578063457e7e611461077f57806345d2d7bd1461079f5780634a4333a3146107ce57600080fd5b80633044825b146106b2578063306c7334146106d257806333d3d9bf146106f25780633fdc97fd1461071257600080fd5b806314fe8ff4116103de578063239ffa68116103a2578063239ffa681461063557806323b872dd1461064a578063256929621461066a5780632bd1ca45146106725780632f745c591461069257600080fd5b806314fe8ff4146105a0578063172b054d146105c057806318160ddd146105e057806320e0b93c146105ff57806321468d021461061557600080fd5b8063095ea7b311610425578063095ea7b3146105085780630c83f9d714610528578063105338e0146105585780631249c58b1461057857806313ea0ae31461058057600080fd5b806301ffc9a71461045757806306e02a351461048c57806306fdde03146104ae578063081812fc146104d0575b600080fd5b34801561046357600080fd5b50610477610472366004614198565b610f04565b60405190151581526020015b60405180910390f35b34801561049857600080fd5b506104ac6104a73660046141b5565b610f15565b005b3480156104ba57600080fd5b506104c3610f8e565b604051610483919061421e565b3480156104dc57600080fd5b506104f06104eb3660046141b5565b611020565b6040516001600160a01b039091168152602001610483565b34801561051457600080fd5b506104ac610523366004614246565b611047565b34801561053457600080fd5b506105486105433660046141b5565b611161565b6040516104839493929190614272565b34801561056457600080fd5b506104ac6105733660046141b5565b611322565b6104ac611354565b34801561058c57600080fd5b506014546104f0906001600160a01b031681565b3480156105ac57600080fd5b506104c36105bb3660046141b5565b6116f7565b3480156105cc57600080fd5b506104ac6105db3660046142bc565b611959565b3480156105ec57600080fd5b506008545b604051908152602001610483565b34801561060b57600080fd5b506105f160125481565b34801561062157600080fd5b506104ac6106303660046142d9565b611983565b34801561064157600080fd5b506104ac611a03565b34801561065657600080fd5b506104ac6106653660046142fb565b611bdf565b6104ac611c10565b34801561067e57600080fd5b506104c361068d3660046141b5565b611c5f565b34801561069e57600080fd5b506105f16106ad366004614246565b611d23565b3480156106be57600080fd5b506104ac6106cd3660046141b5565b611db9565b3480156106de57600080fd5b506104c36106ed3660046141b5565b611e41565b3480156106fe57600080fd5b506104ac61070d3660046141b5565b611e64565b34801561071e57600080fd5b506104ac61072d3660046141b5565b611e71565b34801561073e57600080fd5b506104ac61074d3660046142fb565b611ea6565b34801561075e57600080fd5b5061077261076d3660046142bc565b611ec1565b604051610483919061433c565b34801561078b57600080fd5b506104ac61079a3660046142d9565b611f58565b3480156107ab57600080fd5b506107bf6107ba3660046144a7565b611fbd565b604051610483939291906145bd565b3480156107da57600080fd5b506104ac6107e9366004614600565b6121a7565b3480156107fa57600080fd5b506104ac6108093660046142bc565b612260565b34801561081a57600080fd5b506105f16108293660046141b5565b61228a565b6104ac61231d565b34801561084257600080fd5b506104ac6108513660046141b5565b612359565b34801561086257600080fd5b506104ac6108713660046142bc565b61238c565b34801561088257600080fd5b506104ac6108913660046142d9565b6123b6565b3480156108a257600080fd5b506104ac6108b13660046142bc565b612428565b3480156108c257600080fd5b506104ac6108d13660046142d9565b612452565b3480156108e257600080fd5b506104ac6108f13660046141b5565b6124c4565b34801561090257600080fd5b506104f06109113660046141b5565b612548565b34801561092257600080fd5b506109366109313660046144a7565b6125a8565b604051610483929190614655565b34801561095057600080fd5b506015546104f0906001600160a01b031681565b34801561097057600080fd5b506105f161097f3660046142bc565b61264f565b6104ac6126d5565b34801561099857600080fd5b506104ac6109a73660046141b5565b6126e9565b3480156109b857600080fd5b506104c36109c73660046141b5565b61271f565b3480156109d857600080fd5b50600d546105f1565b3480156109ed57600080fd5b50610a7f6109fc3660046141b5565b6040805160808082018352600080835260208084018290528385018290526060938401829052948152600c855283902083519182018452546001600160801b03811682526001600160401b03600160801b8204169482019490945260ff600160c01b85048116151593820193909352600160c81b90930490911615159082015290565b604051610483919081516001600160801b031681526020808301516001600160401b03169082015260408083015115159082015260609182015115159181019190915260800190565b348015610ad457600080fd5b50638b78c6d819546104f0565b348015610aed57600080fd5b506104c3610afc3660046141b5565b6128ff565b348015610b0d57600080fd5b506104ac610b1c3660046141b5565b612a23565b348015610b2d57600080fd5b506104ac610b3c3660046142d9565b612a30565b348015610b4d57600080fd5b506104c3612aa1565b348015610b6257600080fd5b50610772610b713660046142bc565b612ab0565b348015610b8257600080fd5b506104f0610b913660046141b5565b6013602052600090815260409020546001600160a01b031681565b348015610bb857600080fd5b506104ac612b26565b348015610bcd57600080fd5b506105f160115481565b348015610be357600080fd5b506016546104f0906001600160a01b031681565b348015610c0357600080fd5b506104c3610c123660046141b5565b612b4d565b348015610c2357600080fd5b506104ac610c32366004614683565b612b7d565b348015610c4357600080fd5b506104ac610c523660046142d9565b612b8c565b348015610c6357600080fd5b506104ac610c723660046141b5565b612bfe565b348015610c8357600080fd5b506104c3610c923660046141b5565b612c31565b348015610ca357600080fd5b506104ac610cb23660046141b5565b612d90565b348015610cc357600080fd5b506104ac610cd23660046146b8565b6000918252600b6020526040909120600c01805460ff1916911515919091179055565b348015610d0157600080fd5b506104ac610d103660046146db565b612dbe565b348015610d2157600080fd5b50610d35610d303660046141b5565b612df0565b6040516104839190614746565b348015610d4e57600080fd5b50600f546104f0906001600160a01b031681565b348015610d6e57600080fd5b506104c3610d7d3660046141b5565b61308a565b348015610d8e57600080fd5b50610da2610d9d3660046141b5565b6130cb565b604080516001600160a01b03938416815292909116602083015201610483565b348015610dce57600080fd5b506104ac610ddd366004614822565b6130fa565b348015610dee57600080fd5b506104c3610dfd366004614868565b613157565b348015610e0e57600080fd5b506104ac610e1d3660046142d9565b613409565b348015610e2e57600080fd5b50610477610e3d36600461489c565b6001600160a01b03918216600090815260056020908152604080832093909416825291909152205460ff1690565b6104ac610e793660046142bc565b613476565b348015610e8a57600080fd5b506104ac610e993660046142d9565b6134b3565b348015610eaa57600080fd5b506104ac610eb93660046148d5565b613528565b6104ac610ecc3660046142bc565b613575565b348015610edd57600080fd5b506105f1610eec3660046142bc565b63389a75e1600c908152600091909152602090205490565b6000610f0f8261359c565b92915050565b610f1e816135c1565b6000818152600b6020526040808220600590810192909255516450616e747360d81b8152015b604051809103902081610f5683612548565b6001600160a01b03167fe428b1839105819dce5e635ac7e16ed2a43028f6e294bab8655e29acb5dc60bb60405160405180910390a450565b606060008054610f9d9061495a565b80601f0160208091040260200160405190810160405280929190818152602001828054610fc99061495a565b80156110165780601f10610feb57610100808354040283529160200191611016565b820191906000526020600020905b815481529060010190602001808311610ff957829003601f168201915b5050505050905090565b600061102b826135fb565b506000908152600460205260409020546001600160a01b031690565b600061105282612548565b9050806001600160a01b0316836001600160a01b0316036110c45760405162461bcd60e51b815260206004820152602160248201527f4552433732313a20617070726f76616c20746f2063757272656e74206f776e656044820152603960f91b60648201526084015b60405180910390fd5b336001600160a01b03821614806110e057506110e08133610e3d565b6111525760405162461bcd60e51b815260206004820152603e60248201527f4552433732313a20617070726f76652063616c6c6572206973206e6f7420746f60448201527f6b656e206f776e6572206e6f7220617070726f76656420666f7220616c6c000060648201526084016110bb565b61115c838361365a565b505050565b600e60205260009081526040902080546001820180549192916111839061495a565b80601f01602080910402602001604051908101604052809291908181526020018280546111af9061495a565b80156111fc5780601f106111d1576101008083540402835291602001916111fc565b820191906000526020600020905b8154815290600101906020018083116111df57829003601f168201915b5050505050908060020180546112119061495a565b80601f016020809104026020016040519081016040528092919081815260200182805461123d9061495a565b801561128a5780601f1061125f5761010080835404028352916020019161128a565b820191906000526020600020905b81548152906001019060200180831161126d57829003601f168201915b50505050509080600301805461129f9061495a565b80601f01602080910402602001604051908101604052809291908181526020018280546112cb9061495a565b80156113185780601f106112ed57610100808354040283529160200191611318565b820191906000526020600020905b8154815290600101906020018083116112fb57829003601f168201915b5050505050905084565b61132b816135c1565b6000818152600b60205260408082206001019190915551632430b4b960e11b8152600401610f44565b6014546001600160a01b031661137d57604051633390ca8960e21b815260040160405180910390fd5b611385611a03565b6000601060008154611396906149aa565b918290555090506113a733826136c8565b604051638a54c52f60e01b81527355266d75d1a14e4572138116af39863ed6596e7f600482015260006024820181905262014a34604483015230606483015260848201839052906f6551c19487814612e58fe0681377575890638a54c52f9060a4016020604051808303816000875af1158015611428573d6000803e3d6000fd5b505050506040513d601f19601f8201168201806040525081019061144c91906149c3565b6000838152601360205260409081902080546001600160a01b0319166001600160a01b038416908117909155905163189acdbd60e31b81527341c8f39463a868d3a88af00cd0fe7102f30e44ec60048201529192509063c4d66de890602401600060405180830381600087803b1580156114c557600080fd5b505af11580156114d9573d6000803e3d6000fd5b5050601454604051637458922960e11b81526001600160a01b03858116600483015260009450909116915063e8b12452906024016000604051808303816000875af115801561152c573d6000803e3d6000fd5b505050506040513d6000823e601f3d908101601f1916820160405261155491908101906149e0565b6000848152600b60205260408120600d5460078201805461ffff8916600a850181905563ffffffff90931665ffffffffffff19909116176401000000009092029190911790558251929350918391906115af576115af614a85565b60200260200101518160040181905550816001815181106115d2576115d2614a85565b60200260200101518160050181905550816002815181106115f5576115f5614a85565b602002602001015181600601819055508160038151811061161857611618614a85565b602002602001015181600101819055508160048151811061163b5761163b614a85565b6020908102919091018101516003830155600c8201805460ff19169055600160088301556040805180820190915260068152650c110d914e5160d21b91810191909152600b82019061168d9082614ae3565b50604051849033907f0f6798a560793a54c3bcfe86a93cde1e73087d944c0ea20544137d412139688590600090a36116f16040518060400160405280601481526020017336b4b73a32b2103137b23c903a37b5b2b724b21d60611b81525085613816565b50505050565b6000818152601360205260408120546060916001600160a01b039091169061171e82612ab0565b905060006040518060400160405280601b81526020017f3c7376672076696577426f783d223020302031353020313530223e000000000081525090506000604051806040016040528060068152602001651e17b9bb339f60d11b815250905060606000600f60009054906101000a90046001600160a01b03166001600160a01b0316635c1ef2566040518163ffffffff1660e01b8152600401600060405180830381865afa1580156117d4573d6000803e3d6000fd5b505050506040513d6000823e601f3d908101601f191682016040526117fc9190810190614bf2565b9050600060125486511061181257601254611815565b85515b9050604051806105400160405280610505815260200161534c610505913982604051602001611845929190614c26565b604051602081830303815290604052925060005b8181101561192a57600f5487516000916001600160a01b03169063c7791531908a908590811061188b5761188b614a85565b60200260200101516040518263ffffffff1660e01b81526004016118b191815260200190565b600060405180830381865afa1580156118ce573d6000803e3d6000fd5b505050506040513d6000823e601f3d908101601f191682016040526118f69190810190614bf2565b90508487828860405160200161190f9493929190614c7d565b60408051601f19818403018152919052945050600101611859565b508260405160200161193c9190614cd4565b60408051601f198184030181529190529998505050505050505050565b61196161385b565b601680546001600160a01b0319166001600160a01b0392909216919091179055565b61198d8282613876565b611998816002613935565b6000828152600b6020526040902060020181905580826119b781612548565b6001600160a01b031660008051602061532c8339815191526040516119f790602080825260079082015266476c617373657360c81b604082015260600190565b60405180910390a45050565b600d546000908152600c602052604090208054600160c01b900460ff161580611a5b57508054600160c81b900460ff16158015611a5b5750611a4761010043614cfc565b8154600160801b90046001600160401b0316105b15611aa657611a6b436032614d0f565b815460ff60c01b196001600160401b0392909216600160801b029190911668ffffffffffffffffff60801b1990911617600160c01b17815550565b8054600160801b90046001600160401b0316431115611bdc57805460408051600160801b9092046001600160401b031640602083015244908201526001600160801b03906060016040516020818303038152906040528051906020012060001c611b109190614d38565b8154600160c81b6001600160801b039290921679ff000000000000000000ffffffffffffffffffffffffffffffff199091161717808255600d54604051600160801b9092046001600160401b0316917f78611aecfda8d341359c248df527c95aef93d446c92bb928b2a81b7abcb1d8d990600090a3604080516000815260001960208201527f6bd5c950a8d8df17f772f5af37cb3655737899cbf903264b9795592da439661c910160405180910390a1600d8054600090611bd0906149aa565b90915550611bdc611a03565b50565b611be93382613a37565b611c055760405162461bcd60e51b81526004016110bb90614d4c565b61115c838383613ab6565b60006202a3006001600160401b03164201905063389a75e1600c5233600052806020600c2055337fdbf36a107da19e49527a7176a1babf963b4b0ff8cde35ee35d6cd8f1f9ac7e1d600080a250565b60608060606000611c6f85612df0565b9050611c7a81611fbd565b50600f54604051630de6a96560e11b81529195506001600160a01b03169150631bcd52ca90611cad908490600401614746565b600060405180830381865afa158015611cca573d6000803e3d6000fd5b505050506040513d6000823e601f3d908101601f19168201604052611cf29190810190614d9a565b50604051909350611d0a915084908490602001614e38565b6040516020818303038152906040529350505050919050565b6000611d2e8361264f565b8210611d905760405162461bcd60e51b815260206004820152602b60248201527f455243373231456e756d657261626c653a206f776e657220696e646578206f7560448201526a74206f6620626f756e647360a81b60648201526084016110bb565b506001600160a01b03919091166000908152600660209081526040808320938352929052205490565b611dc2816135c1565b6000818152600b602052604081208181556001810182905560028101829055600381018290556004810182905560058101829055600681019190915581611e0881612548565b6001600160a01b03167f46078a2cd4c69c3b4a27bdc69fdfe03d442ebcf405f1a68e9b5df6bc3e24429760405160405180910390a35050565b6060806000611e4f84612df0565b9050611e5a81611fbd565b5095945050505050565b611e6c61385b565b601255565b611e7a816135c1565b6000818152600b6020526040808220600201919091555166476c617373657360c81b8152600701610f44565b61115c83838360405180602001604052806000815250612dbe565b60606000611ece8361264f565b90506000816001600160401b03811115611eea57611eea614380565b604051908082528060200260200182016040528015611f13578160200160208202803683370190505b50905060005b82811015611f5057611f2b8582611d23565b828281518110611f3d57611f3d614a85565b6020908102919091010152600101611f19565b509392505050565b6001811080611f675750600481115b15611fa85760405162461bcd60e51b8152602060048201526011602482015270092dcecc2d8d2c840c4dec8f292dcc8caf607b1b60448201526064016110bb565b6000918252600b602052604090912060080155565b606080606083610140015161201b576040518060a00160405280606581526020016152c76065913960405180602001604052806000815250604051806040016040528060028152602001617b7d60f01b8152509250925092506121a0565b6120298461012001516128ff565b600e6000866101200151815260200190815260200160002060030161210d60405180604001604052806004815260200163426f647960e01b815250600e60008961012001518152602001908152602001600020600101805461208a9061495a565b80601f01602080910402602001604051908101604052809291908181526020018280546120b69061495a565b80156121035780601f106120d857610100808354040283529160200191612103565b820191906000526020600020905b8154815290600101906020018083116120e657829003601f168201915b5050505050613c5d565b8180546121199061495a565b80601f01602080910402602001604051908101604052809291908181526020018280546121459061495a565b80156121925780601f1061216757610100808354040283529160200191612192565b820191906000526020600020905b81548152906001019060200180831161217557829003601f168201915b505050505091509250925092505b9193909250565b86156121b7576121b78888613409565b85156121c7576121c78887612a30565b84156121d7576121d78886611983565b83156121e7576121e788856134b3565b82156121f7576121f78884612b8c565b81156122075761220788836123b6565b8015612217576122178882612452565b8761222189612548565b6001600160a01b03167f56680590212b09eb4b72a2eba8801b037ec046dfc754538e924f5bb6a8c4db6c60405160405180910390a35050505050505050565b61226861385b565b601580546001600160a01b0319166001600160a01b0392909216919091179055565b600061229560085490565b82106122f85760405162461bcd60e51b815260206004820152602c60248201527f455243373231456e756d657261626c653a20676c6f62616c20696e646578206f60448201526b7574206f6620626f756e647360a01b60648201526084016110bb565b6008828154811061230b5761230b614a85565b90600052602060002001549050919050565b63389a75e1600c523360005260006020600c2055337ffa7b8eab7da67f412cc9575ed43464468f9bfbae89d1675917346ca6d8fe3c92600080a2565b612362816135c1565b6000818152600b602052604080822060060191909155516453686f657360d81b8152600501610f44565b61239461385b565b601480546001600160a01b0319166001600160a01b0392909216919091179055565b6123c08282613876565b6123cb816005613935565b6000828152600b6020526040902060050181905580826123ea81612548565b6001600160a01b031660008051602061532c8339815191526040516119f79060208082526005908201526450616e747360d81b604082015260600190565b61243061385b565b600f80546001600160a01b0319166001600160a01b0392909216919091179055565b61245c8282613876565b612467816006613935565b6000828152600b60205260409020600601819055808261248681612548565b6001600160a01b031660008051602061532c8339815191526040516119f79060208082526005908201526453686f657360d81b604082015260600190565b6000818152601360205260409081902054600f5491516340d097c360e01b81526001600160a01b03918216600482018190529291909116906340d097c3906024016020604051808303816000875af1158015612524573d6000803e3d6000fd5b505050506040513d601f19601f8201168201806040525081019061115c9190614e67565b6000818152600260205260408120546001600160a01b031680610f0f5760405162461bcd60e51b8152602060048201526018602482015277115490cdcc8c4e881a5b9d985b1a59081d1bdad95b88125160421b60448201526064016110bb565b6060808261014001516125f2576040518060a00160405280606581526020016152c760659139604051806040016040528060028152602001617b7d60f01b81525091509150915091565b6126008361012001516128ff565b61264660405180604001604052806004815260200163426f647960e01b815250600e60008761012001518152602001908152602001600020600101805461208a9061495a565b91509150915091565b60006001600160a01b0382166126b95760405162461bcd60e51b815260206004820152602960248201527f4552433732313a2061646472657373207a65726f206973206e6f7420612076616044820152683634b21037bbb732b960b91b60648201526084016110bb565b506001600160a01b031660009081526003602052604090205490565b6126dd61385b565b6126e76000613c89565b565b6126f2816135c1565b6000818152600b602052604080822060030191909155516712185b991a195b1960c21b8152600801610f44565b60608060608060608060608060608060006127398c612df0565b905061274481611fbd565b600f54604051630de6a96560e11b8152939d50919a5095506001600160a01b031690631bcd52ca9061277a908490600401614746565b600060405180830381865afa158015612797573d6000803e3d6000fd5b505050506040513d6000823e601f3d908101601f191682016040526127bf9190810190614d9a565b604051929b5090985095506127da9085908790602001614e80565b604051602081830303815290604052925087876040516020016127fe929190614e38565b60408051601f1981840301815290829052610180830151909750612826918190602001614ee5565b60408051601f198184030181528282019091526060808352602083015292508161018001518160000181905250828160200181905250601660009054906101000a90046001600160a01b03166001600160a01b0316637149ebf68e8d888e8b8d886040518863ffffffff1660e01b81526004016128a99796959493929190614f8a565b600060405180830381865afa1580156128c6573d6000803e3d6000fd5b505050506040513d6000823e601f3d908101601f191682016040526128ee9190810190614bf2565b9d9c50505050505050505050505050565b6000818152600e602052604081206002018054606092916129a6916129239061495a565b80601f016020809104026020016040519081016040528092919081815260200182805461294f9061495a565b801561299c5780601f106129715761010080835404028352916020019161299c565b820191906000526020600020905b81548152906001019060200180831161297f57829003601f168201915b5050505050613157565b6015546040516335b07b7960e11b81529192506001600160a01b031690636b60f6f2906129d790849060040161421e565b600060405180830381865afa1580156129f4573d6000803e3d6000fd5b505050506040513d6000823e601f3d908101601f19168201604052612a1c9190810190614bf2565b9392505050565b612a2b61385b565b601155565b612a3a8282613876565b612a45816001613935565b6000828152600b602052604090206001018190558082612a6481612548565b6001600160a01b031660008051602061532c8339815191526040516119f7906020808252600490820152632430b4b960e11b604082015260600190565b606060018054610f9d9061495a565b600f5460405162438b6360e81b81526001600160a01b03838116600483015260609260009291169063438b630090602401600060405180830381865afa158015612afe573d6000803e3d6000fd5b505050506040513d6000823e601f3d908101601f19168201604052612a1c91908101906149e0565b600a5460ff16156126e75760005b6064811015611bdc57612b45611354565b600101612b34565b60606000612b5a83612df0565b9050806101a00151612b7457612b6f83612c31565b612a1c565b612a1c8361271f565b612b88338383613cc7565b5050565b612b968282613876565b612ba1816004613935565b6000828152600b602052604090206004018190558082612bc081612548565b6001600160a01b031660008051602061532c8339815191526040516119f79060208082526005908201526414da1a5c9d60da1b604082015260600190565b612c07816135c1565b6000818152600b602052604080822060040191909155516414da1a5c9d60da1b8152600501610f44565b60608060608060608060606000612c4789612df0565b9050612c52816125a8565b600f5460405163506cbfe760e11b81529299509097506001600160a01b03169063a0d97fce90612c86908490600401614746565b600060405180830381865afa158015612ca3573d6000803e3d6000fd5b505050506040513d6000823e601f3d908101601f19168201604052612ccb9190810190615037565b9095509350612cd9896116f7565b610180820151604051919450612cf3918190602001614ee5565b60408051601f1981840301815290829052601554631f8ac0db60e21b83529093506001600160a01b031690637e2b036c90612d3e908c908b908b908b908b908b908b90600401615090565b600060405180830381865afa158015612d5b573d6000803e3d6000fd5b505050506040513d6000823e601f3d908101601f19168201604052612d839190810190614bf2565b9998505050505050505050565b612d99816135c1565b6000818152600b602052604080822091909155516212185d60ea1b8152600301610f44565b612dc83383613a37565b612de45760405162461bcd60e51b81526004016110bb90614d4c565b6116f184848484613d95565b612e70604051806101c0016040528060008152602001600081526020016000815260200160008152602001600081526020016000815260200160008152602001600063ffffffff168152602001600061ffff1681526020016000815260200160001515815260200160008152602001606081526020016000151581525090565b6000828152600b6020818152604080842081516101c081018352815481526001820154938101939093526002810154918301919091526003810154606083015260048101546080830152600581015460a0830152600681015460c0830152600781015463ffffffff811660e0840152640100000000900461ffff166101008301526008810154610120830152600981015460ff161515610140830152600a810154610160830152918201805491929161018084019190612f2f9061495a565b80601f0160208091040260200160405190810160405280929190818152602001828054612f5b9061495a565b8015612fa85780601f10612f7d57610100808354040283529160200191612fa8565b820191906000526020600020905b815481529060010190602001808311612f8b57829003601f168201915b5050509183525050600c9182015460ff16151560209182015260e083015163ffffffff1660009081529181526040918290205461010084015192519394506001600160801b0390811693909261302e9285920160809290921b6fffffffffffffffffffffffffffffffff1916825260f01b6001600160f01b031916601082015260120190565b6040516020818303038152906040528051906020012060001c6130519190614d38565b610160830152600a5460ff161515600114613078576000816001600160801b03161161307b565b60015b15156101408301525092915050565b6000818152600260205260409020546060906001600160a01b03166130c257604051631a65aaab60e31b815260040160405180910390fd5b610f0f82612b4d565b6000806130d783612548565b6000938452601360205260409093205492936001600160a01b0390931692915050565b805160061461313b5760405162461bcd60e51b815260206004820152600d60248201526c24b73b30b634b21031b7b637b960991b60448201526064016110bb565b6000828152600b602081905260409091200161115c8282614ae3565b805160609080158015906131735750613171600582614d38565b155b6131bf5760405162461bcd60e51b815260206004820152601960248201527f496e76616c696420626f6479206279746573206c656e6774680000000000000060448201526064016110bb565b604080516111948082526111c0820190925260009160208201818036833701905050905060006131f0600584615119565b905060005b818110156133ff57600061320a82600561512d565b9050600087828151811061322057613220614a85565b016020015160f81c9050600088613238846001614d0f565b8151811061324857613248614a85565b016020015160f81c9050600060ff831661326383601e61512d565b61326d9190614d0f565b61327890600561512d565b905089848151811061328c5761328c614a85565b602001015160f81c60f81b8782815181106132a9576132a9614a85565b60200101906001600160f81b031916908160001a9053508984600101815181106132d5576132d5614a85565b602001015160f81c60f81b8782600101815181106132f5576132f5614a85565b60200101906001600160f81b031916908160001a90535089846002018151811061332157613321614a85565b602001015160f81c60f81b87826002018151811061334157613341614a85565b60200101906001600160f81b031916908160001a90535089846003018151811061336d5761336d614a85565b602001015160f81c60f81b87826003018151811061338d5761338d614a85565b60200101906001600160f81b031916908160001a9053508984600401815181106133b9576133b9614a85565b602001015160f81c60f81b8782600401815181106133d9576133d9614a85565b60200101906001600160f81b031916908160001a905350505050508060010190506131f5565b5090949350505050565b6134138282613876565b61341e816000613935565b6000828152600b60205260409020819055808261343a81612548565b6001600160a01b031660008051602061532c8339815191526040516119f79060208082526003908201526212185d60ea1b604082015260600190565b61347e61385b565b63389a75e1600c52806000526020600c2080544211156134a657636f5e88186000526004601cfd5b60009055611bdc81613c89565b6134bd8282613876565b6134c8816003613935565b6000828152600b6020526040902060030181905580826134e781612548565b6001600160a01b031660008051602061532c8339815191526040516119f79060208082526008908201526712185b991a195b1960c21b604082015260600190565b61353061385b565b6000848152600e602052604090208481556001810161354f8582614ae3565b506002810161355e8482614ae3565b506003810161356d8382614ae3565b505050505050565b61357d61385b565b8060601b61359357637448fbae6000526004601cfd5b611bdc81613c89565b60006001600160e01b0319821663780e9d6360e01b1480610f0f5750610f0f82613dc8565b6135ca81612548565b6001600160a01b0316336001600160a01b031614611bdc576040516324adc17160e11b815260040160405180910390fd5b6000818152600260205260409020546001600160a01b0316611bdc5760405162461bcd60e51b8152602060048201526018602482015277115490cdcc8c4e881a5b9d985b1a59081d1bdad95b88125160421b60448201526064016110bb565b600081815260046020526040902080546001600160a01b0319166001600160a01b038416908117909155819061368f82612548565b6001600160a01b03167f8c5be1e5ebec7d5bd14f71427d1e84f3dd0314c0f7b2291e5b200ac8c7c3b92560405160405180910390a45050565b6001600160a01b03821661371e5760405162461bcd60e51b815260206004820181905260248201527f4552433732313a206d696e7420746f20746865207a65726f206164647265737360448201526064016110bb565b6000818152600260205260409020546001600160a01b0316156137835760405162461bcd60e51b815260206004820152601c60248201527f4552433732313a20746f6b656e20616c7265616479206d696e7465640000000060448201526064016110bb565b61378f60008383613e18565b6001600160a01b03821660009081526003602052604081208054600192906137b8908490614d0f565b909155505060008181526002602052604080822080546001600160a01b0319166001600160a01b03861690811790915590518392907fddf252ad1be2c89b69c2b068fc378daa952ba7f163c4a11628f55a4df523b3ef908290a45050565b612b88828260405160240161382c929190615144565b60408051601f198184030181529190526020810180516001600160e01b03166309710a9d60e41b179052613ed0565b638b78c6d8195433146126e7576382b429006000526004601cfd5b61387f826135c1565b60008281526013602052604080822054600f5491516331a9108f60e11b8152600481018590526001600160a01b0391821693929190911690636352211e90602401602060405180830381865afa1580156138dd573d6000803e3d6000fd5b505050506040513d601f19601f8201168201806040525081019061390191906149c3565b9050816001600160a01b0316816001600160a01b0316146116f15760405163e6ca793160e01b815260040160405180910390fd5b600f5460405163e8a1268d60e01b8152600481018490526000916001600160a01b03169063e8a1268d90602401602060405180830381865afa15801561397f573d6000803e3d6000fd5b505050506040513d601f19601f820116820180604052508101906139a39190615166565b90508160068111156139b7576139b7615187565b6040516020016139c991815260200190565b604051602081830303815290604052805190602001208160068111156139f1576139f1615187565b604051602001613a0391815260200190565b604051602081830303815290604052805190602001201461115c57604051633e54c6fb60e11b815260040160405180910390fd5b600080613a4383612548565b9050806001600160a01b0316846001600160a01b03161480613a8a57506001600160a01b0380821660009081526005602090815260408083209388168352929052205460ff165b80613aae5750836001600160a01b0316613aa384611020565b6001600160a01b0316145b949350505050565b826001600160a01b0316613ac982612548565b6001600160a01b031614613b2d5760405162461bcd60e51b815260206004820152602560248201527f4552433732313a207472616e736665722066726f6d20696e636f72726563742060448201526437bbb732b960d91b60648201526084016110bb565b6001600160a01b038216613b8f5760405162461bcd60e51b8152602060048201526024808201527f4552433732313a207472616e7366657220746f20746865207a65726f206164646044820152637265737360e01b60648201526084016110bb565b613b9a838383613e18565b613ba560008261365a565b6001600160a01b0383166000908152600360205260408120805460019290613bce908490614cfc565b90915550506001600160a01b0382166000908152600360205260408120805460019290613bfc908490614d0f565b909155505060008181526002602052604080822080546001600160a01b0319166001600160a01b0386811691821790925591518493918716917fddf252ad1be2c89b69c2b068fc378daa952ba7f163c4a11628f55a4df523b3ef91a4505050565b60608282604051602001613c7292919061519d565b604051602081830303815290604052905092915050565b638b78c6d81980546001600160a01b039092169182907f8be0079c531659141344cd1fd0a4f28419497f9722a3daafe3b4186f6b6457e0600080a355565b816001600160a01b0316836001600160a01b031603613d285760405162461bcd60e51b815260206004820152601960248201527f4552433732313a20617070726f766520746f2063616c6c65720000000000000060448201526064016110bb565b6001600160a01b03838116600081815260056020908152604080832094871680845294825291829020805460ff191686151590811790915591519182527f17307eab39ab6107e8899845ad3d59bd9653f200f220920489ca2b5937696c31910160405180910390a3505050565b613da0848484613ab6565b613dac84848484613ef1565b6116f15760405162461bcd60e51b81526004016110bb9061520e565b60006001600160e01b031982166380ac58cd60e01b1480613df957506001600160e01b03198216635b5e139f60e01b145b80610f0f57506301ffc9a760e01b6001600160e01b0319831614610f0f565b6001600160a01b038316613e7357613e6e81600880546000838152600960205260408120829055600182018355919091527ff3f7a9fe364faab93b216da50a3214154f22a0a2b415b23a84c8169e8b636ee30155565b613e96565b816001600160a01b0316836001600160a01b031614613e9657613e968382613ff2565b6001600160a01b038216613ead5761115c8161408f565b826001600160a01b0316826001600160a01b03161461115c5761115c828261413e565b80516a636f6e736f6c652e6c6f67602083016000808483855afa5050505050565b60006001600160a01b0384163b15613fe757604051630a85bd0160e11b81526001600160a01b0385169063150b7a0290613f35903390899088908890600401615260565b6020604051808303816000875af1925050508015613f70575060408051601f3d908101601f19168201909252613f6d91810190615293565b60015b613fcd573d808015613f9e576040519150601f19603f3d011682016040523d82523d6000602084013e613fa3565b606091505b508051600003613fc55760405162461bcd60e51b81526004016110bb9061520e565b805181602001fd5b6001600160e01b031916630a85bd0160e11b149050613aae565b506001949350505050565b60006001613fff8461264f565b6140099190614cfc565b60008381526007602052604090205490915080821461405c576001600160a01b03841660009081526006602090815260408083208584528252808320548484528184208190558352600790915290208190555b5060009182526007602090815260408084208490556001600160a01b039094168352600681528383209183525290812055565b6008546000906140a190600190614cfc565b600083815260096020526040812054600880549394509092849081106140c9576140c9614a85565b9060005260206000200154905080600883815481106140ea576140ea614a85565b6000918252602080832090910192909255828152600990915260408082208490558582528120556008805480614122576141226152b0565b6001900381819060005260206000200160009055905550505050565b60006141498361264f565b6001600160a01b039093166000908152600660209081526040808320868452825280832085905593825260079052919091209190915550565b6001600160e01b031981168114611bdc57600080fd5b6000602082840312156141aa57600080fd5b8135612a1c81614182565b6000602082840312156141c757600080fd5b5035919050565b60005b838110156141e95781810151838201526020016141d1565b50506000910152565b6000815180845261420a8160208601602086016141ce565b601f01601f19169290920160200192915050565b602081526000612a1c60208301846141f2565b6001600160a01b0381168114611bdc57600080fd5b6000806040838503121561425957600080fd5b823561426481614231565b946020939093013593505050565b84815260806020820152600061428b60808301866141f2565b828103604084015261429d81866141f2565b905082810360608401526142b181856141f2565b979650505050505050565b6000602082840312156142ce57600080fd5b8135612a1c81614231565b600080604083850312156142ec57600080fd5b50508035926020909101359150565b60008060006060848603121561431057600080fd5b833561431b81614231565b9250602084013561432b81614231565b929592945050506040919091013590565b6020808252825182820181905260009190848201906040850190845b8181101561437457835183529284019291840191600101614358565b50909695505050505050565b634e487b7160e01b600052604160045260246000fd5b6040516101c081016001600160401b03811182821017156143b9576143b9614380565b60405290565b604051601f8201601f191681016001600160401b03811182821017156143e7576143e7614380565b604052919050565b803563ffffffff8116811461440357600080fd5b919050565b803561ffff8116811461440357600080fd5b8035801515811461440357600080fd5b60006001600160401b0382111561444357614443614380565b50601f01601f191660200190565b600082601f83011261446257600080fd5b81356144756144708261442a565b6143bf565b81815284602083860101111561448a57600080fd5b816020850160208301376000918101602001919091529392505050565b6000602082840312156144b957600080fd5b81356001600160401b03808211156144d057600080fd5b908301906101c082860312156144e557600080fd5b6144ed614396565b823581526020830135602082015260408301356040820152606083013560608201526080830135608082015260a083013560a082015260c083013560c082015261453960e084016143ef565b60e082015261010061454c818501614408565b90820152610120838101359082015261014061456981850161441a565b908201526101608381013590820152610180808401358381111561458c57600080fd5b61459888828701614451565b8284015250506101a091506145ae82840161441a565b91810191909152949350505050565b6060815260006145d060608301866141f2565b82810360208401526145e281866141f2565b905082810360408401526145f681856141f2565b9695505050505050565b600080600080600080600080610100898b03121561461d57600080fd5b505086359860208801359850604088013597606081013597506080810135965060a0810135955060c0810135945060e0013592509050565b60408152600061466860408301856141f2565b828103602084015261467a81856141f2565b95945050505050565b6000806040838503121561469657600080fd5b82356146a181614231565b91506146af6020840161441a565b90509250929050565b600080604083850312156146cb57600080fd5b823591506146af6020840161441a565b600080600080608085870312156146f157600080fd5b84356146fc81614231565b9350602085013561470c81614231565b92506040850135915060608501356001600160401b0381111561472e57600080fd5b61473a87828801614451565b91505092959194509250565b6020815281516020820152602082015160408201526040820151606082015260608201516080820152608082015160a082015260a082015160c082015260c082015160e0820152600060e08301516101006147a88185018363ffffffff169052565b84015190506101206147bf8482018361ffff169052565b8401516101408481019190915284015190506101606147e18185018315159052565b840151610180848101919091528401516101c06101a08086018290529192509061480f6101e08601846141f2565b90860151801515838701529092506133ff565b6000806040838503121561483557600080fd5b8235915060208301356001600160401b0381111561485257600080fd5b61485e85828601614451565b9150509250929050565b60006020828403121561487a57600080fd5b81356001600160401b0381111561489057600080fd5b613aae84828501614451565b600080604083850312156148af57600080fd5b82356148ba81614231565b915060208301356148ca81614231565b809150509250929050565b600080600080608085870312156148eb57600080fd5b8435935060208501356001600160401b038082111561490957600080fd5b61491588838901614451565b9450604087013591508082111561492b57600080fd5b61493788838901614451565b9350606087013591508082111561494d57600080fd5b5061473a87828801614451565b600181811c9082168061496e57607f821691505b60208210810361498e57634e487b7160e01b600052602260045260246000fd5b50919050565b634e487b7160e01b600052601160045260246000fd5b6000600182016149bc576149bc614994565b5060010190565b6000602082840312156149d557600080fd5b8151612a1c81614231565b600060208083850312156149f357600080fd5b82516001600160401b0380821115614a0a57600080fd5b818501915085601f830112614a1e57600080fd5b815181811115614a3057614a30614380565b8060051b9150614a418483016143bf565b8181529183018401918481019088841115614a5b57600080fd5b938501935b83851015614a7957845182529385019390850190614a60565b98975050505050505050565b634e487b7160e01b600052603260045260246000fd5b601f82111561115c576000816000526020600020601f850160051c81016020861015614ac45750805b601f850160051c820191505b8181101561356d57828155600101614ad0565b81516001600160401b03811115614afc57614afc614380565b614b1081614b0a845461495a565b84614a9b565b602080601f831160018114614b455760008415614b2d5750858301515b600019600386901b1c1916600185901b17855561356d565b600085815260208120601f198616915b82811015614b7457888601518255948401946001909101908401614b55565b5085821015614b925787850151600019600388901b60f8161c191681555b5050505050600190811b01905550565b6000614bb06144708461442a565b9050828152838383011115614bc457600080fd5b612a1c8360208301846141ce565b600082601f830112614be357600080fd5b612a1c83835160208501614ba2565b600060208284031215614c0457600080fd5b81516001600160401b03811115614c1a57600080fd5b613aae84828501614bd2565b60008351614c388184602088016141ce565b835190830190614c4c8183602088016141ce565b7f3c672069643d226261636b7061636b547261697473223e0000000000000000009101908152601701949350505050565b60008551614c8f818460208a016141ce565b855190830190614ca3818360208a016141ce565b8551910190614cb68183602089016141ce565b8451910190614cc98183602088016141ce565b019695505050505050565b60008251614ce68184602087016141ce565b631e17b39f60e11b920191825250600401919050565b81810381811115610f0f57610f0f614994565b80820180821115610f0f57610f0f614994565b634e487b7160e01b600052601260045260246000fd5b600082614d4757614d47614d22565b500690565b6020808252602e908201527f4552433732313a2063616c6c6572206973206e6f7420746f6b656e206f776e6560408201526d1c881b9bdc88185c1c1c9bdd995960921b606082015260800190565b600080600060608486031215614daf57600080fd5b83516001600160401b0380821115614dc657600080fd5b614dd287838801614bd2565b94506020860151915080821115614de857600080fd5b818601915086601f830112614dfc57600080fd5b614e0b87835160208501614ba2565b93506040860151915080821115614e2157600080fd5b50614e2e86828701614bd2565b9150509250925092565b60008351614e4a8184602088016141ce565b835190830190614e5e8183602088016141ce565b01949350505050565b600060208284031215614e7957600080fd5b5051919050565b6d2261747472696275746573223a5b60901b81528251600090614eaa81600e8501602088016141ce565b600b60fa1b600e918401918201528351614ecb81600f8401602088016141ce565b605d60f81b600f9290910191820152601001949350505050565b661e39ba3cb6329f60c91b81527f626f64792c207376677b206261636b67726f756e643a20230000000000000000600782015260008351614f2d81601f8501602088016141ce565b6f3b207d2e6267207b2066696c6c3a202360801b601f918401918201528351614f5d81602f8401602088016141ce565b623b207d60e81b602f9290910191820152671e17b9ba3cb6329f60c11b6032820152603a01949350505050565b87815260e060208201526000614fa360e08301896141f2565b8281036040840152614fb581896141f2565b90508281036060840152614fc981886141f2565b90508281036080840152614fdd81876141f2565b905082810360a0840152614ff181866141f2565b905082810360c084015283516040825261500e60408301826141f2565b90506020850151828203602084015261502782826141f2565b9c9b505050505050505050505050565b6000806040838503121561504a57600080fd5b82516001600160401b038082111561506157600080fd5b61506d86838701614bd2565b9350602085015191508082111561508357600080fd5b5061485e85828601614bd2565b87815260e0602082015260006150a960e08301896141f2565b82810360408401526150bb81896141f2565b905082810360608401526150cf81886141f2565b905082810360808401526150e381876141f2565b905082810360a08401526150f781866141f2565b905082810360c084015261510b81856141f2565b9a9950505050505050505050565b60008261512857615128614d22565b500490565b8082028115828204841417610f0f57610f0f614994565b60408152600061515760408301856141f2565b90508260208301529392505050565b60006020828403121561517857600080fd5b815160078110612a1c57600080fd5b634e487b7160e01b600052602160045260246000fd5b6e3d913a3930b4ba2fba3cb832911d1160891b815282516000906151c881600f8501602088016141ce565b6a1116113b30b63ab2911d1160a91b600f9184019182015283516151f381601a8401602088016141ce565b61227d60f01b601a9290910191820152601c01949350505050565b60208082526032908201527f4552433732313a207472616e7366657220746f206e6f6e20455243373231526560408201527131b2b4bb32b91034b6b83632b6b2b73a32b960711b606082015260800190565b6001600160a01b03858116825284166020820152604081018390526080606082018190526000906145f6908301846141f2565b6000602082840312156152a557600080fd5b8151612a1c81614182565b634e487b7160e01b600052603160045260246000fdfe3c7376673e3c7465787420783d22382220793d22313522207374796c653d22666f6e743a206e6f726d616c203270782073616e732d73657269663b2066696c6c3a20626c61636b3b223e436f6d696e6720536f6f6e2e2e2e3c2f746578743e3c2f7376673e8aea9baa1ab7209ce94784ac5f5149343f8d985fd4278de25a7b390989f2cf853c672069643d22416c6c20547261697473223e3c672069643d226261636b7061636b2220636c6173733d22636c6f736564223e3c7061746820643d224d302030204c33302030204c3330203330204c30203330205a222066696c6c3d227267622831322c203130392c203135372922202f3e3c7376672069643d226261636b7061636b5549222076696577426f783d223020302031323020313230223e203c7374796c653e2e75697b77696474683a3170783b206865696768743a203170783b2066696c6c3a77686974657d3c2f7374796c653e203c672069643d22636c6f736542746e22207472616e73666f726d3d227472616e736c61746528322c3229223e203c7265637420783d22312220793d22312220636c6173733d227569223e3c2f726563743e203c7265637420783d22322220793d22322220636c6173733d227569223e3c2f726563743e203c7265637420783d22332220793d22332220636c6173733d227569223e3c2f726563743e203c7265637420783d22342220793d22342220636c6173733d227569223e3c2f726563743e203c7265637420783d22352220793d22352220636c6173733d227569223e3c2f726563743e203c7265637420783d22352220793d22312220636c6173733d227569223e3c2f726563743e203c7265637420783d22342220793d22322220636c6173733d227569223e3c2f726563743e203c212d2d203c7265637420783d22332220793d2233222077696474683d223122206865696768743d2231222066696c6c3d227768697465223e3c2f726563743e202d2d3e203c7265637420783d22322220793d22342220636c6173733d227569223e3c2f726563743e203c7265637420783d22312220793d22352220636c6173733d227569223e3c2f726563743e203c2f673e203c672069643d226c65667442746e2220636c6173733d22627574746f6e22207472616e73666f726d3d227472616e736c6174652834352c31313029223e203c7061746820643d224d302030204c362030204c362036204c302036205a222066696c6c3d227472616e73706172656e7422202f3e203c7265637420783d22322220793d22302220636c6173733d227569223e3c2f726563743e203c7265637420783d22312220793d22312220636c6173733d227569223e3c2f726563743e203c7265637420783d22302220793d22322220636c6173733d227569223e3c2f726563743e203c7265637420783d22312220793d22332220636c6173733d227569223e3c2f726563743e203c7265637420783d22322220793d22342220636c6173733d227569223e3c2f726563743e203c2f673e203c672069643d22726967687442746e2220636c6173733d22627574746f6e22207472616e73666f726d3d227472616e736c6174652836352c31313029223e203c7061746820643d224d302030204c362030204c362036204c302036205a222066696c6c3d227472616e73706172656e7422202f3e203c7265637420783d22332220793d22302220636c6173733d227569223e3c2f726563743e203c7265637420783d22342220793d22312220636c6173733d227569223e3c2f726563743e203c7265637420783d22352220793d22322220636c6173733d227569223e3c2f726563743e203c7265637420783d22342220793d22332220636c6173733d227569223e3c2f726563743e203c7265637420783d22332220793d22342220636c6173733d227569223e3c2f726563743e203c2f673e203c2f7376673e20a2646970667358221220e5759b0ff900e01cefd6b022857264aa1356a44e721a5b47a766be55b57c1b5864736f6c63430008160033","linkReferences":{}},"methodIdentifiers":{"MAX_TRAITS_TO_OUTPUT()":"20e0b93c","_debugPostConstructorMint()":"9c7be2f1","addNewBody(uint256,string,bytes,bytes)":"f2361e23","approve(address,uint256)":"095ea7b3","balanceOf(address)":"70a08231","bodyIndexToMetadata(uint256)":"0c83f9d7","buyTrait(uint256)":"6273ca2c","cancelOwnershipHandover()":"54d1f13d","completeOwnershipHandover(address)":"f04e283e","equipAll(uint256,uint256,uint256,uint256,uint256,uint256,uint256,uint256)":"4a4333a3","equipGlasses(uint256,uint256)":"21468d02","equipHair(uint256,uint256)":"94cbd9c4","equipHandheld(uint256,uint256)":"f225dc40","equipHat(uint256,uint256)":"e5a68261","equipPants(uint256,uint256)":"5a5474dd","equipShirt(uint256,uint256)":"a860c96c","equipShoes(uint256,uint256)":"60b77b23","firstSeasonRenderMinter()":"13ea0ae3","getApproved(uint256)":"081812fc","getBackpackSVGs(uint256)":"14fe8ff4","getBodyImage(bytes)":"e37db3c2","getBodyImageSvg(uint256)":"916c546b","getBodySVGZmapsAndMetadata((uint256,uint256,uint256,uint256,uint256,uint256,uint256,uint32,uint16,uint256,bool,uint256,string,bool))":"45d2d7bd","getBodySvgAndMetadata((uint256,uint256,uint256,uint256,uint256,uint256,uint256,uint32,uint16,uint256,bool,uint256,string,bool))":"661ee23a","getBodyZMap(uint256)":"306c7334","getEpoch()":"757991a8","getEpochData(uint256)":"859e7d32","getOwnerAndTBAAddressForTokenId(uint256)":"cc9a5d37","getPeter(uint256)":"be928ff6","getPeterZMap(uint256)":"2bd1ca45","getTraitTokens(address)":"998cfb6e","isApprovedForAll(address,address)":"e985e9c5","mainRenderer()":"66b89b5a","mint()":"1249c58b","name()":"06fdde03","owner()":"8da5cb5b","ownerOf(uint256)":"6352211e","ownershipHandoverExpiresAt(address)":"fee81cf4","price()":"a035b1fe","renderAsDataUri(uint256)":"a1d62680","renderAsDataUriSVG(uint256)":"b28fbe40","renderAsDataUriZ(uint256)":"7557f2dc","renounceOwnership()":"715018a6","requestOwnershipHandover()":"25692962","resolveEpochIfNecessary()":"239ffa68","safeTransferFrom(address,address,uint256)":"42842e0e","safeTransferFrom(address,address,uint256,bytes)":"b88d4fde","setApprovalForAll(address,bool)":"a22cb465","setBackgroundColor(uint256,string)":"d68c4f32","setBodyIndex(uint256,uint256)":"457e7e61","setFirstSeasonRenderMinter(address)":"58a97640","setMainRenderer(address)":"4ddb3961","setMaxTraitsToOutput(uint256)":"33d3d9bf","setPrice(uint256)":"91b7f5ed","setRenderZ(uint256,bool)":"b53d1fd7","setTraitsContract(address)":"5eabd84a","setZRenderer(address)":"172b054d","supportsInterface(bytes4)":"01ffc9a7","symbol()":"95d89b41","tokenByIndex(uint256)":"4f6ccce7","tokenIdToTBAAccountAddress(uint256)":"9c05d68d","tokenOfOwnerByIndex(address,uint256)":"2f745c59","tokenURI(uint256)":"c87b56dd","totalSupply()":"18160ddd","traitsContract()":"c093afdb","transferFrom(address,address,uint256)":"23b872dd","transferOwnership(address)":"f2fde38b","unequipAll(uint256)":"3044825b","unequipGlasses(uint256)":"3fdc97fd","unequipHair(uint256)":"105338e0","unequipHandheld(uint256)":"7365eea8","unequipHat(uint256)":"b5282793","unequipPants(uint256)":"06e02a35","unequipShirt(uint256)":"a959bb1d","unequipShoes(uint256)":"58180d35","walletOfOwner(address)":"438b6300","zRenderer()":"a15c561b"},"id":39}