{"abi":[{"type":"constructor","inputs":[{"name":"localDeploy_","type":"bool","internalType":"bool"}],"stateMutability":"nonpayable"},{"type":"function","name":"MAX_TRAITS_TO_OUTPUT","inputs":[],"outputs":[{"name":"","type":"uint256","internalType":"uint256"}],"stateMutability":"view"},{"type":"function","name":"_debugPostConstructorMint","inputs":[],"outputs":[],"stateMutability":"nonpayable"},{"type":"function","name":"addNewBody","inputs":[{"name":"_bodyIndex","type":"uint256","internalType":"uint256"},{"name":"_bodyName","type":"string","internalType":"string"},{"name":"_colorMap","type":"bytes","internalType":"bytes"},{"name":"_zMap","type":"bytes","internalType":"bytes"}],"outputs":[],"stateMutability":"nonpayable"},{"type":"function","name":"approve","inputs":[{"name":"to","type":"address","internalType":"address"},{"name":"tokenId","type":"uint256","internalType":"uint256"}],"outputs":[],"stateMutability":"nonpayable"},{"type":"function","name":"balanceOf","inputs":[{"name":"owner","type":"address","internalType":"address"}],"outputs":[{"name":"","type":"uint256","internalType":"uint256"}],"stateMutability":"view"},{"type":"function","name":"bodyIndexToMetadata","inputs":[{"name":"","type":"uint256","internalType":"uint256"}],"outputs":[{"name":"bodyIndex","type":"uint256","internalType":"uint256"},{"name":"bodyName","type":"string","internalType":"string"},{"name":"colorMap","type":"bytes","internalType":"bytes"},{"name":"zMap","type":"bytes","internalType":"bytes"}],"stateMutability":"view"},{"type":"function","name":"buyTrait","inputs":[{"name":"_tokenId","type":"uint256","internalType":"uint256"}],"outputs":[],"stateMutability":"nonpayable"},{"type":"function","name":"cancelOwnershipHandover","inputs":[],"outputs":[],"stateMutability":"payable"},{"type":"function","name":"completeOwnershipHandover","inputs":[{"name":"pendingOwner","type":"address","internalType":"address"}],"outputs":[],"stateMutability":"payable"},{"type":"function","name":"equipAccessory","inputs":[{"name":"_peterTokenId","type":"uint256","internalType":"uint256"},{"name":"_traitTokenId","type":"uint256","internalType":"uint256"}],"outputs":[],"stateMutability":"nonpayable"},{"type":"function","name":"equipAll","inputs":[{"name":"_peterTokenId","type":"uint256","internalType":"uint256"},{"name":"_hatTokenId","type":"uint256","internalType":"uint256"},{"name":"_hairTokenId","type":"uint256","internalType":"uint256"},{"name":"_faceTokenId","type":"uint256","internalType":"uint256"},{"name":"_accessoryTokenId","type":"uint256","internalType":"uint256"},{"name":"_topTokenId","type":"uint256","internalType":"uint256"},{"name":"_bottomTokenId","type":"uint256","internalType":"uint256"},{"name":"_shoesTokenId","type":"uint256","internalType":"uint256"}],"outputs":[],"stateMutability":"nonpayable"},{"type":"function","name":"equipBottom","inputs":[{"name":"_peterTokenId","type":"uint256","internalType":"uint256"},{"name":"_traitTokenId","type":"uint256","internalType":"uint256"}],"outputs":[],"stateMutability":"nonpayable"},{"type":"function","name":"equipFace","inputs":[{"name":"_peterTokenId","type":"uint256","internalType":"uint256"},{"name":"_traitTokenId","type":"uint256","internalType":"uint256"}],"outputs":[],"stateMutability":"nonpayable"},{"type":"function","name":"equipHair","inputs":[{"name":"_peterTokenId","type":"uint256","internalType":"uint256"},{"name":"_traitTokenId","type":"uint256","internalType":"uint256"}],"outputs":[],"stateMutability":"nonpayable"},{"type":"function","name":"equipHat","inputs":[{"name":"_peterTokenId","type":"uint256","internalType":"uint256"},{"name":"_traitTokenId","type":"uint256","internalType":"uint256"}],"outputs":[],"stateMutability":"nonpayable"},{"type":"function","name":"equipShoes","inputs":[{"name":"_peterTokenId","type":"uint256","internalType":"uint256"},{"name":"_traitTokenId","type":"uint256","internalType":"uint256"}],"outputs":[],"stateMutability":"nonpayable"},{"type":"function","name":"equipTop","inputs":[{"name":"_peterTokenId","type":"uint256","internalType":"uint256"},{"name":"_traitTokenId","type":"uint256","internalType":"uint256"}],"outputs":[],"stateMutability":"nonpayable"},{"type":"function","name":"firstSeasonRenderMinter","inputs":[],"outputs":[{"name":"","type":"address","internalType":"contract FirstSeasonRenderMinter"}],"stateMutability":"view"},{"type":"function","name":"getApproved","inputs":[{"name":"tokenId","type":"uint256","internalType":"uint256"}],"outputs":[{"name":"","type":"address","internalType":"address"}],"stateMutability":"view"},{"type":"function","name":"getBackpackSVGs","inputs":[{"name":"_tokenId","type":"uint256","internalType":"uint256"}],"outputs":[{"name":"backpackSVGs","type":"string","internalType":"string"}],"stateMutability":"view"},{"type":"function","name":"getBodyImage","inputs":[{"name":"colorMap","type":"bytes","internalType":"bytes"}],"outputs":[{"name":"","type":"bytes","internalType":"bytes"}],"stateMutability":"pure"},{"type":"function","name":"getBodyImageSvg","inputs":[{"name":"_index","type":"uint256","internalType":"uint256"}],"outputs":[{"name":"svg","type":"string","internalType":"string"}],"stateMutability":"view"},{"type":"function","name":"getBodySVGZmapsAndMetadata","inputs":[{"name":"storedPeter","type":"tuple","internalType":"struct IPeterStorage.StoredPeter","components":[{"name":"hatId","type":"uint256","internalType":"uint256"},{"name":"hairId","type":"uint256","internalType":"uint256"},{"name":"faceId","type":"uint256","internalType":"uint256"},{"name":"accessoryId","type":"uint256","internalType":"uint256"},{"name":"topId","type":"uint256","internalType":"uint256"},{"name":"bottomId","type":"uint256","internalType":"uint256"},{"name":"shoesId","type":"uint256","internalType":"uint256"},{"name":"epoch","type":"uint32","internalType":"uint32"},{"name":"tokenId","type":"uint16","internalType":"uint16"},{"name":"bodyIndex","type":"uint256","internalType":"uint256"},{"name":"isRevealed","type":"bool","internalType":"bool"},{"name":"seed","type":"uint256","internalType":"uint256"},{"name":"backgroundColor","type":"string","internalType":"string"},{"name":"renderZ","type":"bool","internalType":"bool"}]}],"outputs":[{"name":"","type":"string","internalType":"string"},{"name":"","type":"bytes","internalType":"bytes"},{"name":"","type":"string","internalType":"string"}],"stateMutability":"view"},{"type":"function","name":"getBodySvgAndMetadata","inputs":[{"name":"storedPeter","type":"tuple","internalType":"struct IPeterStorage.StoredPeter","components":[{"name":"hatId","type":"uint256","internalType":"uint256"},{"name":"hairId","type":"uint256","internalType":"uint256"},{"name":"faceId","type":"uint256","internalType":"uint256"},{"name":"accessoryId","type":"uint256","internalType":"uint256"},{"name":"topId","type":"uint256","internalType":"uint256"},{"name":"bottomId","type":"uint256","internalType":"uint256"},{"name":"shoesId","type":"uint256","internalType":"uint256"},{"name":"epoch","type":"uint32","internalType":"uint32"},{"name":"tokenId","type":"uint16","internalType":"uint16"},{"name":"bodyIndex","type":"uint256","internalType":"uint256"},{"name":"isRevealed","type":"bool","internalType":"bool"},{"name":"seed","type":"uint256","internalType":"uint256"},{"name":"backgroundColor","type":"string","internalType":"string"},{"name":"renderZ","type":"bool","internalType":"bool"}]}],"outputs":[{"name":"","type":"string","internalType":"string"},{"name":"","type":"string","internalType":"string"}],"stateMutability":"view"},{"type":"function","name":"getBodyZMap","inputs":[{"name":"_tokenId","type":"uint256","internalType":"uint256"}],"outputs":[{"name":"","type":"string","internalType":"string"}],"stateMutability":"view"},{"type":"function","name":"getEpoch","inputs":[],"outputs":[{"name":"","type":"uint256","internalType":"uint256"}],"stateMutability":"view"},{"type":"function","name":"getEpochData","inputs":[{"name":"index","type":"uint256","internalType":"uint256"}],"outputs":[{"name":"","type":"tuple","internalType":"struct CommitReveal.Epoch","components":[{"name":"randomness","type":"uint128","internalType":"uint128"},{"name":"revealBlock","type":"uint64","internalType":"uint64"},{"name":"committed","type":"bool","internalType":"bool"},{"name":"revealed","type":"bool","internalType":"bool"}]}],"stateMutability":"view"},{"type":"function","name":"getOwnerAndTBAAddressForTokenId","inputs":[{"name":"_tokenId","type":"uint256","internalType":"uint256"}],"outputs":[{"name":"owner","type":"address","internalType":"address"},{"name":"tbaAddress","type":"address","internalType":"address"}],"stateMutability":"view"},{"type":"function","name":"getPeter","inputs":[{"name":"_tokenId","type":"uint256","internalType":"uint256"}],"outputs":[{"name":"","type":"tuple","internalType":"struct IPeterStorage.StoredPeter","components":[{"name":"hatId","type":"uint256","internalType":"uint256"},{"name":"hairId","type":"uint256","internalType":"uint256"},{"name":"faceId","type":"uint256","internalType":"uint256"},{"name":"accessoryId","type":"uint256","internalType":"uint256"},{"name":"topId","type":"uint256","internalType":"uint256"},{"name":"bottomId","type":"uint256","internalType":"uint256"},{"name":"shoesId","type":"uint256","internalType":"uint256"},{"name":"epoch","type":"uint32","internalType":"uint32"},{"name":"tokenId","type":"uint16","internalType":"uint16"},{"name":"bodyIndex","type":"uint256","internalType":"uint256"},{"name":"isRevealed","type":"bool","internalType":"bool"},{"name":"seed","type":"uint256","internalType":"uint256"},{"name":"backgroundColor","type":"string","internalType":"string"},{"name":"renderZ","type":"bool","internalType":"bool"}]}],"stateMutability":"view"},{"type":"function","name":"getPeterZMap","inputs":[{"name":"_tokenId","type":"uint256","internalType":"uint256"}],"outputs":[{"name":"","type":"string","internalType":"string"}],"stateMutability":"view"},{"type":"function","name":"getTBAAddressForTokenId","inputs":[{"name":"_tokenId","type":"uint256","internalType":"uint256"}],"outputs":[{"name":"","type":"address","internalType":"address"}],"stateMutability":"view"},{"type":"function","name":"getTokenRenderZ","inputs":[{"name":"_peterTokenId","type":"uint256","internalType":"uint256"}],"outputs":[{"name":"","type":"bool","internalType":"bool"}],"stateMutability":"view"},{"type":"function","name":"getTraitTokens","inputs":[{"name":"_tbaAddress","type":"address","internalType":"address"}],"outputs":[{"name":"","type":"uint256[]","internalType":"uint256[]"}],"stateMutability":"view"},{"type":"function","name":"getTraitsForTokenId","inputs":[{"name":"_tokenId","type":"uint256","internalType":"uint256"}],"outputs":[{"name":"traitTokens","type":"uint256[]","internalType":"uint256[]"}],"stateMutability":"view"},{"type":"function","name":"isApprovedForAll","inputs":[{"name":"owner","type":"address","internalType":"address"},{"name":"operator","type":"address","internalType":"address"}],"outputs":[{"name":"","type":"bool","internalType":"bool"}],"stateMutability":"view"},{"type":"function","name":"mainRenderer","inputs":[],"outputs":[{"name":"","type":"address","internalType":"contract MainRenderer"}],"stateMutability":"view"},{"type":"function","name":"mint","inputs":[],"outputs":[],"stateMutability":"payable"},{"type":"function","name":"name","inputs":[],"outputs":[{"name":"","type":"string","internalType":"string"}],"stateMutability":"view"},{"type":"function","name":"owner","inputs":[],"outputs":[{"name":"result","type":"address","internalType":"address"}],"stateMutability":"view"},{"type":"function","name":"ownerOf","inputs":[{"name":"tokenId","type":"uint256","internalType":"uint256"}],"outputs":[{"name":"","type":"address","internalType":"address"}],"stateMutability":"view"},{"type":"function","name":"ownershipHandoverExpiresAt","inputs":[{"name":"pendingOwner","type":"address","internalType":"address"}],"outputs":[{"name":"result","type":"uint256","internalType":"uint256"}],"stateMutability":"view"},{"type":"function","name":"price","inputs":[],"outputs":[{"name":"","type":"uint256","internalType":"uint256"}],"stateMutability":"view"},{"type":"function","name":"renderAsDataUri","inputs":[{"name":"_tokenId","type":"uint256","internalType":"uint256"}],"outputs":[{"name":"","type":"string","internalType":"string"}],"stateMutability":"view"},{"type":"function","name":"renderAsDataUriSVG","inputs":[{"name":"_tokenId","type":"uint256","internalType":"uint256"}],"outputs":[{"name":"","type":"string","internalType":"string"}],"stateMutability":"view"},{"type":"function","name":"renderAsDataUriZ","inputs":[{"name":"_tokenId","type":"uint256","internalType":"uint256"}],"outputs":[{"name":"","type":"string","internalType":"string"}],"stateMutability":"view"},{"type":"function","name":"renounceOwnership","inputs":[],"outputs":[],"stateMutability":"payable"},{"type":"function","name":"requestOwnershipHandover","inputs":[],"outputs":[],"stateMutability":"payable"},{"type":"function","name":"resolveEpochIfNecessary","inputs":[],"outputs":[],"stateMutability":"nonpayable"},{"type":"function","name":"safeTransferFrom","inputs":[{"name":"from","type":"address","internalType":"address"},{"name":"to","type":"address","internalType":"address"},{"name":"tokenId","type":"uint256","internalType":"uint256"}],"outputs":[],"stateMutability":"nonpayable"},{"type":"function","name":"safeTransferFrom","inputs":[{"name":"from","type":"address","internalType":"address"},{"name":"to","type":"address","internalType":"address"},{"name":"tokenId","type":"uint256","internalType":"uint256"},{"name":"data","type":"bytes","internalType":"bytes"}],"outputs":[],"stateMutability":"nonpayable"},{"type":"function","name":"setApprovalForAll","inputs":[{"name":"operator","type":"address","internalType":"address"},{"name":"approved","type":"bool","internalType":"bool"}],"outputs":[],"stateMutability":"nonpayable"},{"type":"function","name":"setBackgroundColor","inputs":[{"name":"_peterTokenId","type":"uint256","internalType":"uint256"},{"name":"_color","type":"string","internalType":"string"}],"outputs":[],"stateMutability":"nonpayable"},{"type":"function","name":"setBodyIndex","inputs":[{"name":"_peterTokenId","type":"uint256","internalType":"uint256"},{"name":"_bodyIndex","type":"uint256","internalType":"uint256"}],"outputs":[],"stateMutability":"nonpayable"},{"type":"function","name":"setFirstSeasonRenderMinter","inputs":[{"name":"_dataContract","type":"address","internalType":"address"}],"outputs":[],"stateMutability":"nonpayable"},{"type":"function","name":"setMainRenderer","inputs":[{"name":"_mainRenderer","type":"address","internalType":"address"}],"outputs":[],"stateMutability":"nonpayable"},{"type":"function","name":"setMaxTraitsToOutput","inputs":[{"name":"_maxTraitsToOutput","type":"uint256","internalType":"uint256"}],"outputs":[],"stateMutability":"nonpayable"},{"type":"function","name":"setPrice","inputs":[{"name":"_priceInWei","type":"uint256","internalType":"uint256"}],"outputs":[],"stateMutability":"nonpayable"},{"type":"function","name":"setTokenRenderZ","inputs":[{"name":"_peterTokenId","type":"uint256","internalType":"uint256"},{"name":"_renderZ","type":"bool","internalType":"bool"}],"outputs":[],"stateMutability":"nonpayable"},{"type":"function","name":"setTraitsContract","inputs":[{"name":"_address","type":"address","internalType":"contract PeterTraits"}],"outputs":[],"stateMutability":"nonpayable"},{"type":"function","name":"setZRenderer","inputs":[{"name":"_zRenderer","type":"address","internalType":"address"}],"outputs":[],"stateMutability":"nonpayable"},{"type":"function","name":"supportsInterface","inputs":[{"name":"interfaceId","type":"bytes4","internalType":"bytes4"}],"outputs":[{"name":"","type":"bool","internalType":"bool"}],"stateMutability":"view"},{"type":"function","name":"symbol","inputs":[],"outputs":[{"name":"","type":"string","internalType":"string"}],"stateMutability":"view"},{"type":"function","name":"tokenByIndex","inputs":[{"name":"index","type":"uint256","internalType":"uint256"}],"outputs":[{"name":"","type":"uint256","internalType":"uint256"}],"stateMutability":"view"},{"type":"function","name":"tokenIdToTBAAccountAddress","inputs":[{"name":"","type":"uint256","internalType":"uint256"}],"outputs":[{"name":"","type":"uint160","internalType":"uint160"}],"stateMutability":"view"},{"type":"function","name":"tokenOfOwnerByIndex","inputs":[{"name":"owner","type":"address","internalType":"address"},{"name":"index","type":"uint256","internalType":"uint256"}],"outputs":[{"name":"","type":"uint256","internalType":"uint256"}],"stateMutability":"view"},{"type":"function","name":"tokenURI","inputs":[{"name":"_tokenId","type":"uint256","internalType":"uint256"}],"outputs":[{"name":"","type":"string","internalType":"string"}],"stateMutability":"view"},{"type":"function","name":"totalSupply","inputs":[],"outputs":[{"name":"","type":"uint256","internalType":"uint256"}],"stateMutability":"view"},{"type":"function","name":"traitsContract","inputs":[],"outputs":[{"name":"","type":"address","internalType":"contract PeterTraits"}],"stateMutability":"view"},{"type":"function","name":"transferFrom","inputs":[{"name":"from","type":"address","internalType":"address"},{"name":"to","type":"address","internalType":"address"},{"name":"tokenId","type":"uint256","internalType":"uint256"}],"outputs":[],"stateMutability":"nonpayable"},{"type":"function","name":"transferOwnership","inputs":[{"name":"newOwner","type":"address","internalType":"address"}],"outputs":[],"stateMutability":"payable"},{"type":"function","name":"unequipAccessory","inputs":[{"name":"_peterTokenId","type":"uint256","internalType":"uint256"}],"outputs":[],"stateMutability":"nonpayable"},{"type":"function","name":"unequipAll","inputs":[{"name":"_peterTokenId","type":"uint256","internalType":"uint256"}],"outputs":[],"stateMutability":"nonpayable"},{"type":"function","name":"unequipBottom","inputs":[{"name":"_peterTokenId","type":"uint256","internalType":"uint256"}],"outputs":[],"stateMutability":"nonpayable"},{"type":"function","name":"unequipFace","inputs":[{"name":"_peterTokenId","type":"uint256","internalType":"uint256"}],"outputs":[],"stateMutability":"nonpayable"},{"type":"function","name":"unequipHair","inputs":[{"name":"_peterTokenId","type":"uint256","internalType":"uint256"}],"outputs":[],"stateMutability":"nonpayable"},{"type":"function","name":"unequipHat","inputs":[{"name":"_peterTokenId","type":"uint256","internalType":"uint256"}],"outputs":[],"stateMutability":"nonpayable"},{"type":"function","name":"unequipShoes","inputs":[{"name":"_peterTokenId","type":"uint256","internalType":"uint256"}],"outputs":[],"stateMutability":"nonpayable"},{"type":"function","name":"unequipTop","inputs":[{"name":"_peterTokenId","type":"uint256","internalType":"uint256"}],"outputs":[],"stateMutability":"nonpayable"},{"type":"function","name":"walletOfOwner","inputs":[{"name":"_owner","type":"address","internalType":"address"}],"outputs":[{"name":"","type":"uint256[]","internalType":"uint256[]"}],"stateMutability":"view"},{"type":"function","name":"zRenderer","inputs":[],"outputs":[{"name":"","type":"address","internalType":"contract ZRenderer"}],"stateMutability":"view"},{"type":"event","name":"Approval","inputs":[{"name":"owner","type":"address","indexed":true,"internalType":"address"},{"name":"approved","type":"address","indexed":true,"internalType":"address"},{"name":"tokenId","type":"uint256","indexed":true,"internalType":"uint256"}],"anonymous":false},{"type":"event","name":"ApprovalForAll","inputs":[{"name":"owner","type":"address","indexed":true,"internalType":"address"},{"name":"operator","type":"address","indexed":true,"internalType":"address"},{"name":"approved","type":"bool","indexed":false,"internalType":"bool"}],"anonymous":false},{"type":"event","name":"BatchMetadataUpdate","inputs":[{"name":"_fromTokenId","type":"uint256","indexed":false,"internalType":"uint256"},{"name":"_toTokenId","type":"uint256","indexed":false,"internalType":"uint256"}],"anonymous":false},{"type":"event","name":"Equip","inputs":[{"name":"owner","type":"address","indexed":true,"internalType":"address"},{"name":"tokenId","type":"uint256","indexed":true,"internalType":"uint256"},{"name":"traitTokenId","type":"uint256","indexed":true,"internalType":"uint256"},{"name":"traitCategory","type":"string","indexed":false,"internalType":"string"}],"anonymous":false},{"type":"event","name":"EquipAll","inputs":[{"name":"owner","type":"address","indexed":true,"internalType":"address"},{"name":"tokenId","type":"uint256","indexed":true,"internalType":"uint256"}],"anonymous":false},{"type":"event","name":"MetadataUpdate","inputs":[{"name":"_tokenId","type":"uint256","indexed":false,"internalType":"uint256"}],"anonymous":false},{"type":"event","name":"Mint","inputs":[{"name":"owner","type":"address","indexed":true,"internalType":"address"},{"name":"tokenId","type":"uint256","indexed":true,"internalType":"uint256"}],"anonymous":false},{"type":"event","name":"NewEpoch","inputs":[{"name":"epoch","type":"uint256","indexed":true,"internalType":"uint256"},{"name":"revealBlock","type":"uint64","indexed":true,"internalType":"uint64"}],"anonymous":false},{"type":"event","name":"OwnershipHandoverCanceled","inputs":[{"name":"pendingOwner","type":"address","indexed":true,"internalType":"address"}],"anonymous":false},{"type":"event","name":"OwnershipHandoverRequested","inputs":[{"name":"pendingOwner","type":"address","indexed":true,"internalType":"address"}],"anonymous":false},{"type":"event","name":"OwnershipTransferred","inputs":[{"name":"oldOwner","type":"address","indexed":true,"internalType":"address"},{"name":"newOwner","type":"address","indexed":true,"internalType":"address"}],"anonymous":false},{"type":"event","name":"Transfer","inputs":[{"name":"from","type":"address","indexed":true,"internalType":"address"},{"name":"to","type":"address","indexed":true,"internalType":"address"},{"name":"tokenId","type":"uint256","indexed":true,"internalType":"uint256"}],"anonymous":false},{"type":"event","name":"Unequip","inputs":[{"name":"owner","type":"address","indexed":true,"internalType":"address"},{"name":"tokenId","type":"uint256","indexed":true,"internalType":"uint256"},{"name":"traitCategory","type":"string","indexed":true,"internalType":"string"}],"anonymous":false},{"type":"event","name":"UnequipAll","inputs":[{"name":"owner","type":"address","indexed":true,"internalType":"address"},{"name":"tokenId","type":"uint256","indexed":true,"internalType":"uint256"}],"anonymous":false},{"type":"error","name":"AlreadyInitialized","inputs":[]},{"type":"error","name":"BodyAlreadyExists","inputs":[]},{"type":"error","name":"FirstSeasonRenderMinterNotSet","inputs":[]},{"type":"error","name":"IncorrectPeterOwner","inputs":[]},{"type":"error","name":"IncorrectTBAOwner","inputs":[]},{"type":"error","name":"IncorrectTraitType","inputs":[]},{"type":"error","name":"NewOwnerIsZeroAddress","inputs":[]},{"type":"error","name":"NoHandoverRequest","inputs":[]},{"type":"error","name":"PeterDoesntExist","inputs":[]},{"type":"error","name":"Unauthorized","inputs":[]}],"bytecode":{"object":"0x6080604052600060105560456012553480156200001b57600080fd5b5060405162005ddc38038062005ddc8339810160408190526200003e9162000106565b6040518060400160405280600a81526020016914195d195c8815195cdd60b21b815250604051806040016040528060058152602001642822aa22a960d91b8152508160009081620000909190620001d8565b5060016200009f8282620001d8565b505050620000b333620000ca60201b60201c565b600a805460ff1916911515919091179055620002a4565b6001600160a01b0316638b78c6d8198190558060007f8be0079c531659141344cd1fd0a4f28419497f9722a3daafe3b4186f6b6457e08180a350565b6000602082840312156200011957600080fd5b815180151581146200012a57600080fd5b9392505050565b634e487b7160e01b600052604160045260246000fd5b600181811c908216806200015c57607f821691505b6020821081036200017d57634e487b7160e01b600052602260045260246000fd5b50919050565b601f821115620001d3576000816000526020600020601f850160051c81016020861015620001ae5750805b601f850160051c820191505b81811015620001cf57828155600101620001ba565b5050505b505050565b81516001600160401b03811115620001f457620001f462000131565b6200020c8162000205845462000147565b8462000183565b602080601f8311600181146200024457600084156200022b5750858301515b600019600386901b1c1916600185901b178555620001cf565b600085815260208120601f198616915b82811015620002755788860151825594840194600190910190840162000254565b5085821015620002945787850151600019600388901b60f8161c191681555b5050505050600190811b01905550565b615b2880620002b46000396000f3fe6080604052600436106104735760003560e01c8063661ee23a1161024a578063a15c561b11610139578063d5b55c8b116100b6578063f04e283e1161007a578063f04e283e14610f15578063f18dc22d14610f28578063f2361e2314610f48578063f2fde38b14610f68578063fee81cf414610f7b57600080fd5b8063d5b55c8b14610e4c578063d68c4f3214610e6c578063e37db3c214610e8c578063e5a6826114610eac578063e985e9c514610ecc57600080fd5b8063b88d4fde116100fd578063b88d4fde14610d7f578063be928ff614610d9f578063c093afdb14610dcc578063c87b56dd14610dec578063cc9a5d3714610e0c57600080fd5b8063a15c561b14610cdf578063a1d6268014610cff578063a22cb46514610d1f578063b28fbe4014610d3f578063b528279314610d5f57600080fd5b80638e29d3e9116101c7578063998cfb6e1161018b578063998cfb6e14610c3e5780639c05d68d14610c5e5780639c76201514610c945780639c7be2f114610cb4578063a035b1fe14610cc957600080fd5b80638e29d3e914610b93578063916c546b14610bc957806391b7f5ed14610be957806394cbd9c414610c0957806395d89b4114610c2957600080fd5b8063757991a81161020e578063757991a814610a2b5780638200ea5114610a40578063850ad51a14610a73578063859e7d3214610a935780638da5cb5b14610b7a57600080fd5b8063661ee23a1461099557806366b89b5a146109c357806370a08231146109e3578063715018a614610a035780637557f2dc14610a0b57600080fd5b80632f745c59116103665780634a4333a3116102e357806358a97640116102a757806358a97640146108f55780635eabd84a1461091557806360b77b23146109355780636273ca2c146109555780636352211e1461097557600080fd5b80634a4333a31461086d5780634ddb39611461088d5780634f6ccce7146108ad57806354d1f13d146108cd57806358180d35146108d557600080fd5b806342842e0e1161032a57806342842e0e146107b1578063438b6300146107d1578063457e7e61146107fe57806345a10d0f1461081e57806345d2d7bd1461083e57600080fd5b80632f745c59146107115780633044825b14610731578063306c73341461075157806333d3d9bf14610771578063347bd8f41461079157600080fd5b806313ea0ae3116103f4578063239ffa68116103b8578063239ffa681461069457806323b872dd146106a957806325692962146106c9578063293ed3f7146106d15780632bd1ca45146106f157600080fd5b806313ea0ae3146105ff57806314fe8ff41461061f578063172b054d1461063f57806318160ddd1461065f57806320e0b93c1461067e57600080fd5b8063095ea7b31161043b578063095ea7b3146105675780630c83f9d7146105875780630f162320146105b7578063105338e0146105d75780631249c58b146105f757600080fd5b806301ffc9a7146104785780630447a45e146104ad57806306fdde03146104cf57806307f4e045146104f1578063081812fc1461052f575b600080fd5b34801561048457600080fd5b5061049861049336600461452d565b610fae565b60405190151581526020015b60405180910390f35b3480156104b957600080fd5b506104cd6104c836600461454a565b610fbf565b005b3480156104db57600080fd5b506104e4611041565b6040516104a491906145bc565b3480156104fd57600080fd5b506104cd61050c3660046145e4565b6000918252600b6020526040909120600c01805460ff1916911515919091179055565b34801561053b57600080fd5b5061054f61054a366004614610565b6110d3565b6040516001600160a01b0390911681526020016104a4565b34801561057357600080fd5b506104cd61058236600461463e565b6110fa565b34801561059357600080fd5b506105a76105a2366004614610565b611214565b6040516104a4949392919061466a565b3480156105c357600080fd5b506104cd6105d236600461454a565b6113d5565b3480156105e357600080fd5b506104cd6105f2366004614610565b611446565b6104cd6114be565b34801561060b57600080fd5b5060145461054f906001600160a01b031681565b34801561062b57600080fd5b506104e461063a366004614610565b61184c565b34801561064b57600080fd5b506104cd61065a3660046146b4565b611a93565b34801561066b57600080fd5b506008545b6040519081526020016104a4565b34801561068a57600080fd5b5061067060125481565b3480156106a057600080fd5b506104cd611abd565b3480156106b557600080fd5b506104cd6106c43660046146d1565b611c99565b6104cd611cca565b3480156106dd57600080fd5b506104cd6106ec366004614610565b611d19565b3480156106fd57600080fd5b506104e461070c366004614610565b611d50565b34801561071d57600080fd5b5061067061072c36600461463e565b611e14565b34801561073d57600080fd5b506104cd61074c366004614610565b611eaa565b34801561075d57600080fd5b506104e461076c366004614610565b611f32565b34801561077d57600080fd5b506104cd61078c366004614610565b611f55565b34801561079d57600080fd5b506104cd6107ac366004614610565b611f62565b3480156107bd57600080fd5b506104cd6107cc3660046146d1565b611f93565b3480156107dd57600080fd5b506107f16107ec3660046146b4565b611fae565b6040516104a49190614712565b34801561080a57600080fd5b506104cd61081936600461454a565b612045565b34801561082a57600080fd5b506104cd61083936600461454a565b6120aa565b34801561084a57600080fd5b5061085e610859366004614868565b61211d565b6040516104a49392919061497e565b34801561087957600080fd5b506104cd6108883660046149c1565b61230c565b34801561089957600080fd5b506104cd6108a83660046146b4565b6123c5565b3480156108b957600080fd5b506106706108c8366004614610565b6123ef565b6104cd612482565b3480156108e157600080fd5b506104cd6108f0366004614610565b6124be565b34801561090157600080fd5b506104cd6109103660046146b4565b6124f1565b34801561092157600080fd5b506104cd6109303660046146b4565b61251b565b34801561094157600080fd5b506104cd61095036600461454a565b612545565b34801561096157600080fd5b506104cd610970366004614610565b6125b7565b34801561098157600080fd5b5061054f610990366004614610565b61263b565b3480156109a157600080fd5b506109b56109b0366004614868565b61269b565b6040516104a4929190614a16565b3480156109cf57600080fd5b5060155461054f906001600160a01b031681565b3480156109ef57600080fd5b506106706109fe3660046146b4565b612747565b6104cd6127cd565b348015610a1757600080fd5b506104e4610a26366004614610565b6127e1565b348015610a3757600080fd5b50600d54610670565b348015610a4c57600080fd5b50610498610a5b366004614610565b6000908152600b60205260409020600c015460ff1690565b348015610a7f57600080fd5b506107f1610a8e366004614610565b612ab6565b348015610a9f57600080fd5b50610b31610aae366004614610565b6040805160808082018352600080835260208084018290528385018290526060938401829052948152600c855283902083519182018452546001600160801b03811682526001600160401b03600160801b8204169482019490945260ff600160c01b85048116151593820193909352600160c81b90930490911615159082015290565b6040516104a4919081516001600160801b031681526020808301516001600160401b03169082015260408083015115159082015260609182015115159181019190915260800190565b348015610b8657600080fd5b50638b78c6d8195461054f565b348015610b9f57600080fd5b5061054f610bae366004614610565b6000908152601360205260409020546001600160a01b031690565b348015610bd557600080fd5b506104e4610be4366004614610565b612ae1565b348015610bf557600080fd5b506104cd610c04366004614610565b612bfe565b348015610c1557600080fd5b506104cd610c2436600461454a565b612c0b565b348015610c3557600080fd5b506104e4612c7c565b348015610c4a57600080fd5b506107f1610c593660046146b4565b612c8b565b348015610c6a57600080fd5b5061054f610c79366004614610565b6013602052600090815260409020546001600160a01b031681565b348015610ca057600080fd5b506104cd610caf366004614610565b612d01565b348015610cc057600080fd5b506104cd612d35565b348015610cd557600080fd5b5061067060115481565b348015610ceb57600080fd5b5060165461054f906001600160a01b031681565b348015610d0b57600080fd5b506104e4610d1a366004614610565b612e01565b348015610d2b57600080fd5b506104cd610d3a366004614a44565b612e31565b348015610d4b57600080fd5b506104e4610d5a366004614610565b612e40565b348015610d6b57600080fd5b506104cd610d7a366004614610565b6130c4565b348015610d8b57600080fd5b506104cd610d9a366004614a70565b6130f2565b348015610dab57600080fd5b50610dbf610dba366004614610565b61312a565b6040516104a49190614adb565b348015610dd857600080fd5b50600f5461054f906001600160a01b031681565b348015610df857600080fd5b506104e4610e07366004614610565b6133e7565b348015610e1857600080fd5b50610e2c610e27366004614610565b613428565b604080516001600160a01b039384168152929091166020830152016104a4565b348015610e5857600080fd5b506104cd610e67366004614610565b613457565b348015610e7857600080fd5b506104cd610e87366004614bb7565b613489565b348015610e9857600080fd5b506104e4610ea7366004614bfd565b6134e6565b348015610eb857600080fd5b506104cd610ec736600461454a565b613798565b348015610ed857600080fd5b50610498610ee7366004614c31565b6001600160a01b03918216600090815260056020908152604080832093909416825291909152205460ff1690565b6104cd610f233660046146b4565b613805565b348015610f3457600080fd5b506104cd610f4336600461454a565b613842565b348015610f5457600080fd5b506104cd610f63366004614c6a565b6138b2565b6104cd610f763660046146b4565b6138ff565b348015610f8757600080fd5b50610670610f963660046146b4565b63389a75e1600c908152600091909152602090205490565b6000610fb982613926565b92915050565b610fc9828261394b565b610fd4816004613a0a565b6000828152600b602052604090206003018190558082610ff38161263b565b6001600160a01b03166000805160206155ce833981519152604051611035906020808252600990820152684163636573736f727960b81b604082015260600190565b60405180910390a45050565b60606000805461105090614cef565b80601f016020809104026020016040519081016040528092919081815260200182805461107c90614cef565b80156110c95780601f1061109e576101008083540402835291602001916110c9565b820191906000526020600020905b8154815290600101906020018083116110ac57829003601f168201915b5050505050905090565b60006110de82613b0c565b506000908152600460205260409020546001600160a01b031690565b60006111058261263b565b9050806001600160a01b0316836001600160a01b0316036111775760405162461bcd60e51b815260206004820152602160248201527f4552433732313a20617070726f76616c20746f2063757272656e74206f776e656044820152603960f91b60648201526084015b60405180910390fd5b336001600160a01b038216148061119357506111938133610ee7565b6112055760405162461bcd60e51b815260206004820152603e60248201527f4552433732313a20617070726f76652063616c6c6572206973206e6f7420746f60448201527f6b656e206f776e6572206e6f7220617070726f76656420666f7220616c6c0000606482015260840161116e565b61120f8383613b6b565b505050565b600e602052600090815260409020805460018201805491929161123690614cef565b80601f016020809104026020016040519081016040528092919081815260200182805461126290614cef565b80156112af5780601f10611284576101008083540402835291602001916112af565b820191906000526020600020905b81548152906001019060200180831161129257829003601f168201915b5050505050908060020180546112c490614cef565b80601f01602080910402602001604051908101604052809291908181526020018280546112f090614cef565b801561133d5780601f106113125761010080835404028352916020019161133d565b820191906000526020600020905b81548152906001019060200180831161132057829003601f168201915b50505050509080600301805461135290614cef565b80601f016020809104026020016040519081016040528092919081815260200182805461137e90614cef565b80156113cb5780601f106113a0576101008083540402835291602001916113cb565b820191906000526020600020905b8154815290600101906020018083116113ae57829003601f168201915b5050505050905084565b6113df828261394b565b6113ea816003613a0a565b6000828152600b6020526040902060020181905580826114098161263b565b6001600160a01b03166000805160206155ce833981519152604051611035906020808252600490820152634661636560e01b604082015260600190565b61144f81613bd9565b6000818152600b60205260408082206001019190915551632430b4b960e11b81526004015b6040518091039020816114868361263b565b6001600160a01b03167fe428b1839105819dce5e635ac7e16ed2a43028f6e294bab8655e29acb5dc60bb60405160405180910390a450565b6014546001600160a01b03166114e757604051633390ca8960e21b815260040160405180910390fd5b60076114f1611abd565b600060106000815461150290614d3f565b918290555090506115133382613c13565b604051638a54c52f60e01b81527355266d75d1a14e4572138116af39863ed6596e7f600482015260006024820181905262014a34604483015230606483015260848201839052906f6551c19487814612e58fe0681377575890638a54c52f9060a4016020604051808303816000875af1158015611594573d6000803e3d6000fd5b505050506040513d601f19601f820116820180604052508101906115b89190614d58565b6000838152601360205260409081902080546001600160a01b0319166001600160a01b038416908117909155905163189acdbd60e31b81527341c8f39463a868d3a88af00cd0fe7102f30e44ec60048201529192509063c4d66de890602401600060405180830381600087803b15801561163157600080fd5b505af1158015611645573d6000803e3d6000fd5b5050601454604051638fe4a24560e01b81526001600160a01b03858116600483015260248201889052600094509091169150638fe4a245906044016000604051808303816000875af115801561169f573d6000803e3d6000fd5b505050506040513d6000823e601f3d908101601f191682016040526116c79190810190614d75565b6000848152600b60205260408120600d5460078201805461ffff8916600a850181905563ffffffff90931665ffffffffffff199091161764010000000090920291909117905582519293509183919061172257611722614e1a565b602002602001015181600601819055508160018151811061174557611745614e1a565b602002602001015181600501819055508160028151811061176857611768614e1a565b6020026020010151816004018190555060058511156117a2578160058151811061179457611794614e1a565b602090810291909101015181555b600c8101805460ff19169055600160088201556040805180820190915260068152650c110d914e5160d21b6020820152600b8201906117e19082614e78565b50604051849033907f0f6798a560793a54c3bcfe86a93cde1e73087d944c0ea20544137d412139688590600090a36118456040518060400160405280601481526020017336b4b73a32b2103137b23c903a37b5b2b724b21d60611b81525085613d61565b5050505050565b6060600061185983612ab6565b905060006040518060400160405280601b81526020017f3c7376672076696577426f783d223020302031353020313530223e000000000081525090506000604051806040016040528060068152602001651e17b9bb339f60d11b815250905060606000600f60009054906101000a90046001600160a01b03166001600160a01b0316635c1ef2566040518163ffffffff1660e01b8152600401600060405180830381865afa15801561190f573d6000803e3d6000fd5b505050506040513d6000823e601f3d908101601f191682016040526119379190810190614f87565b9050600060125486511061194d57601254611950565b85515b905060405180610540016040528061050581526020016155ee610505913982604051602001611980929190614fbb565b604051602081830303815290604052925060005b81811015611a6557600f5487516000916001600160a01b03169063c7791531908a90859081106119c6576119c6614e1a565b60200260200101516040518263ffffffff1660e01b81526004016119ec91815260200190565b600060405180830381865afa158015611a09573d6000803e3d6000fd5b505050506040513d6000823e601f3d908101601f19168201604052611a319190810190614f87565b905084878288604051602001611a4a9493929190615012565b60408051601f19818403018152919052945050600101611994565b5082604051602001611a779190615069565b60408051601f1981840301815291905298975050505050505050565b611a9b613da6565b601680546001600160a01b0319166001600160a01b0392909216919091179055565b600d546000908152600c602052604090208054600160c01b900460ff161580611b1557508054600160c81b900460ff16158015611b155750611b0161010043615091565b8154600160801b90046001600160401b0316105b15611b6057611b254360326150a4565b815460ff60c01b196001600160401b0392909216600160801b029190911668ffffffffffffffffff60801b1990911617600160c01b17815550565b8054600160801b90046001600160401b0316431115611c9657805460408051600160801b9092046001600160401b031640602083015244908201526001600160801b03906060016040516020818303038152906040528051906020012060001c611bca91906150cd565b8154600160c81b6001600160801b039290921679ff000000000000000000ffffffffffffffffffffffffffffffff199091161717808255600d54604051600160801b9092046001600160401b0316917f78611aecfda8d341359c248df527c95aef93d446c92bb928b2a81b7abcb1d8d990600090a3604080516000815260001960208201527f6bd5c950a8d8df17f772f5af37cb3655737899cbf903264b9795592da439661c910160405180910390a1600d8054600090611c8a90614d3f565b90915550611c96611abd565b50565b611ca33382613dc1565b611cbf5760405162461bcd60e51b815260040161116e906150e1565b61120f838383613e40565b60006202a3006001600160401b03164201905063389a75e1600c5233600052806020600c2055337fdbf36a107da19e49527a7176a1babf963b4b0ff8cde35ee35d6cd8f1f9ac7e1d600080a250565b611d2281613bd9565b6000818152600b60205260408082206003019190915551684163636573736f727960b81b8152600901611474565b60608060606000611d608561312a565b9050611d6b8161211d565b50600f54604051630de6a96560e11b81529195506001600160a01b03169150631bcd52ca90611d9e908490600401614adb565b600060405180830381865afa158015611dbb573d6000803e3d6000fd5b505050506040513d6000823e601f3d908101601f19168201604052611de3919081019061512f565b50604051909350611dfb9150849084906020016151cd565b6040516020818303038152906040529350505050919050565b6000611e1f83612747565b8210611e815760405162461bcd60e51b815260206004820152602b60248201527f455243373231456e756d657261626c653a206f776e657220696e646578206f7560448201526a74206f6620626f756e647360a81b606482015260840161116e565b506001600160a01b03919091166000908152600660209081526040808320938352929052205490565b611eb381613bd9565b6000818152600b602052604081208181556001810182905560028101829055600381018290556004810182905560058101829055600681019190915581611ef98161263b565b6001600160a01b03167f46078a2cd4c69c3b4a27bdc69fdfe03d442ebcf405f1a68e9b5df6bc3e24429760405160405180910390a35050565b6060806000611f408461312a565b9050611f4b8161211d565b5095945050505050565b611f5d613da6565b601255565b611f6b81613bd9565b6000818152600b60205260408082206004019190915551620546f760ec1b8152600301611474565b61120f838383604051806020016040528060008152506130f2565b60606000611fbb83612747565b90506000816001600160401b03811115611fd757611fd7614756565b604051908082528060200260200182016040528015612000578160200160208202803683370190505b50905060005b8281101561203d576120188582611e14565b82828151811061202a5761202a614e1a565b6020908102919091010152600101612006565b509392505050565b60018110806120545750600481115b156120955760405162461bcd60e51b8152602060048201526011602482015270092dcecc2d8d2c840c4dec8f292dcc8caf607b1b604482015260640161116e565b6000918252600b602052604090912060080155565b6120b4828261394b565b6120bf816006613a0a565b6000828152600b6020526040902060050181905580826120de8161263b565b6001600160a01b03166000805160206155ce83398151915260405161103590602080825260069082015265426f74746f6d60d01b604082015260600190565b606080606083610140015161217b576040518060a00160405280606581526020016155696065913960405180602001604052806000815250604051806040016040528060028152602001617b7d60f01b815250925092509250612305565b612189846101200151612ae1565b600e6000866101200151815260200190815260200160002060030161227260405180604001604052806009815260200168426f6479205479706560b81b815250600e6000896101200151815260200190815260200160002060010180546121ef90614cef565b80601f016020809104026020016040519081016040528092919081815260200182805461221b90614cef565b80156122685780601f1061223d57610100808354040283529160200191612268565b820191906000526020600020905b81548152906001019060200180831161224b57829003601f168201915b5050505050613fe7565b81805461227e90614cef565b80601f01602080910402602001604051908101604052809291908181526020018280546122aa90614cef565b80156122f75780601f106122cc576101008083540402835291602001916122f7565b820191906000526020600020905b8154815290600101906020018083116122da57829003601f168201915b505050505091509250925092505b9193909250565b861561231c5761231c8888613798565b851561232c5761232c8887612c0b565b841561233c5761233c88866113d5565b831561234c5761234c8885610fbf565b821561235c5761235c8884613842565b811561236c5761236c88836120aa565b801561237c5761237c8882612545565b876123868961263b565b6001600160a01b03167f56680590212b09eb4b72a2eba8801b037ec046dfc754538e924f5bb6a8c4db6c60405160405180910390a35050505050505050565b6123cd613da6565b601580546001600160a01b0319166001600160a01b0392909216919091179055565b60006123fa60085490565b821061245d5760405162461bcd60e51b815260206004820152602c60248201527f455243373231456e756d657261626c653a20676c6f62616c20696e646578206f60448201526b7574206f6620626f756e647360a01b606482015260840161116e565b6008828154811061247057612470614e1a565b90600052602060002001549050919050565b63389a75e1600c523360005260006020600c2055337ffa7b8eab7da67f412cc9575ed43464468f9bfbae89d1675917346ca6d8fe3c92600080a2565b6124c781613bd9565b6000818152600b602052604080822060060191909155516453686f657360d81b8152600501611474565b6124f9613da6565b601480546001600160a01b0319166001600160a01b0392909216919091179055565b612523613da6565b600f80546001600160a01b0319166001600160a01b0392909216919091179055565b61254f828261394b565b61255a816007613a0a565b6000828152600b6020526040902060060181905580826125798161263b565b6001600160a01b03166000805160206155ce8339815191526040516110359060208082526005908201526453686f657360d81b604082015260600190565b6000818152601360205260409081902054600f5491516340d097c360e01b81526001600160a01b03918216600482018190529291909116906340d097c3906024016020604051808303816000875af1158015612617573d6000803e3d6000fd5b505050506040513d601f19601f8201168201806040525081019061120f91906151fc565b6000818152600260205260408120546001600160a01b031680610fb95760405162461bcd60e51b8152602060048201526018602482015277115490cdcc8c4e881a5b9d985b1a59081d1bdad95b88125160421b604482015260640161116e565b6060808261014001516126e5576040518060a001604052806065815260200161556960659139604051806040016040528060028152602001617b7d60f01b81525091509150915091565b6126f3836101200151612ae1565b61273e60405180604001604052806009815260200168426f6479205479706560b81b815250600e6000876101200151815260200190815260200160002060010180546121ef90614cef565b91509150915091565b60006001600160a01b0382166127b15760405162461bcd60e51b815260206004820152602960248201527f4552433732313a2061646472657373207a65726f206973206e6f7420612076616044820152683634b21037bbb732b960b91b606482015260840161116e565b506001600160a01b031660009081526003602052604090205490565b6127d5613da6565b6127df6000614013565b565b60608060608060608060608060608060006127fb8c61312a565b90506128068161211d565b600f54604051630de6a96560e11b8152939d50919a5095506001600160a01b031690631bcd52ca9061283c908490600401614adb565b600060405180830381865afa158015612859573d6000803e3d6000fd5b505050506040513d6000823e601f3d908101601f19168201604052612881919081019061512f565b604051929b50909850955061289c9085908790602001615215565b604051602081830303815290604052925087876040516020016128c09291906151cd565b60408051601f19818403018152608083018252606080845260208401819052918301829052600091830191909152965061018082015181526129018d612ab6565b5160608201526101208201516000908152600e60205260409020600101805461292990614cef565b80601f016020809104026020016040519081016040528092919081815260200182805461295590614cef565b80156129a25780601f10612977576101008083540402835291602001916129a2565b820191906000526020600020905b81548152906001019060200180831161298557829003601f168201915b505050505081602001819052506129cb8d6000908152600b60205260409020600c015460ff1690565b6129ef57604051806040016040528060028152602001610c9160f21b815250612a0b565b604051806040016040528060028152602001610cd160f21b8152505b8160400181905250601660009054906101000a90046001600160a01b03166001600160a01b031663cb406c948e8d888e8b8d886040518863ffffffff1660e01b8152600401612a6097969594939291906152d9565b600060405180830381865afa158015612a7d573d6000803e3d6000fd5b505050506040513d6000823e601f3d908101601f19168201604052612aa59190810190614f87565b9d9c50505050505050505050505050565b6000818152601360205260409020546060906001600160a01b0316612ada81612c8b565b9392505050565b6000818152600e60205260408120600201805460609291612b8891612b0590614cef565b80601f0160208091040260200160405190810160405280929190818152602001828054612b3190614cef565b8015612b7e5780601f10612b5357610100808354040283529160200191612b7e565b820191906000526020600020905b815481529060010190602001808311612b6157829003601f168201915b50505050506134e6565b6015546040516335b07b7960e11b81529192506001600160a01b031690636b60f6f290612bb99084906004016145bc565b600060405180830381865afa158015612bd6573d6000803e3d6000fd5b505050506040513d6000823e601f3d908101601f19168201604052612ada9190810190614f87565b612c06613da6565b601155565b612c15828261394b565b612c20816002613a0a565b6000828152600b602052604090206001018190558082612c3f8161263b565b6001600160a01b03166000805160206155ce833981519152604051611035906020808252600490820152632430b4b960e11b604082015260600190565b60606001805461105090614cef565b600f5460405162438b6360e81b81526001600160a01b03838116600483015260609260009291169063438b630090602401600060405180830381865afa158015612cd9573d6000803e3d6000fd5b505050506040513d6000823e601f3d908101601f19168201604052612ada9190810190614d75565b612d0a81613bd9565b6000818152600b6020526040808220600501919091555165426f74746f6d60d01b8152600601611474565b600a5460ff16156127df5760005b6064811015612d5c57612d546114be565b600101612d43565b50612d8660016040518060400160405280600681526020016533333333333360d01b815250613489565b612daf60036040518060400160405280600681526020016533333333333360d11b815250613489565b612dd860046040518060400160405280600681526020016519588c0d8e1960d21b815250613489565b6127df600860405180604001604052806006815260200165118c90cccc0d60d21b815250613489565b60606000612e0e8361312a565b9050806101a00151612e2857612e2383612e40565b612ada565b612ada836127e1565b612e3c338383614051565b5050565b6060806060806060806000612e548861312a565b9050612e5f8161269b565b600f5460405163506cbfe760e11b81529298509096506001600160a01b03169063a0d97fce90612e93908490600401614adb565b600060405180830381865afa158015612eb0573d6000803e3d6000fd5b505050506040513d6000823e601f3d908101601f19168201604052612ed89190810190615362565b9094509250612ee68861184c565b9150612f136040518060800160405280606081526020016060815260200160608152602001600081525090565b6101808201518152612f2489612ab6565b5160608201526101208201516000908152600e602052604090206001018054612f4c90614cef565b80601f0160208091040260200160405190810160405280929190818152602001828054612f7890614cef565b8015612fc55780601f10612f9a57610100808354040283529160200191612fc5565b820191906000526020600020905b815481529060010190602001808311612fa857829003601f168201915b50505050508160200181905250612fee896000908152600b60205260409020600c015460ff1690565b61301257604051806040016040528060028152602001610c9160f21b81525061302e565b604051806040016040528060028152602001610cd160f21b8152505b6040808301919091526015549051634e2fa37760e11b81526001600160a01b0390911690639c5f46ee90613072908c908b908b908b908b908b908a906004016152d9565b600060405180830381865afa15801561308f573d6000803e3d6000fd5b505050506040513d6000823e601f3d908101601f191682016040526130b79190810190614f87565b9998505050505050505050565b6130cd81613bd9565b6000818152600b602052604080822091909155516212185d60ea1b8152600301611474565b6130fc3383613dc1565b6131185760405162461bcd60e51b815260040161116e906150e1565b6131248484848461411f565b50505050565b6131aa604051806101c0016040528060008152602001600081526020016000815260200160008152602001600081526020016000815260200160008152602001600063ffffffff168152602001600061ffff1681526020016000815260200160001515815260200160008152602001606081526020016000151581525090565b6000828152600b6020818152604080842081516101c081018352815481526001820154938101939093526002810154918301919091526003810154606083015260048101546080830152600581015460a0830152600681015460c0830152600781015463ffffffff811660e0840152640100000000900461ffff166101008301526008810154610120830152600981015460ff161515610140830152600a81015461016083015291820180549192916101808401919061326990614cef565b80601f016020809104026020016040519081016040528092919081815260200182805461329590614cef565b80156132e25780601f106132b7576101008083540402835291602001916132e2565b820191906000526020600020905b8154815290600101906020018083116132c557829003601f168201915b5050509183525050600c9182015460ff16151560209182015260e083015163ffffffff1660009081529181526040918290205461010084015192519394506001600160801b039081169390926133689285920160809290921b6fffffffffffffffffffffffffffffffff1916825260f01b6001600160f01b031916601082015260120190565b6040516020818303038152906040528051906020012060001c61338b91906150cd565b610160830152600a5460ff1615156001146133b2576000816001600160801b0316116133b5565b60015b15156101408301526101608201516133cf906004906150cd565b6133da9060016150a4565b6101208301525092915050565b6000818152600260205260409020546060906001600160a01b031661341f57604051631a65aaab60e31b815260040160405180910390fd5b610fb982612e01565b6000806134348361263b565b6000938452601360205260409093205492936001600160a01b0390931692915050565b61346081613bd9565b6000818152600b60205260408082206002019190915551634661636560e01b8152600401611474565b80516006146134ca5760405162461bcd60e51b815260206004820152600d60248201526c24b73b30b634b21031b7b637b960991b604482015260640161116e565b6000828152600b602081905260409091200161120f8282614e78565b8051606090801580159061350257506135006005826150cd565b155b61354e5760405162461bcd60e51b815260206004820152601960248201527f496e76616c696420626f6479206279746573206c656e67746800000000000000604482015260640161116e565b604080516111948082526111c08201909252600091602082018180368337019050509050600061357f6005846153bb565b905060005b8181101561378e5760006135998260056153cf565b905060008782815181106135af576135af614e1a565b016020015160f81c90506000886135c78460016150a4565b815181106135d7576135d7614e1a565b016020015160f81c9050600060ff83166135f283601e6153cf565b6135fc91906150a4565b6136079060056153cf565b905089848151811061361b5761361b614e1a565b602001015160f81c60f81b87828151811061363857613638614e1a565b60200101906001600160f81b031916908160001a90535089846001018151811061366457613664614e1a565b602001015160f81c60f81b87826001018151811061368457613684614e1a565b60200101906001600160f81b031916908160001a9053508984600201815181106136b0576136b0614e1a565b602001015160f81c60f81b8782600201815181106136d0576136d0614e1a565b60200101906001600160f81b031916908160001a9053508984600301815181106136fc576136fc614e1a565b602001015160f81c60f81b87826003018151811061371c5761371c614e1a565b60200101906001600160f81b031916908160001a90535089846004018151811061374857613748614e1a565b602001015160f81c60f81b87826004018151811061376857613768614e1a565b60200101906001600160f81b031916908160001a90535050505050806001019050613584565b5090949350505050565b6137a2828261394b565b6137ad816001613a0a565b6000828152600b6020526040902081905580826137c98161263b565b6001600160a01b03166000805160206155ce8339815191526040516110359060208082526003908201526212185d60ea1b604082015260600190565b61380d613da6565b63389a75e1600c52806000526020600c20805442111561383557636f5e88186000526004601cfd5b60009055611c9681614013565b61384c828261394b565b613857816005613a0a565b6000828152600b6020526040902060040181905580826138768161263b565b6001600160a01b03166000805160206155ce833981519152604051611035906020808252600390820152620546f760ec1b604082015260600190565b6138ba613da6565b6000848152600e60205260409020848155600181016138d98582614e78565b50600281016138e88482614e78565b50600381016138f78382614e78565b505050505050565b613907613da6565b8060601b61391d57637448fbae6000526004601cfd5b611c9681614013565b60006001600160e01b0319821663780e9d6360e01b1480610fb95750610fb982614152565b61395482613bd9565b60008281526013602052604080822054600f5491516331a9108f60e11b8152600481018590526001600160a01b0391821693929190911690636352211e90602401602060405180830381865afa1580156139b2573d6000803e3d6000fd5b505050506040513d601f19601f820116820180604052508101906139d69190614d58565b9050816001600160a01b0316816001600160a01b0316146131245760405163e6ca793160e01b815260040160405180910390fd5b600f5460405163e8a1268d60e01b8152600481018490526000916001600160a01b03169063e8a1268d90602401602060405180830381865afa158015613a54573d6000803e3d6000fd5b505050506040513d601f19601f82011682018060405250810190613a7891906153e6565b9050816007811115613a8c57613a8c615407565b604051602001613a9e91815260200190565b60405160208183030381529060405280519060200120816007811115613ac657613ac6615407565b604051602001613ad891815260200190565b604051602081830303815290604052805190602001201461120f57604051633e54c6fb60e11b815260040160405180910390fd5b6000818152600260205260409020546001600160a01b0316611c965760405162461bcd60e51b8152602060048201526018602482015277115490cdcc8c4e881a5b9d985b1a59081d1bdad95b88125160421b604482015260640161116e565b600081815260046020526040902080546001600160a01b0319166001600160a01b0384169081179091558190613ba08261263b565b6001600160a01b03167f8c5be1e5ebec7d5bd14f71427d1e84f3dd0314c0f7b2291e5b200ac8c7c3b92560405160405180910390a45050565b613be28161263b565b6001600160a01b0316336001600160a01b031614611c96576040516324adc17160e11b815260040160405180910390fd5b6001600160a01b038216613c695760405162461bcd60e51b815260206004820181905260248201527f4552433732313a206d696e7420746f20746865207a65726f2061646472657373604482015260640161116e565b6000818152600260205260409020546001600160a01b031615613cce5760405162461bcd60e51b815260206004820152601c60248201527f4552433732313a20746f6b656e20616c7265616479206d696e74656400000000604482015260640161116e565b613cda600083836141a2565b6001600160a01b0382166000908152600360205260408120805460019290613d039084906150a4565b909155505060008181526002602052604080822080546001600160a01b0319166001600160a01b03861690811790915590518392907fddf252ad1be2c89b69c2b068fc378daa952ba7f163c4a11628f55a4df523b3ef908290a45050565b612e3c8282604051602401613d7792919061541d565b60408051601f198184030181529190526020810180516001600160e01b03166309710a9d60e41b1790526141ad565b638b78c6d8195433146127df576382b429006000526004601cfd5b600080613dcd8361263b565b9050806001600160a01b0316846001600160a01b03161480613e1457506001600160a01b0380821660009081526005602090815260408083209388168352929052205460ff165b80613e385750836001600160a01b0316613e2d846110d3565b6001600160a01b0316145b949350505050565b826001600160a01b0316613e538261263b565b6001600160a01b031614613eb75760405162461bcd60e51b815260206004820152602560248201527f4552433732313a207472616e736665722066726f6d20696e636f72726563742060448201526437bbb732b960d91b606482015260840161116e565b6001600160a01b038216613f195760405162461bcd60e51b8152602060048201526024808201527f4552433732313a207472616e7366657220746f20746865207a65726f206164646044820152637265737360e01b606482015260840161116e565b613f248383836141a2565b613f2f600082613b6b565b6001600160a01b0383166000908152600360205260408120805460019290613f58908490615091565b90915550506001600160a01b0382166000908152600360205260408120805460019290613f869084906150a4565b909155505060008181526002602052604080822080546001600160a01b0319166001600160a01b0386811691821790925591518493918716917fddf252ad1be2c89b69c2b068fc378daa952ba7f163c4a11628f55a4df523b3ef91a4505050565b60608282604051602001613ffc92919061543f565b604051602081830303815290604052905092915050565b638b78c6d81980546001600160a01b039092169182907f8be0079c531659141344cd1fd0a4f28419497f9722a3daafe3b4186f6b6457e0600080a355565b816001600160a01b0316836001600160a01b0316036140b25760405162461bcd60e51b815260206004820152601960248201527f4552433732313a20617070726f766520746f2063616c6c657200000000000000604482015260640161116e565b6001600160a01b03838116600081815260056020908152604080832094871680845294825291829020805460ff191686151590811790915591519182527f17307eab39ab6107e8899845ad3d59bd9653f200f220920489ca2b5937696c31910160405180910390a3505050565b61412a848484613e40565b614136848484846141ce565b6131245760405162461bcd60e51b815260040161116e906154b0565b60006001600160e01b031982166380ac58cd60e01b148061418357506001600160e01b03198216635b5e139f60e01b145b80610fb957506301ffc9a760e01b6001600160e01b0319831614610fb9565b61120f8383836142cf565b80516a636f6e736f6c652e6c6f67602083016000808483855afa5050505050565b60006001600160a01b0384163b156142c457604051630a85bd0160e11b81526001600160a01b0385169063150b7a0290614212903390899088908890600401615502565b6020604051808303816000875af192505050801561424d575060408051601f3d908101601f1916820190925261424a91810190615535565b60015b6142aa573d80801561427b576040519150601f19603f3d011682016040523d82523d6000602084013e614280565b606091505b5080516000036142a25760405162461bcd60e51b815260040161116e906154b0565b805181602001fd5b6001600160e01b031916630a85bd0160e11b149050613e38565b506001949350505050565b6001600160a01b03831661432a5761432581600880546000838152600960205260408120829055600182018355919091527ff3f7a9fe364faab93b216da50a3214154f22a0a2b415b23a84c8169e8b636ee30155565b61434d565b816001600160a01b0316836001600160a01b03161461434d5761434d8382614387565b6001600160a01b0382166143645761120f81614424565b826001600160a01b0316826001600160a01b03161461120f5761120f82826144d3565b6000600161439484612747565b61439e9190615091565b6000838152600760205260409020549091508082146143f1576001600160a01b03841660009081526006602090815260408083208584528252808320548484528184208190558352600790915290208190555b5060009182526007602090815260408084208490556001600160a01b039094168352600681528383209183525290812055565b60085460009061443690600190615091565b6000838152600960205260408120546008805493945090928490811061445e5761445e614e1a565b90600052602060002001549050806008838154811061447f5761447f614e1a565b60009182526020808320909101929092558281526009909152604080822084905585825281205560088054806144b7576144b7615552565b6001900381819060005260206000200160009055905550505050565b60006144de83612747565b6001600160a01b039093166000908152600660209081526040808320868452825280832085905593825260079052919091209190915550565b6001600160e01b031981168114611c9657600080fd5b60006020828403121561453f57600080fd5b8135612ada81614517565b6000806040838503121561455d57600080fd5b50508035926020909101359150565b60005b8381101561458757818101518382015260200161456f565b50506000910152565b600081518084526145a881602086016020860161456c565b601f01601f19169290920160200192915050565b602081526000612ada6020830184614590565b803580151581146145df57600080fd5b919050565b600080604083850312156145f757600080fd5b82359150614607602084016145cf565b90509250929050565b60006020828403121561462257600080fd5b5035919050565b6001600160a01b0381168114611c9657600080fd5b6000806040838503121561465157600080fd5b823561465c81614629565b946020939093013593505050565b8481526080602082015260006146836080830186614590565b82810360408401526146958186614590565b905082810360608401526146a98185614590565b979650505050505050565b6000602082840312156146c657600080fd5b8135612ada81614629565b6000806000606084860312156146e657600080fd5b83356146f181614629565b9250602084013561470181614629565b929592945050506040919091013590565b6020808252825182820181905260009190848201906040850190845b8181101561474a5783518352928401929184019160010161472e565b50909695505050505050565b634e487b7160e01b600052604160045260246000fd5b6040516101c081016001600160401b038111828210171561478f5761478f614756565b60405290565b604051601f8201601f191681016001600160401b03811182821017156147bd576147bd614756565b604052919050565b803563ffffffff811681146145df57600080fd5b803561ffff811681146145df57600080fd5b60006001600160401b0382111561480457614804614756565b50601f01601f191660200190565b600082601f83011261482357600080fd5b8135614836614831826147eb565b614795565b81815284602083860101111561484b57600080fd5b816020850160208301376000918101602001919091529392505050565b60006020828403121561487a57600080fd5b81356001600160401b038082111561489157600080fd5b908301906101c082860312156148a657600080fd5b6148ae61476c565b823581526020830135602082015260408301356040820152606083013560608201526080830135608082015260a083013560a082015260c083013560c08201526148fa60e084016147c5565b60e082015261010061490d8185016147d9565b90820152610120838101359082015261014061492a8185016145cf565b908201526101608381013590820152610180808401358381111561494d57600080fd5b61495988828701614812565b8284015250506101a0915061496f8284016145cf565b91810191909152949350505050565b6060815260006149916060830186614590565b82810360208401526149a38186614590565b905082810360408401526149b78185614590565b9695505050505050565b600080600080600080600080610100898b0312156149de57600080fd5b505086359860208801359850604088013597606081013597506080810135965060a0810135955060c0810135945060e0013592509050565b604081526000614a296040830185614590565b8281036020840152614a3b8185614590565b95945050505050565b60008060408385031215614a5757600080fd5b8235614a6281614629565b9150614607602084016145cf565b60008060008060808587031215614a8657600080fd5b8435614a9181614629565b93506020850135614aa181614629565b92506040850135915060608501356001600160401b03811115614ac357600080fd5b614acf87828801614812565b91505092959194509250565b6020815281516020820152602082015160408201526040820151606082015260608201516080820152608082015160a082015260a082015160c082015260c082015160e0820152600060e0830151610100614b3d8185018363ffffffff169052565b8401519050610120614b548482018361ffff169052565b840151610140848101919091528401519050610160614b768185018315159052565b840151610180848101919091528401516101c06101a080860182905291925090614ba46101e0860184614590565b908601518015158387015290925061378e565b60008060408385031215614bca57600080fd5b8235915060208301356001600160401b03811115614be757600080fd5b614bf385828601614812565b9150509250929050565b600060208284031215614c0f57600080fd5b81356001600160401b03811115614c2557600080fd5b613e3884828501614812565b60008060408385031215614c4457600080fd5b8235614c4f81614629565b91506020830135614c5f81614629565b809150509250929050565b60008060008060808587031215614c8057600080fd5b8435935060208501356001600160401b0380821115614c9e57600080fd5b614caa88838901614812565b94506040870135915080821115614cc057600080fd5b614ccc88838901614812565b93506060870135915080821115614ce257600080fd5b50614acf87828801614812565b600181811c90821680614d0357607f821691505b602082108103614d2357634e487b7160e01b600052602260045260246000fd5b50919050565b634e487b7160e01b600052601160045260246000fd5b600060018201614d5157614d51614d29565b5060010190565b600060208284031215614d6a57600080fd5b8151612ada81614629565b60006020808385031215614d8857600080fd5b82516001600160401b0380821115614d9f57600080fd5b818501915085601f830112614db357600080fd5b815181811115614dc557614dc5614756565b8060051b9150614dd6848301614795565b8181529183018401918481019088841115614df057600080fd5b938501935b83851015614e0e57845182529385019390850190614df5565b98975050505050505050565b634e487b7160e01b600052603260045260246000fd5b601f82111561120f576000816000526020600020601f850160051c81016020861015614e595750805b601f850160051c820191505b818110156138f757828155600101614e65565b81516001600160401b03811115614e9157614e91614756565b614ea581614e9f8454614cef565b84614e30565b602080601f831160018114614eda5760008415614ec25750858301515b600019600386901b1c1916600185901b1785556138f7565b600085815260208120601f198616915b82811015614f0957888601518255948401946001909101908401614eea565b5085821015614f275787850151600019600388901b60f8161c191681555b5050505050600190811b01905550565b6000614f45614831846147eb565b9050828152838383011115614f5957600080fd5b612ada83602083018461456c565b600082601f830112614f7857600080fd5b612ada83835160208501614f37565b600060208284031215614f9957600080fd5b81516001600160401b03811115614faf57600080fd5b613e3884828501614f67565b60008351614fcd81846020880161456c565b835190830190614fe181836020880161456c565b7f3c672069643d226261636b7061636b547261697473223e0000000000000000009101908152601701949350505050565b60008551615024818460208a0161456c565b855190830190615038818360208a0161456c565b855191019061504b81836020890161456c565b845191019061505e81836020880161456c565b019695505050505050565b6000825161507b81846020870161456c565b631e17b39f60e11b920191825250600401919050565b81810381811115610fb957610fb9614d29565b80820180821115610fb957610fb9614d29565b634e487b7160e01b600052601260045260246000fd5b6000826150dc576150dc6150b7565b500690565b6020808252602e908201527f4552433732313a2063616c6c6572206973206e6f7420746f6b656e206f776e6560408201526d1c881b9bdc88185c1c1c9bdd995960921b606082015260800190565b60008060006060848603121561514457600080fd5b83516001600160401b038082111561515b57600080fd5b61516787838801614f67565b9450602086015191508082111561517d57600080fd5b818601915086601f83011261519157600080fd5b6151a087835160208501614f37565b935060408601519150808211156151b657600080fd5b506151c386828701614f67565b9150509250925092565b600083516151df81846020880161456c565b8351908301906151f381836020880161456c565b01949350505050565b60006020828403121561520e57600080fd5b5051919050565b6d2261747472696275746573223a5b60901b8152825160009061523f81600e85016020880161456c565b600b60fa1b600e91840191820152835161526081600f84016020880161456c565b605d60f81b600f9290910191820152601001949350505050565b600081516080845261528f6080850182614590565b9050602083015184820360208601526152a88282614590565b915050604083015184820360408601526152c28282614590565b915050606083015160608501528091505092915050565b87815260e0602082015260006152f260e0830189614590565b82810360408401526153048189614590565b905082810360608401526153188188614590565b9050828103608084015261532c8187614590565b905082810360a08401526153408186614590565b905082810360c0840152615354818561527a565b9a9950505050505050505050565b6000806040838503121561537557600080fd5b82516001600160401b038082111561538c57600080fd5b61539886838701614f67565b935060208501519150808211156153ae57600080fd5b50614bf385828601614f67565b6000826153ca576153ca6150b7565b500490565b8082028115828204841417610fb957610fb9614d29565b6000602082840312156153f857600080fd5b815160088110612ada57600080fd5b634e487b7160e01b600052602160045260246000fd5b6040815260006154306040830185614590565b90508260208301529392505050565b6e3d913a3930b4ba2fba3cb832911d1160891b8152825160009061546a81600f85016020880161456c565b6a1116113b30b63ab2911d1160a91b600f91840191820152835161549581601a84016020880161456c565b61227d60f01b601a9290910191820152601c01949350505050565b60208082526032908201527f4552433732313a207472616e7366657220746f206e6f6e20455243373231526560408201527131b2b4bb32b91034b6b83632b6b2b73a32b960711b606082015260800190565b6001600160a01b03858116825284166020820152604081018390526080606082018190526000906149b790830184614590565b60006020828403121561554757600080fd5b8151612ada81614517565b634e487b7160e01b600052603160045260246000fdfe3c7376673e3c7465787420783d22382220793d22313522207374796c653d22666f6e743a206e6f726d616c203270782073616e732d73657269663b2066696c6c3a20626c61636b3b223e436f6d696e6720536f6f6e2e2e2e3c2f746578743e3c2f7376673e8aea9baa1ab7209ce94784ac5f5149343f8d985fd4278de25a7b390989f2cf853c672069643d22416c6c20547261697473223e3c672069643d226261636b7061636b2220636c6173733d22636c6f736564223e3c7061746820643d224d302030204c33302030204c3330203330204c30203330205a222066696c6c3d227267622831322c203130392c203135372922202f3e3c7376672069643d226261636b7061636b5549222076696577426f783d223020302031323020313230223e203c7374796c653e2e75697b77696474683a3170783b206865696768743a203170783b2066696c6c3a77686974657d3c2f7374796c653e203c672069643d22636c6f736542746e22207472616e73666f726d3d227472616e736c61746528322c3229223e203c7265637420783d22312220793d22312220636c6173733d227569223e3c2f726563743e203c7265637420783d22322220793d22322220636c6173733d227569223e3c2f726563743e203c7265637420783d22332220793d22332220636c6173733d227569223e3c2f726563743e203c7265637420783d22342220793d22342220636c6173733d227569223e3c2f726563743e203c7265637420783d22352220793d22352220636c6173733d227569223e3c2f726563743e203c7265637420783d22352220793d22312220636c6173733d227569223e3c2f726563743e203c7265637420783d22342220793d22322220636c6173733d227569223e3c2f726563743e203c212d2d203c7265637420783d22332220793d2233222077696474683d223122206865696768743d2231222066696c6c3d227768697465223e3c2f726563743e202d2d3e203c7265637420783d22322220793d22342220636c6173733d227569223e3c2f726563743e203c7265637420783d22312220793d22352220636c6173733d227569223e3c2f726563743e203c2f673e203c672069643d226c65667442746e2220636c6173733d22627574746f6e22207472616e73666f726d3d227472616e736c6174652834352c31313029223e203c7061746820643d224d302030204c362030204c362036204c302036205a222066696c6c3d227472616e73706172656e7422202f3e203c7265637420783d22322220793d22302220636c6173733d227569223e3c2f726563743e203c7265637420783d22312220793d22312220636c6173733d227569223e3c2f726563743e203c7265637420783d22302220793d22322220636c6173733d227569223e3c2f726563743e203c7265637420783d22312220793d22332220636c6173733d227569223e3c2f726563743e203c7265637420783d22322220793d22342220636c6173733d227569223e3c2f726563743e203c2f673e203c672069643d22726967687442746e2220636c6173733d22627574746f6e22207472616e73666f726d3d227472616e736c6174652836352c31313029223e203c7061746820643d224d302030204c362030204c362036204c302036205a222066696c6c3d227472616e73706172656e7422202f3e203c7265637420783d22332220793d22302220636c6173733d227569223e3c2f726563743e203c7265637420783d22342220793d22312220636c6173733d227569223e3c2f726563743e203c7265637420783d22352220793d22322220636c6173733d227569223e3c2f726563743e203c7265637420783d22342220793d22332220636c6173733d227569223e3c2f726563743e203c7265637420783d22332220793d22342220636c6173733d227569223e3c2f726563743e203c2f673e203c2f7376673e20a2646970667358221220c91341631f886590e1e6686a0f560a8141a69575b802631d6eaa5228fde5dc4c64736f6c63430008160033","linkReferences":{}},"methodIdentifiers":{"MAX_TRAITS_TO_OUTPUT()":"20e0b93c","_debugPostConstructorMint()":"9c7be2f1","addNewBody(uint256,string,bytes,bytes)":"f2361e23","approve(address,uint256)":"095ea7b3","balanceOf(address)":"70a08231","bodyIndexToMetadata(uint256)":"0c83f9d7","buyTrait(uint256)":"6273ca2c","cancelOwnershipHandover()":"54d1f13d","completeOwnershipHandover(address)":"f04e283e","equipAccessory(uint256,uint256)":"0447a45e","equipAll(uint256,uint256,uint256,uint256,uint256,uint256,uint256,uint256)":"4a4333a3","equipBottom(uint256,uint256)":"45a10d0f","equipFace(uint256,uint256)":"0f162320","equipHair(uint256,uint256)":"94cbd9c4","equipHat(uint256,uint256)":"e5a68261","equipShoes(uint256,uint256)":"60b77b23","equipTop(uint256,uint256)":"f18dc22d","firstSeasonRenderMinter()":"13ea0ae3","getApproved(uint256)":"081812fc","getBackpackSVGs(uint256)":"14fe8ff4","getBodyImage(bytes)":"e37db3c2","getBodyImageSvg(uint256)":"916c546b","getBodySVGZmapsAndMetadata((uint256,uint256,uint256,uint256,uint256,uint256,uint256,uint32,uint16,uint256,bool,uint256,string,bool))":"45d2d7bd","getBodySvgAndMetadata((uint256,uint256,uint256,uint256,uint256,uint256,uint256,uint32,uint16,uint256,bool,uint256,string,bool))":"661ee23a","getBodyZMap(uint256)":"306c7334","getEpoch()":"757991a8","getEpochData(uint256)":"859e7d32","getOwnerAndTBAAddressForTokenId(uint256)":"cc9a5d37","getPeter(uint256)":"be928ff6","getPeterZMap(uint256)":"2bd1ca45","getTBAAddressForTokenId(uint256)":"8e29d3e9","getTokenRenderZ(uint256)":"8200ea51","getTraitTokens(address)":"998cfb6e","getTraitsForTokenId(uint256)":"850ad51a","isApprovedForAll(address,address)":"e985e9c5","mainRenderer()":"66b89b5a","mint()":"1249c58b","name()":"06fdde03","owner()":"8da5cb5b","ownerOf(uint256)":"6352211e","ownershipHandoverExpiresAt(address)":"fee81cf4","price()":"a035b1fe","renderAsDataUri(uint256)":"a1d62680","renderAsDataUriSVG(uint256)":"b28fbe40","renderAsDataUriZ(uint256)":"7557f2dc","renounceOwnership()":"715018a6","requestOwnershipHandover()":"25692962","resolveEpochIfNecessary()":"239ffa68","safeTransferFrom(address,address,uint256)":"42842e0e","safeTransferFrom(address,address,uint256,bytes)":"b88d4fde","setApprovalForAll(address,bool)":"a22cb465","setBackgroundColor(uint256,string)":"d68c4f32","setBodyIndex(uint256,uint256)":"457e7e61","setFirstSeasonRenderMinter(address)":"58a97640","setMainRenderer(address)":"4ddb3961","setMaxTraitsToOutput(uint256)":"33d3d9bf","setPrice(uint256)":"91b7f5ed","setTokenRenderZ(uint256,bool)":"07f4e045","setTraitsContract(address)":"5eabd84a","setZRenderer(address)":"172b054d","supportsInterface(bytes4)":"01ffc9a7","symbol()":"95d89b41","tokenByIndex(uint256)":"4f6ccce7","tokenIdToTBAAccountAddress(uint256)":"9c05d68d","tokenOfOwnerByIndex(address,uint256)":"2f745c59","tokenURI(uint256)":"c87b56dd","totalSupply()":"18160ddd","traitsContract()":"c093afdb","transferFrom(address,address,uint256)":"23b872dd","transferOwnership(address)":"f2fde38b","unequipAccessory(uint256)":"293ed3f7","unequipAll(uint256)":"3044825b","unequipBottom(uint256)":"9c762015","unequipFace(uint256)":"d5b55c8b","unequipHair(uint256)":"105338e0","unequipHat(uint256)":"b5282793","unequipShoes(uint256)":"58180d35","unequipTop(uint256)":"347bd8f4","walletOfOwner(address)":"438b6300","zRenderer()":"a15c561b"},"id":39}