{"abi":[{"type":"constructor","inputs":[{"name":"localDeploy_","type":"bool","internalType":"bool"}],"stateMutability":"nonpayable"},{"type":"function","name":"MAX_TRAITS_TO_OUTPUT","inputs":[],"outputs":[{"name":"","type":"uint256","internalType":"uint256"}],"stateMutability":"view"},{"type":"function","name":"_debugPostConstructorMint","inputs":[],"outputs":[],"stateMutability":"nonpayable"},{"type":"function","name":"addNewBody","inputs":[{"name":"_bodyIndex","type":"uint256","internalType":"uint256"},{"name":"_bodyName","type":"string","internalType":"string"},{"name":"_colorMap","type":"bytes","internalType":"bytes"},{"name":"_zMap","type":"bytes","internalType":"bytes"}],"outputs":[],"stateMutability":"nonpayable"},{"type":"function","name":"approve","inputs":[{"name":"to","type":"address","internalType":"address"},{"name":"tokenId","type":"uint256","internalType":"uint256"}],"outputs":[],"stateMutability":"nonpayable"},{"type":"function","name":"balanceOf","inputs":[{"name":"owner","type":"address","internalType":"address"}],"outputs":[{"name":"","type":"uint256","internalType":"uint256"}],"stateMutability":"view"},{"type":"function","name":"bodyIndexToMetadata","inputs":[{"name":"","type":"uint256","internalType":"uint256"}],"outputs":[{"name":"bodyIndex","type":"uint256","internalType":"uint256"},{"name":"bodyName","type":"string","internalType":"string"},{"name":"colorMap","type":"bytes","internalType":"bytes"},{"name":"zMap","type":"bytes","internalType":"bytes"}],"stateMutability":"view"},{"type":"function","name":"buyTrait","inputs":[{"name":"_tokenId","type":"uint256","internalType":"uint256"}],"outputs":[],"stateMutability":"nonpayable"},{"type":"function","name":"cancelOwnershipHandover","inputs":[],"outputs":[],"stateMutability":"payable"},{"type":"function","name":"completeOwnershipHandover","inputs":[{"name":"pendingOwner","type":"address","internalType":"address"}],"outputs":[],"stateMutability":"payable"},{"type":"function","name":"equipAccessory","inputs":[{"name":"_peterTokenId","type":"uint256","internalType":"uint256"},{"name":"_traitTokenId","type":"uint256","internalType":"uint256"}],"outputs":[],"stateMutability":"nonpayable"},{"type":"function","name":"equipAll","inputs":[{"name":"_peterTokenId","type":"uint256","internalType":"uint256"},{"name":"_hatTokenId","type":"uint256","internalType":"uint256"},{"name":"_hairTokenId","type":"uint256","internalType":"uint256"},{"name":"_glassesTokenId","type":"uint256","internalType":"uint256"},{"name":"_handheldTokenId","type":"uint256","internalType":"uint256"},{"name":"_shirtTokenId","type":"uint256","internalType":"uint256"},{"name":"_pantsTokenId","type":"uint256","internalType":"uint256"},{"name":"_shoesTokenId","type":"uint256","internalType":"uint256"}],"outputs":[],"stateMutability":"nonpayable"},{"type":"function","name":"equipGlasses","inputs":[{"name":"_peterTokenId","type":"uint256","internalType":"uint256"},{"name":"_traitTokenId","type":"uint256","internalType":"uint256"}],"outputs":[],"stateMutability":"nonpayable"},{"type":"function","name":"equipHair","inputs":[{"name":"_peterTokenId","type":"uint256","internalType":"uint256"},{"name":"_traitTokenId","type":"uint256","internalType":"uint256"}],"outputs":[],"stateMutability":"nonpayable"},{"type":"function","name":"equipHat","inputs":[{"name":"_peterTokenId","type":"uint256","internalType":"uint256"},{"name":"_traitTokenId","type":"uint256","internalType":"uint256"}],"outputs":[],"stateMutability":"nonpayable"},{"type":"function","name":"equipPants","inputs":[{"name":"_peterTokenId","type":"uint256","internalType":"uint256"},{"name":"_traitTokenId","type":"uint256","internalType":"uint256"}],"outputs":[],"stateMutability":"nonpayable"},{"type":"function","name":"equipShirt","inputs":[{"name":"_peterTokenId","type":"uint256","internalType":"uint256"},{"name":"_traitTokenId","type":"uint256","internalType":"uint256"}],"outputs":[],"stateMutability":"nonpayable"},{"type":"function","name":"equipShoes","inputs":[{"name":"_peterTokenId","type":"uint256","internalType":"uint256"},{"name":"_traitTokenId","type":"uint256","internalType":"uint256"}],"outputs":[],"stateMutability":"nonpayable"},{"type":"function","name":"firstSeasonRenderMinter","inputs":[],"outputs":[{"name":"","type":"address","internalType":"contract FirstSeasonRenderMinter"}],"stateMutability":"view"},{"type":"function","name":"getApproved","inputs":[{"name":"tokenId","type":"uint256","internalType":"uint256"}],"outputs":[{"name":"","type":"address","internalType":"address"}],"stateMutability":"view"},{"type":"function","name":"getBackpackSVGs","inputs":[{"name":"_tokenId","type":"uint256","internalType":"uint256"}],"outputs":[{"name":"backpackSVGs","type":"string","internalType":"string"}],"stateMutability":"view"},{"type":"function","name":"getBodyImage","inputs":[{"name":"colorMap","type":"bytes","internalType":"bytes"}],"outputs":[{"name":"","type":"bytes","internalType":"bytes"}],"stateMutability":"pure"},{"type":"function","name":"getBodyImageSvg","inputs":[{"name":"_index","type":"uint256","internalType":"uint256"}],"outputs":[{"name":"svg","type":"string","internalType":"string"}],"stateMutability":"view"},{"type":"function","name":"getBodySVGZmapsAndMetadata","inputs":[{"name":"storedPeter","type":"tuple","internalType":"struct IPeterStorage.StoredPeter","components":[{"name":"hatId","type":"uint256","internalType":"uint256"},{"name":"hairId","type":"uint256","internalType":"uint256"},{"name":"glassesId","type":"uint256","internalType":"uint256"},{"name":"handheldId","type":"uint256","internalType":"uint256"},{"name":"shirtId","type":"uint256","internalType":"uint256"},{"name":"pantsId","type":"uint256","internalType":"uint256"},{"name":"shoesId","type":"uint256","internalType":"uint256"},{"name":"epoch","type":"uint32","internalType":"uint32"},{"name":"tokenId","type":"uint16","internalType":"uint16"},{"name":"bodyIndex","type":"uint256","internalType":"uint256"},{"name":"isRevealed","type":"bool","internalType":"bool"},{"name":"seed","type":"uint256","internalType":"uint256"},{"name":"backgroundColor","type":"string","internalType":"string"},{"name":"renderZ","type":"bool","internalType":"bool"}]}],"outputs":[{"name":"","type":"string","internalType":"string"},{"name":"","type":"bytes","internalType":"bytes"},{"name":"","type":"string","internalType":"string"}],"stateMutability":"view"},{"type":"function","name":"getBodySvgAndMetadata","inputs":[{"name":"storedPeter","type":"tuple","internalType":"struct IPeterStorage.StoredPeter","components":[{"name":"hatId","type":"uint256","internalType":"uint256"},{"name":"hairId","type":"uint256","internalType":"uint256"},{"name":"glassesId","type":"uint256","internalType":"uint256"},{"name":"handheldId","type":"uint256","internalType":"uint256"},{"name":"shirtId","type":"uint256","internalType":"uint256"},{"name":"pantsId","type":"uint256","internalType":"uint256"},{"name":"shoesId","type":"uint256","internalType":"uint256"},{"name":"epoch","type":"uint32","internalType":"uint32"},{"name":"tokenId","type":"uint16","internalType":"uint16"},{"name":"bodyIndex","type":"uint256","internalType":"uint256"},{"name":"isRevealed","type":"bool","internalType":"bool"},{"name":"seed","type":"uint256","internalType":"uint256"},{"name":"backgroundColor","type":"string","internalType":"string"},{"name":"renderZ","type":"bool","internalType":"bool"}]}],"outputs":[{"name":"","type":"string","internalType":"string"},{"name":"","type":"string","internalType":"string"}],"stateMutability":"view"},{"type":"function","name":"getEpoch","inputs":[],"outputs":[{"name":"","type":"uint256","internalType":"uint256"}],"stateMutability":"view"},{"type":"function","name":"getEpochData","inputs":[{"name":"index","type":"uint256","internalType":"uint256"}],"outputs":[{"name":"","type":"tuple","internalType":"struct CommitReveal.Epoch","components":[{"name":"randomness","type":"uint128","internalType":"uint128"},{"name":"revealBlock","type":"uint64","internalType":"uint64"},{"name":"committed","type":"bool","internalType":"bool"},{"name":"revealed","type":"bool","internalType":"bool"}]}],"stateMutability":"view"},{"type":"function","name":"getPeter","inputs":[{"name":"_tokenId","type":"uint256","internalType":"uint256"}],"outputs":[{"name":"","type":"tuple","internalType":"struct IPeterStorage.StoredPeter","components":[{"name":"hatId","type":"uint256","internalType":"uint256"},{"name":"hairId","type":"uint256","internalType":"uint256"},{"name":"glassesId","type":"uint256","internalType":"uint256"},{"name":"handheldId","type":"uint256","internalType":"uint256"},{"name":"shirtId","type":"uint256","internalType":"uint256"},{"name":"pantsId","type":"uint256","internalType":"uint256"},{"name":"shoesId","type":"uint256","internalType":"uint256"},{"name":"epoch","type":"uint32","internalType":"uint32"},{"name":"tokenId","type":"uint16","internalType":"uint16"},{"name":"bodyIndex","type":"uint256","internalType":"uint256"},{"name":"isRevealed","type":"bool","internalType":"bool"},{"name":"seed","type":"uint256","internalType":"uint256"},{"name":"backgroundColor","type":"string","internalType":"string"},{"name":"renderZ","type":"bool","internalType":"bool"}]}],"stateMutability":"view"},{"type":"function","name":"getTraitTokens","inputs":[{"name":"_tbaAddress","type":"address","internalType":"address"}],"outputs":[{"name":"","type":"uint256[]","internalType":"uint256[]"}],"stateMutability":"view"},{"type":"function","name":"isApprovedForAll","inputs":[{"name":"owner","type":"address","internalType":"address"},{"name":"operator","type":"address","internalType":"address"}],"outputs":[{"name":"","type":"bool","internalType":"bool"}],"stateMutability":"view"},{"type":"function","name":"mainRenderer","inputs":[],"outputs":[{"name":"","type":"address","internalType":"contract MainRenderer"}],"stateMutability":"view"},{"type":"function","name":"mint","inputs":[],"outputs":[],"stateMutability":"payable"},{"type":"function","name":"name","inputs":[],"outputs":[{"name":"","type":"string","internalType":"string"}],"stateMutability":"view"},{"type":"function","name":"owner","inputs":[],"outputs":[{"name":"result","type":"address","internalType":"address"}],"stateMutability":"view"},{"type":"function","name":"ownerOf","inputs":[{"name":"tokenId","type":"uint256","internalType":"uint256"}],"outputs":[{"name":"","type":"address","internalType":"address"}],"stateMutability":"view"},{"type":"function","name":"ownershipHandoverExpiresAt","inputs":[{"name":"pendingOwner","type":"address","internalType":"address"}],"outputs":[{"name":"result","type":"uint256","internalType":"uint256"}],"stateMutability":"view"},{"type":"function","name":"price","inputs":[],"outputs":[{"name":"","type":"uint256","internalType":"uint256"}],"stateMutability":"view"},{"type":"function","name":"renderAsDataUri","inputs":[{"name":"_tokenId","type":"uint256","internalType":"uint256"}],"outputs":[{"name":"","type":"string","internalType":"string"}],"stateMutability":"view"},{"type":"function","name":"renderAsDataUriSVG","inputs":[{"name":"_tokenId","type":"uint256","internalType":"uint256"}],"outputs":[{"name":"","type":"string","internalType":"string"}],"stateMutability":"view"},{"type":"function","name":"renderAsDataUriZ","inputs":[{"name":"_tokenId","type":"uint256","internalType":"uint256"}],"outputs":[{"name":"","type":"string","internalType":"string"}],"stateMutability":"view"},{"type":"function","name":"renounceOwnership","inputs":[],"outputs":[],"stateMutability":"payable"},{"type":"function","name":"requestOwnershipHandover","inputs":[],"outputs":[],"stateMutability":"payable"},{"type":"function","name":"resolveEpochIfNecessary","inputs":[],"outputs":[],"stateMutability":"nonpayable"},{"type":"function","name":"safeTransferFrom","inputs":[{"name":"from","type":"address","internalType":"address"},{"name":"to","type":"address","internalType":"address"},{"name":"tokenId","type":"uint256","internalType":"uint256"}],"outputs":[],"stateMutability":"nonpayable"},{"type":"function","name":"safeTransferFrom","inputs":[{"name":"from","type":"address","internalType":"address"},{"name":"to","type":"address","internalType":"address"},{"name":"tokenId","type":"uint256","internalType":"uint256"},{"name":"data","type":"bytes","internalType":"bytes"}],"outputs":[],"stateMutability":"nonpayable"},{"type":"function","name":"setApprovalForAll","inputs":[{"name":"operator","type":"address","internalType":"address"},{"name":"approved","type":"bool","internalType":"bool"}],"outputs":[],"stateMutability":"nonpayable"},{"type":"function","name":"setBackgroundColor","inputs":[{"name":"_peterTokenId","type":"uint256","internalType":"uint256"},{"name":"_color","type":"string","internalType":"string"}],"outputs":[],"stateMutability":"nonpayable"},{"type":"function","name":"setFirstSeasonRenderMinter","inputs":[{"name":"_dataContract","type":"address","internalType":"address"}],"outputs":[],"stateMutability":"nonpayable"},{"type":"function","name":"setMainRenderer","inputs":[{"name":"_mainRenderer","type":"address","internalType":"address"}],"outputs":[],"stateMutability":"nonpayable"},{"type":"function","name":"setMaxTraitsToOutput","inputs":[{"name":"_maxTraitsToOutput","type":"uint256","internalType":"uint256"}],"outputs":[],"stateMutability":"nonpayable"},{"type":"function","name":"setPrice","inputs":[{"name":"_priceInWei","type":"uint256","internalType":"uint256"}],"outputs":[],"stateMutability":"nonpayable"},{"type":"function","name":"setRenderZ","inputs":[{"name":"_peterTokenId","type":"uint256","internalType":"uint256"},{"name":"_renderZ","type":"bool","internalType":"bool"}],"outputs":[],"stateMutability":"nonpayable"},{"type":"function","name":"setTraitsContract","inputs":[{"name":"_address","type":"address","internalType":"contract PeterTraits"}],"outputs":[],"stateMutability":"nonpayable"},{"type":"function","name":"setZRenderer","inputs":[{"name":"_zRenderer","type":"address","internalType":"address"}],"outputs":[],"stateMutability":"nonpayable"},{"type":"function","name":"supportsInterface","inputs":[{"name":"interfaceId","type":"bytes4","internalType":"bytes4"}],"outputs":[{"name":"","type":"bool","internalType":"bool"}],"stateMutability":"view"},{"type":"function","name":"symbol","inputs":[],"outputs":[{"name":"","type":"string","internalType":"string"}],"stateMutability":"view"},{"type":"function","name":"tokenByIndex","inputs":[{"name":"index","type":"uint256","internalType":"uint256"}],"outputs":[{"name":"","type":"uint256","internalType":"uint256"}],"stateMutability":"view"},{"type":"function","name":"tokenIdToTBAAccountAddress","inputs":[{"name":"","type":"uint256","internalType":"uint256"}],"outputs":[{"name":"","type":"uint160","internalType":"uint160"}],"stateMutability":"view"},{"type":"function","name":"tokenOfOwnerByIndex","inputs":[{"name":"owner","type":"address","internalType":"address"},{"name":"index","type":"uint256","internalType":"uint256"}],"outputs":[{"name":"","type":"uint256","internalType":"uint256"}],"stateMutability":"view"},{"type":"function","name":"tokenURI","inputs":[{"name":"_tokenId","type":"uint256","internalType":"uint256"}],"outputs":[{"name":"","type":"string","internalType":"string"}],"stateMutability":"view"},{"type":"function","name":"totalSupply","inputs":[],"outputs":[{"name":"","type":"uint256","internalType":"uint256"}],"stateMutability":"view"},{"type":"function","name":"traitsContract","inputs":[],"outputs":[{"name":"","type":"address","internalType":"contract PeterTraits"}],"stateMutability":"view"},{"type":"function","name":"transferFrom","inputs":[{"name":"from","type":"address","internalType":"address"},{"name":"to","type":"address","internalType":"address"},{"name":"tokenId","type":"uint256","internalType":"uint256"}],"outputs":[],"stateMutability":"nonpayable"},{"type":"function","name":"transferOwnership","inputs":[{"name":"newOwner","type":"address","internalType":"address"}],"outputs":[],"stateMutability":"payable"},{"type":"function","name":"unequipAccessory","inputs":[{"name":"_peterTokenId","type":"uint256","internalType":"uint256"}],"outputs":[],"stateMutability":"nonpayable"},{"type":"function","name":"unequipAll","inputs":[{"name":"_peterTokenId","type":"uint256","internalType":"uint256"}],"outputs":[],"stateMutability":"nonpayable"},{"type":"function","name":"unequipGlasses","inputs":[{"name":"_peterTokenId","type":"uint256","internalType":"uint256"}],"outputs":[],"stateMutability":"nonpayable"},{"type":"function","name":"unequipHair","inputs":[{"name":"_peterTokenId","type":"uint256","internalType":"uint256"}],"outputs":[],"stateMutability":"nonpayable"},{"type":"function","name":"unequipHat","inputs":[{"name":"_peterTokenId","type":"uint256","internalType":"uint256"}],"outputs":[],"stateMutability":"nonpayable"},{"type":"function","name":"unequipPants","inputs":[{"name":"_peterTokenId","type":"uint256","internalType":"uint256"}],"outputs":[],"stateMutability":"nonpayable"},{"type":"function","name":"unequipShirt","inputs":[{"name":"_peterTokenId","type":"uint256","internalType":"uint256"}],"outputs":[],"stateMutability":"nonpayable"},{"type":"function","name":"unequipShoes","inputs":[{"name":"_peterTokenId","type":"uint256","internalType":"uint256"}],"outputs":[],"stateMutability":"nonpayable"},{"type":"function","name":"walletOfOwner","inputs":[{"name":"_owner","type":"address","internalType":"address"}],"outputs":[{"name":"","type":"uint256[]","internalType":"uint256[]"}],"stateMutability":"view"},{"type":"function","name":"zRenderer","inputs":[],"outputs":[{"name":"","type":"address","internalType":"contract ZRenderer"}],"stateMutability":"view"},{"type":"event","name":"Approval","inputs":[{"name":"owner","type":"address","indexed":true,"internalType":"address"},{"name":"approved","type":"address","indexed":true,"internalType":"address"},{"name":"tokenId","type":"uint256","indexed":true,"internalType":"uint256"}],"anonymous":false},{"type":"event","name":"ApprovalForAll","inputs":[{"name":"owner","type":"address","indexed":true,"internalType":"address"},{"name":"operator","type":"address","indexed":true,"internalType":"address"},{"name":"approved","type":"bool","indexed":false,"internalType":"bool"}],"anonymous":false},{"type":"event","name":"BatchMetadataUpdate","inputs":[{"name":"_fromTokenId","type":"uint256","indexed":false,"internalType":"uint256"},{"name":"_toTokenId","type":"uint256","indexed":false,"internalType":"uint256"}],"anonymous":false},{"type":"event","name":"MetadataUpdate","inputs":[{"name":"_tokenId","type":"uint256","indexed":false,"internalType":"uint256"}],"anonymous":false},{"type":"event","name":"NewEpoch","inputs":[{"name":"epoch","type":"uint256","indexed":true,"internalType":"uint256"},{"name":"revealBlock","type":"uint64","indexed":true,"internalType":"uint64"}],"anonymous":false},{"type":"event","name":"OwnershipHandoverCanceled","inputs":[{"name":"pendingOwner","type":"address","indexed":true,"internalType":"address"}],"anonymous":false},{"type":"event","name":"OwnershipHandoverRequested","inputs":[{"name":"pendingOwner","type":"address","indexed":true,"internalType":"address"}],"anonymous":false},{"type":"event","name":"OwnershipTransferred","inputs":[{"name":"oldOwner","type":"address","indexed":true,"internalType":"address"},{"name":"newOwner","type":"address","indexed":true,"internalType":"address"}],"anonymous":false},{"type":"event","name":"Transfer","inputs":[{"name":"from","type":"address","indexed":true,"internalType":"address"},{"name":"to","type":"address","indexed":true,"internalType":"address"},{"name":"tokenId","type":"uint256","indexed":true,"internalType":"uint256"}],"anonymous":false},{"type":"error","name":"AlreadyInitialized","inputs":[]},{"type":"error","name":"BodyAlreadyExists","inputs":[]},{"type":"error","name":"FirstSeasonRenderMinterNotSet","inputs":[]},{"type":"error","name":"IncorrectPeterOwner","inputs":[]},{"type":"error","name":"IncorrectTBAOwner","inputs":[]},{"type":"error","name":"IncorrectTraitType","inputs":[]},{"type":"error","name":"NewOwnerIsZeroAddress","inputs":[]},{"type":"error","name":"NoHandoverRequest","inputs":[]},{"type":"error","name":"PeterDoesntExist","inputs":[]},{"type":"error","name":"Unauthorized","inputs":[]}],"bytecode":{"object":"0x6080604052600060105560456012553480156200001b57600080fd5b5060405162005637380380620056378339810160408190526200003e9162000106565b6040518060400160405280600a81526020016914195d195c8815195cdd60b21b815250604051806040016040528060058152602001642822aa22a960d91b8152508160009081620000909190620001d8565b5060016200009f8282620001d8565b505050620000b333620000ca60201b60201c565b600a805460ff1916911515919091179055620002a4565b6001600160a01b0316638b78c6d8198190558060007f8be0079c531659141344cd1fd0a4f28419497f9722a3daafe3b4186f6b6457e08180a350565b6000602082840312156200011957600080fd5b815180151581146200012a57600080fd5b9392505050565b634e487b7160e01b600052604160045260246000fd5b600181811c908216806200015c57607f821691505b6020821081036200017d57634e487b7160e01b600052602260045260246000fd5b50919050565b601f821115620001d3576000816000526020600020601f850160051c81016020861015620001ae5750805b601f850160051c820191505b81811015620001cf57828155600101620001ba565b5050505b505050565b81516001600160401b03811115620001f457620001f462000131565b6200020c8162000205845462000147565b8462000183565b602080601f8311600181146200024457600084156200022b5750858301515b600019600386901b1c1916600185901b178555620001cf565b600085815260208120601f198616915b82811015620002755788860151825594840194600190910190840162000254565b5085821015620002945787850151600019600388901b60f8161c191681555b5050505050600190811b01905550565b61538380620002b46000396000f3fe6080604052600436106104265760003560e01c80636352211e11610229578063a1d626801161012e578063c093afdb116100b6578063e985e9c51161007a578063e985e9c514610d76578063f04e283e14610dbf578063f2361e2314610dd2578063f2fde38b14610df2578063fee81cf414610e0557600080fd5b8063c093afdb14610cd6578063c87b56dd14610cf6578063d68c4f3214610d16578063e37db3c214610d36578063e5a6826114610d5657600080fd5b8063b28fbe40116100fd578063b28fbe4014610c0b578063b528279314610c2b578063b53d1fd714610c4b578063b88d4fde14610c89578063be928ff614610ca957600080fd5b8063a1d6268014610b8b578063a22cb46514610bab578063a860c96c14610bcb578063a959bb1d14610beb57600080fd5b8063916c546b116101b1578063998cfb6e11610180578063998cfb6e14610aea5780639c05d68d14610b0a5780639c7be2f114610b40578063a035b1fe14610b55578063a15c561b14610b6b57600080fd5b8063916c546b14610a7557806391b7f5ed14610a9557806394cbd9c414610ab557806395d89b4114610ad557600080fd5b8063715018a6116101f8578063715018a6146109385780637557f2dc14610940578063757991a814610960578063859e7d32146109755780638da5cb5b14610a5c57600080fd5b80636352211e146108aa578063661ee23a146108ca57806366b89b5a146108f857806370a082311461091857600080fd5b8063293ed3f71161032f5780634ddb3961116102b757806358a976401161028657806358a976401461080a5780635a5474dd1461082a5780635eabd84a1461084a57806360b77b231461086a5780636273ca2c1461088a57600080fd5b80634ddb3961146107a25780634f6ccce7146107c257806354d1f13d146107e257806358180d35146107ea57600080fd5b80633fdc97fd116102fe5780633fdc97fd146106e657806342842e0e14610706578063438b63001461072657806345d2d7bd146107535780634a4333a31461078257600080fd5b8063293ed3f7146106665780632f745c59146106865780633044825b146106a657806333d3d9bf146106c657600080fd5b806313ea0ae3116103b257806320e0b93c1161038157806320e0b93c146105f357806321468d0214610609578063239ffa681461062957806323b872dd1461063e578063256929621461065e57600080fd5b806313ea0ae31461057457806314fe8ff414610594578063172b054d146105b457806318160ddd146105d457600080fd5b8063081812fc116103f9578063081812fc146104c4578063095ea7b3146104fc5780630c83f9d71461051c578063105338e01461054c5780631249c58b1461056c57600080fd5b806301ffc9a71461042b5780630447a45e1461046057806306e02a351461048257806306fdde03146104a2575b600080fd5b34801561043757600080fd5b5061044b610446366004613cb5565b610e38565b60405190151581526020015b60405180910390f35b34801561046c57600080fd5b5061048061047b366004613cd2565b610e49565b005b34801561048e57600080fd5b5061048061049d366004613cf4565b610e73565b3480156104ae57600080fd5b506104b7610e90565b6040516104579190613d5d565b3480156104d057600080fd5b506104e46104df366004613cf4565b610f22565b6040516001600160a01b039091168152602001610457565b34801561050857600080fd5b50610480610517366004613d85565b610f49565b34801561052857600080fd5b5061053c610537366004613cf4565b611063565b6040516104579493929190613db1565b34801561055857600080fd5b50610480610567366004613cf4565b611224565b610480611241565b34801561058057600080fd5b506014546104e4906001600160a01b031681565b3480156105a057600080fd5b506104b76105af366004613cf4565b6115b0565b3480156105c057600080fd5b506104806105cf366004613dfb565b611812565b3480156105e057600080fd5b506008545b604051908152602001610457565b3480156105ff57600080fd5b506105e560125481565b34801561061557600080fd5b50610480610624366004613cd2565b61183c565b34801561063557600080fd5b50610480611866565b34801561064a57600080fd5b50610480610659366004613e18565b611a42565b610480611a73565b34801561067257600080fd5b50610480610681366004613cf4565b611ac2565b34801561069257600080fd5b506105e56106a1366004613d85565b611adf565b3480156106b257600080fd5b506104806106c1366004613cf4565b611b75565b3480156106d257600080fd5b506104806106e1366004613cf4565b611bb8565b3480156106f257600080fd5b50610480610701366004613cf4565b611bc5565b34801561071257600080fd5b50610480610721366004613e18565b611be2565b34801561073257600080fd5b50610746610741366004613dfb565b611bfd565b6040516104579190613e59565b34801561075f57600080fd5b5061077361076e366004613fc4565b611c94565b604051610457939291906140da565b34801561078e57600080fd5b5061048061079d36600461411d565b611e7e565b3480156107ae57600080fd5b506104806107bd366004613dfb565b611ef8565b3480156107ce57600080fd5b506105e56107dd366004613cf4565b611f22565b610480611fb5565b3480156107f657600080fd5b50610480610805366004613cf4565b611ff1565b34801561081657600080fd5b50610480610825366004613dfb565b61200e565b34801561083657600080fd5b50610480610845366004613cd2565b612038565b34801561085657600080fd5b50610480610865366004613dfb565b612062565b34801561087657600080fd5b50610480610885366004613cd2565b61208c565b34801561089657600080fd5b506104806108a5366004613cf4565b6120b6565b3480156108b657600080fd5b506104e46108c5366004613cf4565b61213a565b3480156108d657600080fd5b506108ea6108e5366004613fc4565b61219a565b604051610457929190614172565b34801561090457600080fd5b506015546104e4906001600160a01b031681565b34801561092457600080fd5b506105e5610933366004613dfb565b612241565b6104806122c7565b34801561094c57600080fd5b506104b761095b366004613cf4565b6122db565b34801561096c57600080fd5b50600d546105e5565b34801561098157600080fd5b50610a13610990366004613cf4565b6040805160808082018352600080835260208084018290528385018290526060938401829052948152600c855283902083519182018452546001600160801b03811682526001600160401b03600160801b8204169482019490945260ff600160c01b85048116151593820193909352600160c81b90930490911615159082015290565b604051610457919081516001600160801b031681526020808301516001600160401b03169082015260408083015115159082015260609182015115159181019190915260800190565b348015610a6857600080fd5b50638b78c6d819546104e4565b348015610a8157600080fd5b506104b7610a90366004613cf4565b6124bb565b348015610aa157600080fd5b50610480610ab0366004613cf4565b6125df565b348015610ac157600080fd5b50610480610ad0366004613cd2565b6125ec565b348015610ae157600080fd5b506104b7612616565b348015610af657600080fd5b50610746610b05366004613dfb565b612625565b348015610b1657600080fd5b506104e4610b25366004613cf4565b6013602052600090815260409020546001600160a01b031681565b348015610b4c57600080fd5b5061048061269b565b348015610b6157600080fd5b506105e560115481565b348015610b7757600080fd5b506016546104e4906001600160a01b031681565b348015610b9757600080fd5b506104b7610ba6366004613cf4565b612783565b348015610bb757600080fd5b50610480610bc63660046141a0565b6127b3565b348015610bd757600080fd5b50610480610be6366004613cd2565b6127c2565b348015610bf757600080fd5b50610480610c06366004613cf4565b6127ec565b348015610c1757600080fd5b506104b7610c26366004613cf4565b612809565b348015610c3757600080fd5b50610480610c46366004613cf4565b612968565b348015610c5757600080fd5b50610480610c663660046141d5565b6000918252600b6020526040909120600c01805460ff1916911515919091179055565b348015610c9557600080fd5b50610480610ca43660046141f8565b612982565b348015610cb557600080fd5b50610cc9610cc4366004613cf4565b6129b4565b6040516104579190614263565b348015610ce257600080fd5b50600f546104e4906001600160a01b031681565b348015610d0257600080fd5b506104b7610d11366004613cf4565b612c71565b348015610d2257600080fd5b50610480610d3136600461433f565b612cb2565b348015610d4257600080fd5b506104b7610d51366004614385565b612d0f565b348015610d6257600080fd5b50610480610d71366004613cd2565b612fc1565b348015610d8257600080fd5b5061044b610d913660046143b9565b6001600160a01b03918216600090815260056020908152604080832093909416825291909152205460ff1690565b610480610dcd366004613dfb565b612fe8565b348015610dde57600080fd5b50610480610ded3660046143f2565b613025565b610480610e00366004613dfb565b613092565b348015610e1157600080fd5b506105e5610e20366004613dfb565b63389a75e1600c908152600091909152602090205490565b6000610e43826130b9565b92915050565b610e5382826130de565b610e5e81600361319d565b6000918252600b602052604090912060030155565b610e7c8161329f565b6000908152600b6020526040812060050155565b606060008054610e9f90614477565b80601f0160208091040260200160405190810160405280929190818152602001828054610ecb90614477565b8015610f185780601f10610eed57610100808354040283529160200191610f18565b820191906000526020600020905b815481529060010190602001808311610efb57829003601f168201915b5050505050905090565b6000610f2d826132d9565b506000908152600460205260409020546001600160a01b031690565b6000610f548261213a565b9050806001600160a01b0316836001600160a01b031603610fc65760405162461bcd60e51b815260206004820152602160248201527f4552433732313a20617070726f76616c20746f2063757272656e74206f776e656044820152603960f91b60648201526084015b60405180910390fd5b336001600160a01b0382161480610fe25750610fe28133610d91565b6110545760405162461bcd60e51b815260206004820152603e60248201527f4552433732313a20617070726f76652063616c6c6572206973206e6f7420746f60448201527f6b656e206f776e6572206e6f7220617070726f76656420666f7220616c6c00006064820152608401610fbd565b61105e8383613338565b505050565b600e602052600090815260409020805460018201805491929161108590614477565b80601f01602080910402602001604051908101604052809291908181526020018280546110b190614477565b80156110fe5780601f106110d3576101008083540402835291602001916110fe565b820191906000526020600020905b8154815290600101906020018083116110e157829003601f168201915b50505050509080600201805461111390614477565b80601f016020809104026020016040519081016040528092919081815260200182805461113f90614477565b801561118c5780601f106111615761010080835404028352916020019161118c565b820191906000526020600020905b81548152906001019060200180831161116f57829003601f168201915b5050505050908060030180546111a190614477565b80601f01602080910402602001604051908101604052809291908181526020018280546111cd90614477565b801561121a5780601f106111ef5761010080835404028352916020019161121a565b820191906000526020600020905b8154815290600101906020018083116111fd57829003601f168201915b5050505050905084565b61122d8161329f565b6000908152600b6020526040812060010155565b6014546001600160a01b031661126a57604051633390ca8960e21b815260040160405180910390fd5b611272611866565b6000601060008154611283906144c7565b9182905550905061129433826133a6565b604051638a54c52f60e01b81527355266d75d1a14e4572138116af39863ed6596e7f600482015260006024820181905262014a34604483015230606483015260848201839052906f6551c19487814612e58fe0681377575890638a54c52f9060a4016020604051808303816000875af1158015611315573d6000803e3d6000fd5b505050506040513d601f19601f8201168201806040525081019061133991906144e0565b6000838152601360205260409081902080546001600160a01b0319166001600160a01b038416908117909155905163189acdbd60e31b81527341c8f39463a868d3a88af00cd0fe7102f30e44ec60048201529192509063c4d66de890602401600060405180830381600087803b1580156113b257600080fd5b505af11580156113c6573d6000803e3d6000fd5b5050601454604051637458922960e11b81526001600160a01b03858116600483015260009450909116915063e8b12452906024016000604051808303816000875af1158015611419573d6000803e3d6000fd5b505050506040513d6000823e601f3d908101601f1916820160405261144191908101906144fd565b6000848152600b60205260408120600d5460078201805461ffff8916600a850181905563ffffffff90931665ffffffffffff199091161764010000000090920291909117905582519293509183919061149c5761149c6145a2565b60200260200101518160040181905550816001815181106114bf576114bf6145a2565b60200260200101518160050181905550816002815181106114e2576114e26145a2565b6020026020010151816006018190555081600381518110611505576115056145a2565b6020026020010151816001018190555081600481518110611528576115286145a2565b6020908102919091018101516003830155600c8201805460ff191690556040805180820190915260068152650c110d914e5160d21b91810191909152600b8201906115739082614600565b506115aa6040518060400160405280601481526020017336b4b73a32b2103137b23c903a37b5b2b724b21d60611b815250856134f4565b50505050565b6000818152601360205260408120546060916001600160a01b03909116906115d782612625565b905060006040518060400160405280601b81526020017f3c7376672076696577426f783d223020302031353020313530223e000000000081525090506000604051806040016040528060068152602001651e17b9bb339f60d11b815250905060606000600f60009054906101000a90046001600160a01b03166001600160a01b0316635c1ef2566040518163ffffffff1660e01b8152600401600060405180830381865afa15801561168d573d6000803e3d6000fd5b505050506040513d6000823e601f3d908101601f191682016040526116b5919081019061470f565b905060006012548651106116cb576012546116ce565b85515b90506040518061054001604052806105058152602001614e496105059139826040516020016116fe929190614743565b604051602081830303815290604052925060005b818110156117e357600f5487516000916001600160a01b03169063c7791531908a9085908110611744576117446145a2565b60200260200101516040518263ffffffff1660e01b815260040161176a91815260200190565b600060405180830381865afa158015611787573d6000803e3d6000fd5b505050506040513d6000823e601f3d908101601f191682016040526117af919081019061470f565b9050848782886040516020016117c8949392919061479a565b60408051601f19818403018152919052945050600101611712565b50826040516020016117f591906147f1565b60408051601f198184030181529190529998505050505050505050565b61181a613539565b601680546001600160a01b0319166001600160a01b0392909216919091179055565b61184682826130de565b61185181600261319d565b6000918252600b602052604090912060020155565b600d546000908152600c602052604090208054600160c01b900460ff1615806118be57508054600160c81b900460ff161580156118be57506118aa61010043614819565b8154600160801b90046001600160401b0316105b15611909576118ce43603261482c565b815460ff60c01b196001600160401b0392909216600160801b029190911668ffffffffffffffffff60801b1990911617600160c01b17815550565b8054600160801b90046001600160401b0316431115611a3f57805460408051600160801b9092046001600160401b031640602083015244908201526001600160801b03906060016040516020818303038152906040528051906020012060001c6119739190614855565b8154600160c81b6001600160801b039290921679ff000000000000000000ffffffffffffffffffffffffffffffff199091161717808255600d54604051600160801b9092046001600160401b0316917f78611aecfda8d341359c248df527c95aef93d446c92bb928b2a81b7abcb1d8d990600090a3604080516000815260001960208201527f6bd5c950a8d8df17f772f5af37cb3655737899cbf903264b9795592da439661c910160405180910390a1600d8054600090611a33906144c7565b90915550611a3f611866565b50565b611a4c3382613554565b611a685760405162461bcd60e51b8152600401610fbd90614869565b61105e8383836135d3565b60006202a3006001600160401b03164201905063389a75e1600c5233600052806020600c2055337fdbf36a107da19e49527a7176a1babf963b4b0ff8cde35ee35d6cd8f1f9ac7e1d600080a250565b611acb8161329f565b6000908152600b6020526040812060030155565b6000611aea83612241565b8210611b4c5760405162461bcd60e51b815260206004820152602b60248201527f455243373231456e756d657261626c653a206f776e657220696e646578206f7560448201526a74206f6620626f756e647360a81b6064820152608401610fbd565b506001600160a01b03919091166000908152600660209081526040808320938352929052205490565b611b7e8161329f565b6000908152600b60205260408120818155600181018290556002810182905560038101829055600481018290556005810182905560060155565b611bc0613539565b601255565b611bce8161329f565b6000908152600b6020526040812060020155565b61105e83838360405180602001604052806000815250612982565b60606000611c0a83612241565b90506000816001600160401b03811115611c2657611c26613e9d565b604051908082528060200260200182016040528015611c4f578160200160208202803683370190505b50905060005b82811015611c8c57611c678582611adf565b828281518110611c7957611c796145a2565b6020908102919091010152600101611c55565b509392505050565b6060806060836101400151611cf2576040518060a0016040528060658152602001614de46065913960405180602001604052806000815250604051806040016040528060028152602001617b7d60f01b815250925092509250611e77565b611d008461012001516124bb565b600e60008661012001518152602001908152602001600020600301611de460405180604001604052806004815260200163426f647960e01b815250600e600089610120015181526020019081526020016000206001018054611d6190614477565b80601f0160208091040260200160405190810160405280929190818152602001828054611d8d90614477565b8015611dda5780601f10611daf57610100808354040283529160200191611dda565b820191906000526020600020905b815481529060010190602001808311611dbd57829003601f168201915b505050505061377a565b818054611df090614477565b80601f0160208091040260200160405190810160405280929190818152602001828054611e1c90614477565b8015611e695780601f10611e3e57610100808354040283529160200191611e69565b820191906000526020600020905b815481529060010190602001808311611e4c57829003601f168201915b505050505091509250925092505b9193909250565b8615611e8e57611e8e8888612fc1565b8515611e9e57611e9e88876125ec565b8415611eae57611eae888661183c565b8315611ebe57611ebe8885610e49565b8215611ece57611ece88846127c2565b8115611ede57611ede8883612038565b8015611eee57611eee888261208c565b5050505050505050565b611f00613539565b601580546001600160a01b0319166001600160a01b0392909216919091179055565b6000611f2d60085490565b8210611f905760405162461bcd60e51b815260206004820152602c60248201527f455243373231456e756d657261626c653a20676c6f62616c20696e646578206f60448201526b7574206f6620626f756e647360a01b6064820152608401610fbd565b60088281548110611fa357611fa36145a2565b90600052602060002001549050919050565b63389a75e1600c523360005260006020600c2055337ffa7b8eab7da67f412cc9575ed43464468f9bfbae89d1675917346ca6d8fe3c92600080a2565b611ffa8161329f565b6000908152600b6020526040812060060155565b612016613539565b601480546001600160a01b0319166001600160a01b0392909216919091179055565b61204282826130de565b61204d81600561319d565b6000918252600b602052604090912060050155565b61206a613539565b600f80546001600160a01b0319166001600160a01b0392909216919091179055565b61209682826130de565b6120a181600661319d565b6000918252600b602052604090912060060155565b6000818152601360205260409081902054600f5491516340d097c360e01b81526001600160a01b03918216600482018190529291909116906340d097c3906024016020604051808303816000875af1158015612116573d6000803e3d6000fd5b505050506040513d601f19601f8201168201806040525081019061105e91906148b7565b6000818152600260205260408120546001600160a01b031680610e435760405162461bcd60e51b8152602060048201526018602482015277115490cdcc8c4e881a5b9d985b1a59081d1bdad95b88125160421b6044820152606401610fbd565b6060808261014001516121e4576040518060a0016040528060658152602001614de460659139604051806040016040528060028152602001617b7d60f01b81525091509150915091565b6121f28361012001516124bb565b61223860405180604001604052806004815260200163426f647960e01b815250600e600087610120015181526020019081526020016000206001018054611d6190614477565b91509150915091565b60006001600160a01b0382166122ab5760405162461bcd60e51b815260206004820152602960248201527f4552433732313a2061646472657373207a65726f206973206e6f7420612076616044820152683634b21037bbb732b960b91b6064820152608401610fbd565b506001600160a01b031660009081526003602052604090205490565b6122cf613539565b6122d960006137a6565b565b60608060608060608060608060608060006122f58c6129b4565b905061230081611c94565b600f54604051630de6a96560e11b8152939d50919a5095506001600160a01b031690631bcd52ca90612336908490600401614263565b600060405180830381865afa158015612353573d6000803e3d6000fd5b505050506040513d6000823e601f3d908101601f1916820160405261237b91908101906148d0565b604051929b509098509550612396908590879060200161496e565b604051602081830303815290604052925087876040516020016123ba9291906149d3565b60408051601f19818403018152908290526101808301519097506123e2918190602001614a02565b60408051601f198184030181528282019091526060808352602083015292508161018001518160000181905250828160200181905250601660009054906101000a90046001600160a01b03166001600160a01b0316637149ebf68e8d888e8b8d886040518863ffffffff1660e01b81526004016124659796959493929190614aa7565b600060405180830381865afa158015612482573d6000803e3d6000fd5b505050506040513d6000823e601f3d908101601f191682016040526124aa919081019061470f565b9d9c50505050505050505050505050565b6000818152600e60205260408120600201805460609291612562916124df90614477565b80601f016020809104026020016040519081016040528092919081815260200182805461250b90614477565b80156125585780601f1061252d57610100808354040283529160200191612558565b820191906000526020600020905b81548152906001019060200180831161253b57829003601f168201915b5050505050612d0f565b6015546040516335b07b7960e11b81529192506001600160a01b031690636b60f6f290612593908490600401613d5d565b600060405180830381865afa1580156125b0573d6000803e3d6000fd5b505050506040513d6000823e601f3d908101601f191682016040526125d8919081019061470f565b9392505050565b6125e7613539565b601155565b6125f682826130de565b61260181600161319d565b6000918252600b602052604090912060010155565b606060018054610e9f90614477565b600f5460405162438b6360e81b81526001600160a01b03838116600483015260609260009291169063438b630090602401600060405180830381865afa158015612673573d6000803e3d6000fd5b505050506040513d6000823e601f3d908101601f191682016040526125d891908101906144fd565b600a5460ff16156122d95760005b60148110156126de576126ba611241565b6000818152600b60205260409020600c01805460ff191660011790556001016126a9565b5061270860016040518060400160405280600681526020016533333333333360d01b815250612cb2565b61273160036040518060400160405280600681526020016532376231343360d01b815250612cb2565b61275a60046040518060400160405280600681526020016519588c0d8e1960d21b815250612cb2565b6122d9600860405180604001604052806006815260200165118c90cccc0d60d21b815250612cb2565b60606000612790836129b4565b9050806101a001516127aa576127a583612809565b6125d8565b6125d8836122db565b6127be3383836137e4565b5050565b6127cc82826130de565b6127d781600461319d565b6000918252600b602052604090912060040155565b6127f58161329f565b6000908152600b6020526040812060040155565b6060806060806060806060600061281f896129b4565b905061282a8161219a565b600f5460405163506cbfe760e11b81529299509097506001600160a01b03169063a0d97fce9061285e908490600401614263565b600060405180830381865afa15801561287b573d6000803e3d6000fd5b505050506040513d6000823e601f3d908101601f191682016040526128a39190810190614b54565b90955093506128b1896115b0565b6101808201516040519194506128cb918190602001614a02565b60408051601f1981840301815290829052601554631f8ac0db60e21b83529093506001600160a01b031690637e2b036c90612916908c908b908b908b908b908b908b90600401614bad565b600060405180830381865afa158015612933573d6000803e3d6000fd5b505050506040513d6000823e601f3d908101601f1916820160405261295b919081019061470f565b9998505050505050505050565b6129718161329f565b6000908152600b6020526040812055565b61298c3383613554565b6129a85760405162461bcd60e51b8152600401610fbd90614869565b6115aa848484846138b2565b612a34604051806101c0016040528060008152602001600081526020016000815260200160008152602001600081526020016000815260200160008152602001600063ffffffff168152602001600061ffff1681526020016000815260200160001515815260200160008152602001606081526020016000151581525090565b6000828152600b6020818152604080842081516101c081018352815481526001820154938101939093526002810154918301919091526003810154606083015260048101546080830152600581015460a0830152600681015460c0830152600781015463ffffffff811660e0840152640100000000900461ffff166101008301526008810154610120830152600981015460ff161515610140830152600a810154610160830152918201805491929161018084019190612af390614477565b80601f0160208091040260200160405190810160405280929190818152602001828054612b1f90614477565b8015612b6c5780601f10612b4157610100808354040283529160200191612b6c565b820191906000526020600020905b815481529060010190602001808311612b4f57829003601f168201915b5050509183525050600c9182015460ff16151560209182015260e083015163ffffffff1660009081529181526040918290205461010084015192519394506001600160801b03908116939092612bf29285920160809290921b6fffffffffffffffffffffffffffffffff1916825260f01b6001600160f01b031916601082015260120190565b6040516020818303038152906040528051906020012060001c612c159190614855565b610160830152600a5460ff161515600114612c3c576000816001600160801b031611612c3f565b60015b1515610140830152610160820151612c5990600490614855565b612c6490600161482c565b6101208301525092915050565b6000818152600260205260409020546060906001600160a01b0316612ca957604051631a65aaab60e31b815260040160405180910390fd5b610e4382612783565b8051600614612cf35760405162461bcd60e51b815260206004820152600d60248201526c24b73b30b634b21031b7b637b960991b6044820152606401610fbd565b6000828152600b602081905260409091200161105e8282614600565b80516060908015801590612d2b5750612d29600582614855565b155b612d775760405162461bcd60e51b815260206004820152601960248201527f496e76616c696420626f6479206279746573206c656e677468000000000000006044820152606401610fbd565b604080516111948082526111c082019092526000916020820181803683370190505090506000612da8600584614c36565b905060005b81811015612fb7576000612dc2826005614c4a565b90506000878281518110612dd857612dd86145a2565b016020015160f81c9050600088612df084600161482c565b81518110612e0057612e006145a2565b016020015160f81c9050600060ff8316612e1b83601e614c4a565b612e25919061482c565b612e30906005614c4a565b9050898481518110612e4457612e446145a2565b602001015160f81c60f81b878281518110612e6157612e616145a2565b60200101906001600160f81b031916908160001a905350898460010181518110612e8d57612e8d6145a2565b602001015160f81c60f81b878260010181518110612ead57612ead6145a2565b60200101906001600160f81b031916908160001a905350898460020181518110612ed957612ed96145a2565b602001015160f81c60f81b878260020181518110612ef957612ef96145a2565b60200101906001600160f81b031916908160001a905350898460030181518110612f2557612f256145a2565b602001015160f81c60f81b878260030181518110612f4557612f456145a2565b60200101906001600160f81b031916908160001a905350898460040181518110612f7157612f716145a2565b602001015160f81c60f81b878260040181518110612f9157612f916145a2565b60200101906001600160f81b031916908160001a90535050505050806001019050612dad565b5090949350505050565b612fcb82826130de565b612fd681600061319d565b6000918252600b602052604090912055565b612ff0613539565b63389a75e1600c52806000526020600c20805442111561301857636f5e88186000526004601cfd5b60009055611a3f816137a6565b61302d613539565b6000848152600e6020526040902080541561305b576040516301f73a3f60e01b815260040160405180910390fd5b8481556001810161306c8582614600565b506002810161307b8482614600565b506003810161308a8382614600565b505050505050565b61309a613539565b8060601b6130b057637448fbae6000526004601cfd5b611a3f816137a6565b60006001600160e01b0319821663780e9d6360e01b1480610e435750610e43826138e5565b6130e78261329f565b60008281526013602052604080822054600f5491516331a9108f60e11b8152600481018590526001600160a01b0391821693929190911690636352211e90602401602060405180830381865afa158015613145573d6000803e3d6000fd5b505050506040513d601f19601f8201168201806040525081019061316991906144e0565b9050816001600160a01b0316816001600160a01b0316146115aa5760405163e6ca793160e01b815260040160405180910390fd5b600f5460405163e8a1268d60e01b8152600481018490526000916001600160a01b03169063e8a1268d90602401602060405180830381865afa1580156131e7573d6000803e3d6000fd5b505050506040513d601f19601f8201168201806040525081019061320b9190614c61565b905081600681111561321f5761321f614c82565b60405160200161323191815260200190565b6040516020818303038152906040528051906020012081600681111561325957613259614c82565b60405160200161326b91815260200190565b604051602081830303815290604052805190602001201461105e57604051633e54c6fb60e11b815260040160405180910390fd5b6132a88161213a565b6001600160a01b0316336001600160a01b031614611a3f576040516324adc17160e11b815260040160405180910390fd5b6000818152600260205260409020546001600160a01b0316611a3f5760405162461bcd60e51b8152602060048201526018602482015277115490cdcc8c4e881a5b9d985b1a59081d1bdad95b88125160421b6044820152606401610fbd565b600081815260046020526040902080546001600160a01b0319166001600160a01b038416908117909155819061336d8261213a565b6001600160a01b03167f8c5be1e5ebec7d5bd14f71427d1e84f3dd0314c0f7b2291e5b200ac8c7c3b92560405160405180910390a45050565b6001600160a01b0382166133fc5760405162461bcd60e51b815260206004820181905260248201527f4552433732313a206d696e7420746f20746865207a65726f20616464726573736044820152606401610fbd565b6000818152600260205260409020546001600160a01b0316156134615760405162461bcd60e51b815260206004820152601c60248201527f4552433732313a20746f6b656e20616c7265616479206d696e746564000000006044820152606401610fbd565b61346d60008383613935565b6001600160a01b038216600090815260036020526040812080546001929061349690849061482c565b909155505060008181526002602052604080822080546001600160a01b0319166001600160a01b03861690811790915590518392907fddf252ad1be2c89b69c2b068fc378daa952ba7f163c4a11628f55a4df523b3ef908290a45050565b6127be828260405160240161350a929190614c98565b60408051601f198184030181529190526020810180516001600160e01b03166309710a9d60e41b1790526139ed565b638b78c6d8195433146122d9576382b429006000526004601cfd5b6000806135608361213a565b9050806001600160a01b0316846001600160a01b031614806135a757506001600160a01b0380821660009081526005602090815260408083209388168352929052205460ff165b806135cb5750836001600160a01b03166135c084610f22565b6001600160a01b0316145b949350505050565b826001600160a01b03166135e68261213a565b6001600160a01b03161461364a5760405162461bcd60e51b815260206004820152602560248201527f4552433732313a207472616e736665722066726f6d20696e636f72726563742060448201526437bbb732b960d91b6064820152608401610fbd565b6001600160a01b0382166136ac5760405162461bcd60e51b8152602060048201526024808201527f4552433732313a207472616e7366657220746f20746865207a65726f206164646044820152637265737360e01b6064820152608401610fbd565b6136b7838383613935565b6136c2600082613338565b6001600160a01b03831660009081526003602052604081208054600192906136eb908490614819565b90915550506001600160a01b038216600090815260036020526040812080546001929061371990849061482c565b909155505060008181526002602052604080822080546001600160a01b0319166001600160a01b0386811691821790925591518493918716917fddf252ad1be2c89b69c2b068fc378daa952ba7f163c4a11628f55a4df523b3ef91a4505050565b6060828260405160200161378f929190614cba565b604051602081830303815290604052905092915050565b638b78c6d81980546001600160a01b039092169182907f8be0079c531659141344cd1fd0a4f28419497f9722a3daafe3b4186f6b6457e0600080a355565b816001600160a01b0316836001600160a01b0316036138455760405162461bcd60e51b815260206004820152601960248201527f4552433732313a20617070726f766520746f2063616c6c6572000000000000006044820152606401610fbd565b6001600160a01b03838116600081815260056020908152604080832094871680845294825291829020805460ff191686151590811790915591519182527f17307eab39ab6107e8899845ad3d59bd9653f200f220920489ca2b5937696c31910160405180910390a3505050565b6138bd8484846135d3565b6138c984848484613a0e565b6115aa5760405162461bcd60e51b8152600401610fbd90614d2b565b60006001600160e01b031982166380ac58cd60e01b148061391657506001600160e01b03198216635b5e139f60e01b145b80610e4357506301ffc9a760e01b6001600160e01b0319831614610e43565b6001600160a01b0383166139905761398b81600880546000838152600960205260408120829055600182018355919091527ff3f7a9fe364faab93b216da50a3214154f22a0a2b415b23a84c8169e8b636ee30155565b6139b3565b816001600160a01b0316836001600160a01b0316146139b3576139b38382613b0f565b6001600160a01b0382166139ca5761105e81613bac565b826001600160a01b0316826001600160a01b03161461105e5761105e8282613c5b565b80516a636f6e736f6c652e6c6f67602083016000808483855afa5050505050565b60006001600160a01b0384163b15613b0457604051630a85bd0160e11b81526001600160a01b0385169063150b7a0290613a52903390899088908890600401614d7d565b6020604051808303816000875af1925050508015613a8d575060408051601f3d908101601f19168201909252613a8a91810190614db0565b60015b613aea573d808015613abb576040519150601f19603f3d011682016040523d82523d6000602084013e613ac0565b606091505b508051600003613ae25760405162461bcd60e51b8152600401610fbd90614d2b565b805181602001fd5b6001600160e01b031916630a85bd0160e11b1490506135cb565b506001949350505050565b60006001613b1c84612241565b613b269190614819565b600083815260076020526040902054909150808214613b79576001600160a01b03841660009081526006602090815260408083208584528252808320548484528184208190558352600790915290208190555b5060009182526007602090815260408084208490556001600160a01b039094168352600681528383209183525290812055565b600854600090613bbe90600190614819565b60008381526009602052604081205460088054939450909284908110613be657613be66145a2565b906000526020600020015490508060088381548110613c0757613c076145a2565b6000918252602080832090910192909255828152600990915260408082208490558582528120556008805480613c3f57613c3f614dcd565b6001900381819060005260206000200160009055905550505050565b6000613c6683612241565b6001600160a01b039093166000908152600660209081526040808320868452825280832085905593825260079052919091209190915550565b6001600160e01b031981168114611a3f57600080fd5b600060208284031215613cc757600080fd5b81356125d881613c9f565b60008060408385031215613ce557600080fd5b50508035926020909101359150565b600060208284031215613d0657600080fd5b5035919050565b60005b83811015613d28578181015183820152602001613d10565b50506000910152565b60008151808452613d49816020860160208601613d0d565b601f01601f19169290920160200192915050565b6020815260006125d86020830184613d31565b6001600160a01b0381168114611a3f57600080fd5b60008060408385031215613d9857600080fd5b8235613da381613d70565b946020939093013593505050565b848152608060208201526000613dca6080830186613d31565b8281036040840152613ddc8186613d31565b90508281036060840152613df08185613d31565b979650505050505050565b600060208284031215613e0d57600080fd5b81356125d881613d70565b600080600060608486031215613e2d57600080fd5b8335613e3881613d70565b92506020840135613e4881613d70565b929592945050506040919091013590565b6020808252825182820181905260009190848201906040850190845b81811015613e9157835183529284019291840191600101613e75565b50909695505050505050565b634e487b7160e01b600052604160045260246000fd5b6040516101c081016001600160401b0381118282101715613ed657613ed6613e9d565b60405290565b604051601f8201601f191681016001600160401b0381118282101715613f0457613f04613e9d565b604052919050565b803563ffffffff81168114613f2057600080fd5b919050565b803561ffff81168114613f2057600080fd5b80358015158114613f2057600080fd5b60006001600160401b03821115613f6057613f60613e9d565b50601f01601f191660200190565b600082601f830112613f7f57600080fd5b8135613f92613f8d82613f47565b613edc565b818152846020838601011115613fa757600080fd5b816020850160208301376000918101602001919091529392505050565b600060208284031215613fd657600080fd5b81356001600160401b0380821115613fed57600080fd5b908301906101c0828603121561400257600080fd5b61400a613eb3565b823581526020830135602082015260408301356040820152606083013560608201526080830135608082015260a083013560a082015260c083013560c082015261405660e08401613f0c565b60e0820152610100614069818501613f25565b908201526101208381013590820152610140614086818501613f37565b90820152610160838101359082015261018080840135838111156140a957600080fd5b6140b588828701613f6e565b8284015250506101a091506140cb828401613f37565b91810191909152949350505050565b6060815260006140ed6060830186613d31565b82810360208401526140ff8186613d31565b905082810360408401526141138185613d31565b9695505050505050565b600080600080600080600080610100898b03121561413a57600080fd5b505086359860208801359850604088013597606081013597506080810135965060a0810135955060c0810135945060e0013592509050565b6040815260006141856040830185613d31565b82810360208401526141978185613d31565b95945050505050565b600080604083850312156141b357600080fd5b82356141be81613d70565b91506141cc60208401613f37565b90509250929050565b600080604083850312156141e857600080fd5b823591506141cc60208401613f37565b6000806000806080858703121561420e57600080fd5b843561421981613d70565b9350602085013561422981613d70565b92506040850135915060608501356001600160401b0381111561424b57600080fd5b61425787828801613f6e565b91505092959194509250565b6020815281516020820152602082015160408201526040820151606082015260608201516080820152608082015160a082015260a082015160c082015260c082015160e0820152600060e08301516101006142c58185018363ffffffff169052565b84015190506101206142dc8482018361ffff169052565b8401516101408481019190915284015190506101606142fe8185018315159052565b840151610180848101919091528401516101c06101a08086018290529192509061432c6101e0860184613d31565b9086015180151583870152909250612fb7565b6000806040838503121561435257600080fd5b8235915060208301356001600160401b0381111561436f57600080fd5b61437b85828601613f6e565b9150509250929050565b60006020828403121561439757600080fd5b81356001600160401b038111156143ad57600080fd5b6135cb84828501613f6e565b600080604083850312156143cc57600080fd5b82356143d781613d70565b915060208301356143e781613d70565b809150509250929050565b6000806000806080858703121561440857600080fd5b8435935060208501356001600160401b038082111561442657600080fd5b61443288838901613f6e565b9450604087013591508082111561444857600080fd5b61445488838901613f6e565b9350606087013591508082111561446a57600080fd5b5061425787828801613f6e565b600181811c9082168061448b57607f821691505b6020821081036144ab57634e487b7160e01b600052602260045260246000fd5b50919050565b634e487b7160e01b600052601160045260246000fd5b6000600182016144d9576144d96144b1565b5060010190565b6000602082840312156144f257600080fd5b81516125d881613d70565b6000602080838503121561451057600080fd5b82516001600160401b038082111561452757600080fd5b818501915085601f83011261453b57600080fd5b81518181111561454d5761454d613e9d565b8060051b915061455e848301613edc565b818152918301840191848101908884111561457857600080fd5b938501935b838510156145965784518252938501939085019061457d565b98975050505050505050565b634e487b7160e01b600052603260045260246000fd5b601f82111561105e576000816000526020600020601f850160051c810160208610156145e15750805b601f850160051c820191505b8181101561308a578281556001016145ed565b81516001600160401b0381111561461957614619613e9d565b61462d816146278454614477565b846145b8565b602080601f831160018114614662576000841561464a5750858301515b600019600386901b1c1916600185901b17855561308a565b600085815260208120601f198616915b8281101561469157888601518255948401946001909101908401614672565b50858210156146af5787850151600019600388901b60f8161c191681555b5050505050600190811b01905550565b60006146cd613f8d84613f47565b90508281528383830111156146e157600080fd5b6125d8836020830184613d0d565b600082601f83011261470057600080fd5b6125d8838351602085016146bf565b60006020828403121561472157600080fd5b81516001600160401b0381111561473757600080fd5b6135cb848285016146ef565b60008351614755818460208801613d0d565b835190830190614769818360208801613d0d565b7f3c672069643d226261636b7061636b547261697473223e0000000000000000009101908152601701949350505050565b600085516147ac818460208a01613d0d565b8551908301906147c0818360208a01613d0d565b85519101906147d3818360208901613d0d565b84519101906147e6818360208801613d0d565b019695505050505050565b60008251614803818460208701613d0d565b631e17b39f60e11b920191825250600401919050565b81810381811115610e4357610e436144b1565b80820180821115610e4357610e436144b1565b634e487b7160e01b600052601260045260246000fd5b6000826148645761486461483f565b500690565b6020808252602e908201527f4552433732313a2063616c6c6572206973206e6f7420746f6b656e206f776e6560408201526d1c881b9bdc88185c1c1c9bdd995960921b606082015260800190565b6000602082840312156148c957600080fd5b5051919050565b6000806000606084860312156148e557600080fd5b83516001600160401b03808211156148fc57600080fd5b614908878388016146ef565b9450602086015191508082111561491e57600080fd5b818601915086601f83011261493257600080fd5b614941878351602085016146bf565b9350604086015191508082111561495757600080fd5b50614964868287016146ef565b9150509250925092565b6d2261747472696275746573223a5b60901b8152825160009061499881600e850160208801613d0d565b600b60fa1b600e9184019182015283516149b981600f840160208801613d0d565b605d60f81b600f9290910191820152601001949350505050565b600083516149e5818460208801613d0d565b8351908301906149f9818360208801613d0d565b01949350505050565b661e39ba3cb6329f60c91b81527f626f64792c207376677b206261636b67726f756e643a20230000000000000000600782015260008351614a4a81601f850160208801613d0d565b6f3b207d2e6267207b2066696c6c3a202360801b601f918401918201528351614a7a81602f840160208801613d0d565b623b207d60e81b602f9290910191820152671e17b9ba3cb6329f60c11b6032820152603a01949350505050565b87815260e060208201526000614ac060e0830189613d31565b8281036040840152614ad28189613d31565b90508281036060840152614ae68188613d31565b90508281036080840152614afa8187613d31565b905082810360a0840152614b0e8186613d31565b905082810360c0840152835160408252614b2b6040830182613d31565b905060208501518282036020840152614b448282613d31565b9c9b505050505050505050505050565b60008060408385031215614b6757600080fd5b82516001600160401b0380821115614b7e57600080fd5b614b8a868387016146ef565b93506020850151915080821115614ba057600080fd5b5061437b858286016146ef565b87815260e060208201526000614bc660e0830189613d31565b8281036040840152614bd88189613d31565b90508281036060840152614bec8188613d31565b90508281036080840152614c008187613d31565b905082810360a0840152614c148186613d31565b905082810360c0840152614c288185613d31565b9a9950505050505050505050565b600082614c4557614c4561483f565b500490565b8082028115828204841417610e4357610e436144b1565b600060208284031215614c7357600080fd5b8151600781106125d857600080fd5b634e487b7160e01b600052602160045260246000fd5b604081526000614cab6040830185613d31565b90508260208301529392505050565b6e3d913a3930b4ba2fba3cb832911d1160891b81528251600090614ce581600f850160208801613d0d565b6a1116113b30b63ab2911d1160a91b600f918401918201528351614d1081601a840160208801613d0d565b61227d60f01b601a9290910191820152601c01949350505050565b60208082526032908201527f4552433732313a207472616e7366657220746f206e6f6e20455243373231526560408201527131b2b4bb32b91034b6b83632b6b2b73a32b960711b606082015260800190565b6001600160a01b038581168252841660208201526040810183905260806060820181905260009061411390830184613d31565b600060208284031215614dc257600080fd5b81516125d881613c9f565b634e487b7160e01b600052603160045260246000fdfe3c7376673e3c7465787420783d22382220793d22313522207374796c653d22666f6e743a206e6f726d616c203270782073616e732d73657269663b2066696c6c3a20626c61636b3b223e436f6d696e6720536f6f6e2e2e2e3c2f746578743e3c2f7376673e3c672069643d22416c6c20547261697473223e3c672069643d226261636b7061636b2220636c6173733d22636c6f736564223e3c7061746820643d224d302030204c33302030204c3330203330204c30203330205a222066696c6c3d227267622831322c203130392c203135372922202f3e3c7376672069643d226261636b7061636b5549222076696577426f783d223020302031323020313230223e203c7374796c653e2e75697b77696474683a3170783b206865696768743a203170783b2066696c6c3a77686974657d3c2f7374796c653e203c672069643d22636c6f736542746e22207472616e73666f726d3d227472616e736c61746528322c3229223e203c7265637420783d22312220793d22312220636c6173733d227569223e3c2f726563743e203c7265637420783d22322220793d22322220636c6173733d227569223e3c2f726563743e203c7265637420783d22332220793d22332220636c6173733d227569223e3c2f726563743e203c7265637420783d22342220793d22342220636c6173733d227569223e3c2f726563743e203c7265637420783d22352220793d22352220636c6173733d227569223e3c2f726563743e203c7265637420783d22352220793d22312220636c6173733d227569223e3c2f726563743e203c7265637420783d22342220793d22322220636c6173733d227569223e3c2f726563743e203c212d2d203c7265637420783d22332220793d2233222077696474683d223122206865696768743d2231222066696c6c3d227768697465223e3c2f726563743e202d2d3e203c7265637420783d22322220793d22342220636c6173733d227569223e3c2f726563743e203c7265637420783d22312220793d22352220636c6173733d227569223e3c2f726563743e203c2f673e203c672069643d226c65667442746e2220636c6173733d22627574746f6e22207472616e73666f726d3d227472616e736c6174652834352c31313029223e203c7061746820643d224d302030204c362030204c362036204c302036205a222066696c6c3d227472616e73706172656e7422202f3e203c7265637420783d22322220793d22302220636c6173733d227569223e3c2f726563743e203c7265637420783d22312220793d22312220636c6173733d227569223e3c2f726563743e203c7265637420783d22302220793d22322220636c6173733d227569223e3c2f726563743e203c7265637420783d22312220793d22332220636c6173733d227569223e3c2f726563743e203c7265637420783d22322220793d22342220636c6173733d227569223e3c2f726563743e203c2f673e203c672069643d22726967687442746e2220636c6173733d22627574746f6e22207472616e73666f726d3d227472616e736c6174652836352c31313029223e203c7061746820643d224d302030204c362030204c362036204c302036205a222066696c6c3d227472616e73706172656e7422202f3e203c7265637420783d22332220793d22302220636c6173733d227569223e3c2f726563743e203c7265637420783d22342220793d22312220636c6173733d227569223e3c2f726563743e203c7265637420783d22352220793d22322220636c6173733d227569223e3c2f726563743e203c7265637420783d22342220793d22332220636c6173733d227569223e3c2f726563743e203c7265637420783d22332220793d22342220636c6173733d227569223e3c2f726563743e203c2f673e203c2f7376673e20a2646970667358221220d1cd50f768910018b5971e462b7251871fc3885ba86050cd1eeed64fc80e5c6164736f6c63430008160033","linkReferences":{}},"methodIdentifiers":{"MAX_TRAITS_TO_OUTPUT()":"20e0b93c","_debugPostConstructorMint()":"9c7be2f1","addNewBody(uint256,string,bytes,bytes)":"f2361e23","approve(address,uint256)":"095ea7b3","balanceOf(address)":"70a08231","bodyIndexToMetadata(uint256)":"0c83f9d7","buyTrait(uint256)":"6273ca2c","cancelOwnershipHandover()":"54d1f13d","completeOwnershipHandover(address)":"f04e283e","equipAccessory(uint256,uint256)":"0447a45e","equipAll(uint256,uint256,uint256,uint256,uint256,uint256,uint256,uint256)":"4a4333a3","equipGlasses(uint256,uint256)":"21468d02","equipHair(uint256,uint256)":"94cbd9c4","equipHat(uint256,uint256)":"e5a68261","equipPants(uint256,uint256)":"5a5474dd","equipShirt(uint256,uint256)":"a860c96c","equipShoes(uint256,uint256)":"60b77b23","firstSeasonRenderMinter()":"13ea0ae3","getApproved(uint256)":"081812fc","getBackpackSVGs(uint256)":"14fe8ff4","getBodyImage(bytes)":"e37db3c2","getBodyImageSvg(uint256)":"916c546b","getBodySVGZmapsAndMetadata((uint256,uint256,uint256,uint256,uint256,uint256,uint256,uint32,uint16,uint256,bool,uint256,string,bool))":"45d2d7bd","getBodySvgAndMetadata((uint256,uint256,uint256,uint256,uint256,uint256,uint256,uint32,uint16,uint256,bool,uint256,string,bool))":"661ee23a","getEpoch()":"757991a8","getEpochData(uint256)":"859e7d32","getPeter(uint256)":"be928ff6","getTraitTokens(address)":"998cfb6e","isApprovedForAll(address,address)":"e985e9c5","mainRenderer()":"66b89b5a","mint()":"1249c58b","name()":"06fdde03","owner()":"8da5cb5b","ownerOf(uint256)":"6352211e","ownershipHandoverExpiresAt(address)":"fee81cf4","price()":"a035b1fe","renderAsDataUri(uint256)":"a1d62680","renderAsDataUriSVG(uint256)":"b28fbe40","renderAsDataUriZ(uint256)":"7557f2dc","renounceOwnership()":"715018a6","requestOwnershipHandover()":"25692962","resolveEpochIfNecessary()":"239ffa68","safeTransferFrom(address,address,uint256)":"42842e0e","safeTransferFrom(address,address,uint256,bytes)":"b88d4fde","setApprovalForAll(address,bool)":"a22cb465","setBackgroundColor(uint256,string)":"d68c4f32","setFirstSeasonRenderMinter(address)":"58a97640","setMainRenderer(address)":"4ddb3961","setMaxTraitsToOutput(uint256)":"33d3d9bf","setPrice(uint256)":"91b7f5ed","setRenderZ(uint256,bool)":"b53d1fd7","setTraitsContract(address)":"5eabd84a","setZRenderer(address)":"172b054d","supportsInterface(bytes4)":"01ffc9a7","symbol()":"95d89b41","tokenByIndex(uint256)":"4f6ccce7","tokenIdToTBAAccountAddress(uint256)":"9c05d68d","tokenOfOwnerByIndex(address,uint256)":"2f745c59","tokenURI(uint256)":"c87b56dd","totalSupply()":"18160ddd","traitsContract()":"c093afdb","transferFrom(address,address,uint256)":"23b872dd","transferOwnership(address)":"f2fde38b","unequipAccessory(uint256)":"293ed3f7","unequipAll(uint256)":"3044825b","unequipGlasses(uint256)":"3fdc97fd","unequipHair(uint256)":"105338e0","unequipHat(uint256)":"b5282793","unequipPants(uint256)":"06e02a35","unequipShirt(uint256)":"a959bb1d","unequipShoes(uint256)":"58180d35","walletOfOwner(address)":"438b6300","zRenderer()":"a15c561b"},"id":37}