{"abi":[{"type":"constructor","inputs":[{"name":"localDeploy_","type":"bool","internalType":"bool"}],"stateMutability":"nonpayable"},{"type":"function","name":"MAX_TRAITS_TO_OUTPUT","inputs":[],"outputs":[{"name":"","type":"uint256","internalType":"uint256"}],"stateMutability":"view"},{"type":"function","name":"_debugPostConstructorMint","inputs":[],"outputs":[],"stateMutability":"nonpayable"},{"type":"function","name":"addNewBody","inputs":[{"name":"_bodyIndex","type":"uint256","internalType":"uint256"},{"name":"_bodyName","type":"string","internalType":"string"},{"name":"_colorMap","type":"bytes","internalType":"bytes"},{"name":"_zMap","type":"bytes","internalType":"bytes"}],"outputs":[],"stateMutability":"nonpayable"},{"type":"function","name":"approve","inputs":[{"name":"to","type":"address","internalType":"address"},{"name":"tokenId","type":"uint256","internalType":"uint256"}],"outputs":[],"stateMutability":"nonpayable"},{"type":"function","name":"balanceOf","inputs":[{"name":"owner","type":"address","internalType":"address"}],"outputs":[{"name":"","type":"uint256","internalType":"uint256"}],"stateMutability":"view"},{"type":"function","name":"bodyIndexToMetadata","inputs":[{"name":"","type":"uint256","internalType":"uint256"}],"outputs":[{"name":"bodyIndex","type":"uint256","internalType":"uint256"},{"name":"bodyName","type":"string","internalType":"string"},{"name":"colorMap","type":"bytes","internalType":"bytes"},{"name":"zMap","type":"bytes","internalType":"bytes"}],"stateMutability":"view"},{"type":"function","name":"buyTrait","inputs":[{"name":"_tokenId","type":"uint256","internalType":"uint256"}],"outputs":[],"stateMutability":"nonpayable"},{"type":"function","name":"cancelOwnershipHandover","inputs":[],"outputs":[],"stateMutability":"payable"},{"type":"function","name":"completeOwnershipHandover","inputs":[{"name":"pendingOwner","type":"address","internalType":"address"}],"outputs":[],"stateMutability":"payable"},{"type":"function","name":"equipAccessory","inputs":[{"name":"_peterTokenId","type":"uint256","internalType":"uint256"},{"name":"_traitTokenId","type":"uint256","internalType":"uint256"}],"outputs":[],"stateMutability":"nonpayable"},{"type":"function","name":"equipAll","inputs":[{"name":"_peterTokenId","type":"uint256","internalType":"uint256"},{"name":"_hatTokenId","type":"uint256","internalType":"uint256"},{"name":"_hairTokenId","type":"uint256","internalType":"uint256"},{"name":"_faceTokenId","type":"uint256","internalType":"uint256"},{"name":"_accessoryTokenId","type":"uint256","internalType":"uint256"},{"name":"_topTokenId","type":"uint256","internalType":"uint256"},{"name":"_bottomTokenId","type":"uint256","internalType":"uint256"},{"name":"_shoesTokenId","type":"uint256","internalType":"uint256"}],"outputs":[],"stateMutability":"nonpayable"},{"type":"function","name":"equipBottom","inputs":[{"name":"_peterTokenId","type":"uint256","internalType":"uint256"},{"name":"_traitTokenId","type":"uint256","internalType":"uint256"}],"outputs":[],"stateMutability":"nonpayable"},{"type":"function","name":"equipFace","inputs":[{"name":"_peterTokenId","type":"uint256","internalType":"uint256"},{"name":"_traitTokenId","type":"uint256","internalType":"uint256"}],"outputs":[],"stateMutability":"nonpayable"},{"type":"function","name":"equipHair","inputs":[{"name":"_peterTokenId","type":"uint256","internalType":"uint256"},{"name":"_traitTokenId","type":"uint256","internalType":"uint256"}],"outputs":[],"stateMutability":"nonpayable"},{"type":"function","name":"equipHat","inputs":[{"name":"_peterTokenId","type":"uint256","internalType":"uint256"},{"name":"_traitTokenId","type":"uint256","internalType":"uint256"}],"outputs":[],"stateMutability":"nonpayable"},{"type":"function","name":"equipShoes","inputs":[{"name":"_peterTokenId","type":"uint256","internalType":"uint256"},{"name":"_traitTokenId","type":"uint256","internalType":"uint256"}],"outputs":[],"stateMutability":"nonpayable"},{"type":"function","name":"equipTop","inputs":[{"name":"_peterTokenId","type":"uint256","internalType":"uint256"},{"name":"_traitTokenId","type":"uint256","internalType":"uint256"}],"outputs":[],"stateMutability":"nonpayable"},{"type":"function","name":"firstSeasonRenderMinter","inputs":[],"outputs":[{"name":"","type":"address","internalType":"contract FirstSeasonRenderMinter"}],"stateMutability":"view"},{"type":"function","name":"getApproved","inputs":[{"name":"tokenId","type":"uint256","internalType":"uint256"}],"outputs":[{"name":"","type":"address","internalType":"address"}],"stateMutability":"view"},{"type":"function","name":"getBackpackSVGs","inputs":[{"name":"_tokenId","type":"uint256","internalType":"uint256"}],"outputs":[{"name":"backpackSVGs","type":"string","internalType":"string"}],"stateMutability":"view"},{"type":"function","name":"getBodyImage","inputs":[{"name":"colorMap","type":"bytes","internalType":"bytes"}],"outputs":[{"name":"","type":"bytes","internalType":"bytes"}],"stateMutability":"pure"},{"type":"function","name":"getBodyImageSvg","inputs":[{"name":"_index","type":"uint256","internalType":"uint256"}],"outputs":[{"name":"svg","type":"string","internalType":"string"}],"stateMutability":"view"},{"type":"function","name":"getBodySVGZmapsAndMetadata","inputs":[{"name":"storedPeter","type":"tuple","internalType":"struct IPeterStorage.StoredPeter","components":[{"name":"hatId","type":"uint256","internalType":"uint256"},{"name":"hairId","type":"uint256","internalType":"uint256"},{"name":"faceId","type":"uint256","internalType":"uint256"},{"name":"accessoryId","type":"uint256","internalType":"uint256"},{"name":"topId","type":"uint256","internalType":"uint256"},{"name":"bottomId","type":"uint256","internalType":"uint256"},{"name":"shoesId","type":"uint256","internalType":"uint256"},{"name":"epoch","type":"uint32","internalType":"uint32"},{"name":"tokenId","type":"uint16","internalType":"uint16"},{"name":"bodyIndex","type":"uint256","internalType":"uint256"},{"name":"isRevealed","type":"bool","internalType":"bool"},{"name":"seed","type":"uint256","internalType":"uint256"},{"name":"backgroundColor","type":"string","internalType":"string"},{"name":"renderZ","type":"bool","internalType":"bool"}]}],"outputs":[{"name":"","type":"string","internalType":"string"},{"name":"","type":"bytes","internalType":"bytes"},{"name":"","type":"string","internalType":"string"}],"stateMutability":"view"},{"type":"function","name":"getBodySvgAndMetadata","inputs":[{"name":"storedPeter","type":"tuple","internalType":"struct IPeterStorage.StoredPeter","components":[{"name":"hatId","type":"uint256","internalType":"uint256"},{"name":"hairId","type":"uint256","internalType":"uint256"},{"name":"faceId","type":"uint256","internalType":"uint256"},{"name":"accessoryId","type":"uint256","internalType":"uint256"},{"name":"topId","type":"uint256","internalType":"uint256"},{"name":"bottomId","type":"uint256","internalType":"uint256"},{"name":"shoesId","type":"uint256","internalType":"uint256"},{"name":"epoch","type":"uint32","internalType":"uint32"},{"name":"tokenId","type":"uint16","internalType":"uint16"},{"name":"bodyIndex","type":"uint256","internalType":"uint256"},{"name":"isRevealed","type":"bool","internalType":"bool"},{"name":"seed","type":"uint256","internalType":"uint256"},{"name":"backgroundColor","type":"string","internalType":"string"},{"name":"renderZ","type":"bool","internalType":"bool"}]}],"outputs":[{"name":"","type":"string","internalType":"string"},{"name":"","type":"string","internalType":"string"}],"stateMutability":"view"},{"type":"function","name":"getBodyZMap","inputs":[{"name":"_tokenId","type":"uint256","internalType":"uint256"}],"outputs":[{"name":"","type":"string","internalType":"string"}],"stateMutability":"view"},{"type":"function","name":"getEpoch","inputs":[],"outputs":[{"name":"","type":"uint256","internalType":"uint256"}],"stateMutability":"view"},{"type":"function","name":"getEpochData","inputs":[{"name":"index","type":"uint256","internalType":"uint256"}],"outputs":[{"name":"","type":"tuple","internalType":"struct CommitReveal.Epoch","components":[{"name":"randomness","type":"uint128","internalType":"uint128"},{"name":"revealBlock","type":"uint64","internalType":"uint64"},{"name":"committed","type":"bool","internalType":"bool"},{"name":"revealed","type":"bool","internalType":"bool"}]}],"stateMutability":"view"},{"type":"function","name":"getOwnerAndTBAAddressForTokenId","inputs":[{"name":"_tokenId","type":"uint256","internalType":"uint256"}],"outputs":[{"name":"owner","type":"address","internalType":"address"},{"name":"tbaAddress","type":"address","internalType":"address"}],"stateMutability":"view"},{"type":"function","name":"getPeter","inputs":[{"name":"_tokenId","type":"uint256","internalType":"uint256"}],"outputs":[{"name":"","type":"tuple","internalType":"struct IPeterStorage.StoredPeter","components":[{"name":"hatId","type":"uint256","internalType":"uint256"},{"name":"hairId","type":"uint256","internalType":"uint256"},{"name":"faceId","type":"uint256","internalType":"uint256"},{"name":"accessoryId","type":"uint256","internalType":"uint256"},{"name":"topId","type":"uint256","internalType":"uint256"},{"name":"bottomId","type":"uint256","internalType":"uint256"},{"name":"shoesId","type":"uint256","internalType":"uint256"},{"name":"epoch","type":"uint32","internalType":"uint32"},{"name":"tokenId","type":"uint16","internalType":"uint16"},{"name":"bodyIndex","type":"uint256","internalType":"uint256"},{"name":"isRevealed","type":"bool","internalType":"bool"},{"name":"seed","type":"uint256","internalType":"uint256"},{"name":"backgroundColor","type":"string","internalType":"string"},{"name":"renderZ","type":"bool","internalType":"bool"}]}],"stateMutability":"view"},{"type":"function","name":"getPeterZMap","inputs":[{"name":"_tokenId","type":"uint256","internalType":"uint256"}],"outputs":[{"name":"","type":"string","internalType":"string"}],"stateMutability":"view"},{"type":"function","name":"getTBAAddressForTokenId","inputs":[{"name":"_tokenId","type":"uint256","internalType":"uint256"}],"outputs":[{"name":"","type":"address","internalType":"address"}],"stateMutability":"view"},{"type":"function","name":"getTokenRenderZ","inputs":[{"name":"_peterTokenId","type":"uint256","internalType":"uint256"}],"outputs":[{"name":"","type":"bool","internalType":"bool"}],"stateMutability":"view"},{"type":"function","name":"getTraitTokens","inputs":[{"name":"_tbaAddress","type":"address","internalType":"address"}],"outputs":[{"name":"","type":"uint256[]","internalType":"uint256[]"}],"stateMutability":"view"},{"type":"function","name":"getTraitsForTokenId","inputs":[{"name":"_tokenId","type":"uint256","internalType":"uint256"}],"outputs":[{"name":"traitTokens","type":"uint256[]","internalType":"uint256[]"}],"stateMutability":"view"},{"type":"function","name":"isApprovedForAll","inputs":[{"name":"owner","type":"address","internalType":"address"},{"name":"operator","type":"address","internalType":"address"}],"outputs":[{"name":"","type":"bool","internalType":"bool"}],"stateMutability":"view"},{"type":"function","name":"mainRenderer","inputs":[],"outputs":[{"name":"","type":"address","internalType":"contract MainRenderer"}],"stateMutability":"view"},{"type":"function","name":"mint","inputs":[],"outputs":[],"stateMutability":"payable"},{"type":"function","name":"name","inputs":[],"outputs":[{"name":"","type":"string","internalType":"string"}],"stateMutability":"view"},{"type":"function","name":"owner","inputs":[],"outputs":[{"name":"result","type":"address","internalType":"address"}],"stateMutability":"view"},{"type":"function","name":"ownerOf","inputs":[{"name":"tokenId","type":"uint256","internalType":"uint256"}],"outputs":[{"name":"","type":"address","internalType":"address"}],"stateMutability":"view"},{"type":"function","name":"ownershipHandoverExpiresAt","inputs":[{"name":"pendingOwner","type":"address","internalType":"address"}],"outputs":[{"name":"result","type":"uint256","internalType":"uint256"}],"stateMutability":"view"},{"type":"function","name":"price","inputs":[],"outputs":[{"name":"","type":"uint256","internalType":"uint256"}],"stateMutability":"view"},{"type":"function","name":"renderAsDataUri","inputs":[{"name":"_tokenId","type":"uint256","internalType":"uint256"}],"outputs":[{"name":"","type":"string","internalType":"string"}],"stateMutability":"view"},{"type":"function","name":"renderAsDataUriSVG","inputs":[{"name":"_tokenId","type":"uint256","internalType":"uint256"}],"outputs":[{"name":"","type":"string","internalType":"string"}],"stateMutability":"view"},{"type":"function","name":"renderAsDataUriZ","inputs":[{"name":"_tokenId","type":"uint256","internalType":"uint256"}],"outputs":[{"name":"","type":"string","internalType":"string"}],"stateMutability":"view"},{"type":"function","name":"renounceOwnership","inputs":[],"outputs":[],"stateMutability":"payable"},{"type":"function","name":"requestOwnershipHandover","inputs":[],"outputs":[],"stateMutability":"payable"},{"type":"function","name":"resolveEpochIfNecessary","inputs":[],"outputs":[],"stateMutability":"nonpayable"},{"type":"function","name":"safeTransferFrom","inputs":[{"name":"from","type":"address","internalType":"address"},{"name":"to","type":"address","internalType":"address"},{"name":"tokenId","type":"uint256","internalType":"uint256"}],"outputs":[],"stateMutability":"nonpayable"},{"type":"function","name":"safeTransferFrom","inputs":[{"name":"from","type":"address","internalType":"address"},{"name":"to","type":"address","internalType":"address"},{"name":"tokenId","type":"uint256","internalType":"uint256"},{"name":"data","type":"bytes","internalType":"bytes"}],"outputs":[],"stateMutability":"nonpayable"},{"type":"function","name":"setApprovalForAll","inputs":[{"name":"operator","type":"address","internalType":"address"},{"name":"approved","type":"bool","internalType":"bool"}],"outputs":[],"stateMutability":"nonpayable"},{"type":"function","name":"setBackgroundColor","inputs":[{"name":"_peterTokenId","type":"uint256","internalType":"uint256"},{"name":"_color","type":"string","internalType":"string"}],"outputs":[],"stateMutability":"nonpayable"},{"type":"function","name":"setBodyIndex","inputs":[{"name":"_peterTokenId","type":"uint256","internalType":"uint256"},{"name":"_bodyIndex","type":"uint256","internalType":"uint256"}],"outputs":[],"stateMutability":"nonpayable"},{"type":"function","name":"setFirstSeasonRenderMinter","inputs":[{"name":"_dataContract","type":"address","internalType":"address"}],"outputs":[],"stateMutability":"nonpayable"},{"type":"function","name":"setMainRenderer","inputs":[{"name":"_mainRenderer","type":"address","internalType":"address"}],"outputs":[],"stateMutability":"nonpayable"},{"type":"function","name":"setMaxTraitsToOutput","inputs":[{"name":"_maxTraitsToOutput","type":"uint256","internalType":"uint256"}],"outputs":[],"stateMutability":"nonpayable"},{"type":"function","name":"setPrice","inputs":[{"name":"_priceInWei","type":"uint256","internalType":"uint256"}],"outputs":[],"stateMutability":"nonpayable"},{"type":"function","name":"setTokenRenderZ","inputs":[{"name":"_peterTokenId","type":"uint256","internalType":"uint256"},{"name":"_renderZ","type":"bool","internalType":"bool"}],"outputs":[],"stateMutability":"nonpayable"},{"type":"function","name":"setTraitsContract","inputs":[{"name":"_address","type":"address","internalType":"contract PeterTraits"}],"outputs":[],"stateMutability":"nonpayable"},{"type":"function","name":"setZRenderer","inputs":[{"name":"_zRenderer","type":"address","internalType":"address"}],"outputs":[],"stateMutability":"nonpayable"},{"type":"function","name":"supportsInterface","inputs":[{"name":"interfaceId","type":"bytes4","internalType":"bytes4"}],"outputs":[{"name":"","type":"bool","internalType":"bool"}],"stateMutability":"view"},{"type":"function","name":"symbol","inputs":[],"outputs":[{"name":"","type":"string","internalType":"string"}],"stateMutability":"view"},{"type":"function","name":"tokenByIndex","inputs":[{"name":"index","type":"uint256","internalType":"uint256"}],"outputs":[{"name":"","type":"uint256","internalType":"uint256"}],"stateMutability":"view"},{"type":"function","name":"tokenIdToTBAAccountAddress","inputs":[{"name":"","type":"uint256","internalType":"uint256"}],"outputs":[{"name":"","type":"uint160","internalType":"uint160"}],"stateMutability":"view"},{"type":"function","name":"tokenOfOwnerByIndex","inputs":[{"name":"owner","type":"address","internalType":"address"},{"name":"index","type":"uint256","internalType":"uint256"}],"outputs":[{"name":"","type":"uint256","internalType":"uint256"}],"stateMutability":"view"},{"type":"function","name":"tokenURI","inputs":[{"name":"_tokenId","type":"uint256","internalType":"uint256"}],"outputs":[{"name":"","type":"string","internalType":"string"}],"stateMutability":"view"},{"type":"function","name":"totalSupply","inputs":[],"outputs":[{"name":"","type":"uint256","internalType":"uint256"}],"stateMutability":"view"},{"type":"function","name":"traitsContract","inputs":[],"outputs":[{"name":"","type":"address","internalType":"contract PeterTraits"}],"stateMutability":"view"},{"type":"function","name":"transferFrom","inputs":[{"name":"from","type":"address","internalType":"address"},{"name":"to","type":"address","internalType":"address"},{"name":"tokenId","type":"uint256","internalType":"uint256"}],"outputs":[],"stateMutability":"nonpayable"},{"type":"function","name":"transferOwnership","inputs":[{"name":"newOwner","type":"address","internalType":"address"}],"outputs":[],"stateMutability":"payable"},{"type":"function","name":"unequipAccessory","inputs":[{"name":"_peterTokenId","type":"uint256","internalType":"uint256"}],"outputs":[],"stateMutability":"nonpayable"},{"type":"function","name":"unequipAll","inputs":[{"name":"_peterTokenId","type":"uint256","internalType":"uint256"}],"outputs":[],"stateMutability":"nonpayable"},{"type":"function","name":"unequipBottom","inputs":[{"name":"_peterTokenId","type":"uint256","internalType":"uint256"}],"outputs":[],"stateMutability":"nonpayable"},{"type":"function","name":"unequipFace","inputs":[{"name":"_peterTokenId","type":"uint256","internalType":"uint256"}],"outputs":[],"stateMutability":"nonpayable"},{"type":"function","name":"unequipHair","inputs":[{"name":"_peterTokenId","type":"uint256","internalType":"uint256"}],"outputs":[],"stateMutability":"nonpayable"},{"type":"function","name":"unequipHat","inputs":[{"name":"_peterTokenId","type":"uint256","internalType":"uint256"}],"outputs":[],"stateMutability":"nonpayable"},{"type":"function","name":"unequipShoes","inputs":[{"name":"_peterTokenId","type":"uint256","internalType":"uint256"}],"outputs":[],"stateMutability":"nonpayable"},{"type":"function","name":"unequipTop","inputs":[{"name":"_peterTokenId","type":"uint256","internalType":"uint256"}],"outputs":[],"stateMutability":"nonpayable"},{"type":"function","name":"walletOfOwner","inputs":[{"name":"_owner","type":"address","internalType":"address"}],"outputs":[{"name":"","type":"uint256[]","internalType":"uint256[]"}],"stateMutability":"view"},{"type":"function","name":"zRenderer","inputs":[],"outputs":[{"name":"","type":"address","internalType":"contract ZRenderer"}],"stateMutability":"view"},{"type":"event","name":"Approval","inputs":[{"name":"owner","type":"address","indexed":true,"internalType":"address"},{"name":"approved","type":"address","indexed":true,"internalType":"address"},{"name":"tokenId","type":"uint256","indexed":true,"internalType":"uint256"}],"anonymous":false},{"type":"event","name":"ApprovalForAll","inputs":[{"name":"owner","type":"address","indexed":true,"internalType":"address"},{"name":"operator","type":"address","indexed":true,"internalType":"address"},{"name":"approved","type":"bool","indexed":false,"internalType":"bool"}],"anonymous":false},{"type":"event","name":"BatchMetadataUpdate","inputs":[{"name":"_fromTokenId","type":"uint256","indexed":false,"internalType":"uint256"},{"name":"_toTokenId","type":"uint256","indexed":false,"internalType":"uint256"}],"anonymous":false},{"type":"event","name":"Equip","inputs":[{"name":"owner","type":"address","indexed":true,"internalType":"address"},{"name":"tokenId","type":"uint256","indexed":true,"internalType":"uint256"},{"name":"traitTokenId","type":"uint256","indexed":true,"internalType":"uint256"},{"name":"traitCategory","type":"string","indexed":false,"internalType":"string"}],"anonymous":false},{"type":"event","name":"EquipAll","inputs":[{"name":"owner","type":"address","indexed":true,"internalType":"address"},{"name":"tokenId","type":"uint256","indexed":true,"internalType":"uint256"}],"anonymous":false},{"type":"event","name":"MetadataUpdate","inputs":[{"name":"_tokenId","type":"uint256","indexed":false,"internalType":"uint256"}],"anonymous":false},{"type":"event","name":"Mint","inputs":[{"name":"owner","type":"address","indexed":true,"internalType":"address"},{"name":"tokenId","type":"uint256","indexed":true,"internalType":"uint256"}],"anonymous":false},{"type":"event","name":"NewEpoch","inputs":[{"name":"epoch","type":"uint256","indexed":true,"internalType":"uint256"},{"name":"revealBlock","type":"uint64","indexed":true,"internalType":"uint64"}],"anonymous":false},{"type":"event","name":"OwnershipHandoverCanceled","inputs":[{"name":"pendingOwner","type":"address","indexed":true,"internalType":"address"}],"anonymous":false},{"type":"event","name":"OwnershipHandoverRequested","inputs":[{"name":"pendingOwner","type":"address","indexed":true,"internalType":"address"}],"anonymous":false},{"type":"event","name":"OwnershipTransferred","inputs":[{"name":"oldOwner","type":"address","indexed":true,"internalType":"address"},{"name":"newOwner","type":"address","indexed":true,"internalType":"address"}],"anonymous":false},{"type":"event","name":"Transfer","inputs":[{"name":"from","type":"address","indexed":true,"internalType":"address"},{"name":"to","type":"address","indexed":true,"internalType":"address"},{"name":"tokenId","type":"uint256","indexed":true,"internalType":"uint256"}],"anonymous":false},{"type":"event","name":"Unequip","inputs":[{"name":"owner","type":"address","indexed":true,"internalType":"address"},{"name":"tokenId","type":"uint256","indexed":true,"internalType":"uint256"},{"name":"traitCategory","type":"string","indexed":true,"internalType":"string"}],"anonymous":false},{"type":"event","name":"UnequipAll","inputs":[{"name":"owner","type":"address","indexed":true,"internalType":"address"},{"name":"tokenId","type":"uint256","indexed":true,"internalType":"uint256"}],"anonymous":false},{"type":"error","name":"AlreadyInitialized","inputs":[]},{"type":"error","name":"BodyAlreadyExists","inputs":[]},{"type":"error","name":"FirstSeasonRenderMinterNotSet","inputs":[]},{"type":"error","name":"IncorrectPeterOwner","inputs":[]},{"type":"error","name":"IncorrectTBAOwner","inputs":[]},{"type":"error","name":"IncorrectTraitType","inputs":[]},{"type":"error","name":"NewOwnerIsZeroAddress","inputs":[]},{"type":"error","name":"NoHandoverRequest","inputs":[]},{"type":"error","name":"PeterDoesntExist","inputs":[]},{"type":"error","name":"Unauthorized","inputs":[]}],"bytecode":{"object":"0x6080604052600060105560456012553480156200001b57600080fd5b5060405162005e0938038062005e098339810160408190526200003e9162000106565b6040518060400160405280600a81526020016914195d195c8815195cdd60b21b815250604051806040016040528060058152602001642822aa22a960d91b8152508160009081620000909190620001d8565b5060016200009f8282620001d8565b505050620000b333620000ca60201b60201c565b600a805460ff1916911515919091179055620002a4565b6001600160a01b0316638b78c6d8198190558060007f8be0079c531659141344cd1fd0a4f28419497f9722a3daafe3b4186f6b6457e08180a350565b6000602082840312156200011957600080fd5b815180151581146200012a57600080fd5b9392505050565b634e487b7160e01b600052604160045260246000fd5b600181811c908216806200015c57607f821691505b6020821081036200017d57634e487b7160e01b600052602260045260246000fd5b50919050565b601f821115620001d3576000816000526020600020601f850160051c81016020861015620001ae5750805b601f850160051c820191505b81811015620001cf57828155600101620001ba565b5050505b505050565b81516001600160401b03811115620001f457620001f462000131565b6200020c8162000205845462000147565b8462000183565b602080601f8311600181146200024457600084156200022b5750858301515b600019600386901b1c1916600185901b178555620001cf565b600085815260208120601f198616915b82811015620002755788860151825594840194600190910190840162000254565b5085821015620002945787850151600019600388901b60f8161c191681555b5050505050600190811b01905550565b615b5580620002b46000396000f3fe6080604052600436106104735760003560e01c8063661ee23a1161024a578063a15c561b11610139578063d5b55c8b116100b6578063f04e283e1161007a578063f04e283e14610f15578063f18dc22d14610f28578063f2361e2314610f48578063f2fde38b14610f68578063fee81cf414610f7b57600080fd5b8063d5b55c8b14610e4c578063d68c4f3214610e6c578063e37db3c214610e8c578063e5a6826114610eac578063e985e9c514610ecc57600080fd5b8063b88d4fde116100fd578063b88d4fde14610d7f578063be928ff614610d9f578063c093afdb14610dcc578063c87b56dd14610dec578063cc9a5d3714610e0c57600080fd5b8063a15c561b14610cdf578063a1d6268014610cff578063a22cb46514610d1f578063b28fbe4014610d3f578063b528279314610d5f57600080fd5b80638e29d3e9116101c7578063998cfb6e1161018b578063998cfb6e14610c3e5780639c05d68d14610c5e5780639c76201514610c945780639c7be2f114610cb4578063a035b1fe14610cc957600080fd5b80638e29d3e914610b93578063916c546b14610bc957806391b7f5ed14610be957806394cbd9c414610c0957806395d89b4114610c2957600080fd5b8063757991a81161020e578063757991a814610a2b5780638200ea5114610a40578063850ad51a14610a73578063859e7d3214610a935780638da5cb5b14610b7a57600080fd5b8063661ee23a1461099557806366b89b5a146109c357806370a08231146109e3578063715018a614610a035780637557f2dc14610a0b57600080fd5b80632f745c59116103665780634a4333a3116102e357806358a97640116102a757806358a97640146108f55780635eabd84a1461091557806360b77b23146109355780636273ca2c146109555780636352211e1461097557600080fd5b80634a4333a31461086d5780634ddb39611461088d5780634f6ccce7146108ad57806354d1f13d146108cd57806358180d35146108d557600080fd5b806342842e0e1161032a57806342842e0e146107b1578063438b6300146107d1578063457e7e61146107fe57806345a10d0f1461081e57806345d2d7bd1461083e57600080fd5b80632f745c59146107115780633044825b14610731578063306c73341461075157806333d3d9bf14610771578063347bd8f41461079157600080fd5b806313ea0ae3116103f4578063239ffa68116103b8578063239ffa681461069457806323b872dd146106a957806325692962146106c9578063293ed3f7146106d15780632bd1ca45146106f157600080fd5b806313ea0ae3146105ff57806314fe8ff41461061f578063172b054d1461063f57806318160ddd1461065f57806320e0b93c1461067e57600080fd5b8063095ea7b31161043b578063095ea7b3146105675780630c83f9d7146105875780630f162320146105b7578063105338e0146105d75780631249c58b146105f757600080fd5b806301ffc9a7146104785780630447a45e146104ad57806306fdde03146104cf57806307f4e045146104f1578063081812fc1461052f575b600080fd5b34801561048457600080fd5b5061049861049336600461455a565b610fae565b60405190151581526020015b60405180910390f35b3480156104b957600080fd5b506104cd6104c8366004614577565b610fbf565b005b3480156104db57600080fd5b506104e4611041565b6040516104a491906145e9565b3480156104fd57600080fd5b506104cd61050c366004614611565b6000918252600b6020526040909120600c01805460ff1916911515919091179055565b34801561053b57600080fd5b5061054f61054a36600461463d565b6110d3565b6040516001600160a01b0390911681526020016104a4565b34801561057357600080fd5b506104cd61058236600461466b565b6110fa565b34801561059357600080fd5b506105a76105a236600461463d565b611214565b6040516104a49493929190614697565b3480156105c357600080fd5b506104cd6105d2366004614577565b6113d5565b3480156105e357600080fd5b506104cd6105f236600461463d565b611446565b6104cd6114be565b34801561060b57600080fd5b5060145461054f906001600160a01b031681565b34801561062b57600080fd5b506104e461063a36600461463d565b611879565b34801561064b57600080fd5b506104cd61065a3660046146e1565b611ac0565b34801561066b57600080fd5b506008545b6040519081526020016104a4565b34801561068a57600080fd5b5061067060125481565b3480156106a057600080fd5b506104cd611aea565b3480156106b557600080fd5b506104cd6106c43660046146fe565b611cc6565b6104cd611cf7565b3480156106dd57600080fd5b506104cd6106ec36600461463d565b611d46565b3480156106fd57600080fd5b506104e461070c36600461463d565b611d7d565b34801561071d57600080fd5b5061067061072c36600461466b565b611e41565b34801561073d57600080fd5b506104cd61074c36600461463d565b611ed7565b34801561075d57600080fd5b506104e461076c36600461463d565b611f5f565b34801561077d57600080fd5b506104cd61078c36600461463d565b611f82565b34801561079d57600080fd5b506104cd6107ac36600461463d565b611f8f565b3480156107bd57600080fd5b506104cd6107cc3660046146fe565b611fc0565b3480156107dd57600080fd5b506107f16107ec3660046146e1565b611fdb565b6040516104a4919061473f565b34801561080a57600080fd5b506104cd610819366004614577565b612072565b34801561082a57600080fd5b506104cd610839366004614577565b6120d7565b34801561084a57600080fd5b5061085e610859366004614895565b61214a565b6040516104a4939291906149ab565b34801561087957600080fd5b506104cd6108883660046149ee565b612339565b34801561089957600080fd5b506104cd6108a83660046146e1565b6123f2565b3480156108b957600080fd5b506106706108c836600461463d565b61241c565b6104cd6124af565b3480156108e157600080fd5b506104cd6108f036600461463d565b6124eb565b34801561090157600080fd5b506104cd6109103660046146e1565b61251e565b34801561092157600080fd5b506104cd6109303660046146e1565b612548565b34801561094157600080fd5b506104cd610950366004614577565b612572565b34801561096157600080fd5b506104cd61097036600461463d565b6125e4565b34801561098157600080fd5b5061054f61099036600461463d565b612668565b3480156109a157600080fd5b506109b56109b0366004614895565b6126c8565b6040516104a4929190614a43565b3480156109cf57600080fd5b5060155461054f906001600160a01b031681565b3480156109ef57600080fd5b506106706109fe3660046146e1565b612774565b6104cd6127fa565b348015610a1757600080fd5b506104e4610a2636600461463d565b61280e565b348015610a3757600080fd5b50600d54610670565b348015610a4c57600080fd5b50610498610a5b36600461463d565b6000908152600b60205260409020600c015460ff1690565b348015610a7f57600080fd5b506107f1610a8e36600461463d565b612ae3565b348015610a9f57600080fd5b50610b31610aae36600461463d565b6040805160808082018352600080835260208084018290528385018290526060938401829052948152600c855283902083519182018452546001600160801b03811682526001600160401b03600160801b8204169482019490945260ff600160c01b85048116151593820193909352600160c81b90930490911615159082015290565b6040516104a4919081516001600160801b031681526020808301516001600160401b03169082015260408083015115159082015260609182015115159181019190915260800190565b348015610b8657600080fd5b50638b78c6d8195461054f565b348015610b9f57600080fd5b5061054f610bae36600461463d565b6000908152601360205260409020546001600160a01b031690565b348015610bd557600080fd5b506104e4610be436600461463d565b612b0e565b348015610bf557600080fd5b506104cd610c0436600461463d565b612c2b565b348015610c1557600080fd5b506104cd610c24366004614577565b612c38565b348015610c3557600080fd5b506104e4612ca9565b348015610c4a57600080fd5b506107f1610c593660046146e1565b612cb8565b348015610c6a57600080fd5b5061054f610c7936600461463d565b6013602052600090815260409020546001600160a01b031681565b348015610ca057600080fd5b506104cd610caf36600461463d565b612d2e565b348015610cc057600080fd5b506104cd612d62565b348015610cd557600080fd5b5061067060115481565b348015610ceb57600080fd5b5060165461054f906001600160a01b031681565b348015610d0b57600080fd5b506104e4610d1a36600461463d565b612e2e565b348015610d2b57600080fd5b506104cd610d3a366004614a71565b612e5e565b348015610d4b57600080fd5b506104e4610d5a36600461463d565b612e6d565b348015610d6b57600080fd5b506104cd610d7a36600461463d565b6130f1565b348015610d8b57600080fd5b506104cd610d9a366004614a9d565b61311f565b348015610dab57600080fd5b50610dbf610dba36600461463d565b613157565b6040516104a49190614b08565b348015610dd857600080fd5b50600f5461054f906001600160a01b031681565b348015610df857600080fd5b506104e4610e0736600461463d565b613414565b348015610e1857600080fd5b50610e2c610e2736600461463d565b613455565b604080516001600160a01b039384168152929091166020830152016104a4565b348015610e5857600080fd5b506104cd610e6736600461463d565b613484565b348015610e7857600080fd5b506104cd610e87366004614be4565b6134b6565b348015610e9857600080fd5b506104e4610ea7366004614c2a565b613513565b348015610eb857600080fd5b506104cd610ec7366004614577565b6137c5565b348015610ed857600080fd5b50610498610ee7366004614c5e565b6001600160a01b03918216600090815260056020908152604080832093909416825291909152205460ff1690565b6104cd610f233660046146e1565b613832565b348015610f3457600080fd5b506104cd610f43366004614577565b61386f565b348015610f5457600080fd5b506104cd610f63366004614c97565b6138df565b6104cd610f763660046146e1565b61392c565b348015610f8757600080fd5b50610670610f963660046146e1565b63389a75e1600c908152600091909152602090205490565b6000610fb982613953565b92915050565b610fc98282613978565b610fd4816004613a37565b6000828152600b602052604090206003018190558082610ff381612668565b6001600160a01b03166000805160206155fb833981519152604051611035906020808252600990820152684163636573736f727960b81b604082015260600190565b60405180910390a45050565b60606000805461105090614d1c565b80601f016020809104026020016040519081016040528092919081815260200182805461107c90614d1c565b80156110c95780601f1061109e576101008083540402835291602001916110c9565b820191906000526020600020905b8154815290600101906020018083116110ac57829003601f168201915b5050505050905090565b60006110de82613b39565b506000908152600460205260409020546001600160a01b031690565b600061110582612668565b9050806001600160a01b0316836001600160a01b0316036111775760405162461bcd60e51b815260206004820152602160248201527f4552433732313a20617070726f76616c20746f2063757272656e74206f776e656044820152603960f91b60648201526084015b60405180910390fd5b336001600160a01b038216148061119357506111938133610ee7565b6112055760405162461bcd60e51b815260206004820152603e60248201527f4552433732313a20617070726f76652063616c6c6572206973206e6f7420746f60448201527f6b656e206f776e6572206e6f7220617070726f76656420666f7220616c6c0000606482015260840161116e565b61120f8383613b98565b505050565b600e602052600090815260409020805460018201805491929161123690614d1c565b80601f016020809104026020016040519081016040528092919081815260200182805461126290614d1c565b80156112af5780601f10611284576101008083540402835291602001916112af565b820191906000526020600020905b81548152906001019060200180831161129257829003601f168201915b5050505050908060020180546112c490614d1c565b80601f01602080910402602001604051908101604052809291908181526020018280546112f090614d1c565b801561133d5780601f106113125761010080835404028352916020019161133d565b820191906000526020600020905b81548152906001019060200180831161132057829003601f168201915b50505050509080600301805461135290614d1c565b80601f016020809104026020016040519081016040528092919081815260200182805461137e90614d1c565b80156113cb5780601f106113a0576101008083540402835291602001916113cb565b820191906000526020600020905b8154815290600101906020018083116113ae57829003601f168201915b5050505050905084565b6113df8282613978565b6113ea816003613a37565b6000828152600b60205260409020600201819055808261140981612668565b6001600160a01b03166000805160206155fb833981519152604051611035906020808252600490820152634661636560e01b604082015260600190565b61144f81613c06565b6000818152600b60205260408082206001019190915551632430b4b960e11b81526004015b60405180910390208161148683612668565b6001600160a01b03167fe428b1839105819dce5e635ac7e16ed2a43028f6e294bab8655e29acb5dc60bb60405160405180910390a450565b6014546001600160a01b03166114e757604051633390ca8960e21b815260040160405180910390fd5b60076114f1611aea565b600060106000815461150290614d6c565b918290555090506115133382613c40565b604051638a54c52f60e01b81527355266d75d1a14e4572138116af39863ed6596e7f600482015260006024820181905262014a34604483015230606483015260848201839052906f6551c19487814612e58fe0681377575890638a54c52f9060a4016020604051808303816000875af1158015611594573d6000803e3d6000fd5b505050506040513d601f19601f820116820180604052508101906115b89190614d85565b6000838152601360205260409081902080546001600160a01b0319166001600160a01b038416908117909155905163189acdbd60e31b81527341c8f39463a868d3a88af00cd0fe7102f30e44ec60048201529192509063c4d66de890602401600060405180830381600087803b15801561163157600080fd5b505af1158015611645573d6000803e3d6000fd5b5050601454604051638fe4a24560e01b81526001600160a01b03858116600483015260248201889052600094509091169150638fe4a245906044016000604051808303816000875af115801561169f573d6000803e3d6000fd5b505050506040513d6000823e601f3d908101601f191682016040526116c79190810190614da2565b6000848152600b60205260408120600d5460078201805461ffff8916600a850181905563ffffffff90931665ffffffffffff199091161764010000000090920291909117905582519293509183919061172257611722614e47565b602002602001015181600601819055508160018151811061174557611745614e47565b602002602001015181600501819055508160028151811061176857611768614e47565b6020026020010151816004018190555060058511156117a2578160058151811061179457611794614e47565b602090810291909101015181555b60068511156117cf57816006815181106117be576117be614e47565b602002602001015181600301819055505b600c8101805460ff19169055600160088201556040805180820190915260068152650c110d914e5160d21b6020820152600b82019061180e9082614ea5565b50604051849033907f0f6798a560793a54c3bcfe86a93cde1e73087d944c0ea20544137d412139688590600090a36118726040518060400160405280601481526020017336b4b73a32b2103137b23c903a37b5b2b724b21d60611b81525085613d8e565b5050505050565b6060600061188683612ae3565b905060006040518060400160405280601b81526020017f3c7376672076696577426f783d223020302031353020313530223e000000000081525090506000604051806040016040528060068152602001651e17b9bb339f60d11b815250905060606000600f60009054906101000a90046001600160a01b03166001600160a01b0316635c1ef2566040518163ffffffff1660e01b8152600401600060405180830381865afa15801561193c573d6000803e3d6000fd5b505050506040513d6000823e601f3d908101601f191682016040526119649190810190614fb4565b9050600060125486511061197a5760125461197d565b85515b9050604051806105400160405280610505815260200161561b6105059139826040516020016119ad929190614fe8565b604051602081830303815290604052925060005b81811015611a9257600f5487516000916001600160a01b03169063c7791531908a90859081106119f3576119f3614e47565b60200260200101516040518263ffffffff1660e01b8152600401611a1991815260200190565b600060405180830381865afa158015611a36573d6000803e3d6000fd5b505050506040513d6000823e601f3d908101601f19168201604052611a5e9190810190614fb4565b905084878288604051602001611a77949392919061503f565b60408051601f198184030181529190529450506001016119c1565b5082604051602001611aa49190615096565b60408051601f1981840301815291905298975050505050505050565b611ac8613dd3565b601680546001600160a01b0319166001600160a01b0392909216919091179055565b600d546000908152600c602052604090208054600160c01b900460ff161580611b4257508054600160c81b900460ff16158015611b425750611b2e610100436150be565b8154600160801b90046001600160401b0316105b15611b8d57611b524360326150d1565b815460ff60c01b196001600160401b0392909216600160801b029190911668ffffffffffffffffff60801b1990911617600160c01b17815550565b8054600160801b90046001600160401b0316431115611cc357805460408051600160801b9092046001600160401b031640602083015244908201526001600160801b03906060016040516020818303038152906040528051906020012060001c611bf791906150fa565b8154600160c81b6001600160801b039290921679ff000000000000000000ffffffffffffffffffffffffffffffff199091161717808255600d54604051600160801b9092046001600160401b0316917f78611aecfda8d341359c248df527c95aef93d446c92bb928b2a81b7abcb1d8d990600090a3604080516000815260001960208201527f6bd5c950a8d8df17f772f5af37cb3655737899cbf903264b9795592da439661c910160405180910390a1600d8054600090611cb790614d6c565b90915550611cc3611aea565b50565b611cd03382613dee565b611cec5760405162461bcd60e51b815260040161116e9061510e565b61120f838383613e6d565b60006202a3006001600160401b03164201905063389a75e1600c5233600052806020600c2055337fdbf36a107da19e49527a7176a1babf963b4b0ff8cde35ee35d6cd8f1f9ac7e1d600080a250565b611d4f81613c06565b6000818152600b60205260408082206003019190915551684163636573736f727960b81b8152600901611474565b60608060606000611d8d85613157565b9050611d988161214a565b50600f54604051630de6a96560e11b81529195506001600160a01b03169150631bcd52ca90611dcb908490600401614b08565b600060405180830381865afa158015611de8573d6000803e3d6000fd5b505050506040513d6000823e601f3d908101601f19168201604052611e10919081019061515c565b50604051909350611e289150849084906020016151fa565b6040516020818303038152906040529350505050919050565b6000611e4c83612774565b8210611eae5760405162461bcd60e51b815260206004820152602b60248201527f455243373231456e756d657261626c653a206f776e657220696e646578206f7560448201526a74206f6620626f756e647360a81b606482015260840161116e565b506001600160a01b03919091166000908152600660209081526040808320938352929052205490565b611ee081613c06565b6000818152600b602052604081208181556001810182905560028101829055600381018290556004810182905560058101829055600681019190915581611f2681612668565b6001600160a01b03167f46078a2cd4c69c3b4a27bdc69fdfe03d442ebcf405f1a68e9b5df6bc3e24429760405160405180910390a35050565b6060806000611f6d84613157565b9050611f788161214a565b5095945050505050565b611f8a613dd3565b601255565b611f9881613c06565b6000818152600b60205260408082206004019190915551620546f760ec1b8152600301611474565b61120f8383836040518060200160405280600081525061311f565b60606000611fe883612774565b90506000816001600160401b0381111561200457612004614783565b60405190808252806020026020018201604052801561202d578160200160208202803683370190505b50905060005b8281101561206a576120458582611e41565b82828151811061205757612057614e47565b6020908102919091010152600101612033565b509392505050565b60018110806120815750600481115b156120c25760405162461bcd60e51b8152602060048201526011602482015270092dcecc2d8d2c840c4dec8f292dcc8caf607b1b604482015260640161116e565b6000918252600b602052604090912060080155565b6120e18282613978565b6120ec816006613a37565b6000828152600b60205260409020600501819055808261210b81612668565b6001600160a01b03166000805160206155fb83398151915260405161103590602080825260069082015265426f74746f6d60d01b604082015260600190565b60608060608361014001516121a8576040518060a00160405280606581526020016155966065913960405180602001604052806000815250604051806040016040528060028152602001617b7d60f01b815250925092509250612332565b6121b6846101200151612b0e565b600e6000866101200151815260200190815260200160002060030161229f60405180604001604052806009815260200168426f6479205479706560b81b815250600e60008961012001518152602001908152602001600020600101805461221c90614d1c565b80601f016020809104026020016040519081016040528092919081815260200182805461224890614d1c565b80156122955780601f1061226a57610100808354040283529160200191612295565b820191906000526020600020905b81548152906001019060200180831161227857829003601f168201915b5050505050614014565b8180546122ab90614d1c565b80601f01602080910402602001604051908101604052809291908181526020018280546122d790614d1c565b80156123245780601f106122f957610100808354040283529160200191612324565b820191906000526020600020905b81548152906001019060200180831161230757829003601f168201915b505050505091509250925092505b9193909250565b86156123495761234988886137c5565b8515612359576123598887612c38565b84156123695761236988866113d5565b8315612379576123798885610fbf565b821561238957612389888461386f565b81156123995761239988836120d7565b80156123a9576123a98882612572565b876123b389612668565b6001600160a01b03167f56680590212b09eb4b72a2eba8801b037ec046dfc754538e924f5bb6a8c4db6c60405160405180910390a35050505050505050565b6123fa613dd3565b601580546001600160a01b0319166001600160a01b0392909216919091179055565b600061242760085490565b821061248a5760405162461bcd60e51b815260206004820152602c60248201527f455243373231456e756d657261626c653a20676c6f62616c20696e646578206f60448201526b7574206f6620626f756e647360a01b606482015260840161116e565b6008828154811061249d5761249d614e47565b90600052602060002001549050919050565b63389a75e1600c523360005260006020600c2055337ffa7b8eab7da67f412cc9575ed43464468f9bfbae89d1675917346ca6d8fe3c92600080a2565b6124f481613c06565b6000818152600b602052604080822060060191909155516453686f657360d81b8152600501611474565b612526613dd3565b601480546001600160a01b0319166001600160a01b0392909216919091179055565b612550613dd3565b600f80546001600160a01b0319166001600160a01b0392909216919091179055565b61257c8282613978565b612587816007613a37565b6000828152600b6020526040902060060181905580826125a681612668565b6001600160a01b03166000805160206155fb8339815191526040516110359060208082526005908201526453686f657360d81b604082015260600190565b6000818152601360205260409081902054600f5491516340d097c360e01b81526001600160a01b03918216600482018190529291909116906340d097c3906024016020604051808303816000875af1158015612644573d6000803e3d6000fd5b505050506040513d601f19601f8201168201806040525081019061120f9190615229565b6000818152600260205260408120546001600160a01b031680610fb95760405162461bcd60e51b8152602060048201526018602482015277115490cdcc8c4e881a5b9d985b1a59081d1bdad95b88125160421b604482015260640161116e565b606080826101400151612712576040518060a001604052806065815260200161559660659139604051806040016040528060028152602001617b7d60f01b81525091509150915091565b612720836101200151612b0e565b61276b60405180604001604052806009815260200168426f6479205479706560b81b815250600e60008761012001518152602001908152602001600020600101805461221c90614d1c565b91509150915091565b60006001600160a01b0382166127de5760405162461bcd60e51b815260206004820152602960248201527f4552433732313a2061646472657373207a65726f206973206e6f7420612076616044820152683634b21037bbb732b960b91b606482015260840161116e565b506001600160a01b031660009081526003602052604090205490565b612802613dd3565b61280c6000614040565b565b60608060608060608060608060608060006128288c613157565b90506128338161214a565b600f54604051630de6a96560e11b8152939d50919a5095506001600160a01b031690631bcd52ca90612869908490600401614b08565b600060405180830381865afa158015612886573d6000803e3d6000fd5b505050506040513d6000823e601f3d908101601f191682016040526128ae919081019061515c565b604051929b5090985095506128c99085908790602001615242565b604051602081830303815290604052925087876040516020016128ed9291906151fa565b60408051601f198184030181526080830182526060808452602084018190529183018290526000918301919091529650610180820151815261292e8d612ae3565b5160608201526101208201516000908152600e60205260409020600101805461295690614d1c565b80601f016020809104026020016040519081016040528092919081815260200182805461298290614d1c565b80156129cf5780601f106129a4576101008083540402835291602001916129cf565b820191906000526020600020905b8154815290600101906020018083116129b257829003601f168201915b505050505081602001819052506129f88d6000908152600b60205260409020600c015460ff1690565b612a1c57604051806040016040528060028152602001610c9160f21b815250612a38565b604051806040016040528060028152602001610cd160f21b8152505b8160400181905250601660009054906101000a90046001600160a01b03166001600160a01b031663cb406c948e8d888e8b8d886040518863ffffffff1660e01b8152600401612a8d9796959493929190615306565b600060405180830381865afa158015612aaa573d6000803e3d6000fd5b505050506040513d6000823e601f3d908101601f19168201604052612ad29190810190614fb4565b9d9c50505050505050505050505050565b6000818152601360205260409020546060906001600160a01b0316612b0781612cb8565b9392505050565b6000818152600e60205260408120600201805460609291612bb591612b3290614d1c565b80601f0160208091040260200160405190810160405280929190818152602001828054612b5e90614d1c565b8015612bab5780601f10612b8057610100808354040283529160200191612bab565b820191906000526020600020905b815481529060010190602001808311612b8e57829003601f168201915b5050505050613513565b6015546040516335b07b7960e11b81529192506001600160a01b031690636b60f6f290612be69084906004016145e9565b600060405180830381865afa158015612c03573d6000803e3d6000fd5b505050506040513d6000823e601f3d908101601f19168201604052612b079190810190614fb4565b612c33613dd3565b601155565b612c428282613978565b612c4d816002613a37565b6000828152600b602052604090206001018190558082612c6c81612668565b6001600160a01b03166000805160206155fb833981519152604051611035906020808252600490820152632430b4b960e11b604082015260600190565b60606001805461105090614d1c565b600f5460405162438b6360e81b81526001600160a01b03838116600483015260609260009291169063438b630090602401600060405180830381865afa158015612d06573d6000803e3d6000fd5b505050506040513d6000823e601f3d908101601f19168201604052612b079190810190614da2565b612d3781613c06565b6000818152600b6020526040808220600501919091555165426f74746f6d60d01b8152600601611474565b600a5460ff161561280c5760005b6064811015612d8957612d816114be565b600101612d70565b50612db360016040518060400160405280600681526020016533333333333360d01b8152506134b6565b612ddc60036040518060400160405280600681526020016533333333333360d11b8152506134b6565b612e0560046040518060400160405280600681526020016519588c0d8e1960d21b8152506134b6565b61280c600860405180604001604052806006815260200165118c90cccc0d60d21b8152506134b6565b60606000612e3b83613157565b9050806101a00151612e5557612e5083612e6d565b612b07565b612b078361280e565b612e6933838361407e565b5050565b6060806060806060806000612e8188613157565b9050612e8c816126c8565b600f5460405163506cbfe760e11b81529298509096506001600160a01b03169063a0d97fce90612ec0908490600401614b08565b600060405180830381865afa158015612edd573d6000803e3d6000fd5b505050506040513d6000823e601f3d908101601f19168201604052612f05919081019061538f565b9094509250612f1388611879565b9150612f406040518060800160405280606081526020016060815260200160608152602001600081525090565b6101808201518152612f5189612ae3565b5160608201526101208201516000908152600e602052604090206001018054612f7990614d1c565b80601f0160208091040260200160405190810160405280929190818152602001828054612fa590614d1c565b8015612ff25780601f10612fc757610100808354040283529160200191612ff2565b820191906000526020600020905b815481529060010190602001808311612fd557829003601f168201915b5050505050816020018190525061301b896000908152600b60205260409020600c015460ff1690565b61303f57604051806040016040528060028152602001610c9160f21b81525061305b565b604051806040016040528060028152602001610cd160f21b8152505b6040808301919091526015549051634e2fa37760e11b81526001600160a01b0390911690639c5f46ee9061309f908c908b908b908b908b908b908a90600401615306565b600060405180830381865afa1580156130bc573d6000803e3d6000fd5b505050506040513d6000823e601f3d908101601f191682016040526130e49190810190614fb4565b9998505050505050505050565b6130fa81613c06565b6000818152600b602052604080822091909155516212185d60ea1b8152600301611474565b6131293383613dee565b6131455760405162461bcd60e51b815260040161116e9061510e565b6131518484848461414c565b50505050565b6131d7604051806101c0016040528060008152602001600081526020016000815260200160008152602001600081526020016000815260200160008152602001600063ffffffff168152602001600061ffff1681526020016000815260200160001515815260200160008152602001606081526020016000151581525090565b6000828152600b6020818152604080842081516101c081018352815481526001820154938101939093526002810154918301919091526003810154606083015260048101546080830152600581015460a0830152600681015460c0830152600781015463ffffffff811660e0840152640100000000900461ffff166101008301526008810154610120830152600981015460ff161515610140830152600a81015461016083015291820180549192916101808401919061329690614d1c565b80601f01602080910402602001604051908101604052809291908181526020018280546132c290614d1c565b801561330f5780601f106132e45761010080835404028352916020019161330f565b820191906000526020600020905b8154815290600101906020018083116132f257829003601f168201915b5050509183525050600c9182015460ff16151560209182015260e083015163ffffffff1660009081529181526040918290205461010084015192519394506001600160801b039081169390926133959285920160809290921b6fffffffffffffffffffffffffffffffff1916825260f01b6001600160f01b031916601082015260120190565b6040516020818303038152906040528051906020012060001c6133b891906150fa565b610160830152600a5460ff1615156001146133df576000816001600160801b0316116133e2565b60015b15156101408301526101608201516133fc906004906150fa565b6134079060016150d1565b6101208301525092915050565b6000818152600260205260409020546060906001600160a01b031661344c57604051631a65aaab60e31b815260040160405180910390fd5b610fb982612e2e565b60008061346183612668565b6000938452601360205260409093205492936001600160a01b0390931692915050565b61348d81613c06565b6000818152600b60205260408082206002019190915551634661636560e01b8152600401611474565b80516006146134f75760405162461bcd60e51b815260206004820152600d60248201526c24b73b30b634b21031b7b637b960991b604482015260640161116e565b6000828152600b602081905260409091200161120f8282614ea5565b8051606090801580159061352f575061352d6005826150fa565b155b61357b5760405162461bcd60e51b815260206004820152601960248201527f496e76616c696420626f6479206279746573206c656e67746800000000000000604482015260640161116e565b604080516111948082526111c0820190925260009160208201818036833701905050905060006135ac6005846153e8565b905060005b818110156137bb5760006135c68260056153fc565b905060008782815181106135dc576135dc614e47565b016020015160f81c90506000886135f48460016150d1565b8151811061360457613604614e47565b016020015160f81c9050600060ff831661361f83601e6153fc565b61362991906150d1565b6136349060056153fc565b905089848151811061364857613648614e47565b602001015160f81c60f81b87828151811061366557613665614e47565b60200101906001600160f81b031916908160001a90535089846001018151811061369157613691614e47565b602001015160f81c60f81b8782600101815181106136b1576136b1614e47565b60200101906001600160f81b031916908160001a9053508984600201815181106136dd576136dd614e47565b602001015160f81c60f81b8782600201815181106136fd576136fd614e47565b60200101906001600160f81b031916908160001a90535089846003018151811061372957613729614e47565b602001015160f81c60f81b87826003018151811061374957613749614e47565b60200101906001600160f81b031916908160001a90535089846004018151811061377557613775614e47565b602001015160f81c60f81b87826004018151811061379557613795614e47565b60200101906001600160f81b031916908160001a905350505050508060010190506135b1565b5090949350505050565b6137cf8282613978565b6137da816001613a37565b6000828152600b6020526040902081905580826137f681612668565b6001600160a01b03166000805160206155fb8339815191526040516110359060208082526003908201526212185d60ea1b604082015260600190565b61383a613dd3565b63389a75e1600c52806000526020600c20805442111561386257636f5e88186000526004601cfd5b60009055611cc381614040565b6138798282613978565b613884816005613a37565b6000828152600b6020526040902060040181905580826138a381612668565b6001600160a01b03166000805160206155fb833981519152604051611035906020808252600390820152620546f760ec1b604082015260600190565b6138e7613dd3565b6000848152600e60205260409020848155600181016139068582614ea5565b50600281016139158482614ea5565b50600381016139248382614ea5565b505050505050565b613934613dd3565b8060601b61394a57637448fbae6000526004601cfd5b611cc381614040565b60006001600160e01b0319821663780e9d6360e01b1480610fb95750610fb98261417f565b61398182613c06565b60008281526013602052604080822054600f5491516331a9108f60e11b8152600481018590526001600160a01b0391821693929190911690636352211e90602401602060405180830381865afa1580156139df573d6000803e3d6000fd5b505050506040513d601f19601f82011682018060405250810190613a039190614d85565b9050816001600160a01b0316816001600160a01b0316146131515760405163e6ca793160e01b815260040160405180910390fd5b600f5460405163e8a1268d60e01b8152600481018490526000916001600160a01b03169063e8a1268d90602401602060405180830381865afa158015613a81573d6000803e3d6000fd5b505050506040513d601f19601f82011682018060405250810190613aa59190615413565b9050816007811115613ab957613ab9615434565b604051602001613acb91815260200190565b60405160208183030381529060405280519060200120816007811115613af357613af3615434565b604051602001613b0591815260200190565b604051602081830303815290604052805190602001201461120f57604051633e54c6fb60e11b815260040160405180910390fd5b6000818152600260205260409020546001600160a01b0316611cc35760405162461bcd60e51b8152602060048201526018602482015277115490cdcc8c4e881a5b9d985b1a59081d1bdad95b88125160421b604482015260640161116e565b600081815260046020526040902080546001600160a01b0319166001600160a01b0384169081179091558190613bcd82612668565b6001600160a01b03167f8c5be1e5ebec7d5bd14f71427d1e84f3dd0314c0f7b2291e5b200ac8c7c3b92560405160405180910390a45050565b613c0f81612668565b6001600160a01b0316336001600160a01b031614611cc3576040516324adc17160e11b815260040160405180910390fd5b6001600160a01b038216613c965760405162461bcd60e51b815260206004820181905260248201527f4552433732313a206d696e7420746f20746865207a65726f2061646472657373604482015260640161116e565b6000818152600260205260409020546001600160a01b031615613cfb5760405162461bcd60e51b815260206004820152601c60248201527f4552433732313a20746f6b656e20616c7265616479206d696e74656400000000604482015260640161116e565b613d07600083836141cf565b6001600160a01b0382166000908152600360205260408120805460019290613d309084906150d1565b909155505060008181526002602052604080822080546001600160a01b0319166001600160a01b03861690811790915590518392907fddf252ad1be2c89b69c2b068fc378daa952ba7f163c4a11628f55a4df523b3ef908290a45050565b612e698282604051602401613da492919061544a565b60408051601f198184030181529190526020810180516001600160e01b03166309710a9d60e41b1790526141da565b638b78c6d81954331461280c576382b429006000526004601cfd5b600080613dfa83612668565b9050806001600160a01b0316846001600160a01b03161480613e4157506001600160a01b0380821660009081526005602090815260408083209388168352929052205460ff165b80613e655750836001600160a01b0316613e5a846110d3565b6001600160a01b0316145b949350505050565b826001600160a01b0316613e8082612668565b6001600160a01b031614613ee45760405162461bcd60e51b815260206004820152602560248201527f4552433732313a207472616e736665722066726f6d20696e636f72726563742060448201526437bbb732b960d91b606482015260840161116e565b6001600160a01b038216613f465760405162461bcd60e51b8152602060048201526024808201527f4552433732313a207472616e7366657220746f20746865207a65726f206164646044820152637265737360e01b606482015260840161116e565b613f518383836141cf565b613f5c600082613b98565b6001600160a01b0383166000908152600360205260408120805460019290613f859084906150be565b90915550506001600160a01b0382166000908152600360205260408120805460019290613fb39084906150d1565b909155505060008181526002602052604080822080546001600160a01b0319166001600160a01b0386811691821790925591518493918716917fddf252ad1be2c89b69c2b068fc378daa952ba7f163c4a11628f55a4df523b3ef91a4505050565b6060828260405160200161402992919061546c565b604051602081830303815290604052905092915050565b638b78c6d81980546001600160a01b039092169182907f8be0079c531659141344cd1fd0a4f28419497f9722a3daafe3b4186f6b6457e0600080a355565b816001600160a01b0316836001600160a01b0316036140df5760405162461bcd60e51b815260206004820152601960248201527f4552433732313a20617070726f766520746f2063616c6c657200000000000000604482015260640161116e565b6001600160a01b03838116600081815260056020908152604080832094871680845294825291829020805460ff191686151590811790915591519182527f17307eab39ab6107e8899845ad3d59bd9653f200f220920489ca2b5937696c31910160405180910390a3505050565b614157848484613e6d565b614163848484846141fb565b6131515760405162461bcd60e51b815260040161116e906154dd565b60006001600160e01b031982166380ac58cd60e01b14806141b057506001600160e01b03198216635b5e139f60e01b145b80610fb957506301ffc9a760e01b6001600160e01b0319831614610fb9565b61120f8383836142fc565b80516a636f6e736f6c652e6c6f67602083016000808483855afa5050505050565b60006001600160a01b0384163b156142f157604051630a85bd0160e11b81526001600160a01b0385169063150b7a029061423f90339089908890889060040161552f565b6020604051808303816000875af192505050801561427a575060408051601f3d908101601f1916820190925261427791810190615562565b60015b6142d7573d8080156142a8576040519150601f19603f3d011682016040523d82523d6000602084013e6142ad565b606091505b5080516000036142cf5760405162461bcd60e51b815260040161116e906154dd565b805181602001fd5b6001600160e01b031916630a85bd0160e11b149050613e65565b506001949350505050565b6001600160a01b0383166143575761435281600880546000838152600960205260408120829055600182018355919091527ff3f7a9fe364faab93b216da50a3214154f22a0a2b415b23a84c8169e8b636ee30155565b61437a565b816001600160a01b0316836001600160a01b03161461437a5761437a83826143b4565b6001600160a01b0382166143915761120f81614451565b826001600160a01b0316826001600160a01b03161461120f5761120f8282614500565b600060016143c184612774565b6143cb91906150be565b60008381526007602052604090205490915080821461441e576001600160a01b03841660009081526006602090815260408083208584528252808320548484528184208190558352600790915290208190555b5060009182526007602090815260408084208490556001600160a01b039094168352600681528383209183525290812055565b600854600090614463906001906150be565b6000838152600960205260408120546008805493945090928490811061448b5761448b614e47565b9060005260206000200154905080600883815481106144ac576144ac614e47565b60009182526020808320909101929092558281526009909152604080822084905585825281205560088054806144e4576144e461557f565b6001900381819060005260206000200160009055905550505050565b600061450b83612774565b6001600160a01b039093166000908152600660209081526040808320868452825280832085905593825260079052919091209190915550565b6001600160e01b031981168114611cc357600080fd5b60006020828403121561456c57600080fd5b8135612b0781614544565b6000806040838503121561458a57600080fd5b50508035926020909101359150565b60005b838110156145b457818101518382015260200161459c565b50506000910152565b600081518084526145d5816020860160208601614599565b601f01601f19169290920160200192915050565b602081526000612b0760208301846145bd565b8035801515811461460c57600080fd5b919050565b6000806040838503121561462457600080fd5b82359150614634602084016145fc565b90509250929050565b60006020828403121561464f57600080fd5b5035919050565b6001600160a01b0381168114611cc357600080fd5b6000806040838503121561467e57600080fd5b823561468981614656565b946020939093013593505050565b8481526080602082015260006146b060808301866145bd565b82810360408401526146c281866145bd565b905082810360608401526146d681856145bd565b979650505050505050565b6000602082840312156146f357600080fd5b8135612b0781614656565b60008060006060848603121561471357600080fd5b833561471e81614656565b9250602084013561472e81614656565b929592945050506040919091013590565b6020808252825182820181905260009190848201906040850190845b818110156147775783518352928401929184019160010161475b565b50909695505050505050565b634e487b7160e01b600052604160045260246000fd5b6040516101c081016001600160401b03811182821017156147bc576147bc614783565b60405290565b604051601f8201601f191681016001600160401b03811182821017156147ea576147ea614783565b604052919050565b803563ffffffff8116811461460c57600080fd5b803561ffff8116811461460c57600080fd5b60006001600160401b0382111561483157614831614783565b50601f01601f191660200190565b600082601f83011261485057600080fd5b813561486361485e82614818565b6147c2565b81815284602083860101111561487857600080fd5b816020850160208301376000918101602001919091529392505050565b6000602082840312156148a757600080fd5b81356001600160401b03808211156148be57600080fd5b908301906101c082860312156148d357600080fd5b6148db614799565b823581526020830135602082015260408301356040820152606083013560608201526080830135608082015260a083013560a082015260c083013560c082015261492760e084016147f2565b60e082015261010061493a818501614806565b9082015261012083810135908201526101406149578185016145fc565b908201526101608381013590820152610180808401358381111561497a57600080fd5b6149868882870161483f565b8284015250506101a0915061499c8284016145fc565b91810191909152949350505050565b6060815260006149be60608301866145bd565b82810360208401526149d081866145bd565b905082810360408401526149e481856145bd565b9695505050505050565b600080600080600080600080610100898b031215614a0b57600080fd5b505086359860208801359850604088013597606081013597506080810135965060a0810135955060c0810135945060e0013592509050565b604081526000614a5660408301856145bd565b8281036020840152614a6881856145bd565b95945050505050565b60008060408385031215614a8457600080fd5b8235614a8f81614656565b9150614634602084016145fc565b60008060008060808587031215614ab357600080fd5b8435614abe81614656565b93506020850135614ace81614656565b92506040850135915060608501356001600160401b03811115614af057600080fd5b614afc8782880161483f565b91505092959194509250565b6020815281516020820152602082015160408201526040820151606082015260608201516080820152608082015160a082015260a082015160c082015260c082015160e0820152600060e0830151610100614b6a8185018363ffffffff169052565b8401519050610120614b818482018361ffff169052565b840151610140848101919091528401519050610160614ba38185018315159052565b840151610180848101919091528401516101c06101a080860182905291925090614bd16101e08601846145bd565b90860151801515838701529092506137bb565b60008060408385031215614bf757600080fd5b8235915060208301356001600160401b03811115614c1457600080fd5b614c208582860161483f565b9150509250929050565b600060208284031215614c3c57600080fd5b81356001600160401b03811115614c5257600080fd5b613e658482850161483f565b60008060408385031215614c7157600080fd5b8235614c7c81614656565b91506020830135614c8c81614656565b809150509250929050565b60008060008060808587031215614cad57600080fd5b8435935060208501356001600160401b0380821115614ccb57600080fd5b614cd78883890161483f565b94506040870135915080821115614ced57600080fd5b614cf98883890161483f565b93506060870135915080821115614d0f57600080fd5b50614afc8782880161483f565b600181811c90821680614d3057607f821691505b602082108103614d5057634e487b7160e01b600052602260045260246000fd5b50919050565b634e487b7160e01b600052601160045260246000fd5b600060018201614d7e57614d7e614d56565b5060010190565b600060208284031215614d9757600080fd5b8151612b0781614656565b60006020808385031215614db557600080fd5b82516001600160401b0380821115614dcc57600080fd5b818501915085601f830112614de057600080fd5b815181811115614df257614df2614783565b8060051b9150614e038483016147c2565b8181529183018401918481019088841115614e1d57600080fd5b938501935b83851015614e3b57845182529385019390850190614e22565b98975050505050505050565b634e487b7160e01b600052603260045260246000fd5b601f82111561120f576000816000526020600020601f850160051c81016020861015614e865750805b601f850160051c820191505b8181101561392457828155600101614e92565b81516001600160401b03811115614ebe57614ebe614783565b614ed281614ecc8454614d1c565b84614e5d565b602080601f831160018114614f075760008415614eef5750858301515b600019600386901b1c1916600185901b178555613924565b600085815260208120601f198616915b82811015614f3657888601518255948401946001909101908401614f17565b5085821015614f545787850151600019600388901b60f8161c191681555b5050505050600190811b01905550565b6000614f7261485e84614818565b9050828152838383011115614f8657600080fd5b612b07836020830184614599565b600082601f830112614fa557600080fd5b612b0783835160208501614f64565b600060208284031215614fc657600080fd5b81516001600160401b03811115614fdc57600080fd5b613e6584828501614f94565b60008351614ffa818460208801614599565b83519083019061500e818360208801614599565b7f3c672069643d226261636b7061636b547261697473223e0000000000000000009101908152601701949350505050565b60008551615051818460208a01614599565b855190830190615065818360208a01614599565b8551910190615078818360208901614599565b845191019061508b818360208801614599565b019695505050505050565b600082516150a8818460208701614599565b631e17b39f60e11b920191825250600401919050565b81810381811115610fb957610fb9614d56565b80820180821115610fb957610fb9614d56565b634e487b7160e01b600052601260045260246000fd5b600082615109576151096150e4565b500690565b6020808252602e908201527f4552433732313a2063616c6c6572206973206e6f7420746f6b656e206f776e6560408201526d1c881b9bdc88185c1c1c9bdd995960921b606082015260800190565b60008060006060848603121561517157600080fd5b83516001600160401b038082111561518857600080fd5b61519487838801614f94565b945060208601519150808211156151aa57600080fd5b818601915086601f8301126151be57600080fd5b6151cd87835160208501614f64565b935060408601519150808211156151e357600080fd5b506151f086828701614f94565b9150509250925092565b6000835161520c818460208801614599565b835190830190615220818360208801614599565b01949350505050565b60006020828403121561523b57600080fd5b5051919050565b6d2261747472696275746573223a5b60901b8152825160009061526c81600e850160208801614599565b600b60fa1b600e91840191820152835161528d81600f840160208801614599565b605d60f81b600f9290910191820152601001949350505050565b60008151608084526152bc60808501826145bd565b9050602083015184820360208601526152d582826145bd565b915050604083015184820360408601526152ef82826145bd565b915050606083015160608501528091505092915050565b87815260e06020820152600061531f60e08301896145bd565b828103604084015261533181896145bd565b9050828103606084015261534581886145bd565b9050828103608084015261535981876145bd565b905082810360a084015261536d81866145bd565b905082810360c084015261538181856152a7565b9a9950505050505050505050565b600080604083850312156153a257600080fd5b82516001600160401b03808211156153b957600080fd5b6153c586838701614f94565b935060208501519150808211156153db57600080fd5b50614c2085828601614f94565b6000826153f7576153f76150e4565b500490565b8082028115828204841417610fb957610fb9614d56565b60006020828403121561542557600080fd5b815160088110612b0757600080fd5b634e487b7160e01b600052602160045260246000fd5b60408152600061545d60408301856145bd565b90508260208301529392505050565b6e3d913a3930b4ba2fba3cb832911d1160891b8152825160009061549781600f850160208801614599565b6a1116113b30b63ab2911d1160a91b600f9184019182015283516154c281601a840160208801614599565b61227d60f01b601a9290910191820152601c01949350505050565b60208082526032908201527f4552433732313a207472616e7366657220746f206e6f6e20455243373231526560408201527131b2b4bb32b91034b6b83632b6b2b73a32b960711b606082015260800190565b6001600160a01b03858116825284166020820152604081018390526080606082018190526000906149e4908301846145bd565b60006020828403121561557457600080fd5b8151612b0781614544565b634e487b7160e01b600052603160045260246000fdfe3c7376673e3c7465787420783d22382220793d22313522207374796c653d22666f6e743a206e6f726d616c203270782073616e732d73657269663b2066696c6c3a20626c61636b3b223e436f6d696e6720536f6f6e2e2e2e3c2f746578743e3c2f7376673e8aea9baa1ab7209ce94784ac5f5149343f8d985fd4278de25a7b390989f2cf853c672069643d22416c6c20547261697473223e3c672069643d226261636b7061636b2220636c6173733d22636c6f736564223e3c7061746820643d224d302030204c33302030204c3330203330204c30203330205a222066696c6c3d227267622831322c203130392c203135372922202f3e3c7376672069643d226261636b7061636b5549222076696577426f783d223020302031323020313230223e203c7374796c653e2e75697b77696474683a3170783b206865696768743a203170783b2066696c6c3a77686974657d3c2f7374796c653e203c672069643d22636c6f736542746e22207472616e73666f726d3d227472616e736c61746528322c3229223e203c7265637420783d22312220793d22312220636c6173733d227569223e3c2f726563743e203c7265637420783d22322220793d22322220636c6173733d227569223e3c2f726563743e203c7265637420783d22332220793d22332220636c6173733d227569223e3c2f726563743e203c7265637420783d22342220793d22342220636c6173733d227569223e3c2f726563743e203c7265637420783d22352220793d22352220636c6173733d227569223e3c2f726563743e203c7265637420783d22352220793d22312220636c6173733d227569223e3c2f726563743e203c7265637420783d22342220793d22322220636c6173733d227569223e3c2f726563743e203c212d2d203c7265637420783d22332220793d2233222077696474683d223122206865696768743d2231222066696c6c3d227768697465223e3c2f726563743e202d2d3e203c7265637420783d22322220793d22342220636c6173733d227569223e3c2f726563743e203c7265637420783d22312220793d22352220636c6173733d227569223e3c2f726563743e203c2f673e203c672069643d226c65667442746e2220636c6173733d22627574746f6e22207472616e73666f726d3d227472616e736c6174652834352c31313029223e203c7061746820643d224d302030204c362030204c362036204c302036205a222066696c6c3d227472616e73706172656e7422202f3e203c7265637420783d22322220793d22302220636c6173733d227569223e3c2f726563743e203c7265637420783d22312220793d22312220636c6173733d227569223e3c2f726563743e203c7265637420783d22302220793d22322220636c6173733d227569223e3c2f726563743e203c7265637420783d22312220793d22332220636c6173733d227569223e3c2f726563743e203c7265637420783d22322220793d22342220636c6173733d227569223e3c2f726563743e203c2f673e203c672069643d22726967687442746e2220636c6173733d22627574746f6e22207472616e73666f726d3d227472616e736c6174652836352c31313029223e203c7061746820643d224d302030204c362030204c362036204c302036205a222066696c6c3d227472616e73706172656e7422202f3e203c7265637420783d22332220793d22302220636c6173733d227569223e3c2f726563743e203c7265637420783d22342220793d22312220636c6173733d227569223e3c2f726563743e203c7265637420783d22352220793d22322220636c6173733d227569223e3c2f726563743e203c7265637420783d22342220793d22332220636c6173733d227569223e3c2f726563743e203c7265637420783d22332220793d22342220636c6173733d227569223e3c2f726563743e203c2f673e203c2f7376673e20a264697066735822122011fca79f54fc703ecd3c0a4d84c35070e45eda87629132c980da3fed2890223864736f6c63430008160033","linkReferences":{}},"methodIdentifiers":{"MAX_TRAITS_TO_OUTPUT()":"20e0b93c","_debugPostConstructorMint()":"9c7be2f1","addNewBody(uint256,string,bytes,bytes)":"f2361e23","approve(address,uint256)":"095ea7b3","balanceOf(address)":"70a08231","bodyIndexToMetadata(uint256)":"0c83f9d7","buyTrait(uint256)":"6273ca2c","cancelOwnershipHandover()":"54d1f13d","completeOwnershipHandover(address)":"f04e283e","equipAccessory(uint256,uint256)":"0447a45e","equipAll(uint256,uint256,uint256,uint256,uint256,uint256,uint256,uint256)":"4a4333a3","equipBottom(uint256,uint256)":"45a10d0f","equipFace(uint256,uint256)":"0f162320","equipHair(uint256,uint256)":"94cbd9c4","equipHat(uint256,uint256)":"e5a68261","equipShoes(uint256,uint256)":"60b77b23","equipTop(uint256,uint256)":"f18dc22d","firstSeasonRenderMinter()":"13ea0ae3","getApproved(uint256)":"081812fc","getBackpackSVGs(uint256)":"14fe8ff4","getBodyImage(bytes)":"e37db3c2","getBodyImageSvg(uint256)":"916c546b","getBodySVGZmapsAndMetadata((uint256,uint256,uint256,uint256,uint256,uint256,uint256,uint32,uint16,uint256,bool,uint256,string,bool))":"45d2d7bd","getBodySvgAndMetadata((uint256,uint256,uint256,uint256,uint256,uint256,uint256,uint32,uint16,uint256,bool,uint256,string,bool))":"661ee23a","getBodyZMap(uint256)":"306c7334","getEpoch()":"757991a8","getEpochData(uint256)":"859e7d32","getOwnerAndTBAAddressForTokenId(uint256)":"cc9a5d37","getPeter(uint256)":"be928ff6","getPeterZMap(uint256)":"2bd1ca45","getTBAAddressForTokenId(uint256)":"8e29d3e9","getTokenRenderZ(uint256)":"8200ea51","getTraitTokens(address)":"998cfb6e","getTraitsForTokenId(uint256)":"850ad51a","isApprovedForAll(address,address)":"e985e9c5","mainRenderer()":"66b89b5a","mint()":"1249c58b","name()":"06fdde03","owner()":"8da5cb5b","ownerOf(uint256)":"6352211e","ownershipHandoverExpiresAt(address)":"fee81cf4","price()":"a035b1fe","renderAsDataUri(uint256)":"a1d62680","renderAsDataUriSVG(uint256)":"b28fbe40","renderAsDataUriZ(uint256)":"7557f2dc","renounceOwnership()":"715018a6","requestOwnershipHandover()":"25692962","resolveEpochIfNecessary()":"239ffa68","safeTransferFrom(address,address,uint256)":"42842e0e","safeTransferFrom(address,address,uint256,bytes)":"b88d4fde","setApprovalForAll(address,bool)":"a22cb465","setBackgroundColor(uint256,string)":"d68c4f32","setBodyIndex(uint256,uint256)":"457e7e61","setFirstSeasonRenderMinter(address)":"58a97640","setMainRenderer(address)":"4ddb3961","setMaxTraitsToOutput(uint256)":"33d3d9bf","setPrice(uint256)":"91b7f5ed","setTokenRenderZ(uint256,bool)":"07f4e045","setTraitsContract(address)":"5eabd84a","setZRenderer(address)":"172b054d","supportsInterface(bytes4)":"01ffc9a7","symbol()":"95d89b41","tokenByIndex(uint256)":"4f6ccce7","tokenIdToTBAAccountAddress(uint256)":"9c05d68d","tokenOfOwnerByIndex(address,uint256)":"2f745c59","tokenURI(uint256)":"c87b56dd","totalSupply()":"18160ddd","traitsContract()":"c093afdb","transferFrom(address,address,uint256)":"23b872dd","transferOwnership(address)":"f2fde38b","unequipAccessory(uint256)":"293ed3f7","unequipAll(uint256)":"3044825b","unequipBottom(uint256)":"9c762015","unequipFace(uint256)":"d5b55c8b","unequipHair(uint256)":"105338e0","unequipHat(uint256)":"b5282793","unequipShoes(uint256)":"58180d35","unequipTop(uint256)":"347bd8f4","walletOfOwner(address)":"438b6300","zRenderer()":"a15c561b"},"id":39}