{"abi":[{"type":"constructor","inputs":[{"name":"localDeploy_","type":"bool","internalType":"bool"}],"stateMutability":"nonpayable"},{"type":"function","name":"MAX_TRAITS_TO_OUTPUT","inputs":[],"outputs":[{"name":"","type":"uint256","internalType":"uint256"}],"stateMutability":"view"},{"type":"function","name":"_debugPostConstructorMint","inputs":[],"outputs":[],"stateMutability":"nonpayable"},{"type":"function","name":"addNewBody","inputs":[{"name":"_bodyIndex","type":"uint256","internalType":"uint256"},{"name":"_bodyName","type":"string","internalType":"string"},{"name":"_colorMap","type":"bytes","internalType":"bytes"},{"name":"_zMap","type":"bytes","internalType":"bytes"}],"outputs":[],"stateMutability":"nonpayable"},{"type":"function","name":"approve","inputs":[{"name":"to","type":"address","internalType":"address"},{"name":"tokenId","type":"uint256","internalType":"uint256"}],"outputs":[],"stateMutability":"nonpayable"},{"type":"function","name":"balanceOf","inputs":[{"name":"owner","type":"address","internalType":"address"}],"outputs":[{"name":"","type":"uint256","internalType":"uint256"}],"stateMutability":"view"},{"type":"function","name":"bodyIndexToMetadata","inputs":[{"name":"","type":"uint256","internalType":"uint256"}],"outputs":[{"name":"bodyIndex","type":"uint256","internalType":"uint256"},{"name":"bodyName","type":"string","internalType":"string"},{"name":"colorMap","type":"bytes","internalType":"bytes"},{"name":"zMap","type":"bytes","internalType":"bytes"}],"stateMutability":"view"},{"type":"function","name":"buyTrait","inputs":[{"name":"_tokenId","type":"uint256","internalType":"uint256"}],"outputs":[],"stateMutability":"nonpayable"},{"type":"function","name":"cancelOwnershipHandover","inputs":[],"outputs":[],"stateMutability":"payable"},{"type":"function","name":"completeOwnershipHandover","inputs":[{"name":"pendingOwner","type":"address","internalType":"address"}],"outputs":[],"stateMutability":"payable"},{"type":"function","name":"equipAccessory","inputs":[{"name":"_peterTokenId","type":"uint256","internalType":"uint256"},{"name":"_traitTokenId","type":"uint256","internalType":"uint256"}],"outputs":[],"stateMutability":"nonpayable"},{"type":"function","name":"equipAll","inputs":[{"name":"_peterTokenId","type":"uint256","internalType":"uint256"},{"name":"_headTokenId","type":"uint256","internalType":"uint256"},{"name":"_hairTokenId","type":"uint256","internalType":"uint256"},{"name":"_faceTokenId","type":"uint256","internalType":"uint256"},{"name":"_accessoryTokenId","type":"uint256","internalType":"uint256"},{"name":"_topTokenId","type":"uint256","internalType":"uint256"},{"name":"_bottomTokenId","type":"uint256","internalType":"uint256"},{"name":"_shoesTokenId","type":"uint256","internalType":"uint256"}],"outputs":[],"stateMutability":"nonpayable"},{"type":"function","name":"equipBottom","inputs":[{"name":"_peterTokenId","type":"uint256","internalType":"uint256"},{"name":"_traitTokenId","type":"uint256","internalType":"uint256"}],"outputs":[],"stateMutability":"nonpayable"},{"type":"function","name":"equipFace","inputs":[{"name":"_peterTokenId","type":"uint256","internalType":"uint256"},{"name":"_traitTokenId","type":"uint256","internalType":"uint256"}],"outputs":[],"stateMutability":"nonpayable"},{"type":"function","name":"equipHair","inputs":[{"name":"_peterTokenId","type":"uint256","internalType":"uint256"},{"name":"_traitTokenId","type":"uint256","internalType":"uint256"}],"outputs":[],"stateMutability":"nonpayable"},{"type":"function","name":"equipHead","inputs":[{"name":"_peterTokenId","type":"uint256","internalType":"uint256"},{"name":"_traitTokenId","type":"uint256","internalType":"uint256"}],"outputs":[],"stateMutability":"nonpayable"},{"type":"function","name":"equipShoes","inputs":[{"name":"_peterTokenId","type":"uint256","internalType":"uint256"},{"name":"_traitTokenId","type":"uint256","internalType":"uint256"}],"outputs":[],"stateMutability":"nonpayable"},{"type":"function","name":"equipTop","inputs":[{"name":"_peterTokenId","type":"uint256","internalType":"uint256"},{"name":"_traitTokenId","type":"uint256","internalType":"uint256"}],"outputs":[],"stateMutability":"nonpayable"},{"type":"function","name":"firstSeasonRenderMinter","inputs":[],"outputs":[{"name":"","type":"address","internalType":"contract FirstSeasonRenderMinter"}],"stateMutability":"view"},{"type":"function","name":"getApproved","inputs":[{"name":"tokenId","type":"uint256","internalType":"uint256"}],"outputs":[{"name":"","type":"address","internalType":"address"}],"stateMutability":"view"},{"type":"function","name":"getBackpackSVGs","inputs":[{"name":"_tokenId","type":"uint256","internalType":"uint256"}],"outputs":[{"name":"backpackSVGs","type":"string","internalType":"string"}],"stateMutability":"view"},{"type":"function","name":"getBodyImage","inputs":[{"name":"colorMap","type":"bytes","internalType":"bytes"}],"outputs":[{"name":"","type":"bytes","internalType":"bytes"}],"stateMutability":"pure"},{"type":"function","name":"getBodyImageSvg","inputs":[{"name":"_index","type":"uint256","internalType":"uint256"}],"outputs":[{"name":"svg","type":"string","internalType":"string"}],"stateMutability":"view"},{"type":"function","name":"getBodySVGZmapsAndMetadata","inputs":[{"name":"storedPeter","type":"tuple","internalType":"struct IPeterStorage.StoredPeter","components":[{"name":"headId","type":"uint256","internalType":"uint256"},{"name":"hairId","type":"uint256","internalType":"uint256"},{"name":"faceId","type":"uint256","internalType":"uint256"},{"name":"accessoryId","type":"uint256","internalType":"uint256"},{"name":"topId","type":"uint256","internalType":"uint256"},{"name":"bottomId","type":"uint256","internalType":"uint256"},{"name":"shoesId","type":"uint256","internalType":"uint256"},{"name":"epoch","type":"uint32","internalType":"uint32"},{"name":"tokenId","type":"uint16","internalType":"uint16"},{"name":"bodyIndex","type":"uint256","internalType":"uint256"},{"name":"isRevealed","type":"bool","internalType":"bool"},{"name":"seed","type":"uint256","internalType":"uint256"},{"name":"backgroundColor","type":"string","internalType":"string"},{"name":"renderZ","type":"bool","internalType":"bool"}]}],"outputs":[{"name":"","type":"string","internalType":"string"},{"name":"","type":"bytes","internalType":"bytes"},{"name":"","type":"string","internalType":"string"}],"stateMutability":"view"},{"type":"function","name":"getBodySvgAndMetadata","inputs":[{"name":"storedPeter","type":"tuple","internalType":"struct IPeterStorage.StoredPeter","components":[{"name":"headId","type":"uint256","internalType":"uint256"},{"name":"hairId","type":"uint256","internalType":"uint256"},{"name":"faceId","type":"uint256","internalType":"uint256"},{"name":"accessoryId","type":"uint256","internalType":"uint256"},{"name":"topId","type":"uint256","internalType":"uint256"},{"name":"bottomId","type":"uint256","internalType":"uint256"},{"name":"shoesId","type":"uint256","internalType":"uint256"},{"name":"epoch","type":"uint32","internalType":"uint32"},{"name":"tokenId","type":"uint16","internalType":"uint16"},{"name":"bodyIndex","type":"uint256","internalType":"uint256"},{"name":"isRevealed","type":"bool","internalType":"bool"},{"name":"seed","type":"uint256","internalType":"uint256"},{"name":"backgroundColor","type":"string","internalType":"string"},{"name":"renderZ","type":"bool","internalType":"bool"}]}],"outputs":[{"name":"","type":"string","internalType":"string"},{"name":"","type":"string","internalType":"string"}],"stateMutability":"view"},{"type":"function","name":"getBodyZMap","inputs":[{"name":"_tokenId","type":"uint256","internalType":"uint256"}],"outputs":[{"name":"","type":"string","internalType":"string"}],"stateMutability":"view"},{"type":"function","name":"getEpoch","inputs":[],"outputs":[{"name":"","type":"uint256","internalType":"uint256"}],"stateMutability":"view"},{"type":"function","name":"getEpochData","inputs":[{"name":"index","type":"uint256","internalType":"uint256"}],"outputs":[{"name":"","type":"tuple","internalType":"struct CommitReveal.Epoch","components":[{"name":"randomness","type":"uint128","internalType":"uint128"},{"name":"revealBlock","type":"uint64","internalType":"uint64"},{"name":"committed","type":"bool","internalType":"bool"},{"name":"revealed","type":"bool","internalType":"bool"}]}],"stateMutability":"view"},{"type":"function","name":"getOwnerAndTBAAddressForTokenId","inputs":[{"name":"_tokenId","type":"uint256","internalType":"uint256"}],"outputs":[{"name":"owner","type":"address","internalType":"address"},{"name":"tbaAddress","type":"address","internalType":"address"}],"stateMutability":"view"},{"type":"function","name":"getPeter","inputs":[{"name":"_tokenId","type":"uint256","internalType":"uint256"}],"outputs":[{"name":"","type":"tuple","internalType":"struct IPeterStorage.StoredPeter","components":[{"name":"headId","type":"uint256","internalType":"uint256"},{"name":"hairId","type":"uint256","internalType":"uint256"},{"name":"faceId","type":"uint256","internalType":"uint256"},{"name":"accessoryId","type":"uint256","internalType":"uint256"},{"name":"topId","type":"uint256","internalType":"uint256"},{"name":"bottomId","type":"uint256","internalType":"uint256"},{"name":"shoesId","type":"uint256","internalType":"uint256"},{"name":"epoch","type":"uint32","internalType":"uint32"},{"name":"tokenId","type":"uint16","internalType":"uint16"},{"name":"bodyIndex","type":"uint256","internalType":"uint256"},{"name":"isRevealed","type":"bool","internalType":"bool"},{"name":"seed","type":"uint256","internalType":"uint256"},{"name":"backgroundColor","type":"string","internalType":"string"},{"name":"renderZ","type":"bool","internalType":"bool"}]}],"stateMutability":"view"},{"type":"function","name":"getPeterZMap","inputs":[{"name":"_tokenId","type":"uint256","internalType":"uint256"}],"outputs":[{"name":"","type":"string","internalType":"string"}],"stateMutability":"view"},{"type":"function","name":"getTBAAddressForTokenId","inputs":[{"name":"_tokenId","type":"uint256","internalType":"uint256"}],"outputs":[{"name":"","type":"address","internalType":"address"}],"stateMutability":"view"},{"type":"function","name":"getTokenRenderZ","inputs":[{"name":"_peterTokenId","type":"uint256","internalType":"uint256"}],"outputs":[{"name":"","type":"bool","internalType":"bool"}],"stateMutability":"view"},{"type":"function","name":"getTraitTokens","inputs":[{"name":"_tbaAddress","type":"address","internalType":"address"}],"outputs":[{"name":"","type":"uint256[]","internalType":"uint256[]"}],"stateMutability":"view"},{"type":"function","name":"getTraitsForTokenId","inputs":[{"name":"_tokenId","type":"uint256","internalType":"uint256"}],"outputs":[{"name":"traitTokens","type":"uint256[]","internalType":"uint256[]"}],"stateMutability":"view"},{"type":"function","name":"isApprovedForAll","inputs":[{"name":"owner","type":"address","internalType":"address"},{"name":"operator","type":"address","internalType":"address"}],"outputs":[{"name":"","type":"bool","internalType":"bool"}],"stateMutability":"view"},{"type":"function","name":"mainRenderer","inputs":[],"outputs":[{"name":"","type":"address","internalType":"contract MainRenderer"}],"stateMutability":"view"},{"type":"function","name":"mint","inputs":[],"outputs":[],"stateMutability":"payable"},{"type":"function","name":"name","inputs":[],"outputs":[{"name":"","type":"string","internalType":"string"}],"stateMutability":"view"},{"type":"function","name":"owner","inputs":[],"outputs":[{"name":"result","type":"address","internalType":"address"}],"stateMutability":"view"},{"type":"function","name":"ownerOf","inputs":[{"name":"tokenId","type":"uint256","internalType":"uint256"}],"outputs":[{"name":"","type":"address","internalType":"address"}],"stateMutability":"view"},{"type":"function","name":"ownershipHandoverExpiresAt","inputs":[{"name":"pendingOwner","type":"address","internalType":"address"}],"outputs":[{"name":"result","type":"uint256","internalType":"uint256"}],"stateMutability":"view"},{"type":"function","name":"price","inputs":[],"outputs":[{"name":"","type":"uint256","internalType":"uint256"}],"stateMutability":"view"},{"type":"function","name":"renderAsDataUri","inputs":[{"name":"_tokenId","type":"uint256","internalType":"uint256"}],"outputs":[{"name":"","type":"string","internalType":"string"}],"stateMutability":"view"},{"type":"function","name":"renderAsDataUriSVG","inputs":[{"name":"_tokenId","type":"uint256","internalType":"uint256"}],"outputs":[{"name":"","type":"string","internalType":"string"}],"stateMutability":"view"},{"type":"function","name":"renderAsDataUriZ","inputs":[{"name":"_tokenId","type":"uint256","internalType":"uint256"}],"outputs":[{"name":"","type":"string","internalType":"string"}],"stateMutability":"view"},{"type":"function","name":"renounceOwnership","inputs":[],"outputs":[],"stateMutability":"payable"},{"type":"function","name":"requestOwnershipHandover","inputs":[],"outputs":[],"stateMutability":"payable"},{"type":"function","name":"resolveEpochIfNecessary","inputs":[],"outputs":[],"stateMutability":"nonpayable"},{"type":"function","name":"safeTransferFrom","inputs":[{"name":"from","type":"address","internalType":"address"},{"name":"to","type":"address","internalType":"address"},{"name":"tokenId","type":"uint256","internalType":"uint256"}],"outputs":[],"stateMutability":"nonpayable"},{"type":"function","name":"safeTransferFrom","inputs":[{"name":"from","type":"address","internalType":"address"},{"name":"to","type":"address","internalType":"address"},{"name":"tokenId","type":"uint256","internalType":"uint256"},{"name":"data","type":"bytes","internalType":"bytes"}],"outputs":[],"stateMutability":"nonpayable"},{"type":"function","name":"setApprovalForAll","inputs":[{"name":"operator","type":"address","internalType":"address"},{"name":"approved","type":"bool","internalType":"bool"}],"outputs":[],"stateMutability":"nonpayable"},{"type":"function","name":"setBackgroundColor","inputs":[{"name":"_peterTokenId","type":"uint256","internalType":"uint256"},{"name":"_color","type":"string","internalType":"string"}],"outputs":[],"stateMutability":"nonpayable"},{"type":"function","name":"setBodyIndex","inputs":[{"name":"_peterTokenId","type":"uint256","internalType":"uint256"},{"name":"_bodyIndex","type":"uint256","internalType":"uint256"}],"outputs":[],"stateMutability":"nonpayable"},{"type":"function","name":"setFirstSeasonRenderMinter","inputs":[{"name":"_dataContract","type":"address","internalType":"address"}],"outputs":[],"stateMutability":"nonpayable"},{"type":"function","name":"setMainRenderer","inputs":[{"name":"_mainRenderer","type":"address","internalType":"address"}],"outputs":[],"stateMutability":"nonpayable"},{"type":"function","name":"setMaxTraitsToOutput","inputs":[{"name":"_maxTraitsToOutput","type":"uint256","internalType":"uint256"}],"outputs":[],"stateMutability":"nonpayable"},{"type":"function","name":"setPrice","inputs":[{"name":"_priceInWei","type":"uint256","internalType":"uint256"}],"outputs":[],"stateMutability":"nonpayable"},{"type":"function","name":"setTokenRenderZ","inputs":[{"name":"_peterTokenId","type":"uint256","internalType":"uint256"},{"name":"_renderZ","type":"bool","internalType":"bool"}],"outputs":[],"stateMutability":"nonpayable"},{"type":"function","name":"setTraitsContract","inputs":[{"name":"_address","type":"address","internalType":"contract PeterTraits"}],"outputs":[],"stateMutability":"nonpayable"},{"type":"function","name":"setZRenderer","inputs":[{"name":"_zRenderer","type":"address","internalType":"address"}],"outputs":[],"stateMutability":"nonpayable"},{"type":"function","name":"supportsInterface","inputs":[{"name":"interfaceId","type":"bytes4","internalType":"bytes4"}],"outputs":[{"name":"","type":"bool","internalType":"bool"}],"stateMutability":"view"},{"type":"function","name":"symbol","inputs":[],"outputs":[{"name":"","type":"string","internalType":"string"}],"stateMutability":"view"},{"type":"function","name":"tokenByIndex","inputs":[{"name":"index","type":"uint256","internalType":"uint256"}],"outputs":[{"name":"","type":"uint256","internalType":"uint256"}],"stateMutability":"view"},{"type":"function","name":"tokenIdToTBAAccountAddress","inputs":[{"name":"","type":"uint256","internalType":"uint256"}],"outputs":[{"name":"","type":"uint160","internalType":"uint160"}],"stateMutability":"view"},{"type":"function","name":"tokenOfOwnerByIndex","inputs":[{"name":"owner","type":"address","internalType":"address"},{"name":"index","type":"uint256","internalType":"uint256"}],"outputs":[{"name":"","type":"uint256","internalType":"uint256"}],"stateMutability":"view"},{"type":"function","name":"tokenURI","inputs":[{"name":"_tokenId","type":"uint256","internalType":"uint256"}],"outputs":[{"name":"","type":"string","internalType":"string"}],"stateMutability":"view"},{"type":"function","name":"totalSupply","inputs":[],"outputs":[{"name":"","type":"uint256","internalType":"uint256"}],"stateMutability":"view"},{"type":"function","name":"traitsContract","inputs":[],"outputs":[{"name":"","type":"address","internalType":"contract PeterTraits"}],"stateMutability":"view"},{"type":"function","name":"transferFrom","inputs":[{"name":"from","type":"address","internalType":"address"},{"name":"to","type":"address","internalType":"address"},{"name":"tokenId","type":"uint256","internalType":"uint256"}],"outputs":[],"stateMutability":"nonpayable"},{"type":"function","name":"transferOwnership","inputs":[{"name":"newOwner","type":"address","internalType":"address"}],"outputs":[],"stateMutability":"payable"},{"type":"function","name":"unequipAccessory","inputs":[{"name":"_peterTokenId","type":"uint256","internalType":"uint256"}],"outputs":[],"stateMutability":"nonpayable"},{"type":"function","name":"unequipAll","inputs":[{"name":"_peterTokenId","type":"uint256","internalType":"uint256"}],"outputs":[],"stateMutability":"nonpayable"},{"type":"function","name":"unequipBottom","inputs":[{"name":"_peterTokenId","type":"uint256","internalType":"uint256"}],"outputs":[],"stateMutability":"nonpayable"},{"type":"function","name":"unequipFace","inputs":[{"name":"_peterTokenId","type":"uint256","internalType":"uint256"}],"outputs":[],"stateMutability":"nonpayable"},{"type":"function","name":"unequipHair","inputs":[{"name":"_peterTokenId","type":"uint256","internalType":"uint256"}],"outputs":[],"stateMutability":"nonpayable"},{"type":"function","name":"unequipHead","inputs":[{"name":"_peterTokenId","type":"uint256","internalType":"uint256"}],"outputs":[],"stateMutability":"nonpayable"},{"type":"function","name":"unequipShoes","inputs":[{"name":"_peterTokenId","type":"uint256","internalType":"uint256"}],"outputs":[],"stateMutability":"nonpayable"},{"type":"function","name":"unequipTop","inputs":[{"name":"_peterTokenId","type":"uint256","internalType":"uint256"}],"outputs":[],"stateMutability":"nonpayable"},{"type":"function","name":"walletOfOwner","inputs":[{"name":"_owner","type":"address","internalType":"address"}],"outputs":[{"name":"","type":"uint256[]","internalType":"uint256[]"}],"stateMutability":"view"},{"type":"function","name":"zRenderer","inputs":[],"outputs":[{"name":"","type":"address","internalType":"contract ZRenderer"}],"stateMutability":"view"},{"type":"event","name":"Approval","inputs":[{"name":"owner","type":"address","indexed":true,"internalType":"address"},{"name":"approved","type":"address","indexed":true,"internalType":"address"},{"name":"tokenId","type":"uint256","indexed":true,"internalType":"uint256"}],"anonymous":false},{"type":"event","name":"ApprovalForAll","inputs":[{"name":"owner","type":"address","indexed":true,"internalType":"address"},{"name":"operator","type":"address","indexed":true,"internalType":"address"},{"name":"approved","type":"bool","indexed":false,"internalType":"bool"}],"anonymous":false},{"type":"event","name":"BatchMetadataUpdate","inputs":[{"name":"_fromTokenId","type":"uint256","indexed":false,"internalType":"uint256"},{"name":"_toTokenId","type":"uint256","indexed":false,"internalType":"uint256"}],"anonymous":false},{"type":"event","name":"Equip","inputs":[{"name":"owner","type":"address","indexed":true,"internalType":"address"},{"name":"tokenId","type":"uint256","indexed":true,"internalType":"uint256"},{"name":"traitTokenId","type":"uint256","indexed":true,"internalType":"uint256"},{"name":"traitCategory","type":"string","indexed":false,"internalType":"string"}],"anonymous":false},{"type":"event","name":"EquipAll","inputs":[{"name":"owner","type":"address","indexed":true,"internalType":"address"},{"name":"tokenId","type":"uint256","indexed":true,"internalType":"uint256"}],"anonymous":false},{"type":"event","name":"MetadataUpdate","inputs":[{"name":"_tokenId","type":"uint256","indexed":false,"internalType":"uint256"}],"anonymous":false},{"type":"event","name":"Mint","inputs":[{"name":"owner","type":"address","indexed":true,"internalType":"address"},{"name":"tokenId","type":"uint256","indexed":true,"internalType":"uint256"}],"anonymous":false},{"type":"event","name":"NewEpoch","inputs":[{"name":"epoch","type":"uint256","indexed":true,"internalType":"uint256"},{"name":"revealBlock","type":"uint64","indexed":true,"internalType":"uint64"}],"anonymous":false},{"type":"event","name":"OwnershipHandoverCanceled","inputs":[{"name":"pendingOwner","type":"address","indexed":true,"internalType":"address"}],"anonymous":false},{"type":"event","name":"OwnershipHandoverRequested","inputs":[{"name":"pendingOwner","type":"address","indexed":true,"internalType":"address"}],"anonymous":false},{"type":"event","name":"OwnershipTransferred","inputs":[{"name":"oldOwner","type":"address","indexed":true,"internalType":"address"},{"name":"newOwner","type":"address","indexed":true,"internalType":"address"}],"anonymous":false},{"type":"event","name":"Transfer","inputs":[{"name":"from","type":"address","indexed":true,"internalType":"address"},{"name":"to","type":"address","indexed":true,"internalType":"address"},{"name":"tokenId","type":"uint256","indexed":true,"internalType":"uint256"}],"anonymous":false},{"type":"event","name":"Unequip","inputs":[{"name":"owner","type":"address","indexed":true,"internalType":"address"},{"name":"tokenId","type":"uint256","indexed":true,"internalType":"uint256"},{"name":"traitCategory","type":"string","indexed":true,"internalType":"string"}],"anonymous":false},{"type":"event","name":"UnequipAll","inputs":[{"name":"owner","type":"address","indexed":true,"internalType":"address"},{"name":"tokenId","type":"uint256","indexed":true,"internalType":"uint256"}],"anonymous":false},{"type":"error","name":"AlreadyInitialized","inputs":[]},{"type":"error","name":"BodyAlreadyExists","inputs":[]},{"type":"error","name":"FirstSeasonRenderMinterNotSet","inputs":[]},{"type":"error","name":"IncorrectPeterOwner","inputs":[]},{"type":"error","name":"IncorrectTBAOwner","inputs":[]},{"type":"error","name":"IncorrectTraitType","inputs":[]},{"type":"error","name":"NewOwnerIsZeroAddress","inputs":[]},{"type":"error","name":"NoHandoverRequest","inputs":[]},{"type":"error","name":"PeterDoesntExist","inputs":[]},{"type":"error","name":"Unauthorized","inputs":[]}],"bytecode":{"object":"0x6080604052600060105560456012553480156200001b57600080fd5b5060405162005e7b38038062005e7b8339810160408190526200003e9162000106565b6040518060400160405280600a81526020016914195d195c8815195cdd60b21b815250604051806040016040528060058152602001642822aa22a960d91b8152508160009081620000909190620001d8565b5060016200009f8282620001d8565b505050620000b333620000ca60201b60201c565b600a805460ff1916911515919091179055620002a4565b6001600160a01b0316638b78c6d8198190558060007f8be0079c531659141344cd1fd0a4f28419497f9722a3daafe3b4186f6b6457e08180a350565b6000602082840312156200011957600080fd5b815180151581146200012a57600080fd5b9392505050565b634e487b7160e01b600052604160045260246000fd5b600181811c908216806200015c57607f821691505b6020821081036200017d57634e487b7160e01b600052602260045260246000fd5b50919050565b601f821115620001d3576000816000526020600020601f850160051c81016020861015620001ae5750805b601f850160051c820191505b81811015620001cf57828155600101620001ba565b5050505b505050565b81516001600160401b03811115620001f457620001f462000131565b6200020c8162000205845462000147565b8462000183565b602080601f8311600181146200024457600084156200022b5750858301515b600019600386901b1c1916600185901b178555620001cf565b600085815260208120601f198616915b82811015620002755788860151825594840194600190910190840162000254565b5085821015620002945787850151600019600388901b60f8161c191681555b5050505050600190811b01905550565b615bc780620002b46000396000f3fe6080604052600436106104735760003560e01c80636352211e1161024a5780639c7be2f111610139578063cc9a5d37116100b6578063f04e283e1161007a578063f04e283e14610f15578063f18dc22d14610f28578063f2361e2314610f48578063f2fde38b14610f68578063fee81cf414610f7b57600080fd5b8063cc9a5d3714610e2c578063d5b55c8b14610e6c578063d68c4f3214610e8c578063e37db3c214610eac578063e985e9c514610ecc57600080fd5b8063b28fbe40116100fd578063b28fbe4014610d7f578063b88d4fde14610d9f578063be928ff614610dbf578063c093afdb14610dec578063c87b56dd14610e0c57600080fd5b80639c7be2f114610cf4578063a035b1fe14610d09578063a15c561b14610d1f578063a1d6268014610d3f578063a22cb46514610d5f57600080fd5b8063859e7d32116101c757806394cbd9c41161018b57806394cbd9c414610c4957806395d89b4114610c69578063998cfb6e14610c7e5780639c05d68d14610c9e5780639c76201514610cd457600080fd5b8063859e7d3214610ad35780638da5cb5b14610bba5780638e29d3e914610bd3578063916c546b14610c0957806391b7f5ed14610c2957600080fd5b80637557f2dc1161020e5780637557f2dc14610a2b578063757991a814610a4b5780637afe8d3414610a605780638200ea5114610a80578063850ad51a14610ab357600080fd5b80636352211e14610995578063661ee23a146109b557806366b89b5a146109e357806370a0823114610a03578063715018a614610a2357600080fd5b80632bd1ca451161036657806345d2d7bd116102e357806358180d35116102a757806358180d35146108f557806358a97640146109155780635eabd84a1461093557806360b77b23146109555780636273ca2c1461097557600080fd5b806345d2d7bd1461085e5780634a4333a31461088d5780634ddb3961146108ad5780634f6ccce7146108cd57806354d1f13d146108ed57600080fd5b8063347bd8f41161032a578063347bd8f4146107b157806342842e0e146107d1578063438b6300146107f1578063457e7e611461081e57806345a10d0f1461083e57600080fd5b80632bd1ca45146107115780632f745c59146107315780633044825b14610751578063306c73341461077157806333d3d9bf1461079157600080fd5b806313ea0ae3116103f457806320e0b93c116103b857806320e0b93c1461069e578063239ffa68146106b457806323b872dd146106c957806325692962146106e9578063293ed3f7146106f157600080fd5b806313ea0ae3146105ff57806314fe8ff41461061f578063172b054d1461063f57806318160ddd1461065f5780631e162a331461067e57600080fd5b8063095ea7b31161043b578063095ea7b3146105675780630c83f9d7146105875780630f162320146105b7578063105338e0146105d75780631249c58b146105f757600080fd5b806301ffc9a7146104785780630447a45e146104ad57806306fdde03146104cf57806307f4e045146104f1578063081812fc1461052f575b600080fd5b34801561048457600080fd5b506104986104933660046145cc565b610fae565b60405190151581526020015b60405180910390f35b3480156104b957600080fd5b506104cd6104c83660046145e9565b610fbf565b005b3480156104db57600080fd5b506104e4611041565b6040516104a4919061465b565b3480156104fd57600080fd5b506104cd61050c366004614683565b6000918252600b6020526040909120600c01805460ff1916911515919091179055565b34801561053b57600080fd5b5061054f61054a3660046146af565b6110d3565b6040516001600160a01b0390911681526020016104a4565b34801561057357600080fd5b506104cd6105823660046146dd565b6110fa565b34801561059357600080fd5b506105a76105a23660046146af565b611214565b6040516104a49493929190614709565b3480156105c357600080fd5b506104cd6105d23660046145e9565b6113d5565b3480156105e357600080fd5b506104cd6105f23660046146af565b611446565b6104cd6114be565b34801561060b57600080fd5b5060145461054f906001600160a01b031681565b34801561062b57600080fd5b506104e461063a3660046146af565b6118d3565b34801561064b57600080fd5b506104cd61065a366004614753565b611b1a565b34801561066b57600080fd5b506008545b6040519081526020016104a4565b34801561068a57600080fd5b506104cd6106993660046145e9565b611b44565b3480156106aa57600080fd5b5061067060125481565b3480156106c057600080fd5b506104cd611bb2565b3480156106d557600080fd5b506104cd6106e4366004614770565b611d8e565b6104cd611dbf565b3480156106fd57600080fd5b506104cd61070c3660046146af565b611e0e565b34801561071d57600080fd5b506104e461072c3660046146af565b611e45565b34801561073d57600080fd5b5061067061074c3660046146dd565b611f09565b34801561075d57600080fd5b506104cd61076c3660046146af565b611f9f565b34801561077d57600080fd5b506104e461078c3660046146af565b612027565b34801561079d57600080fd5b506104cd6107ac3660046146af565b61204a565b3480156107bd57600080fd5b506104cd6107cc3660046146af565b612057565b3480156107dd57600080fd5b506104cd6107ec366004614770565b612088565b3480156107fd57600080fd5b5061081161080c366004614753565b6120a3565b6040516104a491906147b1565b34801561082a57600080fd5b506104cd6108393660046145e9565b61213a565b34801561084a57600080fd5b506104cd6108593660046145e9565b61219f565b34801561086a57600080fd5b5061087e610879366004614907565b612212565b6040516104a493929190614a1d565b34801561089957600080fd5b506104cd6108a8366004614a60565b612401565b3480156108b957600080fd5b506104cd6108c8366004614753565b6124ba565b3480156108d957600080fd5b506106706108e83660046146af565b6124e4565b6104cd612577565b34801561090157600080fd5b506104cd6109103660046146af565b6125b3565b34801561092157600080fd5b506104cd610930366004614753565b6125e6565b34801561094157600080fd5b506104cd610950366004614753565b612610565b34801561096157600080fd5b506104cd6109703660046145e9565b61263a565b34801561098157600080fd5b506104cd6109903660046146af565b6126ac565b3480156109a157600080fd5b5061054f6109b03660046146af565b612730565b3480156109c157600080fd5b506109d56109d0366004614907565b612790565b6040516104a4929190614ab5565b3480156109ef57600080fd5b5060155461054f906001600160a01b031681565b348015610a0f57600080fd5b50610670610a1e366004614753565b61283c565b6104cd6128c2565b348015610a3757600080fd5b506104e4610a463660046146af565b6128d6565b348015610a5757600080fd5b50600d54610670565b348015610a6c57600080fd5b506104cd610a7b3660046146af565b612bab565b348015610a8c57600080fd5b50610498610a9b3660046146af565b6000908152600b60205260409020600c015460ff1690565b348015610abf57600080fd5b50610811610ace3660046146af565b612bda565b348015610adf57600080fd5b50610b71610aee3660046146af565b6040805160808082018352600080835260208084018290528385018290526060938401829052948152600c855283902083519182018452546001600160801b03811682526001600160401b03600160801b8204169482019490945260ff600160c01b85048116151593820193909352600160c81b90930490911615159082015290565b6040516104a4919081516001600160801b031681526020808301516001600160401b03169082015260408083015115159082015260609182015115159181019190915260800190565b348015610bc657600080fd5b50638b78c6d8195461054f565b348015610bdf57600080fd5b5061054f610bee3660046146af565b6000908152601360205260409020546001600160a01b031690565b348015610c1557600080fd5b506104e4610c243660046146af565b612c05565b348015610c3557600080fd5b506104cd610c443660046146af565b612d22565b348015610c5557600080fd5b506104cd610c643660046145e9565b612d2f565b348015610c7557600080fd5b506104e4612da0565b348015610c8a57600080fd5b50610811610c99366004614753565b612daf565b348015610caa57600080fd5b5061054f610cb93660046146af565b6013602052600090815260409020546001600160a01b031681565b348015610ce057600080fd5b506104cd610cef3660046146af565b612e25565b348015610d0057600080fd5b506104cd612e59565b348015610d1557600080fd5b5061067060115481565b348015610d2b57600080fd5b5060165461054f906001600160a01b031681565b348015610d4b57600080fd5b506104e4610d5a3660046146af565b612f26565b348015610d6b57600080fd5b506104cd610d7a366004614ae3565b612f56565b348015610d8b57600080fd5b506104e4610d9a3660046146af565b612f65565b348015610dab57600080fd5b506104cd610dba366004614b0f565b6131e9565b348015610dcb57600080fd5b50610ddf610dda3660046146af565b613221565b6040516104a49190614b7a565b348015610df857600080fd5b50600f5461054f906001600160a01b031681565b348015610e1857600080fd5b506104e4610e273660046146af565b6134de565b348015610e3857600080fd5b50610e4c610e473660046146af565b613534565b604080516001600160a01b039384168152929091166020830152016104a4565b348015610e7857600080fd5b506104cd610e873660046146af565b613563565b348015610e9857600080fd5b506104cd610ea7366004614c56565b613595565b348015610eb857600080fd5b506104e4610ec7366004614c9c565b6135f2565b348015610ed857600080fd5b50610498610ee7366004614cd0565b6001600160a01b03918216600090815260056020908152604080832093909416825291909152205460ff1690565b6104cd610f23366004614753565b6138a4565b348015610f3457600080fd5b506104cd610f433660046145e9565b6138e1565b348015610f5457600080fd5b506104cd610f63366004614d09565b613951565b6104cd610f76366004614753565b61399e565b348015610f8757600080fd5b50610670610f96366004614753565b63389a75e1600c908152600091909152602090205490565b6000610fb9826139c5565b92915050565b610fc982826139ea565b610fd4816004613aa9565b6000828152600b602052604090206003018190558082610ff381612730565b6001600160a01b031660008051602061566d833981519152604051611035906020808252600990820152684163636573736f727960b81b604082015260600190565b60405180910390a45050565b60606000805461105090614d8e565b80601f016020809104026020016040519081016040528092919081815260200182805461107c90614d8e565b80156110c95780601f1061109e576101008083540402835291602001916110c9565b820191906000526020600020905b8154815290600101906020018083116110ac57829003601f168201915b5050505050905090565b60006110de82613bab565b506000908152600460205260409020546001600160a01b031690565b600061110582612730565b9050806001600160a01b0316836001600160a01b0316036111775760405162461bcd60e51b815260206004820152602160248201527f4552433732313a20617070726f76616c20746f2063757272656e74206f776e656044820152603960f91b60648201526084015b60405180910390fd5b336001600160a01b038216148061119357506111938133610ee7565b6112055760405162461bcd60e51b815260206004820152603e60248201527f4552433732313a20617070726f76652063616c6c6572206973206e6f7420746f60448201527f6b656e206f776e6572206e6f7220617070726f76656420666f7220616c6c0000606482015260840161116e565b61120f8383613c0a565b505050565b600e602052600090815260409020805460018201805491929161123690614d8e565b80601f016020809104026020016040519081016040528092919081815260200182805461126290614d8e565b80156112af5780601f10611284576101008083540402835291602001916112af565b820191906000526020600020905b81548152906001019060200180831161129257829003601f168201915b5050505050908060020180546112c490614d8e565b80601f01602080910402602001604051908101604052809291908181526020018280546112f090614d8e565b801561133d5780601f106113125761010080835404028352916020019161133d565b820191906000526020600020905b81548152906001019060200180831161132057829003601f168201915b50505050509080600301805461135290614d8e565b80601f016020809104026020016040519081016040528092919081815260200182805461137e90614d8e565b80156113cb5780601f106113a0576101008083540402835291602001916113cb565b820191906000526020600020905b8154815290600101906020018083116113ae57829003601f168201915b5050505050905084565b6113df82826139ea565b6113ea816003613aa9565b6000828152600b60205260409020600201819055808261140981612730565b6001600160a01b031660008051602061566d833981519152604051611035906020808252600490820152634661636560e01b604082015260600190565b61144f81613c78565b6000818152600b60205260408082206001019190915551632430b4b960e11b81526004015b60405180910390208161148683612730565b6001600160a01b03167fe428b1839105819dce5e635ac7e16ed2a43028f6e294bab8655e29acb5dc60bb60405160405180910390a450565b6014546001600160a01b03166114e757604051633390ca8960e21b815260040160405180910390fd5b60076114f1611bb2565b600060106000815461150290614dde565b918290555090506115133382613cb2565b604051638a54c52f60e01b81527355266d75d1a14e4572138116af39863ed6596e7f600482015260006024820181905262014a34604483015230606483015260848201839052906f6551c19487814612e58fe0681377575890638a54c52f9060a4016020604051808303816000875af1158015611594573d6000803e3d6000fd5b505050506040513d601f19601f820116820180604052508101906115b89190614df7565b6000838152601360205260409081902080546001600160a01b0319166001600160a01b038416908117909155905163189acdbd60e31b81527341c8f39463a868d3a88af00cd0fe7102f30e44ec60048201529192509063c4d66de890602401600060405180830381600087803b15801561163157600080fd5b505af1158015611645573d6000803e3d6000fd5b5050601454604051638fe4a24560e01b81526001600160a01b03858116600483015260248201889052600094509091169150638fe4a245906044016000604051808303816000875af115801561169f573d6000803e3d6000fd5b505050506040513d6000823e601f3d908101601f191682016040526116c79190810190614e14565b6000848152600b60205260408120600d5460078201805461ffff8916600a850181905563ffffffff90931665ffffffffffff199091161764010000000090920291909117905582519293509183919061172257611722614eb9565b602002602001015181600601819055508160018151811061174557611745614eb9565b602002602001015181600501819055508160028151811061176857611768614eb9565b6020026020010151816004018190555060038511156117a5578160038151811061179457611794614eb9565b602002602001015181600101819055505b60048511156117d257816004815181106117c1576117c1614eb9565b602002602001015181600201819055505b60058511156117fc57816005815181106117ee576117ee614eb9565b602090810291909101015181555b6006851115611829578160068151811061181857611818614eb9565b602002602001015181600301819055505b600c8101805460ff19169055600160088201556040805180820190915260068152650c110d914e5160d21b6020820152600b8201906118689082614f17565b50604051849033907f0f6798a560793a54c3bcfe86a93cde1e73087d944c0ea20544137d412139688590600090a36118cc6040518060400160405280601481526020017336b4b73a32b2103137b23c903a37b5b2b724b21d60611b81525085613e00565b5050505050565b606060006118e083612bda565b905060006040518060400160405280601b81526020017f3c7376672076696577426f783d223020302031353020313530223e000000000081525090506000604051806040016040528060068152602001651e17b9bb339f60d11b815250905060606000600f60009054906101000a90046001600160a01b03166001600160a01b0316635c1ef2566040518163ffffffff1660e01b8152600401600060405180830381865afa158015611996573d6000803e3d6000fd5b505050506040513d6000823e601f3d908101601f191682016040526119be9190810190615026565b905060006012548651106119d4576012546119d7565b85515b9050604051806105400160405280610505815260200161568d610505913982604051602001611a0792919061505a565b604051602081830303815290604052925060005b81811015611aec57600f5487516000916001600160a01b03169063c7791531908a9085908110611a4d57611a4d614eb9565b60200260200101516040518263ffffffff1660e01b8152600401611a7391815260200190565b600060405180830381865afa158015611a90573d6000803e3d6000fd5b505050506040513d6000823e601f3d908101601f19168201604052611ab89190810190615026565b905084878288604051602001611ad194939291906150b1565b60408051601f19818403018152919052945050600101611a1b565b5082604051602001611afe9190615108565b60408051601f1981840301815291905298975050505050505050565b611b22613e45565b601680546001600160a01b0319166001600160a01b0392909216919091179055565b611b4e82826139ea565b611b59816001613aa9565b6000828152600b602052604090208190558082611b7581612730565b6001600160a01b031660008051602061566d833981519152604051611035906020808252600490820152631219585960e21b604082015260600190565b600d546000908152600c602052604090208054600160c01b900460ff161580611c0a57508054600160c81b900460ff16158015611c0a5750611bf661010043615130565b8154600160801b90046001600160401b0316105b15611c5557611c1a436032615143565b815460ff60c01b196001600160401b0392909216600160801b029190911668ffffffffffffffffff60801b1990911617600160c01b17815550565b8054600160801b90046001600160401b0316431115611d8b57805460408051600160801b9092046001600160401b031640602083015244908201526001600160801b03906060016040516020818303038152906040528051906020012060001c611cbf919061516c565b8154600160c81b6001600160801b039290921679ff000000000000000000ffffffffffffffffffffffffffffffff199091161717808255600d54604051600160801b9092046001600160401b0316917f78611aecfda8d341359c248df527c95aef93d446c92bb928b2a81b7abcb1d8d990600090a3604080516000815260001960208201527f6bd5c950a8d8df17f772f5af37cb3655737899cbf903264b9795592da439661c910160405180910390a1600d8054600090611d7f90614dde565b90915550611d8b611bb2565b50565b611d983382613e60565b611db45760405162461bcd60e51b815260040161116e90615180565b61120f838383613edf565b60006202a3006001600160401b03164201905063389a75e1600c5233600052806020600c2055337fdbf36a107da19e49527a7176a1babf963b4b0ff8cde35ee35d6cd8f1f9ac7e1d600080a250565b611e1781613c78565b6000818152600b60205260408082206003019190915551684163636573736f727960b81b8152600901611474565b60608060606000611e5585613221565b9050611e6081612212565b50600f54604051630de6a96560e11b81529195506001600160a01b03169150631bcd52ca90611e93908490600401614b7a565b600060405180830381865afa158015611eb0573d6000803e3d6000fd5b505050506040513d6000823e601f3d908101601f19168201604052611ed891908101906151ce565b50604051909350611ef091508490849060200161526c565b6040516020818303038152906040529350505050919050565b6000611f148361283c565b8210611f765760405162461bcd60e51b815260206004820152602b60248201527f455243373231456e756d657261626c653a206f776e657220696e646578206f7560448201526a74206f6620626f756e647360a81b606482015260840161116e565b506001600160a01b03919091166000908152600660209081526040808320938352929052205490565b611fa881613c78565b6000818152600b602052604081208181556001810182905560028101829055600381018290556004810182905560058101829055600681019190915581611fee81612730565b6001600160a01b03167f46078a2cd4c69c3b4a27bdc69fdfe03d442ebcf405f1a68e9b5df6bc3e24429760405160405180910390a35050565b606080600061203584613221565b905061204081612212565b5095945050505050565b612052613e45565b601255565b61206081613c78565b6000818152600b60205260408082206004019190915551620546f760ec1b8152600301611474565b61120f838383604051806020016040528060008152506131e9565b606060006120b08361283c565b90506000816001600160401b038111156120cc576120cc6147f5565b6040519080825280602002602001820160405280156120f5578160200160208202803683370190505b50905060005b828110156121325761210d8582611f09565b82828151811061211f5761211f614eb9565b60209081029190910101526001016120fb565b509392505050565b60018110806121495750600481115b1561218a5760405162461bcd60e51b8152602060048201526011602482015270092dcecc2d8d2c840c4dec8f292dcc8caf607b1b604482015260640161116e565b6000918252600b602052604090912060080155565b6121a982826139ea565b6121b4816006613aa9565b6000828152600b6020526040902060050181905580826121d381612730565b6001600160a01b031660008051602061566d83398151915260405161103590602080825260069082015265426f74746f6d60d01b604082015260600190565b6060806060836101400151612270576040518060a00160405280606581526020016156086065913960405180602001604052806000815250604051806040016040528060028152602001617b7d60f01b8152509250925092506123fa565b61227e846101200151612c05565b600e6000866101200151815260200190815260200160002060030161236760405180604001604052806009815260200168426f6479205479706560b81b815250600e6000896101200151815260200190815260200160002060010180546122e490614d8e565b80601f016020809104026020016040519081016040528092919081815260200182805461231090614d8e565b801561235d5780601f106123325761010080835404028352916020019161235d565b820191906000526020600020905b81548152906001019060200180831161234057829003601f168201915b5050505050614086565b81805461237390614d8e565b80601f016020809104026020016040519081016040528092919081815260200182805461239f90614d8e565b80156123ec5780601f106123c1576101008083540402835291602001916123ec565b820191906000526020600020905b8154815290600101906020018083116123cf57829003601f168201915b505050505091509250925092505b9193909250565b8615612411576124118888611b44565b8515612421576124218887612d2f565b84156124315761243188866113d5565b8315612441576124418885610fbf565b82156124515761245188846138e1565b811561246157612461888361219f565b801561247157612471888261263a565b8761247b89612730565b6001600160a01b03167f56680590212b09eb4b72a2eba8801b037ec046dfc754538e924f5bb6a8c4db6c60405160405180910390a35050505050505050565b6124c2613e45565b601580546001600160a01b0319166001600160a01b0392909216919091179055565b60006124ef60085490565b82106125525760405162461bcd60e51b815260206004820152602c60248201527f455243373231456e756d657261626c653a20676c6f62616c20696e646578206f60448201526b7574206f6620626f756e647360a01b606482015260840161116e565b6008828154811061256557612565614eb9565b90600052602060002001549050919050565b63389a75e1600c523360005260006020600c2055337ffa7b8eab7da67f412cc9575ed43464468f9bfbae89d1675917346ca6d8fe3c92600080a2565b6125bc81613c78565b6000818152600b602052604080822060060191909155516453686f657360d81b8152600501611474565b6125ee613e45565b601480546001600160a01b0319166001600160a01b0392909216919091179055565b612618613e45565b600f80546001600160a01b0319166001600160a01b0392909216919091179055565b61264482826139ea565b61264f816007613aa9565b6000828152600b60205260409020600601819055808261266e81612730565b6001600160a01b031660008051602061566d8339815191526040516110359060208082526005908201526453686f657360d81b604082015260600190565b6000818152601360205260409081902054600f5491516340d097c360e01b81526001600160a01b03918216600482018190529291909116906340d097c3906024016020604051808303816000875af115801561270c573d6000803e3d6000fd5b505050506040513d601f19601f8201168201806040525081019061120f919061529b565b6000818152600260205260408120546001600160a01b031680610fb95760405162461bcd60e51b8152602060048201526018602482015277115490cdcc8c4e881a5b9d985b1a59081d1bdad95b88125160421b604482015260640161116e565b6060808261014001516127da576040518060a001604052806065815260200161560860659139604051806040016040528060028152602001617b7d60f01b81525091509150915091565b6127e8836101200151612c05565b61283360405180604001604052806009815260200168426f6479205479706560b81b815250600e6000876101200151815260200190815260200160002060010180546122e490614d8e565b91509150915091565b60006001600160a01b0382166128a65760405162461bcd60e51b815260206004820152602960248201527f4552433732313a2061646472657373207a65726f206973206e6f7420612076616044820152683634b21037bbb732b960b91b606482015260840161116e565b506001600160a01b031660009081526003602052604090205490565b6128ca613e45565b6128d460006140b2565b565b60608060608060608060608060608060006128f08c613221565b90506128fb81612212565b600f54604051630de6a96560e11b8152939d50919a5095506001600160a01b031690631bcd52ca90612931908490600401614b7a565b600060405180830381865afa15801561294e573d6000803e3d6000fd5b505050506040513d6000823e601f3d908101601f1916820160405261297691908101906151ce565b604051929b50909850955061299190859087906020016152b4565b604051602081830303815290604052925087876040516020016129b592919061526c565b60408051601f19818403018152608083018252606080845260208401819052918301829052600091830191909152965061018082015181526129f68d612bda565b5160608201526101208201516000908152600e602052604090206001018054612a1e90614d8e565b80601f0160208091040260200160405190810160405280929190818152602001828054612a4a90614d8e565b8015612a975780601f10612a6c57610100808354040283529160200191612a97565b820191906000526020600020905b815481529060010190602001808311612a7a57829003601f168201915b50505050508160200181905250612ac08d6000908152600b60205260409020600c015460ff1690565b612ae457604051806040016040528060028152602001610c9160f21b815250612b00565b604051806040016040528060028152602001610cd160f21b8152505b8160400181905250601660009054906101000a90046001600160a01b03166001600160a01b031663cb406c948e8d888e8b8d886040518863ffffffff1660e01b8152600401612b559796959493929190615378565b600060405180830381865afa158015612b72573d6000803e3d6000fd5b505050506040513d6000823e601f3d908101601f19168201604052612b9a9190810190615026565b9d9c50505050505050505050505050565b612bb481613c78565b6000818152600b60205260408082209190915551631219585960e21b8152600401611474565b6000818152601360205260409020546060906001600160a01b0316612bfe81612daf565b9392505050565b6000818152600e60205260408120600201805460609291612cac91612c2990614d8e565b80601f0160208091040260200160405190810160405280929190818152602001828054612c5590614d8e565b8015612ca25780601f10612c7757610100808354040283529160200191612ca2565b820191906000526020600020905b815481529060010190602001808311612c8557829003601f168201915b50505050506135f2565b6015546040516335b07b7960e11b81529192506001600160a01b031690636b60f6f290612cdd90849060040161465b565b600060405180830381865afa158015612cfa573d6000803e3d6000fd5b505050506040513d6000823e601f3d908101601f19168201604052612bfe9190810190615026565b612d2a613e45565b601155565b612d3982826139ea565b612d44816002613aa9565b6000828152600b602052604090206001018190558082612d6381612730565b6001600160a01b031660008051602061566d833981519152604051611035906020808252600490820152632430b4b960e11b604082015260600190565b60606001805461105090614d8e565b600f5460405162438b6360e81b81526001600160a01b03838116600483015260609260009291169063438b630090602401600060405180830381865afa158015612dfd573d6000803e3d6000fd5b505050506040513d6000823e601f3d908101601f19168201604052612bfe9190810190614e14565b612e2e81613c78565b6000818152600b6020526040808220600501919091555165426f74746f6d60d01b8152600601611474565b600a5460ff16156128d45760005b6101f4811015612e8157612e796114be565b600101612e67565b50612eab60016040518060400160405280600681526020016533333333333360d01b815250613595565b612ed460036040518060400160405280600681526020016533333333333360d11b815250613595565b612efd60046040518060400160405280600681526020016519588c0d8e1960d21b815250613595565b6128d4600860405180604001604052806006815260200165118c90cccc0d60d21b815250613595565b60606000612f3383613221565b9050806101a00151612f4d57612f4883612f65565b612bfe565b612bfe836128d6565b612f613383836140f0565b5050565b6060806060806060806000612f7988613221565b9050612f8481612790565b600f5460405163506cbfe760e11b81529298509096506001600160a01b03169063a0d97fce90612fb8908490600401614b7a565b600060405180830381865afa158015612fd5573d6000803e3d6000fd5b505050506040513d6000823e601f3d908101601f19168201604052612ffd9190810190615401565b909450925061300b886118d3565b91506130386040518060800160405280606081526020016060815260200160608152602001600081525090565b610180820151815261304989612bda565b5160608201526101208201516000908152600e60205260409020600101805461307190614d8e565b80601f016020809104026020016040519081016040528092919081815260200182805461309d90614d8e565b80156130ea5780601f106130bf576101008083540402835291602001916130ea565b820191906000526020600020905b8154815290600101906020018083116130cd57829003601f168201915b50505050508160200181905250613113896000908152600b60205260409020600c015460ff1690565b61313757604051806040016040528060028152602001610c9160f21b815250613153565b604051806040016040528060028152602001610cd160f21b8152505b6040808301919091526015549051634e2fa37760e11b81526001600160a01b0390911690639c5f46ee90613197908c908b908b908b908b908b908a90600401615378565b600060405180830381865afa1580156131b4573d6000803e3d6000fd5b505050506040513d6000823e601f3d908101601f191682016040526131dc9190810190615026565b9998505050505050505050565b6131f33383613e60565b61320f5760405162461bcd60e51b815260040161116e90615180565b61321b848484846141be565b50505050565b6132a1604051806101c0016040528060008152602001600081526020016000815260200160008152602001600081526020016000815260200160008152602001600063ffffffff168152602001600061ffff1681526020016000815260200160001515815260200160008152602001606081526020016000151581525090565b6000828152600b6020818152604080842081516101c081018352815481526001820154938101939093526002810154918301919091526003810154606083015260048101546080830152600581015460a0830152600681015460c0830152600781015463ffffffff811660e0840152640100000000900461ffff166101008301526008810154610120830152600981015460ff161515610140830152600a81015461016083015291820180549192916101808401919061336090614d8e565b80601f016020809104026020016040519081016040528092919081815260200182805461338c90614d8e565b80156133d95780601f106133ae576101008083540402835291602001916133d9565b820191906000526020600020905b8154815290600101906020018083116133bc57829003601f168201915b5050509183525050600c9182015460ff16151560209182015260e083015163ffffffff1660009081529181526040918290205461010084015192519394506001600160801b0390811693909261345f9285920160809290921b6fffffffffffffffffffffffffffffffff1916825260f01b6001600160f01b031916601082015260120190565b6040516020818303038152906040528051906020012060001c613482919061516c565b610160830152600a5460ff1615156001146134a9576000816001600160801b0316116134ac565b60015b15156101408301526101608201516134c69060049061516c565b6134d1906001615143565b6101208301525092915050565b6000818152600260205260409020546060906001600160a01b031661351657604051631a65aaab60e31b815260040160405180910390fd5b5050604080518082019091526002815261796f60f01b602082015290565b60008061354083612730565b6000938452601360205260409093205492936001600160a01b0390931692915050565b61356c81613c78565b6000818152600b60205260408082206002019190915551634661636560e01b8152600401611474565b80516006146135d65760405162461bcd60e51b815260206004820152600d60248201526c24b73b30b634b21031b7b637b960991b604482015260640161116e565b6000828152600b602081905260409091200161120f8282614f17565b8051606090801580159061360e575061360c60058261516c565b155b61365a5760405162461bcd60e51b815260206004820152601960248201527f496e76616c696420626f6479206279746573206c656e67746800000000000000604482015260640161116e565b604080516111948082526111c08201909252600091602082018180368337019050509050600061368b60058461545a565b905060005b8181101561389a5760006136a582600561546e565b905060008782815181106136bb576136bb614eb9565b016020015160f81c90506000886136d3846001615143565b815181106136e3576136e3614eb9565b016020015160f81c9050600060ff83166136fe83601e61546e565b6137089190615143565b61371390600561546e565b905089848151811061372757613727614eb9565b602001015160f81c60f81b87828151811061374457613744614eb9565b60200101906001600160f81b031916908160001a90535089846001018151811061377057613770614eb9565b602001015160f81c60f81b87826001018151811061379057613790614eb9565b60200101906001600160f81b031916908160001a9053508984600201815181106137bc576137bc614eb9565b602001015160f81c60f81b8782600201815181106137dc576137dc614eb9565b60200101906001600160f81b031916908160001a90535089846003018151811061380857613808614eb9565b602001015160f81c60f81b87826003018151811061382857613828614eb9565b60200101906001600160f81b031916908160001a90535089846004018151811061385457613854614eb9565b602001015160f81c60f81b87826004018151811061387457613874614eb9565b60200101906001600160f81b031916908160001a90535050505050806001019050613690565b5090949350505050565b6138ac613e45565b63389a75e1600c52806000526020600c2080544211156138d457636f5e88186000526004601cfd5b60009055611d8b816140b2565b6138eb82826139ea565b6138f6816005613aa9565b6000828152600b60205260409020600401819055808261391581612730565b6001600160a01b031660008051602061566d833981519152604051611035906020808252600390820152620546f760ec1b604082015260600190565b613959613e45565b6000848152600e60205260409020848155600181016139788582614f17565b50600281016139878482614f17565b50600381016139968382614f17565b505050505050565b6139a6613e45565b8060601b6139bc57637448fbae6000526004601cfd5b611d8b816140b2565b60006001600160e01b0319821663780e9d6360e01b1480610fb95750610fb9826141f1565b6139f382613c78565b60008281526013602052604080822054600f5491516331a9108f60e11b8152600481018590526001600160a01b0391821693929190911690636352211e90602401602060405180830381865afa158015613a51573d6000803e3d6000fd5b505050506040513d601f19601f82011682018060405250810190613a759190614df7565b9050816001600160a01b0316816001600160a01b03161461321b5760405163e6ca793160e01b815260040160405180910390fd5b600f5460405163e8a1268d60e01b8152600481018490526000916001600160a01b03169063e8a1268d90602401602060405180830381865afa158015613af3573d6000803e3d6000fd5b505050506040513d601f19601f82011682018060405250810190613b179190615485565b9050816007811115613b2b57613b2b6154a6565b604051602001613b3d91815260200190565b60405160208183030381529060405280519060200120816007811115613b6557613b656154a6565b604051602001613b7791815260200190565b604051602081830303815290604052805190602001201461120f57604051633e54c6fb60e11b815260040160405180910390fd5b6000818152600260205260409020546001600160a01b0316611d8b5760405162461bcd60e51b8152602060048201526018602482015277115490cdcc8c4e881a5b9d985b1a59081d1bdad95b88125160421b604482015260640161116e565b600081815260046020526040902080546001600160a01b0319166001600160a01b0384169081179091558190613c3f82612730565b6001600160a01b03167f8c5be1e5ebec7d5bd14f71427d1e84f3dd0314c0f7b2291e5b200ac8c7c3b92560405160405180910390a45050565b613c8181612730565b6001600160a01b0316336001600160a01b031614611d8b576040516324adc17160e11b815260040160405180910390fd5b6001600160a01b038216613d085760405162461bcd60e51b815260206004820181905260248201527f4552433732313a206d696e7420746f20746865207a65726f2061646472657373604482015260640161116e565b6000818152600260205260409020546001600160a01b031615613d6d5760405162461bcd60e51b815260206004820152601c60248201527f4552433732313a20746f6b656e20616c7265616479206d696e74656400000000604482015260640161116e565b613d7960008383614241565b6001600160a01b0382166000908152600360205260408120805460019290613da2908490615143565b909155505060008181526002602052604080822080546001600160a01b0319166001600160a01b03861690811790915590518392907fddf252ad1be2c89b69c2b068fc378daa952ba7f163c4a11628f55a4df523b3ef908290a45050565b612f618282604051602401613e169291906154bc565b60408051601f198184030181529190526020810180516001600160e01b03166309710a9d60e41b17905261424c565b638b78c6d8195433146128d4576382b429006000526004601cfd5b600080613e6c83612730565b9050806001600160a01b0316846001600160a01b03161480613eb357506001600160a01b0380821660009081526005602090815260408083209388168352929052205460ff165b80613ed75750836001600160a01b0316613ecc846110d3565b6001600160a01b0316145b949350505050565b826001600160a01b0316613ef282612730565b6001600160a01b031614613f565760405162461bcd60e51b815260206004820152602560248201527f4552433732313a207472616e736665722066726f6d20696e636f72726563742060448201526437bbb732b960d91b606482015260840161116e565b6001600160a01b038216613fb85760405162461bcd60e51b8152602060048201526024808201527f4552433732313a207472616e7366657220746f20746865207a65726f206164646044820152637265737360e01b606482015260840161116e565b613fc3838383614241565b613fce600082613c0a565b6001600160a01b0383166000908152600360205260408120805460019290613ff7908490615130565b90915550506001600160a01b0382166000908152600360205260408120805460019290614025908490615143565b909155505060008181526002602052604080822080546001600160a01b0319166001600160a01b0386811691821790925591518493918716917fddf252ad1be2c89b69c2b068fc378daa952ba7f163c4a11628f55a4df523b3ef91a4505050565b6060828260405160200161409b9291906154de565b604051602081830303815290604052905092915050565b638b78c6d81980546001600160a01b039092169182907f8be0079c531659141344cd1fd0a4f28419497f9722a3daafe3b4186f6b6457e0600080a355565b816001600160a01b0316836001600160a01b0316036141515760405162461bcd60e51b815260206004820152601960248201527f4552433732313a20617070726f766520746f2063616c6c657200000000000000604482015260640161116e565b6001600160a01b03838116600081815260056020908152604080832094871680845294825291829020805460ff191686151590811790915591519182527f17307eab39ab6107e8899845ad3d59bd9653f200f220920489ca2b5937696c31910160405180910390a3505050565b6141c9848484613edf565b6141d58484848461426d565b61321b5760405162461bcd60e51b815260040161116e9061554f565b60006001600160e01b031982166380ac58cd60e01b148061422257506001600160e01b03198216635b5e139f60e01b145b80610fb957506301ffc9a760e01b6001600160e01b0319831614610fb9565b61120f83838361436e565b80516a636f6e736f6c652e6c6f67602083016000808483855afa5050505050565b60006001600160a01b0384163b1561436357604051630a85bd0160e11b81526001600160a01b0385169063150b7a02906142b19033908990889088906004016155a1565b6020604051808303816000875af19250505080156142ec575060408051601f3d908101601f191682019092526142e9918101906155d4565b60015b614349573d80801561431a576040519150601f19603f3d011682016040523d82523d6000602084013e61431f565b606091505b5080516000036143415760405162461bcd60e51b815260040161116e9061554f565b805181602001fd5b6001600160e01b031916630a85bd0160e11b149050613ed7565b506001949350505050565b6001600160a01b0383166143c9576143c481600880546000838152600960205260408120829055600182018355919091527ff3f7a9fe364faab93b216da50a3214154f22a0a2b415b23a84c8169e8b636ee30155565b6143ec565b816001600160a01b0316836001600160a01b0316146143ec576143ec8382614426565b6001600160a01b0382166144035761120f816144c3565b826001600160a01b0316826001600160a01b03161461120f5761120f8282614572565b600060016144338461283c565b61443d9190615130565b600083815260076020526040902054909150808214614490576001600160a01b03841660009081526006602090815260408083208584528252808320548484528184208190558352600790915290208190555b5060009182526007602090815260408084208490556001600160a01b039094168352600681528383209183525290812055565b6008546000906144d590600190615130565b600083815260096020526040812054600880549394509092849081106144fd576144fd614eb9565b90600052602060002001549050806008838154811061451e5761451e614eb9565b6000918252602080832090910192909255828152600990915260408082208490558582528120556008805480614556576145566155f1565b6001900381819060005260206000200160009055905550505050565b600061457d8361283c565b6001600160a01b039093166000908152600660209081526040808320868452825280832085905593825260079052919091209190915550565b6001600160e01b031981168114611d8b57600080fd5b6000602082840312156145de57600080fd5b8135612bfe816145b6565b600080604083850312156145fc57600080fd5b50508035926020909101359150565b60005b8381101561462657818101518382015260200161460e565b50506000910152565b6000815180845261464781602086016020860161460b565b601f01601f19169290920160200192915050565b602081526000612bfe602083018461462f565b8035801515811461467e57600080fd5b919050565b6000806040838503121561469657600080fd5b823591506146a66020840161466e565b90509250929050565b6000602082840312156146c157600080fd5b5035919050565b6001600160a01b0381168114611d8b57600080fd5b600080604083850312156146f057600080fd5b82356146fb816146c8565b946020939093013593505050565b848152608060208201526000614722608083018661462f565b8281036040840152614734818661462f565b90508281036060840152614748818561462f565b979650505050505050565b60006020828403121561476557600080fd5b8135612bfe816146c8565b60008060006060848603121561478557600080fd5b8335614790816146c8565b925060208401356147a0816146c8565b929592945050506040919091013590565b6020808252825182820181905260009190848201906040850190845b818110156147e9578351835292840192918401916001016147cd565b50909695505050505050565b634e487b7160e01b600052604160045260246000fd5b6040516101c081016001600160401b038111828210171561482e5761482e6147f5565b60405290565b604051601f8201601f191681016001600160401b038111828210171561485c5761485c6147f5565b604052919050565b803563ffffffff8116811461467e57600080fd5b803561ffff8116811461467e57600080fd5b60006001600160401b038211156148a3576148a36147f5565b50601f01601f191660200190565b600082601f8301126148c257600080fd5b81356148d56148d08261488a565b614834565b8181528460208386010111156148ea57600080fd5b816020850160208301376000918101602001919091529392505050565b60006020828403121561491957600080fd5b81356001600160401b038082111561493057600080fd5b908301906101c0828603121561494557600080fd5b61494d61480b565b823581526020830135602082015260408301356040820152606083013560608201526080830135608082015260a083013560a082015260c083013560c082015261499960e08401614864565b60e08201526101006149ac818501614878565b9082015261012083810135908201526101406149c981850161466e565b90820152610160838101359082015261018080840135838111156149ec57600080fd5b6149f8888287016148b1565b8284015250506101a09150614a0e82840161466e565b91810191909152949350505050565b606081526000614a30606083018661462f565b8281036020840152614a42818661462f565b90508281036040840152614a56818561462f565b9695505050505050565b600080600080600080600080610100898b031215614a7d57600080fd5b505086359860208801359850604088013597606081013597506080810135965060a0810135955060c0810135945060e0013592509050565b604081526000614ac8604083018561462f565b8281036020840152614ada818561462f565b95945050505050565b60008060408385031215614af657600080fd5b8235614b01816146c8565b91506146a66020840161466e565b60008060008060808587031215614b2557600080fd5b8435614b30816146c8565b93506020850135614b40816146c8565b92506040850135915060608501356001600160401b03811115614b6257600080fd5b614b6e878288016148b1565b91505092959194509250565b6020815281516020820152602082015160408201526040820151606082015260608201516080820152608082015160a082015260a082015160c082015260c082015160e0820152600060e0830151610100614bdc8185018363ffffffff169052565b8401519050610120614bf38482018361ffff169052565b840151610140848101919091528401519050610160614c158185018315159052565b840151610180848101919091528401516101c06101a080860182905291925090614c436101e086018461462f565b908601518015158387015290925061389a565b60008060408385031215614c6957600080fd5b8235915060208301356001600160401b03811115614c8657600080fd5b614c92858286016148b1565b9150509250929050565b600060208284031215614cae57600080fd5b81356001600160401b03811115614cc457600080fd5b613ed7848285016148b1565b60008060408385031215614ce357600080fd5b8235614cee816146c8565b91506020830135614cfe816146c8565b809150509250929050565b60008060008060808587031215614d1f57600080fd5b8435935060208501356001600160401b0380821115614d3d57600080fd5b614d49888389016148b1565b94506040870135915080821115614d5f57600080fd5b614d6b888389016148b1565b93506060870135915080821115614d8157600080fd5b50614b6e878288016148b1565b600181811c90821680614da257607f821691505b602082108103614dc257634e487b7160e01b600052602260045260246000fd5b50919050565b634e487b7160e01b600052601160045260246000fd5b600060018201614df057614df0614dc8565b5060010190565b600060208284031215614e0957600080fd5b8151612bfe816146c8565b60006020808385031215614e2757600080fd5b82516001600160401b0380821115614e3e57600080fd5b818501915085601f830112614e5257600080fd5b815181811115614e6457614e646147f5565b8060051b9150614e75848301614834565b8181529183018401918481019088841115614e8f57600080fd5b938501935b83851015614ead57845182529385019390850190614e94565b98975050505050505050565b634e487b7160e01b600052603260045260246000fd5b601f82111561120f576000816000526020600020601f850160051c81016020861015614ef85750805b601f850160051c820191505b8181101561399657828155600101614f04565b81516001600160401b03811115614f3057614f306147f5565b614f4481614f3e8454614d8e565b84614ecf565b602080601f831160018114614f795760008415614f615750858301515b600019600386901b1c1916600185901b178555613996565b600085815260208120601f198616915b82811015614fa857888601518255948401946001909101908401614f89565b5085821015614fc65787850151600019600388901b60f8161c191681555b5050505050600190811b01905550565b6000614fe46148d08461488a565b9050828152838383011115614ff857600080fd5b612bfe83602083018461460b565b600082601f83011261501757600080fd5b612bfe83835160208501614fd6565b60006020828403121561503857600080fd5b81516001600160401b0381111561504e57600080fd5b613ed784828501615006565b6000835161506c81846020880161460b565b83519083019061508081836020880161460b565b7f3c672069643d226261636b7061636b547261697473223e0000000000000000009101908152601701949350505050565b600085516150c3818460208a0161460b565b8551908301906150d7818360208a0161460b565b85519101906150ea81836020890161460b565b84519101906150fd81836020880161460b565b019695505050505050565b6000825161511a81846020870161460b565b631e17b39f60e11b920191825250600401919050565b81810381811115610fb957610fb9614dc8565b80820180821115610fb957610fb9614dc8565b634e487b7160e01b600052601260045260246000fd5b60008261517b5761517b615156565b500690565b6020808252602e908201527f4552433732313a2063616c6c6572206973206e6f7420746f6b656e206f776e6560408201526d1c881b9bdc88185c1c1c9bdd995960921b606082015260800190565b6000806000606084860312156151e357600080fd5b83516001600160401b03808211156151fa57600080fd5b61520687838801615006565b9450602086015191508082111561521c57600080fd5b818601915086601f83011261523057600080fd5b61523f87835160208501614fd6565b9350604086015191508082111561525557600080fd5b5061526286828701615006565b9150509250925092565b6000835161527e81846020880161460b565b83519083019061529281836020880161460b565b01949350505050565b6000602082840312156152ad57600080fd5b5051919050565b6d2261747472696275746573223a5b60901b815282516000906152de81600e85016020880161460b565b600b60fa1b600e9184019182015283516152ff81600f84016020880161460b565b605d60f81b600f9290910191820152601001949350505050565b600081516080845261532e608085018261462f565b905060208301518482036020860152615347828261462f565b91505060408301518482036040860152615361828261462f565b915050606083015160608501528091505092915050565b87815260e06020820152600061539160e083018961462f565b82810360408401526153a3818961462f565b905082810360608401526153b7818861462f565b905082810360808401526153cb818761462f565b905082810360a08401526153df818661462f565b905082810360c08401526153f38185615319565b9a9950505050505050505050565b6000806040838503121561541457600080fd5b82516001600160401b038082111561542b57600080fd5b61543786838701615006565b9350602085015191508082111561544d57600080fd5b50614c9285828601615006565b60008261546957615469615156565b500490565b8082028115828204841417610fb957610fb9614dc8565b60006020828403121561549757600080fd5b815160088110612bfe57600080fd5b634e487b7160e01b600052602160045260246000fd5b6040815260006154cf604083018561462f565b90508260208301529392505050565b6e3d913a3930b4ba2fba3cb832911d1160891b8152825160009061550981600f85016020880161460b565b6a1116113b30b63ab2911d1160a91b600f91840191820152835161553481601a84016020880161460b565b61227d60f01b601a9290910191820152601c01949350505050565b60208082526032908201527f4552433732313a207472616e7366657220746f206e6f6e20455243373231526560408201527131b2b4bb32b91034b6b83632b6b2b73a32b960711b606082015260800190565b6001600160a01b0385811682528416602082015260408101839052608060608201819052600090614a569083018461462f565b6000602082840312156155e657600080fd5b8151612bfe816145b6565b634e487b7160e01b600052603160045260246000fdfe3c7376673e3c7465787420783d22382220793d22313522207374796c653d22666f6e743a206e6f726d616c203270782073616e732d73657269663b2066696c6c3a20626c61636b3b223e436f6d696e6720536f6f6e2e2e2e3c2f746578743e3c2f7376673e8aea9baa1ab7209ce94784ac5f5149343f8d985fd4278de25a7b390989f2cf853c672069643d22416c6c20547261697473223e3c672069643d226261636b7061636b2220636c6173733d22636c6f736564223e3c7061746820643d224d302030204c33302030204c3330203330204c30203330205a222066696c6c3d227267622831322c203130392c203135372922202f3e3c7376672069643d226261636b7061636b5549222076696577426f783d223020302031323020313230223e203c7374796c653e2e75697b77696474683a3170783b206865696768743a203170783b2066696c6c3a77686974657d3c2f7374796c653e203c672069643d22636c6f736542746e22207472616e73666f726d3d227472616e736c61746528322c3229223e203c7265637420783d22312220793d22312220636c6173733d227569223e3c2f726563743e203c7265637420783d22322220793d22322220636c6173733d227569223e3c2f726563743e203c7265637420783d22332220793d22332220636c6173733d227569223e3c2f726563743e203c7265637420783d22342220793d22342220636c6173733d227569223e3c2f726563743e203c7265637420783d22352220793d22352220636c6173733d227569223e3c2f726563743e203c7265637420783d22352220793d22312220636c6173733d227569223e3c2f726563743e203c7265637420783d22342220793d22322220636c6173733d227569223e3c2f726563743e203c212d2d203c7265637420783d22332220793d2233222077696474683d223122206865696768743d2231222066696c6c3d227768697465223e3c2f726563743e202d2d3e203c7265637420783d22322220793d22342220636c6173733d227569223e3c2f726563743e203c7265637420783d22312220793d22352220636c6173733d227569223e3c2f726563743e203c2f673e203c672069643d226c65667442746e2220636c6173733d22627574746f6e22207472616e73666f726d3d227472616e736c6174652834352c31313029223e203c7061746820643d224d302030204c362030204c362036204c302036205a222066696c6c3d227472616e73706172656e7422202f3e203c7265637420783d22322220793d22302220636c6173733d227569223e3c2f726563743e203c7265637420783d22312220793d22312220636c6173733d227569223e3c2f726563743e203c7265637420783d22302220793d22322220636c6173733d227569223e3c2f726563743e203c7265637420783d22312220793d22332220636c6173733d227569223e3c2f726563743e203c7265637420783d22322220793d22342220636c6173733d227569223e3c2f726563743e203c2f673e203c672069643d22726967687442746e2220636c6173733d22627574746f6e22207472616e73666f726d3d227472616e736c6174652836352c31313029223e203c7061746820643d224d302030204c362030204c362036204c302036205a222066696c6c3d227472616e73706172656e7422202f3e203c7265637420783d22332220793d22302220636c6173733d227569223e3c2f726563743e203c7265637420783d22342220793d22312220636c6173733d227569223e3c2f726563743e203c7265637420783d22352220793d22322220636c6173733d227569223e3c2f726563743e203c7265637420783d22342220793d22332220636c6173733d227569223e3c2f726563743e203c7265637420783d22332220793d22342220636c6173733d227569223e3c2f726563743e203c2f673e203c2f7376673e20a26469706673582212202e8e5e59a7fc15a5196be1719b95b0990c47b2156994ef475a19c00cecc67f3a64736f6c63430008160033","linkReferences":{}},"methodIdentifiers":{"MAX_TRAITS_TO_OUTPUT()":"20e0b93c","_debugPostConstructorMint()":"9c7be2f1","addNewBody(uint256,string,bytes,bytes)":"f2361e23","approve(address,uint256)":"095ea7b3","balanceOf(address)":"70a08231","bodyIndexToMetadata(uint256)":"0c83f9d7","buyTrait(uint256)":"6273ca2c","cancelOwnershipHandover()":"54d1f13d","completeOwnershipHandover(address)":"f04e283e","equipAccessory(uint256,uint256)":"0447a45e","equipAll(uint256,uint256,uint256,uint256,uint256,uint256,uint256,uint256)":"4a4333a3","equipBottom(uint256,uint256)":"45a10d0f","equipFace(uint256,uint256)":"0f162320","equipHair(uint256,uint256)":"94cbd9c4","equipHead(uint256,uint256)":"1e162a33","equipShoes(uint256,uint256)":"60b77b23","equipTop(uint256,uint256)":"f18dc22d","firstSeasonRenderMinter()":"13ea0ae3","getApproved(uint256)":"081812fc","getBackpackSVGs(uint256)":"14fe8ff4","getBodyImage(bytes)":"e37db3c2","getBodyImageSvg(uint256)":"916c546b","getBodySVGZmapsAndMetadata((uint256,uint256,uint256,uint256,uint256,uint256,uint256,uint32,uint16,uint256,bool,uint256,string,bool))":"45d2d7bd","getBodySvgAndMetadata((uint256,uint256,uint256,uint256,uint256,uint256,uint256,uint32,uint16,uint256,bool,uint256,string,bool))":"661ee23a","getBodyZMap(uint256)":"306c7334","getEpoch()":"757991a8","getEpochData(uint256)":"859e7d32","getOwnerAndTBAAddressForTokenId(uint256)":"cc9a5d37","getPeter(uint256)":"be928ff6","getPeterZMap(uint256)":"2bd1ca45","getTBAAddressForTokenId(uint256)":"8e29d3e9","getTokenRenderZ(uint256)":"8200ea51","getTraitTokens(address)":"998cfb6e","getTraitsForTokenId(uint256)":"850ad51a","isApprovedForAll(address,address)":"e985e9c5","mainRenderer()":"66b89b5a","mint()":"1249c58b","name()":"06fdde03","owner()":"8da5cb5b","ownerOf(uint256)":"6352211e","ownershipHandoverExpiresAt(address)":"fee81cf4","price()":"a035b1fe","renderAsDataUri(uint256)":"a1d62680","renderAsDataUriSVG(uint256)":"b28fbe40","renderAsDataUriZ(uint256)":"7557f2dc","renounceOwnership()":"715018a6","requestOwnershipHandover()":"25692962","resolveEpochIfNecessary()":"239ffa68","safeTransferFrom(address,address,uint256)":"42842e0e","safeTransferFrom(address,address,uint256,bytes)":"b88d4fde","setApprovalForAll(address,bool)":"a22cb465","setBackgroundColor(uint256,string)":"d68c4f32","setBodyIndex(uint256,uint256)":"457e7e61","setFirstSeasonRenderMinter(address)":"58a97640","setMainRenderer(address)":"4ddb3961","setMaxTraitsToOutput(uint256)":"33d3d9bf","setPrice(uint256)":"91b7f5ed","setTokenRenderZ(uint256,bool)":"07f4e045","setTraitsContract(address)":"5eabd84a","setZRenderer(address)":"172b054d","supportsInterface(bytes4)":"01ffc9a7","symbol()":"95d89b41","tokenByIndex(uint256)":"4f6ccce7","tokenIdToTBAAccountAddress(uint256)":"9c05d68d","tokenOfOwnerByIndex(address,uint256)":"2f745c59","tokenURI(uint256)":"c87b56dd","totalSupply()":"18160ddd","traitsContract()":"c093afdb","transferFrom(address,address,uint256)":"23b872dd","transferOwnership(address)":"f2fde38b","unequipAccessory(uint256)":"293ed3f7","unequipAll(uint256)":"3044825b","unequipBottom(uint256)":"9c762015","unequipFace(uint256)":"d5b55c8b","unequipHair(uint256)":"105338e0","unequipHead(uint256)":"7afe8d34","unequipShoes(uint256)":"58180d35","unequipTop(uint256)":"347bd8f4","walletOfOwner(address)":"438b6300","zRenderer()":"a15c561b"},"id":39}