{"abi":[{"type":"constructor","inputs":[{"name":"localDeploy_","type":"bool","internalType":"bool"}],"stateMutability":"nonpayable"},{"type":"function","name":"MAX_TRAITS_TO_OUTPUT","inputs":[],"outputs":[{"name":"","type":"uint256","internalType":"uint256"}],"stateMutability":"view"},{"type":"function","name":"_debugPostConstructorMint","inputs":[],"outputs":[],"stateMutability":"nonpayable"},{"type":"function","name":"addNewBody","inputs":[{"name":"_bodyIndex","type":"uint256","internalType":"uint256"},{"name":"_bodyName","type":"string","internalType":"string"},{"name":"_colorMap","type":"bytes","internalType":"bytes"},{"name":"_zMap","type":"bytes","internalType":"bytes"}],"outputs":[],"stateMutability":"nonpayable"},{"type":"function","name":"approve","inputs":[{"name":"to","type":"address","internalType":"address"},{"name":"tokenId","type":"uint256","internalType":"uint256"}],"outputs":[],"stateMutability":"nonpayable"},{"type":"function","name":"balanceOf","inputs":[{"name":"owner","type":"address","internalType":"address"}],"outputs":[{"name":"","type":"uint256","internalType":"uint256"}],"stateMutability":"view"},{"type":"function","name":"bodyIndexToMetadata","inputs":[{"name":"","type":"uint256","internalType":"uint256"}],"outputs":[{"name":"bodyIndex","type":"uint256","internalType":"uint256"},{"name":"bodyName","type":"string","internalType":"string"},{"name":"colorMap","type":"bytes","internalType":"bytes"},{"name":"zMap","type":"bytes","internalType":"bytes"}],"stateMutability":"view"},{"type":"function","name":"buyTrait","inputs":[{"name":"_tokenId","type":"uint256","internalType":"uint256"}],"outputs":[],"stateMutability":"nonpayable"},{"type":"function","name":"cancelOwnershipHandover","inputs":[],"outputs":[],"stateMutability":"payable"},{"type":"function","name":"completeOwnershipHandover","inputs":[{"name":"pendingOwner","type":"address","internalType":"address"}],"outputs":[],"stateMutability":"payable"},{"type":"function","name":"equipAccessory","inputs":[{"name":"_peterTokenId","type":"uint256","internalType":"uint256"},{"name":"_traitTokenId","type":"uint256","internalType":"uint256"}],"outputs":[],"stateMutability":"nonpayable"},{"type":"function","name":"equipAll","inputs":[{"name":"_peterTokenId","type":"uint256","internalType":"uint256"},{"name":"_headTokenId","type":"uint256","internalType":"uint256"},{"name":"_hairTokenId","type":"uint256","internalType":"uint256"},{"name":"_faceTokenId","type":"uint256","internalType":"uint256"},{"name":"_accessoryTokenId","type":"uint256","internalType":"uint256"},{"name":"_topTokenId","type":"uint256","internalType":"uint256"},{"name":"_bottomTokenId","type":"uint256","internalType":"uint256"},{"name":"_shoesTokenId","type":"uint256","internalType":"uint256"}],"outputs":[],"stateMutability":"nonpayable"},{"type":"function","name":"equipBottom","inputs":[{"name":"_peterTokenId","type":"uint256","internalType":"uint256"},{"name":"_traitTokenId","type":"uint256","internalType":"uint256"}],"outputs":[],"stateMutability":"nonpayable"},{"type":"function","name":"equipFace","inputs":[{"name":"_peterTokenId","type":"uint256","internalType":"uint256"},{"name":"_traitTokenId","type":"uint256","internalType":"uint256"}],"outputs":[],"stateMutability":"nonpayable"},{"type":"function","name":"equipHair","inputs":[{"name":"_peterTokenId","type":"uint256","internalType":"uint256"},{"name":"_traitTokenId","type":"uint256","internalType":"uint256"}],"outputs":[],"stateMutability":"nonpayable"},{"type":"function","name":"equipHead","inputs":[{"name":"_peterTokenId","type":"uint256","internalType":"uint256"},{"name":"_traitTokenId","type":"uint256","internalType":"uint256"}],"outputs":[],"stateMutability":"nonpayable"},{"type":"function","name":"equipShoes","inputs":[{"name":"_peterTokenId","type":"uint256","internalType":"uint256"},{"name":"_traitTokenId","type":"uint256","internalType":"uint256"}],"outputs":[],"stateMutability":"nonpayable"},{"type":"function","name":"equipTop","inputs":[{"name":"_peterTokenId","type":"uint256","internalType":"uint256"},{"name":"_traitTokenId","type":"uint256","internalType":"uint256"}],"outputs":[],"stateMutability":"nonpayable"},{"type":"function","name":"firstSeasonRenderMinter","inputs":[],"outputs":[{"name":"","type":"address","internalType":"contract FirstSeasonRenderMinter"}],"stateMutability":"view"},{"type":"function","name":"getApproved","inputs":[{"name":"tokenId","type":"uint256","internalType":"uint256"}],"outputs":[{"name":"","type":"address","internalType":"address"}],"stateMutability":"view"},{"type":"function","name":"getBackpackSVGs","inputs":[{"name":"_tokenId","type":"uint256","internalType":"uint256"}],"outputs":[{"name":"backpackSVGs","type":"string","internalType":"string"}],"stateMutability":"view"},{"type":"function","name":"getBodyImage","inputs":[{"name":"colorMap","type":"bytes","internalType":"bytes"}],"outputs":[{"name":"","type":"bytes","internalType":"bytes"}],"stateMutability":"pure"},{"type":"function","name":"getBodyImageSvg","inputs":[{"name":"_index","type":"uint256","internalType":"uint256"}],"outputs":[{"name":"svg","type":"string","internalType":"string"}],"stateMutability":"view"},{"type":"function","name":"getBodySVGZmapsAndMetadata","inputs":[{"name":"storedPeter","type":"tuple","internalType":"struct IPeterStorage.StoredPeter","components":[{"name":"headId","type":"uint256","internalType":"uint256"},{"name":"hairId","type":"uint256","internalType":"uint256"},{"name":"faceId","type":"uint256","internalType":"uint256"},{"name":"accessoryId","type":"uint256","internalType":"uint256"},{"name":"topId","type":"uint256","internalType":"uint256"},{"name":"bottomId","type":"uint256","internalType":"uint256"},{"name":"shoesId","type":"uint256","internalType":"uint256"},{"name":"epoch","type":"uint32","internalType":"uint32"},{"name":"tokenId","type":"uint256","internalType":"uint256"},{"name":"bodyIndex","type":"uint256","internalType":"uint256"},{"name":"backgroundColor","type":"string","internalType":"string"},{"name":"renderZ","type":"bool","internalType":"bool"}]}],"outputs":[{"name":"","type":"string","internalType":"string"},{"name":"","type":"bytes","internalType":"bytes"},{"name":"","type":"string","internalType":"string"}],"stateMutability":"view"},{"type":"function","name":"getBodySvgAndMetadata","inputs":[{"name":"storedPeter","type":"tuple","internalType":"struct IPeterStorage.StoredPeter","components":[{"name":"headId","type":"uint256","internalType":"uint256"},{"name":"hairId","type":"uint256","internalType":"uint256"},{"name":"faceId","type":"uint256","internalType":"uint256"},{"name":"accessoryId","type":"uint256","internalType":"uint256"},{"name":"topId","type":"uint256","internalType":"uint256"},{"name":"bottomId","type":"uint256","internalType":"uint256"},{"name":"shoesId","type":"uint256","internalType":"uint256"},{"name":"epoch","type":"uint32","internalType":"uint32"},{"name":"tokenId","type":"uint256","internalType":"uint256"},{"name":"bodyIndex","type":"uint256","internalType":"uint256"},{"name":"backgroundColor","type":"string","internalType":"string"},{"name":"renderZ","type":"bool","internalType":"bool"}]}],"outputs":[{"name":"","type":"string","internalType":"string"},{"name":"","type":"string","internalType":"string"}],"stateMutability":"view"},{"type":"function","name":"getBodyZMap","inputs":[{"name":"_tokenId","type":"uint256","internalType":"uint256"}],"outputs":[{"name":"","type":"string","internalType":"string"}],"stateMutability":"view"},{"type":"function","name":"getOwnerAndTBAAddressForTokenId","inputs":[{"name":"_tokenId","type":"uint256","internalType":"uint256"}],"outputs":[{"name":"owner","type":"address","internalType":"address"},{"name":"tbaAddress","type":"address","internalType":"address"}],"stateMutability":"view"},{"type":"function","name":"getPeter","inputs":[{"name":"_tokenId","type":"uint256","internalType":"uint256"}],"outputs":[{"name":"","type":"tuple","internalType":"struct IPeterStorage.StoredPeter","components":[{"name":"headId","type":"uint256","internalType":"uint256"},{"name":"hairId","type":"uint256","internalType":"uint256"},{"name":"faceId","type":"uint256","internalType":"uint256"},{"name":"accessoryId","type":"uint256","internalType":"uint256"},{"name":"topId","type":"uint256","internalType":"uint256"},{"name":"bottomId","type":"uint256","internalType":"uint256"},{"name":"shoesId","type":"uint256","internalType":"uint256"},{"name":"epoch","type":"uint32","internalType":"uint32"},{"name":"tokenId","type":"uint256","internalType":"uint256"},{"name":"bodyIndex","type":"uint256","internalType":"uint256"},{"name":"backgroundColor","type":"string","internalType":"string"},{"name":"renderZ","type":"bool","internalType":"bool"}]}],"stateMutability":"view"},{"type":"function","name":"getPeterZMap","inputs":[{"name":"_tokenId","type":"uint256","internalType":"uint256"}],"outputs":[{"name":"","type":"string","internalType":"string"}],"stateMutability":"view"},{"type":"function","name":"getTBAAddressForTokenId","inputs":[{"name":"_tokenId","type":"uint256","internalType":"uint256"}],"outputs":[{"name":"","type":"address","internalType":"address"}],"stateMutability":"view"},{"type":"function","name":"getTokenRenderZ","inputs":[{"name":"_peterTokenId","type":"uint256","internalType":"uint256"}],"outputs":[{"name":"","type":"bool","internalType":"bool"}],"stateMutability":"view"},{"type":"function","name":"getTraitTokens","inputs":[{"name":"_tbaAddress","type":"address","internalType":"address"}],"outputs":[{"name":"","type":"uint256[]","internalType":"uint256[]"}],"stateMutability":"view"},{"type":"function","name":"getTraitsForTokenId","inputs":[{"name":"_tokenId","type":"uint256","internalType":"uint256"}],"outputs":[{"name":"traitTokens","type":"uint256[]","internalType":"uint256[]"}],"stateMutability":"view"},{"type":"function","name":"isApprovedForAll","inputs":[{"name":"owner","type":"address","internalType":"address"},{"name":"operator","type":"address","internalType":"address"}],"outputs":[{"name":"","type":"bool","internalType":"bool"}],"stateMutability":"view"},{"type":"function","name":"mainRenderer","inputs":[],"outputs":[{"name":"","type":"address","internalType":"contract MainRenderer"}],"stateMutability":"view"},{"type":"function","name":"mint","inputs":[],"outputs":[],"stateMutability":"payable"},{"type":"function","name":"mintByLevel","inputs":[{"name":"amount","type":"uint8","internalType":"uint8"},{"name":"nonce","type":"string","internalType":"string"},{"name":"signature","type":"bytes","internalType":"bytes"}],"outputs":[],"stateMutability":"payable"},{"type":"function","name":"name","inputs":[],"outputs":[{"name":"","type":"string","internalType":"string"}],"stateMutability":"view"},{"type":"function","name":"owner","inputs":[],"outputs":[{"name":"result","type":"address","internalType":"address"}],"stateMutability":"view"},{"type":"function","name":"ownerOf","inputs":[{"name":"tokenId","type":"uint256","internalType":"uint256"}],"outputs":[{"name":"","type":"address","internalType":"address"}],"stateMutability":"view"},{"type":"function","name":"ownershipHandoverExpiresAt","inputs":[{"name":"pendingOwner","type":"address","internalType":"address"}],"outputs":[{"name":"result","type":"uint256","internalType":"uint256"}],"stateMutability":"view"},{"type":"function","name":"price","inputs":[],"outputs":[{"name":"","type":"uint256","internalType":"uint256"}],"stateMutability":"view"},{"type":"function","name":"renderAsDataUri","inputs":[{"name":"_tokenId","type":"uint256","internalType":"uint256"}],"outputs":[{"name":"","type":"string","internalType":"string"}],"stateMutability":"view"},{"type":"function","name":"renderAsDataUriSVG","inputs":[{"name":"_tokenId","type":"uint256","internalType":"uint256"}],"outputs":[{"name":"","type":"string","internalType":"string"}],"stateMutability":"view"},{"type":"function","name":"renderAsDataUriZ","inputs":[{"name":"_tokenId","type":"uint256","internalType":"uint256"}],"outputs":[{"name":"","type":"string","internalType":"string"}],"stateMutability":"view"},{"type":"function","name":"renounceOwnership","inputs":[],"outputs":[],"stateMutability":"payable"},{"type":"function","name":"requestOwnershipHandover","inputs":[],"outputs":[],"stateMutability":"payable"},{"type":"function","name":"safeTransferFrom","inputs":[{"name":"from","type":"address","internalType":"address"},{"name":"to","type":"address","internalType":"address"},{"name":"tokenId","type":"uint256","internalType":"uint256"}],"outputs":[],"stateMutability":"nonpayable"},{"type":"function","name":"safeTransferFrom","inputs":[{"name":"from","type":"address","internalType":"address"},{"name":"to","type":"address","internalType":"address"},{"name":"tokenId","type":"uint256","internalType":"uint256"},{"name":"data","type":"bytes","internalType":"bytes"}],"outputs":[],"stateMutability":"nonpayable"},{"type":"function","name":"setApprovalForAll","inputs":[{"name":"operator","type":"address","internalType":"address"},{"name":"approved","type":"bool","internalType":"bool"}],"outputs":[],"stateMutability":"nonpayable"},{"type":"function","name":"setBackgroundColor","inputs":[{"name":"_peterTokenId","type":"uint256","internalType":"uint256"},{"name":"_color","type":"string","internalType":"string"}],"outputs":[],"stateMutability":"nonpayable"},{"type":"function","name":"setBodyIndex","inputs":[{"name":"_peterTokenId","type":"uint256","internalType":"uint256"},{"name":"_bodyIndex","type":"uint256","internalType":"uint256"}],"outputs":[],"stateMutability":"nonpayable"},{"type":"function","name":"setFirstSeasonRenderMinter","inputs":[{"name":"_dataContract","type":"address","internalType":"address"}],"outputs":[],"stateMutability":"nonpayable"},{"type":"function","name":"setMainRenderer","inputs":[{"name":"_mainRenderer","type":"address","internalType":"address"}],"outputs":[],"stateMutability":"nonpayable"},{"type":"function","name":"setMaxTraitsToOutput","inputs":[{"name":"_maxTraitsToOutput","type":"uint256","internalType":"uint256"}],"outputs":[],"stateMutability":"nonpayable"},{"type":"function","name":"setPrice","inputs":[{"name":"_priceInWei","type":"uint256","internalType":"uint256"}],"outputs":[],"stateMutability":"nonpayable"},{"type":"function","name":"setSystemAddress","inputs":[{"name":"_systemAddress","type":"address","internalType":"address"}],"outputs":[],"stateMutability":"nonpayable"},{"type":"function","name":"setTokenRenderZ","inputs":[{"name":"_peterTokenId","type":"uint256","internalType":"uint256"},{"name":"_renderZ","type":"bool","internalType":"bool"}],"outputs":[],"stateMutability":"nonpayable"},{"type":"function","name":"setTraitsContract","inputs":[{"name":"_address","type":"address","internalType":"contract PeterTraits"}],"outputs":[],"stateMutability":"nonpayable"},{"type":"function","name":"setZRenderer","inputs":[{"name":"_zRenderer","type":"address","internalType":"address"}],"outputs":[],"stateMutability":"nonpayable"},{"type":"function","name":"supportsInterface","inputs":[{"name":"interfaceId","type":"bytes4","internalType":"bytes4"}],"outputs":[{"name":"","type":"bool","internalType":"bool"}],"stateMutability":"view"},{"type":"function","name":"symbol","inputs":[],"outputs":[{"name":"","type":"string","internalType":"string"}],"stateMutability":"view"},{"type":"function","name":"tokenByIndex","inputs":[{"name":"index","type":"uint256","internalType":"uint256"}],"outputs":[{"name":"","type":"uint256","internalType":"uint256"}],"stateMutability":"view"},{"type":"function","name":"tokenIdToTBAAccountAddress","inputs":[{"name":"","type":"uint256","internalType":"uint256"}],"outputs":[{"name":"","type":"uint160","internalType":"uint160"}],"stateMutability":"view"},{"type":"function","name":"tokenOfOwnerByIndex","inputs":[{"name":"owner","type":"address","internalType":"address"},{"name":"index","type":"uint256","internalType":"uint256"}],"outputs":[{"name":"","type":"uint256","internalType":"uint256"}],"stateMutability":"view"},{"type":"function","name":"tokenURI","inputs":[{"name":"_tokenId","type":"uint256","internalType":"uint256"}],"outputs":[{"name":"","type":"string","internalType":"string"}],"stateMutability":"view"},{"type":"function","name":"totalSupply","inputs":[],"outputs":[{"name":"","type":"uint256","internalType":"uint256"}],"stateMutability":"view"},{"type":"function","name":"traitsContract","inputs":[],"outputs":[{"name":"","type":"address","internalType":"contract PeterTraits"}],"stateMutability":"view"},{"type":"function","name":"transferFrom","inputs":[{"name":"from","type":"address","internalType":"address"},{"name":"to","type":"address","internalType":"address"},{"name":"tokenId","type":"uint256","internalType":"uint256"}],"outputs":[],"stateMutability":"nonpayable"},{"type":"function","name":"transferOwnership","inputs":[{"name":"newOwner","type":"address","internalType":"address"}],"outputs":[],"stateMutability":"payable"},{"type":"function","name":"unequipAccessory","inputs":[{"name":"_peterTokenId","type":"uint256","internalType":"uint256"}],"outputs":[],"stateMutability":"nonpayable"},{"type":"function","name":"unequipAll","inputs":[{"name":"_peterTokenId","type":"uint256","internalType":"uint256"}],"outputs":[],"stateMutability":"nonpayable"},{"type":"function","name":"unequipBottom","inputs":[{"name":"_peterTokenId","type":"uint256","internalType":"uint256"}],"outputs":[],"stateMutability":"nonpayable"},{"type":"function","name":"unequipFace","inputs":[{"name":"_peterTokenId","type":"uint256","internalType":"uint256"}],"outputs":[],"stateMutability":"nonpayable"},{"type":"function","name":"unequipHair","inputs":[{"name":"_peterTokenId","type":"uint256","internalType":"uint256"}],"outputs":[],"stateMutability":"nonpayable"},{"type":"function","name":"unequipHead","inputs":[{"name":"_peterTokenId","type":"uint256","internalType":"uint256"}],"outputs":[],"stateMutability":"nonpayable"},{"type":"function","name":"unequipShoes","inputs":[{"name":"_peterTokenId","type":"uint256","internalType":"uint256"}],"outputs":[],"stateMutability":"nonpayable"},{"type":"function","name":"unequipTop","inputs":[{"name":"_peterTokenId","type":"uint256","internalType":"uint256"}],"outputs":[],"stateMutability":"nonpayable"},{"type":"function","name":"walletOfOwner","inputs":[{"name":"_owner","type":"address","internalType":"address"}],"outputs":[{"name":"","type":"uint256[]","internalType":"uint256[]"}],"stateMutability":"view"},{"type":"function","name":"zRenderer","inputs":[],"outputs":[{"name":"","type":"address","internalType":"contract ZRenderer"}],"stateMutability":"view"},{"type":"event","name":"Approval","inputs":[{"name":"owner","type":"address","indexed":true,"internalType":"address"},{"name":"approved","type":"address","indexed":true,"internalType":"address"},{"name":"tokenId","type":"uint256","indexed":true,"internalType":"uint256"}],"anonymous":false},{"type":"event","name":"ApprovalForAll","inputs":[{"name":"owner","type":"address","indexed":true,"internalType":"address"},{"name":"operator","type":"address","indexed":true,"internalType":"address"},{"name":"approved","type":"bool","indexed":false,"internalType":"bool"}],"anonymous":false},{"type":"event","name":"BatchMetadataUpdate","inputs":[{"name":"_fromTokenId","type":"uint256","indexed":false,"internalType":"uint256"},{"name":"_toTokenId","type":"uint256","indexed":false,"internalType":"uint256"}],"anonymous":false},{"type":"event","name":"Equip","inputs":[{"name":"owner","type":"address","indexed":true,"internalType":"address"},{"name":"tokenId","type":"uint256","indexed":true,"internalType":"uint256"},{"name":"traitTokenId","type":"uint256","indexed":true,"internalType":"uint256"},{"name":"traitCategory","type":"string","indexed":false,"internalType":"string"}],"anonymous":false},{"type":"event","name":"EquipAll","inputs":[{"name":"owner","type":"address","indexed":true,"internalType":"address"},{"name":"tokenId","type":"uint256","indexed":true,"internalType":"uint256"}],"anonymous":false},{"type":"event","name":"MetadataUpdate","inputs":[{"name":"_tokenId","type":"uint256","indexed":false,"internalType":"uint256"}],"anonymous":false},{"type":"event","name":"Mint","inputs":[{"name":"owner","type":"address","indexed":true,"internalType":"address"},{"name":"tokenId","type":"uint256","indexed":true,"internalType":"uint256"}],"anonymous":false},{"type":"event","name":"OwnershipHandoverCanceled","inputs":[{"name":"pendingOwner","type":"address","indexed":true,"internalType":"address"}],"anonymous":false},{"type":"event","name":"OwnershipHandoverRequested","inputs":[{"name":"pendingOwner","type":"address","indexed":true,"internalType":"address"}],"anonymous":false},{"type":"event","name":"OwnershipTransferred","inputs":[{"name":"oldOwner","type":"address","indexed":true,"internalType":"address"},{"name":"newOwner","type":"address","indexed":true,"internalType":"address"}],"anonymous":false},{"type":"event","name":"Transfer","inputs":[{"name":"from","type":"address","indexed":true,"internalType":"address"},{"name":"to","type":"address","indexed":true,"internalType":"address"},{"name":"tokenId","type":"uint256","indexed":true,"internalType":"uint256"}],"anonymous":false},{"type":"event","name":"Unequip","inputs":[{"name":"owner","type":"address","indexed":true,"internalType":"address"},{"name":"tokenId","type":"uint256","indexed":true,"internalType":"uint256"},{"name":"traitCategory","type":"string","indexed":true,"internalType":"string"}],"anonymous":false},{"type":"event","name":"UnequipAll","inputs":[{"name":"owner","type":"address","indexed":true,"internalType":"address"},{"name":"tokenId","type":"uint256","indexed":true,"internalType":"uint256"}],"anonymous":false},{"type":"error","name":"AlreadyInitialized","inputs":[]},{"type":"error","name":"BodyAlreadyExists","inputs":[]},{"type":"error","name":"FirstSeasonRenderMinterNotSet","inputs":[]},{"type":"error","name":"IncorrectPeterOwner","inputs":[]},{"type":"error","name":"IncorrectTBAOwner","inputs":[]},{"type":"error","name":"IncorrectTraitType","inputs":[]},{"type":"error","name":"InvalidLevelAmount","inputs":[]},{"type":"error","name":"InvalidSignature","inputs":[]},{"type":"error","name":"NewOwnerIsZeroAddress","inputs":[]},{"type":"error","name":"NoHandoverRequest","inputs":[]},{"type":"error","name":"NonceAlreadyUsed","inputs":[]},{"type":"error","name":"PeterDoesntExist","inputs":[]},{"type":"error","name":"Unauthorized","inputs":[]}],"bytecode":{"object":"0x6080604052600060105560456012553480156200001b57600080fd5b5060405162005e5d38038062005e5d8339810160408190526200003e9162000106565b6040518060400160405280600a81526020016914195d195c8815195cdd60b21b815250604051806040016040528060058152602001642822aa22a960d91b8152508160009081620000909190620001d8565b5060016200009f8282620001d8565b505050620000b333620000ca60201b60201c565b600a805460ff1916911515919091179055620002a4565b6001600160a01b0316638b78c6d8198190558060007f8be0079c531659141344cd1fd0a4f28419497f9722a3daafe3b4186f6b6457e08180a350565b6000602082840312156200011957600080fd5b815180151581146200012a57600080fd5b9392505050565b634e487b7160e01b600052604160045260246000fd5b600181811c908216806200015c57607f821691505b6020821081036200017d57634e487b7160e01b600052602260045260246000fd5b50919050565b601f821115620001d3576000816000526020600020601f850160051c81016020861015620001ae5750805b601f850160051c820191505b81811015620001cf57828155600101620001ba565b5050505b505050565b81516001600160401b03811115620001f457620001f462000131565b6200020c8162000205845462000147565b8462000183565b602080601f8311600181146200024457600084156200022b5750858301515b600019600386901b1c1916600185901b178555620001cf565b600085815260208120601f198616915b82811015620002755788860151825594840194600190910190840162000254565b5085821015620002945787850151600019600388901b60f8161c191681555b5050505050600190811b01905550565b615ba980620002b46000396000f3fe6080604052600436106104685760003560e01c80636352211e1161024a578063a1d6268011610139578063cef80d4a116100b6578063f04e283e1161007a578063f04e283e14610e2f578063f18dc22d14610e42578063f2361e2314610e62578063f2fde38b14610e82578063fee81cf414610e9557600080fd5b8063cef80d4a14610d73578063d5b55c8b14610d86578063d68c4f3214610da6578063e37db3c214610dc6578063e985e9c514610de657600080fd5b8063be928ff6116100fd578063be928ff614610c97578063c093afdb14610cc4578063c87b56dd14610ce4578063cb0b831a14610d04578063cc9a5d3714610d3357600080fd5b8063a1d6268014610be9578063a22cb46514610c09578063a9f5fa8c14610c29578063b28fbe4014610c57578063b88d4fde14610c7757600080fd5b8063916c546b116101c75780639c05d68d1161018b5780639c05d68d14610b485780639c76201514610b7e5780639c7be2f114610b9e578063a035b1fe14610bb3578063a15c561b14610bc957600080fd5b8063916c546b14610ab357806391b7f5ed14610ad357806394cbd9c414610af357806395d89b4114610b13578063998cfb6e14610b2857600080fd5b80637afe8d341161020e5780637afe8d34146109f05780638200ea5114610a10578063850ad51a14610a445780638da5cb5b14610a645780638e29d3e914610a7d57600080fd5b80636352211e1461096857806366b89b5a1461098857806370a08231146109a8578063715018a6146109c85780637557f2dc146109d057600080fd5b8063293ed3f71161036657806345a10d0f116102e357806358180d35116102a757806358180d35146108c857806358a97640146108e85780635eabd84a1461090857806360b77b23146109285780636273ca2c1461094857600080fd5b806345a10d0f146108405780634a4333a3146108605780634ddb3961146108805780634f6ccce7146108a057806354d1f13d146108c057600080fd5b806333d3d9bf1161032a57806333d3d9bf14610793578063347bd8f4146107b357806342842e0e146107d3578063438b6300146107f3578063457e7e611461082057600080fd5b8063293ed3f7146106f35780632bd1ca45146107135780632f745c59146107335780633044825b14610753578063306c73341461077357600080fd5b8063105338e0116103f457806318160ddd116103b857806318160ddd146106765780631e162a331461069557806320e0b93c146106b557806323b872dd146106cb57806325692962146106eb57600080fd5b8063105338e0146105ee5780631249c58b1461060e57806313ea0ae31461061657806314fe8ff414610636578063172b054d1461065657600080fd5b806307f4e0451161043b57806307f4e04514610506578063081812fc14610546578063095ea7b31461057e5780630c83f9d71461059e5780630f162320146105ce57600080fd5b806301ffc9a71461046d5780630447a45e146104a257806306210197146104c457806306fdde03146104e4575b600080fd5b34801561047957600080fd5b5061048d610488366004614592565b610ec8565b60405190151581526020015b60405180910390f35b3480156104ae57600080fd5b506104c26104bd3660046145af565b610ed9565b005b3480156104d057600080fd5b506104c26104df3660046145e6565b610f5b565b3480156104f057600080fd5b506104f9610f85565b6040516104999190614653565b34801561051257600080fd5b506104c261052136600461467b565b6000918252600b60208190526040909220909101805460ff1916911515919091179055565b34801561055257600080fd5b506105666105613660046146a7565b611017565b6040516001600160a01b039091168152602001610499565b34801561058a57600080fd5b506104c26105993660046146c0565b61103e565b3480156105aa57600080fd5b506105be6105b93660046146a7565b611158565b60405161049994939291906146ec565b3480156105da57600080fd5b506104c26105e93660046145af565b611319565b3480156105fa57600080fd5b506104c26106093660046146a7565b61138a565b6104c2611402565b34801561062257600080fd5b50601454610566906001600160a01b031681565b34801561064257600080fd5b506104f96106513660046146a7565b61140e565b34801561066257600080fd5b506104c26106713660046145e6565b611655565b34801561068257600080fd5b506008545b604051908152602001610499565b3480156106a157600080fd5b506104c26106b03660046145af565b61167f565b3480156106c157600080fd5b5061068760125481565b3480156106d757600080fd5b506104c26106e6366004614736565b6116ed565b6104c261171e565b3480156106ff57600080fd5b506104c261070e3660046146a7565b61176d565b34801561071f57600080fd5b506104f961072e3660046146a7565b6117a4565b34801561073f57600080fd5b5061068761074e3660046146c0565b611868565b34801561075f57600080fd5b506104c261076e3660046146a7565b6118fe565b34801561077f57600080fd5b506104f961078e3660046146a7565b611986565b34801561079f57600080fd5b506104c26107ae3660046146a7565b6119a9565b3480156107bf57600080fd5b506104c26107ce3660046146a7565b6119b6565b3480156107df57600080fd5b506104c26107ee366004614736565b6119e7565b3480156107ff57600080fd5b5061081361080e3660046145e6565b611a02565b6040516104999190614777565b34801561082c57600080fd5b506104c261083b3660046145af565b611a99565b34801561084c57600080fd5b506104c261085b3660046145af565b611af3565b34801561086c57600080fd5b506104c261087b3660046147bb565b611b66565b34801561088c57600080fd5b506104c261089b3660046145e6565b611c1f565b3480156108ac57600080fd5b506106876108bb3660046146a7565b611c49565b6104c2611cdc565b3480156108d457600080fd5b506104c26108e33660046146a7565b611d18565b3480156108f457600080fd5b506104c26109033660046145e6565b611d4b565b34801561091457600080fd5b506104c26109233660046145e6565b611d75565b34801561093457600080fd5b506104c26109433660046145af565b611d9f565b34801561095457600080fd5b506104c26109633660046146a7565b611e11565b34801561097457600080fd5b506105666109833660046146a7565b611e95565b34801561099457600080fd5b50601554610566906001600160a01b031681565b3480156109b457600080fd5b506106876109c33660046145e6565b611ef5565b6104c2611f7b565b3480156109dc57600080fd5b506104f96109eb3660046146a7565b611f8d565b3480156109fc57600080fd5b506104c2610a0b3660046146a7565b612255565b348015610a1c57600080fd5b5061048d610a2b3660046146a7565b6000908152600b60208190526040909120015460ff1690565b348015610a5057600080fd5b50610813610a5f3660046146a7565b612284565b348015610a7057600080fd5b50638b78c6d81954610566565b348015610a8957600080fd5b50610566610a983660046146a7565b6000908152601360205260409020546001600160a01b031690565b348015610abf57600080fd5b506104f9610ace3660046146a7565b6122af565b348015610adf57600080fd5b506104c2610aee3660046146a7565b6123cc565b348015610aff57600080fd5b506104c2610b0e3660046145af565b6123d9565b348015610b1f57600080fd5b506104f961244a565b348015610b3457600080fd5b50610813610b433660046145e6565b612459565b348015610b5457600080fd5b50610566610b633660046146a7565b6013602052600090815260409020546001600160a01b031681565b348015610b8a57600080fd5b506104c2610b993660046146a7565b6124cf565b348015610baa57600080fd5b506104c2612503565b348015610bbf57600080fd5b5061068760115481565b348015610bd557600080fd5b50601654610566906001600160a01b031681565b348015610bf557600080fd5b506104f9610c043660046146a7565b6125cf565b348015610c1557600080fd5b506104c2610c24366004614810565b6125ff565b348015610c3557600080fd5b50610c49610c4436600461493c565b61260e565b604051610499929190614a2e565b348015610c6357600080fd5b506104f9610c723660046146a7565b6126f6565b348015610c8357600080fd5b506104c2610c92366004614a5c565b612973565b348015610ca357600080fd5b50610cb7610cb23660046146a7565b6129ab565b6040516104999190614ac7565b348015610cd057600080fd5b50600f54610566906001600160a01b031681565b348015610cf057600080fd5b506104f9610cff3660046146a7565b612b4b565b348015610d1057600080fd5b50610d24610d1f36600461493c565b612ba1565b60405161049993929190614b77565b348015610d3f57600080fd5b50610d53610d4e3660046146a7565b612cb3565b604080516001600160a01b03938416815292909116602083015201610499565b6104c2610d81366004614bfb565b612ce2565b348015610d9257600080fd5b506104c2610da13660046146a7565b612ded565b348015610db257600080fd5b506104c2610dc1366004614c83565b612e1f565b348015610dd257600080fd5b506104f9610de1366004614cc9565b612e7b565b348015610df257600080fd5b5061048d610e01366004614cfd565b6001600160a01b03918216600090815260056020908152604080832093909416825291909152205460ff1690565b6104c2610e3d3660046145e6565b61312d565b348015610e4e57600080fd5b506104c2610e5d3660046145af565b61316d565b348015610e6e57600080fd5b506104c2610e7d366004614d36565b6131dd565b6104c2610e903660046145e6565b61322a565b348015610ea157600080fd5b50610687610eb03660046145e6565b63389a75e1600c908152600091909152602090205490565b6000610ed382613251565b92915050565b610ee38282613276565b610eee816004613335565b6000828152600b602052604090206003018190558082610f0d81611e95565b6001600160a01b031660008051602061564f833981519152604051610f4f906020808252600990820152684163636573736f727960b81b604082015260600190565b60405180910390a45050565b610f63613437565b601880546001600160a01b0319166001600160a01b0392909216919091179055565b606060008054610f9490614dbb565b80601f0160208091040260200160405190810160405280929190818152602001828054610fc090614dbb565b801561100d5780601f10610fe25761010080835404028352916020019161100d565b820191906000526020600020905b815481529060010190602001808311610ff057829003601f168201915b5050505050905090565b600061102282613452565b506000908152600460205260409020546001600160a01b031690565b600061104982611e95565b9050806001600160a01b0316836001600160a01b0316036110bb5760405162461bcd60e51b815260206004820152602160248201527f4552433732313a20617070726f76616c20746f2063757272656e74206f776e656044820152603960f91b60648201526084015b60405180910390fd5b336001600160a01b03821614806110d757506110d78133610e01565b6111495760405162461bcd60e51b815260206004820152603e60248201527f4552433732313a20617070726f76652063616c6c6572206973206e6f7420746f60448201527f6b656e206f776e6572206e6f7220617070726f76656420666f7220616c6c000060648201526084016110b2565b61115383836134b1565b505050565b600e602052600090815260409020805460018201805491929161117a90614dbb565b80601f01602080910402602001604051908101604052809291908181526020018280546111a690614dbb565b80156111f35780601f106111c8576101008083540402835291602001916111f3565b820191906000526020600020905b8154815290600101906020018083116111d657829003601f168201915b50505050509080600201805461120890614dbb565b80601f016020809104026020016040519081016040528092919081815260200182805461123490614dbb565b80156112815780601f1061125657610100808354040283529160200191611281565b820191906000526020600020905b81548152906001019060200180831161126457829003601f168201915b50505050509080600301805461129690614dbb565b80601f01602080910402602001604051908101604052809291908181526020018280546112c290614dbb565b801561130f5780601f106112e45761010080835404028352916020019161130f565b820191906000526020600020905b8154815290600101906020018083116112f257829003601f168201915b5050505050905084565b6113238282613276565b61132e816003613335565b6000828152600b60205260409020600201819055808261134d81611e95565b6001600160a01b031660008051602061564f833981519152604051610f4f906020808252600490820152634661636560e01b604082015260600190565b6113938161351f565b6000818152600b60205260408082206001019190915551632430b4b960e11b81526004015b6040518091039020816113ca83611e95565b6001600160a01b03167fe428b1839105819dce5e635ac7e16ed2a43028f6e294bab8655e29acb5dc60bb60405160405180910390a450565b61140c6003613559565b565b6060600061141b83612284565b905060006040518060400160405280601b81526020017f3c7376672076696577426f783d223020302031353020313530223e000000000081525090506000604051806040016040528060068152602001651e17b9bb339f60d11b815250905060606000600f60009054906101000a90046001600160a01b03166001600160a01b0316635c1ef2566040518163ffffffff1660e01b8152600401600060405180830381865afa1580156114d1573d6000803e3d6000fd5b505050506040513d6000823e601f3d908101601f191682016040526114f99190810190614e45565b9050600060125486511061150f57601254611512565b85515b9050604051806105400160405280610505815260200161566f610505913982604051602001611542929190614e79565b604051602081830303815290604052925060005b8181101561162757600f5487516000916001600160a01b03169063c7791531908a908590811061158857611588614ed0565b60200260200101516040518263ffffffff1660e01b81526004016115ae91815260200190565b600060405180830381865afa1580156115cb573d6000803e3d6000fd5b505050506040513d6000823e601f3d908101601f191682016040526115f39190810190614e45565b90508487828860405160200161160c9493929190614ee6565b60408051601f19818403018152919052945050600101611556565b50826040516020016116399190614f3d565b60408051601f1981840301815291905298975050505050505050565b61165d613437565b601680546001600160a01b0319166001600160a01b0392909216919091179055565b6116898282613276565b611694816001613335565b6000828152600b6020526040902081905580826116b081611e95565b6001600160a01b031660008051602061564f833981519152604051610f4f906020808252600490820152631219585960e21b604082015260600190565b6116f73382613881565b6117135760405162461bcd60e51b81526004016110b290614f65565b611153838383613900565b60006202a3006001600160401b03164201905063389a75e1600c5233600052806020600c2055337fdbf36a107da19e49527a7176a1babf963b4b0ff8cde35ee35d6cd8f1f9ac7e1d600080a250565b6117768161351f565b6000818152600b60205260408082206003019190915551684163636573736f727960b81b81526009016113b8565b606080606060006117b4856129ab565b90506117bf81612ba1565b50600f54604051630d403c8760e11b81529195506001600160a01b03169150631a80790e906117f2908490600401614ac7565b600060405180830381865afa15801561180f573d6000803e3d6000fd5b505050506040513d6000823e601f3d908101601f191682016040526118379190810190614fb3565b5060405190935061184f915084908490602001615051565b6040516020818303038152906040529350505050919050565b600061187383611ef5565b82106118d55760405162461bcd60e51b815260206004820152602b60248201527f455243373231456e756d657261626c653a206f776e657220696e646578206f7560448201526a74206f6620626f756e647360a81b60648201526084016110b2565b506001600160a01b03919091166000908152600660209081526040808320938352929052205490565b6119078161351f565b6000818152600b60205260408120818155600181018290556002810182905560038101829055600481018290556005810182905560068101919091558161194d81611e95565b6001600160a01b03167f46078a2cd4c69c3b4a27bdc69fdfe03d442ebcf405f1a68e9b5df6bc3e24429760405160405180910390a35050565b6060806000611994846129ab565b905061199f81612ba1565b5095945050505050565b6119b1613437565b601255565b6119bf8161351f565b6000818152600b60205260408082206004019190915551620546f760ec1b81526003016113b8565b61115383838360405180602001604052806000815250612973565b60606000611a0f83611ef5565b90506000816001600160401b03811115611a2b57611a2b61483c565b604051908082528060200260200182016040528015611a54578160200160208202803683370190505b50905060005b82811015611a9157611a6c8582611868565b828281518110611a7e57611a7e614ed0565b6020908102919091010152600101611a5a565b509392505050565b6003811115611ade5760405162461bcd60e51b8152602060048201526011602482015270092dcecc2d8d2c840c4dec8f292dcc8caf607b1b60448201526064016110b2565b6000918252600b602052604090912060090155565b611afd8282613276565b611b08816006613335565b6000828152600b602052604090206005018190558082611b2781611e95565b6001600160a01b031660008051602061564f833981519152604051610f4f90602080825260069082015265426f74746f6d60d01b604082015260600190565b8615611b7657611b76888861167f565b8515611b8657611b8688876123d9565b8415611b9657611b968886611319565b8315611ba657611ba68885610ed9565b8215611bb657611bb6888461316d565b8115611bc657611bc68883611af3565b8015611bd657611bd68882611d9f565b87611be089611e95565b6001600160a01b03167f56680590212b09eb4b72a2eba8801b037ec046dfc754538e924f5bb6a8c4db6c60405160405180910390a35050505050505050565b611c27613437565b601580546001600160a01b0319166001600160a01b0392909216919091179055565b6000611c5460085490565b8210611cb75760405162461bcd60e51b815260206004820152602c60248201527f455243373231456e756d657261626c653a20676c6f62616c20696e646578206f60448201526b7574206f6620626f756e647360a01b60648201526084016110b2565b60088281548110611cca57611cca614ed0565b90600052602060002001549050919050565b63389a75e1600c523360005260006020600c2055337ffa7b8eab7da67f412cc9575ed43464468f9bfbae89d1675917346ca6d8fe3c92600080a2565b611d218161351f565b6000818152600b602052604080822060060191909155516453686f657360d81b81526005016113b8565b611d53613437565b601480546001600160a01b0319166001600160a01b0392909216919091179055565b611d7d613437565b600f80546001600160a01b0319166001600160a01b0392909216919091179055565b611da98282613276565b611db4816007613335565b6000828152600b602052604090206006018190558082611dd381611e95565b6001600160a01b031660008051602061564f833981519152604051610f4f9060208082526005908201526453686f657360d81b604082015260600190565b6000818152601360205260409081902054600f5491516340d097c360e01b81526001600160a01b03918216600482018190529291909116906340d097c3906024016020604051808303816000875af1158015611e71573d6000803e3d6000fd5b505050506040513d601f19601f820116820180604052508101906111539190615080565b6000818152600260205260408120546001600160a01b031680610ed35760405162461bcd60e51b8152602060048201526018602482015277115490cdcc8c4e881a5b9d985b1a59081d1bdad95b88125160421b60448201526064016110b2565b60006001600160a01b038216611f5f5760405162461bcd60e51b815260206004820152602960248201527f4552433732313a2061646472657373207a65726f206973206e6f7420612076616044820152683634b21037bbb732b960b91b60648201526084016110b2565b506001600160a01b031660009081526003602052604090205490565b611f83613437565b61140c6000613aa7565b6060806060806060806060806060611fc66040518060800160405280606081526020016060815260200160608152602001600081525090565b6000611fd18c6129ab565b9050611fdc81612ba1565b600f54604051630d403c8760e11b8152939d50919a5095506001600160a01b031690631a80790e90612012908490600401614ac7565b600060405180830381865afa15801561202f573d6000803e3d6000fd5b505050506040513d6000823e601f3d908101601f191682016040526120579190810190614fb3565b604051929b5090985095506120729085908790602001615099565b60405160208183030381529060405292508787604051602001612096929190615051565b60408051601f19818403018152919052610140820151835295506120b98c612284565b5160608301526101208101516000908152600e6020526040902060010180546120e190614dbb565b80601f016020809104026020016040519081016040528092919081815260200182805461210d90614dbb565b801561215a5780601f1061212f5761010080835404028352916020019161215a565b820191906000526020600020905b81548152906001019060200180831161213d57829003601f168201915b505050506020808501929092525060008d8152600b9182905260409020015460ff166121a057604051806040016040528060028152602001610c9160f21b8152506121bc565b604051806040016040528060028152602001610cd160f21b8152505b60408084019190915260165490516332d01b2560e21b81526001600160a01b039091169063cb406c9490612200908f908e9089908f908c908e908b9060040161515d565b600060405180830381865afa15801561221d573d6000803e3d6000fd5b505050506040513d6000823e601f3d908101601f191682016040526122459190810190614e45565b9c9b505050505050505050505050565b61225e8161351f565b6000818152600b60205260408082209190915551631219585960e21b81526004016113b8565b6000818152601360205260409020546060906001600160a01b03166122a881612459565b9392505050565b6000818152600e60205260408120600201805460609291612356916122d390614dbb565b80601f01602080910402602001604051908101604052809291908181526020018280546122ff90614dbb565b801561234c5780601f106123215761010080835404028352916020019161234c565b820191906000526020600020905b81548152906001019060200180831161232f57829003601f168201915b5050505050612e7b565b6015546040516335b07b7960e11b81529192506001600160a01b031690636b60f6f290612387908490600401614653565b600060405180830381865afa1580156123a4573d6000803e3d6000fd5b505050506040513d6000823e601f3d908101601f191682016040526122a89190810190614e45565b6123d4613437565b601155565b6123e38282613276565b6123ee816002613335565b6000828152600b60205260409020600101819055808261240d81611e95565b6001600160a01b031660008051602061564f833981519152604051610f4f906020808252600490820152632430b4b960e11b604082015260600190565b606060018054610f9490614dbb565b600f5460405162438b6360e81b81526001600160a01b03838116600483015260609260009291169063438b630090602401600060405180830381865afa1580156124a7573d6000803e3d6000fd5b505050506040513d6000823e601f3d908101601f191682016040526122a891908101906151e6565b6124d88161351f565b6000818152600b6020526040808220600501919091555165426f74746f6d60d01b81526006016113b8565b600a5460ff161561140c5760005b606481101561252a57612522611402565b600101612511565b5061255460016040518060400160405280600681526020016533333333333360d01b815250612e1f565b61257d60036040518060400160405280600681526020016533333333333360d11b815250612e1f565b6125a660046040518060400160405280600681526020016519588c0d8e1960d21b815250612e1f565b61140c600860405180604001604052806006815260200165118c90cccc0d60d21b815250612e1f565b606060006125dc836129ab565b90508061016001516125f6576125f1836126f6565b6122a8565b6122a883611f8d565b61260a338383613ae5565b5050565b60608061261f8361012001516122af565b6126ed60405180604001604052806009815260200168426f6479205479706560b81b815250600e60008761012001518152602001908152602001600020600101805461266a90614dbb565b80601f016020809104026020016040519081016040528092919081815260200182805461269690614dbb565b80156126e35780601f106126b8576101008083540402835291602001916126e3565b820191906000526020600020905b8154815290600101906020018083116126c657829003601f168201915b5050505050613bb3565b91509150915091565b606080606080606080600061270a886129ab565b90506127158161260e565b600f5460405163041df25f60e31b81529298509096506001600160a01b0316906320ef92f890612749908490600401614ac7565b600060405180830381865afa158015612766573d6000803e3d6000fd5b505050506040513d6000823e601f3d908101601f1916820160405261278e919081019061528b565b909450925061279c8861140e565b91506127c96040518060800160405280606081526020016060815260200160608152602001600081525090565b61014082015181526127da89612284565b5160608201526101208201516000908152600e60205260409020600101805461280290614dbb565b80601f016020809104026020016040519081016040528092919081815260200182805461282e90614dbb565b801561287b5780601f106128505761010080835404028352916020019161287b565b820191906000526020600020905b81548152906001019060200180831161285e57829003601f168201915b505050506020808401929092525060008a8152600b9182905260409020015460ff166128c157604051806040016040528060028152602001610c9160f21b8152506128dd565b604051806040016040528060028152602001610cd160f21b8152505b6040808301919091526015549051634e2fa37760e11b81526001600160a01b0390911690639c5f46ee90612921908c908b908b908b908b908b908a9060040161515d565b600060405180830381865afa15801561293e573d6000803e3d6000fd5b505050506040513d6000823e601f3d908101601f191682016040526129669190810190614e45565b9998505050505050505050565b61297d3383613881565b6129995760405162461bcd60e51b81526004016110b290614f65565b6129a584848484613bdf565b50505050565b612a1760405180610180016040528060008152602001600081526020016000815260200160008152602001600081526020016000815260200160008152602001600063ffffffff1681526020016000815260200160008152602001606081526020016000151581525090565b6000828152600b60209081526040808320815161018081018352815481526001820154938101939093526002810154918301919091526003810154606083015260048101546080830152600581015460a0830152600681015460c0830152600781015463ffffffff1660e083015260088101546101008301526009810154610120830152600a8101805461014084019190612ab190614dbb565b80601f0160208091040260200160405190810160405280929190818152602001828054612add90614dbb565b8015612b2a5780601f10612aff57610100808354040283529160200191612b2a565b820191906000526020600020905b815481529060010190602001808311612b0d57829003601f168201915b5050509183525050600b919091015460ff1615156020909101529392505050565b6000818152600260205260409020546060906001600160a01b0316612b8357604051631a65aaab60e31b815260040160405180910390fd5b5050604080518082019091526002815261796f60f01b602082015290565b6060806060612bb48461012001516122af565b600e60008661012001518152602001908152602001600020600301612c1a60405180604001604052806009815260200168426f6479205479706560b81b815250600e60008961012001518152602001908152602001600020600101805461266a90614dbb565b818054612c2690614dbb565b80601f0160208091040260200160405190810160405280929190818152602001828054612c5290614dbb565b8015612c9f5780601f10612c7457610100808354040283529160200191612c9f565b820191906000526020600020905b815481529060010190602001808311612c8257829003601f168201915b505050505091509250925092509193909250565b600080612cbf83611e95565b6000938452601360205260409093205492936001600160a01b0390931692915050565b60038560ff161080612cf7575060078560ff16115b15612d15576040516367af3f5360e01b815260040160405180910390fd5b612d4a338585604051602001612d2d939291906152e4565b604051602081830303815290604052805190602001208383613c12565b612d6757604051638baa579f60e01b815260040160405180910390fd5b60178484604051612d79929190615310565b9081526040519081900360200190205460ff1615612da957604051623f613760e71b815260040160405180910390fd5b612db285613559565b600160178585604051612dc6929190615310565b908152604051908190036020019020805491151560ff199092169190911790555050505050565b612df68161351f565b6000818152600b60205260408082206002019190915551634661636560e01b81526004016113b8565b8051600614612e605760405162461bcd60e51b815260206004820152600d60248201526c24b73b30b634b21031b7b637b960991b60448201526064016110b2565b6000828152600b60205260409020600a016111538282615368565b80516060908015801590612e975750612e9560058261543d565b155b612ee35760405162461bcd60e51b815260206004820152601960248201527f496e76616c696420626f6479206279746573206c656e6774680000000000000060448201526064016110b2565b604080516111948082526111c082019092526000916020820181803683370190505090506000612f14600584615467565b905060005b81811015613123576000612f2e82600561547b565b90506000878281518110612f4457612f44614ed0565b016020015160f81c9050600088612f5c846001615492565b81518110612f6c57612f6c614ed0565b016020015160f81c9050600060ff8316612f8783601e61547b565b612f919190615492565b612f9c90600561547b565b9050898481518110612fb057612fb0614ed0565b602001015160f81c60f81b878281518110612fcd57612fcd614ed0565b60200101906001600160f81b031916908160001a905350898460010181518110612ff957612ff9614ed0565b602001015160f81c60f81b87826001018151811061301957613019614ed0565b60200101906001600160f81b031916908160001a90535089846002018151811061304557613045614ed0565b602001015160f81c60f81b87826002018151811061306557613065614ed0565b60200101906001600160f81b031916908160001a90535089846003018151811061309157613091614ed0565b602001015160f81c60f81b8782600301815181106130b1576130b1614ed0565b60200101906001600160f81b031916908160001a9053508984600401815181106130dd576130dd614ed0565b602001015160f81c60f81b8782600401815181106130fd576130fd614ed0565b60200101906001600160f81b031916908160001a90535050505050806001019050612f19565b5090949350505050565b613135613437565b63389a75e1600c52806000526020600c20805442111561315d57636f5e88186000526004601cfd5b6000905561316a81613aa7565b50565b6131778282613276565b613182816005613335565b6000828152600b6020526040902060040181905580826131a181611e95565b6001600160a01b031660008051602061564f833981519152604051610f4f906020808252600390820152620546f760ec1b604082015260600190565b6131e5613437565b6000848152600e60205260409020848155600181016132048582615368565b50600281016132138482615368565b50600381016132228382615368565b505050505050565b613232613437565b8060601b61324857637448fbae6000526004601cfd5b61316a81613aa7565b60006001600160e01b0319821663780e9d6360e01b1480610ed35750610ed382613d24565b61327f8261351f565b60008281526013602052604080822054600f5491516331a9108f60e11b8152600481018590526001600160a01b0391821693929190911690636352211e90602401602060405180830381865afa1580156132dd573d6000803e3d6000fd5b505050506040513d601f19601f8201168201806040525081019061330191906154a5565b9050816001600160a01b0316816001600160a01b0316146129a55760405163e6ca793160e01b815260040160405180910390fd5b600f5460405163e8a1268d60e01b8152600481018490526000916001600160a01b03169063e8a1268d90602401602060405180830381865afa15801561337f573d6000803e3d6000fd5b505050506040513d601f19601f820116820180604052508101906133a391906154c2565b90508160078111156133b7576133b76154e3565b6040516020016133c991815260200190565b604051602081830303815290604052805190602001208160078111156133f1576133f16154e3565b60405160200161340391815260200190565b604051602081830303815290604052805190602001201461115357604051633e54c6fb60e11b815260040160405180910390fd5b638b78c6d81954331461140c576382b429006000526004601cfd5b6000818152600260205260409020546001600160a01b031661316a5760405162461bcd60e51b8152602060048201526018602482015277115490cdcc8c4e881a5b9d985b1a59081d1bdad95b88125160421b60448201526064016110b2565b600081815260046020526040902080546001600160a01b0319166001600160a01b03841690811790915581906134e682611e95565b6001600160a01b03167f8c5be1e5ebec7d5bd14f71427d1e84f3dd0314c0f7b2291e5b200ac8c7c3b92560405160405180910390a45050565b61352881611e95565b6001600160a01b0316336001600160a01b03161461316a576040516324adc17160e11b815260040160405180910390fd5b6014546001600160a01b031661358257604051633390ca8960e21b815260040160405180910390fd5b6000601060008154613593906154f9565b918290555090506135a43382613d74565b604051638a54c52f60e01b81527355266d75d1a14e4572138116af39863ed6596e7f600482015260006024820181905262014a34604483015230606483015260848201839052906f6551c19487814612e58fe0681377575890638a54c52f9060a4016020604051808303816000875af1158015613625573d6000803e3d6000fd5b505050506040513d601f19601f8201168201806040525081019061364991906154a5565b6000838152601360205260409081902080546001600160a01b0319166001600160a01b038416908117909155905163189acdbd60e31b81527341c8f39463a868d3a88af00cd0fe7102f30e44ec60048201529192509063c4d66de890602401600060405180830381600087803b1580156136c257600080fd5b505af11580156136d6573d6000803e3d6000fd5b50506014546040516358a2727360e01b81526001600160a01b03858116600483015260ff881660248301526000945090911691506358a27273906044016000604051808303816000875af1158015613732573d6000803e3d6000fd5b505050506040513d6000823e601f3d908101601f1916820160405261375a91908101906151e6565b6000848152600b602052604081206008810186905582519293509183919061378457613784614ed0565b60200260200101518160060181905550816001815181106137a7576137a7614ed0565b60200260200101518160050181905550816002815181106137ca576137ca614ed0565b602090810291909101810151600483810191909155600b8301805460ff19169055604080519283018790529091016040516020818303038152906040528051906020012060001c61381b919061543d565b60098201556040805180820190915260068152650c110d914e5160d21b6020820152600a82019061384c9082615368565b50604051849033907f0f6798a560793a54c3bcfe86a93cde1e73087d944c0ea20544137d412139688590600090a35050505050565b60008061388d83611e95565b9050806001600160a01b0316846001600160a01b031614806138d457506001600160a01b0380821660009081526005602090815260408083209388168352929052205460ff165b806138f85750836001600160a01b03166138ed84611017565b6001600160a01b0316145b949350505050565b826001600160a01b031661391382611e95565b6001600160a01b0316146139775760405162461bcd60e51b815260206004820152602560248201527f4552433732313a207472616e736665722066726f6d20696e636f72726563742060448201526437bbb732b960d91b60648201526084016110b2565b6001600160a01b0382166139d95760405162461bcd60e51b8152602060048201526024808201527f4552433732313a207472616e7366657220746f20746865207a65726f206164646044820152637265737360e01b60648201526084016110b2565b6139e4838383613ec2565b6139ef6000826134b1565b6001600160a01b0383166000908152600360205260408120805460019290613a18908490615512565b90915550506001600160a01b0382166000908152600360205260408120805460019290613a46908490615492565b909155505060008181526002602052604080822080546001600160a01b0319166001600160a01b0386811691821790925591518493918716917fddf252ad1be2c89b69c2b068fc378daa952ba7f163c4a11628f55a4df523b3ef91a4505050565b638b78c6d81980546001600160a01b039092169182907f8be0079c531659141344cd1fd0a4f28419497f9722a3daafe3b4186f6b6457e0600080a355565b816001600160a01b0316836001600160a01b031603613b465760405162461bcd60e51b815260206004820152601960248201527f4552433732313a20617070726f766520746f2063616c6c65720000000000000060448201526064016110b2565b6001600160a01b03838116600081815260056020908152604080832094871680845294825291829020805460ff191686151590811790915591519182527f17307eab39ab6107e8899845ad3d59bd9653f200f220920489ca2b5937696c31910160405180910390a3505050565b60608282604051602001613bc8929190615525565b604051602081830303815290604052905092915050565b613bea848484613900565b613bf684848484613ecd565b6129a55760405162461bcd60e51b81526004016110b290615596565b6018546000906001600160a01b0316613c665760405162461bcd60e51b81526020600482015260166024820152754d697373696e672073797374656d206164647265737360501b60448201526064016110b2565b6000613cbf856040517f19457468657265756d205369676e6564204d6573736167653a0a3332000000006020820152603c8101829052600090605c01604051602081830303815290604052805190602001209050919050565b601854604080516020601f88018190048102820181019092528681529293506001600160a01b0390911691613d119187908790819084018382808284376000920191909152508693925050613fce9050565b6001600160a01b03161495945050505050565b60006001600160e01b031982166380ac58cd60e01b1480613d5557506001600160e01b03198216635b5e139f60e01b145b80610ed357506301ffc9a760e01b6001600160e01b0319831614610ed3565b6001600160a01b038216613dca5760405162461bcd60e51b815260206004820181905260248201527f4552433732313a206d696e7420746f20746865207a65726f206164647265737360448201526064016110b2565b6000818152600260205260409020546001600160a01b031615613e2f5760405162461bcd60e51b815260206004820152601c60248201527f4552433732313a20746f6b656e20616c7265616479206d696e7465640000000060448201526064016110b2565b613e3b60008383613ec2565b6001600160a01b0382166000908152600360205260408120805460019290613e64908490615492565b909155505060008181526002602052604080822080546001600160a01b0319166001600160a01b03861690811790915590518392907fddf252ad1be2c89b69c2b068fc378daa952ba7f163c4a11628f55a4df523b3ef908290a45050565b611153838383613fea565b60006001600160a01b0384163b15613fc357604051630a85bd0160e11b81526001600160a01b0385169063150b7a0290613f119033908990889088906004016155e8565b6020604051808303816000875af1925050508015613f4c575060408051601f3d908101601f19168201909252613f499181019061561b565b60015b613fa9573d808015613f7a576040519150601f19603f3d011682016040523d82523d6000602084013e613f7f565b606091505b508051600003613fa15760405162461bcd60e51b81526004016110b290615596565b805181602001fd5b6001600160e01b031916630a85bd0160e11b1490506138f8565b506001949350505050565b6000806000613fdd85856140a2565b91509150611a9181614110565b6001600160a01b0383166140455761404081600880546000838152600960205260408120829055600182018355919091527ff3f7a9fe364faab93b216da50a3214154f22a0a2b415b23a84c8169e8b636ee30155565b614068565b816001600160a01b0316836001600160a01b0316146140685761406883826142c6565b6001600160a01b03821661407f5761115381614363565b826001600160a01b0316826001600160a01b031614611153576111538282614412565b60008082516041036140d85760208301516040840151606085015160001a6140cc87828585614456565b94509450505050614109565b825160400361410157602083015160408401516140f6868383614543565b935093505050614109565b506000905060025b9250929050565b6000816004811115614124576141246154e3565b0361412c5750565b6001816004811115614140576141406154e3565b0361418d5760405162461bcd60e51b815260206004820152601860248201527f45434453413a20696e76616c6964207369676e6174757265000000000000000060448201526064016110b2565b60028160048111156141a1576141a16154e3565b036141ee5760405162461bcd60e51b815260206004820152601f60248201527f45434453413a20696e76616c6964207369676e6174757265206c656e6774680060448201526064016110b2565b6003816004811115614202576142026154e3565b0361425a5760405162461bcd60e51b815260206004820152602260248201527f45434453413a20696e76616c6964207369676e6174757265202773272076616c604482015261756560f01b60648201526084016110b2565b600481600481111561426e5761426e6154e3565b0361316a5760405162461bcd60e51b815260206004820152602260248201527f45434453413a20696e76616c6964207369676e6174757265202776272076616c604482015261756560f01b60648201526084016110b2565b600060016142d384611ef5565b6142dd9190615512565b600083815260076020526040902054909150808214614330576001600160a01b03841660009081526006602090815260408083208584528252808320548484528184208190558352600790915290208190555b5060009182526007602090815260408084208490556001600160a01b039094168352600681528383209183525290812055565b60085460009061437590600190615512565b6000838152600960205260408120546008805493945090928490811061439d5761439d614ed0565b9060005260206000200154905080600883815481106143be576143be614ed0565b60009182526020808320909101929092558281526009909152604080822084905585825281205560088054806143f6576143f6615638565b6001900381819060005260206000200160009055905550505050565b600061441d83611ef5565b6001600160a01b039093166000908152600660209081526040808320868452825280832085905593825260079052919091209190915550565b6000807f7fffffffffffffffffffffffffffffff5d576e7357a4501ddfe92f46681b20a083111561448d575060009050600361453a565b8460ff16601b141580156144a557508460ff16601c14155b156144b6575060009050600461453a565b6040805160008082526020820180845289905260ff881692820192909252606081018690526080810185905260019060a0016020604051602081039080840390855afa15801561450a573d6000803e3d6000fd5b5050604051601f1901519150506001600160a01b0381166145335760006001925092505061453a565b9150600090505b94509492505050565b6000806001600160ff1b0383168161456060ff86901c601b615492565b905061456e87828885614456565b935093505050935093915050565b6001600160e01b03198116811461316a57600080fd5b6000602082840312156145a457600080fd5b81356122a88161457c565b600080604083850312156145c257600080fd5b50508035926020909101359150565b6001600160a01b038116811461316a57600080fd5b6000602082840312156145f857600080fd5b81356122a8816145d1565b60005b8381101561461e578181015183820152602001614606565b50506000910152565b6000815180845261463f816020860160208601614603565b601f01601f19169290920160200192915050565b6020815260006122a86020830184614627565b8035801515811461467657600080fd5b919050565b6000806040838503121561468e57600080fd5b8235915061469e60208401614666565b90509250929050565b6000602082840312156146b957600080fd5b5035919050565b600080604083850312156146d357600080fd5b82356146de816145d1565b946020939093013593505050565b8481526080602082015260006147056080830186614627565b82810360408401526147178186614627565b9050828103606084015261472b8185614627565b979650505050505050565b60008060006060848603121561474b57600080fd5b8335614756816145d1565b92506020840135614766816145d1565b929592945050506040919091013590565b6020808252825182820181905260009190848201906040850190845b818110156147af57835183529284019291840191600101614793565b50909695505050505050565b600080600080600080600080610100898b0312156147d857600080fd5b505086359860208801359850604088013597606081013597506080810135965060a0810135955060c0810135945060e0013592509050565b6000806040838503121561482357600080fd5b823561482e816145d1565b915061469e60208401614666565b634e487b7160e01b600052604160045260246000fd5b60405161018081016001600160401b03811182821017156148755761487561483c565b60405290565b604051601f8201601f191681016001600160401b03811182821017156148a3576148a361483c565b604052919050565b803563ffffffff8116811461467657600080fd5b60006001600160401b038211156148d8576148d861483c565b50601f01601f191660200190565b600082601f8301126148f757600080fd5b813561490a614905826148bf565b61487b565b81815284602083860101111561491f57600080fd5b816020850160208301376000918101602001919091529392505050565b60006020828403121561494e57600080fd5b81356001600160401b038082111561496557600080fd5b90830190610180828603121561497a57600080fd5b614982614852565b823581526020830135602082015260408301356040820152606083013560608201526080830135608082015260a083013560a082015260c083013560c08201526149ce60e084016148ab565b60e08201526101008381013590820152610120808401359082015261014080840135838111156149fd57600080fd5b614a09888287016148e6565b8284015250506101609150614a1f828401614666565b91810191909152949350505050565b604081526000614a416040830185614627565b8281036020840152614a538185614627565b95945050505050565b60008060008060808587031215614a7257600080fd5b8435614a7d816145d1565b93506020850135614a8d816145d1565b92506040850135915060608501356001600160401b03811115614aaf57600080fd5b614abb878288016148e6565b91505092959194509250565b6020815281516020820152602082015160408201526040820151606082015260608201516080820152608082015160a082015260a082015160c082015260c082015160e0820152600060e0830151610100614b298185018363ffffffff169052565b840151610120848101919091528401516101408085019190915284015161018061016080860182905291925090614b646101a0860184614627565b9086015180151583870152909250613123565b606081526000614b8a6060830186614627565b8281036020840152614b9c8186614627565b90508281036040840152614bb08185614627565b9695505050505050565b60008083601f840112614bcc57600080fd5b5081356001600160401b03811115614be357600080fd5b60208301915083602082850101111561410957600080fd5b600080600080600060608688031215614c1357600080fd5b853560ff81168114614c2457600080fd5b945060208601356001600160401b0380821115614c4057600080fd5b614c4c89838a01614bba565b90965094506040880135915080821115614c6557600080fd5b50614c7288828901614bba565b969995985093965092949392505050565b60008060408385031215614c9657600080fd5b8235915060208301356001600160401b03811115614cb357600080fd5b614cbf858286016148e6565b9150509250929050565b600060208284031215614cdb57600080fd5b81356001600160401b03811115614cf157600080fd5b6138f8848285016148e6565b60008060408385031215614d1057600080fd5b8235614d1b816145d1565b91506020830135614d2b816145d1565b809150509250929050565b60008060008060808587031215614d4c57600080fd5b8435935060208501356001600160401b0380821115614d6a57600080fd5b614d76888389016148e6565b94506040870135915080821115614d8c57600080fd5b614d98888389016148e6565b93506060870135915080821115614dae57600080fd5b50614abb878288016148e6565b600181811c90821680614dcf57607f821691505b602082108103614def57634e487b7160e01b600052602260045260246000fd5b50919050565b6000614e03614905846148bf565b9050828152838383011115614e1757600080fd5b6122a8836020830184614603565b600082601f830112614e3657600080fd5b6122a883835160208501614df5565b600060208284031215614e5757600080fd5b81516001600160401b03811115614e6d57600080fd5b6138f884828501614e25565b60008351614e8b818460208801614603565b835190830190614e9f818360208801614603565b7f3c672069643d226261636b7061636b547261697473223e0000000000000000009101908152601701949350505050565b634e487b7160e01b600052603260045260246000fd5b60008551614ef8818460208a01614603565b855190830190614f0c818360208a01614603565b8551910190614f1f818360208901614603565b8451910190614f32818360208801614603565b019695505050505050565b60008251614f4f818460208701614603565b631e17b39f60e11b920191825250600401919050565b6020808252602e908201527f4552433732313a2063616c6c6572206973206e6f7420746f6b656e206f776e6560408201526d1c881b9bdc88185c1c1c9bdd995960921b606082015260800190565b600080600060608486031215614fc857600080fd5b83516001600160401b0380821115614fdf57600080fd5b614feb87838801614e25565b9450602086015191508082111561500157600080fd5b818601915086601f83011261501557600080fd5b61502487835160208501614df5565b9350604086015191508082111561503a57600080fd5b5061504786828701614e25565b9150509250925092565b60008351615063818460208801614603565b835190830190615077818360208801614603565b01949350505050565b60006020828403121561509257600080fd5b5051919050565b6d2261747472696275746573223a5b60901b815282516000906150c381600e850160208801614603565b600b60fa1b600e9184019182015283516150e481600f840160208801614603565b605d60f81b600f9290910191820152601001949350505050565b60008151608084526151136080850182614627565b90506020830151848203602086015261512c8282614627565b915050604083015184820360408601526151468282614627565b915050606083015160608501528091505092915050565b87815260e06020820152600061517660e0830189614627565b82810360408401526151888189614627565b9050828103606084015261519c8188614627565b905082810360808401526151b08187614627565b905082810360a08401526151c48186614627565b905082810360c08401526151d881856150fe565b9a9950505050505050505050565b600060208083850312156151f957600080fd5b82516001600160401b038082111561521057600080fd5b818501915085601f83011261522457600080fd5b8151818111156152365761523661483c565b8060051b915061524784830161487b565b818152918301840191848101908884111561526157600080fd5b938501935b8385101561527f57845182529385019390850190615266565b98975050505050505050565b6000806040838503121561529e57600080fd5b82516001600160401b03808211156152b557600080fd5b6152c186838701614e25565b935060208501519150808211156152d757600080fd5b50614cbf85828601614e25565b6bffffffffffffffffffffffff198460601b168152818360148301376000910160140190815292915050565b8183823760009101908152919050565b601f821115611153576000816000526020600020601f850160051c810160208610156153495750805b601f850160051c820191505b8181101561322257828155600101615355565b81516001600160401b038111156153815761538161483c565b6153958161538f8454614dbb565b84615320565b602080601f8311600181146153ca57600084156153b25750858301515b600019600386901b1c1916600185901b178555613222565b600085815260208120601f198616915b828110156153f9578886015182559484019460019091019084016153da565b50858210156154175787850151600019600388901b60f8161c191681555b5050505050600190811b01905550565b634e487b7160e01b600052601260045260246000fd5b60008261544c5761544c615427565b500690565b634e487b7160e01b600052601160045260246000fd5b60008261547657615476615427565b500490565b8082028115828204841417610ed357610ed3615451565b80820180821115610ed357610ed3615451565b6000602082840312156154b757600080fd5b81516122a8816145d1565b6000602082840312156154d457600080fd5b8151600881106122a857600080fd5b634e487b7160e01b600052602160045260246000fd5b60006001820161550b5761550b615451565b5060010190565b81810381811115610ed357610ed3615451565b6e3d913a3930b4ba2fba3cb832911d1160891b8152825160009061555081600f850160208801614603565b6a1116113b30b63ab2911d1160a91b600f91840191820152835161557b81601a840160208801614603565b61227d60f01b601a9290910191820152601c01949350505050565b60208082526032908201527f4552433732313a207472616e7366657220746f206e6f6e20455243373231526560408201527131b2b4bb32b91034b6b83632b6b2b73a32b960711b606082015260800190565b6001600160a01b0385811682528416602082015260408101839052608060608201819052600090614bb090830184614627565b60006020828403121561562d57600080fd5b81516122a88161457c565b634e487b7160e01b600052603160045260246000fdfe8aea9baa1ab7209ce94784ac5f5149343f8d985fd4278de25a7b390989f2cf853c672069643d22416c6c20547261697473223e3c672069643d226261636b7061636b2220636c6173733d22636c6f736564223e3c7061746820643d224d302030204c33302030204c3330203330204c30203330205a222066696c6c3d227267622831322c203130392c203135372922202f3e3c7376672069643d226261636b7061636b5549222076696577426f783d223020302031323020313230223e203c7374796c653e2e75697b77696474683a3170783b206865696768743a203170783b2066696c6c3a77686974657d3c2f7374796c653e203c672069643d22636c6f736542746e22207472616e73666f726d3d227472616e736c61746528322c3229223e203c7265637420783d22312220793d22312220636c6173733d227569223e3c2f726563743e203c7265637420783d22322220793d22322220636c6173733d227569223e3c2f726563743e203c7265637420783d22332220793d22332220636c6173733d227569223e3c2f726563743e203c7265637420783d22342220793d22342220636c6173733d227569223e3c2f726563743e203c7265637420783d22352220793d22352220636c6173733d227569223e3c2f726563743e203c7265637420783d22352220793d22312220636c6173733d227569223e3c2f726563743e203c7265637420783d22342220793d22322220636c6173733d227569223e3c2f726563743e203c212d2d203c7265637420783d22332220793d2233222077696474683d223122206865696768743d2231222066696c6c3d227768697465223e3c2f726563743e202d2d3e203c7265637420783d22322220793d22342220636c6173733d227569223e3c2f726563743e203c7265637420783d22312220793d22352220636c6173733d227569223e3c2f726563743e203c2f673e203c672069643d226c65667442746e2220636c6173733d22627574746f6e22207472616e73666f726d3d227472616e736c6174652834352c31313029223e203c7061746820643d224d302030204c362030204c362036204c302036205a222066696c6c3d227472616e73706172656e7422202f3e203c7265637420783d22322220793d22302220636c6173733d227569223e3c2f726563743e203c7265637420783d22312220793d22312220636c6173733d227569223e3c2f726563743e203c7265637420783d22302220793d22322220636c6173733d227569223e3c2f726563743e203c7265637420783d22312220793d22332220636c6173733d227569223e3c2f726563743e203c7265637420783d22322220793d22342220636c6173733d227569223e3c2f726563743e203c2f673e203c672069643d22726967687442746e2220636c6173733d22627574746f6e22207472616e73666f726d3d227472616e736c6174652836352c31313029223e203c7061746820643d224d302030204c362030204c362036204c302036205a222066696c6c3d227472616e73706172656e7422202f3e203c7265637420783d22332220793d22302220636c6173733d227569223e3c2f726563743e203c7265637420783d22342220793d22312220636c6173733d227569223e3c2f726563743e203c7265637420783d22352220793d22322220636c6173733d227569223e3c2f726563743e203c7265637420783d22342220793d22332220636c6173733d227569223e3c2f726563743e203c7265637420783d22332220793d22342220636c6173733d227569223e3c2f726563743e203c2f673e203c2f7376673e20a2646970667358221220b5e543030afd59b0977ea7b487df898c9193cdf0c36a7b00ee4028a166710d6064736f6c63430008160033","linkReferences":{}},"methodIdentifiers":{"MAX_TRAITS_TO_OUTPUT()":"20e0b93c","_debugPostConstructorMint()":"9c7be2f1","addNewBody(uint256,string,bytes,bytes)":"f2361e23","approve(address,uint256)":"095ea7b3","balanceOf(address)":"70a08231","bodyIndexToMetadata(uint256)":"0c83f9d7","buyTrait(uint256)":"6273ca2c","cancelOwnershipHandover()":"54d1f13d","completeOwnershipHandover(address)":"f04e283e","equipAccessory(uint256,uint256)":"0447a45e","equipAll(uint256,uint256,uint256,uint256,uint256,uint256,uint256,uint256)":"4a4333a3","equipBottom(uint256,uint256)":"45a10d0f","equipFace(uint256,uint256)":"0f162320","equipHair(uint256,uint256)":"94cbd9c4","equipHead(uint256,uint256)":"1e162a33","equipShoes(uint256,uint256)":"60b77b23","equipTop(uint256,uint256)":"f18dc22d","firstSeasonRenderMinter()":"13ea0ae3","getApproved(uint256)":"081812fc","getBackpackSVGs(uint256)":"14fe8ff4","getBodyImage(bytes)":"e37db3c2","getBodyImageSvg(uint256)":"916c546b","getBodySVGZmapsAndMetadata((uint256,uint256,uint256,uint256,uint256,uint256,uint256,uint32,uint256,uint256,string,bool))":"cb0b831a","getBodySvgAndMetadata((uint256,uint256,uint256,uint256,uint256,uint256,uint256,uint32,uint256,uint256,string,bool))":"a9f5fa8c","getBodyZMap(uint256)":"306c7334","getOwnerAndTBAAddressForTokenId(uint256)":"cc9a5d37","getPeter(uint256)":"be928ff6","getPeterZMap(uint256)":"2bd1ca45","getTBAAddressForTokenId(uint256)":"8e29d3e9","getTokenRenderZ(uint256)":"8200ea51","getTraitTokens(address)":"998cfb6e","getTraitsForTokenId(uint256)":"850ad51a","isApprovedForAll(address,address)":"e985e9c5","mainRenderer()":"66b89b5a","mint()":"1249c58b","mintByLevel(uint8,string,bytes)":"cef80d4a","name()":"06fdde03","owner()":"8da5cb5b","ownerOf(uint256)":"6352211e","ownershipHandoverExpiresAt(address)":"fee81cf4","price()":"a035b1fe","renderAsDataUri(uint256)":"a1d62680","renderAsDataUriSVG(uint256)":"b28fbe40","renderAsDataUriZ(uint256)":"7557f2dc","renounceOwnership()":"715018a6","requestOwnershipHandover()":"25692962","safeTransferFrom(address,address,uint256)":"42842e0e","safeTransferFrom(address,address,uint256,bytes)":"b88d4fde","setApprovalForAll(address,bool)":"a22cb465","setBackgroundColor(uint256,string)":"d68c4f32","setBodyIndex(uint256,uint256)":"457e7e61","setFirstSeasonRenderMinter(address)":"58a97640","setMainRenderer(address)":"4ddb3961","setMaxTraitsToOutput(uint256)":"33d3d9bf","setPrice(uint256)":"91b7f5ed","setSystemAddress(address)":"06210197","setTokenRenderZ(uint256,bool)":"07f4e045","setTraitsContract(address)":"5eabd84a","setZRenderer(address)":"172b054d","supportsInterface(bytes4)":"01ffc9a7","symbol()":"95d89b41","tokenByIndex(uint256)":"4f6ccce7","tokenIdToTBAAccountAddress(uint256)":"9c05d68d","tokenOfOwnerByIndex(address,uint256)":"2f745c59","tokenURI(uint256)":"c87b56dd","totalSupply()":"18160ddd","traitsContract()":"c093afdb","transferFrom(address,address,uint256)":"23b872dd","transferOwnership(address)":"f2fde38b","unequipAccessory(uint256)":"293ed3f7","unequipAll(uint256)":"3044825b","unequipBottom(uint256)":"9c762015","unequipFace(uint256)":"d5b55c8b","unequipHair(uint256)":"105338e0","unequipHead(uint256)":"7afe8d34","unequipShoes(uint256)":"58180d35","unequipTop(uint256)":"347bd8f4","walletOfOwner(address)":"438b6300","zRenderer()":"a15c561b"},"id":40}