{"abi":[{"type":"constructor","inputs":[{"name":"localDeploy_","type":"bool","internalType":"bool"}],"stateMutability":"nonpayable"},{"type":"function","name":"_debugPostConstructorMint","inputs":[],"outputs":[],"stateMutability":"nonpayable"},{"type":"function","name":"addNewBody","inputs":[{"name":"_bodyIndex","type":"uint256","internalType":"uint256"},{"name":"_bodyName","type":"string","internalType":"string"},{"name":"_colorMap","type":"bytes","internalType":"bytes"},{"name":"_zMap","type":"bytes","internalType":"bytes"}],"outputs":[],"stateMutability":"nonpayable"},{"type":"function","name":"approve","inputs":[{"name":"to","type":"address","internalType":"address"},{"name":"tokenId","type":"uint256","internalType":"uint256"}],"outputs":[],"stateMutability":"nonpayable"},{"type":"function","name":"balanceOf","inputs":[{"name":"owner","type":"address","internalType":"address"}],"outputs":[{"name":"","type":"uint256","internalType":"uint256"}],"stateMutability":"view"},{"type":"function","name":"bodyIndexToMetadata","inputs":[{"name":"","type":"uint256","internalType":"uint256"}],"outputs":[{"name":"bodyIndex","type":"uint256","internalType":"uint256"},{"name":"bodyName","type":"string","internalType":"string"},{"name":"colorMap","type":"bytes","internalType":"bytes"},{"name":"zMap","type":"bytes","internalType":"bytes"}],"stateMutability":"view"},{"type":"function","name":"cancelOwnershipHandover","inputs":[],"outputs":[],"stateMutability":"payable"},{"type":"function","name":"checkIfTraitIsEquipped","inputs":[{"name":"_chonkId","type":"uint256","internalType":"uint256"},{"name":"_traitId","type":"uint256","internalType":"uint256"}],"outputs":[{"name":"","type":"bool","internalType":"bool"}],"stateMutability":"view"},{"type":"function","name":"chonkIdToApprovedOperators","inputs":[{"name":"chonkId","type":"uint256","internalType":"uint256"},{"name":"","type":"uint256","internalType":"uint256"}],"outputs":[{"name":"operators","type":"address","internalType":"address"}],"stateMutability":"view"},{"type":"function","name":"completeOwnershipHandover","inputs":[{"name":"pendingOwner","type":"address","internalType":"address"}],"outputs":[],"stateMutability":"payable"},{"type":"function","name":"equipAccessory","inputs":[{"name":"_peterTokenId","type":"uint256","internalType":"uint256"},{"name":"_traitTokenId","type":"uint256","internalType":"uint256"}],"outputs":[],"stateMutability":"nonpayable"},{"type":"function","name":"equipAll","inputs":[{"name":"_peterTokenId","type":"uint256","internalType":"uint256"},{"name":"_headTokenId","type":"uint256","internalType":"uint256"},{"name":"_hairTokenId","type":"uint256","internalType":"uint256"},{"name":"_faceTokenId","type":"uint256","internalType":"uint256"},{"name":"_accessoryTokenId","type":"uint256","internalType":"uint256"},{"name":"_topTokenId","type":"uint256","internalType":"uint256"},{"name":"_bottomTokenId","type":"uint256","internalType":"uint256"},{"name":"_shoesTokenId","type":"uint256","internalType":"uint256"}],"outputs":[],"stateMutability":"nonpayable"},{"type":"function","name":"equipBottom","inputs":[{"name":"_peterTokenId","type":"uint256","internalType":"uint256"},{"name":"_traitTokenId","type":"uint256","internalType":"uint256"}],"outputs":[],"stateMutability":"nonpayable"},{"type":"function","name":"equipFace","inputs":[{"name":"_peterTokenId","type":"uint256","internalType":"uint256"},{"name":"_traitTokenId","type":"uint256","internalType":"uint256"}],"outputs":[],"stateMutability":"nonpayable"},{"type":"function","name":"equipHair","inputs":[{"name":"_peterTokenId","type":"uint256","internalType":"uint256"},{"name":"_traitTokenId","type":"uint256","internalType":"uint256"}],"outputs":[],"stateMutability":"nonpayable"},{"type":"function","name":"equipHead","inputs":[{"name":"_peterTokenId","type":"uint256","internalType":"uint256"},{"name":"_traitTokenId","type":"uint256","internalType":"uint256"}],"outputs":[],"stateMutability":"nonpayable"},{"type":"function","name":"equipShoes","inputs":[{"name":"_peterTokenId","type":"uint256","internalType":"uint256"},{"name":"_traitTokenId","type":"uint256","internalType":"uint256"}],"outputs":[],"stateMutability":"nonpayable"},{"type":"function","name":"equipTop","inputs":[{"name":"_peterTokenId","type":"uint256","internalType":"uint256"},{"name":"_traitTokenId","type":"uint256","internalType":"uint256"}],"outputs":[],"stateMutability":"nonpayable"},{"type":"function","name":"firstSeasonRenderMinter","inputs":[],"outputs":[{"name":"","type":"address","internalType":"contract FirstSeasonRenderMinter"}],"stateMutability":"view"},{"type":"function","name":"getApproved","inputs":[{"name":"tokenId","type":"uint256","internalType":"uint256"}],"outputs":[{"name":"","type":"address","internalType":"address"}],"stateMutability":"view"},{"type":"function","name":"getBackpackSVGs","inputs":[{"name":"_tokenId","type":"uint256","internalType":"uint256"}],"outputs":[{"name":"backpackSVGs","type":"string","internalType":"string"}],"stateMutability":"view"},{"type":"function","name":"getBodyImage","inputs":[{"name":"colorMap","type":"bytes","internalType":"bytes"}],"outputs":[{"name":"","type":"bytes","internalType":"bytes"}],"stateMutability":"pure"},{"type":"function","name":"getBodyImageSvg","inputs":[{"name":"_index","type":"uint256","internalType":"uint256"}],"outputs":[{"name":"svg","type":"string","internalType":"string"}],"stateMutability":"view"},{"type":"function","name":"getBodySVGZmapsAndMetadata","inputs":[{"name":"storedPeter","type":"tuple","internalType":"struct IPeterStorage.StoredPeter","components":[{"name":"headId","type":"uint256","internalType":"uint256"},{"name":"hairId","type":"uint256","internalType":"uint256"},{"name":"faceId","type":"uint256","internalType":"uint256"},{"name":"accessoryId","type":"uint256","internalType":"uint256"},{"name":"topId","type":"uint256","internalType":"uint256"},{"name":"bottomId","type":"uint256","internalType":"uint256"},{"name":"shoesId","type":"uint256","internalType":"uint256"},{"name":"epoch","type":"uint32","internalType":"uint32"},{"name":"tokenId","type":"uint256","internalType":"uint256"},{"name":"bodyIndex","type":"uint8","internalType":"uint8"},{"name":"backgroundColor","type":"string","internalType":"string"},{"name":"render3D","type":"bool","internalType":"bool"}]}],"outputs":[{"name":"","type":"string","internalType":"string"},{"name":"","type":"bytes","internalType":"bytes"},{"name":"","type":"string","internalType":"string"}],"stateMutability":"view"},{"type":"function","name":"getBodySvgAndMetadata","inputs":[{"name":"storedPeter","type":"tuple","internalType":"struct IPeterStorage.StoredPeter","components":[{"name":"headId","type":"uint256","internalType":"uint256"},{"name":"hairId","type":"uint256","internalType":"uint256"},{"name":"faceId","type":"uint256","internalType":"uint256"},{"name":"accessoryId","type":"uint256","internalType":"uint256"},{"name":"topId","type":"uint256","internalType":"uint256"},{"name":"bottomId","type":"uint256","internalType":"uint256"},{"name":"shoesId","type":"uint256","internalType":"uint256"},{"name":"epoch","type":"uint32","internalType":"uint32"},{"name":"tokenId","type":"uint256","internalType":"uint256"},{"name":"bodyIndex","type":"uint8","internalType":"uint8"},{"name":"backgroundColor","type":"string","internalType":"string"},{"name":"render3D","type":"bool","internalType":"bool"}]}],"outputs":[{"name":"","type":"string","internalType":"string"},{"name":"","type":"string","internalType":"string"}],"stateMutability":"view"},{"type":"function","name":"getBodyZMap","inputs":[{"name":"_tokenId","type":"uint256","internalType":"uint256"}],"outputs":[{"name":"","type":"string","internalType":"string"}],"stateMutability":"view"},{"type":"function","name":"getFullPictureForTrait","inputs":[{"name":"_chonkTraitTokenId","type":"uint256","internalType":"uint256"}],"outputs":[{"name":"traitOwnerTBA","type":"address","internalType":"address"},{"name":"chonkTokenId","type":"uint256","internalType":"uint256"},{"name":"chonkOwner","type":"address","internalType":"address"}],"stateMutability":"view"},{"type":"function","name":"getOwnerAndTBAAddressForChonkId","inputs":[{"name":"_chonkId","type":"uint256","internalType":"uint256"}],"outputs":[{"name":"owner","type":"address","internalType":"address"},{"name":"tbaAddress","type":"address","internalType":"address"}],"stateMutability":"view"},{"type":"function","name":"getPeter","inputs":[{"name":"_tokenId","type":"uint256","internalType":"uint256"}],"outputs":[{"name":"","type":"tuple","internalType":"struct IPeterStorage.StoredPeter","components":[{"name":"headId","type":"uint256","internalType":"uint256"},{"name":"hairId","type":"uint256","internalType":"uint256"},{"name":"faceId","type":"uint256","internalType":"uint256"},{"name":"accessoryId","type":"uint256","internalType":"uint256"},{"name":"topId","type":"uint256","internalType":"uint256"},{"name":"bottomId","type":"uint256","internalType":"uint256"},{"name":"shoesId","type":"uint256","internalType":"uint256"},{"name":"epoch","type":"uint32","internalType":"uint32"},{"name":"tokenId","type":"uint256","internalType":"uint256"},{"name":"bodyIndex","type":"uint8","internalType":"uint8"},{"name":"backgroundColor","type":"string","internalType":"string"},{"name":"render3D","type":"bool","internalType":"bool"}]}],"stateMutability":"view"},{"type":"function","name":"getPeterZMap","inputs":[{"name":"_tokenId","type":"uint256","internalType":"uint256"}],"outputs":[{"name":"","type":"string","internalType":"string"}],"stateMutability":"view"},{"type":"function","name":"getTBAAddressForChonkId","inputs":[{"name":"_chonkId","type":"uint256","internalType":"uint256"}],"outputs":[{"name":"","type":"address","internalType":"address"}],"stateMutability":"view"},{"type":"function","name":"getTokenRenderZ","inputs":[{"name":"_peterTokenId","type":"uint256","internalType":"uint256"}],"outputs":[{"name":"","type":"bool","internalType":"bool"}],"stateMutability":"view"},{"type":"function","name":"getTraitTokens","inputs":[{"name":"_tbaAddress","type":"address","internalType":"address"}],"outputs":[{"name":"","type":"uint256[]","internalType":"uint256[]"}],"stateMutability":"view"},{"type":"function","name":"getTraitsForChonkId","inputs":[{"name":"_chonkId","type":"uint256","internalType":"uint256"}],"outputs":[{"name":"traitTokens","type":"uint256[]","internalType":"uint256[]"}],"stateMutability":"view"},{"type":"function","name":"isApprovedForAll","inputs":[{"name":"owner","type":"address","internalType":"address"},{"name":"operator","type":"address","internalType":"address"}],"outputs":[{"name":"","type":"bool","internalType":"bool"}],"stateMutability":"view"},{"type":"function","name":"mainRenderer2D","inputs":[],"outputs":[{"name":"","type":"address","internalType":"contract MainRenderer2D"}],"stateMutability":"view"},{"type":"function","name":"mainRenderer3D","inputs":[],"outputs":[{"name":"","type":"address","internalType":"contract MainRenderer3D"}],"stateMutability":"view"},{"type":"function","name":"marketplace","inputs":[],"outputs":[{"name":"","type":"address","internalType":"contract ChonksMarket"}],"stateMutability":"view"},{"type":"function","name":"mint","inputs":[{"name":"_amount","type":"uint8","internalType":"uint8"}],"outputs":[],"stateMutability":"payable"},{"type":"function","name":"name","inputs":[],"outputs":[{"name":"","type":"string","internalType":"string"}],"stateMutability":"view"},{"type":"function","name":"owner","inputs":[],"outputs":[{"name":"result","type":"address","internalType":"address"}],"stateMutability":"view"},{"type":"function","name":"ownerOf","inputs":[{"name":"tokenId","type":"uint256","internalType":"uint256"}],"outputs":[{"name":"","type":"address","internalType":"address"}],"stateMutability":"view"},{"type":"function","name":"ownershipHandoverExpiresAt","inputs":[{"name":"pendingOwner","type":"address","internalType":"address"}],"outputs":[{"name":"result","type":"uint256","internalType":"uint256"}],"stateMutability":"view"},{"type":"function","name":"peterMakeover","inputs":[{"name":"_peterTokenId","type":"uint256","internalType":"uint256"},{"name":"_headTokenId","type":"uint256","internalType":"uint256"},{"name":"_hairTokenId","type":"uint256","internalType":"uint256"},{"name":"_faceTokenId","type":"uint256","internalType":"uint256"},{"name":"_accessoryTokenId","type":"uint256","internalType":"uint256"},{"name":"_topTokenId","type":"uint256","internalType":"uint256"},{"name":"_bottomTokenId","type":"uint256","internalType":"uint256"},{"name":"_shoesTokenId","type":"uint256","internalType":"uint256"},{"name":"_bodyIndex","type":"uint8","internalType":"uint8"},{"name":"_backgroundColor","type":"string","internalType":"string"}],"outputs":[],"stateMutability":"nonpayable"},{"type":"function","name":"price","inputs":[],"outputs":[{"name":"","type":"uint256","internalType":"uint256"}],"stateMutability":"view"},{"type":"function","name":"renderAsDataUri","inputs":[{"name":"_tokenId","type":"uint256","internalType":"uint256"}],"outputs":[{"name":"","type":"string","internalType":"string"}],"stateMutability":"view"},{"type":"function","name":"renderAsDataUri2D","inputs":[{"name":"_tokenId","type":"uint256","internalType":"uint256"}],"outputs":[{"name":"","type":"string","internalType":"string"}],"stateMutability":"view"},{"type":"function","name":"renderAsDataUri3D","inputs":[{"name":"_tokenId","type":"uint256","internalType":"uint256"}],"outputs":[{"name":"","type":"string","internalType":"string"}],"stateMutability":"view"},{"type":"function","name":"renounceOwnership","inputs":[],"outputs":[],"stateMutability":"payable"},{"type":"function","name":"requestOwnershipHandover","inputs":[],"outputs":[],"stateMutability":"payable"},{"type":"function","name":"safeTransferFrom","inputs":[{"name":"from","type":"address","internalType":"address"},{"name":"to","type":"address","internalType":"address"},{"name":"tokenId","type":"uint256","internalType":"uint256"}],"outputs":[],"stateMutability":"nonpayable"},{"type":"function","name":"safeTransferFrom","inputs":[{"name":"from","type":"address","internalType":"address"},{"name":"to","type":"address","internalType":"address"},{"name":"tokenId","type":"uint256","internalType":"uint256"},{"name":"data","type":"bytes","internalType":"bytes"}],"outputs":[],"stateMutability":"nonpayable"},{"type":"function","name":"setApprovalForAll","inputs":[{"name":"operator","type":"address","internalType":"address"},{"name":"approved","type":"bool","internalType":"bool"}],"outputs":[],"stateMutability":"nonpayable"},{"type":"function","name":"setBodyIndex","inputs":[{"name":"_peterTokenId","type":"uint256","internalType":"uint256"},{"name":"_bodyIndex","type":"uint8","internalType":"uint8"}],"outputs":[],"stateMutability":"nonpayable"},{"type":"function","name":"setFirstSeasonRenderMinter","inputs":[{"name":"_dataContract","type":"address","internalType":"address"}],"outputs":[],"stateMutability":"nonpayable"},{"type":"function","name":"setMainRenderer2D","inputs":[{"name":"_mainRenderer2D","type":"address","internalType":"address"}],"outputs":[],"stateMutability":"nonpayable"},{"type":"function","name":"setMainRenderer3D","inputs":[{"name":"_mainRenderer3D","type":"address","internalType":"address"}],"outputs":[],"stateMutability":"nonpayable"},{"type":"function","name":"setMarketplace","inputs":[{"name":"_marketplace","type":"address","internalType":"address"}],"outputs":[],"stateMutability":"nonpayable"},{"type":"function","name":"setMaxTraitsToOutput","inputs":[{"name":"_maxTraitsToOutput","type":"uint256","internalType":"uint256"}],"outputs":[],"stateMutability":"nonpayable"},{"type":"function","name":"setPrice","inputs":[{"name":"_priceInWei","type":"uint256","internalType":"uint256"}],"outputs":[],"stateMutability":"nonpayable"},{"type":"function","name":"setSystemAddress","inputs":[{"name":"_systemAddress","type":"address","internalType":"address"}],"outputs":[],"stateMutability":"nonpayable"},{"type":"function","name":"setTokenRender3D","inputs":[{"name":"_peterTokenId","type":"uint256","internalType":"uint256"},{"name":"_render3D","type":"bool","internalType":"bool"}],"outputs":[],"stateMutability":"nonpayable"},{"type":"function","name":"setTraitsContract","inputs":[{"name":"_address","type":"address","internalType":"contract PeterTraits"}],"outputs":[],"stateMutability":"nonpayable"},{"type":"function","name":"supportsInterface","inputs":[{"name":"interfaceId","type":"bytes4","internalType":"bytes4"}],"outputs":[{"name":"","type":"bool","internalType":"bool"}],"stateMutability":"view"},{"type":"function","name":"symbol","inputs":[],"outputs":[{"name":"","type":"string","internalType":"string"}],"stateMutability":"view"},{"type":"function","name":"tbaAddressToTokenId","inputs":[{"name":"","type":"address","internalType":"address"}],"outputs":[{"name":"","type":"uint256","internalType":"uint256"}],"stateMutability":"view"},{"type":"function","name":"tokenByIndex","inputs":[{"name":"index","type":"uint256","internalType":"uint256"}],"outputs":[{"name":"","type":"uint256","internalType":"uint256"}],"stateMutability":"view"},{"type":"function","name":"tokenIdToTBAAccountAddress","inputs":[{"name":"","type":"uint256","internalType":"uint256"}],"outputs":[{"name":"","type":"address","internalType":"address"}],"stateMutability":"view"},{"type":"function","name":"tokenOfOwnerByIndex","inputs":[{"name":"owner","type":"address","internalType":"address"},{"name":"index","type":"uint256","internalType":"uint256"}],"outputs":[{"name":"","type":"uint256","internalType":"uint256"}],"stateMutability":"view"},{"type":"function","name":"tokenURI","inputs":[{"name":"_tokenId","type":"uint256","internalType":"uint256"}],"outputs":[{"name":"","type":"string","internalType":"string"}],"stateMutability":"view"},{"type":"function","name":"totalSupply","inputs":[],"outputs":[{"name":"","type":"uint256","internalType":"uint256"}],"stateMutability":"view"},{"type":"function","name":"traitsContract","inputs":[],"outputs":[{"name":"","type":"address","internalType":"contract PeterTraits"}],"stateMutability":"view"},{"type":"function","name":"transferFrom","inputs":[{"name":"from","type":"address","internalType":"address"},{"name":"to","type":"address","internalType":"address"},{"name":"tokenId","type":"uint256","internalType":"uint256"}],"outputs":[],"stateMutability":"nonpayable"},{"type":"function","name":"transferOwnership","inputs":[{"name":"newOwner","type":"address","internalType":"address"}],"outputs":[],"stateMutability":"payable"},{"type":"function","name":"unequipAccessory","inputs":[{"name":"_peterTokenId","type":"uint256","internalType":"uint256"}],"outputs":[],"stateMutability":"nonpayable"},{"type":"function","name":"unequipAll","inputs":[{"name":"_peterTokenId","type":"uint256","internalType":"uint256"}],"outputs":[],"stateMutability":"nonpayable"},{"type":"function","name":"unequipBottom","inputs":[{"name":"_peterTokenId","type":"uint256","internalType":"uint256"}],"outputs":[],"stateMutability":"nonpayable"},{"type":"function","name":"unequipFace","inputs":[{"name":"_peterTokenId","type":"uint256","internalType":"uint256"}],"outputs":[],"stateMutability":"nonpayable"},{"type":"function","name":"unequipHair","inputs":[{"name":"_peterTokenId","type":"uint256","internalType":"uint256"}],"outputs":[],"stateMutability":"nonpayable"},{"type":"function","name":"unequipHead","inputs":[{"name":"_peterTokenId","type":"uint256","internalType":"uint256"}],"outputs":[],"stateMutability":"nonpayable"},{"type":"function","name":"unequipShoes","inputs":[{"name":"_peterTokenId","type":"uint256","internalType":"uint256"}],"outputs":[],"stateMutability":"nonpayable"},{"type":"function","name":"unequipTop","inputs":[{"name":"_peterTokenId","type":"uint256","internalType":"uint256"}],"outputs":[],"stateMutability":"nonpayable"},{"type":"function","name":"walletOfOwner","inputs":[{"name":"_owner","type":"address","internalType":"address"}],"outputs":[{"name":"","type":"uint256[]","internalType":"uint256[]"}],"stateMutability":"view"},{"type":"event","name":"Approval","inputs":[{"name":"owner","type":"address","indexed":true,"internalType":"address"},{"name":"approved","type":"address","indexed":true,"internalType":"address"},{"name":"tokenId","type":"uint256","indexed":true,"internalType":"uint256"}],"anonymous":false},{"type":"event","name":"ApprovalForAll","inputs":[{"name":"owner","type":"address","indexed":true,"internalType":"address"},{"name":"operator","type":"address","indexed":true,"internalType":"address"},{"name":"approved","type":"bool","indexed":false,"internalType":"bool"}],"anonymous":false},{"type":"event","name":"BackgroundColor","inputs":[{"name":"owner","type":"address","indexed":true,"internalType":"address"},{"name":"tokenId","type":"uint256","indexed":true,"internalType":"uint256"},{"name":"color","type":"string","indexed":false,"internalType":"string"}],"anonymous":false},{"type":"event","name":"BatchMetadataUpdate","inputs":[{"name":"_fromTokenId","type":"uint256","indexed":false,"internalType":"uint256"},{"name":"_toTokenId","type":"uint256","indexed":false,"internalType":"uint256"}],"anonymous":false},{"type":"event","name":"BodyIndex","inputs":[{"name":"owner","type":"address","indexed":true,"internalType":"address"},{"name":"tokenId","type":"uint256","indexed":true,"internalType":"uint256"},{"name":"_bodyIndex","type":"uint8","indexed":false,"internalType":"uint8"}],"anonymous":false},{"type":"event","name":"Equip","inputs":[{"name":"owner","type":"address","indexed":true,"internalType":"address"},{"name":"tokenId","type":"uint256","indexed":true,"internalType":"uint256"},{"name":"traitTokenId","type":"uint256","indexed":true,"internalType":"uint256"},{"name":"traitCategory","type":"string","indexed":false,"internalType":"string"}],"anonymous":false},{"type":"event","name":"EquipAll","inputs":[{"name":"owner","type":"address","indexed":true,"internalType":"address"},{"name":"tokenId","type":"uint256","indexed":true,"internalType":"uint256"}],"anonymous":false},{"type":"event","name":"MetadataUpdate","inputs":[{"name":"_tokenId","type":"uint256","indexed":false,"internalType":"uint256"}],"anonymous":false},{"type":"event","name":"Mint","inputs":[{"name":"owner","type":"address","indexed":true,"internalType":"address"},{"name":"tokenId","type":"uint256","indexed":true,"internalType":"uint256"}],"anonymous":false},{"type":"event","name":"OwnershipHandoverCanceled","inputs":[{"name":"pendingOwner","type":"address","indexed":true,"internalType":"address"}],"anonymous":false},{"type":"event","name":"OwnershipHandoverRequested","inputs":[{"name":"pendingOwner","type":"address","indexed":true,"internalType":"address"}],"anonymous":false},{"type":"event","name":"OwnershipTransferred","inputs":[{"name":"oldOwner","type":"address","indexed":true,"internalType":"address"},{"name":"newOwner","type":"address","indexed":true,"internalType":"address"}],"anonymous":false},{"type":"event","name":"Render3D","inputs":[{"name":"owner","type":"address","indexed":true,"internalType":"address"},{"name":"tokenId","type":"uint256","indexed":true,"internalType":"uint256"},{"name":"renderZ","type":"bool","indexed":false,"internalType":"bool"}],"anonymous":false},{"type":"event","name":"Transfer","inputs":[{"name":"from","type":"address","indexed":true,"internalType":"address"},{"name":"to","type":"address","indexed":true,"internalType":"address"},{"name":"tokenId","type":"uint256","indexed":true,"internalType":"uint256"}],"anonymous":false},{"type":"event","name":"Unequip","inputs":[{"name":"owner","type":"address","indexed":true,"internalType":"address"},{"name":"tokenId","type":"uint256","indexed":true,"internalType":"uint256"},{"name":"traitCategory","type":"string","indexed":true,"internalType":"string"}],"anonymous":false},{"type":"event","name":"UnequipAll","inputs":[{"name":"owner","type":"address","indexed":true,"internalType":"address"},{"name":"tokenId","type":"uint256","indexed":true,"internalType":"uint256"}],"anonymous":false},{"type":"error","name":"AlreadyInitialized","inputs":[]},{"type":"error","name":"BodyAlreadyExists","inputs":[]},{"type":"error","name":"CantTransfer","inputs":[]},{"type":"error","name":"CantTransferToTBAs","inputs":[]},{"type":"error","name":"FirstSeasonRenderMinterNotSet","inputs":[]},{"type":"error","name":"IncorrectPeterOwner","inputs":[]},{"type":"error","name":"IncorrectTBAOwner","inputs":[]},{"type":"error","name":"IncorrectTraitType","inputs":[]},{"type":"error","name":"InvalidBodyIndex","inputs":[]},{"type":"error","name":"InvalidColor","inputs":[]},{"type":"error","name":"InvalidLevelAmount","inputs":[]},{"type":"error","name":"InvalidSignature","inputs":[]},{"type":"error","name":"NewOwnerIsZeroAddress","inputs":[]},{"type":"error","name":"NoHandoverRequest","inputs":[]},{"type":"error","name":"NonceAlreadyUsed","inputs":[]},{"type":"error","name":"PeterDoesntExist","inputs":[]},{"type":"error","name":"Unauthorized","inputs":[]},{"type":"error","name":"markaSaysNo","inputs":[]}],"bytecode":{"object":"0x60806040526063601c553480156200001657600080fd5b50604051620063c4380380620063c4833981016040819052620000399162000100565b6040518060400160405280600a81526020016914195d195c8815195cdd60b21b815250604051806040016040528060058152602001642822aa22a960d91b81525081600090816200008b9190620001d2565b5060016200009a8282620001d2565b50506001600a5550620000ad33620000c4565b600b805460ff19169115159190911790556200029e565b6001600160a01b0316638b78c6d8198190558060007f8be0079c531659141344cd1fd0a4f28419497f9722a3daafe3b4186f6b6457e08180a350565b6000602082840312156200011357600080fd5b815180151581146200012457600080fd5b9392505050565b634e487b7160e01b600052604160045260246000fd5b600181811c908216806200015657607f821691505b6020821081036200017757634e487b7160e01b600052602260045260246000fd5b50919050565b601f821115620001cd576000816000526020600020601f850160051c81016020861015620001a85750805b601f850160051c820191505b81811015620001c957828155600101620001b4565b5050505b505050565b81516001600160401b03811115620001ee57620001ee6200012b565b6200020681620001ff845462000141565b846200017d565b602080601f8311600181146200023e5760008415620002255750858301515b600019600386901b1c1916600185901b178555620001c9565b600085815260208120601f198616915b828110156200026f578886015182559484019460019091019084016200024e565b50858210156200028e5787850151600019600388901b60f8161c191681555b5050505050600190811b01905550565b61611680620002ae6000396000f3fe6080604052600436106104885760003560e01c80637afe8d3411610255578063a4bf9a0011610144578063e1405540116100c1578063f2361e2311610085578063f2361e2314610ea4578063f2fde38b14610ec4578063f3f8efb914610ed7578063f4bec0b614610ef7578063f6a0c93214610f17578063fee81cf414610f4d57600080fd5b8063e140554014610de8578063e37db3c214610e08578063e985e9c514610e28578063f04e283e14610e71578063f18dc22d14610e8457600080fd5b8063bef1dfb711610108578063bef1dfb714610d48578063c093afdb14610d68578063c87b56dd14610d88578063d5b55c8b14610da8578063dceef0ec14610dc857600080fd5b8063a4bf9a0014610c8e578063abc8c7af14610cbb578063b66ef6e314610cdb578063b88d4fde14610cfb578063be928ff614610d1b57600080fd5b806395d89b41116101d25780639f6e4637116101965780639f6e463714610bea578063a035b1fe14610c0a578063a1d6268014610c20578063a22cb46514610c40578063a23830ae14610c6057600080fd5b806395d89b4114610b4a578063998cfb6e14610b5f5780639c05d68d14610b7f5780639c76201514610bb55780639c7be2f114610bd557600080fd5b8063916c546b11610219578063916c546b14610a9b57806391b7f5ed14610abb57806392012f0814610adb57806393ccba7214610b0a57806394cbd9c414610b2a57600080fd5b80637afe8d34146109ef5780637e2e6c4714610a0f5780638200ea5114610a2f5780638aa1e4c814610a625780638da5cb5b14610a8257600080fd5b80633044825b1161037c57806355737f35116102f95780636352211e116102bd5780636352211e1461092a578063667043491461094a5780636ecd23061461099457806370a08231146109a7578063715018a6146109c757806373ad6c2d146109cf57600080fd5b806355737f351461088a57806358180d35146108aa57806358a97640146108ca5780635eabd84a146108ea57806360b77b231461090a57600080fd5b8063438b630011610340578063438b6300146107f557806345a10d0f146108225780634a4333a3146108425780634f6ccce71461086257806354d1f13d1461088257600080fd5b80633044825b14610755578063306c73341461077557806333d3d9bf14610795578063347bd8f4146107b557806342842e0e146107d557600080fd5b8063105338e01161040a57806323b872dd116103ce57806323b872dd146106cd57806325692962146106ed578063293ed3f7146106f55780632bd1ca45146107155780632f745c591461073557600080fd5b8063105338e01461062e57806313ea0ae31461064e57806314fe8ff41461066e57806318160ddd1461068e5780631e162a33146106ad57600080fd5b806306fdde031161045157806306fdde0314610564578063081812fc14610586578063095ea7b3146105be5780630c83f9d7146105de5780630f1623201461060e57600080fd5b80621792061461048d57806301ffc9a7146104af57806304003bd0146104e45780630447a45e146105245780630621019714610544575b600080fd5b34801561049957600080fd5b506104ad6104a83660046149ea565b610f80565b005b3480156104bb57600080fd5b506104cf6104ca366004614a1d565b610faa565b60405190151581526020015b60405180910390f35b3480156104f057600080fd5b506105046104ff366004614a3a565b610fbb565b604080516001600160a01b039384168152929091166020830152016104db565b34801561053057600080fd5b506104ad61053f366004614a53565b610fea565b34801561055057600080fd5b506104ad61055f3660046149ea565b6110a8565b34801561057057600080fd5b506105796110d2565b6040516104db9190614ac5565b34801561059257600080fd5b506105a66105a1366004614a3a565b611164565b6040516001600160a01b0390911681526020016104db565b3480156105ca57600080fd5b506104ad6105d9366004614ad8565b61118b565b3480156105ea57600080fd5b506105fe6105f9366004614a3a565b6112a5565b6040516104db9493929190614b04565b34801561061a57600080fd5b506104ad610629366004614a53565b611466565b34801561063a57600080fd5b506104ad610649366004614a3a565b611512565b34801561065a57600080fd5b506012546105a6906001600160a01b031681565b34801561067a57600080fd5b50610579610689366004614a3a565b6115bd565b34801561069a57600080fd5b506008545b6040519081526020016104db565b3480156106b957600080fd5b506104ad6106c8366004614a53565b611836565b3480156106d957600080fd5b506104ad6106e8366004614b4e565b6118df565b6104ad611910565b34801561070157600080fd5b506104ad610710366004614a3a565b61195f565b34801561072157600080fd5b50610579610730366004614a3a565b6119c8565b34801561074157600080fd5b5061069f610750366004614ad8565b611a8c565b34801561076157600080fd5b506104ad610770366004614a3a565b611b22565b34801561078157600080fd5b50610579610790366004614a3a565b611bdd565b3480156107a157600080fd5b506104ad6107b0366004614a3a565b611c00565b3480156107c157600080fd5b506104ad6107d0366004614a3a565b611c0d565b3480156107e157600080fd5b506104ad6107f0366004614b4e565b611c70565b34801561080157600080fd5b506108156108103660046149ea565b611c8b565b6040516104db9190614b8f565b34801561082e57600080fd5b506104ad61083d366004614a53565b611d22565b34801561084e57600080fd5b506104ad61085d366004614bd3565b611dd0565b34801561086e57600080fd5b5061069f61087d366004614a3a565b611ec5565b6104ad611f58565b34801561089657600080fd5b506105a66108a5366004614a53565b611f94565b3480156108b657600080fd5b506104ad6108c5366004614a3a565b611fcc565b3480156108d657600080fd5b506104ad6108e53660046149ea565b612031565b3480156108f657600080fd5b506104ad6109053660046149ea565b61205b565b34801561091657600080fd5b506104ad610925366004614a53565b612085565b34801561093657600080fd5b506105a6610945366004614a3a565b612132565b34801561095657600080fd5b5061096a610965366004614a3a565b612192565b604080516001600160a01b03948516815260208101939093529216918101919091526060016104db565b6104ad6109a2366004614c3e565b612233565b3480156109b357600080fd5b5061069f6109c23660046149ea565b61223f565b6104ad6122c5565b3480156109db57600080fd5b506104ad6109ea3660046149ea565b6122d9565b3480156109fb57600080fd5b506104ad610a0a366004614a3a565b612303565b348015610a1b57600080fd5b506104ad610a2a3660046149ea565b612364565b348015610a3b57600080fd5b506104cf610a4a366004614a3a565b6000908152600c60205260409020600b015460ff1690565b348015610a6e57600080fd5b506104cf610a7d366004614a53565b61238e565b348015610a8e57600080fd5b50638b78c6d819546105a6565b348015610aa757600080fd5b50610579610ab6366004614a3a565b6123fd565b348015610ac757600080fd5b506104ad610ad6366004614a3a565b612521565b348015610ae757600080fd5b50610afb610af6366004614d69565b61252e565b6040516104db93929190614e62565b348015610b1657600080fd5b506104ad610b25366004614ea5565b6126cc565b348015610b3657600080fd5b506104ad610b45366004614a53565b61272e565b348015610b5657600080fd5b506105796127da565b348015610b6b57600080fd5b50610815610b7a3660046149ea565b6127e9565b348015610b8b57600080fd5b506105a6610b9a366004614a3a565b6018602052600090815260409020546001600160a01b031681565b348015610bc157600080fd5b506104ad610bd0366004614a3a565b61285f565b348015610be157600080fd5b506104ad6128c5565b348015610bf657600080fd5b50610815610c05366004614a3a565b6128ee565b348015610c1657600080fd5b5061069f60165481565b348015610c2c57600080fd5b50610579610c3b366004614a3a565b612912565b348015610c4c57600080fd5b506104ad610c5b366004614f41565b612942565b348015610c6c57600080fd5b50610c80610c7b366004614d69565b612951565b6040516104db929190614f76565b348015610c9a57600080fd5b5061069f610ca93660046149ea565b60196020526000908152604090205481565b348015610cc757600080fd5b506011546105a6906001600160a01b031681565b348015610ce757600080fd5b506014546105a6906001600160a01b031681565b348015610d0757600080fd5b506104ad610d16366004614fa4565b6129bc565b348015610d2757600080fd5b50610d3b610d36366004614a3a565b6129f4565b6040516104db919061500f565b348015610d5457600080fd5b506104ad610d633660046150c7565b612b9a565b348015610d7457600080fd5b506010546105a6906001600160a01b031681565b348015610d9457600080fd5b50610579610da3366004614a3a565b612c45565b348015610db457600080fd5b506104ad610dc3366004614a3a565b612c86565b348015610dd457600080fd5b50610579610de3366004614a3a565b612cea565b348015610df457600080fd5b506104ad610e033660046150ea565b612fbc565b348015610e1457600080fd5b50610579610e2336600461510d565b61308d565b348015610e3457600080fd5b506104cf610e43366004615141565b6001600160a01b03918216600090815260056020908152604080832093909416825291909152205460ff1690565b6104ad610e7f3660046149ea565b61333f565b348015610e9057600080fd5b506104ad610e9f366004614a53565b61337c565b348015610eb057600080fd5b506104ad610ebf36600461517a565b613427565b6104ad610ed23660046149ea565b613474565b348015610ee357600080fd5b50610579610ef2366004614a3a565b61349b565b348015610f0357600080fd5b506013546105a6906001600160a01b031681565b348015610f2357600080fd5b506105a6610f32366004614a3a565b6000908152601860205260409020546001600160a01b031690565b348015610f5957600080fd5b5061069f610f683660046149ea565b63389a75e1600c908152600091909152602090205490565b610f88613722565b601480546001600160a01b0319166001600160a01b0392909216919091179055565b6000610fb58261373d565b92915050565b600080610fc783612132565b6000938452601860205260409093205492936001600160a01b0390931692915050565b81610ff481612132565b6001600160a01b0316336001600160a01b031614611025576040516324adc17160e11b815260040160405180910390fd5b611030826004613762565b61103a8383613864565b6000838152600c60205260409020600301829055818361105981612132565b6001600160a01b0316600080516020615bbc83398151915260405161109b906020808252600990820152684163636573736f727960b81b604082015260600190565b60405180910390a4505050565b6110b0613722565b601780546001600160a01b0319166001600160a01b0392909216919091179055565b6060600080546110e1906151ff565b80601f016020809104026020016040519081016040528092919081815260200182805461110d906151ff565b801561115a5780601f1061112f5761010080835404028352916020019161115a565b820191906000526020600020905b81548152906001019060200180831161113d57829003601f168201915b5050505050905090565b600061116f8261395c565b506000908152600460205260409020546001600160a01b031690565b600061119682612132565b9050806001600160a01b0316836001600160a01b0316036112085760405162461bcd60e51b815260206004820152602160248201527f4552433732313a20617070726f76616c20746f2063757272656e74206f776e656044820152603960f91b60648201526084015b60405180910390fd5b336001600160a01b038216148061122457506112248133610e43565b6112965760405162461bcd60e51b815260206004820152603e60248201527f4552433732313a20617070726f76652063616c6c6572206973206e6f7420746f60448201527f6b656e206f776e6572206e6f7220617070726f76656420666f7220616c6c000060648201526084016111ff565b6112a083836139bb565b505050565b600f60205260009081526040902080546001820180549192916112c7906151ff565b80601f01602080910402602001604051908101604052809291908181526020018280546112f3906151ff565b80156113405780601f1061131557610100808354040283529160200191611340565b820191906000526020600020905b81548152906001019060200180831161132357829003601f168201915b505050505090806002018054611355906151ff565b80601f0160208091040260200160405190810160405280929190818152602001828054611381906151ff565b80156113ce5780601f106113a3576101008083540402835291602001916113ce565b820191906000526020600020905b8154815290600101906020018083116113b157829003601f168201915b5050505050908060030180546113e3906151ff565b80601f016020809104026020016040519081016040528092919081815260200182805461140f906151ff565b801561145c5780601f106114315761010080835404028352916020019161145c565b820191906000526020600020905b81548152906001019060200180831161143f57829003601f168201915b5050505050905084565b8161147081612132565b6001600160a01b0316336001600160a01b0316146114a1576040516324adc17160e11b815260040160405180910390fd5b6114ac826003613762565b6114b68383613864565b6000838152600c6020526040902060020182905581836114d581612132565b6001600160a01b0316600080516020615bbc83398151915260405161109b906020808252600490820152634661636560e01b604082015260600190565b8061151c81612132565b6001600160a01b0316336001600160a01b03161461154d576040516324adc17160e11b815260040160405180910390fd5b6000828152600c60205260408082206001019190915551632430b4b960e11b81526004015b60405180910390208261158484612132565b6001600160a01b03167fe428b1839105819dce5e635ac7e16ed2a43028f6e294bab8655e29acb5dc60bb60405160405180910390a45050565b606060006115ca836128ee565b905060006040518060400160405280601b81526020017f3c7376672076696577426f783d223020302031353020313530223e000000000081525090506000604051806040016040528060068152602001651e17b9bb339f60d11b815250905060606000601060009054906101000a90046001600160a01b03166001600160a01b0316635c1ef2566040518163ffffffff1660e01b8152600401600060405180830381865afa158015611680573d6000803e3d6000fd5b505050506040513d6000823e601f3d908101601f191682016040526116a89190810190615289565b90506000601c548651106116be57601c546116c1565b85515b90506040518061054001604052806105058152602001615bdc6105059139826040516020016116f19291906152bd565b604051602081830303815290604052925060005b818110156117d65760105487516000916001600160a01b03169063c7791531908a908590811061173757611737615314565b60200260200101516040518263ffffffff1660e01b815260040161175d91815260200190565b600060405180830381865afa15801561177a573d6000803e3d6000fd5b505050506040513d6000823e601f3d908101601f191682016040526117a29190810190615289565b9050848782886040516020016117bb949392919061532a565b60408051601f19818403018152919052945050600101611705565b50601c5486511115611809578285856040516020016117f793929190615381565b60405160208183030381529060405292505b8260405160200161181a919061549c565b60408051601f1981840301815291905298975050505050505050565b8161184081612132565b6001600160a01b0316336001600160a01b031614611871576040516324adc17160e11b815260040160405180910390fd5b61187c826001613762565b6118868383613864565b6000838152600c6020526040902082905581836118a281612132565b6001600160a01b0316600080516020615bbc83398151915260405161109b906020808252600490820152631219585960e21b604082015260600190565b6118e93382613a29565b6119055760405162461bcd60e51b81526004016111ff906154c4565b6112a0838383613aa7565b60006202a3006001600160401b03164201905063389a75e1600c5233600052806020600c2055337fdbf36a107da19e49527a7176a1babf963b4b0ff8cde35ee35d6cd8f1f9ac7e1d600080a250565b8061196981612132565b6001600160a01b0316336001600160a01b03161461199a576040516324adc17160e11b815260040160405180910390fd5b6000828152600c60205260408082206003019190915551684163636573736f727960b81b8152600901611572565b606080606060006119d8856129f4565b90506119e38161252e565b5060105460405163bb12d21d60e01b81529195506001600160a01b0316915063bb12d21d90611a1690849060040161500f565b600060405180830381865afa158015611a33573d6000803e3d6000fd5b505050506040513d6000823e601f3d908101601f19168201604052611a5b9190810190615512565b50604051909350611a739150849084906020016155b0565b6040516020818303038152906040529350505050919050565b6000611a978361223f565b8210611af95760405162461bcd60e51b815260206004820152602b60248201527f455243373231456e756d657261626c653a206f776e657220696e646578206f7560448201526a74206f6620626f756e647360a81b60648201526084016111ff565b506001600160a01b03919091166000908152600660209081526040808320938352929052205490565b80611b2c81612132565b6001600160a01b0316336001600160a01b031614611b5d576040516324adc17160e11b815260040160405180910390fd5b6000828152600c602052604081208181556001810182905560028101829055600381018290556004810182905560058101829055600681019190915582611ba381612132565b6001600160a01b03167f46078a2cd4c69c3b4a27bdc69fdfe03d442ebcf405f1a68e9b5df6bc3e24429760405160405180910390a3505050565b6060806000611beb846129f4565b9050611bf68161252e565b5095945050505050565b611c08613722565b601c55565b80611c1781612132565b6001600160a01b0316336001600160a01b031614611c48576040516324adc17160e11b815260040160405180910390fd5b6000828152600c60205260408082206004019190915551620546f760ec1b8152600301611572565b6112a0838383604051806020016040528060008152506129bc565b60606000611c988361223f565b90506000816001600160401b03811115611cb457611cb4614c59565b604051908082528060200260200182016040528015611cdd578160200160208202803683370190505b50905060005b82811015611d1a57611cf58582611a8c565b828281518110611d0757611d07615314565b6020908102919091010152600101611ce3565b509392505050565b81611d2c81612132565b6001600160a01b0316336001600160a01b031614611d5d576040516324adc17160e11b815260040160405180910390fd5b611d68826006613762565b611d728383613864565b6000838152600c602052604090206005018290558183611d9181612132565b6001600160a01b0316600080516020615bbc83398151915260405161109b90602080825260069082015265426f74746f6d60d01b604082015260600190565b87611dda81612132565b6001600160a01b0316336001600160a01b031614611e0b576040516324adc17160e11b815260040160405180910390fd5b8715611e1b57611e1b8989611836565b8615611e2b57611e2b898861272e565b8515611e3b57611e3b8987611466565b8415611e4b57611e4b8986610fea565b8315611e5b57611e5b898561337c565b8215611e6b57611e6b8984611d22565b8115611e7b57611e7b8983612085565b88611e858a612132565b6001600160a01b03167f56680590212b09eb4b72a2eba8801b037ec046dfc754538e924f5bb6a8c4db6c60405160405180910390a3505050505050505050565b6000611ed060085490565b8210611f335760405162461bcd60e51b815260206004820152602c60248201527f455243373231456e756d657261626c653a20676c6f62616c20696e646578206f60448201526b7574206f6620626f756e647360a01b60648201526084016111ff565b60088281548110611f4657611f46615314565b90600052602060002001549050919050565b63389a75e1600c523360005260006020600c2055337ffa7b8eab7da67f412cc9575ed43464468f9bfbae89d1675917346ca6d8fe3c92600080a2565b601a6020528160005260406000208181548110611fb057600080fd5b6000918252602090912001546001600160a01b03169150829050565b80611fd681612132565b6001600160a01b0316336001600160a01b031614612007576040516324adc17160e11b815260040160405180910390fd5b6000828152600c602052604080822060060191909155516453686f657360d81b8152600501611572565b612039613722565b601280546001600160a01b0319166001600160a01b0392909216919091179055565b612063613722565b601080546001600160a01b0319166001600160a01b0392909216919091179055565b8161208f81612132565b6001600160a01b0316336001600160a01b0316146120c0576040516324adc17160e11b815260040160405180910390fd5b6120cb826007613762565b6120d58383613864565b6000838152600c6020526040902060060182905581836120f481612132565b6001600160a01b0316600080516020615bbc83398151915260405161109b9060208082526005908201526453686f657360d81b604082015260600190565b6000818152600260205260408120546001600160a01b031680610fb55760405162461bcd60e51b8152602060048201526018602482015277115490cdcc8c4e881a5b9d985b1a59081d1bdad95b88125160421b60448201526064016111ff565b6010546040516331a9108f60e11b815260048101839052600091829182916001600160a01b031690636352211e90602401602060405180830381865afa1580156121e0573d6000803e3d6000fd5b505050506040513d601f19601f8201168201806040525081019061220491906155df565b6001600160a01b038116600090815260196020526040902054909350915061222b82612132565b929491935050565b61223c81613c4e565b50565b60006001600160a01b0382166122a95760405162461bcd60e51b815260206004820152602960248201527f4552433732313a2061646472657373207a65726f206973206e6f7420612076616044820152683634b21037bbb732b960b91b60648201526084016111ff565b506001600160a01b031660009081526003602052604090205490565b6122cd613722565b6122d76000613fb0565b565b6122e1613722565b601180546001600160a01b0319166001600160a01b0392909216919091179055565b8061230d81612132565b6001600160a01b0316336001600160a01b03161461233e576040516324adc17160e11b815260040160405180910390fd5b6000828152600c60205260408082209190915551631219585960e21b8152600401611572565b61236c613722565b601380546001600160a01b0319166001600160a01b0392909216919091179055565b60008061239a846129f4565b80519091508314806123af5750828160200151145b806123bd5750828160400151145b806123cb5750828160600151145b806123d95750828160800151145b806123e75750828160a00151145b806123f55750828160c00151145b949350505050565b6000818152600f602052604081206002018054606092916124a491612421906151ff565b80601f016020809104026020016040519081016040528092919081815260200182805461244d906151ff565b801561249a5780601f1061246f5761010080835404028352916020019161249a565b820191906000526020600020905b81548152906001019060200180831161247d57829003601f168201915b505050505061308d565b6013546040516335b07b7960e11b81529192506001600160a01b031690636b60f6f2906124d5908490600401614ac5565b600060405180830381865afa1580156124f2573d6000803e3d6000fd5b505050506040513d6000823e601f3d908101601f1916820160405261251a9190810190615289565b9392505050565b612529613722565b601655565b606080606061254484610120015160ff166123fd565b600f600086610120015160ff16815260200190815260200160002060030161263360405180604001604052806009815260200168426f6479205479706560b81b815250600f600089610120015160ff16815260200190815260200160002060010180546125b0906151ff565b80601f01602080910402602001604051908101604052809291908181526020018280546125dc906151ff565b80156126295780601f106125fe57610100808354040283529160200191612629565b820191906000526020600020905b81548152906001019060200180831161260c57829003601f168201915b5050505050613fee565b81805461263f906151ff565b80601f016020809104026020016040519081016040528092919081815260200182805461266b906151ff565b80156126b85780601f1061268d576101008083540402835291602001916126b8565b820191906000526020600020905b81548152906001019060200180831161269b57829003601f168201915b505050505091509250925092509193909250565b896126d681612132565b6001600160a01b0316336001600160a01b031614612707576040516324adc17160e11b815260040160405180910390fd5b6127178b8b8b8b8b8b8b8b611dd0565b6127218b84612fbc565b5050505050505050505050565b8161273881612132565b6001600160a01b0316336001600160a01b031614612769576040516324adc17160e11b815260040160405180910390fd5b612774826002613762565b61277e8383613864565b6000838152600c60205260409020600101829055818361279d81612132565b6001600160a01b0316600080516020615bbc83398151915260405161109b906020808252600490820152632430b4b960e11b604082015260600190565b6060600180546110e1906151ff565b60105460405162438b6360e81b81526001600160a01b03838116600483015260609260009291169063438b630090602401600060405180830381865afa158015612837573d6000803e3d6000fd5b505050506040513d6000823e601f3d908101601f1916820160405261251a91908101906155fc565b8061286981612132565b6001600160a01b0316336001600160a01b03161461289a576040516324adc17160e11b815260040160405180910390fd5b6000828152600c6020526040808220600501919091555165426f74746f6d60d01b8152600601611572565b600b5460ff16156122d75760005b600181101561223c576128e66004612233565b6001016128d3565b6000818152601860205260409020546060906001600160a01b031661251a816127e9565b6060600061291f836129f4565b9050806101600151612939576129348361349b565b61251a565b61251a83612cea565b61294d33838361401a565b5050565b60608061296583610120015160ff166123fd565b6129b360405180604001604052806009815260200168426f6479205479706560b81b815250600f600087610120015160ff16815260200190815260200160002060010180546125b0906151ff565b91509150915091565b6129c63383613a29565b6129e25760405162461bcd60e51b81526004016111ff906154c4565b6129ee848484846140e0565b50505050565b612a6360405180610180016040528060008152602001600081526020016000815260200160008152602001600081526020016000815260200160008152602001600063ffffffff16815260200160008152602001600060ff168152602001606081526020016000151581525090565b6000828152600c60209081526040808320815161018081018352815481526001820154938101939093526002810154918301919091526003810154606083015260048101546080830152600581015460a0830152600681015460c0830152600781015463ffffffff1660e08301526008810154610100830152600981015460ff16610120830152600a8101805461014084019190612b00906151ff565b80601f0160208091040260200160405190810160405280929190818152602001828054612b2c906151ff565b8015612b795780601f10612b4e57610100808354040283529160200191612b79565b820191906000526020600020905b815481529060010190602001808311612b5c57829003601f168201915b5050509183525050600b919091015460ff1615156020909101529392505050565b81612ba481612132565b6001600160a01b0316336001600160a01b031614612bd5576040516324adc17160e11b815260040160405180910390fd5b6000838152600c60205260409020600b01805460ff191683151517905582612bfc81612132565b6001600160a01b03167f6dd9e2813f787f711671bf91b2e57a72b9b61bc279b934201f3fd29b3b5f8cbe84604051612c38911515815260200190565b60405180910390a3505050565b6000818152600260205260409020546060906001600160a01b0316612c7d57604051631a65aaab60e31b815260040160405180910390fd5b610fb582612912565b80612c9081612132565b6001600160a01b0316336001600160a01b031614612cc1576040516324adc17160e11b815260040160405180910390fd5b6000828152600c60205260408082206002019190915551634661636560e01b8152600401611572565b6060806060806060806060806060612d236040518060800160405280606081526020016060815260200160608152602001600081525090565b6000612d2e8c6129f4565b9050612d398161252e565b60105460405163bb12d21d60e01b8152939d50919a5095506001600160a01b03169063bb12d21d90612d6f90849060040161500f565b600060405180830381865afa158015612d8c573d6000803e3d6000fd5b505050506040513d6000823e601f3d908101601f19168201604052612db49190810190615512565b604051929b509098509550612dcf90859087906020016156a1565b60405160208183030381529060405292508787604051602001612df39291906155b0565b60408051601f1981840301815291905261014082015183529550612e168c6128ee565b51606083015261012081015160ff166000908152600f602052604090206001018054612e41906151ff565b80601f0160208091040260200160405190810160405280929190818152602001828054612e6d906151ff565b8015612eba5780601f10612e8f57610100808354040283529160200191612eba565b820191906000526020600020905b815481529060010190602001808311612e9d57829003601f168201915b50505050508260200181905250612ee38c6000908152600c60205260409020600b015460ff1690565b612f0757604051806040016040528060028152602001610c9160f21b815250612f23565b604051806040016040528060028152602001610cd160f21b8152505b60408084019190915260145490516332d01b2560e21b81526001600160a01b039091169063cb406c9490612f67908f908e9089908f908c908e908b90600401615765565b600060405180830381865afa158015612f84573d6000803e3d6000fd5b505050506040513d6000823e601f3d908101601f19168201604052612fac9190810190615289565b9c9b505050505050505050505050565b81612fc681612132565b6001600160a01b0316336001600160a01b031614612ff7576040516324adc17160e11b815260040160405180910390fd5b60038260ff16111561301c576040516329ba348d60e11b815260040160405180910390fd5b60ff8216156112a0576000838152600c60205260409020600901805460ff191660ff84161790558261304d81612132565b60405160ff851681526001600160a01b0391909116907f454db5768a3f8187a5dd5e9cca100cf699d74d8a03f793d16da3932cdf34d35890602001612c38565b805160609080158015906130a957506130a7600582615804565b155b6130f55760405162461bcd60e51b815260206004820152601960248201527f496e76616c696420626f6479206279746573206c656e6774680000000000000060448201526064016111ff565b604080516111948082526111c08201909252600091602082018180368337019050509050600061312660058461582e565b905060005b81811015613335576000613140826005615842565b9050600087828151811061315657613156615314565b016020015160f81c905060008861316e846001615859565b8151811061317e5761317e615314565b016020015160f81c9050600060ff831661319983601e615842565b6131a39190615859565b6131ae906005615842565b90508984815181106131c2576131c2615314565b602001015160f81c60f81b8782815181106131df576131df615314565b60200101906001600160f81b031916908160001a90535089846001018151811061320b5761320b615314565b602001015160f81c60f81b87826001018151811061322b5761322b615314565b60200101906001600160f81b031916908160001a90535089846002018151811061325757613257615314565b602001015160f81c60f81b87826002018151811061327757613277615314565b60200101906001600160f81b031916908160001a9053508984600301815181106132a3576132a3615314565b602001015160f81c60f81b8782600301815181106132c3576132c3615314565b60200101906001600160f81b031916908160001a9053508984600401815181106132ef576132ef615314565b602001015160f81c60f81b87826004018151811061330f5761330f615314565b60200101906001600160f81b031916908160001a9053505050505080600101905061312b565b5090949350505050565b613347613722565b63389a75e1600c52806000526020600c20805442111561336f57636f5e88186000526004601cfd5b6000905561223c81613fb0565b8161338681612132565b6001600160a01b0316336001600160a01b0316146133b7576040516324adc17160e11b815260040160405180910390fd5b6133c2826005613762565b6133cc8383613864565b6000838152600c6020526040902060040182905581836133eb81612132565b6001600160a01b0316600080516020615bbc83398151915260405161109b906020808252600390820152620546f760ec1b604082015260600190565b61342f613722565b6000848152600f602052604090208481556001810161344e85826158b4565b506002810161345d84826158b4565b506003810161346c83826158b4565b505050505050565b61347c613722565b8060601b61349257637448fbae6000526004601cfd5b61223c81613fb0565b60608060608060608060006134af886129f4565b90506134ba81612951565b601054604051631be5857160e31b81529298509096506001600160a01b03169063df2c2b88906134ee90849060040161500f565b600060405180830381865afa15801561350b573d6000803e3d6000fd5b505050506040513d6000823e601f3d908101601f191682016040526135339190810190615973565b9094509250613541886115bd565b915061356e6040518060800160405280606081526020016060815260200160608152602001600081525090565b610140820151815261357f896128ee565b51606082015261012082015160ff166000908152600f6020526040902060010180546135aa906151ff565b80601f01602080910402602001604051908101604052809291908181526020018280546135d6906151ff565b80156136235780601f106135f857610100808354040283529160200191613623565b820191906000526020600020905b81548152906001019060200180831161360657829003601f168201915b5050505050816020018190525061364c896000908152600c60205260409020600b015460ff1690565b61367057604051806040016040528060028152602001610c9160f21b81525061368c565b604051806040016040528060028152602001610cd160f21b8152505b6040808301919091526013549051630ed2eb5b60e41b81526001600160a01b039091169063ed2eb5b0906136d0908c908b908b908b908b908b908a90600401615765565b600060405180830381865afa1580156136ed573d6000803e3d6000fd5b505050506040513d6000823e601f3d908101601f191682016040526137159190810190615289565b9998505050505050505050565b638b78c6d8195433146122d7576382b429006000526004601cfd5b60006001600160e01b0319821663780e9d6360e01b1480610fb55750610fb582614113565b60105460405163e8a1268d60e01b8152600481018490526000916001600160a01b03169063e8a1268d90602401602060405180830381865afa1580156137ac573d6000803e3d6000fd5b505050506040513d601f19601f820116820180604052508101906137d091906159d6565b90508160078111156137e4576137e46159f7565b6040516020016137f691815260200190565b6040516020818303038152906040528051906020012081600781111561381e5761381e6159f7565b60405160200161383091815260200190565b60405160208183030381529060405280519060200120146112a057604051633e54c6fb60e11b815260040160405180910390fd5b8161386e81612132565b6001600160a01b0316336001600160a01b03161461389f576040516324adc17160e11b815260040160405180910390fd5b6000838152601860205260408082205460105491516331a9108f60e11b8152600481018690526001600160a01b0391821693929190911690636352211e90602401602060405180830381865afa1580156138fd573d6000803e3d6000fd5b505050506040513d601f19601f8201168201806040525081019061392191906155df565b9050816001600160a01b0316816001600160a01b0316146139555760405163e6ca793160e01b815260040160405180910390fd5b5050505050565b6000818152600260205260409020546001600160a01b031661223c5760405162461bcd60e51b8152602060048201526018602482015277115490cdcc8c4e881a5b9d985b1a59081d1bdad95b88125160421b60448201526064016111ff565b600081815260046020526040902080546001600160a01b0319166001600160a01b03841690811790915581906139f082612132565b6001600160a01b03167f8c5be1e5ebec7d5bd14f71427d1e84f3dd0314c0f7b2291e5b200ac8c7c3b92560405160405180910390a45050565b600080613a3583612132565b9050806001600160a01b0316846001600160a01b03161480613a7c57506001600160a01b0380821660009081526005602090815260408083209388168352929052205460ff165b806123f55750836001600160a01b0316613a9584611164565b6001600160a01b031614949350505050565b826001600160a01b0316613aba82612132565b6001600160a01b031614613b1e5760405162461bcd60e51b815260206004820152602560248201527f4552433732313a207472616e736665722066726f6d20696e636f72726563742060448201526437bbb732b960d91b60648201526084016111ff565b6001600160a01b038216613b805760405162461bcd60e51b8152602060048201526024808201527f4552433732313a207472616e7366657220746f20746865207a65726f206164646044820152637265737360e01b60648201526084016111ff565b613b8b838383614163565b613b966000826139bb565b6001600160a01b0383166000908152600360205260408120805460019290613bbf908490615a0d565b90915550506001600160a01b0382166000908152600360205260408120805460019290613bed908490615859565b909155505060008181526002602052604080822080546001600160a01b0319166001600160a01b0386811691821790925591518493918716917fddf252ad1be2c89b69c2b068fc378daa952ba7f163c4a11628f55a4df523b3ef91a4505050565b6012546001600160a01b0316613c7757604051633390ca8960e21b815260040160405180910390fd5b6000601560008154613c8890615a20565b91829055509050613c99338261453e565b604051638a54c52f60e01b81527355266d75d1a14e4572138116af39863ed6596e7f600482015260006024820181905262014a34604483015230606483015260848201839052906f6551c19487814612e58fe0681377575890638a54c52f9060a4016020604051808303816000875af1158015613d1a573d6000803e3d6000fd5b505050506040513d601f19601f82011682018060405250810190613d3e91906155df565b600083815260186020908152604080832080546001600160a01b0319166001600160a01b038616908117909155808452601990925291829020859055905163189acdbd60e31b81527341c8f39463a868d3a88af00cd0fe7102f30e44ec60048201529192509063c4d66de890602401600060405180830381600087803b158015613dc757600080fd5b505af1158015613ddb573d6000803e3d6000fd5b50506012546040516358a2727360e01b81526001600160a01b03858116600483015260ff881660248301526000945090911691506358a27273906044016000604051808303816000875af1158015613e37573d6000803e3d6000fd5b505050506040513d6000823e601f3d908101601f19168201604052613e5f91908101906155fc565b6000848152600c6020526040812060088101869055825192935091839190613e8957613e89615314565b6020026020010151816006018190555081600181518110613eac57613eac615314565b6020026020010151816005018190555081600281518110613ecf57613ecf615314565b6020026020010151816004018190555081600381518110613ef257613ef2615314565b6020908102919091018101516001830155600b8201805460ff19169055604080518083018790528151808203840181529082019091528051910120613f3990600490615804565b60098201805460ff191660ff929092169190911790556040805180820190915260068152650c110d914e5160d21b6020820152600a820190613f7b90826158b4565b50604051849033907f0f6798a560793a54c3bcfe86a93cde1e73087d944c0ea20544137d412139688590600090a35050505050565b638b78c6d81980546001600160a01b039092169182907f8be0079c531659141344cd1fd0a4f28419497f9722a3daafe3b4186f6b6457e0600080a355565b60608282604051602001614003929190615a39565b604051602081830303815290604052905092915050565b816001600160a01b0316836001600160a01b03160361407b5760405162461bcd60e51b815260206004820152601960248201527f4552433732313a20617070726f766520746f2063616c6c65720000000000000060448201526064016111ff565b6001600160a01b03838116600081815260056020908152604080832094871680845294825291829020805460ff191686151590811790915591519182527f17307eab39ab6107e8899845ad3d59bd9653f200f220920489ca2b5937696c319101612c38565b6140eb848484613aa7565b6140f78484848461468c565b6129ee5760405162461bcd60e51b81526004016111ff90615aaa565b60006001600160e01b031982166380ac58cd60e01b148061414457506001600160e01b03198216635b5e139f60e01b145b80610fb557506301ffc9a760e01b6001600160e01b0319831614610fb5565b6001600160a01b03831661417c576112a083838361478d565b6001600160a01b038216600090815260196020526040902054156141b357604051639a42da2960e01b815260040160405180910390fd5b60008181526018602052604080822054601054915162438b6360e81b81526001600160a01b03918216600482018190529392919091169063438b630090602401600060405180830381865afa158015614210573d6000803e3d6000fd5b505050506040513d6000823e601f3d908101601f1916820160405261423891908101906155fc565b9050600061424585611c8b565b9050600081516001600160401b0381111561426257614262614c59565b60405190808252806020026020018201604052801561428b578160200160208202803683370190505b50905060005b825181101561430c57601860008483815181106142b0576142b0615314565b6020026020010151815260200190815260200160002060009054906101000a90046001600160a01b03168282815181106142ec576142ec615314565b6001600160a01b0390921660209283029190910190910152600101614291565b5060115460405163644ec52760e01b8152600481018790526001600160a01b039091169063644ec52790602401600060405180830381600087803b15801561435357600080fd5b505af1158015614367573d6000803e3d6000fd5b5050601154604051631e92beb560e31b8152600481018990526001600160a01b038a81166024830152909116925063f495f5a89150604401600060405180830381600087803b1580156143b957600080fd5b505af11580156143cd573d6000803e3d6000fd5b5050505060005b83518110156145295760008482815181106143f1576143f1615314565b6020908102919091010151601154604051632e1d274f60e01b8152600481018390529192506001600160a01b031690632e1d274f90602401600060405180830381600087803b15801561444357600080fd5b505af1158015614457573d6000803e3d6000fd5b5050601154604051632333520b60e11b81526001600160a01b039091169250634666a416915061448d9084908790600401615afc565b600060405180830381600087803b1580156144a757600080fd5b505af11580156144bb573d6000803e3d6000fd5b505060105460405163487b1c2160e11b8152600481018590526001600160a01b0390911692506390f638429150602401600060405180830381600087803b15801561450557600080fd5b505af1158015614519573d6000803e3d6000fd5b50505050508060010190506143d4565b5061453587878761478d565b50505050505050565b6001600160a01b0382166145945760405162461bcd60e51b815260206004820181905260248201527f4552433732313a206d696e7420746f20746865207a65726f206164647265737360448201526064016111ff565b6000818152600260205260409020546001600160a01b0316156145f95760405162461bcd60e51b815260206004820152601c60248201527f4552433732313a20746f6b656e20616c7265616479206d696e7465640000000060448201526064016111ff565b61460560008383614163565b6001600160a01b038216600090815260036020526040812080546001929061462e908490615859565b909155505060008181526002602052604080822080546001600160a01b0319166001600160a01b03861690811790915590518392907fddf252ad1be2c89b69c2b068fc378daa952ba7f163c4a11628f55a4df523b3ef908290a45050565b60006001600160a01b0384163b1561478257604051630a85bd0160e11b81526001600160a01b0385169063150b7a02906146d0903390899088908890600401615b55565b6020604051808303816000875af192505050801561470b575060408051601f3d908101601f1916820190925261470891810190615b88565b60015b614768573d808015614739576040519150601f19603f3d011682016040523d82523d6000602084013e61473e565b606091505b5080516000036147605760405162461bcd60e51b81526004016111ff90615aaa565b805181602001fd5b6001600160e01b031916630a85bd0160e11b1490506123f5565b506001949350505050565b6001600160a01b0383166147e8576147e381600880546000838152600960205260408120829055600182018355919091527ff3f7a9fe364faab93b216da50a3214154f22a0a2b415b23a84c8169e8b636ee30155565b61480b565b816001600160a01b0316836001600160a01b03161461480b5761480b8382614845565b6001600160a01b038216614822576112a0816148e2565b826001600160a01b0316826001600160a01b0316146112a0576112a08282614991565b600060016148528461223f565b61485c9190615a0d565b6000838152600760205260409020549091508082146148af576001600160a01b03841660009081526006602090815260408083208584528252808320548484528184208190558352600790915290208190555b5060009182526007602090815260408084208490556001600160a01b039094168352600681528383209183525290812055565b6008546000906148f490600190615a0d565b6000838152600960205260408120546008805493945090928490811061491c5761491c615314565b90600052602060002001549050806008838154811061493d5761493d615314565b600091825260208083209091019290925582815260099091526040808220849055858252812055600880548061497557614975615ba5565b6001900381819060005260206000200160009055905550505050565b600061499c8361223f565b6001600160a01b039093166000908152600660209081526040808320868452825280832085905593825260079052919091209190915550565b6001600160a01b038116811461223c57600080fd5b6000602082840312156149fc57600080fd5b813561251a816149d5565b6001600160e01b03198116811461223c57600080fd5b600060208284031215614a2f57600080fd5b813561251a81614a07565b600060208284031215614a4c57600080fd5b5035919050565b60008060408385031215614a6657600080fd5b50508035926020909101359150565b60005b83811015614a90578181015183820152602001614a78565b50506000910152565b60008151808452614ab1816020860160208601614a75565b601f01601f19169290920160200192915050565b60208152600061251a6020830184614a99565b60008060408385031215614aeb57600080fd5b8235614af6816149d5565b946020939093013593505050565b848152608060208201526000614b1d6080830186614a99565b8281036040840152614b2f8186614a99565b90508281036060840152614b438185614a99565b979650505050505050565b600080600060608486031215614b6357600080fd5b8335614b6e816149d5565b92506020840135614b7e816149d5565b929592945050506040919091013590565b6020808252825182820181905260009190848201906040850190845b81811015614bc757835183529284019291840191600101614bab565b50909695505050505050565b600080600080600080600080610100898b031215614bf057600080fd5b505086359860208801359850604088013597606081013597506080810135965060a0810135955060c0810135945060e0013592509050565b803560ff81168114614c3957600080fd5b919050565b600060208284031215614c5057600080fd5b61251a82614c28565b634e487b7160e01b600052604160045260246000fd5b60405161018081016001600160401b0381118282101715614c9257614c92614c59565b60405290565b604051601f8201601f191681016001600160401b0381118282101715614cc057614cc0614c59565b604052919050565b803563ffffffff81168114614c3957600080fd5b60006001600160401b03821115614cf557614cf5614c59565b50601f01601f191660200190565b600082601f830112614d1457600080fd5b8135614d27614d2282614cdc565b614c98565b818152846020838601011115614d3c57600080fd5b816020850160208301376000918101602001919091529392505050565b80358015158114614c3957600080fd5b600060208284031215614d7b57600080fd5b81356001600160401b0380821115614d9257600080fd5b908301906101808286031215614da757600080fd5b614daf614c6f565b823581526020830135602082015260408301356040820152606083013560608201526080830135608082015260a083013560a082015260c083013560c0820152614dfb60e08401614cc8565b60e08201526101008381013590820152610120614e19818501614c28565b908201526101408381013583811115614e3157600080fd5b614e3d88828701614d03565b8284015250506101609150614e53828401614d59565b91810191909152949350505050565b606081526000614e756060830186614a99565b8281036020840152614e878186614a99565b90508281036040840152614e9b8185614a99565b9695505050505050565b6000806000806000806000806000806101408b8d031215614ec557600080fd5b8a35995060208b0135985060408b0135975060608b0135965060808b0135955060a08b0135945060c08b0135935060e08b01359250614f076101008c01614c28565b91506101208b01356001600160401b03811115614f2357600080fd5b614f2f8d828e01614d03565b9150509295989b9194979a5092959850565b60008060408385031215614f5457600080fd5b8235614f5f816149d5565b9150614f6d60208401614d59565b90509250929050565b604081526000614f896040830185614a99565b8281036020840152614f9b8185614a99565b95945050505050565b60008060008060808587031215614fba57600080fd5b8435614fc5816149d5565b93506020850135614fd5816149d5565b92506040850135915060608501356001600160401b03811115614ff757600080fd5b61500387828801614d03565b91505092959194509250565b6020815281516020820152602082015160408201526040820151606082015260608201516080820152608082015160a082015260a082015160c082015260c082015160e0820152600060e08301516101006150718185018363ffffffff169052565b8401516101208481019190915284015190506101406150948185018360ff169052565b8085015191505061018061016081818601526150b46101a0860184614a99565b9086015180151583870152909250613335565b600080604083850312156150da57600080fd5b82359150614f6d60208401614d59565b600080604083850312156150fd57600080fd5b82359150614f6d60208401614c28565b60006020828403121561511f57600080fd5b81356001600160401b0381111561513557600080fd5b6123f584828501614d03565b6000806040838503121561515457600080fd5b823561515f816149d5565b9150602083013561516f816149d5565b809150509250929050565b6000806000806080858703121561519057600080fd5b8435935060208501356001600160401b03808211156151ae57600080fd5b6151ba88838901614d03565b945060408701359150808211156151d057600080fd5b6151dc88838901614d03565b935060608701359150808211156151f257600080fd5b5061500387828801614d03565b600181811c9082168061521357607f821691505b60208210810361523357634e487b7160e01b600052602260045260246000fd5b50919050565b6000615247614d2284614cdc565b905082815283838301111561525b57600080fd5b61251a836020830184614a75565b600082601f83011261527a57600080fd5b61251a83835160208501615239565b60006020828403121561529b57600080fd5b81516001600160401b038111156152b157600080fd5b6123f584828501615269565b600083516152cf818460208801614a75565b8351908301906152e3818360208801614a75565b7f3c672069643d226261636b7061636b547261697473223e0000000000000000009101908152601701949350505050565b634e487b7160e01b600052603260045260246000fd5b6000855161533c818460208a01614a75565b855190830190615350818360208a01614a75565b8551910190615363818360208901614a75565b8451910190615376818360208801614a75565b019695505050505050565b60008451615393818460208901614a75565b8451908301906153a7818360208901614a75565b8082019150507f3c672069643d224d6f7265547261697473223e3c72656374207374796c653d2281527f77696474683a313070783b206865696768743a3270783b2220783d223130222060208201527f793d223136222066696c6c3d2223666666666666223e3c2f726563743e3c726560408201527f6374207374796c653d226865696768743a313070783b2077696474683a32707860608201527f3b2220783d2231342220793d223132222066696c6c3d2223666666666666223e60808201526a1e17b932b1ba1f1e17b39f60a91b60a0820152835161548f8160ab840160208801614a75565b0160ab0195945050505050565b600082516154ae818460208701614a75565b631e17b39f60e11b920191825250600401919050565b6020808252602e908201527f4552433732313a2063616c6c6572206973206e6f7420746f6b656e206f776e6560408201526d1c881b9bdc88185c1c1c9bdd995960921b606082015260800190565b60008060006060848603121561552757600080fd5b83516001600160401b038082111561553e57600080fd5b61554a87838801615269565b9450602086015191508082111561556057600080fd5b818601915086601f83011261557457600080fd5b61558387835160208501615239565b9350604086015191508082111561559957600080fd5b506155a686828701615269565b9150509250925092565b600083516155c2818460208801614a75565b8351908301906155d6818360208801614a75565b01949350505050565b6000602082840312156155f157600080fd5b815161251a816149d5565b6000602080838503121561560f57600080fd5b82516001600160401b038082111561562657600080fd5b818501915085601f83011261563a57600080fd5b81518181111561564c5761564c614c59565b8060051b915061565d848301614c98565b818152918301840191848101908884111561567757600080fd5b938501935b838510156156955784518252938501939085019061567c565b98975050505050505050565b6d2261747472696275746573223a5b60901b815282516000906156cb81600e850160208801614a75565b600b60fa1b600e9184019182015283516156ec81600f840160208801614a75565b605d60f81b600f9290910191820152601001949350505050565b600081516080845261571b6080850182614a99565b9050602083015184820360208601526157348282614a99565b9150506040830151848203604086015261574e8282614a99565b915050606083015160608501528091505092915050565b87815260e06020820152600061577e60e0830189614a99565b82810360408401526157908189614a99565b905082810360608401526157a48188614a99565b905082810360808401526157b88187614a99565b905082810360a08401526157cc8186614a99565b905082810360c08401526157e08185615706565b9a9950505050505050505050565b634e487b7160e01b600052601260045260246000fd5b600082615813576158136157ee565b500690565b634e487b7160e01b600052601160045260246000fd5b60008261583d5761583d6157ee565b500490565b8082028115828204841417610fb557610fb5615818565b80820180821115610fb557610fb5615818565b601f8211156112a0576000816000526020600020601f850160051c810160208610156158955750805b601f850160051c820191505b8181101561346c578281556001016158a1565b81516001600160401b038111156158cd576158cd614c59565b6158e1816158db84546151ff565b8461586c565b602080601f83116001811461591657600084156158fe5750858301515b600019600386901b1c1916600185901b17855561346c565b600085815260208120601f198616915b8281101561594557888601518255948401946001909101908401615926565b50858210156159635787850151600019600388901b60f8161c191681555b5050505050600190811b01905550565b6000806040838503121561598657600080fd5b82516001600160401b038082111561599d57600080fd5b6159a986838701615269565b935060208501519150808211156159bf57600080fd5b506159cc85828601615269565b9150509250929050565b6000602082840312156159e857600080fd5b81516008811061251a57600080fd5b634e487b7160e01b600052602160045260246000fd5b81810381811115610fb557610fb5615818565b600060018201615a3257615a32615818565b5060010190565b6e3d913a3930b4ba2fba3cb832911d1160891b81528251600090615a6481600f850160208801614a75565b6a1116113b30b63ab2911d1160a91b600f918401918201528351615a8f81601a840160208801614a75565b61227d60f01b601a9290910191820152601c01949350505050565b60208082526032908201527f4552433732313a207472616e7366657220746f206e6f6e20455243373231526560408201527131b2b4bb32b91034b6b83632b6b2b73a32b960711b606082015260800190565b60006040820184835260206040602085015281855180845260608601915060208701935060005b81811015615b485784516001600160a01b031683529383019391830191600101615b23565b5090979650505050505050565b6001600160a01b0385811682528416602082015260408101839052608060608201819052600090614e9b90830184614a99565b600060208284031215615b9a57600080fd5b815161251a81614a07565b634e487b7160e01b600052603160045260246000fdfe8aea9baa1ab7209ce94784ac5f5149343f8d985fd4278de25a7b390989f2cf853c672069643d22416c6c20547261697473223e3c672069643d226261636b7061636b2220636c6173733d22636c6f736564223e3c7061746820643d224d302030204c33302030204c3330203330204c30203330205a222066696c6c3d227267622831322c203130392c203135372922202f3e3c7376672069643d226261636b7061636b5549222076696577426f783d223020302031323020313230223e203c7374796c653e2e75697b77696474683a3170783b206865696768743a203170783b2066696c6c3a77686974657d3c2f7374796c653e203c672069643d22636c6f736542746e22207472616e73666f726d3d227472616e736c61746528322c3229223e203c7265637420783d22312220793d22312220636c6173733d227569223e3c2f726563743e203c7265637420783d22322220793d22322220636c6173733d227569223e3c2f726563743e203c7265637420783d22332220793d22332220636c6173733d227569223e3c2f726563743e203c7265637420783d22342220793d22342220636c6173733d227569223e3c2f726563743e203c7265637420783d22352220793d22352220636c6173733d227569223e3c2f726563743e203c7265637420783d22352220793d22312220636c6173733d227569223e3c2f726563743e203c7265637420783d22342220793d22322220636c6173733d227569223e3c2f726563743e203c212d2d203c7265637420783d22332220793d2233222077696474683d223122206865696768743d2231222066696c6c3d227768697465223e3c2f726563743e202d2d3e203c7265637420783d22322220793d22342220636c6173733d227569223e3c2f726563743e203c7265637420783d22312220793d22352220636c6173733d227569223e3c2f726563743e203c2f673e203c672069643d226c65667442746e2220636c6173733d22627574746f6e22207472616e73666f726d3d227472616e736c6174652834352c31313029223e203c7061746820643d224d302030204c362030204c362036204c302036205a222066696c6c3d227472616e73706172656e7422202f3e203c7265637420783d22322220793d22302220636c6173733d227569223e3c2f726563743e203c7265637420783d22312220793d22312220636c6173733d227569223e3c2f726563743e203c7265637420783d22302220793d22322220636c6173733d227569223e3c2f726563743e203c7265637420783d22312220793d22332220636c6173733d227569223e3c2f726563743e203c7265637420783d22322220793d22342220636c6173733d227569223e3c2f726563743e203c2f673e203c672069643d22726967687442746e2220636c6173733d22627574746f6e22207472616e73666f726d3d227472616e736c6174652836352c31313029223e203c7061746820643d224d302030204c362030204c362036204c302036205a222066696c6c3d227472616e73706172656e7422202f3e203c7265637420783d22332220793d22302220636c6173733d227569223e3c2f726563743e203c7265637420783d22342220793d22312220636c6173733d227569223e3c2f726563743e203c7265637420783d22352220793d22322220636c6173733d227569223e3c2f726563743e203c7265637420783d22342220793d22332220636c6173733d227569223e3c2f726563743e203c7265637420783d22332220793d22342220636c6173733d227569223e3c2f726563743e203c2f673e203c2f7376673e20a2646970667358221220da9695974c89ab041d7f014a2814deef903066541d81ae5f3236ccc27a14557e64736f6c63430008160033","linkReferences":{}},"methodIdentifiers":{"_debugPostConstructorMint()":"9c7be2f1","addNewBody(uint256,string,bytes,bytes)":"f2361e23","approve(address,uint256)":"095ea7b3","balanceOf(address)":"70a08231","bodyIndexToMetadata(uint256)":"0c83f9d7","cancelOwnershipHandover()":"54d1f13d","checkIfTraitIsEquipped(uint256,uint256)":"8aa1e4c8","chonkIdToApprovedOperators(uint256,uint256)":"55737f35","completeOwnershipHandover(address)":"f04e283e","equipAccessory(uint256,uint256)":"0447a45e","equipAll(uint256,uint256,uint256,uint256,uint256,uint256,uint256,uint256)":"4a4333a3","equipBottom(uint256,uint256)":"45a10d0f","equipFace(uint256,uint256)":"0f162320","equipHair(uint256,uint256)":"94cbd9c4","equipHead(uint256,uint256)":"1e162a33","equipShoes(uint256,uint256)":"60b77b23","equipTop(uint256,uint256)":"f18dc22d","firstSeasonRenderMinter()":"13ea0ae3","getApproved(uint256)":"081812fc","getBackpackSVGs(uint256)":"14fe8ff4","getBodyImage(bytes)":"e37db3c2","getBodyImageSvg(uint256)":"916c546b","getBodySVGZmapsAndMetadata((uint256,uint256,uint256,uint256,uint256,uint256,uint256,uint32,uint256,uint8,string,bool))":"92012f08","getBodySvgAndMetadata((uint256,uint256,uint256,uint256,uint256,uint256,uint256,uint32,uint256,uint8,string,bool))":"a23830ae","getBodyZMap(uint256)":"306c7334","getFullPictureForTrait(uint256)":"66704349","getOwnerAndTBAAddressForChonkId(uint256)":"04003bd0","getPeter(uint256)":"be928ff6","getPeterZMap(uint256)":"2bd1ca45","getTBAAddressForChonkId(uint256)":"f6a0c932","getTokenRenderZ(uint256)":"8200ea51","getTraitTokens(address)":"998cfb6e","getTraitsForChonkId(uint256)":"9f6e4637","isApprovedForAll(address,address)":"e985e9c5","mainRenderer2D()":"f4bec0b6","mainRenderer3D()":"b66ef6e3","marketplace()":"abc8c7af","mint(uint8)":"6ecd2306","name()":"06fdde03","owner()":"8da5cb5b","ownerOf(uint256)":"6352211e","ownershipHandoverExpiresAt(address)":"fee81cf4","peterMakeover(uint256,uint256,uint256,uint256,uint256,uint256,uint256,uint256,uint8,string)":"93ccba72","price()":"a035b1fe","renderAsDataUri(uint256)":"a1d62680","renderAsDataUri2D(uint256)":"f3f8efb9","renderAsDataUri3D(uint256)":"dceef0ec","renounceOwnership()":"715018a6","requestOwnershipHandover()":"25692962","safeTransferFrom(address,address,uint256)":"42842e0e","safeTransferFrom(address,address,uint256,bytes)":"b88d4fde","setApprovalForAll(address,bool)":"a22cb465","setBodyIndex(uint256,uint8)":"e1405540","setFirstSeasonRenderMinter(address)":"58a97640","setMainRenderer2D(address)":"7e2e6c47","setMainRenderer3D(address)":"00179206","setMarketplace(address)":"73ad6c2d","setMaxTraitsToOutput(uint256)":"33d3d9bf","setPrice(uint256)":"91b7f5ed","setSystemAddress(address)":"06210197","setTokenRender3D(uint256,bool)":"bef1dfb7","setTraitsContract(address)":"5eabd84a","supportsInterface(bytes4)":"01ffc9a7","symbol()":"95d89b41","tbaAddressToTokenId(address)":"a4bf9a00","tokenByIndex(uint256)":"4f6ccce7","tokenIdToTBAAccountAddress(uint256)":"9c05d68d","tokenOfOwnerByIndex(address,uint256)":"2f745c59","tokenURI(uint256)":"c87b56dd","totalSupply()":"18160ddd","traitsContract()":"c093afdb","transferFrom(address,address,uint256)":"23b872dd","transferOwnership(address)":"f2fde38b","unequipAccessory(uint256)":"293ed3f7","unequipAll(uint256)":"3044825b","unequipBottom(uint256)":"9c762015","unequipFace(uint256)":"d5b55c8b","unequipHair(uint256)":"105338e0","unequipHead(uint256)":"7afe8d34","unequipShoes(uint256)":"58180d35","unequipTop(uint256)":"347bd8f4","walletOfOwner(address)":"438b6300"},"id":45}