{"abi":[{"type":"constructor","inputs":[{"name":"localDeploy_","type":"bool","internalType":"bool"}],"stateMutability":"nonpayable"},{"type":"function","name":"_debugPostConstructorMint","inputs":[],"outputs":[],"stateMutability":"nonpayable"},{"type":"function","name":"addNewBody","inputs":[{"name":"_bodyIndex","type":"uint256","internalType":"uint256"},{"name":"_bodyName","type":"string","internalType":"string"},{"name":"_colorMap","type":"bytes","internalType":"bytes"},{"name":"_zMap","type":"bytes","internalType":"bytes"}],"outputs":[],"stateMutability":"nonpayable"},{"type":"function","name":"approve","inputs":[{"name":"operator","type":"address","internalType":"address"},{"name":"_chonkId","type":"uint256","internalType":"uint256"}],"outputs":[],"stateMutability":"nonpayable"},{"type":"function","name":"balanceOf","inputs":[{"name":"owner","type":"address","internalType":"address"}],"outputs":[{"name":"","type":"uint256","internalType":"uint256"}],"stateMutability":"view"},{"type":"function","name":"bodyIndexToMetadata","inputs":[{"name":"","type":"uint256","internalType":"uint256"}],"outputs":[{"name":"bodyIndex","type":"uint256","internalType":"uint256"},{"name":"bodyName","type":"string","internalType":"string"},{"name":"colorMap","type":"bytes","internalType":"bytes"},{"name":"zMap","type":"bytes","internalType":"bytes"}],"stateMutability":"view"},{"type":"function","name":"buyTrait","inputs":[{"name":"_tokenId","type":"uint256","internalType":"uint256"}],"outputs":[],"stateMutability":"nonpayable"},{"type":"function","name":"cancelOwnershipHandover","inputs":[],"outputs":[],"stateMutability":"payable"},{"type":"function","name":"chonkIdToApprovals","inputs":[{"name":"chonkId","type":"uint256","internalType":"uint256"}],"outputs":[{"name":"nonce","type":"uint256","internalType":"uint256"}],"stateMutability":"view"},{"type":"function","name":"completeOwnershipHandover","inputs":[{"name":"pendingOwner","type":"address","internalType":"address"}],"outputs":[],"stateMutability":"payable"},{"type":"function","name":"equipAccessory","inputs":[{"name":"_peterTokenId","type":"uint256","internalType":"uint256"},{"name":"_traitTokenId","type":"uint256","internalType":"uint256"}],"outputs":[],"stateMutability":"nonpayable"},{"type":"function","name":"equipAll","inputs":[{"name":"_peterTokenId","type":"uint256","internalType":"uint256"},{"name":"_headTokenId","type":"uint256","internalType":"uint256"},{"name":"_hairTokenId","type":"uint256","internalType":"uint256"},{"name":"_faceTokenId","type":"uint256","internalType":"uint256"},{"name":"_accessoryTokenId","type":"uint256","internalType":"uint256"},{"name":"_topTokenId","type":"uint256","internalType":"uint256"},{"name":"_bottomTokenId","type":"uint256","internalType":"uint256"},{"name":"_shoesTokenId","type":"uint256","internalType":"uint256"}],"outputs":[],"stateMutability":"nonpayable"},{"type":"function","name":"equipBottom","inputs":[{"name":"_peterTokenId","type":"uint256","internalType":"uint256"},{"name":"_traitTokenId","type":"uint256","internalType":"uint256"}],"outputs":[],"stateMutability":"nonpayable"},{"type":"function","name":"equipFace","inputs":[{"name":"_peterTokenId","type":"uint256","internalType":"uint256"},{"name":"_traitTokenId","type":"uint256","internalType":"uint256"}],"outputs":[],"stateMutability":"nonpayable"},{"type":"function","name":"equipHair","inputs":[{"name":"_peterTokenId","type":"uint256","internalType":"uint256"},{"name":"_traitTokenId","type":"uint256","internalType":"uint256"}],"outputs":[],"stateMutability":"nonpayable"},{"type":"function","name":"equipHead","inputs":[{"name":"_peterTokenId","type":"uint256","internalType":"uint256"},{"name":"_traitTokenId","type":"uint256","internalType":"uint256"}],"outputs":[],"stateMutability":"nonpayable"},{"type":"function","name":"equipShoes","inputs":[{"name":"_peterTokenId","type":"uint256","internalType":"uint256"},{"name":"_traitTokenId","type":"uint256","internalType":"uint256"}],"outputs":[],"stateMutability":"nonpayable"},{"type":"function","name":"equipTop","inputs":[{"name":"_peterTokenId","type":"uint256","internalType":"uint256"},{"name":"_traitTokenId","type":"uint256","internalType":"uint256"}],"outputs":[],"stateMutability":"nonpayable"},{"type":"function","name":"firstSeasonRenderMinter","inputs":[],"outputs":[{"name":"","type":"address","internalType":"contract FirstSeasonRenderMinter"}],"stateMutability":"view"},{"type":"function","name":"getApproved","inputs":[{"name":"tokenId","type":"uint256","internalType":"uint256"}],"outputs":[{"name":"","type":"address","internalType":"address"}],"stateMutability":"view"},{"type":"function","name":"getBackpackSVGs","inputs":[{"name":"_tokenId","type":"uint256","internalType":"uint256"}],"outputs":[{"name":"backpackSVGs","type":"string","internalType":"string"}],"stateMutability":"view"},{"type":"function","name":"getBodyImage","inputs":[{"name":"colorMap","type":"bytes","internalType":"bytes"}],"outputs":[{"name":"","type":"bytes","internalType":"bytes"}],"stateMutability":"pure"},{"type":"function","name":"getBodyImageSvg","inputs":[{"name":"_index","type":"uint256","internalType":"uint256"}],"outputs":[{"name":"svg","type":"string","internalType":"string"}],"stateMutability":"view"},{"type":"function","name":"getBodySVGZmapsAndMetadata","inputs":[{"name":"storedPeter","type":"tuple","internalType":"struct IPeterStorage.StoredPeter","components":[{"name":"headId","type":"uint256","internalType":"uint256"},{"name":"hairId","type":"uint256","internalType":"uint256"},{"name":"faceId","type":"uint256","internalType":"uint256"},{"name":"accessoryId","type":"uint256","internalType":"uint256"},{"name":"topId","type":"uint256","internalType":"uint256"},{"name":"bottomId","type":"uint256","internalType":"uint256"},{"name":"shoesId","type":"uint256","internalType":"uint256"},{"name":"epoch","type":"uint32","internalType":"uint32"},{"name":"tokenId","type":"uint256","internalType":"uint256"},{"name":"bodyIndex","type":"uint8","internalType":"uint8"},{"name":"backgroundColor","type":"string","internalType":"string"},{"name":"renderZ","type":"bool","internalType":"bool"}]}],"outputs":[{"name":"","type":"string","internalType":"string"},{"name":"","type":"bytes","internalType":"bytes"},{"name":"","type":"string","internalType":"string"}],"stateMutability":"view"},{"type":"function","name":"getBodySvgAndMetadata","inputs":[{"name":"storedPeter","type":"tuple","internalType":"struct IPeterStorage.StoredPeter","components":[{"name":"headId","type":"uint256","internalType":"uint256"},{"name":"hairId","type":"uint256","internalType":"uint256"},{"name":"faceId","type":"uint256","internalType":"uint256"},{"name":"accessoryId","type":"uint256","internalType":"uint256"},{"name":"topId","type":"uint256","internalType":"uint256"},{"name":"bottomId","type":"uint256","internalType":"uint256"},{"name":"shoesId","type":"uint256","internalType":"uint256"},{"name":"epoch","type":"uint32","internalType":"uint32"},{"name":"tokenId","type":"uint256","internalType":"uint256"},{"name":"bodyIndex","type":"uint8","internalType":"uint8"},{"name":"backgroundColor","type":"string","internalType":"string"},{"name":"renderZ","type":"bool","internalType":"bool"}]}],"outputs":[{"name":"","type":"string","internalType":"string"},{"name":"","type":"string","internalType":"string"}],"stateMutability":"view"},{"type":"function","name":"getBodyZMap","inputs":[{"name":"_tokenId","type":"uint256","internalType":"uint256"}],"outputs":[{"name":"","type":"string","internalType":"string"}],"stateMutability":"view"},{"type":"function","name":"getFullPictureForTrait","inputs":[{"name":"_chonkTraitTokenId","type":"uint256","internalType":"uint256"}],"outputs":[{"name":"traitOwnerTBA","type":"address","internalType":"address"},{"name":"chonkTokenId","type":"uint256","internalType":"uint256"},{"name":"chonkOwner","type":"address","internalType":"address"}],"stateMutability":"view"},{"type":"function","name":"getOwnerAndTBAAddressForChonkId","inputs":[{"name":"_chonkId","type":"uint256","internalType":"uint256"}],"outputs":[{"name":"owner","type":"address","internalType":"address"},{"name":"tbaAddress","type":"address","internalType":"address"}],"stateMutability":"view"},{"type":"function","name":"getPeter","inputs":[{"name":"_tokenId","type":"uint256","internalType":"uint256"}],"outputs":[{"name":"","type":"tuple","internalType":"struct IPeterStorage.StoredPeter","components":[{"name":"headId","type":"uint256","internalType":"uint256"},{"name":"hairId","type":"uint256","internalType":"uint256"},{"name":"faceId","type":"uint256","internalType":"uint256"},{"name":"accessoryId","type":"uint256","internalType":"uint256"},{"name":"topId","type":"uint256","internalType":"uint256"},{"name":"bottomId","type":"uint256","internalType":"uint256"},{"name":"shoesId","type":"uint256","internalType":"uint256"},{"name":"epoch","type":"uint32","internalType":"uint32"},{"name":"tokenId","type":"uint256","internalType":"uint256"},{"name":"bodyIndex","type":"uint8","internalType":"uint8"},{"name":"backgroundColor","type":"string","internalType":"string"},{"name":"renderZ","type":"bool","internalType":"bool"}]}],"stateMutability":"view"},{"type":"function","name":"getPeterZMap","inputs":[{"name":"_tokenId","type":"uint256","internalType":"uint256"}],"outputs":[{"name":"","type":"string","internalType":"string"}],"stateMutability":"view"},{"type":"function","name":"getTBAAddressForChonkId","inputs":[{"name":"_chonkId","type":"uint256","internalType":"uint256"}],"outputs":[{"name":"","type":"address","internalType":"address"}],"stateMutability":"view"},{"type":"function","name":"getTokenRenderZ","inputs":[{"name":"_peterTokenId","type":"uint256","internalType":"uint256"}],"outputs":[{"name":"","type":"bool","internalType":"bool"}],"stateMutability":"view"},{"type":"function","name":"getTraitTokens","inputs":[{"name":"_tbaAddress","type":"address","internalType":"address"}],"outputs":[{"name":"","type":"uint256[]","internalType":"uint256[]"}],"stateMutability":"view"},{"type":"function","name":"getTraitsForChonkId","inputs":[{"name":"_chonkId","type":"uint256","internalType":"uint256"}],"outputs":[{"name":"traitTokens","type":"uint256[]","internalType":"uint256[]"}],"stateMutability":"view"},{"type":"function","name":"isApprovedForAll","inputs":[{"name":"owner","type":"address","internalType":"address"},{"name":"operator","type":"address","internalType":"address"}],"outputs":[{"name":"","type":"bool","internalType":"bool"}],"stateMutability":"view"},{"type":"function","name":"mainRenderer","inputs":[],"outputs":[{"name":"","type":"address","internalType":"contract MainRenderer"}],"stateMutability":"view"},{"type":"function","name":"marketplace","inputs":[],"outputs":[{"name":"","type":"address","internalType":"contract ChonksMarket"}],"stateMutability":"view"},{"type":"function","name":"mint","inputs":[],"outputs":[],"stateMutability":"payable"},{"type":"function","name":"mintByLevel","inputs":[{"name":"amount","type":"uint8","internalType":"uint8"},{"name":"nonce","type":"string","internalType":"string"},{"name":"signature","type":"bytes","internalType":"bytes"}],"outputs":[],"stateMutability":"payable"},{"type":"function","name":"name","inputs":[],"outputs":[{"name":"","type":"string","internalType":"string"}],"stateMutability":"view"},{"type":"function","name":"owner","inputs":[],"outputs":[{"name":"result","type":"address","internalType":"address"}],"stateMutability":"view"},{"type":"function","name":"ownerOf","inputs":[{"name":"tokenId","type":"uint256","internalType":"uint256"}],"outputs":[{"name":"","type":"address","internalType":"address"}],"stateMutability":"view"},{"type":"function","name":"ownershipHandoverExpiresAt","inputs":[{"name":"pendingOwner","type":"address","internalType":"address"}],"outputs":[{"name":"result","type":"uint256","internalType":"uint256"}],"stateMutability":"view"},{"type":"function","name":"peterMakeover","inputs":[{"name":"_peterTokenId","type":"uint256","internalType":"uint256"},{"name":"_headTokenId","type":"uint256","internalType":"uint256"},{"name":"_hairTokenId","type":"uint256","internalType":"uint256"},{"name":"_faceTokenId","type":"uint256","internalType":"uint256"},{"name":"_accessoryTokenId","type":"uint256","internalType":"uint256"},{"name":"_topTokenId","type":"uint256","internalType":"uint256"},{"name":"_bottomTokenId","type":"uint256","internalType":"uint256"},{"name":"_shoesTokenId","type":"uint256","internalType":"uint256"},{"name":"_bodyIndex","type":"uint8","internalType":"uint8"},{"name":"_backgroundColor","type":"string","internalType":"string"}],"outputs":[],"stateMutability":"nonpayable"},{"type":"function","name":"price","inputs":[],"outputs":[{"name":"","type":"uint256","internalType":"uint256"}],"stateMutability":"view"},{"type":"function","name":"renderAsDataUri","inputs":[{"name":"_tokenId","type":"uint256","internalType":"uint256"}],"outputs":[{"name":"","type":"string","internalType":"string"}],"stateMutability":"view"},{"type":"function","name":"renderAsDataUriSVG","inputs":[{"name":"_tokenId","type":"uint256","internalType":"uint256"}],"outputs":[{"name":"","type":"string","internalType":"string"}],"stateMutability":"view"},{"type":"function","name":"renderAsDataUriZ","inputs":[{"name":"_tokenId","type":"uint256","internalType":"uint256"}],"outputs":[{"name":"","type":"string","internalType":"string"}],"stateMutability":"view"},{"type":"function","name":"renounceOwnership","inputs":[],"outputs":[],"stateMutability":"payable"},{"type":"function","name":"requestOwnershipHandover","inputs":[],"outputs":[],"stateMutability":"payable"},{"type":"function","name":"safeTransferFrom","inputs":[{"name":"from","type":"address","internalType":"address"},{"name":"to","type":"address","internalType":"address"},{"name":"tokenId","type":"uint256","internalType":"uint256"}],"outputs":[],"stateMutability":"nonpayable"},{"type":"function","name":"safeTransferFrom","inputs":[{"name":"from","type":"address","internalType":"address"},{"name":"to","type":"address","internalType":"address"},{"name":"tokenId","type":"uint256","internalType":"uint256"},{"name":"data","type":"bytes","internalType":"bytes"}],"outputs":[],"stateMutability":"nonpayable"},{"type":"function","name":"setApprovalForAll","inputs":[{"name":"","type":"address","internalType":"address"},{"name":"","type":"bool","internalType":"bool"}],"outputs":[],"stateMutability":"pure"},{"type":"function","name":"setApprovalForAll","inputs":[{"name":"_chonkId","type":"uint256","internalType":"uint256"},{"name":"operator","type":"address","internalType":"address"},{"name":"approved","type":"bool","internalType":"bool"}],"outputs":[],"stateMutability":"nonpayable"},{"type":"function","name":"setBackgroundColor","inputs":[{"name":"_peterTokenId","type":"uint256","internalType":"uint256"},{"name":"_color","type":"string","internalType":"string"}],"outputs":[],"stateMutability":"nonpayable"},{"type":"function","name":"setBodyIndex","inputs":[{"name":"_peterTokenId","type":"uint256","internalType":"uint256"},{"name":"_bodyIndex","type":"uint8","internalType":"uint8"}],"outputs":[],"stateMutability":"nonpayable"},{"type":"function","name":"setFirstSeasonRenderMinter","inputs":[{"name":"_dataContract","type":"address","internalType":"address"}],"outputs":[],"stateMutability":"nonpayable"},{"type":"function","name":"setMainRenderer","inputs":[{"name":"_mainRenderer","type":"address","internalType":"address"}],"outputs":[],"stateMutability":"nonpayable"},{"type":"function","name":"setMarketplace","inputs":[{"name":"_marketplace","type":"address","internalType":"address"}],"outputs":[],"stateMutability":"nonpayable"},{"type":"function","name":"setMaxTraitsToOutput","inputs":[{"name":"_maxTraitsToOutput","type":"uint256","internalType":"uint256"}],"outputs":[],"stateMutability":"nonpayable"},{"type":"function","name":"setPrice","inputs":[{"name":"_priceInWei","type":"uint256","internalType":"uint256"}],"outputs":[],"stateMutability":"nonpayable"},{"type":"function","name":"setSystemAddress","inputs":[{"name":"_systemAddress","type":"address","internalType":"address"}],"outputs":[],"stateMutability":"nonpayable"},{"type":"function","name":"setTokenRenderZ","inputs":[{"name":"_peterTokenId","type":"uint256","internalType":"uint256"},{"name":"_renderZ","type":"bool","internalType":"bool"}],"outputs":[],"stateMutability":"nonpayable"},{"type":"function","name":"setTraitsContract","inputs":[{"name":"_address","type":"address","internalType":"contract PeterTraits"}],"outputs":[],"stateMutability":"nonpayable"},{"type":"function","name":"setZRenderer","inputs":[{"name":"_zRenderer","type":"address","internalType":"address"}],"outputs":[],"stateMutability":"nonpayable"},{"type":"function","name":"supportsInterface","inputs":[{"name":"interfaceId","type":"bytes4","internalType":"bytes4"}],"outputs":[{"name":"","type":"bool","internalType":"bool"}],"stateMutability":"view"},{"type":"function","name":"symbol","inputs":[],"outputs":[{"name":"","type":"string","internalType":"string"}],"stateMutability":"view"},{"type":"function","name":"tbaAddressToTokenId","inputs":[{"name":"","type":"address","internalType":"address"}],"outputs":[{"name":"","type":"uint256","internalType":"uint256"}],"stateMutability":"view"},{"type":"function","name":"tokenByIndex","inputs":[{"name":"index","type":"uint256","internalType":"uint256"}],"outputs":[{"name":"","type":"uint256","internalType":"uint256"}],"stateMutability":"view"},{"type":"function","name":"tokenIdToTBAAccountAddress","inputs":[{"name":"","type":"uint256","internalType":"uint256"}],"outputs":[{"name":"","type":"address","internalType":"address"}],"stateMutability":"view"},{"type":"function","name":"tokenOfOwnerByIndex","inputs":[{"name":"owner","type":"address","internalType":"address"},{"name":"index","type":"uint256","internalType":"uint256"}],"outputs":[{"name":"","type":"uint256","internalType":"uint256"}],"stateMutability":"view"},{"type":"function","name":"tokenURI","inputs":[{"name":"_tokenId","type":"uint256","internalType":"uint256"}],"outputs":[{"name":"","type":"string","internalType":"string"}],"stateMutability":"view"},{"type":"function","name":"totalSupply","inputs":[],"outputs":[{"name":"","type":"uint256","internalType":"uint256"}],"stateMutability":"view"},{"type":"function","name":"traitsContract","inputs":[],"outputs":[{"name":"","type":"address","internalType":"contract PeterTraits"}],"stateMutability":"view"},{"type":"function","name":"transferFrom","inputs":[{"name":"from","type":"address","internalType":"address"},{"name":"to","type":"address","internalType":"address"},{"name":"tokenId","type":"uint256","internalType":"uint256"}],"outputs":[],"stateMutability":"nonpayable"},{"type":"function","name":"transferOwnership","inputs":[{"name":"newOwner","type":"address","internalType":"address"}],"outputs":[],"stateMutability":"payable"},{"type":"function","name":"unequipAccessory","inputs":[{"name":"_peterTokenId","type":"uint256","internalType":"uint256"}],"outputs":[],"stateMutability":"nonpayable"},{"type":"function","name":"unequipAll","inputs":[{"name":"_peterTokenId","type":"uint256","internalType":"uint256"}],"outputs":[],"stateMutability":"nonpayable"},{"type":"function","name":"unequipBottom","inputs":[{"name":"_peterTokenId","type":"uint256","internalType":"uint256"}],"outputs":[],"stateMutability":"nonpayable"},{"type":"function","name":"unequipFace","inputs":[{"name":"_peterTokenId","type":"uint256","internalType":"uint256"}],"outputs":[],"stateMutability":"nonpayable"},{"type":"function","name":"unequipHair","inputs":[{"name":"_peterTokenId","type":"uint256","internalType":"uint256"}],"outputs":[],"stateMutability":"nonpayable"},{"type":"function","name":"unequipHead","inputs":[{"name":"_peterTokenId","type":"uint256","internalType":"uint256"}],"outputs":[],"stateMutability":"nonpayable"},{"type":"function","name":"unequipShoes","inputs":[{"name":"_peterTokenId","type":"uint256","internalType":"uint256"}],"outputs":[],"stateMutability":"nonpayable"},{"type":"function","name":"unequipTop","inputs":[{"name":"_peterTokenId","type":"uint256","internalType":"uint256"}],"outputs":[],"stateMutability":"nonpayable"},{"type":"function","name":"walletOfOwner","inputs":[{"name":"_owner","type":"address","internalType":"address"}],"outputs":[{"name":"","type":"uint256[]","internalType":"uint256[]"}],"stateMutability":"view"},{"type":"function","name":"zRenderer","inputs":[],"outputs":[{"name":"","type":"address","internalType":"contract ZRenderer"}],"stateMutability":"view"},{"type":"event","name":"Approval","inputs":[{"name":"owner","type":"address","indexed":true,"internalType":"address"},{"name":"approved","type":"address","indexed":true,"internalType":"address"},{"name":"tokenId","type":"uint256","indexed":true,"internalType":"uint256"}],"anonymous":false},{"type":"event","name":"ApprovalForAll","inputs":[{"name":"owner","type":"address","indexed":true,"internalType":"address"},{"name":"operator","type":"address","indexed":true,"internalType":"address"},{"name":"approved","type":"bool","indexed":false,"internalType":"bool"}],"anonymous":false},{"type":"event","name":"BackgroundColor","inputs":[{"name":"owner","type":"address","indexed":true,"internalType":"address"},{"name":"tokenId","type":"uint256","indexed":true,"internalType":"uint256"},{"name":"color","type":"string","indexed":false,"internalType":"string"}],"anonymous":false},{"type":"event","name":"BatchMetadataUpdate","inputs":[{"name":"_fromTokenId","type":"uint256","indexed":false,"internalType":"uint256"},{"name":"_toTokenId","type":"uint256","indexed":false,"internalType":"uint256"}],"anonymous":false},{"type":"event","name":"BodyIndex","inputs":[{"name":"owner","type":"address","indexed":true,"internalType":"address"},{"name":"tokenId","type":"uint256","indexed":true,"internalType":"uint256"},{"name":"_bodyIndex","type":"uint8","indexed":false,"internalType":"uint8"}],"anonymous":false},{"type":"event","name":"Equip","inputs":[{"name":"owner","type":"address","indexed":true,"internalType":"address"},{"name":"tokenId","type":"uint256","indexed":true,"internalType":"uint256"},{"name":"traitTokenId","type":"uint256","indexed":true,"internalType":"uint256"},{"name":"traitCategory","type":"string","indexed":false,"internalType":"string"}],"anonymous":false},{"type":"event","name":"EquipAll","inputs":[{"name":"owner","type":"address","indexed":true,"internalType":"address"},{"name":"tokenId","type":"uint256","indexed":true,"internalType":"uint256"}],"anonymous":false},{"type":"event","name":"MetadataUpdate","inputs":[{"name":"_tokenId","type":"uint256","indexed":false,"internalType":"uint256"}],"anonymous":false},{"type":"event","name":"Mint","inputs":[{"name":"owner","type":"address","indexed":true,"internalType":"address"},{"name":"tokenId","type":"uint256","indexed":true,"internalType":"uint256"}],"anonymous":false},{"type":"event","name":"OwnershipHandoverCanceled","inputs":[{"name":"pendingOwner","type":"address","indexed":true,"internalType":"address"}],"anonymous":false},{"type":"event","name":"OwnershipHandoverRequested","inputs":[{"name":"pendingOwner","type":"address","indexed":true,"internalType":"address"}],"anonymous":false},{"type":"event","name":"OwnershipTransferred","inputs":[{"name":"oldOwner","type":"address","indexed":true,"internalType":"address"},{"name":"newOwner","type":"address","indexed":true,"internalType":"address"}],"anonymous":false},{"type":"event","name":"RenderZ","inputs":[{"name":"owner","type":"address","indexed":true,"internalType":"address"},{"name":"tokenId","type":"uint256","indexed":true,"internalType":"uint256"},{"name":"renderZ","type":"bool","indexed":false,"internalType":"bool"}],"anonymous":false},{"type":"event","name":"Transfer","inputs":[{"name":"from","type":"address","indexed":true,"internalType":"address"},{"name":"to","type":"address","indexed":true,"internalType":"address"},{"name":"tokenId","type":"uint256","indexed":true,"internalType":"uint256"}],"anonymous":false},{"type":"event","name":"Unequip","inputs":[{"name":"owner","type":"address","indexed":true,"internalType":"address"},{"name":"tokenId","type":"uint256","indexed":true,"internalType":"uint256"},{"name":"traitCategory","type":"string","indexed":true,"internalType":"string"}],"anonymous":false},{"type":"event","name":"UnequipAll","inputs":[{"name":"owner","type":"address","indexed":true,"internalType":"address"},{"name":"tokenId","type":"uint256","indexed":true,"internalType":"uint256"}],"anonymous":false},{"type":"error","name":"AlreadyInitialized","inputs":[]},{"type":"error","name":"BodyAlreadyExists","inputs":[]},{"type":"error","name":"CantTransfer","inputs":[]},{"type":"error","name":"CantTransferToTBAs","inputs":[]},{"type":"error","name":"FirstSeasonRenderMinterNotSet","inputs":[]},{"type":"error","name":"IncorrectPeterOwner","inputs":[]},{"type":"error","name":"IncorrectTBAOwner","inputs":[]},{"type":"error","name":"IncorrectTraitType","inputs":[]},{"type":"error","name":"InvalidBodyIndex","inputs":[]},{"type":"error","name":"InvalidColor","inputs":[]},{"type":"error","name":"InvalidLevelAmount","inputs":[]},{"type":"error","name":"InvalidSignature","inputs":[]},{"type":"error","name":"NewOwnerIsZeroAddress","inputs":[]},{"type":"error","name":"NoHandoverRequest","inputs":[]},{"type":"error","name":"NonceAlreadyUsed","inputs":[]},{"type":"error","name":"PeterDoesntExist","inputs":[]},{"type":"error","name":"Unauthorized","inputs":[]}],"bytecode":{"object":"0x608060405260636013553480156200001657600080fd5b5060405162006af338038062006af3833981016040819052620000399162000101565b6040518060400160405280600a81526020016914195d195c8815195cdd60b21b815250604051806040016040528060058152602001642822aa22a960d91b81525081600090816200008b9190620001d3565b5060016200009a8282620001d3565b505050620000ae33620000c560201b60201c565b600a805460ff19169115159190911790556200029f565b6001600160a01b0316638b78c6d8198190558060007f8be0079c531659141344cd1fd0a4f28419497f9722a3daafe3b4186f6b6457e08180a350565b6000602082840312156200011457600080fd5b815180151581146200012557600080fd5b9392505050565b634e487b7160e01b600052604160045260246000fd5b600181811c908216806200015757607f821691505b6020821081036200017857634e487b7160e01b600052602260045260246000fd5b50919050565b601f821115620001ce576000816000526020600020601f850160051c81016020861015620001a95750805b601f850160051c820191505b81811015620001ca57828155600101620001b5565b5050505b505050565b81516001600160401b03811115620001ef57620001ef6200012c565b620002078162000200845462000142565b846200017e565b602080601f8311600181146200023f5760008415620002265750858301515b600019600386901b1c1916600185901b178555620001ca565b600085815260208120601f198616915b8281101562000270578886015182559484019460019091019084016200024f565b50858210156200028f5787850151600019600388901b60f8161c191681555b5050505050600190811b01905550565b61684480620002af6000396000f3fe6080604052600436106104aa5760003560e01c806370a082311161026b578063a22cb4651161014f578063d5b55c8b116100c1578063f04e283e11610085578063f04e283e14610f29578063f18dc22d14610f3c578063f2361e2314610f5c578063f2fde38b14610f7c578063f6a0c93214610f8f578063fee81cf414610fc557600080fd5b8063d5b55c8b14610e60578063d68c4f3214610e80578063e140554014610ea0578063e37db3c214610ec0578063e985e9c514610ee057600080fd5b8063b88d4fde11610113578063b88d4fde14610da0578063be928ff614610dc0578063c093afdb14610ded578063c87b56dd14610e0d578063cef80d4a14610e2d578063d35dc66e14610e4057600080fd5b8063a22cb46514610ce5578063a23830ae14610d05578063a4bf9a0014610d33578063abc8c7af14610d60578063b28fbe4014610d8057600080fd5b806393ccba72116101e85780639c762015116101ac5780639c76201514610c3a5780639c7be2f114610c5a5780639f6e463714610c6f578063a035b1fe14610c8f578063a15c561b14610ca5578063a1d6268014610cc557600080fd5b806393ccba7214610b8f57806394cbd9c414610baf57806395d89b4114610bcf578063998cfb6e14610be45780639c05d68d14610c0457600080fd5b80638200ea511161022f5780638200ea5114610ad35780638da5cb5b14610b07578063916c546b14610b2057806391b7f5ed14610b4057806392012f0814610b6057600080fd5b806370a0823114610a4b578063715018a614610a6b57806373ad6c2d14610a735780637557f2dc14610a935780637afe8d3414610ab357600080fd5b80632bd1ca45116103925780634ddb39611161030f5780635eabd84a116102d35780635eabd84a1461096157806360b77b23146109815780636273ca2c146109a15780636352211e146109c157806366704349146109e157806366b89b5a14610a2b57600080fd5b80634ddb3961146108d95780634f6ccce7146108f957806354d1f13d1461091957806358180d351461092157806358a976401461094157600080fd5b8063347bd8f411610356578063347bd8f41461082c57806342842e0e1461084c578063438b63001461086c57806345a10d0f146108995780634a4333a3146108b957600080fd5b80632bd1ca451461078c5780632f745c59146107ac5780633044825b146107cc578063306c7334146107ec57806333d3d9bf1461080c57600080fd5b8063105338e01161042b57806318160ddd116103ef57806318160ddd146106d85780631bdf6218146106f75780631e162a331461072457806323b872dd146107445780632569296214610764578063293ed3f71461076c57600080fd5b8063105338e0146106505780631249c58b1461067057806313ea0ae31461067857806314fe8ff414610698578063172b054d146106b857600080fd5b806307f4e0451161047257806307f4e04514610588578063081812fc146105a8578063095ea7b3146105e05780630c83f9d7146106005780630f1623201461063057600080fd5b806301ffc9a7146104af57806304003bd0146104e45780630447a45e14610524578063062101971461054657806306fdde0314610566575b600080fd5b3480156104bb57600080fd5b506104cf6104ca366004614f4f565b610ff8565b60405190151581526020015b60405180910390f35b3480156104f057600080fd5b506105046104ff366004614f6c565b611009565b604080516001600160a01b039384168152929091166020830152016104db565b34801561053057600080fd5b5061054461053f366004614f85565b611038565b005b34801561055257600080fd5b50610544610561366004614fbc565b6110ba565b34801561057257600080fd5b5061057b6110e4565b6040516104db9190615029565b34801561059457600080fd5b506105446105a3366004615051565b611176565b3480156105b457600080fd5b506105c86105c3366004614f6c565b6111ef565b6040516001600160a01b0390911681526020016104db565b3480156105ec57600080fd5b506105446105fb36600461507d565b611216565b34801561060c57600080fd5b5061062061061b366004614f6c565b61127c565b6040516104db94939291906150a9565b34801561063c57600080fd5b5061054461064b366004614f85565b61143d565b34801561065c57600080fd5b5061054461066b366004614f6c565b6114ae565b610544611526565b34801561068457600080fd5b506016546105c8906001600160a01b031681565b3480156106a457600080fd5b5061057b6106b3366004614f6c565b611532565b3480156106c457600080fd5b506105446106d3366004614fbc565b6117ab565b3480156106e457600080fd5b506008545b6040519081526020016104db565b34801561070357600080fd5b506106e9610712366004614f6c565b601b6020526000908152604090205481565b34801561073057600080fd5b5061054461073f366004614f85565b6117d5565b34801561075057600080fd5b5061054461075f3660046150f3565b611843565b61054461187d565b34801561077857600080fd5b50610544610787366004614f6c565b6118cc565b34801561079857600080fd5b5061057b6107a7366004614f6c565b611903565b3480156107b857600080fd5b506106e96107c736600461507d565b6119c7565b3480156107d857600080fd5b506105446107e7366004614f6c565b611a5d565b3480156107f857600080fd5b5061057b610807366004614f6c565b611ae5565b34801561081857600080fd5b50610544610827366004614f6c565b611b08565b34801561083857600080fd5b50610544610847366004614f6c565b611b15565b34801561085857600080fd5b506105446108673660046150f3565b611b46565b34801561087857600080fd5b5061088c610887366004614fbc565b611b61565b6040516104db9190615134565b3480156108a557600080fd5b506105446108b4366004614f85565b611bf8565b3480156108c557600080fd5b506105446108d4366004615178565b611c6b565b3480156108e557600080fd5b506105446108f4366004614fbc565b611d24565b34801561090557600080fd5b506106e9610914366004614f6c565b611d4e565b610544611de1565b34801561092d57600080fd5b5061054461093c366004614f6c565b611e1d565b34801561094d57600080fd5b5061054461095c366004614fbc565b611e50565b34801561096d57600080fd5b5061054461097c366004614fbc565b611e7a565b34801561098d57600080fd5b5061054461099c366004614f85565b611ea4565b3480156109ad57600080fd5b506105446109bc366004614f6c565b611f16565b3480156109cd57600080fd5b506105c86109dc366004614f6c565b611f9a565b3480156109ed57600080fd5b50610a016109fc366004614f6c565b611ffa565b604080516001600160a01b03948516815260208101939093529216918101919091526060016104db565b348015610a3757600080fd5b506017546105c8906001600160a01b031681565b348015610a5757600080fd5b506106e9610a66366004614fbc565b61209b565b610544612121565b348015610a7f57600080fd5b50610544610a8e366004614fbc565b612133565b348015610a9f57600080fd5b5061057b610aae366004614f6c565b61215d565b348015610abf57600080fd5b50610544610ace366004614f6c565b612428565b348015610adf57600080fd5b506104cf610aee366004614f6c565b6000908152600b60208190526040909120015460ff1690565b348015610b1357600080fd5b50638b78c6d819546105c8565b348015610b2c57600080fd5b5061057b610b3b366004614f6c565b612457565b348015610b4c57600080fd5b50610544610b5b366004614f6c565b61257b565b348015610b6c57600080fd5b50610b80610b7b3660046152de565b612588565b6040516104db939291906153d7565b348015610b9b57600080fd5b50610544610baa36600461541a565b612726565b348015610bbb57600080fd5b50610544610bca366004614f85565b612756565b348015610bdb57600080fd5b5061057b6127c7565b348015610bf057600080fd5b5061088c610bff366004614fbc565b6127d6565b348015610c1057600080fd5b506105c8610c1f366004614f6c565b6014602052600090815260409020546001600160a01b031681565b348015610c4657600080fd5b50610544610c55366004614f6c565b61284c565b348015610c6657600080fd5b50610544612880565b348015610c7b57600080fd5b5061088c610c8a366004614f6c565b6128dc565b348015610c9b57600080fd5b506106e960125481565b348015610cb157600080fd5b506018546105c8906001600160a01b031681565b348015610cd157600080fd5b5061057b610ce0366004614f6c565b612900565b348015610cf157600080fd5b50610544610d003660046154b6565b612930565b348015610d1157600080fd5b50610d25610d203660046152de565b61296a565b6040516104db9291906154e2565b348015610d3f57600080fd5b506106e9610d4e366004614fbc565b60156020526000908152604090205481565b348015610d6c57600080fd5b506010546105c8906001600160a01b031681565b348015610d8c57600080fd5b5061057b610d9b366004614f6c565b6129d5565b348015610dac57600080fd5b50610544610dbb366004615510565b612c55565b348015610dcc57600080fd5b50610de0610ddb366004614f6c565b612c8d565b6040516104db919061557b565b348015610df957600080fd5b50600f546105c8906001600160a01b031681565b348015610e1957600080fd5b5061057b610e28366004614f6c565b612e33565b610544610e3b366004615674565b612e74565b348015610e4c57600080fd5b50610544610e5b3660046156f4565b612f7f565b348015610e6c57600080fd5b50610544610e7b366004614f6c565b612fe1565b348015610e8c57600080fd5b50610544610e9b366004615732565b613013565b348015610eac57600080fd5b50610544610ebb366004615778565b613206565b348015610ecc57600080fd5b5061057b610edb36600461579b565b6132a9565b348015610eec57600080fd5b506104cf610efb3660046157cf565b6001600160a01b03918216600090815260056020908152604080832093909416825291909152205460ff1690565b610544610f37366004614fbc565b61355b565b348015610f4857600080fd5b50610544610f57366004614f85565b61359b565b348015610f6857600080fd5b50610544610f77366004615808565b61360b565b610544610f8a366004614fbc565b613658565b348015610f9b57600080fd5b506105c8610faa366004614f6c565b6000908152601460205260409020546001600160a01b031690565b348015610fd157600080fd5b506106e9610fe0366004614fbc565b63389a75e1600c908152600091909152602090205490565b60006110038261367f565b92915050565b60008061101583611f9a565b6000938452601460205260409093205492936001600160a01b0390931692915050565b61104282826136a4565b61104d816004613763565b6000828152600b60205260409020600301819055808261106c81611f9a565b6001600160a01b03166000805160206162ea8339815191526040516110ae906020808252600990820152684163636573736f727960b81b604082015260600190565b60405180910390a45050565b6110c2613865565b601a80546001600160a01b0319166001600160a01b0392909216919091179055565b6060600080546110f39061588d565b80601f016020809104026020016040519081016040528092919081815260200182805461111f9061588d565b801561116c5780601f106111415761010080835404028352916020019161116c565b820191906000526020600020905b81548152906001019060200180831161114f57829003601f168201915b5050505050905090565b61117f82613880565b6000828152600b6020819052604090912001805460ff1916821515179055816111a781611f9a565b6001600160a01b03167f0b42132106437554485bc84e473475fc8313b019bfc026285cf6ed57639803b8836040516111e3911515815260200190565b60405180910390a35050565b60006111fa826138ba565b506000908152600460205260409020546001600160a01b031690565b6000818152601b60205260408120805490916001918391906112399084906158dd565b90915550506001818101805491820181556000908152602090200180546001600160a01b0319166001600160a01b0385161790556112778383613919565b505050565b600e602052600090815260409020805460018201805491929161129e9061588d565b80601f01602080910402602001604051908101604052809291908181526020018280546112ca9061588d565b80156113175780601f106112ec57610100808354040283529160200191611317565b820191906000526020600020905b8154815290600101906020018083116112fa57829003601f168201915b50505050509080600201805461132c9061588d565b80601f01602080910402602001604051908101604052809291908181526020018280546113589061588d565b80156113a55780601f1061137a576101008083540402835291602001916113a5565b820191906000526020600020905b81548152906001019060200180831161138857829003601f168201915b5050505050908060030180546113ba9061588d565b80601f01602080910402602001604051908101604052809291908181526020018280546113e69061588d565b80156114335780601f1061140857610100808354040283529160200191611433565b820191906000526020600020905b81548152906001019060200180831161141657829003601f168201915b5050505050905084565b61144782826136a4565b611452816003613763565b6000828152600b60205260409020600201819055808261147181611f9a565b6001600160a01b03166000805160206162ea8339815191526040516110ae906020808252600490820152634661636560e01b604082015260600190565b6114b781613880565b6000818152600b60205260408082206001019190915551632430b4b960e11b81526004015b6040518091039020816114ee83611f9a565b6001600160a01b03167fe428b1839105819dce5e635ac7e16ed2a43028f6e294bab8655e29acb5dc60bb60405160405180910390a450565b6115306004613987565b565b6060600061153f836128dc565b905060006040518060400160405280601b81526020017f3c7376672076696577426f783d223020302031353020313530223e000000000081525090506000604051806040016040528060068152602001651e17b9bb339f60d11b815250905060606000600f60009054906101000a90046001600160a01b03166001600160a01b0316635c1ef2566040518163ffffffff1660e01b8152600401600060405180830381865afa1580156115f5573d6000803e3d6000fd5b505050506040513d6000823e601f3d908101601f1916820160405261161d9190810190615940565b9050600060135486511061163357601354611636565b85515b9050604051806105400160405280610505815260200161630a610505913982604051602001611666929190615974565b604051602081830303815290604052925060005b8181101561174b57600f5487516000916001600160a01b03169063c7791531908a90859081106116ac576116ac6159cb565b60200260200101516040518263ffffffff1660e01b81526004016116d291815260200190565b600060405180830381865afa1580156116ef573d6000803e3d6000fd5b505050506040513d6000823e601f3d908101601f191682016040526117179190810190615940565b90508487828860405160200161173094939291906159e1565b60408051601f1981840301815291905294505060010161167a565b506013548651111561177e5782858560405160200161176c93929190615a38565b60405160208183030381529060405292505b8260405160200161178f9190615b53565b60408051601f1981840301815291905298975050505050505050565b6117b3613865565b601880546001600160a01b0319166001600160a01b0392909216919091179055565b6117df82826136a4565b6117ea816001613763565b6000828152600b60205260409020819055808261180681611f9a565b6001600160a01b03166000805160206162ea8339815191526040516110ae906020808252600490820152631219585960e21b604082015260600190565b61184d3382613ce9565b6118725760405162461bcd60e51b815260040161186990615b7b565b60405180910390fd5b611277838383613d68565b60006202a3006001600160401b03164201905063389a75e1600c5233600052806020600c2055337fdbf36a107da19e49527a7176a1babf963b4b0ff8cde35ee35d6cd8f1f9ac7e1d600080a250565b6118d581613880565b6000818152600b60205260408082206003019190915551684163636573736f727960b81b81526009016114dc565b6060806060600061191385612c8d565b905061191e81612588565b50600f5460405163bb12d21d60e01b81529195506001600160a01b0316915063bb12d21d9061195190849060040161557b565b600060405180830381865afa15801561196e573d6000803e3d6000fd5b505050506040513d6000823e601f3d908101601f191682016040526119969190810190615bc9565b506040519093506119ae915084908490602001615c67565b6040516020818303038152906040529350505050919050565b60006119d28361209b565b8210611a345760405162461bcd60e51b815260206004820152602b60248201527f455243373231456e756d657261626c653a206f776e657220696e646578206f7560448201526a74206f6620626f756e647360a81b6064820152608401611869565b506001600160a01b03919091166000908152600660209081526040808320938352929052205490565b611a6681613880565b6000818152600b602052604081208181556001810182905560028101829055600381018290556004810182905560058101829055600681019190915581611aac81611f9a565b6001600160a01b03167f46078a2cd4c69c3b4a27bdc69fdfe03d442ebcf405f1a68e9b5df6bc3e24429760405160405180910390a35050565b6060806000611af384612c8d565b9050611afe81612588565b5095945050505050565b611b10613865565b601355565b611b1e81613880565b6000818152600b60205260408082206004019190915551620546f760ec1b81526003016114dc565b61127783838360405180602001604052806000815250612c55565b60606000611b6e8361209b565b90506000816001600160401b03811115611b8a57611b8a6151cd565b604051908082528060200260200182016040528015611bb3578160200160208202803683370190505b50905060005b82811015611bf057611bcb85826119c7565b828281518110611bdd57611bdd6159cb565b6020908102919091010152600101611bb9565b509392505050565b611c0282826136a4565b611c0d816006613763565b6000828152600b602052604090206005018190558082611c2c81611f9a565b6001600160a01b03166000805160206162ea8339815191526040516110ae90602080825260069082015265426f74746f6d60d01b604082015260600190565b8615611c7b57611c7b88886117d5565b8515611c8b57611c8b8887612756565b8415611c9b57611c9b888661143d565b8315611cab57611cab8885611038565b8215611cbb57611cbb888461359b565b8115611ccb57611ccb8883611bf8565b8015611cdb57611cdb8882611ea4565b87611ce589611f9a565b6001600160a01b03167f56680590212b09eb4b72a2eba8801b037ec046dfc754538e924f5bb6a8c4db6c60405160405180910390a35050505050505050565b611d2c613865565b601780546001600160a01b0319166001600160a01b0392909216919091179055565b6000611d5960085490565b8210611dbc5760405162461bcd60e51b815260206004820152602c60248201527f455243373231456e756d657261626c653a20676c6f62616c20696e646578206f60448201526b7574206f6620626f756e647360a01b6064820152608401611869565b60088281548110611dcf57611dcf6159cb565b90600052602060002001549050919050565b63389a75e1600c523360005260006020600c2055337ffa7b8eab7da67f412cc9575ed43464468f9bfbae89d1675917346ca6d8fe3c92600080a2565b611e2681613880565b6000818152600b602052604080822060060191909155516453686f657360d81b81526005016114dc565b611e58613865565b601680546001600160a01b0319166001600160a01b0392909216919091179055565b611e82613865565b600f80546001600160a01b0319166001600160a01b0392909216919091179055565b611eae82826136a4565b611eb9816007613763565b6000828152600b602052604090206006018190558082611ed881611f9a565b6001600160a01b03166000805160206162ea8339815191526040516110ae9060208082526005908201526453686f657360d81b604082015260600190565b6000818152601460205260409081902054600f5491516340d097c360e01b81526001600160a01b03918216600482018190529291909116906340d097c3906024016020604051808303816000875af1158015611f76573d6000803e3d6000fd5b505050506040513d601f19601f820116820180604052508101906112779190615c96565b6000818152600260205260408120546001600160a01b0316806110035760405162461bcd60e51b8152602060048201526018602482015277115490cdcc8c4e881a5b9d985b1a59081d1bdad95b88125160421b6044820152606401611869565b600f546040516331a9108f60e11b815260048101839052600091829182916001600160a01b031690636352211e90602401602060405180830381865afa158015612048573d6000803e3d6000fd5b505050506040513d601f19601f8201168201806040525081019061206c9190615caf565b6001600160a01b038116600090815260156020526040902054909350915061209382611f9a565b929491935050565b60006001600160a01b0382166121055760405162461bcd60e51b815260206004820152602960248201527f4552433732313a2061646472657373207a65726f206973206e6f7420612076616044820152683634b21037bbb732b960b91b6064820152608401611869565b506001600160a01b031660009081526003602052604090205490565b612129613865565b6115306000613f0f565b61213b613865565b601080546001600160a01b0319166001600160a01b0392909216919091179055565b60608060608060608060608060606121966040518060800160405280606081526020016060815260200160608152602001600081525090565b60006121a18c612c8d565b90506121ac81612588565b600f5460405163bb12d21d60e01b8152939d50919a5095506001600160a01b03169063bb12d21d906121e290849060040161557b565b600060405180830381865afa1580156121ff573d6000803e3d6000fd5b505050506040513d6000823e601f3d908101601f191682016040526122279190810190615bc9565b604051929b5090985095506122429085908790602001615ccc565b60405160208183030381529060405292508787604051602001612266929190615c67565b60408051601f19818403018152919052610140820151835295506122898c6128dc565b51606083015261012081015160ff166000908152600e6020526040902060010180546122b49061588d565b80601f01602080910402602001604051908101604052809291908181526020018280546122e09061588d565b801561232d5780601f106123025761010080835404028352916020019161232d565b820191906000526020600020905b81548152906001019060200180831161231057829003601f168201915b505050506020808501929092525060008d8152600b9182905260409020015460ff1661237357604051806040016040528060028152602001610c9160f21b81525061238f565b604051806040016040528060028152602001610cd160f21b8152505b60408084019190915260185490516332d01b2560e21b81526001600160a01b039091169063cb406c94906123d3908f908e9089908f908c908e908b90600401615d90565b600060405180830381865afa1580156123f0573d6000803e3d6000fd5b505050506040513d6000823e601f3d908101601f191682016040526124189190810190615940565b9c9b505050505050505050505050565b61243181613880565b6000818152600b60205260408082209190915551631219585960e21b81526004016114dc565b6000818152600e602052604081206002018054606092916124fe9161247b9061588d565b80601f01602080910402602001604051908101604052809291908181526020018280546124a79061588d565b80156124f45780601f106124c9576101008083540402835291602001916124f4565b820191906000526020600020905b8154815290600101906020018083116124d757829003601f168201915b50505050506132a9565b6017546040516335b07b7960e11b81529192506001600160a01b031690636b60f6f29061252f908490600401615029565b600060405180830381865afa15801561254c573d6000803e3d6000fd5b505050506040513d6000823e601f3d908101601f191682016040526125749190810190615940565b9392505050565b612583613865565b601255565b606080606061259e84610120015160ff16612457565b600e600086610120015160ff16815260200190815260200160002060030161268d60405180604001604052806009815260200168426f6479205479706560b81b815250600e600089610120015160ff168152602001908152602001600020600101805461260a9061588d565b80601f01602080910402602001604051908101604052809291908181526020018280546126369061588d565b80156126835780601f1061265857610100808354040283529160200191612683565b820191906000526020600020905b81548152906001019060200180831161266657829003601f168201915b5050505050613f4d565b8180546126999061588d565b80601f01602080910402602001604051908101604052809291908181526020018280546126c59061588d565b80156127125780601f106126e757610100808354040283529160200191612712565b820191906000526020600020905b8154815290600101906020018083116126f557829003601f168201915b505050505091509250925092509193909250565b6127368a8a8a8a8a8a8a8a611c6b565b6127408a83613206565b61274a8a82613013565b50505050505050505050565b61276082826136a4565b61276b816002613763565b6000828152600b60205260409020600101819055808261278a81611f9a565b6001600160a01b03166000805160206162ea8339815191526040516110ae906020808252600490820152632430b4b960e11b604082015260600190565b6060600180546110f39061588d565b600f5460405162438b6360e81b81526001600160a01b03838116600483015260609260009291169063438b630090602401600060405180830381865afa158015612824573d6000803e3d6000fd5b505050506040513d6000823e601f3d908101601f191682016040526125749190810190615e19565b61285581613880565b6000818152600b6020526040808220600501919091555165426f74746f6d60d01b81526006016114dc565b600a5460ff16156115305760005b60648110156128a75761289f611526565b60010161288e565b506128d160016040518060400160405280600681526020016533333333333360d11b815250613013565b611530600180611176565b6000818152601460205260409020546060906001600160a01b0316612574816127d6565b6060600061290d83612c8d565b905080610160015161292757612922836129d5565b612574565b6125748361215d565b60405162461bcd60e51b815260206004820152600f60248201526e139bdd081a5b5c1b195b595b9d1959608a1b6044820152606401611869565b60608061297e83610120015160ff16612457565b6129cc60405180604001604052806009815260200168426f6479205479706560b81b815250600e600087610120015160ff168152602001908152602001600020600101805461260a9061588d565b91509150915091565b60608060608060608060006129e988612c8d565b90506129f48161296a565b600f54604051631be5857160e31b81529298509096506001600160a01b03169063df2c2b8890612a2890849060040161557b565b600060405180830381865afa158015612a45573d6000803e3d6000fd5b505050506040513d6000823e601f3d908101601f19168201604052612a6d9190810190615ebe565b9094509250612a7b88611532565b9150612aa86040518060800160405280606081526020016060815260200160608152602001600081525090565b6101408201518152612ab9896128dc565b51606082015261012082015160ff166000908152600e602052604090206001018054612ae49061588d565b80601f0160208091040260200160405190810160405280929190818152602001828054612b109061588d565b8015612b5d5780601f10612b3257610100808354040283529160200191612b5d565b820191906000526020600020905b815481529060010190602001808311612b4057829003601f168201915b505050506020808401929092525060008a8152600b9182905260409020015460ff16612ba357604051806040016040528060028152602001610c9160f21b815250612bbf565b604051806040016040528060028152602001610cd160f21b8152505b6040808301919091526017549051634e2fa37760e11b81526001600160a01b0390911690639c5f46ee90612c03908c908b908b908b908b908b908a90600401615d90565b600060405180830381865afa158015612c20573d6000803e3d6000fd5b505050506040513d6000823e601f3d908101601f19168201604052612c489190810190615940565b9998505050505050505050565b612c5f3383613ce9565b612c7b5760405162461bcd60e51b815260040161186990615b7b565b612c8784848484613f79565b50505050565b612cfc60405180610180016040528060008152602001600081526020016000815260200160008152602001600081526020016000815260200160008152602001600063ffffffff16815260200160008152602001600060ff168152602001606081526020016000151581525090565b6000828152600b60209081526040808320815161018081018352815481526001820154938101939093526002810154918301919091526003810154606083015260048101546080830152600581015460a0830152600681015460c0830152600781015463ffffffff1660e08301526008810154610100830152600981015460ff16610120830152600a8101805461014084019190612d999061588d565b80601f0160208091040260200160405190810160405280929190818152602001828054612dc59061588d565b8015612e125780601f10612de757610100808354040283529160200191612e12565b820191906000526020600020905b815481529060010190602001808311612df557829003601f168201915b5050509183525050600b919091015460ff1615156020909101529392505050565b6000818152600260205260409020546060906001600160a01b0316612e6b57604051631a65aaab60e31b815260040160405180910390fd5b61100382612900565b60048560ff161080612e89575060078560ff16115b15612ea7576040516367af3f5360e01b815260040160405180910390fd5b612edc338585604051602001612ebf93929190615f17565b604051602081830303815290604052805190602001208383613fac565b612ef957604051638baa579f60e01b815260040160405180910390fd5b60198484604051612f0b929190615f43565b9081526040519081900360200190205460ff1615612f3b57604051623f613760e71b815260040160405180910390fd5b612f4485613987565b600160198585604051612f58929190615f43565b908152604051908190036020019020805491151560ff199092169190911790555050505050565b6000838152601b6020526040812080549091600191839190612fa29084906158dd565b90915550506001818101805491820181556000908152602090200180546001600160a01b0319166001600160a01b038516179055612c873384846140be565b612fea81613880565b6000818152600b60205260408082206002019190915551634661636560e01b81526004016114dc565b61301c82613880565b8051600003613029575050565b8051819060061461304d57604051631cf7e9c560e01b815260040160405180910390fd5b60005b600681101561319a57603060f81b828281518110613070576130706159cb565b01602001516001600160f81b031916108015906130b15750603960f81b82828151811061309f5761309f6159cb565b01602001516001600160f81b03191611155b1580156131135750604160f81b8282815181106130d0576130d06159cb565b01602001516001600160f81b031916108015906131115750604660f81b8282815181106130ff576130ff6159cb565b01602001516001600160f81b03191611155b155b80156131745750606160f81b828281518110613131576131316159cb565b01602001516001600160f81b031916108015906131725750606660f81b828281518110613160576131606159cb565b01602001516001600160f81b03191611155b155b1561319257604051631cf7e9c560e01b815260040160405180910390fd5b600101613050565b506000838152600b60205260409020600a016131b68382615f9b565b50826131c184611f9a565b6001600160a01b03167f2e34f8c0f6052b66319b4a5df14eac164c6af8a0b37f612d4304a777e1ae7a3d846040516131f99190615029565b60405180910390a3505050565b61320f82613880565b60038160ff161115613234576040516329ba348d60e11b815260040160405180910390fd5b60ff8116156132a5576000828152600b60205260409020600901805460ff191660ff83161790558161326581611f9a565b60405160ff841681526001600160a01b0391909116907f454db5768a3f8187a5dd5e9cca100cf699d74d8a03f793d16da3932cdf34d358906020016111e3565b5050565b805160609080158015906132c557506132c3600582616070565b155b6133115760405162461bcd60e51b815260206004820152601960248201527f496e76616c696420626f6479206279746573206c656e677468000000000000006044820152606401611869565b604080516111948082526111c082019092526000916020820181803683370190505090506000613342600584616084565b905060005b8181101561355157600061335c826005616098565b90506000878281518110613372576133726159cb565b016020015160f81c905060008861338a8460016158dd565b8151811061339a5761339a6159cb565b016020015160f81c9050600060ff83166133b583601e616098565b6133bf91906158dd565b6133ca906005616098565b90508984815181106133de576133de6159cb565b602001015160f81c60f81b8782815181106133fb576133fb6159cb565b60200101906001600160f81b031916908160001a905350898460010181518110613427576134276159cb565b602001015160f81c60f81b878260010181518110613447576134476159cb565b60200101906001600160f81b031916908160001a905350898460020181518110613473576134736159cb565b602001015160f81c60f81b878260020181518110613493576134936159cb565b60200101906001600160f81b031916908160001a9053508984600301815181106134bf576134bf6159cb565b602001015160f81c60f81b8782600301815181106134df576134df6159cb565b60200101906001600160f81b031916908160001a90535089846004018151811061350b5761350b6159cb565b602001015160f81c60f81b87826004018151811061352b5761352b6159cb565b60200101906001600160f81b031916908160001a90535050505050806001019050613347565b5090949350505050565b613563613865565b63389a75e1600c52806000526020600c20805442111561358b57636f5e88186000526004601cfd5b6000905561359881613f0f565b50565b6135a582826136a4565b6135b0816005613763565b6000828152600b6020526040902060040181905580826135cf81611f9a565b6001600160a01b03166000805160206162ea8339815191526040516110ae906020808252600390820152620546f760ec1b604082015260600190565b613613613865565b6000848152600e60205260409020848155600181016136328582615f9b565b50600281016136418482615f9b565b50600381016136508382615f9b565b505050505050565b613660613865565b8060601b61367657637448fbae6000526004601cfd5b61359881613f0f565b60006001600160e01b0319821663780e9d6360e01b1480611003575061100382614184565b6136ad82613880565b60008281526014602052604080822054600f5491516331a9108f60e11b8152600481018590526001600160a01b0391821693929190911690636352211e90602401602060405180830381865afa15801561370b573d6000803e3d6000fd5b505050506040513d601f19601f8201168201806040525081019061372f9190615caf565b9050816001600160a01b0316816001600160a01b031614612c875760405163e6ca793160e01b815260040160405180910390fd5b600f5460405163e8a1268d60e01b8152600481018490526000916001600160a01b03169063e8a1268d90602401602060405180830381865afa1580156137ad573d6000803e3d6000fd5b505050506040513d601f19601f820116820180604052508101906137d191906160af565b90508160078111156137e5576137e56160d0565b6040516020016137f791815260200190565b6040516020818303038152906040528051906020012081600781111561381f5761381f6160d0565b60405160200161383191815260200190565b604051602081830303815290604052805190602001201461127757604051633e54c6fb60e11b815260040160405180910390fd5b638b78c6d819543314611530576382b429006000526004601cfd5b61388981611f9a565b6001600160a01b0316336001600160a01b031614613598576040516324adc17160e11b815260040160405180910390fd5b6000818152600260205260409020546001600160a01b03166135985760405162461bcd60e51b8152602060048201526018602482015277115490cdcc8c4e881a5b9d985b1a59081d1bdad95b88125160421b6044820152606401611869565b600081815260046020526040902080546001600160a01b0319166001600160a01b038416908117909155819061394e82611f9a565b6001600160a01b03167f8c5be1e5ebec7d5bd14f71427d1e84f3dd0314c0f7b2291e5b200ac8c7c3b92560405160405180910390a45050565b6016546001600160a01b03166139b057604051633390ca8960e21b815260040160405180910390fd5b60006011600081546139c1906160e6565b918290555090506139d233826141d4565b604051638a54c52f60e01b81527355266d75d1a14e4572138116af39863ed6596e7f600482015260006024820181905262014a34604483015230606483015260848201839052906f6551c19487814612e58fe0681377575890638a54c52f9060a4016020604051808303816000875af1158015613a53573d6000803e3d6000fd5b505050506040513d601f19601f82011682018060405250810190613a779190615caf565b600083815260146020908152604080832080546001600160a01b0319166001600160a01b038616908117909155808452601590925291829020859055905163189acdbd60e31b81527341c8f39463a868d3a88af00cd0fe7102f30e44ec60048201529192509063c4d66de890602401600060405180830381600087803b158015613b0057600080fd5b505af1158015613b14573d6000803e3d6000fd5b50506016546040516358a2727360e01b81526001600160a01b03858116600483015260ff881660248301526000945090911691506358a27273906044016000604051808303816000875af1158015613b70573d6000803e3d6000fd5b505050506040513d6000823e601f3d908101601f19168201604052613b989190810190615e19565b6000848152600b6020526040812060088101869055825192935091839190613bc257613bc26159cb565b6020026020010151816006018190555081600181518110613be557613be56159cb565b6020026020010151816005018190555081600281518110613c0857613c086159cb565b6020026020010151816004018190555081600381518110613c2b57613c2b6159cb565b6020908102919091018101516001830155600b8201805460ff19169055604080518083018790528151808203840181529082019091528051910120613c7290600490616070565b60098201805460ff191660ff929092169190911790556040805180820190915260068152650c110d914e5160d21b6020820152600a820190613cb49082615f9b565b50604051849033907f0f6798a560793a54c3bcfe86a93cde1e73087d944c0ea20544137d412139688590600090a35050505050565b600080613cf583611f9a565b9050806001600160a01b0316846001600160a01b03161480613d3c57506001600160a01b0380821660009081526005602090815260408083209388168352929052205460ff165b80613d605750836001600160a01b0316613d55846111ef565b6001600160a01b0316145b949350505050565b826001600160a01b0316613d7b82611f9a565b6001600160a01b031614613ddf5760405162461bcd60e51b815260206004820152602560248201527f4552433732313a207472616e736665722066726f6d20696e636f72726563742060448201526437bbb732b960d91b6064820152608401611869565b6001600160a01b038216613e415760405162461bcd60e51b8152602060048201526024808201527f4552433732313a207472616e7366657220746f20746865207a65726f206164646044820152637265737360e01b6064820152608401611869565b613e4c838383614322565b613e57600082613919565b6001600160a01b0383166000908152600360205260408120805460019290613e809084906160ff565b90915550506001600160a01b0382166000908152600360205260408120805460019290613eae9084906158dd565b909155505060008181526002602052604080822080546001600160a01b0319166001600160a01b0386811691821790925591518493918716917fddf252ad1be2c89b69c2b068fc378daa952ba7f163c4a11628f55a4df523b3ef91a4505050565b638b78c6d81980546001600160a01b039092169182907f8be0079c531659141344cd1fd0a4f28419497f9722a3daafe3b4186f6b6457e0600080a355565b60608282604051602001613f62929190616112565b604051602081830303815290604052905092915050565b613f84848484613d68565b613f908484848461473a565b612c875760405162461bcd60e51b815260040161186990616183565b601a546000906001600160a01b03166140005760405162461bcd60e51b81526020600482015260166024820152754d697373696e672073797374656d206164647265737360501b6044820152606401611869565b6000614059856040517f19457468657265756d205369676e6564204d6573736167653a0a3332000000006020820152603c8101829052600090605c01604051602081830303815290604052805190602001209050919050565b601a54604080516020601f88018190048102820181019092528681529293506001600160a01b03909116916140ab918790879081908401838280828437600092019190915250869392505061483b9050565b6001600160a01b03161495945050505050565b816001600160a01b0316836001600160a01b03160361411f5760405162461bcd60e51b815260206004820152601960248201527f4552433732313a20617070726f766520746f2063616c6c6572000000000000006044820152606401611869565b6001600160a01b03838116600081815260056020908152604080832094871680845294825291829020805460ff191686151590811790915591519182527f17307eab39ab6107e8899845ad3d59bd9653f200f220920489ca2b5937696c3191016131f9565b60006001600160e01b031982166380ac58cd60e01b14806141b557506001600160e01b03198216635b5e139f60e01b145b8061100357506301ffc9a760e01b6001600160e01b0319831614611003565b6001600160a01b03821661422a5760405162461bcd60e51b815260206004820181905260248201527f4552433732313a206d696e7420746f20746865207a65726f20616464726573736044820152606401611869565b6000818152600260205260409020546001600160a01b03161561428f5760405162461bcd60e51b815260206004820152601c60248201527f4552433732313a20746f6b656e20616c7265616479206d696e746564000000006044820152606401611869565b61429b60008383614322565b6001600160a01b03821660009081526003602052604081208054600192906142c49084906158dd565b909155505060008181526002602052604080822080546001600160a01b0319166001600160a01b03861690811790915590518392907fddf252ad1be2c89b69c2b068fc378daa952ba7f163c4a11628f55a4df523b3ef908290a45050565b6001600160a01b0382166000908152601560205260409020541561435957604051639a42da2960e01b815260040160405180910390fd5b601054604051638b32238360e01b8152600481018390526000916001600160a01b031690638b32238390602401608060405180830381865afa1580156143a3573d6000803e3d6000fd5b505050506040513d601f19601f820116820180604052508101906143c791906161d5565b5090925050506001600160a01b03811615614407576010546001600160a01b031633146144075760405163bf646b0f60e01b815260040160405180910390fd5b60105460405163644ec52760e01b8152600481018490526001600160a01b039091169063644ec52790602401600060405180830381600087803b15801561444d57600080fd5b505af1158015614461573d6000803e3d6000fd5b5050601054604051631e92beb560e31b8152600481018690526001600160a01b038781166024830152909116925063f495f5a89150604401600060405180830381600087803b1580156144b357600080fd5b505af11580156144c7573d6000803e3d6000fd5b5050600f5460008581526014602052604080822054905162438b6360e81b81526001600160a01b039182166004820152919450909116915063438b630090602401600060405180830381865afa158015614525573d6000803e3d6000fd5b505050506040513d6000823e601f3d908101601f1916820160405261454d9190810190615e19565b905060005b815181101561471e57600082828151811061456f5761456f6159cb565b6020908102919091010151601054604051632e1d274f60e01b8152600481018390529192506001600160a01b031690632e1d274f90602401600060405180830381600087803b1580156145c157600080fd5b505af11580156145d5573d6000803e3d6000fd5b5050505060006145e487611b61565b9050600081516001600160401b03811115614601576146016151cd565b60405190808252806020026020018201604052801561462a578160200160208202803683370190505b50905060005b82518110156146ab576014600084838151811061464f5761464f6159cb565b6020026020010151815260200190815260200160002060009054906101000a90046001600160a01b031682828151811061468b5761468b6159cb565b6001600160a01b0390921660209283029190910190910152600101614630565b50601054604051632333520b60e11b81526001600160a01b0390911690634666a416906146de908690859060040161622a565b600060405180830381600087803b1580156146f857600080fd5b505af115801561470c573d6000803e3d6000fd5b50505050505050806001019050614552565b5061472883614857565b614733858585614975565b5050505050565b60006001600160a01b0384163b1561483057604051630a85bd0160e11b81526001600160a01b0385169063150b7a029061477e903390899088908890600401616283565b6020604051808303816000875af19250505080156147b9575060408051601f3d908101601f191682019092526147b6918101906162b6565b60015b614816573d8080156147e7576040519150601f19603f3d011682016040523d82523d6000602084013e6147ec565b606091505b50805160000361480e5760405162461bcd60e51b815260040161186990616183565b805181602001fd5b6001600160e01b031916630a85bd0160e11b149050613d60565b506001949350505050565b600080600061484a8585614a2d565b91509150611bf081614a9b565b6000818152601b60209081526040808320815180830183528154815260018201805484518187028101870190955280855291949293858401939092908301828280156148cc57602002820191906000526020600020905b81546001600160a01b031681526001909101906020018083116148ae575b505050505081525050905060005b81602001515181101561495557601054602083015180516001600160a01b03909216918390811061490d5761490d6159cb565b60200260200101516001600160a01b0316031561494d5761494d338360200151838151811061493e5761493e6159cb565b602002602001015160006140be565b6001016148da565b506000828152601b6020526040812081815590612c876001830182614f07565b6001600160a01b0383166149d0576149cb81600880546000838152600960205260408120829055600182018355919091527ff3f7a9fe364faab93b216da50a3214154f22a0a2b415b23a84c8169e8b636ee30155565b6149f3565b816001600160a01b0316836001600160a01b0316146149f3576149f38382614c51565b6001600160a01b038216614a0a5761127781614cee565b826001600160a01b0316826001600160a01b031614611277576112778282614d9d565b6000808251604103614a635760208301516040840151606085015160001a614a5787828585614de1565b94509450505050614a94565b8251604003614a8c5760208301516040840151614a81868383614ece565b935093505050614a94565b506000905060025b9250929050565b6000816004811115614aaf57614aaf6160d0565b03614ab75750565b6001816004811115614acb57614acb6160d0565b03614b185760405162461bcd60e51b815260206004820152601860248201527f45434453413a20696e76616c6964207369676e617475726500000000000000006044820152606401611869565b6002816004811115614b2c57614b2c6160d0565b03614b795760405162461bcd60e51b815260206004820152601f60248201527f45434453413a20696e76616c6964207369676e6174757265206c656e677468006044820152606401611869565b6003816004811115614b8d57614b8d6160d0565b03614be55760405162461bcd60e51b815260206004820152602260248201527f45434453413a20696e76616c6964207369676e6174757265202773272076616c604482015261756560f01b6064820152608401611869565b6004816004811115614bf957614bf96160d0565b036135985760405162461bcd60e51b815260206004820152602260248201527f45434453413a20696e76616c6964207369676e6174757265202776272076616c604482015261756560f01b6064820152608401611869565b60006001614c5e8461209b565b614c6891906160ff565b600083815260076020526040902054909150808214614cbb576001600160a01b03841660009081526006602090815260408083208584528252808320548484528184208190558352600790915290208190555b5060009182526007602090815260408084208490556001600160a01b039094168352600681528383209183525290812055565b600854600090614d00906001906160ff565b60008381526009602052604081205460088054939450909284908110614d2857614d286159cb565b906000526020600020015490508060088381548110614d4957614d496159cb565b6000918252602080832090910192909255828152600990915260408082208490558582528120556008805480614d8157614d816162d3565b6001900381819060005260206000200160009055905550505050565b6000614da88361209b565b6001600160a01b039093166000908152600660209081526040808320868452825280832085905593825260079052919091209190915550565b6000807f7fffffffffffffffffffffffffffffff5d576e7357a4501ddfe92f46681b20a0831115614e185750600090506003614ec5565b8460ff16601b14158015614e3057508460ff16601c14155b15614e415750600090506004614ec5565b6040805160008082526020820180845289905260ff881692820192909252606081018690526080810185905260019060a0016020604051602081039080840390855afa158015614e95573d6000803e3d6000fd5b5050604051601f1901519150506001600160a01b038116614ebe57600060019250925050614ec5565b9150600090505b94509492505050565b6000806001600160ff1b03831681614eeb60ff86901c601b6158dd565b9050614ef987828885614de1565b935093505050935093915050565b508054600082559060005260206000209081019061359891905b80821115614f355760008155600101614f21565b5090565b6001600160e01b03198116811461359857600080fd5b600060208284031215614f6157600080fd5b813561257481614f39565b600060208284031215614f7e57600080fd5b5035919050565b60008060408385031215614f9857600080fd5b50508035926020909101359150565b6001600160a01b038116811461359857600080fd5b600060208284031215614fce57600080fd5b813561257481614fa7565b60005b83811015614ff4578181015183820152602001614fdc565b50506000910152565b60008151808452615015816020860160208601614fd9565b601f01601f19169290920160200192915050565b6020815260006125746020830184614ffd565b8035801515811461504c57600080fd5b919050565b6000806040838503121561506457600080fd5b823591506150746020840161503c565b90509250929050565b6000806040838503121561509057600080fd5b823561509b81614fa7565b946020939093013593505050565b8481526080602082015260006150c26080830186614ffd565b82810360408401526150d48186614ffd565b905082810360608401526150e88185614ffd565b979650505050505050565b60008060006060848603121561510857600080fd5b833561511381614fa7565b9250602084013561512381614fa7565b929592945050506040919091013590565b6020808252825182820181905260009190848201906040850190845b8181101561516c57835183529284019291840191600101615150565b50909695505050505050565b600080600080600080600080610100898b03121561519557600080fd5b505086359860208801359850604088013597606081013597506080810135965060a0810135955060c0810135945060e0013592509050565b634e487b7160e01b600052604160045260246000fd5b60405161018081016001600160401b0381118282101715615206576152066151cd565b60405290565b604051601f8201601f191681016001600160401b0381118282101715615234576152346151cd565b604052919050565b803563ffffffff8116811461504c57600080fd5b803560ff8116811461504c57600080fd5b60006001600160401b0382111561527a5761527a6151cd565b50601f01601f191660200190565b600082601f83011261529957600080fd5b81356152ac6152a782615261565b61520c565b8181528460208386010111156152c157600080fd5b816020850160208301376000918101602001919091529392505050565b6000602082840312156152f057600080fd5b81356001600160401b038082111561530757600080fd5b90830190610180828603121561531c57600080fd5b6153246151e3565b823581526020830135602082015260408301356040820152606083013560608201526080830135608082015260a083013560a082015260c083013560c082015261537060e0840161523c565b60e0820152610100838101359082015261012061538e818501615250565b9082015261014083810135838111156153a657600080fd5b6153b288828701615288565b82840152505061016091506153c882840161503c565b91810191909152949350505050565b6060815260006153ea6060830186614ffd565b82810360208401526153fc8186614ffd565b905082810360408401526154108185614ffd565b9695505050505050565b6000806000806000806000806000806101408b8d03121561543a57600080fd5b8a35995060208b0135985060408b0135975060608b0135965060808b0135955060a08b0135945060c08b0135935060e08b0135925061547c6101008c01615250565b91506101208b01356001600160401b0381111561549857600080fd5b6154a48d828e01615288565b9150509295989b9194979a5092959850565b600080604083850312156154c957600080fd5b82356154d481614fa7565b91506150746020840161503c565b6040815260006154f56040830185614ffd565b82810360208401526155078185614ffd565b95945050505050565b6000806000806080858703121561552657600080fd5b843561553181614fa7565b9350602085013561554181614fa7565b92506040850135915060608501356001600160401b0381111561556357600080fd5b61556f87828801615288565b91505092959194509250565b6020815281516020820152602082015160408201526040820151606082015260608201516080820152608082015160a082015260a082015160c082015260c082015160e0820152600060e08301516101006155dd8185018363ffffffff169052565b8401516101208481019190915284015190506101406156008185018360ff169052565b8085015191505061018061016081818601526156206101a0860184614ffd565b9086015180151583870152909250613551565b60008083601f84011261564557600080fd5b5081356001600160401b0381111561565c57600080fd5b602083019150836020828501011115614a9457600080fd5b60008060008060006060868803121561568c57600080fd5b61569586615250565b945060208601356001600160401b03808211156156b157600080fd5b6156bd89838a01615633565b909650945060408801359150808211156156d657600080fd5b506156e388828901615633565b969995985093965092949392505050565b60008060006060848603121561570957600080fd5b83359250602084013561571b81614fa7565b91506157296040850161503c565b90509250925092565b6000806040838503121561574557600080fd5b8235915060208301356001600160401b0381111561576257600080fd5b61576e85828601615288565b9150509250929050565b6000806040838503121561578b57600080fd5b8235915061507460208401615250565b6000602082840312156157ad57600080fd5b81356001600160401b038111156157c357600080fd5b613d6084828501615288565b600080604083850312156157e257600080fd5b82356157ed81614fa7565b915060208301356157fd81614fa7565b809150509250929050565b6000806000806080858703121561581e57600080fd5b8435935060208501356001600160401b038082111561583c57600080fd5b61584888838901615288565b9450604087013591508082111561585e57600080fd5b61586a88838901615288565b9350606087013591508082111561588057600080fd5b5061556f87828801615288565b600181811c908216806158a157607f821691505b6020821081036158c157634e487b7160e01b600052602260045260246000fd5b50919050565b634e487b7160e01b600052601160045260246000fd5b80820180821115611003576110036158c7565b60006158fe6152a784615261565b905082815283838301111561591257600080fd5b612574836020830184614fd9565b600082601f83011261593157600080fd5b612574838351602085016158f0565b60006020828403121561595257600080fd5b81516001600160401b0381111561596857600080fd5b613d6084828501615920565b60008351615986818460208801614fd9565b83519083019061599a818360208801614fd9565b7f3c672069643d226261636b7061636b547261697473223e0000000000000000009101908152601701949350505050565b634e487b7160e01b600052603260045260246000fd5b600085516159f3818460208a01614fd9565b855190830190615a07818360208a01614fd9565b8551910190615a1a818360208901614fd9565b8451910190615a2d818360208801614fd9565b019695505050505050565b60008451615a4a818460208901614fd9565b845190830190615a5e818360208901614fd9565b8082019150507f3c672069643d224d6f7265547261697473223e3c72656374207374796c653d2281527f77696474683a313070783b206865696768743a3270783b2220783d223130222060208201527f793d223136222066696c6c3d2223666666666666223e3c2f726563743e3c726560408201527f6374207374796c653d226865696768743a313070783b2077696474683a32707860608201527f3b2220783d2231342220793d223132222066696c6c3d2223666666666666223e60808201526a1e17b932b1ba1f1e17b39f60a91b60a08201528351615b468160ab840160208801614fd9565b0160ab0195945050505050565b60008251615b65818460208701614fd9565b631e17b39f60e11b920191825250600401919050565b6020808252602e908201527f4552433732313a2063616c6c6572206973206e6f7420746f6b656e206f776e6560408201526d1c881b9bdc88185c1c1c9bdd995960921b606082015260800190565b600080600060608486031215615bde57600080fd5b83516001600160401b0380821115615bf557600080fd5b615c0187838801615920565b94506020860151915080821115615c1757600080fd5b818601915086601f830112615c2b57600080fd5b615c3a878351602085016158f0565b93506040860151915080821115615c5057600080fd5b50615c5d86828701615920565b9150509250925092565b60008351615c79818460208801614fd9565b835190830190615c8d818360208801614fd9565b01949350505050565b600060208284031215615ca857600080fd5b5051919050565b600060208284031215615cc157600080fd5b815161257481614fa7565b6d2261747472696275746573223a5b60901b81528251600090615cf681600e850160208801614fd9565b600b60fa1b600e918401918201528351615d1781600f840160208801614fd9565b605d60f81b600f9290910191820152601001949350505050565b6000815160808452615d466080850182614ffd565b905060208301518482036020860152615d5f8282614ffd565b91505060408301518482036040860152615d798282614ffd565b915050606083015160608501528091505092915050565b87815260e060208201526000615da960e0830189614ffd565b8281036040840152615dbb8189614ffd565b90508281036060840152615dcf8188614ffd565b90508281036080840152615de38187614ffd565b905082810360a0840152615df78186614ffd565b905082810360c0840152615e0b8185615d31565b9a9950505050505050505050565b60006020808385031215615e2c57600080fd5b82516001600160401b0380821115615e4357600080fd5b818501915085601f830112615e5757600080fd5b815181811115615e6957615e696151cd565b8060051b9150615e7a84830161520c565b8181529183018401918481019088841115615e9457600080fd5b938501935b83851015615eb257845182529385019390850190615e99565b98975050505050505050565b60008060408385031215615ed157600080fd5b82516001600160401b0380821115615ee857600080fd5b615ef486838701615920565b93506020850151915080821115615f0a57600080fd5b5061576e85828601615920565b6bffffffffffffffffffffffff198460601b168152818360148301376000910160140190815292915050565b8183823760009101908152919050565b601f821115611277576000816000526020600020601f850160051c81016020861015615f7c5750805b601f850160051c820191505b8181101561365057828155600101615f88565b81516001600160401b03811115615fb457615fb46151cd565b615fc881615fc2845461588d565b84615f53565b602080601f831160018114615ffd5760008415615fe55750858301515b600019600386901b1c1916600185901b178555613650565b600085815260208120601f198616915b8281101561602c5788860151825594840194600190910190840161600d565b508582101561604a5787850151600019600388901b60f8161c191681555b5050505050600190811b01905550565b634e487b7160e01b600052601260045260246000fd5b60008261607f5761607f61605a565b500690565b6000826160935761609361605a565b500490565b8082028115828204841417611003576110036158c7565b6000602082840312156160c157600080fd5b81516008811061257457600080fd5b634e487b7160e01b600052602160045260246000fd5b6000600182016160f8576160f86158c7565b5060010190565b81810381811115611003576110036158c7565b6e3d913a3930b4ba2fba3cb832911d1160891b8152825160009061613d81600f850160208801614fd9565b6a1116113b30b63ab2911d1160a91b600f91840191820152835161616881601a840160208801614fd9565b61227d60f01b601a9290910191820152601c01949350505050565b60208082526032908201527f4552433732313a207472616e7366657220746f206e6f6e20455243373231526560408201527131b2b4bb32b91034b6b83632b6b2b73a32b960711b606082015260800190565b600080600080608085870312156161eb57600080fd5b8451935060208501516161fd81614fa7565b604086015190935061620e81614fa7565b606086015190925061621f81614fa7565b939692955090935050565b60006040820184835260206040602085015281855180845260608601915060208701935060005b818110156162765784516001600160a01b031683529383019391830191600101616251565b5090979650505050505050565b6001600160a01b038581168252841660208201526040810183905260806060820181905260009061541090830184614ffd565b6000602082840312156162c857600080fd5b815161257481614f39565b634e487b7160e01b600052603160045260246000fdfe8aea9baa1ab7209ce94784ac5f5149343f8d985fd4278de25a7b390989f2cf853c672069643d22416c6c20547261697473223e3c672069643d226261636b7061636b2220636c6173733d22636c6f736564223e3c7061746820643d224d302030204c33302030204c3330203330204c30203330205a222066696c6c3d227267622831322c203130392c203135372922202f3e3c7376672069643d226261636b7061636b5549222076696577426f783d223020302031323020313230223e203c7374796c653e2e75697b77696474683a3170783b206865696768743a203170783b2066696c6c3a77686974657d3c2f7374796c653e203c672069643d22636c6f736542746e22207472616e73666f726d3d227472616e736c61746528322c3229223e203c7265637420783d22312220793d22312220636c6173733d227569223e3c2f726563743e203c7265637420783d22322220793d22322220636c6173733d227569223e3c2f726563743e203c7265637420783d22332220793d22332220636c6173733d227569223e3c2f726563743e203c7265637420783d22342220793d22342220636c6173733d227569223e3c2f726563743e203c7265637420783d22352220793d22352220636c6173733d227569223e3c2f726563743e203c7265637420783d22352220793d22312220636c6173733d227569223e3c2f726563743e203c7265637420783d22342220793d22322220636c6173733d227569223e3c2f726563743e203c212d2d203c7265637420783d22332220793d2233222077696474683d223122206865696768743d2231222066696c6c3d227768697465223e3c2f726563743e202d2d3e203c7265637420783d22322220793d22342220636c6173733d227569223e3c2f726563743e203c7265637420783d22312220793d22352220636c6173733d227569223e3c2f726563743e203c2f673e203c672069643d226c65667442746e2220636c6173733d22627574746f6e22207472616e73666f726d3d227472616e736c6174652834352c31313029223e203c7061746820643d224d302030204c362030204c362036204c302036205a222066696c6c3d227472616e73706172656e7422202f3e203c7265637420783d22322220793d22302220636c6173733d227569223e3c2f726563743e203c7265637420783d22312220793d22312220636c6173733d227569223e3c2f726563743e203c7265637420783d22302220793d22322220636c6173733d227569223e3c2f726563743e203c7265637420783d22312220793d22332220636c6173733d227569223e3c2f726563743e203c7265637420783d22322220793d22342220636c6173733d227569223e3c2f726563743e203c2f673e203c672069643d22726967687442746e2220636c6173733d22627574746f6e22207472616e73666f726d3d227472616e736c6174652836352c31313029223e203c7061746820643d224d302030204c362030204c362036204c302036205a222066696c6c3d227472616e73706172656e7422202f3e203c7265637420783d22332220793d22302220636c6173733d227569223e3c2f726563743e203c7265637420783d22342220793d22312220636c6173733d227569223e3c2f726563743e203c7265637420783d22352220793d22322220636c6173733d227569223e3c2f726563743e203c7265637420783d22342220793d22332220636c6173733d227569223e3c2f726563743e203c7265637420783d22332220793d22342220636c6173733d227569223e3c2f726563743e203c2f673e203c2f7376673e20a264697066735822122084c8b88c27bd8c547ec837997a81d5bc34ae6ca9cc57dbcaa0d273f1376009fc64736f6c63430008160033","linkReferences":{}},"methodIdentifiers":{"_debugPostConstructorMint()":"9c7be2f1","addNewBody(uint256,string,bytes,bytes)":"f2361e23","approve(address,uint256)":"095ea7b3","balanceOf(address)":"70a08231","bodyIndexToMetadata(uint256)":"0c83f9d7","buyTrait(uint256)":"6273ca2c","cancelOwnershipHandover()":"54d1f13d","chonkIdToApprovals(uint256)":"1bdf6218","completeOwnershipHandover(address)":"f04e283e","equipAccessory(uint256,uint256)":"0447a45e","equipAll(uint256,uint256,uint256,uint256,uint256,uint256,uint256,uint256)":"4a4333a3","equipBottom(uint256,uint256)":"45a10d0f","equipFace(uint256,uint256)":"0f162320","equipHair(uint256,uint256)":"94cbd9c4","equipHead(uint256,uint256)":"1e162a33","equipShoes(uint256,uint256)":"60b77b23","equipTop(uint256,uint256)":"f18dc22d","firstSeasonRenderMinter()":"13ea0ae3","getApproved(uint256)":"081812fc","getBackpackSVGs(uint256)":"14fe8ff4","getBodyImage(bytes)":"e37db3c2","getBodyImageSvg(uint256)":"916c546b","getBodySVGZmapsAndMetadata((uint256,uint256,uint256,uint256,uint256,uint256,uint256,uint32,uint256,uint8,string,bool))":"92012f08","getBodySvgAndMetadata((uint256,uint256,uint256,uint256,uint256,uint256,uint256,uint32,uint256,uint8,string,bool))":"a23830ae","getBodyZMap(uint256)":"306c7334","getFullPictureForTrait(uint256)":"66704349","getOwnerAndTBAAddressForChonkId(uint256)":"04003bd0","getPeter(uint256)":"be928ff6","getPeterZMap(uint256)":"2bd1ca45","getTBAAddressForChonkId(uint256)":"f6a0c932","getTokenRenderZ(uint256)":"8200ea51","getTraitTokens(address)":"998cfb6e","getTraitsForChonkId(uint256)":"9f6e4637","isApprovedForAll(address,address)":"e985e9c5","mainRenderer()":"66b89b5a","marketplace()":"abc8c7af","mint()":"1249c58b","mintByLevel(uint8,string,bytes)":"cef80d4a","name()":"06fdde03","owner()":"8da5cb5b","ownerOf(uint256)":"6352211e","ownershipHandoverExpiresAt(address)":"fee81cf4","peterMakeover(uint256,uint256,uint256,uint256,uint256,uint256,uint256,uint256,uint8,string)":"93ccba72","price()":"a035b1fe","renderAsDataUri(uint256)":"a1d62680","renderAsDataUriSVG(uint256)":"b28fbe40","renderAsDataUriZ(uint256)":"7557f2dc","renounceOwnership()":"715018a6","requestOwnershipHandover()":"25692962","safeTransferFrom(address,address,uint256)":"42842e0e","safeTransferFrom(address,address,uint256,bytes)":"b88d4fde","setApprovalForAll(address,bool)":"a22cb465","setApprovalForAll(uint256,address,bool)":"d35dc66e","setBackgroundColor(uint256,string)":"d68c4f32","setBodyIndex(uint256,uint8)":"e1405540","setFirstSeasonRenderMinter(address)":"58a97640","setMainRenderer(address)":"4ddb3961","setMarketplace(address)":"73ad6c2d","setMaxTraitsToOutput(uint256)":"33d3d9bf","setPrice(uint256)":"91b7f5ed","setSystemAddress(address)":"06210197","setTokenRenderZ(uint256,bool)":"07f4e045","setTraitsContract(address)":"5eabd84a","setZRenderer(address)":"172b054d","supportsInterface(bytes4)":"01ffc9a7","symbol()":"95d89b41","tbaAddressToTokenId(address)":"a4bf9a00","tokenByIndex(uint256)":"4f6ccce7","tokenIdToTBAAccountAddress(uint256)":"9c05d68d","tokenOfOwnerByIndex(address,uint256)":"2f745c59","tokenURI(uint256)":"c87b56dd","totalSupply()":"18160ddd","traitsContract()":"c093afdb","transferFrom(address,address,uint256)":"23b872dd","transferOwnership(address)":"f2fde38b","unequipAccessory(uint256)":"293ed3f7","unequipAll(uint256)":"3044825b","unequipBottom(uint256)":"9c762015","unequipFace(uint256)":"d5b55c8b","unequipHair(uint256)":"105338e0","unequipHead(uint256)":"7afe8d34","unequipShoes(uint256)":"58180d35","unequipTop(uint256)":"347bd8f4","walletOfOwner(address)":"438b6300","zRenderer()":"a15c561b"},"id":43}