{"abi":[{"type":"constructor","inputs":[{"name":"localDeploy_","type":"bool","internalType":"bool"}],"stateMutability":"nonpayable"},{"type":"function","name":"_debugPostConstructorMint","inputs":[],"outputs":[],"stateMutability":"nonpayable"},{"type":"function","name":"_nextTokenId","inputs":[],"outputs":[{"name":"","type":"uint256","internalType":"uint256"}],"stateMutability":"view"},{"type":"function","name":"addNewBody","inputs":[{"name":"_bodyIndex","type":"uint256","internalType":"uint256"},{"name":"_bodyName","type":"string","internalType":"string"},{"name":"_colorMap","type":"bytes","internalType":"bytes"},{"name":"_zMap","type":"bytes","internalType":"bytes"}],"outputs":[],"stateMutability":"nonpayable"},{"type":"function","name":"approve","inputs":[{"name":"_operator","type":"address","internalType":"address"},{"name":"_chonkId","type":"uint256","internalType":"uint256"}],"outputs":[],"stateMutability":"nonpayable"},{"type":"function","name":"balanceOf","inputs":[{"name":"owner","type":"address","internalType":"address"}],"outputs":[{"name":"","type":"uint256","internalType":"uint256"}],"stateMutability":"view"},{"type":"function","name":"bodyIndexToMetadata","inputs":[{"name":"","type":"uint256","internalType":"uint256"}],"outputs":[{"name":"bodyIndex","type":"uint256","internalType":"uint256"},{"name":"bodyName","type":"string","internalType":"string"},{"name":"colorMap","type":"bytes","internalType":"bytes"},{"name":"zMap","type":"bytes","internalType":"bytes"}],"stateMutability":"view"},{"type":"function","name":"cancelOwnershipHandover","inputs":[],"outputs":[],"stateMutability":"payable"},{"type":"function","name":"checkIfTraitIsEquipped","inputs":[{"name":"_chonkId","type":"uint256","internalType":"uint256"},{"name":"_traitId","type":"uint256","internalType":"uint256"}],"outputs":[{"name":"","type":"bool","internalType":"bool"}],"stateMutability":"view"},{"type":"function","name":"chonkIdToApprovedOperators","inputs":[{"name":"chonkId","type":"uint256","internalType":"uint256"},{"name":"","type":"uint256","internalType":"uint256"}],"outputs":[{"name":"operators","type":"address","internalType":"address"}],"stateMutability":"view"},{"type":"function","name":"completeOwnershipHandover","inputs":[{"name":"pendingOwner","type":"address","internalType":"address"}],"outputs":[],"stateMutability":"payable"},{"type":"function","name":"equip","inputs":[{"name":"_peterTokenId","type":"uint256","internalType":"uint256"},{"name":"_traitTokenId","type":"uint256","internalType":"uint256"}],"outputs":[],"stateMutability":"nonpayable"},{"type":"function","name":"equipAll","inputs":[{"name":"_peterTokenId","type":"uint256","internalType":"uint256"},{"name":"_headTokenId","type":"uint256","internalType":"uint256"},{"name":"_hairTokenId","type":"uint256","internalType":"uint256"},{"name":"_faceTokenId","type":"uint256","internalType":"uint256"},{"name":"_accessoryTokenId","type":"uint256","internalType":"uint256"},{"name":"_topTokenId","type":"uint256","internalType":"uint256"},{"name":"_bottomTokenId","type":"uint256","internalType":"uint256"},{"name":"_shoesTokenId","type":"uint256","internalType":"uint256"}],"outputs":[],"stateMutability":"nonpayable"},{"type":"function","name":"firstSeasonRenderMinter","inputs":[],"outputs":[{"name":"","type":"address","internalType":"contract FirstSeasonRenderMinter"}],"stateMutability":"view"},{"type":"function","name":"getApproved","inputs":[{"name":"tokenId","type":"uint256","internalType":"uint256"}],"outputs":[{"name":"","type":"address","internalType":"address"}],"stateMutability":"view"},{"type":"function","name":"getBackpackSVGs","inputs":[{"name":"_tokenId","type":"uint256","internalType":"uint256"}],"outputs":[{"name":"","type":"string","internalType":"string"}],"stateMutability":"view"},{"type":"function","name":"getBodyImageSvg","inputs":[{"name":"_index","type":"uint256","internalType":"uint256"}],"outputs":[{"name":"svg","type":"string","internalType":"string"}],"stateMutability":"view"},{"type":"function","name":"getBodySVGZmapsAndMetadata","inputs":[{"name":"storedPeter","type":"tuple","internalType":"struct IPeterStorage.StoredPeter","components":[{"name":"headId","type":"uint256","internalType":"uint256"},{"name":"hairId","type":"uint256","internalType":"uint256"},{"name":"faceId","type":"uint256","internalType":"uint256"},{"name":"accessoryId","type":"uint256","internalType":"uint256"},{"name":"topId","type":"uint256","internalType":"uint256"},{"name":"bottomId","type":"uint256","internalType":"uint256"},{"name":"shoesId","type":"uint256","internalType":"uint256"},{"name":"epoch","type":"uint32","internalType":"uint32"},{"name":"tokenId","type":"uint256","internalType":"uint256"},{"name":"bodyIndex","type":"uint8","internalType":"uint8"},{"name":"backgroundColor","type":"string","internalType":"string"},{"name":"render3D","type":"bool","internalType":"bool"}]}],"outputs":[{"name":"","type":"string","internalType":"string"},{"name":"","type":"bytes","internalType":"bytes"},{"name":"","type":"string","internalType":"string"}],"stateMutability":"view"},{"type":"function","name":"getBodySvgAndMetadata","inputs":[{"name":"storedPeter","type":"tuple","internalType":"struct IPeterStorage.StoredPeter","components":[{"name":"headId","type":"uint256","internalType":"uint256"},{"name":"hairId","type":"uint256","internalType":"uint256"},{"name":"faceId","type":"uint256","internalType":"uint256"},{"name":"accessoryId","type":"uint256","internalType":"uint256"},{"name":"topId","type":"uint256","internalType":"uint256"},{"name":"bottomId","type":"uint256","internalType":"uint256"},{"name":"shoesId","type":"uint256","internalType":"uint256"},{"name":"epoch","type":"uint32","internalType":"uint32"},{"name":"tokenId","type":"uint256","internalType":"uint256"},{"name":"bodyIndex","type":"uint8","internalType":"uint8"},{"name":"backgroundColor","type":"string","internalType":"string"},{"name":"render3D","type":"bool","internalType":"bool"}]}],"outputs":[{"name":"","type":"string","internalType":"string"},{"name":"","type":"string","internalType":"string"}],"stateMutability":"view"},{"type":"function","name":"getBodyZMap","inputs":[{"name":"_tokenId","type":"uint256","internalType":"uint256"}],"outputs":[{"name":"","type":"string","internalType":"string"}],"stateMutability":"view"},{"type":"function","name":"getChonkIdForTBAAddress","inputs":[{"name":"_tbaAddress","type":"address","internalType":"address"}],"outputs":[{"name":"","type":"uint256","internalType":"uint256"}],"stateMutability":"view"},{"type":"function","name":"getChonkIdToApprovedOperators","inputs":[{"name":"_chonkId","type":"uint256","internalType":"uint256"}],"outputs":[{"name":"","type":"address[]","internalType":"address[]"}],"stateMutability":"view"},{"type":"function","name":"getFullPictureForTrait","inputs":[{"name":"_chonkTraitTokenId","type":"uint256","internalType":"uint256"}],"outputs":[{"name":"traitOwnerTBA","type":"address","internalType":"address"},{"name":"chonkTokenId","type":"uint256","internalType":"uint256"},{"name":"chonkOwner","type":"address","internalType":"address"},{"name":"isEquipped","type":"bool","internalType":"bool"}],"stateMutability":"view"},{"type":"function","name":"getOwnerAndTBAAddressForChonkId","inputs":[{"name":"_chonkId","type":"uint256","internalType":"uint256"}],"outputs":[{"name":"owner","type":"address","internalType":"address"},{"name":"tbaAddress","type":"address","internalType":"address"}],"stateMutability":"view"},{"type":"function","name":"getPeter","inputs":[{"name":"_tokenId","type":"uint256","internalType":"uint256"}],"outputs":[{"name":"","type":"tuple","internalType":"struct IPeterStorage.StoredPeter","components":[{"name":"headId","type":"uint256","internalType":"uint256"},{"name":"hairId","type":"uint256","internalType":"uint256"},{"name":"faceId","type":"uint256","internalType":"uint256"},{"name":"accessoryId","type":"uint256","internalType":"uint256"},{"name":"topId","type":"uint256","internalType":"uint256"},{"name":"bottomId","type":"uint256","internalType":"uint256"},{"name":"shoesId","type":"uint256","internalType":"uint256"},{"name":"epoch","type":"uint32","internalType":"uint32"},{"name":"tokenId","type":"uint256","internalType":"uint256"},{"name":"bodyIndex","type":"uint8","internalType":"uint8"},{"name":"backgroundColor","type":"string","internalType":"string"},{"name":"render3D","type":"bool","internalType":"bool"}]}],"stateMutability":"view"},{"type":"function","name":"getPeterZMap","inputs":[{"name":"_tokenId","type":"uint256","internalType":"uint256"}],"outputs":[{"name":"","type":"string","internalType":"string"}],"stateMutability":"view"},{"type":"function","name":"getTBAAddressForChonkId","inputs":[{"name":"_chonkId","type":"uint256","internalType":"uint256"}],"outputs":[{"name":"","type":"address","internalType":"address"}],"stateMutability":"view"},{"type":"function","name":"getTokenRenderZ","inputs":[{"name":"_peterTokenId","type":"uint256","internalType":"uint256"}],"outputs":[{"name":"","type":"bool","internalType":"bool"}],"stateMutability":"view"},{"type":"function","name":"getTraitTokens","inputs":[{"name":"_tbaAddress","type":"address","internalType":"address"}],"outputs":[{"name":"","type":"uint256[]","internalType":"uint256[]"}],"stateMutability":"view"},{"type":"function","name":"getTraitsForChonkId","inputs":[{"name":"_chonkId","type":"uint256","internalType":"uint256"}],"outputs":[{"name":"traitTokens","type":"uint256[]","internalType":"uint256[]"}],"stateMutability":"view"},{"type":"function","name":"isApprovedForAll","inputs":[{"name":"owner","type":"address","internalType":"address"},{"name":"operator","type":"address","internalType":"address"}],"outputs":[{"name":"","type":"bool","internalType":"bool"}],"stateMutability":"view"},{"type":"function","name":"mainRenderer2D","inputs":[],"outputs":[{"name":"","type":"address","internalType":"contract MainRenderer2D"}],"stateMutability":"view"},{"type":"function","name":"mainRenderer3D","inputs":[],"outputs":[{"name":"","type":"address","internalType":"contract MainRenderer3D"}],"stateMutability":"view"},{"type":"function","name":"marketplace","inputs":[],"outputs":[{"name":"","type":"address","internalType":"contract ChonksMarket"}],"stateMutability":"view"},{"type":"function","name":"maxTraitsToOutput","inputs":[],"outputs":[{"name":"","type":"uint256","internalType":"uint256"}],"stateMutability":"view"},{"type":"function","name":"mint","inputs":[{"name":"_amount","type":"uint256","internalType":"uint256"}],"outputs":[],"stateMutability":"payable"},{"type":"function","name":"mintStartTime","inputs":[],"outputs":[{"name":"","type":"uint256","internalType":"uint256"}],"stateMutability":"view"},{"type":"function","name":"name","inputs":[],"outputs":[{"name":"","type":"string","internalType":"string"}],"stateMutability":"view"},{"type":"function","name":"owner","inputs":[],"outputs":[{"name":"result","type":"address","internalType":"address"}],"stateMutability":"view"},{"type":"function","name":"ownerOf","inputs":[{"name":"tokenId","type":"uint256","internalType":"uint256"}],"outputs":[{"name":"","type":"address","internalType":"address"}],"stateMutability":"view"},{"type":"function","name":"ownershipHandoverExpiresAt","inputs":[{"name":"pendingOwner","type":"address","internalType":"address"}],"outputs":[{"name":"result","type":"uint256","internalType":"uint256"}],"stateMutability":"view"},{"type":"function","name":"peterMakeover","inputs":[{"name":"_peterTokenId","type":"uint256","internalType":"uint256"},{"name":"_headTokenId","type":"uint256","internalType":"uint256"},{"name":"_hairTokenId","type":"uint256","internalType":"uint256"},{"name":"_faceTokenId","type":"uint256","internalType":"uint256"},{"name":"_accessoryTokenId","type":"uint256","internalType":"uint256"},{"name":"_topTokenId","type":"uint256","internalType":"uint256"},{"name":"_bottomTokenId","type":"uint256","internalType":"uint256"},{"name":"_shoesTokenId","type":"uint256","internalType":"uint256"},{"name":"_bodyIndex","type":"uint8","internalType":"uint8"},{"name":"_backgroundColor","type":"string","internalType":"string"}],"outputs":[],"stateMutability":"nonpayable"},{"type":"function","name":"price","inputs":[],"outputs":[{"name":"","type":"uint256","internalType":"uint256"}],"stateMutability":"view"},{"type":"function","name":"renderAsDataUri","inputs":[{"name":"_tokenId","type":"uint256","internalType":"uint256"}],"outputs":[{"name":"","type":"string","internalType":"string"}],"stateMutability":"view"},{"type":"function","name":"renderAsDataUri2D","inputs":[{"name":"_tokenId","type":"uint256","internalType":"uint256"}],"outputs":[{"name":"","type":"string","internalType":"string"}],"stateMutability":"view"},{"type":"function","name":"renderAsDataUri3D","inputs":[{"name":"_tokenId","type":"uint256","internalType":"uint256"}],"outputs":[{"name":"","type":"string","internalType":"string"}],"stateMutability":"view"},{"type":"function","name":"renounceOwnership","inputs":[],"outputs":[],"stateMutability":"payable"},{"type":"function","name":"requestOwnershipHandover","inputs":[],"outputs":[],"stateMutability":"payable"},{"type":"function","name":"safeTransferFrom","inputs":[{"name":"from","type":"address","internalType":"address"},{"name":"to","type":"address","internalType":"address"},{"name":"tokenId","type":"uint256","internalType":"uint256"}],"outputs":[],"stateMutability":"nonpayable"},{"type":"function","name":"safeTransferFrom","inputs":[{"name":"from","type":"address","internalType":"address"},{"name":"to","type":"address","internalType":"address"},{"name":"tokenId","type":"uint256","internalType":"uint256"},{"name":"data","type":"bytes","internalType":"bytes"}],"outputs":[],"stateMutability":"nonpayable"},{"type":"function","name":"setApprovalForAll","inputs":[{"name":"_operator","type":"address","internalType":"address"},{"name":"_approved","type":"bool","internalType":"bool"}],"outputs":[],"stateMutability":"nonpayable"},{"type":"function","name":"setApprovalForAllChonksMarketplace","inputs":[{"name":"_chonkId","type":"uint256","internalType":"uint256"},{"name":"_operator","type":"address","internalType":"address"},{"name":"_approved","type":"bool","internalType":"bool"}],"outputs":[],"stateMutability":"nonpayable"},{"type":"function","name":"setBackgroundColor","inputs":[{"name":"_peterTokenId","type":"uint256","internalType":"uint256"},{"name":"_color","type":"string","internalType":"string"}],"outputs":[],"stateMutability":"nonpayable"},{"type":"function","name":"setBodyIndex","inputs":[{"name":"_peterTokenId","type":"uint256","internalType":"uint256"},{"name":"_bodyIndex","type":"uint8","internalType":"uint8"}],"outputs":[],"stateMutability":"nonpayable"},{"type":"function","name":"setFirstSeasonRenderMinter","inputs":[{"name":"_dataContract","type":"address","internalType":"address"}],"outputs":[],"stateMutability":"nonpayable"},{"type":"function","name":"setMainRenderer2D","inputs":[{"name":"_mainRenderer2D","type":"address","internalType":"address"}],"outputs":[],"stateMutability":"nonpayable"},{"type":"function","name":"setMainRenderer3D","inputs":[{"name":"_mainRenderer3D","type":"address","internalType":"address"}],"outputs":[],"stateMutability":"nonpayable"},{"type":"function","name":"setMarketplace","inputs":[{"name":"_marketplace","type":"address","internalType":"address"}],"outputs":[],"stateMutability":"nonpayable"},{"type":"function","name":"setMaxTraitsToOutput","inputs":[{"name":"_maxTraitsToOutput","type":"uint256","internalType":"uint256"}],"outputs":[],"stateMutability":"nonpayable"},{"type":"function","name":"setMintStartTime","inputs":[{"name":"_mintStartTime","type":"uint256","internalType":"uint256"}],"outputs":[],"stateMutability":"nonpayable"},{"type":"function","name":"setPrice","inputs":[{"name":"_priceInWei","type":"uint256","internalType":"uint256"}],"outputs":[],"stateMutability":"nonpayable"},{"type":"function","name":"setTokenRender3D","inputs":[{"name":"_peterTokenId","type":"uint256","internalType":"uint256"},{"name":"_render3D","type":"bool","internalType":"bool"}],"outputs":[],"stateMutability":"nonpayable"},{"type":"function","name":"setTraitsContract","inputs":[{"name":"_address","type":"address","internalType":"contract PeterTraits"}],"outputs":[],"stateMutability":"nonpayable"},{"type":"function","name":"setWithdrawAddress","inputs":[{"name":"_withdrawAddress","type":"address","internalType":"address"}],"outputs":[],"stateMutability":"nonpayable"},{"type":"function","name":"supportsInterface","inputs":[{"name":"interfaceId","type":"bytes4","internalType":"bytes4"}],"outputs":[{"name":"","type":"bool","internalType":"bool"}],"stateMutability":"view"},{"type":"function","name":"symbol","inputs":[],"outputs":[{"name":"","type":"string","internalType":"string"}],"stateMutability":"view"},{"type":"function","name":"tbaAddressToTokenId","inputs":[{"name":"","type":"address","internalType":"address"}],"outputs":[{"name":"","type":"uint256","internalType":"uint256"}],"stateMutability":"view"},{"type":"function","name":"teamMint","inputs":[{"name":"_to","type":"address","internalType":"address"},{"name":"_amount","type":"uint256","internalType":"uint256"}],"outputs":[],"stateMutability":"nonpayable"},{"type":"function","name":"tokenByIndex","inputs":[{"name":"index","type":"uint256","internalType":"uint256"}],"outputs":[{"name":"","type":"uint256","internalType":"uint256"}],"stateMutability":"view"},{"type":"function","name":"tokenIdToTBAAccountAddress","inputs":[{"name":"","type":"uint256","internalType":"uint256"}],"outputs":[{"name":"","type":"address","internalType":"address"}],"stateMutability":"view"},{"type":"function","name":"tokenOfOwnerByIndex","inputs":[{"name":"owner","type":"address","internalType":"address"},{"name":"index","type":"uint256","internalType":"uint256"}],"outputs":[{"name":"","type":"uint256","internalType":"uint256"}],"stateMutability":"view"},{"type":"function","name":"tokenURI","inputs":[{"name":"_tokenId","type":"uint256","internalType":"uint256"}],"outputs":[{"name":"","type":"string","internalType":"string"}],"stateMutability":"view"},{"type":"function","name":"totalSupply","inputs":[],"outputs":[{"name":"","type":"uint256","internalType":"uint256"}],"stateMutability":"view"},{"type":"function","name":"traitsContract","inputs":[],"outputs":[{"name":"","type":"address","internalType":"contract PeterTraits"}],"stateMutability":"view"},{"type":"function","name":"transferFrom","inputs":[{"name":"from","type":"address","internalType":"address"},{"name":"to","type":"address","internalType":"address"},{"name":"tokenId","type":"uint256","internalType":"uint256"}],"outputs":[],"stateMutability":"nonpayable"},{"type":"function","name":"transferOwnership","inputs":[{"name":"newOwner","type":"address","internalType":"address"}],"outputs":[],"stateMutability":"payable"},{"type":"function","name":"unequip","inputs":[{"name":"_peterTokenId","type":"uint256","internalType":"uint256"},{"name":"traitType","type":"uint8","internalType":"enum TraitCategory.Name"}],"outputs":[],"stateMutability":"nonpayable"},{"type":"function","name":"unequipAll","inputs":[{"name":"_peterTokenId","type":"uint256","internalType":"uint256"}],"outputs":[],"stateMutability":"nonpayable"},{"type":"function","name":"walletOfOwner","inputs":[{"name":"_owner","type":"address","internalType":"address"}],"outputs":[{"name":"","type":"uint256[]","internalType":"uint256[]"}],"stateMutability":"view"},{"type":"function","name":"withdraw","inputs":[],"outputs":[],"stateMutability":"nonpayable"},{"type":"function","name":"withdrawAddress","inputs":[],"outputs":[{"name":"","type":"address","internalType":"address"}],"stateMutability":"view"},{"type":"event","name":"Approval","inputs":[{"name":"owner","type":"address","indexed":true,"internalType":"address"},{"name":"approved","type":"address","indexed":true,"internalType":"address"},{"name":"tokenId","type":"uint256","indexed":true,"internalType":"uint256"}],"anonymous":false},{"type":"event","name":"ApprovalForAll","inputs":[{"name":"owner","type":"address","indexed":true,"internalType":"address"},{"name":"operator","type":"address","indexed":true,"internalType":"address"},{"name":"approved","type":"bool","indexed":false,"internalType":"bool"}],"anonymous":false},{"type":"event","name":"BackgroundColor","inputs":[{"name":"owner","type":"address","indexed":true,"internalType":"address"},{"name":"tokenId","type":"uint256","indexed":true,"internalType":"uint256"},{"name":"color","type":"string","indexed":false,"internalType":"string"}],"anonymous":false},{"type":"event","name":"BatchMetadataUpdate","inputs":[{"name":"_fromTokenId","type":"uint256","indexed":false,"internalType":"uint256"},{"name":"_toTokenId","type":"uint256","indexed":false,"internalType":"uint256"}],"anonymous":false},{"type":"event","name":"BodyIndex","inputs":[{"name":"owner","type":"address","indexed":true,"internalType":"address"},{"name":"tokenId","type":"uint256","indexed":true,"internalType":"uint256"},{"name":"_bodyIndex","type":"uint8","indexed":false,"internalType":"uint8"}],"anonymous":false},{"type":"event","name":"Equip","inputs":[{"name":"owner","type":"address","indexed":true,"internalType":"address"},{"name":"tokenId","type":"uint256","indexed":true,"internalType":"uint256"},{"name":"traitTokenId","type":"uint256","indexed":true,"internalType":"uint256"},{"name":"traitCategory","type":"uint8","indexed":false,"internalType":"uint8"}],"anonymous":false},{"type":"event","name":"EquipAll","inputs":[{"name":"owner","type":"address","indexed":true,"internalType":"address"},{"name":"tokenId","type":"uint256","indexed":true,"internalType":"uint256"}],"anonymous":false},{"type":"event","name":"MetadataUpdate","inputs":[{"name":"_tokenId","type":"uint256","indexed":false,"internalType":"uint256"}],"anonymous":false},{"type":"event","name":"Mint","inputs":[{"name":"owner","type":"address","indexed":true,"internalType":"address"},{"name":"tokenId","type":"uint256","indexed":true,"internalType":"uint256"}],"anonymous":false},{"type":"event","name":"OwnershipHandoverCanceled","inputs":[{"name":"pendingOwner","type":"address","indexed":true,"internalType":"address"}],"anonymous":false},{"type":"event","name":"OwnershipHandoverRequested","inputs":[{"name":"pendingOwner","type":"address","indexed":true,"internalType":"address"}],"anonymous":false},{"type":"event","name":"OwnershipTransferred","inputs":[{"name":"oldOwner","type":"address","indexed":true,"internalType":"address"},{"name":"newOwner","type":"address","indexed":true,"internalType":"address"}],"anonymous":false},{"type":"event","name":"Render3D","inputs":[{"name":"owner","type":"address","indexed":true,"internalType":"address"},{"name":"tokenId","type":"uint256","indexed":true,"internalType":"uint256"},{"name":"renderZ","type":"bool","indexed":false,"internalType":"bool"}],"anonymous":false},{"type":"event","name":"Transfer","inputs":[{"name":"from","type":"address","indexed":true,"internalType":"address"},{"name":"to","type":"address","indexed":true,"internalType":"address"},{"name":"tokenId","type":"uint256","indexed":true,"internalType":"uint256"}],"anonymous":false},{"type":"event","name":"Unequip","inputs":[{"name":"owner","type":"address","indexed":true,"internalType":"address"},{"name":"tokenId","type":"uint256","indexed":true,"internalType":"uint256"},{"name":"traitCategory","type":"uint8","indexed":false,"internalType":"uint8"}],"anonymous":false},{"type":"event","name":"UnequipAll","inputs":[{"name":"owner","type":"address","indexed":true,"internalType":"address"},{"name":"tokenId","type":"uint256","indexed":true,"internalType":"uint256"}],"anonymous":false},{"type":"error","name":"AlreadyInitialized","inputs":[]},{"type":"error","name":"BodyAlreadyExists","inputs":[]},{"type":"error","name":"CantBeZero","inputs":[]},{"type":"error","name":"CantTransfer","inputs":[]},{"type":"error","name":"CantTransferToTBAs","inputs":[]},{"type":"error","name":"FirstSeasonRenderMinterNotSet","inputs":[]},{"type":"error","name":"IncorrectPeterOwner","inputs":[]},{"type":"error","name":"IncorrectTBAOwner","inputs":[]},{"type":"error","name":"IncorrectTraitType","inputs":[]},{"type":"error","name":"InsufficientFunds","inputs":[]},{"type":"error","name":"InvalidBodyIndex","inputs":[]},{"type":"error","name":"InvalidColor","inputs":[]},{"type":"error","name":"InvalidLevelAmount","inputs":[]},{"type":"error","name":"InvalidSignature","inputs":[]},{"type":"error","name":"MintEnded","inputs":[]},{"type":"error","name":"MintNotStarted","inputs":[]},{"type":"error","name":"NewOwnerIsZeroAddress","inputs":[]},{"type":"error","name":"NoHandoverRequest","inputs":[]},{"type":"error","name":"NonceAlreadyUsed","inputs":[]},{"type":"error","name":"PeterDoesntExist","inputs":[]},{"type":"error","name":"Unauthorized","inputs":[]},{"type":"error","name":"UseUnequip","inputs":[]},{"type":"error","name":"WithdrawFailed","inputs":[]},{"type":"error","name":"markaSaysNo","inputs":[]}],"bytecode":{"object":"0x608060405260636015553480156200001657600080fd5b5060405162005ee938038062005ee9833981016040819052620000399162000100565b6040518060400160405280600a81526020016914195d195c8815195cdd60b21b815250604051806040016040528060058152602001642822aa22a960d91b81525081600090816200008b9190620001d2565b5060016200009a8282620001d2565b50506001600a5550620000ad33620000c4565b600b805460ff19169115159190911790556200029e565b6001600160a01b0316638b78c6d8198190558060007f8be0079c531659141344cd1fd0a4f28419497f9722a3daafe3b4186f6b6457e08180a350565b6000602082840312156200011357600080fd5b815180151581146200012457600080fd5b9392505050565b634e487b7160e01b600052604160045260246000fd5b600181811c908216806200015657607f821691505b6020821081036200017757634e487b7160e01b600052602260045260246000fd5b50919050565b601f821115620001cd576000816000526020600020601f850160051c81016020861015620001a85750805b601f850160051c820191505b81811015620001c957828155600101620001b4565b5050505b505050565b81516001600160401b03811115620001ee57620001ee6200012b565b6200020681620001ff845462000141565b846200017d565b602080601f8311600181146200023e5760008415620002255750858301515b600019600386901b1c1916600185901b178555620001c9565b600085815260208120601f198616915b828110156200026f578886015182559484019460019091019084016200024e565b50858210156200028e5787850151600019600388901b60f8161c191681555b5050505050600190811b01905550565b615c3b80620002ae6000396000f3fe6080604052600436106104725760003560e01c80638aa1e4c81161024a578063b66ef6e311610139578063e1405540116100b6578063f2fde38b1161007a578063f2fde38b14610e73578063f3f8efb914610e86578063f4bec0b614610ea6578063f6a0c93214610ec6578063fee81cf414610efc57600080fd5b8063e140554014610dc1578063e3d2155514610de1578063e985e9c514610df7578063f04e283e14610e40578063f2361e2314610e5357600080fd5b8063c87b56dd116100fd578063c87b56dd14610d21578063cdb6dd5c14610d41578063d5b3621b14610d61578063d68c4f3214610d81578063dceef0ec14610da157600080fd5b8063b66ef6e314610c74578063b88d4fde14610c94578063be928ff614610cb4578063bef1dfb714610ce1578063c093afdb14610d0157600080fd5b80639c7be2f1116101c7578063a22cb4651161018b578063a22cb46514610bb9578063a23830ae14610bd9578063a4bf9a0014610c07578063abc8c7af14610c34578063add5a4fa14610c5457600080fd5b80639c7be2f114610b3b5780639f6e463714610b50578063a035b1fe14610b70578063a0712d6814610b86578063a1d6268014610b9957600080fd5b8063931e2e491161020e578063931e2e4914610a9a57806393ccba7214610ab057806395d89b4114610ad0578063998cfb6e14610ae55780639c05d68d14610b0557600080fd5b80638aa1e4c8146109f25780638da5cb5b14610a12578063916c546b14610a2b57806391b7f5ed14610a4b57806392012f0814610a6b57600080fd5b80633ccfd60b116103665780635eabd84a116102e3578063715018a6116102a7578063715018a61461094157806373ad6c2d146109495780637e2e6c47146109695780638200ea51146109895780638472cbca146109bc57600080fd5b80635eabd84a1461085f5780636352211e1461087f578063667043491461089f57806367d2afe2146108f457806370a082311461092157600080fd5b80634f6ccce71161032a5780634f6ccce7146107d757806354d1f13d146107f7578063550ab247146107ff57806355737f351461081f57806358a976401461083f57600080fd5b80633ccfd60b1461073f57806342842e0e14610754578063438b6300146107745780634a4333a3146107a15780634a60f620146107c157600080fd5b806318160ddd116103f45780632f745c59116103b85780632f745c591461069f5780633044825b146106bf578063306c7334146106df57806333d3d9bf146106ff5780633ab1a4941461071f57600080fd5b806318160ddd1461061857806323b872dd146106375780632569296214610657578063282575321461065f5780632bd1ca451461067f57600080fd5b8063095ea7b31161043b578063095ea7b3146105685780630c83f9d71461058857806313ea0ae3146105b857806314fe8ff4146105d85780631581b600146105f857600080fd5b80621792061461047757806301ffc9a71461049957806304003bd0146104ce57806306fdde031461050e578063081812fc14610530575b600080fd5b34801561048357600080fd5b50610497610492366004614b0a565b610f2f565b005b3480156104a557600080fd5b506104b96104b4366004614b3d565b610f59565b60405190151581526020015b60405180910390f35b3480156104da57600080fd5b506104ee6104e9366004614b5a565b610f6a565b604080516001600160a01b039384168152929091166020830152016104c5565b34801561051a57600080fd5b50610523610f99565b6040516104c59190614bc3565b34801561053c57600080fd5b5061055061054b366004614b5a565b61102b565b6040516001600160a01b0390911681526020016104c5565b34801561057457600080fd5b50610497610583366004614bd6565b611052565b34801561059457600080fd5b506105a86105a3366004614b5a565b6110a3565b6040516104c59493929190614c02565b3480156105c457600080fd5b50601254610550906001600160a01b031681565b3480156105e457600080fd5b506105236105f3366004614b5a565b611264565b34801561060457600080fd5b50601754610550906001600160a01b031681565b34801561062457600080fd5b506008545b6040519081526020016104c5565b34801561064357600080fd5b50610497610652366004614c4c565b6114a8565b6104976114e7565b34801561066b57600080fd5b5061049761067a366004614c8d565b611536565b34801561068b57600080fd5b5061052361069a366004614b5a565b61172f565b3480156106ab57600080fd5b506106296106ba366004614bd6565b6117f3565b3480156106cb57600080fd5b506104976106da366004614b5a565b611889565b3480156106eb57600080fd5b506105236106fa366004614b5a565b611944565b34801561070b57600080fd5b5061049761071a366004614b5a565b611967565b34801561072b57600080fd5b5061049761073a366004614b0a565b611974565b34801561074b57600080fd5b5061049761199e565b34801561076057600080fd5b5061049761076f366004614c4c565b611a1d565b34801561078057600080fd5b5061079461078f366004614b0a565b611a38565b6040516104c59190614caf565b3480156107ad57600080fd5b506104976107bc366004614cf3565b611acf565b3480156107cd57600080fd5b5061062960165481565b3480156107e357600080fd5b506106296107f2366004614b5a565b611e37565b610497611eca565b34801561080b57600080fd5b5061049761081a366004614d5d565b611f06565b34801561082b57600080fd5b5061055061083a366004614c8d565b611f5c565b34801561084b57600080fd5b5061049761085a366004614b0a565b611f94565b34801561086b57600080fd5b5061049761087a366004614b0a565b611fbe565b34801561088b57600080fd5b5061055061089a366004614b5a565b611fe8565b3480156108ab57600080fd5b506108bf6108ba366004614b5a565b612048565b6040516104c594939291906001600160a01b039485168152602081019390935292166040820152901515606082015260800190565b34801561090057600080fd5b5061091461090f366004614b5a565b6120fa565b6040516104c59190614de0565b34801561092d57600080fd5b5061062961093c366004614b0a565b612166565b6104976121ec565b34801561095557600080fd5b50610497610964366004614b0a565b612200565b34801561097557600080fd5b50610497610984366004614b0a565b61222a565b34801561099557600080fd5b506104b96109a4366004614b5a565b6000908152600c60205260409020600b015460ff1690565b3480156109c857600080fd5b506106296109d7366004614b0a565b6001600160a01b03166000908152601b602052604090205490565b3480156109fe57600080fd5b506104b9610a0d366004614c8d565b612254565b348015610a1e57600080fd5b50638b78c6d81954610550565b348015610a3757600080fd5b50610523610a46366004614b5a565b6122c3565b348015610a5757600080fd5b50610497610a66366004614b5a565b6123c6565b348015610a7757600080fd5b50610a8b610a86366004614f04565b6123d3565b6040516104c593929190614ffd565b348015610aa657600080fd5b5061062960195481565b348015610abc57600080fd5b50610497610acb366004615036565b612524565b348015610adc57600080fd5b50610523612590565b348015610af157600080fd5b50610794610b00366004614b0a565b61259f565b348015610b1157600080fd5b50610550610b20366004614b5a565b601a602052600090815260409020546001600160a01b031681565b348015610b4757600080fd5b50610497612615565b348015610b5c57600080fd5b50610794610b6b366004614b5a565b612673565b348015610b7c57600080fd5b5061062960185481565b610497610b94366004614b5a565b612697565b348015610ba557600080fd5b50610523610bb4366004614b5a565b612718565b348015610bc557600080fd5b50610497610bd43660046150d2565b612748565b348015610be557600080fd5b50610bf9610bf4366004614f04565b6127c1565b6040516104c5929190615107565b348015610c1357600080fd5b50610629610c22366004614b0a565b601b6020526000908152604090205481565b348015610c4057600080fd5b50601154610550906001600160a01b031681565b348015610c6057600080fd5b50610497610c6f366004614bd6565b61286f565b348015610c8057600080fd5b50601454610550906001600160a01b031681565b348015610ca057600080fd5b50610497610caf366004615135565b6128df565b348015610cc057600080fd5b50610cd4610ccf366004614b5a565b612911565b6040516104c591906151a0565b348015610ced57600080fd5b50610497610cfc366004615257565b612ab7565b348015610d0d57600080fd5b50601054610550906001600160a01b031681565b348015610d2d57600080fd5b50610523610d3c366004614b5a565b612b62565b348015610d4d57600080fd5b50610497610d5c366004615287565b612ba3565b348015610d6d57600080fd5b50610497610d7c366004614b5a565b612d67565b348015610d8d57600080fd5b50610497610d9c3660046152b7565b612d74565b348015610dad57600080fd5b50610523610dbc366004614b5a565b612ff0565b348015610dcd57600080fd5b50610497610ddc3660046152fd565b6132c2565b348015610ded57600080fd5b5061062960155481565b348015610e0357600080fd5b506104b9610e12366004615320565b6001600160a01b03918216600090815260056020908152604080832093909416825291909152205460ff1690565b610497610e4e366004614b0a565b61338a565b348015610e5f57600080fd5b50610497610e6e36600461534e565b6133c7565b610497610e81366004614b0a565b613414565b348015610e9257600080fd5b50610523610ea1366004614b5a565b61343b565b348015610eb257600080fd5b50601354610550906001600160a01b031681565b348015610ed257600080fd5b50610550610ee1366004614b5a565b6000908152601a60205260409020546001600160a01b031690565b348015610f0857600080fd5b50610629610f17366004614b0a565b63389a75e1600c908152600091909152602090205490565b610f376136c2565b601480546001600160a01b0319166001600160a01b0392909216919091179055565b6000610f64826136dd565b92915050565b600080610f7683611fe8565b6000938452601a60205260409093205492936001600160a01b0390931692915050565b606060008054610fa8906153d3565b80601f0160208091040260200160405190810160405280929190818152602001828054610fd4906153d3565b80156110215780601f10610ff657610100808354040283529160200191611021565b820191906000526020600020905b81548152906001019060200180831161100457829003601f168201915b5050505050905090565b600061103682613702565b506000908152600460205260409020546001600160a01b031690565b61105b81611fe8565b6001600160a01b0316336001600160a01b03161461108b576040516282b42960e81b815260040160405180910390fd5b6110958183613761565b61109f82826137a0565b5050565b600f60205260009081526040902080546001820180549192916110c5906153d3565b80601f01602080910402602001604051908101604052809291908181526020018280546110f1906153d3565b801561113e5780601f106111135761010080835404028352916020019161113e565b820191906000526020600020905b81548152906001019060200180831161112157829003601f168201915b505050505090806002018054611153906153d3565b80601f016020809104026020016040519081016040528092919081815260200182805461117f906153d3565b80156111cc5780601f106111a1576101008083540402835291602001916111cc565b820191906000526020600020905b8154815290600101906020018083116111af57829003601f168201915b5050505050908060030180546111e1906153d3565b80601f016020809104026020016040519081016040528092919081815260200182805461120d906153d3565b801561125a5780601f1061122f5761010080835404028352916020019161125a565b820191906000526020600020905b81548152906001019060200180831161123d57829003601f168201915b5050505050905084565b6060600061127183612673565b90506000601060009054906101000a90046001600160a01b03166001600160a01b0316635c1ef2566040518163ffffffff1660e01b8152600401600060405180830381865afa1580156112c8573d6000803e3d6000fd5b505050506040513d6000823e601f3d908101601f191682016040526112f09190810190615452565b9050600060155483511061130657601554611309565b82515b90506000816001600160401b0381111561132557611325614df3565b60405190808252806020026020018201604052801561135857816020015b60608152602001906001900390816113435790505b50905060005b8281101561141f5760105485516001600160a01b039091169063c77915319087908490811061138f5761138f615486565b60200260200101516040518263ffffffff1660e01b81526004016113b591815260200190565b600060405180830381865afa1580156113d2573d6000803e3d6000fd5b505050506040513d6000823e601f3d908101601f191682016040526113fa9190810190615452565b82828151811061140c5761140c615486565b602090810291909101015260010161135e565b506013548451601554604051631719ff8760e11b81526001600160a01b0390931692632e33ff0e926114599288928792919060040161549c565b600060405180830381865afa158015611476573d6000803e3d6000fd5b505050506040513d6000823e601f3d908101601f1916820160405261149e9190810190615452565b9695505050505050565b6114b2338261380e565b6114d75760405162461bcd60e51b81526004016114ce9061551d565b60405180910390fd5b6114e283838361388c565b505050565b60006202a3006001600160401b03164201905063389a75e1600c5233600052806020600c2055337fdbf36a107da19e49527a7176a1babf963b4b0ff8cde35ee35d6cd8f1f9ac7e1d600080a250565b8161154081611fe8565b6001600160a01b0316336001600160a01b031614611571576040516324adc17160e11b815260040160405180910390fd5b8160000361159257604051630754c7f360e41b815260040160405180910390fd5b600061159e8484613a39565b905060018160078111156115b4576115b461556b565b036115cb576000848152600c602052604090208390555b60028160078111156115df576115df61556b565b036115f9576000848152600c602052604090206001018390555b600381600781111561160d5761160d61556b565b03611627576000848152600c602052604090206002018390555b600481600781111561163b5761163b61556b565b03611655576000848152600c602052604090206003018390555b60058160078111156116695761166961556b565b03611683576000848152600c602052604090206004018390555b60068160078111156116975761169761556b565b036116b1576000848152600c602052604090206005018390555b60078160078111156116c5576116c561556b565b036116df576000848152600c602052604090206006018390555b82846116ea86611fe8565b6001600160a01b0316600080516020615be68339815191528460078111156117145761171461556b565b60405160ff909116815260200160405180910390a450505050565b6060806060600061173f85612911565b905061174a816123d3565b5060105460405163bb12d21d60e01b81529195506001600160a01b0316915063bb12d21d9061177d9084906004016151a0565b600060405180830381865afa15801561179a573d6000803e3d6000fd5b505050506040513d6000823e601f3d908101601f191682016040526117c29190810190615581565b506040519093506117da915084908490602001615608565b6040516020818303038152906040529350505050919050565b60006117fe83612166565b82106118605760405162461bcd60e51b815260206004820152602b60248201527f455243373231456e756d657261626c653a206f776e657220696e646578206f7560448201526a74206f6620626f756e647360a81b60648201526084016114ce565b506001600160a01b03919091166000908152600660209081526040808320938352929052205490565b8061189381611fe8565b6001600160a01b0316336001600160a01b0316146118c4576040516324adc17160e11b815260040160405180910390fd5b6000828152600c60205260408120818155600181018290556002810182905560038101829055600481018290556005810182905560068101919091558261190a81611fe8565b6001600160a01b03167f46078a2cd4c69c3b4a27bdc69fdfe03d442ebcf405f1a68e9b5df6bc3e24429760405160405180910390a3505050565b606080600061195284612911565b905061195d816123d3565b5095945050505050565b61196f6136c2565b601555565b61197c6136c2565b601780546001600160a01b0319166001600160a01b0392909216919091179055565b6119a66136c2565b6017546040516000916001600160a01b03169047908381818185875af1925050503d80600081146119f3576040519150601f19603f3d011682016040523d82523d6000602084013e6119f8565b606091505b5050905080611a1a57604051631d42c86760e21b815260040160405180910390fd5b50565b6114e2838383604051806020016040528060008152506128df565b60606000611a4583612166565b90506000816001600160401b03811115611a6157611a61614df3565b604051908082528060200260200182016040528015611a8a578160200160208202803683370190505b50905060005b82811015611ac757611aa285826117f3565b828281518110611ab457611ab4615486565b6020908102919091010152600101611a90565b509392505050565b87611ad981611fe8565b6001600160a01b0316336001600160a01b031614611b0a576040516324adc17160e11b815260040160405180910390fd5b8715611b7157611b1a8989613abe565b611b25886001613bb6565b6000898152600c602052604090208890558789611b4181611fe8565b6001600160a01b0316600080516020615be6833981519152600160405160ff909116815260200160405180910390a45b8615611bdb57611b818988613abe565b611b8c876002613bb6565b6000898152600c602052604090206001018790558689611bab81611fe8565b6001600160a01b0316600080516020615be6833981519152600260405160ff909116815260200160405180910390a45b8515611c4557611beb8987613abe565b611bf6866003613bb6565b6000898152600c602052604090206002018690558589611c1581611fe8565b6001600160a01b0316600080516020615be6833981519152600360405160ff909116815260200160405180910390a45b8415611caf57611c558986613abe565b611c60856004613bb6565b6000898152600c602052604090206003018590558489611c7f81611fe8565b6001600160a01b0316600080516020615be6833981519152600460405160ff909116815260200160405180910390a45b8315611d1957611cbf8985613abe565b611cca846005613bb6565b6000898152600c602052604090206004018490558389611ce981611fe8565b6001600160a01b0316600080516020615be6833981519152600560405160ff909116815260200160405180910390a45b8215611d8357611d298984613abe565b611d34836006613bb6565b6000898152600c602052604090206005018390558289611d5381611fe8565b6001600160a01b0316600080516020615be6833981519152600660405160ff909116815260200160405180910390a45b8115611ded57611d938983613abe565b611d9e826007613bb6565b6000898152600c602052604090206006018290558189611dbd81611fe8565b6001600160a01b0316600080516020615be6833981519152600760405160ff909116815260200160405180910390a45b88611df78a611fe8565b6001600160a01b03167f56680590212b09eb4b72a2eba8801b037ec046dfc754538e924f5bb6a8c4db6c60405160405180910390a3505050505050505050565b6000611e4260085490565b8210611ea55760405162461bcd60e51b815260206004820152602c60248201527f455243373231456e756d657261626c653a20676c6f62616c20696e646578206f60448201526b7574206f6620626f756e647360a01b60648201526084016114ce565b60088281548110611eb857611eb8615486565b90600052602060002001549050919050565b63389a75e1600c523360005260006020600c2055337ffa7b8eab7da67f412cc9575ed43464468f9bfbae89d1675917346ca6d8fe3c92600080a2565b6000611f1184611fe8565b90506001600160a01b0381163314611f3b576040516282b42960e81b815260040160405180910390fd5b8115611f4b57611f4b8484613761565b611f56818484613cb8565b50505050565b601c6020528160005260406000208181548110611f7857600080fd5b6000918252602090912001546001600160a01b03169150829050565b611f9c6136c2565b601280546001600160a01b0319166001600160a01b0392909216919091179055565b611fc66136c2565b601080546001600160a01b0319166001600160a01b0392909216919091179055565b6000818152600260205260408120546001600160a01b031680610f645760405162461bcd60e51b8152602060048201526018602482015277115490cdcc8c4e881a5b9d985b1a59081d1bdad95b88125160421b60448201526064016114ce565b6010546040516331a9108f60e11b8152600481018390526000918291829182916001600160a01b0390911690636352211e90602401602060405180830381865afa15801561209a573d6000803e3d6000fd5b505050506040513d601f19601f820116820180604052508101906120be9190615637565b6001600160a01b0381166000908152601b602052604090205490945092506120e583611fe8565b91506120f18386612254565b90509193509193565b6000818152601c602090815260409182902080548351818402810184019094528084526060939283018282801561215a57602002820191906000526020600020905b81546001600160a01b0316815260019091019060200180831161213c575b50505050509050919050565b60006001600160a01b0382166121d05760405162461bcd60e51b815260206004820152602960248201527f4552433732313a2061646472657373207a65726f206973206e6f7420612076616044820152683634b21037bbb732b960b91b60648201526084016114ce565b506001600160a01b031660009081526003602052604090205490565b6121f46136c2565b6121fe6000613d7e565b565b6122086136c2565b601180546001600160a01b0319166001600160a01b0392909216919091179055565b6122326136c2565b601380546001600160a01b0319166001600160a01b0392909216919091179055565b60008061226084612911565b80519091508314806122755750828160200151145b806122835750828160400151145b806122915750828160600151145b8061229f5750828160800151145b806122ad5750828160a00151145b806122bb5750828160c00151145b949350505050565b6013546000828152600f602052604080822090516371bed9e160e11b81526060936001600160a01b03169163e37db3c29161230491600201906004016156d1565b600060405180830381865afa158015612321573d6000803e3d6000fd5b505050506040513d6000823e601f3d908101601f191682016040526123499190810190615452565b6013546040516335b07b7960e11b81529192506001600160a01b031690636b60f6f29061237a908490600401614bc3565b600060405180830381865afa158015612397573d6000803e3d6000fd5b505050506040513d6000823e601f3d908101601f191682016040526123bf9190810190615452565b9392505050565b6123ce6136c2565b601855565b60608060606123e984610120015160ff166122c3565b6101208501805160ff9081166000908152600f602052604080822060135494519093168252908190209051630d88d4ff60e01b81526003909201926001600160a01b031691630d88d4ff91612446916001909101906004016156e4565b600060405180830381865afa158015612463573d6000803e3d6000fd5b505050506040513d6000823e601f3d908101601f1916820160405261248b9190810190615452565b818054612497906153d3565b80601f01602080910402602001604051908101604052809291908181526020018280546124c3906153d3565b80156125105780601f106124e557610100808354040283529160200191612510565b820191906000526020600020905b8154815290600101906020018083116124f357829003601f168201915b505050505091509250925092509193909250565b8961252e81611fe8565b6001600160a01b0316336001600160a01b03161461255f576040516324adc17160e11b815260040160405180910390fd5b61256f8b8b8b8b8b8b8b8b611acf565b6125798b846132c2565b6125838b83612d74565b5050505050505050505050565b606060018054610fa8906153d3565b60105460405162438b6360e81b81526001600160a01b03838116600483015260609260009291169063438b630090602401600060405180830381865afa1580156125ed573d6000803e3d6000fd5b505050506040513d6000823e601f3d908101601f191682016040526123bf9190810190615717565b600b5460ff16156121fe5760005b600a81101561263e576126366004612697565b600101612623565b5061266860016040518060400160405280600681526020016533333333333360d11b815250612d74565b6121fe600180612ab7565b6000818152601a60205260409020546060906001600160a01b03166123bf8161259f565b6012546001600160a01b03166126c057604051633390ca8960e21b815260040160405180910390fd5b806000036126e15760405163e7195f5160e01b815260040160405180910390fd5b806018546126ef91906157d2565b341461270e5760405163356680b760e01b815260040160405180910390fd5b611a1a3382613dbc565b6060600061272583612911565b905080610160015161273f5761273a8361343b565b6123bf565b6123bf83612ff0565b80156127b657600061275933611a38565b9050805160000361277c576040516282b42960e81b815260040160405180910390fd5b60005b81518110156127b3576127ab82828151811061279d5761279d615486565b602002602001015185613761565b60010161277f565b50505b61109f338383613cb8565b6060806127d583610120015160ff166122c3565b60135461012085015160ff166000908152600f6020526040908190209051630d88d4ff60e01b81526001600160a01b0390921691630d88d4ff91612821916001909101906004016156e4565b600060405180830381865afa15801561283e573d6000803e3d6000fd5b505050506040513d6000823e601f3d908101601f191682016040526128669190810190615452565b91509150915091565b6128776136c2565b6019541580612887575060195442105b156128a557604051630314872760e11b815260040160405180910390fd5b6019546128b59062093a806157e9565b4211156128d55760405163124212e560e21b815260040160405180910390fd5b61109f8282613dbc565b6128e9338361380e565b6129055760405162461bcd60e51b81526004016114ce9061551d565b611f56848484846140d3565b61298060405180610180016040528060008152602001600081526020016000815260200160008152602001600081526020016000815260200160008152602001600063ffffffff16815260200160008152602001600060ff168152602001606081526020016000151581525090565b6000828152600c60209081526040808320815161018081018352815481526001820154938101939093526002810154918301919091526003810154606083015260048101546080830152600581015460a0830152600681015460c0830152600781015463ffffffff1660e08301526008810154610100830152600981015460ff16610120830152600a8101805461014084019190612a1d906153d3565b80601f0160208091040260200160405190810160405280929190818152602001828054612a49906153d3565b8015612a965780601f10612a6b57610100808354040283529160200191612a96565b820191906000526020600020905b815481529060010190602001808311612a7957829003601f168201915b5050509183525050600b919091015460ff1615156020909101529392505050565b81612ac181611fe8565b6001600160a01b0316336001600160a01b031614612af2576040516324adc17160e11b815260040160405180910390fd5b6000838152600c60205260409020600b01805460ff191683151517905582612b1981611fe8565b6001600160a01b03167f6dd9e2813f787f711671bf91b2e57a72b9b61bc279b934201f3fd29b3b5f8cbe84604051612b55911515815260200190565b60405180910390a3505050565b6000818152600260205260409020546060906001600160a01b0316612b9a57604051631a65aaab60e31b815260040160405180910390fd5b610f6482612718565b81612bad81611fe8565b6001600160a01b0316336001600160a01b031614612bde576040516324adc17160e11b815260040160405180910390fd5b6001826007811115612bf257612bf261556b565b03612c07576000838152600c60205260408120555b6002826007811115612c1b57612c1b61556b565b03612c33576000838152600c60205260408120600101555b6003826007811115612c4757612c4761556b565b03612c5f576000838152600c60205260408120600201555b6004826007811115612c7357612c7361556b565b03612c8b576000838152600c60205260408120600301555b6005826007811115612c9f57612c9f61556b565b03612cb7576000838152600c60205260408120600401555b6006826007811115612ccb57612ccb61556b565b03612ce3576000838152600c60205260408120600501555b6007826007811115612cf757612cf761556b565b03612d0f576000838152600c60205260408120600601555b82612d1984611fe8565b6001600160a01b03167f3d8ac56c725fc7985e9444622a45baee28ba67d8a964045f747b465121f40e71846007811115612d5557612d5561556b565b60405160ff9091168152602001612b55565b612d6f6136c2565b601955565b81612d7e81611fe8565b6001600160a01b0316336001600160a01b031614612daf576040516324adc17160e11b815260040160405180910390fd5b81518290600614612dd357604051631cf7e9c560e01b815260040160405180910390fd5b60408051808201909152600681526503036393432360d41b6020918201528151908201207fc9a8162f44485821dce92aaad6bb1b8cc6d457721d5ae939092ca3297c7dd0a501612e365760405163a3c0b7b960e01b815260040160405180910390fd5b60005b6006811015612f8357603060f81b828281518110612e5957612e59615486565b01602001516001600160f81b03191610801590612e9a5750603960f81b828281518110612e8857612e88615486565b01602001516001600160f81b03191611155b158015612efc5750604160f81b828281518110612eb957612eb9615486565b01602001516001600160f81b03191610801590612efa5750604660f81b828281518110612ee857612ee8615486565b01602001516001600160f81b03191611155b155b8015612f5d5750606160f81b828281518110612f1a57612f1a615486565b01602001516001600160f81b03191610801590612f5b5750606660f81b828281518110612f4957612f49615486565b01602001516001600160f81b03191611155b155b15612f7b57604051631cf7e9c560e01b815260040160405180910390fd5b600101612e39565b506000848152600c60205260409020600a01612f9f8482615844565b5083612faa85611fe8565b6001600160a01b03167f2e34f8c0f6052b66319b4a5df14eac164c6af8a0b37f612d4304a777e1ae7a3d85604051612fe29190614bc3565b60405180910390a350505050565b60608060608060608060608060606130296040518060800160405280606081526020016060815260200160608152602001600081525090565b60006130348c612911565b905061303f816123d3565b60105460405163bb12d21d60e01b8152939d50919a5095506001600160a01b03169063bb12d21d906130759084906004016151a0565b600060405180830381865afa158015613092573d6000803e3d6000fd5b505050506040513d6000823e601f3d908101601f191682016040526130ba9190810190615581565b604051929b5090985095506130d59085908790602001615903565b604051602081830303815290604052925087876040516020016130f9929190615608565b60408051601f198184030181529190526101408201518352955061311c8c612673565b51606083015261012081015160ff166000908152600f602052604090206001018054613147906153d3565b80601f0160208091040260200160405190810160405280929190818152602001828054613173906153d3565b80156131c05780601f10613195576101008083540402835291602001916131c0565b820191906000526020600020905b8154815290600101906020018083116131a357829003601f168201915b505050505082602001819052506131e98c6000908152600c60205260409020600b015460ff1690565b61320d57604051806040016040528060028152602001610c9160f21b815250613229565b604051806040016040528060028152602001610cd160f21b8152505b60408084019190915260145490516367b6032760e11b81526001600160a01b039091169063cf6c064e9061326d908f908e9089908f908c908e908b906004016159c7565b600060405180830381865afa15801561328a573d6000803e3d6000fd5b505050506040513d6000823e601f3d908101601f191682016040526132b29190810190615452565b9c9b505050505050505050505050565b816132cc81611fe8565b6001600160a01b0316336001600160a01b0316146132fd576040516324adc17160e11b815260040160405180910390fd5b60048260ff161115613322576040516329ba348d60e11b815260040160405180910390fd5b6000838152600c60205260409020600901805460ff191660ff84161790558261334a81611fe8565b60405160ff851681526001600160a01b0391909116907f454db5768a3f8187a5dd5e9cca100cf699d74d8a03f793d16da3932cdf34d35890602001612b55565b6133926136c2565b63389a75e1600c52806000526020600c2080544211156133ba57636f5e88186000526004601cfd5b60009055611a1a81613d7e565b6133cf6136c2565b6000848152600f60205260409020848155600181016133ee8582615844565b50600281016133fd8482615844565b506003810161340c8382615844565b505050505050565b61341c6136c2565b8060601b61343257637448fbae6000526004601cfd5b611a1a81613d7e565b606080606080606080600061344f88612911565b905061345a816127c1565b601054604051631be5857160e31b81529298509096506001600160a01b03169063df2c2b889061348e9084906004016151a0565b600060405180830381865afa1580156134ab573d6000803e3d6000fd5b505050506040513d6000823e601f3d908101601f191682016040526134d39190810190615a50565b90945092506134e188611264565b915061350e6040518060800160405280606081526020016060815260200160608152602001600081525090565b610140820151815261351f89612673565b51606082015261012082015160ff166000908152600f60205260409020600101805461354a906153d3565b80601f0160208091040260200160405190810160405280929190818152602001828054613576906153d3565b80156135c35780601f10613598576101008083540402835291602001916135c3565b820191906000526020600020905b8154815290600101906020018083116135a657829003601f168201915b505050505081602001819052506135ec896000908152600c60205260409020600b015460ff1690565b61361057604051806040016040528060028152602001610c9160f21b81525061362c565b604051806040016040528060028152602001610cd160f21b8152505b6040808301919091526013549051630ed2eb5b60e41b81526001600160a01b039091169063ed2eb5b090613670908c908b908b908b908b908b908a906004016159c7565b600060405180830381865afa15801561368d573d6000803e3d6000fd5b505050506040513d6000823e601f3d908101601f191682016040526136b59190810190615452565b9998505050505050505050565b638b78c6d8195433146121fe576382b429006000526004601cfd5b60006001600160e01b0319821663780e9d6360e01b1480610f645750610f6482614106565b6000818152600260205260409020546001600160a01b0316611a1a5760405162461bcd60e51b8152602060048201526018602482015277115490cdcc8c4e881a5b9d985b1a59081d1bdad95b88125160421b60448201526064016114ce565b6000918252601c6020908152604083208054600181018255908452922090910180546001600160a01b0319166001600160a01b03909216919091179055565b600081815260046020526040902080546001600160a01b0319166001600160a01b03841690811790915581906137d582611fe8565b6001600160a01b03167f8c5be1e5ebec7d5bd14f71427d1e84f3dd0314c0f7b2291e5b200ac8c7c3b92560405160405180910390a45050565b60008061381a83611fe8565b9050806001600160a01b0316846001600160a01b0316148061386157506001600160a01b0380821660009081526005602090815260408083209388168352929052205460ff165b806122bb5750836001600160a01b031661387a8461102b565b6001600160a01b031614949350505050565b826001600160a01b031661389f82611fe8565b6001600160a01b0316146139035760405162461bcd60e51b815260206004820152602560248201527f4552433732313a207472616e736665722066726f6d20696e636f72726563742060448201526437bbb732b960d91b60648201526084016114ce565b6001600160a01b0382166139655760405162461bcd60e51b8152602060048201526024808201527f4552433732313a207472616e7366657220746f20746865207a65726f206164646044820152637265737360e01b60648201526084016114ce565b613970838383614156565b61397b6000826137a0565b6001600160a01b03831660009081526003602052604081208054600192906139a4908490615aa9565b90915550506001600160a01b03821660009081526003602052604081208054600192906139d29084906157e9565b909155505060008181526002602052604080822080546001600160a01b0319166001600160a01b0386811691821790925591518493918716917fddf252ad1be2c89b69c2b068fc378daa952ba7f163c4a11628f55a4df523b3ef91a46114e2838383614531565b6000613a458383613abe565b60105460405163e8a1268d60e01b8152600481018490526001600160a01b039091169063e8a1268d90602401602060405180830381865afa158015613a8e573d6000803e3d6000fd5b505050506040513d601f19601f82011682018060405250810190613ab29190615abc565b9050610f648282613bb6565b81613ac881611fe8565b6001600160a01b0316336001600160a01b031614613af9576040516324adc17160e11b815260040160405180910390fd5b6000838152601a60205260408082205460105491516331a9108f60e11b8152600481018690526001600160a01b0391821693929190911690636352211e90602401602060405180830381865afa158015613b57573d6000803e3d6000fd5b505050506040513d601f19601f82011682018060405250810190613b7b9190615637565b9050816001600160a01b0316816001600160a01b031614613baf5760405163e6ca793160e01b815260040160405180910390fd5b5050505050565b60105460405163e8a1268d60e01b8152600481018490526000916001600160a01b03169063e8a1268d90602401602060405180830381865afa158015613c00573d6000803e3d6000fd5b505050506040513d601f19601f82011682018060405250810190613c249190615abc565b9050816007811115613c3857613c3861556b565b604051602001613c4a91815260200190565b60405160208183030381529060405280519060200120816007811115613c7257613c7261556b565b604051602001613c8491815260200190565b60405160208183030381529060405280519060200120146114e257604051633e54c6fb60e11b815260040160405180910390fd5b816001600160a01b0316836001600160a01b031603613d195760405162461bcd60e51b815260206004820152601960248201527f4552433732313a20617070726f766520746f2063616c6c65720000000000000060448201526064016114ce565b6001600160a01b03838116600081815260056020908152604080832094871680845294825291829020805460ff191686151590811790915591519182527f17307eab39ab6107e8899845ad3d59bd9653f200f220920489ca2b5937696c319101612b55565b638b78c6d81980546001600160a01b039092169182907f8be0079c531659141344cd1fd0a4f28419497f9722a3daafe3b4186f6b6457e0600080a355565b60005b818110156114e2576000601660008154613dd890615ad9565b91829055509050613de9848261453b565b604051638a54c52f60e01b81527355266d75d1a14e4572138116af39863ed6596e7f600482015260006024820181905262014a34604483015230606483015260848201839052906f6551c19487814612e58fe0681377575890638a54c52f9060a4016020604051808303816000875af1158015613e6a573d6000803e3d6000fd5b505050506040513d601f19601f82011682018060405250810190613e8e9190615637565b6000838152601a6020908152604080832080546001600160a01b0319166001600160a01b038616908117909155808452601b90925291829020859055905163189acdbd60e31b81527341c8f39463a868d3a88af00cd0fe7102f30e44ec60048201529192509063c4d66de890602401600060405180830381600087803b158015613f1757600080fd5b505af1158015613f2b573d6000803e3d6000fd5b5050601254604051637458922960e11b81526001600160a01b03858116600483015260009450909116915063e8b12452906024016000604051808303816000875af1158015613f7e573d6000803e3d6000fd5b505050506040513d6000823e601f3d908101601f19168201604052613fa69190810190615717565b6000848152600c6020526040812060088101869055825192935091839190613fd057613fd0615486565b6020026020010151816006018190555081600181518110613ff357613ff3615486565b602002602001015181600501819055508160028151811061401657614016615486565b602002602001015181600401819055508160038151811061403957614039615486565b6020026020010151816001018190555060058460405160200161405e91815260200190565b6040516020818303038152906040528051906020012060001c6140819190615af2565b60098201805460ff191660ff929092169190911790556040805180820190915260068152650c110d914e5160d21b6020820152600a8201906140c39082615844565b5050505050806001019050613dbf565b6140de84848461388c565b6140ea84848484614691565b611f565760405162461bcd60e51b81526004016114ce90615b14565b60006001600160e01b031982166380ac58cd60e01b148061413757506001600160e01b03198216635b5e139f60e01b145b80610f6457506301ffc9a760e01b6001600160e01b0319831614610f64565b6001600160a01b03831661416f576114e2838383614792565b6001600160a01b0382166000908152601b6020526040902054156141a657604051639a42da2960e01b815260040160405180910390fd5b6000818152601a602052604080822054601054915162438b6360e81b81526001600160a01b03918216600482018190529392919091169063438b630090602401600060405180830381865afa158015614203573d6000803e3d6000fd5b505050506040513d6000823e601f3d908101601f1916820160405261422b9190810190615717565b9050600061423885611a38565b9050600081516001600160401b0381111561425557614255614df3565b60405190808252806020026020018201604052801561427e578160200160208202803683370190505b50905060005b82518110156142ff57601a60008483815181106142a3576142a3615486565b6020026020010151815260200190815260200160002060009054906101000a90046001600160a01b03168282815181106142df576142df615486565b6001600160a01b0390921660209283029190910190910152600101614284565b5060115460405163644ec52760e01b8152600481018790526001600160a01b039091169063644ec52790602401600060405180830381600087803b15801561434657600080fd5b505af115801561435a573d6000803e3d6000fd5b5050601154604051631e92beb560e31b8152600481018990526001600160a01b038a81166024830152909116925063f495f5a89150604401600060405180830381600087803b1580156143ac57600080fd5b505af11580156143c0573d6000803e3d6000fd5b5050505060005b835181101561451c5760008482815181106143e4576143e4615486565b6020908102919091010151601154604051632e1d274f60e01b8152600481018390529192506001600160a01b031690632e1d274f90602401600060405180830381600087803b15801561443657600080fd5b505af115801561444a573d6000803e3d6000fd5b5050601154604051632333520b60e11b81526001600160a01b039091169250634666a41691506144809084908790600401615b66565b600060405180830381600087803b15801561449a57600080fd5b505af11580156144ae573d6000803e3d6000fd5b505060105460405163487b1c2160e11b8152600481018590526001600160a01b0390911692506390f638429150602401600060405180830381600087803b1580156144f857600080fd5b505af115801561450c573d6000803e3d6000fd5b50505050508060010190506143c7565b50614528878787614792565b50505050505050565b6114e2818461484a565b6001600160a01b0382166145915760405162461bcd60e51b815260206004820181905260248201527f4552433732313a206d696e7420746f20746865207a65726f206164647265737360448201526064016114ce565b6000818152600260205260409020546001600160a01b0316156145f65760405162461bcd60e51b815260206004820152601c60248201527f4552433732313a20746f6b656e20616c7265616479206d696e7465640000000060448201526064016114ce565b61460260008383614156565b6001600160a01b038216600090815260036020526040812080546001929061462b9084906157e9565b909155505060008181526002602052604080822080546001600160a01b0319166001600160a01b03861690811790915590518392907fddf252ad1be2c89b69c2b068fc378daa952ba7f163c4a11628f55a4df523b3ef908290a461109f60008383614531565b60006001600160a01b0384163b1561478757604051630a85bd0160e11b81526001600160a01b0385169063150b7a02906146d5903390899088908890600401615b7f565b6020604051808303816000875af1925050508015614710575060408051601f3d908101601f1916820190925261470d91810190615bb2565b60015b61476d573d80801561473e576040519150601f19603f3d011682016040523d82523d6000602084013e614743565b606091505b5080516000036147655760405162461bcd60e51b81526004016114ce90615b14565b805181602001fd5b6001600160e01b031916630a85bd0160e11b1490506122bb565b506001949350505050565b6001600160a01b0383166147ed576147e881600880546000838152600960205260408120829055600182018355919091527ff3f7a9fe364faab93b216da50a3214154f22a0a2b415b23a84c8169e8b636ee30155565b614810565b816001600160a01b0316836001600160a01b031614614810576148108382614933565b6001600160a01b038216614827576114e2816149d0565b826001600160a01b0316826001600160a01b0316146114e2576114e28282614a7f565b6000828152601c60209081526040808320805482518185028101850190935280835291929091908301828280156148aa57602002820191906000526020600020905b81546001600160a01b0316815260019091019060200180831161488c575b5050506000868152601a60205260408120549394506001600160a01b03909316929150505b825181101561491b576148fd848483815181106148ee576148ee615486565b60200260200101516000613cb8565b614913828483815181106148ee576148ee615486565b6001016148cf565b506000848152601c60205260408120611f5691614ac3565b6000600161494084612166565b61494a9190615aa9565b60008381526007602052604090205490915080821461499d576001600160a01b03841660009081526006602090815260408083208584528252808320548484528184208190558352600790915290208190555b5060009182526007602090815260408084208490556001600160a01b039094168352600681528383209183525290812055565b6008546000906149e290600190615aa9565b60008381526009602052604081205460088054939450909284908110614a0a57614a0a615486565b906000526020600020015490508060088381548110614a2b57614a2b615486565b6000918252602080832090910192909255828152600990915260408082208490558582528120556008805480614a6357614a63615bcf565b6001900381819060005260206000200160009055905550505050565b6000614a8a83612166565b6001600160a01b039093166000908152600660209081526040808320868452825280832085905593825260079052919091209190915550565b5080546000825590600052602060002090810190611a1a91905b80821115614af15760008155600101614add565b5090565b6001600160a01b0381168114611a1a57600080fd5b600060208284031215614b1c57600080fd5b81356123bf81614af5565b6001600160e01b031981168114611a1a57600080fd5b600060208284031215614b4f57600080fd5b81356123bf81614b27565b600060208284031215614b6c57600080fd5b5035919050565b60005b83811015614b8e578181015183820152602001614b76565b50506000910152565b60008151808452614baf816020860160208601614b73565b601f01601f19169290920160200192915050565b6020815260006123bf6020830184614b97565b60008060408385031215614be957600080fd5b8235614bf481614af5565b946020939093013593505050565b848152608060208201526000614c1b6080830186614b97565b8281036040840152614c2d8186614b97565b90508281036060840152614c418185614b97565b979650505050505050565b600080600060608486031215614c6157600080fd5b8335614c6c81614af5565b92506020840135614c7c81614af5565b929592945050506040919091013590565b60008060408385031215614ca057600080fd5b50508035926020909101359150565b6020808252825182820181905260009190848201906040850190845b81811015614ce757835183529284019291840191600101614ccb565b50909695505050505050565b600080600080600080600080610100898b031215614d1057600080fd5b505086359860208801359850604088013597606081013597506080810135965060a0810135955060c0810135945060e0013592509050565b80358015158114614d5857600080fd5b919050565b600080600060608486031215614d7257600080fd5b833592506020840135614d8481614af5565b9150614d9260408501614d48565b90509250925092565b60008151808452602080850194506020840160005b83811015614dd55781516001600160a01b031687529582019590820190600101614db0565b509495945050505050565b6020815260006123bf6020830184614d9b565b634e487b7160e01b600052604160045260246000fd5b60405161018081016001600160401b0381118282101715614e2c57614e2c614df3565b60405290565b604051601f8201601f191681016001600160401b0381118282101715614e5a57614e5a614df3565b604052919050565b803563ffffffff81168114614d5857600080fd5b803560ff81168114614d5857600080fd5b60006001600160401b03821115614ea057614ea0614df3565b50601f01601f191660200190565b600082601f830112614ebf57600080fd5b8135614ed2614ecd82614e87565b614e32565b818152846020838601011115614ee757600080fd5b816020850160208301376000918101602001919091529392505050565b600060208284031215614f1657600080fd5b81356001600160401b0380821115614f2d57600080fd5b908301906101808286031215614f4257600080fd5b614f4a614e09565b823581526020830135602082015260408301356040820152606083013560608201526080830135608082015260a083013560a082015260c083013560c0820152614f9660e08401614e62565b60e08201526101008381013590820152610120614fb4818501614e76565b908201526101408381013583811115614fcc57600080fd5b614fd888828701614eae565b8284015250506101609150614fee828401614d48565b91810191909152949350505050565b6060815260006150106060830186614b97565b82810360208401526150228186614b97565b9050828103604084015261149e8185614b97565b6000806000806000806000806000806101408b8d03121561505657600080fd5b8a35995060208b0135985060408b0135975060608b0135965060808b0135955060a08b0135945060c08b0135935060e08b013592506150986101008c01614e76565b91506101208b01356001600160401b038111156150b457600080fd5b6150c08d828e01614eae565b9150509295989b9194979a5092959850565b600080604083850312156150e557600080fd5b82356150f081614af5565b91506150fe60208401614d48565b90509250929050565b60408152600061511a6040830185614b97565b828103602084015261512c8185614b97565b95945050505050565b6000806000806080858703121561514b57600080fd5b843561515681614af5565b9350602085013561516681614af5565b92506040850135915060608501356001600160401b0381111561518857600080fd5b61519487828801614eae565b91505092959194509250565b6020815281516020820152602082015160408201526040820151606082015260608201516080820152608082015160a082015260a082015160c082015260c082015160e0820152600060e08301516101006152028185018363ffffffff169052565b8401516101208481019190915284015190506101406152258185018360ff169052565b8085015191505061018061016081818601526152456101a0860184614b97565b95015115159301929092525090919050565b6000806040838503121561526a57600080fd5b823591506150fe60208401614d48565b60088110611a1a57600080fd5b6000806040838503121561529a57600080fd5b8235915060208301356152ac8161527a565b809150509250929050565b600080604083850312156152ca57600080fd5b8235915060208301356001600160401b038111156152e757600080fd5b6152f385828601614eae565b9150509250929050565b6000806040838503121561531057600080fd5b823591506150fe60208401614e76565b6000806040838503121561533357600080fd5b823561533e81614af5565b915060208301356152ac81614af5565b6000806000806080858703121561536457600080fd5b8435935060208501356001600160401b038082111561538257600080fd5b61538e88838901614eae565b945060408701359150808211156153a457600080fd5b6153b088838901614eae565b935060608701359150808211156153c657600080fd5b5061519487828801614eae565b600181811c908216806153e757607f821691505b60208210810361540757634e487b7160e01b600052602260045260246000fd5b50919050565b600082601f83011261541e57600080fd5b815161542c614ecd82614e87565b81815284602083860101111561544157600080fd5b6122bb826020830160208701614b73565b60006020828403121561546457600080fd5b81516001600160401b0381111561547a57600080fd5b6122bb8482850161540d565b634e487b7160e01b600052603260045260246000fd5b6080815260006154af6080830187614b97565b6020838203818501528187518084528284019150828160051b850101838a0160005b838110156154ff57601f198784030185526154ed838351614b97565b948601949250908501906001016154d1565b50506040870198909852505050506060909101919091525092915050565b6020808252602e908201527f4552433732313a2063616c6c6572206973206e6f7420746f6b656e206f776e6560408201526d1c881b9bdc88185c1c1c9bdd995960921b606082015260800190565b634e487b7160e01b600052602160045260246000fd5b60008060006060848603121561559657600080fd5b83516001600160401b03808211156155ad57600080fd5b6155b98783880161540d565b945060208601519150808211156155cf57600080fd5b6155db8783880161540d565b935060408601519150808211156155f157600080fd5b506155fe8682870161540d565b9150509250925092565b6000835161561a818460208801614b73565b83519083019061562e818360208801614b73565b01949350505050565b60006020828403121561564957600080fd5b81516123bf81614af5565b60008154615661816153d3565b80855260206001838116801561567e5760018114615698576156c6565b60ff1985168884015283151560051b8801830195506156c6565b866000528260002060005b858110156156be5781548a82018601529083019084016156a3565b890184019650505b505050505092915050565b6020815260006123bf6020830184615654565b604081526009604082015268426f6479205479706560b81b60608201526080602082015260006123bf6080830184615654565b6000602080838503121561572a57600080fd5b82516001600160401b038082111561574157600080fd5b818501915085601f83011261575557600080fd5b81518181111561576757615767614df3565b8060051b9150615778848301614e32565b818152918301840191848101908884111561579257600080fd5b938501935b838510156157b057845182529385019390850190615797565b98975050505050505050565b634e487b7160e01b600052601160045260246000fd5b8082028115828204841417610f6457610f646157bc565b80820180821115610f6457610f646157bc565b601f8211156114e2576000816000526020600020601f850160051c810160208610156158255750805b601f850160051c820191505b8181101561340c57828155600101615831565b81516001600160401b0381111561585d5761585d614df3565b6158718161586b84546153d3565b846157fc565b602080601f8311600181146158a6576000841561588e5750858301515b600019600386901b1c1916600185901b17855561340c565b600085815260208120601f198616915b828110156158d5578886015182559484019460019091019084016158b6565b50858210156158f35787850151600019600388901b60f8161c191681555b5050505050600190811b01905550565b6d2261747472696275746573223a5b60901b8152825160009061592d81600e850160208801614b73565b600b60fa1b600e91840191820152835161594e81600f840160208801614b73565b605d60f81b600f9290910191820152601001949350505050565b600081516080845261597d6080850182614b97565b9050602083015184820360208601526159968282614b97565b915050604083015184820360408601526159b08282614b97565b915050606083015160608501528091505092915050565b87815260e0602082015260006159e060e0830189614b97565b82810360408401526159f28189614b97565b90508281036060840152615a068188614b97565b90508281036080840152615a1a8187614b97565b905082810360a0840152615a2e8186614b97565b905082810360c0840152615a428185615968565b9a9950505050505050505050565b60008060408385031215615a6357600080fd5b82516001600160401b0380821115615a7a57600080fd5b615a868683870161540d565b93506020850151915080821115615a9c57600080fd5b506152f38582860161540d565b81810381811115610f6457610f646157bc565b600060208284031215615ace57600080fd5b81516123bf8161527a565b600060018201615aeb57615aeb6157bc565b5060010190565b600082615b0f57634e487b7160e01b600052601260045260246000fd5b500690565b60208082526032908201527f4552433732313a207472616e7366657220746f206e6f6e20455243373231526560408201527131b2b4bb32b91034b6b83632b6b2b73a32b960711b606082015260800190565b8281526040602082015260006122bb6040830184614d9b565b6001600160a01b038581168252841660208201526040810183905260806060820181905260009061149e90830184614b97565b600060208284031215615bc457600080fd5b81516123bf81614b27565b634e487b7160e01b600052603160045260246000fdfec94c1c47471ed97c1d309bab965192a3e4be3807f42d015b699bfbdcf24dd9f6a26469706673582212205c87d0da1d63b7801220aab99bacf609dc32d5ca97873e45a55b34447bd5089f64736f6c63430008160033","linkReferences":{}},"methodIdentifiers":{"_debugPostConstructorMint()":"9c7be2f1","_nextTokenId()":"4a60f620","addNewBody(uint256,string,bytes,bytes)":"f2361e23","approve(address,uint256)":"095ea7b3","balanceOf(address)":"70a08231","bodyIndexToMetadata(uint256)":"0c83f9d7","cancelOwnershipHandover()":"54d1f13d","checkIfTraitIsEquipped(uint256,uint256)":"8aa1e4c8","chonkIdToApprovedOperators(uint256,uint256)":"55737f35","completeOwnershipHandover(address)":"f04e283e","equip(uint256,uint256)":"28257532","equipAll(uint256,uint256,uint256,uint256,uint256,uint256,uint256,uint256)":"4a4333a3","firstSeasonRenderMinter()":"13ea0ae3","getApproved(uint256)":"081812fc","getBackpackSVGs(uint256)":"14fe8ff4","getBodyImageSvg(uint256)":"916c546b","getBodySVGZmapsAndMetadata((uint256,uint256,uint256,uint256,uint256,uint256,uint256,uint32,uint256,uint8,string,bool))":"92012f08","getBodySvgAndMetadata((uint256,uint256,uint256,uint256,uint256,uint256,uint256,uint32,uint256,uint8,string,bool))":"a23830ae","getBodyZMap(uint256)":"306c7334","getChonkIdForTBAAddress(address)":"8472cbca","getChonkIdToApprovedOperators(uint256)":"67d2afe2","getFullPictureForTrait(uint256)":"66704349","getOwnerAndTBAAddressForChonkId(uint256)":"04003bd0","getPeter(uint256)":"be928ff6","getPeterZMap(uint256)":"2bd1ca45","getTBAAddressForChonkId(uint256)":"f6a0c932","getTokenRenderZ(uint256)":"8200ea51","getTraitTokens(address)":"998cfb6e","getTraitsForChonkId(uint256)":"9f6e4637","isApprovedForAll(address,address)":"e985e9c5","mainRenderer2D()":"f4bec0b6","mainRenderer3D()":"b66ef6e3","marketplace()":"abc8c7af","maxTraitsToOutput()":"e3d21555","mint(uint256)":"a0712d68","mintStartTime()":"931e2e49","name()":"06fdde03","owner()":"8da5cb5b","ownerOf(uint256)":"6352211e","ownershipHandoverExpiresAt(address)":"fee81cf4","peterMakeover(uint256,uint256,uint256,uint256,uint256,uint256,uint256,uint256,uint8,string)":"93ccba72","price()":"a035b1fe","renderAsDataUri(uint256)":"a1d62680","renderAsDataUri2D(uint256)":"f3f8efb9","renderAsDataUri3D(uint256)":"dceef0ec","renounceOwnership()":"715018a6","requestOwnershipHandover()":"25692962","safeTransferFrom(address,address,uint256)":"42842e0e","safeTransferFrom(address,address,uint256,bytes)":"b88d4fde","setApprovalForAll(address,bool)":"a22cb465","setApprovalForAllChonksMarketplace(uint256,address,bool)":"550ab247","setBackgroundColor(uint256,string)":"d68c4f32","setBodyIndex(uint256,uint8)":"e1405540","setFirstSeasonRenderMinter(address)":"58a97640","setMainRenderer2D(address)":"7e2e6c47","setMainRenderer3D(address)":"00179206","setMarketplace(address)":"73ad6c2d","setMaxTraitsToOutput(uint256)":"33d3d9bf","setMintStartTime(uint256)":"d5b3621b","setPrice(uint256)":"91b7f5ed","setTokenRender3D(uint256,bool)":"bef1dfb7","setTraitsContract(address)":"5eabd84a","setWithdrawAddress(address)":"3ab1a494","supportsInterface(bytes4)":"01ffc9a7","symbol()":"95d89b41","tbaAddressToTokenId(address)":"a4bf9a00","teamMint(address,uint256)":"add5a4fa","tokenByIndex(uint256)":"4f6ccce7","tokenIdToTBAAccountAddress(uint256)":"9c05d68d","tokenOfOwnerByIndex(address,uint256)":"2f745c59","tokenURI(uint256)":"c87b56dd","totalSupply()":"18160ddd","traitsContract()":"c093afdb","transferFrom(address,address,uint256)":"23b872dd","transferOwnership(address)":"f2fde38b","unequip(uint256,uint8)":"cdb6dd5c","unequipAll(uint256)":"3044825b","walletOfOwner(address)":"438b6300","withdraw()":"3ccfd60b","withdrawAddress()":"1581b600"},"id":43}