{"abi":[{"type":"constructor","inputs":[{"name":"localDeploy_","type":"bool","internalType":"bool"}],"stateMutability":"nonpayable"},{"type":"function","name":"_debugPostConstructorMint","inputs":[],"outputs":[],"stateMutability":"nonpayable"},{"type":"function","name":"addNewBody","inputs":[{"name":"_bodyIndex","type":"uint256","internalType":"uint256"},{"name":"_bodyName","type":"string","internalType":"string"},{"name":"_colorMap","type":"bytes","internalType":"bytes"},{"name":"_zMap","type":"bytes","internalType":"bytes"}],"outputs":[],"stateMutability":"nonpayable"},{"type":"function","name":"approve","inputs":[{"name":"to","type":"address","internalType":"address"},{"name":"tokenId","type":"uint256","internalType":"uint256"}],"outputs":[],"stateMutability":"nonpayable"},{"type":"function","name":"balanceOf","inputs":[{"name":"owner","type":"address","internalType":"address"}],"outputs":[{"name":"","type":"uint256","internalType":"uint256"}],"stateMutability":"view"},{"type":"function","name":"bodyIndexToMetadata","inputs":[{"name":"","type":"uint256","internalType":"uint256"}],"outputs":[{"name":"bodyIndex","type":"uint256","internalType":"uint256"},{"name":"bodyName","type":"string","internalType":"string"},{"name":"colorMap","type":"bytes","internalType":"bytes"},{"name":"zMap","type":"bytes","internalType":"bytes"}],"stateMutability":"view"},{"type":"function","name":"buyTrait","inputs":[{"name":"_tokenId","type":"uint256","internalType":"uint256"}],"outputs":[],"stateMutability":"nonpayable"},{"type":"function","name":"cancelOwnershipHandover","inputs":[],"outputs":[],"stateMutability":"payable"},{"type":"function","name":"completeOwnershipHandover","inputs":[{"name":"pendingOwner","type":"address","internalType":"address"}],"outputs":[],"stateMutability":"payable"},{"type":"function","name":"equipAccessory","inputs":[{"name":"_peterTokenId","type":"uint256","internalType":"uint256"},{"name":"_traitTokenId","type":"uint256","internalType":"uint256"}],"outputs":[],"stateMutability":"nonpayable"},{"type":"function","name":"equipAll","inputs":[{"name":"_peterTokenId","type":"uint256","internalType":"uint256"},{"name":"_headTokenId","type":"uint256","internalType":"uint256"},{"name":"_hairTokenId","type":"uint256","internalType":"uint256"},{"name":"_faceTokenId","type":"uint256","internalType":"uint256"},{"name":"_accessoryTokenId","type":"uint256","internalType":"uint256"},{"name":"_topTokenId","type":"uint256","internalType":"uint256"},{"name":"_bottomTokenId","type":"uint256","internalType":"uint256"},{"name":"_shoesTokenId","type":"uint256","internalType":"uint256"}],"outputs":[],"stateMutability":"nonpayable"},{"type":"function","name":"equipBottom","inputs":[{"name":"_peterTokenId","type":"uint256","internalType":"uint256"},{"name":"_traitTokenId","type":"uint256","internalType":"uint256"}],"outputs":[],"stateMutability":"nonpayable"},{"type":"function","name":"equipFace","inputs":[{"name":"_peterTokenId","type":"uint256","internalType":"uint256"},{"name":"_traitTokenId","type":"uint256","internalType":"uint256"}],"outputs":[],"stateMutability":"nonpayable"},{"type":"function","name":"equipHair","inputs":[{"name":"_peterTokenId","type":"uint256","internalType":"uint256"},{"name":"_traitTokenId","type":"uint256","internalType":"uint256"}],"outputs":[],"stateMutability":"nonpayable"},{"type":"function","name":"equipHead","inputs":[{"name":"_peterTokenId","type":"uint256","internalType":"uint256"},{"name":"_traitTokenId","type":"uint256","internalType":"uint256"}],"outputs":[],"stateMutability":"nonpayable"},{"type":"function","name":"equipShoes","inputs":[{"name":"_peterTokenId","type":"uint256","internalType":"uint256"},{"name":"_traitTokenId","type":"uint256","internalType":"uint256"}],"outputs":[],"stateMutability":"nonpayable"},{"type":"function","name":"equipTop","inputs":[{"name":"_peterTokenId","type":"uint256","internalType":"uint256"},{"name":"_traitTokenId","type":"uint256","internalType":"uint256"}],"outputs":[],"stateMutability":"nonpayable"},{"type":"function","name":"firstSeasonRenderMinter","inputs":[],"outputs":[{"name":"","type":"address","internalType":"contract FirstSeasonRenderMinter"}],"stateMutability":"view"},{"type":"function","name":"getApproved","inputs":[{"name":"tokenId","type":"uint256","internalType":"uint256"}],"outputs":[{"name":"","type":"address","internalType":"address"}],"stateMutability":"view"},{"type":"function","name":"getBackpackSVGs","inputs":[{"name":"_tokenId","type":"uint256","internalType":"uint256"}],"outputs":[{"name":"backpackSVGs","type":"string","internalType":"string"}],"stateMutability":"view"},{"type":"function","name":"getBodyImage","inputs":[{"name":"colorMap","type":"bytes","internalType":"bytes"}],"outputs":[{"name":"","type":"bytes","internalType":"bytes"}],"stateMutability":"pure"},{"type":"function","name":"getBodyImageSvg","inputs":[{"name":"_index","type":"uint256","internalType":"uint256"}],"outputs":[{"name":"svg","type":"string","internalType":"string"}],"stateMutability":"view"},{"type":"function","name":"getBodySVGZmapsAndMetadata","inputs":[{"name":"storedPeter","type":"tuple","internalType":"struct IPeterStorage.StoredPeter","components":[{"name":"headId","type":"uint256","internalType":"uint256"},{"name":"hairId","type":"uint256","internalType":"uint256"},{"name":"faceId","type":"uint256","internalType":"uint256"},{"name":"accessoryId","type":"uint256","internalType":"uint256"},{"name":"topId","type":"uint256","internalType":"uint256"},{"name":"bottomId","type":"uint256","internalType":"uint256"},{"name":"shoesId","type":"uint256","internalType":"uint256"},{"name":"epoch","type":"uint32","internalType":"uint32"},{"name":"tokenId","type":"uint256","internalType":"uint256"},{"name":"bodyIndex","type":"uint8","internalType":"uint8"},{"name":"backgroundColor","type":"string","internalType":"string"},{"name":"renderZ","type":"bool","internalType":"bool"}]}],"outputs":[{"name":"","type":"string","internalType":"string"},{"name":"","type":"bytes","internalType":"bytes"},{"name":"","type":"string","internalType":"string"}],"stateMutability":"view"},{"type":"function","name":"getBodySvgAndMetadata","inputs":[{"name":"storedPeter","type":"tuple","internalType":"struct IPeterStorage.StoredPeter","components":[{"name":"headId","type":"uint256","internalType":"uint256"},{"name":"hairId","type":"uint256","internalType":"uint256"},{"name":"faceId","type":"uint256","internalType":"uint256"},{"name":"accessoryId","type":"uint256","internalType":"uint256"},{"name":"topId","type":"uint256","internalType":"uint256"},{"name":"bottomId","type":"uint256","internalType":"uint256"},{"name":"shoesId","type":"uint256","internalType":"uint256"},{"name":"epoch","type":"uint32","internalType":"uint32"},{"name":"tokenId","type":"uint256","internalType":"uint256"},{"name":"bodyIndex","type":"uint8","internalType":"uint8"},{"name":"backgroundColor","type":"string","internalType":"string"},{"name":"renderZ","type":"bool","internalType":"bool"}]}],"outputs":[{"name":"","type":"string","internalType":"string"},{"name":"","type":"string","internalType":"string"}],"stateMutability":"view"},{"type":"function","name":"getBodyZMap","inputs":[{"name":"_tokenId","type":"uint256","internalType":"uint256"}],"outputs":[{"name":"","type":"string","internalType":"string"}],"stateMutability":"view"},{"type":"function","name":"getOwnerAndTBAAddressForTokenId","inputs":[{"name":"_tokenId","type":"uint256","internalType":"uint256"}],"outputs":[{"name":"owner","type":"address","internalType":"address"},{"name":"tbaAddress","type":"address","internalType":"address"}],"stateMutability":"view"},{"type":"function","name":"getPeter","inputs":[{"name":"_tokenId","type":"uint256","internalType":"uint256"}],"outputs":[{"name":"","type":"tuple","internalType":"struct IPeterStorage.StoredPeter","components":[{"name":"headId","type":"uint256","internalType":"uint256"},{"name":"hairId","type":"uint256","internalType":"uint256"},{"name":"faceId","type":"uint256","internalType":"uint256"},{"name":"accessoryId","type":"uint256","internalType":"uint256"},{"name":"topId","type":"uint256","internalType":"uint256"},{"name":"bottomId","type":"uint256","internalType":"uint256"},{"name":"shoesId","type":"uint256","internalType":"uint256"},{"name":"epoch","type":"uint32","internalType":"uint32"},{"name":"tokenId","type":"uint256","internalType":"uint256"},{"name":"bodyIndex","type":"uint8","internalType":"uint8"},{"name":"backgroundColor","type":"string","internalType":"string"},{"name":"renderZ","type":"bool","internalType":"bool"}]}],"stateMutability":"view"},{"type":"function","name":"getPeterZMap","inputs":[{"name":"_tokenId","type":"uint256","internalType":"uint256"}],"outputs":[{"name":"","type":"string","internalType":"string"}],"stateMutability":"view"},{"type":"function","name":"getTBAAddressForTokenId","inputs":[{"name":"_tokenId","type":"uint256","internalType":"uint256"}],"outputs":[{"name":"","type":"address","internalType":"address"}],"stateMutability":"view"},{"type":"function","name":"getTokenRenderZ","inputs":[{"name":"_peterTokenId","type":"uint256","internalType":"uint256"}],"outputs":[{"name":"","type":"bool","internalType":"bool"}],"stateMutability":"view"},{"type":"function","name":"getTraitTokens","inputs":[{"name":"_tbaAddress","type":"address","internalType":"address"}],"outputs":[{"name":"","type":"uint256[]","internalType":"uint256[]"}],"stateMutability":"view"},{"type":"function","name":"getTraitsForTokenId","inputs":[{"name":"_tokenId","type":"uint256","internalType":"uint256"}],"outputs":[{"name":"traitTokens","type":"uint256[]","internalType":"uint256[]"}],"stateMutability":"view"},{"type":"function","name":"isApprovedForAll","inputs":[{"name":"owner","type":"address","internalType":"address"},{"name":"operator","type":"address","internalType":"address"}],"outputs":[{"name":"","type":"bool","internalType":"bool"}],"stateMutability":"view"},{"type":"function","name":"mainRenderer","inputs":[],"outputs":[{"name":"","type":"address","internalType":"contract MainRenderer"}],"stateMutability":"view"},{"type":"function","name":"mint","inputs":[],"outputs":[],"stateMutability":"payable"},{"type":"function","name":"mintByLevel","inputs":[{"name":"amount","type":"uint8","internalType":"uint8"},{"name":"nonce","type":"string","internalType":"string"},{"name":"signature","type":"bytes","internalType":"bytes"}],"outputs":[],"stateMutability":"payable"},{"type":"function","name":"name","inputs":[],"outputs":[{"name":"","type":"string","internalType":"string"}],"stateMutability":"view"},{"type":"function","name":"owner","inputs":[],"outputs":[{"name":"result","type":"address","internalType":"address"}],"stateMutability":"view"},{"type":"function","name":"ownerOf","inputs":[{"name":"tokenId","type":"uint256","internalType":"uint256"}],"outputs":[{"name":"","type":"address","internalType":"address"}],"stateMutability":"view"},{"type":"function","name":"ownershipHandoverExpiresAt","inputs":[{"name":"pendingOwner","type":"address","internalType":"address"}],"outputs":[{"name":"result","type":"uint256","internalType":"uint256"}],"stateMutability":"view"},{"type":"function","name":"peterMakeover","inputs":[{"name":"_peterTokenId","type":"uint256","internalType":"uint256"},{"name":"_headTokenId","type":"uint256","internalType":"uint256"},{"name":"_hairTokenId","type":"uint256","internalType":"uint256"},{"name":"_faceTokenId","type":"uint256","internalType":"uint256"},{"name":"_accessoryTokenId","type":"uint256","internalType":"uint256"},{"name":"_topTokenId","type":"uint256","internalType":"uint256"},{"name":"_bottomTokenId","type":"uint256","internalType":"uint256"},{"name":"_shoesTokenId","type":"uint256","internalType":"uint256"},{"name":"_bodyIndex","type":"uint8","internalType":"uint8"},{"name":"_backgroundColor","type":"string","internalType":"string"}],"outputs":[],"stateMutability":"nonpayable"},{"type":"function","name":"price","inputs":[],"outputs":[{"name":"","type":"uint256","internalType":"uint256"}],"stateMutability":"view"},{"type":"function","name":"renderAsDataUri","inputs":[{"name":"_tokenId","type":"uint256","internalType":"uint256"}],"outputs":[{"name":"","type":"string","internalType":"string"}],"stateMutability":"view"},{"type":"function","name":"renderAsDataUriSVG","inputs":[{"name":"_tokenId","type":"uint256","internalType":"uint256"}],"outputs":[{"name":"","type":"string","internalType":"string"}],"stateMutability":"view"},{"type":"function","name":"renderAsDataUriZ","inputs":[{"name":"_tokenId","type":"uint256","internalType":"uint256"}],"outputs":[{"name":"","type":"string","internalType":"string"}],"stateMutability":"view"},{"type":"function","name":"renounceOwnership","inputs":[],"outputs":[],"stateMutability":"payable"},{"type":"function","name":"requestOwnershipHandover","inputs":[],"outputs":[],"stateMutability":"payable"},{"type":"function","name":"safeTransferFrom","inputs":[{"name":"from","type":"address","internalType":"address"},{"name":"to","type":"address","internalType":"address"},{"name":"tokenId","type":"uint256","internalType":"uint256"}],"outputs":[],"stateMutability":"nonpayable"},{"type":"function","name":"safeTransferFrom","inputs":[{"name":"from","type":"address","internalType":"address"},{"name":"to","type":"address","internalType":"address"},{"name":"tokenId","type":"uint256","internalType":"uint256"},{"name":"data","type":"bytes","internalType":"bytes"}],"outputs":[],"stateMutability":"nonpayable"},{"type":"function","name":"setApprovalForAll","inputs":[{"name":"operator","type":"address","internalType":"address"},{"name":"approved","type":"bool","internalType":"bool"}],"outputs":[],"stateMutability":"nonpayable"},{"type":"function","name":"setBackgroundColor","inputs":[{"name":"_peterTokenId","type":"uint256","internalType":"uint256"},{"name":"_color","type":"string","internalType":"string"}],"outputs":[],"stateMutability":"nonpayable"},{"type":"function","name":"setBodyIndex","inputs":[{"name":"_peterTokenId","type":"uint256","internalType":"uint256"},{"name":"_bodyIndex","type":"uint8","internalType":"uint8"}],"outputs":[],"stateMutability":"nonpayable"},{"type":"function","name":"setFirstSeasonRenderMinter","inputs":[{"name":"_dataContract","type":"address","internalType":"address"}],"outputs":[],"stateMutability":"nonpayable"},{"type":"function","name":"setMainRenderer","inputs":[{"name":"_mainRenderer","type":"address","internalType":"address"}],"outputs":[],"stateMutability":"nonpayable"},{"type":"function","name":"setMaxTraitsToOutput","inputs":[{"name":"_maxTraitsToOutput","type":"uint256","internalType":"uint256"}],"outputs":[],"stateMutability":"nonpayable"},{"type":"function","name":"setPrice","inputs":[{"name":"_priceInWei","type":"uint256","internalType":"uint256"}],"outputs":[],"stateMutability":"nonpayable"},{"type":"function","name":"setSystemAddress","inputs":[{"name":"_systemAddress","type":"address","internalType":"address"}],"outputs":[],"stateMutability":"nonpayable"},{"type":"function","name":"setTokenRenderZ","inputs":[{"name":"_peterTokenId","type":"uint256","internalType":"uint256"},{"name":"_renderZ","type":"bool","internalType":"bool"}],"outputs":[],"stateMutability":"nonpayable"},{"type":"function","name":"setTraitsContract","inputs":[{"name":"_address","type":"address","internalType":"contract PeterTraits"}],"outputs":[],"stateMutability":"nonpayable"},{"type":"function","name":"setZRenderer","inputs":[{"name":"_zRenderer","type":"address","internalType":"address"}],"outputs":[],"stateMutability":"nonpayable"},{"type":"function","name":"supportsInterface","inputs":[{"name":"interfaceId","type":"bytes4","internalType":"bytes4"}],"outputs":[{"name":"","type":"bool","internalType":"bool"}],"stateMutability":"view"},{"type":"function","name":"symbol","inputs":[],"outputs":[{"name":"","type":"string","internalType":"string"}],"stateMutability":"view"},{"type":"function","name":"tokenByIndex","inputs":[{"name":"index","type":"uint256","internalType":"uint256"}],"outputs":[{"name":"","type":"uint256","internalType":"uint256"}],"stateMutability":"view"},{"type":"function","name":"tokenIdToTBAAccountAddress","inputs":[{"name":"","type":"uint256","internalType":"uint256"}],"outputs":[{"name":"","type":"uint160","internalType":"uint160"}],"stateMutability":"view"},{"type":"function","name":"tokenOfOwnerByIndex","inputs":[{"name":"owner","type":"address","internalType":"address"},{"name":"index","type":"uint256","internalType":"uint256"}],"outputs":[{"name":"","type":"uint256","internalType":"uint256"}],"stateMutability":"view"},{"type":"function","name":"tokenURI","inputs":[{"name":"_tokenId","type":"uint256","internalType":"uint256"}],"outputs":[{"name":"","type":"string","internalType":"string"}],"stateMutability":"view"},{"type":"function","name":"totalSupply","inputs":[],"outputs":[{"name":"","type":"uint256","internalType":"uint256"}],"stateMutability":"view"},{"type":"function","name":"traitsContract","inputs":[],"outputs":[{"name":"","type":"address","internalType":"contract PeterTraits"}],"stateMutability":"view"},{"type":"function","name":"transferFrom","inputs":[{"name":"from","type":"address","internalType":"address"},{"name":"to","type":"address","internalType":"address"},{"name":"tokenId","type":"uint256","internalType":"uint256"}],"outputs":[],"stateMutability":"nonpayable"},{"type":"function","name":"transferOwnership","inputs":[{"name":"newOwner","type":"address","internalType":"address"}],"outputs":[],"stateMutability":"payable"},{"type":"function","name":"unequipAccessory","inputs":[{"name":"_peterTokenId","type":"uint256","internalType":"uint256"}],"outputs":[],"stateMutability":"nonpayable"},{"type":"function","name":"unequipAll","inputs":[{"name":"_peterTokenId","type":"uint256","internalType":"uint256"}],"outputs":[],"stateMutability":"nonpayable"},{"type":"function","name":"unequipBottom","inputs":[{"name":"_peterTokenId","type":"uint256","internalType":"uint256"}],"outputs":[],"stateMutability":"nonpayable"},{"type":"function","name":"unequipFace","inputs":[{"name":"_peterTokenId","type":"uint256","internalType":"uint256"}],"outputs":[],"stateMutability":"nonpayable"},{"type":"function","name":"unequipHair","inputs":[{"name":"_peterTokenId","type":"uint256","internalType":"uint256"}],"outputs":[],"stateMutability":"nonpayable"},{"type":"function","name":"unequipHead","inputs":[{"name":"_peterTokenId","type":"uint256","internalType":"uint256"}],"outputs":[],"stateMutability":"nonpayable"},{"type":"function","name":"unequipShoes","inputs":[{"name":"_peterTokenId","type":"uint256","internalType":"uint256"}],"outputs":[],"stateMutability":"nonpayable"},{"type":"function","name":"unequipTop","inputs":[{"name":"_peterTokenId","type":"uint256","internalType":"uint256"}],"outputs":[],"stateMutability":"nonpayable"},{"type":"function","name":"walletOfOwner","inputs":[{"name":"_owner","type":"address","internalType":"address"}],"outputs":[{"name":"","type":"uint256[]","internalType":"uint256[]"}],"stateMutability":"view"},{"type":"function","name":"zRenderer","inputs":[],"outputs":[{"name":"","type":"address","internalType":"contract ZRenderer"}],"stateMutability":"view"},{"type":"event","name":"Approval","inputs":[{"name":"owner","type":"address","indexed":true,"internalType":"address"},{"name":"approved","type":"address","indexed":true,"internalType":"address"},{"name":"tokenId","type":"uint256","indexed":true,"internalType":"uint256"}],"anonymous":false},{"type":"event","name":"ApprovalForAll","inputs":[{"name":"owner","type":"address","indexed":true,"internalType":"address"},{"name":"operator","type":"address","indexed":true,"internalType":"address"},{"name":"approved","type":"bool","indexed":false,"internalType":"bool"}],"anonymous":false},{"type":"event","name":"BackgroundColor","inputs":[{"name":"owner","type":"address","indexed":true,"internalType":"address"},{"name":"tokenId","type":"uint256","indexed":true,"internalType":"uint256"},{"name":"color","type":"string","indexed":false,"internalType":"string"}],"anonymous":false},{"type":"event","name":"BatchMetadataUpdate","inputs":[{"name":"_fromTokenId","type":"uint256","indexed":false,"internalType":"uint256"},{"name":"_toTokenId","type":"uint256","indexed":false,"internalType":"uint256"}],"anonymous":false},{"type":"event","name":"BodyIndex","inputs":[{"name":"owner","type":"address","indexed":true,"internalType":"address"},{"name":"tokenId","type":"uint256","indexed":true,"internalType":"uint256"},{"name":"_bodyIndex","type":"uint8","indexed":false,"internalType":"uint8"}],"anonymous":false},{"type":"event","name":"Equip","inputs":[{"name":"owner","type":"address","indexed":true,"internalType":"address"},{"name":"tokenId","type":"uint256","indexed":true,"internalType":"uint256"},{"name":"traitTokenId","type":"uint256","indexed":true,"internalType":"uint256"},{"name":"traitCategory","type":"string","indexed":false,"internalType":"string"}],"anonymous":false},{"type":"event","name":"EquipAll","inputs":[{"name":"owner","type":"address","indexed":true,"internalType":"address"},{"name":"tokenId","type":"uint256","indexed":true,"internalType":"uint256"}],"anonymous":false},{"type":"event","name":"MetadataUpdate","inputs":[{"name":"_tokenId","type":"uint256","indexed":false,"internalType":"uint256"}],"anonymous":false},{"type":"event","name":"Mint","inputs":[{"name":"owner","type":"address","indexed":true,"internalType":"address"},{"name":"tokenId","type":"uint256","indexed":true,"internalType":"uint256"}],"anonymous":false},{"type":"event","name":"OwnershipHandoverCanceled","inputs":[{"name":"pendingOwner","type":"address","indexed":true,"internalType":"address"}],"anonymous":false},{"type":"event","name":"OwnershipHandoverRequested","inputs":[{"name":"pendingOwner","type":"address","indexed":true,"internalType":"address"}],"anonymous":false},{"type":"event","name":"OwnershipTransferred","inputs":[{"name":"oldOwner","type":"address","indexed":true,"internalType":"address"},{"name":"newOwner","type":"address","indexed":true,"internalType":"address"}],"anonymous":false},{"type":"event","name":"RenderZ","inputs":[{"name":"owner","type":"address","indexed":true,"internalType":"address"},{"name":"tokenId","type":"uint256","indexed":true,"internalType":"uint256"},{"name":"renderZ","type":"bool","indexed":false,"internalType":"bool"}],"anonymous":false},{"type":"event","name":"Transfer","inputs":[{"name":"from","type":"address","indexed":true,"internalType":"address"},{"name":"to","type":"address","indexed":true,"internalType":"address"},{"name":"tokenId","type":"uint256","indexed":true,"internalType":"uint256"}],"anonymous":false},{"type":"event","name":"Unequip","inputs":[{"name":"owner","type":"address","indexed":true,"internalType":"address"},{"name":"tokenId","type":"uint256","indexed":true,"internalType":"uint256"},{"name":"traitCategory","type":"string","indexed":true,"internalType":"string"}],"anonymous":false},{"type":"event","name":"UnequipAll","inputs":[{"name":"owner","type":"address","indexed":true,"internalType":"address"},{"name":"tokenId","type":"uint256","indexed":true,"internalType":"uint256"}],"anonymous":false},{"type":"error","name":"AlreadyInitialized","inputs":[]},{"type":"error","name":"BodyAlreadyExists","inputs":[]},{"type":"error","name":"FirstSeasonRenderMinterNotSet","inputs":[]},{"type":"error","name":"IncorrectPeterOwner","inputs":[]},{"type":"error","name":"IncorrectTBAOwner","inputs":[]},{"type":"error","name":"IncorrectTraitType","inputs":[]},{"type":"error","name":"InvalidBodyIndex","inputs":[]},{"type":"error","name":"InvalidColor","inputs":[]},{"type":"error","name":"InvalidLevelAmount","inputs":[]},{"type":"error","name":"InvalidSignature","inputs":[]},{"type":"error","name":"NewOwnerIsZeroAddress","inputs":[]},{"type":"error","name":"NoHandoverRequest","inputs":[]},{"type":"error","name":"NonceAlreadyUsed","inputs":[]},{"type":"error","name":"PeterDoesntExist","inputs":[]},{"type":"error","name":"Unauthorized","inputs":[]}],"bytecode":{"object":"0x6080604052600060105560636012553480156200001b57600080fd5b50604051620062a8380380620062a88339810160408190526200003e9162000106565b6040518060400160405280600a81526020016914195d195c8815195cdd60b21b815250604051806040016040528060058152602001642822aa22a960d91b8152508160009081620000909190620001d8565b5060016200009f8282620001d8565b505050620000b333620000ca60201b60201c565b600a805460ff1916911515919091179055620002a4565b6001600160a01b0316638b78c6d8198190558060007f8be0079c531659141344cd1fd0a4f28419497f9722a3daafe3b4186f6b6457e08180a350565b6000602082840312156200011957600080fd5b815180151581146200012a57600080fd5b9392505050565b634e487b7160e01b600052604160045260246000fd5b600181811c908216806200015c57607f821691505b6020821081036200017d57634e487b7160e01b600052602260045260246000fd5b50919050565b601f821115620001d3576000816000526020600020601f850160051c81016020861015620001ae5750805b601f850160051c820191505b81811015620001cf57828155600101620001ba565b5050505b505050565b81516001600160401b03811115620001f457620001f462000131565b6200020c8162000205845462000147565b8462000183565b602080601f8311600181146200024457600084156200022b5750858301515b600019600386901b1c1916600185901b178555620001cf565b600085815260208120601f198616915b82811015620002755788860151825594840194600190910190840162000254565b5085821015620002945787850151600019600388901b60f8161c191681555b5050505050600190811b01905550565b615ff480620002b46000396000f3fe6080604052600436106104685760003560e01c806370a082311161024a578063a1d6268011610139578063d5b55c8b116100b6578063f04e283e1161007a578063f04e283e14610e19578063f18dc22d14610e2c578063f2361e2314610e4c578063f2fde38b14610e6c578063fee81cf414610e7f57600080fd5b8063d5b55c8b14610d50578063d68c4f3214610d70578063e140554014610d90578063e37db3c214610db0578063e985e9c514610dd057600080fd5b8063be928ff6116100fd578063be928ff614610c90578063c093afdb14610cbd578063c87b56dd14610cdd578063cc9a5d3714610cfd578063cef80d4a14610d3d57600080fd5b8063a1d6268014610be2578063a22cb46514610c02578063a23830ae14610c22578063b28fbe4014610c50578063b88d4fde14610c7057600080fd5b806392012f08116101c75780639c05d68d1161018b5780639c05d68d14610b415780639c76201514610b775780639c7be2f114610b97578063a035b1fe14610bac578063a15c561b14610bc257600080fd5b806392012f0814610a9d57806393ccba7214610acc57806394cbd9c414610aec57806395d89b4114610b0c578063998cfb6e14610b2157600080fd5b8063850ad51a1161020e578063850ad51a146109ee5780638da5cb5b14610a0e5780638e29d3e914610a27578063916c546b14610a5d57806391b7f5ed14610a7d57600080fd5b806370a0823114610952578063715018a6146109725780637557f2dc1461097a5780637afe8d341461099a5780638200ea51146109ba57600080fd5b80632bd1ca45116103665780634ddb3961116102e35780635eabd84a116102a75780635eabd84a146108b257806360b77b23146108d25780636273ca2c146108f25780636352211e1461091257806366b89b5a1461093257600080fd5b80634ddb39611461082a5780634f6ccce71461084a57806354d1f13d1461086a57806358180d351461087257806358a976401461089257600080fd5b8063347bd8f41161032a578063347bd8f41461077d57806342842e0e1461079d578063438b6300146107bd57806345a10d0f146107ea5780634a4333a31461080a57600080fd5b80632bd1ca45146106dd5780632f745c59146106fd5780633044825b1461071d578063306c73341461073d57806333d3d9bf1461075d57600080fd5b8063105338e0116103f457806318160ddd116103b857806318160ddd146106565780631e162a331461067557806323b872dd1461069557806325692962146106b5578063293ed3f7146106bd57600080fd5b8063105338e0146105ce5780631249c58b146105ee57806313ea0ae3146105f657806314fe8ff414610616578063172b054d1461063657600080fd5b806307f4e0451161043b57806307f4e04514610506578063081812fc14610526578063095ea7b31461055e5780630c83f9d71461057e5780630f162320146105ae57600080fd5b806301ffc9a71461046d5780630447a45e146104a257806306210197146104c457806306fdde03146104e4575b600080fd5b34801561047957600080fd5b5061048d6104883660046147eb565b610eb2565b60405190151581526020015b60405180910390f35b3480156104ae57600080fd5b506104c26104bd366004614808565b610ec3565b005b3480156104d057600080fd5b506104c26104df36600461483f565b610f45565b3480156104f057600080fd5b506104f9610f6f565b60405161049991906148ac565b34801561051257600080fd5b506104c26105213660046148d4565b611001565b34801561053257600080fd5b50610546610541366004614900565b61107a565b6040516001600160a01b039091168152602001610499565b34801561056a57600080fd5b506104c2610579366004614919565b6110a1565b34801561058a57600080fd5b5061059e610599366004614900565b6111bb565b6040516104999493929190614945565b3480156105ba57600080fd5b506104c26105c9366004614808565b61137c565b3480156105da57600080fd5b506104c26105e9366004614900565b6113ed565b6104c2611465565b34801561060257600080fd5b50601454610546906001600160a01b031681565b34801561062257600080fd5b506104f9610631366004614900565b611471565b34801561064257600080fd5b506104c261065136600461483f565b6116ea565b34801561066257600080fd5b506008545b604051908152602001610499565b34801561068157600080fd5b506104c2610690366004614808565b611714565b3480156106a157600080fd5b506104c26106b036600461498f565b611782565b6104c26117b3565b3480156106c957600080fd5b506104c26106d8366004614900565b611802565b3480156106e957600080fd5b506104f96106f8366004614900565b611839565b34801561070957600080fd5b50610667610718366004614919565b6118fd565b34801561072957600080fd5b506104c2610738366004614900565b611993565b34801561074957600080fd5b506104f9610758366004614900565b611a1b565b34801561076957600080fd5b506104c2610778366004614900565b611a3e565b34801561078957600080fd5b506104c2610798366004614900565b611a4b565b3480156107a957600080fd5b506104c26107b836600461498f565b611a7c565b3480156107c957600080fd5b506107dd6107d836600461483f565b611a97565b60405161049991906149d0565b3480156107f657600080fd5b506104c2610805366004614808565b611b2e565b34801561081657600080fd5b506104c2610825366004614a14565b611ba1565b34801561083657600080fd5b506104c261084536600461483f565b611c5a565b34801561085657600080fd5b50610667610865366004614900565b611c84565b6104c2611d17565b34801561087e57600080fd5b506104c261088d366004614900565b611d53565b34801561089e57600080fd5b506104c26108ad36600461483f565b611d86565b3480156108be57600080fd5b506104c26108cd36600461483f565b611db0565b3480156108de57600080fd5b506104c26108ed366004614808565b611dda565b3480156108fe57600080fd5b506104c261090d366004614900565b611e4c565b34801561091e57600080fd5b5061054661092d366004614900565b611ed0565b34801561093e57600080fd5b50601554610546906001600160a01b031681565b34801561095e57600080fd5b5061066761096d36600461483f565b611f30565b6104c2611fb6565b34801561098657600080fd5b506104f9610995366004614900565b611fc8565b3480156109a657600080fd5b506104c26109b5366004614900565b612293565b3480156109c657600080fd5b5061048d6109d5366004614900565b6000908152600b60208190526040909120015460ff1690565b3480156109fa57600080fd5b506107dd610a09366004614900565b6122c2565b348015610a1a57600080fd5b50638b78c6d81954610546565b348015610a3357600080fd5b50610546610a42366004614900565b6000908152601360205260409020546001600160a01b031690565b348015610a6957600080fd5b506104f9610a78366004614900565b6122ed565b348015610a8957600080fd5b506104c2610a98366004614900565b61240a565b348015610aa957600080fd5b50610abd610ab8366004614b7a565b612417565b60405161049993929190614c73565b348015610ad857600080fd5b506104c2610ae7366004614cb6565b6125b5565b348015610af857600080fd5b506104c2610b07366004614808565b6125e5565b348015610b1857600080fd5b506104f9612656565b348015610b2d57600080fd5b506107dd610b3c36600461483f565b612665565b348015610b4d57600080fd5b50610546610b5c366004614900565b6013602052600090815260409020546001600160a01b031681565b348015610b8357600080fd5b506104c2610b92366004614900565b6126db565b348015610ba357600080fd5b506104c261270f565b348015610bb857600080fd5b5061066760115481565b348015610bce57600080fd5b50601654610546906001600160a01b031681565b348015610bee57600080fd5b506104f9610bfd366004614900565b61276b565b348015610c0e57600080fd5b506104c2610c1d366004614d52565b61279b565b348015610c2e57600080fd5b50610c42610c3d366004614b7a565b6127aa565b604051610499929190614d7e565b348015610c5c57600080fd5b506104f9610c6b366004614900565b612815565b348015610c7c57600080fd5b506104c2610c8b366004614dac565b612a95565b348015610c9c57600080fd5b50610cb0610cab366004614900565b612acd565b6040516104999190614e17565b348015610cc957600080fd5b50600f54610546906001600160a01b031681565b348015610ce957600080fd5b506104f9610cf8366004614900565b612c73565b348015610d0957600080fd5b50610d1d610d18366004614900565b612cb4565b604080516001600160a01b03938416815292909116602083015201610499565b6104c2610d4b366004614f10565b612ce3565b348015610d5c57600080fd5b506104c2610d6b366004614900565b612dee565b348015610d7c57600080fd5b506104c2610d8b366004614f90565b612e20565b348015610d9c57600080fd5b506104c2610dab366004614fd6565b613013565b348015610dbc57600080fd5b506104f9610dcb366004614ff9565b6130b2565b348015610ddc57600080fd5b5061048d610deb36600461502d565b6001600160a01b03918216600090815260056020908152604080832093909416825291909152205460ff1690565b6104c2610e2736600461483f565b613364565b348015610e3857600080fd5b506104c2610e47366004614808565b6133a4565b348015610e5857600080fd5b506104c2610e67366004615066565b613414565b6104c2610e7a36600461483f565b613461565b348015610e8b57600080fd5b50610667610e9a36600461483f565b63389a75e1600c908152600091909152602090205490565b6000610ebd82613488565b92915050565b610ecd82826134ad565b610ed881600461356c565b6000828152600b602052604090206003018190558082610ef781611ed0565b6001600160a01b0316600080516020615a9a833981519152604051610f39906020808252600990820152684163636573736f727960b81b604082015260600190565b60405180910390a45050565b610f4d61366e565b601880546001600160a01b0319166001600160a01b0392909216919091179055565b606060008054610f7e906150eb565b80601f0160208091040260200160405190810160405280929190818152602001828054610faa906150eb565b8015610ff75780601f10610fcc57610100808354040283529160200191610ff7565b820191906000526020600020905b815481529060010190602001808311610fda57829003601f168201915b5050505050905090565b61100a82613689565b6000828152600b6020819052604090912001805460ff19168215151790558161103281611ed0565b6001600160a01b03167f0b42132106437554485bc84e473475fc8313b019bfc026285cf6ed57639803b88360405161106e911515815260200190565b60405180910390a35050565b6000611085826136c3565b506000908152600460205260409020546001600160a01b031690565b60006110ac82611ed0565b9050806001600160a01b0316836001600160a01b03160361111e5760405162461bcd60e51b815260206004820152602160248201527f4552433732313a20617070726f76616c20746f2063757272656e74206f776e656044820152603960f91b60648201526084015b60405180910390fd5b336001600160a01b038216148061113a575061113a8133610deb565b6111ac5760405162461bcd60e51b815260206004820152603e60248201527f4552433732313a20617070726f76652063616c6c6572206973206e6f7420746f60448201527f6b656e206f776e6572206e6f7220617070726f76656420666f7220616c6c00006064820152608401611115565b6111b68383613722565b505050565b600e60205260009081526040902080546001820180549192916111dd906150eb565b80601f0160208091040260200160405190810160405280929190818152602001828054611209906150eb565b80156112565780601f1061122b57610100808354040283529160200191611256565b820191906000526020600020905b81548152906001019060200180831161123957829003601f168201915b50505050509080600201805461126b906150eb565b80601f0160208091040260200160405190810160405280929190818152602001828054611297906150eb565b80156112e45780601f106112b9576101008083540402835291602001916112e4565b820191906000526020600020905b8154815290600101906020018083116112c757829003601f168201915b5050505050908060030180546112f9906150eb565b80601f0160208091040260200160405190810160405280929190818152602001828054611325906150eb565b80156113725780601f1061134757610100808354040283529160200191611372565b820191906000526020600020905b81548152906001019060200180831161135557829003601f168201915b5050505050905084565b61138682826134ad565b61139181600361356c565b6000828152600b6020526040902060020181905580826113b081611ed0565b6001600160a01b0316600080516020615a9a833981519152604051610f39906020808252600490820152634661636560e01b604082015260600190565b6113f681613689565b6000818152600b60205260408082206001019190915551632430b4b960e11b81526004015b60405180910390208161142d83611ed0565b6001600160a01b03167fe428b1839105819dce5e635ac7e16ed2a43028f6e294bab8655e29acb5dc60bb60405160405180910390a450565b61146f6004613790565b565b6060600061147e836122c2565b905060006040518060400160405280601b81526020017f3c7376672076696577426f783d223020302031353020313530223e000000000081525090506000604051806040016040528060068152602001651e17b9bb339f60d11b815250905060606000600f60009054906101000a90046001600160a01b03166001600160a01b0316635c1ef2566040518163ffffffff1660e01b8152600401600060405180830381865afa158015611534573d6000803e3d6000fd5b505050506040513d6000823e601f3d908101601f1916820160405261155c9190810190615175565b9050600060125486511061157257601254611575565b85515b90506040518061054001604052806105058152602001615aba6105059139826040516020016115a59291906151a9565b604051602081830303815290604052925060005b8181101561168a57600f5487516000916001600160a01b03169063c7791531908a90859081106115eb576115eb615200565b60200260200101516040518263ffffffff1660e01b815260040161161191815260200190565b600060405180830381865afa15801561162e573d6000803e3d6000fd5b505050506040513d6000823e601f3d908101601f191682016040526116569190810190615175565b90508487828860405160200161166f9493929190615216565b60408051601f198184030181529190529450506001016115b9565b50601254865111156116bd578285856040516020016116ab9392919061526d565b60405160208183030381529060405292505b826040516020016116ce9190615388565b60408051601f1981840301815291905298975050505050505050565b6116f261366e565b601680546001600160a01b0319166001600160a01b0392909216919091179055565b61171e82826134ad565b61172981600161356c565b6000828152600b60205260409020819055808261174581611ed0565b6001600160a01b0316600080516020615a9a833981519152604051610f39906020808252600490820152631219585960e21b604082015260600190565b61178c3382613ae2565b6117a85760405162461bcd60e51b8152600401611115906153b0565b6111b6838383613b61565b60006202a3006001600160401b03164201905063389a75e1600c5233600052806020600c2055337fdbf36a107da19e49527a7176a1babf963b4b0ff8cde35ee35d6cd8f1f9ac7e1d600080a250565b61180b81613689565b6000818152600b60205260408082206003019190915551684163636573736f727960b81b815260090161141b565b6060806060600061184985612acd565b905061185481612417565b50600f5460405163bb12d21d60e01b81529195506001600160a01b0316915063bb12d21d90611887908490600401614e17565b600060405180830381865afa1580156118a4573d6000803e3d6000fd5b505050506040513d6000823e601f3d908101601f191682016040526118cc91908101906153fe565b506040519093506118e491508490849060200161549c565b6040516020818303038152906040529350505050919050565b600061190883611f30565b821061196a5760405162461bcd60e51b815260206004820152602b60248201527f455243373231456e756d657261626c653a206f776e657220696e646578206f7560448201526a74206f6620626f756e647360a81b6064820152608401611115565b506001600160a01b03919091166000908152600660209081526040808320938352929052205490565b61199c81613689565b6000818152600b6020526040812081815560018101829055600281018290556003810182905560048101829055600581018290556006810191909155816119e281611ed0565b6001600160a01b03167f46078a2cd4c69c3b4a27bdc69fdfe03d442ebcf405f1a68e9b5df6bc3e24429760405160405180910390a35050565b6060806000611a2984612acd565b9050611a3481612417565b5095945050505050565b611a4661366e565b601255565b611a5481613689565b6000818152600b60205260408082206004019190915551620546f760ec1b815260030161141b565b6111b683838360405180602001604052806000815250612a95565b60606000611aa483611f30565b90506000816001600160401b03811115611ac057611ac0614a69565b604051908082528060200260200182016040528015611ae9578160200160208202803683370190505b50905060005b82811015611b2657611b0185826118fd565b828281518110611b1357611b13615200565b6020908102919091010152600101611aef565b509392505050565b611b3882826134ad565b611b4381600661356c565b6000828152600b602052604090206005018190558082611b6281611ed0565b6001600160a01b0316600080516020615a9a833981519152604051610f3990602080825260069082015265426f74746f6d60d01b604082015260600190565b8615611bb157611bb18888611714565b8515611bc157611bc188876125e5565b8415611bd157611bd1888661137c565b8315611be157611be18885610ec3565b8215611bf157611bf188846133a4565b8115611c0157611c018883611b2e565b8015611c1157611c118882611dda565b87611c1b89611ed0565b6001600160a01b03167f56680590212b09eb4b72a2eba8801b037ec046dfc754538e924f5bb6a8c4db6c60405160405180910390a35050505050505050565b611c6261366e565b601580546001600160a01b0319166001600160a01b0392909216919091179055565b6000611c8f60085490565b8210611cf25760405162461bcd60e51b815260206004820152602c60248201527f455243373231456e756d657261626c653a20676c6f62616c20696e646578206f60448201526b7574206f6620626f756e647360a01b6064820152608401611115565b60088281548110611d0557611d05615200565b90600052602060002001549050919050565b63389a75e1600c523360005260006020600c2055337ffa7b8eab7da67f412cc9575ed43464468f9bfbae89d1675917346ca6d8fe3c92600080a2565b611d5c81613689565b6000818152600b602052604080822060060191909155516453686f657360d81b815260050161141b565b611d8e61366e565b601480546001600160a01b0319166001600160a01b0392909216919091179055565b611db861366e565b600f80546001600160a01b0319166001600160a01b0392909216919091179055565b611de482826134ad565b611def81600761356c565b6000828152600b602052604090206006018190558082611e0e81611ed0565b6001600160a01b0316600080516020615a9a833981519152604051610f399060208082526005908201526453686f657360d81b604082015260600190565b6000818152601360205260409081902054600f5491516340d097c360e01b81526001600160a01b03918216600482018190529291909116906340d097c3906024016020604051808303816000875af1158015611eac573d6000803e3d6000fd5b505050506040513d601f19601f820116820180604052508101906111b691906154cb565b6000818152600260205260408120546001600160a01b031680610ebd5760405162461bcd60e51b8152602060048201526018602482015277115490cdcc8c4e881a5b9d985b1a59081d1bdad95b88125160421b6044820152606401611115565b60006001600160a01b038216611f9a5760405162461bcd60e51b815260206004820152602960248201527f4552433732313a2061646472657373207a65726f206973206e6f7420612076616044820152683634b21037bbb732b960b91b6064820152608401611115565b506001600160a01b031660009081526003602052604090205490565b611fbe61366e565b61146f6000613d08565b60608060608060608060608060606120016040518060800160405280606081526020016060815260200160608152602001600081525090565b600061200c8c612acd565b905061201781612417565b600f5460405163bb12d21d60e01b8152939d50919a5095506001600160a01b03169063bb12d21d9061204d908490600401614e17565b600060405180830381865afa15801561206a573d6000803e3d6000fd5b505050506040513d6000823e601f3d908101601f1916820160405261209291908101906153fe565b604051929b5090985095506120ad90859087906020016154e4565b604051602081830303815290604052925087876040516020016120d192919061549c565b60408051601f19818403018152919052610140820151835295506120f48c6122c2565b51606083015261012081015160ff166000908152600e60205260409020600101805461211f906150eb565b80601f016020809104026020016040519081016040528092919081815260200182805461214b906150eb565b80156121985780601f1061216d57610100808354040283529160200191612198565b820191906000526020600020905b81548152906001019060200180831161217b57829003601f168201915b505050506020808501929092525060008d8152600b9182905260409020015460ff166121de57604051806040016040528060028152602001610c9160f21b8152506121fa565b604051806040016040528060028152602001610cd160f21b8152505b60408084019190915260165490516332d01b2560e21b81526001600160a01b039091169063cb406c949061223e908f908e9089908f908c908e908b906004016155a8565b600060405180830381865afa15801561225b573d6000803e3d6000fd5b505050506040513d6000823e601f3d908101601f191682016040526122839190810190615175565b9c9b505050505050505050505050565b61229c81613689565b6000818152600b60205260408082209190915551631219585960e21b815260040161141b565b6000818152601360205260409020546060906001600160a01b03166122e681612665565b9392505050565b6000818152600e6020526040812060020180546060929161239491612311906150eb565b80601f016020809104026020016040519081016040528092919081815260200182805461233d906150eb565b801561238a5780601f1061235f5761010080835404028352916020019161238a565b820191906000526020600020905b81548152906001019060200180831161236d57829003601f168201915b50505050506130b2565b6015546040516335b07b7960e11b81529192506001600160a01b031690636b60f6f2906123c59084906004016148ac565b600060405180830381865afa1580156123e2573d6000803e3d6000fd5b505050506040513d6000823e601f3d908101601f191682016040526122e69190810190615175565b61241261366e565b601155565b606080606061242d84610120015160ff166122ed565b600e600086610120015160ff16815260200190815260200160002060030161251c60405180604001604052806009815260200168426f6479205479706560b81b815250600e600089610120015160ff1681526020019081526020016000206001018054612499906150eb565b80601f01602080910402602001604051908101604052809291908181526020018280546124c5906150eb565b80156125125780601f106124e757610100808354040283529160200191612512565b820191906000526020600020905b8154815290600101906020018083116124f557829003601f168201915b5050505050613d46565b818054612528906150eb565b80601f0160208091040260200160405190810160405280929190818152602001828054612554906150eb565b80156125a15780601f10612576576101008083540402835291602001916125a1565b820191906000526020600020905b81548152906001019060200180831161258457829003601f168201915b505050505091509250925092509193909250565b6125c58a8a8a8a8a8a8a8a611ba1565b6125cf8a83613013565b6125d98a82612e20565b50505050505050505050565b6125ef82826134ad565b6125fa81600261356c565b6000828152600b60205260409020600101819055808261261981611ed0565b6001600160a01b0316600080516020615a9a833981519152604051610f39906020808252600490820152632430b4b960e11b604082015260600190565b606060018054610f7e906150eb565b600f5460405162438b6360e81b81526001600160a01b03838116600483015260609260009291169063438b630090602401600060405180830381865afa1580156126b3573d6000803e3d6000fd5b505050506040513d6000823e601f3d908101601f191682016040526122e69190810190615631565b6126e481613689565b6000818152600b6020526040808220600501919091555165426f74746f6d60d01b815260060161141b565b600a5460ff161561146f5760005b60648110156127365761272e611465565b60010161271d565b5061276060016040518060400160405280600681526020016533333333333360d11b815250612e20565b61146f600180611001565b6060600061277883612acd565b90508061016001516127925761278d83612815565b6122e6565b6122e683611fc8565b6127a6338383613d72565b5050565b6060806127be83610120015160ff166122ed565b61280c60405180604001604052806009815260200168426f6479205479706560b81b815250600e600087610120015160ff1681526020019081526020016000206001018054612499906150eb565b91509150915091565b606080606080606080600061282988612acd565b9050612834816127aa565b600f54604051631be5857160e31b81529298509096506001600160a01b03169063df2c2b8890612868908490600401614e17565b600060405180830381865afa158015612885573d6000803e3d6000fd5b505050506040513d6000823e601f3d908101601f191682016040526128ad91908101906156d6565b90945092506128bb88611471565b91506128e86040518060800160405280606081526020016060815260200160608152602001600081525090565b61014082015181526128f9896122c2565b51606082015261012082015160ff166000908152600e602052604090206001018054612924906150eb565b80601f0160208091040260200160405190810160405280929190818152602001828054612950906150eb565b801561299d5780601f106129725761010080835404028352916020019161299d565b820191906000526020600020905b81548152906001019060200180831161298057829003601f168201915b505050506020808401929092525060008a8152600b9182905260409020015460ff166129e357604051806040016040528060028152602001610c9160f21b8152506129ff565b604051806040016040528060028152602001610cd160f21b8152505b6040808301919091526015549051634e2fa37760e11b81526001600160a01b0390911690639c5f46ee90612a43908c908b908b908b908b908b908a906004016155a8565b600060405180830381865afa158015612a60573d6000803e3d6000fd5b505050506040513d6000823e601f3d908101601f19168201604052612a889190810190615175565b9998505050505050505050565b612a9f3383613ae2565b612abb5760405162461bcd60e51b8152600401611115906153b0565b612ac784848484613e38565b50505050565b612b3c60405180610180016040528060008152602001600081526020016000815260200160008152602001600081526020016000815260200160008152602001600063ffffffff16815260200160008152602001600060ff168152602001606081526020016000151581525090565b6000828152600b60209081526040808320815161018081018352815481526001820154938101939093526002810154918301919091526003810154606083015260048101546080830152600581015460a0830152600681015460c0830152600781015463ffffffff1660e08301526008810154610100830152600981015460ff16610120830152600a8101805461014084019190612bd9906150eb565b80601f0160208091040260200160405190810160405280929190818152602001828054612c05906150eb565b8015612c525780601f10612c2757610100808354040283529160200191612c52565b820191906000526020600020905b815481529060010190602001808311612c3557829003601f168201915b5050509183525050600b919091015460ff1615156020909101529392505050565b6000818152600260205260409020546060906001600160a01b0316612cab57604051631a65aaab60e31b815260040160405180910390fd5b610ebd8261276b565b600080612cc083611ed0565b6000938452601360205260409093205492936001600160a01b0390931692915050565b60048560ff161080612cf8575060078560ff16115b15612d16576040516367af3f5360e01b815260040160405180910390fd5b612d4b338585604051602001612d2e9392919061572f565b604051602081830303815290604052805190602001208383613e6b565b612d6857604051638baa579f60e01b815260040160405180910390fd5b60178484604051612d7a92919061575b565b9081526040519081900360200190205460ff1615612daa57604051623f613760e71b815260040160405180910390fd5b612db385613790565b600160178585604051612dc792919061575b565b908152604051908190036020019020805491151560ff199092169190911790555050505050565b612df781613689565b6000818152600b60205260408082206002019190915551634661636560e01b815260040161141b565b612e2982613689565b8051600003612e36575050565b80518190600614612e5a57604051631cf7e9c560e01b815260040160405180910390fd5b60005b6006811015612fa757603060f81b828281518110612e7d57612e7d615200565b01602001516001600160f81b03191610801590612ebe5750603960f81b828281518110612eac57612eac615200565b01602001516001600160f81b03191611155b158015612f205750604160f81b828281518110612edd57612edd615200565b01602001516001600160f81b03191610801590612f1e5750604660f81b828281518110612f0c57612f0c615200565b01602001516001600160f81b03191611155b155b8015612f815750606160f81b828281518110612f3e57612f3e615200565b01602001516001600160f81b03191610801590612f7f5750606660f81b828281518110612f6d57612f6d615200565b01602001516001600160f81b03191611155b155b15612f9f57604051631cf7e9c560e01b815260040160405180910390fd5b600101612e5d565b506000838152600b60205260409020600a01612fc383826157b3565b5082612fce84611ed0565b6001600160a01b03167f2e34f8c0f6052b66319b4a5df14eac164c6af8a0b37f612d4304a777e1ae7a3d8460405161300691906148ac565b60405180910390a3505050565b61301c82613689565b60038160ff161115613041576040516329ba348d60e11b815260040160405180910390fd5b60ff8116156127a6576000828152600b60205260409020600901805460ff191660ff83161790558161307281611ed0565b60405160ff841681526001600160a01b0391909116907f454db5768a3f8187a5dd5e9cca100cf699d74d8a03f793d16da3932cdf34d3589060200161106e565b805160609080158015906130ce57506130cc600582615888565b155b61311a5760405162461bcd60e51b815260206004820152601960248201527f496e76616c696420626f6479206279746573206c656e677468000000000000006044820152606401611115565b604080516111948082526111c08201909252600091602082018180368337019050509050600061314b6005846158b2565b905060005b8181101561335a5760006131658260056158c6565b9050600087828151811061317b5761317b615200565b016020015160f81c90506000886131938460016158dd565b815181106131a3576131a3615200565b016020015160f81c9050600060ff83166131be83601e6158c6565b6131c891906158dd565b6131d39060056158c6565b90508984815181106131e7576131e7615200565b602001015160f81c60f81b87828151811061320457613204615200565b60200101906001600160f81b031916908160001a90535089846001018151811061323057613230615200565b602001015160f81c60f81b87826001018151811061325057613250615200565b60200101906001600160f81b031916908160001a90535089846002018151811061327c5761327c615200565b602001015160f81c60f81b87826002018151811061329c5761329c615200565b60200101906001600160f81b031916908160001a9053508984600301815181106132c8576132c8615200565b602001015160f81c60f81b8782600301815181106132e8576132e8615200565b60200101906001600160f81b031916908160001a90535089846004018151811061331457613314615200565b602001015160f81c60f81b87826004018151811061333457613334615200565b60200101906001600160f81b031916908160001a90535050505050806001019050613150565b5090949350505050565b61336c61366e565b63389a75e1600c52806000526020600c20805442111561339457636f5e88186000526004601cfd5b600090556133a181613d08565b50565b6133ae82826134ad565b6133b981600561356c565b6000828152600b6020526040902060040181905580826133d881611ed0565b6001600160a01b0316600080516020615a9a833981519152604051610f39906020808252600390820152620546f760ec1b604082015260600190565b61341c61366e565b6000848152600e602052604090208481556001810161343b85826157b3565b506002810161344a84826157b3565b506003810161345983826157b3565b505050505050565b61346961366e565b8060601b61347f57637448fbae6000526004601cfd5b6133a181613d08565b60006001600160e01b0319821663780e9d6360e01b1480610ebd5750610ebd82613f7d565b6134b682613689565b60008281526013602052604080822054600f5491516331a9108f60e11b8152600481018590526001600160a01b0391821693929190911690636352211e90602401602060405180830381865afa158015613514573d6000803e3d6000fd5b505050506040513d601f19601f8201168201806040525081019061353891906158f0565b9050816001600160a01b0316816001600160a01b031614612ac75760405163e6ca793160e01b815260040160405180910390fd5b600f5460405163e8a1268d60e01b8152600481018490526000916001600160a01b03169063e8a1268d90602401602060405180830381865afa1580156135b6573d6000803e3d6000fd5b505050506040513d601f19601f820116820180604052508101906135da919061590d565b90508160078111156135ee576135ee61592e565b60405160200161360091815260200190565b604051602081830303815290604052805190602001208160078111156136285761362861592e565b60405160200161363a91815260200190565b60405160208183030381529060405280519060200120146111b657604051633e54c6fb60e11b815260040160405180910390fd5b638b78c6d81954331461146f576382b429006000526004601cfd5b61369281611ed0565b6001600160a01b0316336001600160a01b0316146133a1576040516324adc17160e11b815260040160405180910390fd5b6000818152600260205260409020546001600160a01b03166133a15760405162461bcd60e51b8152602060048201526018602482015277115490cdcc8c4e881a5b9d985b1a59081d1bdad95b88125160421b6044820152606401611115565b600081815260046020526040902080546001600160a01b0319166001600160a01b038416908117909155819061375782611ed0565b6001600160a01b03167f8c5be1e5ebec7d5bd14f71427d1e84f3dd0314c0f7b2291e5b200ac8c7c3b92560405160405180910390a45050565b6014546001600160a01b03166137b957604051633390ca8960e21b815260040160405180910390fd5b60006010600081546137ca90615944565b918290555090506137db3382613fcd565b604051638a54c52f60e01b81527355266d75d1a14e4572138116af39863ed6596e7f600482015260006024820181905262014a34604483015230606483015260848201839052906f6551c19487814612e58fe0681377575890638a54c52f9060a4016020604051808303816000875af115801561385c573d6000803e3d6000fd5b505050506040513d601f19601f8201168201806040525081019061388091906158f0565b6000838152601360205260409081902080546001600160a01b0319166001600160a01b038416908117909155905163189acdbd60e31b81527341c8f39463a868d3a88af00cd0fe7102f30e44ec60048201529192509063c4d66de890602401600060405180830381600087803b1580156138f957600080fd5b505af115801561390d573d6000803e3d6000fd5b50506014546040516358a2727360e01b81526001600160a01b03858116600483015260ff881660248301526000945090911691506358a27273906044016000604051808303816000875af1158015613969573d6000803e3d6000fd5b505050506040513d6000823e601f3d908101601f191682016040526139919190810190615631565b6000848152600b60205260408120600881018690558251929350918391906139bb576139bb615200565b60200260200101518160060181905550816001815181106139de576139de615200565b6020026020010151816005018190555081600281518110613a0157613a01615200565b6020026020010151816004018190555081600381518110613a2457613a24615200565b6020908102919091018101516001830155600b8201805460ff19169055604080518083018790528151808203840181529082019091528051910120613a6b90600490615888565b60098201805460ff191660ff929092169190911790556040805180820190915260068152650c110d914e5160d21b6020820152600a820190613aad90826157b3565b50604051849033907f0f6798a560793a54c3bcfe86a93cde1e73087d944c0ea20544137d412139688590600090a35050505050565b600080613aee83611ed0565b9050806001600160a01b0316846001600160a01b03161480613b3557506001600160a01b0380821660009081526005602090815260408083209388168352929052205460ff165b80613b595750836001600160a01b0316613b4e8461107a565b6001600160a01b0316145b949350505050565b826001600160a01b0316613b7482611ed0565b6001600160a01b031614613bd85760405162461bcd60e51b815260206004820152602560248201527f4552433732313a207472616e736665722066726f6d20696e636f72726563742060448201526437bbb732b960d91b6064820152608401611115565b6001600160a01b038216613c3a5760405162461bcd60e51b8152602060048201526024808201527f4552433732313a207472616e7366657220746f20746865207a65726f206164646044820152637265737360e01b6064820152608401611115565b613c4583838361411b565b613c50600082613722565b6001600160a01b0383166000908152600360205260408120805460019290613c7990849061595d565b90915550506001600160a01b0382166000908152600360205260408120805460019290613ca79084906158dd565b909155505060008181526002602052604080822080546001600160a01b0319166001600160a01b0386811691821790925591518493918716917fddf252ad1be2c89b69c2b068fc378daa952ba7f163c4a11628f55a4df523b3ef91a4505050565b638b78c6d81980546001600160a01b039092169182907f8be0079c531659141344cd1fd0a4f28419497f9722a3daafe3b4186f6b6457e0600080a355565b60608282604051602001613d5b929190615970565b604051602081830303815290604052905092915050565b816001600160a01b0316836001600160a01b031603613dd35760405162461bcd60e51b815260206004820152601960248201527f4552433732313a20617070726f766520746f2063616c6c6572000000000000006044820152606401611115565b6001600160a01b03838116600081815260056020908152604080832094871680845294825291829020805460ff191686151590811790915591519182527f17307eab39ab6107e8899845ad3d59bd9653f200f220920489ca2b5937696c319101613006565b613e43848484613b61565b613e4f84848484614126565b612ac75760405162461bcd60e51b8152600401611115906159e1565b6018546000906001600160a01b0316613ebf5760405162461bcd60e51b81526020600482015260166024820152754d697373696e672073797374656d206164647265737360501b6044820152606401611115565b6000613f18856040517f19457468657265756d205369676e6564204d6573736167653a0a3332000000006020820152603c8101829052600090605c01604051602081830303815290604052805190602001209050919050565b601854604080516020601f88018190048102820181019092528681529293506001600160a01b0390911691613f6a91879087908190840183828082843760009201919091525086939250506142279050565b6001600160a01b03161495945050505050565b60006001600160e01b031982166380ac58cd60e01b1480613fae57506001600160e01b03198216635b5e139f60e01b145b80610ebd57506301ffc9a760e01b6001600160e01b0319831614610ebd565b6001600160a01b0382166140235760405162461bcd60e51b815260206004820181905260248201527f4552433732313a206d696e7420746f20746865207a65726f20616464726573736044820152606401611115565b6000818152600260205260409020546001600160a01b0316156140885760405162461bcd60e51b815260206004820152601c60248201527f4552433732313a20746f6b656e20616c7265616479206d696e746564000000006044820152606401611115565b6140946000838361411b565b6001600160a01b03821660009081526003602052604081208054600192906140bd9084906158dd565b909155505060008181526002602052604080822080546001600160a01b0319166001600160a01b03861690811790915590518392907fddf252ad1be2c89b69c2b068fc378daa952ba7f163c4a11628f55a4df523b3ef908290a45050565b6111b6838383614243565b60006001600160a01b0384163b1561421c57604051630a85bd0160e11b81526001600160a01b0385169063150b7a029061416a903390899088908890600401615a33565b6020604051808303816000875af19250505080156141a5575060408051601f3d908101601f191682019092526141a291810190615a66565b60015b614202573d8080156141d3576040519150601f19603f3d011682016040523d82523d6000602084013e6141d8565b606091505b5080516000036141fa5760405162461bcd60e51b8152600401611115906159e1565b805181602001fd5b6001600160e01b031916630a85bd0160e11b149050613b59565b506001949350505050565b600080600061423685856142fb565b91509150611b2681614369565b6001600160a01b03831661429e5761429981600880546000838152600960205260408120829055600182018355919091527ff3f7a9fe364faab93b216da50a3214154f22a0a2b415b23a84c8169e8b636ee30155565b6142c1565b816001600160a01b0316836001600160a01b0316146142c1576142c1838261451f565b6001600160a01b0382166142d8576111b6816145bc565b826001600160a01b0316826001600160a01b0316146111b6576111b6828261466b565b60008082516041036143315760208301516040840151606085015160001a614325878285856146af565b94509450505050614362565b825160400361435a576020830151604084015161434f86838361479c565b935093505050614362565b506000905060025b9250929050565b600081600481111561437d5761437d61592e565b036143855750565b60018160048111156143995761439961592e565b036143e65760405162461bcd60e51b815260206004820152601860248201527f45434453413a20696e76616c6964207369676e617475726500000000000000006044820152606401611115565b60028160048111156143fa576143fa61592e565b036144475760405162461bcd60e51b815260206004820152601f60248201527f45434453413a20696e76616c6964207369676e6174757265206c656e677468006044820152606401611115565b600381600481111561445b5761445b61592e565b036144b35760405162461bcd60e51b815260206004820152602260248201527f45434453413a20696e76616c6964207369676e6174757265202773272076616c604482015261756560f01b6064820152608401611115565b60048160048111156144c7576144c761592e565b036133a15760405162461bcd60e51b815260206004820152602260248201527f45434453413a20696e76616c6964207369676e6174757265202776272076616c604482015261756560f01b6064820152608401611115565b6000600161452c84611f30565b614536919061595d565b600083815260076020526040902054909150808214614589576001600160a01b03841660009081526006602090815260408083208584528252808320548484528184208190558352600790915290208190555b5060009182526007602090815260408084208490556001600160a01b039094168352600681528383209183525290812055565b6008546000906145ce9060019061595d565b600083815260096020526040812054600880549394509092849081106145f6576145f6615200565b90600052602060002001549050806008838154811061461757614617615200565b600091825260208083209091019290925582815260099091526040808220849055858252812055600880548061464f5761464f615a83565b6001900381819060005260206000200160009055905550505050565b600061467683611f30565b6001600160a01b039093166000908152600660209081526040808320868452825280832085905593825260079052919091209190915550565b6000807f7fffffffffffffffffffffffffffffff5d576e7357a4501ddfe92f46681b20a08311156146e65750600090506003614793565b8460ff16601b141580156146fe57508460ff16601c14155b1561470f5750600090506004614793565b6040805160008082526020820180845289905260ff881692820192909252606081018690526080810185905260019060a0016020604051602081039080840390855afa158015614763573d6000803e3d6000fd5b5050604051601f1901519150506001600160a01b03811661478c57600060019250925050614793565b9150600090505b94509492505050565b6000806001600160ff1b038316816147b960ff86901c601b6158dd565b90506147c7878288856146af565b935093505050935093915050565b6001600160e01b0319811681146133a157600080fd5b6000602082840312156147fd57600080fd5b81356122e6816147d5565b6000806040838503121561481b57600080fd5b50508035926020909101359150565b6001600160a01b03811681146133a157600080fd5b60006020828403121561485157600080fd5b81356122e68161482a565b60005b8381101561487757818101518382015260200161485f565b50506000910152565b6000815180845261489881602086016020860161485c565b601f01601f19169290920160200192915050565b6020815260006122e66020830184614880565b803580151581146148cf57600080fd5b919050565b600080604083850312156148e757600080fd5b823591506148f7602084016148bf565b90509250929050565b60006020828403121561491257600080fd5b5035919050565b6000806040838503121561492c57600080fd5b82356149378161482a565b946020939093013593505050565b84815260806020820152600061495e6080830186614880565b82810360408401526149708186614880565b905082810360608401526149848185614880565b979650505050505050565b6000806000606084860312156149a457600080fd5b83356149af8161482a565b925060208401356149bf8161482a565b929592945050506040919091013590565b6020808252825182820181905260009190848201906040850190845b81811015614a08578351835292840192918401916001016149ec565b50909695505050505050565b600080600080600080600080610100898b031215614a3157600080fd5b505086359860208801359850604088013597606081013597506080810135965060a0810135955060c0810135945060e0013592509050565b634e487b7160e01b600052604160045260246000fd5b60405161018081016001600160401b0381118282101715614aa257614aa2614a69565b60405290565b604051601f8201601f191681016001600160401b0381118282101715614ad057614ad0614a69565b604052919050565b803563ffffffff811681146148cf57600080fd5b803560ff811681146148cf57600080fd5b60006001600160401b03821115614b1657614b16614a69565b50601f01601f191660200190565b600082601f830112614b3557600080fd5b8135614b48614b4382614afd565b614aa8565b818152846020838601011115614b5d57600080fd5b816020850160208301376000918101602001919091529392505050565b600060208284031215614b8c57600080fd5b81356001600160401b0380821115614ba357600080fd5b908301906101808286031215614bb857600080fd5b614bc0614a7f565b823581526020830135602082015260408301356040820152606083013560608201526080830135608082015260a083013560a082015260c083013560c0820152614c0c60e08401614ad8565b60e08201526101008381013590820152610120614c2a818501614aec565b908201526101408381013583811115614c4257600080fd5b614c4e88828701614b24565b8284015250506101609150614c648284016148bf565b91810191909152949350505050565b606081526000614c866060830186614880565b8281036020840152614c988186614880565b90508281036040840152614cac8185614880565b9695505050505050565b6000806000806000806000806000806101408b8d031215614cd657600080fd5b8a35995060208b0135985060408b0135975060608b0135965060808b0135955060a08b0135945060c08b0135935060e08b01359250614d186101008c01614aec565b91506101208b01356001600160401b03811115614d3457600080fd5b614d408d828e01614b24565b9150509295989b9194979a5092959850565b60008060408385031215614d6557600080fd5b8235614d708161482a565b91506148f7602084016148bf565b604081526000614d916040830185614880565b8281036020840152614da38185614880565b95945050505050565b60008060008060808587031215614dc257600080fd5b8435614dcd8161482a565b93506020850135614ddd8161482a565b92506040850135915060608501356001600160401b03811115614dff57600080fd5b614e0b87828801614b24565b91505092959194509250565b6020815281516020820152602082015160408201526040820151606082015260608201516080820152608082015160a082015260a082015160c082015260c082015160e0820152600060e0830151610100614e798185018363ffffffff169052565b840151610120848101919091528401519050610140614e9c8185018360ff169052565b808501519150506101806101608181860152614ebc6101a0860184614880565b908601518015158387015290925061335a565b60008083601f840112614ee157600080fd5b5081356001600160401b03811115614ef857600080fd5b60208301915083602082850101111561436257600080fd5b600080600080600060608688031215614f2857600080fd5b614f3186614aec565b945060208601356001600160401b0380821115614f4d57600080fd5b614f5989838a01614ecf565b90965094506040880135915080821115614f7257600080fd5b50614f7f88828901614ecf565b969995985093965092949392505050565b60008060408385031215614fa357600080fd5b8235915060208301356001600160401b03811115614fc057600080fd5b614fcc85828601614b24565b9150509250929050565b60008060408385031215614fe957600080fd5b823591506148f760208401614aec565b60006020828403121561500b57600080fd5b81356001600160401b0381111561502157600080fd5b613b5984828501614b24565b6000806040838503121561504057600080fd5b823561504b8161482a565b9150602083013561505b8161482a565b809150509250929050565b6000806000806080858703121561507c57600080fd5b8435935060208501356001600160401b038082111561509a57600080fd5b6150a688838901614b24565b945060408701359150808211156150bc57600080fd5b6150c888838901614b24565b935060608701359150808211156150de57600080fd5b50614e0b87828801614b24565b600181811c908216806150ff57607f821691505b60208210810361511f57634e487b7160e01b600052602260045260246000fd5b50919050565b6000615133614b4384614afd565b905082815283838301111561514757600080fd5b6122e683602083018461485c565b600082601f83011261516657600080fd5b6122e683835160208501615125565b60006020828403121561518757600080fd5b81516001600160401b0381111561519d57600080fd5b613b5984828501615155565b600083516151bb81846020880161485c565b8351908301906151cf81836020880161485c565b7f3c672069643d226261636b7061636b547261697473223e0000000000000000009101908152601701949350505050565b634e487b7160e01b600052603260045260246000fd5b60008551615228818460208a0161485c565b85519083019061523c818360208a0161485c565b855191019061524f81836020890161485c565b845191019061526281836020880161485c565b019695505050505050565b6000845161527f81846020890161485c565b84519083019061529381836020890161485c565b8082019150507f3c672069643d224d6f7265547261697473223e3c72656374207374796c653d2281527f77696474683a313070783b206865696768743a3270783b2220783d223130222060208201527f793d223136222066696c6c3d2223666666666666223e3c2f726563743e3c726560408201527f6374207374796c653d226865696768743a313070783b2077696474683a32707860608201527f3b2220783d2231342220793d223132222066696c6c3d2223666666666666223e60808201526a1e17b932b1ba1f1e17b39f60a91b60a0820152835161537b8160ab84016020880161485c565b0160ab0195945050505050565b6000825161539a81846020870161485c565b631e17b39f60e11b920191825250600401919050565b6020808252602e908201527f4552433732313a2063616c6c6572206973206e6f7420746f6b656e206f776e6560408201526d1c881b9bdc88185c1c1c9bdd995960921b606082015260800190565b60008060006060848603121561541357600080fd5b83516001600160401b038082111561542a57600080fd5b61543687838801615155565b9450602086015191508082111561544c57600080fd5b818601915086601f83011261546057600080fd5b61546f87835160208501615125565b9350604086015191508082111561548557600080fd5b5061549286828701615155565b9150509250925092565b600083516154ae81846020880161485c565b8351908301906154c281836020880161485c565b01949350505050565b6000602082840312156154dd57600080fd5b5051919050565b6d2261747472696275746573223a5b60901b8152825160009061550e81600e85016020880161485c565b600b60fa1b600e91840191820152835161552f81600f84016020880161485c565b605d60f81b600f9290910191820152601001949350505050565b600081516080845261555e6080850182614880565b9050602083015184820360208601526155778282614880565b915050604083015184820360408601526155918282614880565b915050606083015160608501528091505092915050565b87815260e0602082015260006155c160e0830189614880565b82810360408401526155d38189614880565b905082810360608401526155e78188614880565b905082810360808401526155fb8187614880565b905082810360a084015261560f8186614880565b905082810360c08401526156238185615549565b9a9950505050505050505050565b6000602080838503121561564457600080fd5b82516001600160401b038082111561565b57600080fd5b818501915085601f83011261566f57600080fd5b81518181111561568157615681614a69565b8060051b9150615692848301614aa8565b81815291830184019184810190888411156156ac57600080fd5b938501935b838510156156ca578451825293850193908501906156b1565b98975050505050505050565b600080604083850312156156e957600080fd5b82516001600160401b038082111561570057600080fd5b61570c86838701615155565b9350602085015191508082111561572257600080fd5b50614fcc85828601615155565b6bffffffffffffffffffffffff198460601b168152818360148301376000910160140190815292915050565b8183823760009101908152919050565b601f8211156111b6576000816000526020600020601f850160051c810160208610156157945750805b601f850160051c820191505b81811015613459578281556001016157a0565b81516001600160401b038111156157cc576157cc614a69565b6157e0816157da84546150eb565b8461576b565b602080601f83116001811461581557600084156157fd5750858301515b600019600386901b1c1916600185901b178555613459565b600085815260208120601f198616915b8281101561584457888601518255948401946001909101908401615825565b50858210156158625787850151600019600388901b60f8161c191681555b5050505050600190811b01905550565b634e487b7160e01b600052601260045260246000fd5b60008261589757615897615872565b500690565b634e487b7160e01b600052601160045260246000fd5b6000826158c1576158c1615872565b500490565b8082028115828204841417610ebd57610ebd61589c565b80820180821115610ebd57610ebd61589c565b60006020828403121561590257600080fd5b81516122e68161482a565b60006020828403121561591f57600080fd5b8151600881106122e657600080fd5b634e487b7160e01b600052602160045260246000fd5b6000600182016159565761595661589c565b5060010190565b81810381811115610ebd57610ebd61589c565b6e3d913a3930b4ba2fba3cb832911d1160891b8152825160009061599b81600f85016020880161485c565b6a1116113b30b63ab2911d1160a91b600f9184019182015283516159c681601a84016020880161485c565b61227d60f01b601a9290910191820152601c01949350505050565b60208082526032908201527f4552433732313a207472616e7366657220746f206e6f6e20455243373231526560408201527131b2b4bb32b91034b6b83632b6b2b73a32b960711b606082015260800190565b6001600160a01b0385811682528416602082015260408101839052608060608201819052600090614cac90830184614880565b600060208284031215615a7857600080fd5b81516122e6816147d5565b634e487b7160e01b600052603160045260246000fdfe8aea9baa1ab7209ce94784ac5f5149343f8d985fd4278de25a7b390989f2cf853c672069643d22416c6c20547261697473223e3c672069643d226261636b7061636b2220636c6173733d22636c6f736564223e3c7061746820643d224d302030204c33302030204c3330203330204c30203330205a222066696c6c3d227267622831322c203130392c203135372922202f3e3c7376672069643d226261636b7061636b5549222076696577426f783d223020302031323020313230223e203c7374796c653e2e75697b77696474683a3170783b206865696768743a203170783b2066696c6c3a77686974657d3c2f7374796c653e203c672069643d22636c6f736542746e22207472616e73666f726d3d227472616e736c61746528322c3229223e203c7265637420783d22312220793d22312220636c6173733d227569223e3c2f726563743e203c7265637420783d22322220793d22322220636c6173733d227569223e3c2f726563743e203c7265637420783d22332220793d22332220636c6173733d227569223e3c2f726563743e203c7265637420783d22342220793d22342220636c6173733d227569223e3c2f726563743e203c7265637420783d22352220793d22352220636c6173733d227569223e3c2f726563743e203c7265637420783d22352220793d22312220636c6173733d227569223e3c2f726563743e203c7265637420783d22342220793d22322220636c6173733d227569223e3c2f726563743e203c212d2d203c7265637420783d22332220793d2233222077696474683d223122206865696768743d2231222066696c6c3d227768697465223e3c2f726563743e202d2d3e203c7265637420783d22322220793d22342220636c6173733d227569223e3c2f726563743e203c7265637420783d22312220793d22352220636c6173733d227569223e3c2f726563743e203c2f673e203c672069643d226c65667442746e2220636c6173733d22627574746f6e22207472616e73666f726d3d227472616e736c6174652834352c31313029223e203c7061746820643d224d302030204c362030204c362036204c302036205a222066696c6c3d227472616e73706172656e7422202f3e203c7265637420783d22322220793d22302220636c6173733d227569223e3c2f726563743e203c7265637420783d22312220793d22312220636c6173733d227569223e3c2f726563743e203c7265637420783d22302220793d22322220636c6173733d227569223e3c2f726563743e203c7265637420783d22312220793d22332220636c6173733d227569223e3c2f726563743e203c7265637420783d22322220793d22342220636c6173733d227569223e3c2f726563743e203c2f673e203c672069643d22726967687442746e2220636c6173733d22627574746f6e22207472616e73666f726d3d227472616e736c6174652836352c31313029223e203c7061746820643d224d302030204c362030204c362036204c302036205a222066696c6c3d227472616e73706172656e7422202f3e203c7265637420783d22332220793d22302220636c6173733d227569223e3c2f726563743e203c7265637420783d22342220793d22312220636c6173733d227569223e3c2f726563743e203c7265637420783d22352220793d22322220636c6173733d227569223e3c2f726563743e203c7265637420783d22342220793d22332220636c6173733d227569223e3c2f726563743e203c7265637420783d22332220793d22342220636c6173733d227569223e3c2f726563743e203c2f673e203c2f7376673e20a2646970667358221220ba968d12bf9d10080f9861d6a85b2d5359d46fa41a9a9cce573b64ea3e0a977a64736f6c63430008160033","linkReferences":{}},"methodIdentifiers":{"_debugPostConstructorMint()":"9c7be2f1","addNewBody(uint256,string,bytes,bytes)":"f2361e23","approve(address,uint256)":"095ea7b3","balanceOf(address)":"70a08231","bodyIndexToMetadata(uint256)":"0c83f9d7","buyTrait(uint256)":"6273ca2c","cancelOwnershipHandover()":"54d1f13d","completeOwnershipHandover(address)":"f04e283e","equipAccessory(uint256,uint256)":"0447a45e","equipAll(uint256,uint256,uint256,uint256,uint256,uint256,uint256,uint256)":"4a4333a3","equipBottom(uint256,uint256)":"45a10d0f","equipFace(uint256,uint256)":"0f162320","equipHair(uint256,uint256)":"94cbd9c4","equipHead(uint256,uint256)":"1e162a33","equipShoes(uint256,uint256)":"60b77b23","equipTop(uint256,uint256)":"f18dc22d","firstSeasonRenderMinter()":"13ea0ae3","getApproved(uint256)":"081812fc","getBackpackSVGs(uint256)":"14fe8ff4","getBodyImage(bytes)":"e37db3c2","getBodyImageSvg(uint256)":"916c546b","getBodySVGZmapsAndMetadata((uint256,uint256,uint256,uint256,uint256,uint256,uint256,uint32,uint256,uint8,string,bool))":"92012f08","getBodySvgAndMetadata((uint256,uint256,uint256,uint256,uint256,uint256,uint256,uint32,uint256,uint8,string,bool))":"a23830ae","getBodyZMap(uint256)":"306c7334","getOwnerAndTBAAddressForTokenId(uint256)":"cc9a5d37","getPeter(uint256)":"be928ff6","getPeterZMap(uint256)":"2bd1ca45","getTBAAddressForTokenId(uint256)":"8e29d3e9","getTokenRenderZ(uint256)":"8200ea51","getTraitTokens(address)":"998cfb6e","getTraitsForTokenId(uint256)":"850ad51a","isApprovedForAll(address,address)":"e985e9c5","mainRenderer()":"66b89b5a","mint()":"1249c58b","mintByLevel(uint8,string,bytes)":"cef80d4a","name()":"06fdde03","owner()":"8da5cb5b","ownerOf(uint256)":"6352211e","ownershipHandoverExpiresAt(address)":"fee81cf4","peterMakeover(uint256,uint256,uint256,uint256,uint256,uint256,uint256,uint256,uint8,string)":"93ccba72","price()":"a035b1fe","renderAsDataUri(uint256)":"a1d62680","renderAsDataUriSVG(uint256)":"b28fbe40","renderAsDataUriZ(uint256)":"7557f2dc","renounceOwnership()":"715018a6","requestOwnershipHandover()":"25692962","safeTransferFrom(address,address,uint256)":"42842e0e","safeTransferFrom(address,address,uint256,bytes)":"b88d4fde","setApprovalForAll(address,bool)":"a22cb465","setBackgroundColor(uint256,string)":"d68c4f32","setBodyIndex(uint256,uint8)":"e1405540","setFirstSeasonRenderMinter(address)":"58a97640","setMainRenderer(address)":"4ddb3961","setMaxTraitsToOutput(uint256)":"33d3d9bf","setPrice(uint256)":"91b7f5ed","setSystemAddress(address)":"06210197","setTokenRenderZ(uint256,bool)":"07f4e045","setTraitsContract(address)":"5eabd84a","setZRenderer(address)":"172b054d","supportsInterface(bytes4)":"01ffc9a7","symbol()":"95d89b41","tokenByIndex(uint256)":"4f6ccce7","tokenIdToTBAAccountAddress(uint256)":"9c05d68d","tokenOfOwnerByIndex(address,uint256)":"2f745c59","tokenURI(uint256)":"c87b56dd","totalSupply()":"18160ddd","traitsContract()":"c093afdb","transferFrom(address,address,uint256)":"23b872dd","transferOwnership(address)":"f2fde38b","unequipAccessory(uint256)":"293ed3f7","unequipAll(uint256)":"3044825b","unequipBottom(uint256)":"9c762015","unequipFace(uint256)":"d5b55c8b","unequipHair(uint256)":"105338e0","unequipHead(uint256)":"7afe8d34","unequipShoes(uint256)":"58180d35","unequipTop(uint256)":"347bd8f4","walletOfOwner(address)":"438b6300","zRenderer()":"a15c561b"},"id":40}