{"abi":[{"type":"constructor","inputs":[{"name":"localDeploy_","type":"bool","internalType":"bool"}],"stateMutability":"nonpayable"},{"type":"function","name":"_debugPostConstructorMint","inputs":[],"outputs":[],"stateMutability":"nonpayable"},{"type":"function","name":"_nextTokenId","inputs":[],"outputs":[{"name":"","type":"uint256","internalType":"uint256"}],"stateMutability":"view"},{"type":"function","name":"addNewBody","inputs":[{"name":"_bodyIndex","type":"uint256","internalType":"uint256"},{"name":"_bodyName","type":"string","internalType":"string"},{"name":"_colorMap","type":"bytes","internalType":"bytes"},{"name":"_zMap","type":"bytes","internalType":"bytes"}],"outputs":[],"stateMutability":"nonpayable"},{"type":"function","name":"approve","inputs":[{"name":"_operator","type":"address","internalType":"address"},{"name":"_chonkId","type":"uint256","internalType":"uint256"}],"outputs":[],"stateMutability":"nonpayable"},{"type":"function","name":"balanceOf","inputs":[{"name":"owner","type":"address","internalType":"address"}],"outputs":[{"name":"","type":"uint256","internalType":"uint256"}],"stateMutability":"view"},{"type":"function","name":"bodyIndexToMetadata","inputs":[{"name":"","type":"uint256","internalType":"uint256"}],"outputs":[{"name":"bodyIndex","type":"uint256","internalType":"uint256"},{"name":"bodyName","type":"string","internalType":"string"},{"name":"colorMap","type":"bytes","internalType":"bytes"},{"name":"zMap","type":"bytes","internalType":"bytes"}],"stateMutability":"view"},{"type":"function","name":"cancelOwnershipHandover","inputs":[],"outputs":[],"stateMutability":"payable"},{"type":"function","name":"checkIfTraitIsEquipped","inputs":[{"name":"_chonkId","type":"uint256","internalType":"uint256"},{"name":"_traitId","type":"uint256","internalType":"uint256"}],"outputs":[{"name":"","type":"bool","internalType":"bool"}],"stateMutability":"view"},{"type":"function","name":"chonkIdToApprovedOperators","inputs":[{"name":"chonkId","type":"uint256","internalType":"uint256"},{"name":"","type":"uint256","internalType":"uint256"}],"outputs":[{"name":"operators","type":"address","internalType":"address"}],"stateMutability":"view"},{"type":"function","name":"completeOwnershipHandover","inputs":[{"name":"pendingOwner","type":"address","internalType":"address"}],"outputs":[],"stateMutability":"payable"},{"type":"function","name":"equip","inputs":[{"name":"_peterTokenId","type":"uint256","internalType":"uint256"},{"name":"_traitTokenId","type":"uint256","internalType":"uint256"}],"outputs":[],"stateMutability":"nonpayable"},{"type":"function","name":"equipAll","inputs":[{"name":"_peterTokenId","type":"uint256","internalType":"uint256"},{"name":"_headTokenId","type":"uint256","internalType":"uint256"},{"name":"_hairTokenId","type":"uint256","internalType":"uint256"},{"name":"_faceTokenId","type":"uint256","internalType":"uint256"},{"name":"_accessoryTokenId","type":"uint256","internalType":"uint256"},{"name":"_topTokenId","type":"uint256","internalType":"uint256"},{"name":"_bottomTokenId","type":"uint256","internalType":"uint256"},{"name":"_shoesTokenId","type":"uint256","internalType":"uint256"}],"outputs":[],"stateMutability":"nonpayable"},{"type":"function","name":"firstSeasonRenderMinter","inputs":[],"outputs":[{"name":"","type":"address","internalType":"contract FirstSeasonRenderMinter"}],"stateMutability":"view"},{"type":"function","name":"getApproved","inputs":[{"name":"tokenId","type":"uint256","internalType":"uint256"}],"outputs":[{"name":"","type":"address","internalType":"address"}],"stateMutability":"view"},{"type":"function","name":"getBackpackSVGs","inputs":[{"name":"_tokenId","type":"uint256","internalType":"uint256"}],"outputs":[{"name":"","type":"string","internalType":"string"}],"stateMutability":"view"},{"type":"function","name":"getBodyImageSvg","inputs":[{"name":"_index","type":"uint256","internalType":"uint256"}],"outputs":[{"name":"svg","type":"string","internalType":"string"}],"stateMutability":"view"},{"type":"function","name":"getBodySVGZmapsAndMetadata","inputs":[{"name":"storedPeter","type":"tuple","internalType":"struct IPeterStorage.StoredPeter","components":[{"name":"headId","type":"uint256","internalType":"uint256"},{"name":"hairId","type":"uint256","internalType":"uint256"},{"name":"faceId","type":"uint256","internalType":"uint256"},{"name":"accessoryId","type":"uint256","internalType":"uint256"},{"name":"topId","type":"uint256","internalType":"uint256"},{"name":"bottomId","type":"uint256","internalType":"uint256"},{"name":"shoesId","type":"uint256","internalType":"uint256"},{"name":"epoch","type":"uint32","internalType":"uint32"},{"name":"tokenId","type":"uint256","internalType":"uint256"},{"name":"bodyIndex","type":"uint8","internalType":"uint8"},{"name":"backgroundColor","type":"string","internalType":"string"},{"name":"render3D","type":"bool","internalType":"bool"}]}],"outputs":[{"name":"","type":"string","internalType":"string"},{"name":"","type":"bytes","internalType":"bytes"},{"name":"","type":"string","internalType":"string"}],"stateMutability":"view"},{"type":"function","name":"getBodySvgAndMetadata","inputs":[{"name":"storedPeter","type":"tuple","internalType":"struct IPeterStorage.StoredPeter","components":[{"name":"headId","type":"uint256","internalType":"uint256"},{"name":"hairId","type":"uint256","internalType":"uint256"},{"name":"faceId","type":"uint256","internalType":"uint256"},{"name":"accessoryId","type":"uint256","internalType":"uint256"},{"name":"topId","type":"uint256","internalType":"uint256"},{"name":"bottomId","type":"uint256","internalType":"uint256"},{"name":"shoesId","type":"uint256","internalType":"uint256"},{"name":"epoch","type":"uint32","internalType":"uint32"},{"name":"tokenId","type":"uint256","internalType":"uint256"},{"name":"bodyIndex","type":"uint8","internalType":"uint8"},{"name":"backgroundColor","type":"string","internalType":"string"},{"name":"render3D","type":"bool","internalType":"bool"}]}],"outputs":[{"name":"","type":"string","internalType":"string"},{"name":"","type":"string","internalType":"string"}],"stateMutability":"view"},{"type":"function","name":"getBodyZMap","inputs":[{"name":"_tokenId","type":"uint256","internalType":"uint256"}],"outputs":[{"name":"","type":"string","internalType":"string"}],"stateMutability":"view"},{"type":"function","name":"getChonkIdForTBAAddress","inputs":[{"name":"_tbaAddress","type":"address","internalType":"address"}],"outputs":[{"name":"","type":"uint256","internalType":"uint256"}],"stateMutability":"view"},{"type":"function","name":"getChonkIdToApprovedOperators","inputs":[{"name":"_chonkId","type":"uint256","internalType":"uint256"}],"outputs":[{"name":"","type":"address[]","internalType":"address[]"}],"stateMutability":"view"},{"type":"function","name":"getFullPictureForTrait","inputs":[{"name":"_chonkTraitTokenId","type":"uint256","internalType":"uint256"}],"outputs":[{"name":"traitOwnerTBA","type":"address","internalType":"address"},{"name":"chonkTokenId","type":"uint256","internalType":"uint256"},{"name":"chonkOwner","type":"address","internalType":"address"},{"name":"isEquipped","type":"bool","internalType":"bool"}],"stateMutability":"view"},{"type":"function","name":"getOwnerAndTBAAddressForChonkId","inputs":[{"name":"_chonkId","type":"uint256","internalType":"uint256"}],"outputs":[{"name":"owner","type":"address","internalType":"address"},{"name":"tbaAddress","type":"address","internalType":"address"}],"stateMutability":"view"},{"type":"function","name":"getPeter","inputs":[{"name":"_tokenId","type":"uint256","internalType":"uint256"}],"outputs":[{"name":"","type":"tuple","internalType":"struct IPeterStorage.StoredPeter","components":[{"name":"headId","type":"uint256","internalType":"uint256"},{"name":"hairId","type":"uint256","internalType":"uint256"},{"name":"faceId","type":"uint256","internalType":"uint256"},{"name":"accessoryId","type":"uint256","internalType":"uint256"},{"name":"topId","type":"uint256","internalType":"uint256"},{"name":"bottomId","type":"uint256","internalType":"uint256"},{"name":"shoesId","type":"uint256","internalType":"uint256"},{"name":"epoch","type":"uint32","internalType":"uint32"},{"name":"tokenId","type":"uint256","internalType":"uint256"},{"name":"bodyIndex","type":"uint8","internalType":"uint8"},{"name":"backgroundColor","type":"string","internalType":"string"},{"name":"render3D","type":"bool","internalType":"bool"}]}],"stateMutability":"view"},{"type":"function","name":"getPeterZMap","inputs":[{"name":"_tokenId","type":"uint256","internalType":"uint256"}],"outputs":[{"name":"","type":"string","internalType":"string"}],"stateMutability":"view"},{"type":"function","name":"getTBAAddressForChonkId","inputs":[{"name":"_chonkId","type":"uint256","internalType":"uint256"}],"outputs":[{"name":"","type":"address","internalType":"address"}],"stateMutability":"view"},{"type":"function","name":"getTokenRenderZ","inputs":[{"name":"_peterTokenId","type":"uint256","internalType":"uint256"}],"outputs":[{"name":"","type":"bool","internalType":"bool"}],"stateMutability":"view"},{"type":"function","name":"getTraitTokens","inputs":[{"name":"_tbaAddress","type":"address","internalType":"address"}],"outputs":[{"name":"","type":"uint256[]","internalType":"uint256[]"}],"stateMutability":"view"},{"type":"function","name":"getTraitsForChonkId","inputs":[{"name":"_chonkId","type":"uint256","internalType":"uint256"}],"outputs":[{"name":"traitTokens","type":"uint256[]","internalType":"uint256[]"}],"stateMutability":"view"},{"type":"function","name":"isApprovedForAll","inputs":[{"name":"owner","type":"address","internalType":"address"},{"name":"operator","type":"address","internalType":"address"}],"outputs":[{"name":"","type":"bool","internalType":"bool"}],"stateMutability":"view"},{"type":"function","name":"mainRenderer2D","inputs":[],"outputs":[{"name":"","type":"address","internalType":"contract MainRenderer2D"}],"stateMutability":"view"},{"type":"function","name":"mainRenderer3D","inputs":[],"outputs":[{"name":"","type":"address","internalType":"contract MainRenderer3D"}],"stateMutability":"view"},{"type":"function","name":"marketplace","inputs":[],"outputs":[{"name":"","type":"address","internalType":"contract ChonksMarket"}],"stateMutability":"view"},{"type":"function","name":"maxTraitsToOutput","inputs":[],"outputs":[{"name":"","type":"uint256","internalType":"uint256"}],"stateMutability":"view"},{"type":"function","name":"mint","inputs":[{"name":"_amount","type":"uint256","internalType":"uint256"}],"outputs":[],"stateMutability":"payable"},{"type":"function","name":"mintStartTime","inputs":[],"outputs":[{"name":"","type":"uint256","internalType":"uint256"}],"stateMutability":"view"},{"type":"function","name":"name","inputs":[],"outputs":[{"name":"","type":"string","internalType":"string"}],"stateMutability":"view"},{"type":"function","name":"owner","inputs":[],"outputs":[{"name":"result","type":"address","internalType":"address"}],"stateMutability":"view"},{"type":"function","name":"ownerOf","inputs":[{"name":"tokenId","type":"uint256","internalType":"uint256"}],"outputs":[{"name":"","type":"address","internalType":"address"}],"stateMutability":"view"},{"type":"function","name":"ownershipHandoverExpiresAt","inputs":[{"name":"pendingOwner","type":"address","internalType":"address"}],"outputs":[{"name":"result","type":"uint256","internalType":"uint256"}],"stateMutability":"view"},{"type":"function","name":"peterMakeover","inputs":[{"name":"_peterTokenId","type":"uint256","internalType":"uint256"},{"name":"_headTokenId","type":"uint256","internalType":"uint256"},{"name":"_hairTokenId","type":"uint256","internalType":"uint256"},{"name":"_faceTokenId","type":"uint256","internalType":"uint256"},{"name":"_accessoryTokenId","type":"uint256","internalType":"uint256"},{"name":"_topTokenId","type":"uint256","internalType":"uint256"},{"name":"_bottomTokenId","type":"uint256","internalType":"uint256"},{"name":"_shoesTokenId","type":"uint256","internalType":"uint256"},{"name":"_bodyIndex","type":"uint8","internalType":"uint8"},{"name":"_backgroundColor","type":"string","internalType":"string"}],"outputs":[],"stateMutability":"nonpayable"},{"type":"function","name":"price","inputs":[],"outputs":[{"name":"","type":"uint256","internalType":"uint256"}],"stateMutability":"view"},{"type":"function","name":"renderAsDataUri","inputs":[{"name":"_tokenId","type":"uint256","internalType":"uint256"}],"outputs":[{"name":"","type":"string","internalType":"string"}],"stateMutability":"view"},{"type":"function","name":"renderAsDataUri2D","inputs":[{"name":"_tokenId","type":"uint256","internalType":"uint256"}],"outputs":[{"name":"","type":"string","internalType":"string"}],"stateMutability":"view"},{"type":"function","name":"renderAsDataUri3D","inputs":[{"name":"_tokenId","type":"uint256","internalType":"uint256"}],"outputs":[{"name":"","type":"string","internalType":"string"}],"stateMutability":"view"},{"type":"function","name":"renounceOwnership","inputs":[],"outputs":[],"stateMutability":"payable"},{"type":"function","name":"requestOwnershipHandover","inputs":[],"outputs":[],"stateMutability":"payable"},{"type":"function","name":"safeTransferFrom","inputs":[{"name":"from","type":"address","internalType":"address"},{"name":"to","type":"address","internalType":"address"},{"name":"tokenId","type":"uint256","internalType":"uint256"}],"outputs":[],"stateMutability":"nonpayable"},{"type":"function","name":"safeTransferFrom","inputs":[{"name":"from","type":"address","internalType":"address"},{"name":"to","type":"address","internalType":"address"},{"name":"tokenId","type":"uint256","internalType":"uint256"},{"name":"data","type":"bytes","internalType":"bytes"}],"outputs":[],"stateMutability":"nonpayable"},{"type":"function","name":"setApprovalForAll","inputs":[{"name":"_operator","type":"address","internalType":"address"},{"name":"_approved","type":"bool","internalType":"bool"}],"outputs":[],"stateMutability":"nonpayable"},{"type":"function","name":"setApprovalForAllChonksMarketplace","inputs":[{"name":"_chonkId","type":"uint256","internalType":"uint256"},{"name":"_operator","type":"address","internalType":"address"},{"name":"_approved","type":"bool","internalType":"bool"}],"outputs":[],"stateMutability":"nonpayable"},{"type":"function","name":"setBackgroundColor","inputs":[{"name":"_peterTokenId","type":"uint256","internalType":"uint256"},{"name":"_color","type":"string","internalType":"string"}],"outputs":[],"stateMutability":"nonpayable"},{"type":"function","name":"setBodyIndex","inputs":[{"name":"_peterTokenId","type":"uint256","internalType":"uint256"},{"name":"_bodyIndex","type":"uint8","internalType":"uint8"}],"outputs":[],"stateMutability":"nonpayable"},{"type":"function","name":"setFirstSeasonRenderMinter","inputs":[{"name":"_dataContract","type":"address","internalType":"address"}],"outputs":[],"stateMutability":"nonpayable"},{"type":"function","name":"setMainRenderer2D","inputs":[{"name":"_mainRenderer2D","type":"address","internalType":"address"}],"outputs":[],"stateMutability":"nonpayable"},{"type":"function","name":"setMainRenderer3D","inputs":[{"name":"_mainRenderer3D","type":"address","internalType":"address"}],"outputs":[],"stateMutability":"nonpayable"},{"type":"function","name":"setMarketplace","inputs":[{"name":"_marketplace","type":"address","internalType":"address"}],"outputs":[],"stateMutability":"nonpayable"},{"type":"function","name":"setMaxTraitsToOutput","inputs":[{"name":"_maxTraitsToOutput","type":"uint256","internalType":"uint256"}],"outputs":[],"stateMutability":"nonpayable"},{"type":"function","name":"setMintStartTime","inputs":[{"name":"_mintStartTime","type":"uint256","internalType":"uint256"}],"outputs":[],"stateMutability":"nonpayable"},{"type":"function","name":"setPrice","inputs":[{"name":"_priceInWei","type":"uint256","internalType":"uint256"}],"outputs":[],"stateMutability":"nonpayable"},{"type":"function","name":"setTokenRender3D","inputs":[{"name":"_peterTokenId","type":"uint256","internalType":"uint256"},{"name":"_render3D","type":"bool","internalType":"bool"}],"outputs":[],"stateMutability":"nonpayable"},{"type":"function","name":"setTraitsContract","inputs":[{"name":"_address","type":"address","internalType":"contract PeterTraits"}],"outputs":[],"stateMutability":"nonpayable"},{"type":"function","name":"setWithdrawAddress","inputs":[{"name":"_withdrawAddress","type":"address","internalType":"address"}],"outputs":[],"stateMutability":"nonpayable"},{"type":"function","name":"supportsInterface","inputs":[{"name":"interfaceId","type":"bytes4","internalType":"bytes4"}],"outputs":[{"name":"","type":"bool","internalType":"bool"}],"stateMutability":"view"},{"type":"function","name":"symbol","inputs":[],"outputs":[{"name":"","type":"string","internalType":"string"}],"stateMutability":"view"},{"type":"function","name":"tbaAddressToTokenId","inputs":[{"name":"","type":"address","internalType":"address"}],"outputs":[{"name":"","type":"uint256","internalType":"uint256"}],"stateMutability":"view"},{"type":"function","name":"tokenByIndex","inputs":[{"name":"index","type":"uint256","internalType":"uint256"}],"outputs":[{"name":"","type":"uint256","internalType":"uint256"}],"stateMutability":"view"},{"type":"function","name":"tokenIdToTBAAccountAddress","inputs":[{"name":"","type":"uint256","internalType":"uint256"}],"outputs":[{"name":"","type":"address","internalType":"address"}],"stateMutability":"view"},{"type":"function","name":"tokenOfOwnerByIndex","inputs":[{"name":"owner","type":"address","internalType":"address"},{"name":"index","type":"uint256","internalType":"uint256"}],"outputs":[{"name":"","type":"uint256","internalType":"uint256"}],"stateMutability":"view"},{"type":"function","name":"tokenURI","inputs":[{"name":"_tokenId","type":"uint256","internalType":"uint256"}],"outputs":[{"name":"","type":"string","internalType":"string"}],"stateMutability":"view"},{"type":"function","name":"totalSupply","inputs":[],"outputs":[{"name":"","type":"uint256","internalType":"uint256"}],"stateMutability":"view"},{"type":"function","name":"traitsContract","inputs":[],"outputs":[{"name":"","type":"address","internalType":"contract PeterTraits"}],"stateMutability":"view"},{"type":"function","name":"transferFrom","inputs":[{"name":"from","type":"address","internalType":"address"},{"name":"to","type":"address","internalType":"address"},{"name":"tokenId","type":"uint256","internalType":"uint256"}],"outputs":[],"stateMutability":"nonpayable"},{"type":"function","name":"transferOwnership","inputs":[{"name":"newOwner","type":"address","internalType":"address"}],"outputs":[],"stateMutability":"payable"},{"type":"function","name":"unequip","inputs":[{"name":"_peterTokenId","type":"uint256","internalType":"uint256"},{"name":"traitType","type":"uint8","internalType":"enum TraitCategory.Name"}],"outputs":[],"stateMutability":"nonpayable"},{"type":"function","name":"unequipAll","inputs":[{"name":"_peterTokenId","type":"uint256","internalType":"uint256"}],"outputs":[],"stateMutability":"nonpayable"},{"type":"function","name":"walletOfOwner","inputs":[{"name":"_owner","type":"address","internalType":"address"}],"outputs":[{"name":"","type":"uint256[]","internalType":"uint256[]"}],"stateMutability":"view"},{"type":"function","name":"withdraw","inputs":[],"outputs":[],"stateMutability":"nonpayable"},{"type":"function","name":"withdrawAddress","inputs":[],"outputs":[{"name":"","type":"address","internalType":"address"}],"stateMutability":"view"},{"type":"event","name":"Approval","inputs":[{"name":"owner","type":"address","indexed":true,"internalType":"address"},{"name":"approved","type":"address","indexed":true,"internalType":"address"},{"name":"tokenId","type":"uint256","indexed":true,"internalType":"uint256"}],"anonymous":false},{"type":"event","name":"ApprovalForAll","inputs":[{"name":"owner","type":"address","indexed":true,"internalType":"address"},{"name":"operator","type":"address","indexed":true,"internalType":"address"},{"name":"approved","type":"bool","indexed":false,"internalType":"bool"}],"anonymous":false},{"type":"event","name":"BackgroundColor","inputs":[{"name":"owner","type":"address","indexed":true,"internalType":"address"},{"name":"tokenId","type":"uint256","indexed":true,"internalType":"uint256"},{"name":"color","type":"string","indexed":false,"internalType":"string"}],"anonymous":false},{"type":"event","name":"BatchMetadataUpdate","inputs":[{"name":"_fromTokenId","type":"uint256","indexed":false,"internalType":"uint256"},{"name":"_toTokenId","type":"uint256","indexed":false,"internalType":"uint256"}],"anonymous":false},{"type":"event","name":"BodyIndex","inputs":[{"name":"owner","type":"address","indexed":true,"internalType":"address"},{"name":"tokenId","type":"uint256","indexed":true,"internalType":"uint256"},{"name":"_bodyIndex","type":"uint8","indexed":false,"internalType":"uint8"}],"anonymous":false},{"type":"event","name":"Equip","inputs":[{"name":"owner","type":"address","indexed":true,"internalType":"address"},{"name":"tokenId","type":"uint256","indexed":true,"internalType":"uint256"},{"name":"traitTokenId","type":"uint256","indexed":true,"internalType":"uint256"},{"name":"traitCategory","type":"uint8","indexed":false,"internalType":"uint8"}],"anonymous":false},{"type":"event","name":"EquipAll","inputs":[{"name":"owner","type":"address","indexed":true,"internalType":"address"},{"name":"tokenId","type":"uint256","indexed":true,"internalType":"uint256"}],"anonymous":false},{"type":"event","name":"MetadataUpdate","inputs":[{"name":"_tokenId","type":"uint256","indexed":false,"internalType":"uint256"}],"anonymous":false},{"type":"event","name":"Mint","inputs":[{"name":"owner","type":"address","indexed":true,"internalType":"address"},{"name":"tokenId","type":"uint256","indexed":true,"internalType":"uint256"}],"anonymous":false},{"type":"event","name":"OwnershipHandoverCanceled","inputs":[{"name":"pendingOwner","type":"address","indexed":true,"internalType":"address"}],"anonymous":false},{"type":"event","name":"OwnershipHandoverRequested","inputs":[{"name":"pendingOwner","type":"address","indexed":true,"internalType":"address"}],"anonymous":false},{"type":"event","name":"OwnershipTransferred","inputs":[{"name":"oldOwner","type":"address","indexed":true,"internalType":"address"},{"name":"newOwner","type":"address","indexed":true,"internalType":"address"}],"anonymous":false},{"type":"event","name":"Render3D","inputs":[{"name":"owner","type":"address","indexed":true,"internalType":"address"},{"name":"tokenId","type":"uint256","indexed":true,"internalType":"uint256"},{"name":"renderZ","type":"bool","indexed":false,"internalType":"bool"}],"anonymous":false},{"type":"event","name":"Transfer","inputs":[{"name":"from","type":"address","indexed":true,"internalType":"address"},{"name":"to","type":"address","indexed":true,"internalType":"address"},{"name":"tokenId","type":"uint256","indexed":true,"internalType":"uint256"}],"anonymous":false},{"type":"event","name":"Unequip","inputs":[{"name":"owner","type":"address","indexed":true,"internalType":"address"},{"name":"tokenId","type":"uint256","indexed":true,"internalType":"uint256"},{"name":"traitCategory","type":"uint8","indexed":false,"internalType":"uint8"}],"anonymous":false},{"type":"event","name":"UnequipAll","inputs":[{"name":"owner","type":"address","indexed":true,"internalType":"address"},{"name":"tokenId","type":"uint256","indexed":true,"internalType":"uint256"}],"anonymous":false},{"type":"error","name":"AlreadyInitialized","inputs":[]},{"type":"error","name":"BodyAlreadyExists","inputs":[]},{"type":"error","name":"CantBeZero","inputs":[]},{"type":"error","name":"CantTransfer","inputs":[]},{"type":"error","name":"CantTransferToTBAs","inputs":[]},{"type":"error","name":"FirstSeasonRenderMinterNotSet","inputs":[]},{"type":"error","name":"IncorrectPeterOwner","inputs":[]},{"type":"error","name":"IncorrectTBAOwner","inputs":[]},{"type":"error","name":"IncorrectTraitType","inputs":[]},{"type":"error","name":"InsufficientFunds","inputs":[]},{"type":"error","name":"InvalidBodyIndex","inputs":[]},{"type":"error","name":"InvalidColor","inputs":[]},{"type":"error","name":"InvalidLevelAmount","inputs":[]},{"type":"error","name":"InvalidSignature","inputs":[]},{"type":"error","name":"MintEnded","inputs":[]},{"type":"error","name":"MintNotStarted","inputs":[]},{"type":"error","name":"NewOwnerIsZeroAddress","inputs":[]},{"type":"error","name":"NoHandoverRequest","inputs":[]},{"type":"error","name":"NonceAlreadyUsed","inputs":[]},{"type":"error","name":"PeterDoesntExist","inputs":[]},{"type":"error","name":"Unauthorized","inputs":[]},{"type":"error","name":"UseUnequip","inputs":[]},{"type":"error","name":"WithdrawFailed","inputs":[]},{"type":"error","name":"markaSaysNo","inputs":[]}],"bytecode":{"object":"0x608060405260636015553480156200001657600080fd5b5060405162005e4438038062005e44833981016040819052620000399162000100565b6040518060400160405280600a81526020016914195d195c8815195cdd60b21b815250604051806040016040528060058152602001642822aa22a960d91b81525081600090816200008b9190620001d2565b5060016200009a8282620001d2565b50506001600a5550620000ad33620000c4565b600b805460ff19169115159190911790556200029e565b6001600160a01b0316638b78c6d8198190558060007f8be0079c531659141344cd1fd0a4f28419497f9722a3daafe3b4186f6b6457e08180a350565b6000602082840312156200011357600080fd5b815180151581146200012457600080fd5b9392505050565b634e487b7160e01b600052604160045260246000fd5b600181811c908216806200015657607f821691505b6020821081036200017757634e487b7160e01b600052602260045260246000fd5b50919050565b601f821115620001cd576000816000526020600020601f850160051c81016020861015620001a85750805b601f850160051c820191505b81811015620001c957828155600101620001b4565b5050505b505050565b81516001600160401b03811115620001ee57620001ee6200012b565b6200020681620001ff845462000141565b846200017d565b602080601f8311600181146200023e5760008415620002255750858301515b600019600386901b1c1916600185901b178555620001c9565b600085815260208120601f198616915b828110156200026f578886015182559484019460019091019084016200024e565b50858210156200028e5787850151600019600388901b60f8161c191681555b5050505050600190811b01905550565b615b9680620002ae6000396000f3fe6080604052600436106104675760003560e01c80638472cbca1161024a578063b66ef6e311610139578063e1405540116100b6578063f2fde38b1161007a578063f2fde38b14610e48578063f3f8efb914610e5b578063f4bec0b614610e7b578063f6a0c93214610e9b578063fee81cf414610ed157600080fd5b8063e140554014610d96578063e3d2155514610db6578063e985e9c514610dcc578063f04e283e14610e15578063f2361e2314610e2857600080fd5b8063c87b56dd116100fd578063c87b56dd14610cf6578063cdb6dd5c14610d16578063d5b3621b14610d36578063d68c4f3214610d56578063dceef0ec14610d7657600080fd5b8063b66ef6e314610c49578063b88d4fde14610c69578063be928ff614610c89578063bef1dfb714610cb6578063c093afdb14610cd657600080fd5b80639c05d68d116101c7578063a1d626801161018b578063a1d6268014610b8e578063a22cb46514610bae578063a23830ae14610bce578063a4bf9a0014610bfc578063abc8c7af14610c2957600080fd5b80639c05d68d14610afa5780639c7be2f114610b305780639f6e463714610b45578063a035b1fe14610b65578063a0712d6814610b7b57600080fd5b806392012f081161020e57806392012f0814610a60578063931e2e4914610a8f57806393ccba7214610aa557806395d89b4114610ac5578063998cfb6e14610ada57600080fd5b80638472cbca146109b15780638aa1e4c8146109e75780638da5cb5b14610a07578063916c546b14610a2057806391b7f5ed14610a4057600080fd5b80633ab1a4941161036657806358a97640116102e357806370a08231116102a757806370a0823114610916578063715018a61461093657806373ad6c2d1461093e5780637e2e6c471461095e5780638200ea511461097e57600080fd5b806358a97640146108345780635eabd84a146108545780636352211e14610874578063667043491461089457806367d2afe2146108e957600080fd5b80634a60f6201161032a5780634a60f620146107b65780634f6ccce7146107cc57806354d1f13d146107ec578063550ab247146107f457806355737f351461081457600080fd5b80633ab1a494146107145780633ccfd60b1461073457806342842e0e14610749578063438b6300146107695780634a4333a31461079657600080fd5b80631581b600116103f45780632bd1ca45116103b85780632bd1ca45146106745780632f745c59146106945780633044825b146106b4578063306c7334146106d457806333d3d9bf146106f457600080fd5b80631581b600146105ed57806318160ddd1461060d57806323b872dd1461062c578063256929621461064c578063282575321461065457600080fd5b8063081812fc1161043b578063081812fc14610525578063095ea7b31461055d5780630c83f9d71461057d57806313ea0ae3146105ad57806314fe8ff4146105cd57600080fd5b80621792061461046c57806301ffc9a71461048e57806304003bd0146104c357806306fdde0314610503575b600080fd5b34801561047857600080fd5b5061048c610487366004614a65565b610f04565b005b34801561049a57600080fd5b506104ae6104a9366004614a98565b610f2e565b60405190151581526020015b60405180910390f35b3480156104cf57600080fd5b506104e36104de366004614ab5565b610f3f565b604080516001600160a01b039384168152929091166020830152016104ba565b34801561050f57600080fd5b50610518610f6e565b6040516104ba9190614b1e565b34801561053157600080fd5b50610545610540366004614ab5565b611000565b6040516001600160a01b0390911681526020016104ba565b34801561056957600080fd5b5061048c610578366004614b31565b611027565b34801561058957600080fd5b5061059d610598366004614ab5565b611078565b6040516104ba9493929190614b5d565b3480156105b957600080fd5b50601254610545906001600160a01b031681565b3480156105d957600080fd5b506105186105e8366004614ab5565b611239565b3480156105f957600080fd5b50601754610545906001600160a01b031681565b34801561061957600080fd5b506008545b6040519081526020016104ba565b34801561063857600080fd5b5061048c610647366004614ba7565b61147d565b61048c6114bc565b34801561066057600080fd5b5061048c61066f366004614be8565b61150b565b34801561068057600080fd5b5061051861068f366004614ab5565b611704565b3480156106a057600080fd5b5061061e6106af366004614b31565b6117c8565b3480156106c057600080fd5b5061048c6106cf366004614ab5565b61185e565b3480156106e057600080fd5b506105186106ef366004614ab5565b611919565b34801561070057600080fd5b5061048c61070f366004614ab5565b61193c565b34801561072057600080fd5b5061048c61072f366004614a65565b611949565b34801561074057600080fd5b5061048c611973565b34801561075557600080fd5b5061048c610764366004614ba7565b6119f2565b34801561077557600080fd5b50610789610784366004614a65565b611a0d565b6040516104ba9190614c0a565b3480156107a257600080fd5b5061048c6107b1366004614c4e565b611aa4565b3480156107c257600080fd5b5061061e60165481565b3480156107d857600080fd5b5061061e6107e7366004614ab5565b611e0c565b61048c611e9f565b34801561080057600080fd5b5061048c61080f366004614cb8565b611edb565b34801561082057600080fd5b5061054561082f366004614be8565b611f31565b34801561084057600080fd5b5061048c61084f366004614a65565b611f69565b34801561086057600080fd5b5061048c61086f366004614a65565b611f93565b34801561088057600080fd5b5061054561088f366004614ab5565b611fbd565b3480156108a057600080fd5b506108b46108af366004614ab5565b61201d565b6040516104ba94939291906001600160a01b039485168152602081019390935292166040820152901515606082015260800190565b3480156108f557600080fd5b50610909610904366004614ab5565b6120cf565b6040516104ba9190614d3b565b34801561092257600080fd5b5061061e610931366004614a65565b61213b565b61048c6121c1565b34801561094a57600080fd5b5061048c610959366004614a65565b6121d5565b34801561096a57600080fd5b5061048c610979366004614a65565b6121ff565b34801561098a57600080fd5b506104ae610999366004614ab5565b6000908152600c60205260409020600b015460ff1690565b3480156109bd57600080fd5b5061061e6109cc366004614a65565b6001600160a01b03166000908152601b602052604090205490565b3480156109f357600080fd5b506104ae610a02366004614be8565b612229565b348015610a1357600080fd5b50638b78c6d81954610545565b348015610a2c57600080fd5b50610518610a3b366004614ab5565b612298565b348015610a4c57600080fd5b5061048c610a5b366004614ab5565b61239b565b348015610a6c57600080fd5b50610a80610a7b366004614e5f565b6123a8565b6040516104ba93929190614f58565b348015610a9b57600080fd5b5061061e60195481565b348015610ab157600080fd5b5061048c610ac0366004614f91565b6124f9565b348015610ad157600080fd5b50610518612565565b348015610ae657600080fd5b50610789610af5366004614a65565b612574565b348015610b0657600080fd5b50610545610b15366004614ab5565b601a602052600090815260409020546001600160a01b031681565b348015610b3c57600080fd5b5061048c6125ea565b348015610b5157600080fd5b50610789610b60366004614ab5565b612648565b348015610b7157600080fd5b5061061e60185481565b61048c610b89366004614ab5565b61266c565b348015610b9a57600080fd5b50610518610ba9366004614ab5565b6129fa565b348015610bba57600080fd5b5061048c610bc936600461502d565b612a2a565b348015610bda57600080fd5b50610bee610be9366004614e5f565b612aa3565b6040516104ba929190615062565b348015610c0857600080fd5b5061061e610c17366004614a65565b601b6020526000908152604090205481565b348015610c3557600080fd5b50601154610545906001600160a01b031681565b348015610c5557600080fd5b50601454610545906001600160a01b031681565b348015610c7557600080fd5b5061048c610c84366004615090565b612b51565b348015610c9557600080fd5b50610ca9610ca4366004614ab5565b612b83565b6040516104ba91906150fb565b348015610cc257600080fd5b5061048c610cd13660046151b2565b612d29565b348015610ce257600080fd5b50601054610545906001600160a01b031681565b348015610d0257600080fd5b50610518610d11366004614ab5565b612dd4565b348015610d2257600080fd5b5061048c610d313660046151e2565b612e15565b348015610d4257600080fd5b5061048c610d51366004614ab5565b612fd9565b348015610d6257600080fd5b5061048c610d71366004615212565b612fe6565b348015610d8257600080fd5b50610518610d91366004614ab5565b613262565b348015610da257600080fd5b5061048c610db1366004615258565b613534565b348015610dc257600080fd5b5061061e60155481565b348015610dd857600080fd5b506104ae610de736600461527b565b6001600160a01b03918216600090815260056020908152604080832093909416825291909152205460ff1690565b61048c610e23366004614a65565b6135fc565b348015610e3457600080fd5b5061048c610e433660046152a9565b613639565b61048c610e56366004614a65565b613686565b348015610e6757600080fd5b50610518610e76366004614ab5565b6136ad565b348015610e8757600080fd5b50601354610545906001600160a01b031681565b348015610ea757600080fd5b50610545610eb6366004614ab5565b6000908152601a60205260409020546001600160a01b031690565b348015610edd57600080fd5b5061061e610eec366004614a65565b63389a75e1600c908152600091909152602090205490565b610f0c613934565b601480546001600160a01b0319166001600160a01b0392909216919091179055565b6000610f398261394f565b92915050565b600080610f4b83611fbd565b6000938452601a60205260409093205492936001600160a01b0390931692915050565b606060008054610f7d9061532e565b80601f0160208091040260200160405190810160405280929190818152602001828054610fa99061532e565b8015610ff65780601f10610fcb57610100808354040283529160200191610ff6565b820191906000526020600020905b815481529060010190602001808311610fd957829003601f168201915b5050505050905090565b600061100b82613974565b506000908152600460205260409020546001600160a01b031690565b61103081611fbd565b6001600160a01b0316336001600160a01b031614611060576040516282b42960e81b815260040160405180910390fd5b61106a81836139d3565b6110748282613a12565b5050565b600f602052600090815260409020805460018201805491929161109a9061532e565b80601f01602080910402602001604051908101604052809291908181526020018280546110c69061532e565b80156111135780601f106110e857610100808354040283529160200191611113565b820191906000526020600020905b8154815290600101906020018083116110f657829003601f168201915b5050505050908060020180546111289061532e565b80601f01602080910402602001604051908101604052809291908181526020018280546111549061532e565b80156111a15780601f10611176576101008083540402835291602001916111a1565b820191906000526020600020905b81548152906001019060200180831161118457829003601f168201915b5050505050908060030180546111b69061532e565b80601f01602080910402602001604051908101604052809291908181526020018280546111e29061532e565b801561122f5780601f106112045761010080835404028352916020019161122f565b820191906000526020600020905b81548152906001019060200180831161121257829003601f168201915b5050505050905084565b6060600061124683612648565b90506000601060009054906101000a90046001600160a01b03166001600160a01b0316635c1ef2566040518163ffffffff1660e01b8152600401600060405180830381865afa15801561129d573d6000803e3d6000fd5b505050506040513d6000823e601f3d908101601f191682016040526112c591908101906153ad565b905060006015548351106112db576015546112de565b82515b90506000816001600160401b038111156112fa576112fa614d4e565b60405190808252806020026020018201604052801561132d57816020015b60608152602001906001900390816113185790505b50905060005b828110156113f45760105485516001600160a01b039091169063c779153190879084908110611364576113646153e1565b60200260200101516040518263ffffffff1660e01b815260040161138a91815260200190565b600060405180830381865afa1580156113a7573d6000803e3d6000fd5b505050506040513d6000823e601f3d908101601f191682016040526113cf91908101906153ad565b8282815181106113e1576113e16153e1565b6020908102919091010152600101611333565b506013548451601554604051631719ff8760e11b81526001600160a01b0390931692632e33ff0e9261142e928892879291906004016153f7565b600060405180830381865afa15801561144b573d6000803e3d6000fd5b505050506040513d6000823e601f3d908101601f1916820160405261147391908101906153ad565b9695505050505050565b6114873382613a80565b6114ac5760405162461bcd60e51b81526004016114a390615478565b60405180910390fd5b6114b7838383613afe565b505050565b60006202a3006001600160401b03164201905063389a75e1600c5233600052806020600c2055337fdbf36a107da19e49527a7176a1babf963b4b0ff8cde35ee35d6cd8f1f9ac7e1d600080a250565b8161151581611fbd565b6001600160a01b0316336001600160a01b031614611546576040516324adc17160e11b815260040160405180910390fd5b8160000361156757604051630754c7f360e41b815260040160405180910390fd5b60006115738484613cab565b90506001816007811115611589576115896154c6565b036115a0576000848152600c602052604090208390555b60028160078111156115b4576115b46154c6565b036115ce576000848152600c602052604090206001018390555b60038160078111156115e2576115e26154c6565b036115fc576000848152600c602052604090206002018390555b6004816007811115611610576116106154c6565b0361162a576000848152600c602052604090206003018390555b600581600781111561163e5761163e6154c6565b03611658576000848152600c602052604090206004018390555b600681600781111561166c5761166c6154c6565b03611686576000848152600c602052604090206005018390555b600781600781111561169a5761169a6154c6565b036116b4576000848152600c602052604090206006018390555b82846116bf86611fbd565b6001600160a01b0316600080516020615b418339815191528460078111156116e9576116e96154c6565b60405160ff909116815260200160405180910390a450505050565b6060806060600061171485612b83565b905061171f816123a8565b5060105460405163bb12d21d60e01b81529195506001600160a01b0316915063bb12d21d906117529084906004016150fb565b600060405180830381865afa15801561176f573d6000803e3d6000fd5b505050506040513d6000823e601f3d908101601f1916820160405261179791908101906154dc565b506040519093506117af915084908490602001615563565b6040516020818303038152906040529350505050919050565b60006117d38361213b565b82106118355760405162461bcd60e51b815260206004820152602b60248201527f455243373231456e756d657261626c653a206f776e657220696e646578206f7560448201526a74206f6620626f756e647360a81b60648201526084016114a3565b506001600160a01b03919091166000908152600660209081526040808320938352929052205490565b8061186881611fbd565b6001600160a01b0316336001600160a01b031614611899576040516324adc17160e11b815260040160405180910390fd5b6000828152600c6020526040812081815560018101829055600281018290556003810182905560048101829055600581018290556006810191909155826118df81611fbd565b6001600160a01b03167f46078a2cd4c69c3b4a27bdc69fdfe03d442ebcf405f1a68e9b5df6bc3e24429760405160405180910390a3505050565b606080600061192784612b83565b9050611932816123a8565b5095945050505050565b611944613934565b601555565b611951613934565b601780546001600160a01b0319166001600160a01b0392909216919091179055565b61197b613934565b6017546040516000916001600160a01b03169047908381818185875af1925050503d80600081146119c8576040519150601f19603f3d011682016040523d82523d6000602084013e6119cd565b606091505b50509050806119ef57604051631d42c86760e21b815260040160405180910390fd5b50565b6114b783838360405180602001604052806000815250612b51565b60606000611a1a8361213b565b90506000816001600160401b03811115611a3657611a36614d4e565b604051908082528060200260200182016040528015611a5f578160200160208202803683370190505b50905060005b82811015611a9c57611a7785826117c8565b828281518110611a8957611a896153e1565b6020908102919091010152600101611a65565b509392505050565b87611aae81611fbd565b6001600160a01b0316336001600160a01b031614611adf576040516324adc17160e11b815260040160405180910390fd5b8715611b4657611aef8989613d30565b611afa886001613e28565b6000898152600c602052604090208890558789611b1681611fbd565b6001600160a01b0316600080516020615b41833981519152600160405160ff909116815260200160405180910390a45b8615611bb057611b568988613d30565b611b61876002613e28565b6000898152600c602052604090206001018790558689611b8081611fbd565b6001600160a01b0316600080516020615b41833981519152600260405160ff909116815260200160405180910390a45b8515611c1a57611bc08987613d30565b611bcb866003613e28565b6000898152600c602052604090206002018690558589611bea81611fbd565b6001600160a01b0316600080516020615b41833981519152600360405160ff909116815260200160405180910390a45b8415611c8457611c2a8986613d30565b611c35856004613e28565b6000898152600c602052604090206003018590558489611c5481611fbd565b6001600160a01b0316600080516020615b41833981519152600460405160ff909116815260200160405180910390a45b8315611cee57611c948985613d30565b611c9f846005613e28565b6000898152600c602052604090206004018490558389611cbe81611fbd565b6001600160a01b0316600080516020615b41833981519152600560405160ff909116815260200160405180910390a45b8215611d5857611cfe8984613d30565b611d09836006613e28565b6000898152600c602052604090206005018390558289611d2881611fbd565b6001600160a01b0316600080516020615b41833981519152600660405160ff909116815260200160405180910390a45b8115611dc257611d688983613d30565b611d73826007613e28565b6000898152600c602052604090206006018290558189611d9281611fbd565b6001600160a01b0316600080516020615b41833981519152600760405160ff909116815260200160405180910390a45b88611dcc8a611fbd565b6001600160a01b03167f56680590212b09eb4b72a2eba8801b037ec046dfc754538e924f5bb6a8c4db6c60405160405180910390a3505050505050505050565b6000611e1760085490565b8210611e7a5760405162461bcd60e51b815260206004820152602c60248201527f455243373231456e756d657261626c653a20676c6f62616c20696e646578206f60448201526b7574206f6620626f756e647360a01b60648201526084016114a3565b60088281548110611e8d57611e8d6153e1565b90600052602060002001549050919050565b63389a75e1600c523360005260006020600c2055337ffa7b8eab7da67f412cc9575ed43464468f9bfbae89d1675917346ca6d8fe3c92600080a2565b6000611ee684611fbd565b90506001600160a01b0381163314611f10576040516282b42960e81b815260040160405180910390fd5b8115611f2057611f2084846139d3565b611f2b818484613f2a565b50505050565b601c6020528160005260406000208181548110611f4d57600080fd5b6000918252602090912001546001600160a01b03169150829050565b611f71613934565b601280546001600160a01b0319166001600160a01b0392909216919091179055565b611f9b613934565b601080546001600160a01b0319166001600160a01b0392909216919091179055565b6000818152600260205260408120546001600160a01b031680610f395760405162461bcd60e51b8152602060048201526018602482015277115490cdcc8c4e881a5b9d985b1a59081d1bdad95b88125160421b60448201526064016114a3565b6010546040516331a9108f60e11b8152600481018390526000918291829182916001600160a01b0390911690636352211e90602401602060405180830381865afa15801561206f573d6000803e3d6000fd5b505050506040513d601f19601f820116820180604052508101906120939190615592565b6001600160a01b0381166000908152601b602052604090205490945092506120ba83611fbd565b91506120c68386612229565b90509193509193565b6000818152601c602090815260409182902080548351818402810184019094528084526060939283018282801561212f57602002820191906000526020600020905b81546001600160a01b03168152600190910190602001808311612111575b50505050509050919050565b60006001600160a01b0382166121a55760405162461bcd60e51b815260206004820152602960248201527f4552433732313a2061646472657373207a65726f206973206e6f7420612076616044820152683634b21037bbb732b960b91b60648201526084016114a3565b506001600160a01b031660009081526003602052604090205490565b6121c9613934565b6121d36000613ff0565b565b6121dd613934565b601180546001600160a01b0319166001600160a01b0392909216919091179055565b612207613934565b601380546001600160a01b0319166001600160a01b0392909216919091179055565b60008061223584612b83565b805190915083148061224a5750828160200151145b806122585750828160400151145b806122665750828160600151145b806122745750828160800151145b806122825750828160a00151145b806122905750828160c00151145b949350505050565b6013546000828152600f602052604080822090516371bed9e160e11b81526060936001600160a01b03169163e37db3c2916122d9916002019060040161562c565b600060405180830381865afa1580156122f6573d6000803e3d6000fd5b505050506040513d6000823e601f3d908101601f1916820160405261231e91908101906153ad565b6013546040516335b07b7960e11b81529192506001600160a01b031690636b60f6f29061234f908490600401614b1e565b600060405180830381865afa15801561236c573d6000803e3d6000fd5b505050506040513d6000823e601f3d908101601f1916820160405261239491908101906153ad565b9392505050565b6123a3613934565b601855565b60608060606123be84610120015160ff16612298565b6101208501805160ff9081166000908152600f602052604080822060135494519093168252908190209051630d88d4ff60e01b81526003909201926001600160a01b031691630d88d4ff9161241b9160019091019060040161563f565b600060405180830381865afa158015612438573d6000803e3d6000fd5b505050506040513d6000823e601f3d908101601f1916820160405261246091908101906153ad565b81805461246c9061532e565b80601f01602080910402602001604051908101604052809291908181526020018280546124989061532e565b80156124e55780601f106124ba576101008083540402835291602001916124e5565b820191906000526020600020905b8154815290600101906020018083116124c857829003601f168201915b505050505091509250925092509193909250565b8961250381611fbd565b6001600160a01b0316336001600160a01b031614612534576040516324adc17160e11b815260040160405180910390fd5b6125448b8b8b8b8b8b8b8b611aa4565b61254e8b84613534565b6125588b83612fe6565b5050505050505050505050565b606060018054610f7d9061532e565b60105460405162438b6360e81b81526001600160a01b03838116600483015260609260009291169063438b630090602401600060405180830381865afa1580156125c2573d6000803e3d6000fd5b505050506040513d6000823e601f3d908101601f191682016040526123949190810190615672565b600b5460ff16156121d35760005b600a8110156126135761260b600461266c565b6001016125f8565b5061263d60016040518060400160405280600681526020016533333333333360d11b815250612fe6565b6121d3600180612d29565b6000818152601a60205260409020546060906001600160a01b031661239481612574565b6012546001600160a01b031661269557604051633390ca8960e21b815260040160405180910390fd5b806000036126b65760405163e7195f5160e01b815260040160405180910390fd5b806018546126c4919061572d565b34146126e35760405163356680b760e01b815260040160405180910390fd5b60005b818110156110745760006016600081546126ff90615744565b91829055509050612710338261402e565b604051638a54c52f60e01b81527355266d75d1a14e4572138116af39863ed6596e7f600482015260006024820181905262014a34604483015230606483015260848201839052906f6551c19487814612e58fe0681377575890638a54c52f9060a4016020604051808303816000875af1158015612791573d6000803e3d6000fd5b505050506040513d601f19601f820116820180604052508101906127b59190615592565b6000838152601a6020908152604080832080546001600160a01b0319166001600160a01b038616908117909155808452601b90925291829020859055905163189acdbd60e31b81527341c8f39463a868d3a88af00cd0fe7102f30e44ec60048201529192509063c4d66de890602401600060405180830381600087803b15801561283e57600080fd5b505af1158015612852573d6000803e3d6000fd5b5050601254604051637458922960e11b81526001600160a01b03858116600483015260009450909116915063e8b12452906024016000604051808303816000875af11580156128a5573d6000803e3d6000fd5b505050506040513d6000823e601f3d908101601f191682016040526128cd9190810190615672565b6000848152600c60205260408120600881018690558251929350918391906128f7576128f76153e1565b602002602001015181600601819055508160018151811061291a5761291a6153e1565b602002602001015181600501819055508160028151811061293d5761293d6153e1565b6020026020010151816004018190555081600381518110612960576129606153e1565b6020026020010151816001018190555060058460405160200161298591815260200190565b6040516020818303038152906040528051906020012060001c6129a8919061575d565b60098201805460ff191660ff929092169190911790556040805180820190915260068152650c110d914e5160d21b6020820152600a8201906129ea90826157c7565b50505050508060010190506126e6565b60606000612a0783612b83565b9050806101600151612a2157612a1c836136ad565b612394565b61239483613262565b8015612a98576000612a3b33611a0d565b90508051600003612a5e576040516282b42960e81b815260040160405180910390fd5b60005b8151811015612a9557612a8d828281518110612a7f57612a7f6153e1565b6020026020010151856139d3565b600101612a61565b50505b611074338383613f2a565b606080612ab783610120015160ff16612298565b60135461012085015160ff166000908152600f6020526040908190209051630d88d4ff60e01b81526001600160a01b0390921691630d88d4ff91612b039160019091019060040161563f565b600060405180830381865afa158015612b20573d6000803e3d6000fd5b505050506040513d6000823e601f3d908101601f19168201604052612b4891908101906153ad565b91509150915091565b612b5b3383613a80565b612b775760405162461bcd60e51b81526004016114a390615478565b611f2b84848484614184565b612bf260405180610180016040528060008152602001600081526020016000815260200160008152602001600081526020016000815260200160008152602001600063ffffffff16815260200160008152602001600060ff168152602001606081526020016000151581525090565b6000828152600c60209081526040808320815161018081018352815481526001820154938101939093526002810154918301919091526003810154606083015260048101546080830152600581015460a0830152600681015460c0830152600781015463ffffffff1660e08301526008810154610100830152600981015460ff16610120830152600a8101805461014084019190612c8f9061532e565b80601f0160208091040260200160405190810160405280929190818152602001828054612cbb9061532e565b8015612d085780601f10612cdd57610100808354040283529160200191612d08565b820191906000526020600020905b815481529060010190602001808311612ceb57829003601f168201915b5050509183525050600b919091015460ff1615156020909101529392505050565b81612d3381611fbd565b6001600160a01b0316336001600160a01b031614612d64576040516324adc17160e11b815260040160405180910390fd5b6000838152600c60205260409020600b01805460ff191683151517905582612d8b81611fbd565b6001600160a01b03167f6dd9e2813f787f711671bf91b2e57a72b9b61bc279b934201f3fd29b3b5f8cbe84604051612dc7911515815260200190565b60405180910390a3505050565b6000818152600260205260409020546060906001600160a01b0316612e0c57604051631a65aaab60e31b815260040160405180910390fd5b610f39826129fa565b81612e1f81611fbd565b6001600160a01b0316336001600160a01b031614612e50576040516324adc17160e11b815260040160405180910390fd5b6001826007811115612e6457612e646154c6565b03612e79576000838152600c60205260408120555b6002826007811115612e8d57612e8d6154c6565b03612ea5576000838152600c60205260408120600101555b6003826007811115612eb957612eb96154c6565b03612ed1576000838152600c60205260408120600201555b6004826007811115612ee557612ee56154c6565b03612efd576000838152600c60205260408120600301555b6005826007811115612f1157612f116154c6565b03612f29576000838152600c60205260408120600401555b6006826007811115612f3d57612f3d6154c6565b03612f55576000838152600c60205260408120600501555b6007826007811115612f6957612f696154c6565b03612f81576000838152600c60205260408120600601555b82612f8b84611fbd565b6001600160a01b03167f3d8ac56c725fc7985e9444622a45baee28ba67d8a964045f747b465121f40e71846007811115612fc757612fc76154c6565b60405160ff9091168152602001612dc7565b612fe1613934565b601955565b81612ff081611fbd565b6001600160a01b0316336001600160a01b031614613021576040516324adc17160e11b815260040160405180910390fd5b8151829060061461304557604051631cf7e9c560e01b815260040160405180910390fd5b60408051808201909152600681526503036393432360d41b6020918201528151908201207fc9a8162f44485821dce92aaad6bb1b8cc6d457721d5ae939092ca3297c7dd0a5016130a85760405163a3c0b7b960e01b815260040160405180910390fd5b60005b60068110156131f557603060f81b8282815181106130cb576130cb6153e1565b01602001516001600160f81b0319161080159061310c5750603960f81b8282815181106130fa576130fa6153e1565b01602001516001600160f81b03191611155b15801561316e5750604160f81b82828151811061312b5761312b6153e1565b01602001516001600160f81b0319161080159061316c5750604660f81b82828151811061315a5761315a6153e1565b01602001516001600160f81b03191611155b155b80156131cf5750606160f81b82828151811061318c5761318c6153e1565b01602001516001600160f81b031916108015906131cd5750606660f81b8282815181106131bb576131bb6153e1565b01602001516001600160f81b03191611155b155b156131ed57604051631cf7e9c560e01b815260040160405180910390fd5b6001016130ab565b506000848152600c60205260409020600a0161321184826157c7565b508361321c85611fbd565b6001600160a01b03167f2e34f8c0f6052b66319b4a5df14eac164c6af8a0b37f612d4304a777e1ae7a3d856040516132549190614b1e565b60405180910390a350505050565b606080606080606080606080606061329b6040518060800160405280606081526020016060815260200160608152602001600081525090565b60006132a68c612b83565b90506132b1816123a8565b60105460405163bb12d21d60e01b8152939d50919a5095506001600160a01b03169063bb12d21d906132e79084906004016150fb565b600060405180830381865afa158015613304573d6000803e3d6000fd5b505050506040513d6000823e601f3d908101601f1916820160405261332c91908101906154dc565b604051929b5090985095506133479085908790602001615886565b6040516020818303038152906040529250878760405160200161336b929190615563565b60408051601f198184030181529190526101408201518352955061338e8c612648565b51606083015261012081015160ff166000908152600f6020526040902060010180546133b99061532e565b80601f01602080910402602001604051908101604052809291908181526020018280546133e59061532e565b80156134325780601f1061340757610100808354040283529160200191613432565b820191906000526020600020905b81548152906001019060200180831161341557829003601f168201915b5050505050826020018190525061345b8c6000908152600c60205260409020600b015460ff1690565b61347f57604051806040016040528060028152602001610c9160f21b81525061349b565b604051806040016040528060028152602001610cd160f21b8152505b60408084019190915260145490516367b6032760e11b81526001600160a01b039091169063cf6c064e906134df908f908e9089908f908c908e908b9060040161594a565b600060405180830381865afa1580156134fc573d6000803e3d6000fd5b505050506040513d6000823e601f3d908101601f1916820160405261352491908101906153ad565b9c9b505050505050505050505050565b8161353e81611fbd565b6001600160a01b0316336001600160a01b03161461356f576040516324adc17160e11b815260040160405180910390fd5b60048260ff161115613594576040516329ba348d60e11b815260040160405180910390fd5b6000838152600c60205260409020600901805460ff191660ff8416179055826135bc81611fbd565b60405160ff851681526001600160a01b0391909116907f454db5768a3f8187a5dd5e9cca100cf699d74d8a03f793d16da3932cdf34d35890602001612dc7565b613604613934565b63389a75e1600c52806000526020600c20805442111561362c57636f5e88186000526004601cfd5b600090556119ef81613ff0565b613641613934565b6000848152600f602052604090208481556001810161366085826157c7565b506002810161366f84826157c7565b506003810161367e83826157c7565b505050505050565b61368e613934565b8060601b6136a457637448fbae6000526004601cfd5b6119ef81613ff0565b60608060608060608060006136c188612b83565b90506136cc81612aa3565b601054604051631be5857160e31b81529298509096506001600160a01b03169063df2c2b88906137009084906004016150fb565b600060405180830381865afa15801561371d573d6000803e3d6000fd5b505050506040513d6000823e601f3d908101601f1916820160405261374591908101906159d3565b909450925061375388611239565b91506137806040518060800160405280606081526020016060815260200160608152602001600081525090565b610140820151815261379189612648565b51606082015261012082015160ff166000908152600f6020526040902060010180546137bc9061532e565b80601f01602080910402602001604051908101604052809291908181526020018280546137e89061532e565b80156138355780601f1061380a57610100808354040283529160200191613835565b820191906000526020600020905b81548152906001019060200180831161381857829003601f168201915b5050505050816020018190525061385e896000908152600c60205260409020600b015460ff1690565b61388257604051806040016040528060028152602001610c9160f21b81525061389e565b604051806040016040528060028152602001610cd160f21b8152505b6040808301919091526013549051630ed2eb5b60e41b81526001600160a01b039091169063ed2eb5b0906138e2908c908b908b908b908b908b908a9060040161594a565b600060405180830381865afa1580156138ff573d6000803e3d6000fd5b505050506040513d6000823e601f3d908101601f1916820160405261392791908101906153ad565b9998505050505050505050565b638b78c6d8195433146121d3576382b429006000526004601cfd5b60006001600160e01b0319821663780e9d6360e01b1480610f395750610f39826141b7565b6000818152600260205260409020546001600160a01b03166119ef5760405162461bcd60e51b8152602060048201526018602482015277115490cdcc8c4e881a5b9d985b1a59081d1bdad95b88125160421b60448201526064016114a3565b6000918252601c6020908152604083208054600181018255908452922090910180546001600160a01b0319166001600160a01b03909216919091179055565b600081815260046020526040902080546001600160a01b0319166001600160a01b0384169081179091558190613a4782611fbd565b6001600160a01b03167f8c5be1e5ebec7d5bd14f71427d1e84f3dd0314c0f7b2291e5b200ac8c7c3b92560405160405180910390a45050565b600080613a8c83611fbd565b9050806001600160a01b0316846001600160a01b03161480613ad357506001600160a01b0380821660009081526005602090815260408083209388168352929052205460ff165b806122905750836001600160a01b0316613aec84611000565b6001600160a01b031614949350505050565b826001600160a01b0316613b1182611fbd565b6001600160a01b031614613b755760405162461bcd60e51b815260206004820152602560248201527f4552433732313a207472616e736665722066726f6d20696e636f72726563742060448201526437bbb732b960d91b60648201526084016114a3565b6001600160a01b038216613bd75760405162461bcd60e51b8152602060048201526024808201527f4552433732313a207472616e7366657220746f20746865207a65726f206164646044820152637265737360e01b60648201526084016114a3565b613be2838383614207565b613bed600082613a12565b6001600160a01b0383166000908152600360205260408120805460019290613c16908490615a2c565b90915550506001600160a01b0382166000908152600360205260408120805460019290613c44908490615a3f565b909155505060008181526002602052604080822080546001600160a01b0319166001600160a01b0386811691821790925591518493918716917fddf252ad1be2c89b69c2b068fc378daa952ba7f163c4a11628f55a4df523b3ef91a46114b78383836145e2565b6000613cb78383613d30565b60105460405163e8a1268d60e01b8152600481018490526001600160a01b039091169063e8a1268d90602401602060405180830381865afa158015613d00573d6000803e3d6000fd5b505050506040513d601f19601f82011682018060405250810190613d249190615a52565b9050610f398282613e28565b81613d3a81611fbd565b6001600160a01b0316336001600160a01b031614613d6b576040516324adc17160e11b815260040160405180910390fd5b6000838152601a60205260408082205460105491516331a9108f60e11b8152600481018690526001600160a01b0391821693929190911690636352211e90602401602060405180830381865afa158015613dc9573d6000803e3d6000fd5b505050506040513d601f19601f82011682018060405250810190613ded9190615592565b9050816001600160a01b0316816001600160a01b031614613e215760405163e6ca793160e01b815260040160405180910390fd5b5050505050565b60105460405163e8a1268d60e01b8152600481018490526000916001600160a01b03169063e8a1268d90602401602060405180830381865afa158015613e72573d6000803e3d6000fd5b505050506040513d601f19601f82011682018060405250810190613e969190615a52565b9050816007811115613eaa57613eaa6154c6565b604051602001613ebc91815260200190565b60405160208183030381529060405280519060200120816007811115613ee457613ee46154c6565b604051602001613ef691815260200190565b60405160208183030381529060405280519060200120146114b757604051633e54c6fb60e11b815260040160405180910390fd5b816001600160a01b0316836001600160a01b031603613f8b5760405162461bcd60e51b815260206004820152601960248201527f4552433732313a20617070726f766520746f2063616c6c65720000000000000060448201526064016114a3565b6001600160a01b03838116600081815260056020908152604080832094871680845294825291829020805460ff191686151590811790915591519182527f17307eab39ab6107e8899845ad3d59bd9653f200f220920489ca2b5937696c319101612dc7565b638b78c6d81980546001600160a01b039092169182907f8be0079c531659141344cd1fd0a4f28419497f9722a3daafe3b4186f6b6457e0600080a355565b6001600160a01b0382166140845760405162461bcd60e51b815260206004820181905260248201527f4552433732313a206d696e7420746f20746865207a65726f206164647265737360448201526064016114a3565b6000818152600260205260409020546001600160a01b0316156140e95760405162461bcd60e51b815260206004820152601c60248201527f4552433732313a20746f6b656e20616c7265616479206d696e7465640000000060448201526064016114a3565b6140f560008383614207565b6001600160a01b038216600090815260036020526040812080546001929061411e908490615a3f565b909155505060008181526002602052604080822080546001600160a01b0319166001600160a01b03861690811790915590518392907fddf252ad1be2c89b69c2b068fc378daa952ba7f163c4a11628f55a4df523b3ef908290a4611074600083836145e2565b61418f848484613afe565b61419b848484846145ec565b611f2b5760405162461bcd60e51b81526004016114a390615a6f565b60006001600160e01b031982166380ac58cd60e01b14806141e857506001600160e01b03198216635b5e139f60e01b145b80610f3957506301ffc9a760e01b6001600160e01b0319831614610f39565b6001600160a01b038316614220576114b78383836146ed565b6001600160a01b0382166000908152601b60205260409020541561425757604051639a42da2960e01b815260040160405180910390fd5b6000818152601a602052604080822054601054915162438b6360e81b81526001600160a01b03918216600482018190529392919091169063438b630090602401600060405180830381865afa1580156142b4573d6000803e3d6000fd5b505050506040513d6000823e601f3d908101601f191682016040526142dc9190810190615672565b905060006142e985611a0d565b9050600081516001600160401b0381111561430657614306614d4e565b60405190808252806020026020018201604052801561432f578160200160208202803683370190505b50905060005b82518110156143b057601a6000848381518110614354576143546153e1565b6020026020010151815260200190815260200160002060009054906101000a90046001600160a01b0316828281518110614390576143906153e1565b6001600160a01b0390921660209283029190910190910152600101614335565b5060115460405163644ec52760e01b8152600481018790526001600160a01b039091169063644ec52790602401600060405180830381600087803b1580156143f757600080fd5b505af115801561440b573d6000803e3d6000fd5b5050601154604051631e92beb560e31b8152600481018990526001600160a01b038a81166024830152909116925063f495f5a89150604401600060405180830381600087803b15801561445d57600080fd5b505af1158015614471573d6000803e3d6000fd5b5050505060005b83518110156145cd576000848281518110614495576144956153e1565b6020908102919091010151601154604051632e1d274f60e01b8152600481018390529192506001600160a01b031690632e1d274f90602401600060405180830381600087803b1580156144e757600080fd5b505af11580156144fb573d6000803e3d6000fd5b5050601154604051632333520b60e11b81526001600160a01b039091169250634666a41691506145319084908790600401615ac1565b600060405180830381600087803b15801561454b57600080fd5b505af115801561455f573d6000803e3d6000fd5b505060105460405163487b1c2160e11b8152600481018590526001600160a01b0390911692506390f638429150602401600060405180830381600087803b1580156145a957600080fd5b505af11580156145bd573d6000803e3d6000fd5b5050505050806001019050614478565b506145d98787876146ed565b50505050505050565b6114b781846147a5565b60006001600160a01b0384163b156146e257604051630a85bd0160e11b81526001600160a01b0385169063150b7a0290614630903390899088908890600401615ada565b6020604051808303816000875af192505050801561466b575060408051601f3d908101601f1916820190925261466891810190615b0d565b60015b6146c8573d808015614699576040519150601f19603f3d011682016040523d82523d6000602084013e61469e565b606091505b5080516000036146c05760405162461bcd60e51b81526004016114a390615a6f565b805181602001fd5b6001600160e01b031916630a85bd0160e11b149050612290565b506001949350505050565b6001600160a01b0383166147485761474381600880546000838152600960205260408120829055600182018355919091527ff3f7a9fe364faab93b216da50a3214154f22a0a2b415b23a84c8169e8b636ee30155565b61476b565b816001600160a01b0316836001600160a01b03161461476b5761476b838261488e565b6001600160a01b038216614782576114b78161492b565b826001600160a01b0316826001600160a01b0316146114b7576114b782826149da565b6000828152601c602090815260408083208054825181850281018501909352808352919290919083018282801561480557602002820191906000526020600020905b81546001600160a01b031681526001909101906020018083116147e7575b5050506000868152601a60205260408120549394506001600160a01b03909316929150505b82518110156148765761485884848381518110614849576148496153e1565b60200260200101516000613f2a565b61486e82848381518110614849576148496153e1565b60010161482a565b506000848152601c60205260408120611f2b91614a1e565b6000600161489b8461213b565b6148a59190615a2c565b6000838152600760205260409020549091508082146148f8576001600160a01b03841660009081526006602090815260408083208584528252808320548484528184208190558352600790915290208190555b5060009182526007602090815260408084208490556001600160a01b039094168352600681528383209183525290812055565b60085460009061493d90600190615a2c565b60008381526009602052604081205460088054939450909284908110614965576149656153e1565b906000526020600020015490508060088381548110614986576149866153e1565b60009182526020808320909101929092558281526009909152604080822084905585825281205560088054806149be576149be615b2a565b6001900381819060005260206000200160009055905550505050565b60006149e58361213b565b6001600160a01b039093166000908152600660209081526040808320868452825280832085905593825260079052919091209190915550565b50805460008255906000526020600020908101906119ef91905b80821115614a4c5760008155600101614a38565b5090565b6001600160a01b03811681146119ef57600080fd5b600060208284031215614a7757600080fd5b813561239481614a50565b6001600160e01b0319811681146119ef57600080fd5b600060208284031215614aaa57600080fd5b813561239481614a82565b600060208284031215614ac757600080fd5b5035919050565b60005b83811015614ae9578181015183820152602001614ad1565b50506000910152565b60008151808452614b0a816020860160208601614ace565b601f01601f19169290920160200192915050565b6020815260006123946020830184614af2565b60008060408385031215614b4457600080fd5b8235614b4f81614a50565b946020939093013593505050565b848152608060208201526000614b766080830186614af2565b8281036040840152614b888186614af2565b90508281036060840152614b9c8185614af2565b979650505050505050565b600080600060608486031215614bbc57600080fd5b8335614bc781614a50565b92506020840135614bd781614a50565b929592945050506040919091013590565b60008060408385031215614bfb57600080fd5b50508035926020909101359150565b6020808252825182820181905260009190848201906040850190845b81811015614c4257835183529284019291840191600101614c26565b50909695505050505050565b600080600080600080600080610100898b031215614c6b57600080fd5b505086359860208801359850604088013597606081013597506080810135965060a0810135955060c0810135945060e0013592509050565b80358015158114614cb357600080fd5b919050565b600080600060608486031215614ccd57600080fd5b833592506020840135614cdf81614a50565b9150614ced60408501614ca3565b90509250925092565b60008151808452602080850194506020840160005b83811015614d305781516001600160a01b031687529582019590820190600101614d0b565b509495945050505050565b6020815260006123946020830184614cf6565b634e487b7160e01b600052604160045260246000fd5b60405161018081016001600160401b0381118282101715614d8757614d87614d4e565b60405290565b604051601f8201601f191681016001600160401b0381118282101715614db557614db5614d4e565b604052919050565b803563ffffffff81168114614cb357600080fd5b803560ff81168114614cb357600080fd5b60006001600160401b03821115614dfb57614dfb614d4e565b50601f01601f191660200190565b600082601f830112614e1a57600080fd5b8135614e2d614e2882614de2565b614d8d565b818152846020838601011115614e4257600080fd5b816020850160208301376000918101602001919091529392505050565b600060208284031215614e7157600080fd5b81356001600160401b0380821115614e8857600080fd5b908301906101808286031215614e9d57600080fd5b614ea5614d64565b823581526020830135602082015260408301356040820152606083013560608201526080830135608082015260a083013560a082015260c083013560c0820152614ef160e08401614dbd565b60e08201526101008381013590820152610120614f0f818501614dd1565b908201526101408381013583811115614f2757600080fd5b614f3388828701614e09565b8284015250506101609150614f49828401614ca3565b91810191909152949350505050565b606081526000614f6b6060830186614af2565b8281036020840152614f7d8186614af2565b905082810360408401526114738185614af2565b6000806000806000806000806000806101408b8d031215614fb157600080fd5b8a35995060208b0135985060408b0135975060608b0135965060808b0135955060a08b0135945060c08b0135935060e08b01359250614ff36101008c01614dd1565b91506101208b01356001600160401b0381111561500f57600080fd5b61501b8d828e01614e09565b9150509295989b9194979a5092959850565b6000806040838503121561504057600080fd5b823561504b81614a50565b915061505960208401614ca3565b90509250929050565b6040815260006150756040830185614af2565b82810360208401526150878185614af2565b95945050505050565b600080600080608085870312156150a657600080fd5b84356150b181614a50565b935060208501356150c181614a50565b92506040850135915060608501356001600160401b038111156150e357600080fd5b6150ef87828801614e09565b91505092959194509250565b6020815281516020820152602082015160408201526040820151606082015260608201516080820152608082015160a082015260a082015160c082015260c082015160e0820152600060e083015161010061515d8185018363ffffffff169052565b8401516101208481019190915284015190506101406151808185018360ff169052565b8085015191505061018061016081818601526151a06101a0860184614af2565b95015115159301929092525090919050565b600080604083850312156151c557600080fd5b8235915061505960208401614ca3565b600881106119ef57600080fd5b600080604083850312156151f557600080fd5b823591506020830135615207816151d5565b809150509250929050565b6000806040838503121561522557600080fd5b8235915060208301356001600160401b0381111561524257600080fd5b61524e85828601614e09565b9150509250929050565b6000806040838503121561526b57600080fd5b8235915061505960208401614dd1565b6000806040838503121561528e57600080fd5b823561529981614a50565b9150602083013561520781614a50565b600080600080608085870312156152bf57600080fd5b8435935060208501356001600160401b03808211156152dd57600080fd5b6152e988838901614e09565b945060408701359150808211156152ff57600080fd5b61530b88838901614e09565b9350606087013591508082111561532157600080fd5b506150ef87828801614e09565b600181811c9082168061534257607f821691505b60208210810361536257634e487b7160e01b600052602260045260246000fd5b50919050565b600082601f83011261537957600080fd5b8151615387614e2882614de2565b81815284602083860101111561539c57600080fd5b612290826020830160208701614ace565b6000602082840312156153bf57600080fd5b81516001600160401b038111156153d557600080fd5b61229084828501615368565b634e487b7160e01b600052603260045260246000fd5b60808152600061540a6080830187614af2565b6020838203818501528187518084528284019150828160051b850101838a0160005b8381101561545a57601f19878403018552615448838351614af2565b9486019492509085019060010161542c565b50506040870198909852505050506060909101919091525092915050565b6020808252602e908201527f4552433732313a2063616c6c6572206973206e6f7420746f6b656e206f776e6560408201526d1c881b9bdc88185c1c1c9bdd995960921b606082015260800190565b634e487b7160e01b600052602160045260246000fd5b6000806000606084860312156154f157600080fd5b83516001600160401b038082111561550857600080fd5b61551487838801615368565b9450602086015191508082111561552a57600080fd5b61553687838801615368565b9350604086015191508082111561554c57600080fd5b5061555986828701615368565b9150509250925092565b60008351615575818460208801614ace565b835190830190615589818360208801614ace565b01949350505050565b6000602082840312156155a457600080fd5b815161239481614a50565b600081546155bc8161532e565b8085526020600183811680156155d957600181146155f357615621565b60ff1985168884015283151560051b880183019550615621565b866000528260002060005b858110156156195781548a82018601529083019084016155fe565b890184019650505b505050505092915050565b60208152600061239460208301846155af565b604081526009604082015268426f6479205479706560b81b606082015260806020820152600061239460808301846155af565b6000602080838503121561568557600080fd5b82516001600160401b038082111561569c57600080fd5b818501915085601f8301126156b057600080fd5b8151818111156156c2576156c2614d4e565b8060051b91506156d3848301614d8d565b81815291830184019184810190888411156156ed57600080fd5b938501935b8385101561570b578451825293850193908501906156f2565b98975050505050505050565b634e487b7160e01b600052601160045260246000fd5b8082028115828204841417610f3957610f39615717565b60006001820161575657615756615717565b5060010190565b60008261577a57634e487b7160e01b600052601260045260246000fd5b500690565b601f8211156114b7576000816000526020600020601f850160051c810160208610156157a85750805b601f850160051c820191505b8181101561367e578281556001016157b4565b81516001600160401b038111156157e0576157e0614d4e565b6157f4816157ee845461532e565b8461577f565b602080601f83116001811461582957600084156158115750858301515b600019600386901b1c1916600185901b17855561367e565b600085815260208120601f198616915b8281101561585857888601518255948401946001909101908401615839565b50858210156158765787850151600019600388901b60f8161c191681555b5050505050600190811b01905550565b6d2261747472696275746573223a5b60901b815282516000906158b081600e850160208801614ace565b600b60fa1b600e9184019182015283516158d181600f840160208801614ace565b605d60f81b600f9290910191820152601001949350505050565b60008151608084526159006080850182614af2565b9050602083015184820360208601526159198282614af2565b915050604083015184820360408601526159338282614af2565b915050606083015160608501528091505092915050565b87815260e06020820152600061596360e0830189614af2565b82810360408401526159758189614af2565b905082810360608401526159898188614af2565b9050828103608084015261599d8187614af2565b905082810360a08401526159b18186614af2565b905082810360c08401526159c581856158eb565b9a9950505050505050505050565b600080604083850312156159e657600080fd5b82516001600160401b03808211156159fd57600080fd5b615a0986838701615368565b93506020850151915080821115615a1f57600080fd5b5061524e85828601615368565b81810381811115610f3957610f39615717565b80820180821115610f3957610f39615717565b600060208284031215615a6457600080fd5b8151612394816151d5565b60208082526032908201527f4552433732313a207472616e7366657220746f206e6f6e20455243373231526560408201527131b2b4bb32b91034b6b83632b6b2b73a32b960711b606082015260800190565b8281526040602082015260006122906040830184614cf6565b6001600160a01b038581168252841660208201526040810183905260806060820181905260009061147390830184614af2565b600060208284031215615b1f57600080fd5b815161239481614a82565b634e487b7160e01b600052603160045260246000fdfec94c1c47471ed97c1d309bab965192a3e4be3807f42d015b699bfbdcf24dd9f6a2646970667358221220a0b8860ecd3771c376f4c42a4eaee699a165748eb6eb88625e15cfe1cde92ad264736f6c63430008160033","linkReferences":{}},"methodIdentifiers":{"_debugPostConstructorMint()":"9c7be2f1","_nextTokenId()":"4a60f620","addNewBody(uint256,string,bytes,bytes)":"f2361e23","approve(address,uint256)":"095ea7b3","balanceOf(address)":"70a08231","bodyIndexToMetadata(uint256)":"0c83f9d7","cancelOwnershipHandover()":"54d1f13d","checkIfTraitIsEquipped(uint256,uint256)":"8aa1e4c8","chonkIdToApprovedOperators(uint256,uint256)":"55737f35","completeOwnershipHandover(address)":"f04e283e","equip(uint256,uint256)":"28257532","equipAll(uint256,uint256,uint256,uint256,uint256,uint256,uint256,uint256)":"4a4333a3","firstSeasonRenderMinter()":"13ea0ae3","getApproved(uint256)":"081812fc","getBackpackSVGs(uint256)":"14fe8ff4","getBodyImageSvg(uint256)":"916c546b","getBodySVGZmapsAndMetadata((uint256,uint256,uint256,uint256,uint256,uint256,uint256,uint32,uint256,uint8,string,bool))":"92012f08","getBodySvgAndMetadata((uint256,uint256,uint256,uint256,uint256,uint256,uint256,uint32,uint256,uint8,string,bool))":"a23830ae","getBodyZMap(uint256)":"306c7334","getChonkIdForTBAAddress(address)":"8472cbca","getChonkIdToApprovedOperators(uint256)":"67d2afe2","getFullPictureForTrait(uint256)":"66704349","getOwnerAndTBAAddressForChonkId(uint256)":"04003bd0","getPeter(uint256)":"be928ff6","getPeterZMap(uint256)":"2bd1ca45","getTBAAddressForChonkId(uint256)":"f6a0c932","getTokenRenderZ(uint256)":"8200ea51","getTraitTokens(address)":"998cfb6e","getTraitsForChonkId(uint256)":"9f6e4637","isApprovedForAll(address,address)":"e985e9c5","mainRenderer2D()":"f4bec0b6","mainRenderer3D()":"b66ef6e3","marketplace()":"abc8c7af","maxTraitsToOutput()":"e3d21555","mint(uint256)":"a0712d68","mintStartTime()":"931e2e49","name()":"06fdde03","owner()":"8da5cb5b","ownerOf(uint256)":"6352211e","ownershipHandoverExpiresAt(address)":"fee81cf4","peterMakeover(uint256,uint256,uint256,uint256,uint256,uint256,uint256,uint256,uint8,string)":"93ccba72","price()":"a035b1fe","renderAsDataUri(uint256)":"a1d62680","renderAsDataUri2D(uint256)":"f3f8efb9","renderAsDataUri3D(uint256)":"dceef0ec","renounceOwnership()":"715018a6","requestOwnershipHandover()":"25692962","safeTransferFrom(address,address,uint256)":"42842e0e","safeTransferFrom(address,address,uint256,bytes)":"b88d4fde","setApprovalForAll(address,bool)":"a22cb465","setApprovalForAllChonksMarketplace(uint256,address,bool)":"550ab247","setBackgroundColor(uint256,string)":"d68c4f32","setBodyIndex(uint256,uint8)":"e1405540","setFirstSeasonRenderMinter(address)":"58a97640","setMainRenderer2D(address)":"7e2e6c47","setMainRenderer3D(address)":"00179206","setMarketplace(address)":"73ad6c2d","setMaxTraitsToOutput(uint256)":"33d3d9bf","setMintStartTime(uint256)":"d5b3621b","setPrice(uint256)":"91b7f5ed","setTokenRender3D(uint256,bool)":"bef1dfb7","setTraitsContract(address)":"5eabd84a","setWithdrawAddress(address)":"3ab1a494","supportsInterface(bytes4)":"01ffc9a7","symbol()":"95d89b41","tbaAddressToTokenId(address)":"a4bf9a00","tokenByIndex(uint256)":"4f6ccce7","tokenIdToTBAAccountAddress(uint256)":"9c05d68d","tokenOfOwnerByIndex(address,uint256)":"2f745c59","tokenURI(uint256)":"c87b56dd","totalSupply()":"18160ddd","traitsContract()":"c093afdb","transferFrom(address,address,uint256)":"23b872dd","transferOwnership(address)":"f2fde38b","unequip(uint256,uint8)":"cdb6dd5c","unequipAll(uint256)":"3044825b","walletOfOwner(address)":"438b6300","withdraw()":"3ccfd60b","withdrawAddress()":"1581b600"},"id":55}