{"abi":[{"type":"constructor","inputs":[{"name":"localDeploy_","type":"bool","internalType":"bool"}],"stateMutability":"nonpayable"},{"type":"function","name":"_debugPostConstructorMint","inputs":[],"outputs":[],"stateMutability":"nonpayable"},{"type":"function","name":"_nextTokenId","inputs":[],"outputs":[{"name":"","type":"uint256","internalType":"uint256"}],"stateMutability":"view"},{"type":"function","name":"addNewBody","inputs":[{"name":"_bodyIndex","type":"uint256","internalType":"uint256"},{"name":"_bodyName","type":"string","internalType":"string"},{"name":"_colorMap","type":"bytes","internalType":"bytes"},{"name":"_zMap","type":"bytes","internalType":"bytes"}],"outputs":[],"stateMutability":"nonpayable"},{"type":"function","name":"approve","inputs":[{"name":"to","type":"address","internalType":"address"},{"name":"tokenId","type":"uint256","internalType":"uint256"}],"outputs":[],"stateMutability":"nonpayable"},{"type":"function","name":"balanceOf","inputs":[{"name":"owner","type":"address","internalType":"address"}],"outputs":[{"name":"","type":"uint256","internalType":"uint256"}],"stateMutability":"view"},{"type":"function","name":"bodyIndexToMetadata","inputs":[{"name":"","type":"uint256","internalType":"uint256"}],"outputs":[{"name":"bodyIndex","type":"uint256","internalType":"uint256"},{"name":"bodyName","type":"string","internalType":"string"},{"name":"colorMap","type":"bytes","internalType":"bytes"},{"name":"zMap","type":"bytes","internalType":"bytes"}],"stateMutability":"view"},{"type":"function","name":"cancelOwnershipHandover","inputs":[],"outputs":[],"stateMutability":"payable"},{"type":"function","name":"checkIfTraitIsEquipped","inputs":[{"name":"_chonkId","type":"uint256","internalType":"uint256"},{"name":"_traitId","type":"uint256","internalType":"uint256"}],"outputs":[{"name":"","type":"bool","internalType":"bool"}],"stateMutability":"view"},{"type":"function","name":"chonkIdToApprovedOperators","inputs":[{"name":"chonkId","type":"uint256","internalType":"uint256"},{"name":"","type":"uint256","internalType":"uint256"}],"outputs":[{"name":"operators","type":"address","internalType":"address"}],"stateMutability":"view"},{"type":"function","name":"completeOwnershipHandover","inputs":[{"name":"pendingOwner","type":"address","internalType":"address"}],"outputs":[],"stateMutability":"payable"},{"type":"function","name":"equip","inputs":[{"name":"_peterTokenId","type":"uint256","internalType":"uint256"},{"name":"_traitTokenId","type":"uint256","internalType":"uint256"}],"outputs":[],"stateMutability":"nonpayable"},{"type":"function","name":"equipAll","inputs":[{"name":"_peterTokenId","type":"uint256","internalType":"uint256"},{"name":"_headTokenId","type":"uint256","internalType":"uint256"},{"name":"_hairTokenId","type":"uint256","internalType":"uint256"},{"name":"_faceTokenId","type":"uint256","internalType":"uint256"},{"name":"_accessoryTokenId","type":"uint256","internalType":"uint256"},{"name":"_topTokenId","type":"uint256","internalType":"uint256"},{"name":"_bottomTokenId","type":"uint256","internalType":"uint256"},{"name":"_shoesTokenId","type":"uint256","internalType":"uint256"}],"outputs":[],"stateMutability":"nonpayable"},{"type":"function","name":"firstSeasonRenderMinter","inputs":[],"outputs":[{"name":"","type":"address","internalType":"contract FirstSeasonRenderMinter"}],"stateMutability":"view"},{"type":"function","name":"getApproved","inputs":[{"name":"tokenId","type":"uint256","internalType":"uint256"}],"outputs":[{"name":"","type":"address","internalType":"address"}],"stateMutability":"view"},{"type":"function","name":"getBackpackSVGs","inputs":[{"name":"_tokenId","type":"uint256","internalType":"uint256"}],"outputs":[{"name":"","type":"string","internalType":"string"}],"stateMutability":"view"},{"type":"function","name":"getBodyImageSvg","inputs":[{"name":"_index","type":"uint256","internalType":"uint256"}],"outputs":[{"name":"svg","type":"string","internalType":"string"}],"stateMutability":"view"},{"type":"function","name":"getBodySVGZmapsAndMetadata","inputs":[{"name":"storedPeter","type":"tuple","internalType":"struct IPeterStorage.StoredPeter","components":[{"name":"headId","type":"uint256","internalType":"uint256"},{"name":"hairId","type":"uint256","internalType":"uint256"},{"name":"faceId","type":"uint256","internalType":"uint256"},{"name":"accessoryId","type":"uint256","internalType":"uint256"},{"name":"topId","type":"uint256","internalType":"uint256"},{"name":"bottomId","type":"uint256","internalType":"uint256"},{"name":"shoesId","type":"uint256","internalType":"uint256"},{"name":"epoch","type":"uint32","internalType":"uint32"},{"name":"tokenId","type":"uint256","internalType":"uint256"},{"name":"bodyIndex","type":"uint8","internalType":"uint8"},{"name":"backgroundColor","type":"string","internalType":"string"},{"name":"render3D","type":"bool","internalType":"bool"}]}],"outputs":[{"name":"","type":"string","internalType":"string"},{"name":"","type":"bytes","internalType":"bytes"},{"name":"","type":"string","internalType":"string"}],"stateMutability":"view"},{"type":"function","name":"getBodySvgAndMetadata","inputs":[{"name":"storedPeter","type":"tuple","internalType":"struct IPeterStorage.StoredPeter","components":[{"name":"headId","type":"uint256","internalType":"uint256"},{"name":"hairId","type":"uint256","internalType":"uint256"},{"name":"faceId","type":"uint256","internalType":"uint256"},{"name":"accessoryId","type":"uint256","internalType":"uint256"},{"name":"topId","type":"uint256","internalType":"uint256"},{"name":"bottomId","type":"uint256","internalType":"uint256"},{"name":"shoesId","type":"uint256","internalType":"uint256"},{"name":"epoch","type":"uint32","internalType":"uint32"},{"name":"tokenId","type":"uint256","internalType":"uint256"},{"name":"bodyIndex","type":"uint8","internalType":"uint8"},{"name":"backgroundColor","type":"string","internalType":"string"},{"name":"render3D","type":"bool","internalType":"bool"}]}],"outputs":[{"name":"","type":"string","internalType":"string"},{"name":"","type":"string","internalType":"string"}],"stateMutability":"view"},{"type":"function","name":"getBodyZMap","inputs":[{"name":"_tokenId","type":"uint256","internalType":"uint256"}],"outputs":[{"name":"","type":"string","internalType":"string"}],"stateMutability":"view"},{"type":"function","name":"getFullPictureForTrait","inputs":[{"name":"_chonkTraitTokenId","type":"uint256","internalType":"uint256"}],"outputs":[{"name":"traitOwnerTBA","type":"address","internalType":"address"},{"name":"chonkTokenId","type":"uint256","internalType":"uint256"},{"name":"chonkOwner","type":"address","internalType":"address"}],"stateMutability":"view"},{"type":"function","name":"getOwnerAndTBAAddressForChonkId","inputs":[{"name":"_chonkId","type":"uint256","internalType":"uint256"}],"outputs":[{"name":"owner","type":"address","internalType":"address"},{"name":"tbaAddress","type":"address","internalType":"address"}],"stateMutability":"view"},{"type":"function","name":"getPeter","inputs":[{"name":"_tokenId","type":"uint256","internalType":"uint256"}],"outputs":[{"name":"","type":"tuple","internalType":"struct IPeterStorage.StoredPeter","components":[{"name":"headId","type":"uint256","internalType":"uint256"},{"name":"hairId","type":"uint256","internalType":"uint256"},{"name":"faceId","type":"uint256","internalType":"uint256"},{"name":"accessoryId","type":"uint256","internalType":"uint256"},{"name":"topId","type":"uint256","internalType":"uint256"},{"name":"bottomId","type":"uint256","internalType":"uint256"},{"name":"shoesId","type":"uint256","internalType":"uint256"},{"name":"epoch","type":"uint32","internalType":"uint32"},{"name":"tokenId","type":"uint256","internalType":"uint256"},{"name":"bodyIndex","type":"uint8","internalType":"uint8"},{"name":"backgroundColor","type":"string","internalType":"string"},{"name":"render3D","type":"bool","internalType":"bool"}]}],"stateMutability":"view"},{"type":"function","name":"getPeterZMap","inputs":[{"name":"_tokenId","type":"uint256","internalType":"uint256"}],"outputs":[{"name":"","type":"string","internalType":"string"}],"stateMutability":"view"},{"type":"function","name":"getTBAAddressForChonkId","inputs":[{"name":"_chonkId","type":"uint256","internalType":"uint256"}],"outputs":[{"name":"","type":"address","internalType":"address"}],"stateMutability":"view"},{"type":"function","name":"getTokenRenderZ","inputs":[{"name":"_peterTokenId","type":"uint256","internalType":"uint256"}],"outputs":[{"name":"","type":"bool","internalType":"bool"}],"stateMutability":"view"},{"type":"function","name":"getTraitTokens","inputs":[{"name":"_tbaAddress","type":"address","internalType":"address"}],"outputs":[{"name":"","type":"uint256[]","internalType":"uint256[]"}],"stateMutability":"view"},{"type":"function","name":"getTraitsForChonkId","inputs":[{"name":"_chonkId","type":"uint256","internalType":"uint256"}],"outputs":[{"name":"traitTokens","type":"uint256[]","internalType":"uint256[]"}],"stateMutability":"view"},{"type":"function","name":"isApprovedForAll","inputs":[{"name":"owner","type":"address","internalType":"address"},{"name":"operator","type":"address","internalType":"address"}],"outputs":[{"name":"","type":"bool","internalType":"bool"}],"stateMutability":"view"},{"type":"function","name":"mainRenderer2D","inputs":[],"outputs":[{"name":"","type":"address","internalType":"contract MainRenderer2D"}],"stateMutability":"view"},{"type":"function","name":"mainRenderer3D","inputs":[],"outputs":[{"name":"","type":"address","internalType":"contract MainRenderer3D"}],"stateMutability":"view"},{"type":"function","name":"marketplace","inputs":[],"outputs":[{"name":"","type":"address","internalType":"contract ChonksMarket"}],"stateMutability":"view"},{"type":"function","name":"maxTraitsToOutput","inputs":[],"outputs":[{"name":"","type":"uint256","internalType":"uint256"}],"stateMutability":"view"},{"type":"function","name":"mint","inputs":[{"name":"_amount","type":"uint256","internalType":"uint256"}],"outputs":[],"stateMutability":"payable"},{"type":"function","name":"mintStartTime","inputs":[],"outputs":[{"name":"","type":"uint256","internalType":"uint256"}],"stateMutability":"view"},{"type":"function","name":"name","inputs":[],"outputs":[{"name":"","type":"string","internalType":"string"}],"stateMutability":"view"},{"type":"function","name":"owner","inputs":[],"outputs":[{"name":"result","type":"address","internalType":"address"}],"stateMutability":"view"},{"type":"function","name":"ownerOf","inputs":[{"name":"tokenId","type":"uint256","internalType":"uint256"}],"outputs":[{"name":"","type":"address","internalType":"address"}],"stateMutability":"view"},{"type":"function","name":"ownershipHandoverExpiresAt","inputs":[{"name":"pendingOwner","type":"address","internalType":"address"}],"outputs":[{"name":"result","type":"uint256","internalType":"uint256"}],"stateMutability":"view"},{"type":"function","name":"peterMakeover","inputs":[{"name":"_peterTokenId","type":"uint256","internalType":"uint256"},{"name":"_headTokenId","type":"uint256","internalType":"uint256"},{"name":"_hairTokenId","type":"uint256","internalType":"uint256"},{"name":"_faceTokenId","type":"uint256","internalType":"uint256"},{"name":"_accessoryTokenId","type":"uint256","internalType":"uint256"},{"name":"_topTokenId","type":"uint256","internalType":"uint256"},{"name":"_bottomTokenId","type":"uint256","internalType":"uint256"},{"name":"_shoesTokenId","type":"uint256","internalType":"uint256"},{"name":"_bodyIndex","type":"uint8","internalType":"uint8"},{"name":"_backgroundColor","type":"string","internalType":"string"}],"outputs":[],"stateMutability":"nonpayable"},{"type":"function","name":"price","inputs":[],"outputs":[{"name":"","type":"uint256","internalType":"uint256"}],"stateMutability":"view"},{"type":"function","name":"renderAsDataUri","inputs":[{"name":"_tokenId","type":"uint256","internalType":"uint256"}],"outputs":[{"name":"","type":"string","internalType":"string"}],"stateMutability":"view"},{"type":"function","name":"renderAsDataUri2D","inputs":[{"name":"_tokenId","type":"uint256","internalType":"uint256"}],"outputs":[{"name":"","type":"string","internalType":"string"}],"stateMutability":"view"},{"type":"function","name":"renderAsDataUri3D","inputs":[{"name":"_tokenId","type":"uint256","internalType":"uint256"}],"outputs":[{"name":"","type":"string","internalType":"string"}],"stateMutability":"view"},{"type":"function","name":"renounceOwnership","inputs":[],"outputs":[],"stateMutability":"payable"},{"type":"function","name":"requestOwnershipHandover","inputs":[],"outputs":[],"stateMutability":"payable"},{"type":"function","name":"safeTransferFrom","inputs":[{"name":"from","type":"address","internalType":"address"},{"name":"to","type":"address","internalType":"address"},{"name":"tokenId","type":"uint256","internalType":"uint256"}],"outputs":[],"stateMutability":"nonpayable"},{"type":"function","name":"safeTransferFrom","inputs":[{"name":"from","type":"address","internalType":"address"},{"name":"to","type":"address","internalType":"address"},{"name":"tokenId","type":"uint256","internalType":"uint256"},{"name":"data","type":"bytes","internalType":"bytes"}],"outputs":[],"stateMutability":"nonpayable"},{"type":"function","name":"setApprovalForAll","inputs":[{"name":"operator","type":"address","internalType":"address"},{"name":"approved","type":"bool","internalType":"bool"}],"outputs":[],"stateMutability":"nonpayable"},{"type":"function","name":"setBackgroundColor","inputs":[{"name":"_peterTokenId","type":"uint256","internalType":"uint256"},{"name":"_color","type":"string","internalType":"string"}],"outputs":[],"stateMutability":"nonpayable"},{"type":"function","name":"setBodyIndex","inputs":[{"name":"_peterTokenId","type":"uint256","internalType":"uint256"},{"name":"_bodyIndex","type":"uint8","internalType":"uint8"}],"outputs":[],"stateMutability":"nonpayable"},{"type":"function","name":"setFirstSeasonRenderMinter","inputs":[{"name":"_dataContract","type":"address","internalType":"address"}],"outputs":[],"stateMutability":"nonpayable"},{"type":"function","name":"setMainRenderer2D","inputs":[{"name":"_mainRenderer2D","type":"address","internalType":"address"}],"outputs":[],"stateMutability":"nonpayable"},{"type":"function","name":"setMainRenderer3D","inputs":[{"name":"_mainRenderer3D","type":"address","internalType":"address"}],"outputs":[],"stateMutability":"nonpayable"},{"type":"function","name":"setMarketplace","inputs":[{"name":"_marketplace","type":"address","internalType":"address"}],"outputs":[],"stateMutability":"nonpayable"},{"type":"function","name":"setMaxTraitsToOutput","inputs":[{"name":"_maxTraitsToOutput","type":"uint256","internalType":"uint256"}],"outputs":[],"stateMutability":"nonpayable"},{"type":"function","name":"setMintStartTime","inputs":[{"name":"_mintStartTime","type":"uint256","internalType":"uint256"}],"outputs":[],"stateMutability":"nonpayable"},{"type":"function","name":"setPrice","inputs":[{"name":"_priceInWei","type":"uint256","internalType":"uint256"}],"outputs":[],"stateMutability":"nonpayable"},{"type":"function","name":"setTokenRender3D","inputs":[{"name":"_peterTokenId","type":"uint256","internalType":"uint256"},{"name":"_render3D","type":"bool","internalType":"bool"}],"outputs":[],"stateMutability":"nonpayable"},{"type":"function","name":"setTraitsContract","inputs":[{"name":"_address","type":"address","internalType":"contract PeterTraits"}],"outputs":[],"stateMutability":"nonpayable"},{"type":"function","name":"setWithdrawAddress","inputs":[{"name":"_withdrawAddress","type":"address","internalType":"address"}],"outputs":[],"stateMutability":"nonpayable"},{"type":"function","name":"supportsInterface","inputs":[{"name":"interfaceId","type":"bytes4","internalType":"bytes4"}],"outputs":[{"name":"","type":"bool","internalType":"bool"}],"stateMutability":"view"},{"type":"function","name":"symbol","inputs":[],"outputs":[{"name":"","type":"string","internalType":"string"}],"stateMutability":"view"},{"type":"function","name":"tbaAddressToTokenId","inputs":[{"name":"","type":"address","internalType":"address"}],"outputs":[{"name":"","type":"uint256","internalType":"uint256"}],"stateMutability":"view"},{"type":"function","name":"tokenByIndex","inputs":[{"name":"index","type":"uint256","internalType":"uint256"}],"outputs":[{"name":"","type":"uint256","internalType":"uint256"}],"stateMutability":"view"},{"type":"function","name":"tokenIdToTBAAccountAddress","inputs":[{"name":"","type":"uint256","internalType":"uint256"}],"outputs":[{"name":"","type":"address","internalType":"address"}],"stateMutability":"view"},{"type":"function","name":"tokenOfOwnerByIndex","inputs":[{"name":"owner","type":"address","internalType":"address"},{"name":"index","type":"uint256","internalType":"uint256"}],"outputs":[{"name":"","type":"uint256","internalType":"uint256"}],"stateMutability":"view"},{"type":"function","name":"tokenURI","inputs":[{"name":"_tokenId","type":"uint256","internalType":"uint256"}],"outputs":[{"name":"","type":"string","internalType":"string"}],"stateMutability":"view"},{"type":"function","name":"totalSupply","inputs":[],"outputs":[{"name":"","type":"uint256","internalType":"uint256"}],"stateMutability":"view"},{"type":"function","name":"traitsContract","inputs":[],"outputs":[{"name":"","type":"address","internalType":"contract PeterTraits"}],"stateMutability":"view"},{"type":"function","name":"transferFrom","inputs":[{"name":"from","type":"address","internalType":"address"},{"name":"to","type":"address","internalType":"address"},{"name":"tokenId","type":"uint256","internalType":"uint256"}],"outputs":[],"stateMutability":"nonpayable"},{"type":"function","name":"transferOwnership","inputs":[{"name":"newOwner","type":"address","internalType":"address"}],"outputs":[],"stateMutability":"payable"},{"type":"function","name":"unequip","inputs":[{"name":"_peterTokenId","type":"uint256","internalType":"uint256"},{"name":"traitType","type":"uint8","internalType":"enum TraitCategory.Name"}],"outputs":[],"stateMutability":"nonpayable"},{"type":"function","name":"unequipAll","inputs":[{"name":"_peterTokenId","type":"uint256","internalType":"uint256"}],"outputs":[],"stateMutability":"nonpayable"},{"type":"function","name":"walletOfOwner","inputs":[{"name":"_owner","type":"address","internalType":"address"}],"outputs":[{"name":"","type":"uint256[]","internalType":"uint256[]"}],"stateMutability":"view"},{"type":"function","name":"withdrawAddress","inputs":[],"outputs":[{"name":"","type":"address","internalType":"address"}],"stateMutability":"view"},{"type":"event","name":"Approval","inputs":[{"name":"owner","type":"address","indexed":true,"internalType":"address"},{"name":"approved","type":"address","indexed":true,"internalType":"address"},{"name":"tokenId","type":"uint256","indexed":true,"internalType":"uint256"}],"anonymous":false},{"type":"event","name":"ApprovalForAll","inputs":[{"name":"owner","type":"address","indexed":true,"internalType":"address"},{"name":"operator","type":"address","indexed":true,"internalType":"address"},{"name":"approved","type":"bool","indexed":false,"internalType":"bool"}],"anonymous":false},{"type":"event","name":"BackgroundColor","inputs":[{"name":"owner","type":"address","indexed":true,"internalType":"address"},{"name":"tokenId","type":"uint256","indexed":true,"internalType":"uint256"},{"name":"color","type":"string","indexed":false,"internalType":"string"}],"anonymous":false},{"type":"event","name":"BatchMetadataUpdate","inputs":[{"name":"_fromTokenId","type":"uint256","indexed":false,"internalType":"uint256"},{"name":"_toTokenId","type":"uint256","indexed":false,"internalType":"uint256"}],"anonymous":false},{"type":"event","name":"BodyIndex","inputs":[{"name":"owner","type":"address","indexed":true,"internalType":"address"},{"name":"tokenId","type":"uint256","indexed":true,"internalType":"uint256"},{"name":"_bodyIndex","type":"uint8","indexed":false,"internalType":"uint8"}],"anonymous":false},{"type":"event","name":"Equip","inputs":[{"name":"owner","type":"address","indexed":true,"internalType":"address"},{"name":"tokenId","type":"uint256","indexed":true,"internalType":"uint256"},{"name":"traitTokenId","type":"uint256","indexed":true,"internalType":"uint256"},{"name":"traitCategory","type":"uint8","indexed":false,"internalType":"uint8"}],"anonymous":false},{"type":"event","name":"EquipAll","inputs":[{"name":"owner","type":"address","indexed":true,"internalType":"address"},{"name":"tokenId","type":"uint256","indexed":true,"internalType":"uint256"}],"anonymous":false},{"type":"event","name":"MetadataUpdate","inputs":[{"name":"_tokenId","type":"uint256","indexed":false,"internalType":"uint256"}],"anonymous":false},{"type":"event","name":"Mint","inputs":[{"name":"owner","type":"address","indexed":true,"internalType":"address"},{"name":"tokenId","type":"uint256","indexed":true,"internalType":"uint256"}],"anonymous":false},{"type":"event","name":"OwnershipHandoverCanceled","inputs":[{"name":"pendingOwner","type":"address","indexed":true,"internalType":"address"}],"anonymous":false},{"type":"event","name":"OwnershipHandoverRequested","inputs":[{"name":"pendingOwner","type":"address","indexed":true,"internalType":"address"}],"anonymous":false},{"type":"event","name":"OwnershipTransferred","inputs":[{"name":"oldOwner","type":"address","indexed":true,"internalType":"address"},{"name":"newOwner","type":"address","indexed":true,"internalType":"address"}],"anonymous":false},{"type":"event","name":"Render3D","inputs":[{"name":"owner","type":"address","indexed":true,"internalType":"address"},{"name":"tokenId","type":"uint256","indexed":true,"internalType":"uint256"},{"name":"renderZ","type":"bool","indexed":false,"internalType":"bool"}],"anonymous":false},{"type":"event","name":"Transfer","inputs":[{"name":"from","type":"address","indexed":true,"internalType":"address"},{"name":"to","type":"address","indexed":true,"internalType":"address"},{"name":"tokenId","type":"uint256","indexed":true,"internalType":"uint256"}],"anonymous":false},{"type":"event","name":"Unequip","inputs":[{"name":"owner","type":"address","indexed":true,"internalType":"address"},{"name":"tokenId","type":"uint256","indexed":true,"internalType":"uint256"},{"name":"traitCategory","type":"uint8","indexed":false,"internalType":"uint8"}],"anonymous":false},{"type":"event","name":"UnequipAll","inputs":[{"name":"owner","type":"address","indexed":true,"internalType":"address"},{"name":"tokenId","type":"uint256","indexed":true,"internalType":"uint256"}],"anonymous":false},{"type":"error","name":"AlreadyInitialized","inputs":[]},{"type":"error","name":"BodyAlreadyExists","inputs":[]},{"type":"error","name":"CantBeZero","inputs":[]},{"type":"error","name":"CantTransfer","inputs":[]},{"type":"error","name":"CantTransferToTBAs","inputs":[]},{"type":"error","name":"FirstSeasonRenderMinterNotSet","inputs":[]},{"type":"error","name":"IncorrectPeterOwner","inputs":[]},{"type":"error","name":"IncorrectTBAOwner","inputs":[]},{"type":"error","name":"IncorrectTraitType","inputs":[]},{"type":"error","name":"InsufficientFunds","inputs":[]},{"type":"error","name":"InvalidBodyIndex","inputs":[]},{"type":"error","name":"InvalidColor","inputs":[]},{"type":"error","name":"InvalidLevelAmount","inputs":[]},{"type":"error","name":"InvalidSignature","inputs":[]},{"type":"error","name":"MintEnded","inputs":[]},{"type":"error","name":"MintNotStarted","inputs":[]},{"type":"error","name":"NewOwnerIsZeroAddress","inputs":[]},{"type":"error","name":"NoHandoverRequest","inputs":[]},{"type":"error","name":"NonceAlreadyUsed","inputs":[]},{"type":"error","name":"PeterDoesntExist","inputs":[]},{"type":"error","name":"Unauthorized","inputs":[]},{"type":"error","name":"UseUnequip","inputs":[]},{"type":"error","name":"WithdrawFailed","inputs":[]},{"type":"error","name":"markaSaysNo","inputs":[]}],"bytecode":{"object":"0x608060405260636015553480156200001657600080fd5b5060405162005b1f38038062005b1f833981016040819052620000399162000100565b6040518060400160405280600a81526020016914195d195c8815195cdd60b21b815250604051806040016040528060058152602001642822aa22a960d91b81525081600090816200008b9190620001d2565b5060016200009a8282620001d2565b50506001600a5550620000ad33620000c4565b600b805460ff19169115159190911790556200029e565b6001600160a01b0316638b78c6d8198190558060007f8be0079c531659141344cd1fd0a4f28419497f9722a3daafe3b4186f6b6457e08180a350565b6000602082840312156200011357600080fd5b815180151581146200012457600080fd5b9392505050565b634e487b7160e01b600052604160045260246000fd5b600181811c908216806200015657607f821691505b6020821081036200017757634e487b7160e01b600052602260045260246000fd5b50919050565b601f821115620001cd576000816000526020600020601f850160051c81016020861015620001a85750805b601f850160051c820191505b81811015620001c957828155600101620001b4565b5050505b505050565b81516001600160401b03811115620001ee57620001ee6200012b565b6200020681620001ff845462000141565b846200017d565b602080601f8311600181146200023e5760008415620002255750858301515b600019600386901b1c1916600185901b178555620001c9565b600085815260208120601f198616915b828110156200026f578886015182559484019460019091019084016200024e565b50858210156200028e5787850151600019600388901b60f8161c191681555b5050505050600190811b01905550565b61587180620002ae6000396000f3fe60806040526004361061043b5760003560e01c80638da5cb5b11610234578063b88d4fde1161012e578063e1405540116100b6578063f2fde38b1161007a578063f2fde38b14610d79578063f3f8efb914610d8c578063f4bec0b614610dac578063f6a0c93214610dcc578063fee81cf414610e0257600080fd5b8063e140554014610cc7578063e3d2155514610ce7578063e985e9c514610cfd578063f04e283e14610d46578063f2361e2314610d5957600080fd5b8063c87b56dd116100fd578063c87b56dd14610c27578063cdb6dd5c14610c47578063d5b3621b14610c67578063d68c4f3214610c87578063dceef0ec14610ca757600080fd5b8063b88d4fde14610b9a578063be928ff614610bba578063bef1dfb714610be7578063c093afdb14610c0757600080fd5b80639c7be2f1116101bc578063a22cb46511610180578063a22cb46514610adf578063a23830ae14610aff578063a4bf9a0014610b2d578063abc8c7af14610b5a578063b66ef6e314610b7a57600080fd5b80639c7be2f114610a615780639f6e463714610a76578063a035b1fe14610a96578063a0712d6814610aac578063a1d6268014610abf57600080fd5b8063931e2e4911610203578063931e2e49146109c057806393ccba72146109d657806395d89b41146109f6578063998cfb6e14610a0b5780639c05d68d14610a2b57600080fd5b80638da5cb5b14610938578063916c546b1461095157806391b7f5ed1461097157806392012f081461099157600080fd5b806333d3d9bf1161034557806358a97640116102cd578063715018a611610291578063715018a61461089d57806373ad6c2d146108a55780637e2e6c47146108c55780638200ea51146108e55780638aa1e4c81461091857600080fd5b806358a97640146107d35780635eabd84a146107f35780636352211e14610813578063667043491461083357806370a082311461087d57600080fd5b80634a4333a3116103145780634a4333a3146107555780634a60f620146107755780634f6ccce71461078b57806354d1f13d146107ab57806355737f35146107b357600080fd5b806333d3d9bf146106c85780633ab1a494146106e857806342842e0e14610708578063438b63001461072857600080fd5b80631581b600116103c8578063282575321161039757806328257532146106285780632bd1ca45146106485780632f745c59146106685780633044825b14610688578063306c7334146106a857600080fd5b80631581b600146105c157806318160ddd146105e157806323b872dd14610600578063256929621461062057600080fd5b8063081812fc1161040f578063081812fc146104f9578063095ea7b3146105315780630c83f9d71461055157806313ea0ae31461058157806314fe8ff4146105a157600080fd5b80621792061461044057806301ffc9a71461046257806304003bd01461049757806306fdde03146104d7575b600080fd5b34801561044c57600080fd5b5061046061045b366004614796565b610e35565b005b34801561046e57600080fd5b5061048261047d3660046147c9565b610e5f565b60405190151581526020015b60405180910390f35b3480156104a357600080fd5b506104b76104b23660046147e6565b610e70565b604080516001600160a01b0393841681529290911660208301520161048e565b3480156104e357600080fd5b506104ec610e9f565b60405161048e919061484f565b34801561050557600080fd5b506105196105143660046147e6565b610f31565b6040516001600160a01b03909116815260200161048e565b34801561053d57600080fd5b5061046061054c366004614862565b610f58565b34801561055d57600080fd5b5061057161056c3660046147e6565b611072565b60405161048e949392919061488e565b34801561058d57600080fd5b50601254610519906001600160a01b031681565b3480156105ad57600080fd5b506104ec6105bc3660046147e6565b611233565b3480156105cd57600080fd5b50601754610519906001600160a01b031681565b3480156105ed57600080fd5b506008545b60405190815260200161048e565b34801561060c57600080fd5b5061046061061b3660046148d8565b611477565b6104606114a8565b34801561063457600080fd5b50610460610643366004614919565b6114f7565b34801561065457600080fd5b506104ec6106633660046147e6565b6116f0565b34801561067457600080fd5b506105f2610683366004614862565b6117b4565b34801561069457600080fd5b506104606106a33660046147e6565b61184a565b3480156106b457600080fd5b506104ec6106c33660046147e6565b611905565b3480156106d457600080fd5b506104606106e33660046147e6565b611928565b3480156106f457600080fd5b50610460610703366004614796565b611935565b34801561071457600080fd5b506104606107233660046148d8565b61195f565b34801561073457600080fd5b50610748610743366004614796565b61197a565b60405161048e919061493b565b34801561076157600080fd5b5061046061077036600461497f565b611a11565b34801561078157600080fd5b506105f260165481565b34801561079757600080fd5b506105f26107a63660046147e6565b611d79565b610460611e0c565b3480156107bf57600080fd5b506105196107ce366004614919565b611e48565b3480156107df57600080fd5b506104606107ee366004614796565b611e80565b3480156107ff57600080fd5b5061046061080e366004614796565b611eaa565b34801561081f57600080fd5b5061051961082e3660046147e6565b611ed4565b34801561083f57600080fd5b5061085361084e3660046147e6565b611f34565b604080516001600160a01b039485168152602081019390935292169181019190915260600161048e565b34801561088957600080fd5b506105f2610898366004614796565b611fd5565b61046061205b565b3480156108b157600080fd5b506104606108c0366004614796565b61206f565b3480156108d157600080fd5b506104606108e0366004614796565b612099565b3480156108f157600080fd5b506104826109003660046147e6565b6000908152600c60205260409020600b015460ff1690565b34801561092457600080fd5b50610482610933366004614919565b6120c3565b34801561094457600080fd5b50638b78c6d81954610519565b34801561095d57600080fd5b506104ec61096c3660046147e6565b612132565b34801561097d57600080fd5b5061046061098c3660046147e6565b612235565b34801561099d57600080fd5b506109b16109ac366004614afa565b612242565b60405161048e93929190614bf3565b3480156109cc57600080fd5b506105f260195481565b3480156109e257600080fd5b506104606109f1366004614c2c565b612393565b348015610a0257600080fd5b506104ec6123ff565b348015610a1757600080fd5b50610748610a26366004614796565b61240e565b348015610a3757600080fd5b50610519610a463660046147e6565b601a602052600090815260409020546001600160a01b031681565b348015610a6d57600080fd5b50610460612484565b348015610a8257600080fd5b50610748610a913660046147e6565b6124d7565b348015610aa257600080fd5b506105f260185481565b610460610aba3660046147e6565b6124fb565b348015610acb57600080fd5b506104ec610ada3660046147e6565b612902565b348015610aeb57600080fd5b50610460610afa366004614cc8565b612932565b348015610b0b57600080fd5b50610b1f610b1a366004614afa565b61293d565b60405161048e929190614cfd565b348015610b3957600080fd5b506105f2610b48366004614796565b601b6020526000908152604090205481565b348015610b6657600080fd5b50601154610519906001600160a01b031681565b348015610b8657600080fd5b50601454610519906001600160a01b031681565b348015610ba657600080fd5b50610460610bb5366004614d2b565b6129eb565b348015610bc657600080fd5b50610bda610bd53660046147e6565b612a23565b60405161048e9190614d96565b348015610bf357600080fd5b50610460610c02366004614e4d565b612bc9565b348015610c1357600080fd5b50601054610519906001600160a01b031681565b348015610c3357600080fd5b506104ec610c423660046147e6565b612c74565b348015610c5357600080fd5b50610460610c62366004614e7d565b612cb5565b348015610c7357600080fd5b50610460610c823660046147e6565b612e79565b348015610c9357600080fd5b50610460610ca2366004614ead565b612e86565b348015610cb357600080fd5b506104ec610cc23660046147e6565b613102565b348015610cd357600080fd5b50610460610ce2366004614ef3565b6133d4565b348015610cf357600080fd5b506105f260155481565b348015610d0957600080fd5b50610482610d18366004614f16565b6001600160a01b03918216600090815260056020908152604080832093909416825291909152205460ff1690565b610460610d54366004614796565b61349c565b348015610d6557600080fd5b50610460610d74366004614f44565b6134dc565b610460610d87366004614796565b613529565b348015610d9857600080fd5b506104ec610da73660046147e6565b613550565b348015610db857600080fd5b50601354610519906001600160a01b031681565b348015610dd857600080fd5b50610519610de73660046147e6565b6000908152601a60205260409020546001600160a01b031690565b348015610e0e57600080fd5b506105f2610e1d366004614796565b63389a75e1600c908152600091909152602090205490565b610e3d6137d7565b601480546001600160a01b0319166001600160a01b0392909216919091179055565b6000610e6a826137f2565b92915050565b600080610e7c83611ed4565b6000938452601a60205260409093205492936001600160a01b0390931692915050565b606060008054610eae90614fc9565b80601f0160208091040260200160405190810160405280929190818152602001828054610eda90614fc9565b8015610f275780601f10610efc57610100808354040283529160200191610f27565b820191906000526020600020905b815481529060010190602001808311610f0a57829003601f168201915b5050505050905090565b6000610f3c82613817565b506000908152600460205260409020546001600160a01b031690565b6000610f6382611ed4565b9050806001600160a01b0316836001600160a01b031603610fd55760405162461bcd60e51b815260206004820152602160248201527f4552433732313a20617070726f76616c20746f2063757272656e74206f776e656044820152603960f91b60648201526084015b60405180910390fd5b336001600160a01b0382161480610ff15750610ff18133610d18565b6110635760405162461bcd60e51b815260206004820152603e60248201527f4552433732313a20617070726f76652063616c6c6572206973206e6f7420746f60448201527f6b656e206f776e6572206e6f7220617070726f76656420666f7220616c6c00006064820152608401610fcc565b61106d8383613876565b505050565b600f602052600090815260409020805460018201805491929161109490614fc9565b80601f01602080910402602001604051908101604052809291908181526020018280546110c090614fc9565b801561110d5780601f106110e25761010080835404028352916020019161110d565b820191906000526020600020905b8154815290600101906020018083116110f057829003601f168201915b50505050509080600201805461112290614fc9565b80601f016020809104026020016040519081016040528092919081815260200182805461114e90614fc9565b801561119b5780601f106111705761010080835404028352916020019161119b565b820191906000526020600020905b81548152906001019060200180831161117e57829003601f168201915b5050505050908060030180546111b090614fc9565b80601f01602080910402602001604051908101604052809291908181526020018280546111dc90614fc9565b80156112295780601f106111fe57610100808354040283529160200191611229565b820191906000526020600020905b81548152906001019060200180831161120c57829003601f168201915b5050505050905084565b60606000611240836124d7565b90506000601060009054906101000a90046001600160a01b03166001600160a01b0316635c1ef2566040518163ffffffff1660e01b8152600401600060405180830381865afa158015611297573d6000803e3d6000fd5b505050506040513d6000823e601f3d908101601f191682016040526112bf9190810190615048565b905060006015548351106112d5576015546112d8565b82515b90506000816001600160401b038111156112f4576112f46149d4565b60405190808252806020026020018201604052801561132757816020015b60608152602001906001900390816113125790505b50905060005b828110156113ee5760105485516001600160a01b039091169063c77915319087908490811061135e5761135e61507c565b60200260200101516040518263ffffffff1660e01b815260040161138491815260200190565b600060405180830381865afa1580156113a1573d6000803e3d6000fd5b505050506040513d6000823e601f3d908101601f191682016040526113c99190810190615048565b8282815181106113db576113db61507c565b602090810291909101015260010161132d565b506013548451601554604051631719ff8760e11b81526001600160a01b0390931692632e33ff0e9261142892889287929190600401615092565b600060405180830381865afa158015611445573d6000803e3d6000fd5b505050506040513d6000823e601f3d908101601f1916820160405261146d9190810190615048565b9695505050505050565b61148133826138e4565b61149d5760405162461bcd60e51b8152600401610fcc90615113565b61106d838383613962565b60006202a3006001600160401b03164201905063389a75e1600c5233600052806020600c2055337fdbf36a107da19e49527a7176a1babf963b4b0ff8cde35ee35d6cd8f1f9ac7e1d600080a250565b8161150181611ed4565b6001600160a01b0316336001600160a01b031614611532576040516324adc17160e11b815260040160405180910390fd5b8160000361155357604051630754c7f360e41b815260040160405180910390fd5b600061155f8484613b09565b9050600181600781111561157557611575615161565b0361158c576000848152600c602052604090208390555b60028160078111156115a0576115a0615161565b036115ba576000848152600c602052604090206001018390555b60038160078111156115ce576115ce615161565b036115e8576000848152600c602052604090206002018390555b60048160078111156115fc576115fc615161565b03611616576000848152600c602052604090206003018390555b600581600781111561162a5761162a615161565b03611644576000848152600c602052604090206004018390555b600681600781111561165857611658615161565b03611672576000848152600c602052604090206005018390555b600781600781111561168657611686615161565b036116a0576000848152600c602052604090206006018390555b82846116ab86611ed4565b6001600160a01b031660008051602061581c8339815191528460078111156116d5576116d5615161565b60405160ff909116815260200160405180910390a450505050565b6060806060600061170085612a23565b905061170b81612242565b5060105460405163bb12d21d60e01b81529195506001600160a01b0316915063bb12d21d9061173e908490600401614d96565b600060405180830381865afa15801561175b573d6000803e3d6000fd5b505050506040513d6000823e601f3d908101601f191682016040526117839190810190615177565b5060405190935061179b9150849084906020016151fe565b6040516020818303038152906040529350505050919050565b60006117bf83611fd5565b82106118215760405162461bcd60e51b815260206004820152602b60248201527f455243373231456e756d657261626c653a206f776e657220696e646578206f7560448201526a74206f6620626f756e647360a81b6064820152608401610fcc565b506001600160a01b03919091166000908152600660209081526040808320938352929052205490565b8061185481611ed4565b6001600160a01b0316336001600160a01b031614611885576040516324adc17160e11b815260040160405180910390fd5b6000828152600c6020526040812081815560018101829055600281018290556003810182905560048101829055600581018290556006810191909155826118cb81611ed4565b6001600160a01b03167f46078a2cd4c69c3b4a27bdc69fdfe03d442ebcf405f1a68e9b5df6bc3e24429760405160405180910390a3505050565b606080600061191384612a23565b905061191e81612242565b5095945050505050565b6119306137d7565b601555565b61193d6137d7565b601780546001600160a01b0319166001600160a01b0392909216919091179055565b61106d838383604051806020016040528060008152506129eb565b6060600061198783611fd5565b90506000816001600160401b038111156119a3576119a36149d4565b6040519080825280602002602001820160405280156119cc578160200160208202803683370190505b50905060005b82811015611a09576119e485826117b4565b8282815181106119f6576119f661507c565b60209081029190910101526001016119d2565b509392505050565b87611a1b81611ed4565b6001600160a01b0316336001600160a01b031614611a4c576040516324adc17160e11b815260040160405180910390fd5b8715611ab357611a5c8989613b8e565b611a67886001613c86565b6000898152600c602052604090208890558789611a8381611ed4565b6001600160a01b031660008051602061581c833981519152600160405160ff909116815260200160405180910390a45b8615611b1d57611ac38988613b8e565b611ace876002613c86565b6000898152600c602052604090206001018790558689611aed81611ed4565b6001600160a01b031660008051602061581c833981519152600260405160ff909116815260200160405180910390a45b8515611b8757611b2d8987613b8e565b611b38866003613c86565b6000898152600c602052604090206002018690558589611b5781611ed4565b6001600160a01b031660008051602061581c833981519152600360405160ff909116815260200160405180910390a45b8415611bf157611b978986613b8e565b611ba2856004613c86565b6000898152600c602052604090206003018590558489611bc181611ed4565b6001600160a01b031660008051602061581c833981519152600460405160ff909116815260200160405180910390a45b8315611c5b57611c018985613b8e565b611c0c846005613c86565b6000898152600c602052604090206004018490558389611c2b81611ed4565b6001600160a01b031660008051602061581c833981519152600560405160ff909116815260200160405180910390a45b8215611cc557611c6b8984613b8e565b611c76836006613c86565b6000898152600c602052604090206005018390558289611c9581611ed4565b6001600160a01b031660008051602061581c833981519152600660405160ff909116815260200160405180910390a45b8115611d2f57611cd58983613b8e565b611ce0826007613c86565b6000898152600c602052604090206006018290558189611cff81611ed4565b6001600160a01b031660008051602061581c833981519152600760405160ff909116815260200160405180910390a45b88611d398a611ed4565b6001600160a01b03167f56680590212b09eb4b72a2eba8801b037ec046dfc754538e924f5bb6a8c4db6c60405160405180910390a3505050505050505050565b6000611d8460085490565b8210611de75760405162461bcd60e51b815260206004820152602c60248201527f455243373231456e756d657261626c653a20676c6f62616c20696e646578206f60448201526b7574206f6620626f756e647360a01b6064820152608401610fcc565b60088281548110611dfa57611dfa61507c565b90600052602060002001549050919050565b63389a75e1600c523360005260006020600c2055337ffa7b8eab7da67f412cc9575ed43464468f9bfbae89d1675917346ca6d8fe3c92600080a2565b601c6020528160005260406000208181548110611e6457600080fd5b6000918252602090912001546001600160a01b03169150829050565b611e886137d7565b601280546001600160a01b0319166001600160a01b0392909216919091179055565b611eb26137d7565b601080546001600160a01b0319166001600160a01b0392909216919091179055565b6000818152600260205260408120546001600160a01b031680610e6a5760405162461bcd60e51b8152602060048201526018602482015277115490cdcc8c4e881a5b9d985b1a59081d1bdad95b88125160421b6044820152606401610fcc565b6010546040516331a9108f60e11b815260048101839052600091829182916001600160a01b031690636352211e90602401602060405180830381865afa158015611f82573d6000803e3d6000fd5b505050506040513d601f19601f82011682018060405250810190611fa6919061522d565b6001600160a01b0381166000908152601b60205260409020549093509150611fcd82611ed4565b929491935050565b60006001600160a01b03821661203f5760405162461bcd60e51b815260206004820152602960248201527f4552433732313a2061646472657373207a65726f206973206e6f7420612076616044820152683634b21037bbb732b960b91b6064820152608401610fcc565b506001600160a01b031660009081526003602052604090205490565b6120636137d7565b61206d6000613d88565b565b6120776137d7565b601180546001600160a01b0319166001600160a01b0392909216919091179055565b6120a16137d7565b601380546001600160a01b0319166001600160a01b0392909216919091179055565b6000806120cf84612a23565b80519091508314806120e45750828160200151145b806120f25750828160400151145b806121005750828160600151145b8061210e5750828160800151145b8061211c5750828160a00151145b8061212a5750828160c00151145b949350505050565b6013546000828152600f602052604080822090516371bed9e160e11b81526060936001600160a01b03169163e37db3c29161217391600201906004016152c7565b600060405180830381865afa158015612190573d6000803e3d6000fd5b505050506040513d6000823e601f3d908101601f191682016040526121b89190810190615048565b6013546040516335b07b7960e11b81529192506001600160a01b031690636b60f6f2906121e990849060040161484f565b600060405180830381865afa158015612206573d6000803e3d6000fd5b505050506040513d6000823e601f3d908101601f1916820160405261222e9190810190615048565b9392505050565b61223d6137d7565b601855565b606080606061225884610120015160ff16612132565b6101208501805160ff9081166000908152600f602052604080822060135494519093168252908190209051630d88d4ff60e01b81526003909201926001600160a01b031691630d88d4ff916122b5916001909101906004016152da565b600060405180830381865afa1580156122d2573d6000803e3d6000fd5b505050506040513d6000823e601f3d908101601f191682016040526122fa9190810190615048565b81805461230690614fc9565b80601f016020809104026020016040519081016040528092919081815260200182805461233290614fc9565b801561237f5780601f106123545761010080835404028352916020019161237f565b820191906000526020600020905b81548152906001019060200180831161236257829003601f168201915b505050505091509250925092509193909250565b8961239d81611ed4565b6001600160a01b0316336001600160a01b0316146123ce576040516324adc17160e11b815260040160405180910390fd5b6123de8b8b8b8b8b8b8b8b611a11565b6123e88b846133d4565b6123f28b83612e86565b5050505050505050505050565b606060018054610eae90614fc9565b60105460405162438b6360e81b81526001600160a01b03838116600483015260609260009291169063438b630090602401600060405180830381865afa15801561245c573d6000803e3d6000fd5b505050506040513d6000823e601f3d908101601f1916820160405261222e919081019061530d565b600b5460ff161561206d5760005b60018110156124ad576124a560046124fb565b600101612492565b5061206d60016040518060400160405280600681526020016533333333333360d11b815250612e86565b6000818152601a60205260409020546060906001600160a01b031661222e8161240e565b6012546001600160a01b031661252457604051633390ca8960e21b815260040160405180910390fd5b806000036125455760405163e7195f5160e01b815260040160405180910390fd5b8060185461255391906153c8565b34146125725760405163356680b760e01b815260040160405180910390fd5b60005b8181101561288957600060166000815461258e906153df565b9182905550905061259f3382613dc6565b604051638a54c52f60e01b81527355266d75d1a14e4572138116af39863ed6596e7f600482015260006024820181905262014a34604483015230606483015260848201839052906f6551c19487814612e58fe0681377575890638a54c52f9060a4016020604051808303816000875af1158015612620573d6000803e3d6000fd5b505050506040513d601f19601f82011682018060405250810190612644919061522d565b6000838152601a6020908152604080832080546001600160a01b0319166001600160a01b038616908117909155808452601b90925291829020859055905163189acdbd60e31b81527341c8f39463a868d3a88af00cd0fe7102f30e44ec60048201529192509063c4d66de890602401600060405180830381600087803b1580156126cd57600080fd5b505af11580156126e1573d6000803e3d6000fd5b5050601254604051637458922960e11b81526001600160a01b03858116600483015260009450909116915063e8b12452906024016000604051808303816000875af1158015612734573d6000803e3d6000fd5b505050506040513d6000823e601f3d908101601f1916820160405261275c919081019061530d565b6000848152600c60205260408120600881018690558251929350918391906127865761278661507c565b60200260200101518160060181905550816001815181106127a9576127a961507c565b60200260200101518160050181905550816002815181106127cc576127cc61507c565b60200260200101518160040181905550816003815181106127ef576127ef61507c565b6020026020010151816001018190555060058460405160200161281491815260200190565b6040516020818303038152906040528051906020012060001c61283791906153f8565b60098201805460ff191660ff929092169190911790556040805180820190915260068152650c110d914e5160d21b6020820152600a8201906128799082615462565b5050505050806001019050612575565b506017546040516000916001600160a01b03169034908381818185875af1925050503d80600081146128d7576040519150601f19603f3d011682016040523d82523d6000602084013e6128dc565b606091505b50509050806128fe57604051631d42c86760e21b815260040160405180910390fd5b5050565b6060600061290f83612a23565b90508061016001516129295761292483613550565b61222e565b61222e83613102565b6128fe338383613f14565b60608061295183610120015160ff16612132565b60135461012085015160ff166000908152600f6020526040908190209051630d88d4ff60e01b81526001600160a01b0390921691630d88d4ff9161299d916001909101906004016152da565b600060405180830381865afa1580156129ba573d6000803e3d6000fd5b505050506040513d6000823e601f3d908101601f191682016040526129e29190810190615048565b91509150915091565b6129f533836138e4565b612a115760405162461bcd60e51b8152600401610fcc90615113565b612a1d84848484613fda565b50505050565b612a9260405180610180016040528060008152602001600081526020016000815260200160008152602001600081526020016000815260200160008152602001600063ffffffff16815260200160008152602001600060ff168152602001606081526020016000151581525090565b6000828152600c60209081526040808320815161018081018352815481526001820154938101939093526002810154918301919091526003810154606083015260048101546080830152600581015460a0830152600681015460c0830152600781015463ffffffff1660e08301526008810154610100830152600981015460ff16610120830152600a8101805461014084019190612b2f90614fc9565b80601f0160208091040260200160405190810160405280929190818152602001828054612b5b90614fc9565b8015612ba85780601f10612b7d57610100808354040283529160200191612ba8565b820191906000526020600020905b815481529060010190602001808311612b8b57829003601f168201915b5050509183525050600b919091015460ff1615156020909101529392505050565b81612bd381611ed4565b6001600160a01b0316336001600160a01b031614612c04576040516324adc17160e11b815260040160405180910390fd5b6000838152600c60205260409020600b01805460ff191683151517905582612c2b81611ed4565b6001600160a01b03167f6dd9e2813f787f711671bf91b2e57a72b9b61bc279b934201f3fd29b3b5f8cbe84604051612c67911515815260200190565b60405180910390a3505050565b6000818152600260205260409020546060906001600160a01b0316612cac57604051631a65aaab60e31b815260040160405180910390fd5b610e6a82612902565b81612cbf81611ed4565b6001600160a01b0316336001600160a01b031614612cf0576040516324adc17160e11b815260040160405180910390fd5b6001826007811115612d0457612d04615161565b03612d19576000838152600c60205260408120555b6002826007811115612d2d57612d2d615161565b03612d45576000838152600c60205260408120600101555b6003826007811115612d5957612d59615161565b03612d71576000838152600c60205260408120600201555b6004826007811115612d8557612d85615161565b03612d9d576000838152600c60205260408120600301555b6005826007811115612db157612db1615161565b03612dc9576000838152600c60205260408120600401555b6006826007811115612ddd57612ddd615161565b03612df5576000838152600c60205260408120600501555b6007826007811115612e0957612e09615161565b03612e21576000838152600c60205260408120600601555b82612e2b84611ed4565b6001600160a01b03167f3d8ac56c725fc7985e9444622a45baee28ba67d8a964045f747b465121f40e71846007811115612e6757612e67615161565b60405160ff9091168152602001612c67565b612e816137d7565b601955565b81612e9081611ed4565b6001600160a01b0316336001600160a01b031614612ec1576040516324adc17160e11b815260040160405180910390fd5b81518290600614612ee557604051631cf7e9c560e01b815260040160405180910390fd5b60408051808201909152600681526503036393432360d41b6020918201528151908201207fc9a8162f44485821dce92aaad6bb1b8cc6d457721d5ae939092ca3297c7dd0a501612f485760405163a3c0b7b960e01b815260040160405180910390fd5b60005b600681101561309557603060f81b828281518110612f6b57612f6b61507c565b01602001516001600160f81b03191610801590612fac5750603960f81b828281518110612f9a57612f9a61507c565b01602001516001600160f81b03191611155b15801561300e5750604160f81b828281518110612fcb57612fcb61507c565b01602001516001600160f81b0319161080159061300c5750604660f81b828281518110612ffa57612ffa61507c565b01602001516001600160f81b03191611155b155b801561306f5750606160f81b82828151811061302c5761302c61507c565b01602001516001600160f81b0319161080159061306d5750606660f81b82828151811061305b5761305b61507c565b01602001516001600160f81b03191611155b155b1561308d57604051631cf7e9c560e01b815260040160405180910390fd5b600101612f4b565b506000848152600c60205260409020600a016130b18482615462565b50836130bc85611ed4565b6001600160a01b03167f2e34f8c0f6052b66319b4a5df14eac164c6af8a0b37f612d4304a777e1ae7a3d856040516130f4919061484f565b60405180910390a350505050565b606080606080606080606080606061313b6040518060800160405280606081526020016060815260200160608152602001600081525090565b60006131468c612a23565b905061315181612242565b60105460405163bb12d21d60e01b8152939d50919a5095506001600160a01b03169063bb12d21d90613187908490600401614d96565b600060405180830381865afa1580156131a4573d6000803e3d6000fd5b505050506040513d6000823e601f3d908101601f191682016040526131cc9190810190615177565b604051929b5090985095506131e79085908790602001615521565b6040516020818303038152906040529250878760405160200161320b9291906151fe565b60408051601f198184030181529190526101408201518352955061322e8c6124d7565b51606083015261012081015160ff166000908152600f60205260409020600101805461325990614fc9565b80601f016020809104026020016040519081016040528092919081815260200182805461328590614fc9565b80156132d25780601f106132a7576101008083540402835291602001916132d2565b820191906000526020600020905b8154815290600101906020018083116132b557829003601f168201915b505050505082602001819052506132fb8c6000908152600c60205260409020600b015460ff1690565b61331f57604051806040016040528060028152602001610c9160f21b81525061333b565b604051806040016040528060028152602001610cd160f21b8152505b60408084019190915260145490516367b6032760e11b81526001600160a01b039091169063cf6c064e9061337f908f908e9089908f908c908e908b906004016155e5565b600060405180830381865afa15801561339c573d6000803e3d6000fd5b505050506040513d6000823e601f3d908101601f191682016040526133c49190810190615048565b9c9b505050505050505050505050565b816133de81611ed4565b6001600160a01b0316336001600160a01b03161461340f576040516324adc17160e11b815260040160405180910390fd5b60048260ff161115613434576040516329ba348d60e11b815260040160405180910390fd5b6000838152600c60205260409020600901805460ff191660ff84161790558261345c81611ed4565b60405160ff851681526001600160a01b0391909116907f454db5768a3f8187a5dd5e9cca100cf699d74d8a03f793d16da3932cdf34d35890602001612c67565b6134a46137d7565b63389a75e1600c52806000526020600c2080544211156134cc57636f5e88186000526004601cfd5b600090556134d981613d88565b50565b6134e46137d7565b6000848152600f60205260409020848155600181016135038582615462565b50600281016135128482615462565b50600381016135218382615462565b505050505050565b6135316137d7565b8060601b61354757637448fbae6000526004601cfd5b6134d981613d88565b606080606080606080600061356488612a23565b905061356f8161293d565b601054604051631be5857160e31b81529298509096506001600160a01b03169063df2c2b88906135a3908490600401614d96565b600060405180830381865afa1580156135c0573d6000803e3d6000fd5b505050506040513d6000823e601f3d908101601f191682016040526135e8919081019061566e565b90945092506135f688611233565b91506136236040518060800160405280606081526020016060815260200160608152602001600081525090565b6101408201518152613634896124d7565b51606082015261012082015160ff166000908152600f60205260409020600101805461365f90614fc9565b80601f016020809104026020016040519081016040528092919081815260200182805461368b90614fc9565b80156136d85780601f106136ad576101008083540402835291602001916136d8565b820191906000526020600020905b8154815290600101906020018083116136bb57829003601f168201915b50505050508160200181905250613701896000908152600c60205260409020600b015460ff1690565b61372557604051806040016040528060028152602001610c9160f21b815250613741565b604051806040016040528060028152602001610cd160f21b8152505b6040808301919091526013549051630ed2eb5b60e41b81526001600160a01b039091169063ed2eb5b090613785908c908b908b908b908b908b908a906004016155e5565b600060405180830381865afa1580156137a2573d6000803e3d6000fd5b505050506040513d6000823e601f3d908101601f191682016040526137ca9190810190615048565b9998505050505050505050565b638b78c6d81954331461206d576382b429006000526004601cfd5b60006001600160e01b0319821663780e9d6360e01b1480610e6a5750610e6a8261400d565b6000818152600260205260409020546001600160a01b03166134d95760405162461bcd60e51b8152602060048201526018602482015277115490cdcc8c4e881a5b9d985b1a59081d1bdad95b88125160421b6044820152606401610fcc565b600081815260046020526040902080546001600160a01b0319166001600160a01b03841690811790915581906138ab82611ed4565b6001600160a01b03167f8c5be1e5ebec7d5bd14f71427d1e84f3dd0314c0f7b2291e5b200ac8c7c3b92560405160405180910390a45050565b6000806138f083611ed4565b9050806001600160a01b0316846001600160a01b0316148061393757506001600160a01b0380821660009081526005602090815260408083209388168352929052205460ff165b8061212a5750836001600160a01b031661395084610f31565b6001600160a01b031614949350505050565b826001600160a01b031661397582611ed4565b6001600160a01b0316146139d95760405162461bcd60e51b815260206004820152602560248201527f4552433732313a207472616e736665722066726f6d20696e636f72726563742060448201526437bbb732b960d91b6064820152608401610fcc565b6001600160a01b038216613a3b5760405162461bcd60e51b8152602060048201526024808201527f4552433732313a207472616e7366657220746f20746865207a65726f206164646044820152637265737360e01b6064820152608401610fcc565b613a4683838361405d565b613a51600082613876565b6001600160a01b0383166000908152600360205260408120805460019290613a7a9084906156c7565b90915550506001600160a01b0382166000908152600360205260408120805460019290613aa89084906156da565b909155505060008181526002602052604080822080546001600160a01b0319166001600160a01b0386811691821790925591518493918716917fddf252ad1be2c89b69c2b068fc378daa952ba7f163c4a11628f55a4df523b3ef91a4505050565b6000613b158383613b8e565b60105460405163e8a1268d60e01b8152600481018490526001600160a01b039091169063e8a1268d90602401602060405180830381865afa158015613b5e573d6000803e3d6000fd5b505050506040513d601f19601f82011682018060405250810190613b8291906156ed565b9050610e6a8282613c86565b81613b9881611ed4565b6001600160a01b0316336001600160a01b031614613bc9576040516324adc17160e11b815260040160405180910390fd5b6000838152601a60205260408082205460105491516331a9108f60e11b8152600481018690526001600160a01b0391821693929190911690636352211e90602401602060405180830381865afa158015613c27573d6000803e3d6000fd5b505050506040513d601f19601f82011682018060405250810190613c4b919061522d565b9050816001600160a01b0316816001600160a01b031614613c7f5760405163e6ca793160e01b815260040160405180910390fd5b5050505050565b60105460405163e8a1268d60e01b8152600481018490526000916001600160a01b03169063e8a1268d90602401602060405180830381865afa158015613cd0573d6000803e3d6000fd5b505050506040513d601f19601f82011682018060405250810190613cf491906156ed565b9050816007811115613d0857613d08615161565b604051602001613d1a91815260200190565b60405160208183030381529060405280519060200120816007811115613d4257613d42615161565b604051602001613d5491815260200190565b604051602081830303815290604052805190602001201461106d57604051633e54c6fb60e11b815260040160405180910390fd5b638b78c6d81980546001600160a01b039092169182907f8be0079c531659141344cd1fd0a4f28419497f9722a3daafe3b4186f6b6457e0600080a355565b6001600160a01b038216613e1c5760405162461bcd60e51b815260206004820181905260248201527f4552433732313a206d696e7420746f20746865207a65726f20616464726573736044820152606401610fcc565b6000818152600260205260409020546001600160a01b031615613e815760405162461bcd60e51b815260206004820152601c60248201527f4552433732313a20746f6b656e20616c7265616479206d696e746564000000006044820152606401610fcc565b613e8d6000838361405d565b6001600160a01b0382166000908152600360205260408120805460019290613eb69084906156da565b909155505060008181526002602052604080822080546001600160a01b0319166001600160a01b03861690811790915590518392907fddf252ad1be2c89b69c2b068fc378daa952ba7f163c4a11628f55a4df523b3ef908290a45050565b816001600160a01b0316836001600160a01b031603613f755760405162461bcd60e51b815260206004820152601960248201527f4552433732313a20617070726f766520746f2063616c6c6572000000000000006044820152606401610fcc565b6001600160a01b03838116600081815260056020908152604080832094871680845294825291829020805460ff191686151590811790915591519182527f17307eab39ab6107e8899845ad3d59bd9653f200f220920489ca2b5937696c319101612c67565b613fe5848484613962565b613ff184848484614438565b612a1d5760405162461bcd60e51b8152600401610fcc9061570a565b60006001600160e01b031982166380ac58cd60e01b148061403e57506001600160e01b03198216635b5e139f60e01b145b80610e6a57506301ffc9a760e01b6001600160e01b0319831614610e6a565b6001600160a01b0383166140765761106d838383614539565b6001600160a01b0382166000908152601b6020526040902054156140ad57604051639a42da2960e01b815260040160405180910390fd5b6000818152601a602052604080822054601054915162438b6360e81b81526001600160a01b03918216600482018190529392919091169063438b630090602401600060405180830381865afa15801561410a573d6000803e3d6000fd5b505050506040513d6000823e601f3d908101601f19168201604052614132919081019061530d565b9050600061413f8561197a565b9050600081516001600160401b0381111561415c5761415c6149d4565b604051908082528060200260200182016040528015614185578160200160208202803683370190505b50905060005b825181101561420657601a60008483815181106141aa576141aa61507c565b6020026020010151815260200190815260200160002060009054906101000a90046001600160a01b03168282815181106141e6576141e661507c565b6001600160a01b039092166020928302919091019091015260010161418b565b5060115460405163644ec52760e01b8152600481018790526001600160a01b039091169063644ec52790602401600060405180830381600087803b15801561424d57600080fd5b505af1158015614261573d6000803e3d6000fd5b5050601154604051631e92beb560e31b8152600481018990526001600160a01b038a81166024830152909116925063f495f5a89150604401600060405180830381600087803b1580156142b357600080fd5b505af11580156142c7573d6000803e3d6000fd5b5050505060005b83518110156144235760008482815181106142eb576142eb61507c565b6020908102919091010151601154604051632e1d274f60e01b8152600481018390529192506001600160a01b031690632e1d274f90602401600060405180830381600087803b15801561433d57600080fd5b505af1158015614351573d6000803e3d6000fd5b5050601154604051632333520b60e11b81526001600160a01b039091169250634666a4169150614387908490879060040161575c565b600060405180830381600087803b1580156143a157600080fd5b505af11580156143b5573d6000803e3d6000fd5b505060105460405163487b1c2160e11b8152600481018590526001600160a01b0390911692506390f638429150602401600060405180830381600087803b1580156143ff57600080fd5b505af1158015614413573d6000803e3d6000fd5b50505050508060010190506142ce565b5061442f878787614539565b50505050505050565b60006001600160a01b0384163b1561452e57604051630a85bd0160e11b81526001600160a01b0385169063150b7a029061447c9033908990889088906004016157b5565b6020604051808303816000875af19250505080156144b7575060408051601f3d908101601f191682019092526144b4918101906157e8565b60015b614514573d8080156144e5576040519150601f19603f3d011682016040523d82523d6000602084013e6144ea565b606091505b50805160000361450c5760405162461bcd60e51b8152600401610fcc9061570a565b805181602001fd5b6001600160e01b031916630a85bd0160e11b14905061212a565b506001949350505050565b6001600160a01b0383166145945761458f81600880546000838152600960205260408120829055600182018355919091527ff3f7a9fe364faab93b216da50a3214154f22a0a2b415b23a84c8169e8b636ee30155565b6145b7565b816001600160a01b0316836001600160a01b0316146145b7576145b783826145f1565b6001600160a01b0382166145ce5761106d8161468e565b826001600160a01b0316826001600160a01b03161461106d5761106d828261473d565b600060016145fe84611fd5565b61460891906156c7565b60008381526007602052604090205490915080821461465b576001600160a01b03841660009081526006602090815260408083208584528252808320548484528184208190558352600790915290208190555b5060009182526007602090815260408084208490556001600160a01b039094168352600681528383209183525290812055565b6008546000906146a0906001906156c7565b600083815260096020526040812054600880549394509092849081106146c8576146c861507c565b9060005260206000200154905080600883815481106146e9576146e961507c565b600091825260208083209091019290925582815260099091526040808220849055858252812055600880548061472157614721615805565b6001900381819060005260206000200160009055905550505050565b600061474883611fd5565b6001600160a01b039093166000908152600660209081526040808320868452825280832085905593825260079052919091209190915550565b6001600160a01b03811681146134d957600080fd5b6000602082840312156147a857600080fd5b813561222e81614781565b6001600160e01b0319811681146134d957600080fd5b6000602082840312156147db57600080fd5b813561222e816147b3565b6000602082840312156147f857600080fd5b5035919050565b60005b8381101561481a578181015183820152602001614802565b50506000910152565b6000815180845261483b8160208601602086016147ff565b601f01601f19169290920160200192915050565b60208152600061222e6020830184614823565b6000806040838503121561487557600080fd5b823561488081614781565b946020939093013593505050565b8481526080602082015260006148a76080830186614823565b82810360408401526148b98186614823565b905082810360608401526148cd8185614823565b979650505050505050565b6000806000606084860312156148ed57600080fd5b83356148f881614781565b9250602084013561490881614781565b929592945050506040919091013590565b6000806040838503121561492c57600080fd5b50508035926020909101359150565b6020808252825182820181905260009190848201906040850190845b8181101561497357835183529284019291840191600101614957565b50909695505050505050565b600080600080600080600080610100898b03121561499c57600080fd5b505086359860208801359850604088013597606081013597506080810135965060a0810135955060c0810135945060e0013592509050565b634e487b7160e01b600052604160045260246000fd5b60405161018081016001600160401b0381118282101715614a0d57614a0d6149d4565b60405290565b604051601f8201601f191681016001600160401b0381118282101715614a3b57614a3b6149d4565b604052919050565b803563ffffffff81168114614a5757600080fd5b919050565b803560ff81168114614a5757600080fd5b60006001600160401b03821115614a8657614a866149d4565b50601f01601f191660200190565b600082601f830112614aa557600080fd5b8135614ab8614ab382614a6d565b614a13565b818152846020838601011115614acd57600080fd5b816020850160208301376000918101602001919091529392505050565b80358015158114614a5757600080fd5b600060208284031215614b0c57600080fd5b81356001600160401b0380821115614b2357600080fd5b908301906101808286031215614b3857600080fd5b614b406149ea565b823581526020830135602082015260408301356040820152606083013560608201526080830135608082015260a083013560a082015260c083013560c0820152614b8c60e08401614a43565b60e08201526101008381013590820152610120614baa818501614a5c565b908201526101408381013583811115614bc257600080fd5b614bce88828701614a94565b8284015250506101609150614be4828401614aea565b91810191909152949350505050565b606081526000614c066060830186614823565b8281036020840152614c188186614823565b9050828103604084015261146d8185614823565b6000806000806000806000806000806101408b8d031215614c4c57600080fd5b8a35995060208b0135985060408b0135975060608b0135965060808b0135955060a08b0135945060c08b0135935060e08b01359250614c8e6101008c01614a5c565b91506101208b01356001600160401b03811115614caa57600080fd5b614cb68d828e01614a94565b9150509295989b9194979a5092959850565b60008060408385031215614cdb57600080fd5b8235614ce681614781565b9150614cf460208401614aea565b90509250929050565b604081526000614d106040830185614823565b8281036020840152614d228185614823565b95945050505050565b60008060008060808587031215614d4157600080fd5b8435614d4c81614781565b93506020850135614d5c81614781565b92506040850135915060608501356001600160401b03811115614d7e57600080fd5b614d8a87828801614a94565b91505092959194509250565b6020815281516020820152602082015160408201526040820151606082015260608201516080820152608082015160a082015260a082015160c082015260c082015160e0820152600060e0830151610100614df88185018363ffffffff169052565b840151610120848101919091528401519050610140614e1b8185018360ff169052565b808501519150506101806101608181860152614e3b6101a0860184614823565b95015115159301929092525090919050565b60008060408385031215614e6057600080fd5b82359150614cf460208401614aea565b600881106134d957600080fd5b60008060408385031215614e9057600080fd5b823591506020830135614ea281614e70565b809150509250929050565b60008060408385031215614ec057600080fd5b8235915060208301356001600160401b03811115614edd57600080fd5b614ee985828601614a94565b9150509250929050565b60008060408385031215614f0657600080fd5b82359150614cf460208401614a5c565b60008060408385031215614f2957600080fd5b8235614f3481614781565b91506020830135614ea281614781565b60008060008060808587031215614f5a57600080fd5b8435935060208501356001600160401b0380821115614f7857600080fd5b614f8488838901614a94565b94506040870135915080821115614f9a57600080fd5b614fa688838901614a94565b93506060870135915080821115614fbc57600080fd5b50614d8a87828801614a94565b600181811c90821680614fdd57607f821691505b602082108103614ffd57634e487b7160e01b600052602260045260246000fd5b50919050565b600082601f83011261501457600080fd5b8151615022614ab382614a6d565b81815284602083860101111561503757600080fd5b61212a8260208301602087016147ff565b60006020828403121561505a57600080fd5b81516001600160401b0381111561507057600080fd5b61212a84828501615003565b634e487b7160e01b600052603260045260246000fd5b6080815260006150a56080830187614823565b6020838203818501528187518084528284019150828160051b850101838a0160005b838110156150f557601f198784030185526150e3838351614823565b948601949250908501906001016150c7565b50506040870198909852505050506060909101919091525092915050565b6020808252602e908201527f4552433732313a2063616c6c6572206973206e6f7420746f6b656e206f776e6560408201526d1c881b9bdc88185c1c1c9bdd995960921b606082015260800190565b634e487b7160e01b600052602160045260246000fd5b60008060006060848603121561518c57600080fd5b83516001600160401b03808211156151a357600080fd5b6151af87838801615003565b945060208601519150808211156151c557600080fd5b6151d187838801615003565b935060408601519150808211156151e757600080fd5b506151f486828701615003565b9150509250925092565b600083516152108184602088016147ff565b8351908301906152248183602088016147ff565b01949350505050565b60006020828403121561523f57600080fd5b815161222e81614781565b6000815461525781614fc9565b808552602060018381168015615274576001811461528e576152bc565b60ff1985168884015283151560051b8801830195506152bc565b866000528260002060005b858110156152b45781548a8201860152908301908401615299565b890184019650505b505050505092915050565b60208152600061222e602083018461524a565b604081526009604082015268426f6479205479706560b81b606082015260806020820152600061222e608083018461524a565b6000602080838503121561532057600080fd5b82516001600160401b038082111561533757600080fd5b818501915085601f83011261534b57600080fd5b81518181111561535d5761535d6149d4565b8060051b915061536e848301614a13565b818152918301840191848101908884111561538857600080fd5b938501935b838510156153a65784518252938501939085019061538d565b98975050505050505050565b634e487b7160e01b600052601160045260246000fd5b8082028115828204841417610e6a57610e6a6153b2565b6000600182016153f1576153f16153b2565b5060010190565b60008261541557634e487b7160e01b600052601260045260246000fd5b500690565b601f82111561106d576000816000526020600020601f850160051c810160208610156154435750805b601f850160051c820191505b818110156135215782815560010161544f565b81516001600160401b0381111561547b5761547b6149d4565b61548f816154898454614fc9565b8461541a565b602080601f8311600181146154c457600084156154ac5750858301515b600019600386901b1c1916600185901b178555613521565b600085815260208120601f198616915b828110156154f3578886015182559484019460019091019084016154d4565b50858210156155115787850151600019600388901b60f8161c191681555b5050505050600190811b01905550565b6d2261747472696275746573223a5b60901b8152825160009061554b81600e8501602088016147ff565b600b60fa1b600e91840191820152835161556c81600f8401602088016147ff565b605d60f81b600f9290910191820152601001949350505050565b600081516080845261559b6080850182614823565b9050602083015184820360208601526155b48282614823565b915050604083015184820360408601526155ce8282614823565b915050606083015160608501528091505092915050565b87815260e0602082015260006155fe60e0830189614823565b82810360408401526156108189614823565b905082810360608401526156248188614823565b905082810360808401526156388187614823565b905082810360a084015261564c8186614823565b905082810360c08401526156608185615586565b9a9950505050505050505050565b6000806040838503121561568157600080fd5b82516001600160401b038082111561569857600080fd5b6156a486838701615003565b935060208501519150808211156156ba57600080fd5b50614ee985828601615003565b81810381811115610e6a57610e6a6153b2565b80820180821115610e6a57610e6a6153b2565b6000602082840312156156ff57600080fd5b815161222e81614e70565b60208082526032908201527f4552433732313a207472616e7366657220746f206e6f6e20455243373231526560408201527131b2b4bb32b91034b6b83632b6b2b73a32b960711b606082015260800190565b60006040820184835260206040602085015281855180845260608601915060208701935060005b818110156157a85784516001600160a01b031683529383019391830191600101615783565b5090979650505050505050565b6001600160a01b038581168252841660208201526040810183905260806060820181905260009061146d90830184614823565b6000602082840312156157fa57600080fd5b815161222e816147b3565b634e487b7160e01b600052603160045260246000fdfec94c1c47471ed97c1d309bab965192a3e4be3807f42d015b699bfbdcf24dd9f6a2646970667358221220b9638ba051298f153e1776e771e8d81a56286d0f1134eb005dc56d260e03e18964736f6c63430008160033","linkReferences":{}},"methodIdentifiers":{"_debugPostConstructorMint()":"9c7be2f1","_nextTokenId()":"4a60f620","addNewBody(uint256,string,bytes,bytes)":"f2361e23","approve(address,uint256)":"095ea7b3","balanceOf(address)":"70a08231","bodyIndexToMetadata(uint256)":"0c83f9d7","cancelOwnershipHandover()":"54d1f13d","checkIfTraitIsEquipped(uint256,uint256)":"8aa1e4c8","chonkIdToApprovedOperators(uint256,uint256)":"55737f35","completeOwnershipHandover(address)":"f04e283e","equip(uint256,uint256)":"28257532","equipAll(uint256,uint256,uint256,uint256,uint256,uint256,uint256,uint256)":"4a4333a3","firstSeasonRenderMinter()":"13ea0ae3","getApproved(uint256)":"081812fc","getBackpackSVGs(uint256)":"14fe8ff4","getBodyImageSvg(uint256)":"916c546b","getBodySVGZmapsAndMetadata((uint256,uint256,uint256,uint256,uint256,uint256,uint256,uint32,uint256,uint8,string,bool))":"92012f08","getBodySvgAndMetadata((uint256,uint256,uint256,uint256,uint256,uint256,uint256,uint32,uint256,uint8,string,bool))":"a23830ae","getBodyZMap(uint256)":"306c7334","getFullPictureForTrait(uint256)":"66704349","getOwnerAndTBAAddressForChonkId(uint256)":"04003bd0","getPeter(uint256)":"be928ff6","getPeterZMap(uint256)":"2bd1ca45","getTBAAddressForChonkId(uint256)":"f6a0c932","getTokenRenderZ(uint256)":"8200ea51","getTraitTokens(address)":"998cfb6e","getTraitsForChonkId(uint256)":"9f6e4637","isApprovedForAll(address,address)":"e985e9c5","mainRenderer2D()":"f4bec0b6","mainRenderer3D()":"b66ef6e3","marketplace()":"abc8c7af","maxTraitsToOutput()":"e3d21555","mint(uint256)":"a0712d68","mintStartTime()":"931e2e49","name()":"06fdde03","owner()":"8da5cb5b","ownerOf(uint256)":"6352211e","ownershipHandoverExpiresAt(address)":"fee81cf4","peterMakeover(uint256,uint256,uint256,uint256,uint256,uint256,uint256,uint256,uint8,string)":"93ccba72","price()":"a035b1fe","renderAsDataUri(uint256)":"a1d62680","renderAsDataUri2D(uint256)":"f3f8efb9","renderAsDataUri3D(uint256)":"dceef0ec","renounceOwnership()":"715018a6","requestOwnershipHandover()":"25692962","safeTransferFrom(address,address,uint256)":"42842e0e","safeTransferFrom(address,address,uint256,bytes)":"b88d4fde","setApprovalForAll(address,bool)":"a22cb465","setBackgroundColor(uint256,string)":"d68c4f32","setBodyIndex(uint256,uint8)":"e1405540","setFirstSeasonRenderMinter(address)":"58a97640","setMainRenderer2D(address)":"7e2e6c47","setMainRenderer3D(address)":"00179206","setMarketplace(address)":"73ad6c2d","setMaxTraitsToOutput(uint256)":"33d3d9bf","setMintStartTime(uint256)":"d5b3621b","setPrice(uint256)":"91b7f5ed","setTokenRender3D(uint256,bool)":"bef1dfb7","setTraitsContract(address)":"5eabd84a","setWithdrawAddress(address)":"3ab1a494","supportsInterface(bytes4)":"01ffc9a7","symbol()":"95d89b41","tbaAddressToTokenId(address)":"a4bf9a00","tokenByIndex(uint256)":"4f6ccce7","tokenIdToTBAAccountAddress(uint256)":"9c05d68d","tokenOfOwnerByIndex(address,uint256)":"2f745c59","tokenURI(uint256)":"c87b56dd","totalSupply()":"18160ddd","traitsContract()":"c093afdb","transferFrom(address,address,uint256)":"23b872dd","transferOwnership(address)":"f2fde38b","unequip(uint256,uint8)":"cdb6dd5c","unequipAll(uint256)":"3044825b","walletOfOwner(address)":"438b6300","withdrawAddress()":"1581b600"},"id":43}