{"abi":[{"type":"constructor","inputs":[{"name":"localDeploy_","type":"bool","internalType":"bool"}],"stateMutability":"nonpayable"},{"type":"function","name":"MAX_TRAITS_TO_OUTPUT","inputs":[],"outputs":[{"name":"","type":"uint256","internalType":"uint256"}],"stateMutability":"view"},{"type":"function","name":"_debugPostConstructorMint","inputs":[],"outputs":[],"stateMutability":"nonpayable"},{"type":"function","name":"addNewBody","inputs":[{"name":"_bodyIndex","type":"uint256","internalType":"uint256"},{"name":"_bodyName","type":"string","internalType":"string"},{"name":"_colorMap","type":"bytes","internalType":"bytes"},{"name":"_zMap","type":"bytes","internalType":"bytes"}],"outputs":[],"stateMutability":"nonpayable"},{"type":"function","name":"approve","inputs":[{"name":"to","type":"address","internalType":"address"},{"name":"tokenId","type":"uint256","internalType":"uint256"}],"outputs":[],"stateMutability":"nonpayable"},{"type":"function","name":"balanceOf","inputs":[{"name":"owner","type":"address","internalType":"address"}],"outputs":[{"name":"","type":"uint256","internalType":"uint256"}],"stateMutability":"view"},{"type":"function","name":"bodyIndexToMetadata","inputs":[{"name":"","type":"uint256","internalType":"uint256"}],"outputs":[{"name":"bodyIndex","type":"uint256","internalType":"uint256"},{"name":"bodyName","type":"string","internalType":"string"},{"name":"colorMap","type":"bytes","internalType":"bytes"},{"name":"zMap","type":"bytes","internalType":"bytes"}],"stateMutability":"view"},{"type":"function","name":"buyTrait","inputs":[{"name":"_tokenId","type":"uint256","internalType":"uint256"}],"outputs":[],"stateMutability":"nonpayable"},{"type":"function","name":"cancelOwnershipHandover","inputs":[],"outputs":[],"stateMutability":"payable"},{"type":"function","name":"completeOwnershipHandover","inputs":[{"name":"pendingOwner","type":"address","internalType":"address"}],"outputs":[],"stateMutability":"payable"},{"type":"function","name":"equipAccessory","inputs":[{"name":"_peterTokenId","type":"uint256","internalType":"uint256"},{"name":"_traitTokenId","type":"uint256","internalType":"uint256"}],"outputs":[],"stateMutability":"nonpayable"},{"type":"function","name":"equipAll","inputs":[{"name":"_peterTokenId","type":"uint256","internalType":"uint256"},{"name":"_hatTokenId","type":"uint256","internalType":"uint256"},{"name":"_hairTokenId","type":"uint256","internalType":"uint256"},{"name":"_faceTokenId","type":"uint256","internalType":"uint256"},{"name":"_accessoryTokenId","type":"uint256","internalType":"uint256"},{"name":"_topTokenId","type":"uint256","internalType":"uint256"},{"name":"_bottomTokenId","type":"uint256","internalType":"uint256"},{"name":"_shoesTokenId","type":"uint256","internalType":"uint256"}],"outputs":[],"stateMutability":"nonpayable"},{"type":"function","name":"equipBottom","inputs":[{"name":"_peterTokenId","type":"uint256","internalType":"uint256"},{"name":"_traitTokenId","type":"uint256","internalType":"uint256"}],"outputs":[],"stateMutability":"nonpayable"},{"type":"function","name":"equipFace","inputs":[{"name":"_peterTokenId","type":"uint256","internalType":"uint256"},{"name":"_traitTokenId","type":"uint256","internalType":"uint256"}],"outputs":[],"stateMutability":"nonpayable"},{"type":"function","name":"equipHair","inputs":[{"name":"_peterTokenId","type":"uint256","internalType":"uint256"},{"name":"_traitTokenId","type":"uint256","internalType":"uint256"}],"outputs":[],"stateMutability":"nonpayable"},{"type":"function","name":"equipHat","inputs":[{"name":"_peterTokenId","type":"uint256","internalType":"uint256"},{"name":"_traitTokenId","type":"uint256","internalType":"uint256"}],"outputs":[],"stateMutability":"nonpayable"},{"type":"function","name":"equipShoes","inputs":[{"name":"_peterTokenId","type":"uint256","internalType":"uint256"},{"name":"_traitTokenId","type":"uint256","internalType":"uint256"}],"outputs":[],"stateMutability":"nonpayable"},{"type":"function","name":"equipTop","inputs":[{"name":"_peterTokenId","type":"uint256","internalType":"uint256"},{"name":"_traitTokenId","type":"uint256","internalType":"uint256"}],"outputs":[],"stateMutability":"nonpayable"},{"type":"function","name":"firstSeasonRenderMinter","inputs":[],"outputs":[{"name":"","type":"address","internalType":"contract FirstSeasonRenderMinter"}],"stateMutability":"view"},{"type":"function","name":"getApproved","inputs":[{"name":"tokenId","type":"uint256","internalType":"uint256"}],"outputs":[{"name":"","type":"address","internalType":"address"}],"stateMutability":"view"},{"type":"function","name":"getBackpackSVGs","inputs":[{"name":"_tokenId","type":"uint256","internalType":"uint256"}],"outputs":[{"name":"backpackSVGs","type":"string","internalType":"string"}],"stateMutability":"view"},{"type":"function","name":"getBodyImage","inputs":[{"name":"colorMap","type":"bytes","internalType":"bytes"}],"outputs":[{"name":"","type":"bytes","internalType":"bytes"}],"stateMutability":"pure"},{"type":"function","name":"getBodyImageSvg","inputs":[{"name":"_index","type":"uint256","internalType":"uint256"}],"outputs":[{"name":"svg","type":"string","internalType":"string"}],"stateMutability":"view"},{"type":"function","name":"getBodySVGZmapsAndMetadata","inputs":[{"name":"storedPeter","type":"tuple","internalType":"struct IPeterStorage.StoredPeter","components":[{"name":"hatId","type":"uint256","internalType":"uint256"},{"name":"hairId","type":"uint256","internalType":"uint256"},{"name":"faceId","type":"uint256","internalType":"uint256"},{"name":"accessoryId","type":"uint256","internalType":"uint256"},{"name":"topId","type":"uint256","internalType":"uint256"},{"name":"bottomId","type":"uint256","internalType":"uint256"},{"name":"shoesId","type":"uint256","internalType":"uint256"},{"name":"epoch","type":"uint32","internalType":"uint32"},{"name":"tokenId","type":"uint16","internalType":"uint16"},{"name":"bodyIndex","type":"uint256","internalType":"uint256"},{"name":"isRevealed","type":"bool","internalType":"bool"},{"name":"seed","type":"uint256","internalType":"uint256"},{"name":"backgroundColor","type":"string","internalType":"string"},{"name":"renderZ","type":"bool","internalType":"bool"}]}],"outputs":[{"name":"","type":"string","internalType":"string"},{"name":"","type":"bytes","internalType":"bytes"},{"name":"","type":"string","internalType":"string"}],"stateMutability":"view"},{"type":"function","name":"getBodySvgAndMetadata","inputs":[{"name":"storedPeter","type":"tuple","internalType":"struct IPeterStorage.StoredPeter","components":[{"name":"hatId","type":"uint256","internalType":"uint256"},{"name":"hairId","type":"uint256","internalType":"uint256"},{"name":"faceId","type":"uint256","internalType":"uint256"},{"name":"accessoryId","type":"uint256","internalType":"uint256"},{"name":"topId","type":"uint256","internalType":"uint256"},{"name":"bottomId","type":"uint256","internalType":"uint256"},{"name":"shoesId","type":"uint256","internalType":"uint256"},{"name":"epoch","type":"uint32","internalType":"uint32"},{"name":"tokenId","type":"uint16","internalType":"uint16"},{"name":"bodyIndex","type":"uint256","internalType":"uint256"},{"name":"isRevealed","type":"bool","internalType":"bool"},{"name":"seed","type":"uint256","internalType":"uint256"},{"name":"backgroundColor","type":"string","internalType":"string"},{"name":"renderZ","type":"bool","internalType":"bool"}]}],"outputs":[{"name":"","type":"string","internalType":"string"},{"name":"","type":"string","internalType":"string"}],"stateMutability":"view"},{"type":"function","name":"getBodyZMap","inputs":[{"name":"_tokenId","type":"uint256","internalType":"uint256"}],"outputs":[{"name":"","type":"string","internalType":"string"}],"stateMutability":"view"},{"type":"function","name":"getEpoch","inputs":[],"outputs":[{"name":"","type":"uint256","internalType":"uint256"}],"stateMutability":"view"},{"type":"function","name":"getEpochData","inputs":[{"name":"index","type":"uint256","internalType":"uint256"}],"outputs":[{"name":"","type":"tuple","internalType":"struct CommitReveal.Epoch","components":[{"name":"randomness","type":"uint128","internalType":"uint128"},{"name":"revealBlock","type":"uint64","internalType":"uint64"},{"name":"committed","type":"bool","internalType":"bool"},{"name":"revealed","type":"bool","internalType":"bool"}]}],"stateMutability":"view"},{"type":"function","name":"getOwnerAndTBAAddressForTokenId","inputs":[{"name":"_tokenId","type":"uint256","internalType":"uint256"}],"outputs":[{"name":"owner","type":"address","internalType":"address"},{"name":"tbaAddress","type":"address","internalType":"address"}],"stateMutability":"view"},{"type":"function","name":"getPeter","inputs":[{"name":"_tokenId","type":"uint256","internalType":"uint256"}],"outputs":[{"name":"","type":"tuple","internalType":"struct IPeterStorage.StoredPeter","components":[{"name":"hatId","type":"uint256","internalType":"uint256"},{"name":"hairId","type":"uint256","internalType":"uint256"},{"name":"faceId","type":"uint256","internalType":"uint256"},{"name":"accessoryId","type":"uint256","internalType":"uint256"},{"name":"topId","type":"uint256","internalType":"uint256"},{"name":"bottomId","type":"uint256","internalType":"uint256"},{"name":"shoesId","type":"uint256","internalType":"uint256"},{"name":"epoch","type":"uint32","internalType":"uint32"},{"name":"tokenId","type":"uint16","internalType":"uint16"},{"name":"bodyIndex","type":"uint256","internalType":"uint256"},{"name":"isRevealed","type":"bool","internalType":"bool"},{"name":"seed","type":"uint256","internalType":"uint256"},{"name":"backgroundColor","type":"string","internalType":"string"},{"name":"renderZ","type":"bool","internalType":"bool"}]}],"stateMutability":"view"},{"type":"function","name":"getPeterZMap","inputs":[{"name":"_tokenId","type":"uint256","internalType":"uint256"}],"outputs":[{"name":"","type":"string","internalType":"string"}],"stateMutability":"view"},{"type":"function","name":"getTraitTokens","inputs":[{"name":"_tbaAddress","type":"address","internalType":"address"}],"outputs":[{"name":"","type":"uint256[]","internalType":"uint256[]"}],"stateMutability":"view"},{"type":"function","name":"isApprovedForAll","inputs":[{"name":"owner","type":"address","internalType":"address"},{"name":"operator","type":"address","internalType":"address"}],"outputs":[{"name":"","type":"bool","internalType":"bool"}],"stateMutability":"view"},{"type":"function","name":"mainRenderer","inputs":[],"outputs":[{"name":"","type":"address","internalType":"contract MainRenderer"}],"stateMutability":"view"},{"type":"function","name":"mint","inputs":[],"outputs":[],"stateMutability":"payable"},{"type":"function","name":"name","inputs":[],"outputs":[{"name":"","type":"string","internalType":"string"}],"stateMutability":"view"},{"type":"function","name":"owner","inputs":[],"outputs":[{"name":"result","type":"address","internalType":"address"}],"stateMutability":"view"},{"type":"function","name":"ownerOf","inputs":[{"name":"tokenId","type":"uint256","internalType":"uint256"}],"outputs":[{"name":"","type":"address","internalType":"address"}],"stateMutability":"view"},{"type":"function","name":"ownershipHandoverExpiresAt","inputs":[{"name":"pendingOwner","type":"address","internalType":"address"}],"outputs":[{"name":"result","type":"uint256","internalType":"uint256"}],"stateMutability":"view"},{"type":"function","name":"price","inputs":[],"outputs":[{"name":"","type":"uint256","internalType":"uint256"}],"stateMutability":"view"},{"type":"function","name":"renderAsDataUri","inputs":[{"name":"_tokenId","type":"uint256","internalType":"uint256"}],"outputs":[{"name":"","type":"string","internalType":"string"}],"stateMutability":"view"},{"type":"function","name":"renderAsDataUriSVG","inputs":[{"name":"_tokenId","type":"uint256","internalType":"uint256"}],"outputs":[{"name":"","type":"string","internalType":"string"}],"stateMutability":"view"},{"type":"function","name":"renderAsDataUriZ","inputs":[{"name":"_tokenId","type":"uint256","internalType":"uint256"}],"outputs":[{"name":"","type":"string","internalType":"string"}],"stateMutability":"view"},{"type":"function","name":"renounceOwnership","inputs":[],"outputs":[],"stateMutability":"payable"},{"type":"function","name":"requestOwnershipHandover","inputs":[],"outputs":[],"stateMutability":"payable"},{"type":"function","name":"resolveEpochIfNecessary","inputs":[],"outputs":[],"stateMutability":"nonpayable"},{"type":"function","name":"safeTransferFrom","inputs":[{"name":"from","type":"address","internalType":"address"},{"name":"to","type":"address","internalType":"address"},{"name":"tokenId","type":"uint256","internalType":"uint256"}],"outputs":[],"stateMutability":"nonpayable"},{"type":"function","name":"safeTransferFrom","inputs":[{"name":"from","type":"address","internalType":"address"},{"name":"to","type":"address","internalType":"address"},{"name":"tokenId","type":"uint256","internalType":"uint256"},{"name":"data","type":"bytes","internalType":"bytes"}],"outputs":[],"stateMutability":"nonpayable"},{"type":"function","name":"setApprovalForAll","inputs":[{"name":"operator","type":"address","internalType":"address"},{"name":"approved","type":"bool","internalType":"bool"}],"outputs":[],"stateMutability":"nonpayable"},{"type":"function","name":"setBackgroundColor","inputs":[{"name":"_peterTokenId","type":"uint256","internalType":"uint256"},{"name":"_color","type":"string","internalType":"string"}],"outputs":[],"stateMutability":"nonpayable"},{"type":"function","name":"setBodyIndex","inputs":[{"name":"_peterTokenId","type":"uint256","internalType":"uint256"},{"name":"_bodyIndex","type":"uint256","internalType":"uint256"}],"outputs":[],"stateMutability":"nonpayable"},{"type":"function","name":"setFirstSeasonRenderMinter","inputs":[{"name":"_dataContract","type":"address","internalType":"address"}],"outputs":[],"stateMutability":"nonpayable"},{"type":"function","name":"setMainRenderer","inputs":[{"name":"_mainRenderer","type":"address","internalType":"address"}],"outputs":[],"stateMutability":"nonpayable"},{"type":"function","name":"setMaxTraitsToOutput","inputs":[{"name":"_maxTraitsToOutput","type":"uint256","internalType":"uint256"}],"outputs":[],"stateMutability":"nonpayable"},{"type":"function","name":"setPrice","inputs":[{"name":"_priceInWei","type":"uint256","internalType":"uint256"}],"outputs":[],"stateMutability":"nonpayable"},{"type":"function","name":"setRenderZ","inputs":[{"name":"_peterTokenId","type":"uint256","internalType":"uint256"},{"name":"_renderZ","type":"bool","internalType":"bool"}],"outputs":[],"stateMutability":"nonpayable"},{"type":"function","name":"setTraitsContract","inputs":[{"name":"_address","type":"address","internalType":"contract PeterTraits"}],"outputs":[],"stateMutability":"nonpayable"},{"type":"function","name":"setZRenderer","inputs":[{"name":"_zRenderer","type":"address","internalType":"address"}],"outputs":[],"stateMutability":"nonpayable"},{"type":"function","name":"supportsInterface","inputs":[{"name":"interfaceId","type":"bytes4","internalType":"bytes4"}],"outputs":[{"name":"","type":"bool","internalType":"bool"}],"stateMutability":"view"},{"type":"function","name":"symbol","inputs":[],"outputs":[{"name":"","type":"string","internalType":"string"}],"stateMutability":"view"},{"type":"function","name":"tokenByIndex","inputs":[{"name":"index","type":"uint256","internalType":"uint256"}],"outputs":[{"name":"","type":"uint256","internalType":"uint256"}],"stateMutability":"view"},{"type":"function","name":"tokenIdToTBAAccountAddress","inputs":[{"name":"","type":"uint256","internalType":"uint256"}],"outputs":[{"name":"","type":"uint160","internalType":"uint160"}],"stateMutability":"view"},{"type":"function","name":"tokenOfOwnerByIndex","inputs":[{"name":"owner","type":"address","internalType":"address"},{"name":"index","type":"uint256","internalType":"uint256"}],"outputs":[{"name":"","type":"uint256","internalType":"uint256"}],"stateMutability":"view"},{"type":"function","name":"tokenURI","inputs":[{"name":"_tokenId","type":"uint256","internalType":"uint256"}],"outputs":[{"name":"","type":"string","internalType":"string"}],"stateMutability":"view"},{"type":"function","name":"totalSupply","inputs":[],"outputs":[{"name":"","type":"uint256","internalType":"uint256"}],"stateMutability":"view"},{"type":"function","name":"traitsContract","inputs":[],"outputs":[{"name":"","type":"address","internalType":"contract PeterTraits"}],"stateMutability":"view"},{"type":"function","name":"transferFrom","inputs":[{"name":"from","type":"address","internalType":"address"},{"name":"to","type":"address","internalType":"address"},{"name":"tokenId","type":"uint256","internalType":"uint256"}],"outputs":[],"stateMutability":"nonpayable"},{"type":"function","name":"transferOwnership","inputs":[{"name":"newOwner","type":"address","internalType":"address"}],"outputs":[],"stateMutability":"payable"},{"type":"function","name":"unequipAccessory","inputs":[{"name":"_peterTokenId","type":"uint256","internalType":"uint256"}],"outputs":[],"stateMutability":"nonpayable"},{"type":"function","name":"unequipAll","inputs":[{"name":"_peterTokenId","type":"uint256","internalType":"uint256"}],"outputs":[],"stateMutability":"nonpayable"},{"type":"function","name":"unequipBottom","inputs":[{"name":"_peterTokenId","type":"uint256","internalType":"uint256"}],"outputs":[],"stateMutability":"nonpayable"},{"type":"function","name":"unequipFace","inputs":[{"name":"_peterTokenId","type":"uint256","internalType":"uint256"}],"outputs":[],"stateMutability":"nonpayable"},{"type":"function","name":"unequipHair","inputs":[{"name":"_peterTokenId","type":"uint256","internalType":"uint256"}],"outputs":[],"stateMutability":"nonpayable"},{"type":"function","name":"unequipHat","inputs":[{"name":"_peterTokenId","type":"uint256","internalType":"uint256"}],"outputs":[],"stateMutability":"nonpayable"},{"type":"function","name":"unequipShoes","inputs":[{"name":"_peterTokenId","type":"uint256","internalType":"uint256"}],"outputs":[],"stateMutability":"nonpayable"},{"type":"function","name":"unequipTop","inputs":[{"name":"_peterTokenId","type":"uint256","internalType":"uint256"}],"outputs":[],"stateMutability":"nonpayable"},{"type":"function","name":"walletOfOwner","inputs":[{"name":"_owner","type":"address","internalType":"address"}],"outputs":[{"name":"","type":"uint256[]","internalType":"uint256[]"}],"stateMutability":"view"},{"type":"function","name":"zRenderer","inputs":[],"outputs":[{"name":"","type":"address","internalType":"contract ZRenderer"}],"stateMutability":"view"},{"type":"event","name":"Approval","inputs":[{"name":"owner","type":"address","indexed":true,"internalType":"address"},{"name":"approved","type":"address","indexed":true,"internalType":"address"},{"name":"tokenId","type":"uint256","indexed":true,"internalType":"uint256"}],"anonymous":false},{"type":"event","name":"ApprovalForAll","inputs":[{"name":"owner","type":"address","indexed":true,"internalType":"address"},{"name":"operator","type":"address","indexed":true,"internalType":"address"},{"name":"approved","type":"bool","indexed":false,"internalType":"bool"}],"anonymous":false},{"type":"event","name":"BatchMetadataUpdate","inputs":[{"name":"_fromTokenId","type":"uint256","indexed":false,"internalType":"uint256"},{"name":"_toTokenId","type":"uint256","indexed":false,"internalType":"uint256"}],"anonymous":false},{"type":"event","name":"Equip","inputs":[{"name":"owner","type":"address","indexed":true,"internalType":"address"},{"name":"tokenId","type":"uint256","indexed":true,"internalType":"uint256"},{"name":"traitTokenId","type":"uint256","indexed":true,"internalType":"uint256"},{"name":"traitCategory","type":"string","indexed":false,"internalType":"string"}],"anonymous":false},{"type":"event","name":"EquipAll","inputs":[{"name":"owner","type":"address","indexed":true,"internalType":"address"},{"name":"tokenId","type":"uint256","indexed":true,"internalType":"uint256"}],"anonymous":false},{"type":"event","name":"MetadataUpdate","inputs":[{"name":"_tokenId","type":"uint256","indexed":false,"internalType":"uint256"}],"anonymous":false},{"type":"event","name":"Mint","inputs":[{"name":"owner","type":"address","indexed":true,"internalType":"address"},{"name":"tokenId","type":"uint256","indexed":true,"internalType":"uint256"}],"anonymous":false},{"type":"event","name":"NewEpoch","inputs":[{"name":"epoch","type":"uint256","indexed":true,"internalType":"uint256"},{"name":"revealBlock","type":"uint64","indexed":true,"internalType":"uint64"}],"anonymous":false},{"type":"event","name":"OwnershipHandoverCanceled","inputs":[{"name":"pendingOwner","type":"address","indexed":true,"internalType":"address"}],"anonymous":false},{"type":"event","name":"OwnershipHandoverRequested","inputs":[{"name":"pendingOwner","type":"address","indexed":true,"internalType":"address"}],"anonymous":false},{"type":"event","name":"OwnershipTransferred","inputs":[{"name":"oldOwner","type":"address","indexed":true,"internalType":"address"},{"name":"newOwner","type":"address","indexed":true,"internalType":"address"}],"anonymous":false},{"type":"event","name":"Transfer","inputs":[{"name":"from","type":"address","indexed":true,"internalType":"address"},{"name":"to","type":"address","indexed":true,"internalType":"address"},{"name":"tokenId","type":"uint256","indexed":true,"internalType":"uint256"}],"anonymous":false},{"type":"event","name":"Unequip","inputs":[{"name":"owner","type":"address","indexed":true,"internalType":"address"},{"name":"tokenId","type":"uint256","indexed":true,"internalType":"uint256"},{"name":"traitCategory","type":"string","indexed":true,"internalType":"string"}],"anonymous":false},{"type":"event","name":"UnequipAll","inputs":[{"name":"owner","type":"address","indexed":true,"internalType":"address"},{"name":"tokenId","type":"uint256","indexed":true,"internalType":"uint256"}],"anonymous":false},{"type":"error","name":"AlreadyInitialized","inputs":[]},{"type":"error","name":"BodyAlreadyExists","inputs":[]},{"type":"error","name":"FirstSeasonRenderMinterNotSet","inputs":[]},{"type":"error","name":"IncorrectPeterOwner","inputs":[]},{"type":"error","name":"IncorrectTBAOwner","inputs":[]},{"type":"error","name":"IncorrectTraitType","inputs":[]},{"type":"error","name":"NewOwnerIsZeroAddress","inputs":[]},{"type":"error","name":"NoHandoverRequest","inputs":[]},{"type":"error","name":"PeterDoesntExist","inputs":[]},{"type":"error","name":"Unauthorized","inputs":[]}],"bytecode":{"object":"0x6080604052600060105560456012553480156200001b57600080fd5b5060405162005b4b38038062005b4b8339810160408190526200003e9162000106565b6040518060400160405280600a81526020016914195d195c8815195cdd60b21b815250604051806040016040528060058152602001642822aa22a960d91b8152508160009081620000909190620001d8565b5060016200009f8282620001d8565b505050620000b333620000ca60201b60201c565b600a805460ff1916911515919091179055620002a4565b6001600160a01b0316638b78c6d8198190558060007f8be0079c531659141344cd1fd0a4f28419497f9722a3daafe3b4186f6b6457e08180a350565b6000602082840312156200011957600080fd5b815180151581146200012a57600080fd5b9392505050565b634e487b7160e01b600052604160045260246000fd5b600181811c908216806200015c57607f821691505b6020821081036200017d57634e487b7160e01b600052602260045260246000fd5b50919050565b601f821115620001d3576000816000526020600020601f850160051c81016020861015620001ae5750805b601f850160051c820191505b81811015620001cf57828155600101620001ba565b5050505b505050565b81516001600160401b03811115620001f457620001f462000131565b6200020c8162000205845462000147565b8462000183565b602080601f8311600181146200024457600084156200022b5750858301515b600019600386901b1c1916600185901b178555620001cf565b600085815260208120601f198616915b82811015620002755788860151825594840194600190910190840162000254565b5085821015620002945787850151600019600388901b60f8161c191681555b5050505050600190811b01905550565b61589780620002b46000396000f3fe6080604052600436106104525760003560e01c80636352211e1161023f578063a1d6268011610139578063d5b55c8b116100b6578063f04e283e1161007a578063f04e283e14610e6b578063f18dc22d14610e7e578063f2361e2314610e9e578063f2fde38b14610ebe578063fee81cf414610ed157600080fd5b8063d5b55c8b14610da2578063d68c4f3214610dc2578063e37db3c214610de2578063e5a6826114610e02578063e985e9c514610e2257600080fd5b8063b88d4fde116100fd578063b88d4fde14610cd5578063be928ff614610cf5578063c093afdb14610d22578063c87b56dd14610d42578063cc9a5d3714610d6257600080fd5b8063a1d6268014610c17578063a22cb46514610c37578063b28fbe4014610c57578063b528279314610c77578063b53d1fd714610c9757600080fd5b8063916c546b116101c75780639c05d68d1161018b5780639c05d68d14610b765780639c76201514610bac5780639c7be2f114610bcc578063a035b1fe14610be1578063a15c561b14610bf757600080fd5b8063916c546b14610ae157806391b7f5ed14610b0157806394cbd9c414610b2157806395d89b4114610b41578063998cfb6e14610b5657600080fd5b8063715018a61161020e578063715018a6146109a45780637557f2dc146109ac578063757991a8146109cc578063859e7d32146109e15780638da5cb5b14610ac857600080fd5b80636352211e14610916578063661ee23a1461093657806366b89b5a1461096457806370a082311461098457600080fd5b80632f745c591161035057806345d2d7bd116102d857806358180d351161029c57806358180d351461087657806358a97640146108965780635eabd84a146108b657806360b77b23146108d65780636273ca2c146108f657600080fd5b806345d2d7bd146107df5780634a4333a31461080e5780634ddb39611461082e5780634f6ccce71461084e57806354d1f13d1461086e57600080fd5b8063347bd8f41161031f578063347bd8f41461073257806342842e0e14610752578063438b630014610772578063457e7e611461079f57806345a10d0f146107bf57600080fd5b80632f745c59146106b25780633044825b146106d2578063306c7334146106f257806333d3d9bf1461071257600080fd5b806313ea0ae3116103de578063239ffa68116103a2578063239ffa681461063557806323b872dd1461064a578063256929621461066a578063293ed3f7146106725780632bd1ca451461069257600080fd5b806313ea0ae3146105a057806314fe8ff4146105c0578063172b054d146105e057806318160ddd1461060057806320e0b93c1461061f57600080fd5b8063095ea7b311610425578063095ea7b3146105085780630c83f9d7146105285780630f16232014610558578063105338e0146105785780631249c58b1461059857600080fd5b806301ffc9a7146104575780630447a45e1461048c57806306fdde03146104ae578063081812fc146104d0575b600080fd5b34801561046357600080fd5b506104776104723660046141a9565b610f04565b60405190151581526020015b60405180910390f35b34801561049857600080fd5b506104ac6104a73660046141c6565b610f15565b005b3480156104ba57600080fd5b506104c3610f97565b6040516104839190614238565b3480156104dc57600080fd5b506104f06104eb36600461424b565b611029565b6040516001600160a01b039091168152602001610483565b34801561051457600080fd5b506104ac610523366004614279565b611050565b34801561053457600080fd5b5061054861054336600461424b565b61116a565b60405161048394939291906142a5565b34801561056457600080fd5b506104ac6105733660046141c6565b61132b565b34801561058457600080fd5b506104ac61059336600461424b565b61139c565b6104ac611414565b3480156105ac57600080fd5b506014546104f0906001600160a01b031681565b3480156105cc57600080fd5b506104c36105db36600461424b565b6117a5565b3480156105ec57600080fd5b506104ac6105fb3660046142ef565b611a07565b34801561060c57600080fd5b506008545b604051908152602001610483565b34801561062b57600080fd5b5061061160125481565b34801561064157600080fd5b506104ac611a31565b34801561065657600080fd5b506104ac61066536600461430c565b611c0d565b6104ac611c3e565b34801561067e57600080fd5b506104ac61068d36600461424b565b611c8d565b34801561069e57600080fd5b506104c36106ad36600461424b565b611cc4565b3480156106be57600080fd5b506106116106cd366004614279565b611d88565b3480156106de57600080fd5b506104ac6106ed36600461424b565b611e1e565b3480156106fe57600080fd5b506104c361070d36600461424b565b611ea6565b34801561071e57600080fd5b506104ac61072d36600461424b565b611ec9565b34801561073e57600080fd5b506104ac61074d36600461424b565b611ed6565b34801561075e57600080fd5b506104ac61076d36600461430c565b611f07565b34801561077e57600080fd5b5061079261078d3660046142ef565b611f22565b604051610483919061434d565b3480156107ab57600080fd5b506104ac6107ba3660046141c6565b611fb9565b3480156107cb57600080fd5b506104ac6107da3660046141c6565b61201e565b3480156107eb57600080fd5b506107ff6107fa3660046144b8565b612091565b604051610483939291906145ce565b34801561081a57600080fd5b506104ac610829366004614611565b61227b565b34801561083a57600080fd5b506104ac6108493660046142ef565b612334565b34801561085a57600080fd5b5061061161086936600461424b565b61235e565b6104ac6123f1565b34801561088257600080fd5b506104ac61089136600461424b565b61242d565b3480156108a257600080fd5b506104ac6108b13660046142ef565b612460565b3480156108c257600080fd5b506104ac6108d13660046142ef565b61248a565b3480156108e257600080fd5b506104ac6108f13660046141c6565b6124b4565b34801561090257600080fd5b506104ac61091136600461424b565b612526565b34801561092257600080fd5b506104f061093136600461424b565b6125aa565b34801561094257600080fd5b506109566109513660046144b8565b61260a565b604051610483929190614666565b34801561097057600080fd5b506015546104f0906001600160a01b031681565b34801561099057600080fd5b5061061161099f3660046142ef565b6126b1565b6104ac612737565b3480156109b857600080fd5b506104c36109c736600461424b565b61274b565b3480156109d857600080fd5b50600d54610611565b3480156109ed57600080fd5b50610a7f6109fc36600461424b565b6040805160808082018352600080835260208084018290528385018290526060938401829052948152600c855283902083519182018452546001600160801b03811682526001600160401b03600160801b8204169482019490945260ff600160c01b85048116151593820193909352600160c81b90930490911615159082015290565b604051610483919081516001600160801b031681526020808301516001600160401b03169082015260408083015115159082015260609182015115159181019190915260800190565b348015610ad457600080fd5b50638b78c6d819546104f0565b348015610aed57600080fd5b506104c3610afc36600461424b565b61292b565b348015610b0d57600080fd5b506104ac610b1c36600461424b565b612a4f565b348015610b2d57600080fd5b506104ac610b3c3660046141c6565b612a5c565b348015610b4d57600080fd5b506104c3612acd565b348015610b6257600080fd5b50610792610b713660046142ef565b612adc565b348015610b8257600080fd5b506104f0610b9136600461424b565b6013602052600090815260409020546001600160a01b031681565b348015610bb857600080fd5b506104ac610bc736600461424b565b612b52565b348015610bd857600080fd5b506104ac612b86565b348015610bed57600080fd5b5061061160115481565b348015610c0357600080fd5b506016546104f0906001600160a01b031681565b348015610c2357600080fd5b506104c3610c3236600461424b565b612bad565b348015610c4357600080fd5b506104ac610c52366004614694565b612bdd565b348015610c6357600080fd5b506104c3610c7236600461424b565b612bec565b348015610c8357600080fd5b506104ac610c9236600461424b565b612d4b565b348015610ca357600080fd5b506104ac610cb23660046146c9565b6000918252600b6020526040909120600c01805460ff1916911515919091179055565b348015610ce157600080fd5b506104ac610cf03660046146ec565b612d79565b348015610d0157600080fd5b50610d15610d1036600461424b565b612db1565b6040516104839190614757565b348015610d2e57600080fd5b50600f546104f0906001600160a01b031681565b348015610d4e57600080fd5b506104c3610d5d36600461424b565b61306e565b348015610d6e57600080fd5b50610d82610d7d36600461424b565b6130af565b604080516001600160a01b03938416815292909116602083015201610483565b348015610dae57600080fd5b506104ac610dbd36600461424b565b6130de565b348015610dce57600080fd5b506104ac610ddd366004614833565b613110565b348015610dee57600080fd5b506104c3610dfd366004614879565b61316d565b348015610e0e57600080fd5b506104ac610e1d3660046141c6565b61341f565b348015610e2e57600080fd5b50610477610e3d3660046148ad565b6001600160a01b03918216600090815260056020908152604080832093909416825291909152205460ff1690565b6104ac610e793660046142ef565b61348c565b348015610e8a57600080fd5b506104ac610e993660046141c6565b6134c9565b348015610eaa57600080fd5b506104ac610eb93660046148e6565b613539565b6104ac610ecc3660046142ef565b613586565b348015610edd57600080fd5b50610611610eec3660046142ef565b63389a75e1600c908152600091909152602090205490565b6000610f0f826135ad565b92915050565b610f1f82826135d2565b610f2a816003613691565b6000828152600b602052604090206003018190558082610f49816125aa565b6001600160a01b031660008051602061533d833981519152604051610f8b906020808252600990820152684163636573736f727960b81b604082015260600190565b60405180910390a45050565b606060008054610fa69061496b565b80601f0160208091040260200160405190810160405280929190818152602001828054610fd29061496b565b801561101f5780601f10610ff45761010080835404028352916020019161101f565b820191906000526020600020905b81548152906001019060200180831161100257829003601f168201915b5050505050905090565b600061103482613793565b506000908152600460205260409020546001600160a01b031690565b600061105b826125aa565b9050806001600160a01b0316836001600160a01b0316036110cd5760405162461bcd60e51b815260206004820152602160248201527f4552433732313a20617070726f76616c20746f2063757272656e74206f776e656044820152603960f91b60648201526084015b60405180910390fd5b336001600160a01b03821614806110e957506110e98133610e3d565b61115b5760405162461bcd60e51b815260206004820152603e60248201527f4552433732313a20617070726f76652063616c6c6572206973206e6f7420746f60448201527f6b656e206f776e6572206e6f7220617070726f76656420666f7220616c6c000060648201526084016110c4565b61116583836137f2565b505050565b600e602052600090815260409020805460018201805491929161118c9061496b565b80601f01602080910402602001604051908101604052809291908181526020018280546111b89061496b565b80156112055780601f106111da57610100808354040283529160200191611205565b820191906000526020600020905b8154815290600101906020018083116111e857829003601f168201915b50505050509080600201805461121a9061496b565b80601f01602080910402602001604051908101604052809291908181526020018280546112469061496b565b80156112935780601f1061126857610100808354040283529160200191611293565b820191906000526020600020905b81548152906001019060200180831161127657829003601f168201915b5050505050908060030180546112a89061496b565b80601f01602080910402602001604051908101604052809291908181526020018280546112d49061496b565b80156113215780601f106112f657610100808354040283529160200191611321565b820191906000526020600020905b81548152906001019060200180831161130457829003601f168201915b5050505050905084565b61133582826135d2565b611340816002613691565b6000828152600b60205260409020600201819055808261135f816125aa565b6001600160a01b031660008051602061533d833981519152604051610f8b906020808252600490820152634661636560e01b604082015260600190565b6113a581613860565b6000818152600b60205260408082206001019190915551632430b4b960e11b81526004015b6040518091039020816113dc836125aa565b6001600160a01b03167fe428b1839105819dce5e635ac7e16ed2a43028f6e294bab8655e29acb5dc60bb60405160405180910390a450565b6014546001600160a01b031661143d57604051633390ca8960e21b815260040160405180910390fd5b6007611447611a31565b6000601060008154611458906149bb565b91829055509050611469338261389a565b604051638a54c52f60e01b81527355266d75d1a14e4572138116af39863ed6596e7f600482015260006024820181905262014a34604483015230606483015260848201839052906f6551c19487814612e58fe0681377575890638a54c52f9060a4016020604051808303816000875af11580156114ea573d6000803e3d6000fd5b505050506040513d601f19601f8201168201806040525081019061150e91906149d4565b6000838152601360205260409081902080546001600160a01b0319166001600160a01b038416908117909155905163189acdbd60e31b81527341c8f39463a868d3a88af00cd0fe7102f30e44ec60048201529192509063c4d66de890602401600060405180830381600087803b15801561158757600080fd5b505af115801561159b573d6000803e3d6000fd5b5050601454604051638fe4a24560e01b81526001600160a01b03858116600483015260248201889052600094509091169150638fe4a245906044016000604051808303816000875af11580156115f5573d6000803e3d6000fd5b505050506040513d6000823e601f3d908101601f1916820160405261161d91908101906149f1565b6000848152600b60205260408120600d5460078201805461ffff8916600a850181905563ffffffff90931665ffffffffffff199091161764010000000090920291909117905582519293509183919061167857611678614a96565b602002602001015181600601819055508160018151811061169b5761169b614a96565b60200260200101518160050181905550816002815181106116be576116be614a96565b6020026020010151816004018190555060038511156116fb57816003815181106116ea576116ea614a96565b602002602001015181600101819055505b600c8101805460ff19169055600160088201556040805180820190915260068152650c110d914e5160d21b6020820152600b82019061173a9082614af4565b50604051849033907f0f6798a560793a54c3bcfe86a93cde1e73087d944c0ea20544137d412139688590600090a361179e6040518060400160405280601481526020017336b4b73a32b2103137b23c903a37b5b2b724b21d60611b815250856139e8565b5050505050565b6000818152601360205260408120546060916001600160a01b03909116906117cc82612adc565b905060006040518060400160405280601b81526020017f3c7376672076696577426f783d223020302031353020313530223e000000000081525090506000604051806040016040528060068152602001651e17b9bb339f60d11b815250905060606000600f60009054906101000a90046001600160a01b03166001600160a01b0316635c1ef2566040518163ffffffff1660e01b8152600401600060405180830381865afa158015611882573d6000803e3d6000fd5b505050506040513d6000823e601f3d908101601f191682016040526118aa9190810190614c03565b905060006012548651106118c0576012546118c3565b85515b9050604051806105400160405280610505815260200161535d6105059139826040516020016118f3929190614c37565b604051602081830303815290604052925060005b818110156119d857600f5487516000916001600160a01b03169063c7791531908a908590811061193957611939614a96565b60200260200101516040518263ffffffff1660e01b815260040161195f91815260200190565b600060405180830381865afa15801561197c573d6000803e3d6000fd5b505050506040513d6000823e601f3d908101601f191682016040526119a49190810190614c03565b9050848782886040516020016119bd9493929190614c8e565b60408051601f19818403018152919052945050600101611907565b50826040516020016119ea9190614ce5565b60408051601f198184030181529190529998505050505050505050565b611a0f613a2d565b601680546001600160a01b0319166001600160a01b0392909216919091179055565b600d546000908152600c602052604090208054600160c01b900460ff161580611a8957508054600160c81b900460ff16158015611a895750611a7561010043614d0d565b8154600160801b90046001600160401b0316105b15611ad457611a99436032614d20565b815460ff60c01b196001600160401b0392909216600160801b029190911668ffffffffffffffffff60801b1990911617600160c01b17815550565b8054600160801b90046001600160401b0316431115611c0a57805460408051600160801b9092046001600160401b031640602083015244908201526001600160801b03906060016040516020818303038152906040528051906020012060001c611b3e9190614d49565b8154600160c81b6001600160801b039290921679ff000000000000000000ffffffffffffffffffffffffffffffff199091161717808255600d54604051600160801b9092046001600160401b0316917f78611aecfda8d341359c248df527c95aef93d446c92bb928b2a81b7abcb1d8d990600090a3604080516000815260001960208201527f6bd5c950a8d8df17f772f5af37cb3655737899cbf903264b9795592da439661c910160405180910390a1600d8054600090611bfe906149bb565b90915550611c0a611a31565b50565b611c173382613a48565b611c335760405162461bcd60e51b81526004016110c490614d5d565b611165838383613ac7565b60006202a3006001600160401b03164201905063389a75e1600c5233600052806020600c2055337fdbf36a107da19e49527a7176a1babf963b4b0ff8cde35ee35d6cd8f1f9ac7e1d600080a250565b611c9681613860565b6000818152600b60205260408082206003019190915551684163636573736f727960b81b81526009016113ca565b60608060606000611cd485612db1565b9050611cdf81612091565b50600f54604051630de6a96560e11b81529195506001600160a01b03169150631bcd52ca90611d12908490600401614757565b600060405180830381865afa158015611d2f573d6000803e3d6000fd5b505050506040513d6000823e601f3d908101601f19168201604052611d579190810190614dab565b50604051909350611d6f915084908490602001614e49565b6040516020818303038152906040529350505050919050565b6000611d93836126b1565b8210611df55760405162461bcd60e51b815260206004820152602b60248201527f455243373231456e756d657261626c653a206f776e657220696e646578206f7560448201526a74206f6620626f756e647360a81b60648201526084016110c4565b506001600160a01b03919091166000908152600660209081526040808320938352929052205490565b611e2781613860565b6000818152600b602052604081208181556001810182905560028101829055600381018290556004810182905560058101829055600681019190915581611e6d816125aa565b6001600160a01b03167f46078a2cd4c69c3b4a27bdc69fdfe03d442ebcf405f1a68e9b5df6bc3e24429760405160405180910390a35050565b6060806000611eb484612db1565b9050611ebf81612091565b5095945050505050565b611ed1613a2d565b601255565b611edf81613860565b6000818152600b60205260408082206004019190915551620546f760ec1b81526003016113ca565b61116583838360405180602001604052806000815250612d79565b60606000611f2f836126b1565b90506000816001600160401b03811115611f4b57611f4b614391565b604051908082528060200260200182016040528015611f74578160200160208202803683370190505b50905060005b82811015611fb157611f8c8582611d88565b828281518110611f9e57611f9e614a96565b6020908102919091010152600101611f7a565b509392505050565b6001811080611fc85750600481115b156120095760405162461bcd60e51b8152602060048201526011602482015270092dcecc2d8d2c840c4dec8f292dcc8caf607b1b60448201526064016110c4565b6000918252600b602052604090912060080155565b61202882826135d2565b612033816005613691565b6000828152600b602052604090206005018190558082612052816125aa565b6001600160a01b031660008051602061533d833981519152604051610f8b90602080825260069082015265426f74746f6d60d01b604082015260600190565b60608060608361014001516120ef576040518060a00160405280606581526020016152d86065913960405180602001604052806000815250604051806040016040528060028152602001617b7d60f01b815250925092509250612274565b6120fd84610120015161292b565b600e600086610120015181526020019081526020016000206003016121e160405180604001604052806004815260200163426f647960e01b815250600e60008961012001518152602001908152602001600020600101805461215e9061496b565b80601f016020809104026020016040519081016040528092919081815260200182805461218a9061496b565b80156121d75780601f106121ac576101008083540402835291602001916121d7565b820191906000526020600020905b8154815290600101906020018083116121ba57829003601f168201915b5050505050613c6e565b8180546121ed9061496b565b80601f01602080910402602001604051908101604052809291908181526020018280546122199061496b565b80156122665780601f1061223b57610100808354040283529160200191612266565b820191906000526020600020905b81548152906001019060200180831161224957829003601f168201915b505050505091509250925092505b9193909250565b861561228b5761228b888861341f565b851561229b5761229b8887612a5c565b84156122ab576122ab888661132b565b83156122bb576122bb8885610f15565b82156122cb576122cb88846134c9565b81156122db576122db888361201e565b80156122eb576122eb88826124b4565b876122f5896125aa565b6001600160a01b03167f56680590212b09eb4b72a2eba8801b037ec046dfc754538e924f5bb6a8c4db6c60405160405180910390a35050505050505050565b61233c613a2d565b601580546001600160a01b0319166001600160a01b0392909216919091179055565b600061236960085490565b82106123cc5760405162461bcd60e51b815260206004820152602c60248201527f455243373231456e756d657261626c653a20676c6f62616c20696e646578206f60448201526b7574206f6620626f756e647360a01b60648201526084016110c4565b600882815481106123df576123df614a96565b90600052602060002001549050919050565b63389a75e1600c523360005260006020600c2055337ffa7b8eab7da67f412cc9575ed43464468f9bfbae89d1675917346ca6d8fe3c92600080a2565b61243681613860565b6000818152600b602052604080822060060191909155516453686f657360d81b81526005016113ca565b612468613a2d565b601480546001600160a01b0319166001600160a01b0392909216919091179055565b612492613a2d565b600f80546001600160a01b0319166001600160a01b0392909216919091179055565b6124be82826135d2565b6124c9816006613691565b6000828152600b6020526040902060060181905580826124e8816125aa565b6001600160a01b031660008051602061533d833981519152604051610f8b9060208082526005908201526453686f657360d81b604082015260600190565b6000818152601360205260409081902054600f5491516340d097c360e01b81526001600160a01b03918216600482018190529291909116906340d097c3906024016020604051808303816000875af1158015612586573d6000803e3d6000fd5b505050506040513d601f19601f820116820180604052508101906111659190614e78565b6000818152600260205260408120546001600160a01b031680610f0f5760405162461bcd60e51b8152602060048201526018602482015277115490cdcc8c4e881a5b9d985b1a59081d1bdad95b88125160421b60448201526064016110c4565b606080826101400151612654576040518060a00160405280606581526020016152d860659139604051806040016040528060028152602001617b7d60f01b81525091509150915091565b61266283610120015161292b565b6126a860405180604001604052806004815260200163426f647960e01b815250600e60008761012001518152602001908152602001600020600101805461215e9061496b565b91509150915091565b60006001600160a01b03821661271b5760405162461bcd60e51b815260206004820152602960248201527f4552433732313a2061646472657373207a65726f206973206e6f7420612076616044820152683634b21037bbb732b960b91b60648201526084016110c4565b506001600160a01b031660009081526003602052604090205490565b61273f613a2d565b6127496000613c9a565b565b60608060608060608060608060608060006127658c612db1565b905061277081612091565b600f54604051630de6a96560e11b8152939d50919a5095506001600160a01b031690631bcd52ca906127a6908490600401614757565b600060405180830381865afa1580156127c3573d6000803e3d6000fd5b505050506040513d6000823e601f3d908101601f191682016040526127eb9190810190614dab565b604051929b5090985095506128069085908790602001614e91565b6040516020818303038152906040529250878760405160200161282a929190614e49565b60408051601f1981840301815290829052610180830151909750612852918190602001614ef6565b60408051601f198184030181528282019091526060808352602083015292508161018001518160000181905250828160200181905250601660009054906101000a90046001600160a01b03166001600160a01b0316637149ebf68e8d888e8b8d886040518863ffffffff1660e01b81526004016128d59796959493929190614f9b565b600060405180830381865afa1580156128f2573d6000803e3d6000fd5b505050506040513d6000823e601f3d908101601f1916820160405261291a9190810190614c03565b9d9c50505050505050505050505050565b6000818152600e602052604081206002018054606092916129d29161294f9061496b565b80601f016020809104026020016040519081016040528092919081815260200182805461297b9061496b565b80156129c85780601f1061299d576101008083540402835291602001916129c8565b820191906000526020600020905b8154815290600101906020018083116129ab57829003601f168201915b505050505061316d565b6015546040516335b07b7960e11b81529192506001600160a01b031690636b60f6f290612a03908490600401614238565b600060405180830381865afa158015612a20573d6000803e3d6000fd5b505050506040513d6000823e601f3d908101601f19168201604052612a489190810190614c03565b9392505050565b612a57613a2d565b601155565b612a6682826135d2565b612a71816001613691565b6000828152600b602052604090206001018190558082612a90816125aa565b6001600160a01b031660008051602061533d833981519152604051610f8b906020808252600490820152632430b4b960e11b604082015260600190565b606060018054610fa69061496b565b600f5460405162438b6360e81b81526001600160a01b03838116600483015260609260009291169063438b630090602401600060405180830381865afa158015612b2a573d6000803e3d6000fd5b505050506040513d6000823e601f3d908101601f19168201604052612a4891908101906149f1565b612b5b81613860565b6000818152600b6020526040808220600501919091555165426f74746f6d60d01b81526006016113ca565b600a5460ff16156127495760005b6064811015611c0a57612ba5611414565b600101612b94565b60606000612bba83612db1565b9050806101a00151612bd457612bcf83612bec565b612a48565b612a488361274b565b612be8338383613cd8565b5050565b60608060608060608060606000612c0289612db1565b9050612c0d8161260a565b600f5460405163506cbfe760e11b81529299509097506001600160a01b03169063a0d97fce90612c41908490600401614757565b600060405180830381865afa158015612c5e573d6000803e3d6000fd5b505050506040513d6000823e601f3d908101601f19168201604052612c869190810190615048565b9095509350612c94896117a5565b610180820151604051919450612cae918190602001614ef6565b60408051601f1981840301815290829052601554631f8ac0db60e21b83529093506001600160a01b031690637e2b036c90612cf9908c908b908b908b908b908b908b906004016150a1565b600060405180830381865afa158015612d16573d6000803e3d6000fd5b505050506040513d6000823e601f3d908101601f19168201604052612d3e9190810190614c03565b9998505050505050505050565b612d5481613860565b6000818152600b602052604080822091909155516212185d60ea1b81526003016113ca565b612d833383613a48565b612d9f5760405162461bcd60e51b81526004016110c490614d5d565b612dab84848484613da6565b50505050565b612e31604051806101c0016040528060008152602001600081526020016000815260200160008152602001600081526020016000815260200160008152602001600063ffffffff168152602001600061ffff1681526020016000815260200160001515815260200160008152602001606081526020016000151581525090565b6000828152600b6020818152604080842081516101c081018352815481526001820154938101939093526002810154918301919091526003810154606083015260048101546080830152600581015460a0830152600681015460c0830152600781015463ffffffff811660e0840152640100000000900461ffff166101008301526008810154610120830152600981015460ff161515610140830152600a810154610160830152918201805491929161018084019190612ef09061496b565b80601f0160208091040260200160405190810160405280929190818152602001828054612f1c9061496b565b8015612f695780601f10612f3e57610100808354040283529160200191612f69565b820191906000526020600020905b815481529060010190602001808311612f4c57829003601f168201915b5050509183525050600c9182015460ff16151560209182015260e083015163ffffffff1660009081529181526040918290205461010084015192519394506001600160801b03908116939092612fef9285920160809290921b6fffffffffffffffffffffffffffffffff1916825260f01b6001600160f01b031916601082015260120190565b6040516020818303038152906040528051906020012060001c6130129190614d49565b610160830152600a5460ff161515600114613039576000816001600160801b03161161303c565b60015b151561014083015261016082015161305690600490614d49565b613061906001614d20565b6101208301525092915050565b6000818152600260205260409020546060906001600160a01b03166130a657604051631a65aaab60e31b815260040160405180910390fd5b610f0f82612bad565b6000806130bb836125aa565b6000938452601360205260409093205492936001600160a01b0390931692915050565b6130e781613860565b6000818152600b60205260408082206002019190915551634661636560e01b81526004016113ca565b80516006146131515760405162461bcd60e51b815260206004820152600d60248201526c24b73b30b634b21031b7b637b960991b60448201526064016110c4565b6000828152600b60208190526040909120016111658282614af4565b805160609080158015906131895750613187600582614d49565b155b6131d55760405162461bcd60e51b815260206004820152601960248201527f496e76616c696420626f6479206279746573206c656e6774680000000000000060448201526064016110c4565b604080516111948082526111c08201909252600091602082018180368337019050509050600061320660058461512a565b905060005b8181101561341557600061322082600561513e565b9050600087828151811061323657613236614a96565b016020015160f81c905060008861324e846001614d20565b8151811061325e5761325e614a96565b016020015160f81c9050600060ff831661327983601e61513e565b6132839190614d20565b61328e90600561513e565b90508984815181106132a2576132a2614a96565b602001015160f81c60f81b8782815181106132bf576132bf614a96565b60200101906001600160f81b031916908160001a9053508984600101815181106132eb576132eb614a96565b602001015160f81c60f81b87826001018151811061330b5761330b614a96565b60200101906001600160f81b031916908160001a90535089846002018151811061333757613337614a96565b602001015160f81c60f81b87826002018151811061335757613357614a96565b60200101906001600160f81b031916908160001a90535089846003018151811061338357613383614a96565b602001015160f81c60f81b8782600301815181106133a3576133a3614a96565b60200101906001600160f81b031916908160001a9053508984600401815181106133cf576133cf614a96565b602001015160f81c60f81b8782600401815181106133ef576133ef614a96565b60200101906001600160f81b031916908160001a9053505050505080600101905061320b565b5090949350505050565b61342982826135d2565b613434816000613691565b6000828152600b602052604090208190558082613450816125aa565b6001600160a01b031660008051602061533d833981519152604051610f8b9060208082526003908201526212185d60ea1b604082015260600190565b613494613a2d565b63389a75e1600c52806000526020600c2080544211156134bc57636f5e88186000526004601cfd5b60009055611c0a81613c9a565b6134d382826135d2565b6134de816004613691565b6000828152600b6020526040902060040181905580826134fd816125aa565b6001600160a01b031660008051602061533d833981519152604051610f8b906020808252600390820152620546f760ec1b604082015260600190565b613541613a2d565b6000848152600e60205260409020848155600181016135608582614af4565b506002810161356f8482614af4565b506003810161357e8382614af4565b505050505050565b61358e613a2d565b8060601b6135a457637448fbae6000526004601cfd5b611c0a81613c9a565b60006001600160e01b0319821663780e9d6360e01b1480610f0f5750610f0f82613dd9565b6135db82613860565b60008281526013602052604080822054600f5491516331a9108f60e11b8152600481018590526001600160a01b0391821693929190911690636352211e90602401602060405180830381865afa158015613639573d6000803e3d6000fd5b505050506040513d601f19601f8201168201806040525081019061365d91906149d4565b9050816001600160a01b0316816001600160a01b031614612dab5760405163e6ca793160e01b815260040160405180910390fd5b600f5460405163e8a1268d60e01b8152600481018490526000916001600160a01b03169063e8a1268d90602401602060405180830381865afa1580156136db573d6000803e3d6000fd5b505050506040513d601f19601f820116820180604052508101906136ff9190615155565b905081600681111561371357613713615176565b60405160200161372591815260200190565b6040516020818303038152906040528051906020012081600681111561374d5761374d615176565b60405160200161375f91815260200190565b604051602081830303815290604052805190602001201461116557604051633e54c6fb60e11b815260040160405180910390fd5b6000818152600260205260409020546001600160a01b0316611c0a5760405162461bcd60e51b8152602060048201526018602482015277115490cdcc8c4e881a5b9d985b1a59081d1bdad95b88125160421b60448201526064016110c4565b600081815260046020526040902080546001600160a01b0319166001600160a01b0384169081179091558190613827826125aa565b6001600160a01b03167f8c5be1e5ebec7d5bd14f71427d1e84f3dd0314c0f7b2291e5b200ac8c7c3b92560405160405180910390a45050565b613869816125aa565b6001600160a01b0316336001600160a01b031614611c0a576040516324adc17160e11b815260040160405180910390fd5b6001600160a01b0382166138f05760405162461bcd60e51b815260206004820181905260248201527f4552433732313a206d696e7420746f20746865207a65726f206164647265737360448201526064016110c4565b6000818152600260205260409020546001600160a01b0316156139555760405162461bcd60e51b815260206004820152601c60248201527f4552433732313a20746f6b656e20616c7265616479206d696e7465640000000060448201526064016110c4565b61396160008383613e29565b6001600160a01b038216600090815260036020526040812080546001929061398a908490614d20565b909155505060008181526002602052604080822080546001600160a01b0319166001600160a01b03861690811790915590518392907fddf252ad1be2c89b69c2b068fc378daa952ba7f163c4a11628f55a4df523b3ef908290a45050565b612be882826040516024016139fe92919061518c565b60408051601f198184030181529190526020810180516001600160e01b03166309710a9d60e41b179052613ee1565b638b78c6d819543314612749576382b429006000526004601cfd5b600080613a54836125aa565b9050806001600160a01b0316846001600160a01b03161480613a9b57506001600160a01b0380821660009081526005602090815260408083209388168352929052205460ff165b80613abf5750836001600160a01b0316613ab484611029565b6001600160a01b0316145b949350505050565b826001600160a01b0316613ada826125aa565b6001600160a01b031614613b3e5760405162461bcd60e51b815260206004820152602560248201527f4552433732313a207472616e736665722066726f6d20696e636f72726563742060448201526437bbb732b960d91b60648201526084016110c4565b6001600160a01b038216613ba05760405162461bcd60e51b8152602060048201526024808201527f4552433732313a207472616e7366657220746f20746865207a65726f206164646044820152637265737360e01b60648201526084016110c4565b613bab838383613e29565b613bb66000826137f2565b6001600160a01b0383166000908152600360205260408120805460019290613bdf908490614d0d565b90915550506001600160a01b0382166000908152600360205260408120805460019290613c0d908490614d20565b909155505060008181526002602052604080822080546001600160a01b0319166001600160a01b0386811691821790925591518493918716917fddf252ad1be2c89b69c2b068fc378daa952ba7f163c4a11628f55a4df523b3ef91a4505050565b60608282604051602001613c839291906151ae565b604051602081830303815290604052905092915050565b638b78c6d81980546001600160a01b039092169182907f8be0079c531659141344cd1fd0a4f28419497f9722a3daafe3b4186f6b6457e0600080a355565b816001600160a01b0316836001600160a01b031603613d395760405162461bcd60e51b815260206004820152601960248201527f4552433732313a20617070726f766520746f2063616c6c65720000000000000060448201526064016110c4565b6001600160a01b03838116600081815260056020908152604080832094871680845294825291829020805460ff191686151590811790915591519182527f17307eab39ab6107e8899845ad3d59bd9653f200f220920489ca2b5937696c31910160405180910390a3505050565b613db1848484613ac7565b613dbd84848484613f02565b612dab5760405162461bcd60e51b81526004016110c49061521f565b60006001600160e01b031982166380ac58cd60e01b1480613e0a57506001600160e01b03198216635b5e139f60e01b145b80610f0f57506301ffc9a760e01b6001600160e01b0319831614610f0f565b6001600160a01b038316613e8457613e7f81600880546000838152600960205260408120829055600182018355919091527ff3f7a9fe364faab93b216da50a3214154f22a0a2b415b23a84c8169e8b636ee30155565b613ea7565b816001600160a01b0316836001600160a01b031614613ea757613ea78382614003565b6001600160a01b038216613ebe57611165816140a0565b826001600160a01b0316826001600160a01b03161461116557611165828261414f565b80516a636f6e736f6c652e6c6f67602083016000808483855afa5050505050565b60006001600160a01b0384163b15613ff857604051630a85bd0160e11b81526001600160a01b0385169063150b7a0290613f46903390899088908890600401615271565b6020604051808303816000875af1925050508015613f81575060408051601f3d908101601f19168201909252613f7e918101906152a4565b60015b613fde573d808015613faf576040519150601f19603f3d011682016040523d82523d6000602084013e613fb4565b606091505b508051600003613fd65760405162461bcd60e51b81526004016110c49061521f565b805181602001fd5b6001600160e01b031916630a85bd0160e11b149050613abf565b506001949350505050565b60006001614010846126b1565b61401a9190614d0d565b60008381526007602052604090205490915080821461406d576001600160a01b03841660009081526006602090815260408083208584528252808320548484528184208190558352600790915290208190555b5060009182526007602090815260408084208490556001600160a01b039094168352600681528383209183525290812055565b6008546000906140b290600190614d0d565b600083815260096020526040812054600880549394509092849081106140da576140da614a96565b9060005260206000200154905080600883815481106140fb576140fb614a96565b6000918252602080832090910192909255828152600990915260408082208490558582528120556008805480614133576141336152c1565b6001900381819060005260206000200160009055905550505050565b600061415a836126b1565b6001600160a01b039093166000908152600660209081526040808320868452825280832085905593825260079052919091209190915550565b6001600160e01b031981168114611c0a57600080fd5b6000602082840312156141bb57600080fd5b8135612a4881614193565b600080604083850312156141d957600080fd5b50508035926020909101359150565b60005b838110156142035781810151838201526020016141eb565b50506000910152565b600081518084526142248160208601602086016141e8565b601f01601f19169290920160200192915050565b602081526000612a48602083018461420c565b60006020828403121561425d57600080fd5b5035919050565b6001600160a01b0381168114611c0a57600080fd5b6000806040838503121561428c57600080fd5b823561429781614264565b946020939093013593505050565b8481526080602082015260006142be608083018661420c565b82810360408401526142d0818661420c565b905082810360608401526142e4818561420c565b979650505050505050565b60006020828403121561430157600080fd5b8135612a4881614264565b60008060006060848603121561432157600080fd5b833561432c81614264565b9250602084013561433c81614264565b929592945050506040919091013590565b6020808252825182820181905260009190848201906040850190845b8181101561438557835183529284019291840191600101614369565b50909695505050505050565b634e487b7160e01b600052604160045260246000fd5b6040516101c081016001600160401b03811182821017156143ca576143ca614391565b60405290565b604051601f8201601f191681016001600160401b03811182821017156143f8576143f8614391565b604052919050565b803563ffffffff8116811461441457600080fd5b919050565b803561ffff8116811461441457600080fd5b8035801515811461441457600080fd5b60006001600160401b0382111561445457614454614391565b50601f01601f191660200190565b600082601f83011261447357600080fd5b81356144866144818261443b565b6143d0565b81815284602083860101111561449b57600080fd5b816020850160208301376000918101602001919091529392505050565b6000602082840312156144ca57600080fd5b81356001600160401b03808211156144e157600080fd5b908301906101c082860312156144f657600080fd5b6144fe6143a7565b823581526020830135602082015260408301356040820152606083013560608201526080830135608082015260a083013560a082015260c083013560c082015261454a60e08401614400565b60e082015261010061455d818501614419565b90820152610120838101359082015261014061457a81850161442b565b908201526101608381013590820152610180808401358381111561459d57600080fd5b6145a988828701614462565b8284015250506101a091506145bf82840161442b565b91810191909152949350505050565b6060815260006145e1606083018661420c565b82810360208401526145f3818661420c565b90508281036040840152614607818561420c565b9695505050505050565b600080600080600080600080610100898b03121561462e57600080fd5b505086359860208801359850604088013597606081013597506080810135965060a0810135955060c0810135945060e0013592509050565b604081526000614679604083018561420c565b828103602084015261468b818561420c565b95945050505050565b600080604083850312156146a757600080fd5b82356146b281614264565b91506146c06020840161442b565b90509250929050565b600080604083850312156146dc57600080fd5b823591506146c06020840161442b565b6000806000806080858703121561470257600080fd5b843561470d81614264565b9350602085013561471d81614264565b92506040850135915060608501356001600160401b0381111561473f57600080fd5b61474b87828801614462565b91505092959194509250565b6020815281516020820152602082015160408201526040820151606082015260608201516080820152608082015160a082015260a082015160c082015260c082015160e0820152600060e08301516101006147b98185018363ffffffff169052565b84015190506101206147d08482018361ffff169052565b8401516101408481019190915284015190506101606147f28185018315159052565b840151610180848101919091528401516101c06101a0808601829052919250906148206101e086018461420c565b9086015180151583870152909250613415565b6000806040838503121561484657600080fd5b8235915060208301356001600160401b0381111561486357600080fd5b61486f85828601614462565b9150509250929050565b60006020828403121561488b57600080fd5b81356001600160401b038111156148a157600080fd5b613abf84828501614462565b600080604083850312156148c057600080fd5b82356148cb81614264565b915060208301356148db81614264565b809150509250929050565b600080600080608085870312156148fc57600080fd5b8435935060208501356001600160401b038082111561491a57600080fd5b61492688838901614462565b9450604087013591508082111561493c57600080fd5b61494888838901614462565b9350606087013591508082111561495e57600080fd5b5061474b87828801614462565b600181811c9082168061497f57607f821691505b60208210810361499f57634e487b7160e01b600052602260045260246000fd5b50919050565b634e487b7160e01b600052601160045260246000fd5b6000600182016149cd576149cd6149a5565b5060010190565b6000602082840312156149e657600080fd5b8151612a4881614264565b60006020808385031215614a0457600080fd5b82516001600160401b0380821115614a1b57600080fd5b818501915085601f830112614a2f57600080fd5b815181811115614a4157614a41614391565b8060051b9150614a528483016143d0565b8181529183018401918481019088841115614a6c57600080fd5b938501935b83851015614a8a57845182529385019390850190614a71565b98975050505050505050565b634e487b7160e01b600052603260045260246000fd5b601f821115611165576000816000526020600020601f850160051c81016020861015614ad55750805b601f850160051c820191505b8181101561357e57828155600101614ae1565b81516001600160401b03811115614b0d57614b0d614391565b614b2181614b1b845461496b565b84614aac565b602080601f831160018114614b565760008415614b3e5750858301515b600019600386901b1c1916600185901b17855561357e565b600085815260208120601f198616915b82811015614b8557888601518255948401946001909101908401614b66565b5085821015614ba35787850151600019600388901b60f8161c191681555b5050505050600190811b01905550565b6000614bc16144818461443b565b9050828152838383011115614bd557600080fd5b612a488360208301846141e8565b600082601f830112614bf457600080fd5b612a4883835160208501614bb3565b600060208284031215614c1557600080fd5b81516001600160401b03811115614c2b57600080fd5b613abf84828501614be3565b60008351614c498184602088016141e8565b835190830190614c5d8183602088016141e8565b7f3c672069643d226261636b7061636b547261697473223e0000000000000000009101908152601701949350505050565b60008551614ca0818460208a016141e8565b855190830190614cb4818360208a016141e8565b8551910190614cc78183602089016141e8565b8451910190614cda8183602088016141e8565b019695505050505050565b60008251614cf78184602087016141e8565b631e17b39f60e11b920191825250600401919050565b81810381811115610f0f57610f0f6149a5565b80820180821115610f0f57610f0f6149a5565b634e487b7160e01b600052601260045260246000fd5b600082614d5857614d58614d33565b500690565b6020808252602e908201527f4552433732313a2063616c6c6572206973206e6f7420746f6b656e206f776e6560408201526d1c881b9bdc88185c1c1c9bdd995960921b606082015260800190565b600080600060608486031215614dc057600080fd5b83516001600160401b0380821115614dd757600080fd5b614de387838801614be3565b94506020860151915080821115614df957600080fd5b818601915086601f830112614e0d57600080fd5b614e1c87835160208501614bb3565b93506040860151915080821115614e3257600080fd5b50614e3f86828701614be3565b9150509250925092565b60008351614e5b8184602088016141e8565b835190830190614e6f8183602088016141e8565b01949350505050565b600060208284031215614e8a57600080fd5b5051919050565b6d2261747472696275746573223a5b60901b81528251600090614ebb81600e8501602088016141e8565b600b60fa1b600e918401918201528351614edc81600f8401602088016141e8565b605d60f81b600f9290910191820152601001949350505050565b661e39ba3cb6329f60c91b81527f626f64792c207376677b206261636b67726f756e643a20230000000000000000600782015260008351614f3e81601f8501602088016141e8565b6f3b207d2e6267207b2066696c6c3a202360801b601f918401918201528351614f6e81602f8401602088016141e8565b623b207d60e81b602f9290910191820152671e17b9ba3cb6329f60c11b6032820152603a01949350505050565b87815260e060208201526000614fb460e083018961420c565b8281036040840152614fc6818961420c565b90508281036060840152614fda818861420c565b90508281036080840152614fee818761420c565b905082810360a0840152615002818661420c565b905082810360c084015283516040825261501f604083018261420c565b905060208501518282036020840152615038828261420c565b9c9b505050505050505050505050565b6000806040838503121561505b57600080fd5b82516001600160401b038082111561507257600080fd5b61507e86838701614be3565b9350602085015191508082111561509457600080fd5b5061486f85828601614be3565b87815260e0602082015260006150ba60e083018961420c565b82810360408401526150cc818961420c565b905082810360608401526150e0818861420c565b905082810360808401526150f4818761420c565b905082810360a0840152615108818661420c565b905082810360c084015261511c818561420c565b9a9950505050505050505050565b60008261513957615139614d33565b500490565b8082028115828204841417610f0f57610f0f6149a5565b60006020828403121561516757600080fd5b815160078110612a4857600080fd5b634e487b7160e01b600052602160045260246000fd5b60408152600061519f604083018561420c565b90508260208301529392505050565b6e3d913a3930b4ba2fba3cb832911d1160891b815282516000906151d981600f8501602088016141e8565b6a1116113b30b63ab2911d1160a91b600f91840191820152835161520481601a8401602088016141e8565b61227d60f01b601a9290910191820152601c01949350505050565b60208082526032908201527f4552433732313a207472616e7366657220746f206e6f6e20455243373231526560408201527131b2b4bb32b91034b6b83632b6b2b73a32b960711b606082015260800190565b6001600160a01b03858116825284166020820152604081018390526080606082018190526000906146079083018461420c565b6000602082840312156152b657600080fd5b8151612a4881614193565b634e487b7160e01b600052603160045260246000fdfe3c7376673e3c7465787420783d22382220793d22313522207374796c653d22666f6e743a206e6f726d616c203270782073616e732d73657269663b2066696c6c3a20626c61636b3b223e436f6d696e6720536f6f6e2e2e2e3c2f746578743e3c2f7376673e8aea9baa1ab7209ce94784ac5f5149343f8d985fd4278de25a7b390989f2cf853c672069643d22416c6c20547261697473223e3c672069643d226261636b7061636b2220636c6173733d22636c6f736564223e3c7061746820643d224d302030204c33302030204c3330203330204c30203330205a222066696c6c3d227267622831322c203130392c203135372922202f3e3c7376672069643d226261636b7061636b5549222076696577426f783d223020302031323020313230223e203c7374796c653e2e75697b77696474683a3170783b206865696768743a203170783b2066696c6c3a77686974657d3c2f7374796c653e203c672069643d22636c6f736542746e22207472616e73666f726d3d227472616e736c61746528322c3229223e203c7265637420783d22312220793d22312220636c6173733d227569223e3c2f726563743e203c7265637420783d22322220793d22322220636c6173733d227569223e3c2f726563743e203c7265637420783d22332220793d22332220636c6173733d227569223e3c2f726563743e203c7265637420783d22342220793d22342220636c6173733d227569223e3c2f726563743e203c7265637420783d22352220793d22352220636c6173733d227569223e3c2f726563743e203c7265637420783d22352220793d22312220636c6173733d227569223e3c2f726563743e203c7265637420783d22342220793d22322220636c6173733d227569223e3c2f726563743e203c212d2d203c7265637420783d22332220793d2233222077696474683d223122206865696768743d2231222066696c6c3d227768697465223e3c2f726563743e202d2d3e203c7265637420783d22322220793d22342220636c6173733d227569223e3c2f726563743e203c7265637420783d22312220793d22352220636c6173733d227569223e3c2f726563743e203c2f673e203c672069643d226c65667442746e2220636c6173733d22627574746f6e22207472616e73666f726d3d227472616e736c6174652834352c31313029223e203c7061746820643d224d302030204c362030204c362036204c302036205a222066696c6c3d227472616e73706172656e7422202f3e203c7265637420783d22322220793d22302220636c6173733d227569223e3c2f726563743e203c7265637420783d22312220793d22312220636c6173733d227569223e3c2f726563743e203c7265637420783d22302220793d22322220636c6173733d227569223e3c2f726563743e203c7265637420783d22312220793d22332220636c6173733d227569223e3c2f726563743e203c7265637420783d22322220793d22342220636c6173733d227569223e3c2f726563743e203c2f673e203c672069643d22726967687442746e2220636c6173733d22627574746f6e22207472616e73666f726d3d227472616e736c6174652836352c31313029223e203c7061746820643d224d302030204c362030204c362036204c302036205a222066696c6c3d227472616e73706172656e7422202f3e203c7265637420783d22332220793d22302220636c6173733d227569223e3c2f726563743e203c7265637420783d22342220793d22312220636c6173733d227569223e3c2f726563743e203c7265637420783d22352220793d22322220636c6173733d227569223e3c2f726563743e203c7265637420783d22342220793d22332220636c6173733d227569223e3c2f726563743e203c7265637420783d22332220793d22342220636c6173733d227569223e3c2f726563743e203c2f673e203c2f7376673e20a26469706673582212206cafac5ed5531dc3c213bb2847b625a341af20873a519179523d22f6010a01cb64736f6c63430008160033","linkReferences":{}},"methodIdentifiers":{"MAX_TRAITS_TO_OUTPUT()":"20e0b93c","_debugPostConstructorMint()":"9c7be2f1","addNewBody(uint256,string,bytes,bytes)":"f2361e23","approve(address,uint256)":"095ea7b3","balanceOf(address)":"70a08231","bodyIndexToMetadata(uint256)":"0c83f9d7","buyTrait(uint256)":"6273ca2c","cancelOwnershipHandover()":"54d1f13d","completeOwnershipHandover(address)":"f04e283e","equipAccessory(uint256,uint256)":"0447a45e","equipAll(uint256,uint256,uint256,uint256,uint256,uint256,uint256,uint256)":"4a4333a3","equipBottom(uint256,uint256)":"45a10d0f","equipFace(uint256,uint256)":"0f162320","equipHair(uint256,uint256)":"94cbd9c4","equipHat(uint256,uint256)":"e5a68261","equipShoes(uint256,uint256)":"60b77b23","equipTop(uint256,uint256)":"f18dc22d","firstSeasonRenderMinter()":"13ea0ae3","getApproved(uint256)":"081812fc","getBackpackSVGs(uint256)":"14fe8ff4","getBodyImage(bytes)":"e37db3c2","getBodyImageSvg(uint256)":"916c546b","getBodySVGZmapsAndMetadata((uint256,uint256,uint256,uint256,uint256,uint256,uint256,uint32,uint16,uint256,bool,uint256,string,bool))":"45d2d7bd","getBodySvgAndMetadata((uint256,uint256,uint256,uint256,uint256,uint256,uint256,uint32,uint16,uint256,bool,uint256,string,bool))":"661ee23a","getBodyZMap(uint256)":"306c7334","getEpoch()":"757991a8","getEpochData(uint256)":"859e7d32","getOwnerAndTBAAddressForTokenId(uint256)":"cc9a5d37","getPeter(uint256)":"be928ff6","getPeterZMap(uint256)":"2bd1ca45","getTraitTokens(address)":"998cfb6e","isApprovedForAll(address,address)":"e985e9c5","mainRenderer()":"66b89b5a","mint()":"1249c58b","name()":"06fdde03","owner()":"8da5cb5b","ownerOf(uint256)":"6352211e","ownershipHandoverExpiresAt(address)":"fee81cf4","price()":"a035b1fe","renderAsDataUri(uint256)":"a1d62680","renderAsDataUriSVG(uint256)":"b28fbe40","renderAsDataUriZ(uint256)":"7557f2dc","renounceOwnership()":"715018a6","requestOwnershipHandover()":"25692962","resolveEpochIfNecessary()":"239ffa68","safeTransferFrom(address,address,uint256)":"42842e0e","safeTransferFrom(address,address,uint256,bytes)":"b88d4fde","setApprovalForAll(address,bool)":"a22cb465","setBackgroundColor(uint256,string)":"d68c4f32","setBodyIndex(uint256,uint256)":"457e7e61","setFirstSeasonRenderMinter(address)":"58a97640","setMainRenderer(address)":"4ddb3961","setMaxTraitsToOutput(uint256)":"33d3d9bf","setPrice(uint256)":"91b7f5ed","setRenderZ(uint256,bool)":"b53d1fd7","setTraitsContract(address)":"5eabd84a","setZRenderer(address)":"172b054d","supportsInterface(bytes4)":"01ffc9a7","symbol()":"95d89b41","tokenByIndex(uint256)":"4f6ccce7","tokenIdToTBAAccountAddress(uint256)":"9c05d68d","tokenOfOwnerByIndex(address,uint256)":"2f745c59","tokenURI(uint256)":"c87b56dd","totalSupply()":"18160ddd","traitsContract()":"c093afdb","transferFrom(address,address,uint256)":"23b872dd","transferOwnership(address)":"f2fde38b","unequipAccessory(uint256)":"293ed3f7","unequipAll(uint256)":"3044825b","unequipBottom(uint256)":"9c762015","unequipFace(uint256)":"d5b55c8b","unequipHair(uint256)":"105338e0","unequipHat(uint256)":"b5282793","unequipShoes(uint256)":"58180d35","unequipTop(uint256)":"347bd8f4","walletOfOwner(address)":"438b6300","zRenderer()":"a15c561b"},"id":39}