{"abi":[{"type":"constructor","inputs":[{"name":"localDeploy_","type":"bool","internalType":"bool"}],"stateMutability":"nonpayable"},{"type":"function","name":"MAX_TRAITS_TO_OUTPUT","inputs":[],"outputs":[{"name":"","type":"uint256","internalType":"uint256"}],"stateMutability":"view"},{"type":"function","name":"_debugPostConstructorMint","inputs":[],"outputs":[],"stateMutability":"nonpayable"},{"type":"function","name":"addNewBody","inputs":[{"name":"_bodyIndex","type":"uint256","internalType":"uint256"},{"name":"_bodyName","type":"string","internalType":"string"},{"name":"_colorMap","type":"bytes","internalType":"bytes"},{"name":"_zMap","type":"bytes","internalType":"bytes"}],"outputs":[],"stateMutability":"nonpayable"},{"type":"function","name":"approve","inputs":[{"name":"to","type":"address","internalType":"address"},{"name":"tokenId","type":"uint256","internalType":"uint256"}],"outputs":[],"stateMutability":"nonpayable"},{"type":"function","name":"balanceOf","inputs":[{"name":"owner","type":"address","internalType":"address"}],"outputs":[{"name":"","type":"uint256","internalType":"uint256"}],"stateMutability":"view"},{"type":"function","name":"bodyIndexToMetadata","inputs":[{"name":"","type":"uint256","internalType":"uint256"}],"outputs":[{"name":"bodyIndex","type":"uint256","internalType":"uint256"},{"name":"bodyName","type":"string","internalType":"string"},{"name":"colorMap","type":"bytes","internalType":"bytes"},{"name":"zMap","type":"bytes","internalType":"bytes"}],"stateMutability":"view"},{"type":"function","name":"buyTrait","inputs":[{"name":"_tokenId","type":"uint256","internalType":"uint256"}],"outputs":[],"stateMutability":"nonpayable"},{"type":"function","name":"cancelOwnershipHandover","inputs":[],"outputs":[],"stateMutability":"payable"},{"type":"function","name":"chonkMakeover","inputs":[{"name":"_peterTokenId","type":"uint256","internalType":"uint256"},{"name":"_headTokenId","type":"uint256","internalType":"uint256"},{"name":"_hairTokenId","type":"uint256","internalType":"uint256"},{"name":"_faceTokenId","type":"uint256","internalType":"uint256"},{"name":"_accessoryTokenId","type":"uint256","internalType":"uint256"},{"name":"_topTokenId","type":"uint256","internalType":"uint256"},{"name":"_bottomTokenId","type":"uint256","internalType":"uint256"},{"name":"_shoesTokenId","type":"uint256","internalType":"uint256"},{"name":"_bodyIndex","type":"uint256","internalType":"uint256"},{"name":"_backgroundColor","type":"string","internalType":"string"}],"outputs":[],"stateMutability":"nonpayable"},{"type":"function","name":"completeOwnershipHandover","inputs":[{"name":"pendingOwner","type":"address","internalType":"address"}],"outputs":[],"stateMutability":"payable"},{"type":"function","name":"equipAccessory","inputs":[{"name":"_peterTokenId","type":"uint256","internalType":"uint256"},{"name":"_traitTokenId","type":"uint256","internalType":"uint256"}],"outputs":[],"stateMutability":"nonpayable"},{"type":"function","name":"equipAll","inputs":[{"name":"_peterTokenId","type":"uint256","internalType":"uint256"},{"name":"_headTokenId","type":"uint256","internalType":"uint256"},{"name":"_hairTokenId","type":"uint256","internalType":"uint256"},{"name":"_faceTokenId","type":"uint256","internalType":"uint256"},{"name":"_accessoryTokenId","type":"uint256","internalType":"uint256"},{"name":"_topTokenId","type":"uint256","internalType":"uint256"},{"name":"_bottomTokenId","type":"uint256","internalType":"uint256"},{"name":"_shoesTokenId","type":"uint256","internalType":"uint256"}],"outputs":[],"stateMutability":"nonpayable"},{"type":"function","name":"equipBottom","inputs":[{"name":"_peterTokenId","type":"uint256","internalType":"uint256"},{"name":"_traitTokenId","type":"uint256","internalType":"uint256"}],"outputs":[],"stateMutability":"nonpayable"},{"type":"function","name":"equipFace","inputs":[{"name":"_peterTokenId","type":"uint256","internalType":"uint256"},{"name":"_traitTokenId","type":"uint256","internalType":"uint256"}],"outputs":[],"stateMutability":"nonpayable"},{"type":"function","name":"equipHair","inputs":[{"name":"_peterTokenId","type":"uint256","internalType":"uint256"},{"name":"_traitTokenId","type":"uint256","internalType":"uint256"}],"outputs":[],"stateMutability":"nonpayable"},{"type":"function","name":"equipHead","inputs":[{"name":"_peterTokenId","type":"uint256","internalType":"uint256"},{"name":"_traitTokenId","type":"uint256","internalType":"uint256"}],"outputs":[],"stateMutability":"nonpayable"},{"type":"function","name":"equipShoes","inputs":[{"name":"_peterTokenId","type":"uint256","internalType":"uint256"},{"name":"_traitTokenId","type":"uint256","internalType":"uint256"}],"outputs":[],"stateMutability":"nonpayable"},{"type":"function","name":"equipTop","inputs":[{"name":"_peterTokenId","type":"uint256","internalType":"uint256"},{"name":"_traitTokenId","type":"uint256","internalType":"uint256"}],"outputs":[],"stateMutability":"nonpayable"},{"type":"function","name":"firstSeasonRenderMinter","inputs":[],"outputs":[{"name":"","type":"address","internalType":"contract FirstSeasonRenderMinter"}],"stateMutability":"view"},{"type":"function","name":"getApproved","inputs":[{"name":"tokenId","type":"uint256","internalType":"uint256"}],"outputs":[{"name":"","type":"address","internalType":"address"}],"stateMutability":"view"},{"type":"function","name":"getBackpackSVGs","inputs":[{"name":"_tokenId","type":"uint256","internalType":"uint256"}],"outputs":[{"name":"backpackSVGs","type":"string","internalType":"string"}],"stateMutability":"view"},{"type":"function","name":"getBodyImage","inputs":[{"name":"colorMap","type":"bytes","internalType":"bytes"}],"outputs":[{"name":"","type":"bytes","internalType":"bytes"}],"stateMutability":"pure"},{"type":"function","name":"getBodyImageSvg","inputs":[{"name":"_index","type":"uint256","internalType":"uint256"}],"outputs":[{"name":"svg","type":"string","internalType":"string"}],"stateMutability":"view"},{"type":"function","name":"getBodySVGZmapsAndMetadata","inputs":[{"name":"storedPeter","type":"tuple","internalType":"struct IPeterStorage.StoredPeter","components":[{"name":"headId","type":"uint256","internalType":"uint256"},{"name":"hairId","type":"uint256","internalType":"uint256"},{"name":"faceId","type":"uint256","internalType":"uint256"},{"name":"accessoryId","type":"uint256","internalType":"uint256"},{"name":"topId","type":"uint256","internalType":"uint256"},{"name":"bottomId","type":"uint256","internalType":"uint256"},{"name":"shoesId","type":"uint256","internalType":"uint256"},{"name":"epoch","type":"uint32","internalType":"uint32"},{"name":"tokenId","type":"uint256","internalType":"uint256"},{"name":"bodyIndex","type":"uint256","internalType":"uint256"},{"name":"backgroundColor","type":"string","internalType":"string"},{"name":"renderZ","type":"bool","internalType":"bool"}]}],"outputs":[{"name":"","type":"string","internalType":"string"},{"name":"","type":"bytes","internalType":"bytes"},{"name":"","type":"string","internalType":"string"}],"stateMutability":"view"},{"type":"function","name":"getBodySvgAndMetadata","inputs":[{"name":"storedPeter","type":"tuple","internalType":"struct IPeterStorage.StoredPeter","components":[{"name":"headId","type":"uint256","internalType":"uint256"},{"name":"hairId","type":"uint256","internalType":"uint256"},{"name":"faceId","type":"uint256","internalType":"uint256"},{"name":"accessoryId","type":"uint256","internalType":"uint256"},{"name":"topId","type":"uint256","internalType":"uint256"},{"name":"bottomId","type":"uint256","internalType":"uint256"},{"name":"shoesId","type":"uint256","internalType":"uint256"},{"name":"epoch","type":"uint32","internalType":"uint32"},{"name":"tokenId","type":"uint256","internalType":"uint256"},{"name":"bodyIndex","type":"uint256","internalType":"uint256"},{"name":"backgroundColor","type":"string","internalType":"string"},{"name":"renderZ","type":"bool","internalType":"bool"}]}],"outputs":[{"name":"","type":"string","internalType":"string"},{"name":"","type":"string","internalType":"string"}],"stateMutability":"view"},{"type":"function","name":"getBodyZMap","inputs":[{"name":"_tokenId","type":"uint256","internalType":"uint256"}],"outputs":[{"name":"","type":"string","internalType":"string"}],"stateMutability":"view"},{"type":"function","name":"getOwnerAndTBAAddressForTokenId","inputs":[{"name":"_tokenId","type":"uint256","internalType":"uint256"}],"outputs":[{"name":"owner","type":"address","internalType":"address"},{"name":"tbaAddress","type":"address","internalType":"address"}],"stateMutability":"view"},{"type":"function","name":"getPeter","inputs":[{"name":"_tokenId","type":"uint256","internalType":"uint256"}],"outputs":[{"name":"","type":"tuple","internalType":"struct IPeterStorage.StoredPeter","components":[{"name":"headId","type":"uint256","internalType":"uint256"},{"name":"hairId","type":"uint256","internalType":"uint256"},{"name":"faceId","type":"uint256","internalType":"uint256"},{"name":"accessoryId","type":"uint256","internalType":"uint256"},{"name":"topId","type":"uint256","internalType":"uint256"},{"name":"bottomId","type":"uint256","internalType":"uint256"},{"name":"shoesId","type":"uint256","internalType":"uint256"},{"name":"epoch","type":"uint32","internalType":"uint32"},{"name":"tokenId","type":"uint256","internalType":"uint256"},{"name":"bodyIndex","type":"uint256","internalType":"uint256"},{"name":"backgroundColor","type":"string","internalType":"string"},{"name":"renderZ","type":"bool","internalType":"bool"}]}],"stateMutability":"view"},{"type":"function","name":"getPeterZMap","inputs":[{"name":"_tokenId","type":"uint256","internalType":"uint256"}],"outputs":[{"name":"","type":"string","internalType":"string"}],"stateMutability":"view"},{"type":"function","name":"getTBAAddressForTokenId","inputs":[{"name":"_tokenId","type":"uint256","internalType":"uint256"}],"outputs":[{"name":"","type":"address","internalType":"address"}],"stateMutability":"view"},{"type":"function","name":"getTokenRenderZ","inputs":[{"name":"_peterTokenId","type":"uint256","internalType":"uint256"}],"outputs":[{"name":"","type":"bool","internalType":"bool"}],"stateMutability":"view"},{"type":"function","name":"getTraitTokens","inputs":[{"name":"_tbaAddress","type":"address","internalType":"address"}],"outputs":[{"name":"","type":"uint256[]","internalType":"uint256[]"}],"stateMutability":"view"},{"type":"function","name":"getTraitsForTokenId","inputs":[{"name":"_tokenId","type":"uint256","internalType":"uint256"}],"outputs":[{"name":"traitTokens","type":"uint256[]","internalType":"uint256[]"}],"stateMutability":"view"},{"type":"function","name":"isApprovedForAll","inputs":[{"name":"owner","type":"address","internalType":"address"},{"name":"operator","type":"address","internalType":"address"}],"outputs":[{"name":"","type":"bool","internalType":"bool"}],"stateMutability":"view"},{"type":"function","name":"mainRenderer","inputs":[],"outputs":[{"name":"","type":"address","internalType":"contract MainRenderer"}],"stateMutability":"view"},{"type":"function","name":"mint","inputs":[],"outputs":[],"stateMutability":"payable"},{"type":"function","name":"mintByLevel","inputs":[{"name":"amount","type":"uint8","internalType":"uint8"},{"name":"nonce","type":"string","internalType":"string"},{"name":"signature","type":"bytes","internalType":"bytes"}],"outputs":[],"stateMutability":"payable"},{"type":"function","name":"name","inputs":[],"outputs":[{"name":"","type":"string","internalType":"string"}],"stateMutability":"view"},{"type":"function","name":"owner","inputs":[],"outputs":[{"name":"result","type":"address","internalType":"address"}],"stateMutability":"view"},{"type":"function","name":"ownerOf","inputs":[{"name":"tokenId","type":"uint256","internalType":"uint256"}],"outputs":[{"name":"","type":"address","internalType":"address"}],"stateMutability":"view"},{"type":"function","name":"ownershipHandoverExpiresAt","inputs":[{"name":"pendingOwner","type":"address","internalType":"address"}],"outputs":[{"name":"result","type":"uint256","internalType":"uint256"}],"stateMutability":"view"},{"type":"function","name":"price","inputs":[],"outputs":[{"name":"","type":"uint256","internalType":"uint256"}],"stateMutability":"view"},{"type":"function","name":"renderAsDataUri","inputs":[{"name":"_tokenId","type":"uint256","internalType":"uint256"}],"outputs":[{"name":"","type":"string","internalType":"string"}],"stateMutability":"view"},{"type":"function","name":"renderAsDataUriSVG","inputs":[{"name":"_tokenId","type":"uint256","internalType":"uint256"}],"outputs":[{"name":"","type":"string","internalType":"string"}],"stateMutability":"view"},{"type":"function","name":"renderAsDataUriZ","inputs":[{"name":"_tokenId","type":"uint256","internalType":"uint256"}],"outputs":[{"name":"","type":"string","internalType":"string"}],"stateMutability":"view"},{"type":"function","name":"renounceOwnership","inputs":[],"outputs":[],"stateMutability":"payable"},{"type":"function","name":"requestOwnershipHandover","inputs":[],"outputs":[],"stateMutability":"payable"},{"type":"function","name":"safeTransferFrom","inputs":[{"name":"from","type":"address","internalType":"address"},{"name":"to","type":"address","internalType":"address"},{"name":"tokenId","type":"uint256","internalType":"uint256"}],"outputs":[],"stateMutability":"nonpayable"},{"type":"function","name":"safeTransferFrom","inputs":[{"name":"from","type":"address","internalType":"address"},{"name":"to","type":"address","internalType":"address"},{"name":"tokenId","type":"uint256","internalType":"uint256"},{"name":"data","type":"bytes","internalType":"bytes"}],"outputs":[],"stateMutability":"nonpayable"},{"type":"function","name":"setApprovalForAll","inputs":[{"name":"operator","type":"address","internalType":"address"},{"name":"approved","type":"bool","internalType":"bool"}],"outputs":[],"stateMutability":"nonpayable"},{"type":"function","name":"setBackgroundColor","inputs":[{"name":"_peterTokenId","type":"uint256","internalType":"uint256"},{"name":"_color","type":"string","internalType":"string"}],"outputs":[],"stateMutability":"nonpayable"},{"type":"function","name":"setBodyIndex","inputs":[{"name":"_peterTokenId","type":"uint256","internalType":"uint256"},{"name":"_bodyIndex","type":"uint256","internalType":"uint256"}],"outputs":[],"stateMutability":"nonpayable"},{"type":"function","name":"setFirstSeasonRenderMinter","inputs":[{"name":"_dataContract","type":"address","internalType":"address"}],"outputs":[],"stateMutability":"nonpayable"},{"type":"function","name":"setMainRenderer","inputs":[{"name":"_mainRenderer","type":"address","internalType":"address"}],"outputs":[],"stateMutability":"nonpayable"},{"type":"function","name":"setMaxTraitsToOutput","inputs":[{"name":"_maxTraitsToOutput","type":"uint256","internalType":"uint256"}],"outputs":[],"stateMutability":"nonpayable"},{"type":"function","name":"setPrice","inputs":[{"name":"_priceInWei","type":"uint256","internalType":"uint256"}],"outputs":[],"stateMutability":"nonpayable"},{"type":"function","name":"setSystemAddress","inputs":[{"name":"_systemAddress","type":"address","internalType":"address"}],"outputs":[],"stateMutability":"nonpayable"},{"type":"function","name":"setTokenRenderZ","inputs":[{"name":"_peterTokenId","type":"uint256","internalType":"uint256"},{"name":"_renderZ","type":"bool","internalType":"bool"}],"outputs":[],"stateMutability":"nonpayable"},{"type":"function","name":"setTraitsContract","inputs":[{"name":"_address","type":"address","internalType":"contract PeterTraits"}],"outputs":[],"stateMutability":"nonpayable"},{"type":"function","name":"setZRenderer","inputs":[{"name":"_zRenderer","type":"address","internalType":"address"}],"outputs":[],"stateMutability":"nonpayable"},{"type":"function","name":"supportsInterface","inputs":[{"name":"interfaceId","type":"bytes4","internalType":"bytes4"}],"outputs":[{"name":"","type":"bool","internalType":"bool"}],"stateMutability":"view"},{"type":"function","name":"symbol","inputs":[],"outputs":[{"name":"","type":"string","internalType":"string"}],"stateMutability":"view"},{"type":"function","name":"tokenByIndex","inputs":[{"name":"index","type":"uint256","internalType":"uint256"}],"outputs":[{"name":"","type":"uint256","internalType":"uint256"}],"stateMutability":"view"},{"type":"function","name":"tokenIdToTBAAccountAddress","inputs":[{"name":"","type":"uint256","internalType":"uint256"}],"outputs":[{"name":"","type":"uint160","internalType":"uint160"}],"stateMutability":"view"},{"type":"function","name":"tokenOfOwnerByIndex","inputs":[{"name":"owner","type":"address","internalType":"address"},{"name":"index","type":"uint256","internalType":"uint256"}],"outputs":[{"name":"","type":"uint256","internalType":"uint256"}],"stateMutability":"view"},{"type":"function","name":"tokenURI","inputs":[{"name":"_tokenId","type":"uint256","internalType":"uint256"}],"outputs":[{"name":"","type":"string","internalType":"string"}],"stateMutability":"view"},{"type":"function","name":"totalSupply","inputs":[],"outputs":[{"name":"","type":"uint256","internalType":"uint256"}],"stateMutability":"view"},{"type":"function","name":"traitsContract","inputs":[],"outputs":[{"name":"","type":"address","internalType":"contract PeterTraits"}],"stateMutability":"view"},{"type":"function","name":"transferFrom","inputs":[{"name":"from","type":"address","internalType":"address"},{"name":"to","type":"address","internalType":"address"},{"name":"tokenId","type":"uint256","internalType":"uint256"}],"outputs":[],"stateMutability":"nonpayable"},{"type":"function","name":"transferOwnership","inputs":[{"name":"newOwner","type":"address","internalType":"address"}],"outputs":[],"stateMutability":"payable"},{"type":"function","name":"unequipAccessory","inputs":[{"name":"_peterTokenId","type":"uint256","internalType":"uint256"}],"outputs":[],"stateMutability":"nonpayable"},{"type":"function","name":"unequipAll","inputs":[{"name":"_peterTokenId","type":"uint256","internalType":"uint256"}],"outputs":[],"stateMutability":"nonpayable"},{"type":"function","name":"unequipBottom","inputs":[{"name":"_peterTokenId","type":"uint256","internalType":"uint256"}],"outputs":[],"stateMutability":"nonpayable"},{"type":"function","name":"unequipFace","inputs":[{"name":"_peterTokenId","type":"uint256","internalType":"uint256"}],"outputs":[],"stateMutability":"nonpayable"},{"type":"function","name":"unequipHair","inputs":[{"name":"_peterTokenId","type":"uint256","internalType":"uint256"}],"outputs":[],"stateMutability":"nonpayable"},{"type":"function","name":"unequipHead","inputs":[{"name":"_peterTokenId","type":"uint256","internalType":"uint256"}],"outputs":[],"stateMutability":"nonpayable"},{"type":"function","name":"unequipShoes","inputs":[{"name":"_peterTokenId","type":"uint256","internalType":"uint256"}],"outputs":[],"stateMutability":"nonpayable"},{"type":"function","name":"unequipTop","inputs":[{"name":"_peterTokenId","type":"uint256","internalType":"uint256"}],"outputs":[],"stateMutability":"nonpayable"},{"type":"function","name":"walletOfOwner","inputs":[{"name":"_owner","type":"address","internalType":"address"}],"outputs":[{"name":"","type":"uint256[]","internalType":"uint256[]"}],"stateMutability":"view"},{"type":"function","name":"zRenderer","inputs":[],"outputs":[{"name":"","type":"address","internalType":"contract ZRenderer"}],"stateMutability":"view"},{"type":"event","name":"Approval","inputs":[{"name":"owner","type":"address","indexed":true,"internalType":"address"},{"name":"approved","type":"address","indexed":true,"internalType":"address"},{"name":"tokenId","type":"uint256","indexed":true,"internalType":"uint256"}],"anonymous":false},{"type":"event","name":"ApprovalForAll","inputs":[{"name":"owner","type":"address","indexed":true,"internalType":"address"},{"name":"operator","type":"address","indexed":true,"internalType":"address"},{"name":"approved","type":"bool","indexed":false,"internalType":"bool"}],"anonymous":false},{"type":"event","name":"BatchMetadataUpdate","inputs":[{"name":"_fromTokenId","type":"uint256","indexed":false,"internalType":"uint256"},{"name":"_toTokenId","type":"uint256","indexed":false,"internalType":"uint256"}],"anonymous":false},{"type":"event","name":"Equip","inputs":[{"name":"owner","type":"address","indexed":true,"internalType":"address"},{"name":"tokenId","type":"uint256","indexed":true,"internalType":"uint256"},{"name":"traitTokenId","type":"uint256","indexed":true,"internalType":"uint256"},{"name":"traitCategory","type":"string","indexed":false,"internalType":"string"}],"anonymous":false},{"type":"event","name":"EquipAll","inputs":[{"name":"owner","type":"address","indexed":true,"internalType":"address"},{"name":"tokenId","type":"uint256","indexed":true,"internalType":"uint256"}],"anonymous":false},{"type":"event","name":"MetadataUpdate","inputs":[{"name":"_tokenId","type":"uint256","indexed":false,"internalType":"uint256"}],"anonymous":false},{"type":"event","name":"Mint","inputs":[{"name":"owner","type":"address","indexed":true,"internalType":"address"},{"name":"tokenId","type":"uint256","indexed":true,"internalType":"uint256"}],"anonymous":false},{"type":"event","name":"OwnershipHandoverCanceled","inputs":[{"name":"pendingOwner","type":"address","indexed":true,"internalType":"address"}],"anonymous":false},{"type":"event","name":"OwnershipHandoverRequested","inputs":[{"name":"pendingOwner","type":"address","indexed":true,"internalType":"address"}],"anonymous":false},{"type":"event","name":"OwnershipTransferred","inputs":[{"name":"oldOwner","type":"address","indexed":true,"internalType":"address"},{"name":"newOwner","type":"address","indexed":true,"internalType":"address"}],"anonymous":false},{"type":"event","name":"Transfer","inputs":[{"name":"from","type":"address","indexed":true,"internalType":"address"},{"name":"to","type":"address","indexed":true,"internalType":"address"},{"name":"tokenId","type":"uint256","indexed":true,"internalType":"uint256"}],"anonymous":false},{"type":"event","name":"Unequip","inputs":[{"name":"owner","type":"address","indexed":true,"internalType":"address"},{"name":"tokenId","type":"uint256","indexed":true,"internalType":"uint256"},{"name":"traitCategory","type":"string","indexed":true,"internalType":"string"}],"anonymous":false},{"type":"event","name":"UnequipAll","inputs":[{"name":"owner","type":"address","indexed":true,"internalType":"address"},{"name":"tokenId","type":"uint256","indexed":true,"internalType":"uint256"}],"anonymous":false},{"type":"error","name":"AlreadyInitialized","inputs":[]},{"type":"error","name":"BodyAlreadyExists","inputs":[]},{"type":"error","name":"FirstSeasonRenderMinterNotSet","inputs":[]},{"type":"error","name":"IncorrectPeterOwner","inputs":[]},{"type":"error","name":"IncorrectTBAOwner","inputs":[]},{"type":"error","name":"IncorrectTraitType","inputs":[]},{"type":"error","name":"InvalidLevelAmount","inputs":[]},{"type":"error","name":"InvalidSignature","inputs":[]},{"type":"error","name":"NewOwnerIsZeroAddress","inputs":[]},{"type":"error","name":"NoHandoverRequest","inputs":[]},{"type":"error","name":"NonceAlreadyUsed","inputs":[]},{"type":"error","name":"PeterDoesntExist","inputs":[]},{"type":"error","name":"Unauthorized","inputs":[]}],"bytecode":{"object":"0x6080604052600060105560456012553480156200001b57600080fd5b5060405162005f4d38038062005f4d8339810160408190526200003e9162000106565b6040518060400160405280600a81526020016914195d195c8815195cdd60b21b815250604051806040016040528060058152602001642822aa22a960d91b8152508160009081620000909190620001d8565b5060016200009f8282620001d8565b505050620000b333620000ca60201b60201c565b600a805460ff1916911515919091179055620002a4565b6001600160a01b0316638b78c6d8198190558060007f8be0079c531659141344cd1fd0a4f28419497f9722a3daafe3b4186f6b6457e08180a350565b6000602082840312156200011957600080fd5b815180151581146200012a57600080fd5b9392505050565b634e487b7160e01b600052604160045260246000fd5b600181811c908216806200015c57607f821691505b6020821081036200017d57634e487b7160e01b600052602260045260246000fd5b50919050565b601f821115620001d3576000816000526020600020601f850160051c81016020861015620001ae5750805b601f850160051c820191505b81811015620001cf57828155600101620001ba565b5050505b505050565b81516001600160401b03811115620001f457620001f462000131565b6200020c8162000205845462000147565b8462000183565b602080601f8311600181146200024457600084156200022b5750858301515b600019600386901b1c1916600185901b178555620001cf565b600085815260208120601f198616915b82811015620002755788860151825594840194600190910190840162000254565b5085821015620002945787850151600019600388901b60f8161c191681555b5050505050600190811b01905550565b615c9980620002b46000396000f3fe6080604052600436106104735760003560e01c80636352211e1161024a578063a1d6268011610139578063cef80d4a116100b6578063f04e283e1161007a578063f04e283e14610e5a578063f18dc22d14610e6d578063f2361e2314610e8d578063f2fde38b14610ead578063fee81cf414610ec057600080fd5b8063cef80d4a14610d9e578063d5b55c8b14610db1578063d68c4f3214610dd1578063e37db3c214610df1578063e985e9c514610e1157600080fd5b8063be928ff6116100fd578063be928ff614610cc2578063c093afdb14610cef578063c87b56dd14610d0f578063cb0b831a14610d2f578063cc9a5d3714610d5e57600080fd5b8063a1d6268014610c14578063a22cb46514610c34578063a9f5fa8c14610c54578063b28fbe4014610c82578063b88d4fde14610ca257600080fd5b8063916c546b116101c75780639c05d68d1161018b5780639c05d68d14610b735780639c76201514610ba95780639c7be2f114610bc9578063a035b1fe14610bde578063a15c561b14610bf457600080fd5b8063916c546b14610ade57806391b7f5ed14610afe57806394cbd9c414610b1e57806395d89b4114610b3e578063998cfb6e14610b5357600080fd5b80637afe8d341161020e5780637afe8d3414610a1b5780638200ea5114610a3b578063850ad51a14610a6f5780638da5cb5b14610a8f5780638e29d3e914610aa857600080fd5b80636352211e1461099357806366b89b5a146109b357806370a08231146109d3578063715018a6146109f35780637557f2dc146109fb57600080fd5b8063293ed3f71161036657806345a10d0f116102e357806358180d35116102a757806358180d35146108f357806358a97640146109135780635eabd84a1461093357806360b77b23146109535780636273ca2c1461097357600080fd5b806345a10d0f1461086b5780634a4333a31461088b5780634ddb3961146108ab5780634f6ccce7146108cb57806354d1f13d146108eb57600080fd5b806333d3d9bf1161032a57806333d3d9bf146107be578063347bd8f4146107de57806342842e0e146107fe578063438b63001461081e578063457e7e611461084b57600080fd5b8063293ed3f71461071e5780632bd1ca451461073e5780632f745c591461075e5780633044825b1461077e578063306c73341461079e57600080fd5b8063105338e0116103f457806318160ddd116103b857806318160ddd146106a15780631e162a33146106c057806320e0b93c146106e057806323b872dd146106f6578063256929621461071657600080fd5b8063105338e0146106195780631249c58b1461063957806313ea0ae31461064157806314fe8ff414610661578063172b054d1461068157600080fd5b806307f4e0451161043b57806307f4e04514610531578063081812fc14610571578063095ea7b3146105a95780630c83f9d7146105c95780630f162320146105f957600080fd5b806301ffc9a714610478578063031db747146104ad5780630447a45e146104cf57806306210197146104ef57806306fdde031461050f575b600080fd5b34801561048457600080fd5b506104986104933660046145ed565b610ef3565b60405190151581526020015b60405180910390f35b3480156104b957600080fd5b506104cd6104c83660046146f6565b610f04565b005b3480156104db57600080fd5b506104cd6104ea36600461478b565b610f34565b3480156104fb57600080fd5b506104cd61050a3660046147c2565b610fb6565b34801561051b57600080fd5b50610524610fe0565b6040516104a4919061482f565b34801561053d57600080fd5b506104cd61054c366004614857565b6000918252600b60208190526040909220909101805460ff1916911515919091179055565b34801561057d57600080fd5b5061059161058c366004614883565b611072565b6040516001600160a01b0390911681526020016104a4565b3480156105b557600080fd5b506104cd6105c436600461489c565b611099565b3480156105d557600080fd5b506105e96105e4366004614883565b6111b3565b6040516104a494939291906148c8565b34801561060557600080fd5b506104cd61061436600461478b565b611374565b34801561062557600080fd5b506104cd610634366004614883565b6113e5565b6104cd61145d565b34801561064d57600080fd5b50601454610591906001600160a01b031681565b34801561066d57600080fd5b5061052461067c366004614883565b611469565b34801561068d57600080fd5b506104cd61069c3660046147c2565b6116b0565b3480156106ad57600080fd5b506008545b6040519081526020016104a4565b3480156106cc57600080fd5b506104cd6106db36600461478b565b6116da565b3480156106ec57600080fd5b506106b260125481565b34801561070257600080fd5b506104cd610711366004614912565b611748565b6104cd611779565b34801561072a57600080fd5b506104cd610739366004614883565b6117c8565b34801561074a57600080fd5b50610524610759366004614883565b6117ff565b34801561076a57600080fd5b506106b261077936600461489c565b6118c3565b34801561078a57600080fd5b506104cd610799366004614883565b611959565b3480156107aa57600080fd5b506105246107b9366004614883565b6119e1565b3480156107ca57600080fd5b506104cd6107d9366004614883565b611a04565b3480156107ea57600080fd5b506104cd6107f9366004614883565b611a11565b34801561080a57600080fd5b506104cd610819366004614912565b611a42565b34801561082a57600080fd5b5061083e6108393660046147c2565b611a5d565b6040516104a49190614953565b34801561085757600080fd5b506104cd61086636600461478b565b611af4565b34801561087757600080fd5b506104cd61088636600461478b565b611b4e565b34801561089757600080fd5b506104cd6108a6366004614997565b611bc1565b3480156108b757600080fd5b506104cd6108c63660046147c2565b611c7a565b3480156108d757600080fd5b506106b26108e6366004614883565b611ca4565b6104cd611d37565b3480156108ff57600080fd5b506104cd61090e366004614883565b611d73565b34801561091f57600080fd5b506104cd61092e3660046147c2565b611da6565b34801561093f57600080fd5b506104cd61094e3660046147c2565b611dd0565b34801561095f57600080fd5b506104cd61096e36600461478b565b611dfa565b34801561097f57600080fd5b506104cd61098e366004614883565b611e6c565b34801561099f57600080fd5b506105916109ae366004614883565b611ef0565b3480156109bf57600080fd5b50601554610591906001600160a01b031681565b3480156109df57600080fd5b506106b26109ee3660046147c2565b611f50565b6104cd611fd6565b348015610a0757600080fd5b50610524610a16366004614883565b611fe8565b348015610a2757600080fd5b506104cd610a36366004614883565b6122b0565b348015610a4757600080fd5b50610498610a56366004614883565b6000908152600b60208190526040909120015460ff1690565b348015610a7b57600080fd5b5061083e610a8a366004614883565b6122df565b348015610a9b57600080fd5b50638b78c6d81954610591565b348015610ab457600080fd5b50610591610ac3366004614883565b6000908152601360205260409020546001600160a01b031690565b348015610aea57600080fd5b50610524610af9366004614883565b61230a565b348015610b0a57600080fd5b506104cd610b19366004614883565b612427565b348015610b2a57600080fd5b506104cd610b3936600461478b565b612434565b348015610b4a57600080fd5b506105246124a5565b348015610b5f57600080fd5b5061083e610b6e3660046147c2565b6124b4565b348015610b7f57600080fd5b50610591610b8e366004614883565b6013602052600090815260409020546001600160a01b031681565b348015610bb557600080fd5b506104cd610bc4366004614883565b61252a565b348015610bd557600080fd5b506104cd61255e565b348015610bea57600080fd5b506106b260115481565b348015610c0057600080fd5b50601654610591906001600160a01b031681565b348015610c2057600080fd5b50610524610c2f366004614883565b61262a565b348015610c4057600080fd5b506104cd610c4f3660046149ec565b61265a565b348015610c6057600080fd5b50610c74610c6f366004614a2c565b612669565b6040516104a4929190614b1e565b348015610c8e57600080fd5b50610524610c9d366004614883565b612751565b348015610cae57600080fd5b506104cd610cbd366004614b4c565b6129ce565b348015610cce57600080fd5b50610ce2610cdd366004614883565b612a06565b6040516104a49190614bb7565b348015610cfb57600080fd5b50600f54610591906001600160a01b031681565b348015610d1b57600080fd5b50610524610d2a366004614883565b612ba6565b348015610d3b57600080fd5b50610d4f610d4a366004614a2c565b612bfc565b6040516104a493929190614c67565b348015610d6a57600080fd5b50610d7e610d79366004614883565b612d0e565b604080516001600160a01b039384168152929091166020830152016104a4565b6104cd610dac366004614ceb565b612d3d565b348015610dbd57600080fd5b506104cd610dcc366004614883565b612e48565b348015610ddd57600080fd5b506104cd610dec366004614d73565b612e7a565b348015610dfd57600080fd5b50610524610e0c366004614db9565b612ed6565b348015610e1d57600080fd5b50610498610e2c366004614ded565b6001600160a01b03918216600090815260056020908152604080832093909416825291909152205460ff1690565b6104cd610e683660046147c2565b613188565b348015610e7957600080fd5b506104cd610e8836600461478b565b6131c8565b348015610e9957600080fd5b506104cd610ea8366004614e26565b613238565b6104cd610ebb3660046147c2565b613285565b348015610ecc57600080fd5b506106b2610edb3660046147c2565b63389a75e1600c908152600091909152602090205490565b6000610efe826132ac565b92915050565b610f148a8a8a8a8a8a8a8a611bc1565b610f1e8a83611af4565b610f288a82612e7a565b50505050505050505050565b610f3e82826132d1565b610f49816004613390565b6000828152600b602052604090206003018190558082610f6881611ef0565b6001600160a01b031660008051602061573f833981519152604051610faa906020808252600990820152684163636573736f727960b81b604082015260600190565b60405180910390a45050565b610fbe613492565b601880546001600160a01b0319166001600160a01b0392909216919091179055565b606060008054610fef90614eab565b80601f016020809104026020016040519081016040528092919081815260200182805461101b90614eab565b80156110685780601f1061103d57610100808354040283529160200191611068565b820191906000526020600020905b81548152906001019060200180831161104b57829003601f168201915b5050505050905090565b600061107d826134ad565b506000908152600460205260409020546001600160a01b031690565b60006110a482611ef0565b9050806001600160a01b0316836001600160a01b0316036111165760405162461bcd60e51b815260206004820152602160248201527f4552433732313a20617070726f76616c20746f2063757272656e74206f776e656044820152603960f91b60648201526084015b60405180910390fd5b336001600160a01b038216148061113257506111328133610e2c565b6111a45760405162461bcd60e51b815260206004820152603e60248201527f4552433732313a20617070726f76652063616c6c6572206973206e6f7420746f60448201527f6b656e206f776e6572206e6f7220617070726f76656420666f7220616c6c0000606482015260840161110d565b6111ae838361350c565b505050565b600e60205260009081526040902080546001820180549192916111d590614eab565b80601f016020809104026020016040519081016040528092919081815260200182805461120190614eab565b801561124e5780601f106112235761010080835404028352916020019161124e565b820191906000526020600020905b81548152906001019060200180831161123157829003601f168201915b50505050509080600201805461126390614eab565b80601f016020809104026020016040519081016040528092919081815260200182805461128f90614eab565b80156112dc5780601f106112b1576101008083540402835291602001916112dc565b820191906000526020600020905b8154815290600101906020018083116112bf57829003601f168201915b5050505050908060030180546112f190614eab565b80601f016020809104026020016040519081016040528092919081815260200182805461131d90614eab565b801561136a5780601f1061133f5761010080835404028352916020019161136a565b820191906000526020600020905b81548152906001019060200180831161134d57829003601f168201915b5050505050905084565b61137e82826132d1565b611389816003613390565b6000828152600b6020526040902060020181905580826113a881611ef0565b6001600160a01b031660008051602061573f833981519152604051610faa906020808252600490820152634661636560e01b604082015260600190565b6113ee8161357a565b6000818152600b60205260408082206001019190915551632430b4b960e11b81526004015b60405180910390208161142583611ef0565b6001600160a01b03167fe428b1839105819dce5e635ac7e16ed2a43028f6e294bab8655e29acb5dc60bb60405160405180910390a450565b61146760036135b4565b565b60606000611476836122df565b905060006040518060400160405280601b81526020017f3c7376672076696577426f783d223020302031353020313530223e000000000081525090506000604051806040016040528060068152602001651e17b9bb339f60d11b815250905060606000600f60009054906101000a90046001600160a01b03166001600160a01b0316635c1ef2566040518163ffffffff1660e01b8152600401600060405180830381865afa15801561152c573d6000803e3d6000fd5b505050506040513d6000823e601f3d908101601f191682016040526115549190810190614f35565b9050600060125486511061156a5760125461156d565b85515b9050604051806105400160405280610505815260200161575f61050591398260405160200161159d929190614f69565b604051602081830303815290604052925060005b8181101561168257600f5487516000916001600160a01b03169063c7791531908a90859081106115e3576115e3614fc0565b60200260200101516040518263ffffffff1660e01b815260040161160991815260200190565b600060405180830381865afa158015611626573d6000803e3d6000fd5b505050506040513d6000823e601f3d908101601f1916820160405261164e9190810190614f35565b9050848782886040516020016116679493929190614fd6565b60408051601f198184030181529190529450506001016115b1565b5082604051602001611694919061502d565b60408051601f1981840301815291905298975050505050505050565b6116b8613492565b601680546001600160a01b0319166001600160a01b0392909216919091179055565b6116e482826132d1565b6116ef816001613390565b6000828152600b60205260409020819055808261170b81611ef0565b6001600160a01b031660008051602061573f833981519152604051610faa906020808252600490820152631219585960e21b604082015260600190565b61175233826138dc565b61176e5760405162461bcd60e51b815260040161110d90615055565b6111ae83838361395b565b60006202a3006001600160401b03164201905063389a75e1600c5233600052806020600c2055337fdbf36a107da19e49527a7176a1babf963b4b0ff8cde35ee35d6cd8f1f9ac7e1d600080a250565b6117d18161357a565b6000818152600b60205260408082206003019190915551684163636573736f727960b81b8152600901611413565b6060806060600061180f85612a06565b905061181a81612bfc565b50600f54604051630d403c8760e11b81529195506001600160a01b03169150631a80790e9061184d908490600401614bb7565b600060405180830381865afa15801561186a573d6000803e3d6000fd5b505050506040513d6000823e601f3d908101601f1916820160405261189291908101906150a3565b506040519093506118aa915084908490602001615141565b6040516020818303038152906040529350505050919050565b60006118ce83611f50565b82106119305760405162461bcd60e51b815260206004820152602b60248201527f455243373231456e756d657261626c653a206f776e657220696e646578206f7560448201526a74206f6620626f756e647360a81b606482015260840161110d565b506001600160a01b03919091166000908152600660209081526040808320938352929052205490565b6119628161357a565b6000818152600b6020526040812081815560018101829055600281018290556003810182905560048101829055600581018290556006810191909155816119a881611ef0565b6001600160a01b03167f46078a2cd4c69c3b4a27bdc69fdfe03d442ebcf405f1a68e9b5df6bc3e24429760405160405180910390a35050565b60608060006119ef84612a06565b90506119fa81612bfc565b5095945050505050565b611a0c613492565b601255565b611a1a8161357a565b6000818152600b60205260408082206004019190915551620546f760ec1b8152600301611413565b6111ae838383604051806020016040528060008152506129ce565b60606000611a6a83611f50565b90506000816001600160401b03811115611a8657611a8661460a565b604051908082528060200260200182016040528015611aaf578160200160208202803683370190505b50905060005b82811015611aec57611ac785826118c3565b828281518110611ad957611ad9614fc0565b6020908102919091010152600101611ab5565b509392505050565b6003811115611b395760405162461bcd60e51b8152602060048201526011602482015270092dcecc2d8d2c840c4dec8f292dcc8caf607b1b604482015260640161110d565b6000918252600b602052604090912060090155565b611b5882826132d1565b611b63816006613390565b6000828152600b602052604090206005018190558082611b8281611ef0565b6001600160a01b031660008051602061573f833981519152604051610faa90602080825260069082015265426f74746f6d60d01b604082015260600190565b8615611bd157611bd188886116da565b8515611be157611be18887612434565b8415611bf157611bf18886611374565b8315611c0157611c018885610f34565b8215611c1157611c1188846131c8565b8115611c2157611c218883611b4e565b8015611c3157611c318882611dfa565b87611c3b89611ef0565b6001600160a01b03167f56680590212b09eb4b72a2eba8801b037ec046dfc754538e924f5bb6a8c4db6c60405160405180910390a35050505050505050565b611c82613492565b601580546001600160a01b0319166001600160a01b0392909216919091179055565b6000611caf60085490565b8210611d125760405162461bcd60e51b815260206004820152602c60248201527f455243373231456e756d657261626c653a20676c6f62616c20696e646578206f60448201526b7574206f6620626f756e647360a01b606482015260840161110d565b60088281548110611d2557611d25614fc0565b90600052602060002001549050919050565b63389a75e1600c523360005260006020600c2055337ffa7b8eab7da67f412cc9575ed43464468f9bfbae89d1675917346ca6d8fe3c92600080a2565b611d7c8161357a565b6000818152600b602052604080822060060191909155516453686f657360d81b8152600501611413565b611dae613492565b601480546001600160a01b0319166001600160a01b0392909216919091179055565b611dd8613492565b600f80546001600160a01b0319166001600160a01b0392909216919091179055565b611e0482826132d1565b611e0f816007613390565b6000828152600b602052604090206006018190558082611e2e81611ef0565b6001600160a01b031660008051602061573f833981519152604051610faa9060208082526005908201526453686f657360d81b604082015260600190565b6000818152601360205260409081902054600f5491516340d097c360e01b81526001600160a01b03918216600482018190529291909116906340d097c3906024016020604051808303816000875af1158015611ecc573d6000803e3d6000fd5b505050506040513d601f19601f820116820180604052508101906111ae9190615170565b6000818152600260205260408120546001600160a01b031680610efe5760405162461bcd60e51b8152602060048201526018602482015277115490cdcc8c4e881a5b9d985b1a59081d1bdad95b88125160421b604482015260640161110d565b60006001600160a01b038216611fba5760405162461bcd60e51b815260206004820152602960248201527f4552433732313a2061646472657373207a65726f206973206e6f7420612076616044820152683634b21037bbb732b960b91b606482015260840161110d565b506001600160a01b031660009081526003602052604090205490565b611fde613492565b6114676000613b02565b60608060608060608060608060606120216040518060800160405280606081526020016060815260200160608152602001600081525090565b600061202c8c612a06565b905061203781612bfc565b600f54604051630d403c8760e11b8152939d50919a5095506001600160a01b031690631a80790e9061206d908490600401614bb7565b600060405180830381865afa15801561208a573d6000803e3d6000fd5b505050506040513d6000823e601f3d908101601f191682016040526120b291908101906150a3565b604051929b5090985095506120cd9085908790602001615189565b604051602081830303815290604052925087876040516020016120f1929190615141565b60408051601f19818403018152919052610140820151835295506121148c6122df565b5160608301526101208101516000908152600e60205260409020600101805461213c90614eab565b80601f016020809104026020016040519081016040528092919081815260200182805461216890614eab565b80156121b55780601f1061218a576101008083540402835291602001916121b5565b820191906000526020600020905b81548152906001019060200180831161219857829003601f168201915b505050506020808501929092525060008d8152600b9182905260409020015460ff166121fb57604051806040016040528060028152602001610c9160f21b815250612217565b604051806040016040528060028152602001610cd160f21b8152505b60408084019190915260165490516332d01b2560e21b81526001600160a01b039091169063cb406c949061225b908f908e9089908f908c908e908b9060040161524d565b600060405180830381865afa158015612278573d6000803e3d6000fd5b505050506040513d6000823e601f3d908101601f191682016040526122a09190810190614f35565b9c9b505050505050505050505050565b6122b98161357a565b6000818152600b60205260408082209190915551631219585960e21b8152600401611413565b6000818152601360205260409020546060906001600160a01b0316612303816124b4565b9392505050565b6000818152600e602052604081206002018054606092916123b19161232e90614eab565b80601f016020809104026020016040519081016040528092919081815260200182805461235a90614eab565b80156123a75780601f1061237c576101008083540402835291602001916123a7565b820191906000526020600020905b81548152906001019060200180831161238a57829003601f168201915b5050505050612ed6565b6015546040516335b07b7960e11b81529192506001600160a01b031690636b60f6f2906123e290849060040161482f565b600060405180830381865afa1580156123ff573d6000803e3d6000fd5b505050506040513d6000823e601f3d908101601f191682016040526123039190810190614f35565b61242f613492565b601155565b61243e82826132d1565b612449816002613390565b6000828152600b60205260409020600101819055808261246881611ef0565b6001600160a01b031660008051602061573f833981519152604051610faa906020808252600490820152632430b4b960e11b604082015260600190565b606060018054610fef90614eab565b600f5460405162438b6360e81b81526001600160a01b03838116600483015260609260009291169063438b630090602401600060405180830381865afa158015612502573d6000803e3d6000fd5b505050506040513d6000823e601f3d908101601f1916820160405261230391908101906152d6565b6125338161357a565b6000818152600b6020526040808220600501919091555165426f74746f6d60d01b8152600601611413565b600a5460ff16156114675760005b60648110156125855761257d61145d565b60010161256c565b506125af60016040518060400160405280600681526020016533333333333360d01b815250612e7a565b6125d860036040518060400160405280600681526020016533333333333360d11b815250612e7a565b61260160046040518060400160405280600681526020016519588c0d8e1960d21b815250612e7a565b611467600860405180604001604052806006815260200165118c90cccc0d60d21b815250612e7a565b6060600061263783612a06565b90508061016001516126515761264c83612751565b612303565b61230383611fe8565b612665338383613b40565b5050565b60608061267a83610120015161230a565b61274860405180604001604052806009815260200168426f6479205479706560b81b815250600e6000876101200151815260200190815260200160002060010180546126c590614eab565b80601f01602080910402602001604051908101604052809291908181526020018280546126f190614eab565b801561273e5780601f106127135761010080835404028352916020019161273e565b820191906000526020600020905b81548152906001019060200180831161272157829003601f168201915b5050505050613c0e565b91509150915091565b606080606080606080600061276588612a06565b905061277081612669565b600f5460405163041df25f60e31b81529298509096506001600160a01b0316906320ef92f8906127a4908490600401614bb7565b600060405180830381865afa1580156127c1573d6000803e3d6000fd5b505050506040513d6000823e601f3d908101601f191682016040526127e9919081019061537b565b90945092506127f788611469565b91506128246040518060800160405280606081526020016060815260200160608152602001600081525090565b6101408201518152612835896122df565b5160608201526101208201516000908152600e60205260409020600101805461285d90614eab565b80601f016020809104026020016040519081016040528092919081815260200182805461288990614eab565b80156128d65780601f106128ab576101008083540402835291602001916128d6565b820191906000526020600020905b8154815290600101906020018083116128b957829003601f168201915b505050506020808401929092525060008a8152600b9182905260409020015460ff1661291c57604051806040016040528060028152602001610c9160f21b815250612938565b604051806040016040528060028152602001610cd160f21b8152505b6040808301919091526015549051634e2fa37760e11b81526001600160a01b0390911690639c5f46ee9061297c908c908b908b908b908b908b908a9060040161524d565b600060405180830381865afa158015612999573d6000803e3d6000fd5b505050506040513d6000823e601f3d908101601f191682016040526129c19190810190614f35565b9998505050505050505050565b6129d833836138dc565b6129f45760405162461bcd60e51b815260040161110d90615055565b612a0084848484613c3a565b50505050565b612a7260405180610180016040528060008152602001600081526020016000815260200160008152602001600081526020016000815260200160008152602001600063ffffffff1681526020016000815260200160008152602001606081526020016000151581525090565b6000828152600b60209081526040808320815161018081018352815481526001820154938101939093526002810154918301919091526003810154606083015260048101546080830152600581015460a0830152600681015460c0830152600781015463ffffffff1660e083015260088101546101008301526009810154610120830152600a8101805461014084019190612b0c90614eab565b80601f0160208091040260200160405190810160405280929190818152602001828054612b3890614eab565b8015612b855780601f10612b5a57610100808354040283529160200191612b85565b820191906000526020600020905b815481529060010190602001808311612b6857829003601f168201915b5050509183525050600b919091015460ff1615156020909101529392505050565b6000818152600260205260409020546060906001600160a01b0316612bde57604051631a65aaab60e31b815260040160405180910390fd5b5050604080518082019091526002815261796f60f01b602082015290565b6060806060612c0f84610120015161230a565b600e60008661012001518152602001908152602001600020600301612c7560405180604001604052806009815260200168426f6479205479706560b81b815250600e6000896101200151815260200190815260200160002060010180546126c590614eab565b818054612c8190614eab565b80601f0160208091040260200160405190810160405280929190818152602001828054612cad90614eab565b8015612cfa5780601f10612ccf57610100808354040283529160200191612cfa565b820191906000526020600020905b815481529060010190602001808311612cdd57829003601f168201915b505050505091509250925092509193909250565b600080612d1a83611ef0565b6000938452601360205260409093205492936001600160a01b0390931692915050565b60038560ff161080612d52575060078560ff16115b15612d70576040516367af3f5360e01b815260040160405180910390fd5b612da5338585604051602001612d88939291906153d4565b604051602081830303815290604052805190602001208383613c6d565b612dc257604051638baa579f60e01b815260040160405180910390fd5b60178484604051612dd4929190615400565b9081526040519081900360200190205460ff1615612e0457604051623f613760e71b815260040160405180910390fd5b612e0d856135b4565b600160178585604051612e21929190615400565b908152604051908190036020019020805491151560ff199092169190911790555050505050565b612e518161357a565b6000818152600b60205260408082206002019190915551634661636560e01b8152600401611413565b8051600614612ebb5760405162461bcd60e51b815260206004820152600d60248201526c24b73b30b634b21031b7b637b960991b604482015260640161110d565b6000828152600b60205260409020600a016111ae8282615458565b80516060908015801590612ef25750612ef060058261552d565b155b612f3e5760405162461bcd60e51b815260206004820152601960248201527f496e76616c696420626f6479206279746573206c656e67746800000000000000604482015260640161110d565b604080516111948082526111c082019092526000916020820181803683370190505090506000612f6f600584615557565b905060005b8181101561317e576000612f8982600561556b565b90506000878281518110612f9f57612f9f614fc0565b016020015160f81c9050600088612fb7846001615582565b81518110612fc757612fc7614fc0565b016020015160f81c9050600060ff8316612fe283601e61556b565b612fec9190615582565b612ff790600561556b565b905089848151811061300b5761300b614fc0565b602001015160f81c60f81b87828151811061302857613028614fc0565b60200101906001600160f81b031916908160001a90535089846001018151811061305457613054614fc0565b602001015160f81c60f81b87826001018151811061307457613074614fc0565b60200101906001600160f81b031916908160001a9053508984600201815181106130a0576130a0614fc0565b602001015160f81c60f81b8782600201815181106130c0576130c0614fc0565b60200101906001600160f81b031916908160001a9053508984600301815181106130ec576130ec614fc0565b602001015160f81c60f81b87826003018151811061310c5761310c614fc0565b60200101906001600160f81b031916908160001a90535089846004018151811061313857613138614fc0565b602001015160f81c60f81b87826004018151811061315857613158614fc0565b60200101906001600160f81b031916908160001a90535050505050806001019050612f74565b5090949350505050565b613190613492565b63389a75e1600c52806000526020600c2080544211156131b857636f5e88186000526004601cfd5b600090556131c581613b02565b50565b6131d282826132d1565b6131dd816005613390565b6000828152600b6020526040902060040181905580826131fc81611ef0565b6001600160a01b031660008051602061573f833981519152604051610faa906020808252600390820152620546f760ec1b604082015260600190565b613240613492565b6000848152600e602052604090208481556001810161325f8582615458565b506002810161326e8482615458565b506003810161327d8382615458565b505050505050565b61328d613492565b8060601b6132a357637448fbae6000526004601cfd5b6131c581613b02565b60006001600160e01b0319821663780e9d6360e01b1480610efe5750610efe82613d7f565b6132da8261357a565b60008281526013602052604080822054600f5491516331a9108f60e11b8152600481018590526001600160a01b0391821693929190911690636352211e90602401602060405180830381865afa158015613338573d6000803e3d6000fd5b505050506040513d601f19601f8201168201806040525081019061335c9190615595565b9050816001600160a01b0316816001600160a01b031614612a005760405163e6ca793160e01b815260040160405180910390fd5b600f5460405163e8a1268d60e01b8152600481018490526000916001600160a01b03169063e8a1268d90602401602060405180830381865afa1580156133da573d6000803e3d6000fd5b505050506040513d601f19601f820116820180604052508101906133fe91906155b2565b9050816007811115613412576134126155d3565b60405160200161342491815260200190565b6040516020818303038152906040528051906020012081600781111561344c5761344c6155d3565b60405160200161345e91815260200190565b60405160208183030381529060405280519060200120146111ae57604051633e54c6fb60e11b815260040160405180910390fd5b638b78c6d819543314611467576382b429006000526004601cfd5b6000818152600260205260409020546001600160a01b03166131c55760405162461bcd60e51b8152602060048201526018602482015277115490cdcc8c4e881a5b9d985b1a59081d1bdad95b88125160421b604482015260640161110d565b600081815260046020526040902080546001600160a01b0319166001600160a01b038416908117909155819061354182611ef0565b6001600160a01b03167f8c5be1e5ebec7d5bd14f71427d1e84f3dd0314c0f7b2291e5b200ac8c7c3b92560405160405180910390a45050565b61358381611ef0565b6001600160a01b0316336001600160a01b0316146131c5576040516324adc17160e11b815260040160405180910390fd5b6014546001600160a01b03166135dd57604051633390ca8960e21b815260040160405180910390fd5b60006010600081546135ee906155e9565b918290555090506135ff3382613dcf565b604051638a54c52f60e01b81527355266d75d1a14e4572138116af39863ed6596e7f600482015260006024820181905262014a34604483015230606483015260848201839052906f6551c19487814612e58fe0681377575890638a54c52f9060a4016020604051808303816000875af1158015613680573d6000803e3d6000fd5b505050506040513d601f19601f820116820180604052508101906136a49190615595565b6000838152601360205260409081902080546001600160a01b0319166001600160a01b038416908117909155905163189acdbd60e31b81527341c8f39463a868d3a88af00cd0fe7102f30e44ec60048201529192509063c4d66de890602401600060405180830381600087803b15801561371d57600080fd5b505af1158015613731573d6000803e3d6000fd5b50506014546040516358a2727360e01b81526001600160a01b03858116600483015260ff881660248301526000945090911691506358a27273906044016000604051808303816000875af115801561378d573d6000803e3d6000fd5b505050506040513d6000823e601f3d908101601f191682016040526137b591908101906152d6565b6000848152600b60205260408120600881018690558251929350918391906137df576137df614fc0565b602002602001015181600601819055508160018151811061380257613802614fc0565b602002602001015181600501819055508160028151811061382557613825614fc0565b602090810291909101810151600483810191909155600b8301805460ff19169055604080519283018790529091016040516020818303038152906040528051906020012060001c613876919061552d565b60098201556040805180820190915260068152650c110d914e5160d21b6020820152600a8201906138a79082615458565b50604051849033907f0f6798a560793a54c3bcfe86a93cde1e73087d944c0ea20544137d412139688590600090a35050505050565b6000806138e883611ef0565b9050806001600160a01b0316846001600160a01b0316148061392f57506001600160a01b0380821660009081526005602090815260408083209388168352929052205460ff165b806139535750836001600160a01b031661394884611072565b6001600160a01b0316145b949350505050565b826001600160a01b031661396e82611ef0565b6001600160a01b0316146139d25760405162461bcd60e51b815260206004820152602560248201527f4552433732313a207472616e736665722066726f6d20696e636f72726563742060448201526437bbb732b960d91b606482015260840161110d565b6001600160a01b038216613a345760405162461bcd60e51b8152602060048201526024808201527f4552433732313a207472616e7366657220746f20746865207a65726f206164646044820152637265737360e01b606482015260840161110d565b613a3f838383613f1d565b613a4a60008261350c565b6001600160a01b0383166000908152600360205260408120805460019290613a73908490615602565b90915550506001600160a01b0382166000908152600360205260408120805460019290613aa1908490615582565b909155505060008181526002602052604080822080546001600160a01b0319166001600160a01b0386811691821790925591518493918716917fddf252ad1be2c89b69c2b068fc378daa952ba7f163c4a11628f55a4df523b3ef91a4505050565b638b78c6d81980546001600160a01b039092169182907f8be0079c531659141344cd1fd0a4f28419497f9722a3daafe3b4186f6b6457e0600080a355565b816001600160a01b0316836001600160a01b031603613ba15760405162461bcd60e51b815260206004820152601960248201527f4552433732313a20617070726f766520746f2063616c6c657200000000000000604482015260640161110d565b6001600160a01b03838116600081815260056020908152604080832094871680845294825291829020805460ff191686151590811790915591519182527f17307eab39ab6107e8899845ad3d59bd9653f200f220920489ca2b5937696c31910160405180910390a3505050565b60608282604051602001613c23929190615615565b604051602081830303815290604052905092915050565b613c4584848461395b565b613c5184848484613f28565b612a005760405162461bcd60e51b815260040161110d90615686565b6018546000906001600160a01b0316613cc15760405162461bcd60e51b81526020600482015260166024820152754d697373696e672073797374656d206164647265737360501b604482015260640161110d565b6000613d1a856040517f19457468657265756d205369676e6564204d6573736167653a0a3332000000006020820152603c8101829052600090605c01604051602081830303815290604052805190602001209050919050565b601854604080516020601f88018190048102820181019092528681529293506001600160a01b0390911691613d6c91879087908190840183828082843760009201919091525086939250506140299050565b6001600160a01b03161495945050505050565b60006001600160e01b031982166380ac58cd60e01b1480613db057506001600160e01b03198216635b5e139f60e01b145b80610efe57506301ffc9a760e01b6001600160e01b0319831614610efe565b6001600160a01b038216613e255760405162461bcd60e51b815260206004820181905260248201527f4552433732313a206d696e7420746f20746865207a65726f2061646472657373604482015260640161110d565b6000818152600260205260409020546001600160a01b031615613e8a5760405162461bcd60e51b815260206004820152601c60248201527f4552433732313a20746f6b656e20616c7265616479206d696e74656400000000604482015260640161110d565b613e9660008383613f1d565b6001600160a01b0382166000908152600360205260408120805460019290613ebf908490615582565b909155505060008181526002602052604080822080546001600160a01b0319166001600160a01b03861690811790915590518392907fddf252ad1be2c89b69c2b068fc378daa952ba7f163c4a11628f55a4df523b3ef908290a45050565b6111ae838383614045565b60006001600160a01b0384163b1561401e57604051630a85bd0160e11b81526001600160a01b0385169063150b7a0290613f6c9033908990889088906004016156d8565b6020604051808303816000875af1925050508015613fa7575060408051601f3d908101601f19168201909252613fa49181019061570b565b60015b614004573d808015613fd5576040519150601f19603f3d011682016040523d82523d6000602084013e613fda565b606091505b508051600003613ffc5760405162461bcd60e51b815260040161110d90615686565b805181602001fd5b6001600160e01b031916630a85bd0160e11b149050613953565b506001949350505050565b600080600061403885856140fd565b91509150611aec8161416b565b6001600160a01b0383166140a05761409b81600880546000838152600960205260408120829055600182018355919091527ff3f7a9fe364faab93b216da50a3214154f22a0a2b415b23a84c8169e8b636ee30155565b6140c3565b816001600160a01b0316836001600160a01b0316146140c3576140c38382614321565b6001600160a01b0382166140da576111ae816143be565b826001600160a01b0316826001600160a01b0316146111ae576111ae828261446d565b60008082516041036141335760208301516040840151606085015160001a614127878285856144b1565b94509450505050614164565b825160400361415c576020830151604084015161415186838361459e565b935093505050614164565b506000905060025b9250929050565b600081600481111561417f5761417f6155d3565b036141875750565b600181600481111561419b5761419b6155d3565b036141e85760405162461bcd60e51b815260206004820152601860248201527f45434453413a20696e76616c6964207369676e61747572650000000000000000604482015260640161110d565b60028160048111156141fc576141fc6155d3565b036142495760405162461bcd60e51b815260206004820152601f60248201527f45434453413a20696e76616c6964207369676e6174757265206c656e67746800604482015260640161110d565b600381600481111561425d5761425d6155d3565b036142b55760405162461bcd60e51b815260206004820152602260248201527f45434453413a20696e76616c6964207369676e6174757265202773272076616c604482015261756560f01b606482015260840161110d565b60048160048111156142c9576142c96155d3565b036131c55760405162461bcd60e51b815260206004820152602260248201527f45434453413a20696e76616c6964207369676e6174757265202776272076616c604482015261756560f01b606482015260840161110d565b6000600161432e84611f50565b6143389190615602565b60008381526007602052604090205490915080821461438b576001600160a01b03841660009081526006602090815260408083208584528252808320548484528184208190558352600790915290208190555b5060009182526007602090815260408084208490556001600160a01b039094168352600681528383209183525290812055565b6008546000906143d090600190615602565b600083815260096020526040812054600880549394509092849081106143f8576143f8614fc0565b90600052602060002001549050806008838154811061441957614419614fc0565b600091825260208083209091019290925582815260099091526040808220849055858252812055600880548061445157614451615728565b6001900381819060005260206000200160009055905550505050565b600061447883611f50565b6001600160a01b039093166000908152600660209081526040808320868452825280832085905593825260079052919091209190915550565b6000807f7fffffffffffffffffffffffffffffff5d576e7357a4501ddfe92f46681b20a08311156144e85750600090506003614595565b8460ff16601b1415801561450057508460ff16601c14155b156145115750600090506004614595565b6040805160008082526020820180845289905260ff881692820192909252606081018690526080810185905260019060a0016020604051602081039080840390855afa158015614565573d6000803e3d6000fd5b5050604051601f1901519150506001600160a01b03811661458e57600060019250925050614595565b9150600090505b94509492505050565b6000806001600160ff1b038316816145bb60ff86901c601b615582565b90506145c9878288856144b1565b935093505050935093915050565b6001600160e01b0319811681146131c557600080fd5b6000602082840312156145ff57600080fd5b8135612303816145d7565b634e487b7160e01b600052604160045260246000fd5b60405161018081016001600160401b03811182821017156146435761464361460a565b60405290565b604051601f8201601f191681016001600160401b03811182821017156146715761467161460a565b604052919050565b60006001600160401b038211156146925761469261460a565b50601f01601f191660200190565b600082601f8301126146b157600080fd5b81356146c46146bf82614679565b614649565b8181528460208386010111156146d957600080fd5b816020850160208301376000918101602001919091529392505050565b6000806000806000806000806000806101408b8d03121561471657600080fd5b8a35995060208b0135985060408b0135975060608b0135965060808b0135955060a08b0135945060c08b0135935060e08b013592506101008b013591506101208b01356001600160401b0381111561476d57600080fd5b6147798d828e016146a0565b9150509295989b9194979a5092959850565b6000806040838503121561479e57600080fd5b50508035926020909101359150565b6001600160a01b03811681146131c557600080fd5b6000602082840312156147d457600080fd5b8135612303816147ad565b60005b838110156147fa5781810151838201526020016147e2565b50506000910152565b6000815180845261481b8160208601602086016147df565b601f01601f19169290920160200192915050565b6020815260006123036020830184614803565b8035801515811461485257600080fd5b919050565b6000806040838503121561486a57600080fd5b8235915061487a60208401614842565b90509250929050565b60006020828403121561489557600080fd5b5035919050565b600080604083850312156148af57600080fd5b82356148ba816147ad565b946020939093013593505050565b8481526080602082015260006148e16080830186614803565b82810360408401526148f38186614803565b905082810360608401526149078185614803565b979650505050505050565b60008060006060848603121561492757600080fd5b8335614932816147ad565b92506020840135614942816147ad565b929592945050506040919091013590565b6020808252825182820181905260009190848201906040850190845b8181101561498b5783518352928401929184019160010161496f565b50909695505050505050565b600080600080600080600080610100898b0312156149b457600080fd5b505086359860208801359850604088013597606081013597506080810135965060a0810135955060c0810135945060e0013592509050565b600080604083850312156149ff57600080fd5b8235614a0a816147ad565b915061487a60208401614842565b803563ffffffff8116811461485257600080fd5b600060208284031215614a3e57600080fd5b81356001600160401b0380821115614a5557600080fd5b908301906101808286031215614a6a57600080fd5b614a72614620565b823581526020830135602082015260408301356040820152606083013560608201526080830135608082015260a083013560a082015260c083013560c0820152614abe60e08401614a18565b60e0820152610100838101359082015261012080840135908201526101408084013583811115614aed57600080fd5b614af9888287016146a0565b8284015250506101609150614b0f828401614842565b91810191909152949350505050565b604081526000614b316040830185614803565b8281036020840152614b438185614803565b95945050505050565b60008060008060808587031215614b6257600080fd5b8435614b6d816147ad565b93506020850135614b7d816147ad565b92506040850135915060608501356001600160401b03811115614b9f57600080fd5b614bab878288016146a0565b91505092959194509250565b6020815281516020820152602082015160408201526040820151606082015260608201516080820152608082015160a082015260a082015160c082015260c082015160e0820152600060e0830151610100614c198185018363ffffffff169052565b840151610120848101919091528401516101408085019190915284015161018061016080860182905291925090614c546101a0860184614803565b908601518015158387015290925061317e565b606081526000614c7a6060830186614803565b8281036020840152614c8c8186614803565b90508281036040840152614ca08185614803565b9695505050505050565b60008083601f840112614cbc57600080fd5b5081356001600160401b03811115614cd357600080fd5b60208301915083602082850101111561416457600080fd5b600080600080600060608688031215614d0357600080fd5b853560ff81168114614d1457600080fd5b945060208601356001600160401b0380821115614d3057600080fd5b614d3c89838a01614caa565b90965094506040880135915080821115614d5557600080fd5b50614d6288828901614caa565b969995985093965092949392505050565b60008060408385031215614d8657600080fd5b8235915060208301356001600160401b03811115614da357600080fd5b614daf858286016146a0565b9150509250929050565b600060208284031215614dcb57600080fd5b81356001600160401b03811115614de157600080fd5b613953848285016146a0565b60008060408385031215614e0057600080fd5b8235614e0b816147ad565b91506020830135614e1b816147ad565b809150509250929050565b60008060008060808587031215614e3c57600080fd5b8435935060208501356001600160401b0380821115614e5a57600080fd5b614e66888389016146a0565b94506040870135915080821115614e7c57600080fd5b614e88888389016146a0565b93506060870135915080821115614e9e57600080fd5b50614bab878288016146a0565b600181811c90821680614ebf57607f821691505b602082108103614edf57634e487b7160e01b600052602260045260246000fd5b50919050565b6000614ef36146bf84614679565b9050828152838383011115614f0757600080fd5b6123038360208301846147df565b600082601f830112614f2657600080fd5b61230383835160208501614ee5565b600060208284031215614f4757600080fd5b81516001600160401b03811115614f5d57600080fd5b61395384828501614f15565b60008351614f7b8184602088016147df565b835190830190614f8f8183602088016147df565b7f3c672069643d226261636b7061636b547261697473223e0000000000000000009101908152601701949350505050565b634e487b7160e01b600052603260045260246000fd5b60008551614fe8818460208a016147df565b855190830190614ffc818360208a016147df565b855191019061500f8183602089016147df565b84519101906150228183602088016147df565b019695505050505050565b6000825161503f8184602087016147df565b631e17b39f60e11b920191825250600401919050565b6020808252602e908201527f4552433732313a2063616c6c6572206973206e6f7420746f6b656e206f776e6560408201526d1c881b9bdc88185c1c1c9bdd995960921b606082015260800190565b6000806000606084860312156150b857600080fd5b83516001600160401b03808211156150cf57600080fd5b6150db87838801614f15565b945060208601519150808211156150f157600080fd5b818601915086601f83011261510557600080fd5b61511487835160208501614ee5565b9350604086015191508082111561512a57600080fd5b5061513786828701614f15565b9150509250925092565b600083516151538184602088016147df565b8351908301906151678183602088016147df565b01949350505050565b60006020828403121561518257600080fd5b5051919050565b6d2261747472696275746573223a5b60901b815282516000906151b381600e8501602088016147df565b600b60fa1b600e9184019182015283516151d481600f8401602088016147df565b605d60f81b600f9290910191820152601001949350505050565b60008151608084526152036080850182614803565b90506020830151848203602086015261521c8282614803565b915050604083015184820360408601526152368282614803565b915050606083015160608501528091505092915050565b87815260e06020820152600061526660e0830189614803565b82810360408401526152788189614803565b9050828103606084015261528c8188614803565b905082810360808401526152a08187614803565b905082810360a08401526152b48186614803565b905082810360c08401526152c881856151ee565b9a9950505050505050505050565b600060208083850312156152e957600080fd5b82516001600160401b038082111561530057600080fd5b818501915085601f83011261531457600080fd5b8151818111156153265761532661460a565b8060051b9150615337848301614649565b818152918301840191848101908884111561535157600080fd5b938501935b8385101561536f57845182529385019390850190615356565b98975050505050505050565b6000806040838503121561538e57600080fd5b82516001600160401b03808211156153a557600080fd5b6153b186838701614f15565b935060208501519150808211156153c757600080fd5b50614daf85828601614f15565b6bffffffffffffffffffffffff198460601b168152818360148301376000910160140190815292915050565b8183823760009101908152919050565b601f8211156111ae576000816000526020600020601f850160051c810160208610156154395750805b601f850160051c820191505b8181101561327d57828155600101615445565b81516001600160401b038111156154715761547161460a565b6154858161547f8454614eab565b84615410565b602080601f8311600181146154ba57600084156154a25750858301515b600019600386901b1c1916600185901b17855561327d565b600085815260208120601f198616915b828110156154e9578886015182559484019460019091019084016154ca565b50858210156155075787850151600019600388901b60f8161c191681555b5050505050600190811b01905550565b634e487b7160e01b600052601260045260246000fd5b60008261553c5761553c615517565b500690565b634e487b7160e01b600052601160045260246000fd5b60008261556657615566615517565b500490565b8082028115828204841417610efe57610efe615541565b80820180821115610efe57610efe615541565b6000602082840312156155a757600080fd5b8151612303816147ad565b6000602082840312156155c457600080fd5b81516008811061230357600080fd5b634e487b7160e01b600052602160045260246000fd5b6000600182016155fb576155fb615541565b5060010190565b81810381811115610efe57610efe615541565b6e3d913a3930b4ba2fba3cb832911d1160891b8152825160009061564081600f8501602088016147df565b6a1116113b30b63ab2911d1160a91b600f91840191820152835161566b81601a8401602088016147df565b61227d60f01b601a9290910191820152601c01949350505050565b60208082526032908201527f4552433732313a207472616e7366657220746f206e6f6e20455243373231526560408201527131b2b4bb32b91034b6b83632b6b2b73a32b960711b606082015260800190565b6001600160a01b0385811682528416602082015260408101839052608060608201819052600090614ca090830184614803565b60006020828403121561571d57600080fd5b8151612303816145d7565b634e487b7160e01b600052603160045260246000fdfe8aea9baa1ab7209ce94784ac5f5149343f8d985fd4278de25a7b390989f2cf853c672069643d22416c6c20547261697473223e3c672069643d226261636b7061636b2220636c6173733d22636c6f736564223e3c7061746820643d224d302030204c33302030204c3330203330204c30203330205a222066696c6c3d227267622831322c203130392c203135372922202f3e3c7376672069643d226261636b7061636b5549222076696577426f783d223020302031323020313230223e203c7374796c653e2e75697b77696474683a3170783b206865696768743a203170783b2066696c6c3a77686974657d3c2f7374796c653e203c672069643d22636c6f736542746e22207472616e73666f726d3d227472616e736c61746528322c3229223e203c7265637420783d22312220793d22312220636c6173733d227569223e3c2f726563743e203c7265637420783d22322220793d22322220636c6173733d227569223e3c2f726563743e203c7265637420783d22332220793d22332220636c6173733d227569223e3c2f726563743e203c7265637420783d22342220793d22342220636c6173733d227569223e3c2f726563743e203c7265637420783d22352220793d22352220636c6173733d227569223e3c2f726563743e203c7265637420783d22352220793d22312220636c6173733d227569223e3c2f726563743e203c7265637420783d22342220793d22322220636c6173733d227569223e3c2f726563743e203c212d2d203c7265637420783d22332220793d2233222077696474683d223122206865696768743d2231222066696c6c3d227768697465223e3c2f726563743e202d2d3e203c7265637420783d22322220793d22342220636c6173733d227569223e3c2f726563743e203c7265637420783d22312220793d22352220636c6173733d227569223e3c2f726563743e203c2f673e203c672069643d226c65667442746e2220636c6173733d22627574746f6e22207472616e73666f726d3d227472616e736c6174652834352c31313029223e203c7061746820643d224d302030204c362030204c362036204c302036205a222066696c6c3d227472616e73706172656e7422202f3e203c7265637420783d22322220793d22302220636c6173733d227569223e3c2f726563743e203c7265637420783d22312220793d22312220636c6173733d227569223e3c2f726563743e203c7265637420783d22302220793d22322220636c6173733d227569223e3c2f726563743e203c7265637420783d22312220793d22332220636c6173733d227569223e3c2f726563743e203c7265637420783d22322220793d22342220636c6173733d227569223e3c2f726563743e203c2f673e203c672069643d22726967687442746e2220636c6173733d22627574746f6e22207472616e73666f726d3d227472616e736c6174652836352c31313029223e203c7061746820643d224d302030204c362030204c362036204c302036205a222066696c6c3d227472616e73706172656e7422202f3e203c7265637420783d22332220793d22302220636c6173733d227569223e3c2f726563743e203c7265637420783d22342220793d22312220636c6173733d227569223e3c2f726563743e203c7265637420783d22352220793d22322220636c6173733d227569223e3c2f726563743e203c7265637420783d22342220793d22332220636c6173733d227569223e3c2f726563743e203c7265637420783d22332220793d22342220636c6173733d227569223e3c2f726563743e203c2f673e203c2f7376673e20a26469706673582212207d8f4e86351ed5f93ef56c04d73173bb08926af6fbb127c4e1d8b7ab0454d0d164736f6c63430008160033","linkReferences":{}},"methodIdentifiers":{"MAX_TRAITS_TO_OUTPUT()":"20e0b93c","_debugPostConstructorMint()":"9c7be2f1","addNewBody(uint256,string,bytes,bytes)":"f2361e23","approve(address,uint256)":"095ea7b3","balanceOf(address)":"70a08231","bodyIndexToMetadata(uint256)":"0c83f9d7","buyTrait(uint256)":"6273ca2c","cancelOwnershipHandover()":"54d1f13d","chonkMakeover(uint256,uint256,uint256,uint256,uint256,uint256,uint256,uint256,uint256,string)":"031db747","completeOwnershipHandover(address)":"f04e283e","equipAccessory(uint256,uint256)":"0447a45e","equipAll(uint256,uint256,uint256,uint256,uint256,uint256,uint256,uint256)":"4a4333a3","equipBottom(uint256,uint256)":"45a10d0f","equipFace(uint256,uint256)":"0f162320","equipHair(uint256,uint256)":"94cbd9c4","equipHead(uint256,uint256)":"1e162a33","equipShoes(uint256,uint256)":"60b77b23","equipTop(uint256,uint256)":"f18dc22d","firstSeasonRenderMinter()":"13ea0ae3","getApproved(uint256)":"081812fc","getBackpackSVGs(uint256)":"14fe8ff4","getBodyImage(bytes)":"e37db3c2","getBodyImageSvg(uint256)":"916c546b","getBodySVGZmapsAndMetadata((uint256,uint256,uint256,uint256,uint256,uint256,uint256,uint32,uint256,uint256,string,bool))":"cb0b831a","getBodySvgAndMetadata((uint256,uint256,uint256,uint256,uint256,uint256,uint256,uint32,uint256,uint256,string,bool))":"a9f5fa8c","getBodyZMap(uint256)":"306c7334","getOwnerAndTBAAddressForTokenId(uint256)":"cc9a5d37","getPeter(uint256)":"be928ff6","getPeterZMap(uint256)":"2bd1ca45","getTBAAddressForTokenId(uint256)":"8e29d3e9","getTokenRenderZ(uint256)":"8200ea51","getTraitTokens(address)":"998cfb6e","getTraitsForTokenId(uint256)":"850ad51a","isApprovedForAll(address,address)":"e985e9c5","mainRenderer()":"66b89b5a","mint()":"1249c58b","mintByLevel(uint8,string,bytes)":"cef80d4a","name()":"06fdde03","owner()":"8da5cb5b","ownerOf(uint256)":"6352211e","ownershipHandoverExpiresAt(address)":"fee81cf4","price()":"a035b1fe","renderAsDataUri(uint256)":"a1d62680","renderAsDataUriSVG(uint256)":"b28fbe40","renderAsDataUriZ(uint256)":"7557f2dc","renounceOwnership()":"715018a6","requestOwnershipHandover()":"25692962","safeTransferFrom(address,address,uint256)":"42842e0e","safeTransferFrom(address,address,uint256,bytes)":"b88d4fde","setApprovalForAll(address,bool)":"a22cb465","setBackgroundColor(uint256,string)":"d68c4f32","setBodyIndex(uint256,uint256)":"457e7e61","setFirstSeasonRenderMinter(address)":"58a97640","setMainRenderer(address)":"4ddb3961","setMaxTraitsToOutput(uint256)":"33d3d9bf","setPrice(uint256)":"91b7f5ed","setSystemAddress(address)":"06210197","setTokenRenderZ(uint256,bool)":"07f4e045","setTraitsContract(address)":"5eabd84a","setZRenderer(address)":"172b054d","supportsInterface(bytes4)":"01ffc9a7","symbol()":"95d89b41","tokenByIndex(uint256)":"4f6ccce7","tokenIdToTBAAccountAddress(uint256)":"9c05d68d","tokenOfOwnerByIndex(address,uint256)":"2f745c59","tokenURI(uint256)":"c87b56dd","totalSupply()":"18160ddd","traitsContract()":"c093afdb","transferFrom(address,address,uint256)":"23b872dd","transferOwnership(address)":"f2fde38b","unequipAccessory(uint256)":"293ed3f7","unequipAll(uint256)":"3044825b","unequipBottom(uint256)":"9c762015","unequipFace(uint256)":"d5b55c8b","unequipHair(uint256)":"105338e0","unequipHead(uint256)":"7afe8d34","unequipShoes(uint256)":"58180d35","unequipTop(uint256)":"347bd8f4","walletOfOwner(address)":"438b6300","zRenderer()":"a15c561b"},"id":40}