{"abi":[{"type":"constructor","inputs":[{"name":"localDeploy_","type":"bool","internalType":"bool"}],"stateMutability":"nonpayable"},{"type":"function","name":"_debugPostConstructorMint","inputs":[],"outputs":[],"stateMutability":"nonpayable"},{"type":"function","name":"addNewBody","inputs":[{"name":"_bodyIndex","type":"uint256","internalType":"uint256"},{"name":"_bodyName","type":"string","internalType":"string"},{"name":"_colorMap","type":"bytes","internalType":"bytes"},{"name":"_zMap","type":"bytes","internalType":"bytes"}],"outputs":[],"stateMutability":"nonpayable"},{"type":"function","name":"approve","inputs":[{"name":"to","type":"address","internalType":"address"},{"name":"tokenId","type":"uint256","internalType":"uint256"}],"outputs":[],"stateMutability":"nonpayable"},{"type":"function","name":"balanceOf","inputs":[{"name":"owner","type":"address","internalType":"address"}],"outputs":[{"name":"","type":"uint256","internalType":"uint256"}],"stateMutability":"view"},{"type":"function","name":"bodyIndexToMetadata","inputs":[{"name":"","type":"uint256","internalType":"uint256"}],"outputs":[{"name":"bodyIndex","type":"uint256","internalType":"uint256"},{"name":"bodyName","type":"string","internalType":"string"},{"name":"colorMap","type":"bytes","internalType":"bytes"},{"name":"zMap","type":"bytes","internalType":"bytes"}],"stateMutability":"view"},{"type":"function","name":"buyTrait","inputs":[{"name":"_tokenId","type":"uint256","internalType":"uint256"}],"outputs":[],"stateMutability":"nonpayable"},{"type":"function","name":"cancelOwnershipHandover","inputs":[],"outputs":[],"stateMutability":"payable"},{"type":"function","name":"completeOwnershipHandover","inputs":[{"name":"pendingOwner","type":"address","internalType":"address"}],"outputs":[],"stateMutability":"payable"},{"type":"function","name":"equipAccessory","inputs":[{"name":"_peterTokenId","type":"uint256","internalType":"uint256"},{"name":"_traitTokenId","type":"uint256","internalType":"uint256"}],"outputs":[],"stateMutability":"nonpayable"},{"type":"function","name":"equipAll","inputs":[{"name":"_peterTokenId","type":"uint256","internalType":"uint256"},{"name":"_headTokenId","type":"uint256","internalType":"uint256"},{"name":"_hairTokenId","type":"uint256","internalType":"uint256"},{"name":"_faceTokenId","type":"uint256","internalType":"uint256"},{"name":"_accessoryTokenId","type":"uint256","internalType":"uint256"},{"name":"_topTokenId","type":"uint256","internalType":"uint256"},{"name":"_bottomTokenId","type":"uint256","internalType":"uint256"},{"name":"_shoesTokenId","type":"uint256","internalType":"uint256"}],"outputs":[],"stateMutability":"nonpayable"},{"type":"function","name":"equipBottom","inputs":[{"name":"_peterTokenId","type":"uint256","internalType":"uint256"},{"name":"_traitTokenId","type":"uint256","internalType":"uint256"}],"outputs":[],"stateMutability":"nonpayable"},{"type":"function","name":"equipFace","inputs":[{"name":"_peterTokenId","type":"uint256","internalType":"uint256"},{"name":"_traitTokenId","type":"uint256","internalType":"uint256"}],"outputs":[],"stateMutability":"nonpayable"},{"type":"function","name":"equipHair","inputs":[{"name":"_peterTokenId","type":"uint256","internalType":"uint256"},{"name":"_traitTokenId","type":"uint256","internalType":"uint256"}],"outputs":[],"stateMutability":"nonpayable"},{"type":"function","name":"equipHead","inputs":[{"name":"_peterTokenId","type":"uint256","internalType":"uint256"},{"name":"_traitTokenId","type":"uint256","internalType":"uint256"}],"outputs":[],"stateMutability":"nonpayable"},{"type":"function","name":"equipShoes","inputs":[{"name":"_peterTokenId","type":"uint256","internalType":"uint256"},{"name":"_traitTokenId","type":"uint256","internalType":"uint256"}],"outputs":[],"stateMutability":"nonpayable"},{"type":"function","name":"equipTop","inputs":[{"name":"_peterTokenId","type":"uint256","internalType":"uint256"},{"name":"_traitTokenId","type":"uint256","internalType":"uint256"}],"outputs":[],"stateMutability":"nonpayable"},{"type":"function","name":"firstSeasonRenderMinter","inputs":[],"outputs":[{"name":"","type":"address","internalType":"contract FirstSeasonRenderMinter"}],"stateMutability":"view"},{"type":"function","name":"getApproved","inputs":[{"name":"tokenId","type":"uint256","internalType":"uint256"}],"outputs":[{"name":"","type":"address","internalType":"address"}],"stateMutability":"view"},{"type":"function","name":"getBackpackSVGs","inputs":[{"name":"_tokenId","type":"uint256","internalType":"uint256"}],"outputs":[{"name":"backpackSVGs","type":"string","internalType":"string"}],"stateMutability":"view"},{"type":"function","name":"getBodyImage","inputs":[{"name":"colorMap","type":"bytes","internalType":"bytes"}],"outputs":[{"name":"","type":"bytes","internalType":"bytes"}],"stateMutability":"pure"},{"type":"function","name":"getBodyImageSvg","inputs":[{"name":"_index","type":"uint256","internalType":"uint256"}],"outputs":[{"name":"svg","type":"string","internalType":"string"}],"stateMutability":"view"},{"type":"function","name":"getBodySVGZmapsAndMetadata","inputs":[{"name":"storedPeter","type":"tuple","internalType":"struct IPeterStorage.StoredPeter","components":[{"name":"headId","type":"uint256","internalType":"uint256"},{"name":"hairId","type":"uint256","internalType":"uint256"},{"name":"faceId","type":"uint256","internalType":"uint256"},{"name":"accessoryId","type":"uint256","internalType":"uint256"},{"name":"topId","type":"uint256","internalType":"uint256"},{"name":"bottomId","type":"uint256","internalType":"uint256"},{"name":"shoesId","type":"uint256","internalType":"uint256"},{"name":"epoch","type":"uint32","internalType":"uint32"},{"name":"tokenId","type":"uint256","internalType":"uint256"},{"name":"bodyIndex","type":"uint8","internalType":"uint8"},{"name":"backgroundColor","type":"string","internalType":"string"},{"name":"renderZ","type":"bool","internalType":"bool"}]}],"outputs":[{"name":"","type":"string","internalType":"string"},{"name":"","type":"bytes","internalType":"bytes"},{"name":"","type":"string","internalType":"string"}],"stateMutability":"view"},{"type":"function","name":"getBodySvgAndMetadata","inputs":[{"name":"storedPeter","type":"tuple","internalType":"struct IPeterStorage.StoredPeter","components":[{"name":"headId","type":"uint256","internalType":"uint256"},{"name":"hairId","type":"uint256","internalType":"uint256"},{"name":"faceId","type":"uint256","internalType":"uint256"},{"name":"accessoryId","type":"uint256","internalType":"uint256"},{"name":"topId","type":"uint256","internalType":"uint256"},{"name":"bottomId","type":"uint256","internalType":"uint256"},{"name":"shoesId","type":"uint256","internalType":"uint256"},{"name":"epoch","type":"uint32","internalType":"uint32"},{"name":"tokenId","type":"uint256","internalType":"uint256"},{"name":"bodyIndex","type":"uint8","internalType":"uint8"},{"name":"backgroundColor","type":"string","internalType":"string"},{"name":"renderZ","type":"bool","internalType":"bool"}]}],"outputs":[{"name":"","type":"string","internalType":"string"},{"name":"","type":"string","internalType":"string"}],"stateMutability":"view"},{"type":"function","name":"getBodyZMap","inputs":[{"name":"_tokenId","type":"uint256","internalType":"uint256"}],"outputs":[{"name":"","type":"string","internalType":"string"}],"stateMutability":"view"},{"type":"function","name":"getFullPictureForTrait","inputs":[{"name":"_chonkTraitTokenId","type":"uint256","internalType":"uint256"}],"outputs":[{"name":"traitOwnerTBA","type":"address","internalType":"address"},{"name":"chonkTokenId","type":"uint256","internalType":"uint256"},{"name":"chonkOwner","type":"address","internalType":"address"}],"stateMutability":"view"},{"type":"function","name":"getOwnerAndTBAAddressForChonkId","inputs":[{"name":"_chonkId","type":"uint256","internalType":"uint256"}],"outputs":[{"name":"owner","type":"address","internalType":"address"},{"name":"tbaAddress","type":"address","internalType":"address"}],"stateMutability":"view"},{"type":"function","name":"getPeter","inputs":[{"name":"_tokenId","type":"uint256","internalType":"uint256"}],"outputs":[{"name":"","type":"tuple","internalType":"struct IPeterStorage.StoredPeter","components":[{"name":"headId","type":"uint256","internalType":"uint256"},{"name":"hairId","type":"uint256","internalType":"uint256"},{"name":"faceId","type":"uint256","internalType":"uint256"},{"name":"accessoryId","type":"uint256","internalType":"uint256"},{"name":"topId","type":"uint256","internalType":"uint256"},{"name":"bottomId","type":"uint256","internalType":"uint256"},{"name":"shoesId","type":"uint256","internalType":"uint256"},{"name":"epoch","type":"uint32","internalType":"uint32"},{"name":"tokenId","type":"uint256","internalType":"uint256"},{"name":"bodyIndex","type":"uint8","internalType":"uint8"},{"name":"backgroundColor","type":"string","internalType":"string"},{"name":"renderZ","type":"bool","internalType":"bool"}]}],"stateMutability":"view"},{"type":"function","name":"getPeterZMap","inputs":[{"name":"_tokenId","type":"uint256","internalType":"uint256"}],"outputs":[{"name":"","type":"string","internalType":"string"}],"stateMutability":"view"},{"type":"function","name":"getTBAAddressForChonkId","inputs":[{"name":"_chonkId","type":"uint256","internalType":"uint256"}],"outputs":[{"name":"","type":"address","internalType":"address"}],"stateMutability":"view"},{"type":"function","name":"getTokenRenderZ","inputs":[{"name":"_peterTokenId","type":"uint256","internalType":"uint256"}],"outputs":[{"name":"","type":"bool","internalType":"bool"}],"stateMutability":"view"},{"type":"function","name":"getTraitTokens","inputs":[{"name":"_tbaAddress","type":"address","internalType":"address"}],"outputs":[{"name":"","type":"uint256[]","internalType":"uint256[]"}],"stateMutability":"view"},{"type":"function","name":"getTraitsForChonkId","inputs":[{"name":"_chonkId","type":"uint256","internalType":"uint256"}],"outputs":[{"name":"traitTokens","type":"uint256[]","internalType":"uint256[]"}],"stateMutability":"view"},{"type":"function","name":"isApprovedForAll","inputs":[{"name":"owner","type":"address","internalType":"address"},{"name":"operator","type":"address","internalType":"address"}],"outputs":[{"name":"","type":"bool","internalType":"bool"}],"stateMutability":"view"},{"type":"function","name":"mainRenderer","inputs":[],"outputs":[{"name":"","type":"address","internalType":"contract MainRenderer"}],"stateMutability":"view"},{"type":"function","name":"marketplace","inputs":[],"outputs":[{"name":"","type":"address","internalType":"contract ChonksMarket"}],"stateMutability":"view"},{"type":"function","name":"mint","inputs":[],"outputs":[],"stateMutability":"payable"},{"type":"function","name":"mintByLevel","inputs":[{"name":"amount","type":"uint8","internalType":"uint8"},{"name":"nonce","type":"string","internalType":"string"},{"name":"signature","type":"bytes","internalType":"bytes"}],"outputs":[],"stateMutability":"payable"},{"type":"function","name":"name","inputs":[],"outputs":[{"name":"","type":"string","internalType":"string"}],"stateMutability":"view"},{"type":"function","name":"owner","inputs":[],"outputs":[{"name":"result","type":"address","internalType":"address"}],"stateMutability":"view"},{"type":"function","name":"ownerOf","inputs":[{"name":"tokenId","type":"uint256","internalType":"uint256"}],"outputs":[{"name":"","type":"address","internalType":"address"}],"stateMutability":"view"},{"type":"function","name":"ownershipHandoverExpiresAt","inputs":[{"name":"pendingOwner","type":"address","internalType":"address"}],"outputs":[{"name":"result","type":"uint256","internalType":"uint256"}],"stateMutability":"view"},{"type":"function","name":"peterMakeover","inputs":[{"name":"_peterTokenId","type":"uint256","internalType":"uint256"},{"name":"_headTokenId","type":"uint256","internalType":"uint256"},{"name":"_hairTokenId","type":"uint256","internalType":"uint256"},{"name":"_faceTokenId","type":"uint256","internalType":"uint256"},{"name":"_accessoryTokenId","type":"uint256","internalType":"uint256"},{"name":"_topTokenId","type":"uint256","internalType":"uint256"},{"name":"_bottomTokenId","type":"uint256","internalType":"uint256"},{"name":"_shoesTokenId","type":"uint256","internalType":"uint256"},{"name":"_bodyIndex","type":"uint8","internalType":"uint8"},{"name":"_backgroundColor","type":"string","internalType":"string"}],"outputs":[],"stateMutability":"nonpayable"},{"type":"function","name":"price","inputs":[],"outputs":[{"name":"","type":"uint256","internalType":"uint256"}],"stateMutability":"view"},{"type":"function","name":"renderAsDataUri","inputs":[{"name":"_tokenId","type":"uint256","internalType":"uint256"}],"outputs":[{"name":"","type":"string","internalType":"string"}],"stateMutability":"view"},{"type":"function","name":"renderAsDataUriSVG","inputs":[{"name":"_tokenId","type":"uint256","internalType":"uint256"}],"outputs":[{"name":"","type":"string","internalType":"string"}],"stateMutability":"view"},{"type":"function","name":"renderAsDataUriZ","inputs":[{"name":"_tokenId","type":"uint256","internalType":"uint256"}],"outputs":[{"name":"","type":"string","internalType":"string"}],"stateMutability":"view"},{"type":"function","name":"renounceOwnership","inputs":[],"outputs":[],"stateMutability":"payable"},{"type":"function","name":"requestOwnershipHandover","inputs":[],"outputs":[],"stateMutability":"payable"},{"type":"function","name":"safeTransferFrom","inputs":[{"name":"from","type":"address","internalType":"address"},{"name":"to","type":"address","internalType":"address"},{"name":"tokenId","type":"uint256","internalType":"uint256"}],"outputs":[],"stateMutability":"nonpayable"},{"type":"function","name":"safeTransferFrom","inputs":[{"name":"from","type":"address","internalType":"address"},{"name":"to","type":"address","internalType":"address"},{"name":"tokenId","type":"uint256","internalType":"uint256"},{"name":"data","type":"bytes","internalType":"bytes"}],"outputs":[],"stateMutability":"nonpayable"},{"type":"function","name":"setApprovalForAll","inputs":[{"name":"operator","type":"address","internalType":"address"},{"name":"approved","type":"bool","internalType":"bool"}],"outputs":[],"stateMutability":"nonpayable"},{"type":"function","name":"setBackgroundColor","inputs":[{"name":"_peterTokenId","type":"uint256","internalType":"uint256"},{"name":"_color","type":"string","internalType":"string"}],"outputs":[],"stateMutability":"nonpayable"},{"type":"function","name":"setBodyIndex","inputs":[{"name":"_peterTokenId","type":"uint256","internalType":"uint256"},{"name":"_bodyIndex","type":"uint8","internalType":"uint8"}],"outputs":[],"stateMutability":"nonpayable"},{"type":"function","name":"setFirstSeasonRenderMinter","inputs":[{"name":"_dataContract","type":"address","internalType":"address"}],"outputs":[],"stateMutability":"nonpayable"},{"type":"function","name":"setMainRenderer","inputs":[{"name":"_mainRenderer","type":"address","internalType":"address"}],"outputs":[],"stateMutability":"nonpayable"},{"type":"function","name":"setMarketplace","inputs":[{"name":"_marketplace","type":"address","internalType":"address"}],"outputs":[],"stateMutability":"nonpayable"},{"type":"function","name":"setMaxTraitsToOutput","inputs":[{"name":"_maxTraitsToOutput","type":"uint256","internalType":"uint256"}],"outputs":[],"stateMutability":"nonpayable"},{"type":"function","name":"setPrice","inputs":[{"name":"_priceInWei","type":"uint256","internalType":"uint256"}],"outputs":[],"stateMutability":"nonpayable"},{"type":"function","name":"setSystemAddress","inputs":[{"name":"_systemAddress","type":"address","internalType":"address"}],"outputs":[],"stateMutability":"nonpayable"},{"type":"function","name":"setTokenRenderZ","inputs":[{"name":"_peterTokenId","type":"uint256","internalType":"uint256"},{"name":"_renderZ","type":"bool","internalType":"bool"}],"outputs":[],"stateMutability":"nonpayable"},{"type":"function","name":"setTraitsContract","inputs":[{"name":"_address","type":"address","internalType":"contract PeterTraits"}],"outputs":[],"stateMutability":"nonpayable"},{"type":"function","name":"setZRenderer","inputs":[{"name":"_zRenderer","type":"address","internalType":"address"}],"outputs":[],"stateMutability":"nonpayable"},{"type":"function","name":"supportsInterface","inputs":[{"name":"interfaceId","type":"bytes4","internalType":"bytes4"}],"outputs":[{"name":"","type":"bool","internalType":"bool"}],"stateMutability":"view"},{"type":"function","name":"symbol","inputs":[],"outputs":[{"name":"","type":"string","internalType":"string"}],"stateMutability":"view"},{"type":"function","name":"tbaAddressToTokenId","inputs":[{"name":"","type":"address","internalType":"address"}],"outputs":[{"name":"","type":"uint256","internalType":"uint256"}],"stateMutability":"view"},{"type":"function","name":"tokenByIndex","inputs":[{"name":"index","type":"uint256","internalType":"uint256"}],"outputs":[{"name":"","type":"uint256","internalType":"uint256"}],"stateMutability":"view"},{"type":"function","name":"tokenIdToTBAAccountAddress","inputs":[{"name":"","type":"uint256","internalType":"uint256"}],"outputs":[{"name":"","type":"address","internalType":"address"}],"stateMutability":"view"},{"type":"function","name":"tokenOfOwnerByIndex","inputs":[{"name":"owner","type":"address","internalType":"address"},{"name":"index","type":"uint256","internalType":"uint256"}],"outputs":[{"name":"","type":"uint256","internalType":"uint256"}],"stateMutability":"view"},{"type":"function","name":"tokenURI","inputs":[{"name":"_tokenId","type":"uint256","internalType":"uint256"}],"outputs":[{"name":"","type":"string","internalType":"string"}],"stateMutability":"view"},{"type":"function","name":"totalSupply","inputs":[],"outputs":[{"name":"","type":"uint256","internalType":"uint256"}],"stateMutability":"view"},{"type":"function","name":"traitsContract","inputs":[],"outputs":[{"name":"","type":"address","internalType":"contract PeterTraits"}],"stateMutability":"view"},{"type":"function","name":"transferFrom","inputs":[{"name":"from","type":"address","internalType":"address"},{"name":"to","type":"address","internalType":"address"},{"name":"tokenId","type":"uint256","internalType":"uint256"}],"outputs":[],"stateMutability":"nonpayable"},{"type":"function","name":"transferOwnership","inputs":[{"name":"newOwner","type":"address","internalType":"address"}],"outputs":[],"stateMutability":"payable"},{"type":"function","name":"unequipAccessory","inputs":[{"name":"_peterTokenId","type":"uint256","internalType":"uint256"}],"outputs":[],"stateMutability":"nonpayable"},{"type":"function","name":"unequipAll","inputs":[{"name":"_peterTokenId","type":"uint256","internalType":"uint256"}],"outputs":[],"stateMutability":"nonpayable"},{"type":"function","name":"unequipBottom","inputs":[{"name":"_peterTokenId","type":"uint256","internalType":"uint256"}],"outputs":[],"stateMutability":"nonpayable"},{"type":"function","name":"unequipFace","inputs":[{"name":"_peterTokenId","type":"uint256","internalType":"uint256"}],"outputs":[],"stateMutability":"nonpayable"},{"type":"function","name":"unequipHair","inputs":[{"name":"_peterTokenId","type":"uint256","internalType":"uint256"}],"outputs":[],"stateMutability":"nonpayable"},{"type":"function","name":"unequipHead","inputs":[{"name":"_peterTokenId","type":"uint256","internalType":"uint256"}],"outputs":[],"stateMutability":"nonpayable"},{"type":"function","name":"unequipShoes","inputs":[{"name":"_peterTokenId","type":"uint256","internalType":"uint256"}],"outputs":[],"stateMutability":"nonpayable"},{"type":"function","name":"unequipTop","inputs":[{"name":"_peterTokenId","type":"uint256","internalType":"uint256"}],"outputs":[],"stateMutability":"nonpayable"},{"type":"function","name":"walletOfOwner","inputs":[{"name":"_owner","type":"address","internalType":"address"}],"outputs":[{"name":"","type":"uint256[]","internalType":"uint256[]"}],"stateMutability":"view"},{"type":"function","name":"zRenderer","inputs":[],"outputs":[{"name":"","type":"address","internalType":"contract ZRenderer"}],"stateMutability":"view"},{"type":"event","name":"Approval","inputs":[{"name":"owner","type":"address","indexed":true,"internalType":"address"},{"name":"approved","type":"address","indexed":true,"internalType":"address"},{"name":"tokenId","type":"uint256","indexed":true,"internalType":"uint256"}],"anonymous":false},{"type":"event","name":"ApprovalForAll","inputs":[{"name":"owner","type":"address","indexed":true,"internalType":"address"},{"name":"operator","type":"address","indexed":true,"internalType":"address"},{"name":"approved","type":"bool","indexed":false,"internalType":"bool"}],"anonymous":false},{"type":"event","name":"BackgroundColor","inputs":[{"name":"owner","type":"address","indexed":true,"internalType":"address"},{"name":"tokenId","type":"uint256","indexed":true,"internalType":"uint256"},{"name":"color","type":"string","indexed":false,"internalType":"string"}],"anonymous":false},{"type":"event","name":"BatchMetadataUpdate","inputs":[{"name":"_fromTokenId","type":"uint256","indexed":false,"internalType":"uint256"},{"name":"_toTokenId","type":"uint256","indexed":false,"internalType":"uint256"}],"anonymous":false},{"type":"event","name":"BodyIndex","inputs":[{"name":"owner","type":"address","indexed":true,"internalType":"address"},{"name":"tokenId","type":"uint256","indexed":true,"internalType":"uint256"},{"name":"_bodyIndex","type":"uint8","indexed":false,"internalType":"uint8"}],"anonymous":false},{"type":"event","name":"Equip","inputs":[{"name":"owner","type":"address","indexed":true,"internalType":"address"},{"name":"tokenId","type":"uint256","indexed":true,"internalType":"uint256"},{"name":"traitTokenId","type":"uint256","indexed":true,"internalType":"uint256"},{"name":"traitCategory","type":"string","indexed":false,"internalType":"string"}],"anonymous":false},{"type":"event","name":"EquipAll","inputs":[{"name":"owner","type":"address","indexed":true,"internalType":"address"},{"name":"tokenId","type":"uint256","indexed":true,"internalType":"uint256"}],"anonymous":false},{"type":"event","name":"MetadataUpdate","inputs":[{"name":"_tokenId","type":"uint256","indexed":false,"internalType":"uint256"}],"anonymous":false},{"type":"event","name":"Mint","inputs":[{"name":"owner","type":"address","indexed":true,"internalType":"address"},{"name":"tokenId","type":"uint256","indexed":true,"internalType":"uint256"}],"anonymous":false},{"type":"event","name":"OwnershipHandoverCanceled","inputs":[{"name":"pendingOwner","type":"address","indexed":true,"internalType":"address"}],"anonymous":false},{"type":"event","name":"OwnershipHandoverRequested","inputs":[{"name":"pendingOwner","type":"address","indexed":true,"internalType":"address"}],"anonymous":false},{"type":"event","name":"OwnershipTransferred","inputs":[{"name":"oldOwner","type":"address","indexed":true,"internalType":"address"},{"name":"newOwner","type":"address","indexed":true,"internalType":"address"}],"anonymous":false},{"type":"event","name":"RenderZ","inputs":[{"name":"owner","type":"address","indexed":true,"internalType":"address"},{"name":"tokenId","type":"uint256","indexed":true,"internalType":"uint256"},{"name":"renderZ","type":"bool","indexed":false,"internalType":"bool"}],"anonymous":false},{"type":"event","name":"Transfer","inputs":[{"name":"from","type":"address","indexed":true,"internalType":"address"},{"name":"to","type":"address","indexed":true,"internalType":"address"},{"name":"tokenId","type":"uint256","indexed":true,"internalType":"uint256"}],"anonymous":false},{"type":"event","name":"Unequip","inputs":[{"name":"owner","type":"address","indexed":true,"internalType":"address"},{"name":"tokenId","type":"uint256","indexed":true,"internalType":"uint256"},{"name":"traitCategory","type":"string","indexed":true,"internalType":"string"}],"anonymous":false},{"type":"event","name":"UnequipAll","inputs":[{"name":"owner","type":"address","indexed":true,"internalType":"address"},{"name":"tokenId","type":"uint256","indexed":true,"internalType":"uint256"}],"anonymous":false},{"type":"error","name":"AlreadyInitialized","inputs":[]},{"type":"error","name":"BodyAlreadyExists","inputs":[]},{"type":"error","name":"CantTransferToTBAs","inputs":[]},{"type":"error","name":"FirstSeasonRenderMinterNotSet","inputs":[]},{"type":"error","name":"IncorrectPeterOwner","inputs":[]},{"type":"error","name":"IncorrectTBAOwner","inputs":[]},{"type":"error","name":"IncorrectTraitType","inputs":[]},{"type":"error","name":"InvalidBodyIndex","inputs":[]},{"type":"error","name":"InvalidColor","inputs":[]},{"type":"error","name":"InvalidLevelAmount","inputs":[]},{"type":"error","name":"InvalidSignature","inputs":[]},{"type":"error","name":"NewOwnerIsZeroAddress","inputs":[]},{"type":"error","name":"NoHandoverRequest","inputs":[]},{"type":"error","name":"NonceAlreadyUsed","inputs":[]},{"type":"error","name":"PeterDoesntExist","inputs":[]},{"type":"error","name":"Unauthorized","inputs":[]}],"bytecode":{"object":"0x608060405260636013553480156200001657600080fd5b506040516200680938038062006809833981016040819052620000399162000101565b6040518060400160405280600a81526020016914195d195c8815195cdd60b21b815250604051806040016040528060058152602001642822aa22a960d91b81525081600090816200008b9190620001d3565b5060016200009a8282620001d3565b505050620000ae33620000c560201b60201c565b600a805460ff19169115159190911790556200029f565b6001600160a01b0316638b78c6d8198190558060007f8be0079c531659141344cd1fd0a4f28419497f9722a3daafe3b4186f6b6457e08180a350565b6000602082840312156200011457600080fd5b815180151581146200012557600080fd5b9392505050565b634e487b7160e01b600052604160045260246000fd5b600181811c908216806200015757607f821691505b6020821081036200017857634e487b7160e01b600052602260045260246000fd5b50919050565b601f821115620001ce576000816000526020600020601f850160051c81016020861015620001a95750805b601f850160051c820191505b81811015620001ca57828155600101620001b5565b5050505b505050565b81516001600160401b03811115620001ef57620001ef6200012c565b620002078162000200845462000142565b846200017e565b602080601f8311600181146200023f5760008415620002265750858301515b600019600386901b1c1916600185901b178555620001ca565b600085815260208120601f198616915b8281101562000270578886015182559484019460019091019084016200024f565b50858210156200028f5787850151600019600388901b60f8161c191681555b5050505050600190811b01905550565b61655a80620002af6000396000f3fe6080604052600436106104945760003560e01c806370a0823111610260578063a22cb46511610144578063d5b55c8b116100c1578063f04e283e11610085578063f04e283e14610ec6578063f18dc22d14610ed9578063f2361e2314610ef9578063f2fde38b14610f19578063f6a0c93214610f2c578063fee81cf414610f6257600080fd5b8063d5b55c8b14610dfd578063d68c4f3214610e1d578063e140554014610e3d578063e37db3c214610e5d578063e985e9c514610e7d57600080fd5b8063b88d4fde11610108578063b88d4fde14610d5d578063be928ff614610d7d578063c093afdb14610daa578063c87b56dd14610dca578063cef80d4a14610dea57600080fd5b8063a22cb46514610ca2578063a23830ae14610cc2578063a4bf9a0014610cf0578063abc8c7af14610d1d578063b28fbe4014610d3d57600080fd5b806393ccba72116101dd5780639c762015116101a15780639c76201514610bf75780639c7be2f114610c175780639f6e463714610c2c578063a035b1fe14610c4c578063a15c561b14610c62578063a1d6268014610c8257600080fd5b806393ccba7214610b4c57806394cbd9c414610b6c57806395d89b4114610b8c578063998cfb6e14610ba15780639c05d68d14610bc157600080fd5b80638200ea51116102245780638200ea5114610a905780638da5cb5b14610ac4578063916c546b14610add57806391b7f5ed14610afd57806392012f0814610b1d57600080fd5b806370a0823114610a08578063715018a614610a2857806373ad6c2d14610a305780637557f2dc14610a505780637afe8d3414610a7057600080fd5b80632bd1ca45116103875780634ddb3961116103045780635eabd84a116102c85780635eabd84a1461091e57806360b77b231461093e5780636273ca2c1461095e5780636352211e1461097e578063667043491461099e57806366b89b5a146109e857600080fd5b80634ddb3961146108965780634f6ccce7146108b657806354d1f13d146108d657806358180d35146108de57806358a97640146108fe57600080fd5b8063347bd8f41161034b578063347bd8f4146107e957806342842e0e14610809578063438b63001461082957806345a10d0f146108565780634a4333a31461087657600080fd5b80632bd1ca45146107495780632f745c59146107695780633044825b14610789578063306c7334146107a957806333d3d9bf146107c957600080fd5b8063105338e01161041557806318160ddd116103d957806318160ddd146106c25780631e162a33146106e157806323b872dd146107015780632569296214610721578063293ed3f71461072957600080fd5b8063105338e01461063a5780631249c58b1461065a57806313ea0ae31461066257806314fe8ff414610682578063172b054d146106a257600080fd5b806307f4e0451161045c57806307f4e04514610572578063081812fc14610592578063095ea7b3146105ca5780630c83f9d7146105ea5780630f1623201461061a57600080fd5b806301ffc9a71461049957806304003bd0146104ce5780630447a45e1461050e578063062101971461053057806306fdde0314610550575b600080fd5b3480156104a557600080fd5b506104b96104b4366004614cf8565b610f95565b60405190151581526020015b60405180910390f35b3480156104da57600080fd5b506104ee6104e9366004614d15565b610fa6565b604080516001600160a01b039384168152929091166020830152016104c5565b34801561051a57600080fd5b5061052e610529366004614d2e565b610fd5565b005b34801561053c57600080fd5b5061052e61054b366004614d65565b611057565b34801561055c57600080fd5b50610565611081565b6040516104c59190614dd2565b34801561057e57600080fd5b5061052e61058d366004614dfa565b611113565b34801561059e57600080fd5b506105b26105ad366004614d15565b61118c565b6040516001600160a01b0390911681526020016104c5565b3480156105d657600080fd5b5061052e6105e5366004614e26565b6111b3565b3480156105f657600080fd5b5061060a610605366004614d15565b6112cd565b6040516104c59493929190614e52565b34801561062657600080fd5b5061052e610635366004614d2e565b61148e565b34801561064657600080fd5b5061052e610655366004614d15565b6114ff565b61052e611577565b34801561066e57600080fd5b506016546105b2906001600160a01b031681565b34801561068e57600080fd5b5061056561069d366004614d15565b611583565b3480156106ae57600080fd5b5061052e6106bd366004614d65565b6117fc565b3480156106ce57600080fd5b506008545b6040519081526020016104c5565b3480156106ed57600080fd5b5061052e6106fc366004614d2e565b611826565b34801561070d57600080fd5b5061052e61071c366004614e9c565b611894565b61052e6118c5565b34801561073557600080fd5b5061052e610744366004614d15565b611914565b34801561075557600080fd5b50610565610764366004614d15565b61194b565b34801561077557600080fd5b506106d3610784366004614e26565b611a0f565b34801561079557600080fd5b5061052e6107a4366004614d15565b611aa5565b3480156107b557600080fd5b506105656107c4366004614d15565b611b2d565b3480156107d557600080fd5b5061052e6107e4366004614d15565b611b50565b3480156107f557600080fd5b5061052e610804366004614d15565b611b5d565b34801561081557600080fd5b5061052e610824366004614e9c565b611b8e565b34801561083557600080fd5b50610849610844366004614d65565b611ba9565b6040516104c59190614edd565b34801561086257600080fd5b5061052e610871366004614d2e565b611c40565b34801561088257600080fd5b5061052e610891366004614f21565b611cb3565b3480156108a257600080fd5b5061052e6108b1366004614d65565b611d6c565b3480156108c257600080fd5b506106d36108d1366004614d15565b611d96565b61052e611e29565b3480156108ea57600080fd5b5061052e6108f9366004614d15565b611e65565b34801561090a57600080fd5b5061052e610919366004614d65565b611e98565b34801561092a57600080fd5b5061052e610939366004614d65565b611ec2565b34801561094a57600080fd5b5061052e610959366004614d2e565b611eec565b34801561096a57600080fd5b5061052e610979366004614d15565b611f5e565b34801561098a57600080fd5b506105b2610999366004614d15565b611fe2565b3480156109aa57600080fd5b506109be6109b9366004614d15565b612042565b604080516001600160a01b03948516815260208101939093529216918101919091526060016104c5565b3480156109f457600080fd5b506017546105b2906001600160a01b031681565b348015610a1457600080fd5b506106d3610a23366004614d65565b6120e3565b61052e612169565b348015610a3c57600080fd5b5061052e610a4b366004614d65565b61217b565b348015610a5c57600080fd5b50610565610a6b366004614d15565b6121a5565b348015610a7c57600080fd5b5061052e610a8b366004614d15565b612470565b348015610a9c57600080fd5b506104b9610aab366004614d15565b6000908152600b60208190526040909120015460ff1690565b348015610ad057600080fd5b50638b78c6d819546105b2565b348015610ae957600080fd5b50610565610af8366004614d15565b61249f565b348015610b0957600080fd5b5061052e610b18366004614d15565b6125c3565b348015610b2957600080fd5b50610b3d610b38366004615087565b6125d0565b6040516104c593929190615180565b348015610b5857600080fd5b5061052e610b673660046151c3565b61276e565b348015610b7857600080fd5b5061052e610b87366004614d2e565b61279e565b348015610b9857600080fd5b5061056561280f565b348015610bad57600080fd5b50610849610bbc366004614d65565b61281e565b348015610bcd57600080fd5b506105b2610bdc366004614d15565b6014602052600090815260409020546001600160a01b031681565b348015610c0357600080fd5b5061052e610c12366004614d15565b612894565b348015610c2357600080fd5b5061052e6128c8565b348015610c3857600080fd5b50610849610c47366004614d15565b612924565b348015610c5857600080fd5b506106d360125481565b348015610c6e57600080fd5b506018546105b2906001600160a01b031681565b348015610c8e57600080fd5b50610565610c9d366004614d15565b612948565b348015610cae57600080fd5b5061052e610cbd36600461525f565b612978565b348015610cce57600080fd5b50610ce2610cdd366004615087565b612987565b6040516104c592919061528b565b348015610cfc57600080fd5b506106d3610d0b366004614d65565b60156020526000908152604090205481565b348015610d2957600080fd5b506010546105b2906001600160a01b031681565b348015610d4957600080fd5b50610565610d58366004614d15565b6129f2565b348015610d6957600080fd5b5061052e610d783660046152b9565b612c72565b348015610d8957600080fd5b50610d9d610d98366004614d15565b612caa565b6040516104c59190615324565b348015610db657600080fd5b50600f546105b2906001600160a01b031681565b348015610dd657600080fd5b50610565610de5366004614d15565b612e50565b61052e610df836600461541d565b612e91565b348015610e0957600080fd5b5061052e610e18366004614d15565b612f9c565b348015610e2957600080fd5b5061052e610e3836600461549d565b612fce565b348015610e4957600080fd5b5061052e610e583660046154e3565b6131c1565b348015610e6957600080fd5b50610565610e78366004615506565b613260565b348015610e8957600080fd5b506104b9610e9836600461553a565b6001600160a01b03918216600090815260056020908152604080832093909416825291909152205460ff1690565b61052e610ed4366004614d65565b613512565b348015610ee557600080fd5b5061052e610ef4366004614d2e565b613552565b348015610f0557600080fd5b5061052e610f14366004615573565b6135c2565b61052e610f27366004614d65565b61360f565b348015610f3857600080fd5b506105b2610f47366004614d15565b6000908152601460205260409020546001600160a01b031690565b348015610f6e57600080fd5b506106d3610f7d366004614d65565b63389a75e1600c908152600091909152602090205490565b6000610fa082613636565b92915050565b600080610fb283611fe2565b6000938452601460205260409093205492936001600160a01b0390931692915050565b610fdf828261365b565b610fea81600461371a565b6000828152600b60205260409020600301819055808261100981611fe2565b6001600160a01b031660008051602061600083398151915260405161104b906020808252600990820152684163636573736f727960b81b604082015260600190565b60405180910390a45050565b61105f61381c565b601a80546001600160a01b0319166001600160a01b0392909216919091179055565b606060008054611090906155f8565b80601f01602080910402602001604051908101604052809291908181526020018280546110bc906155f8565b80156111095780601f106110de57610100808354040283529160200191611109565b820191906000526020600020905b8154815290600101906020018083116110ec57829003601f168201915b5050505050905090565b61111c82613837565b6000828152600b6020819052604090912001805460ff19168215151790558161114481611fe2565b6001600160a01b03167f0b42132106437554485bc84e473475fc8313b019bfc026285cf6ed57639803b883604051611180911515815260200190565b60405180910390a35050565b600061119782613871565b506000908152600460205260409020546001600160a01b031690565b60006111be82611fe2565b9050806001600160a01b0316836001600160a01b0316036112305760405162461bcd60e51b815260206004820152602160248201527f4552433732313a20617070726f76616c20746f2063757272656e74206f776e656044820152603960f91b60648201526084015b60405180910390fd5b336001600160a01b038216148061124c575061124c8133610e98565b6112be5760405162461bcd60e51b815260206004820152603e60248201527f4552433732313a20617070726f76652063616c6c6572206973206e6f7420746f60448201527f6b656e206f776e6572206e6f7220617070726f76656420666f7220616c6c00006064820152608401611227565b6112c883836138d0565b505050565b600e60205260009081526040902080546001820180549192916112ef906155f8565b80601f016020809104026020016040519081016040528092919081815260200182805461131b906155f8565b80156113685780601f1061133d57610100808354040283529160200191611368565b820191906000526020600020905b81548152906001019060200180831161134b57829003601f168201915b50505050509080600201805461137d906155f8565b80601f01602080910402602001604051908101604052809291908181526020018280546113a9906155f8565b80156113f65780601f106113cb576101008083540402835291602001916113f6565b820191906000526020600020905b8154815290600101906020018083116113d957829003601f168201915b50505050509080600301805461140b906155f8565b80601f0160208091040260200160405190810160405280929190818152602001828054611437906155f8565b80156114845780601f1061145957610100808354040283529160200191611484565b820191906000526020600020905b81548152906001019060200180831161146757829003601f168201915b5050505050905084565b611498828261365b565b6114a381600361371a565b6000828152600b6020526040902060020181905580826114c281611fe2565b6001600160a01b031660008051602061600083398151915260405161104b906020808252600490820152634661636560e01b604082015260600190565b61150881613837565b6000818152600b60205260408082206001019190915551632430b4b960e11b81526004015b60405180910390208161153f83611fe2565b6001600160a01b03167fe428b1839105819dce5e635ac7e16ed2a43028f6e294bab8655e29acb5dc60bb60405160405180910390a450565b611581600461393e565b565b6060600061159083612924565b905060006040518060400160405280601b81526020017f3c7376672076696577426f783d223020302031353020313530223e000000000081525090506000604051806040016040528060068152602001651e17b9bb339f60d11b815250905060606000600f60009054906101000a90046001600160a01b03166001600160a01b0316635c1ef2566040518163ffffffff1660e01b8152600401600060405180830381865afa158015611646573d6000803e3d6000fd5b505050506040513d6000823e601f3d908101601f1916820160405261166e9190810190615682565b9050600060135486511061168457601354611687565b85515b905060405180610540016040528061050581526020016160206105059139826040516020016116b79291906156b6565b604051602081830303815290604052925060005b8181101561179c57600f5487516000916001600160a01b03169063c7791531908a90859081106116fd576116fd61570d565b60200260200101516040518263ffffffff1660e01b815260040161172391815260200190565b600060405180830381865afa158015611740573d6000803e3d6000fd5b505050506040513d6000823e601f3d908101601f191682016040526117689190810190615682565b9050848782886040516020016117819493929190615723565b60408051601f198184030181529190529450506001016116cb565b50601354865111156117cf578285856040516020016117bd9392919061577a565b60405160208183030381529060405292505b826040516020016117e09190615895565b60408051601f1981840301815291905298975050505050505050565b61180461381c565b601880546001600160a01b0319166001600160a01b0392909216919091179055565b611830828261365b565b61183b81600161371a565b6000828152600b60205260409020819055808261185781611fe2565b6001600160a01b031660008051602061600083398151915260405161104b906020808252600490820152631219585960e21b604082015260600190565b61189e3382613ca0565b6118ba5760405162461bcd60e51b8152600401611227906158bd565b6112c8838383613d1f565b60006202a3006001600160401b03164201905063389a75e1600c5233600052806020600c2055337fdbf36a107da19e49527a7176a1babf963b4b0ff8cde35ee35d6cd8f1f9ac7e1d600080a250565b61191d81613837565b6000818152600b60205260408082206003019190915551684163636573736f727960b81b815260090161152d565b6060806060600061195b85612caa565b9050611966816125d0565b50600f5460405163bb12d21d60e01b81529195506001600160a01b0316915063bb12d21d90611999908490600401615324565b600060405180830381865afa1580156119b6573d6000803e3d6000fd5b505050506040513d6000823e601f3d908101601f191682016040526119de919081019061590b565b506040519093506119f69150849084906020016159a9565b6040516020818303038152906040529350505050919050565b6000611a1a836120e3565b8210611a7c5760405162461bcd60e51b815260206004820152602b60248201527f455243373231456e756d657261626c653a206f776e657220696e646578206f7560448201526a74206f6620626f756e647360a81b6064820152608401611227565b506001600160a01b03919091166000908152600660209081526040808320938352929052205490565b611aae81613837565b6000818152600b602052604081208181556001810182905560028101829055600381018290556004810182905560058101829055600681019190915581611af481611fe2565b6001600160a01b03167f46078a2cd4c69c3b4a27bdc69fdfe03d442ebcf405f1a68e9b5df6bc3e24429760405160405180910390a35050565b6060806000611b3b84612caa565b9050611b46816125d0565b5095945050505050565b611b5861381c565b601355565b611b6681613837565b6000818152600b60205260408082206004019190915551620546f760ec1b815260030161152d565b6112c883838360405180602001604052806000815250612c72565b60606000611bb6836120e3565b90506000816001600160401b03811115611bd257611bd2614f76565b604051908082528060200260200182016040528015611bfb578160200160208202803683370190505b50905060005b82811015611c3857611c138582611a0f565b828281518110611c2557611c2561570d565b6020908102919091010152600101611c01565b509392505050565b611c4a828261365b565b611c5581600661371a565b6000828152600b602052604090206005018190558082611c7481611fe2565b6001600160a01b031660008051602061600083398151915260405161104b90602080825260069082015265426f74746f6d60d01b604082015260600190565b8615611cc357611cc38888611826565b8515611cd357611cd3888761279e565b8415611ce357611ce3888661148e565b8315611cf357611cf38885610fd5565b8215611d0357611d038884613552565b8115611d1357611d138883611c40565b8015611d2357611d238882611eec565b87611d2d89611fe2565b6001600160a01b03167f56680590212b09eb4b72a2eba8801b037ec046dfc754538e924f5bb6a8c4db6c60405160405180910390a35050505050505050565b611d7461381c565b601780546001600160a01b0319166001600160a01b0392909216919091179055565b6000611da160085490565b8210611e045760405162461bcd60e51b815260206004820152602c60248201527f455243373231456e756d657261626c653a20676c6f62616c20696e646578206f60448201526b7574206f6620626f756e647360a01b6064820152608401611227565b60088281548110611e1757611e1761570d565b90600052602060002001549050919050565b63389a75e1600c523360005260006020600c2055337ffa7b8eab7da67f412cc9575ed43464468f9bfbae89d1675917346ca6d8fe3c92600080a2565b611e6e81613837565b6000818152600b602052604080822060060191909155516453686f657360d81b815260050161152d565b611ea061381c565b601680546001600160a01b0319166001600160a01b0392909216919091179055565b611eca61381c565b600f80546001600160a01b0319166001600160a01b0392909216919091179055565b611ef6828261365b565b611f0181600761371a565b6000828152600b602052604090206006018190558082611f2081611fe2565b6001600160a01b031660008051602061600083398151915260405161104b9060208082526005908201526453686f657360d81b604082015260600190565b6000818152601460205260409081902054600f5491516340d097c360e01b81526001600160a01b03918216600482018190529291909116906340d097c3906024016020604051808303816000875af1158015611fbe573d6000803e3d6000fd5b505050506040513d601f19601f820116820180604052508101906112c891906159d8565b6000818152600260205260408120546001600160a01b031680610fa05760405162461bcd60e51b8152602060048201526018602482015277115490cdcc8c4e881a5b9d985b1a59081d1bdad95b88125160421b6044820152606401611227565b600f546040516331a9108f60e11b815260048101839052600091829182916001600160a01b031690636352211e90602401602060405180830381865afa158015612090573d6000803e3d6000fd5b505050506040513d601f19601f820116820180604052508101906120b491906159f1565b6001600160a01b03811660009081526015602052604090205490935091506120db82611fe2565b929491935050565b60006001600160a01b03821661214d5760405162461bcd60e51b815260206004820152602960248201527f4552433732313a2061646472657373207a65726f206973206e6f7420612076616044820152683634b21037bbb732b960b91b6064820152608401611227565b506001600160a01b031660009081526003602052604090205490565b61217161381c565b6115816000613ec6565b61218361381c565b601080546001600160a01b0319166001600160a01b0392909216919091179055565b60608060608060608060608060606121de6040518060800160405280606081526020016060815260200160608152602001600081525090565b60006121e98c612caa565b90506121f4816125d0565b600f5460405163bb12d21d60e01b8152939d50919a5095506001600160a01b03169063bb12d21d9061222a908490600401615324565b600060405180830381865afa158015612247573d6000803e3d6000fd5b505050506040513d6000823e601f3d908101601f1916820160405261226f919081019061590b565b604051929b50909850955061228a9085908790602001615a0e565b604051602081830303815290604052925087876040516020016122ae9291906159a9565b60408051601f19818403018152919052610140820151835295506122d18c612924565b51606083015261012081015160ff166000908152600e6020526040902060010180546122fc906155f8565b80601f0160208091040260200160405190810160405280929190818152602001828054612328906155f8565b80156123755780601f1061234a57610100808354040283529160200191612375565b820191906000526020600020905b81548152906001019060200180831161235857829003601f168201915b505050506020808501929092525060008d8152600b9182905260409020015460ff166123bb57604051806040016040528060028152602001610c9160f21b8152506123d7565b604051806040016040528060028152602001610cd160f21b8152505b60408084019190915260185490516332d01b2560e21b81526001600160a01b039091169063cb406c949061241b908f908e9089908f908c908e908b90600401615ad2565b600060405180830381865afa158015612438573d6000803e3d6000fd5b505050506040513d6000823e601f3d908101601f191682016040526124609190810190615682565b9c9b505050505050505050505050565b61247981613837565b6000818152600b60205260408082209190915551631219585960e21b815260040161152d565b6000818152600e60205260408120600201805460609291612546916124c3906155f8565b80601f01602080910402602001604051908101604052809291908181526020018280546124ef906155f8565b801561253c5780601f106125115761010080835404028352916020019161253c565b820191906000526020600020905b81548152906001019060200180831161251f57829003601f168201915b5050505050613260565b6017546040516335b07b7960e11b81529192506001600160a01b031690636b60f6f290612577908490600401614dd2565b600060405180830381865afa158015612594573d6000803e3d6000fd5b505050506040513d6000823e601f3d908101601f191682016040526125bc9190810190615682565b9392505050565b6125cb61381c565b601255565b60608060606125e684610120015160ff1661249f565b600e600086610120015160ff1681526020019081526020016000206003016126d560405180604001604052806009815260200168426f6479205479706560b81b815250600e600089610120015160ff1681526020019081526020016000206001018054612652906155f8565b80601f016020809104026020016040519081016040528092919081815260200182805461267e906155f8565b80156126cb5780601f106126a0576101008083540402835291602001916126cb565b820191906000526020600020905b8154815290600101906020018083116126ae57829003601f168201915b5050505050613f04565b8180546126e1906155f8565b80601f016020809104026020016040519081016040528092919081815260200182805461270d906155f8565b801561275a5780601f1061272f5761010080835404028352916020019161275a565b820191906000526020600020905b81548152906001019060200180831161273d57829003601f168201915b505050505091509250925092509193909250565b61277e8a8a8a8a8a8a8a8a611cb3565b6127888a836131c1565b6127928a82612fce565b50505050505050505050565b6127a8828261365b565b6127b381600261371a565b6000828152600b6020526040902060010181905580826127d281611fe2565b6001600160a01b031660008051602061600083398151915260405161104b906020808252600490820152632430b4b960e11b604082015260600190565b606060018054611090906155f8565b600f5460405162438b6360e81b81526001600160a01b03838116600483015260609260009291169063438b630090602401600060405180830381865afa15801561286c573d6000803e3d6000fd5b505050506040513d6000823e601f3d908101601f191682016040526125bc9190810190615b5b565b61289d81613837565b6000818152600b6020526040808220600501919091555165426f74746f6d60d01b815260060161152d565b600a5460ff16156115815760005b60648110156128ef576128e7611577565b6001016128d6565b5061291960016040518060400160405280600681526020016533333333333360d11b815250612fce565b611581600180611113565b6000818152601460205260409020546060906001600160a01b03166125bc8161281e565b6060600061295583612caa565b905080610160015161296f5761296a836129f2565b6125bc565b6125bc836121a5565b612983338383613f30565b5050565b60608061299b83610120015160ff1661249f565b6129e960405180604001604052806009815260200168426f6479205479706560b81b815250600e600087610120015160ff1681526020019081526020016000206001018054612652906155f8565b91509150915091565b6060806060806060806000612a0688612caa565b9050612a1181612987565b600f54604051631be5857160e31b81529298509096506001600160a01b03169063df2c2b8890612a45908490600401615324565b600060405180830381865afa158015612a62573d6000803e3d6000fd5b505050506040513d6000823e601f3d908101601f19168201604052612a8a9190810190615c00565b9094509250612a9888611583565b9150612ac56040518060800160405280606081526020016060815260200160608152602001600081525090565b6101408201518152612ad689612924565b51606082015261012082015160ff166000908152600e602052604090206001018054612b01906155f8565b80601f0160208091040260200160405190810160405280929190818152602001828054612b2d906155f8565b8015612b7a5780601f10612b4f57610100808354040283529160200191612b7a565b820191906000526020600020905b815481529060010190602001808311612b5d57829003601f168201915b505050506020808401929092525060008a8152600b9182905260409020015460ff16612bc057604051806040016040528060028152602001610c9160f21b815250612bdc565b604051806040016040528060028152602001610cd160f21b8152505b6040808301919091526017549051634e2fa37760e11b81526001600160a01b0390911690639c5f46ee90612c20908c908b908b908b908b908b908a90600401615ad2565b600060405180830381865afa158015612c3d573d6000803e3d6000fd5b505050506040513d6000823e601f3d908101601f19168201604052612c659190810190615682565b9998505050505050505050565b612c7c3383613ca0565b612c985760405162461bcd60e51b8152600401611227906158bd565b612ca484848484613ff6565b50505050565b612d1960405180610180016040528060008152602001600081526020016000815260200160008152602001600081526020016000815260200160008152602001600063ffffffff16815260200160008152602001600060ff168152602001606081526020016000151581525090565b6000828152600b60209081526040808320815161018081018352815481526001820154938101939093526002810154918301919091526003810154606083015260048101546080830152600581015460a0830152600681015460c0830152600781015463ffffffff1660e08301526008810154610100830152600981015460ff16610120830152600a8101805461014084019190612db6906155f8565b80601f0160208091040260200160405190810160405280929190818152602001828054612de2906155f8565b8015612e2f5780601f10612e0457610100808354040283529160200191612e2f565b820191906000526020600020905b815481529060010190602001808311612e1257829003601f168201915b5050509183525050600b919091015460ff1615156020909101529392505050565b6000818152600260205260409020546060906001600160a01b0316612e8857604051631a65aaab60e31b815260040160405180910390fd5b610fa082612948565b60048560ff161080612ea6575060078560ff16115b15612ec4576040516367af3f5360e01b815260040160405180910390fd5b612ef9338585604051602001612edc93929190615c59565b604051602081830303815290604052805190602001208383614029565b612f1657604051638baa579f60e01b815260040160405180910390fd5b60198484604051612f28929190615c85565b9081526040519081900360200190205460ff1615612f5857604051623f613760e71b815260040160405180910390fd5b612f618561393e565b600160198585604051612f75929190615c85565b908152604051908190036020019020805491151560ff199092169190911790555050505050565b612fa581613837565b6000818152600b60205260408082206002019190915551634661636560e01b815260040161152d565b612fd782613837565b8051600003612fe4575050565b8051819060061461300857604051631cf7e9c560e01b815260040160405180910390fd5b60005b600681101561315557603060f81b82828151811061302b5761302b61570d565b01602001516001600160f81b0319161080159061306c5750603960f81b82828151811061305a5761305a61570d565b01602001516001600160f81b03191611155b1580156130ce5750604160f81b82828151811061308b5761308b61570d565b01602001516001600160f81b031916108015906130cc5750604660f81b8282815181106130ba576130ba61570d565b01602001516001600160f81b03191611155b155b801561312f5750606160f81b8282815181106130ec576130ec61570d565b01602001516001600160f81b0319161080159061312d5750606660f81b82828151811061311b5761311b61570d565b01602001516001600160f81b03191611155b155b1561314d57604051631cf7e9c560e01b815260040160405180910390fd5b60010161300b565b506000838152600b60205260409020600a016131718382615cdd565b508261317c84611fe2565b6001600160a01b03167f2e34f8c0f6052b66319b4a5df14eac164c6af8a0b37f612d4304a777e1ae7a3d846040516131b49190614dd2565b60405180910390a3505050565b6131ca82613837565b60038160ff1611156131ef576040516329ba348d60e11b815260040160405180910390fd5b60ff811615612983576000828152600b60205260409020600901805460ff191660ff83161790558161322081611fe2565b60405160ff841681526001600160a01b0391909116907f454db5768a3f8187a5dd5e9cca100cf699d74d8a03f793d16da3932cdf34d35890602001611180565b8051606090801580159061327c575061327a600582615db2565b155b6132c85760405162461bcd60e51b815260206004820152601960248201527f496e76616c696420626f6479206279746573206c656e677468000000000000006044820152606401611227565b604080516111948082526111c0820190925260009160208201818036833701905050905060006132f9600584615ddc565b905060005b81811015613508576000613313826005615df0565b905060008782815181106133295761332961570d565b016020015160f81c9050600088613341846001615e07565b815181106133515761335161570d565b016020015160f81c9050600060ff831661336c83601e615df0565b6133769190615e07565b613381906005615df0565b90508984815181106133955761339561570d565b602001015160f81c60f81b8782815181106133b2576133b261570d565b60200101906001600160f81b031916908160001a9053508984600101815181106133de576133de61570d565b602001015160f81c60f81b8782600101815181106133fe576133fe61570d565b60200101906001600160f81b031916908160001a90535089846002018151811061342a5761342a61570d565b602001015160f81c60f81b87826002018151811061344a5761344a61570d565b60200101906001600160f81b031916908160001a9053508984600301815181106134765761347661570d565b602001015160f81c60f81b8782600301815181106134965761349661570d565b60200101906001600160f81b031916908160001a9053508984600401815181106134c2576134c261570d565b602001015160f81c60f81b8782600401815181106134e2576134e261570d565b60200101906001600160f81b031916908160001a905350505050508060010190506132fe565b5090949350505050565b61351a61381c565b63389a75e1600c52806000526020600c20805442111561354257636f5e88186000526004601cfd5b6000905561354f81613ec6565b50565b61355c828261365b565b61356781600561371a565b6000828152600b60205260409020600401819055808261358681611fe2565b6001600160a01b031660008051602061600083398151915260405161104b906020808252600390820152620546f760ec1b604082015260600190565b6135ca61381c565b6000848152600e60205260409020848155600181016135e98582615cdd565b50600281016135f88482615cdd565b50600381016136078382615cdd565b505050505050565b61361761381c565b8060601b61362d57637448fbae6000526004601cfd5b61354f81613ec6565b60006001600160e01b0319821663780e9d6360e01b1480610fa05750610fa08261413b565b61366482613837565b60008281526014602052604080822054600f5491516331a9108f60e11b8152600481018590526001600160a01b0391821693929190911690636352211e90602401602060405180830381865afa1580156136c2573d6000803e3d6000fd5b505050506040513d601f19601f820116820180604052508101906136e691906159f1565b9050816001600160a01b0316816001600160a01b031614612ca45760405163e6ca793160e01b815260040160405180910390fd5b600f5460405163e8a1268d60e01b8152600481018490526000916001600160a01b03169063e8a1268d90602401602060405180830381865afa158015613764573d6000803e3d6000fd5b505050506040513d601f19601f820116820180604052508101906137889190615e1a565b905081600781111561379c5761379c615e3b565b6040516020016137ae91815260200190565b604051602081830303815290604052805190602001208160078111156137d6576137d6615e3b565b6040516020016137e891815260200190565b60405160208183030381529060405280519060200120146112c857604051633e54c6fb60e11b815260040160405180910390fd5b638b78c6d819543314611581576382b429006000526004601cfd5b61384081611fe2565b6001600160a01b0316336001600160a01b03161461354f576040516324adc17160e11b815260040160405180910390fd5b6000818152600260205260409020546001600160a01b031661354f5760405162461bcd60e51b8152602060048201526018602482015277115490cdcc8c4e881a5b9d985b1a59081d1bdad95b88125160421b6044820152606401611227565b600081815260046020526040902080546001600160a01b0319166001600160a01b038416908117909155819061390582611fe2565b6001600160a01b03167f8c5be1e5ebec7d5bd14f71427d1e84f3dd0314c0f7b2291e5b200ac8c7c3b92560405160405180910390a45050565b6016546001600160a01b031661396757604051633390ca8960e21b815260040160405180910390fd5b600060116000815461397890615e51565b91829055509050613989338261418b565b604051638a54c52f60e01b81527355266d75d1a14e4572138116af39863ed6596e7f600482015260006024820181905262014a34604483015230606483015260848201839052906f6551c19487814612e58fe0681377575890638a54c52f9060a4016020604051808303816000875af1158015613a0a573d6000803e3d6000fd5b505050506040513d601f19601f82011682018060405250810190613a2e91906159f1565b600083815260146020908152604080832080546001600160a01b0319166001600160a01b038616908117909155808452601590925291829020859055905163189acdbd60e31b81527341c8f39463a868d3a88af00cd0fe7102f30e44ec60048201529192509063c4d66de890602401600060405180830381600087803b158015613ab757600080fd5b505af1158015613acb573d6000803e3d6000fd5b50506016546040516358a2727360e01b81526001600160a01b03858116600483015260ff881660248301526000945090911691506358a27273906044016000604051808303816000875af1158015613b27573d6000803e3d6000fd5b505050506040513d6000823e601f3d908101601f19168201604052613b4f9190810190615b5b565b6000848152600b6020526040812060088101869055825192935091839190613b7957613b7961570d565b6020026020010151816006018190555081600181518110613b9c57613b9c61570d565b6020026020010151816005018190555081600281518110613bbf57613bbf61570d565b6020026020010151816004018190555081600381518110613be257613be261570d565b6020908102919091018101516001830155600b8201805460ff19169055604080518083018790528151808203840181529082019091528051910120613c2990600490615db2565b60098201805460ff191660ff929092169190911790556040805180820190915260068152650c110d914e5160d21b6020820152600a820190613c6b9082615cdd565b50604051849033907f0f6798a560793a54c3bcfe86a93cde1e73087d944c0ea20544137d412139688590600090a35050505050565b600080613cac83611fe2565b9050806001600160a01b0316846001600160a01b03161480613cf357506001600160a01b0380821660009081526005602090815260408083209388168352929052205460ff165b80613d175750836001600160a01b0316613d0c8461118c565b6001600160a01b0316145b949350505050565b826001600160a01b0316613d3282611fe2565b6001600160a01b031614613d965760405162461bcd60e51b815260206004820152602560248201527f4552433732313a207472616e736665722066726f6d20696e636f72726563742060448201526437bbb732b960d91b6064820152608401611227565b6001600160a01b038216613df85760405162461bcd60e51b8152602060048201526024808201527f4552433732313a207472616e7366657220746f20746865207a65726f206164646044820152637265737360e01b6064820152608401611227565b613e038383836142d9565b613e0e6000826138d0565b6001600160a01b0383166000908152600360205260408120805460019290613e37908490615e6a565b90915550506001600160a01b0382166000908152600360205260408120805460019290613e65908490615e07565b909155505060008181526002602052604080822080546001600160a01b0319166001600160a01b0386811691821790925591518493918716917fddf252ad1be2c89b69c2b068fc378daa952ba7f163c4a11628f55a4df523b3ef91a4505050565b638b78c6d81980546001600160a01b039092169182907f8be0079c531659141344cd1fd0a4f28419497f9722a3daafe3b4186f6b6457e0600080a355565b60608282604051602001613f19929190615e7d565b604051602081830303815290604052905092915050565b816001600160a01b0316836001600160a01b031603613f915760405162461bcd60e51b815260206004820152601960248201527f4552433732313a20617070726f766520746f2063616c6c6572000000000000006044820152606401611227565b6001600160a01b03838116600081815260056020908152604080832094871680845294825291829020805460ff191686151590811790915591519182527f17307eab39ab6107e8899845ad3d59bd9653f200f220920489ca2b5937696c3191016131b4565b614001848484613d1f565b61400d84848484614633565b612ca45760405162461bcd60e51b815260040161122790615eee565b601a546000906001600160a01b031661407d5760405162461bcd60e51b81526020600482015260166024820152754d697373696e672073797374656d206164647265737360501b6044820152606401611227565b60006140d6856040517f19457468657265756d205369676e6564204d6573736167653a0a3332000000006020820152603c8101829052600090605c01604051602081830303815290604052805190602001209050919050565b601a54604080516020601f88018190048102820181019092528681529293506001600160a01b039091169161412891879087908190840183828082843760009201919091525086939250506147349050565b6001600160a01b03161495945050505050565b60006001600160e01b031982166380ac58cd60e01b148061416c57506001600160e01b03198216635b5e139f60e01b145b80610fa057506301ffc9a760e01b6001600160e01b0319831614610fa0565b6001600160a01b0382166141e15760405162461bcd60e51b815260206004820181905260248201527f4552433732313a206d696e7420746f20746865207a65726f20616464726573736044820152606401611227565b6000818152600260205260409020546001600160a01b0316156142465760405162461bcd60e51b815260206004820152601c60248201527f4552433732313a20746f6b656e20616c7265616479206d696e746564000000006044820152606401611227565b614252600083836142d9565b6001600160a01b038216600090815260036020526040812080546001929061427b908490615e07565b909155505060008181526002602052604080822080546001600160a01b0319166001600160a01b03861690811790915590518392907fddf252ad1be2c89b69c2b068fc378daa952ba7f163c4a11628f55a4df523b3ef908290a45050565b6001600160a01b0382166000908152601560205260409020541561431057604051639a42da2960e01b815260040160405180910390fd5b60105460405163644ec52760e01b8152600481018390526001600160a01b039091169063644ec52790602401600060405180830381600087803b15801561435657600080fd5b505af115801561436a573d6000803e3d6000fd5b5050601054604051631e92beb560e31b8152600481018590526001600160a01b038681166024830152909116925063f495f5a89150604401600060405180830381600087803b1580156143bc57600080fd5b505af11580156143d0573d6000803e3d6000fd5b5050600f5460008481526014602052604080822054905162438b6360e81b81526001600160a01b039182166004820152919450909116915063438b630090602401600060405180830381865afa15801561442e573d6000803e3d6000fd5b505050506040513d6000823e601f3d908101601f191682016040526144569190810190615b5b565b905060005b81518110156146275760008282815181106144785761447861570d565b6020908102919091010151601054604051632e1d274f60e01b8152600481018390529192506001600160a01b031690632e1d274f90602401600060405180830381600087803b1580156144ca57600080fd5b505af11580156144de573d6000803e3d6000fd5b5050505060006144ed86611ba9565b9050600081516001600160401b0381111561450a5761450a614f76565b604051908082528060200260200182016040528015614533578160200160208202803683370190505b50905060005b82518110156145b457601460008483815181106145585761455861570d565b6020026020010151815260200190815260200160002060009054906101000a90046001600160a01b03168282815181106145945761459461570d565b6001600160a01b0390921660209283029190910190910152600101614539565b50601054604051632333520b60e11b81526001600160a01b0390911690634666a416906145e79086908590600401615f40565b600060405180830381600087803b15801561460157600080fd5b505af1158015614615573d6000803e3d6000fd5b5050505050505080600101905061445b565b50612ca4848484614750565b60006001600160a01b0384163b1561472957604051630a85bd0160e11b81526001600160a01b0385169063150b7a0290614677903390899088908890600401615f99565b6020604051808303816000875af19250505080156146b2575060408051601f3d908101601f191682019092526146af91810190615fcc565b60015b61470f573d8080156146e0576040519150601f19603f3d011682016040523d82523d6000602084013e6146e5565b606091505b5080516000036147075760405162461bcd60e51b815260040161122790615eee565b805181602001fd5b6001600160e01b031916630a85bd0160e11b149050613d17565b506001949350505050565b60008060006147438585614808565b91509150611c3881614876565b6001600160a01b0383166147ab576147a681600880546000838152600960205260408120829055600182018355919091527ff3f7a9fe364faab93b216da50a3214154f22a0a2b415b23a84c8169e8b636ee30155565b6147ce565b816001600160a01b0316836001600160a01b0316146147ce576147ce8382614a2c565b6001600160a01b0382166147e5576112c881614ac9565b826001600160a01b0316826001600160a01b0316146112c8576112c88282614b78565b600080825160410361483e5760208301516040840151606085015160001a61483287828585614bbc565b9450945050505061486f565b8251604003614867576020830151604084015161485c868383614ca9565b93509350505061486f565b506000905060025b9250929050565b600081600481111561488a5761488a615e3b565b036148925750565b60018160048111156148a6576148a6615e3b565b036148f35760405162461bcd60e51b815260206004820152601860248201527f45434453413a20696e76616c6964207369676e617475726500000000000000006044820152606401611227565b600281600481111561490757614907615e3b565b036149545760405162461bcd60e51b815260206004820152601f60248201527f45434453413a20696e76616c6964207369676e6174757265206c656e677468006044820152606401611227565b600381600481111561496857614968615e3b565b036149c05760405162461bcd60e51b815260206004820152602260248201527f45434453413a20696e76616c6964207369676e6174757265202773272076616c604482015261756560f01b6064820152608401611227565b60048160048111156149d4576149d4615e3b565b0361354f5760405162461bcd60e51b815260206004820152602260248201527f45434453413a20696e76616c6964207369676e6174757265202776272076616c604482015261756560f01b6064820152608401611227565b60006001614a39846120e3565b614a439190615e6a565b600083815260076020526040902054909150808214614a96576001600160a01b03841660009081526006602090815260408083208584528252808320548484528184208190558352600790915290208190555b5060009182526007602090815260408084208490556001600160a01b039094168352600681528383209183525290812055565b600854600090614adb90600190615e6a565b60008381526009602052604081205460088054939450909284908110614b0357614b0361570d565b906000526020600020015490508060088381548110614b2457614b2461570d565b6000918252602080832090910192909255828152600990915260408082208490558582528120556008805480614b5c57614b5c615fe9565b6001900381819060005260206000200160009055905550505050565b6000614b83836120e3565b6001600160a01b039093166000908152600660209081526040808320868452825280832085905593825260079052919091209190915550565b6000807f7fffffffffffffffffffffffffffffff5d576e7357a4501ddfe92f46681b20a0831115614bf35750600090506003614ca0565b8460ff16601b14158015614c0b57508460ff16601c14155b15614c1c5750600090506004614ca0565b6040805160008082526020820180845289905260ff881692820192909252606081018690526080810185905260019060a0016020604051602081039080840390855afa158015614c70573d6000803e3d6000fd5b5050604051601f1901519150506001600160a01b038116614c9957600060019250925050614ca0565b9150600090505b94509492505050565b6000806001600160ff1b03831681614cc660ff86901c601b615e07565b9050614cd487828885614bbc565b935093505050935093915050565b6001600160e01b03198116811461354f57600080fd5b600060208284031215614d0a57600080fd5b81356125bc81614ce2565b600060208284031215614d2757600080fd5b5035919050565b60008060408385031215614d4157600080fd5b50508035926020909101359150565b6001600160a01b038116811461354f57600080fd5b600060208284031215614d7757600080fd5b81356125bc81614d50565b60005b83811015614d9d578181015183820152602001614d85565b50506000910152565b60008151808452614dbe816020860160208601614d82565b601f01601f19169290920160200192915050565b6020815260006125bc6020830184614da6565b80358015158114614df557600080fd5b919050565b60008060408385031215614e0d57600080fd5b82359150614e1d60208401614de5565b90509250929050565b60008060408385031215614e3957600080fd5b8235614e4481614d50565b946020939093013593505050565b848152608060208201526000614e6b6080830186614da6565b8281036040840152614e7d8186614da6565b90508281036060840152614e918185614da6565b979650505050505050565b600080600060608486031215614eb157600080fd5b8335614ebc81614d50565b92506020840135614ecc81614d50565b929592945050506040919091013590565b6020808252825182820181905260009190848201906040850190845b81811015614f1557835183529284019291840191600101614ef9565b50909695505050505050565b600080600080600080600080610100898b031215614f3e57600080fd5b505086359860208801359850604088013597606081013597506080810135965060a0810135955060c0810135945060e0013592509050565b634e487b7160e01b600052604160045260246000fd5b60405161018081016001600160401b0381118282101715614faf57614faf614f76565b60405290565b604051601f8201601f191681016001600160401b0381118282101715614fdd57614fdd614f76565b604052919050565b803563ffffffff81168114614df557600080fd5b803560ff81168114614df557600080fd5b60006001600160401b0382111561502357615023614f76565b50601f01601f191660200190565b600082601f83011261504257600080fd5b81356150556150508261500a565b614fb5565b81815284602083860101111561506a57600080fd5b816020850160208301376000918101602001919091529392505050565b60006020828403121561509957600080fd5b81356001600160401b03808211156150b057600080fd5b9083019061018082860312156150c557600080fd5b6150cd614f8c565b823581526020830135602082015260408301356040820152606083013560608201526080830135608082015260a083013560a082015260c083013560c082015261511960e08401614fe5565b60e08201526101008381013590820152610120615137818501614ff9565b90820152610140838101358381111561514f57600080fd5b61515b88828701615031565b8284015250506101609150615171828401614de5565b91810191909152949350505050565b6060815260006151936060830186614da6565b82810360208401526151a58186614da6565b905082810360408401526151b98185614da6565b9695505050505050565b6000806000806000806000806000806101408b8d0312156151e357600080fd5b8a35995060208b0135985060408b0135975060608b0135965060808b0135955060a08b0135945060c08b0135935060e08b013592506152256101008c01614ff9565b91506101208b01356001600160401b0381111561524157600080fd5b61524d8d828e01615031565b9150509295989b9194979a5092959850565b6000806040838503121561527257600080fd5b823561527d81614d50565b9150614e1d60208401614de5565b60408152600061529e6040830185614da6565b82810360208401526152b08185614da6565b95945050505050565b600080600080608085870312156152cf57600080fd5b84356152da81614d50565b935060208501356152ea81614d50565b92506040850135915060608501356001600160401b0381111561530c57600080fd5b61531887828801615031565b91505092959194509250565b6020815281516020820152602082015160408201526040820151606082015260608201516080820152608082015160a082015260a082015160c082015260c082015160e0820152600060e08301516101006153868185018363ffffffff169052565b8401516101208481019190915284015190506101406153a98185018360ff169052565b8085015191505061018061016081818601526153c96101a0860184614da6565b9086015180151583870152909250613508565b60008083601f8401126153ee57600080fd5b5081356001600160401b0381111561540557600080fd5b60208301915083602082850101111561486f57600080fd5b60008060008060006060868803121561543557600080fd5b61543e86614ff9565b945060208601356001600160401b038082111561545a57600080fd5b61546689838a016153dc565b9096509450604088013591508082111561547f57600080fd5b5061548c888289016153dc565b969995985093965092949392505050565b600080604083850312156154b057600080fd5b8235915060208301356001600160401b038111156154cd57600080fd5b6154d985828601615031565b9150509250929050565b600080604083850312156154f657600080fd5b82359150614e1d60208401614ff9565b60006020828403121561551857600080fd5b81356001600160401b0381111561552e57600080fd5b613d1784828501615031565b6000806040838503121561554d57600080fd5b823561555881614d50565b9150602083013561556881614d50565b809150509250929050565b6000806000806080858703121561558957600080fd5b8435935060208501356001600160401b03808211156155a757600080fd5b6155b388838901615031565b945060408701359150808211156155c957600080fd5b6155d588838901615031565b935060608701359150808211156155eb57600080fd5b5061531887828801615031565b600181811c9082168061560c57607f821691505b60208210810361562c57634e487b7160e01b600052602260045260246000fd5b50919050565b60006156406150508461500a565b905082815283838301111561565457600080fd5b6125bc836020830184614d82565b600082601f83011261567357600080fd5b6125bc83835160208501615632565b60006020828403121561569457600080fd5b81516001600160401b038111156156aa57600080fd5b613d1784828501615662565b600083516156c8818460208801614d82565b8351908301906156dc818360208801614d82565b7f3c672069643d226261636b7061636b547261697473223e0000000000000000009101908152601701949350505050565b634e487b7160e01b600052603260045260246000fd5b60008551615735818460208a01614d82565b855190830190615749818360208a01614d82565b855191019061575c818360208901614d82565b845191019061576f818360208801614d82565b019695505050505050565b6000845161578c818460208901614d82565b8451908301906157a0818360208901614d82565b8082019150507f3c672069643d224d6f7265547261697473223e3c72656374207374796c653d2281527f77696474683a313070783b206865696768743a3270783b2220783d223130222060208201527f793d223136222066696c6c3d2223666666666666223e3c2f726563743e3c726560408201527f6374207374796c653d226865696768743a313070783b2077696474683a32707860608201527f3b2220783d2231342220793d223132222066696c6c3d2223666666666666223e60808201526a1e17b932b1ba1f1e17b39f60a91b60a082015283516158888160ab840160208801614d82565b0160ab0195945050505050565b600082516158a7818460208701614d82565b631e17b39f60e11b920191825250600401919050565b6020808252602e908201527f4552433732313a2063616c6c6572206973206e6f7420746f6b656e206f776e6560408201526d1c881b9bdc88185c1c1c9bdd995960921b606082015260800190565b60008060006060848603121561592057600080fd5b83516001600160401b038082111561593757600080fd5b61594387838801615662565b9450602086015191508082111561595957600080fd5b818601915086601f83011261596d57600080fd5b61597c87835160208501615632565b9350604086015191508082111561599257600080fd5b5061599f86828701615662565b9150509250925092565b600083516159bb818460208801614d82565b8351908301906159cf818360208801614d82565b01949350505050565b6000602082840312156159ea57600080fd5b5051919050565b600060208284031215615a0357600080fd5b81516125bc81614d50565b6d2261747472696275746573223a5b60901b81528251600090615a3881600e850160208801614d82565b600b60fa1b600e918401918201528351615a5981600f840160208801614d82565b605d60f81b600f9290910191820152601001949350505050565b6000815160808452615a886080850182614da6565b905060208301518482036020860152615aa18282614da6565b91505060408301518482036040860152615abb8282614da6565b915050606083015160608501528091505092915050565b87815260e060208201526000615aeb60e0830189614da6565b8281036040840152615afd8189614da6565b90508281036060840152615b118188614da6565b90508281036080840152615b258187614da6565b905082810360a0840152615b398186614da6565b905082810360c0840152615b4d8185615a73565b9a9950505050505050505050565b60006020808385031215615b6e57600080fd5b82516001600160401b0380821115615b8557600080fd5b818501915085601f830112615b9957600080fd5b815181811115615bab57615bab614f76565b8060051b9150615bbc848301614fb5565b8181529183018401918481019088841115615bd657600080fd5b938501935b83851015615bf457845182529385019390850190615bdb565b98975050505050505050565b60008060408385031215615c1357600080fd5b82516001600160401b0380821115615c2a57600080fd5b615c3686838701615662565b93506020850151915080821115615c4c57600080fd5b506154d985828601615662565b6bffffffffffffffffffffffff198460601b168152818360148301376000910160140190815292915050565b8183823760009101908152919050565b601f8211156112c8576000816000526020600020601f850160051c81016020861015615cbe5750805b601f850160051c820191505b8181101561360757828155600101615cca565b81516001600160401b03811115615cf657615cf6614f76565b615d0a81615d0484546155f8565b84615c95565b602080601f831160018114615d3f5760008415615d275750858301515b600019600386901b1c1916600185901b178555613607565b600085815260208120601f198616915b82811015615d6e57888601518255948401946001909101908401615d4f565b5085821015615d8c5787850151600019600388901b60f8161c191681555b5050505050600190811b01905550565b634e487b7160e01b600052601260045260246000fd5b600082615dc157615dc1615d9c565b500690565b634e487b7160e01b600052601160045260246000fd5b600082615deb57615deb615d9c565b500490565b8082028115828204841417610fa057610fa0615dc6565b80820180821115610fa057610fa0615dc6565b600060208284031215615e2c57600080fd5b8151600881106125bc57600080fd5b634e487b7160e01b600052602160045260246000fd5b600060018201615e6357615e63615dc6565b5060010190565b81810381811115610fa057610fa0615dc6565b6e3d913a3930b4ba2fba3cb832911d1160891b81528251600090615ea881600f850160208801614d82565b6a1116113b30b63ab2911d1160a91b600f918401918201528351615ed381601a840160208801614d82565b61227d60f01b601a9290910191820152601c01949350505050565b60208082526032908201527f4552433732313a207472616e7366657220746f206e6f6e20455243373231526560408201527131b2b4bb32b91034b6b83632b6b2b73a32b960711b606082015260800190565b60006040820184835260206040602085015281855180845260608601915060208701935060005b81811015615f8c5784516001600160a01b031683529383019391830191600101615f67565b5090979650505050505050565b6001600160a01b03858116825284166020820152604081018390526080606082018190526000906151b990830184614da6565b600060208284031215615fde57600080fd5b81516125bc81614ce2565b634e487b7160e01b600052603160045260246000fdfe8aea9baa1ab7209ce94784ac5f5149343f8d985fd4278de25a7b390989f2cf853c672069643d22416c6c20547261697473223e3c672069643d226261636b7061636b2220636c6173733d22636c6f736564223e3c7061746820643d224d302030204c33302030204c3330203330204c30203330205a222066696c6c3d227267622831322c203130392c203135372922202f3e3c7376672069643d226261636b7061636b5549222076696577426f783d223020302031323020313230223e203c7374796c653e2e75697b77696474683a3170783b206865696768743a203170783b2066696c6c3a77686974657d3c2f7374796c653e203c672069643d22636c6f736542746e22207472616e73666f726d3d227472616e736c61746528322c3229223e203c7265637420783d22312220793d22312220636c6173733d227569223e3c2f726563743e203c7265637420783d22322220793d22322220636c6173733d227569223e3c2f726563743e203c7265637420783d22332220793d22332220636c6173733d227569223e3c2f726563743e203c7265637420783d22342220793d22342220636c6173733d227569223e3c2f726563743e203c7265637420783d22352220793d22352220636c6173733d227569223e3c2f726563743e203c7265637420783d22352220793d22312220636c6173733d227569223e3c2f726563743e203c7265637420783d22342220793d22322220636c6173733d227569223e3c2f726563743e203c212d2d203c7265637420783d22332220793d2233222077696474683d223122206865696768743d2231222066696c6c3d227768697465223e3c2f726563743e202d2d3e203c7265637420783d22322220793d22342220636c6173733d227569223e3c2f726563743e203c7265637420783d22312220793d22352220636c6173733d227569223e3c2f726563743e203c2f673e203c672069643d226c65667442746e2220636c6173733d22627574746f6e22207472616e73666f726d3d227472616e736c6174652834352c31313029223e203c7061746820643d224d302030204c362030204c362036204c302036205a222066696c6c3d227472616e73706172656e7422202f3e203c7265637420783d22322220793d22302220636c6173733d227569223e3c2f726563743e203c7265637420783d22312220793d22312220636c6173733d227569223e3c2f726563743e203c7265637420783d22302220793d22322220636c6173733d227569223e3c2f726563743e203c7265637420783d22312220793d22332220636c6173733d227569223e3c2f726563743e203c7265637420783d22322220793d22342220636c6173733d227569223e3c2f726563743e203c2f673e203c672069643d22726967687442746e2220636c6173733d22627574746f6e22207472616e73666f726d3d227472616e736c6174652836352c31313029223e203c7061746820643d224d302030204c362030204c362036204c302036205a222066696c6c3d227472616e73706172656e7422202f3e203c7265637420783d22332220793d22302220636c6173733d227569223e3c2f726563743e203c7265637420783d22342220793d22312220636c6173733d227569223e3c2f726563743e203c7265637420783d22352220793d22322220636c6173733d227569223e3c2f726563743e203c7265637420783d22342220793d22332220636c6173733d227569223e3c2f726563743e203c7265637420783d22332220793d22342220636c6173733d227569223e3c2f726563743e203c2f673e203c2f7376673e20a26469706673582212208bf6b1f7db4bea524578ca9db5e0505417c9ab2b6fc2ac256c86fce6ff5abc9864736f6c63430008160033","linkReferences":{}},"methodIdentifiers":{"_debugPostConstructorMint()":"9c7be2f1","addNewBody(uint256,string,bytes,bytes)":"f2361e23","approve(address,uint256)":"095ea7b3","balanceOf(address)":"70a08231","bodyIndexToMetadata(uint256)":"0c83f9d7","buyTrait(uint256)":"6273ca2c","cancelOwnershipHandover()":"54d1f13d","completeOwnershipHandover(address)":"f04e283e","equipAccessory(uint256,uint256)":"0447a45e","equipAll(uint256,uint256,uint256,uint256,uint256,uint256,uint256,uint256)":"4a4333a3","equipBottom(uint256,uint256)":"45a10d0f","equipFace(uint256,uint256)":"0f162320","equipHair(uint256,uint256)":"94cbd9c4","equipHead(uint256,uint256)":"1e162a33","equipShoes(uint256,uint256)":"60b77b23","equipTop(uint256,uint256)":"f18dc22d","firstSeasonRenderMinter()":"13ea0ae3","getApproved(uint256)":"081812fc","getBackpackSVGs(uint256)":"14fe8ff4","getBodyImage(bytes)":"e37db3c2","getBodyImageSvg(uint256)":"916c546b","getBodySVGZmapsAndMetadata((uint256,uint256,uint256,uint256,uint256,uint256,uint256,uint32,uint256,uint8,string,bool))":"92012f08","getBodySvgAndMetadata((uint256,uint256,uint256,uint256,uint256,uint256,uint256,uint32,uint256,uint8,string,bool))":"a23830ae","getBodyZMap(uint256)":"306c7334","getFullPictureForTrait(uint256)":"66704349","getOwnerAndTBAAddressForChonkId(uint256)":"04003bd0","getPeter(uint256)":"be928ff6","getPeterZMap(uint256)":"2bd1ca45","getTBAAddressForChonkId(uint256)":"f6a0c932","getTokenRenderZ(uint256)":"8200ea51","getTraitTokens(address)":"998cfb6e","getTraitsForChonkId(uint256)":"9f6e4637","isApprovedForAll(address,address)":"e985e9c5","mainRenderer()":"66b89b5a","marketplace()":"abc8c7af","mint()":"1249c58b","mintByLevel(uint8,string,bytes)":"cef80d4a","name()":"06fdde03","owner()":"8da5cb5b","ownerOf(uint256)":"6352211e","ownershipHandoverExpiresAt(address)":"fee81cf4","peterMakeover(uint256,uint256,uint256,uint256,uint256,uint256,uint256,uint256,uint8,string)":"93ccba72","price()":"a035b1fe","renderAsDataUri(uint256)":"a1d62680","renderAsDataUriSVG(uint256)":"b28fbe40","renderAsDataUriZ(uint256)":"7557f2dc","renounceOwnership()":"715018a6","requestOwnershipHandover()":"25692962","safeTransferFrom(address,address,uint256)":"42842e0e","safeTransferFrom(address,address,uint256,bytes)":"b88d4fde","setApprovalForAll(address,bool)":"a22cb465","setBackgroundColor(uint256,string)":"d68c4f32","setBodyIndex(uint256,uint8)":"e1405540","setFirstSeasonRenderMinter(address)":"58a97640","setMainRenderer(address)":"4ddb3961","setMarketplace(address)":"73ad6c2d","setMaxTraitsToOutput(uint256)":"33d3d9bf","setPrice(uint256)":"91b7f5ed","setSystemAddress(address)":"06210197","setTokenRenderZ(uint256,bool)":"07f4e045","setTraitsContract(address)":"5eabd84a","setZRenderer(address)":"172b054d","supportsInterface(bytes4)":"01ffc9a7","symbol()":"95d89b41","tbaAddressToTokenId(address)":"a4bf9a00","tokenByIndex(uint256)":"4f6ccce7","tokenIdToTBAAccountAddress(uint256)":"9c05d68d","tokenOfOwnerByIndex(address,uint256)":"2f745c59","tokenURI(uint256)":"c87b56dd","totalSupply()":"18160ddd","traitsContract()":"c093afdb","transferFrom(address,address,uint256)":"23b872dd","transferOwnership(address)":"f2fde38b","unequipAccessory(uint256)":"293ed3f7","unequipAll(uint256)":"3044825b","unequipBottom(uint256)":"9c762015","unequipFace(uint256)":"d5b55c8b","unequipHair(uint256)":"105338e0","unequipHead(uint256)":"7afe8d34","unequipShoes(uint256)":"58180d35","unequipTop(uint256)":"347bd8f4","walletOfOwner(address)":"438b6300","zRenderer()":"a15c561b"},"id":45}