{"abi":[{"type":"constructor","inputs":[{"name":"localDeploy_","type":"bool","internalType":"bool"}],"stateMutability":"nonpayable"},{"type":"function","name":"_debugPostConstructorMint","inputs":[],"outputs":[],"stateMutability":"nonpayable"},{"type":"function","name":"addNewBody","inputs":[{"name":"_bodyIndex","type":"uint256","internalType":"uint256"},{"name":"_bodyName","type":"string","internalType":"string"},{"name":"_colorMap","type":"bytes","internalType":"bytes"},{"name":"_zMap","type":"bytes","internalType":"bytes"}],"outputs":[],"stateMutability":"nonpayable"},{"type":"function","name":"approve","inputs":[{"name":"to","type":"address","internalType":"address"},{"name":"tokenId","type":"uint256","internalType":"uint256"}],"outputs":[],"stateMutability":"nonpayable"},{"type":"function","name":"balanceOf","inputs":[{"name":"owner","type":"address","internalType":"address"}],"outputs":[{"name":"","type":"uint256","internalType":"uint256"}],"stateMutability":"view"},{"type":"function","name":"bodyIndexToMetadata","inputs":[{"name":"","type":"uint256","internalType":"uint256"}],"outputs":[{"name":"bodyIndex","type":"uint256","internalType":"uint256"},{"name":"bodyName","type":"string","internalType":"string"},{"name":"colorMap","type":"bytes","internalType":"bytes"},{"name":"zMap","type":"bytes","internalType":"bytes"}],"stateMutability":"view"},{"type":"function","name":"buyTrait","inputs":[{"name":"_tokenId","type":"uint256","internalType":"uint256"}],"outputs":[],"stateMutability":"nonpayable"},{"type":"function","name":"cancelOwnershipHandover","inputs":[],"outputs":[],"stateMutability":"payable"},{"type":"function","name":"checkIfTraitIsEquipped","inputs":[{"name":"_chonkId","type":"uint256","internalType":"uint256"},{"name":"_traitId","type":"uint256","internalType":"uint256"}],"outputs":[{"name":"","type":"bool","internalType":"bool"}],"stateMutability":"view"},{"type":"function","name":"chonkIdToApprovedOperators","inputs":[{"name":"chonkId","type":"uint256","internalType":"uint256"},{"name":"","type":"uint256","internalType":"uint256"}],"outputs":[{"name":"operators","type":"address","internalType":"address"}],"stateMutability":"view"},{"type":"function","name":"completeOwnershipHandover","inputs":[{"name":"pendingOwner","type":"address","internalType":"address"}],"outputs":[],"stateMutability":"payable"},{"type":"function","name":"equipAccessory","inputs":[{"name":"_peterTokenId","type":"uint256","internalType":"uint256"},{"name":"_traitTokenId","type":"uint256","internalType":"uint256"}],"outputs":[],"stateMutability":"nonpayable"},{"type":"function","name":"equipAll","inputs":[{"name":"_peterTokenId","type":"uint256","internalType":"uint256"},{"name":"_headTokenId","type":"uint256","internalType":"uint256"},{"name":"_hairTokenId","type":"uint256","internalType":"uint256"},{"name":"_faceTokenId","type":"uint256","internalType":"uint256"},{"name":"_accessoryTokenId","type":"uint256","internalType":"uint256"},{"name":"_topTokenId","type":"uint256","internalType":"uint256"},{"name":"_bottomTokenId","type":"uint256","internalType":"uint256"},{"name":"_shoesTokenId","type":"uint256","internalType":"uint256"}],"outputs":[],"stateMutability":"nonpayable"},{"type":"function","name":"equipBottom","inputs":[{"name":"_peterTokenId","type":"uint256","internalType":"uint256"},{"name":"_traitTokenId","type":"uint256","internalType":"uint256"}],"outputs":[],"stateMutability":"nonpayable"},{"type":"function","name":"equipFace","inputs":[{"name":"_peterTokenId","type":"uint256","internalType":"uint256"},{"name":"_traitTokenId","type":"uint256","internalType":"uint256"}],"outputs":[],"stateMutability":"nonpayable"},{"type":"function","name":"equipHair","inputs":[{"name":"_peterTokenId","type":"uint256","internalType":"uint256"},{"name":"_traitTokenId","type":"uint256","internalType":"uint256"}],"outputs":[],"stateMutability":"nonpayable"},{"type":"function","name":"equipHead","inputs":[{"name":"_peterTokenId","type":"uint256","internalType":"uint256"},{"name":"_traitTokenId","type":"uint256","internalType":"uint256"}],"outputs":[],"stateMutability":"nonpayable"},{"type":"function","name":"equipShoes","inputs":[{"name":"_peterTokenId","type":"uint256","internalType":"uint256"},{"name":"_traitTokenId","type":"uint256","internalType":"uint256"}],"outputs":[],"stateMutability":"nonpayable"},{"type":"function","name":"equipTop","inputs":[{"name":"_peterTokenId","type":"uint256","internalType":"uint256"},{"name":"_traitTokenId","type":"uint256","internalType":"uint256"}],"outputs":[],"stateMutability":"nonpayable"},{"type":"function","name":"firstSeasonRenderMinter","inputs":[],"outputs":[{"name":"","type":"address","internalType":"contract FirstSeasonRenderMinter"}],"stateMutability":"view"},{"type":"function","name":"getApproved","inputs":[{"name":"tokenId","type":"uint256","internalType":"uint256"}],"outputs":[{"name":"","type":"address","internalType":"address"}],"stateMutability":"view"},{"type":"function","name":"getBackpackSVGs","inputs":[{"name":"_tokenId","type":"uint256","internalType":"uint256"}],"outputs":[{"name":"backpackSVGs","type":"string","internalType":"string"}],"stateMutability":"view"},{"type":"function","name":"getBodyImage","inputs":[{"name":"colorMap","type":"bytes","internalType":"bytes"}],"outputs":[{"name":"","type":"bytes","internalType":"bytes"}],"stateMutability":"pure"},{"type":"function","name":"getBodyImageSvg","inputs":[{"name":"_index","type":"uint256","internalType":"uint256"}],"outputs":[{"name":"svg","type":"string","internalType":"string"}],"stateMutability":"view"},{"type":"function","name":"getBodySVGZmapsAndMetadata","inputs":[{"name":"storedPeter","type":"tuple","internalType":"struct IPeterStorage.StoredPeter","components":[{"name":"headId","type":"uint256","internalType":"uint256"},{"name":"hairId","type":"uint256","internalType":"uint256"},{"name":"faceId","type":"uint256","internalType":"uint256"},{"name":"accessoryId","type":"uint256","internalType":"uint256"},{"name":"topId","type":"uint256","internalType":"uint256"},{"name":"bottomId","type":"uint256","internalType":"uint256"},{"name":"shoesId","type":"uint256","internalType":"uint256"},{"name":"epoch","type":"uint32","internalType":"uint32"},{"name":"tokenId","type":"uint256","internalType":"uint256"},{"name":"bodyIndex","type":"uint8","internalType":"uint8"},{"name":"backgroundColor","type":"string","internalType":"string"},{"name":"renderZ","type":"bool","internalType":"bool"}]}],"outputs":[{"name":"","type":"string","internalType":"string"},{"name":"","type":"bytes","internalType":"bytes"},{"name":"","type":"string","internalType":"string"}],"stateMutability":"view"},{"type":"function","name":"getBodySvgAndMetadata","inputs":[{"name":"storedPeter","type":"tuple","internalType":"struct IPeterStorage.StoredPeter","components":[{"name":"headId","type":"uint256","internalType":"uint256"},{"name":"hairId","type":"uint256","internalType":"uint256"},{"name":"faceId","type":"uint256","internalType":"uint256"},{"name":"accessoryId","type":"uint256","internalType":"uint256"},{"name":"topId","type":"uint256","internalType":"uint256"},{"name":"bottomId","type":"uint256","internalType":"uint256"},{"name":"shoesId","type":"uint256","internalType":"uint256"},{"name":"epoch","type":"uint32","internalType":"uint32"},{"name":"tokenId","type":"uint256","internalType":"uint256"},{"name":"bodyIndex","type":"uint8","internalType":"uint8"},{"name":"backgroundColor","type":"string","internalType":"string"},{"name":"renderZ","type":"bool","internalType":"bool"}]}],"outputs":[{"name":"","type":"string","internalType":"string"},{"name":"","type":"string","internalType":"string"}],"stateMutability":"view"},{"type":"function","name":"getBodyZMap","inputs":[{"name":"_tokenId","type":"uint256","internalType":"uint256"}],"outputs":[{"name":"","type":"string","internalType":"string"}],"stateMutability":"view"},{"type":"function","name":"getFullPictureForTrait","inputs":[{"name":"_chonkTraitTokenId","type":"uint256","internalType":"uint256"}],"outputs":[{"name":"traitOwnerTBA","type":"address","internalType":"address"},{"name":"chonkTokenId","type":"uint256","internalType":"uint256"},{"name":"chonkOwner","type":"address","internalType":"address"}],"stateMutability":"view"},{"type":"function","name":"getOwnerAndTBAAddressForChonkId","inputs":[{"name":"_chonkId","type":"uint256","internalType":"uint256"}],"outputs":[{"name":"owner","type":"address","internalType":"address"},{"name":"tbaAddress","type":"address","internalType":"address"}],"stateMutability":"view"},{"type":"function","name":"getPeter","inputs":[{"name":"_tokenId","type":"uint256","internalType":"uint256"}],"outputs":[{"name":"","type":"tuple","internalType":"struct IPeterStorage.StoredPeter","components":[{"name":"headId","type":"uint256","internalType":"uint256"},{"name":"hairId","type":"uint256","internalType":"uint256"},{"name":"faceId","type":"uint256","internalType":"uint256"},{"name":"accessoryId","type":"uint256","internalType":"uint256"},{"name":"topId","type":"uint256","internalType":"uint256"},{"name":"bottomId","type":"uint256","internalType":"uint256"},{"name":"shoesId","type":"uint256","internalType":"uint256"},{"name":"epoch","type":"uint32","internalType":"uint32"},{"name":"tokenId","type":"uint256","internalType":"uint256"},{"name":"bodyIndex","type":"uint8","internalType":"uint8"},{"name":"backgroundColor","type":"string","internalType":"string"},{"name":"renderZ","type":"bool","internalType":"bool"}]}],"stateMutability":"view"},{"type":"function","name":"getPeterZMap","inputs":[{"name":"_tokenId","type":"uint256","internalType":"uint256"}],"outputs":[{"name":"","type":"string","internalType":"string"}],"stateMutability":"view"},{"type":"function","name":"getTBAAddressForChonkId","inputs":[{"name":"_chonkId","type":"uint256","internalType":"uint256"}],"outputs":[{"name":"","type":"address","internalType":"address"}],"stateMutability":"view"},{"type":"function","name":"getTokenRenderZ","inputs":[{"name":"_peterTokenId","type":"uint256","internalType":"uint256"}],"outputs":[{"name":"","type":"bool","internalType":"bool"}],"stateMutability":"view"},{"type":"function","name":"getTraitTokens","inputs":[{"name":"_tbaAddress","type":"address","internalType":"address"}],"outputs":[{"name":"","type":"uint256[]","internalType":"uint256[]"}],"stateMutability":"view"},{"type":"function","name":"getTraitsForChonkId","inputs":[{"name":"_chonkId","type":"uint256","internalType":"uint256"}],"outputs":[{"name":"traitTokens","type":"uint256[]","internalType":"uint256[]"}],"stateMutability":"view"},{"type":"function","name":"isApprovedForAll","inputs":[{"name":"owner","type":"address","internalType":"address"},{"name":"operator","type":"address","internalType":"address"}],"outputs":[{"name":"","type":"bool","internalType":"bool"}],"stateMutability":"view"},{"type":"function","name":"mainRenderer","inputs":[],"outputs":[{"name":"","type":"address","internalType":"contract MainRenderer"}],"stateMutability":"view"},{"type":"function","name":"marketplace","inputs":[],"outputs":[{"name":"","type":"address","internalType":"contract ChonksMarket"}],"stateMutability":"view"},{"type":"function","name":"mint","inputs":[],"outputs":[],"stateMutability":"payable"},{"type":"function","name":"mintByLevel","inputs":[{"name":"amount","type":"uint8","internalType":"uint8"},{"name":"nonce","type":"string","internalType":"string"},{"name":"signature","type":"bytes","internalType":"bytes"}],"outputs":[],"stateMutability":"payable"},{"type":"function","name":"name","inputs":[],"outputs":[{"name":"","type":"string","internalType":"string"}],"stateMutability":"view"},{"type":"function","name":"owner","inputs":[],"outputs":[{"name":"result","type":"address","internalType":"address"}],"stateMutability":"view"},{"type":"function","name":"ownerOf","inputs":[{"name":"tokenId","type":"uint256","internalType":"uint256"}],"outputs":[{"name":"","type":"address","internalType":"address"}],"stateMutability":"view"},{"type":"function","name":"ownershipHandoverExpiresAt","inputs":[{"name":"pendingOwner","type":"address","internalType":"address"}],"outputs":[{"name":"result","type":"uint256","internalType":"uint256"}],"stateMutability":"view"},{"type":"function","name":"peterMakeover","inputs":[{"name":"_peterTokenId","type":"uint256","internalType":"uint256"},{"name":"_headTokenId","type":"uint256","internalType":"uint256"},{"name":"_hairTokenId","type":"uint256","internalType":"uint256"},{"name":"_faceTokenId","type":"uint256","internalType":"uint256"},{"name":"_accessoryTokenId","type":"uint256","internalType":"uint256"},{"name":"_topTokenId","type":"uint256","internalType":"uint256"},{"name":"_bottomTokenId","type":"uint256","internalType":"uint256"},{"name":"_shoesTokenId","type":"uint256","internalType":"uint256"},{"name":"_bodyIndex","type":"uint8","internalType":"uint8"},{"name":"_backgroundColor","type":"string","internalType":"string"}],"outputs":[],"stateMutability":"nonpayable"},{"type":"function","name":"price","inputs":[],"outputs":[{"name":"","type":"uint256","internalType":"uint256"}],"stateMutability":"view"},{"type":"function","name":"renderAsDataUri","inputs":[{"name":"_tokenId","type":"uint256","internalType":"uint256"}],"outputs":[{"name":"","type":"string","internalType":"string"}],"stateMutability":"view"},{"type":"function","name":"renderAsDataUriSVG","inputs":[{"name":"_tokenId","type":"uint256","internalType":"uint256"}],"outputs":[{"name":"","type":"string","internalType":"string"}],"stateMutability":"view"},{"type":"function","name":"renderAsDataUriZ","inputs":[{"name":"_tokenId","type":"uint256","internalType":"uint256"}],"outputs":[{"name":"","type":"string","internalType":"string"}],"stateMutability":"view"},{"type":"function","name":"renounceOwnership","inputs":[],"outputs":[],"stateMutability":"payable"},{"type":"function","name":"requestOwnershipHandover","inputs":[],"outputs":[],"stateMutability":"payable"},{"type":"function","name":"safeTransferFrom","inputs":[{"name":"from","type":"address","internalType":"address"},{"name":"to","type":"address","internalType":"address"},{"name":"tokenId","type":"uint256","internalType":"uint256"}],"outputs":[],"stateMutability":"nonpayable"},{"type":"function","name":"safeTransferFrom","inputs":[{"name":"from","type":"address","internalType":"address"},{"name":"to","type":"address","internalType":"address"},{"name":"tokenId","type":"uint256","internalType":"uint256"},{"name":"data","type":"bytes","internalType":"bytes"}],"outputs":[],"stateMutability":"nonpayable"},{"type":"function","name":"setApprovalForAll","inputs":[{"name":"operator","type":"address","internalType":"address"},{"name":"approved","type":"bool","internalType":"bool"}],"outputs":[],"stateMutability":"nonpayable"},{"type":"function","name":"setBackgroundColor","inputs":[{"name":"_peterTokenId","type":"uint256","internalType":"uint256"},{"name":"_color","type":"string","internalType":"string"}],"outputs":[],"stateMutability":"nonpayable"},{"type":"function","name":"setBodyIndex","inputs":[{"name":"_peterTokenId","type":"uint256","internalType":"uint256"},{"name":"_bodyIndex","type":"uint8","internalType":"uint8"}],"outputs":[],"stateMutability":"nonpayable"},{"type":"function","name":"setFirstSeasonRenderMinter","inputs":[{"name":"_dataContract","type":"address","internalType":"address"}],"outputs":[],"stateMutability":"nonpayable"},{"type":"function","name":"setMainRenderer","inputs":[{"name":"_mainRenderer","type":"address","internalType":"address"}],"outputs":[],"stateMutability":"nonpayable"},{"type":"function","name":"setMarketplace","inputs":[{"name":"_marketplace","type":"address","internalType":"address"}],"outputs":[],"stateMutability":"nonpayable"},{"type":"function","name":"setMaxTraitsToOutput","inputs":[{"name":"_maxTraitsToOutput","type":"uint256","internalType":"uint256"}],"outputs":[],"stateMutability":"nonpayable"},{"type":"function","name":"setPrice","inputs":[{"name":"_priceInWei","type":"uint256","internalType":"uint256"}],"outputs":[],"stateMutability":"nonpayable"},{"type":"function","name":"setSystemAddress","inputs":[{"name":"_systemAddress","type":"address","internalType":"address"}],"outputs":[],"stateMutability":"nonpayable"},{"type":"function","name":"setTokenRenderZ","inputs":[{"name":"_peterTokenId","type":"uint256","internalType":"uint256"},{"name":"_renderZ","type":"bool","internalType":"bool"}],"outputs":[],"stateMutability":"nonpayable"},{"type":"function","name":"setTraitsContract","inputs":[{"name":"_address","type":"address","internalType":"contract PeterTraits"}],"outputs":[],"stateMutability":"nonpayable"},{"type":"function","name":"setZRenderer","inputs":[{"name":"_zRenderer","type":"address","internalType":"address"}],"outputs":[],"stateMutability":"nonpayable"},{"type":"function","name":"supportsInterface","inputs":[{"name":"interfaceId","type":"bytes4","internalType":"bytes4"}],"outputs":[{"name":"","type":"bool","internalType":"bool"}],"stateMutability":"view"},{"type":"function","name":"symbol","inputs":[],"outputs":[{"name":"","type":"string","internalType":"string"}],"stateMutability":"view"},{"type":"function","name":"tbaAddressToTokenId","inputs":[{"name":"","type":"address","internalType":"address"}],"outputs":[{"name":"","type":"uint256","internalType":"uint256"}],"stateMutability":"view"},{"type":"function","name":"tokenByIndex","inputs":[{"name":"index","type":"uint256","internalType":"uint256"}],"outputs":[{"name":"","type":"uint256","internalType":"uint256"}],"stateMutability":"view"},{"type":"function","name":"tokenIdToTBAAccountAddress","inputs":[{"name":"","type":"uint256","internalType":"uint256"}],"outputs":[{"name":"","type":"address","internalType":"address"}],"stateMutability":"view"},{"type":"function","name":"tokenOfOwnerByIndex","inputs":[{"name":"owner","type":"address","internalType":"address"},{"name":"index","type":"uint256","internalType":"uint256"}],"outputs":[{"name":"","type":"uint256","internalType":"uint256"}],"stateMutability":"view"},{"type":"function","name":"tokenURI","inputs":[{"name":"_tokenId","type":"uint256","internalType":"uint256"}],"outputs":[{"name":"","type":"string","internalType":"string"}],"stateMutability":"view"},{"type":"function","name":"totalSupply","inputs":[],"outputs":[{"name":"","type":"uint256","internalType":"uint256"}],"stateMutability":"view"},{"type":"function","name":"traitsContract","inputs":[],"outputs":[{"name":"","type":"address","internalType":"contract PeterTraits"}],"stateMutability":"view"},{"type":"function","name":"transferFrom","inputs":[{"name":"from","type":"address","internalType":"address"},{"name":"to","type":"address","internalType":"address"},{"name":"tokenId","type":"uint256","internalType":"uint256"}],"outputs":[],"stateMutability":"nonpayable"},{"type":"function","name":"transferOwnership","inputs":[{"name":"newOwner","type":"address","internalType":"address"}],"outputs":[],"stateMutability":"payable"},{"type":"function","name":"unequipAccessory","inputs":[{"name":"_peterTokenId","type":"uint256","internalType":"uint256"}],"outputs":[],"stateMutability":"nonpayable"},{"type":"function","name":"unequipAll","inputs":[{"name":"_peterTokenId","type":"uint256","internalType":"uint256"}],"outputs":[],"stateMutability":"nonpayable"},{"type":"function","name":"unequipBottom","inputs":[{"name":"_peterTokenId","type":"uint256","internalType":"uint256"}],"outputs":[],"stateMutability":"nonpayable"},{"type":"function","name":"unequipFace","inputs":[{"name":"_peterTokenId","type":"uint256","internalType":"uint256"}],"outputs":[],"stateMutability":"nonpayable"},{"type":"function","name":"unequipHair","inputs":[{"name":"_peterTokenId","type":"uint256","internalType":"uint256"}],"outputs":[],"stateMutability":"nonpayable"},{"type":"function","name":"unequipHead","inputs":[{"name":"_peterTokenId","type":"uint256","internalType":"uint256"}],"outputs":[],"stateMutability":"nonpayable"},{"type":"function","name":"unequipShoes","inputs":[{"name":"_peterTokenId","type":"uint256","internalType":"uint256"}],"outputs":[],"stateMutability":"nonpayable"},{"type":"function","name":"unequipTop","inputs":[{"name":"_peterTokenId","type":"uint256","internalType":"uint256"}],"outputs":[],"stateMutability":"nonpayable"},{"type":"function","name":"walletOfOwner","inputs":[{"name":"_owner","type":"address","internalType":"address"}],"outputs":[{"name":"","type":"uint256[]","internalType":"uint256[]"}],"stateMutability":"view"},{"type":"function","name":"zRenderer","inputs":[],"outputs":[{"name":"","type":"address","internalType":"contract ZRenderer"}],"stateMutability":"view"},{"type":"event","name":"Approval","inputs":[{"name":"owner","type":"address","indexed":true,"internalType":"address"},{"name":"approved","type":"address","indexed":true,"internalType":"address"},{"name":"tokenId","type":"uint256","indexed":true,"internalType":"uint256"}],"anonymous":false},{"type":"event","name":"ApprovalForAll","inputs":[{"name":"owner","type":"address","indexed":true,"internalType":"address"},{"name":"operator","type":"address","indexed":true,"internalType":"address"},{"name":"approved","type":"bool","indexed":false,"internalType":"bool"}],"anonymous":false},{"type":"event","name":"BackgroundColor","inputs":[{"name":"owner","type":"address","indexed":true,"internalType":"address"},{"name":"tokenId","type":"uint256","indexed":true,"internalType":"uint256"},{"name":"color","type":"string","indexed":false,"internalType":"string"}],"anonymous":false},{"type":"event","name":"BatchMetadataUpdate","inputs":[{"name":"_fromTokenId","type":"uint256","indexed":false,"internalType":"uint256"},{"name":"_toTokenId","type":"uint256","indexed":false,"internalType":"uint256"}],"anonymous":false},{"type":"event","name":"BodyIndex","inputs":[{"name":"owner","type":"address","indexed":true,"internalType":"address"},{"name":"tokenId","type":"uint256","indexed":true,"internalType":"uint256"},{"name":"_bodyIndex","type":"uint8","indexed":false,"internalType":"uint8"}],"anonymous":false},{"type":"event","name":"Equip","inputs":[{"name":"owner","type":"address","indexed":true,"internalType":"address"},{"name":"tokenId","type":"uint256","indexed":true,"internalType":"uint256"},{"name":"traitTokenId","type":"uint256","indexed":true,"internalType":"uint256"},{"name":"traitCategory","type":"string","indexed":false,"internalType":"string"}],"anonymous":false},{"type":"event","name":"EquipAll","inputs":[{"name":"owner","type":"address","indexed":true,"internalType":"address"},{"name":"tokenId","type":"uint256","indexed":true,"internalType":"uint256"}],"anonymous":false},{"type":"event","name":"MetadataUpdate","inputs":[{"name":"_tokenId","type":"uint256","indexed":false,"internalType":"uint256"}],"anonymous":false},{"type":"event","name":"Mint","inputs":[{"name":"owner","type":"address","indexed":true,"internalType":"address"},{"name":"tokenId","type":"uint256","indexed":true,"internalType":"uint256"}],"anonymous":false},{"type":"event","name":"OwnershipHandoverCanceled","inputs":[{"name":"pendingOwner","type":"address","indexed":true,"internalType":"address"}],"anonymous":false},{"type":"event","name":"OwnershipHandoverRequested","inputs":[{"name":"pendingOwner","type":"address","indexed":true,"internalType":"address"}],"anonymous":false},{"type":"event","name":"OwnershipTransferred","inputs":[{"name":"oldOwner","type":"address","indexed":true,"internalType":"address"},{"name":"newOwner","type":"address","indexed":true,"internalType":"address"}],"anonymous":false},{"type":"event","name":"RenderZ","inputs":[{"name":"owner","type":"address","indexed":true,"internalType":"address"},{"name":"tokenId","type":"uint256","indexed":true,"internalType":"uint256"},{"name":"renderZ","type":"bool","indexed":false,"internalType":"bool"}],"anonymous":false},{"type":"event","name":"Transfer","inputs":[{"name":"from","type":"address","indexed":true,"internalType":"address"},{"name":"to","type":"address","indexed":true,"internalType":"address"},{"name":"tokenId","type":"uint256","indexed":true,"internalType":"uint256"}],"anonymous":false},{"type":"event","name":"Unequip","inputs":[{"name":"owner","type":"address","indexed":true,"internalType":"address"},{"name":"tokenId","type":"uint256","indexed":true,"internalType":"uint256"},{"name":"traitCategory","type":"string","indexed":true,"internalType":"string"}],"anonymous":false},{"type":"event","name":"UnequipAll","inputs":[{"name":"owner","type":"address","indexed":true,"internalType":"address"},{"name":"tokenId","type":"uint256","indexed":true,"internalType":"uint256"}],"anonymous":false},{"type":"error","name":"AlreadyInitialized","inputs":[]},{"type":"error","name":"BodyAlreadyExists","inputs":[]},{"type":"error","name":"CantTransfer","inputs":[]},{"type":"error","name":"CantTransferToTBAs","inputs":[]},{"type":"error","name":"FirstSeasonRenderMinterNotSet","inputs":[]},{"type":"error","name":"IncorrectPeterOwner","inputs":[]},{"type":"error","name":"IncorrectTBAOwner","inputs":[]},{"type":"error","name":"IncorrectTraitType","inputs":[]},{"type":"error","name":"InvalidBodyIndex","inputs":[]},{"type":"error","name":"InvalidColor","inputs":[]},{"type":"error","name":"InvalidLevelAmount","inputs":[]},{"type":"error","name":"InvalidSignature","inputs":[]},{"type":"error","name":"NewOwnerIsZeroAddress","inputs":[]},{"type":"error","name":"NoHandoverRequest","inputs":[]},{"type":"error","name":"NonceAlreadyUsed","inputs":[]},{"type":"error","name":"PeterDoesntExist","inputs":[]},{"type":"error","name":"Unauthorized","inputs":[]}],"bytecode":{"object":"0x608060405260636014553480156200001657600080fd5b5060405162006b7538038062006b75833981016040819052620000399162000100565b6040518060400160405280600a81526020016914195d195c8815195cdd60b21b815250604051806040016040528060058152602001642822aa22a960d91b81525081600090816200008b9190620001d2565b5060016200009a8282620001d2565b50506001600a5550620000ad33620000c4565b600b805460ff19169115159190911790556200029e565b6001600160a01b0316638b78c6d8198190558060007f8be0079c531659141344cd1fd0a4f28419497f9722a3daafe3b4186f6b6457e08180a350565b6000602082840312156200011357600080fd5b815180151581146200012457600080fd5b9392505050565b634e487b7160e01b600052604160045260246000fd5b600181811c908216806200015657607f821691505b6020821081036200017757634e487b7160e01b600052602260045260246000fd5b50919050565b601f821115620001cd576000816000526020600020601f850160051c81016020861015620001a85750805b601f850160051c820191505b81811015620001c957828155600101620001b4565b5050505b505050565b81516001600160401b03811115620001ee57620001ee6200012b565b6200020681620001ff845462000141565b846200017d565b602080601f8311600181146200023e5760008415620002255750858301515b600019600386901b1c1916600185901b178555620001c9565b600085815260208120601f198616915b828110156200026f578886015182559484019460019091019084016200024e565b50858210156200028e5787850151600019600388901b60f8161c191681555b5050505050600190811b01905550565b6168c780620002ae6000396000f3fe6080604052600436106104aa5760003560e01c806370a082311161026b578063a1d626801161014f578063d5b55c8b116100c1578063f04e283e11610085578063f04e283e14610f1b578063f18dc22d14610f2e578063f2361e2314610f4e578063f2fde38b14610f6e578063f6a0c93214610f81578063fee81cf414610fb757600080fd5b8063d5b55c8b14610e52578063d68c4f3214610e72578063e140554014610e92578063e37db3c214610eb2578063e985e9c514610ed257600080fd5b8063b28fbe4011610113578063b28fbe4014610d92578063b88d4fde14610db2578063be928ff614610dd2578063c093afdb14610dff578063c87b56dd14610e1f578063cef80d4a14610e3f57600080fd5b8063a1d6268014610cd7578063a22cb46514610cf7578063a23830ae14610d17578063a4bf9a0014610d45578063abc8c7af14610d7257600080fd5b806392012f08116101e85780639c05d68d116101ac5780639c05d68d14610c165780639c76201514610c4c5780639c7be2f114610c6c5780639f6e463714610c81578063a035b1fe14610ca1578063a15c561b14610cb757600080fd5b806392012f0814610b7257806393ccba7214610ba157806394cbd9c414610bc157806395d89b4114610be1578063998cfb6e14610bf657600080fd5b80638200ea511161022f5780638200ea5114610ac65780638aa1e4c814610af95780638da5cb5b14610b19578063916c546b14610b3257806391b7f5ed14610b5257600080fd5b806370a0823114610a3e578063715018a614610a5e57806373ad6c2d14610a665780637557f2dc14610a865780637afe8d3414610aa657600080fd5b80632f745c59116103925780634f6ccce71161030f5780635eabd84a116102d35780635eabd84a1461095457806360b77b23146109745780636273ca2c146109945780636352211e146109b457806366704349146109d457806366b89b5a14610a1e57600080fd5b80634f6ccce7146108cc57806354d1f13d146108ec57806355737f35146108f457806358180d351461091457806358a976401461093457600080fd5b806342842e0e1161035657806342842e0e1461081f578063438b63001461083f57806345a10d0f1461086c5780634a4333a31461088c5780634ddb3961146108ac57600080fd5b80632f745c591461077f5780633044825b1461079f578063306c7334146107bf57806333d3d9bf146107df578063347bd8f4146107ff57600080fd5b8063105338e01161042b57806318160ddd116103ef57806318160ddd146106d85780631e162a33146106f757806323b872dd146107175780632569296214610737578063293ed3f71461073f5780632bd1ca451461075f57600080fd5b8063105338e0146106505780631249c58b1461067057806313ea0ae31461067857806314fe8ff414610698578063172b054d146106b857600080fd5b806307f4e0451161047257806307f4e04514610588578063081812fc146105a8578063095ea7b3146105e05780630c83f9d7146106005780630f1623201461063057600080fd5b806301ffc9a7146104af57806304003bd0146104e45780630447a45e14610524578063062101971461054657806306fdde0314610566575b600080fd5b3480156104bb57600080fd5b506104cf6104ca366004614fce565b610fea565b60405190151581526020015b60405180910390f35b3480156104f057600080fd5b506105046104ff366004614feb565b610ffb565b604080516001600160a01b039384168152929091166020830152016104db565b34801561053057600080fd5b5061054461053f366004615004565b61102a565b005b34801561055257600080fd5b5061054461056136600461503b565b6110ac565b34801561057257600080fd5b5061057b6110d6565b6040516104db91906150a8565b34801561059457600080fd5b506105446105a33660046150d0565b611168565b3480156105b457600080fd5b506105c86105c3366004614feb565b6111e0565b6040516001600160a01b0390911681526020016104db565b3480156105ec57600080fd5b506105446105fb3660046150fc565b611207565b34801561060c57600080fd5b5061062061061b366004614feb565b611321565b6040516104db9493929190615128565b34801561063c57600080fd5b5061054461064b366004615004565b6114e2565b34801561065c57600080fd5b5061054461066b366004614feb565b611553565b6105446115cb565b34801561068457600080fd5b506018546105c8906001600160a01b031681565b3480156106a457600080fd5b5061057b6106b3366004614feb565b6115d7565b3480156106c457600080fd5b506105446106d336600461503b565b611850565b3480156106e457600080fd5b506008545b6040519081526020016104db565b34801561070357600080fd5b50610544610712366004615004565b61187a565b34801561072357600080fd5b50610544610732366004615172565b6118e8565b610544611919565b34801561074b57600080fd5b5061054461075a366004614feb565b611968565b34801561076b57600080fd5b5061057b61077a366004614feb565b61199f565b34801561078b57600080fd5b506106e961079a3660046150fc565b611a63565b3480156107ab57600080fd5b506105446107ba366004614feb565b611af9565b3480156107cb57600080fd5b5061057b6107da366004614feb565b611b81565b3480156107eb57600080fd5b506105446107fa366004614feb565b611ba4565b34801561080b57600080fd5b5061054461081a366004614feb565b611bb1565b34801561082b57600080fd5b5061054461083a366004615172565b611be2565b34801561084b57600080fd5b5061085f61085a36600461503b565b611bfd565b6040516104db91906151b3565b34801561087857600080fd5b50610544610887366004615004565b611c94565b34801561089857600080fd5b506105446108a73660046151f7565b611d07565b3480156108b857600080fd5b506105446108c736600461503b565b611dc0565b3480156108d857600080fd5b506106e96108e7366004614feb565b611dea565b610544611e7d565b34801561090057600080fd5b506105c861090f366004615004565b611eb9565b34801561092057600080fd5b5061054461092f366004614feb565b611ef1565b34801561094057600080fd5b5061054461094f36600461503b565b611f24565b34801561096057600080fd5b5061054461096f36600461503b565b611f4e565b34801561098057600080fd5b5061054461098f366004615004565b611f78565b3480156109a057600080fd5b506105446109af366004614feb565b611fea565b3480156109c057600080fd5b506105c86109cf366004614feb565b61206e565b3480156109e057600080fd5b506109f46109ef366004614feb565b6120ce565b604080516001600160a01b03948516815260208101939093529216918101919091526060016104db565b348015610a2a57600080fd5b506019546105c8906001600160a01b031681565b348015610a4a57600080fd5b506106e9610a5936600461503b565b61216f565b6105446121f5565b348015610a7257600080fd5b50610544610a8136600461503b565b612207565b348015610a9257600080fd5b5061057b610aa1366004614feb565b612231565b348015610ab257600080fd5b50610544610ac1366004614feb565b612503565b348015610ad257600080fd5b506104cf610ae1366004614feb565b6000908152600c60205260409020600b015460ff1690565b348015610b0557600080fd5b506104cf610b14366004615004565b612532565b348015610b2557600080fd5b50638b78c6d819546105c8565b348015610b3e57600080fd5b5061057b610b4d366004614feb565b6125a1565b348015610b5e57600080fd5b50610544610b6d366004614feb565b6126c5565b348015610b7e57600080fd5b50610b92610b8d36600461535d565b6126d2565b6040516104db93929190615456565b348015610bad57600080fd5b50610544610bbc366004615499565b612870565b348015610bcd57600080fd5b50610544610bdc366004615004565b6128a0565b348015610bed57600080fd5b5061057b612911565b348015610c0257600080fd5b5061085f610c1136600461503b565b612920565b348015610c2257600080fd5b506105c8610c31366004614feb565b6015602052600090815260409020546001600160a01b031681565b348015610c5857600080fd5b50610544610c67366004614feb565b612996565b348015610c7857600080fd5b506105446129ca565b348015610c8d57600080fd5b5061085f610c9c366004614feb565b612a26565b348015610cad57600080fd5b506106e960135481565b348015610cc357600080fd5b50601a546105c8906001600160a01b031681565b348015610ce357600080fd5b5061057b610cf2366004614feb565b612a4a565b348015610d0357600080fd5b50610544610d12366004615535565b612a7a565b348015610d2357600080fd5b50610d37610d3236600461535d565b612a89565b6040516104db929190615561565b348015610d5157600080fd5b506106e9610d6036600461503b565b60166020526000908152604090205481565b348015610d7e57600080fd5b506011546105c8906001600160a01b031681565b348015610d9e57600080fd5b5061057b610dad366004614feb565b612af4565b348015610dbe57600080fd5b50610544610dcd36600461558f565b612d7b565b348015610dde57600080fd5b50610df2610ded366004614feb565b612db3565b6040516104db91906155fa565b348015610e0b57600080fd5b506010546105c8906001600160a01b031681565b348015610e2b57600080fd5b5061057b610e3a366004614feb565b612f59565b610544610e4d3660046156f3565b612f9a565b348015610e5e57600080fd5b50610544610e6d366004614feb565b6130a5565b348015610e7e57600080fd5b50610544610e8d366004615773565b6130d7565b348015610e9e57600080fd5b50610544610ead3660046157b9565b6132ca565b348015610ebe57600080fd5b5061057b610ecd3660046157dc565b613369565b348015610ede57600080fd5b506104cf610eed366004615810565b6001600160a01b03918216600090815260056020908152604080832093909416825291909152205460ff1690565b610544610f2936600461503b565b61361b565b348015610f3a57600080fd5b50610544610f49366004615004565b61365b565b348015610f5a57600080fd5b50610544610f69366004615849565b6136cb565b610544610f7c36600461503b565b613718565b348015610f8d57600080fd5b506105c8610f9c366004614feb565b6000908152601560205260409020546001600160a01b031690565b348015610fc357600080fd5b506106e9610fd236600461503b565b63389a75e1600c908152600091909152602090205490565b6000610ff58261373f565b92915050565b6000806110078361206e565b6000938452601560205260409093205492936001600160a01b0390931692915050565b6110348282613764565b61103f816004613823565b6000828152600c60205260409020600301819055808261105e8161206e565b6001600160a01b031660008051602061636d8339815191526040516110a0906020808252600990820152684163636573736f727960b81b604082015260600190565b60405180910390a45050565b6110b4613925565b601c80546001600160a01b0319166001600160a01b0392909216919091179055565b6060600080546110e5906158ce565b80601f0160208091040260200160405190810160405280929190818152602001828054611111906158ce565b801561115e5780601f106111335761010080835404028352916020019161115e565b820191906000526020600020905b81548152906001019060200180831161114157829003601f168201915b5050505050905090565b61117182613940565b6000828152600c60205260409020600b01805460ff1916821515179055816111988161206e565b6001600160a01b03167f0b42132106437554485bc84e473475fc8313b019bfc026285cf6ed57639803b8836040516111d4911515815260200190565b60405180910390a35050565b60006111eb8261397a565b506000908152600460205260409020546001600160a01b031690565b60006112128261206e565b9050806001600160a01b0316836001600160a01b0316036112845760405162461bcd60e51b815260206004820152602160248201527f4552433732313a20617070726f76616c20746f2063757272656e74206f776e656044820152603960f91b60648201526084015b60405180910390fd5b336001600160a01b03821614806112a057506112a08133610eed565b6113125760405162461bcd60e51b815260206004820152603e60248201527f4552433732313a20617070726f76652063616c6c6572206973206e6f7420746f60448201527f6b656e206f776e6572206e6f7220617070726f76656420666f7220616c6c0000606482015260840161127b565b61131c83836139d9565b505050565b600f6020526000908152604090208054600182018054919291611343906158ce565b80601f016020809104026020016040519081016040528092919081815260200182805461136f906158ce565b80156113bc5780601f10611391576101008083540402835291602001916113bc565b820191906000526020600020905b81548152906001019060200180831161139f57829003601f168201915b5050505050908060020180546113d1906158ce565b80601f01602080910402602001604051908101604052809291908181526020018280546113fd906158ce565b801561144a5780601f1061141f5761010080835404028352916020019161144a565b820191906000526020600020905b81548152906001019060200180831161142d57829003601f168201915b50505050509080600301805461145f906158ce565b80601f016020809104026020016040519081016040528092919081815260200182805461148b906158ce565b80156114d85780601f106114ad576101008083540402835291602001916114d8565b820191906000526020600020905b8154815290600101906020018083116114bb57829003601f168201915b5050505050905084565b6114ec8282613764565b6114f7816003613823565b6000828152600c6020526040902060020181905580826115168161206e565b6001600160a01b031660008051602061636d8339815191526040516110a0906020808252600490820152634661636560e01b604082015260600190565b61155c81613940565b6000818152600c60205260408082206001019190915551632430b4b960e11b81526004015b6040518091039020816115938361206e565b6001600160a01b03167fe428b1839105819dce5e635ac7e16ed2a43028f6e294bab8655e29acb5dc60bb60405160405180910390a450565b6115d56004613a47565b565b606060006115e483612a26565b905060006040518060400160405280601b81526020017f3c7376672076696577426f783d223020302031353020313530223e000000000081525090506000604051806040016040528060068152602001651e17b9bb339f60d11b815250905060606000601060009054906101000a90046001600160a01b03166001600160a01b0316635c1ef2566040518163ffffffff1660e01b8152600401600060405180830381865afa15801561169a573d6000803e3d6000fd5b505050506040513d6000823e601f3d908101601f191682016040526116c2919081019061594d565b905060006014548651106116d8576014546116db565b85515b9050604051806105400160405280610505815260200161638d61050591398260405160200161170b929190615981565b604051602081830303815290604052925060005b818110156117f05760105487516000916001600160a01b03169063c7791531908a9085908110611751576117516159d8565b60200260200101516040518263ffffffff1660e01b815260040161177791815260200190565b600060405180830381865afa158015611794573d6000803e3d6000fd5b505050506040513d6000823e601f3d908101601f191682016040526117bc919081019061594d565b9050848782886040516020016117d594939291906159ee565b60408051601f1981840301815291905294505060010161171f565b50601454865111156118235782858560405160200161181193929190615a45565b60405160208183030381529060405292505b826040516020016118349190615b60565b60408051601f1981840301815291905298975050505050505050565b611858613925565b601a80546001600160a01b0319166001600160a01b0392909216919091179055565b6118848282613764565b61188f816001613823565b6000828152600c6020526040902081905580826118ab8161206e565b6001600160a01b031660008051602061636d8339815191526040516110a0906020808252600490820152631219585960e21b604082015260600190565b6118f23382613da9565b61190e5760405162461bcd60e51b815260040161127b90615b88565b61131c838383613e27565b60006202a3006001600160401b03164201905063389a75e1600c5233600052806020600c2055337fdbf36a107da19e49527a7176a1babf963b4b0ff8cde35ee35d6cd8f1f9ac7e1d600080a250565b61197181613940565b6000818152600c60205260408082206003019190915551684163636573736f727960b81b8152600901611581565b606080606060006119af85612db3565b90506119ba816126d2565b5060105460405163bb12d21d60e01b81529195506001600160a01b0316915063bb12d21d906119ed9084906004016155fa565b600060405180830381865afa158015611a0a573d6000803e3d6000fd5b505050506040513d6000823e601f3d908101601f19168201604052611a329190810190615bd6565b50604051909350611a4a915084908490602001615c5d565b6040516020818303038152906040529350505050919050565b6000611a6e8361216f565b8210611ad05760405162461bcd60e51b815260206004820152602b60248201527f455243373231456e756d657261626c653a206f776e657220696e646578206f7560448201526a74206f6620626f756e647360a81b606482015260840161127b565b506001600160a01b03919091166000908152600660209081526040808320938352929052205490565b611b0281613940565b6000818152600c602052604081208181556001810182905560028101829055600381018290556004810182905560058101829055600681019190915581611b488161206e565b6001600160a01b03167f46078a2cd4c69c3b4a27bdc69fdfe03d442ebcf405f1a68e9b5df6bc3e24429760405160405180910390a35050565b6060806000611b8f84612db3565b9050611b9a816126d2565b5095945050505050565b611bac613925565b601455565b611bba81613940565b6000818152600c60205260408082206004019190915551620546f760ec1b8152600301611581565b61131c83838360405180602001604052806000815250612d7b565b60606000611c0a8361216f565b90506000816001600160401b03811115611c2657611c2661524c565b604051908082528060200260200182016040528015611c4f578160200160208202803683370190505b50905060005b82811015611c8c57611c678582611a63565b828281518110611c7957611c796159d8565b6020908102919091010152600101611c55565b509392505050565b611c9e8282613764565b611ca9816006613823565b6000828152600c602052604090206005018190558082611cc88161206e565b6001600160a01b031660008051602061636d8339815191526040516110a090602080825260069082015265426f74746f6d60d01b604082015260600190565b8615611d1757611d17888861187a565b8515611d2757611d2788876128a0565b8415611d3757611d3788866114e2565b8315611d4757611d47888561102a565b8215611d5757611d57888461365b565b8115611d6757611d678883611c94565b8015611d7757611d778882611f78565b87611d818961206e565b6001600160a01b03167f56680590212b09eb4b72a2eba8801b037ec046dfc754538e924f5bb6a8c4db6c60405160405180910390a35050505050505050565b611dc8613925565b601980546001600160a01b0319166001600160a01b0392909216919091179055565b6000611df560085490565b8210611e585760405162461bcd60e51b815260206004820152602c60248201527f455243373231456e756d657261626c653a20676c6f62616c20696e646578206f60448201526b7574206f6620626f756e647360a01b606482015260840161127b565b60088281548110611e6b57611e6b6159d8565b90600052602060002001549050919050565b63389a75e1600c523360005260006020600c2055337ffa7b8eab7da67f412cc9575ed43464468f9bfbae89d1675917346ca6d8fe3c92600080a2565b60176020528160005260406000208181548110611ed557600080fd5b6000918252602090912001546001600160a01b03169150829050565b611efa81613940565b6000818152600c602052604080822060060191909155516453686f657360d81b8152600501611581565b611f2c613925565b601880546001600160a01b0319166001600160a01b0392909216919091179055565b611f56613925565b601080546001600160a01b0319166001600160a01b0392909216919091179055565b611f828282613764565b611f8d816007613823565b6000828152600c602052604090206006018190558082611fac8161206e565b6001600160a01b031660008051602061636d8339815191526040516110a09060208082526005908201526453686f657360d81b604082015260600190565b600081815260156020526040908190205460105491516340d097c360e01b81526001600160a01b03918216600482018190529291909116906340d097c3906024016020604051808303816000875af115801561204a573d6000803e3d6000fd5b505050506040513d601f19601f8201168201806040525081019061131c9190615c8c565b6000818152600260205260408120546001600160a01b031680610ff55760405162461bcd60e51b8152602060048201526018602482015277115490cdcc8c4e881a5b9d985b1a59081d1bdad95b88125160421b604482015260640161127b565b6010546040516331a9108f60e11b815260048101839052600091829182916001600160a01b031690636352211e90602401602060405180830381865afa15801561211c573d6000803e3d6000fd5b505050506040513d601f19601f820116820180604052508101906121409190615ca5565b6001600160a01b03811660009081526016602052604090205490935091506121678261206e565b929491935050565b60006001600160a01b0382166121d95760405162461bcd60e51b815260206004820152602960248201527f4552433732313a2061646472657373207a65726f206973206e6f7420612076616044820152683634b21037bbb732b960b91b606482015260840161127b565b506001600160a01b031660009081526003602052604090205490565b6121fd613925565b6115d56000613fce565b61220f613925565b601180546001600160a01b0319166001600160a01b0392909216919091179055565b606080606080606080606080606061226a6040518060800160405280606081526020016060815260200160608152602001600081525090565b60006122758c612db3565b9050612280816126d2565b60105460405163bb12d21d60e01b8152939d50919a5095506001600160a01b03169063bb12d21d906122b69084906004016155fa565b600060405180830381865afa1580156122d3573d6000803e3d6000fd5b505050506040513d6000823e601f3d908101601f191682016040526122fb9190810190615bd6565b604051929b5090985095506123169085908790602001615cc2565b6040516020818303038152906040529250878760405160200161233a929190615c5d565b60408051601f198184030181529190526101408201518352955061235d8c612a26565b51606083015261012081015160ff166000908152600f602052604090206001018054612388906158ce565b80601f01602080910402602001604051908101604052809291908181526020018280546123b4906158ce565b80156124015780601f106123d657610100808354040283529160200191612401565b820191906000526020600020905b8154815290600101906020018083116123e457829003601f168201915b5050505050826020018190525061242a8c6000908152600c60205260409020600b015460ff1690565b61244e57604051806040016040528060028152602001610c9160f21b81525061246a565b604051806040016040528060028152602001610cd160f21b8152505b604080840191909152601a5490516332d01b2560e21b81526001600160a01b039091169063cb406c94906124ae908f908e9089908f908c908e908b90600401615d86565b600060405180830381865afa1580156124cb573d6000803e3d6000fd5b505050506040513d6000823e601f3d908101601f191682016040526124f3919081019061594d565b9c9b505050505050505050505050565b61250c81613940565b6000818152600c60205260408082209190915551631219585960e21b8152600401611581565b60008061253e84612db3565b80519091508314806125535750828160200151145b806125615750828160400151145b8061256f5750828160600151145b8061257d5750828160800151145b8061258b5750828160a00151145b806125995750828160c00151145b949350505050565b6000818152600f60205260408120600201805460609291612648916125c5906158ce565b80601f01602080910402602001604051908101604052809291908181526020018280546125f1906158ce565b801561263e5780601f106126135761010080835404028352916020019161263e565b820191906000526020600020905b81548152906001019060200180831161262157829003601f168201915b5050505050613369565b6019546040516335b07b7960e11b81529192506001600160a01b031690636b60f6f2906126799084906004016150a8565b600060405180830381865afa158015612696573d6000803e3d6000fd5b505050506040513d6000823e601f3d908101601f191682016040526126be919081019061594d565b9392505050565b6126cd613925565b601355565b60608060606126e884610120015160ff166125a1565b600f600086610120015160ff1681526020019081526020016000206003016127d760405180604001604052806009815260200168426f6479205479706560b81b815250600f600089610120015160ff1681526020019081526020016000206001018054612754906158ce565b80601f0160208091040260200160405190810160405280929190818152602001828054612780906158ce565b80156127cd5780601f106127a2576101008083540402835291602001916127cd565b820191906000526020600020905b8154815290600101906020018083116127b057829003601f168201915b505050505061400c565b8180546127e3906158ce565b80601f016020809104026020016040519081016040528092919081815260200182805461280f906158ce565b801561285c5780601f106128315761010080835404028352916020019161285c565b820191906000526020600020905b81548152906001019060200180831161283f57829003601f168201915b505050505091509250925092509193909250565b6128808a8a8a8a8a8a8a8a611d07565b61288a8a836132ca565b6128948a826130d7565b50505050505050505050565b6128aa8282613764565b6128b5816002613823565b6000828152600c6020526040902060010181905580826128d48161206e565b6001600160a01b031660008051602061636d8339815191526040516110a0906020808252600490820152632430b4b960e11b604082015260600190565b6060600180546110e5906158ce565b60105460405162438b6360e81b81526001600160a01b03838116600483015260609260009291169063438b630090602401600060405180830381865afa15801561296e573d6000803e3d6000fd5b505050506040513d6000823e601f3d908101601f191682016040526126be9190810190615e0f565b61299f81613940565b6000818152600c6020526040808220600501919091555165426f74746f6d60d01b8152600601611581565b600b5460ff16156115d55760005b60648110156129f1576129e96115cb565b6001016129d8565b50612a1b60016040518060400160405280600681526020016533333333333360d11b8152506130d7565b6115d5600180611168565b6000818152601560205260409020546060906001600160a01b03166126be81612920565b60606000612a5783612db3565b9050806101600151612a7157612a6c83612af4565b6126be565b6126be83612231565b612a85338383614038565b5050565b606080612a9d83610120015160ff166125a1565b612aeb60405180604001604052806009815260200168426f6479205479706560b81b815250600f600087610120015160ff1681526020019081526020016000206001018054612754906158ce565b91509150915091565b6060806060806060806000612b0888612db3565b9050612b1381612a89565b601054604051631be5857160e31b81529298509096506001600160a01b03169063df2c2b8890612b479084906004016155fa565b600060405180830381865afa158015612b64573d6000803e3d6000fd5b505050506040513d6000823e601f3d908101601f19168201604052612b8c9190810190615eb4565b9094509250612b9a886115d7565b9150612bc76040518060800160405280606081526020016060815260200160608152602001600081525090565b6101408201518152612bd889612a26565b51606082015261012082015160ff166000908152600f602052604090206001018054612c03906158ce565b80601f0160208091040260200160405190810160405280929190818152602001828054612c2f906158ce565b8015612c7c5780601f10612c5157610100808354040283529160200191612c7c565b820191906000526020600020905b815481529060010190602001808311612c5f57829003601f168201915b50505050508160200181905250612ca5896000908152600c60205260409020600b015460ff1690565b612cc957604051806040016040528060028152602001610c9160f21b815250612ce5565b604051806040016040528060028152602001610cd160f21b8152505b6040808301919091526019549051634e2fa37760e11b81526001600160a01b0390911690639c5f46ee90612d29908c908b908b908b908b908b908a90600401615d86565b600060405180830381865afa158015612d46573d6000803e3d6000fd5b505050506040513d6000823e601f3d908101601f19168201604052612d6e919081019061594d565b9998505050505050505050565b612d853383613da9565b612da15760405162461bcd60e51b815260040161127b90615b88565b612dad848484846140fe565b50505050565b612e2260405180610180016040528060008152602001600081526020016000815260200160008152602001600081526020016000815260200160008152602001600063ffffffff16815260200160008152602001600060ff168152602001606081526020016000151581525090565b6000828152600c60209081526040808320815161018081018352815481526001820154938101939093526002810154918301919091526003810154606083015260048101546080830152600581015460a0830152600681015460c0830152600781015463ffffffff1660e08301526008810154610100830152600981015460ff16610120830152600a8101805461014084019190612ebf906158ce565b80601f0160208091040260200160405190810160405280929190818152602001828054612eeb906158ce565b8015612f385780601f10612f0d57610100808354040283529160200191612f38565b820191906000526020600020905b815481529060010190602001808311612f1b57829003601f168201915b5050509183525050600b919091015460ff1615156020909101529392505050565b6000818152600260205260409020546060906001600160a01b0316612f9157604051631a65aaab60e31b815260040160405180910390fd5b610ff582612a4a565b60048560ff161080612faf575060078560ff16115b15612fcd576040516367af3f5360e01b815260040160405180910390fd5b613002338585604051602001612fe593929190615f0d565b604051602081830303815290604052805190602001208383614131565b61301f57604051638baa579f60e01b815260040160405180910390fd5b601b8484604051613031929190615f39565b9081526040519081900360200190205460ff161561306157604051623f613760e71b815260040160405180910390fd5b61306a85613a47565b6001601b858560405161307e929190615f39565b908152604051908190036020019020805491151560ff199092169190911790555050505050565b6130ae81613940565b6000818152600c60205260408082206002019190915551634661636560e01b8152600401611581565b6130e082613940565b80516000036130ed575050565b8051819060061461311157604051631cf7e9c560e01b815260040160405180910390fd5b60005b600681101561325e57603060f81b828281518110613134576131346159d8565b01602001516001600160f81b031916108015906131755750603960f81b828281518110613163576131636159d8565b01602001516001600160f81b03191611155b1580156131d75750604160f81b828281518110613194576131946159d8565b01602001516001600160f81b031916108015906131d55750604660f81b8282815181106131c3576131c36159d8565b01602001516001600160f81b03191611155b155b80156132385750606160f81b8282815181106131f5576131f56159d8565b01602001516001600160f81b031916108015906132365750606660f81b828281518110613224576132246159d8565b01602001516001600160f81b03191611155b155b1561325657604051631cf7e9c560e01b815260040160405180910390fd5b600101613114565b506000838152600c60205260409020600a0161327a8382615f91565b50826132858461206e565b6001600160a01b03167f2e34f8c0f6052b66319b4a5df14eac164c6af8a0b37f612d4304a777e1ae7a3d846040516132bd91906150a8565b60405180910390a3505050565b6132d382613940565b60038160ff1611156132f8576040516329ba348d60e11b815260040160405180910390fd5b60ff811615612a85576000828152600c60205260409020600901805460ff191660ff8316179055816133298161206e565b60405160ff841681526001600160a01b0391909116907f454db5768a3f8187a5dd5e9cca100cf699d74d8a03f793d16da3932cdf34d358906020016111d4565b805160609080158015906133855750613383600582616066565b155b6133d15760405162461bcd60e51b815260206004820152601960248201527f496e76616c696420626f6479206279746573206c656e67746800000000000000604482015260640161127b565b604080516111948082526111c082019092526000916020820181803683370190505090506000613402600584616090565b905060005b8181101561361157600061341c8260056160a4565b90506000878281518110613432576134326159d8565b016020015160f81c905060008861344a8460016160bb565b8151811061345a5761345a6159d8565b016020015160f81c9050600060ff831661347583601e6160a4565b61347f91906160bb565b61348a9060056160a4565b905089848151811061349e5761349e6159d8565b602001015160f81c60f81b8782815181106134bb576134bb6159d8565b60200101906001600160f81b031916908160001a9053508984600101815181106134e7576134e76159d8565b602001015160f81c60f81b878260010181518110613507576135076159d8565b60200101906001600160f81b031916908160001a905350898460020181518110613533576135336159d8565b602001015160f81c60f81b878260020181518110613553576135536159d8565b60200101906001600160f81b031916908160001a90535089846003018151811061357f5761357f6159d8565b602001015160f81c60f81b87826003018151811061359f5761359f6159d8565b60200101906001600160f81b031916908160001a9053508984600401815181106135cb576135cb6159d8565b602001015160f81c60f81b8782600401815181106135eb576135eb6159d8565b60200101906001600160f81b031916908160001a90535050505050806001019050613407565b5090949350505050565b613623613925565b63389a75e1600c52806000526020600c20805442111561364b57636f5e88186000526004601cfd5b6000905561365881613fce565b50565b6136658282613764565b613670816005613823565b6000828152600c60205260409020600401819055808261368f8161206e565b6001600160a01b031660008051602061636d8339815191526040516110a0906020808252600390820152620546f760ec1b604082015260600190565b6136d3613925565b6000848152600f60205260409020848155600181016136f28582615f91565b50600281016137018482615f91565b50600381016137108382615f91565b505050505050565b613720613925565b8060601b61373657637448fbae6000526004601cfd5b61365881613fce565b60006001600160e01b0319821663780e9d6360e01b1480610ff55750610ff582614243565b61376d82613940565b6000828152601560205260408082205460105491516331a9108f60e11b8152600481018590526001600160a01b0391821693929190911690636352211e90602401602060405180830381865afa1580156137cb573d6000803e3d6000fd5b505050506040513d601f19601f820116820180604052508101906137ef9190615ca5565b9050816001600160a01b0316816001600160a01b031614612dad5760405163e6ca793160e01b815260040160405180910390fd5b60105460405163e8a1268d60e01b8152600481018490526000916001600160a01b03169063e8a1268d90602401602060405180830381865afa15801561386d573d6000803e3d6000fd5b505050506040513d601f19601f8201168201806040525081019061389191906160ce565b90508160078111156138a5576138a56160ef565b6040516020016138b791815260200190565b604051602081830303815290604052805190602001208160078111156138df576138df6160ef565b6040516020016138f191815260200190565b604051602081830303815290604052805190602001201461131c57604051633e54c6fb60e11b815260040160405180910390fd5b638b78c6d8195433146115d5576382b429006000526004601cfd5b6139498161206e565b6001600160a01b0316336001600160a01b031614613658576040516324adc17160e11b815260040160405180910390fd5b6000818152600260205260409020546001600160a01b03166136585760405162461bcd60e51b8152602060048201526018602482015277115490cdcc8c4e881a5b9d985b1a59081d1bdad95b88125160421b604482015260640161127b565b600081815260046020526040902080546001600160a01b0319166001600160a01b0384169081179091558190613a0e8261206e565b6001600160a01b03167f8c5be1e5ebec7d5bd14f71427d1e84f3dd0314c0f7b2291e5b200ac8c7c3b92560405160405180910390a45050565b6018546001600160a01b0316613a7057604051633390ca8960e21b815260040160405180910390fd5b6000601260008154613a8190616105565b91829055509050613a923382614293565b604051638a54c52f60e01b81527355266d75d1a14e4572138116af39863ed6596e7f600482015260006024820181905262014a34604483015230606483015260848201839052906f6551c19487814612e58fe0681377575890638a54c52f9060a4016020604051808303816000875af1158015613b13573d6000803e3d6000fd5b505050506040513d601f19601f82011682018060405250810190613b379190615ca5565b600083815260156020908152604080832080546001600160a01b0319166001600160a01b038616908117909155808452601690925291829020859055905163189acdbd60e31b81527341c8f39463a868d3a88af00cd0fe7102f30e44ec60048201529192509063c4d66de890602401600060405180830381600087803b158015613bc057600080fd5b505af1158015613bd4573d6000803e3d6000fd5b50506018546040516358a2727360e01b81526001600160a01b03858116600483015260ff881660248301526000945090911691506358a27273906044016000604051808303816000875af1158015613c30573d6000803e3d6000fd5b505050506040513d6000823e601f3d908101601f19168201604052613c589190810190615e0f565b6000848152600c6020526040812060088101869055825192935091839190613c8257613c826159d8565b6020026020010151816006018190555081600181518110613ca557613ca56159d8565b6020026020010151816005018190555081600281518110613cc857613cc86159d8565b6020026020010151816004018190555081600381518110613ceb57613ceb6159d8565b6020908102919091018101516001830155600b8201805460ff19169055604080518083018790528151808203840181529082019091528051910120613d3290600490616066565b60098201805460ff191660ff929092169190911790556040805180820190915260068152650c110d914e5160d21b6020820152600a820190613d749082615f91565b50604051849033907f0f6798a560793a54c3bcfe86a93cde1e73087d944c0ea20544137d412139688590600090a35050505050565b600080613db58361206e565b9050806001600160a01b0316846001600160a01b03161480613dfc57506001600160a01b0380821660009081526005602090815260408083209388168352929052205460ff165b806125995750836001600160a01b0316613e15846111e0565b6001600160a01b031614949350505050565b826001600160a01b0316613e3a8261206e565b6001600160a01b031614613e9e5760405162461bcd60e51b815260206004820152602560248201527f4552433732313a207472616e736665722066726f6d20696e636f72726563742060448201526437bbb732b960d91b606482015260840161127b565b6001600160a01b038216613f005760405162461bcd60e51b8152602060048201526024808201527f4552433732313a207472616e7366657220746f20746865207a65726f206164646044820152637265737360e01b606482015260840161127b565b613f0b8383836143e1565b613f166000826139d9565b6001600160a01b0383166000908152600360205260408120805460019290613f3f90849061611e565b90915550506001600160a01b0382166000908152600360205260408120805460019290613f6d9084906160bb565b909155505060008181526002602052604080822080546001600160a01b0319166001600160a01b0386811691821790925591518493918716917fddf252ad1be2c89b69c2b068fc378daa952ba7f163c4a11628f55a4df523b3ef91a4505050565b638b78c6d81980546001600160a01b039092169182907f8be0079c531659141344cd1fd0a4f28419497f9722a3daafe3b4186f6b6457e0600080a355565b60608282604051602001614021929190616131565b604051602081830303815290604052905092915050565b816001600160a01b0316836001600160a01b0316036140995760405162461bcd60e51b815260206004820152601960248201527f4552433732313a20617070726f766520746f2063616c6c657200000000000000604482015260640161127b565b6001600160a01b03838116600081815260056020908152604080832094871680845294825291829020805460ff191686151590811790915591519182527f17307eab39ab6107e8899845ad3d59bd9653f200f220920489ca2b5937696c3191016132bd565b614109848484613e27565b61411584848484614909565b612dad5760405162461bcd60e51b815260040161127b906161a2565b601c546000906001600160a01b03166141855760405162461bcd60e51b81526020600482015260166024820152754d697373696e672073797374656d206164647265737360501b604482015260640161127b565b60006141de856040517f19457468657265756d205369676e6564204d6573736167653a0a3332000000006020820152603c8101829052600090605c01604051602081830303815290604052805190602001209050919050565b601c54604080516020601f88018190048102820181019092528681529293506001600160a01b03909116916142309187908790819084018382808284376000920191909152508693925050614a0a9050565b6001600160a01b03161495945050505050565b60006001600160e01b031982166380ac58cd60e01b148061427457506001600160e01b03198216635b5e139f60e01b145b80610ff557506301ffc9a760e01b6001600160e01b0319831614610ff5565b6001600160a01b0382166142e95760405162461bcd60e51b815260206004820181905260248201527f4552433732313a206d696e7420746f20746865207a65726f2061646472657373604482015260640161127b565b6000818152600260205260409020546001600160a01b03161561434e5760405162461bcd60e51b815260206004820152601c60248201527f4552433732313a20746f6b656e20616c7265616479206d696e74656400000000604482015260640161127b565b61435a600083836143e1565b6001600160a01b03821660009081526003602052604081208054600192906143839084906160bb565b909155505060008181526002602052604080822080546001600160a01b0319166001600160a01b03861690811790915590518392907fddf252ad1be2c89b69c2b068fc378daa952ba7f163c4a11628f55a4df523b3ef908290a45050565b6002600a54036144335760405162461bcd60e51b815260206004820152601f60248201527f5265656e7472616e637947756172643a207265656e7472616e742063616c6c00604482015260640161127b565b6002600a556001600160a01b0382166000908152601660205260409020541561446f57604051639a42da2960e01b815260040160405180910390fd5b60008181526015602052604080822054601054915162438b6360e81b81526001600160a01b03918216600482018190529392919091169063438b630090602401600060405180830381865afa1580156144cc573d6000803e3d6000fd5b505050506040513d6000823e601f3d908101601f191682016040526144f49190810190615e0f565b9050600061450185611bfd565b9050600081516001600160401b0381111561451e5761451e61524c565b604051908082528060200260200182016040528015614547578160200160208202803683370190505b50905060005b82518110156145c8576015600084838151811061456c5761456c6159d8565b6020026020010151815260200190815260200160002060009054906101000a90046001600160a01b03168282815181106145a8576145a86159d8565b6001600160a01b039092166020928302919091019091015260010161454d565b50601154604051638b32238360e01b8152600481018790526000916001600160a01b031690638b32238390602401600060405180830381865afa158015614613573d6000803e3d6000fd5b505050506040513d6000823e601f3d908101601f1916820160405261463b91908101906161f4565b5091935050506001600160a01b03821615905061467d576011546001600160a01b0316331461467d5760405163bf646b0f60e01b815260040160405180910390fd5b60115460405163644ec52760e01b8152600481018890526001600160a01b039091169063644ec52790602401600060405180830381600087803b1580156146c357600080fd5b505af11580156146d7573d6000803e3d6000fd5b5050601154604051631e92beb560e31b8152600481018a90526001600160a01b038b81166024830152909116925063f495f5a89150604401600060405180830381600087803b15801561472957600080fd5b505af115801561473d573d6000803e3d6000fd5b5050505060005b84518110156148ee576000858281518110614761576147616159d8565b6020908102919091010151601154604051632e1d274f60e01b8152600481018390529192506001600160a01b031690632e1d274f90602401600060405180830381600087803b1580156147b357600080fd5b505af11580156147c7573d6000803e3d6000fd5b505060105460408051602480820187905282518083039091018152604490910182526020810180516001600160e01b031663487b1c2160e11b1790529051631d1083d360e21b81526001600160a01b038c811695506374420f4c94506148369316916000918290600401616275565b6000604051808303816000875af1158015614855573d6000803e3d6000fd5b505050506040513d6000823e601f3d908101601f1916820160405261487d919081019061594d565b50601154604051632333520b60e11b81526001600160a01b0390911690634666a416906148b090849088906004016162ad565b600060405180830381600087803b1580156148ca57600080fd5b505af11580156148de573d6000803e3d6000fd5b5050505050806001019050614744565b506148fa888888614a26565b50506001600a55505050505050565b60006001600160a01b0384163b156149ff57604051630a85bd0160e11b81526001600160a01b0385169063150b7a029061494d903390899088908890600401616306565b6020604051808303816000875af1925050508015614988575060408051601f3d908101601f1916820190925261498591810190616339565b60015b6149e5573d8080156149b6576040519150601f19603f3d011682016040523d82523d6000602084013e6149bb565b606091505b5080516000036149dd5760405162461bcd60e51b815260040161127b906161a2565b805181602001fd5b6001600160e01b031916630a85bd0160e11b149050612599565b506001949350505050565b6000806000614a198585614ade565b91509150611c8c81614b4c565b6001600160a01b038316614a8157614a7c81600880546000838152600960205260408120829055600182018355919091527ff3f7a9fe364faab93b216da50a3214154f22a0a2b415b23a84c8169e8b636ee30155565b614aa4565b816001600160a01b0316836001600160a01b031614614aa457614aa48382614d02565b6001600160a01b038216614abb5761131c81614d9f565b826001600160a01b0316826001600160a01b03161461131c5761131c8282614e4e565b6000808251604103614b145760208301516040840151606085015160001a614b0887828585614e92565b94509450505050614b45565b8251604003614b3d5760208301516040840151614b32868383614f7f565b935093505050614b45565b506000905060025b9250929050565b6000816004811115614b6057614b606160ef565b03614b685750565b6001816004811115614b7c57614b7c6160ef565b03614bc95760405162461bcd60e51b815260206004820152601860248201527f45434453413a20696e76616c6964207369676e61747572650000000000000000604482015260640161127b565b6002816004811115614bdd57614bdd6160ef565b03614c2a5760405162461bcd60e51b815260206004820152601f60248201527f45434453413a20696e76616c6964207369676e6174757265206c656e67746800604482015260640161127b565b6003816004811115614c3e57614c3e6160ef565b03614c965760405162461bcd60e51b815260206004820152602260248201527f45434453413a20696e76616c6964207369676e6174757265202773272076616c604482015261756560f01b606482015260840161127b565b6004816004811115614caa57614caa6160ef565b036136585760405162461bcd60e51b815260206004820152602260248201527f45434453413a20696e76616c6964207369676e6174757265202776272076616c604482015261756560f01b606482015260840161127b565b60006001614d0f8461216f565b614d19919061611e565b600083815260076020526040902054909150808214614d6c576001600160a01b03841660009081526006602090815260408083208584528252808320548484528184208190558352600790915290208190555b5060009182526007602090815260408084208490556001600160a01b039094168352600681528383209183525290812055565b600854600090614db19060019061611e565b60008381526009602052604081205460088054939450909284908110614dd957614dd96159d8565b906000526020600020015490508060088381548110614dfa57614dfa6159d8565b6000918252602080832090910192909255828152600990915260408082208490558582528120556008805480614e3257614e32616356565b6001900381819060005260206000200160009055905550505050565b6000614e598361216f565b6001600160a01b039093166000908152600660209081526040808320868452825280832085905593825260079052919091209190915550565b6000807f7fffffffffffffffffffffffffffffff5d576e7357a4501ddfe92f46681b20a0831115614ec95750600090506003614f76565b8460ff16601b14158015614ee157508460ff16601c14155b15614ef25750600090506004614f76565b6040805160008082526020820180845289905260ff881692820192909252606081018690526080810185905260019060a0016020604051602081039080840390855afa158015614f46573d6000803e3d6000fd5b5050604051601f1901519150506001600160a01b038116614f6f57600060019250925050614f76565b9150600090505b94509492505050565b6000806001600160ff1b03831681614f9c60ff86901c601b6160bb565b9050614faa87828885614e92565b935093505050935093915050565b6001600160e01b03198116811461365857600080fd5b600060208284031215614fe057600080fd5b81356126be81614fb8565b600060208284031215614ffd57600080fd5b5035919050565b6000806040838503121561501757600080fd5b50508035926020909101359150565b6001600160a01b038116811461365857600080fd5b60006020828403121561504d57600080fd5b81356126be81615026565b60005b8381101561507357818101518382015260200161505b565b50506000910152565b60008151808452615094816020860160208601615058565b601f01601f19169290920160200192915050565b6020815260006126be602083018461507c565b803580151581146150cb57600080fd5b919050565b600080604083850312156150e357600080fd5b823591506150f3602084016150bb565b90509250929050565b6000806040838503121561510f57600080fd5b823561511a81615026565b946020939093013593505050565b848152608060208201526000615141608083018661507c565b8281036040840152615153818661507c565b90508281036060840152615167818561507c565b979650505050505050565b60008060006060848603121561518757600080fd5b833561519281615026565b925060208401356151a281615026565b929592945050506040919091013590565b6020808252825182820181905260009190848201906040850190845b818110156151eb578351835292840192918401916001016151cf565b50909695505050505050565b600080600080600080600080610100898b03121561521457600080fd5b505086359860208801359850604088013597606081013597506080810135965060a0810135955060c0810135945060e0013592509050565b634e487b7160e01b600052604160045260246000fd5b60405161018081016001600160401b03811182821017156152855761528561524c565b60405290565b604051601f8201601f191681016001600160401b03811182821017156152b3576152b361524c565b604052919050565b803563ffffffff811681146150cb57600080fd5b803560ff811681146150cb57600080fd5b60006001600160401b038211156152f9576152f961524c565b50601f01601f191660200190565b600082601f83011261531857600080fd5b813561532b615326826152e0565b61528b565b81815284602083860101111561534057600080fd5b816020850160208301376000918101602001919091529392505050565b60006020828403121561536f57600080fd5b81356001600160401b038082111561538657600080fd5b90830190610180828603121561539b57600080fd5b6153a3615262565b823581526020830135602082015260408301356040820152606083013560608201526080830135608082015260a083013560a082015260c083013560c08201526153ef60e084016152bb565b60e0820152610100838101359082015261012061540d8185016152cf565b90820152610140838101358381111561542557600080fd5b61543188828701615307565b82840152505061016091506154478284016150bb565b91810191909152949350505050565b606081526000615469606083018661507c565b828103602084015261547b818661507c565b9050828103604084015261548f818561507c565b9695505050505050565b6000806000806000806000806000806101408b8d0312156154b957600080fd5b8a35995060208b0135985060408b0135975060608b0135965060808b0135955060a08b0135945060c08b0135935060e08b013592506154fb6101008c016152cf565b91506101208b01356001600160401b0381111561551757600080fd5b6155238d828e01615307565b9150509295989b9194979a5092959850565b6000806040838503121561554857600080fd5b823561555381615026565b91506150f3602084016150bb565b604081526000615574604083018561507c565b8281036020840152615586818561507c565b95945050505050565b600080600080608085870312156155a557600080fd5b84356155b081615026565b935060208501356155c081615026565b92506040850135915060608501356001600160401b038111156155e257600080fd5b6155ee87828801615307565b91505092959194509250565b6020815281516020820152602082015160408201526040820151606082015260608201516080820152608082015160a082015260a082015160c082015260c082015160e0820152600060e083015161010061565c8185018363ffffffff169052565b84015161012084810191909152840151905061014061567f8185018360ff169052565b80850151915050610180610160818186015261569f6101a086018461507c565b9086015180151583870152909250613611565b60008083601f8401126156c457600080fd5b5081356001600160401b038111156156db57600080fd5b602083019150836020828501011115614b4557600080fd5b60008060008060006060868803121561570b57600080fd5b615714866152cf565b945060208601356001600160401b038082111561573057600080fd5b61573c89838a016156b2565b9096509450604088013591508082111561575557600080fd5b50615762888289016156b2565b969995985093965092949392505050565b6000806040838503121561578657600080fd5b8235915060208301356001600160401b038111156157a357600080fd5b6157af85828601615307565b9150509250929050565b600080604083850312156157cc57600080fd5b823591506150f3602084016152cf565b6000602082840312156157ee57600080fd5b81356001600160401b0381111561580457600080fd5b61259984828501615307565b6000806040838503121561582357600080fd5b823561582e81615026565b9150602083013561583e81615026565b809150509250929050565b6000806000806080858703121561585f57600080fd5b8435935060208501356001600160401b038082111561587d57600080fd5b61588988838901615307565b9450604087013591508082111561589f57600080fd5b6158ab88838901615307565b935060608701359150808211156158c157600080fd5b506155ee87828801615307565b600181811c908216806158e257607f821691505b60208210810361590257634e487b7160e01b600052602260045260246000fd5b50919050565b600082601f83011261591957600080fd5b8151615927615326826152e0565b81815284602083860101111561593c57600080fd5b612599826020830160208701615058565b60006020828403121561595f57600080fd5b81516001600160401b0381111561597557600080fd5b61259984828501615908565b60008351615993818460208801615058565b8351908301906159a7818360208801615058565b7f3c672069643d226261636b7061636b547261697473223e0000000000000000009101908152601701949350505050565b634e487b7160e01b600052603260045260246000fd5b60008551615a00818460208a01615058565b855190830190615a14818360208a01615058565b8551910190615a27818360208901615058565b8451910190615a3a818360208801615058565b019695505050505050565b60008451615a57818460208901615058565b845190830190615a6b818360208901615058565b8082019150507f3c672069643d224d6f7265547261697473223e3c72656374207374796c653d2281527f77696474683a313070783b206865696768743a3270783b2220783d223130222060208201527f793d223136222066696c6c3d2223666666666666223e3c2f726563743e3c726560408201527f6374207374796c653d226865696768743a313070783b2077696474683a32707860608201527f3b2220783d2231342220793d223132222066696c6c3d2223666666666666223e60808201526a1e17b932b1ba1f1e17b39f60a91b60a08201528351615b538160ab840160208801615058565b0160ab0195945050505050565b60008251615b72818460208701615058565b631e17b39f60e11b920191825250600401919050565b6020808252602e908201527f4552433732313a2063616c6c6572206973206e6f7420746f6b656e206f776e6560408201526d1c881b9bdc88185c1c1c9bdd995960921b606082015260800190565b600080600060608486031215615beb57600080fd5b83516001600160401b0380821115615c0257600080fd5b615c0e87838801615908565b94506020860151915080821115615c2457600080fd5b615c3087838801615908565b93506040860151915080821115615c4657600080fd5b50615c5386828701615908565b9150509250925092565b60008351615c6f818460208801615058565b835190830190615c83818360208801615058565b01949350505050565b600060208284031215615c9e57600080fd5b5051919050565b600060208284031215615cb757600080fd5b81516126be81615026565b6d2261747472696275746573223a5b60901b81528251600090615cec81600e850160208801615058565b600b60fa1b600e918401918201528351615d0d81600f840160208801615058565b605d60f81b600f9290910191820152601001949350505050565b6000815160808452615d3c608085018261507c565b905060208301518482036020860152615d55828261507c565b91505060408301518482036040860152615d6f828261507c565b915050606083015160608501528091505092915050565b87815260e060208201526000615d9f60e083018961507c565b8281036040840152615db1818961507c565b90508281036060840152615dc5818861507c565b90508281036080840152615dd9818761507c565b905082810360a0840152615ded818661507c565b905082810360c0840152615e018185615d27565b9a9950505050505050505050565b60006020808385031215615e2257600080fd5b82516001600160401b0380821115615e3957600080fd5b818501915085601f830112615e4d57600080fd5b815181811115615e5f57615e5f61524c565b8060051b9150615e7084830161528b565b8181529183018401918481019088841115615e8a57600080fd5b938501935b83851015615ea857845182529385019390850190615e8f565b98975050505050505050565b60008060408385031215615ec757600080fd5b82516001600160401b0380821115615ede57600080fd5b615eea86838701615908565b93506020850151915080821115615f0057600080fd5b506157af85828601615908565b6bffffffffffffffffffffffff198460601b168152818360148301376000910160140190815292915050565b8183823760009101908152919050565b601f82111561131c576000816000526020600020601f850160051c81016020861015615f725750805b601f850160051c820191505b8181101561371057828155600101615f7e565b81516001600160401b03811115615faa57615faa61524c565b615fbe81615fb884546158ce565b84615f49565b602080601f831160018114615ff35760008415615fdb5750858301515b600019600386901b1c1916600185901b178555613710565b600085815260208120601f198616915b8281101561602257888601518255948401946001909101908401616003565b50858210156160405787850151600019600388901b60f8161c191681555b5050505050600190811b01905550565b634e487b7160e01b600052601260045260246000fd5b60008261607557616075616050565b500690565b634e487b7160e01b600052601160045260246000fd5b60008261609f5761609f616050565b500490565b8082028115828204841417610ff557610ff561607a565b80820180821115610ff557610ff561607a565b6000602082840312156160e057600080fd5b8151600881106126be57600080fd5b634e487b7160e01b600052602160045260246000fd5b6000600182016161175761611761607a565b5060010190565b81810381811115610ff557610ff561607a565b6e3d913a3930b4ba2fba3cb832911d1160891b8152825160009061615c81600f850160208801615058565b6a1116113b30b63ab2911d1160a91b600f91840191820152835161618781601a840160208801615058565b61227d60f01b601a9290910191820152601c01949350505050565b60208082526032908201527f4552433732313a207472616e7366657220746f206e6f6e20455243373231526560408201527131b2b4bb32b91034b6b83632b6b2b73a32b960711b606082015260800190565b600080600080600060a0868803121561620c57600080fd5b85519450602086015161621e81615026565b604087015190945061622f81615026565b606087015190935061624081615026565b60808701519092506001600160401b0381111561625c57600080fd5b61626888828901615908565b9150509295509295909350565b60018060a01b038516815283602082015260806040820152600061629c608083018561507c565b905082606083015295945050505050565b60006040820184835260206040602085015281855180845260608601915060208701935060005b818110156162f95784516001600160a01b0316835293830193918301916001016162d4565b5090979650505050505050565b6001600160a01b038581168252841660208201526040810183905260806060820181905260009061548f9083018461507c565b60006020828403121561634b57600080fd5b81516126be81614fb8565b634e487b7160e01b600052603160045260246000fdfe8aea9baa1ab7209ce94784ac5f5149343f8d985fd4278de25a7b390989f2cf853c672069643d22416c6c20547261697473223e3c672069643d226261636b7061636b2220636c6173733d22636c6f736564223e3c7061746820643d224d302030204c33302030204c3330203330204c30203330205a222066696c6c3d227267622831322c203130392c203135372922202f3e3c7376672069643d226261636b7061636b5549222076696577426f783d223020302031323020313230223e203c7374796c653e2e75697b77696474683a3170783b206865696768743a203170783b2066696c6c3a77686974657d3c2f7374796c653e203c672069643d22636c6f736542746e22207472616e73666f726d3d227472616e736c61746528322c3229223e203c7265637420783d22312220793d22312220636c6173733d227569223e3c2f726563743e203c7265637420783d22322220793d22322220636c6173733d227569223e3c2f726563743e203c7265637420783d22332220793d22332220636c6173733d227569223e3c2f726563743e203c7265637420783d22342220793d22342220636c6173733d227569223e3c2f726563743e203c7265637420783d22352220793d22352220636c6173733d227569223e3c2f726563743e203c7265637420783d22352220793d22312220636c6173733d227569223e3c2f726563743e203c7265637420783d22342220793d22322220636c6173733d227569223e3c2f726563743e203c212d2d203c7265637420783d22332220793d2233222077696474683d223122206865696768743d2231222066696c6c3d227768697465223e3c2f726563743e202d2d3e203c7265637420783d22322220793d22342220636c6173733d227569223e3c2f726563743e203c7265637420783d22312220793d22352220636c6173733d227569223e3c2f726563743e203c2f673e203c672069643d226c65667442746e2220636c6173733d22627574746f6e22207472616e73666f726d3d227472616e736c6174652834352c31313029223e203c7061746820643d224d302030204c362030204c362036204c302036205a222066696c6c3d227472616e73706172656e7422202f3e203c7265637420783d22322220793d22302220636c6173733d227569223e3c2f726563743e203c7265637420783d22312220793d22312220636c6173733d227569223e3c2f726563743e203c7265637420783d22302220793d22322220636c6173733d227569223e3c2f726563743e203c7265637420783d22312220793d22332220636c6173733d227569223e3c2f726563743e203c7265637420783d22322220793d22342220636c6173733d227569223e3c2f726563743e203c2f673e203c672069643d22726967687442746e2220636c6173733d22627574746f6e22207472616e73666f726d3d227472616e736c6174652836352c31313029223e203c7061746820643d224d302030204c362030204c362036204c302036205a222066696c6c3d227472616e73706172656e7422202f3e203c7265637420783d22332220793d22302220636c6173733d227569223e3c2f726563743e203c7265637420783d22342220793d22312220636c6173733d227569223e3c2f726563743e203c7265637420783d22352220793d22322220636c6173733d227569223e3c2f726563743e203c7265637420783d22342220793d22332220636c6173733d227569223e3c2f726563743e203c7265637420783d22332220793d22342220636c6173733d227569223e3c2f726563743e203c2f673e203c2f7376673e20a2646970667358221220de0e9460c6ebe0893d25db1c16c2a04b64e7f7b8da8bae839d84d803e37d663264736f6c63430008160033","linkReferences":{}},"methodIdentifiers":{"_debugPostConstructorMint()":"9c7be2f1","addNewBody(uint256,string,bytes,bytes)":"f2361e23","approve(address,uint256)":"095ea7b3","balanceOf(address)":"70a08231","bodyIndexToMetadata(uint256)":"0c83f9d7","buyTrait(uint256)":"6273ca2c","cancelOwnershipHandover()":"54d1f13d","checkIfTraitIsEquipped(uint256,uint256)":"8aa1e4c8","chonkIdToApprovedOperators(uint256,uint256)":"55737f35","completeOwnershipHandover(address)":"f04e283e","equipAccessory(uint256,uint256)":"0447a45e","equipAll(uint256,uint256,uint256,uint256,uint256,uint256,uint256,uint256)":"4a4333a3","equipBottom(uint256,uint256)":"45a10d0f","equipFace(uint256,uint256)":"0f162320","equipHair(uint256,uint256)":"94cbd9c4","equipHead(uint256,uint256)":"1e162a33","equipShoes(uint256,uint256)":"60b77b23","equipTop(uint256,uint256)":"f18dc22d","firstSeasonRenderMinter()":"13ea0ae3","getApproved(uint256)":"081812fc","getBackpackSVGs(uint256)":"14fe8ff4","getBodyImage(bytes)":"e37db3c2","getBodyImageSvg(uint256)":"916c546b","getBodySVGZmapsAndMetadata((uint256,uint256,uint256,uint256,uint256,uint256,uint256,uint32,uint256,uint8,string,bool))":"92012f08","getBodySvgAndMetadata((uint256,uint256,uint256,uint256,uint256,uint256,uint256,uint32,uint256,uint8,string,bool))":"a23830ae","getBodyZMap(uint256)":"306c7334","getFullPictureForTrait(uint256)":"66704349","getOwnerAndTBAAddressForChonkId(uint256)":"04003bd0","getPeter(uint256)":"be928ff6","getPeterZMap(uint256)":"2bd1ca45","getTBAAddressForChonkId(uint256)":"f6a0c932","getTokenRenderZ(uint256)":"8200ea51","getTraitTokens(address)":"998cfb6e","getTraitsForChonkId(uint256)":"9f6e4637","isApprovedForAll(address,address)":"e985e9c5","mainRenderer()":"66b89b5a","marketplace()":"abc8c7af","mint()":"1249c58b","mintByLevel(uint8,string,bytes)":"cef80d4a","name()":"06fdde03","owner()":"8da5cb5b","ownerOf(uint256)":"6352211e","ownershipHandoverExpiresAt(address)":"fee81cf4","peterMakeover(uint256,uint256,uint256,uint256,uint256,uint256,uint256,uint256,uint8,string)":"93ccba72","price()":"a035b1fe","renderAsDataUri(uint256)":"a1d62680","renderAsDataUriSVG(uint256)":"b28fbe40","renderAsDataUriZ(uint256)":"7557f2dc","renounceOwnership()":"715018a6","requestOwnershipHandover()":"25692962","safeTransferFrom(address,address,uint256)":"42842e0e","safeTransferFrom(address,address,uint256,bytes)":"b88d4fde","setApprovalForAll(address,bool)":"a22cb465","setBackgroundColor(uint256,string)":"d68c4f32","setBodyIndex(uint256,uint8)":"e1405540","setFirstSeasonRenderMinter(address)":"58a97640","setMainRenderer(address)":"4ddb3961","setMarketplace(address)":"73ad6c2d","setMaxTraitsToOutput(uint256)":"33d3d9bf","setPrice(uint256)":"91b7f5ed","setSystemAddress(address)":"06210197","setTokenRenderZ(uint256,bool)":"07f4e045","setTraitsContract(address)":"5eabd84a","setZRenderer(address)":"172b054d","supportsInterface(bytes4)":"01ffc9a7","symbol()":"95d89b41","tbaAddressToTokenId(address)":"a4bf9a00","tokenByIndex(uint256)":"4f6ccce7","tokenIdToTBAAccountAddress(uint256)":"9c05d68d","tokenOfOwnerByIndex(address,uint256)":"2f745c59","tokenURI(uint256)":"c87b56dd","totalSupply()":"18160ddd","traitsContract()":"c093afdb","transferFrom(address,address,uint256)":"23b872dd","transferOwnership(address)":"f2fde38b","unequipAccessory(uint256)":"293ed3f7","unequipAll(uint256)":"3044825b","unequipBottom(uint256)":"9c762015","unequipFace(uint256)":"d5b55c8b","unequipHair(uint256)":"105338e0","unequipHead(uint256)":"7afe8d34","unequipShoes(uint256)":"58180d35","unequipTop(uint256)":"347bd8f4","walletOfOwner(address)":"438b6300","zRenderer()":"a15c561b"},"id":46}