{"abi":[{"type":"constructor","inputs":[{"name":"localDeploy_","type":"bool","internalType":"bool"}],"stateMutability":"nonpayable"},{"type":"function","name":"_debugPostConstructorMint","inputs":[],"outputs":[],"stateMutability":"nonpayable"},{"type":"function","name":"addNewBody","inputs":[{"name":"_bodyIndex","type":"uint256","internalType":"uint256"},{"name":"_bodyName","type":"string","internalType":"string"},{"name":"_colorMap","type":"bytes","internalType":"bytes"},{"name":"_zMap","type":"bytes","internalType":"bytes"}],"outputs":[],"stateMutability":"nonpayable"},{"type":"function","name":"approve","inputs":[{"name":"to","type":"address","internalType":"address"},{"name":"tokenId","type":"uint256","internalType":"uint256"}],"outputs":[],"stateMutability":"nonpayable"},{"type":"function","name":"balanceOf","inputs":[{"name":"owner","type":"address","internalType":"address"}],"outputs":[{"name":"","type":"uint256","internalType":"uint256"}],"stateMutability":"view"},{"type":"function","name":"bodyIndexToMetadata","inputs":[{"name":"","type":"uint256","internalType":"uint256"}],"outputs":[{"name":"bodyIndex","type":"uint256","internalType":"uint256"},{"name":"bodyName","type":"string","internalType":"string"},{"name":"colorMap","type":"bytes","internalType":"bytes"},{"name":"zMap","type":"bytes","internalType":"bytes"}],"stateMutability":"view"},{"type":"function","name":"buyTrait","inputs":[{"name":"_tokenId","type":"uint256","internalType":"uint256"}],"outputs":[],"stateMutability":"nonpayable"},{"type":"function","name":"cancelOwnershipHandover","inputs":[],"outputs":[],"stateMutability":"payable"},{"type":"function","name":"checkIfTraitIsEquipped","inputs":[{"name":"_chonkId","type":"uint256","internalType":"uint256"},{"name":"_traitId","type":"uint256","internalType":"uint256"}],"outputs":[{"name":"","type":"bool","internalType":"bool"}],"stateMutability":"view"},{"type":"function","name":"chonkIdToApprovedOperators","inputs":[{"name":"chonkId","type":"uint256","internalType":"uint256"},{"name":"","type":"uint256","internalType":"uint256"}],"outputs":[{"name":"operators","type":"address","internalType":"address"}],"stateMutability":"view"},{"type":"function","name":"completeOwnershipHandover","inputs":[{"name":"pendingOwner","type":"address","internalType":"address"}],"outputs":[],"stateMutability":"payable"},{"type":"function","name":"equipAccessory","inputs":[{"name":"_peterTokenId","type":"uint256","internalType":"uint256"},{"name":"_traitTokenId","type":"uint256","internalType":"uint256"}],"outputs":[],"stateMutability":"nonpayable"},{"type":"function","name":"equipAll","inputs":[{"name":"_peterTokenId","type":"uint256","internalType":"uint256"},{"name":"_headTokenId","type":"uint256","internalType":"uint256"},{"name":"_hairTokenId","type":"uint256","internalType":"uint256"},{"name":"_faceTokenId","type":"uint256","internalType":"uint256"},{"name":"_accessoryTokenId","type":"uint256","internalType":"uint256"},{"name":"_topTokenId","type":"uint256","internalType":"uint256"},{"name":"_bottomTokenId","type":"uint256","internalType":"uint256"},{"name":"_shoesTokenId","type":"uint256","internalType":"uint256"}],"outputs":[],"stateMutability":"nonpayable"},{"type":"function","name":"equipBottom","inputs":[{"name":"_peterTokenId","type":"uint256","internalType":"uint256"},{"name":"_traitTokenId","type":"uint256","internalType":"uint256"}],"outputs":[],"stateMutability":"nonpayable"},{"type":"function","name":"equipFace","inputs":[{"name":"_peterTokenId","type":"uint256","internalType":"uint256"},{"name":"_traitTokenId","type":"uint256","internalType":"uint256"}],"outputs":[],"stateMutability":"nonpayable"},{"type":"function","name":"equipHair","inputs":[{"name":"_peterTokenId","type":"uint256","internalType":"uint256"},{"name":"_traitTokenId","type":"uint256","internalType":"uint256"}],"outputs":[],"stateMutability":"nonpayable"},{"type":"function","name":"equipHead","inputs":[{"name":"_peterTokenId","type":"uint256","internalType":"uint256"},{"name":"_traitTokenId","type":"uint256","internalType":"uint256"}],"outputs":[],"stateMutability":"nonpayable"},{"type":"function","name":"equipShoes","inputs":[{"name":"_peterTokenId","type":"uint256","internalType":"uint256"},{"name":"_traitTokenId","type":"uint256","internalType":"uint256"}],"outputs":[],"stateMutability":"nonpayable"},{"type":"function","name":"equipTop","inputs":[{"name":"_peterTokenId","type":"uint256","internalType":"uint256"},{"name":"_traitTokenId","type":"uint256","internalType":"uint256"}],"outputs":[],"stateMutability":"nonpayable"},{"type":"function","name":"firstSeasonRenderMinter","inputs":[],"outputs":[{"name":"","type":"address","internalType":"contract FirstSeasonRenderMinter"}],"stateMutability":"view"},{"type":"function","name":"getApproved","inputs":[{"name":"tokenId","type":"uint256","internalType":"uint256"}],"outputs":[{"name":"","type":"address","internalType":"address"}],"stateMutability":"view"},{"type":"function","name":"getBackpackSVGs","inputs":[{"name":"_tokenId","type":"uint256","internalType":"uint256"}],"outputs":[{"name":"backpackSVGs","type":"string","internalType":"string"}],"stateMutability":"view"},{"type":"function","name":"getBodyImage","inputs":[{"name":"colorMap","type":"bytes","internalType":"bytes"}],"outputs":[{"name":"","type":"bytes","internalType":"bytes"}],"stateMutability":"pure"},{"type":"function","name":"getBodyImageSvg","inputs":[{"name":"_index","type":"uint256","internalType":"uint256"}],"outputs":[{"name":"svg","type":"string","internalType":"string"}],"stateMutability":"view"},{"type":"function","name":"getBodySVGZmapsAndMetadata","inputs":[{"name":"storedPeter","type":"tuple","internalType":"struct IPeterStorage.StoredPeter","components":[{"name":"headId","type":"uint256","internalType":"uint256"},{"name":"hairId","type":"uint256","internalType":"uint256"},{"name":"faceId","type":"uint256","internalType":"uint256"},{"name":"accessoryId","type":"uint256","internalType":"uint256"},{"name":"topId","type":"uint256","internalType":"uint256"},{"name":"bottomId","type":"uint256","internalType":"uint256"},{"name":"shoesId","type":"uint256","internalType":"uint256"},{"name":"epoch","type":"uint32","internalType":"uint32"},{"name":"tokenId","type":"uint256","internalType":"uint256"},{"name":"bodyIndex","type":"uint8","internalType":"uint8"},{"name":"backgroundColor","type":"string","internalType":"string"},{"name":"renderZ","type":"bool","internalType":"bool"}]}],"outputs":[{"name":"","type":"string","internalType":"string"},{"name":"","type":"bytes","internalType":"bytes"},{"name":"","type":"string","internalType":"string"}],"stateMutability":"view"},{"type":"function","name":"getBodySvgAndMetadata","inputs":[{"name":"storedPeter","type":"tuple","internalType":"struct IPeterStorage.StoredPeter","components":[{"name":"headId","type":"uint256","internalType":"uint256"},{"name":"hairId","type":"uint256","internalType":"uint256"},{"name":"faceId","type":"uint256","internalType":"uint256"},{"name":"accessoryId","type":"uint256","internalType":"uint256"},{"name":"topId","type":"uint256","internalType":"uint256"},{"name":"bottomId","type":"uint256","internalType":"uint256"},{"name":"shoesId","type":"uint256","internalType":"uint256"},{"name":"epoch","type":"uint32","internalType":"uint32"},{"name":"tokenId","type":"uint256","internalType":"uint256"},{"name":"bodyIndex","type":"uint8","internalType":"uint8"},{"name":"backgroundColor","type":"string","internalType":"string"},{"name":"renderZ","type":"bool","internalType":"bool"}]}],"outputs":[{"name":"","type":"string","internalType":"string"},{"name":"","type":"string","internalType":"string"}],"stateMutability":"view"},{"type":"function","name":"getBodyZMap","inputs":[{"name":"_tokenId","type":"uint256","internalType":"uint256"}],"outputs":[{"name":"","type":"string","internalType":"string"}],"stateMutability":"view"},{"type":"function","name":"getFullPictureForTrait","inputs":[{"name":"_chonkTraitTokenId","type":"uint256","internalType":"uint256"}],"outputs":[{"name":"traitOwnerTBA","type":"address","internalType":"address"},{"name":"chonkTokenId","type":"uint256","internalType":"uint256"},{"name":"chonkOwner","type":"address","internalType":"address"}],"stateMutability":"view"},{"type":"function","name":"getOwnerAndTBAAddressForChonkId","inputs":[{"name":"_chonkId","type":"uint256","internalType":"uint256"}],"outputs":[{"name":"owner","type":"address","internalType":"address"},{"name":"tbaAddress","type":"address","internalType":"address"}],"stateMutability":"view"},{"type":"function","name":"getPeter","inputs":[{"name":"_tokenId","type":"uint256","internalType":"uint256"}],"outputs":[{"name":"","type":"tuple","internalType":"struct IPeterStorage.StoredPeter","components":[{"name":"headId","type":"uint256","internalType":"uint256"},{"name":"hairId","type":"uint256","internalType":"uint256"},{"name":"faceId","type":"uint256","internalType":"uint256"},{"name":"accessoryId","type":"uint256","internalType":"uint256"},{"name":"topId","type":"uint256","internalType":"uint256"},{"name":"bottomId","type":"uint256","internalType":"uint256"},{"name":"shoesId","type":"uint256","internalType":"uint256"},{"name":"epoch","type":"uint32","internalType":"uint32"},{"name":"tokenId","type":"uint256","internalType":"uint256"},{"name":"bodyIndex","type":"uint8","internalType":"uint8"},{"name":"backgroundColor","type":"string","internalType":"string"},{"name":"renderZ","type":"bool","internalType":"bool"}]}],"stateMutability":"view"},{"type":"function","name":"getPeterZMap","inputs":[{"name":"_tokenId","type":"uint256","internalType":"uint256"}],"outputs":[{"name":"","type":"string","internalType":"string"}],"stateMutability":"view"},{"type":"function","name":"getTBAAddressForChonkId","inputs":[{"name":"_chonkId","type":"uint256","internalType":"uint256"}],"outputs":[{"name":"","type":"address","internalType":"address"}],"stateMutability":"view"},{"type":"function","name":"getTokenRenderZ","inputs":[{"name":"_peterTokenId","type":"uint256","internalType":"uint256"}],"outputs":[{"name":"","type":"bool","internalType":"bool"}],"stateMutability":"view"},{"type":"function","name":"getTraitTokens","inputs":[{"name":"_tbaAddress","type":"address","internalType":"address"}],"outputs":[{"name":"","type":"uint256[]","internalType":"uint256[]"}],"stateMutability":"view"},{"type":"function","name":"getTraitsForChonkId","inputs":[{"name":"_chonkId","type":"uint256","internalType":"uint256"}],"outputs":[{"name":"traitTokens","type":"uint256[]","internalType":"uint256[]"}],"stateMutability":"view"},{"type":"function","name":"isApprovedForAll","inputs":[{"name":"owner","type":"address","internalType":"address"},{"name":"operator","type":"address","internalType":"address"}],"outputs":[{"name":"","type":"bool","internalType":"bool"}],"stateMutability":"view"},{"type":"function","name":"mainRenderer","inputs":[],"outputs":[{"name":"","type":"address","internalType":"contract MainRenderer"}],"stateMutability":"view"},{"type":"function","name":"marketplace","inputs":[],"outputs":[{"name":"","type":"address","internalType":"contract ChonksMarket"}],"stateMutability":"view"},{"type":"function","name":"mint","inputs":[{"name":"_amount","type":"uint8","internalType":"uint8"}],"outputs":[],"stateMutability":"payable"},{"type":"function","name":"name","inputs":[],"outputs":[{"name":"","type":"string","internalType":"string"}],"stateMutability":"view"},{"type":"function","name":"owner","inputs":[],"outputs":[{"name":"result","type":"address","internalType":"address"}],"stateMutability":"view"},{"type":"function","name":"ownerOf","inputs":[{"name":"tokenId","type":"uint256","internalType":"uint256"}],"outputs":[{"name":"","type":"address","internalType":"address"}],"stateMutability":"view"},{"type":"function","name":"ownershipHandoverExpiresAt","inputs":[{"name":"pendingOwner","type":"address","internalType":"address"}],"outputs":[{"name":"result","type":"uint256","internalType":"uint256"}],"stateMutability":"view"},{"type":"function","name":"peterMakeover","inputs":[{"name":"_peterTokenId","type":"uint256","internalType":"uint256"},{"name":"_headTokenId","type":"uint256","internalType":"uint256"},{"name":"_hairTokenId","type":"uint256","internalType":"uint256"},{"name":"_faceTokenId","type":"uint256","internalType":"uint256"},{"name":"_accessoryTokenId","type":"uint256","internalType":"uint256"},{"name":"_topTokenId","type":"uint256","internalType":"uint256"},{"name":"_bottomTokenId","type":"uint256","internalType":"uint256"},{"name":"_shoesTokenId","type":"uint256","internalType":"uint256"},{"name":"_bodyIndex","type":"uint8","internalType":"uint8"},{"name":"_backgroundColor","type":"string","internalType":"string"}],"outputs":[],"stateMutability":"nonpayable"},{"type":"function","name":"price","inputs":[],"outputs":[{"name":"","type":"uint256","internalType":"uint256"}],"stateMutability":"view"},{"type":"function","name":"renderAsDataUri","inputs":[{"name":"_tokenId","type":"uint256","internalType":"uint256"}],"outputs":[{"name":"","type":"string","internalType":"string"}],"stateMutability":"view"},{"type":"function","name":"renderAsDataUriSVG","inputs":[{"name":"_tokenId","type":"uint256","internalType":"uint256"}],"outputs":[{"name":"","type":"string","internalType":"string"}],"stateMutability":"view"},{"type":"function","name":"renderAsDataUriZ","inputs":[{"name":"_tokenId","type":"uint256","internalType":"uint256"}],"outputs":[{"name":"","type":"string","internalType":"string"}],"stateMutability":"view"},{"type":"function","name":"renounceOwnership","inputs":[],"outputs":[],"stateMutability":"payable"},{"type":"function","name":"requestOwnershipHandover","inputs":[],"outputs":[],"stateMutability":"payable"},{"type":"function","name":"safeTransferFrom","inputs":[{"name":"from","type":"address","internalType":"address"},{"name":"to","type":"address","internalType":"address"},{"name":"tokenId","type":"uint256","internalType":"uint256"}],"outputs":[],"stateMutability":"nonpayable"},{"type":"function","name":"safeTransferFrom","inputs":[{"name":"from","type":"address","internalType":"address"},{"name":"to","type":"address","internalType":"address"},{"name":"tokenId","type":"uint256","internalType":"uint256"},{"name":"data","type":"bytes","internalType":"bytes"}],"outputs":[],"stateMutability":"nonpayable"},{"type":"function","name":"setApprovalForAll","inputs":[{"name":"operator","type":"address","internalType":"address"},{"name":"approved","type":"bool","internalType":"bool"}],"outputs":[],"stateMutability":"nonpayable"},{"type":"function","name":"setBackgroundColor","inputs":[{"name":"_peterTokenId","type":"uint256","internalType":"uint256"},{"name":"_color","type":"string","internalType":"string"}],"outputs":[],"stateMutability":"nonpayable"},{"type":"function","name":"setBodyIndex","inputs":[{"name":"_peterTokenId","type":"uint256","internalType":"uint256"},{"name":"_bodyIndex","type":"uint8","internalType":"uint8"}],"outputs":[],"stateMutability":"nonpayable"},{"type":"function","name":"setFirstSeasonRenderMinter","inputs":[{"name":"_dataContract","type":"address","internalType":"address"}],"outputs":[],"stateMutability":"nonpayable"},{"type":"function","name":"setMainRenderer","inputs":[{"name":"_mainRenderer","type":"address","internalType":"address"}],"outputs":[],"stateMutability":"nonpayable"},{"type":"function","name":"setMarketplace","inputs":[{"name":"_marketplace","type":"address","internalType":"address"}],"outputs":[],"stateMutability":"nonpayable"},{"type":"function","name":"setMaxTraitsToOutput","inputs":[{"name":"_maxTraitsToOutput","type":"uint256","internalType":"uint256"}],"outputs":[],"stateMutability":"nonpayable"},{"type":"function","name":"setPrice","inputs":[{"name":"_priceInWei","type":"uint256","internalType":"uint256"}],"outputs":[],"stateMutability":"nonpayable"},{"type":"function","name":"setSystemAddress","inputs":[{"name":"_systemAddress","type":"address","internalType":"address"}],"outputs":[],"stateMutability":"nonpayable"},{"type":"function","name":"setTokenRenderZ","inputs":[{"name":"_peterTokenId","type":"uint256","internalType":"uint256"},{"name":"_renderZ","type":"bool","internalType":"bool"}],"outputs":[],"stateMutability":"nonpayable"},{"type":"function","name":"setTraitsContract","inputs":[{"name":"_address","type":"address","internalType":"contract PeterTraits"}],"outputs":[],"stateMutability":"nonpayable"},{"type":"function","name":"setZRenderer","inputs":[{"name":"_zRenderer","type":"address","internalType":"address"}],"outputs":[],"stateMutability":"nonpayable"},{"type":"function","name":"supportsInterface","inputs":[{"name":"interfaceId","type":"bytes4","internalType":"bytes4"}],"outputs":[{"name":"","type":"bool","internalType":"bool"}],"stateMutability":"view"},{"type":"function","name":"symbol","inputs":[],"outputs":[{"name":"","type":"string","internalType":"string"}],"stateMutability":"view"},{"type":"function","name":"tbaAddressToTokenId","inputs":[{"name":"","type":"address","internalType":"address"}],"outputs":[{"name":"","type":"uint256","internalType":"uint256"}],"stateMutability":"view"},{"type":"function","name":"tokenByIndex","inputs":[{"name":"index","type":"uint256","internalType":"uint256"}],"outputs":[{"name":"","type":"uint256","internalType":"uint256"}],"stateMutability":"view"},{"type":"function","name":"tokenIdToTBAAccountAddress","inputs":[{"name":"","type":"uint256","internalType":"uint256"}],"outputs":[{"name":"","type":"address","internalType":"address"}],"stateMutability":"view"},{"type":"function","name":"tokenOfOwnerByIndex","inputs":[{"name":"owner","type":"address","internalType":"address"},{"name":"index","type":"uint256","internalType":"uint256"}],"outputs":[{"name":"","type":"uint256","internalType":"uint256"}],"stateMutability":"view"},{"type":"function","name":"tokenURI","inputs":[{"name":"_tokenId","type":"uint256","internalType":"uint256"}],"outputs":[{"name":"","type":"string","internalType":"string"}],"stateMutability":"view"},{"type":"function","name":"totalSupply","inputs":[],"outputs":[{"name":"","type":"uint256","internalType":"uint256"}],"stateMutability":"view"},{"type":"function","name":"traitsContract","inputs":[],"outputs":[{"name":"","type":"address","internalType":"contract PeterTraits"}],"stateMutability":"view"},{"type":"function","name":"transferFrom","inputs":[{"name":"from","type":"address","internalType":"address"},{"name":"to","type":"address","internalType":"address"},{"name":"tokenId","type":"uint256","internalType":"uint256"}],"outputs":[],"stateMutability":"nonpayable"},{"type":"function","name":"transferOwnership","inputs":[{"name":"newOwner","type":"address","internalType":"address"}],"outputs":[],"stateMutability":"payable"},{"type":"function","name":"unequipAccessory","inputs":[{"name":"_peterTokenId","type":"uint256","internalType":"uint256"}],"outputs":[],"stateMutability":"nonpayable"},{"type":"function","name":"unequipAll","inputs":[{"name":"_peterTokenId","type":"uint256","internalType":"uint256"}],"outputs":[],"stateMutability":"nonpayable"},{"type":"function","name":"unequipBottom","inputs":[{"name":"_peterTokenId","type":"uint256","internalType":"uint256"}],"outputs":[],"stateMutability":"nonpayable"},{"type":"function","name":"unequipFace","inputs":[{"name":"_peterTokenId","type":"uint256","internalType":"uint256"}],"outputs":[],"stateMutability":"nonpayable"},{"type":"function","name":"unequipHair","inputs":[{"name":"_peterTokenId","type":"uint256","internalType":"uint256"}],"outputs":[],"stateMutability":"nonpayable"},{"type":"function","name":"unequipHead","inputs":[{"name":"_peterTokenId","type":"uint256","internalType":"uint256"}],"outputs":[],"stateMutability":"nonpayable"},{"type":"function","name":"unequipShoes","inputs":[{"name":"_peterTokenId","type":"uint256","internalType":"uint256"}],"outputs":[],"stateMutability":"nonpayable"},{"type":"function","name":"unequipTop","inputs":[{"name":"_peterTokenId","type":"uint256","internalType":"uint256"}],"outputs":[],"stateMutability":"nonpayable"},{"type":"function","name":"walletOfOwner","inputs":[{"name":"_owner","type":"address","internalType":"address"}],"outputs":[{"name":"","type":"uint256[]","internalType":"uint256[]"}],"stateMutability":"view"},{"type":"function","name":"zRenderer","inputs":[],"outputs":[{"name":"","type":"address","internalType":"contract ZRenderer"}],"stateMutability":"view"},{"type":"event","name":"Approval","inputs":[{"name":"owner","type":"address","indexed":true,"internalType":"address"},{"name":"approved","type":"address","indexed":true,"internalType":"address"},{"name":"tokenId","type":"uint256","indexed":true,"internalType":"uint256"}],"anonymous":false},{"type":"event","name":"ApprovalForAll","inputs":[{"name":"owner","type":"address","indexed":true,"internalType":"address"},{"name":"operator","type":"address","indexed":true,"internalType":"address"},{"name":"approved","type":"bool","indexed":false,"internalType":"bool"}],"anonymous":false},{"type":"event","name":"BackgroundColor","inputs":[{"name":"owner","type":"address","indexed":true,"internalType":"address"},{"name":"tokenId","type":"uint256","indexed":true,"internalType":"uint256"},{"name":"color","type":"string","indexed":false,"internalType":"string"}],"anonymous":false},{"type":"event","name":"BatchMetadataUpdate","inputs":[{"name":"_fromTokenId","type":"uint256","indexed":false,"internalType":"uint256"},{"name":"_toTokenId","type":"uint256","indexed":false,"internalType":"uint256"}],"anonymous":false},{"type":"event","name":"BodyIndex","inputs":[{"name":"owner","type":"address","indexed":true,"internalType":"address"},{"name":"tokenId","type":"uint256","indexed":true,"internalType":"uint256"},{"name":"_bodyIndex","type":"uint8","indexed":false,"internalType":"uint8"}],"anonymous":false},{"type":"event","name":"Equip","inputs":[{"name":"owner","type":"address","indexed":true,"internalType":"address"},{"name":"tokenId","type":"uint256","indexed":true,"internalType":"uint256"},{"name":"traitTokenId","type":"uint256","indexed":true,"internalType":"uint256"},{"name":"traitCategory","type":"string","indexed":false,"internalType":"string"}],"anonymous":false},{"type":"event","name":"EquipAll","inputs":[{"name":"owner","type":"address","indexed":true,"internalType":"address"},{"name":"tokenId","type":"uint256","indexed":true,"internalType":"uint256"}],"anonymous":false},{"type":"event","name":"MetadataUpdate","inputs":[{"name":"_tokenId","type":"uint256","indexed":false,"internalType":"uint256"}],"anonymous":false},{"type":"event","name":"Mint","inputs":[{"name":"owner","type":"address","indexed":true,"internalType":"address"},{"name":"tokenId","type":"uint256","indexed":true,"internalType":"uint256"}],"anonymous":false},{"type":"event","name":"OwnershipHandoverCanceled","inputs":[{"name":"pendingOwner","type":"address","indexed":true,"internalType":"address"}],"anonymous":false},{"type":"event","name":"OwnershipHandoverRequested","inputs":[{"name":"pendingOwner","type":"address","indexed":true,"internalType":"address"}],"anonymous":false},{"type":"event","name":"OwnershipTransferred","inputs":[{"name":"oldOwner","type":"address","indexed":true,"internalType":"address"},{"name":"newOwner","type":"address","indexed":true,"internalType":"address"}],"anonymous":false},{"type":"event","name":"RenderZ","inputs":[{"name":"owner","type":"address","indexed":true,"internalType":"address"},{"name":"tokenId","type":"uint256","indexed":true,"internalType":"uint256"},{"name":"renderZ","type":"bool","indexed":false,"internalType":"bool"}],"anonymous":false},{"type":"event","name":"Transfer","inputs":[{"name":"from","type":"address","indexed":true,"internalType":"address"},{"name":"to","type":"address","indexed":true,"internalType":"address"},{"name":"tokenId","type":"uint256","indexed":true,"internalType":"uint256"}],"anonymous":false},{"type":"event","name":"Unequip","inputs":[{"name":"owner","type":"address","indexed":true,"internalType":"address"},{"name":"tokenId","type":"uint256","indexed":true,"internalType":"uint256"},{"name":"traitCategory","type":"string","indexed":true,"internalType":"string"}],"anonymous":false},{"type":"event","name":"UnequipAll","inputs":[{"name":"owner","type":"address","indexed":true,"internalType":"address"},{"name":"tokenId","type":"uint256","indexed":true,"internalType":"uint256"}],"anonymous":false},{"type":"error","name":"AlreadyInitialized","inputs":[]},{"type":"error","name":"BodyAlreadyExists","inputs":[]},{"type":"error","name":"CantTransfer","inputs":[]},{"type":"error","name":"CantTransferToTBAs","inputs":[]},{"type":"error","name":"FirstSeasonRenderMinterNotSet","inputs":[]},{"type":"error","name":"IncorrectPeterOwner","inputs":[]},{"type":"error","name":"IncorrectTBAOwner","inputs":[]},{"type":"error","name":"IncorrectTraitType","inputs":[]},{"type":"error","name":"InvalidBodyIndex","inputs":[]},{"type":"error","name":"InvalidColor","inputs":[]},{"type":"error","name":"InvalidLevelAmount","inputs":[]},{"type":"error","name":"InvalidSignature","inputs":[]},{"type":"error","name":"NewOwnerIsZeroAddress","inputs":[]},{"type":"error","name":"NoHandoverRequest","inputs":[]},{"type":"error","name":"NonceAlreadyUsed","inputs":[]},{"type":"error","name":"PeterDoesntExist","inputs":[]},{"type":"error","name":"Unauthorized","inputs":[]},{"type":"error","name":"markaSaysNo","inputs":[]}],"bytecode":{"object":"0x60806040526063601c553480156200001657600080fd5b5060405162006e0338038062006e03833981016040819052620000399162000100565b6040518060400160405280600a81526020016914195d195c8815195cdd60b21b815250604051806040016040528060058152602001642822aa22a960d91b81525081600090816200008b9190620001d2565b5060016200009a8282620001d2565b50506001600a5550620000ad33620000c4565b600b805460ff19169115159190911790556200029e565b6001600160a01b0316638b78c6d8198190558060007f8be0079c531659141344cd1fd0a4f28419497f9722a3daafe3b4186f6b6457e08180a350565b6000602082840312156200011357600080fd5b815180151581146200012457600080fd5b9392505050565b634e487b7160e01b600052604160045260246000fd5b600181811c908216806200015657607f821691505b6020821081036200017757634e487b7160e01b600052602260045260246000fd5b50919050565b601f821115620001cd576000816000526020600020601f850160051c81016020861015620001a85750805b601f850160051c820191505b81811015620001c957828155600101620001b4565b5050505b505050565b81516001600160401b03811115620001ee57620001ee6200012b565b6200020681620001ff845462000141565b846200017d565b602080601f8311600181146200023e5760008415620002255750858301515b600019600386901b1c1916600185901b178555620001c9565b600085815260208120601f198616915b828110156200026f578886015182559484019460019091019084016200024e565b50858210156200028e5787850151600019600388901b60f8161c191681555b5050505050600190811b01905550565b616b5580620002ae6000396000f3fe60806040526004361061049f5760003560e01c806370a0823111610260578063a1d6268011610144578063d5b55c8b116100c1578063f04e283e11610085578063f04e283e14610f08578063f18dc22d14610f1b578063f2361e2314610f3b578063f2fde38b14610f5b578063f6a0c93214610f6e578063fee81cf414610fa457600080fd5b8063d5b55c8b14610e3f578063d68c4f3214610e5f578063e140554014610e7f578063e37db3c214610e9f578063e985e9c514610ebf57600080fd5b8063b28fbe4011610108578063b28fbe4014610d92578063b88d4fde14610db2578063be928ff614610dd2578063c093afdb14610dff578063c87b56dd14610e1f57600080fd5b8063a1d6268014610cd7578063a22cb46514610cf7578063a23830ae14610d17578063a4bf9a0014610d45578063abc8c7af14610d7257600080fd5b806392012f08116101dd5780639c05d68d116101a15780639c05d68d14610c165780639c76201514610c4c5780639c7be2f114610c6c5780639f6e463714610c81578063a035b1fe14610ca1578063a15c561b14610cb757600080fd5b806392012f0814610b7257806393ccba7214610ba157806394cbd9c414610bc157806395d89b4114610be1578063998cfb6e14610bf657600080fd5b80638200ea51116102245780638200ea5114610ac65780638aa1e4c814610af95780638da5cb5b14610b19578063916c546b14610b3257806391b7f5ed14610b5257600080fd5b806370a0823114610a3e578063715018a614610a5e57806373ad6c2d14610a665780637557f2dc14610a865780637afe8d3414610aa657600080fd5b80633044825b1161038757806354d1f13d1161030457806360b77b23116102c857806360b77b23146109615780636273ca2c146109815780636352211e146109a157806366704349146109c157806366b89b5a14610a0b5780636ecd230614610a2b57600080fd5b806354d1f13d146108d957806355737f35146108e157806358180d351461090157806358a97640146109215780635eabd84a1461094157600080fd5b8063438b63001161034b578063438b63001461082c57806345a10d0f146108595780634a4333a3146108795780634ddb3961146108995780634f6ccce7146108b957600080fd5b80633044825b1461078c578063306c7334146107ac57806333d3d9bf146107cc578063347bd8f4146107ec57806342842e0e1461080c57600080fd5b8063105338e0116104205780631e162a33116103e45780631e162a33146106e457806323b872dd146107045780632569296214610724578063293ed3f71461072c5780632bd1ca451461074c5780632f745c591461076c57600080fd5b8063105338e01461064557806313ea0ae31461066557806314fe8ff414610685578063172b054d146106a557806318160ddd146106c557600080fd5b806307f4e0451161046757806307f4e0451461057d578063081812fc1461059d578063095ea7b3146105d55780630c83f9d7146105f55780630f1623201461062557600080fd5b806301ffc9a7146104a457806304003bd0146104d95780630447a45e14610519578063062101971461053b57806306fdde031461055b575b600080fd5b3480156104b057600080fd5b506104c46104bf36600461527a565b610fd7565b60405190151581526020015b60405180910390f35b3480156104e557600080fd5b506104f96104f4366004615297565b610fe8565b604080516001600160a01b039384168152929091166020830152016104d0565b34801561052557600080fd5b506105396105343660046152b0565b611017565b005b34801561054757600080fd5b506105396105563660046152e7565b6110d5565b34801561056757600080fd5b506105706110ff565b6040516104d09190615354565b34801561058957600080fd5b5061053961059836600461537c565b611191565b3480156105a957600080fd5b506105bd6105b8366004615297565b61123c565b6040516001600160a01b0390911681526020016104d0565b3480156105e157600080fd5b506105396105f03660046153a8565b611263565b34801561060157600080fd5b50610615610610366004615297565b61137d565b6040516104d094939291906153d4565b34801561063157600080fd5b506105396106403660046152b0565b61153e565b34801561065157600080fd5b50610539610660366004615297565b6115ea565b34801561067157600080fd5b506012546105bd906001600160a01b031681565b34801561069157600080fd5b506105706106a0366004615297565b611695565b3480156106b157600080fd5b506105396106c03660046152e7565b61190e565b3480156106d157600080fd5b506008545b6040519081526020016104d0565b3480156106f057600080fd5b506105396106ff3660046152b0565b611938565b34801561071057600080fd5b5061053961071f36600461541e565b6119e1565b610539611a12565b34801561073857600080fd5b50610539610747366004615297565b611a61565b34801561075857600080fd5b50610570610767366004615297565b611aca565b34801561077857600080fd5b506106d66107873660046153a8565b611b8e565b34801561079857600080fd5b506105396107a7366004615297565b611c24565b3480156107b857600080fd5b506105706107c7366004615297565b611cdf565b3480156107d857600080fd5b506105396107e7366004615297565b611d02565b3480156107f857600080fd5b50610539610807366004615297565b611d0f565b34801561081857600080fd5b5061053961082736600461541e565b611d72565b34801561083857600080fd5b5061084c6108473660046152e7565b611d8d565b6040516104d0919061545f565b34801561086557600080fd5b506105396108743660046152b0565b611e24565b34801561088557600080fd5b506105396108943660046154a3565b611ed2565b3480156108a557600080fd5b506105396108b43660046152e7565b611fc7565b3480156108c557600080fd5b506106d66108d4366004615297565b611ff1565b610539612084565b3480156108ed57600080fd5b506105bd6108fc3660046152b0565b6120c0565b34801561090d57600080fd5b5061053961091c366004615297565b6120f8565b34801561092d57600080fd5b5061053961093c3660046152e7565b61215d565b34801561094d57600080fd5b5061053961095c3660046152e7565b612187565b34801561096d57600080fd5b5061053961097c3660046152b0565b6121b1565b34801561098d57600080fd5b5061053961099c366004615297565b61225e565b3480156109ad57600080fd5b506105bd6109bc366004615297565b6122e2565b3480156109cd57600080fd5b506109e16109dc366004615297565b612342565b604080516001600160a01b03948516815260208101939093529216918101919091526060016104d0565b348015610a1757600080fd5b506013546105bd906001600160a01b031681565b610539610a39366004615509565b6123e3565b348015610a4a57600080fd5b506106d6610a593660046152e7565b61241a565b6105396124a0565b348015610a7257600080fd5b50610539610a813660046152e7565b6124b4565b348015610a9257600080fd5b50610570610aa1366004615297565b6124de565b348015610ab257600080fd5b50610539610ac1366004615297565b6127b0565b348015610ad257600080fd5b506104c4610ae1366004615297565b6000908152600c60205260409020600b015460ff1690565b348015610b0557600080fd5b506104c4610b143660046152b0565b612811565b348015610b2557600080fd5b50638b78c6d819546105bd565b348015610b3e57600080fd5b50610570610b4d366004615297565b612880565b348015610b5e57600080fd5b50610539610b6d366004615297565b6129a4565b348015610b7e57600080fd5b50610b92610b8d366004615624565b6129b1565b6040516104d09392919061571d565b348015610bad57600080fd5b50610539610bbc366004615760565b612b4f565b348015610bcd57600080fd5b50610539610bdc3660046152b0565b612bbb565b348015610bed57600080fd5b50610570612c67565b348015610c0257600080fd5b5061084c610c113660046152e7565b612c76565b348015610c2257600080fd5b506105bd610c31366004615297565b6018602052600090815260409020546001600160a01b031681565b348015610c5857600080fd5b50610539610c67366004615297565b612cec565b348015610c7857600080fd5b50610539612d52565b348015610c8d57600080fd5b5061084c610c9c366004615297565b612dae565b348015610cad57600080fd5b506106d660165481565b348015610cc357600080fd5b506014546105bd906001600160a01b031681565b348015610ce357600080fd5b50610570610cf2366004615297565b612dd2565b348015610d0357600080fd5b50610539610d123660046157fc565b612e02565b348015610d2357600080fd5b50610d37610d32366004615624565b612e11565b6040516104d0929190615828565b348015610d5157600080fd5b506106d6610d603660046152e7565b60196020526000908152604090205481565b348015610d7e57600080fd5b506011546105bd906001600160a01b031681565b348015610d9e57600080fd5b50610570610dad366004615297565b612e7c565b348015610dbe57600080fd5b50610539610dcd366004615856565b613103565b348015610dde57600080fd5b50610df2610ded366004615297565b61313b565b6040516104d091906158c1565b348015610e0b57600080fd5b506010546105bd906001600160a01b031681565b348015610e2b57600080fd5b50610570610e3a366004615297565b6132e1565b348015610e4b57600080fd5b50610539610e5a366004615297565b613322565b348015610e6b57600080fd5b50610539610e7a366004615979565b613386565b348015610e8b57600080fd5b50610539610e9a3660046159bf565b613602565b348015610eab57600080fd5b50610570610eba3660046159e2565b6136d3565b348015610ecb57600080fd5b506104c4610eda366004615a16565b6001600160a01b03918216600090815260056020908152604080832093909416825291909152205460ff1690565b610539610f163660046152e7565b613985565b348015610f2757600080fd5b50610539610f363660046152b0565b6139c2565b348015610f4757600080fd5b50610539610f56366004615a4f565b613a6d565b610539610f693660046152e7565b613aba565b348015610f7a57600080fd5b506105bd610f89366004615297565b6000908152601860205260409020546001600160a01b031690565b348015610fb057600080fd5b506106d6610fbf3660046152e7565b63389a75e1600c908152600091909152602090205490565b6000610fe282613ae1565b92915050565b600080610ff4836122e2565b6000938452601860205260409093205492936001600160a01b0390931692915050565b81611021816122e2565b6001600160a01b0316336001600160a01b031614611052576040516324adc17160e11b815260040160405180910390fd5b61105d826004613b06565b6110678383613c08565b6000838152600c602052604090206003018290558183611086816122e2565b6001600160a01b03166000805160206165fb8339815191526040516110c8906020808252600990820152684163636573736f727960b81b604082015260600190565b60405180910390a4505050565b6110dd613d00565b601780546001600160a01b0319166001600160a01b0392909216919091179055565b60606000805461110e90615ad4565b80601f016020809104026020016040519081016040528092919081815260200182805461113a90615ad4565b80156111875780601f1061115c57610100808354040283529160200191611187565b820191906000526020600020905b81548152906001019060200180831161116a57829003601f168201915b5050505050905090565b8161119b816122e2565b6001600160a01b0316336001600160a01b0316146111cc576040516324adc17160e11b815260040160405180910390fd5b6000838152600c60205260409020600b01805460ff1916831515179055826111f3816122e2565b6001600160a01b03167f0b42132106437554485bc84e473475fc8313b019bfc026285cf6ed57639803b88460405161122f911515815260200190565b60405180910390a3505050565b600061124782613d1b565b506000908152600460205260409020546001600160a01b031690565b600061126e826122e2565b9050806001600160a01b0316836001600160a01b0316036112e05760405162461bcd60e51b815260206004820152602160248201527f4552433732313a20617070726f76616c20746f2063757272656e74206f776e656044820152603960f91b60648201526084015b60405180910390fd5b336001600160a01b03821614806112fc57506112fc8133610eda565b61136e5760405162461bcd60e51b815260206004820152603e60248201527f4552433732313a20617070726f76652063616c6c6572206973206e6f7420746f60448201527f6b656e206f776e6572206e6f7220617070726f76656420666f7220616c6c000060648201526084016112d7565b6113788383613d7a565b505050565b600f602052600090815260409020805460018201805491929161139f90615ad4565b80601f01602080910402602001604051908101604052809291908181526020018280546113cb90615ad4565b80156114185780601f106113ed57610100808354040283529160200191611418565b820191906000526020600020905b8154815290600101906020018083116113fb57829003601f168201915b50505050509080600201805461142d90615ad4565b80601f016020809104026020016040519081016040528092919081815260200182805461145990615ad4565b80156114a65780601f1061147b576101008083540402835291602001916114a6565b820191906000526020600020905b81548152906001019060200180831161148957829003601f168201915b5050505050908060030180546114bb90615ad4565b80601f01602080910402602001604051908101604052809291908181526020018280546114e790615ad4565b80156115345780601f1061150957610100808354040283529160200191611534565b820191906000526020600020905b81548152906001019060200180831161151757829003601f168201915b5050505050905084565b81611548816122e2565b6001600160a01b0316336001600160a01b031614611579576040516324adc17160e11b815260040160405180910390fd5b611584826003613b06565b61158e8383613c08565b6000838152600c6020526040902060020182905581836115ad816122e2565b6001600160a01b03166000805160206165fb8339815191526040516110c8906020808252600490820152634661636560e01b604082015260600190565b806115f4816122e2565b6001600160a01b0316336001600160a01b031614611625576040516324adc17160e11b815260040160405180910390fd5b6000828152600c60205260408082206001019190915551632430b4b960e11b81526004015b60405180910390208261165c846122e2565b6001600160a01b03167fe428b1839105819dce5e635ac7e16ed2a43028f6e294bab8655e29acb5dc60bb60405160405180910390a45050565b606060006116a283612dae565b905060006040518060400160405280601b81526020017f3c7376672076696577426f783d223020302031353020313530223e000000000081525090506000604051806040016040528060068152602001651e17b9bb339f60d11b815250905060606000601060009054906101000a90046001600160a01b03166001600160a01b0316635c1ef2566040518163ffffffff1660e01b8152600401600060405180830381865afa158015611758573d6000803e3d6000fd5b505050506040513d6000823e601f3d908101601f191682016040526117809190810190615b53565b90506000601c5486511061179657601c54611799565b85515b9050604051806105400160405280610505815260200161661b6105059139826040516020016117c9929190615b87565b604051602081830303815290604052925060005b818110156118ae5760105487516000916001600160a01b03169063c7791531908a908590811061180f5761180f615bde565b60200260200101516040518263ffffffff1660e01b815260040161183591815260200190565b600060405180830381865afa158015611852573d6000803e3d6000fd5b505050506040513d6000823e601f3d908101601f1916820160405261187a9190810190615b53565b9050848782886040516020016118939493929190615bf4565b60408051601f198184030181529190529450506001016117dd565b50601c54865111156118e1578285856040516020016118cf93929190615c4b565b60405160208183030381529060405292505b826040516020016118f29190615d66565b60408051601f1981840301815291905298975050505050505050565b611916613d00565b601480546001600160a01b0319166001600160a01b0392909216919091179055565b81611942816122e2565b6001600160a01b0316336001600160a01b031614611973576040516324adc17160e11b815260040160405180910390fd5b61197e826001613b06565b6119888383613c08565b6000838152600c6020526040902082905581836119a4816122e2565b6001600160a01b03166000805160206165fb8339815191526040516110c8906020808252600490820152631219585960e21b604082015260600190565b6119eb3382613de8565b611a075760405162461bcd60e51b81526004016112d790615d8e565b611378838383613e66565b60006202a3006001600160401b03164201905063389a75e1600c5233600052806020600c2055337fdbf36a107da19e49527a7176a1babf963b4b0ff8cde35ee35d6cd8f1f9ac7e1d600080a250565b80611a6b816122e2565b6001600160a01b0316336001600160a01b031614611a9c576040516324adc17160e11b815260040160405180910390fd5b6000828152600c60205260408082206003019190915551684163636573736f727960b81b815260090161164a565b60608060606000611ada8561313b565b9050611ae5816129b1565b5060105460405163bb12d21d60e01b81529195506001600160a01b0316915063bb12d21d90611b189084906004016158c1565b600060405180830381865afa158015611b35573d6000803e3d6000fd5b505050506040513d6000823e601f3d908101601f19168201604052611b5d9190810190615ddc565b50604051909350611b75915084908490602001615e63565b6040516020818303038152906040529350505050919050565b6000611b998361241a565b8210611bfb5760405162461bcd60e51b815260206004820152602b60248201527f455243373231456e756d657261626c653a206f776e657220696e646578206f7560448201526a74206f6620626f756e647360a81b60648201526084016112d7565b506001600160a01b03919091166000908152600660209081526040808320938352929052205490565b80611c2e816122e2565b6001600160a01b0316336001600160a01b031614611c5f576040516324adc17160e11b815260040160405180910390fd5b6000828152600c602052604081208181556001810182905560028101829055600381018290556004810182905560058101829055600681019190915582611ca5816122e2565b6001600160a01b03167f46078a2cd4c69c3b4a27bdc69fdfe03d442ebcf405f1a68e9b5df6bc3e24429760405160405180910390a3505050565b6060806000611ced8461313b565b9050611cf8816129b1565b5095945050505050565b611d0a613d00565b601c55565b80611d19816122e2565b6001600160a01b0316336001600160a01b031614611d4a576040516324adc17160e11b815260040160405180910390fd5b6000828152600c60205260408082206004019190915551620546f760ec1b815260030161164a565b61137883838360405180602001604052806000815250613103565b60606000611d9a8361241a565b90506000816001600160401b03811115611db657611db6615524565b604051908082528060200260200182016040528015611ddf578160200160208202803683370190505b50905060005b82811015611e1c57611df78582611b8e565b828281518110611e0957611e09615bde565b6020908102919091010152600101611de5565b509392505050565b81611e2e816122e2565b6001600160a01b0316336001600160a01b031614611e5f576040516324adc17160e11b815260040160405180910390fd5b611e6a826006613b06565b611e748383613c08565b6000838152600c602052604090206005018290558183611e93816122e2565b6001600160a01b03166000805160206165fb8339815191526040516110c890602080825260069082015265426f74746f6d60d01b604082015260600190565b87611edc816122e2565b6001600160a01b0316336001600160a01b031614611f0d576040516324adc17160e11b815260040160405180910390fd5b8715611f1d57611f1d8989611938565b8615611f2d57611f2d8988612bbb565b8515611f3d57611f3d898761153e565b8415611f4d57611f4d8986611017565b8315611f5d57611f5d89856139c2565b8215611f6d57611f6d8984611e24565b8115611f7d57611f7d89836121b1565b88611f878a6122e2565b6001600160a01b03167f56680590212b09eb4b72a2eba8801b037ec046dfc754538e924f5bb6a8c4db6c60405160405180910390a3505050505050505050565b611fcf613d00565b601380546001600160a01b0319166001600160a01b0392909216919091179055565b6000611ffc60085490565b821061205f5760405162461bcd60e51b815260206004820152602c60248201527f455243373231456e756d657261626c653a20676c6f62616c20696e646578206f60448201526b7574206f6620626f756e647360a01b60648201526084016112d7565b6008828154811061207257612072615bde565b90600052602060002001549050919050565b63389a75e1600c523360005260006020600c2055337ffa7b8eab7da67f412cc9575ed43464468f9bfbae89d1675917346ca6d8fe3c92600080a2565b601a60205281600052604060002081815481106120dc57600080fd5b6000918252602090912001546001600160a01b03169150829050565b80612102816122e2565b6001600160a01b0316336001600160a01b031614612133576040516324adc17160e11b815260040160405180910390fd5b6000828152600c602052604080822060060191909155516453686f657360d81b815260050161164a565b612165613d00565b601280546001600160a01b0319166001600160a01b0392909216919091179055565b61218f613d00565b601080546001600160a01b0319166001600160a01b0392909216919091179055565b816121bb816122e2565b6001600160a01b0316336001600160a01b0316146121ec576040516324adc17160e11b815260040160405180910390fd5b6121f7826007613b06565b6122018383613c08565b6000838152600c602052604090206006018290558183612220816122e2565b6001600160a01b03166000805160206165fb8339815191526040516110c89060208082526005908201526453686f657360d81b604082015260600190565b600081815260186020526040908190205460105491516340d097c360e01b81526001600160a01b03918216600482018190529291909116906340d097c3906024016020604051808303816000875af11580156122be573d6000803e3d6000fd5b505050506040513d601f19601f820116820180604052508101906113789190615e92565b6000818152600260205260408120546001600160a01b031680610fe25760405162461bcd60e51b8152602060048201526018602482015277115490cdcc8c4e881a5b9d985b1a59081d1bdad95b88125160421b60448201526064016112d7565b6010546040516331a9108f60e11b815260048101839052600091829182916001600160a01b031690636352211e90602401602060405180830381865afa158015612390573d6000803e3d6000fd5b505050506040513d601f19601f820116820180604052508101906123b49190615eab565b6001600160a01b03811660009081526019602052604090205490935091506123db826122e2565b929491935050565b61240e6040518060400160405280600a81526020016936b4b73a34b73397171760b11b81525061400d565b61241781614050565b50565b60006001600160a01b0382166124845760405162461bcd60e51b815260206004820152602960248201527f4552433732313a2061646472657373207a65726f206973206e6f7420612076616044820152683634b21037bbb732b960b91b60648201526084016112d7565b506001600160a01b031660009081526003602052604090205490565b6124a8613d00565b6124b260006144fb565b565b6124bc613d00565b601180546001600160a01b0319166001600160a01b0392909216919091179055565b60608060608060608060608060606125176040518060800160405280606081526020016060815260200160608152602001600081525090565b60006125228c61313b565b905061252d816129b1565b60105460405163bb12d21d60e01b8152939d50919a5095506001600160a01b03169063bb12d21d906125639084906004016158c1565b600060405180830381865afa158015612580573d6000803e3d6000fd5b505050506040513d6000823e601f3d908101601f191682016040526125a89190810190615ddc565b604051929b5090985095506125c39085908790602001615ec8565b604051602081830303815290604052925087876040516020016125e7929190615e63565b60408051601f198184030181529190526101408201518352955061260a8c612dae565b51606083015261012081015160ff166000908152600f60205260409020600101805461263590615ad4565b80601f016020809104026020016040519081016040528092919081815260200182805461266190615ad4565b80156126ae5780601f10612683576101008083540402835291602001916126ae565b820191906000526020600020905b81548152906001019060200180831161269157829003601f168201915b505050505082602001819052506126d78c6000908152600c60205260409020600b015460ff1690565b6126fb57604051806040016040528060028152602001610c9160f21b815250612717565b604051806040016040528060028152602001610cd160f21b8152505b60408084019190915260145490516332d01b2560e21b81526001600160a01b039091169063cb406c949061275b908f908e9089908f908c908e908b90600401615f8c565b600060405180830381865afa158015612778573d6000803e3d6000fd5b505050506040513d6000823e601f3d908101601f191682016040526127a09190810190615b53565b9c9b505050505050505050505050565b806127ba816122e2565b6001600160a01b0316336001600160a01b0316146127eb576040516324adc17160e11b815260040160405180910390fd5b6000828152600c60205260408082209190915551631219585960e21b815260040161164a565b60008061281d8461313b565b80519091508314806128325750828160200151145b806128405750828160400151145b8061284e5750828160600151145b8061285c5750828160800151145b8061286a5750828160a00151145b806128785750828160c00151145b949350505050565b6000818152600f60205260408120600201805460609291612927916128a490615ad4565b80601f01602080910402602001604051908101604052809291908181526020018280546128d090615ad4565b801561291d5780601f106128f25761010080835404028352916020019161291d565b820191906000526020600020905b81548152906001019060200180831161290057829003601f168201915b50505050506136d3565b6013546040516335b07b7960e11b81529192506001600160a01b031690636b60f6f290612958908490600401615354565b600060405180830381865afa158015612975573d6000803e3d6000fd5b505050506040513d6000823e601f3d908101601f1916820160405261299d9190810190615b53565b9392505050565b6129ac613d00565b601655565b60608060606129c784610120015160ff16612880565b600f600086610120015160ff168152602001908152602001600020600301612ab660405180604001604052806009815260200168426f6479205479706560b81b815250600f600089610120015160ff1681526020019081526020016000206001018054612a3390615ad4565b80601f0160208091040260200160405190810160405280929190818152602001828054612a5f90615ad4565b8015612aac5780601f10612a8157610100808354040283529160200191612aac565b820191906000526020600020905b815481529060010190602001808311612a8f57829003601f168201915b5050505050614539565b818054612ac290615ad4565b80601f0160208091040260200160405190810160405280929190818152602001828054612aee90615ad4565b8015612b3b5780601f10612b1057610100808354040283529160200191612b3b565b820191906000526020600020905b815481529060010190602001808311612b1e57829003601f168201915b505050505091509250925092509193909250565b89612b59816122e2565b6001600160a01b0316336001600160a01b031614612b8a576040516324adc17160e11b815260040160405180910390fd5b612b9a8b8b8b8b8b8b8b8b611ed2565b612ba48b84613602565b612bae8b83613386565b5050505050505050505050565b81612bc5816122e2565b6001600160a01b0316336001600160a01b031614612bf6576040516324adc17160e11b815260040160405180910390fd5b612c01826002613b06565b612c0b8383613c08565b6000838152600c602052604090206001018290558183612c2a816122e2565b6001600160a01b03166000805160206165fb8339815191526040516110c8906020808252600490820152632430b4b960e11b604082015260600190565b60606001805461110e90615ad4565b60105460405162438b6360e81b81526001600160a01b03838116600483015260609260009291169063438b630090602401600060405180830381865afa158015612cc4573d6000803e3d6000fd5b505050506040513d6000823e601f3d908101601f1916820160405261299d9190810190616015565b80612cf6816122e2565b6001600160a01b0316336001600160a01b031614612d27576040516324adc17160e11b815260040160405180910390fd5b6000828152600c6020526040808220600501919091555165426f74746f6d60d01b815260060161164a565b60408051808201909152600c81526b3637b1b0b62232b83637bc9d60a11b6020820152600b54612d85919060ff16614565565b600b5460ff16156124b25760005b600181101561241757612da660046123e3565b600101612d93565b6000818152601860205260409020546060906001600160a01b031661299d81612c76565b60606000612ddf8361313b565b9050806101600151612df957612df483612e7c565b61299d565b61299d836124de565b612e0d3383836145aa565b5050565b606080612e2583610120015160ff16612880565b612e7360405180604001604052806009815260200168426f6479205479706560b81b815250600f600087610120015160ff1681526020019081526020016000206001018054612a3390615ad4565b91509150915091565b6060806060806060806000612e908861313b565b9050612e9b81612e11565b601054604051631be5857160e31b81529298509096506001600160a01b03169063df2c2b8890612ecf9084906004016158c1565b600060405180830381865afa158015612eec573d6000803e3d6000fd5b505050506040513d6000823e601f3d908101601f19168201604052612f1491908101906160ba565b9094509250612f2288611695565b9150612f4f6040518060800160405280606081526020016060815260200160608152602001600081525090565b6101408201518152612f6089612dae565b51606082015261012082015160ff166000908152600f602052604090206001018054612f8b90615ad4565b80601f0160208091040260200160405190810160405280929190818152602001828054612fb790615ad4565b80156130045780601f10612fd957610100808354040283529160200191613004565b820191906000526020600020905b815481529060010190602001808311612fe757829003601f168201915b5050505050816020018190525061302d896000908152600c60205260409020600b015460ff1690565b61305157604051806040016040528060028152602001610c9160f21b81525061306d565b604051806040016040528060028152602001610cd160f21b8152505b6040808301919091526013549051634e2fa37760e11b81526001600160a01b0390911690639c5f46ee906130b1908c908b908b908b908b908b908a90600401615f8c565b600060405180830381865afa1580156130ce573d6000803e3d6000fd5b505050506040513d6000823e601f3d908101601f191682016040526130f69190810190615b53565b9998505050505050505050565b61310d3383613de8565b6131295760405162461bcd60e51b81526004016112d790615d8e565b61313584848484614670565b50505050565b6131aa60405180610180016040528060008152602001600081526020016000815260200160008152602001600081526020016000815260200160008152602001600063ffffffff16815260200160008152602001600060ff168152602001606081526020016000151581525090565b6000828152600c60209081526040808320815161018081018352815481526001820154938101939093526002810154918301919091526003810154606083015260048101546080830152600581015460a0830152600681015460c0830152600781015463ffffffff1660e08301526008810154610100830152600981015460ff16610120830152600a810180546101408401919061324790615ad4565b80601f016020809104026020016040519081016040528092919081815260200182805461327390615ad4565b80156132c05780601f10613295576101008083540402835291602001916132c0565b820191906000526020600020905b8154815290600101906020018083116132a357829003601f168201915b5050509183525050600b919091015460ff1615156020909101529392505050565b6000818152600260205260409020546060906001600160a01b031661331957604051631a65aaab60e31b815260040160405180910390fd5b610fe282612dd2565b8061332c816122e2565b6001600160a01b0316336001600160a01b03161461335d576040516324adc17160e11b815260040160405180910390fd5b6000828152600c60205260408082206002019190915551634661636560e01b815260040161164a565b81613390816122e2565b6001600160a01b0316336001600160a01b0316146133c1576040516324adc17160e11b815260040160405180910390fd5b815182906006146133e557604051631cf7e9c560e01b815260040160405180910390fd5b60408051808201909152600681526503036393432360d41b6020918201528151908201207fc9a8162f44485821dce92aaad6bb1b8cc6d457721d5ae939092ca3297c7dd0a5016134485760405163a3c0b7b960e01b815260040160405180910390fd5b60005b600681101561359557603060f81b82828151811061346b5761346b615bde565b01602001516001600160f81b031916108015906134ac5750603960f81b82828151811061349a5761349a615bde565b01602001516001600160f81b03191611155b15801561350e5750604160f81b8282815181106134cb576134cb615bde565b01602001516001600160f81b0319161080159061350c5750604660f81b8282815181106134fa576134fa615bde565b01602001516001600160f81b03191611155b155b801561356f5750606160f81b82828151811061352c5761352c615bde565b01602001516001600160f81b0319161080159061356d5750606660f81b82828151811061355b5761355b615bde565b01602001516001600160f81b03191611155b155b1561358d57604051631cf7e9c560e01b815260040160405180910390fd5b60010161344b565b506000848152600c60205260409020600a016135b1848261615b565b50836135bc856122e2565b6001600160a01b03167f2e34f8c0f6052b66319b4a5df14eac164c6af8a0b37f612d4304a777e1ae7a3d856040516135f49190615354565b60405180910390a350505050565b8161360c816122e2565b6001600160a01b0316336001600160a01b03161461363d576040516324adc17160e11b815260040160405180910390fd5b60038260ff161115613662576040516329ba348d60e11b815260040160405180910390fd5b60ff821615611378576000838152600c60205260409020600901805460ff191660ff841617905582613693816122e2565b60405160ff851681526001600160a01b0391909116907f454db5768a3f8187a5dd5e9cca100cf699d74d8a03f793d16da3932cdf34d3589060200161122f565b805160609080158015906136ef57506136ed600582616230565b155b61373b5760405162461bcd60e51b815260206004820152601960248201527f496e76616c696420626f6479206279746573206c656e6774680000000000000060448201526064016112d7565b604080516111948082526111c08201909252600091602082018180368337019050509050600061376c60058461625a565b905060005b8181101561397b57600061378682600561626e565b9050600087828151811061379c5761379c615bde565b016020015160f81c90506000886137b4846001616285565b815181106137c4576137c4615bde565b016020015160f81c9050600060ff83166137df83601e61626e565b6137e99190616285565b6137f490600561626e565b905089848151811061380857613808615bde565b602001015160f81c60f81b87828151811061382557613825615bde565b60200101906001600160f81b031916908160001a90535089846001018151811061385157613851615bde565b602001015160f81c60f81b87826001018151811061387157613871615bde565b60200101906001600160f81b031916908160001a90535089846002018151811061389d5761389d615bde565b602001015160f81c60f81b8782600201815181106138bd576138bd615bde565b60200101906001600160f81b031916908160001a9053508984600301815181106138e9576138e9615bde565b602001015160f81c60f81b87826003018151811061390957613909615bde565b60200101906001600160f81b031916908160001a90535089846004018151811061393557613935615bde565b602001015160f81c60f81b87826004018151811061395557613955615bde565b60200101906001600160f81b031916908160001a90535050505050806001019050613771565b5090949350505050565b61398d613d00565b63389a75e1600c52806000526020600c2080544211156139b557636f5e88186000526004601cfd5b60009055612417816144fb565b816139cc816122e2565b6001600160a01b0316336001600160a01b0316146139fd576040516324adc17160e11b815260040160405180910390fd5b613a08826005613b06565b613a128383613c08565b6000838152600c602052604090206004018290558183613a31816122e2565b6001600160a01b03166000805160206165fb8339815191526040516110c8906020808252600390820152620546f760ec1b604082015260600190565b613a75613d00565b6000848152600f6020526040902084815560018101613a94858261615b565b5060028101613aa3848261615b565b5060038101613ab2838261615b565b505050505050565b613ac2613d00565b8060601b613ad857637448fbae6000526004601cfd5b612417816144fb565b60006001600160e01b0319821663780e9d6360e01b1480610fe25750610fe2826146a3565b60105460405163e8a1268d60e01b8152600481018490526000916001600160a01b03169063e8a1268d90602401602060405180830381865afa158015613b50573d6000803e3d6000fd5b505050506040513d601f19601f82011682018060405250810190613b749190616298565b9050816007811115613b8857613b886162b9565b604051602001613b9a91815260200190565b60405160208183030381529060405280519060200120816007811115613bc257613bc26162b9565b604051602001613bd491815260200190565b604051602081830303815290604052805190602001201461137857604051633e54c6fb60e11b815260040160405180910390fd5b81613c12816122e2565b6001600160a01b0316336001600160a01b031614613c43576040516324adc17160e11b815260040160405180910390fd5b6000838152601860205260408082205460105491516331a9108f60e11b8152600481018690526001600160a01b0391821693929190911690636352211e90602401602060405180830381865afa158015613ca1573d6000803e3d6000fd5b505050506040513d601f19601f82011682018060405250810190613cc59190615eab565b9050816001600160a01b0316816001600160a01b031614613cf95760405163e6ca793160e01b815260040160405180910390fd5b5050505050565b638b78c6d8195433146124b2576382b429006000526004601cfd5b6000818152600260205260409020546001600160a01b03166124175760405162461bcd60e51b8152602060048201526018602482015277115490cdcc8c4e881a5b9d985b1a59081d1bdad95b88125160421b60448201526064016112d7565b600081815260046020526040902080546001600160a01b0319166001600160a01b0384169081179091558190613daf826122e2565b6001600160a01b03167f8c5be1e5ebec7d5bd14f71427d1e84f3dd0314c0f7b2291e5b200ac8c7c3b92560405160405180910390a45050565b600080613df4836122e2565b9050806001600160a01b0316846001600160a01b03161480613e3b57506001600160a01b0380821660009081526005602090815260408083209388168352929052205460ff165b806128785750836001600160a01b0316613e548461123c565b6001600160a01b031614949350505050565b826001600160a01b0316613e79826122e2565b6001600160a01b031614613edd5760405162461bcd60e51b815260206004820152602560248201527f4552433732313a207472616e736665722066726f6d20696e636f72726563742060448201526437bbb732b960d91b60648201526084016112d7565b6001600160a01b038216613f3f5760405162461bcd60e51b8152602060048201526024808201527f4552433732313a207472616e7366657220746f20746865207a65726f206164646044820152637265737360e01b60648201526084016112d7565b613f4a8383836146f3565b613f55600082613d7a565b6001600160a01b0383166000908152600360205260408120805460019290613f7e9084906162cf565b90915550506001600160a01b0382166000908152600360205260408120805460019290613fac908490616285565b909155505060008181526002602052604080822080546001600160a01b0319166001600160a01b0386811691821790925591518493918716917fddf252ad1be2c89b69c2b068fc378daa952ba7f163c4a11628f55a4df523b3ef91a4505050565b612417816040516024016140219190615354565b60408051601f198184030181529190526020810180516001600160e01b031663104c13eb60e21b179052614d22565b6012546001600160a01b031661407957604051633390ca8960e21b815260040160405180910390fd5b6140ad6040518060400160405280600f81526020016e36b4b73a34b7339030b6b7bab73a1d60891b8152508260ff16614d43565b60006015600081546140be906162e2565b918290555090506140cf3382614d88565b6141006040518060400160405280600f81526020016e36b4b73a32b2103a37b5b2b724b21d60891b81525082614d43565b6141306040518060400160405280600f81526020016e31b932b0ba34b733903a313097171760891b81525061400d565b61415f6040518060400160405280600d81526020016c6164647265737328746869732960981b81525030614ed6565b604051638a54c52f60e01b81527355266d75d1a14e4572138116af39863ed6596e7f600482015260006024820181905262014a34604483015230606483015260848201839052906f6551c19487814612e58fe0681377575890638a54c52f9060a4016020604051808303816000875af11580156141e0573d6000803e3d6000fd5b505050506040513d601f19601f820116820180604052508101906142049190615eab565b90506142456040518060400160405280601981526020017f746f6b656e426f756e644163636f756e74416464726573733a0000000000000081525082614ed6565b600082815260186020908152604080832080546001600160a01b0319166001600160a01b038616908117909155808452601990925291829020849055905163189acdbd60e31b81527341c8f39463a868d3a88af00cd0fe7102f30e44ec600482015263c4d66de890602401600060405180830381600087803b1580156142ca57600080fd5b505af11580156142de573d6000803e3d6000fd5b50506012546040516358a2727360e01b81526001600160a01b03858116600483015260ff881660248301526000945090911691506358a27273906044016000604051808303816000875af115801561433a573d6000803e3d6000fd5b505050506040513d6000823e601f3d908101601f191682016040526143629190810190616015565b90506143ad6040518060400160405280600d81526020016c3a3930b4ba39a4b239ad982e9d60991b815250826000815181106143a0576143a0615bde565b6020026020010151614d43565b6000838152600c60205260408120600881018590558251909183916143d4576143d4615bde565b60200260200101518160060181905550816001815181106143f7576143f7615bde565b602002602001015181600501819055508160028151811061441a5761441a615bde565b602002602001015181600401819055508160038151811061443d5761443d615bde565b6020908102919091018101516001830155600b8201805460ff1916905560408051808301879052815180820384018152908201909152805191012061448490600490616230565b60098201805460ff191660ff929092169190911790556040805180820190915260068152650c110d914e5160d21b6020820152600a8201906144c6908261615b565b50604051849033907f0f6798a560793a54c3bcfe86a93cde1e73087d944c0ea20544137d412139688590600090a35050505050565b638b78c6d81980546001600160a01b039092169182907f8be0079c531659141344cd1fd0a4f28419497f9722a3daafe3b4186f6b6457e0600080a355565b6060828260405160200161454e9291906162fb565b604051602081830303815290604052905092915050565b612e0d828260405160240161457b92919061636c565b60408051601f198184030181529190526020810180516001600160e01b031663c3b5563560e01b179052614d22565b816001600160a01b0316836001600160a01b03160361460b5760405162461bcd60e51b815260206004820152601960248201527f4552433732313a20617070726f766520746f2063616c6c65720000000000000060448201526064016112d7565b6001600160a01b03838116600081815260056020908152604080832094871680845294825291829020805460ff191686151590811790915591519182527f17307eab39ab6107e8899845ad3d59bd9653f200f220920489ca2b5937696c31910161122f565b61467b848484613e66565b61468784848484614f1b565b6131355760405162461bcd60e51b81526004016112d790616390565b60006001600160e01b031982166380ac58cd60e01b14806146d457506001600160e01b03198216635b5e139f60e01b145b80610fe257506301ffc9a760e01b6001600160e01b0319831614610fe2565b6001600160a01b03831661470c5761137883838361501c565b61472e6040518060600160405280603481526020016165c76034913982614d43565b6001600160a01b0382166000908152601960205260409020541561476557604051639a42da2960e01b815260040160405180910390fd5b600081815260186020908152604091829020548251808401909352600d83526c16903a3130a0b2323932b9b99d60991b918301919091526001600160a01b0316906147b09082614ed6565b60105460405162438b6360e81b81526001600160a01b038381166004830152600092169063438b630090602401600060405180830381865afa1580156147fa573d6000803e3d6000fd5b505050506040513d6000823e601f3d908101601f191682016040526148229190810190616015565b9050600061482f85611d8d565b9050600081516001600160401b0381111561484c5761484c615524565b604051908082528060200260200182016040528015614875578160200160208202803683370190505b50905060005b8251811015614963576018600084838151811061489a5761489a615bde565b6020026020010151815260200190815260200160002060009054906101000a90046001600160a01b03168282815181106148d6576148d6615bde565b60200260200101906001600160a01b031690816001600160a01b03168152505061495b6040518060400160405280600a81526020016916903a3130b99717171d60b11b8152506018600086858151811061493257614932615bde565b6020908102919091018101518252810191909152604001600020546001600160a01b0316614ed6565b60010161487b565b50601154604051638b32238360e01b8152600481018790526000916001600160a01b031690638b32238390602401600060405180830381865afa1580156149ae573d6000803e3d6000fd5b505050506040513d6000823e601f3d908101601f191682016040526149d691908101906163e2565b5091935050506001600160a01b038216159050614a18576011546001600160a01b03163314614a185760405163bf646b0f60e01b815260040160405180910390fd5b60115460405163644ec52760e01b8152600481018890526001600160a01b039091169063644ec52790602401600060405180830381600087803b158015614a5e57600080fd5b505af1158015614a72573d6000803e3d6000fd5b5050601154604051631e92beb560e31b8152600481018a90526001600160a01b038b81166024830152909116925063f495f5a89150604401600060405180830381600087803b158015614ac457600080fd5b505af1158015614ad8573d6000803e3d6000fd5b5050505060005b8451811015614d0c576000858281518110614afc57614afc615bde565b6020908102919091010151601154604051632e1d274f60e01b8152600481018390529192506001600160a01b031690632e1d274f90602401600060405180830381600087803b158015614b4e57600080fd5b505af1158015614b62573d6000803e3d6000fd5b50505050614b8760405180608001604052806058815260200161656f6058913961400d565b6010546040516360ffbc5f60e11b8152600481018390526000916001600160a01b03169063c1ff78be90602401602060405180830381865afa158015614bd1573d6000803e3d6000fd5b505050506040513d601f19601f82011682018060405250810190614bf59190615e92565b9050614c366040518060400160405280601a81526020017f2d20617070726f7665644f70657261746f72734c656e6774683a00000000000081525082614d43565b8015614c9b5760105460405163487b1c2160e11b8152600481018490526001600160a01b03909116906390f6384290602401600060405180830381600087803b158015614c8257600080fd5b505af1158015614c96573d6000803e3d6000fd5b505050505b601154604051632333520b60e11b81526001600160a01b0390911690634666a41690614ccd9085908990600401616463565b600060405180830381600087803b158015614ce757600080fd5b505af1158015614cfb573d6000803e3d6000fd5b505050505050806001019050614adf565b50614d1888888861501c565b5050505050505050565b80516a636f6e736f6c652e6c6f67602083016000808483855afa5050505050565b612e0d8282604051602401614d599291906164bc565b60408051601f198184030181529190526020810180516001600160e01b03166309710a9d60e41b179052614d22565b6001600160a01b038216614dde5760405162461bcd60e51b815260206004820181905260248201527f4552433732313a206d696e7420746f20746865207a65726f206164647265737360448201526064016112d7565b6000818152600260205260409020546001600160a01b031615614e435760405162461bcd60e51b815260206004820152601c60248201527f4552433732313a20746f6b656e20616c7265616479206d696e7465640000000060448201526064016112d7565b614e4f600083836146f3565b6001600160a01b0382166000908152600360205260408120805460019290614e78908490616285565b909155505060008181526002602052604080822080546001600160a01b0319166001600160a01b03861690811790915590518392907fddf252ad1be2c89b69c2b068fc378daa952ba7f163c4a11628f55a4df523b3ef908290a45050565b612e0d8282604051602401614eec9291906164de565b60408051601f198184030181529190526020810180516001600160e01b031663319af33360e01b179052614d22565b60006001600160a01b0384163b1561501157604051630a85bd0160e11b81526001600160a01b0385169063150b7a0290614f5f903390899088908890600401616508565b6020604051808303816000875af1925050508015614f9a575060408051601f3d908101601f19168201909252614f979181019061653b565b60015b614ff7573d808015614fc8576040519150601f19603f3d011682016040523d82523d6000602084013e614fcd565b606091505b508051600003614fef5760405162461bcd60e51b81526004016112d790616390565b805181602001fd5b6001600160e01b031916630a85bd0160e11b149050612878565b506001949350505050565b6001600160a01b0383166150775761507281600880546000838152600960205260408120829055600182018355919091527ff3f7a9fe364faab93b216da50a3214154f22a0a2b415b23a84c8169e8b636ee30155565b61509a565b816001600160a01b0316836001600160a01b03161461509a5761509a83826150d4565b6001600160a01b0382166150b15761137881615171565b826001600160a01b0316826001600160a01b031614611378576113788282615220565b600060016150e18461241a565b6150eb91906162cf565b60008381526007602052604090205490915080821461513e576001600160a01b03841660009081526006602090815260408083208584528252808320548484528184208190558352600790915290208190555b5060009182526007602090815260408084208490556001600160a01b039094168352600681528383209183525290812055565b600854600090615183906001906162cf565b600083815260096020526040812054600880549394509092849081106151ab576151ab615bde565b9060005260206000200154905080600883815481106151cc576151cc615bde565b600091825260208083209091019290925582815260099091526040808220849055858252812055600880548061520457615204616558565b6001900381819060005260206000200160009055905550505050565b600061522b8361241a565b6001600160a01b039093166000908152600660209081526040808320868452825280832085905593825260079052919091209190915550565b6001600160e01b03198116811461241757600080fd5b60006020828403121561528c57600080fd5b813561299d81615264565b6000602082840312156152a957600080fd5b5035919050565b600080604083850312156152c357600080fd5b50508035926020909101359150565b6001600160a01b038116811461241757600080fd5b6000602082840312156152f957600080fd5b813561299d816152d2565b60005b8381101561531f578181015183820152602001615307565b50506000910152565b60008151808452615340816020860160208601615304565b601f01601f19169290920160200192915050565b60208152600061299d6020830184615328565b8035801515811461537757600080fd5b919050565b6000806040838503121561538f57600080fd5b8235915061539f60208401615367565b90509250929050565b600080604083850312156153bb57600080fd5b82356153c6816152d2565b946020939093013593505050565b8481526080602082015260006153ed6080830186615328565b82810360408401526153ff8186615328565b905082810360608401526154138185615328565b979650505050505050565b60008060006060848603121561543357600080fd5b833561543e816152d2565b9250602084013561544e816152d2565b929592945050506040919091013590565b6020808252825182820181905260009190848201906040850190845b818110156154975783518352928401929184019160010161547b565b50909695505050505050565b600080600080600080600080610100898b0312156154c057600080fd5b505086359860208801359850604088013597606081013597506080810135965060a0810135955060c0810135945060e0013592509050565b803560ff8116811461537757600080fd5b60006020828403121561551b57600080fd5b61299d826154f8565b634e487b7160e01b600052604160045260246000fd5b60405161018081016001600160401b038111828210171561555d5761555d615524565b60405290565b604051601f8201601f191681016001600160401b038111828210171561558b5761558b615524565b604052919050565b803563ffffffff8116811461537757600080fd5b60006001600160401b038211156155c0576155c0615524565b50601f01601f191660200190565b600082601f8301126155df57600080fd5b81356155f26155ed826155a7565b615563565b81815284602083860101111561560757600080fd5b816020850160208301376000918101602001919091529392505050565b60006020828403121561563657600080fd5b81356001600160401b038082111561564d57600080fd5b90830190610180828603121561566257600080fd5b61566a61553a565b823581526020830135602082015260408301356040820152606083013560608201526080830135608082015260a083013560a082015260c083013560c08201526156b660e08401615593565b60e082015261010083810135908201526101206156d48185016154f8565b9082015261014083810135838111156156ec57600080fd5b6156f8888287016155ce565b828401525050610160915061570e828401615367565b91810191909152949350505050565b6060815260006157306060830186615328565b82810360208401526157428186615328565b905082810360408401526157568185615328565b9695505050505050565b6000806000806000806000806000806101408b8d03121561578057600080fd5b8a35995060208b0135985060408b0135975060608b0135965060808b0135955060a08b0135945060c08b0135935060e08b013592506157c26101008c016154f8565b91506101208b01356001600160401b038111156157de57600080fd5b6157ea8d828e016155ce565b9150509295989b9194979a5092959850565b6000806040838503121561580f57600080fd5b823561581a816152d2565b915061539f60208401615367565b60408152600061583b6040830185615328565b828103602084015261584d8185615328565b95945050505050565b6000806000806080858703121561586c57600080fd5b8435615877816152d2565b93506020850135615887816152d2565b92506040850135915060608501356001600160401b038111156158a957600080fd5b6158b5878288016155ce565b91505092959194509250565b6020815281516020820152602082015160408201526040820151606082015260608201516080820152608082015160a082015260a082015160c082015260c082015160e0820152600060e08301516101006159238185018363ffffffff169052565b8401516101208481019190915284015190506101406159468185018360ff169052565b8085015191505061018061016081818601526159666101a0860184615328565b908601518015158387015290925061397b565b6000806040838503121561598c57600080fd5b8235915060208301356001600160401b038111156159a957600080fd5b6159b5858286016155ce565b9150509250929050565b600080604083850312156159d257600080fd5b8235915061539f602084016154f8565b6000602082840312156159f457600080fd5b81356001600160401b03811115615a0a57600080fd5b612878848285016155ce565b60008060408385031215615a2957600080fd5b8235615a34816152d2565b91506020830135615a44816152d2565b809150509250929050565b60008060008060808587031215615a6557600080fd5b8435935060208501356001600160401b0380821115615a8357600080fd5b615a8f888389016155ce565b94506040870135915080821115615aa557600080fd5b615ab1888389016155ce565b93506060870135915080821115615ac757600080fd5b506158b5878288016155ce565b600181811c90821680615ae857607f821691505b602082108103615b0857634e487b7160e01b600052602260045260246000fd5b50919050565b600082601f830112615b1f57600080fd5b8151615b2d6155ed826155a7565b818152846020838601011115615b4257600080fd5b612878826020830160208701615304565b600060208284031215615b6557600080fd5b81516001600160401b03811115615b7b57600080fd5b61287884828501615b0e565b60008351615b99818460208801615304565b835190830190615bad818360208801615304565b7f3c672069643d226261636b7061636b547261697473223e0000000000000000009101908152601701949350505050565b634e487b7160e01b600052603260045260246000fd5b60008551615c06818460208a01615304565b855190830190615c1a818360208a01615304565b8551910190615c2d818360208901615304565b8451910190615c40818360208801615304565b019695505050505050565b60008451615c5d818460208901615304565b845190830190615c71818360208901615304565b8082019150507f3c672069643d224d6f7265547261697473223e3c72656374207374796c653d2281527f77696474683a313070783b206865696768743a3270783b2220783d223130222060208201527f793d223136222066696c6c3d2223666666666666223e3c2f726563743e3c726560408201527f6374207374796c653d226865696768743a313070783b2077696474683a32707860608201527f3b2220783d2231342220793d223132222066696c6c3d2223666666666666223e60808201526a1e17b932b1ba1f1e17b39f60a91b60a08201528351615d598160ab840160208801615304565b0160ab0195945050505050565b60008251615d78818460208701615304565b631e17b39f60e11b920191825250600401919050565b6020808252602e908201527f4552433732313a2063616c6c6572206973206e6f7420746f6b656e206f776e6560408201526d1c881b9bdc88185c1c1c9bdd995960921b606082015260800190565b600080600060608486031215615df157600080fd5b83516001600160401b0380821115615e0857600080fd5b615e1487838801615b0e565b94506020860151915080821115615e2a57600080fd5b615e3687838801615b0e565b93506040860151915080821115615e4c57600080fd5b50615e5986828701615b0e565b9150509250925092565b60008351615e75818460208801615304565b835190830190615e89818360208801615304565b01949350505050565b600060208284031215615ea457600080fd5b5051919050565b600060208284031215615ebd57600080fd5b815161299d816152d2565b6d2261747472696275746573223a5b60901b81528251600090615ef281600e850160208801615304565b600b60fa1b600e918401918201528351615f1381600f840160208801615304565b605d60f81b600f9290910191820152601001949350505050565b6000815160808452615f426080850182615328565b905060208301518482036020860152615f5b8282615328565b91505060408301518482036040860152615f758282615328565b915050606083015160608501528091505092915050565b87815260e060208201526000615fa560e0830189615328565b8281036040840152615fb78189615328565b90508281036060840152615fcb8188615328565b90508281036080840152615fdf8187615328565b905082810360a0840152615ff38186615328565b905082810360c08401526160078185615f2d565b9a9950505050505050505050565b6000602080838503121561602857600080fd5b82516001600160401b038082111561603f57600080fd5b818501915085601f83011261605357600080fd5b81518181111561606557616065615524565b8060051b9150616076848301615563565b818152918301840191848101908884111561609057600080fd5b938501935b838510156160ae57845182529385019390850190616095565b98975050505050505050565b600080604083850312156160cd57600080fd5b82516001600160401b03808211156160e457600080fd5b6160f086838701615b0e565b9350602085015191508082111561610657600080fd5b506159b585828601615b0e565b601f821115611378576000816000526020600020601f850160051c8101602086101561613c5750805b601f850160051c820191505b81811015613ab257828155600101616148565b81516001600160401b0381111561617457616174615524565b616188816161828454615ad4565b84616113565b602080601f8311600181146161bd57600084156161a55750858301515b600019600386901b1c1916600185901b178555613ab2565b600085815260208120601f198616915b828110156161ec578886015182559484019460019091019084016161cd565b508582101561620a5787850151600019600388901b60f8161c191681555b5050505050600190811b01905550565b634e487b7160e01b600052601260045260246000fd5b60008261623f5761623f61621a565b500690565b634e487b7160e01b600052601160045260246000fd5b6000826162695761626961621a565b500490565b8082028115828204841417610fe257610fe2616244565b80820180821115610fe257610fe2616244565b6000602082840312156162aa57600080fd5b81516008811061299d57600080fd5b634e487b7160e01b600052602160045260246000fd5b81810381811115610fe257610fe2616244565b6000600182016162f4576162f4616244565b5060010190565b6e3d913a3930b4ba2fba3cb832911d1160891b8152825160009061632681600f850160208801615304565b6a1116113b30b63ab2911d1160a91b600f91840191820152835161635181601a840160208801615304565b61227d60f01b601a9290910191820152601c01949350505050565b60408152600061637f6040830185615328565b905082151560208301529392505050565b60208082526032908201527f4552433732313a207472616e7366657220746f206e6f6e20455243373231526560408201527131b2b4bb32b91034b6b83632b6b2b73a32b960711b606082015260800190565b600080600080600060a086880312156163fa57600080fd5b85519450602086015161640c816152d2565b604087015190945061641d816152d2565b606087015190935061642e816152d2565b60808701519092506001600160401b0381111561644a57600080fd5b61645688828901615b0e565b9150509295509295909350565b60006040820184835260206040602085015281855180845260608601915060208701935060005b818110156164af5784516001600160a01b03168352938301939183019160010161648a565b5090979650505050505050565b6040815260006164cf6040830185615328565b90508260208301529392505050565b6040815260006164f16040830185615328565b905060018060a01b03831660208301529392505050565b6001600160a01b038581168252841660208201526040810183905260806060820181905260009061575690830184615328565b60006020828403121561654d57600080fd5b815161299d81615264565b634e487b7160e01b600052603160045260246000fdfe5065746572734d61696e205f6265666f7265546f6b656e5472616e736665722063616c6c696e6720696e76616c6964617465416c6c4f70657261746f72417070726f76616c73206f6e20747261697473436f6e74726163745065746572734d61696e205f6265666f7265546f6b656e5472616e736665722063616c6c656420666f7220746f6b656e2049443a8aea9baa1ab7209ce94784ac5f5149343f8d985fd4278de25a7b390989f2cf853c672069643d22416c6c20547261697473223e3c672069643d226261636b7061636b2220636c6173733d22636c6f736564223e3c7061746820643d224d302030204c33302030204c3330203330204c30203330205a222066696c6c3d227267622831322c203130392c203135372922202f3e3c7376672069643d226261636b7061636b5549222076696577426f783d223020302031323020313230223e203c7374796c653e2e75697b77696474683a3170783b206865696768743a203170783b2066696c6c3a77686974657d3c2f7374796c653e203c672069643d22636c6f736542746e22207472616e73666f726d3d227472616e736c61746528322c3229223e203c7265637420783d22312220793d22312220636c6173733d227569223e3c2f726563743e203c7265637420783d22322220793d22322220636c6173733d227569223e3c2f726563743e203c7265637420783d22332220793d22332220636c6173733d227569223e3c2f726563743e203c7265637420783d22342220793d22342220636c6173733d227569223e3c2f726563743e203c7265637420783d22352220793d22352220636c6173733d227569223e3c2f726563743e203c7265637420783d22352220793d22312220636c6173733d227569223e3c2f726563743e203c7265637420783d22342220793d22322220636c6173733d227569223e3c2f726563743e203c212d2d203c7265637420783d22332220793d2233222077696474683d223122206865696768743d2231222066696c6c3d227768697465223e3c2f726563743e202d2d3e203c7265637420783d22322220793d22342220636c6173733d227569223e3c2f726563743e203c7265637420783d22312220793d22352220636c6173733d227569223e3c2f726563743e203c2f673e203c672069643d226c65667442746e2220636c6173733d22627574746f6e22207472616e73666f726d3d227472616e736c6174652834352c31313029223e203c7061746820643d224d302030204c362030204c362036204c302036205a222066696c6c3d227472616e73706172656e7422202f3e203c7265637420783d22322220793d22302220636c6173733d227569223e3c2f726563743e203c7265637420783d22312220793d22312220636c6173733d227569223e3c2f726563743e203c7265637420783d22302220793d22322220636c6173733d227569223e3c2f726563743e203c7265637420783d22312220793d22332220636c6173733d227569223e3c2f726563743e203c7265637420783d22322220793d22342220636c6173733d227569223e3c2f726563743e203c2f673e203c672069643d22726967687442746e2220636c6173733d22627574746f6e22207472616e73666f726d3d227472616e736c6174652836352c31313029223e203c7061746820643d224d302030204c362030204c362036204c302036205a222066696c6c3d227472616e73706172656e7422202f3e203c7265637420783d22332220793d22302220636c6173733d227569223e3c2f726563743e203c7265637420783d22342220793d22312220636c6173733d227569223e3c2f726563743e203c7265637420783d22352220793d22322220636c6173733d227569223e3c2f726563743e203c7265637420783d22342220793d22332220636c6173733d227569223e3c2f726563743e203c7265637420783d22332220793d22342220636c6173733d227569223e3c2f726563743e203c2f673e203c2f7376673e20a26469706673582212207f52cdcbbdf8f8a0e0423112f4aa2fc40fbfdadd1ad2eb33c16161ae4806956464736f6c63430008160033","linkReferences":{}},"methodIdentifiers":{"_debugPostConstructorMint()":"9c7be2f1","addNewBody(uint256,string,bytes,bytes)":"f2361e23","approve(address,uint256)":"095ea7b3","balanceOf(address)":"70a08231","bodyIndexToMetadata(uint256)":"0c83f9d7","buyTrait(uint256)":"6273ca2c","cancelOwnershipHandover()":"54d1f13d","checkIfTraitIsEquipped(uint256,uint256)":"8aa1e4c8","chonkIdToApprovedOperators(uint256,uint256)":"55737f35","completeOwnershipHandover(address)":"f04e283e","equipAccessory(uint256,uint256)":"0447a45e","equipAll(uint256,uint256,uint256,uint256,uint256,uint256,uint256,uint256)":"4a4333a3","equipBottom(uint256,uint256)":"45a10d0f","equipFace(uint256,uint256)":"0f162320","equipHair(uint256,uint256)":"94cbd9c4","equipHead(uint256,uint256)":"1e162a33","equipShoes(uint256,uint256)":"60b77b23","equipTop(uint256,uint256)":"f18dc22d","firstSeasonRenderMinter()":"13ea0ae3","getApproved(uint256)":"081812fc","getBackpackSVGs(uint256)":"14fe8ff4","getBodyImage(bytes)":"e37db3c2","getBodyImageSvg(uint256)":"916c546b","getBodySVGZmapsAndMetadata((uint256,uint256,uint256,uint256,uint256,uint256,uint256,uint32,uint256,uint8,string,bool))":"92012f08","getBodySvgAndMetadata((uint256,uint256,uint256,uint256,uint256,uint256,uint256,uint32,uint256,uint8,string,bool))":"a23830ae","getBodyZMap(uint256)":"306c7334","getFullPictureForTrait(uint256)":"66704349","getOwnerAndTBAAddressForChonkId(uint256)":"04003bd0","getPeter(uint256)":"be928ff6","getPeterZMap(uint256)":"2bd1ca45","getTBAAddressForChonkId(uint256)":"f6a0c932","getTokenRenderZ(uint256)":"8200ea51","getTraitTokens(address)":"998cfb6e","getTraitsForChonkId(uint256)":"9f6e4637","isApprovedForAll(address,address)":"e985e9c5","mainRenderer()":"66b89b5a","marketplace()":"abc8c7af","mint(uint8)":"6ecd2306","name()":"06fdde03","owner()":"8da5cb5b","ownerOf(uint256)":"6352211e","ownershipHandoverExpiresAt(address)":"fee81cf4","peterMakeover(uint256,uint256,uint256,uint256,uint256,uint256,uint256,uint256,uint8,string)":"93ccba72","price()":"a035b1fe","renderAsDataUri(uint256)":"a1d62680","renderAsDataUriSVG(uint256)":"b28fbe40","renderAsDataUriZ(uint256)":"7557f2dc","renounceOwnership()":"715018a6","requestOwnershipHandover()":"25692962","safeTransferFrom(address,address,uint256)":"42842e0e","safeTransferFrom(address,address,uint256,bytes)":"b88d4fde","setApprovalForAll(address,bool)":"a22cb465","setBackgroundColor(uint256,string)":"d68c4f32","setBodyIndex(uint256,uint8)":"e1405540","setFirstSeasonRenderMinter(address)":"58a97640","setMainRenderer(address)":"4ddb3961","setMarketplace(address)":"73ad6c2d","setMaxTraitsToOutput(uint256)":"33d3d9bf","setPrice(uint256)":"91b7f5ed","setSystemAddress(address)":"06210197","setTokenRenderZ(uint256,bool)":"07f4e045","setTraitsContract(address)":"5eabd84a","setZRenderer(address)":"172b054d","supportsInterface(bytes4)":"01ffc9a7","symbol()":"95d89b41","tbaAddressToTokenId(address)":"a4bf9a00","tokenByIndex(uint256)":"4f6ccce7","tokenIdToTBAAccountAddress(uint256)":"9c05d68d","tokenOfOwnerByIndex(address,uint256)":"2f745c59","tokenURI(uint256)":"c87b56dd","totalSupply()":"18160ddd","traitsContract()":"c093afdb","transferFrom(address,address,uint256)":"23b872dd","transferOwnership(address)":"f2fde38b","unequipAccessory(uint256)":"293ed3f7","unequipAll(uint256)":"3044825b","unequipBottom(uint256)":"9c762015","unequipFace(uint256)":"d5b55c8b","unequipHair(uint256)":"105338e0","unequipHead(uint256)":"7afe8d34","unequipShoes(uint256)":"58180d35","unequipTop(uint256)":"347bd8f4","walletOfOwner(address)":"438b6300","zRenderer()":"a15c561b"},"id":46}