{"abi":[{"type":"constructor","inputs":[{"name":"localDeploy_","type":"bool","internalType":"bool"}],"stateMutability":"nonpayable"},{"type":"function","name":"_debugPostConstructorMint","inputs":[],"outputs":[],"stateMutability":"nonpayable"},{"type":"function","name":"addNewBody","inputs":[{"name":"_bodyIndex","type":"uint256","internalType":"uint256"},{"name":"_bodyName","type":"string","internalType":"string"},{"name":"_colorMap","type":"bytes","internalType":"bytes"},{"name":"_zMap","type":"bytes","internalType":"bytes"}],"outputs":[],"stateMutability":"nonpayable"},{"type":"function","name":"approve","inputs":[{"name":"to","type":"address","internalType":"address"},{"name":"tokenId","type":"uint256","internalType":"uint256"}],"outputs":[],"stateMutability":"nonpayable"},{"type":"function","name":"balanceOf","inputs":[{"name":"owner","type":"address","internalType":"address"}],"outputs":[{"name":"","type":"uint256","internalType":"uint256"}],"stateMutability":"view"},{"type":"function","name":"bodyIndexToMetadata","inputs":[{"name":"","type":"uint256","internalType":"uint256"}],"outputs":[{"name":"bodyIndex","type":"uint256","internalType":"uint256"},{"name":"bodyName","type":"string","internalType":"string"},{"name":"colorMap","type":"bytes","internalType":"bytes"},{"name":"zMap","type":"bytes","internalType":"bytes"}],"stateMutability":"view"},{"type":"function","name":"buyTrait","inputs":[{"name":"_tokenId","type":"uint256","internalType":"uint256"}],"outputs":[],"stateMutability":"nonpayable"},{"type":"function","name":"cancelOwnershipHandover","inputs":[],"outputs":[],"stateMutability":"payable"},{"type":"function","name":"checkIfTraitIsEquipped","inputs":[{"name":"_chonkId","type":"uint256","internalType":"uint256"},{"name":"_traitId","type":"uint256","internalType":"uint256"}],"outputs":[{"name":"","type":"bool","internalType":"bool"}],"stateMutability":"view"},{"type":"function","name":"chonkIdToApprovedOperators","inputs":[{"name":"chonkId","type":"uint256","internalType":"uint256"},{"name":"","type":"uint256","internalType":"uint256"}],"outputs":[{"name":"operators","type":"address","internalType":"address"}],"stateMutability":"view"},{"type":"function","name":"completeOwnershipHandover","inputs":[{"name":"pendingOwner","type":"address","internalType":"address"}],"outputs":[],"stateMutability":"payable"},{"type":"function","name":"equipAccessory","inputs":[{"name":"_peterTokenId","type":"uint256","internalType":"uint256"},{"name":"_traitTokenId","type":"uint256","internalType":"uint256"}],"outputs":[],"stateMutability":"nonpayable"},{"type":"function","name":"equipAll","inputs":[{"name":"_peterTokenId","type":"uint256","internalType":"uint256"},{"name":"_headTokenId","type":"uint256","internalType":"uint256"},{"name":"_hairTokenId","type":"uint256","internalType":"uint256"},{"name":"_faceTokenId","type":"uint256","internalType":"uint256"},{"name":"_accessoryTokenId","type":"uint256","internalType":"uint256"},{"name":"_topTokenId","type":"uint256","internalType":"uint256"},{"name":"_bottomTokenId","type":"uint256","internalType":"uint256"},{"name":"_shoesTokenId","type":"uint256","internalType":"uint256"}],"outputs":[],"stateMutability":"nonpayable"},{"type":"function","name":"equipBottom","inputs":[{"name":"_peterTokenId","type":"uint256","internalType":"uint256"},{"name":"_traitTokenId","type":"uint256","internalType":"uint256"}],"outputs":[],"stateMutability":"nonpayable"},{"type":"function","name":"equipFace","inputs":[{"name":"_peterTokenId","type":"uint256","internalType":"uint256"},{"name":"_traitTokenId","type":"uint256","internalType":"uint256"}],"outputs":[],"stateMutability":"nonpayable"},{"type":"function","name":"equipHair","inputs":[{"name":"_peterTokenId","type":"uint256","internalType":"uint256"},{"name":"_traitTokenId","type":"uint256","internalType":"uint256"}],"outputs":[],"stateMutability":"nonpayable"},{"type":"function","name":"equipHead","inputs":[{"name":"_peterTokenId","type":"uint256","internalType":"uint256"},{"name":"_traitTokenId","type":"uint256","internalType":"uint256"}],"outputs":[],"stateMutability":"nonpayable"},{"type":"function","name":"equipShoes","inputs":[{"name":"_peterTokenId","type":"uint256","internalType":"uint256"},{"name":"_traitTokenId","type":"uint256","internalType":"uint256"}],"outputs":[],"stateMutability":"nonpayable"},{"type":"function","name":"equipTop","inputs":[{"name":"_peterTokenId","type":"uint256","internalType":"uint256"},{"name":"_traitTokenId","type":"uint256","internalType":"uint256"}],"outputs":[],"stateMutability":"nonpayable"},{"type":"function","name":"firstSeasonRenderMinter","inputs":[],"outputs":[{"name":"","type":"address","internalType":"contract FirstSeasonRenderMinter"}],"stateMutability":"view"},{"type":"function","name":"getApproved","inputs":[{"name":"tokenId","type":"uint256","internalType":"uint256"}],"outputs":[{"name":"","type":"address","internalType":"address"}],"stateMutability":"view"},{"type":"function","name":"getBackpackSVGs","inputs":[{"name":"_tokenId","type":"uint256","internalType":"uint256"}],"outputs":[{"name":"backpackSVGs","type":"string","internalType":"string"}],"stateMutability":"view"},{"type":"function","name":"getBodyImage","inputs":[{"name":"colorMap","type":"bytes","internalType":"bytes"}],"outputs":[{"name":"","type":"bytes","internalType":"bytes"}],"stateMutability":"pure"},{"type":"function","name":"getBodyImageSvg","inputs":[{"name":"_index","type":"uint256","internalType":"uint256"}],"outputs":[{"name":"svg","type":"string","internalType":"string"}],"stateMutability":"view"},{"type":"function","name":"getBodySVGZmapsAndMetadata","inputs":[{"name":"storedPeter","type":"tuple","internalType":"struct IPeterStorage.StoredPeter","components":[{"name":"headId","type":"uint256","internalType":"uint256"},{"name":"hairId","type":"uint256","internalType":"uint256"},{"name":"faceId","type":"uint256","internalType":"uint256"},{"name":"accessoryId","type":"uint256","internalType":"uint256"},{"name":"topId","type":"uint256","internalType":"uint256"},{"name":"bottomId","type":"uint256","internalType":"uint256"},{"name":"shoesId","type":"uint256","internalType":"uint256"},{"name":"epoch","type":"uint32","internalType":"uint32"},{"name":"tokenId","type":"uint256","internalType":"uint256"},{"name":"bodyIndex","type":"uint8","internalType":"uint8"},{"name":"backgroundColor","type":"string","internalType":"string"},{"name":"renderZ","type":"bool","internalType":"bool"}]}],"outputs":[{"name":"","type":"string","internalType":"string"},{"name":"","type":"bytes","internalType":"bytes"},{"name":"","type":"string","internalType":"string"}],"stateMutability":"view"},{"type":"function","name":"getBodySvgAndMetadata","inputs":[{"name":"storedPeter","type":"tuple","internalType":"struct IPeterStorage.StoredPeter","components":[{"name":"headId","type":"uint256","internalType":"uint256"},{"name":"hairId","type":"uint256","internalType":"uint256"},{"name":"faceId","type":"uint256","internalType":"uint256"},{"name":"accessoryId","type":"uint256","internalType":"uint256"},{"name":"topId","type":"uint256","internalType":"uint256"},{"name":"bottomId","type":"uint256","internalType":"uint256"},{"name":"shoesId","type":"uint256","internalType":"uint256"},{"name":"epoch","type":"uint32","internalType":"uint32"},{"name":"tokenId","type":"uint256","internalType":"uint256"},{"name":"bodyIndex","type":"uint8","internalType":"uint8"},{"name":"backgroundColor","type":"string","internalType":"string"},{"name":"renderZ","type":"bool","internalType":"bool"}]}],"outputs":[{"name":"","type":"string","internalType":"string"},{"name":"","type":"string","internalType":"string"}],"stateMutability":"view"},{"type":"function","name":"getBodyZMap","inputs":[{"name":"_tokenId","type":"uint256","internalType":"uint256"}],"outputs":[{"name":"","type":"string","internalType":"string"}],"stateMutability":"view"},{"type":"function","name":"getFullPictureForTrait","inputs":[{"name":"_chonkTraitTokenId","type":"uint256","internalType":"uint256"}],"outputs":[{"name":"traitOwnerTBA","type":"address","internalType":"address"},{"name":"chonkTokenId","type":"uint256","internalType":"uint256"},{"name":"chonkOwner","type":"address","internalType":"address"}],"stateMutability":"view"},{"type":"function","name":"getOwnerAndTBAAddressForChonkId","inputs":[{"name":"_chonkId","type":"uint256","internalType":"uint256"}],"outputs":[{"name":"owner","type":"address","internalType":"address"},{"name":"tbaAddress","type":"address","internalType":"address"}],"stateMutability":"view"},{"type":"function","name":"getPeter","inputs":[{"name":"_tokenId","type":"uint256","internalType":"uint256"}],"outputs":[{"name":"","type":"tuple","internalType":"struct IPeterStorage.StoredPeter","components":[{"name":"headId","type":"uint256","internalType":"uint256"},{"name":"hairId","type":"uint256","internalType":"uint256"},{"name":"faceId","type":"uint256","internalType":"uint256"},{"name":"accessoryId","type":"uint256","internalType":"uint256"},{"name":"topId","type":"uint256","internalType":"uint256"},{"name":"bottomId","type":"uint256","internalType":"uint256"},{"name":"shoesId","type":"uint256","internalType":"uint256"},{"name":"epoch","type":"uint32","internalType":"uint32"},{"name":"tokenId","type":"uint256","internalType":"uint256"},{"name":"bodyIndex","type":"uint8","internalType":"uint8"},{"name":"backgroundColor","type":"string","internalType":"string"},{"name":"renderZ","type":"bool","internalType":"bool"}]}],"stateMutability":"view"},{"type":"function","name":"getPeterZMap","inputs":[{"name":"_tokenId","type":"uint256","internalType":"uint256"}],"outputs":[{"name":"","type":"string","internalType":"string"}],"stateMutability":"view"},{"type":"function","name":"getTBAAddressForChonkId","inputs":[{"name":"_chonkId","type":"uint256","internalType":"uint256"}],"outputs":[{"name":"","type":"address","internalType":"address"}],"stateMutability":"view"},{"type":"function","name":"getTokenRenderZ","inputs":[{"name":"_peterTokenId","type":"uint256","internalType":"uint256"}],"outputs":[{"name":"","type":"bool","internalType":"bool"}],"stateMutability":"view"},{"type":"function","name":"getTraitTokens","inputs":[{"name":"_tbaAddress","type":"address","internalType":"address"}],"outputs":[{"name":"","type":"uint256[]","internalType":"uint256[]"}],"stateMutability":"view"},{"type":"function","name":"getTraitsForChonkId","inputs":[{"name":"_chonkId","type":"uint256","internalType":"uint256"}],"outputs":[{"name":"traitTokens","type":"uint256[]","internalType":"uint256[]"}],"stateMutability":"view"},{"type":"function","name":"isApprovedForAll","inputs":[{"name":"owner","type":"address","internalType":"address"},{"name":"operator","type":"address","internalType":"address"}],"outputs":[{"name":"","type":"bool","internalType":"bool"}],"stateMutability":"view"},{"type":"function","name":"mainRenderer","inputs":[],"outputs":[{"name":"","type":"address","internalType":"contract MainRenderer"}],"stateMutability":"view"},{"type":"function","name":"marketplace","inputs":[],"outputs":[{"name":"","type":"address","internalType":"contract ChonksMarket"}],"stateMutability":"view"},{"type":"function","name":"mint","inputs":[],"outputs":[],"stateMutability":"payable"},{"type":"function","name":"name","inputs":[],"outputs":[{"name":"","type":"string","internalType":"string"}],"stateMutability":"view"},{"type":"function","name":"owner","inputs":[],"outputs":[{"name":"result","type":"address","internalType":"address"}],"stateMutability":"view"},{"type":"function","name":"ownerOf","inputs":[{"name":"tokenId","type":"uint256","internalType":"uint256"}],"outputs":[{"name":"","type":"address","internalType":"address"}],"stateMutability":"view"},{"type":"function","name":"ownershipHandoverExpiresAt","inputs":[{"name":"pendingOwner","type":"address","internalType":"address"}],"outputs":[{"name":"result","type":"uint256","internalType":"uint256"}],"stateMutability":"view"},{"type":"function","name":"peterMakeover","inputs":[{"name":"_peterTokenId","type":"uint256","internalType":"uint256"},{"name":"_headTokenId","type":"uint256","internalType":"uint256"},{"name":"_hairTokenId","type":"uint256","internalType":"uint256"},{"name":"_faceTokenId","type":"uint256","internalType":"uint256"},{"name":"_accessoryTokenId","type":"uint256","internalType":"uint256"},{"name":"_topTokenId","type":"uint256","internalType":"uint256"},{"name":"_bottomTokenId","type":"uint256","internalType":"uint256"},{"name":"_shoesTokenId","type":"uint256","internalType":"uint256"},{"name":"_bodyIndex","type":"uint8","internalType":"uint8"},{"name":"_backgroundColor","type":"string","internalType":"string"}],"outputs":[],"stateMutability":"nonpayable"},{"type":"function","name":"price","inputs":[],"outputs":[{"name":"","type":"uint256","internalType":"uint256"}],"stateMutability":"view"},{"type":"function","name":"renderAsDataUri","inputs":[{"name":"_tokenId","type":"uint256","internalType":"uint256"}],"outputs":[{"name":"","type":"string","internalType":"string"}],"stateMutability":"view"},{"type":"function","name":"renderAsDataUriSVG","inputs":[{"name":"_tokenId","type":"uint256","internalType":"uint256"}],"outputs":[{"name":"","type":"string","internalType":"string"}],"stateMutability":"view"},{"type":"function","name":"renderAsDataUriZ","inputs":[{"name":"_tokenId","type":"uint256","internalType":"uint256"}],"outputs":[{"name":"","type":"string","internalType":"string"}],"stateMutability":"view"},{"type":"function","name":"renounceOwnership","inputs":[],"outputs":[],"stateMutability":"payable"},{"type":"function","name":"requestOwnershipHandover","inputs":[],"outputs":[],"stateMutability":"payable"},{"type":"function","name":"safeTransferFrom","inputs":[{"name":"from","type":"address","internalType":"address"},{"name":"to","type":"address","internalType":"address"},{"name":"tokenId","type":"uint256","internalType":"uint256"}],"outputs":[],"stateMutability":"nonpayable"},{"type":"function","name":"safeTransferFrom","inputs":[{"name":"from","type":"address","internalType":"address"},{"name":"to","type":"address","internalType":"address"},{"name":"tokenId","type":"uint256","internalType":"uint256"},{"name":"data","type":"bytes","internalType":"bytes"}],"outputs":[],"stateMutability":"nonpayable"},{"type":"function","name":"setApprovalForAll","inputs":[{"name":"operator","type":"address","internalType":"address"},{"name":"approved","type":"bool","internalType":"bool"}],"outputs":[],"stateMutability":"nonpayable"},{"type":"function","name":"setBackgroundColor","inputs":[{"name":"_peterTokenId","type":"uint256","internalType":"uint256"},{"name":"_color","type":"string","internalType":"string"}],"outputs":[],"stateMutability":"nonpayable"},{"type":"function","name":"setBodyIndex","inputs":[{"name":"_peterTokenId","type":"uint256","internalType":"uint256"},{"name":"_bodyIndex","type":"uint8","internalType":"uint8"}],"outputs":[],"stateMutability":"nonpayable"},{"type":"function","name":"setFirstSeasonRenderMinter","inputs":[{"name":"_dataContract","type":"address","internalType":"address"}],"outputs":[],"stateMutability":"nonpayable"},{"type":"function","name":"setMainRenderer","inputs":[{"name":"_mainRenderer","type":"address","internalType":"address"}],"outputs":[],"stateMutability":"nonpayable"},{"type":"function","name":"setMarketplace","inputs":[{"name":"_marketplace","type":"address","internalType":"address"}],"outputs":[],"stateMutability":"nonpayable"},{"type":"function","name":"setMaxTraitsToOutput","inputs":[{"name":"_maxTraitsToOutput","type":"uint256","internalType":"uint256"}],"outputs":[],"stateMutability":"nonpayable"},{"type":"function","name":"setPrice","inputs":[{"name":"_priceInWei","type":"uint256","internalType":"uint256"}],"outputs":[],"stateMutability":"nonpayable"},{"type":"function","name":"setSystemAddress","inputs":[{"name":"_systemAddress","type":"address","internalType":"address"}],"outputs":[],"stateMutability":"nonpayable"},{"type":"function","name":"setTokenRenderZ","inputs":[{"name":"_peterTokenId","type":"uint256","internalType":"uint256"},{"name":"_renderZ","type":"bool","internalType":"bool"}],"outputs":[],"stateMutability":"nonpayable"},{"type":"function","name":"setTraitsContract","inputs":[{"name":"_address","type":"address","internalType":"contract PeterTraits"}],"outputs":[],"stateMutability":"nonpayable"},{"type":"function","name":"setZRenderer","inputs":[{"name":"_zRenderer","type":"address","internalType":"address"}],"outputs":[],"stateMutability":"nonpayable"},{"type":"function","name":"supportsInterface","inputs":[{"name":"interfaceId","type":"bytes4","internalType":"bytes4"}],"outputs":[{"name":"","type":"bool","internalType":"bool"}],"stateMutability":"view"},{"type":"function","name":"symbol","inputs":[],"outputs":[{"name":"","type":"string","internalType":"string"}],"stateMutability":"view"},{"type":"function","name":"tbaAddressToTokenId","inputs":[{"name":"","type":"address","internalType":"address"}],"outputs":[{"name":"","type":"uint256","internalType":"uint256"}],"stateMutability":"view"},{"type":"function","name":"tokenByIndex","inputs":[{"name":"index","type":"uint256","internalType":"uint256"}],"outputs":[{"name":"","type":"uint256","internalType":"uint256"}],"stateMutability":"view"},{"type":"function","name":"tokenIdToTBAAccountAddress","inputs":[{"name":"","type":"uint256","internalType":"uint256"}],"outputs":[{"name":"","type":"address","internalType":"address"}],"stateMutability":"view"},{"type":"function","name":"tokenOfOwnerByIndex","inputs":[{"name":"owner","type":"address","internalType":"address"},{"name":"index","type":"uint256","internalType":"uint256"}],"outputs":[{"name":"","type":"uint256","internalType":"uint256"}],"stateMutability":"view"},{"type":"function","name":"tokenURI","inputs":[{"name":"_tokenId","type":"uint256","internalType":"uint256"}],"outputs":[{"name":"","type":"string","internalType":"string"}],"stateMutability":"view"},{"type":"function","name":"totalSupply","inputs":[],"outputs":[{"name":"","type":"uint256","internalType":"uint256"}],"stateMutability":"view"},{"type":"function","name":"traitsContract","inputs":[],"outputs":[{"name":"","type":"address","internalType":"contract PeterTraits"}],"stateMutability":"view"},{"type":"function","name":"transferFrom","inputs":[{"name":"from","type":"address","internalType":"address"},{"name":"to","type":"address","internalType":"address"},{"name":"tokenId","type":"uint256","internalType":"uint256"}],"outputs":[],"stateMutability":"nonpayable"},{"type":"function","name":"transferOwnership","inputs":[{"name":"newOwner","type":"address","internalType":"address"}],"outputs":[],"stateMutability":"payable"},{"type":"function","name":"unequipAccessory","inputs":[{"name":"_peterTokenId","type":"uint256","internalType":"uint256"}],"outputs":[],"stateMutability":"nonpayable"},{"type":"function","name":"unequipAll","inputs":[{"name":"_peterTokenId","type":"uint256","internalType":"uint256"}],"outputs":[],"stateMutability":"nonpayable"},{"type":"function","name":"unequipBottom","inputs":[{"name":"_peterTokenId","type":"uint256","internalType":"uint256"}],"outputs":[],"stateMutability":"nonpayable"},{"type":"function","name":"unequipFace","inputs":[{"name":"_peterTokenId","type":"uint256","internalType":"uint256"}],"outputs":[],"stateMutability":"nonpayable"},{"type":"function","name":"unequipHair","inputs":[{"name":"_peterTokenId","type":"uint256","internalType":"uint256"}],"outputs":[],"stateMutability":"nonpayable"},{"type":"function","name":"unequipHead","inputs":[{"name":"_peterTokenId","type":"uint256","internalType":"uint256"}],"outputs":[],"stateMutability":"nonpayable"},{"type":"function","name":"unequipShoes","inputs":[{"name":"_peterTokenId","type":"uint256","internalType":"uint256"}],"outputs":[],"stateMutability":"nonpayable"},{"type":"function","name":"unequipTop","inputs":[{"name":"_peterTokenId","type":"uint256","internalType":"uint256"}],"outputs":[],"stateMutability":"nonpayable"},{"type":"function","name":"walletOfOwner","inputs":[{"name":"_owner","type":"address","internalType":"address"}],"outputs":[{"name":"","type":"uint256[]","internalType":"uint256[]"}],"stateMutability":"view"},{"type":"function","name":"zRenderer","inputs":[],"outputs":[{"name":"","type":"address","internalType":"contract ZRenderer"}],"stateMutability":"view"},{"type":"event","name":"Approval","inputs":[{"name":"owner","type":"address","indexed":true,"internalType":"address"},{"name":"approved","type":"address","indexed":true,"internalType":"address"},{"name":"tokenId","type":"uint256","indexed":true,"internalType":"uint256"}],"anonymous":false},{"type":"event","name":"ApprovalForAll","inputs":[{"name":"owner","type":"address","indexed":true,"internalType":"address"},{"name":"operator","type":"address","indexed":true,"internalType":"address"},{"name":"approved","type":"bool","indexed":false,"internalType":"bool"}],"anonymous":false},{"type":"event","name":"BackgroundColor","inputs":[{"name":"owner","type":"address","indexed":true,"internalType":"address"},{"name":"tokenId","type":"uint256","indexed":true,"internalType":"uint256"},{"name":"color","type":"string","indexed":false,"internalType":"string"}],"anonymous":false},{"type":"event","name":"BatchMetadataUpdate","inputs":[{"name":"_fromTokenId","type":"uint256","indexed":false,"internalType":"uint256"},{"name":"_toTokenId","type":"uint256","indexed":false,"internalType":"uint256"}],"anonymous":false},{"type":"event","name":"BodyIndex","inputs":[{"name":"owner","type":"address","indexed":true,"internalType":"address"},{"name":"tokenId","type":"uint256","indexed":true,"internalType":"uint256"},{"name":"_bodyIndex","type":"uint8","indexed":false,"internalType":"uint8"}],"anonymous":false},{"type":"event","name":"Equip","inputs":[{"name":"owner","type":"address","indexed":true,"internalType":"address"},{"name":"tokenId","type":"uint256","indexed":true,"internalType":"uint256"},{"name":"traitTokenId","type":"uint256","indexed":true,"internalType":"uint256"},{"name":"traitCategory","type":"string","indexed":false,"internalType":"string"}],"anonymous":false},{"type":"event","name":"EquipAll","inputs":[{"name":"owner","type":"address","indexed":true,"internalType":"address"},{"name":"tokenId","type":"uint256","indexed":true,"internalType":"uint256"}],"anonymous":false},{"type":"event","name":"MetadataUpdate","inputs":[{"name":"_tokenId","type":"uint256","indexed":false,"internalType":"uint256"}],"anonymous":false},{"type":"event","name":"Mint","inputs":[{"name":"owner","type":"address","indexed":true,"internalType":"address"},{"name":"tokenId","type":"uint256","indexed":true,"internalType":"uint256"}],"anonymous":false},{"type":"event","name":"OwnershipHandoverCanceled","inputs":[{"name":"pendingOwner","type":"address","indexed":true,"internalType":"address"}],"anonymous":false},{"type":"event","name":"OwnershipHandoverRequested","inputs":[{"name":"pendingOwner","type":"address","indexed":true,"internalType":"address"}],"anonymous":false},{"type":"event","name":"OwnershipTransferred","inputs":[{"name":"oldOwner","type":"address","indexed":true,"internalType":"address"},{"name":"newOwner","type":"address","indexed":true,"internalType":"address"}],"anonymous":false},{"type":"event","name":"RenderZ","inputs":[{"name":"owner","type":"address","indexed":true,"internalType":"address"},{"name":"tokenId","type":"uint256","indexed":true,"internalType":"uint256"},{"name":"renderZ","type":"bool","indexed":false,"internalType":"bool"}],"anonymous":false},{"type":"event","name":"Transfer","inputs":[{"name":"from","type":"address","indexed":true,"internalType":"address"},{"name":"to","type":"address","indexed":true,"internalType":"address"},{"name":"tokenId","type":"uint256","indexed":true,"internalType":"uint256"}],"anonymous":false},{"type":"event","name":"Unequip","inputs":[{"name":"owner","type":"address","indexed":true,"internalType":"address"},{"name":"tokenId","type":"uint256","indexed":true,"internalType":"uint256"},{"name":"traitCategory","type":"string","indexed":true,"internalType":"string"}],"anonymous":false},{"type":"event","name":"UnequipAll","inputs":[{"name":"owner","type":"address","indexed":true,"internalType":"address"},{"name":"tokenId","type":"uint256","indexed":true,"internalType":"uint256"}],"anonymous":false},{"type":"error","name":"AlreadyInitialized","inputs":[]},{"type":"error","name":"BodyAlreadyExists","inputs":[]},{"type":"error","name":"CantTransfer","inputs":[]},{"type":"error","name":"CantTransferToTBAs","inputs":[]},{"type":"error","name":"FirstSeasonRenderMinterNotSet","inputs":[]},{"type":"error","name":"IncorrectPeterOwner","inputs":[]},{"type":"error","name":"IncorrectTBAOwner","inputs":[]},{"type":"error","name":"IncorrectTraitType","inputs":[]},{"type":"error","name":"InvalidBodyIndex","inputs":[]},{"type":"error","name":"InvalidColor","inputs":[]},{"type":"error","name":"InvalidLevelAmount","inputs":[]},{"type":"error","name":"InvalidSignature","inputs":[]},{"type":"error","name":"NewOwnerIsZeroAddress","inputs":[]},{"type":"error","name":"NoHandoverRequest","inputs":[]},{"type":"error","name":"NonceAlreadyUsed","inputs":[]},{"type":"error","name":"PeterDoesntExist","inputs":[]},{"type":"error","name":"Unauthorized","inputs":[]}],"bytecode":{"object":"0x608060405260636014553480156200001657600080fd5b50604051620066b3380380620066b3833981016040819052620000399162000100565b6040518060400160405280600a81526020016914195d195c8815195cdd60b21b815250604051806040016040528060058152602001642822aa22a960d91b81525081600090816200008b9190620001d2565b5060016200009a8282620001d2565b50506001600a5550620000ad33620000c4565b600b805460ff19169115159190911790556200029e565b6001600160a01b0316638b78c6d8198190558060007f8be0079c531659141344cd1fd0a4f28419497f9722a3daafe3b4186f6b6457e08180a350565b6000602082840312156200011357600080fd5b815180151581146200012457600080fd5b9392505050565b634e487b7160e01b600052604160045260246000fd5b600181811c908216806200015657607f821691505b6020821081036200017757634e487b7160e01b600052602260045260246000fd5b50919050565b601f821115620001cd576000816000526020600020601f850160051c81016020861015620001a85750805b601f850160051c820191505b81811015620001c957828155600101620001b4565b5050505b505050565b81516001600160401b03811115620001ee57620001ee6200012b565b6200020681620001ff845462000141565b846200017d565b602080601f8311600181146200023e5760008415620002255750858301515b600019600386901b1c1916600185901b178555620001c9565b600085815260208120601f198616915b828110156200026f578886015182559484019460019091019084016200024e565b50858210156200028e5787850151600019600388901b60f8161c191681555b5050505050600190811b01905550565b61640580620002ae6000396000f3fe60806040526004361061049f5760003560e01c806370a0823111610260578063a1d6268011610144578063d5b55c8b116100c1578063f04e283e11610085578063f04e283e14610efd578063f18dc22d14610f10578063f2361e2314610f30578063f2fde38b14610f50578063f6a0c93214610f63578063fee81cf414610f9957600080fd5b8063d5b55c8b14610e34578063d68c4f3214610e54578063e140554014610e74578063e37db3c214610e94578063e985e9c514610eb457600080fd5b8063b28fbe4011610108578063b28fbe4014610d87578063b88d4fde14610da7578063be928ff614610dc7578063c093afdb14610df4578063c87b56dd14610e1457600080fd5b8063a1d6268014610ccc578063a22cb46514610cec578063a23830ae14610d0c578063a4bf9a0014610d3a578063abc8c7af14610d6757600080fd5b806392012f08116101dd5780639c05d68d116101a15780639c05d68d14610c0b5780639c76201514610c415780639c7be2f114610c615780639f6e463714610c76578063a035b1fe14610c96578063a15c561b14610cac57600080fd5b806392012f0814610b6757806393ccba7214610b9657806394cbd9c414610bb657806395d89b4114610bd6578063998cfb6e14610beb57600080fd5b80638200ea51116102245780638200ea5114610abb5780638aa1e4c814610aee5780638da5cb5b14610b0e578063916c546b14610b2757806391b7f5ed14610b4757600080fd5b806370a0823114610a33578063715018a614610a5357806373ad6c2d14610a5b5780637557f2dc14610a7b5780637afe8d3414610a9b57600080fd5b80632f745c59116103875780634f6ccce7116103045780635eabd84a116102c85780635eabd84a1461094957806360b77b23146109695780636273ca2c146109895780636352211e146109a957806366704349146109c957806366b89b5a14610a1357600080fd5b80634f6ccce7146108c157806354d1f13d146108e157806355737f35146108e957806358180d351461090957806358a976401461092957600080fd5b806342842e0e1161034b57806342842e0e14610814578063438b63001461083457806345a10d0f146108615780634a4333a3146108815780634ddb3961146108a157600080fd5b80632f745c59146107745780633044825b14610794578063306c7334146107b457806333d3d9bf146107d4578063347bd8f4146107f457600080fd5b8063105338e01161042057806318160ddd116103e457806318160ddd146106cd5780631e162a33146106ec57806323b872dd1461070c578063256929621461072c578063293ed3f7146107345780632bd1ca451461075457600080fd5b8063105338e0146106455780631249c58b1461066557806313ea0ae31461066d57806314fe8ff41461068d578063172b054d146106ad57600080fd5b806307f4e0451161046757806307f4e0451461057d578063081812fc1461059d578063095ea7b3146105d55780630c83f9d7146105f55780630f1623201461062557600080fd5b806301ffc9a7146104a457806304003bd0146104d95780630447a45e14610519578063062101971461053b57806306fdde031461055b575b600080fd5b3480156104b057600080fd5b506104c46104bf366004614b89565b610fcc565b60405190151581526020015b60405180910390f35b3480156104e557600080fd5b506104f96104f4366004614ba6565b610fdd565b604080516001600160a01b039384168152929091166020830152016104d0565b34801561052557600080fd5b50610539610534366004614bbf565b61100c565b005b34801561054757600080fd5b50610539610556366004614bf6565b61108e565b34801561056757600080fd5b506105706110b8565b6040516104d09190614c63565b34801561058957600080fd5b50610539610598366004614c8b565b61114a565b3480156105a957600080fd5b506105bd6105b8366004614ba6565b6111c2565b6040516001600160a01b0390911681526020016104d0565b3480156105e157600080fd5b506105396105f0366004614cb7565b6111e9565b34801561060157600080fd5b50610615610610366004614ba6565b611303565b6040516104d09493929190614ce3565b34801561063157600080fd5b50610539610640366004614bbf565b6114c4565b34801561065157600080fd5b50610539610660366004614ba6565b611535565b6105396115ad565b34801561067957600080fd5b506018546105bd906001600160a01b031681565b34801561069957600080fd5b506105706106a8366004614ba6565b6115b9565b3480156106b957600080fd5b506105396106c8366004614bf6565b611832565b3480156106d957600080fd5b506008545b6040519081526020016104d0565b3480156106f857600080fd5b50610539610707366004614bbf565b61185c565b34801561071857600080fd5b50610539610727366004614d2d565b6118ca565b6105396118fb565b34801561074057600080fd5b5061053961074f366004614ba6565b61194a565b34801561076057600080fd5b5061057061076f366004614ba6565b611981565b34801561078057600080fd5b506106de61078f366004614cb7565b611a45565b3480156107a057600080fd5b506105396107af366004614ba6565b611adb565b3480156107c057600080fd5b506105706107cf366004614ba6565b611b63565b3480156107e057600080fd5b506105396107ef366004614ba6565b611b86565b34801561080057600080fd5b5061053961080f366004614ba6565b611b93565b34801561082057600080fd5b5061053961082f366004614d2d565b611bc4565b34801561084057600080fd5b5061085461084f366004614bf6565b611bdf565b6040516104d09190614d6e565b34801561086d57600080fd5b5061053961087c366004614bbf565b611c76565b34801561088d57600080fd5b5061053961089c366004614db2565b611ce9565b3480156108ad57600080fd5b506105396108bc366004614bf6565b611da2565b3480156108cd57600080fd5b506106de6108dc366004614ba6565b611dcc565b610539611e5f565b3480156108f557600080fd5b506105bd610904366004614bbf565b611e9b565b34801561091557600080fd5b50610539610924366004614ba6565b611ed3565b34801561093557600080fd5b50610539610944366004614bf6565b611f06565b34801561095557600080fd5b50610539610964366004614bf6565b611f30565b34801561097557600080fd5b50610539610984366004614bbf565b611f5a565b34801561099557600080fd5b506105396109a4366004614ba6565b611fcc565b3480156109b557600080fd5b506105bd6109c4366004614ba6565b612050565b3480156109d557600080fd5b506109e96109e4366004614ba6565b6120b0565b604080516001600160a01b03948516815260208101939093529216918101919091526060016104d0565b348015610a1f57600080fd5b506019546105bd906001600160a01b031681565b348015610a3f57600080fd5b506106de610a4e366004614bf6565b612151565b6105396121d7565b348015610a6757600080fd5b50610539610a76366004614bf6565b6121e9565b348015610a8757600080fd5b50610570610a96366004614ba6565b612213565b348015610aa757600080fd5b50610539610ab6366004614ba6565b6124e5565b348015610ac757600080fd5b506104c4610ad6366004614ba6565b6000908152600c60205260409020600b015460ff1690565b348015610afa57600080fd5b506104c4610b09366004614bbf565b612514565b348015610b1a57600080fd5b50638b78c6d819546105bd565b348015610b3357600080fd5b50610570610b42366004614ba6565b612583565b348015610b5357600080fd5b50610539610b62366004614ba6565b6126a7565b348015610b7357600080fd5b50610b87610b82366004614f18565b6126b4565b6040516104d093929190615011565b348015610ba257600080fd5b50610539610bb1366004615054565b612852565b348015610bc257600080fd5b50610539610bd1366004614bbf565b612882565b348015610be257600080fd5b506105706128f3565b348015610bf757600080fd5b50610854610c06366004614bf6565b612902565b348015610c1757600080fd5b506105bd610c26366004614ba6565b6015602052600090815260409020546001600160a01b031681565b348015610c4d57600080fd5b50610539610c5c366004614ba6565b612978565b348015610c6d57600080fd5b506105396129ac565b348015610c8257600080fd5b50610854610c91366004614ba6565b6129d6565b348015610ca257600080fd5b506106de60135481565b348015610cb857600080fd5b50601a546105bd906001600160a01b031681565b348015610cd857600080fd5b50610570610ce7366004614ba6565b6129fa565b348015610cf857600080fd5b50610539610d073660046150f0565b612a2a565b348015610d1857600080fd5b50610d2c610d27366004614f18565b612a39565b6040516104d092919061511c565b348015610d4657600080fd5b506106de610d55366004614bf6565b60166020526000908152604090205481565b348015610d7357600080fd5b506011546105bd906001600160a01b031681565b348015610d9357600080fd5b50610570610da2366004614ba6565b612aa4565b348015610db357600080fd5b50610539610dc236600461514a565b612d2b565b348015610dd357600080fd5b50610de7610de2366004614ba6565b612d63565b6040516104d091906151b5565b348015610e0057600080fd5b506010546105bd906001600160a01b031681565b348015610e2057600080fd5b50610570610e2f366004614ba6565b612f09565b348015610e4057600080fd5b50610539610e4f366004614ba6565b612f4a565b348015610e6057600080fd5b50610539610e6f36600461526d565b612f7c565b348015610e8057600080fd5b50610539610e8f3660046152b3565b61316f565b348015610ea057600080fd5b50610570610eaf3660046152d6565b61320e565b348015610ec057600080fd5b506104c4610ecf36600461530a565b6001600160a01b03918216600090815260056020908152604080832093909416825291909152205460ff1690565b610539610f0b366004614bf6565b6134c0565b348015610f1c57600080fd5b50610539610f2b366004614bbf565b6134fd565b348015610f3c57600080fd5b50610539610f4b366004615343565b61356d565b610539610f5e366004614bf6565b6135ba565b348015610f6f57600080fd5b506105bd610f7e366004614ba6565b6000908152601560205260409020546001600160a01b031690565b348015610fa557600080fd5b506106de610fb4366004614bf6565b63389a75e1600c908152600091909152602090205490565b6000610fd7826135e1565b92915050565b600080610fe983612050565b6000938452601560205260409093205492936001600160a01b0390931692915050565b6110168282613606565b6110218160046136c5565b6000828152600c60205260409020600301819055808261104081612050565b6001600160a01b0316600080516020615eab833981519152604051611082906020808252600990820152684163636573736f727960b81b604082015260600190565b60405180910390a45050565b6110966137c7565b601c80546001600160a01b0319166001600160a01b0392909216919091179055565b6060600080546110c7906153c8565b80601f01602080910402602001604051908101604052809291908181526020018280546110f3906153c8565b80156111405780601f1061111557610100808354040283529160200191611140565b820191906000526020600020905b81548152906001019060200180831161112357829003601f168201915b5050505050905090565b611153826137e2565b6000828152600c60205260409020600b01805460ff19168215151790558161117a81612050565b6001600160a01b03167f0b42132106437554485bc84e473475fc8313b019bfc026285cf6ed57639803b8836040516111b6911515815260200190565b60405180910390a35050565b60006111cd8261381c565b506000908152600460205260409020546001600160a01b031690565b60006111f482612050565b9050806001600160a01b0316836001600160a01b0316036112665760405162461bcd60e51b815260206004820152602160248201527f4552433732313a20617070726f76616c20746f2063757272656e74206f776e656044820152603960f91b60648201526084015b60405180910390fd5b336001600160a01b038216148061128257506112828133610ecf565b6112f45760405162461bcd60e51b815260206004820152603e60248201527f4552433732313a20617070726f76652063616c6c6572206973206e6f7420746f60448201527f6b656e206f776e6572206e6f7220617070726f76656420666f7220616c6c0000606482015260840161125d565b6112fe838361387b565b505050565b600f6020526000908152604090208054600182018054919291611325906153c8565b80601f0160208091040260200160405190810160405280929190818152602001828054611351906153c8565b801561139e5780601f106113735761010080835404028352916020019161139e565b820191906000526020600020905b81548152906001019060200180831161138157829003601f168201915b5050505050908060020180546113b3906153c8565b80601f01602080910402602001604051908101604052809291908181526020018280546113df906153c8565b801561142c5780601f106114015761010080835404028352916020019161142c565b820191906000526020600020905b81548152906001019060200180831161140f57829003601f168201915b505050505090806003018054611441906153c8565b80601f016020809104026020016040519081016040528092919081815260200182805461146d906153c8565b80156114ba5780601f1061148f576101008083540402835291602001916114ba565b820191906000526020600020905b81548152906001019060200180831161149d57829003601f168201915b5050505050905084565b6114ce8282613606565b6114d98160036136c5565b6000828152600c6020526040902060020181905580826114f881612050565b6001600160a01b0316600080516020615eab833981519152604051611082906020808252600490820152634661636560e01b604082015260600190565b61153e816137e2565b6000818152600c60205260408082206001019190915551632430b4b960e11b81526004015b60405180910390208161157583612050565b6001600160a01b03167fe428b1839105819dce5e635ac7e16ed2a43028f6e294bab8655e29acb5dc60bb60405160405180910390a450565b6115b760046138e9565b565b606060006115c6836129d6565b905060006040518060400160405280601b81526020017f3c7376672076696577426f783d223020302031353020313530223e000000000081525090506000604051806040016040528060068152602001651e17b9bb339f60d11b815250905060606000601060009054906101000a90046001600160a01b03166001600160a01b0316635c1ef2566040518163ffffffff1660e01b8152600401600060405180830381865afa15801561167c573d6000803e3d6000fd5b505050506040513d6000823e601f3d908101601f191682016040526116a49190810190615447565b905060006014548651106116ba576014546116bd565b85515b90506040518061054001604052806105058152602001615ecb6105059139826040516020016116ed92919061547b565b604051602081830303815290604052925060005b818110156117d25760105487516000916001600160a01b03169063c7791531908a9085908110611733576117336154d2565b60200260200101516040518263ffffffff1660e01b815260040161175991815260200190565b600060405180830381865afa158015611776573d6000803e3d6000fd5b505050506040513d6000823e601f3d908101601f1916820160405261179e9190810190615447565b9050848782886040516020016117b794939291906154e8565b60408051601f19818403018152919052945050600101611701565b5060145486511115611805578285856040516020016117f39392919061553f565b60405160208183030381529060405292505b82604051602001611816919061565a565b60408051601f1981840301815291905298975050505050505050565b61183a6137c7565b601a80546001600160a01b0319166001600160a01b0392909216919091179055565b6118668282613606565b6118718160016136c5565b6000828152600c60205260409020819055808261188d81612050565b6001600160a01b0316600080516020615eab833981519152604051611082906020808252600490820152631219585960e21b604082015260600190565b6118d43382613c4b565b6118f05760405162461bcd60e51b815260040161125d90615682565b6112fe838383613cc9565b60006202a3006001600160401b03164201905063389a75e1600c5233600052806020600c2055337fdbf36a107da19e49527a7176a1babf963b4b0ff8cde35ee35d6cd8f1f9ac7e1d600080a250565b611953816137e2565b6000818152600c60205260408082206003019190915551684163636573736f727960b81b8152600901611563565b6060806060600061199185612d63565b905061199c816126b4565b5060105460405163bb12d21d60e01b81529195506001600160a01b0316915063bb12d21d906119cf9084906004016151b5565b600060405180830381865afa1580156119ec573d6000803e3d6000fd5b505050506040513d6000823e601f3d908101601f19168201604052611a1491908101906156d0565b50604051909350611a2c915084908490602001615757565b6040516020818303038152906040529350505050919050565b6000611a5083612151565b8210611ab25760405162461bcd60e51b815260206004820152602b60248201527f455243373231456e756d657261626c653a206f776e657220696e646578206f7560448201526a74206f6620626f756e647360a81b606482015260840161125d565b506001600160a01b03919091166000908152600660209081526040808320938352929052205490565b611ae4816137e2565b6000818152600c602052604081208181556001810182905560028101829055600381018290556004810182905560058101829055600681019190915581611b2a81612050565b6001600160a01b03167f46078a2cd4c69c3b4a27bdc69fdfe03d442ebcf405f1a68e9b5df6bc3e24429760405160405180910390a35050565b6060806000611b7184612d63565b9050611b7c816126b4565b5095945050505050565b611b8e6137c7565b601455565b611b9c816137e2565b6000818152600c60205260408082206004019190915551620546f760ec1b8152600301611563565b6112fe83838360405180602001604052806000815250612d2b565b60606000611bec83612151565b90506000816001600160401b03811115611c0857611c08614e07565b604051908082528060200260200182016040528015611c31578160200160208202803683370190505b50905060005b82811015611c6e57611c498582611a45565b828281518110611c5b57611c5b6154d2565b6020908102919091010152600101611c37565b509392505050565b611c808282613606565b611c8b8160066136c5565b6000828152600c602052604090206005018190558082611caa81612050565b6001600160a01b0316600080516020615eab83398151915260405161108290602080825260069082015265426f74746f6d60d01b604082015260600190565b8615611cf957611cf9888861185c565b8515611d0957611d098887612882565b8415611d1957611d1988866114c4565b8315611d2957611d29888561100c565b8215611d3957611d3988846134fd565b8115611d4957611d498883611c76565b8015611d5957611d598882611f5a565b87611d6389612050565b6001600160a01b03167f56680590212b09eb4b72a2eba8801b037ec046dfc754538e924f5bb6a8c4db6c60405160405180910390a35050505050505050565b611daa6137c7565b601980546001600160a01b0319166001600160a01b0392909216919091179055565b6000611dd760085490565b8210611e3a5760405162461bcd60e51b815260206004820152602c60248201527f455243373231456e756d657261626c653a20676c6f62616c20696e646578206f60448201526b7574206f6620626f756e647360a01b606482015260840161125d565b60088281548110611e4d57611e4d6154d2565b90600052602060002001549050919050565b63389a75e1600c523360005260006020600c2055337ffa7b8eab7da67f412cc9575ed43464468f9bfbae89d1675917346ca6d8fe3c92600080a2565b60176020528160005260406000208181548110611eb757600080fd5b6000918252602090912001546001600160a01b03169150829050565b611edc816137e2565b6000818152600c602052604080822060060191909155516453686f657360d81b8152600501611563565b611f0e6137c7565b601880546001600160a01b0319166001600160a01b0392909216919091179055565b611f386137c7565b601080546001600160a01b0319166001600160a01b0392909216919091179055565b611f648282613606565b611f6f8160076136c5565b6000828152600c602052604090206006018190558082611f8e81612050565b6001600160a01b0316600080516020615eab8339815191526040516110829060208082526005908201526453686f657360d81b604082015260600190565b600081815260156020526040908190205460105491516340d097c360e01b81526001600160a01b03918216600482018190529291909116906340d097c3906024016020604051808303816000875af115801561202c573d6000803e3d6000fd5b505050506040513d601f19601f820116820180604052508101906112fe9190615786565b6000818152600260205260408120546001600160a01b031680610fd75760405162461bcd60e51b8152602060048201526018602482015277115490cdcc8c4e881a5b9d985b1a59081d1bdad95b88125160421b604482015260640161125d565b6010546040516331a9108f60e11b815260048101839052600091829182916001600160a01b031690636352211e90602401602060405180830381865afa1580156120fe573d6000803e3d6000fd5b505050506040513d601f19601f82011682018060405250810190612122919061579f565b6001600160a01b038116600090815260166020526040902054909350915061214982612050565b929491935050565b60006001600160a01b0382166121bb5760405162461bcd60e51b815260206004820152602960248201527f4552433732313a2061646472657373207a65726f206973206e6f7420612076616044820152683634b21037bbb732b960b91b606482015260840161125d565b506001600160a01b031660009081526003602052604090205490565b6121df6137c7565b6115b76000613e70565b6121f16137c7565b601180546001600160a01b0319166001600160a01b0392909216919091179055565b606080606080606080606080606061224c6040518060800160405280606081526020016060815260200160608152602001600081525090565b60006122578c612d63565b9050612262816126b4565b60105460405163bb12d21d60e01b8152939d50919a5095506001600160a01b03169063bb12d21d906122989084906004016151b5565b600060405180830381865afa1580156122b5573d6000803e3d6000fd5b505050506040513d6000823e601f3d908101601f191682016040526122dd91908101906156d0565b604051929b5090985095506122f890859087906020016157bc565b6040516020818303038152906040529250878760405160200161231c929190615757565b60408051601f198184030181529190526101408201518352955061233f8c6129d6565b51606083015261012081015160ff166000908152600f60205260409020600101805461236a906153c8565b80601f0160208091040260200160405190810160405280929190818152602001828054612396906153c8565b80156123e35780601f106123b8576101008083540402835291602001916123e3565b820191906000526020600020905b8154815290600101906020018083116123c657829003601f168201915b5050505050826020018190525061240c8c6000908152600c60205260409020600b015460ff1690565b61243057604051806040016040528060028152602001610c9160f21b81525061244c565b604051806040016040528060028152602001610cd160f21b8152505b604080840191909152601a5490516332d01b2560e21b81526001600160a01b039091169063cb406c9490612490908f908e9089908f908c908e908b90600401615880565b600060405180830381865afa1580156124ad573d6000803e3d6000fd5b505050506040513d6000823e601f3d908101601f191682016040526124d59190810190615447565b9c9b505050505050505050505050565b6124ee816137e2565b6000818152600c60205260408082209190915551631219585960e21b8152600401611563565b60008061252084612d63565b80519091508314806125355750828160200151145b806125435750828160400151145b806125515750828160600151145b8061255f5750828160800151145b8061256d5750828160a00151145b8061257b5750828160c00151145b949350505050565b6000818152600f6020526040812060020180546060929161262a916125a7906153c8565b80601f01602080910402602001604051908101604052809291908181526020018280546125d3906153c8565b80156126205780601f106125f557610100808354040283529160200191612620565b820191906000526020600020905b81548152906001019060200180831161260357829003601f168201915b505050505061320e565b6019546040516335b07b7960e11b81529192506001600160a01b031690636b60f6f29061265b908490600401614c63565b600060405180830381865afa158015612678573d6000803e3d6000fd5b505050506040513d6000823e601f3d908101601f191682016040526126a09190810190615447565b9392505050565b6126af6137c7565b601355565b60608060606126ca84610120015160ff16612583565b600f600086610120015160ff1681526020019081526020016000206003016127b960405180604001604052806009815260200168426f6479205479706560b81b815250600f600089610120015160ff1681526020019081526020016000206001018054612736906153c8565b80601f0160208091040260200160405190810160405280929190818152602001828054612762906153c8565b80156127af5780601f10612784576101008083540402835291602001916127af565b820191906000526020600020905b81548152906001019060200180831161279257829003601f168201915b5050505050613eae565b8180546127c5906153c8565b80601f01602080910402602001604051908101604052809291908181526020018280546127f1906153c8565b801561283e5780601f106128135761010080835404028352916020019161283e565b820191906000526020600020905b81548152906001019060200180831161282157829003601f168201915b505050505091509250925092509193909250565b6128628a8a8a8a8a8a8a8a611ce9565b61286c8a8361316f565b6128768a82612f7c565b50505050505050505050565b61288c8282613606565b6128978160026136c5565b6000828152600c6020526040902060010181905580826128b681612050565b6001600160a01b0316600080516020615eab833981519152604051611082906020808252600490820152632430b4b960e11b604082015260600190565b6060600180546110c7906153c8565b60105460405162438b6360e81b81526001600160a01b03838116600483015260609260009291169063438b630090602401600060405180830381865afa158015612950573d6000803e3d6000fd5b505050506040513d6000823e601f3d908101601f191682016040526126a09190810190615909565b612981816137e2565b6000818152600c6020526040808220600501919091555165426f74746f6d60d01b8152600601611563565b600b5460ff16156115b75760005b60058110156129d3576129cb6115ad565b6001016129ba565b50565b6000818152601560205260409020546060906001600160a01b03166126a081612902565b60606000612a0783612d63565b9050806101600151612a2157612a1c83612aa4565b6126a0565b6126a083612213565b612a35338383613eda565b5050565b606080612a4d83610120015160ff16612583565b612a9b60405180604001604052806009815260200168426f6479205479706560b81b815250600f600087610120015160ff1681526020019081526020016000206001018054612736906153c8565b91509150915091565b6060806060806060806000612ab888612d63565b9050612ac381612a39565b601054604051631be5857160e31b81529298509096506001600160a01b03169063df2c2b8890612af79084906004016151b5565b600060405180830381865afa158015612b14573d6000803e3d6000fd5b505050506040513d6000823e601f3d908101601f19168201604052612b3c91908101906159ae565b9094509250612b4a886115b9565b9150612b776040518060800160405280606081526020016060815260200160608152602001600081525090565b6101408201518152612b88896129d6565b51606082015261012082015160ff166000908152600f602052604090206001018054612bb3906153c8565b80601f0160208091040260200160405190810160405280929190818152602001828054612bdf906153c8565b8015612c2c5780601f10612c0157610100808354040283529160200191612c2c565b820191906000526020600020905b815481529060010190602001808311612c0f57829003601f168201915b50505050508160200181905250612c55896000908152600c60205260409020600b015460ff1690565b612c7957604051806040016040528060028152602001610c9160f21b815250612c95565b604051806040016040528060028152602001610cd160f21b8152505b6040808301919091526019549051634e2fa37760e11b81526001600160a01b0390911690639c5f46ee90612cd9908c908b908b908b908b908b908a90600401615880565b600060405180830381865afa158015612cf6573d6000803e3d6000fd5b505050506040513d6000823e601f3d908101601f19168201604052612d1e9190810190615447565b9998505050505050505050565b612d353383613c4b565b612d515760405162461bcd60e51b815260040161125d90615682565b612d5d84848484613fa0565b50505050565b612dd260405180610180016040528060008152602001600081526020016000815260200160008152602001600081526020016000815260200160008152602001600063ffffffff16815260200160008152602001600060ff168152602001606081526020016000151581525090565b6000828152600c60209081526040808320815161018081018352815481526001820154938101939093526002810154918301919091526003810154606083015260048101546080830152600581015460a0830152600681015460c0830152600781015463ffffffff1660e08301526008810154610100830152600981015460ff16610120830152600a8101805461014084019190612e6f906153c8565b80601f0160208091040260200160405190810160405280929190818152602001828054612e9b906153c8565b8015612ee85780601f10612ebd57610100808354040283529160200191612ee8565b820191906000526020600020905b815481529060010190602001808311612ecb57829003601f168201915b5050509183525050600b919091015460ff1615156020909101529392505050565b6000818152600260205260409020546060906001600160a01b0316612f4157604051631a65aaab60e31b815260040160405180910390fd5b610fd7826129fa565b612f53816137e2565b6000818152600c60205260408082206002019190915551634661636560e01b8152600401611563565b612f85826137e2565b8051600003612f92575050565b80518190600614612fb657604051631cf7e9c560e01b815260040160405180910390fd5b60005b600681101561310357603060f81b828281518110612fd957612fd96154d2565b01602001516001600160f81b0319161080159061301a5750603960f81b828281518110613008576130086154d2565b01602001516001600160f81b03191611155b15801561307c5750604160f81b828281518110613039576130396154d2565b01602001516001600160f81b0319161080159061307a5750604660f81b828281518110613068576130686154d2565b01602001516001600160f81b03191611155b155b80156130dd5750606160f81b82828151811061309a5761309a6154d2565b01602001516001600160f81b031916108015906130db5750606660f81b8282815181106130c9576130c96154d2565b01602001516001600160f81b03191611155b155b156130fb57604051631cf7e9c560e01b815260040160405180910390fd5b600101612fb9565b506000838152600c60205260409020600a0161311f8382615a4f565b508261312a84612050565b6001600160a01b03167f2e34f8c0f6052b66319b4a5df14eac164c6af8a0b37f612d4304a777e1ae7a3d846040516131629190614c63565b60405180910390a3505050565b613178826137e2565b60038160ff16111561319d576040516329ba348d60e11b815260040160405180910390fd5b60ff811615612a35576000828152600c60205260409020600901805460ff191660ff8316179055816131ce81612050565b60405160ff841681526001600160a01b0391909116907f454db5768a3f8187a5dd5e9cca100cf699d74d8a03f793d16da3932cdf34d358906020016111b6565b8051606090801580159061322a5750613228600582615b24565b155b6132765760405162461bcd60e51b815260206004820152601960248201527f496e76616c696420626f6479206279746573206c656e67746800000000000000604482015260640161125d565b604080516111948082526111c0820190925260009160208201818036833701905050905060006132a7600584615b4e565b905060005b818110156134b65760006132c1826005615b62565b905060008782815181106132d7576132d76154d2565b016020015160f81c90506000886132ef846001615b79565b815181106132ff576132ff6154d2565b016020015160f81c9050600060ff831661331a83601e615b62565b6133249190615b79565b61332f906005615b62565b9050898481518110613343576133436154d2565b602001015160f81c60f81b878281518110613360576133606154d2565b60200101906001600160f81b031916908160001a90535089846001018151811061338c5761338c6154d2565b602001015160f81c60f81b8782600101815181106133ac576133ac6154d2565b60200101906001600160f81b031916908160001a9053508984600201815181106133d8576133d86154d2565b602001015160f81c60f81b8782600201815181106133f8576133f86154d2565b60200101906001600160f81b031916908160001a905350898460030181518110613424576134246154d2565b602001015160f81c60f81b878260030181518110613444576134446154d2565b60200101906001600160f81b031916908160001a905350898460040181518110613470576134706154d2565b602001015160f81c60f81b878260040181518110613490576134906154d2565b60200101906001600160f81b031916908160001a905350505050508060010190506132ac565b5090949350505050565b6134c86137c7565b63389a75e1600c52806000526020600c2080544211156134f057636f5e88186000526004601cfd5b600090556129d381613e70565b6135078282613606565b6135128160056136c5565b6000828152600c60205260409020600401819055808261353181612050565b6001600160a01b0316600080516020615eab833981519152604051611082906020808252600390820152620546f760ec1b604082015260600190565b6135756137c7565b6000848152600f60205260409020848155600181016135948582615a4f565b50600281016135a38482615a4f565b50600381016135b28382615a4f565b505050505050565b6135c26137c7565b8060601b6135d857637448fbae6000526004601cfd5b6129d381613e70565b60006001600160e01b0319821663780e9d6360e01b1480610fd75750610fd782613fd3565b61360f826137e2565b6000828152601560205260408082205460105491516331a9108f60e11b8152600481018590526001600160a01b0391821693929190911690636352211e90602401602060405180830381865afa15801561366d573d6000803e3d6000fd5b505050506040513d601f19601f82011682018060405250810190613691919061579f565b9050816001600160a01b0316816001600160a01b031614612d5d5760405163e6ca793160e01b815260040160405180910390fd5b60105460405163e8a1268d60e01b8152600481018490526000916001600160a01b03169063e8a1268d90602401602060405180830381865afa15801561370f573d6000803e3d6000fd5b505050506040513d601f19601f820116820180604052508101906137339190615b8c565b905081600781111561374757613747615bad565b60405160200161375991815260200190565b6040516020818303038152906040528051906020012081600781111561378157613781615bad565b60405160200161379391815260200190565b60405160208183030381529060405280519060200120146112fe57604051633e54c6fb60e11b815260040160405180910390fd5b638b78c6d8195433146115b7576382b429006000526004601cfd5b6137eb81612050565b6001600160a01b0316336001600160a01b0316146129d3576040516324adc17160e11b815260040160405180910390fd5b6000818152600260205260409020546001600160a01b03166129d35760405162461bcd60e51b8152602060048201526018602482015277115490cdcc8c4e881a5b9d985b1a59081d1bdad95b88125160421b604482015260640161125d565b600081815260046020526040902080546001600160a01b0319166001600160a01b03841690811790915581906138b082612050565b6001600160a01b03167f8c5be1e5ebec7d5bd14f71427d1e84f3dd0314c0f7b2291e5b200ac8c7c3b92560405160405180910390a45050565b6018546001600160a01b031661391257604051633390ca8960e21b815260040160405180910390fd5b600060126000815461392390615bc3565b918290555090506139343382614023565b604051638a54c52f60e01b81527355266d75d1a14e4572138116af39863ed6596e7f600482015260006024820181905262014a34604483015230606483015260848201839052906f6551c19487814612e58fe0681377575890638a54c52f9060a4016020604051808303816000875af11580156139b5573d6000803e3d6000fd5b505050506040513d601f19601f820116820180604052508101906139d9919061579f565b600083815260156020908152604080832080546001600160a01b0319166001600160a01b038616908117909155808452601690925291829020859055905163189acdbd60e31b81527341c8f39463a868d3a88af00cd0fe7102f30e44ec60048201529192509063c4d66de890602401600060405180830381600087803b158015613a6257600080fd5b505af1158015613a76573d6000803e3d6000fd5b50506018546040516358a2727360e01b81526001600160a01b03858116600483015260ff881660248301526000945090911691506358a27273906044016000604051808303816000875af1158015613ad2573d6000803e3d6000fd5b505050506040513d6000823e601f3d908101601f19168201604052613afa9190810190615909565b6000848152600c6020526040812060088101869055825192935091839190613b2457613b246154d2565b6020026020010151816006018190555081600181518110613b4757613b476154d2565b6020026020010151816005018190555081600281518110613b6a57613b6a6154d2565b6020026020010151816004018190555081600381518110613b8d57613b8d6154d2565b6020908102919091018101516001830155600b8201805460ff19169055604080518083018790528151808203840181529082019091528051910120613bd490600490615b24565b60098201805460ff191660ff929092169190911790556040805180820190915260068152650c110d914e5160d21b6020820152600a820190613c169082615a4f565b50604051849033907f0f6798a560793a54c3bcfe86a93cde1e73087d944c0ea20544137d412139688590600090a35050505050565b600080613c5783612050565b9050806001600160a01b0316846001600160a01b03161480613c9e57506001600160a01b0380821660009081526005602090815260408083209388168352929052205460ff165b8061257b5750836001600160a01b0316613cb7846111c2565b6001600160a01b031614949350505050565b826001600160a01b0316613cdc82612050565b6001600160a01b031614613d405760405162461bcd60e51b815260206004820152602560248201527f4552433732313a207472616e736665722066726f6d20696e636f72726563742060448201526437bbb732b960d91b606482015260840161125d565b6001600160a01b038216613da25760405162461bcd60e51b8152602060048201526024808201527f4552433732313a207472616e7366657220746f20746865207a65726f206164646044820152637265737360e01b606482015260840161125d565b613dad838383614171565b613db860008261387b565b6001600160a01b0383166000908152600360205260408120805460019290613de1908490615bdc565b90915550506001600160a01b0382166000908152600360205260408120805460019290613e0f908490615b79565b909155505060008181526002602052604080822080546001600160a01b0319166001600160a01b0386811691821790925591518493918716917fddf252ad1be2c89b69c2b068fc378daa952ba7f163c4a11628f55a4df523b3ef91a4505050565b638b78c6d81980546001600160a01b039092169182907f8be0079c531659141344cd1fd0a4f28419497f9722a3daafe3b4186f6b6457e0600080a355565b60608282604051602001613ec3929190615bef565b604051602081830303815290604052905092915050565b816001600160a01b0316836001600160a01b031603613f3b5760405162461bcd60e51b815260206004820152601960248201527f4552433732313a20617070726f766520746f2063616c6c657200000000000000604482015260640161125d565b6001600160a01b03838116600081815260056020908152604080832094871680845294825291829020805460ff191686151590811790915591519182527f17307eab39ab6107e8899845ad3d59bd9653f200f220920489ca2b5937696c319101613162565b613fab848484613cc9565b613fb78484848461477f565b612d5d5760405162461bcd60e51b815260040161125d90615c60565b60006001600160e01b031982166380ac58cd60e01b148061400457506001600160e01b03198216635b5e139f60e01b145b80610fd757506301ffc9a760e01b6001600160e01b0319831614610fd7565b6001600160a01b0382166140795760405162461bcd60e51b815260206004820181905260248201527f4552433732313a206d696e7420746f20746865207a65726f2061646472657373604482015260640161125d565b6000818152600260205260409020546001600160a01b0316156140de5760405162461bcd60e51b815260206004820152601c60248201527f4552433732313a20746f6b656e20616c7265616479206d696e74656400000000604482015260640161125d565b6140ea60008383614171565b6001600160a01b0382166000908152600360205260408120805460019290614113908490615b79565b909155505060008181526002602052604080822080546001600160a01b0319166001600160a01b03861690811790915590518392907fddf252ad1be2c89b69c2b068fc378daa952ba7f163c4a11628f55a4df523b3ef908290a45050565b6002600a54036141c35760405162461bcd60e51b815260206004820152601f60248201527f5265656e7472616e637947756172643a207265656e7472616e742063616c6c00604482015260640161125d565b6002600a556001600160a01b0383166141e6576141e1838383614880565b614775565b614208604051806060016040528060348152602001615e776034913982614938565b6001600160a01b0382166000908152601660205260409020541561423f57604051639a42da2960e01b815260040160405180910390fd5b600081815260156020908152604091829020548251808401909352600d83526c16903a3130a0b2323932b9b99d60991b918301919091526001600160a01b03169061428a908261497d565b60105460405162438b6360e81b81526001600160a01b038381166004830152600092169063438b630090602401600060405180830381865afa1580156142d4573d6000803e3d6000fd5b505050506040513d6000823e601f3d908101601f191682016040526142fc9190810190615909565b9050600061430985611bdf565b9050600081516001600160401b0381111561432657614326614e07565b60405190808252806020026020018201604052801561434f578160200160208202803683370190505b50905060005b825181101561443d5760156000848381518110614374576143746154d2565b6020026020010151815260200190815260200160002060009054906101000a90046001600160a01b03168282815181106143b0576143b06154d2565b60200260200101906001600160a01b031690816001600160a01b0316815250506144356040518060400160405280600a81526020016916903a3130b99717171d60b11b8152506015600086858151811061440c5761440c6154d2565b6020908102919091018101518252810191909152604001600020546001600160a01b031661497d565b600101614355565b50601154604051638b32238360e01b8152600481018790526000916001600160a01b031690638b32238390602401600060405180830381865afa158015614488573d6000803e3d6000fd5b505050506040513d6000823e601f3d908101601f191682016040526144b09190810190615cb2565b5091935050506001600160a01b0382161590506144f2576011546001600160a01b031633146144f25760405163bf646b0f60e01b815260040160405180910390fd5b60115460405163644ec52760e01b8152600481018890526001600160a01b039091169063644ec52790602401600060405180830381600087803b15801561453857600080fd5b505af115801561454c573d6000803e3d6000fd5b5050601154604051631e92beb560e31b8152600481018a90526001600160a01b038b81166024830152909116925063f495f5a89150604401600060405180830381600087803b15801561459e57600080fd5b505af11580156145b2573d6000803e3d6000fd5b5050505060005b84518110156147635760008582815181106145d6576145d66154d2565b6020908102919091010151601154604051632e1d274f60e01b8152600481018390529192506001600160a01b031690632e1d274f90602401600060405180830381600087803b15801561462857600080fd5b505af115801561463c573d6000803e3d6000fd5b505060105460408051602480820187905282518083039091018152604490910182526020810180516001600160e01b031663487b1c2160e11b1790529051631d1083d360e21b81526001600160a01b038c811695506374420f4c94506146ab9316916000918290600401615d33565b6000604051808303816000875af11580156146ca573d6000803e3d6000fd5b505050506040513d6000823e601f3d908101601f191682016040526146f29190810190615447565b50601154604051632333520b60e11b81526001600160a01b0390911690634666a416906147259084908890600401615d6b565b600060405180830381600087803b15801561473f57600080fd5b505af1158015614753573d6000803e3d6000fd5b50505050508060010190506145b9565b5061476f888888614880565b50505050505b50506001600a5550565b60006001600160a01b0384163b1561487557604051630a85bd0160e11b81526001600160a01b0385169063150b7a02906147c3903390899088908890600401615dc4565b6020604051808303816000875af19250505080156147fe575060408051601f3d908101601f191682019092526147fb91810190615df7565b60015b61485b573d80801561482c576040519150601f19603f3d011682016040523d82523d6000602084013e614831565b606091505b5080516000036148535760405162461bcd60e51b815260040161125d90615c60565b805181602001fd5b6001600160e01b031916630a85bd0160e11b14905061257b565b506001949350505050565b6001600160a01b0383166148db576148d681600880546000838152600960205260408120829055600182018355919091527ff3f7a9fe364faab93b216da50a3214154f22a0a2b415b23a84c8169e8b636ee30155565b6148fe565b816001600160a01b0316836001600160a01b0316146148fe576148fe83826149c2565b6001600160a01b038216614915576112fe81614a5f565b826001600160a01b0316826001600160a01b0316146112fe576112fe8282614b0e565b612a35828260405160240161494e929190615e14565b60408051601f198184030181529190526020810180516001600160e01b03166309710a9d60e41b179052614b52565b612a358282604051602401614993929190615e36565b60408051601f198184030181529190526020810180516001600160e01b031663319af33360e01b179052614b52565b600060016149cf84612151565b6149d99190615bdc565b600083815260076020526040902054909150808214614a2c576001600160a01b03841660009081526006602090815260408083208584528252808320548484528184208190558352600790915290208190555b5060009182526007602090815260408084208490556001600160a01b039094168352600681528383209183525290812055565b600854600090614a7190600190615bdc565b60008381526009602052604081205460088054939450909284908110614a9957614a996154d2565b906000526020600020015490508060088381548110614aba57614aba6154d2565b6000918252602080832090910192909255828152600990915260408082208490558582528120556008805480614af257614af2615e60565b6001900381819060005260206000200160009055905550505050565b6000614b1983612151565b6001600160a01b039093166000908152600660209081526040808320868452825280832085905593825260079052919091209190915550565b80516a636f6e736f6c652e6c6f67602083016000808483855afa5050505050565b6001600160e01b0319811681146129d357600080fd5b600060208284031215614b9b57600080fd5b81356126a081614b73565b600060208284031215614bb857600080fd5b5035919050565b60008060408385031215614bd257600080fd5b50508035926020909101359150565b6001600160a01b03811681146129d357600080fd5b600060208284031215614c0857600080fd5b81356126a081614be1565b60005b83811015614c2e578181015183820152602001614c16565b50506000910152565b60008151808452614c4f816020860160208601614c13565b601f01601f19169290920160200192915050565b6020815260006126a06020830184614c37565b80358015158114614c8657600080fd5b919050565b60008060408385031215614c9e57600080fd5b82359150614cae60208401614c76565b90509250929050565b60008060408385031215614cca57600080fd5b8235614cd581614be1565b946020939093013593505050565b848152608060208201526000614cfc6080830186614c37565b8281036040840152614d0e8186614c37565b90508281036060840152614d228185614c37565b979650505050505050565b600080600060608486031215614d4257600080fd5b8335614d4d81614be1565b92506020840135614d5d81614be1565b929592945050506040919091013590565b6020808252825182820181905260009190848201906040850190845b81811015614da657835183529284019291840191600101614d8a565b50909695505050505050565b600080600080600080600080610100898b031215614dcf57600080fd5b505086359860208801359850604088013597606081013597506080810135965060a0810135955060c0810135945060e0013592509050565b634e487b7160e01b600052604160045260246000fd5b60405161018081016001600160401b0381118282101715614e4057614e40614e07565b60405290565b604051601f8201601f191681016001600160401b0381118282101715614e6e57614e6e614e07565b604052919050565b803563ffffffff81168114614c8657600080fd5b803560ff81168114614c8657600080fd5b60006001600160401b03821115614eb457614eb4614e07565b50601f01601f191660200190565b600082601f830112614ed357600080fd5b8135614ee6614ee182614e9b565b614e46565b818152846020838601011115614efb57600080fd5b816020850160208301376000918101602001919091529392505050565b600060208284031215614f2a57600080fd5b81356001600160401b0380821115614f4157600080fd5b908301906101808286031215614f5657600080fd5b614f5e614e1d565b823581526020830135602082015260408301356040820152606083013560608201526080830135608082015260a083013560a082015260c083013560c0820152614faa60e08401614e76565b60e08201526101008381013590820152610120614fc8818501614e8a565b908201526101408381013583811115614fe057600080fd5b614fec88828701614ec2565b8284015250506101609150615002828401614c76565b91810191909152949350505050565b6060815260006150246060830186614c37565b82810360208401526150368186614c37565b9050828103604084015261504a8185614c37565b9695505050505050565b6000806000806000806000806000806101408b8d03121561507457600080fd5b8a35995060208b0135985060408b0135975060608b0135965060808b0135955060a08b0135945060c08b0135935060e08b013592506150b66101008c01614e8a565b91506101208b01356001600160401b038111156150d257600080fd5b6150de8d828e01614ec2565b9150509295989b9194979a5092959850565b6000806040838503121561510357600080fd5b823561510e81614be1565b9150614cae60208401614c76565b60408152600061512f6040830185614c37565b82810360208401526151418185614c37565b95945050505050565b6000806000806080858703121561516057600080fd5b843561516b81614be1565b9350602085013561517b81614be1565b92506040850135915060608501356001600160401b0381111561519d57600080fd5b6151a987828801614ec2565b91505092959194509250565b6020815281516020820152602082015160408201526040820151606082015260608201516080820152608082015160a082015260a082015160c082015260c082015160e0820152600060e08301516101006152178185018363ffffffff169052565b84015161012084810191909152840151905061014061523a8185018360ff169052565b80850151915050610180610160818186015261525a6101a0860184614c37565b90860151801515838701529092506134b6565b6000806040838503121561528057600080fd5b8235915060208301356001600160401b0381111561529d57600080fd5b6152a985828601614ec2565b9150509250929050565b600080604083850312156152c657600080fd5b82359150614cae60208401614e8a565b6000602082840312156152e857600080fd5b81356001600160401b038111156152fe57600080fd5b61257b84828501614ec2565b6000806040838503121561531d57600080fd5b823561532881614be1565b9150602083013561533881614be1565b809150509250929050565b6000806000806080858703121561535957600080fd5b8435935060208501356001600160401b038082111561537757600080fd5b61538388838901614ec2565b9450604087013591508082111561539957600080fd5b6153a588838901614ec2565b935060608701359150808211156153bb57600080fd5b506151a987828801614ec2565b600181811c908216806153dc57607f821691505b6020821081036153fc57634e487b7160e01b600052602260045260246000fd5b50919050565b600082601f83011261541357600080fd5b8151615421614ee182614e9b565b81815284602083860101111561543657600080fd5b61257b826020830160208701614c13565b60006020828403121561545957600080fd5b81516001600160401b0381111561546f57600080fd5b61257b84828501615402565b6000835161548d818460208801614c13565b8351908301906154a1818360208801614c13565b7f3c672069643d226261636b7061636b547261697473223e0000000000000000009101908152601701949350505050565b634e487b7160e01b600052603260045260246000fd5b600085516154fa818460208a01614c13565b85519083019061550e818360208a01614c13565b8551910190615521818360208901614c13565b8451910190615534818360208801614c13565b019695505050505050565b60008451615551818460208901614c13565b845190830190615565818360208901614c13565b8082019150507f3c672069643d224d6f7265547261697473223e3c72656374207374796c653d2281527f77696474683a313070783b206865696768743a3270783b2220783d223130222060208201527f793d223136222066696c6c3d2223666666666666223e3c2f726563743e3c726560408201527f6374207374796c653d226865696768743a313070783b2077696474683a32707860608201527f3b2220783d2231342220793d223132222066696c6c3d2223666666666666223e60808201526a1e17b932b1ba1f1e17b39f60a91b60a0820152835161564d8160ab840160208801614c13565b0160ab0195945050505050565b6000825161566c818460208701614c13565b631e17b39f60e11b920191825250600401919050565b6020808252602e908201527f4552433732313a2063616c6c6572206973206e6f7420746f6b656e206f776e6560408201526d1c881b9bdc88185c1c1c9bdd995960921b606082015260800190565b6000806000606084860312156156e557600080fd5b83516001600160401b03808211156156fc57600080fd5b61570887838801615402565b9450602086015191508082111561571e57600080fd5b61572a87838801615402565b9350604086015191508082111561574057600080fd5b5061574d86828701615402565b9150509250925092565b60008351615769818460208801614c13565b83519083019061577d818360208801614c13565b01949350505050565b60006020828403121561579857600080fd5b5051919050565b6000602082840312156157b157600080fd5b81516126a081614be1565b6d2261747472696275746573223a5b60901b815282516000906157e681600e850160208801614c13565b600b60fa1b600e91840191820152835161580781600f840160208801614c13565b605d60f81b600f9290910191820152601001949350505050565b60008151608084526158366080850182614c37565b90506020830151848203602086015261584f8282614c37565b915050604083015184820360408601526158698282614c37565b915050606083015160608501528091505092915050565b87815260e06020820152600061589960e0830189614c37565b82810360408401526158ab8189614c37565b905082810360608401526158bf8188614c37565b905082810360808401526158d38187614c37565b905082810360a08401526158e78186614c37565b905082810360c08401526158fb8185615821565b9a9950505050505050505050565b6000602080838503121561591c57600080fd5b82516001600160401b038082111561593357600080fd5b818501915085601f83011261594757600080fd5b81518181111561595957615959614e07565b8060051b915061596a848301614e46565b818152918301840191848101908884111561598457600080fd5b938501935b838510156159a257845182529385019390850190615989565b98975050505050505050565b600080604083850312156159c157600080fd5b82516001600160401b03808211156159d857600080fd5b6159e486838701615402565b935060208501519150808211156159fa57600080fd5b506152a985828601615402565b601f8211156112fe576000816000526020600020601f850160051c81016020861015615a305750805b601f850160051c820191505b818110156135b257828155600101615a3c565b81516001600160401b03811115615a6857615a68614e07565b615a7c81615a7684546153c8565b84615a07565b602080601f831160018114615ab15760008415615a995750858301515b600019600386901b1c1916600185901b1785556135b2565b600085815260208120601f198616915b82811015615ae057888601518255948401946001909101908401615ac1565b5085821015615afe5787850151600019600388901b60f8161c191681555b5050505050600190811b01905550565b634e487b7160e01b600052601260045260246000fd5b600082615b3357615b33615b0e565b500690565b634e487b7160e01b600052601160045260246000fd5b600082615b5d57615b5d615b0e565b500490565b8082028115828204841417610fd757610fd7615b38565b80820180821115610fd757610fd7615b38565b600060208284031215615b9e57600080fd5b8151600881106126a057600080fd5b634e487b7160e01b600052602160045260246000fd5b600060018201615bd557615bd5615b38565b5060010190565b81810381811115610fd757610fd7615b38565b6e3d913a3930b4ba2fba3cb832911d1160891b81528251600090615c1a81600f850160208801614c13565b6a1116113b30b63ab2911d1160a91b600f918401918201528351615c4581601a840160208801614c13565b61227d60f01b601a9290910191820152601c01949350505050565b60208082526032908201527f4552433732313a207472616e7366657220746f206e6f6e20455243373231526560408201527131b2b4bb32b91034b6b83632b6b2b73a32b960711b606082015260800190565b600080600080600060a08688031215615cca57600080fd5b855194506020860151615cdc81614be1565b6040870151909450615ced81614be1565b6060870151909350615cfe81614be1565b60808701519092506001600160401b03811115615d1a57600080fd5b615d2688828901615402565b9150509295509295909350565b60018060a01b0385168152836020820152608060408201526000615d5a6080830185614c37565b905082606083015295945050505050565b60006040820184835260206040602085015281855180845260608601915060208701935060005b81811015615db75784516001600160a01b031683529383019391830191600101615d92565b5090979650505050505050565b6001600160a01b038581168252841660208201526040810183905260806060820181905260009061504a90830184614c37565b600060208284031215615e0957600080fd5b81516126a081614b73565b604081526000615e276040830185614c37565b90508260208301529392505050565b604081526000615e496040830185614c37565b905060018060a01b03831660208301529392505050565b634e487b7160e01b600052603160045260246000fdfe5065746572734d61696e205f6265666f7265546f6b656e5472616e736665722063616c6c656420666f7220746f6b656e2049443a8aea9baa1ab7209ce94784ac5f5149343f8d985fd4278de25a7b390989f2cf853c672069643d22416c6c20547261697473223e3c672069643d226261636b7061636b2220636c6173733d22636c6f736564223e3c7061746820643d224d302030204c33302030204c3330203330204c30203330205a222066696c6c3d227267622831322c203130392c203135372922202f3e3c7376672069643d226261636b7061636b5549222076696577426f783d223020302031323020313230223e203c7374796c653e2e75697b77696474683a3170783b206865696768743a203170783b2066696c6c3a77686974657d3c2f7374796c653e203c672069643d22636c6f736542746e22207472616e73666f726d3d227472616e736c61746528322c3229223e203c7265637420783d22312220793d22312220636c6173733d227569223e3c2f726563743e203c7265637420783d22322220793d22322220636c6173733d227569223e3c2f726563743e203c7265637420783d22332220793d22332220636c6173733d227569223e3c2f726563743e203c7265637420783d22342220793d22342220636c6173733d227569223e3c2f726563743e203c7265637420783d22352220793d22352220636c6173733d227569223e3c2f726563743e203c7265637420783d22352220793d22312220636c6173733d227569223e3c2f726563743e203c7265637420783d22342220793d22322220636c6173733d227569223e3c2f726563743e203c212d2d203c7265637420783d22332220793d2233222077696474683d223122206865696768743d2231222066696c6c3d227768697465223e3c2f726563743e202d2d3e203c7265637420783d22322220793d22342220636c6173733d227569223e3c2f726563743e203c7265637420783d22312220793d22352220636c6173733d227569223e3c2f726563743e203c2f673e203c672069643d226c65667442746e2220636c6173733d22627574746f6e22207472616e73666f726d3d227472616e736c6174652834352c31313029223e203c7061746820643d224d302030204c362030204c362036204c302036205a222066696c6c3d227472616e73706172656e7422202f3e203c7265637420783d22322220793d22302220636c6173733d227569223e3c2f726563743e203c7265637420783d22312220793d22312220636c6173733d227569223e3c2f726563743e203c7265637420783d22302220793d22322220636c6173733d227569223e3c2f726563743e203c7265637420783d22312220793d22332220636c6173733d227569223e3c2f726563743e203c7265637420783d22322220793d22342220636c6173733d227569223e3c2f726563743e203c2f673e203c672069643d22726967687442746e2220636c6173733d22627574746f6e22207472616e73666f726d3d227472616e736c6174652836352c31313029223e203c7061746820643d224d302030204c362030204c362036204c302036205a222066696c6c3d227472616e73706172656e7422202f3e203c7265637420783d22332220793d22302220636c6173733d227569223e3c2f726563743e203c7265637420783d22342220793d22312220636c6173733d227569223e3c2f726563743e203c7265637420783d22352220793d22322220636c6173733d227569223e3c2f726563743e203c7265637420783d22342220793d22332220636c6173733d227569223e3c2f726563743e203c7265637420783d22332220793d22342220636c6173733d227569223e3c2f726563743e203c2f673e203c2f7376673e20a264697066735822122064589990800212f0be992987a9a7e5db2841b33e512ac18afaf969293009b7c364736f6c63430008160033","linkReferences":{}},"methodIdentifiers":{"_debugPostConstructorMint()":"9c7be2f1","addNewBody(uint256,string,bytes,bytes)":"f2361e23","approve(address,uint256)":"095ea7b3","balanceOf(address)":"70a08231","bodyIndexToMetadata(uint256)":"0c83f9d7","buyTrait(uint256)":"6273ca2c","cancelOwnershipHandover()":"54d1f13d","checkIfTraitIsEquipped(uint256,uint256)":"8aa1e4c8","chonkIdToApprovedOperators(uint256,uint256)":"55737f35","completeOwnershipHandover(address)":"f04e283e","equipAccessory(uint256,uint256)":"0447a45e","equipAll(uint256,uint256,uint256,uint256,uint256,uint256,uint256,uint256)":"4a4333a3","equipBottom(uint256,uint256)":"45a10d0f","equipFace(uint256,uint256)":"0f162320","equipHair(uint256,uint256)":"94cbd9c4","equipHead(uint256,uint256)":"1e162a33","equipShoes(uint256,uint256)":"60b77b23","equipTop(uint256,uint256)":"f18dc22d","firstSeasonRenderMinter()":"13ea0ae3","getApproved(uint256)":"081812fc","getBackpackSVGs(uint256)":"14fe8ff4","getBodyImage(bytes)":"e37db3c2","getBodyImageSvg(uint256)":"916c546b","getBodySVGZmapsAndMetadata((uint256,uint256,uint256,uint256,uint256,uint256,uint256,uint32,uint256,uint8,string,bool))":"92012f08","getBodySvgAndMetadata((uint256,uint256,uint256,uint256,uint256,uint256,uint256,uint32,uint256,uint8,string,bool))":"a23830ae","getBodyZMap(uint256)":"306c7334","getFullPictureForTrait(uint256)":"66704349","getOwnerAndTBAAddressForChonkId(uint256)":"04003bd0","getPeter(uint256)":"be928ff6","getPeterZMap(uint256)":"2bd1ca45","getTBAAddressForChonkId(uint256)":"f6a0c932","getTokenRenderZ(uint256)":"8200ea51","getTraitTokens(address)":"998cfb6e","getTraitsForChonkId(uint256)":"9f6e4637","isApprovedForAll(address,address)":"e985e9c5","mainRenderer()":"66b89b5a","marketplace()":"abc8c7af","mint()":"1249c58b","name()":"06fdde03","owner()":"8da5cb5b","ownerOf(uint256)":"6352211e","ownershipHandoverExpiresAt(address)":"fee81cf4","peterMakeover(uint256,uint256,uint256,uint256,uint256,uint256,uint256,uint256,uint8,string)":"93ccba72","price()":"a035b1fe","renderAsDataUri(uint256)":"a1d62680","renderAsDataUriSVG(uint256)":"b28fbe40","renderAsDataUriZ(uint256)":"7557f2dc","renounceOwnership()":"715018a6","requestOwnershipHandover()":"25692962","safeTransferFrom(address,address,uint256)":"42842e0e","safeTransferFrom(address,address,uint256,bytes)":"b88d4fde","setApprovalForAll(address,bool)":"a22cb465","setBackgroundColor(uint256,string)":"d68c4f32","setBodyIndex(uint256,uint8)":"e1405540","setFirstSeasonRenderMinter(address)":"58a97640","setMainRenderer(address)":"4ddb3961","setMarketplace(address)":"73ad6c2d","setMaxTraitsToOutput(uint256)":"33d3d9bf","setPrice(uint256)":"91b7f5ed","setSystemAddress(address)":"06210197","setTokenRenderZ(uint256,bool)":"07f4e045","setTraitsContract(address)":"5eabd84a","setZRenderer(address)":"172b054d","supportsInterface(bytes4)":"01ffc9a7","symbol()":"95d89b41","tbaAddressToTokenId(address)":"a4bf9a00","tokenByIndex(uint256)":"4f6ccce7","tokenIdToTBAAccountAddress(uint256)":"9c05d68d","tokenOfOwnerByIndex(address,uint256)":"2f745c59","tokenURI(uint256)":"c87b56dd","totalSupply()":"18160ddd","traitsContract()":"c093afdb","transferFrom(address,address,uint256)":"23b872dd","transferOwnership(address)":"f2fde38b","unequipAccessory(uint256)":"293ed3f7","unequipAll(uint256)":"3044825b","unequipBottom(uint256)":"9c762015","unequipFace(uint256)":"d5b55c8b","unequipHair(uint256)":"105338e0","unequipHead(uint256)":"7afe8d34","unequipShoes(uint256)":"58180d35","unequipTop(uint256)":"347bd8f4","walletOfOwner(address)":"438b6300","zRenderer()":"a15c561b"},"id":46}