{"abi":[{"type":"constructor","inputs":[{"name":"localDeploy_","type":"bool","internalType":"bool"}],"stateMutability":"nonpayable"},{"type":"function","name":"MAX_TRAITS_TO_OUTPUT","inputs":[],"outputs":[{"name":"","type":"uint256","internalType":"uint256"}],"stateMutability":"view"},{"type":"function","name":"_debugPostConstructorMint","inputs":[],"outputs":[],"stateMutability":"nonpayable"},{"type":"function","name":"addNewBody","inputs":[{"name":"_bodyIndex","type":"uint256","internalType":"uint256"},{"name":"_bodyName","type":"string","internalType":"string"},{"name":"_colorMap","type":"bytes","internalType":"bytes"},{"name":"_zMap","type":"bytes","internalType":"bytes"}],"outputs":[],"stateMutability":"nonpayable"},{"type":"function","name":"approve","inputs":[{"name":"to","type":"address","internalType":"address"},{"name":"tokenId","type":"uint256","internalType":"uint256"}],"outputs":[],"stateMutability":"nonpayable"},{"type":"function","name":"balanceOf","inputs":[{"name":"owner","type":"address","internalType":"address"}],"outputs":[{"name":"","type":"uint256","internalType":"uint256"}],"stateMutability":"view"},{"type":"function","name":"bodyIndexToMetadata","inputs":[{"name":"","type":"uint256","internalType":"uint256"}],"outputs":[{"name":"bodyIndex","type":"uint256","internalType":"uint256"},{"name":"bodyName","type":"string","internalType":"string"},{"name":"colorMap","type":"bytes","internalType":"bytes"},{"name":"zMap","type":"bytes","internalType":"bytes"}],"stateMutability":"view"},{"type":"function","name":"buyTrait","inputs":[{"name":"_tokenId","type":"uint256","internalType":"uint256"}],"outputs":[],"stateMutability":"nonpayable"},{"type":"function","name":"cancelOwnershipHandover","inputs":[],"outputs":[],"stateMutability":"payable"},{"type":"function","name":"completeOwnershipHandover","inputs":[{"name":"pendingOwner","type":"address","internalType":"address"}],"outputs":[],"stateMutability":"payable"},{"type":"function","name":"equipAll","inputs":[{"name":"_peterTokenId","type":"uint256","internalType":"uint256"},{"name":"_hatTokenId","type":"uint256","internalType":"uint256"},{"name":"_hairTokenId","type":"uint256","internalType":"uint256"},{"name":"_glassesTokenId","type":"uint256","internalType":"uint256"},{"name":"_handheldTokenId","type":"uint256","internalType":"uint256"},{"name":"_shirtTokenId","type":"uint256","internalType":"uint256"},{"name":"_pantsTokenId","type":"uint256","internalType":"uint256"},{"name":"_shoesTokenId","type":"uint256","internalType":"uint256"}],"outputs":[],"stateMutability":"nonpayable"},{"type":"function","name":"equipGlasses","inputs":[{"name":"_peterTokenId","type":"uint256","internalType":"uint256"},{"name":"_traitTokenId","type":"uint256","internalType":"uint256"}],"outputs":[],"stateMutability":"nonpayable"},{"type":"function","name":"equipHair","inputs":[{"name":"_peterTokenId","type":"uint256","internalType":"uint256"},{"name":"_traitTokenId","type":"uint256","internalType":"uint256"}],"outputs":[],"stateMutability":"nonpayable"},{"type":"function","name":"equipHandheld","inputs":[{"name":"_peterTokenId","type":"uint256","internalType":"uint256"},{"name":"_traitTokenId","type":"uint256","internalType":"uint256"}],"outputs":[],"stateMutability":"nonpayable"},{"type":"function","name":"equipHat","inputs":[{"name":"_peterTokenId","type":"uint256","internalType":"uint256"},{"name":"_traitTokenId","type":"uint256","internalType":"uint256"}],"outputs":[],"stateMutability":"nonpayable"},{"type":"function","name":"equipPants","inputs":[{"name":"_peterTokenId","type":"uint256","internalType":"uint256"},{"name":"_traitTokenId","type":"uint256","internalType":"uint256"}],"outputs":[],"stateMutability":"nonpayable"},{"type":"function","name":"equipShirt","inputs":[{"name":"_peterTokenId","type":"uint256","internalType":"uint256"},{"name":"_traitTokenId","type":"uint256","internalType":"uint256"}],"outputs":[],"stateMutability":"nonpayable"},{"type":"function","name":"equipShoes","inputs":[{"name":"_peterTokenId","type":"uint256","internalType":"uint256"},{"name":"_traitTokenId","type":"uint256","internalType":"uint256"}],"outputs":[],"stateMutability":"nonpayable"},{"type":"function","name":"firstSeasonRenderMinter","inputs":[],"outputs":[{"name":"","type":"address","internalType":"contract FirstSeasonRenderMinter"}],"stateMutability":"view"},{"type":"function","name":"getApproved","inputs":[{"name":"tokenId","type":"uint256","internalType":"uint256"}],"outputs":[{"name":"","type":"address","internalType":"address"}],"stateMutability":"view"},{"type":"function","name":"getBackpackSVGs","inputs":[{"name":"_tokenId","type":"uint256","internalType":"uint256"}],"outputs":[{"name":"backpackSVGs","type":"string","internalType":"string"}],"stateMutability":"view"},{"type":"function","name":"getBodyImage","inputs":[{"name":"colorMap","type":"bytes","internalType":"bytes"}],"outputs":[{"name":"","type":"bytes","internalType":"bytes"}],"stateMutability":"pure"},{"type":"function","name":"getBodyImageSvg","inputs":[{"name":"_index","type":"uint256","internalType":"uint256"}],"outputs":[{"name":"svg","type":"string","internalType":"string"}],"stateMutability":"view"},{"type":"function","name":"getBodySVGZmapsAndMetadata","inputs":[{"name":"storedPeter","type":"tuple","internalType":"struct IPeterStorage.StoredPeter","components":[{"name":"hatId","type":"uint256","internalType":"uint256"},{"name":"hairId","type":"uint256","internalType":"uint256"},{"name":"glassesId","type":"uint256","internalType":"uint256"},{"name":"handheldId","type":"uint256","internalType":"uint256"},{"name":"shirtId","type":"uint256","internalType":"uint256"},{"name":"pantsId","type":"uint256","internalType":"uint256"},{"name":"shoesId","type":"uint256","internalType":"uint256"},{"name":"epoch","type":"uint32","internalType":"uint32"},{"name":"tokenId","type":"uint16","internalType":"uint16"},{"name":"bodyIndex","type":"uint256","internalType":"uint256"},{"name":"isRevealed","type":"bool","internalType":"bool"},{"name":"seed","type":"uint256","internalType":"uint256"},{"name":"backgroundColor","type":"string","internalType":"string"},{"name":"renderZ","type":"bool","internalType":"bool"}]}],"outputs":[{"name":"","type":"string","internalType":"string"},{"name":"","type":"bytes","internalType":"bytes"},{"name":"","type":"string","internalType":"string"}],"stateMutability":"view"},{"type":"function","name":"getBodySvgAndMetadata","inputs":[{"name":"storedPeter","type":"tuple","internalType":"struct IPeterStorage.StoredPeter","components":[{"name":"hatId","type":"uint256","internalType":"uint256"},{"name":"hairId","type":"uint256","internalType":"uint256"},{"name":"glassesId","type":"uint256","internalType":"uint256"},{"name":"handheldId","type":"uint256","internalType":"uint256"},{"name":"shirtId","type":"uint256","internalType":"uint256"},{"name":"pantsId","type":"uint256","internalType":"uint256"},{"name":"shoesId","type":"uint256","internalType":"uint256"},{"name":"epoch","type":"uint32","internalType":"uint32"},{"name":"tokenId","type":"uint16","internalType":"uint16"},{"name":"bodyIndex","type":"uint256","internalType":"uint256"},{"name":"isRevealed","type":"bool","internalType":"bool"},{"name":"seed","type":"uint256","internalType":"uint256"},{"name":"backgroundColor","type":"string","internalType":"string"},{"name":"renderZ","type":"bool","internalType":"bool"}]}],"outputs":[{"name":"","type":"string","internalType":"string"},{"name":"","type":"string","internalType":"string"}],"stateMutability":"view"},{"type":"function","name":"getBodyZMap","inputs":[{"name":"_tokenId","type":"uint256","internalType":"uint256"}],"outputs":[{"name":"","type":"string","internalType":"string"}],"stateMutability":"view"},{"type":"function","name":"getEpoch","inputs":[],"outputs":[{"name":"","type":"uint256","internalType":"uint256"}],"stateMutability":"view"},{"type":"function","name":"getEpochData","inputs":[{"name":"index","type":"uint256","internalType":"uint256"}],"outputs":[{"name":"","type":"tuple","internalType":"struct CommitReveal.Epoch","components":[{"name":"randomness","type":"uint128","internalType":"uint128"},{"name":"revealBlock","type":"uint64","internalType":"uint64"},{"name":"committed","type":"bool","internalType":"bool"},{"name":"revealed","type":"bool","internalType":"bool"}]}],"stateMutability":"view"},{"type":"function","name":"getOwnerAndTBAAddressForTokenId","inputs":[{"name":"_tokenId","type":"uint256","internalType":"uint256"}],"outputs":[{"name":"owner","type":"address","internalType":"address"},{"name":"tbaAddress","type":"address","internalType":"address"}],"stateMutability":"view"},{"type":"function","name":"getPeter","inputs":[{"name":"_tokenId","type":"uint256","internalType":"uint256"}],"outputs":[{"name":"","type":"tuple","internalType":"struct IPeterStorage.StoredPeter","components":[{"name":"hatId","type":"uint256","internalType":"uint256"},{"name":"hairId","type":"uint256","internalType":"uint256"},{"name":"glassesId","type":"uint256","internalType":"uint256"},{"name":"handheldId","type":"uint256","internalType":"uint256"},{"name":"shirtId","type":"uint256","internalType":"uint256"},{"name":"pantsId","type":"uint256","internalType":"uint256"},{"name":"shoesId","type":"uint256","internalType":"uint256"},{"name":"epoch","type":"uint32","internalType":"uint32"},{"name":"tokenId","type":"uint16","internalType":"uint16"},{"name":"bodyIndex","type":"uint256","internalType":"uint256"},{"name":"isRevealed","type":"bool","internalType":"bool"},{"name":"seed","type":"uint256","internalType":"uint256"},{"name":"backgroundColor","type":"string","internalType":"string"},{"name":"renderZ","type":"bool","internalType":"bool"}]}],"stateMutability":"view"},{"type":"function","name":"getPeterZMap","inputs":[{"name":"_tokenId","type":"uint256","internalType":"uint256"}],"outputs":[{"name":"","type":"string","internalType":"string"}],"stateMutability":"view"},{"type":"function","name":"getTraitTokens","inputs":[{"name":"_tbaAddress","type":"address","internalType":"address"}],"outputs":[{"name":"","type":"uint256[]","internalType":"uint256[]"}],"stateMutability":"view"},{"type":"function","name":"isApprovedForAll","inputs":[{"name":"owner","type":"address","internalType":"address"},{"name":"operator","type":"address","internalType":"address"}],"outputs":[{"name":"","type":"bool","internalType":"bool"}],"stateMutability":"view"},{"type":"function","name":"mainRenderer","inputs":[],"outputs":[{"name":"","type":"address","internalType":"contract MainRenderer"}],"stateMutability":"view"},{"type":"function","name":"mint","inputs":[],"outputs":[],"stateMutability":"payable"},{"type":"function","name":"name","inputs":[],"outputs":[{"name":"","type":"string","internalType":"string"}],"stateMutability":"view"},{"type":"function","name":"owner","inputs":[],"outputs":[{"name":"result","type":"address","internalType":"address"}],"stateMutability":"view"},{"type":"function","name":"ownerOf","inputs":[{"name":"tokenId","type":"uint256","internalType":"uint256"}],"outputs":[{"name":"","type":"address","internalType":"address"}],"stateMutability":"view"},{"type":"function","name":"ownershipHandoverExpiresAt","inputs":[{"name":"pendingOwner","type":"address","internalType":"address"}],"outputs":[{"name":"result","type":"uint256","internalType":"uint256"}],"stateMutability":"view"},{"type":"function","name":"price","inputs":[],"outputs":[{"name":"","type":"uint256","internalType":"uint256"}],"stateMutability":"view"},{"type":"function","name":"renderAsDataUri","inputs":[{"name":"_tokenId","type":"uint256","internalType":"uint256"}],"outputs":[{"name":"","type":"string","internalType":"string"}],"stateMutability":"view"},{"type":"function","name":"renderAsDataUriSVG","inputs":[{"name":"_tokenId","type":"uint256","internalType":"uint256"}],"outputs":[{"name":"","type":"string","internalType":"string"}],"stateMutability":"view"},{"type":"function","name":"renderAsDataUriZ","inputs":[{"name":"_tokenId","type":"uint256","internalType":"uint256"}],"outputs":[{"name":"","type":"string","internalType":"string"}],"stateMutability":"view"},{"type":"function","name":"renounceOwnership","inputs":[],"outputs":[],"stateMutability":"payable"},{"type":"function","name":"requestOwnershipHandover","inputs":[],"outputs":[],"stateMutability":"payable"},{"type":"function","name":"resolveEpochIfNecessary","inputs":[],"outputs":[],"stateMutability":"nonpayable"},{"type":"function","name":"safeTransferFrom","inputs":[{"name":"from","type":"address","internalType":"address"},{"name":"to","type":"address","internalType":"address"},{"name":"tokenId","type":"uint256","internalType":"uint256"}],"outputs":[],"stateMutability":"nonpayable"},{"type":"function","name":"safeTransferFrom","inputs":[{"name":"from","type":"address","internalType":"address"},{"name":"to","type":"address","internalType":"address"},{"name":"tokenId","type":"uint256","internalType":"uint256"},{"name":"data","type":"bytes","internalType":"bytes"}],"outputs":[],"stateMutability":"nonpayable"},{"type":"function","name":"setApprovalForAll","inputs":[{"name":"operator","type":"address","internalType":"address"},{"name":"approved","type":"bool","internalType":"bool"}],"outputs":[],"stateMutability":"nonpayable"},{"type":"function","name":"setBackgroundColor","inputs":[{"name":"_peterTokenId","type":"uint256","internalType":"uint256"},{"name":"_color","type":"string","internalType":"string"}],"outputs":[],"stateMutability":"nonpayable"},{"type":"function","name":"setFirstSeasonRenderMinter","inputs":[{"name":"_dataContract","type":"address","internalType":"address"}],"outputs":[],"stateMutability":"nonpayable"},{"type":"function","name":"setMainRenderer","inputs":[{"name":"_mainRenderer","type":"address","internalType":"address"}],"outputs":[],"stateMutability":"nonpayable"},{"type":"function","name":"setMaxTraitsToOutput","inputs":[{"name":"_maxTraitsToOutput","type":"uint256","internalType":"uint256"}],"outputs":[],"stateMutability":"nonpayable"},{"type":"function","name":"setPrice","inputs":[{"name":"_priceInWei","type":"uint256","internalType":"uint256"}],"outputs":[],"stateMutability":"nonpayable"},{"type":"function","name":"setRenderZ","inputs":[{"name":"_peterTokenId","type":"uint256","internalType":"uint256"},{"name":"_renderZ","type":"bool","internalType":"bool"}],"outputs":[],"stateMutability":"nonpayable"},{"type":"function","name":"setTraitsContract","inputs":[{"name":"_address","type":"address","internalType":"contract PeterTraits"}],"outputs":[],"stateMutability":"nonpayable"},{"type":"function","name":"setZRenderer","inputs":[{"name":"_zRenderer","type":"address","internalType":"address"}],"outputs":[],"stateMutability":"nonpayable"},{"type":"function","name":"supportsInterface","inputs":[{"name":"interfaceId","type":"bytes4","internalType":"bytes4"}],"outputs":[{"name":"","type":"bool","internalType":"bool"}],"stateMutability":"view"},{"type":"function","name":"symbol","inputs":[],"outputs":[{"name":"","type":"string","internalType":"string"}],"stateMutability":"view"},{"type":"function","name":"tokenByIndex","inputs":[{"name":"index","type":"uint256","internalType":"uint256"}],"outputs":[{"name":"","type":"uint256","internalType":"uint256"}],"stateMutability":"view"},{"type":"function","name":"tokenIdToTBAAccountAddress","inputs":[{"name":"","type":"uint256","internalType":"uint256"}],"outputs":[{"name":"","type":"uint160","internalType":"uint160"}],"stateMutability":"view"},{"type":"function","name":"tokenOfOwnerByIndex","inputs":[{"name":"owner","type":"address","internalType":"address"},{"name":"index","type":"uint256","internalType":"uint256"}],"outputs":[{"name":"","type":"uint256","internalType":"uint256"}],"stateMutability":"view"},{"type":"function","name":"tokenURI","inputs":[{"name":"_tokenId","type":"uint256","internalType":"uint256"}],"outputs":[{"name":"","type":"string","internalType":"string"}],"stateMutability":"view"},{"type":"function","name":"totalSupply","inputs":[],"outputs":[{"name":"","type":"uint256","internalType":"uint256"}],"stateMutability":"view"},{"type":"function","name":"traitsContract","inputs":[],"outputs":[{"name":"","type":"address","internalType":"contract PeterTraits"}],"stateMutability":"view"},{"type":"function","name":"transferFrom","inputs":[{"name":"from","type":"address","internalType":"address"},{"name":"to","type":"address","internalType":"address"},{"name":"tokenId","type":"uint256","internalType":"uint256"}],"outputs":[],"stateMutability":"nonpayable"},{"type":"function","name":"transferOwnership","inputs":[{"name":"newOwner","type":"address","internalType":"address"}],"outputs":[],"stateMutability":"payable"},{"type":"function","name":"unequipAll","inputs":[{"name":"_peterTokenId","type":"uint256","internalType":"uint256"}],"outputs":[],"stateMutability":"nonpayable"},{"type":"function","name":"unequipGlasses","inputs":[{"name":"_peterTokenId","type":"uint256","internalType":"uint256"}],"outputs":[],"stateMutability":"nonpayable"},{"type":"function","name":"unequipHair","inputs":[{"name":"_peterTokenId","type":"uint256","internalType":"uint256"}],"outputs":[],"stateMutability":"nonpayable"},{"type":"function","name":"unequipHandheld","inputs":[{"name":"_peterTokenId","type":"uint256","internalType":"uint256"}],"outputs":[],"stateMutability":"nonpayable"},{"type":"function","name":"unequipHat","inputs":[{"name":"_peterTokenId","type":"uint256","internalType":"uint256"}],"outputs":[],"stateMutability":"nonpayable"},{"type":"function","name":"unequipPants","inputs":[{"name":"_peterTokenId","type":"uint256","internalType":"uint256"}],"outputs":[],"stateMutability":"nonpayable"},{"type":"function","name":"unequipShirt","inputs":[{"name":"_peterTokenId","type":"uint256","internalType":"uint256"}],"outputs":[],"stateMutability":"nonpayable"},{"type":"function","name":"unequipShoes","inputs":[{"name":"_peterTokenId","type":"uint256","internalType":"uint256"}],"outputs":[],"stateMutability":"nonpayable"},{"type":"function","name":"walletOfOwner","inputs":[{"name":"_owner","type":"address","internalType":"address"}],"outputs":[{"name":"","type":"uint256[]","internalType":"uint256[]"}],"stateMutability":"view"},{"type":"function","name":"zRenderer","inputs":[],"outputs":[{"name":"","type":"address","internalType":"contract ZRenderer"}],"stateMutability":"view"},{"type":"event","name":"Approval","inputs":[{"name":"owner","type":"address","indexed":true,"internalType":"address"},{"name":"approved","type":"address","indexed":true,"internalType":"address"},{"name":"tokenId","type":"uint256","indexed":true,"internalType":"uint256"}],"anonymous":false},{"type":"event","name":"ApprovalForAll","inputs":[{"name":"owner","type":"address","indexed":true,"internalType":"address"},{"name":"operator","type":"address","indexed":true,"internalType":"address"},{"name":"approved","type":"bool","indexed":false,"internalType":"bool"}],"anonymous":false},{"type":"event","name":"BatchMetadataUpdate","inputs":[{"name":"_fromTokenId","type":"uint256","indexed":false,"internalType":"uint256"},{"name":"_toTokenId","type":"uint256","indexed":false,"internalType":"uint256"}],"anonymous":false},{"type":"event","name":"Equip","inputs":[{"name":"owner","type":"address","indexed":true,"internalType":"address"},{"name":"tokenId","type":"uint256","indexed":true,"internalType":"uint256"},{"name":"traitTokenId","type":"uint256","indexed":true,"internalType":"uint256"},{"name":"traitCategory","type":"string","indexed":false,"internalType":"string"}],"anonymous":false},{"type":"event","name":"EquipAll","inputs":[{"name":"owner","type":"address","indexed":true,"internalType":"address"},{"name":"tokenId","type":"uint256","indexed":true,"internalType":"uint256"}],"anonymous":false},{"type":"event","name":"MetadataUpdate","inputs":[{"name":"_tokenId","type":"uint256","indexed":false,"internalType":"uint256"}],"anonymous":false},{"type":"event","name":"Mint","inputs":[{"name":"owner","type":"address","indexed":true,"internalType":"address"},{"name":"tokenId","type":"uint256","indexed":true,"internalType":"uint256"}],"anonymous":false},{"type":"event","name":"NewEpoch","inputs":[{"name":"epoch","type":"uint256","indexed":true,"internalType":"uint256"},{"name":"revealBlock","type":"uint64","indexed":true,"internalType":"uint64"}],"anonymous":false},{"type":"event","name":"OwnershipHandoverCanceled","inputs":[{"name":"pendingOwner","type":"address","indexed":true,"internalType":"address"}],"anonymous":false},{"type":"event","name":"OwnershipHandoverRequested","inputs":[{"name":"pendingOwner","type":"address","indexed":true,"internalType":"address"}],"anonymous":false},{"type":"event","name":"OwnershipTransferred","inputs":[{"name":"oldOwner","type":"address","indexed":true,"internalType":"address"},{"name":"newOwner","type":"address","indexed":true,"internalType":"address"}],"anonymous":false},{"type":"event","name":"Transfer","inputs":[{"name":"from","type":"address","indexed":true,"internalType":"address"},{"name":"to","type":"address","indexed":true,"internalType":"address"},{"name":"tokenId","type":"uint256","indexed":true,"internalType":"uint256"}],"anonymous":false},{"type":"event","name":"Unequip","inputs":[{"name":"owner","type":"address","indexed":true,"internalType":"address"},{"name":"tokenId","type":"uint256","indexed":true,"internalType":"uint256"},{"name":"traitCategory","type":"string","indexed":true,"internalType":"string"}],"anonymous":false},{"type":"event","name":"UnequipAll","inputs":[{"name":"owner","type":"address","indexed":true,"internalType":"address"},{"name":"tokenId","type":"uint256","indexed":true,"internalType":"uint256"}],"anonymous":false},{"type":"error","name":"AlreadyInitialized","inputs":[]},{"type":"error","name":"BodyAlreadyExists","inputs":[]},{"type":"error","name":"FirstSeasonRenderMinterNotSet","inputs":[]},{"type":"error","name":"IncorrectPeterOwner","inputs":[]},{"type":"error","name":"IncorrectTBAOwner","inputs":[]},{"type":"error","name":"IncorrectTraitType","inputs":[]},{"type":"error","name":"NewOwnerIsZeroAddress","inputs":[]},{"type":"error","name":"NoHandoverRequest","inputs":[]},{"type":"error","name":"PeterDoesntExist","inputs":[]},{"type":"error","name":"Unauthorized","inputs":[]}],"bytecode":{"object":"0x6080604052600060105560456012553480156200001b57600080fd5b5060405162005b0a38038062005b0a8339810160408190526200003e9162000106565b6040518060400160405280600a81526020016914195d195c8815195cdd60b21b815250604051806040016040528060058152602001642822aa22a960d91b8152508160009081620000909190620001d8565b5060016200009f8282620001d8565b505050620000b333620000ca60201b60201c565b600a805460ff1916911515919091179055620002a4565b6001600160a01b0316638b78c6d8198190558060007f8be0079c531659141344cd1fd0a4f28419497f9722a3daafe3b4186f6b6457e08180a350565b6000602082840312156200011957600080fd5b815180151581146200012a57600080fd5b9392505050565b634e487b7160e01b600052604160045260246000fd5b600181811c908216806200015c57607f821691505b6020821081036200017d57634e487b7160e01b600052602260045260246000fd5b50919050565b601f821115620001d3576000816000526020600020601f850160051c81016020861015620001ae5750805b601f850160051c820191505b81811015620001cf57828155600101620001ba565b5050505b505050565b81516001600160401b03811115620001f457620001f462000131565b6200020c8162000205845462000147565b8462000183565b602080601f8311600181146200024457600084156200022b5750858301515b600019600386901b1c1916600185901b178555620001cf565b600085815260208120601f198616915b82811015620002755788860151825594840194600190910190840162000254565b5085821015620002945787850151600019600388901b60f8161c191681555b5050505050600190811b01905550565b61585680620002b46000396000f3fe6080604052600436106104475760003560e01c806366b89b5a11610234578063a860c96c1161012e578063cc9a5d37116100b6578063f04e283e1161007a578063f04e283e14610e40578063f225dc4014610e53578063f2361e2314610e73578063f2fde38b14610e93578063fee81cf414610ea657600080fd5b8063cc9a5d3714610d57578063d68c4f3214610d97578063e37db3c214610db7578063e5a6826114610dd7578063e985e9c514610df757600080fd5b8063b53d1fd7116100fd578063b53d1fd714610c8c578063b88d4fde14610cca578063be928ff614610cea578063c093afdb14610d17578063c87b56dd14610d3757600080fd5b8063a860c96c14610c0c578063a959bb1d14610c2c578063b28fbe4014610c4c578063b528279314610c6c57600080fd5b806391b7f5ed116101bc5780639c7be2f1116101805780639c7be2f114610b81578063a035b1fe14610b96578063a15c561b14610bac578063a1d6268014610bcc578063a22cb46514610bec57600080fd5b806391b7f5ed14610ad657806394cbd9c414610af657806395d89b4114610b16578063998cfb6e14610b2b5780639c05d68d14610b4b57600080fd5b80637557f2dc116102035780637557f2dc14610981578063757991a8146109a1578063859e7d32146109b65780638da5cb5b14610a9d578063916c546b14610ab657600080fd5b806366b89b5a1461091957806370a0823114610939578063715018a6146109595780637365eea81461096157600080fd5b80633044825b116103455780634f6ccce7116102cd5780635eabd84a116102915780635eabd84a1461086b57806360b77b231461088b5780636273ca2c146108ab5780636352211e146108cb578063661ee23a146108eb57600080fd5b80634f6ccce7146107e357806354d1f13d1461080357806358180d351461080b57806358a976401461082b5780635a5474dd1461084b57600080fd5b806342842e0e1161031457806342842e0e14610727578063438b63001461074757806345d2d7bd146107745780634a4333a3146107a35780634ddb3961146107c357600080fd5b80633044825b146106a7578063306c7334146106c757806333d3d9bf146106e75780633fdc97fd1461070757600080fd5b806314fe8ff4116103d3578063239ffa6811610397578063239ffa681461062a57806323b872dd1461063f578063256929621461065f5780632bd1ca45146106675780632f745c591461068757600080fd5b806314fe8ff414610595578063172b054d146105b557806318160ddd146105d557806320e0b93c146105f457806321468d021461060a57600080fd5b8063095ea7b31161041a578063095ea7b3146104fd5780630c83f9d71461051d578063105338e01461054d5780631249c58b1461056d57806313ea0ae31461057557600080fd5b806301ffc9a71461044c57806306e02a351461048157806306fdde03146104a3578063081812fc146104c5575b600080fd5b34801561045857600080fd5b5061046c610467366004614168565b610ed9565b60405190151581526020015b60405180910390f35b34801561048d57600080fd5b506104a161049c366004614185565b610eea565b005b3480156104af57600080fd5b506104b8610f63565b60405161047891906141ee565b3480156104d157600080fd5b506104e56104e0366004614185565b610ff5565b6040516001600160a01b039091168152602001610478565b34801561050957600080fd5b506104a1610518366004614216565b61101c565b34801561052957600080fd5b5061053d610538366004614185565b611136565b6040516104789493929190614242565b34801561055957600080fd5b506104a1610568366004614185565b6112f7565b6104a1611329565b34801561058157600080fd5b506014546104e5906001600160a01b031681565b3480156105a157600080fd5b506104b86105b0366004614185565b6116c5565b3480156105c157600080fd5b506104a16105d036600461428c565b611927565b3480156105e157600080fd5b506008545b604051908152602001610478565b34801561060057600080fd5b506105e660125481565b34801561061657600080fd5b506104a16106253660046142a9565b611951565b34801561063657600080fd5b506104a16119d1565b34801561064b57600080fd5b506104a161065a3660046142cb565b611bad565b6104a1611bde565b34801561067357600080fd5b506104b8610682366004614185565b611c2d565b34801561069357600080fd5b506105e66106a2366004614216565b611cf1565b3480156106b357600080fd5b506104a16106c2366004614185565b611d87565b3480156106d357600080fd5b506104b86106e2366004614185565b611e0f565b3480156106f357600080fd5b506104a1610702366004614185565b611e32565b34801561071357600080fd5b506104a1610722366004614185565b611e3f565b34801561073357600080fd5b506104a16107423660046142cb565b611e74565b34801561075357600080fd5b5061076761076236600461428c565b611e8f565b604051610478919061430c565b34801561078057600080fd5b5061079461078f366004614477565b611f26565b6040516104789392919061458d565b3480156107af57600080fd5b506104a16107be3660046145d0565b612110565b3480156107cf57600080fd5b506104a16107de36600461428c565b6121c9565b3480156107ef57600080fd5b506105e66107fe366004614185565b6121f3565b6104a1612286565b34801561081757600080fd5b506104a1610826366004614185565b6122c2565b34801561083757600080fd5b506104a161084636600461428c565b6122f5565b34801561085757600080fd5b506104a16108663660046142a9565b61231f565b34801561087757600080fd5b506104a161088636600461428c565b612391565b34801561089757600080fd5b506104a16108a63660046142a9565b6123bb565b3480156108b757600080fd5b506104a16108c6366004614185565b61242d565b3480156108d757600080fd5b506104e56108e6366004614185565b6124b1565b3480156108f757600080fd5b5061090b610906366004614477565b612511565b604051610478929190614625565b34801561092557600080fd5b506015546104e5906001600160a01b031681565b34801561094557600080fd5b506105e661095436600461428c565b6125b8565b6104a161263e565b34801561096d57600080fd5b506104a161097c366004614185565b612652565b34801561098d57600080fd5b506104b861099c366004614185565b612688565b3480156109ad57600080fd5b50600d546105e6565b3480156109c257600080fd5b50610a546109d1366004614185565b6040805160808082018352600080835260208084018290528385018290526060938401829052948152600c855283902083519182018452546001600160801b03811682526001600160401b03600160801b8204169482019490945260ff600160c01b85048116151593820193909352600160c81b90930490911615159082015290565b604051610478919081516001600160801b031681526020808301516001600160401b03169082015260408083015115159082015260609182015115159181019190915260800190565b348015610aa957600080fd5b50638b78c6d819546104e5565b348015610ac257600080fd5b506104b8610ad1366004614185565b612868565b348015610ae257600080fd5b506104a1610af1366004614185565b61298c565b348015610b0257600080fd5b506104a1610b113660046142a9565b612999565b348015610b2257600080fd5b506104b8612a0a565b348015610b3757600080fd5b50610767610b4636600461428c565b612a19565b348015610b5757600080fd5b506104e5610b66366004614185565b6013602052600090815260409020546001600160a01b031681565b348015610b8d57600080fd5b506104a1612a8f565b348015610ba257600080fd5b506105e660115481565b348015610bb857600080fd5b506016546104e5906001600160a01b031681565b348015610bd857600080fd5b506104b8610be7366004614185565b612afa565b348015610bf857600080fd5b506104a1610c07366004614653565b612b2a565b348015610c1857600080fd5b506104a1610c273660046142a9565b612b39565b348015610c3857600080fd5b506104a1610c47366004614185565b612bab565b348015610c5857600080fd5b506104b8610c67366004614185565b612bde565b348015610c7857600080fd5b506104a1610c87366004614185565b612d3d565b348015610c9857600080fd5b506104a1610ca7366004614688565b6000918252600b6020526040909120600c01805460ff1916911515919091179055565b348015610cd657600080fd5b506104a1610ce53660046146ab565b612d6b565b348015610cf657600080fd5b50610d0a610d05366004614185565b612d9d565b6040516104789190614716565b348015610d2357600080fd5b50600f546104e5906001600160a01b031681565b348015610d4357600080fd5b506104b8610d52366004614185565b61305a565b348015610d6357600080fd5b50610d77610d72366004614185565b61309b565b604080516001600160a01b03938416815292909116602083015201610478565b348015610da357600080fd5b506104a1610db23660046147f2565b6130ca565b348015610dc357600080fd5b506104b8610dd2366004614838565b613127565b348015610de357600080fd5b506104a1610df23660046142a9565b6133d9565b348015610e0357600080fd5b5061046c610e1236600461486c565b6001600160a01b03918216600090815260056020908152604080832093909416825291909152205460ff1690565b6104a1610e4e36600461428c565b613446565b348015610e5f57600080fd5b506104a1610e6e3660046142a9565b613483565b348015610e7f57600080fd5b506104a1610e8e3660046148a5565b6134f8565b6104a1610ea136600461428c565b613545565b348015610eb257600080fd5b506105e6610ec136600461428c565b63389a75e1600c908152600091909152602090205490565b6000610ee48261356c565b92915050565b610ef381613591565b6000818152600b6020526040808220600590810192909255516450616e747360d81b8152015b604051809103902081610f2b836124b1565b6001600160a01b03167fe428b1839105819dce5e635ac7e16ed2a43028f6e294bab8655e29acb5dc60bb60405160405180910390a450565b606060008054610f729061492a565b80601f0160208091040260200160405190810160405280929190818152602001828054610f9e9061492a565b8015610feb5780601f10610fc057610100808354040283529160200191610feb565b820191906000526020600020905b815481529060010190602001808311610fce57829003601f168201915b5050505050905090565b6000611000826135cb565b506000908152600460205260409020546001600160a01b031690565b6000611027826124b1565b9050806001600160a01b0316836001600160a01b0316036110995760405162461bcd60e51b815260206004820152602160248201527f4552433732313a20617070726f76616c20746f2063757272656e74206f776e656044820152603960f91b60648201526084015b60405180910390fd5b336001600160a01b03821614806110b557506110b58133610e12565b6111275760405162461bcd60e51b815260206004820152603e60248201527f4552433732313a20617070726f76652063616c6c6572206973206e6f7420746f60448201527f6b656e206f776e6572206e6f7220617070726f76656420666f7220616c6c00006064820152608401611090565b611131838361362a565b505050565b600e60205260009081526040902080546001820180549192916111589061492a565b80601f01602080910402602001604051908101604052809291908181526020018280546111849061492a565b80156111d15780601f106111a6576101008083540402835291602001916111d1565b820191906000526020600020905b8154815290600101906020018083116111b457829003601f168201915b5050505050908060020180546111e69061492a565b80601f01602080910402602001604051908101604052809291908181526020018280546112129061492a565b801561125f5780601f106112345761010080835404028352916020019161125f565b820191906000526020600020905b81548152906001019060200180831161124257829003601f168201915b5050505050908060030180546112749061492a565b80601f01602080910402602001604051908101604052809291908181526020018280546112a09061492a565b80156112ed5780601f106112c2576101008083540402835291602001916112ed565b820191906000526020600020905b8154815290600101906020018083116112d057829003601f168201915b5050505050905084565b61130081613591565b6000818152600b60205260408082206001019190915551632430b4b960e11b8152600401610f19565b6014546001600160a01b031661135257604051633390ca8960e21b815260040160405180910390fd5b61135a6119d1565b600060106000815461136b9061497a565b9182905550905061137c3382613698565b604051638a54c52f60e01b81527355266d75d1a14e4572138116af39863ed6596e7f600482015260006024820181905262014a34604483015230606483015260848201839052906f6551c19487814612e58fe0681377575890638a54c52f9060a4016020604051808303816000875af11580156113fd573d6000803e3d6000fd5b505050506040513d601f19601f820116820180604052508101906114219190614993565b6000838152601360205260409081902080546001600160a01b0319166001600160a01b038416908117909155905163189acdbd60e31b81527341c8f39463a868d3a88af00cd0fe7102f30e44ec60048201529192509063c4d66de890602401600060405180830381600087803b15801561149a57600080fd5b505af11580156114ae573d6000803e3d6000fd5b5050601454604051637458922960e11b81526001600160a01b03858116600483015260009450909116915063e8b12452906024016000604051808303816000875af1158015611501573d6000803e3d6000fd5b505050506040513d6000823e601f3d908101601f1916820160405261152991908101906149b0565b6000848152600b60205260408120600d5460078201805461ffff8916600a850181905563ffffffff90931665ffffffffffff199091161764010000000090920291909117905582519293509183919061158457611584614a55565b60200260200101518160040181905550816001815181106115a7576115a7614a55565b60200260200101518160050181905550816002815181106115ca576115ca614a55565b60200260200101518160060181905550816003815181106115ed576115ed614a55565b602002602001015181600101819055508160048151811061161057611610614a55565b6020908102919091018101516003830155600c8201805460ff191690556040805180820190915260068152650c110d914e5160d21b91810191909152600b82019061165b9082614ab3565b50604051849033907f0f6798a560793a54c3bcfe86a93cde1e73087d944c0ea20544137d412139688590600090a36116bf6040518060400160405280601481526020017336b4b73a32b2103137b23c903a37b5b2b724b21d60611b815250856137e6565b50505050565b6000818152601360205260408120546060916001600160a01b03909116906116ec82612a19565b905060006040518060400160405280601b81526020017f3c7376672076696577426f783d223020302031353020313530223e000000000081525090506000604051806040016040528060068152602001651e17b9bb339f60d11b815250905060606000600f60009054906101000a90046001600160a01b03166001600160a01b0316635c1ef2566040518163ffffffff1660e01b8152600401600060405180830381865afa1580156117a2573d6000803e3d6000fd5b505050506040513d6000823e601f3d908101601f191682016040526117ca9190810190614bc2565b905060006012548651106117e0576012546117e3565b85515b9050604051806105400160405280610505815260200161531c610505913982604051602001611813929190614bf6565b604051602081830303815290604052925060005b818110156118f857600f5487516000916001600160a01b03169063c7791531908a908590811061185957611859614a55565b60200260200101516040518263ffffffff1660e01b815260040161187f91815260200190565b600060405180830381865afa15801561189c573d6000803e3d6000fd5b505050506040513d6000823e601f3d908101601f191682016040526118c49190810190614bc2565b9050848782886040516020016118dd9493929190614c4d565b60408051601f19818403018152919052945050600101611827565b508260405160200161190a9190614ca4565b60408051601f198184030181529190529998505050505050505050565b61192f61382b565b601680546001600160a01b0319166001600160a01b0392909216919091179055565b61195b8282613846565b611966816002613905565b6000828152600b602052604090206002018190558082611985816124b1565b6001600160a01b03166000805160206152fc8339815191526040516119c590602080825260079082015266476c617373657360c81b604082015260600190565b60405180910390a45050565b600d546000908152600c602052604090208054600160c01b900460ff161580611a2957508054600160c81b900460ff16158015611a295750611a1561010043614ccc565b8154600160801b90046001600160401b0316105b15611a7457611a39436032614cdf565b815460ff60c01b196001600160401b0392909216600160801b029190911668ffffffffffffffffff60801b1990911617600160c01b17815550565b8054600160801b90046001600160401b0316431115611baa57805460408051600160801b9092046001600160401b031640602083015244908201526001600160801b03906060016040516020818303038152906040528051906020012060001c611ade9190614d08565b8154600160c81b6001600160801b039290921679ff000000000000000000ffffffffffffffffffffffffffffffff199091161717808255600d54604051600160801b9092046001600160401b0316917f78611aecfda8d341359c248df527c95aef93d446c92bb928b2a81b7abcb1d8d990600090a3604080516000815260001960208201527f6bd5c950a8d8df17f772f5af37cb3655737899cbf903264b9795592da439661c910160405180910390a1600d8054600090611b9e9061497a565b90915550611baa6119d1565b50565b611bb73382613a07565b611bd35760405162461bcd60e51b815260040161109090614d1c565b611131838383613a86565b60006202a3006001600160401b03164201905063389a75e1600c5233600052806020600c2055337fdbf36a107da19e49527a7176a1babf963b4b0ff8cde35ee35d6cd8f1f9ac7e1d600080a250565b60608060606000611c3d85612d9d565b9050611c4881611f26565b50600f54604051630de6a96560e11b81529195506001600160a01b03169150631bcd52ca90611c7b908490600401614716565b600060405180830381865afa158015611c98573d6000803e3d6000fd5b505050506040513d6000823e601f3d908101601f19168201604052611cc09190810190614d6a565b50604051909350611cd8915084908490602001614e08565b6040516020818303038152906040529350505050919050565b6000611cfc836125b8565b8210611d5e5760405162461bcd60e51b815260206004820152602b60248201527f455243373231456e756d657261626c653a206f776e657220696e646578206f7560448201526a74206f6620626f756e647360a81b6064820152608401611090565b506001600160a01b03919091166000908152600660209081526040808320938352929052205490565b611d9081613591565b6000818152600b602052604081208181556001810182905560028101829055600381018290556004810182905560058101829055600681019190915581611dd6816124b1565b6001600160a01b03167f46078a2cd4c69c3b4a27bdc69fdfe03d442ebcf405f1a68e9b5df6bc3e24429760405160405180910390a35050565b6060806000611e1d84612d9d565b9050611e2881611f26565b5095945050505050565b611e3a61382b565b601255565b611e4881613591565b6000818152600b6020526040808220600201919091555166476c617373657360c81b8152600701610f19565b61113183838360405180602001604052806000815250612d6b565b60606000611e9c836125b8565b90506000816001600160401b03811115611eb857611eb8614350565b604051908082528060200260200182016040528015611ee1578160200160208202803683370190505b50905060005b82811015611f1e57611ef98582611cf1565b828281518110611f0b57611f0b614a55565b6020908102919091010152600101611ee7565b509392505050565b6060806060836101400151611f84576040518060a00160405280606581526020016152976065913960405180602001604052806000815250604051806040016040528060028152602001617b7d60f01b815250925092509250612109565b611f92846101200151612868565b600e6000866101200151815260200190815260200160002060030161207660405180604001604052806004815260200163426f647960e01b815250600e600089610120015181526020019081526020016000206001018054611ff39061492a565b80601f016020809104026020016040519081016040528092919081815260200182805461201f9061492a565b801561206c5780601f106120415761010080835404028352916020019161206c565b820191906000526020600020905b81548152906001019060200180831161204f57829003601f168201915b5050505050613c2d565b8180546120829061492a565b80601f01602080910402602001604051908101604052809291908181526020018280546120ae9061492a565b80156120fb5780601f106120d0576101008083540402835291602001916120fb565b820191906000526020600020905b8154815290600101906020018083116120de57829003601f168201915b505050505091509250925092505b9193909250565b86156121205761212088886133d9565b8515612130576121308887612999565b8415612140576121408886611951565b8315612150576121508885613483565b8215612160576121608884612b39565b811561217057612170888361231f565b80156121805761218088826123bb565b8761218a896124b1565b6001600160a01b03167f56680590212b09eb4b72a2eba8801b037ec046dfc754538e924f5bb6a8c4db6c60405160405180910390a35050505050505050565b6121d161382b565b601580546001600160a01b0319166001600160a01b0392909216919091179055565b60006121fe60085490565b82106122615760405162461bcd60e51b815260206004820152602c60248201527f455243373231456e756d657261626c653a20676c6f62616c20696e646578206f60448201526b7574206f6620626f756e647360a01b6064820152608401611090565b6008828154811061227457612274614a55565b90600052602060002001549050919050565b63389a75e1600c523360005260006020600c2055337ffa7b8eab7da67f412cc9575ed43464468f9bfbae89d1675917346ca6d8fe3c92600080a2565b6122cb81613591565b6000818152600b602052604080822060060191909155516453686f657360d81b8152600501610f19565b6122fd61382b565b601480546001600160a01b0319166001600160a01b0392909216919091179055565b6123298282613846565b612334816005613905565b6000828152600b602052604090206005018190558082612353816124b1565b6001600160a01b03166000805160206152fc8339815191526040516119c59060208082526005908201526450616e747360d81b604082015260600190565b61239961382b565b600f80546001600160a01b0319166001600160a01b0392909216919091179055565b6123c58282613846565b6123d0816006613905565b6000828152600b6020526040902060060181905580826123ef816124b1565b6001600160a01b03166000805160206152fc8339815191526040516119c59060208082526005908201526453686f657360d81b604082015260600190565b6000818152601360205260409081902054600f5491516340d097c360e01b81526001600160a01b03918216600482018190529291909116906340d097c3906024016020604051808303816000875af115801561248d573d6000803e3d6000fd5b505050506040513d601f19601f820116820180604052508101906111319190614e37565b6000818152600260205260408120546001600160a01b031680610ee45760405162461bcd60e51b8152602060048201526018602482015277115490cdcc8c4e881a5b9d985b1a59081d1bdad95b88125160421b6044820152606401611090565b60608082610140015161255b576040518060a001604052806065815260200161529760659139604051806040016040528060028152602001617b7d60f01b81525091509150915091565b612569836101200151612868565b6125af60405180604001604052806004815260200163426f647960e01b815250600e600087610120015181526020019081526020016000206001018054611ff39061492a565b91509150915091565b60006001600160a01b0382166126225760405162461bcd60e51b815260206004820152602960248201527f4552433732313a2061646472657373207a65726f206973206e6f7420612076616044820152683634b21037bbb732b960b91b6064820152608401611090565b506001600160a01b031660009081526003602052604090205490565b61264661382b565b6126506000613c59565b565b61265b81613591565b6000818152600b602052604080822060030191909155516712185b991a195b1960c21b8152600801610f19565b60608060608060608060608060608060006126a28c612d9d565b90506126ad81611f26565b600f54604051630de6a96560e11b8152939d50919a5095506001600160a01b031690631bcd52ca906126e3908490600401614716565b600060405180830381865afa158015612700573d6000803e3d6000fd5b505050506040513d6000823e601f3d908101601f191682016040526127289190810190614d6a565b604051929b5090985095506127439085908790602001614e50565b60405160208183030381529060405292508787604051602001612767929190614e08565b60408051601f198184030181529082905261018083015190975061278f918190602001614eb5565b60408051601f198184030181528282019091526060808352602083015292508161018001518160000181905250828160200181905250601660009054906101000a90046001600160a01b03166001600160a01b0316637149ebf68e8d888e8b8d886040518863ffffffff1660e01b81526004016128129796959493929190614f5a565b600060405180830381865afa15801561282f573d6000803e3d6000fd5b505050506040513d6000823e601f3d908101601f191682016040526128579190810190614bc2565b9d9c50505050505050505050505050565b6000818152600e6020526040812060020180546060929161290f9161288c9061492a565b80601f01602080910402602001604051908101604052809291908181526020018280546128b89061492a565b80156129055780601f106128da57610100808354040283529160200191612905565b820191906000526020600020905b8154815290600101906020018083116128e857829003601f168201915b5050505050613127565b6015546040516335b07b7960e11b81529192506001600160a01b031690636b60f6f2906129409084906004016141ee565b600060405180830381865afa15801561295d573d6000803e3d6000fd5b505050506040513d6000823e601f3d908101601f191682016040526129859190810190614bc2565b9392505050565b61299461382b565b601155565b6129a38282613846565b6129ae816001613905565b6000828152600b6020526040902060010181905580826129cd816124b1565b6001600160a01b03166000805160206152fc8339815191526040516119c5906020808252600490820152632430b4b960e11b604082015260600190565b606060018054610f729061492a565b600f5460405162438b6360e81b81526001600160a01b03838116600483015260609260009291169063438b630090602401600060405180830381865afa158015612a67573d6000803e3d6000fd5b505050506040513d6000823e601f3d908101601f1916820160405261298591908101906149b0565b600a5460ff16156126505760005b6014811015611baa57612aae611329565b612ad6816040518060400160405280600681526020016532386231343360d01b8152506130ca565b6000818152600b60205260409020600c01805460ff19166001179055600101612a9d565b60606000612b0783612d9d565b9050806101a00151612b2157612b1c83612bde565b612985565b61298583612688565b612b35338383613c97565b5050565b612b438282613846565b612b4e816004613905565b6000828152600b602052604090206004018190558082612b6d816124b1565b6001600160a01b03166000805160206152fc8339815191526040516119c59060208082526005908201526414da1a5c9d60da1b604082015260600190565b612bb481613591565b6000818152600b602052604080822060040191909155516414da1a5c9d60da1b8152600501610f19565b60608060608060608060606000612bf489612d9d565b9050612bff81612511565b600f5460405163506cbfe760e11b81529299509097506001600160a01b03169063a0d97fce90612c33908490600401614716565b600060405180830381865afa158015612c50573d6000803e3d6000fd5b505050506040513d6000823e601f3d908101601f19168201604052612c789190810190615007565b9095509350612c86896116c5565b610180820151604051919450612ca0918190602001614eb5565b60408051601f1981840301815290829052601554631f8ac0db60e21b83529093506001600160a01b031690637e2b036c90612ceb908c908b908b908b908b908b908b90600401615060565b600060405180830381865afa158015612d08573d6000803e3d6000fd5b505050506040513d6000823e601f3d908101601f19168201604052612d309190810190614bc2565b9998505050505050505050565b612d4681613591565b6000818152600b602052604080822091909155516212185d60ea1b8152600301610f19565b612d753383613a07565b612d915760405162461bcd60e51b815260040161109090614d1c565b6116bf84848484613d65565b612e1d604051806101c0016040528060008152602001600081526020016000815260200160008152602001600081526020016000815260200160008152602001600063ffffffff168152602001600061ffff1681526020016000815260200160001515815260200160008152602001606081526020016000151581525090565b6000828152600b6020818152604080842081516101c081018352815481526001820154938101939093526002810154918301919091526003810154606083015260048101546080830152600581015460a0830152600681015460c0830152600781015463ffffffff811660e0840152640100000000900461ffff166101008301526008810154610120830152600981015460ff161515610140830152600a810154610160830152918201805491929161018084019190612edc9061492a565b80601f0160208091040260200160405190810160405280929190818152602001828054612f089061492a565b8015612f555780601f10612f2a57610100808354040283529160200191612f55565b820191906000526020600020905b815481529060010190602001808311612f3857829003601f168201915b5050509183525050600c9182015460ff16151560209182015260e083015163ffffffff1660009081529181526040918290205461010084015192519394506001600160801b03908116939092612fdb9285920160809290921b6fffffffffffffffffffffffffffffffff1916825260f01b6001600160f01b031916601082015260120190565b6040516020818303038152906040528051906020012060001c612ffe9190614d08565b610160830152600a5460ff161515600114613025576000816001600160801b031611613028565b60015b151561014083015261016082015161304290600490614d08565b61304d906001614cdf565b6101208301525092915050565b6000818152600260205260409020546060906001600160a01b031661309257604051631a65aaab60e31b815260040160405180910390fd5b610ee482612afa565b6000806130a7836124b1565b6000938452601360205260409093205492936001600160a01b0390931692915050565b805160061461310b5760405162461bcd60e51b815260206004820152600d60248201526c24b73b30b634b21031b7b637b960991b6044820152606401611090565b6000828152600b60208190526040909120016111318282614ab3565b805160609080158015906131435750613141600582614d08565b155b61318f5760405162461bcd60e51b815260206004820152601960248201527f496e76616c696420626f6479206279746573206c656e677468000000000000006044820152606401611090565b604080516111948082526111c0820190925260009160208201818036833701905050905060006131c06005846150e9565b905060005b818110156133cf5760006131da8260056150fd565b905060008782815181106131f0576131f0614a55565b016020015160f81c9050600088613208846001614cdf565b8151811061321857613218614a55565b016020015160f81c9050600060ff831661323383601e6150fd565b61323d9190614cdf565b6132489060056150fd565b905089848151811061325c5761325c614a55565b602001015160f81c60f81b87828151811061327957613279614a55565b60200101906001600160f81b031916908160001a9053508984600101815181106132a5576132a5614a55565b602001015160f81c60f81b8782600101815181106132c5576132c5614a55565b60200101906001600160f81b031916908160001a9053508984600201815181106132f1576132f1614a55565b602001015160f81c60f81b87826002018151811061331157613311614a55565b60200101906001600160f81b031916908160001a90535089846003018151811061333d5761333d614a55565b602001015160f81c60f81b87826003018151811061335d5761335d614a55565b60200101906001600160f81b031916908160001a90535089846004018151811061338957613389614a55565b602001015160f81c60f81b8782600401815181106133a9576133a9614a55565b60200101906001600160f81b031916908160001a905350505050508060010190506131c5565b5090949350505050565b6133e38282613846565b6133ee816000613905565b6000828152600b60205260409020819055808261340a816124b1565b6001600160a01b03166000805160206152fc8339815191526040516119c59060208082526003908201526212185d60ea1b604082015260600190565b61344e61382b565b63389a75e1600c52806000526020600c20805442111561347657636f5e88186000526004601cfd5b60009055611baa81613c59565b61348d8282613846565b613498816003613905565b6000828152600b6020526040902060030181905580826134b7816124b1565b6001600160a01b03166000805160206152fc8339815191526040516119c59060208082526008908201526712185b991a195b1960c21b604082015260600190565b61350061382b565b6000848152600e602052604090208481556001810161351f8582614ab3565b506002810161352e8482614ab3565b506003810161353d8382614ab3565b505050505050565b61354d61382b565b8060601b61356357637448fbae6000526004601cfd5b611baa81613c59565b60006001600160e01b0319821663780e9d6360e01b1480610ee45750610ee482613d98565b61359a816124b1565b6001600160a01b0316336001600160a01b031614611baa576040516324adc17160e11b815260040160405180910390fd5b6000818152600260205260409020546001600160a01b0316611baa5760405162461bcd60e51b8152602060048201526018602482015277115490cdcc8c4e881a5b9d985b1a59081d1bdad95b88125160421b6044820152606401611090565b600081815260046020526040902080546001600160a01b0319166001600160a01b038416908117909155819061365f826124b1565b6001600160a01b03167f8c5be1e5ebec7d5bd14f71427d1e84f3dd0314c0f7b2291e5b200ac8c7c3b92560405160405180910390a45050565b6001600160a01b0382166136ee5760405162461bcd60e51b815260206004820181905260248201527f4552433732313a206d696e7420746f20746865207a65726f20616464726573736044820152606401611090565b6000818152600260205260409020546001600160a01b0316156137535760405162461bcd60e51b815260206004820152601c60248201527f4552433732313a20746f6b656e20616c7265616479206d696e746564000000006044820152606401611090565b61375f60008383613de8565b6001600160a01b0382166000908152600360205260408120805460019290613788908490614cdf565b909155505060008181526002602052604080822080546001600160a01b0319166001600160a01b03861690811790915590518392907fddf252ad1be2c89b69c2b068fc378daa952ba7f163c4a11628f55a4df523b3ef908290a45050565b612b3582826040516024016137fc929190615114565b60408051601f198184030181529190526020810180516001600160e01b03166309710a9d60e41b179052613ea0565b638b78c6d819543314612650576382b429006000526004601cfd5b61384f82613591565b60008281526013602052604080822054600f5491516331a9108f60e11b8152600481018590526001600160a01b0391821693929190911690636352211e90602401602060405180830381865afa1580156138ad573d6000803e3d6000fd5b505050506040513d601f19601f820116820180604052508101906138d19190614993565b9050816001600160a01b0316816001600160a01b0316146116bf5760405163e6ca793160e01b815260040160405180910390fd5b600f5460405163e8a1268d60e01b8152600481018490526000916001600160a01b03169063e8a1268d90602401602060405180830381865afa15801561394f573d6000803e3d6000fd5b505050506040513d601f19601f820116820180604052508101906139739190615136565b905081600681111561398757613987615157565b60405160200161399991815260200190565b604051602081830303815290604052805190602001208160068111156139c1576139c1615157565b6040516020016139d391815260200190565b604051602081830303815290604052805190602001201461113157604051633e54c6fb60e11b815260040160405180910390fd5b600080613a13836124b1565b9050806001600160a01b0316846001600160a01b03161480613a5a57506001600160a01b0380821660009081526005602090815260408083209388168352929052205460ff165b80613a7e5750836001600160a01b0316613a7384610ff5565b6001600160a01b0316145b949350505050565b826001600160a01b0316613a99826124b1565b6001600160a01b031614613afd5760405162461bcd60e51b815260206004820152602560248201527f4552433732313a207472616e736665722066726f6d20696e636f72726563742060448201526437bbb732b960d91b6064820152608401611090565b6001600160a01b038216613b5f5760405162461bcd60e51b8152602060048201526024808201527f4552433732313a207472616e7366657220746f20746865207a65726f206164646044820152637265737360e01b6064820152608401611090565b613b6a838383613de8565b613b7560008261362a565b6001600160a01b0383166000908152600360205260408120805460019290613b9e908490614ccc565b90915550506001600160a01b0382166000908152600360205260408120805460019290613bcc908490614cdf565b909155505060008181526002602052604080822080546001600160a01b0319166001600160a01b0386811691821790925591518493918716917fddf252ad1be2c89b69c2b068fc378daa952ba7f163c4a11628f55a4df523b3ef91a4505050565b60608282604051602001613c4292919061516d565b604051602081830303815290604052905092915050565b638b78c6d81980546001600160a01b039092169182907f8be0079c531659141344cd1fd0a4f28419497f9722a3daafe3b4186f6b6457e0600080a355565b816001600160a01b0316836001600160a01b031603613cf85760405162461bcd60e51b815260206004820152601960248201527f4552433732313a20617070726f766520746f2063616c6c6572000000000000006044820152606401611090565b6001600160a01b03838116600081815260056020908152604080832094871680845294825291829020805460ff191686151590811790915591519182527f17307eab39ab6107e8899845ad3d59bd9653f200f220920489ca2b5937696c31910160405180910390a3505050565b613d70848484613a86565b613d7c84848484613ec1565b6116bf5760405162461bcd60e51b8152600401611090906151de565b60006001600160e01b031982166380ac58cd60e01b1480613dc957506001600160e01b03198216635b5e139f60e01b145b80610ee457506301ffc9a760e01b6001600160e01b0319831614610ee4565b6001600160a01b038316613e4357613e3e81600880546000838152600960205260408120829055600182018355919091527ff3f7a9fe364faab93b216da50a3214154f22a0a2b415b23a84c8169e8b636ee30155565b613e66565b816001600160a01b0316836001600160a01b031614613e6657613e668382613fc2565b6001600160a01b038216613e7d576111318161405f565b826001600160a01b0316826001600160a01b03161461113157611131828261410e565b80516a636f6e736f6c652e6c6f67602083016000808483855afa5050505050565b60006001600160a01b0384163b15613fb757604051630a85bd0160e11b81526001600160a01b0385169063150b7a0290613f05903390899088908890600401615230565b6020604051808303816000875af1925050508015613f40575060408051601f3d908101601f19168201909252613f3d91810190615263565b60015b613f9d573d808015613f6e576040519150601f19603f3d011682016040523d82523d6000602084013e613f73565b606091505b508051600003613f955760405162461bcd60e51b8152600401611090906151de565b805181602001fd5b6001600160e01b031916630a85bd0160e11b149050613a7e565b506001949350505050565b60006001613fcf846125b8565b613fd99190614ccc565b60008381526007602052604090205490915080821461402c576001600160a01b03841660009081526006602090815260408083208584528252808320548484528184208190558352600790915290208190555b5060009182526007602090815260408084208490556001600160a01b039094168352600681528383209183525290812055565b60085460009061407190600190614ccc565b6000838152600960205260408120546008805493945090928490811061409957614099614a55565b9060005260206000200154905080600883815481106140ba576140ba614a55565b60009182526020808320909101929092558281526009909152604080822084905585825281205560088054806140f2576140f2615280565b6001900381819060005260206000200160009055905550505050565b6000614119836125b8565b6001600160a01b039093166000908152600660209081526040808320868452825280832085905593825260079052919091209190915550565b6001600160e01b031981168114611baa57600080fd5b60006020828403121561417a57600080fd5b813561298581614152565b60006020828403121561419757600080fd5b5035919050565b60005b838110156141b95781810151838201526020016141a1565b50506000910152565b600081518084526141da81602086016020860161419e565b601f01601f19169290920160200192915050565b60208152600061298560208301846141c2565b6001600160a01b0381168114611baa57600080fd5b6000806040838503121561422957600080fd5b823561423481614201565b946020939093013593505050565b84815260806020820152600061425b60808301866141c2565b828103604084015261426d81866141c2565b9050828103606084015261428181856141c2565b979650505050505050565b60006020828403121561429e57600080fd5b813561298581614201565b600080604083850312156142bc57600080fd5b50508035926020909101359150565b6000806000606084860312156142e057600080fd5b83356142eb81614201565b925060208401356142fb81614201565b929592945050506040919091013590565b6020808252825182820181905260009190848201906040850190845b8181101561434457835183529284019291840191600101614328565b50909695505050505050565b634e487b7160e01b600052604160045260246000fd5b6040516101c081016001600160401b038111828210171561438957614389614350565b60405290565b604051601f8201601f191681016001600160401b03811182821017156143b7576143b7614350565b604052919050565b803563ffffffff811681146143d357600080fd5b919050565b803561ffff811681146143d357600080fd5b803580151581146143d357600080fd5b60006001600160401b0382111561441357614413614350565b50601f01601f191660200190565b600082601f83011261443257600080fd5b8135614445614440826143fa565b61438f565b81815284602083860101111561445a57600080fd5b816020850160208301376000918101602001919091529392505050565b60006020828403121561448957600080fd5b81356001600160401b03808211156144a057600080fd5b908301906101c082860312156144b557600080fd5b6144bd614366565b823581526020830135602082015260408301356040820152606083013560608201526080830135608082015260a083013560a082015260c083013560c082015261450960e084016143bf565b60e082015261010061451c8185016143d8565b9082015261012083810135908201526101406145398185016143ea565b908201526101608381013590820152610180808401358381111561455c57600080fd5b61456888828701614421565b8284015250506101a0915061457e8284016143ea565b91810191909152949350505050565b6060815260006145a060608301866141c2565b82810360208401526145b281866141c2565b905082810360408401526145c681856141c2565b9695505050505050565b600080600080600080600080610100898b0312156145ed57600080fd5b505086359860208801359850604088013597606081013597506080810135965060a0810135955060c0810135945060e0013592509050565b60408152600061463860408301856141c2565b828103602084015261464a81856141c2565b95945050505050565b6000806040838503121561466657600080fd5b823561467181614201565b915061467f602084016143ea565b90509250929050565b6000806040838503121561469b57600080fd5b8235915061467f602084016143ea565b600080600080608085870312156146c157600080fd5b84356146cc81614201565b935060208501356146dc81614201565b92506040850135915060608501356001600160401b038111156146fe57600080fd5b61470a87828801614421565b91505092959194509250565b6020815281516020820152602082015160408201526040820151606082015260608201516080820152608082015160a082015260a082015160c082015260c082015160e0820152600060e08301516101006147788185018363ffffffff169052565b840151905061012061478f8482018361ffff169052565b8401516101408481019190915284015190506101606147b18185018315159052565b840151610180848101919091528401516101c06101a0808601829052919250906147df6101e08601846141c2565b90860151801515838701529092506133cf565b6000806040838503121561480557600080fd5b8235915060208301356001600160401b0381111561482257600080fd5b61482e85828601614421565b9150509250929050565b60006020828403121561484a57600080fd5b81356001600160401b0381111561486057600080fd5b613a7e84828501614421565b6000806040838503121561487f57600080fd5b823561488a81614201565b9150602083013561489a81614201565b809150509250929050565b600080600080608085870312156148bb57600080fd5b8435935060208501356001600160401b03808211156148d957600080fd5b6148e588838901614421565b945060408701359150808211156148fb57600080fd5b61490788838901614421565b9350606087013591508082111561491d57600080fd5b5061470a87828801614421565b600181811c9082168061493e57607f821691505b60208210810361495e57634e487b7160e01b600052602260045260246000fd5b50919050565b634e487b7160e01b600052601160045260246000fd5b60006001820161498c5761498c614964565b5060010190565b6000602082840312156149a557600080fd5b815161298581614201565b600060208083850312156149c357600080fd5b82516001600160401b03808211156149da57600080fd5b818501915085601f8301126149ee57600080fd5b815181811115614a0057614a00614350565b8060051b9150614a1184830161438f565b8181529183018401918481019088841115614a2b57600080fd5b938501935b83851015614a4957845182529385019390850190614a30565b98975050505050505050565b634e487b7160e01b600052603260045260246000fd5b601f821115611131576000816000526020600020601f850160051c81016020861015614a945750805b601f850160051c820191505b8181101561353d57828155600101614aa0565b81516001600160401b03811115614acc57614acc614350565b614ae081614ada845461492a565b84614a6b565b602080601f831160018114614b155760008415614afd5750858301515b600019600386901b1c1916600185901b17855561353d565b600085815260208120601f198616915b82811015614b4457888601518255948401946001909101908401614b25565b5085821015614b625787850151600019600388901b60f8161c191681555b5050505050600190811b01905550565b6000614b80614440846143fa565b9050828152838383011115614b9457600080fd5b61298583602083018461419e565b600082601f830112614bb357600080fd5b61298583835160208501614b72565b600060208284031215614bd457600080fd5b81516001600160401b03811115614bea57600080fd5b613a7e84828501614ba2565b60008351614c0881846020880161419e565b835190830190614c1c81836020880161419e565b7f3c672069643d226261636b7061636b547261697473223e0000000000000000009101908152601701949350505050565b60008551614c5f818460208a0161419e565b855190830190614c73818360208a0161419e565b8551910190614c8681836020890161419e565b8451910190614c9981836020880161419e565b019695505050505050565b60008251614cb681846020870161419e565b631e17b39f60e11b920191825250600401919050565b81810381811115610ee457610ee4614964565b80820180821115610ee457610ee4614964565b634e487b7160e01b600052601260045260246000fd5b600082614d1757614d17614cf2565b500690565b6020808252602e908201527f4552433732313a2063616c6c6572206973206e6f7420746f6b656e206f776e6560408201526d1c881b9bdc88185c1c1c9bdd995960921b606082015260800190565b600080600060608486031215614d7f57600080fd5b83516001600160401b0380821115614d9657600080fd5b614da287838801614ba2565b94506020860151915080821115614db857600080fd5b818601915086601f830112614dcc57600080fd5b614ddb87835160208501614b72565b93506040860151915080821115614df157600080fd5b50614dfe86828701614ba2565b9150509250925092565b60008351614e1a81846020880161419e565b835190830190614e2e81836020880161419e565b01949350505050565b600060208284031215614e4957600080fd5b5051919050565b6d2261747472696275746573223a5b60901b81528251600090614e7a81600e85016020880161419e565b600b60fa1b600e918401918201528351614e9b81600f84016020880161419e565b605d60f81b600f9290910191820152601001949350505050565b661e39ba3cb6329f60c91b81527f626f64792c207376677b206261636b67726f756e643a20230000000000000000600782015260008351614efd81601f85016020880161419e565b6f3b207d2e6267207b2066696c6c3a202360801b601f918401918201528351614f2d81602f84016020880161419e565b623b207d60e81b602f9290910191820152671e17b9ba3cb6329f60c11b6032820152603a01949350505050565b87815260e060208201526000614f7360e08301896141c2565b8281036040840152614f8581896141c2565b90508281036060840152614f9981886141c2565b90508281036080840152614fad81876141c2565b905082810360a0840152614fc181866141c2565b905082810360c0840152835160408252614fde60408301826141c2565b905060208501518282036020840152614ff782826141c2565b9c9b505050505050505050505050565b6000806040838503121561501a57600080fd5b82516001600160401b038082111561503157600080fd5b61503d86838701614ba2565b9350602085015191508082111561505357600080fd5b5061482e85828601614ba2565b87815260e06020820152600061507960e08301896141c2565b828103604084015261508b81896141c2565b9050828103606084015261509f81886141c2565b905082810360808401526150b381876141c2565b905082810360a08401526150c781866141c2565b905082810360c08401526150db81856141c2565b9a9950505050505050505050565b6000826150f8576150f8614cf2565b500490565b8082028115828204841417610ee457610ee4614964565b60408152600061512760408301856141c2565b90508260208301529392505050565b60006020828403121561514857600080fd5b81516007811061298557600080fd5b634e487b7160e01b600052602160045260246000fd5b6e3d913a3930b4ba2fba3cb832911d1160891b8152825160009061519881600f85016020880161419e565b6a1116113b30b63ab2911d1160a91b600f9184019182015283516151c381601a84016020880161419e565b61227d60f01b601a9290910191820152601c01949350505050565b60208082526032908201527f4552433732313a207472616e7366657220746f206e6f6e20455243373231526560408201527131b2b4bb32b91034b6b83632b6b2b73a32b960711b606082015260800190565b6001600160a01b03858116825284166020820152604081018390526080606082018190526000906145c6908301846141c2565b60006020828403121561527557600080fd5b815161298581614152565b634e487b7160e01b600052603160045260246000fdfe3c7376673e3c7465787420783d22382220793d22313522207374796c653d22666f6e743a206e6f726d616c203270782073616e732d73657269663b2066696c6c3a20626c61636b3b223e436f6d696e6720536f6f6e2e2e2e3c2f746578743e3c2f7376673e8aea9baa1ab7209ce94784ac5f5149343f8d985fd4278de25a7b390989f2cf853c672069643d22416c6c20547261697473223e3c672069643d226261636b7061636b2220636c6173733d22636c6f736564223e3c7061746820643d224d302030204c33302030204c3330203330204c30203330205a222066696c6c3d227267622831322c203130392c203135372922202f3e3c7376672069643d226261636b7061636b5549222076696577426f783d223020302031323020313230223e203c7374796c653e2e75697b77696474683a3170783b206865696768743a203170783b2066696c6c3a77686974657d3c2f7374796c653e203c672069643d22636c6f736542746e22207472616e73666f726d3d227472616e736c61746528322c3229223e203c7265637420783d22312220793d22312220636c6173733d227569223e3c2f726563743e203c7265637420783d22322220793d22322220636c6173733d227569223e3c2f726563743e203c7265637420783d22332220793d22332220636c6173733d227569223e3c2f726563743e203c7265637420783d22342220793d22342220636c6173733d227569223e3c2f726563743e203c7265637420783d22352220793d22352220636c6173733d227569223e3c2f726563743e203c7265637420783d22352220793d22312220636c6173733d227569223e3c2f726563743e203c7265637420783d22342220793d22322220636c6173733d227569223e3c2f726563743e203c212d2d203c7265637420783d22332220793d2233222077696474683d223122206865696768743d2231222066696c6c3d227768697465223e3c2f726563743e202d2d3e203c7265637420783d22322220793d22342220636c6173733d227569223e3c2f726563743e203c7265637420783d22312220793d22352220636c6173733d227569223e3c2f726563743e203c2f673e203c672069643d226c65667442746e2220636c6173733d22627574746f6e22207472616e73666f726d3d227472616e736c6174652834352c31313029223e203c7061746820643d224d302030204c362030204c362036204c302036205a222066696c6c3d227472616e73706172656e7422202f3e203c7265637420783d22322220793d22302220636c6173733d227569223e3c2f726563743e203c7265637420783d22312220793d22312220636c6173733d227569223e3c2f726563743e203c7265637420783d22302220793d22322220636c6173733d227569223e3c2f726563743e203c7265637420783d22312220793d22332220636c6173733d227569223e3c2f726563743e203c7265637420783d22322220793d22342220636c6173733d227569223e3c2f726563743e203c2f673e203c672069643d22726967687442746e2220636c6173733d22627574746f6e22207472616e73666f726d3d227472616e736c6174652836352c31313029223e203c7061746820643d224d302030204c362030204c362036204c302036205a222066696c6c3d227472616e73706172656e7422202f3e203c7265637420783d22332220793d22302220636c6173733d227569223e3c2f726563743e203c7265637420783d22342220793d22312220636c6173733d227569223e3c2f726563743e203c7265637420783d22352220793d22322220636c6173733d227569223e3c2f726563743e203c7265637420783d22342220793d22332220636c6173733d227569223e3c2f726563743e203c7265637420783d22332220793d22342220636c6173733d227569223e3c2f726563743e203c2f673e203c2f7376673e20a26469706673582212201592dd34ca1b20086b263651b502257e547c0098b8d4230e13033f7bdc4f793364736f6c63430008160033","linkReferences":{}},"methodIdentifiers":{"MAX_TRAITS_TO_OUTPUT()":"20e0b93c","_debugPostConstructorMint()":"9c7be2f1","addNewBody(uint256,string,bytes,bytes)":"f2361e23","approve(address,uint256)":"095ea7b3","balanceOf(address)":"70a08231","bodyIndexToMetadata(uint256)":"0c83f9d7","buyTrait(uint256)":"6273ca2c","cancelOwnershipHandover()":"54d1f13d","completeOwnershipHandover(address)":"f04e283e","equipAll(uint256,uint256,uint256,uint256,uint256,uint256,uint256,uint256)":"4a4333a3","equipGlasses(uint256,uint256)":"21468d02","equipHair(uint256,uint256)":"94cbd9c4","equipHandheld(uint256,uint256)":"f225dc40","equipHat(uint256,uint256)":"e5a68261","equipPants(uint256,uint256)":"5a5474dd","equipShirt(uint256,uint256)":"a860c96c","equipShoes(uint256,uint256)":"60b77b23","firstSeasonRenderMinter()":"13ea0ae3","getApproved(uint256)":"081812fc","getBackpackSVGs(uint256)":"14fe8ff4","getBodyImage(bytes)":"e37db3c2","getBodyImageSvg(uint256)":"916c546b","getBodySVGZmapsAndMetadata((uint256,uint256,uint256,uint256,uint256,uint256,uint256,uint32,uint16,uint256,bool,uint256,string,bool))":"45d2d7bd","getBodySvgAndMetadata((uint256,uint256,uint256,uint256,uint256,uint256,uint256,uint32,uint16,uint256,bool,uint256,string,bool))":"661ee23a","getBodyZMap(uint256)":"306c7334","getEpoch()":"757991a8","getEpochData(uint256)":"859e7d32","getOwnerAndTBAAddressForTokenId(uint256)":"cc9a5d37","getPeter(uint256)":"be928ff6","getPeterZMap(uint256)":"2bd1ca45","getTraitTokens(address)":"998cfb6e","isApprovedForAll(address,address)":"e985e9c5","mainRenderer()":"66b89b5a","mint()":"1249c58b","name()":"06fdde03","owner()":"8da5cb5b","ownerOf(uint256)":"6352211e","ownershipHandoverExpiresAt(address)":"fee81cf4","price()":"a035b1fe","renderAsDataUri(uint256)":"a1d62680","renderAsDataUriSVG(uint256)":"b28fbe40","renderAsDataUriZ(uint256)":"7557f2dc","renounceOwnership()":"715018a6","requestOwnershipHandover()":"25692962","resolveEpochIfNecessary()":"239ffa68","safeTransferFrom(address,address,uint256)":"42842e0e","safeTransferFrom(address,address,uint256,bytes)":"b88d4fde","setApprovalForAll(address,bool)":"a22cb465","setBackgroundColor(uint256,string)":"d68c4f32","setFirstSeasonRenderMinter(address)":"58a97640","setMainRenderer(address)":"4ddb3961","setMaxTraitsToOutput(uint256)":"33d3d9bf","setPrice(uint256)":"91b7f5ed","setRenderZ(uint256,bool)":"b53d1fd7","setTraitsContract(address)":"5eabd84a","setZRenderer(address)":"172b054d","supportsInterface(bytes4)":"01ffc9a7","symbol()":"95d89b41","tokenByIndex(uint256)":"4f6ccce7","tokenIdToTBAAccountAddress(uint256)":"9c05d68d","tokenOfOwnerByIndex(address,uint256)":"2f745c59","tokenURI(uint256)":"c87b56dd","totalSupply()":"18160ddd","traitsContract()":"c093afdb","transferFrom(address,address,uint256)":"23b872dd","transferOwnership(address)":"f2fde38b","unequipAll(uint256)":"3044825b","unequipGlasses(uint256)":"3fdc97fd","unequipHair(uint256)":"105338e0","unequipHandheld(uint256)":"7365eea8","unequipHat(uint256)":"b5282793","unequipPants(uint256)":"06e02a35","unequipShirt(uint256)":"a959bb1d","unequipShoes(uint256)":"58180d35","walletOfOwner(address)":"438b6300","zRenderer()":"a15c561b"},"id":42}