{"abi":[{"type":"constructor","inputs":[{"name":"localDeploy_","type":"bool","internalType":"bool"}],"stateMutability":"nonpayable"},{"type":"function","name":"MAX_TRAITS_TO_OUTPUT","inputs":[],"outputs":[{"name":"","type":"uint256","internalType":"uint256"}],"stateMutability":"view"},{"type":"function","name":"_debugPostConstructorMint","inputs":[],"outputs":[],"stateMutability":"nonpayable"},{"type":"function","name":"addNewBody","inputs":[{"name":"_bodyIndex","type":"uint256","internalType":"uint256"},{"name":"_bodyName","type":"string","internalType":"string"},{"name":"_colorMap","type":"bytes","internalType":"bytes"},{"name":"_zMap","type":"bytes","internalType":"bytes"}],"outputs":[],"stateMutability":"nonpayable"},{"type":"function","name":"approve","inputs":[{"name":"to","type":"address","internalType":"address"},{"name":"tokenId","type":"uint256","internalType":"uint256"}],"outputs":[],"stateMutability":"nonpayable"},{"type":"function","name":"balanceOf","inputs":[{"name":"owner","type":"address","internalType":"address"}],"outputs":[{"name":"","type":"uint256","internalType":"uint256"}],"stateMutability":"view"},{"type":"function","name":"bodyIndexToMetadata","inputs":[{"name":"","type":"uint256","internalType":"uint256"}],"outputs":[{"name":"bodyIndex","type":"uint256","internalType":"uint256"},{"name":"bodyName","type":"string","internalType":"string"},{"name":"colorMap","type":"bytes","internalType":"bytes"},{"name":"zMap","type":"bytes","internalType":"bytes"}],"stateMutability":"view"},{"type":"function","name":"buyTrait","inputs":[{"name":"_tokenId","type":"uint256","internalType":"uint256"}],"outputs":[],"stateMutability":"nonpayable"},{"type":"function","name":"cancelOwnershipHandover","inputs":[],"outputs":[],"stateMutability":"payable"},{"type":"function","name":"completeOwnershipHandover","inputs":[{"name":"pendingOwner","type":"address","internalType":"address"}],"outputs":[],"stateMutability":"payable"},{"type":"function","name":"equipAccessory","inputs":[{"name":"_peterTokenId","type":"uint256","internalType":"uint256"},{"name":"_traitTokenId","type":"uint256","internalType":"uint256"}],"outputs":[],"stateMutability":"nonpayable"},{"type":"function","name":"equipAll","inputs":[{"name":"_peterTokenId","type":"uint256","internalType":"uint256"},{"name":"_hatTokenId","type":"uint256","internalType":"uint256"},{"name":"_hairTokenId","type":"uint256","internalType":"uint256"},{"name":"_faceTokenId","type":"uint256","internalType":"uint256"},{"name":"_accessoryTokenId","type":"uint256","internalType":"uint256"},{"name":"_topTokenId","type":"uint256","internalType":"uint256"},{"name":"_bottomTokenId","type":"uint256","internalType":"uint256"},{"name":"_shoesTokenId","type":"uint256","internalType":"uint256"}],"outputs":[],"stateMutability":"nonpayable"},{"type":"function","name":"equipBottom","inputs":[{"name":"_peterTokenId","type":"uint256","internalType":"uint256"},{"name":"_traitTokenId","type":"uint256","internalType":"uint256"}],"outputs":[],"stateMutability":"nonpayable"},{"type":"function","name":"equipFace","inputs":[{"name":"_peterTokenId","type":"uint256","internalType":"uint256"},{"name":"_traitTokenId","type":"uint256","internalType":"uint256"}],"outputs":[],"stateMutability":"nonpayable"},{"type":"function","name":"equipHair","inputs":[{"name":"_peterTokenId","type":"uint256","internalType":"uint256"},{"name":"_traitTokenId","type":"uint256","internalType":"uint256"}],"outputs":[],"stateMutability":"nonpayable"},{"type":"function","name":"equipHat","inputs":[{"name":"_peterTokenId","type":"uint256","internalType":"uint256"},{"name":"_traitTokenId","type":"uint256","internalType":"uint256"}],"outputs":[],"stateMutability":"nonpayable"},{"type":"function","name":"equipShoes","inputs":[{"name":"_peterTokenId","type":"uint256","internalType":"uint256"},{"name":"_traitTokenId","type":"uint256","internalType":"uint256"}],"outputs":[],"stateMutability":"nonpayable"},{"type":"function","name":"equipTop","inputs":[{"name":"_peterTokenId","type":"uint256","internalType":"uint256"},{"name":"_traitTokenId","type":"uint256","internalType":"uint256"}],"outputs":[],"stateMutability":"nonpayable"},{"type":"function","name":"firstSeasonRenderMinter","inputs":[],"outputs":[{"name":"","type":"address","internalType":"contract FirstSeasonRenderMinter"}],"stateMutability":"view"},{"type":"function","name":"getApproved","inputs":[{"name":"tokenId","type":"uint256","internalType":"uint256"}],"outputs":[{"name":"","type":"address","internalType":"address"}],"stateMutability":"view"},{"type":"function","name":"getBackpackSVGs","inputs":[{"name":"_tokenId","type":"uint256","internalType":"uint256"}],"outputs":[{"name":"backpackSVGs","type":"string","internalType":"string"}],"stateMutability":"view"},{"type":"function","name":"getBodyImage","inputs":[{"name":"colorMap","type":"bytes","internalType":"bytes"}],"outputs":[{"name":"","type":"bytes","internalType":"bytes"}],"stateMutability":"pure"},{"type":"function","name":"getBodyImageSvg","inputs":[{"name":"_index","type":"uint256","internalType":"uint256"}],"outputs":[{"name":"svg","type":"string","internalType":"string"}],"stateMutability":"view"},{"type":"function","name":"getBodySVGZmapsAndMetadata","inputs":[{"name":"storedPeter","type":"tuple","internalType":"struct IPeterStorage.StoredPeter","components":[{"name":"hatId","type":"uint256","internalType":"uint256"},{"name":"hairId","type":"uint256","internalType":"uint256"},{"name":"faceId","type":"uint256","internalType":"uint256"},{"name":"accessoryId","type":"uint256","internalType":"uint256"},{"name":"topId","type":"uint256","internalType":"uint256"},{"name":"bottomId","type":"uint256","internalType":"uint256"},{"name":"shoesId","type":"uint256","internalType":"uint256"},{"name":"epoch","type":"uint32","internalType":"uint32"},{"name":"tokenId","type":"uint16","internalType":"uint16"},{"name":"bodyIndex","type":"uint256","internalType":"uint256"},{"name":"isRevealed","type":"bool","internalType":"bool"},{"name":"seed","type":"uint256","internalType":"uint256"},{"name":"backgroundColor","type":"string","internalType":"string"},{"name":"renderZ","type":"bool","internalType":"bool"}]}],"outputs":[{"name":"","type":"string","internalType":"string"},{"name":"","type":"bytes","internalType":"bytes"},{"name":"","type":"string","internalType":"string"}],"stateMutability":"view"},{"type":"function","name":"getBodySvgAndMetadata","inputs":[{"name":"storedPeter","type":"tuple","internalType":"struct IPeterStorage.StoredPeter","components":[{"name":"hatId","type":"uint256","internalType":"uint256"},{"name":"hairId","type":"uint256","internalType":"uint256"},{"name":"faceId","type":"uint256","internalType":"uint256"},{"name":"accessoryId","type":"uint256","internalType":"uint256"},{"name":"topId","type":"uint256","internalType":"uint256"},{"name":"bottomId","type":"uint256","internalType":"uint256"},{"name":"shoesId","type":"uint256","internalType":"uint256"},{"name":"epoch","type":"uint32","internalType":"uint32"},{"name":"tokenId","type":"uint16","internalType":"uint16"},{"name":"bodyIndex","type":"uint256","internalType":"uint256"},{"name":"isRevealed","type":"bool","internalType":"bool"},{"name":"seed","type":"uint256","internalType":"uint256"},{"name":"backgroundColor","type":"string","internalType":"string"},{"name":"renderZ","type":"bool","internalType":"bool"}]}],"outputs":[{"name":"","type":"string","internalType":"string"},{"name":"","type":"string","internalType":"string"}],"stateMutability":"view"},{"type":"function","name":"getBodyZMap","inputs":[{"name":"_tokenId","type":"uint256","internalType":"uint256"}],"outputs":[{"name":"","type":"string","internalType":"string"}],"stateMutability":"view"},{"type":"function","name":"getEpoch","inputs":[],"outputs":[{"name":"","type":"uint256","internalType":"uint256"}],"stateMutability":"view"},{"type":"function","name":"getEpochData","inputs":[{"name":"index","type":"uint256","internalType":"uint256"}],"outputs":[{"name":"","type":"tuple","internalType":"struct CommitReveal.Epoch","components":[{"name":"randomness","type":"uint128","internalType":"uint128"},{"name":"revealBlock","type":"uint64","internalType":"uint64"},{"name":"committed","type":"bool","internalType":"bool"},{"name":"revealed","type":"bool","internalType":"bool"}]}],"stateMutability":"view"},{"type":"function","name":"getOwnerAndTBAAddressForTokenId","inputs":[{"name":"_tokenId","type":"uint256","internalType":"uint256"}],"outputs":[{"name":"owner","type":"address","internalType":"address"},{"name":"tbaAddress","type":"address","internalType":"address"}],"stateMutability":"view"},{"type":"function","name":"getPeter","inputs":[{"name":"_tokenId","type":"uint256","internalType":"uint256"}],"outputs":[{"name":"","type":"tuple","internalType":"struct IPeterStorage.StoredPeter","components":[{"name":"hatId","type":"uint256","internalType":"uint256"},{"name":"hairId","type":"uint256","internalType":"uint256"},{"name":"faceId","type":"uint256","internalType":"uint256"},{"name":"accessoryId","type":"uint256","internalType":"uint256"},{"name":"topId","type":"uint256","internalType":"uint256"},{"name":"bottomId","type":"uint256","internalType":"uint256"},{"name":"shoesId","type":"uint256","internalType":"uint256"},{"name":"epoch","type":"uint32","internalType":"uint32"},{"name":"tokenId","type":"uint16","internalType":"uint16"},{"name":"bodyIndex","type":"uint256","internalType":"uint256"},{"name":"isRevealed","type":"bool","internalType":"bool"},{"name":"seed","type":"uint256","internalType":"uint256"},{"name":"backgroundColor","type":"string","internalType":"string"},{"name":"renderZ","type":"bool","internalType":"bool"}]}],"stateMutability":"view"},{"type":"function","name":"getPeterZMap","inputs":[{"name":"_tokenId","type":"uint256","internalType":"uint256"}],"outputs":[{"name":"","type":"string","internalType":"string"}],"stateMutability":"view"},{"type":"function","name":"getTraitTokens","inputs":[{"name":"_tbaAddress","type":"address","internalType":"address"}],"outputs":[{"name":"","type":"uint256[]","internalType":"uint256[]"}],"stateMutability":"view"},{"type":"function","name":"isApprovedForAll","inputs":[{"name":"owner","type":"address","internalType":"address"},{"name":"operator","type":"address","internalType":"address"}],"outputs":[{"name":"","type":"bool","internalType":"bool"}],"stateMutability":"view"},{"type":"function","name":"mainRenderer","inputs":[],"outputs":[{"name":"","type":"address","internalType":"contract MainRenderer"}],"stateMutability":"view"},{"type":"function","name":"mint","inputs":[],"outputs":[],"stateMutability":"payable"},{"type":"function","name":"name","inputs":[],"outputs":[{"name":"","type":"string","internalType":"string"}],"stateMutability":"view"},{"type":"function","name":"owner","inputs":[],"outputs":[{"name":"result","type":"address","internalType":"address"}],"stateMutability":"view"},{"type":"function","name":"ownerOf","inputs":[{"name":"tokenId","type":"uint256","internalType":"uint256"}],"outputs":[{"name":"","type":"address","internalType":"address"}],"stateMutability":"view"},{"type":"function","name":"ownershipHandoverExpiresAt","inputs":[{"name":"pendingOwner","type":"address","internalType":"address"}],"outputs":[{"name":"result","type":"uint256","internalType":"uint256"}],"stateMutability":"view"},{"type":"function","name":"price","inputs":[],"outputs":[{"name":"","type":"uint256","internalType":"uint256"}],"stateMutability":"view"},{"type":"function","name":"renderAsDataUri","inputs":[{"name":"_tokenId","type":"uint256","internalType":"uint256"}],"outputs":[{"name":"","type":"string","internalType":"string"}],"stateMutability":"view"},{"type":"function","name":"renderAsDataUriSVG","inputs":[{"name":"_tokenId","type":"uint256","internalType":"uint256"}],"outputs":[{"name":"","type":"string","internalType":"string"}],"stateMutability":"view"},{"type":"function","name":"renderAsDataUriZ","inputs":[{"name":"_tokenId","type":"uint256","internalType":"uint256"}],"outputs":[{"name":"","type":"string","internalType":"string"}],"stateMutability":"view"},{"type":"function","name":"renounceOwnership","inputs":[],"outputs":[],"stateMutability":"payable"},{"type":"function","name":"requestOwnershipHandover","inputs":[],"outputs":[],"stateMutability":"payable"},{"type":"function","name":"resolveEpochIfNecessary","inputs":[],"outputs":[],"stateMutability":"nonpayable"},{"type":"function","name":"safeTransferFrom","inputs":[{"name":"from","type":"address","internalType":"address"},{"name":"to","type":"address","internalType":"address"},{"name":"tokenId","type":"uint256","internalType":"uint256"}],"outputs":[],"stateMutability":"nonpayable"},{"type":"function","name":"safeTransferFrom","inputs":[{"name":"from","type":"address","internalType":"address"},{"name":"to","type":"address","internalType":"address"},{"name":"tokenId","type":"uint256","internalType":"uint256"},{"name":"data","type":"bytes","internalType":"bytes"}],"outputs":[],"stateMutability":"nonpayable"},{"type":"function","name":"setApprovalForAll","inputs":[{"name":"operator","type":"address","internalType":"address"},{"name":"approved","type":"bool","internalType":"bool"}],"outputs":[],"stateMutability":"nonpayable"},{"type":"function","name":"setBackgroundColor","inputs":[{"name":"_peterTokenId","type":"uint256","internalType":"uint256"},{"name":"_color","type":"string","internalType":"string"}],"outputs":[],"stateMutability":"nonpayable"},{"type":"function","name":"setBodyIndex","inputs":[{"name":"_peterTokenId","type":"uint256","internalType":"uint256"},{"name":"_bodyIndex","type":"uint256","internalType":"uint256"}],"outputs":[],"stateMutability":"nonpayable"},{"type":"function","name":"setFirstSeasonRenderMinter","inputs":[{"name":"_dataContract","type":"address","internalType":"address"}],"outputs":[],"stateMutability":"nonpayable"},{"type":"function","name":"setMainRenderer","inputs":[{"name":"_mainRenderer","type":"address","internalType":"address"}],"outputs":[],"stateMutability":"nonpayable"},{"type":"function","name":"setMaxTraitsToOutput","inputs":[{"name":"_maxTraitsToOutput","type":"uint256","internalType":"uint256"}],"outputs":[],"stateMutability":"nonpayable"},{"type":"function","name":"setPrice","inputs":[{"name":"_priceInWei","type":"uint256","internalType":"uint256"}],"outputs":[],"stateMutability":"nonpayable"},{"type":"function","name":"setRenderZ","inputs":[{"name":"_peterTokenId","type":"uint256","internalType":"uint256"},{"name":"_renderZ","type":"bool","internalType":"bool"}],"outputs":[],"stateMutability":"nonpayable"},{"type":"function","name":"setTraitsContract","inputs":[{"name":"_address","type":"address","internalType":"contract PeterTraits"}],"outputs":[],"stateMutability":"nonpayable"},{"type":"function","name":"setZRenderer","inputs":[{"name":"_zRenderer","type":"address","internalType":"address"}],"outputs":[],"stateMutability":"nonpayable"},{"type":"function","name":"supportsInterface","inputs":[{"name":"interfaceId","type":"bytes4","internalType":"bytes4"}],"outputs":[{"name":"","type":"bool","internalType":"bool"}],"stateMutability":"view"},{"type":"function","name":"symbol","inputs":[],"outputs":[{"name":"","type":"string","internalType":"string"}],"stateMutability":"view"},{"type":"function","name":"tokenByIndex","inputs":[{"name":"index","type":"uint256","internalType":"uint256"}],"outputs":[{"name":"","type":"uint256","internalType":"uint256"}],"stateMutability":"view"},{"type":"function","name":"tokenIdToTBAAccountAddress","inputs":[{"name":"","type":"uint256","internalType":"uint256"}],"outputs":[{"name":"","type":"uint160","internalType":"uint160"}],"stateMutability":"view"},{"type":"function","name":"tokenOfOwnerByIndex","inputs":[{"name":"owner","type":"address","internalType":"address"},{"name":"index","type":"uint256","internalType":"uint256"}],"outputs":[{"name":"","type":"uint256","internalType":"uint256"}],"stateMutability":"view"},{"type":"function","name":"tokenURI","inputs":[{"name":"_tokenId","type":"uint256","internalType":"uint256"}],"outputs":[{"name":"","type":"string","internalType":"string"}],"stateMutability":"view"},{"type":"function","name":"totalSupply","inputs":[],"outputs":[{"name":"","type":"uint256","internalType":"uint256"}],"stateMutability":"view"},{"type":"function","name":"traitsContract","inputs":[],"outputs":[{"name":"","type":"address","internalType":"contract PeterTraits"}],"stateMutability":"view"},{"type":"function","name":"transferFrom","inputs":[{"name":"from","type":"address","internalType":"address"},{"name":"to","type":"address","internalType":"address"},{"name":"tokenId","type":"uint256","internalType":"uint256"}],"outputs":[],"stateMutability":"nonpayable"},{"type":"function","name":"transferOwnership","inputs":[{"name":"newOwner","type":"address","internalType":"address"}],"outputs":[],"stateMutability":"payable"},{"type":"function","name":"unequipAccessory","inputs":[{"name":"_peterTokenId","type":"uint256","internalType":"uint256"}],"outputs":[],"stateMutability":"nonpayable"},{"type":"function","name":"unequipAll","inputs":[{"name":"_peterTokenId","type":"uint256","internalType":"uint256"}],"outputs":[],"stateMutability":"nonpayable"},{"type":"function","name":"unequipBottom","inputs":[{"name":"_peterTokenId","type":"uint256","internalType":"uint256"}],"outputs":[],"stateMutability":"nonpayable"},{"type":"function","name":"unequipFace","inputs":[{"name":"_peterTokenId","type":"uint256","internalType":"uint256"}],"outputs":[],"stateMutability":"nonpayable"},{"type":"function","name":"unequipHair","inputs":[{"name":"_peterTokenId","type":"uint256","internalType":"uint256"}],"outputs":[],"stateMutability":"nonpayable"},{"type":"function","name":"unequipHat","inputs":[{"name":"_peterTokenId","type":"uint256","internalType":"uint256"}],"outputs":[],"stateMutability":"nonpayable"},{"type":"function","name":"unequipShoes","inputs":[{"name":"_peterTokenId","type":"uint256","internalType":"uint256"}],"outputs":[],"stateMutability":"nonpayable"},{"type":"function","name":"unequipTop","inputs":[{"name":"_peterTokenId","type":"uint256","internalType":"uint256"}],"outputs":[],"stateMutability":"nonpayable"},{"type":"function","name":"walletOfOwner","inputs":[{"name":"_owner","type":"address","internalType":"address"}],"outputs":[{"name":"","type":"uint256[]","internalType":"uint256[]"}],"stateMutability":"view"},{"type":"function","name":"zRenderer","inputs":[],"outputs":[{"name":"","type":"address","internalType":"contract ZRenderer"}],"stateMutability":"view"},{"type":"event","name":"Approval","inputs":[{"name":"owner","type":"address","indexed":true,"internalType":"address"},{"name":"approved","type":"address","indexed":true,"internalType":"address"},{"name":"tokenId","type":"uint256","indexed":true,"internalType":"uint256"}],"anonymous":false},{"type":"event","name":"ApprovalForAll","inputs":[{"name":"owner","type":"address","indexed":true,"internalType":"address"},{"name":"operator","type":"address","indexed":true,"internalType":"address"},{"name":"approved","type":"bool","indexed":false,"internalType":"bool"}],"anonymous":false},{"type":"event","name":"BatchMetadataUpdate","inputs":[{"name":"_fromTokenId","type":"uint256","indexed":false,"internalType":"uint256"},{"name":"_toTokenId","type":"uint256","indexed":false,"internalType":"uint256"}],"anonymous":false},{"type":"event","name":"Equip","inputs":[{"name":"owner","type":"address","indexed":true,"internalType":"address"},{"name":"tokenId","type":"uint256","indexed":true,"internalType":"uint256"},{"name":"traitTokenId","type":"uint256","indexed":true,"internalType":"uint256"},{"name":"traitCategory","type":"string","indexed":false,"internalType":"string"}],"anonymous":false},{"type":"event","name":"EquipAll","inputs":[{"name":"owner","type":"address","indexed":true,"internalType":"address"},{"name":"tokenId","type":"uint256","indexed":true,"internalType":"uint256"}],"anonymous":false},{"type":"event","name":"MetadataUpdate","inputs":[{"name":"_tokenId","type":"uint256","indexed":false,"internalType":"uint256"}],"anonymous":false},{"type":"event","name":"Mint","inputs":[{"name":"owner","type":"address","indexed":true,"internalType":"address"},{"name":"tokenId","type":"uint256","indexed":true,"internalType":"uint256"}],"anonymous":false},{"type":"event","name":"NewEpoch","inputs":[{"name":"epoch","type":"uint256","indexed":true,"internalType":"uint256"},{"name":"revealBlock","type":"uint64","indexed":true,"internalType":"uint64"}],"anonymous":false},{"type":"event","name":"OwnershipHandoverCanceled","inputs":[{"name":"pendingOwner","type":"address","indexed":true,"internalType":"address"}],"anonymous":false},{"type":"event","name":"OwnershipHandoverRequested","inputs":[{"name":"pendingOwner","type":"address","indexed":true,"internalType":"address"}],"anonymous":false},{"type":"event","name":"OwnershipTransferred","inputs":[{"name":"oldOwner","type":"address","indexed":true,"internalType":"address"},{"name":"newOwner","type":"address","indexed":true,"internalType":"address"}],"anonymous":false},{"type":"event","name":"Transfer","inputs":[{"name":"from","type":"address","indexed":true,"internalType":"address"},{"name":"to","type":"address","indexed":true,"internalType":"address"},{"name":"tokenId","type":"uint256","indexed":true,"internalType":"uint256"}],"anonymous":false},{"type":"event","name":"Unequip","inputs":[{"name":"owner","type":"address","indexed":true,"internalType":"address"},{"name":"tokenId","type":"uint256","indexed":true,"internalType":"uint256"},{"name":"traitCategory","type":"string","indexed":true,"internalType":"string"}],"anonymous":false},{"type":"event","name":"UnequipAll","inputs":[{"name":"owner","type":"address","indexed":true,"internalType":"address"},{"name":"tokenId","type":"uint256","indexed":true,"internalType":"uint256"}],"anonymous":false},{"type":"error","name":"AlreadyInitialized","inputs":[]},{"type":"error","name":"BodyAlreadyExists","inputs":[]},{"type":"error","name":"FirstSeasonRenderMinterNotSet","inputs":[]},{"type":"error","name":"IncorrectPeterOwner","inputs":[]},{"type":"error","name":"IncorrectTBAOwner","inputs":[]},{"type":"error","name":"IncorrectTraitType","inputs":[]},{"type":"error","name":"NewOwnerIsZeroAddress","inputs":[]},{"type":"error","name":"NoHandoverRequest","inputs":[]},{"type":"error","name":"PeterDoesntExist","inputs":[]},{"type":"error","name":"Unauthorized","inputs":[]}],"bytecode":{"object":"0x6080604052600060105560456012553480156200001b57600080fd5b5060405162005b2138038062005b218339810160408190526200003e9162000106565b6040518060400160405280600a81526020016914195d195c8815195cdd60b21b815250604051806040016040528060058152602001642822aa22a960d91b8152508160009081620000909190620001d8565b5060016200009f8282620001d8565b505050620000b333620000ca60201b60201c565b600a805460ff1916911515919091179055620002a4565b6001600160a01b0316638b78c6d8198190558060007f8be0079c531659141344cd1fd0a4f28419497f9722a3daafe3b4186f6b6457e08180a350565b6000602082840312156200011957600080fd5b815180151581146200012a57600080fd5b9392505050565b634e487b7160e01b600052604160045260246000fd5b600181811c908216806200015c57607f821691505b6020821081036200017d57634e487b7160e01b600052602260045260246000fd5b50919050565b601f821115620001d3576000816000526020600020601f850160051c81016020861015620001ae5750805b601f850160051c820191505b81811015620001cf57828155600101620001ba565b5050505b505050565b81516001600160401b03811115620001f457620001f462000131565b6200020c8162000205845462000147565b8462000183565b602080601f8311600181146200024457600084156200022b5750858301515b600019600386901b1c1916600185901b178555620001cf565b600085815260208120601f198616915b82811015620002755788860151825594840194600190910190840162000254565b5085821015620002945787850151600019600388901b60f8161c191681555b5050505050600190811b01905550565b61586d80620002b46000396000f3fe6080604052600436106104525760003560e01c80636352211e1161023f578063a1d6268011610139578063d5b55c8b116100b6578063f04e283e1161007a578063f04e283e14610e6b578063f18dc22d14610e7e578063f2361e2314610e9e578063f2fde38b14610ebe578063fee81cf414610ed157600080fd5b8063d5b55c8b14610da2578063d68c4f3214610dc2578063e37db3c214610de2578063e5a6826114610e02578063e985e9c514610e2257600080fd5b8063b88d4fde116100fd578063b88d4fde14610cd5578063be928ff614610cf5578063c093afdb14610d22578063c87b56dd14610d42578063cc9a5d3714610d6257600080fd5b8063a1d6268014610c17578063a22cb46514610c37578063b28fbe4014610c57578063b528279314610c77578063b53d1fd714610c9757600080fd5b8063916c546b116101c75780639c05d68d1161018b5780639c05d68d14610b765780639c76201514610bac5780639c7be2f114610bcc578063a035b1fe14610be1578063a15c561b14610bf757600080fd5b8063916c546b14610ae157806391b7f5ed14610b0157806394cbd9c414610b2157806395d89b4114610b41578063998cfb6e14610b5657600080fd5b8063715018a61161020e578063715018a6146109a45780637557f2dc146109ac578063757991a8146109cc578063859e7d32146109e15780638da5cb5b14610ac857600080fd5b80636352211e14610916578063661ee23a1461093657806366b89b5a1461096457806370a082311461098457600080fd5b80632f745c591161035057806345d2d7bd116102d857806358180d351161029c57806358180d351461087657806358a97640146108965780635eabd84a146108b657806360b77b23146108d65780636273ca2c146108f657600080fd5b806345d2d7bd146107df5780634a4333a31461080e5780634ddb39611461082e5780634f6ccce71461084e57806354d1f13d1461086e57600080fd5b8063347bd8f41161031f578063347bd8f41461073257806342842e0e14610752578063438b630014610772578063457e7e611461079f57806345a10d0f146107bf57600080fd5b80632f745c59146106b25780633044825b146106d2578063306c7334146106f257806333d3d9bf1461071257600080fd5b806313ea0ae3116103de578063239ffa68116103a2578063239ffa681461063557806323b872dd1461064a578063256929621461066a578063293ed3f7146106725780632bd1ca451461069257600080fd5b806313ea0ae3146105a057806314fe8ff4146105c0578063172b054d146105e057806318160ddd1461060057806320e0b93c1461061f57600080fd5b8063095ea7b311610425578063095ea7b3146105085780630c83f9d7146105285780630f16232014610558578063105338e0146105785780631249c58b1461059857600080fd5b806301ffc9a7146104575780630447a45e1461048c57806306fdde03146104ae578063081812fc146104d0575b600080fd5b34801561046357600080fd5b5061047761047236600461417f565b610f04565b60405190151581526020015b60405180910390f35b34801561049857600080fd5b506104ac6104a736600461419c565b610f15565b005b3480156104ba57600080fd5b506104c3610f97565b604051610483919061420e565b3480156104dc57600080fd5b506104f06104eb366004614221565b611029565b6040516001600160a01b039091168152602001610483565b34801561051457600080fd5b506104ac61052336600461424f565b611050565b34801561053457600080fd5b50610548610543366004614221565b61116a565b604051610483949392919061427b565b34801561056457600080fd5b506104ac61057336600461419c565b61132b565b34801561058457600080fd5b506104ac610593366004614221565b61139c565b6104ac611414565b3480156105ac57600080fd5b506014546104f0906001600160a01b031681565b3480156105cc57600080fd5b506104c36105db366004614221565b61177b565b3480156105ec57600080fd5b506104ac6105fb3660046142c5565b6119dd565b34801561060c57600080fd5b506008545b604051908152602001610483565b34801561062b57600080fd5b5061061160125481565b34801561064157600080fd5b506104ac611a07565b34801561065657600080fd5b506104ac6106653660046142e2565b611be3565b6104ac611c14565b34801561067e57600080fd5b506104ac61068d366004614221565b611c63565b34801561069e57600080fd5b506104c36106ad366004614221565b611c9a565b3480156106be57600080fd5b506106116106cd36600461424f565b611d5e565b3480156106de57600080fd5b506104ac6106ed366004614221565b611df4565b3480156106fe57600080fd5b506104c361070d366004614221565b611e7c565b34801561071e57600080fd5b506104ac61072d366004614221565b611e9f565b34801561073e57600080fd5b506104ac61074d366004614221565b611eac565b34801561075e57600080fd5b506104ac61076d3660046142e2565b611edd565b34801561077e57600080fd5b5061079261078d3660046142c5565b611ef8565b6040516104839190614323565b3480156107ab57600080fd5b506104ac6107ba36600461419c565b611f8f565b3480156107cb57600080fd5b506104ac6107da36600461419c565b611ff4565b3480156107eb57600080fd5b506107ff6107fa36600461448e565b612067565b604051610483939291906145a4565b34801561081a57600080fd5b506104ac6108293660046145e7565b612251565b34801561083a57600080fd5b506104ac6108493660046142c5565b61230a565b34801561085a57600080fd5b50610611610869366004614221565b612334565b6104ac6123c7565b34801561088257600080fd5b506104ac610891366004614221565b612403565b3480156108a257600080fd5b506104ac6108b13660046142c5565b612436565b3480156108c257600080fd5b506104ac6108d13660046142c5565b612460565b3480156108e257600080fd5b506104ac6108f136600461419c565b61248a565b34801561090257600080fd5b506104ac610911366004614221565b6124fc565b34801561092257600080fd5b506104f0610931366004614221565b612580565b34801561094257600080fd5b5061095661095136600461448e565b6125e0565b60405161048392919061463c565b34801561097057600080fd5b506015546104f0906001600160a01b031681565b34801561099057600080fd5b5061061161099f3660046142c5565b612687565b6104ac61270d565b3480156109b857600080fd5b506104c36109c7366004614221565b612721565b3480156109d857600080fd5b50600d54610611565b3480156109ed57600080fd5b50610a7f6109fc366004614221565b6040805160808082018352600080835260208084018290528385018290526060938401829052948152600c855283902083519182018452546001600160801b03811682526001600160401b03600160801b8204169482019490945260ff600160c01b85048116151593820193909352600160c81b90930490911615159082015290565b604051610483919081516001600160801b031681526020808301516001600160401b03169082015260408083015115159082015260609182015115159181019190915260800190565b348015610ad457600080fd5b50638b78c6d819546104f0565b348015610aed57600080fd5b506104c3610afc366004614221565b612901565b348015610b0d57600080fd5b506104ac610b1c366004614221565b612a25565b348015610b2d57600080fd5b506104ac610b3c36600461419c565b612a32565b348015610b4d57600080fd5b506104c3612aa3565b348015610b6257600080fd5b50610792610b713660046142c5565b612ab2565b348015610b8257600080fd5b506104f0610b91366004614221565b6013602052600090815260409020546001600160a01b031681565b348015610bb857600080fd5b506104ac610bc7366004614221565b612b28565b348015610bd857600080fd5b506104ac612b5c565b348015610bed57600080fd5b5061061160115481565b348015610c0357600080fd5b506016546104f0906001600160a01b031681565b348015610c2357600080fd5b506104c3610c32366004614221565b612b83565b348015610c4357600080fd5b506104ac610c5236600461466a565b612bb3565b348015610c6357600080fd5b506104c3610c72366004614221565b612bc2565b348015610c8357600080fd5b506104ac610c92366004614221565b612d21565b348015610ca357600080fd5b506104ac610cb236600461469f565b6000918252600b6020526040909120600c01805460ff1916911515919091179055565b348015610ce157600080fd5b506104ac610cf03660046146c2565b612d4f565b348015610d0157600080fd5b50610d15610d10366004614221565b612d87565b604051610483919061472d565b348015610d2e57600080fd5b50600f546104f0906001600160a01b031681565b348015610d4e57600080fd5b506104c3610d5d366004614221565b613044565b348015610d6e57600080fd5b50610d82610d7d366004614221565b613085565b604080516001600160a01b03938416815292909116602083015201610483565b348015610dae57600080fd5b506104ac610dbd366004614221565b6130b4565b348015610dce57600080fd5b506104ac610ddd366004614809565b6130e6565b348015610dee57600080fd5b506104c3610dfd36600461484f565b613143565b348015610e0e57600080fd5b506104ac610e1d36600461419c565b6133f5565b348015610e2e57600080fd5b50610477610e3d366004614883565b6001600160a01b03918216600090815260056020908152604080832093909416825291909152205460ff1690565b6104ac610e793660046142c5565b613462565b348015610e8a57600080fd5b506104ac610e9936600461419c565b61349f565b348015610eaa57600080fd5b506104ac610eb93660046148bc565b61350f565b6104ac610ecc3660046142c5565b61355c565b348015610edd57600080fd5b50610611610eec3660046142c5565b63389a75e1600c908152600091909152602090205490565b6000610f0f82613583565b92915050565b610f1f82826135a8565b610f2a816003613667565b6000828152600b602052604090206003018190558082610f4981612580565b6001600160a01b0316600080516020615313833981519152604051610f8b906020808252600990820152684163636573736f727960b81b604082015260600190565b60405180910390a45050565b606060008054610fa690614941565b80601f0160208091040260200160405190810160405280929190818152602001828054610fd290614941565b801561101f5780601f10610ff45761010080835404028352916020019161101f565b820191906000526020600020905b81548152906001019060200180831161100257829003601f168201915b5050505050905090565b600061103482613769565b506000908152600460205260409020546001600160a01b031690565b600061105b82612580565b9050806001600160a01b0316836001600160a01b0316036110cd5760405162461bcd60e51b815260206004820152602160248201527f4552433732313a20617070726f76616c20746f2063757272656e74206f776e656044820152603960f91b60648201526084015b60405180910390fd5b336001600160a01b03821614806110e957506110e98133610e3d565b61115b5760405162461bcd60e51b815260206004820152603e60248201527f4552433732313a20617070726f76652063616c6c6572206973206e6f7420746f60448201527f6b656e206f776e6572206e6f7220617070726f76656420666f7220616c6c000060648201526084016110c4565b61116583836137c8565b505050565b600e602052600090815260409020805460018201805491929161118c90614941565b80601f01602080910402602001604051908101604052809291908181526020018280546111b890614941565b80156112055780601f106111da57610100808354040283529160200191611205565b820191906000526020600020905b8154815290600101906020018083116111e857829003601f168201915b50505050509080600201805461121a90614941565b80601f016020809104026020016040519081016040528092919081815260200182805461124690614941565b80156112935780601f1061126857610100808354040283529160200191611293565b820191906000526020600020905b81548152906001019060200180831161127657829003601f168201915b5050505050908060030180546112a890614941565b80601f01602080910402602001604051908101604052809291908181526020018280546112d490614941565b80156113215780601f106112f657610100808354040283529160200191611321565b820191906000526020600020905b81548152906001019060200180831161130457829003601f168201915b5050505050905084565b61133582826135a8565b611340816002613667565b6000828152600b60205260409020600201819055808261135f81612580565b6001600160a01b0316600080516020615313833981519152604051610f8b906020808252600490820152634661636560e01b604082015260600190565b6113a581613836565b6000818152600b60205260408082206001019190915551632430b4b960e11b81526004015b6040518091039020816113dc83612580565b6001600160a01b03167fe428b1839105819dce5e635ac7e16ed2a43028f6e294bab8655e29acb5dc60bb60405160405180910390a450565b6014546001600160a01b031661143d57604051633390ca8960e21b815260040160405180910390fd5b6007611447611a07565b600060106000815461145890614991565b918290555090506114693382613870565b604051638a54c52f60e01b81527355266d75d1a14e4572138116af39863ed6596e7f600482015260006024820181905262014a34604483015230606483015260848201839052906f6551c19487814612e58fe0681377575890638a54c52f9060a4016020604051808303816000875af11580156114ea573d6000803e3d6000fd5b505050506040513d601f19601f8201168201806040525081019061150e91906149aa565b6000838152601360205260409081902080546001600160a01b0319166001600160a01b038416908117909155905163189acdbd60e31b81527341c8f39463a868d3a88af00cd0fe7102f30e44ec60048201529192509063c4d66de890602401600060405180830381600087803b15801561158757600080fd5b505af115801561159b573d6000803e3d6000fd5b5050601454604051638fe4a24560e01b81526001600160a01b03858116600483015260248201889052600094509091169150638fe4a245906044016000604051808303816000875af11580156115f5573d6000803e3d6000fd5b505050506040513d6000823e601f3d908101601f1916820160405261161d91908101906149c7565b6000848152600b60205260408120600d5460078201805461ffff8916600a850181905563ffffffff90931665ffffffffffff199091161764010000000090920291909117905582519293509183919061167857611678614a6c565b602002602001015181600601819055508160018151811061169b5761169b614a6c565b60200260200101518160050181905550816002815181106116be576116be614a6c565b6020908102919091018101516004830155600c8201805460ff19169055600160088301556040805180820190915260068152650c110d914e5160d21b91810191909152600b8201906117109082614aca565b50604051849033907f0f6798a560793a54c3bcfe86a93cde1e73087d944c0ea20544137d412139688590600090a36117746040518060400160405280601481526020017336b4b73a32b2103137b23c903a37b5b2b724b21d60611b815250856139be565b5050505050565b6000818152601360205260408120546060916001600160a01b03909116906117a282612ab2565b905060006040518060400160405280601b81526020017f3c7376672076696577426f783d223020302031353020313530223e000000000081525090506000604051806040016040528060068152602001651e17b9bb339f60d11b815250905060606000600f60009054906101000a90046001600160a01b03166001600160a01b0316635c1ef2566040518163ffffffff1660e01b8152600401600060405180830381865afa158015611858573d6000803e3d6000fd5b505050506040513d6000823e601f3d908101601f191682016040526118809190810190614bd9565b9050600060125486511061189657601254611899565b85515b905060405180610540016040528061050581526020016153336105059139826040516020016118c9929190614c0d565b604051602081830303815290604052925060005b818110156119ae57600f5487516000916001600160a01b03169063c7791531908a908590811061190f5761190f614a6c565b60200260200101516040518263ffffffff1660e01b815260040161193591815260200190565b600060405180830381865afa158015611952573d6000803e3d6000fd5b505050506040513d6000823e601f3d908101601f1916820160405261197a9190810190614bd9565b9050848782886040516020016119939493929190614c64565b60408051601f198184030181529190529450506001016118dd565b50826040516020016119c09190614cbb565b60408051601f198184030181529190529998505050505050505050565b6119e5613a03565b601680546001600160a01b0319166001600160a01b0392909216919091179055565b600d546000908152600c602052604090208054600160c01b900460ff161580611a5f57508054600160c81b900460ff16158015611a5f5750611a4b61010043614ce3565b8154600160801b90046001600160401b0316105b15611aaa57611a6f436032614cf6565b815460ff60c01b196001600160401b0392909216600160801b029190911668ffffffffffffffffff60801b1990911617600160c01b17815550565b8054600160801b90046001600160401b0316431115611be057805460408051600160801b9092046001600160401b031640602083015244908201526001600160801b03906060016040516020818303038152906040528051906020012060001c611b149190614d1f565b8154600160c81b6001600160801b039290921679ff000000000000000000ffffffffffffffffffffffffffffffff199091161717808255600d54604051600160801b9092046001600160401b0316917f78611aecfda8d341359c248df527c95aef93d446c92bb928b2a81b7abcb1d8d990600090a3604080516000815260001960208201527f6bd5c950a8d8df17f772f5af37cb3655737899cbf903264b9795592da439661c910160405180910390a1600d8054600090611bd490614991565b90915550611be0611a07565b50565b611bed3382613a1e565b611c095760405162461bcd60e51b81526004016110c490614d33565b611165838383613a9d565b60006202a3006001600160401b03164201905063389a75e1600c5233600052806020600c2055337fdbf36a107da19e49527a7176a1babf963b4b0ff8cde35ee35d6cd8f1f9ac7e1d600080a250565b611c6c81613836565b6000818152600b60205260408082206003019190915551684163636573736f727960b81b81526009016113ca565b60608060606000611caa85612d87565b9050611cb581612067565b50600f54604051630de6a96560e11b81529195506001600160a01b03169150631bcd52ca90611ce890849060040161472d565b600060405180830381865afa158015611d05573d6000803e3d6000fd5b505050506040513d6000823e601f3d908101601f19168201604052611d2d9190810190614d81565b50604051909350611d45915084908490602001614e1f565b6040516020818303038152906040529350505050919050565b6000611d6983612687565b8210611dcb5760405162461bcd60e51b815260206004820152602b60248201527f455243373231456e756d657261626c653a206f776e657220696e646578206f7560448201526a74206f6620626f756e647360a81b60648201526084016110c4565b506001600160a01b03919091166000908152600660209081526040808320938352929052205490565b611dfd81613836565b6000818152600b602052604081208181556001810182905560028101829055600381018290556004810182905560058101829055600681019190915581611e4381612580565b6001600160a01b03167f46078a2cd4c69c3b4a27bdc69fdfe03d442ebcf405f1a68e9b5df6bc3e24429760405160405180910390a35050565b6060806000611e8a84612d87565b9050611e9581612067565b5095945050505050565b611ea7613a03565b601255565b611eb581613836565b6000818152600b60205260408082206004019190915551620546f760ec1b81526003016113ca565b61116583838360405180602001604052806000815250612d4f565b60606000611f0583612687565b90506000816001600160401b03811115611f2157611f21614367565b604051908082528060200260200182016040528015611f4a578160200160208202803683370190505b50905060005b82811015611f8757611f628582611d5e565b828281518110611f7457611f74614a6c565b6020908102919091010152600101611f50565b509392505050565b6001811080611f9e5750600481115b15611fdf5760405162461bcd60e51b8152602060048201526011602482015270092dcecc2d8d2c840c4dec8f292dcc8caf607b1b60448201526064016110c4565b6000918252600b602052604090912060080155565b611ffe82826135a8565b612009816005613667565b6000828152600b60205260409020600501819055808261202881612580565b6001600160a01b0316600080516020615313833981519152604051610f8b90602080825260069082015265426f74746f6d60d01b604082015260600190565b60608060608361014001516120c5576040518060a00160405280606581526020016152ae6065913960405180602001604052806000815250604051806040016040528060028152602001617b7d60f01b81525092509250925061224a565b6120d3846101200151612901565b600e600086610120015181526020019081526020016000206003016121b760405180604001604052806004815260200163426f647960e01b815250600e60008961012001518152602001908152602001600020600101805461213490614941565b80601f016020809104026020016040519081016040528092919081815260200182805461216090614941565b80156121ad5780601f10612182576101008083540402835291602001916121ad565b820191906000526020600020905b81548152906001019060200180831161219057829003601f168201915b5050505050613c44565b8180546121c390614941565b80601f01602080910402602001604051908101604052809291908181526020018280546121ef90614941565b801561223c5780601f106122115761010080835404028352916020019161223c565b820191906000526020600020905b81548152906001019060200180831161221f57829003601f168201915b505050505091509250925092505b9193909250565b86156122615761226188886133f5565b8515612271576122718887612a32565b841561228157612281888661132b565b8315612291576122918885610f15565b82156122a1576122a1888461349f565b81156122b1576122b18883611ff4565b80156122c1576122c1888261248a565b876122cb89612580565b6001600160a01b03167f56680590212b09eb4b72a2eba8801b037ec046dfc754538e924f5bb6a8c4db6c60405160405180910390a35050505050505050565b612312613a03565b601580546001600160a01b0319166001600160a01b0392909216919091179055565b600061233f60085490565b82106123a25760405162461bcd60e51b815260206004820152602c60248201527f455243373231456e756d657261626c653a20676c6f62616c20696e646578206f60448201526b7574206f6620626f756e647360a01b60648201526084016110c4565b600882815481106123b5576123b5614a6c565b90600052602060002001549050919050565b63389a75e1600c523360005260006020600c2055337ffa7b8eab7da67f412cc9575ed43464468f9bfbae89d1675917346ca6d8fe3c92600080a2565b61240c81613836565b6000818152600b602052604080822060060191909155516453686f657360d81b81526005016113ca565b61243e613a03565b601480546001600160a01b0319166001600160a01b0392909216919091179055565b612468613a03565b600f80546001600160a01b0319166001600160a01b0392909216919091179055565b61249482826135a8565b61249f816006613667565b6000828152600b6020526040902060060181905580826124be81612580565b6001600160a01b0316600080516020615313833981519152604051610f8b9060208082526005908201526453686f657360d81b604082015260600190565b6000818152601360205260409081902054600f5491516340d097c360e01b81526001600160a01b03918216600482018190529291909116906340d097c3906024016020604051808303816000875af115801561255c573d6000803e3d6000fd5b505050506040513d601f19601f820116820180604052508101906111659190614e4e565b6000818152600260205260408120546001600160a01b031680610f0f5760405162461bcd60e51b8152602060048201526018602482015277115490cdcc8c4e881a5b9d985b1a59081d1bdad95b88125160421b60448201526064016110c4565b60608082610140015161262a576040518060a00160405280606581526020016152ae60659139604051806040016040528060028152602001617b7d60f01b81525091509150915091565b612638836101200151612901565b61267e60405180604001604052806004815260200163426f647960e01b815250600e60008761012001518152602001908152602001600020600101805461213490614941565b91509150915091565b60006001600160a01b0382166126f15760405162461bcd60e51b815260206004820152602960248201527f4552433732313a2061646472657373207a65726f206973206e6f7420612076616044820152683634b21037bbb732b960b91b60648201526084016110c4565b506001600160a01b031660009081526003602052604090205490565b612715613a03565b61271f6000613c70565b565b606080606080606080606080606080600061273b8c612d87565b905061274681612067565b600f54604051630de6a96560e11b8152939d50919a5095506001600160a01b031690631bcd52ca9061277c90849060040161472d565b600060405180830381865afa158015612799573d6000803e3d6000fd5b505050506040513d6000823e601f3d908101601f191682016040526127c19190810190614d81565b604051929b5090985095506127dc9085908790602001614e67565b60405160208183030381529060405292508787604051602001612800929190614e1f565b60408051601f1981840301815290829052610180830151909750612828918190602001614ecc565b60408051601f198184030181528282019091526060808352602083015292508161018001518160000181905250828160200181905250601660009054906101000a90046001600160a01b03166001600160a01b0316637149ebf68e8d888e8b8d886040518863ffffffff1660e01b81526004016128ab9796959493929190614f71565b600060405180830381865afa1580156128c8573d6000803e3d6000fd5b505050506040513d6000823e601f3d908101601f191682016040526128f09190810190614bd9565b9d9c50505050505050505050505050565b6000818152600e602052604081206002018054606092916129a89161292590614941565b80601f016020809104026020016040519081016040528092919081815260200182805461295190614941565b801561299e5780601f106129735761010080835404028352916020019161299e565b820191906000526020600020905b81548152906001019060200180831161298157829003601f168201915b5050505050613143565b6015546040516335b07b7960e11b81529192506001600160a01b031690636b60f6f2906129d990849060040161420e565b600060405180830381865afa1580156129f6573d6000803e3d6000fd5b505050506040513d6000823e601f3d908101601f19168201604052612a1e9190810190614bd9565b9392505050565b612a2d613a03565b601155565b612a3c82826135a8565b612a47816001613667565b6000828152600b602052604090206001018190558082612a6681612580565b6001600160a01b0316600080516020615313833981519152604051610f8b906020808252600490820152632430b4b960e11b604082015260600190565b606060018054610fa690614941565b600f5460405162438b6360e81b81526001600160a01b03838116600483015260609260009291169063438b630090602401600060405180830381865afa158015612b00573d6000803e3d6000fd5b505050506040513d6000823e601f3d908101601f19168201604052612a1e91908101906149c7565b612b3181613836565b6000818152600b6020526040808220600501919091555165426f74746f6d60d01b81526006016113ca565b600a5460ff161561271f5760005b6064811015611be057612b7b611414565b600101612b6a565b60606000612b9083612d87565b9050806101a00151612baa57612ba583612bc2565b612a1e565b612a1e83612721565b612bbe338383613cae565b5050565b60608060608060608060606000612bd889612d87565b9050612be3816125e0565b600f5460405163506cbfe760e11b81529299509097506001600160a01b03169063a0d97fce90612c1790849060040161472d565b600060405180830381865afa158015612c34573d6000803e3d6000fd5b505050506040513d6000823e601f3d908101601f19168201604052612c5c919081019061501e565b9095509350612c6a8961177b565b610180820151604051919450612c84918190602001614ecc565b60408051601f1981840301815290829052601554631f8ac0db60e21b83529093506001600160a01b031690637e2b036c90612ccf908c908b908b908b908b908b908b90600401615077565b600060405180830381865afa158015612cec573d6000803e3d6000fd5b505050506040513d6000823e601f3d908101601f19168201604052612d149190810190614bd9565b9998505050505050505050565b612d2a81613836565b6000818152600b602052604080822091909155516212185d60ea1b81526003016113ca565b612d593383613a1e565b612d755760405162461bcd60e51b81526004016110c490614d33565b612d8184848484613d7c565b50505050565b612e07604051806101c0016040528060008152602001600081526020016000815260200160008152602001600081526020016000815260200160008152602001600063ffffffff168152602001600061ffff1681526020016000815260200160001515815260200160008152602001606081526020016000151581525090565b6000828152600b6020818152604080842081516101c081018352815481526001820154938101939093526002810154918301919091526003810154606083015260048101546080830152600581015460a0830152600681015460c0830152600781015463ffffffff811660e0840152640100000000900461ffff166101008301526008810154610120830152600981015460ff161515610140830152600a810154610160830152918201805491929161018084019190612ec690614941565b80601f0160208091040260200160405190810160405280929190818152602001828054612ef290614941565b8015612f3f5780601f10612f1457610100808354040283529160200191612f3f565b820191906000526020600020905b815481529060010190602001808311612f2257829003601f168201915b5050509183525050600c9182015460ff16151560209182015260e083015163ffffffff1660009081529181526040918290205461010084015192519394506001600160801b03908116939092612fc59285920160809290921b6fffffffffffffffffffffffffffffffff1916825260f01b6001600160f01b031916601082015260120190565b6040516020818303038152906040528051906020012060001c612fe89190614d1f565b610160830152600a5460ff16151560011461300f576000816001600160801b031611613012565b60015b151561014083015261016082015161302c90600490614d1f565b613037906001614cf6565b6101208301525092915050565b6000818152600260205260409020546060906001600160a01b031661307c57604051631a65aaab60e31b815260040160405180910390fd5b610f0f82612b83565b60008061309183612580565b6000938452601360205260409093205492936001600160a01b0390931692915050565b6130bd81613836565b6000818152600b60205260408082206002019190915551634661636560e01b81526004016113ca565b80516006146131275760405162461bcd60e51b815260206004820152600d60248201526c24b73b30b634b21031b7b637b960991b60448201526064016110c4565b6000828152600b60208190526040909120016111658282614aca565b8051606090801580159061315f575061315d600582614d1f565b155b6131ab5760405162461bcd60e51b815260206004820152601960248201527f496e76616c696420626f6479206279746573206c656e6774680000000000000060448201526064016110c4565b604080516111948082526111c0820190925260009160208201818036833701905050905060006131dc600584615100565b905060005b818110156133eb5760006131f6826005615114565b9050600087828151811061320c5761320c614a6c565b016020015160f81c9050600088613224846001614cf6565b8151811061323457613234614a6c565b016020015160f81c9050600060ff831661324f83601e615114565b6132599190614cf6565b613264906005615114565b905089848151811061327857613278614a6c565b602001015160f81c60f81b87828151811061329557613295614a6c565b60200101906001600160f81b031916908160001a9053508984600101815181106132c1576132c1614a6c565b602001015160f81c60f81b8782600101815181106132e1576132e1614a6c565b60200101906001600160f81b031916908160001a90535089846002018151811061330d5761330d614a6c565b602001015160f81c60f81b87826002018151811061332d5761332d614a6c565b60200101906001600160f81b031916908160001a90535089846003018151811061335957613359614a6c565b602001015160f81c60f81b87826003018151811061337957613379614a6c565b60200101906001600160f81b031916908160001a9053508984600401815181106133a5576133a5614a6c565b602001015160f81c60f81b8782600401815181106133c5576133c5614a6c565b60200101906001600160f81b031916908160001a905350505050508060010190506131e1565b5090949350505050565b6133ff82826135a8565b61340a816000613667565b6000828152600b60205260409020819055808261342681612580565b6001600160a01b0316600080516020615313833981519152604051610f8b9060208082526003908201526212185d60ea1b604082015260600190565b61346a613a03565b63389a75e1600c52806000526020600c20805442111561349257636f5e88186000526004601cfd5b60009055611be081613c70565b6134a982826135a8565b6134b4816004613667565b6000828152600b6020526040902060040181905580826134d381612580565b6001600160a01b0316600080516020615313833981519152604051610f8b906020808252600390820152620546f760ec1b604082015260600190565b613517613a03565b6000848152600e60205260409020848155600181016135368582614aca565b50600281016135458482614aca565b50600381016135548382614aca565b505050505050565b613564613a03565b8060601b61357a57637448fbae6000526004601cfd5b611be081613c70565b60006001600160e01b0319821663780e9d6360e01b1480610f0f5750610f0f82613daf565b6135b182613836565b60008281526013602052604080822054600f5491516331a9108f60e11b8152600481018590526001600160a01b0391821693929190911690636352211e90602401602060405180830381865afa15801561360f573d6000803e3d6000fd5b505050506040513d601f19601f8201168201806040525081019061363391906149aa565b9050816001600160a01b0316816001600160a01b031614612d815760405163e6ca793160e01b815260040160405180910390fd5b600f5460405163e8a1268d60e01b8152600481018490526000916001600160a01b03169063e8a1268d90602401602060405180830381865afa1580156136b1573d6000803e3d6000fd5b505050506040513d601f19601f820116820180604052508101906136d5919061512b565b90508160068111156136e9576136e961514c565b6040516020016136fb91815260200190565b604051602081830303815290604052805190602001208160068111156137235761372361514c565b60405160200161373591815260200190565b604051602081830303815290604052805190602001201461116557604051633e54c6fb60e11b815260040160405180910390fd5b6000818152600260205260409020546001600160a01b0316611be05760405162461bcd60e51b8152602060048201526018602482015277115490cdcc8c4e881a5b9d985b1a59081d1bdad95b88125160421b60448201526064016110c4565b600081815260046020526040902080546001600160a01b0319166001600160a01b03841690811790915581906137fd82612580565b6001600160a01b03167f8c5be1e5ebec7d5bd14f71427d1e84f3dd0314c0f7b2291e5b200ac8c7c3b92560405160405180910390a45050565b61383f81612580565b6001600160a01b0316336001600160a01b031614611be0576040516324adc17160e11b815260040160405180910390fd5b6001600160a01b0382166138c65760405162461bcd60e51b815260206004820181905260248201527f4552433732313a206d696e7420746f20746865207a65726f206164647265737360448201526064016110c4565b6000818152600260205260409020546001600160a01b03161561392b5760405162461bcd60e51b815260206004820152601c60248201527f4552433732313a20746f6b656e20616c7265616479206d696e7465640000000060448201526064016110c4565b61393760008383613dff565b6001600160a01b0382166000908152600360205260408120805460019290613960908490614cf6565b909155505060008181526002602052604080822080546001600160a01b0319166001600160a01b03861690811790915590518392907fddf252ad1be2c89b69c2b068fc378daa952ba7f163c4a11628f55a4df523b3ef908290a45050565b612bbe82826040516024016139d4929190615162565b60408051601f198184030181529190526020810180516001600160e01b03166309710a9d60e41b179052613eb7565b638b78c6d81954331461271f576382b429006000526004601cfd5b600080613a2a83612580565b9050806001600160a01b0316846001600160a01b03161480613a7157506001600160a01b0380821660009081526005602090815260408083209388168352929052205460ff165b80613a955750836001600160a01b0316613a8a84611029565b6001600160a01b0316145b949350505050565b826001600160a01b0316613ab082612580565b6001600160a01b031614613b145760405162461bcd60e51b815260206004820152602560248201527f4552433732313a207472616e736665722066726f6d20696e636f72726563742060448201526437bbb732b960d91b60648201526084016110c4565b6001600160a01b038216613b765760405162461bcd60e51b8152602060048201526024808201527f4552433732313a207472616e7366657220746f20746865207a65726f206164646044820152637265737360e01b60648201526084016110c4565b613b81838383613dff565b613b8c6000826137c8565b6001600160a01b0383166000908152600360205260408120805460019290613bb5908490614ce3565b90915550506001600160a01b0382166000908152600360205260408120805460019290613be3908490614cf6565b909155505060008181526002602052604080822080546001600160a01b0319166001600160a01b0386811691821790925591518493918716917fddf252ad1be2c89b69c2b068fc378daa952ba7f163c4a11628f55a4df523b3ef91a4505050565b60608282604051602001613c59929190615184565b604051602081830303815290604052905092915050565b638b78c6d81980546001600160a01b039092169182907f8be0079c531659141344cd1fd0a4f28419497f9722a3daafe3b4186f6b6457e0600080a355565b816001600160a01b0316836001600160a01b031603613d0f5760405162461bcd60e51b815260206004820152601960248201527f4552433732313a20617070726f766520746f2063616c6c65720000000000000060448201526064016110c4565b6001600160a01b03838116600081815260056020908152604080832094871680845294825291829020805460ff191686151590811790915591519182527f17307eab39ab6107e8899845ad3d59bd9653f200f220920489ca2b5937696c31910160405180910390a3505050565b613d87848484613a9d565b613d9384848484613ed8565b612d815760405162461bcd60e51b81526004016110c4906151f5565b60006001600160e01b031982166380ac58cd60e01b1480613de057506001600160e01b03198216635b5e139f60e01b145b80610f0f57506301ffc9a760e01b6001600160e01b0319831614610f0f565b6001600160a01b038316613e5a57613e5581600880546000838152600960205260408120829055600182018355919091527ff3f7a9fe364faab93b216da50a3214154f22a0a2b415b23a84c8169e8b636ee30155565b613e7d565b816001600160a01b0316836001600160a01b031614613e7d57613e7d8382613fd9565b6001600160a01b038216613e945761116581614076565b826001600160a01b0316826001600160a01b031614611165576111658282614125565b80516a636f6e736f6c652e6c6f67602083016000808483855afa5050505050565b60006001600160a01b0384163b15613fce57604051630a85bd0160e11b81526001600160a01b0385169063150b7a0290613f1c903390899088908890600401615247565b6020604051808303816000875af1925050508015613f57575060408051601f3d908101601f19168201909252613f549181019061527a565b60015b613fb4573d808015613f85576040519150601f19603f3d011682016040523d82523d6000602084013e613f8a565b606091505b508051600003613fac5760405162461bcd60e51b81526004016110c4906151f5565b805181602001fd5b6001600160e01b031916630a85bd0160e11b149050613a95565b506001949350505050565b60006001613fe684612687565b613ff09190614ce3565b600083815260076020526040902054909150808214614043576001600160a01b03841660009081526006602090815260408083208584528252808320548484528184208190558352600790915290208190555b5060009182526007602090815260408084208490556001600160a01b039094168352600681528383209183525290812055565b60085460009061408890600190614ce3565b600083815260096020526040812054600880549394509092849081106140b0576140b0614a6c565b9060005260206000200154905080600883815481106140d1576140d1614a6c565b600091825260208083209091019290925582815260099091526040808220849055858252812055600880548061410957614109615297565b6001900381819060005260206000200160009055905550505050565b600061413083612687565b6001600160a01b039093166000908152600660209081526040808320868452825280832085905593825260079052919091209190915550565b6001600160e01b031981168114611be057600080fd5b60006020828403121561419157600080fd5b8135612a1e81614169565b600080604083850312156141af57600080fd5b50508035926020909101359150565b60005b838110156141d95781810151838201526020016141c1565b50506000910152565b600081518084526141fa8160208601602086016141be565b601f01601f19169290920160200192915050565b602081526000612a1e60208301846141e2565b60006020828403121561423357600080fd5b5035919050565b6001600160a01b0381168114611be057600080fd5b6000806040838503121561426257600080fd5b823561426d8161423a565b946020939093013593505050565b84815260806020820152600061429460808301866141e2565b82810360408401526142a681866141e2565b905082810360608401526142ba81856141e2565b979650505050505050565b6000602082840312156142d757600080fd5b8135612a1e8161423a565b6000806000606084860312156142f757600080fd5b83356143028161423a565b925060208401356143128161423a565b929592945050506040919091013590565b6020808252825182820181905260009190848201906040850190845b8181101561435b5783518352928401929184019160010161433f565b50909695505050505050565b634e487b7160e01b600052604160045260246000fd5b6040516101c081016001600160401b03811182821017156143a0576143a0614367565b60405290565b604051601f8201601f191681016001600160401b03811182821017156143ce576143ce614367565b604052919050565b803563ffffffff811681146143ea57600080fd5b919050565b803561ffff811681146143ea57600080fd5b803580151581146143ea57600080fd5b60006001600160401b0382111561442a5761442a614367565b50601f01601f191660200190565b600082601f83011261444957600080fd5b813561445c61445782614411565b6143a6565b81815284602083860101111561447157600080fd5b816020850160208301376000918101602001919091529392505050565b6000602082840312156144a057600080fd5b81356001600160401b03808211156144b757600080fd5b908301906101c082860312156144cc57600080fd5b6144d461437d565b823581526020830135602082015260408301356040820152606083013560608201526080830135608082015260a083013560a082015260c083013560c082015261452060e084016143d6565b60e08201526101006145338185016143ef565b908201526101208381013590820152610140614550818501614401565b908201526101608381013590820152610180808401358381111561457357600080fd5b61457f88828701614438565b8284015250506101a09150614595828401614401565b91810191909152949350505050565b6060815260006145b760608301866141e2565b82810360208401526145c981866141e2565b905082810360408401526145dd81856141e2565b9695505050505050565b600080600080600080600080610100898b03121561460457600080fd5b505086359860208801359850604088013597606081013597506080810135965060a0810135955060c0810135945060e0013592509050565b60408152600061464f60408301856141e2565b828103602084015261466181856141e2565b95945050505050565b6000806040838503121561467d57600080fd5b82356146888161423a565b915061469660208401614401565b90509250929050565b600080604083850312156146b257600080fd5b8235915061469660208401614401565b600080600080608085870312156146d857600080fd5b84356146e38161423a565b935060208501356146f38161423a565b92506040850135915060608501356001600160401b0381111561471557600080fd5b61472187828801614438565b91505092959194509250565b6020815281516020820152602082015160408201526040820151606082015260608201516080820152608082015160a082015260a082015160c082015260c082015160e0820152600060e083015161010061478f8185018363ffffffff169052565b84015190506101206147a68482018361ffff169052565b8401516101408481019190915284015190506101606147c88185018315159052565b840151610180848101919091528401516101c06101a0808601829052919250906147f66101e08601846141e2565b90860151801515838701529092506133eb565b6000806040838503121561481c57600080fd5b8235915060208301356001600160401b0381111561483957600080fd5b61484585828601614438565b9150509250929050565b60006020828403121561486157600080fd5b81356001600160401b0381111561487757600080fd5b613a9584828501614438565b6000806040838503121561489657600080fd5b82356148a18161423a565b915060208301356148b18161423a565b809150509250929050565b600080600080608085870312156148d257600080fd5b8435935060208501356001600160401b03808211156148f057600080fd5b6148fc88838901614438565b9450604087013591508082111561491257600080fd5b61491e88838901614438565b9350606087013591508082111561493457600080fd5b5061472187828801614438565b600181811c9082168061495557607f821691505b60208210810361497557634e487b7160e01b600052602260045260246000fd5b50919050565b634e487b7160e01b600052601160045260246000fd5b6000600182016149a3576149a361497b565b5060010190565b6000602082840312156149bc57600080fd5b8151612a1e8161423a565b600060208083850312156149da57600080fd5b82516001600160401b03808211156149f157600080fd5b818501915085601f830112614a0557600080fd5b815181811115614a1757614a17614367565b8060051b9150614a288483016143a6565b8181529183018401918481019088841115614a4257600080fd5b938501935b83851015614a6057845182529385019390850190614a47565b98975050505050505050565b634e487b7160e01b600052603260045260246000fd5b601f821115611165576000816000526020600020601f850160051c81016020861015614aab5750805b601f850160051c820191505b8181101561355457828155600101614ab7565b81516001600160401b03811115614ae357614ae3614367565b614af781614af18454614941565b84614a82565b602080601f831160018114614b2c5760008415614b145750858301515b600019600386901b1c1916600185901b178555613554565b600085815260208120601f198616915b82811015614b5b57888601518255948401946001909101908401614b3c565b5085821015614b795787850151600019600388901b60f8161c191681555b5050505050600190811b01905550565b6000614b9761445784614411565b9050828152838383011115614bab57600080fd5b612a1e8360208301846141be565b600082601f830112614bca57600080fd5b612a1e83835160208501614b89565b600060208284031215614beb57600080fd5b81516001600160401b03811115614c0157600080fd5b613a9584828501614bb9565b60008351614c1f8184602088016141be565b835190830190614c338183602088016141be565b7f3c672069643d226261636b7061636b547261697473223e0000000000000000009101908152601701949350505050565b60008551614c76818460208a016141be565b855190830190614c8a818360208a016141be565b8551910190614c9d8183602089016141be565b8451910190614cb08183602088016141be565b019695505050505050565b60008251614ccd8184602087016141be565b631e17b39f60e11b920191825250600401919050565b81810381811115610f0f57610f0f61497b565b80820180821115610f0f57610f0f61497b565b634e487b7160e01b600052601260045260246000fd5b600082614d2e57614d2e614d09565b500690565b6020808252602e908201527f4552433732313a2063616c6c6572206973206e6f7420746f6b656e206f776e6560408201526d1c881b9bdc88185c1c1c9bdd995960921b606082015260800190565b600080600060608486031215614d9657600080fd5b83516001600160401b0380821115614dad57600080fd5b614db987838801614bb9565b94506020860151915080821115614dcf57600080fd5b818601915086601f830112614de357600080fd5b614df287835160208501614b89565b93506040860151915080821115614e0857600080fd5b50614e1586828701614bb9565b9150509250925092565b60008351614e318184602088016141be565b835190830190614e458183602088016141be565b01949350505050565b600060208284031215614e6057600080fd5b5051919050565b6d2261747472696275746573223a5b60901b81528251600090614e9181600e8501602088016141be565b600b60fa1b600e918401918201528351614eb281600f8401602088016141be565b605d60f81b600f9290910191820152601001949350505050565b661e39ba3cb6329f60c91b81527f626f64792c207376677b206261636b67726f756e643a20230000000000000000600782015260008351614f1481601f8501602088016141be565b6f3b207d2e6267207b2066696c6c3a202360801b601f918401918201528351614f4481602f8401602088016141be565b623b207d60e81b602f9290910191820152671e17b9ba3cb6329f60c11b6032820152603a01949350505050565b87815260e060208201526000614f8a60e08301896141e2565b8281036040840152614f9c81896141e2565b90508281036060840152614fb081886141e2565b90508281036080840152614fc481876141e2565b905082810360a0840152614fd881866141e2565b905082810360c0840152835160408252614ff560408301826141e2565b90506020850151828203602084015261500e82826141e2565b9c9b505050505050505050505050565b6000806040838503121561503157600080fd5b82516001600160401b038082111561504857600080fd5b61505486838701614bb9565b9350602085015191508082111561506a57600080fd5b5061484585828601614bb9565b87815260e06020820152600061509060e08301896141e2565b82810360408401526150a281896141e2565b905082810360608401526150b681886141e2565b905082810360808401526150ca81876141e2565b905082810360a08401526150de81866141e2565b905082810360c08401526150f281856141e2565b9a9950505050505050505050565b60008261510f5761510f614d09565b500490565b8082028115828204841417610f0f57610f0f61497b565b60006020828403121561513d57600080fd5b815160078110612a1e57600080fd5b634e487b7160e01b600052602160045260246000fd5b60408152600061517560408301856141e2565b90508260208301529392505050565b6e3d913a3930b4ba2fba3cb832911d1160891b815282516000906151af81600f8501602088016141be565b6a1116113b30b63ab2911d1160a91b600f9184019182015283516151da81601a8401602088016141be565b61227d60f01b601a9290910191820152601c01949350505050565b60208082526032908201527f4552433732313a207472616e7366657220746f206e6f6e20455243373231526560408201527131b2b4bb32b91034b6b83632b6b2b73a32b960711b606082015260800190565b6001600160a01b03858116825284166020820152604081018390526080606082018190526000906145dd908301846141e2565b60006020828403121561528c57600080fd5b8151612a1e81614169565b634e487b7160e01b600052603160045260246000fdfe3c7376673e3c7465787420783d22382220793d22313522207374796c653d22666f6e743a206e6f726d616c203270782073616e732d73657269663b2066696c6c3a20626c61636b3b223e436f6d696e6720536f6f6e2e2e2e3c2f746578743e3c2f7376673e8aea9baa1ab7209ce94784ac5f5149343f8d985fd4278de25a7b390989f2cf853c672069643d22416c6c20547261697473223e3c672069643d226261636b7061636b2220636c6173733d22636c6f736564223e3c7061746820643d224d302030204c33302030204c3330203330204c30203330205a222066696c6c3d227267622831322c203130392c203135372922202f3e3c7376672069643d226261636b7061636b5549222076696577426f783d223020302031323020313230223e203c7374796c653e2e75697b77696474683a3170783b206865696768743a203170783b2066696c6c3a77686974657d3c2f7374796c653e203c672069643d22636c6f736542746e22207472616e73666f726d3d227472616e736c61746528322c3229223e203c7265637420783d22312220793d22312220636c6173733d227569223e3c2f726563743e203c7265637420783d22322220793d22322220636c6173733d227569223e3c2f726563743e203c7265637420783d22332220793d22332220636c6173733d227569223e3c2f726563743e203c7265637420783d22342220793d22342220636c6173733d227569223e3c2f726563743e203c7265637420783d22352220793d22352220636c6173733d227569223e3c2f726563743e203c7265637420783d22352220793d22312220636c6173733d227569223e3c2f726563743e203c7265637420783d22342220793d22322220636c6173733d227569223e3c2f726563743e203c212d2d203c7265637420783d22332220793d2233222077696474683d223122206865696768743d2231222066696c6c3d227768697465223e3c2f726563743e202d2d3e203c7265637420783d22322220793d22342220636c6173733d227569223e3c2f726563743e203c7265637420783d22312220793d22352220636c6173733d227569223e3c2f726563743e203c2f673e203c672069643d226c65667442746e2220636c6173733d22627574746f6e22207472616e73666f726d3d227472616e736c6174652834352c31313029223e203c7061746820643d224d302030204c362030204c362036204c302036205a222066696c6c3d227472616e73706172656e7422202f3e203c7265637420783d22322220793d22302220636c6173733d227569223e3c2f726563743e203c7265637420783d22312220793d22312220636c6173733d227569223e3c2f726563743e203c7265637420783d22302220793d22322220636c6173733d227569223e3c2f726563743e203c7265637420783d22312220793d22332220636c6173733d227569223e3c2f726563743e203c7265637420783d22322220793d22342220636c6173733d227569223e3c2f726563743e203c2f673e203c672069643d22726967687442746e2220636c6173733d22627574746f6e22207472616e73666f726d3d227472616e736c6174652836352c31313029223e203c7061746820643d224d302030204c362030204c362036204c302036205a222066696c6c3d227472616e73706172656e7422202f3e203c7265637420783d22332220793d22302220636c6173733d227569223e3c2f726563743e203c7265637420783d22342220793d22312220636c6173733d227569223e3c2f726563743e203c7265637420783d22352220793d22322220636c6173733d227569223e3c2f726563743e203c7265637420783d22342220793d22332220636c6173733d227569223e3c2f726563743e203c7265637420783d22332220793d22342220636c6173733d227569223e3c2f726563743e203c2f673e203c2f7376673e20a264697066735822122039d2422464f82b7af186fe9f4e0f8f5490d77725ec807166504d84da020cdc4f64736f6c63430008160033","linkReferences":{}},"methodIdentifiers":{"MAX_TRAITS_TO_OUTPUT()":"20e0b93c","_debugPostConstructorMint()":"9c7be2f1","addNewBody(uint256,string,bytes,bytes)":"f2361e23","approve(address,uint256)":"095ea7b3","balanceOf(address)":"70a08231","bodyIndexToMetadata(uint256)":"0c83f9d7","buyTrait(uint256)":"6273ca2c","cancelOwnershipHandover()":"54d1f13d","completeOwnershipHandover(address)":"f04e283e","equipAccessory(uint256,uint256)":"0447a45e","equipAll(uint256,uint256,uint256,uint256,uint256,uint256,uint256,uint256)":"4a4333a3","equipBottom(uint256,uint256)":"45a10d0f","equipFace(uint256,uint256)":"0f162320","equipHair(uint256,uint256)":"94cbd9c4","equipHat(uint256,uint256)":"e5a68261","equipShoes(uint256,uint256)":"60b77b23","equipTop(uint256,uint256)":"f18dc22d","firstSeasonRenderMinter()":"13ea0ae3","getApproved(uint256)":"081812fc","getBackpackSVGs(uint256)":"14fe8ff4","getBodyImage(bytes)":"e37db3c2","getBodyImageSvg(uint256)":"916c546b","getBodySVGZmapsAndMetadata((uint256,uint256,uint256,uint256,uint256,uint256,uint256,uint32,uint16,uint256,bool,uint256,string,bool))":"45d2d7bd","getBodySvgAndMetadata((uint256,uint256,uint256,uint256,uint256,uint256,uint256,uint32,uint16,uint256,bool,uint256,string,bool))":"661ee23a","getBodyZMap(uint256)":"306c7334","getEpoch()":"757991a8","getEpochData(uint256)":"859e7d32","getOwnerAndTBAAddressForTokenId(uint256)":"cc9a5d37","getPeter(uint256)":"be928ff6","getPeterZMap(uint256)":"2bd1ca45","getTraitTokens(address)":"998cfb6e","isApprovedForAll(address,address)":"e985e9c5","mainRenderer()":"66b89b5a","mint()":"1249c58b","name()":"06fdde03","owner()":"8da5cb5b","ownerOf(uint256)":"6352211e","ownershipHandoverExpiresAt(address)":"fee81cf4","price()":"a035b1fe","renderAsDataUri(uint256)":"a1d62680","renderAsDataUriSVG(uint256)":"b28fbe40","renderAsDataUriZ(uint256)":"7557f2dc","renounceOwnership()":"715018a6","requestOwnershipHandover()":"25692962","resolveEpochIfNecessary()":"239ffa68","safeTransferFrom(address,address,uint256)":"42842e0e","safeTransferFrom(address,address,uint256,bytes)":"b88d4fde","setApprovalForAll(address,bool)":"a22cb465","setBackgroundColor(uint256,string)":"d68c4f32","setBodyIndex(uint256,uint256)":"457e7e61","setFirstSeasonRenderMinter(address)":"58a97640","setMainRenderer(address)":"4ddb3961","setMaxTraitsToOutput(uint256)":"33d3d9bf","setPrice(uint256)":"91b7f5ed","setRenderZ(uint256,bool)":"b53d1fd7","setTraitsContract(address)":"5eabd84a","setZRenderer(address)":"172b054d","supportsInterface(bytes4)":"01ffc9a7","symbol()":"95d89b41","tokenByIndex(uint256)":"4f6ccce7","tokenIdToTBAAccountAddress(uint256)":"9c05d68d","tokenOfOwnerByIndex(address,uint256)":"2f745c59","tokenURI(uint256)":"c87b56dd","totalSupply()":"18160ddd","traitsContract()":"c093afdb","transferFrom(address,address,uint256)":"23b872dd","transferOwnership(address)":"f2fde38b","unequipAccessory(uint256)":"293ed3f7","unequipAll(uint256)":"3044825b","unequipBottom(uint256)":"9c762015","unequipFace(uint256)":"d5b55c8b","unequipHair(uint256)":"105338e0","unequipHat(uint256)":"b5282793","unequipShoes(uint256)":"58180d35","unequipTop(uint256)":"347bd8f4","walletOfOwner(address)":"438b6300","zRenderer()":"a15c561b"},"id":39}