{"abi":[{"type":"constructor","inputs":[{"name":"localDeploy_","type":"bool","internalType":"bool"}],"stateMutability":"nonpayable"},{"type":"function","name":"_debugPostConstructorMint","inputs":[],"outputs":[],"stateMutability":"nonpayable"},{"type":"function","name":"_nextTokenId","inputs":[],"outputs":[{"name":"","type":"uint256","internalType":"uint256"}],"stateMutability":"view"},{"type":"function","name":"addNewBody","inputs":[{"name":"_bodyIndex","type":"uint256","internalType":"uint256"},{"name":"_bodyName","type":"string","internalType":"string"},{"name":"_colorMap","type":"bytes","internalType":"bytes"},{"name":"_zMap","type":"bytes","internalType":"bytes"}],"outputs":[],"stateMutability":"nonpayable"},{"type":"function","name":"approve","inputs":[{"name":"_operator","type":"address","internalType":"address"},{"name":"_chonkId","type":"uint256","internalType":"uint256"}],"outputs":[],"stateMutability":"nonpayable"},{"type":"function","name":"balanceOf","inputs":[{"name":"owner","type":"address","internalType":"address"}],"outputs":[{"name":"","type":"uint256","internalType":"uint256"}],"stateMutability":"view"},{"type":"function","name":"bodyIndexToMetadata","inputs":[{"name":"","type":"uint256","internalType":"uint256"}],"outputs":[{"name":"bodyIndex","type":"uint256","internalType":"uint256"},{"name":"bodyName","type":"string","internalType":"string"},{"name":"colorMap","type":"bytes","internalType":"bytes"},{"name":"zMap","type":"bytes","internalType":"bytes"}],"stateMutability":"view"},{"type":"function","name":"cancelOwnershipHandover","inputs":[],"outputs":[],"stateMutability":"payable"},{"type":"function","name":"checkIfTraitIsEquipped","inputs":[{"name":"_chonkId","type":"uint256","internalType":"uint256"},{"name":"_traitId","type":"uint256","internalType":"uint256"}],"outputs":[{"name":"","type":"bool","internalType":"bool"}],"stateMutability":"view"},{"type":"function","name":"chonkIdToApprovedOperators","inputs":[{"name":"chonkId","type":"uint256","internalType":"uint256"},{"name":"","type":"uint256","internalType":"uint256"}],"outputs":[{"name":"operators","type":"address","internalType":"address"}],"stateMutability":"view"},{"type":"function","name":"chonkMakeover","inputs":[{"name":"_chonkTokenId","type":"uint256","internalType":"uint256"},{"name":"_headTokenId","type":"uint256","internalType":"uint256"},{"name":"_hairTokenId","type":"uint256","internalType":"uint256"},{"name":"_faceTokenId","type":"uint256","internalType":"uint256"},{"name":"_accessoryTokenId","type":"uint256","internalType":"uint256"},{"name":"_topTokenId","type":"uint256","internalType":"uint256"},{"name":"_bottomTokenId","type":"uint256","internalType":"uint256"},{"name":"_shoesTokenId","type":"uint256","internalType":"uint256"},{"name":"_bodyIndex","type":"uint8","internalType":"uint8"},{"name":"_backgroundColor","type":"string","internalType":"string"}],"outputs":[],"stateMutability":"nonpayable"},{"type":"function","name":"chonksCreatorListMerkleRoot","inputs":[],"outputs":[{"name":"","type":"bytes32","internalType":"bytes32"}],"stateMutability":"view"},{"type":"function","name":"completeOwnershipHandover","inputs":[{"name":"pendingOwner","type":"address","internalType":"address"}],"outputs":[],"stateMutability":"payable"},{"type":"function","name":"deploymentTime","inputs":[],"outputs":[{"name":"","type":"uint256","internalType":"uint256"}],"stateMutability":"view"},{"type":"function","name":"equip","inputs":[{"name":"_chonkTokenId","type":"uint256","internalType":"uint256"},{"name":"_traitTokenId","type":"uint256","internalType":"uint256"}],"outputs":[],"stateMutability":"nonpayable"},{"type":"function","name":"equipAll","inputs":[{"name":"_chonkTokenId","type":"uint256","internalType":"uint256"},{"name":"_headTokenId","type":"uint256","internalType":"uint256"},{"name":"_hairTokenId","type":"uint256","internalType":"uint256"},{"name":"_faceTokenId","type":"uint256","internalType":"uint256"},{"name":"_accessoryTokenId","type":"uint256","internalType":"uint256"},{"name":"_topTokenId","type":"uint256","internalType":"uint256"},{"name":"_bottomTokenId","type":"uint256","internalType":"uint256"},{"name":"_shoesTokenId","type":"uint256","internalType":"uint256"}],"outputs":[],"stateMutability":"nonpayable"},{"type":"function","name":"firstSeasonRenderMinter","inputs":[],"outputs":[{"name":"","type":"address","internalType":"contract FirstSeasonRenderMinter"}],"stateMutability":"view"},{"type":"function","name":"friendsListMerkleRoot","inputs":[],"outputs":[{"name":"","type":"bytes32","internalType":"bytes32"}],"stateMutability":"view"},{"type":"function","name":"getApproved","inputs":[{"name":"tokenId","type":"uint256","internalType":"uint256"}],"outputs":[{"name":"","type":"address","internalType":"address"}],"stateMutability":"view"},{"type":"function","name":"getBackpackSVGs","inputs":[{"name":"_tokenId","type":"uint256","internalType":"uint256"}],"outputs":[{"name":"","type":"string","internalType":"string"}],"stateMutability":"view"},{"type":"function","name":"getBodyImageSvg","inputs":[{"name":"_index","type":"uint256","internalType":"uint256"}],"outputs":[{"name":"svg","type":"string","internalType":"string"}],"stateMutability":"view"},{"type":"function","name":"getBodySVGZmapsAndMetadata","inputs":[{"name":"storedChonk","type":"tuple","internalType":"struct IChonkStorage.StoredChonk","components":[{"name":"headId","type":"uint256","internalType":"uint256"},{"name":"hairId","type":"uint256","internalType":"uint256"},{"name":"faceId","type":"uint256","internalType":"uint256"},{"name":"accessoryId","type":"uint256","internalType":"uint256"},{"name":"topId","type":"uint256","internalType":"uint256"},{"name":"bottomId","type":"uint256","internalType":"uint256"},{"name":"shoesId","type":"uint256","internalType":"uint256"},{"name":"epoch","type":"uint32","internalType":"uint32"},{"name":"tokenId","type":"uint256","internalType":"uint256"},{"name":"bodyIndex","type":"uint8","internalType":"uint8"},{"name":"backgroundColor","type":"string","internalType":"string"},{"name":"render3D","type":"bool","internalType":"bool"}]}],"outputs":[{"name":"","type":"string","internalType":"string"},{"name":"","type":"bytes","internalType":"bytes"},{"name":"","type":"string","internalType":"string"}],"stateMutability":"view"},{"type":"function","name":"getBodySvgAndMetadata","inputs":[{"name":"storedChonk","type":"tuple","internalType":"struct IChonkStorage.StoredChonk","components":[{"name":"headId","type":"uint256","internalType":"uint256"},{"name":"hairId","type":"uint256","internalType":"uint256"},{"name":"faceId","type":"uint256","internalType":"uint256"},{"name":"accessoryId","type":"uint256","internalType":"uint256"},{"name":"topId","type":"uint256","internalType":"uint256"},{"name":"bottomId","type":"uint256","internalType":"uint256"},{"name":"shoesId","type":"uint256","internalType":"uint256"},{"name":"epoch","type":"uint32","internalType":"uint32"},{"name":"tokenId","type":"uint256","internalType":"uint256"},{"name":"bodyIndex","type":"uint8","internalType":"uint8"},{"name":"backgroundColor","type":"string","internalType":"string"},{"name":"render3D","type":"bool","internalType":"bool"}]}],"outputs":[{"name":"","type":"string","internalType":"string"},{"name":"","type":"string","internalType":"string"}],"stateMutability":"view"},{"type":"function","name":"getBodyZMap","inputs":[{"name":"_tokenId","type":"uint256","internalType":"uint256"}],"outputs":[{"name":"","type":"string","internalType":"string"}],"stateMutability":"view"},{"type":"function","name":"getChonk","inputs":[{"name":"_tokenId","type":"uint256","internalType":"uint256"}],"outputs":[{"name":"","type":"tuple","internalType":"struct IChonkStorage.StoredChonk","components":[{"name":"headId","type":"uint256","internalType":"uint256"},{"name":"hairId","type":"uint256","internalType":"uint256"},{"name":"faceId","type":"uint256","internalType":"uint256"},{"name":"accessoryId","type":"uint256","internalType":"uint256"},{"name":"topId","type":"uint256","internalType":"uint256"},{"name":"bottomId","type":"uint256","internalType":"uint256"},{"name":"shoesId","type":"uint256","internalType":"uint256"},{"name":"epoch","type":"uint32","internalType":"uint32"},{"name":"tokenId","type":"uint256","internalType":"uint256"},{"name":"bodyIndex","type":"uint8","internalType":"uint8"},{"name":"backgroundColor","type":"string","internalType":"string"},{"name":"render3D","type":"bool","internalType":"bool"}]}],"stateMutability":"view"},{"type":"function","name":"getChonkIdForTBAAddress","inputs":[{"name":"_tbaAddress","type":"address","internalType":"address"}],"outputs":[{"name":"","type":"uint256","internalType":"uint256"}],"stateMutability":"view"},{"type":"function","name":"getChonkIdToApprovedOperators","inputs":[{"name":"_chonkId","type":"uint256","internalType":"uint256"}],"outputs":[{"name":"","type":"address[]","internalType":"address[]"}],"stateMutability":"view"},{"type":"function","name":"getChonkZMap","inputs":[{"name":"_tokenId","type":"uint256","internalType":"uint256"}],"outputs":[{"name":"","type":"string","internalType":"string"}],"stateMutability":"view"},{"type":"function","name":"getFullPictureForTrait","inputs":[{"name":"_chonkTraitTokenId","type":"uint256","internalType":"uint256"}],"outputs":[{"name":"traitOwnerTBA","type":"address","internalType":"address"},{"name":"chonkTokenId","type":"uint256","internalType":"uint256"},{"name":"chonkOwner","type":"address","internalType":"address"},{"name":"isEquipped","type":"bool","internalType":"bool"}],"stateMutability":"view"},{"type":"function","name":"getOwnerAndTBAAddressForChonkId","inputs":[{"name":"_chonkId","type":"uint256","internalType":"uint256"}],"outputs":[{"name":"owner","type":"address","internalType":"address"},{"name":"tbaAddress","type":"address","internalType":"address"}],"stateMutability":"view"},{"type":"function","name":"getTBAAddressForChonkId","inputs":[{"name":"_chonkId","type":"uint256","internalType":"uint256"}],"outputs":[{"name":"","type":"address","internalType":"address"}],"stateMutability":"view"},{"type":"function","name":"getTokenRenderZ","inputs":[{"name":"_chonkTokenId","type":"uint256","internalType":"uint256"}],"outputs":[{"name":"","type":"bool","internalType":"bool"}],"stateMutability":"view"},{"type":"function","name":"getTraitsForChonkId","inputs":[{"name":"_chonkId","type":"uint256","internalType":"uint256"}],"outputs":[{"name":"traitTokens","type":"uint256[]","internalType":"uint256[]"}],"stateMutability":"view"},{"type":"function","name":"isApprovedForAll","inputs":[{"name":"owner","type":"address","internalType":"address"},{"name":"operator","type":"address","internalType":"address"}],"outputs":[{"name":"","type":"bool","internalType":"bool"}],"stateMutability":"view"},{"type":"function","name":"isTimelocked","inputs":[],"outputs":[{"name":"","type":"bool","internalType":"bool"}],"stateMutability":"view"},{"type":"function","name":"mainRenderer2D","inputs":[],"outputs":[{"name":"","type":"address","internalType":"contract MainRenderer2D"}],"stateMutability":"view"},{"type":"function","name":"mainRenderer3D","inputs":[],"outputs":[{"name":"","type":"address","internalType":"contract MainRenderer3D"}],"stateMutability":"view"},{"type":"function","name":"marketplace","inputs":[],"outputs":[{"name":"","type":"address","internalType":"contract ChonksMarket"}],"stateMutability":"view"},{"type":"function","name":"maxTraitsToOutput","inputs":[],"outputs":[{"name":"","type":"uint256","internalType":"uint256"}],"stateMutability":"view"},{"type":"function","name":"mint","inputs":[{"name":"_amount","type":"uint256","internalType":"uint256"},{"name":"_merkleProof","type":"bytes32[]","internalType":"bytes32[]"}],"outputs":[],"stateMutability":"payable"},{"type":"function","name":"mintStartTime","inputs":[],"outputs":[{"name":"","type":"uint256","internalType":"uint256"}],"stateMutability":"view"},{"type":"function","name":"name","inputs":[],"outputs":[{"name":"","type":"string","internalType":"string"}],"stateMutability":"view"},{"type":"function","name":"oneYearFromDeployment","inputs":[],"outputs":[{"name":"","type":"uint256","internalType":"uint256"}],"stateMutability":"view"},{"type":"function","name":"owner","inputs":[],"outputs":[{"name":"result","type":"address","internalType":"address"}],"stateMutability":"view"},{"type":"function","name":"ownerOf","inputs":[{"name":"tokenId","type":"uint256","internalType":"uint256"}],"outputs":[{"name":"","type":"address","internalType":"address"}],"stateMutability":"view"},{"type":"function","name":"ownershipHandoverExpiresAt","inputs":[{"name":"pendingOwner","type":"address","internalType":"address"}],"outputs":[{"name":"result","type":"uint256","internalType":"uint256"}],"stateMutability":"view"},{"type":"function","name":"price","inputs":[],"outputs":[{"name":"","type":"uint256","internalType":"uint256"}],"stateMutability":"view"},{"type":"function","name":"renderAsDataUri","inputs":[{"name":"_tokenId","type":"uint256","internalType":"uint256"}],"outputs":[{"name":"","type":"string","internalType":"string"}],"stateMutability":"view"},{"type":"function","name":"renderAsDataUri2D","inputs":[{"name":"_tokenId","type":"uint256","internalType":"uint256"}],"outputs":[{"name":"","type":"string","internalType":"string"}],"stateMutability":"view"},{"type":"function","name":"renderAsDataUri3D","inputs":[{"name":"_tokenId","type":"uint256","internalType":"uint256"}],"outputs":[{"name":"","type":"string","internalType":"string"}],"stateMutability":"view"},{"type":"function","name":"renounceOwnership","inputs":[],"outputs":[],"stateMutability":"payable"},{"type":"function","name":"requestOwnershipHandover","inputs":[],"outputs":[],"stateMutability":"payable"},{"type":"function","name":"safeTransferFrom","inputs":[{"name":"from","type":"address","internalType":"address"},{"name":"to","type":"address","internalType":"address"},{"name":"tokenId","type":"uint256","internalType":"uint256"}],"outputs":[],"stateMutability":"nonpayable"},{"type":"function","name":"safeTransferFrom","inputs":[{"name":"from","type":"address","internalType":"address"},{"name":"to","type":"address","internalType":"address"},{"name":"tokenId","type":"uint256","internalType":"uint256"},{"name":"data","type":"bytes","internalType":"bytes"}],"outputs":[],"stateMutability":"nonpayable"},{"type":"function","name":"setApprovalForAll","inputs":[{"name":"_operator","type":"address","internalType":"address"},{"name":"_approved","type":"bool","internalType":"bool"}],"outputs":[],"stateMutability":"nonpayable"},{"type":"function","name":"setApprovalForAllChonksMarketplace","inputs":[{"name":"_chonkId","type":"uint256","internalType":"uint256"},{"name":"_operator","type":"address","internalType":"address"},{"name":"_approved","type":"bool","internalType":"bool"}],"outputs":[],"stateMutability":"nonpayable"},{"type":"function","name":"setBackgroundColor","inputs":[{"name":"_chonkTokenId","type":"uint256","internalType":"uint256"},{"name":"_color","type":"string","internalType":"string"}],"outputs":[],"stateMutability":"nonpayable"},{"type":"function","name":"setBodyIndex","inputs":[{"name":"_chonkTokenId","type":"uint256","internalType":"uint256"},{"name":"_bodyIndex","type":"uint8","internalType":"uint8"}],"outputs":[],"stateMutability":"nonpayable"},{"type":"function","name":"setChonksCreatorListMerkleRoot","inputs":[{"name":"_merkleRoot","type":"bytes32","internalType":"bytes32"}],"outputs":[],"stateMutability":"nonpayable"},{"type":"function","name":"setFirstSeasonRenderMinter","inputs":[{"name":"_dataContract","type":"address","internalType":"address"}],"outputs":[],"stateMutability":"nonpayable"},{"type":"function","name":"setFriendsListMerkleRoot","inputs":[{"name":"_merkleRoot","type":"bytes32","internalType":"bytes32"}],"outputs":[],"stateMutability":"nonpayable"},{"type":"function","name":"setMainRenderer2D","inputs":[{"name":"_mainRenderer2D","type":"address","internalType":"address"}],"outputs":[],"stateMutability":"nonpayable"},{"type":"function","name":"setMainRenderer3D","inputs":[{"name":"_mainRenderer3D","type":"address","internalType":"address"}],"outputs":[],"stateMutability":"nonpayable"},{"type":"function","name":"setMarketplace","inputs":[{"name":"_marketplace","type":"address","internalType":"address"}],"outputs":[],"stateMutability":"nonpayable"},{"type":"function","name":"setMaxTraitsToOutput","inputs":[{"name":"_maxTraitsToOutput","type":"uint256","internalType":"uint256"}],"outputs":[],"stateMutability":"nonpayable"},{"type":"function","name":"setMintStartTime","inputs":[{"name":"_mintStartTime","type":"uint256","internalType":"uint256"}],"outputs":[],"stateMutability":"nonpayable"},{"type":"function","name":"setPrice","inputs":[{"name":"_priceInWei","type":"uint256","internalType":"uint256"}],"outputs":[],"stateMutability":"nonpayable"},{"type":"function","name":"setSpecialCollectionMerkleRoot","inputs":[{"name":"_merkleRoot","type":"bytes32","internalType":"bytes32"}],"outputs":[],"stateMutability":"nonpayable"},{"type":"function","name":"setTokenRender3D","inputs":[{"name":"_chonkTokenId","type":"uint256","internalType":"uint256"},{"name":"_render3D","type":"bool","internalType":"bool"}],"outputs":[],"stateMutability":"nonpayable"},{"type":"function","name":"setTraitsContract","inputs":[{"name":"_address","type":"address","internalType":"contract ChonkTraits"}],"outputs":[],"stateMutability":"nonpayable"},{"type":"function","name":"setWithdrawAddress","inputs":[{"name":"_withdrawAddress","type":"address","internalType":"address"}],"outputs":[],"stateMutability":"nonpayable"},{"type":"function","name":"specialCollectionMerkleRoot","inputs":[],"outputs":[{"name":"","type":"bytes32","internalType":"bytes32"}],"stateMutability":"view"},{"type":"function","name":"supportsInterface","inputs":[{"name":"interfaceId","type":"bytes4","internalType":"bytes4"}],"outputs":[{"name":"","type":"bool","internalType":"bool"}],"stateMutability":"view"},{"type":"function","name":"symbol","inputs":[],"outputs":[{"name":"","type":"string","internalType":"string"}],"stateMutability":"view"},{"type":"function","name":"tbaAddressToTokenId","inputs":[{"name":"","type":"address","internalType":"address"}],"outputs":[{"name":"","type":"uint256","internalType":"uint256"}],"stateMutability":"view"},{"type":"function","name":"teamMint","inputs":[{"name":"_to","type":"address","internalType":"address"},{"name":"_amount","type":"uint256","internalType":"uint256"}],"outputs":[],"stateMutability":"nonpayable"},{"type":"function","name":"tokenByIndex","inputs":[{"name":"index","type":"uint256","internalType":"uint256"}],"outputs":[{"name":"","type":"uint256","internalType":"uint256"}],"stateMutability":"view"},{"type":"function","name":"tokenIdToTBAAccountAddress","inputs":[{"name":"","type":"uint256","internalType":"uint256"}],"outputs":[{"name":"","type":"address","internalType":"address"}],"stateMutability":"view"},{"type":"function","name":"tokenOfOwnerByIndex","inputs":[{"name":"owner","type":"address","internalType":"address"},{"name":"index","type":"uint256","internalType":"uint256"}],"outputs":[{"name":"","type":"uint256","internalType":"uint256"}],"stateMutability":"view"},{"type":"function","name":"tokenURI","inputs":[{"name":"_tokenId","type":"uint256","internalType":"uint256"}],"outputs":[{"name":"","type":"string","internalType":"string"}],"stateMutability":"view"},{"type":"function","name":"totalSupply","inputs":[],"outputs":[{"name":"","type":"uint256","internalType":"uint256"}],"stateMutability":"view"},{"type":"function","name":"traitsContract","inputs":[],"outputs":[{"name":"","type":"address","internalType":"contract ChonkTraits"}],"stateMutability":"view"},{"type":"function","name":"transferFrom","inputs":[{"name":"from","type":"address","internalType":"address"},{"name":"to","type":"address","internalType":"address"},{"name":"tokenId","type":"uint256","internalType":"uint256"}],"outputs":[],"stateMutability":"nonpayable"},{"type":"function","name":"transferOwnership","inputs":[{"name":"newOwner","type":"address","internalType":"address"}],"outputs":[],"stateMutability":"payable"},{"type":"function","name":"unequip","inputs":[{"name":"_chonkTokenId","type":"uint256","internalType":"uint256"},{"name":"traitType","type":"uint8","internalType":"enum TraitCategory.Name"}],"outputs":[],"stateMutability":"nonpayable"},{"type":"function","name":"unequipAll","inputs":[{"name":"_chonkTokenId","type":"uint256","internalType":"uint256"}],"outputs":[],"stateMutability":"nonpayable"},{"type":"function","name":"walletOfOwner","inputs":[{"name":"_owner","type":"address","internalType":"address"}],"outputs":[{"name":"","type":"uint256[]","internalType":"uint256[]"}],"stateMutability":"view"},{"type":"function","name":"withdraw","inputs":[],"outputs":[],"stateMutability":"nonpayable"},{"type":"function","name":"withdrawAddress","inputs":[],"outputs":[{"name":"","type":"address","internalType":"address"}],"stateMutability":"view"},{"type":"event","name":"Approval","inputs":[{"name":"owner","type":"address","indexed":true,"internalType":"address"},{"name":"approved","type":"address","indexed":true,"internalType":"address"},{"name":"tokenId","type":"uint256","indexed":true,"internalType":"uint256"}],"anonymous":false},{"type":"event","name":"ApprovalForAll","inputs":[{"name":"owner","type":"address","indexed":true,"internalType":"address"},{"name":"operator","type":"address","indexed":true,"internalType":"address"},{"name":"approved","type":"bool","indexed":false,"internalType":"bool"}],"anonymous":false},{"type":"event","name":"BackgroundColor","inputs":[{"name":"owner","type":"address","indexed":true,"internalType":"address"},{"name":"tokenId","type":"uint256","indexed":true,"internalType":"uint256"},{"name":"color","type":"string","indexed":false,"internalType":"string"}],"anonymous":false},{"type":"event","name":"BatchMetadataUpdate","inputs":[{"name":"_fromTokenId","type":"uint256","indexed":false,"internalType":"uint256"},{"name":"_toTokenId","type":"uint256","indexed":false,"internalType":"uint256"}],"anonymous":false},{"type":"event","name":"BodyIndex","inputs":[{"name":"owner","type":"address","indexed":true,"internalType":"address"},{"name":"tokenId","type":"uint256","indexed":true,"internalType":"uint256"},{"name":"_bodyIndex","type":"uint8","indexed":false,"internalType":"uint8"}],"anonymous":false},{"type":"event","name":"Equip","inputs":[{"name":"owner","type":"address","indexed":true,"internalType":"address"},{"name":"tokenId","type":"uint256","indexed":true,"internalType":"uint256"},{"name":"traitTokenId","type":"uint256","indexed":true,"internalType":"uint256"},{"name":"traitCategory","type":"uint8","indexed":false,"internalType":"uint8"}],"anonymous":false},{"type":"event","name":"EquipAll","inputs":[{"name":"owner","type":"address","indexed":true,"internalType":"address"},{"name":"tokenId","type":"uint256","indexed":true,"internalType":"uint256"}],"anonymous":false},{"type":"event","name":"MetadataUpdate","inputs":[{"name":"_tokenId","type":"uint256","indexed":false,"internalType":"uint256"}],"anonymous":false},{"type":"event","name":"Mint","inputs":[{"name":"owner","type":"address","indexed":true,"internalType":"address"},{"name":"tokenId","type":"uint256","indexed":true,"internalType":"uint256"}],"anonymous":false},{"type":"event","name":"OwnershipHandoverCanceled","inputs":[{"name":"pendingOwner","type":"address","indexed":true,"internalType":"address"}],"anonymous":false},{"type":"event","name":"OwnershipHandoverRequested","inputs":[{"name":"pendingOwner","type":"address","indexed":true,"internalType":"address"}],"anonymous":false},{"type":"event","name":"OwnershipTransferred","inputs":[{"name":"oldOwner","type":"address","indexed":true,"internalType":"address"},{"name":"newOwner","type":"address","indexed":true,"internalType":"address"}],"anonymous":false},{"type":"event","name":"Render3D","inputs":[{"name":"owner","type":"address","indexed":true,"internalType":"address"},{"name":"tokenId","type":"uint256","indexed":true,"internalType":"uint256"},{"name":"renderZ","type":"bool","indexed":false,"internalType":"bool"}],"anonymous":false},{"type":"event","name":"Transfer","inputs":[{"name":"from","type":"address","indexed":true,"internalType":"address"},{"name":"to","type":"address","indexed":true,"internalType":"address"},{"name":"tokenId","type":"uint256","indexed":true,"internalType":"uint256"}],"anonymous":false},{"type":"event","name":"Unequip","inputs":[{"name":"owner","type":"address","indexed":true,"internalType":"address"},{"name":"tokenId","type":"uint256","indexed":true,"internalType":"uint256"},{"name":"traitCategory","type":"uint8","indexed":false,"internalType":"uint8"}],"anonymous":false},{"type":"event","name":"UnequipAll","inputs":[{"name":"owner","type":"address","indexed":true,"internalType":"address"},{"name":"tokenId","type":"uint256","indexed":true,"internalType":"uint256"}],"anonymous":false},{"type":"error","name":"AlreadyInitialized","inputs":[]},{"type":"error","name":"BodyAlreadyExists","inputs":[]},{"type":"error","name":"CantBeZero","inputs":[]},{"type":"error","name":"CantTransfer","inputs":[]},{"type":"error","name":"CantTransferToTBAs","inputs":[]},{"type":"error","name":"ChonkDoesntExist","inputs":[]},{"type":"error","name":"FirstSeasonRenderMinterNotSet","inputs":[]},{"type":"error","name":"IncorrectChonkOwner","inputs":[]},{"type":"error","name":"IncorrectTBAOwner","inputs":[]},{"type":"error","name":"IncorrectTraitType","inputs":[]},{"type":"error","name":"InsufficientFunds","inputs":[]},{"type":"error","name":"InvalidBodyIndex","inputs":[]},{"type":"error","name":"InvalidColor","inputs":[]},{"type":"error","name":"InvalidLevelAmount","inputs":[]},{"type":"error","name":"InvalidSignature","inputs":[]},{"type":"error","name":"MintEnded","inputs":[]},{"type":"error","name":"MintNotStarted","inputs":[]},{"type":"error","name":"NewOwnerIsZeroAddress","inputs":[]},{"type":"error","name":"NoHandoverRequest","inputs":[]},{"type":"error","name":"NonceAlreadyUsed","inputs":[]},{"type":"error","name":"TenIsMaxMint","inputs":[]},{"type":"error","name":"Timelocked","inputs":[]},{"type":"error","name":"Unauthorized","inputs":[]},{"type":"error","name":"UseUnequip","inputs":[]},{"type":"error","name":"WithdrawFailed","inputs":[]},{"type":"error","name":"markaSaysNo","inputs":[]}],"bytecode":{"object":"0x60a060405260636015553480156200001657600080fd5b506040516200627438038062006274833981016040819052620000399162000101565b6040518060400160405280600681526020016543686f6e6b7360d01b8152506040518060400160405280600681526020016543484f4e4b5360d01b8152508160009081620000889190620001d3565b506001620000978282620001d3565b50506001600a5550620000aa33620000c5565b42608052600b805460ff19169115159190911790556200029f565b6001600160a01b0316638b78c6d8198190558060007f8be0079c531659141344cd1fd0a4f28419497f9722a3daafe3b4186f6b6457e08180a350565b6000602082840312156200011457600080fd5b815180151581146200012557600080fd5b9392505050565b634e487b7160e01b600052604160045260246000fd5b600181811c908216806200015757607f821691505b6020821081036200017857634e487b7160e01b600052602260045260246000fd5b50919050565b601f821115620001ce576000816000526020600020601f850160051c81016020861015620001a95750805b601f850160051c820191505b81811015620001ca57828155600101620001b5565b5050505b505050565b81516001600160401b03811115620001ef57620001ef6200012c565b620002078162000200845462000142565b846200017e565b602080601f8311600181146200023f5760008415620002265750858301515b600019600386901b1c1916600185901b178555620001ca565b600085815260208120601f198616915b8281101562000270578886015182559484019460019091019084016200024f565b50858210156200028f5787850151600019600388901b60f8161c191681555b5050505050600190811b01905550565b608051615fb2620002c260003960008181610f5601526130040152615fb26000f3fe6080604052600436106104ca5760003560e01c80638aa1e4c811610276578063bef1dfb71161014f578063e29babbb116100c1578063f2361e2311610085578063f2361e2314610f8b578063f2fde38b14610fab578063f3f8efb914610fbe578063f4bec0b614610fde578063f6a0c93214610ffe578063fee81cf41461103457600080fd5b8063e29babbb14610ec5578063e3d2155514610ee5578063e985e9c514610efb578063ecda10f514610f44578063f04e283e14610f7857600080fd5b8063d59752eb11610113578063d59752eb14610e1a578063d5b3621b14610e2f578063d68c4f3214610e4f578063dceef0ec14610e6f578063deab1d3614610e8f578063e140554014610ea557600080fd5b8063bef1dfb714610d6d578063c093afdb14610d8d578063c87b56dd14610dad578063cdb6dd5c14610dcd578063d3d6873e14610ded57600080fd5b8063a035b1fe116101e8578063abc8c7af116101ac578063abc8c7af14610cba578063add5a4fa14610cda578063b66ef6e314610cfa578063b88d4fde14610d1a578063b99ce71f14610d3a578063ba41b0c614610d5a57600080fd5b8063a035b1fe14610c09578063a1d6268014610c1f578063a22cb46514610c3f578063a23830ae14610c5f578063a4bf9a0014610c8d57600080fd5b806392012f081161023a57806392012f0814610b44578063931e2e4914610b7357806395d89b4114610b895780639c05d68d14610b9e5780639c7be2f114610bd45780639f6e463714610be957600080fd5b80638aa1e4c814610ab55780638da5cb5b14610ad55780638f22475714610aee578063916c546b14610b0457806391b7f5ed14610b2457600080fd5b80633ccfd60b116103a85780635eabd84a1161031a578063715018a6116102de578063715018a6146109ee57806373ad6c2d146109f65780637684ef0d14610a165780637e2e6c4714610a2c5780638200ea5114610a4c5780638472cbca14610a7f57600080fd5b80635eabd84a1461090c5780636352211e1461092c578063667043491461094c57806367d2afe2146109a157806370a08231146109ce57600080fd5b80634f6ccce71161036c5780634f6ccce71461086f57806350b031461461088f57806354d1f13d146108a4578063550ab247146108ac57806355737f35146108cc57806358a97640146108ec57600080fd5b80633ccfd60b146107d757806342842e0e146107ec578063438b63001461080c5780634a4333a3146108395780634a60f6201461085957600080fd5b80631ab37512116104415780633044825b116104055780633044825b14610717578063306c73341461073757806330f6c5211461075757806332875aa01461077757806333d3d9bf146107975780633ab1a494146107b757600080fd5b80631ab375121461068f57806323b872dd146106af57806325692962146106cf57806328257532146106d75780632f745c59146106f757600080fd5b8063095ea7b311610493578063095ea7b3146105c05780630c83f9d7146105e057806313ea0ae31461061057806314fe8ff4146106305780631581b6001461065057806318160ddd1461067057600080fd5b8062179206146104cf57806301ffc9a7146104f157806304003bd01461052657806306fdde0314610566578063081812fc14610588575b600080fd5b3480156104db57600080fd5b506104ef6104ea366004614e5c565b611067565b005b3480156104fd57600080fd5b5061051161050c366004614e8f565b6110b7565b60405190151581526020015b60405180910390f35b34801561053257600080fd5b50610546610541366004614eac565b6110c8565b604080516001600160a01b0393841681529290911660208301520161051d565b34801561057257600080fd5b5061057b6110f7565b60405161051d9190614f15565b34801561059457600080fd5b506105a86105a3366004614eac565b611189565b6040516001600160a01b03909116815260200161051d565b3480156105cc57600080fd5b506104ef6105db366004614f28565b6111b0565b3480156105ec57600080fd5b506106006105fb366004614eac565b611201565b60405161051d9493929190614f54565b34801561061c57600080fd5b506012546105a8906001600160a01b031681565b34801561063c57600080fd5b5061057b61064b366004614eac565b6113c2565b34801561065c57600080fd5b506017546105a8906001600160a01b031681565b34801561067c57600080fd5b506008545b60405190815260200161051d565b34801561069b57600080fd5b506104ef6106aa366004614eac565b611606565b3480156106bb57600080fd5b506104ef6106ca366004614f9e565b611613565b6104ef611652565b3480156106e357600080fd5b506104ef6106f2366004614fdf565b6116a1565b34801561070357600080fd5b50610681610712366004614f28565b61189a565b34801561072357600080fd5b506104ef610732366004614eac565b611930565b34801561074357600080fd5b5061057b610752366004614eac565b6119eb565b34801561076357600080fd5b506104ef610772366004615103565b611a0e565b34801561078357600080fd5b5061057b610792366004614eac565b611a7a565b3480156107a357600080fd5b506104ef6107b2366004614eac565b611b3e565b3480156107c357600080fd5b506104ef6107d2366004614e5c565b611b4b565b3480156107e357600080fd5b506104ef611b75565b3480156107f857600080fd5b506104ef610807366004614f9e565b611bf4565b34801561081857600080fd5b5061082c610827366004614e5c565b611c0f565b60405161051d919061519f565b34801561084557600080fd5b506104ef6108543660046151e3565b611ca6565b34801561086557600080fd5b5061068160165481565b34801561087b57600080fd5b5061068161088a366004614eac565b61200e565b34801561089b57600080fd5b506105116120a1565b6104ef6120b2565b3480156108b857600080fd5b506104ef6108c7366004615248565b6120ee565b3480156108d857600080fd5b506105a86108e7366004614fdf565b612144565b3480156108f857600080fd5b506104ef610907366004614e5c565b61217c565b34801561091857600080fd5b506104ef610927366004614e5c565b6121cc565b34801561093857600080fd5b506105a8610947366004614eac565b61221c565b34801561095857600080fd5b5061096c610967366004614eac565b61227c565b60405161051d94939291906001600160a01b039485168152602081019390935292166040820152901515606082015260800190565b3480156109ad57600080fd5b506109c16109bc366004614eac565b61232e565b60405161051d91906152cb565b3480156109da57600080fd5b506106816109e9366004614e5c565b61239a565b6104ef612420565b348015610a0257600080fd5b506104ef610a11366004614e5c565b612434565b348015610a2257600080fd5b50610681601f5481565b348015610a3857600080fd5b506104ef610a47366004614e5c565b612484565b348015610a5857600080fd5b50610511610a67366004614eac565b6000908152600c60205260409020600b015460ff1690565b348015610a8b57600080fd5b50610681610a9a366004614e5c565b6001600160a01b03166000908152601b602052604090205490565b348015610ac157600080fd5b50610511610ad0366004614fdf565b6124d4565b348015610ae157600080fd5b50638b78c6d819546105a8565b348015610afa57600080fd5b50610681601e5481565b348015610b1057600080fd5b5061057b610b1f366004614eac565b612543565b348015610b3057600080fd5b506104ef610b3f366004614eac565b612646565b348015610b5057600080fd5b50610b64610b5f3660046152f2565b612653565b60405161051d939291906153eb565b348015610b7f57600080fd5b5061068160195481565b348015610b9557600080fd5b5061057b6127a4565b348015610baa57600080fd5b506105a8610bb9366004614eac565b601a602052600090815260409020546001600160a01b031681565b348015610be057600080fd5b506104ef6127b3565b348015610bf557600080fd5b5061082c610c04366004614eac565b6127e0565b348015610c1557600080fd5b5061068160185481565b348015610c2b57600080fd5b5061057b610c3a366004614eac565b61286f565b348015610c4b57600080fd5b506104ef610c5a366004615424565b61289f565b348015610c6b57600080fd5b50610c7f610c7a3660046152f2565b612918565b60405161051d929190615459565b348015610c9957600080fd5b50610681610ca8366004614e5c565b601b6020526000908152604090205481565b348015610cc657600080fd5b506011546105a8906001600160a01b031681565b348015610ce657600080fd5b506104ef610cf5366004614f28565b6129c6565b348015610d0657600080fd5b506014546105a8906001600160a01b031681565b348015610d2657600080fd5b506104ef610d35366004615487565b612a38565b348015610d4657600080fd5b506104ef610d55366004614eac565b612a6a565b6104ef610d68366004615515565b612a77565b348015610d7957600080fd5b506104ef610d883660046155b1565b612ba4565b348015610d9957600080fd5b506010546105a8906001600160a01b031681565b348015610db957600080fd5b5061057b610dc8366004614eac565b612c4f565b348015610dd957600080fd5b506104ef610de83660046155e1565b612c90565b348015610df957600080fd5b50610e0d610e08366004614eac565b612e54565b60405161051d9190615611565b348015610e2657600080fd5b50610681612ffd565b348015610e3b57600080fd5b506104ef610e4a366004614eac565b613032565b348015610e5b57600080fd5b506104ef610e6a3660046156c8565b61303f565b348015610e7b57600080fd5b5061057b610e8a366004614eac565b6132bb565b348015610e9b57600080fd5b50610681601d5481565b348015610eb157600080fd5b506104ef610ec036600461570e565b613561565b348015610ed157600080fd5b506104ef610ee0366004614eac565b613629565b348015610ef157600080fd5b5061068160155481565b348015610f0757600080fd5b50610511610f16366004615731565b6001600160a01b03918216600090815260056020908152604080832093909416825291909152205460ff1690565b348015610f5057600080fd5b506106817f000000000000000000000000000000000000000000000000000000000000000081565b6104ef610f86366004614e5c565b613636565b348015610f9757600080fd5b506104ef610fa636600461575f565b613673565b6104ef610fb9366004614e5c565b6136e6565b348015610fca57600080fd5b5061057b610fd9366004614eac565b61370d565b348015610fea57600080fd5b506013546105a8906001600160a01b031681565b34801561100a57600080fd5b506105a8611019366004614eac565b6000908152601a60205260409020546001600160a01b031690565b34801561104057600080fd5b5061068161104f366004614e5c565b63389a75e1600c908152600091909152602090205490565b61106f61398e565b6110776120a1565b156110955760405163774ae17d60e01b815260040160405180910390fd5b601480546001600160a01b0319166001600160a01b0392909216919091179055565b60006110c2826139a9565b92915050565b6000806110d48361221c565b6000938452601a60205260409093205492936001600160a01b0390931692915050565b606060008054611106906157e4565b80601f0160208091040260200160405190810160405280929190818152602001828054611132906157e4565b801561117f5780601f106111545761010080835404028352916020019161117f565b820191906000526020600020905b81548152906001019060200180831161116257829003601f168201915b5050505050905090565b6000611194826139ce565b506000908152600460205260409020546001600160a01b031690565b6111b98161221c565b6001600160a01b0316336001600160a01b0316146111e9576040516282b42960e81b815260040160405180910390fd5b6111f38183613a2d565b6111fd8282613a6c565b5050565b600f6020526000908152604090208054600182018054919291611223906157e4565b80601f016020809104026020016040519081016040528092919081815260200182805461124f906157e4565b801561129c5780601f106112715761010080835404028352916020019161129c565b820191906000526020600020905b81548152906001019060200180831161127f57829003601f168201915b5050505050908060020180546112b1906157e4565b80601f01602080910402602001604051908101604052809291908181526020018280546112dd906157e4565b801561132a5780601f106112ff5761010080835404028352916020019161132a565b820191906000526020600020905b81548152906001019060200180831161130d57829003601f168201915b50505050509080600301805461133f906157e4565b80601f016020809104026020016040519081016040528092919081815260200182805461136b906157e4565b80156113b85780601f1061138d576101008083540402835291602001916113b8565b820191906000526020600020905b81548152906001019060200180831161139b57829003601f168201915b5050505050905084565b606060006113cf836127e0565b90506000601060009054906101000a90046001600160a01b03166001600160a01b0316635c1ef2566040518163ffffffff1660e01b8152600401600060405180830381865afa158015611426573d6000803e3d6000fd5b505050506040513d6000823e601f3d908101601f1916820160405261144e9190810190615863565b9050600060155483511061146457601554611467565b82515b90506000816001600160401b0381111561148357611483615017565b6040519080825280602002602001820160405280156114b657816020015b60608152602001906001900390816114a15790505b50905060005b8281101561157d5760105485516001600160a01b039091169063c7791531908790849081106114ed576114ed615897565b60200260200101516040518263ffffffff1660e01b815260040161151391815260200190565b600060405180830381865afa158015611530573d6000803e3d6000fd5b505050506040513d6000823e601f3d908101601f191682016040526115589190810190615863565b82828151811061156a5761156a615897565b60209081029190910101526001016114bc565b506013548451601554604051631719ff8760e11b81526001600160a01b0390931692632e33ff0e926115b7928892879291906004016158ad565b600060405180830381865afa1580156115d4573d6000803e3d6000fd5b505050506040513d6000823e601f3d908101601f191682016040526115fc9190810190615863565b9695505050505050565b61160e61398e565b601e55565b61161d3382613ada565b6116425760405162461bcd60e51b81526004016116399061592e565b60405180910390fd5b61164d838383613b58565b505050565b60006202a3006001600160401b03164201905063389a75e1600c5233600052806020600c2055337fdbf36a107da19e49527a7176a1babf963b4b0ff8cde35ee35d6cd8f1f9ac7e1d600080a250565b816116ab8161221c565b6001600160a01b0316336001600160a01b0316146116dc57604051631431735b60e21b815260040160405180910390fd5b816000036116fd57604051630754c7f360e41b815260040160405180910390fd5b60006117098484613d05565b9050600181600781111561171f5761171f61597c565b03611736576000848152600c602052604090208390555b600281600781111561174a5761174a61597c565b03611764576000848152600c602052604090206001018390555b60038160078111156117785761177861597c565b03611792576000848152600c602052604090206002018390555b60048160078111156117a6576117a661597c565b036117c0576000848152600c602052604090206003018390555b60058160078111156117d4576117d461597c565b036117ee576000848152600c602052604090206004018390555b60068160078111156118025761180261597c565b0361181c576000848152600c602052604090206005018390555b60078160078111156118305761183061597c565b0361184a576000848152600c602052604090206006018390555b82846118558661221c565b6001600160a01b0316600080516020615f5d83398151915284600781111561187f5761187f61597c565b60405160ff909116815260200160405180910390a450505050565b60006118a58361239a565b82106119075760405162461bcd60e51b815260206004820152602b60248201527f455243373231456e756d657261626c653a206f776e657220696e646578206f7560448201526a74206f6620626f756e647360a81b6064820152608401611639565b506001600160a01b03919091166000908152600660209081526040808320938352929052205490565b8061193a8161221c565b6001600160a01b0316336001600160a01b03161461196b57604051631431735b60e21b815260040160405180910390fd5b6000828152600c6020526040812081815560018101829055600281018290556003810182905560048101829055600581018290556006810191909155826119b18161221c565b6001600160a01b03167f46078a2cd4c69c3b4a27bdc69fdfe03d442ebcf405f1a68e9b5df6bc3e24429760405160405180910390a3505050565b60608060006119f984612e54565b9050611a0481612653565b5095945050505050565b89611a188161221c565b6001600160a01b0316336001600160a01b031614611a4957604051631431735b60e21b815260040160405180910390fd5b611a598b8b8b8b8b8b8b8b611ca6565b611a638b84613561565b611a6d8b8361303f565b5050505050505050505050565b60608060606000611a8a85612e54565b9050611a9581612653565b5060105460405163bb12d21d60e01b81529195506001600160a01b0316915063bb12d21d90611ac8908490600401615611565b600060405180830381865afa158015611ae5573d6000803e3d6000fd5b505050506040513d6000823e601f3d908101601f19168201604052611b0d9190810190615992565b50604051909350611b25915084908490602001615a19565b6040516020818303038152906040529350505050919050565b611b4661398e565b601555565b611b5361398e565b601780546001600160a01b0319166001600160a01b0392909216919091179055565b611b7d61398e565b6017546040516000916001600160a01b03169047908381818185875af1925050503d8060008114611bca576040519150601f19603f3d011682016040523d82523d6000602084013e611bcf565b606091505b5050905080611bf157604051631d42c86760e21b815260040160405180910390fd5b50565b61164d83838360405180602001604052806000815250612a38565b60606000611c1c8361239a565b90506000816001600160401b03811115611c3857611c38615017565b604051908082528060200260200182016040528015611c61578160200160208202803683370190505b50905060005b82811015611c9e57611c79858261189a565b828281518110611c8b57611c8b615897565b6020908102919091010152600101611c67565b509392505050565b87611cb08161221c565b6001600160a01b0316336001600160a01b031614611ce157604051631431735b60e21b815260040160405180910390fd5b8715611d4857611cf18989613d8a565b611cfc886001613e82565b6000898152600c602052604090208890558789611d188161221c565b6001600160a01b0316600080516020615f5d833981519152600160405160ff909116815260200160405180910390a45b8615611db257611d588988613d8a565b611d63876002613e82565b6000898152600c602052604090206001018790558689611d828161221c565b6001600160a01b0316600080516020615f5d833981519152600260405160ff909116815260200160405180910390a45b8515611e1c57611dc28987613d8a565b611dcd866003613e82565b6000898152600c602052604090206002018690558589611dec8161221c565b6001600160a01b0316600080516020615f5d833981519152600360405160ff909116815260200160405180910390a45b8415611e8657611e2c8986613d8a565b611e37856004613e82565b6000898152600c602052604090206003018590558489611e568161221c565b6001600160a01b0316600080516020615f5d833981519152600460405160ff909116815260200160405180910390a45b8315611ef057611e968985613d8a565b611ea1846005613e82565b6000898152600c602052604090206004018490558389611ec08161221c565b6001600160a01b0316600080516020615f5d833981519152600560405160ff909116815260200160405180910390a45b8215611f5a57611f008984613d8a565b611f0b836006613e82565b6000898152600c602052604090206005018390558289611f2a8161221c565b6001600160a01b0316600080516020615f5d833981519152600660405160ff909116815260200160405180910390a45b8115611fc457611f6a8983613d8a565b611f75826007613e82565b6000898152600c602052604090206006018290558189611f948161221c565b6001600160a01b0316600080516020615f5d833981519152600760405160ff909116815260200160405180910390a45b88611fce8a61221c565b6001600160a01b03167f56680590212b09eb4b72a2eba8801b037ec046dfc754538e924f5bb6a8c4db6c60405160405180910390a3505050505050505050565b600061201960085490565b821061207c5760405162461bcd60e51b815260206004820152602c60248201527f455243373231456e756d657261626c653a20676c6f62616c20696e646578206f60448201526b7574206f6620626f756e647360a01b6064820152608401611639565b6008828154811061208f5761208f615897565b90600052602060002001549050919050565b60006120ab612ffd565b4211905090565b63389a75e1600c523360005260006020600c2055337ffa7b8eab7da67f412cc9575ed43464468f9bfbae89d1675917346ca6d8fe3c92600080a2565b60006120f98461221c565b90506001600160a01b0381163314612123576040516282b42960e81b815260040160405180910390fd5b8115612133576121338484613a2d565b61213e818484613f84565b50505050565b601c602052816000526040600020818154811061216057600080fd5b6000918252602090912001546001600160a01b03169150829050565b61218461398e565b61218c6120a1565b156121aa5760405163774ae17d60e01b815260040160405180910390fd5b601280546001600160a01b0319166001600160a01b0392909216919091179055565b6121d461398e565b6121dc6120a1565b156121fa5760405163774ae17d60e01b815260040160405180910390fd5b601080546001600160a01b0319166001600160a01b0392909216919091179055565b6000818152600260205260408120546001600160a01b0316806110c25760405162461bcd60e51b8152602060048201526018602482015277115490cdcc8c4e881a5b9d985b1a59081d1bdad95b88125160421b6044820152606401611639565b6010546040516331a9108f60e11b8152600481018390526000918291829182916001600160a01b0390911690636352211e90602401602060405180830381865afa1580156122ce573d6000803e3d6000fd5b505050506040513d601f19601f820116820180604052508101906122f29190615a48565b6001600160a01b0381166000908152601b602052604090205490945092506123198361221c565b915061232583866124d4565b90509193509193565b6000818152601c602090815260409182902080548351818402810184019094528084526060939283018282801561238e57602002820191906000526020600020905b81546001600160a01b03168152600190910190602001808311612370575b50505050509050919050565b60006001600160a01b0382166124045760405162461bcd60e51b815260206004820152602960248201527f4552433732313a2061646472657373207a65726f206973206e6f7420612076616044820152683634b21037bbb732b960b91b6064820152608401611639565b506001600160a01b031660009081526003602052604090205490565b61242861398e565b612432600061404a565b565b61243c61398e565b6124446120a1565b156124625760405163774ae17d60e01b815260040160405180910390fd5b601180546001600160a01b0319166001600160a01b0392909216919091179055565b61248c61398e565b6124946120a1565b156124b25760405163774ae17d60e01b815260040160405180910390fd5b601380546001600160a01b0319166001600160a01b0392909216919091179055565b6000806124e084612e54565b80519091508314806124f55750828160200151145b806125035750828160400151145b806125115750828160600151145b8061251f5750828160800151145b8061252d5750828160a00151145b8061253b5750828160c00151145b949350505050565b6013546000828152600f602052604080822090516371bed9e160e11b81526060936001600160a01b03169163e37db3c2916125849160020190600401615ae2565b600060405180830381865afa1580156125a1573d6000803e3d6000fd5b505050506040513d6000823e601f3d908101601f191682016040526125c99190810190615863565b6013546040516335b07b7960e11b81529192506001600160a01b031690636b60f6f2906125fa908490600401614f15565b600060405180830381865afa158015612617573d6000803e3d6000fd5b505050506040513d6000823e601f3d908101601f1916820160405261263f9190810190615863565b9392505050565b61264e61398e565b601855565b606080606061266984610120015160ff16612543565b6101208501805160ff9081166000908152600f602052604080822060135494519093168252908190209051630d88d4ff60e01b81526003909201926001600160a01b031691630d88d4ff916126c691600190910190600401615af5565b600060405180830381865afa1580156126e3573d6000803e3d6000fd5b505050506040513d6000823e601f3d908101601f1916820160405261270b9190810190615863565b818054612717906157e4565b80601f0160208091040260200160405190810160405280929190818152602001828054612743906157e4565b80156127905780601f1061276557610100808354040283529160200191612790565b820191906000526020600020905b81548152906001019060200180831161277357829003601f168201915b505050505091509250925092509193909250565b606060018054611106906157e4565b600b5460ff16156124325760005b600a811015611bf15760606127d7600482612a77565b506001016127c1565b6000818152601a6020526040812054606091906001600160a01b031660105460405162438b6360e81b81526001600160a01b03808416600483015292935091169063438b630090602401600060405180830381865afa158015612847573d6000803e3d6000fd5b505050506040513d6000823e601f3d908101601f1916820160405261263f9190810190615b28565b6060600061287c83612e54565b9050806101600151612896576128918361370d565b61263f565b61263f836132bb565b801561290d5760006128b033611c0f565b905080516000036128d3576040516282b42960e81b815260040160405180910390fd5b60005b815181101561290a576129028282815181106128f4576128f4615897565b602002602001015185613a2d565b6001016128d6565b50505b6111fd338383613f84565b60608061292c83610120015160ff16612543565b60135461012085015160ff166000908152600f6020526040908190209051630d88d4ff60e01b81526001600160a01b0390921691630d88d4ff9161297891600190910190600401615af5565b600060405180830381865afa158015612995573d6000803e3d6000fd5b505050506040513d6000823e601f3d908101601f191682016040526129bd9190810190615863565b91509150915091565b6129ce61398e565b60195415806129de575060195442105b156129fc57604051630314872760e11b815260040160405180910390fd5b601954612a0c9062016da0615bc3565b421115612a2c5760405163124212e560e21b815260040160405180910390fd5b6111fd82826004614088565b612a423383613ada565b612a5e5760405162461bcd60e51b81526004016116399061592e565b61213e848484846143a8565b612a7261398e565b601f55565b6012546001600160a01b0316612aa057604051633390ca8960e21b815260040160405180910390fd5b81600003612ac15760405163e7195f5160e01b815260040160405180910390fd5b600a821115612ae357604051634b70da3960e01b815260040160405180910390fd5b81601854612af19190615bd6565b3414612b105760405163356680b760e01b815260040160405180910390fd5b6040516bffffffffffffffffffffffff193360601b166020820152600490600090603401604051602081830303815290604052805190602001209050612b5983601d54836143db565b15612b675760059150612b99565b612b7483601e54836143db565b15612b825760069150612b99565b612b8f83601f54836143db565b15612b9957600791505b61213e338584614088565b81612bae8161221c565b6001600160a01b0316336001600160a01b031614612bdf57604051631431735b60e21b815260040160405180910390fd5b6000838152600c60205260409020600b01805460ff191683151517905582612c068161221c565b6001600160a01b03167f6dd9e2813f787f711671bf91b2e57a72b9b61bc279b934201f3fd29b3b5f8cbe84604051612c42911515815260200190565b60405180910390a3505050565b6000818152600260205260409020546060906001600160a01b0316612c8757604051636461f73160e01b815260040160405180910390fd5b6110c28261286f565b81612c9a8161221c565b6001600160a01b0316336001600160a01b031614612ccb57604051631431735b60e21b815260040160405180910390fd5b6001826007811115612cdf57612cdf61597c565b03612cf4576000838152600c60205260408120555b6002826007811115612d0857612d0861597c565b03612d20576000838152600c60205260408120600101555b6003826007811115612d3457612d3461597c565b03612d4c576000838152600c60205260408120600201555b6004826007811115612d6057612d6061597c565b03612d78576000838152600c60205260408120600301555b6005826007811115612d8c57612d8c61597c565b03612da4576000838152600c60205260408120600401555b6006826007811115612db857612db861597c565b03612dd0576000838152600c60205260408120600501555b6007826007811115612de457612de461597c565b03612dfc576000838152600c60205260408120600601555b82612e068461221c565b6001600160a01b03167f3d8ac56c725fc7985e9444622a45baee28ba67d8a964045f747b465121f40e71846007811115612e4257612e4261597c565b60405160ff9091168152602001612c42565b612ec360405180610180016040528060008152602001600081526020016000815260200160008152602001600081526020016000815260200160008152602001600063ffffffff16815260200160008152602001600060ff168152602001606081526020016000151581525090565b6000828152600c6020908152604091829020825161018081018452815481526001820154928101929092526002810154928201929092526003820154606082015260048201546080820152600582015460a0820152600682015460c0820152600782015463ffffffff1660e08201526008820154610100820152600982015460ff16610120820152600a8201805491929161014084019190612f64906157e4565b80601f0160208091040260200160405190810160405280929190818152602001828054612f90906157e4565b8015612fdd5780601f10612fb257610100808354040283529160200191612fdd565b820191906000526020600020905b815481529060010190602001808311612fc057829003601f168201915b5050509183525050600b919091015460ff16151560209091015292915050565b600061302d7f00000000000000000000000000000000000000000000000000000000000000006301e13380615bc3565b905090565b61303a61398e565b601955565b816130498161221c565b6001600160a01b0316336001600160a01b03161461307a57604051631431735b60e21b815260040160405180910390fd5b8151829060061461309e57604051631cf7e9c560e01b815260040160405180910390fd5b60408051808201909152600681526503036393432360d41b6020918201528151908201207fc9a8162f44485821dce92aaad6bb1b8cc6d457721d5ae939092ca3297c7dd0a5016131015760405163a3c0b7b960e01b815260040160405180910390fd5b60005b600681101561324e57603060f81b82828151811061312457613124615897565b01602001516001600160f81b031916108015906131655750603960f81b82828151811061315357613153615897565b01602001516001600160f81b03191611155b1580156131c75750604160f81b82828151811061318457613184615897565b01602001516001600160f81b031916108015906131c55750604660f81b8282815181106131b3576131b3615897565b01602001516001600160f81b03191611155b155b80156132285750606160f81b8282815181106131e5576131e5615897565b01602001516001600160f81b031916108015906132265750606660f81b82828151811061321457613214615897565b01602001516001600160f81b03191611155b155b1561324657604051631cf7e9c560e01b815260040160405180910390fd5b600101613104565b506000848152600c60205260409020600a0161326a8482615c35565b50836132758561221c565b6001600160a01b03167f2e34f8c0f6052b66319b4a5df14eac164c6af8a0b37f612d4304a777e1ae7a3d856040516132ad9190614f15565b60405180910390a350505050565b60608060608060608060606132f16040518060800160405280606081526020016060815260200160608152602001600081525090565b60006132fc8a612e54565b905061330781612653565b5060105460405163bb12d21d60e01b8152929a509097506001600160a01b03169063bb12d21d9061333c908490600401615611565b600060405180830381865afa158015613359573d6000803e3d6000fd5b505050506040513d6000823e601f3d908101601f191682016040526133819190810190615992565b604051929950909650935061339c9087908790602001615a19565b60408051601f19818403018152919052610140820151835293506133bf8a6127e0565b51606083015261012081015160ff166000908152600f6020526040902060010180546133ea906157e4565b80601f0160208091040260200160405190810160405280929190818152602001828054613416906157e4565b80156134635780601f1061343857610100808354040283529160200191613463565b820191906000526020600020905b81548152906001019060200180831161344657829003601f168201915b5050505050826020018190525061348c8a6000908152600c60205260409020600b015460ff1690565b6134b057604051806040016040528060028152602001610c9160f21b8152506134cc565b604051806040016040528060028152602001610cd160f21b8152505b604080840191909152601454905163efcc1e3160e01b81526001600160a01b039091169063efcc1e319061350e908d908c908c9089908b908a90600401615d53565b600060405180830381865afa15801561352b573d6000803e3d6000fd5b505050506040513d6000823e601f3d908101601f191682016040526135539190810190615863565b9a9950505050505050505050565b8161356b8161221c565b6001600160a01b0316336001600160a01b03161461359c57604051631431735b60e21b815260040160405180910390fd5b60048260ff1611156135c1576040516329ba348d60e11b815260040160405180910390fd5b6000838152600c60205260409020600901805460ff191660ff8416179055826135e98161221c565b60405160ff851681526001600160a01b0391909116907f454db5768a3f8187a5dd5e9cca100cf699d74d8a03f793d16da3932cdf34d35890602001612c42565b61363161398e565b601d55565b61363e61398e565b63389a75e1600c52806000526020600c20805442111561366657636f5e88186000526004601cfd5b60009055611bf18161404a565b61367b61398e565b6136836120a1565b156136a15760405163774ae17d60e01b815260040160405180910390fd5b6000848152600f60205260409020848155600181016136c08582615c35565b50600281016136cf8482615c35565b50600381016136de8382615c35565b505050505050565b6136ee61398e565b8060601b61370457637448fbae6000526004601cfd5b611bf18161404a565b6060806060806060600061372087612e54565b905061372b81612918565b50601054604051631be5857160e31b81529196506001600160a01b03169063df2c2b889061375d908490600401615611565b600060405180830381865afa15801561377a573d6000803e3d6000fd5b505050506040513d6000823e601f3d908101601f191682016040526137a29190810190615dc7565b90945092506137b0876113c2565b91506137dd6040518060800160405280606081526020016060815260200160608152602001600081525090565b61014082015181526137ee886127e0565b51606082015261012082015160ff166000908152600f602052604090206001018054613819906157e4565b80601f0160208091040260200160405190810160405280929190818152602001828054613845906157e4565b80156138925780601f1061386757610100808354040283529160200191613892565b820191906000526020600020905b81548152906001019060200180831161387557829003601f168201915b505050505081602001819052506138bb886000908152600c60205260409020600b015460ff1690565b6138df57604051806040016040528060028152602001610c9160f21b8152506138fb565b604051806040016040528060028152602001610cd160f21b8152505b60408083019190915260135490516307df90cf60e11b81526001600160a01b0390911690630fbf219e9061393d908b908a908a908a908a908990600401615d53565b600060405180830381865afa15801561395a573d6000803e3d6000fd5b505050506040513d6000823e601f3d908101601f191682016040526139829190810190615863565b98975050505050505050565b638b78c6d819543314612432576382b429006000526004601cfd5b60006001600160e01b0319821663780e9d6360e01b14806110c257506110c2826143f1565b6000818152600260205260409020546001600160a01b0316611bf15760405162461bcd60e51b8152602060048201526018602482015277115490cdcc8c4e881a5b9d985b1a59081d1bdad95b88125160421b6044820152606401611639565b6000918252601c6020908152604083208054600181018255908452922090910180546001600160a01b0319166001600160a01b03909216919091179055565b600081815260046020526040902080546001600160a01b0319166001600160a01b0384169081179091558190613aa18261221c565b6001600160a01b03167f8c5be1e5ebec7d5bd14f71427d1e84f3dd0314c0f7b2291e5b200ac8c7c3b92560405160405180910390a45050565b600080613ae68361221c565b9050806001600160a01b0316846001600160a01b03161480613b2d57506001600160a01b0380821660009081526005602090815260408083209388168352929052205460ff165b8061253b5750836001600160a01b0316613b4684611189565b6001600160a01b031614949350505050565b826001600160a01b0316613b6b8261221c565b6001600160a01b031614613bcf5760405162461bcd60e51b815260206004820152602560248201527f4552433732313a207472616e736665722066726f6d20696e636f72726563742060448201526437bbb732b960d91b6064820152608401611639565b6001600160a01b038216613c315760405162461bcd60e51b8152602060048201526024808201527f4552433732313a207472616e7366657220746f20746865207a65726f206164646044820152637265737360e01b6064820152608401611639565b613c3c838383614441565b613c47600082613a6c565b6001600160a01b0383166000908152600360205260408120805460019290613c70908490615e20565b90915550506001600160a01b0382166000908152600360205260408120805460019290613c9e908490615bc3565b909155505060008181526002602052604080822080546001600160a01b0319166001600160a01b0386811691821790925591518493918716917fddf252ad1be2c89b69c2b068fc378daa952ba7f163c4a11628f55a4df523b3ef91a461164d83838361481c565b6000613d118383613d8a565b60105460405163e8a1268d60e01b8152600481018490526001600160a01b039091169063e8a1268d90602401602060405180830381865afa158015613d5a573d6000803e3d6000fd5b505050506040513d601f19601f82011682018060405250810190613d7e9190615e33565b90506110c28282613e82565b81613d948161221c565b6001600160a01b0316336001600160a01b031614613dc557604051631431735b60e21b815260040160405180910390fd5b6000838152601a60205260408082205460105491516331a9108f60e11b8152600481018690526001600160a01b0391821693929190911690636352211e90602401602060405180830381865afa158015613e23573d6000803e3d6000fd5b505050506040513d601f19601f82011682018060405250810190613e479190615a48565b9050816001600160a01b0316816001600160a01b031614613e7b5760405163e6ca793160e01b815260040160405180910390fd5b5050505050565b60105460405163e8a1268d60e01b8152600481018490526000916001600160a01b03169063e8a1268d90602401602060405180830381865afa158015613ecc573d6000803e3d6000fd5b505050506040513d601f19601f82011682018060405250810190613ef09190615e33565b9050816007811115613f0457613f0461597c565b604051602001613f1691815260200190565b60405160208183030381529060405280519060200120816007811115613f3e57613f3e61597c565b604051602001613f5091815260200190565b604051602081830303815290604052805190602001201461164d57604051633e54c6fb60e11b815260040160405180910390fd5b816001600160a01b0316836001600160a01b031603613fe55760405162461bcd60e51b815260206004820152601960248201527f4552433732313a20617070726f766520746f2063616c6c6572000000000000006044820152606401611639565b6001600160a01b03838116600081815260056020908152604080832094871680845294825291829020805460ff191686151590811790915591519182527f17307eab39ab6107e8899845ad3d59bd9653f200f220920489ca2b5937696c319101612c42565b638b78c6d81980546001600160a01b039092169182907f8be0079c531659141344cd1fd0a4f28419497f9722a3daafe3b4186f6b6457e0600080a355565b60005b8281101561213e5760006016600081546140a490615e50565b918290555090506140b58582614826565b604051638a54c52f60e01b81527355266d75d1a14e4572138116af39863ed6596e7f600482015260006024820181905262014a34604483015230606483015260848201839052906f6551c19487814612e58fe0681377575890638a54c52f9060a4016020604051808303816000875af1158015614136573d6000803e3d6000fd5b505050506040513d601f19601f8201168201806040525081019061415a9190615a48565b6000838152601a6020908152604080832080546001600160a01b0319166001600160a01b038616908117909155808452601b90925291829020859055905163189acdbd60e31b81527341c8f39463a868d3a88af00cd0fe7102f30e44ec60048201529192509063c4d66de890602401600060405180830381600087803b1580156141e357600080fd5b505af11580156141f7573d6000803e3d6000fd5b50506012546040516358a2727360e01b81526001600160a01b03858116600483015260ff891660248301526000945090911691506358a27273906044016000604051808303816000875af1158015614253573d6000803e3d6000fd5b505050506040513d6000823e601f3d908101601f1916820160405261427b9190810190615b28565b6000848152600c60205260408120600881018690558251929350918391906142a5576142a5615897565b60200260200101518160060181905550816001815181106142c8576142c8615897565b60200260200101518160050181905550816002815181106142eb576142eb615897565b602002602001015181600401819055508160038151811061430e5761430e615897565b6020026020010151816001018190555060058460405160200161433391815260200190565b6040516020818303038152906040528051906020012060001c6143569190615e69565b60098201805460ff191660ff929092169190911790556040805180820190915260068152650c110d914e5160d21b6020820152600a8201906143989082615c35565b505050505080600101905061408b565b6143b3848484613b58565b6143bf8484848461497c565b61213e5760405162461bcd60e51b815260040161163990615e8b565b6000826143e88584614a7d565b14949350505050565b60006001600160e01b031982166380ac58cd60e01b148061442257506001600160e01b03198216635b5e139f60e01b145b806110c257506301ffc9a760e01b6001600160e01b03198316146110c2565b6001600160a01b03831661445a5761164d838383614ab8565b6001600160a01b0382166000908152601b60205260409020541561449157604051639a42da2960e01b815260040160405180910390fd5b6000818152601a602052604080822054601054915162438b6360e81b81526001600160a01b03918216600482018190529392919091169063438b630090602401600060405180830381865afa1580156144ee573d6000803e3d6000fd5b505050506040513d6000823e601f3d908101601f191682016040526145169190810190615b28565b9050600061452385611c0f565b9050600081516001600160401b0381111561454057614540615017565b604051908082528060200260200182016040528015614569578160200160208202803683370190505b50905060005b82518110156145ea57601a600084838151811061458e5761458e615897565b6020026020010151815260200190815260200160002060009054906101000a90046001600160a01b03168282815181106145ca576145ca615897565b6001600160a01b039092166020928302919091019091015260010161456f565b5060115460405163644ec52760e01b8152600481018790526001600160a01b039091169063644ec52790602401600060405180830381600087803b15801561463157600080fd5b505af1158015614645573d6000803e3d6000fd5b5050601154604051631e92beb560e31b8152600481018990526001600160a01b038a81166024830152909116925063f495f5a89150604401600060405180830381600087803b15801561469757600080fd5b505af11580156146ab573d6000803e3d6000fd5b5050505060005b83518110156148075760008482815181106146cf576146cf615897565b6020908102919091010151601154604051632e1d274f60e01b8152600481018390529192506001600160a01b031690632e1d274f90602401600060405180830381600087803b15801561472157600080fd5b505af1158015614735573d6000803e3d6000fd5b5050601154604051632333520b60e11b81526001600160a01b039091169250634666a416915061476b9084908790600401615edd565b600060405180830381600087803b15801561478557600080fd5b505af1158015614799573d6000803e3d6000fd5b505060105460405163487b1c2160e11b8152600481018590526001600160a01b0390911692506390f638429150602401600060405180830381600087803b1580156147e357600080fd5b505af11580156147f7573d6000803e3d6000fd5b50505050508060010190506146b2565b50614813878787614ab8565b50505050505050565b61164d8184614b70565b6001600160a01b03821661487c5760405162461bcd60e51b815260206004820181905260248201527f4552433732313a206d696e7420746f20746865207a65726f20616464726573736044820152606401611639565b6000818152600260205260409020546001600160a01b0316156148e15760405162461bcd60e51b815260206004820152601c60248201527f4552433732313a20746f6b656e20616c7265616479206d696e746564000000006044820152606401611639565b6148ed60008383614441565b6001600160a01b0382166000908152600360205260408120805460019290614916908490615bc3565b909155505060008181526002602052604080822080546001600160a01b0319166001600160a01b03861690811790915590518392907fddf252ad1be2c89b69c2b068fc378daa952ba7f163c4a11628f55a4df523b3ef908290a46111fd6000838361481c565b60006001600160a01b0384163b15614a7257604051630a85bd0160e11b81526001600160a01b0385169063150b7a02906149c0903390899088908890600401615ef6565b6020604051808303816000875af19250505080156149fb575060408051601f3d908101601f191682019092526149f891810190615f29565b60015b614a58573d808015614a29576040519150601f19603f3d011682016040523d82523d6000602084013e614a2e565b606091505b508051600003614a505760405162461bcd60e51b815260040161163990615e8b565b805181602001fd5b6001600160e01b031916630a85bd0160e11b14905061253b565b506001949350505050565b600081815b8451811015611c9e57614aae82868381518110614aa157614aa1615897565b6020026020010151614c59565b9150600101614a82565b6001600160a01b038316614b1357614b0e81600880546000838152600960205260408120829055600182018355919091527ff3f7a9fe364faab93b216da50a3214154f22a0a2b415b23a84c8169e8b636ee30155565b614b36565b816001600160a01b0316836001600160a01b031614614b3657614b368382614c85565b6001600160a01b038216614b4d5761164d81614d22565b826001600160a01b0316826001600160a01b03161461164d5761164d8282614dd1565b6000828152601c6020908152604080832080548251818502810185019093528083529192909190830182828015614bd057602002820191906000526020600020905b81546001600160a01b03168152600190910190602001808311614bb2575b5050506000868152601a60205260408120549394506001600160a01b03909316929150505b8251811015614c4157614c2384848381518110614c1457614c14615897565b60200260200101516000613f84565b614c3982848381518110614c1457614c14615897565b600101614bf5565b506000848152601c6020526040812061213e91614e15565b6000818310614c7557600082815260208490526040902061263f565b5060009182526020526040902090565b60006001614c928461239a565b614c9c9190615e20565b600083815260076020526040902054909150808214614cef576001600160a01b03841660009081526006602090815260408083208584528252808320548484528184208190558352600790915290208190555b5060009182526007602090815260408084208490556001600160a01b039094168352600681528383209183525290812055565b600854600090614d3490600190615e20565b60008381526009602052604081205460088054939450909284908110614d5c57614d5c615897565b906000526020600020015490508060088381548110614d7d57614d7d615897565b6000918252602080832090910192909255828152600990915260408082208490558582528120556008805480614db557614db5615f46565b6001900381819060005260206000200160009055905550505050565b6000614ddc8361239a565b6001600160a01b039093166000908152600660209081526040808320868452825280832085905593825260079052919091209190915550565b5080546000825590600052602060002090810190611bf191905b80821115614e435760008155600101614e2f565b5090565b6001600160a01b0381168114611bf157600080fd5b600060208284031215614e6e57600080fd5b813561263f81614e47565b6001600160e01b031981168114611bf157600080fd5b600060208284031215614ea157600080fd5b813561263f81614e79565b600060208284031215614ebe57600080fd5b5035919050565b60005b83811015614ee0578181015183820152602001614ec8565b50506000910152565b60008151808452614f01816020860160208601614ec5565b601f01601f19169290920160200192915050565b60208152600061263f6020830184614ee9565b60008060408385031215614f3b57600080fd5b8235614f4681614e47565b946020939093013593505050565b848152608060208201526000614f6d6080830186614ee9565b8281036040840152614f7f8186614ee9565b90508281036060840152614f938185614ee9565b979650505050505050565b600080600060608486031215614fb357600080fd5b8335614fbe81614e47565b92506020840135614fce81614e47565b929592945050506040919091013590565b60008060408385031215614ff257600080fd5b50508035926020909101359150565b803560ff8116811461501257600080fd5b919050565b634e487b7160e01b600052604160045260246000fd5b60405161018081016001600160401b038111828210171561505057615050615017565b60405290565b604051601f8201601f191681016001600160401b038111828210171561507e5761507e615017565b604052919050565b60006001600160401b0382111561509f5761509f615017565b50601f01601f191660200190565b600082601f8301126150be57600080fd5b81356150d16150cc82615086565b615056565b8181528460208386010111156150e657600080fd5b816020850160208301376000918101602001919091529392505050565b6000806000806000806000806000806101408b8d03121561512357600080fd5b8a35995060208b0135985060408b0135975060608b0135965060808b0135955060a08b0135945060c08b0135935060e08b013592506151656101008c01615001565b91506101208b01356001600160401b0381111561518157600080fd5b61518d8d828e016150ad565b9150509295989b9194979a5092959850565b6020808252825182820181905260009190848201906040850190845b818110156151d7578351835292840192918401916001016151bb565b50909695505050505050565b600080600080600080600080610100898b03121561520057600080fd5b505086359860208801359850604088013597606081013597506080810135965060a0810135955060c0810135945060e0013592509050565b8035801515811461501257600080fd5b60008060006060848603121561525d57600080fd5b83359250602084013561526f81614e47565b915061527d60408501615238565b90509250925092565b60008151808452602080850194506020840160005b838110156152c05781516001600160a01b03168752958201959082019060010161529b565b509495945050505050565b60208152600061263f6020830184615286565b803563ffffffff8116811461501257600080fd5b60006020828403121561530457600080fd5b81356001600160401b038082111561531b57600080fd5b90830190610180828603121561533057600080fd5b61533861502d565b823581526020830135602082015260408301356040820152606083013560608201526080830135608082015260a083013560a082015260c083013560c082015261538460e084016152de565b60e082015261010083810135908201526101206153a2818501615001565b9082015261014083810135838111156153ba57600080fd5b6153c6888287016150ad565b82840152505061016091506153dc828401615238565b91810191909152949350505050565b6060815260006153fe6060830186614ee9565b82810360208401526154108186614ee9565b905082810360408401526115fc8185614ee9565b6000806040838503121561543757600080fd5b823561544281614e47565b915061545060208401615238565b90509250929050565b60408152600061546c6040830185614ee9565b828103602084015261547e8185614ee9565b95945050505050565b6000806000806080858703121561549d57600080fd5b84356154a881614e47565b935060208501356154b881614e47565b92506040850135915060608501356001600160401b038111156154da57600080fd5b6154e6878288016150ad565b91505092959194509250565b60006001600160401b0382111561550b5761550b615017565b5060051b60200190565b6000806040838503121561552857600080fd5b823591506020808401356001600160401b0381111561554657600080fd5b8401601f8101861361555757600080fd5b80356155656150cc826154f2565b81815260059190911b8201830190838101908883111561558457600080fd5b928401925b828410156155a257833582529284019290840190615589565b80955050505050509250929050565b600080604083850312156155c457600080fd5b8235915061545060208401615238565b60088110611bf157600080fd5b600080604083850312156155f457600080fd5b823591506020830135615606816155d4565b809150509250929050565b6020815281516020820152602082015160408201526040820151606082015260608201516080820152608082015160a082015260a082015160c082015260c082015160e0820152600060e08301516101006156738185018363ffffffff169052565b8401516101208481019190915284015190506101406156968185018360ff169052565b8085015191505061018061016081818601526156b66101a0860184614ee9565b95015115159301929092525090919050565b600080604083850312156156db57600080fd5b8235915060208301356001600160401b038111156156f857600080fd5b615704858286016150ad565b9150509250929050565b6000806040838503121561572157600080fd5b8235915061545060208401615001565b6000806040838503121561574457600080fd5b823561574f81614e47565b9150602083013561560681614e47565b6000806000806080858703121561577557600080fd5b8435935060208501356001600160401b038082111561579357600080fd5b61579f888389016150ad565b945060408701359150808211156157b557600080fd5b6157c1888389016150ad565b935060608701359150808211156157d757600080fd5b506154e6878288016150ad565b600181811c908216806157f857607f821691505b60208210810361581857634e487b7160e01b600052602260045260246000fd5b50919050565b600082601f83011261582f57600080fd5b815161583d6150cc82615086565b81815284602083860101111561585257600080fd5b61253b826020830160208701614ec5565b60006020828403121561587557600080fd5b81516001600160401b0381111561588b57600080fd5b61253b8482850161581e565b634e487b7160e01b600052603260045260246000fd5b6080815260006158c06080830187614ee9565b6020838203818501528187518084528284019150828160051b850101838a0160005b8381101561591057601f198784030185526158fe838351614ee9565b948601949250908501906001016158e2565b50506040870198909852505050506060909101919091525092915050565b6020808252602e908201527f4552433732313a2063616c6c6572206973206e6f7420746f6b656e206f776e6560408201526d1c881b9bdc88185c1c1c9bdd995960921b606082015260800190565b634e487b7160e01b600052602160045260246000fd5b6000806000606084860312156159a757600080fd5b83516001600160401b03808211156159be57600080fd5b6159ca8783880161581e565b945060208601519150808211156159e057600080fd5b6159ec8783880161581e565b93506040860151915080821115615a0257600080fd5b50615a0f8682870161581e565b9150509250925092565b60008351615a2b818460208801614ec5565b835190830190615a3f818360208801614ec5565b01949350505050565b600060208284031215615a5a57600080fd5b815161263f81614e47565b60008154615a72816157e4565b808552602060018381168015615a8f5760018114615aa957615ad7565b60ff1985168884015283151560051b880183019550615ad7565b866000528260002060005b85811015615acf5781548a8201860152908301908401615ab4565b890184019650505b505050505092915050565b60208152600061263f6020830184615a65565b604081526009604082015268426f6479205479706560b81b606082015260806020820152600061263f6080830184615a65565b60006020808385031215615b3b57600080fd5b82516001600160401b03811115615b5157600080fd5b8301601f81018513615b6257600080fd5b8051615b706150cc826154f2565b81815260059190911b82018301908381019087831115615b8f57600080fd5b928401925b82841015614f9357835182529284019290840190615b94565b634e487b7160e01b600052601160045260246000fd5b808201808211156110c2576110c2615bad565b80820281158282048414176110c2576110c2615bad565b601f82111561164d576000816000526020600020601f850160051c81016020861015615c165750805b601f850160051c820191505b818110156136de57828155600101615c22565b81516001600160401b03811115615c4e57615c4e615017565b615c6281615c5c84546157e4565b84615bed565b602080601f831160018114615c975760008415615c7f5750858301515b600019600386901b1c1916600185901b1785556136de565b600085815260208120601f198616915b82811015615cc657888601518255948401946001909101908401615ca7565b5085821015615ce45787850151600019600388901b60f8161c191681555b5050505050600190811b01905550565b6000815160808452615d096080850182614ee9565b905060208301518482036020860152615d228282614ee9565b91505060408301518482036040860152615d3c8282614ee9565b915050606083015160608501528091505092915050565b86815260c060208201526000615d6c60c0830188614ee9565b8281036040840152615d7e8188614ee9565b90508281036060840152615d928187614ee9565b90508281036080840152615da68186614ee9565b905082810360a0840152615dba8185615cf4565b9998505050505050505050565b60008060408385031215615dda57600080fd5b82516001600160401b0380821115615df157600080fd5b615dfd8683870161581e565b93506020850151915080821115615e1357600080fd5b506157048582860161581e565b818103818111156110c2576110c2615bad565b600060208284031215615e4557600080fd5b815161263f816155d4565b600060018201615e6257615e62615bad565b5060010190565b600082615e8657634e487b7160e01b600052601260045260246000fd5b500690565b60208082526032908201527f4552433732313a207472616e7366657220746f206e6f6e20455243373231526560408201527131b2b4bb32b91034b6b83632b6b2b73a32b960711b606082015260800190565b82815260406020820152600061253b6040830184615286565b6001600160a01b03858116825284166020820152604081018390526080606082018190526000906115fc90830184614ee9565b600060208284031215615f3b57600080fd5b815161263f81614e79565b634e487b7160e01b600052603160045260246000fdfec94c1c47471ed97c1d309bab965192a3e4be3807f42d015b699bfbdcf24dd9f6a26469706673582212208802d3f3229ebf1de1143bed6f14178b0f6890571139b3469d691f46ac51310464736f6c63430008160033","linkReferences":{}},"methodIdentifiers":{"_debugPostConstructorMint()":"9c7be2f1","_nextTokenId()":"4a60f620","addNewBody(uint256,string,bytes,bytes)":"f2361e23","approve(address,uint256)":"095ea7b3","balanceOf(address)":"70a08231","bodyIndexToMetadata(uint256)":"0c83f9d7","cancelOwnershipHandover()":"54d1f13d","checkIfTraitIsEquipped(uint256,uint256)":"8aa1e4c8","chonkIdToApprovedOperators(uint256,uint256)":"55737f35","chonkMakeover(uint256,uint256,uint256,uint256,uint256,uint256,uint256,uint256,uint8,string)":"30f6c521","chonksCreatorListMerkleRoot()":"7684ef0d","completeOwnershipHandover(address)":"f04e283e","deploymentTime()":"ecda10f5","equip(uint256,uint256)":"28257532","equipAll(uint256,uint256,uint256,uint256,uint256,uint256,uint256,uint256)":"4a4333a3","firstSeasonRenderMinter()":"13ea0ae3","friendsListMerkleRoot()":"8f224757","getApproved(uint256)":"081812fc","getBackpackSVGs(uint256)":"14fe8ff4","getBodyImageSvg(uint256)":"916c546b","getBodySVGZmapsAndMetadata((uint256,uint256,uint256,uint256,uint256,uint256,uint256,uint32,uint256,uint8,string,bool))":"92012f08","getBodySvgAndMetadata((uint256,uint256,uint256,uint256,uint256,uint256,uint256,uint32,uint256,uint8,string,bool))":"a23830ae","getBodyZMap(uint256)":"306c7334","getChonk(uint256)":"d3d6873e","getChonkIdForTBAAddress(address)":"8472cbca","getChonkIdToApprovedOperators(uint256)":"67d2afe2","getChonkZMap(uint256)":"32875aa0","getFullPictureForTrait(uint256)":"66704349","getOwnerAndTBAAddressForChonkId(uint256)":"04003bd0","getTBAAddressForChonkId(uint256)":"f6a0c932","getTokenRenderZ(uint256)":"8200ea51","getTraitsForChonkId(uint256)":"9f6e4637","isApprovedForAll(address,address)":"e985e9c5","isTimelocked()":"50b03146","mainRenderer2D()":"f4bec0b6","mainRenderer3D()":"b66ef6e3","marketplace()":"abc8c7af","maxTraitsToOutput()":"e3d21555","mint(uint256,bytes32[])":"ba41b0c6","mintStartTime()":"931e2e49","name()":"06fdde03","oneYearFromDeployment()":"d59752eb","owner()":"8da5cb5b","ownerOf(uint256)":"6352211e","ownershipHandoverExpiresAt(address)":"fee81cf4","price()":"a035b1fe","renderAsDataUri(uint256)":"a1d62680","renderAsDataUri2D(uint256)":"f3f8efb9","renderAsDataUri3D(uint256)":"dceef0ec","renounceOwnership()":"715018a6","requestOwnershipHandover()":"25692962","safeTransferFrom(address,address,uint256)":"42842e0e","safeTransferFrom(address,address,uint256,bytes)":"b88d4fde","setApprovalForAll(address,bool)":"a22cb465","setApprovalForAllChonksMarketplace(uint256,address,bool)":"550ab247","setBackgroundColor(uint256,string)":"d68c4f32","setBodyIndex(uint256,uint8)":"e1405540","setChonksCreatorListMerkleRoot(bytes32)":"b99ce71f","setFirstSeasonRenderMinter(address)":"58a97640","setFriendsListMerkleRoot(bytes32)":"1ab37512","setMainRenderer2D(address)":"7e2e6c47","setMainRenderer3D(address)":"00179206","setMarketplace(address)":"73ad6c2d","setMaxTraitsToOutput(uint256)":"33d3d9bf","setMintStartTime(uint256)":"d5b3621b","setPrice(uint256)":"91b7f5ed","setSpecialCollectionMerkleRoot(bytes32)":"e29babbb","setTokenRender3D(uint256,bool)":"bef1dfb7","setTraitsContract(address)":"5eabd84a","setWithdrawAddress(address)":"3ab1a494","specialCollectionMerkleRoot()":"deab1d36","supportsInterface(bytes4)":"01ffc9a7","symbol()":"95d89b41","tbaAddressToTokenId(address)":"a4bf9a00","teamMint(address,uint256)":"add5a4fa","tokenByIndex(uint256)":"4f6ccce7","tokenIdToTBAAccountAddress(uint256)":"9c05d68d","tokenOfOwnerByIndex(address,uint256)":"2f745c59","tokenURI(uint256)":"c87b56dd","totalSupply()":"18160ddd","traitsContract()":"c093afdb","transferFrom(address,address,uint256)":"23b872dd","transferOwnership(address)":"f2fde38b","unequip(uint256,uint8)":"cdb6dd5c","unequipAll(uint256)":"3044825b","walletOfOwner(address)":"438b6300","withdraw()":"3ccfd60b","withdrawAddress()":"1581b600"},"id":41}