{"abi":[{"type":"constructor","inputs":[],"stateMutability":"nonpayable"},{"type":"function","name":"_debugPostConstructorMint","inputs":[],"outputs":[],"stateMutability":"nonpayable"},{"type":"function","name":"_nextTokenId","inputs":[],"outputs":[{"name":"","type":"uint256","internalType":"uint256"}],"stateMutability":"view"},{"type":"function","name":"addNewBody","inputs":[{"name":"_bodyIndex","type":"uint256","internalType":"uint256"},{"name":"_bodyName","type":"string","internalType":"string"},{"name":"_colorMap","type":"bytes","internalType":"bytes"},{"name":"_zMap","type":"bytes","internalType":"bytes"}],"outputs":[],"stateMutability":"nonpayable"},{"type":"function","name":"approve","inputs":[{"name":"_operator","type":"address","internalType":"address"},{"name":"_chonkId","type":"uint256","internalType":"uint256"}],"outputs":[],"stateMutability":"nonpayable"},{"type":"function","name":"balanceOf","inputs":[{"name":"owner","type":"address","internalType":"address"}],"outputs":[{"name":"","type":"uint256","internalType":"uint256"}],"stateMutability":"view"},{"type":"function","name":"bodyIndexToMetadata","inputs":[{"name":"","type":"uint256","internalType":"uint256"}],"outputs":[{"name":"bodyIndex","type":"uint256","internalType":"uint256"},{"name":"bodyName","type":"string","internalType":"string"},{"name":"colorMap","type":"bytes","internalType":"bytes"},{"name":"zMap","type":"bytes","internalType":"bytes"}],"stateMutability":"view"},{"type":"function","name":"cancelOwnershipHandover","inputs":[],"outputs":[],"stateMutability":"payable"},{"type":"function","name":"checkIfTraitIsEquipped","inputs":[{"name":"_chonkId","type":"uint256","internalType":"uint256"},{"name":"_traitId","type":"uint256","internalType":"uint256"}],"outputs":[{"name":"","type":"bool","internalType":"bool"}],"stateMutability":"view"},{"type":"function","name":"chonkEquipHelper","inputs":[],"outputs":[{"name":"","type":"address","internalType":"contract ChonkEquipHelper"}],"stateMutability":"view"},{"type":"function","name":"chonkIdToApprovedOperators","inputs":[{"name":"chonkId","type":"uint256","internalType":"uint256"},{"name":"","type":"uint256","internalType":"uint256"}],"outputs":[{"name":"operators","type":"address","internalType":"address"}],"stateMutability":"view"},{"type":"function","name":"chonkTokens","inputs":[{"name":"tokenID","type":"uint256","internalType":"uint256"}],"outputs":[{"name":"headId","type":"uint256","internalType":"uint256"},{"name":"hairId","type":"uint256","internalType":"uint256"},{"name":"faceId","type":"uint256","internalType":"uint256"},{"name":"accessoryId","type":"uint256","internalType":"uint256"},{"name":"topId","type":"uint256","internalType":"uint256"},{"name":"bottomId","type":"uint256","internalType":"uint256"},{"name":"shoesId","type":"uint256","internalType":"uint256"},{"name":"epoch","type":"uint32","internalType":"uint32"},{"name":"tokenId","type":"uint256","internalType":"uint256"},{"name":"bodyIndex","type":"uint8","internalType":"uint8"},{"name":"backgroundColor","type":"string","internalType":"string"},{"name":"render3D","type":"bool","internalType":"bool"}],"stateMutability":"view"},{"type":"function","name":"collectionsMerkle","inputs":[],"outputs":[{"name":"","type":"bytes32","internalType":"bytes32"}],"stateMutability":"view"},{"type":"function","name":"completeOwnershipHandover","inputs":[{"name":"pendingOwner","type":"address","internalType":"address"}],"outputs":[],"stateMutability":"payable"},{"type":"function","name":"creatorsMerkle","inputs":[],"outputs":[{"name":"","type":"bytes32","internalType":"bytes32"}],"stateMutability":"view"},{"type":"function","name":"deploymentTime","inputs":[],"outputs":[{"name":"","type":"uint256","internalType":"uint256"}],"stateMutability":"view"},{"type":"function","name":"equip","inputs":[{"name":"_chonkTokenId","type":"uint256","internalType":"uint256"},{"name":"_traitTokenId","type":"uint256","internalType":"uint256"}],"outputs":[],"stateMutability":"nonpayable"},{"type":"function","name":"equipAll","inputs":[{"name":"_chonkTokenId","type":"uint256","internalType":"uint256"},{"name":"_headTokenId","type":"uint256","internalType":"uint256"},{"name":"_hairTokenId","type":"uint256","internalType":"uint256"},{"name":"_faceTokenId","type":"uint256","internalType":"uint256"},{"name":"_accessoryTokenId","type":"uint256","internalType":"uint256"},{"name":"_topTokenId","type":"uint256","internalType":"uint256"},{"name":"_bottomTokenId","type":"uint256","internalType":"uint256"},{"name":"_shoesTokenId","type":"uint256","internalType":"uint256"}],"outputs":[],"stateMutability":"nonpayable"},{"type":"function","name":"firstReleaseDataMinter","inputs":[],"outputs":[{"name":"","type":"address","internalType":"contract FirstReleaseDataMinter"}],"stateMutability":"view"},{"type":"function","name":"friendsMerkle","inputs":[],"outputs":[{"name":"","type":"bytes32","internalType":"bytes32"}],"stateMutability":"view"},{"type":"function","name":"getApproved","inputs":[{"name":"tokenId","type":"uint256","internalType":"uint256"}],"outputs":[{"name":"","type":"address","internalType":"address"}],"stateMutability":"view"},{"type":"function","name":"getBackpackSVGs","inputs":[{"name":"_tokenId","type":"uint256","internalType":"uint256"}],"outputs":[{"name":"","type":"string","internalType":"string"}],"stateMutability":"view"},{"type":"function","name":"getBodyImageSvg","inputs":[{"name":"_index","type":"uint256","internalType":"uint256"}],"outputs":[{"name":"svg","type":"string","internalType":"string"}],"stateMutability":"view"},{"type":"function","name":"getBodySVGZmapsAndMetadata","inputs":[{"name":"storedChonk","type":"tuple","internalType":"struct IChonkStorage.StoredChonk","components":[{"name":"headId","type":"uint256","internalType":"uint256"},{"name":"hairId","type":"uint256","internalType":"uint256"},{"name":"faceId","type":"uint256","internalType":"uint256"},{"name":"accessoryId","type":"uint256","internalType":"uint256"},{"name":"topId","type":"uint256","internalType":"uint256"},{"name":"bottomId","type":"uint256","internalType":"uint256"},{"name":"shoesId","type":"uint256","internalType":"uint256"},{"name":"epoch","type":"uint32","internalType":"uint32"},{"name":"tokenId","type":"uint256","internalType":"uint256"},{"name":"bodyIndex","type":"uint8","internalType":"uint8"},{"name":"backgroundColor","type":"string","internalType":"string"},{"name":"render3D","type":"bool","internalType":"bool"}]}],"outputs":[{"name":"","type":"string","internalType":"string"},{"name":"","type":"bytes","internalType":"bytes"},{"name":"","type":"string","internalType":"string"}],"stateMutability":"view"},{"type":"function","name":"getBodySvgAndMetadata","inputs":[{"name":"storedChonk","type":"tuple","internalType":"struct IChonkStorage.StoredChonk","components":[{"name":"headId","type":"uint256","internalType":"uint256"},{"name":"hairId","type":"uint256","internalType":"uint256"},{"name":"faceId","type":"uint256","internalType":"uint256"},{"name":"accessoryId","type":"uint256","internalType":"uint256"},{"name":"topId","type":"uint256","internalType":"uint256"},{"name":"bottomId","type":"uint256","internalType":"uint256"},{"name":"shoesId","type":"uint256","internalType":"uint256"},{"name":"epoch","type":"uint32","internalType":"uint32"},{"name":"tokenId","type":"uint256","internalType":"uint256"},{"name":"bodyIndex","type":"uint8","internalType":"uint8"},{"name":"backgroundColor","type":"string","internalType":"string"},{"name":"render3D","type":"bool","internalType":"bool"}]}],"outputs":[{"name":"","type":"string","internalType":"string"},{"name":"","type":"string","internalType":"string"}],"stateMutability":"view"},{"type":"function","name":"getBodyZMap","inputs":[{"name":"_tokenId","type":"uint256","internalType":"uint256"}],"outputs":[{"name":"","type":"string","internalType":"string"}],"stateMutability":"view"},{"type":"function","name":"getChonk","inputs":[{"name":"_tokenId","type":"uint256","internalType":"uint256"}],"outputs":[{"name":"","type":"tuple","internalType":"struct IChonkStorage.StoredChonk","components":[{"name":"headId","type":"uint256","internalType":"uint256"},{"name":"hairId","type":"uint256","internalType":"uint256"},{"name":"faceId","type":"uint256","internalType":"uint256"},{"name":"accessoryId","type":"uint256","internalType":"uint256"},{"name":"topId","type":"uint256","internalType":"uint256"},{"name":"bottomId","type":"uint256","internalType":"uint256"},{"name":"shoesId","type":"uint256","internalType":"uint256"},{"name":"epoch","type":"uint32","internalType":"uint32"},{"name":"tokenId","type":"uint256","internalType":"uint256"},{"name":"bodyIndex","type":"uint8","internalType":"uint8"},{"name":"backgroundColor","type":"string","internalType":"string"},{"name":"render3D","type":"bool","internalType":"bool"}]}],"stateMutability":"view"},{"type":"function","name":"getChonkIdForTBAAddress","inputs":[{"name":"_tbaAddress","type":"address","internalType":"address"}],"outputs":[{"name":"","type":"uint256","internalType":"uint256"}],"stateMutability":"view"},{"type":"function","name":"getChonkIdToApprovedOperators","inputs":[{"name":"_chonkId","type":"uint256","internalType":"uint256"}],"outputs":[{"name":"","type":"address[]","internalType":"address[]"}],"stateMutability":"view"},{"type":"function","name":"getChonkZMap","inputs":[{"name":"_tokenId","type":"uint256","internalType":"uint256"}],"outputs":[{"name":"","type":"string","internalType":"string"}],"stateMutability":"view"},{"type":"function","name":"getFullPictureForTrait","inputs":[{"name":"_chonkTraitTokenId","type":"uint256","internalType":"uint256"}],"outputs":[{"name":"traitOwnerTBA","type":"address","internalType":"address"},{"name":"chonkTokenId","type":"uint256","internalType":"uint256"},{"name":"chonkOwner","type":"address","internalType":"address"},{"name":"isEquipped","type":"bool","internalType":"bool"}],"stateMutability":"view"},{"type":"function","name":"getOwnerAndTBAAddressForChonkId","inputs":[{"name":"_chonkId","type":"uint256","internalType":"uint256"}],"outputs":[{"name":"owner","type":"address","internalType":"address"},{"name":"tbaAddress","type":"address","internalType":"address"}],"stateMutability":"view"},{"type":"function","name":"getTBAAddressForChonkId","inputs":[{"name":"_chonkId","type":"uint256","internalType":"uint256"}],"outputs":[{"name":"","type":"address","internalType":"address"}],"stateMutability":"view"},{"type":"function","name":"getTraitsForChonkId","inputs":[{"name":"_chonkId","type":"uint256","internalType":"uint256"}],"outputs":[{"name":"traitTokens","type":"uint256[]","internalType":"uint256[]"}],"stateMutability":"view"},{"type":"function","name":"initialMintStartTime","inputs":[],"outputs":[{"name":"","type":"uint256","internalType":"uint256"}],"stateMutability":"view"},{"type":"function","name":"isApprovedForAll","inputs":[{"name":"owner","type":"address","internalType":"address"},{"name":"operator","type":"address","internalType":"address"}],"outputs":[{"name":"","type":"bool","internalType":"bool"}],"stateMutability":"view"},{"type":"function","name":"isTimelocked","inputs":[],"outputs":[{"name":"","type":"bool","internalType":"bool"}],"stateMutability":"view"},{"type":"function","name":"mainRenderer2D","inputs":[],"outputs":[{"name":"","type":"address","internalType":"contract MainRenderer2D"}],"stateMutability":"view"},{"type":"function","name":"mainRenderer3D","inputs":[],"outputs":[{"name":"","type":"address","internalType":"contract MainRenderer3D"}],"stateMutability":"view"},{"type":"function","name":"marketplace","inputs":[],"outputs":[{"name":"","type":"address","internalType":"contract ChonksMarket"}],"stateMutability":"view"},{"type":"function","name":"maxTraitsToOutput","inputs":[],"outputs":[{"name":"","type":"uint256","internalType":"uint256"}],"stateMutability":"view"},{"type":"function","name":"mint","inputs":[{"name":"_amount","type":"uint256","internalType":"uint256"},{"name":"_merkleProof","type":"bytes32[]","internalType":"bytes32[]"}],"outputs":[],"stateMutability":"payable"},{"type":"function","name":"name","inputs":[],"outputs":[{"name":"","type":"string","internalType":"string"}],"stateMutability":"view"},{"type":"function","name":"oneYearFromDeployment","inputs":[],"outputs":[{"name":"","type":"uint256","internalType":"uint256"}],"stateMutability":"view"},{"type":"function","name":"owner","inputs":[],"outputs":[{"name":"result","type":"address","internalType":"address"}],"stateMutability":"view"},{"type":"function","name":"ownerOf","inputs":[{"name":"tokenId","type":"uint256","internalType":"uint256"}],"outputs":[{"name":"","type":"address","internalType":"address"}],"stateMutability":"view"},{"type":"function","name":"ownershipHandoverExpiresAt","inputs":[{"name":"pendingOwner","type":"address","internalType":"address"}],"outputs":[{"name":"result","type":"uint256","internalType":"uint256"}],"stateMutability":"view"},{"type":"function","name":"price","inputs":[],"outputs":[{"name":"","type":"uint256","internalType":"uint256"}],"stateMutability":"view"},{"type":"function","name":"renderAsDataUri","inputs":[{"name":"_tokenId","type":"uint256","internalType":"uint256"}],"outputs":[{"name":"","type":"string","internalType":"string"}],"stateMutability":"view"},{"type":"function","name":"renderAsDataUri2D","inputs":[{"name":"_tokenId","type":"uint256","internalType":"uint256"}],"outputs":[{"name":"","type":"string","internalType":"string"}],"stateMutability":"view"},{"type":"function","name":"renderAsDataUri3D","inputs":[{"name":"_tokenId","type":"uint256","internalType":"uint256"}],"outputs":[{"name":"","type":"string","internalType":"string"}],"stateMutability":"view"},{"type":"function","name":"renounceOwnership","inputs":[],"outputs":[],"stateMutability":"payable"},{"type":"function","name":"requestOwnershipHandover","inputs":[],"outputs":[],"stateMutability":"payable"},{"type":"function","name":"safeTransferFrom","inputs":[{"name":"from","type":"address","internalType":"address"},{"name":"to","type":"address","internalType":"address"},{"name":"tokenId","type":"uint256","internalType":"uint256"}],"outputs":[],"stateMutability":"nonpayable"},{"type":"function","name":"safeTransferFrom","inputs":[{"name":"from","type":"address","internalType":"address"},{"name":"to","type":"address","internalType":"address"},{"name":"tokenId","type":"uint256","internalType":"uint256"},{"name":"data","type":"bytes","internalType":"bytes"}],"outputs":[],"stateMutability":"nonpayable"},{"type":"function","name":"setApprovalForAll","inputs":[{"name":"_operator","type":"address","internalType":"address"},{"name":"_approved","type":"bool","internalType":"bool"}],"outputs":[],"stateMutability":"nonpayable"},{"type":"function","name":"setApprovalForAllChonksMarketplace","inputs":[{"name":"_chonkId","type":"uint256","internalType":"uint256"},{"name":"_operator","type":"address","internalType":"address"},{"name":"_approved","type":"bool","internalType":"bool"}],"outputs":[],"stateMutability":"nonpayable"},{"type":"function","name":"setChonkAttributes","inputs":[{"name":"_tokenId","type":"uint256","internalType":"uint256"},{"name":"_color","type":"string","internalType":"string"},{"name":"_bodyIndex","type":"uint8","internalType":"uint8"},{"name":"_render3D","type":"bool","internalType":"bool"}],"outputs":[],"stateMutability":"nonpayable"},{"type":"function","name":"setChonkEquipHelper","inputs":[{"name":"_chonkEquipHelper","type":"address","internalType":"address"}],"outputs":[],"stateMutability":"nonpayable"},{"type":"function","name":"setCollectionsMerkle","inputs":[{"name":"_merkleRoot","type":"bytes32","internalType":"bytes32"}],"outputs":[],"stateMutability":"nonpayable"},{"type":"function","name":"setCreatorsMerkle","inputs":[{"name":"_merkleRoot","type":"bytes32","internalType":"bytes32"}],"outputs":[],"stateMutability":"nonpayable"},{"type":"function","name":"setDescriptionParts","inputs":[{"name":"_descriptionParts","type":"string[2]","internalType":"string[2]"}],"outputs":[],"stateMutability":"nonpayable"},{"type":"function","name":"setFirstReleaseDataMinter","inputs":[{"name":"_dataContract","type":"address","internalType":"address"}],"outputs":[],"stateMutability":"nonpayable"},{"type":"function","name":"setFriendsMerkleRoot","inputs":[{"name":"_merkleRoot","type":"bytes32","internalType":"bytes32"}],"outputs":[],"stateMutability":"nonpayable"},{"type":"function","name":"setMainRenderer2D","inputs":[{"name":"_mainRenderer2D","type":"address","internalType":"address"}],"outputs":[],"stateMutability":"nonpayable"},{"type":"function","name":"setMainRenderer3D","inputs":[{"name":"_mainRenderer3D","type":"address","internalType":"address"}],"outputs":[],"stateMutability":"nonpayable"},{"type":"function","name":"setMarketplace","inputs":[{"name":"_marketplace","type":"address","internalType":"address"}],"outputs":[],"stateMutability":"nonpayable"},{"type":"function","name":"setMaxTraitsToOutput","inputs":[{"name":"_maxTraitsToOutput","type":"uint256","internalType":"uint256"}],"outputs":[],"stateMutability":"nonpayable"},{"type":"function","name":"setMintStartTime","inputs":[{"name":"_initialMintStartTime","type":"uint256","internalType":"uint256"}],"outputs":[],"stateMutability":"nonpayable"},{"type":"function","name":"setPrice","inputs":[{"name":"_priceInWei","type":"uint256","internalType":"uint256"}],"outputs":[],"stateMutability":"nonpayable"},{"type":"function","name":"setTraitsContract","inputs":[{"name":"_address","type":"address","internalType":"contract ChonkTraits"}],"outputs":[],"stateMutability":"nonpayable"},{"type":"function","name":"setWithdrawAddress","inputs":[{"name":"_withdrawAddress","type":"address","internalType":"address"}],"outputs":[],"stateMutability":"nonpayable"},{"type":"function","name":"supportsInterface","inputs":[{"name":"interfaceId","type":"bytes4","internalType":"bytes4"}],"outputs":[{"name":"","type":"bool","internalType":"bool"}],"stateMutability":"view"},{"type":"function","name":"symbol","inputs":[],"outputs":[{"name":"","type":"string","internalType":"string"}],"stateMutability":"view"},{"type":"function","name":"tbaAddressToTokenId","inputs":[{"name":"","type":"address","internalType":"address"}],"outputs":[{"name":"","type":"uint256","internalType":"uint256"}],"stateMutability":"view"},{"type":"function","name":"teamMint","inputs":[{"name":"_to","type":"address","internalType":"address"},{"name":"_amount","type":"uint256","internalType":"uint256"},{"name":"_traitCount","type":"uint8","internalType":"uint8"}],"outputs":[],"stateMutability":"nonpayable"},{"type":"function","name":"teamReserve","inputs":[],"outputs":[],"stateMutability":"nonpayable"},{"type":"function","name":"tokenByIndex","inputs":[{"name":"index","type":"uint256","internalType":"uint256"}],"outputs":[{"name":"","type":"uint256","internalType":"uint256"}],"stateMutability":"view"},{"type":"function","name":"tokenIdToTBAAccountAddress","inputs":[{"name":"","type":"uint256","internalType":"uint256"}],"outputs":[{"name":"","type":"address","internalType":"address"}],"stateMutability":"view"},{"type":"function","name":"tokenOfOwnerByIndex","inputs":[{"name":"owner","type":"address","internalType":"address"},{"name":"index","type":"uint256","internalType":"uint256"}],"outputs":[{"name":"","type":"uint256","internalType":"uint256"}],"stateMutability":"view"},{"type":"function","name":"tokenURI","inputs":[{"name":"_tokenId","type":"uint256","internalType":"uint256"}],"outputs":[{"name":"","type":"string","internalType":"string"}],"stateMutability":"view"},{"type":"function","name":"totalSupply","inputs":[],"outputs":[{"name":"","type":"uint256","internalType":"uint256"}],"stateMutability":"view"},{"type":"function","name":"traitsContract","inputs":[],"outputs":[{"name":"","type":"address","internalType":"contract ChonkTraits"}],"stateMutability":"view"},{"type":"function","name":"transferFrom","inputs":[{"name":"from","type":"address","internalType":"address"},{"name":"to","type":"address","internalType":"address"},{"name":"tokenId","type":"uint256","internalType":"uint256"}],"outputs":[],"stateMutability":"nonpayable"},{"type":"function","name":"transferOwnership","inputs":[{"name":"newOwner","type":"address","internalType":"address"}],"outputs":[],"stateMutability":"payable"},{"type":"function","name":"unequip","inputs":[{"name":"_chonkTokenId","type":"uint256","internalType":"uint256"},{"name":"traitType","type":"uint8","internalType":"enum TraitCategory.Name"}],"outputs":[],"stateMutability":"nonpayable"},{"type":"function","name":"unequipAll","inputs":[{"name":"_chonkTokenId","type":"uint256","internalType":"uint256"}],"outputs":[],"stateMutability":"nonpayable"},{"type":"function","name":"walletOfOwner","inputs":[{"name":"_owner","type":"address","internalType":"address"}],"outputs":[{"name":"","type":"uint256[]","internalType":"uint256[]"}],"stateMutability":"view"},{"type":"function","name":"withdraw","inputs":[],"outputs":[],"stateMutability":"nonpayable"},{"type":"function","name":"withdrawAddress","inputs":[],"outputs":[{"name":"","type":"address","internalType":"address"}],"stateMutability":"view"},{"type":"event","name":"Approval","inputs":[{"name":"owner","type":"address","indexed":true,"internalType":"address"},{"name":"approved","type":"address","indexed":true,"internalType":"address"},{"name":"tokenId","type":"uint256","indexed":true,"internalType":"uint256"}],"anonymous":false},{"type":"event","name":"ApprovalForAll","inputs":[{"name":"owner","type":"address","indexed":true,"internalType":"address"},{"name":"operator","type":"address","indexed":true,"internalType":"address"},{"name":"approved","type":"bool","indexed":false,"internalType":"bool"}],"anonymous":false},{"type":"event","name":"BatchMetadataUpdate","inputs":[{"name":"_fromTokenId","type":"uint256","indexed":false,"internalType":"uint256"},{"name":"_toTokenId","type":"uint256","indexed":false,"internalType":"uint256"}],"anonymous":false},{"type":"event","name":"Equip","inputs":[{"name":"owner","type":"address","indexed":true,"internalType":"address"},{"name":"tokenId","type":"uint256","indexed":true,"internalType":"uint256"},{"name":"traitTokenId","type":"uint256","indexed":true,"internalType":"uint256"},{"name":"traitCategory","type":"uint8","indexed":false,"internalType":"uint8"}],"anonymous":false},{"type":"event","name":"EquipAll","inputs":[{"name":"owner","type":"address","indexed":true,"internalType":"address"},{"name":"tokenId","type":"uint256","indexed":true,"internalType":"uint256"}],"anonymous":false},{"type":"event","name":"MetadataUpdate","inputs":[{"name":"_tokenId","type":"uint256","indexed":false,"internalType":"uint256"}],"anonymous":false},{"type":"event","name":"Mint","inputs":[{"name":"owner","type":"address","indexed":true,"internalType":"address"},{"name":"tokenId","type":"uint256","indexed":true,"internalType":"uint256"}],"anonymous":false},{"type":"event","name":"OwnershipHandoverCanceled","inputs":[{"name":"pendingOwner","type":"address","indexed":true,"internalType":"address"}],"anonymous":false},{"type":"event","name":"OwnershipHandoverRequested","inputs":[{"name":"pendingOwner","type":"address","indexed":true,"internalType":"address"}],"anonymous":false},{"type":"event","name":"OwnershipTransferred","inputs":[{"name":"oldOwner","type":"address","indexed":true,"internalType":"address"},{"name":"newOwner","type":"address","indexed":true,"internalType":"address"}],"anonymous":false},{"type":"event","name":"Transfer","inputs":[{"name":"from","type":"address","indexed":true,"internalType":"address"},{"name":"to","type":"address","indexed":true,"internalType":"address"},{"name":"tokenId","type":"uint256","indexed":true,"internalType":"uint256"}],"anonymous":false},{"type":"event","name":"Unequip","inputs":[{"name":"owner","type":"address","indexed":true,"internalType":"address"},{"name":"tokenId","type":"uint256","indexed":true,"internalType":"uint256"},{"name":"traitCategory","type":"uint8","indexed":false,"internalType":"uint8"}],"anonymous":false},{"type":"event","name":"UnequipAll","inputs":[{"name":"owner","type":"address","indexed":true,"internalType":"address"},{"name":"tokenId","type":"uint256","indexed":true,"internalType":"uint256"}],"anonymous":false},{"type":"error","name":"AlreadyInitialized","inputs":[]},{"type":"error","name":"CanOnlyReserveFirstTwo","inputs":[]},{"type":"error","name":"CantTransferDuringMint","inputs":[]},{"type":"error","name":"CantTransferToTBAs","inputs":[]},{"type":"error","name":"ChonkDoesntExist","inputs":[]},{"type":"error","name":"FirstReleaseDataMinterNotSet","inputs":[]},{"type":"error","name":"IncorrectChonkOwner","inputs":[]},{"type":"error","name":"IncorrectTBAOwner","inputs":[]},{"type":"error","name":"IncorrectTraitType","inputs":[]},{"type":"error","name":"InsufficientFunds","inputs":[]},{"type":"error","name":"InvalidBodyIndex","inputs":[]},{"type":"error","name":"InvalidColor","inputs":[]},{"type":"error","name":"InvalidMintAmount","inputs":[]},{"type":"error","name":"InvalidTraitCount","inputs":[]},{"type":"error","name":"MintEnded","inputs":[]},{"type":"error","name":"MintNotStarted","inputs":[]},{"type":"error","name":"MintStartTimeAlreadySet","inputs":[]},{"type":"error","name":"NewOwnerIsZeroAddress","inputs":[]},{"type":"error","name":"NoHandoverRequest","inputs":[]},{"type":"error","name":"Timelocked","inputs":[]},{"type":"error","name":"Unauthorized","inputs":[]},{"type":"error","name":"UseUnequip","inputs":[]},{"type":"error","name":"WithdrawFailed","inputs":[]}],"bytecode":{"object":"0x60a060405260636012553480156200001657600080fd5b506040518060400160405280600681526020016543686f6e6b7360d01b8152506040518060400160405280600681526020016543484f4e4b5360d01b815250816000908162000066919062000175565b50600162000075828262000175565b50506001600a5550620000883362000092565b4260805262000241565b6001600160a01b0316638b78c6d8198190558060007f8be0079c531659141344cd1fd0a4f28419497f9722a3daafe3b4186f6b6457e08180a350565b634e487b7160e01b600052604160045260246000fd5b600181811c90821680620000f957607f821691505b6020821081036200011a57634e487b7160e01b600052602260045260246000fd5b50919050565b601f82111562000170576000816000526020600020601f850160051c810160208610156200014b5750805b601f850160051c820191505b818110156200016c5782815560010162000157565b5050505b505050565b81516001600160401b03811115620001915762000191620000ce565b620001a981620001a28454620000e4565b8462000120565b602080601f831160018114620001e15760008415620001c85750858301515b600019600386901b1c1916600185901b1785556200016c565b600085815260208120601f198616915b828110156200021257888601518255948401946001909101908401620001f1565b5085821015620002315787850151600019600388901b60f8161c191681555b5050505050600190811b01905550565b608051615dbd6200026460003960008181610f4501526130ff0152615dbd6000f3fe6080604052600436106104d55760003560e01c80638472cbca11610281578063b84b160d1161015a578063e3d21555116100cc578063f3f8efb911610085578063f3f8efb914610fad578063f4bec0b614610fcd578063f6a0c93214610fed578063fc863e6414611023578063fd8b66de14611039578063fee81cf41461105957600080fd5b8063e3d2155514610ed4578063e985e9c514610eea578063ecda10f514610f33578063f04e283e14610f67578063f2361e2314610f7a578063f2fde38b14610f9a57600080fd5b8063c87b56dd1161011e578063c87b56dd14610e12578063cdb6dd5c14610e32578063d3d6873e14610e52578063d59752eb14610e7f578063d5b3621b14610e94578063dceef0ec14610eb457600080fd5b8063b84b160d14610d89578063b88d4fde14610da9578063b91fdc8c14610dc9578063ba41b0c614610ddf578063c093afdb14610df257600080fd5b80639f6e4637116101f3578063a23830ae116101b7578063a23830ae14610c96578063a4bf9a0014610cc4578063abc8c7af14610cf1578063b194b6f114610d11578063b45d031614610d31578063b66ef6e314610d6957600080fd5b80639f6e463714610c0a578063a035b1fe14610c2a578063a153178014610c40578063a1d6268014610c56578063a22cb46514610c7657600080fd5b806391b7f5ed1161024557806391b7f5ed14610b3b57806392012f0814610b5b57806395d89b4114610b8a5780639c05d68d14610b9f5780639c7be2f114610bd55780639eb2660c14610bea57600080fd5b80638472cbca14610a8c5780638aa1e4c814610ac25780638d2a2f1114610ae25780638da5cb5b14610b02578063916c546b14610b1b57600080fd5b80633ccfd60b116103b35780635eabd84a1161032557806370a08231116102e957806370a08231146109ee578063715018a614610a0e57806373ad6c2d14610a1657806375676db814610a365780637e2e6c4714610a5657806380d833f114610a7657600080fd5b80635eabd84a1461090c5780636352211e1461092c578063667043491461094c57806367d2afe2146109a15780636e51665f146109ce57600080fd5b80634a60f620116103775780634a60f620146108795780634f6ccce71461088f57806350b03146146108af57806354d1f13d146108c4578063550ab247146108cc57806355737f35146108ec57600080fd5b80633ccfd60b146107e257806342842e0e146107f75780634287f14a14610817578063438b63001461082c5780634a4333a31461085957600080fd5b806323b872dd1161044c5780633044825b116104105780633044825b14610722578063306c73341461074257806332875aa01461076257806333d3d9bf14610782578063343b4887146107a25780633ab1a494146107c257600080fd5b806323b872dd1461069a57806325692962146106ba57806326f2052a146106c257806328257532146106e25780632f745c591461070257600080fd5b8063095ea7b31161049e578063095ea7b3146105cb5780630a99a350146105eb5780630c83f9d71461060b57806314fe8ff41461063b5780631581b6001461065b57806318160ddd1461067b57600080fd5b8062179206146104da57806301ffc9a7146104fc57806304003bd01461053157806306fdde0314610571578063081812fc14610593575b600080fd5b3480156104e657600080fd5b506104fa6104f5366004614bbf565b61108c565b005b34801561050857600080fd5b5061051c610517366004614bf2565b6110dc565b60405190151581526020015b60405180910390f35b34801561053d57600080fd5b5061055161054c366004614c0f565b6110ed565b604080516001600160a01b03938416815292909116602083015201610528565b34801561057d57600080fd5b5061058661111c565b6040516105289190614c78565b34801561059f57600080fd5b506105b36105ae366004614c0f565b6111ae565b6040516001600160a01b039091168152602001610528565b3480156105d757600080fd5b506104fa6105e6366004614c8b565b6111d5565b3480156105f757600080fd5b506104fa610606366004614bbf565b611226565b34801561061757600080fd5b5061062b610626366004614c0f565b611276565b6040516105289493929190614cb7565b34801561064757600080fd5b50610586610656366004614c0f565b611437565b34801561066757600080fd5b506014546105b3906001600160a01b031681565b34801561068757600080fd5b506008545b604051908152602001610528565b3480156106a657600080fd5b506104fa6106b5366004614d01565b6114f0565b6104fa61152f565b3480156106ce57600080fd5b506104fa6106dd366004614e50565b61157e565b3480156106ee57600080fd5b506104fa6106fd366004614eea565b611593565b34801561070e57600080fd5b5061068c61071d366004614c8b565b6116c1565b34801561072e57600080fd5b506104fa61073d366004614c0f565b611757565b34801561074e57600080fd5b5061058661075d366004614c0f565b611812565b34801561076e57600080fd5b5061058661077d366004614c0f565b61182a565b34801561078e57600080fd5b506104fa61079d366004614c0f565b6118e1565b3480156107ae57600080fd5b506104fa6107bd366004614f32565b6118ee565b3480156107ce57600080fd5b506104fa6107dd366004614bbf565b611b17565b3480156107ee57600080fd5b506104fa611b41565b34801561080357600080fd5b506104fa610812366004614d01565b611bc0565b34801561082357600080fd5b506104fa611bdb565b34801561083857600080fd5b5061084c610847366004614bbf565b611c1c565b6040516105289190614f99565b34801561086557600080fd5b506104fa610874366004614fdd565b611cb3565b34801561088557600080fd5b5061068c60135481565b34801561089b57600080fd5b5061068c6108aa366004614c0f565b612213565b3480156108bb57600080fd5b5061051c6122a6565b6104fa6122b7565b3480156108d857600080fd5b506104fa6108e7366004615032565b6122f3565b3480156108f857600080fd5b506105b3610907366004614eea565b612349565b34801561091857600080fd5b506104fa610927366004614bbf565b612381565b34801561093857600080fd5b506105b3610947366004614c0f565b6123d1565b34801561095857600080fd5b5061096c610967366004614c0f565b612431565b60405161052894939291906001600160a01b039485168152602081019390935292166040820152901515606082015260800190565b3480156109ad57600080fd5b506109c16109bc366004614c0f565b6124e3565b60405161052891906150b5565b3480156109da57600080fd5b506104fa6109e93660046150c8565b61254f565b3480156109fa57600080fd5b5061068c610a09366004614bbf565b6125f3565b6104fa612679565b348015610a2257600080fd5b506104fa610a31366004614bbf565b61268b565b348015610a4257600080fd5b50600e546105b3906001600160a01b031681565b348015610a6257600080fd5b506104fa610a71366004614bbf565b6126db565b348015610a8257600080fd5b5061068c601d5481565b348015610a9857600080fd5b5061068c610aa7366004614bbf565b6001600160a01b03166000908152601b602052604090205490565b348015610ace57600080fd5b5061051c610add366004614eea565b61272b565b348015610aee57600080fd5b506104fa610afd366004614c0f565b61279a565b348015610b0e57600080fd5b50638b78c6d819546105b3565b348015610b2757600080fd5b50610586610b36366004614c0f565b6127a7565b348015610b4757600080fd5b506104fa610b56366004614c0f565b6127e9565b348015610b6757600080fd5b50610b7b610b76366004615111565b6127f6565b6040516105289392919061520a565b348015610b9657600080fd5b50610586612947565b348015610bab57600080fd5b506105b3610bba366004614c0f565b601a602052600090815260409020546001600160a01b031681565b348015610be157600080fd5b506104fa612956565b348015610bf657600080fd5b506104fa610c05366004614c0f565b612978565b348015610c1657600080fd5b5061084c610c25366004614c0f565b612985565b348015610c3657600080fd5b5061068c60155481565b348015610c4c57600080fd5b5061068c601f5481565b348015610c6257600080fd5b50610586610c71366004614c0f565b612a1b565b348015610c8257600080fd5b506104fa610c9136600461524d565b612a46565b348015610ca257600080fd5b50610cb6610cb1366004615111565b612abf565b604051610528929190615282565b348015610cd057600080fd5b5061068c610cdf366004614bbf565b601b6020526000908152604090205481565b348015610cfd57600080fd5b50600d546105b3906001600160a01b031681565b348015610d1d57600080fd5b506104fa610d2c366004614c0f565b612b6d565b348015610d3d57600080fd5b50610d51610d4c366004614c0f565b612b7a565b6040516105289c9b9a999897969594939291906152b0565b348015610d7557600080fd5b506011546105b3906001600160a01b031681565b348015610d9557600080fd5b506104fa610da4366004614bbf565b612c71565b348015610db557600080fd5b506104fa610dc4366004615329565b612cc1565b348015610dd557600080fd5b5061068c60165481565b6104fa610ded3660046153b7565b612cf3565b348015610dfe57600080fd5b50600c546105b3906001600160a01b031681565b348015610e1e57600080fd5b50610586610e2d366004614c0f565b612e66565b348015610e3e57600080fd5b506104fa610e4d366004615460565b612ea7565b348015610e5e57600080fd5b50610e72610e6d366004614c0f565b612f4f565b6040516105289190615490565b348015610e8b57600080fd5b5061068c6130f8565b348015610ea057600080fd5b506104fa610eaf366004614c0f565b61312d565b348015610ec057600080fd5b50610586610ecf366004614c0f565b61315b565b348015610ee057600080fd5b5061068c60125481565b348015610ef657600080fd5b5061051c610f05366004615547565b6001600160a01b03918216600090815260056020908152604080832093909416825291909152205460ff1690565b348015610f3f57600080fd5b5061068c7f000000000000000000000000000000000000000000000000000000000000000081565b6104fa610f75366004614bbf565b613436565b348015610f8657600080fd5b506104fa610f95366004615575565b613473565b6104fa610fa8366004614bbf565b6134e6565b348015610fb957600080fd5b50610586610fc8366004614c0f565b61350d565b348015610fd957600080fd5b506010546105b3906001600160a01b031681565b348015610ff957600080fd5b506105b3611008366004614c0f565b6000908152601a60205260409020546001600160a01b031690565b34801561102f57600080fd5b5061068c601e5481565b34801561104557600080fd5b50600f546105b3906001600160a01b031681565b34801561106557600080fd5b5061068c611074366004614bbf565b63389a75e1600c908152600091909152602090205490565b6110946137c3565b61109c6122a6565b156110ba5760405163774ae17d60e01b815260040160405180910390fd5b601180546001600160a01b0319166001600160a01b0392909216919091179055565b60006110e7826137de565b92915050565b6000806110f9836123d1565b6000938452601a60205260409093205492936001600160a01b0390931692915050565b60606000805461112b906155fa565b80601f0160208091040260200160405190810160405280929190818152602001828054611157906155fa565b80156111a45780601f10611179576101008083540402835291602001916111a4565b820191906000526020600020905b81548152906001019060200180831161118757829003601f168201915b5050505050905090565b60006111b982613803565b506000908152600460205260409020546001600160a01b031690565b6111de816123d1565b6001600160a01b0316336001600160a01b03161461120e576040516282b42960e81b815260040160405180910390fd5b6112188183613862565b61122282826138a1565b5050565b61122e6137c3565b6112366122a6565b156112545760405163774ae17d60e01b815260040160405180910390fd5b600e80546001600160a01b0319166001600160a01b0392909216919091179055565b600b6020526000908152604090208054600182018054919291611298906155fa565b80601f01602080910402602001604051908101604052809291908181526020018280546112c4906155fa565b80156113115780601f106112e657610100808354040283529160200191611311565b820191906000526020600020905b8154815290600101906020018083116112f457829003601f168201915b505050505090806002018054611326906155fa565b80601f0160208091040260200160405190810160405280929190818152602001828054611352906155fa565b801561139f5780601f106113745761010080835404028352916020019161139f565b820191906000526020600020905b81548152906001019060200180831161138257829003601f168201915b5050505050908060030180546113b4906155fa565b80601f01602080910402602001604051908101604052809291908181526020018280546113e0906155fa565b801561142d5780601f106114025761010080835404028352916020019161142d565b820191906000526020600020905b81548152906001019060200180831161141057829003601f168201915b5050505050905084565b601054600c546060916001600160a01b03908116916327707b149116611472856000908152601a60205260409020546001600160a01b031690565b6012546040516001600160e01b031960e086901b1681526001600160a01b03938416600482015292909116602483015260448201526064015b600060405180830381865afa1580156114c8573d6000803e3d6000fd5b505050506040513d6000823e601f3d908101601f191682016040526110e79190810190615684565b6114fa338261390f565b61151f5760405162461bcd60e51b8152600401611516906156b8565b60405180910390fd5b61152a83838361398d565b505050565b60006202a3006001600160401b03164201905063389a75e1600c5233600052806020600c2055337fdbf36a107da19e49527a7176a1babf963b4b0ff8cde35ee35d6cd8f1f9ac7e1d600080a250565b6115866137c3565b6112226017826002614a83565b8161159d816123d1565b6001600160a01b0316336001600160a01b0316146115ce57604051631431735b60e21b815260040160405180910390fd5b816000036115ef57604051630754c7f360e41b815260040160405180910390fd5b600e546040516341e2a37360e01b815260048101859052602481018490526000916001600160a01b0316906341e2a37390604401602060405180830381865afa158015611640573d6000803e3d6000fd5b505050506040513d601f19601f820116820180604052508101906116649190615706565b9050611671848285613b3a565b828461167c866123d1565b6001600160a01b0316600080516020615d688339815191528460078111156116a6576116a6615723565b60405160ff909116815260200160405180910390a450505050565b60006116cc836125f3565b821061172e5760405162461bcd60e51b815260206004820152602b60248201527f455243373231456e756d657261626c653a206f776e657220696e646578206f7560448201526a74206f6620626f756e647360a81b6064820152608401611516565b506001600160a01b03919091166000908152600660209081526040808320938352929052205490565b80611761816123d1565b6001600160a01b0316336001600160a01b03161461179257604051631431735b60e21b815260040160405180910390fd5b600082815260196020526040812081815560018101829055600281018290556003810182905560048101829055600581018290556006810191909155826117d8816123d1565b6001600160a01b03167f46078a2cd4c69c3b4a27bdc69fdfe03d442ebcf405f1a68e9b5df6bc3e24429760405160405180910390a3505050565b606080611821610b7684612f4f565b50949350505050565b600c5460609081906001600160a01b031663bb12d21d61184985612f4f565b6040518263ffffffff1660e01b81526004016118659190615490565b600060405180830381865afa158015611882573d6000803e3d6000fd5b505050506040513d6000823e601f3d908101601f191682016040526118aa9190810190615739565b5091506118b8905083611812565b816040516020016118ca9291906157d7565b604051602081830303815290604052915050919050565b6118e96137c3565b601255565b836118f8816123d1565b6001600160a01b0316336001600160a01b03161461192957604051631431735b60e21b815260040160405180910390fd5b8351849060061461194d57604051631cf7e9c560e01b815260040160405180910390fd5b60048460ff161115611972576040516329ba348d60e11b815260040160405180910390fd5b60005b6006811015611abf57603060f81b82828151811061199557611995615806565b01602001516001600160f81b031916108015906119d65750603960f81b8282815181106119c4576119c4615806565b01602001516001600160f81b03191611155b158015611a385750604160f81b8282815181106119f5576119f5615806565b01602001516001600160f81b03191610801590611a365750604660f81b828281518110611a2457611a24615806565b01602001516001600160f81b03191611155b155b8015611a995750606160f81b828281518110611a5657611a56615806565b01602001516001600160f81b03191610801590611a975750606660f81b828281518110611a8557611a85615806565b01602001516001600160f81b03191611155b155b15611ab757604051631cf7e9c560e01b815260040160405180910390fd5b600101611975565b506000868152601960205260409020600a01611adb8682615864565b50505060009384526019602052604090932060098101805460ff90931660ff19938416179055600b018054931515939091169290921790915550565b611b1f6137c3565b601480546001600160a01b0319166001600160a01b0392909216919091179055565b611b496137c3565b6014546040516000916001600160a01b03169047908381818185875af1925050503d8060008114611b96576040519150601f19603f3d011682016040523d82523d6000602084013e611b9b565b606091505b5050905080611bbd57604051631d42c86760e21b815260040160405180910390fd5b50565b61152a83838360405180602001604052806000815250612cc1565b611be36137c3565b6002611bee60085490565b1115611c0d5760405163155b299760e31b815260040160405180910390fd5b611c1a3360026007613c95565b565b60606000611c29836125f3565b90506000816001600160401b03811115611c4557611c45614d42565b604051908082528060200260200182016040528015611c6e578160200160208202803683370190505b50905060005b82811015611cab57611c8685826116c1565b828281518110611c9857611c98615806565b6020908102919091010152600101611c74565b509392505050565b87611cbd816123d1565b6001600160a01b0316336001600160a01b031614611cee57604051631431735b60e21b815260040160405180910390fd5b6000898152601960209081526040808320601a909252909120546001600160a01b03168915611dba57600e546040516395d004cb60e01b81526001600160a01b03909116906395d004cb90611d4c9084908e90600190600401615923565b60006040518083038186803b158015611d6457600080fd5b505afa158015611d78573d6000803e3d6000fd5b5050508a835550898b611d8a816123d1565b6001600160a01b0316600080516020615d68833981519152600160405160ff909116815260200160405180910390a45b8815611e6757600e546040516395d004cb60e01b81526001600160a01b03909116906395d004cb90611df59084908d90600290600401615923565b60006040518083038186803b158015611e0d57600080fd5b505afa158015611e21573d6000803e3d6000fd5b5050505060018201899055888b611e37816123d1565b6001600160a01b0316600080516020615d68833981519152600260405160ff909116815260200160405180910390a45b8715611f1457600e546040516395d004cb60e01b81526001600160a01b03909116906395d004cb90611ea29084908c90600390600401615923565b60006040518083038186803b158015611eba57600080fd5b505afa158015611ece573d6000803e3d6000fd5b5050505060028201889055878b611ee4816123d1565b6001600160a01b0316600080516020615d68833981519152600360405160ff909116815260200160405180910390a45b8615611fc057600e546040516395d004cb60e01b81526001600160a01b03909116906395d004cb90611f4e9084908b906004908101615923565b60006040518083038186803b158015611f6657600080fd5b505afa158015611f7a573d6000803e3d6000fd5b5050505060038201879055868b611f90816123d1565b6001600160a01b0316600080516020615d68833981519152600460405160ff909116815260200160405180910390a45b851561206d57600e546040516395d004cb60e01b81526001600160a01b03909116906395d004cb90611ffb9084908a90600590600401615923565b60006040518083038186803b15801561201357600080fd5b505afa158015612027573d6000803e3d6000fd5b5050505060048201869055858b61203d816123d1565b6001600160a01b0316600080516020615d68833981519152600560405160ff909116815260200160405180910390a45b841561211a57600e546040516395d004cb60e01b81526001600160a01b03909116906395d004cb906120a89084908990600690600401615923565b60006040518083038186803b1580156120c057600080fd5b505afa1580156120d4573d6000803e3d6000fd5b5050505060058201859055848b6120ea816123d1565b6001600160a01b0316600080516020615d68833981519152600660405160ff909116815260200160405180910390a45b83156121c757600e546040516395d004cb60e01b81526001600160a01b03909116906395d004cb906121559084908890600790600401615923565b60006040518083038186803b15801561216d57600080fd5b505afa158015612181573d6000803e3d6000fd5b5050505060068201849055838b612197816123d1565b6001600160a01b0316600080516020615d68833981519152600760405160ff909116815260200160405180910390a45b8a6121d18c6123d1565b6001600160a01b03167f56680590212b09eb4b72a2eba8801b037ec046dfc754538e924f5bb6a8c4db6c60405160405180910390a35050505050505050505050565b600061221e60085490565b82106122815760405162461bcd60e51b815260206004820152602c60248201527f455243373231456e756d657261626c653a20676c6f62616c20696e646578206f60448201526b7574206f6620626f756e647360a01b6064820152608401611516565b6008828154811061229457612294615806565b90600052602060002001549050919050565b60006122b06130f8565b4211905090565b63389a75e1600c523360005260006020600c2055337ffa7b8eab7da67f412cc9575ed43464468f9bfbae89d1675917346ca6d8fe3c92600080a2565b60006122fe846123d1565b90506001600160a01b0381163314612328576040516282b42960e81b815260040160405180910390fd5b8115612338576123388484613862565b612343818484613f17565b50505050565b601c602052816000526040600020818154811061236557600080fd5b6000918252602090912001546001600160a01b03169150829050565b6123896137c3565b6123916122a6565b156123af5760405163774ae17d60e01b815260040160405180910390fd5b600c80546001600160a01b0319166001600160a01b0392909216919091179055565b6000818152600260205260408120546001600160a01b0316806110e75760405162461bcd60e51b8152602060048201526018602482015277115490cdcc8c4e881a5b9d985b1a59081d1bdad95b88125160421b6044820152606401611516565b600c546040516331a9108f60e11b8152600481018390526000918291829182916001600160a01b0390911690636352211e90602401602060405180830381865afa158015612483573d6000803e3d6000fd5b505050506040513d601f19601f820116820180604052508101906124a79190615966565b6001600160a01b0381166000908152601b602052604090205490945092506124ce836123d1565b91506124da838661272b565b90509193509193565b6000818152601c602090815260409182902080548351818402810184019094528084526060939283018282801561254357602002820191906000526020600020905b81546001600160a01b03168152600190910190602001808311612525575b50505050509050919050565b6125576137c3565b60048160ff16108061256c575060078160ff16115b1561258a57604051632258debf60e01b815260040160405180910390fd5b601654158061259a575060165442105b156125b857604051630314872760e11b815260040160405180910390fd5b6016546125c89062016da0615999565b4211156125e85760405163124212e560e21b815260040160405180910390fd5b61152a838383613c95565b60006001600160a01b03821661265d5760405162461bcd60e51b815260206004820152602960248201527f4552433732313a2061646472657373207a65726f206973206e6f7420612076616044820152683634b21037bbb732b960b91b6064820152608401611516565b506001600160a01b031660009081526003602052604090205490565b6126816137c3565b611c1a6000613fdd565b6126936137c3565b61269b6122a6565b156126b95760405163774ae17d60e01b815260040160405180910390fd5b600d80546001600160a01b0319166001600160a01b0392909216919091179055565b6126e36137c3565b6126eb6122a6565b156127095760405163774ae17d60e01b815260040160405180910390fd5b601080546001600160a01b0319166001600160a01b0392909216919091179055565b60008061273784612f4f565b805190915083148061274c5750828160200151145b8061275a5750828160400151145b806127685750828160600151145b806127765750828160800151145b806127845750828160a00151145b806127925750828160c00151145b949350505050565b6127a26137c3565b601d55565b6010546000828152600b602052604090819020905163da11a05360e01b81526060926001600160a01b03169163da11a053916114ab9160020190600401615a29565b6127f16137c3565b601555565b606080606061280c84610120015160ff166127a7565b6101208501805160ff9081166000908152600b602052604080822060105494519093168252908190209051630d88d4ff60e01b81526003909201926001600160a01b031691630d88d4ff9161286991600190910190600401615a3c565b600060405180830381865afa158015612886573d6000803e3d6000fd5b505050506040513d6000823e601f3d908101601f191682016040526128ae9190810190615684565b8180546128ba906155fa565b80601f01602080910402602001604051908101604052809291908181526020018280546128e6906155fa565b80156129335780601f1061290857610100808354040283529160200191612933565b820191906000526020600020905b81548152906001019060200180831161291657829003601f168201915b505050505091509250925092509193909250565b60606001805461112b906155fa565b60005b600a811015611bbd57606061296f600482612cf3565b50600101612959565b6129806137c3565b601e55565b6000818152601a6020526040812054606091906001600160a01b0316600c5460405162438b6360e81b81526001600160a01b03808416600483015292935091169063438b630090602401600060405180830381865afa1580156129ec573d6000803e3d6000fd5b505050506040513d6000823e601f3d908101601f19168201604052612a149190810190615a6f565b9392505050565b6060612a2682612f4f565b6101600151612a3d57612a388261350d565b6110e7565b6110e78261315b565b8015612ab4576000612a5733611c1c565b90508051600003612a7a576040516282b42960e81b815260040160405180910390fd5b60005b8151811015612ab157612aa9828281518110612a9b57612a9b615806565b602002602001015185613862565b600101612a7d565b50505b611222338383613f17565b606080612ad383610120015160ff166127a7565b60105461012085015160ff166000908152600b6020526040908190209051630d88d4ff60e01b81526001600160a01b0390921691630d88d4ff91612b1f91600190910190600401615a3c565b600060405180830381865afa158015612b3c573d6000803e3d6000fd5b505050506040513d6000823e601f3d908101601f19168201604052612b649190810190615684565b91509150915091565b612b756137c3565b601f55565b601960205260009081526040902080546001820154600283015460038401546004850154600586015460068701546007880154600889015460098a0154600a8b0180549a9b999a9899979896979596949563ffffffff90941694929360ff90921692612be5906155fa565b80601f0160208091040260200160405190810160405280929190818152602001828054612c11906155fa565b8015612c5e5780601f10612c3357610100808354040283529160200191612c5e565b820191906000526020600020905b815481529060010190602001808311612c4157829003601f168201915b505050600b909301549192505060ff168c565b612c796137c3565b612c816122a6565b15612c9f5760405163774ae17d60e01b815260040160405180910390fd5b600f80546001600160a01b0319166001600160a01b0392909216919091179055565b612ccb338361390f565b612ce75760405162461bcd60e51b8152600401611516906156b8565b6123438484848461401b565b600f546001600160a01b0316612d1c5760405163d93186fd60e01b815260040160405180910390fd5b811580612d295750600a82115b15612d475760405163199f5a0360e31b815260040160405180910390fd5b6016541580612d57575060165442105b15612d7557604051630314872760e11b815260040160405180910390fd5b601654612d859062015180615999565b421115612da55760405163124212e560e21b815260040160405180910390fd5b81601554612db39190615af4565b3414612dd25760405163356680b760e01b815260040160405180910390fd5b6040516bffffffffffffffffffffffff193360601b166020820152600490600090603401604051602081830303815290604052805190602001209050612e1b83601d548361404e565b15612e295760059150612e5b565b612e3683601e548361404e565b15612e445760069150612e5b565b612e5183601f548361404e565b15612e5b57600791505b612343338584613c95565b6000818152600260205260409020546060906001600160a01b0316612e9e57604051636461f73160e01b815260040160405180910390fd5b6110e782612a1b565b81612eb1816123d1565b6001600160a01b0316336001600160a01b031614612ee257604051631431735b60e21b815260040160405180910390fd5b612eee83836000613b3a565b82612ef8846123d1565b6001600160a01b03167f3d8ac56c725fc7985e9444622a45baee28ba67d8a964045f747b465121f40e71846007811115612f3457612f34615723565b60405160ff90911681526020015b60405180910390a3505050565b612fbe60405180610180016040528060008152602001600081526020016000815260200160008152602001600081526020016000815260200160008152602001600063ffffffff16815260200160008152602001600060ff168152602001606081526020016000151581525090565b600082815260196020908152604091829020825161018081018452815481526001820154928101929092526002810154928201929092526003820154606082015260048201546080820152600582015460a0820152600682015460c0820152600782015463ffffffff1660e08201526008820154610100820152600982015460ff16610120820152600a820180549192916101408401919061305f906155fa565b80601f016020809104026020016040519081016040528092919081815260200182805461308b906155fa565b80156130d85780601f106130ad576101008083540402835291602001916130d8565b820191906000526020600020905b8154815290600101906020018083116130bb57829003601f168201915b5050509183525050600b919091015460ff16151560209091015292915050565b60006131287f00000000000000000000000000000000000000000000000000000000000000006301e13380615999565b905090565b6131356137c3565b601654156131565760405163703e78e960e11b815260040160405180910390fd5b601655565b606080606080606080606061316e614acc565b60006131798a612f4f565b9050613184816127f6565b50600c5460405163bb12d21d60e01b8152929a509097506001600160a01b03169063bb12d21d906131b9908490600401615490565b600060405180830381865afa1580156131d6573d6000803e3d6000fd5b505050506040513d6000823e601f3d908101601f191682016040526131fe9190810190615739565b604051929950909650935061321990879087906020016157d7565b60408051601f198184030181529190526101408201518352935061323c8a612985565b5160408084019190915261012082015160ff166000908152600b602052206001018054613268906155fa565b80601f0160208091040260200160405190810160405280929190818152602001828054613294906155fa565b80156132e15780601f106132b6576101008083540402835291602001916132e1565b820191906000526020600020905b8154815290600101906020018083116132c457829003601f168201915b5050505050602083015260408051808201909152601760026000835b828210156133a0578382018054613313906155fa565b80601f016020809104026020016040519081016040528092919081815260200182805461333f906155fa565b801561338c5780601f106133615761010080835404028352916020019161338c565b820191906000526020600020905b81548152906001019060200180831161336f57829003601f168201915b5050505050815260200190600101906132fd565b5050505060608301526011546040516323e2ba9960e11b81526001600160a01b03909116906347c57532906133e3908d908c908c9089908b908a90600401615b96565b600060405180830381865afa158015613400573d6000803e3d6000fd5b505050506040513d6000823e601f3d908101601f191682016040526134289190810190615684565b9a9950505050505050505050565b61343e6137c3565b63389a75e1600c52806000526020600c20805442111561346657636f5e88186000526004601cfd5b60009055611bbd81613fdd565b61347b6137c3565b6134836122a6565b156134a15760405163774ae17d60e01b815260040160405180910390fd5b6000848152600b60205260409020848155600181016134c08582615864565b50600281016134cf8482615864565b50600381016134de8382615864565b505050505050565b6134ee6137c3565b8060601b61350457637448fbae6000526004601cfd5b611bbd81613fdd565b606080606080606061351d614acc565b600061352888612f4f565b905061353381612abf565b50600c54604051631be5857160e31b81529197506001600160a01b03169063df2c2b8890613565908490600401615490565b600060405180830381865afa158015613582573d6000803e3d6000fd5b505050506040513d6000823e601f3d908101601f191682016040526135aa9190810190615c0a565b90955093506135b888611437565b610140820151835292506135cb88612985565b5160408084019190915261012082015160ff166000908152600b6020522060010180546135f7906155fa565b80601f0160208091040260200160405190810160405280929190818152602001828054613623906155fa565b80156136705780601f1061364557610100808354040283529160200191613670565b820191906000526020600020905b81548152906001019060200180831161365357829003601f168201915b5050505050602083015260408051808201909152601760026000835b8282101561372f5783820180546136a2906155fa565b80601f01602080910402602001604051908101604052809291908181526020018280546136ce906155fa565b801561371b5780601f106136f05761010080835404028352916020019161371b565b820191906000526020600020905b8154815290600101906020018083116136fe57829003601f168201915b50505050508152602001906001019061368c565b505050506060830152601054604051631589d6a760e21b81526001600160a01b03909116906356275a9c90613772908b908a908a908a908a908a90600401615b96565b600060405180830381865afa15801561378f573d6000803e3d6000fd5b505050506040513d6000823e601f3d908101601f191682016040526137b79190810190615684565b98975050505050505050565b638b78c6d819543314611c1a576382b429006000526004601cfd5b60006001600160e01b0319821663780e9d6360e01b14806110e757506110e782614090565b6000818152600260205260409020546001600160a01b0316611bbd5760405162461bcd60e51b8152602060048201526018602482015277115490cdcc8c4e881a5b9d985b1a59081d1bdad95b88125160421b6044820152606401611516565b6000918252601c6020908152604083208054600181018255908452922090910180546001600160a01b0319166001600160a01b03909216919091179055565b600081815260046020526040902080546001600160a01b0319166001600160a01b03841690811790915581906138d6826123d1565b6001600160a01b03167f8c5be1e5ebec7d5bd14f71427d1e84f3dd0314c0f7b2291e5b200ac8c7c3b92560405160405180910390a45050565b60008061391b836123d1565b9050806001600160a01b0316846001600160a01b0316148061396257506001600160a01b0380821660009081526005602090815260408083209388168352929052205460ff165b806127925750836001600160a01b031661397b846111ae565b6001600160a01b031614949350505050565b826001600160a01b03166139a0826123d1565b6001600160a01b031614613a045760405162461bcd60e51b815260206004820152602560248201527f4552433732313a207472616e736665722066726f6d20696e636f72726563742060448201526437bbb732b960d91b6064820152608401611516565b6001600160a01b038216613a665760405162461bcd60e51b8152602060048201526024808201527f4552433732313a207472616e7366657220746f20746865207a65726f206164646044820152637265737360e01b6064820152608401611516565b613a718383836140e0565b613a7c6000826138a1565b6001600160a01b0383166000908152600360205260408120805460019290613aa5908490615c6d565b90915550506001600160a01b0382166000908152600360205260408120805460019290613ad3908490615999565b909155505060008181526002602052604080822080546001600160a01b0319166001600160a01b0386811691821790925591518493918716917fddf252ad1be2c89b69c2b068fc378daa952ba7f163c4a11628f55a4df523b3ef91a461152a8383836144f1565b6001826007811115613b4e57613b4e615723565b03613b69576000838152601960205260409020819055505050565b6002826007811115613b7d57613b7d615723565b03613b9b576000838152601960205260409020600101819055505050565b6003826007811115613baf57613baf615723565b03613bcd576000838152601960205260409020600201819055505050565b6004826007811115613be157613be1615723565b03613bff576000838152601960205260409020600301819055505050565b6005826007811115613c1357613c13615723565b03613c31576000838152601960205260409020600401819055505050565b6006826007811115613c4557613c45615723565b03613c63576000838152601960205260409020600501819055505050565b6007826007811115613c7757613c77615723565b0361152a576000838152601960205260409020600601819055505050565b60005b82811015612343576013805460010190819055613cb585826144fb565b604051638a54c52f60e01b81527355266d75d1a14e4572138116af39863ed6596e7f600482015260006024820181905262014a34604483015230606483015260848201839052906f6551c19487814612e58fe0681377575890638a54c52f9060a4016020604051808303816000875af1158015613d36573d6000803e3d6000fd5b505050506040513d601f19601f82011682018060405250810190613d5a9190615966565b6000838152601a6020908152604080832080546001600160a01b0319166001600160a01b038616908117909155808452601b90925291829020859055905163189acdbd60e31b81527341c8f39463a868d3a88af00cd0fe7102f30e44ec60048201529192509063c4d66de890602401600060405180830381600087803b158015613de357600080fd5b505af1158015613df7573d6000803e3d6000fd5b5050600f546040516358a2727360e01b81526001600160a01b03858116600483015260ff8916602483015290911692506358a2727391506044016000604051808303816000875af1158015613e50573d6000803e3d6000fd5b505050506040513d6000823e601f3d908101601f19168201604052613e789190810190615a6f565b5060008281526019602090815260409182902060088101859055825191820185905291600591016040516020818303038152906040528051906020012060001c81613ec557613ec5615c80565b60098301805460ff19169290910660ff169190911790556040805180820190915260068152650c110d914e5160d21b6020820152600a820190613f089082615864565b50505050806001019050613c98565b816001600160a01b0316836001600160a01b031603613f785760405162461bcd60e51b815260206004820152601960248201527f4552433732313a20617070726f766520746f2063616c6c6572000000000000006044820152606401611516565b6001600160a01b03838116600081815260056020908152604080832094871680845294825291829020805460ff191686151590811790915591519182527f17307eab39ab6107e8899845ad3d59bd9653f200f220920489ca2b5937696c319101612f42565b638b78c6d81980546001600160a01b039092169182907f8be0079c531659141344cd1fd0a4f28419497f9722a3daafe3b4186f6b6457e0600080a355565b61402684848461398d565b61403284848484614651565b6123435760405162461bcd60e51b815260040161151690615c96565b60008351156140895760208401845160051b81015b8151841160051b9384528151602094851852604060002093909101908082106140635750505b5014919050565b60006001600160e01b031982166380ac58cd60e01b14806140c157506001600160e01b03198216635b5e139f60e01b145b806110e757506301ffc9a760e01b6001600160e01b03198316146110e7565b6001600160a01b0383166140f95761152a838383614752565b6016546141099062015180615999565b4210156141295760405163ae735dad60e01b815260040160405180910390fd5b6001600160a01b0382166000908152601b60205260409020541561416057604051639a42da2960e01b815260040160405180910390fd5b6000818152601a60205260408120546001600160a01b03169061418284611c1c565b9050600081516001600160401b0381111561419f5761419f614d42565b6040519080825280602002602001820160405280156141c8578160200160208202803683370190505b50905060005b825181101561424957601a60008483815181106141ed576141ed615806565b6020026020010151815260200190815260200160002060009054906101000a90046001600160a01b031682828151811061422957614229615806565b6001600160a01b03909216602092830291909101909101526001016141ce565b50600d5460405163644ec52760e01b8152600481018690526001600160a01b039091169063644ec52790602401600060405180830381600087803b15801561429057600080fd5b505af11580156142a4573d6000803e3d6000fd5b5050600d54604051631e92beb560e31b8152600481018890526001600160a01b038981166024830152909116925063f495f5a89150604401600060405180830381600087803b1580156142f657600080fd5b505af115801561430a573d6000803e3d6000fd5b5050600c5460405162438b6360e81b81526001600160a01b03878116600483015260009450909116915063438b630090602401600060405180830381865afa15801561435a573d6000803e3d6000fd5b505050506040513d6000823e601f3d908101601f191682016040526143829190810190615a6f565b905060005b81518110156144dc5760008282815181106143a4576143a4615806565b6020908102919091010151600d54604051632e1d274f60e01b8152600481018390529192506001600160a01b031690632e1d274f90602401600060405180830381600087803b1580156143f657600080fd5b505af115801561440a573d6000803e3d6000fd5b5050600d54604051632333520b60e11b81526001600160a01b039091169250634666a41691506144409084908890600401615ce8565b600060405180830381600087803b15801561445a57600080fd5b505af115801561446e573d6000803e3d6000fd5b5050600c5460405163487b1c2160e11b8152600481018590526001600160a01b0390911692506390f638429150602401600060405180830381600087803b1580156144b857600080fd5b505af11580156144cc573d6000803e3d6000fd5b5050505050806001019050614387565b506144e8878787614752565b50505050505050565b61152a818461480a565b6001600160a01b0382166145515760405162461bcd60e51b815260206004820181905260248201527f4552433732313a206d696e7420746f20746865207a65726f20616464726573736044820152606401611516565b6000818152600260205260409020546001600160a01b0316156145b65760405162461bcd60e51b815260206004820152601c60248201527f4552433732313a20746f6b656e20616c7265616479206d696e746564000000006044820152606401611516565b6145c2600083836140e0565b6001600160a01b03821660009081526003602052604081208054600192906145eb908490615999565b909155505060008181526002602052604080822080546001600160a01b0319166001600160a01b03861690811790915590518392907fddf252ad1be2c89b69c2b068fc378daa952ba7f163c4a11628f55a4df523b3ef908290a4611222600083836144f1565b60006001600160a01b0384163b1561474757604051630a85bd0160e11b81526001600160a01b0385169063150b7a0290614695903390899088908890600401615d01565b6020604051808303816000875af19250505080156146d0575060408051601f3d908101601f191682019092526146cd91810190615d34565b60015b61472d573d8080156146fe576040519150601f19603f3d011682016040523d82523d6000602084013e614703565b606091505b5080516000036147255760405162461bcd60e51b815260040161151690615c96565b805181602001fd5b6001600160e01b031916630a85bd0160e11b149050612792565b506001949350505050565b6001600160a01b0383166147ad576147a881600880546000838152600960205260408120829055600182018355919091527ff3f7a9fe364faab93b216da50a3214154f22a0a2b415b23a84c8169e8b636ee30155565b6147d0565b816001600160a01b0316836001600160a01b0316146147d0576147d083826148f3565b6001600160a01b0382166147e75761152a81614990565b826001600160a01b0316826001600160a01b03161461152a5761152a8282614a3f565b6000828152601c602090815260408083208054825181850281018501909352808352919290919083018282801561486a57602002820191906000526020600020905b81546001600160a01b0316815260019091019060200180831161484c575b5050506000868152601a60205260408120549394506001600160a01b03909316929150505b82518110156148db576148bd848483815181106148ae576148ae615806565b60200260200101516000613f17565b6148d3828483815181106148ae576148ae615806565b60010161488f565b506000848152601c6020526040812061234391614af9565b60006001614900846125f3565b61490a9190615c6d565b60008381526007602052604090205490915080821461495d576001600160a01b03841660009081526006602090815260408083208584528252808320548484528184208190558352600790915290208190555b5060009182526007602090815260408084208490556001600160a01b039094168352600681528383209183525290812055565b6008546000906149a290600190615c6d565b600083815260096020526040812054600880549394509092849081106149ca576149ca615806565b9060005260206000200154905080600883815481106149eb576149eb615806565b6000918252602080832090910192909255828152600990915260408082208490558582528120556008805480614a2357614a23615d51565b6001900381819060005260206000200160009055905550505050565b6000614a4a836125f3565b6001600160a01b039093166000908152600660209081526040808320868452825280832085905593825260079052919091209190915550565b8260028101928215614abc579160200282015b82811115614abc5782518290614aac9082615864565b5091602001919060010190614a96565b50614ac8929150614b17565b5090565b6040518060800160405280606081526020016060815260200160008152602001614af4614b34565b905290565b5080546000825590600052602060002090810190611bbd9190614b5b565b80821115614ac8576000614b2b8282614b70565b50600101614b17565b60405180604001604052806002905b6060815260200190600190039081614b435790505090565b5b80821115614ac85760008155600101614b5c565b508054614b7c906155fa565b6000825580601f10614b8c575050565b601f016020900490600052602060002090810190611bbd9190614b5b565b6001600160a01b0381168114611bbd57600080fd5b600060208284031215614bd157600080fd5b8135612a1481614baa565b6001600160e01b031981168114611bbd57600080fd5b600060208284031215614c0457600080fd5b8135612a1481614bdc565b600060208284031215614c2157600080fd5b5035919050565b60005b83811015614c43578181015183820152602001614c2b565b50506000910152565b60008151808452614c64816020860160208601614c28565b601f01601f19169290920160200192915050565b602081526000612a146020830184614c4c565b60008060408385031215614c9e57600080fd5b8235614ca981614baa565b946020939093013593505050565b848152608060208201526000614cd06080830186614c4c565b8281036040840152614ce28186614c4c565b90508281036060840152614cf68185614c4c565b979650505050505050565b600080600060608486031215614d1657600080fd5b8335614d2181614baa565b92506020840135614d3181614baa565b929592945050506040919091013590565b634e487b7160e01b600052604160045260246000fd5b604080519081016001600160401b0381118282101715614d7a57614d7a614d42565b60405290565b60405161018081016001600160401b0381118282101715614d7a57614d7a614d42565b604051601f8201601f191681016001600160401b0381118282101715614dcb57614dcb614d42565b604052919050565b60006001600160401b03821115614dec57614dec614d42565b50601f01601f191660200190565b600082601f830112614e0b57600080fd5b8135614e1e614e1982614dd3565b614da3565b818152846020838601011115614e3357600080fd5b816020850160208301376000918101602001919091529392505050565b60006020808385031215614e6357600080fd5b82356001600160401b0380821115614e7a57600080fd5b818501915085601f830112614e8e57600080fd5b614e96614d58565b806040840188811115614ea857600080fd5b845b81811015614edc57803585811115614ec25760008081fd5b614ece8b828901614dfa565b855250928601928601614eaa565b509098975050505050505050565b60008060408385031215614efd57600080fd5b50508035926020909101359150565b803560ff81168114614f1d57600080fd5b919050565b80358015158114614f1d57600080fd5b60008060008060808587031215614f4857600080fd5b8435935060208501356001600160401b03811115614f6557600080fd5b614f7187828801614dfa565b935050614f8060408601614f0c565b9150614f8e60608601614f22565b905092959194509250565b6020808252825182820181905260009190848201906040850190845b81811015614fd157835183529284019291840191600101614fb5565b50909695505050505050565b600080600080600080600080610100898b031215614ffa57600080fd5b505086359860208801359850604088013597606081013597506080810135965060a0810135955060c0810135945060e0013592509050565b60008060006060848603121561504757600080fd5b83359250602084013561505981614baa565b915061506760408501614f22565b90509250925092565b60008151808452602080850194506020840160005b838110156150aa5781516001600160a01b031687529582019590820190600101615085565b509495945050505050565b602081526000612a146020830184615070565b6000806000606084860312156150dd57600080fd5b83356150e881614baa565b92506020840135915061506760408501614f0c565b803563ffffffff81168114614f1d57600080fd5b60006020828403121561512357600080fd5b81356001600160401b038082111561513a57600080fd5b90830190610180828603121561514f57600080fd5b615157614d80565b823581526020830135602082015260408301356040820152606083013560608201526080830135608082015260a083013560a082015260c083013560c08201526151a360e084016150fd565b60e082015261010083810135908201526101206151c1818501614f0c565b9082015261014083810135838111156151d957600080fd5b6151e588828701614dfa565b82840152505061016091506151fb828401614f22565b91810191909152949350505050565b60608152600061521d6060830186614c4c565b828103602084015261522f8186614c4c565b905082810360408401526152438185614c4c565b9695505050505050565b6000806040838503121561526057600080fd5b823561526b81614baa565b915061527960208401614f22565b90509250929050565b6040815260006152956040830185614c4c565b82810360208401526152a78185614c4c565b95945050505050565b60006101808e83528d60208401528c60408401528b60608401528a60808401528960a08401528860c084015263ffffffff881660e08401528661010084015260ff86166101208401528061014084015261530c81840186614c4c565b9150508215156101608301529d9c50505050505050505050505050565b6000806000806080858703121561533f57600080fd5b843561534a81614baa565b9350602085013561535a81614baa565b92506040850135915060608501356001600160401b0381111561537c57600080fd5b61538887828801614dfa565b91505092959194509250565b60006001600160401b038211156153ad576153ad614d42565b5060051b60200190565b600080604083850312156153ca57600080fd5b823591506020808401356001600160401b038111156153e857600080fd5b8401601f810186136153f957600080fd5b8035615407614e1982615394565b81815260059190911b8201830190838101908883111561542657600080fd5b928401925b828410156154445783358252928401929084019061542b565b80955050505050509250929050565b60088110611bbd57600080fd5b6000806040838503121561547357600080fd5b82359150602083013561548581615453565b809150509250929050565b6020815281516020820152602082015160408201526040820151606082015260608201516080820152608082015160a082015260a082015160c082015260c082015160e0820152600060e08301516101006154f28185018363ffffffff169052565b8401516101208481019190915284015190506101406155158185018360ff169052565b8085015191505061018061016081818601526155356101a0860184614c4c565b95015115159301929092525090919050565b6000806040838503121561555a57600080fd5b823561556581614baa565b9150602083013561548581614baa565b6000806000806080858703121561558b57600080fd5b8435935060208501356001600160401b03808211156155a957600080fd5b6155b588838901614dfa565b945060408701359150808211156155cb57600080fd5b6155d788838901614dfa565b935060608701359150808211156155ed57600080fd5b5061538887828801614dfa565b600181811c9082168061560e57607f821691505b60208210810361562e57634e487b7160e01b600052602260045260246000fd5b50919050565b6000615642614e1984614dd3565b905082815283838301111561565657600080fd5b612a14836020830184614c28565b600082601f83011261567557600080fd5b612a1483835160208501615634565b60006020828403121561569657600080fd5b81516001600160401b038111156156ac57600080fd5b61279284828501615664565b6020808252602e908201527f4552433732313a2063616c6c6572206973206e6f7420746f6b656e206f776e6560408201526d1c881b9bdc88185c1c1c9bdd995960921b606082015260800190565b60006020828403121561571857600080fd5b8151612a1481615453565b634e487b7160e01b600052602160045260246000fd5b60008060006060848603121561574e57600080fd5b83516001600160401b038082111561576557600080fd5b61577187838801615664565b9450602086015191508082111561578757600080fd5b818601915086601f83011261579b57600080fd5b6157aa87835160208501615634565b935060408601519150808211156157c057600080fd5b506157cd86828701615664565b9150509250925092565b600083516157e9818460208801614c28565b8351908301906157fd818360208801614c28565b01949350505050565b634e487b7160e01b600052603260045260246000fd5b601f82111561152a576000816000526020600020601f850160051c810160208610156158455750805b601f850160051c820191505b818110156134de57828155600101615851565b81516001600160401b0381111561587d5761587d614d42565b6158918161588b84546155fa565b8461581c565b602080601f8311600181146158c657600084156158ae5750858301515b600019600386901b1c1916600185901b1785556134de565b600085815260208120601f198616915b828110156158f5578886015182559484019460019091019084016158d6565b50858210156159135787850151600019600388901b60f8161c191681555b5050505050600190811b01905550565b6001600160a01b038416815260208101839052606081016008831061595857634e487b7160e01b600052602160045260246000fd5b826040830152949350505050565b60006020828403121561597857600080fd5b8151612a1481614baa565b634e487b7160e01b600052601160045260246000fd5b808201808211156110e7576110e7615983565b600081546159b9816155fa565b8085526020600183811680156159d657600181146159f057615a1e565b60ff1985168884015283151560051b880183019550615a1e565b866000528260002060005b85811015615a165781548a82018601529083019084016159fb565b890184019650505b505050505092915050565b602081526000612a1460208301846159ac565b604081526009604082015268426f6479205479706560b81b6060820152608060208201526000612a1460808301846159ac565b60006020808385031215615a8257600080fd5b82516001600160401b03811115615a9857600080fd5b8301601f81018513615aa957600080fd5b8051615ab7614e1982615394565b81815260059190911b82018301908381019087831115615ad657600080fd5b928401925b82841015614cf657835182529284019290840190615adb565b80820281158282048414176110e7576110e7615983565b6000815160808452615b206080850182614c4c565b90506020808401518583036020870152615b3a8382614c4c565b9250506040840151604086015260608401518583036060870152828390506040840160005b6002811015615b8a578582038352615b78828551614c4c565b93850193928501929150600101615b5f565b50979650505050505050565b86815260c060208201526000615baf60c0830188614c4c565b8281036040840152615bc18188614c4c565b90508281036060840152615bd58187614c4c565b90508281036080840152615be98186614c4c565b905082810360a0840152615bfd8185615b0b565b9998505050505050505050565b60008060408385031215615c1d57600080fd5b82516001600160401b0380821115615c3457600080fd5b615c4086838701615664565b93506020850151915080821115615c5657600080fd5b50615c6385828601615664565b9150509250929050565b818103818111156110e7576110e7615983565b634e487b7160e01b600052601260045260246000fd5b60208082526032908201527f4552433732313a207472616e7366657220746f206e6f6e20455243373231526560408201527131b2b4bb32b91034b6b83632b6b2b73a32b960711b606082015260800190565b8281526040602082015260006127926040830184615070565b6001600160a01b038581168252841660208201526040810183905260806060820181905260009061524390830184614c4c565b600060208284031215615d4657600080fd5b8151612a1481614bdc565b634e487b7160e01b600052603160045260246000fdfec94c1c47471ed97c1d309bab965192a3e4be3807f42d015b699bfbdcf24dd9f6a2646970667358221220a8046bdb8486584e93f7b44de46076544b2c0a7586a8ea74fb4aa3fb576f412064736f6c63430008160033","linkReferences":{}},"methodIdentifiers":{"_debugPostConstructorMint()":"9c7be2f1","_nextTokenId()":"4a60f620","addNewBody(uint256,string,bytes,bytes)":"f2361e23","approve(address,uint256)":"095ea7b3","balanceOf(address)":"70a08231","bodyIndexToMetadata(uint256)":"0c83f9d7","cancelOwnershipHandover()":"54d1f13d","checkIfTraitIsEquipped(uint256,uint256)":"8aa1e4c8","chonkEquipHelper()":"75676db8","chonkIdToApprovedOperators(uint256,uint256)":"55737f35","chonkTokens(uint256)":"b45d0316","collectionsMerkle()":"80d833f1","completeOwnershipHandover(address)":"f04e283e","creatorsMerkle()":"a1531780","deploymentTime()":"ecda10f5","equip(uint256,uint256)":"28257532","equipAll(uint256,uint256,uint256,uint256,uint256,uint256,uint256,uint256)":"4a4333a3","firstReleaseDataMinter()":"fd8b66de","friendsMerkle()":"fc863e64","getApproved(uint256)":"081812fc","getBackpackSVGs(uint256)":"14fe8ff4","getBodyImageSvg(uint256)":"916c546b","getBodySVGZmapsAndMetadata((uint256,uint256,uint256,uint256,uint256,uint256,uint256,uint32,uint256,uint8,string,bool))":"92012f08","getBodySvgAndMetadata((uint256,uint256,uint256,uint256,uint256,uint256,uint256,uint32,uint256,uint8,string,bool))":"a23830ae","getBodyZMap(uint256)":"306c7334","getChonk(uint256)":"d3d6873e","getChonkIdForTBAAddress(address)":"8472cbca","getChonkIdToApprovedOperators(uint256)":"67d2afe2","getChonkZMap(uint256)":"32875aa0","getFullPictureForTrait(uint256)":"66704349","getOwnerAndTBAAddressForChonkId(uint256)":"04003bd0","getTBAAddressForChonkId(uint256)":"f6a0c932","getTraitsForChonkId(uint256)":"9f6e4637","initialMintStartTime()":"b91fdc8c","isApprovedForAll(address,address)":"e985e9c5","isTimelocked()":"50b03146","mainRenderer2D()":"f4bec0b6","mainRenderer3D()":"b66ef6e3","marketplace()":"abc8c7af","maxTraitsToOutput()":"e3d21555","mint(uint256,bytes32[])":"ba41b0c6","name()":"06fdde03","oneYearFromDeployment()":"d59752eb","owner()":"8da5cb5b","ownerOf(uint256)":"6352211e","ownershipHandoverExpiresAt(address)":"fee81cf4","price()":"a035b1fe","renderAsDataUri(uint256)":"a1d62680","renderAsDataUri2D(uint256)":"f3f8efb9","renderAsDataUri3D(uint256)":"dceef0ec","renounceOwnership()":"715018a6","requestOwnershipHandover()":"25692962","safeTransferFrom(address,address,uint256)":"42842e0e","safeTransferFrom(address,address,uint256,bytes)":"b88d4fde","setApprovalForAll(address,bool)":"a22cb465","setApprovalForAllChonksMarketplace(uint256,address,bool)":"550ab247","setChonkAttributes(uint256,string,uint8,bool)":"343b4887","setChonkEquipHelper(address)":"0a99a350","setCollectionsMerkle(bytes32)":"8d2a2f11","setCreatorsMerkle(bytes32)":"b194b6f1","setDescriptionParts(string[2])":"26f2052a","setFirstReleaseDataMinter(address)":"b84b160d","setFriendsMerkleRoot(bytes32)":"9eb2660c","setMainRenderer2D(address)":"7e2e6c47","setMainRenderer3D(address)":"00179206","setMarketplace(address)":"73ad6c2d","setMaxTraitsToOutput(uint256)":"33d3d9bf","setMintStartTime(uint256)":"d5b3621b","setPrice(uint256)":"91b7f5ed","setTraitsContract(address)":"5eabd84a","setWithdrawAddress(address)":"3ab1a494","supportsInterface(bytes4)":"01ffc9a7","symbol()":"95d89b41","tbaAddressToTokenId(address)":"a4bf9a00","teamMint(address,uint256,uint8)":"6e51665f","teamReserve()":"4287f14a","tokenByIndex(uint256)":"4f6ccce7","tokenIdToTBAAccountAddress(uint256)":"9c05d68d","tokenOfOwnerByIndex(address,uint256)":"2f745c59","tokenURI(uint256)":"c87b56dd","totalSupply()":"18160ddd","traitsContract()":"c093afdb","transferFrom(address,address,uint256)":"23b872dd","transferOwnership(address)":"f2fde38b","unequip(uint256,uint8)":"cdb6dd5c","unequipAll(uint256)":"3044825b","walletOfOwner(address)":"438b6300","withdraw()":"3ccfd60b","withdrawAddress()":"1581b600"},"id":43}