{"abi":[{"type":"constructor","inputs":[],"stateMutability":"nonpayable"},{"type":"function","name":"addNewBody","inputs":[{"name":"_bodyIndex","type":"uint256","internalType":"uint256"},{"name":"_bodyName","type":"string","internalType":"string"},{"name":"_colorMap","type":"bytes","internalType":"bytes"},{"name":"_zMap","type":"bytes","internalType":"bytes"}],"outputs":[],"stateMutability":"nonpayable"},{"type":"function","name":"approve","inputs":[{"name":"_operator","type":"address","internalType":"address"},{"name":"_chonkId","type":"uint256","internalType":"uint256"}],"outputs":[],"stateMutability":"nonpayable"},{"type":"function","name":"balanceOf","inputs":[{"name":"owner","type":"address","internalType":"address"}],"outputs":[{"name":"","type":"uint256","internalType":"uint256"}],"stateMutability":"view"},{"type":"function","name":"bodyIndexToMetadata","inputs":[{"name":"","type":"uint256","internalType":"uint256"}],"outputs":[{"name":"bodyIndex","type":"uint256","internalType":"uint256"},{"name":"bodyName","type":"string","internalType":"string"},{"name":"colorMap","type":"bytes","internalType":"bytes"},{"name":"zMap","type":"bytes","internalType":"bytes"}],"stateMutability":"view"},{"type":"function","name":"cancelOwnershipHandover","inputs":[],"outputs":[],"stateMutability":"payable"},{"type":"function","name":"checkIfTraitIsEquipped","inputs":[{"name":"_chonkId","type":"uint256","internalType":"uint256"},{"name":"_traitId","type":"uint256","internalType":"uint256"}],"outputs":[{"name":"","type":"bool","internalType":"bool"}],"stateMutability":"view"},{"type":"function","name":"chonkEquipHelper","inputs":[],"outputs":[{"name":"","type":"address","internalType":"contract ChonkEquipHelper"}],"stateMutability":"view"},{"type":"function","name":"chonkIdToApprovedOperators","inputs":[{"name":"chonkId","type":"uint256","internalType":"uint256"},{"name":"","type":"uint256","internalType":"uint256"}],"outputs":[{"name":"operators","type":"address","internalType":"address"}],"stateMutability":"view"},{"type":"function","name":"chonkMakeover","inputs":[{"name":"_chonkTokenId","type":"uint256","internalType":"uint256"},{"name":"_traitTokenIds","type":"uint256[]","internalType":"uint256[]"},{"name":"_traitCategories","type":"uint8[]","internalType":"uint8[]"},{"name":"_bodyIndex","type":"uint8","internalType":"uint8"},{"name":"_backgroundColor","type":"string","internalType":"string"},{"name":"_render3D","type":"bool","internalType":"bool"}],"outputs":[],"stateMutability":"nonpayable"},{"type":"function","name":"chonkTokens","inputs":[{"name":"tokenID","type":"uint256","internalType":"uint256"}],"outputs":[{"name":"tokenId","type":"uint256","internalType":"uint256"},{"name":"headId","type":"uint256","internalType":"uint256"},{"name":"hairId","type":"uint256","internalType":"uint256"},{"name":"faceId","type":"uint256","internalType":"uint256"},{"name":"accessoryId","type":"uint256","internalType":"uint256"},{"name":"topId","type":"uint256","internalType":"uint256"},{"name":"bottomId","type":"uint256","internalType":"uint256"},{"name":"shoesId","type":"uint256","internalType":"uint256"},{"name":"bodyIndex","type":"uint8","internalType":"uint8"},{"name":"backgroundColor","type":"string","internalType":"string"},{"name":"render3D","type":"bool","internalType":"bool"}],"stateMutability":"view"},{"type":"function","name":"collectionsAddressDidUse","inputs":[{"name":"","type":"address","internalType":"address"}],"outputs":[{"name":"","type":"bool","internalType":"bool"}],"stateMutability":"view"},{"type":"function","name":"collectionsMerkle","inputs":[],"outputs":[{"name":"","type":"bytes32","internalType":"bytes32"}],"stateMutability":"view"},{"type":"function","name":"completeOwnershipHandover","inputs":[{"name":"pendingOwner","type":"address","internalType":"address"}],"outputs":[],"stateMutability":"payable"},{"type":"function","name":"creatorsAddressDidUse","inputs":[{"name":"","type":"address","internalType":"address"}],"outputs":[{"name":"","type":"bool","internalType":"bool"}],"stateMutability":"view"},{"type":"function","name":"creatorsMerkle","inputs":[],"outputs":[{"name":"","type":"bytes32","internalType":"bytes32"}],"stateMutability":"view"},{"type":"function","name":"deploymentTime","inputs":[],"outputs":[{"name":"","type":"uint256","internalType":"uint256"}],"stateMutability":"view"},{"type":"function","name":"equip","inputs":[{"name":"_chonkTokenId","type":"uint256","internalType":"uint256"},{"name":"_traitTokenId","type":"uint256","internalType":"uint256"}],"outputs":[],"stateMutability":"nonpayable"},{"type":"function","name":"equipMany","inputs":[{"name":"_chonkTokenId","type":"uint256","internalType":"uint256"},{"name":"_traitTokenIds","type":"uint256[]","internalType":"uint256[]"},{"name":"_traitCategories","type":"uint8[]","internalType":"uint8[]"}],"outputs":[],"stateMutability":"nonpayable"},{"type":"function","name":"firstReleaseDataMinter","inputs":[],"outputs":[{"name":"","type":"address","internalType":"contract FirstReleaseDataMinter"}],"stateMutability":"view"},{"type":"function","name":"friendsAddressDidUse","inputs":[{"name":"","type":"address","internalType":"address"}],"outputs":[{"name":"","type":"bool","internalType":"bool"}],"stateMutability":"view"},{"type":"function","name":"friendsMerkle","inputs":[],"outputs":[{"name":"","type":"bytes32","internalType":"bytes32"}],"stateMutability":"view"},{"type":"function","name":"getApproved","inputs":[{"name":"tokenId","type":"uint256","internalType":"uint256"}],"outputs":[{"name":"","type":"address","internalType":"address"}],"stateMutability":"view"},{"type":"function","name":"getBackpackSVGs","inputs":[{"name":"_tokenId","type":"uint256","internalType":"uint256"}],"outputs":[{"name":"","type":"string","internalType":"string"}],"stateMutability":"view"},{"type":"function","name":"getBodyImageSvg","inputs":[{"name":"_index","type":"uint256","internalType":"uint256"}],"outputs":[{"name":"","type":"string","internalType":"string"}],"stateMutability":"view"},{"type":"function","name":"getBodySVGZmapsAndMetadata","inputs":[{"name":"storedChonk","type":"tuple","internalType":"struct IChonkStorage.StoredChonk","components":[{"name":"tokenId","type":"uint256","internalType":"uint256"},{"name":"headId","type":"uint256","internalType":"uint256"},{"name":"hairId","type":"uint256","internalType":"uint256"},{"name":"faceId","type":"uint256","internalType":"uint256"},{"name":"accessoryId","type":"uint256","internalType":"uint256"},{"name":"topId","type":"uint256","internalType":"uint256"},{"name":"bottomId","type":"uint256","internalType":"uint256"},{"name":"shoesId","type":"uint256","internalType":"uint256"},{"name":"bodyIndex","type":"uint8","internalType":"uint8"},{"name":"backgroundColor","type":"string","internalType":"string"},{"name":"render3D","type":"bool","internalType":"bool"}]}],"outputs":[{"name":"","type":"string","internalType":"string"},{"name":"","type":"bytes","internalType":"bytes"},{"name":"","type":"string","internalType":"string"}],"stateMutability":"view"},{"type":"function","name":"getBodySvgAndMetadata","inputs":[{"name":"storedChonk","type":"tuple","internalType":"struct IChonkStorage.StoredChonk","components":[{"name":"tokenId","type":"uint256","internalType":"uint256"},{"name":"headId","type":"uint256","internalType":"uint256"},{"name":"hairId","type":"uint256","internalType":"uint256"},{"name":"faceId","type":"uint256","internalType":"uint256"},{"name":"accessoryId","type":"uint256","internalType":"uint256"},{"name":"topId","type":"uint256","internalType":"uint256"},{"name":"bottomId","type":"uint256","internalType":"uint256"},{"name":"shoesId","type":"uint256","internalType":"uint256"},{"name":"bodyIndex","type":"uint8","internalType":"uint8"},{"name":"backgroundColor","type":"string","internalType":"string"},{"name":"render3D","type":"bool","internalType":"bool"}]}],"outputs":[{"name":"","type":"string","internalType":"string"},{"name":"","type":"string","internalType":"string"}],"stateMutability":"view"},{"type":"function","name":"getBodyZMap","inputs":[{"name":"_tokenId","type":"uint256","internalType":"uint256"}],"outputs":[{"name":"","type":"string","internalType":"string"}],"stateMutability":"view"},{"type":"function","name":"getChonk","inputs":[{"name":"_tokenId","type":"uint256","internalType":"uint256"}],"outputs":[{"name":"","type":"tuple","internalType":"struct IChonkStorage.StoredChonk","components":[{"name":"tokenId","type":"uint256","internalType":"uint256"},{"name":"headId","type":"uint256","internalType":"uint256"},{"name":"hairId","type":"uint256","internalType":"uint256"},{"name":"faceId","type":"uint256","internalType":"uint256"},{"name":"accessoryId","type":"uint256","internalType":"uint256"},{"name":"topId","type":"uint256","internalType":"uint256"},{"name":"bottomId","type":"uint256","internalType":"uint256"},{"name":"shoesId","type":"uint256","internalType":"uint256"},{"name":"bodyIndex","type":"uint8","internalType":"uint8"},{"name":"backgroundColor","type":"string","internalType":"string"},{"name":"render3D","type":"bool","internalType":"bool"}]}],"stateMutability":"view"},{"type":"function","name":"getChonkIdForTBAAddress","inputs":[{"name":"_tbaAddress","type":"address","internalType":"address"}],"outputs":[{"name":"","type":"uint256","internalType":"uint256"}],"stateMutability":"view"},{"type":"function","name":"getChonkIdToApprovedOperators","inputs":[{"name":"_chonkId","type":"uint256","internalType":"uint256"}],"outputs":[{"name":"","type":"address[]","internalType":"address[]"}],"stateMutability":"view"},{"type":"function","name":"getChonkZMap","inputs":[{"name":"_tokenId","type":"uint256","internalType":"uint256"}],"outputs":[{"name":"","type":"string","internalType":"string"}],"stateMutability":"view"},{"type":"function","name":"getFullPictureForTrait","inputs":[{"name":"_chonkTraitTokenId","type":"uint256","internalType":"uint256"}],"outputs":[{"name":"traitOwnerTBA","type":"address","internalType":"address"},{"name":"chonkTokenId","type":"uint256","internalType":"uint256"},{"name":"chonkOwner","type":"address","internalType":"address"},{"name":"isEquipped","type":"bool","internalType":"bool"}],"stateMutability":"view"},{"type":"function","name":"getOwnerAndTBAAddressForChonkId","inputs":[{"name":"_chonkId","type":"uint256","internalType":"uint256"}],"outputs":[{"name":"owner","type":"address","internalType":"address"},{"name":"tbaAddress","type":"address","internalType":"address"}],"stateMutability":"view"},{"type":"function","name":"getTBAAddressForChonkId","inputs":[{"name":"_chonkId","type":"uint256","internalType":"uint256"}],"outputs":[{"name":"","type":"address","internalType":"address"}],"stateMutability":"view"},{"type":"function","name":"getTraitsForChonkId","inputs":[{"name":"_chonkId","type":"uint256","internalType":"uint256"}],"outputs":[{"name":"traitTokens","type":"uint256[]","internalType":"uint256[]"}],"stateMutability":"view"},{"type":"function","name":"initialMintStartTime","inputs":[],"outputs":[{"name":"","type":"uint256","internalType":"uint256"}],"stateMutability":"view"},{"type":"function","name":"isApprovedForAll","inputs":[{"name":"owner","type":"address","internalType":"address"},{"name":"operator","type":"address","internalType":"address"}],"outputs":[{"name":"","type":"bool","internalType":"bool"}],"stateMutability":"view"},{"type":"function","name":"isTimelocked","inputs":[],"outputs":[{"name":"","type":"bool","internalType":"bool"}],"stateMutability":"view"},{"type":"function","name":"mainRenderer2D","inputs":[],"outputs":[{"name":"","type":"address","internalType":"contract MainRenderer2D"}],"stateMutability":"view"},{"type":"function","name":"mainRenderer3D","inputs":[],"outputs":[{"name":"","type":"address","internalType":"contract MainRenderer3D"}],"stateMutability":"view"},{"type":"function","name":"marketplace","inputs":[],"outputs":[{"name":"","type":"address","internalType":"contract ChonksMarket"}],"stateMutability":"view"},{"type":"function","name":"maxTraitsToOutput","inputs":[],"outputs":[{"name":"","type":"uint256","internalType":"uint256"}],"stateMutability":"view"},{"type":"function","name":"name","inputs":[],"outputs":[{"name":"","type":"string","internalType":"string"}],"stateMutability":"view"},{"type":"function","name":"nextTokenId","inputs":[],"outputs":[{"name":"","type":"uint256","internalType":"uint256"}],"stateMutability":"view"},{"type":"function","name":"oneYearFromDeployment","inputs":[],"outputs":[{"name":"","type":"uint256","internalType":"uint256"}],"stateMutability":"view"},{"type":"function","name":"owner","inputs":[],"outputs":[{"name":"result","type":"address","internalType":"address"}],"stateMutability":"view"},{"type":"function","name":"ownerOf","inputs":[{"name":"tokenId","type":"uint256","internalType":"uint256"}],"outputs":[{"name":"","type":"address","internalType":"address"}],"stateMutability":"view"},{"type":"function","name":"ownershipHandoverExpiresAt","inputs":[{"name":"pendingOwner","type":"address","internalType":"address"}],"outputs":[{"name":"result","type":"uint256","internalType":"uint256"}],"stateMutability":"view"},{"type":"function","name":"price","inputs":[],"outputs":[{"name":"","type":"uint256","internalType":"uint256"}],"stateMutability":"view"},{"type":"function","name":"renderAsDataUri","inputs":[{"name":"_tokenId","type":"uint256","internalType":"uint256"}],"outputs":[{"name":"","type":"string","internalType":"string"}],"stateMutability":"view"},{"type":"function","name":"renderAsDataUri2D","inputs":[{"name":"_tokenId","type":"uint256","internalType":"uint256"}],"outputs":[{"name":"","type":"string","internalType":"string"}],"stateMutability":"view"},{"type":"function","name":"renderAsDataUri3D","inputs":[{"name":"_tokenId","type":"uint256","internalType":"uint256"}],"outputs":[{"name":"","type":"string","internalType":"string"}],"stateMutability":"view"},{"type":"function","name":"renounceOwnership","inputs":[],"outputs":[],"stateMutability":"payable"},{"type":"function","name":"requestOwnershipHandover","inputs":[],"outputs":[],"stateMutability":"payable"},{"type":"function","name":"safeTransferFrom","inputs":[{"name":"from","type":"address","internalType":"address"},{"name":"to","type":"address","internalType":"address"},{"name":"tokenId","type":"uint256","internalType":"uint256"}],"outputs":[],"stateMutability":"nonpayable"},{"type":"function","name":"safeTransferFrom","inputs":[{"name":"from","type":"address","internalType":"address"},{"name":"to","type":"address","internalType":"address"},{"name":"tokenId","type":"uint256","internalType":"uint256"},{"name":"data","type":"bytes","internalType":"bytes"}],"outputs":[],"stateMutability":"nonpayable"},{"type":"function","name":"setApprovalForAll","inputs":[{"name":"_operator","type":"address","internalType":"address"},{"name":"_approved","type":"bool","internalType":"bool"}],"outputs":[],"stateMutability":"nonpayable"},{"type":"function","name":"setApprovalForAllChonksMarketplace","inputs":[{"name":"_chonkId","type":"uint256","internalType":"uint256"},{"name":"_operator","type":"address","internalType":"address"},{"name":"_approved","type":"bool","internalType":"bool"}],"outputs":[],"stateMutability":"nonpayable"},{"type":"function","name":"setBackgroundColor","inputs":[{"name":"_chonkTokenId","type":"uint256","internalType":"uint256"},{"name":"_color","type":"string","internalType":"string"}],"outputs":[],"stateMutability":"nonpayable"},{"type":"function","name":"setBodyIndex","inputs":[{"name":"_chonkTokenId","type":"uint256","internalType":"uint256"},{"name":"_bodyIndex","type":"uint8","internalType":"uint8"}],"outputs":[],"stateMutability":"nonpayable"},{"type":"function","name":"setChonkAttributes","inputs":[{"name":"_tokenId","type":"uint256","internalType":"uint256"},{"name":"_color","type":"string","internalType":"string"},{"name":"_bodyIndex","type":"uint8","internalType":"uint8"},{"name":"_render3D","type":"bool","internalType":"bool"}],"outputs":[],"stateMutability":"nonpayable"},{"type":"function","name":"setChonkEquipHelper","inputs":[{"name":"_chonkEquipHelper","type":"address","internalType":"address"}],"outputs":[],"stateMutability":"nonpayable"},{"type":"function","name":"setCollectionsMerkle","inputs":[{"name":"_merkleRoot","type":"bytes32","internalType":"bytes32"}],"outputs":[],"stateMutability":"nonpayable"},{"type":"function","name":"setCreatorsMerkle","inputs":[{"name":"_merkleRoot","type":"bytes32","internalType":"bytes32"}],"outputs":[],"stateMutability":"nonpayable"},{"type":"function","name":"setDescriptionParts","inputs":[{"name":"_descriptionParts","type":"string[2]","internalType":"string[2]"}],"outputs":[],"stateMutability":"nonpayable"},{"type":"function","name":"setFirstReleaseDataMinter","inputs":[{"name":"_dataContract","type":"address","internalType":"address"}],"outputs":[],"stateMutability":"nonpayable"},{"type":"function","name":"setFriendsMerkleRoot","inputs":[{"name":"_merkleRoot","type":"bytes32","internalType":"bytes32"}],"outputs":[],"stateMutability":"nonpayable"},{"type":"function","name":"setMainRenderer2D","inputs":[{"name":"_mainRenderer2D","type":"address","internalType":"address"}],"outputs":[],"stateMutability":"nonpayable"},{"type":"function","name":"setMainRenderer3D","inputs":[{"name":"_mainRenderer3D","type":"address","internalType":"address"}],"outputs":[],"stateMutability":"nonpayable"},{"type":"function","name":"setMarketplace","inputs":[{"name":"_marketplace","type":"address","internalType":"address"}],"outputs":[],"stateMutability":"nonpayable"},{"type":"function","name":"setMaxTraitsToOutput","inputs":[{"name":"_maxTraitsToOutput","type":"uint256","internalType":"uint256"}],"outputs":[],"stateMutability":"nonpayable"},{"type":"function","name":"setMintStartTime","inputs":[{"name":"_initialMintStartTime","type":"uint256","internalType":"uint256"}],"outputs":[],"stateMutability":"nonpayable"},{"type":"function","name":"setPrice","inputs":[{"name":"_priceInWei","type":"uint256","internalType":"uint256"}],"outputs":[],"stateMutability":"nonpayable"},{"type":"function","name":"setTokenRender3D","inputs":[{"name":"_tokenId","type":"uint256","internalType":"uint256"},{"name":"_render3D","type":"bool","internalType":"bool"}],"outputs":[],"stateMutability":"nonpayable"},{"type":"function","name":"setTraitsContract","inputs":[{"name":"_address","type":"address","internalType":"contract ChonkTraits"}],"outputs":[],"stateMutability":"nonpayable"},{"type":"function","name":"setWithdrawAddress","inputs":[{"name":"_withdrawAddress","type":"address","internalType":"address"}],"outputs":[],"stateMutability":"nonpayable"},{"type":"function","name":"supportsInterface","inputs":[{"name":"interfaceId","type":"bytes4","internalType":"bytes4"}],"outputs":[{"name":"","type":"bool","internalType":"bool"}],"stateMutability":"view"},{"type":"function","name":"symbol","inputs":[],"outputs":[{"name":"","type":"string","internalType":"string"}],"stateMutability":"view"},{"type":"function","name":"tbaAddressToTokenId","inputs":[{"name":"","type":"address","internalType":"address"}],"outputs":[{"name":"","type":"uint256","internalType":"uint256"}],"stateMutability":"view"},{"type":"function","name":"tokenByIndex","inputs":[{"name":"index","type":"uint256","internalType":"uint256"}],"outputs":[{"name":"","type":"uint256","internalType":"uint256"}],"stateMutability":"view"},{"type":"function","name":"tokenIdToTBAAccountAddress","inputs":[{"name":"","type":"uint256","internalType":"uint256"}],"outputs":[{"name":"","type":"address","internalType":"address"}],"stateMutability":"view"},{"type":"function","name":"tokenOfOwnerByIndex","inputs":[{"name":"owner","type":"address","internalType":"address"},{"name":"index","type":"uint256","internalType":"uint256"}],"outputs":[{"name":"","type":"uint256","internalType":"uint256"}],"stateMutability":"view"},{"type":"function","name":"tokenURI","inputs":[{"name":"_tokenId","type":"uint256","internalType":"uint256"}],"outputs":[{"name":"","type":"string","internalType":"string"}],"stateMutability":"view"},{"type":"function","name":"totalSupply","inputs":[],"outputs":[{"name":"","type":"uint256","internalType":"uint256"}],"stateMutability":"view"},{"type":"function","name":"traitsContract","inputs":[],"outputs":[{"name":"","type":"address","internalType":"contract ChonkTraits"}],"stateMutability":"view"},{"type":"function","name":"transferFrom","inputs":[{"name":"from","type":"address","internalType":"address"},{"name":"to","type":"address","internalType":"address"},{"name":"tokenId","type":"uint256","internalType":"uint256"}],"outputs":[],"stateMutability":"nonpayable"},{"type":"function","name":"transferOwnership","inputs":[{"name":"newOwner","type":"address","internalType":"address"}],"outputs":[],"stateMutability":"payable"},{"type":"function","name":"unequip","inputs":[{"name":"_chonkTokenId","type":"uint256","internalType":"uint256"},{"name":"traitType","type":"uint8","internalType":"enum TraitCategory.Name"}],"outputs":[],"stateMutability":"nonpayable"},{"type":"function","name":"unequipAll","inputs":[{"name":"_chonkTokenId","type":"uint256","internalType":"uint256"}],"outputs":[],"stateMutability":"nonpayable"},{"type":"function","name":"walletOfOwner","inputs":[{"name":"_owner","type":"address","internalType":"address"}],"outputs":[{"name":"","type":"uint256[]","internalType":"uint256[]"}],"stateMutability":"view"},{"type":"function","name":"withdraw","inputs":[],"outputs":[],"stateMutability":"nonpayable"},{"type":"function","name":"withdrawAddress","inputs":[],"outputs":[{"name":"","type":"address","internalType":"address"}],"stateMutability":"view"},{"type":"event","name":"Approval","inputs":[{"name":"owner","type":"address","indexed":true,"internalType":"address"},{"name":"approved","type":"address","indexed":true,"internalType":"address"},{"name":"tokenId","type":"uint256","indexed":true,"internalType":"uint256"}],"anonymous":false},{"type":"event","name":"ApprovalForAll","inputs":[{"name":"owner","type":"address","indexed":true,"internalType":"address"},{"name":"operator","type":"address","indexed":true,"internalType":"address"},{"name":"approved","type":"bool","indexed":false,"internalType":"bool"}],"anonymous":false},{"type":"event","name":"BackgroundColor","inputs":[{"name":"owner","type":"address","indexed":true,"internalType":"address"},{"name":"tokenId","type":"uint256","indexed":true,"internalType":"uint256"},{"name":"color","type":"string","indexed":false,"internalType":"string"}],"anonymous":false},{"type":"event","name":"BatchMetadataUpdate","inputs":[{"name":"_fromTokenId","type":"uint256","indexed":false,"internalType":"uint256"},{"name":"_toTokenId","type":"uint256","indexed":false,"internalType":"uint256"}],"anonymous":false},{"type":"event","name":"BodyIndex","inputs":[{"name":"owner","type":"address","indexed":true,"internalType":"address"},{"name":"tokenId","type":"uint256","indexed":true,"internalType":"uint256"},{"name":"_bodyIndex","type":"uint8","indexed":false,"internalType":"uint8"}],"anonymous":false},{"type":"event","name":"Equip","inputs":[{"name":"owner","type":"address","indexed":true,"internalType":"address"},{"name":"tokenId","type":"uint256","indexed":true,"internalType":"uint256"},{"name":"traitTokenId","type":"uint256","indexed":true,"internalType":"uint256"},{"name":"traitCategory","type":"uint8","indexed":false,"internalType":"uint8"}],"anonymous":false},{"type":"event","name":"EquipAll","inputs":[{"name":"owner","type":"address","indexed":true,"internalType":"address"},{"name":"tokenId","type":"uint256","indexed":true,"internalType":"uint256"}],"anonymous":false},{"type":"event","name":"MetadataUpdate","inputs":[{"name":"_tokenId","type":"uint256","indexed":false,"internalType":"uint256"}],"anonymous":false},{"type":"event","name":"Mint","inputs":[{"name":"owner","type":"address","indexed":true,"internalType":"address"},{"name":"tokenId","type":"uint256","indexed":true,"internalType":"uint256"}],"anonymous":false},{"type":"event","name":"OwnershipHandoverCanceled","inputs":[{"name":"pendingOwner","type":"address","indexed":true,"internalType":"address"}],"anonymous":false},{"type":"event","name":"OwnershipHandoverRequested","inputs":[{"name":"pendingOwner","type":"address","indexed":true,"internalType":"address"}],"anonymous":false},{"type":"event","name":"OwnershipTransferred","inputs":[{"name":"oldOwner","type":"address","indexed":true,"internalType":"address"},{"name":"newOwner","type":"address","indexed":true,"internalType":"address"}],"anonymous":false},{"type":"event","name":"Render3D","inputs":[{"name":"owner","type":"address","indexed":true,"internalType":"address"},{"name":"tokenId","type":"uint256","indexed":true,"internalType":"uint256"},{"name":"renderZ","type":"bool","indexed":false,"internalType":"bool"}],"anonymous":false},{"type":"event","name":"Transfer","inputs":[{"name":"from","type":"address","indexed":true,"internalType":"address"},{"name":"to","type":"address","indexed":true,"internalType":"address"},{"name":"tokenId","type":"uint256","indexed":true,"internalType":"uint256"}],"anonymous":false},{"type":"event","name":"Unequip","inputs":[{"name":"owner","type":"address","indexed":true,"internalType":"address"},{"name":"tokenId","type":"uint256","indexed":true,"internalType":"uint256"},{"name":"traitCategory","type":"uint8","indexed":false,"internalType":"uint8"}],"anonymous":false},{"type":"event","name":"UnequipAll","inputs":[{"name":"owner","type":"address","indexed":true,"internalType":"address"},{"name":"tokenId","type":"uint256","indexed":true,"internalType":"uint256"}],"anonymous":false},{"type":"error","name":"AlreadyInitialized","inputs":[]},{"type":"error","name":"CanOnlyReserveFirstTwo","inputs":[]},{"type":"error","name":"CantTransferDuringMint","inputs":[]},{"type":"error","name":"CantTransferToTBAs","inputs":[]},{"type":"error","name":"ChonkDoesntExist","inputs":[]},{"type":"error","name":"FirstReleaseDataMinterNotSet","inputs":[]},{"type":"error","name":"IncorrectChonkOwner","inputs":[]},{"type":"error","name":"IncorrectTBAOwner","inputs":[]},{"type":"error","name":"IncorrectTraitType","inputs":[]},{"type":"error","name":"InsufficientFunds","inputs":[]},{"type":"error","name":"InvalidBodyIndex","inputs":[]},{"type":"error","name":"InvalidColor","inputs":[]},{"type":"error","name":"InvalidMintAmount","inputs":[]},{"type":"error","name":"InvalidTraitCategory","inputs":[]},{"type":"error","name":"InvalidTraitCount","inputs":[]},{"type":"error","name":"MintEnded","inputs":[]},{"type":"error","name":"MintNotStarted","inputs":[]},{"type":"error","name":"MintStartTimeAlreadySet","inputs":[]},{"type":"error","name":"NewOwnerIsZeroAddress","inputs":[]},{"type":"error","name":"NoHandoverRequest","inputs":[]},{"type":"error","name":"Timelocked","inputs":[]},{"type":"error","name":"TraitLengthsMustMatch","inputs":[]},{"type":"error","name":"Unauthorized","inputs":[]},{"type":"error","name":"UseUnequip","inputs":[]},{"type":"error","name":"WithdrawFailed","inputs":[]}],"bytecode":{"object":"0x60a060405260636012553480156200001657600080fd5b506040518060400160405280600681526020016543686f6e6b7360d01b8152506040518060400160405280600681526020016543484f4e4b5360d01b815250816000908162000066919062000175565b50600162000075828262000175565b50506001600a5550620000883362000092565b4260805262000241565b6001600160a01b0316638b78c6d8198190558060007f8be0079c531659141344cd1fd0a4f28419497f9722a3daafe3b4186f6b6457e08180a350565b634e487b7160e01b600052604160045260246000fd5b600181811c90821680620000f957607f821691505b6020821081036200011a57634e487b7160e01b600052602260045260246000fd5b50919050565b601f82111562000170576000816000526020600020601f850160051c810160208610156200014b5750805b601f850160051c820191505b818110156200016c5782815560010162000157565b5050505b505050565b81516001600160401b03811115620001915762000191620000ce565b620001a981620001a28454620000e4565b8462000120565b602080601f831160018114620001e15760008415620001c85750858301515b600019600386901b1c1916600185901b1785556200016c565b600085815260208120601f198616915b828110156200021257888601518255948401946001909101908401620001f1565b5085821015620002315787850151600019600388901b60f8161c191681555b5050505050600190811b01905550565b6080516155dc6200026460003960008181610ff80152612c0e01526155dc6000f3fe6080604052600436106104f65760003560e01c80638da5cb5b1161028c578063bf7f80a61161015a578063e985e9c5116100cc578063f40bdd2511610085578063f40bdd2514611080578063f4bec0b6146110a0578063f6a0c932146110c0578063fc863e64146110f6578063fd8b66de1461110c578063fee81cf41461112c57600080fd5b8063e985e9c514610f9d578063ecda10f514610fe6578063f04e283e1461101a578063f2361e231461102d578063f2fde38b1461104d578063f3f8efb91461106057600080fd5b8063d59752eb1161011e578063d59752eb14610ef2578063d5b3621b14610f07578063d68c4f3214610f27578063dceef0ec14610f47578063e140554014610f67578063e3d2155514610f8757600080fd5b8063bf7f80a614610e45578063c093afdb14610e65578063c87b56dd14610e85578063cdb6dd5c14610ea5578063d3d6873e14610ec557600080fd5b8063a4bf9a00116101fe578063b84b160d116101b7578063b84b160d14610d70578063b88d4fde14610d90578063b91fdc8c14610db0578063ba3589c814610dc6578063be7ff59a14610df5578063bef1dfb714610e2557600080fd5b8063a4bf9a0014610c7e578063abc8c7af14610cab578063b014b77a14610ccb578063b194b6f114610cf9578063b45d031614610d19578063b66ef6e314610d5057600080fd5b80639eb2660c116102505780639eb2660c14610bd25780639f6e463714610bf2578063a035b1fe14610c12578063a153178014610c28578063a1d6268014610c3e578063a22cb46514610c5e57600080fd5b80638da5cb5b14610b2e578063916c546b14610b4757806391b7f5ed14610b6757806395d89b4114610b875780639c05d68d14610b9c57600080fd5b80633ccfd60b116103c9578063667043491161033b57806375794a3c116102f457806375794a3c14610a6c5780637e2e6c4714610a8257806380d833f114610aa25780638472cbca14610ab85780638aa1e4c814610aee5780638d2a2f1114610b0e57600080fd5b8063667043491461098257806367d2afe2146109d757806370a0823114610a04578063715018a614610a2457806373ad6c2d14610a2c57806375676db814610a4c57600080fd5b806354d1f13d1161038d57806354d1f13d146108ca578063550ab247146108d257806355737f35146108f257806359d591d0146109125780635eabd84a146109425780636352211e1461096257600080fd5b80633ccfd60b1461083357806342842e0e14610848578063438b6300146108685780634f6ccce71461089557806350b03146146108b557600080fd5b80631e8ff18f1161046d5780633044825b116104265780633044825b14610773578063306c73341461079357806332875aa0146107b357806333d3d9bf146107d3578063343b4887146107f35780633ab1a4941461081357600080fd5b80631e8ff18f146106bb57806323b872dd146106eb578063256929621461070b57806326f2052a1461071357806328257532146107335780632f745c591461075357600080fd5b8063095ea7b3116104bf578063095ea7b3146105ec5780630a99a3501461060c5780630c83f9d71461062c57806314fe8ff41461065c5780631581b6001461067c57806318160ddd1461069c57600080fd5b8062179206146104fb57806301ffc9a71461051d57806304003bd01461055257806306fdde0314610592578063081812fc146105b4575b600080fd5b34801561050757600080fd5b5061051b6105163660046143e2565b61115f565b005b34801561052957600080fd5b5061053d610538366004614415565b6111af565b60405190151581526020015b60405180910390f35b34801561055e57600080fd5b5061057261056d366004614432565b6111c0565b604080516001600160a01b03938416815292909116602083015201610549565b34801561059e57600080fd5b506105a76111ef565b604051610549919061449b565b3480156105c057600080fd5b506105d46105cf366004614432565b611281565b6040516001600160a01b039091168152602001610549565b3480156105f857600080fd5b5061051b6106073660046144ae565b6112a8565b34801561061857600080fd5b5061051b6106273660046143e2565b6112f9565b34801561063857600080fd5b5061064c610647366004614432565b611349565b60405161054994939291906144da565b34801561066857600080fd5b506105a7610677366004614432565b61150a565b34801561068857600080fd5b506014546105d4906001600160a01b031681565b3480156106a857600080fd5b506008545b604051908152602001610549565b3480156106c757600080fd5b5061053d6106d63660046143e2565b601d6020526000908152604090205460ff1681565b3480156106f757600080fd5b5061051b610706366004614519565b6115c3565b61051b611602565b34801561071f57600080fd5b5061051b61072e366004614668565b611651565b34801561073f57600080fd5b5061051b61074e366004614702565b611666565b34801561075f57600080fd5b506106ad61076e3660046144ae565b6117a6565b34801561077f57600080fd5b5061051b61078e366004614432565b61183c565b34801561079f57600080fd5b506105a76107ae366004614432565b6118fb565b3480156107bf57600080fd5b506105a76107ce366004614432565b611913565b3480156107df57600080fd5b5061051b6107ee366004614432565b6119ca565b3480156107ff57600080fd5b5061051b61080e36600461474a565b6119d7565b34801561081f57600080fd5b5061051b61082e3660046143e2565b611a96565b34801561083f57600080fd5b5061051b611ac0565b34801561085457600080fd5b5061051b610863366004614519565b611b3f565b34801561087457600080fd5b506108886108833660046143e2565b611b5a565b60405161054991906147b1565b3480156108a157600080fd5b506106ad6108b0366004614432565b611bf1565b3480156108c157600080fd5b5061053d611c84565b61051b611c95565b3480156108de57600080fd5b5061051b6108ed3660046147f5565b611cd1565b3480156108fe57600080fd5b506105d461090d366004614702565b611d27565b34801561091e57600080fd5b5061053d61092d3660046143e2565b601f6020526000908152604090205460ff1681565b34801561094e57600080fd5b5061051b61095d3660046143e2565b611d5f565b34801561096e57600080fd5b506105d461097d366004614432565b611daf565b34801561098e57600080fd5b506109a261099d366004614432565b611e0f565b60405161054994939291906001600160a01b039485168152602081019390935292166040820152901515606082015260800190565b3480156109e357600080fd5b506109f76109f2366004614432565b611ec1565b6040516105499190614878565b348015610a1057600080fd5b506106ad610a1f3660046143e2565b611f2d565b61051b611fb3565b348015610a3857600080fd5b5061051b610a473660046143e2565b611fc7565b348015610a5857600080fd5b50600e546105d4906001600160a01b031681565b348015610a7857600080fd5b506106ad60135481565b348015610a8e57600080fd5b5061051b610a9d3660046143e2565b612017565b348015610aae57600080fd5b506106ad60205481565b348015610ac457600080fd5b506106ad610ad33660046143e2565b6001600160a01b03166000908152601b602052604090205490565b348015610afa57600080fd5b5061053d610b09366004614702565b612067565b348015610b1a57600080fd5b5061051b610b29366004614432565b6120d8565b348015610b3a57600080fd5b50638b78c6d819546105d4565b348015610b5357600080fd5b506105a7610b62366004614432565b6120e5565b348015610b7357600080fd5b5061051b610b82366004614432565b612127565b348015610b9357600080fd5b506105a7612134565b348015610ba857600080fd5b506105d4610bb7366004614432565b601a602052600090815260409020546001600160a01b031681565b348015610bde57600080fd5b5061051b610bed366004614432565b612143565b348015610bfe57600080fd5b50610888610c0d366004614432565b612150565b348015610c1e57600080fd5b506106ad60155481565b348015610c3457600080fd5b506106ad60225481565b348015610c4a57600080fd5b506105a7610c59366004614432565b6121e6565b348015610c6a57600080fd5b5061051b610c7936600461488b565b612211565b348015610c8a57600080fd5b506106ad610c993660046143e2565b601b6020526000908152604090205481565b348015610cb757600080fd5b50600d546105d4906001600160a01b031681565b348015610cd757600080fd5b50610ceb610ce63660046148c0565b61228a565b6040516105499291906149a7565b348015610d0557600080fd5b5061051b610d14366004614432565b612338565b348015610d2557600080fd5b50610d39610d34366004614432565b612345565b6040516105499b9a999897969594939291906149d5565b348015610d5c57600080fd5b506011546105d4906001600160a01b031681565b348015610d7c57600080fd5b5061051b610d8b3660046143e2565b61242f565b348015610d9c57600080fd5b5061051b610dab366004614a40565b61247f565b348015610dbc57600080fd5b506106ad60165481565b348015610dd257600080fd5b50610de6610de13660046148c0565b6124b1565b60405161054993929190614aab565b348015610e0157600080fd5b5061053d610e103660046143e2565b601e6020526000908152604090205460ff1681565b348015610e3157600080fd5b5061051b610e40366004614aee565b612602565b348015610e5157600080fd5b5061051b610e60366004614b5c565b6126ad565b348015610e7157600080fd5b50600c546105d4906001600160a01b031681565b348015610e9157600080fd5b506105a7610ea0366004614432565b61299c565b348015610eb157600080fd5b5061051b610ec0366004614be2565b6129dd565b348015610ed157600080fd5b50610ee5610ee0366004614432565b612a7c565b6040516105499190614c12565b348015610efe57600080fd5b506106ad612c07565b348015610f1357600080fd5b5061051b610f22366004614432565b612c3c565b348015610f3357600080fd5b5061051b610f42366004614cb2565b612c6a565b348015610f5357600080fd5b506105a7610f62366004614432565b612d0c565b348015610f7357600080fd5b5061051b610f82366004614cf8565b612dba565b348015610f9357600080fd5b506106ad60125481565b348015610fa957600080fd5b5061053d610fb8366004614d1b565b6001600160a01b03918216600090815260056020908152604080832093909416825291909152205460ff1690565b348015610ff257600080fd5b506106ad7f000000000000000000000000000000000000000000000000000000000000000081565b61051b6110283660046143e2565b612e82565b34801561103957600080fd5b5061051b611048366004614d49565b612ebf565b61051b61105b3660046143e2565b612f32565b34801561106c57600080fd5b506105a761107b366004614432565b612f59565b34801561108c57600080fd5b5061051b61109b366004614dce565b612fb8565b3480156110ac57600080fd5b506010546105d4906001600160a01b031681565b3480156110cc57600080fd5b506105d46110db366004614432565b6000908152601a60205260409020546001600160a01b031690565b34801561110257600080fd5b506106ad60215481565b34801561111857600080fd5b50600f546105d4906001600160a01b031681565b34801561113857600080fd5b506106ad6111473660046143e2565b63389a75e1600c908152600091909152602090205490565b611167613029565b61116f611c84565b1561118d5760405163774ae17d60e01b815260040160405180910390fd5b601180546001600160a01b0319166001600160a01b0392909216919091179055565b60006111ba82613044565b92915050565b6000806111cc83611daf565b6000938452601a60205260409093205492936001600160a01b0390931692915050565b6060600080546111fe90614e8e565b80601f016020809104026020016040519081016040528092919081815260200182805461122a90614e8e565b80156112775780601f1061124c57610100808354040283529160200191611277565b820191906000526020600020905b81548152906001019060200180831161125a57829003601f168201915b5050505050905090565b600061128c82613069565b506000908152600460205260409020546001600160a01b031690565b6112b181611daf565b6001600160a01b0316336001600160a01b0316146112e1576040516282b42960e81b815260040160405180910390fd5b6112eb81836130c8565b6112f58282613107565b5050565b611301613029565b611309611c84565b156113275760405163774ae17d60e01b815260040160405180910390fd5b600e80546001600160a01b0319166001600160a01b0392909216919091179055565b600b602052600090815260409020805460018201805491929161136b90614e8e565b80601f016020809104026020016040519081016040528092919081815260200182805461139790614e8e565b80156113e45780601f106113b9576101008083540402835291602001916113e4565b820191906000526020600020905b8154815290600101906020018083116113c757829003601f168201915b5050505050908060020180546113f990614e8e565b80601f016020809104026020016040519081016040528092919081815260200182805461142590614e8e565b80156114725780601f1061144757610100808354040283529160200191611472565b820191906000526020600020905b81548152906001019060200180831161145557829003601f168201915b50505050509080600301805461148790614e8e565b80601f01602080910402602001604051908101604052809291908181526020018280546114b390614e8e565b80156115005780601f106114d557610100808354040283529160200191611500565b820191906000526020600020905b8154815290600101906020018083116114e357829003601f168201915b5050505050905084565b601054600c546060916001600160a01b03908116916327707b149116611545856000908152601a60205260409020546001600160a01b031690565b6012546040516001600160e01b031960e086901b1681526001600160a01b03938416600482015292909116602483015260448201526064015b600060405180830381865afa15801561159b573d6000803e3d6000fd5b505050506040513d6000823e601f3d908101601f191682016040526111ba9190810190614f18565b6115cd3382613175565b6115f25760405162461bcd60e51b81526004016115e990614f4c565b60405180910390fd5b6115fd8383836131f3565b505050565b60006202a3006001600160401b03164201905063389a75e1600c5233600052806020600c2055337fdbf36a107da19e49527a7176a1babf963b4b0ff8cde35ee35d6cd8f1f9ac7e1d600080a250565b611659613029565b6112f560178260026142a6565b8161167081611daf565b6001600160a01b0316336001600160a01b0316146116a157604051631431735b60e21b815260040160405180910390fd5b816000036116c257604051630754c7f360e41b815260040160405180910390fd5b600e546040516341e2a37360e01b815260048101859052602481018490526000916001600160a01b0316906341e2a37390604401602060405180830381865afa158015611713573d6000803e3d6000fd5b505050506040513d601f19601f820116820180604052508101906117379190614f9a565b90506117448482856133a0565b828461174f86611daf565b6001600160a01b03167fc94c1c47471ed97c1d309bab965192a3e4be3807f42d015b699bfbdcf24dd9f684600781111561178b5761178b614fb7565b60405160ff909116815260200160405180910390a450505050565b60006117b183611f2d565b82106118135760405162461bcd60e51b815260206004820152602b60248201527f455243373231456e756d657261626c653a206f776e657220696e646578206f7560448201526a74206f6620626f756e647360a81b60648201526084016115e9565b506001600160a01b03919091166000908152600660209081526040808320938352929052205490565b8061184681611daf565b6001600160a01b0316336001600160a01b03161461187757604051631431735b60e21b815260040160405180910390fd5b60008281526019602052604081206001810182905560028101829055600381018290556004810182905560058101829055600681018290556007810191909155826118c181611daf565b6001600160a01b03167f46078a2cd4c69c3b4a27bdc69fdfe03d442ebcf405f1a68e9b5df6bc3e24429760405160405180910390a3505050565b60608061190a610de184612a7c565b50949350505050565b600c5460609081906001600160a01b031663250818ea61193285612a7c565b6040518263ffffffff1660e01b815260040161194e9190614c12565b600060405180830381865afa15801561196b573d6000803e3d6000fd5b505050506040513d6000823e601f3d908101601f191682016040526119939190810190614fcd565b5091506119a19050836118fb565b816040516020016119b392919061506b565b604051602081830303815290604052915050919050565b6119d2613029565b601255565b836119e181611daf565b6001600160a01b0316336001600160a01b031614611a1257604051631431735b60e21b815260040160405180910390fd5b611a1b846134fe565b60048360ff161115611a40576040516329ba348d60e11b815260040160405180910390fd5b6000858152601960205260409020600901611a5b85826150e2565b505060009384526019602052604090932060088101805460ff90931660ff19938416179055600a018054931515939091169290921790915550565b611a9e613029565b601480546001600160a01b0319166001600160a01b0392909216919091179055565b611ac8613029565b6014546040516000916001600160a01b03169047908381818185875af1925050503d8060008114611b15576040519150601f19603f3d011682016040523d82523d6000602084013e611b1a565b606091505b5050905080611b3c57604051631d42c86760e21b815260040160405180910390fd5b50565b6115fd8383836040518060200160405280600081525061247f565b60606000611b6783611f2d565b90506000816001600160401b03811115611b8357611b8361455a565b604051908082528060200260200182016040528015611bac578160200160208202803683370190505b50905060005b82811015611be957611bc485826117a6565b828281518110611bd657611bd66151a1565b6020908102919091010152600101611bb2565b509392505050565b6000611bfc60085490565b8210611c5f5760405162461bcd60e51b815260206004820152602c60248201527f455243373231456e756d657261626c653a20676c6f62616c20696e646578206f60448201526b7574206f6620626f756e647360a01b60648201526084016115e9565b60088281548110611c7257611c726151a1565b90600052602060002001549050919050565b6000611c8e612c07565b4211905090565b63389a75e1600c523360005260006020600c2055337ffa7b8eab7da67f412cc9575ed43464468f9bfbae89d1675917346ca6d8fe3c92600080a2565b6000611cdc84611daf565b90506001600160a01b0381163314611d06576040516282b42960e81b815260040160405180910390fd5b8115611d1657611d1684846130c8565b611d2181848461366f565b50505050565b601c6020528160005260406000208181548110611d4357600080fd5b6000918252602090912001546001600160a01b03169150829050565b611d67613029565b611d6f611c84565b15611d8d5760405163774ae17d60e01b815260040160405180910390fd5b600c80546001600160a01b0319166001600160a01b0392909216919091179055565b6000818152600260205260408120546001600160a01b0316806111ba5760405162461bcd60e51b8152602060048201526018602482015277115490cdcc8c4e881a5b9d985b1a59081d1bdad95b88125160421b60448201526064016115e9565b600c546040516331a9108f60e11b8152600481018390526000918291829182916001600160a01b0390911690636352211e90602401602060405180830381865afa158015611e61573d6000803e3d6000fd5b505050506040513d601f19601f82011682018060405250810190611e8591906151b7565b6001600160a01b0381166000908152601b60205260409020549094509250611eac83611daf565b9150611eb88386612067565b90509193509193565b6000818152601c6020908152604091829020805483518184028101840190945280845260609392830182828015611f2157602002820191906000526020600020905b81546001600160a01b03168152600190910190602001808311611f03575b50505050509050919050565b60006001600160a01b038216611f975760405162461bcd60e51b815260206004820152602960248201527f4552433732313a2061646472657373207a65726f206973206e6f7420612076616044820152683634b21037bbb732b960b91b60648201526084016115e9565b506001600160a01b031660009081526003602052604090205490565b611fbb613029565b611fc56000613735565b565b611fcf613029565b611fd7611c84565b15611ff55760405163774ae17d60e01b815260040160405180910390fd5b600d80546001600160a01b0319166001600160a01b0392909216919091179055565b61201f613029565b612027611c84565b156120455760405163774ae17d60e01b815260040160405180910390fd5b601080546001600160a01b0319166001600160a01b0392909216919091179055565b60008061207384612a7c565b9050828160200151148061208a5750828160400151145b806120985750828160600151145b806120a65750828160800151145b806120b45750828160a00151145b806120c25750828160c00151145b806120d05750828160e00151145b949350505050565b6120e0613029565b602055565b6010546000828152600b602052604090819020905163da11a05360e01b81526060926001600160a01b03169163da11a0539161157e9160020190600401615251565b61212f613029565b601555565b6060600180546111fe90614e8e565b61214b613029565b602155565b6000818152601a6020526040812054606091906001600160a01b0316600c5460405162438b6360e81b81526001600160a01b03808416600483015292935091169063438b630090602401600060405180830381865afa1580156121b7573d6000803e3d6000fd5b505050506040513d6000823e601f3d908101601f191682016040526121df9190810190615264565b9392505050565b60606121f182612a7c565b61014001516122085761220382612f59565b6111ba565b6111ba82612d0c565b801561227f57600061222233611b5a565b90508051600003612245576040516282b42960e81b815260040160405180910390fd5b60005b815181101561227c57612274828281518110612266576122666151a1565b6020026020010151856130c8565b600101612248565b50505b6112f533838361366f565b60608061229e83610100015160ff166120e5565b60105461010085015160ff166000908152600b6020526040908190209051630d88d4ff60e01b81526001600160a01b0390921691630d88d4ff916122ea91600190910190600401615309565b600060405180830381865afa158015612307573d6000803e3d6000fd5b505050506040513d6000823e601f3d908101601f1916820160405261232f9190810190614f18565b91509150915091565b612340613029565b602255565b601960205260009081526040902080546001820154600283015460038401546004850154600586015460068701546007880154600889015460098a018054999a989997989697959694959394929360ff90921692916123a390614e8e565b80601f01602080910402602001604051908101604052809291908181526020018280546123cf90614e8e565b801561241c5780601f106123f15761010080835404028352916020019161241c565b820191906000526020600020905b8154815290600101906020018083116123ff57829003601f168201915b505050600a909301549192505060ff168b565b612437613029565b61243f611c84565b1561245d5760405163774ae17d60e01b815260040160405180910390fd5b600f80546001600160a01b0319166001600160a01b0392909216919091179055565b6124893383613175565b6124a55760405162461bcd60e51b81526004016115e990614f4c565b611d2184848484613773565b60608060606124c784610100015160ff166120e5565b6101008501805160ff9081166000908152600b602052604080822060105494519093168252908190209051630d88d4ff60e01b81526003909201926001600160a01b031691630d88d4ff9161252491600190910190600401615309565b600060405180830381865afa158015612541573d6000803e3d6000fd5b505050506040513d6000823e601f3d908101601f191682016040526125699190810190614f18565b81805461257590614e8e565b80601f01602080910402602001604051908101604052809291908181526020018280546125a190614e8e565b80156125ee5780601f106125c3576101008083540402835291602001916125ee565b820191906000526020600020905b8154815290600101906020018083116125d157829003601f168201915b505050505091509250925092509193909250565b8161260c81611daf565b6001600160a01b0316336001600160a01b03161461263d57604051631431735b60e21b815260040160405180910390fd5b6000838152601960205260409020600a01805460ff19168315151790558261266481611daf565b6001600160a01b03167f6dd9e2813f787f711671bf91b2e57a72b9b61bc279b934201f3fd29b3b5f8cbe846040516126a0911515815260200190565b60405180910390a3505050565b846126b781611daf565b6001600160a01b0316336001600160a01b0316146126e857604051631431735b60e21b815260040160405180910390fd5b83821461270857604051632cf6bbe560e01b815260040160405180910390fd5b60008681526019602052604081209061272088611daf565b6000898152601a60205260408120549192506001600160a01b03909116905b8781101561295a57600089898381811061275b5761275b6151a1565b9050602002013590506000888884818110612778576127786151a1565b905060200201602081019061278d919061533c565b9050816000036127b057604051630754c7f360e41b815260040160405180910390fd5b60ff811615806127c3575060078160ff16115b156127e157604051631d0602b560e31b815260040160405180910390fd5b60008160ff1660078111156127f8576127f8614fb7565b600e546040516395d004cb60e01b81529192506001600160a01b0316906395d004cb9061282d90889087908690600401615357565b60006040518083038186803b15801561284557600080fd5b505afa158015612859573d6000803e3d6000fd5b5060019250612866915050565b60ff168260ff160361287e576001870183905561290a565b60011960ff831601612896576002870183905561290a565b60021960ff8316016128ae576003870183905561290a565b60031960ff8316016128c6576004870183905561290a565b60041960ff8316016128de576005870183905561290a565b60051960ff8316016128f6576006870183905561290a565b60061960ff83160161290a57600787018390555b60405160ff8316815283908e906001600160a01b038916907fc94c1c47471ed97c1d309bab965192a3e4be3807f42d015b699bfbdcf24dd9f69060200160405180910390a450505060010161273f565b5060405189906001600160a01b038416907f56680590212b09eb4b72a2eba8801b037ec046dfc754538e924f5bb6a8c4db6c90600090a3505050505050505050565b6000818152600260205260409020546060906001600160a01b03166129d457604051636461f73160e01b815260040160405180910390fd5b6111ba826121e6565b816129e781611daf565b6001600160a01b0316336001600160a01b031614612a1857604051631431735b60e21b815260040160405180910390fd5b612a24838360006133a0565b82612a2e84611daf565b6001600160a01b03167f3d8ac56c725fc7985e9444622a45baee28ba67d8a964045f747b465121f40e71846007811115612a6a57612a6a614fb7565b60405160ff90911681526020016126a0565b612ade6040518061016001604052806000815260200160008152602001600081526020016000815260200160008152602001600081526020016000815260200160008152602001600060ff168152602001606081526020016000151581525090565b600082815260196020908152604091829020825161016081018452815481526001820154928101929092526002810154928201929092526003820154606082015260048201546080820152600582015460a0820152600682015460c0820152600782015460e0820152600882015460ff1661010082015260098201805491929161012084019190612b6e90614e8e565b80601f0160208091040260200160405190810160405280929190818152602001828054612b9a90614e8e565b8015612be75780601f10612bbc57610100808354040283529160200191612be7565b820191906000526020600020905b815481529060010190602001808311612bca57829003601f168201915b5050509183525050600a919091015460ff16151560209091015292915050565b6000612c377f00000000000000000000000000000000000000000000000000000000000000006301e133806153b0565b905090565b612c44613029565b60165415612c655760405163703e78e960e11b815260040160405180910390fd5b601655565b81612c7481611daf565b6001600160a01b0316336001600160a01b031614612ca557604051631431735b60e21b815260040160405180910390fd5b612cae826134fe565b6000838152601960205260409020600901612cc983826150e2565b5082612cd484611daf565b6001600160a01b03167f2e34f8c0f6052b66319b4a5df14eac164c6af8a0b37f612d4304a777e1ae7a3d846040516126a0919061449b565b60606000806000806000612d1f876137a6565b6011546040516323e2ba9960e11b8152989d50959b509299509750909550506001600160a01b03909116926347c575329250612d6a91508a908990899089908990899060040161544e565b600060405180830381865afa158015612d87573d6000803e3d6000fd5b505050506040513d6000823e601f3d908101601f19168201604052612daf9190810190614f18565b979650505050505050565b81612dc481611daf565b6001600160a01b0316336001600160a01b031614612df557604051631431735b60e21b815260040160405180910390fd5b60048260ff161115612e1a576040516329ba348d60e11b815260040160405180910390fd5b6000838152601960205260409020600801805460ff191660ff841617905582612e4281611daf565b60405160ff851681526001600160a01b0391909116907f454db5768a3f8187a5dd5e9cca100cf699d74d8a03f793d16da3932cdf34d358906020016126a0565b612e8a613029565b63389a75e1600c52806000526020600c208054421115612eb257636f5e88186000526004601cfd5b60009055611b3c81613735565b612ec7613029565b612ecf611c84565b15612eed5760405163774ae17d60e01b815260040160405180910390fd5b6000848152600b6020526040902084815560018101612f0c85826150e2565b5060028101612f1b84826150e2565b5060038101612f2a83826150e2565b505050505050565b612f3a613029565b8060601b612f5057637448fbae6000526004601cfd5b611b3c81613735565b60606000806000806000612f6c876137a6565b601054604051631589d6a760e21b8152989d50959b50929950909750909550506001600160a01b03909116926356275a9c9250612d6a91508a908990899089908990899060040161544e565b87612fc281611daf565b6001600160a01b0316336001600160a01b031614612ff357604051631431735b60e21b815260040160405180910390fd5b61300089898989896126ad565b61300a8985612dba565b6130148984612c6a565b61301e8983612602565b505050505050505050565b638b78c6d819543314611fc5576382b429006000526004601cfd5b60006001600160e01b0319821663780e9d6360e01b14806111ba57506111ba82613a09565b6000818152600260205260409020546001600160a01b0316611b3c5760405162461bcd60e51b8152602060048201526018602482015277115490cdcc8c4e881a5b9d985b1a59081d1bdad95b88125160421b60448201526064016115e9565b6000918252601c6020908152604083208054600181018255908452922090910180546001600160a01b0319166001600160a01b03909216919091179055565b600081815260046020526040902080546001600160a01b0319166001600160a01b038416908117909155819061313c82611daf565b6001600160a01b03167f8c5be1e5ebec7d5bd14f71427d1e84f3dd0314c0f7b2291e5b200ac8c7c3b92560405160405180910390a45050565b60008061318183611daf565b9050806001600160a01b0316846001600160a01b031614806131c857506001600160a01b0380821660009081526005602090815260408083209388168352929052205460ff165b806120d05750836001600160a01b03166131e184611281565b6001600160a01b031614949350505050565b826001600160a01b031661320682611daf565b6001600160a01b03161461326a5760405162461bcd60e51b815260206004820152602560248201527f4552433732313a207472616e736665722066726f6d20696e636f72726563742060448201526437bbb732b960d91b60648201526084016115e9565b6001600160a01b0382166132cc5760405162461bcd60e51b8152602060048201526024808201527f4552433732313a207472616e7366657220746f20746865207a65726f206164646044820152637265737360e01b60648201526084016115e9565b6132d7838383613a59565b6132e2600082613107565b6001600160a01b038316600090815260036020526040812080546001929061330b9084906154c2565b90915550506001600160a01b03821660009081526003602052604081208054600192906133399084906153b0565b909155505060008181526002602052604080822080546001600160a01b0319166001600160a01b0386811691821790925591518493918716917fddf252ad1be2c89b69c2b068fc378daa952ba7f163c4a11628f55a4df523b3ef91a46115fd838383613e6a565b60018260078111156133b4576133b4614fb7565b036133d2576000838152601960205260409020600101819055505050565b60028260078111156133e6576133e6614fb7565b03613404576000838152601960205260409020600201819055505050565b600382600781111561341857613418614fb7565b03613436576000838152601960205260409020600301819055505050565b600482600781111561344a5761344a614fb7565b03613468576000838152601960205260409020600401819055505050565b600582600781111561347c5761347c614fb7565b0361349a576000838152601960205260409020600501819055505050565b60068260078111156134ae576134ae614fb7565b036134cc576000838152601960205260409020600601819055505050565b60078260078111156134e0576134e0614fb7565b036115fd576000838152601960205260409020600701819055505050565b8051819060061461352257604051631cf7e9c560e01b815260040160405180910390fd5b60005b60068110156115fd57603060f81b828281518110613545576135456151a1565b01602001516001600160f81b031916108015906135865750603960f81b828281518110613574576135746151a1565b01602001516001600160f81b03191611155b1580156135e85750604160f81b8282815181106135a5576135a56151a1565b01602001516001600160f81b031916108015906135e65750604660f81b8282815181106135d4576135d46151a1565b01602001516001600160f81b03191611155b155b80156136495750606160f81b828281518110613606576136066151a1565b01602001516001600160f81b031916108015906136475750606660f81b828281518110613635576136356151a1565b01602001516001600160f81b03191611155b155b1561366757604051631cf7e9c560e01b815260040160405180910390fd5b600101613525565b816001600160a01b0316836001600160a01b0316036136d05760405162461bcd60e51b815260206004820152601960248201527f4552433732313a20617070726f766520746f2063616c6c65720000000000000060448201526064016115e9565b6001600160a01b03838116600081815260056020908152604080832094871680845294825291829020805460ff191686151590811790915591519182527f17307eab39ab6107e8899845ad3d59bd9653f200f220920489ca2b5937696c3191016126a0565b638b78c6d81980546001600160a01b039092169182907f8be0079c531659141344cd1fd0a4f28419497f9722a3daafe3b4186f6b6457e0600080a355565b61377e8484846131f3565b61378a84848484613e74565b611d215760405162461bcd60e51b81526004016115e9906154d5565b60608060608060608060606137b96142ef565b60006137c48a612a7c565b90506137cf816124b1565b50600c546040516312840c7560e11b8152929b509099506001600160a01b03169063250818ea90613804908490600401614c12565b600060405180830381865afa158015613821573d6000803e3d6000fd5b505050506040513d6000823e601f3d908101601f191682016040526138499190810190614fcd565b919850965094506138598a61150a565b6101208201518352935061386c8a612150565b5160408084019190915261010082015160ff166000908152600b60205220600101805461389890614e8e565b80601f01602080910402602001604051908101604052809291908181526020018280546138c490614e8e565b80156139115780601f106138e657610100808354040283529160200191613911565b820191906000526020600020905b8154815290600101906020018083116138f457829003601f168201915b5050505050602083015260408051808201909152601760026000835b828210156139d057838201805461394390614e8e565b80601f016020809104026020016040519081016040528092919081815260200182805461396f90614e8e565b80156139bc5780601f10613991576101008083540402835291602001916139bc565b820191906000526020600020905b81548152906001019060200180831161399f57829003601f168201915b50505050508152602001906001019061392d565b5050505060608301526040516139ec908990889060200161506b565b604051602081830303815290604052925050919395975091939597565b60006001600160e01b031982166380ac58cd60e01b1480613a3a57506001600160e01b03198216635b5e139f60e01b145b806111ba57506301ffc9a760e01b6001600160e01b03198316146111ba565b6001600160a01b038316613a72576115fd838383613f75565b601654613a8290620151806153b0565b421015613aa25760405163ae735dad60e01b815260040160405180910390fd5b6001600160a01b0382166000908152601b602052604090205415613ad957604051639a42da2960e01b815260040160405180910390fd5b6000818152601a60205260408120546001600160a01b031690613afb84611b5a565b9050600081516001600160401b03811115613b1857613b1861455a565b604051908082528060200260200182016040528015613b41578160200160208202803683370190505b50905060005b8251811015613bc257601a6000848381518110613b6657613b666151a1565b6020026020010151815260200190815260200160002060009054906101000a90046001600160a01b0316828281518110613ba257613ba26151a1565b6001600160a01b0390921660209283029190910190910152600101613b47565b50600d5460405163644ec52760e01b8152600481018690526001600160a01b039091169063644ec52790602401600060405180830381600087803b158015613c0957600080fd5b505af1158015613c1d573d6000803e3d6000fd5b5050600d54604051631e92beb560e31b8152600481018890526001600160a01b038981166024830152909116925063f495f5a89150604401600060405180830381600087803b158015613c6f57600080fd5b505af1158015613c83573d6000803e3d6000fd5b5050600c5460405162438b6360e81b81526001600160a01b03878116600483015260009450909116915063438b630090602401600060405180830381865afa158015613cd3573d6000803e3d6000fd5b505050506040513d6000823e601f3d908101601f19168201604052613cfb9190810190615264565b905060005b8151811015613e55576000828281518110613d1d57613d1d6151a1565b6020908102919091010151600d54604051632e1d274f60e01b8152600481018390529192506001600160a01b031690632e1d274f90602401600060405180830381600087803b158015613d6f57600080fd5b505af1158015613d83573d6000803e3d6000fd5b5050600d54604051632333520b60e11b81526001600160a01b039091169250634666a4169150613db99084908890600401615527565b600060405180830381600087803b158015613dd357600080fd5b505af1158015613de7573d6000803e3d6000fd5b5050600c5460405163487b1c2160e11b8152600481018590526001600160a01b0390911692506390f638429150602401600060405180830381600087803b158015613e3157600080fd5b505af1158015613e45573d6000803e3d6000fd5b5050505050806001019050613d00565b50613e61878787613f75565b50505050505050565b6115fd818461402d565b60006001600160a01b0384163b15613f6a57604051630a85bd0160e11b81526001600160a01b0385169063150b7a0290613eb8903390899088908890600401615540565b6020604051808303816000875af1925050508015613ef3575060408051601f3d908101601f19168201909252613ef091810190615573565b60015b613f50573d808015613f21576040519150601f19603f3d011682016040523d82523d6000602084013e613f26565b606091505b508051600003613f485760405162461bcd60e51b81526004016115e9906154d5565b805181602001fd5b6001600160e01b031916630a85bd0160e11b1490506120d0565b506001949350505050565b6001600160a01b038316613fd057613fcb81600880546000838152600960205260408120829055600182018355919091527ff3f7a9fe364faab93b216da50a3214154f22a0a2b415b23a84c8169e8b636ee30155565b613ff3565b816001600160a01b0316836001600160a01b031614613ff357613ff38382614116565b6001600160a01b03821661400a576115fd816141b3565b826001600160a01b0316826001600160a01b0316146115fd576115fd8282614262565b6000828152601c602090815260408083208054825181850281018501909352808352919290919083018282801561408d57602002820191906000526020600020905b81546001600160a01b0316815260019091019060200180831161406f575b5050506000868152601a60205260408120549394506001600160a01b03909316929150505b82518110156140fe576140e0848483815181106140d1576140d16151a1565b6020026020010151600061366f565b6140f6828483815181106140d1576140d16151a1565b6001016140b2565b506000848152601c60205260408120611d219161431c565b6000600161412384611f2d565b61412d91906154c2565b600083815260076020526040902054909150808214614180576001600160a01b03841660009081526006602090815260408083208584528252808320548484528184208190558352600790915290208190555b5060009182526007602090815260408084208490556001600160a01b039094168352600681528383209183525290812055565b6008546000906141c5906001906154c2565b600083815260096020526040812054600880549394509092849081106141ed576141ed6151a1565b90600052602060002001549050806008838154811061420e5761420e6151a1565b600091825260208083209091019290925582815260099091526040808220849055858252812055600880548061424657614246615590565b6001900381819060005260206000200160009055905550505050565b600061426d83611f2d565b6001600160a01b039093166000908152600660209081526040808320868452825280832085905593825260079052919091209190915550565b82600281019282156142df579160200282015b828111156142df57825182906142cf90826150e2565b50916020019190600101906142b9565b506142eb92915061433a565b5090565b6040518060800160405280606081526020016060815260200160008152602001614317614357565b905290565b5080546000825590600052602060002090810190611b3c919061437e565b808211156142eb57600061434e8282614393565b5060010161433a565b60405180604001604052806002905b60608152602001906001900390816143665790505090565b5b808211156142eb576000815560010161437f565b50805461439f90614e8e565b6000825580601f106143af575050565b601f016020900490600052602060002090810190611b3c919061437e565b6001600160a01b0381168114611b3c57600080fd5b6000602082840312156143f457600080fd5b81356121df816143cd565b6001600160e01b031981168114611b3c57600080fd5b60006020828403121561442757600080fd5b81356121df816143ff565b60006020828403121561444457600080fd5b5035919050565b60005b8381101561446657818101518382015260200161444e565b50506000910152565b6000815180845261448781602086016020860161444b565b601f01601f19169290920160200192915050565b6020815260006121df602083018461446f565b600080604083850312156144c157600080fd5b82356144cc816143cd565b946020939093013593505050565b8481526080602082015260006144f3608083018661446f565b8281036040840152614505818661446f565b90508281036060840152612daf818561446f565b60008060006060848603121561452e57600080fd5b8335614539816143cd565b92506020840135614549816143cd565b929592945050506040919091013590565b634e487b7160e01b600052604160045260246000fd5b604080519081016001600160401b03811182821017156145925761459261455a565b60405290565b60405161016081016001600160401b03811182821017156145925761459261455a565b604051601f8201601f191681016001600160401b03811182821017156145e3576145e361455a565b604052919050565b60006001600160401b038211156146045761460461455a565b50601f01601f191660200190565b600082601f83011261462357600080fd5b8135614636614631826145eb565b6145bb565b81815284602083860101111561464b57600080fd5b816020850160208301376000918101602001919091529392505050565b6000602080838503121561467b57600080fd5b82356001600160401b038082111561469257600080fd5b818501915085601f8301126146a657600080fd5b6146ae614570565b8060408401888111156146c057600080fd5b845b818110156146f4578035858111156146da5760008081fd5b6146e68b828901614612565b8552509286019286016146c2565b509098975050505050505050565b6000806040838503121561471557600080fd5b50508035926020909101359150565b803560ff8116811461473557600080fd5b919050565b8035801515811461473557600080fd5b6000806000806080858703121561476057600080fd5b8435935060208501356001600160401b0381111561477d57600080fd5b61478987828801614612565b93505061479860408601614724565b91506147a66060860161473a565b905092959194509250565b6020808252825182820181905260009190848201906040850190845b818110156147e9578351835292840192918401916001016147cd565b50909695505050505050565b60008060006060848603121561480a57600080fd5b83359250602084013561481c816143cd565b915061482a6040850161473a565b90509250925092565b60008151808452602080850194506020840160005b8381101561486d5781516001600160a01b031687529582019590820190600101614848565b509495945050505050565b6020815260006121df6020830184614833565b6000806040838503121561489e57600080fd5b82356148a9816143cd565b91506148b76020840161473a565b90509250929050565b6000602082840312156148d257600080fd5b81356001600160401b03808211156148e957600080fd5b9083019061016082860312156148fe57600080fd5b614906614598565b823581526020830135602082015260408301356040820152606083013560608201526080830135608082015260a083013560a082015260c083013560c082015260e083013560e082015261010061495e818501614724565b90820152610120838101358381111561497657600080fd5b61498288828701614612565b828401525050610140915061499882840161473a565b91810191909152949350505050565b6040815260006149ba604083018561446f565b82810360208401526149cc818561446f565b95945050505050565b60006101608d83528c60208401528b60408401528a60608401528960808401528860a08401528760c08401528660e084015260ff861661010084015280610120840152614a248184018661446f565b9150508215156101408301529c9b505050505050505050505050565b60008060008060808587031215614a5657600080fd5b8435614a61816143cd565b93506020850135614a71816143cd565b92506040850135915060608501356001600160401b03811115614a9357600080fd5b614a9f87828801614612565b91505092959194509250565b606081526000614abe606083018661446f565b8281036020840152614ad0818661446f565b90508281036040840152614ae4818561446f565b9695505050505050565b60008060408385031215614b0157600080fd5b823591506148b76020840161473a565b60008083601f840112614b2357600080fd5b5081356001600160401b03811115614b3a57600080fd5b6020830191508360208260051b8501011115614b5557600080fd5b9250929050565b600080600080600060608688031215614b7457600080fd5b8535945060208601356001600160401b0380821115614b9257600080fd5b614b9e89838a01614b11565b90965094506040880135915080821115614bb757600080fd5b50614bc488828901614b11565b969995985093965092949392505050565b60088110611b3c57600080fd5b60008060408385031215614bf557600080fd5b823591506020830135614c0781614bd5565b809150509250929050565b6020815281516020820152602082015160408201526040820151606082015260608201516080820152608082015160a082015260a082015160c082015260c082015160e0820152600060e0830151610100818185015280850151915050610120614c808185018360ff169052565b808501519150506101606101408181860152614ca061018086018461446f565b95015115159301929092525090919050565b60008060408385031215614cc557600080fd5b8235915060208301356001600160401b03811115614ce257600080fd5b614cee85828601614612565b9150509250929050565b60008060408385031215614d0b57600080fd5b823591506148b760208401614724565b60008060408385031215614d2e57600080fd5b8235614d39816143cd565b91506020830135614c07816143cd565b60008060008060808587031215614d5f57600080fd5b8435935060208501356001600160401b0380821115614d7d57600080fd5b614d8988838901614612565b94506040870135915080821115614d9f57600080fd5b614dab88838901614612565b93506060870135915080821115614dc157600080fd5b50614a9f87828801614612565b60008060008060008060008060c0898b031215614dea57600080fd5b8835975060208901356001600160401b0380821115614e0857600080fd5b614e148c838d01614b11565b909950975060408b0135915080821115614e2d57600080fd5b614e398c838d01614b11565b9097509550859150614e4d60608c01614724565b945060808b0135915080821115614e6357600080fd5b50614e708b828c01614612565b925050614e7f60a08a0161473a565b90509295985092959890939650565b600181811c90821680614ea257607f821691505b602082108103614ec257634e487b7160e01b600052602260045260246000fd5b50919050565b6000614ed6614631846145eb565b9050828152838383011115614eea57600080fd5b6121df83602083018461444b565b600082601f830112614f0957600080fd5b6121df83835160208501614ec8565b600060208284031215614f2a57600080fd5b81516001600160401b03811115614f4057600080fd5b6120d084828501614ef8565b6020808252602e908201527f4552433732313a2063616c6c6572206973206e6f7420746f6b656e206f776e6560408201526d1c881b9bdc88185c1c1c9bdd995960921b606082015260800190565b600060208284031215614fac57600080fd5b81516121df81614bd5565b634e487b7160e01b600052602160045260246000fd5b600080600060608486031215614fe257600080fd5b83516001600160401b0380821115614ff957600080fd5b61500587838801614ef8565b9450602086015191508082111561501b57600080fd5b818601915086601f83011261502f57600080fd5b61503e87835160208501614ec8565b9350604086015191508082111561505457600080fd5b5061506186828701614ef8565b9150509250925092565b6000835161507d81846020880161444b565b83519083019061509181836020880161444b565b01949350505050565b601f8211156115fd576000816000526020600020601f850160051c810160208610156150c35750805b601f850160051c820191505b81811015612f2a578281556001016150cf565b81516001600160401b038111156150fb576150fb61455a565b61510f816151098454614e8e565b8461509a565b602080601f831160018114615144576000841561512c5750858301515b600019600386901b1c1916600185901b178555612f2a565b600085815260208120601f198616915b8281101561517357888601518255948401946001909101908401615154565b50858210156151915787850151600019600388901b60f8161c191681555b5050505050600190811b01905550565b634e487b7160e01b600052603260045260246000fd5b6000602082840312156151c957600080fd5b81516121df816143cd565b600081546151e181614e8e565b8085526020600183811680156151fe576001811461521857615246565b60ff1985168884015283151560051b880183019550615246565b866000528260002060005b8581101561523e5781548a8201860152908301908401615223565b890184019650505b505050505092915050565b6020815260006121df60208301846151d4565b6000602080838503121561527757600080fd5b82516001600160401b038082111561528e57600080fd5b818501915085601f8301126152a257600080fd5b8151818111156152b4576152b461455a565b8060051b91506152c58483016145bb565b81815291830184019184810190888411156152df57600080fd5b938501935b838510156152fd578451825293850193908501906152e4565b98975050505050505050565b604081526009604082015268426f6479205479706560b81b60608201526080602082015260006121df60808301846151d4565b60006020828403121561534e57600080fd5b6121df82614724565b6001600160a01b038416815260208101839052606081016008831061538c57634e487b7160e01b600052602160045260246000fd5b826040830152949350505050565b634e487b7160e01b600052601160045260246000fd5b808201808211156111ba576111ba61539a565b60008151608084526153d8608085018261446f565b905060208084015185830360208701526153f2838261446f565b9250506040840151604086015260608401518583036060870152828390506040840160005b600281101561544257858203835261543082855161446f565b93850193928501929150600101615417565b50979650505050505050565b86815260c06020820152600061546760c083018861446f565b8281036040840152615479818861446f565b9050828103606084015261548d818761446f565b905082810360808401526154a1818661446f565b905082810360a08401526154b581856153c3565b9998505050505050505050565b818103818111156111ba576111ba61539a565b60208082526032908201527f4552433732313a207472616e7366657220746f206e6f6e20455243373231526560408201527131b2b4bb32b91034b6b83632b6b2b73a32b960711b606082015260800190565b8281526040602082015260006120d06040830184614833565b6001600160a01b0385811682528416602082015260408101839052608060608201819052600090614ae49083018461446f565b60006020828403121561558557600080fd5b81516121df816143ff565b634e487b7160e01b600052603160045260246000fdfea26469706673582212202454323831de994b47db7db3f39813e2df84d3dbdc02e64054a4f5db06ae92e164736f6c63430008160033","linkReferences":{}},"methodIdentifiers":{"addNewBody(uint256,string,bytes,bytes)":"f2361e23","approve(address,uint256)":"095ea7b3","balanceOf(address)":"70a08231","bodyIndexToMetadata(uint256)":"0c83f9d7","cancelOwnershipHandover()":"54d1f13d","checkIfTraitIsEquipped(uint256,uint256)":"8aa1e4c8","chonkEquipHelper()":"75676db8","chonkIdToApprovedOperators(uint256,uint256)":"55737f35","chonkMakeover(uint256,uint256[],uint8[],uint8,string,bool)":"f40bdd25","chonkTokens(uint256)":"b45d0316","collectionsAddressDidUse(address)":"1e8ff18f","collectionsMerkle()":"80d833f1","completeOwnershipHandover(address)":"f04e283e","creatorsAddressDidUse(address)":"59d591d0","creatorsMerkle()":"a1531780","deploymentTime()":"ecda10f5","equip(uint256,uint256)":"28257532","equipMany(uint256,uint256[],uint8[])":"bf7f80a6","firstReleaseDataMinter()":"fd8b66de","friendsAddressDidUse(address)":"be7ff59a","friendsMerkle()":"fc863e64","getApproved(uint256)":"081812fc","getBackpackSVGs(uint256)":"14fe8ff4","getBodyImageSvg(uint256)":"916c546b","getBodySVGZmapsAndMetadata((uint256,uint256,uint256,uint256,uint256,uint256,uint256,uint256,uint8,string,bool))":"ba3589c8","getBodySvgAndMetadata((uint256,uint256,uint256,uint256,uint256,uint256,uint256,uint256,uint8,string,bool))":"b014b77a","getBodyZMap(uint256)":"306c7334","getChonk(uint256)":"d3d6873e","getChonkIdForTBAAddress(address)":"8472cbca","getChonkIdToApprovedOperators(uint256)":"67d2afe2","getChonkZMap(uint256)":"32875aa0","getFullPictureForTrait(uint256)":"66704349","getOwnerAndTBAAddressForChonkId(uint256)":"04003bd0","getTBAAddressForChonkId(uint256)":"f6a0c932","getTraitsForChonkId(uint256)":"9f6e4637","initialMintStartTime()":"b91fdc8c","isApprovedForAll(address,address)":"e985e9c5","isTimelocked()":"50b03146","mainRenderer2D()":"f4bec0b6","mainRenderer3D()":"b66ef6e3","marketplace()":"abc8c7af","maxTraitsToOutput()":"e3d21555","name()":"06fdde03","nextTokenId()":"75794a3c","oneYearFromDeployment()":"d59752eb","owner()":"8da5cb5b","ownerOf(uint256)":"6352211e","ownershipHandoverExpiresAt(address)":"fee81cf4","price()":"a035b1fe","renderAsDataUri(uint256)":"a1d62680","renderAsDataUri2D(uint256)":"f3f8efb9","renderAsDataUri3D(uint256)":"dceef0ec","renounceOwnership()":"715018a6","requestOwnershipHandover()":"25692962","safeTransferFrom(address,address,uint256)":"42842e0e","safeTransferFrom(address,address,uint256,bytes)":"b88d4fde","setApprovalForAll(address,bool)":"a22cb465","setApprovalForAllChonksMarketplace(uint256,address,bool)":"550ab247","setBackgroundColor(uint256,string)":"d68c4f32","setBodyIndex(uint256,uint8)":"e1405540","setChonkAttributes(uint256,string,uint8,bool)":"343b4887","setChonkEquipHelper(address)":"0a99a350","setCollectionsMerkle(bytes32)":"8d2a2f11","setCreatorsMerkle(bytes32)":"b194b6f1","setDescriptionParts(string[2])":"26f2052a","setFirstReleaseDataMinter(address)":"b84b160d","setFriendsMerkleRoot(bytes32)":"9eb2660c","setMainRenderer2D(address)":"7e2e6c47","setMainRenderer3D(address)":"00179206","setMarketplace(address)":"73ad6c2d","setMaxTraitsToOutput(uint256)":"33d3d9bf","setMintStartTime(uint256)":"d5b3621b","setPrice(uint256)":"91b7f5ed","setTokenRender3D(uint256,bool)":"bef1dfb7","setTraitsContract(address)":"5eabd84a","setWithdrawAddress(address)":"3ab1a494","supportsInterface(bytes4)":"01ffc9a7","symbol()":"95d89b41","tbaAddressToTokenId(address)":"a4bf9a00","tokenByIndex(uint256)":"4f6ccce7","tokenIdToTBAAccountAddress(uint256)":"9c05d68d","tokenOfOwnerByIndex(address,uint256)":"2f745c59","tokenURI(uint256)":"c87b56dd","totalSupply()":"18160ddd","traitsContract()":"c093afdb","transferFrom(address,address,uint256)":"23b872dd","transferOwnership(address)":"f2fde38b","unequip(uint256,uint8)":"cdb6dd5c","unequipAll(uint256)":"3044825b","walletOfOwner(address)":"438b6300","withdraw()":"3ccfd60b","withdrawAddress()":"1581b600"},"id":43}