{"abi":[{"type":"constructor","inputs":[],"stateMutability":"nonpayable"},{"type":"function","name":"_debugPostConstructorMint","inputs":[],"outputs":[],"stateMutability":"nonpayable"},{"type":"function","name":"_nextTokenId","inputs":[],"outputs":[{"name":"","type":"uint256","internalType":"uint256"}],"stateMutability":"view"},{"type":"function","name":"addNewBody","inputs":[{"name":"_bodyIndex","type":"uint256","internalType":"uint256"},{"name":"_bodyName","type":"string","internalType":"string"},{"name":"_colorMap","type":"bytes","internalType":"bytes"},{"name":"_zMap","type":"bytes","internalType":"bytes"}],"outputs":[],"stateMutability":"nonpayable"},{"type":"function","name":"approve","inputs":[{"name":"_operator","type":"address","internalType":"address"},{"name":"_chonkId","type":"uint256","internalType":"uint256"}],"outputs":[],"stateMutability":"nonpayable"},{"type":"function","name":"balanceOf","inputs":[{"name":"owner","type":"address","internalType":"address"}],"outputs":[{"name":"","type":"uint256","internalType":"uint256"}],"stateMutability":"view"},{"type":"function","name":"bodyIndexToMetadata","inputs":[{"name":"","type":"uint256","internalType":"uint256"}],"outputs":[{"name":"bodyIndex","type":"uint256","internalType":"uint256"},{"name":"bodyName","type":"string","internalType":"string"},{"name":"colorMap","type":"bytes","internalType":"bytes"},{"name":"zMap","type":"bytes","internalType":"bytes"}],"stateMutability":"view"},{"type":"function","name":"cancelOwnershipHandover","inputs":[],"outputs":[],"stateMutability":"payable"},{"type":"function","name":"checkIfTraitIsEquipped","inputs":[{"name":"_chonkId","type":"uint256","internalType":"uint256"},{"name":"_traitId","type":"uint256","internalType":"uint256"}],"outputs":[{"name":"","type":"bool","internalType":"bool"}],"stateMutability":"view"},{"type":"function","name":"chonkIdToApprovedOperators","inputs":[{"name":"chonkId","type":"uint256","internalType":"uint256"},{"name":"","type":"uint256","internalType":"uint256"}],"outputs":[{"name":"operators","type":"address","internalType":"address"}],"stateMutability":"view"},{"type":"function","name":"chonkTokens","inputs":[{"name":"tokenID","type":"uint256","internalType":"uint256"}],"outputs":[{"name":"headId","type":"uint256","internalType":"uint256"},{"name":"hairId","type":"uint256","internalType":"uint256"},{"name":"faceId","type":"uint256","internalType":"uint256"},{"name":"accessoryId","type":"uint256","internalType":"uint256"},{"name":"topId","type":"uint256","internalType":"uint256"},{"name":"bottomId","type":"uint256","internalType":"uint256"},{"name":"shoesId","type":"uint256","internalType":"uint256"},{"name":"epoch","type":"uint32","internalType":"uint32"},{"name":"tokenId","type":"uint256","internalType":"uint256"},{"name":"bodyIndex","type":"uint8","internalType":"uint8"},{"name":"backgroundColor","type":"string","internalType":"string"},{"name":"render3D","type":"bool","internalType":"bool"}],"stateMutability":"view"},{"type":"function","name":"collectionsMerkle","inputs":[],"outputs":[{"name":"","type":"bytes32","internalType":"bytes32"}],"stateMutability":"view"},{"type":"function","name":"completeOwnershipHandover","inputs":[{"name":"pendingOwner","type":"address","internalType":"address"}],"outputs":[],"stateMutability":"payable"},{"type":"function","name":"creatorsMerkle","inputs":[],"outputs":[{"name":"","type":"bytes32","internalType":"bytes32"}],"stateMutability":"view"},{"type":"function","name":"deploymentTime","inputs":[],"outputs":[{"name":"","type":"uint256","internalType":"uint256"}],"stateMutability":"view"},{"type":"function","name":"equip","inputs":[{"name":"_chonkTokenId","type":"uint256","internalType":"uint256"},{"name":"_traitTokenId","type":"uint256","internalType":"uint256"}],"outputs":[],"stateMutability":"nonpayable"},{"type":"function","name":"equipAll","inputs":[{"name":"_chonkTokenId","type":"uint256","internalType":"uint256"},{"name":"_headTokenId","type":"uint256","internalType":"uint256"},{"name":"_hairTokenId","type":"uint256","internalType":"uint256"},{"name":"_faceTokenId","type":"uint256","internalType":"uint256"},{"name":"_accessoryTokenId","type":"uint256","internalType":"uint256"},{"name":"_topTokenId","type":"uint256","internalType":"uint256"},{"name":"_bottomTokenId","type":"uint256","internalType":"uint256"},{"name":"_shoesTokenId","type":"uint256","internalType":"uint256"}],"outputs":[],"stateMutability":"nonpayable"},{"type":"function","name":"firstReleaseDataMinter","inputs":[],"outputs":[{"name":"","type":"address","internalType":"contract FirstReleaseDataMinter"}],"stateMutability":"view"},{"type":"function","name":"friendsMerkle","inputs":[],"outputs":[{"name":"","type":"bytes32","internalType":"bytes32"}],"stateMutability":"view"},{"type":"function","name":"getApproved","inputs":[{"name":"tokenId","type":"uint256","internalType":"uint256"}],"outputs":[{"name":"","type":"address","internalType":"address"}],"stateMutability":"view"},{"type":"function","name":"getBackpackSVGs","inputs":[{"name":"_tokenId","type":"uint256","internalType":"uint256"}],"outputs":[{"name":"","type":"string","internalType":"string"}],"stateMutability":"view"},{"type":"function","name":"getBodyImageSvg","inputs":[{"name":"_index","type":"uint256","internalType":"uint256"}],"outputs":[{"name":"svg","type":"string","internalType":"string"}],"stateMutability":"view"},{"type":"function","name":"getBodySVGZmapsAndMetadata","inputs":[{"name":"storedChonk","type":"tuple","internalType":"struct IChonkStorage.StoredChonk","components":[{"name":"headId","type":"uint256","internalType":"uint256"},{"name":"hairId","type":"uint256","internalType":"uint256"},{"name":"faceId","type":"uint256","internalType":"uint256"},{"name":"accessoryId","type":"uint256","internalType":"uint256"},{"name":"topId","type":"uint256","internalType":"uint256"},{"name":"bottomId","type":"uint256","internalType":"uint256"},{"name":"shoesId","type":"uint256","internalType":"uint256"},{"name":"epoch","type":"uint32","internalType":"uint32"},{"name":"tokenId","type":"uint256","internalType":"uint256"},{"name":"bodyIndex","type":"uint8","internalType":"uint8"},{"name":"backgroundColor","type":"string","internalType":"string"},{"name":"render3D","type":"bool","internalType":"bool"}]}],"outputs":[{"name":"","type":"string","internalType":"string"},{"name":"","type":"bytes","internalType":"bytes"},{"name":"","type":"string","internalType":"string"}],"stateMutability":"view"},{"type":"function","name":"getBodySvgAndMetadata","inputs":[{"name":"storedChonk","type":"tuple","internalType":"struct IChonkStorage.StoredChonk","components":[{"name":"headId","type":"uint256","internalType":"uint256"},{"name":"hairId","type":"uint256","internalType":"uint256"},{"name":"faceId","type":"uint256","internalType":"uint256"},{"name":"accessoryId","type":"uint256","internalType":"uint256"},{"name":"topId","type":"uint256","internalType":"uint256"},{"name":"bottomId","type":"uint256","internalType":"uint256"},{"name":"shoesId","type":"uint256","internalType":"uint256"},{"name":"epoch","type":"uint32","internalType":"uint32"},{"name":"tokenId","type":"uint256","internalType":"uint256"},{"name":"bodyIndex","type":"uint8","internalType":"uint8"},{"name":"backgroundColor","type":"string","internalType":"string"},{"name":"render3D","type":"bool","internalType":"bool"}]}],"outputs":[{"name":"","type":"string","internalType":"string"},{"name":"","type":"string","internalType":"string"}],"stateMutability":"view"},{"type":"function","name":"getBodyZMap","inputs":[{"name":"_tokenId","type":"uint256","internalType":"uint256"}],"outputs":[{"name":"","type":"string","internalType":"string"}],"stateMutability":"view"},{"type":"function","name":"getChonk","inputs":[{"name":"_tokenId","type":"uint256","internalType":"uint256"}],"outputs":[{"name":"","type":"tuple","internalType":"struct IChonkStorage.StoredChonk","components":[{"name":"headId","type":"uint256","internalType":"uint256"},{"name":"hairId","type":"uint256","internalType":"uint256"},{"name":"faceId","type":"uint256","internalType":"uint256"},{"name":"accessoryId","type":"uint256","internalType":"uint256"},{"name":"topId","type":"uint256","internalType":"uint256"},{"name":"bottomId","type":"uint256","internalType":"uint256"},{"name":"shoesId","type":"uint256","internalType":"uint256"},{"name":"epoch","type":"uint32","internalType":"uint32"},{"name":"tokenId","type":"uint256","internalType":"uint256"},{"name":"bodyIndex","type":"uint8","internalType":"uint8"},{"name":"backgroundColor","type":"string","internalType":"string"},{"name":"render3D","type":"bool","internalType":"bool"}]}],"stateMutability":"view"},{"type":"function","name":"getChonkIdForTBAAddress","inputs":[{"name":"_tbaAddress","type":"address","internalType":"address"}],"outputs":[{"name":"","type":"uint256","internalType":"uint256"}],"stateMutability":"view"},{"type":"function","name":"getChonkIdToApprovedOperators","inputs":[{"name":"_chonkId","type":"uint256","internalType":"uint256"}],"outputs":[{"name":"","type":"address[]","internalType":"address[]"}],"stateMutability":"view"},{"type":"function","name":"getChonkZMap","inputs":[{"name":"_tokenId","type":"uint256","internalType":"uint256"}],"outputs":[{"name":"","type":"string","internalType":"string"}],"stateMutability":"view"},{"type":"function","name":"getFullPictureForTrait","inputs":[{"name":"_chonkTraitTokenId","type":"uint256","internalType":"uint256"}],"outputs":[{"name":"traitOwnerTBA","type":"address","internalType":"address"},{"name":"chonkTokenId","type":"uint256","internalType":"uint256"},{"name":"chonkOwner","type":"address","internalType":"address"},{"name":"isEquipped","type":"bool","internalType":"bool"}],"stateMutability":"view"},{"type":"function","name":"getOwnerAndTBAAddressForChonkId","inputs":[{"name":"_chonkId","type":"uint256","internalType":"uint256"}],"outputs":[{"name":"owner","type":"address","internalType":"address"},{"name":"tbaAddress","type":"address","internalType":"address"}],"stateMutability":"view"},{"type":"function","name":"getTBAAddressForChonkId","inputs":[{"name":"_chonkId","type":"uint256","internalType":"uint256"}],"outputs":[{"name":"","type":"address","internalType":"address"}],"stateMutability":"view"},{"type":"function","name":"getTraitsForChonkId","inputs":[{"name":"_chonkId","type":"uint256","internalType":"uint256"}],"outputs":[{"name":"traitTokens","type":"uint256[]","internalType":"uint256[]"}],"stateMutability":"view"},{"type":"function","name":"isApprovedForAll","inputs":[{"name":"owner","type":"address","internalType":"address"},{"name":"operator","type":"address","internalType":"address"}],"outputs":[{"name":"","type":"bool","internalType":"bool"}],"stateMutability":"view"},{"type":"function","name":"isTimelocked","inputs":[],"outputs":[{"name":"","type":"bool","internalType":"bool"}],"stateMutability":"view"},{"type":"function","name":"mainRenderer2D","inputs":[],"outputs":[{"name":"","type":"address","internalType":"contract MainRenderer2D"}],"stateMutability":"view"},{"type":"function","name":"mainRenderer3D","inputs":[],"outputs":[{"name":"","type":"address","internalType":"contract MainRenderer3D"}],"stateMutability":"view"},{"type":"function","name":"marketplace","inputs":[],"outputs":[{"name":"","type":"address","internalType":"contract ChonksMarket"}],"stateMutability":"view"},{"type":"function","name":"maxTraitsToOutput","inputs":[],"outputs":[{"name":"","type":"uint256","internalType":"uint256"}],"stateMutability":"view"},{"type":"function","name":"mint","inputs":[{"name":"_amount","type":"uint256","internalType":"uint256"},{"name":"_merkleProof","type":"bytes32[]","internalType":"bytes32[]"}],"outputs":[],"stateMutability":"payable"},{"type":"function","name":"mintStartTime","inputs":[],"outputs":[{"name":"","type":"uint256","internalType":"uint256"}],"stateMutability":"view"},{"type":"function","name":"name","inputs":[],"outputs":[{"name":"","type":"string","internalType":"string"}],"stateMutability":"view"},{"type":"function","name":"oneYearFromDeployment","inputs":[],"outputs":[{"name":"","type":"uint256","internalType":"uint256"}],"stateMutability":"view"},{"type":"function","name":"owner","inputs":[],"outputs":[{"name":"result","type":"address","internalType":"address"}],"stateMutability":"view"},{"type":"function","name":"ownerOf","inputs":[{"name":"tokenId","type":"uint256","internalType":"uint256"}],"outputs":[{"name":"","type":"address","internalType":"address"}],"stateMutability":"view"},{"type":"function","name":"ownershipHandoverExpiresAt","inputs":[{"name":"pendingOwner","type":"address","internalType":"address"}],"outputs":[{"name":"result","type":"uint256","internalType":"uint256"}],"stateMutability":"view"},{"type":"function","name":"price","inputs":[],"outputs":[{"name":"","type":"uint256","internalType":"uint256"}],"stateMutability":"view"},{"type":"function","name":"renderAsDataUri","inputs":[{"name":"_tokenId","type":"uint256","internalType":"uint256"}],"outputs":[{"name":"","type":"string","internalType":"string"}],"stateMutability":"view"},{"type":"function","name":"renderAsDataUri2D","inputs":[{"name":"_tokenId","type":"uint256","internalType":"uint256"}],"outputs":[{"name":"","type":"string","internalType":"string"}],"stateMutability":"view"},{"type":"function","name":"renderAsDataUri3D","inputs":[{"name":"_tokenId","type":"uint256","internalType":"uint256"}],"outputs":[{"name":"","type":"string","internalType":"string"}],"stateMutability":"view"},{"type":"function","name":"renounceOwnership","inputs":[],"outputs":[],"stateMutability":"payable"},{"type":"function","name":"requestOwnershipHandover","inputs":[],"outputs":[],"stateMutability":"payable"},{"type":"function","name":"safeTransferFrom","inputs":[{"name":"from","type":"address","internalType":"address"},{"name":"to","type":"address","internalType":"address"},{"name":"tokenId","type":"uint256","internalType":"uint256"}],"outputs":[],"stateMutability":"nonpayable"},{"type":"function","name":"safeTransferFrom","inputs":[{"name":"from","type":"address","internalType":"address"},{"name":"to","type":"address","internalType":"address"},{"name":"tokenId","type":"uint256","internalType":"uint256"},{"name":"data","type":"bytes","internalType":"bytes"}],"outputs":[],"stateMutability":"nonpayable"},{"type":"function","name":"setApprovalForAll","inputs":[{"name":"_operator","type":"address","internalType":"address"},{"name":"_approved","type":"bool","internalType":"bool"}],"outputs":[],"stateMutability":"nonpayable"},{"type":"function","name":"setApprovalForAllChonksMarketplace","inputs":[{"name":"_chonkId","type":"uint256","internalType":"uint256"},{"name":"_operator","type":"address","internalType":"address"},{"name":"_approved","type":"bool","internalType":"bool"}],"outputs":[],"stateMutability":"nonpayable"},{"type":"function","name":"setChonkAttributes","inputs":[{"name":"_tokenId","type":"uint256","internalType":"uint256"},{"name":"_color","type":"string","internalType":"string"},{"name":"_bodyIndex","type":"uint8","internalType":"uint8"},{"name":"_render3D","type":"bool","internalType":"bool"}],"outputs":[],"stateMutability":"nonpayable"},{"type":"function","name":"setCollectionsMerkle","inputs":[{"name":"_merkleRoot","type":"bytes32","internalType":"bytes32"}],"outputs":[],"stateMutability":"nonpayable"},{"type":"function","name":"setCreatorsMerkle","inputs":[{"name":"_merkleRoot","type":"bytes32","internalType":"bytes32"}],"outputs":[],"stateMutability":"nonpayable"},{"type":"function","name":"setDescriptionParts","inputs":[{"name":"_descriptionParts","type":"string[2]","internalType":"string[2]"}],"outputs":[],"stateMutability":"nonpayable"},{"type":"function","name":"setFirstReleaseDataMinter","inputs":[{"name":"_dataContract","type":"address","internalType":"address"}],"outputs":[],"stateMutability":"nonpayable"},{"type":"function","name":"setFriendsMerkleRoot","inputs":[{"name":"_merkleRoot","type":"bytes32","internalType":"bytes32"}],"outputs":[],"stateMutability":"nonpayable"},{"type":"function","name":"setMainRenderer2D","inputs":[{"name":"_mainRenderer2D","type":"address","internalType":"address"}],"outputs":[],"stateMutability":"nonpayable"},{"type":"function","name":"setMainRenderer3D","inputs":[{"name":"_mainRenderer3D","type":"address","internalType":"address"}],"outputs":[],"stateMutability":"nonpayable"},{"type":"function","name":"setMarketplace","inputs":[{"name":"_marketplace","type":"address","internalType":"address"}],"outputs":[],"stateMutability":"nonpayable"},{"type":"function","name":"setMaxTraitsToOutput","inputs":[{"name":"_maxTraitsToOutput","type":"uint256","internalType":"uint256"}],"outputs":[],"stateMutability":"nonpayable"},{"type":"function","name":"setMintStartTime","inputs":[{"name":"_mintStartTime","type":"uint256","internalType":"uint256"}],"outputs":[],"stateMutability":"nonpayable"},{"type":"function","name":"setPrice","inputs":[{"name":"_priceInWei","type":"uint256","internalType":"uint256"}],"outputs":[],"stateMutability":"nonpayable"},{"type":"function","name":"setTraitsContract","inputs":[{"name":"_address","type":"address","internalType":"contract ChonkTraits"}],"outputs":[],"stateMutability":"nonpayable"},{"type":"function","name":"setWithdrawAddress","inputs":[{"name":"_withdrawAddress","type":"address","internalType":"address"}],"outputs":[],"stateMutability":"nonpayable"},{"type":"function","name":"supportsInterface","inputs":[{"name":"interfaceId","type":"bytes4","internalType":"bytes4"}],"outputs":[{"name":"","type":"bool","internalType":"bool"}],"stateMutability":"view"},{"type":"function","name":"symbol","inputs":[],"outputs":[{"name":"","type":"string","internalType":"string"}],"stateMutability":"view"},{"type":"function","name":"tbaAddressToTokenId","inputs":[{"name":"","type":"address","internalType":"address"}],"outputs":[{"name":"","type":"uint256","internalType":"uint256"}],"stateMutability":"view"},{"type":"function","name":"teamMint","inputs":[{"name":"_to","type":"address","internalType":"address"},{"name":"_amount","type":"uint256","internalType":"uint256"},{"name":"_traitCount","type":"uint8","internalType":"uint8"}],"outputs":[],"stateMutability":"nonpayable"},{"type":"function","name":"teamReserve","inputs":[],"outputs":[],"stateMutability":"nonpayable"},{"type":"function","name":"tokenByIndex","inputs":[{"name":"index","type":"uint256","internalType":"uint256"}],"outputs":[{"name":"","type":"uint256","internalType":"uint256"}],"stateMutability":"view"},{"type":"function","name":"tokenIdToTBAAccountAddress","inputs":[{"name":"","type":"uint256","internalType":"uint256"}],"outputs":[{"name":"","type":"address","internalType":"address"}],"stateMutability":"view"},{"type":"function","name":"tokenOfOwnerByIndex","inputs":[{"name":"owner","type":"address","internalType":"address"},{"name":"index","type":"uint256","internalType":"uint256"}],"outputs":[{"name":"","type":"uint256","internalType":"uint256"}],"stateMutability":"view"},{"type":"function","name":"tokenURI","inputs":[{"name":"_tokenId","type":"uint256","internalType":"uint256"}],"outputs":[{"name":"","type":"string","internalType":"string"}],"stateMutability":"view"},{"type":"function","name":"totalSupply","inputs":[],"outputs":[{"name":"","type":"uint256","internalType":"uint256"}],"stateMutability":"view"},{"type":"function","name":"traitsContract","inputs":[],"outputs":[{"name":"","type":"address","internalType":"contract ChonkTraits"}],"stateMutability":"view"},{"type":"function","name":"transferFrom","inputs":[{"name":"from","type":"address","internalType":"address"},{"name":"to","type":"address","internalType":"address"},{"name":"tokenId","type":"uint256","internalType":"uint256"}],"outputs":[],"stateMutability":"nonpayable"},{"type":"function","name":"transferOwnership","inputs":[{"name":"newOwner","type":"address","internalType":"address"}],"outputs":[],"stateMutability":"payable"},{"type":"function","name":"unequip","inputs":[{"name":"_chonkTokenId","type":"uint256","internalType":"uint256"},{"name":"traitType","type":"uint8","internalType":"enum TraitCategory.Name"}],"outputs":[],"stateMutability":"nonpayable"},{"type":"function","name":"unequipAll","inputs":[{"name":"_chonkTokenId","type":"uint256","internalType":"uint256"}],"outputs":[],"stateMutability":"nonpayable"},{"type":"function","name":"walletOfOwner","inputs":[{"name":"_owner","type":"address","internalType":"address"}],"outputs":[{"name":"","type":"uint256[]","internalType":"uint256[]"}],"stateMutability":"view"},{"type":"function","name":"withdraw","inputs":[],"outputs":[],"stateMutability":"nonpayable"},{"type":"function","name":"withdrawAddress","inputs":[],"outputs":[{"name":"","type":"address","internalType":"address"}],"stateMutability":"view"},{"type":"event","name":"Approval","inputs":[{"name":"owner","type":"address","indexed":true,"internalType":"address"},{"name":"approved","type":"address","indexed":true,"internalType":"address"},{"name":"tokenId","type":"uint256","indexed":true,"internalType":"uint256"}],"anonymous":false},{"type":"event","name":"ApprovalForAll","inputs":[{"name":"owner","type":"address","indexed":true,"internalType":"address"},{"name":"operator","type":"address","indexed":true,"internalType":"address"},{"name":"approved","type":"bool","indexed":false,"internalType":"bool"}],"anonymous":false},{"type":"event","name":"BatchMetadataUpdate","inputs":[{"name":"_fromTokenId","type":"uint256","indexed":false,"internalType":"uint256"},{"name":"_toTokenId","type":"uint256","indexed":false,"internalType":"uint256"}],"anonymous":false},{"type":"event","name":"Equip","inputs":[{"name":"owner","type":"address","indexed":true,"internalType":"address"},{"name":"tokenId","type":"uint256","indexed":true,"internalType":"uint256"},{"name":"traitTokenId","type":"uint256","indexed":true,"internalType":"uint256"},{"name":"traitCategory","type":"uint8","indexed":false,"internalType":"uint8"}],"anonymous":false},{"type":"event","name":"EquipAll","inputs":[{"name":"owner","type":"address","indexed":true,"internalType":"address"},{"name":"tokenId","type":"uint256","indexed":true,"internalType":"uint256"}],"anonymous":false},{"type":"event","name":"MetadataUpdate","inputs":[{"name":"_tokenId","type":"uint256","indexed":false,"internalType":"uint256"}],"anonymous":false},{"type":"event","name":"Mint","inputs":[{"name":"owner","type":"address","indexed":true,"internalType":"address"},{"name":"tokenId","type":"uint256","indexed":true,"internalType":"uint256"}],"anonymous":false},{"type":"event","name":"OwnershipHandoverCanceled","inputs":[{"name":"pendingOwner","type":"address","indexed":true,"internalType":"address"}],"anonymous":false},{"type":"event","name":"OwnershipHandoverRequested","inputs":[{"name":"pendingOwner","type":"address","indexed":true,"internalType":"address"}],"anonymous":false},{"type":"event","name":"OwnershipTransferred","inputs":[{"name":"oldOwner","type":"address","indexed":true,"internalType":"address"},{"name":"newOwner","type":"address","indexed":true,"internalType":"address"}],"anonymous":false},{"type":"event","name":"Transfer","inputs":[{"name":"from","type":"address","indexed":true,"internalType":"address"},{"name":"to","type":"address","indexed":true,"internalType":"address"},{"name":"tokenId","type":"uint256","indexed":true,"internalType":"uint256"}],"anonymous":false},{"type":"event","name":"Unequip","inputs":[{"name":"owner","type":"address","indexed":true,"internalType":"address"},{"name":"tokenId","type":"uint256","indexed":true,"internalType":"uint256"},{"name":"traitCategory","type":"uint8","indexed":false,"internalType":"uint8"}],"anonymous":false},{"type":"event","name":"UnequipAll","inputs":[{"name":"owner","type":"address","indexed":true,"internalType":"address"},{"name":"tokenId","type":"uint256","indexed":true,"internalType":"uint256"}],"anonymous":false},{"type":"error","name":"AlreadyInitialized","inputs":[]},{"type":"error","name":"CanOnlyReserveFirstTwo","inputs":[]},{"type":"error","name":"CantTransferDuringMint","inputs":[]},{"type":"error","name":"CantTransferToTBAs","inputs":[]},{"type":"error","name":"ChonkDoesntExist","inputs":[]},{"type":"error","name":"FirstReleaseDataMinterNotSet","inputs":[]},{"type":"error","name":"IncorrectChonkOwner","inputs":[]},{"type":"error","name":"IncorrectTBAOwner","inputs":[]},{"type":"error","name":"IncorrectTraitType","inputs":[]},{"type":"error","name":"InsufficientFunds","inputs":[]},{"type":"error","name":"InvalidBodyIndex","inputs":[]},{"type":"error","name":"InvalidColor","inputs":[]},{"type":"error","name":"InvalidMintAmount","inputs":[]},{"type":"error","name":"InvalidTraitCount","inputs":[]},{"type":"error","name":"MintEnded","inputs":[]},{"type":"error","name":"MintNotStarted","inputs":[]},{"type":"error","name":"MintStartTimeAlreadySet","inputs":[]},{"type":"error","name":"NewOwnerIsZeroAddress","inputs":[]},{"type":"error","name":"NoHandoverRequest","inputs":[]},{"type":"error","name":"Timelocked","inputs":[]},{"type":"error","name":"Unauthorized","inputs":[]},{"type":"error","name":"UseUnequip","inputs":[]},{"type":"error","name":"WithdrawFailed","inputs":[]}],"bytecode":{"object":"0x60a060405260636011553480156200001657600080fd5b506040518060400160405280600681526020016543686f6e6b7360d01b8152506040518060400160405280600681526020016543484f4e4b5360d01b815250816000908162000066919062000175565b50600162000075828262000175565b50506001600a5550620000883362000092565b4260805262000241565b6001600160a01b0316638b78c6d8198190558060007f8be0079c531659141344cd1fd0a4f28419497f9722a3daafe3b4186f6b6457e08180a350565b634e487b7160e01b600052604160045260246000fd5b600181811c90821680620000f957607f821691505b6020821081036200011a57634e487b7160e01b600052602260045260246000fd5b50919050565b601f82111562000170576000816000526020600020601f850160051c810160208610156200014b5750805b601f850160051c820191505b818110156200016c5782815560010162000157565b5050505b505050565b81516001600160401b03811115620001915762000191620000ce565b620001a981620001a28454620000e4565b8462000120565b602080601f831160018114620001e15760008415620001c85750858301515b600019600386901b1c1916600185901b1785556200016c565b600085815260208120601f198616915b828110156200021257888601518255948401946001909101908401620001f1565b5085821015620002315787850151600019600388901b60f8161c191681555b5050505050600190811b01905550565b608051615f506200026460003960008181610eef01526130060152615f506000f3fe6080604052600436106104bf5760003560e01c80638aa1e4c811610276578063b84b160d1161014f578063e985e9c5116100c1578063f3f8efb911610085578063f3f8efb914610f57578063f4bec0b614610f77578063f6a0c93214610f97578063fc863e6414610fcd578063fd8b66de14610fe3578063fee81cf41461100357600080fd5b8063e985e9c514610e94578063ecda10f514610edd578063f04e283e14610f11578063f2361e2314610f24578063f2fde38b14610f4457600080fd5b8063cdb6dd5c11610113578063cdb6dd5c14610ddc578063d3d6873e14610dfc578063d59752eb14610e29578063d5b3621b14610e3e578063dceef0ec14610e5e578063e3d2155514610e7e57600080fd5b8063b84b160d14610d49578063b88d4fde14610d69578063ba41b0c614610d89578063c093afdb14610d9c578063c87b56dd14610dbc57600080fd5b80639f6e4637116101e8578063a23830ae116101ac578063a23830ae14610c56578063a4bf9a0014610c84578063abc8c7af14610cb1578063b194b6f114610cd1578063b45d031614610cf1578063b66ef6e314610d2957600080fd5b80639f6e463714610bca578063a035b1fe14610bea578063a153178014610c00578063a1d6268014610c16578063a22cb46514610c3657600080fd5b806392012f081161023a57806392012f0814610b05578063931e2e4914610b3457806395d89b4114610b4a5780639c05d68d14610b5f5780639c7be2f114610b955780639eb2660c14610baa57600080fd5b80638aa1e4c814610a6c5780638d2a2f1114610a8c5780638da5cb5b14610aac578063916c546b14610ac557806391b7f5ed14610ae557600080fd5b80633ccfd60b116103a85780635eabd84a1161031a57806370a08231116102de57806370a08231146109b8578063715018a6146109d857806373ad6c2d146109e05780637e2e6c4714610a0057806380d833f114610a205780638472cbca14610a3657600080fd5b80635eabd84a146108d65780636352211e146108f6578063667043491461091657806367d2afe21461096b5780636e51665f1461099857600080fd5b80634a60f6201161036c5780634a60f620146108435780634f6ccce71461085957806350b031461461087957806354d1f13d1461088e578063550ab2471461089657806355737f35146108b657600080fd5b80633ccfd60b146107ac57806342842e0e146107c15780634287f14a146107e1578063438b6300146107f65780634a4333a31461082357600080fd5b806323b872dd116104415780633044825b116104055780633044825b146106ec578063306c73341461070c57806332875aa01461072c57806333d3d9bf1461074c578063343b48871461076c5780633ab1a4941461078c57600080fd5b806323b872dd14610664578063256929621461068457806326f2052a1461068c57806328257532146106ac5780632f745c59146106cc57600080fd5b8063095ea7b311610488578063095ea7b3146105b55780630c83f9d7146105d557806314fe8ff4146106055780631581b6001461062557806318160ddd1461064557600080fd5b8062179206146104c457806301ffc9a7146104e657806304003bd01461051b57806306fdde031461055b578063081812fc1461057d575b600080fd5b3480156104d057600080fd5b506104e46104df366004614d40565b611036565b005b3480156104f257600080fd5b50610506610501366004614d73565b611086565b60405190151581526020015b60405180910390f35b34801561052757600080fd5b5061053b610536366004614d90565b611097565b604080516001600160a01b03938416815292909116602083015201610512565b34801561056757600080fd5b506105706110c6565b6040516105129190614df9565b34801561058957600080fd5b5061059d610598366004614d90565b611158565b6040516001600160a01b039091168152602001610512565b3480156105c157600080fd5b506104e46105d0366004614e0c565b61117f565b3480156105e157600080fd5b506105f56105f0366004614d90565b6111d0565b6040516105129493929190614e38565b34801561061157600080fd5b50610570610620366004614d90565b611391565b34801561063157600080fd5b5060135461059d906001600160a01b031681565b34801561065157600080fd5b506008545b604051908152602001610512565b34801561067057600080fd5b506104e461067f366004614e82565b6115d5565b6104e4611614565b34801561069857600080fd5b506104e46106a7366004614fd1565b611663565b3480156106b857600080fd5b506104e46106c736600461506b565b611678565b3480156106d857600080fd5b506106566106e7366004614e0c565b61173d565b3480156106f857600080fd5b506104e4610707366004614d90565b6117d3565b34801561071857600080fd5b50610570610727366004614d90565b61188e565b34801561073857600080fd5b50610570610747366004614d90565b6118a6565b34801561075857600080fd5b506104e4610767366004614d90565b61195d565b34801561077857600080fd5b506104e46107873660046150b3565b61196a565b34801561079857600080fd5b506104e46107a7366004614d40565b611b93565b3480156107b857600080fd5b506104e4611bbd565b3480156107cd57600080fd5b506104e46107dc366004614e82565b611c3c565b3480156107ed57600080fd5b506104e4611c57565b34801561080257600080fd5b50610816610811366004614d40565b611c98565b604051610512919061511a565b34801561082f57600080fd5b506104e461083e36600461515e565b611d2f565b34801561084f57600080fd5b5061065660125481565b34801561086557600080fd5b50610656610874366004614d90565b612060565b34801561088557600080fd5b506105066120f3565b6104e4612104565b3480156108a257600080fd5b506104e46108b13660046151b3565b612140565b3480156108c257600080fd5b5061059d6108d136600461506b565b612196565b3480156108e257600080fd5b506104e46108f1366004614d40565b6121ce565b34801561090257600080fd5b5061059d610911366004614d90565b61221e565b34801561092257600080fd5b50610936610931366004614d90565b61227e565b60405161051294939291906001600160a01b039485168152602081019390935292166040820152901515606082015260800190565b34801561097757600080fd5b5061098b610986366004614d90565b612330565b6040516105129190615236565b3480156109a457600080fd5b506104e46109b3366004615249565b61239c565b3480156109c457600080fd5b506106566109d3366004614d40565b612440565b6104e46124c6565b3480156109ec57600080fd5b506104e46109fb366004614d40565b6124d8565b348015610a0c57600080fd5b506104e4610a1b366004614d40565b612528565b348015610a2c57600080fd5b50610656601c5481565b348015610a4257600080fd5b50610656610a51366004614d40565b6001600160a01b03166000908152601a602052604090205490565b348015610a7857600080fd5b50610506610a8736600461506b565b612578565b348015610a9857600080fd5b506104e4610aa7366004614d90565b6125e7565b348015610ab857600080fd5b50638b78c6d8195461059d565b348015610ad157600080fd5b50610570610ae0366004614d90565b6125f4565b348015610af157600080fd5b506104e4610b00366004614d90565b6126f7565b348015610b1157600080fd5b50610b25610b20366004615292565b612704565b6040516105129392919061538b565b348015610b4057600080fd5b5061065660155481565b348015610b5657600080fd5b50610570612855565b348015610b6b57600080fd5b5061059d610b7a366004614d90565b6019602052600090815260409020546001600160a01b031681565b348015610ba157600080fd5b506104e4612864565b348015610bb657600080fd5b506104e4610bc5366004614d90565b612886565b348015610bd657600080fd5b50610816610be5366004614d90565b612893565b348015610bf657600080fd5b5061065660145481565b348015610c0c57600080fd5b50610656601e5481565b348015610c2257600080fd5b50610570610c31366004614d90565b612922565b348015610c4257600080fd5b506104e4610c513660046153c4565b61294d565b348015610c6257600080fd5b50610c76610c71366004615292565b6129c6565b6040516105129291906153f9565b348015610c9057600080fd5b50610656610c9f366004614d40565b601a6020526000908152604090205481565b348015610cbd57600080fd5b50600d5461059d906001600160a01b031681565b348015610cdd57600080fd5b506104e4610cec366004614d90565b612a74565b348015610cfd57600080fd5b50610d11610d0c366004614d90565b612a81565b6040516105129c9b9a99989796959493929190615427565b348015610d3557600080fd5b5060105461059d906001600160a01b031681565b348015610d5557600080fd5b506104e4610d64366004614d40565b612b78565b348015610d7557600080fd5b506104e4610d843660046154a0565b612bc8565b6104e4610d9736600461552e565b612bfa565b348015610da857600080fd5b50600c5461059d906001600160a01b031681565b348015610dc857600080fd5b50610570610dd7366004614d90565b612d6d565b348015610de857600080fd5b506104e4610df73660046155d7565b612dae565b348015610e0857600080fd5b50610e1c610e17366004614d90565b612e56565b6040516105129190615607565b348015610e3557600080fd5b50610656612fff565b348015610e4a57600080fd5b506104e4610e59366004614d90565b613034565b348015610e6a57600080fd5b50610570610e79366004614d90565b613062565b348015610e8a57600080fd5b5061065660115481565b348015610ea057600080fd5b50610506610eaf3660046156be565b6001600160a01b03918216600090815260056020908152604080832093909416825291909152205460ff1690565b348015610ee957600080fd5b506106567f000000000000000000000000000000000000000000000000000000000000000081565b6104e4610f1f366004614d40565b61333d565b348015610f3057600080fd5b506104e4610f3f3660046156ec565b61337a565b6104e4610f52366004614d40565b6133ed565b348015610f6357600080fd5b50610570610f72366004614d90565b613414565b348015610f8357600080fd5b50600f5461059d906001600160a01b031681565b348015610fa357600080fd5b5061059d610fb2366004614d90565b6000908152601960205260409020546001600160a01b031690565b348015610fd957600080fd5b50610656601d5481565b348015610fef57600080fd5b50600e5461059d906001600160a01b031681565b34801561100f57600080fd5b5061065661101e366004614d40565b63389a75e1600c908152600091909152602090205490565b61103e6136ca565b6110466120f3565b156110645760405163774ae17d60e01b815260040160405180910390fd5b601080546001600160a01b0319166001600160a01b0392909216919091179055565b6000611091826136e5565b92915050565b6000806110a38361221e565b6000938452601960205260409093205492936001600160a01b0390931692915050565b6060600080546110d590615771565b80601f016020809104026020016040519081016040528092919081815260200182805461110190615771565b801561114e5780601f106111235761010080835404028352916020019161114e565b820191906000526020600020905b81548152906001019060200180831161113157829003601f168201915b5050505050905090565b60006111638261370a565b506000908152600460205260409020546001600160a01b031690565b6111888161221e565b6001600160a01b0316336001600160a01b0316146111b8576040516282b42960e81b815260040160405180910390fd5b6111c28183613769565b6111cc82826137a8565b5050565b600b60205260009081526040902080546001820180549192916111f290615771565b80601f016020809104026020016040519081016040528092919081815260200182805461121e90615771565b801561126b5780601f106112405761010080835404028352916020019161126b565b820191906000526020600020905b81548152906001019060200180831161124e57829003601f168201915b50505050509080600201805461128090615771565b80601f01602080910402602001604051908101604052809291908181526020018280546112ac90615771565b80156112f95780601f106112ce576101008083540402835291602001916112f9565b820191906000526020600020905b8154815290600101906020018083116112dc57829003601f168201915b50505050509080600301805461130e90615771565b80601f016020809104026020016040519081016040528092919081815260200182805461133a90615771565b80156113875780601f1061135c57610100808354040283529160200191611387565b820191906000526020600020905b81548152906001019060200180831161136a57829003601f168201915b5050505050905084565b6060600061139e83612893565b90506000600c60009054906101000a90046001600160a01b03166001600160a01b0316635c1ef2566040518163ffffffff1660e01b8152600401600060405180830381865afa1580156113f5573d6000803e3d6000fd5b505050506040513d6000823e601f3d908101601f1916820160405261141d91908101906157f0565b9050600060115483511061143357601154611436565b82515b90506000816001600160401b0381111561145257611452614ec3565b60405190808252806020026020018201604052801561148557816020015b60608152602001906001900390816114705790505b50905060005b8281101561154c57600c5485516001600160a01b039091169063c7791531908790849081106114bc576114bc615824565b60200260200101516040518263ffffffff1660e01b81526004016114e291815260200190565b600060405180830381865afa1580156114ff573d6000803e3d6000fd5b505050506040513d6000823e601f3d908101601f1916820160405261152791908101906157f0565b82828151811061153957611539615824565b602090810291909101015260010161148b565b50600f548451601154604051631719ff8760e11b81526001600160a01b0390931692632e33ff0e926115869288928792919060040161583a565b600060405180830381865afa1580156115a3573d6000803e3d6000fd5b505050506040513d6000823e601f3d908101601f191682016040526115cb91908101906157f0565b9695505050505050565b6115df3382613816565b6116045760405162461bcd60e51b81526004016115fb906158bb565b60405180910390fd5b61160f838383613894565b505050565b60006202a3006001600160401b03164201905063389a75e1600c5233600052806020600c2055337fdbf36a107da19e49527a7176a1babf963b4b0ff8cde35ee35d6cd8f1f9ac7e1d600080a250565b61166b6136ca565b6111cc6016826002614c04565b816116828161221e565b6001600160a01b0316336001600160a01b0316146116b357604051631431735b60e21b815260040160405180910390fd5b816000036116d457604051630754c7f360e41b815260040160405180910390fd5b60006116e08484613a41565b90506116ed848285613adc565b82846116f88661221e565b6001600160a01b0316600080516020615efb83398151915284600781111561172257611722615909565b60405160ff909116815260200160405180910390a450505050565b600061174883612440565b82106117aa5760405162461bcd60e51b815260206004820152602b60248201527f455243373231456e756d657261626c653a206f776e657220696e646578206f7560448201526a74206f6620626f756e647360a81b60648201526084016115fb565b506001600160a01b03919091166000908152600660209081526040808320938352929052205490565b806117dd8161221e565b6001600160a01b0316336001600160a01b03161461180e57604051631431735b60e21b815260040160405180910390fd5b600082815260186020526040812081815560018101829055600281018290556003810182905560048101829055600581018290556006810191909155826118548161221e565b6001600160a01b03167f46078a2cd4c69c3b4a27bdc69fdfe03d442ebcf405f1a68e9b5df6bc3e24429760405160405180910390a3505050565b60608061189d610b2084612e56565b50949350505050565b600c5460609081906001600160a01b031663bb12d21d6118c585612e56565b6040518263ffffffff1660e01b81526004016118e19190615607565b600060405180830381865afa1580156118fe573d6000803e3d6000fd5b505050506040513d6000823e601f3d908101601f19168201604052611926919081019061591f565b50915061193490508361188e565b816040516020016119469291906159a6565b604051602081830303815290604052915050919050565b6119656136ca565b601155565b836119748161221e565b6001600160a01b0316336001600160a01b0316146119a557604051631431735b60e21b815260040160405180910390fd5b835184906006146119c957604051631cf7e9c560e01b815260040160405180910390fd5b60048460ff1611156119ee576040516329ba348d60e11b815260040160405180910390fd5b60005b6006811015611b3b57603060f81b828281518110611a1157611a11615824565b01602001516001600160f81b03191610801590611a525750603960f81b828281518110611a4057611a40615824565b01602001516001600160f81b03191611155b158015611ab45750604160f81b828281518110611a7157611a71615824565b01602001516001600160f81b03191610801590611ab25750604660f81b828281518110611aa057611aa0615824565b01602001516001600160f81b03191611155b155b8015611b155750606160f81b828281518110611ad257611ad2615824565b01602001516001600160f81b03191610801590611b135750606660f81b828281518110611b0157611b01615824565b01602001516001600160f81b03191611155b155b15611b3357604051631cf7e9c560e01b815260040160405180910390fd5b6001016119f1565b506000868152601860205260409020600a01611b578682615a1d565b50505060009384526018602052604090932060098101805460ff90931660ff19938416179055600b018054931515939091169290921790915550565b611b9b6136ca565b601380546001600160a01b0319166001600160a01b0392909216919091179055565b611bc56136ca565b6013546040516000916001600160a01b03169047908381818185875af1925050503d8060008114611c12576040519150601f19603f3d011682016040523d82523d6000602084013e611c17565b606091505b5050905080611c3957604051631d42c86760e21b815260040160405180910390fd5b50565b61160f83838360405180602001604052806000815250612bc8565b611c5f6136ca565b6002611c6a60085490565b1115611c895760405163155b299760e31b815260040160405180910390fd5b611c963360026007613c37565b565b60606000611ca583612440565b90506000816001600160401b03811115611cc157611cc1614ec3565b604051908082528060200260200182016040528015611cea578160200160208202803683370190505b50905060005b82811015611d2757611d02858261173d565b828281518110611d1457611d14615824565b6020908102919091010152600101611cf0565b509392505050565b87611d398161221e565b6001600160a01b0316336001600160a01b031614611d6a57604051631431735b60e21b815260040160405180910390fd5b60008981526018602090815260408083206019909252909120546001600160a01b03168915611de657611d9d818b613eb9565b611da88a6001613f5b565b898255898b611db68161221e565b6001600160a01b0316600080516020615efb833981519152600160405160ff909116815260200160405180910390a45b8815611e4357611df6818a613eb9565b611e01896002613f5b565b60018201899055888b611e138161221e565b6001600160a01b0316600080516020615efb833981519152600260405160ff909116815260200160405180910390a45b8715611ea057611e538189613eb9565b611e5e886003613f5b565b60028201889055878b611e708161221e565b6001600160a01b0316600080516020615efb833981519152600360405160ff909116815260200160405180910390a45b8615611efd57611eb08188613eb9565b611ebb876004613f5b565b60038201879055868b611ecd8161221e565b6001600160a01b0316600080516020615efb833981519152600460405160ff909116815260200160405180910390a45b8515611f5a57611f0d8187613eb9565b611f18866005613f5b565b60048201869055858b611f2a8161221e565b6001600160a01b0316600080516020615efb833981519152600560405160ff909116815260200160405180910390a45b8415611fb757611f6a8186613eb9565b611f75856006613f5b565b60058201859055848b611f878161221e565b6001600160a01b0316600080516020615efb833981519152600660405160ff909116815260200160405180910390a45b831561201457611fc78185613eb9565b611fd2846007613f5b565b60068201849055838b611fe48161221e565b6001600160a01b0316600080516020615efb833981519152600760405160ff909116815260200160405180910390a45b8a61201e8c61221e565b6001600160a01b03167f56680590212b09eb4b72a2eba8801b037ec046dfc754538e924f5bb6a8c4db6c60405160405180910390a35050505050505050505050565b600061206b60085490565b82106120ce5760405162461bcd60e51b815260206004820152602c60248201527f455243373231456e756d657261626c653a20676c6f62616c20696e646578206f60448201526b7574206f6620626f756e647360a01b60648201526084016115fb565b600882815481106120e1576120e1615824565b90600052602060002001549050919050565b60006120fd612fff565b4211905090565b63389a75e1600c523360005260006020600c2055337ffa7b8eab7da67f412cc9575ed43464468f9bfbae89d1675917346ca6d8fe3c92600080a2565b600061214b8461221e565b90506001600160a01b0381163314612175576040516282b42960e81b815260040160405180910390fd5b8115612185576121858484613769565b61219081848461405d565b50505050565b601b60205281600052604060002081815481106121b257600080fd5b6000918252602090912001546001600160a01b03169150829050565b6121d66136ca565b6121de6120f3565b156121fc5760405163774ae17d60e01b815260040160405180910390fd5b600c80546001600160a01b0319166001600160a01b0392909216919091179055565b6000818152600260205260408120546001600160a01b0316806110915760405162461bcd60e51b8152602060048201526018602482015277115490cdcc8c4e881a5b9d985b1a59081d1bdad95b88125160421b60448201526064016115fb565b600c546040516331a9108f60e11b8152600481018390526000918291829182916001600160a01b0390911690636352211e90602401602060405180830381865afa1580156122d0573d6000803e3d6000fd5b505050506040513d601f19601f820116820180604052508101906122f49190615adc565b6001600160a01b0381166000908152601a6020526040902054909450925061231b8361221e565b91506123278386612578565b90509193509193565b6000818152601b602090815260409182902080548351818402810184019094528084526060939283018282801561239057602002820191906000526020600020905b81546001600160a01b03168152600190910190602001808311612372575b50505050509050919050565b6123a46136ca565b60048160ff1610806123b9575060078160ff16115b156123d757604051632258debf60e01b815260040160405180910390fd5b60155415806123e7575060155442105b1561240557604051630314872760e11b815260040160405180910390fd5b6015546124159062016da0615b0f565b4211156124355760405163124212e560e21b815260040160405180910390fd5b61160f838383613c37565b60006001600160a01b0382166124aa5760405162461bcd60e51b815260206004820152602960248201527f4552433732313a2061646472657373207a65726f206973206e6f7420612076616044820152683634b21037bbb732b960b91b60648201526084016115fb565b506001600160a01b031660009081526003602052604090205490565b6124ce6136ca565b611c966000614123565b6124e06136ca565b6124e86120f3565b156125065760405163774ae17d60e01b815260040160405180910390fd5b600d80546001600160a01b0319166001600160a01b0392909216919091179055565b6125306136ca565b6125386120f3565b156125565760405163774ae17d60e01b815260040160405180910390fd5b600f80546001600160a01b0319166001600160a01b0392909216919091179055565b60008061258484612e56565b80519091508314806125995750828160200151145b806125a75750828160400151145b806125b55750828160600151145b806125c35750828160800151145b806125d15750828160a00151145b806125df5750828160c00151145b949350505050565b6125ef6136ca565b601c55565b600f546000828152600b602052604080822090516371bed9e160e11b81526060936001600160a01b03169163e37db3c2916126359160020190600401615b9f565b600060405180830381865afa158015612652573d6000803e3d6000fd5b505050506040513d6000823e601f3d908101601f1916820160405261267a91908101906157f0565b600f546040516335b07b7960e11b81529192506001600160a01b031690636b60f6f2906126ab908490600401614df9565b600060405180830381865afa1580156126c8573d6000803e3d6000fd5b505050506040513d6000823e601f3d908101601f191682016040526126f091908101906157f0565b9392505050565b6126ff6136ca565b601455565b606080606061271a84610120015160ff166125f4565b6101208501805160ff9081166000908152600b6020526040808220600f5494519093168252908190209051630d88d4ff60e01b81526003909201926001600160a01b031691630d88d4ff9161277791600190910190600401615bb2565b600060405180830381865afa158015612794573d6000803e3d6000fd5b505050506040513d6000823e601f3d908101601f191682016040526127bc91908101906157f0565b8180546127c890615771565b80601f01602080910402602001604051908101604052809291908181526020018280546127f490615771565b80156128415780601f1061281657610100808354040283529160200191612841565b820191906000526020600020905b81548152906001019060200180831161282457829003601f168201915b505050505091509250925092509193909250565b6060600180546110d590615771565b60005b600a811015611c3957606061287d600482612bfa565b50600101612867565b61288e6136ca565b601d55565b600081815260196020526040812054606091906001600160a01b0316600c5460405162438b6360e81b81526001600160a01b03808416600483015292935091169063438b630090602401600060405180830381865afa1580156128fa573d6000803e3d6000fd5b505050506040513d6000823e601f3d908101601f191682016040526126f09190810190615be5565b606061292d82612e56565b61016001516129445761293f82613414565b611091565b61109182613062565b80156129bb57600061295e33611c98565b90508051600003612981576040516282b42960e81b815260040160405180910390fd5b60005b81518110156129b8576129b08282815181106129a2576129a2615824565b602002602001015185613769565b600101612984565b50505b6111cc33838361405d565b6060806129da83610120015160ff166125f4565b600f5461012085015160ff166000908152600b6020526040908190209051630d88d4ff60e01b81526001600160a01b0390921691630d88d4ff91612a2691600190910190600401615bb2565b600060405180830381865afa158015612a43573d6000803e3d6000fd5b505050506040513d6000823e601f3d908101601f19168201604052612a6b91908101906157f0565b91509150915091565b612a7c6136ca565b601e55565b601860205260009081526040902080546001820154600283015460038401546004850154600586015460068701546007880154600889015460098a0154600a8b0180549a9b999a9899979896979596949563ffffffff90941694929360ff90921692612aec90615771565b80601f0160208091040260200160405190810160405280929190818152602001828054612b1890615771565b8015612b655780601f10612b3a57610100808354040283529160200191612b65565b820191906000526020600020905b815481529060010190602001808311612b4857829003601f168201915b505050600b909301549192505060ff168c565b612b806136ca565b612b886120f3565b15612ba65760405163774ae17d60e01b815260040160405180910390fd5b600e80546001600160a01b0319166001600160a01b0392909216919091179055565b612bd23383613816565b612bee5760405162461bcd60e51b81526004016115fb906158bb565b61219084848484614161565b600e546001600160a01b0316612c235760405163d93186fd60e01b815260040160405180910390fd5b811580612c305750600a82115b15612c4e5760405163199f5a0360e31b815260040160405180910390fd5b6015541580612c5e575060155442105b15612c7c57604051630314872760e11b815260040160405180910390fd5b601554612c8c9062015180615b0f565b421115612cac5760405163124212e560e21b815260040160405180910390fd5b81601454612cba9190615c6a565b3414612cd95760405163356680b760e01b815260040160405180910390fd5b6040516bffffffffffffffffffffffff193360601b166020820152600490600090603401604051602081830303815290604052805190602001209050612d2283601c5483614194565b15612d305760059150612d62565b612d3d83601d5483614194565b15612d4b5760069150612d62565b612d5883601e5483614194565b15612d6257600791505b612190338584613c37565b6000818152600260205260409020546060906001600160a01b0316612da557604051636461f73160e01b815260040160405180910390fd5b61109182612922565b81612db88161221e565b6001600160a01b0316336001600160a01b031614612de957604051631431735b60e21b815260040160405180910390fd5b612df583836000613adc565b82612dff8461221e565b6001600160a01b03167f3d8ac56c725fc7985e9444622a45baee28ba67d8a964045f747b465121f40e71846007811115612e3b57612e3b615909565b60405160ff90911681526020015b60405180910390a3505050565b612ec560405180610180016040528060008152602001600081526020016000815260200160008152602001600081526020016000815260200160008152602001600063ffffffff16815260200160008152602001600060ff168152602001606081526020016000151581525090565b600082815260186020908152604091829020825161018081018452815481526001820154928101929092526002810154928201929092526003820154606082015260048201546080820152600582015460a0820152600682015460c0820152600782015463ffffffff1660e08201526008820154610100820152600982015460ff16610120820152600a8201805491929161014084019190612f6690615771565b80601f0160208091040260200160405190810160405280929190818152602001828054612f9290615771565b8015612fdf5780601f10612fb457610100808354040283529160200191612fdf565b820191906000526020600020905b815481529060010190602001808311612fc257829003601f168201915b5050509183525050600b919091015460ff16151560209091015292915050565b600061302f7f00000000000000000000000000000000000000000000000000000000000000006301e13380615b0f565b905090565b61303c6136ca565b6015541561305d5760405163703e78e960e11b815260040160405180910390fd5b601555565b6060806060806060806060613075614c4d565b60006130808a612e56565b905061308b81612704565b50600c5460405163bb12d21d60e01b8152929a509097506001600160a01b03169063bb12d21d906130c0908490600401615607565b600060405180830381865afa1580156130dd573d6000803e3d6000fd5b505050506040513d6000823e601f3d908101601f19168201604052613105919081019061591f565b604051929950909650935061312090879087906020016159a6565b60408051601f19818403018152919052610140820151835293506131438a612893565b5160408084019190915261012082015160ff166000908152600b60205220600101805461316f90615771565b80601f016020809104026020016040519081016040528092919081815260200182805461319b90615771565b80156131e85780601f106131bd576101008083540402835291602001916131e8565b820191906000526020600020905b8154815290600101906020018083116131cb57829003601f168201915b5050505050602083015260408051808201909152601660026000835b828210156132a757838201805461321a90615771565b80601f016020809104026020016040519081016040528092919081815260200182805461324690615771565b80156132935780601f1061326857610100808354040283529160200191613293565b820191906000526020600020905b81548152906001019060200180831161327657829003601f168201915b505050505081526020019060010190613204565b5050505060608301526010546040516323e2ba9960e11b81526001600160a01b03909116906347c57532906132ea908d908c908c9089908b908a90600401615d0c565b600060405180830381865afa158015613307573d6000803e3d6000fd5b505050506040513d6000823e601f3d908101601f1916820160405261332f91908101906157f0565b9a9950505050505050505050565b6133456136ca565b63389a75e1600c52806000526020600c20805442111561336d57636f5e88186000526004601cfd5b60009055611c3981614123565b6133826136ca565b61338a6120f3565b156133a85760405163774ae17d60e01b815260040160405180910390fd5b6000848152600b60205260409020848155600181016133c78582615a1d565b50600281016133d68482615a1d565b50600381016133e58382615a1d565b505050505050565b6133f56136ca565b8060601b61340b57637448fbae6000526004601cfd5b611c3981614123565b6060806060806060613424614c4d565b600061342f88612e56565b905061343a816129c6565b50600c54604051631be5857160e31b81529197506001600160a01b03169063df2c2b889061346c908490600401615607565b600060405180830381865afa158015613489573d6000803e3d6000fd5b505050506040513d6000823e601f3d908101601f191682016040526134b19190810190615d80565b90955093506134bf88611391565b610140820151835292506134d288612893565b5160408084019190915261012082015160ff166000908152600b6020522060010180546134fe90615771565b80601f016020809104026020016040519081016040528092919081815260200182805461352a90615771565b80156135775780601f1061354c57610100808354040283529160200191613577565b820191906000526020600020905b81548152906001019060200180831161355a57829003601f168201915b5050505050602083015260408051808201909152601660026000835b828210156136365783820180546135a990615771565b80601f01602080910402602001604051908101604052809291908181526020018280546135d590615771565b80156136225780601f106135f757610100808354040283529160200191613622565b820191906000526020600020905b81548152906001019060200180831161360557829003601f168201915b505050505081526020019060010190613593565b505050506060830152600f54604051631589d6a760e21b81526001600160a01b03909116906356275a9c90613679908b908a908a908a908a908a90600401615d0c565b600060405180830381865afa158015613696573d6000803e3d6000fd5b505050506040513d6000823e601f3d908101601f191682016040526136be91908101906157f0565b98975050505050505050565b638b78c6d819543314611c96576382b429006000526004601cfd5b60006001600160e01b0319821663780e9d6360e01b14806110915750611091826141aa565b6000818152600260205260409020546001600160a01b0316611c395760405162461bcd60e51b8152602060048201526018602482015277115490cdcc8c4e881a5b9d985b1a59081d1bdad95b88125160421b60448201526064016115fb565b6000918252601b6020908152604083208054600181018255908452922090910180546001600160a01b0319166001600160a01b03909216919091179055565b600081815260046020526040902080546001600160a01b0319166001600160a01b03841690811790915581906137dd8261221e565b6001600160a01b03167f8c5be1e5ebec7d5bd14f71427d1e84f3dd0314c0f7b2291e5b200ac8c7c3b92560405160405180910390a45050565b6000806138228361221e565b9050806001600160a01b0316846001600160a01b0316148061386957506001600160a01b0380821660009081526005602090815260408083209388168352929052205460ff165b806125df5750836001600160a01b031661388284611158565b6001600160a01b031614949350505050565b826001600160a01b03166138a78261221e565b6001600160a01b03161461390b5760405162461bcd60e51b815260206004820152602560248201527f4552433732313a207472616e736665722066726f6d20696e636f72726563742060448201526437bbb732b960d91b60648201526084016115fb565b6001600160a01b03821661396d5760405162461bcd60e51b8152602060048201526024808201527f4552433732313a207472616e7366657220746f20746865207a65726f206164646044820152637265737360e01b60648201526084016115fb565b6139788383836141fa565b6139836000826137a8565b6001600160a01b03831660009081526003602052604081208054600192906139ac908490615de3565b90915550506001600160a01b03821660009081526003602052604081208054600192906139da908490615b0f565b909155505060008181526002602052604080822080546001600160a01b0319166001600160a01b0386811691821790925591518493918716917fddf252ad1be2c89b69c2b068fc378daa952ba7f163c4a11628f55a4df523b3ef91a461160f83838361460b565b600082815260196020526040812054613a63906001600160a01b031683613eb9565b600c5460405163e8a1268d60e01b8152600481018490526001600160a01b039091169063e8a1268d90602401602060405180830381865afa158015613aac573d6000803e3d6000fd5b505050506040513d601f19601f82011682018060405250810190613ad09190615df6565b90506110918282613f5b565b6001826007811115613af057613af0615909565b03613b0b576000838152601860205260409020819055505050565b6002826007811115613b1f57613b1f615909565b03613b3d576000838152601860205260409020600101819055505050565b6003826007811115613b5157613b51615909565b03613b6f576000838152601860205260409020600201819055505050565b6004826007811115613b8357613b83615909565b03613ba1576000838152601860205260409020600301819055505050565b6005826007811115613bb557613bb5615909565b03613bd3576000838152601860205260409020600401819055505050565b6006826007811115613be757613be7615909565b03613c05576000838152601860205260409020600501819055505050565b6007826007811115613c1957613c19615909565b0361160f576000838152601860205260409020600601819055505050565b60005b82811015612190576012805460010190819055613c578582614615565b604051638a54c52f60e01b81527355266d75d1a14e4572138116af39863ed6596e7f600482015260006024820181905262014a34604483015230606483015260848201839052906f6551c19487814612e58fe0681377575890638a54c52f9060a4016020604051808303816000875af1158015613cd8573d6000803e3d6000fd5b505050506040513d601f19601f82011682018060405250810190613cfc9190615adc565b600083815260196020908152604080832080546001600160a01b0319166001600160a01b038616908117909155808452601a90925291829020859055905163189acdbd60e31b81527341c8f39463a868d3a88af00cd0fe7102f30e44ec60048201529192509063c4d66de890602401600060405180830381600087803b158015613d8557600080fd5b505af1158015613d99573d6000803e3d6000fd5b5050600e546040516358a2727360e01b81526001600160a01b03858116600483015260ff8916602483015290911692506358a2727391506044016000604051808303816000875af1158015613df2573d6000803e3d6000fd5b505050506040513d6000823e601f3d908101601f19168201604052613e1a9190810190615be5565b5060008281526018602090815260409182902060088101859055825191820185905291600591016040516020818303038152906040528051906020012060001c81613e6757613e67615e13565b60098301805460ff19169290910660ff169190911790556040805180820190915260068152650c110d914e5160d21b6020820152600a820190613eaa9082615a1d565b50505050806001019050613c3a565b600c546040516331a9108f60e11b8152600481018390526000916001600160a01b031690636352211e90602401602060405180830381865afa158015613f03573d6000803e3d6000fd5b505050506040513d601f19601f82011682018060405250810190613f279190615adc565b9050826001600160a01b0316816001600160a01b03161461160f5760405163e6ca793160e01b815260040160405180910390fd5b600c5460405163e8a1268d60e01b8152600481018490526000916001600160a01b03169063e8a1268d90602401602060405180830381865afa158015613fa5573d6000803e3d6000fd5b505050506040513d601f19601f82011682018060405250810190613fc99190615df6565b9050816007811115613fdd57613fdd615909565b604051602001613fef91815260200190565b6040516020818303038152906040528051906020012081600781111561401757614017615909565b60405160200161402991815260200190565b604051602081830303815290604052805190602001201461160f57604051633e54c6fb60e11b815260040160405180910390fd5b816001600160a01b0316836001600160a01b0316036140be5760405162461bcd60e51b815260206004820152601960248201527f4552433732313a20617070726f766520746f2063616c6c65720000000000000060448201526064016115fb565b6001600160a01b03838116600081815260056020908152604080832094871680845294825291829020805460ff191686151590811790915591519182527f17307eab39ab6107e8899845ad3d59bd9653f200f220920489ca2b5937696c319101612e49565b638b78c6d81980546001600160a01b039092169182907f8be0079c531659141344cd1fd0a4f28419497f9722a3daafe3b4186f6b6457e0600080a355565b61416c848484613894565b6141788484848461476b565b6121905760405162461bcd60e51b81526004016115fb90615e29565b6000826141a1858461486c565b14949350505050565b60006001600160e01b031982166380ac58cd60e01b14806141db57506001600160e01b03198216635b5e139f60e01b145b8061109157506301ffc9a760e01b6001600160e01b0319831614611091565b6001600160a01b0383166142135761160f8383836148a7565b6015546142239062015180615b0f565b4210156142435760405163ae735dad60e01b815260040160405180910390fd5b6001600160a01b0382166000908152601a60205260409020541561427a57604051639a42da2960e01b815260040160405180910390fd5b6000818152601960205260408120546001600160a01b03169061429c84611c98565b9050600081516001600160401b038111156142b9576142b9614ec3565b6040519080825280602002602001820160405280156142e2578160200160208202803683370190505b50905060005b8251811015614363576019600084838151811061430757614307615824565b6020026020010151815260200190815260200160002060009054906101000a90046001600160a01b031682828151811061434357614343615824565b6001600160a01b03909216602092830291909101909101526001016142e8565b50600d5460405163644ec52760e01b8152600481018690526001600160a01b039091169063644ec52790602401600060405180830381600087803b1580156143aa57600080fd5b505af11580156143be573d6000803e3d6000fd5b5050600d54604051631e92beb560e31b8152600481018890526001600160a01b038981166024830152909116925063f495f5a89150604401600060405180830381600087803b15801561441057600080fd5b505af1158015614424573d6000803e3d6000fd5b5050600c5460405162438b6360e81b81526001600160a01b03878116600483015260009450909116915063438b630090602401600060405180830381865afa158015614474573d6000803e3d6000fd5b505050506040513d6000823e601f3d908101601f1916820160405261449c9190810190615be5565b905060005b81518110156145f65760008282815181106144be576144be615824565b6020908102919091010151600d54604051632e1d274f60e01b8152600481018390529192506001600160a01b031690632e1d274f90602401600060405180830381600087803b15801561451057600080fd5b505af1158015614524573d6000803e3d6000fd5b5050600d54604051632333520b60e11b81526001600160a01b039091169250634666a416915061455a9084908890600401615e7b565b600060405180830381600087803b15801561457457600080fd5b505af1158015614588573d6000803e3d6000fd5b5050600c5460405163487b1c2160e11b8152600481018590526001600160a01b0390911692506390f638429150602401600060405180830381600087803b1580156145d257600080fd5b505af11580156145e6573d6000803e3d6000fd5b50505050508060010190506144a1565b506146028787876148a7565b50505050505050565b61160f818461495f565b6001600160a01b03821661466b5760405162461bcd60e51b815260206004820181905260248201527f4552433732313a206d696e7420746f20746865207a65726f206164647265737360448201526064016115fb565b6000818152600260205260409020546001600160a01b0316156146d05760405162461bcd60e51b815260206004820152601c60248201527f4552433732313a20746f6b656e20616c7265616479206d696e7465640000000060448201526064016115fb565b6146dc600083836141fa565b6001600160a01b0382166000908152600360205260408120805460019290614705908490615b0f565b909155505060008181526002602052604080822080546001600160a01b0319166001600160a01b03861690811790915590518392907fddf252ad1be2c89b69c2b068fc378daa952ba7f163c4a11628f55a4df523b3ef908290a46111cc6000838361460b565b60006001600160a01b0384163b1561486157604051630a85bd0160e11b81526001600160a01b0385169063150b7a02906147af903390899088908890600401615e94565b6020604051808303816000875af19250505080156147ea575060408051601f3d908101601f191682019092526147e791810190615ec7565b60015b614847573d808015614818576040519150601f19603f3d011682016040523d82523d6000602084013e61481d565b606091505b50805160000361483f5760405162461bcd60e51b81526004016115fb90615e29565b805181602001fd5b6001600160e01b031916630a85bd0160e11b1490506125df565b506001949350505050565b600081815b8451811015611d275761489d8286838151811061489057614890615824565b6020026020010151614a48565b9150600101614871565b6001600160a01b038316614902576148fd81600880546000838152600960205260408120829055600182018355919091527ff3f7a9fe364faab93b216da50a3214154f22a0a2b415b23a84c8169e8b636ee30155565b614925565b816001600160a01b0316836001600160a01b031614614925576149258382614a74565b6001600160a01b03821661493c5761160f81614b11565b826001600160a01b0316826001600160a01b03161461160f5761160f8282614bc0565b6000828152601b60209081526040808320805482518185028101850190935280835291929091908301828280156149bf57602002820191906000526020600020905b81546001600160a01b031681526001909101906020018083116149a1575b5050506000868152601960205260408120549394506001600160a01b03909316929150505b8251811015614a3057614a1284848381518110614a0357614a03615824565b6020026020010151600061405d565b614a2882848381518110614a0357614a03615824565b6001016149e4565b506000848152601b6020526040812061219091614c7a565b6000818310614a645760008281526020849052604090206126f0565b5060009182526020526040902090565b60006001614a8184612440565b614a8b9190615de3565b600083815260076020526040902054909150808214614ade576001600160a01b03841660009081526006602090815260408083208584528252808320548484528184208190558352600790915290208190555b5060009182526007602090815260408084208490556001600160a01b039094168352600681528383209183525290812055565b600854600090614b2390600190615de3565b60008381526009602052604081205460088054939450909284908110614b4b57614b4b615824565b906000526020600020015490508060088381548110614b6c57614b6c615824565b6000918252602080832090910192909255828152600990915260408082208490558582528120556008805480614ba457614ba4615ee4565b6001900381819060005260206000200160009055905550505050565b6000614bcb83612440565b6001600160a01b039093166000908152600660209081526040808320868452825280832085905593825260079052919091209190915550565b8260028101928215614c3d579160200282015b82811115614c3d5782518290614c2d9082615a1d565b5091602001919060010190614c17565b50614c49929150614c98565b5090565b6040518060800160405280606081526020016060815260200160008152602001614c75614cb5565b905290565b5080546000825590600052602060002090810190611c399190614cdc565b80821115614c49576000614cac8282614cf1565b50600101614c98565b60405180604001604052806002905b6060815260200190600190039081614cc45790505090565b5b80821115614c495760008155600101614cdd565b508054614cfd90615771565b6000825580601f10614d0d575050565b601f016020900490600052602060002090810190611c399190614cdc565b6001600160a01b0381168114611c3957600080fd5b600060208284031215614d5257600080fd5b81356126f081614d2b565b6001600160e01b031981168114611c3957600080fd5b600060208284031215614d8557600080fd5b81356126f081614d5d565b600060208284031215614da257600080fd5b5035919050565b60005b83811015614dc4578181015183820152602001614dac565b50506000910152565b60008151808452614de5816020860160208601614da9565b601f01601f19169290920160200192915050565b6020815260006126f06020830184614dcd565b60008060408385031215614e1f57600080fd5b8235614e2a81614d2b565b946020939093013593505050565b848152608060208201526000614e516080830186614dcd565b8281036040840152614e638186614dcd565b90508281036060840152614e778185614dcd565b979650505050505050565b600080600060608486031215614e9757600080fd5b8335614ea281614d2b565b92506020840135614eb281614d2b565b929592945050506040919091013590565b634e487b7160e01b600052604160045260246000fd5b604080519081016001600160401b0381118282101715614efb57614efb614ec3565b60405290565b60405161018081016001600160401b0381118282101715614efb57614efb614ec3565b604051601f8201601f191681016001600160401b0381118282101715614f4c57614f4c614ec3565b604052919050565b60006001600160401b03821115614f6d57614f6d614ec3565b50601f01601f191660200190565b600082601f830112614f8c57600080fd5b8135614f9f614f9a82614f54565b614f24565b818152846020838601011115614fb457600080fd5b816020850160208301376000918101602001919091529392505050565b60006020808385031215614fe457600080fd5b82356001600160401b0380821115614ffb57600080fd5b818501915085601f83011261500f57600080fd5b615017614ed9565b80604084018881111561502957600080fd5b845b8181101561505d578035858111156150435760008081fd5b61504f8b828901614f7b565b85525092860192860161502b565b509098975050505050505050565b6000806040838503121561507e57600080fd5b50508035926020909101359150565b803560ff8116811461509e57600080fd5b919050565b8035801515811461509e57600080fd5b600080600080608085870312156150c957600080fd5b8435935060208501356001600160401b038111156150e657600080fd5b6150f287828801614f7b565b9350506151016040860161508d565b915061510f606086016150a3565b905092959194509250565b6020808252825182820181905260009190848201906040850190845b8181101561515257835183529284019291840191600101615136565b50909695505050505050565b600080600080600080600080610100898b03121561517b57600080fd5b505086359860208801359850604088013597606081013597506080810135965060a0810135955060c0810135945060e0013592509050565b6000806000606084860312156151c857600080fd5b8335925060208401356151da81614d2b565b91506151e8604085016150a3565b90509250925092565b60008151808452602080850194506020840160005b8381101561522b5781516001600160a01b031687529582019590820190600101615206565b509495945050505050565b6020815260006126f060208301846151f1565b60008060006060848603121561525e57600080fd5b833561526981614d2b565b9250602084013591506151e86040850161508d565b803563ffffffff8116811461509e57600080fd5b6000602082840312156152a457600080fd5b81356001600160401b03808211156152bb57600080fd5b9083019061018082860312156152d057600080fd5b6152d8614f01565b823581526020830135602082015260408301356040820152606083013560608201526080830135608082015260a083013560a082015260c083013560c082015261532460e0840161527e565b60e0820152610100838101359082015261012061534281850161508d565b90820152610140838101358381111561535a57600080fd5b61536688828701614f7b565b828401525050610160915061537c8284016150a3565b91810191909152949350505050565b60608152600061539e6060830186614dcd565b82810360208401526153b08186614dcd565b905082810360408401526115cb8185614dcd565b600080604083850312156153d757600080fd5b82356153e281614d2b565b91506153f0602084016150a3565b90509250929050565b60408152600061540c6040830185614dcd565b828103602084015261541e8185614dcd565b95945050505050565b60006101808e83528d60208401528c60408401528b60608401528a60808401528960a08401528860c084015263ffffffff881660e08401528661010084015260ff86166101208401528061014084015261548381840186614dcd565b9150508215156101608301529d9c50505050505050505050505050565b600080600080608085870312156154b657600080fd5b84356154c181614d2b565b935060208501356154d181614d2b565b92506040850135915060608501356001600160401b038111156154f357600080fd5b6154ff87828801614f7b565b91505092959194509250565b60006001600160401b0382111561552457615524614ec3565b5060051b60200190565b6000806040838503121561554157600080fd5b823591506020808401356001600160401b0381111561555f57600080fd5b8401601f8101861361557057600080fd5b803561557e614f9a8261550b565b81815260059190911b8201830190838101908883111561559d57600080fd5b928401925b828410156155bb578335825292840192908401906155a2565b80955050505050509250929050565b60088110611c3957600080fd5b600080604083850312156155ea57600080fd5b8235915060208301356155fc816155ca565b809150509250929050565b6020815281516020820152602082015160408201526040820151606082015260608201516080820152608082015160a082015260a082015160c082015260c082015160e0820152600060e08301516101006156698185018363ffffffff169052565b84015161012084810191909152840151905061014061568c8185018360ff169052565b8085015191505061018061016081818601526156ac6101a0860184614dcd565b95015115159301929092525090919050565b600080604083850312156156d157600080fd5b82356156dc81614d2b565b915060208301356155fc81614d2b565b6000806000806080858703121561570257600080fd5b8435935060208501356001600160401b038082111561572057600080fd5b61572c88838901614f7b565b9450604087013591508082111561574257600080fd5b61574e88838901614f7b565b9350606087013591508082111561576457600080fd5b506154ff87828801614f7b565b600181811c9082168061578557607f821691505b6020821081036157a557634e487b7160e01b600052602260045260246000fd5b50919050565b600082601f8301126157bc57600080fd5b81516157ca614f9a82614f54565b8181528460208386010111156157df57600080fd5b6125df826020830160208701614da9565b60006020828403121561580257600080fd5b81516001600160401b0381111561581857600080fd5b6125df848285016157ab565b634e487b7160e01b600052603260045260246000fd5b60808152600061584d6080830187614dcd565b6020838203818501528187518084528284019150828160051b850101838a0160005b8381101561589d57601f1987840301855261588b838351614dcd565b9486019492509085019060010161586f565b50506040870198909852505050506060909101919091525092915050565b6020808252602e908201527f4552433732313a2063616c6c6572206973206e6f7420746f6b656e206f776e6560408201526d1c881b9bdc88185c1c1c9bdd995960921b606082015260800190565b634e487b7160e01b600052602160045260246000fd5b60008060006060848603121561593457600080fd5b83516001600160401b038082111561594b57600080fd5b615957878388016157ab565b9450602086015191508082111561596d57600080fd5b615979878388016157ab565b9350604086015191508082111561598f57600080fd5b5061599c868287016157ab565b9150509250925092565b600083516159b8818460208801614da9565b8351908301906159cc818360208801614da9565b01949350505050565b601f82111561160f576000816000526020600020601f850160051c810160208610156159fe5750805b601f850160051c820191505b818110156133e557828155600101615a0a565b81516001600160401b03811115615a3657615a36614ec3565b615a4a81615a448454615771565b846159d5565b602080601f831160018114615a7f5760008415615a675750858301515b600019600386901b1c1916600185901b1785556133e5565b600085815260208120601f198616915b82811015615aae57888601518255948401946001909101908401615a8f565b5085821015615acc5787850151600019600388901b60f8161c191681555b5050505050600190811b01905550565b600060208284031215615aee57600080fd5b81516126f081614d2b565b634e487b7160e01b600052601160045260246000fd5b8082018082111561109157611091615af9565b60008154615b2f81615771565b808552602060018381168015615b4c5760018114615b6657615b94565b60ff1985168884015283151560051b880183019550615b94565b866000528260002060005b85811015615b8c5781548a8201860152908301908401615b71565b890184019650505b505050505092915050565b6020815260006126f06020830184615b22565b604081526009604082015268426f6479205479706560b81b60608201526080602082015260006126f06080830184615b22565b60006020808385031215615bf857600080fd5b82516001600160401b03811115615c0e57600080fd5b8301601f81018513615c1f57600080fd5b8051615c2d614f9a8261550b565b81815260059190911b82018301908381019087831115615c4c57600080fd5b928401925b82841015614e7757835182529284019290840190615c51565b808202811582820484141761109157611091615af9565b6000815160808452615c966080850182614dcd565b90506020808401518583036020870152615cb08382614dcd565b9250506040840151604086015260608401518583036060870152828390506040840160005b6002811015615d00578582038352615cee828551614dcd565b93850193928501929150600101615cd5565b50979650505050505050565b86815260c060208201526000615d2560c0830188614dcd565b8281036040840152615d378188614dcd565b90508281036060840152615d4b8187614dcd565b90508281036080840152615d5f8186614dcd565b905082810360a0840152615d738185615c81565b9998505050505050505050565b60008060408385031215615d9357600080fd5b82516001600160401b0380821115615daa57600080fd5b615db6868387016157ab565b93506020850151915080821115615dcc57600080fd5b50615dd9858286016157ab565b9150509250929050565b8181038181111561109157611091615af9565b600060208284031215615e0857600080fd5b81516126f0816155ca565b634e487b7160e01b600052601260045260246000fd5b60208082526032908201527f4552433732313a207472616e7366657220746f206e6f6e20455243373231526560408201527131b2b4bb32b91034b6b83632b6b2b73a32b960711b606082015260800190565b8281526040602082015260006125df60408301846151f1565b6001600160a01b03858116825284166020820152604081018390526080606082018190526000906115cb90830184614dcd565b600060208284031215615ed957600080fd5b81516126f081614d5d565b634e487b7160e01b600052603160045260246000fdfec94c1c47471ed97c1d309bab965192a3e4be3807f42d015b699bfbdcf24dd9f6a26469706673582212209ee734dd90f5710401e62bd9ef4102c78f75f3c159c74f1944f43bb0a278606f64736f6c63430008160033","linkReferences":{}},"methodIdentifiers":{"_debugPostConstructorMint()":"9c7be2f1","_nextTokenId()":"4a60f620","addNewBody(uint256,string,bytes,bytes)":"f2361e23","approve(address,uint256)":"095ea7b3","balanceOf(address)":"70a08231","bodyIndexToMetadata(uint256)":"0c83f9d7","cancelOwnershipHandover()":"54d1f13d","checkIfTraitIsEquipped(uint256,uint256)":"8aa1e4c8","chonkIdToApprovedOperators(uint256,uint256)":"55737f35","chonkTokens(uint256)":"b45d0316","collectionsMerkle()":"80d833f1","completeOwnershipHandover(address)":"f04e283e","creatorsMerkle()":"a1531780","deploymentTime()":"ecda10f5","equip(uint256,uint256)":"28257532","equipAll(uint256,uint256,uint256,uint256,uint256,uint256,uint256,uint256)":"4a4333a3","firstReleaseDataMinter()":"fd8b66de","friendsMerkle()":"fc863e64","getApproved(uint256)":"081812fc","getBackpackSVGs(uint256)":"14fe8ff4","getBodyImageSvg(uint256)":"916c546b","getBodySVGZmapsAndMetadata((uint256,uint256,uint256,uint256,uint256,uint256,uint256,uint32,uint256,uint8,string,bool))":"92012f08","getBodySvgAndMetadata((uint256,uint256,uint256,uint256,uint256,uint256,uint256,uint32,uint256,uint8,string,bool))":"a23830ae","getBodyZMap(uint256)":"306c7334","getChonk(uint256)":"d3d6873e","getChonkIdForTBAAddress(address)":"8472cbca","getChonkIdToApprovedOperators(uint256)":"67d2afe2","getChonkZMap(uint256)":"32875aa0","getFullPictureForTrait(uint256)":"66704349","getOwnerAndTBAAddressForChonkId(uint256)":"04003bd0","getTBAAddressForChonkId(uint256)":"f6a0c932","getTraitsForChonkId(uint256)":"9f6e4637","isApprovedForAll(address,address)":"e985e9c5","isTimelocked()":"50b03146","mainRenderer2D()":"f4bec0b6","mainRenderer3D()":"b66ef6e3","marketplace()":"abc8c7af","maxTraitsToOutput()":"e3d21555","mint(uint256,bytes32[])":"ba41b0c6","mintStartTime()":"931e2e49","name()":"06fdde03","oneYearFromDeployment()":"d59752eb","owner()":"8da5cb5b","ownerOf(uint256)":"6352211e","ownershipHandoverExpiresAt(address)":"fee81cf4","price()":"a035b1fe","renderAsDataUri(uint256)":"a1d62680","renderAsDataUri2D(uint256)":"f3f8efb9","renderAsDataUri3D(uint256)":"dceef0ec","renounceOwnership()":"715018a6","requestOwnershipHandover()":"25692962","safeTransferFrom(address,address,uint256)":"42842e0e","safeTransferFrom(address,address,uint256,bytes)":"b88d4fde","setApprovalForAll(address,bool)":"a22cb465","setApprovalForAllChonksMarketplace(uint256,address,bool)":"550ab247","setChonkAttributes(uint256,string,uint8,bool)":"343b4887","setCollectionsMerkle(bytes32)":"8d2a2f11","setCreatorsMerkle(bytes32)":"b194b6f1","setDescriptionParts(string[2])":"26f2052a","setFirstReleaseDataMinter(address)":"b84b160d","setFriendsMerkleRoot(bytes32)":"9eb2660c","setMainRenderer2D(address)":"7e2e6c47","setMainRenderer3D(address)":"00179206","setMarketplace(address)":"73ad6c2d","setMaxTraitsToOutput(uint256)":"33d3d9bf","setMintStartTime(uint256)":"d5b3621b","setPrice(uint256)":"91b7f5ed","setTraitsContract(address)":"5eabd84a","setWithdrawAddress(address)":"3ab1a494","supportsInterface(bytes4)":"01ffc9a7","symbol()":"95d89b41","tbaAddressToTokenId(address)":"a4bf9a00","teamMint(address,uint256,uint8)":"6e51665f","teamReserve()":"4287f14a","tokenByIndex(uint256)":"4f6ccce7","tokenIdToTBAAccountAddress(uint256)":"9c05d68d","tokenOfOwnerByIndex(address,uint256)":"2f745c59","tokenURI(uint256)":"c87b56dd","totalSupply()":"18160ddd","traitsContract()":"c093afdb","transferFrom(address,address,uint256)":"23b872dd","transferOwnership(address)":"f2fde38b","unequip(uint256,uint8)":"cdb6dd5c","unequipAll(uint256)":"3044825b","walletOfOwner(address)":"438b6300","withdraw()":"3ccfd60b","withdrawAddress()":"1581b600"},"id":42}