{"abi":[{"type":"constructor","inputs":[],"stateMutability":"nonpayable"},{"type":"function","name":"_debugPostConstructorMint","inputs":[],"outputs":[],"stateMutability":"nonpayable"},{"type":"function","name":"addNewBody","inputs":[{"name":"_bodyIndex","type":"uint256","internalType":"uint256"},{"name":"_bodyName","type":"string","internalType":"string"},{"name":"_colorMap","type":"bytes","internalType":"bytes"},{"name":"_zMap","type":"bytes","internalType":"bytes"}],"outputs":[],"stateMutability":"nonpayable"},{"type":"function","name":"approve","inputs":[{"name":"_operator","type":"address","internalType":"address"},{"name":"_chonkId","type":"uint256","internalType":"uint256"}],"outputs":[],"stateMutability":"nonpayable"},{"type":"function","name":"balanceOf","inputs":[{"name":"owner","type":"address","internalType":"address"}],"outputs":[{"name":"","type":"uint256","internalType":"uint256"}],"stateMutability":"view"},{"type":"function","name":"bodyIndexToMetadata","inputs":[{"name":"","type":"uint256","internalType":"uint256"}],"outputs":[{"name":"bodyIndex","type":"uint256","internalType":"uint256"},{"name":"bodyName","type":"string","internalType":"string"},{"name":"colorMap","type":"bytes","internalType":"bytes"},{"name":"zMap","type":"bytes","internalType":"bytes"}],"stateMutability":"view"},{"type":"function","name":"cancelOwnershipHandover","inputs":[],"outputs":[],"stateMutability":"payable"},{"type":"function","name":"checkIfTraitIsEquipped","inputs":[{"name":"_chonkId","type":"uint256","internalType":"uint256"},{"name":"_traitId","type":"uint256","internalType":"uint256"}],"outputs":[{"name":"","type":"bool","internalType":"bool"}],"stateMutability":"view"},{"type":"function","name":"chonkEquipHelper","inputs":[],"outputs":[{"name":"","type":"address","internalType":"contract ChonkEquipHelper"}],"stateMutability":"view"},{"type":"function","name":"chonkIdToApprovedOperators","inputs":[{"name":"chonkId","type":"uint256","internalType":"uint256"},{"name":"","type":"uint256","internalType":"uint256"}],"outputs":[{"name":"operators","type":"address","internalType":"address"}],"stateMutability":"view"},{"type":"function","name":"chonkTokens","inputs":[{"name":"tokenID","type":"uint256","internalType":"uint256"}],"outputs":[{"name":"tokenId","type":"uint256","internalType":"uint256"},{"name":"headId","type":"uint256","internalType":"uint256"},{"name":"hairId","type":"uint256","internalType":"uint256"},{"name":"faceId","type":"uint256","internalType":"uint256"},{"name":"accessoryId","type":"uint256","internalType":"uint256"},{"name":"topId","type":"uint256","internalType":"uint256"},{"name":"bottomId","type":"uint256","internalType":"uint256"},{"name":"shoesId","type":"uint256","internalType":"uint256"},{"name":"bodyIndex","type":"uint8","internalType":"uint8"},{"name":"backgroundColor","type":"string","internalType":"string"},{"name":"render3D","type":"bool","internalType":"bool"}],"stateMutability":"view"},{"type":"function","name":"collectionsAddressDidUse","inputs":[{"name":"","type":"address","internalType":"address"}],"outputs":[{"name":"","type":"bool","internalType":"bool"}],"stateMutability":"view"},{"type":"function","name":"collectionsMerkle","inputs":[],"outputs":[{"name":"","type":"bytes32","internalType":"bytes32"}],"stateMutability":"view"},{"type":"function","name":"completeOwnershipHandover","inputs":[{"name":"pendingOwner","type":"address","internalType":"address"}],"outputs":[],"stateMutability":"payable"},{"type":"function","name":"creatorsAddressDidUse","inputs":[{"name":"","type":"address","internalType":"address"}],"outputs":[{"name":"","type":"bool","internalType":"bool"}],"stateMutability":"view"},{"type":"function","name":"creatorsMerkle","inputs":[],"outputs":[{"name":"","type":"bytes32","internalType":"bytes32"}],"stateMutability":"view"},{"type":"function","name":"deploymentTime","inputs":[],"outputs":[{"name":"","type":"uint256","internalType":"uint256"}],"stateMutability":"view"},{"type":"function","name":"equip","inputs":[{"name":"_chonkTokenId","type":"uint256","internalType":"uint256"},{"name":"_traitTokenId","type":"uint256","internalType":"uint256"}],"outputs":[],"stateMutability":"nonpayable"},{"type":"function","name":"equipMany","inputs":[{"name":"_chonkTokenId","type":"uint256","internalType":"uint256"},{"name":"_traitTokenIds","type":"uint256[]","internalType":"uint256[]"},{"name":"_traitCategories","type":"uint8[]","internalType":"uint8[]"}],"outputs":[],"stateMutability":"nonpayable"},{"type":"function","name":"firstReleaseDataMinter","inputs":[],"outputs":[{"name":"","type":"address","internalType":"contract FirstReleaseDataMinter"}],"stateMutability":"view"},{"type":"function","name":"friendsAddressDidUse","inputs":[{"name":"","type":"address","internalType":"address"}],"outputs":[{"name":"","type":"bool","internalType":"bool"}],"stateMutability":"view"},{"type":"function","name":"friendsMerkle","inputs":[],"outputs":[{"name":"","type":"bytes32","internalType":"bytes32"}],"stateMutability":"view"},{"type":"function","name":"getApproved","inputs":[{"name":"tokenId","type":"uint256","internalType":"uint256"}],"outputs":[{"name":"","type":"address","internalType":"address"}],"stateMutability":"view"},{"type":"function","name":"getBackpackSVGs","inputs":[{"name":"_tokenId","type":"uint256","internalType":"uint256"}],"outputs":[{"name":"","type":"string","internalType":"string"}],"stateMutability":"view"},{"type":"function","name":"getBodyImageSvg","inputs":[{"name":"_index","type":"uint256","internalType":"uint256"}],"outputs":[{"name":"svg","type":"string","internalType":"string"}],"stateMutability":"view"},{"type":"function","name":"getBodySVGZmapsAndMetadata","inputs":[{"name":"storedChonk","type":"tuple","internalType":"struct IChonkStorage.StoredChonk","components":[{"name":"tokenId","type":"uint256","internalType":"uint256"},{"name":"headId","type":"uint256","internalType":"uint256"},{"name":"hairId","type":"uint256","internalType":"uint256"},{"name":"faceId","type":"uint256","internalType":"uint256"},{"name":"accessoryId","type":"uint256","internalType":"uint256"},{"name":"topId","type":"uint256","internalType":"uint256"},{"name":"bottomId","type":"uint256","internalType":"uint256"},{"name":"shoesId","type":"uint256","internalType":"uint256"},{"name":"bodyIndex","type":"uint8","internalType":"uint8"},{"name":"backgroundColor","type":"string","internalType":"string"},{"name":"render3D","type":"bool","internalType":"bool"}]}],"outputs":[{"name":"","type":"string","internalType":"string"},{"name":"","type":"bytes","internalType":"bytes"},{"name":"","type":"string","internalType":"string"}],"stateMutability":"view"},{"type":"function","name":"getBodySvgAndMetadata","inputs":[{"name":"storedChonk","type":"tuple","internalType":"struct IChonkStorage.StoredChonk","components":[{"name":"tokenId","type":"uint256","internalType":"uint256"},{"name":"headId","type":"uint256","internalType":"uint256"},{"name":"hairId","type":"uint256","internalType":"uint256"},{"name":"faceId","type":"uint256","internalType":"uint256"},{"name":"accessoryId","type":"uint256","internalType":"uint256"},{"name":"topId","type":"uint256","internalType":"uint256"},{"name":"bottomId","type":"uint256","internalType":"uint256"},{"name":"shoesId","type":"uint256","internalType":"uint256"},{"name":"bodyIndex","type":"uint8","internalType":"uint8"},{"name":"backgroundColor","type":"string","internalType":"string"},{"name":"render3D","type":"bool","internalType":"bool"}]}],"outputs":[{"name":"","type":"string","internalType":"string"},{"name":"","type":"string","internalType":"string"}],"stateMutability":"view"},{"type":"function","name":"getBodyZMap","inputs":[{"name":"_tokenId","type":"uint256","internalType":"uint256"}],"outputs":[{"name":"","type":"string","internalType":"string"}],"stateMutability":"view"},{"type":"function","name":"getChonk","inputs":[{"name":"_tokenId","type":"uint256","internalType":"uint256"}],"outputs":[{"name":"","type":"tuple","internalType":"struct IChonkStorage.StoredChonk","components":[{"name":"tokenId","type":"uint256","internalType":"uint256"},{"name":"headId","type":"uint256","internalType":"uint256"},{"name":"hairId","type":"uint256","internalType":"uint256"},{"name":"faceId","type":"uint256","internalType":"uint256"},{"name":"accessoryId","type":"uint256","internalType":"uint256"},{"name":"topId","type":"uint256","internalType":"uint256"},{"name":"bottomId","type":"uint256","internalType":"uint256"},{"name":"shoesId","type":"uint256","internalType":"uint256"},{"name":"bodyIndex","type":"uint8","internalType":"uint8"},{"name":"backgroundColor","type":"string","internalType":"string"},{"name":"render3D","type":"bool","internalType":"bool"}]}],"stateMutability":"view"},{"type":"function","name":"getChonkIdForTBAAddress","inputs":[{"name":"_tbaAddress","type":"address","internalType":"address"}],"outputs":[{"name":"","type":"uint256","internalType":"uint256"}],"stateMutability":"view"},{"type":"function","name":"getChonkIdToApprovedOperators","inputs":[{"name":"_chonkId","type":"uint256","internalType":"uint256"}],"outputs":[{"name":"","type":"address[]","internalType":"address[]"}],"stateMutability":"view"},{"type":"function","name":"getChonkZMap","inputs":[{"name":"_tokenId","type":"uint256","internalType":"uint256"}],"outputs":[{"name":"","type":"string","internalType":"string"}],"stateMutability":"view"},{"type":"function","name":"getFullPictureForTrait","inputs":[{"name":"_chonkTraitTokenId","type":"uint256","internalType":"uint256"}],"outputs":[{"name":"traitOwnerTBA","type":"address","internalType":"address"},{"name":"chonkTokenId","type":"uint256","internalType":"uint256"},{"name":"chonkOwner","type":"address","internalType":"address"},{"name":"isEquipped","type":"bool","internalType":"bool"}],"stateMutability":"view"},{"type":"function","name":"getOwnerAndTBAAddressForChonkId","inputs":[{"name":"_chonkId","type":"uint256","internalType":"uint256"}],"outputs":[{"name":"owner","type":"address","internalType":"address"},{"name":"tbaAddress","type":"address","internalType":"address"}],"stateMutability":"view"},{"type":"function","name":"getTBAAddressForChonkId","inputs":[{"name":"_chonkId","type":"uint256","internalType":"uint256"}],"outputs":[{"name":"","type":"address","internalType":"address"}],"stateMutability":"view"},{"type":"function","name":"getTraitsForChonkId","inputs":[{"name":"_chonkId","type":"uint256","internalType":"uint256"}],"outputs":[{"name":"traitTokens","type":"uint256[]","internalType":"uint256[]"}],"stateMutability":"view"},{"type":"function","name":"initialMintStartTime","inputs":[],"outputs":[{"name":"","type":"uint256","internalType":"uint256"}],"stateMutability":"view"},{"type":"function","name":"isApprovedForAll","inputs":[{"name":"owner","type":"address","internalType":"address"},{"name":"operator","type":"address","internalType":"address"}],"outputs":[{"name":"","type":"bool","internalType":"bool"}],"stateMutability":"view"},{"type":"function","name":"isTimelocked","inputs":[],"outputs":[{"name":"","type":"bool","internalType":"bool"}],"stateMutability":"view"},{"type":"function","name":"mainRenderer2D","inputs":[],"outputs":[{"name":"","type":"address","internalType":"contract MainRenderer2D"}],"stateMutability":"view"},{"type":"function","name":"mainRenderer3D","inputs":[],"outputs":[{"name":"","type":"address","internalType":"contract MainRenderer3D"}],"stateMutability":"view"},{"type":"function","name":"marketplace","inputs":[],"outputs":[{"name":"","type":"address","internalType":"contract ChonksMarket"}],"stateMutability":"view"},{"type":"function","name":"maxTraitsToOutput","inputs":[],"outputs":[{"name":"","type":"uint256","internalType":"uint256"}],"stateMutability":"view"},{"type":"function","name":"mint","inputs":[{"name":"_amount","type":"uint256","internalType":"uint256"},{"name":"_merkleProof","type":"bytes32[]","internalType":"bytes32[]"}],"outputs":[],"stateMutability":"payable"},{"type":"function","name":"name","inputs":[],"outputs":[{"name":"","type":"string","internalType":"string"}],"stateMutability":"view"},{"type":"function","name":"nextTokenId","inputs":[],"outputs":[{"name":"","type":"uint256","internalType":"uint256"}],"stateMutability":"view"},{"type":"function","name":"oneYearFromDeployment","inputs":[],"outputs":[{"name":"","type":"uint256","internalType":"uint256"}],"stateMutability":"view"},{"type":"function","name":"owner","inputs":[],"outputs":[{"name":"result","type":"address","internalType":"address"}],"stateMutability":"view"},{"type":"function","name":"ownerOf","inputs":[{"name":"tokenId","type":"uint256","internalType":"uint256"}],"outputs":[{"name":"","type":"address","internalType":"address"}],"stateMutability":"view"},{"type":"function","name":"ownershipHandoverExpiresAt","inputs":[{"name":"pendingOwner","type":"address","internalType":"address"}],"outputs":[{"name":"result","type":"uint256","internalType":"uint256"}],"stateMutability":"view"},{"type":"function","name":"price","inputs":[],"outputs":[{"name":"","type":"uint256","internalType":"uint256"}],"stateMutability":"view"},{"type":"function","name":"renderAsDataUri","inputs":[{"name":"_tokenId","type":"uint256","internalType":"uint256"}],"outputs":[{"name":"","type":"string","internalType":"string"}],"stateMutability":"view"},{"type":"function","name":"renderAsDataUri2D","inputs":[{"name":"_tokenId","type":"uint256","internalType":"uint256"}],"outputs":[{"name":"","type":"string","internalType":"string"}],"stateMutability":"view"},{"type":"function","name":"renderAsDataUri3D","inputs":[{"name":"_tokenId","type":"uint256","internalType":"uint256"}],"outputs":[{"name":"","type":"string","internalType":"string"}],"stateMutability":"view"},{"type":"function","name":"renounceOwnership","inputs":[],"outputs":[],"stateMutability":"payable"},{"type":"function","name":"requestOwnershipHandover","inputs":[],"outputs":[],"stateMutability":"payable"},{"type":"function","name":"safeTransferFrom","inputs":[{"name":"from","type":"address","internalType":"address"},{"name":"to","type":"address","internalType":"address"},{"name":"tokenId","type":"uint256","internalType":"uint256"}],"outputs":[],"stateMutability":"nonpayable"},{"type":"function","name":"safeTransferFrom","inputs":[{"name":"from","type":"address","internalType":"address"},{"name":"to","type":"address","internalType":"address"},{"name":"tokenId","type":"uint256","internalType":"uint256"},{"name":"data","type":"bytes","internalType":"bytes"}],"outputs":[],"stateMutability":"nonpayable"},{"type":"function","name":"setApprovalForAll","inputs":[{"name":"_operator","type":"address","internalType":"address"},{"name":"_approved","type":"bool","internalType":"bool"}],"outputs":[],"stateMutability":"nonpayable"},{"type":"function","name":"setApprovalForAllChonksMarketplace","inputs":[{"name":"_chonkId","type":"uint256","internalType":"uint256"},{"name":"_operator","type":"address","internalType":"address"},{"name":"_approved","type":"bool","internalType":"bool"}],"outputs":[],"stateMutability":"nonpayable"},{"type":"function","name":"setChonkAttributes","inputs":[{"name":"_tokenId","type":"uint256","internalType":"uint256"},{"name":"_color","type":"string","internalType":"string"},{"name":"_bodyIndex","type":"uint8","internalType":"uint8"},{"name":"_render3D","type":"bool","internalType":"bool"}],"outputs":[],"stateMutability":"nonpayable"},{"type":"function","name":"setChonkEquipHelper","inputs":[{"name":"_chonkEquipHelper","type":"address","internalType":"address"}],"outputs":[],"stateMutability":"nonpayable"},{"type":"function","name":"setCollectionsMerkle","inputs":[{"name":"_merkleRoot","type":"bytes32","internalType":"bytes32"}],"outputs":[],"stateMutability":"nonpayable"},{"type":"function","name":"setCreatorsMerkle","inputs":[{"name":"_merkleRoot","type":"bytes32","internalType":"bytes32"}],"outputs":[],"stateMutability":"nonpayable"},{"type":"function","name":"setDescriptionParts","inputs":[{"name":"_descriptionParts","type":"string[2]","internalType":"string[2]"}],"outputs":[],"stateMutability":"nonpayable"},{"type":"function","name":"setFirstReleaseDataMinter","inputs":[{"name":"_dataContract","type":"address","internalType":"address"}],"outputs":[],"stateMutability":"nonpayable"},{"type":"function","name":"setFriendsMerkleRoot","inputs":[{"name":"_merkleRoot","type":"bytes32","internalType":"bytes32"}],"outputs":[],"stateMutability":"nonpayable"},{"type":"function","name":"setMainRenderer2D","inputs":[{"name":"_mainRenderer2D","type":"address","internalType":"address"}],"outputs":[],"stateMutability":"nonpayable"},{"type":"function","name":"setMainRenderer3D","inputs":[{"name":"_mainRenderer3D","type":"address","internalType":"address"}],"outputs":[],"stateMutability":"nonpayable"},{"type":"function","name":"setMarketplace","inputs":[{"name":"_marketplace","type":"address","internalType":"address"}],"outputs":[],"stateMutability":"nonpayable"},{"type":"function","name":"setMaxTraitsToOutput","inputs":[{"name":"_maxTraitsToOutput","type":"uint256","internalType":"uint256"}],"outputs":[],"stateMutability":"nonpayable"},{"type":"function","name":"setMintStartTime","inputs":[{"name":"_initialMintStartTime","type":"uint256","internalType":"uint256"}],"outputs":[],"stateMutability":"nonpayable"},{"type":"function","name":"setPrice","inputs":[{"name":"_priceInWei","type":"uint256","internalType":"uint256"}],"outputs":[],"stateMutability":"nonpayable"},{"type":"function","name":"setTraitsContract","inputs":[{"name":"_address","type":"address","internalType":"contract ChonkTraits"}],"outputs":[],"stateMutability":"nonpayable"},{"type":"function","name":"setWithdrawAddress","inputs":[{"name":"_withdrawAddress","type":"address","internalType":"address"}],"outputs":[],"stateMutability":"nonpayable"},{"type":"function","name":"supportsInterface","inputs":[{"name":"interfaceId","type":"bytes4","internalType":"bytes4"}],"outputs":[{"name":"","type":"bool","internalType":"bool"}],"stateMutability":"view"},{"type":"function","name":"symbol","inputs":[],"outputs":[{"name":"","type":"string","internalType":"string"}],"stateMutability":"view"},{"type":"function","name":"tbaAddressToTokenId","inputs":[{"name":"","type":"address","internalType":"address"}],"outputs":[{"name":"","type":"uint256","internalType":"uint256"}],"stateMutability":"view"},{"type":"function","name":"teamMint","inputs":[{"name":"_to","type":"address","internalType":"address"},{"name":"_amount","type":"uint256","internalType":"uint256"},{"name":"_traitCount","type":"uint8","internalType":"uint8"}],"outputs":[],"stateMutability":"nonpayable"},{"type":"function","name":"teamReserve","inputs":[],"outputs":[],"stateMutability":"nonpayable"},{"type":"function","name":"tokenByIndex","inputs":[{"name":"index","type":"uint256","internalType":"uint256"}],"outputs":[{"name":"","type":"uint256","internalType":"uint256"}],"stateMutability":"view"},{"type":"function","name":"tokenIdToTBAAccountAddress","inputs":[{"name":"","type":"uint256","internalType":"uint256"}],"outputs":[{"name":"","type":"address","internalType":"address"}],"stateMutability":"view"},{"type":"function","name":"tokenOfOwnerByIndex","inputs":[{"name":"owner","type":"address","internalType":"address"},{"name":"index","type":"uint256","internalType":"uint256"}],"outputs":[{"name":"","type":"uint256","internalType":"uint256"}],"stateMutability":"view"},{"type":"function","name":"tokenURI","inputs":[{"name":"_tokenId","type":"uint256","internalType":"uint256"}],"outputs":[{"name":"","type":"string","internalType":"string"}],"stateMutability":"view"},{"type":"function","name":"totalSupply","inputs":[],"outputs":[{"name":"","type":"uint256","internalType":"uint256"}],"stateMutability":"view"},{"type":"function","name":"traitsContract","inputs":[],"outputs":[{"name":"","type":"address","internalType":"contract ChonkTraits"}],"stateMutability":"view"},{"type":"function","name":"transferFrom","inputs":[{"name":"from","type":"address","internalType":"address"},{"name":"to","type":"address","internalType":"address"},{"name":"tokenId","type":"uint256","internalType":"uint256"}],"outputs":[],"stateMutability":"nonpayable"},{"type":"function","name":"transferOwnership","inputs":[{"name":"newOwner","type":"address","internalType":"address"}],"outputs":[],"stateMutability":"payable"},{"type":"function","name":"unequip","inputs":[{"name":"_chonkTokenId","type":"uint256","internalType":"uint256"},{"name":"traitType","type":"uint8","internalType":"enum TraitCategory.Name"}],"outputs":[],"stateMutability":"nonpayable"},{"type":"function","name":"unequipAll","inputs":[{"name":"_chonkTokenId","type":"uint256","internalType":"uint256"}],"outputs":[],"stateMutability":"nonpayable"},{"type":"function","name":"walletOfOwner","inputs":[{"name":"_owner","type":"address","internalType":"address"}],"outputs":[{"name":"","type":"uint256[]","internalType":"uint256[]"}],"stateMutability":"view"},{"type":"function","name":"withdraw","inputs":[],"outputs":[],"stateMutability":"nonpayable"},{"type":"function","name":"withdrawAddress","inputs":[],"outputs":[{"name":"","type":"address","internalType":"address"}],"stateMutability":"view"},{"type":"event","name":"Approval","inputs":[{"name":"owner","type":"address","indexed":true,"internalType":"address"},{"name":"approved","type":"address","indexed":true,"internalType":"address"},{"name":"tokenId","type":"uint256","indexed":true,"internalType":"uint256"}],"anonymous":false},{"type":"event","name":"ApprovalForAll","inputs":[{"name":"owner","type":"address","indexed":true,"internalType":"address"},{"name":"operator","type":"address","indexed":true,"internalType":"address"},{"name":"approved","type":"bool","indexed":false,"internalType":"bool"}],"anonymous":false},{"type":"event","name":"BatchMetadataUpdate","inputs":[{"name":"_fromTokenId","type":"uint256","indexed":false,"internalType":"uint256"},{"name":"_toTokenId","type":"uint256","indexed":false,"internalType":"uint256"}],"anonymous":false},{"type":"event","name":"Equip","inputs":[{"name":"owner","type":"address","indexed":true,"internalType":"address"},{"name":"tokenId","type":"uint256","indexed":true,"internalType":"uint256"},{"name":"traitTokenId","type":"uint256","indexed":true,"internalType":"uint256"},{"name":"traitCategory","type":"uint8","indexed":false,"internalType":"uint8"}],"anonymous":false},{"type":"event","name":"EquipAll","inputs":[{"name":"owner","type":"address","indexed":true,"internalType":"address"},{"name":"tokenId","type":"uint256","indexed":true,"internalType":"uint256"}],"anonymous":false},{"type":"event","name":"MetadataUpdate","inputs":[{"name":"_tokenId","type":"uint256","indexed":false,"internalType":"uint256"}],"anonymous":false},{"type":"event","name":"Mint","inputs":[{"name":"owner","type":"address","indexed":true,"internalType":"address"},{"name":"tokenId","type":"uint256","indexed":true,"internalType":"uint256"}],"anonymous":false},{"type":"event","name":"OwnershipHandoverCanceled","inputs":[{"name":"pendingOwner","type":"address","indexed":true,"internalType":"address"}],"anonymous":false},{"type":"event","name":"OwnershipHandoverRequested","inputs":[{"name":"pendingOwner","type":"address","indexed":true,"internalType":"address"}],"anonymous":false},{"type":"event","name":"OwnershipTransferred","inputs":[{"name":"oldOwner","type":"address","indexed":true,"internalType":"address"},{"name":"newOwner","type":"address","indexed":true,"internalType":"address"}],"anonymous":false},{"type":"event","name":"Transfer","inputs":[{"name":"from","type":"address","indexed":true,"internalType":"address"},{"name":"to","type":"address","indexed":true,"internalType":"address"},{"name":"tokenId","type":"uint256","indexed":true,"internalType":"uint256"}],"anonymous":false},{"type":"event","name":"Unequip","inputs":[{"name":"owner","type":"address","indexed":true,"internalType":"address"},{"name":"tokenId","type":"uint256","indexed":true,"internalType":"uint256"},{"name":"traitCategory","type":"uint8","indexed":false,"internalType":"uint8"}],"anonymous":false},{"type":"event","name":"UnequipAll","inputs":[{"name":"owner","type":"address","indexed":true,"internalType":"address"},{"name":"tokenId","type":"uint256","indexed":true,"internalType":"uint256"}],"anonymous":false},{"type":"error","name":"AlreadyInitialized","inputs":[]},{"type":"error","name":"CanOnlyReserveFirstTwo","inputs":[]},{"type":"error","name":"CantTransferDuringMint","inputs":[]},{"type":"error","name":"CantTransferToTBAs","inputs":[]},{"type":"error","name":"ChonkDoesntExist","inputs":[]},{"type":"error","name":"FirstReleaseDataMinterNotSet","inputs":[]},{"type":"error","name":"IncorrectChonkOwner","inputs":[]},{"type":"error","name":"IncorrectTBAOwner","inputs":[]},{"type":"error","name":"IncorrectTraitType","inputs":[]},{"type":"error","name":"InsufficientFunds","inputs":[]},{"type":"error","name":"InvalidBodyIndex","inputs":[]},{"type":"error","name":"InvalidColor","inputs":[]},{"type":"error","name":"InvalidMintAmount","inputs":[]},{"type":"error","name":"InvalidTraitCount","inputs":[]},{"type":"error","name":"MintEnded","inputs":[]},{"type":"error","name":"MintNotStarted","inputs":[]},{"type":"error","name":"MintStartTimeAlreadySet","inputs":[]},{"type":"error","name":"NewOwnerIsZeroAddress","inputs":[]},{"type":"error","name":"NoHandoverRequest","inputs":[]},{"type":"error","name":"Timelocked","inputs":[]},{"type":"error","name":"Unauthorized","inputs":[]},{"type":"error","name":"UseUnequip","inputs":[]},{"type":"error","name":"WithdrawFailed","inputs":[]}],"bytecode":{"object":"0x60a060405260636012553480156200001657600080fd5b506040518060400160405280600681526020016543686f6e6b7360d01b8152506040518060400160405280600681526020016543484f4e4b5360d01b815250816000908162000066919062000175565b50600162000075828262000175565b50506001600a5550620000883362000092565b4260805262000241565b6001600160a01b0316638b78c6d8198190558060007f8be0079c531659141344cd1fd0a4f28419497f9722a3daafe3b4186f6b6457e08180a350565b634e487b7160e01b600052604160045260246000fd5b600181811c90821680620000f957607f821691505b6020821081036200011a57634e487b7160e01b600052602260045260246000fd5b50919050565b601f82111562000170576000816000526020600020601f850160051c810160208610156200014b5750805b601f850160051c820191505b818110156200016c5782815560010162000157565b5050505b505050565b81516001600160401b03811115620001915762000191620000ce565b620001a981620001a28454620000e4565b8462000120565b602080601f831160018114620001e15760008415620001c85750858301515b600019600386901b1c1916600185901b1785556200016c565b600085815260208120601f198616915b828110156200021257888601518255948401946001909101908401620001f1565b5085821015620002315787850151600019600388901b60f8161c191681555b5050505050600190811b01905550565b6080516159a26200026460003960008181610ff50152612e9101526159a26000f3fe6080604052600436106104f65760003560e01c80638aa1e4c81161028c578063ba3589c81161015a578063e3d21555116100cc578063f3f8efb911610085578063f3f8efb91461105d578063f4bec0b61461107d578063f6a0c9321461109d578063fc863e64146110d3578063fd8b66de146110e9578063fee81cf41461110957600080fd5b8063e3d2155514610f84578063e985e9c514610f9a578063ecda10f514610fe3578063f04e283e14611017578063f2361e231461102a578063f2fde38b1461104a57600080fd5b8063c87b56dd1161011e578063c87b56dd14610ec2578063cdb6dd5c14610ee2578063d3d6873e14610f02578063d59752eb14610f2f578063d5b3621b14610f44578063dceef0ec14610f6457600080fd5b8063ba3589c814610e10578063ba41b0c614610e3f578063be7ff59a14610e52578063bf7f80a614610e82578063c093afdb14610ea257600080fd5b8063a1531780116101fe578063b194b6f1116101b7578063b194b6f114610d43578063b45d031614610d63578063b66ef6e314610d9a578063b84b160d14610dba578063b88d4fde14610dda578063b91fdc8c14610dfa57600080fd5b8063a153178014610c72578063a1d6268014610c88578063a22cb46514610ca8578063a4bf9a0014610cc8578063abc8c7af14610cf5578063b014b77a14610d1557600080fd5b806395d89b411161025057806395d89b4114610bbc5780639c05d68d14610bd15780639c7be2f114610c075780639eb2660c14610c1c5780639f6e463714610c3c578063a035b1fe14610c5c57600080fd5b80638aa1e4c814610b235780638d2a2f1114610b435780638da5cb5b14610b63578063916c546b14610b7c57806391b7f5ed14610b9c57600080fd5b80633ccfd60b116103c95780636352211e1161033b57806373ad6c2d116102f457806373ad6c2d14610a6157806375676db814610a8157806375794a3c14610aa15780637e2e6c4714610ab757806380d833f114610ad75780638472cbca14610aed57600080fd5b80636352211e14610977578063667043491461099757806367d2afe2146109ec5780636e51665f14610a1957806370a0823114610a39578063715018a614610a5957600080fd5b806350b031461161038d57806350b03146146108ca57806354d1f13d146108df578063550ab247146108e757806355737f351461090757806359d591d0146109275780635eabd84a1461095757600080fd5b80633ccfd60b1461083357806342842e0e146108485780634287f14a14610868578063438b63001461087d5780634f6ccce7146108aa57600080fd5b80631e8ff18f1161046d5780633044825b116104265780633044825b14610773578063306c73341461079357806332875aa0146107b357806333d3d9bf146107d3578063343b4887146107f35780633ab1a4941461081357600080fd5b80631e8ff18f146106bb57806323b872dd146106eb578063256929621461070b57806326f2052a1461071357806328257532146107335780632f745c591461075357600080fd5b8063095ea7b3116104bf578063095ea7b3146105ec5780630a99a3501461060c5780630c83f9d71461062c57806314fe8ff41461065c5780631581b6001461067c57806318160ddd1461069c57600080fd5b8062179206146104fb57806301ffc9a71461051d57806304003bd01461055257806306fdde0314610592578063081812fc146105b4575b600080fd5b34801561050757600080fd5b5061051b6105163660046147c3565b61113c565b005b34801561052957600080fd5b5061053d6105383660046147f6565b61118c565b60405190151581526020015b60405180910390f35b34801561055e57600080fd5b5061057261056d366004614813565b61119d565b604080516001600160a01b03938416815292909116602083015201610549565b34801561059e57600080fd5b506105a76111cc565b604051610549919061487c565b3480156105c057600080fd5b506105d46105cf366004614813565b61125e565b6040516001600160a01b039091168152602001610549565b3480156105f857600080fd5b5061051b61060736600461488f565b611285565b34801561061857600080fd5b5061051b6106273660046147c3565b6112d6565b34801561063857600080fd5b5061064c610647366004614813565b611326565b60405161054994939291906148bb565b34801561066857600080fd5b506105a7610677366004614813565b6114e7565b34801561068857600080fd5b506014546105d4906001600160a01b031681565b3480156106a857600080fd5b506008545b604051908152602001610549565b3480156106c757600080fd5b5061053d6106d63660046147c3565b601d6020526000908152604090205460ff1681565b3480156106f757600080fd5b5061051b610706366004614905565b6115a0565b61051b6115df565b34801561071f57600080fd5b5061051b61072e366004614a54565b61162e565b34801561073f57600080fd5b5061051b61074e366004614aee565b611643565b34801561075f57600080fd5b506106ad61076e36600461488f565b611783565b34801561077f57600080fd5b5061051b61078e366004614813565b611819565b34801561079f57600080fd5b506105a76107ae366004614813565b6118d8565b3480156107bf57600080fd5b506105a76107ce366004614813565b6118f0565b3480156107df57600080fd5b5061051b6107ee366004614813565b6119a7565b3480156107ff57600080fd5b5061051b61080e366004614b36565b6119b4565b34801561081f57600080fd5b5061051b61082e3660046147c3565b611bdd565b34801561083f57600080fd5b5061051b611c07565b34801561085457600080fd5b5061051b610863366004614905565b611c86565b34801561087457600080fd5b5061051b611ca1565b34801561088957600080fd5b5061089d6108983660046147c3565b611ce2565b6040516105499190614b9d565b3480156108b657600080fd5b506106ad6108c5366004614813565b611d79565b3480156108d657600080fd5b5061053d611e0c565b61051b611e1d565b3480156108f357600080fd5b5061051b610902366004614be1565b611e59565b34801561091357600080fd5b506105d4610922366004614aee565b611eaf565b34801561093357600080fd5b5061053d6109423660046147c3565b601f6020526000908152604090205460ff1681565b34801561096357600080fd5b5061051b6109723660046147c3565b611ee7565b34801561098357600080fd5b506105d4610992366004614813565b611f37565b3480156109a357600080fd5b506109b76109b2366004614813565b611f97565b60405161054994939291906001600160a01b039485168152602081019390935292166040820152901515606082015260800190565b3480156109f857600080fd5b50610a0c610a07366004614813565b612049565b6040516105499190614c64565b348015610a2557600080fd5b5061051b610a34366004614c77565b6120b5565b348015610a4557600080fd5b506106ad610a543660046147c3565b6120fb565b61051b612181565b348015610a6d57600080fd5b5061051b610a7c3660046147c3565b612193565b348015610a8d57600080fd5b50600e546105d4906001600160a01b031681565b348015610aad57600080fd5b506106ad60135481565b348015610ac357600080fd5b5061051b610ad23660046147c3565b6121e3565b348015610ae357600080fd5b506106ad60205481565b348015610af957600080fd5b506106ad610b083660046147c3565b6001600160a01b03166000908152601b602052604090205490565b348015610b2f57600080fd5b5061053d610b3e366004614aee565b612233565b348015610b4f57600080fd5b5061051b610b5e366004614813565b6122a4565b348015610b6f57600080fd5b50638b78c6d819546105d4565b348015610b8857600080fd5b506105a7610b97366004614813565b6122b1565b348015610ba857600080fd5b5061051b610bb7366004614813565b6122f3565b348015610bc857600080fd5b506105a7612300565b348015610bdd57600080fd5b506105d4610bec366004614813565b601a602052600090815260409020546001600160a01b031681565b348015610c1357600080fd5b5061051b61230f565b348015610c2857600080fd5b5061051b610c37366004614813565b612331565b348015610c4857600080fd5b5061089d610c57366004614813565b61233e565b348015610c6857600080fd5b506106ad60155481565b348015610c7e57600080fd5b506106ad60225481565b348015610c9457600080fd5b506105a7610ca3366004614813565b6123d4565b348015610cb457600080fd5b5061051b610cc3366004614cac565b6123ff565b348015610cd457600080fd5b506106ad610ce33660046147c3565b601b6020526000908152604090205481565b348015610d0157600080fd5b50600d546105d4906001600160a01b031681565b348015610d2157600080fd5b50610d35610d30366004614ce1565b612478565b604051610549929190614dc8565b348015610d4f57600080fd5b5061051b610d5e366004614813565b612526565b348015610d6f57600080fd5b50610d83610d7e366004614813565b612533565b6040516105499b9a99989796959493929190614df6565b348015610da657600080fd5b506011546105d4906001600160a01b031681565b348015610dc657600080fd5b5061051b610dd53660046147c3565b61261d565b348015610de657600080fd5b5061051b610df5366004614e61565b61266d565b348015610e0657600080fd5b506106ad60165481565b348015610e1c57600080fd5b50610e30610e2b366004614ce1565b61269f565b60405161054993929190614ecc565b61051b610e4d366004614f32565b6127f0565b348015610e5e57600080fd5b5061053d610e6d3660046147c3565b601e6020526000908152604090205460ff1681565b348015610e8e57600080fd5b5061051b610e9d366004615019565b612999565b348015610eae57600080fd5b50600c546105d4906001600160a01b031681565b348015610ece57600080fd5b506105a7610edd366004614813565b612c16565b348015610eee57600080fd5b5061051b610efd36600461509f565b612c57565b348015610f0e57600080fd5b50610f22610f1d366004614813565b612cff565b60405161054991906150cf565b348015610f3b57600080fd5b506106ad612e8a565b348015610f5057600080fd5b5061051b610f5f366004614813565b612ebf565b348015610f7057600080fd5b506105a7610f7f366004614813565b612eed565b348015610f9057600080fd5b506106ad60125481565b348015610fa657600080fd5b5061053d610fb536600461516f565b6001600160a01b03918216600090815260056020908152604080832093909416825291909152205460ff1690565b348015610fef57600080fd5b506106ad7f000000000000000000000000000000000000000000000000000000000000000081565b61051b6110253660046147c3565b612fb2565b34801561103657600080fd5b5061051b61104536600461519d565b612fef565b61051b6110583660046147c3565b613062565b34801561106957600080fd5b506105a7611078366004614813565b613089565b34801561108957600080fd5b506010546105d4906001600160a01b031681565b3480156110a957600080fd5b506105d46110b8366004614813565b6000908152601a60205260409020546001600160a01b031690565b3480156110df57600080fd5b506106ad60215481565b3480156110f557600080fd5b50600f546105d4906001600160a01b031681565b34801561111557600080fd5b506106ad6111243660046147c3565b63389a75e1600c908152600091909152602090205490565b6111446130fb565b61114c611e0c565b1561116a5760405163774ae17d60e01b815260040160405180910390fd5b601180546001600160a01b0319166001600160a01b0392909216919091179055565b600061119782613116565b92915050565b6000806111a983611f37565b6000938452601a60205260409093205492936001600160a01b0390931692915050565b6060600080546111db90615222565b80601f016020809104026020016040519081016040528092919081815260200182805461120790615222565b80156112545780601f1061122957610100808354040283529160200191611254565b820191906000526020600020905b81548152906001019060200180831161123757829003601f168201915b5050505050905090565b60006112698261313b565b506000908152600460205260409020546001600160a01b031690565b61128e81611f37565b6001600160a01b0316336001600160a01b0316146112be576040516282b42960e81b815260040160405180910390fd5b6112c8818361319a565b6112d282826131d9565b5050565b6112de6130fb565b6112e6611e0c565b156113045760405163774ae17d60e01b815260040160405180910390fd5b600e80546001600160a01b0319166001600160a01b0392909216919091179055565b600b602052600090815260409020805460018201805491929161134890615222565b80601f016020809104026020016040519081016040528092919081815260200182805461137490615222565b80156113c15780601f10611396576101008083540402835291602001916113c1565b820191906000526020600020905b8154815290600101906020018083116113a457829003601f168201915b5050505050908060020180546113d690615222565b80601f016020809104026020016040519081016040528092919081815260200182805461140290615222565b801561144f5780601f106114245761010080835404028352916020019161144f565b820191906000526020600020905b81548152906001019060200180831161143257829003601f168201915b50505050509080600301805461146490615222565b80601f016020809104026020016040519081016040528092919081815260200182805461149090615222565b80156114dd5780601f106114b2576101008083540402835291602001916114dd565b820191906000526020600020905b8154815290600101906020018083116114c057829003601f168201915b5050505050905084565b601054600c546060916001600160a01b03908116916327707b149116611522856000908152601a60205260409020546001600160a01b031690565b6012546040516001600160e01b031960e086901b1681526001600160a01b03938416600482015292909116602483015260448201526064015b600060405180830381865afa158015611578573d6000803e3d6000fd5b505050506040513d6000823e601f3d908101601f1916820160405261119791908101906152ac565b6115aa3382613247565b6115cf5760405162461bcd60e51b81526004016115c6906152e0565b60405180910390fd5b6115da8383836132c5565b505050565b60006202a3006001600160401b03164201905063389a75e1600c5233600052806020600c2055337fdbf36a107da19e49527a7176a1babf963b4b0ff8cde35ee35d6cd8f1f9ac7e1d600080a250565b6116366130fb565b6112d26017826002614687565b8161164d81611f37565b6001600160a01b0316336001600160a01b03161461167e57604051631431735b60e21b815260040160405180910390fd5b8160000361169f57604051630754c7f360e41b815260040160405180910390fd5b600e546040516341e2a37360e01b815260048101859052602481018490526000916001600160a01b0316906341e2a37390604401602060405180830381865afa1580156116f0573d6000803e3d6000fd5b505050506040513d601f19601f82011682018060405250810190611714919061532e565b9050611721848285613472565b828461172c86611f37565b6001600160a01b03167fc94c1c47471ed97c1d309bab965192a3e4be3807f42d015b699bfbdcf24dd9f68460078111156117685761176861534b565b60405160ff909116815260200160405180910390a450505050565b600061178e836120fb565b82106117f05760405162461bcd60e51b815260206004820152602b60248201527f455243373231456e756d657261626c653a206f776e657220696e646578206f7560448201526a74206f6620626f756e647360a81b60648201526084016115c6565b506001600160a01b03919091166000908152600660209081526040808320938352929052205490565b8061182381611f37565b6001600160a01b0316336001600160a01b03161461185457604051631431735b60e21b815260040160405180910390fd5b600082815260196020526040812060018101829055600281018290556003810182905560048101829055600581018290556006810182905560078101919091558261189e81611f37565b6001600160a01b03167f46078a2cd4c69c3b4a27bdc69fdfe03d442ebcf405f1a68e9b5df6bc3e24429760405160405180910390a3505050565b6060806118e7610e2b84612cff565b50949350505050565b600c5460609081906001600160a01b031663250818ea61190f85612cff565b6040518263ffffffff1660e01b815260040161192b91906150cf565b600060405180830381865afa158015611948573d6000803e3d6000fd5b505050506040513d6000823e601f3d908101601f191682016040526119709190810190615361565b50915061197e9050836118d8565b816040516020016119909291906153ff565b604051602081830303815290604052915050919050565b6119af6130fb565b601255565b836119be81611f37565b6001600160a01b0316336001600160a01b0316146119ef57604051631431735b60e21b815260040160405180910390fd5b83518490600614611a1357604051631cf7e9c560e01b815260040160405180910390fd5b60048460ff161115611a38576040516329ba348d60e11b815260040160405180910390fd5b60005b6006811015611b8557603060f81b828281518110611a5b57611a5b61542e565b01602001516001600160f81b03191610801590611a9c5750603960f81b828281518110611a8a57611a8a61542e565b01602001516001600160f81b03191611155b158015611afe5750604160f81b828281518110611abb57611abb61542e565b01602001516001600160f81b03191610801590611afc5750604660f81b828281518110611aea57611aea61542e565b01602001516001600160f81b03191611155b155b8015611b5f5750606160f81b828281518110611b1c57611b1c61542e565b01602001516001600160f81b03191610801590611b5d5750606660f81b828281518110611b4b57611b4b61542e565b01602001516001600160f81b03191611155b155b15611b7d57604051631cf7e9c560e01b815260040160405180910390fd5b600101611a3b565b506000868152601960205260409020600901611ba1868261548c565b50505060009384526019602052604090932060088101805460ff90931660ff19938416179055600a018054931515939091169290921790915550565b611be56130fb565b601480546001600160a01b0319166001600160a01b0392909216919091179055565b611c0f6130fb565b6014546040516000916001600160a01b03169047908381818185875af1925050503d8060008114611c5c576040519150601f19603f3d011682016040523d82523d6000602084013e611c61565b606091505b5050905080611c8357604051631d42c86760e21b815260040160405180910390fd5b50565b6115da8383836040518060200160405280600081525061266d565b611ca96130fb565b6002611cb460085490565b1115611cd35760405163155b299760e31b815260040160405180910390fd5b611ce033600260076135d0565b565b60606000611cef836120fb565b90506000816001600160401b03811115611d0b57611d0b614946565b604051908082528060200260200182016040528015611d34578160200160208202803683370190505b50905060005b82811015611d7157611d4c8582611783565b828281518110611d5e57611d5e61542e565b6020908102919091010152600101611d3a565b509392505050565b6000611d8460085490565b8210611de75760405162461bcd60e51b815260206004820152602c60248201527f455243373231456e756d657261626c653a20676c6f62616c20696e646578206f60448201526b7574206f6620626f756e647360a01b60648201526084016115c6565b60088281548110611dfa57611dfa61542e565b90600052602060002001549050919050565b6000611e16612e8a565b4211905090565b63389a75e1600c523360005260006020600c2055337ffa7b8eab7da67f412cc9575ed43464468f9bfbae89d1675917346ca6d8fe3c92600080a2565b6000611e6484611f37565b90506001600160a01b0381163314611e8e576040516282b42960e81b815260040160405180910390fd5b8115611e9e57611e9e848461319a565b611ea98184846138e8565b50505050565b601c6020528160005260406000208181548110611ecb57600080fd5b6000918252602090912001546001600160a01b03169150829050565b611eef6130fb565b611ef7611e0c565b15611f155760405163774ae17d60e01b815260040160405180910390fd5b600c80546001600160a01b0319166001600160a01b0392909216919091179055565b6000818152600260205260408120546001600160a01b0316806111975760405162461bcd60e51b8152602060048201526018602482015277115490cdcc8c4e881a5b9d985b1a59081d1bdad95b88125160421b60448201526064016115c6565b600c546040516331a9108f60e11b8152600481018390526000918291829182916001600160a01b0390911690636352211e90602401602060405180830381865afa158015611fe9573d6000803e3d6000fd5b505050506040513d601f19601f8201168201806040525081019061200d919061554b565b6001600160a01b0381166000908152601b6020526040902054909450925061203483611f37565b91506120408386612233565b90509193509193565b6000818152601c60209081526040918290208054835181840281018401909452808452606093928301828280156120a957602002820191906000526020600020905b81546001600160a01b0316815260019091019060200180831161208b575b50505050509050919050565b6120bd6130fb565b60048160ff1610806120d2575060078160ff16115b156120f057604051632258debf60e01b815260040160405180910390fd5b6115da8383836135d0565b60006001600160a01b0382166121655760405162461bcd60e51b815260206004820152602960248201527f4552433732313a2061646472657373207a65726f206973206e6f7420612076616044820152683634b21037bbb732b960b91b60648201526084016115c6565b506001600160a01b031660009081526003602052604090205490565b6121896130fb565b611ce060006139ae565b61219b6130fb565b6121a3611e0c565b156121c15760405163774ae17d60e01b815260040160405180910390fd5b600d80546001600160a01b0319166001600160a01b0392909216919091179055565b6121eb6130fb565b6121f3611e0c565b156122115760405163774ae17d60e01b815260040160405180910390fd5b601080546001600160a01b0319166001600160a01b0392909216919091179055565b60008061223f84612cff565b905082816020015114806122565750828160400151145b806122645750828160600151145b806122725750828160800151145b806122805750828160a00151145b8061228e5750828160c00151145b8061229c5750828160e00151145b949350505050565b6122ac6130fb565b602055565b6010546000828152600b602052604090819020905163da11a05360e01b81526060926001600160a01b03169163da11a0539161155b91600201906004016155e5565b6122fb6130fb565b601555565b6060600180546111db90615222565b60005b600a811015611c835760606123286004826127f0565b50600101612312565b6123396130fb565b602155565b6000818152601a6020526040812054606091906001600160a01b0316600c5460405162438b6360e81b81526001600160a01b03808416600483015292935091169063438b630090602401600060405180830381865afa1580156123a5573d6000803e3d6000fd5b505050506040513d6000823e601f3d908101601f191682016040526123cd91908101906155f8565b9392505050565b60606123df82612cff565b61014001516123f6576123f182613089565b611197565b61119782612eed565b801561246d57600061241033611ce2565b90508051600003612433576040516282b42960e81b815260040160405180910390fd5b60005b815181101561246a576124628282815181106124545761245461542e565b60200260200101518561319a565b600101612436565b50505b6112d23383836138e8565b60608061248c83610100015160ff166122b1565b60105461010085015160ff166000908152600b6020526040908190209051630d88d4ff60e01b81526001600160a01b0390921691630d88d4ff916124d89160019091019060040161567d565b600060405180830381865afa1580156124f5573d6000803e3d6000fd5b505050506040513d6000823e601f3d908101601f1916820160405261251d91908101906152ac565b91509150915091565b61252e6130fb565b602255565b601960205260009081526040902080546001820154600283015460038401546004850154600586015460068701546007880154600889015460098a018054999a989997989697959694959394929360ff909216929161259190615222565b80601f01602080910402602001604051908101604052809291908181526020018280546125bd90615222565b801561260a5780601f106125df5761010080835404028352916020019161260a565b820191906000526020600020905b8154815290600101906020018083116125ed57829003601f168201915b505050600a909301549192505060ff168b565b6126256130fb565b61262d611e0c565b1561264b5760405163774ae17d60e01b815260040160405180910390fd5b600f80546001600160a01b0319166001600160a01b0392909216919091179055565b6126773383613247565b6126935760405162461bcd60e51b81526004016115c6906152e0565b611ea9848484846139ec565b60608060606126b584610100015160ff166122b1565b6101008501805160ff9081166000908152600b602052604080822060105494519093168252908190209051630d88d4ff60e01b81526003909201926001600160a01b031691630d88d4ff916127129160019091019060040161567d565b600060405180830381865afa15801561272f573d6000803e3d6000fd5b505050506040513d6000823e601f3d908101601f1916820160405261275791908101906152ac565b81805461276390615222565b80601f016020809104026020016040519081016040528092919081815260200182805461278f90615222565b80156127dc5780601f106127b1576101008083540402835291602001916127dc565b820191906000526020600020905b8154815290600101906020018083116127bf57829003601f168201915b505050505091509250925092509193909250565b600f546001600160a01b03166128195760405163d93186fd60e01b815260040160405180910390fd5b8115806128265750600a82115b156128445760405163199f5a0360e31b815260040160405180910390fd5b8160155461285291906156c6565b34146128715760405163356680b760e01b815260040160405180910390fd5b6040516bffffffffffffffffffffffff193360601b1660208201526004906000906034016040516020818303038152906040528051906020012090506128ba8360205483613a1f565b156128fa57336000908152601d602052604090205460ff166128f557336000908152601d60205260409020805460ff19166001179055600591505b61298e565b6129078360215483613a1f565b1561294657336000908152601e602052604090205460ff166128f557336000908152601e60205260409020805460ff191660011790556006915061298e565b6129538360225483613a1f565b1561298e57336000908152601f602052604090205460ff1661298e57336000908152601f60205260409020805460ff19166001179055600791505b611ea93385846135d0565b846129a381611f37565b6001600160a01b0316336001600160a01b0316146129d457604051631431735b60e21b815260040160405180910390fd5b6000868152601960205260408120906129ec88611f37565b6000898152601a60205260408120549192506001600160a01b03909116905b87811015612bd4576000898983818110612a2757612a2761542e565b9050602002013590506000888884818110612a4457612a4461542e565b9050602002016020810190612a5991906156dd565b905060008160ff166007811115612a7257612a7261534b565b600e546040516395d004cb60e01b81529192506001600160a01b0316906395d004cb90612aa7908890879086906004016156f8565b60006040518083038186803b158015612abf57600080fd5b505afa158015612ad3573d6000803e3d6000fd5b5060019250612ae0915050565b60ff168260ff1603612af85760018701839055612b84565b60011960ff831601612b105760028701839055612b84565b60021960ff831601612b285760038701839055612b84565b60031960ff831601612b405760048701839055612b84565b60041960ff831601612b585760058701839055612b84565b60051960ff831601612b705760068701839055612b84565b60061960ff831601612b8457600787018390555b60405160ff8316815283908e906001600160a01b038916907fc94c1c47471ed97c1d309bab965192a3e4be3807f42d015b699bfbdcf24dd9f69060200160405180910390a4505050600101612a0b565b5060405189906001600160a01b038416907f56680590212b09eb4b72a2eba8801b037ec046dfc754538e924f5bb6a8c4db6c90600090a3505050505050505050565b6000818152600260205260409020546060906001600160a01b0316612c4e57604051636461f73160e01b815260040160405180910390fd5b611197826123d4565b81612c6181611f37565b6001600160a01b0316336001600160a01b031614612c9257604051631431735b60e21b815260040160405180910390fd5b612c9e83836000613472565b82612ca884611f37565b6001600160a01b03167f3d8ac56c725fc7985e9444622a45baee28ba67d8a964045f747b465121f40e71846007811115612ce457612ce461534b565b60405160ff90911681526020015b60405180910390a3505050565b612d616040518061016001604052806000815260200160008152602001600081526020016000815260200160008152602001600081526020016000815260200160008152602001600060ff168152602001606081526020016000151581525090565b600082815260196020908152604091829020825161016081018452815481526001820154928101929092526002810154928201929092526003820154606082015260048201546080820152600582015460a0820152600682015460c0820152600782015460e0820152600882015460ff1661010082015260098201805491929161012084019190612df190615222565b80601f0160208091040260200160405190810160405280929190818152602001828054612e1d90615222565b8015612e6a5780601f10612e3f57610100808354040283529160200191612e6a565b820191906000526020600020905b815481529060010190602001808311612e4d57829003601f168201915b5050509183525050600a919091015460ff16151560209091015292915050565b6000612eba7f00000000000000000000000000000000000000000000000000000000000000006301e1338061573b565b905090565b612ec76130fb565b60165415612ee85760405163703e78e960e11b815260040160405180910390fd5b601655565b6060600080600080600080600080612f048a613a61565b97509750975097509750975097509750601160009054906101000a90046001600160a01b03166001600160a01b03166347c575328b8a898887876040518763ffffffff1660e01b8152600401612f5f969594939291906157d9565b600060405180830381865afa158015612f7c573d6000803e3d6000fd5b505050506040513d6000823e601f3d908101601f19168201604052612fa491908101906152ac565b9a9950505050505050505050565b612fba6130fb565b63389a75e1600c52806000526020600c208054421115612fe257636f5e88186000526004601cfd5b60009055611c83816139ae565b612ff76130fb565b612fff611e0c565b1561301d5760405163774ae17d60e01b815260040160405180910390fd5b6000848152600b602052604090208481556001810161303c858261548c565b506002810161304b848261548c565b506003810161305a838261548c565b505050505050565b61306a6130fb565b8060601b61308057637448fbae6000526004601cfd5b611c83816139ae565b60606000806000806000806000806130a08a613a61565b97509750975097509750975097509750601060009054906101000a90046001600160a01b03166001600160a01b03166356275a9c8b8a898888876040518763ffffffff1660e01b8152600401612f5f969594939291906157d9565b638b78c6d819543314611ce0576382b429006000526004601cfd5b60006001600160e01b0319821663780e9d6360e01b1480611197575061119782613cc4565b6000818152600260205260409020546001600160a01b0316611c835760405162461bcd60e51b8152602060048201526018602482015277115490cdcc8c4e881a5b9d985b1a59081d1bdad95b88125160421b60448201526064016115c6565b6000918252601c6020908152604083208054600181018255908452922090910180546001600160a01b0319166001600160a01b03909216919091179055565b600081815260046020526040902080546001600160a01b0319166001600160a01b038416908117909155819061320e82611f37565b6001600160a01b03167f8c5be1e5ebec7d5bd14f71427d1e84f3dd0314c0f7b2291e5b200ac8c7c3b92560405160405180910390a45050565b60008061325383611f37565b9050806001600160a01b0316846001600160a01b0316148061329a57506001600160a01b0380821660009081526005602090815260408083209388168352929052205460ff165b8061229c5750836001600160a01b03166132b38461125e565b6001600160a01b031614949350505050565b826001600160a01b03166132d882611f37565b6001600160a01b03161461333c5760405162461bcd60e51b815260206004820152602560248201527f4552433732313a207472616e736665722066726f6d20696e636f72726563742060448201526437bbb732b960d91b60648201526084016115c6565b6001600160a01b03821661339e5760405162461bcd60e51b8152602060048201526024808201527f4552433732313a207472616e7366657220746f20746865207a65726f206164646044820152637265737360e01b60648201526084016115c6565b6133a9838383613d14565b6133b46000826131d9565b6001600160a01b03831660009081526003602052604081208054600192906133dd90849061584d565b90915550506001600160a01b038216600090815260036020526040812080546001929061340b90849061573b565b909155505060008181526002602052604080822080546001600160a01b0319166001600160a01b0386811691821790925591518493918716917fddf252ad1be2c89b69c2b068fc378daa952ba7f163c4a11628f55a4df523b3ef91a46115da8383836140f5565b60018260078111156134865761348661534b565b036134a4576000838152601960205260409020600101819055505050565b60028260078111156134b8576134b861534b565b036134d6576000838152601960205260409020600201819055505050565b60038260078111156134ea576134ea61534b565b03613508576000838152601960205260409020600301819055505050565b600482600781111561351c5761351c61534b565b0361353a576000838152601960205260409020600401819055505050565b600582600781111561354e5761354e61534b565b0361356c576000838152601960205260409020600501819055505050565b60068260078111156135805761358061534b565b0361359e576000838152601960205260409020600601819055505050565b60078260078111156135b2576135b261534b565b036115da576000838152601960205260409020600701819055505050565b60005b82811015611ea95760006013600081546135ec90615860565b918290555090506135fd85826140ff565b604051638a54c52f60e01b81527355266d75d1a14e4572138116af39863ed6596e7f600482015260006024820181905262014a34604483015230606483015260848201839052906f6551c19487814612e58fe0681377575890638a54c52f9060a4016020604051808303816000875af115801561367e573d6000803e3d6000fd5b505050506040513d601f19601f820116820180604052508101906136a2919061554b565b6000838152601a6020908152604080832080546001600160a01b0319166001600160a01b038616908117909155808452601b90925291829020859055905163189acdbd60e31b81527341c8f39463a868d3a88af00cd0fe7102f30e44ec60048201529192509063c4d66de890602401600060405180830381600087803b15801561372b57600080fd5b505af115801561373f573d6000803e3d6000fd5b5050600f546040516358a2727360e01b81526001600160a01b03858116600483015260ff891660248301526000945090911691506358a27273906044016000604051808303816000875af115801561379b573d6000803e3d6000fd5b505050506040513d6000823e601f3d908101601f191682016040526137c391908101906155f8565b6000848152601960209081526040918290208681558251918201879052929350600591016040516020818303038152906040528051906020012060001c61380a9190615879565b60088201805460ff191660ff929092169190911790556040805180820190915260068152650c110d914e5160d21b6020820152600982019061384c908261548c565b50816000815181106138605761386061542e565b60200260200101518160070181905550816001815181106138835761388361542e565b60200260200101518160060181905550816002815181106138a6576138a661542e565b60200260200101518160050181905550816003815181106138c9576138c961542e565b60200260200101518160020181905550505050508060010190506135d3565b816001600160a01b0316836001600160a01b0316036139495760405162461bcd60e51b815260206004820152601960248201527f4552433732313a20617070726f766520746f2063616c6c65720000000000000060448201526064016115c6565b6001600160a01b03838116600081815260056020908152604080832094871680845294825291829020805460ff191686151590811790915591519182527f17307eab39ab6107e8899845ad3d59bd9653f200f220920489ca2b5937696c319101612cf2565b638b78c6d81980546001600160a01b039092169182907f8be0079c531659141344cd1fd0a4f28419497f9722a3daafe3b4186f6b6457e0600080a355565b6139f78484846132c5565b613a0384848484614255565b611ea95760405162461bcd60e51b81526004016115c69061589b565b6000835115613a5a5760208401845160051b81015b8151841160051b938452815160209485185260406000209390910190808210613a345750505b5014919050565b6060806060806060806060613a746146d0565b6000613a7f8a612cff565b9050613a8a8161269f565b50600c546040516312840c7560e11b8152929b509099506001600160a01b03169063250818ea90613abf9084906004016150cf565b600060405180830381865afa158015613adc573d6000803e3d6000fd5b505050506040513d6000823e601f3d908101601f19168201604052613b049190810190615361565b91985096509450613b148a6114e7565b61012082015183529350613b278a61233e565b5160408084019190915261010082015160ff166000908152600b602052206001018054613b5390615222565b80601f0160208091040260200160405190810160405280929190818152602001828054613b7f90615222565b8015613bcc5780601f10613ba157610100808354040283529160200191613bcc565b820191906000526020600020905b815481529060010190602001808311613baf57829003601f168201915b5050505050602083015260408051808201909152601760026000835b82821015613c8b578382018054613bfe90615222565b80601f0160208091040260200160405190810160405280929190818152602001828054613c2a90615222565b8015613c775780601f10613c4c57610100808354040283529160200191613c77565b820191906000526020600020905b815481529060010190602001808311613c5a57829003601f168201915b505050505081526020019060010190613be8565b505050506060830152604051613ca790899088906020016153ff565b604051602081830303815290604052925050919395975091939597565b60006001600160e01b031982166380ac58cd60e01b1480613cf557506001600160e01b03198216635b5e139f60e01b145b8061119757506301ffc9a760e01b6001600160e01b0319831614611197565b6001600160a01b038316613d2d576115da838383614356565b6001600160a01b0382166000908152601b602052604090205415613d6457604051639a42da2960e01b815260040160405180910390fd5b6000818152601a60205260408120546001600160a01b031690613d8684611ce2565b9050600081516001600160401b03811115613da357613da3614946565b604051908082528060200260200182016040528015613dcc578160200160208202803683370190505b50905060005b8251811015613e4d57601a6000848381518110613df157613df161542e565b6020026020010151815260200190815260200160002060009054906101000a90046001600160a01b0316828281518110613e2d57613e2d61542e565b6001600160a01b0390921660209283029190910190910152600101613dd2565b50600d5460405163644ec52760e01b8152600481018690526001600160a01b039091169063644ec52790602401600060405180830381600087803b158015613e9457600080fd5b505af1158015613ea8573d6000803e3d6000fd5b5050600d54604051631e92beb560e31b8152600481018890526001600160a01b038981166024830152909116925063f495f5a89150604401600060405180830381600087803b158015613efa57600080fd5b505af1158015613f0e573d6000803e3d6000fd5b5050600c5460405162438b6360e81b81526001600160a01b03878116600483015260009450909116915063438b630090602401600060405180830381865afa158015613f5e573d6000803e3d6000fd5b505050506040513d6000823e601f3d908101601f19168201604052613f8691908101906155f8565b905060005b81518110156140e0576000828281518110613fa857613fa861542e565b6020908102919091010151600d54604051632e1d274f60e01b8152600481018390529192506001600160a01b031690632e1d274f90602401600060405180830381600087803b158015613ffa57600080fd5b505af115801561400e573d6000803e3d6000fd5b5050600d54604051632333520b60e11b81526001600160a01b039091169250634666a416915061404490849088906004016158ed565b600060405180830381600087803b15801561405e57600080fd5b505af1158015614072573d6000803e3d6000fd5b5050600c5460405163487b1c2160e11b8152600481018590526001600160a01b0390911692506390f638429150602401600060405180830381600087803b1580156140bc57600080fd5b505af11580156140d0573d6000803e3d6000fd5b5050505050806001019050613f8b565b506140ec878787614356565b50505050505050565b6115da818461440e565b6001600160a01b0382166141555760405162461bcd60e51b815260206004820181905260248201527f4552433732313a206d696e7420746f20746865207a65726f206164647265737360448201526064016115c6565b6000818152600260205260409020546001600160a01b0316156141ba5760405162461bcd60e51b815260206004820152601c60248201527f4552433732313a20746f6b656e20616c7265616479206d696e7465640000000060448201526064016115c6565b6141c660008383613d14565b6001600160a01b03821660009081526003602052604081208054600192906141ef90849061573b565b909155505060008181526002602052604080822080546001600160a01b0319166001600160a01b03861690811790915590518392907fddf252ad1be2c89b69c2b068fc378daa952ba7f163c4a11628f55a4df523b3ef908290a46112d2600083836140f5565b60006001600160a01b0384163b1561434b57604051630a85bd0160e11b81526001600160a01b0385169063150b7a0290614299903390899088908890600401615906565b6020604051808303816000875af19250505080156142d4575060408051601f3d908101601f191682019092526142d191810190615939565b60015b614331573d808015614302576040519150601f19603f3d011682016040523d82523d6000602084013e614307565b606091505b5080516000036143295760405162461bcd60e51b81526004016115c69061589b565b805181602001fd5b6001600160e01b031916630a85bd0160e11b14905061229c565b506001949350505050565b6001600160a01b0383166143b1576143ac81600880546000838152600960205260408120829055600182018355919091527ff3f7a9fe364faab93b216da50a3214154f22a0a2b415b23a84c8169e8b636ee30155565b6143d4565b816001600160a01b0316836001600160a01b0316146143d4576143d483826144f7565b6001600160a01b0382166143eb576115da81614594565b826001600160a01b0316826001600160a01b0316146115da576115da8282614643565b6000828152601c602090815260408083208054825181850281018501909352808352919290919083018282801561446e57602002820191906000526020600020905b81546001600160a01b03168152600190910190602001808311614450575b5050506000868152601a60205260408120549394506001600160a01b03909316929150505b82518110156144df576144c1848483815181106144b2576144b261542e565b602002602001015160006138e8565b6144d7828483815181106144b2576144b261542e565b600101614493565b506000848152601c60205260408120611ea9916146fd565b60006001614504846120fb565b61450e919061584d565b600083815260076020526040902054909150808214614561576001600160a01b03841660009081526006602090815260408083208584528252808320548484528184208190558352600790915290208190555b5060009182526007602090815260408084208490556001600160a01b039094168352600681528383209183525290812055565b6008546000906145a69060019061584d565b600083815260096020526040812054600880549394509092849081106145ce576145ce61542e565b9060005260206000200154905080600883815481106145ef576145ef61542e565b600091825260208083209091019290925582815260099091526040808220849055858252812055600880548061462757614627615956565b6001900381819060005260206000200160009055905550505050565b600061464e836120fb565b6001600160a01b039093166000908152600660209081526040808320868452825280832085905593825260079052919091209190915550565b82600281019282156146c0579160200282015b828111156146c057825182906146b0908261548c565b509160200191906001019061469a565b506146cc92915061471b565b5090565b60405180608001604052806060815260200160608152602001600081526020016146f8614738565b905290565b5080546000825590600052602060002090810190611c83919061475f565b808211156146cc57600061472f8282614774565b5060010161471b565b60405180604001604052806002905b60608152602001906001900390816147475790505090565b5b808211156146cc5760008155600101614760565b50805461478090615222565b6000825580601f10614790575050565b601f016020900490600052602060002090810190611c83919061475f565b6001600160a01b0381168114611c8357600080fd5b6000602082840312156147d557600080fd5b81356123cd816147ae565b6001600160e01b031981168114611c8357600080fd5b60006020828403121561480857600080fd5b81356123cd816147e0565b60006020828403121561482557600080fd5b5035919050565b60005b8381101561484757818101518382015260200161482f565b50506000910152565b6000815180845261486881602086016020860161482c565b601f01601f19169290920160200192915050565b6020815260006123cd6020830184614850565b600080604083850312156148a257600080fd5b82356148ad816147ae565b946020939093013593505050565b8481526080602082015260006148d46080830186614850565b82810360408401526148e68186614850565b905082810360608401526148fa8185614850565b979650505050505050565b60008060006060848603121561491a57600080fd5b8335614925816147ae565b92506020840135614935816147ae565b929592945050506040919091013590565b634e487b7160e01b600052604160045260246000fd5b604080519081016001600160401b038111828210171561497e5761497e614946565b60405290565b60405161016081016001600160401b038111828210171561497e5761497e614946565b604051601f8201601f191681016001600160401b03811182821017156149cf576149cf614946565b604052919050565b60006001600160401b038211156149f0576149f0614946565b50601f01601f191660200190565b600082601f830112614a0f57600080fd5b8135614a22614a1d826149d7565b6149a7565b818152846020838601011115614a3757600080fd5b816020850160208301376000918101602001919091529392505050565b60006020808385031215614a6757600080fd5b82356001600160401b0380821115614a7e57600080fd5b818501915085601f830112614a9257600080fd5b614a9a61495c565b806040840188811115614aac57600080fd5b845b81811015614ae057803585811115614ac65760008081fd5b614ad28b8289016149fe565b855250928601928601614aae565b509098975050505050505050565b60008060408385031215614b0157600080fd5b50508035926020909101359150565b803560ff81168114614b2157600080fd5b919050565b80358015158114614b2157600080fd5b60008060008060808587031215614b4c57600080fd5b8435935060208501356001600160401b03811115614b6957600080fd5b614b75878288016149fe565b935050614b8460408601614b10565b9150614b9260608601614b26565b905092959194509250565b6020808252825182820181905260009190848201906040850190845b81811015614bd557835183529284019291840191600101614bb9565b50909695505050505050565b600080600060608486031215614bf657600080fd5b833592506020840135614c08816147ae565b9150614c1660408501614b26565b90509250925092565b60008151808452602080850194506020840160005b83811015614c595781516001600160a01b031687529582019590820190600101614c34565b509495945050505050565b6020815260006123cd6020830184614c1f565b600080600060608486031215614c8c57600080fd5b8335614c97816147ae565b925060208401359150614c1660408501614b10565b60008060408385031215614cbf57600080fd5b8235614cca816147ae565b9150614cd860208401614b26565b90509250929050565b600060208284031215614cf357600080fd5b81356001600160401b0380821115614d0a57600080fd5b908301906101608286031215614d1f57600080fd5b614d27614984565b823581526020830135602082015260408301356040820152606083013560608201526080830135608082015260a083013560a082015260c083013560c082015260e083013560e0820152610100614d7f818501614b10565b908201526101208381013583811115614d9757600080fd5b614da3888287016149fe565b8284015250506101409150614db9828401614b26565b91810191909152949350505050565b604081526000614ddb6040830185614850565b8281036020840152614ded8185614850565b95945050505050565b60006101608d83528c60208401528b60408401528a60608401528960808401528860a08401528760c08401528660e084015260ff861661010084015280610120840152614e4581840186614850565b9150508215156101408301529c9b505050505050505050505050565b60008060008060808587031215614e7757600080fd5b8435614e82816147ae565b93506020850135614e92816147ae565b92506040850135915060608501356001600160401b03811115614eb457600080fd5b614ec0878288016149fe565b91505092959194509250565b606081526000614edf6060830186614850565b8281036020840152614ef18186614850565b90508281036040840152614f058185614850565b9695505050505050565b60006001600160401b03821115614f2857614f28614946565b5060051b60200190565b60008060408385031215614f4557600080fd5b823591506020808401356001600160401b03811115614f6357600080fd5b8401601f81018613614f7457600080fd5b8035614f82614a1d82614f0f565b81815260059190911b82018301908381019088831115614fa157600080fd5b928401925b82841015614fbf57833582529284019290840190614fa6565b80955050505050509250929050565b60008083601f840112614fe057600080fd5b5081356001600160401b03811115614ff757600080fd5b6020830191508360208260051b850101111561501257600080fd5b9250929050565b60008060008060006060868803121561503157600080fd5b8535945060208601356001600160401b038082111561504f57600080fd5b61505b89838a01614fce565b9096509450604088013591508082111561507457600080fd5b5061508188828901614fce565b969995985093965092949392505050565b60088110611c8357600080fd5b600080604083850312156150b257600080fd5b8235915060208301356150c481615092565b809150509250929050565b6020815281516020820152602082015160408201526040820151606082015260608201516080820152608082015160a082015260a082015160c082015260c082015160e0820152600060e083015161010081818501528085015191505061012061513d8185018360ff169052565b80850151915050610160610140818186015261515d610180860184614850565b95015115159301929092525090919050565b6000806040838503121561518257600080fd5b823561518d816147ae565b915060208301356150c4816147ae565b600080600080608085870312156151b357600080fd5b8435935060208501356001600160401b03808211156151d157600080fd5b6151dd888389016149fe565b945060408701359150808211156151f357600080fd5b6151ff888389016149fe565b9350606087013591508082111561521557600080fd5b50614ec0878288016149fe565b600181811c9082168061523657607f821691505b60208210810361525657634e487b7160e01b600052602260045260246000fd5b50919050565b600061526a614a1d846149d7565b905082815283838301111561527e57600080fd5b6123cd83602083018461482c565b600082601f83011261529d57600080fd5b6123cd8383516020850161525c565b6000602082840312156152be57600080fd5b81516001600160401b038111156152d457600080fd5b61229c8482850161528c565b6020808252602e908201527f4552433732313a2063616c6c6572206973206e6f7420746f6b656e206f776e6560408201526d1c881b9bdc88185c1c1c9bdd995960921b606082015260800190565b60006020828403121561534057600080fd5b81516123cd81615092565b634e487b7160e01b600052602160045260246000fd5b60008060006060848603121561537657600080fd5b83516001600160401b038082111561538d57600080fd5b6153998783880161528c565b945060208601519150808211156153af57600080fd5b818601915086601f8301126153c357600080fd5b6153d28783516020850161525c565b935060408601519150808211156153e857600080fd5b506153f58682870161528c565b9150509250925092565b6000835161541181846020880161482c565b83519083019061542581836020880161482c565b01949350505050565b634e487b7160e01b600052603260045260246000fd5b601f8211156115da576000816000526020600020601f850160051c8101602086101561546d5750805b601f850160051c820191505b8181101561305a57828155600101615479565b81516001600160401b038111156154a5576154a5614946565b6154b9816154b38454615222565b84615444565b602080601f8311600181146154ee57600084156154d65750858301515b600019600386901b1c1916600185901b17855561305a565b600085815260208120601f198616915b8281101561551d578886015182559484019460019091019084016154fe565b508582101561553b5787850151600019600388901b60f8161c191681555b5050505050600190811b01905550565b60006020828403121561555d57600080fd5b81516123cd816147ae565b6000815461557581615222565b80855260206001838116801561559257600181146155ac576155da565b60ff1985168884015283151560051b8801830195506155da565b866000528260002060005b858110156155d25781548a82018601529083019084016155b7565b890184019650505b505050505092915050565b6020815260006123cd6020830184615568565b6000602080838503121561560b57600080fd5b82516001600160401b0381111561562157600080fd5b8301601f8101851361563257600080fd5b8051615640614a1d82614f0f565b81815260059190911b8201830190838101908783111561565f57600080fd5b928401925b828410156148fa57835182529284019290840190615664565b604081526009604082015268426f6479205479706560b81b60608201526080602082015260006123cd6080830184615568565b634e487b7160e01b600052601160045260246000fd5b8082028115828204841417611197576111976156b0565b6000602082840312156156ef57600080fd5b6123cd82614b10565b6001600160a01b038416815260208101839052606081016008831061572d57634e487b7160e01b600052602160045260246000fd5b826040830152949350505050565b80820180821115611197576111976156b0565b60008151608084526157636080850182614850565b9050602080840151858303602087015261577d8382614850565b9250506040840151604086015260608401518583036060870152828390506040840160005b60028110156157cd5785820383526157bb828551614850565b938501939285019291506001016157a2565b50979650505050505050565b86815260c0602082015260006157f260c0830188614850565b82810360408401526158048188614850565b905082810360608401526158188187614850565b9050828103608084015261582c8186614850565b905082810360a0840152615840818561574e565b9998505050505050505050565b81810381811115611197576111976156b0565b600060018201615872576158726156b0565b5060010190565b60008261589657634e487b7160e01b600052601260045260246000fd5b500690565b60208082526032908201527f4552433732313a207472616e7366657220746f206e6f6e20455243373231526560408201527131b2b4bb32b91034b6b83632b6b2b73a32b960711b606082015260800190565b82815260406020820152600061229c6040830184614c1f565b6001600160a01b0385811682528416602082015260408101839052608060608201819052600090614f0590830184614850565b60006020828403121561594b57600080fd5b81516123cd816147e0565b634e487b7160e01b600052603160045260246000fdfea26469706673582212203bbe1c4a5fe1be96fef3239da243e4fe5c410619b2bef65666de64dd37308f3964736f6c63430008160033","linkReferences":{}},"methodIdentifiers":{"_debugPostConstructorMint()":"9c7be2f1","addNewBody(uint256,string,bytes,bytes)":"f2361e23","approve(address,uint256)":"095ea7b3","balanceOf(address)":"70a08231","bodyIndexToMetadata(uint256)":"0c83f9d7","cancelOwnershipHandover()":"54d1f13d","checkIfTraitIsEquipped(uint256,uint256)":"8aa1e4c8","chonkEquipHelper()":"75676db8","chonkIdToApprovedOperators(uint256,uint256)":"55737f35","chonkTokens(uint256)":"b45d0316","collectionsAddressDidUse(address)":"1e8ff18f","collectionsMerkle()":"80d833f1","completeOwnershipHandover(address)":"f04e283e","creatorsAddressDidUse(address)":"59d591d0","creatorsMerkle()":"a1531780","deploymentTime()":"ecda10f5","equip(uint256,uint256)":"28257532","equipMany(uint256,uint256[],uint8[])":"bf7f80a6","firstReleaseDataMinter()":"fd8b66de","friendsAddressDidUse(address)":"be7ff59a","friendsMerkle()":"fc863e64","getApproved(uint256)":"081812fc","getBackpackSVGs(uint256)":"14fe8ff4","getBodyImageSvg(uint256)":"916c546b","getBodySVGZmapsAndMetadata((uint256,uint256,uint256,uint256,uint256,uint256,uint256,uint256,uint8,string,bool))":"ba3589c8","getBodySvgAndMetadata((uint256,uint256,uint256,uint256,uint256,uint256,uint256,uint256,uint8,string,bool))":"b014b77a","getBodyZMap(uint256)":"306c7334","getChonk(uint256)":"d3d6873e","getChonkIdForTBAAddress(address)":"8472cbca","getChonkIdToApprovedOperators(uint256)":"67d2afe2","getChonkZMap(uint256)":"32875aa0","getFullPictureForTrait(uint256)":"66704349","getOwnerAndTBAAddressForChonkId(uint256)":"04003bd0","getTBAAddressForChonkId(uint256)":"f6a0c932","getTraitsForChonkId(uint256)":"9f6e4637","initialMintStartTime()":"b91fdc8c","isApprovedForAll(address,address)":"e985e9c5","isTimelocked()":"50b03146","mainRenderer2D()":"f4bec0b6","mainRenderer3D()":"b66ef6e3","marketplace()":"abc8c7af","maxTraitsToOutput()":"e3d21555","mint(uint256,bytes32[])":"ba41b0c6","name()":"06fdde03","nextTokenId()":"75794a3c","oneYearFromDeployment()":"d59752eb","owner()":"8da5cb5b","ownerOf(uint256)":"6352211e","ownershipHandoverExpiresAt(address)":"fee81cf4","price()":"a035b1fe","renderAsDataUri(uint256)":"a1d62680","renderAsDataUri2D(uint256)":"f3f8efb9","renderAsDataUri3D(uint256)":"dceef0ec","renounceOwnership()":"715018a6","requestOwnershipHandover()":"25692962","safeTransferFrom(address,address,uint256)":"42842e0e","safeTransferFrom(address,address,uint256,bytes)":"b88d4fde","setApprovalForAll(address,bool)":"a22cb465","setApprovalForAllChonksMarketplace(uint256,address,bool)":"550ab247","setChonkAttributes(uint256,string,uint8,bool)":"343b4887","setChonkEquipHelper(address)":"0a99a350","setCollectionsMerkle(bytes32)":"8d2a2f11","setCreatorsMerkle(bytes32)":"b194b6f1","setDescriptionParts(string[2])":"26f2052a","setFirstReleaseDataMinter(address)":"b84b160d","setFriendsMerkleRoot(bytes32)":"9eb2660c","setMainRenderer2D(address)":"7e2e6c47","setMainRenderer3D(address)":"00179206","setMarketplace(address)":"73ad6c2d","setMaxTraitsToOutput(uint256)":"33d3d9bf","setMintStartTime(uint256)":"d5b3621b","setPrice(uint256)":"91b7f5ed","setTraitsContract(address)":"5eabd84a","setWithdrawAddress(address)":"3ab1a494","supportsInterface(bytes4)":"01ffc9a7","symbol()":"95d89b41","tbaAddressToTokenId(address)":"a4bf9a00","teamMint(address,uint256,uint8)":"6e51665f","teamReserve()":"4287f14a","tokenByIndex(uint256)":"4f6ccce7","tokenIdToTBAAccountAddress(uint256)":"9c05d68d","tokenOfOwnerByIndex(address,uint256)":"2f745c59","tokenURI(uint256)":"c87b56dd","totalSupply()":"18160ddd","traitsContract()":"c093afdb","transferFrom(address,address,uint256)":"23b872dd","transferOwnership(address)":"f2fde38b","unequip(uint256,uint8)":"cdb6dd5c","unequipAll(uint256)":"3044825b","walletOfOwner(address)":"438b6300","withdraw()":"3ccfd60b","withdrawAddress()":"1581b600"},"id":43}