{"abi":[{"type":"constructor","inputs":[{"name":"localDeploy_","type":"bool","internalType":"bool"}],"stateMutability":"nonpayable"},{"type":"function","name":"_debugPostConstructorMint","inputs":[],"outputs":[],"stateMutability":"nonpayable"},{"type":"function","name":"_nextTokenId","inputs":[],"outputs":[{"name":"","type":"uint256","internalType":"uint256"}],"stateMutability":"view"},{"type":"function","name":"addNewBody","inputs":[{"name":"_bodyIndex","type":"uint256","internalType":"uint256"},{"name":"_bodyName","type":"string","internalType":"string"},{"name":"_colorMap","type":"bytes","internalType":"bytes"},{"name":"_zMap","type":"bytes","internalType":"bytes"}],"outputs":[],"stateMutability":"nonpayable"},{"type":"function","name":"approve","inputs":[{"name":"_operator","type":"address","internalType":"address"},{"name":"_chonkId","type":"uint256","internalType":"uint256"}],"outputs":[],"stateMutability":"nonpayable"},{"type":"function","name":"balanceOf","inputs":[{"name":"owner","type":"address","internalType":"address"}],"outputs":[{"name":"","type":"uint256","internalType":"uint256"}],"stateMutability":"view"},{"type":"function","name":"bodyIndexToMetadata","inputs":[{"name":"","type":"uint256","internalType":"uint256"}],"outputs":[{"name":"bodyIndex","type":"uint256","internalType":"uint256"},{"name":"bodyName","type":"string","internalType":"string"},{"name":"colorMap","type":"bytes","internalType":"bytes"},{"name":"zMap","type":"bytes","internalType":"bytes"}],"stateMutability":"view"},{"type":"function","name":"cancelOwnershipHandover","inputs":[],"outputs":[],"stateMutability":"payable"},{"type":"function","name":"checkIfTraitIsEquipped","inputs":[{"name":"_chonkId","type":"uint256","internalType":"uint256"},{"name":"_traitId","type":"uint256","internalType":"uint256"}],"outputs":[{"name":"","type":"bool","internalType":"bool"}],"stateMutability":"view"},{"type":"function","name":"chonkIdToApprovedOperators","inputs":[{"name":"chonkId","type":"uint256","internalType":"uint256"},{"name":"","type":"uint256","internalType":"uint256"}],"outputs":[{"name":"operators","type":"address","internalType":"address"}],"stateMutability":"view"},{"type":"function","name":"chonkMakeover","inputs":[{"name":"_chonkTokenId","type":"uint256","internalType":"uint256"},{"name":"_headTokenId","type":"uint256","internalType":"uint256"},{"name":"_hairTokenId","type":"uint256","internalType":"uint256"},{"name":"_faceTokenId","type":"uint256","internalType":"uint256"},{"name":"_accessoryTokenId","type":"uint256","internalType":"uint256"},{"name":"_topTokenId","type":"uint256","internalType":"uint256"},{"name":"_bottomTokenId","type":"uint256","internalType":"uint256"},{"name":"_shoesTokenId","type":"uint256","internalType":"uint256"},{"name":"_bodyIndex","type":"uint8","internalType":"uint8"},{"name":"_backgroundColor","type":"string","internalType":"string"}],"outputs":[],"stateMutability":"nonpayable"},{"type":"function","name":"chonkTokens","inputs":[{"name":"tokenID","type":"uint256","internalType":"uint256"}],"outputs":[{"name":"headId","type":"uint256","internalType":"uint256"},{"name":"hairId","type":"uint256","internalType":"uint256"},{"name":"faceId","type":"uint256","internalType":"uint256"},{"name":"accessoryId","type":"uint256","internalType":"uint256"},{"name":"topId","type":"uint256","internalType":"uint256"},{"name":"bottomId","type":"uint256","internalType":"uint256"},{"name":"shoesId","type":"uint256","internalType":"uint256"},{"name":"epoch","type":"uint32","internalType":"uint32"},{"name":"tokenId","type":"uint256","internalType":"uint256"},{"name":"bodyIndex","type":"uint8","internalType":"uint8"},{"name":"backgroundColor","type":"string","internalType":"string"},{"name":"render3D","type":"bool","internalType":"bool"}],"stateMutability":"view"},{"type":"function","name":"chonksCreatorListMerkleRoot","inputs":[],"outputs":[{"name":"","type":"bytes32","internalType":"bytes32"}],"stateMutability":"view"},{"type":"function","name":"completeOwnershipHandover","inputs":[{"name":"pendingOwner","type":"address","internalType":"address"}],"outputs":[],"stateMutability":"payable"},{"type":"function","name":"deploymentTime","inputs":[],"outputs":[{"name":"","type":"uint256","internalType":"uint256"}],"stateMutability":"view"},{"type":"function","name":"equip","inputs":[{"name":"_chonkTokenId","type":"uint256","internalType":"uint256"},{"name":"_traitTokenId","type":"uint256","internalType":"uint256"}],"outputs":[],"stateMutability":"nonpayable"},{"type":"function","name":"equipAll","inputs":[{"name":"_chonkTokenId","type":"uint256","internalType":"uint256"},{"name":"_headTokenId","type":"uint256","internalType":"uint256"},{"name":"_hairTokenId","type":"uint256","internalType":"uint256"},{"name":"_faceTokenId","type":"uint256","internalType":"uint256"},{"name":"_accessoryTokenId","type":"uint256","internalType":"uint256"},{"name":"_topTokenId","type":"uint256","internalType":"uint256"},{"name":"_bottomTokenId","type":"uint256","internalType":"uint256"},{"name":"_shoesTokenId","type":"uint256","internalType":"uint256"}],"outputs":[],"stateMutability":"nonpayable"},{"type":"function","name":"firstSeasonRenderMinter","inputs":[],"outputs":[{"name":"","type":"address","internalType":"contract FirstSeasonRenderMinter"}],"stateMutability":"view"},{"type":"function","name":"friendsListMerkleRoot","inputs":[],"outputs":[{"name":"","type":"bytes32","internalType":"bytes32"}],"stateMutability":"view"},{"type":"function","name":"getApproved","inputs":[{"name":"tokenId","type":"uint256","internalType":"uint256"}],"outputs":[{"name":"","type":"address","internalType":"address"}],"stateMutability":"view"},{"type":"function","name":"getBackpackSVGs","inputs":[{"name":"_tokenId","type":"uint256","internalType":"uint256"}],"outputs":[{"name":"","type":"string","internalType":"string"}],"stateMutability":"view"},{"type":"function","name":"getBodyImageSvg","inputs":[{"name":"_index","type":"uint256","internalType":"uint256"}],"outputs":[{"name":"svg","type":"string","internalType":"string"}],"stateMutability":"view"},{"type":"function","name":"getBodySVGZmapsAndMetadata","inputs":[{"name":"storedChonk","type":"tuple","internalType":"struct IChonkStorage.StoredChonk","components":[{"name":"headId","type":"uint256","internalType":"uint256"},{"name":"hairId","type":"uint256","internalType":"uint256"},{"name":"faceId","type":"uint256","internalType":"uint256"},{"name":"accessoryId","type":"uint256","internalType":"uint256"},{"name":"topId","type":"uint256","internalType":"uint256"},{"name":"bottomId","type":"uint256","internalType":"uint256"},{"name":"shoesId","type":"uint256","internalType":"uint256"},{"name":"epoch","type":"uint32","internalType":"uint32"},{"name":"tokenId","type":"uint256","internalType":"uint256"},{"name":"bodyIndex","type":"uint8","internalType":"uint8"},{"name":"backgroundColor","type":"string","internalType":"string"},{"name":"render3D","type":"bool","internalType":"bool"}]}],"outputs":[{"name":"","type":"string","internalType":"string"},{"name":"","type":"bytes","internalType":"bytes"},{"name":"","type":"string","internalType":"string"}],"stateMutability":"view"},{"type":"function","name":"getBodySvgAndMetadata","inputs":[{"name":"storedChonk","type":"tuple","internalType":"struct IChonkStorage.StoredChonk","components":[{"name":"headId","type":"uint256","internalType":"uint256"},{"name":"hairId","type":"uint256","internalType":"uint256"},{"name":"faceId","type":"uint256","internalType":"uint256"},{"name":"accessoryId","type":"uint256","internalType":"uint256"},{"name":"topId","type":"uint256","internalType":"uint256"},{"name":"bottomId","type":"uint256","internalType":"uint256"},{"name":"shoesId","type":"uint256","internalType":"uint256"},{"name":"epoch","type":"uint32","internalType":"uint32"},{"name":"tokenId","type":"uint256","internalType":"uint256"},{"name":"bodyIndex","type":"uint8","internalType":"uint8"},{"name":"backgroundColor","type":"string","internalType":"string"},{"name":"render3D","type":"bool","internalType":"bool"}]}],"outputs":[{"name":"","type":"string","internalType":"string"},{"name":"","type":"string","internalType":"string"}],"stateMutability":"view"},{"type":"function","name":"getBodyZMap","inputs":[{"name":"_tokenId","type":"uint256","internalType":"uint256"}],"outputs":[{"name":"","type":"string","internalType":"string"}],"stateMutability":"view"},{"type":"function","name":"getChonk","inputs":[{"name":"_tokenId","type":"uint256","internalType":"uint256"}],"outputs":[{"name":"","type":"tuple","internalType":"struct IChonkStorage.StoredChonk","components":[{"name":"headId","type":"uint256","internalType":"uint256"},{"name":"hairId","type":"uint256","internalType":"uint256"},{"name":"faceId","type":"uint256","internalType":"uint256"},{"name":"accessoryId","type":"uint256","internalType":"uint256"},{"name":"topId","type":"uint256","internalType":"uint256"},{"name":"bottomId","type":"uint256","internalType":"uint256"},{"name":"shoesId","type":"uint256","internalType":"uint256"},{"name":"epoch","type":"uint32","internalType":"uint32"},{"name":"tokenId","type":"uint256","internalType":"uint256"},{"name":"bodyIndex","type":"uint8","internalType":"uint8"},{"name":"backgroundColor","type":"string","internalType":"string"},{"name":"render3D","type":"bool","internalType":"bool"}]}],"stateMutability":"view"},{"type":"function","name":"getChonkIdForTBAAddress","inputs":[{"name":"_tbaAddress","type":"address","internalType":"address"}],"outputs":[{"name":"","type":"uint256","internalType":"uint256"}],"stateMutability":"view"},{"type":"function","name":"getChonkIdToApprovedOperators","inputs":[{"name":"_chonkId","type":"uint256","internalType":"uint256"}],"outputs":[{"name":"","type":"address[]","internalType":"address[]"}],"stateMutability":"view"},{"type":"function","name":"getChonkZMap","inputs":[{"name":"_tokenId","type":"uint256","internalType":"uint256"}],"outputs":[{"name":"","type":"string","internalType":"string"}],"stateMutability":"view"},{"type":"function","name":"getFullPictureForTrait","inputs":[{"name":"_chonkTraitTokenId","type":"uint256","internalType":"uint256"}],"outputs":[{"name":"traitOwnerTBA","type":"address","internalType":"address"},{"name":"chonkTokenId","type":"uint256","internalType":"uint256"},{"name":"chonkOwner","type":"address","internalType":"address"},{"name":"isEquipped","type":"bool","internalType":"bool"}],"stateMutability":"view"},{"type":"function","name":"getOwnerAndTBAAddressForChonkId","inputs":[{"name":"_chonkId","type":"uint256","internalType":"uint256"}],"outputs":[{"name":"owner","type":"address","internalType":"address"},{"name":"tbaAddress","type":"address","internalType":"address"}],"stateMutability":"view"},{"type":"function","name":"getTBAAddressForChonkId","inputs":[{"name":"_chonkId","type":"uint256","internalType":"uint256"}],"outputs":[{"name":"","type":"address","internalType":"address"}],"stateMutability":"view"},{"type":"function","name":"getTokenRenderZ","inputs":[{"name":"_chonkTokenId","type":"uint256","internalType":"uint256"}],"outputs":[{"name":"","type":"bool","internalType":"bool"}],"stateMutability":"view"},{"type":"function","name":"getTraitsForChonkId","inputs":[{"name":"_chonkId","type":"uint256","internalType":"uint256"}],"outputs":[{"name":"traitTokens","type":"uint256[]","internalType":"uint256[]"}],"stateMutability":"view"},{"type":"function","name":"isApprovedForAll","inputs":[{"name":"owner","type":"address","internalType":"address"},{"name":"operator","type":"address","internalType":"address"}],"outputs":[{"name":"","type":"bool","internalType":"bool"}],"stateMutability":"view"},{"type":"function","name":"isTimelocked","inputs":[],"outputs":[{"name":"","type":"bool","internalType":"bool"}],"stateMutability":"view"},{"type":"function","name":"mainRenderer2D","inputs":[],"outputs":[{"name":"","type":"address","internalType":"contract MainRenderer2D"}],"stateMutability":"view"},{"type":"function","name":"mainRenderer3D","inputs":[],"outputs":[{"name":"","type":"address","internalType":"contract MainRenderer3D"}],"stateMutability":"view"},{"type":"function","name":"marketplace","inputs":[],"outputs":[{"name":"","type":"address","internalType":"contract ChonksMarket"}],"stateMutability":"view"},{"type":"function","name":"maxTraitsToOutput","inputs":[],"outputs":[{"name":"","type":"uint256","internalType":"uint256"}],"stateMutability":"view"},{"type":"function","name":"mint","inputs":[{"name":"_amount","type":"uint256","internalType":"uint256"},{"name":"_merkleProof","type":"bytes32[]","internalType":"bytes32[]"}],"outputs":[],"stateMutability":"payable"},{"type":"function","name":"mintStartTime","inputs":[],"outputs":[{"name":"","type":"uint256","internalType":"uint256"}],"stateMutability":"view"},{"type":"function","name":"name","inputs":[],"outputs":[{"name":"","type":"string","internalType":"string"}],"stateMutability":"view"},{"type":"function","name":"oneYearFromDeployment","inputs":[],"outputs":[{"name":"","type":"uint256","internalType":"uint256"}],"stateMutability":"view"},{"type":"function","name":"owner","inputs":[],"outputs":[{"name":"result","type":"address","internalType":"address"}],"stateMutability":"view"},{"type":"function","name":"ownerOf","inputs":[{"name":"tokenId","type":"uint256","internalType":"uint256"}],"outputs":[{"name":"","type":"address","internalType":"address"}],"stateMutability":"view"},{"type":"function","name":"ownershipHandoverExpiresAt","inputs":[{"name":"pendingOwner","type":"address","internalType":"address"}],"outputs":[{"name":"result","type":"uint256","internalType":"uint256"}],"stateMutability":"view"},{"type":"function","name":"price","inputs":[],"outputs":[{"name":"","type":"uint256","internalType":"uint256"}],"stateMutability":"view"},{"type":"function","name":"renderAsDataUri","inputs":[{"name":"_tokenId","type":"uint256","internalType":"uint256"}],"outputs":[{"name":"","type":"string","internalType":"string"}],"stateMutability":"view"},{"type":"function","name":"renderAsDataUri2D","inputs":[{"name":"_tokenId","type":"uint256","internalType":"uint256"}],"outputs":[{"name":"","type":"string","internalType":"string"}],"stateMutability":"view"},{"type":"function","name":"renderAsDataUri3D","inputs":[{"name":"_tokenId","type":"uint256","internalType":"uint256"}],"outputs":[{"name":"","type":"string","internalType":"string"}],"stateMutability":"view"},{"type":"function","name":"renounceOwnership","inputs":[],"outputs":[],"stateMutability":"payable"},{"type":"function","name":"requestOwnershipHandover","inputs":[],"outputs":[],"stateMutability":"payable"},{"type":"function","name":"safeTransferFrom","inputs":[{"name":"from","type":"address","internalType":"address"},{"name":"to","type":"address","internalType":"address"},{"name":"tokenId","type":"uint256","internalType":"uint256"}],"outputs":[],"stateMutability":"nonpayable"},{"type":"function","name":"safeTransferFrom","inputs":[{"name":"from","type":"address","internalType":"address"},{"name":"to","type":"address","internalType":"address"},{"name":"tokenId","type":"uint256","internalType":"uint256"},{"name":"data","type":"bytes","internalType":"bytes"}],"outputs":[],"stateMutability":"nonpayable"},{"type":"function","name":"setApprovalForAll","inputs":[{"name":"_operator","type":"address","internalType":"address"},{"name":"_approved","type":"bool","internalType":"bool"}],"outputs":[],"stateMutability":"nonpayable"},{"type":"function","name":"setApprovalForAllChonksMarketplace","inputs":[{"name":"_chonkId","type":"uint256","internalType":"uint256"},{"name":"_operator","type":"address","internalType":"address"},{"name":"_approved","type":"bool","internalType":"bool"}],"outputs":[],"stateMutability":"nonpayable"},{"type":"function","name":"setBackgroundColor","inputs":[{"name":"_chonkTokenId","type":"uint256","internalType":"uint256"},{"name":"_color","type":"string","internalType":"string"}],"outputs":[],"stateMutability":"nonpayable"},{"type":"function","name":"setBodyIndex","inputs":[{"name":"_chonkTokenId","type":"uint256","internalType":"uint256"},{"name":"_bodyIndex","type":"uint8","internalType":"uint8"}],"outputs":[],"stateMutability":"nonpayable"},{"type":"function","name":"setChonksCreatorListMerkleRoot","inputs":[{"name":"_merkleRoot","type":"bytes32","internalType":"bytes32"}],"outputs":[],"stateMutability":"nonpayable"},{"type":"function","name":"setFirstSeasonRenderMinter","inputs":[{"name":"_dataContract","type":"address","internalType":"address"}],"outputs":[],"stateMutability":"nonpayable"},{"type":"function","name":"setFriendsListMerkleRoot","inputs":[{"name":"_merkleRoot","type":"bytes32","internalType":"bytes32"}],"outputs":[],"stateMutability":"nonpayable"},{"type":"function","name":"setMainRenderer2D","inputs":[{"name":"_mainRenderer2D","type":"address","internalType":"address"}],"outputs":[],"stateMutability":"nonpayable"},{"type":"function","name":"setMainRenderer3D","inputs":[{"name":"_mainRenderer3D","type":"address","internalType":"address"}],"outputs":[],"stateMutability":"nonpayable"},{"type":"function","name":"setMarketplace","inputs":[{"name":"_marketplace","type":"address","internalType":"address"}],"outputs":[],"stateMutability":"nonpayable"},{"type":"function","name":"setMaxTraitsToOutput","inputs":[{"name":"_maxTraitsToOutput","type":"uint256","internalType":"uint256"}],"outputs":[],"stateMutability":"nonpayable"},{"type":"function","name":"setMintStartTime","inputs":[{"name":"_mintStartTime","type":"uint256","internalType":"uint256"}],"outputs":[],"stateMutability":"nonpayable"},{"type":"function","name":"setPrice","inputs":[{"name":"_priceInWei","type":"uint256","internalType":"uint256"}],"outputs":[],"stateMutability":"nonpayable"},{"type":"function","name":"setSpecialCollectionMerkleRoot","inputs":[{"name":"_merkleRoot","type":"bytes32","internalType":"bytes32"}],"outputs":[],"stateMutability":"nonpayable"},{"type":"function","name":"setTokenRender3D","inputs":[{"name":"_chonkTokenId","type":"uint256","internalType":"uint256"},{"name":"_render3D","type":"bool","internalType":"bool"}],"outputs":[],"stateMutability":"nonpayable"},{"type":"function","name":"setTraitsContract","inputs":[{"name":"_address","type":"address","internalType":"contract ChonkTraits"}],"outputs":[],"stateMutability":"nonpayable"},{"type":"function","name":"setWithdrawAddress","inputs":[{"name":"_withdrawAddress","type":"address","internalType":"address"}],"outputs":[],"stateMutability":"nonpayable"},{"type":"function","name":"specialCollectionMerkleRoot","inputs":[],"outputs":[{"name":"","type":"bytes32","internalType":"bytes32"}],"stateMutability":"view"},{"type":"function","name":"supportsInterface","inputs":[{"name":"interfaceId","type":"bytes4","internalType":"bytes4"}],"outputs":[{"name":"","type":"bool","internalType":"bool"}],"stateMutability":"view"},{"type":"function","name":"symbol","inputs":[],"outputs":[{"name":"","type":"string","internalType":"string"}],"stateMutability":"view"},{"type":"function","name":"tbaAddressToTokenId","inputs":[{"name":"","type":"address","internalType":"address"}],"outputs":[{"name":"","type":"uint256","internalType":"uint256"}],"stateMutability":"view"},{"type":"function","name":"teamMint","inputs":[{"name":"_to","type":"address","internalType":"address"},{"name":"_amount","type":"uint256","internalType":"uint256"},{"name":"_traitCount","type":"uint8","internalType":"uint8"}],"outputs":[],"stateMutability":"nonpayable"},{"type":"function","name":"teamReserve","inputs":[],"outputs":[],"stateMutability":"nonpayable"},{"type":"function","name":"tokenByIndex","inputs":[{"name":"index","type":"uint256","internalType":"uint256"}],"outputs":[{"name":"","type":"uint256","internalType":"uint256"}],"stateMutability":"view"},{"type":"function","name":"tokenIdToTBAAccountAddress","inputs":[{"name":"","type":"uint256","internalType":"uint256"}],"outputs":[{"name":"","type":"address","internalType":"address"}],"stateMutability":"view"},{"type":"function","name":"tokenOfOwnerByIndex","inputs":[{"name":"owner","type":"address","internalType":"address"},{"name":"index","type":"uint256","internalType":"uint256"}],"outputs":[{"name":"","type":"uint256","internalType":"uint256"}],"stateMutability":"view"},{"type":"function","name":"tokenURI","inputs":[{"name":"_tokenId","type":"uint256","internalType":"uint256"}],"outputs":[{"name":"","type":"string","internalType":"string"}],"stateMutability":"view"},{"type":"function","name":"totalSupply","inputs":[],"outputs":[{"name":"","type":"uint256","internalType":"uint256"}],"stateMutability":"view"},{"type":"function","name":"traitsContract","inputs":[],"outputs":[{"name":"","type":"address","internalType":"contract ChonkTraits"}],"stateMutability":"view"},{"type":"function","name":"transferFrom","inputs":[{"name":"from","type":"address","internalType":"address"},{"name":"to","type":"address","internalType":"address"},{"name":"tokenId","type":"uint256","internalType":"uint256"}],"outputs":[],"stateMutability":"nonpayable"},{"type":"function","name":"transferOwnership","inputs":[{"name":"newOwner","type":"address","internalType":"address"}],"outputs":[],"stateMutability":"payable"},{"type":"function","name":"unequip","inputs":[{"name":"_chonkTokenId","type":"uint256","internalType":"uint256"},{"name":"traitType","type":"uint8","internalType":"enum TraitCategory.Name"}],"outputs":[],"stateMutability":"nonpayable"},{"type":"function","name":"unequipAll","inputs":[{"name":"_chonkTokenId","type":"uint256","internalType":"uint256"}],"outputs":[],"stateMutability":"nonpayable"},{"type":"function","name":"walletOfOwner","inputs":[{"name":"_owner","type":"address","internalType":"address"}],"outputs":[{"name":"","type":"uint256[]","internalType":"uint256[]"}],"stateMutability":"view"},{"type":"function","name":"withdraw","inputs":[],"outputs":[],"stateMutability":"nonpayable"},{"type":"function","name":"withdrawAddress","inputs":[],"outputs":[{"name":"","type":"address","internalType":"address"}],"stateMutability":"view"},{"type":"event","name":"Approval","inputs":[{"name":"owner","type":"address","indexed":true,"internalType":"address"},{"name":"approved","type":"address","indexed":true,"internalType":"address"},{"name":"tokenId","type":"uint256","indexed":true,"internalType":"uint256"}],"anonymous":false},{"type":"event","name":"ApprovalForAll","inputs":[{"name":"owner","type":"address","indexed":true,"internalType":"address"},{"name":"operator","type":"address","indexed":true,"internalType":"address"},{"name":"approved","type":"bool","indexed":false,"internalType":"bool"}],"anonymous":false},{"type":"event","name":"BackgroundColor","inputs":[{"name":"owner","type":"address","indexed":true,"internalType":"address"},{"name":"tokenId","type":"uint256","indexed":true,"internalType":"uint256"},{"name":"color","type":"string","indexed":false,"internalType":"string"}],"anonymous":false},{"type":"event","name":"BatchMetadataUpdate","inputs":[{"name":"_fromTokenId","type":"uint256","indexed":false,"internalType":"uint256"},{"name":"_toTokenId","type":"uint256","indexed":false,"internalType":"uint256"}],"anonymous":false},{"type":"event","name":"BodyIndex","inputs":[{"name":"owner","type":"address","indexed":true,"internalType":"address"},{"name":"tokenId","type":"uint256","indexed":true,"internalType":"uint256"},{"name":"_bodyIndex","type":"uint8","indexed":false,"internalType":"uint8"}],"anonymous":false},{"type":"event","name":"Equip","inputs":[{"name":"owner","type":"address","indexed":true,"internalType":"address"},{"name":"tokenId","type":"uint256","indexed":true,"internalType":"uint256"},{"name":"traitTokenId","type":"uint256","indexed":true,"internalType":"uint256"},{"name":"traitCategory","type":"uint8","indexed":false,"internalType":"uint8"}],"anonymous":false},{"type":"event","name":"EquipAll","inputs":[{"name":"owner","type":"address","indexed":true,"internalType":"address"},{"name":"tokenId","type":"uint256","indexed":true,"internalType":"uint256"}],"anonymous":false},{"type":"event","name":"MetadataUpdate","inputs":[{"name":"_tokenId","type":"uint256","indexed":false,"internalType":"uint256"}],"anonymous":false},{"type":"event","name":"Mint","inputs":[{"name":"owner","type":"address","indexed":true,"internalType":"address"},{"name":"tokenId","type":"uint256","indexed":true,"internalType":"uint256"}],"anonymous":false},{"type":"event","name":"OwnershipHandoverCanceled","inputs":[{"name":"pendingOwner","type":"address","indexed":true,"internalType":"address"}],"anonymous":false},{"type":"event","name":"OwnershipHandoverRequested","inputs":[{"name":"pendingOwner","type":"address","indexed":true,"internalType":"address"}],"anonymous":false},{"type":"event","name":"OwnershipTransferred","inputs":[{"name":"oldOwner","type":"address","indexed":true,"internalType":"address"},{"name":"newOwner","type":"address","indexed":true,"internalType":"address"}],"anonymous":false},{"type":"event","name":"Render3D","inputs":[{"name":"owner","type":"address","indexed":true,"internalType":"address"},{"name":"tokenId","type":"uint256","indexed":true,"internalType":"uint256"},{"name":"renderZ","type":"bool","indexed":false,"internalType":"bool"}],"anonymous":false},{"type":"event","name":"Transfer","inputs":[{"name":"from","type":"address","indexed":true,"internalType":"address"},{"name":"to","type":"address","indexed":true,"internalType":"address"},{"name":"tokenId","type":"uint256","indexed":true,"internalType":"uint256"}],"anonymous":false},{"type":"event","name":"Unequip","inputs":[{"name":"owner","type":"address","indexed":true,"internalType":"address"},{"name":"tokenId","type":"uint256","indexed":true,"internalType":"uint256"},{"name":"traitCategory","type":"uint8","indexed":false,"internalType":"uint8"}],"anonymous":false},{"type":"event","name":"UnequipAll","inputs":[{"name":"owner","type":"address","indexed":true,"internalType":"address"},{"name":"tokenId","type":"uint256","indexed":true,"internalType":"uint256"}],"anonymous":false},{"type":"error","name":"AlreadyInitialized","inputs":[]},{"type":"error","name":"BodyAlreadyExists","inputs":[]},{"type":"error","name":"CanOnlyReserveFirstTwo","inputs":[]},{"type":"error","name":"CantBeZero","inputs":[]},{"type":"error","name":"CantTransferDuringMint","inputs":[]},{"type":"error","name":"CantTransferToTBAs","inputs":[]},{"type":"error","name":"ChonkDoesntExist","inputs":[]},{"type":"error","name":"FirstSeasonRenderMinterNotSet","inputs":[]},{"type":"error","name":"IncorrectChonkOwner","inputs":[]},{"type":"error","name":"IncorrectTBAOwner","inputs":[]},{"type":"error","name":"IncorrectTraitType","inputs":[]},{"type":"error","name":"InsufficientFunds","inputs":[]},{"type":"error","name":"InvalidBodyIndex","inputs":[]},{"type":"error","name":"InvalidColor","inputs":[]},{"type":"error","name":"InvalidTraitCount","inputs":[]},{"type":"error","name":"MintEnded","inputs":[]},{"type":"error","name":"MintNotStarted","inputs":[]},{"type":"error","name":"MintStartTimeAlreadySet","inputs":[]},{"type":"error","name":"NewOwnerIsZeroAddress","inputs":[]},{"type":"error","name":"NoHandoverRequest","inputs":[]},{"type":"error","name":"TenIsMaxMint","inputs":[]},{"type":"error","name":"Timelocked","inputs":[]},{"type":"error","name":"Unauthorized","inputs":[]},{"type":"error","name":"UseUnequip","inputs":[]},{"type":"error","name":"WithdrawFailed","inputs":[]}],"bytecode":{"object":"0x60a060405260636012553480156200001657600080fd5b50604051620064a0380380620064a08339810160408190526200003991620000f1565b6040518060400160405280600681526020016543686f6e6b7360d01b8152506040518060400160405280600681526020016543484f4e4b5360d01b8152508160009081620000889190620001c3565b506001620000978282620001c3565b50506001600a5550620000aa33620000b5565b50426080526200028f565b6001600160a01b0316638b78c6d8198190558060007f8be0079c531659141344cd1fd0a4f28419497f9722a3daafe3b4186f6b6457e08180a350565b6000602082840312156200010457600080fd5b815180151581146200011557600080fd5b9392505050565b634e487b7160e01b600052604160045260246000fd5b600181811c908216806200014757607f821691505b6020821081036200016857634e487b7160e01b600052602260045260246000fd5b50919050565b601f821115620001be576000816000526020600020601f850160051c81016020861015620001995750805b601f850160051c820191505b81811015620001ba57828155600101620001a5565b5050505b505050565b81516001600160401b03811115620001df57620001df6200011c565b620001f781620001f0845462000132565b846200016e565b602080601f8311600181146200022f5760008415620002165750858301515b600019600386901b1c1916600185901b178555620001ba565b600085815260208120601f198616915b8281101562000260578886015182559484019460019091019084016200023f565b50858210156200027f5787850151600019600388901b60f8161c191681555b5050505050600190811b01905550565b6080516161ee620002b260003960008181610fb901526131de01526161ee6000f3fe6080604052600436106104e05760003560e01c80638472cbca11610281578063ba41b0c61161015a578063e1405540116100cc578063f2361e2311610085578063f2361e2314610fee578063f2fde38b1461100e578063f3f8efb914611021578063f4bec0b614611041578063f6a0c93214611061578063fee81cf41461109757600080fd5b8063e140554014610f08578063e29babbb14610f28578063e3d2155514610f48578063e985e9c514610f5e578063ecda10f514610fa7578063f04e283e14610fdb57600080fd5b8063d3d6873e1161011e578063d3d6873e14610e50578063d59752eb14610e7d578063d5b3621b14610e92578063d68c4f3214610eb2578063dceef0ec14610ed2578063deab1d3614610ef257600080fd5b8063ba41b0c614610dbd578063bef1dfb714610dd0578063c093afdb14610df0578063c87b56dd14610e10578063cdb6dd5c14610e3057600080fd5b80639f6e4637116101f3578063a4bf9a00116101b7578063a4bf9a0014610cd8578063abc8c7af14610d05578063b45d031614610d25578063b66ef6e314610d5d578063b88d4fde14610d7d578063b99ce71f14610d9d57600080fd5b80639f6e463714610c34578063a035b1fe14610c54578063a1d6268014610c6a578063a22cb46514610c8a578063a23830ae14610caa57600080fd5b806391b7f5ed1161024557806391b7f5ed14610b6f57806392012f0814610b8f578063931e2e4914610bbe57806395d89b4114610bd45780639c05d68d14610be95780639c7be2f114610c1f57600080fd5b80638472cbca14610aca5780638aa1e4c814610b005780638da5cb5b14610b205780638f22475714610b39578063916c546b14610b4f57600080fd5b80633ccfd60b116103be57806358a976401161033057806370a08231116102e957806370a0823114610a19578063715018a614610a3957806373ad6c2d14610a415780637684ef0d14610a615780637e2e6c4714610a775780638200ea5114610a9757600080fd5b806358a97640146109175780635eabd84a146109375780636352211e14610957578063667043491461097757806367d2afe2146109cc5780636e51665f146109f957600080fd5b80634a60f620116103825780634a60f620146108845780634f6ccce71461089a57806350b03146146108ba57806354d1f13d146108cf578063550ab247146108d757806355737f35146108f757600080fd5b80633ccfd60b146107ed57806342842e0e146108025780634287f14a14610822578063438b6300146108375780634a4333a31461086457600080fd5b80631ab37512116104575780633044825b1161041b5780633044825b1461072d578063306c73341461074d57806330f6c5211461076d57806332875aa01461078d57806333d3d9bf146107ad5780633ab1a494146107cd57600080fd5b80631ab37512146106a557806323b872dd146106c557806325692962146106e557806328257532146106ed5780632f745c591461070d57600080fd5b8063095ea7b3116104a9578063095ea7b3146105d65780630c83f9d7146105f657806313ea0ae31461062657806314fe8ff4146106465780631581b6001461066657806318160ddd1461068657600080fd5b8062179206146104e557806301ffc9a71461050757806304003bd01461053c57806306fdde031461057c578063081812fc1461059e575b600080fd5b3480156104f157600080fd5b50610505610500366004614fea565b6110ca565b005b34801561051357600080fd5b5061052761052236600461501d565b61111a565b60405190151581526020015b60405180910390f35b34801561054857600080fd5b5061055c61055736600461503a565b61112b565b604080516001600160a01b03938416815292909116602083015201610533565b34801561058857600080fd5b5061059161115a565b60405161053391906150a3565b3480156105aa57600080fd5b506105be6105b936600461503a565b6111ec565b6040516001600160a01b039091168152602001610533565b3480156105e257600080fd5b506105056105f13660046150b6565b611213565b34801561060257600080fd5b5061061661061136600461503a565b611264565b60405161053394939291906150e2565b34801561063257600080fd5b50600f546105be906001600160a01b031681565b34801561065257600080fd5b5061059161066136600461503a565b611425565b34801561067257600080fd5b506014546105be906001600160a01b031681565b34801561069257600080fd5b506008545b604051908152602001610533565b3480156106b157600080fd5b506105056106c036600461503a565b611669565b3480156106d157600080fd5b506105056106e036600461512c565b611676565b6105056116b5565b3480156106f957600080fd5b5061050561070836600461516d565b611704565b34801561071957600080fd5b506106976107283660046150b6565b6118fd565b34801561073957600080fd5b5061050561074836600461503a565b611993565b34801561075957600080fd5b5061059161076836600461503a565b611a4e565b34801561077957600080fd5b50610505610788366004615291565b611a66565b34801561079957600080fd5b506105916107a836600461503a565b611ad2565b3480156107b957600080fd5b506105056107c836600461503a565b611b89565b3480156107d957600080fd5b506105056107e8366004614fea565b611b96565b3480156107f957600080fd5b50610505611bc0565b34801561080e57600080fd5b5061050561081d36600461512c565b611c3f565b34801561082e57600080fd5b50610505611c5a565b34801561084357600080fd5b50610857610852366004614fea565b611c9b565b604051610533919061532d565b34801561087057600080fd5b5061050561087f366004615371565b611d32565b34801561089057600080fd5b5061069760135481565b3480156108a657600080fd5b506106976108b536600461503a565b612063565b3480156108c657600080fd5b506105276120f6565b610505612107565b3480156108e357600080fd5b506105056108f23660046153d6565b612143565b34801561090357600080fd5b506105be61091236600461516d565b612199565b34801561092357600080fd5b50610505610932366004614fea565b6121d1565b34801561094357600080fd5b50610505610952366004614fea565b612221565b34801561096357600080fd5b506105be61097236600461503a565b612271565b34801561098357600080fd5b5061099761099236600461503a565b6122d1565b60405161053394939291906001600160a01b039485168152602081019390935292166040820152901515606082015260800190565b3480156109d857600080fd5b506109ec6109e736600461503a565b612383565b6040516105339190615459565b348015610a0557600080fd5b50610505610a1436600461546c565b6123ef565b348015610a2557600080fd5b50610697610a34366004614fea565b612493565b610505612519565b348015610a4d57600080fd5b50610505610a5c366004614fea565b61252b565b348015610a6d57600080fd5b50610697601d5481565b348015610a8357600080fd5b50610505610a92366004614fea565b61257b565b348015610aa357600080fd5b50610527610ab236600461503a565b6000908152601760205260409020600b015460ff1690565b348015610ad657600080fd5b50610697610ae5366004614fea565b6001600160a01b031660009081526019602052604090205490565b348015610b0c57600080fd5b50610527610b1b36600461516d565b6125cb565b348015610b2c57600080fd5b50638b78c6d819546105be565b348015610b4557600080fd5b50610697601c5481565b348015610b5b57600080fd5b50610591610b6a36600461503a565b61263a565b348015610b7b57600080fd5b50610505610b8a36600461503a565b61273d565b348015610b9b57600080fd5b50610baf610baa3660046154b5565b61274a565b604051610533939291906155ae565b348015610bca57600080fd5b5061069760165481565b348015610be057600080fd5b5061059161289b565b348015610bf557600080fd5b506105be610c0436600461503a565b6018602052600090815260409020546001600160a01b031681565b348015610c2b57600080fd5b506105056128aa565b348015610c4057600080fd5b50610857610c4f36600461503a565b6128d7565b348015610c6057600080fd5b5061069760155481565b348015610c7657600080fd5b50610591610c8536600461503a565b612966565b348015610c9657600080fd5b50610505610ca53660046155e7565b612996565b348015610cb657600080fd5b50610cca610cc53660046154b5565b612a0f565b60405161053392919061561c565b348015610ce457600080fd5b50610697610cf3366004614fea565b60196020526000908152604090205481565b348015610d1157600080fd5b50600e546105be906001600160a01b031681565b348015610d3157600080fd5b50610d45610d4036600461503a565b612abd565b6040516105339c9b9a9998979695949392919061564a565b348015610d6957600080fd5b506011546105be906001600160a01b031681565b348015610d8957600080fd5b50610505610d983660046156c3565b612bb4565b348015610da957600080fd5b50610505610db836600461503a565b612be6565b610505610dcb366004615751565b612bf3565b348015610ddc57600080fd5b50610505610deb3660046157ed565b612d7e565b348015610dfc57600080fd5b50600d546105be906001600160a01b031681565b348015610e1c57600080fd5b50610591610e2b36600461503a565b612e29565b348015610e3c57600080fd5b50610505610e4b36600461581d565b612e6a565b348015610e5c57600080fd5b50610e70610e6b36600461503a565b61302e565b604051610533919061584d565b348015610e8957600080fd5b506106976131d7565b348015610e9e57600080fd5b50610505610ead36600461503a565b61320c565b348015610ebe57600080fd5b50610505610ecd366004615904565b61323a565b348015610ede57600080fd5b50610591610eed36600461503a565b613453565b348015610efe57600080fd5b50610697601b5481565b348015610f1457600080fd5b50610505610f2336600461594a565b6136f9565b348015610f3457600080fd5b50610505610f4336600461503a565b6137c1565b348015610f5457600080fd5b5061069760125481565b348015610f6a57600080fd5b50610527610f7936600461596d565b6001600160a01b03918216600090815260056020908152604080832093909416825291909152205460ff1690565b348015610fb357600080fd5b506106977f000000000000000000000000000000000000000000000000000000000000000081565b610505610fe9366004614fea565b6137ce565b348015610ffa57600080fd5b5061050561100936600461599b565b61380b565b61050561101c366004614fea565b61387e565b34801561102d57600080fd5b5061059161103c36600461503a565b6138a5565b34801561104d57600080fd5b506010546105be906001600160a01b031681565b34801561106d57600080fd5b506105be61107c36600461503a565b6000908152601860205260409020546001600160a01b031690565b3480156110a357600080fd5b506106976110b2366004614fea565b63389a75e1600c908152600091909152602090205490565b6110d2613b26565b6110da6120f6565b156110f85760405163774ae17d60e01b815260040160405180910390fd5b601180546001600160a01b0319166001600160a01b0392909216919091179055565b600061112582613b41565b92915050565b60008061113783612271565b6000938452601860205260409093205492936001600160a01b0390931692915050565b60606000805461116990615a20565b80601f016020809104026020016040519081016040528092919081815260200182805461119590615a20565b80156111e25780601f106111b7576101008083540402835291602001916111e2565b820191906000526020600020905b8154815290600101906020018083116111c557829003601f168201915b5050505050905090565b60006111f782613b66565b506000908152600460205260409020546001600160a01b031690565b61121c81612271565b6001600160a01b0316336001600160a01b03161461124c576040516282b42960e81b815260040160405180910390fd5b6112568183613bc5565b6112608282613c04565b5050565b600c602052600090815260409020805460018201805491929161128690615a20565b80601f01602080910402602001604051908101604052809291908181526020018280546112b290615a20565b80156112ff5780601f106112d4576101008083540402835291602001916112ff565b820191906000526020600020905b8154815290600101906020018083116112e257829003601f168201915b50505050509080600201805461131490615a20565b80601f016020809104026020016040519081016040528092919081815260200182805461134090615a20565b801561138d5780601f106113625761010080835404028352916020019161138d565b820191906000526020600020905b81548152906001019060200180831161137057829003601f168201915b5050505050908060030180546113a290615a20565b80601f01602080910402602001604051908101604052809291908181526020018280546113ce90615a20565b801561141b5780601f106113f05761010080835404028352916020019161141b565b820191906000526020600020905b8154815290600101906020018083116113fe57829003601f168201915b5050505050905084565b60606000611432836128d7565b90506000600d60009054906101000a90046001600160a01b03166001600160a01b0316635c1ef2566040518163ffffffff1660e01b8152600401600060405180830381865afa158015611489573d6000803e3d6000fd5b505050506040513d6000823e601f3d908101601f191682016040526114b19190810190615a9f565b905060006012548351106114c7576012546114ca565b82515b90506000816001600160401b038111156114e6576114e66151a5565b60405190808252806020026020018201604052801561151957816020015b60608152602001906001900390816115045790505b50905060005b828110156115e057600d5485516001600160a01b039091169063c77915319087908490811061155057611550615ad3565b60200260200101516040518263ffffffff1660e01b815260040161157691815260200190565b600060405180830381865afa158015611593573d6000803e3d6000fd5b505050506040513d6000823e601f3d908101601f191682016040526115bb9190810190615a9f565b8282815181106115cd576115cd615ad3565b602090810291909101015260010161151f565b506010548451601254604051631719ff8760e11b81526001600160a01b0390931692632e33ff0e9261161a92889287929190600401615ae9565b600060405180830381865afa158015611637573d6000803e3d6000fd5b505050506040513d6000823e601f3d908101601f1916820160405261165f9190810190615a9f565b9695505050505050565b611671613b26565b601c55565b6116803382613c72565b6116a55760405162461bcd60e51b815260040161169c90615b6a565b60405180910390fd5b6116b0838383613cf0565b505050565b60006202a3006001600160401b03164201905063389a75e1600c5233600052806020600c2055337fdbf36a107da19e49527a7176a1babf963b4b0ff8cde35ee35d6cd8f1f9ac7e1d600080a250565b8161170e81612271565b6001600160a01b0316336001600160a01b03161461173f57604051631431735b60e21b815260040160405180910390fd5b8160000361176057604051630754c7f360e41b815260040160405180910390fd5b600061176c8484613e9d565b9050600181600781111561178257611782615bb8565b036117995760008481526017602052604090208390555b60028160078111156117ad576117ad615bb8565b036117c75760008481526017602052604090206001018390555b60038160078111156117db576117db615bb8565b036117f55760008481526017602052604090206002018390555b600481600781111561180957611809615bb8565b036118235760008481526017602052604090206003018390555b600581600781111561183757611837615bb8565b036118515760008481526017602052604090206004018390555b600681600781111561186557611865615bb8565b0361187f5760008481526017602052604090206005018390555b600781600781111561189357611893615bb8565b036118ad5760008481526017602052604090206006018390555b82846118b886612271565b6001600160a01b03166000805160206161998339815191528460078111156118e2576118e2615bb8565b60405160ff909116815260200160405180910390a450505050565b600061190883612493565b821061196a5760405162461bcd60e51b815260206004820152602b60248201527f455243373231456e756d657261626c653a206f776e657220696e646578206f7560448201526a74206f6620626f756e647360a81b606482015260840161169c565b506001600160a01b03919091166000908152600660209081526040808320938352929052205490565b8061199d81612271565b6001600160a01b0316336001600160a01b0316146119ce57604051631431735b60e21b815260040160405180910390fd5b60008281526017602052604081208181556001810182905560028101829055600381018290556004810182905560058101829055600681019190915582611a1481612271565b6001600160a01b03167f46078a2cd4c69c3b4a27bdc69fdfe03d442ebcf405f1a68e9b5df6bc3e24429760405160405180910390a3505050565b606080611a5d610baa8461302e565b50949350505050565b89611a7081612271565b6001600160a01b0316336001600160a01b031614611aa157604051631431735b60e21b815260040160405180910390fd5b611ab18b8b8b8b8b8b8b8b611d32565b611abb8b846136f9565b611ac58b8361323a565b5050505050505050505050565b600d5460609081906001600160a01b031663bb12d21d611af18561302e565b6040518263ffffffff1660e01b8152600401611b0d919061584d565b600060405180830381865afa158015611b2a573d6000803e3d6000fd5b505050506040513d6000823e601f3d908101601f19168201604052611b529190810190615bce565b509150611b60905083611a4e565b81604051602001611b72929190615c55565b604051602081830303815290604052915050919050565b611b91613b26565b601255565b611b9e613b26565b601480546001600160a01b0319166001600160a01b0392909216919091179055565b611bc8613b26565b6014546040516000916001600160a01b03169047908381818185875af1925050503d8060008114611c15576040519150601f19603f3d011682016040523d82523d6000602084013e611c1a565b606091505b5050905080611c3c57604051631d42c86760e21b815260040160405180910390fd5b50565b6116b083838360405180602001604052806000815250612bb4565b611c62613b26565b6002611c6d60085490565b1115611c8c5760405163155b299760e31b815260040160405180910390fd5b611c993360026007613f38565b565b60606000611ca883612493565b90506000816001600160401b03811115611cc457611cc46151a5565b604051908082528060200260200182016040528015611ced578160200160208202803683370190505b50905060005b82811015611d2a57611d0585826118fd565b828281518110611d1757611d17615ad3565b6020908102919091010152600101611cf3565b509392505050565b87611d3c81612271565b6001600160a01b0316336001600160a01b031614611d6d57604051631431735b60e21b815260040160405180910390fd5b60008981526017602090815260408083206018909252909120546001600160a01b03168915611de957611da0818b614258565b611dab8a60016142fa565b898255898b611db981612271565b6001600160a01b0316600080516020616199833981519152600160405160ff909116815260200160405180910390a45b8815611e4657611df9818a614258565b611e048960026142fa565b60018201899055888b611e1681612271565b6001600160a01b0316600080516020616199833981519152600260405160ff909116815260200160405180910390a45b8715611ea357611e568189614258565b611e618860036142fa565b60028201889055878b611e7381612271565b6001600160a01b0316600080516020616199833981519152600360405160ff909116815260200160405180910390a45b8615611f0057611eb38188614258565b611ebe8760046142fa565b60038201879055868b611ed081612271565b6001600160a01b0316600080516020616199833981519152600460405160ff909116815260200160405180910390a45b8515611f5d57611f108187614258565b611f1b8660056142fa565b60048201869055858b611f2d81612271565b6001600160a01b0316600080516020616199833981519152600560405160ff909116815260200160405180910390a45b8415611fba57611f6d8186614258565b611f788560066142fa565b60058201859055848b611f8a81612271565b6001600160a01b0316600080516020616199833981519152600660405160ff909116815260200160405180910390a45b831561201757611fca8185614258565b611fd58460076142fa565b60068201849055838b611fe781612271565b6001600160a01b0316600080516020616199833981519152600760405160ff909116815260200160405180910390a45b8a6120218c612271565b6001600160a01b03167f56680590212b09eb4b72a2eba8801b037ec046dfc754538e924f5bb6a8c4db6c60405160405180910390a35050505050505050505050565b600061206e60085490565b82106120d15760405162461bcd60e51b815260206004820152602c60248201527f455243373231456e756d657261626c653a20676c6f62616c20696e646578206f60448201526b7574206f6620626f756e647360a01b606482015260840161169c565b600882815481106120e4576120e4615ad3565b90600052602060002001549050919050565b60006121006131d7565b4211905090565b63389a75e1600c523360005260006020600c2055337ffa7b8eab7da67f412cc9575ed43464468f9bfbae89d1675917346ca6d8fe3c92600080a2565b600061214e84612271565b90506001600160a01b0381163314612178576040516282b42960e81b815260040160405180910390fd5b8115612188576121888484613bc5565b6121938184846143fc565b50505050565b601a60205281600052604060002081815481106121b557600080fd5b6000918252602090912001546001600160a01b03169150829050565b6121d9613b26565b6121e16120f6565b156121ff5760405163774ae17d60e01b815260040160405180910390fd5b600f80546001600160a01b0319166001600160a01b0392909216919091179055565b612229613b26565b6122316120f6565b1561224f5760405163774ae17d60e01b815260040160405180910390fd5b600d80546001600160a01b0319166001600160a01b0392909216919091179055565b6000818152600260205260408120546001600160a01b0316806111255760405162461bcd60e51b8152602060048201526018602482015277115490cdcc8c4e881a5b9d985b1a59081d1bdad95b88125160421b604482015260640161169c565b600d546040516331a9108f60e11b8152600481018390526000918291829182916001600160a01b0390911690636352211e90602401602060405180830381865afa158015612323573d6000803e3d6000fd5b505050506040513d601f19601f820116820180604052508101906123479190615c84565b6001600160a01b038116600090815260196020526040902054909450925061236e83612271565b915061237a83866125cb565b90509193509193565b6000818152601a60209081526040918290208054835181840281018401909452808452606093928301828280156123e357602002820191906000526020600020905b81546001600160a01b031681526001909101906020018083116123c5575b50505050509050919050565b6123f7613b26565b60048160ff16108061240c575060078160ff16115b1561242a57604051632258debf60e01b815260040160405180910390fd5b601654158061243a575060165442105b1561245857604051630314872760e11b815260040160405180910390fd5b6016546124689062016da0615cb7565b4211156124885760405163124212e560e21b815260040160405180910390fd5b6116b0838383613f38565b60006001600160a01b0382166124fd5760405162461bcd60e51b815260206004820152602960248201527f4552433732313a2061646472657373207a65726f206973206e6f7420612076616044820152683634b21037bbb732b960b91b606482015260840161169c565b506001600160a01b031660009081526003602052604090205490565b612521613b26565b611c9960006144c2565b612533613b26565b61253b6120f6565b156125595760405163774ae17d60e01b815260040160405180910390fd5b600e80546001600160a01b0319166001600160a01b0392909216919091179055565b612583613b26565b61258b6120f6565b156125a95760405163774ae17d60e01b815260040160405180910390fd5b601080546001600160a01b0319166001600160a01b0392909216919091179055565b6000806125d78461302e565b80519091508314806125ec5750828160200151145b806125fa5750828160400151145b806126085750828160600151145b806126165750828160800151145b806126245750828160a00151145b806126325750828160c00151145b949350505050565b6010546000828152600c602052604080822090516371bed9e160e11b81526060936001600160a01b03169163e37db3c29161267b9160020190600401615d47565b600060405180830381865afa158015612698573d6000803e3d6000fd5b505050506040513d6000823e601f3d908101601f191682016040526126c09190810190615a9f565b6010546040516335b07b7960e11b81529192506001600160a01b031690636b60f6f2906126f19084906004016150a3565b600060405180830381865afa15801561270e573d6000803e3d6000fd5b505050506040513d6000823e601f3d908101601f191682016040526127369190810190615a9f565b9392505050565b612745613b26565b601555565b606080606061276084610120015160ff1661263a565b6101208501805160ff9081166000908152600c602052604080822060105494519093168252908190209051630d88d4ff60e01b81526003909201926001600160a01b031691630d88d4ff916127bd91600190910190600401615d5a565b600060405180830381865afa1580156127da573d6000803e3d6000fd5b505050506040513d6000823e601f3d908101601f191682016040526128029190810190615a9f565b81805461280e90615a20565b80601f016020809104026020016040519081016040528092919081815260200182805461283a90615a20565b80156128875780601f1061285c57610100808354040283529160200191612887565b820191906000526020600020905b81548152906001019060200180831161286a57829003601f168201915b505050505091509250925092509193909250565b60606001805461116990615a20565b600b5460ff1615611c995760005b600a811015611c3c5760606128ce600482612bf3565b506001016128b8565b600081815260186020526040812054606091906001600160a01b0316600d5460405162438b6360e81b81526001600160a01b03808416600483015292935091169063438b630090602401600060405180830381865afa15801561293e573d6000803e3d6000fd5b505050506040513d6000823e601f3d908101601f191682016040526127369190810190615d8d565b606060006129738361302e565b905080610160015161298d57612988836138a5565b612736565b61273683613453565b8015612a045760006129a733611c9b565b905080516000036129ca576040516282b42960e81b815260040160405180910390fd5b60005b8151811015612a01576129f98282815181106129eb576129eb615ad3565b602002602001015185613bc5565b6001016129cd565b50505b6112603383836143fc565b606080612a2383610120015160ff1661263a565b60105461012085015160ff166000908152600c6020526040908190209051630d88d4ff60e01b81526001600160a01b0390921691630d88d4ff91612a6f91600190910190600401615d5a565b600060405180830381865afa158015612a8c573d6000803e3d6000fd5b505050506040513d6000823e601f3d908101601f19168201604052612ab49190810190615a9f565b91509150915091565b601760205260009081526040902080546001820154600283015460038401546004850154600586015460068701546007880154600889015460098a0154600a8b0180549a9b999a9899979896979596949563ffffffff90941694929360ff90921692612b2890615a20565b80601f0160208091040260200160405190810160405280929190818152602001828054612b5490615a20565b8015612ba15780601f10612b7657610100808354040283529160200191612ba1565b820191906000526020600020905b815481529060010190602001808311612b8457829003601f168201915b505050600b909301549192505060ff168c565b612bbe3383613c72565b612bda5760405162461bcd60e51b815260040161169c90615b6a565b61219384848484614500565b612bee613b26565b601d55565b600f546001600160a01b0316612c1c57604051633390ca8960e21b815260040160405180910390fd5b81600003612c3d5760405163e7195f5160e01b815260040160405180910390fd5b600a821115612c5f57604051634b70da3960e01b815260040160405180910390fd5b6016541580612c6f575060165442105b15612c8d57604051630314872760e11b815260040160405180910390fd5b601654612c9d9062015180615cb7565b421115612cbd5760405163124212e560e21b815260040160405180910390fd5b81601554612ccb9190615e12565b3414612cea5760405163356680b760e01b815260040160405180910390fd5b6040516bffffffffffffffffffffffff193360601b166020820152600490600090603401604051602081830303815290604052805190602001209050612d3383601b5483614533565b15612d415760059150612d73565b612d4e83601c5483614533565b15612d5c5760069150612d73565b612d6983601d5483614533565b15612d7357600791505b612193338584613f38565b81612d8881612271565b6001600160a01b0316336001600160a01b031614612db957604051631431735b60e21b815260040160405180910390fd5b6000838152601760205260409020600b01805460ff191683151517905582612de081612271565b6001600160a01b03167f6dd9e2813f787f711671bf91b2e57a72b9b61bc279b934201f3fd29b3b5f8cbe84604051612e1c911515815260200190565b60405180910390a3505050565b6000818152600260205260409020546060906001600160a01b0316612e6157604051636461f73160e01b815260040160405180910390fd5b61112582612966565b81612e7481612271565b6001600160a01b0316336001600160a01b031614612ea557604051631431735b60e21b815260040160405180910390fd5b6001826007811115612eb957612eb9615bb8565b03612ece576000838152601760205260408120555b6002826007811115612ee257612ee2615bb8565b03612efa576000838152601760205260408120600101555b6003826007811115612f0e57612f0e615bb8565b03612f26576000838152601760205260408120600201555b6004826007811115612f3a57612f3a615bb8565b03612f52576000838152601760205260408120600301555b6005826007811115612f6657612f66615bb8565b03612f7e576000838152601760205260408120600401555b6006826007811115612f9257612f92615bb8565b03612faa576000838152601760205260408120600501555b6007826007811115612fbe57612fbe615bb8565b03612fd6576000838152601760205260408120600601555b82612fe084612271565b6001600160a01b03167f3d8ac56c725fc7985e9444622a45baee28ba67d8a964045f747b465121f40e7184600781111561301c5761301c615bb8565b60405160ff9091168152602001612e1c565b61309d60405180610180016040528060008152602001600081526020016000815260200160008152602001600081526020016000815260200160008152602001600063ffffffff16815260200160008152602001600060ff168152602001606081526020016000151581525090565b600082815260176020908152604091829020825161018081018452815481526001820154928101929092526002810154928201929092526003820154606082015260048201546080820152600582015460a0820152600682015460c0820152600782015463ffffffff1660e08201526008820154610100820152600982015460ff16610120820152600a820180549192916101408401919061313e90615a20565b80601f016020809104026020016040519081016040528092919081815260200182805461316a90615a20565b80156131b75780601f1061318c576101008083540402835291602001916131b7565b820191906000526020600020905b81548152906001019060200180831161319a57829003601f168201915b5050509183525050600b919091015460ff16151560209091015292915050565b60006132077f00000000000000000000000000000000000000000000000000000000000000006301e13380615cb7565b905090565b613214613b26565b601654156132355760405163703e78e960e11b815260040160405180910390fd5b601655565b8161324481612271565b6001600160a01b0316336001600160a01b03161461327557604051631431735b60e21b815260040160405180910390fd5b8151829060061461329957604051631cf7e9c560e01b815260040160405180910390fd5b60005b60068110156133e657603060f81b8282815181106132bc576132bc615ad3565b01602001516001600160f81b031916108015906132fd5750603960f81b8282815181106132eb576132eb615ad3565b01602001516001600160f81b03191611155b15801561335f5750604160f81b82828151811061331c5761331c615ad3565b01602001516001600160f81b0319161080159061335d5750604660f81b82828151811061334b5761334b615ad3565b01602001516001600160f81b03191611155b155b80156133c05750606160f81b82828151811061337d5761337d615ad3565b01602001516001600160f81b031916108015906133be5750606660f81b8282815181106133ac576133ac615ad3565b01602001516001600160f81b03191611155b155b156133de57604051631cf7e9c560e01b815260040160405180910390fd5b60010161329c565b506000848152601760205260409020600a016134028482615e71565b508361340d85612271565b6001600160a01b03167f2e34f8c0f6052b66319b4a5df14eac164c6af8a0b37f612d4304a777e1ae7a3d8560405161344591906150a3565b60405180910390a350505050565b60608060608060608060606134896040518060800160405280606081526020016060815260200160608152602001600081525090565b60006134948a61302e565b905061349f8161274a565b50600d5460405163bb12d21d60e01b8152929a509097506001600160a01b03169063bb12d21d906134d490849060040161584d565b600060405180830381865afa1580156134f1573d6000803e3d6000fd5b505050506040513d6000823e601f3d908101601f191682016040526135199190810190615bce565b60405192995090965093506135349087908790602001615c55565b60408051601f19818403018152919052610140820151835293506135578a6128d7565b51606083015261012081015160ff166000908152600c60205260409020600101805461358290615a20565b80601f01602080910402602001604051908101604052809291908181526020018280546135ae90615a20565b80156135fb5780601f106135d0576101008083540402835291602001916135fb565b820191906000526020600020905b8154815290600101906020018083116135de57829003601f168201915b505050505082602001819052506136248a6000908152601760205260409020600b015460ff1690565b61364857604051806040016040528060028152602001610c9160f21b815250613664565b604051806040016040528060028152602001610cd160f21b8152505b604080840191909152601154905163efcc1e3160e01b81526001600160a01b039091169063efcc1e31906136a6908d908c908c9089908b908a90600401615f8f565b600060405180830381865afa1580156136c3573d6000803e3d6000fd5b505050506040513d6000823e601f3d908101601f191682016040526136eb9190810190615a9f565b9a9950505050505050505050565b8161370381612271565b6001600160a01b0316336001600160a01b03161461373457604051631431735b60e21b815260040160405180910390fd5b60048260ff161115613759576040516329ba348d60e11b815260040160405180910390fd5b6000838152601760205260409020600901805460ff191660ff84161790558261378181612271565b60405160ff851681526001600160a01b0391909116907f454db5768a3f8187a5dd5e9cca100cf699d74d8a03f793d16da3932cdf34d35890602001612e1c565b6137c9613b26565b601b55565b6137d6613b26565b63389a75e1600c52806000526020600c2080544211156137fe57636f5e88186000526004601cfd5b60009055611c3c816144c2565b613813613b26565b61381b6120f6565b156138395760405163774ae17d60e01b815260040160405180910390fd5b6000848152600c60205260409020848155600181016138588582615e71565b50600281016138678482615e71565b50600381016138768382615e71565b505050505050565b613886613b26565b8060601b61389c57637448fbae6000526004601cfd5b611c3c816144c2565b606080606080606060006138b88761302e565b90506138c381612a0f565b50600d54604051631be5857160e31b81529196506001600160a01b03169063df2c2b88906138f590849060040161584d565b600060405180830381865afa158015613912573d6000803e3d6000fd5b505050506040513d6000823e601f3d908101601f1916820160405261393a9190810190616003565b909450925061394887611425565b91506139756040518060800160405280606081526020016060815260200160608152602001600081525090565b6101408201518152613986886128d7565b51606082015261012082015160ff166000908152600c6020526040902060010180546139b190615a20565b80601f01602080910402602001604051908101604052809291908181526020018280546139dd90615a20565b8015613a2a5780601f106139ff57610100808354040283529160200191613a2a565b820191906000526020600020905b815481529060010190602001808311613a0d57829003601f168201915b50505050508160200181905250613a53886000908152601760205260409020600b015460ff1690565b613a7757604051806040016040528060028152602001610c9160f21b815250613a93565b604051806040016040528060028152602001610cd160f21b8152505b60408083019190915260105490516307df90cf60e11b81526001600160a01b0390911690630fbf219e90613ad5908b908a908a908a908a908990600401615f8f565b600060405180830381865afa158015613af2573d6000803e3d6000fd5b505050506040513d6000823e601f3d908101601f19168201604052613b1a9190810190615a9f565b98975050505050505050565b638b78c6d819543314611c99576382b429006000526004601cfd5b60006001600160e01b0319821663780e9d6360e01b1480611125575061112582614549565b6000818152600260205260409020546001600160a01b0316611c3c5760405162461bcd60e51b8152602060048201526018602482015277115490cdcc8c4e881a5b9d985b1a59081d1bdad95b88125160421b604482015260640161169c565b6000918252601a6020908152604083208054600181018255908452922090910180546001600160a01b0319166001600160a01b03909216919091179055565b600081815260046020526040902080546001600160a01b0319166001600160a01b0384169081179091558190613c3982612271565b6001600160a01b03167f8c5be1e5ebec7d5bd14f71427d1e84f3dd0314c0f7b2291e5b200ac8c7c3b92560405160405180910390a45050565b600080613c7e83612271565b9050806001600160a01b0316846001600160a01b03161480613cc557506001600160a01b0380821660009081526005602090815260408083209388168352929052205460ff165b806126325750836001600160a01b0316613cde846111ec565b6001600160a01b031614949350505050565b826001600160a01b0316613d0382612271565b6001600160a01b031614613d675760405162461bcd60e51b815260206004820152602560248201527f4552433732313a207472616e736665722066726f6d20696e636f72726563742060448201526437bbb732b960d91b606482015260840161169c565b6001600160a01b038216613dc95760405162461bcd60e51b8152602060048201526024808201527f4552433732313a207472616e7366657220746f20746865207a65726f206164646044820152637265737360e01b606482015260840161169c565b613dd4838383614599565b613ddf600082613c04565b6001600160a01b0383166000908152600360205260408120805460019290613e0890849061605c565b90915550506001600160a01b0382166000908152600360205260408120805460019290613e36908490615cb7565b909155505060008181526002602052604080822080546001600160a01b0319166001600160a01b0386811691821790925591518493918716917fddf252ad1be2c89b69c2b068fc378daa952ba7f163c4a11628f55a4df523b3ef91a46116b08383836149aa565b600082815260186020526040812054613ebf906001600160a01b031683614258565b600d5460405163e8a1268d60e01b8152600481018490526001600160a01b039091169063e8a1268d90602401602060405180830381865afa158015613f08573d6000803e3d6000fd5b505050506040513d601f19601f82011682018060405250810190613f2c919061606f565b905061112582826142fa565b60005b82811015612193576000601360008154613f549061608c565b91829055509050613f6585826149b4565b604051638a54c52f60e01b81527355266d75d1a14e4572138116af39863ed6596e7f600482015260006024820181905262014a34604483015230606483015260848201839052906f6551c19487814612e58fe0681377575890638a54c52f9060a4016020604051808303816000875af1158015613fe6573d6000803e3d6000fd5b505050506040513d601f19601f8201168201806040525081019061400a9190615c84565b600083815260186020908152604080832080546001600160a01b0319166001600160a01b038616908117909155808452601990925291829020859055905163189acdbd60e31b81527341c8f39463a868d3a88af00cd0fe7102f30e44ec60048201529192509063c4d66de890602401600060405180830381600087803b15801561409357600080fd5b505af11580156140a7573d6000803e3d6000fd5b5050600f546040516358a2727360e01b81526001600160a01b03858116600483015260ff891660248301526000945090911691506358a27273906044016000604051808303816000875af1158015614103573d6000803e3d6000fd5b505050506040513d6000823e601f3d908101601f1916820160405261412b9190810190615d8d565b60008481526017602052604081206008810186905582519293509183919061415557614155615ad3565b602002602001015181600601819055508160018151811061417857614178615ad3565b602002602001015181600501819055508160028151811061419b5761419b615ad3565b60200260200101518160040181905550816003815181106141be576141be615ad3565b602002602001015181600101819055506005846040516020016141e391815260200190565b6040516020818303038152906040528051906020012060001c61420691906160a5565b60098201805460ff191660ff929092169190911790556040805180820190915260068152650c110d914e5160d21b6020820152600a8201906142489082615e71565b5050505050806001019050613f3b565b600d546040516331a9108f60e11b8152600481018390526000916001600160a01b031690636352211e90602401602060405180830381865afa1580156142a2573d6000803e3d6000fd5b505050506040513d601f19601f820116820180604052508101906142c69190615c84565b9050826001600160a01b0316816001600160a01b0316146116b05760405163e6ca793160e01b815260040160405180910390fd5b600d5460405163e8a1268d60e01b8152600481018490526000916001600160a01b03169063e8a1268d90602401602060405180830381865afa158015614344573d6000803e3d6000fd5b505050506040513d601f19601f82011682018060405250810190614368919061606f565b905081600781111561437c5761437c615bb8565b60405160200161438e91815260200190565b604051602081830303815290604052805190602001208160078111156143b6576143b6615bb8565b6040516020016143c891815260200190565b60405160208183030381529060405280519060200120146116b057604051633e54c6fb60e11b815260040160405180910390fd5b816001600160a01b0316836001600160a01b03160361445d5760405162461bcd60e51b815260206004820152601960248201527f4552433732313a20617070726f766520746f2063616c6c657200000000000000604482015260640161169c565b6001600160a01b03838116600081815260056020908152604080832094871680845294825291829020805460ff191686151590811790915591519182527f17307eab39ab6107e8899845ad3d59bd9653f200f220920489ca2b5937696c319101612e1c565b638b78c6d81980546001600160a01b039092169182907f8be0079c531659141344cd1fd0a4f28419497f9722a3daafe3b4186f6b6457e0600080a355565b61450b848484613cf0565b61451784848484614b0a565b6121935760405162461bcd60e51b815260040161169c906160c7565b6000826145408584614c0b565b14949350505050565b60006001600160e01b031982166380ac58cd60e01b148061457a57506001600160e01b03198216635b5e139f60e01b145b8061112557506301ffc9a760e01b6001600160e01b0319831614611125565b6001600160a01b0383166145b2576116b0838383614c46565b6016546145c29062015180615cb7565b4210156145e25760405163ae735dad60e01b815260040160405180910390fd5b6001600160a01b0382166000908152601960205260409020541561461957604051639a42da2960e01b815260040160405180910390fd5b6000818152601860205260408120546001600160a01b03169061463b84611c9b565b9050600081516001600160401b03811115614658576146586151a5565b604051908082528060200260200182016040528015614681578160200160208202803683370190505b50905060005b825181101561470257601860008483815181106146a6576146a6615ad3565b6020026020010151815260200190815260200160002060009054906101000a90046001600160a01b03168282815181106146e2576146e2615ad3565b6001600160a01b0390921660209283029190910190910152600101614687565b50600e5460405163644ec52760e01b8152600481018690526001600160a01b039091169063644ec52790602401600060405180830381600087803b15801561474957600080fd5b505af115801561475d573d6000803e3d6000fd5b5050600e54604051631e92beb560e31b8152600481018890526001600160a01b038981166024830152909116925063f495f5a89150604401600060405180830381600087803b1580156147af57600080fd5b505af11580156147c3573d6000803e3d6000fd5b5050600d5460405162438b6360e81b81526001600160a01b03878116600483015260009450909116915063438b630090602401600060405180830381865afa158015614813573d6000803e3d6000fd5b505050506040513d6000823e601f3d908101601f1916820160405261483b9190810190615d8d565b905060005b815181101561499557600082828151811061485d5761485d615ad3565b6020908102919091010151600e54604051632e1d274f60e01b8152600481018390529192506001600160a01b031690632e1d274f90602401600060405180830381600087803b1580156148af57600080fd5b505af11580156148c3573d6000803e3d6000fd5b5050600e54604051632333520b60e11b81526001600160a01b039091169250634666a41691506148f99084908890600401616119565b600060405180830381600087803b15801561491357600080fd5b505af1158015614927573d6000803e3d6000fd5b5050600d5460405163487b1c2160e11b8152600481018590526001600160a01b0390911692506390f638429150602401600060405180830381600087803b15801561497157600080fd5b505af1158015614985573d6000803e3d6000fd5b5050505050806001019050614840565b506149a1878787614c46565b50505050505050565b6116b08184614cfe565b6001600160a01b038216614a0a5760405162461bcd60e51b815260206004820181905260248201527f4552433732313a206d696e7420746f20746865207a65726f2061646472657373604482015260640161169c565b6000818152600260205260409020546001600160a01b031615614a6f5760405162461bcd60e51b815260206004820152601c60248201527f4552433732313a20746f6b656e20616c7265616479206d696e74656400000000604482015260640161169c565b614a7b60008383614599565b6001600160a01b0382166000908152600360205260408120805460019290614aa4908490615cb7565b909155505060008181526002602052604080822080546001600160a01b0319166001600160a01b03861690811790915590518392907fddf252ad1be2c89b69c2b068fc378daa952ba7f163c4a11628f55a4df523b3ef908290a4611260600083836149aa565b60006001600160a01b0384163b15614c0057604051630a85bd0160e11b81526001600160a01b0385169063150b7a0290614b4e903390899088908890600401616132565b6020604051808303816000875af1925050508015614b89575060408051601f3d908101601f19168201909252614b8691810190616165565b60015b614be6573d808015614bb7576040519150601f19603f3d011682016040523d82523d6000602084013e614bbc565b606091505b508051600003614bde5760405162461bcd60e51b815260040161169c906160c7565b805181602001fd5b6001600160e01b031916630a85bd0160e11b149050612632565b506001949350505050565b600081815b8451811015611d2a57614c3c82868381518110614c2f57614c2f615ad3565b6020026020010151614de7565b9150600101614c10565b6001600160a01b038316614ca157614c9c81600880546000838152600960205260408120829055600182018355919091527ff3f7a9fe364faab93b216da50a3214154f22a0a2b415b23a84c8169e8b636ee30155565b614cc4565b816001600160a01b0316836001600160a01b031614614cc457614cc48382614e13565b6001600160a01b038216614cdb576116b081614eb0565b826001600160a01b0316826001600160a01b0316146116b0576116b08282614f5f565b6000828152601a6020908152604080832080548251818502810185019093528083529192909190830182828015614d5e57602002820191906000526020600020905b81546001600160a01b03168152600190910190602001808311614d40575b5050506000868152601860205260408120549394506001600160a01b03909316929150505b8251811015614dcf57614db184848381518110614da257614da2615ad3565b602002602001015160006143fc565b614dc782848381518110614da257614da2615ad3565b600101614d83565b506000848152601a6020526040812061219391614fa3565b6000818310614e03576000828152602084905260409020612736565b5060009182526020526040902090565b60006001614e2084612493565b614e2a919061605c565b600083815260076020526040902054909150808214614e7d576001600160a01b03841660009081526006602090815260408083208584528252808320548484528184208190558352600790915290208190555b5060009182526007602090815260408084208490556001600160a01b039094168352600681528383209183525290812055565b600854600090614ec29060019061605c565b60008381526009602052604081205460088054939450909284908110614eea57614eea615ad3565b906000526020600020015490508060088381548110614f0b57614f0b615ad3565b6000918252602080832090910192909255828152600990915260408082208490558582528120556008805480614f4357614f43616182565b6001900381819060005260206000200160009055905550505050565b6000614f6a83612493565b6001600160a01b039093166000908152600660209081526040808320868452825280832085905593825260079052919091209190915550565b5080546000825590600052602060002090810190611c3c91905b80821115614fd15760008155600101614fbd565b5090565b6001600160a01b0381168114611c3c57600080fd5b600060208284031215614ffc57600080fd5b813561273681614fd5565b6001600160e01b031981168114611c3c57600080fd5b60006020828403121561502f57600080fd5b813561273681615007565b60006020828403121561504c57600080fd5b5035919050565b60005b8381101561506e578181015183820152602001615056565b50506000910152565b6000815180845261508f816020860160208601615053565b601f01601f19169290920160200192915050565b6020815260006127366020830184615077565b600080604083850312156150c957600080fd5b82356150d481614fd5565b946020939093013593505050565b8481526080602082015260006150fb6080830186615077565b828103604084015261510d8186615077565b905082810360608401526151218185615077565b979650505050505050565b60008060006060848603121561514157600080fd5b833561514c81614fd5565b9250602084013561515c81614fd5565b929592945050506040919091013590565b6000806040838503121561518057600080fd5b50508035926020909101359150565b803560ff811681146151a057600080fd5b919050565b634e487b7160e01b600052604160045260246000fd5b60405161018081016001600160401b03811182821017156151de576151de6151a5565b60405290565b604051601f8201601f191681016001600160401b038111828210171561520c5761520c6151a5565b604052919050565b60006001600160401b0382111561522d5761522d6151a5565b50601f01601f191660200190565b600082601f83011261524c57600080fd5b813561525f61525a82615214565b6151e4565b81815284602083860101111561527457600080fd5b816020850160208301376000918101602001919091529392505050565b6000806000806000806000806000806101408b8d0312156152b157600080fd5b8a35995060208b0135985060408b0135975060608b0135965060808b0135955060a08b0135945060c08b0135935060e08b013592506152f36101008c0161518f565b91506101208b01356001600160401b0381111561530f57600080fd5b61531b8d828e0161523b565b9150509295989b9194979a5092959850565b6020808252825182820181905260009190848201906040850190845b8181101561536557835183529284019291840191600101615349565b50909695505050505050565b600080600080600080600080610100898b03121561538e57600080fd5b505086359860208801359850604088013597606081013597506080810135965060a0810135955060c0810135945060e0013592509050565b803580151581146151a057600080fd5b6000806000606084860312156153eb57600080fd5b8335925060208401356153fd81614fd5565b915061540b604085016153c6565b90509250925092565b60008151808452602080850194506020840160005b8381101561544e5781516001600160a01b031687529582019590820190600101615429565b509495945050505050565b6020815260006127366020830184615414565b60008060006060848603121561548157600080fd5b833561548c81614fd5565b92506020840135915061540b6040850161518f565b803563ffffffff811681146151a057600080fd5b6000602082840312156154c757600080fd5b81356001600160401b03808211156154de57600080fd5b9083019061018082860312156154f357600080fd5b6154fb6151bb565b823581526020830135602082015260408301356040820152606083013560608201526080830135608082015260a083013560a082015260c083013560c082015261554760e084016154a1565b60e0820152610100838101359082015261012061556581850161518f565b90820152610140838101358381111561557d57600080fd5b6155898882870161523b565b828401525050610160915061559f8284016153c6565b91810191909152949350505050565b6060815260006155c16060830186615077565b82810360208401526155d38186615077565b9050828103604084015261165f8185615077565b600080604083850312156155fa57600080fd5b823561560581614fd5565b9150615613602084016153c6565b90509250929050565b60408152600061562f6040830185615077565b82810360208401526156418185615077565b95945050505050565b60006101808e83528d60208401528c60408401528b60608401528a60808401528960a08401528860c084015263ffffffff881660e08401528661010084015260ff8616610120840152806101408401526156a681840186615077565b9150508215156101608301529d9c50505050505050505050505050565b600080600080608085870312156156d957600080fd5b84356156e481614fd5565b935060208501356156f481614fd5565b92506040850135915060608501356001600160401b0381111561571657600080fd5b6157228782880161523b565b91505092959194509250565b60006001600160401b03821115615747576157476151a5565b5060051b60200190565b6000806040838503121561576457600080fd5b823591506020808401356001600160401b0381111561578257600080fd5b8401601f8101861361579357600080fd5b80356157a161525a8261572e565b81815260059190911b820183019083810190888311156157c057600080fd5b928401925b828410156157de578335825292840192908401906157c5565b80955050505050509250929050565b6000806040838503121561580057600080fd5b82359150615613602084016153c6565b60088110611c3c57600080fd5b6000806040838503121561583057600080fd5b82359150602083013561584281615810565b809150509250929050565b6020815281516020820152602082015160408201526040820151606082015260608201516080820152608082015160a082015260a082015160c082015260c082015160e0820152600060e08301516101006158af8185018363ffffffff169052565b8401516101208481019190915284015190506101406158d28185018360ff169052565b8085015191505061018061016081818601526158f26101a0860184615077565b95015115159301929092525090919050565b6000806040838503121561591757600080fd5b8235915060208301356001600160401b0381111561593457600080fd5b6159408582860161523b565b9150509250929050565b6000806040838503121561595d57600080fd5b823591506156136020840161518f565b6000806040838503121561598057600080fd5b823561598b81614fd5565b9150602083013561584281614fd5565b600080600080608085870312156159b157600080fd5b8435935060208501356001600160401b03808211156159cf57600080fd5b6159db8883890161523b565b945060408701359150808211156159f157600080fd5b6159fd8883890161523b565b93506060870135915080821115615a1357600080fd5b506157228782880161523b565b600181811c90821680615a3457607f821691505b602082108103615a5457634e487b7160e01b600052602260045260246000fd5b50919050565b600082601f830112615a6b57600080fd5b8151615a7961525a82615214565b818152846020838601011115615a8e57600080fd5b612632826020830160208701615053565b600060208284031215615ab157600080fd5b81516001600160401b03811115615ac757600080fd5b61263284828501615a5a565b634e487b7160e01b600052603260045260246000fd5b608081526000615afc6080830187615077565b6020838203818501528187518084528284019150828160051b850101838a0160005b83811015615b4c57601f19878403018552615b3a838351615077565b94860194925090850190600101615b1e565b50506040870198909852505050506060909101919091525092915050565b6020808252602e908201527f4552433732313a2063616c6c6572206973206e6f7420746f6b656e206f776e6560408201526d1c881b9bdc88185c1c1c9bdd995960921b606082015260800190565b634e487b7160e01b600052602160045260246000fd5b600080600060608486031215615be357600080fd5b83516001600160401b0380821115615bfa57600080fd5b615c0687838801615a5a565b94506020860151915080821115615c1c57600080fd5b615c2887838801615a5a565b93506040860151915080821115615c3e57600080fd5b50615c4b86828701615a5a565b9150509250925092565b60008351615c67818460208801615053565b835190830190615c7b818360208801615053565b01949350505050565b600060208284031215615c9657600080fd5b815161273681614fd5565b634e487b7160e01b600052601160045260246000fd5b8082018082111561112557611125615ca1565b60008154615cd781615a20565b808552602060018381168015615cf45760018114615d0e57615d3c565b60ff1985168884015283151560051b880183019550615d3c565b866000528260002060005b85811015615d345781548a8201860152908301908401615d19565b890184019650505b505050505092915050565b6020815260006127366020830184615cca565b604081526009604082015268426f6479205479706560b81b60608201526080602082015260006127366080830184615cca565b60006020808385031215615da057600080fd5b82516001600160401b03811115615db657600080fd5b8301601f81018513615dc757600080fd5b8051615dd561525a8261572e565b81815260059190911b82018301908381019087831115615df457600080fd5b928401925b8284101561512157835182529284019290840190615df9565b808202811582820484141761112557611125615ca1565b601f8211156116b0576000816000526020600020601f850160051c81016020861015615e525750805b601f850160051c820191505b8181101561387657828155600101615e5e565b81516001600160401b03811115615e8a57615e8a6151a5565b615e9e81615e988454615a20565b84615e29565b602080601f831160018114615ed35760008415615ebb5750858301515b600019600386901b1c1916600185901b178555613876565b600085815260208120601f198616915b82811015615f0257888601518255948401946001909101908401615ee3565b5085821015615f205787850151600019600388901b60f8161c191681555b5050505050600190811b01905550565b6000815160808452615f456080850182615077565b905060208301518482036020860152615f5e8282615077565b91505060408301518482036040860152615f788282615077565b915050606083015160608501528091505092915050565b86815260c060208201526000615fa860c0830188615077565b8281036040840152615fba8188615077565b90508281036060840152615fce8187615077565b90508281036080840152615fe28186615077565b905082810360a0840152615ff68185615f30565b9998505050505050505050565b6000806040838503121561601657600080fd5b82516001600160401b038082111561602d57600080fd5b61603986838701615a5a565b9350602085015191508082111561604f57600080fd5b5061594085828601615a5a565b8181038181111561112557611125615ca1565b60006020828403121561608157600080fd5b815161273681615810565b60006001820161609e5761609e615ca1565b5060010190565b6000826160c257634e487b7160e01b600052601260045260246000fd5b500690565b60208082526032908201527f4552433732313a207472616e7366657220746f206e6f6e20455243373231526560408201527131b2b4bb32b91034b6b83632b6b2b73a32b960711b606082015260800190565b8281526040602082015260006126326040830184615414565b6001600160a01b038581168252841660208201526040810183905260806060820181905260009061165f90830184615077565b60006020828403121561617757600080fd5b815161273681615007565b634e487b7160e01b600052603160045260246000fdfec94c1c47471ed97c1d309bab965192a3e4be3807f42d015b699bfbdcf24dd9f6a264697066735822122059545a63ee4ecfc423d393cfea0e82fb2de4aeee9a0fbe5970658a77f8b75cb464736f6c63430008160033","linkReferences":{}},"methodIdentifiers":{"_debugPostConstructorMint()":"9c7be2f1","_nextTokenId()":"4a60f620","addNewBody(uint256,string,bytes,bytes)":"f2361e23","approve(address,uint256)":"095ea7b3","balanceOf(address)":"70a08231","bodyIndexToMetadata(uint256)":"0c83f9d7","cancelOwnershipHandover()":"54d1f13d","checkIfTraitIsEquipped(uint256,uint256)":"8aa1e4c8","chonkIdToApprovedOperators(uint256,uint256)":"55737f35","chonkMakeover(uint256,uint256,uint256,uint256,uint256,uint256,uint256,uint256,uint8,string)":"30f6c521","chonkTokens(uint256)":"b45d0316","chonksCreatorListMerkleRoot()":"7684ef0d","completeOwnershipHandover(address)":"f04e283e","deploymentTime()":"ecda10f5","equip(uint256,uint256)":"28257532","equipAll(uint256,uint256,uint256,uint256,uint256,uint256,uint256,uint256)":"4a4333a3","firstSeasonRenderMinter()":"13ea0ae3","friendsListMerkleRoot()":"8f224757","getApproved(uint256)":"081812fc","getBackpackSVGs(uint256)":"14fe8ff4","getBodyImageSvg(uint256)":"916c546b","getBodySVGZmapsAndMetadata((uint256,uint256,uint256,uint256,uint256,uint256,uint256,uint32,uint256,uint8,string,bool))":"92012f08","getBodySvgAndMetadata((uint256,uint256,uint256,uint256,uint256,uint256,uint256,uint32,uint256,uint8,string,bool))":"a23830ae","getBodyZMap(uint256)":"306c7334","getChonk(uint256)":"d3d6873e","getChonkIdForTBAAddress(address)":"8472cbca","getChonkIdToApprovedOperators(uint256)":"67d2afe2","getChonkZMap(uint256)":"32875aa0","getFullPictureForTrait(uint256)":"66704349","getOwnerAndTBAAddressForChonkId(uint256)":"04003bd0","getTBAAddressForChonkId(uint256)":"f6a0c932","getTokenRenderZ(uint256)":"8200ea51","getTraitsForChonkId(uint256)":"9f6e4637","isApprovedForAll(address,address)":"e985e9c5","isTimelocked()":"50b03146","mainRenderer2D()":"f4bec0b6","mainRenderer3D()":"b66ef6e3","marketplace()":"abc8c7af","maxTraitsToOutput()":"e3d21555","mint(uint256,bytes32[])":"ba41b0c6","mintStartTime()":"931e2e49","name()":"06fdde03","oneYearFromDeployment()":"d59752eb","owner()":"8da5cb5b","ownerOf(uint256)":"6352211e","ownershipHandoverExpiresAt(address)":"fee81cf4","price()":"a035b1fe","renderAsDataUri(uint256)":"a1d62680","renderAsDataUri2D(uint256)":"f3f8efb9","renderAsDataUri3D(uint256)":"dceef0ec","renounceOwnership()":"715018a6","requestOwnershipHandover()":"25692962","safeTransferFrom(address,address,uint256)":"42842e0e","safeTransferFrom(address,address,uint256,bytes)":"b88d4fde","setApprovalForAll(address,bool)":"a22cb465","setApprovalForAllChonksMarketplace(uint256,address,bool)":"550ab247","setBackgroundColor(uint256,string)":"d68c4f32","setBodyIndex(uint256,uint8)":"e1405540","setChonksCreatorListMerkleRoot(bytes32)":"b99ce71f","setFirstSeasonRenderMinter(address)":"58a97640","setFriendsListMerkleRoot(bytes32)":"1ab37512","setMainRenderer2D(address)":"7e2e6c47","setMainRenderer3D(address)":"00179206","setMarketplace(address)":"73ad6c2d","setMaxTraitsToOutput(uint256)":"33d3d9bf","setMintStartTime(uint256)":"d5b3621b","setPrice(uint256)":"91b7f5ed","setSpecialCollectionMerkleRoot(bytes32)":"e29babbb","setTokenRender3D(uint256,bool)":"bef1dfb7","setTraitsContract(address)":"5eabd84a","setWithdrawAddress(address)":"3ab1a494","specialCollectionMerkleRoot()":"deab1d36","supportsInterface(bytes4)":"01ffc9a7","symbol()":"95d89b41","tbaAddressToTokenId(address)":"a4bf9a00","teamMint(address,uint256,uint8)":"6e51665f","teamReserve()":"4287f14a","tokenByIndex(uint256)":"4f6ccce7","tokenIdToTBAAccountAddress(uint256)":"9c05d68d","tokenOfOwnerByIndex(address,uint256)":"2f745c59","tokenURI(uint256)":"c87b56dd","totalSupply()":"18160ddd","traitsContract()":"c093afdb","transferFrom(address,address,uint256)":"23b872dd","transferOwnership(address)":"f2fde38b","unequip(uint256,uint8)":"cdb6dd5c","unequipAll(uint256)":"3044825b","walletOfOwner(address)":"438b6300","withdraw()":"3ccfd60b","withdrawAddress()":"1581b600"},"id":40}