{"abi":[{"type":"constructor","inputs":[],"stateMutability":"nonpayable"},{"type":"function","name":"_debugPostConstructorMint","inputs":[],"outputs":[],"stateMutability":"nonpayable"},{"type":"function","name":"addNewBody","inputs":[{"name":"_bodyIndex","type":"uint256","internalType":"uint256"},{"name":"_bodyName","type":"string","internalType":"string"},{"name":"_colorMap","type":"bytes","internalType":"bytes"},{"name":"_zMap","type":"bytes","internalType":"bytes"}],"outputs":[],"stateMutability":"nonpayable"},{"type":"function","name":"approve","inputs":[{"name":"_operator","type":"address","internalType":"address"},{"name":"_chonkId","type":"uint256","internalType":"uint256"}],"outputs":[],"stateMutability":"nonpayable"},{"type":"function","name":"balanceOf","inputs":[{"name":"owner","type":"address","internalType":"address"}],"outputs":[{"name":"","type":"uint256","internalType":"uint256"}],"stateMutability":"view"},{"type":"function","name":"bodyIndexToMetadata","inputs":[{"name":"","type":"uint256","internalType":"uint256"}],"outputs":[{"name":"bodyIndex","type":"uint256","internalType":"uint256"},{"name":"bodyName","type":"string","internalType":"string"},{"name":"colorMap","type":"bytes","internalType":"bytes"},{"name":"zMap","type":"bytes","internalType":"bytes"}],"stateMutability":"view"},{"type":"function","name":"cancelOwnershipHandover","inputs":[],"outputs":[],"stateMutability":"payable"},{"type":"function","name":"checkIfTraitIsEquipped","inputs":[{"name":"_chonkId","type":"uint256","internalType":"uint256"},{"name":"_traitId","type":"uint256","internalType":"uint256"}],"outputs":[{"name":"","type":"bool","internalType":"bool"}],"stateMutability":"view"},{"type":"function","name":"chonkEquipHelper","inputs":[],"outputs":[{"name":"","type":"address","internalType":"contract ChonkEquipHelper"}],"stateMutability":"view"},{"type":"function","name":"chonkIdToApprovedOperators","inputs":[{"name":"chonkId","type":"uint256","internalType":"uint256"},{"name":"","type":"uint256","internalType":"uint256"}],"outputs":[{"name":"operators","type":"address","internalType":"address"}],"stateMutability":"view"},{"type":"function","name":"chonkTokens","inputs":[{"name":"tokenID","type":"uint256","internalType":"uint256"}],"outputs":[{"name":"headId","type":"uint256","internalType":"uint256"},{"name":"hairId","type":"uint256","internalType":"uint256"},{"name":"faceId","type":"uint256","internalType":"uint256"},{"name":"accessoryId","type":"uint256","internalType":"uint256"},{"name":"topId","type":"uint256","internalType":"uint256"},{"name":"bottomId","type":"uint256","internalType":"uint256"},{"name":"shoesId","type":"uint256","internalType":"uint256"},{"name":"epoch","type":"uint32","internalType":"uint32"},{"name":"tokenId","type":"uint256","internalType":"uint256"},{"name":"bodyIndex","type":"uint8","internalType":"uint8"},{"name":"backgroundColor","type":"string","internalType":"string"},{"name":"render3D","type":"bool","internalType":"bool"}],"stateMutability":"view"},{"type":"function","name":"collectionsAddressDidUse","inputs":[{"name":"","type":"address","internalType":"address"}],"outputs":[{"name":"","type":"bool","internalType":"bool"}],"stateMutability":"view"},{"type":"function","name":"collectionsMerkle","inputs":[],"outputs":[{"name":"","type":"bytes32","internalType":"bytes32"}],"stateMutability":"view"},{"type":"function","name":"completeOwnershipHandover","inputs":[{"name":"pendingOwner","type":"address","internalType":"address"}],"outputs":[],"stateMutability":"payable"},{"type":"function","name":"creatorsAddressDidUse","inputs":[{"name":"","type":"address","internalType":"address"}],"outputs":[{"name":"","type":"bool","internalType":"bool"}],"stateMutability":"view"},{"type":"function","name":"creatorsMerkle","inputs":[],"outputs":[{"name":"","type":"bytes32","internalType":"bytes32"}],"stateMutability":"view"},{"type":"function","name":"deploymentTime","inputs":[],"outputs":[{"name":"","type":"uint256","internalType":"uint256"}],"stateMutability":"view"},{"type":"function","name":"equip","inputs":[{"name":"_chonkTokenId","type":"uint256","internalType":"uint256"},{"name":"_traitTokenId","type":"uint256","internalType":"uint256"}],"outputs":[],"stateMutability":"nonpayable"},{"type":"function","name":"equipAll","inputs":[{"name":"_chonkTokenId","type":"uint256","internalType":"uint256"},{"name":"_headTokenId","type":"uint256","internalType":"uint256"},{"name":"_hairTokenId","type":"uint256","internalType":"uint256"},{"name":"_faceTokenId","type":"uint256","internalType":"uint256"},{"name":"_accessoryTokenId","type":"uint256","internalType":"uint256"},{"name":"_topTokenId","type":"uint256","internalType":"uint256"},{"name":"_bottomTokenId","type":"uint256","internalType":"uint256"},{"name":"_shoesTokenId","type":"uint256","internalType":"uint256"}],"outputs":[],"stateMutability":"nonpayable"},{"type":"function","name":"firstReleaseDataMinter","inputs":[],"outputs":[{"name":"","type":"address","internalType":"contract FirstReleaseDataMinter"}],"stateMutability":"view"},{"type":"function","name":"friendsAddressDidUse","inputs":[{"name":"","type":"address","internalType":"address"}],"outputs":[{"name":"","type":"bool","internalType":"bool"}],"stateMutability":"view"},{"type":"function","name":"friendsMerkle","inputs":[],"outputs":[{"name":"","type":"bytes32","internalType":"bytes32"}],"stateMutability":"view"},{"type":"function","name":"getApproved","inputs":[{"name":"tokenId","type":"uint256","internalType":"uint256"}],"outputs":[{"name":"","type":"address","internalType":"address"}],"stateMutability":"view"},{"type":"function","name":"getBackpackSVGs","inputs":[{"name":"_tokenId","type":"uint256","internalType":"uint256"}],"outputs":[{"name":"","type":"string","internalType":"string"}],"stateMutability":"view"},{"type":"function","name":"getBodyImageSvg","inputs":[{"name":"_index","type":"uint256","internalType":"uint256"}],"outputs":[{"name":"svg","type":"string","internalType":"string"}],"stateMutability":"view"},{"type":"function","name":"getBodySVGZmapsAndMetadata","inputs":[{"name":"storedChonk","type":"tuple","internalType":"struct IChonkStorage.StoredChonk","components":[{"name":"headId","type":"uint256","internalType":"uint256"},{"name":"hairId","type":"uint256","internalType":"uint256"},{"name":"faceId","type":"uint256","internalType":"uint256"},{"name":"accessoryId","type":"uint256","internalType":"uint256"},{"name":"topId","type":"uint256","internalType":"uint256"},{"name":"bottomId","type":"uint256","internalType":"uint256"},{"name":"shoesId","type":"uint256","internalType":"uint256"},{"name":"epoch","type":"uint32","internalType":"uint32"},{"name":"tokenId","type":"uint256","internalType":"uint256"},{"name":"bodyIndex","type":"uint8","internalType":"uint8"},{"name":"backgroundColor","type":"string","internalType":"string"},{"name":"render3D","type":"bool","internalType":"bool"}]}],"outputs":[{"name":"","type":"string","internalType":"string"},{"name":"","type":"bytes","internalType":"bytes"},{"name":"","type":"string","internalType":"string"}],"stateMutability":"view"},{"type":"function","name":"getBodySvgAndMetadata","inputs":[{"name":"storedChonk","type":"tuple","internalType":"struct IChonkStorage.StoredChonk","components":[{"name":"headId","type":"uint256","internalType":"uint256"},{"name":"hairId","type":"uint256","internalType":"uint256"},{"name":"faceId","type":"uint256","internalType":"uint256"},{"name":"accessoryId","type":"uint256","internalType":"uint256"},{"name":"topId","type":"uint256","internalType":"uint256"},{"name":"bottomId","type":"uint256","internalType":"uint256"},{"name":"shoesId","type":"uint256","internalType":"uint256"},{"name":"epoch","type":"uint32","internalType":"uint32"},{"name":"tokenId","type":"uint256","internalType":"uint256"},{"name":"bodyIndex","type":"uint8","internalType":"uint8"},{"name":"backgroundColor","type":"string","internalType":"string"},{"name":"render3D","type":"bool","internalType":"bool"}]}],"outputs":[{"name":"","type":"string","internalType":"string"},{"name":"","type":"string","internalType":"string"}],"stateMutability":"view"},{"type":"function","name":"getBodyZMap","inputs":[{"name":"_tokenId","type":"uint256","internalType":"uint256"}],"outputs":[{"name":"","type":"string","internalType":"string"}],"stateMutability":"view"},{"type":"function","name":"getChonk","inputs":[{"name":"_tokenId","type":"uint256","internalType":"uint256"}],"outputs":[{"name":"","type":"tuple","internalType":"struct IChonkStorage.StoredChonk","components":[{"name":"headId","type":"uint256","internalType":"uint256"},{"name":"hairId","type":"uint256","internalType":"uint256"},{"name":"faceId","type":"uint256","internalType":"uint256"},{"name":"accessoryId","type":"uint256","internalType":"uint256"},{"name":"topId","type":"uint256","internalType":"uint256"},{"name":"bottomId","type":"uint256","internalType":"uint256"},{"name":"shoesId","type":"uint256","internalType":"uint256"},{"name":"epoch","type":"uint32","internalType":"uint32"},{"name":"tokenId","type":"uint256","internalType":"uint256"},{"name":"bodyIndex","type":"uint8","internalType":"uint8"},{"name":"backgroundColor","type":"string","internalType":"string"},{"name":"render3D","type":"bool","internalType":"bool"}]}],"stateMutability":"view"},{"type":"function","name":"getChonkIdForTBAAddress","inputs":[{"name":"_tbaAddress","type":"address","internalType":"address"}],"outputs":[{"name":"","type":"uint256","internalType":"uint256"}],"stateMutability":"view"},{"type":"function","name":"getChonkIdToApprovedOperators","inputs":[{"name":"_chonkId","type":"uint256","internalType":"uint256"}],"outputs":[{"name":"","type":"address[]","internalType":"address[]"}],"stateMutability":"view"},{"type":"function","name":"getChonkZMap","inputs":[{"name":"_tokenId","type":"uint256","internalType":"uint256"}],"outputs":[{"name":"","type":"string","internalType":"string"}],"stateMutability":"view"},{"type":"function","name":"getFullPictureForTrait","inputs":[{"name":"_chonkTraitTokenId","type":"uint256","internalType":"uint256"}],"outputs":[{"name":"traitOwnerTBA","type":"address","internalType":"address"},{"name":"chonkTokenId","type":"uint256","internalType":"uint256"},{"name":"chonkOwner","type":"address","internalType":"address"},{"name":"isEquipped","type":"bool","internalType":"bool"}],"stateMutability":"view"},{"type":"function","name":"getOwnerAndTBAAddressForChonkId","inputs":[{"name":"_chonkId","type":"uint256","internalType":"uint256"}],"outputs":[{"name":"owner","type":"address","internalType":"address"},{"name":"tbaAddress","type":"address","internalType":"address"}],"stateMutability":"view"},{"type":"function","name":"getTBAAddressForChonkId","inputs":[{"name":"_chonkId","type":"uint256","internalType":"uint256"}],"outputs":[{"name":"","type":"address","internalType":"address"}],"stateMutability":"view"},{"type":"function","name":"getTraitsForChonkId","inputs":[{"name":"_chonkId","type":"uint256","internalType":"uint256"}],"outputs":[{"name":"traitTokens","type":"uint256[]","internalType":"uint256[]"}],"stateMutability":"view"},{"type":"function","name":"initialMintStartTime","inputs":[],"outputs":[{"name":"","type":"uint256","internalType":"uint256"}],"stateMutability":"view"},{"type":"function","name":"isApprovedForAll","inputs":[{"name":"owner","type":"address","internalType":"address"},{"name":"operator","type":"address","internalType":"address"}],"outputs":[{"name":"","type":"bool","internalType":"bool"}],"stateMutability":"view"},{"type":"function","name":"isTimelocked","inputs":[],"outputs":[{"name":"","type":"bool","internalType":"bool"}],"stateMutability":"view"},{"type":"function","name":"mainRenderer2D","inputs":[],"outputs":[{"name":"","type":"address","internalType":"contract MainRenderer2D"}],"stateMutability":"view"},{"type":"function","name":"mainRenderer3D","inputs":[],"outputs":[{"name":"","type":"address","internalType":"contract MainRenderer3D"}],"stateMutability":"view"},{"type":"function","name":"marketplace","inputs":[],"outputs":[{"name":"","type":"address","internalType":"contract ChonksMarket"}],"stateMutability":"view"},{"type":"function","name":"maxTraitsToOutput","inputs":[],"outputs":[{"name":"","type":"uint256","internalType":"uint256"}],"stateMutability":"view"},{"type":"function","name":"mint","inputs":[{"name":"_amount","type":"uint256","internalType":"uint256"},{"name":"_merkleProof","type":"bytes32[]","internalType":"bytes32[]"}],"outputs":[],"stateMutability":"payable"},{"type":"function","name":"name","inputs":[],"outputs":[{"name":"","type":"string","internalType":"string"}],"stateMutability":"view"},{"type":"function","name":"nextTokenId","inputs":[],"outputs":[{"name":"","type":"uint256","internalType":"uint256"}],"stateMutability":"view"},{"type":"function","name":"oneYearFromDeployment","inputs":[],"outputs":[{"name":"","type":"uint256","internalType":"uint256"}],"stateMutability":"view"},{"type":"function","name":"owner","inputs":[],"outputs":[{"name":"result","type":"address","internalType":"address"}],"stateMutability":"view"},{"type":"function","name":"ownerOf","inputs":[{"name":"tokenId","type":"uint256","internalType":"uint256"}],"outputs":[{"name":"","type":"address","internalType":"address"}],"stateMutability":"view"},{"type":"function","name":"ownershipHandoverExpiresAt","inputs":[{"name":"pendingOwner","type":"address","internalType":"address"}],"outputs":[{"name":"result","type":"uint256","internalType":"uint256"}],"stateMutability":"view"},{"type":"function","name":"price","inputs":[],"outputs":[{"name":"","type":"uint256","internalType":"uint256"}],"stateMutability":"view"},{"type":"function","name":"renderAsDataUri","inputs":[{"name":"_tokenId","type":"uint256","internalType":"uint256"}],"outputs":[{"name":"","type":"string","internalType":"string"}],"stateMutability":"view"},{"type":"function","name":"renderAsDataUri2D","inputs":[{"name":"_tokenId","type":"uint256","internalType":"uint256"}],"outputs":[{"name":"","type":"string","internalType":"string"}],"stateMutability":"view"},{"type":"function","name":"renderAsDataUri3D","inputs":[{"name":"_tokenId","type":"uint256","internalType":"uint256"}],"outputs":[{"name":"","type":"string","internalType":"string"}],"stateMutability":"view"},{"type":"function","name":"renounceOwnership","inputs":[],"outputs":[],"stateMutability":"payable"},{"type":"function","name":"requestOwnershipHandover","inputs":[],"outputs":[],"stateMutability":"payable"},{"type":"function","name":"safeTransferFrom","inputs":[{"name":"from","type":"address","internalType":"address"},{"name":"to","type":"address","internalType":"address"},{"name":"tokenId","type":"uint256","internalType":"uint256"}],"outputs":[],"stateMutability":"nonpayable"},{"type":"function","name":"safeTransferFrom","inputs":[{"name":"from","type":"address","internalType":"address"},{"name":"to","type":"address","internalType":"address"},{"name":"tokenId","type":"uint256","internalType":"uint256"},{"name":"data","type":"bytes","internalType":"bytes"}],"outputs":[],"stateMutability":"nonpayable"},{"type":"function","name":"setApprovalForAll","inputs":[{"name":"_operator","type":"address","internalType":"address"},{"name":"_approved","type":"bool","internalType":"bool"}],"outputs":[],"stateMutability":"nonpayable"},{"type":"function","name":"setApprovalForAllChonksMarketplace","inputs":[{"name":"_chonkId","type":"uint256","internalType":"uint256"},{"name":"_operator","type":"address","internalType":"address"},{"name":"_approved","type":"bool","internalType":"bool"}],"outputs":[],"stateMutability":"nonpayable"},{"type":"function","name":"setChonkAttributes","inputs":[{"name":"_tokenId","type":"uint256","internalType":"uint256"},{"name":"_color","type":"string","internalType":"string"},{"name":"_bodyIndex","type":"uint8","internalType":"uint8"},{"name":"_render3D","type":"bool","internalType":"bool"}],"outputs":[],"stateMutability":"nonpayable"},{"type":"function","name":"setChonkEquipHelper","inputs":[{"name":"_chonkEquipHelper","type":"address","internalType":"address"}],"outputs":[],"stateMutability":"nonpayable"},{"type":"function","name":"setCollectionsMerkle","inputs":[{"name":"_merkleRoot","type":"bytes32","internalType":"bytes32"}],"outputs":[],"stateMutability":"nonpayable"},{"type":"function","name":"setCreatorsMerkle","inputs":[{"name":"_merkleRoot","type":"bytes32","internalType":"bytes32"}],"outputs":[],"stateMutability":"nonpayable"},{"type":"function","name":"setDescriptionParts","inputs":[{"name":"_descriptionParts","type":"string[2]","internalType":"string[2]"}],"outputs":[],"stateMutability":"nonpayable"},{"type":"function","name":"setFirstReleaseDataMinter","inputs":[{"name":"_dataContract","type":"address","internalType":"address"}],"outputs":[],"stateMutability":"nonpayable"},{"type":"function","name":"setFriendsMerkleRoot","inputs":[{"name":"_merkleRoot","type":"bytes32","internalType":"bytes32"}],"outputs":[],"stateMutability":"nonpayable"},{"type":"function","name":"setMainRenderer2D","inputs":[{"name":"_mainRenderer2D","type":"address","internalType":"address"}],"outputs":[],"stateMutability":"nonpayable"},{"type":"function","name":"setMainRenderer3D","inputs":[{"name":"_mainRenderer3D","type":"address","internalType":"address"}],"outputs":[],"stateMutability":"nonpayable"},{"type":"function","name":"setMarketplace","inputs":[{"name":"_marketplace","type":"address","internalType":"address"}],"outputs":[],"stateMutability":"nonpayable"},{"type":"function","name":"setMaxTraitsToOutput","inputs":[{"name":"_maxTraitsToOutput","type":"uint256","internalType":"uint256"}],"outputs":[],"stateMutability":"nonpayable"},{"type":"function","name":"setMintStartTime","inputs":[{"name":"_initialMintStartTime","type":"uint256","internalType":"uint256"}],"outputs":[],"stateMutability":"nonpayable"},{"type":"function","name":"setPrice","inputs":[{"name":"_priceInWei","type":"uint256","internalType":"uint256"}],"outputs":[],"stateMutability":"nonpayable"},{"type":"function","name":"setTraitsContract","inputs":[{"name":"_address","type":"address","internalType":"contract ChonkTraits"}],"outputs":[],"stateMutability":"nonpayable"},{"type":"function","name":"setWithdrawAddress","inputs":[{"name":"_withdrawAddress","type":"address","internalType":"address"}],"outputs":[],"stateMutability":"nonpayable"},{"type":"function","name":"supportsInterface","inputs":[{"name":"interfaceId","type":"bytes4","internalType":"bytes4"}],"outputs":[{"name":"","type":"bool","internalType":"bool"}],"stateMutability":"view"},{"type":"function","name":"symbol","inputs":[],"outputs":[{"name":"","type":"string","internalType":"string"}],"stateMutability":"view"},{"type":"function","name":"tbaAddressToTokenId","inputs":[{"name":"","type":"address","internalType":"address"}],"outputs":[{"name":"","type":"uint256","internalType":"uint256"}],"stateMutability":"view"},{"type":"function","name":"teamMint","inputs":[{"name":"_to","type":"address","internalType":"address"},{"name":"_amount","type":"uint256","internalType":"uint256"},{"name":"_traitCount","type":"uint8","internalType":"uint8"}],"outputs":[],"stateMutability":"nonpayable"},{"type":"function","name":"teamReserve","inputs":[],"outputs":[],"stateMutability":"nonpayable"},{"type":"function","name":"tokenByIndex","inputs":[{"name":"index","type":"uint256","internalType":"uint256"}],"outputs":[{"name":"","type":"uint256","internalType":"uint256"}],"stateMutability":"view"},{"type":"function","name":"tokenIdToTBAAccountAddress","inputs":[{"name":"","type":"uint256","internalType":"uint256"}],"outputs":[{"name":"","type":"address","internalType":"address"}],"stateMutability":"view"},{"type":"function","name":"tokenOfOwnerByIndex","inputs":[{"name":"owner","type":"address","internalType":"address"},{"name":"index","type":"uint256","internalType":"uint256"}],"outputs":[{"name":"","type":"uint256","internalType":"uint256"}],"stateMutability":"view"},{"type":"function","name":"tokenURI","inputs":[{"name":"_tokenId","type":"uint256","internalType":"uint256"}],"outputs":[{"name":"","type":"string","internalType":"string"}],"stateMutability":"view"},{"type":"function","name":"totalSupply","inputs":[],"outputs":[{"name":"","type":"uint256","internalType":"uint256"}],"stateMutability":"view"},{"type":"function","name":"traitsContract","inputs":[],"outputs":[{"name":"","type":"address","internalType":"contract ChonkTraits"}],"stateMutability":"view"},{"type":"function","name":"transferFrom","inputs":[{"name":"from","type":"address","internalType":"address"},{"name":"to","type":"address","internalType":"address"},{"name":"tokenId","type":"uint256","internalType":"uint256"}],"outputs":[],"stateMutability":"nonpayable"},{"type":"function","name":"transferOwnership","inputs":[{"name":"newOwner","type":"address","internalType":"address"}],"outputs":[],"stateMutability":"payable"},{"type":"function","name":"unequip","inputs":[{"name":"_chonkTokenId","type":"uint256","internalType":"uint256"},{"name":"traitType","type":"uint8","internalType":"enum TraitCategory.Name"}],"outputs":[],"stateMutability":"nonpayable"},{"type":"function","name":"unequipAll","inputs":[{"name":"_chonkTokenId","type":"uint256","internalType":"uint256"}],"outputs":[],"stateMutability":"nonpayable"},{"type":"function","name":"walletOfOwner","inputs":[{"name":"_owner","type":"address","internalType":"address"}],"outputs":[{"name":"","type":"uint256[]","internalType":"uint256[]"}],"stateMutability":"view"},{"type":"function","name":"withdraw","inputs":[],"outputs":[],"stateMutability":"nonpayable"},{"type":"function","name":"withdrawAddress","inputs":[],"outputs":[{"name":"","type":"address","internalType":"address"}],"stateMutability":"view"},{"type":"event","name":"Approval","inputs":[{"name":"owner","type":"address","indexed":true,"internalType":"address"},{"name":"approved","type":"address","indexed":true,"internalType":"address"},{"name":"tokenId","type":"uint256","indexed":true,"internalType":"uint256"}],"anonymous":false},{"type":"event","name":"ApprovalForAll","inputs":[{"name":"owner","type":"address","indexed":true,"internalType":"address"},{"name":"operator","type":"address","indexed":true,"internalType":"address"},{"name":"approved","type":"bool","indexed":false,"internalType":"bool"}],"anonymous":false},{"type":"event","name":"BatchMetadataUpdate","inputs":[{"name":"_fromTokenId","type":"uint256","indexed":false,"internalType":"uint256"},{"name":"_toTokenId","type":"uint256","indexed":false,"internalType":"uint256"}],"anonymous":false},{"type":"event","name":"Equip","inputs":[{"name":"owner","type":"address","indexed":true,"internalType":"address"},{"name":"tokenId","type":"uint256","indexed":true,"internalType":"uint256"},{"name":"traitTokenId","type":"uint256","indexed":true,"internalType":"uint256"},{"name":"traitCategory","type":"uint8","indexed":false,"internalType":"uint8"}],"anonymous":false},{"type":"event","name":"EquipAll","inputs":[{"name":"owner","type":"address","indexed":true,"internalType":"address"},{"name":"tokenId","type":"uint256","indexed":true,"internalType":"uint256"}],"anonymous":false},{"type":"event","name":"MetadataUpdate","inputs":[{"name":"_tokenId","type":"uint256","indexed":false,"internalType":"uint256"}],"anonymous":false},{"type":"event","name":"Mint","inputs":[{"name":"owner","type":"address","indexed":true,"internalType":"address"},{"name":"tokenId","type":"uint256","indexed":true,"internalType":"uint256"}],"anonymous":false},{"type":"event","name":"OwnershipHandoverCanceled","inputs":[{"name":"pendingOwner","type":"address","indexed":true,"internalType":"address"}],"anonymous":false},{"type":"event","name":"OwnershipHandoverRequested","inputs":[{"name":"pendingOwner","type":"address","indexed":true,"internalType":"address"}],"anonymous":false},{"type":"event","name":"OwnershipTransferred","inputs":[{"name":"oldOwner","type":"address","indexed":true,"internalType":"address"},{"name":"newOwner","type":"address","indexed":true,"internalType":"address"}],"anonymous":false},{"type":"event","name":"Transfer","inputs":[{"name":"from","type":"address","indexed":true,"internalType":"address"},{"name":"to","type":"address","indexed":true,"internalType":"address"},{"name":"tokenId","type":"uint256","indexed":true,"internalType":"uint256"}],"anonymous":false},{"type":"event","name":"Unequip","inputs":[{"name":"owner","type":"address","indexed":true,"internalType":"address"},{"name":"tokenId","type":"uint256","indexed":true,"internalType":"uint256"},{"name":"traitCategory","type":"uint8","indexed":false,"internalType":"uint8"}],"anonymous":false},{"type":"event","name":"UnequipAll","inputs":[{"name":"owner","type":"address","indexed":true,"internalType":"address"},{"name":"tokenId","type":"uint256","indexed":true,"internalType":"uint256"}],"anonymous":false},{"type":"error","name":"AlreadyInitialized","inputs":[]},{"type":"error","name":"CanOnlyReserveFirstTwo","inputs":[]},{"type":"error","name":"CantTransferDuringMint","inputs":[]},{"type":"error","name":"CantTransferToTBAs","inputs":[]},{"type":"error","name":"ChonkDoesntExist","inputs":[]},{"type":"error","name":"FirstReleaseDataMinterNotSet","inputs":[]},{"type":"error","name":"IncorrectChonkOwner","inputs":[]},{"type":"error","name":"IncorrectTBAOwner","inputs":[]},{"type":"error","name":"IncorrectTraitType","inputs":[]},{"type":"error","name":"InsufficientFunds","inputs":[]},{"type":"error","name":"InvalidBodyIndex","inputs":[]},{"type":"error","name":"InvalidColor","inputs":[]},{"type":"error","name":"InvalidMintAmount","inputs":[]},{"type":"error","name":"InvalidTraitCount","inputs":[]},{"type":"error","name":"MintEnded","inputs":[]},{"type":"error","name":"MintNotStarted","inputs":[]},{"type":"error","name":"MintStartTimeAlreadySet","inputs":[]},{"type":"error","name":"NewOwnerIsZeroAddress","inputs":[]},{"type":"error","name":"NoHandoverRequest","inputs":[]},{"type":"error","name":"Timelocked","inputs":[]},{"type":"error","name":"Unauthorized","inputs":[]},{"type":"error","name":"UseUnequip","inputs":[]},{"type":"error","name":"WithdrawFailed","inputs":[]}],"bytecode":{"object":"0x60a060405260636012553480156200001657600080fd5b506040518060400160405280600681526020016543686f6e6b7360d01b8152506040518060400160405280600681526020016543484f4e4b5360d01b815250816000908162000066919062000175565b50600162000075828262000175565b50506001600a5550620000883362000092565b4260805262000241565b6001600160a01b0316638b78c6d8198190558060007f8be0079c531659141344cd1fd0a4f28419497f9722a3daafe3b4186f6b6457e08180a350565b634e487b7160e01b600052604160045260246000fd5b600181811c90821680620000f957607f821691505b6020821081036200011a57634e487b7160e01b600052602260045260246000fd5b50919050565b601f82111562000170576000816000526020600020601f850160051c810160208610156200014b5750805b601f850160051c820191505b818110156200016c5782815560010162000157565b5050505b505050565b81516001600160401b03811115620001915762000191620000ce565b620001a981620001a28454620000e4565b8462000120565b602080601f831160018114620001e15760008415620001c85750858301515b600019600386901b1c1916600185901b1785556200016c565b600085815260208120601f198616915b828110156200021257888601518255948401946001909101908401620001f1565b5085821015620002315787850151600019600388901b60f8161c191681555b5050505050600190811b01905550565b608051615f906200026460003960008181610ff501526132410152615f906000f3fe6080604052600436106104f65760003560e01c80638472cbca1161028c578063b88d4fde1161015a578063e3d21555116100cc578063f3f8efb911610085578063f3f8efb91461105d578063f4bec0b61461107d578063f6a0c9321461109d578063fc863e64146110d3578063fd8b66de146110e9578063fee81cf41461110957600080fd5b8063e3d2155514610f84578063e985e9c514610f9a578063ecda10f514610fe3578063f04e283e14611017578063f2361e231461102a578063f2fde38b1461104a57600080fd5b8063c87b56dd1161011e578063c87b56dd14610ec2578063cdb6dd5c14610ee2578063d3d6873e14610f02578063d59752eb14610f2f578063d5b3621b14610f44578063dceef0ec14610f6457600080fd5b8063b88d4fde14610e29578063b91fdc8c14610e49578063ba41b0c614610e5f578063be7ff59a14610e72578063c093afdb14610ea257600080fd5b80639f6e4637116101fe578063a4bf9a00116101b7578063a4bf9a0014610d44578063abc8c7af14610d71578063b194b6f114610d91578063b45d031614610db1578063b66ef6e314610de9578063b84b160d14610e0957600080fd5b80639f6e463714610c8a578063a035b1fe14610caa578063a153178014610cc0578063a1d6268014610cd6578063a22cb46514610cf6578063a23830ae14610d1657600080fd5b806391b7f5ed1161025057806391b7f5ed14610bbb57806392012f0814610bdb57806395d89b4114610c0a5780639c05d68d14610c1f5780639c7be2f114610c555780639eb2660c14610c6a57600080fd5b80638472cbca14610b0c5780638aa1e4c814610b425780638d2a2f1114610b625780638da5cb5b14610b82578063916c546b14610b9b57600080fd5b80633ccfd60b116103c95780635eabd84a1161033b578063715018a6116102f4578063715018a614610a7857806373ad6c2d14610a8057806375676db814610aa057806375794a3c14610ac05780637e2e6c4714610ad657806380d833f114610af657600080fd5b80635eabd84a146109765780636352211e1461099657806366704349146109b657806367d2afe214610a0b5780636e51665f14610a3857806370a0823114610a5857600080fd5b80634f6ccce71161038d5780634f6ccce7146108c957806350b03146146108e957806354d1f13d146108fe578063550ab2471461090657806355737f351461092657806359d591d01461094657600080fd5b80633ccfd60b1461083257806342842e0e146108475780634287f14a14610867578063438b63001461087c5780634a4333a3146108a957600080fd5b80631e8ff18f1161046d5780633044825b116104265780633044825b14610772578063306c73341461079257806332875aa0146107b257806333d3d9bf146107d2578063343b4887146107f25780633ab1a4941461081257600080fd5b80631e8ff18f146106bb57806323b872dd146106ea578063256929621461070a57806326f2052a1461071257806328257532146107325780632f745c591461075257600080fd5b8063095ea7b3116104bf578063095ea7b3146105ec5780630a99a3501461060c5780630c83f9d71461062c57806314fe8ff41461065c5780631581b6001461067c57806318160ddd1461069c57600080fd5b8062179206146104fb57806301ffc9a71461051d57806304003bd01461055257806306fdde0314610592578063081812fc146105b4575b600080fd5b34801561050757600080fd5b5061051b610516366004614d92565b61113c565b005b34801561052957600080fd5b5061053d610538366004614dc5565b61118c565b60405190151581526020015b60405180910390f35b34801561055e57600080fd5b5061057261056d366004614de2565b61119d565b604080516001600160a01b03938416815292909116602083015201610549565b34801561059e57600080fd5b506105a76111cc565b6040516105499190614e4b565b3480156105c057600080fd5b506105d46105cf366004614de2565b61125e565b6040516001600160a01b039091168152602001610549565b3480156105f857600080fd5b5061051b610607366004614e5e565b611285565b34801561061857600080fd5b5061051b610627366004614d92565b6112d6565b34801561063857600080fd5b5061064c610647366004614de2565b611326565b6040516105499493929190614e8a565b34801561066857600080fd5b506105a7610677366004614de2565b6114e7565b34801561068857600080fd5b506014546105d4906001600160a01b031681565b3480156106a857600080fd5b506008545b604051908152602001610549565b3480156106c757600080fd5b5061053d6106d6366004614d92565b602080526000908152604090205460ff1681565b3480156106f657600080fd5b5061051b610705366004614ed4565b6115a0565b61051b6115df565b34801561071e57600080fd5b5061051b61072d366004615023565b61162e565b34801561073e57600080fd5b5061051b61074d3660046150bd565b611643565b34801561075e57600080fd5b506106ad61076d366004614e5e565b611771565b34801561077e57600080fd5b5061051b61078d366004614de2565b611807565b34801561079e57600080fd5b506105a76107ad366004614de2565b6118c2565b3480156107be57600080fd5b506105a76107cd366004614de2565b6118da565b3480156107de57600080fd5b5061051b6107ed366004614de2565b611991565b3480156107fe57600080fd5b5061051b61080d366004615105565b61199e565b34801561081e57600080fd5b5061051b61082d366004614d92565b611bc7565b34801561083e57600080fd5b5061051b611bf1565b34801561085357600080fd5b5061051b610862366004614ed4565b611c70565b34801561087357600080fd5b5061051b611c8b565b34801561088857600080fd5b5061089c610897366004614d92565b611ccc565b604051610549919061516c565b3480156108b557600080fd5b5061051b6108c43660046151b0565b611d63565b3480156108d557600080fd5b506106ad6108e4366004614de2565b6122c3565b3480156108f557600080fd5b5061053d612356565b61051b612367565b34801561091257600080fd5b5061051b610921366004615205565b6123a3565b34801561093257600080fd5b506105d46109413660046150bd565b6123f9565b34801561095257600080fd5b5061053d610961366004614d92565b60226020526000908152604090205460ff1681565b34801561098257600080fd5b5061051b610991366004614d92565b612431565b3480156109a257600080fd5b506105d46109b1366004614de2565b612481565b3480156109c257600080fd5b506109d66109d1366004614de2565b6124e1565b60405161054994939291906001600160a01b039485168152602081019390935292166040820152901515606082015260800190565b348015610a1757600080fd5b50610a2b610a26366004614de2565b612593565b6040516105499190615288565b348015610a4457600080fd5b5061051b610a5336600461529b565b6125ff565b348015610a6457600080fd5b506106ad610a73366004614d92565b6126a3565b61051b612729565b348015610a8c57600080fd5b5061051b610a9b366004614d92565b61273b565b348015610aac57600080fd5b50600e546105d4906001600160a01b031681565b348015610acc57600080fd5b506106ad60135481565b348015610ae257600080fd5b5061051b610af1366004614d92565b61278b565b348015610b0257600080fd5b506106ad601d5481565b348015610b1857600080fd5b506106ad610b27366004614d92565b6001600160a01b03166000908152601b602052604090205490565b348015610b4e57600080fd5b5061053d610b5d3660046150bd565b6127db565b348015610b6e57600080fd5b5061051b610b7d366004614de2565b61284a565b348015610b8e57600080fd5b50638b78c6d819546105d4565b348015610ba757600080fd5b506105a7610bb6366004614de2565b612857565b348015610bc757600080fd5b5061051b610bd6366004614de2565b612899565b348015610be757600080fd5b50610bfb610bf63660046152e4565b6128a6565b604051610549939291906153dd565b348015610c1657600080fd5b506105a76129f7565b348015610c2b57600080fd5b506105d4610c3a366004614de2565b601a602052600090815260409020546001600160a01b031681565b348015610c6157600080fd5b5061051b612a06565b348015610c7657600080fd5b5061051b610c85366004614de2565b612a28565b348015610c9657600080fd5b5061089c610ca5366004614de2565b612a35565b348015610cb657600080fd5b506106ad60155481565b348015610ccc57600080fd5b506106ad601f5481565b348015610ce257600080fd5b506105a7610cf1366004614de2565b612acb565b348015610d0257600080fd5b5061051b610d11366004615420565b612af6565b348015610d2257600080fd5b50610d36610d313660046152e4565b612b6f565b604051610549929190615455565b348015610d5057600080fd5b506106ad610d5f366004614d92565b601b6020526000908152604090205481565b348015610d7d57600080fd5b50600d546105d4906001600160a01b031681565b348015610d9d57600080fd5b5061051b610dac366004614de2565b612c1d565b348015610dbd57600080fd5b50610dd1610dcc366004614de2565b612c2a565b6040516105499c9b9a99989796959493929190615483565b348015610df557600080fd5b506011546105d4906001600160a01b031681565b348015610e1557600080fd5b5061051b610e24366004614d92565b612d21565b348015610e3557600080fd5b5061051b610e443660046154fc565b612d71565b348015610e5557600080fd5b506106ad60165481565b61051b610e6d36600461558a565b612da3565b348015610e7e57600080fd5b5061053d610e8d366004614d92565b60216020526000908152604090205460ff1681565b348015610eae57600080fd5b50600c546105d4906001600160a01b031681565b348015610ece57600080fd5b506105a7610edd366004614de2565b612fa8565b348015610eee57600080fd5b5061051b610efd366004615633565b612fe9565b348015610f0e57600080fd5b50610f22610f1d366004614de2565b613091565b6040516105499190615663565b348015610f3b57600080fd5b506106ad61323a565b348015610f5057600080fd5b5061051b610f5f366004614de2565b61326f565b348015610f7057600080fd5b506105a7610f7f366004614de2565b61329d565b348015610f9057600080fd5b506106ad60125481565b348015610fa657600080fd5b5061053d610fb536600461571a565b6001600160a01b03918216600090815260056020908152604080832093909416825291909152205460ff1690565b348015610fef57600080fd5b506106ad7f000000000000000000000000000000000000000000000000000000000000000081565b61051b611025366004614d92565b613578565b34801561103657600080fd5b5061051b611045366004615748565b6135b5565b61051b611058366004614d92565b613628565b34801561106957600080fd5b506105a7611078366004614de2565b61364f565b34801561108957600080fd5b506010546105d4906001600160a01b031681565b3480156110a957600080fd5b506105d46110b8366004614de2565b6000908152601a60205260409020546001600160a01b031690565b3480156110df57600080fd5b506106ad601e5481565b3480156110f557600080fd5b50600f546105d4906001600160a01b031681565b34801561111557600080fd5b506106ad611124366004614d92565b63389a75e1600c908152600091909152602090205490565b611144613905565b61114c612356565b1561116a5760405163774ae17d60e01b815260040160405180910390fd5b601180546001600160a01b0319166001600160a01b0392909216919091179055565b600061119782613920565b92915050565b6000806111a983612481565b6000938452601a60205260409093205492936001600160a01b0390931692915050565b6060600080546111db906157cd565b80601f0160208091040260200160405190810160405280929190818152602001828054611207906157cd565b80156112545780601f1061122957610100808354040283529160200191611254565b820191906000526020600020905b81548152906001019060200180831161123757829003601f168201915b5050505050905090565b600061126982613945565b506000908152600460205260409020546001600160a01b031690565b61128e81612481565b6001600160a01b0316336001600160a01b0316146112be576040516282b42960e81b815260040160405180910390fd5b6112c881836139a4565b6112d282826139e3565b5050565b6112de613905565b6112e6612356565b156113045760405163774ae17d60e01b815260040160405180910390fd5b600e80546001600160a01b0319166001600160a01b0392909216919091179055565b600b6020526000908152604090208054600182018054919291611348906157cd565b80601f0160208091040260200160405190810160405280929190818152602001828054611374906157cd565b80156113c15780601f10611396576101008083540402835291602001916113c1565b820191906000526020600020905b8154815290600101906020018083116113a457829003601f168201915b5050505050908060020180546113d6906157cd565b80601f0160208091040260200160405190810160405280929190818152602001828054611402906157cd565b801561144f5780601f106114245761010080835404028352916020019161144f565b820191906000526020600020905b81548152906001019060200180831161143257829003601f168201915b505050505090806003018054611464906157cd565b80601f0160208091040260200160405190810160405280929190818152602001828054611490906157cd565b80156114dd5780601f106114b2576101008083540402835291602001916114dd565b820191906000526020600020905b8154815290600101906020018083116114c057829003601f168201915b5050505050905084565b601054600c546060916001600160a01b03908116916327707b149116611522856000908152601a60205260409020546001600160a01b031690565b6012546040516001600160e01b031960e086901b1681526001600160a01b03938416600482015292909116602483015260448201526064015b600060405180830381865afa158015611578573d6000803e3d6000fd5b505050506040513d6000823e601f3d908101601f191682016040526111979190810190615857565b6115aa3382613a51565b6115cf5760405162461bcd60e51b81526004016115c69061588b565b60405180910390fd5b6115da838383613acf565b505050565b60006202a3006001600160401b03164201905063389a75e1600c5233600052806020600c2055337fdbf36a107da19e49527a7176a1babf963b4b0ff8cde35ee35d6cd8f1f9ac7e1d600080a250565b611636613905565b6112d26017826002614c56565b8161164d81612481565b6001600160a01b0316336001600160a01b03161461167e57604051631431735b60e21b815260040160405180910390fd5b8160000361169f57604051630754c7f360e41b815260040160405180910390fd5b600e546040516341e2a37360e01b815260048101859052602481018490526000916001600160a01b0316906341e2a37390604401602060405180830381865afa1580156116f0573d6000803e3d6000fd5b505050506040513d601f19601f8201168201806040525081019061171491906158d9565b9050611721848285613c7c565b828461172c86612481565b6001600160a01b0316600080516020615f3b833981519152846007811115611756576117566158f6565b60405160ff909116815260200160405180910390a450505050565b600061177c836126a3565b82106117de5760405162461bcd60e51b815260206004820152602b60248201527f455243373231456e756d657261626c653a206f776e657220696e646578206f7560448201526a74206f6620626f756e647360a81b60648201526084016115c6565b506001600160a01b03919091166000908152600660209081526040808320938352929052205490565b8061181181612481565b6001600160a01b0316336001600160a01b03161461184257604051631431735b60e21b815260040160405180910390fd5b6000828152601960205260408120818155600181018290556002810182905560038101829055600481018290556005810182905560068101919091558261188881612481565b6001600160a01b03167f46078a2cd4c69c3b4a27bdc69fdfe03d442ebcf405f1a68e9b5df6bc3e24429760405160405180910390a3505050565b6060806118d1610bf684613091565b50949350505050565b600c5460609081906001600160a01b031663bb12d21d6118f985613091565b6040518263ffffffff1660e01b81526004016119159190615663565b600060405180830381865afa158015611932573d6000803e3d6000fd5b505050506040513d6000823e601f3d908101601f1916820160405261195a919081019061590c565b5091506119689050836118c2565b8160405160200161197a9291906159aa565b604051602081830303815290604052915050919050565b611999613905565b601255565b836119a881612481565b6001600160a01b0316336001600160a01b0316146119d957604051631431735b60e21b815260040160405180910390fd5b835184906006146119fd57604051631cf7e9c560e01b815260040160405180910390fd5b60048460ff161115611a22576040516329ba348d60e11b815260040160405180910390fd5b60005b6006811015611b6f57603060f81b828281518110611a4557611a456159d9565b01602001516001600160f81b03191610801590611a865750603960f81b828281518110611a7457611a746159d9565b01602001516001600160f81b03191611155b158015611ae85750604160f81b828281518110611aa557611aa56159d9565b01602001516001600160f81b03191610801590611ae65750604660f81b828281518110611ad457611ad46159d9565b01602001516001600160f81b03191611155b155b8015611b495750606160f81b828281518110611b0657611b066159d9565b01602001516001600160f81b03191610801590611b475750606660f81b828281518110611b3557611b356159d9565b01602001516001600160f81b03191611155b155b15611b6757604051631cf7e9c560e01b815260040160405180910390fd5b600101611a25565b506000868152601960205260409020600a01611b8b8682615a37565b50505060009384526019602052604090932060098101805460ff90931660ff19938416179055600b018054931515939091169290921790915550565b611bcf613905565b601480546001600160a01b0319166001600160a01b0392909216919091179055565b611bf9613905565b6014546040516000916001600160a01b03169047908381818185875af1925050503d8060008114611c46576040519150601f19603f3d011682016040523d82523d6000602084013e611c4b565b606091505b5050905080611c6d57604051631d42c86760e21b815260040160405180910390fd5b50565b6115da83838360405180602001604052806000815250612d71565b611c93613905565b6002611c9e60085490565b1115611cbd5760405163155b299760e31b815260040160405180910390fd5b611cca3360026007613dd7565b565b60606000611cd9836126a3565b90506000816001600160401b03811115611cf557611cf5614f15565b604051908082528060200260200182016040528015611d1e578160200160208202803683370190505b50905060005b82811015611d5b57611d368582611771565b828281518110611d4857611d486159d9565b6020908102919091010152600101611d24565b509392505050565b87611d6d81612481565b6001600160a01b0316336001600160a01b031614611d9e57604051631431735b60e21b815260040160405180910390fd5b6000898152601960209081526040808320601a909252909120546001600160a01b03168915611e6a57600e546040516395d004cb60e01b81526001600160a01b03909116906395d004cb90611dfc9084908e90600190600401615af6565b60006040518083038186803b158015611e1457600080fd5b505afa158015611e28573d6000803e3d6000fd5b5050508a835550898b611e3a81612481565b6001600160a01b0316600080516020615f3b833981519152600160405160ff909116815260200160405180910390a45b8815611f1757600e546040516395d004cb60e01b81526001600160a01b03909116906395d004cb90611ea59084908d90600290600401615af6565b60006040518083038186803b158015611ebd57600080fd5b505afa158015611ed1573d6000803e3d6000fd5b5050505060018201899055888b611ee781612481565b6001600160a01b0316600080516020615f3b833981519152600260405160ff909116815260200160405180910390a45b8715611fc457600e546040516395d004cb60e01b81526001600160a01b03909116906395d004cb90611f529084908c90600390600401615af6565b60006040518083038186803b158015611f6a57600080fd5b505afa158015611f7e573d6000803e3d6000fd5b5050505060028201889055878b611f9481612481565b6001600160a01b0316600080516020615f3b833981519152600360405160ff909116815260200160405180910390a45b861561207057600e546040516395d004cb60e01b81526001600160a01b03909116906395d004cb90611ffe9084908b906004908101615af6565b60006040518083038186803b15801561201657600080fd5b505afa15801561202a573d6000803e3d6000fd5b5050505060038201879055868b61204081612481565b6001600160a01b0316600080516020615f3b833981519152600460405160ff909116815260200160405180910390a45b851561211d57600e546040516395d004cb60e01b81526001600160a01b03909116906395d004cb906120ab9084908a90600590600401615af6565b60006040518083038186803b1580156120c357600080fd5b505afa1580156120d7573d6000803e3d6000fd5b5050505060048201869055858b6120ed81612481565b6001600160a01b0316600080516020615f3b833981519152600560405160ff909116815260200160405180910390a45b84156121ca57600e546040516395d004cb60e01b81526001600160a01b03909116906395d004cb906121589084908990600690600401615af6565b60006040518083038186803b15801561217057600080fd5b505afa158015612184573d6000803e3d6000fd5b5050505060058201859055848b61219a81612481565b6001600160a01b0316600080516020615f3b833981519152600660405160ff909116815260200160405180910390a45b831561227757600e546040516395d004cb60e01b81526001600160a01b03909116906395d004cb906122059084908890600790600401615af6565b60006040518083038186803b15801561221d57600080fd5b505afa158015612231573d6000803e3d6000fd5b5050505060068201849055838b61224781612481565b6001600160a01b0316600080516020615f3b833981519152600760405160ff909116815260200160405180910390a45b8a6122818c612481565b6001600160a01b03167f56680590212b09eb4b72a2eba8801b037ec046dfc754538e924f5bb6a8c4db6c60405160405180910390a35050505050505050505050565b60006122ce60085490565b82106123315760405162461bcd60e51b815260206004820152602c60248201527f455243373231456e756d657261626c653a20676c6f62616c20696e646578206f60448201526b7574206f6620626f756e647360a01b60648201526084016115c6565b60088281548110612344576123446159d9565b90600052602060002001549050919050565b600061236061323a565b4211905090565b63389a75e1600c523360005260006020600c2055337ffa7b8eab7da67f412cc9575ed43464468f9bfbae89d1675917346ca6d8fe3c92600080a2565b60006123ae84612481565b90506001600160a01b03811633146123d8576040516282b42960e81b815260040160405180910390fd5b81156123e8576123e884846139a4565b6123f38184846140ea565b50505050565b601c602052816000526040600020818154811061241557600080fd5b6000918252602090912001546001600160a01b03169150829050565b612439613905565b612441612356565b1561245f5760405163774ae17d60e01b815260040160405180910390fd5b600c80546001600160a01b0319166001600160a01b0392909216919091179055565b6000818152600260205260408120546001600160a01b0316806111975760405162461bcd60e51b8152602060048201526018602482015277115490cdcc8c4e881a5b9d985b1a59081d1bdad95b88125160421b60448201526064016115c6565b600c546040516331a9108f60e11b8152600481018390526000918291829182916001600160a01b0390911690636352211e90602401602060405180830381865afa158015612533573d6000803e3d6000fd5b505050506040513d601f19601f820116820180604052508101906125579190615b39565b6001600160a01b0381166000908152601b6020526040902054909450925061257e83612481565b915061258a83866127db565b90509193509193565b6000818152601c60209081526040918290208054835181840281018401909452808452606093928301828280156125f357602002820191906000526020600020905b81546001600160a01b031681526001909101906020018083116125d5575b50505050509050919050565b612607613905565b60048160ff16108061261c575060078160ff16115b1561263a57604051632258debf60e01b815260040160405180910390fd5b601654158061264a575060165442105b1561266857604051630314872760e11b815260040160405180910390fd5b6016546126789062016da0615b6c565b4211156126985760405163124212e560e21b815260040160405180910390fd5b6115da838383613dd7565b60006001600160a01b03821661270d5760405162461bcd60e51b815260206004820152602960248201527f4552433732313a2061646472657373207a65726f206973206e6f7420612076616044820152683634b21037bbb732b960b91b60648201526084016115c6565b506001600160a01b031660009081526003602052604090205490565b612731613905565b611cca60006141b0565b612743613905565b61274b612356565b156127695760405163774ae17d60e01b815260040160405180910390fd5b600d80546001600160a01b0319166001600160a01b0392909216919091179055565b612793613905565b61279b612356565b156127b95760405163774ae17d60e01b815260040160405180910390fd5b601080546001600160a01b0319166001600160a01b0392909216919091179055565b6000806127e784613091565b80519091508314806127fc5750828160200151145b8061280a5750828160400151145b806128185750828160600151145b806128265750828160800151145b806128345750828160a00151145b806128425750828160c00151145b949350505050565b612852613905565b601d55565b6010546000828152600b602052604090819020905163da11a05360e01b81526060926001600160a01b03169163da11a0539161155b9160020190600401615bfc565b6128a1613905565b601555565b60608060606128bc84610120015160ff16612857565b6101208501805160ff9081166000908152600b602052604080822060105494519093168252908190209051630d88d4ff60e01b81526003909201926001600160a01b031691630d88d4ff9161291991600190910190600401615c0f565b600060405180830381865afa158015612936573d6000803e3d6000fd5b505050506040513d6000823e601f3d908101601f1916820160405261295e9190810190615857565b81805461296a906157cd565b80601f0160208091040260200160405190810160405280929190818152602001828054612996906157cd565b80156129e35780601f106129b8576101008083540402835291602001916129e3565b820191906000526020600020905b8154815290600101906020018083116129c657829003601f168201915b505050505091509250925092509193909250565b6060600180546111db906157cd565b60005b600a811015611c6d576060612a1f600482612da3565b50600101612a09565b612a30613905565b601e55565b6000818152601a6020526040812054606091906001600160a01b0316600c5460405162438b6360e81b81526001600160a01b03808416600483015292935091169063438b630090602401600060405180830381865afa158015612a9c573d6000803e3d6000fd5b505050506040513d6000823e601f3d908101601f19168201604052612ac49190810190615c42565b9392505050565b6060612ad682613091565b6101600151612aed57612ae88261364f565b611197565b6111978261329d565b8015612b64576000612b0733611ccc565b90508051600003612b2a576040516282b42960e81b815260040160405180910390fd5b60005b8151811015612b6157612b59828281518110612b4b57612b4b6159d9565b6020026020010151856139a4565b600101612b2d565b50505b6112d23383836140ea565b606080612b8383610120015160ff16612857565b60105461012085015160ff166000908152600b6020526040908190209051630d88d4ff60e01b81526001600160a01b0390921691630d88d4ff91612bcf91600190910190600401615c0f565b600060405180830381865afa158015612bec573d6000803e3d6000fd5b505050506040513d6000823e601f3d908101601f19168201604052612c149190810190615857565b91509150915091565b612c25613905565b601f55565b601960205260009081526040902080546001820154600283015460038401546004850154600586015460068701546007880154600889015460098a0154600a8b0180549a9b999a9899979896979596949563ffffffff90941694929360ff90921692612c95906157cd565b80601f0160208091040260200160405190810160405280929190818152602001828054612cc1906157cd565b8015612d0e5780601f10612ce357610100808354040283529160200191612d0e565b820191906000526020600020905b815481529060010190602001808311612cf157829003601f168201915b505050600b909301549192505060ff168c565b612d29613905565b612d31612356565b15612d4f5760405163774ae17d60e01b815260040160405180910390fd5b600f80546001600160a01b0319166001600160a01b0392909216919091179055565b612d7b3383613a51565b612d975760405162461bcd60e51b81526004016115c69061588b565b6123f3848484846141ee565b600f546001600160a01b0316612dcc5760405163d93186fd60e01b815260040160405180910390fd5b811580612dd95750600a82115b15612df75760405163199f5a0360e31b815260040160405180910390fd5b6016541580612e07575060165442105b15612e2557604051630314872760e11b815260040160405180910390fd5b601654612e359062015180615b6c565b421115612e555760405163124212e560e21b815260040160405180910390fd5b81601554612e639190615cc7565b3414612e825760405163356680b760e01b815260040160405180910390fd5b6040516bffffffffffffffffffffffff193360601b166020820152600490600090603401604051602081830303815290604052805190602001209050612ecb83601d5483614221565b15612f095733600090815260208052604090205460ff16612f04573360009081526020805260409020805460ff19166001179055600591505b612f9d565b612f1683601e5483614221565b15612f55573360009081526021602052604090205460ff16612f0457336000908152602160205260409020805460ff1916600117905560069150612f9d565b612f6283601f5483614221565b15612f9d573360009081526022602052604090205460ff16612f9d57336000908152602260205260409020805460ff19166001179055600791505b6123f3338584613dd7565b6000818152600260205260409020546060906001600160a01b0316612fe057604051636461f73160e01b815260040160405180910390fd5b61119782612acb565b81612ff381612481565b6001600160a01b0316336001600160a01b03161461302457604051631431735b60e21b815260040160405180910390fd5b61303083836000613c7c565b8261303a84612481565b6001600160a01b03167f3d8ac56c725fc7985e9444622a45baee28ba67d8a964045f747b465121f40e71846007811115613076576130766158f6565b60405160ff90911681526020015b60405180910390a3505050565b61310060405180610180016040528060008152602001600081526020016000815260200160008152602001600081526020016000815260200160008152602001600063ffffffff16815260200160008152602001600060ff168152602001606081526020016000151581525090565b600082815260196020908152604091829020825161018081018452815481526001820154928101929092526002810154928201929092526003820154606082015260048201546080820152600582015460a0820152600682015460c0820152600782015463ffffffff1660e08201526008820154610100820152600982015460ff16610120820152600a82018054919291610140840191906131a1906157cd565b80601f01602080910402602001604051908101604052809291908181526020018280546131cd906157cd565b801561321a5780601f106131ef5761010080835404028352916020019161321a565b820191906000526020600020905b8154815290600101906020018083116131fd57829003601f168201915b5050509183525050600b919091015460ff16151560209091015292915050565b600061326a7f00000000000000000000000000000000000000000000000000000000000000006301e13380615b6c565b905090565b613277613905565b601654156132985760405163703e78e960e11b815260040160405180910390fd5b601655565b60608060608060608060606132b0614c9f565b60006132bb8a613091565b90506132c6816128a6565b50600c5460405163bb12d21d60e01b8152929a509097506001600160a01b03169063bb12d21d906132fb908490600401615663565b600060405180830381865afa158015613318573d6000803e3d6000fd5b505050506040513d6000823e601f3d908101601f19168201604052613340919081019061590c565b604051929950909650935061335b90879087906020016159aa565b60408051601f198184030181529190526101408201518352935061337e8a612a35565b5160408084019190915261012082015160ff166000908152600b6020522060010180546133aa906157cd565b80601f01602080910402602001604051908101604052809291908181526020018280546133d6906157cd565b80156134235780601f106133f857610100808354040283529160200191613423565b820191906000526020600020905b81548152906001019060200180831161340657829003601f168201915b5050505050602083015260408051808201909152601760026000835b828210156134e2578382018054613455906157cd565b80601f0160208091040260200160405190810160405280929190818152602001828054613481906157cd565b80156134ce5780601f106134a3576101008083540402835291602001916134ce565b820191906000526020600020905b8154815290600101906020018083116134b157829003601f168201915b50505050508152602001906001019061343f565b5050505060608301526011546040516323e2ba9960e11b81526001600160a01b03909116906347c5753290613525908d908c908c9089908b908a90600401615d69565b600060405180830381865afa158015613542573d6000803e3d6000fd5b505050506040513d6000823e601f3d908101601f1916820160405261356a9190810190615857565b9a9950505050505050505050565b613580613905565b63389a75e1600c52806000526020600c2080544211156135a857636f5e88186000526004601cfd5b60009055611c6d816141b0565b6135bd613905565b6135c5612356565b156135e35760405163774ae17d60e01b815260040160405180910390fd5b6000848152600b60205260409020848155600181016136028582615a37565b50600281016136118482615a37565b50600381016136208382615a37565b505050505050565b613630613905565b8060601b61364657637448fbae6000526004601cfd5b611c6d816141b0565b606080606080606061365f614c9f565b600061366a88613091565b905061367581612b6f565b50600c54604051631be5857160e31b81529197506001600160a01b03169063df2c2b88906136a7908490600401615663565b600060405180830381865afa1580156136c4573d6000803e3d6000fd5b505050506040513d6000823e601f3d908101601f191682016040526136ec9190810190615ddd565b90955093506136fa886114e7565b6101408201518352925061370d88612a35565b5160408084019190915261012082015160ff166000908152600b602052206001018054613739906157cd565b80601f0160208091040260200160405190810160405280929190818152602001828054613765906157cd565b80156137b25780601f10613787576101008083540402835291602001916137b2565b820191906000526020600020905b81548152906001019060200180831161379557829003601f168201915b5050505050602083015260408051808201909152601760026000835b828210156138715783820180546137e4906157cd565b80601f0160208091040260200160405190810160405280929190818152602001828054613810906157cd565b801561385d5780601f106138325761010080835404028352916020019161385d565b820191906000526020600020905b81548152906001019060200180831161384057829003601f168201915b5050505050815260200190600101906137ce565b505050506060830152601054604051631589d6a760e21b81526001600160a01b03909116906356275a9c906138b4908b908a908a908a908a908a90600401615d69565b600060405180830381865afa1580156138d1573d6000803e3d6000fd5b505050506040513d6000823e601f3d908101601f191682016040526138f99190810190615857565b98975050505050505050565b638b78c6d819543314611cca576382b429006000526004601cfd5b60006001600160e01b0319821663780e9d6360e01b1480611197575061119782614263565b6000818152600260205260409020546001600160a01b0316611c6d5760405162461bcd60e51b8152602060048201526018602482015277115490cdcc8c4e881a5b9d985b1a59081d1bdad95b88125160421b60448201526064016115c6565b6000918252601c6020908152604083208054600181018255908452922090910180546001600160a01b0319166001600160a01b03909216919091179055565b600081815260046020526040902080546001600160a01b0319166001600160a01b0384169081179091558190613a1882612481565b6001600160a01b03167f8c5be1e5ebec7d5bd14f71427d1e84f3dd0314c0f7b2291e5b200ac8c7c3b92560405160405180910390a45050565b600080613a5d83612481565b9050806001600160a01b0316846001600160a01b03161480613aa457506001600160a01b0380821660009081526005602090815260408083209388168352929052205460ff165b806128425750836001600160a01b0316613abd8461125e565b6001600160a01b031614949350505050565b826001600160a01b0316613ae282612481565b6001600160a01b031614613b465760405162461bcd60e51b815260206004820152602560248201527f4552433732313a207472616e736665722066726f6d20696e636f72726563742060448201526437bbb732b960d91b60648201526084016115c6565b6001600160a01b038216613ba85760405162461bcd60e51b8152602060048201526024808201527f4552433732313a207472616e7366657220746f20746865207a65726f206164646044820152637265737360e01b60648201526084016115c6565b613bb38383836142b3565b613bbe6000826139e3565b6001600160a01b0383166000908152600360205260408120805460019290613be7908490615e40565b90915550506001600160a01b0382166000908152600360205260408120805460019290613c15908490615b6c565b909155505060008181526002602052604080822080546001600160a01b0319166001600160a01b0386811691821790925591518493918716917fddf252ad1be2c89b69c2b068fc378daa952ba7f163c4a11628f55a4df523b3ef91a46115da8383836146c4565b6001826007811115613c9057613c906158f6565b03613cab576000838152601960205260409020819055505050565b6002826007811115613cbf57613cbf6158f6565b03613cdd576000838152601960205260409020600101819055505050565b6003826007811115613cf157613cf16158f6565b03613d0f576000838152601960205260409020600201819055505050565b6004826007811115613d2357613d236158f6565b03613d41576000838152601960205260409020600301819055505050565b6005826007811115613d5557613d556158f6565b03613d73576000838152601960205260409020600401819055505050565b6006826007811115613d8757613d876158f6565b03613da5576000838152601960205260409020600501819055505050565b6007826007811115613db957613db96158f6565b036115da576000838152601960205260409020600601819055505050565b60005b828110156123f3576013805460010190819055613df785826146ce565b604051638a54c52f60e01b81527355266d75d1a14e4572138116af39863ed6596e7f600482015260006024820181905262014a34604483015230606483015260848201839052906f6551c19487814612e58fe0681377575890638a54c52f9060a4016020604051808303816000875af1158015613e78573d6000803e3d6000fd5b505050506040513d601f19601f82011682018060405250810190613e9c9190615b39565b6000838152601a6020908152604080832080546001600160a01b0319166001600160a01b038616908117909155808452601b90925291829020859055905163189acdbd60e31b81527341c8f39463a868d3a88af00cd0fe7102f30e44ec60048201529192509063c4d66de890602401600060405180830381600087803b158015613f2557600080fd5b505af1158015613f39573d6000803e3d6000fd5b5050600f546040516358a2727360e01b81526001600160a01b03858116600483015260ff891660248301526000945090911691506358a27273906044016000604051808303816000875af1158015613f95573d6000803e3d6000fd5b505050506040513d6000823e601f3d908101601f19168201604052613fbd9190810190615c42565b600084815260196020908152604091829020600881018790558251918201879052929350600591016040516020818303038152906040528051906020012060001c8161400b5761400b615e53565b60098301805460ff19169290910660ff169190911790556040805180820190915260068152650c110d914e5160d21b6020820152600a82019061404e9082615a37565b5081600081518110614062576140626159d9565b6020026020010151816006018190555081600181518110614085576140856159d9565b60200260200101518160050181905550816002815181106140a8576140a86159d9565b60200260200101518160040181905550816003815181106140cb576140cb6159d9565b6020026020010151816001018190555050505050806001019050613dda565b816001600160a01b0316836001600160a01b03160361414b5760405162461bcd60e51b815260206004820152601960248201527f4552433732313a20617070726f766520746f2063616c6c65720000000000000060448201526064016115c6565b6001600160a01b03838116600081815260056020908152604080832094871680845294825291829020805460ff191686151590811790915591519182527f17307eab39ab6107e8899845ad3d59bd9653f200f220920489ca2b5937696c319101613084565b638b78c6d81980546001600160a01b039092169182907f8be0079c531659141344cd1fd0a4f28419497f9722a3daafe3b4186f6b6457e0600080a355565b6141f9848484613acf565b61420584848484614824565b6123f35760405162461bcd60e51b81526004016115c690615e69565b600083511561425c5760208401845160051b81015b8151841160051b9384528151602094851852604060002093909101908082106142365750505b5014919050565b60006001600160e01b031982166380ac58cd60e01b148061429457506001600160e01b03198216635b5e139f60e01b145b8061119757506301ffc9a760e01b6001600160e01b0319831614611197565b6001600160a01b0383166142cc576115da838383614925565b6016546142dc9062015180615b6c565b4210156142fc5760405163ae735dad60e01b815260040160405180910390fd5b6001600160a01b0382166000908152601b60205260409020541561433357604051639a42da2960e01b815260040160405180910390fd5b6000818152601a60205260408120546001600160a01b03169061435584611ccc565b9050600081516001600160401b0381111561437257614372614f15565b60405190808252806020026020018201604052801561439b578160200160208202803683370190505b50905060005b825181101561441c57601a60008483815181106143c0576143c06159d9565b6020026020010151815260200190815260200160002060009054906101000a90046001600160a01b03168282815181106143fc576143fc6159d9565b6001600160a01b03909216602092830291909101909101526001016143a1565b50600d5460405163644ec52760e01b8152600481018690526001600160a01b039091169063644ec52790602401600060405180830381600087803b15801561446357600080fd5b505af1158015614477573d6000803e3d6000fd5b5050600d54604051631e92beb560e31b8152600481018890526001600160a01b038981166024830152909116925063f495f5a89150604401600060405180830381600087803b1580156144c957600080fd5b505af11580156144dd573d6000803e3d6000fd5b5050600c5460405162438b6360e81b81526001600160a01b03878116600483015260009450909116915063438b630090602401600060405180830381865afa15801561452d573d6000803e3d6000fd5b505050506040513d6000823e601f3d908101601f191682016040526145559190810190615c42565b905060005b81518110156146af576000828281518110614577576145776159d9565b6020908102919091010151600d54604051632e1d274f60e01b8152600481018390529192506001600160a01b031690632e1d274f90602401600060405180830381600087803b1580156145c957600080fd5b505af11580156145dd573d6000803e3d6000fd5b5050600d54604051632333520b60e11b81526001600160a01b039091169250634666a41691506146139084908890600401615ebb565b600060405180830381600087803b15801561462d57600080fd5b505af1158015614641573d6000803e3d6000fd5b5050600c5460405163487b1c2160e11b8152600481018590526001600160a01b0390911692506390f638429150602401600060405180830381600087803b15801561468b57600080fd5b505af115801561469f573d6000803e3d6000fd5b505050505080600101905061455a565b506146bb878787614925565b50505050505050565b6115da81846149dd565b6001600160a01b0382166147245760405162461bcd60e51b815260206004820181905260248201527f4552433732313a206d696e7420746f20746865207a65726f206164647265737360448201526064016115c6565b6000818152600260205260409020546001600160a01b0316156147895760405162461bcd60e51b815260206004820152601c60248201527f4552433732313a20746f6b656e20616c7265616479206d696e7465640000000060448201526064016115c6565b614795600083836142b3565b6001600160a01b03821660009081526003602052604081208054600192906147be908490615b6c565b909155505060008181526002602052604080822080546001600160a01b0319166001600160a01b03861690811790915590518392907fddf252ad1be2c89b69c2b068fc378daa952ba7f163c4a11628f55a4df523b3ef908290a46112d2600083836146c4565b60006001600160a01b0384163b1561491a57604051630a85bd0160e11b81526001600160a01b0385169063150b7a0290614868903390899088908890600401615ed4565b6020604051808303816000875af19250505080156148a3575060408051601f3d908101601f191682019092526148a091810190615f07565b60015b614900573d8080156148d1576040519150601f19603f3d011682016040523d82523d6000602084013e6148d6565b606091505b5080516000036148f85760405162461bcd60e51b81526004016115c690615e69565b805181602001fd5b6001600160e01b031916630a85bd0160e11b149050612842565b506001949350505050565b6001600160a01b0383166149805761497b81600880546000838152600960205260408120829055600182018355919091527ff3f7a9fe364faab93b216da50a3214154f22a0a2b415b23a84c8169e8b636ee30155565b6149a3565b816001600160a01b0316836001600160a01b0316146149a3576149a38382614ac6565b6001600160a01b0382166149ba576115da81614b63565b826001600160a01b0316826001600160a01b0316146115da576115da8282614c12565b6000828152601c6020908152604080832080548251818502810185019093528083529192909190830182828015614a3d57602002820191906000526020600020905b81546001600160a01b03168152600190910190602001808311614a1f575b5050506000868152601a60205260408120549394506001600160a01b03909316929150505b8251811015614aae57614a9084848381518110614a8157614a816159d9565b602002602001015160006140ea565b614aa682848381518110614a8157614a816159d9565b600101614a62565b506000848152601c602052604081206123f391614ccc565b60006001614ad3846126a3565b614add9190615e40565b600083815260076020526040902054909150808214614b30576001600160a01b03841660009081526006602090815260408083208584528252808320548484528184208190558352600790915290208190555b5060009182526007602090815260408084208490556001600160a01b039094168352600681528383209183525290812055565b600854600090614b7590600190615e40565b60008381526009602052604081205460088054939450909284908110614b9d57614b9d6159d9565b906000526020600020015490508060088381548110614bbe57614bbe6159d9565b6000918252602080832090910192909255828152600990915260408082208490558582528120556008805480614bf657614bf6615f24565b6001900381819060005260206000200160009055905550505050565b6000614c1d836126a3565b6001600160a01b039093166000908152600660209081526040808320868452825280832085905593825260079052919091209190915550565b8260028101928215614c8f579160200282015b82811115614c8f5782518290614c7f9082615a37565b5091602001919060010190614c69565b50614c9b929150614cea565b5090565b6040518060800160405280606081526020016060815260200160008152602001614cc7614d07565b905290565b5080546000825590600052602060002090810190611c6d9190614d2e565b80821115614c9b576000614cfe8282614d43565b50600101614cea565b60405180604001604052806002905b6060815260200190600190039081614d165790505090565b5b80821115614c9b5760008155600101614d2f565b508054614d4f906157cd565b6000825580601f10614d5f575050565b601f016020900490600052602060002090810190611c6d9190614d2e565b6001600160a01b0381168114611c6d57600080fd5b600060208284031215614da457600080fd5b8135612ac481614d7d565b6001600160e01b031981168114611c6d57600080fd5b600060208284031215614dd757600080fd5b8135612ac481614daf565b600060208284031215614df457600080fd5b5035919050565b60005b83811015614e16578181015183820152602001614dfe565b50506000910152565b60008151808452614e37816020860160208601614dfb565b601f01601f19169290920160200192915050565b602081526000612ac46020830184614e1f565b60008060408385031215614e7157600080fd5b8235614e7c81614d7d565b946020939093013593505050565b848152608060208201526000614ea36080830186614e1f565b8281036040840152614eb58186614e1f565b90508281036060840152614ec98185614e1f565b979650505050505050565b600080600060608486031215614ee957600080fd5b8335614ef481614d7d565b92506020840135614f0481614d7d565b929592945050506040919091013590565b634e487b7160e01b600052604160045260246000fd5b604080519081016001600160401b0381118282101715614f4d57614f4d614f15565b60405290565b60405161018081016001600160401b0381118282101715614f4d57614f4d614f15565b604051601f8201601f191681016001600160401b0381118282101715614f9e57614f9e614f15565b604052919050565b60006001600160401b03821115614fbf57614fbf614f15565b50601f01601f191660200190565b600082601f830112614fde57600080fd5b8135614ff1614fec82614fa6565b614f76565b81815284602083860101111561500657600080fd5b816020850160208301376000918101602001919091529392505050565b6000602080838503121561503657600080fd5b82356001600160401b038082111561504d57600080fd5b818501915085601f83011261506157600080fd5b615069614f2b565b80604084018881111561507b57600080fd5b845b818110156150af578035858111156150955760008081fd5b6150a18b828901614fcd565b85525092860192860161507d565b509098975050505050505050565b600080604083850312156150d057600080fd5b50508035926020909101359150565b803560ff811681146150f057600080fd5b919050565b803580151581146150f057600080fd5b6000806000806080858703121561511b57600080fd5b8435935060208501356001600160401b0381111561513857600080fd5b61514487828801614fcd565b935050615153604086016150df565b9150615161606086016150f5565b905092959194509250565b6020808252825182820181905260009190848201906040850190845b818110156151a457835183529284019291840191600101615188565b50909695505050505050565b600080600080600080600080610100898b0312156151cd57600080fd5b505086359860208801359850604088013597606081013597506080810135965060a0810135955060c0810135945060e0013592509050565b60008060006060848603121561521a57600080fd5b83359250602084013561522c81614d7d565b915061523a604085016150f5565b90509250925092565b60008151808452602080850194506020840160005b8381101561527d5781516001600160a01b031687529582019590820190600101615258565b509495945050505050565b602081526000612ac46020830184615243565b6000806000606084860312156152b057600080fd5b83356152bb81614d7d565b92506020840135915061523a604085016150df565b803563ffffffff811681146150f057600080fd5b6000602082840312156152f657600080fd5b81356001600160401b038082111561530d57600080fd5b90830190610180828603121561532257600080fd5b61532a614f53565b823581526020830135602082015260408301356040820152606083013560608201526080830135608082015260a083013560a082015260c083013560c082015261537660e084016152d0565b60e082015261010083810135908201526101206153948185016150df565b9082015261014083810135838111156153ac57600080fd5b6153b888828701614fcd565b82840152505061016091506153ce8284016150f5565b91810191909152949350505050565b6060815260006153f06060830186614e1f565b82810360208401526154028186614e1f565b905082810360408401526154168185614e1f565b9695505050505050565b6000806040838503121561543357600080fd5b823561543e81614d7d565b915061544c602084016150f5565b90509250929050565b6040815260006154686040830185614e1f565b828103602084015261547a8185614e1f565b95945050505050565b60006101808e83528d60208401528c60408401528b60608401528a60808401528960a08401528860c084015263ffffffff881660e08401528661010084015260ff8616610120840152806101408401526154df81840186614e1f565b9150508215156101608301529d9c50505050505050505050505050565b6000806000806080858703121561551257600080fd5b843561551d81614d7d565b9350602085013561552d81614d7d565b92506040850135915060608501356001600160401b0381111561554f57600080fd5b61555b87828801614fcd565b91505092959194509250565b60006001600160401b0382111561558057615580614f15565b5060051b60200190565b6000806040838503121561559d57600080fd5b823591506020808401356001600160401b038111156155bb57600080fd5b8401601f810186136155cc57600080fd5b80356155da614fec82615567565b81815260059190911b820183019083810190888311156155f957600080fd5b928401925b82841015615617578335825292840192908401906155fe565b80955050505050509250929050565b60088110611c6d57600080fd5b6000806040838503121561564657600080fd5b82359150602083013561565881615626565b809150509250929050565b6020815281516020820152602082015160408201526040820151606082015260608201516080820152608082015160a082015260a082015160c082015260c082015160e0820152600060e08301516101006156c58185018363ffffffff169052565b8401516101208481019190915284015190506101406156e88185018360ff169052565b8085015191505061018061016081818601526157086101a0860184614e1f565b95015115159301929092525090919050565b6000806040838503121561572d57600080fd5b823561573881614d7d565b9150602083013561565881614d7d565b6000806000806080858703121561575e57600080fd5b8435935060208501356001600160401b038082111561577c57600080fd5b61578888838901614fcd565b9450604087013591508082111561579e57600080fd5b6157aa88838901614fcd565b935060608701359150808211156157c057600080fd5b5061555b87828801614fcd565b600181811c908216806157e157607f821691505b60208210810361580157634e487b7160e01b600052602260045260246000fd5b50919050565b6000615815614fec84614fa6565b905082815283838301111561582957600080fd5b612ac4836020830184614dfb565b600082601f83011261584857600080fd5b612ac483835160208501615807565b60006020828403121561586957600080fd5b81516001600160401b0381111561587f57600080fd5b61284284828501615837565b6020808252602e908201527f4552433732313a2063616c6c6572206973206e6f7420746f6b656e206f776e6560408201526d1c881b9bdc88185c1c1c9bdd995960921b606082015260800190565b6000602082840312156158eb57600080fd5b8151612ac481615626565b634e487b7160e01b600052602160045260246000fd5b60008060006060848603121561592157600080fd5b83516001600160401b038082111561593857600080fd5b61594487838801615837565b9450602086015191508082111561595a57600080fd5b818601915086601f83011261596e57600080fd5b61597d87835160208501615807565b9350604086015191508082111561599357600080fd5b506159a086828701615837565b9150509250925092565b600083516159bc818460208801614dfb565b8351908301906159d0818360208801614dfb565b01949350505050565b634e487b7160e01b600052603260045260246000fd5b601f8211156115da576000816000526020600020601f850160051c81016020861015615a185750805b601f850160051c820191505b8181101561362057828155600101615a24565b81516001600160401b03811115615a5057615a50614f15565b615a6481615a5e84546157cd565b846159ef565b602080601f831160018114615a995760008415615a815750858301515b600019600386901b1c1916600185901b178555613620565b600085815260208120601f198616915b82811015615ac857888601518255948401946001909101908401615aa9565b5085821015615ae65787850151600019600388901b60f8161c191681555b5050505050600190811b01905550565b6001600160a01b0384168152602081018390526060810160088310615b2b57634e487b7160e01b600052602160045260246000fd5b826040830152949350505050565b600060208284031215615b4b57600080fd5b8151612ac481614d7d565b634e487b7160e01b600052601160045260246000fd5b8082018082111561119757611197615b56565b60008154615b8c816157cd565b808552602060018381168015615ba95760018114615bc357615bf1565b60ff1985168884015283151560051b880183019550615bf1565b866000528260002060005b85811015615be95781548a8201860152908301908401615bce565b890184019650505b505050505092915050565b602081526000612ac46020830184615b7f565b604081526009604082015268426f6479205479706560b81b6060820152608060208201526000612ac46080830184615b7f565b60006020808385031215615c5557600080fd5b82516001600160401b03811115615c6b57600080fd5b8301601f81018513615c7c57600080fd5b8051615c8a614fec82615567565b81815260059190911b82018301908381019087831115615ca957600080fd5b928401925b82841015614ec957835182529284019290840190615cae565b808202811582820484141761119757611197615b56565b6000815160808452615cf36080850182614e1f565b90506020808401518583036020870152615d0d8382614e1f565b9250506040840151604086015260608401518583036060870152828390506040840160005b6002811015615d5d578582038352615d4b828551614e1f565b93850193928501929150600101615d32565b50979650505050505050565b86815260c060208201526000615d8260c0830188614e1f565b8281036040840152615d948188614e1f565b90508281036060840152615da88187614e1f565b90508281036080840152615dbc8186614e1f565b905082810360a0840152615dd08185615cde565b9998505050505050505050565b60008060408385031215615df057600080fd5b82516001600160401b0380821115615e0757600080fd5b615e1386838701615837565b93506020850151915080821115615e2957600080fd5b50615e3685828601615837565b9150509250929050565b8181038181111561119757611197615b56565b634e487b7160e01b600052601260045260246000fd5b60208082526032908201527f4552433732313a207472616e7366657220746f206e6f6e20455243373231526560408201527131b2b4bb32b91034b6b83632b6b2b73a32b960711b606082015260800190565b8281526040602082015260006128426040830184615243565b6001600160a01b038581168252841660208201526040810183905260806060820181905260009061541690830184614e1f565b600060208284031215615f1957600080fd5b8151612ac481614daf565b634e487b7160e01b600052603160045260246000fdfec94c1c47471ed97c1d309bab965192a3e4be3807f42d015b699bfbdcf24dd9f6a26469706673582212209ceaa471562674d3eaff35dabe095c1b1539504c943e23ee6239b814d8c4b35564736f6c63430008160033","linkReferences":{}},"methodIdentifiers":{"_debugPostConstructorMint()":"9c7be2f1","addNewBody(uint256,string,bytes,bytes)":"f2361e23","approve(address,uint256)":"095ea7b3","balanceOf(address)":"70a08231","bodyIndexToMetadata(uint256)":"0c83f9d7","cancelOwnershipHandover()":"54d1f13d","checkIfTraitIsEquipped(uint256,uint256)":"8aa1e4c8","chonkEquipHelper()":"75676db8","chonkIdToApprovedOperators(uint256,uint256)":"55737f35","chonkTokens(uint256)":"b45d0316","collectionsAddressDidUse(address)":"1e8ff18f","collectionsMerkle()":"80d833f1","completeOwnershipHandover(address)":"f04e283e","creatorsAddressDidUse(address)":"59d591d0","creatorsMerkle()":"a1531780","deploymentTime()":"ecda10f5","equip(uint256,uint256)":"28257532","equipAll(uint256,uint256,uint256,uint256,uint256,uint256,uint256,uint256)":"4a4333a3","firstReleaseDataMinter()":"fd8b66de","friendsAddressDidUse(address)":"be7ff59a","friendsMerkle()":"fc863e64","getApproved(uint256)":"081812fc","getBackpackSVGs(uint256)":"14fe8ff4","getBodyImageSvg(uint256)":"916c546b","getBodySVGZmapsAndMetadata((uint256,uint256,uint256,uint256,uint256,uint256,uint256,uint32,uint256,uint8,string,bool))":"92012f08","getBodySvgAndMetadata((uint256,uint256,uint256,uint256,uint256,uint256,uint256,uint32,uint256,uint8,string,bool))":"a23830ae","getBodyZMap(uint256)":"306c7334","getChonk(uint256)":"d3d6873e","getChonkIdForTBAAddress(address)":"8472cbca","getChonkIdToApprovedOperators(uint256)":"67d2afe2","getChonkZMap(uint256)":"32875aa0","getFullPictureForTrait(uint256)":"66704349","getOwnerAndTBAAddressForChonkId(uint256)":"04003bd0","getTBAAddressForChonkId(uint256)":"f6a0c932","getTraitsForChonkId(uint256)":"9f6e4637","initialMintStartTime()":"b91fdc8c","isApprovedForAll(address,address)":"e985e9c5","isTimelocked()":"50b03146","mainRenderer2D()":"f4bec0b6","mainRenderer3D()":"b66ef6e3","marketplace()":"abc8c7af","maxTraitsToOutput()":"e3d21555","mint(uint256,bytes32[])":"ba41b0c6","name()":"06fdde03","nextTokenId()":"75794a3c","oneYearFromDeployment()":"d59752eb","owner()":"8da5cb5b","ownerOf(uint256)":"6352211e","ownershipHandoverExpiresAt(address)":"fee81cf4","price()":"a035b1fe","renderAsDataUri(uint256)":"a1d62680","renderAsDataUri2D(uint256)":"f3f8efb9","renderAsDataUri3D(uint256)":"dceef0ec","renounceOwnership()":"715018a6","requestOwnershipHandover()":"25692962","safeTransferFrom(address,address,uint256)":"42842e0e","safeTransferFrom(address,address,uint256,bytes)":"b88d4fde","setApprovalForAll(address,bool)":"a22cb465","setApprovalForAllChonksMarketplace(uint256,address,bool)":"550ab247","setChonkAttributes(uint256,string,uint8,bool)":"343b4887","setChonkEquipHelper(address)":"0a99a350","setCollectionsMerkle(bytes32)":"8d2a2f11","setCreatorsMerkle(bytes32)":"b194b6f1","setDescriptionParts(string[2])":"26f2052a","setFirstReleaseDataMinter(address)":"b84b160d","setFriendsMerkleRoot(bytes32)":"9eb2660c","setMainRenderer2D(address)":"7e2e6c47","setMainRenderer3D(address)":"00179206","setMarketplace(address)":"73ad6c2d","setMaxTraitsToOutput(uint256)":"33d3d9bf","setMintStartTime(uint256)":"d5b3621b","setPrice(uint256)":"91b7f5ed","setTraitsContract(address)":"5eabd84a","setWithdrawAddress(address)":"3ab1a494","supportsInterface(bytes4)":"01ffc9a7","symbol()":"95d89b41","tbaAddressToTokenId(address)":"a4bf9a00","teamMint(address,uint256,uint8)":"6e51665f","teamReserve()":"4287f14a","tokenByIndex(uint256)":"4f6ccce7","tokenIdToTBAAccountAddress(uint256)":"9c05d68d","tokenOfOwnerByIndex(address,uint256)":"2f745c59","tokenURI(uint256)":"c87b56dd","totalSupply()":"18160ddd","traitsContract()":"c093afdb","transferFrom(address,address,uint256)":"23b872dd","transferOwnership(address)":"f2fde38b","unequip(uint256,uint8)":"cdb6dd5c","unequipAll(uint256)":"3044825b","walletOfOwner(address)":"438b6300","withdraw()":"3ccfd60b","withdrawAddress()":"1581b600"},"id":43}