{"abi":[{"type":"constructor","inputs":[{"name":"localDeploy_","type":"bool","internalType":"bool"}],"stateMutability":"nonpayable"},{"type":"function","name":"_debugPostConstructorMint","inputs":[],"outputs":[],"stateMutability":"nonpayable"},{"type":"function","name":"_nextTokenId","inputs":[],"outputs":[{"name":"","type":"uint256","internalType":"uint256"}],"stateMutability":"view"},{"type":"function","name":"addNewBody","inputs":[{"name":"_bodyIndex","type":"uint256","internalType":"uint256"},{"name":"_bodyName","type":"string","internalType":"string"},{"name":"_colorMap","type":"bytes","internalType":"bytes"},{"name":"_zMap","type":"bytes","internalType":"bytes"}],"outputs":[],"stateMutability":"nonpayable"},{"type":"function","name":"approve","inputs":[{"name":"_operator","type":"address","internalType":"address"},{"name":"_chonkId","type":"uint256","internalType":"uint256"}],"outputs":[],"stateMutability":"nonpayable"},{"type":"function","name":"balanceOf","inputs":[{"name":"owner","type":"address","internalType":"address"}],"outputs":[{"name":"","type":"uint256","internalType":"uint256"}],"stateMutability":"view"},{"type":"function","name":"bodyIndexToMetadata","inputs":[{"name":"","type":"uint256","internalType":"uint256"}],"outputs":[{"name":"bodyIndex","type":"uint256","internalType":"uint256"},{"name":"bodyName","type":"string","internalType":"string"},{"name":"colorMap","type":"bytes","internalType":"bytes"},{"name":"zMap","type":"bytes","internalType":"bytes"}],"stateMutability":"view"},{"type":"function","name":"cancelOwnershipHandover","inputs":[],"outputs":[],"stateMutability":"payable"},{"type":"function","name":"checkIfTraitIsEquipped","inputs":[{"name":"_chonkId","type":"uint256","internalType":"uint256"},{"name":"_traitId","type":"uint256","internalType":"uint256"}],"outputs":[{"name":"","type":"bool","internalType":"bool"}],"stateMutability":"view"},{"type":"function","name":"chonkIdToApprovedOperators","inputs":[{"name":"chonkId","type":"uint256","internalType":"uint256"},{"name":"","type":"uint256","internalType":"uint256"}],"outputs":[{"name":"operators","type":"address","internalType":"address"}],"stateMutability":"view"},{"type":"function","name":"chonkMakeover","inputs":[{"name":"_chonkTokenId","type":"uint256","internalType":"uint256"},{"name":"_headTokenId","type":"uint256","internalType":"uint256"},{"name":"_hairTokenId","type":"uint256","internalType":"uint256"},{"name":"_faceTokenId","type":"uint256","internalType":"uint256"},{"name":"_accessoryTokenId","type":"uint256","internalType":"uint256"},{"name":"_topTokenId","type":"uint256","internalType":"uint256"},{"name":"_bottomTokenId","type":"uint256","internalType":"uint256"},{"name":"_shoesTokenId","type":"uint256","internalType":"uint256"},{"name":"_bodyIndex","type":"uint8","internalType":"uint8"},{"name":"_backgroundColor","type":"string","internalType":"string"}],"outputs":[],"stateMutability":"nonpayable"},{"type":"function","name":"chonksCreatorListMerkleRoot","inputs":[],"outputs":[{"name":"","type":"bytes32","internalType":"bytes32"}],"stateMutability":"view"},{"type":"function","name":"completeOwnershipHandover","inputs":[{"name":"pendingOwner","type":"address","internalType":"address"}],"outputs":[],"stateMutability":"payable"},{"type":"function","name":"equip","inputs":[{"name":"_chonkTokenId","type":"uint256","internalType":"uint256"},{"name":"_traitTokenId","type":"uint256","internalType":"uint256"}],"outputs":[],"stateMutability":"nonpayable"},{"type":"function","name":"equipAll","inputs":[{"name":"_chonkTokenId","type":"uint256","internalType":"uint256"},{"name":"_headTokenId","type":"uint256","internalType":"uint256"},{"name":"_hairTokenId","type":"uint256","internalType":"uint256"},{"name":"_faceTokenId","type":"uint256","internalType":"uint256"},{"name":"_accessoryTokenId","type":"uint256","internalType":"uint256"},{"name":"_topTokenId","type":"uint256","internalType":"uint256"},{"name":"_bottomTokenId","type":"uint256","internalType":"uint256"},{"name":"_shoesTokenId","type":"uint256","internalType":"uint256"}],"outputs":[],"stateMutability":"nonpayable"},{"type":"function","name":"firstSeasonRenderMinter","inputs":[],"outputs":[{"name":"","type":"address","internalType":"contract FirstSeasonRenderMinter"}],"stateMutability":"view"},{"type":"function","name":"friendsListMerkleRoot","inputs":[],"outputs":[{"name":"","type":"bytes32","internalType":"bytes32"}],"stateMutability":"view"},{"type":"function","name":"getApproved","inputs":[{"name":"tokenId","type":"uint256","internalType":"uint256"}],"outputs":[{"name":"","type":"address","internalType":"address"}],"stateMutability":"view"},{"type":"function","name":"getBackpackSVGs","inputs":[{"name":"_tokenId","type":"uint256","internalType":"uint256"}],"outputs":[{"name":"","type":"string","internalType":"string"}],"stateMutability":"view"},{"type":"function","name":"getBodyImageSvg","inputs":[{"name":"_index","type":"uint256","internalType":"uint256"}],"outputs":[{"name":"svg","type":"string","internalType":"string"}],"stateMutability":"view"},{"type":"function","name":"getBodySVGZmapsAndMetadata","inputs":[{"name":"storedChonk","type":"tuple","internalType":"struct IChonkStorage.StoredChonk","components":[{"name":"headId","type":"uint256","internalType":"uint256"},{"name":"hairId","type":"uint256","internalType":"uint256"},{"name":"faceId","type":"uint256","internalType":"uint256"},{"name":"accessoryId","type":"uint256","internalType":"uint256"},{"name":"topId","type":"uint256","internalType":"uint256"},{"name":"bottomId","type":"uint256","internalType":"uint256"},{"name":"shoesId","type":"uint256","internalType":"uint256"},{"name":"epoch","type":"uint32","internalType":"uint32"},{"name":"tokenId","type":"uint256","internalType":"uint256"},{"name":"bodyIndex","type":"uint8","internalType":"uint8"},{"name":"backgroundColor","type":"string","internalType":"string"},{"name":"render3D","type":"bool","internalType":"bool"}]}],"outputs":[{"name":"","type":"string","internalType":"string"},{"name":"","type":"bytes","internalType":"bytes"},{"name":"","type":"string","internalType":"string"}],"stateMutability":"view"},{"type":"function","name":"getBodySvgAndMetadata","inputs":[{"name":"storedChonk","type":"tuple","internalType":"struct IChonkStorage.StoredChonk","components":[{"name":"headId","type":"uint256","internalType":"uint256"},{"name":"hairId","type":"uint256","internalType":"uint256"},{"name":"faceId","type":"uint256","internalType":"uint256"},{"name":"accessoryId","type":"uint256","internalType":"uint256"},{"name":"topId","type":"uint256","internalType":"uint256"},{"name":"bottomId","type":"uint256","internalType":"uint256"},{"name":"shoesId","type":"uint256","internalType":"uint256"},{"name":"epoch","type":"uint32","internalType":"uint32"},{"name":"tokenId","type":"uint256","internalType":"uint256"},{"name":"bodyIndex","type":"uint8","internalType":"uint8"},{"name":"backgroundColor","type":"string","internalType":"string"},{"name":"render3D","type":"bool","internalType":"bool"}]}],"outputs":[{"name":"","type":"string","internalType":"string"},{"name":"","type":"string","internalType":"string"}],"stateMutability":"view"},{"type":"function","name":"getBodyZMap","inputs":[{"name":"_tokenId","type":"uint256","internalType":"uint256"}],"outputs":[{"name":"","type":"string","internalType":"string"}],"stateMutability":"view"},{"type":"function","name":"getChonk","inputs":[{"name":"_tokenId","type":"uint256","internalType":"uint256"}],"outputs":[{"name":"","type":"tuple","internalType":"struct IChonkStorage.StoredChonk","components":[{"name":"headId","type":"uint256","internalType":"uint256"},{"name":"hairId","type":"uint256","internalType":"uint256"},{"name":"faceId","type":"uint256","internalType":"uint256"},{"name":"accessoryId","type":"uint256","internalType":"uint256"},{"name":"topId","type":"uint256","internalType":"uint256"},{"name":"bottomId","type":"uint256","internalType":"uint256"},{"name":"shoesId","type":"uint256","internalType":"uint256"},{"name":"epoch","type":"uint32","internalType":"uint32"},{"name":"tokenId","type":"uint256","internalType":"uint256"},{"name":"bodyIndex","type":"uint8","internalType":"uint8"},{"name":"backgroundColor","type":"string","internalType":"string"},{"name":"render3D","type":"bool","internalType":"bool"}]}],"stateMutability":"view"},{"type":"function","name":"getChonkIdForTBAAddress","inputs":[{"name":"_tbaAddress","type":"address","internalType":"address"}],"outputs":[{"name":"","type":"uint256","internalType":"uint256"}],"stateMutability":"view"},{"type":"function","name":"getChonkIdToApprovedOperators","inputs":[{"name":"_chonkId","type":"uint256","internalType":"uint256"}],"outputs":[{"name":"","type":"address[]","internalType":"address[]"}],"stateMutability":"view"},{"type":"function","name":"getChonkZMap","inputs":[{"name":"_tokenId","type":"uint256","internalType":"uint256"}],"outputs":[{"name":"","type":"string","internalType":"string"}],"stateMutability":"view"},{"type":"function","name":"getFullPictureForTrait","inputs":[{"name":"_chonkTraitTokenId","type":"uint256","internalType":"uint256"}],"outputs":[{"name":"traitOwnerTBA","type":"address","internalType":"address"},{"name":"chonkTokenId","type":"uint256","internalType":"uint256"},{"name":"chonkOwner","type":"address","internalType":"address"},{"name":"isEquipped","type":"bool","internalType":"bool"}],"stateMutability":"view"},{"type":"function","name":"getOwnerAndTBAAddressForChonkId","inputs":[{"name":"_chonkId","type":"uint256","internalType":"uint256"}],"outputs":[{"name":"owner","type":"address","internalType":"address"},{"name":"tbaAddress","type":"address","internalType":"address"}],"stateMutability":"view"},{"type":"function","name":"getTBAAddressForChonkId","inputs":[{"name":"_chonkId","type":"uint256","internalType":"uint256"}],"outputs":[{"name":"","type":"address","internalType":"address"}],"stateMutability":"view"},{"type":"function","name":"getTokenRenderZ","inputs":[{"name":"_chonkTokenId","type":"uint256","internalType":"uint256"}],"outputs":[{"name":"","type":"bool","internalType":"bool"}],"stateMutability":"view"},{"type":"function","name":"getTraitTokens","inputs":[{"name":"_tbaAddress","type":"address","internalType":"address"}],"outputs":[{"name":"","type":"uint256[]","internalType":"uint256[]"}],"stateMutability":"view"},{"type":"function","name":"getTraitsForChonkId","inputs":[{"name":"_chonkId","type":"uint256","internalType":"uint256"}],"outputs":[{"name":"traitTokens","type":"uint256[]","internalType":"uint256[]"}],"stateMutability":"view"},{"type":"function","name":"isApprovedForAll","inputs":[{"name":"owner","type":"address","internalType":"address"},{"name":"operator","type":"address","internalType":"address"}],"outputs":[{"name":"","type":"bool","internalType":"bool"}],"stateMutability":"view"},{"type":"function","name":"mainRenderer2D","inputs":[],"outputs":[{"name":"","type":"address","internalType":"contract MainRenderer2D"}],"stateMutability":"view"},{"type":"function","name":"mainRenderer3D","inputs":[],"outputs":[{"name":"","type":"address","internalType":"contract MainRenderer3D"}],"stateMutability":"view"},{"type":"function","name":"marketplace","inputs":[],"outputs":[{"name":"","type":"address","internalType":"contract ChonksMarket"}],"stateMutability":"view"},{"type":"function","name":"maxTraitsToOutput","inputs":[],"outputs":[{"name":"","type":"uint256","internalType":"uint256"}],"stateMutability":"view"},{"type":"function","name":"mint","inputs":[{"name":"_amount","type":"uint256","internalType":"uint256"},{"name":"_merkleProof","type":"bytes32[]","internalType":"bytes32[]"}],"outputs":[],"stateMutability":"payable"},{"type":"function","name":"mintStartTime","inputs":[],"outputs":[{"name":"","type":"uint256","internalType":"uint256"}],"stateMutability":"view"},{"type":"function","name":"name","inputs":[],"outputs":[{"name":"","type":"string","internalType":"string"}],"stateMutability":"view"},{"type":"function","name":"owner","inputs":[],"outputs":[{"name":"result","type":"address","internalType":"address"}],"stateMutability":"view"},{"type":"function","name":"ownerOf","inputs":[{"name":"tokenId","type":"uint256","internalType":"uint256"}],"outputs":[{"name":"","type":"address","internalType":"address"}],"stateMutability":"view"},{"type":"function","name":"ownershipHandoverExpiresAt","inputs":[{"name":"pendingOwner","type":"address","internalType":"address"}],"outputs":[{"name":"result","type":"uint256","internalType":"uint256"}],"stateMutability":"view"},{"type":"function","name":"price","inputs":[],"outputs":[{"name":"","type":"uint256","internalType":"uint256"}],"stateMutability":"view"},{"type":"function","name":"renderAsDataUri","inputs":[{"name":"_tokenId","type":"uint256","internalType":"uint256"}],"outputs":[{"name":"","type":"string","internalType":"string"}],"stateMutability":"view"},{"type":"function","name":"renderAsDataUri2D","inputs":[{"name":"_tokenId","type":"uint256","internalType":"uint256"}],"outputs":[{"name":"","type":"string","internalType":"string"}],"stateMutability":"view"},{"type":"function","name":"renderAsDataUri3D","inputs":[{"name":"_tokenId","type":"uint256","internalType":"uint256"}],"outputs":[{"name":"","type":"string","internalType":"string"}],"stateMutability":"view"},{"type":"function","name":"renounceOwnership","inputs":[],"outputs":[],"stateMutability":"payable"},{"type":"function","name":"requestOwnershipHandover","inputs":[],"outputs":[],"stateMutability":"payable"},{"type":"function","name":"safeTransferFrom","inputs":[{"name":"from","type":"address","internalType":"address"},{"name":"to","type":"address","internalType":"address"},{"name":"tokenId","type":"uint256","internalType":"uint256"}],"outputs":[],"stateMutability":"nonpayable"},{"type":"function","name":"safeTransferFrom","inputs":[{"name":"from","type":"address","internalType":"address"},{"name":"to","type":"address","internalType":"address"},{"name":"tokenId","type":"uint256","internalType":"uint256"},{"name":"data","type":"bytes","internalType":"bytes"}],"outputs":[],"stateMutability":"nonpayable"},{"type":"function","name":"setApprovalForAll","inputs":[{"name":"_operator","type":"address","internalType":"address"},{"name":"_approved","type":"bool","internalType":"bool"}],"outputs":[],"stateMutability":"nonpayable"},{"type":"function","name":"setApprovalForAllChonksMarketplace","inputs":[{"name":"_chonkId","type":"uint256","internalType":"uint256"},{"name":"_operator","type":"address","internalType":"address"},{"name":"_approved","type":"bool","internalType":"bool"}],"outputs":[],"stateMutability":"nonpayable"},{"type":"function","name":"setBackgroundColor","inputs":[{"name":"_chonkTokenId","type":"uint256","internalType":"uint256"},{"name":"_color","type":"string","internalType":"string"}],"outputs":[],"stateMutability":"nonpayable"},{"type":"function","name":"setBodyIndex","inputs":[{"name":"_chonkTokenId","type":"uint256","internalType":"uint256"},{"name":"_bodyIndex","type":"uint8","internalType":"uint8"}],"outputs":[],"stateMutability":"nonpayable"},{"type":"function","name":"setChonksCreatorListMerkleRoot","inputs":[{"name":"_merkleRoot","type":"bytes32","internalType":"bytes32"}],"outputs":[],"stateMutability":"nonpayable"},{"type":"function","name":"setFirstSeasonRenderMinter","inputs":[{"name":"_dataContract","type":"address","internalType":"address"}],"outputs":[],"stateMutability":"nonpayable"},{"type":"function","name":"setFriendsListMerkleRoot","inputs":[{"name":"_merkleRoot","type":"bytes32","internalType":"bytes32"}],"outputs":[],"stateMutability":"nonpayable"},{"type":"function","name":"setMainRenderer2D","inputs":[{"name":"_mainRenderer2D","type":"address","internalType":"address"}],"outputs":[],"stateMutability":"nonpayable"},{"type":"function","name":"setMainRenderer3D","inputs":[{"name":"_mainRenderer3D","type":"address","internalType":"address"}],"outputs":[],"stateMutability":"nonpayable"},{"type":"function","name":"setMarketplace","inputs":[{"name":"_marketplace","type":"address","internalType":"address"}],"outputs":[],"stateMutability":"nonpayable"},{"type":"function","name":"setMaxTraitsToOutput","inputs":[{"name":"_maxTraitsToOutput","type":"uint256","internalType":"uint256"}],"outputs":[],"stateMutability":"nonpayable"},{"type":"function","name":"setMintStartTime","inputs":[{"name":"_mintStartTime","type":"uint256","internalType":"uint256"}],"outputs":[],"stateMutability":"nonpayable"},{"type":"function","name":"setPrice","inputs":[{"name":"_priceInWei","type":"uint256","internalType":"uint256"}],"outputs":[],"stateMutability":"nonpayable"},{"type":"function","name":"setSpecialCollectionMerkleRoot","inputs":[{"name":"_merkleRoot","type":"bytes32","internalType":"bytes32"}],"outputs":[],"stateMutability":"nonpayable"},{"type":"function","name":"setTokenRender3D","inputs":[{"name":"_chonkTokenId","type":"uint256","internalType":"uint256"},{"name":"_render3D","type":"bool","internalType":"bool"}],"outputs":[],"stateMutability":"nonpayable"},{"type":"function","name":"setTraitsContract","inputs":[{"name":"_address","type":"address","internalType":"contract ChonkTraits"}],"outputs":[],"stateMutability":"nonpayable"},{"type":"function","name":"setWithdrawAddress","inputs":[{"name":"_withdrawAddress","type":"address","internalType":"address"}],"outputs":[],"stateMutability":"nonpayable"},{"type":"function","name":"specialCollectionMerkleRoot","inputs":[],"outputs":[{"name":"","type":"bytes32","internalType":"bytes32"}],"stateMutability":"view"},{"type":"function","name":"supportsInterface","inputs":[{"name":"interfaceId","type":"bytes4","internalType":"bytes4"}],"outputs":[{"name":"","type":"bool","internalType":"bool"}],"stateMutability":"view"},{"type":"function","name":"symbol","inputs":[],"outputs":[{"name":"","type":"string","internalType":"string"}],"stateMutability":"view"},{"type":"function","name":"tbaAddressToTokenId","inputs":[{"name":"","type":"address","internalType":"address"}],"outputs":[{"name":"","type":"uint256","internalType":"uint256"}],"stateMutability":"view"},{"type":"function","name":"teamMint","inputs":[{"name":"_to","type":"address","internalType":"address"},{"name":"_amount","type":"uint256","internalType":"uint256"}],"outputs":[],"stateMutability":"nonpayable"},{"type":"function","name":"tokenByIndex","inputs":[{"name":"index","type":"uint256","internalType":"uint256"}],"outputs":[{"name":"","type":"uint256","internalType":"uint256"}],"stateMutability":"view"},{"type":"function","name":"tokenIdToTBAAccountAddress","inputs":[{"name":"","type":"uint256","internalType":"uint256"}],"outputs":[{"name":"","type":"address","internalType":"address"}],"stateMutability":"view"},{"type":"function","name":"tokenOfOwnerByIndex","inputs":[{"name":"owner","type":"address","internalType":"address"},{"name":"index","type":"uint256","internalType":"uint256"}],"outputs":[{"name":"","type":"uint256","internalType":"uint256"}],"stateMutability":"view"},{"type":"function","name":"tokenURI","inputs":[{"name":"_tokenId","type":"uint256","internalType":"uint256"}],"outputs":[{"name":"","type":"string","internalType":"string"}],"stateMutability":"view"},{"type":"function","name":"totalSupply","inputs":[],"outputs":[{"name":"","type":"uint256","internalType":"uint256"}],"stateMutability":"view"},{"type":"function","name":"traitsContract","inputs":[],"outputs":[{"name":"","type":"address","internalType":"contract ChonkTraits"}],"stateMutability":"view"},{"type":"function","name":"transferFrom","inputs":[{"name":"from","type":"address","internalType":"address"},{"name":"to","type":"address","internalType":"address"},{"name":"tokenId","type":"uint256","internalType":"uint256"}],"outputs":[],"stateMutability":"nonpayable"},{"type":"function","name":"transferOwnership","inputs":[{"name":"newOwner","type":"address","internalType":"address"}],"outputs":[],"stateMutability":"payable"},{"type":"function","name":"unequip","inputs":[{"name":"_chonkTokenId","type":"uint256","internalType":"uint256"},{"name":"traitType","type":"uint8","internalType":"enum TraitCategory.Name"}],"outputs":[],"stateMutability":"nonpayable"},{"type":"function","name":"unequipAll","inputs":[{"name":"_chonkTokenId","type":"uint256","internalType":"uint256"}],"outputs":[],"stateMutability":"nonpayable"},{"type":"function","name":"walletOfOwner","inputs":[{"name":"_owner","type":"address","internalType":"address"}],"outputs":[{"name":"","type":"uint256[]","internalType":"uint256[]"}],"stateMutability":"view"},{"type":"function","name":"withdraw","inputs":[],"outputs":[],"stateMutability":"nonpayable"},{"type":"function","name":"withdrawAddress","inputs":[],"outputs":[{"name":"","type":"address","internalType":"address"}],"stateMutability":"view"},{"type":"event","name":"Approval","inputs":[{"name":"owner","type":"address","indexed":true,"internalType":"address"},{"name":"approved","type":"address","indexed":true,"internalType":"address"},{"name":"tokenId","type":"uint256","indexed":true,"internalType":"uint256"}],"anonymous":false},{"type":"event","name":"ApprovalForAll","inputs":[{"name":"owner","type":"address","indexed":true,"internalType":"address"},{"name":"operator","type":"address","indexed":true,"internalType":"address"},{"name":"approved","type":"bool","indexed":false,"internalType":"bool"}],"anonymous":false},{"type":"event","name":"BackgroundColor","inputs":[{"name":"owner","type":"address","indexed":true,"internalType":"address"},{"name":"tokenId","type":"uint256","indexed":true,"internalType":"uint256"},{"name":"color","type":"string","indexed":false,"internalType":"string"}],"anonymous":false},{"type":"event","name":"BatchMetadataUpdate","inputs":[{"name":"_fromTokenId","type":"uint256","indexed":false,"internalType":"uint256"},{"name":"_toTokenId","type":"uint256","indexed":false,"internalType":"uint256"}],"anonymous":false},{"type":"event","name":"BodyIndex","inputs":[{"name":"owner","type":"address","indexed":true,"internalType":"address"},{"name":"tokenId","type":"uint256","indexed":true,"internalType":"uint256"},{"name":"_bodyIndex","type":"uint8","indexed":false,"internalType":"uint8"}],"anonymous":false},{"type":"event","name":"Equip","inputs":[{"name":"owner","type":"address","indexed":true,"internalType":"address"},{"name":"tokenId","type":"uint256","indexed":true,"internalType":"uint256"},{"name":"traitTokenId","type":"uint256","indexed":true,"internalType":"uint256"},{"name":"traitCategory","type":"uint8","indexed":false,"internalType":"uint8"}],"anonymous":false},{"type":"event","name":"EquipAll","inputs":[{"name":"owner","type":"address","indexed":true,"internalType":"address"},{"name":"tokenId","type":"uint256","indexed":true,"internalType":"uint256"}],"anonymous":false},{"type":"event","name":"MetadataUpdate","inputs":[{"name":"_tokenId","type":"uint256","indexed":false,"internalType":"uint256"}],"anonymous":false},{"type":"event","name":"Mint","inputs":[{"name":"owner","type":"address","indexed":true,"internalType":"address"},{"name":"tokenId","type":"uint256","indexed":true,"internalType":"uint256"}],"anonymous":false},{"type":"event","name":"OwnershipHandoverCanceled","inputs":[{"name":"pendingOwner","type":"address","indexed":true,"internalType":"address"}],"anonymous":false},{"type":"event","name":"OwnershipHandoverRequested","inputs":[{"name":"pendingOwner","type":"address","indexed":true,"internalType":"address"}],"anonymous":false},{"type":"event","name":"OwnershipTransferred","inputs":[{"name":"oldOwner","type":"address","indexed":true,"internalType":"address"},{"name":"newOwner","type":"address","indexed":true,"internalType":"address"}],"anonymous":false},{"type":"event","name":"Render3D","inputs":[{"name":"owner","type":"address","indexed":true,"internalType":"address"},{"name":"tokenId","type":"uint256","indexed":true,"internalType":"uint256"},{"name":"renderZ","type":"bool","indexed":false,"internalType":"bool"}],"anonymous":false},{"type":"event","name":"Transfer","inputs":[{"name":"from","type":"address","indexed":true,"internalType":"address"},{"name":"to","type":"address","indexed":true,"internalType":"address"},{"name":"tokenId","type":"uint256","indexed":true,"internalType":"uint256"}],"anonymous":false},{"type":"event","name":"Unequip","inputs":[{"name":"owner","type":"address","indexed":true,"internalType":"address"},{"name":"tokenId","type":"uint256","indexed":true,"internalType":"uint256"},{"name":"traitCategory","type":"uint8","indexed":false,"internalType":"uint8"}],"anonymous":false},{"type":"event","name":"UnequipAll","inputs":[{"name":"owner","type":"address","indexed":true,"internalType":"address"},{"name":"tokenId","type":"uint256","indexed":true,"internalType":"uint256"}],"anonymous":false},{"type":"error","name":"AlreadyInitialized","inputs":[]},{"type":"error","name":"BodyAlreadyExists","inputs":[]},{"type":"error","name":"CantBeZero","inputs":[]},{"type":"error","name":"CantTransfer","inputs":[]},{"type":"error","name":"CantTransferToTBAs","inputs":[]},{"type":"error","name":"ChonkDoesntExist","inputs":[]},{"type":"error","name":"FirstSeasonRenderMinterNotSet","inputs":[]},{"type":"error","name":"IncorrectChonkOwner","inputs":[]},{"type":"error","name":"IncorrectTBAOwner","inputs":[]},{"type":"error","name":"IncorrectTraitType","inputs":[]},{"type":"error","name":"InsufficientFunds","inputs":[]},{"type":"error","name":"InvalidBodyIndex","inputs":[]},{"type":"error","name":"InvalidColor","inputs":[]},{"type":"error","name":"InvalidLevelAmount","inputs":[]},{"type":"error","name":"InvalidSignature","inputs":[]},{"type":"error","name":"MintEnded","inputs":[]},{"type":"error","name":"MintNotStarted","inputs":[]},{"type":"error","name":"NewOwnerIsZeroAddress","inputs":[]},{"type":"error","name":"NoHandoverRequest","inputs":[]},{"type":"error","name":"NonceAlreadyUsed","inputs":[]},{"type":"error","name":"ThirtyIsMaxMint","inputs":[]},{"type":"error","name":"Unauthorized","inputs":[]},{"type":"error","name":"UseUnequip","inputs":[]},{"type":"error","name":"WithdrawFailed","inputs":[]},{"type":"error","name":"markaSaysNo","inputs":[]}],"bytecode":{"object":"0x608060405260636015553480156200001657600080fd5b50604051620060e7380380620060e78339810160408190526200003991620000fd565b6040518060400160405280600681526020016543686f6e6b7360d01b8152506040518060400160405280600681526020016543484f4e4b5360d01b8152508160009081620000889190620001cf565b506001620000978282620001cf565b50506001600a5550620000aa33620000c1565b600b805460ff19169115159190911790556200029b565b6001600160a01b0316638b78c6d8198190558060007f8be0079c531659141344cd1fd0a4f28419497f9722a3daafe3b4186f6b6457e08180a350565b6000602082840312156200011057600080fd5b815180151581146200012157600080fd5b9392505050565b634e487b7160e01b600052604160045260246000fd5b600181811c908216806200015357607f821691505b6020821081036200017457634e487b7160e01b600052602260045260246000fd5b50919050565b601f821115620001ca576000816000526020600020601f850160051c81016020861015620001a55750805b601f850160051c820191505b81811015620001c657828155600101620001b1565b5050505b505050565b81516001600160401b03811115620001eb57620001eb62000128565b6200020381620001fc84546200013e565b846200017a565b602080601f8311600181146200023b5760008415620002225750858301515b600019600386901b1c1916600185901b178555620001c6565b600085815260208120601f198616915b828110156200026c578886015182559484019460019091019084016200024b565b50858210156200028b5787850151600019600388901b60f8161c191681555b5050505050600190811b01905550565b615e3c80620002ab6000396000f3fe6080604052600436106104b45760003560e01c80638aa1e4c81161026b578063b99ce71f1161014f578063e1405540116100c1578063f2361e2311610085578063f2361e2314610f37578063f2fde38b14610f57578063f3f8efb914610f6a578063f4bec0b614610f8a578063f6a0c93214610faa578063fee81cf414610fe057600080fd5b8063e140554014610e85578063e29babbb14610ea5578063e3d2155514610ec5578063e985e9c514610edb578063f04e283e14610f2457600080fd5b8063cdb6dd5c11610113578063cdb6dd5c14610dc2578063d3d6873e14610de2578063d5b3621b14610e0f578063d68c4f3214610e2f578063dceef0ec14610e4f578063deab1d3614610e6f57600080fd5b8063b99ce71f14610d2f578063ba41b0c614610d4f578063bef1dfb714610d62578063c093afdb14610d82578063c87b56dd14610da257600080fd5b80639c7be2f1116101e8578063a23830ae116101ac578063a23830ae14610c54578063a4bf9a0014610c82578063abc8c7af14610caf578063add5a4fa14610ccf578063b66ef6e314610cef578063b88d4fde14610d0f57600080fd5b80639c7be2f114610bc95780639f6e463714610bde578063a035b1fe14610bfe578063a1d6268014610c14578063a22cb46514610c3457600080fd5b806392012f081161022f57806392012f0814610b19578063931e2e4914610b4857806395d89b4114610b5e578063998cfb6e14610b735780639c05d68d14610b9357600080fd5b80638aa1e4c814610a8a5780638da5cb5b14610aaa5780638f22475714610ac3578063916c546b14610ad957806391b7f5ed14610af957600080fd5b80633ab1a4941161039d5780635eabd84a1161030f578063715018a6116102d3578063715018a6146109c357806373ad6c2d146109cb5780637684ef0d146109eb5780637e2e6c4714610a015780638200ea5114610a215780638472cbca14610a5457600080fd5b80635eabd84a146108e15780636352211e14610901578063667043491461092157806367d2afe21461097657806370a08231146109a357600080fd5b80634a60f620116103615780634a60f620146108435780634f6ccce71461085957806354d1f13d14610879578063550ab2471461088157806355737f35146108a157806358a97640146108c157600080fd5b80633ab1a494146107a15780633ccfd60b146107c157806342842e0e146107d6578063438b6300146107f65780634a4333a31461082357600080fd5b806318160ddd116104365780632f745c59116103fa5780632f745c59146106e15780633044825b14610701578063306c73341461072157806330f6c5211461074157806332875aa01461076157806333d3d9bf1461078157600080fd5b806318160ddd1461065a5780631ab375121461067957806323b872dd1461069957806325692962146106b957806328257532146106c157600080fd5b8063095ea7b31161047d578063095ea7b3146105aa5780630c83f9d7146105ca57806313ea0ae3146105fa57806314fe8ff41461061a5780631581b6001461063a57600080fd5b8062179206146104b957806301ffc9a7146104db57806304003bd01461051057806306fdde0314610550578063081812fc14610572575b600080fd5b3480156104c557600080fd5b506104d96104d4366004614ce6565b611013565b005b3480156104e757600080fd5b506104fb6104f6366004614d19565b61103d565b60405190151581526020015b60405180910390f35b34801561051c57600080fd5b5061053061052b366004614d36565b61104e565b604080516001600160a01b03938416815292909116602083015201610507565b34801561055c57600080fd5b5061056561107d565b6040516105079190614d9f565b34801561057e57600080fd5b5061059261058d366004614d36565b61110f565b6040516001600160a01b039091168152602001610507565b3480156105b657600080fd5b506104d96105c5366004614db2565b611136565b3480156105d657600080fd5b506105ea6105e5366004614d36565b611187565b6040516105079493929190614dde565b34801561060657600080fd5b50601254610592906001600160a01b031681565b34801561062657600080fd5b50610565610635366004614d36565b611348565b34801561064657600080fd5b50601754610592906001600160a01b031681565b34801561066657600080fd5b506008545b604051908152602001610507565b34801561068557600080fd5b506104d9610694366004614d36565b61158c565b3480156106a557600080fd5b506104d96106b4366004614e28565b611599565b6104d96115d8565b3480156106cd57600080fd5b506104d96106dc366004614e69565b611627565b3480156106ed57600080fd5b5061066b6106fc366004614db2565b611820565b34801561070d57600080fd5b506104d961071c366004614d36565b6118b6565b34801561072d57600080fd5b5061056561073c366004614d36565b611971565b34801561074d57600080fd5b506104d961075c366004614f8d565b611994565b34801561076d57600080fd5b5061056561077c366004614d36565b611a00565b34801561078d57600080fd5b506104d961079c366004614d36565b611ac4565b3480156107ad57600080fd5b506104d96107bc366004614ce6565b611ad1565b3480156107cd57600080fd5b506104d9611afb565b3480156107e257600080fd5b506104d96107f1366004614e28565b611b7a565b34801561080257600080fd5b50610816610811366004614ce6565b611b95565b6040516105079190615029565b34801561082f57600080fd5b506104d961083e36600461506d565b611c2c565b34801561084f57600080fd5b5061066b60165481565b34801561086557600080fd5b5061066b610874366004614d36565b611f94565b6104d9612027565b34801561088d57600080fd5b506104d961089c3660046150d2565b612063565b3480156108ad57600080fd5b506105926108bc366004614e69565b6120b9565b3480156108cd57600080fd5b506104d96108dc366004614ce6565b6120f1565b3480156108ed57600080fd5b506104d96108fc366004614ce6565b61211b565b34801561090d57600080fd5b5061059261091c366004614d36565b612145565b34801561092d57600080fd5b5061094161093c366004614d36565b6121a5565b60405161050794939291906001600160a01b039485168152602081019390935292166040820152901515606082015260800190565b34801561098257600080fd5b50610996610991366004614d36565b612257565b6040516105079190615155565b3480156109af57600080fd5b5061066b6109be366004614ce6565b6122c3565b6104d9612349565b3480156109d757600080fd5b506104d96109e6366004614ce6565b61235d565b3480156109f757600080fd5b5061066b601f5481565b348015610a0d57600080fd5b506104d9610a1c366004614ce6565b612387565b348015610a2d57600080fd5b506104fb610a3c366004614d36565b6000908152600c60205260409020600b015460ff1690565b348015610a6057600080fd5b5061066b610a6f366004614ce6565b6001600160a01b03166000908152601b602052604090205490565b348015610a9657600080fd5b506104fb610aa5366004614e69565b6123b1565b348015610ab657600080fd5b50638b78c6d81954610592565b348015610acf57600080fd5b5061066b601e5481565b348015610ae557600080fd5b50610565610af4366004614d36565b612420565b348015610b0557600080fd5b506104d9610b14366004614d36565b612523565b348015610b2557600080fd5b50610b39610b3436600461517c565b612530565b60405161050793929190615275565b348015610b5457600080fd5b5061066b60195481565b348015610b6a57600080fd5b50610565612681565b348015610b7f57600080fd5b50610816610b8e366004614ce6565b612690565b348015610b9f57600080fd5b50610592610bae366004614d36565b601a602052600090815260409020546001600160a01b031681565b348015610bd557600080fd5b506104d9612706565b348015610bea57600080fd5b50610816610bf9366004614d36565b612733565b348015610c0a57600080fd5b5061066b60185481565b348015610c2057600080fd5b50610565610c2f366004614d36565b612757565b348015610c4057600080fd5b506104d9610c4f3660046152ae565b612787565b348015610c6057600080fd5b50610c74610c6f36600461517c565b612800565b6040516105079291906152e3565b348015610c8e57600080fd5b5061066b610c9d366004614ce6565b601b6020526000908152604090205481565b348015610cbb57600080fd5b50601154610592906001600160a01b031681565b348015610cdb57600080fd5b506104d9610cea366004614db2565b6128ae565b348015610cfb57600080fd5b50601454610592906001600160a01b031681565b348015610d1b57600080fd5b506104d9610d2a366004615311565b612920565b348015610d3b57600080fd5b506104d9610d4a366004614d36565b612952565b6104d9610d5d36600461539f565b61295f565b348015610d6e57600080fd5b506104d9610d7d36600461543b565b612a8c565b348015610d8e57600080fd5b50601054610592906001600160a01b031681565b348015610dae57600080fd5b50610565610dbd366004614d36565b612b37565b348015610dce57600080fd5b506104d9610ddd36600461546b565b612b78565b348015610dee57600080fd5b50610e02610dfd366004614d36565b612d3c565b604051610507919061549b565b348015610e1b57600080fd5b506104d9610e2a366004614d36565b612ee2565b348015610e3b57600080fd5b506104d9610e4a366004615552565b612eef565b348015610e5b57600080fd5b50610565610e6a366004614d36565b61316b565b348015610e7b57600080fd5b5061066b601d5481565b348015610e9157600080fd5b506104d9610ea0366004615598565b613411565b348015610eb157600080fd5b506104d9610ec0366004614d36565b6134d9565b348015610ed157600080fd5b5061066b60155481565b348015610ee757600080fd5b506104fb610ef63660046155bb565b6001600160a01b03918216600090815260056020908152604080832093909416825291909152205460ff1690565b6104d9610f32366004614ce6565b6134e6565b348015610f4357600080fd5b506104d9610f523660046155e9565b613523565b6104d9610f65366004614ce6565b613570565b348015610f7657600080fd5b50610565610f85366004614d36565b613597565b348015610f9657600080fd5b50601354610592906001600160a01b031681565b348015610fb657600080fd5b50610592610fc5366004614d36565b6000908152601a60205260409020546001600160a01b031690565b348015610fec57600080fd5b5061066b610ffb366004614ce6565b63389a75e1600c908152600091909152602090205490565b61101b613818565b601480546001600160a01b0319166001600160a01b0392909216919091179055565b600061104882613833565b92915050565b60008061105a83612145565b6000938452601a60205260409093205492936001600160a01b0390931692915050565b60606000805461108c9061566e565b80601f01602080910402602001604051908101604052809291908181526020018280546110b89061566e565b80156111055780601f106110da57610100808354040283529160200191611105565b820191906000526020600020905b8154815290600101906020018083116110e857829003601f168201915b5050505050905090565b600061111a82613858565b506000908152600460205260409020546001600160a01b031690565b61113f81612145565b6001600160a01b0316336001600160a01b03161461116f576040516282b42960e81b815260040160405180910390fd5b61117981836138b7565b61118382826138f6565b5050565b600f60205260009081526040902080546001820180549192916111a99061566e565b80601f01602080910402602001604051908101604052809291908181526020018280546111d59061566e565b80156112225780601f106111f757610100808354040283529160200191611222565b820191906000526020600020905b81548152906001019060200180831161120557829003601f168201915b5050505050908060020180546112379061566e565b80601f01602080910402602001604051908101604052809291908181526020018280546112639061566e565b80156112b05780601f10611285576101008083540402835291602001916112b0565b820191906000526020600020905b81548152906001019060200180831161129357829003601f168201915b5050505050908060030180546112c59061566e565b80601f01602080910402602001604051908101604052809291908181526020018280546112f19061566e565b801561133e5780601f106113135761010080835404028352916020019161133e565b820191906000526020600020905b81548152906001019060200180831161132157829003601f168201915b5050505050905084565b6060600061135583612733565b90506000601060009054906101000a90046001600160a01b03166001600160a01b0316635c1ef2566040518163ffffffff1660e01b8152600401600060405180830381865afa1580156113ac573d6000803e3d6000fd5b505050506040513d6000823e601f3d908101601f191682016040526113d491908101906156ed565b905060006015548351106113ea576015546113ed565b82515b90506000816001600160401b0381111561140957611409614ea1565b60405190808252806020026020018201604052801561143c57816020015b60608152602001906001900390816114275790505b50905060005b828110156115035760105485516001600160a01b039091169063c77915319087908490811061147357611473615721565b60200260200101516040518263ffffffff1660e01b815260040161149991815260200190565b600060405180830381865afa1580156114b6573d6000803e3d6000fd5b505050506040513d6000823e601f3d908101601f191682016040526114de91908101906156ed565b8282815181106114f0576114f0615721565b6020908102919091010152600101611442565b506013548451601554604051631719ff8760e11b81526001600160a01b0390931692632e33ff0e9261153d92889287929190600401615737565b600060405180830381865afa15801561155a573d6000803e3d6000fd5b505050506040513d6000823e601f3d908101601f1916820160405261158291908101906156ed565b9695505050505050565b611594613818565b601e55565b6115a33382613964565b6115c85760405162461bcd60e51b81526004016115bf906157b8565b60405180910390fd5b6115d38383836139e2565b505050565b60006202a3006001600160401b03164201905063389a75e1600c5233600052806020600c2055337fdbf36a107da19e49527a7176a1babf963b4b0ff8cde35ee35d6cd8f1f9ac7e1d600080a250565b8161163181612145565b6001600160a01b0316336001600160a01b03161461166257604051631431735b60e21b815260040160405180910390fd5b8160000361168357604051630754c7f360e41b815260040160405180910390fd5b600061168f8484613b8f565b905060018160078111156116a5576116a5615806565b036116bc576000848152600c602052604090208390555b60028160078111156116d0576116d0615806565b036116ea576000848152600c602052604090206001018390555b60038160078111156116fe576116fe615806565b03611718576000848152600c602052604090206002018390555b600481600781111561172c5761172c615806565b03611746576000848152600c602052604090206003018390555b600581600781111561175a5761175a615806565b03611774576000848152600c602052604090206004018390555b600681600781111561178857611788615806565b036117a2576000848152600c602052604090206005018390555b60078160078111156117b6576117b6615806565b036117d0576000848152600c602052604090206006018390555b82846117db86612145565b6001600160a01b0316600080516020615de783398151915284600781111561180557611805615806565b60405160ff909116815260200160405180910390a450505050565b600061182b836122c3565b821061188d5760405162461bcd60e51b815260206004820152602b60248201527f455243373231456e756d657261626c653a206f776e657220696e646578206f7560448201526a74206f6620626f756e647360a81b60648201526084016115bf565b506001600160a01b03919091166000908152600660209081526040808320938352929052205490565b806118c081612145565b6001600160a01b0316336001600160a01b0316146118f157604051631431735b60e21b815260040160405180910390fd5b6000828152600c60205260408120818155600181018290556002810182905560038101829055600481018290556005810182905560068101919091558261193781612145565b6001600160a01b03167f46078a2cd4c69c3b4a27bdc69fdfe03d442ebcf405f1a68e9b5df6bc3e24429760405160405180910390a3505050565b606080600061197f84612d3c565b905061198a81612530565b5095945050505050565b8961199e81612145565b6001600160a01b0316336001600160a01b0316146119cf57604051631431735b60e21b815260040160405180910390fd5b6119df8b8b8b8b8b8b8b8b611c2c565b6119e98b84613411565b6119f38b83612eef565b5050505050505050505050565b60608060606000611a1085612d3c565b9050611a1b81612530565b5060105460405163bb12d21d60e01b81529195506001600160a01b0316915063bb12d21d90611a4e90849060040161549b565b600060405180830381865afa158015611a6b573d6000803e3d6000fd5b505050506040513d6000823e601f3d908101601f19168201604052611a93919081019061581c565b50604051909350611aab9150849084906020016158a3565b6040516020818303038152906040529350505050919050565b611acc613818565b601555565b611ad9613818565b601780546001600160a01b0319166001600160a01b0392909216919091179055565b611b03613818565b6017546040516000916001600160a01b03169047908381818185875af1925050503d8060008114611b50576040519150601f19603f3d011682016040523d82523d6000602084013e611b55565b606091505b5050905080611b7757604051631d42c86760e21b815260040160405180910390fd5b50565b6115d383838360405180602001604052806000815250612920565b60606000611ba2836122c3565b90506000816001600160401b03811115611bbe57611bbe614ea1565b604051908082528060200260200182016040528015611be7578160200160208202803683370190505b50905060005b82811015611c2457611bff8582611820565b828281518110611c1157611c11615721565b6020908102919091010152600101611bed565b509392505050565b87611c3681612145565b6001600160a01b0316336001600160a01b031614611c6757604051631431735b60e21b815260040160405180910390fd5b8715611cce57611c778989613c14565b611c82886001613d0c565b6000898152600c602052604090208890558789611c9e81612145565b6001600160a01b0316600080516020615de7833981519152600160405160ff909116815260200160405180910390a45b8615611d3857611cde8988613c14565b611ce9876002613d0c565b6000898152600c602052604090206001018790558689611d0881612145565b6001600160a01b0316600080516020615de7833981519152600260405160ff909116815260200160405180910390a45b8515611da257611d488987613c14565b611d53866003613d0c565b6000898152600c602052604090206002018690558589611d7281612145565b6001600160a01b0316600080516020615de7833981519152600360405160ff909116815260200160405180910390a45b8415611e0c57611db28986613c14565b611dbd856004613d0c565b6000898152600c602052604090206003018590558489611ddc81612145565b6001600160a01b0316600080516020615de7833981519152600460405160ff909116815260200160405180910390a45b8315611e7657611e1c8985613c14565b611e27846005613d0c565b6000898152600c602052604090206004018490558389611e4681612145565b6001600160a01b0316600080516020615de7833981519152600560405160ff909116815260200160405180910390a45b8215611ee057611e868984613c14565b611e91836006613d0c565b6000898152600c602052604090206005018390558289611eb081612145565b6001600160a01b0316600080516020615de7833981519152600660405160ff909116815260200160405180910390a45b8115611f4a57611ef08983613c14565b611efb826007613d0c565b6000898152600c602052604090206006018290558189611f1a81612145565b6001600160a01b0316600080516020615de7833981519152600760405160ff909116815260200160405180910390a45b88611f548a612145565b6001600160a01b03167f56680590212b09eb4b72a2eba8801b037ec046dfc754538e924f5bb6a8c4db6c60405160405180910390a3505050505050505050565b6000611f9f60085490565b82106120025760405162461bcd60e51b815260206004820152602c60248201527f455243373231456e756d657261626c653a20676c6f62616c20696e646578206f60448201526b7574206f6620626f756e647360a01b60648201526084016115bf565b6008828154811061201557612015615721565b90600052602060002001549050919050565b63389a75e1600c523360005260006020600c2055337ffa7b8eab7da67f412cc9575ed43464468f9bfbae89d1675917346ca6d8fe3c92600080a2565b600061206e84612145565b90506001600160a01b0381163314612098576040516282b42960e81b815260040160405180910390fd5b81156120a8576120a884846138b7565b6120b3818484613e0e565b50505050565b601c60205281600052604060002081815481106120d557600080fd5b6000918252602090912001546001600160a01b03169150829050565b6120f9613818565b601280546001600160a01b0319166001600160a01b0392909216919091179055565b612123613818565b601080546001600160a01b0319166001600160a01b0392909216919091179055565b6000818152600260205260408120546001600160a01b0316806110485760405162461bcd60e51b8152602060048201526018602482015277115490cdcc8c4e881a5b9d985b1a59081d1bdad95b88125160421b60448201526064016115bf565b6010546040516331a9108f60e11b8152600481018390526000918291829182916001600160a01b0390911690636352211e90602401602060405180830381865afa1580156121f7573d6000803e3d6000fd5b505050506040513d601f19601f8201168201806040525081019061221b91906158d2565b6001600160a01b0381166000908152601b6020526040902054909450925061224283612145565b915061224e83866123b1565b90509193509193565b6000818152601c60209081526040918290208054835181840281018401909452808452606093928301828280156122b757602002820191906000526020600020905b81546001600160a01b03168152600190910190602001808311612299575b50505050509050919050565b60006001600160a01b03821661232d5760405162461bcd60e51b815260206004820152602960248201527f4552433732313a2061646472657373207a65726f206973206e6f7420612076616044820152683634b21037bbb732b960b91b60648201526084016115bf565b506001600160a01b031660009081526003602052604090205490565b612351613818565b61235b6000613ed4565b565b612365613818565b601180546001600160a01b0319166001600160a01b0392909216919091179055565b61238f613818565b601380546001600160a01b0319166001600160a01b0392909216919091179055565b6000806123bd84612d3c565b80519091508314806123d25750828160200151145b806123e05750828160400151145b806123ee5750828160600151145b806123fc5750828160800151145b8061240a5750828160a00151145b806124185750828160c00151145b949350505050565b6013546000828152600f602052604080822090516371bed9e160e11b81526060936001600160a01b03169163e37db3c291612461916002019060040161596c565b600060405180830381865afa15801561247e573d6000803e3d6000fd5b505050506040513d6000823e601f3d908101601f191682016040526124a691908101906156ed565b6013546040516335b07b7960e11b81529192506001600160a01b031690636b60f6f2906124d7908490600401614d9f565b600060405180830381865afa1580156124f4573d6000803e3d6000fd5b505050506040513d6000823e601f3d908101601f1916820160405261251c91908101906156ed565b9392505050565b61252b613818565b601855565b606080606061254684610120015160ff16612420565b6101208501805160ff9081166000908152600f602052604080822060135494519093168252908190209051630d88d4ff60e01b81526003909201926001600160a01b031691630d88d4ff916125a39160019091019060040161597f565b600060405180830381865afa1580156125c0573d6000803e3d6000fd5b505050506040513d6000823e601f3d908101601f191682016040526125e891908101906156ed565b8180546125f49061566e565b80601f01602080910402602001604051908101604052809291908181526020018280546126209061566e565b801561266d5780601f106126425761010080835404028352916020019161266d565b820191906000526020600020905b81548152906001019060200180831161265057829003601f168201915b505050505091509250925092509193909250565b60606001805461108c9061566e565b60105460405162438b6360e81b81526001600160a01b03838116600483015260609260009291169063438b630090602401600060405180830381865afa1580156126de573d6000803e3d6000fd5b505050506040513d6000823e601f3d908101601f1916820160405261251c91908101906159b2565b600b5460ff161561235b5760005b600a811015611b7757606061272a60048261295f565b50600101612714565b6000818152601a60205260409020546060906001600160a01b031661251c81612690565b6060600061276483612d3c565b905080610160015161277e5761277983613597565b61251c565b61251c8361316b565b80156127f557600061279833611b95565b905080516000036127bb576040516282b42960e81b815260040160405180910390fd5b60005b81518110156127f2576127ea8282815181106127dc576127dc615721565b6020026020010151856138b7565b6001016127be565b50505b611183338383613e0e565b60608061281483610120015160ff16612420565b60135461012085015160ff166000908152600f6020526040908190209051630d88d4ff60e01b81526001600160a01b0390921691630d88d4ff916128609160019091019060040161597f565b600060405180830381865afa15801561287d573d6000803e3d6000fd5b505050506040513d6000823e601f3d908101601f191682016040526128a591908101906156ed565b91509150915091565b6128b6613818565b60195415806128c6575060195442105b156128e457604051630314872760e11b815260040160405180910390fd5b6019546128f49062016da0615a4d565b4211156129145760405163124212e560e21b815260040160405180910390fd5b61118382826004613f12565b61292a3383613964565b6129465760405162461bcd60e51b81526004016115bf906157b8565b6120b384848484614232565b61295a613818565b601f55565b6012546001600160a01b031661298857604051633390ca8960e21b815260040160405180910390fd5b816000036129a95760405163e7195f5160e01b815260040160405180910390fd5b601e8211156129cb576040516348ec7ff760e01b815260040160405180910390fd5b816018546129d99190615a60565b34146129f85760405163356680b760e01b815260040160405180910390fd5b6040516bffffffffffffffffffffffff193360601b166020820152600490600090603401604051602081830303815290604052805190602001209050612a4183601d5483614265565b15612a4f5760059150612a81565b612a5c83601e5483614265565b15612a6a5760069150612a81565b612a7783601f5483614265565b15612a8157600791505b6120b3338584613f12565b81612a9681612145565b6001600160a01b0316336001600160a01b031614612ac757604051631431735b60e21b815260040160405180910390fd5b6000838152600c60205260409020600b01805460ff191683151517905582612aee81612145565b6001600160a01b03167f6dd9e2813f787f711671bf91b2e57a72b9b61bc279b934201f3fd29b3b5f8cbe84604051612b2a911515815260200190565b60405180910390a3505050565b6000818152600260205260409020546060906001600160a01b0316612b6f57604051636461f73160e01b815260040160405180910390fd5b61104882612757565b81612b8281612145565b6001600160a01b0316336001600160a01b031614612bb357604051631431735b60e21b815260040160405180910390fd5b6001826007811115612bc757612bc7615806565b03612bdc576000838152600c60205260408120555b6002826007811115612bf057612bf0615806565b03612c08576000838152600c60205260408120600101555b6003826007811115612c1c57612c1c615806565b03612c34576000838152600c60205260408120600201555b6004826007811115612c4857612c48615806565b03612c60576000838152600c60205260408120600301555b6005826007811115612c7457612c74615806565b03612c8c576000838152600c60205260408120600401555b6006826007811115612ca057612ca0615806565b03612cb8576000838152600c60205260408120600501555b6007826007811115612ccc57612ccc615806565b03612ce4576000838152600c60205260408120600601555b82612cee84612145565b6001600160a01b03167f3d8ac56c725fc7985e9444622a45baee28ba67d8a964045f747b465121f40e71846007811115612d2a57612d2a615806565b60405160ff9091168152602001612b2a565b612dab60405180610180016040528060008152602001600081526020016000815260200160008152602001600081526020016000815260200160008152602001600063ffffffff16815260200160008152602001600060ff168152602001606081526020016000151581525090565b6000828152600c60209081526040808320815161018081018352815481526001820154938101939093526002810154918301919091526003810154606083015260048101546080830152600581015460a0830152600681015460c0830152600781015463ffffffff1660e08301526008810154610100830152600981015460ff16610120830152600a8101805461014084019190612e489061566e565b80601f0160208091040260200160405190810160405280929190818152602001828054612e749061566e565b8015612ec15780601f10612e9657610100808354040283529160200191612ec1565b820191906000526020600020905b815481529060010190602001808311612ea457829003601f168201915b5050509183525050600b919091015460ff1615156020909101529392505050565b612eea613818565b601955565b81612ef981612145565b6001600160a01b0316336001600160a01b031614612f2a57604051631431735b60e21b815260040160405180910390fd5b81518290600614612f4e57604051631cf7e9c560e01b815260040160405180910390fd5b60408051808201909152600681526503036393432360d41b6020918201528151908201207fc9a8162f44485821dce92aaad6bb1b8cc6d457721d5ae939092ca3297c7dd0a501612fb15760405163a3c0b7b960e01b815260040160405180910390fd5b60005b60068110156130fe57603060f81b828281518110612fd457612fd4615721565b01602001516001600160f81b031916108015906130155750603960f81b82828151811061300357613003615721565b01602001516001600160f81b03191611155b1580156130775750604160f81b82828151811061303457613034615721565b01602001516001600160f81b031916108015906130755750604660f81b82828151811061306357613063615721565b01602001516001600160f81b03191611155b155b80156130d85750606160f81b82828151811061309557613095615721565b01602001516001600160f81b031916108015906130d65750606660f81b8282815181106130c4576130c4615721565b01602001516001600160f81b03191611155b155b156130f657604051631cf7e9c560e01b815260040160405180910390fd5b600101612fb4565b506000848152600c60205260409020600a0161311a8482615abf565b508361312585612145565b6001600160a01b03167f2e34f8c0f6052b66319b4a5df14eac164c6af8a0b37f612d4304a777e1ae7a3d8560405161315d9190614d9f565b60405180910390a350505050565b60608060608060608060606131a16040518060800160405280606081526020016060815260200160608152602001600081525090565b60006131ac8a612d3c565b90506131b781612530565b5060105460405163bb12d21d60e01b8152929a509097506001600160a01b03169063bb12d21d906131ec90849060040161549b565b600060405180830381865afa158015613209573d6000803e3d6000fd5b505050506040513d6000823e601f3d908101601f19168201604052613231919081019061581c565b604051929950909650935061324c90879087906020016158a3565b60408051601f198184030181529190526101408201518352935061326f8a612733565b51606083015261012081015160ff166000908152600f60205260409020600101805461329a9061566e565b80601f01602080910402602001604051908101604052809291908181526020018280546132c69061566e565b80156133135780601f106132e857610100808354040283529160200191613313565b820191906000526020600020905b8154815290600101906020018083116132f657829003601f168201915b5050505050826020018190525061333c8a6000908152600c60205260409020600b015460ff1690565b61336057604051806040016040528060028152602001610c9160f21b81525061337c565b604051806040016040528060028152602001610cd160f21b8152505b604080840191909152601454905163efcc1e3160e01b81526001600160a01b039091169063efcc1e31906133be908d908c908c9089908b908a90600401615bdd565b600060405180830381865afa1580156133db573d6000803e3d6000fd5b505050506040513d6000823e601f3d908101601f1916820160405261340391908101906156ed565b9a9950505050505050505050565b8161341b81612145565b6001600160a01b0316336001600160a01b03161461344c57604051631431735b60e21b815260040160405180910390fd5b60048260ff161115613471576040516329ba348d60e11b815260040160405180910390fd5b6000838152600c60205260409020600901805460ff191660ff84161790558261349981612145565b60405160ff851681526001600160a01b0391909116907f454db5768a3f8187a5dd5e9cca100cf699d74d8a03f793d16da3932cdf34d35890602001612b2a565b6134e1613818565b601d55565b6134ee613818565b63389a75e1600c52806000526020600c20805442111561351657636f5e88186000526004601cfd5b60009055611b7781613ed4565b61352b613818565b6000848152600f602052604090208481556001810161354a8582615abf565b50600281016135598482615abf565b50600381016135688382615abf565b505050505050565b613578613818565b8060601b61358e57637448fbae6000526004601cfd5b611b7781613ed4565b606080606080606060006135aa87612d3c565b90506135b581612800565b50601054604051631be5857160e31b81529196506001600160a01b03169063df2c2b88906135e790849060040161549b565b600060405180830381865afa158015613604573d6000803e3d6000fd5b505050506040513d6000823e601f3d908101601f1916820160405261362c9190810190615c51565b909450925061363a87611348565b91506136676040518060800160405280606081526020016060815260200160608152602001600081525090565b610140820151815261367888612733565b51606082015261012082015160ff166000908152600f6020526040902060010180546136a39061566e565b80601f01602080910402602001604051908101604052809291908181526020018280546136cf9061566e565b801561371c5780601f106136f15761010080835404028352916020019161371c565b820191906000526020600020905b8154815290600101906020018083116136ff57829003601f168201915b50505050508160200181905250613745886000908152600c60205260409020600b015460ff1690565b61376957604051806040016040528060028152602001610c9160f21b815250613785565b604051806040016040528060028152602001610cd160f21b8152505b60408083019190915260135490516307df90cf60e11b81526001600160a01b0390911690630fbf219e906137c7908b908a908a908a908a908990600401615bdd565b600060405180830381865afa1580156137e4573d6000803e3d6000fd5b505050506040513d6000823e601f3d908101601f1916820160405261380c91908101906156ed565b98975050505050505050565b638b78c6d81954331461235b576382b429006000526004601cfd5b60006001600160e01b0319821663780e9d6360e01b148061104857506110488261427b565b6000818152600260205260409020546001600160a01b0316611b775760405162461bcd60e51b8152602060048201526018602482015277115490cdcc8c4e881a5b9d985b1a59081d1bdad95b88125160421b60448201526064016115bf565b6000918252601c6020908152604083208054600181018255908452922090910180546001600160a01b0319166001600160a01b03909216919091179055565b600081815260046020526040902080546001600160a01b0319166001600160a01b038416908117909155819061392b82612145565b6001600160a01b03167f8c5be1e5ebec7d5bd14f71427d1e84f3dd0314c0f7b2291e5b200ac8c7c3b92560405160405180910390a45050565b60008061397083612145565b9050806001600160a01b0316846001600160a01b031614806139b757506001600160a01b0380821660009081526005602090815260408083209388168352929052205460ff165b806124185750836001600160a01b03166139d08461110f565b6001600160a01b031614949350505050565b826001600160a01b03166139f582612145565b6001600160a01b031614613a595760405162461bcd60e51b815260206004820152602560248201527f4552433732313a207472616e736665722066726f6d20696e636f72726563742060448201526437bbb732b960d91b60648201526084016115bf565b6001600160a01b038216613abb5760405162461bcd60e51b8152602060048201526024808201527f4552433732313a207472616e7366657220746f20746865207a65726f206164646044820152637265737360e01b60648201526084016115bf565b613ac68383836142cb565b613ad16000826138f6565b6001600160a01b0383166000908152600360205260408120805460019290613afa908490615caa565b90915550506001600160a01b0382166000908152600360205260408120805460019290613b28908490615a4d565b909155505060008181526002602052604080822080546001600160a01b0319166001600160a01b0386811691821790925591518493918716917fddf252ad1be2c89b69c2b068fc378daa952ba7f163c4a11628f55a4df523b3ef91a46115d38383836146a6565b6000613b9b8383613c14565b60105460405163e8a1268d60e01b8152600481018490526001600160a01b039091169063e8a1268d90602401602060405180830381865afa158015613be4573d6000803e3d6000fd5b505050506040513d601f19601f82011682018060405250810190613c089190615cbd565b90506110488282613d0c565b81613c1e81612145565b6001600160a01b0316336001600160a01b031614613c4f57604051631431735b60e21b815260040160405180910390fd5b6000838152601a60205260408082205460105491516331a9108f60e11b8152600481018690526001600160a01b0391821693929190911690636352211e90602401602060405180830381865afa158015613cad573d6000803e3d6000fd5b505050506040513d601f19601f82011682018060405250810190613cd191906158d2565b9050816001600160a01b0316816001600160a01b031614613d055760405163e6ca793160e01b815260040160405180910390fd5b5050505050565b60105460405163e8a1268d60e01b8152600481018490526000916001600160a01b03169063e8a1268d90602401602060405180830381865afa158015613d56573d6000803e3d6000fd5b505050506040513d601f19601f82011682018060405250810190613d7a9190615cbd565b9050816007811115613d8e57613d8e615806565b604051602001613da091815260200190565b60405160208183030381529060405280519060200120816007811115613dc857613dc8615806565b604051602001613dda91815260200190565b60405160208183030381529060405280519060200120146115d357604051633e54c6fb60e11b815260040160405180910390fd5b816001600160a01b0316836001600160a01b031603613e6f5760405162461bcd60e51b815260206004820152601960248201527f4552433732313a20617070726f766520746f2063616c6c65720000000000000060448201526064016115bf565b6001600160a01b03838116600081815260056020908152604080832094871680845294825291829020805460ff191686151590811790915591519182527f17307eab39ab6107e8899845ad3d59bd9653f200f220920489ca2b5937696c319101612b2a565b638b78c6d81980546001600160a01b039092169182907f8be0079c531659141344cd1fd0a4f28419497f9722a3daafe3b4186f6b6457e0600080a355565b60005b828110156120b3576000601660008154613f2e90615cda565b91829055509050613f3f85826146b0565b604051638a54c52f60e01b81527355266d75d1a14e4572138116af39863ed6596e7f600482015260006024820181905262014a34604483015230606483015260848201839052906f6551c19487814612e58fe0681377575890638a54c52f9060a4016020604051808303816000875af1158015613fc0573d6000803e3d6000fd5b505050506040513d601f19601f82011682018060405250810190613fe491906158d2565b6000838152601a6020908152604080832080546001600160a01b0319166001600160a01b038616908117909155808452601b90925291829020859055905163189acdbd60e31b81527341c8f39463a868d3a88af00cd0fe7102f30e44ec60048201529192509063c4d66de890602401600060405180830381600087803b15801561406d57600080fd5b505af1158015614081573d6000803e3d6000fd5b50506012546040516358a2727360e01b81526001600160a01b03858116600483015260ff891660248301526000945090911691506358a27273906044016000604051808303816000875af11580156140dd573d6000803e3d6000fd5b505050506040513d6000823e601f3d908101601f1916820160405261410591908101906159b2565b6000848152600c602052604081206008810186905582519293509183919061412f5761412f615721565b602002602001015181600601819055508160018151811061415257614152615721565b602002602001015181600501819055508160028151811061417557614175615721565b602002602001015181600401819055508160038151811061419857614198615721565b602002602001015181600101819055506005846040516020016141bd91815260200190565b6040516020818303038152906040528051906020012060001c6141e09190615cf3565b60098201805460ff191660ff929092169190911790556040805180820190915260068152650c110d914e5160d21b6020820152600a8201906142229082615abf565b5050505050806001019050613f15565b61423d8484846139e2565b61424984848484614806565b6120b35760405162461bcd60e51b81526004016115bf90615d15565b6000826142728584614907565b14949350505050565b60006001600160e01b031982166380ac58cd60e01b14806142ac57506001600160e01b03198216635b5e139f60e01b145b8061104857506301ffc9a760e01b6001600160e01b0319831614611048565b6001600160a01b0383166142e4576115d3838383614942565b6001600160a01b0382166000908152601b60205260409020541561431b57604051639a42da2960e01b815260040160405180910390fd5b6000818152601a602052604080822054601054915162438b6360e81b81526001600160a01b03918216600482018190529392919091169063438b630090602401600060405180830381865afa158015614378573d6000803e3d6000fd5b505050506040513d6000823e601f3d908101601f191682016040526143a091908101906159b2565b905060006143ad85611b95565b9050600081516001600160401b038111156143ca576143ca614ea1565b6040519080825280602002602001820160405280156143f3578160200160208202803683370190505b50905060005b825181101561447457601a600084838151811061441857614418615721565b6020026020010151815260200190815260200160002060009054906101000a90046001600160a01b031682828151811061445457614454615721565b6001600160a01b03909216602092830291909101909101526001016143f9565b5060115460405163644ec52760e01b8152600481018790526001600160a01b039091169063644ec52790602401600060405180830381600087803b1580156144bb57600080fd5b505af11580156144cf573d6000803e3d6000fd5b5050601154604051631e92beb560e31b8152600481018990526001600160a01b038a81166024830152909116925063f495f5a89150604401600060405180830381600087803b15801561452157600080fd5b505af1158015614535573d6000803e3d6000fd5b5050505060005b835181101561469157600084828151811061455957614559615721565b6020908102919091010151601154604051632e1d274f60e01b8152600481018390529192506001600160a01b031690632e1d274f90602401600060405180830381600087803b1580156145ab57600080fd5b505af11580156145bf573d6000803e3d6000fd5b5050601154604051632333520b60e11b81526001600160a01b039091169250634666a41691506145f59084908790600401615d67565b600060405180830381600087803b15801561460f57600080fd5b505af1158015614623573d6000803e3d6000fd5b505060105460405163487b1c2160e11b8152600481018590526001600160a01b0390911692506390f638429150602401600060405180830381600087803b15801561466d57600080fd5b505af1158015614681573d6000803e3d6000fd5b505050505080600101905061453c565b5061469d878787614942565b50505050505050565b6115d381846149fa565b6001600160a01b0382166147065760405162461bcd60e51b815260206004820181905260248201527f4552433732313a206d696e7420746f20746865207a65726f206164647265737360448201526064016115bf565b6000818152600260205260409020546001600160a01b03161561476b5760405162461bcd60e51b815260206004820152601c60248201527f4552433732313a20746f6b656e20616c7265616479206d696e7465640000000060448201526064016115bf565b614777600083836142cb565b6001600160a01b03821660009081526003602052604081208054600192906147a0908490615a4d565b909155505060008181526002602052604080822080546001600160a01b0319166001600160a01b03861690811790915590518392907fddf252ad1be2c89b69c2b068fc378daa952ba7f163c4a11628f55a4df523b3ef908290a4611183600083836146a6565b60006001600160a01b0384163b156148fc57604051630a85bd0160e11b81526001600160a01b0385169063150b7a029061484a903390899088908890600401615d80565b6020604051808303816000875af1925050508015614885575060408051601f3d908101601f1916820190925261488291810190615db3565b60015b6148e2573d8080156148b3576040519150601f19603f3d011682016040523d82523d6000602084013e6148b8565b606091505b5080516000036148da5760405162461bcd60e51b81526004016115bf90615d15565b805181602001fd5b6001600160e01b031916630a85bd0160e11b149050612418565b506001949350505050565b600081815b8451811015611c24576149388286838151811061492b5761492b615721565b6020026020010151614ae3565b915060010161490c565b6001600160a01b03831661499d5761499881600880546000838152600960205260408120829055600182018355919091527ff3f7a9fe364faab93b216da50a3214154f22a0a2b415b23a84c8169e8b636ee30155565b6149c0565b816001600160a01b0316836001600160a01b0316146149c0576149c08382614b0f565b6001600160a01b0382166149d7576115d381614bac565b826001600160a01b0316826001600160a01b0316146115d3576115d38282614c5b565b6000828152601c6020908152604080832080548251818502810185019093528083529192909190830182828015614a5a57602002820191906000526020600020905b81546001600160a01b03168152600190910190602001808311614a3c575b5050506000868152601a60205260408120549394506001600160a01b03909316929150505b8251811015614acb57614aad84848381518110614a9e57614a9e615721565b60200260200101516000613e0e565b614ac382848381518110614a9e57614a9e615721565b600101614a7f565b506000848152601c602052604081206120b391614c9f565b6000818310614aff57600082815260208490526040902061251c565b5060009182526020526040902090565b60006001614b1c846122c3565b614b269190615caa565b600083815260076020526040902054909150808214614b79576001600160a01b03841660009081526006602090815260408083208584528252808320548484528184208190558352600790915290208190555b5060009182526007602090815260408084208490556001600160a01b039094168352600681528383209183525290812055565b600854600090614bbe90600190615caa565b60008381526009602052604081205460088054939450909284908110614be657614be6615721565b906000526020600020015490508060088381548110614c0757614c07615721565b6000918252602080832090910192909255828152600990915260408082208490558582528120556008805480614c3f57614c3f615dd0565b6001900381819060005260206000200160009055905550505050565b6000614c66836122c3565b6001600160a01b039093166000908152600660209081526040808320868452825280832085905593825260079052919091209190915550565b5080546000825590600052602060002090810190611b7791905b80821115614ccd5760008155600101614cb9565b5090565b6001600160a01b0381168114611b7757600080fd5b600060208284031215614cf857600080fd5b813561251c81614cd1565b6001600160e01b031981168114611b7757600080fd5b600060208284031215614d2b57600080fd5b813561251c81614d03565b600060208284031215614d4857600080fd5b5035919050565b60005b83811015614d6a578181015183820152602001614d52565b50506000910152565b60008151808452614d8b816020860160208601614d4f565b601f01601f19169290920160200192915050565b60208152600061251c6020830184614d73565b60008060408385031215614dc557600080fd5b8235614dd081614cd1565b946020939093013593505050565b848152608060208201526000614df76080830186614d73565b8281036040840152614e098186614d73565b90508281036060840152614e1d8185614d73565b979650505050505050565b600080600060608486031215614e3d57600080fd5b8335614e4881614cd1565b92506020840135614e5881614cd1565b929592945050506040919091013590565b60008060408385031215614e7c57600080fd5b50508035926020909101359150565b803560ff81168114614e9c57600080fd5b919050565b634e487b7160e01b600052604160045260246000fd5b60405161018081016001600160401b0381118282101715614eda57614eda614ea1565b60405290565b604051601f8201601f191681016001600160401b0381118282101715614f0857614f08614ea1565b604052919050565b60006001600160401b03821115614f2957614f29614ea1565b50601f01601f191660200190565b600082601f830112614f4857600080fd5b8135614f5b614f5682614f10565b614ee0565b818152846020838601011115614f7057600080fd5b816020850160208301376000918101602001919091529392505050565b6000806000806000806000806000806101408b8d031215614fad57600080fd5b8a35995060208b0135985060408b0135975060608b0135965060808b0135955060a08b0135945060c08b0135935060e08b01359250614fef6101008c01614e8b565b91506101208b01356001600160401b0381111561500b57600080fd5b6150178d828e01614f37565b9150509295989b9194979a5092959850565b6020808252825182820181905260009190848201906040850190845b8181101561506157835183529284019291840191600101615045565b50909695505050505050565b600080600080600080600080610100898b03121561508a57600080fd5b505086359860208801359850604088013597606081013597506080810135965060a0810135955060c0810135945060e0013592509050565b80358015158114614e9c57600080fd5b6000806000606084860312156150e757600080fd5b8335925060208401356150f981614cd1565b9150615107604085016150c2565b90509250925092565b60008151808452602080850194506020840160005b8381101561514a5781516001600160a01b031687529582019590820190600101615125565b509495945050505050565b60208152600061251c6020830184615110565b803563ffffffff81168114614e9c57600080fd5b60006020828403121561518e57600080fd5b81356001600160401b03808211156151a557600080fd5b9083019061018082860312156151ba57600080fd5b6151c2614eb7565b823581526020830135602082015260408301356040820152606083013560608201526080830135608082015260a083013560a082015260c083013560c082015261520e60e08401615168565b60e0820152610100838101359082015261012061522c818501614e8b565b90820152610140838101358381111561524457600080fd5b61525088828701614f37565b82840152505061016091506152668284016150c2565b91810191909152949350505050565b6060815260006152886060830186614d73565b828103602084015261529a8186614d73565b905082810360408401526115828185614d73565b600080604083850312156152c157600080fd5b82356152cc81614cd1565b91506152da602084016150c2565b90509250929050565b6040815260006152f66040830185614d73565b82810360208401526153088185614d73565b95945050505050565b6000806000806080858703121561532757600080fd5b843561533281614cd1565b9350602085013561534281614cd1565b92506040850135915060608501356001600160401b0381111561536457600080fd5b61537087828801614f37565b91505092959194509250565b60006001600160401b0382111561539557615395614ea1565b5060051b60200190565b600080604083850312156153b257600080fd5b823591506020808401356001600160401b038111156153d057600080fd5b8401601f810186136153e157600080fd5b80356153ef614f568261537c565b81815260059190911b8201830190838101908883111561540e57600080fd5b928401925b8284101561542c57833582529284019290840190615413565b80955050505050509250929050565b6000806040838503121561544e57600080fd5b823591506152da602084016150c2565b60088110611b7757600080fd5b6000806040838503121561547e57600080fd5b8235915060208301356154908161545e565b809150509250929050565b6020815281516020820152602082015160408201526040820151606082015260608201516080820152608082015160a082015260a082015160c082015260c082015160e0820152600060e08301516101006154fd8185018363ffffffff169052565b8401516101208481019190915284015190506101406155208185018360ff169052565b8085015191505061018061016081818601526155406101a0860184614d73565b95015115159301929092525090919050565b6000806040838503121561556557600080fd5b8235915060208301356001600160401b0381111561558257600080fd5b61558e85828601614f37565b9150509250929050565b600080604083850312156155ab57600080fd5b823591506152da60208401614e8b565b600080604083850312156155ce57600080fd5b82356155d981614cd1565b9150602083013561549081614cd1565b600080600080608085870312156155ff57600080fd5b8435935060208501356001600160401b038082111561561d57600080fd5b61562988838901614f37565b9450604087013591508082111561563f57600080fd5b61564b88838901614f37565b9350606087013591508082111561566157600080fd5b5061537087828801614f37565b600181811c9082168061568257607f821691505b6020821081036156a257634e487b7160e01b600052602260045260246000fd5b50919050565b600082601f8301126156b957600080fd5b81516156c7614f5682614f10565b8181528460208386010111156156dc57600080fd5b612418826020830160208701614d4f565b6000602082840312156156ff57600080fd5b81516001600160401b0381111561571557600080fd5b612418848285016156a8565b634e487b7160e01b600052603260045260246000fd5b60808152600061574a6080830187614d73565b6020838203818501528187518084528284019150828160051b850101838a0160005b8381101561579a57601f19878403018552615788838351614d73565b9486019492509085019060010161576c565b50506040870198909852505050506060909101919091525092915050565b6020808252602e908201527f4552433732313a2063616c6c6572206973206e6f7420746f6b656e206f776e6560408201526d1c881b9bdc88185c1c1c9bdd995960921b606082015260800190565b634e487b7160e01b600052602160045260246000fd5b60008060006060848603121561583157600080fd5b83516001600160401b038082111561584857600080fd5b615854878388016156a8565b9450602086015191508082111561586a57600080fd5b615876878388016156a8565b9350604086015191508082111561588c57600080fd5b50615899868287016156a8565b9150509250925092565b600083516158b5818460208801614d4f565b8351908301906158c9818360208801614d4f565b01949350505050565b6000602082840312156158e457600080fd5b815161251c81614cd1565b600081546158fc8161566e565b808552602060018381168015615919576001811461593357615961565b60ff1985168884015283151560051b880183019550615961565b866000528260002060005b858110156159595781548a820186015290830190840161593e565b890184019650505b505050505092915050565b60208152600061251c60208301846158ef565b604081526009604082015268426f6479205479706560b81b606082015260806020820152600061251c60808301846158ef565b600060208083850312156159c557600080fd5b82516001600160401b038111156159db57600080fd5b8301601f810185136159ec57600080fd5b80516159fa614f568261537c565b81815260059190911b82018301908381019087831115615a1957600080fd5b928401925b82841015614e1d57835182529284019290840190615a1e565b634e487b7160e01b600052601160045260246000fd5b8082018082111561104857611048615a37565b808202811582820484141761104857611048615a37565b601f8211156115d3576000816000526020600020601f850160051c81016020861015615aa05750805b601f850160051c820191505b8181101561356857828155600101615aac565b81516001600160401b03811115615ad857615ad8614ea1565b615aec81615ae6845461566e565b84615a77565b602080601f831160018114615b215760008415615b095750858301515b600019600386901b1c1916600185901b178555613568565b600085815260208120601f198616915b82811015615b5057888601518255948401946001909101908401615b31565b5085821015615b6e5787850151600019600388901b60f8161c191681555b5050505050600190811b01905550565b6000815160808452615b936080850182614d73565b905060208301518482036020860152615bac8282614d73565b91505060408301518482036040860152615bc68282614d73565b915050606083015160608501528091505092915050565b86815260c060208201526000615bf660c0830188614d73565b8281036040840152615c088188614d73565b90508281036060840152615c1c8187614d73565b90508281036080840152615c308186614d73565b905082810360a0840152615c448185615b7e565b9998505050505050505050565b60008060408385031215615c6457600080fd5b82516001600160401b0380821115615c7b57600080fd5b615c87868387016156a8565b93506020850151915080821115615c9d57600080fd5b5061558e858286016156a8565b8181038181111561104857611048615a37565b600060208284031215615ccf57600080fd5b815161251c8161545e565b600060018201615cec57615cec615a37565b5060010190565b600082615d1057634e487b7160e01b600052601260045260246000fd5b500690565b60208082526032908201527f4552433732313a207472616e7366657220746f206e6f6e20455243373231526560408201527131b2b4bb32b91034b6b83632b6b2b73a32b960711b606082015260800190565b8281526040602082015260006124186040830184615110565b6001600160a01b038581168252841660208201526040810183905260806060820181905260009061158290830184614d73565b600060208284031215615dc557600080fd5b815161251c81614d03565b634e487b7160e01b600052603160045260246000fdfec94c1c47471ed97c1d309bab965192a3e4be3807f42d015b699bfbdcf24dd9f6a264697066735822122082026195800d5c356e4edb6d55d6e44c7deab19eff732037c6de97f35bcb132664736f6c63430008160033","linkReferences":{}},"methodIdentifiers":{"_debugPostConstructorMint()":"9c7be2f1","_nextTokenId()":"4a60f620","addNewBody(uint256,string,bytes,bytes)":"f2361e23","approve(address,uint256)":"095ea7b3","balanceOf(address)":"70a08231","bodyIndexToMetadata(uint256)":"0c83f9d7","cancelOwnershipHandover()":"54d1f13d","checkIfTraitIsEquipped(uint256,uint256)":"8aa1e4c8","chonkIdToApprovedOperators(uint256,uint256)":"55737f35","chonkMakeover(uint256,uint256,uint256,uint256,uint256,uint256,uint256,uint256,uint8,string)":"30f6c521","chonksCreatorListMerkleRoot()":"7684ef0d","completeOwnershipHandover(address)":"f04e283e","equip(uint256,uint256)":"28257532","equipAll(uint256,uint256,uint256,uint256,uint256,uint256,uint256,uint256)":"4a4333a3","firstSeasonRenderMinter()":"13ea0ae3","friendsListMerkleRoot()":"8f224757","getApproved(uint256)":"081812fc","getBackpackSVGs(uint256)":"14fe8ff4","getBodyImageSvg(uint256)":"916c546b","getBodySVGZmapsAndMetadata((uint256,uint256,uint256,uint256,uint256,uint256,uint256,uint32,uint256,uint8,string,bool))":"92012f08","getBodySvgAndMetadata((uint256,uint256,uint256,uint256,uint256,uint256,uint256,uint32,uint256,uint8,string,bool))":"a23830ae","getBodyZMap(uint256)":"306c7334","getChonk(uint256)":"d3d6873e","getChonkIdForTBAAddress(address)":"8472cbca","getChonkIdToApprovedOperators(uint256)":"67d2afe2","getChonkZMap(uint256)":"32875aa0","getFullPictureForTrait(uint256)":"66704349","getOwnerAndTBAAddressForChonkId(uint256)":"04003bd0","getTBAAddressForChonkId(uint256)":"f6a0c932","getTokenRenderZ(uint256)":"8200ea51","getTraitTokens(address)":"998cfb6e","getTraitsForChonkId(uint256)":"9f6e4637","isApprovedForAll(address,address)":"e985e9c5","mainRenderer2D()":"f4bec0b6","mainRenderer3D()":"b66ef6e3","marketplace()":"abc8c7af","maxTraitsToOutput()":"e3d21555","mint(uint256,bytes32[])":"ba41b0c6","mintStartTime()":"931e2e49","name()":"06fdde03","owner()":"8da5cb5b","ownerOf(uint256)":"6352211e","ownershipHandoverExpiresAt(address)":"fee81cf4","price()":"a035b1fe","renderAsDataUri(uint256)":"a1d62680","renderAsDataUri2D(uint256)":"f3f8efb9","renderAsDataUri3D(uint256)":"dceef0ec","renounceOwnership()":"715018a6","requestOwnershipHandover()":"25692962","safeTransferFrom(address,address,uint256)":"42842e0e","safeTransferFrom(address,address,uint256,bytes)":"b88d4fde","setApprovalForAll(address,bool)":"a22cb465","setApprovalForAllChonksMarketplace(uint256,address,bool)":"550ab247","setBackgroundColor(uint256,string)":"d68c4f32","setBodyIndex(uint256,uint8)":"e1405540","setChonksCreatorListMerkleRoot(bytes32)":"b99ce71f","setFirstSeasonRenderMinter(address)":"58a97640","setFriendsListMerkleRoot(bytes32)":"1ab37512","setMainRenderer2D(address)":"7e2e6c47","setMainRenderer3D(address)":"00179206","setMarketplace(address)":"73ad6c2d","setMaxTraitsToOutput(uint256)":"33d3d9bf","setMintStartTime(uint256)":"d5b3621b","setPrice(uint256)":"91b7f5ed","setSpecialCollectionMerkleRoot(bytes32)":"e29babbb","setTokenRender3D(uint256,bool)":"bef1dfb7","setTraitsContract(address)":"5eabd84a","setWithdrawAddress(address)":"3ab1a494","specialCollectionMerkleRoot()":"deab1d36","supportsInterface(bytes4)":"01ffc9a7","symbol()":"95d89b41","tbaAddressToTokenId(address)":"a4bf9a00","teamMint(address,uint256)":"add5a4fa","tokenByIndex(uint256)":"4f6ccce7","tokenIdToTBAAccountAddress(uint256)":"9c05d68d","tokenOfOwnerByIndex(address,uint256)":"2f745c59","tokenURI(uint256)":"c87b56dd","totalSupply()":"18160ddd","traitsContract()":"c093afdb","transferFrom(address,address,uint256)":"23b872dd","transferOwnership(address)":"f2fde38b","unequip(uint256,uint8)":"cdb6dd5c","unequipAll(uint256)":"3044825b","walletOfOwner(address)":"438b6300","withdraw()":"3ccfd60b","withdrawAddress()":"1581b600"},"id":41}