{"abi":[{"type":"constructor","inputs":[{"name":"localDeploy_","type":"bool","internalType":"bool"}],"stateMutability":"nonpayable"},{"type":"function","name":"_debugPostConstructorMint","inputs":[],"outputs":[],"stateMutability":"nonpayable"},{"type":"function","name":"_nextTokenId","inputs":[],"outputs":[{"name":"","type":"uint256","internalType":"uint256"}],"stateMutability":"view"},{"type":"function","name":"addNewBody","inputs":[{"name":"_bodyIndex","type":"uint256","internalType":"uint256"},{"name":"_bodyName","type":"string","internalType":"string"},{"name":"_colorMap","type":"bytes","internalType":"bytes"},{"name":"_zMap","type":"bytes","internalType":"bytes"}],"outputs":[],"stateMutability":"nonpayable"},{"type":"function","name":"approve","inputs":[{"name":"_operator","type":"address","internalType":"address"},{"name":"_chonkId","type":"uint256","internalType":"uint256"}],"outputs":[],"stateMutability":"nonpayable"},{"type":"function","name":"balanceOf","inputs":[{"name":"owner","type":"address","internalType":"address"}],"outputs":[{"name":"","type":"uint256","internalType":"uint256"}],"stateMutability":"view"},{"type":"function","name":"bodyIndexToMetadata","inputs":[{"name":"","type":"uint256","internalType":"uint256"}],"outputs":[{"name":"bodyIndex","type":"uint256","internalType":"uint256"},{"name":"bodyName","type":"string","internalType":"string"},{"name":"colorMap","type":"bytes","internalType":"bytes"},{"name":"zMap","type":"bytes","internalType":"bytes"}],"stateMutability":"view"},{"type":"function","name":"cancelOwnershipHandover","inputs":[],"outputs":[],"stateMutability":"payable"},{"type":"function","name":"checkIfTraitIsEquipped","inputs":[{"name":"_chonkId","type":"uint256","internalType":"uint256"},{"name":"_traitId","type":"uint256","internalType":"uint256"}],"outputs":[{"name":"","type":"bool","internalType":"bool"}],"stateMutability":"view"},{"type":"function","name":"chonkIdToApprovedOperators","inputs":[{"name":"chonkId","type":"uint256","internalType":"uint256"},{"name":"","type":"uint256","internalType":"uint256"}],"outputs":[{"name":"operators","type":"address","internalType":"address"}],"stateMutability":"view"},{"type":"function","name":"chonkMakeover","inputs":[{"name":"_chonkTokenId","type":"uint256","internalType":"uint256"},{"name":"_headTokenId","type":"uint256","internalType":"uint256"},{"name":"_hairTokenId","type":"uint256","internalType":"uint256"},{"name":"_faceTokenId","type":"uint256","internalType":"uint256"},{"name":"_accessoryTokenId","type":"uint256","internalType":"uint256"},{"name":"_topTokenId","type":"uint256","internalType":"uint256"},{"name":"_bottomTokenId","type":"uint256","internalType":"uint256"},{"name":"_shoesTokenId","type":"uint256","internalType":"uint256"},{"name":"_bodyIndex","type":"uint8","internalType":"uint8"},{"name":"_backgroundColor","type":"string","internalType":"string"}],"outputs":[],"stateMutability":"nonpayable"},{"type":"function","name":"chonksCreatorListMerkleRoot","inputs":[],"outputs":[{"name":"","type":"bytes32","internalType":"bytes32"}],"stateMutability":"view"},{"type":"function","name":"completeOwnershipHandover","inputs":[{"name":"pendingOwner","type":"address","internalType":"address"}],"outputs":[],"stateMutability":"payable"},{"type":"function","name":"deploymentTime","inputs":[],"outputs":[{"name":"","type":"uint256","internalType":"uint256"}],"stateMutability":"view"},{"type":"function","name":"equip","inputs":[{"name":"_chonkTokenId","type":"uint256","internalType":"uint256"},{"name":"_traitTokenId","type":"uint256","internalType":"uint256"}],"outputs":[],"stateMutability":"nonpayable"},{"type":"function","name":"equipAll","inputs":[{"name":"_chonkTokenId","type":"uint256","internalType":"uint256"},{"name":"_headTokenId","type":"uint256","internalType":"uint256"},{"name":"_hairTokenId","type":"uint256","internalType":"uint256"},{"name":"_faceTokenId","type":"uint256","internalType":"uint256"},{"name":"_accessoryTokenId","type":"uint256","internalType":"uint256"},{"name":"_topTokenId","type":"uint256","internalType":"uint256"},{"name":"_bottomTokenId","type":"uint256","internalType":"uint256"},{"name":"_shoesTokenId","type":"uint256","internalType":"uint256"}],"outputs":[],"stateMutability":"nonpayable"},{"type":"function","name":"firstSeasonRenderMinter","inputs":[],"outputs":[{"name":"","type":"address","internalType":"contract FirstSeasonRenderMinter"}],"stateMutability":"view"},{"type":"function","name":"friendsListMerkleRoot","inputs":[],"outputs":[{"name":"","type":"bytes32","internalType":"bytes32"}],"stateMutability":"view"},{"type":"function","name":"getApproved","inputs":[{"name":"tokenId","type":"uint256","internalType":"uint256"}],"outputs":[{"name":"","type":"address","internalType":"address"}],"stateMutability":"view"},{"type":"function","name":"getBackpackSVGs","inputs":[{"name":"_tokenId","type":"uint256","internalType":"uint256"}],"outputs":[{"name":"","type":"string","internalType":"string"}],"stateMutability":"view"},{"type":"function","name":"getBodyImageSvg","inputs":[{"name":"_index","type":"uint256","internalType":"uint256"}],"outputs":[{"name":"svg","type":"string","internalType":"string"}],"stateMutability":"view"},{"type":"function","name":"getBodySVGZmapsAndMetadata","inputs":[{"name":"storedChonk","type":"tuple","internalType":"struct IChonkStorage.StoredChonk","components":[{"name":"headId","type":"uint256","internalType":"uint256"},{"name":"hairId","type":"uint256","internalType":"uint256"},{"name":"faceId","type":"uint256","internalType":"uint256"},{"name":"accessoryId","type":"uint256","internalType":"uint256"},{"name":"topId","type":"uint256","internalType":"uint256"},{"name":"bottomId","type":"uint256","internalType":"uint256"},{"name":"shoesId","type":"uint256","internalType":"uint256"},{"name":"epoch","type":"uint32","internalType":"uint32"},{"name":"tokenId","type":"uint256","internalType":"uint256"},{"name":"bodyIndex","type":"uint8","internalType":"uint8"},{"name":"backgroundColor","type":"string","internalType":"string"},{"name":"render3D","type":"bool","internalType":"bool"}]}],"outputs":[{"name":"","type":"string","internalType":"string"},{"name":"","type":"bytes","internalType":"bytes"},{"name":"","type":"string","internalType":"string"}],"stateMutability":"view"},{"type":"function","name":"getBodySvgAndMetadata","inputs":[{"name":"storedChonk","type":"tuple","internalType":"struct IChonkStorage.StoredChonk","components":[{"name":"headId","type":"uint256","internalType":"uint256"},{"name":"hairId","type":"uint256","internalType":"uint256"},{"name":"faceId","type":"uint256","internalType":"uint256"},{"name":"accessoryId","type":"uint256","internalType":"uint256"},{"name":"topId","type":"uint256","internalType":"uint256"},{"name":"bottomId","type":"uint256","internalType":"uint256"},{"name":"shoesId","type":"uint256","internalType":"uint256"},{"name":"epoch","type":"uint32","internalType":"uint32"},{"name":"tokenId","type":"uint256","internalType":"uint256"},{"name":"bodyIndex","type":"uint8","internalType":"uint8"},{"name":"backgroundColor","type":"string","internalType":"string"},{"name":"render3D","type":"bool","internalType":"bool"}]}],"outputs":[{"name":"","type":"string","internalType":"string"},{"name":"","type":"string","internalType":"string"}],"stateMutability":"view"},{"type":"function","name":"getBodyZMap","inputs":[{"name":"_tokenId","type":"uint256","internalType":"uint256"}],"outputs":[{"name":"","type":"string","internalType":"string"}],"stateMutability":"view"},{"type":"function","name":"getChonk","inputs":[{"name":"_tokenId","type":"uint256","internalType":"uint256"}],"outputs":[{"name":"","type":"tuple","internalType":"struct IChonkStorage.StoredChonk","components":[{"name":"headId","type":"uint256","internalType":"uint256"},{"name":"hairId","type":"uint256","internalType":"uint256"},{"name":"faceId","type":"uint256","internalType":"uint256"},{"name":"accessoryId","type":"uint256","internalType":"uint256"},{"name":"topId","type":"uint256","internalType":"uint256"},{"name":"bottomId","type":"uint256","internalType":"uint256"},{"name":"shoesId","type":"uint256","internalType":"uint256"},{"name":"epoch","type":"uint32","internalType":"uint32"},{"name":"tokenId","type":"uint256","internalType":"uint256"},{"name":"bodyIndex","type":"uint8","internalType":"uint8"},{"name":"backgroundColor","type":"string","internalType":"string"},{"name":"render3D","type":"bool","internalType":"bool"}]}],"stateMutability":"view"},{"type":"function","name":"getChonkIdForTBAAddress","inputs":[{"name":"_tbaAddress","type":"address","internalType":"address"}],"outputs":[{"name":"","type":"uint256","internalType":"uint256"}],"stateMutability":"view"},{"type":"function","name":"getChonkIdToApprovedOperators","inputs":[{"name":"_chonkId","type":"uint256","internalType":"uint256"}],"outputs":[{"name":"","type":"address[]","internalType":"address[]"}],"stateMutability":"view"},{"type":"function","name":"getChonkZMap","inputs":[{"name":"_tokenId","type":"uint256","internalType":"uint256"}],"outputs":[{"name":"","type":"string","internalType":"string"}],"stateMutability":"view"},{"type":"function","name":"getFullPictureForTrait","inputs":[{"name":"_chonkTraitTokenId","type":"uint256","internalType":"uint256"}],"outputs":[{"name":"traitOwnerTBA","type":"address","internalType":"address"},{"name":"chonkTokenId","type":"uint256","internalType":"uint256"},{"name":"chonkOwner","type":"address","internalType":"address"},{"name":"isEquipped","type":"bool","internalType":"bool"}],"stateMutability":"view"},{"type":"function","name":"getOwnerAndTBAAddressForChonkId","inputs":[{"name":"_chonkId","type":"uint256","internalType":"uint256"}],"outputs":[{"name":"owner","type":"address","internalType":"address"},{"name":"tbaAddress","type":"address","internalType":"address"}],"stateMutability":"view"},{"type":"function","name":"getTBAAddressForChonkId","inputs":[{"name":"_chonkId","type":"uint256","internalType":"uint256"}],"outputs":[{"name":"","type":"address","internalType":"address"}],"stateMutability":"view"},{"type":"function","name":"getTokenRenderZ","inputs":[{"name":"_chonkTokenId","type":"uint256","internalType":"uint256"}],"outputs":[{"name":"","type":"bool","internalType":"bool"}],"stateMutability":"view"},{"type":"function","name":"getTraitsForChonkId","inputs":[{"name":"_chonkId","type":"uint256","internalType":"uint256"}],"outputs":[{"name":"traitTokens","type":"uint256[]","internalType":"uint256[]"}],"stateMutability":"view"},{"type":"function","name":"isApprovedForAll","inputs":[{"name":"owner","type":"address","internalType":"address"},{"name":"operator","type":"address","internalType":"address"}],"outputs":[{"name":"","type":"bool","internalType":"bool"}],"stateMutability":"view"},{"type":"function","name":"isTimelocked","inputs":[],"outputs":[{"name":"","type":"bool","internalType":"bool"}],"stateMutability":"view"},{"type":"function","name":"mainRenderer2D","inputs":[],"outputs":[{"name":"","type":"address","internalType":"contract MainRenderer2D"}],"stateMutability":"view"},{"type":"function","name":"mainRenderer3D","inputs":[],"outputs":[{"name":"","type":"address","internalType":"contract MainRenderer3D"}],"stateMutability":"view"},{"type":"function","name":"marketplace","inputs":[],"outputs":[{"name":"","type":"address","internalType":"contract ChonksMarket"}],"stateMutability":"view"},{"type":"function","name":"maxTraitsToOutput","inputs":[],"outputs":[{"name":"","type":"uint256","internalType":"uint256"}],"stateMutability":"view"},{"type":"function","name":"mint","inputs":[{"name":"_amount","type":"uint256","internalType":"uint256"},{"name":"_merkleProof","type":"bytes32[]","internalType":"bytes32[]"}],"outputs":[],"stateMutability":"payable"},{"type":"function","name":"mintStartTime","inputs":[],"outputs":[{"name":"","type":"uint256","internalType":"uint256"}],"stateMutability":"view"},{"type":"function","name":"name","inputs":[],"outputs":[{"name":"","type":"string","internalType":"string"}],"stateMutability":"view"},{"type":"function","name":"oneYearFromDeployment","inputs":[],"outputs":[{"name":"","type":"uint256","internalType":"uint256"}],"stateMutability":"view"},{"type":"function","name":"owner","inputs":[],"outputs":[{"name":"result","type":"address","internalType":"address"}],"stateMutability":"view"},{"type":"function","name":"ownerOf","inputs":[{"name":"tokenId","type":"uint256","internalType":"uint256"}],"outputs":[{"name":"","type":"address","internalType":"address"}],"stateMutability":"view"},{"type":"function","name":"ownershipHandoverExpiresAt","inputs":[{"name":"pendingOwner","type":"address","internalType":"address"}],"outputs":[{"name":"result","type":"uint256","internalType":"uint256"}],"stateMutability":"view"},{"type":"function","name":"price","inputs":[],"outputs":[{"name":"","type":"uint256","internalType":"uint256"}],"stateMutability":"view"},{"type":"function","name":"renderAsDataUri","inputs":[{"name":"_tokenId","type":"uint256","internalType":"uint256"}],"outputs":[{"name":"","type":"string","internalType":"string"}],"stateMutability":"view"},{"type":"function","name":"renderAsDataUri2D","inputs":[{"name":"_tokenId","type":"uint256","internalType":"uint256"}],"outputs":[{"name":"","type":"string","internalType":"string"}],"stateMutability":"view"},{"type":"function","name":"renderAsDataUri3D","inputs":[{"name":"_tokenId","type":"uint256","internalType":"uint256"}],"outputs":[{"name":"","type":"string","internalType":"string"}],"stateMutability":"view"},{"type":"function","name":"renounceOwnership","inputs":[],"outputs":[],"stateMutability":"payable"},{"type":"function","name":"requestOwnershipHandover","inputs":[],"outputs":[],"stateMutability":"payable"},{"type":"function","name":"safeTransferFrom","inputs":[{"name":"from","type":"address","internalType":"address"},{"name":"to","type":"address","internalType":"address"},{"name":"tokenId","type":"uint256","internalType":"uint256"}],"outputs":[],"stateMutability":"nonpayable"},{"type":"function","name":"safeTransferFrom","inputs":[{"name":"from","type":"address","internalType":"address"},{"name":"to","type":"address","internalType":"address"},{"name":"tokenId","type":"uint256","internalType":"uint256"},{"name":"data","type":"bytes","internalType":"bytes"}],"outputs":[],"stateMutability":"nonpayable"},{"type":"function","name":"setApprovalForAll","inputs":[{"name":"_operator","type":"address","internalType":"address"},{"name":"_approved","type":"bool","internalType":"bool"}],"outputs":[],"stateMutability":"nonpayable"},{"type":"function","name":"setApprovalForAllChonksMarketplace","inputs":[{"name":"_chonkId","type":"uint256","internalType":"uint256"},{"name":"_operator","type":"address","internalType":"address"},{"name":"_approved","type":"bool","internalType":"bool"}],"outputs":[],"stateMutability":"nonpayable"},{"type":"function","name":"setBackgroundColor","inputs":[{"name":"_chonkTokenId","type":"uint256","internalType":"uint256"},{"name":"_color","type":"string","internalType":"string"}],"outputs":[],"stateMutability":"nonpayable"},{"type":"function","name":"setBodyIndex","inputs":[{"name":"_chonkTokenId","type":"uint256","internalType":"uint256"},{"name":"_bodyIndex","type":"uint8","internalType":"uint8"}],"outputs":[],"stateMutability":"nonpayable"},{"type":"function","name":"setChonksCreatorListMerkleRoot","inputs":[{"name":"_merkleRoot","type":"bytes32","internalType":"bytes32"}],"outputs":[],"stateMutability":"nonpayable"},{"type":"function","name":"setFirstSeasonRenderMinter","inputs":[{"name":"_dataContract","type":"address","internalType":"address"}],"outputs":[],"stateMutability":"nonpayable"},{"type":"function","name":"setFriendsListMerkleRoot","inputs":[{"name":"_merkleRoot","type":"bytes32","internalType":"bytes32"}],"outputs":[],"stateMutability":"nonpayable"},{"type":"function","name":"setMainRenderer2D","inputs":[{"name":"_mainRenderer2D","type":"address","internalType":"address"}],"outputs":[],"stateMutability":"nonpayable"},{"type":"function","name":"setMainRenderer3D","inputs":[{"name":"_mainRenderer3D","type":"address","internalType":"address"}],"outputs":[],"stateMutability":"nonpayable"},{"type":"function","name":"setMarketplace","inputs":[{"name":"_marketplace","type":"address","internalType":"address"}],"outputs":[],"stateMutability":"nonpayable"},{"type":"function","name":"setMaxTraitsToOutput","inputs":[{"name":"_maxTraitsToOutput","type":"uint256","internalType":"uint256"}],"outputs":[],"stateMutability":"nonpayable"},{"type":"function","name":"setMintStartTime","inputs":[{"name":"_mintStartTime","type":"uint256","internalType":"uint256"}],"outputs":[],"stateMutability":"nonpayable"},{"type":"function","name":"setPrice","inputs":[{"name":"_priceInWei","type":"uint256","internalType":"uint256"}],"outputs":[],"stateMutability":"nonpayable"},{"type":"function","name":"setSpecialCollectionMerkleRoot","inputs":[{"name":"_merkleRoot","type":"bytes32","internalType":"bytes32"}],"outputs":[],"stateMutability":"nonpayable"},{"type":"function","name":"setTokenRender3D","inputs":[{"name":"_chonkTokenId","type":"uint256","internalType":"uint256"},{"name":"_render3D","type":"bool","internalType":"bool"}],"outputs":[],"stateMutability":"nonpayable"},{"type":"function","name":"setTraitsContract","inputs":[{"name":"_address","type":"address","internalType":"contract ChonkTraits"}],"outputs":[],"stateMutability":"nonpayable"},{"type":"function","name":"setWithdrawAddress","inputs":[{"name":"_withdrawAddress","type":"address","internalType":"address"}],"outputs":[],"stateMutability":"nonpayable"},{"type":"function","name":"specialCollectionMerkleRoot","inputs":[],"outputs":[{"name":"","type":"bytes32","internalType":"bytes32"}],"stateMutability":"view"},{"type":"function","name":"supportsInterface","inputs":[{"name":"interfaceId","type":"bytes4","internalType":"bytes4"}],"outputs":[{"name":"","type":"bool","internalType":"bool"}],"stateMutability":"view"},{"type":"function","name":"symbol","inputs":[],"outputs":[{"name":"","type":"string","internalType":"string"}],"stateMutability":"view"},{"type":"function","name":"tbaAddressToTokenId","inputs":[{"name":"","type":"address","internalType":"address"}],"outputs":[{"name":"","type":"uint256","internalType":"uint256"}],"stateMutability":"view"},{"type":"function","name":"teamMint","inputs":[{"name":"_to","type":"address","internalType":"address"},{"name":"_amount","type":"uint256","internalType":"uint256"},{"name":"_traitCount","type":"uint8","internalType":"uint8"}],"outputs":[],"stateMutability":"nonpayable"},{"type":"function","name":"tokenByIndex","inputs":[{"name":"index","type":"uint256","internalType":"uint256"}],"outputs":[{"name":"","type":"uint256","internalType":"uint256"}],"stateMutability":"view"},{"type":"function","name":"tokenIdToTBAAccountAddress","inputs":[{"name":"","type":"uint256","internalType":"uint256"}],"outputs":[{"name":"","type":"address","internalType":"address"}],"stateMutability":"view"},{"type":"function","name":"tokenOfOwnerByIndex","inputs":[{"name":"owner","type":"address","internalType":"address"},{"name":"index","type":"uint256","internalType":"uint256"}],"outputs":[{"name":"","type":"uint256","internalType":"uint256"}],"stateMutability":"view"},{"type":"function","name":"tokenURI","inputs":[{"name":"_tokenId","type":"uint256","internalType":"uint256"}],"outputs":[{"name":"","type":"string","internalType":"string"}],"stateMutability":"view"},{"type":"function","name":"totalSupply","inputs":[],"outputs":[{"name":"","type":"uint256","internalType":"uint256"}],"stateMutability":"view"},{"type":"function","name":"traitsContract","inputs":[],"outputs":[{"name":"","type":"address","internalType":"contract ChonkTraits"}],"stateMutability":"view"},{"type":"function","name":"transferFrom","inputs":[{"name":"from","type":"address","internalType":"address"},{"name":"to","type":"address","internalType":"address"},{"name":"tokenId","type":"uint256","internalType":"uint256"}],"outputs":[],"stateMutability":"nonpayable"},{"type":"function","name":"transferOwnership","inputs":[{"name":"newOwner","type":"address","internalType":"address"}],"outputs":[],"stateMutability":"payable"},{"type":"function","name":"unequip","inputs":[{"name":"_chonkTokenId","type":"uint256","internalType":"uint256"},{"name":"traitType","type":"uint8","internalType":"enum TraitCategory.Name"}],"outputs":[],"stateMutability":"nonpayable"},{"type":"function","name":"unequipAll","inputs":[{"name":"_chonkTokenId","type":"uint256","internalType":"uint256"}],"outputs":[],"stateMutability":"nonpayable"},{"type":"function","name":"walletOfOwner","inputs":[{"name":"_owner","type":"address","internalType":"address"}],"outputs":[{"name":"","type":"uint256[]","internalType":"uint256[]"}],"stateMutability":"view"},{"type":"function","name":"withdraw","inputs":[],"outputs":[],"stateMutability":"nonpayable"},{"type":"function","name":"withdrawAddress","inputs":[],"outputs":[{"name":"","type":"address","internalType":"address"}],"stateMutability":"view"},{"type":"event","name":"Approval","inputs":[{"name":"owner","type":"address","indexed":true,"internalType":"address"},{"name":"approved","type":"address","indexed":true,"internalType":"address"},{"name":"tokenId","type":"uint256","indexed":true,"internalType":"uint256"}],"anonymous":false},{"type":"event","name":"ApprovalForAll","inputs":[{"name":"owner","type":"address","indexed":true,"internalType":"address"},{"name":"operator","type":"address","indexed":true,"internalType":"address"},{"name":"approved","type":"bool","indexed":false,"internalType":"bool"}],"anonymous":false},{"type":"event","name":"BackgroundColor","inputs":[{"name":"owner","type":"address","indexed":true,"internalType":"address"},{"name":"tokenId","type":"uint256","indexed":true,"internalType":"uint256"},{"name":"color","type":"string","indexed":false,"internalType":"string"}],"anonymous":false},{"type":"event","name":"BatchMetadataUpdate","inputs":[{"name":"_fromTokenId","type":"uint256","indexed":false,"internalType":"uint256"},{"name":"_toTokenId","type":"uint256","indexed":false,"internalType":"uint256"}],"anonymous":false},{"type":"event","name":"BodyIndex","inputs":[{"name":"owner","type":"address","indexed":true,"internalType":"address"},{"name":"tokenId","type":"uint256","indexed":true,"internalType":"uint256"},{"name":"_bodyIndex","type":"uint8","indexed":false,"internalType":"uint8"}],"anonymous":false},{"type":"event","name":"Equip","inputs":[{"name":"owner","type":"address","indexed":true,"internalType":"address"},{"name":"tokenId","type":"uint256","indexed":true,"internalType":"uint256"},{"name":"traitTokenId","type":"uint256","indexed":true,"internalType":"uint256"},{"name":"traitCategory","type":"uint8","indexed":false,"internalType":"uint8"}],"anonymous":false},{"type":"event","name":"EquipAll","inputs":[{"name":"owner","type":"address","indexed":true,"internalType":"address"},{"name":"tokenId","type":"uint256","indexed":true,"internalType":"uint256"}],"anonymous":false},{"type":"event","name":"MetadataUpdate","inputs":[{"name":"_tokenId","type":"uint256","indexed":false,"internalType":"uint256"}],"anonymous":false},{"type":"event","name":"Mint","inputs":[{"name":"owner","type":"address","indexed":true,"internalType":"address"},{"name":"tokenId","type":"uint256","indexed":true,"internalType":"uint256"}],"anonymous":false},{"type":"event","name":"OwnershipHandoverCanceled","inputs":[{"name":"pendingOwner","type":"address","indexed":true,"internalType":"address"}],"anonymous":false},{"type":"event","name":"OwnershipHandoverRequested","inputs":[{"name":"pendingOwner","type":"address","indexed":true,"internalType":"address"}],"anonymous":false},{"type":"event","name":"OwnershipTransferred","inputs":[{"name":"oldOwner","type":"address","indexed":true,"internalType":"address"},{"name":"newOwner","type":"address","indexed":true,"internalType":"address"}],"anonymous":false},{"type":"event","name":"Render3D","inputs":[{"name":"owner","type":"address","indexed":true,"internalType":"address"},{"name":"tokenId","type":"uint256","indexed":true,"internalType":"uint256"},{"name":"renderZ","type":"bool","indexed":false,"internalType":"bool"}],"anonymous":false},{"type":"event","name":"Transfer","inputs":[{"name":"from","type":"address","indexed":true,"internalType":"address"},{"name":"to","type":"address","indexed":true,"internalType":"address"},{"name":"tokenId","type":"uint256","indexed":true,"internalType":"uint256"}],"anonymous":false},{"type":"event","name":"Unequip","inputs":[{"name":"owner","type":"address","indexed":true,"internalType":"address"},{"name":"tokenId","type":"uint256","indexed":true,"internalType":"uint256"},{"name":"traitCategory","type":"uint8","indexed":false,"internalType":"uint8"}],"anonymous":false},{"type":"event","name":"UnequipAll","inputs":[{"name":"owner","type":"address","indexed":true,"internalType":"address"},{"name":"tokenId","type":"uint256","indexed":true,"internalType":"uint256"}],"anonymous":false},{"type":"error","name":"AlreadyInitialized","inputs":[]},{"type":"error","name":"BodyAlreadyExists","inputs":[]},{"type":"error","name":"CantBeZero","inputs":[]},{"type":"error","name":"CantTransfer","inputs":[]},{"type":"error","name":"CantTransferToTBAs","inputs":[]},{"type":"error","name":"ChonkDoesntExist","inputs":[]},{"type":"error","name":"FirstSeasonRenderMinterNotSet","inputs":[]},{"type":"error","name":"IncorrectChonkOwner","inputs":[]},{"type":"error","name":"IncorrectTBAOwner","inputs":[]},{"type":"error","name":"IncorrectTraitType","inputs":[]},{"type":"error","name":"InsufficientFunds","inputs":[]},{"type":"error","name":"InvalidBodyIndex","inputs":[]},{"type":"error","name":"InvalidColor","inputs":[]},{"type":"error","name":"InvalidLevelAmount","inputs":[]},{"type":"error","name":"InvalidSignature","inputs":[]},{"type":"error","name":"InvalidTraitCount","inputs":[]},{"type":"error","name":"MintEnded","inputs":[]},{"type":"error","name":"MintNotStarted","inputs":[]},{"type":"error","name":"NewOwnerIsZeroAddress","inputs":[]},{"type":"error","name":"NoHandoverRequest","inputs":[]},{"type":"error","name":"NonceAlreadyUsed","inputs":[]},{"type":"error","name":"TenIsMaxMint","inputs":[]},{"type":"error","name":"Timelocked","inputs":[]},{"type":"error","name":"Unauthorized","inputs":[]},{"type":"error","name":"UseUnequip","inputs":[]},{"type":"error","name":"WithdrawFailed","inputs":[]}],"bytecode":{"object":"0x60a060405260636015553480156200001657600080fd5b506040516200622b3803806200622b833981016040819052620000399162000101565b6040518060400160405280600681526020016543686f6e6b7360d01b8152506040518060400160405280600681526020016543484f4e4b5360d01b8152508160009081620000889190620001d3565b506001620000978282620001d3565b50506001600a5550620000aa33620000c5565b42608052600b805460ff19169115159190911790556200029f565b6001600160a01b0316638b78c6d8198190558060007f8be0079c531659141344cd1fd0a4f28419497f9722a3daafe3b4186f6b6457e08180a350565b6000602082840312156200011457600080fd5b815180151581146200012557600080fd5b9392505050565b634e487b7160e01b600052604160045260246000fd5b600181811c908216806200015757607f821691505b6020821081036200017857634e487b7160e01b600052602260045260246000fd5b50919050565b601f821115620001ce576000816000526020600020601f850160051c81016020861015620001a95750805b601f850160051c820191505b81811015620001ca57828155600101620001b5565b5050505b505050565b81516001600160401b03811115620001ef57620001ef6200012c565b620002078162000200845462000142565b846200017e565b602080601f8311600181146200023f5760008415620002265750858301515b600019600386901b1c1916600185901b178555620001ca565b600085815260208120601f198616915b8281101562000270578886015182559484019460019091019084016200024f565b50858210156200028f5787850151600019600388901b60f8161c191681555b5050505050600190811b01905550565b608051615f69620002c260003960008181610f560152612fe90152615f696000f3fe6080604052600436106104ca5760003560e01c80638472cbca11610276578063bef1dfb71161014f578063e29babbb116100c1578063f2361e2311610085578063f2361e2314610f8b578063f2fde38b14610fab578063f3f8efb914610fbe578063f4bec0b614610fde578063f6a0c93214610ffe578063fee81cf41461103457600080fd5b8063e29babbb14610ec5578063e3d2155514610ee5578063e985e9c514610efb578063ecda10f514610f44578063f04e283e14610f7857600080fd5b8063d59752eb11610113578063d59752eb14610e1a578063d5b3621b14610e2f578063d68c4f3214610e4f578063dceef0ec14610e6f578063deab1d3614610e8f578063e140554014610ea557600080fd5b8063bef1dfb714610d6d578063c093afdb14610d8d578063c87b56dd14610dad578063cdb6dd5c14610dcd578063d3d6873e14610ded57600080fd5b80639f6e4637116101e8578063a4bf9a00116101ac578063a4bf9a0014610cad578063abc8c7af14610cda578063b66ef6e314610cfa578063b88d4fde14610d1a578063b99ce71f14610d3a578063ba41b0c614610d5a57600080fd5b80639f6e463714610c09578063a035b1fe14610c29578063a1d6268014610c3f578063a22cb46514610c5f578063a23830ae14610c7f57600080fd5b806391b7f5ed1161023a57806391b7f5ed14610b4457806392012f0814610b64578063931e2e4914610b9357806395d89b4114610ba95780639c05d68d14610bbe5780639c7be2f114610bf457600080fd5b80638472cbca14610a9f5780638aa1e4c814610ad55780638da5cb5b14610af55780638f22475714610b0e578063916c546b14610b2457600080fd5b80633ccfd60b116103a85780635eabd84a1161031a57806370a08231116102de57806370a08231146109ee578063715018a614610a0e57806373ad6c2d14610a165780637684ef0d14610a365780637e2e6c4714610a4c5780638200ea5114610a6c57600080fd5b80635eabd84a1461090c5780636352211e1461092c578063667043491461094c57806367d2afe2146109a15780636e51665f146109ce57600080fd5b80634f6ccce71161036c5780634f6ccce71461086f57806350b031461461088f57806354d1f13d146108a4578063550ab247146108ac57806355737f35146108cc57806358a97640146108ec57600080fd5b80633ccfd60b146107d757806342842e0e146107ec578063438b63001461080c5780634a4333a3146108395780634a60f6201461085957600080fd5b80631ab37512116104415780633044825b116104055780633044825b14610717578063306c73341461073757806330f6c5211461075757806332875aa01461077757806333d3d9bf146107975780633ab1a494146107b757600080fd5b80631ab375121461068f57806323b872dd146106af57806325692962146106cf57806328257532146106d75780632f745c59146106f757600080fd5b8063095ea7b311610493578063095ea7b3146105c05780630c83f9d7146105e057806313ea0ae31461061057806314fe8ff4146106305780631581b6001461065057806318160ddd1461067057600080fd5b8062179206146104cf57806301ffc9a7146104f157806304003bd01461052657806306fdde0314610566578063081812fc14610588575b600080fd5b3480156104db57600080fd5b506104ef6104ea366004614dde565b611067565b005b3480156104fd57600080fd5b5061051161050c366004614e11565b6110b7565b60405190151581526020015b60405180910390f35b34801561053257600080fd5b50610546610541366004614e2e565b6110c8565b604080516001600160a01b0393841681529290911660208301520161051d565b34801561057257600080fd5b5061057b6110f7565b60405161051d9190614e97565b34801561059457600080fd5b506105a86105a3366004614e2e565b611189565b6040516001600160a01b03909116815260200161051d565b3480156105cc57600080fd5b506104ef6105db366004614eaa565b6111b0565b3480156105ec57600080fd5b506106006105fb366004614e2e565b611201565b60405161051d9493929190614ed6565b34801561061c57600080fd5b506012546105a8906001600160a01b031681565b34801561063c57600080fd5b5061057b61064b366004614e2e565b6113c2565b34801561065c57600080fd5b506017546105a8906001600160a01b031681565b34801561067c57600080fd5b506008545b60405190815260200161051d565b34801561069b57600080fd5b506104ef6106aa366004614e2e565b611606565b3480156106bb57600080fd5b506104ef6106ca366004614f20565b611613565b6104ef611652565b3480156106e357600080fd5b506104ef6106f2366004614f61565b6116a1565b34801561070357600080fd5b50610681610712366004614eaa565b61189a565b34801561072357600080fd5b506104ef610732366004614e2e565b611930565b34801561074357600080fd5b5061057b610752366004614e2e565b6119eb565b34801561076357600080fd5b506104ef610772366004615085565b611a0e565b34801561078357600080fd5b5061057b610792366004614e2e565b611a7a565b3480156107a357600080fd5b506104ef6107b2366004614e2e565b611b3e565b3480156107c357600080fd5b506104ef6107d2366004614dde565b611b4b565b3480156107e357600080fd5b506104ef611b75565b3480156107f857600080fd5b506104ef610807366004614f20565b611bf4565b34801561081857600080fd5b5061082c610827366004614dde565b611c0f565b60405161051d9190615121565b34801561084557600080fd5b506104ef610854366004615165565b611ca6565b34801561086557600080fd5b5061068160165481565b34801561087b57600080fd5b5061068161088a366004614e2e565b611fc1565b34801561089b57600080fd5b50610511612054565b6104ef612065565b3480156108b857600080fd5b506104ef6108c73660046151ca565b6120a1565b3480156108d857600080fd5b506105a86108e7366004614f61565b6120f7565b3480156108f857600080fd5b506104ef610907366004614dde565b61212f565b34801561091857600080fd5b506104ef610927366004614dde565b61217f565b34801561093857600080fd5b506105a8610947366004614e2e565b6121cf565b34801561095857600080fd5b5061096c610967366004614e2e565b61222f565b60405161051d94939291906001600160a01b039485168152602081019390935292166040820152901515606082015260800190565b3480156109ad57600080fd5b506109c16109bc366004614e2e565b6122e1565b60405161051d919061524d565b3480156109da57600080fd5b506104ef6109e9366004615260565b61234d565b3480156109fa57600080fd5b50610681610a09366004614dde565b6123f1565b6104ef612477565b348015610a2257600080fd5b506104ef610a31366004614dde565b61248b565b348015610a4257600080fd5b50610681601f5481565b348015610a5857600080fd5b506104ef610a67366004614dde565b6124db565b348015610a7857600080fd5b50610511610a87366004614e2e565b6000908152600c60205260409020600b015460ff1690565b348015610aab57600080fd5b50610681610aba366004614dde565b6001600160a01b03166000908152601b602052604090205490565b348015610ae157600080fd5b50610511610af0366004614f61565b61252b565b348015610b0157600080fd5b50638b78c6d819546105a8565b348015610b1a57600080fd5b50610681601e5481565b348015610b3057600080fd5b5061057b610b3f366004614e2e565b61259a565b348015610b5057600080fd5b506104ef610b5f366004614e2e565b61269d565b348015610b7057600080fd5b50610b84610b7f3660046152a9565b6126aa565b60405161051d939291906153a2565b348015610b9f57600080fd5b5061068160195481565b348015610bb557600080fd5b5061057b6127fb565b348015610bca57600080fd5b506105a8610bd9366004614e2e565b601a602052600090815260409020546001600160a01b031681565b348015610c0057600080fd5b506104ef61280a565b348015610c1557600080fd5b5061082c610c24366004614e2e565b612837565b348015610c3557600080fd5b5061068160185481565b348015610c4b57600080fd5b5061057b610c5a366004614e2e565b6128c6565b348015610c6b57600080fd5b506104ef610c7a3660046153db565b6128f6565b348015610c8b57600080fd5b50610c9f610c9a3660046152a9565b61296f565b60405161051d929190615410565b348015610cb957600080fd5b50610681610cc8366004614dde565b601b6020526000908152604090205481565b348015610ce657600080fd5b506011546105a8906001600160a01b031681565b348015610d0657600080fd5b506014546105a8906001600160a01b031681565b348015610d2657600080fd5b506104ef610d3536600461543e565b612a1d565b348015610d4657600080fd5b506104ef610d55366004614e2e565b612a4f565b6104ef610d683660046154cc565b612a5c565b348015610d7957600080fd5b506104ef610d88366004615568565b612b89565b348015610d9957600080fd5b506010546105a8906001600160a01b031681565b348015610db957600080fd5b5061057b610dc8366004614e2e565b612c34565b348015610dd957600080fd5b506104ef610de8366004615598565b612c75565b348015610df957600080fd5b50610e0d610e08366004614e2e565b612e39565b60405161051d91906155c8565b348015610e2657600080fd5b50610681612fe2565b348015610e3b57600080fd5b506104ef610e4a366004614e2e565b613017565b348015610e5b57600080fd5b506104ef610e6a36600461567f565b613024565b348015610e7b57600080fd5b5061057b610e8a366004614e2e565b61323d565b348015610e9b57600080fd5b50610681601d5481565b348015610eb157600080fd5b506104ef610ec03660046156c5565b6134e3565b348015610ed157600080fd5b506104ef610ee0366004614e2e565b6135ab565b348015610ef157600080fd5b5061068160155481565b348015610f0757600080fd5b50610511610f163660046156e8565b6001600160a01b03918216600090815260056020908152604080832093909416825291909152205460ff1690565b348015610f5057600080fd5b506106817f000000000000000000000000000000000000000000000000000000000000000081565b6104ef610f86366004614dde565b6135b8565b348015610f9757600080fd5b506104ef610fa6366004615716565b6135f5565b6104ef610fb9366004614dde565b613668565b348015610fca57600080fd5b5061057b610fd9366004614e2e565b61368f565b348015610fea57600080fd5b506013546105a8906001600160a01b031681565b34801561100a57600080fd5b506105a8611019366004614e2e565b6000908152601a60205260409020546001600160a01b031690565b34801561104057600080fd5b5061068161104f366004614dde565b63389a75e1600c908152600091909152602090205490565b61106f613910565b611077612054565b156110955760405163774ae17d60e01b815260040160405180910390fd5b601480546001600160a01b0319166001600160a01b0392909216919091179055565b60006110c28261392b565b92915050565b6000806110d4836121cf565b6000938452601a60205260409093205492936001600160a01b0390931692915050565b6060600080546111069061579b565b80601f01602080910402602001604051908101604052809291908181526020018280546111329061579b565b801561117f5780601f106111545761010080835404028352916020019161117f565b820191906000526020600020905b81548152906001019060200180831161116257829003601f168201915b5050505050905090565b600061119482613950565b506000908152600460205260409020546001600160a01b031690565b6111b9816121cf565b6001600160a01b0316336001600160a01b0316146111e9576040516282b42960e81b815260040160405180910390fd5b6111f381836139af565b6111fd82826139ee565b5050565b600f60205260009081526040902080546001820180549192916112239061579b565b80601f016020809104026020016040519081016040528092919081815260200182805461124f9061579b565b801561129c5780601f106112715761010080835404028352916020019161129c565b820191906000526020600020905b81548152906001019060200180831161127f57829003601f168201915b5050505050908060020180546112b19061579b565b80601f01602080910402602001604051908101604052809291908181526020018280546112dd9061579b565b801561132a5780601f106112ff5761010080835404028352916020019161132a565b820191906000526020600020905b81548152906001019060200180831161130d57829003601f168201915b50505050509080600301805461133f9061579b565b80601f016020809104026020016040519081016040528092919081815260200182805461136b9061579b565b80156113b85780601f1061138d576101008083540402835291602001916113b8565b820191906000526020600020905b81548152906001019060200180831161139b57829003601f168201915b5050505050905084565b606060006113cf83612837565b90506000601060009054906101000a90046001600160a01b03166001600160a01b0316635c1ef2566040518163ffffffff1660e01b8152600401600060405180830381865afa158015611426573d6000803e3d6000fd5b505050506040513d6000823e601f3d908101601f1916820160405261144e919081019061581a565b9050600060155483511061146457601554611467565b82515b90506000816001600160401b0381111561148357611483614f99565b6040519080825280602002602001820160405280156114b657816020015b60608152602001906001900390816114a15790505b50905060005b8281101561157d5760105485516001600160a01b039091169063c7791531908790849081106114ed576114ed61584e565b60200260200101516040518263ffffffff1660e01b815260040161151391815260200190565b600060405180830381865afa158015611530573d6000803e3d6000fd5b505050506040513d6000823e601f3d908101601f19168201604052611558919081019061581a565b82828151811061156a5761156a61584e565b60209081029190910101526001016114bc565b506013548451601554604051631719ff8760e11b81526001600160a01b0390931692632e33ff0e926115b792889287929190600401615864565b600060405180830381865afa1580156115d4573d6000803e3d6000fd5b505050506040513d6000823e601f3d908101601f191682016040526115fc919081019061581a565b9695505050505050565b61160e613910565b601e55565b61161d3382613a5c565b6116425760405162461bcd60e51b8152600401611639906158e5565b60405180910390fd5b61164d838383613ada565b505050565b60006202a3006001600160401b03164201905063389a75e1600c5233600052806020600c2055337fdbf36a107da19e49527a7176a1babf963b4b0ff8cde35ee35d6cd8f1f9ac7e1d600080a250565b816116ab816121cf565b6001600160a01b0316336001600160a01b0316146116dc57604051631431735b60e21b815260040160405180910390fd5b816000036116fd57604051630754c7f360e41b815260040160405180910390fd5b60006117098484613c87565b9050600181600781111561171f5761171f615933565b03611736576000848152600c602052604090208390555b600281600781111561174a5761174a615933565b03611764576000848152600c602052604090206001018390555b600381600781111561177857611778615933565b03611792576000848152600c602052604090206002018390555b60048160078111156117a6576117a6615933565b036117c0576000848152600c602052604090206003018390555b60058160078111156117d4576117d4615933565b036117ee576000848152600c602052604090206004018390555b600681600781111561180257611802615933565b0361181c576000848152600c602052604090206005018390555b600781600781111561183057611830615933565b0361184a576000848152600c602052604090206006018390555b8284611855866121cf565b6001600160a01b0316600080516020615f1483398151915284600781111561187f5761187f615933565b60405160ff909116815260200160405180910390a450505050565b60006118a5836123f1565b82106119075760405162461bcd60e51b815260206004820152602b60248201527f455243373231456e756d657261626c653a206f776e657220696e646578206f7560448201526a74206f6620626f756e647360a81b6064820152608401611639565b506001600160a01b03919091166000908152600660209081526040808320938352929052205490565b8061193a816121cf565b6001600160a01b0316336001600160a01b03161461196b57604051631431735b60e21b815260040160405180910390fd5b6000828152600c6020526040812081815560018101829055600281018290556003810182905560048101829055600581018290556006810191909155826119b1816121cf565b6001600160a01b03167f46078a2cd4c69c3b4a27bdc69fdfe03d442ebcf405f1a68e9b5df6bc3e24429760405160405180910390a3505050565b60608060006119f984612e39565b9050611a04816126aa565b5095945050505050565b89611a18816121cf565b6001600160a01b0316336001600160a01b031614611a4957604051631431735b60e21b815260040160405180910390fd5b611a598b8b8b8b8b8b8b8b611ca6565b611a638b846134e3565b611a6d8b83613024565b5050505050505050505050565b60608060606000611a8a85612e39565b9050611a95816126aa565b5060105460405163bb12d21d60e01b81529195506001600160a01b0316915063bb12d21d90611ac89084906004016155c8565b600060405180830381865afa158015611ae5573d6000803e3d6000fd5b505050506040513d6000823e601f3d908101601f19168201604052611b0d9190810190615949565b50604051909350611b259150849084906020016159d0565b6040516020818303038152906040529350505050919050565b611b46613910565b601555565b611b53613910565b601780546001600160a01b0319166001600160a01b0392909216919091179055565b611b7d613910565b6017546040516000916001600160a01b03169047908381818185875af1925050503d8060008114611bca576040519150601f19603f3d011682016040523d82523d6000602084013e611bcf565b606091505b5050905080611bf157604051631d42c86760e21b815260040160405180910390fd5b50565b61164d83838360405180602001604052806000815250612a1d565b60606000611c1c836123f1565b90506000816001600160401b03811115611c3857611c38614f99565b604051908082528060200260200182016040528015611c61578160200160208202803683370190505b50905060005b82811015611c9e57611c79858261189a565b828281518110611c8b57611c8b61584e565b6020908102919091010152600101611c67565b509392505050565b87611cb0816121cf565b6001600160a01b0316336001600160a01b031614611ce157604051631431735b60e21b815260040160405180910390fd5b6000898152600c602052604090208815611d4857611cff8a8a613d0c565b611d0a896001613e04565b888155888a611d18816121cf565b6001600160a01b0316600080516020615f14833981519152600160405160ff909116815260200160405180910390a45b8715611da557611d588a89613d0c565b611d63886002613e04565b60018101889055878a611d75816121cf565b6001600160a01b0316600080516020615f14833981519152600260405160ff909116815260200160405180910390a45b8615611e0257611db58a88613d0c565b611dc0876003613e04565b60028101879055868a611dd2816121cf565b6001600160a01b0316600080516020615f14833981519152600360405160ff909116815260200160405180910390a45b8515611e5f57611e128a87613d0c565b611e1d866004613e04565b60038101869055858a611e2f816121cf565b6001600160a01b0316600080516020615f14833981519152600460405160ff909116815260200160405180910390a45b8415611ebc57611e6f8a86613d0c565b611e7a856005613e04565b60048101859055848a611e8c816121cf565b6001600160a01b0316600080516020615f14833981519152600560405160ff909116815260200160405180910390a45b8315611f1957611ecc8a85613d0c565b611ed7846006613e04565b60058101849055838a611ee9816121cf565b6001600160a01b0316600080516020615f14833981519152600660405160ff909116815260200160405180910390a45b8215611f7657611f298a84613d0c565b611f34836007613e04565b60068101839055828a611f46816121cf565b6001600160a01b0316600080516020615f14833981519152600760405160ff909116815260200160405180910390a45b89611f808b6121cf565b6001600160a01b03167f56680590212b09eb4b72a2eba8801b037ec046dfc754538e924f5bb6a8c4db6c60405160405180910390a350505050505050505050565b6000611fcc60085490565b821061202f5760405162461bcd60e51b815260206004820152602c60248201527f455243373231456e756d657261626c653a20676c6f62616c20696e646578206f60448201526b7574206f6620626f756e647360a01b6064820152608401611639565b600882815481106120425761204261584e565b90600052602060002001549050919050565b600061205e612fe2565b4211905090565b63389a75e1600c523360005260006020600c2055337ffa7b8eab7da67f412cc9575ed43464468f9bfbae89d1675917346ca6d8fe3c92600080a2565b60006120ac846121cf565b90506001600160a01b03811633146120d6576040516282b42960e81b815260040160405180910390fd5b81156120e6576120e684846139af565b6120f1818484613f06565b50505050565b601c602052816000526040600020818154811061211357600080fd5b6000918252602090912001546001600160a01b03169150829050565b612137613910565b61213f612054565b1561215d5760405163774ae17d60e01b815260040160405180910390fd5b601280546001600160a01b0319166001600160a01b0392909216919091179055565b612187613910565b61218f612054565b156121ad5760405163774ae17d60e01b815260040160405180910390fd5b601080546001600160a01b0319166001600160a01b0392909216919091179055565b6000818152600260205260408120546001600160a01b0316806110c25760405162461bcd60e51b8152602060048201526018602482015277115490cdcc8c4e881a5b9d985b1a59081d1bdad95b88125160421b6044820152606401611639565b6010546040516331a9108f60e11b8152600481018390526000918291829182916001600160a01b0390911690636352211e90602401602060405180830381865afa158015612281573d6000803e3d6000fd5b505050506040513d601f19601f820116820180604052508101906122a591906159ff565b6001600160a01b0381166000908152601b602052604090205490945092506122cc836121cf565b91506122d8838661252b565b90509193509193565b6000818152601c602090815260409182902080548351818402810184019094528084526060939283018282801561234157602002820191906000526020600020905b81546001600160a01b03168152600190910190602001808311612323575b50505050509050919050565b612355613910565b60048160ff16108061236a575060078160ff16115b1561238857604051632258debf60e01b815260040160405180910390fd5b6019541580612398575060195442105b156123b657604051630314872760e11b815260040160405180910390fd5b6019546123c69062016da0615a32565b4211156123e65760405163124212e560e21b815260040160405180910390fd5b61164d838383613fcc565b60006001600160a01b03821661245b5760405162461bcd60e51b815260206004820152602960248201527f4552433732313a2061646472657373207a65726f206973206e6f7420612076616044820152683634b21037bbb732b960b91b6064820152608401611639565b506001600160a01b031660009081526003602052604090205490565b61247f613910565b61248960006142ec565b565b612493613910565b61249b612054565b156124b95760405163774ae17d60e01b815260040160405180910390fd5b601180546001600160a01b0319166001600160a01b0392909216919091179055565b6124e3613910565b6124eb612054565b156125095760405163774ae17d60e01b815260040160405180910390fd5b601380546001600160a01b0319166001600160a01b0392909216919091179055565b60008061253784612e39565b805190915083148061254c5750828160200151145b8061255a5750828160400151145b806125685750828160600151145b806125765750828160800151145b806125845750828160a00151145b806125925750828160c00151145b949350505050565b6013546000828152600f602052604080822090516371bed9e160e11b81526060936001600160a01b03169163e37db3c2916125db9160020190600401615ac2565b600060405180830381865afa1580156125f8573d6000803e3d6000fd5b505050506040513d6000823e601f3d908101601f19168201604052612620919081019061581a565b6013546040516335b07b7960e11b81529192506001600160a01b031690636b60f6f290612651908490600401614e97565b600060405180830381865afa15801561266e573d6000803e3d6000fd5b505050506040513d6000823e601f3d908101601f19168201604052612696919081019061581a565b9392505050565b6126a5613910565b601855565b60608060606126c084610120015160ff1661259a565b6101208501805160ff9081166000908152600f602052604080822060135494519093168252908190209051630d88d4ff60e01b81526003909201926001600160a01b031691630d88d4ff9161271d91600190910190600401615ad5565b600060405180830381865afa15801561273a573d6000803e3d6000fd5b505050506040513d6000823e601f3d908101601f19168201604052612762919081019061581a565b81805461276e9061579b565b80601f016020809104026020016040519081016040528092919081815260200182805461279a9061579b565b80156127e75780601f106127bc576101008083540402835291602001916127e7565b820191906000526020600020905b8154815290600101906020018083116127ca57829003601f168201915b505050505091509250925092509193909250565b6060600180546111069061579b565b600b5460ff16156124895760005b600a811015611bf157606061282e600482612a5c565b50600101612818565b6000818152601a6020526040812054606091906001600160a01b031660105460405162438b6360e81b81526001600160a01b03808416600483015292935091169063438b630090602401600060405180830381865afa15801561289e573d6000803e3d6000fd5b505050506040513d6000823e601f3d908101601f191682016040526126969190810190615b08565b606060006128d383612e39565b90508061016001516128ed576128e88361368f565b612696565b6126968361323d565b801561296457600061290733611c0f565b9050805160000361292a576040516282b42960e81b815260040160405180910390fd5b60005b81518110156129615761295982828151811061294b5761294b61584e565b6020026020010151856139af565b60010161292d565b50505b6111fd338383613f06565b60608061298383610120015160ff1661259a565b60135461012085015160ff166000908152600f6020526040908190209051630d88d4ff60e01b81526001600160a01b0390921691630d88d4ff916129cf91600190910190600401615ad5565b600060405180830381865afa1580156129ec573d6000803e3d6000fd5b505050506040513d6000823e601f3d908101601f19168201604052612a14919081019061581a565b91509150915091565b612a273383613a5c565b612a435760405162461bcd60e51b8152600401611639906158e5565b6120f18484848461432a565b612a57613910565b601f55565b6012546001600160a01b0316612a8557604051633390ca8960e21b815260040160405180910390fd5b81600003612aa65760405163e7195f5160e01b815260040160405180910390fd5b600a821115612ac857604051634b70da3960e01b815260040160405180910390fd5b81601854612ad69190615b8d565b3414612af55760405163356680b760e01b815260040160405180910390fd5b6040516bffffffffffffffffffffffff193360601b166020820152600490600090603401604051602081830303815290604052805190602001209050612b3e83601d548361435d565b15612b4c5760059150612b7e565b612b5983601e548361435d565b15612b675760069150612b7e565b612b7483601f548361435d565b15612b7e57600791505b6120f1338584613fcc565b81612b93816121cf565b6001600160a01b0316336001600160a01b031614612bc457604051631431735b60e21b815260040160405180910390fd5b6000838152600c60205260409020600b01805460ff191683151517905582612beb816121cf565b6001600160a01b03167f6dd9e2813f787f711671bf91b2e57a72b9b61bc279b934201f3fd29b3b5f8cbe84604051612c27911515815260200190565b60405180910390a3505050565b6000818152600260205260409020546060906001600160a01b0316612c6c57604051636461f73160e01b815260040160405180910390fd5b6110c2826128c6565b81612c7f816121cf565b6001600160a01b0316336001600160a01b031614612cb057604051631431735b60e21b815260040160405180910390fd5b6001826007811115612cc457612cc4615933565b03612cd9576000838152600c60205260408120555b6002826007811115612ced57612ced615933565b03612d05576000838152600c60205260408120600101555b6003826007811115612d1957612d19615933565b03612d31576000838152600c60205260408120600201555b6004826007811115612d4557612d45615933565b03612d5d576000838152600c60205260408120600301555b6005826007811115612d7157612d71615933565b03612d89576000838152600c60205260408120600401555b6006826007811115612d9d57612d9d615933565b03612db5576000838152600c60205260408120600501555b6007826007811115612dc957612dc9615933565b03612de1576000838152600c60205260408120600601555b82612deb846121cf565b6001600160a01b03167f3d8ac56c725fc7985e9444622a45baee28ba67d8a964045f747b465121f40e71846007811115612e2757612e27615933565b60405160ff9091168152602001612c27565b612ea860405180610180016040528060008152602001600081526020016000815260200160008152602001600081526020016000815260200160008152602001600063ffffffff16815260200160008152602001600060ff168152602001606081526020016000151581525090565b6000828152600c6020908152604091829020825161018081018452815481526001820154928101929092526002810154928201929092526003820154606082015260048201546080820152600582015460a0820152600682015460c0820152600782015463ffffffff1660e08201526008820154610100820152600982015460ff16610120820152600a8201805491929161014084019190612f499061579b565b80601f0160208091040260200160405190810160405280929190818152602001828054612f759061579b565b8015612fc25780601f10612f9757610100808354040283529160200191612fc2565b820191906000526020600020905b815481529060010190602001808311612fa557829003601f168201915b5050509183525050600b919091015460ff16151560209091015292915050565b60006130127f00000000000000000000000000000000000000000000000000000000000000006301e13380615a32565b905090565b61301f613910565b601955565b8161302e816121cf565b6001600160a01b0316336001600160a01b03161461305f57604051631431735b60e21b815260040160405180910390fd5b8151829060061461308357604051631cf7e9c560e01b815260040160405180910390fd5b60005b60068110156131d057603060f81b8282815181106130a6576130a661584e565b01602001516001600160f81b031916108015906130e75750603960f81b8282815181106130d5576130d561584e565b01602001516001600160f81b03191611155b1580156131495750604160f81b8282815181106131065761310661584e565b01602001516001600160f81b031916108015906131475750604660f81b8282815181106131355761313561584e565b01602001516001600160f81b03191611155b155b80156131aa5750606160f81b8282815181106131675761316761584e565b01602001516001600160f81b031916108015906131a85750606660f81b8282815181106131965761319661584e565b01602001516001600160f81b03191611155b155b156131c857604051631cf7e9c560e01b815260040160405180910390fd5b600101613086565b506000848152600c60205260409020600a016131ec8482615bec565b50836131f7856121cf565b6001600160a01b03167f2e34f8c0f6052b66319b4a5df14eac164c6af8a0b37f612d4304a777e1ae7a3d8560405161322f9190614e97565b60405180910390a350505050565b60608060608060608060606132736040518060800160405280606081526020016060815260200160608152602001600081525090565b600061327e8a612e39565b9050613289816126aa565b5060105460405163bb12d21d60e01b8152929a509097506001600160a01b03169063bb12d21d906132be9084906004016155c8565b600060405180830381865afa1580156132db573d6000803e3d6000fd5b505050506040513d6000823e601f3d908101601f191682016040526133039190810190615949565b604051929950909650935061331e90879087906020016159d0565b60408051601f19818403018152919052610140820151835293506133418a612837565b51606083015261012081015160ff166000908152600f60205260409020600101805461336c9061579b565b80601f01602080910402602001604051908101604052809291908181526020018280546133989061579b565b80156133e55780601f106133ba576101008083540402835291602001916133e5565b820191906000526020600020905b8154815290600101906020018083116133c857829003601f168201915b5050505050826020018190525061340e8a6000908152600c60205260409020600b015460ff1690565b61343257604051806040016040528060028152602001610c9160f21b81525061344e565b604051806040016040528060028152602001610cd160f21b8152505b604080840191909152601454905163efcc1e3160e01b81526001600160a01b039091169063efcc1e3190613490908d908c908c9089908b908a90600401615d0a565b600060405180830381865afa1580156134ad573d6000803e3d6000fd5b505050506040513d6000823e601f3d908101601f191682016040526134d5919081019061581a565b9a9950505050505050505050565b816134ed816121cf565b6001600160a01b0316336001600160a01b03161461351e57604051631431735b60e21b815260040160405180910390fd5b60048260ff161115613543576040516329ba348d60e11b815260040160405180910390fd5b6000838152600c60205260409020600901805460ff191660ff84161790558261356b816121cf565b60405160ff851681526001600160a01b0391909116907f454db5768a3f8187a5dd5e9cca100cf699d74d8a03f793d16da3932cdf34d35890602001612c27565b6135b3613910565b601d55565b6135c0613910565b63389a75e1600c52806000526020600c2080544211156135e857636f5e88186000526004601cfd5b60009055611bf1816142ec565b6135fd613910565b613605612054565b156136235760405163774ae17d60e01b815260040160405180910390fd5b6000848152600f60205260409020848155600181016136428582615bec565b50600281016136518482615bec565b50600381016136608382615bec565b505050505050565b613670613910565b8060601b61368657637448fbae6000526004601cfd5b611bf1816142ec565b606080606080606060006136a287612e39565b90506136ad8161296f565b50601054604051631be5857160e31b81529196506001600160a01b03169063df2c2b88906136df9084906004016155c8565b600060405180830381865afa1580156136fc573d6000803e3d6000fd5b505050506040513d6000823e601f3d908101601f191682016040526137249190810190615d7e565b9094509250613732876113c2565b915061375f6040518060800160405280606081526020016060815260200160608152602001600081525090565b610140820151815261377088612837565b51606082015261012082015160ff166000908152600f60205260409020600101805461379b9061579b565b80601f01602080910402602001604051908101604052809291908181526020018280546137c79061579b565b80156138145780601f106137e957610100808354040283529160200191613814565b820191906000526020600020905b8154815290600101906020018083116137f757829003601f168201915b5050505050816020018190525061383d886000908152600c60205260409020600b015460ff1690565b61386157604051806040016040528060028152602001610c9160f21b81525061387d565b604051806040016040528060028152602001610cd160f21b8152505b60408083019190915260135490516307df90cf60e11b81526001600160a01b0390911690630fbf219e906138bf908b908a908a908a908a908990600401615d0a565b600060405180830381865afa1580156138dc573d6000803e3d6000fd5b505050506040513d6000823e601f3d908101601f19168201604052613904919081019061581a565b98975050505050505050565b638b78c6d819543314612489576382b429006000526004601cfd5b60006001600160e01b0319821663780e9d6360e01b14806110c257506110c282614373565b6000818152600260205260409020546001600160a01b0316611bf15760405162461bcd60e51b8152602060048201526018602482015277115490cdcc8c4e881a5b9d985b1a59081d1bdad95b88125160421b6044820152606401611639565b6000918252601c6020908152604083208054600181018255908452922090910180546001600160a01b0319166001600160a01b03909216919091179055565b600081815260046020526040902080546001600160a01b0319166001600160a01b0384169081179091558190613a23826121cf565b6001600160a01b03167f8c5be1e5ebec7d5bd14f71427d1e84f3dd0314c0f7b2291e5b200ac8c7c3b92560405160405180910390a45050565b600080613a68836121cf565b9050806001600160a01b0316846001600160a01b03161480613aaf57506001600160a01b0380821660009081526005602090815260408083209388168352929052205460ff165b806125925750836001600160a01b0316613ac884611189565b6001600160a01b031614949350505050565b826001600160a01b0316613aed826121cf565b6001600160a01b031614613b515760405162461bcd60e51b815260206004820152602560248201527f4552433732313a207472616e736665722066726f6d20696e636f72726563742060448201526437bbb732b960d91b6064820152608401611639565b6001600160a01b038216613bb35760405162461bcd60e51b8152602060048201526024808201527f4552433732313a207472616e7366657220746f20746865207a65726f206164646044820152637265737360e01b6064820152608401611639565b613bbe8383836143c3565b613bc96000826139ee565b6001600160a01b0383166000908152600360205260408120805460019290613bf2908490615dd7565b90915550506001600160a01b0382166000908152600360205260408120805460019290613c20908490615a32565b909155505060008181526002602052604080822080546001600160a01b0319166001600160a01b0386811691821790925591518493918716917fddf252ad1be2c89b69c2b068fc378daa952ba7f163c4a11628f55a4df523b3ef91a461164d83838361479e565b6000613c938383613d0c565b60105460405163e8a1268d60e01b8152600481018490526001600160a01b039091169063e8a1268d90602401602060405180830381865afa158015613cdc573d6000803e3d6000fd5b505050506040513d601f19601f82011682018060405250810190613d009190615dea565b90506110c28282613e04565b81613d16816121cf565b6001600160a01b0316336001600160a01b031614613d4757604051631431735b60e21b815260040160405180910390fd5b6000838152601a60205260408082205460105491516331a9108f60e11b8152600481018690526001600160a01b0391821693929190911690636352211e90602401602060405180830381865afa158015613da5573d6000803e3d6000fd5b505050506040513d601f19601f82011682018060405250810190613dc991906159ff565b9050816001600160a01b0316816001600160a01b031614613dfd5760405163e6ca793160e01b815260040160405180910390fd5b5050505050565b60105460405163e8a1268d60e01b8152600481018490526000916001600160a01b03169063e8a1268d90602401602060405180830381865afa158015613e4e573d6000803e3d6000fd5b505050506040513d601f19601f82011682018060405250810190613e729190615dea565b9050816007811115613e8657613e86615933565b604051602001613e9891815260200190565b60405160208183030381529060405280519060200120816007811115613ec057613ec0615933565b604051602001613ed291815260200190565b604051602081830303815290604052805190602001201461164d57604051633e54c6fb60e11b815260040160405180910390fd5b816001600160a01b0316836001600160a01b031603613f675760405162461bcd60e51b815260206004820152601960248201527f4552433732313a20617070726f766520746f2063616c6c6572000000000000006044820152606401611639565b6001600160a01b03838116600081815260056020908152604080832094871680845294825291829020805460ff191686151590811790915591519182527f17307eab39ab6107e8899845ad3d59bd9653f200f220920489ca2b5937696c319101612c27565b60005b828110156120f1576000601660008154613fe890615e07565b91829055509050613ff985826147a8565b604051638a54c52f60e01b81527355266d75d1a14e4572138116af39863ed6596e7f600482015260006024820181905262014a34604483015230606483015260848201839052906f6551c19487814612e58fe0681377575890638a54c52f9060a4016020604051808303816000875af115801561407a573d6000803e3d6000fd5b505050506040513d601f19601f8201168201806040525081019061409e91906159ff565b6000838152601a6020908152604080832080546001600160a01b0319166001600160a01b038616908117909155808452601b90925291829020859055905163189acdbd60e31b81527341c8f39463a868d3a88af00cd0fe7102f30e44ec60048201529192509063c4d66de890602401600060405180830381600087803b15801561412757600080fd5b505af115801561413b573d6000803e3d6000fd5b50506012546040516358a2727360e01b81526001600160a01b03858116600483015260ff891660248301526000945090911691506358a27273906044016000604051808303816000875af1158015614197573d6000803e3d6000fd5b505050506040513d6000823e601f3d908101601f191682016040526141bf9190810190615b08565b6000848152600c60205260408120600881018690558251929350918391906141e9576141e961584e565b602002602001015181600601819055508160018151811061420c5761420c61584e565b602002602001015181600501819055508160028151811061422f5761422f61584e565b60200260200101518160040181905550816003815181106142525761425261584e565b6020026020010151816001018190555060058460405160200161427791815260200190565b6040516020818303038152906040528051906020012060001c61429a9190615e20565b60098201805460ff191660ff929092169190911790556040805180820190915260068152650c110d914e5160d21b6020820152600a8201906142dc9082615bec565b5050505050806001019050613fcf565b638b78c6d81980546001600160a01b039092169182907f8be0079c531659141344cd1fd0a4f28419497f9722a3daafe3b4186f6b6457e0600080a355565b614335848484613ada565b614341848484846148fe565b6120f15760405162461bcd60e51b815260040161163990615e42565b60008261436a85846149ff565b14949350505050565b60006001600160e01b031982166380ac58cd60e01b14806143a457506001600160e01b03198216635b5e139f60e01b145b806110c257506301ffc9a760e01b6001600160e01b03198316146110c2565b6001600160a01b0383166143dc5761164d838383614a3a565b6001600160a01b0382166000908152601b60205260409020541561441357604051639a42da2960e01b815260040160405180910390fd5b6000818152601a602052604080822054601054915162438b6360e81b81526001600160a01b03918216600482018190529392919091169063438b630090602401600060405180830381865afa158015614470573d6000803e3d6000fd5b505050506040513d6000823e601f3d908101601f191682016040526144989190810190615b08565b905060006144a585611c0f565b9050600081516001600160401b038111156144c2576144c2614f99565b6040519080825280602002602001820160405280156144eb578160200160208202803683370190505b50905060005b825181101561456c57601a60008483815181106145105761451061584e565b6020026020010151815260200190815260200160002060009054906101000a90046001600160a01b031682828151811061454c5761454c61584e565b6001600160a01b03909216602092830291909101909101526001016144f1565b5060115460405163644ec52760e01b8152600481018790526001600160a01b039091169063644ec52790602401600060405180830381600087803b1580156145b357600080fd5b505af11580156145c7573d6000803e3d6000fd5b5050601154604051631e92beb560e31b8152600481018990526001600160a01b038a81166024830152909116925063f495f5a89150604401600060405180830381600087803b15801561461957600080fd5b505af115801561462d573d6000803e3d6000fd5b5050505060005b83518110156147895760008482815181106146515761465161584e565b6020908102919091010151601154604051632e1d274f60e01b8152600481018390529192506001600160a01b031690632e1d274f90602401600060405180830381600087803b1580156146a357600080fd5b505af11580156146b7573d6000803e3d6000fd5b5050601154604051632333520b60e11b81526001600160a01b039091169250634666a41691506146ed9084908790600401615e94565b600060405180830381600087803b15801561470757600080fd5b505af115801561471b573d6000803e3d6000fd5b505060105460405163487b1c2160e11b8152600481018590526001600160a01b0390911692506390f638429150602401600060405180830381600087803b15801561476557600080fd5b505af1158015614779573d6000803e3d6000fd5b5050505050806001019050614634565b50614795878787614a3a565b50505050505050565b61164d8184614af2565b6001600160a01b0382166147fe5760405162461bcd60e51b815260206004820181905260248201527f4552433732313a206d696e7420746f20746865207a65726f20616464726573736044820152606401611639565b6000818152600260205260409020546001600160a01b0316156148635760405162461bcd60e51b815260206004820152601c60248201527f4552433732313a20746f6b656e20616c7265616479206d696e746564000000006044820152606401611639565b61486f600083836143c3565b6001600160a01b0382166000908152600360205260408120805460019290614898908490615a32565b909155505060008181526002602052604080822080546001600160a01b0319166001600160a01b03861690811790915590518392907fddf252ad1be2c89b69c2b068fc378daa952ba7f163c4a11628f55a4df523b3ef908290a46111fd6000838361479e565b60006001600160a01b0384163b156149f457604051630a85bd0160e11b81526001600160a01b0385169063150b7a0290614942903390899088908890600401615ead565b6020604051808303816000875af192505050801561497d575060408051601f3d908101601f1916820190925261497a91810190615ee0565b60015b6149da573d8080156149ab576040519150601f19603f3d011682016040523d82523d6000602084013e6149b0565b606091505b5080516000036149d25760405162461bcd60e51b815260040161163990615e42565b805181602001fd5b6001600160e01b031916630a85bd0160e11b149050612592565b506001949350505050565b600081815b8451811015611c9e57614a3082868381518110614a2357614a2361584e565b6020026020010151614bdb565b9150600101614a04565b6001600160a01b038316614a9557614a9081600880546000838152600960205260408120829055600182018355919091527ff3f7a9fe364faab93b216da50a3214154f22a0a2b415b23a84c8169e8b636ee30155565b614ab8565b816001600160a01b0316836001600160a01b031614614ab857614ab88382614c07565b6001600160a01b038216614acf5761164d81614ca4565b826001600160a01b0316826001600160a01b03161461164d5761164d8282614d53565b6000828152601c6020908152604080832080548251818502810185019093528083529192909190830182828015614b5257602002820191906000526020600020905b81546001600160a01b03168152600190910190602001808311614b34575b5050506000868152601a60205260408120549394506001600160a01b03909316929150505b8251811015614bc357614ba584848381518110614b9657614b9661584e565b60200260200101516000613f06565b614bbb82848381518110614b9657614b9661584e565b600101614b77565b506000848152601c602052604081206120f191614d97565b6000818310614bf7576000828152602084905260409020612696565b5060009182526020526040902090565b60006001614c14846123f1565b614c1e9190615dd7565b600083815260076020526040902054909150808214614c71576001600160a01b03841660009081526006602090815260408083208584528252808320548484528184208190558352600790915290208190555b5060009182526007602090815260408084208490556001600160a01b039094168352600681528383209183525290812055565b600854600090614cb690600190615dd7565b60008381526009602052604081205460088054939450909284908110614cde57614cde61584e565b906000526020600020015490508060088381548110614cff57614cff61584e565b6000918252602080832090910192909255828152600990915260408082208490558582528120556008805480614d3757614d37615efd565b6001900381819060005260206000200160009055905550505050565b6000614d5e836123f1565b6001600160a01b039093166000908152600660209081526040808320868452825280832085905593825260079052919091209190915550565b5080546000825590600052602060002090810190611bf191905b80821115614dc55760008155600101614db1565b5090565b6001600160a01b0381168114611bf157600080fd5b600060208284031215614df057600080fd5b813561269681614dc9565b6001600160e01b031981168114611bf157600080fd5b600060208284031215614e2357600080fd5b813561269681614dfb565b600060208284031215614e4057600080fd5b5035919050565b60005b83811015614e62578181015183820152602001614e4a565b50506000910152565b60008151808452614e83816020860160208601614e47565b601f01601f19169290920160200192915050565b6020815260006126966020830184614e6b565b60008060408385031215614ebd57600080fd5b8235614ec881614dc9565b946020939093013593505050565b848152608060208201526000614eef6080830186614e6b565b8281036040840152614f018186614e6b565b90508281036060840152614f158185614e6b565b979650505050505050565b600080600060608486031215614f3557600080fd5b8335614f4081614dc9565b92506020840135614f5081614dc9565b929592945050506040919091013590565b60008060408385031215614f7457600080fd5b50508035926020909101359150565b803560ff81168114614f9457600080fd5b919050565b634e487b7160e01b600052604160045260246000fd5b60405161018081016001600160401b0381118282101715614fd257614fd2614f99565b60405290565b604051601f8201601f191681016001600160401b038111828210171561500057615000614f99565b604052919050565b60006001600160401b0382111561502157615021614f99565b50601f01601f191660200190565b600082601f83011261504057600080fd5b813561505361504e82615008565b614fd8565b81815284602083860101111561506857600080fd5b816020850160208301376000918101602001919091529392505050565b6000806000806000806000806000806101408b8d0312156150a557600080fd5b8a35995060208b0135985060408b0135975060608b0135965060808b0135955060a08b0135945060c08b0135935060e08b013592506150e76101008c01614f83565b91506101208b01356001600160401b0381111561510357600080fd5b61510f8d828e0161502f565b9150509295989b9194979a5092959850565b6020808252825182820181905260009190848201906040850190845b818110156151595783518352928401929184019160010161513d565b50909695505050505050565b600080600080600080600080610100898b03121561518257600080fd5b505086359860208801359850604088013597606081013597506080810135965060a0810135955060c0810135945060e0013592509050565b80358015158114614f9457600080fd5b6000806000606084860312156151df57600080fd5b8335925060208401356151f181614dc9565b91506151ff604085016151ba565b90509250925092565b60008151808452602080850194506020840160005b838110156152425781516001600160a01b03168752958201959082019060010161521d565b509495945050505050565b6020815260006126966020830184615208565b60008060006060848603121561527557600080fd5b833561528081614dc9565b9250602084013591506151ff60408501614f83565b803563ffffffff81168114614f9457600080fd5b6000602082840312156152bb57600080fd5b81356001600160401b03808211156152d257600080fd5b9083019061018082860312156152e757600080fd5b6152ef614faf565b823581526020830135602082015260408301356040820152606083013560608201526080830135608082015260a083013560a082015260c083013560c082015261533b60e08401615295565b60e08201526101008381013590820152610120615359818501614f83565b90820152610140838101358381111561537157600080fd5b61537d8882870161502f565b82840152505061016091506153938284016151ba565b91810191909152949350505050565b6060815260006153b56060830186614e6b565b82810360208401526153c78186614e6b565b905082810360408401526115fc8185614e6b565b600080604083850312156153ee57600080fd5b82356153f981614dc9565b9150615407602084016151ba565b90509250929050565b6040815260006154236040830185614e6b565b82810360208401526154358185614e6b565b95945050505050565b6000806000806080858703121561545457600080fd5b843561545f81614dc9565b9350602085013561546f81614dc9565b92506040850135915060608501356001600160401b0381111561549157600080fd5b61549d8782880161502f565b91505092959194509250565b60006001600160401b038211156154c2576154c2614f99565b5060051b60200190565b600080604083850312156154df57600080fd5b823591506020808401356001600160401b038111156154fd57600080fd5b8401601f8101861361550e57600080fd5b803561551c61504e826154a9565b81815260059190911b8201830190838101908883111561553b57600080fd5b928401925b8284101561555957833582529284019290840190615540565b80955050505050509250929050565b6000806040838503121561557b57600080fd5b82359150615407602084016151ba565b60088110611bf157600080fd5b600080604083850312156155ab57600080fd5b8235915060208301356155bd8161558b565b809150509250929050565b6020815281516020820152602082015160408201526040820151606082015260608201516080820152608082015160a082015260a082015160c082015260c082015160e0820152600060e083015161010061562a8185018363ffffffff169052565b84015161012084810191909152840151905061014061564d8185018360ff169052565b80850151915050610180610160818186015261566d6101a0860184614e6b565b95015115159301929092525090919050565b6000806040838503121561569257600080fd5b8235915060208301356001600160401b038111156156af57600080fd5b6156bb8582860161502f565b9150509250929050565b600080604083850312156156d857600080fd5b8235915061540760208401614f83565b600080604083850312156156fb57600080fd5b823561570681614dc9565b915060208301356155bd81614dc9565b6000806000806080858703121561572c57600080fd5b8435935060208501356001600160401b038082111561574a57600080fd5b6157568883890161502f565b9450604087013591508082111561576c57600080fd5b6157788883890161502f565b9350606087013591508082111561578e57600080fd5b5061549d8782880161502f565b600181811c908216806157af57607f821691505b6020821081036157cf57634e487b7160e01b600052602260045260246000fd5b50919050565b600082601f8301126157e657600080fd5b81516157f461504e82615008565b81815284602083860101111561580957600080fd5b612592826020830160208701614e47565b60006020828403121561582c57600080fd5b81516001600160401b0381111561584257600080fd5b612592848285016157d5565b634e487b7160e01b600052603260045260246000fd5b6080815260006158776080830187614e6b565b6020838203818501528187518084528284019150828160051b850101838a0160005b838110156158c757601f198784030185526158b5838351614e6b565b94860194925090850190600101615899565b50506040870198909852505050506060909101919091525092915050565b6020808252602e908201527f4552433732313a2063616c6c6572206973206e6f7420746f6b656e206f776e6560408201526d1c881b9bdc88185c1c1c9bdd995960921b606082015260800190565b634e487b7160e01b600052602160045260246000fd5b60008060006060848603121561595e57600080fd5b83516001600160401b038082111561597557600080fd5b615981878388016157d5565b9450602086015191508082111561599757600080fd5b6159a3878388016157d5565b935060408601519150808211156159b957600080fd5b506159c6868287016157d5565b9150509250925092565b600083516159e2818460208801614e47565b8351908301906159f6818360208801614e47565b01949350505050565b600060208284031215615a1157600080fd5b815161269681614dc9565b634e487b7160e01b600052601160045260246000fd5b808201808211156110c2576110c2615a1c565b60008154615a528161579b565b808552602060018381168015615a6f5760018114615a8957615ab7565b60ff1985168884015283151560051b880183019550615ab7565b866000528260002060005b85811015615aaf5781548a8201860152908301908401615a94565b890184019650505b505050505092915050565b6020815260006126966020830184615a45565b604081526009604082015268426f6479205479706560b81b60608201526080602082015260006126966080830184615a45565b60006020808385031215615b1b57600080fd5b82516001600160401b03811115615b3157600080fd5b8301601f81018513615b4257600080fd5b8051615b5061504e826154a9565b81815260059190911b82018301908381019087831115615b6f57600080fd5b928401925b82841015614f1557835182529284019290840190615b74565b80820281158282048414176110c2576110c2615a1c565b601f82111561164d576000816000526020600020601f850160051c81016020861015615bcd5750805b601f850160051c820191505b8181101561366057828155600101615bd9565b81516001600160401b03811115615c0557615c05614f99565b615c1981615c13845461579b565b84615ba4565b602080601f831160018114615c4e5760008415615c365750858301515b600019600386901b1c1916600185901b178555613660565b600085815260208120601f198616915b82811015615c7d57888601518255948401946001909101908401615c5e565b5085821015615c9b5787850151600019600388901b60f8161c191681555b5050505050600190811b01905550565b6000815160808452615cc06080850182614e6b565b905060208301518482036020860152615cd98282614e6b565b91505060408301518482036040860152615cf38282614e6b565b915050606083015160608501528091505092915050565b86815260c060208201526000615d2360c0830188614e6b565b8281036040840152615d358188614e6b565b90508281036060840152615d498187614e6b565b90508281036080840152615d5d8186614e6b565b905082810360a0840152615d718185615cab565b9998505050505050505050565b60008060408385031215615d9157600080fd5b82516001600160401b0380821115615da857600080fd5b615db4868387016157d5565b93506020850151915080821115615dca57600080fd5b506156bb858286016157d5565b818103818111156110c2576110c2615a1c565b600060208284031215615dfc57600080fd5b81516126968161558b565b600060018201615e1957615e19615a1c565b5060010190565b600082615e3d57634e487b7160e01b600052601260045260246000fd5b500690565b60208082526032908201527f4552433732313a207472616e7366657220746f206e6f6e20455243373231526560408201527131b2b4bb32b91034b6b83632b6b2b73a32b960711b606082015260800190565b8281526040602082015260006125926040830184615208565b6001600160a01b03858116825284166020820152604081018390526080606082018190526000906115fc90830184614e6b565b600060208284031215615ef257600080fd5b815161269681614dfb565b634e487b7160e01b600052603160045260246000fdfec94c1c47471ed97c1d309bab965192a3e4be3807f42d015b699bfbdcf24dd9f6a2646970667358221220011e364faddbdcf79174aabc897665b2155ff3c4af28ff2213a73f598025a9a164736f6c63430008160033","linkReferences":{}},"methodIdentifiers":{"_debugPostConstructorMint()":"9c7be2f1","_nextTokenId()":"4a60f620","addNewBody(uint256,string,bytes,bytes)":"f2361e23","approve(address,uint256)":"095ea7b3","balanceOf(address)":"70a08231","bodyIndexToMetadata(uint256)":"0c83f9d7","cancelOwnershipHandover()":"54d1f13d","checkIfTraitIsEquipped(uint256,uint256)":"8aa1e4c8","chonkIdToApprovedOperators(uint256,uint256)":"55737f35","chonkMakeover(uint256,uint256,uint256,uint256,uint256,uint256,uint256,uint256,uint8,string)":"30f6c521","chonksCreatorListMerkleRoot()":"7684ef0d","completeOwnershipHandover(address)":"f04e283e","deploymentTime()":"ecda10f5","equip(uint256,uint256)":"28257532","equipAll(uint256,uint256,uint256,uint256,uint256,uint256,uint256,uint256)":"4a4333a3","firstSeasonRenderMinter()":"13ea0ae3","friendsListMerkleRoot()":"8f224757","getApproved(uint256)":"081812fc","getBackpackSVGs(uint256)":"14fe8ff4","getBodyImageSvg(uint256)":"916c546b","getBodySVGZmapsAndMetadata((uint256,uint256,uint256,uint256,uint256,uint256,uint256,uint32,uint256,uint8,string,bool))":"92012f08","getBodySvgAndMetadata((uint256,uint256,uint256,uint256,uint256,uint256,uint256,uint32,uint256,uint8,string,bool))":"a23830ae","getBodyZMap(uint256)":"306c7334","getChonk(uint256)":"d3d6873e","getChonkIdForTBAAddress(address)":"8472cbca","getChonkIdToApprovedOperators(uint256)":"67d2afe2","getChonkZMap(uint256)":"32875aa0","getFullPictureForTrait(uint256)":"66704349","getOwnerAndTBAAddressForChonkId(uint256)":"04003bd0","getTBAAddressForChonkId(uint256)":"f6a0c932","getTokenRenderZ(uint256)":"8200ea51","getTraitsForChonkId(uint256)":"9f6e4637","isApprovedForAll(address,address)":"e985e9c5","isTimelocked()":"50b03146","mainRenderer2D()":"f4bec0b6","mainRenderer3D()":"b66ef6e3","marketplace()":"abc8c7af","maxTraitsToOutput()":"e3d21555","mint(uint256,bytes32[])":"ba41b0c6","mintStartTime()":"931e2e49","name()":"06fdde03","oneYearFromDeployment()":"d59752eb","owner()":"8da5cb5b","ownerOf(uint256)":"6352211e","ownershipHandoverExpiresAt(address)":"fee81cf4","price()":"a035b1fe","renderAsDataUri(uint256)":"a1d62680","renderAsDataUri2D(uint256)":"f3f8efb9","renderAsDataUri3D(uint256)":"dceef0ec","renounceOwnership()":"715018a6","requestOwnershipHandover()":"25692962","safeTransferFrom(address,address,uint256)":"42842e0e","safeTransferFrom(address,address,uint256,bytes)":"b88d4fde","setApprovalForAll(address,bool)":"a22cb465","setApprovalForAllChonksMarketplace(uint256,address,bool)":"550ab247","setBackgroundColor(uint256,string)":"d68c4f32","setBodyIndex(uint256,uint8)":"e1405540","setChonksCreatorListMerkleRoot(bytes32)":"b99ce71f","setFirstSeasonRenderMinter(address)":"58a97640","setFriendsListMerkleRoot(bytes32)":"1ab37512","setMainRenderer2D(address)":"7e2e6c47","setMainRenderer3D(address)":"00179206","setMarketplace(address)":"73ad6c2d","setMaxTraitsToOutput(uint256)":"33d3d9bf","setMintStartTime(uint256)":"d5b3621b","setPrice(uint256)":"91b7f5ed","setSpecialCollectionMerkleRoot(bytes32)":"e29babbb","setTokenRender3D(uint256,bool)":"bef1dfb7","setTraitsContract(address)":"5eabd84a","setWithdrawAddress(address)":"3ab1a494","specialCollectionMerkleRoot()":"deab1d36","supportsInterface(bytes4)":"01ffc9a7","symbol()":"95d89b41","tbaAddressToTokenId(address)":"a4bf9a00","teamMint(address,uint256,uint8)":"6e51665f","tokenByIndex(uint256)":"4f6ccce7","tokenIdToTBAAccountAddress(uint256)":"9c05d68d","tokenOfOwnerByIndex(address,uint256)":"2f745c59","tokenURI(uint256)":"c87b56dd","totalSupply()":"18160ddd","traitsContract()":"c093afdb","transferFrom(address,address,uint256)":"23b872dd","transferOwnership(address)":"f2fde38b","unequip(uint256,uint8)":"cdb6dd5c","unequipAll(uint256)":"3044825b","walletOfOwner(address)":"438b6300","withdraw()":"3ccfd60b","withdrawAddress()":"1581b600"},"id":41}