{"abi":[{"type":"constructor","inputs":[],"stateMutability":"nonpayable"},{"type":"function","name":"_debugPostConstructorMint","inputs":[],"outputs":[],"stateMutability":"nonpayable"},{"type":"function","name":"addNewBody","inputs":[{"name":"_bodyIndex","type":"uint256","internalType":"uint256"},{"name":"_bodyName","type":"string","internalType":"string"},{"name":"_colorMap","type":"bytes","internalType":"bytes"},{"name":"_zMap","type":"bytes","internalType":"bytes"}],"outputs":[],"stateMutability":"nonpayable"},{"type":"function","name":"approve","inputs":[{"name":"_operator","type":"address","internalType":"address"},{"name":"_chonkId","type":"uint256","internalType":"uint256"}],"outputs":[],"stateMutability":"nonpayable"},{"type":"function","name":"balanceOf","inputs":[{"name":"owner","type":"address","internalType":"address"}],"outputs":[{"name":"","type":"uint256","internalType":"uint256"}],"stateMutability":"view"},{"type":"function","name":"bodyIndexToMetadata","inputs":[{"name":"","type":"uint256","internalType":"uint256"}],"outputs":[{"name":"bodyIndex","type":"uint256","internalType":"uint256"},{"name":"bodyName","type":"string","internalType":"string"},{"name":"colorMap","type":"bytes","internalType":"bytes"},{"name":"zMap","type":"bytes","internalType":"bytes"}],"stateMutability":"view"},{"type":"function","name":"cancelOwnershipHandover","inputs":[],"outputs":[],"stateMutability":"payable"},{"type":"function","name":"checkIfTraitIsEquipped","inputs":[{"name":"_chonkId","type":"uint256","internalType":"uint256"},{"name":"_traitId","type":"uint256","internalType":"uint256"}],"outputs":[{"name":"","type":"bool","internalType":"bool"}],"stateMutability":"view"},{"type":"function","name":"chonkEquipHelper","inputs":[],"outputs":[{"name":"","type":"address","internalType":"contract ChonkEquipHelper"}],"stateMutability":"view"},{"type":"function","name":"chonkIdToApprovedOperators","inputs":[{"name":"chonkId","type":"uint256","internalType":"uint256"},{"name":"","type":"uint256","internalType":"uint256"}],"outputs":[{"name":"operators","type":"address","internalType":"address"}],"stateMutability":"view"},{"type":"function","name":"chonkTokens","inputs":[{"name":"tokenID","type":"uint256","internalType":"uint256"}],"outputs":[{"name":"headId","type":"uint256","internalType":"uint256"},{"name":"hairId","type":"uint256","internalType":"uint256"},{"name":"faceId","type":"uint256","internalType":"uint256"},{"name":"accessoryId","type":"uint256","internalType":"uint256"},{"name":"topId","type":"uint256","internalType":"uint256"},{"name":"bottomId","type":"uint256","internalType":"uint256"},{"name":"shoesId","type":"uint256","internalType":"uint256"},{"name":"epoch","type":"uint32","internalType":"uint32"},{"name":"tokenId","type":"uint256","internalType":"uint256"},{"name":"bodyIndex","type":"uint8","internalType":"uint8"},{"name":"backgroundColor","type":"string","internalType":"string"},{"name":"render3D","type":"bool","internalType":"bool"}],"stateMutability":"view"},{"type":"function","name":"collectionsMerkle","inputs":[],"outputs":[{"name":"","type":"bytes32","internalType":"bytes32"}],"stateMutability":"view"},{"type":"function","name":"completeOwnershipHandover","inputs":[{"name":"pendingOwner","type":"address","internalType":"address"}],"outputs":[],"stateMutability":"payable"},{"type":"function","name":"creatorsMerkle","inputs":[],"outputs":[{"name":"","type":"bytes32","internalType":"bytes32"}],"stateMutability":"view"},{"type":"function","name":"deploymentTime","inputs":[],"outputs":[{"name":"","type":"uint256","internalType":"uint256"}],"stateMutability":"view"},{"type":"function","name":"equip","inputs":[{"name":"_chonkTokenId","type":"uint256","internalType":"uint256"},{"name":"_traitTokenId","type":"uint256","internalType":"uint256"}],"outputs":[],"stateMutability":"nonpayable"},{"type":"function","name":"equipAll","inputs":[{"name":"_chonkTokenId","type":"uint256","internalType":"uint256"},{"name":"_headTokenId","type":"uint256","internalType":"uint256"},{"name":"_hairTokenId","type":"uint256","internalType":"uint256"},{"name":"_faceTokenId","type":"uint256","internalType":"uint256"},{"name":"_accessoryTokenId","type":"uint256","internalType":"uint256"},{"name":"_topTokenId","type":"uint256","internalType":"uint256"},{"name":"_bottomTokenId","type":"uint256","internalType":"uint256"},{"name":"_shoesTokenId","type":"uint256","internalType":"uint256"}],"outputs":[],"stateMutability":"nonpayable"},{"type":"function","name":"firstReleaseDataMinter","inputs":[],"outputs":[{"name":"","type":"address","internalType":"contract FirstReleaseDataMinter"}],"stateMutability":"view"},{"type":"function","name":"friendsMerkle","inputs":[],"outputs":[{"name":"","type":"bytes32","internalType":"bytes32"}],"stateMutability":"view"},{"type":"function","name":"getApproved","inputs":[{"name":"tokenId","type":"uint256","internalType":"uint256"}],"outputs":[{"name":"","type":"address","internalType":"address"}],"stateMutability":"view"},{"type":"function","name":"getBackpackSVGs","inputs":[{"name":"_tokenId","type":"uint256","internalType":"uint256"}],"outputs":[{"name":"","type":"string","internalType":"string"}],"stateMutability":"view"},{"type":"function","name":"getBodyImageSvg","inputs":[{"name":"_index","type":"uint256","internalType":"uint256"}],"outputs":[{"name":"svg","type":"string","internalType":"string"}],"stateMutability":"view"},{"type":"function","name":"getBodySVGZmapsAndMetadata","inputs":[{"name":"storedChonk","type":"tuple","internalType":"struct IChonkStorage.StoredChonk","components":[{"name":"headId","type":"uint256","internalType":"uint256"},{"name":"hairId","type":"uint256","internalType":"uint256"},{"name":"faceId","type":"uint256","internalType":"uint256"},{"name":"accessoryId","type":"uint256","internalType":"uint256"},{"name":"topId","type":"uint256","internalType":"uint256"},{"name":"bottomId","type":"uint256","internalType":"uint256"},{"name":"shoesId","type":"uint256","internalType":"uint256"},{"name":"epoch","type":"uint32","internalType":"uint32"},{"name":"tokenId","type":"uint256","internalType":"uint256"},{"name":"bodyIndex","type":"uint8","internalType":"uint8"},{"name":"backgroundColor","type":"string","internalType":"string"},{"name":"render3D","type":"bool","internalType":"bool"}]}],"outputs":[{"name":"","type":"string","internalType":"string"},{"name":"","type":"bytes","internalType":"bytes"},{"name":"","type":"string","internalType":"string"}],"stateMutability":"view"},{"type":"function","name":"getBodySvgAndMetadata","inputs":[{"name":"storedChonk","type":"tuple","internalType":"struct IChonkStorage.StoredChonk","components":[{"name":"headId","type":"uint256","internalType":"uint256"},{"name":"hairId","type":"uint256","internalType":"uint256"},{"name":"faceId","type":"uint256","internalType":"uint256"},{"name":"accessoryId","type":"uint256","internalType":"uint256"},{"name":"topId","type":"uint256","internalType":"uint256"},{"name":"bottomId","type":"uint256","internalType":"uint256"},{"name":"shoesId","type":"uint256","internalType":"uint256"},{"name":"epoch","type":"uint32","internalType":"uint32"},{"name":"tokenId","type":"uint256","internalType":"uint256"},{"name":"bodyIndex","type":"uint8","internalType":"uint8"},{"name":"backgroundColor","type":"string","internalType":"string"},{"name":"render3D","type":"bool","internalType":"bool"}]}],"outputs":[{"name":"","type":"string","internalType":"string"},{"name":"","type":"string","internalType":"string"}],"stateMutability":"view"},{"type":"function","name":"getBodyZMap","inputs":[{"name":"_tokenId","type":"uint256","internalType":"uint256"}],"outputs":[{"name":"","type":"string","internalType":"string"}],"stateMutability":"view"},{"type":"function","name":"getChonk","inputs":[{"name":"_tokenId","type":"uint256","internalType":"uint256"}],"outputs":[{"name":"","type":"tuple","internalType":"struct IChonkStorage.StoredChonk","components":[{"name":"headId","type":"uint256","internalType":"uint256"},{"name":"hairId","type":"uint256","internalType":"uint256"},{"name":"faceId","type":"uint256","internalType":"uint256"},{"name":"accessoryId","type":"uint256","internalType":"uint256"},{"name":"topId","type":"uint256","internalType":"uint256"},{"name":"bottomId","type":"uint256","internalType":"uint256"},{"name":"shoesId","type":"uint256","internalType":"uint256"},{"name":"epoch","type":"uint32","internalType":"uint32"},{"name":"tokenId","type":"uint256","internalType":"uint256"},{"name":"bodyIndex","type":"uint8","internalType":"uint8"},{"name":"backgroundColor","type":"string","internalType":"string"},{"name":"render3D","type":"bool","internalType":"bool"}]}],"stateMutability":"view"},{"type":"function","name":"getChonkIdForTBAAddress","inputs":[{"name":"_tbaAddress","type":"address","internalType":"address"}],"outputs":[{"name":"","type":"uint256","internalType":"uint256"}],"stateMutability":"view"},{"type":"function","name":"getChonkIdToApprovedOperators","inputs":[{"name":"_chonkId","type":"uint256","internalType":"uint256"}],"outputs":[{"name":"","type":"address[]","internalType":"address[]"}],"stateMutability":"view"},{"type":"function","name":"getChonkZMap","inputs":[{"name":"_tokenId","type":"uint256","internalType":"uint256"}],"outputs":[{"name":"","type":"string","internalType":"string"}],"stateMutability":"view"},{"type":"function","name":"getFullPictureForTrait","inputs":[{"name":"_chonkTraitTokenId","type":"uint256","internalType":"uint256"}],"outputs":[{"name":"traitOwnerTBA","type":"address","internalType":"address"},{"name":"chonkTokenId","type":"uint256","internalType":"uint256"},{"name":"chonkOwner","type":"address","internalType":"address"},{"name":"isEquipped","type":"bool","internalType":"bool"}],"stateMutability":"view"},{"type":"function","name":"getOwnerAndTBAAddressForChonkId","inputs":[{"name":"_chonkId","type":"uint256","internalType":"uint256"}],"outputs":[{"name":"owner","type":"address","internalType":"address"},{"name":"tbaAddress","type":"address","internalType":"address"}],"stateMutability":"view"},{"type":"function","name":"getTBAAddressForChonkId","inputs":[{"name":"_chonkId","type":"uint256","internalType":"uint256"}],"outputs":[{"name":"","type":"address","internalType":"address"}],"stateMutability":"view"},{"type":"function","name":"getTraitsForChonkId","inputs":[{"name":"_chonkId","type":"uint256","internalType":"uint256"}],"outputs":[{"name":"traitTokens","type":"uint256[]","internalType":"uint256[]"}],"stateMutability":"view"},{"type":"function","name":"initialMintStartTime","inputs":[],"outputs":[{"name":"","type":"uint256","internalType":"uint256"}],"stateMutability":"view"},{"type":"function","name":"isApprovedForAll","inputs":[{"name":"owner","type":"address","internalType":"address"},{"name":"operator","type":"address","internalType":"address"}],"outputs":[{"name":"","type":"bool","internalType":"bool"}],"stateMutability":"view"},{"type":"function","name":"isTimelocked","inputs":[],"outputs":[{"name":"","type":"bool","internalType":"bool"}],"stateMutability":"view"},{"type":"function","name":"mainRenderer2D","inputs":[],"outputs":[{"name":"","type":"address","internalType":"contract MainRenderer2D"}],"stateMutability":"view"},{"type":"function","name":"mainRenderer3D","inputs":[],"outputs":[{"name":"","type":"address","internalType":"contract MainRenderer3D"}],"stateMutability":"view"},{"type":"function","name":"marketplace","inputs":[],"outputs":[{"name":"","type":"address","internalType":"contract ChonksMarket"}],"stateMutability":"view"},{"type":"function","name":"maxTraitsToOutput","inputs":[],"outputs":[{"name":"","type":"uint256","internalType":"uint256"}],"stateMutability":"view"},{"type":"function","name":"mint","inputs":[{"name":"_amount","type":"uint256","internalType":"uint256"},{"name":"_merkleProof","type":"bytes32[]","internalType":"bytes32[]"}],"outputs":[],"stateMutability":"payable"},{"type":"function","name":"name","inputs":[],"outputs":[{"name":"","type":"string","internalType":"string"}],"stateMutability":"view"},{"type":"function","name":"nextTokenId","inputs":[],"outputs":[{"name":"","type":"uint256","internalType":"uint256"}],"stateMutability":"view"},{"type":"function","name":"oneYearFromDeployment","inputs":[],"outputs":[{"name":"","type":"uint256","internalType":"uint256"}],"stateMutability":"view"},{"type":"function","name":"owner","inputs":[],"outputs":[{"name":"result","type":"address","internalType":"address"}],"stateMutability":"view"},{"type":"function","name":"ownerOf","inputs":[{"name":"tokenId","type":"uint256","internalType":"uint256"}],"outputs":[{"name":"","type":"address","internalType":"address"}],"stateMutability":"view"},{"type":"function","name":"ownershipHandoverExpiresAt","inputs":[{"name":"pendingOwner","type":"address","internalType":"address"}],"outputs":[{"name":"result","type":"uint256","internalType":"uint256"}],"stateMutability":"view"},{"type":"function","name":"price","inputs":[],"outputs":[{"name":"","type":"uint256","internalType":"uint256"}],"stateMutability":"view"},{"type":"function","name":"renderAsDataUri","inputs":[{"name":"_tokenId","type":"uint256","internalType":"uint256"}],"outputs":[{"name":"","type":"string","internalType":"string"}],"stateMutability":"view"},{"type":"function","name":"renderAsDataUri2D","inputs":[{"name":"_tokenId","type":"uint256","internalType":"uint256"}],"outputs":[{"name":"","type":"string","internalType":"string"}],"stateMutability":"view"},{"type":"function","name":"renderAsDataUri3D","inputs":[{"name":"_tokenId","type":"uint256","internalType":"uint256"}],"outputs":[{"name":"","type":"string","internalType":"string"}],"stateMutability":"view"},{"type":"function","name":"renounceOwnership","inputs":[],"outputs":[],"stateMutability":"payable"},{"type":"function","name":"requestOwnershipHandover","inputs":[],"outputs":[],"stateMutability":"payable"},{"type":"function","name":"safeTransferFrom","inputs":[{"name":"from","type":"address","internalType":"address"},{"name":"to","type":"address","internalType":"address"},{"name":"tokenId","type":"uint256","internalType":"uint256"}],"outputs":[],"stateMutability":"nonpayable"},{"type":"function","name":"safeTransferFrom","inputs":[{"name":"from","type":"address","internalType":"address"},{"name":"to","type":"address","internalType":"address"},{"name":"tokenId","type":"uint256","internalType":"uint256"},{"name":"data","type":"bytes","internalType":"bytes"}],"outputs":[],"stateMutability":"nonpayable"},{"type":"function","name":"setApprovalForAll","inputs":[{"name":"_operator","type":"address","internalType":"address"},{"name":"_approved","type":"bool","internalType":"bool"}],"outputs":[],"stateMutability":"nonpayable"},{"type":"function","name":"setApprovalForAllChonksMarketplace","inputs":[{"name":"_chonkId","type":"uint256","internalType":"uint256"},{"name":"_operator","type":"address","internalType":"address"},{"name":"_approved","type":"bool","internalType":"bool"}],"outputs":[],"stateMutability":"nonpayable"},{"type":"function","name":"setChonkAttributes","inputs":[{"name":"_tokenId","type":"uint256","internalType":"uint256"},{"name":"_color","type":"string","internalType":"string"},{"name":"_bodyIndex","type":"uint8","internalType":"uint8"},{"name":"_render3D","type":"bool","internalType":"bool"}],"outputs":[],"stateMutability":"nonpayable"},{"type":"function","name":"setChonkEquipHelper","inputs":[{"name":"_chonkEquipHelper","type":"address","internalType":"address"}],"outputs":[],"stateMutability":"nonpayable"},{"type":"function","name":"setCollectionsMerkle","inputs":[{"name":"_merkleRoot","type":"bytes32","internalType":"bytes32"}],"outputs":[],"stateMutability":"nonpayable"},{"type":"function","name":"setCreatorsMerkle","inputs":[{"name":"_merkleRoot","type":"bytes32","internalType":"bytes32"}],"outputs":[],"stateMutability":"nonpayable"},{"type":"function","name":"setDescriptionParts","inputs":[{"name":"_descriptionParts","type":"string[2]","internalType":"string[2]"}],"outputs":[],"stateMutability":"nonpayable"},{"type":"function","name":"setFirstReleaseDataMinter","inputs":[{"name":"_dataContract","type":"address","internalType":"address"}],"outputs":[],"stateMutability":"nonpayable"},{"type":"function","name":"setFriendsMerkleRoot","inputs":[{"name":"_merkleRoot","type":"bytes32","internalType":"bytes32"}],"outputs":[],"stateMutability":"nonpayable"},{"type":"function","name":"setMainRenderer2D","inputs":[{"name":"_mainRenderer2D","type":"address","internalType":"address"}],"outputs":[],"stateMutability":"nonpayable"},{"type":"function","name":"setMainRenderer3D","inputs":[{"name":"_mainRenderer3D","type":"address","internalType":"address"}],"outputs":[],"stateMutability":"nonpayable"},{"type":"function","name":"setMarketplace","inputs":[{"name":"_marketplace","type":"address","internalType":"address"}],"outputs":[],"stateMutability":"nonpayable"},{"type":"function","name":"setMaxTraitsToOutput","inputs":[{"name":"_maxTraitsToOutput","type":"uint256","internalType":"uint256"}],"outputs":[],"stateMutability":"nonpayable"},{"type":"function","name":"setMintStartTime","inputs":[{"name":"_initialMintStartTime","type":"uint256","internalType":"uint256"}],"outputs":[],"stateMutability":"nonpayable"},{"type":"function","name":"setPrice","inputs":[{"name":"_priceInWei","type":"uint256","internalType":"uint256"}],"outputs":[],"stateMutability":"nonpayable"},{"type":"function","name":"setTraitsContract","inputs":[{"name":"_address","type":"address","internalType":"contract ChonkTraits"}],"outputs":[],"stateMutability":"nonpayable"},{"type":"function","name":"setWithdrawAddress","inputs":[{"name":"_withdrawAddress","type":"address","internalType":"address"}],"outputs":[],"stateMutability":"nonpayable"},{"type":"function","name":"supportsInterface","inputs":[{"name":"interfaceId","type":"bytes4","internalType":"bytes4"}],"outputs":[{"name":"","type":"bool","internalType":"bool"}],"stateMutability":"view"},{"type":"function","name":"symbol","inputs":[],"outputs":[{"name":"","type":"string","internalType":"string"}],"stateMutability":"view"},{"type":"function","name":"tbaAddressToTokenId","inputs":[{"name":"","type":"address","internalType":"address"}],"outputs":[{"name":"","type":"uint256","internalType":"uint256"}],"stateMutability":"view"},{"type":"function","name":"teamMint","inputs":[{"name":"_to","type":"address","internalType":"address"},{"name":"_amount","type":"uint256","internalType":"uint256"},{"name":"_traitCount","type":"uint8","internalType":"uint8"}],"outputs":[],"stateMutability":"nonpayable"},{"type":"function","name":"teamReserve","inputs":[],"outputs":[],"stateMutability":"nonpayable"},{"type":"function","name":"tokenByIndex","inputs":[{"name":"index","type":"uint256","internalType":"uint256"}],"outputs":[{"name":"","type":"uint256","internalType":"uint256"}],"stateMutability":"view"},{"type":"function","name":"tokenIdToTBAAccountAddress","inputs":[{"name":"","type":"uint256","internalType":"uint256"}],"outputs":[{"name":"","type":"address","internalType":"address"}],"stateMutability":"view"},{"type":"function","name":"tokenOfOwnerByIndex","inputs":[{"name":"owner","type":"address","internalType":"address"},{"name":"index","type":"uint256","internalType":"uint256"}],"outputs":[{"name":"","type":"uint256","internalType":"uint256"}],"stateMutability":"view"},{"type":"function","name":"tokenURI","inputs":[{"name":"_tokenId","type":"uint256","internalType":"uint256"}],"outputs":[{"name":"","type":"string","internalType":"string"}],"stateMutability":"view"},{"type":"function","name":"totalSupply","inputs":[],"outputs":[{"name":"","type":"uint256","internalType":"uint256"}],"stateMutability":"view"},{"type":"function","name":"traitsContract","inputs":[],"outputs":[{"name":"","type":"address","internalType":"contract ChonkTraits"}],"stateMutability":"view"},{"type":"function","name":"transferFrom","inputs":[{"name":"from","type":"address","internalType":"address"},{"name":"to","type":"address","internalType":"address"},{"name":"tokenId","type":"uint256","internalType":"uint256"}],"outputs":[],"stateMutability":"nonpayable"},{"type":"function","name":"transferOwnership","inputs":[{"name":"newOwner","type":"address","internalType":"address"}],"outputs":[],"stateMutability":"payable"},{"type":"function","name":"unequip","inputs":[{"name":"_chonkTokenId","type":"uint256","internalType":"uint256"},{"name":"traitType","type":"uint8","internalType":"enum TraitCategory.Name"}],"outputs":[],"stateMutability":"nonpayable"},{"type":"function","name":"unequipAll","inputs":[{"name":"_chonkTokenId","type":"uint256","internalType":"uint256"}],"outputs":[],"stateMutability":"nonpayable"},{"type":"function","name":"walletOfOwner","inputs":[{"name":"_owner","type":"address","internalType":"address"}],"outputs":[{"name":"","type":"uint256[]","internalType":"uint256[]"}],"stateMutability":"view"},{"type":"function","name":"withdraw","inputs":[],"outputs":[],"stateMutability":"nonpayable"},{"type":"function","name":"withdrawAddress","inputs":[],"outputs":[{"name":"","type":"address","internalType":"address"}],"stateMutability":"view"},{"type":"event","name":"Approval","inputs":[{"name":"owner","type":"address","indexed":true,"internalType":"address"},{"name":"approved","type":"address","indexed":true,"internalType":"address"},{"name":"tokenId","type":"uint256","indexed":true,"internalType":"uint256"}],"anonymous":false},{"type":"event","name":"ApprovalForAll","inputs":[{"name":"owner","type":"address","indexed":true,"internalType":"address"},{"name":"operator","type":"address","indexed":true,"internalType":"address"},{"name":"approved","type":"bool","indexed":false,"internalType":"bool"}],"anonymous":false},{"type":"event","name":"BatchMetadataUpdate","inputs":[{"name":"_fromTokenId","type":"uint256","indexed":false,"internalType":"uint256"},{"name":"_toTokenId","type":"uint256","indexed":false,"internalType":"uint256"}],"anonymous":false},{"type":"event","name":"Equip","inputs":[{"name":"owner","type":"address","indexed":true,"internalType":"address"},{"name":"tokenId","type":"uint256","indexed":true,"internalType":"uint256"},{"name":"traitTokenId","type":"uint256","indexed":true,"internalType":"uint256"},{"name":"traitCategory","type":"uint8","indexed":false,"internalType":"uint8"}],"anonymous":false},{"type":"event","name":"EquipAll","inputs":[{"name":"owner","type":"address","indexed":true,"internalType":"address"},{"name":"tokenId","type":"uint256","indexed":true,"internalType":"uint256"}],"anonymous":false},{"type":"event","name":"MetadataUpdate","inputs":[{"name":"_tokenId","type":"uint256","indexed":false,"internalType":"uint256"}],"anonymous":false},{"type":"event","name":"OwnershipHandoverCanceled","inputs":[{"name":"pendingOwner","type":"address","indexed":true,"internalType":"address"}],"anonymous":false},{"type":"event","name":"OwnershipHandoverRequested","inputs":[{"name":"pendingOwner","type":"address","indexed":true,"internalType":"address"}],"anonymous":false},{"type":"event","name":"OwnershipTransferred","inputs":[{"name":"oldOwner","type":"address","indexed":true,"internalType":"address"},{"name":"newOwner","type":"address","indexed":true,"internalType":"address"}],"anonymous":false},{"type":"event","name":"Transfer","inputs":[{"name":"from","type":"address","indexed":true,"internalType":"address"},{"name":"to","type":"address","indexed":true,"internalType":"address"},{"name":"tokenId","type":"uint256","indexed":true,"internalType":"uint256"}],"anonymous":false},{"type":"event","name":"Unequip","inputs":[{"name":"owner","type":"address","indexed":true,"internalType":"address"},{"name":"tokenId","type":"uint256","indexed":true,"internalType":"uint256"},{"name":"traitCategory","type":"uint8","indexed":false,"internalType":"uint8"}],"anonymous":false},{"type":"event","name":"UnequipAll","inputs":[{"name":"owner","type":"address","indexed":true,"internalType":"address"},{"name":"tokenId","type":"uint256","indexed":true,"internalType":"uint256"}],"anonymous":false},{"type":"error","name":"AlreadyInitialized","inputs":[]},{"type":"error","name":"CanOnlyReserveFirstTwo","inputs":[]},{"type":"error","name":"CantTransferDuringMint","inputs":[]},{"type":"error","name":"CantTransferToTBAs","inputs":[]},{"type":"error","name":"ChonkDoesntExist","inputs":[]},{"type":"error","name":"FirstReleaseDataMinterNotSet","inputs":[]},{"type":"error","name":"IncorrectChonkOwner","inputs":[]},{"type":"error","name":"IncorrectTBAOwner","inputs":[]},{"type":"error","name":"IncorrectTraitType","inputs":[]},{"type":"error","name":"InsufficientFunds","inputs":[]},{"type":"error","name":"InvalidBodyIndex","inputs":[]},{"type":"error","name":"InvalidColor","inputs":[]},{"type":"error","name":"InvalidMintAmount","inputs":[]},{"type":"error","name":"InvalidTraitCount","inputs":[]},{"type":"error","name":"MintEnded","inputs":[]},{"type":"error","name":"MintNotStarted","inputs":[]},{"type":"error","name":"MintStartTimeAlreadySet","inputs":[]},{"type":"error","name":"NewOwnerIsZeroAddress","inputs":[]},{"type":"error","name":"NoHandoverRequest","inputs":[]},{"type":"error","name":"Timelocked","inputs":[]},{"type":"error","name":"Unauthorized","inputs":[]},{"type":"error","name":"UseUnequip","inputs":[]},{"type":"error","name":"WithdrawFailed","inputs":[]}],"bytecode":{"object":"0x60a060405260636012553480156200001657600080fd5b506040518060400160405280600681526020016543686f6e6b7360d01b8152506040518060400160405280600681526020016543484f4e4b5360d01b815250816000908162000066919062000175565b50600162000075828262000175565b50506001600a5550620000883362000092565b4260805262000241565b6001600160a01b0316638b78c6d8198190558060007f8be0079c531659141344cd1fd0a4f28419497f9722a3daafe3b4186f6b6457e08180a350565b634e487b7160e01b600052604160045260246000fd5b600181811c90821680620000f957607f821691505b6020821081036200011a57634e487b7160e01b600052602260045260246000fd5b50919050565b601f82111562000170576000816000526020600020601f850160051c810160208610156200014b5750805b601f850160051c820191505b818110156200016c5782815560010162000157565b5050505b505050565b81516001600160401b03811115620001915762000191620000ce565b620001a981620001a28454620000e4565b8462000120565b602080601f831160018114620001e15760008415620001c85750858301515b600019600386901b1c1916600185901b1785556200016c565b600085815260208120601f198616915b828110156200021257888601518255948401946001909101908401620001f1565b5085821015620002315787850151600019600388901b60f8161c191681555b5050505050600190811b01905550565b608051615e4e6200026460003960008181610f4501526130ff0152615e4e6000f3fe6080604052600436106104d55760003560e01c80638472cbca11610281578063b84b160d1161015a578063e3d21555116100cc578063f3f8efb911610085578063f3f8efb914610fad578063f4bec0b614610fcd578063f6a0c93214610fed578063fc863e6414611023578063fd8b66de14611039578063fee81cf41461105957600080fd5b8063e3d2155514610ed4578063e985e9c514610eea578063ecda10f514610f33578063f04e283e14610f67578063f2361e2314610f7a578063f2fde38b14610f9a57600080fd5b8063c87b56dd1161011e578063c87b56dd14610e12578063cdb6dd5c14610e32578063d3d6873e14610e52578063d59752eb14610e7f578063d5b3621b14610e94578063dceef0ec14610eb457600080fd5b8063b84b160d14610d89578063b88d4fde14610da9578063b91fdc8c14610dc9578063ba41b0c614610ddf578063c093afdb14610df257600080fd5b80639f6e4637116101f3578063a23830ae116101b7578063a23830ae14610c96578063a4bf9a0014610cc4578063abc8c7af14610cf1578063b194b6f114610d11578063b45d031614610d31578063b66ef6e314610d6957600080fd5b80639f6e463714610c0a578063a035b1fe14610c2a578063a153178014610c40578063a1d6268014610c56578063a22cb46514610c7657600080fd5b806391b7f5ed1161024557806391b7f5ed14610b3b57806392012f0814610b5b57806395d89b4114610b8a5780639c05d68d14610b9f5780639c7be2f114610bd55780639eb2660c14610bea57600080fd5b80638472cbca14610a8c5780638aa1e4c814610ac25780638d2a2f1114610ae25780638da5cb5b14610b02578063916c546b14610b1b57600080fd5b80633ccfd60b116103b35780636352211e11610325578063715018a6116102e9578063715018a6146109f857806373ad6c2d14610a0057806375676db814610a2057806375794a3c14610a405780637e2e6c4714610a5657806380d833f114610a7657600080fd5b80636352211e14610916578063667043491461093657806367d2afe21461098b5780636e51665f146109b857806370a08231146109d857600080fd5b80634f6ccce7116103775780634f6ccce71461087957806350b031461461089957806354d1f13d146108ae578063550ab247146108b657806355737f35146108d65780635eabd84a146108f657600080fd5b80633ccfd60b146107e257806342842e0e146107f75780634287f14a14610817578063438b63001461082c5780634a4333a31461085957600080fd5b806323b872dd1161044c5780633044825b116104105780633044825b14610722578063306c73341461074257806332875aa01461076257806333d3d9bf14610782578063343b4887146107a25780633ab1a494146107c257600080fd5b806323b872dd1461069a57806325692962146106ba57806326f2052a146106c257806328257532146106e25780632f745c591461070257600080fd5b8063095ea7b31161049e578063095ea7b3146105cb5780630a99a350146105eb5780630c83f9d71461060b57806314fe8ff41461063b5780631581b6001461065b57806318160ddd1461067b57600080fd5b8062179206146104da57806301ffc9a7146104fc57806304003bd01461053157806306fdde0314610571578063081812fc14610593575b600080fd5b3480156104e657600080fd5b506104fa6104f5366004614c50565b61108c565b005b34801561050857600080fd5b5061051c610517366004614c83565b6110dc565b60405190151581526020015b60405180910390f35b34801561053d57600080fd5b5061055161054c366004614ca0565b6110ed565b604080516001600160a01b03938416815292909116602083015201610528565b34801561057d57600080fd5b5061058661111c565b6040516105289190614d09565b34801561059f57600080fd5b506105b36105ae366004614ca0565b6111ae565b6040516001600160a01b039091168152602001610528565b3480156105d757600080fd5b506104fa6105e6366004614d1c565b6111d5565b3480156105f757600080fd5b506104fa610606366004614c50565b611226565b34801561061757600080fd5b5061062b610626366004614ca0565b611276565b6040516105289493929190614d48565b34801561064757600080fd5b50610586610656366004614ca0565b611437565b34801561066757600080fd5b506014546105b3906001600160a01b031681565b34801561068757600080fd5b506008545b604051908152602001610528565b3480156106a657600080fd5b506104fa6106b5366004614d92565b6114f0565b6104fa61152f565b3480156106ce57600080fd5b506104fa6106dd366004614ee1565b61157e565b3480156106ee57600080fd5b506104fa6106fd366004614f7b565b611593565b34801561070e57600080fd5b5061068c61071d366004614d1c565b6116c1565b34801561072e57600080fd5b506104fa61073d366004614ca0565b611757565b34801561074e57600080fd5b5061058661075d366004614ca0565b611812565b34801561076e57600080fd5b5061058661077d366004614ca0565b61182a565b34801561078e57600080fd5b506104fa61079d366004614ca0565b6118e1565b3480156107ae57600080fd5b506104fa6107bd366004614fc3565b6118ee565b3480156107ce57600080fd5b506104fa6107dd366004614c50565b611b17565b3480156107ee57600080fd5b506104fa611b41565b34801561080357600080fd5b506104fa610812366004614d92565b611bc0565b34801561082357600080fd5b506104fa611bdb565b34801561083857600080fd5b5061084c610847366004614c50565b611c1c565b604051610528919061502a565b34801561086557600080fd5b506104fa61087436600461506e565b611cb3565b34801561088557600080fd5b5061068c610894366004614ca0565b612213565b3480156108a557600080fd5b5061051c6122a6565b6104fa6122b7565b3480156108c257600080fd5b506104fa6108d13660046150c3565b6122f3565b3480156108e257600080fd5b506105b36108f1366004614f7b565b612349565b34801561090257600080fd5b506104fa610911366004614c50565b612381565b34801561092257600080fd5b506105b3610931366004614ca0565b6123d1565b34801561094257600080fd5b50610956610951366004614ca0565b612431565b60405161052894939291906001600160a01b039485168152602081019390935292166040820152901515606082015260800190565b34801561099757600080fd5b506109ab6109a6366004614ca0565b6124e3565b6040516105289190615146565b3480156109c457600080fd5b506104fa6109d3366004615159565b61254f565b3480156109e457600080fd5b5061068c6109f3366004614c50565b6125f3565b6104fa612679565b348015610a0c57600080fd5b506104fa610a1b366004614c50565b61268b565b348015610a2c57600080fd5b50600e546105b3906001600160a01b031681565b348015610a4c57600080fd5b5061068c60135481565b348015610a6257600080fd5b506104fa610a71366004614c50565b6126db565b348015610a8257600080fd5b5061068c601d5481565b348015610a9857600080fd5b5061068c610aa7366004614c50565b6001600160a01b03166000908152601b602052604090205490565b348015610ace57600080fd5b5061051c610add366004614f7b565b61272b565b348015610aee57600080fd5b506104fa610afd366004614ca0565b61279a565b348015610b0e57600080fd5b50638b78c6d819546105b3565b348015610b2757600080fd5b50610586610b36366004614ca0565b6127a7565b348015610b4757600080fd5b506104fa610b56366004614ca0565b6127e9565b348015610b6757600080fd5b50610b7b610b763660046151a2565b6127f6565b6040516105289392919061529b565b348015610b9657600080fd5b50610586612947565b348015610bab57600080fd5b506105b3610bba366004614ca0565b601a602052600090815260409020546001600160a01b031681565b348015610be157600080fd5b506104fa612956565b348015610bf657600080fd5b506104fa610c05366004614ca0565b612978565b348015610c1657600080fd5b5061084c610c25366004614ca0565b612985565b348015610c3657600080fd5b5061068c60155481565b348015610c4c57600080fd5b5061068c601f5481565b348015610c6257600080fd5b50610586610c71366004614ca0565b612a1b565b348015610c8257600080fd5b506104fa610c913660046152de565b612a46565b348015610ca257600080fd5b50610cb6610cb13660046151a2565b612abf565b604051610528929190615313565b348015610cd057600080fd5b5061068c610cdf366004614c50565b601b6020526000908152604090205481565b348015610cfd57600080fd5b50600d546105b3906001600160a01b031681565b348015610d1d57600080fd5b506104fa610d2c366004614ca0565b612b6d565b348015610d3d57600080fd5b50610d51610d4c366004614ca0565b612b7a565b6040516105289c9b9a99989796959493929190615341565b348015610d7557600080fd5b506011546105b3906001600160a01b031681565b348015610d9557600080fd5b506104fa610da4366004614c50565b612c71565b348015610db557600080fd5b506104fa610dc43660046153ba565b612cc1565b348015610dd557600080fd5b5061068c60165481565b6104fa610ded366004615448565b612cf3565b348015610dfe57600080fd5b50600c546105b3906001600160a01b031681565b348015610e1e57600080fd5b50610586610e2d366004614ca0565b612e66565b348015610e3e57600080fd5b506104fa610e4d3660046154f1565b612ea7565b348015610e5e57600080fd5b50610e72610e6d366004614ca0565b612f4f565b6040516105289190615521565b348015610e8b57600080fd5b5061068c6130f8565b348015610ea057600080fd5b506104fa610eaf366004614ca0565b61312d565b348015610ec057600080fd5b50610586610ecf366004614ca0565b61315b565b348015610ee057600080fd5b5061068c60125481565b348015610ef657600080fd5b5061051c610f053660046155d8565b6001600160a01b03918216600090815260056020908152604080832093909416825291909152205460ff1690565b348015610f3f57600080fd5b5061068c7f000000000000000000000000000000000000000000000000000000000000000081565b6104fa610f75366004614c50565b613436565b348015610f8657600080fd5b506104fa610f95366004615606565b613473565b6104fa610fa8366004614c50565b6134e6565b348015610fb957600080fd5b50610586610fc8366004614ca0565b61350d565b348015610fd957600080fd5b506010546105b3906001600160a01b031681565b348015610ff957600080fd5b506105b3611008366004614ca0565b6000908152601a60205260409020546001600160a01b031690565b34801561102f57600080fd5b5061068c601e5481565b34801561104557600080fd5b50600f546105b3906001600160a01b031681565b34801561106557600080fd5b5061068c611074366004614c50565b63389a75e1600c908152600091909152602090205490565b6110946137c3565b61109c6122a6565b156110ba5760405163774ae17d60e01b815260040160405180910390fd5b601180546001600160a01b0319166001600160a01b0392909216919091179055565b60006110e7826137de565b92915050565b6000806110f9836123d1565b6000938452601a60205260409093205492936001600160a01b0390931692915050565b60606000805461112b9061568b565b80601f01602080910402602001604051908101604052809291908181526020018280546111579061568b565b80156111a45780601f10611179576101008083540402835291602001916111a4565b820191906000526020600020905b81548152906001019060200180831161118757829003601f168201915b5050505050905090565b60006111b982613803565b506000908152600460205260409020546001600160a01b031690565b6111de816123d1565b6001600160a01b0316336001600160a01b03161461120e576040516282b42960e81b815260040160405180910390fd5b6112188183613862565b61122282826138a1565b5050565b61122e6137c3565b6112366122a6565b156112545760405163774ae17d60e01b815260040160405180910390fd5b600e80546001600160a01b0319166001600160a01b0392909216919091179055565b600b60205260009081526040902080546001820180549192916112989061568b565b80601f01602080910402602001604051908101604052809291908181526020018280546112c49061568b565b80156113115780601f106112e657610100808354040283529160200191611311565b820191906000526020600020905b8154815290600101906020018083116112f457829003601f168201915b5050505050908060020180546113269061568b565b80601f01602080910402602001604051908101604052809291908181526020018280546113529061568b565b801561139f5780601f106113745761010080835404028352916020019161139f565b820191906000526020600020905b81548152906001019060200180831161138257829003601f168201915b5050505050908060030180546113b49061568b565b80601f01602080910402602001604051908101604052809291908181526020018280546113e09061568b565b801561142d5780601f106114025761010080835404028352916020019161142d565b820191906000526020600020905b81548152906001019060200180831161141057829003601f168201915b5050505050905084565b601054600c546060916001600160a01b03908116916327707b149116611472856000908152601a60205260409020546001600160a01b031690565b6012546040516001600160e01b031960e086901b1681526001600160a01b03938416600482015292909116602483015260448201526064015b600060405180830381865afa1580156114c8573d6000803e3d6000fd5b505050506040513d6000823e601f3d908101601f191682016040526110e79190810190615715565b6114fa338261390f565b61151f5760405162461bcd60e51b815260040161151690615749565b60405180910390fd5b61152a83838361398d565b505050565b60006202a3006001600160401b03164201905063389a75e1600c5233600052806020600c2055337fdbf36a107da19e49527a7176a1babf963b4b0ff8cde35ee35d6cd8f1f9ac7e1d600080a250565b6115866137c3565b6112226017826002614b14565b8161159d816123d1565b6001600160a01b0316336001600160a01b0316146115ce57604051631431735b60e21b815260040160405180910390fd5b816000036115ef57604051630754c7f360e41b815260040160405180910390fd5b600e546040516341e2a37360e01b815260048101859052602481018490526000916001600160a01b0316906341e2a37390604401602060405180830381865afa158015611640573d6000803e3d6000fd5b505050506040513d601f19601f820116820180604052508101906116649190615797565b9050611671848285613b3a565b828461167c866123d1565b6001600160a01b0316600080516020615df98339815191528460078111156116a6576116a66157b4565b60405160ff909116815260200160405180910390a450505050565b60006116cc836125f3565b821061172e5760405162461bcd60e51b815260206004820152602b60248201527f455243373231456e756d657261626c653a206f776e657220696e646578206f7560448201526a74206f6620626f756e647360a81b6064820152608401611516565b506001600160a01b03919091166000908152600660209081526040808320938352929052205490565b80611761816123d1565b6001600160a01b0316336001600160a01b03161461179257604051631431735b60e21b815260040160405180910390fd5b600082815260196020526040812081815560018101829055600281018290556003810182905560048101829055600581018290556006810191909155826117d8816123d1565b6001600160a01b03167f46078a2cd4c69c3b4a27bdc69fdfe03d442ebcf405f1a68e9b5df6bc3e24429760405160405180910390a3505050565b606080611821610b7684612f4f565b50949350505050565b600c5460609081906001600160a01b031663bb12d21d61184985612f4f565b6040518263ffffffff1660e01b81526004016118659190615521565b600060405180830381865afa158015611882573d6000803e3d6000fd5b505050506040513d6000823e601f3d908101601f191682016040526118aa91908101906157ca565b5091506118b8905083611812565b816040516020016118ca929190615868565b604051602081830303815290604052915050919050565b6118e96137c3565b601255565b836118f8816123d1565b6001600160a01b0316336001600160a01b03161461192957604051631431735b60e21b815260040160405180910390fd5b8351849060061461194d57604051631cf7e9c560e01b815260040160405180910390fd5b60048460ff161115611972576040516329ba348d60e11b815260040160405180910390fd5b60005b6006811015611abf57603060f81b82828151811061199557611995615897565b01602001516001600160f81b031916108015906119d65750603960f81b8282815181106119c4576119c4615897565b01602001516001600160f81b03191611155b158015611a385750604160f81b8282815181106119f5576119f5615897565b01602001516001600160f81b03191610801590611a365750604660f81b828281518110611a2457611a24615897565b01602001516001600160f81b03191611155b155b8015611a995750606160f81b828281518110611a5657611a56615897565b01602001516001600160f81b03191610801590611a975750606660f81b828281518110611a8557611a85615897565b01602001516001600160f81b03191611155b155b15611ab757604051631cf7e9c560e01b815260040160405180910390fd5b600101611975565b506000868152601960205260409020600a01611adb86826158f5565b50505060009384526019602052604090932060098101805460ff90931660ff19938416179055600b018054931515939091169290921790915550565b611b1f6137c3565b601480546001600160a01b0319166001600160a01b0392909216919091179055565b611b496137c3565b6014546040516000916001600160a01b03169047908381818185875af1925050503d8060008114611b96576040519150601f19603f3d011682016040523d82523d6000602084013e611b9b565b606091505b5050905080611bbd57604051631d42c86760e21b815260040160405180910390fd5b50565b61152a83838360405180602001604052806000815250612cc1565b611be36137c3565b6002611bee60085490565b1115611c0d5760405163155b299760e31b815260040160405180910390fd5b611c1a3360026007613c95565b565b60606000611c29836125f3565b90506000816001600160401b03811115611c4557611c45614dd3565b604051908082528060200260200182016040528015611c6e578160200160208202803683370190505b50905060005b82811015611cab57611c8685826116c1565b828281518110611c9857611c98615897565b6020908102919091010152600101611c74565b509392505050565b87611cbd816123d1565b6001600160a01b0316336001600160a01b031614611cee57604051631431735b60e21b815260040160405180910390fd5b6000898152601960209081526040808320601a909252909120546001600160a01b03168915611dba57600e546040516395d004cb60e01b81526001600160a01b03909116906395d004cb90611d4c9084908e906001906004016159b4565b60006040518083038186803b158015611d6457600080fd5b505afa158015611d78573d6000803e3d6000fd5b5050508a835550898b611d8a816123d1565b6001600160a01b0316600080516020615df9833981519152600160405160ff909116815260200160405180910390a45b8815611e6757600e546040516395d004cb60e01b81526001600160a01b03909116906395d004cb90611df59084908d906002906004016159b4565b60006040518083038186803b158015611e0d57600080fd5b505afa158015611e21573d6000803e3d6000fd5b5050505060018201899055888b611e37816123d1565b6001600160a01b0316600080516020615df9833981519152600260405160ff909116815260200160405180910390a45b8715611f1457600e546040516395d004cb60e01b81526001600160a01b03909116906395d004cb90611ea29084908c906003906004016159b4565b60006040518083038186803b158015611eba57600080fd5b505afa158015611ece573d6000803e3d6000fd5b5050505060028201889055878b611ee4816123d1565b6001600160a01b0316600080516020615df9833981519152600360405160ff909116815260200160405180910390a45b8615611fc057600e546040516395d004cb60e01b81526001600160a01b03909116906395d004cb90611f4e9084908b9060049081016159b4565b60006040518083038186803b158015611f6657600080fd5b505afa158015611f7a573d6000803e3d6000fd5b5050505060038201879055868b611f90816123d1565b6001600160a01b0316600080516020615df9833981519152600460405160ff909116815260200160405180910390a45b851561206d57600e546040516395d004cb60e01b81526001600160a01b03909116906395d004cb90611ffb9084908a906005906004016159b4565b60006040518083038186803b15801561201357600080fd5b505afa158015612027573d6000803e3d6000fd5b5050505060048201869055858b61203d816123d1565b6001600160a01b0316600080516020615df9833981519152600560405160ff909116815260200160405180910390a45b841561211a57600e546040516395d004cb60e01b81526001600160a01b03909116906395d004cb906120a890849089906006906004016159b4565b60006040518083038186803b1580156120c057600080fd5b505afa1580156120d4573d6000803e3d6000fd5b5050505060058201859055848b6120ea816123d1565b6001600160a01b0316600080516020615df9833981519152600660405160ff909116815260200160405180910390a45b83156121c757600e546040516395d004cb60e01b81526001600160a01b03909116906395d004cb9061215590849088906007906004016159b4565b60006040518083038186803b15801561216d57600080fd5b505afa158015612181573d6000803e3d6000fd5b5050505060068201849055838b612197816123d1565b6001600160a01b0316600080516020615df9833981519152600760405160ff909116815260200160405180910390a45b8a6121d18c6123d1565b6001600160a01b03167f56680590212b09eb4b72a2eba8801b037ec046dfc754538e924f5bb6a8c4db6c60405160405180910390a35050505050505050505050565b600061221e60085490565b82106122815760405162461bcd60e51b815260206004820152602c60248201527f455243373231456e756d657261626c653a20676c6f62616c20696e646578206f60448201526b7574206f6620626f756e647360a01b6064820152608401611516565b6008828154811061229457612294615897565b90600052602060002001549050919050565b60006122b06130f8565b4211905090565b63389a75e1600c523360005260006020600c2055337ffa7b8eab7da67f412cc9575ed43464468f9bfbae89d1675917346ca6d8fe3c92600080a2565b60006122fe846123d1565b90506001600160a01b0381163314612328576040516282b42960e81b815260040160405180910390fd5b8115612338576123388484613862565b612343818484613fa8565b50505050565b601c602052816000526040600020818154811061236557600080fd5b6000918252602090912001546001600160a01b03169150829050565b6123896137c3565b6123916122a6565b156123af5760405163774ae17d60e01b815260040160405180910390fd5b600c80546001600160a01b0319166001600160a01b0392909216919091179055565b6000818152600260205260408120546001600160a01b0316806110e75760405162461bcd60e51b8152602060048201526018602482015277115490cdcc8c4e881a5b9d985b1a59081d1bdad95b88125160421b6044820152606401611516565b600c546040516331a9108f60e11b8152600481018390526000918291829182916001600160a01b0390911690636352211e90602401602060405180830381865afa158015612483573d6000803e3d6000fd5b505050506040513d601f19601f820116820180604052508101906124a791906159f7565b6001600160a01b0381166000908152601b602052604090205490945092506124ce836123d1565b91506124da838661272b565b90509193509193565b6000818152601c602090815260409182902080548351818402810184019094528084526060939283018282801561254357602002820191906000526020600020905b81546001600160a01b03168152600190910190602001808311612525575b50505050509050919050565b6125576137c3565b60048160ff16108061256c575060078160ff16115b1561258a57604051632258debf60e01b815260040160405180910390fd5b601654158061259a575060165442105b156125b857604051630314872760e11b815260040160405180910390fd5b6016546125c89062016da0615a2a565b4211156125e85760405163124212e560e21b815260040160405180910390fd5b61152a838383613c95565b60006001600160a01b03821661265d5760405162461bcd60e51b815260206004820152602960248201527f4552433732313a2061646472657373207a65726f206973206e6f7420612076616044820152683634b21037bbb732b960b91b6064820152608401611516565b506001600160a01b031660009081526003602052604090205490565b6126816137c3565b611c1a600061406e565b6126936137c3565b61269b6122a6565b156126b95760405163774ae17d60e01b815260040160405180910390fd5b600d80546001600160a01b0319166001600160a01b0392909216919091179055565b6126e36137c3565b6126eb6122a6565b156127095760405163774ae17d60e01b815260040160405180910390fd5b601080546001600160a01b0319166001600160a01b0392909216919091179055565b60008061273784612f4f565b805190915083148061274c5750828160200151145b8061275a5750828160400151145b806127685750828160600151145b806127765750828160800151145b806127845750828160a00151145b806127925750828160c00151145b949350505050565b6127a26137c3565b601d55565b6010546000828152600b602052604090819020905163da11a05360e01b81526060926001600160a01b03169163da11a053916114ab9160020190600401615aba565b6127f16137c3565b601555565b606080606061280c84610120015160ff166127a7565b6101208501805160ff9081166000908152600b602052604080822060105494519093168252908190209051630d88d4ff60e01b81526003909201926001600160a01b031691630d88d4ff9161286991600190910190600401615acd565b600060405180830381865afa158015612886573d6000803e3d6000fd5b505050506040513d6000823e601f3d908101601f191682016040526128ae9190810190615715565b8180546128ba9061568b565b80601f01602080910402602001604051908101604052809291908181526020018280546128e69061568b565b80156129335780601f1061290857610100808354040283529160200191612933565b820191906000526020600020905b81548152906001019060200180831161291657829003601f168201915b505050505091509250925092509193909250565b60606001805461112b9061568b565b60005b600a811015611bbd57606061296f600482612cf3565b50600101612959565b6129806137c3565b601e55565b6000818152601a6020526040812054606091906001600160a01b0316600c5460405162438b6360e81b81526001600160a01b03808416600483015292935091169063438b630090602401600060405180830381865afa1580156129ec573d6000803e3d6000fd5b505050506040513d6000823e601f3d908101601f19168201604052612a149190810190615b00565b9392505050565b6060612a2682612f4f565b6101600151612a3d57612a388261350d565b6110e7565b6110e78261315b565b8015612ab4576000612a5733611c1c565b90508051600003612a7a576040516282b42960e81b815260040160405180910390fd5b60005b8151811015612ab157612aa9828281518110612a9b57612a9b615897565b602002602001015185613862565b600101612a7d565b50505b611222338383613fa8565b606080612ad383610120015160ff166127a7565b60105461012085015160ff166000908152600b6020526040908190209051630d88d4ff60e01b81526001600160a01b0390921691630d88d4ff91612b1f91600190910190600401615acd565b600060405180830381865afa158015612b3c573d6000803e3d6000fd5b505050506040513d6000823e601f3d908101601f19168201604052612b649190810190615715565b91509150915091565b612b756137c3565b601f55565b601960205260009081526040902080546001820154600283015460038401546004850154600586015460068701546007880154600889015460098a0154600a8b0180549a9b999a9899979896979596949563ffffffff90941694929360ff90921692612be59061568b565b80601f0160208091040260200160405190810160405280929190818152602001828054612c119061568b565b8015612c5e5780601f10612c3357610100808354040283529160200191612c5e565b820191906000526020600020905b815481529060010190602001808311612c4157829003601f168201915b505050600b909301549192505060ff168c565b612c796137c3565b612c816122a6565b15612c9f5760405163774ae17d60e01b815260040160405180910390fd5b600f80546001600160a01b0319166001600160a01b0392909216919091179055565b612ccb338361390f565b612ce75760405162461bcd60e51b815260040161151690615749565b612343848484846140ac565b600f546001600160a01b0316612d1c5760405163d93186fd60e01b815260040160405180910390fd5b811580612d295750600a82115b15612d475760405163199f5a0360e31b815260040160405180910390fd5b6016541580612d57575060165442105b15612d7557604051630314872760e11b815260040160405180910390fd5b601654612d859062015180615a2a565b421115612da55760405163124212e560e21b815260040160405180910390fd5b81601554612db39190615b85565b3414612dd25760405163356680b760e01b815260040160405180910390fd5b6040516bffffffffffffffffffffffff193360601b166020820152600490600090603401604051602081830303815290604052805190602001209050612e1b83601d54836140df565b15612e295760059150612e5b565b612e3683601e54836140df565b15612e445760069150612e5b565b612e5183601f54836140df565b15612e5b57600791505b612343338584613c95565b6000818152600260205260409020546060906001600160a01b0316612e9e57604051636461f73160e01b815260040160405180910390fd5b6110e782612a1b565b81612eb1816123d1565b6001600160a01b0316336001600160a01b031614612ee257604051631431735b60e21b815260040160405180910390fd5b612eee83836000613b3a565b82612ef8846123d1565b6001600160a01b03167f3d8ac56c725fc7985e9444622a45baee28ba67d8a964045f747b465121f40e71846007811115612f3457612f346157b4565b60405160ff90911681526020015b60405180910390a3505050565b612fbe60405180610180016040528060008152602001600081526020016000815260200160008152602001600081526020016000815260200160008152602001600063ffffffff16815260200160008152602001600060ff168152602001606081526020016000151581525090565b600082815260196020908152604091829020825161018081018452815481526001820154928101929092526002810154928201929092526003820154606082015260048201546080820152600582015460a0820152600682015460c0820152600782015463ffffffff1660e08201526008820154610100820152600982015460ff16610120820152600a820180549192916101408401919061305f9061568b565b80601f016020809104026020016040519081016040528092919081815260200182805461308b9061568b565b80156130d85780601f106130ad576101008083540402835291602001916130d8565b820191906000526020600020905b8154815290600101906020018083116130bb57829003601f168201915b5050509183525050600b919091015460ff16151560209091015292915050565b60006131287f00000000000000000000000000000000000000000000000000000000000000006301e13380615a2a565b905090565b6131356137c3565b601654156131565760405163703e78e960e11b815260040160405180910390fd5b601655565b606080606080606080606061316e614b5d565b60006131798a612f4f565b9050613184816127f6565b50600c5460405163bb12d21d60e01b8152929a509097506001600160a01b03169063bb12d21d906131b9908490600401615521565b600060405180830381865afa1580156131d6573d6000803e3d6000fd5b505050506040513d6000823e601f3d908101601f191682016040526131fe91908101906157ca565b60405192995090965093506132199087908790602001615868565b60408051601f198184030181529190526101408201518352935061323c8a612985565b5160408084019190915261012082015160ff166000908152600b6020522060010180546132689061568b565b80601f01602080910402602001604051908101604052809291908181526020018280546132949061568b565b80156132e15780601f106132b6576101008083540402835291602001916132e1565b820191906000526020600020905b8154815290600101906020018083116132c457829003601f168201915b5050505050602083015260408051808201909152601760026000835b828210156133a05783820180546133139061568b565b80601f016020809104026020016040519081016040528092919081815260200182805461333f9061568b565b801561338c5780601f106133615761010080835404028352916020019161338c565b820191906000526020600020905b81548152906001019060200180831161336f57829003601f168201915b5050505050815260200190600101906132fd565b5050505060608301526011546040516323e2ba9960e11b81526001600160a01b03909116906347c57532906133e3908d908c908c9089908b908a90600401615c27565b600060405180830381865afa158015613400573d6000803e3d6000fd5b505050506040513d6000823e601f3d908101601f191682016040526134289190810190615715565b9a9950505050505050505050565b61343e6137c3565b63389a75e1600c52806000526020600c20805442111561346657636f5e88186000526004601cfd5b60009055611bbd8161406e565b61347b6137c3565b6134836122a6565b156134a15760405163774ae17d60e01b815260040160405180910390fd5b6000848152600b60205260409020848155600181016134c085826158f5565b50600281016134cf84826158f5565b50600381016134de83826158f5565b505050505050565b6134ee6137c3565b8060601b61350457637448fbae6000526004601cfd5b611bbd8161406e565b606080606080606061351d614b5d565b600061352888612f4f565b905061353381612abf565b50600c54604051631be5857160e31b81529197506001600160a01b03169063df2c2b8890613565908490600401615521565b600060405180830381865afa158015613582573d6000803e3d6000fd5b505050506040513d6000823e601f3d908101601f191682016040526135aa9190810190615c9b565b90955093506135b888611437565b610140820151835292506135cb88612985565b5160408084019190915261012082015160ff166000908152600b6020522060010180546135f79061568b565b80601f01602080910402602001604051908101604052809291908181526020018280546136239061568b565b80156136705780601f1061364557610100808354040283529160200191613670565b820191906000526020600020905b81548152906001019060200180831161365357829003601f168201915b5050505050602083015260408051808201909152601760026000835b8282101561372f5783820180546136a29061568b565b80601f01602080910402602001604051908101604052809291908181526020018280546136ce9061568b565b801561371b5780601f106136f05761010080835404028352916020019161371b565b820191906000526020600020905b8154815290600101906020018083116136fe57829003601f168201915b50505050508152602001906001019061368c565b505050506060830152601054604051631589d6a760e21b81526001600160a01b03909116906356275a9c90613772908b908a908a908a908a908a90600401615c27565b600060405180830381865afa15801561378f573d6000803e3d6000fd5b505050506040513d6000823e601f3d908101601f191682016040526137b79190810190615715565b98975050505050505050565b638b78c6d819543314611c1a576382b429006000526004601cfd5b60006001600160e01b0319821663780e9d6360e01b14806110e757506110e782614121565b6000818152600260205260409020546001600160a01b0316611bbd5760405162461bcd60e51b8152602060048201526018602482015277115490cdcc8c4e881a5b9d985b1a59081d1bdad95b88125160421b6044820152606401611516565b6000918252601c6020908152604083208054600181018255908452922090910180546001600160a01b0319166001600160a01b03909216919091179055565b600081815260046020526040902080546001600160a01b0319166001600160a01b03841690811790915581906138d6826123d1565b6001600160a01b03167f8c5be1e5ebec7d5bd14f71427d1e84f3dd0314c0f7b2291e5b200ac8c7c3b92560405160405180910390a45050565b60008061391b836123d1565b9050806001600160a01b0316846001600160a01b0316148061396257506001600160a01b0380821660009081526005602090815260408083209388168352929052205460ff165b806127925750836001600160a01b031661397b846111ae565b6001600160a01b031614949350505050565b826001600160a01b03166139a0826123d1565b6001600160a01b031614613a045760405162461bcd60e51b815260206004820152602560248201527f4552433732313a207472616e736665722066726f6d20696e636f72726563742060448201526437bbb732b960d91b6064820152608401611516565b6001600160a01b038216613a665760405162461bcd60e51b8152602060048201526024808201527f4552433732313a207472616e7366657220746f20746865207a65726f206164646044820152637265737360e01b6064820152608401611516565b613a71838383614171565b613a7c6000826138a1565b6001600160a01b0383166000908152600360205260408120805460019290613aa5908490615cfe565b90915550506001600160a01b0382166000908152600360205260408120805460019290613ad3908490615a2a565b909155505060008181526002602052604080822080546001600160a01b0319166001600160a01b0386811691821790925591518493918716917fddf252ad1be2c89b69c2b068fc378daa952ba7f163c4a11628f55a4df523b3ef91a461152a838383614582565b6001826007811115613b4e57613b4e6157b4565b03613b69576000838152601960205260409020819055505050565b6002826007811115613b7d57613b7d6157b4565b03613b9b576000838152601960205260409020600101819055505050565b6003826007811115613baf57613baf6157b4565b03613bcd576000838152601960205260409020600201819055505050565b6004826007811115613be157613be16157b4565b03613bff576000838152601960205260409020600301819055505050565b6005826007811115613c1357613c136157b4565b03613c31576000838152601960205260409020600401819055505050565b6006826007811115613c4557613c456157b4565b03613c63576000838152601960205260409020600501819055505050565b6007826007811115613c7757613c776157b4565b0361152a576000838152601960205260409020600601819055505050565b60005b82811015612343576013805460010190819055613cb5858261458c565b604051638a54c52f60e01b81527355266d75d1a14e4572138116af39863ed6596e7f600482015260006024820181905262014a34604483015230606483015260848201839052906f6551c19487814612e58fe0681377575890638a54c52f9060a4016020604051808303816000875af1158015613d36573d6000803e3d6000fd5b505050506040513d601f19601f82011682018060405250810190613d5a91906159f7565b6000838152601a6020908152604080832080546001600160a01b0319166001600160a01b038616908117909155808452601b90925291829020859055905163189acdbd60e31b81527341c8f39463a868d3a88af00cd0fe7102f30e44ec60048201529192509063c4d66de890602401600060405180830381600087803b158015613de357600080fd5b505af1158015613df7573d6000803e3d6000fd5b5050600f546040516358a2727360e01b81526001600160a01b03858116600483015260ff891660248301526000945090911691506358a27273906044016000604051808303816000875af1158015613e53573d6000803e3d6000fd5b505050506040513d6000823e601f3d908101601f19168201604052613e7b9190810190615b00565b600084815260196020908152604091829020600881018790558251918201879052929350600591016040516020818303038152906040528051906020012060001c81613ec957613ec9615d11565b60098301805460ff19169290910660ff169190911790556040805180820190915260068152650c110d914e5160d21b6020820152600a820190613f0c90826158f5565b5081600081518110613f2057613f20615897565b6020026020010151816006018190555081600181518110613f4357613f43615897565b6020026020010151816005018190555081600281518110613f6657613f66615897565b6020026020010151816004018190555081600381518110613f8957613f89615897565b6020026020010151816001018190555050505050806001019050613c98565b816001600160a01b0316836001600160a01b0316036140095760405162461bcd60e51b815260206004820152601960248201527f4552433732313a20617070726f766520746f2063616c6c6572000000000000006044820152606401611516565b6001600160a01b03838116600081815260056020908152604080832094871680845294825291829020805460ff191686151590811790915591519182527f17307eab39ab6107e8899845ad3d59bd9653f200f220920489ca2b5937696c319101612f42565b638b78c6d81980546001600160a01b039092169182907f8be0079c531659141344cd1fd0a4f28419497f9722a3daafe3b4186f6b6457e0600080a355565b6140b784848461398d565b6140c3848484846146e2565b6123435760405162461bcd60e51b815260040161151690615d27565b600083511561411a5760208401845160051b81015b8151841160051b9384528151602094851852604060002093909101908082106140f45750505b5014919050565b60006001600160e01b031982166380ac58cd60e01b148061415257506001600160e01b03198216635b5e139f60e01b145b806110e757506301ffc9a760e01b6001600160e01b03198316146110e7565b6001600160a01b03831661418a5761152a8383836147e3565b60165461419a9062015180615a2a565b4210156141ba5760405163ae735dad60e01b815260040160405180910390fd5b6001600160a01b0382166000908152601b6020526040902054156141f157604051639a42da2960e01b815260040160405180910390fd5b6000818152601a60205260408120546001600160a01b03169061421384611c1c565b9050600081516001600160401b0381111561423057614230614dd3565b604051908082528060200260200182016040528015614259578160200160208202803683370190505b50905060005b82518110156142da57601a600084838151811061427e5761427e615897565b6020026020010151815260200190815260200160002060009054906101000a90046001600160a01b03168282815181106142ba576142ba615897565b6001600160a01b039092166020928302919091019091015260010161425f565b50600d5460405163644ec52760e01b8152600481018690526001600160a01b039091169063644ec52790602401600060405180830381600087803b15801561432157600080fd5b505af1158015614335573d6000803e3d6000fd5b5050600d54604051631e92beb560e31b8152600481018890526001600160a01b038981166024830152909116925063f495f5a89150604401600060405180830381600087803b15801561438757600080fd5b505af115801561439b573d6000803e3d6000fd5b5050600c5460405162438b6360e81b81526001600160a01b03878116600483015260009450909116915063438b630090602401600060405180830381865afa1580156143eb573d6000803e3d6000fd5b505050506040513d6000823e601f3d908101601f191682016040526144139190810190615b00565b905060005b815181101561456d57600082828151811061443557614435615897565b6020908102919091010151600d54604051632e1d274f60e01b8152600481018390529192506001600160a01b031690632e1d274f90602401600060405180830381600087803b15801561448757600080fd5b505af115801561449b573d6000803e3d6000fd5b5050600d54604051632333520b60e11b81526001600160a01b039091169250634666a41691506144d19084908890600401615d79565b600060405180830381600087803b1580156144eb57600080fd5b505af11580156144ff573d6000803e3d6000fd5b5050600c5460405163487b1c2160e11b8152600481018590526001600160a01b0390911692506390f638429150602401600060405180830381600087803b15801561454957600080fd5b505af115801561455d573d6000803e3d6000fd5b5050505050806001019050614418565b506145798787876147e3565b50505050505050565b61152a818461489b565b6001600160a01b0382166145e25760405162461bcd60e51b815260206004820181905260248201527f4552433732313a206d696e7420746f20746865207a65726f20616464726573736044820152606401611516565b6000818152600260205260409020546001600160a01b0316156146475760405162461bcd60e51b815260206004820152601c60248201527f4552433732313a20746f6b656e20616c7265616479206d696e746564000000006044820152606401611516565b61465360008383614171565b6001600160a01b038216600090815260036020526040812080546001929061467c908490615a2a565b909155505060008181526002602052604080822080546001600160a01b0319166001600160a01b03861690811790915590518392907fddf252ad1be2c89b69c2b068fc378daa952ba7f163c4a11628f55a4df523b3ef908290a461122260008383614582565b60006001600160a01b0384163b156147d857604051630a85bd0160e11b81526001600160a01b0385169063150b7a0290614726903390899088908890600401615d92565b6020604051808303816000875af1925050508015614761575060408051601f3d908101601f1916820190925261475e91810190615dc5565b60015b6147be573d80801561478f576040519150601f19603f3d011682016040523d82523d6000602084013e614794565b606091505b5080516000036147b65760405162461bcd60e51b815260040161151690615d27565b805181602001fd5b6001600160e01b031916630a85bd0160e11b149050612792565b506001949350505050565b6001600160a01b03831661483e5761483981600880546000838152600960205260408120829055600182018355919091527ff3f7a9fe364faab93b216da50a3214154f22a0a2b415b23a84c8169e8b636ee30155565b614861565b816001600160a01b0316836001600160a01b031614614861576148618382614984565b6001600160a01b0382166148785761152a81614a21565b826001600160a01b0316826001600160a01b03161461152a5761152a8282614ad0565b6000828152601c60209081526040808320805482518185028101850190935280835291929091908301828280156148fb57602002820191906000526020600020905b81546001600160a01b031681526001909101906020018083116148dd575b5050506000868152601a60205260408120549394506001600160a01b03909316929150505b825181101561496c5761494e8484838151811061493f5761493f615897565b60200260200101516000613fa8565b6149648284838151811061493f5761493f615897565b600101614920565b506000848152601c6020526040812061234391614b8a565b60006001614991846125f3565b61499b9190615cfe565b6000838152600760205260409020549091508082146149ee576001600160a01b03841660009081526006602090815260408083208584528252808320548484528184208190558352600790915290208190555b5060009182526007602090815260408084208490556001600160a01b039094168352600681528383209183525290812055565b600854600090614a3390600190615cfe565b60008381526009602052604081205460088054939450909284908110614a5b57614a5b615897565b906000526020600020015490508060088381548110614a7c57614a7c615897565b6000918252602080832090910192909255828152600990915260408082208490558582528120556008805480614ab457614ab4615de2565b6001900381819060005260206000200160009055905550505050565b6000614adb836125f3565b6001600160a01b039093166000908152600660209081526040808320868452825280832085905593825260079052919091209190915550565b8260028101928215614b4d579160200282015b82811115614b4d5782518290614b3d90826158f5565b5091602001919060010190614b27565b50614b59929150614ba8565b5090565b6040518060800160405280606081526020016060815260200160008152602001614b85614bc5565b905290565b5080546000825590600052602060002090810190611bbd9190614bec565b80821115614b59576000614bbc8282614c01565b50600101614ba8565b60405180604001604052806002905b6060815260200190600190039081614bd45790505090565b5b80821115614b595760008155600101614bed565b508054614c0d9061568b565b6000825580601f10614c1d575050565b601f016020900490600052602060002090810190611bbd9190614bec565b6001600160a01b0381168114611bbd57600080fd5b600060208284031215614c6257600080fd5b8135612a1481614c3b565b6001600160e01b031981168114611bbd57600080fd5b600060208284031215614c9557600080fd5b8135612a1481614c6d565b600060208284031215614cb257600080fd5b5035919050565b60005b83811015614cd4578181015183820152602001614cbc565b50506000910152565b60008151808452614cf5816020860160208601614cb9565b601f01601f19169290920160200192915050565b602081526000612a146020830184614cdd565b60008060408385031215614d2f57600080fd5b8235614d3a81614c3b565b946020939093013593505050565b848152608060208201526000614d616080830186614cdd565b8281036040840152614d738186614cdd565b90508281036060840152614d878185614cdd565b979650505050505050565b600080600060608486031215614da757600080fd5b8335614db281614c3b565b92506020840135614dc281614c3b565b929592945050506040919091013590565b634e487b7160e01b600052604160045260246000fd5b604080519081016001600160401b0381118282101715614e0b57614e0b614dd3565b60405290565b60405161018081016001600160401b0381118282101715614e0b57614e0b614dd3565b604051601f8201601f191681016001600160401b0381118282101715614e5c57614e5c614dd3565b604052919050565b60006001600160401b03821115614e7d57614e7d614dd3565b50601f01601f191660200190565b600082601f830112614e9c57600080fd5b8135614eaf614eaa82614e64565b614e34565b818152846020838601011115614ec457600080fd5b816020850160208301376000918101602001919091529392505050565b60006020808385031215614ef457600080fd5b82356001600160401b0380821115614f0b57600080fd5b818501915085601f830112614f1f57600080fd5b614f27614de9565b806040840188811115614f3957600080fd5b845b81811015614f6d57803585811115614f535760008081fd5b614f5f8b828901614e8b565b855250928601928601614f3b565b509098975050505050505050565b60008060408385031215614f8e57600080fd5b50508035926020909101359150565b803560ff81168114614fae57600080fd5b919050565b80358015158114614fae57600080fd5b60008060008060808587031215614fd957600080fd5b8435935060208501356001600160401b03811115614ff657600080fd5b61500287828801614e8b565b93505061501160408601614f9d565b915061501f60608601614fb3565b905092959194509250565b6020808252825182820181905260009190848201906040850190845b8181101561506257835183529284019291840191600101615046565b50909695505050505050565b600080600080600080600080610100898b03121561508b57600080fd5b505086359860208801359850604088013597606081013597506080810135965060a0810135955060c0810135945060e0013592509050565b6000806000606084860312156150d857600080fd5b8335925060208401356150ea81614c3b565b91506150f860408501614fb3565b90509250925092565b60008151808452602080850194506020840160005b8381101561513b5781516001600160a01b031687529582019590820190600101615116565b509495945050505050565b602081526000612a146020830184615101565b60008060006060848603121561516e57600080fd5b833561517981614c3b565b9250602084013591506150f860408501614f9d565b803563ffffffff81168114614fae57600080fd5b6000602082840312156151b457600080fd5b81356001600160401b03808211156151cb57600080fd5b9083019061018082860312156151e057600080fd5b6151e8614e11565b823581526020830135602082015260408301356040820152606083013560608201526080830135608082015260a083013560a082015260c083013560c082015261523460e0840161518e565b60e08201526101008381013590820152610120615252818501614f9d565b90820152610140838101358381111561526a57600080fd5b61527688828701614e8b565b828401525050610160915061528c828401614fb3565b91810191909152949350505050565b6060815260006152ae6060830186614cdd565b82810360208401526152c08186614cdd565b905082810360408401526152d48185614cdd565b9695505050505050565b600080604083850312156152f157600080fd5b82356152fc81614c3b565b915061530a60208401614fb3565b90509250929050565b6040815260006153266040830185614cdd565b82810360208401526153388185614cdd565b95945050505050565b60006101808e83528d60208401528c60408401528b60608401528a60808401528960a08401528860c084015263ffffffff881660e08401528661010084015260ff86166101208401528061014084015261539d81840186614cdd565b9150508215156101608301529d9c50505050505050505050505050565b600080600080608085870312156153d057600080fd5b84356153db81614c3b565b935060208501356153eb81614c3b565b92506040850135915060608501356001600160401b0381111561540d57600080fd5b61541987828801614e8b565b91505092959194509250565b60006001600160401b0382111561543e5761543e614dd3565b5060051b60200190565b6000806040838503121561545b57600080fd5b823591506020808401356001600160401b0381111561547957600080fd5b8401601f8101861361548a57600080fd5b8035615498614eaa82615425565b81815260059190911b820183019083810190888311156154b757600080fd5b928401925b828410156154d5578335825292840192908401906154bc565b80955050505050509250929050565b60088110611bbd57600080fd5b6000806040838503121561550457600080fd5b823591506020830135615516816154e4565b809150509250929050565b6020815281516020820152602082015160408201526040820151606082015260608201516080820152608082015160a082015260a082015160c082015260c082015160e0820152600060e08301516101006155838185018363ffffffff169052565b8401516101208481019190915284015190506101406155a68185018360ff169052565b8085015191505061018061016081818601526155c66101a0860184614cdd565b95015115159301929092525090919050565b600080604083850312156155eb57600080fd5b82356155f681614c3b565b9150602083013561551681614c3b565b6000806000806080858703121561561c57600080fd5b8435935060208501356001600160401b038082111561563a57600080fd5b61564688838901614e8b565b9450604087013591508082111561565c57600080fd5b61566888838901614e8b565b9350606087013591508082111561567e57600080fd5b5061541987828801614e8b565b600181811c9082168061569f57607f821691505b6020821081036156bf57634e487b7160e01b600052602260045260246000fd5b50919050565b60006156d3614eaa84614e64565b90508281528383830111156156e757600080fd5b612a14836020830184614cb9565b600082601f83011261570657600080fd5b612a14838351602085016156c5565b60006020828403121561572757600080fd5b81516001600160401b0381111561573d57600080fd5b612792848285016156f5565b6020808252602e908201527f4552433732313a2063616c6c6572206973206e6f7420746f6b656e206f776e6560408201526d1c881b9bdc88185c1c1c9bdd995960921b606082015260800190565b6000602082840312156157a957600080fd5b8151612a14816154e4565b634e487b7160e01b600052602160045260246000fd5b6000806000606084860312156157df57600080fd5b83516001600160401b03808211156157f657600080fd5b615802878388016156f5565b9450602086015191508082111561581857600080fd5b818601915086601f83011261582c57600080fd5b61583b878351602085016156c5565b9350604086015191508082111561585157600080fd5b5061585e868287016156f5565b9150509250925092565b6000835161587a818460208801614cb9565b83519083019061588e818360208801614cb9565b01949350505050565b634e487b7160e01b600052603260045260246000fd5b601f82111561152a576000816000526020600020601f850160051c810160208610156158d65750805b601f850160051c820191505b818110156134de578281556001016158e2565b81516001600160401b0381111561590e5761590e614dd3565b6159228161591c845461568b565b846158ad565b602080601f831160018114615957576000841561593f5750858301515b600019600386901b1c1916600185901b1785556134de565b600085815260208120601f198616915b8281101561598657888601518255948401946001909101908401615967565b50858210156159a45787850151600019600388901b60f8161c191681555b5050505050600190811b01905550565b6001600160a01b03841681526020810183905260608101600883106159e957634e487b7160e01b600052602160045260246000fd5b826040830152949350505050565b600060208284031215615a0957600080fd5b8151612a1481614c3b565b634e487b7160e01b600052601160045260246000fd5b808201808211156110e7576110e7615a14565b60008154615a4a8161568b565b808552602060018381168015615a675760018114615a8157615aaf565b60ff1985168884015283151560051b880183019550615aaf565b866000528260002060005b85811015615aa75781548a8201860152908301908401615a8c565b890184019650505b505050505092915050565b602081526000612a146020830184615a3d565b604081526009604082015268426f6479205479706560b81b6060820152608060208201526000612a146080830184615a3d565b60006020808385031215615b1357600080fd5b82516001600160401b03811115615b2957600080fd5b8301601f81018513615b3a57600080fd5b8051615b48614eaa82615425565b81815260059190911b82018301908381019087831115615b6757600080fd5b928401925b82841015614d8757835182529284019290840190615b6c565b80820281158282048414176110e7576110e7615a14565b6000815160808452615bb16080850182614cdd565b90506020808401518583036020870152615bcb8382614cdd565b9250506040840151604086015260608401518583036060870152828390506040840160005b6002811015615c1b578582038352615c09828551614cdd565b93850193928501929150600101615bf0565b50979650505050505050565b86815260c060208201526000615c4060c0830188614cdd565b8281036040840152615c528188614cdd565b90508281036060840152615c668187614cdd565b90508281036080840152615c7a8186614cdd565b905082810360a0840152615c8e8185615b9c565b9998505050505050505050565b60008060408385031215615cae57600080fd5b82516001600160401b0380821115615cc557600080fd5b615cd1868387016156f5565b93506020850151915080821115615ce757600080fd5b50615cf4858286016156f5565b9150509250929050565b818103818111156110e7576110e7615a14565b634e487b7160e01b600052601260045260246000fd5b60208082526032908201527f4552433732313a207472616e7366657220746f206e6f6e20455243373231526560408201527131b2b4bb32b91034b6b83632b6b2b73a32b960711b606082015260800190565b8281526040602082015260006127926040830184615101565b6001600160a01b03858116825284166020820152604081018390526080606082018190526000906152d490830184614cdd565b600060208284031215615dd757600080fd5b8151612a1481614c6d565b634e487b7160e01b600052603160045260246000fdfec94c1c47471ed97c1d309bab965192a3e4be3807f42d015b699bfbdcf24dd9f6a264697066735822122055e48ae1e331cbe1070f4f18e1e4eb7bc603265bbe565c2e77566d5d648e614164736f6c63430008160033","linkReferences":{}},"methodIdentifiers":{"_debugPostConstructorMint()":"9c7be2f1","addNewBody(uint256,string,bytes,bytes)":"f2361e23","approve(address,uint256)":"095ea7b3","balanceOf(address)":"70a08231","bodyIndexToMetadata(uint256)":"0c83f9d7","cancelOwnershipHandover()":"54d1f13d","checkIfTraitIsEquipped(uint256,uint256)":"8aa1e4c8","chonkEquipHelper()":"75676db8","chonkIdToApprovedOperators(uint256,uint256)":"55737f35","chonkTokens(uint256)":"b45d0316","collectionsMerkle()":"80d833f1","completeOwnershipHandover(address)":"f04e283e","creatorsMerkle()":"a1531780","deploymentTime()":"ecda10f5","equip(uint256,uint256)":"28257532","equipAll(uint256,uint256,uint256,uint256,uint256,uint256,uint256,uint256)":"4a4333a3","firstReleaseDataMinter()":"fd8b66de","friendsMerkle()":"fc863e64","getApproved(uint256)":"081812fc","getBackpackSVGs(uint256)":"14fe8ff4","getBodyImageSvg(uint256)":"916c546b","getBodySVGZmapsAndMetadata((uint256,uint256,uint256,uint256,uint256,uint256,uint256,uint32,uint256,uint8,string,bool))":"92012f08","getBodySvgAndMetadata((uint256,uint256,uint256,uint256,uint256,uint256,uint256,uint32,uint256,uint8,string,bool))":"a23830ae","getBodyZMap(uint256)":"306c7334","getChonk(uint256)":"d3d6873e","getChonkIdForTBAAddress(address)":"8472cbca","getChonkIdToApprovedOperators(uint256)":"67d2afe2","getChonkZMap(uint256)":"32875aa0","getFullPictureForTrait(uint256)":"66704349","getOwnerAndTBAAddressForChonkId(uint256)":"04003bd0","getTBAAddressForChonkId(uint256)":"f6a0c932","getTraitsForChonkId(uint256)":"9f6e4637","initialMintStartTime()":"b91fdc8c","isApprovedForAll(address,address)":"e985e9c5","isTimelocked()":"50b03146","mainRenderer2D()":"f4bec0b6","mainRenderer3D()":"b66ef6e3","marketplace()":"abc8c7af","maxTraitsToOutput()":"e3d21555","mint(uint256,bytes32[])":"ba41b0c6","name()":"06fdde03","nextTokenId()":"75794a3c","oneYearFromDeployment()":"d59752eb","owner()":"8da5cb5b","ownerOf(uint256)":"6352211e","ownershipHandoverExpiresAt(address)":"fee81cf4","price()":"a035b1fe","renderAsDataUri(uint256)":"a1d62680","renderAsDataUri2D(uint256)":"f3f8efb9","renderAsDataUri3D(uint256)":"dceef0ec","renounceOwnership()":"715018a6","requestOwnershipHandover()":"25692962","safeTransferFrom(address,address,uint256)":"42842e0e","safeTransferFrom(address,address,uint256,bytes)":"b88d4fde","setApprovalForAll(address,bool)":"a22cb465","setApprovalForAllChonksMarketplace(uint256,address,bool)":"550ab247","setChonkAttributes(uint256,string,uint8,bool)":"343b4887","setChonkEquipHelper(address)":"0a99a350","setCollectionsMerkle(bytes32)":"8d2a2f11","setCreatorsMerkle(bytes32)":"b194b6f1","setDescriptionParts(string[2])":"26f2052a","setFirstReleaseDataMinter(address)":"b84b160d","setFriendsMerkleRoot(bytes32)":"9eb2660c","setMainRenderer2D(address)":"7e2e6c47","setMainRenderer3D(address)":"00179206","setMarketplace(address)":"73ad6c2d","setMaxTraitsToOutput(uint256)":"33d3d9bf","setMintStartTime(uint256)":"d5b3621b","setPrice(uint256)":"91b7f5ed","setTraitsContract(address)":"5eabd84a","setWithdrawAddress(address)":"3ab1a494","supportsInterface(bytes4)":"01ffc9a7","symbol()":"95d89b41","tbaAddressToTokenId(address)":"a4bf9a00","teamMint(address,uint256,uint8)":"6e51665f","teamReserve()":"4287f14a","tokenByIndex(uint256)":"4f6ccce7","tokenIdToTBAAccountAddress(uint256)":"9c05d68d","tokenOfOwnerByIndex(address,uint256)":"2f745c59","tokenURI(uint256)":"c87b56dd","totalSupply()":"18160ddd","traitsContract()":"c093afdb","transferFrom(address,address,uint256)":"23b872dd","transferOwnership(address)":"f2fde38b","unequip(uint256,uint8)":"cdb6dd5c","unequipAll(uint256)":"3044825b","walletOfOwner(address)":"438b6300","withdraw()":"3ccfd60b","withdrawAddress()":"1581b600"},"id":41}