{"abi":[{"type":"constructor","inputs":[{"name":"localDeploy_","type":"bool","internalType":"bool"}],"stateMutability":"nonpayable"},{"type":"function","name":"_debugPostConstructorMint","inputs":[],"outputs":[],"stateMutability":"nonpayable"},{"type":"function","name":"_nextTokenId","inputs":[],"outputs":[{"name":"","type":"uint256","internalType":"uint256"}],"stateMutability":"view"},{"type":"function","name":"addNewBody","inputs":[{"name":"_bodyIndex","type":"uint256","internalType":"uint256"},{"name":"_bodyName","type":"string","internalType":"string"},{"name":"_colorMap","type":"bytes","internalType":"bytes"},{"name":"_zMap","type":"bytes","internalType":"bytes"}],"outputs":[],"stateMutability":"nonpayable"},{"type":"function","name":"approve","inputs":[{"name":"_operator","type":"address","internalType":"address"},{"name":"_chonkId","type":"uint256","internalType":"uint256"}],"outputs":[],"stateMutability":"nonpayable"},{"type":"function","name":"balanceOf","inputs":[{"name":"owner","type":"address","internalType":"address"}],"outputs":[{"name":"","type":"uint256","internalType":"uint256"}],"stateMutability":"view"},{"type":"function","name":"bodyIndexToMetadata","inputs":[{"name":"","type":"uint256","internalType":"uint256"}],"outputs":[{"name":"bodyIndex","type":"uint256","internalType":"uint256"},{"name":"bodyName","type":"string","internalType":"string"},{"name":"colorMap","type":"bytes","internalType":"bytes"},{"name":"zMap","type":"bytes","internalType":"bytes"}],"stateMutability":"view"},{"type":"function","name":"cancelOwnershipHandover","inputs":[],"outputs":[],"stateMutability":"payable"},{"type":"function","name":"checkIfTraitIsEquipped","inputs":[{"name":"_chonkId","type":"uint256","internalType":"uint256"},{"name":"_traitId","type":"uint256","internalType":"uint256"}],"outputs":[{"name":"","type":"bool","internalType":"bool"}],"stateMutability":"view"},{"type":"function","name":"chonkIdToApprovedOperators","inputs":[{"name":"chonkId","type":"uint256","internalType":"uint256"},{"name":"","type":"uint256","internalType":"uint256"}],"outputs":[{"name":"operators","type":"address","internalType":"address"}],"stateMutability":"view"},{"type":"function","name":"chonkMakeover","inputs":[{"name":"_chonkTokenId","type":"uint256","internalType":"uint256"},{"name":"_headTokenId","type":"uint256","internalType":"uint256"},{"name":"_hairTokenId","type":"uint256","internalType":"uint256"},{"name":"_faceTokenId","type":"uint256","internalType":"uint256"},{"name":"_accessoryTokenId","type":"uint256","internalType":"uint256"},{"name":"_topTokenId","type":"uint256","internalType":"uint256"},{"name":"_bottomTokenId","type":"uint256","internalType":"uint256"},{"name":"_shoesTokenId","type":"uint256","internalType":"uint256"},{"name":"_bodyIndex","type":"uint8","internalType":"uint8"},{"name":"_backgroundColor","type":"string","internalType":"string"}],"outputs":[],"stateMutability":"nonpayable"},{"type":"function","name":"completeOwnershipHandover","inputs":[{"name":"pendingOwner","type":"address","internalType":"address"}],"outputs":[],"stateMutability":"payable"},{"type":"function","name":"equip","inputs":[{"name":"_chonkTokenId","type":"uint256","internalType":"uint256"},{"name":"_traitTokenId","type":"uint256","internalType":"uint256"}],"outputs":[],"stateMutability":"nonpayable"},{"type":"function","name":"equipAll","inputs":[{"name":"_chonkTokenId","type":"uint256","internalType":"uint256"},{"name":"_headTokenId","type":"uint256","internalType":"uint256"},{"name":"_hairTokenId","type":"uint256","internalType":"uint256"},{"name":"_faceTokenId","type":"uint256","internalType":"uint256"},{"name":"_accessoryTokenId","type":"uint256","internalType":"uint256"},{"name":"_topTokenId","type":"uint256","internalType":"uint256"},{"name":"_bottomTokenId","type":"uint256","internalType":"uint256"},{"name":"_shoesTokenId","type":"uint256","internalType":"uint256"}],"outputs":[],"stateMutability":"nonpayable"},{"type":"function","name":"firstSeasonRenderMinter","inputs":[],"outputs":[{"name":"","type":"address","internalType":"contract FirstSeasonRenderMinter"}],"stateMutability":"view"},{"type":"function","name":"friendsListMerkleRoot","inputs":[],"outputs":[{"name":"","type":"bytes32","internalType":"bytes32"}],"stateMutability":"view"},{"type":"function","name":"getApproved","inputs":[{"name":"tokenId","type":"uint256","internalType":"uint256"}],"outputs":[{"name":"","type":"address","internalType":"address"}],"stateMutability":"view"},{"type":"function","name":"getBackpackSVGs","inputs":[{"name":"_tokenId","type":"uint256","internalType":"uint256"}],"outputs":[{"name":"","type":"string","internalType":"string"}],"stateMutability":"view"},{"type":"function","name":"getBodyImageSvg","inputs":[{"name":"_index","type":"uint256","internalType":"uint256"}],"outputs":[{"name":"svg","type":"string","internalType":"string"}],"stateMutability":"view"},{"type":"function","name":"getBodySVGZmapsAndMetadata","inputs":[{"name":"storedChonk","type":"tuple","internalType":"struct IChonkStorage.StoredChonk","components":[{"name":"headId","type":"uint256","internalType":"uint256"},{"name":"hairId","type":"uint256","internalType":"uint256"},{"name":"faceId","type":"uint256","internalType":"uint256"},{"name":"accessoryId","type":"uint256","internalType":"uint256"},{"name":"topId","type":"uint256","internalType":"uint256"},{"name":"bottomId","type":"uint256","internalType":"uint256"},{"name":"shoesId","type":"uint256","internalType":"uint256"},{"name":"epoch","type":"uint32","internalType":"uint32"},{"name":"tokenId","type":"uint256","internalType":"uint256"},{"name":"bodyIndex","type":"uint8","internalType":"uint8"},{"name":"backgroundColor","type":"string","internalType":"string"},{"name":"render3D","type":"bool","internalType":"bool"}]}],"outputs":[{"name":"","type":"string","internalType":"string"},{"name":"","type":"bytes","internalType":"bytes"},{"name":"","type":"string","internalType":"string"}],"stateMutability":"view"},{"type":"function","name":"getBodySvgAndMetadata","inputs":[{"name":"storedChonk","type":"tuple","internalType":"struct IChonkStorage.StoredChonk","components":[{"name":"headId","type":"uint256","internalType":"uint256"},{"name":"hairId","type":"uint256","internalType":"uint256"},{"name":"faceId","type":"uint256","internalType":"uint256"},{"name":"accessoryId","type":"uint256","internalType":"uint256"},{"name":"topId","type":"uint256","internalType":"uint256"},{"name":"bottomId","type":"uint256","internalType":"uint256"},{"name":"shoesId","type":"uint256","internalType":"uint256"},{"name":"epoch","type":"uint32","internalType":"uint32"},{"name":"tokenId","type":"uint256","internalType":"uint256"},{"name":"bodyIndex","type":"uint8","internalType":"uint8"},{"name":"backgroundColor","type":"string","internalType":"string"},{"name":"render3D","type":"bool","internalType":"bool"}]}],"outputs":[{"name":"","type":"string","internalType":"string"},{"name":"","type":"string","internalType":"string"}],"stateMutability":"view"},{"type":"function","name":"getBodyZMap","inputs":[{"name":"_tokenId","type":"uint256","internalType":"uint256"}],"outputs":[{"name":"","type":"string","internalType":"string"}],"stateMutability":"view"},{"type":"function","name":"getChonk","inputs":[{"name":"_tokenId","type":"uint256","internalType":"uint256"}],"outputs":[{"name":"","type":"tuple","internalType":"struct IChonkStorage.StoredChonk","components":[{"name":"headId","type":"uint256","internalType":"uint256"},{"name":"hairId","type":"uint256","internalType":"uint256"},{"name":"faceId","type":"uint256","internalType":"uint256"},{"name":"accessoryId","type":"uint256","internalType":"uint256"},{"name":"topId","type":"uint256","internalType":"uint256"},{"name":"bottomId","type":"uint256","internalType":"uint256"},{"name":"shoesId","type":"uint256","internalType":"uint256"},{"name":"epoch","type":"uint32","internalType":"uint32"},{"name":"tokenId","type":"uint256","internalType":"uint256"},{"name":"bodyIndex","type":"uint8","internalType":"uint8"},{"name":"backgroundColor","type":"string","internalType":"string"},{"name":"render3D","type":"bool","internalType":"bool"}]}],"stateMutability":"view"},{"type":"function","name":"getChonkIdForTBAAddress","inputs":[{"name":"_tbaAddress","type":"address","internalType":"address"}],"outputs":[{"name":"","type":"uint256","internalType":"uint256"}],"stateMutability":"view"},{"type":"function","name":"getChonkIdToApprovedOperators","inputs":[{"name":"_chonkId","type":"uint256","internalType":"uint256"}],"outputs":[{"name":"","type":"address[]","internalType":"address[]"}],"stateMutability":"view"},{"type":"function","name":"getChonkZMap","inputs":[{"name":"_tokenId","type":"uint256","internalType":"uint256"}],"outputs":[{"name":"","type":"string","internalType":"string"}],"stateMutability":"view"},{"type":"function","name":"getFullPictureForTrait","inputs":[{"name":"_chonkTraitTokenId","type":"uint256","internalType":"uint256"}],"outputs":[{"name":"traitOwnerTBA","type":"address","internalType":"address"},{"name":"chonkTokenId","type":"uint256","internalType":"uint256"},{"name":"chonkOwner","type":"address","internalType":"address"},{"name":"isEquipped","type":"bool","internalType":"bool"}],"stateMutability":"view"},{"type":"function","name":"getOwnerAndTBAAddressForChonkId","inputs":[{"name":"_chonkId","type":"uint256","internalType":"uint256"}],"outputs":[{"name":"owner","type":"address","internalType":"address"},{"name":"tbaAddress","type":"address","internalType":"address"}],"stateMutability":"view"},{"type":"function","name":"getTBAAddressForChonkId","inputs":[{"name":"_chonkId","type":"uint256","internalType":"uint256"}],"outputs":[{"name":"","type":"address","internalType":"address"}],"stateMutability":"view"},{"type":"function","name":"getTokenRenderZ","inputs":[{"name":"_chonkTokenId","type":"uint256","internalType":"uint256"}],"outputs":[{"name":"","type":"bool","internalType":"bool"}],"stateMutability":"view"},{"type":"function","name":"getTraitTokens","inputs":[{"name":"_tbaAddress","type":"address","internalType":"address"}],"outputs":[{"name":"","type":"uint256[]","internalType":"uint256[]"}],"stateMutability":"view"},{"type":"function","name":"getTraitsForChonkId","inputs":[{"name":"_chonkId","type":"uint256","internalType":"uint256"}],"outputs":[{"name":"traitTokens","type":"uint256[]","internalType":"uint256[]"}],"stateMutability":"view"},{"type":"function","name":"isApprovedForAll","inputs":[{"name":"owner","type":"address","internalType":"address"},{"name":"operator","type":"address","internalType":"address"}],"outputs":[{"name":"","type":"bool","internalType":"bool"}],"stateMutability":"view"},{"type":"function","name":"mainRenderer2D","inputs":[],"outputs":[{"name":"","type":"address","internalType":"contract MainRenderer2D"}],"stateMutability":"view"},{"type":"function","name":"mainRenderer3D","inputs":[],"outputs":[{"name":"","type":"address","internalType":"contract MainRenderer3D"}],"stateMutability":"view"},{"type":"function","name":"marketplace","inputs":[],"outputs":[{"name":"","type":"address","internalType":"contract ChonksMarket"}],"stateMutability":"view"},{"type":"function","name":"maxTraitsToOutput","inputs":[],"outputs":[{"name":"","type":"uint256","internalType":"uint256"}],"stateMutability":"view"},{"type":"function","name":"mint","inputs":[{"name":"_amount","type":"uint256","internalType":"uint256"},{"name":"_merkleProof","type":"bytes32[]","internalType":"bytes32[]"}],"outputs":[],"stateMutability":"payable"},{"type":"function","name":"mintStartTime","inputs":[],"outputs":[{"name":"","type":"uint256","internalType":"uint256"}],"stateMutability":"view"},{"type":"function","name":"name","inputs":[],"outputs":[{"name":"","type":"string","internalType":"string"}],"stateMutability":"view"},{"type":"function","name":"owner","inputs":[],"outputs":[{"name":"result","type":"address","internalType":"address"}],"stateMutability":"view"},{"type":"function","name":"ownerOf","inputs":[{"name":"tokenId","type":"uint256","internalType":"uint256"}],"outputs":[{"name":"","type":"address","internalType":"address"}],"stateMutability":"view"},{"type":"function","name":"ownershipHandoverExpiresAt","inputs":[{"name":"pendingOwner","type":"address","internalType":"address"}],"outputs":[{"name":"result","type":"uint256","internalType":"uint256"}],"stateMutability":"view"},{"type":"function","name":"price","inputs":[],"outputs":[{"name":"","type":"uint256","internalType":"uint256"}],"stateMutability":"view"},{"type":"function","name":"renderAsDataUri","inputs":[{"name":"_tokenId","type":"uint256","internalType":"uint256"}],"outputs":[{"name":"","type":"string","internalType":"string"}],"stateMutability":"view"},{"type":"function","name":"renderAsDataUri2D","inputs":[{"name":"_tokenId","type":"uint256","internalType":"uint256"}],"outputs":[{"name":"","type":"string","internalType":"string"}],"stateMutability":"view"},{"type":"function","name":"renderAsDataUri3D","inputs":[{"name":"_tokenId","type":"uint256","internalType":"uint256"}],"outputs":[{"name":"","type":"string","internalType":"string"}],"stateMutability":"view"},{"type":"function","name":"renounceOwnership","inputs":[],"outputs":[],"stateMutability":"payable"},{"type":"function","name":"requestOwnershipHandover","inputs":[],"outputs":[],"stateMutability":"payable"},{"type":"function","name":"safeTransferFrom","inputs":[{"name":"from","type":"address","internalType":"address"},{"name":"to","type":"address","internalType":"address"},{"name":"tokenId","type":"uint256","internalType":"uint256"}],"outputs":[],"stateMutability":"nonpayable"},{"type":"function","name":"safeTransferFrom","inputs":[{"name":"from","type":"address","internalType":"address"},{"name":"to","type":"address","internalType":"address"},{"name":"tokenId","type":"uint256","internalType":"uint256"},{"name":"data","type":"bytes","internalType":"bytes"}],"outputs":[],"stateMutability":"nonpayable"},{"type":"function","name":"setApprovalForAll","inputs":[{"name":"_operator","type":"address","internalType":"address"},{"name":"_approved","type":"bool","internalType":"bool"}],"outputs":[],"stateMutability":"nonpayable"},{"type":"function","name":"setApprovalForAllChonksMarketplace","inputs":[{"name":"_chonkId","type":"uint256","internalType":"uint256"},{"name":"_operator","type":"address","internalType":"address"},{"name":"_approved","type":"bool","internalType":"bool"}],"outputs":[],"stateMutability":"nonpayable"},{"type":"function","name":"setBackgroundColor","inputs":[{"name":"_chonkTokenId","type":"uint256","internalType":"uint256"},{"name":"_color","type":"string","internalType":"string"}],"outputs":[],"stateMutability":"nonpayable"},{"type":"function","name":"setBodyIndex","inputs":[{"name":"_chonkTokenId","type":"uint256","internalType":"uint256"},{"name":"_bodyIndex","type":"uint8","internalType":"uint8"}],"outputs":[],"stateMutability":"nonpayable"},{"type":"function","name":"setFirstSeasonRenderMinter","inputs":[{"name":"_dataContract","type":"address","internalType":"address"}],"outputs":[],"stateMutability":"nonpayable"},{"type":"function","name":"setFriendsListMerkleRoot","inputs":[{"name":"_merkleRoot","type":"bytes32","internalType":"bytes32"}],"outputs":[],"stateMutability":"nonpayable"},{"type":"function","name":"setMainRenderer2D","inputs":[{"name":"_mainRenderer2D","type":"address","internalType":"address"}],"outputs":[],"stateMutability":"nonpayable"},{"type":"function","name":"setMainRenderer3D","inputs":[{"name":"_mainRenderer3D","type":"address","internalType":"address"}],"outputs":[],"stateMutability":"nonpayable"},{"type":"function","name":"setMarketplace","inputs":[{"name":"_marketplace","type":"address","internalType":"address"}],"outputs":[],"stateMutability":"nonpayable"},{"type":"function","name":"setMaxTraitsToOutput","inputs":[{"name":"_maxTraitsToOutput","type":"uint256","internalType":"uint256"}],"outputs":[],"stateMutability":"nonpayable"},{"type":"function","name":"setMintStartTime","inputs":[{"name":"_mintStartTime","type":"uint256","internalType":"uint256"}],"outputs":[],"stateMutability":"nonpayable"},{"type":"function","name":"setPrice","inputs":[{"name":"_priceInWei","type":"uint256","internalType":"uint256"}],"outputs":[],"stateMutability":"nonpayable"},{"type":"function","name":"setSpecialCollectionMerkleRoot","inputs":[{"name":"_merkleRoot","type":"bytes32","internalType":"bytes32"}],"outputs":[],"stateMutability":"nonpayable"},{"type":"function","name":"setTokenRender3D","inputs":[{"name":"_chonkTokenId","type":"uint256","internalType":"uint256"},{"name":"_render3D","type":"bool","internalType":"bool"}],"outputs":[],"stateMutability":"nonpayable"},{"type":"function","name":"setTraitsContract","inputs":[{"name":"_address","type":"address","internalType":"contract ChonkTraits"}],"outputs":[],"stateMutability":"nonpayable"},{"type":"function","name":"setWithdrawAddress","inputs":[{"name":"_withdrawAddress","type":"address","internalType":"address"}],"outputs":[],"stateMutability":"nonpayable"},{"type":"function","name":"specialCollectionMerkleRoot","inputs":[],"outputs":[{"name":"","type":"bytes32","internalType":"bytes32"}],"stateMutability":"view"},{"type":"function","name":"supportsInterface","inputs":[{"name":"interfaceId","type":"bytes4","internalType":"bytes4"}],"outputs":[{"name":"","type":"bool","internalType":"bool"}],"stateMutability":"view"},{"type":"function","name":"symbol","inputs":[],"outputs":[{"name":"","type":"string","internalType":"string"}],"stateMutability":"view"},{"type":"function","name":"tbaAddressToTokenId","inputs":[{"name":"","type":"address","internalType":"address"}],"outputs":[{"name":"","type":"uint256","internalType":"uint256"}],"stateMutability":"view"},{"type":"function","name":"teamMint","inputs":[{"name":"_to","type":"address","internalType":"address"},{"name":"_amount","type":"uint256","internalType":"uint256"}],"outputs":[],"stateMutability":"nonpayable"},{"type":"function","name":"tokenByIndex","inputs":[{"name":"index","type":"uint256","internalType":"uint256"}],"outputs":[{"name":"","type":"uint256","internalType":"uint256"}],"stateMutability":"view"},{"type":"function","name":"tokenIdToTBAAccountAddress","inputs":[{"name":"","type":"uint256","internalType":"uint256"}],"outputs":[{"name":"","type":"address","internalType":"address"}],"stateMutability":"view"},{"type":"function","name":"tokenOfOwnerByIndex","inputs":[{"name":"owner","type":"address","internalType":"address"},{"name":"index","type":"uint256","internalType":"uint256"}],"outputs":[{"name":"","type":"uint256","internalType":"uint256"}],"stateMutability":"view"},{"type":"function","name":"tokenURI","inputs":[{"name":"_tokenId","type":"uint256","internalType":"uint256"}],"outputs":[{"name":"","type":"string","internalType":"string"}],"stateMutability":"view"},{"type":"function","name":"totalSupply","inputs":[],"outputs":[{"name":"","type":"uint256","internalType":"uint256"}],"stateMutability":"view"},{"type":"function","name":"traitsContract","inputs":[],"outputs":[{"name":"","type":"address","internalType":"contract ChonkTraits"}],"stateMutability":"view"},{"type":"function","name":"transferFrom","inputs":[{"name":"from","type":"address","internalType":"address"},{"name":"to","type":"address","internalType":"address"},{"name":"tokenId","type":"uint256","internalType":"uint256"}],"outputs":[],"stateMutability":"nonpayable"},{"type":"function","name":"transferOwnership","inputs":[{"name":"newOwner","type":"address","internalType":"address"}],"outputs":[],"stateMutability":"payable"},{"type":"function","name":"unequip","inputs":[{"name":"_chonkTokenId","type":"uint256","internalType":"uint256"},{"name":"traitType","type":"uint8","internalType":"enum TraitCategory.Name"}],"outputs":[],"stateMutability":"nonpayable"},{"type":"function","name":"unequipAll","inputs":[{"name":"_chonkTokenId","type":"uint256","internalType":"uint256"}],"outputs":[],"stateMutability":"nonpayable"},{"type":"function","name":"walletOfOwner","inputs":[{"name":"_owner","type":"address","internalType":"address"}],"outputs":[{"name":"","type":"uint256[]","internalType":"uint256[]"}],"stateMutability":"view"},{"type":"function","name":"withdraw","inputs":[],"outputs":[],"stateMutability":"nonpayable"},{"type":"function","name":"withdrawAddress","inputs":[],"outputs":[{"name":"","type":"address","internalType":"address"}],"stateMutability":"view"},{"type":"event","name":"Approval","inputs":[{"name":"owner","type":"address","indexed":true,"internalType":"address"},{"name":"approved","type":"address","indexed":true,"internalType":"address"},{"name":"tokenId","type":"uint256","indexed":true,"internalType":"uint256"}],"anonymous":false},{"type":"event","name":"ApprovalForAll","inputs":[{"name":"owner","type":"address","indexed":true,"internalType":"address"},{"name":"operator","type":"address","indexed":true,"internalType":"address"},{"name":"approved","type":"bool","indexed":false,"internalType":"bool"}],"anonymous":false},{"type":"event","name":"BackgroundColor","inputs":[{"name":"owner","type":"address","indexed":true,"internalType":"address"},{"name":"tokenId","type":"uint256","indexed":true,"internalType":"uint256"},{"name":"color","type":"string","indexed":false,"internalType":"string"}],"anonymous":false},{"type":"event","name":"BatchMetadataUpdate","inputs":[{"name":"_fromTokenId","type":"uint256","indexed":false,"internalType":"uint256"},{"name":"_toTokenId","type":"uint256","indexed":false,"internalType":"uint256"}],"anonymous":false},{"type":"event","name":"BodyIndex","inputs":[{"name":"owner","type":"address","indexed":true,"internalType":"address"},{"name":"tokenId","type":"uint256","indexed":true,"internalType":"uint256"},{"name":"_bodyIndex","type":"uint8","indexed":false,"internalType":"uint8"}],"anonymous":false},{"type":"event","name":"Equip","inputs":[{"name":"owner","type":"address","indexed":true,"internalType":"address"},{"name":"tokenId","type":"uint256","indexed":true,"internalType":"uint256"},{"name":"traitTokenId","type":"uint256","indexed":true,"internalType":"uint256"},{"name":"traitCategory","type":"uint8","indexed":false,"internalType":"uint8"}],"anonymous":false},{"type":"event","name":"EquipAll","inputs":[{"name":"owner","type":"address","indexed":true,"internalType":"address"},{"name":"tokenId","type":"uint256","indexed":true,"internalType":"uint256"}],"anonymous":false},{"type":"event","name":"MetadataUpdate","inputs":[{"name":"_tokenId","type":"uint256","indexed":false,"internalType":"uint256"}],"anonymous":false},{"type":"event","name":"Mint","inputs":[{"name":"owner","type":"address","indexed":true,"internalType":"address"},{"name":"tokenId","type":"uint256","indexed":true,"internalType":"uint256"}],"anonymous":false},{"type":"event","name":"OwnershipHandoverCanceled","inputs":[{"name":"pendingOwner","type":"address","indexed":true,"internalType":"address"}],"anonymous":false},{"type":"event","name":"OwnershipHandoverRequested","inputs":[{"name":"pendingOwner","type":"address","indexed":true,"internalType":"address"}],"anonymous":false},{"type":"event","name":"OwnershipTransferred","inputs":[{"name":"oldOwner","type":"address","indexed":true,"internalType":"address"},{"name":"newOwner","type":"address","indexed":true,"internalType":"address"}],"anonymous":false},{"type":"event","name":"Render3D","inputs":[{"name":"owner","type":"address","indexed":true,"internalType":"address"},{"name":"tokenId","type":"uint256","indexed":true,"internalType":"uint256"},{"name":"renderZ","type":"bool","indexed":false,"internalType":"bool"}],"anonymous":false},{"type":"event","name":"Transfer","inputs":[{"name":"from","type":"address","indexed":true,"internalType":"address"},{"name":"to","type":"address","indexed":true,"internalType":"address"},{"name":"tokenId","type":"uint256","indexed":true,"internalType":"uint256"}],"anonymous":false},{"type":"event","name":"Unequip","inputs":[{"name":"owner","type":"address","indexed":true,"internalType":"address"},{"name":"tokenId","type":"uint256","indexed":true,"internalType":"uint256"},{"name":"traitCategory","type":"uint8","indexed":false,"internalType":"uint8"}],"anonymous":false},{"type":"event","name":"UnequipAll","inputs":[{"name":"owner","type":"address","indexed":true,"internalType":"address"},{"name":"tokenId","type":"uint256","indexed":true,"internalType":"uint256"}],"anonymous":false},{"type":"error","name":"AlreadyInitialized","inputs":[]},{"type":"error","name":"BodyAlreadyExists","inputs":[]},{"type":"error","name":"CantBeZero","inputs":[]},{"type":"error","name":"CantTransfer","inputs":[]},{"type":"error","name":"CantTransferToTBAs","inputs":[]},{"type":"error","name":"ChonkDoesntExist","inputs":[]},{"type":"error","name":"FirstSeasonRenderMinterNotSet","inputs":[]},{"type":"error","name":"IncorrectChonkOwner","inputs":[]},{"type":"error","name":"IncorrectTBAOwner","inputs":[]},{"type":"error","name":"IncorrectTraitType","inputs":[]},{"type":"error","name":"InsufficientFunds","inputs":[]},{"type":"error","name":"InvalidBodyIndex","inputs":[]},{"type":"error","name":"InvalidColor","inputs":[]},{"type":"error","name":"InvalidLevelAmount","inputs":[]},{"type":"error","name":"InvalidSignature","inputs":[]},{"type":"error","name":"MintEnded","inputs":[]},{"type":"error","name":"MintNotStarted","inputs":[]},{"type":"error","name":"NewOwnerIsZeroAddress","inputs":[]},{"type":"error","name":"NoHandoverRequest","inputs":[]},{"type":"error","name":"NonceAlreadyUsed","inputs":[]},{"type":"error","name":"Unauthorized","inputs":[]},{"type":"error","name":"UseUnequip","inputs":[]},{"type":"error","name":"WithdrawFailed","inputs":[]},{"type":"error","name":"markaSaysNo","inputs":[]}],"bytecode":{"object":"0x608060405260636015553480156200001657600080fd5b5060405162006132380380620061328339810160408190526200003991620000fd565b6040518060400160405280600681526020016543686f6e6b7360d01b8152506040518060400160405280600681526020016543484f4e4b5360d01b8152508160009081620000889190620001cf565b506001620000978282620001cf565b50506001600a5550620000aa33620000c1565b600b805460ff19169115159190911790556200029b565b6001600160a01b0316638b78c6d8198190558060007f8be0079c531659141344cd1fd0a4f28419497f9722a3daafe3b4186f6b6457e08180a350565b6000602082840312156200011057600080fd5b815180151581146200012157600080fd5b9392505050565b634e487b7160e01b600052604160045260246000fd5b600181811c908216806200015357607f821691505b6020821081036200017457634e487b7160e01b600052602260045260246000fd5b50919050565b601f821115620001ca576000816000526020600020601f850160051c81016020861015620001a55750805b601f850160051c820191505b81811015620001c657828155600101620001b1565b5050505b505050565b81516001600160401b03811115620001eb57620001eb62000128565b6200020381620001fc84546200013e565b846200017a565b602080601f8311600181146200023b5760008415620002225750858301515b600019600386901b1c1916600185901b178555620001c6565b600085815260208120601f198616915b828110156200026c578886015182559484019460019091019084016200024b565b50858210156200028b5787850151600019600388901b60f8161c191681555b5050505050600190811b01905550565b615e8780620002ab6000396000f3fe60806040526004361061049e5760003560e01c80638aa1e4c811610260578063ba41b0c611610144578063e1405540116100c1578063f2361e2311610085578063f2361e2314610eeb578063f2fde38b14610f0b578063f3f8efb914610f1e578063f4bec0b614610f3e578063f6a0c93214610f5e578063fee81cf414610f9457600080fd5b8063e140554014610e39578063e29babbb14610e59578063e3d2155514610e79578063e985e9c514610e8f578063f04e283e14610ed857600080fd5b8063d3d6873e11610108578063d3d6873e14610d96578063d5b3621b14610dc3578063d68c4f3214610de3578063dceef0ec14610e03578063deab1d3614610e2357600080fd5b8063ba41b0c614610d03578063bef1dfb714610d16578063c093afdb14610d36578063c87b56dd14610d56578063cdb6dd5c14610d7657600080fd5b80639c7be2f1116101dd578063a23830ae116101a1578063a23830ae14610c28578063a4bf9a0014610c56578063abc8c7af14610c83578063add5a4fa14610ca3578063b66ef6e314610cc3578063b88d4fde14610ce357600080fd5b80639c7be2f114610b9d5780639f6e463714610bb2578063a035b1fe14610bd2578063a1d6268014610be8578063a22cb46514610c0857600080fd5b806392012f081161022457806392012f0814610aed578063931e2e4914610b1c57806395d89b4114610b32578063998cfb6e14610b475780639c05d68d14610b6757600080fd5b80638aa1e4c814610a5e5780638da5cb5b14610a7e5780638f22475714610a97578063916c546b14610aad57806391b7f5ed14610acd57600080fd5b80633ab1a4941161038757806358a976401161030457806370a08231116102c857806370a082311461098d578063715018a6146109ad57806373ad6c2d146109b55780637e2e6c47146109d55780638200ea51146109f55780638472cbca14610a2857600080fd5b806358a97640146108ab5780635eabd84a146108cb5780636352211e146108eb578063667043491461090b57806367d2afe21461096057600080fd5b80634a60f6201161034b5780634a60f6201461082d5780634f6ccce71461084357806354d1f13d14610863578063550ab2471461086b57806355737f351461088b57600080fd5b80633ab1a4941461078b5780633ccfd60b146107ab57806342842e0e146107c0578063438b6300146107e05780634a4333a31461080d57600080fd5b806318160ddd116104205780632f745c59116103e45780632f745c59146106cb5780633044825b146106eb578063306c73341461070b57806330f6c5211461072b57806332875aa01461074b57806333d3d9bf1461076b57600080fd5b806318160ddd146106445780631ab375121461066357806323b872dd1461068357806325692962146106a357806328257532146106ab57600080fd5b8063095ea7b311610467578063095ea7b3146105945780630c83f9d7146105b457806313ea0ae3146105e457806314fe8ff4146106045780631581b6001461062457600080fd5b8062179206146104a357806301ffc9a7146104c557806304003bd0146104fa57806306fdde031461053a578063081812fc1461055c575b600080fd5b3480156104af57600080fd5b506104c36104be366004614cb7565b610fc7565b005b3480156104d157600080fd5b506104e56104e0366004614cea565b610ff1565b60405190151581526020015b60405180910390f35b34801561050657600080fd5b5061051a610515366004614d07565b611002565b604080516001600160a01b039384168152929091166020830152016104f1565b34801561054657600080fd5b5061054f611031565b6040516104f19190614d70565b34801561056857600080fd5b5061057c610577366004614d07565b6110c3565b6040516001600160a01b0390911681526020016104f1565b3480156105a057600080fd5b506104c36105af366004614d83565b6110ea565b3480156105c057600080fd5b506105d46105cf366004614d07565b61113b565b6040516104f19493929190614daf565b3480156105f057600080fd5b5060125461057c906001600160a01b031681565b34801561061057600080fd5b5061054f61061f366004614d07565b6112fc565b34801561063057600080fd5b5060175461057c906001600160a01b031681565b34801561065057600080fd5b506008545b6040519081526020016104f1565b34801561066f57600080fd5b506104c361067e366004614d07565b611540565b34801561068f57600080fd5b506104c361069e366004614df9565b61154d565b6104c361158c565b3480156106b757600080fd5b506104c36106c6366004614e3a565b6115db565b3480156106d757600080fd5b506106556106e6366004614d83565b6117d4565b3480156106f757600080fd5b506104c3610706366004614d07565b61186a565b34801561071757600080fd5b5061054f610726366004614d07565b611925565b34801561073757600080fd5b506104c3610746366004614f5e565b611948565b34801561075757600080fd5b5061054f610766366004614d07565b6119b4565b34801561077757600080fd5b506104c3610786366004614d07565b611a78565b34801561079757600080fd5b506104c36107a6366004614cb7565b611a85565b3480156107b757600080fd5b506104c3611aaf565b3480156107cc57600080fd5b506104c36107db366004614df9565b611b2e565b3480156107ec57600080fd5b506108006107fb366004614cb7565b611b49565b6040516104f19190614ffa565b34801561081957600080fd5b506104c361082836600461503e565b611be0565b34801561083957600080fd5b5061065560165481565b34801561084f57600080fd5b5061065561085e366004614d07565b611f48565b6104c3611fdb565b34801561087757600080fd5b506104c36108863660046150a3565b612017565b34801561089757600080fd5b5061057c6108a6366004614e3a565b61206d565b3480156108b757600080fd5b506104c36108c6366004614cb7565b6120a5565b3480156108d757600080fd5b506104c36108e6366004614cb7565b6120cf565b3480156108f757600080fd5b5061057c610906366004614d07565b6120f9565b34801561091757600080fd5b5061092b610926366004614d07565b612159565b6040516104f194939291906001600160a01b039485168152602081019390935292166040820152901515606082015260800190565b34801561096c57600080fd5b5061098061097b366004614d07565b61220b565b6040516104f19190615126565b34801561099957600080fd5b506106556109a8366004614cb7565b612277565b6104c36122fd565b3480156109c157600080fd5b506104c36109d0366004614cb7565b612311565b3480156109e157600080fd5b506104c36109f0366004614cb7565b61233b565b348015610a0157600080fd5b506104e5610a10366004614d07565b6000908152600c60205260409020600b015460ff1690565b348015610a3457600080fd5b50610655610a43366004614cb7565b6001600160a01b03166000908152601b602052604090205490565b348015610a6a57600080fd5b506104e5610a79366004614e3a565b612365565b348015610a8a57600080fd5b50638b78c6d8195461057c565b348015610aa357600080fd5b50610655601d5481565b348015610ab957600080fd5b5061054f610ac8366004614d07565b6123d4565b348015610ad957600080fd5b506104c3610ae8366004614d07565b6124d7565b348015610af957600080fd5b50610b0d610b0836600461514d565b6124e4565b6040516104f193929190615246565b348015610b2857600080fd5b5061065560195481565b348015610b3e57600080fd5b5061054f612635565b348015610b5357600080fd5b50610800610b62366004614cb7565b612644565b348015610b7357600080fd5b5061057c610b82366004614d07565b601a602052600090815260409020546001600160a01b031681565b348015610ba957600080fd5b506104c36126ba565b348015610bbe57600080fd5b50610800610bcd366004614d07565b61271c565b348015610bde57600080fd5b5061065560185481565b348015610bf457600080fd5b5061054f610c03366004614d07565b612740565b348015610c1457600080fd5b506104c3610c2336600461527f565b612770565b348015610c3457600080fd5b50610c48610c4336600461514d565b6127e9565b6040516104f19291906152b4565b348015610c6257600080fd5b50610655610c71366004614cb7565b601b6020526000908152604090205481565b348015610c8f57600080fd5b5060115461057c906001600160a01b031681565b348015610caf57600080fd5b506104c3610cbe366004614d83565b612897565b348015610ccf57600080fd5b5060145461057c906001600160a01b031681565b348015610cef57600080fd5b506104c3610cfe3660046152e2565b612909565b6104c3610d11366004615370565b61293b565b348015610d2257600080fd5b506104c3610d3136600461540c565b612a2b565b348015610d4257600080fd5b5060105461057c906001600160a01b031681565b348015610d6257600080fd5b5061054f610d71366004614d07565b612ad6565b348015610d8257600080fd5b506104c3610d9136600461543c565b612b17565b348015610da257600080fd5b50610db6610db1366004614d07565b612cdb565b6040516104f1919061546c565b348015610dcf57600080fd5b506104c3610dde366004614d07565b612e81565b348015610def57600080fd5b506104c3610dfe366004615523565b612e8e565b348015610e0f57600080fd5b5061054f610e1e366004614d07565b61310a565b348015610e2f57600080fd5b50610655601e5481565b348015610e4557600080fd5b506104c3610e54366004615569565b6133dc565b348015610e6557600080fd5b506104c3610e74366004614d07565b6134a4565b348015610e8557600080fd5b5061065560155481565b348015610e9b57600080fd5b506104e5610eaa36600461558c565b6001600160a01b03918216600090815260056020908152604080832093909416825291909152205460ff1690565b6104c3610ee6366004614cb7565b6134b1565b348015610ef757600080fd5b506104c3610f063660046155ba565b6134ee565b6104c3610f19366004614cb7565b61353b565b348015610f2a57600080fd5b5061054f610f39366004614d07565b613562565b348015610f4a57600080fd5b5060135461057c906001600160a01b031681565b348015610f6a57600080fd5b5061057c610f79366004614d07565b6000908152601a60205260409020546001600160a01b031690565b348015610fa057600080fd5b50610655610faf366004614cb7565b63389a75e1600c908152600091909152602090205490565b610fcf6137e9565b601480546001600160a01b0319166001600160a01b0392909216919091179055565b6000610ffc82613804565b92915050565b60008061100e836120f9565b6000938452601a60205260409093205492936001600160a01b0390931692915050565b6060600080546110409061563f565b80601f016020809104026020016040519081016040528092919081815260200182805461106c9061563f565b80156110b95780601f1061108e576101008083540402835291602001916110b9565b820191906000526020600020905b81548152906001019060200180831161109c57829003601f168201915b5050505050905090565b60006110ce82613829565b506000908152600460205260409020546001600160a01b031690565b6110f3816120f9565b6001600160a01b0316336001600160a01b031614611123576040516282b42960e81b815260040160405180910390fd5b61112d8183613888565b61113782826138c7565b5050565b600f602052600090815260409020805460018201805491929161115d9061563f565b80601f01602080910402602001604051908101604052809291908181526020018280546111899061563f565b80156111d65780601f106111ab576101008083540402835291602001916111d6565b820191906000526020600020905b8154815290600101906020018083116111b957829003601f168201915b5050505050908060020180546111eb9061563f565b80601f01602080910402602001604051908101604052809291908181526020018280546112179061563f565b80156112645780601f1061123957610100808354040283529160200191611264565b820191906000526020600020905b81548152906001019060200180831161124757829003601f168201915b5050505050908060030180546112799061563f565b80601f01602080910402602001604051908101604052809291908181526020018280546112a59061563f565b80156112f25780601f106112c7576101008083540402835291602001916112f2565b820191906000526020600020905b8154815290600101906020018083116112d557829003601f168201915b5050505050905084565b606060006113098361271c565b90506000601060009054906101000a90046001600160a01b03166001600160a01b0316635c1ef2566040518163ffffffff1660e01b8152600401600060405180830381865afa158015611360573d6000803e3d6000fd5b505050506040513d6000823e601f3d908101601f1916820160405261138891908101906156be565b9050600060155483511061139e576015546113a1565b82515b90506000816001600160401b038111156113bd576113bd614e72565b6040519080825280602002602001820160405280156113f057816020015b60608152602001906001900390816113db5790505b50905060005b828110156114b75760105485516001600160a01b039091169063c779153190879084908110611427576114276156f2565b60200260200101516040518263ffffffff1660e01b815260040161144d91815260200190565b600060405180830381865afa15801561146a573d6000803e3d6000fd5b505050506040513d6000823e601f3d908101601f1916820160405261149291908101906156be565b8282815181106114a4576114a46156f2565b60209081029190910101526001016113f6565b506013548451601554604051631719ff8760e11b81526001600160a01b0390931692632e33ff0e926114f192889287929190600401615708565b600060405180830381865afa15801561150e573d6000803e3d6000fd5b505050506040513d6000823e601f3d908101601f1916820160405261153691908101906156be565b9695505050505050565b6115486137e9565b601d55565b6115573382613935565b61157c5760405162461bcd60e51b815260040161157390615789565b60405180910390fd5b6115878383836139b3565b505050565b60006202a3006001600160401b03164201905063389a75e1600c5233600052806020600c2055337fdbf36a107da19e49527a7176a1babf963b4b0ff8cde35ee35d6cd8f1f9ac7e1d600080a250565b816115e5816120f9565b6001600160a01b0316336001600160a01b03161461161657604051631431735b60e21b815260040160405180910390fd5b8160000361163757604051630754c7f360e41b815260040160405180910390fd5b60006116438484613b60565b90506001816007811115611659576116596157d7565b03611670576000848152600c602052604090208390555b6002816007811115611684576116846157d7565b0361169e576000848152600c602052604090206001018390555b60038160078111156116b2576116b26157d7565b036116cc576000848152600c602052604090206002018390555b60048160078111156116e0576116e06157d7565b036116fa576000848152600c602052604090206003018390555b600581600781111561170e5761170e6157d7565b03611728576000848152600c602052604090206004018390555b600681600781111561173c5761173c6157d7565b03611756576000848152600c602052604090206005018390555b600781600781111561176a5761176a6157d7565b03611784576000848152600c602052604090206006018390555b828461178f866120f9565b6001600160a01b0316600080516020615e328339815191528460078111156117b9576117b96157d7565b60405160ff909116815260200160405180910390a450505050565b60006117df83612277565b82106118415760405162461bcd60e51b815260206004820152602b60248201527f455243373231456e756d657261626c653a206f776e657220696e646578206f7560448201526a74206f6620626f756e647360a81b6064820152608401611573565b506001600160a01b03919091166000908152600660209081526040808320938352929052205490565b80611874816120f9565b6001600160a01b0316336001600160a01b0316146118a557604051631431735b60e21b815260040160405180910390fd5b6000828152600c6020526040812081815560018101829055600281018290556003810182905560048101829055600581018290556006810191909155826118eb816120f9565b6001600160a01b03167f46078a2cd4c69c3b4a27bdc69fdfe03d442ebcf405f1a68e9b5df6bc3e24429760405160405180910390a3505050565b606080600061193384612cdb565b905061193e816124e4565b5095945050505050565b89611952816120f9565b6001600160a01b0316336001600160a01b03161461198357604051631431735b60e21b815260040160405180910390fd5b6119938b8b8b8b8b8b8b8b611be0565b61199d8b846133dc565b6119a78b83612e8e565b5050505050505050505050565b606080606060006119c485612cdb565b90506119cf816124e4565b5060105460405163bb12d21d60e01b81529195506001600160a01b0316915063bb12d21d90611a0290849060040161546c565b600060405180830381865afa158015611a1f573d6000803e3d6000fd5b505050506040513d6000823e601f3d908101601f19168201604052611a4791908101906157ed565b50604051909350611a5f915084908490602001615874565b6040516020818303038152906040529350505050919050565b611a806137e9565b601555565b611a8d6137e9565b601780546001600160a01b0319166001600160a01b0392909216919091179055565b611ab76137e9565b6017546040516000916001600160a01b03169047908381818185875af1925050503d8060008114611b04576040519150601f19603f3d011682016040523d82523d6000602084013e611b09565b606091505b5050905080611b2b57604051631d42c86760e21b815260040160405180910390fd5b50565b61158783838360405180602001604052806000815250612909565b60606000611b5683612277565b90506000816001600160401b03811115611b7257611b72614e72565b604051908082528060200260200182016040528015611b9b578160200160208202803683370190505b50905060005b82811015611bd857611bb385826117d4565b828281518110611bc557611bc56156f2565b6020908102919091010152600101611ba1565b509392505050565b87611bea816120f9565b6001600160a01b0316336001600160a01b031614611c1b57604051631431735b60e21b815260040160405180910390fd5b8715611c8257611c2b8989613be5565b611c36886001613cdd565b6000898152600c602052604090208890558789611c52816120f9565b6001600160a01b0316600080516020615e32833981519152600160405160ff909116815260200160405180910390a45b8615611cec57611c928988613be5565b611c9d876002613cdd565b6000898152600c602052604090206001018790558689611cbc816120f9565b6001600160a01b0316600080516020615e32833981519152600260405160ff909116815260200160405180910390a45b8515611d5657611cfc8987613be5565b611d07866003613cdd565b6000898152600c602052604090206002018690558589611d26816120f9565b6001600160a01b0316600080516020615e32833981519152600360405160ff909116815260200160405180910390a45b8415611dc057611d668986613be5565b611d71856004613cdd565b6000898152600c602052604090206003018590558489611d90816120f9565b6001600160a01b0316600080516020615e32833981519152600460405160ff909116815260200160405180910390a45b8315611e2a57611dd08985613be5565b611ddb846005613cdd565b6000898152600c602052604090206004018490558389611dfa816120f9565b6001600160a01b0316600080516020615e32833981519152600560405160ff909116815260200160405180910390a45b8215611e9457611e3a8984613be5565b611e45836006613cdd565b6000898152600c602052604090206005018390558289611e64816120f9565b6001600160a01b0316600080516020615e32833981519152600660405160ff909116815260200160405180910390a45b8115611efe57611ea48983613be5565b611eaf826007613cdd565b6000898152600c602052604090206006018290558189611ece816120f9565b6001600160a01b0316600080516020615e32833981519152600760405160ff909116815260200160405180910390a45b88611f088a6120f9565b6001600160a01b03167f56680590212b09eb4b72a2eba8801b037ec046dfc754538e924f5bb6a8c4db6c60405160405180910390a3505050505050505050565b6000611f5360085490565b8210611fb65760405162461bcd60e51b815260206004820152602c60248201527f455243373231456e756d657261626c653a20676c6f62616c20696e646578206f60448201526b7574206f6620626f756e647360a01b6064820152608401611573565b60088281548110611fc957611fc96156f2565b90600052602060002001549050919050565b63389a75e1600c523360005260006020600c2055337ffa7b8eab7da67f412cc9575ed43464468f9bfbae89d1675917346ca6d8fe3c92600080a2565b6000612022846120f9565b90506001600160a01b038116331461204c576040516282b42960e81b815260040160405180910390fd5b811561205c5761205c8484613888565b612067818484613ddf565b50505050565b601c602052816000526040600020818154811061208957600080fd5b6000918252602090912001546001600160a01b03169150829050565b6120ad6137e9565b601280546001600160a01b0319166001600160a01b0392909216919091179055565b6120d76137e9565b601080546001600160a01b0319166001600160a01b0392909216919091179055565b6000818152600260205260408120546001600160a01b031680610ffc5760405162461bcd60e51b8152602060048201526018602482015277115490cdcc8c4e881a5b9d985b1a59081d1bdad95b88125160421b6044820152606401611573565b6010546040516331a9108f60e11b8152600481018390526000918291829182916001600160a01b0390911690636352211e90602401602060405180830381865afa1580156121ab573d6000803e3d6000fd5b505050506040513d601f19601f820116820180604052508101906121cf91906158a3565b6001600160a01b0381166000908152601b602052604090205490945092506121f6836120f9565b91506122028386612365565b90509193509193565b6000818152601c602090815260409182902080548351818402810184019094528084526060939283018282801561226b57602002820191906000526020600020905b81546001600160a01b0316815260019091019060200180831161224d575b50505050509050919050565b60006001600160a01b0382166122e15760405162461bcd60e51b815260206004820152602960248201527f4552433732313a2061646472657373207a65726f206973206e6f7420612076616044820152683634b21037bbb732b960b91b6064820152608401611573565b506001600160a01b031660009081526003602052604090205490565b6123056137e9565b61230f6000613ea5565b565b6123196137e9565b601180546001600160a01b0319166001600160a01b0392909216919091179055565b6123436137e9565b601380546001600160a01b0319166001600160a01b0392909216919091179055565b60008061237184612cdb565b80519091508314806123865750828160200151145b806123945750828160400151145b806123a25750828160600151145b806123b05750828160800151145b806123be5750828160a00151145b806123cc5750828160c00151145b949350505050565b6013546000828152600f602052604080822090516371bed9e160e11b81526060936001600160a01b03169163e37db3c291612415916002019060040161593d565b600060405180830381865afa158015612432573d6000803e3d6000fd5b505050506040513d6000823e601f3d908101601f1916820160405261245a91908101906156be565b6013546040516335b07b7960e11b81529192506001600160a01b031690636b60f6f29061248b908490600401614d70565b600060405180830381865afa1580156124a8573d6000803e3d6000fd5b505050506040513d6000823e601f3d908101601f191682016040526124d091908101906156be565b9392505050565b6124df6137e9565b601855565b60608060606124fa84610120015160ff166123d4565b6101208501805160ff9081166000908152600f602052604080822060135494519093168252908190209051630d88d4ff60e01b81526003909201926001600160a01b031691630d88d4ff9161255791600190910190600401615950565b600060405180830381865afa158015612574573d6000803e3d6000fd5b505050506040513d6000823e601f3d908101601f1916820160405261259c91908101906156be565b8180546125a89061563f565b80601f01602080910402602001604051908101604052809291908181526020018280546125d49061563f565b80156126215780601f106125f657610100808354040283529160200191612621565b820191906000526020600020905b81548152906001019060200180831161260457829003601f168201915b505050505091509250925092509193909250565b6060600180546110409061563f565b60105460405162438b6360e81b81526001600160a01b03838116600483015260609260009291169063438b630090602401600060405180830381865afa158015612692573d6000803e3d6000fd5b505050506040513d6000823e601f3d908101601f191682016040526124d09190810190615983565b600b5460ff161561230f5760005b600a8110156126e75760606126de60048261293b565b506001016126c8565b5061271160016040518060400160405280600681526020016533333333333360d11b815250612e8e565b61230f600180612a2b565b6000818152601a60205260409020546060906001600160a01b03166124d081612644565b6060600061274d83612cdb565b90508061016001516127675761276283613562565b6124d0565b6124d08361310a565b80156127de57600061278133611b49565b905080516000036127a4576040516282b42960e81b815260040160405180910390fd5b60005b81518110156127db576127d38282815181106127c5576127c56156f2565b602002602001015185613888565b6001016127a7565b50505b611137338383613ddf565b6060806127fd83610120015160ff166123d4565b60135461012085015160ff166000908152600f6020526040908190209051630d88d4ff60e01b81526001600160a01b0390921691630d88d4ff9161284991600190910190600401615950565b600060405180830381865afa158015612866573d6000803e3d6000fd5b505050506040513d6000823e601f3d908101601f1916820160405261288e91908101906156be565b91509150915091565b61289f6137e9565b60195415806128af575060195442105b156128cd57604051630314872760e11b815260040160405180910390fd5b6019546128dd9062093a80615a1e565b4211156128fd5760405163124212e560e21b815260040160405180910390fd5b61113782826004613ee3565b6129133383613935565b61292f5760405162461bcd60e51b815260040161157390615789565b61206784848484614203565b6012546001600160a01b031661296457604051633390ca8960e21b815260040160405180910390fd5b816000036129855760405163e7195f5160e01b815260040160405180910390fd5b816018546129939190615a31565b34146129b25760405163356680b760e01b815260040160405180910390fd5b6040516bffffffffffffffffffffffff193360601b1660208201526004906000906034016040516020818303038152906040528051906020012090506129fb83601e5483614236565b15612a095760059150612a20565b612a1683601d5483614236565b15612a2057600791505b612067338584613ee3565b81612a35816120f9565b6001600160a01b0316336001600160a01b031614612a6657604051631431735b60e21b815260040160405180910390fd5b6000838152600c60205260409020600b01805460ff191683151517905582612a8d816120f9565b6001600160a01b03167f6dd9e2813f787f711671bf91b2e57a72b9b61bc279b934201f3fd29b3b5f8cbe84604051612ac9911515815260200190565b60405180910390a3505050565b6000818152600260205260409020546060906001600160a01b0316612b0e57604051636461f73160e01b815260040160405180910390fd5b610ffc82612740565b81612b21816120f9565b6001600160a01b0316336001600160a01b031614612b5257604051631431735b60e21b815260040160405180910390fd5b6001826007811115612b6657612b666157d7565b03612b7b576000838152600c60205260408120555b6002826007811115612b8f57612b8f6157d7565b03612ba7576000838152600c60205260408120600101555b6003826007811115612bbb57612bbb6157d7565b03612bd3576000838152600c60205260408120600201555b6004826007811115612be757612be76157d7565b03612bff576000838152600c60205260408120600301555b6005826007811115612c1357612c136157d7565b03612c2b576000838152600c60205260408120600401555b6006826007811115612c3f57612c3f6157d7565b03612c57576000838152600c60205260408120600501555b6007826007811115612c6b57612c6b6157d7565b03612c83576000838152600c60205260408120600601555b82612c8d846120f9565b6001600160a01b03167f3d8ac56c725fc7985e9444622a45baee28ba67d8a964045f747b465121f40e71846007811115612cc957612cc96157d7565b60405160ff9091168152602001612ac9565b612d4a60405180610180016040528060008152602001600081526020016000815260200160008152602001600081526020016000815260200160008152602001600063ffffffff16815260200160008152602001600060ff168152602001606081526020016000151581525090565b6000828152600c60209081526040808320815161018081018352815481526001820154938101939093526002810154918301919091526003810154606083015260048101546080830152600581015460a0830152600681015460c0830152600781015463ffffffff1660e08301526008810154610100830152600981015460ff16610120830152600a8101805461014084019190612de79061563f565b80601f0160208091040260200160405190810160405280929190818152602001828054612e139061563f565b8015612e605780601f10612e3557610100808354040283529160200191612e60565b820191906000526020600020905b815481529060010190602001808311612e4357829003601f168201915b5050509183525050600b919091015460ff1615156020909101529392505050565b612e896137e9565b601955565b81612e98816120f9565b6001600160a01b0316336001600160a01b031614612ec957604051631431735b60e21b815260040160405180910390fd5b81518290600614612eed57604051631cf7e9c560e01b815260040160405180910390fd5b60408051808201909152600681526503036393432360d41b6020918201528151908201207fc9a8162f44485821dce92aaad6bb1b8cc6d457721d5ae939092ca3297c7dd0a501612f505760405163a3c0b7b960e01b815260040160405180910390fd5b60005b600681101561309d57603060f81b828281518110612f7357612f736156f2565b01602001516001600160f81b03191610801590612fb45750603960f81b828281518110612fa257612fa26156f2565b01602001516001600160f81b03191611155b1580156130165750604160f81b828281518110612fd357612fd36156f2565b01602001516001600160f81b031916108015906130145750604660f81b828281518110613002576130026156f2565b01602001516001600160f81b03191611155b155b80156130775750606160f81b828281518110613034576130346156f2565b01602001516001600160f81b031916108015906130755750606660f81b828281518110613063576130636156f2565b01602001516001600160f81b03191611155b155b1561309557604051631cf7e9c560e01b815260040160405180910390fd5b600101612f53565b506000848152600c60205260409020600a016130b98482615a90565b50836130c4856120f9565b6001600160a01b03167f2e34f8c0f6052b66319b4a5df14eac164c6af8a0b37f612d4304a777e1ae7a3d856040516130fc9190614d70565b60405180910390a350505050565b60608060608060608060608060606131436040518060800160405280606081526020016060815260200160608152602001600081525090565b600061314e8c612cdb565b9050613159816124e4565b60105460405163bb12d21d60e01b8152939d50919a5095506001600160a01b03169063bb12d21d9061318f90849060040161546c565b600060405180830381865afa1580156131ac573d6000803e3d6000fd5b505050506040513d6000823e601f3d908101601f191682016040526131d491908101906157ed565b604051929b5090985095506131ef9085908790602001615b4f565b60405160208183030381529060405292508787604051602001613213929190615874565b60408051601f19818403018152919052610140820151835295506132368c61271c565b51606083015261012081015160ff166000908152600f6020526040902060010180546132619061563f565b80601f016020809104026020016040519081016040528092919081815260200182805461328d9061563f565b80156132da5780601f106132af576101008083540402835291602001916132da565b820191906000526020600020905b8154815290600101906020018083116132bd57829003601f168201915b505050505082602001819052506133038c6000908152600c60205260409020600b015460ff1690565b61332757604051806040016040528060028152602001610c9160f21b815250613343565b604051806040016040528060028152602001610cd160f21b8152505b60408084019190915260145490516367b6032760e11b81526001600160a01b039091169063cf6c064e90613387908f908e9089908f908c908e908b90600401615c13565b600060405180830381865afa1580156133a4573d6000803e3d6000fd5b505050506040513d6000823e601f3d908101601f191682016040526133cc91908101906156be565b9c9b505050505050505050505050565b816133e6816120f9565b6001600160a01b0316336001600160a01b03161461341757604051631431735b60e21b815260040160405180910390fd5b60048260ff16111561343c576040516329ba348d60e11b815260040160405180910390fd5b6000838152600c60205260409020600901805460ff191660ff841617905582613464816120f9565b60405160ff851681526001600160a01b0391909116907f454db5768a3f8187a5dd5e9cca100cf699d74d8a03f793d16da3932cdf34d35890602001612ac9565b6134ac6137e9565b601e55565b6134b96137e9565b63389a75e1600c52806000526020600c2080544211156134e157636f5e88186000526004601cfd5b60009055611b2b81613ea5565b6134f66137e9565b6000848152600f60205260409020848155600181016135158582615a90565b50600281016135248482615a90565b50600381016135338382615a90565b505050505050565b6135436137e9565b8060601b61355957637448fbae6000526004601cfd5b611b2b81613ea5565b606080606080606080600061357688612cdb565b9050613581816127e9565b601054604051631be5857160e31b81529298509096506001600160a01b03169063df2c2b88906135b590849060040161546c565b600060405180830381865afa1580156135d2573d6000803e3d6000fd5b505050506040513d6000823e601f3d908101601f191682016040526135fa9190810190615c9c565b9094509250613608886112fc565b91506136356040518060800160405280606081526020016060815260200160608152602001600081525090565b61014082015181526136468961271c565b51606082015261012082015160ff166000908152600f6020526040902060010180546136719061563f565b80601f016020809104026020016040519081016040528092919081815260200182805461369d9061563f565b80156136ea5780601f106136bf576101008083540402835291602001916136ea565b820191906000526020600020905b8154815290600101906020018083116136cd57829003601f168201915b50505050508160200181905250613713896000908152600c60205260409020600b015460ff1690565b61373757604051806040016040528060028152602001610c9160f21b815250613753565b604051806040016040528060028152602001610cd160f21b8152505b6040808301919091526013549051630ed2eb5b60e41b81526001600160a01b039091169063ed2eb5b090613797908c908b908b908b908b908b908a90600401615c13565b600060405180830381865afa1580156137b4573d6000803e3d6000fd5b505050506040513d6000823e601f3d908101601f191682016040526137dc91908101906156be565b9998505050505050505050565b638b78c6d81954331461230f576382b429006000526004601cfd5b60006001600160e01b0319821663780e9d6360e01b1480610ffc5750610ffc8261424c565b6000818152600260205260409020546001600160a01b0316611b2b5760405162461bcd60e51b8152602060048201526018602482015277115490cdcc8c4e881a5b9d985b1a59081d1bdad95b88125160421b6044820152606401611573565b6000918252601c6020908152604083208054600181018255908452922090910180546001600160a01b0319166001600160a01b03909216919091179055565b600081815260046020526040902080546001600160a01b0319166001600160a01b03841690811790915581906138fc826120f9565b6001600160a01b03167f8c5be1e5ebec7d5bd14f71427d1e84f3dd0314c0f7b2291e5b200ac8c7c3b92560405160405180910390a45050565b600080613941836120f9565b9050806001600160a01b0316846001600160a01b0316148061398857506001600160a01b0380821660009081526005602090815260408083209388168352929052205460ff165b806123cc5750836001600160a01b03166139a1846110c3565b6001600160a01b031614949350505050565b826001600160a01b03166139c6826120f9565b6001600160a01b031614613a2a5760405162461bcd60e51b815260206004820152602560248201527f4552433732313a207472616e736665722066726f6d20696e636f72726563742060448201526437bbb732b960d91b6064820152608401611573565b6001600160a01b038216613a8c5760405162461bcd60e51b8152602060048201526024808201527f4552433732313a207472616e7366657220746f20746865207a65726f206164646044820152637265737360e01b6064820152608401611573565b613a9783838361429c565b613aa26000826138c7565b6001600160a01b0383166000908152600360205260408120805460019290613acb908490615cf5565b90915550506001600160a01b0382166000908152600360205260408120805460019290613af9908490615a1e565b909155505060008181526002602052604080822080546001600160a01b0319166001600160a01b0386811691821790925591518493918716917fddf252ad1be2c89b69c2b068fc378daa952ba7f163c4a11628f55a4df523b3ef91a4611587838383614677565b6000613b6c8383613be5565b60105460405163e8a1268d60e01b8152600481018490526001600160a01b039091169063e8a1268d90602401602060405180830381865afa158015613bb5573d6000803e3d6000fd5b505050506040513d601f19601f82011682018060405250810190613bd99190615d08565b9050610ffc8282613cdd565b81613bef816120f9565b6001600160a01b0316336001600160a01b031614613c2057604051631431735b60e21b815260040160405180910390fd5b6000838152601a60205260408082205460105491516331a9108f60e11b8152600481018690526001600160a01b0391821693929190911690636352211e90602401602060405180830381865afa158015613c7e573d6000803e3d6000fd5b505050506040513d601f19601f82011682018060405250810190613ca291906158a3565b9050816001600160a01b0316816001600160a01b031614613cd65760405163e6ca793160e01b815260040160405180910390fd5b5050505050565b60105460405163e8a1268d60e01b8152600481018490526000916001600160a01b03169063e8a1268d90602401602060405180830381865afa158015613d27573d6000803e3d6000fd5b505050506040513d601f19601f82011682018060405250810190613d4b9190615d08565b9050816007811115613d5f57613d5f6157d7565b604051602001613d7191815260200190565b60405160208183030381529060405280519060200120816007811115613d9957613d996157d7565b604051602001613dab91815260200190565b604051602081830303815290604052805190602001201461158757604051633e54c6fb60e11b815260040160405180910390fd5b816001600160a01b0316836001600160a01b031603613e405760405162461bcd60e51b815260206004820152601960248201527f4552433732313a20617070726f766520746f2063616c6c6572000000000000006044820152606401611573565b6001600160a01b03838116600081815260056020908152604080832094871680845294825291829020805460ff191686151590811790915591519182527f17307eab39ab6107e8899845ad3d59bd9653f200f220920489ca2b5937696c319101612ac9565b638b78c6d81980546001600160a01b039092169182907f8be0079c531659141344cd1fd0a4f28419497f9722a3daafe3b4186f6b6457e0600080a355565b60005b82811015612067576000601660008154613eff90615d25565b91829055509050613f108582614681565b604051638a54c52f60e01b81527355266d75d1a14e4572138116af39863ed6596e7f600482015260006024820181905262014a34604483015230606483015260848201839052906f6551c19487814612e58fe0681377575890638a54c52f9060a4016020604051808303816000875af1158015613f91573d6000803e3d6000fd5b505050506040513d601f19601f82011682018060405250810190613fb591906158a3565b6000838152601a6020908152604080832080546001600160a01b0319166001600160a01b038616908117909155808452601b90925291829020859055905163189acdbd60e31b81527341c8f39463a868d3a88af00cd0fe7102f30e44ec60048201529192509063c4d66de890602401600060405180830381600087803b15801561403e57600080fd5b505af1158015614052573d6000803e3d6000fd5b50506012546040516358a2727360e01b81526001600160a01b03858116600483015260ff891660248301526000945090911691506358a27273906044016000604051808303816000875af11580156140ae573d6000803e3d6000fd5b505050506040513d6000823e601f3d908101601f191682016040526140d69190810190615983565b6000848152600c6020526040812060088101869055825192935091839190614100576141006156f2565b6020026020010151816006018190555081600181518110614123576141236156f2565b6020026020010151816005018190555081600281518110614146576141466156f2565b6020026020010151816004018190555081600381518110614169576141696156f2565b6020026020010151816001018190555060058460405160200161418e91815260200190565b6040516020818303038152906040528051906020012060001c6141b19190615d3e565b60098201805460ff191660ff929092169190911790556040805180820190915260068152650c110d914e5160d21b6020820152600a8201906141f39082615a90565b5050505050806001019050613ee6565b61420e8484846139b3565b61421a848484846147d7565b6120675760405162461bcd60e51b815260040161157390615d60565b60008261424385846148d8565b14949350505050565b60006001600160e01b031982166380ac58cd60e01b148061427d57506001600160e01b03198216635b5e139f60e01b145b80610ffc57506301ffc9a760e01b6001600160e01b0319831614610ffc565b6001600160a01b0383166142b557611587838383614913565b6001600160a01b0382166000908152601b6020526040902054156142ec57604051639a42da2960e01b815260040160405180910390fd5b6000818152601a602052604080822054601054915162438b6360e81b81526001600160a01b03918216600482018190529392919091169063438b630090602401600060405180830381865afa158015614349573d6000803e3d6000fd5b505050506040513d6000823e601f3d908101601f191682016040526143719190810190615983565b9050600061437e85611b49565b9050600081516001600160401b0381111561439b5761439b614e72565b6040519080825280602002602001820160405280156143c4578160200160208202803683370190505b50905060005b825181101561444557601a60008483815181106143e9576143e96156f2565b6020026020010151815260200190815260200160002060009054906101000a90046001600160a01b0316828281518110614425576144256156f2565b6001600160a01b03909216602092830291909101909101526001016143ca565b5060115460405163644ec52760e01b8152600481018790526001600160a01b039091169063644ec52790602401600060405180830381600087803b15801561448c57600080fd5b505af11580156144a0573d6000803e3d6000fd5b5050601154604051631e92beb560e31b8152600481018990526001600160a01b038a81166024830152909116925063f495f5a89150604401600060405180830381600087803b1580156144f257600080fd5b505af1158015614506573d6000803e3d6000fd5b5050505060005b835181101561466257600084828151811061452a5761452a6156f2565b6020908102919091010151601154604051632e1d274f60e01b8152600481018390529192506001600160a01b031690632e1d274f90602401600060405180830381600087803b15801561457c57600080fd5b505af1158015614590573d6000803e3d6000fd5b5050601154604051632333520b60e11b81526001600160a01b039091169250634666a41691506145c69084908790600401615db2565b600060405180830381600087803b1580156145e057600080fd5b505af11580156145f4573d6000803e3d6000fd5b505060105460405163487b1c2160e11b8152600481018590526001600160a01b0390911692506390f638429150602401600060405180830381600087803b15801561463e57600080fd5b505af1158015614652573d6000803e3d6000fd5b505050505080600101905061450d565b5061466e878787614913565b50505050505050565b61158781846149cb565b6001600160a01b0382166146d75760405162461bcd60e51b815260206004820181905260248201527f4552433732313a206d696e7420746f20746865207a65726f20616464726573736044820152606401611573565b6000818152600260205260409020546001600160a01b03161561473c5760405162461bcd60e51b815260206004820152601c60248201527f4552433732313a20746f6b656e20616c7265616479206d696e746564000000006044820152606401611573565b6147486000838361429c565b6001600160a01b0382166000908152600360205260408120805460019290614771908490615a1e565b909155505060008181526002602052604080822080546001600160a01b0319166001600160a01b03861690811790915590518392907fddf252ad1be2c89b69c2b068fc378daa952ba7f163c4a11628f55a4df523b3ef908290a461113760008383614677565b60006001600160a01b0384163b156148cd57604051630a85bd0160e11b81526001600160a01b0385169063150b7a029061481b903390899088908890600401615dcb565b6020604051808303816000875af1925050508015614856575060408051601f3d908101601f1916820190925261485391810190615dfe565b60015b6148b3573d808015614884576040519150601f19603f3d011682016040523d82523d6000602084013e614889565b606091505b5080516000036148ab5760405162461bcd60e51b815260040161157390615d60565b805181602001fd5b6001600160e01b031916630a85bd0160e11b1490506123cc565b506001949350505050565b600081815b8451811015611bd857614909828683815181106148fc576148fc6156f2565b6020026020010151614ab4565b91506001016148dd565b6001600160a01b03831661496e5761496981600880546000838152600960205260408120829055600182018355919091527ff3f7a9fe364faab93b216da50a3214154f22a0a2b415b23a84c8169e8b636ee30155565b614991565b816001600160a01b0316836001600160a01b031614614991576149918382614ae0565b6001600160a01b0382166149a85761158781614b7d565b826001600160a01b0316826001600160a01b031614611587576115878282614c2c565b6000828152601c6020908152604080832080548251818502810185019093528083529192909190830182828015614a2b57602002820191906000526020600020905b81546001600160a01b03168152600190910190602001808311614a0d575b5050506000868152601a60205260408120549394506001600160a01b03909316929150505b8251811015614a9c57614a7e84848381518110614a6f57614a6f6156f2565b60200260200101516000613ddf565b614a9482848381518110614a6f57614a6f6156f2565b600101614a50565b506000848152601c6020526040812061206791614c70565b6000818310614ad05760008281526020849052604090206124d0565b5060009182526020526040902090565b60006001614aed84612277565b614af79190615cf5565b600083815260076020526040902054909150808214614b4a576001600160a01b03841660009081526006602090815260408083208584528252808320548484528184208190558352600790915290208190555b5060009182526007602090815260408084208490556001600160a01b039094168352600681528383209183525290812055565b600854600090614b8f90600190615cf5565b60008381526009602052604081205460088054939450909284908110614bb757614bb76156f2565b906000526020600020015490508060088381548110614bd857614bd86156f2565b6000918252602080832090910192909255828152600990915260408082208490558582528120556008805480614c1057614c10615e1b565b6001900381819060005260206000200160009055905550505050565b6000614c3783612277565b6001600160a01b039093166000908152600660209081526040808320868452825280832085905593825260079052919091209190915550565b5080546000825590600052602060002090810190611b2b91905b80821115614c9e5760008155600101614c8a565b5090565b6001600160a01b0381168114611b2b57600080fd5b600060208284031215614cc957600080fd5b81356124d081614ca2565b6001600160e01b031981168114611b2b57600080fd5b600060208284031215614cfc57600080fd5b81356124d081614cd4565b600060208284031215614d1957600080fd5b5035919050565b60005b83811015614d3b578181015183820152602001614d23565b50506000910152565b60008151808452614d5c816020860160208601614d20565b601f01601f19169290920160200192915050565b6020815260006124d06020830184614d44565b60008060408385031215614d9657600080fd5b8235614da181614ca2565b946020939093013593505050565b848152608060208201526000614dc86080830186614d44565b8281036040840152614dda8186614d44565b90508281036060840152614dee8185614d44565b979650505050505050565b600080600060608486031215614e0e57600080fd5b8335614e1981614ca2565b92506020840135614e2981614ca2565b929592945050506040919091013590565b60008060408385031215614e4d57600080fd5b50508035926020909101359150565b803560ff81168114614e6d57600080fd5b919050565b634e487b7160e01b600052604160045260246000fd5b60405161018081016001600160401b0381118282101715614eab57614eab614e72565b60405290565b604051601f8201601f191681016001600160401b0381118282101715614ed957614ed9614e72565b604052919050565b60006001600160401b03821115614efa57614efa614e72565b50601f01601f191660200190565b600082601f830112614f1957600080fd5b8135614f2c614f2782614ee1565b614eb1565b818152846020838601011115614f4157600080fd5b816020850160208301376000918101602001919091529392505050565b6000806000806000806000806000806101408b8d031215614f7e57600080fd5b8a35995060208b0135985060408b0135975060608b0135965060808b0135955060a08b0135945060c08b0135935060e08b01359250614fc06101008c01614e5c565b91506101208b01356001600160401b03811115614fdc57600080fd5b614fe88d828e01614f08565b9150509295989b9194979a5092959850565b6020808252825182820181905260009190848201906040850190845b8181101561503257835183529284019291840191600101615016565b50909695505050505050565b600080600080600080600080610100898b03121561505b57600080fd5b505086359860208801359850604088013597606081013597506080810135965060a0810135955060c0810135945060e0013592509050565b80358015158114614e6d57600080fd5b6000806000606084860312156150b857600080fd5b8335925060208401356150ca81614ca2565b91506150d860408501615093565b90509250925092565b60008151808452602080850194506020840160005b8381101561511b5781516001600160a01b0316875295820195908201906001016150f6565b509495945050505050565b6020815260006124d060208301846150e1565b803563ffffffff81168114614e6d57600080fd5b60006020828403121561515f57600080fd5b81356001600160401b038082111561517657600080fd5b90830190610180828603121561518b57600080fd5b615193614e88565b823581526020830135602082015260408301356040820152606083013560608201526080830135608082015260a083013560a082015260c083013560c08201526151df60e08401615139565b60e082015261010083810135908201526101206151fd818501614e5c565b90820152610140838101358381111561521557600080fd5b61522188828701614f08565b8284015250506101609150615237828401615093565b91810191909152949350505050565b6060815260006152596060830186614d44565b828103602084015261526b8186614d44565b905082810360408401526115368185614d44565b6000806040838503121561529257600080fd5b823561529d81614ca2565b91506152ab60208401615093565b90509250929050565b6040815260006152c76040830185614d44565b82810360208401526152d98185614d44565b95945050505050565b600080600080608085870312156152f857600080fd5b843561530381614ca2565b9350602085013561531381614ca2565b92506040850135915060608501356001600160401b0381111561533557600080fd5b61534187828801614f08565b91505092959194509250565b60006001600160401b0382111561536657615366614e72565b5060051b60200190565b6000806040838503121561538357600080fd5b823591506020808401356001600160401b038111156153a157600080fd5b8401601f810186136153b257600080fd5b80356153c0614f278261534d565b81815260059190911b820183019083810190888311156153df57600080fd5b928401925b828410156153fd578335825292840192908401906153e4565b80955050505050509250929050565b6000806040838503121561541f57600080fd5b823591506152ab60208401615093565b60088110611b2b57600080fd5b6000806040838503121561544f57600080fd5b8235915060208301356154618161542f565b809150509250929050565b6020815281516020820152602082015160408201526040820151606082015260608201516080820152608082015160a082015260a082015160c082015260c082015160e0820152600060e08301516101006154ce8185018363ffffffff169052565b8401516101208481019190915284015190506101406154f18185018360ff169052565b8085015191505061018061016081818601526155116101a0860184614d44565b95015115159301929092525090919050565b6000806040838503121561553657600080fd5b8235915060208301356001600160401b0381111561555357600080fd5b61555f85828601614f08565b9150509250929050565b6000806040838503121561557c57600080fd5b823591506152ab60208401614e5c565b6000806040838503121561559f57600080fd5b82356155aa81614ca2565b9150602083013561546181614ca2565b600080600080608085870312156155d057600080fd5b8435935060208501356001600160401b03808211156155ee57600080fd5b6155fa88838901614f08565b9450604087013591508082111561561057600080fd5b61561c88838901614f08565b9350606087013591508082111561563257600080fd5b5061534187828801614f08565b600181811c9082168061565357607f821691505b60208210810361567357634e487b7160e01b600052602260045260246000fd5b50919050565b600082601f83011261568a57600080fd5b8151615698614f2782614ee1565b8181528460208386010111156156ad57600080fd5b6123cc826020830160208701614d20565b6000602082840312156156d057600080fd5b81516001600160401b038111156156e657600080fd5b6123cc84828501615679565b634e487b7160e01b600052603260045260246000fd5b60808152600061571b6080830187614d44565b6020838203818501528187518084528284019150828160051b850101838a0160005b8381101561576b57601f19878403018552615759838351614d44565b9486019492509085019060010161573d565b50506040870198909852505050506060909101919091525092915050565b6020808252602e908201527f4552433732313a2063616c6c6572206973206e6f7420746f6b656e206f776e6560408201526d1c881b9bdc88185c1c1c9bdd995960921b606082015260800190565b634e487b7160e01b600052602160045260246000fd5b60008060006060848603121561580257600080fd5b83516001600160401b038082111561581957600080fd5b61582587838801615679565b9450602086015191508082111561583b57600080fd5b61584787838801615679565b9350604086015191508082111561585d57600080fd5b5061586a86828701615679565b9150509250925092565b60008351615886818460208801614d20565b83519083019061589a818360208801614d20565b01949350505050565b6000602082840312156158b557600080fd5b81516124d081614ca2565b600081546158cd8161563f565b8085526020600183811680156158ea576001811461590457615932565b60ff1985168884015283151560051b880183019550615932565b866000528260002060005b8581101561592a5781548a820186015290830190840161590f565b890184019650505b505050505092915050565b6020815260006124d060208301846158c0565b604081526009604082015268426f6479205479706560b81b60608201526080602082015260006124d060808301846158c0565b6000602080838503121561599657600080fd5b82516001600160401b038111156159ac57600080fd5b8301601f810185136159bd57600080fd5b80516159cb614f278261534d565b81815260059190911b820183019083810190878311156159ea57600080fd5b928401925b82841015614dee578351825292840192908401906159ef565b634e487b7160e01b600052601160045260246000fd5b80820180821115610ffc57610ffc615a08565b8082028115828204841417610ffc57610ffc615a08565b601f821115611587576000816000526020600020601f850160051c81016020861015615a715750805b601f850160051c820191505b8181101561353357828155600101615a7d565b81516001600160401b03811115615aa957615aa9614e72565b615abd81615ab7845461563f565b84615a48565b602080601f831160018114615af25760008415615ada5750858301515b600019600386901b1c1916600185901b178555613533565b600085815260208120601f198616915b82811015615b2157888601518255948401946001909101908401615b02565b5085821015615b3f5787850151600019600388901b60f8161c191681555b5050505050600190811b01905550565b6d2261747472696275746573223a5b60901b81528251600090615b7981600e850160208801614d20565b600b60fa1b600e918401918201528351615b9a81600f840160208801614d20565b605d60f81b600f9290910191820152601001949350505050565b6000815160808452615bc96080850182614d44565b905060208301518482036020860152615be28282614d44565b91505060408301518482036040860152615bfc8282614d44565b915050606083015160608501528091505092915050565b87815260e060208201526000615c2c60e0830189614d44565b8281036040840152615c3e8189614d44565b90508281036060840152615c528188614d44565b90508281036080840152615c668187614d44565b905082810360a0840152615c7a8186614d44565b905082810360c0840152615c8e8185615bb4565b9a9950505050505050505050565b60008060408385031215615caf57600080fd5b82516001600160401b0380821115615cc657600080fd5b615cd286838701615679565b93506020850151915080821115615ce857600080fd5b5061555f85828601615679565b81810381811115610ffc57610ffc615a08565b600060208284031215615d1a57600080fd5b81516124d08161542f565b600060018201615d3757615d37615a08565b5060010190565b600082615d5b57634e487b7160e01b600052601260045260246000fd5b500690565b60208082526032908201527f4552433732313a207472616e7366657220746f206e6f6e20455243373231526560408201527131b2b4bb32b91034b6b83632b6b2b73a32b960711b606082015260800190565b8281526040602082015260006123cc60408301846150e1565b6001600160a01b038581168252841660208201526040810183905260806060820181905260009061153690830184614d44565b600060208284031215615e1057600080fd5b81516124d081614cd4565b634e487b7160e01b600052603160045260246000fdfec94c1c47471ed97c1d309bab965192a3e4be3807f42d015b699bfbdcf24dd9f6a264697066735822122034fdd393c691131e2f8de624bf01d1177e38c68a170ae63a5fd0923fce23460c64736f6c63430008160033","linkReferences":{}},"methodIdentifiers":{"_debugPostConstructorMint()":"9c7be2f1","_nextTokenId()":"4a60f620","addNewBody(uint256,string,bytes,bytes)":"f2361e23","approve(address,uint256)":"095ea7b3","balanceOf(address)":"70a08231","bodyIndexToMetadata(uint256)":"0c83f9d7","cancelOwnershipHandover()":"54d1f13d","checkIfTraitIsEquipped(uint256,uint256)":"8aa1e4c8","chonkIdToApprovedOperators(uint256,uint256)":"55737f35","chonkMakeover(uint256,uint256,uint256,uint256,uint256,uint256,uint256,uint256,uint8,string)":"30f6c521","completeOwnershipHandover(address)":"f04e283e","equip(uint256,uint256)":"28257532","equipAll(uint256,uint256,uint256,uint256,uint256,uint256,uint256,uint256)":"4a4333a3","firstSeasonRenderMinter()":"13ea0ae3","friendsListMerkleRoot()":"8f224757","getApproved(uint256)":"081812fc","getBackpackSVGs(uint256)":"14fe8ff4","getBodyImageSvg(uint256)":"916c546b","getBodySVGZmapsAndMetadata((uint256,uint256,uint256,uint256,uint256,uint256,uint256,uint32,uint256,uint8,string,bool))":"92012f08","getBodySvgAndMetadata((uint256,uint256,uint256,uint256,uint256,uint256,uint256,uint32,uint256,uint8,string,bool))":"a23830ae","getBodyZMap(uint256)":"306c7334","getChonk(uint256)":"d3d6873e","getChonkIdForTBAAddress(address)":"8472cbca","getChonkIdToApprovedOperators(uint256)":"67d2afe2","getChonkZMap(uint256)":"32875aa0","getFullPictureForTrait(uint256)":"66704349","getOwnerAndTBAAddressForChonkId(uint256)":"04003bd0","getTBAAddressForChonkId(uint256)":"f6a0c932","getTokenRenderZ(uint256)":"8200ea51","getTraitTokens(address)":"998cfb6e","getTraitsForChonkId(uint256)":"9f6e4637","isApprovedForAll(address,address)":"e985e9c5","mainRenderer2D()":"f4bec0b6","mainRenderer3D()":"b66ef6e3","marketplace()":"abc8c7af","maxTraitsToOutput()":"e3d21555","mint(uint256,bytes32[])":"ba41b0c6","mintStartTime()":"931e2e49","name()":"06fdde03","owner()":"8da5cb5b","ownerOf(uint256)":"6352211e","ownershipHandoverExpiresAt(address)":"fee81cf4","price()":"a035b1fe","renderAsDataUri(uint256)":"a1d62680","renderAsDataUri2D(uint256)":"f3f8efb9","renderAsDataUri3D(uint256)":"dceef0ec","renounceOwnership()":"715018a6","requestOwnershipHandover()":"25692962","safeTransferFrom(address,address,uint256)":"42842e0e","safeTransferFrom(address,address,uint256,bytes)":"b88d4fde","setApprovalForAll(address,bool)":"a22cb465","setApprovalForAllChonksMarketplace(uint256,address,bool)":"550ab247","setBackgroundColor(uint256,string)":"d68c4f32","setBodyIndex(uint256,uint8)":"e1405540","setFirstSeasonRenderMinter(address)":"58a97640","setFriendsListMerkleRoot(bytes32)":"1ab37512","setMainRenderer2D(address)":"7e2e6c47","setMainRenderer3D(address)":"00179206","setMarketplace(address)":"73ad6c2d","setMaxTraitsToOutput(uint256)":"33d3d9bf","setMintStartTime(uint256)":"d5b3621b","setPrice(uint256)":"91b7f5ed","setSpecialCollectionMerkleRoot(bytes32)":"e29babbb","setTokenRender3D(uint256,bool)":"bef1dfb7","setTraitsContract(address)":"5eabd84a","setWithdrawAddress(address)":"3ab1a494","specialCollectionMerkleRoot()":"deab1d36","supportsInterface(bytes4)":"01ffc9a7","symbol()":"95d89b41","tbaAddressToTokenId(address)":"a4bf9a00","teamMint(address,uint256)":"add5a4fa","tokenByIndex(uint256)":"4f6ccce7","tokenIdToTBAAccountAddress(uint256)":"9c05d68d","tokenOfOwnerByIndex(address,uint256)":"2f745c59","tokenURI(uint256)":"c87b56dd","totalSupply()":"18160ddd","traitsContract()":"c093afdb","transferFrom(address,address,uint256)":"23b872dd","transferOwnership(address)":"f2fde38b","unequip(uint256,uint8)":"cdb6dd5c","unequipAll(uint256)":"3044825b","walletOfOwner(address)":"438b6300","withdraw()":"3ccfd60b","withdrawAddress()":"1581b600"},"id":39}