{"abi":[{"type":"constructor","inputs":[],"stateMutability":"nonpayable"},{"type":"function","name":"_nextTokenId","inputs":[],"outputs":[{"name":"","type":"uint256","internalType":"uint256"}],"stateMutability":"view"},{"type":"function","name":"addNewBody","inputs":[{"name":"_bodyIndex","type":"uint256","internalType":"uint256"},{"name":"_bodyName","type":"string","internalType":"string"},{"name":"_colorMap","type":"bytes","internalType":"bytes"},{"name":"_zMap","type":"bytes","internalType":"bytes"}],"outputs":[],"stateMutability":"nonpayable"},{"type":"function","name":"approve","inputs":[{"name":"_operator","type":"address","internalType":"address"},{"name":"_chonkId","type":"uint256","internalType":"uint256"}],"outputs":[],"stateMutability":"nonpayable"},{"type":"function","name":"balanceOf","inputs":[{"name":"owner","type":"address","internalType":"address"}],"outputs":[{"name":"","type":"uint256","internalType":"uint256"}],"stateMutability":"view"},{"type":"function","name":"bodyIndexToMetadata","inputs":[{"name":"","type":"uint256","internalType":"uint256"}],"outputs":[{"name":"bodyIndex","type":"uint256","internalType":"uint256"},{"name":"bodyName","type":"string","internalType":"string"},{"name":"colorMap","type":"bytes","internalType":"bytes"},{"name":"zMap","type":"bytes","internalType":"bytes"}],"stateMutability":"view"},{"type":"function","name":"cancelOwnershipHandover","inputs":[],"outputs":[],"stateMutability":"payable"},{"type":"function","name":"checkIfTraitIsEquipped","inputs":[{"name":"_chonkId","type":"uint256","internalType":"uint256"},{"name":"_traitId","type":"uint256","internalType":"uint256"}],"outputs":[{"name":"","type":"bool","internalType":"bool"}],"stateMutability":"view"},{"type":"function","name":"chonkIdToApprovedOperators","inputs":[{"name":"chonkId","type":"uint256","internalType":"uint256"},{"name":"","type":"uint256","internalType":"uint256"}],"outputs":[{"name":"operators","type":"address","internalType":"address"}],"stateMutability":"view"},{"type":"function","name":"chonkTokens","inputs":[{"name":"tokenID","type":"uint256","internalType":"uint256"}],"outputs":[{"name":"headId","type":"uint256","internalType":"uint256"},{"name":"hairId","type":"uint256","internalType":"uint256"},{"name":"faceId","type":"uint256","internalType":"uint256"},{"name":"accessoryId","type":"uint256","internalType":"uint256"},{"name":"topId","type":"uint256","internalType":"uint256"},{"name":"bottomId","type":"uint256","internalType":"uint256"},{"name":"shoesId","type":"uint256","internalType":"uint256"},{"name":"epoch","type":"uint32","internalType":"uint32"},{"name":"tokenId","type":"uint256","internalType":"uint256"},{"name":"bodyIndex","type":"uint8","internalType":"uint8"},{"name":"backgroundColor","type":"string","internalType":"string"},{"name":"render3D","type":"bool","internalType":"bool"}],"stateMutability":"view"},{"type":"function","name":"collectionsMerkle","inputs":[],"outputs":[{"name":"","type":"bytes32","internalType":"bytes32"}],"stateMutability":"view"},{"type":"function","name":"completeOwnershipHandover","inputs":[{"name":"pendingOwner","type":"address","internalType":"address"}],"outputs":[],"stateMutability":"payable"},{"type":"function","name":"creatorsMerkle","inputs":[],"outputs":[{"name":"","type":"bytes32","internalType":"bytes32"}],"stateMutability":"view"},{"type":"function","name":"deploymentTime","inputs":[],"outputs":[{"name":"","type":"uint256","internalType":"uint256"}],"stateMutability":"view"},{"type":"function","name":"equip","inputs":[{"name":"_chonkTokenId","type":"uint256","internalType":"uint256"},{"name":"_traitTokenId","type":"uint256","internalType":"uint256"}],"outputs":[],"stateMutability":"nonpayable"},{"type":"function","name":"equipAll","inputs":[{"name":"_chonkTokenId","type":"uint256","internalType":"uint256"},{"name":"_headTokenId","type":"uint256","internalType":"uint256"},{"name":"_hairTokenId","type":"uint256","internalType":"uint256"},{"name":"_faceTokenId","type":"uint256","internalType":"uint256"},{"name":"_accessoryTokenId","type":"uint256","internalType":"uint256"},{"name":"_topTokenId","type":"uint256","internalType":"uint256"},{"name":"_bottomTokenId","type":"uint256","internalType":"uint256"},{"name":"_shoesTokenId","type":"uint256","internalType":"uint256"}],"outputs":[],"stateMutability":"nonpayable"},{"type":"function","name":"firstReleaseDataMinter","inputs":[],"outputs":[{"name":"","type":"address","internalType":"contract FirstReleaseDataMinter"}],"stateMutability":"view"},{"type":"function","name":"friendsMerkle","inputs":[],"outputs":[{"name":"","type":"bytes32","internalType":"bytes32"}],"stateMutability":"view"},{"type":"function","name":"getApproved","inputs":[{"name":"tokenId","type":"uint256","internalType":"uint256"}],"outputs":[{"name":"","type":"address","internalType":"address"}],"stateMutability":"view"},{"type":"function","name":"getBackpackSVGs","inputs":[{"name":"_tokenId","type":"uint256","internalType":"uint256"}],"outputs":[{"name":"","type":"string","internalType":"string"}],"stateMutability":"view"},{"type":"function","name":"getBodyImageSvg","inputs":[{"name":"_index","type":"uint256","internalType":"uint256"}],"outputs":[{"name":"svg","type":"string","internalType":"string"}],"stateMutability":"view"},{"type":"function","name":"getBodySVGZmapsAndMetadata","inputs":[{"name":"storedChonk","type":"tuple","internalType":"struct IChonkStorage.StoredChonk","components":[{"name":"headId","type":"uint256","internalType":"uint256"},{"name":"hairId","type":"uint256","internalType":"uint256"},{"name":"faceId","type":"uint256","internalType":"uint256"},{"name":"accessoryId","type":"uint256","internalType":"uint256"},{"name":"topId","type":"uint256","internalType":"uint256"},{"name":"bottomId","type":"uint256","internalType":"uint256"},{"name":"shoesId","type":"uint256","internalType":"uint256"},{"name":"epoch","type":"uint32","internalType":"uint32"},{"name":"tokenId","type":"uint256","internalType":"uint256"},{"name":"bodyIndex","type":"uint8","internalType":"uint8"},{"name":"backgroundColor","type":"string","internalType":"string"},{"name":"render3D","type":"bool","internalType":"bool"}]}],"outputs":[{"name":"","type":"string","internalType":"string"},{"name":"","type":"bytes","internalType":"bytes"},{"name":"","type":"string","internalType":"string"}],"stateMutability":"view"},{"type":"function","name":"getBodySvgAndMetadata","inputs":[{"name":"storedChonk","type":"tuple","internalType":"struct IChonkStorage.StoredChonk","components":[{"name":"headId","type":"uint256","internalType":"uint256"},{"name":"hairId","type":"uint256","internalType":"uint256"},{"name":"faceId","type":"uint256","internalType":"uint256"},{"name":"accessoryId","type":"uint256","internalType":"uint256"},{"name":"topId","type":"uint256","internalType":"uint256"},{"name":"bottomId","type":"uint256","internalType":"uint256"},{"name":"shoesId","type":"uint256","internalType":"uint256"},{"name":"epoch","type":"uint32","internalType":"uint32"},{"name":"tokenId","type":"uint256","internalType":"uint256"},{"name":"bodyIndex","type":"uint8","internalType":"uint8"},{"name":"backgroundColor","type":"string","internalType":"string"},{"name":"render3D","type":"bool","internalType":"bool"}]}],"outputs":[{"name":"","type":"string","internalType":"string"},{"name":"","type":"string","internalType":"string"}],"stateMutability":"view"},{"type":"function","name":"getBodyZMap","inputs":[{"name":"_tokenId","type":"uint256","internalType":"uint256"}],"outputs":[{"name":"","type":"string","internalType":"string"}],"stateMutability":"view"},{"type":"function","name":"getChonk","inputs":[{"name":"_tokenId","type":"uint256","internalType":"uint256"}],"outputs":[{"name":"","type":"tuple","internalType":"struct IChonkStorage.StoredChonk","components":[{"name":"headId","type":"uint256","internalType":"uint256"},{"name":"hairId","type":"uint256","internalType":"uint256"},{"name":"faceId","type":"uint256","internalType":"uint256"},{"name":"accessoryId","type":"uint256","internalType":"uint256"},{"name":"topId","type":"uint256","internalType":"uint256"},{"name":"bottomId","type":"uint256","internalType":"uint256"},{"name":"shoesId","type":"uint256","internalType":"uint256"},{"name":"epoch","type":"uint32","internalType":"uint32"},{"name":"tokenId","type":"uint256","internalType":"uint256"},{"name":"bodyIndex","type":"uint8","internalType":"uint8"},{"name":"backgroundColor","type":"string","internalType":"string"},{"name":"render3D","type":"bool","internalType":"bool"}]}],"stateMutability":"view"},{"type":"function","name":"getChonkIdForTBAAddress","inputs":[{"name":"_tbaAddress","type":"address","internalType":"address"}],"outputs":[{"name":"","type":"uint256","internalType":"uint256"}],"stateMutability":"view"},{"type":"function","name":"getChonkIdToApprovedOperators","inputs":[{"name":"_chonkId","type":"uint256","internalType":"uint256"}],"outputs":[{"name":"","type":"address[]","internalType":"address[]"}],"stateMutability":"view"},{"type":"function","name":"getChonkZMap","inputs":[{"name":"_tokenId","type":"uint256","internalType":"uint256"}],"outputs":[{"name":"","type":"string","internalType":"string"}],"stateMutability":"view"},{"type":"function","name":"getFullPictureForTrait","inputs":[{"name":"_chonkTraitTokenId","type":"uint256","internalType":"uint256"}],"outputs":[{"name":"traitOwnerTBA","type":"address","internalType":"address"},{"name":"chonkTokenId","type":"uint256","internalType":"uint256"},{"name":"chonkOwner","type":"address","internalType":"address"},{"name":"isEquipped","type":"bool","internalType":"bool"}],"stateMutability":"view"},{"type":"function","name":"getOwnerAndTBAAddressForChonkId","inputs":[{"name":"_chonkId","type":"uint256","internalType":"uint256"}],"outputs":[{"name":"owner","type":"address","internalType":"address"},{"name":"tbaAddress","type":"address","internalType":"address"}],"stateMutability":"view"},{"type":"function","name":"getTBAAddressForChonkId","inputs":[{"name":"_chonkId","type":"uint256","internalType":"uint256"}],"outputs":[{"name":"","type":"address","internalType":"address"}],"stateMutability":"view"},{"type":"function","name":"getTokenRenderZ","inputs":[{"name":"_chonkTokenId","type":"uint256","internalType":"uint256"}],"outputs":[{"name":"","type":"bool","internalType":"bool"}],"stateMutability":"view"},{"type":"function","name":"getTraitsForChonkId","inputs":[{"name":"_chonkId","type":"uint256","internalType":"uint256"}],"outputs":[{"name":"traitTokens","type":"uint256[]","internalType":"uint256[]"}],"stateMutability":"view"},{"type":"function","name":"isApprovedForAll","inputs":[{"name":"owner","type":"address","internalType":"address"},{"name":"operator","type":"address","internalType":"address"}],"outputs":[{"name":"","type":"bool","internalType":"bool"}],"stateMutability":"view"},{"type":"function","name":"isTimelocked","inputs":[],"outputs":[{"name":"","type":"bool","internalType":"bool"}],"stateMutability":"view"},{"type":"function","name":"mainRenderer2D","inputs":[],"outputs":[{"name":"","type":"address","internalType":"contract MainRenderer2D"}],"stateMutability":"view"},{"type":"function","name":"mainRenderer3D","inputs":[],"outputs":[{"name":"","type":"address","internalType":"contract MainRenderer3D"}],"stateMutability":"view"},{"type":"function","name":"marketplace","inputs":[],"outputs":[{"name":"","type":"address","internalType":"contract ChonksMarket"}],"stateMutability":"view"},{"type":"function","name":"maxTraitsToOutput","inputs":[],"outputs":[{"name":"","type":"uint256","internalType":"uint256"}],"stateMutability":"view"},{"type":"function","name":"mint","inputs":[{"name":"_amount","type":"uint256","internalType":"uint256"},{"name":"_merkleProof","type":"bytes32[]","internalType":"bytes32[]"}],"outputs":[],"stateMutability":"payable"},{"type":"function","name":"mintStartTime","inputs":[],"outputs":[{"name":"","type":"uint256","internalType":"uint256"}],"stateMutability":"view"},{"type":"function","name":"name","inputs":[],"outputs":[{"name":"","type":"string","internalType":"string"}],"stateMutability":"view"},{"type":"function","name":"oneYearFromDeployment","inputs":[],"outputs":[{"name":"","type":"uint256","internalType":"uint256"}],"stateMutability":"view"},{"type":"function","name":"owner","inputs":[],"outputs":[{"name":"result","type":"address","internalType":"address"}],"stateMutability":"view"},{"type":"function","name":"ownerOf","inputs":[{"name":"tokenId","type":"uint256","internalType":"uint256"}],"outputs":[{"name":"","type":"address","internalType":"address"}],"stateMutability":"view"},{"type":"function","name":"ownershipHandoverExpiresAt","inputs":[{"name":"pendingOwner","type":"address","internalType":"address"}],"outputs":[{"name":"result","type":"uint256","internalType":"uint256"}],"stateMutability":"view"},{"type":"function","name":"price","inputs":[],"outputs":[{"name":"","type":"uint256","internalType":"uint256"}],"stateMutability":"view"},{"type":"function","name":"renderAsDataUri","inputs":[{"name":"_tokenId","type":"uint256","internalType":"uint256"}],"outputs":[{"name":"","type":"string","internalType":"string"}],"stateMutability":"view"},{"type":"function","name":"renderAsDataUri2D","inputs":[{"name":"_tokenId","type":"uint256","internalType":"uint256"}],"outputs":[{"name":"","type":"string","internalType":"string"}],"stateMutability":"view"},{"type":"function","name":"renderAsDataUri3D","inputs":[{"name":"_tokenId","type":"uint256","internalType":"uint256"}],"outputs":[{"name":"","type":"string","internalType":"string"}],"stateMutability":"view"},{"type":"function","name":"renounceOwnership","inputs":[],"outputs":[],"stateMutability":"payable"},{"type":"function","name":"requestOwnershipHandover","inputs":[],"outputs":[],"stateMutability":"payable"},{"type":"function","name":"safeTransferFrom","inputs":[{"name":"from","type":"address","internalType":"address"},{"name":"to","type":"address","internalType":"address"},{"name":"tokenId","type":"uint256","internalType":"uint256"}],"outputs":[],"stateMutability":"nonpayable"},{"type":"function","name":"safeTransferFrom","inputs":[{"name":"from","type":"address","internalType":"address"},{"name":"to","type":"address","internalType":"address"},{"name":"tokenId","type":"uint256","internalType":"uint256"},{"name":"data","type":"bytes","internalType":"bytes"}],"outputs":[],"stateMutability":"nonpayable"},{"type":"function","name":"setApprovalForAll","inputs":[{"name":"_operator","type":"address","internalType":"address"},{"name":"_approved","type":"bool","internalType":"bool"}],"outputs":[],"stateMutability":"nonpayable"},{"type":"function","name":"setApprovalForAllChonksMarketplace","inputs":[{"name":"_chonkId","type":"uint256","internalType":"uint256"},{"name":"_operator","type":"address","internalType":"address"},{"name":"_approved","type":"bool","internalType":"bool"}],"outputs":[],"stateMutability":"nonpayable"},{"type":"function","name":"setBackgroundColor","inputs":[{"name":"_chonkTokenId","type":"uint256","internalType":"uint256"},{"name":"_color","type":"string","internalType":"string"}],"outputs":[],"stateMutability":"nonpayable"},{"type":"function","name":"setBodyIndex","inputs":[{"name":"_chonkTokenId","type":"uint256","internalType":"uint256"},{"name":"_bodyIndex","type":"uint8","internalType":"uint8"}],"outputs":[],"stateMutability":"nonpayable"},{"type":"function","name":"setCollectionsMerkle","inputs":[{"name":"_merkleRoot","type":"bytes32","internalType":"bytes32"}],"outputs":[],"stateMutability":"nonpayable"},{"type":"function","name":"setCreatorsMerkle","inputs":[{"name":"_merkleRoot","type":"bytes32","internalType":"bytes32"}],"outputs":[],"stateMutability":"nonpayable"},{"type":"function","name":"setFirstReleaseDataMinter","inputs":[{"name":"_dataContract","type":"address","internalType":"address"}],"outputs":[],"stateMutability":"nonpayable"},{"type":"function","name":"setFriendsMerkleRoot","inputs":[{"name":"_merkleRoot","type":"bytes32","internalType":"bytes32"}],"outputs":[],"stateMutability":"nonpayable"},{"type":"function","name":"setMainRenderer2D","inputs":[{"name":"_mainRenderer2D","type":"address","internalType":"address"}],"outputs":[],"stateMutability":"nonpayable"},{"type":"function","name":"setMainRenderer3D","inputs":[{"name":"_mainRenderer3D","type":"address","internalType":"address"}],"outputs":[],"stateMutability":"nonpayable"},{"type":"function","name":"setMarketplace","inputs":[{"name":"_marketplace","type":"address","internalType":"address"}],"outputs":[],"stateMutability":"nonpayable"},{"type":"function","name":"setMaxTraitsToOutput","inputs":[{"name":"_maxTraitsToOutput","type":"uint256","internalType":"uint256"}],"outputs":[],"stateMutability":"nonpayable"},{"type":"function","name":"setMintStartTime","inputs":[{"name":"_mintStartTime","type":"uint256","internalType":"uint256"}],"outputs":[],"stateMutability":"nonpayable"},{"type":"function","name":"setPrice","inputs":[{"name":"_priceInWei","type":"uint256","internalType":"uint256"}],"outputs":[],"stateMutability":"nonpayable"},{"type":"function","name":"setTokenRender3D","inputs":[{"name":"_chonkTokenId","type":"uint256","internalType":"uint256"},{"name":"_render3D","type":"bool","internalType":"bool"}],"outputs":[],"stateMutability":"nonpayable"},{"type":"function","name":"setTraitsContract","inputs":[{"name":"_address","type":"address","internalType":"contract ChonkTraits"}],"outputs":[],"stateMutability":"nonpayable"},{"type":"function","name":"setWithdrawAddress","inputs":[{"name":"_withdrawAddress","type":"address","internalType":"address"}],"outputs":[],"stateMutability":"nonpayable"},{"type":"function","name":"supportsInterface","inputs":[{"name":"interfaceId","type":"bytes4","internalType":"bytes4"}],"outputs":[{"name":"","type":"bool","internalType":"bool"}],"stateMutability":"view"},{"type":"function","name":"symbol","inputs":[],"outputs":[{"name":"","type":"string","internalType":"string"}],"stateMutability":"view"},{"type":"function","name":"tbaAddressToTokenId","inputs":[{"name":"","type":"address","internalType":"address"}],"outputs":[{"name":"","type":"uint256","internalType":"uint256"}],"stateMutability":"view"},{"type":"function","name":"teamMint","inputs":[{"name":"_to","type":"address","internalType":"address"},{"name":"_amount","type":"uint256","internalType":"uint256"},{"name":"_traitCount","type":"uint8","internalType":"uint8"}],"outputs":[],"stateMutability":"nonpayable"},{"type":"function","name":"teamReserve","inputs":[],"outputs":[],"stateMutability":"nonpayable"},{"type":"function","name":"tokenByIndex","inputs":[{"name":"index","type":"uint256","internalType":"uint256"}],"outputs":[{"name":"","type":"uint256","internalType":"uint256"}],"stateMutability":"view"},{"type":"function","name":"tokenIdToTBAAccountAddress","inputs":[{"name":"","type":"uint256","internalType":"uint256"}],"outputs":[{"name":"","type":"address","internalType":"address"}],"stateMutability":"view"},{"type":"function","name":"tokenOfOwnerByIndex","inputs":[{"name":"owner","type":"address","internalType":"address"},{"name":"index","type":"uint256","internalType":"uint256"}],"outputs":[{"name":"","type":"uint256","internalType":"uint256"}],"stateMutability":"view"},{"type":"function","name":"tokenURI","inputs":[{"name":"_tokenId","type":"uint256","internalType":"uint256"}],"outputs":[{"name":"","type":"string","internalType":"string"}],"stateMutability":"view"},{"type":"function","name":"totalSupply","inputs":[],"outputs":[{"name":"","type":"uint256","internalType":"uint256"}],"stateMutability":"view"},{"type":"function","name":"traitsContract","inputs":[],"outputs":[{"name":"","type":"address","internalType":"contract ChonkTraits"}],"stateMutability":"view"},{"type":"function","name":"transferFrom","inputs":[{"name":"from","type":"address","internalType":"address"},{"name":"to","type":"address","internalType":"address"},{"name":"tokenId","type":"uint256","internalType":"uint256"}],"outputs":[],"stateMutability":"nonpayable"},{"type":"function","name":"transferOwnership","inputs":[{"name":"newOwner","type":"address","internalType":"address"}],"outputs":[],"stateMutability":"payable"},{"type":"function","name":"unequip","inputs":[{"name":"_chonkTokenId","type":"uint256","internalType":"uint256"},{"name":"traitType","type":"uint8","internalType":"enum TraitCategory.Name"}],"outputs":[],"stateMutability":"nonpayable"},{"type":"function","name":"unequipAll","inputs":[{"name":"_chonkTokenId","type":"uint256","internalType":"uint256"}],"outputs":[],"stateMutability":"nonpayable"},{"type":"function","name":"walletOfOwner","inputs":[{"name":"_owner","type":"address","internalType":"address"}],"outputs":[{"name":"","type":"uint256[]","internalType":"uint256[]"}],"stateMutability":"view"},{"type":"function","name":"withdraw","inputs":[],"outputs":[],"stateMutability":"nonpayable"},{"type":"function","name":"withdrawAddress","inputs":[],"outputs":[{"name":"","type":"address","internalType":"address"}],"stateMutability":"view"},{"type":"event","name":"Approval","inputs":[{"name":"owner","type":"address","indexed":true,"internalType":"address"},{"name":"approved","type":"address","indexed":true,"internalType":"address"},{"name":"tokenId","type":"uint256","indexed":true,"internalType":"uint256"}],"anonymous":false},{"type":"event","name":"ApprovalForAll","inputs":[{"name":"owner","type":"address","indexed":true,"internalType":"address"},{"name":"operator","type":"address","indexed":true,"internalType":"address"},{"name":"approved","type":"bool","indexed":false,"internalType":"bool"}],"anonymous":false},{"type":"event","name":"BackgroundColor","inputs":[{"name":"owner","type":"address","indexed":true,"internalType":"address"},{"name":"tokenId","type":"uint256","indexed":true,"internalType":"uint256"},{"name":"color","type":"string","indexed":false,"internalType":"string"}],"anonymous":false},{"type":"event","name":"BatchMetadataUpdate","inputs":[{"name":"_fromTokenId","type":"uint256","indexed":false,"internalType":"uint256"},{"name":"_toTokenId","type":"uint256","indexed":false,"internalType":"uint256"}],"anonymous":false},{"type":"event","name":"BodyIndex","inputs":[{"name":"owner","type":"address","indexed":true,"internalType":"address"},{"name":"tokenId","type":"uint256","indexed":true,"internalType":"uint256"},{"name":"_bodyIndex","type":"uint8","indexed":false,"internalType":"uint8"}],"anonymous":false},{"type":"event","name":"Equip","inputs":[{"name":"owner","type":"address","indexed":true,"internalType":"address"},{"name":"tokenId","type":"uint256","indexed":true,"internalType":"uint256"},{"name":"traitTokenId","type":"uint256","indexed":true,"internalType":"uint256"},{"name":"traitCategory","type":"uint8","indexed":false,"internalType":"uint8"}],"anonymous":false},{"type":"event","name":"EquipAll","inputs":[{"name":"owner","type":"address","indexed":true,"internalType":"address"},{"name":"tokenId","type":"uint256","indexed":true,"internalType":"uint256"}],"anonymous":false},{"type":"event","name":"MetadataUpdate","inputs":[{"name":"_tokenId","type":"uint256","indexed":false,"internalType":"uint256"}],"anonymous":false},{"type":"event","name":"Mint","inputs":[{"name":"owner","type":"address","indexed":true,"internalType":"address"},{"name":"tokenId","type":"uint256","indexed":true,"internalType":"uint256"}],"anonymous":false},{"type":"event","name":"OwnershipHandoverCanceled","inputs":[{"name":"pendingOwner","type":"address","indexed":true,"internalType":"address"}],"anonymous":false},{"type":"event","name":"OwnershipHandoverRequested","inputs":[{"name":"pendingOwner","type":"address","indexed":true,"internalType":"address"}],"anonymous":false},{"type":"event","name":"OwnershipTransferred","inputs":[{"name":"oldOwner","type":"address","indexed":true,"internalType":"address"},{"name":"newOwner","type":"address","indexed":true,"internalType":"address"}],"anonymous":false},{"type":"event","name":"Render3D","inputs":[{"name":"owner","type":"address","indexed":true,"internalType":"address"},{"name":"tokenId","type":"uint256","indexed":true,"internalType":"uint256"},{"name":"renderZ","type":"bool","indexed":false,"internalType":"bool"}],"anonymous":false},{"type":"event","name":"Transfer","inputs":[{"name":"from","type":"address","indexed":true,"internalType":"address"},{"name":"to","type":"address","indexed":true,"internalType":"address"},{"name":"tokenId","type":"uint256","indexed":true,"internalType":"uint256"}],"anonymous":false},{"type":"event","name":"Unequip","inputs":[{"name":"owner","type":"address","indexed":true,"internalType":"address"},{"name":"tokenId","type":"uint256","indexed":true,"internalType":"uint256"},{"name":"traitCategory","type":"uint8","indexed":false,"internalType":"uint8"}],"anonymous":false},{"type":"event","name":"UnequipAll","inputs":[{"name":"owner","type":"address","indexed":true,"internalType":"address"},{"name":"tokenId","type":"uint256","indexed":true,"internalType":"uint256"}],"anonymous":false},{"type":"error","name":"AlreadyInitialized","inputs":[]},{"type":"error","name":"BodyAlreadyExists","inputs":[]},{"type":"error","name":"CanOnlyReserveFirstTwo","inputs":[]},{"type":"error","name":"CantTransferDuringMint","inputs":[]},{"type":"error","name":"CantTransferToTBAs","inputs":[]},{"type":"error","name":"ChonkDoesntExist","inputs":[]},{"type":"error","name":"FirstReleaseDataMinterNotSet","inputs":[]},{"type":"error","name":"IncorrectChonkOwner","inputs":[]},{"type":"error","name":"IncorrectTBAOwner","inputs":[]},{"type":"error","name":"IncorrectTraitType","inputs":[]},{"type":"error","name":"InsufficientFunds","inputs":[]},{"type":"error","name":"InvalidBodyIndex","inputs":[]},{"type":"error","name":"InvalidColor","inputs":[]},{"type":"error","name":"InvalidMintAmount","inputs":[]},{"type":"error","name":"InvalidTraitCount","inputs":[]},{"type":"error","name":"MintEnded","inputs":[]},{"type":"error","name":"MintNotStarted","inputs":[]},{"type":"error","name":"MintStartTimeAlreadySet","inputs":[]},{"type":"error","name":"NewOwnerIsZeroAddress","inputs":[]},{"type":"error","name":"NoHandoverRequest","inputs":[]},{"type":"error","name":"Timelocked","inputs":[]},{"type":"error","name":"Unauthorized","inputs":[]},{"type":"error","name":"UseUnequip","inputs":[]},{"type":"error","name":"WithdrawFailed","inputs":[]}],"bytecode":{"object":"0x60a060405260636011553480156200001657600080fd5b506040518060400160405280600681526020016543686f6e6b7360d01b8152506040518060400160405280600681526020016543484f4e4b5360d01b815250816000908162000066919062000175565b50600162000075828262000175565b50506001600a5550620000883362000092565b4260805262000241565b6001600160a01b0316638b78c6d8198190558060007f8be0079c531659141344cd1fd0a4f28419497f9722a3daafe3b4186f6b6457e08180a350565b634e487b7160e01b600052604160045260246000fd5b600181811c90821680620000f957607f821691505b6020821081036200011a57634e487b7160e01b600052602260045260246000fd5b50919050565b601f82111562000170576000816000526020600020601f850160051c810160208610156200014b5750805b601f850160051c820191505b818110156200016c5782815560010162000157565b5050505b505050565b81516001600160401b03811115620001915762000191620000ce565b620001a981620001a28454620000e4565b8462000120565b602080601f831160018114620001e15760008415620001c85750858301515b600019600386901b1c1916600185901b1785556200016c565b600085815260208120601f198616915b828110156200021257888601518255948401946001909101908401620001f1565b5085821015620002315787850151600019600388901b60f8161c191681555b5050505050600190811b01905550565b608051615f8e6200026460003960008181610f3801526130ea0152615f8e6000f3fe6080604052600436106104ca5760003560e01c80638da5cb5b11610276578063bef1dfb71161014f578063e985e9c5116100c1578063f3f8efb911610085578063f3f8efb914610fa0578063f4bec0b614610fc0578063f6a0c93214610fe0578063fc863e6414611016578063fd8b66de1461102c578063fee81cf41461104c57600080fd5b8063e985e9c514610edd578063ecda10f514610f26578063f04e283e14610f5a578063f2361e2314610f6d578063f2fde38b14610f8d57600080fd5b8063d59752eb11610113578063d59752eb14610e32578063d5b3621b14610e47578063d68c4f3214610e67578063dceef0ec14610e87578063e140554014610ea7578063e3d2155514610ec757600080fd5b8063bef1dfb714610d85578063c093afdb14610da5578063c87b56dd14610dc5578063cdb6dd5c14610de5578063d3d6873e14610e0557600080fd5b8063a1d62680116101e8578063b194b6f1116101ac578063b194b6f114610cba578063b45d031614610cda578063b66ef6e314610d12578063b84b160d14610d32578063b88d4fde14610d52578063ba41b0c614610d7257600080fd5b8063a1d6268014610bff578063a22cb46514610c1f578063a23830ae14610c3f578063a4bf9a0014610c6d578063abc8c7af14610c9a57600080fd5b806395d89b411161023a57806395d89b4114610b485780639c05d68d14610b5d5780639eb2660c14610b935780639f6e463714610bb3578063a035b1fe14610bd3578063a153178014610be957600080fd5b80638da5cb5b14610aaa578063916c546b14610ac357806391b7f5ed14610ae357806392012f0814610b03578063931e2e4914610b3257600080fd5b8063438b6300116103a857806367d2afe21161031a5780637e2e6c47116102de5780637e2e6c47146109cb57806380d833f1146109eb5780638200ea5114610a015780638472cbca14610a345780638aa1e4c814610a6a5780638d2a2f1114610a8a57600080fd5b806367d2afe2146109365780636e51665f1461096357806370a0823114610983578063715018a6146109a357806373ad6c2d146109ab57600080fd5b806354d1f13d1161036c57806354d1f13d14610859578063550ab2471461086157806355737f35146108815780635eabd84a146108a15780636352211e146108c157806366704349146108e157600080fd5b8063438b6300146107c15780634a4333a3146107ee5780634a60f6201461080e5780634f6ccce71461082457806350b031461461084457600080fd5b8063256929621161044157806332875aa01161040557806332875aa01461071757806333d3d9bf146107375780633ab1a494146107575780633ccfd60b1461077757806342842e0e1461078c5780634287f14a146107ac57600080fd5b8063256929621461068f57806328257532146106975780632f745c59146106b75780633044825b146106d7578063306c7334146106f757600080fd5b8063095ea7b311610493578063095ea7b3146105c05780630c83f9d7146105e057806314fe8ff4146106105780631581b6001461063057806318160ddd1461065057806323b872dd1461066f57600080fd5b8062179206146104cf57806301ffc9a7146104f157806304003bd01461052657806306fdde0314610566578063081812fc14610588575b600080fd5b3480156104db57600080fd5b506104ef6104ea366004614e4b565b61107f565b005b3480156104fd57600080fd5b5061051161050c366004614e7e565b6110cf565b60405190151581526020015b60405180910390f35b34801561053257600080fd5b50610546610541366004614e9b565b6110e0565b604080516001600160a01b0393841681529290911660208301520161051d565b34801561057257600080fd5b5061057b61110f565b60405161051d9190614f04565b34801561059457600080fd5b506105a86105a3366004614e9b565b6111a1565b6040516001600160a01b03909116815260200161051d565b3480156105cc57600080fd5b506104ef6105db366004614f17565b6111c8565b3480156105ec57600080fd5b506106006105fb366004614e9b565b611219565b60405161051d9493929190614f43565b34801561061c57600080fd5b5061057b61062b366004614e9b565b6113da565b34801561063c57600080fd5b506013546105a8906001600160a01b031681565b34801561065c57600080fd5b506008545b60405190815260200161051d565b34801561067b57600080fd5b506104ef61068a366004614f8d565b61161e565b6104ef61165d565b3480156106a357600080fd5b506104ef6106b2366004614fce565b6116ac565b3480156106c357600080fd5b506106616106d2366004614f17565b6118a5565b3480156106e357600080fd5b506104ef6106f2366004614e9b565b61193b565b34801561070357600080fd5b5061057b610712366004614e9b565b6119f6565b34801561072357600080fd5b5061057b610732366004614e9b565b611a0e565b34801561074357600080fd5b506104ef610752366004614e9b565b611ac5565b34801561076357600080fd5b506104ef610772366004614e4b565b611ad2565b34801561078357600080fd5b506104ef611afc565b34801561079857600080fd5b506104ef6107a7366004614f8d565b611b7b565b3480156107b857600080fd5b506104ef611b96565b3480156107cd57600080fd5b506107e16107dc366004614e4b565b611bd7565b60405161051d9190614ff0565b3480156107fa57600080fd5b506104ef610809366004615034565b611c6e565b34801561081a57600080fd5b5061066160125481565b34801561083057600080fd5b5061066161083f366004614e9b565b611f9f565b34801561085057600080fd5b50610511612032565b6104ef612043565b34801561086d57600080fd5b506104ef61087c36600461509e565b61207f565b34801561088d57600080fd5b506105a861089c366004614fce565b6120d5565b3480156108ad57600080fd5b506104ef6108bc366004614e4b565b61210d565b3480156108cd57600080fd5b506105a86108dc366004614e9b565b61215d565b3480156108ed57600080fd5b506109016108fc366004614e9b565b6121bd565b60405161051d94939291906001600160a01b039485168152602081019390935292166040820152901515606082015260800190565b34801561094257600080fd5b50610956610951366004614e9b565b61226f565b60405161051d9190615121565b34801561096f57600080fd5b506104ef61097e366004615145565b6122db565b34801561098f57600080fd5b5061066161099e366004614e4b565b61237f565b6104ef612405565b3480156109b757600080fd5b506104ef6109c6366004614e4b565b612417565b3480156109d757600080fd5b506104ef6109e6366004614e4b565b612467565b3480156109f757600080fd5b50610661601a5481565b348015610a0d57600080fd5b50610511610a1c366004614e9b565b6000908152601660205260409020600b015460ff1690565b348015610a4057600080fd5b50610661610a4f366004614e4b565b6001600160a01b031660009081526018602052604090205490565b348015610a7657600080fd5b50610511610a85366004614fce565b6124b7565b348015610a9657600080fd5b506104ef610aa5366004614e9b565b612526565b348015610ab657600080fd5b50638b78c6d819546105a8565b348015610acf57600080fd5b5061057b610ade366004614e9b565b612533565b348015610aef57600080fd5b506104ef610afe366004614e9b565b612636565b348015610b0f57600080fd5b50610b23610b1e36600461527a565b612643565b60405161051d93929190615373565b348015610b3e57600080fd5b5061066160155481565b348015610b5457600080fd5b5061057b612794565b348015610b6957600080fd5b506105a8610b78366004614e9b565b6017602052600090815260409020546001600160a01b031681565b348015610b9f57600080fd5b506104ef610bae366004614e9b565b6127a3565b348015610bbf57600080fd5b506107e1610bce366004614e9b565b6127b0565b348015610bdf57600080fd5b5061066160145481565b348015610bf557600080fd5b50610661601c5481565b348015610c0b57600080fd5b5061057b610c1a366004614e9b565b61283f565b348015610c2b57600080fd5b506104ef610c3a3660046153ac565b61286a565b348015610c4b57600080fd5b50610c5f610c5a36600461527a565b6128e3565b60405161051d9291906153e1565b348015610c7957600080fd5b50610661610c88366004614e4b565b60186020526000908152604090205481565b348015610ca657600080fd5b50600d546105a8906001600160a01b031681565b348015610cc657600080fd5b506104ef610cd5366004614e9b565b612991565b348015610ce657600080fd5b50610cfa610cf5366004614e9b565b61299e565b60405161051d9c9b9a9998979695949392919061540f565b348015610d1e57600080fd5b506010546105a8906001600160a01b031681565b348015610d3e57600080fd5b506104ef610d4d366004614e4b565b612a95565b348015610d5e57600080fd5b506104ef610d6d366004615488565b612ae5565b6104ef610d80366004615516565b612b17565b348015610d9157600080fd5b506104ef610da03660046155b2565b612c8a565b348015610db157600080fd5b50600c546105a8906001600160a01b031681565b348015610dd157600080fd5b5061057b610de0366004614e9b565b612d35565b348015610df157600080fd5b506104ef610e003660046155e2565b612d76565b348015610e1157600080fd5b50610e25610e20366004614e9b565b612f3a565b60405161051d9190615612565b348015610e3e57600080fd5b506106616130e3565b348015610e5357600080fd5b506104ef610e62366004614e9b565b613118565b348015610e7357600080fd5b506104ef610e823660046156c9565b613146565b348015610e9357600080fd5b5061057b610ea2366004614e9b565b61335f565b348015610eb357600080fd5b506104ef610ec236600461570f565b613605565b348015610ed357600080fd5b5061066160115481565b348015610ee957600080fd5b50610511610ef8366004615732565b6001600160a01b03918216600090815260056020908152604080832093909416825291909152205460ff1690565b348015610f3257600080fd5b506106617f000000000000000000000000000000000000000000000000000000000000000081565b6104ef610f68366004614e4b565b6136cd565b348015610f7957600080fd5b506104ef610f88366004615760565b61370a565b6104ef610f9b366004614e4b565b61377d565b348015610fac57600080fd5b5061057b610fbb366004614e9b565b6137a4565b348015610fcc57600080fd5b50600f546105a8906001600160a01b031681565b348015610fec57600080fd5b506105a8610ffb366004614e9b565b6000908152601760205260409020546001600160a01b031690565b34801561102257600080fd5b50610661601b5481565b34801561103857600080fd5b50600e546105a8906001600160a01b031681565b34801561105857600080fd5b50610661611067366004614e4b565b63389a75e1600c908152600091909152602090205490565b611087613a25565b61108f612032565b156110ad5760405163774ae17d60e01b815260040160405180910390fd5b601080546001600160a01b0319166001600160a01b0392909216919091179055565b60006110da82613a40565b92915050565b6000806110ec8361215d565b6000938452601760205260409093205492936001600160a01b0390931692915050565b60606000805461111e906157e5565b80601f016020809104026020016040519081016040528092919081815260200182805461114a906157e5565b80156111975780601f1061116c57610100808354040283529160200191611197565b820191906000526020600020905b81548152906001019060200180831161117a57829003601f168201915b5050505050905090565b60006111ac82613a65565b506000908152600460205260409020546001600160a01b031690565b6111d18161215d565b6001600160a01b0316336001600160a01b031614611201576040516282b42960e81b815260040160405180910390fd5b61120b8183613ac4565b6112158282613b03565b5050565b600b602052600090815260409020805460018201805491929161123b906157e5565b80601f0160208091040260200160405190810160405280929190818152602001828054611267906157e5565b80156112b45780601f10611289576101008083540402835291602001916112b4565b820191906000526020600020905b81548152906001019060200180831161129757829003601f168201915b5050505050908060020180546112c9906157e5565b80601f01602080910402602001604051908101604052809291908181526020018280546112f5906157e5565b80156113425780601f1061131757610100808354040283529160200191611342565b820191906000526020600020905b81548152906001019060200180831161132557829003601f168201915b505050505090806003018054611357906157e5565b80601f0160208091040260200160405190810160405280929190818152602001828054611383906157e5565b80156113d05780601f106113a5576101008083540402835291602001916113d0565b820191906000526020600020905b8154815290600101906020018083116113b357829003601f168201915b5050505050905084565b606060006113e7836127b0565b90506000600c60009054906101000a90046001600160a01b03166001600160a01b0316635c1ef2566040518163ffffffff1660e01b8152600401600060405180830381865afa15801561143e573d6000803e3d6000fd5b505050506040513d6000823e601f3d908101601f191682016040526114669190810190615864565b9050600060115483511061147c5760115461147f565b82515b90506000816001600160401b0381111561149b5761149b61517a565b6040519080825280602002602001820160405280156114ce57816020015b60608152602001906001900390816114b95790505b50905060005b8281101561159557600c5485516001600160a01b039091169063c77915319087908490811061150557611505615898565b60200260200101516040518263ffffffff1660e01b815260040161152b91815260200190565b600060405180830381865afa158015611548573d6000803e3d6000fd5b505050506040513d6000823e601f3d908101601f191682016040526115709190810190615864565b82828151811061158257611582615898565b60209081029190910101526001016114d4565b50600f548451601154604051631719ff8760e11b81526001600160a01b0390931692632e33ff0e926115cf928892879291906004016158ae565b600060405180830381865afa1580156115ec573d6000803e3d6000fd5b505050506040513d6000823e601f3d908101601f191682016040526116149190810190615864565b9695505050505050565b6116283382613b71565b61164d5760405162461bcd60e51b81526004016116449061592f565b60405180910390fd5b611658838383613bef565b505050565b60006202a3006001600160401b03164201905063389a75e1600c5233600052806020600c2055337fdbf36a107da19e49527a7176a1babf963b4b0ff8cde35ee35d6cd8f1f9ac7e1d600080a250565b816116b68161215d565b6001600160a01b0316336001600160a01b0316146116e757604051631431735b60e21b815260040160405180910390fd5b8160000361170857604051630754c7f360e41b815260040160405180910390fd5b60006117148484613d9c565b9050600181600781111561172a5761172a61597d565b036117415760008481526016602052604090208390555b60028160078111156117555761175561597d565b0361176f5760008481526016602052604090206001018390555b60038160078111156117835761178361597d565b0361179d5760008481526016602052604090206002018390555b60048160078111156117b1576117b161597d565b036117cb5760008481526016602052604090206003018390555b60058160078111156117df576117df61597d565b036117f95760008481526016602052604090206004018390555b600681600781111561180d5761180d61597d565b036118275760008481526016602052604090206005018390555b600781600781111561183b5761183b61597d565b036118555760008481526016602052604090206006018390555b82846118608661215d565b6001600160a01b0316600080516020615f3983398151915284600781111561188a5761188a61597d565b60405160ff909116815260200160405180910390a450505050565b60006118b08361237f565b82106119125760405162461bcd60e51b815260206004820152602b60248201527f455243373231456e756d657261626c653a206f776e657220696e646578206f7560448201526a74206f6620626f756e647360a81b6064820152608401611644565b506001600160a01b03919091166000908152600660209081526040808320938352929052205490565b806119458161215d565b6001600160a01b0316336001600160a01b03161461197657604051631431735b60e21b815260040160405180910390fd5b600082815260166020526040812081815560018101829055600281018290556003810182905560048101829055600581018290556006810191909155826119bc8161215d565b6001600160a01b03167f46078a2cd4c69c3b4a27bdc69fdfe03d442ebcf405f1a68e9b5df6bc3e24429760405160405180910390a3505050565b606080611a05610b1e84612f3a565b50949350505050565b600c5460609081906001600160a01b031663bb12d21d611a2d85612f3a565b6040518263ffffffff1660e01b8152600401611a499190615612565b600060405180830381865afa158015611a66573d6000803e3d6000fd5b505050506040513d6000823e601f3d908101601f19168201604052611a8e9190810190615993565b509150611a9c9050836119f6565b81604051602001611aae929190615a1a565b604051602081830303815290604052915050919050565b611acd613a25565b601155565b611ada613a25565b601380546001600160a01b0319166001600160a01b0392909216919091179055565b611b04613a25565b6013546040516000916001600160a01b03169047908381818185875af1925050503d8060008114611b51576040519150601f19603f3d011682016040523d82523d6000602084013e611b56565b606091505b5050905080611b7857604051631d42c86760e21b815260040160405180910390fd5b50565b61165883838360405180602001604052806000815250612ae5565b611b9e613a25565b6002611ba960085490565b1115611bc85760405163155b299760e31b815260040160405180910390fd5b611bd53360026007613e37565b565b60606000611be48361237f565b90506000816001600160401b03811115611c0057611c0061517a565b604051908082528060200260200182016040528015611c29578160200160208202803683370190505b50905060005b82811015611c6657611c4185826118a5565b828281518110611c5357611c53615898565b6020908102919091010152600101611c2f565b509392505050565b87611c788161215d565b6001600160a01b0316336001600160a01b031614611ca957604051631431735b60e21b815260040160405180910390fd5b60008981526016602090815260408083206017909252909120546001600160a01b03168915611d2557611cdc818b6140b9565b611ce78a600161415b565b898255898b611cf58161215d565b6001600160a01b0316600080516020615f39833981519152600160405160ff909116815260200160405180910390a45b8815611d8257611d35818a6140b9565b611d4089600261415b565b60018201899055888b611d528161215d565b6001600160a01b0316600080516020615f39833981519152600260405160ff909116815260200160405180910390a45b8715611ddf57611d9281896140b9565b611d9d88600361415b565b60028201889055878b611daf8161215d565b6001600160a01b0316600080516020615f39833981519152600360405160ff909116815260200160405180910390a45b8615611e3c57611def81886140b9565b611dfa87600461415b565b60038201879055868b611e0c8161215d565b6001600160a01b0316600080516020615f39833981519152600460405160ff909116815260200160405180910390a45b8515611e9957611e4c81876140b9565b611e5786600561415b565b60048201869055858b611e698161215d565b6001600160a01b0316600080516020615f39833981519152600560405160ff909116815260200160405180910390a45b8415611ef657611ea981866140b9565b611eb485600661415b565b60058201859055848b611ec68161215d565b6001600160a01b0316600080516020615f39833981519152600660405160ff909116815260200160405180910390a45b8315611f5357611f0681856140b9565b611f1184600761415b565b60068201849055838b611f238161215d565b6001600160a01b0316600080516020615f39833981519152600760405160ff909116815260200160405180910390a45b8a611f5d8c61215d565b6001600160a01b03167f56680590212b09eb4b72a2eba8801b037ec046dfc754538e924f5bb6a8c4db6c60405160405180910390a35050505050505050505050565b6000611faa60085490565b821061200d5760405162461bcd60e51b815260206004820152602c60248201527f455243373231456e756d657261626c653a20676c6f62616c20696e646578206f60448201526b7574206f6620626f756e647360a01b6064820152608401611644565b6008828154811061202057612020615898565b90600052602060002001549050919050565b600061203c6130e3565b4211905090565b63389a75e1600c523360005260006020600c2055337ffa7b8eab7da67f412cc9575ed43464468f9bfbae89d1675917346ca6d8fe3c92600080a2565b600061208a8461215d565b90506001600160a01b03811633146120b4576040516282b42960e81b815260040160405180910390fd5b81156120c4576120c48484613ac4565b6120cf81848461425d565b50505050565b601960205281600052604060002081815481106120f157600080fd5b6000918252602090912001546001600160a01b03169150829050565b612115613a25565b61211d612032565b1561213b5760405163774ae17d60e01b815260040160405180910390fd5b600c80546001600160a01b0319166001600160a01b0392909216919091179055565b6000818152600260205260408120546001600160a01b0316806110da5760405162461bcd60e51b8152602060048201526018602482015277115490cdcc8c4e881a5b9d985b1a59081d1bdad95b88125160421b6044820152606401611644565b600c546040516331a9108f60e11b8152600481018390526000918291829182916001600160a01b0390911690636352211e90602401602060405180830381865afa15801561220f573d6000803e3d6000fd5b505050506040513d601f19601f820116820180604052508101906122339190615a49565b6001600160a01b038116600090815260186020526040902054909450925061225a8361215d565b915061226683866124b7565b90509193509193565b6000818152601960209081526040918290208054835181840281018401909452808452606093928301828280156122cf57602002820191906000526020600020905b81546001600160a01b031681526001909101906020018083116122b1575b50505050509050919050565b6122e3613a25565b60048160ff1610806122f8575060078160ff16115b1561231657604051632258debf60e01b815260040160405180910390fd5b6015541580612326575060155442105b1561234457604051630314872760e11b815260040160405180910390fd5b6015546123549062016da0615a7c565b4211156123745760405163124212e560e21b815260040160405180910390fd5b611658838383613e37565b60006001600160a01b0382166123e95760405162461bcd60e51b815260206004820152602960248201527f4552433732313a2061646472657373207a65726f206973206e6f7420612076616044820152683634b21037bbb732b960b91b6064820152608401611644565b506001600160a01b031660009081526003602052604090205490565b61240d613a25565b611bd56000614323565b61241f613a25565b612427612032565b156124455760405163774ae17d60e01b815260040160405180910390fd5b600d80546001600160a01b0319166001600160a01b0392909216919091179055565b61246f613a25565b612477612032565b156124955760405163774ae17d60e01b815260040160405180910390fd5b600f80546001600160a01b0319166001600160a01b0392909216919091179055565b6000806124c384612f3a565b80519091508314806124d85750828160200151145b806124e65750828160400151145b806124f45750828160600151145b806125025750828160800151145b806125105750828160a00151145b8061251e5750828160c00151145b949350505050565b61252e613a25565b601a55565b600f546000828152600b602052604080822090516371bed9e160e11b81526060936001600160a01b03169163e37db3c2916125749160020190600401615b0c565b600060405180830381865afa158015612591573d6000803e3d6000fd5b505050506040513d6000823e601f3d908101601f191682016040526125b99190810190615864565b600f546040516335b07b7960e11b81529192506001600160a01b031690636b60f6f2906125ea908490600401614f04565b600060405180830381865afa158015612607573d6000803e3d6000fd5b505050506040513d6000823e601f3d908101601f1916820160405261262f9190810190615864565b9392505050565b61263e613a25565b601455565b606080606061265984610120015160ff16612533565b6101208501805160ff9081166000908152600b6020526040808220600f5494519093168252908190209051630d88d4ff60e01b81526003909201926001600160a01b031691630d88d4ff916126b691600190910190600401615b1f565b600060405180830381865afa1580156126d3573d6000803e3d6000fd5b505050506040513d6000823e601f3d908101601f191682016040526126fb9190810190615864565b818054612707906157e5565b80601f0160208091040260200160405190810160405280929190818152602001828054612733906157e5565b80156127805780601f1061275557610100808354040283529160200191612780565b820191906000526020600020905b81548152906001019060200180831161276357829003601f168201915b505050505091509250925092509193909250565b60606001805461111e906157e5565b6127ab613a25565b601b55565b600081815260176020526040812054606091906001600160a01b0316600c5460405162438b6360e81b81526001600160a01b03808416600483015292935091169063438b630090602401600060405180830381865afa158015612817573d6000803e3d6000fd5b505050506040513d6000823e601f3d908101601f1916820160405261262f9190810190615b52565b606061284a82612f3a565b61016001516128615761285c826137a4565b6110da565b6110da8261335f565b80156128d857600061287b33611bd7565b9050805160000361289e576040516282b42960e81b815260040160405180910390fd5b60005b81518110156128d5576128cd8282815181106128bf576128bf615898565b602002602001015185613ac4565b6001016128a1565b50505b61121533838361425d565b6060806128f783610120015160ff16612533565b600f5461012085015160ff166000908152600b6020526040908190209051630d88d4ff60e01b81526001600160a01b0390921691630d88d4ff9161294391600190910190600401615b1f565b600060405180830381865afa158015612960573d6000803e3d6000fd5b505050506040513d6000823e601f3d908101601f191682016040526129889190810190615864565b91509150915091565b612999613a25565b601c55565b601660205260009081526040902080546001820154600283015460038401546004850154600586015460068701546007880154600889015460098a0154600a8b0180549a9b999a9899979896979596949563ffffffff90941694929360ff90921692612a09906157e5565b80601f0160208091040260200160405190810160405280929190818152602001828054612a35906157e5565b8015612a825780601f10612a5757610100808354040283529160200191612a82565b820191906000526020600020905b815481529060010190602001808311612a6557829003601f168201915b505050600b909301549192505060ff168c565b612a9d613a25565b612aa5612032565b15612ac35760405163774ae17d60e01b815260040160405180910390fd5b600e80546001600160a01b0319166001600160a01b0392909216919091179055565b612aef3383613b71565b612b0b5760405162461bcd60e51b81526004016116449061592f565b6120cf84848484614361565b600e546001600160a01b0316612b405760405163d93186fd60e01b815260040160405180910390fd5b811580612b4d5750600a82115b15612b6b5760405163199f5a0360e31b815260040160405180910390fd5b6015541580612b7b575060155442105b15612b9957604051630314872760e11b815260040160405180910390fd5b601554612ba99062015180615a7c565b421115612bc95760405163124212e560e21b815260040160405180910390fd5b81601454612bd79190615bd7565b3414612bf65760405163356680b760e01b815260040160405180910390fd5b6040516bffffffffffffffffffffffff193360601b166020820152600490600090603401604051602081830303815290604052805190602001209050612c3f83601a5483614394565b15612c4d5760059150612c7f565b612c5a83601b5483614394565b15612c685760069150612c7f565b612c7583601c5483614394565b15612c7f57600791505b6120cf338584613e37565b81612c948161215d565b6001600160a01b0316336001600160a01b031614612cc557604051631431735b60e21b815260040160405180910390fd5b6000838152601660205260409020600b01805460ff191683151517905582612cec8161215d565b6001600160a01b03167f6dd9e2813f787f711671bf91b2e57a72b9b61bc279b934201f3fd29b3b5f8cbe84604051612d28911515815260200190565b60405180910390a3505050565b6000818152600260205260409020546060906001600160a01b0316612d6d57604051636461f73160e01b815260040160405180910390fd5b6110da8261283f565b81612d808161215d565b6001600160a01b0316336001600160a01b031614612db157604051631431735b60e21b815260040160405180910390fd5b6001826007811115612dc557612dc561597d565b03612dda576000838152601660205260408120555b6002826007811115612dee57612dee61597d565b03612e06576000838152601660205260408120600101555b6003826007811115612e1a57612e1a61597d565b03612e32576000838152601660205260408120600201555b6004826007811115612e4657612e4661597d565b03612e5e576000838152601660205260408120600301555b6005826007811115612e7257612e7261597d565b03612e8a576000838152601660205260408120600401555b6006826007811115612e9e57612e9e61597d565b03612eb6576000838152601660205260408120600501555b6007826007811115612eca57612eca61597d565b03612ee2576000838152601660205260408120600601555b82612eec8461215d565b6001600160a01b03167f3d8ac56c725fc7985e9444622a45baee28ba67d8a964045f747b465121f40e71846007811115612f2857612f2861597d565b60405160ff9091168152602001612d28565b612fa960405180610180016040528060008152602001600081526020016000815260200160008152602001600081526020016000815260200160008152602001600063ffffffff16815260200160008152602001600060ff168152602001606081526020016000151581525090565b600082815260166020908152604091829020825161018081018452815481526001820154928101929092526002810154928201929092526003820154606082015260048201546080820152600582015460a0820152600682015460c0820152600782015463ffffffff1660e08201526008820154610100820152600982015460ff16610120820152600a820180549192916101408401919061304a906157e5565b80601f0160208091040260200160405190810160405280929190818152602001828054613076906157e5565b80156130c35780601f10613098576101008083540402835291602001916130c3565b820191906000526020600020905b8154815290600101906020018083116130a657829003601f168201915b5050509183525050600b919091015460ff16151560209091015292915050565b60006131137f00000000000000000000000000000000000000000000000000000000000000006301e13380615a7c565b905090565b613120613a25565b601554156131415760405163703e78e960e11b815260040160405180910390fd5b601555565b816131508161215d565b6001600160a01b0316336001600160a01b03161461318157604051631431735b60e21b815260040160405180910390fd5b815182906006146131a557604051631cf7e9c560e01b815260040160405180910390fd5b60005b60068110156132f257603060f81b8282815181106131c8576131c8615898565b01602001516001600160f81b031916108015906132095750603960f81b8282815181106131f7576131f7615898565b01602001516001600160f81b03191611155b15801561326b5750604160f81b82828151811061322857613228615898565b01602001516001600160f81b031916108015906132695750604660f81b82828151811061325757613257615898565b01602001516001600160f81b03191611155b155b80156132cc5750606160f81b82828151811061328957613289615898565b01602001516001600160f81b031916108015906132ca5750606660f81b8282815181106132b8576132b8615898565b01602001516001600160f81b03191611155b155b156132ea57604051631cf7e9c560e01b815260040160405180910390fd5b6001016131a8565b506000848152601660205260409020600a0161330e8482615c36565b50836133198561215d565b6001600160a01b03167f2e34f8c0f6052b66319b4a5df14eac164c6af8a0b37f612d4304a777e1ae7a3d856040516133519190614f04565b60405180910390a350505050565b60608060608060608060606133956040518060800160405280606081526020016060815260200160608152602001600081525090565b60006133a08a612f3a565b90506133ab81612643565b50600c5460405163bb12d21d60e01b8152929a509097506001600160a01b03169063bb12d21d906133e0908490600401615612565b600060405180830381865afa1580156133fd573d6000803e3d6000fd5b505050506040513d6000823e601f3d908101601f191682016040526134259190810190615993565b60405192995090965093506134409087908790602001615a1a565b60408051601f19818403018152919052610140820151835293506134638a6127b0565b51606083015261012081015160ff166000908152600b60205260409020600101805461348e906157e5565b80601f01602080910402602001604051908101604052809291908181526020018280546134ba906157e5565b80156135075780601f106134dc57610100808354040283529160200191613507565b820191906000526020600020905b8154815290600101906020018083116134ea57829003601f168201915b505050505082602001819052506135308a6000908152601660205260409020600b015460ff1690565b61355457604051806040016040528060028152602001610c9160f21b815250613570565b604051806040016040528060028152602001610cd160f21b8152505b604080840191909152601054905163efcc1e3160e01b81526001600160a01b039091169063efcc1e31906135b2908d908c908c9089908b908a90600401615d54565b600060405180830381865afa1580156135cf573d6000803e3d6000fd5b505050506040513d6000823e601f3d908101601f191682016040526135f79190810190615864565b9a9950505050505050505050565b8161360f8161215d565b6001600160a01b0316336001600160a01b03161461364057604051631431735b60e21b815260040160405180910390fd5b60048260ff161115613665576040516329ba348d60e11b815260040160405180910390fd5b6000838152601660205260409020600901805460ff191660ff84161790558261368d8161215d565b60405160ff851681526001600160a01b0391909116907f454db5768a3f8187a5dd5e9cca100cf699d74d8a03f793d16da3932cdf34d35890602001612d28565b6136d5613a25565b63389a75e1600c52806000526020600c2080544211156136fd57636f5e88186000526004601cfd5b60009055611b7881614323565b613712613a25565b61371a612032565b156137385760405163774ae17d60e01b815260040160405180910390fd5b6000848152600b60205260409020848155600181016137578582615c36565b50600281016137668482615c36565b50600381016137758382615c36565b505050505050565b613785613a25565b8060601b61379b57637448fbae6000526004601cfd5b611b7881614323565b60608060608060606137d76040518060800160405280606081526020016060815260200160608152602001600081525090565b60006137e288612f3a565b90506137ed816128e3565b50600c54604051631be5857160e31b81529197506001600160a01b03169063df2c2b889061381f908490600401615612565b600060405180830381865afa15801561383c573d6000803e3d6000fd5b505050506040513d6000823e601f3d908101601f191682016040526138649190810190615dc8565b9095509350613872886113da565b61014082015183529250613885886127b0565b51606083015261012081015160ff166000908152600b6020526040902060010180546138b0906157e5565b80601f01602080910402602001604051908101604052809291908181526020018280546138dc906157e5565b80156139295780601f106138fe57610100808354040283529160200191613929565b820191906000526020600020905b81548152906001019060200180831161390c57829003601f168201915b50505050508260200181905250613952886000908152601660205260409020600b015460ff1690565b61397657604051806040016040528060028152602001610c9160f21b815250613992565b604051806040016040528060028152602001610cd160f21b8152505b604080840191909152600f5490516307df90cf60e11b81526001600160a01b0390911690630fbf219e906139d4908b908a908a908a908a908a90600401615d54565b600060405180830381865afa1580156139f1573d6000803e3d6000fd5b505050506040513d6000823e601f3d908101601f19168201604052613a199190810190615864565b98975050505050505050565b638b78c6d819543314611bd5576382b429006000526004601cfd5b60006001600160e01b0319821663780e9d6360e01b14806110da57506110da826143aa565b6000818152600260205260409020546001600160a01b0316611b785760405162461bcd60e51b8152602060048201526018602482015277115490cdcc8c4e881a5b9d985b1a59081d1bdad95b88125160421b6044820152606401611644565b600091825260196020908152604083208054600181018255908452922090910180546001600160a01b0319166001600160a01b03909216919091179055565b600081815260046020526040902080546001600160a01b0319166001600160a01b0384169081179091558190613b388261215d565b6001600160a01b03167f8c5be1e5ebec7d5bd14f71427d1e84f3dd0314c0f7b2291e5b200ac8c7c3b92560405160405180910390a45050565b600080613b7d8361215d565b9050806001600160a01b0316846001600160a01b03161480613bc457506001600160a01b0380821660009081526005602090815260408083209388168352929052205460ff165b8061251e5750836001600160a01b0316613bdd846111a1565b6001600160a01b031614949350505050565b826001600160a01b0316613c028261215d565b6001600160a01b031614613c665760405162461bcd60e51b815260206004820152602560248201527f4552433732313a207472616e736665722066726f6d20696e636f72726563742060448201526437bbb732b960d91b6064820152608401611644565b6001600160a01b038216613cc85760405162461bcd60e51b8152602060048201526024808201527f4552433732313a207472616e7366657220746f20746865207a65726f206164646044820152637265737360e01b6064820152608401611644565b613cd38383836143fa565b613cde600082613b03565b6001600160a01b0383166000908152600360205260408120805460019290613d07908490615e21565b90915550506001600160a01b0382166000908152600360205260408120805460019290613d35908490615a7c565b909155505060008181526002602052604080822080546001600160a01b0319166001600160a01b0386811691821790925591518493918716917fddf252ad1be2c89b69c2b068fc378daa952ba7f163c4a11628f55a4df523b3ef91a461165883838361480b565b600082815260176020526040812054613dbe906001600160a01b0316836140b9565b600c5460405163e8a1268d60e01b8152600481018490526001600160a01b039091169063e8a1268d90602401602060405180830381865afa158015613e07573d6000803e3d6000fd5b505050506040513d601f19601f82011682018060405250810190613e2b9190615e34565b90506110da828261415b565b60005b828110156120cf576012805460010190819055613e578582614815565b604051638a54c52f60e01b81527355266d75d1a14e4572138116af39863ed6596e7f600482015260006024820181905262014a34604483015230606483015260848201839052906f6551c19487814612e58fe0681377575890638a54c52f9060a4016020604051808303816000875af1158015613ed8573d6000803e3d6000fd5b505050506040513d601f19601f82011682018060405250810190613efc9190615a49565b600083815260176020908152604080832080546001600160a01b0319166001600160a01b038616908117909155808452601890925291829020859055905163189acdbd60e31b81527341c8f39463a868d3a88af00cd0fe7102f30e44ec60048201529192509063c4d66de890602401600060405180830381600087803b158015613f8557600080fd5b505af1158015613f99573d6000803e3d6000fd5b5050600e546040516358a2727360e01b81526001600160a01b03858116600483015260ff8916602483015290911692506358a2727391506044016000604051808303816000875af1158015613ff2573d6000803e3d6000fd5b505050506040513d6000823e601f3d908101601f1916820160405261401a9190810190615b52565b5060008281526016602090815260409182902060088101859055825191820185905291600591016040516020818303038152906040528051906020012060001c8161406757614067615e51565b60098301805460ff19169290910660ff169190911790556040805180820190915260068152650c110d914e5160d21b6020820152600a8201906140aa9082615c36565b50505050806001019050613e3a565b600c546040516331a9108f60e11b8152600481018390526000916001600160a01b031690636352211e90602401602060405180830381865afa158015614103573d6000803e3d6000fd5b505050506040513d601f19601f820116820180604052508101906141279190615a49565b9050826001600160a01b0316816001600160a01b0316146116585760405163e6ca793160e01b815260040160405180910390fd5b600c5460405163e8a1268d60e01b8152600481018490526000916001600160a01b03169063e8a1268d90602401602060405180830381865afa1580156141a5573d6000803e3d6000fd5b505050506040513d601f19601f820116820180604052508101906141c99190615e34565b90508160078111156141dd576141dd61597d565b6040516020016141ef91815260200190565b604051602081830303815290604052805190602001208160078111156142175761421761597d565b60405160200161422991815260200190565b604051602081830303815290604052805190602001201461165857604051633e54c6fb60e11b815260040160405180910390fd5b816001600160a01b0316836001600160a01b0316036142be5760405162461bcd60e51b815260206004820152601960248201527f4552433732313a20617070726f766520746f2063616c6c6572000000000000006044820152606401611644565b6001600160a01b03838116600081815260056020908152604080832094871680845294825291829020805460ff191686151590811790915591519182527f17307eab39ab6107e8899845ad3d59bd9653f200f220920489ca2b5937696c319101612d28565b638b78c6d81980546001600160a01b039092169182907f8be0079c531659141344cd1fd0a4f28419497f9722a3daafe3b4186f6b6457e0600080a355565b61436c848484613bef565b6143788484848461496b565b6120cf5760405162461bcd60e51b815260040161164490615e67565b6000826143a18584614a6c565b14949350505050565b60006001600160e01b031982166380ac58cd60e01b14806143db57506001600160e01b03198216635b5e139f60e01b145b806110da57506301ffc9a760e01b6001600160e01b03198316146110da565b6001600160a01b03831661441357611658838383614aa7565b6015546144239062015180615a7c565b4210156144435760405163ae735dad60e01b815260040160405180910390fd5b6001600160a01b0382166000908152601860205260409020541561447a57604051639a42da2960e01b815260040160405180910390fd5b6000818152601760205260408120546001600160a01b03169061449c84611bd7565b9050600081516001600160401b038111156144b9576144b961517a565b6040519080825280602002602001820160405280156144e2578160200160208202803683370190505b50905060005b8251811015614563576017600084838151811061450757614507615898565b6020026020010151815260200190815260200160002060009054906101000a90046001600160a01b031682828151811061454357614543615898565b6001600160a01b03909216602092830291909101909101526001016144e8565b50600d5460405163644ec52760e01b8152600481018690526001600160a01b039091169063644ec52790602401600060405180830381600087803b1580156145aa57600080fd5b505af11580156145be573d6000803e3d6000fd5b5050600d54604051631e92beb560e31b8152600481018890526001600160a01b038981166024830152909116925063f495f5a89150604401600060405180830381600087803b15801561461057600080fd5b505af1158015614624573d6000803e3d6000fd5b5050600c5460405162438b6360e81b81526001600160a01b03878116600483015260009450909116915063438b630090602401600060405180830381865afa158015614674573d6000803e3d6000fd5b505050506040513d6000823e601f3d908101601f1916820160405261469c9190810190615b52565b905060005b81518110156147f65760008282815181106146be576146be615898565b6020908102919091010151600d54604051632e1d274f60e01b8152600481018390529192506001600160a01b031690632e1d274f90602401600060405180830381600087803b15801561471057600080fd5b505af1158015614724573d6000803e3d6000fd5b5050600d54604051632333520b60e11b81526001600160a01b039091169250634666a416915061475a9084908890600401615eb9565b600060405180830381600087803b15801561477457600080fd5b505af1158015614788573d6000803e3d6000fd5b5050600c5460405163487b1c2160e11b8152600481018590526001600160a01b0390911692506390f638429150602401600060405180830381600087803b1580156147d257600080fd5b505af11580156147e6573d6000803e3d6000fd5b50505050508060010190506146a1565b50614802878787614aa7565b50505050505050565b6116588184614b5f565b6001600160a01b03821661486b5760405162461bcd60e51b815260206004820181905260248201527f4552433732313a206d696e7420746f20746865207a65726f20616464726573736044820152606401611644565b6000818152600260205260409020546001600160a01b0316156148d05760405162461bcd60e51b815260206004820152601c60248201527f4552433732313a20746f6b656e20616c7265616479206d696e746564000000006044820152606401611644565b6148dc600083836143fa565b6001600160a01b0382166000908152600360205260408120805460019290614905908490615a7c565b909155505060008181526002602052604080822080546001600160a01b0319166001600160a01b03861690811790915590518392907fddf252ad1be2c89b69c2b068fc378daa952ba7f163c4a11628f55a4df523b3ef908290a46112156000838361480b565b60006001600160a01b0384163b15614a6157604051630a85bd0160e11b81526001600160a01b0385169063150b7a02906149af903390899088908890600401615ed2565b6020604051808303816000875af19250505080156149ea575060408051601f3d908101601f191682019092526149e791810190615f05565b60015b614a47573d808015614a18576040519150601f19603f3d011682016040523d82523d6000602084013e614a1d565b606091505b508051600003614a3f5760405162461bcd60e51b815260040161164490615e67565b805181602001fd5b6001600160e01b031916630a85bd0160e11b14905061251e565b506001949350505050565b600081815b8451811015611c6657614a9d82868381518110614a9057614a90615898565b6020026020010151614c48565b9150600101614a71565b6001600160a01b038316614b0257614afd81600880546000838152600960205260408120829055600182018355919091527ff3f7a9fe364faab93b216da50a3214154f22a0a2b415b23a84c8169e8b636ee30155565b614b25565b816001600160a01b0316836001600160a01b031614614b2557614b258382614c74565b6001600160a01b038216614b3c5761165881614d11565b826001600160a01b0316826001600160a01b031614611658576116588282614dc0565b600082815260196020908152604080832080548251818502810185019093528083529192909190830182828015614bbf57602002820191906000526020600020905b81546001600160a01b03168152600190910190602001808311614ba1575b5050506000868152601760205260408120549394506001600160a01b03909316929150505b8251811015614c3057614c1284848381518110614c0357614c03615898565b6020026020010151600061425d565b614c2882848381518110614c0357614c03615898565b600101614be4565b5060008481526019602052604081206120cf91614e04565b6000818310614c6457600082815260208490526040902061262f565b5060009182526020526040902090565b60006001614c818461237f565b614c8b9190615e21565b600083815260076020526040902054909150808214614cde576001600160a01b03841660009081526006602090815260408083208584528252808320548484528184208190558352600790915290208190555b5060009182526007602090815260408084208490556001600160a01b039094168352600681528383209183525290812055565b600854600090614d2390600190615e21565b60008381526009602052604081205460088054939450909284908110614d4b57614d4b615898565b906000526020600020015490508060088381548110614d6c57614d6c615898565b6000918252602080832090910192909255828152600990915260408082208490558582528120556008805480614da457614da4615f22565b6001900381819060005260206000200160009055905550505050565b6000614dcb8361237f565b6001600160a01b039093166000908152600660209081526040808320868452825280832085905593825260079052919091209190915550565b5080546000825590600052602060002090810190611b7891905b80821115614e325760008155600101614e1e565b5090565b6001600160a01b0381168114611b7857600080fd5b600060208284031215614e5d57600080fd5b813561262f81614e36565b6001600160e01b031981168114611b7857600080fd5b600060208284031215614e9057600080fd5b813561262f81614e68565b600060208284031215614ead57600080fd5b5035919050565b60005b83811015614ecf578181015183820152602001614eb7565b50506000910152565b60008151808452614ef0816020860160208601614eb4565b601f01601f19169290920160200192915050565b60208152600061262f6020830184614ed8565b60008060408385031215614f2a57600080fd5b8235614f3581614e36565b946020939093013593505050565b848152608060208201526000614f5c6080830186614ed8565b8281036040840152614f6e8186614ed8565b90508281036060840152614f828185614ed8565b979650505050505050565b600080600060608486031215614fa257600080fd5b8335614fad81614e36565b92506020840135614fbd81614e36565b929592945050506040919091013590565b60008060408385031215614fe157600080fd5b50508035926020909101359150565b6020808252825182820181905260009190848201906040850190845b818110156150285783518352928401929184019160010161500c565b50909695505050505050565b600080600080600080600080610100898b03121561505157600080fd5b505086359860208801359850604088013597606081013597506080810135965060a0810135955060c0810135945060e0013592509050565b8035801515811461509957600080fd5b919050565b6000806000606084860312156150b357600080fd5b8335925060208401356150c581614e36565b91506150d360408501615089565b90509250925092565b60008151808452602080850194506020840160005b838110156151165781516001600160a01b0316875295820195908201906001016150f1565b509495945050505050565b60208152600061262f60208301846150dc565b803560ff8116811461509957600080fd5b60008060006060848603121561515a57600080fd5b833561516581614e36565b9250602084013591506150d360408501615134565b634e487b7160e01b600052604160045260246000fd5b60405161018081016001600160401b03811182821017156151b3576151b361517a565b60405290565b604051601f8201601f191681016001600160401b03811182821017156151e1576151e161517a565b604052919050565b803563ffffffff8116811461509957600080fd5b60006001600160401b038211156152165761521661517a565b50601f01601f191660200190565b600082601f83011261523557600080fd5b8135615248615243826151fd565b6151b9565b81815284602083860101111561525d57600080fd5b816020850160208301376000918101602001919091529392505050565b60006020828403121561528c57600080fd5b81356001600160401b03808211156152a357600080fd5b9083019061018082860312156152b857600080fd5b6152c0615190565b823581526020830135602082015260408301356040820152606083013560608201526080830135608082015260a083013560a082015260c083013560c082015261530c60e084016151e9565b60e0820152610100838101359082015261012061532a818501615134565b90820152610140838101358381111561534257600080fd5b61534e88828701615224565b8284015250506101609150615364828401615089565b91810191909152949350505050565b6060815260006153866060830186614ed8565b82810360208401526153988186614ed8565b905082810360408401526116148185614ed8565b600080604083850312156153bf57600080fd5b82356153ca81614e36565b91506153d860208401615089565b90509250929050565b6040815260006153f46040830185614ed8565b82810360208401526154068185614ed8565b95945050505050565b60006101808e83528d60208401528c60408401528b60608401528a60808401528960a08401528860c084015263ffffffff881660e08401528661010084015260ff86166101208401528061014084015261546b81840186614ed8565b9150508215156101608301529d9c50505050505050505050505050565b6000806000806080858703121561549e57600080fd5b84356154a981614e36565b935060208501356154b981614e36565b92506040850135915060608501356001600160401b038111156154db57600080fd5b6154e787828801615224565b91505092959194509250565b60006001600160401b0382111561550c5761550c61517a565b5060051b60200190565b6000806040838503121561552957600080fd5b823591506020808401356001600160401b0381111561554757600080fd5b8401601f8101861361555857600080fd5b8035615566615243826154f3565b81815260059190911b8201830190838101908883111561558557600080fd5b928401925b828410156155a35783358252928401929084019061558a565b80955050505050509250929050565b600080604083850312156155c557600080fd5b823591506153d860208401615089565b60088110611b7857600080fd5b600080604083850312156155f557600080fd5b823591506020830135615607816155d5565b809150509250929050565b6020815281516020820152602082015160408201526040820151606082015260608201516080820152608082015160a082015260a082015160c082015260c082015160e0820152600060e08301516101006156748185018363ffffffff169052565b8401516101208481019190915284015190506101406156978185018360ff169052565b8085015191505061018061016081818601526156b76101a0860184614ed8565b95015115159301929092525090919050565b600080604083850312156156dc57600080fd5b8235915060208301356001600160401b038111156156f957600080fd5b61570585828601615224565b9150509250929050565b6000806040838503121561572257600080fd5b823591506153d860208401615134565b6000806040838503121561574557600080fd5b823561575081614e36565b9150602083013561560781614e36565b6000806000806080858703121561577657600080fd5b8435935060208501356001600160401b038082111561579457600080fd5b6157a088838901615224565b945060408701359150808211156157b657600080fd5b6157c288838901615224565b935060608701359150808211156157d857600080fd5b506154e787828801615224565b600181811c908216806157f957607f821691505b60208210810361581957634e487b7160e01b600052602260045260246000fd5b50919050565b600082601f83011261583057600080fd5b815161583e615243826151fd565b81815284602083860101111561585357600080fd5b61251e826020830160208701614eb4565b60006020828403121561587657600080fd5b81516001600160401b0381111561588c57600080fd5b61251e8482850161581f565b634e487b7160e01b600052603260045260246000fd5b6080815260006158c16080830187614ed8565b6020838203818501528187518084528284019150828160051b850101838a0160005b8381101561591157601f198784030185526158ff838351614ed8565b948601949250908501906001016158e3565b50506040870198909852505050506060909101919091525092915050565b6020808252602e908201527f4552433732313a2063616c6c6572206973206e6f7420746f6b656e206f776e6560408201526d1c881b9bdc88185c1c1c9bdd995960921b606082015260800190565b634e487b7160e01b600052602160045260246000fd5b6000806000606084860312156159a857600080fd5b83516001600160401b03808211156159bf57600080fd5b6159cb8783880161581f565b945060208601519150808211156159e157600080fd5b6159ed8783880161581f565b93506040860151915080821115615a0357600080fd5b50615a108682870161581f565b9150509250925092565b60008351615a2c818460208801614eb4565b835190830190615a40818360208801614eb4565b01949350505050565b600060208284031215615a5b57600080fd5b815161262f81614e36565b634e487b7160e01b600052601160045260246000fd5b808201808211156110da576110da615a66565b60008154615a9c816157e5565b808552602060018381168015615ab95760018114615ad357615b01565b60ff1985168884015283151560051b880183019550615b01565b866000528260002060005b85811015615af95781548a8201860152908301908401615ade565b890184019650505b505050505092915050565b60208152600061262f6020830184615a8f565b604081526009604082015268426f6479205479706560b81b606082015260806020820152600061262f6080830184615a8f565b60006020808385031215615b6557600080fd5b82516001600160401b03811115615b7b57600080fd5b8301601f81018513615b8c57600080fd5b8051615b9a615243826154f3565b81815260059190911b82018301908381019087831115615bb957600080fd5b928401925b82841015614f8257835182529284019290840190615bbe565b80820281158282048414176110da576110da615a66565b601f821115611658576000816000526020600020601f850160051c81016020861015615c175750805b601f850160051c820191505b8181101561377557828155600101615c23565b81516001600160401b03811115615c4f57615c4f61517a565b615c6381615c5d84546157e5565b84615bee565b602080601f831160018114615c985760008415615c805750858301515b600019600386901b1c1916600185901b178555613775565b600085815260208120601f198616915b82811015615cc757888601518255948401946001909101908401615ca8565b5085821015615ce55787850151600019600388901b60f8161c191681555b5050505050600190811b01905550565b6000815160808452615d0a6080850182614ed8565b905060208301518482036020860152615d238282614ed8565b91505060408301518482036040860152615d3d8282614ed8565b915050606083015160608501528091505092915050565b86815260c060208201526000615d6d60c0830188614ed8565b8281036040840152615d7f8188614ed8565b90508281036060840152615d938187614ed8565b90508281036080840152615da78186614ed8565b905082810360a0840152615dbb8185615cf5565b9998505050505050505050565b60008060408385031215615ddb57600080fd5b82516001600160401b0380821115615df257600080fd5b615dfe8683870161581f565b93506020850151915080821115615e1457600080fd5b506157058582860161581f565b818103818111156110da576110da615a66565b600060208284031215615e4657600080fd5b815161262f816155d5565b634e487b7160e01b600052601260045260246000fd5b60208082526032908201527f4552433732313a207472616e7366657220746f206e6f6e20455243373231526560408201527131b2b4bb32b91034b6b83632b6b2b73a32b960711b606082015260800190565b82815260406020820152600061251e60408301846150dc565b6001600160a01b038581168252841660208201526040810183905260806060820181905260009061161490830184614ed8565b600060208284031215615f1757600080fd5b815161262f81614e68565b634e487b7160e01b600052603160045260246000fdfec94c1c47471ed97c1d309bab965192a3e4be3807f42d015b699bfbdcf24dd9f6a264697066735822122012b74cf37bf514cbdac303148850df08de4c7aed02d8c8600d70cc74597966ac64736f6c63430008160033","linkReferences":{}},"methodIdentifiers":{"_nextTokenId()":"4a60f620","addNewBody(uint256,string,bytes,bytes)":"f2361e23","approve(address,uint256)":"095ea7b3","balanceOf(address)":"70a08231","bodyIndexToMetadata(uint256)":"0c83f9d7","cancelOwnershipHandover()":"54d1f13d","checkIfTraitIsEquipped(uint256,uint256)":"8aa1e4c8","chonkIdToApprovedOperators(uint256,uint256)":"55737f35","chonkTokens(uint256)":"b45d0316","collectionsMerkle()":"80d833f1","completeOwnershipHandover(address)":"f04e283e","creatorsMerkle()":"a1531780","deploymentTime()":"ecda10f5","equip(uint256,uint256)":"28257532","equipAll(uint256,uint256,uint256,uint256,uint256,uint256,uint256,uint256)":"4a4333a3","firstReleaseDataMinter()":"fd8b66de","friendsMerkle()":"fc863e64","getApproved(uint256)":"081812fc","getBackpackSVGs(uint256)":"14fe8ff4","getBodyImageSvg(uint256)":"916c546b","getBodySVGZmapsAndMetadata((uint256,uint256,uint256,uint256,uint256,uint256,uint256,uint32,uint256,uint8,string,bool))":"92012f08","getBodySvgAndMetadata((uint256,uint256,uint256,uint256,uint256,uint256,uint256,uint32,uint256,uint8,string,bool))":"a23830ae","getBodyZMap(uint256)":"306c7334","getChonk(uint256)":"d3d6873e","getChonkIdForTBAAddress(address)":"8472cbca","getChonkIdToApprovedOperators(uint256)":"67d2afe2","getChonkZMap(uint256)":"32875aa0","getFullPictureForTrait(uint256)":"66704349","getOwnerAndTBAAddressForChonkId(uint256)":"04003bd0","getTBAAddressForChonkId(uint256)":"f6a0c932","getTokenRenderZ(uint256)":"8200ea51","getTraitsForChonkId(uint256)":"9f6e4637","isApprovedForAll(address,address)":"e985e9c5","isTimelocked()":"50b03146","mainRenderer2D()":"f4bec0b6","mainRenderer3D()":"b66ef6e3","marketplace()":"abc8c7af","maxTraitsToOutput()":"e3d21555","mint(uint256,bytes32[])":"ba41b0c6","mintStartTime()":"931e2e49","name()":"06fdde03","oneYearFromDeployment()":"d59752eb","owner()":"8da5cb5b","ownerOf(uint256)":"6352211e","ownershipHandoverExpiresAt(address)":"fee81cf4","price()":"a035b1fe","renderAsDataUri(uint256)":"a1d62680","renderAsDataUri2D(uint256)":"f3f8efb9","renderAsDataUri3D(uint256)":"dceef0ec","renounceOwnership()":"715018a6","requestOwnershipHandover()":"25692962","safeTransferFrom(address,address,uint256)":"42842e0e","safeTransferFrom(address,address,uint256,bytes)":"b88d4fde","setApprovalForAll(address,bool)":"a22cb465","setApprovalForAllChonksMarketplace(uint256,address,bool)":"550ab247","setBackgroundColor(uint256,string)":"d68c4f32","setBodyIndex(uint256,uint8)":"e1405540","setCollectionsMerkle(bytes32)":"8d2a2f11","setCreatorsMerkle(bytes32)":"b194b6f1","setFirstReleaseDataMinter(address)":"b84b160d","setFriendsMerkleRoot(bytes32)":"9eb2660c","setMainRenderer2D(address)":"7e2e6c47","setMainRenderer3D(address)":"00179206","setMarketplace(address)":"73ad6c2d","setMaxTraitsToOutput(uint256)":"33d3d9bf","setMintStartTime(uint256)":"d5b3621b","setPrice(uint256)":"91b7f5ed","setTokenRender3D(uint256,bool)":"bef1dfb7","setTraitsContract(address)":"5eabd84a","setWithdrawAddress(address)":"3ab1a494","supportsInterface(bytes4)":"01ffc9a7","symbol()":"95d89b41","tbaAddressToTokenId(address)":"a4bf9a00","teamMint(address,uint256,uint8)":"6e51665f","teamReserve()":"4287f14a","tokenByIndex(uint256)":"4f6ccce7","tokenIdToTBAAccountAddress(uint256)":"9c05d68d","tokenOfOwnerByIndex(address,uint256)":"2f745c59","tokenURI(uint256)":"c87b56dd","totalSupply()":"18160ddd","traitsContract()":"c093afdb","transferFrom(address,address,uint256)":"23b872dd","transferOwnership(address)":"f2fde38b","unequip(uint256,uint8)":"cdb6dd5c","unequipAll(uint256)":"3044825b","walletOfOwner(address)":"438b6300","withdraw()":"3ccfd60b","withdrawAddress()":"1581b600"},"id":42}