{"abi":[{"type":"constructor","inputs":[{"name":"localDeploy_","type":"bool","internalType":"bool"}],"stateMutability":"nonpayable"},{"type":"function","name":"_nextTokenId","inputs":[],"outputs":[{"name":"","type":"uint256","internalType":"uint256"}],"stateMutability":"view"},{"type":"function","name":"addNewBody","inputs":[{"name":"_bodyIndex","type":"uint256","internalType":"uint256"},{"name":"_bodyName","type":"string","internalType":"string"},{"name":"_colorMap","type":"bytes","internalType":"bytes"},{"name":"_zMap","type":"bytes","internalType":"bytes"}],"outputs":[],"stateMutability":"nonpayable"},{"type":"function","name":"approve","inputs":[{"name":"_operator","type":"address","internalType":"address"},{"name":"_chonkId","type":"uint256","internalType":"uint256"}],"outputs":[],"stateMutability":"nonpayable"},{"type":"function","name":"balanceOf","inputs":[{"name":"owner","type":"address","internalType":"address"}],"outputs":[{"name":"","type":"uint256","internalType":"uint256"}],"stateMutability":"view"},{"type":"function","name":"bodyIndexToMetadata","inputs":[{"name":"","type":"uint256","internalType":"uint256"}],"outputs":[{"name":"bodyIndex","type":"uint256","internalType":"uint256"},{"name":"bodyName","type":"string","internalType":"string"},{"name":"colorMap","type":"bytes","internalType":"bytes"},{"name":"zMap","type":"bytes","internalType":"bytes"}],"stateMutability":"view"},{"type":"function","name":"cancelOwnershipHandover","inputs":[],"outputs":[],"stateMutability":"payable"},{"type":"function","name":"checkIfTraitIsEquipped","inputs":[{"name":"_chonkId","type":"uint256","internalType":"uint256"},{"name":"_traitId","type":"uint256","internalType":"uint256"}],"outputs":[{"name":"","type":"bool","internalType":"bool"}],"stateMutability":"view"},{"type":"function","name":"chonkIdToApprovedOperators","inputs":[{"name":"chonkId","type":"uint256","internalType":"uint256"},{"name":"","type":"uint256","internalType":"uint256"}],"outputs":[{"name":"operators","type":"address","internalType":"address"}],"stateMutability":"view"},{"type":"function","name":"chonkMakeover","inputs":[{"name":"_chonkTokenId","type":"uint256","internalType":"uint256"},{"name":"_headTokenId","type":"uint256","internalType":"uint256"},{"name":"_hairTokenId","type":"uint256","internalType":"uint256"},{"name":"_faceTokenId","type":"uint256","internalType":"uint256"},{"name":"_accessoryTokenId","type":"uint256","internalType":"uint256"},{"name":"_topTokenId","type":"uint256","internalType":"uint256"},{"name":"_bottomTokenId","type":"uint256","internalType":"uint256"},{"name":"_shoesTokenId","type":"uint256","internalType":"uint256"},{"name":"_bodyIndex","type":"uint8","internalType":"uint8"},{"name":"_backgroundColor","type":"string","internalType":"string"}],"outputs":[],"stateMutability":"nonpayable"},{"type":"function","name":"chonkTokens","inputs":[{"name":"tokenID","type":"uint256","internalType":"uint256"}],"outputs":[{"name":"headId","type":"uint256","internalType":"uint256"},{"name":"hairId","type":"uint256","internalType":"uint256"},{"name":"faceId","type":"uint256","internalType":"uint256"},{"name":"accessoryId","type":"uint256","internalType":"uint256"},{"name":"topId","type":"uint256","internalType":"uint256"},{"name":"bottomId","type":"uint256","internalType":"uint256"},{"name":"shoesId","type":"uint256","internalType":"uint256"},{"name":"epoch","type":"uint32","internalType":"uint32"},{"name":"tokenId","type":"uint256","internalType":"uint256"},{"name":"bodyIndex","type":"uint8","internalType":"uint8"},{"name":"backgroundColor","type":"string","internalType":"string"},{"name":"render3D","type":"bool","internalType":"bool"}],"stateMutability":"view"},{"type":"function","name":"chonksCreatorListMerkleRoot","inputs":[],"outputs":[{"name":"","type":"bytes32","internalType":"bytes32"}],"stateMutability":"view"},{"type":"function","name":"completeOwnershipHandover","inputs":[{"name":"pendingOwner","type":"address","internalType":"address"}],"outputs":[],"stateMutability":"payable"},{"type":"function","name":"deploymentTime","inputs":[],"outputs":[{"name":"","type":"uint256","internalType":"uint256"}],"stateMutability":"view"},{"type":"function","name":"equip","inputs":[{"name":"_chonkTokenId","type":"uint256","internalType":"uint256"},{"name":"_traitTokenId","type":"uint256","internalType":"uint256"}],"outputs":[],"stateMutability":"nonpayable"},{"type":"function","name":"equipAll","inputs":[{"name":"_chonkTokenId","type":"uint256","internalType":"uint256"},{"name":"_headTokenId","type":"uint256","internalType":"uint256"},{"name":"_hairTokenId","type":"uint256","internalType":"uint256"},{"name":"_faceTokenId","type":"uint256","internalType":"uint256"},{"name":"_accessoryTokenId","type":"uint256","internalType":"uint256"},{"name":"_topTokenId","type":"uint256","internalType":"uint256"},{"name":"_bottomTokenId","type":"uint256","internalType":"uint256"},{"name":"_shoesTokenId","type":"uint256","internalType":"uint256"}],"outputs":[],"stateMutability":"nonpayable"},{"type":"function","name":"firstSeasonRenderMinter","inputs":[],"outputs":[{"name":"","type":"address","internalType":"contract FirstSeasonRenderMinter"}],"stateMutability":"view"},{"type":"function","name":"friendsListMerkleRoot","inputs":[],"outputs":[{"name":"","type":"bytes32","internalType":"bytes32"}],"stateMutability":"view"},{"type":"function","name":"getApproved","inputs":[{"name":"tokenId","type":"uint256","internalType":"uint256"}],"outputs":[{"name":"","type":"address","internalType":"address"}],"stateMutability":"view"},{"type":"function","name":"getBackpackSVGs","inputs":[{"name":"_tokenId","type":"uint256","internalType":"uint256"}],"outputs":[{"name":"","type":"string","internalType":"string"}],"stateMutability":"view"},{"type":"function","name":"getBodyImageSvg","inputs":[{"name":"_index","type":"uint256","internalType":"uint256"}],"outputs":[{"name":"svg","type":"string","internalType":"string"}],"stateMutability":"view"},{"type":"function","name":"getBodySVGZmapsAndMetadata","inputs":[{"name":"storedChonk","type":"tuple","internalType":"struct IChonkStorage.StoredChonk","components":[{"name":"headId","type":"uint256","internalType":"uint256"},{"name":"hairId","type":"uint256","internalType":"uint256"},{"name":"faceId","type":"uint256","internalType":"uint256"},{"name":"accessoryId","type":"uint256","internalType":"uint256"},{"name":"topId","type":"uint256","internalType":"uint256"},{"name":"bottomId","type":"uint256","internalType":"uint256"},{"name":"shoesId","type":"uint256","internalType":"uint256"},{"name":"epoch","type":"uint32","internalType":"uint32"},{"name":"tokenId","type":"uint256","internalType":"uint256"},{"name":"bodyIndex","type":"uint8","internalType":"uint8"},{"name":"backgroundColor","type":"string","internalType":"string"},{"name":"render3D","type":"bool","internalType":"bool"}]}],"outputs":[{"name":"","type":"string","internalType":"string"},{"name":"","type":"bytes","internalType":"bytes"},{"name":"","type":"string","internalType":"string"}],"stateMutability":"view"},{"type":"function","name":"getBodySvgAndMetadata","inputs":[{"name":"storedChonk","type":"tuple","internalType":"struct IChonkStorage.StoredChonk","components":[{"name":"headId","type":"uint256","internalType":"uint256"},{"name":"hairId","type":"uint256","internalType":"uint256"},{"name":"faceId","type":"uint256","internalType":"uint256"},{"name":"accessoryId","type":"uint256","internalType":"uint256"},{"name":"topId","type":"uint256","internalType":"uint256"},{"name":"bottomId","type":"uint256","internalType":"uint256"},{"name":"shoesId","type":"uint256","internalType":"uint256"},{"name":"epoch","type":"uint32","internalType":"uint32"},{"name":"tokenId","type":"uint256","internalType":"uint256"},{"name":"bodyIndex","type":"uint8","internalType":"uint8"},{"name":"backgroundColor","type":"string","internalType":"string"},{"name":"render3D","type":"bool","internalType":"bool"}]}],"outputs":[{"name":"","type":"string","internalType":"string"},{"name":"","type":"string","internalType":"string"}],"stateMutability":"view"},{"type":"function","name":"getBodyZMap","inputs":[{"name":"_tokenId","type":"uint256","internalType":"uint256"}],"outputs":[{"name":"","type":"string","internalType":"string"}],"stateMutability":"view"},{"type":"function","name":"getChonk","inputs":[{"name":"_tokenId","type":"uint256","internalType":"uint256"}],"outputs":[{"name":"","type":"tuple","internalType":"struct IChonkStorage.StoredChonk","components":[{"name":"headId","type":"uint256","internalType":"uint256"},{"name":"hairId","type":"uint256","internalType":"uint256"},{"name":"faceId","type":"uint256","internalType":"uint256"},{"name":"accessoryId","type":"uint256","internalType":"uint256"},{"name":"topId","type":"uint256","internalType":"uint256"},{"name":"bottomId","type":"uint256","internalType":"uint256"},{"name":"shoesId","type":"uint256","internalType":"uint256"},{"name":"epoch","type":"uint32","internalType":"uint32"},{"name":"tokenId","type":"uint256","internalType":"uint256"},{"name":"bodyIndex","type":"uint8","internalType":"uint8"},{"name":"backgroundColor","type":"string","internalType":"string"},{"name":"render3D","type":"bool","internalType":"bool"}]}],"stateMutability":"view"},{"type":"function","name":"getChonkIdForTBAAddress","inputs":[{"name":"_tbaAddress","type":"address","internalType":"address"}],"outputs":[{"name":"","type":"uint256","internalType":"uint256"}],"stateMutability":"view"},{"type":"function","name":"getChonkIdToApprovedOperators","inputs":[{"name":"_chonkId","type":"uint256","internalType":"uint256"}],"outputs":[{"name":"","type":"address[]","internalType":"address[]"}],"stateMutability":"view"},{"type":"function","name":"getChonkZMap","inputs":[{"name":"_tokenId","type":"uint256","internalType":"uint256"}],"outputs":[{"name":"","type":"string","internalType":"string"}],"stateMutability":"view"},{"type":"function","name":"getFullPictureForTrait","inputs":[{"name":"_chonkTraitTokenId","type":"uint256","internalType":"uint256"}],"outputs":[{"name":"traitOwnerTBA","type":"address","internalType":"address"},{"name":"chonkTokenId","type":"uint256","internalType":"uint256"},{"name":"chonkOwner","type":"address","internalType":"address"},{"name":"isEquipped","type":"bool","internalType":"bool"}],"stateMutability":"view"},{"type":"function","name":"getOwnerAndTBAAddressForChonkId","inputs":[{"name":"_chonkId","type":"uint256","internalType":"uint256"}],"outputs":[{"name":"owner","type":"address","internalType":"address"},{"name":"tbaAddress","type":"address","internalType":"address"}],"stateMutability":"view"},{"type":"function","name":"getTBAAddressForChonkId","inputs":[{"name":"_chonkId","type":"uint256","internalType":"uint256"}],"outputs":[{"name":"","type":"address","internalType":"address"}],"stateMutability":"view"},{"type":"function","name":"getTokenRenderZ","inputs":[{"name":"_chonkTokenId","type":"uint256","internalType":"uint256"}],"outputs":[{"name":"","type":"bool","internalType":"bool"}],"stateMutability":"view"},{"type":"function","name":"getTraitsForChonkId","inputs":[{"name":"_chonkId","type":"uint256","internalType":"uint256"}],"outputs":[{"name":"traitTokens","type":"uint256[]","internalType":"uint256[]"}],"stateMutability":"view"},{"type":"function","name":"isApprovedForAll","inputs":[{"name":"owner","type":"address","internalType":"address"},{"name":"operator","type":"address","internalType":"address"}],"outputs":[{"name":"","type":"bool","internalType":"bool"}],"stateMutability":"view"},{"type":"function","name":"isTimelocked","inputs":[],"outputs":[{"name":"","type":"bool","internalType":"bool"}],"stateMutability":"view"},{"type":"function","name":"mainRenderer2D","inputs":[],"outputs":[{"name":"","type":"address","internalType":"contract MainRenderer2D"}],"stateMutability":"view"},{"type":"function","name":"mainRenderer3D","inputs":[],"outputs":[{"name":"","type":"address","internalType":"contract MainRenderer3D"}],"stateMutability":"view"},{"type":"function","name":"marketplace","inputs":[],"outputs":[{"name":"","type":"address","internalType":"contract ChonksMarket"}],"stateMutability":"view"},{"type":"function","name":"maxTraitsToOutput","inputs":[],"outputs":[{"name":"","type":"uint256","internalType":"uint256"}],"stateMutability":"view"},{"type":"function","name":"mint","inputs":[{"name":"_amount","type":"uint256","internalType":"uint256"},{"name":"_merkleProof","type":"bytes32[]","internalType":"bytes32[]"}],"outputs":[],"stateMutability":"payable"},{"type":"function","name":"mintStartTime","inputs":[],"outputs":[{"name":"","type":"uint256","internalType":"uint256"}],"stateMutability":"view"},{"type":"function","name":"name","inputs":[],"outputs":[{"name":"","type":"string","internalType":"string"}],"stateMutability":"view"},{"type":"function","name":"oneYearFromDeployment","inputs":[],"outputs":[{"name":"","type":"uint256","internalType":"uint256"}],"stateMutability":"view"},{"type":"function","name":"owner","inputs":[],"outputs":[{"name":"result","type":"address","internalType":"address"}],"stateMutability":"view"},{"type":"function","name":"ownerOf","inputs":[{"name":"tokenId","type":"uint256","internalType":"uint256"}],"outputs":[{"name":"","type":"address","internalType":"address"}],"stateMutability":"view"},{"type":"function","name":"ownershipHandoverExpiresAt","inputs":[{"name":"pendingOwner","type":"address","internalType":"address"}],"outputs":[{"name":"result","type":"uint256","internalType":"uint256"}],"stateMutability":"view"},{"type":"function","name":"price","inputs":[],"outputs":[{"name":"","type":"uint256","internalType":"uint256"}],"stateMutability":"view"},{"type":"function","name":"renderAsDataUri","inputs":[{"name":"_tokenId","type":"uint256","internalType":"uint256"}],"outputs":[{"name":"","type":"string","internalType":"string"}],"stateMutability":"view"},{"type":"function","name":"renderAsDataUri2D","inputs":[{"name":"_tokenId","type":"uint256","internalType":"uint256"}],"outputs":[{"name":"","type":"string","internalType":"string"}],"stateMutability":"view"},{"type":"function","name":"renderAsDataUri3D","inputs":[{"name":"_tokenId","type":"uint256","internalType":"uint256"}],"outputs":[{"name":"","type":"string","internalType":"string"}],"stateMutability":"view"},{"type":"function","name":"renounceOwnership","inputs":[],"outputs":[],"stateMutability":"payable"},{"type":"function","name":"requestOwnershipHandover","inputs":[],"outputs":[],"stateMutability":"payable"},{"type":"function","name":"safeTransferFrom","inputs":[{"name":"from","type":"address","internalType":"address"},{"name":"to","type":"address","internalType":"address"},{"name":"tokenId","type":"uint256","internalType":"uint256"}],"outputs":[],"stateMutability":"nonpayable"},{"type":"function","name":"safeTransferFrom","inputs":[{"name":"from","type":"address","internalType":"address"},{"name":"to","type":"address","internalType":"address"},{"name":"tokenId","type":"uint256","internalType":"uint256"},{"name":"data","type":"bytes","internalType":"bytes"}],"outputs":[],"stateMutability":"nonpayable"},{"type":"function","name":"setApprovalForAll","inputs":[{"name":"_operator","type":"address","internalType":"address"},{"name":"_approved","type":"bool","internalType":"bool"}],"outputs":[],"stateMutability":"nonpayable"},{"type":"function","name":"setApprovalForAllChonksMarketplace","inputs":[{"name":"_chonkId","type":"uint256","internalType":"uint256"},{"name":"_operator","type":"address","internalType":"address"},{"name":"_approved","type":"bool","internalType":"bool"}],"outputs":[],"stateMutability":"nonpayable"},{"type":"function","name":"setBackgroundColor","inputs":[{"name":"_chonkTokenId","type":"uint256","internalType":"uint256"},{"name":"_color","type":"string","internalType":"string"}],"outputs":[],"stateMutability":"nonpayable"},{"type":"function","name":"setBodyIndex","inputs":[{"name":"_chonkTokenId","type":"uint256","internalType":"uint256"},{"name":"_bodyIndex","type":"uint8","internalType":"uint8"}],"outputs":[],"stateMutability":"nonpayable"},{"type":"function","name":"setChonksCreatorListMerkleRoot","inputs":[{"name":"_merkleRoot","type":"bytes32","internalType":"bytes32"}],"outputs":[],"stateMutability":"nonpayable"},{"type":"function","name":"setFirstSeasonRenderMinter","inputs":[{"name":"_dataContract","type":"address","internalType":"address"}],"outputs":[],"stateMutability":"nonpayable"},{"type":"function","name":"setFriendsListMerkleRoot","inputs":[{"name":"_merkleRoot","type":"bytes32","internalType":"bytes32"}],"outputs":[],"stateMutability":"nonpayable"},{"type":"function","name":"setMainRenderer2D","inputs":[{"name":"_mainRenderer2D","type":"address","internalType":"address"}],"outputs":[],"stateMutability":"nonpayable"},{"type":"function","name":"setMainRenderer3D","inputs":[{"name":"_mainRenderer3D","type":"address","internalType":"address"}],"outputs":[],"stateMutability":"nonpayable"},{"type":"function","name":"setMarketplace","inputs":[{"name":"_marketplace","type":"address","internalType":"address"}],"outputs":[],"stateMutability":"nonpayable"},{"type":"function","name":"setMaxTraitsToOutput","inputs":[{"name":"_maxTraitsToOutput","type":"uint256","internalType":"uint256"}],"outputs":[],"stateMutability":"nonpayable"},{"type":"function","name":"setMintStartTime","inputs":[{"name":"_mintStartTime","type":"uint256","internalType":"uint256"}],"outputs":[],"stateMutability":"nonpayable"},{"type":"function","name":"setPrice","inputs":[{"name":"_priceInWei","type":"uint256","internalType":"uint256"}],"outputs":[],"stateMutability":"nonpayable"},{"type":"function","name":"setSpecialCollectionMerkleRoot","inputs":[{"name":"_merkleRoot","type":"bytes32","internalType":"bytes32"}],"outputs":[],"stateMutability":"nonpayable"},{"type":"function","name":"setTokenRender3D","inputs":[{"name":"_chonkTokenId","type":"uint256","internalType":"uint256"},{"name":"_render3D","type":"bool","internalType":"bool"}],"outputs":[],"stateMutability":"nonpayable"},{"type":"function","name":"setTraitsContract","inputs":[{"name":"_address","type":"address","internalType":"contract ChonkTraits"}],"outputs":[],"stateMutability":"nonpayable"},{"type":"function","name":"setWithdrawAddress","inputs":[{"name":"_withdrawAddress","type":"address","internalType":"address"}],"outputs":[],"stateMutability":"nonpayable"},{"type":"function","name":"specialCollectionMerkleRoot","inputs":[],"outputs":[{"name":"","type":"bytes32","internalType":"bytes32"}],"stateMutability":"view"},{"type":"function","name":"supportsInterface","inputs":[{"name":"interfaceId","type":"bytes4","internalType":"bytes4"}],"outputs":[{"name":"","type":"bool","internalType":"bool"}],"stateMutability":"view"},{"type":"function","name":"symbol","inputs":[],"outputs":[{"name":"","type":"string","internalType":"string"}],"stateMutability":"view"},{"type":"function","name":"tbaAddressToTokenId","inputs":[{"name":"","type":"address","internalType":"address"}],"outputs":[{"name":"","type":"uint256","internalType":"uint256"}],"stateMutability":"view"},{"type":"function","name":"teamMint","inputs":[{"name":"_to","type":"address","internalType":"address"},{"name":"_amount","type":"uint256","internalType":"uint256"},{"name":"_traitCount","type":"uint8","internalType":"uint8"}],"outputs":[],"stateMutability":"nonpayable"},{"type":"function","name":"teamReserve","inputs":[],"outputs":[],"stateMutability":"nonpayable"},{"type":"function","name":"tokenByIndex","inputs":[{"name":"index","type":"uint256","internalType":"uint256"}],"outputs":[{"name":"","type":"uint256","internalType":"uint256"}],"stateMutability":"view"},{"type":"function","name":"tokenIdToTBAAccountAddress","inputs":[{"name":"","type":"uint256","internalType":"uint256"}],"outputs":[{"name":"","type":"address","internalType":"address"}],"stateMutability":"view"},{"type":"function","name":"tokenOfOwnerByIndex","inputs":[{"name":"owner","type":"address","internalType":"address"},{"name":"index","type":"uint256","internalType":"uint256"}],"outputs":[{"name":"","type":"uint256","internalType":"uint256"}],"stateMutability":"view"},{"type":"function","name":"tokenURI","inputs":[{"name":"_tokenId","type":"uint256","internalType":"uint256"}],"outputs":[{"name":"","type":"string","internalType":"string"}],"stateMutability":"view"},{"type":"function","name":"totalSupply","inputs":[],"outputs":[{"name":"","type":"uint256","internalType":"uint256"}],"stateMutability":"view"},{"type":"function","name":"traitsContract","inputs":[],"outputs":[{"name":"","type":"address","internalType":"contract ChonkTraits"}],"stateMutability":"view"},{"type":"function","name":"transferFrom","inputs":[{"name":"from","type":"address","internalType":"address"},{"name":"to","type":"address","internalType":"address"},{"name":"tokenId","type":"uint256","internalType":"uint256"}],"outputs":[],"stateMutability":"nonpayable"},{"type":"function","name":"transferOwnership","inputs":[{"name":"newOwner","type":"address","internalType":"address"}],"outputs":[],"stateMutability":"payable"},{"type":"function","name":"unequip","inputs":[{"name":"_chonkTokenId","type":"uint256","internalType":"uint256"},{"name":"traitType","type":"uint8","internalType":"enum TraitCategory.Name"}],"outputs":[],"stateMutability":"nonpayable"},{"type":"function","name":"unequipAll","inputs":[{"name":"_chonkTokenId","type":"uint256","internalType":"uint256"}],"outputs":[],"stateMutability":"nonpayable"},{"type":"function","name":"walletOfOwner","inputs":[{"name":"_owner","type":"address","internalType":"address"}],"outputs":[{"name":"","type":"uint256[]","internalType":"uint256[]"}],"stateMutability":"view"},{"type":"function","name":"withdraw","inputs":[],"outputs":[],"stateMutability":"nonpayable"},{"type":"function","name":"withdrawAddress","inputs":[],"outputs":[{"name":"","type":"address","internalType":"address"}],"stateMutability":"view"},{"type":"event","name":"Approval","inputs":[{"name":"owner","type":"address","indexed":true,"internalType":"address"},{"name":"approved","type":"address","indexed":true,"internalType":"address"},{"name":"tokenId","type":"uint256","indexed":true,"internalType":"uint256"}],"anonymous":false},{"type":"event","name":"ApprovalForAll","inputs":[{"name":"owner","type":"address","indexed":true,"internalType":"address"},{"name":"operator","type":"address","indexed":true,"internalType":"address"},{"name":"approved","type":"bool","indexed":false,"internalType":"bool"}],"anonymous":false},{"type":"event","name":"BackgroundColor","inputs":[{"name":"owner","type":"address","indexed":true,"internalType":"address"},{"name":"tokenId","type":"uint256","indexed":true,"internalType":"uint256"},{"name":"color","type":"string","indexed":false,"internalType":"string"}],"anonymous":false},{"type":"event","name":"BatchMetadataUpdate","inputs":[{"name":"_fromTokenId","type":"uint256","indexed":false,"internalType":"uint256"},{"name":"_toTokenId","type":"uint256","indexed":false,"internalType":"uint256"}],"anonymous":false},{"type":"event","name":"BodyIndex","inputs":[{"name":"owner","type":"address","indexed":true,"internalType":"address"},{"name":"tokenId","type":"uint256","indexed":true,"internalType":"uint256"},{"name":"_bodyIndex","type":"uint8","indexed":false,"internalType":"uint8"}],"anonymous":false},{"type":"event","name":"Equip","inputs":[{"name":"owner","type":"address","indexed":true,"internalType":"address"},{"name":"tokenId","type":"uint256","indexed":true,"internalType":"uint256"},{"name":"traitTokenId","type":"uint256","indexed":true,"internalType":"uint256"},{"name":"traitCategory","type":"uint8","indexed":false,"internalType":"uint8"}],"anonymous":false},{"type":"event","name":"EquipAll","inputs":[{"name":"owner","type":"address","indexed":true,"internalType":"address"},{"name":"tokenId","type":"uint256","indexed":true,"internalType":"uint256"}],"anonymous":false},{"type":"event","name":"MetadataUpdate","inputs":[{"name":"_tokenId","type":"uint256","indexed":false,"internalType":"uint256"}],"anonymous":false},{"type":"event","name":"Mint","inputs":[{"name":"owner","type":"address","indexed":true,"internalType":"address"},{"name":"tokenId","type":"uint256","indexed":true,"internalType":"uint256"}],"anonymous":false},{"type":"event","name":"OwnershipHandoverCanceled","inputs":[{"name":"pendingOwner","type":"address","indexed":true,"internalType":"address"}],"anonymous":false},{"type":"event","name":"OwnershipHandoverRequested","inputs":[{"name":"pendingOwner","type":"address","indexed":true,"internalType":"address"}],"anonymous":false},{"type":"event","name":"OwnershipTransferred","inputs":[{"name":"oldOwner","type":"address","indexed":true,"internalType":"address"},{"name":"newOwner","type":"address","indexed":true,"internalType":"address"}],"anonymous":false},{"type":"event","name":"Render3D","inputs":[{"name":"owner","type":"address","indexed":true,"internalType":"address"},{"name":"tokenId","type":"uint256","indexed":true,"internalType":"uint256"},{"name":"renderZ","type":"bool","indexed":false,"internalType":"bool"}],"anonymous":false},{"type":"event","name":"Transfer","inputs":[{"name":"from","type":"address","indexed":true,"internalType":"address"},{"name":"to","type":"address","indexed":true,"internalType":"address"},{"name":"tokenId","type":"uint256","indexed":true,"internalType":"uint256"}],"anonymous":false},{"type":"event","name":"Unequip","inputs":[{"name":"owner","type":"address","indexed":true,"internalType":"address"},{"name":"tokenId","type":"uint256","indexed":true,"internalType":"uint256"},{"name":"traitCategory","type":"uint8","indexed":false,"internalType":"uint8"}],"anonymous":false},{"type":"event","name":"UnequipAll","inputs":[{"name":"owner","type":"address","indexed":true,"internalType":"address"},{"name":"tokenId","type":"uint256","indexed":true,"internalType":"uint256"}],"anonymous":false},{"type":"error","name":"AlreadyInitialized","inputs":[]},{"type":"error","name":"BodyAlreadyExists","inputs":[]},{"type":"error","name":"CanOnlyReserveFirstTwo","inputs":[]},{"type":"error","name":"CantBeZero","inputs":[]},{"type":"error","name":"CantTransferToTBAs","inputs":[]},{"type":"error","name":"ChonkDoesntExist","inputs":[]},{"type":"error","name":"FirstSeasonRenderMinterNotSet","inputs":[]},{"type":"error","name":"IncorrectChonkOwner","inputs":[]},{"type":"error","name":"IncorrectTBAOwner","inputs":[]},{"type":"error","name":"IncorrectTraitType","inputs":[]},{"type":"error","name":"InsufficientFunds","inputs":[]},{"type":"error","name":"InvalidBodyIndex","inputs":[]},{"type":"error","name":"InvalidColor","inputs":[]},{"type":"error","name":"InvalidTraitCount","inputs":[]},{"type":"error","name":"MintEnded","inputs":[]},{"type":"error","name":"MintNotStarted","inputs":[]},{"type":"error","name":"MintStartTimeAlreadySet","inputs":[]},{"type":"error","name":"NewOwnerIsZeroAddress","inputs":[]},{"type":"error","name":"NoHandoverRequest","inputs":[]},{"type":"error","name":"TenIsMaxMint","inputs":[]},{"type":"error","name":"Timelocked","inputs":[]},{"type":"error","name":"Unauthorized","inputs":[]},{"type":"error","name":"UseUnequip","inputs":[]},{"type":"error","name":"WithdrawFailed","inputs":[]}],"bytecode":{"object":"0x60a060405260636011553480156200001657600080fd5b5060405162006423380380620064238339810160408190526200003991620000f1565b6040518060400160405280600681526020016543686f6e6b7360d01b8152506040518060400160405280600681526020016543484f4e4b5360d01b8152508160009081620000889190620001c3565b506001620000978282620001c3565b50506001600a5550620000aa33620000b5565b50426080526200028f565b6001600160a01b0316638b78c6d8198190558060007f8be0079c531659141344cd1fd0a4f28419497f9722a3daafe3b4186f6b6457e08180a350565b6000602082840312156200010457600080fd5b815180151581146200011557600080fd5b9392505050565b634e487b7160e01b600052604160045260246000fd5b600181811c908216806200014757607f821691505b6020821081036200016857634e487b7160e01b600052602260045260246000fd5b50919050565b601f821115620001be576000816000526020600020601f850160051c81016020861015620001995750805b601f850160051c820191505b81811015620001ba57828155600101620001a5565b5050505b505050565b81516001600160401b03811115620001df57620001df6200011c565b620001f781620001f0845462000132565b846200016e565b602080601f8311600181146200022f5760008415620002165750858301515b600019600386901b1c1916600185901b178555620001ba565b600085815260208120601f198616915b8281101562000260578886015182559484019460019091019084016200023f565b50858210156200027f5787850151600019600388901b60f8161c191681555b5050505050600190811b01905550565b608051616171620002b260003960008181610f99015261319101526161716000f3fe6080604052600436106104d55760003560e01c80638200ea5111610281578063ba41b0c61161015a578063e1405540116100cc578063f2361e2311610085578063f2361e2314610fce578063f2fde38b14610fee578063f3f8efb914611001578063f4bec0b614611021578063f6a0c93214611041578063fee81cf41461107757600080fd5b8063e140554014610ee8578063e29babbb14610f08578063e3d2155514610f28578063e985e9c514610f3e578063ecda10f514610f87578063f04e283e14610fbb57600080fd5b8063d3d6873e1161011e578063d3d6873e14610e30578063d59752eb14610e5d578063d5b3621b14610e72578063d68c4f3214610e92578063dceef0ec14610eb2578063deab1d3614610ed257600080fd5b8063ba41b0c614610d9d578063bef1dfb714610db0578063c093afdb14610dd0578063c87b56dd14610df0578063cdb6dd5c14610e1057600080fd5b80639f6e4637116101f3578063a4bf9a00116101b7578063a4bf9a0014610cb8578063abc8c7af14610ce5578063b45d031614610d05578063b66ef6e314610d3d578063b88d4fde14610d5d578063b99ce71f14610d7d57600080fd5b80639f6e463714610c14578063a035b1fe14610c34578063a1d6268014610c4a578063a22cb46514610c6a578063a23830ae14610c8a57600080fd5b8063916c546b11610245578063916c546b14610b4457806391b7f5ed14610b6457806392012f0814610b84578063931e2e4914610bb357806395d89b4114610bc95780639c05d68d14610bde57600080fd5b80638200ea5114610a8c5780638472cbca14610abf5780638aa1e4c814610af55780638da5cb5b14610b155780638f22475714610b2e57600080fd5b80633ccfd60b116103b357806358a97640116103255780636e51665f116102e95780636e51665f146109ee57806370a0823114610a0e578063715018a614610a2e57806373ad6c2d14610a365780637684ef0d14610a565780637e2e6c4714610a6c57600080fd5b806358a976401461090c5780635eabd84a1461092c5780636352211e1461094c578063667043491461096c57806367d2afe2146109c157600080fd5b80634a60f620116103775780634a60f620146108795780634f6ccce71461088f57806350b03146146108af57806354d1f13d146108c4578063550ab247146108cc57806355737f35146108ec57600080fd5b80633ccfd60b146107e257806342842e0e146107f75780634287f14a14610817578063438b63001461082c5780634a4333a31461085957600080fd5b80631ab375121161044c5780633044825b116104105780633044825b14610722578063306c73341461074257806330f6c5211461076257806332875aa01461078257806333d3d9bf146107a25780633ab1a494146107c257600080fd5b80631ab375121461069a57806323b872dd146106ba57806325692962146106da57806328257532146106e25780632f745c591461070257600080fd5b8063095ea7b31161049e578063095ea7b3146105cb5780630c83f9d7146105eb57806313ea0ae31461061b57806314fe8ff41461063b5780631581b6001461065b57806318160ddd1461067b57600080fd5b8062179206146104da57806301ffc9a7146104fc57806304003bd01461053157806306fdde0314610571578063081812fc14610593575b600080fd5b3480156104e657600080fd5b506104fa6104f5366004614f6d565b6110aa565b005b34801561050857600080fd5b5061051c610517366004614fa0565b6110fa565b60405190151581526020015b60405180910390f35b34801561053d57600080fd5b5061055161054c366004614fbd565b61110b565b604080516001600160a01b03938416815292909116602083015201610528565b34801561057d57600080fd5b5061058661113a565b6040516105289190615026565b34801561059f57600080fd5b506105b36105ae366004614fbd565b6111cc565b6040516001600160a01b039091168152602001610528565b3480156105d757600080fd5b506104fa6105e6366004615039565b6111f3565b3480156105f757600080fd5b5061060b610606366004614fbd565b611244565b6040516105289493929190615065565b34801561062757600080fd5b50600e546105b3906001600160a01b031681565b34801561064757600080fd5b50610586610656366004614fbd565b611405565b34801561066757600080fd5b506013546105b3906001600160a01b031681565b34801561068757600080fd5b506008545b604051908152602001610528565b3480156106a657600080fd5b506104fa6106b5366004614fbd565b611649565b3480156106c657600080fd5b506104fa6106d53660046150af565b611656565b6104fa611695565b3480156106ee57600080fd5b506104fa6106fd3660046150f0565b6116e4565b34801561070e57600080fd5b5061068c61071d366004615039565b6118dd565b34801561072e57600080fd5b506104fa61073d366004614fbd565b611973565b34801561074e57600080fd5b5061058661075d366004614fbd565b611a2e565b34801561076e57600080fd5b506104fa61077d366004615214565b611a46565b34801561078e57600080fd5b5061058661079d366004614fbd565b611ab2565b3480156107ae57600080fd5b506104fa6107bd366004614fbd565b611b69565b3480156107ce57600080fd5b506104fa6107dd366004614f6d565b611b76565b3480156107ee57600080fd5b506104fa611ba0565b34801561080357600080fd5b506104fa6108123660046150af565b611c1f565b34801561082357600080fd5b506104fa611c3a565b34801561083857600080fd5b5061084c610847366004614f6d565b611c7b565b60405161052891906152b0565b34801561086557600080fd5b506104fa6108743660046152f4565b611d12565b34801561088557600080fd5b5061068c60125481565b34801561089b57600080fd5b5061068c6108aa366004614fbd565b612043565b3480156108bb57600080fd5b5061051c6120d6565b6104fa6120e7565b3480156108d857600080fd5b506104fa6108e7366004615359565b612123565b3480156108f857600080fd5b506105b36109073660046150f0565b612179565b34801561091857600080fd5b506104fa610927366004614f6d565b6121b1565b34801561093857600080fd5b506104fa610947366004614f6d565b612201565b34801561095857600080fd5b506105b3610967366004614fbd565b612251565b34801561097857600080fd5b5061098c610987366004614fbd565b6122b1565b60405161052894939291906001600160a01b039485168152602081019390935292166040820152901515606082015260800190565b3480156109cd57600080fd5b506109e16109dc366004614fbd565b612363565b60405161052891906153dc565b3480156109fa57600080fd5b506104fa610a093660046153ef565b6123cf565b348015610a1a57600080fd5b5061068c610a29366004614f6d565b612473565b6104fa6124f9565b348015610a4257600080fd5b506104fa610a51366004614f6d565b61250b565b348015610a6257600080fd5b5061068c601c5481565b348015610a7857600080fd5b506104fa610a87366004614f6d565b61255b565b348015610a9857600080fd5b5061051c610aa7366004614fbd565b6000908152601660205260409020600b015460ff1690565b348015610acb57600080fd5b5061068c610ada366004614f6d565b6001600160a01b031660009081526018602052604090205490565b348015610b0157600080fd5b5061051c610b103660046150f0565b6125ab565b348015610b2157600080fd5b50638b78c6d819546105b3565b348015610b3a57600080fd5b5061068c601b5481565b348015610b5057600080fd5b50610586610b5f366004614fbd565b61261a565b348015610b7057600080fd5b506104fa610b7f366004614fbd565b61271d565b348015610b9057600080fd5b50610ba4610b9f366004615438565b61272a565b60405161052893929190615531565b348015610bbf57600080fd5b5061068c60155481565b348015610bd557600080fd5b5061058661287b565b348015610bea57600080fd5b506105b3610bf9366004614fbd565b6017602052600090815260409020546001600160a01b031681565b348015610c2057600080fd5b5061084c610c2f366004614fbd565b61288a565b348015610c4057600080fd5b5061068c60145481565b348015610c5657600080fd5b50610586610c65366004614fbd565b612919565b348015610c7657600080fd5b506104fa610c8536600461556a565b612949565b348015610c9657600080fd5b50610caa610ca5366004615438565b6129c2565b60405161052892919061559f565b348015610cc457600080fd5b5061068c610cd3366004614f6d565b60186020526000908152604090205481565b348015610cf157600080fd5b50600d546105b3906001600160a01b031681565b348015610d1157600080fd5b50610d25610d20366004614fbd565b612a70565b6040516105289c9b9a999897969594939291906155cd565b348015610d4957600080fd5b506010546105b3906001600160a01b031681565b348015610d6957600080fd5b506104fa610d78366004615646565b612b67565b348015610d8957600080fd5b506104fa610d98366004614fbd565b612b99565b6104fa610dab3660046156d4565b612ba6565b348015610dbc57600080fd5b506104fa610dcb366004615770565b612d31565b348015610ddc57600080fd5b50600c546105b3906001600160a01b031681565b348015610dfc57600080fd5b50610586610e0b366004614fbd565b612ddc565b348015610e1c57600080fd5b506104fa610e2b3660046157a0565b612e1d565b348015610e3c57600080fd5b50610e50610e4b366004614fbd565b612fe1565b60405161052891906157d0565b348015610e6957600080fd5b5061068c61318a565b348015610e7e57600080fd5b506104fa610e8d366004614fbd565b6131bf565b348015610e9e57600080fd5b506104fa610ead366004615887565b6131ed565b348015610ebe57600080fd5b50610586610ecd366004614fbd565b613406565b348015610ede57600080fd5b5061068c601a5481565b348015610ef457600080fd5b506104fa610f033660046158cd565b6136ac565b348015610f1457600080fd5b506104fa610f23366004614fbd565b613774565b348015610f3457600080fd5b5061068c60115481565b348015610f4a57600080fd5b5061051c610f593660046158f0565b6001600160a01b03918216600090815260056020908152604080832093909416825291909152205460ff1690565b348015610f9357600080fd5b5061068c7f000000000000000000000000000000000000000000000000000000000000000081565b6104fa610fc9366004614f6d565b613781565b348015610fda57600080fd5b506104fa610fe936600461591e565b6137be565b6104fa610ffc366004614f6d565b613831565b34801561100d57600080fd5b5061058661101c366004614fbd565b613858565b34801561102d57600080fd5b50600f546105b3906001600160a01b031681565b34801561104d57600080fd5b506105b361105c366004614fbd565b6000908152601760205260409020546001600160a01b031690565b34801561108357600080fd5b5061068c611092366004614f6d565b63389a75e1600c908152600091909152602090205490565b6110b2613ad9565b6110ba6120d6565b156110d85760405163774ae17d60e01b815260040160405180910390fd5b601080546001600160a01b0319166001600160a01b0392909216919091179055565b600061110582613af4565b92915050565b60008061111783612251565b6000938452601760205260409093205492936001600160a01b0390931692915050565b606060008054611149906159a3565b80601f0160208091040260200160405190810160405280929190818152602001828054611175906159a3565b80156111c25780601f10611197576101008083540402835291602001916111c2565b820191906000526020600020905b8154815290600101906020018083116111a557829003601f168201915b5050505050905090565b60006111d782613b19565b506000908152600460205260409020546001600160a01b031690565b6111fc81612251565b6001600160a01b0316336001600160a01b03161461122c576040516282b42960e81b815260040160405180910390fd5b6112368183613b78565b6112408282613bb7565b5050565b600b6020526000908152604090208054600182018054919291611266906159a3565b80601f0160208091040260200160405190810160405280929190818152602001828054611292906159a3565b80156112df5780601f106112b4576101008083540402835291602001916112df565b820191906000526020600020905b8154815290600101906020018083116112c257829003601f168201915b5050505050908060020180546112f4906159a3565b80601f0160208091040260200160405190810160405280929190818152602001828054611320906159a3565b801561136d5780601f106113425761010080835404028352916020019161136d565b820191906000526020600020905b81548152906001019060200180831161135057829003601f168201915b505050505090806003018054611382906159a3565b80601f01602080910402602001604051908101604052809291908181526020018280546113ae906159a3565b80156113fb5780601f106113d0576101008083540402835291602001916113fb565b820191906000526020600020905b8154815290600101906020018083116113de57829003601f168201915b5050505050905084565b606060006114128361288a565b90506000600c60009054906101000a90046001600160a01b03166001600160a01b0316635c1ef2566040518163ffffffff1660e01b8152600401600060405180830381865afa158015611469573d6000803e3d6000fd5b505050506040513d6000823e601f3d908101601f191682016040526114919190810190615a22565b905060006011548351106114a7576011546114aa565b82515b90506000816001600160401b038111156114c6576114c6615128565b6040519080825280602002602001820160405280156114f957816020015b60608152602001906001900390816114e45790505b50905060005b828110156115c057600c5485516001600160a01b039091169063c77915319087908490811061153057611530615a56565b60200260200101516040518263ffffffff1660e01b815260040161155691815260200190565b600060405180830381865afa158015611573573d6000803e3d6000fd5b505050506040513d6000823e601f3d908101601f1916820160405261159b9190810190615a22565b8282815181106115ad576115ad615a56565b60209081029190910101526001016114ff565b50600f548451601154604051631719ff8760e11b81526001600160a01b0390931692632e33ff0e926115fa92889287929190600401615a6c565b600060405180830381865afa158015611617573d6000803e3d6000fd5b505050506040513d6000823e601f3d908101601f1916820160405261163f9190810190615a22565b9695505050505050565b611651613ad9565b601b55565b6116603382613c25565b6116855760405162461bcd60e51b815260040161167c90615aed565b60405180910390fd5b611690838383613ca3565b505050565b60006202a3006001600160401b03164201905063389a75e1600c5233600052806020600c2055337fdbf36a107da19e49527a7176a1babf963b4b0ff8cde35ee35d6cd8f1f9ac7e1d600080a250565b816116ee81612251565b6001600160a01b0316336001600160a01b03161461171f57604051631431735b60e21b815260040160405180910390fd5b8160000361174057604051630754c7f360e41b815260040160405180910390fd5b600061174c8484613e50565b9050600181600781111561176257611762615b3b565b036117795760008481526016602052604090208390555b600281600781111561178d5761178d615b3b565b036117a75760008481526016602052604090206001018390555b60038160078111156117bb576117bb615b3b565b036117d55760008481526016602052604090206002018390555b60048160078111156117e9576117e9615b3b565b036118035760008481526016602052604090206003018390555b600581600781111561181757611817615b3b565b036118315760008481526016602052604090206004018390555b600681600781111561184557611845615b3b565b0361185f5760008481526016602052604090206005018390555b600781600781111561187357611873615b3b565b0361188d5760008481526016602052604090206006018390555b828461189886612251565b6001600160a01b031660008051602061611c8339815191528460078111156118c2576118c2615b3b565b60405160ff909116815260200160405180910390a450505050565b60006118e883612473565b821061194a5760405162461bcd60e51b815260206004820152602b60248201527f455243373231456e756d657261626c653a206f776e657220696e646578206f7560448201526a74206f6620626f756e647360a81b606482015260840161167c565b506001600160a01b03919091166000908152600660209081526040808320938352929052205490565b8061197d81612251565b6001600160a01b0316336001600160a01b0316146119ae57604051631431735b60e21b815260040160405180910390fd5b600082815260166020526040812081815560018101829055600281018290556003810182905560048101829055600581018290556006810191909155826119f481612251565b6001600160a01b03167f46078a2cd4c69c3b4a27bdc69fdfe03d442ebcf405f1a68e9b5df6bc3e24429760405160405180910390a3505050565b606080611a3d610b9f84612fe1565b50949350505050565b89611a5081612251565b6001600160a01b0316336001600160a01b031614611a8157604051631431735b60e21b815260040160405180910390fd5b611a918b8b8b8b8b8b8b8b611d12565b611a9b8b846136ac565b611aa58b836131ed565b5050505050505050505050565b600c5460609081906001600160a01b031663bb12d21d611ad185612fe1565b6040518263ffffffff1660e01b8152600401611aed91906157d0565b600060405180830381865afa158015611b0a573d6000803e3d6000fd5b505050506040513d6000823e601f3d908101601f19168201604052611b329190810190615b51565b509150611b40905083611a2e565b81604051602001611b52929190615bd8565b604051602081830303815290604052915050919050565b611b71613ad9565b601155565b611b7e613ad9565b601380546001600160a01b0319166001600160a01b0392909216919091179055565b611ba8613ad9565b6013546040516000916001600160a01b03169047908381818185875af1925050503d8060008114611bf5576040519150601f19603f3d011682016040523d82523d6000602084013e611bfa565b606091505b5050905080611c1c57604051631d42c86760e21b815260040160405180910390fd5b50565b61169083838360405180602001604052806000815250612b67565b611c42613ad9565b6002611c4d60085490565b1115611c6c5760405163155b299760e31b815260040160405180910390fd5b611c793360026007613eeb565b565b60606000611c8883612473565b90506000816001600160401b03811115611ca457611ca4615128565b604051908082528060200260200182016040528015611ccd578160200160208202803683370190505b50905060005b82811015611d0a57611ce585826118dd565b828281518110611cf757611cf7615a56565b6020908102919091010152600101611cd3565b509392505050565b87611d1c81612251565b6001600160a01b0316336001600160a01b031614611d4d57604051631431735b60e21b815260040160405180910390fd5b60008981526016602090815260408083206017909252909120546001600160a01b03168915611dc957611d80818b61420b565b611d8b8a60016142ad565b898255898b611d9981612251565b6001600160a01b031660008051602061611c833981519152600160405160ff909116815260200160405180910390a45b8815611e2657611dd9818a61420b565b611de48960026142ad565b60018201899055888b611df681612251565b6001600160a01b031660008051602061611c833981519152600260405160ff909116815260200160405180910390a45b8715611e8357611e36818961420b565b611e418860036142ad565b60028201889055878b611e5381612251565b6001600160a01b031660008051602061611c833981519152600360405160ff909116815260200160405180910390a45b8615611ee057611e93818861420b565b611e9e8760046142ad565b60038201879055868b611eb081612251565b6001600160a01b031660008051602061611c833981519152600460405160ff909116815260200160405180910390a45b8515611f3d57611ef0818761420b565b611efb8660056142ad565b60048201869055858b611f0d81612251565b6001600160a01b031660008051602061611c833981519152600560405160ff909116815260200160405180910390a45b8415611f9a57611f4d818661420b565b611f588560066142ad565b60058201859055848b611f6a81612251565b6001600160a01b031660008051602061611c833981519152600660405160ff909116815260200160405180910390a45b8315611ff757611faa818561420b565b611fb58460076142ad565b60068201849055838b611fc781612251565b6001600160a01b031660008051602061611c833981519152600760405160ff909116815260200160405180910390a45b8a6120018c612251565b6001600160a01b03167f56680590212b09eb4b72a2eba8801b037ec046dfc754538e924f5bb6a8c4db6c60405160405180910390a35050505050505050505050565b600061204e60085490565b82106120b15760405162461bcd60e51b815260206004820152602c60248201527f455243373231456e756d657261626c653a20676c6f62616c20696e646578206f60448201526b7574206f6620626f756e647360a01b606482015260840161167c565b600882815481106120c4576120c4615a56565b90600052602060002001549050919050565b60006120e061318a565b4211905090565b63389a75e1600c523360005260006020600c2055337ffa7b8eab7da67f412cc9575ed43464468f9bfbae89d1675917346ca6d8fe3c92600080a2565b600061212e84612251565b90506001600160a01b0381163314612158576040516282b42960e81b815260040160405180910390fd5b8115612168576121688484613b78565b6121738184846143af565b50505050565b6019602052816000526040600020818154811061219557600080fd5b6000918252602090912001546001600160a01b03169150829050565b6121b9613ad9565b6121c16120d6565b156121df5760405163774ae17d60e01b815260040160405180910390fd5b600e80546001600160a01b0319166001600160a01b0392909216919091179055565b612209613ad9565b6122116120d6565b1561222f5760405163774ae17d60e01b815260040160405180910390fd5b600c80546001600160a01b0319166001600160a01b0392909216919091179055565b6000818152600260205260408120546001600160a01b0316806111055760405162461bcd60e51b8152602060048201526018602482015277115490cdcc8c4e881a5b9d985b1a59081d1bdad95b88125160421b604482015260640161167c565b600c546040516331a9108f60e11b8152600481018390526000918291829182916001600160a01b0390911690636352211e90602401602060405180830381865afa158015612303573d6000803e3d6000fd5b505050506040513d601f19601f820116820180604052508101906123279190615c07565b6001600160a01b038116600090815260186020526040902054909450925061234e83612251565b915061235a83866125ab565b90509193509193565b6000818152601960209081526040918290208054835181840281018401909452808452606093928301828280156123c357602002820191906000526020600020905b81546001600160a01b031681526001909101906020018083116123a5575b50505050509050919050565b6123d7613ad9565b60048160ff1610806123ec575060078160ff16115b1561240a57604051632258debf60e01b815260040160405180910390fd5b601554158061241a575060155442105b1561243857604051630314872760e11b815260040160405180910390fd5b6015546124489062016da0615c3a565b4211156124685760405163124212e560e21b815260040160405180910390fd5b611690838383613eeb565b60006001600160a01b0382166124dd5760405162461bcd60e51b815260206004820152602960248201527f4552433732313a2061646472657373207a65726f206973206e6f7420612076616044820152683634b21037bbb732b960b91b606482015260840161167c565b506001600160a01b031660009081526003602052604090205490565b612501613ad9565b611c796000614475565b612513613ad9565b61251b6120d6565b156125395760405163774ae17d60e01b815260040160405180910390fd5b600d80546001600160a01b0319166001600160a01b0392909216919091179055565b612563613ad9565b61256b6120d6565b156125895760405163774ae17d60e01b815260040160405180910390fd5b600f80546001600160a01b0319166001600160a01b0392909216919091179055565b6000806125b784612fe1565b80519091508314806125cc5750828160200151145b806125da5750828160400151145b806125e85750828160600151145b806125f65750828160800151145b806126045750828160a00151145b806126125750828160c00151145b949350505050565b600f546000828152600b602052604080822090516371bed9e160e11b81526060936001600160a01b03169163e37db3c29161265b9160020190600401615cca565b600060405180830381865afa158015612678573d6000803e3d6000fd5b505050506040513d6000823e601f3d908101601f191682016040526126a09190810190615a22565b600f546040516335b07b7960e11b81529192506001600160a01b031690636b60f6f2906126d1908490600401615026565b600060405180830381865afa1580156126ee573d6000803e3d6000fd5b505050506040513d6000823e601f3d908101601f191682016040526127169190810190615a22565b9392505050565b612725613ad9565b601455565b606080606061274084610120015160ff1661261a565b6101208501805160ff9081166000908152600b6020526040808220600f5494519093168252908190209051630d88d4ff60e01b81526003909201926001600160a01b031691630d88d4ff9161279d91600190910190600401615cdd565b600060405180830381865afa1580156127ba573d6000803e3d6000fd5b505050506040513d6000823e601f3d908101601f191682016040526127e29190810190615a22565b8180546127ee906159a3565b80601f016020809104026020016040519081016040528092919081815260200182805461281a906159a3565b80156128675780601f1061283c57610100808354040283529160200191612867565b820191906000526020600020905b81548152906001019060200180831161284a57829003601f168201915b505050505091509250925092509193909250565b606060018054611149906159a3565b600081815260176020526040812054606091906001600160a01b0316600c5460405162438b6360e81b81526001600160a01b03808416600483015292935091169063438b630090602401600060405180830381865afa1580156128f1573d6000803e3d6000fd5b505050506040513d6000823e601f3d908101601f191682016040526127169190810190615d10565b6060600061292683612fe1565b90508061016001516129405761293b83613858565b612716565b61271683613406565b80156129b757600061295a33611c7b565b9050805160000361297d576040516282b42960e81b815260040160405180910390fd5b60005b81518110156129b4576129ac82828151811061299e5761299e615a56565b602002602001015185613b78565b600101612980565b50505b6112403383836143af565b6060806129d683610120015160ff1661261a565b600f5461012085015160ff166000908152600b6020526040908190209051630d88d4ff60e01b81526001600160a01b0390921691630d88d4ff91612a2291600190910190600401615cdd565b600060405180830381865afa158015612a3f573d6000803e3d6000fd5b505050506040513d6000823e601f3d908101601f19168201604052612a679190810190615a22565b91509150915091565b601660205260009081526040902080546001820154600283015460038401546004850154600586015460068701546007880154600889015460098a0154600a8b0180549a9b999a9899979896979596949563ffffffff90941694929360ff90921692612adb906159a3565b80601f0160208091040260200160405190810160405280929190818152602001828054612b07906159a3565b8015612b545780601f10612b2957610100808354040283529160200191612b54565b820191906000526020600020905b815481529060010190602001808311612b3757829003601f168201915b505050600b909301549192505060ff168c565b612b713383613c25565b612b8d5760405162461bcd60e51b815260040161167c90615aed565b612173848484846144b3565b612ba1613ad9565b601c55565b600e546001600160a01b0316612bcf57604051633390ca8960e21b815260040160405180910390fd5b81600003612bf05760405163e7195f5160e01b815260040160405180910390fd5b600a821115612c1257604051634b70da3960e01b815260040160405180910390fd5b6015541580612c22575060155442105b15612c4057604051630314872760e11b815260040160405180910390fd5b601554612c509062015180615c3a565b421115612c705760405163124212e560e21b815260040160405180910390fd5b81601454612c7e9190615d95565b3414612c9d5760405163356680b760e01b815260040160405180910390fd5b6040516bffffffffffffffffffffffff193360601b166020820152600490600090603401604051602081830303815290604052805190602001209050612ce683601a54836144e6565b15612cf45760059150612d26565b612d0183601b54836144e6565b15612d0f5760069150612d26565b612d1c83601c54836144e6565b15612d2657600791505b612173338584613eeb565b81612d3b81612251565b6001600160a01b0316336001600160a01b031614612d6c57604051631431735b60e21b815260040160405180910390fd5b6000838152601660205260409020600b01805460ff191683151517905582612d9381612251565b6001600160a01b03167f6dd9e2813f787f711671bf91b2e57a72b9b61bc279b934201f3fd29b3b5f8cbe84604051612dcf911515815260200190565b60405180910390a3505050565b6000818152600260205260409020546060906001600160a01b0316612e1457604051636461f73160e01b815260040160405180910390fd5b61110582612919565b81612e2781612251565b6001600160a01b0316336001600160a01b031614612e5857604051631431735b60e21b815260040160405180910390fd5b6001826007811115612e6c57612e6c615b3b565b03612e81576000838152601660205260408120555b6002826007811115612e9557612e95615b3b565b03612ead576000838152601660205260408120600101555b6003826007811115612ec157612ec1615b3b565b03612ed9576000838152601660205260408120600201555b6004826007811115612eed57612eed615b3b565b03612f05576000838152601660205260408120600301555b6005826007811115612f1957612f19615b3b565b03612f31576000838152601660205260408120600401555b6006826007811115612f4557612f45615b3b565b03612f5d576000838152601660205260408120600501555b6007826007811115612f7157612f71615b3b565b03612f89576000838152601660205260408120600601555b82612f9384612251565b6001600160a01b03167f3d8ac56c725fc7985e9444622a45baee28ba67d8a964045f747b465121f40e71846007811115612fcf57612fcf615b3b565b60405160ff9091168152602001612dcf565b61305060405180610180016040528060008152602001600081526020016000815260200160008152602001600081526020016000815260200160008152602001600063ffffffff16815260200160008152602001600060ff168152602001606081526020016000151581525090565b600082815260166020908152604091829020825161018081018452815481526001820154928101929092526002810154928201929092526003820154606082015260048201546080820152600582015460a0820152600682015460c0820152600782015463ffffffff1660e08201526008820154610100820152600982015460ff16610120820152600a82018054919291610140840191906130f1906159a3565b80601f016020809104026020016040519081016040528092919081815260200182805461311d906159a3565b801561316a5780601f1061313f5761010080835404028352916020019161316a565b820191906000526020600020905b81548152906001019060200180831161314d57829003601f168201915b5050509183525050600b919091015460ff16151560209091015292915050565b60006131ba7f00000000000000000000000000000000000000000000000000000000000000006301e13380615c3a565b905090565b6131c7613ad9565b601554156131e85760405163703e78e960e11b815260040160405180910390fd5b601555565b816131f781612251565b6001600160a01b0316336001600160a01b03161461322857604051631431735b60e21b815260040160405180910390fd5b8151829060061461324c57604051631cf7e9c560e01b815260040160405180910390fd5b60005b600681101561339957603060f81b82828151811061326f5761326f615a56565b01602001516001600160f81b031916108015906132b05750603960f81b82828151811061329e5761329e615a56565b01602001516001600160f81b03191611155b1580156133125750604160f81b8282815181106132cf576132cf615a56565b01602001516001600160f81b031916108015906133105750604660f81b8282815181106132fe576132fe615a56565b01602001516001600160f81b03191611155b155b80156133735750606160f81b82828151811061333057613330615a56565b01602001516001600160f81b031916108015906133715750606660f81b82828151811061335f5761335f615a56565b01602001516001600160f81b03191611155b155b1561339157604051631cf7e9c560e01b815260040160405180910390fd5b60010161324f565b506000848152601660205260409020600a016133b58482615df4565b50836133c085612251565b6001600160a01b03167f2e34f8c0f6052b66319b4a5df14eac164c6af8a0b37f612d4304a777e1ae7a3d856040516133f89190615026565b60405180910390a350505050565b606080606080606080606061343c6040518060800160405280606081526020016060815260200160608152602001600081525090565b60006134478a612fe1565b90506134528161272a565b50600c5460405163bb12d21d60e01b8152929a509097506001600160a01b03169063bb12d21d906134879084906004016157d0565b600060405180830381865afa1580156134a4573d6000803e3d6000fd5b505050506040513d6000823e601f3d908101601f191682016040526134cc9190810190615b51565b60405192995090965093506134e79087908790602001615bd8565b60408051601f198184030181529190526101408201518352935061350a8a61288a565b51606083015261012081015160ff166000908152600b602052604090206001018054613535906159a3565b80601f0160208091040260200160405190810160405280929190818152602001828054613561906159a3565b80156135ae5780601f10613583576101008083540402835291602001916135ae565b820191906000526020600020905b81548152906001019060200180831161359157829003601f168201915b505050505082602001819052506135d78a6000908152601660205260409020600b015460ff1690565b6135fb57604051806040016040528060028152602001610c9160f21b815250613617565b604051806040016040528060028152602001610cd160f21b8152505b604080840191909152601054905163efcc1e3160e01b81526001600160a01b039091169063efcc1e3190613659908d908c908c9089908b908a90600401615f12565b600060405180830381865afa158015613676573d6000803e3d6000fd5b505050506040513d6000823e601f3d908101601f1916820160405261369e9190810190615a22565b9a9950505050505050505050565b816136b681612251565b6001600160a01b0316336001600160a01b0316146136e757604051631431735b60e21b815260040160405180910390fd5b60048260ff16111561370c576040516329ba348d60e11b815260040160405180910390fd5b6000838152601660205260409020600901805460ff191660ff84161790558261373481612251565b60405160ff851681526001600160a01b0391909116907f454db5768a3f8187a5dd5e9cca100cf699d74d8a03f793d16da3932cdf34d35890602001612dcf565b61377c613ad9565b601a55565b613789613ad9565b63389a75e1600c52806000526020600c2080544211156137b157636f5e88186000526004601cfd5b60009055611c1c81614475565b6137c6613ad9565b6137ce6120d6565b156137ec5760405163774ae17d60e01b815260040160405180910390fd5b6000848152600b602052604090208481556001810161380b8582615df4565b506002810161381a8482615df4565b50600381016138298382615df4565b505050505050565b613839613ad9565b8060601b61384f57637448fbae6000526004601cfd5b611c1c81614475565b6060806060806060600061386b87612fe1565b9050613876816129c2565b50600c54604051631be5857160e31b81529196506001600160a01b03169063df2c2b88906138a89084906004016157d0565b600060405180830381865afa1580156138c5573d6000803e3d6000fd5b505050506040513d6000823e601f3d908101601f191682016040526138ed9190810190615f86565b90945092506138fb87611405565b91506139286040518060800160405280606081526020016060815260200160608152602001600081525090565b61014082015181526139398861288a565b51606082015261012082015160ff166000908152600b602052604090206001018054613964906159a3565b80601f0160208091040260200160405190810160405280929190818152602001828054613990906159a3565b80156139dd5780601f106139b2576101008083540402835291602001916139dd565b820191906000526020600020905b8154815290600101906020018083116139c057829003601f168201915b50505050508160200181905250613a06886000908152601660205260409020600b015460ff1690565b613a2a57604051806040016040528060028152602001610c9160f21b815250613a46565b604051806040016040528060028152602001610cd160f21b8152505b604080830191909152600f5490516307df90cf60e11b81526001600160a01b0390911690630fbf219e90613a88908b908a908a908a908a908990600401615f12565b600060405180830381865afa158015613aa5573d6000803e3d6000fd5b505050506040513d6000823e601f3d908101601f19168201604052613acd9190810190615a22565b98975050505050505050565b638b78c6d819543314611c79576382b429006000526004601cfd5b60006001600160e01b0319821663780e9d6360e01b14806111055750611105826144fc565b6000818152600260205260409020546001600160a01b0316611c1c5760405162461bcd60e51b8152602060048201526018602482015277115490cdcc8c4e881a5b9d985b1a59081d1bdad95b88125160421b604482015260640161167c565b600091825260196020908152604083208054600181018255908452922090910180546001600160a01b0319166001600160a01b03909216919091179055565b600081815260046020526040902080546001600160a01b0319166001600160a01b0384169081179091558190613bec82612251565b6001600160a01b03167f8c5be1e5ebec7d5bd14f71427d1e84f3dd0314c0f7b2291e5b200ac8c7c3b92560405160405180910390a45050565b600080613c3183612251565b9050806001600160a01b0316846001600160a01b03161480613c7857506001600160a01b0380821660009081526005602090815260408083209388168352929052205460ff165b806126125750836001600160a01b0316613c91846111cc565b6001600160a01b031614949350505050565b826001600160a01b0316613cb682612251565b6001600160a01b031614613d1a5760405162461bcd60e51b815260206004820152602560248201527f4552433732313a207472616e736665722066726f6d20696e636f72726563742060448201526437bbb732b960d91b606482015260840161167c565b6001600160a01b038216613d7c5760405162461bcd60e51b8152602060048201526024808201527f4552433732313a207472616e7366657220746f20746865207a65726f206164646044820152637265737360e01b606482015260840161167c565b613d8783838361454c565b613d92600082613bb7565b6001600160a01b0383166000908152600360205260408120805460019290613dbb908490615fdf565b90915550506001600160a01b0382166000908152600360205260408120805460019290613de9908490615c3a565b909155505060008181526002602052604080822080546001600160a01b0319166001600160a01b0386811691821790925591518493918716917fddf252ad1be2c89b69c2b068fc378daa952ba7f163c4a11628f55a4df523b3ef91a461169083838361492d565b600082815260176020526040812054613e72906001600160a01b03168361420b565b600c5460405163e8a1268d60e01b8152600481018490526001600160a01b039091169063e8a1268d90602401602060405180830381865afa158015613ebb573d6000803e3d6000fd5b505050506040513d601f19601f82011682018060405250810190613edf9190615ff2565b905061110582826142ad565b60005b82811015612173576000601260008154613f079061600f565b91829055509050613f188582614937565b604051638a54c52f60e01b81527355266d75d1a14e4572138116af39863ed6596e7f600482015260006024820181905262014a34604483015230606483015260848201839052906f6551c19487814612e58fe0681377575890638a54c52f9060a4016020604051808303816000875af1158015613f99573d6000803e3d6000fd5b505050506040513d601f19601f82011682018060405250810190613fbd9190615c07565b600083815260176020908152604080832080546001600160a01b0319166001600160a01b038616908117909155808452601890925291829020859055905163189acdbd60e31b81527341c8f39463a868d3a88af00cd0fe7102f30e44ec60048201529192509063c4d66de890602401600060405180830381600087803b15801561404657600080fd5b505af115801561405a573d6000803e3d6000fd5b5050600e546040516358a2727360e01b81526001600160a01b03858116600483015260ff891660248301526000945090911691506358a27273906044016000604051808303816000875af11580156140b6573d6000803e3d6000fd5b505050506040513d6000823e601f3d908101601f191682016040526140de9190810190615d10565b60008481526016602052604081206008810186905582519293509183919061410857614108615a56565b602002602001015181600601819055508160018151811061412b5761412b615a56565b602002602001015181600501819055508160028151811061414e5761414e615a56565b602002602001015181600401819055508160038151811061417157614171615a56565b6020026020010151816001018190555060058460405160200161419691815260200190565b6040516020818303038152906040528051906020012060001c6141b99190616028565b60098201805460ff191660ff929092169190911790556040805180820190915260068152650c110d914e5160d21b6020820152600a8201906141fb9082615df4565b5050505050806001019050613eee565b600c546040516331a9108f60e11b8152600481018390526000916001600160a01b031690636352211e90602401602060405180830381865afa158015614255573d6000803e3d6000fd5b505050506040513d601f19601f820116820180604052508101906142799190615c07565b9050826001600160a01b0316816001600160a01b0316146116905760405163e6ca793160e01b815260040160405180910390fd5b600c5460405163e8a1268d60e01b8152600481018490526000916001600160a01b03169063e8a1268d90602401602060405180830381865afa1580156142f7573d6000803e3d6000fd5b505050506040513d601f19601f8201168201806040525081019061431b9190615ff2565b905081600781111561432f5761432f615b3b565b60405160200161434191815260200190565b6040516020818303038152906040528051906020012081600781111561436957614369615b3b565b60405160200161437b91815260200190565b604051602081830303815290604052805190602001201461169057604051633e54c6fb60e11b815260040160405180910390fd5b816001600160a01b0316836001600160a01b0316036144105760405162461bcd60e51b815260206004820152601960248201527f4552433732313a20617070726f766520746f2063616c6c657200000000000000604482015260640161167c565b6001600160a01b03838116600081815260056020908152604080832094871680845294825291829020805460ff191686151590811790915591519182527f17307eab39ab6107e8899845ad3d59bd9653f200f220920489ca2b5937696c319101612dcf565b638b78c6d81980546001600160a01b039092169182907f8be0079c531659141344cd1fd0a4f28419497f9722a3daafe3b4186f6b6457e0600080a355565b6144be848484613ca3565b6144ca84848484614a8d565b6121735760405162461bcd60e51b815260040161167c9061604a565b6000826144f38584614b8e565b14949350505050565b60006001600160e01b031982166380ac58cd60e01b148061452d57506001600160e01b03198216635b5e139f60e01b145b8061110557506301ffc9a760e01b6001600160e01b0319831614611105565b6001600160a01b03831661456557611690838383614bc9565b6001600160a01b0382166000908152601860205260409020541561459c57604051639a42da2960e01b815260040160405180910390fd5b6000818152601760205260408120546001600160a01b0316906145be84611c7b565b9050600081516001600160401b038111156145db576145db615128565b604051908082528060200260200182016040528015614604578160200160208202803683370190505b50905060005b8251811015614685576017600084838151811061462957614629615a56565b6020026020010151815260200190815260200160002060009054906101000a90046001600160a01b031682828151811061466557614665615a56565b6001600160a01b039092166020928302919091019091015260010161460a565b50600d5460405163644ec52760e01b8152600481018690526001600160a01b039091169063644ec52790602401600060405180830381600087803b1580156146cc57600080fd5b505af11580156146e0573d6000803e3d6000fd5b5050600d54604051631e92beb560e31b8152600481018890526001600160a01b038981166024830152909116925063f495f5a89150604401600060405180830381600087803b15801561473257600080fd5b505af1158015614746573d6000803e3d6000fd5b5050600c5460405162438b6360e81b81526001600160a01b03878116600483015260009450909116915063438b630090602401600060405180830381865afa158015614796573d6000803e3d6000fd5b505050506040513d6000823e601f3d908101601f191682016040526147be9190810190615d10565b905060005b81518110156149185760008282815181106147e0576147e0615a56565b6020908102919091010151600d54604051632e1d274f60e01b8152600481018390529192506001600160a01b031690632e1d274f90602401600060405180830381600087803b15801561483257600080fd5b505af1158015614846573d6000803e3d6000fd5b5050600d54604051632333520b60e11b81526001600160a01b039091169250634666a416915061487c908490889060040161609c565b600060405180830381600087803b15801561489657600080fd5b505af11580156148aa573d6000803e3d6000fd5b5050600c5460405163487b1c2160e11b8152600481018590526001600160a01b0390911692506390f638429150602401600060405180830381600087803b1580156148f457600080fd5b505af1158015614908573d6000803e3d6000fd5b50505050508060010190506147c3565b50614924878787614bc9565b50505050505050565b6116908184614c81565b6001600160a01b03821661498d5760405162461bcd60e51b815260206004820181905260248201527f4552433732313a206d696e7420746f20746865207a65726f2061646472657373604482015260640161167c565b6000818152600260205260409020546001600160a01b0316156149f25760405162461bcd60e51b815260206004820152601c60248201527f4552433732313a20746f6b656e20616c7265616479206d696e74656400000000604482015260640161167c565b6149fe6000838361454c565b6001600160a01b0382166000908152600360205260408120805460019290614a27908490615c3a565b909155505060008181526002602052604080822080546001600160a01b0319166001600160a01b03861690811790915590518392907fddf252ad1be2c89b69c2b068fc378daa952ba7f163c4a11628f55a4df523b3ef908290a46112406000838361492d565b60006001600160a01b0384163b15614b8357604051630a85bd0160e11b81526001600160a01b0385169063150b7a0290614ad19033908990889088906004016160b5565b6020604051808303816000875af1925050508015614b0c575060408051601f3d908101601f19168201909252614b09918101906160e8565b60015b614b69573d808015614b3a576040519150601f19603f3d011682016040523d82523d6000602084013e614b3f565b606091505b508051600003614b615760405162461bcd60e51b815260040161167c9061604a565b805181602001fd5b6001600160e01b031916630a85bd0160e11b149050612612565b506001949350505050565b600081815b8451811015611d0a57614bbf82868381518110614bb257614bb2615a56565b6020026020010151614d6a565b9150600101614b93565b6001600160a01b038316614c2457614c1f81600880546000838152600960205260408120829055600182018355919091527ff3f7a9fe364faab93b216da50a3214154f22a0a2b415b23a84c8169e8b636ee30155565b614c47565b816001600160a01b0316836001600160a01b031614614c4757614c478382614d96565b6001600160a01b038216614c5e5761169081614e33565b826001600160a01b0316826001600160a01b031614611690576116908282614ee2565b600082815260196020908152604080832080548251818502810185019093528083529192909190830182828015614ce157602002820191906000526020600020905b81546001600160a01b03168152600190910190602001808311614cc3575b5050506000868152601760205260408120549394506001600160a01b03909316929150505b8251811015614d5257614d3484848381518110614d2557614d25615a56565b602002602001015160006143af565b614d4a82848381518110614d2557614d25615a56565b600101614d06565b50600084815260196020526040812061217391614f26565b6000818310614d86576000828152602084905260409020612716565b5060009182526020526040902090565b60006001614da384612473565b614dad9190615fdf565b600083815260076020526040902054909150808214614e00576001600160a01b03841660009081526006602090815260408083208584528252808320548484528184208190558352600790915290208190555b5060009182526007602090815260408084208490556001600160a01b039094168352600681528383209183525290812055565b600854600090614e4590600190615fdf565b60008381526009602052604081205460088054939450909284908110614e6d57614e6d615a56565b906000526020600020015490508060088381548110614e8e57614e8e615a56565b6000918252602080832090910192909255828152600990915260408082208490558582528120556008805480614ec657614ec6616105565b6001900381819060005260206000200160009055905550505050565b6000614eed83612473565b6001600160a01b039093166000908152600660209081526040808320868452825280832085905593825260079052919091209190915550565b5080546000825590600052602060002090810190611c1c91905b80821115614f545760008155600101614f40565b5090565b6001600160a01b0381168114611c1c57600080fd5b600060208284031215614f7f57600080fd5b813561271681614f58565b6001600160e01b031981168114611c1c57600080fd5b600060208284031215614fb257600080fd5b813561271681614f8a565b600060208284031215614fcf57600080fd5b5035919050565b60005b83811015614ff1578181015183820152602001614fd9565b50506000910152565b60008151808452615012816020860160208601614fd6565b601f01601f19169290920160200192915050565b6020815260006127166020830184614ffa565b6000806040838503121561504c57600080fd5b823561505781614f58565b946020939093013593505050565b84815260806020820152600061507e6080830186614ffa565b82810360408401526150908186614ffa565b905082810360608401526150a48185614ffa565b979650505050505050565b6000806000606084860312156150c457600080fd5b83356150cf81614f58565b925060208401356150df81614f58565b929592945050506040919091013590565b6000806040838503121561510357600080fd5b50508035926020909101359150565b803560ff8116811461512357600080fd5b919050565b634e487b7160e01b600052604160045260246000fd5b60405161018081016001600160401b038111828210171561516157615161615128565b60405290565b604051601f8201601f191681016001600160401b038111828210171561518f5761518f615128565b604052919050565b60006001600160401b038211156151b0576151b0615128565b50601f01601f191660200190565b600082601f8301126151cf57600080fd5b81356151e26151dd82615197565b615167565b8181528460208386010111156151f757600080fd5b816020850160208301376000918101602001919091529392505050565b6000806000806000806000806000806101408b8d03121561523457600080fd5b8a35995060208b0135985060408b0135975060608b0135965060808b0135955060a08b0135945060c08b0135935060e08b013592506152766101008c01615112565b91506101208b01356001600160401b0381111561529257600080fd5b61529e8d828e016151be565b9150509295989b9194979a5092959850565b6020808252825182820181905260009190848201906040850190845b818110156152e8578351835292840192918401916001016152cc565b50909695505050505050565b600080600080600080600080610100898b03121561531157600080fd5b505086359860208801359850604088013597606081013597506080810135965060a0810135955060c0810135945060e0013592509050565b8035801515811461512357600080fd5b60008060006060848603121561536e57600080fd5b83359250602084013561538081614f58565b915061538e60408501615349565b90509250925092565b60008151808452602080850194506020840160005b838110156153d15781516001600160a01b0316875295820195908201906001016153ac565b509495945050505050565b6020815260006127166020830184615397565b60008060006060848603121561540457600080fd5b833561540f81614f58565b92506020840135915061538e60408501615112565b803563ffffffff8116811461512357600080fd5b60006020828403121561544a57600080fd5b81356001600160401b038082111561546157600080fd5b90830190610180828603121561547657600080fd5b61547e61513e565b823581526020830135602082015260408301356040820152606083013560608201526080830135608082015260a083013560a082015260c083013560c08201526154ca60e08401615424565b60e082015261010083810135908201526101206154e8818501615112565b90820152610140838101358381111561550057600080fd5b61550c888287016151be565b8284015250506101609150615522828401615349565b91810191909152949350505050565b6060815260006155446060830186614ffa565b82810360208401526155568186614ffa565b9050828103604084015261163f8185614ffa565b6000806040838503121561557d57600080fd5b823561558881614f58565b915061559660208401615349565b90509250929050565b6040815260006155b26040830185614ffa565b82810360208401526155c48185614ffa565b95945050505050565b60006101808e83528d60208401528c60408401528b60608401528a60808401528960a08401528860c084015263ffffffff881660e08401528661010084015260ff86166101208401528061014084015261562981840186614ffa565b9150508215156101608301529d9c50505050505050505050505050565b6000806000806080858703121561565c57600080fd5b843561566781614f58565b9350602085013561567781614f58565b92506040850135915060608501356001600160401b0381111561569957600080fd5b6156a5878288016151be565b91505092959194509250565b60006001600160401b038211156156ca576156ca615128565b5060051b60200190565b600080604083850312156156e757600080fd5b823591506020808401356001600160401b0381111561570557600080fd5b8401601f8101861361571657600080fd5b80356157246151dd826156b1565b81815260059190911b8201830190838101908883111561574357600080fd5b928401925b8284101561576157833582529284019290840190615748565b80955050505050509250929050565b6000806040838503121561578357600080fd5b8235915061559660208401615349565b60088110611c1c57600080fd5b600080604083850312156157b357600080fd5b8235915060208301356157c581615793565b809150509250929050565b6020815281516020820152602082015160408201526040820151606082015260608201516080820152608082015160a082015260a082015160c082015260c082015160e0820152600060e08301516101006158328185018363ffffffff169052565b8401516101208481019190915284015190506101406158558185018360ff169052565b8085015191505061018061016081818601526158756101a0860184614ffa565b95015115159301929092525090919050565b6000806040838503121561589a57600080fd5b8235915060208301356001600160401b038111156158b757600080fd5b6158c3858286016151be565b9150509250929050565b600080604083850312156158e057600080fd5b8235915061559660208401615112565b6000806040838503121561590357600080fd5b823561590e81614f58565b915060208301356157c581614f58565b6000806000806080858703121561593457600080fd5b8435935060208501356001600160401b038082111561595257600080fd5b61595e888389016151be565b9450604087013591508082111561597457600080fd5b615980888389016151be565b9350606087013591508082111561599657600080fd5b506156a5878288016151be565b600181811c908216806159b757607f821691505b6020821081036159d757634e487b7160e01b600052602260045260246000fd5b50919050565b600082601f8301126159ee57600080fd5b81516159fc6151dd82615197565b818152846020838601011115615a1157600080fd5b612612826020830160208701614fd6565b600060208284031215615a3457600080fd5b81516001600160401b03811115615a4a57600080fd5b612612848285016159dd565b634e487b7160e01b600052603260045260246000fd5b608081526000615a7f6080830187614ffa565b6020838203818501528187518084528284019150828160051b850101838a0160005b83811015615acf57601f19878403018552615abd838351614ffa565b94860194925090850190600101615aa1565b50506040870198909852505050506060909101919091525092915050565b6020808252602e908201527f4552433732313a2063616c6c6572206973206e6f7420746f6b656e206f776e6560408201526d1c881b9bdc88185c1c1c9bdd995960921b606082015260800190565b634e487b7160e01b600052602160045260246000fd5b600080600060608486031215615b6657600080fd5b83516001600160401b0380821115615b7d57600080fd5b615b89878388016159dd565b94506020860151915080821115615b9f57600080fd5b615bab878388016159dd565b93506040860151915080821115615bc157600080fd5b50615bce868287016159dd565b9150509250925092565b60008351615bea818460208801614fd6565b835190830190615bfe818360208801614fd6565b01949350505050565b600060208284031215615c1957600080fd5b815161271681614f58565b634e487b7160e01b600052601160045260246000fd5b8082018082111561110557611105615c24565b60008154615c5a816159a3565b808552602060018381168015615c775760018114615c9157615cbf565b60ff1985168884015283151560051b880183019550615cbf565b866000528260002060005b85811015615cb75781548a8201860152908301908401615c9c565b890184019650505b505050505092915050565b6020815260006127166020830184615c4d565b604081526009604082015268426f6479205479706560b81b60608201526080602082015260006127166080830184615c4d565b60006020808385031215615d2357600080fd5b82516001600160401b03811115615d3957600080fd5b8301601f81018513615d4a57600080fd5b8051615d586151dd826156b1565b81815260059190911b82018301908381019087831115615d7757600080fd5b928401925b828410156150a457835182529284019290840190615d7c565b808202811582820484141761110557611105615c24565b601f821115611690576000816000526020600020601f850160051c81016020861015615dd55750805b601f850160051c820191505b8181101561382957828155600101615de1565b81516001600160401b03811115615e0d57615e0d615128565b615e2181615e1b84546159a3565b84615dac565b602080601f831160018114615e565760008415615e3e5750858301515b600019600386901b1c1916600185901b178555613829565b600085815260208120601f198616915b82811015615e8557888601518255948401946001909101908401615e66565b5085821015615ea35787850151600019600388901b60f8161c191681555b5050505050600190811b01905550565b6000815160808452615ec86080850182614ffa565b905060208301518482036020860152615ee18282614ffa565b91505060408301518482036040860152615efb8282614ffa565b915050606083015160608501528091505092915050565b86815260c060208201526000615f2b60c0830188614ffa565b8281036040840152615f3d8188614ffa565b90508281036060840152615f518187614ffa565b90508281036080840152615f658186614ffa565b905082810360a0840152615f798185615eb3565b9998505050505050505050565b60008060408385031215615f9957600080fd5b82516001600160401b0380821115615fb057600080fd5b615fbc868387016159dd565b93506020850151915080821115615fd257600080fd5b506158c3858286016159dd565b8181038181111561110557611105615c24565b60006020828403121561600457600080fd5b815161271681615793565b60006001820161602157616021615c24565b5060010190565b60008261604557634e487b7160e01b600052601260045260246000fd5b500690565b60208082526032908201527f4552433732313a207472616e7366657220746f206e6f6e20455243373231526560408201527131b2b4bb32b91034b6b83632b6b2b73a32b960711b606082015260800190565b8281526040602082015260006126126040830184615397565b6001600160a01b038581168252841660208201526040810183905260806060820181905260009061163f90830184614ffa565b6000602082840312156160fa57600080fd5b815161271681614f8a565b634e487b7160e01b600052603160045260246000fdfec94c1c47471ed97c1d309bab965192a3e4be3807f42d015b699bfbdcf24dd9f6a26469706673582212202b5086a0c97ce42c6806e4004236403911a20994f7bc1c2709a5f458a1f31c2764736f6c63430008160033","linkReferences":{}},"methodIdentifiers":{"_nextTokenId()":"4a60f620","addNewBody(uint256,string,bytes,bytes)":"f2361e23","approve(address,uint256)":"095ea7b3","balanceOf(address)":"70a08231","bodyIndexToMetadata(uint256)":"0c83f9d7","cancelOwnershipHandover()":"54d1f13d","checkIfTraitIsEquipped(uint256,uint256)":"8aa1e4c8","chonkIdToApprovedOperators(uint256,uint256)":"55737f35","chonkMakeover(uint256,uint256,uint256,uint256,uint256,uint256,uint256,uint256,uint8,string)":"30f6c521","chonkTokens(uint256)":"b45d0316","chonksCreatorListMerkleRoot()":"7684ef0d","completeOwnershipHandover(address)":"f04e283e","deploymentTime()":"ecda10f5","equip(uint256,uint256)":"28257532","equipAll(uint256,uint256,uint256,uint256,uint256,uint256,uint256,uint256)":"4a4333a3","firstSeasonRenderMinter()":"13ea0ae3","friendsListMerkleRoot()":"8f224757","getApproved(uint256)":"081812fc","getBackpackSVGs(uint256)":"14fe8ff4","getBodyImageSvg(uint256)":"916c546b","getBodySVGZmapsAndMetadata((uint256,uint256,uint256,uint256,uint256,uint256,uint256,uint32,uint256,uint8,string,bool))":"92012f08","getBodySvgAndMetadata((uint256,uint256,uint256,uint256,uint256,uint256,uint256,uint32,uint256,uint8,string,bool))":"a23830ae","getBodyZMap(uint256)":"306c7334","getChonk(uint256)":"d3d6873e","getChonkIdForTBAAddress(address)":"8472cbca","getChonkIdToApprovedOperators(uint256)":"67d2afe2","getChonkZMap(uint256)":"32875aa0","getFullPictureForTrait(uint256)":"66704349","getOwnerAndTBAAddressForChonkId(uint256)":"04003bd0","getTBAAddressForChonkId(uint256)":"f6a0c932","getTokenRenderZ(uint256)":"8200ea51","getTraitsForChonkId(uint256)":"9f6e4637","isApprovedForAll(address,address)":"e985e9c5","isTimelocked()":"50b03146","mainRenderer2D()":"f4bec0b6","mainRenderer3D()":"b66ef6e3","marketplace()":"abc8c7af","maxTraitsToOutput()":"e3d21555","mint(uint256,bytes32[])":"ba41b0c6","mintStartTime()":"931e2e49","name()":"06fdde03","oneYearFromDeployment()":"d59752eb","owner()":"8da5cb5b","ownerOf(uint256)":"6352211e","ownershipHandoverExpiresAt(address)":"fee81cf4","price()":"a035b1fe","renderAsDataUri(uint256)":"a1d62680","renderAsDataUri2D(uint256)":"f3f8efb9","renderAsDataUri3D(uint256)":"dceef0ec","renounceOwnership()":"715018a6","requestOwnershipHandover()":"25692962","safeTransferFrom(address,address,uint256)":"42842e0e","safeTransferFrom(address,address,uint256,bytes)":"b88d4fde","setApprovalForAll(address,bool)":"a22cb465","setApprovalForAllChonksMarketplace(uint256,address,bool)":"550ab247","setBackgroundColor(uint256,string)":"d68c4f32","setBodyIndex(uint256,uint8)":"e1405540","setChonksCreatorListMerkleRoot(bytes32)":"b99ce71f","setFirstSeasonRenderMinter(address)":"58a97640","setFriendsListMerkleRoot(bytes32)":"1ab37512","setMainRenderer2D(address)":"7e2e6c47","setMainRenderer3D(address)":"00179206","setMarketplace(address)":"73ad6c2d","setMaxTraitsToOutput(uint256)":"33d3d9bf","setMintStartTime(uint256)":"d5b3621b","setPrice(uint256)":"91b7f5ed","setSpecialCollectionMerkleRoot(bytes32)":"e29babbb","setTokenRender3D(uint256,bool)":"bef1dfb7","setTraitsContract(address)":"5eabd84a","setWithdrawAddress(address)":"3ab1a494","specialCollectionMerkleRoot()":"deab1d36","supportsInterface(bytes4)":"01ffc9a7","symbol()":"95d89b41","tbaAddressToTokenId(address)":"a4bf9a00","teamMint(address,uint256,uint8)":"6e51665f","teamReserve()":"4287f14a","tokenByIndex(uint256)":"4f6ccce7","tokenIdToTBAAccountAddress(uint256)":"9c05d68d","tokenOfOwnerByIndex(address,uint256)":"2f745c59","tokenURI(uint256)":"c87b56dd","totalSupply()":"18160ddd","traitsContract()":"c093afdb","transferFrom(address,address,uint256)":"23b872dd","transferOwnership(address)":"f2fde38b","unequip(uint256,uint8)":"cdb6dd5c","unequipAll(uint256)":"3044825b","walletOfOwner(address)":"438b6300","withdraw()":"3ccfd60b","withdrawAddress()":"1581b600"},"id":40}