{"abi":[{"type":"constructor","inputs":[],"stateMutability":"nonpayable"},{"type":"function","name":"_debugPostConstructorMint","inputs":[],"outputs":[],"stateMutability":"nonpayable"},{"type":"function","name":"addNewBody","inputs":[{"name":"_bodyIndex","type":"uint256","internalType":"uint256"},{"name":"_bodyName","type":"string","internalType":"string"},{"name":"_colorMap","type":"bytes","internalType":"bytes"},{"name":"_zMap","type":"bytes","internalType":"bytes"}],"outputs":[],"stateMutability":"nonpayable"},{"type":"function","name":"approve","inputs":[{"name":"_operator","type":"address","internalType":"address"},{"name":"_chonkId","type":"uint256","internalType":"uint256"}],"outputs":[],"stateMutability":"nonpayable"},{"type":"function","name":"balanceOf","inputs":[{"name":"owner","type":"address","internalType":"address"}],"outputs":[{"name":"","type":"uint256","internalType":"uint256"}],"stateMutability":"view"},{"type":"function","name":"bodyIndexToMetadata","inputs":[{"name":"","type":"uint256","internalType":"uint256"}],"outputs":[{"name":"bodyIndex","type":"uint256","internalType":"uint256"},{"name":"bodyName","type":"string","internalType":"string"},{"name":"colorMap","type":"bytes","internalType":"bytes"},{"name":"zMap","type":"bytes","internalType":"bytes"}],"stateMutability":"view"},{"type":"function","name":"cancelOwnershipHandover","inputs":[],"outputs":[],"stateMutability":"payable"},{"type":"function","name":"checkIfTraitIsEquipped","inputs":[{"name":"_chonkId","type":"uint256","internalType":"uint256"},{"name":"_traitId","type":"uint256","internalType":"uint256"}],"outputs":[{"name":"","type":"bool","internalType":"bool"}],"stateMutability":"view"},{"type":"function","name":"chonkEquipHelper","inputs":[],"outputs":[{"name":"","type":"address","internalType":"contract ChonkEquipHelper"}],"stateMutability":"view"},{"type":"function","name":"chonkIdToApprovedOperators","inputs":[{"name":"chonkId","type":"uint256","internalType":"uint256"},{"name":"","type":"uint256","internalType":"uint256"}],"outputs":[{"name":"operators","type":"address","internalType":"address"}],"stateMutability":"view"},{"type":"function","name":"chonkTokens","inputs":[{"name":"tokenID","type":"uint256","internalType":"uint256"}],"outputs":[{"name":"tokenId","type":"uint256","internalType":"uint256"},{"name":"headId","type":"uint256","internalType":"uint256"},{"name":"hairId","type":"uint256","internalType":"uint256"},{"name":"faceId","type":"uint256","internalType":"uint256"},{"name":"accessoryId","type":"uint256","internalType":"uint256"},{"name":"topId","type":"uint256","internalType":"uint256"},{"name":"bottomId","type":"uint256","internalType":"uint256"},{"name":"shoesId","type":"uint256","internalType":"uint256"},{"name":"bodyIndex","type":"uint8","internalType":"uint8"},{"name":"backgroundColor","type":"string","internalType":"string"},{"name":"render3D","type":"bool","internalType":"bool"}],"stateMutability":"view"},{"type":"function","name":"collectionsAddressDidUse","inputs":[{"name":"","type":"address","internalType":"address"}],"outputs":[{"name":"","type":"bool","internalType":"bool"}],"stateMutability":"view"},{"type":"function","name":"collectionsMerkle","inputs":[],"outputs":[{"name":"","type":"bytes32","internalType":"bytes32"}],"stateMutability":"view"},{"type":"function","name":"completeOwnershipHandover","inputs":[{"name":"pendingOwner","type":"address","internalType":"address"}],"outputs":[],"stateMutability":"payable"},{"type":"function","name":"creatorsAddressDidUse","inputs":[{"name":"","type":"address","internalType":"address"}],"outputs":[{"name":"","type":"bool","internalType":"bool"}],"stateMutability":"view"},{"type":"function","name":"creatorsMerkle","inputs":[],"outputs":[{"name":"","type":"bytes32","internalType":"bytes32"}],"stateMutability":"view"},{"type":"function","name":"deploymentTime","inputs":[],"outputs":[{"name":"","type":"uint256","internalType":"uint256"}],"stateMutability":"view"},{"type":"function","name":"equip","inputs":[{"name":"_chonkTokenId","type":"uint256","internalType":"uint256"},{"name":"_traitTokenId","type":"uint256","internalType":"uint256"}],"outputs":[],"stateMutability":"nonpayable"},{"type":"function","name":"equipAll","inputs":[{"name":"_chonkTokenId","type":"uint256","internalType":"uint256"},{"name":"_headTokenId","type":"uint256","internalType":"uint256"},{"name":"_hairTokenId","type":"uint256","internalType":"uint256"},{"name":"_faceTokenId","type":"uint256","internalType":"uint256"},{"name":"_accessoryTokenId","type":"uint256","internalType":"uint256"},{"name":"_topTokenId","type":"uint256","internalType":"uint256"},{"name":"_bottomTokenId","type":"uint256","internalType":"uint256"},{"name":"_shoesTokenId","type":"uint256","internalType":"uint256"}],"outputs":[],"stateMutability":"nonpayable"},{"type":"function","name":"firstReleaseDataMinter","inputs":[],"outputs":[{"name":"","type":"address","internalType":"contract FirstReleaseDataMinter"}],"stateMutability":"view"},{"type":"function","name":"friendsAddressDidUse","inputs":[{"name":"","type":"address","internalType":"address"}],"outputs":[{"name":"","type":"bool","internalType":"bool"}],"stateMutability":"view"},{"type":"function","name":"friendsMerkle","inputs":[],"outputs":[{"name":"","type":"bytes32","internalType":"bytes32"}],"stateMutability":"view"},{"type":"function","name":"getApproved","inputs":[{"name":"tokenId","type":"uint256","internalType":"uint256"}],"outputs":[{"name":"","type":"address","internalType":"address"}],"stateMutability":"view"},{"type":"function","name":"getBackpackSVGs","inputs":[{"name":"_tokenId","type":"uint256","internalType":"uint256"}],"outputs":[{"name":"","type":"string","internalType":"string"}],"stateMutability":"view"},{"type":"function","name":"getBodyImageSvg","inputs":[{"name":"_index","type":"uint256","internalType":"uint256"}],"outputs":[{"name":"svg","type":"string","internalType":"string"}],"stateMutability":"view"},{"type":"function","name":"getBodySVGZmapsAndMetadata","inputs":[{"name":"storedChonk","type":"tuple","internalType":"struct IChonkStorage.StoredChonk","components":[{"name":"tokenId","type":"uint256","internalType":"uint256"},{"name":"headId","type":"uint256","internalType":"uint256"},{"name":"hairId","type":"uint256","internalType":"uint256"},{"name":"faceId","type":"uint256","internalType":"uint256"},{"name":"accessoryId","type":"uint256","internalType":"uint256"},{"name":"topId","type":"uint256","internalType":"uint256"},{"name":"bottomId","type":"uint256","internalType":"uint256"},{"name":"shoesId","type":"uint256","internalType":"uint256"},{"name":"bodyIndex","type":"uint8","internalType":"uint8"},{"name":"backgroundColor","type":"string","internalType":"string"},{"name":"render3D","type":"bool","internalType":"bool"}]}],"outputs":[{"name":"","type":"string","internalType":"string"},{"name":"","type":"bytes","internalType":"bytes"},{"name":"","type":"string","internalType":"string"}],"stateMutability":"view"},{"type":"function","name":"getBodySvgAndMetadata","inputs":[{"name":"storedChonk","type":"tuple","internalType":"struct IChonkStorage.StoredChonk","components":[{"name":"tokenId","type":"uint256","internalType":"uint256"},{"name":"headId","type":"uint256","internalType":"uint256"},{"name":"hairId","type":"uint256","internalType":"uint256"},{"name":"faceId","type":"uint256","internalType":"uint256"},{"name":"accessoryId","type":"uint256","internalType":"uint256"},{"name":"topId","type":"uint256","internalType":"uint256"},{"name":"bottomId","type":"uint256","internalType":"uint256"},{"name":"shoesId","type":"uint256","internalType":"uint256"},{"name":"bodyIndex","type":"uint8","internalType":"uint8"},{"name":"backgroundColor","type":"string","internalType":"string"},{"name":"render3D","type":"bool","internalType":"bool"}]}],"outputs":[{"name":"","type":"string","internalType":"string"},{"name":"","type":"string","internalType":"string"}],"stateMutability":"view"},{"type":"function","name":"getBodyZMap","inputs":[{"name":"_tokenId","type":"uint256","internalType":"uint256"}],"outputs":[{"name":"","type":"string","internalType":"string"}],"stateMutability":"view"},{"type":"function","name":"getChonk","inputs":[{"name":"_tokenId","type":"uint256","internalType":"uint256"}],"outputs":[{"name":"","type":"tuple","internalType":"struct IChonkStorage.StoredChonk","components":[{"name":"tokenId","type":"uint256","internalType":"uint256"},{"name":"headId","type":"uint256","internalType":"uint256"},{"name":"hairId","type":"uint256","internalType":"uint256"},{"name":"faceId","type":"uint256","internalType":"uint256"},{"name":"accessoryId","type":"uint256","internalType":"uint256"},{"name":"topId","type":"uint256","internalType":"uint256"},{"name":"bottomId","type":"uint256","internalType":"uint256"},{"name":"shoesId","type":"uint256","internalType":"uint256"},{"name":"bodyIndex","type":"uint8","internalType":"uint8"},{"name":"backgroundColor","type":"string","internalType":"string"},{"name":"render3D","type":"bool","internalType":"bool"}]}],"stateMutability":"view"},{"type":"function","name":"getChonkIdForTBAAddress","inputs":[{"name":"_tbaAddress","type":"address","internalType":"address"}],"outputs":[{"name":"","type":"uint256","internalType":"uint256"}],"stateMutability":"view"},{"type":"function","name":"getChonkIdToApprovedOperators","inputs":[{"name":"_chonkId","type":"uint256","internalType":"uint256"}],"outputs":[{"name":"","type":"address[]","internalType":"address[]"}],"stateMutability":"view"},{"type":"function","name":"getChonkZMap","inputs":[{"name":"_tokenId","type":"uint256","internalType":"uint256"}],"outputs":[{"name":"","type":"string","internalType":"string"}],"stateMutability":"view"},{"type":"function","name":"getFullPictureForTrait","inputs":[{"name":"_chonkTraitTokenId","type":"uint256","internalType":"uint256"}],"outputs":[{"name":"traitOwnerTBA","type":"address","internalType":"address"},{"name":"chonkTokenId","type":"uint256","internalType":"uint256"},{"name":"chonkOwner","type":"address","internalType":"address"},{"name":"isEquipped","type":"bool","internalType":"bool"}],"stateMutability":"view"},{"type":"function","name":"getOwnerAndTBAAddressForChonkId","inputs":[{"name":"_chonkId","type":"uint256","internalType":"uint256"}],"outputs":[{"name":"owner","type":"address","internalType":"address"},{"name":"tbaAddress","type":"address","internalType":"address"}],"stateMutability":"view"},{"type":"function","name":"getTBAAddressForChonkId","inputs":[{"name":"_chonkId","type":"uint256","internalType":"uint256"}],"outputs":[{"name":"","type":"address","internalType":"address"}],"stateMutability":"view"},{"type":"function","name":"getTraitsForChonkId","inputs":[{"name":"_chonkId","type":"uint256","internalType":"uint256"}],"outputs":[{"name":"traitTokens","type":"uint256[]","internalType":"uint256[]"}],"stateMutability":"view"},{"type":"function","name":"initialMintStartTime","inputs":[],"outputs":[{"name":"","type":"uint256","internalType":"uint256"}],"stateMutability":"view"},{"type":"function","name":"isApprovedForAll","inputs":[{"name":"owner","type":"address","internalType":"address"},{"name":"operator","type":"address","internalType":"address"}],"outputs":[{"name":"","type":"bool","internalType":"bool"}],"stateMutability":"view"},{"type":"function","name":"isTimelocked","inputs":[],"outputs":[{"name":"","type":"bool","internalType":"bool"}],"stateMutability":"view"},{"type":"function","name":"mainRenderer2D","inputs":[],"outputs":[{"name":"","type":"address","internalType":"contract MainRenderer2D"}],"stateMutability":"view"},{"type":"function","name":"mainRenderer3D","inputs":[],"outputs":[{"name":"","type":"address","internalType":"contract MainRenderer3D"}],"stateMutability":"view"},{"type":"function","name":"marketplace","inputs":[],"outputs":[{"name":"","type":"address","internalType":"contract ChonksMarket"}],"stateMutability":"view"},{"type":"function","name":"maxTraitsToOutput","inputs":[],"outputs":[{"name":"","type":"uint256","internalType":"uint256"}],"stateMutability":"view"},{"type":"function","name":"mint","inputs":[{"name":"_amount","type":"uint256","internalType":"uint256"},{"name":"_merkleProof","type":"bytes32[]","internalType":"bytes32[]"}],"outputs":[],"stateMutability":"payable"},{"type":"function","name":"name","inputs":[],"outputs":[{"name":"","type":"string","internalType":"string"}],"stateMutability":"view"},{"type":"function","name":"nextTokenId","inputs":[],"outputs":[{"name":"","type":"uint256","internalType":"uint256"}],"stateMutability":"view"},{"type":"function","name":"oneYearFromDeployment","inputs":[],"outputs":[{"name":"","type":"uint256","internalType":"uint256"}],"stateMutability":"view"},{"type":"function","name":"owner","inputs":[],"outputs":[{"name":"result","type":"address","internalType":"address"}],"stateMutability":"view"},{"type":"function","name":"ownerOf","inputs":[{"name":"tokenId","type":"uint256","internalType":"uint256"}],"outputs":[{"name":"","type":"address","internalType":"address"}],"stateMutability":"view"},{"type":"function","name":"ownershipHandoverExpiresAt","inputs":[{"name":"pendingOwner","type":"address","internalType":"address"}],"outputs":[{"name":"result","type":"uint256","internalType":"uint256"}],"stateMutability":"view"},{"type":"function","name":"price","inputs":[],"outputs":[{"name":"","type":"uint256","internalType":"uint256"}],"stateMutability":"view"},{"type":"function","name":"renderAsDataUri","inputs":[{"name":"_tokenId","type":"uint256","internalType":"uint256"}],"outputs":[{"name":"","type":"string","internalType":"string"}],"stateMutability":"view"},{"type":"function","name":"renderAsDataUri2D","inputs":[{"name":"_tokenId","type":"uint256","internalType":"uint256"}],"outputs":[{"name":"","type":"string","internalType":"string"}],"stateMutability":"view"},{"type":"function","name":"renderAsDataUri3D","inputs":[{"name":"_tokenId","type":"uint256","internalType":"uint256"}],"outputs":[{"name":"","type":"string","internalType":"string"}],"stateMutability":"view"},{"type":"function","name":"renounceOwnership","inputs":[],"outputs":[],"stateMutability":"payable"},{"type":"function","name":"requestOwnershipHandover","inputs":[],"outputs":[],"stateMutability":"payable"},{"type":"function","name":"safeTransferFrom","inputs":[{"name":"from","type":"address","internalType":"address"},{"name":"to","type":"address","internalType":"address"},{"name":"tokenId","type":"uint256","internalType":"uint256"}],"outputs":[],"stateMutability":"nonpayable"},{"type":"function","name":"safeTransferFrom","inputs":[{"name":"from","type":"address","internalType":"address"},{"name":"to","type":"address","internalType":"address"},{"name":"tokenId","type":"uint256","internalType":"uint256"},{"name":"data","type":"bytes","internalType":"bytes"}],"outputs":[],"stateMutability":"nonpayable"},{"type":"function","name":"setApprovalForAll","inputs":[{"name":"_operator","type":"address","internalType":"address"},{"name":"_approved","type":"bool","internalType":"bool"}],"outputs":[],"stateMutability":"nonpayable"},{"type":"function","name":"setApprovalForAllChonksMarketplace","inputs":[{"name":"_chonkId","type":"uint256","internalType":"uint256"},{"name":"_operator","type":"address","internalType":"address"},{"name":"_approved","type":"bool","internalType":"bool"}],"outputs":[],"stateMutability":"nonpayable"},{"type":"function","name":"setChonkAttributes","inputs":[{"name":"_tokenId","type":"uint256","internalType":"uint256"},{"name":"_color","type":"string","internalType":"string"},{"name":"_bodyIndex","type":"uint8","internalType":"uint8"},{"name":"_render3D","type":"bool","internalType":"bool"}],"outputs":[],"stateMutability":"nonpayable"},{"type":"function","name":"setChonkEquipHelper","inputs":[{"name":"_chonkEquipHelper","type":"address","internalType":"address"}],"outputs":[],"stateMutability":"nonpayable"},{"type":"function","name":"setCollectionsMerkle","inputs":[{"name":"_merkleRoot","type":"bytes32","internalType":"bytes32"}],"outputs":[],"stateMutability":"nonpayable"},{"type":"function","name":"setCreatorsMerkle","inputs":[{"name":"_merkleRoot","type":"bytes32","internalType":"bytes32"}],"outputs":[],"stateMutability":"nonpayable"},{"type":"function","name":"setDescriptionParts","inputs":[{"name":"_descriptionParts","type":"string[2]","internalType":"string[2]"}],"outputs":[],"stateMutability":"nonpayable"},{"type":"function","name":"setFirstReleaseDataMinter","inputs":[{"name":"_dataContract","type":"address","internalType":"address"}],"outputs":[],"stateMutability":"nonpayable"},{"type":"function","name":"setFriendsMerkleRoot","inputs":[{"name":"_merkleRoot","type":"bytes32","internalType":"bytes32"}],"outputs":[],"stateMutability":"nonpayable"},{"type":"function","name":"setMainRenderer2D","inputs":[{"name":"_mainRenderer2D","type":"address","internalType":"address"}],"outputs":[],"stateMutability":"nonpayable"},{"type":"function","name":"setMainRenderer3D","inputs":[{"name":"_mainRenderer3D","type":"address","internalType":"address"}],"outputs":[],"stateMutability":"nonpayable"},{"type":"function","name":"setMarketplace","inputs":[{"name":"_marketplace","type":"address","internalType":"address"}],"outputs":[],"stateMutability":"nonpayable"},{"type":"function","name":"setMaxTraitsToOutput","inputs":[{"name":"_maxTraitsToOutput","type":"uint256","internalType":"uint256"}],"outputs":[],"stateMutability":"nonpayable"},{"type":"function","name":"setMintStartTime","inputs":[{"name":"_initialMintStartTime","type":"uint256","internalType":"uint256"}],"outputs":[],"stateMutability":"nonpayable"},{"type":"function","name":"setPrice","inputs":[{"name":"_priceInWei","type":"uint256","internalType":"uint256"}],"outputs":[],"stateMutability":"nonpayable"},{"type":"function","name":"setTraitsContract","inputs":[{"name":"_address","type":"address","internalType":"contract ChonkTraits"}],"outputs":[],"stateMutability":"nonpayable"},{"type":"function","name":"setWithdrawAddress","inputs":[{"name":"_withdrawAddress","type":"address","internalType":"address"}],"outputs":[],"stateMutability":"nonpayable"},{"type":"function","name":"supportsInterface","inputs":[{"name":"interfaceId","type":"bytes4","internalType":"bytes4"}],"outputs":[{"name":"","type":"bool","internalType":"bool"}],"stateMutability":"view"},{"type":"function","name":"symbol","inputs":[],"outputs":[{"name":"","type":"string","internalType":"string"}],"stateMutability":"view"},{"type":"function","name":"tbaAddressToTokenId","inputs":[{"name":"","type":"address","internalType":"address"}],"outputs":[{"name":"","type":"uint256","internalType":"uint256"}],"stateMutability":"view"},{"type":"function","name":"teamMint","inputs":[{"name":"_to","type":"address","internalType":"address"},{"name":"_amount","type":"uint256","internalType":"uint256"},{"name":"_traitCount","type":"uint8","internalType":"uint8"}],"outputs":[],"stateMutability":"nonpayable"},{"type":"function","name":"teamReserve","inputs":[],"outputs":[],"stateMutability":"nonpayable"},{"type":"function","name":"tokenByIndex","inputs":[{"name":"index","type":"uint256","internalType":"uint256"}],"outputs":[{"name":"","type":"uint256","internalType":"uint256"}],"stateMutability":"view"},{"type":"function","name":"tokenIdToTBAAccountAddress","inputs":[{"name":"","type":"uint256","internalType":"uint256"}],"outputs":[{"name":"","type":"address","internalType":"address"}],"stateMutability":"view"},{"type":"function","name":"tokenOfOwnerByIndex","inputs":[{"name":"owner","type":"address","internalType":"address"},{"name":"index","type":"uint256","internalType":"uint256"}],"outputs":[{"name":"","type":"uint256","internalType":"uint256"}],"stateMutability":"view"},{"type":"function","name":"tokenURI","inputs":[{"name":"_tokenId","type":"uint256","internalType":"uint256"}],"outputs":[{"name":"","type":"string","internalType":"string"}],"stateMutability":"view"},{"type":"function","name":"totalSupply","inputs":[],"outputs":[{"name":"","type":"uint256","internalType":"uint256"}],"stateMutability":"view"},{"type":"function","name":"traitsContract","inputs":[],"outputs":[{"name":"","type":"address","internalType":"contract ChonkTraits"}],"stateMutability":"view"},{"type":"function","name":"transferFrom","inputs":[{"name":"from","type":"address","internalType":"address"},{"name":"to","type":"address","internalType":"address"},{"name":"tokenId","type":"uint256","internalType":"uint256"}],"outputs":[],"stateMutability":"nonpayable"},{"type":"function","name":"transferOwnership","inputs":[{"name":"newOwner","type":"address","internalType":"address"}],"outputs":[],"stateMutability":"payable"},{"type":"function","name":"unequip","inputs":[{"name":"_chonkTokenId","type":"uint256","internalType":"uint256"},{"name":"traitType","type":"uint8","internalType":"enum TraitCategory.Name"}],"outputs":[],"stateMutability":"nonpayable"},{"type":"function","name":"unequipAll","inputs":[{"name":"_chonkTokenId","type":"uint256","internalType":"uint256"}],"outputs":[],"stateMutability":"nonpayable"},{"type":"function","name":"walletOfOwner","inputs":[{"name":"_owner","type":"address","internalType":"address"}],"outputs":[{"name":"","type":"uint256[]","internalType":"uint256[]"}],"stateMutability":"view"},{"type":"function","name":"withdraw","inputs":[],"outputs":[],"stateMutability":"nonpayable"},{"type":"function","name":"withdrawAddress","inputs":[],"outputs":[{"name":"","type":"address","internalType":"address"}],"stateMutability":"view"},{"type":"event","name":"Approval","inputs":[{"name":"owner","type":"address","indexed":true,"internalType":"address"},{"name":"approved","type":"address","indexed":true,"internalType":"address"},{"name":"tokenId","type":"uint256","indexed":true,"internalType":"uint256"}],"anonymous":false},{"type":"event","name":"ApprovalForAll","inputs":[{"name":"owner","type":"address","indexed":true,"internalType":"address"},{"name":"operator","type":"address","indexed":true,"internalType":"address"},{"name":"approved","type":"bool","indexed":false,"internalType":"bool"}],"anonymous":false},{"type":"event","name":"BatchMetadataUpdate","inputs":[{"name":"_fromTokenId","type":"uint256","indexed":false,"internalType":"uint256"},{"name":"_toTokenId","type":"uint256","indexed":false,"internalType":"uint256"}],"anonymous":false},{"type":"event","name":"Equip","inputs":[{"name":"owner","type":"address","indexed":true,"internalType":"address"},{"name":"tokenId","type":"uint256","indexed":true,"internalType":"uint256"},{"name":"traitTokenId","type":"uint256","indexed":true,"internalType":"uint256"},{"name":"traitCategory","type":"uint8","indexed":false,"internalType":"uint8"}],"anonymous":false},{"type":"event","name":"EquipAll","inputs":[{"name":"owner","type":"address","indexed":true,"internalType":"address"},{"name":"tokenId","type":"uint256","indexed":true,"internalType":"uint256"}],"anonymous":false},{"type":"event","name":"MetadataUpdate","inputs":[{"name":"_tokenId","type":"uint256","indexed":false,"internalType":"uint256"}],"anonymous":false},{"type":"event","name":"Mint","inputs":[{"name":"owner","type":"address","indexed":true,"internalType":"address"},{"name":"tokenId","type":"uint256","indexed":true,"internalType":"uint256"}],"anonymous":false},{"type":"event","name":"OwnershipHandoverCanceled","inputs":[{"name":"pendingOwner","type":"address","indexed":true,"internalType":"address"}],"anonymous":false},{"type":"event","name":"OwnershipHandoverRequested","inputs":[{"name":"pendingOwner","type":"address","indexed":true,"internalType":"address"}],"anonymous":false},{"type":"event","name":"OwnershipTransferred","inputs":[{"name":"oldOwner","type":"address","indexed":true,"internalType":"address"},{"name":"newOwner","type":"address","indexed":true,"internalType":"address"}],"anonymous":false},{"type":"event","name":"Transfer","inputs":[{"name":"from","type":"address","indexed":true,"internalType":"address"},{"name":"to","type":"address","indexed":true,"internalType":"address"},{"name":"tokenId","type":"uint256","indexed":true,"internalType":"uint256"}],"anonymous":false},{"type":"event","name":"Unequip","inputs":[{"name":"owner","type":"address","indexed":true,"internalType":"address"},{"name":"tokenId","type":"uint256","indexed":true,"internalType":"uint256"},{"name":"traitCategory","type":"uint8","indexed":false,"internalType":"uint8"}],"anonymous":false},{"type":"event","name":"UnequipAll","inputs":[{"name":"owner","type":"address","indexed":true,"internalType":"address"},{"name":"tokenId","type":"uint256","indexed":true,"internalType":"uint256"}],"anonymous":false},{"type":"error","name":"AlreadyInitialized","inputs":[]},{"type":"error","name":"CanOnlyReserveFirstTwo","inputs":[]},{"type":"error","name":"CantTransferDuringMint","inputs":[]},{"type":"error","name":"CantTransferToTBAs","inputs":[]},{"type":"error","name":"ChonkDoesntExist","inputs":[]},{"type":"error","name":"FirstReleaseDataMinterNotSet","inputs":[]},{"type":"error","name":"IncorrectChonkOwner","inputs":[]},{"type":"error","name":"IncorrectTBAOwner","inputs":[]},{"type":"error","name":"IncorrectTraitType","inputs":[]},{"type":"error","name":"InsufficientFunds","inputs":[]},{"type":"error","name":"InvalidBodyIndex","inputs":[]},{"type":"error","name":"InvalidColor","inputs":[]},{"type":"error","name":"InvalidMintAmount","inputs":[]},{"type":"error","name":"InvalidTraitCount","inputs":[]},{"type":"error","name":"MintEnded","inputs":[]},{"type":"error","name":"MintNotStarted","inputs":[]},{"type":"error","name":"MintStartTimeAlreadySet","inputs":[]},{"type":"error","name":"NewOwnerIsZeroAddress","inputs":[]},{"type":"error","name":"NoHandoverRequest","inputs":[]},{"type":"error","name":"Timelocked","inputs":[]},{"type":"error","name":"Unauthorized","inputs":[]},{"type":"error","name":"UseUnequip","inputs":[]},{"type":"error","name":"WithdrawFailed","inputs":[]}],"bytecode":{"object":"0x60a060405260636012553480156200001657600080fd5b506040518060400160405280600681526020016543686f6e6b7360d01b8152506040518060400160405280600681526020016543484f4e4b5360d01b815250816000908162000066919062000175565b50600162000075828262000175565b50506001600a5550620000883362000092565b4260805262000241565b6001600160a01b0316638b78c6d8198190558060007f8be0079c531659141344cd1fd0a4f28419497f9722a3daafe3b4186f6b6457e08180a350565b634e487b7160e01b600052604160045260246000fd5b600181811c90821680620000f957607f821691505b6020821081036200011a57634e487b7160e01b600052602260045260246000fd5b50919050565b601f82111562000170576000816000526020600020601f850160051c810160208610156200014b5750805b601f850160051c820191505b818110156200016c5782815560010162000157565b5050505b505050565b81516001600160401b03811115620001915762000191620000ce565b620001a981620001a28454620000e4565b8462000120565b602080601f831160018114620001e15760008415620001c85750858301515b600019600386901b1c1916600185901b1785556200016c565b600085815260208120601f198616915b828110156200021257888601518255948401946001909101908401620001f1565b5085821015620002315787850151600019600388901b60f8161c191681555b5050505050600190811b01905550565b608051615f506200026460003960008181610ff4015261321f0152615f506000f3fe6080604052600436106104f65760003560e01c80638472cbca1161028c578063b91fdc8c1161015a578063e3d21555116100cc578063f3f8efb911610085578063f3f8efb91461105c578063f4bec0b61461107c578063f6a0c9321461109c578063fc863e64146110d2578063fd8b66de146110e8578063fee81cf41461110857600080fd5b8063e3d2155514610f83578063e985e9c514610f99578063ecda10f514610fe2578063f04e283e14611016578063f2361e2314611029578063f2fde38b1461104957600080fd5b8063c87b56dd1161011e578063c87b56dd14610ec1578063cdb6dd5c14610ee1578063d3d6873e14610f01578063d59752eb14610f2e578063d5b3621b14610f43578063dceef0ec14610f6357600080fd5b8063b91fdc8c14610e19578063ba3589c814610e2f578063ba41b0c614610e5e578063be7ff59a14610e71578063c093afdb14610ea157600080fd5b8063a035b1fe116101fe578063b014b77a116101b7578063b014b77a14610d34578063b194b6f114610d62578063b45d031614610d82578063b66ef6e314610db9578063b84b160d14610dd9578063b88d4fde14610df957600080fd5b8063a035b1fe14610c7b578063a153178014610c91578063a1d6268014610ca7578063a22cb46514610cc7578063a4bf9a0014610ce7578063abc8c7af14610d1457600080fd5b806391b7f5ed1161025057806391b7f5ed14610bbb57806395d89b4114610bdb5780639c05d68d14610bf05780639c7be2f114610c265780639eb2660c14610c3b5780639f6e463714610c5b57600080fd5b80638472cbca14610b0c5780638aa1e4c814610b425780638d2a2f1114610b625780638da5cb5b14610b82578063916c546b14610b9b57600080fd5b80633ccfd60b116103c95780635eabd84a1161033b578063715018a6116102f4578063715018a614610a7857806373ad6c2d14610a8057806375676db814610aa057806375794a3c14610ac05780637e2e6c4714610ad657806380d833f114610af657600080fd5b80635eabd84a146109765780636352211e1461099657806366704349146109b657806367d2afe214610a0b5780636e51665f14610a3857806370a0823114610a5857600080fd5b80634f6ccce71161038d5780634f6ccce7146108c957806350b03146146108e957806354d1f13d146108fe578063550ab2471461090657806355737f351461092657806359d591d01461094657600080fd5b80633ccfd60b1461083257806342842e0e146108475780634287f14a14610867578063438b63001461087c5780634a4333a3146108a957600080fd5b80631e8ff18f1161046d5780633044825b116104265780633044825b14610772578063306c73341461079257806332875aa0146107b257806333d3d9bf146107d2578063343b4887146107f25780633ab1a4941461081257600080fd5b80631e8ff18f146106bb57806323b872dd146106ea578063256929621461070a57806326f2052a1461071257806328257532146107325780632f745c591461075257600080fd5b8063095ea7b3116104bf578063095ea7b3146105ec5780630a99a3501461060c5780630c83f9d71461062c57806314fe8ff41461065c5780631581b6001461067c57806318160ddd1461069c57600080fd5b8062179206146104fb57806301ffc9a71461051d57806304003bd01461055257806306fdde0314610592578063081812fc146105b4575b600080fd5b34801561050757600080fd5b5061051b610516366004614d78565b61113b565b005b34801561052957600080fd5b5061053d610538366004614dab565b61118b565b60405190151581526020015b60405180910390f35b34801561055e57600080fd5b5061057261056d366004614dc8565b61119c565b604080516001600160a01b03938416815292909116602083015201610549565b34801561059e57600080fd5b506105a76111cb565b6040516105499190614e31565b3480156105c057600080fd5b506105d46105cf366004614dc8565b61125d565b6040516001600160a01b039091168152602001610549565b3480156105f857600080fd5b5061051b610607366004614e44565b611284565b34801561061857600080fd5b5061051b610627366004614d78565b6112d5565b34801561063857600080fd5b5061064c610647366004614dc8565b611325565b6040516105499493929190614e70565b34801561066857600080fd5b506105a7610677366004614dc8565b6114e6565b34801561068857600080fd5b506014546105d4906001600160a01b031681565b3480156106a857600080fd5b506008545b604051908152602001610549565b3480156106c757600080fd5b5061053d6106d6366004614d78565b602080526000908152604090205460ff1681565b3480156106f657600080fd5b5061051b610705366004614eba565b61159f565b61051b6115de565b34801561071e57600080fd5b5061051b61072d366004615009565b61162d565b34801561073e57600080fd5b5061051b61074d3660046150a3565b611642565b34801561075e57600080fd5b506106ad61076d366004614e44565b611770565b34801561077e57600080fd5b5061051b61078d366004614dc8565b611806565b34801561079e57600080fd5b506105a76107ad366004614dc8565b6118c5565b3480156107be57600080fd5b506105a76107cd366004614dc8565b6118dd565b3480156107de57600080fd5b5061051b6107ed366004614dc8565b611994565b3480156107fe57600080fd5b5061051b61080d3660046150eb565b6119a1565b34801561081e57600080fd5b5061051b61082d366004614d78565b611bca565b34801561083e57600080fd5b5061051b611bf4565b34801561085357600080fd5b5061051b610862366004614eba565b611c73565b34801561087357600080fd5b5061051b611c8e565b34801561088857600080fd5b5061089c610897366004614d78565b611ccf565b6040516105499190615152565b3480156108b557600080fd5b5061051b6108c4366004615196565b611d66565b3480156108d557600080fd5b506106ad6108e4366004614dc8565b6122ca565b3480156108f557600080fd5b5061053d61235d565b61051b61236e565b34801561091257600080fd5b5061051b6109213660046151eb565b6123aa565b34801561093257600080fd5b506105d46109413660046150a3565b612400565b34801561095257600080fd5b5061053d610961366004614d78565b60226020526000908152604090205460ff1681565b34801561098257600080fd5b5061051b610991366004614d78565b612438565b3480156109a257600080fd5b506105d46109b1366004614dc8565b612488565b3480156109c257600080fd5b506109d66109d1366004614dc8565b6124e8565b60405161054994939291906001600160a01b039485168152602081019390935292166040820152901515606082015260800190565b348015610a1757600080fd5b50610a2b610a26366004614dc8565b61259a565b604051610549919061526e565b348015610a4457600080fd5b5061051b610a53366004615281565b612606565b348015610a6457600080fd5b506106ad610a73366004614d78565b6126aa565b61051b612730565b348015610a8c57600080fd5b5061051b610a9b366004614d78565b612742565b348015610aac57600080fd5b50600e546105d4906001600160a01b031681565b348015610acc57600080fd5b506106ad60135481565b348015610ae257600080fd5b5061051b610af1366004614d78565b612792565b348015610b0257600080fd5b506106ad601d5481565b348015610b1857600080fd5b506106ad610b27366004614d78565b6001600160a01b03166000908152601b602052604090205490565b348015610b4e57600080fd5b5061053d610b5d3660046150a3565b6127e2565b348015610b6e57600080fd5b5061051b610b7d366004614dc8565b612853565b348015610b8e57600080fd5b50638b78c6d819546105d4565b348015610ba757600080fd5b506105a7610bb6366004614dc8565b612860565b348015610bc757600080fd5b5061051b610bd6366004614dc8565b6128a2565b348015610be757600080fd5b506105a76128af565b348015610bfc57600080fd5b506105d4610c0b366004614dc8565b601a602052600090815260409020546001600160a01b031681565b348015610c3257600080fd5b5061051b6128be565b348015610c4757600080fd5b5061051b610c56366004614dc8565b6128e0565b348015610c6757600080fd5b5061089c610c76366004614dc8565b6128ed565b348015610c8757600080fd5b506106ad60155481565b348015610c9d57600080fd5b506106ad601f5481565b348015610cb357600080fd5b506105a7610cc2366004614dc8565b612983565b348015610cd357600080fd5b5061051b610ce23660046152b6565b6129ae565b348015610cf357600080fd5b506106ad610d02366004614d78565b601b6020526000908152604090205481565b348015610d2057600080fd5b50600d546105d4906001600160a01b031681565b348015610d4057600080fd5b50610d54610d4f3660046152eb565b612a27565b6040516105499291906153d2565b348015610d6e57600080fd5b5061051b610d7d366004614dc8565b612ad5565b348015610d8e57600080fd5b50610da2610d9d366004614dc8565b612ae2565b6040516105499b9a99989796959493929190615400565b348015610dc557600080fd5b506011546105d4906001600160a01b031681565b348015610de557600080fd5b5061051b610df4366004614d78565b612bcc565b348015610e0557600080fd5b5061051b610e1436600461546b565b612c1c565b348015610e2557600080fd5b506106ad60165481565b348015610e3b57600080fd5b50610e4f610e4a3660046152eb565b612c4e565b604051610549939291906154d6565b61051b610e6c36600461553c565b612d9f565b348015610e7d57600080fd5b5061053d610e8c366004614d78565b60216020526000908152604090205460ff1681565b348015610ead57600080fd5b50600c546105d4906001600160a01b031681565b348015610ecd57600080fd5b506105a7610edc366004614dc8565b612fa4565b348015610eed57600080fd5b5061051b610efc3660046155e5565b612fe5565b348015610f0d57600080fd5b50610f21610f1c366004614dc8565b61308d565b6040516105499190615615565b348015610f3a57600080fd5b506106ad613218565b348015610f4f57600080fd5b5061051b610f5e366004614dc8565b61324d565b348015610f6f57600080fd5b506105a7610f7e366004614dc8565b61327b565b348015610f8f57600080fd5b506106ad60125481565b348015610fa557600080fd5b5061053d610fb43660046156b5565b6001600160a01b03918216600090815260056020908152604080832093909416825291909152205460ff1690565b348015610fee57600080fd5b506106ad7f000000000000000000000000000000000000000000000000000000000000000081565b61051b611024366004614d78565b613556565b34801561103557600080fd5b5061051b6110443660046156e3565b613593565b61051b611057366004614d78565b613606565b34801561106857600080fd5b506105a7611077366004614dc8565b61362d565b34801561108857600080fd5b506010546105d4906001600160a01b031681565b3480156110a857600080fd5b506105d46110b7366004614dc8565b6000908152601a60205260409020546001600160a01b031690565b3480156110de57600080fd5b506106ad601e5481565b3480156110f457600080fd5b50600f546105d4906001600160a01b031681565b34801561111457600080fd5b506106ad611123366004614d78565b63389a75e1600c908152600091909152602090205490565b6111436138e3565b61114b61235d565b156111695760405163774ae17d60e01b815260040160405180910390fd5b601180546001600160a01b0319166001600160a01b0392909216919091179055565b6000611196826138fe565b92915050565b6000806111a883612488565b6000938452601a60205260409093205492936001600160a01b0390931692915050565b6060600080546111da90615768565b80601f016020809104026020016040519081016040528092919081815260200182805461120690615768565b80156112535780601f1061122857610100808354040283529160200191611253565b820191906000526020600020905b81548152906001019060200180831161123657829003601f168201915b5050505050905090565b600061126882613923565b506000908152600460205260409020546001600160a01b031690565b61128d81612488565b6001600160a01b0316336001600160a01b0316146112bd576040516282b42960e81b815260040160405180910390fd5b6112c78183613982565b6112d182826139c1565b5050565b6112dd6138e3565b6112e561235d565b156113035760405163774ae17d60e01b815260040160405180910390fd5b600e80546001600160a01b0319166001600160a01b0392909216919091179055565b600b602052600090815260409020805460018201805491929161134790615768565b80601f016020809104026020016040519081016040528092919081815260200182805461137390615768565b80156113c05780601f10611395576101008083540402835291602001916113c0565b820191906000526020600020905b8154815290600101906020018083116113a357829003601f168201915b5050505050908060020180546113d590615768565b80601f016020809104026020016040519081016040528092919081815260200182805461140190615768565b801561144e5780601f106114235761010080835404028352916020019161144e565b820191906000526020600020905b81548152906001019060200180831161143157829003601f168201915b50505050509080600301805461146390615768565b80601f016020809104026020016040519081016040528092919081815260200182805461148f90615768565b80156114dc5780601f106114b1576101008083540402835291602001916114dc565b820191906000526020600020905b8154815290600101906020018083116114bf57829003601f168201915b5050505050905084565b601054600c546060916001600160a01b03908116916327707b149116611521856000908152601a60205260409020546001600160a01b031690565b6012546040516001600160e01b031960e086901b1681526001600160a01b03938416600482015292909116602483015260448201526064015b600060405180830381865afa158015611577573d6000803e3d6000fd5b505050506040513d6000823e601f3d908101601f1916820160405261119691908101906157f2565b6115a93382613a2f565b6115ce5760405162461bcd60e51b81526004016115c590615826565b60405180910390fd5b6115d9838383613aad565b505050565b60006202a3006001600160401b03164201905063389a75e1600c5233600052806020600c2055337fdbf36a107da19e49527a7176a1babf963b4b0ff8cde35ee35d6cd8f1f9ac7e1d600080a250565b6116356138e3565b6112d16017826002614c3c565b8161164c81612488565b6001600160a01b0316336001600160a01b03161461167d57604051631431735b60e21b815260040160405180910390fd5b8160000361169e57604051630754c7f360e41b815260040160405180910390fd5b600e546040516341e2a37360e01b815260048101859052602481018490526000916001600160a01b0316906341e2a37390604401602060405180830381865afa1580156116ef573d6000803e3d6000fd5b505050506040513d601f19601f820116820180604052508101906117139190615874565b9050611720848285613c5a565b828461172b86612488565b6001600160a01b0316600080516020615efb83398151915284600781111561175557611755615891565b60405160ff909116815260200160405180910390a450505050565b600061177b836126aa565b82106117dd5760405162461bcd60e51b815260206004820152602b60248201527f455243373231456e756d657261626c653a206f776e657220696e646578206f7560448201526a74206f6620626f756e647360a81b60648201526084016115c5565b506001600160a01b03919091166000908152600660209081526040808320938352929052205490565b8061181081612488565b6001600160a01b0316336001600160a01b03161461184157604051631431735b60e21b815260040160405180910390fd5b600082815260196020526040812060018101829055600281018290556003810182905560048101829055600581018290556006810182905560078101919091558261188b81612488565b6001600160a01b03167f46078a2cd4c69c3b4a27bdc69fdfe03d442ebcf405f1a68e9b5df6bc3e24429760405160405180910390a3505050565b6060806118d4610e4a8461308d565b50949350505050565b600c5460609081906001600160a01b031663250818ea6118fc8561308d565b6040518263ffffffff1660e01b81526004016119189190615615565b600060405180830381865afa158015611935573d6000803e3d6000fd5b505050506040513d6000823e601f3d908101601f1916820160405261195d91908101906158a7565b50915061196b9050836118c5565b8160405160200161197d929190615945565b604051602081830303815290604052915050919050565b61199c6138e3565b601255565b836119ab81612488565b6001600160a01b0316336001600160a01b0316146119dc57604051631431735b60e21b815260040160405180910390fd5b83518490600614611a0057604051631cf7e9c560e01b815260040160405180910390fd5b60048460ff161115611a25576040516329ba348d60e11b815260040160405180910390fd5b60005b6006811015611b7257603060f81b828281518110611a4857611a48615974565b01602001516001600160f81b03191610801590611a895750603960f81b828281518110611a7757611a77615974565b01602001516001600160f81b03191611155b158015611aeb5750604160f81b828281518110611aa857611aa8615974565b01602001516001600160f81b03191610801590611ae95750604660f81b828281518110611ad757611ad7615974565b01602001516001600160f81b03191611155b155b8015611b4c5750606160f81b828281518110611b0957611b09615974565b01602001516001600160f81b03191610801590611b4a5750606660f81b828281518110611b3857611b38615974565b01602001516001600160f81b03191611155b155b15611b6a57604051631cf7e9c560e01b815260040160405180910390fd5b600101611a28565b506000868152601960205260409020600901611b8e86826159d2565b50505060009384526019602052604090932060088101805460ff90931660ff19938416179055600a018054931515939091169290921790915550565b611bd26138e3565b601480546001600160a01b0319166001600160a01b0392909216919091179055565b611bfc6138e3565b6014546040516000916001600160a01b03169047908381818185875af1925050503d8060008114611c49576040519150601f19603f3d011682016040523d82523d6000602084013e611c4e565b606091505b5050905080611c7057604051631d42c86760e21b815260040160405180910390fd5b50565b6115d983838360405180602001604052806000815250612c1c565b611c966138e3565b6002611ca160085490565b1115611cc05760405163155b299760e31b815260040160405180910390fd5b611ccd3360026007613db8565b565b60606000611cdc836126aa565b90506000816001600160401b03811115611cf857611cf8614efb565b604051908082528060200260200182016040528015611d21578160200160208202803683370190505b50905060005b82811015611d5e57611d398582611770565b828281518110611d4b57611d4b615974565b6020908102919091010152600101611d27565b509392505050565b87611d7081612488565b6001600160a01b0316336001600160a01b031614611da157604051631431735b60e21b815260040160405180910390fd5b6000898152601960209081526040808320601a909252909120546001600160a01b03168915611e7157600e546040516395d004cb60e01b81526001600160a01b03909116906395d004cb90611dff9084908e90600190600401615a91565b60006040518083038186803b158015611e1757600080fd5b505afa158015611e2b573d6000803e3d6000fd5b50505050600182018a9055898b611e4181612488565b6001600160a01b0316600080516020615efb833981519152600160405160ff909116815260200160405180910390a45b8815611f1e57600e546040516395d004cb60e01b81526001600160a01b03909116906395d004cb90611eac9084908d90600290600401615a91565b60006040518083038186803b158015611ec457600080fd5b505afa158015611ed8573d6000803e3d6000fd5b5050505060028201899055888b611eee81612488565b6001600160a01b0316600080516020615efb833981519152600260405160ff909116815260200160405180910390a45b8715611fcb57600e546040516395d004cb60e01b81526001600160a01b03909116906395d004cb90611f599084908c90600390600401615a91565b60006040518083038186803b158015611f7157600080fd5b505afa158015611f85573d6000803e3d6000fd5b5050505060038201889055878b611f9b81612488565b6001600160a01b0316600080516020615efb833981519152600360405160ff909116815260200160405180910390a45b861561207757600e546040516395d004cb60e01b81526001600160a01b03909116906395d004cb906120059084908b906004908101615a91565b60006040518083038186803b15801561201d57600080fd5b505afa158015612031573d6000803e3d6000fd5b5050505060048201879055868b61204781612488565b6001600160a01b0316600080516020615efb833981519152600460405160ff909116815260200160405180910390a45b851561212457600e546040516395d004cb60e01b81526001600160a01b03909116906395d004cb906120b29084908a90600590600401615a91565b60006040518083038186803b1580156120ca57600080fd5b505afa1580156120de573d6000803e3d6000fd5b5050505060058201869055858b6120f481612488565b6001600160a01b0316600080516020615efb833981519152600560405160ff909116815260200160405180910390a45b84156121d157600e546040516395d004cb60e01b81526001600160a01b03909116906395d004cb9061215f9084908990600690600401615a91565b60006040518083038186803b15801561217757600080fd5b505afa15801561218b573d6000803e3d6000fd5b5050505060068201859055848b6121a181612488565b6001600160a01b0316600080516020615efb833981519152600660405160ff909116815260200160405180910390a45b831561227e57600e546040516395d004cb60e01b81526001600160a01b03909116906395d004cb9061220c9084908890600790600401615a91565b60006040518083038186803b15801561222457600080fd5b505afa158015612238573d6000803e3d6000fd5b5050505060078201849055838b61224e81612488565b6001600160a01b0316600080516020615efb833981519152600760405160ff909116815260200160405180910390a45b8a6122888c612488565b6001600160a01b03167f56680590212b09eb4b72a2eba8801b037ec046dfc754538e924f5bb6a8c4db6c60405160405180910390a35050505050505050505050565b60006122d560085490565b82106123385760405162461bcd60e51b815260206004820152602c60248201527f455243373231456e756d657261626c653a20676c6f62616c20696e646578206f60448201526b7574206f6620626f756e647360a01b60648201526084016115c5565b6008828154811061234b5761234b615974565b90600052602060002001549050919050565b6000612367613218565b4211905090565b63389a75e1600c523360005260006020600c2055337ffa7b8eab7da67f412cc9575ed43464468f9bfbae89d1675917346ca6d8fe3c92600080a2565b60006123b584612488565b90506001600160a01b03811633146123df576040516282b42960e81b815260040160405180910390fd5b81156123ef576123ef8484613982565b6123fa8184846140d0565b50505050565b601c602052816000526040600020818154811061241c57600080fd5b6000918252602090912001546001600160a01b03169150829050565b6124406138e3565b61244861235d565b156124665760405163774ae17d60e01b815260040160405180910390fd5b600c80546001600160a01b0319166001600160a01b0392909216919091179055565b6000818152600260205260408120546001600160a01b0316806111965760405162461bcd60e51b8152602060048201526018602482015277115490cdcc8c4e881a5b9d985b1a59081d1bdad95b88125160421b60448201526064016115c5565b600c546040516331a9108f60e11b8152600481018390526000918291829182916001600160a01b0390911690636352211e90602401602060405180830381865afa15801561253a573d6000803e3d6000fd5b505050506040513d601f19601f8201168201806040525081019061255e9190615ad4565b6001600160a01b0381166000908152601b6020526040902054909450925061258583612488565b915061259183866127e2565b90509193509193565b6000818152601c60209081526040918290208054835181840281018401909452808452606093928301828280156125fa57602002820191906000526020600020905b81546001600160a01b031681526001909101906020018083116125dc575b50505050509050919050565b61260e6138e3565b60048160ff161080612623575060078160ff16115b1561264157604051632258debf60e01b815260040160405180910390fd5b6016541580612651575060165442105b1561266f57604051630314872760e11b815260040160405180910390fd5b60165461267f9062016da0615b07565b42111561269f5760405163124212e560e21b815260040160405180910390fd5b6115d9838383613db8565b60006001600160a01b0382166127145760405162461bcd60e51b815260206004820152602960248201527f4552433732313a2061646472657373207a65726f206973206e6f7420612076616044820152683634b21037bbb732b960b91b60648201526084016115c5565b506001600160a01b031660009081526003602052604090205490565b6127386138e3565b611ccd6000614196565b61274a6138e3565b61275261235d565b156127705760405163774ae17d60e01b815260040160405180910390fd5b600d80546001600160a01b0319166001600160a01b0392909216919091179055565b61279a6138e3565b6127a261235d565b156127c05760405163774ae17d60e01b815260040160405180910390fd5b601080546001600160a01b0319166001600160a01b0392909216919091179055565b6000806127ee8461308d565b905082816020015114806128055750828160400151145b806128135750828160600151145b806128215750828160800151145b8061282f5750828160a00151145b8061283d5750828160c00151145b8061284b5750828160e00151145b949350505050565b61285b6138e3565b601d55565b6010546000828152600b602052604090819020905163da11a05360e01b81526060926001600160a01b03169163da11a0539161155a9160020190600401615b97565b6128aa6138e3565b601555565b6060600180546111da90615768565b60005b600a811015611c705760606128d7600482612d9f565b506001016128c1565b6128e86138e3565b601e55565b6000818152601a6020526040812054606091906001600160a01b0316600c5460405162438b6360e81b81526001600160a01b03808416600483015292935091169063438b630090602401600060405180830381865afa158015612954573d6000803e3d6000fd5b505050506040513d6000823e601f3d908101601f1916820160405261297c9190810190615baa565b9392505050565b606061298e8261308d565b61014001516129a5576129a08261362d565b611196565b6111968261327b565b8015612a1c5760006129bf33611ccf565b905080516000036129e2576040516282b42960e81b815260040160405180910390fd5b60005b8151811015612a1957612a11828281518110612a0357612a03615974565b602002602001015185613982565b6001016129e5565b50505b6112d13383836140d0565b606080612a3b83610100015160ff16612860565b60105461010085015160ff166000908152600b6020526040908190209051630d88d4ff60e01b81526001600160a01b0390921691630d88d4ff91612a8791600190910190600401615c2f565b600060405180830381865afa158015612aa4573d6000803e3d6000fd5b505050506040513d6000823e601f3d908101601f19168201604052612acc91908101906157f2565b91509150915091565b612add6138e3565b601f55565b601960205260009081526040902080546001820154600283015460038401546004850154600586015460068701546007880154600889015460098a018054999a989997989697959694959394929360ff9092169291612b4090615768565b80601f0160208091040260200160405190810160405280929190818152602001828054612b6c90615768565b8015612bb95780601f10612b8e57610100808354040283529160200191612bb9565b820191906000526020600020905b815481529060010190602001808311612b9c57829003601f168201915b505050600a909301549192505060ff168b565b612bd46138e3565b612bdc61235d565b15612bfa5760405163774ae17d60e01b815260040160405180910390fd5b600f80546001600160a01b0319166001600160a01b0392909216919091179055565b612c263383613a2f565b612c425760405162461bcd60e51b81526004016115c590615826565b6123fa848484846141d4565b6060806060612c6484610100015160ff16612860565b6101008501805160ff9081166000908152600b602052604080822060105494519093168252908190209051630d88d4ff60e01b81526003909201926001600160a01b031691630d88d4ff91612cc191600190910190600401615c2f565b600060405180830381865afa158015612cde573d6000803e3d6000fd5b505050506040513d6000823e601f3d908101601f19168201604052612d0691908101906157f2565b818054612d1290615768565b80601f0160208091040260200160405190810160405280929190818152602001828054612d3e90615768565b8015612d8b5780601f10612d6057610100808354040283529160200191612d8b565b820191906000526020600020905b815481529060010190602001808311612d6e57829003601f168201915b505050505091509250925092509193909250565b600f546001600160a01b0316612dc85760405163d93186fd60e01b815260040160405180910390fd5b811580612dd55750600a82115b15612df35760405163199f5a0360e31b815260040160405180910390fd5b6016541580612e03575060165442105b15612e2157604051630314872760e11b815260040160405180910390fd5b601654612e319062015180615b07565b421115612e515760405163124212e560e21b815260040160405180910390fd5b81601554612e5f9190615c62565b3414612e7e5760405163356680b760e01b815260040160405180910390fd5b6040516bffffffffffffffffffffffff193360601b166020820152600490600090603401604051602081830303815290604052805190602001209050612ec783601d5483614207565b15612f055733600090815260208052604090205460ff16612f00573360009081526020805260409020805460ff19166001179055600591505b612f99565b612f1283601e5483614207565b15612f51573360009081526021602052604090205460ff16612f0057336000908152602160205260409020805460ff1916600117905560069150612f99565b612f5e83601f5483614207565b15612f99573360009081526022602052604090205460ff16612f9957336000908152602260205260409020805460ff19166001179055600791505b6123fa338584613db8565b6000818152600260205260409020546060906001600160a01b0316612fdc57604051636461f73160e01b815260040160405180910390fd5b61119682612983565b81612fef81612488565b6001600160a01b0316336001600160a01b03161461302057604051631431735b60e21b815260040160405180910390fd5b61302c83836000613c5a565b8261303684612488565b6001600160a01b03167f3d8ac56c725fc7985e9444622a45baee28ba67d8a964045f747b465121f40e7184600781111561307257613072615891565b60405160ff90911681526020015b60405180910390a3505050565b6130ef6040518061016001604052806000815260200160008152602001600081526020016000815260200160008152602001600081526020016000815260200160008152602001600060ff168152602001606081526020016000151581525090565b600082815260196020908152604091829020825161016081018452815481526001820154928101929092526002810154928201929092526003820154606082015260048201546080820152600582015460a0820152600682015460c0820152600782015460e0820152600882015460ff166101008201526009820180549192916101208401919061317f90615768565b80601f01602080910402602001604051908101604052809291908181526020018280546131ab90615768565b80156131f85780601f106131cd576101008083540402835291602001916131f8565b820191906000526020600020905b8154815290600101906020018083116131db57829003601f168201915b5050509183525050600a919091015460ff16151560209091015292915050565b60006132487f00000000000000000000000000000000000000000000000000000000000000006301e13380615b07565b905090565b6132556138e3565b601654156132765760405163703e78e960e11b815260040160405180910390fd5b601655565b606080606080606080606061328e614c85565b60006132998a61308d565b90506132a481612c4e565b50600c546040516312840c7560e11b8152929a509097506001600160a01b03169063250818ea906132d9908490600401615615565b600060405180830381865afa1580156132f6573d6000803e3d6000fd5b505050506040513d6000823e601f3d908101601f1916820160405261331e91908101906158a7565b60405192995090965093506133399087908790602001615945565b60408051601f198184030181529190526101208201518352935061335c8a6128ed565b5160408084019190915261010082015160ff166000908152600b60205220600101805461338890615768565b80601f01602080910402602001604051908101604052809291908181526020018280546133b490615768565b80156134015780601f106133d657610100808354040283529160200191613401565b820191906000526020600020905b8154815290600101906020018083116133e457829003601f168201915b5050505050602083015260408051808201909152601760026000835b828210156134c057838201805461343390615768565b80601f016020809104026020016040519081016040528092919081815260200182805461345f90615768565b80156134ac5780601f10613481576101008083540402835291602001916134ac565b820191906000526020600020905b81548152906001019060200180831161348f57829003601f168201915b50505050508152602001906001019061341d565b5050505060608301526011546040516323e2ba9960e11b81526001600160a01b03909116906347c5753290613503908d908c908c9089908b908a90600401615d04565b600060405180830381865afa158015613520573d6000803e3d6000fd5b505050506040513d6000823e601f3d908101601f1916820160405261354891908101906157f2565b9a9950505050505050505050565b61355e6138e3565b63389a75e1600c52806000526020600c20805442111561358657636f5e88186000526004601cfd5b60009055611c7081614196565b61359b6138e3565b6135a361235d565b156135c15760405163774ae17d60e01b815260040160405180910390fd5b6000848152600b60205260409020848155600181016135e085826159d2565b50600281016135ef84826159d2565b50600381016135fe83826159d2565b505050505050565b61360e6138e3565b8060601b61362457637448fbae6000526004601cfd5b611c7081614196565b606080606080606061363d614c85565b60006136488861308d565b905061365381612a27565b50600c5460405163152d098b60e31b81529197506001600160a01b03169063a9684c5890613685908490600401615615565b600060405180830381865afa1580156136a2573d6000803e3d6000fd5b505050506040513d6000823e601f3d908101601f191682016040526136ca9190810190615d78565b90955093506136d8886114e6565b610120820151835292506136eb886128ed565b5160408084019190915261010082015160ff166000908152600b60205220600101805461371790615768565b80601f016020809104026020016040519081016040528092919081815260200182805461374390615768565b80156137905780601f1061376557610100808354040283529160200191613790565b820191906000526020600020905b81548152906001019060200180831161377357829003601f168201915b5050505050602083015260408051808201909152601760026000835b8282101561384f5783820180546137c290615768565b80601f01602080910402602001604051908101604052809291908181526020018280546137ee90615768565b801561383b5780601f106138105761010080835404028352916020019161383b565b820191906000526020600020905b81548152906001019060200180831161381e57829003601f168201915b5050505050815260200190600101906137ac565b505050506060830152601054604051631589d6a760e21b81526001600160a01b03909116906356275a9c90613892908b908a908a908a908a908a90600401615d04565b600060405180830381865afa1580156138af573d6000803e3d6000fd5b505050506040513d6000823e601f3d908101601f191682016040526138d791908101906157f2565b98975050505050505050565b638b78c6d819543314611ccd576382b429006000526004601cfd5b60006001600160e01b0319821663780e9d6360e01b1480611196575061119682614249565b6000818152600260205260409020546001600160a01b0316611c705760405162461bcd60e51b8152602060048201526018602482015277115490cdcc8c4e881a5b9d985b1a59081d1bdad95b88125160421b60448201526064016115c5565b6000918252601c6020908152604083208054600181018255908452922090910180546001600160a01b0319166001600160a01b03909216919091179055565b600081815260046020526040902080546001600160a01b0319166001600160a01b03841690811790915581906139f682612488565b6001600160a01b03167f8c5be1e5ebec7d5bd14f71427d1e84f3dd0314c0f7b2291e5b200ac8c7c3b92560405160405180910390a45050565b600080613a3b83612488565b9050806001600160a01b0316846001600160a01b03161480613a8257506001600160a01b0380821660009081526005602090815260408083209388168352929052205460ff165b8061284b5750836001600160a01b0316613a9b8461125d565b6001600160a01b031614949350505050565b826001600160a01b0316613ac082612488565b6001600160a01b031614613b245760405162461bcd60e51b815260206004820152602560248201527f4552433732313a207472616e736665722066726f6d20696e636f72726563742060448201526437bbb732b960d91b60648201526084016115c5565b6001600160a01b038216613b865760405162461bcd60e51b8152602060048201526024808201527f4552433732313a207472616e7366657220746f20746865207a65726f206164646044820152637265737360e01b60648201526084016115c5565b613b91838383614299565b613b9c6000826139c1565b6001600160a01b0383166000908152600360205260408120805460019290613bc5908490615ddb565b90915550506001600160a01b0382166000908152600360205260408120805460019290613bf3908490615b07565b909155505060008181526002602052604080822080546001600160a01b0319166001600160a01b0386811691821790925591518493918716917fddf252ad1be2c89b69c2b068fc378daa952ba7f163c4a11628f55a4df523b3ef91a46115d98383836146aa565b6001826007811115613c6e57613c6e615891565b03613c8c576000838152601960205260409020600101819055505050565b6002826007811115613ca057613ca0615891565b03613cbe576000838152601960205260409020600201819055505050565b6003826007811115613cd257613cd2615891565b03613cf0576000838152601960205260409020600301819055505050565b6004826007811115613d0457613d04615891565b03613d22576000838152601960205260409020600401819055505050565b6005826007811115613d3657613d36615891565b03613d54576000838152601960205260409020600501819055505050565b6006826007811115613d6857613d68615891565b03613d86576000838152601960205260409020600601819055505050565b6007826007811115613d9a57613d9a615891565b036115d9576000838152601960205260409020600701819055505050565b60005b828110156123fa576000601360008154613dd490615dee565b91829055509050613de585826146b4565b604051638a54c52f60e01b81527355266d75d1a14e4572138116af39863ed6596e7f600482015260006024820181905262014a34604483015230606483015260848201839052906f6551c19487814612e58fe0681377575890638a54c52f9060a4016020604051808303816000875af1158015613e66573d6000803e3d6000fd5b505050506040513d601f19601f82011682018060405250810190613e8a9190615ad4565b6000838152601a6020908152604080832080546001600160a01b0319166001600160a01b038616908117909155808452601b90925291829020859055905163189acdbd60e31b81527341c8f39463a868d3a88af00cd0fe7102f30e44ec60048201529192509063c4d66de890602401600060405180830381600087803b158015613f1357600080fd5b505af1158015613f27573d6000803e3d6000fd5b5050600f546040516358a2727360e01b81526001600160a01b03858116600483015260ff891660248301526000945090911691506358a27273906044016000604051808303816000875af1158015613f83573d6000803e3d6000fd5b505050506040513d6000823e601f3d908101601f19168201604052613fab9190810190615baa565b6000848152601960209081526040918290208681558251918201879052929350600591016040516020818303038152906040528051906020012060001c613ff29190615e07565b60088201805460ff191660ff929092169190911790556040805180820190915260068152650c110d914e5160d21b6020820152600982019061403490826159d2565b508160008151811061404857614048615974565b602002602001015181600701819055508160018151811061406b5761406b615974565b602002602001015181600601819055508160028151811061408e5761408e615974565b60200260200101518160050181905550816003815181106140b1576140b1615974565b6020026020010151816002018190555050505050806001019050613dbb565b816001600160a01b0316836001600160a01b0316036141315760405162461bcd60e51b815260206004820152601960248201527f4552433732313a20617070726f766520746f2063616c6c65720000000000000060448201526064016115c5565b6001600160a01b03838116600081815260056020908152604080832094871680845294825291829020805460ff191686151590811790915591519182527f17307eab39ab6107e8899845ad3d59bd9653f200f220920489ca2b5937696c319101613080565b638b78c6d81980546001600160a01b039092169182907f8be0079c531659141344cd1fd0a4f28419497f9722a3daafe3b4186f6b6457e0600080a355565b6141df848484613aad565b6141eb8484848461480a565b6123fa5760405162461bcd60e51b81526004016115c590615e29565b60008351156142425760208401845160051b81015b8151841160051b93845281516020948518526040600020939091019080821061421c5750505b5014919050565b60006001600160e01b031982166380ac58cd60e01b148061427a57506001600160e01b03198216635b5e139f60e01b145b8061119657506301ffc9a760e01b6001600160e01b0319831614611196565b6001600160a01b0383166142b2576115d983838361490b565b6016546142c29062015180615b07565b4210156142e25760405163ae735dad60e01b815260040160405180910390fd5b6001600160a01b0382166000908152601b60205260409020541561431957604051639a42da2960e01b815260040160405180910390fd5b6000818152601a60205260408120546001600160a01b03169061433b84611ccf565b9050600081516001600160401b0381111561435857614358614efb565b604051908082528060200260200182016040528015614381578160200160208202803683370190505b50905060005b825181101561440257601a60008483815181106143a6576143a6615974565b6020026020010151815260200190815260200160002060009054906101000a90046001600160a01b03168282815181106143e2576143e2615974565b6001600160a01b0390921660209283029190910190910152600101614387565b50600d5460405163644ec52760e01b8152600481018690526001600160a01b039091169063644ec52790602401600060405180830381600087803b15801561444957600080fd5b505af115801561445d573d6000803e3d6000fd5b5050600d54604051631e92beb560e31b8152600481018890526001600160a01b038981166024830152909116925063f495f5a89150604401600060405180830381600087803b1580156144af57600080fd5b505af11580156144c3573d6000803e3d6000fd5b5050600c5460405162438b6360e81b81526001600160a01b03878116600483015260009450909116915063438b630090602401600060405180830381865afa158015614513573d6000803e3d6000fd5b505050506040513d6000823e601f3d908101601f1916820160405261453b9190810190615baa565b905060005b815181101561469557600082828151811061455d5761455d615974565b6020908102919091010151600d54604051632e1d274f60e01b8152600481018390529192506001600160a01b031690632e1d274f90602401600060405180830381600087803b1580156145af57600080fd5b505af11580156145c3573d6000803e3d6000fd5b5050600d54604051632333520b60e11b81526001600160a01b039091169250634666a41691506145f99084908890600401615e7b565b600060405180830381600087803b15801561461357600080fd5b505af1158015614627573d6000803e3d6000fd5b5050600c5460405163487b1c2160e11b8152600481018590526001600160a01b0390911692506390f638429150602401600060405180830381600087803b15801561467157600080fd5b505af1158015614685573d6000803e3d6000fd5b5050505050806001019050614540565b506146a187878761490b565b50505050505050565b6115d981846149c3565b6001600160a01b03821661470a5760405162461bcd60e51b815260206004820181905260248201527f4552433732313a206d696e7420746f20746865207a65726f206164647265737360448201526064016115c5565b6000818152600260205260409020546001600160a01b03161561476f5760405162461bcd60e51b815260206004820152601c60248201527f4552433732313a20746f6b656e20616c7265616479206d696e7465640000000060448201526064016115c5565b61477b60008383614299565b6001600160a01b03821660009081526003602052604081208054600192906147a4908490615b07565b909155505060008181526002602052604080822080546001600160a01b0319166001600160a01b03861690811790915590518392907fddf252ad1be2c89b69c2b068fc378daa952ba7f163c4a11628f55a4df523b3ef908290a46112d1600083836146aa565b60006001600160a01b0384163b1561490057604051630a85bd0160e11b81526001600160a01b0385169063150b7a029061484e903390899088908890600401615e94565b6020604051808303816000875af1925050508015614889575060408051601f3d908101601f1916820190925261488691810190615ec7565b60015b6148e6573d8080156148b7576040519150601f19603f3d011682016040523d82523d6000602084013e6148bc565b606091505b5080516000036148de5760405162461bcd60e51b81526004016115c590615e29565b805181602001fd5b6001600160e01b031916630a85bd0160e11b14905061284b565b506001949350505050565b6001600160a01b0383166149665761496181600880546000838152600960205260408120829055600182018355919091527ff3f7a9fe364faab93b216da50a3214154f22a0a2b415b23a84c8169e8b636ee30155565b614989565b816001600160a01b0316836001600160a01b031614614989576149898382614aac565b6001600160a01b0382166149a0576115d981614b49565b826001600160a01b0316826001600160a01b0316146115d9576115d98282614bf8565b6000828152601c6020908152604080832080548251818502810185019093528083529192909190830182828015614a2357602002820191906000526020600020905b81546001600160a01b03168152600190910190602001808311614a05575b5050506000868152601a60205260408120549394506001600160a01b03909316929150505b8251811015614a9457614a7684848381518110614a6757614a67615974565b602002602001015160006140d0565b614a8c82848381518110614a6757614a67615974565b600101614a48565b506000848152601c602052604081206123fa91614cb2565b60006001614ab9846126aa565b614ac39190615ddb565b600083815260076020526040902054909150808214614b16576001600160a01b03841660009081526006602090815260408083208584528252808320548484528184208190558352600790915290208190555b5060009182526007602090815260408084208490556001600160a01b039094168352600681528383209183525290812055565b600854600090614b5b90600190615ddb565b60008381526009602052604081205460088054939450909284908110614b8357614b83615974565b906000526020600020015490508060088381548110614ba457614ba4615974565b6000918252602080832090910192909255828152600990915260408082208490558582528120556008805480614bdc57614bdc615ee4565b6001900381819060005260206000200160009055905550505050565b6000614c03836126aa565b6001600160a01b039093166000908152600660209081526040808320868452825280832085905593825260079052919091209190915550565b8260028101928215614c75579160200282015b82811115614c755782518290614c6590826159d2565b5091602001919060010190614c4f565b50614c81929150614cd0565b5090565b6040518060800160405280606081526020016060815260200160008152602001614cad614ced565b905290565b5080546000825590600052602060002090810190611c709190614d14565b80821115614c81576000614ce48282614d29565b50600101614cd0565b60405180604001604052806002905b6060815260200190600190039081614cfc5790505090565b5b80821115614c815760008155600101614d15565b508054614d3590615768565b6000825580601f10614d45575050565b601f016020900490600052602060002090810190611c709190614d14565b6001600160a01b0381168114611c7057600080fd5b600060208284031215614d8a57600080fd5b813561297c81614d63565b6001600160e01b031981168114611c7057600080fd5b600060208284031215614dbd57600080fd5b813561297c81614d95565b600060208284031215614dda57600080fd5b5035919050565b60005b83811015614dfc578181015183820152602001614de4565b50506000910152565b60008151808452614e1d816020860160208601614de1565b601f01601f19169290920160200192915050565b60208152600061297c6020830184614e05565b60008060408385031215614e5757600080fd5b8235614e6281614d63565b946020939093013593505050565b848152608060208201526000614e896080830186614e05565b8281036040840152614e9b8186614e05565b90508281036060840152614eaf8185614e05565b979650505050505050565b600080600060608486031215614ecf57600080fd5b8335614eda81614d63565b92506020840135614eea81614d63565b929592945050506040919091013590565b634e487b7160e01b600052604160045260246000fd5b604080519081016001600160401b0381118282101715614f3357614f33614efb565b60405290565b60405161016081016001600160401b0381118282101715614f3357614f33614efb565b604051601f8201601f191681016001600160401b0381118282101715614f8457614f84614efb565b604052919050565b60006001600160401b03821115614fa557614fa5614efb565b50601f01601f191660200190565b600082601f830112614fc457600080fd5b8135614fd7614fd282614f8c565b614f5c565b818152846020838601011115614fec57600080fd5b816020850160208301376000918101602001919091529392505050565b6000602080838503121561501c57600080fd5b82356001600160401b038082111561503357600080fd5b818501915085601f83011261504757600080fd5b61504f614f11565b80604084018881111561506157600080fd5b845b818110156150955780358581111561507b5760008081fd5b6150878b828901614fb3565b855250928601928601615063565b509098975050505050505050565b600080604083850312156150b657600080fd5b50508035926020909101359150565b803560ff811681146150d657600080fd5b919050565b803580151581146150d657600080fd5b6000806000806080858703121561510157600080fd5b8435935060208501356001600160401b0381111561511e57600080fd5b61512a87828801614fb3565b935050615139604086016150c5565b9150615147606086016150db565b905092959194509250565b6020808252825182820181905260009190848201906040850190845b8181101561518a5783518352928401929184019160010161516e565b50909695505050505050565b600080600080600080600080610100898b0312156151b357600080fd5b505086359860208801359850604088013597606081013597506080810135965060a0810135955060c0810135945060e0013592509050565b60008060006060848603121561520057600080fd5b83359250602084013561521281614d63565b9150615220604085016150db565b90509250925092565b60008151808452602080850194506020840160005b838110156152635781516001600160a01b03168752958201959082019060010161523e565b509495945050505050565b60208152600061297c6020830184615229565b60008060006060848603121561529657600080fd5b83356152a181614d63565b925060208401359150615220604085016150c5565b600080604083850312156152c957600080fd5b82356152d481614d63565b91506152e2602084016150db565b90509250929050565b6000602082840312156152fd57600080fd5b81356001600160401b038082111561531457600080fd5b90830190610160828603121561532957600080fd5b615331614f39565b823581526020830135602082015260408301356040820152606083013560608201526080830135608082015260a083013560a082015260c083013560c082015260e083013560e08201526101006153898185016150c5565b9082015261012083810135838111156153a157600080fd5b6153ad88828701614fb3565b82840152505061014091506153c38284016150db565b91810191909152949350505050565b6040815260006153e56040830185614e05565b82810360208401526153f78185614e05565b95945050505050565b60006101608d83528c60208401528b60408401528a60608401528960808401528860a08401528760c08401528660e084015260ff86166101008401528061012084015261544f81840186614e05565b9150508215156101408301529c9b505050505050505050505050565b6000806000806080858703121561548157600080fd5b843561548c81614d63565b9350602085013561549c81614d63565b92506040850135915060608501356001600160401b038111156154be57600080fd5b6154ca87828801614fb3565b91505092959194509250565b6060815260006154e96060830186614e05565b82810360208401526154fb8186614e05565b9050828103604084015261550f8185614e05565b9695505050505050565b60006001600160401b0382111561553257615532614efb565b5060051b60200190565b6000806040838503121561554f57600080fd5b823591506020808401356001600160401b0381111561556d57600080fd5b8401601f8101861361557e57600080fd5b803561558c614fd282615519565b81815260059190911b820183019083810190888311156155ab57600080fd5b928401925b828410156155c9578335825292840192908401906155b0565b80955050505050509250929050565b60088110611c7057600080fd5b600080604083850312156155f857600080fd5b82359150602083013561560a816155d8565b809150509250929050565b6020815281516020820152602082015160408201526040820151606082015260608201516080820152608082015160a082015260a082015160c082015260c082015160e0820152600060e08301516101008181850152808501519150506101206156838185018360ff169052565b8085015191505061016061014081818601526156a3610180860184614e05565b95015115159301929092525090919050565b600080604083850312156156c857600080fd5b82356156d381614d63565b9150602083013561560a81614d63565b600080600080608085870312156156f957600080fd5b8435935060208501356001600160401b038082111561571757600080fd5b61572388838901614fb3565b9450604087013591508082111561573957600080fd5b61574588838901614fb3565b9350606087013591508082111561575b57600080fd5b506154ca87828801614fb3565b600181811c9082168061577c57607f821691505b60208210810361579c57634e487b7160e01b600052602260045260246000fd5b50919050565b60006157b0614fd284614f8c565b90508281528383830111156157c457600080fd5b61297c836020830184614de1565b600082601f8301126157e357600080fd5b61297c838351602085016157a2565b60006020828403121561580457600080fd5b81516001600160401b0381111561581a57600080fd5b61284b848285016157d2565b6020808252602e908201527f4552433732313a2063616c6c6572206973206e6f7420746f6b656e206f776e6560408201526d1c881b9bdc88185c1c1c9bdd995960921b606082015260800190565b60006020828403121561588657600080fd5b815161297c816155d8565b634e487b7160e01b600052602160045260246000fd5b6000806000606084860312156158bc57600080fd5b83516001600160401b03808211156158d357600080fd5b6158df878388016157d2565b945060208601519150808211156158f557600080fd5b818601915086601f83011261590957600080fd5b615918878351602085016157a2565b9350604086015191508082111561592e57600080fd5b5061593b868287016157d2565b9150509250925092565b60008351615957818460208801614de1565b83519083019061596b818360208801614de1565b01949350505050565b634e487b7160e01b600052603260045260246000fd5b601f8211156115d9576000816000526020600020601f850160051c810160208610156159b35750805b601f850160051c820191505b818110156135fe578281556001016159bf565b81516001600160401b038111156159eb576159eb614efb565b6159ff816159f98454615768565b8461598a565b602080601f831160018114615a345760008415615a1c5750858301515b600019600386901b1c1916600185901b1785556135fe565b600085815260208120601f198616915b82811015615a6357888601518255948401946001909101908401615a44565b5085821015615a815787850151600019600388901b60f8161c191681555b5050505050600190811b01905550565b6001600160a01b0384168152602081018390526060810160088310615ac657634e487b7160e01b600052602160045260246000fd5b826040830152949350505050565b600060208284031215615ae657600080fd5b815161297c81614d63565b634e487b7160e01b600052601160045260246000fd5b8082018082111561119657611196615af1565b60008154615b2781615768565b808552602060018381168015615b445760018114615b5e57615b8c565b60ff1985168884015283151560051b880183019550615b8c565b866000528260002060005b85811015615b845781548a8201860152908301908401615b69565b890184019650505b505050505092915050565b60208152600061297c6020830184615b1a565b60006020808385031215615bbd57600080fd5b82516001600160401b03811115615bd357600080fd5b8301601f81018513615be457600080fd5b8051615bf2614fd282615519565b81815260059190911b82018301908381019087831115615c1157600080fd5b928401925b82841015614eaf57835182529284019290840190615c16565b604081526009604082015268426f6479205479706560b81b606082015260806020820152600061297c6080830184615b1a565b808202811582820484141761119657611196615af1565b6000815160808452615c8e6080850182614e05565b90506020808401518583036020870152615ca88382614e05565b9250506040840151604086015260608401518583036060870152828390506040840160005b6002811015615cf8578582038352615ce6828551614e05565b93850193928501929150600101615ccd565b50979650505050505050565b86815260c060208201526000615d1d60c0830188614e05565b8281036040840152615d2f8188614e05565b90508281036060840152615d438187614e05565b90508281036080840152615d578186614e05565b905082810360a0840152615d6b8185615c79565b9998505050505050505050565b60008060408385031215615d8b57600080fd5b82516001600160401b0380821115615da257600080fd5b615dae868387016157d2565b93506020850151915080821115615dc457600080fd5b50615dd1858286016157d2565b9150509250929050565b8181038181111561119657611196615af1565b600060018201615e0057615e00615af1565b5060010190565b600082615e2457634e487b7160e01b600052601260045260246000fd5b500690565b60208082526032908201527f4552433732313a207472616e7366657220746f206e6f6e20455243373231526560408201527131b2b4bb32b91034b6b83632b6b2b73a32b960711b606082015260800190565b82815260406020820152600061284b6040830184615229565b6001600160a01b038581168252841660208201526040810183905260806060820181905260009061550f90830184614e05565b600060208284031215615ed957600080fd5b815161297c81614d95565b634e487b7160e01b600052603160045260246000fdfec94c1c47471ed97c1d309bab965192a3e4be3807f42d015b699bfbdcf24dd9f6a264697066735822122094a5d91fa34ed9e86e031813c24d82545e96795bed9a632064249661433edd2a64736f6c63430008160033","linkReferences":{}},"methodIdentifiers":{"_debugPostConstructorMint()":"9c7be2f1","addNewBody(uint256,string,bytes,bytes)":"f2361e23","approve(address,uint256)":"095ea7b3","balanceOf(address)":"70a08231","bodyIndexToMetadata(uint256)":"0c83f9d7","cancelOwnershipHandover()":"54d1f13d","checkIfTraitIsEquipped(uint256,uint256)":"8aa1e4c8","chonkEquipHelper()":"75676db8","chonkIdToApprovedOperators(uint256,uint256)":"55737f35","chonkTokens(uint256)":"b45d0316","collectionsAddressDidUse(address)":"1e8ff18f","collectionsMerkle()":"80d833f1","completeOwnershipHandover(address)":"f04e283e","creatorsAddressDidUse(address)":"59d591d0","creatorsMerkle()":"a1531780","deploymentTime()":"ecda10f5","equip(uint256,uint256)":"28257532","equipAll(uint256,uint256,uint256,uint256,uint256,uint256,uint256,uint256)":"4a4333a3","firstReleaseDataMinter()":"fd8b66de","friendsAddressDidUse(address)":"be7ff59a","friendsMerkle()":"fc863e64","getApproved(uint256)":"081812fc","getBackpackSVGs(uint256)":"14fe8ff4","getBodyImageSvg(uint256)":"916c546b","getBodySVGZmapsAndMetadata((uint256,uint256,uint256,uint256,uint256,uint256,uint256,uint256,uint8,string,bool))":"ba3589c8","getBodySvgAndMetadata((uint256,uint256,uint256,uint256,uint256,uint256,uint256,uint256,uint8,string,bool))":"b014b77a","getBodyZMap(uint256)":"306c7334","getChonk(uint256)":"d3d6873e","getChonkIdForTBAAddress(address)":"8472cbca","getChonkIdToApprovedOperators(uint256)":"67d2afe2","getChonkZMap(uint256)":"32875aa0","getFullPictureForTrait(uint256)":"66704349","getOwnerAndTBAAddressForChonkId(uint256)":"04003bd0","getTBAAddressForChonkId(uint256)":"f6a0c932","getTraitsForChonkId(uint256)":"9f6e4637","initialMintStartTime()":"b91fdc8c","isApprovedForAll(address,address)":"e985e9c5","isTimelocked()":"50b03146","mainRenderer2D()":"f4bec0b6","mainRenderer3D()":"b66ef6e3","marketplace()":"abc8c7af","maxTraitsToOutput()":"e3d21555","mint(uint256,bytes32[])":"ba41b0c6","name()":"06fdde03","nextTokenId()":"75794a3c","oneYearFromDeployment()":"d59752eb","owner()":"8da5cb5b","ownerOf(uint256)":"6352211e","ownershipHandoverExpiresAt(address)":"fee81cf4","price()":"a035b1fe","renderAsDataUri(uint256)":"a1d62680","renderAsDataUri2D(uint256)":"f3f8efb9","renderAsDataUri3D(uint256)":"dceef0ec","renounceOwnership()":"715018a6","requestOwnershipHandover()":"25692962","safeTransferFrom(address,address,uint256)":"42842e0e","safeTransferFrom(address,address,uint256,bytes)":"b88d4fde","setApprovalForAll(address,bool)":"a22cb465","setApprovalForAllChonksMarketplace(uint256,address,bool)":"550ab247","setChonkAttributes(uint256,string,uint8,bool)":"343b4887","setChonkEquipHelper(address)":"0a99a350","setCollectionsMerkle(bytes32)":"8d2a2f11","setCreatorsMerkle(bytes32)":"b194b6f1","setDescriptionParts(string[2])":"26f2052a","setFirstReleaseDataMinter(address)":"b84b160d","setFriendsMerkleRoot(bytes32)":"9eb2660c","setMainRenderer2D(address)":"7e2e6c47","setMainRenderer3D(address)":"00179206","setMarketplace(address)":"73ad6c2d","setMaxTraitsToOutput(uint256)":"33d3d9bf","setMintStartTime(uint256)":"d5b3621b","setPrice(uint256)":"91b7f5ed","setTraitsContract(address)":"5eabd84a","setWithdrawAddress(address)":"3ab1a494","supportsInterface(bytes4)":"01ffc9a7","symbol()":"95d89b41","tbaAddressToTokenId(address)":"a4bf9a00","teamMint(address,uint256,uint8)":"6e51665f","teamReserve()":"4287f14a","tokenByIndex(uint256)":"4f6ccce7","tokenIdToTBAAccountAddress(uint256)":"9c05d68d","tokenOfOwnerByIndex(address,uint256)":"2f745c59","tokenURI(uint256)":"c87b56dd","totalSupply()":"18160ddd","traitsContract()":"c093afdb","transferFrom(address,address,uint256)":"23b872dd","transferOwnership(address)":"f2fde38b","unequip(uint256,uint8)":"cdb6dd5c","unequipAll(uint256)":"3044825b","walletOfOwner(address)":"438b6300","withdraw()":"3ccfd60b","withdrawAddress()":"1581b600"},"id":43}