{"abi":[{"type":"constructor","inputs":[],"stateMutability":"nonpayable"},{"type":"function","name":"_debugPostConstructorMint","inputs":[],"outputs":[],"stateMutability":"nonpayable"},{"type":"function","name":"_nextTokenId","inputs":[],"outputs":[{"name":"","type":"uint256","internalType":"uint256"}],"stateMutability":"view"},{"type":"function","name":"addNewBody","inputs":[{"name":"_bodyIndex","type":"uint256","internalType":"uint256"},{"name":"_bodyName","type":"string","internalType":"string"},{"name":"_colorMap","type":"bytes","internalType":"bytes"},{"name":"_zMap","type":"bytes","internalType":"bytes"}],"outputs":[],"stateMutability":"nonpayable"},{"type":"function","name":"approve","inputs":[{"name":"_operator","type":"address","internalType":"address"},{"name":"_chonkId","type":"uint256","internalType":"uint256"}],"outputs":[],"stateMutability":"nonpayable"},{"type":"function","name":"balanceOf","inputs":[{"name":"owner","type":"address","internalType":"address"}],"outputs":[{"name":"","type":"uint256","internalType":"uint256"}],"stateMutability":"view"},{"type":"function","name":"bodyIndexToMetadata","inputs":[{"name":"","type":"uint256","internalType":"uint256"}],"outputs":[{"name":"bodyIndex","type":"uint256","internalType":"uint256"},{"name":"bodyName","type":"string","internalType":"string"},{"name":"colorMap","type":"bytes","internalType":"bytes"},{"name":"zMap","type":"bytes","internalType":"bytes"}],"stateMutability":"view"},{"type":"function","name":"cancelOwnershipHandover","inputs":[],"outputs":[],"stateMutability":"payable"},{"type":"function","name":"checkIfTraitIsEquipped","inputs":[{"name":"_chonkId","type":"uint256","internalType":"uint256"},{"name":"_traitId","type":"uint256","internalType":"uint256"}],"outputs":[{"name":"","type":"bool","internalType":"bool"}],"stateMutability":"view"},{"type":"function","name":"chonkIdToApprovedOperators","inputs":[{"name":"chonkId","type":"uint256","internalType":"uint256"},{"name":"","type":"uint256","internalType":"uint256"}],"outputs":[{"name":"operators","type":"address","internalType":"address"}],"stateMutability":"view"},{"type":"function","name":"chonkTokens","inputs":[{"name":"tokenID","type":"uint256","internalType":"uint256"}],"outputs":[{"name":"headId","type":"uint256","internalType":"uint256"},{"name":"hairId","type":"uint256","internalType":"uint256"},{"name":"faceId","type":"uint256","internalType":"uint256"},{"name":"accessoryId","type":"uint256","internalType":"uint256"},{"name":"topId","type":"uint256","internalType":"uint256"},{"name":"bottomId","type":"uint256","internalType":"uint256"},{"name":"shoesId","type":"uint256","internalType":"uint256"},{"name":"epoch","type":"uint32","internalType":"uint32"},{"name":"tokenId","type":"uint256","internalType":"uint256"},{"name":"bodyIndex","type":"uint8","internalType":"uint8"},{"name":"backgroundColor","type":"string","internalType":"string"},{"name":"render3D","type":"bool","internalType":"bool"}],"stateMutability":"view"},{"type":"function","name":"collectionsMerkle","inputs":[],"outputs":[{"name":"","type":"bytes32","internalType":"bytes32"}],"stateMutability":"view"},{"type":"function","name":"completeOwnershipHandover","inputs":[{"name":"pendingOwner","type":"address","internalType":"address"}],"outputs":[],"stateMutability":"payable"},{"type":"function","name":"creatorsMerkle","inputs":[],"outputs":[{"name":"","type":"bytes32","internalType":"bytes32"}],"stateMutability":"view"},{"type":"function","name":"deploymentTime","inputs":[],"outputs":[{"name":"","type":"uint256","internalType":"uint256"}],"stateMutability":"view"},{"type":"function","name":"equip","inputs":[{"name":"_chonkTokenId","type":"uint256","internalType":"uint256"},{"name":"_traitTokenId","type":"uint256","internalType":"uint256"}],"outputs":[],"stateMutability":"nonpayable"},{"type":"function","name":"equipAll","inputs":[{"name":"_chonkTokenId","type":"uint256","internalType":"uint256"},{"name":"_headTokenId","type":"uint256","internalType":"uint256"},{"name":"_hairTokenId","type":"uint256","internalType":"uint256"},{"name":"_faceTokenId","type":"uint256","internalType":"uint256"},{"name":"_accessoryTokenId","type":"uint256","internalType":"uint256"},{"name":"_topTokenId","type":"uint256","internalType":"uint256"},{"name":"_bottomTokenId","type":"uint256","internalType":"uint256"},{"name":"_shoesTokenId","type":"uint256","internalType":"uint256"}],"outputs":[],"stateMutability":"nonpayable"},{"type":"function","name":"firstReleaseDataMinter","inputs":[],"outputs":[{"name":"","type":"address","internalType":"contract FirstReleaseDataMinter"}],"stateMutability":"view"},{"type":"function","name":"friendsMerkle","inputs":[],"outputs":[{"name":"","type":"bytes32","internalType":"bytes32"}],"stateMutability":"view"},{"type":"function","name":"getApproved","inputs":[{"name":"tokenId","type":"uint256","internalType":"uint256"}],"outputs":[{"name":"","type":"address","internalType":"address"}],"stateMutability":"view"},{"type":"function","name":"getBackpackSVGs","inputs":[{"name":"_tokenId","type":"uint256","internalType":"uint256"}],"outputs":[{"name":"","type":"string","internalType":"string"}],"stateMutability":"view"},{"type":"function","name":"getBodyImageSvg","inputs":[{"name":"_index","type":"uint256","internalType":"uint256"}],"outputs":[{"name":"svg","type":"string","internalType":"string"}],"stateMutability":"view"},{"type":"function","name":"getBodySVGZmapsAndMetadata","inputs":[{"name":"storedChonk","type":"tuple","internalType":"struct IChonkStorage.StoredChonk","components":[{"name":"headId","type":"uint256","internalType":"uint256"},{"name":"hairId","type":"uint256","internalType":"uint256"},{"name":"faceId","type":"uint256","internalType":"uint256"},{"name":"accessoryId","type":"uint256","internalType":"uint256"},{"name":"topId","type":"uint256","internalType":"uint256"},{"name":"bottomId","type":"uint256","internalType":"uint256"},{"name":"shoesId","type":"uint256","internalType":"uint256"},{"name":"epoch","type":"uint32","internalType":"uint32"},{"name":"tokenId","type":"uint256","internalType":"uint256"},{"name":"bodyIndex","type":"uint8","internalType":"uint8"},{"name":"backgroundColor","type":"string","internalType":"string"},{"name":"render3D","type":"bool","internalType":"bool"}]}],"outputs":[{"name":"","type":"string","internalType":"string"},{"name":"","type":"bytes","internalType":"bytes"},{"name":"","type":"string","internalType":"string"}],"stateMutability":"view"},{"type":"function","name":"getBodySvgAndMetadata","inputs":[{"name":"storedChonk","type":"tuple","internalType":"struct IChonkStorage.StoredChonk","components":[{"name":"headId","type":"uint256","internalType":"uint256"},{"name":"hairId","type":"uint256","internalType":"uint256"},{"name":"faceId","type":"uint256","internalType":"uint256"},{"name":"accessoryId","type":"uint256","internalType":"uint256"},{"name":"topId","type":"uint256","internalType":"uint256"},{"name":"bottomId","type":"uint256","internalType":"uint256"},{"name":"shoesId","type":"uint256","internalType":"uint256"},{"name":"epoch","type":"uint32","internalType":"uint32"},{"name":"tokenId","type":"uint256","internalType":"uint256"},{"name":"bodyIndex","type":"uint8","internalType":"uint8"},{"name":"backgroundColor","type":"string","internalType":"string"},{"name":"render3D","type":"bool","internalType":"bool"}]}],"outputs":[{"name":"","type":"string","internalType":"string"},{"name":"","type":"string","internalType":"string"}],"stateMutability":"view"},{"type":"function","name":"getBodyZMap","inputs":[{"name":"_tokenId","type":"uint256","internalType":"uint256"}],"outputs":[{"name":"","type":"string","internalType":"string"}],"stateMutability":"view"},{"type":"function","name":"getChonk","inputs":[{"name":"_tokenId","type":"uint256","internalType":"uint256"}],"outputs":[{"name":"","type":"tuple","internalType":"struct IChonkStorage.StoredChonk","components":[{"name":"headId","type":"uint256","internalType":"uint256"},{"name":"hairId","type":"uint256","internalType":"uint256"},{"name":"faceId","type":"uint256","internalType":"uint256"},{"name":"accessoryId","type":"uint256","internalType":"uint256"},{"name":"topId","type":"uint256","internalType":"uint256"},{"name":"bottomId","type":"uint256","internalType":"uint256"},{"name":"shoesId","type":"uint256","internalType":"uint256"},{"name":"epoch","type":"uint32","internalType":"uint32"},{"name":"tokenId","type":"uint256","internalType":"uint256"},{"name":"bodyIndex","type":"uint8","internalType":"uint8"},{"name":"backgroundColor","type":"string","internalType":"string"},{"name":"render3D","type":"bool","internalType":"bool"}]}],"stateMutability":"view"},{"type":"function","name":"getChonkIdForTBAAddress","inputs":[{"name":"_tbaAddress","type":"address","internalType":"address"}],"outputs":[{"name":"","type":"uint256","internalType":"uint256"}],"stateMutability":"view"},{"type":"function","name":"getChonkIdToApprovedOperators","inputs":[{"name":"_chonkId","type":"uint256","internalType":"uint256"}],"outputs":[{"name":"","type":"address[]","internalType":"address[]"}],"stateMutability":"view"},{"type":"function","name":"getChonkZMap","inputs":[{"name":"_tokenId","type":"uint256","internalType":"uint256"}],"outputs":[{"name":"","type":"string","internalType":"string"}],"stateMutability":"view"},{"type":"function","name":"getFullPictureForTrait","inputs":[{"name":"_chonkTraitTokenId","type":"uint256","internalType":"uint256"}],"outputs":[{"name":"traitOwnerTBA","type":"address","internalType":"address"},{"name":"chonkTokenId","type":"uint256","internalType":"uint256"},{"name":"chonkOwner","type":"address","internalType":"address"},{"name":"isEquipped","type":"bool","internalType":"bool"}],"stateMutability":"view"},{"type":"function","name":"getOwnerAndTBAAddressForChonkId","inputs":[{"name":"_chonkId","type":"uint256","internalType":"uint256"}],"outputs":[{"name":"owner","type":"address","internalType":"address"},{"name":"tbaAddress","type":"address","internalType":"address"}],"stateMutability":"view"},{"type":"function","name":"getTBAAddressForChonkId","inputs":[{"name":"_chonkId","type":"uint256","internalType":"uint256"}],"outputs":[{"name":"","type":"address","internalType":"address"}],"stateMutability":"view"},{"type":"function","name":"getTraitsForChonkId","inputs":[{"name":"_chonkId","type":"uint256","internalType":"uint256"}],"outputs":[{"name":"traitTokens","type":"uint256[]","internalType":"uint256[]"}],"stateMutability":"view"},{"type":"function","name":"initialMintStartTime","inputs":[],"outputs":[{"name":"","type":"uint256","internalType":"uint256"}],"stateMutability":"view"},{"type":"function","name":"isApprovedForAll","inputs":[{"name":"owner","type":"address","internalType":"address"},{"name":"operator","type":"address","internalType":"address"}],"outputs":[{"name":"","type":"bool","internalType":"bool"}],"stateMutability":"view"},{"type":"function","name":"isTimelocked","inputs":[],"outputs":[{"name":"","type":"bool","internalType":"bool"}],"stateMutability":"view"},{"type":"function","name":"mainRenderer2D","inputs":[],"outputs":[{"name":"","type":"address","internalType":"contract MainRenderer2D"}],"stateMutability":"view"},{"type":"function","name":"mainRenderer3D","inputs":[],"outputs":[{"name":"","type":"address","internalType":"contract MainRenderer3D"}],"stateMutability":"view"},{"type":"function","name":"marketplace","inputs":[],"outputs":[{"name":"","type":"address","internalType":"contract ChonksMarket"}],"stateMutability":"view"},{"type":"function","name":"maxTraitsToOutput","inputs":[],"outputs":[{"name":"","type":"uint256","internalType":"uint256"}],"stateMutability":"view"},{"type":"function","name":"mint","inputs":[{"name":"_amount","type":"uint256","internalType":"uint256"},{"name":"_merkleProof","type":"bytes32[]","internalType":"bytes32[]"}],"outputs":[],"stateMutability":"payable"},{"type":"function","name":"name","inputs":[],"outputs":[{"name":"","type":"string","internalType":"string"}],"stateMutability":"view"},{"type":"function","name":"oneYearFromDeployment","inputs":[],"outputs":[{"name":"","type":"uint256","internalType":"uint256"}],"stateMutability":"view"},{"type":"function","name":"owner","inputs":[],"outputs":[{"name":"result","type":"address","internalType":"address"}],"stateMutability":"view"},{"type":"function","name":"ownerOf","inputs":[{"name":"tokenId","type":"uint256","internalType":"uint256"}],"outputs":[{"name":"","type":"address","internalType":"address"}],"stateMutability":"view"},{"type":"function","name":"ownershipHandoverExpiresAt","inputs":[{"name":"pendingOwner","type":"address","internalType":"address"}],"outputs":[{"name":"result","type":"uint256","internalType":"uint256"}],"stateMutability":"view"},{"type":"function","name":"price","inputs":[],"outputs":[{"name":"","type":"uint256","internalType":"uint256"}],"stateMutability":"view"},{"type":"function","name":"renderAsDataUri","inputs":[{"name":"_tokenId","type":"uint256","internalType":"uint256"}],"outputs":[{"name":"","type":"string","internalType":"string"}],"stateMutability":"view"},{"type":"function","name":"renderAsDataUri2D","inputs":[{"name":"_tokenId","type":"uint256","internalType":"uint256"}],"outputs":[{"name":"","type":"string","internalType":"string"}],"stateMutability":"view"},{"type":"function","name":"renderAsDataUri3D","inputs":[{"name":"_tokenId","type":"uint256","internalType":"uint256"}],"outputs":[{"name":"","type":"string","internalType":"string"}],"stateMutability":"view"},{"type":"function","name":"renounceOwnership","inputs":[],"outputs":[],"stateMutability":"payable"},{"type":"function","name":"requestOwnershipHandover","inputs":[],"outputs":[],"stateMutability":"payable"},{"type":"function","name":"safeTransferFrom","inputs":[{"name":"from","type":"address","internalType":"address"},{"name":"to","type":"address","internalType":"address"},{"name":"tokenId","type":"uint256","internalType":"uint256"}],"outputs":[],"stateMutability":"nonpayable"},{"type":"function","name":"safeTransferFrom","inputs":[{"name":"from","type":"address","internalType":"address"},{"name":"to","type":"address","internalType":"address"},{"name":"tokenId","type":"uint256","internalType":"uint256"},{"name":"data","type":"bytes","internalType":"bytes"}],"outputs":[],"stateMutability":"nonpayable"},{"type":"function","name":"setApprovalForAll","inputs":[{"name":"_operator","type":"address","internalType":"address"},{"name":"_approved","type":"bool","internalType":"bool"}],"outputs":[],"stateMutability":"nonpayable"},{"type":"function","name":"setApprovalForAllChonksMarketplace","inputs":[{"name":"_chonkId","type":"uint256","internalType":"uint256"},{"name":"_operator","type":"address","internalType":"address"},{"name":"_approved","type":"bool","internalType":"bool"}],"outputs":[],"stateMutability":"nonpayable"},{"type":"function","name":"setChonkAttributes","inputs":[{"name":"_tokenId","type":"uint256","internalType":"uint256"},{"name":"_color","type":"string","internalType":"string"},{"name":"_bodyIndex","type":"uint8","internalType":"uint8"},{"name":"_render3D","type":"bool","internalType":"bool"}],"outputs":[],"stateMutability":"nonpayable"},{"type":"function","name":"setCollectionsMerkle","inputs":[{"name":"_merkleRoot","type":"bytes32","internalType":"bytes32"}],"outputs":[],"stateMutability":"nonpayable"},{"type":"function","name":"setCreatorsMerkle","inputs":[{"name":"_merkleRoot","type":"bytes32","internalType":"bytes32"}],"outputs":[],"stateMutability":"nonpayable"},{"type":"function","name":"setDescriptionParts","inputs":[{"name":"_descriptionParts","type":"string[2]","internalType":"string[2]"}],"outputs":[],"stateMutability":"nonpayable"},{"type":"function","name":"setFirstReleaseDataMinter","inputs":[{"name":"_dataContract","type":"address","internalType":"address"}],"outputs":[],"stateMutability":"nonpayable"},{"type":"function","name":"setFriendsMerkleRoot","inputs":[{"name":"_merkleRoot","type":"bytes32","internalType":"bytes32"}],"outputs":[],"stateMutability":"nonpayable"},{"type":"function","name":"setMainRenderer2D","inputs":[{"name":"_mainRenderer2D","type":"address","internalType":"address"}],"outputs":[],"stateMutability":"nonpayable"},{"type":"function","name":"setMainRenderer3D","inputs":[{"name":"_mainRenderer3D","type":"address","internalType":"address"}],"outputs":[],"stateMutability":"nonpayable"},{"type":"function","name":"setMarketplace","inputs":[{"name":"_marketplace","type":"address","internalType":"address"}],"outputs":[],"stateMutability":"nonpayable"},{"type":"function","name":"setMaxTraitsToOutput","inputs":[{"name":"_maxTraitsToOutput","type":"uint256","internalType":"uint256"}],"outputs":[],"stateMutability":"nonpayable"},{"type":"function","name":"setMintStartTime","inputs":[{"name":"_initialMintStartTime","type":"uint256","internalType":"uint256"}],"outputs":[],"stateMutability":"nonpayable"},{"type":"function","name":"setPrice","inputs":[{"name":"_priceInWei","type":"uint256","internalType":"uint256"}],"outputs":[],"stateMutability":"nonpayable"},{"type":"function","name":"setTraitsContract","inputs":[{"name":"_address","type":"address","internalType":"contract ChonkTraits"}],"outputs":[],"stateMutability":"nonpayable"},{"type":"function","name":"setWithdrawAddress","inputs":[{"name":"_withdrawAddress","type":"address","internalType":"address"}],"outputs":[],"stateMutability":"nonpayable"},{"type":"function","name":"supportsInterface","inputs":[{"name":"interfaceId","type":"bytes4","internalType":"bytes4"}],"outputs":[{"name":"","type":"bool","internalType":"bool"}],"stateMutability":"view"},{"type":"function","name":"symbol","inputs":[],"outputs":[{"name":"","type":"string","internalType":"string"}],"stateMutability":"view"},{"type":"function","name":"tbaAddressToTokenId","inputs":[{"name":"","type":"address","internalType":"address"}],"outputs":[{"name":"","type":"uint256","internalType":"uint256"}],"stateMutability":"view"},{"type":"function","name":"teamMint","inputs":[{"name":"_to","type":"address","internalType":"address"},{"name":"_amount","type":"uint256","internalType":"uint256"},{"name":"_traitCount","type":"uint8","internalType":"uint8"}],"outputs":[],"stateMutability":"nonpayable"},{"type":"function","name":"teamReserve","inputs":[],"outputs":[],"stateMutability":"nonpayable"},{"type":"function","name":"tokenByIndex","inputs":[{"name":"index","type":"uint256","internalType":"uint256"}],"outputs":[{"name":"","type":"uint256","internalType":"uint256"}],"stateMutability":"view"},{"type":"function","name":"tokenIdToTBAAccountAddress","inputs":[{"name":"","type":"uint256","internalType":"uint256"}],"outputs":[{"name":"","type":"address","internalType":"address"}],"stateMutability":"view"},{"type":"function","name":"tokenOfOwnerByIndex","inputs":[{"name":"owner","type":"address","internalType":"address"},{"name":"index","type":"uint256","internalType":"uint256"}],"outputs":[{"name":"","type":"uint256","internalType":"uint256"}],"stateMutability":"view"},{"type":"function","name":"tokenURI","inputs":[{"name":"_tokenId","type":"uint256","internalType":"uint256"}],"outputs":[{"name":"","type":"string","internalType":"string"}],"stateMutability":"view"},{"type":"function","name":"totalSupply","inputs":[],"outputs":[{"name":"","type":"uint256","internalType":"uint256"}],"stateMutability":"view"},{"type":"function","name":"traitsContract","inputs":[],"outputs":[{"name":"","type":"address","internalType":"contract ChonkTraits"}],"stateMutability":"view"},{"type":"function","name":"transferFrom","inputs":[{"name":"from","type":"address","internalType":"address"},{"name":"to","type":"address","internalType":"address"},{"name":"tokenId","type":"uint256","internalType":"uint256"}],"outputs":[],"stateMutability":"nonpayable"},{"type":"function","name":"transferOwnership","inputs":[{"name":"newOwner","type":"address","internalType":"address"}],"outputs":[],"stateMutability":"payable"},{"type":"function","name":"unequip","inputs":[{"name":"_chonkTokenId","type":"uint256","internalType":"uint256"},{"name":"traitType","type":"uint8","internalType":"enum TraitCategory.Name"}],"outputs":[],"stateMutability":"nonpayable"},{"type":"function","name":"unequipAll","inputs":[{"name":"_chonkTokenId","type":"uint256","internalType":"uint256"}],"outputs":[],"stateMutability":"nonpayable"},{"type":"function","name":"walletOfOwner","inputs":[{"name":"_owner","type":"address","internalType":"address"}],"outputs":[{"name":"","type":"uint256[]","internalType":"uint256[]"}],"stateMutability":"view"},{"type":"function","name":"withdraw","inputs":[],"outputs":[],"stateMutability":"nonpayable"},{"type":"function","name":"withdrawAddress","inputs":[],"outputs":[{"name":"","type":"address","internalType":"address"}],"stateMutability":"view"},{"type":"event","name":"Approval","inputs":[{"name":"owner","type":"address","indexed":true,"internalType":"address"},{"name":"approved","type":"address","indexed":true,"internalType":"address"},{"name":"tokenId","type":"uint256","indexed":true,"internalType":"uint256"}],"anonymous":false},{"type":"event","name":"ApprovalForAll","inputs":[{"name":"owner","type":"address","indexed":true,"internalType":"address"},{"name":"operator","type":"address","indexed":true,"internalType":"address"},{"name":"approved","type":"bool","indexed":false,"internalType":"bool"}],"anonymous":false},{"type":"event","name":"BatchMetadataUpdate","inputs":[{"name":"_fromTokenId","type":"uint256","indexed":false,"internalType":"uint256"},{"name":"_toTokenId","type":"uint256","indexed":false,"internalType":"uint256"}],"anonymous":false},{"type":"event","name":"Equip","inputs":[{"name":"owner","type":"address","indexed":true,"internalType":"address"},{"name":"tokenId","type":"uint256","indexed":true,"internalType":"uint256"},{"name":"traitTokenId","type":"uint256","indexed":true,"internalType":"uint256"},{"name":"traitCategory","type":"uint8","indexed":false,"internalType":"uint8"}],"anonymous":false},{"type":"event","name":"EquipAll","inputs":[{"name":"owner","type":"address","indexed":true,"internalType":"address"},{"name":"tokenId","type":"uint256","indexed":true,"internalType":"uint256"}],"anonymous":false},{"type":"event","name":"MetadataUpdate","inputs":[{"name":"_tokenId","type":"uint256","indexed":false,"internalType":"uint256"}],"anonymous":false},{"type":"event","name":"Mint","inputs":[{"name":"owner","type":"address","indexed":true,"internalType":"address"},{"name":"tokenId","type":"uint256","indexed":true,"internalType":"uint256"}],"anonymous":false},{"type":"event","name":"OwnershipHandoverCanceled","inputs":[{"name":"pendingOwner","type":"address","indexed":true,"internalType":"address"}],"anonymous":false},{"type":"event","name":"OwnershipHandoverRequested","inputs":[{"name":"pendingOwner","type":"address","indexed":true,"internalType":"address"}],"anonymous":false},{"type":"event","name":"OwnershipTransferred","inputs":[{"name":"oldOwner","type":"address","indexed":true,"internalType":"address"},{"name":"newOwner","type":"address","indexed":true,"internalType":"address"}],"anonymous":false},{"type":"event","name":"Transfer","inputs":[{"name":"from","type":"address","indexed":true,"internalType":"address"},{"name":"to","type":"address","indexed":true,"internalType":"address"},{"name":"tokenId","type":"uint256","indexed":true,"internalType":"uint256"}],"anonymous":false},{"type":"event","name":"Unequip","inputs":[{"name":"owner","type":"address","indexed":true,"internalType":"address"},{"name":"tokenId","type":"uint256","indexed":true,"internalType":"uint256"},{"name":"traitCategory","type":"uint8","indexed":false,"internalType":"uint8"}],"anonymous":false},{"type":"event","name":"UnequipAll","inputs":[{"name":"owner","type":"address","indexed":true,"internalType":"address"},{"name":"tokenId","type":"uint256","indexed":true,"internalType":"uint256"}],"anonymous":false},{"type":"error","name":"AlreadyInitialized","inputs":[]},{"type":"error","name":"CanOnlyReserveFirstTwo","inputs":[]},{"type":"error","name":"CantTransferDuringMint","inputs":[]},{"type":"error","name":"CantTransferToTBAs","inputs":[]},{"type":"error","name":"ChonkDoesntExist","inputs":[]},{"type":"error","name":"FirstReleaseDataMinterNotSet","inputs":[]},{"type":"error","name":"IncorrectChonkOwner","inputs":[]},{"type":"error","name":"IncorrectTBAOwner","inputs":[]},{"type":"error","name":"IncorrectTraitType","inputs":[]},{"type":"error","name":"InsufficientFunds","inputs":[]},{"type":"error","name":"InvalidBodyIndex","inputs":[]},{"type":"error","name":"InvalidColor","inputs":[]},{"type":"error","name":"InvalidMintAmount","inputs":[]},{"type":"error","name":"InvalidTraitCount","inputs":[]},{"type":"error","name":"MintEnded","inputs":[]},{"type":"error","name":"MintNotStarted","inputs":[]},{"type":"error","name":"MintStartTimeAlreadySet","inputs":[]},{"type":"error","name":"NewOwnerIsZeroAddress","inputs":[]},{"type":"error","name":"NoHandoverRequest","inputs":[]},{"type":"error","name":"Timelocked","inputs":[]},{"type":"error","name":"Unauthorized","inputs":[]},{"type":"error","name":"UseUnequip","inputs":[]},{"type":"error","name":"WithdrawFailed","inputs":[]}],"bytecode":{"object":"0x60a060405260636011553480156200001657600080fd5b506040518060400160405280600681526020016543686f6e6b7360d01b8152506040518060400160405280600681526020016543484f4e4b5360d01b815250816000908162000066919062000175565b50600162000075828262000175565b50506001600a5550620000883362000092565b4260805262000241565b6001600160a01b0316638b78c6d8198190558060007f8be0079c531659141344cd1fd0a4f28419497f9722a3daafe3b4186f6b6457e08180a350565b634e487b7160e01b600052604160045260246000fd5b600181811c90821680620000f957607f821691505b6020821081036200011a57634e487b7160e01b600052602260045260246000fd5b50919050565b601f82111562000170576000816000526020600020601f850160051c810160208610156200014b5750805b601f850160051c820191505b818110156200016c5782815560010162000157565b5050505b505050565b81516001600160401b03811115620001915762000191620000ce565b620001a981620001a28454620000e4565b8462000120565b602080601f831160018114620001e15760008415620001c85750858301515b600019600386901b1c1916600185901b1785556200016c565b600085815260208120601f198616915b828110156200021257888601518255948401946001909101908401620001f1565b5085821015620002315787850151600019600388901b60f8161c191681555b5050505050600190811b01905550565b6080516162ae6200026460003960008181610eef015261306c01526162ae6000f3fe6080604052600436106104bf5760003560e01c80638aa1e4c811610276578063b88d4fde1161014f578063e985e9c5116100c1578063f3f8efb911610085578063f3f8efb914610f57578063f4bec0b614610f77578063f6a0c93214610f97578063fc863e6414610fcd578063fd8b66de14610fe3578063fee81cf41461100357600080fd5b8063e985e9c514610e94578063ecda10f514610edd578063f04e283e14610f11578063f2361e2314610f24578063f2fde38b14610f4457600080fd5b8063cdb6dd5c11610113578063cdb6dd5c14610ddc578063d3d6873e14610dfc578063d59752eb14610e29578063d5b3621b14610e3e578063dceef0ec14610e5e578063e3d2155514610e7e57600080fd5b8063b88d4fde14610d53578063b91fdc8c14610d73578063ba41b0c614610d89578063c093afdb14610d9c578063c87b56dd14610dbc57600080fd5b8063a035b1fe116101e8578063a4bf9a00116101ac578063a4bf9a0014610c6e578063abc8c7af14610c9b578063b194b6f114610cbb578063b45d031614610cdb578063b66ef6e314610d13578063b84b160d14610d3357600080fd5b8063a035b1fe14610bd4578063a153178014610bea578063a1d6268014610c00578063a22cb46514610c20578063a23830ae14610c4057600080fd5b806392012f081161023a57806392012f0814610b0557806395d89b4114610b345780639c05d68d14610b495780639c7be2f114610b7f5780639eb2660c14610b945780639f6e463714610bb457600080fd5b80638aa1e4c814610a6c5780638d2a2f1114610a8c5780638da5cb5b14610aac578063916c546b14610ac557806391b7f5ed14610ae557600080fd5b80633ccfd60b116103a85780635eabd84a1161031a57806370a08231116102de57806370a08231146109b8578063715018a6146109d857806373ad6c2d146109e05780637e2e6c4714610a0057806380d833f114610a205780638472cbca14610a3657600080fd5b80635eabd84a146108d65780636352211e146108f6578063667043491461091657806367d2afe21461096b5780636e51665f1461099857600080fd5b80634a60f6201161036c5780634a60f620146108435780634f6ccce71461085957806350b031461461087957806354d1f13d1461088e578063550ab2471461089657806355737f35146108b657600080fd5b80633ccfd60b146107ac57806342842e0e146107c15780634287f14a146107e1578063438b6300146107f65780634a4333a31461082357600080fd5b806323b872dd116104415780633044825b116104055780633044825b146106ec578063306c73341461070c57806332875aa01461072c57806333d3d9bf1461074c578063343b48871461076c5780633ab1a4941461078c57600080fd5b806323b872dd14610664578063256929621461068457806326f2052a1461068c57806328257532146106ac5780632f745c59146106cc57600080fd5b8063095ea7b311610488578063095ea7b3146105b55780630c83f9d7146105d557806314fe8ff4146106055780631581b6001461062557806318160ddd1461064557600080fd5b8062179206146104c457806301ffc9a7146104e657806304003bd01461051b57806306fdde031461055b578063081812fc1461057d575b600080fd5b3480156104d057600080fd5b506104e46104df366004614efc565b611036565b005b3480156104f257600080fd5b50610506610501366004614f2f565b611086565b60405190151581526020015b60405180910390f35b34801561052757600080fd5b5061053b610536366004614f4c565b611097565b604080516001600160a01b03938416815292909116602083015201610512565b34801561056757600080fd5b506105706110c6565b6040516105129190614fb5565b34801561058957600080fd5b5061059d610598366004614f4c565b611158565b6040516001600160a01b039091168152602001610512565b3480156105c157600080fd5b506104e46105d0366004614fc8565b61117f565b3480156105e157600080fd5b506105f56105f0366004614f4c565b6111d0565b6040516105129493929190614ff4565b34801561061157600080fd5b50610570610620366004614f4c565b611391565b34801561063157600080fd5b5060135461059d906001600160a01b031681565b34801561065157600080fd5b506008545b604051908152602001610512565b34801561067057600080fd5b506104e461067f36600461503e565b6115d5565b6104e4611614565b34801561069857600080fd5b506104e46106a73660046151b0565b611663565b3480156106b857600080fd5b506104e46106c736600461524a565b611678565b3480156106d857600080fd5b506106566106e7366004614fc8565b6117a3565b3480156106f857600080fd5b506104e4610707366004614f4c565b611839565b34801561071857600080fd5b50610570610727366004614f4c565b6118f4565b34801561073857600080fd5b50610570610747366004614f4c565b61190c565b34801561075857600080fd5b506104e4610767366004614f4c565b6119c3565b34801561077857600080fd5b506104e4610787366004615292565b6119d0565b34801561079857600080fd5b506104e46107a7366004614efc565b611bf9565b3480156107b857600080fd5b506104e4611c23565b3480156107cd57600080fd5b506104e46107dc36600461503e565b611ca2565b3480156107ed57600080fd5b506104e4611cbd565b34801561080257600080fd5b50610816610811366004614efc565b611cfe565b60405161051291906152f9565b34801561082f57600080fd5b506104e461083e36600461533d565b611d95565b34801561084f57600080fd5b5061065660125481565b34801561086557600080fd5b50610656610874366004614f4c565b6120c6565b34801561088557600080fd5b50610506612159565b6104e461216a565b3480156108a257600080fd5b506104e46108b1366004615392565b6121a6565b3480156108c257600080fd5b5061059d6108d136600461524a565b6121fc565b3480156108e257600080fd5b506104e46108f1366004614efc565b612234565b34801561090257600080fd5b5061059d610911366004614f4c565b612284565b34801561092257600080fd5b50610936610931366004614f4c565b6122e4565b60405161051294939291906001600160a01b039485168152602081019390935292166040820152901515606082015260800190565b34801561097757600080fd5b5061098b610986366004614f4c565b612396565b6040516105129190615415565b3480156109a457600080fd5b506104e46109b3366004615428565b612402565b3480156109c457600080fd5b506106566109d3366004614efc565b6124a6565b6104e461252c565b3480156109ec57600080fd5b506104e46109fb366004614efc565b61253e565b348015610a0c57600080fd5b506104e4610a1b366004614efc565b61258e565b348015610a2c57600080fd5b50610656601c5481565b348015610a4257600080fd5b50610656610a51366004614efc565b6001600160a01b03166000908152601a602052604090205490565b348015610a7857600080fd5b50610506610a8736600461524a565b6125de565b348015610a9857600080fd5b506104e4610aa7366004614f4c565b61264d565b348015610ab857600080fd5b50638b78c6d8195461059d565b348015610ad157600080fd5b50610570610ae0366004614f4c565b61265a565b348015610af157600080fd5b506104e4610b00366004614f4c565b61275d565b348015610b1157600080fd5b50610b25610b20366004615471565b61276a565b6040516105129392919061556a565b348015610b4057600080fd5b506105706128bb565b348015610b5557600080fd5b5061059d610b64366004614f4c565b6019602052600090815260409020546001600160a01b031681565b348015610b8b57600080fd5b506104e46128ca565b348015610ba057600080fd5b506104e4610baf366004614f4c565b6128ec565b348015610bc057600080fd5b50610816610bcf366004614f4c565b6128f9565b348015610be057600080fd5b5061065660145481565b348015610bf657600080fd5b50610656601e5481565b348015610c0c57600080fd5b50610570610c1b366004614f4c565b612988565b348015610c2c57600080fd5b506104e4610c3b3660046155a3565b6129b3565b348015610c4c57600080fd5b50610c60610c5b366004615471565b612a2c565b6040516105129291906155d8565b348015610c7a57600080fd5b50610656610c89366004614efc565b601a6020526000908152604090205481565b348015610ca757600080fd5b50600d5461059d906001600160a01b031681565b348015610cc757600080fd5b506104e4610cd6366004614f4c565b612ada565b348015610ce757600080fd5b50610cfb610cf6366004614f4c565b612ae7565b6040516105129c9b9a99989796959493929190615606565b348015610d1f57600080fd5b5060105461059d906001600160a01b031681565b348015610d3f57600080fd5b506104e4610d4e366004614efc565b612bde565b348015610d5f57600080fd5b506104e4610d6e36600461567f565b612c2e565b348015610d7f57600080fd5b5061065660155481565b6104e4610d9736600461570d565b612c60565b348015610da857600080fd5b50600c5461059d906001600160a01b031681565b348015610dc857600080fd5b50610570610dd7366004614f4c565b612dd3565b348015610de857600080fd5b506104e4610df73660046157b6565b612e14565b348015610e0857600080fd5b50610e1c610e17366004614f4c565b612ebc565b60405161051291906157e6565b348015610e3557600080fd5b50610656613065565b348015610e4a57600080fd5b506104e4610e59366004614f4c565b61309a565b348015610e6a57600080fd5b50610570610e79366004614f4c565b6130c8565b348015610e8a57600080fd5b5061065660115481565b348015610ea057600080fd5b50610506610eaf36600461589d565b6001600160a01b03918216600090815260056020908152604080832093909416825291909152205460ff1690565b348015610ee957600080fd5b506106567f000000000000000000000000000000000000000000000000000000000000000081565b6104e4610f1f366004614efc565b6133a3565b348015610f3057600080fd5b506104e4610f3f3660046158cb565b6133e0565b6104e4610f52366004614efc565b613453565b348015610f6357600080fd5b50610570610f72366004614f4c565b61347a565b348015610f8357600080fd5b50600f5461059d906001600160a01b031681565b348015610fa357600080fd5b5061059d610fb2366004614f4c565b6000908152601960205260409020546001600160a01b031690565b348015610fd957600080fd5b50610656601d5481565b348015610fef57600080fd5b50600e5461059d906001600160a01b031681565b34801561100f57600080fd5b5061065661101e366004614efc565b63389a75e1600c908152600091909152602090205490565b61103e613730565b611046612159565b156110645760405163774ae17d60e01b815260040160405180910390fd5b601080546001600160a01b0319166001600160a01b0392909216919091179055565b60006110918261374b565b92915050565b6000806110a383612284565b6000938452601960205260409093205492936001600160a01b0390931692915050565b6060600080546110d590615950565b80601f016020809104026020016040519081016040528092919081815260200182805461110190615950565b801561114e5780601f106111235761010080835404028352916020019161114e565b820191906000526020600020905b81548152906001019060200180831161113157829003601f168201915b5050505050905090565b600061116382613770565b506000908152600460205260409020546001600160a01b031690565b61118881612284565b6001600160a01b0316336001600160a01b0316146111b8576040516282b42960e81b815260040160405180910390fd5b6111c281836137cf565b6111cc828261380e565b5050565b600b60205260009081526040902080546001820180549192916111f290615950565b80601f016020809104026020016040519081016040528092919081815260200182805461121e90615950565b801561126b5780601f106112405761010080835404028352916020019161126b565b820191906000526020600020905b81548152906001019060200180831161124e57829003601f168201915b50505050509080600201805461128090615950565b80601f01602080910402602001604051908101604052809291908181526020018280546112ac90615950565b80156112f95780601f106112ce576101008083540402835291602001916112f9565b820191906000526020600020905b8154815290600101906020018083116112dc57829003601f168201915b50505050509080600301805461130e90615950565b80601f016020809104026020016040519081016040528092919081815260200182805461133a90615950565b80156113875780601f1061135c57610100808354040283529160200191611387565b820191906000526020600020905b81548152906001019060200180831161136a57829003601f168201915b5050505050905084565b6060600061139e836128f9565b90506000600c60009054906101000a90046001600160a01b03166001600160a01b0316635c1ef2566040518163ffffffff1660e01b8152600401600060405180830381865afa1580156113f5573d6000803e3d6000fd5b505050506040513d6000823e601f3d908101601f1916820160405261141d91908101906159cf565b9050600060115483511061143357601154611436565b82515b90506000816001600160401b038111156114525761145261507f565b60405190808252806020026020018201604052801561148557816020015b60608152602001906001900390816114705790505b50905060005b8281101561154c57600c5485516001600160a01b039091169063c7791531908790849081106114bc576114bc615a03565b60200260200101516040518263ffffffff1660e01b81526004016114e291815260200190565b600060405180830381865afa1580156114ff573d6000803e3d6000fd5b505050506040513d6000823e601f3d908101601f1916820160405261152791908101906159cf565b82828151811061153957611539615a03565b602090810291909101015260010161148b565b50600f548451601154604051631719ff8760e11b81526001600160a01b0390931692632e33ff0e9261158692889287929190600401615a19565b600060405180830381865afa1580156115a3573d6000803e3d6000fd5b505050506040513d6000823e601f3d908101601f191682016040526115cb91908101906159cf565b9695505050505050565b6115df338261387c565b6116045760405162461bcd60e51b81526004016115fb90615a9a565b60405180910390fd5b61160f8383836138fa565b505050565b60006202a3006001600160401b03164201905063389a75e1600c5233600052806020600c2055337fdbf36a107da19e49527a7176a1babf963b4b0ff8cde35ee35d6cd8f1f9ac7e1d600080a250565b61166b613730565b6111cc6016826002614dc0565b8161168281612284565b6001600160a01b0316336001600160a01b0316146116b357604051631431735b60e21b815260040160405180910390fd5b816000036116d457604051630754c7f360e41b815260040160405180910390fd5b6116f6604051806040016040528060018152602001606160f81b815250613aa7565b60006117028484613aea565b9050611726604051806040016040528060018152602001603160f91b815250613aa7565b611731848285613b8d565b611753604051806040016040528060018152602001606360f81b815250613aa7565b828461175e86612284565b6001600160a01b031660008051602061625983398151915284600781111561178857611788615ae8565b60405160ff909116815260200160405180910390a450505050565b60006117ae836124a6565b82106118105760405162461bcd60e51b815260206004820152602b60248201527f455243373231456e756d657261626c653a206f776e657220696e646578206f7560448201526a74206f6620626f756e647360a81b60648201526084016115fb565b506001600160a01b03919091166000908152600660209081526040808320938352929052205490565b8061184381612284565b6001600160a01b0316336001600160a01b03161461187457604051631431735b60e21b815260040160405180910390fd5b600082815260186020526040812081815560018101829055600281018290556003810182905560048101829055600581018290556006810191909155826118ba81612284565b6001600160a01b03167f46078a2cd4c69c3b4a27bdc69fdfe03d442ebcf405f1a68e9b5df6bc3e24429760405160405180910390a3505050565b606080611903610b2084612ebc565b50949350505050565b600c5460609081906001600160a01b031663bb12d21d61192b85612ebc565b6040518263ffffffff1660e01b815260040161194791906157e6565b600060405180830381865afa158015611964573d6000803e3d6000fd5b505050506040513d6000823e601f3d908101601f1916820160405261198c9190810190615afe565b50915061199a9050836118f4565b816040516020016119ac929190615b85565b604051602081830303815290604052915050919050565b6119cb613730565b601155565b836119da81612284565b6001600160a01b0316336001600160a01b031614611a0b57604051631431735b60e21b815260040160405180910390fd5b83518490600614611a2f57604051631cf7e9c560e01b815260040160405180910390fd5b60048460ff161115611a54576040516329ba348d60e11b815260040160405180910390fd5b60005b6006811015611ba157603060f81b828281518110611a7757611a77615a03565b01602001516001600160f81b03191610801590611ab85750603960f81b828281518110611aa657611aa6615a03565b01602001516001600160f81b03191611155b158015611b1a5750604160f81b828281518110611ad757611ad7615a03565b01602001516001600160f81b03191610801590611b185750604660f81b828281518110611b0657611b06615a03565b01602001516001600160f81b03191611155b155b8015611b7b5750606160f81b828281518110611b3857611b38615a03565b01602001516001600160f81b03191610801590611b795750606660f81b828281518110611b6757611b67615a03565b01602001516001600160f81b03191611155b155b15611b9957604051631cf7e9c560e01b815260040160405180910390fd5b600101611a57565b506000868152601860205260409020600a01611bbd8682615bfc565b50505060009384526018602052604090932060098101805460ff90931660ff19938416179055600b018054931515939091169290921790915550565b611c01613730565b601380546001600160a01b0319166001600160a01b0392909216919091179055565b611c2b613730565b6013546040516000916001600160a01b03169047908381818185875af1925050503d8060008114611c78576040519150601f19603f3d011682016040523d82523d6000602084013e611c7d565b606091505b5050905080611c9f57604051631d42c86760e21b815260040160405180910390fd5b50565b61160f83838360405180602001604052806000815250612c2e565b611cc5613730565b6002611cd060085490565b1115611cef5760405163155b299760e31b815260040160405180910390fd5b611cfc3360026007613d85565b565b60606000611d0b836124a6565b90506000816001600160401b03811115611d2757611d2761507f565b604051908082528060200260200182016040528015611d50578160200160208202803683370190505b50905060005b82811015611d8d57611d6885826117a3565b828281518110611d7a57611d7a615a03565b6020908102919091010152600101611d56565b509392505050565b87611d9f81612284565b6001600160a01b0316336001600160a01b031614611dd057604051631431735b60e21b815260040160405180910390fd5b60008981526018602090815260408083206019909252909120546001600160a01b03168915611e4c57611e03818b614007565b611e0e8a60016140a9565b898255898b611e1c81612284565b6001600160a01b0316600080516020616259833981519152600160405160ff909116815260200160405180910390a45b8815611ea957611e5c818a614007565b611e678960026140a9565b60018201899055888b611e7981612284565b6001600160a01b0316600080516020616259833981519152600260405160ff909116815260200160405180910390a45b8715611f0657611eb98189614007565b611ec48860036140a9565b60028201889055878b611ed681612284565b6001600160a01b0316600080516020616259833981519152600360405160ff909116815260200160405180910390a45b8615611f6357611f168188614007565b611f218760046140a9565b60038201879055868b611f3381612284565b6001600160a01b0316600080516020616259833981519152600460405160ff909116815260200160405180910390a45b8515611fc057611f738187614007565b611f7e8660056140a9565b60048201869055858b611f9081612284565b6001600160a01b0316600080516020616259833981519152600560405160ff909116815260200160405180910390a45b841561201d57611fd08186614007565b611fdb8560066140a9565b60058201859055848b611fed81612284565b6001600160a01b0316600080516020616259833981519152600660405160ff909116815260200160405180910390a45b831561207a5761202d8185614007565b6120388460076140a9565b60068201849055838b61204a81612284565b6001600160a01b0316600080516020616259833981519152600760405160ff909116815260200160405180910390a45b8a6120848c612284565b6001600160a01b03167f56680590212b09eb4b72a2eba8801b037ec046dfc754538e924f5bb6a8c4db6c60405160405180910390a35050505050505050505050565b60006120d160085490565b82106121345760405162461bcd60e51b815260206004820152602c60248201527f455243373231456e756d657261626c653a20676c6f62616c20696e646578206f60448201526b7574206f6620626f756e647360a01b60648201526084016115fb565b6008828154811061214757612147615a03565b90600052602060002001549050919050565b6000612163613065565b4211905090565b63389a75e1600c523360005260006020600c2055337ffa7b8eab7da67f412cc9575ed43464468f9bfbae89d1675917346ca6d8fe3c92600080a2565b60006121b184612284565b90506001600160a01b03811633146121db576040516282b42960e81b815260040160405180910390fd5b81156121eb576121eb84846137cf565b6121f68184846141b3565b50505050565b601b602052816000526040600020818154811061221857600080fd5b6000918252602090912001546001600160a01b03169150829050565b61223c613730565b612244612159565b156122625760405163774ae17d60e01b815260040160405180910390fd5b600c80546001600160a01b0319166001600160a01b0392909216919091179055565b6000818152600260205260408120546001600160a01b0316806110915760405162461bcd60e51b8152602060048201526018602482015277115490cdcc8c4e881a5b9d985b1a59081d1bdad95b88125160421b60448201526064016115fb565b600c546040516331a9108f60e11b8152600481018390526000918291829182916001600160a01b0390911690636352211e90602401602060405180830381865afa158015612336573d6000803e3d6000fd5b505050506040513d601f19601f8201168201806040525081019061235a9190615cc6565b6001600160a01b0381166000908152601a6020526040902054909450925061238183612284565b915061238d83866125de565b90509193509193565b6000818152601b60209081526040918290208054835181840281018401909452808452606093928301828280156123f657602002820191906000526020600020905b81546001600160a01b031681526001909101906020018083116123d8575b50505050509050919050565b61240a613730565b60048160ff16108061241f575060078160ff16115b1561243d57604051632258debf60e01b815260040160405180910390fd5b601554158061244d575060155442105b1561246b57604051630314872760e11b815260040160405180910390fd5b60155461247b9062016da0615cf9565b42111561249b5760405163124212e560e21b815260040160405180910390fd5b61160f838383613d85565b60006001600160a01b0382166125105760405162461bcd60e51b815260206004820152602960248201527f4552433732313a2061646472657373207a65726f206973206e6f7420612076616044820152683634b21037bbb732b960b91b60648201526084016115fb565b506001600160a01b031660009081526003602052604090205490565b612534613730565b611cfc6000614279565b612546613730565b61254e612159565b1561256c5760405163774ae17d60e01b815260040160405180910390fd5b600d80546001600160a01b0319166001600160a01b0392909216919091179055565b612596613730565b61259e612159565b156125bc5760405163774ae17d60e01b815260040160405180910390fd5b600f80546001600160a01b0319166001600160a01b0392909216919091179055565b6000806125ea84612ebc565b80519091508314806125ff5750828160200151145b8061260d5750828160400151145b8061261b5750828160600151145b806126295750828160800151145b806126375750828160a00151145b806126455750828160c00151145b949350505050565b612655613730565b601c55565b600f546000828152600b602052604080822090516371bed9e160e11b81526060936001600160a01b03169163e37db3c29161269b9160020190600401615d89565b600060405180830381865afa1580156126b8573d6000803e3d6000fd5b505050506040513d6000823e601f3d908101601f191682016040526126e091908101906159cf565b600f546040516335b07b7960e11b81529192506001600160a01b031690636b60f6f290612711908490600401614fb5565b600060405180830381865afa15801561272e573d6000803e3d6000fd5b505050506040513d6000823e601f3d908101601f1916820160405261275691908101906159cf565b9392505050565b612765613730565b601455565b606080606061278084610120015160ff1661265a565b6101208501805160ff9081166000908152600b6020526040808220600f5494519093168252908190209051630d88d4ff60e01b81526003909201926001600160a01b031691630d88d4ff916127dd91600190910190600401615d9c565b600060405180830381865afa1580156127fa573d6000803e3d6000fd5b505050506040513d6000823e601f3d908101601f1916820160405261282291908101906159cf565b81805461282e90615950565b80601f016020809104026020016040519081016040528092919081815260200182805461285a90615950565b80156128a75780601f1061287c576101008083540402835291602001916128a7565b820191906000526020600020905b81548152906001019060200180831161288a57829003601f168201915b505050505091509250925092509193909250565b6060600180546110d590615950565b60005b600a811015611c9f5760606128e3600482612c60565b506001016128cd565b6128f4613730565b601d55565b600081815260196020526040812054606091906001600160a01b0316600c5460405162438b6360e81b81526001600160a01b03808416600483015292935091169063438b630090602401600060405180830381865afa158015612960573d6000803e3d6000fd5b505050506040513d6000823e601f3d908101601f191682016040526127569190810190615dcf565b606061299382612ebc565b61016001516129aa576129a58261347a565b611091565b611091826130c8565b8015612a215760006129c433611cfe565b905080516000036129e7576040516282b42960e81b815260040160405180910390fd5b60005b8151811015612a1e57612a16828281518110612a0857612a08615a03565b6020026020010151856137cf565b6001016129ea565b50505b6111cc3383836141b3565b606080612a4083610120015160ff1661265a565b600f5461012085015160ff166000908152600b6020526040908190209051630d88d4ff60e01b81526001600160a01b0390921691630d88d4ff91612a8c91600190910190600401615d9c565b600060405180830381865afa158015612aa9573d6000803e3d6000fd5b505050506040513d6000823e601f3d908101601f19168201604052612ad191908101906159cf565b91509150915091565b612ae2613730565b601e55565b601860205260009081526040902080546001820154600283015460038401546004850154600586015460068701546007880154600889015460098a0154600a8b0180549a9b999a9899979896979596949563ffffffff90941694929360ff90921692612b5290615950565b80601f0160208091040260200160405190810160405280929190818152602001828054612b7e90615950565b8015612bcb5780601f10612ba057610100808354040283529160200191612bcb565b820191906000526020600020905b815481529060010190602001808311612bae57829003601f168201915b505050600b909301549192505060ff168c565b612be6613730565b612bee612159565b15612c0c5760405163774ae17d60e01b815260040160405180910390fd5b600e80546001600160a01b0319166001600160a01b0392909216919091179055565b612c38338361387c565b612c545760405162461bcd60e51b81526004016115fb90615a9a565b6121f6848484846142b7565b600e546001600160a01b0316612c895760405163d93186fd60e01b815260040160405180910390fd5b811580612c965750600a82115b15612cb45760405163199f5a0360e31b815260040160405180910390fd5b6015541580612cc4575060155442105b15612ce257604051630314872760e11b815260040160405180910390fd5b601554612cf29062015180615cf9565b421115612d125760405163124212e560e21b815260040160405180910390fd5b81601454612d209190615e54565b3414612d3f5760405163356680b760e01b815260040160405180910390fd5b6040516bffffffffffffffffffffffff193360601b166020820152600490600090603401604051602081830303815290604052805190602001209050612d8883601c54836142ea565b15612d965760059150612dc8565b612da383601d54836142ea565b15612db15760069150612dc8565b612dbe83601e54836142ea565b15612dc857600791505b6121f6338584613d85565b6000818152600260205260409020546060906001600160a01b0316612e0b57604051636461f73160e01b815260040160405180910390fd5b61109182612988565b81612e1e81612284565b6001600160a01b0316336001600160a01b031614612e4f57604051631431735b60e21b815260040160405180910390fd5b612e5b83836000613b8d565b82612e6584612284565b6001600160a01b03167f3d8ac56c725fc7985e9444622a45baee28ba67d8a964045f747b465121f40e71846007811115612ea157612ea1615ae8565b60405160ff90911681526020015b60405180910390a3505050565b612f2b60405180610180016040528060008152602001600081526020016000815260200160008152602001600081526020016000815260200160008152602001600063ffffffff16815260200160008152602001600060ff168152602001606081526020016000151581525090565b600082815260186020908152604091829020825161018081018452815481526001820154928101929092526002810154928201929092526003820154606082015260048201546080820152600582015460a0820152600682015460c0820152600782015463ffffffff1660e08201526008820154610100820152600982015460ff16610120820152600a8201805491929161014084019190612fcc90615950565b80601f0160208091040260200160405190810160405280929190818152602001828054612ff890615950565b80156130455780601f1061301a57610100808354040283529160200191613045565b820191906000526020600020905b81548152906001019060200180831161302857829003601f168201915b5050509183525050600b919091015460ff16151560209091015292915050565b60006130957f00000000000000000000000000000000000000000000000000000000000000006301e13380615cf9565b905090565b6130a2613730565b601554156130c35760405163703e78e960e11b815260040160405180910390fd5b601555565b60608060608060608060606130db614e09565b60006130e68a612ebc565b90506130f18161276a565b50600c5460405163bb12d21d60e01b8152929a509097506001600160a01b03169063bb12d21d906131269084906004016157e6565b600060405180830381865afa158015613143573d6000803e3d6000fd5b505050506040513d6000823e601f3d908101601f1916820160405261316b9190810190615afe565b60405192995090965093506131869087908790602001615b85565b60408051601f19818403018152919052610140820151835293506131a98a6128f9565b5160408084019190915261012082015160ff166000908152600b6020522060010180546131d590615950565b80601f016020809104026020016040519081016040528092919081815260200182805461320190615950565b801561324e5780601f106132235761010080835404028352916020019161324e565b820191906000526020600020905b81548152906001019060200180831161323157829003601f168201915b5050505050602083015260408051808201909152601660026000835b8282101561330d57838201805461328090615950565b80601f01602080910402602001604051908101604052809291908181526020018280546132ac90615950565b80156132f95780601f106132ce576101008083540402835291602001916132f9565b820191906000526020600020905b8154815290600101906020018083116132dc57829003601f168201915b50505050508152602001906001019061326a565b5050505060608301526010546040516323e2ba9960e11b81526001600160a01b03909116906347c5753290613350908d908c908c9089908b908a90600401615ef6565b600060405180830381865afa15801561336d573d6000803e3d6000fd5b505050506040513d6000823e601f3d908101601f1916820160405261339591908101906159cf565b9a9950505050505050505050565b6133ab613730565b63389a75e1600c52806000526020600c2080544211156133d357636f5e88186000526004601cfd5b60009055611c9f81614279565b6133e8613730565b6133f0612159565b1561340e5760405163774ae17d60e01b815260040160405180910390fd5b6000848152600b602052604090208481556001810161342d8582615bfc565b506002810161343c8482615bfc565b506003810161344b8382615bfc565b505050505050565b61345b613730565b8060601b61347157637448fbae6000526004601cfd5b611c9f81614279565b606080606080606061348a614e09565b600061349588612ebc565b90506134a081612a2c565b50600c54604051631be5857160e31b81529197506001600160a01b03169063df2c2b88906134d29084906004016157e6565b600060405180830381865afa1580156134ef573d6000803e3d6000fd5b505050506040513d6000823e601f3d908101601f191682016040526135179190810190615f6a565b909550935061352588611391565b61014082015183529250613538886128f9565b5160408084019190915261012082015160ff166000908152600b60205220600101805461356490615950565b80601f016020809104026020016040519081016040528092919081815260200182805461359090615950565b80156135dd5780601f106135b2576101008083540402835291602001916135dd565b820191906000526020600020905b8154815290600101906020018083116135c057829003601f168201915b5050505050602083015260408051808201909152601660026000835b8282101561369c57838201805461360f90615950565b80601f016020809104026020016040519081016040528092919081815260200182805461363b90615950565b80156136885780601f1061365d57610100808354040283529160200191613688565b820191906000526020600020905b81548152906001019060200180831161366b57829003601f168201915b5050505050815260200190600101906135f9565b505050506060830152600f54604051631589d6a760e21b81526001600160a01b03909116906356275a9c906136df908b908a908a908a908a908a90600401615ef6565b600060405180830381865afa1580156136fc573d6000803e3d6000fd5b505050506040513d6000823e601f3d908101601f1916820160405261372491908101906159cf565b98975050505050505050565b638b78c6d819543314611cfc576382b429006000526004601cfd5b60006001600160e01b0319821663780e9d6360e01b1480611091575061109182614300565b6000818152600260205260409020546001600160a01b0316611c9f5760405162461bcd60e51b8152602060048201526018602482015277115490cdcc8c4e881a5b9d985b1a59081d1bdad95b88125160421b60448201526064016115fb565b6000918252601b6020908152604083208054600181018255908452922090910180546001600160a01b0319166001600160a01b03909216919091179055565b600081815260046020526040902080546001600160a01b0319166001600160a01b038416908117909155819061384382612284565b6001600160a01b03167f8c5be1e5ebec7d5bd14f71427d1e84f3dd0314c0f7b2291e5b200ac8c7c3b92560405160405180910390a45050565b60008061388883612284565b9050806001600160a01b0316846001600160a01b031614806138cf57506001600160a01b0380821660009081526005602090815260408083209388168352929052205460ff165b806126455750836001600160a01b03166138e884611158565b6001600160a01b031614949350505050565b826001600160a01b031661390d82612284565b6001600160a01b0316146139715760405162461bcd60e51b815260206004820152602560248201527f4552433732313a207472616e736665722066726f6d20696e636f72726563742060448201526437bbb732b960d91b60648201526084016115fb565b6001600160a01b0382166139d35760405162461bcd60e51b8152602060048201526024808201527f4552433732313a207472616e7366657220746f20746865207a65726f206164646044820152637265737360e01b60648201526084016115fb565b6139de838383614350565b6139e960008261380e565b6001600160a01b0383166000908152600360205260408120805460019290613a12908490615fcd565b90915550506001600160a01b0382166000908152600360205260408120805460019290613a40908490615cf9565b909155505060008181526002602052604080822080546001600160a01b0319166001600160a01b0386811691821790925591518493918716917fddf252ad1be2c89b69c2b068fc378daa952ba7f163c4a11628f55a4df523b3ef91a461160f838383614761565b611c9f81604051602401613abb9190614fb5565b60408051601f198184030181529190526020810180516001600160e01b031663104c13eb60e21b17905261476b565b600082815260196020526040812054613b0c906001600160a01b031683614007565b600c5460405163d1bfc2af60e01b8152600481018490526001600160a01b039091169063d1bfc2af90602401600060405180830381865afa158015613b55573d6000803e3d6000fd5b505050506040513d6000823e601f3d908101601f19168201604052613b7d9190810190615feb565b60400151905061109182826140a9565b613bbc6040518060400160405280600d81526020016c17d8da1bdb9ad51bdad95b9259609a1b8152508461478c565b613bfb6040518060400160405280600981526020016874726169745479706560b81b815250836007811115613bf357613bf3615ae8565b60ff1661478c565b613c2a6040518060400160405280600d81526020016c17dd1c985a5d151bdad95b9259609a1b8152508261478c565b6001826007811115613c3e57613c3e615ae8565b03613c59576000838152601860205260409020819055505050565b6002826007811115613c6d57613c6d615ae8565b03613c8b576000838152601860205260409020600101819055505050565b6003826007811115613c9f57613c9f615ae8565b03613cbd576000838152601860205260409020600201819055505050565b6004826007811115613cd157613cd1615ae8565b03613cef576000838152601860205260409020600301819055505050565b6005826007811115613d0357613d03615ae8565b03613d21576000838152601860205260409020600401819055505050565b6006826007811115613d3557613d35615ae8565b03613d53576000838152601860205260409020600501819055505050565b6007826007811115613d6757613d67615ae8565b0361160f576000838152601860205260409020600601819055505050565b60005b828110156121f6576012805460010190819055613da585826147d1565b604051638a54c52f60e01b81527355266d75d1a14e4572138116af39863ed6596e7f600482015260006024820181905262014a34604483015230606483015260848201839052906f6551c19487814612e58fe0681377575890638a54c52f9060a4016020604051808303816000875af1158015613e26573d6000803e3d6000fd5b505050506040513d601f19601f82011682018060405250810190613e4a9190615cc6565b600083815260196020908152604080832080546001600160a01b0319166001600160a01b038616908117909155808452601a90925291829020859055905163189acdbd60e31b81527341c8f39463a868d3a88af00cd0fe7102f30e44ec60048201529192509063c4d66de890602401600060405180830381600087803b158015613ed357600080fd5b505af1158015613ee7573d6000803e3d6000fd5b5050600e546040516358a2727360e01b81526001600160a01b03858116600483015260ff8916602483015290911692506358a2727391506044016000604051808303816000875af1158015613f40573d6000803e3d6000fd5b505050506040513d6000823e601f3d908101601f19168201604052613f689190810190615dcf565b5060008281526018602090815260409182902060088101859055825191820185905291600591016040516020818303038152906040528051906020012060001c81613fb557613fb561614f565b60098301805460ff19169290910660ff169190911790556040805180820190915260068152650c110d914e5160d21b6020820152600a820190613ff89082615bfc565b50505050806001019050613d88565b600c546040516331a9108f60e11b8152600481018390526000916001600160a01b031690636352211e90602401602060405180830381865afa158015614051573d6000803e3d6000fd5b505050506040513d601f19601f820116820180604052508101906140759190615cc6565b9050826001600160a01b0316816001600160a01b03161461160f5760405163e6ca793160e01b815260040160405180910390fd5b600c5460405163d1bfc2af60e01b8152600481018490526000916001600160a01b03169063d1bfc2af90602401600060405180830381865afa1580156140f3573d6000803e3d6000fd5b505050506040513d6000823e601f3d908101601f1916820160405261411b9190810190615feb565b60400151905081600781111561413357614133615ae8565b60405160200161414591815260200190565b6040516020818303038152906040528051906020012081600781111561416d5761416d615ae8565b60405160200161417f91815260200190565b604051602081830303815290604052805190602001201461160f57604051633e54c6fb60e11b815260040160405180910390fd5b816001600160a01b0316836001600160a01b0316036142145760405162461bcd60e51b815260206004820152601960248201527f4552433732313a20617070726f766520746f2063616c6c65720000000000000060448201526064016115fb565b6001600160a01b03838116600081815260056020908152604080832094871680845294825291829020805460ff191686151590811790915591519182527f17307eab39ab6107e8899845ad3d59bd9653f200f220920489ca2b5937696c319101612eaf565b638b78c6d81980546001600160a01b039092169182907f8be0079c531659141344cd1fd0a4f28419497f9722a3daafe3b4186f6b6457e0600080a355565b6142c28484846138fa565b6142ce84848484614927565b6121f65760405162461bcd60e51b81526004016115fb90616165565b6000826142f78584614a28565b14949350505050565b60006001600160e01b031982166380ac58cd60e01b148061433157506001600160e01b03198216635b5e139f60e01b145b8061109157506301ffc9a760e01b6001600160e01b0319831614611091565b6001600160a01b0383166143695761160f838383614a63565b6015546143799062015180615cf9565b4210156143995760405163ae735dad60e01b815260040160405180910390fd5b6001600160a01b0382166000908152601a6020526040902054156143d057604051639a42da2960e01b815260040160405180910390fd5b6000818152601960205260408120546001600160a01b0316906143f284611cfe565b9050600081516001600160401b0381111561440f5761440f61507f565b604051908082528060200260200182016040528015614438578160200160208202803683370190505b50905060005b82518110156144b9576019600084838151811061445d5761445d615a03565b6020026020010151815260200190815260200160002060009054906101000a90046001600160a01b031682828151811061449957614499615a03565b6001600160a01b039092166020928302919091019091015260010161443e565b50600d5460405163644ec52760e01b8152600481018690526001600160a01b039091169063644ec52790602401600060405180830381600087803b15801561450057600080fd5b505af1158015614514573d6000803e3d6000fd5b5050600d54604051631e92beb560e31b8152600481018890526001600160a01b038981166024830152909116925063f495f5a89150604401600060405180830381600087803b15801561456657600080fd5b505af115801561457a573d6000803e3d6000fd5b5050600c5460405162438b6360e81b81526001600160a01b03878116600483015260009450909116915063438b630090602401600060405180830381865afa1580156145ca573d6000803e3d6000fd5b505050506040513d6000823e601f3d908101601f191682016040526145f29190810190615dcf565b905060005b815181101561474c57600082828151811061461457614614615a03565b6020908102919091010151600d54604051632e1d274f60e01b8152600481018390529192506001600160a01b031690632e1d274f90602401600060405180830381600087803b15801561466657600080fd5b505af115801561467a573d6000803e3d6000fd5b5050600d54604051632333520b60e11b81526001600160a01b039091169250634666a41691506146b090849088906004016161b7565b600060405180830381600087803b1580156146ca57600080fd5b505af11580156146de573d6000803e3d6000fd5b5050600c5460405163487b1c2160e11b8152600481018590526001600160a01b0390911692506390f638429150602401600060405180830381600087803b15801561472857600080fd5b505af115801561473c573d6000803e3d6000fd5b50505050508060010190506145f7565b50614758878787614a63565b50505050505050565b61160f8184614b1b565b80516a636f6e736f6c652e6c6f67602083016000808483855afa5050505050565b6111cc82826040516024016147a29291906161d0565b60408051601f198184030181529190526020810180516001600160e01b03166309710a9d60e41b17905261476b565b6001600160a01b0382166148275760405162461bcd60e51b815260206004820181905260248201527f4552433732313a206d696e7420746f20746865207a65726f206164647265737360448201526064016115fb565b6000818152600260205260409020546001600160a01b03161561488c5760405162461bcd60e51b815260206004820152601c60248201527f4552433732313a20746f6b656e20616c7265616479206d696e7465640000000060448201526064016115fb565b61489860008383614350565b6001600160a01b03821660009081526003602052604081208054600192906148c1908490615cf9565b909155505060008181526002602052604080822080546001600160a01b0319166001600160a01b03861690811790915590518392907fddf252ad1be2c89b69c2b068fc378daa952ba7f163c4a11628f55a4df523b3ef908290a46111cc60008383614761565b60006001600160a01b0384163b15614a1d57604051630a85bd0160e11b81526001600160a01b0385169063150b7a029061496b9033908990889088906004016161f2565b6020604051808303816000875af19250505080156149a6575060408051601f3d908101601f191682019092526149a391810190616225565b60015b614a03573d8080156149d4576040519150601f19603f3d011682016040523d82523d6000602084013e6149d9565b606091505b5080516000036149fb5760405162461bcd60e51b81526004016115fb90616165565b805181602001fd5b6001600160e01b031916630a85bd0160e11b149050612645565b506001949350505050565b600081815b8451811015611d8d57614a5982868381518110614a4c57614a4c615a03565b6020026020010151614c04565b9150600101614a2d565b6001600160a01b038316614abe57614ab981600880546000838152600960205260408120829055600182018355919091527ff3f7a9fe364faab93b216da50a3214154f22a0a2b415b23a84c8169e8b636ee30155565b614ae1565b816001600160a01b0316836001600160a01b031614614ae157614ae18382614c30565b6001600160a01b038216614af85761160f81614ccd565b826001600160a01b0316826001600160a01b03161461160f5761160f8282614d7c565b6000828152601b6020908152604080832080548251818502810185019093528083529192909190830182828015614b7b57602002820191906000526020600020905b81546001600160a01b03168152600190910190602001808311614b5d575b5050506000868152601960205260408120549394506001600160a01b03909316929150505b8251811015614bec57614bce84848381518110614bbf57614bbf615a03565b602002602001015160006141b3565b614be482848381518110614bbf57614bbf615a03565b600101614ba0565b506000848152601b602052604081206121f691614e36565b6000818310614c20576000828152602084905260409020612756565b5060009182526020526040902090565b60006001614c3d846124a6565b614c479190615fcd565b600083815260076020526040902054909150808214614c9a576001600160a01b03841660009081526006602090815260408083208584528252808320548484528184208190558352600790915290208190555b5060009182526007602090815260408084208490556001600160a01b039094168352600681528383209183525290812055565b600854600090614cdf90600190615fcd565b60008381526009602052604081205460088054939450909284908110614d0757614d07615a03565b906000526020600020015490508060088381548110614d2857614d28615a03565b6000918252602080832090910192909255828152600990915260408082208490558582528120556008805480614d6057614d60616242565b6001900381819060005260206000200160009055905550505050565b6000614d87836124a6565b6001600160a01b039093166000908152600660209081526040808320868452825280832085905593825260079052919091209190915550565b8260028101928215614df9579160200282015b82811115614df95782518290614de99082615bfc565b5091602001919060010190614dd3565b50614e05929150614e54565b5090565b6040518060800160405280606081526020016060815260200160008152602001614e31614e71565b905290565b5080546000825590600052602060002090810190611c9f9190614e98565b80821115614e05576000614e688282614ead565b50600101614e54565b60405180604001604052806002905b6060815260200190600190039081614e805790505090565b5b80821115614e055760008155600101614e99565b508054614eb990615950565b6000825580601f10614ec9575050565b601f016020900490600052602060002090810190611c9f9190614e98565b6001600160a01b0381168114611c9f57600080fd5b600060208284031215614f0e57600080fd5b813561275681614ee7565b6001600160e01b031981168114611c9f57600080fd5b600060208284031215614f4157600080fd5b813561275681614f19565b600060208284031215614f5e57600080fd5b5035919050565b60005b83811015614f80578181015183820152602001614f68565b50506000910152565b60008151808452614fa1816020860160208601614f65565b601f01601f19169290920160200192915050565b6020815260006127566020830184614f89565b60008060408385031215614fdb57600080fd5b8235614fe681614ee7565b946020939093013593505050565b84815260806020820152600061500d6080830186614f89565b828103604084015261501f8186614f89565b905082810360608401526150338185614f89565b979650505050505050565b60008060006060848603121561505357600080fd5b833561505e81614ee7565b9250602084013561506e81614ee7565b929592945050506040919091013590565b634e487b7160e01b600052604160045260246000fd5b604080519081016001600160401b03811182821017156150b7576150b761507f565b60405290565b60405161018081016001600160401b03811182821017156150b7576150b761507f565b60405161014081016001600160401b03811182821017156150b7576150b761507f565b604051601f8201601f191681016001600160401b038111828210171561512b5761512b61507f565b604052919050565b60006001600160401b0382111561514c5761514c61507f565b50601f01601f191660200190565b600082601f83011261516b57600080fd5b813561517e61517982615133565b615103565b81815284602083860101111561519357600080fd5b816020850160208301376000918101602001919091529392505050565b600060208083850312156151c357600080fd5b82356001600160401b03808211156151da57600080fd5b818501915085601f8301126151ee57600080fd5b6151f6615095565b80604084018881111561520857600080fd5b845b8181101561523c578035858111156152225760008081fd5b61522e8b82890161515a565b85525092860192860161520a565b509098975050505050505050565b6000806040838503121561525d57600080fd5b50508035926020909101359150565b803560ff8116811461527d57600080fd5b919050565b8035801515811461527d57600080fd5b600080600080608085870312156152a857600080fd5b8435935060208501356001600160401b038111156152c557600080fd5b6152d18782880161515a565b9350506152e06040860161526c565b91506152ee60608601615282565b905092959194509250565b6020808252825182820181905260009190848201906040850190845b8181101561533157835183529284019291840191600101615315565b50909695505050505050565b600080600080600080600080610100898b03121561535a57600080fd5b505086359860208801359850604088013597606081013597506080810135965060a0810135955060c0810135945060e0013592509050565b6000806000606084860312156153a757600080fd5b8335925060208401356153b981614ee7565b91506153c760408501615282565b90509250925092565b60008151808452602080850194506020840160005b8381101561540a5781516001600160a01b0316875295820195908201906001016153e5565b509495945050505050565b60208152600061275660208301846153d0565b60008060006060848603121561543d57600080fd5b833561544881614ee7565b9250602084013591506153c76040850161526c565b803563ffffffff8116811461527d57600080fd5b60006020828403121561548357600080fd5b81356001600160401b038082111561549a57600080fd5b9083019061018082860312156154af57600080fd5b6154b76150bd565b823581526020830135602082015260408301356040820152606083013560608201526080830135608082015260a083013560a082015260c083013560c082015261550360e0840161545d565b60e0820152610100838101359082015261012061552181850161526c565b90820152610140838101358381111561553957600080fd5b6155458882870161515a565b828401525050610160915061555b828401615282565b91810191909152949350505050565b60608152600061557d6060830186614f89565b828103602084015261558f8186614f89565b905082810360408401526115cb8185614f89565b600080604083850312156155b657600080fd5b82356155c181614ee7565b91506155cf60208401615282565b90509250929050565b6040815260006155eb6040830185614f89565b82810360208401526155fd8185614f89565b95945050505050565b60006101808e83528d60208401528c60408401528b60608401528a60808401528960a08401528860c084015263ffffffff881660e08401528661010084015260ff86166101208401528061014084015261566281840186614f89565b9150508215156101608301529d9c50505050505050505050505050565b6000806000806080858703121561569557600080fd5b84356156a081614ee7565b935060208501356156b081614ee7565b92506040850135915060608501356001600160401b038111156156d257600080fd5b6156de8782880161515a565b91505092959194509250565b60006001600160401b038211156157035761570361507f565b5060051b60200190565b6000806040838503121561572057600080fd5b823591506020808401356001600160401b0381111561573e57600080fd5b8401601f8101861361574f57600080fd5b803561575d615179826156ea565b81815260059190911b8201830190838101908883111561577c57600080fd5b928401925b8284101561579a57833582529284019290840190615781565b80955050505050509250929050565b60088110611c9f57600080fd5b600080604083850312156157c957600080fd5b8235915060208301356157db816157a9565b809150509250929050565b6020815281516020820152602082015160408201526040820151606082015260608201516080820152608082015160a082015260a082015160c082015260c082015160e0820152600060e08301516101006158488185018363ffffffff169052565b84015161012084810191909152840151905061014061586b8185018360ff169052565b80850151915050610180610160818186015261588b6101a0860184614f89565b95015115159301929092525090919050565b600080604083850312156158b057600080fd5b82356158bb81614ee7565b915060208301356157db81614ee7565b600080600080608085870312156158e157600080fd5b8435935060208501356001600160401b03808211156158ff57600080fd5b61590b8883890161515a565b9450604087013591508082111561592157600080fd5b61592d8883890161515a565b9350606087013591508082111561594357600080fd5b506156de8782880161515a565b600181811c9082168061596457607f821691505b60208210810361598457634e487b7160e01b600052602260045260246000fd5b50919050565b600082601f83011261599b57600080fd5b81516159a961517982615133565b8181528460208386010111156159be57600080fd5b612645826020830160208701614f65565b6000602082840312156159e157600080fd5b81516001600160401b038111156159f757600080fd5b6126458482850161598a565b634e487b7160e01b600052603260045260246000fd5b608081526000615a2c6080830187614f89565b6020838203818501528187518084528284019150828160051b850101838a0160005b83811015615a7c57601f19878403018552615a6a838351614f89565b94860194925090850190600101615a4e565b50506040870198909852505050506060909101919091525092915050565b6020808252602e908201527f4552433732313a2063616c6c6572206973206e6f7420746f6b656e206f776e6560408201526d1c881b9bdc88185c1c1c9bdd995960921b606082015260800190565b634e487b7160e01b600052602160045260246000fd5b600080600060608486031215615b1357600080fd5b83516001600160401b0380821115615b2a57600080fd5b615b368783880161598a565b94506020860151915080821115615b4c57600080fd5b615b588783880161598a565b93506040860151915080821115615b6e57600080fd5b50615b7b8682870161598a565b9150509250925092565b60008351615b97818460208801614f65565b835190830190615bab818360208801614f65565b01949350505050565b601f82111561160f576000816000526020600020601f850160051c81016020861015615bdd5750805b601f850160051c820191505b8181101561344b57828155600101615be9565b81516001600160401b03811115615c1557615c1561507f565b615c2981615c238454615950565b84615bb4565b602080601f831160018114615c5e5760008415615c465750858301515b600019600386901b1c1916600185901b17855561344b565b600085815260208120601f198616915b82811015615c8d57888601518255948401946001909101908401615c6e565b5085821015615cab5787850151600019600388901b60f8161c191681555b5050505050600190811b01905550565b805161527d81614ee7565b600060208284031215615cd857600080fd5b815161275681614ee7565b634e487b7160e01b600052601160045260246000fd5b8082018082111561109157611091615ce3565b60008154615d1981615950565b808552602060018381168015615d365760018114615d5057615d7e565b60ff1985168884015283151560051b880183019550615d7e565b866000528260002060005b85811015615d765781548a8201860152908301908401615d5b565b890184019650505b505050505092915050565b6020815260006127566020830184615d0c565b604081526009604082015268426f6479205479706560b81b60608201526080602082015260006127566080830184615d0c565b60006020808385031215615de257600080fd5b82516001600160401b03811115615df857600080fd5b8301601f81018513615e0957600080fd5b8051615e17615179826156ea565b81815260059190911b82018301908381019087831115615e3657600080fd5b928401925b8284101561503357835182529284019290840190615e3b565b808202811582820484141761109157611091615ce3565b6000815160808452615e806080850182614f89565b90506020808401518583036020870152615e9a8382614f89565b9250506040840151604086015260608401518583036060870152828390506040840160005b6002811015615eea578582038352615ed8828551614f89565b93850193928501929150600101615ebf565b50979650505050505050565b86815260c060208201526000615f0f60c0830188614f89565b8281036040840152615f218188614f89565b90508281036060840152615f358187614f89565b90508281036080840152615f498186614f89565b905082810360a0840152615f5d8185615e6b565b9998505050505050505050565b60008060408385031215615f7d57600080fd5b82516001600160401b0380821115615f9457600080fd5b615fa08683870161598a565b93506020850151915080821115615fb657600080fd5b50615fc38582860161598a565b9150509250929050565b8181038181111561109157611091615ce3565b805161527d816157a9565b600060208284031215615ffd57600080fd5b81516001600160401b038082111561601457600080fd5b90830190610140828603121561602957600080fd5b6160316150e0565b8251815260208301518281111561604757600080fd5b6160538782860161598a565b60208301525061606560408401615fe0565b604082015260608301518281111561607c57600080fd5b6160888782860161598a565b6060830152506080830151828111156160a057600080fd5b6160ac8782860161598a565b60808301525060a0830151828111156160c457600080fd5b6160d08782860161598a565b60a0830152506160e260c08401615cbb565b60c08201526160f360e08401615cbb565b60e0820152610100808401518381111561610c57600080fd5b6161188882870161598a565b828401525050610120808401518381111561613257600080fd5b61613e8882870161598a565b918301919091525095945050505050565b634e487b7160e01b600052601260045260246000fd5b60208082526032908201527f4552433732313a207472616e7366657220746f206e6f6e20455243373231526560408201527131b2b4bb32b91034b6b83632b6b2b73a32b960711b606082015260800190565b82815260406020820152600061264560408301846153d0565b6040815260006161e36040830185614f89565b90508260208301529392505050565b6001600160a01b03858116825284166020820152604081018390526080606082018190526000906115cb90830184614f89565b60006020828403121561623757600080fd5b815161275681614f19565b634e487b7160e01b600052603160045260246000fdfec94c1c47471ed97c1d309bab965192a3e4be3807f42d015b699bfbdcf24dd9f6a2646970667358221220bee42769d80d0e6cf2f88bf9bdc2da5eff934333e3ff5f8833b4da36de354a5564736f6c63430008160033","linkReferences":{}},"methodIdentifiers":{"_debugPostConstructorMint()":"9c7be2f1","_nextTokenId()":"4a60f620","addNewBody(uint256,string,bytes,bytes)":"f2361e23","approve(address,uint256)":"095ea7b3","balanceOf(address)":"70a08231","bodyIndexToMetadata(uint256)":"0c83f9d7","cancelOwnershipHandover()":"54d1f13d","checkIfTraitIsEquipped(uint256,uint256)":"8aa1e4c8","chonkIdToApprovedOperators(uint256,uint256)":"55737f35","chonkTokens(uint256)":"b45d0316","collectionsMerkle()":"80d833f1","completeOwnershipHandover(address)":"f04e283e","creatorsMerkle()":"a1531780","deploymentTime()":"ecda10f5","equip(uint256,uint256)":"28257532","equipAll(uint256,uint256,uint256,uint256,uint256,uint256,uint256,uint256)":"4a4333a3","firstReleaseDataMinter()":"fd8b66de","friendsMerkle()":"fc863e64","getApproved(uint256)":"081812fc","getBackpackSVGs(uint256)":"14fe8ff4","getBodyImageSvg(uint256)":"916c546b","getBodySVGZmapsAndMetadata((uint256,uint256,uint256,uint256,uint256,uint256,uint256,uint32,uint256,uint8,string,bool))":"92012f08","getBodySvgAndMetadata((uint256,uint256,uint256,uint256,uint256,uint256,uint256,uint32,uint256,uint8,string,bool))":"a23830ae","getBodyZMap(uint256)":"306c7334","getChonk(uint256)":"d3d6873e","getChonkIdForTBAAddress(address)":"8472cbca","getChonkIdToApprovedOperators(uint256)":"67d2afe2","getChonkZMap(uint256)":"32875aa0","getFullPictureForTrait(uint256)":"66704349","getOwnerAndTBAAddressForChonkId(uint256)":"04003bd0","getTBAAddressForChonkId(uint256)":"f6a0c932","getTraitsForChonkId(uint256)":"9f6e4637","initialMintStartTime()":"b91fdc8c","isApprovedForAll(address,address)":"e985e9c5","isTimelocked()":"50b03146","mainRenderer2D()":"f4bec0b6","mainRenderer3D()":"b66ef6e3","marketplace()":"abc8c7af","maxTraitsToOutput()":"e3d21555","mint(uint256,bytes32[])":"ba41b0c6","name()":"06fdde03","oneYearFromDeployment()":"d59752eb","owner()":"8da5cb5b","ownerOf(uint256)":"6352211e","ownershipHandoverExpiresAt(address)":"fee81cf4","price()":"a035b1fe","renderAsDataUri(uint256)":"a1d62680","renderAsDataUri2D(uint256)":"f3f8efb9","renderAsDataUri3D(uint256)":"dceef0ec","renounceOwnership()":"715018a6","requestOwnershipHandover()":"25692962","safeTransferFrom(address,address,uint256)":"42842e0e","safeTransferFrom(address,address,uint256,bytes)":"b88d4fde","setApprovalForAll(address,bool)":"a22cb465","setApprovalForAllChonksMarketplace(uint256,address,bool)":"550ab247","setChonkAttributes(uint256,string,uint8,bool)":"343b4887","setCollectionsMerkle(bytes32)":"8d2a2f11","setCreatorsMerkle(bytes32)":"b194b6f1","setDescriptionParts(string[2])":"26f2052a","setFirstReleaseDataMinter(address)":"b84b160d","setFriendsMerkleRoot(bytes32)":"9eb2660c","setMainRenderer2D(address)":"7e2e6c47","setMainRenderer3D(address)":"00179206","setMarketplace(address)":"73ad6c2d","setMaxTraitsToOutput(uint256)":"33d3d9bf","setMintStartTime(uint256)":"d5b3621b","setPrice(uint256)":"91b7f5ed","setTraitsContract(address)":"5eabd84a","setWithdrawAddress(address)":"3ab1a494","supportsInterface(bytes4)":"01ffc9a7","symbol()":"95d89b41","tbaAddressToTokenId(address)":"a4bf9a00","teamMint(address,uint256,uint8)":"6e51665f","teamReserve()":"4287f14a","tokenByIndex(uint256)":"4f6ccce7","tokenIdToTBAAccountAddress(uint256)":"9c05d68d","tokenOfOwnerByIndex(address,uint256)":"2f745c59","tokenURI(uint256)":"c87b56dd","totalSupply()":"18160ddd","traitsContract()":"c093afdb","transferFrom(address,address,uint256)":"23b872dd","transferOwnership(address)":"f2fde38b","unequip(uint256,uint8)":"cdb6dd5c","unequipAll(uint256)":"3044825b","walletOfOwner(address)":"438b6300","withdraw()":"3ccfd60b","withdrawAddress()":"1581b600"},"id":40}