{"abi":[{"type":"constructor","inputs":[],"stateMutability":"nonpayable"},{"type":"function","name":"_debugPostConstructorMint","inputs":[],"outputs":[],"stateMutability":"nonpayable"},{"type":"function","name":"addNewBody","inputs":[{"name":"_bodyIndex","type":"uint256","internalType":"uint256"},{"name":"_bodyName","type":"string","internalType":"string"},{"name":"_colorMap","type":"bytes","internalType":"bytes"},{"name":"_zMap","type":"bytes","internalType":"bytes"}],"outputs":[],"stateMutability":"nonpayable"},{"type":"function","name":"approve","inputs":[{"name":"_operator","type":"address","internalType":"address"},{"name":"_chonkId","type":"uint256","internalType":"uint256"}],"outputs":[],"stateMutability":"nonpayable"},{"type":"function","name":"balanceOf","inputs":[{"name":"owner","type":"address","internalType":"address"}],"outputs":[{"name":"","type":"uint256","internalType":"uint256"}],"stateMutability":"view"},{"type":"function","name":"bodyIndexToMetadata","inputs":[{"name":"","type":"uint256","internalType":"uint256"}],"outputs":[{"name":"bodyIndex","type":"uint256","internalType":"uint256"},{"name":"bodyName","type":"string","internalType":"string"},{"name":"colorMap","type":"bytes","internalType":"bytes"},{"name":"zMap","type":"bytes","internalType":"bytes"}],"stateMutability":"view"},{"type":"function","name":"cancelOwnershipHandover","inputs":[],"outputs":[],"stateMutability":"payable"},{"type":"function","name":"checkIfTraitIsEquipped","inputs":[{"name":"_chonkId","type":"uint256","internalType":"uint256"},{"name":"_traitId","type":"uint256","internalType":"uint256"}],"outputs":[{"name":"","type":"bool","internalType":"bool"}],"stateMutability":"view"},{"type":"function","name":"chonkEquipHelper","inputs":[],"outputs":[{"name":"","type":"address","internalType":"contract ChonkEquipHelper"}],"stateMutability":"view"},{"type":"function","name":"chonkIdToApprovedOperators","inputs":[{"name":"chonkId","type":"uint256","internalType":"uint256"},{"name":"","type":"uint256","internalType":"uint256"}],"outputs":[{"name":"operators","type":"address","internalType":"address"}],"stateMutability":"view"},{"type":"function","name":"chonkMakeover","inputs":[{"name":"_chonkTokenId","type":"uint256","internalType":"uint256"},{"name":"_traitTokenIds","type":"uint256[]","internalType":"uint256[]"},{"name":"_traitCategories","type":"uint8[]","internalType":"uint8[]"},{"name":"_bodyIndex","type":"uint8","internalType":"uint8"},{"name":"_backgroundColor","type":"string","internalType":"string"},{"name":"_render3D","type":"bool","internalType":"bool"}],"outputs":[],"stateMutability":"nonpayable"},{"type":"function","name":"chonkTokens","inputs":[{"name":"tokenID","type":"uint256","internalType":"uint256"}],"outputs":[{"name":"tokenId","type":"uint256","internalType":"uint256"},{"name":"headId","type":"uint256","internalType":"uint256"},{"name":"hairId","type":"uint256","internalType":"uint256"},{"name":"faceId","type":"uint256","internalType":"uint256"},{"name":"accessoryId","type":"uint256","internalType":"uint256"},{"name":"topId","type":"uint256","internalType":"uint256"},{"name":"bottomId","type":"uint256","internalType":"uint256"},{"name":"shoesId","type":"uint256","internalType":"uint256"},{"name":"bodyIndex","type":"uint8","internalType":"uint8"},{"name":"backgroundColor","type":"string","internalType":"string"},{"name":"render3D","type":"bool","internalType":"bool"}],"stateMutability":"view"},{"type":"function","name":"collectionsAddressDidUse","inputs":[{"name":"","type":"address","internalType":"address"}],"outputs":[{"name":"","type":"bool","internalType":"bool"}],"stateMutability":"view"},{"type":"function","name":"collectionsMerkle","inputs":[],"outputs":[{"name":"","type":"bytes32","internalType":"bytes32"}],"stateMutability":"view"},{"type":"function","name":"completeOwnershipHandover","inputs":[{"name":"pendingOwner","type":"address","internalType":"address"}],"outputs":[],"stateMutability":"payable"},{"type":"function","name":"creatorsAddressDidUse","inputs":[{"name":"","type":"address","internalType":"address"}],"outputs":[{"name":"","type":"bool","internalType":"bool"}],"stateMutability":"view"},{"type":"function","name":"creatorsMerkle","inputs":[],"outputs":[{"name":"","type":"bytes32","internalType":"bytes32"}],"stateMutability":"view"},{"type":"function","name":"deploymentTime","inputs":[],"outputs":[{"name":"","type":"uint256","internalType":"uint256"}],"stateMutability":"view"},{"type":"function","name":"equip","inputs":[{"name":"_chonkTokenId","type":"uint256","internalType":"uint256"},{"name":"_traitTokenId","type":"uint256","internalType":"uint256"}],"outputs":[],"stateMutability":"nonpayable"},{"type":"function","name":"equipMany","inputs":[{"name":"_chonkTokenId","type":"uint256","internalType":"uint256"},{"name":"_traitTokenIds","type":"uint256[]","internalType":"uint256[]"},{"name":"_traitCategories","type":"uint8[]","internalType":"uint8[]"}],"outputs":[],"stateMutability":"nonpayable"},{"type":"function","name":"firstReleaseDataMinter","inputs":[],"outputs":[{"name":"","type":"address","internalType":"contract FirstReleaseDataMinter"}],"stateMutability":"view"},{"type":"function","name":"friendsAddressDidUse","inputs":[{"name":"","type":"address","internalType":"address"}],"outputs":[{"name":"","type":"bool","internalType":"bool"}],"stateMutability":"view"},{"type":"function","name":"friendsMerkle","inputs":[],"outputs":[{"name":"","type":"bytes32","internalType":"bytes32"}],"stateMutability":"view"},{"type":"function","name":"getApproved","inputs":[{"name":"tokenId","type":"uint256","internalType":"uint256"}],"outputs":[{"name":"","type":"address","internalType":"address"}],"stateMutability":"view"},{"type":"function","name":"getBackpackSVGs","inputs":[{"name":"_tokenId","type":"uint256","internalType":"uint256"}],"outputs":[{"name":"","type":"string","internalType":"string"}],"stateMutability":"view"},{"type":"function","name":"getBodyImageSvg","inputs":[{"name":"_index","type":"uint256","internalType":"uint256"}],"outputs":[{"name":"","type":"string","internalType":"string"}],"stateMutability":"view"},{"type":"function","name":"getBodySVGZmapsAndMetadata","inputs":[{"name":"storedChonk","type":"tuple","internalType":"struct IChonkStorage.StoredChonk","components":[{"name":"tokenId","type":"uint256","internalType":"uint256"},{"name":"headId","type":"uint256","internalType":"uint256"},{"name":"hairId","type":"uint256","internalType":"uint256"},{"name":"faceId","type":"uint256","internalType":"uint256"},{"name":"accessoryId","type":"uint256","internalType":"uint256"},{"name":"topId","type":"uint256","internalType":"uint256"},{"name":"bottomId","type":"uint256","internalType":"uint256"},{"name":"shoesId","type":"uint256","internalType":"uint256"},{"name":"bodyIndex","type":"uint8","internalType":"uint8"},{"name":"backgroundColor","type":"string","internalType":"string"},{"name":"render3D","type":"bool","internalType":"bool"}]}],"outputs":[{"name":"","type":"string","internalType":"string"},{"name":"","type":"bytes","internalType":"bytes"},{"name":"","type":"string","internalType":"string"}],"stateMutability":"view"},{"type":"function","name":"getBodySvgAndMetadata","inputs":[{"name":"storedChonk","type":"tuple","internalType":"struct IChonkStorage.StoredChonk","components":[{"name":"tokenId","type":"uint256","internalType":"uint256"},{"name":"headId","type":"uint256","internalType":"uint256"},{"name":"hairId","type":"uint256","internalType":"uint256"},{"name":"faceId","type":"uint256","internalType":"uint256"},{"name":"accessoryId","type":"uint256","internalType":"uint256"},{"name":"topId","type":"uint256","internalType":"uint256"},{"name":"bottomId","type":"uint256","internalType":"uint256"},{"name":"shoesId","type":"uint256","internalType":"uint256"},{"name":"bodyIndex","type":"uint8","internalType":"uint8"},{"name":"backgroundColor","type":"string","internalType":"string"},{"name":"render3D","type":"bool","internalType":"bool"}]}],"outputs":[{"name":"","type":"string","internalType":"string"},{"name":"","type":"string","internalType":"string"}],"stateMutability":"view"},{"type":"function","name":"getBodyZMap","inputs":[{"name":"_tokenId","type":"uint256","internalType":"uint256"}],"outputs":[{"name":"","type":"string","internalType":"string"}],"stateMutability":"view"},{"type":"function","name":"getChonk","inputs":[{"name":"_tokenId","type":"uint256","internalType":"uint256"}],"outputs":[{"name":"","type":"tuple","internalType":"struct IChonkStorage.StoredChonk","components":[{"name":"tokenId","type":"uint256","internalType":"uint256"},{"name":"headId","type":"uint256","internalType":"uint256"},{"name":"hairId","type":"uint256","internalType":"uint256"},{"name":"faceId","type":"uint256","internalType":"uint256"},{"name":"accessoryId","type":"uint256","internalType":"uint256"},{"name":"topId","type":"uint256","internalType":"uint256"},{"name":"bottomId","type":"uint256","internalType":"uint256"},{"name":"shoesId","type":"uint256","internalType":"uint256"},{"name":"bodyIndex","type":"uint8","internalType":"uint8"},{"name":"backgroundColor","type":"string","internalType":"string"},{"name":"render3D","type":"bool","internalType":"bool"}]}],"stateMutability":"view"},{"type":"function","name":"getChonkIdForTBAAddress","inputs":[{"name":"_tbaAddress","type":"address","internalType":"address"}],"outputs":[{"name":"","type":"uint256","internalType":"uint256"}],"stateMutability":"view"},{"type":"function","name":"getChonkIdToApprovedOperators","inputs":[{"name":"_chonkId","type":"uint256","internalType":"uint256"}],"outputs":[{"name":"","type":"address[]","internalType":"address[]"}],"stateMutability":"view"},{"type":"function","name":"getChonkZMap","inputs":[{"name":"_tokenId","type":"uint256","internalType":"uint256"}],"outputs":[{"name":"","type":"string","internalType":"string"}],"stateMutability":"view"},{"type":"function","name":"getFullPictureForTrait","inputs":[{"name":"_chonkTraitTokenId","type":"uint256","internalType":"uint256"}],"outputs":[{"name":"traitOwnerTBA","type":"address","internalType":"address"},{"name":"chonkTokenId","type":"uint256","internalType":"uint256"},{"name":"chonkOwner","type":"address","internalType":"address"},{"name":"isEquipped","type":"bool","internalType":"bool"}],"stateMutability":"view"},{"type":"function","name":"getOwnerAndTBAAddressForChonkId","inputs":[{"name":"_chonkId","type":"uint256","internalType":"uint256"}],"outputs":[{"name":"owner","type":"address","internalType":"address"},{"name":"tbaAddress","type":"address","internalType":"address"}],"stateMutability":"view"},{"type":"function","name":"getTBAAddressForChonkId","inputs":[{"name":"_chonkId","type":"uint256","internalType":"uint256"}],"outputs":[{"name":"","type":"address","internalType":"address"}],"stateMutability":"view"},{"type":"function","name":"getTraitsForChonkId","inputs":[{"name":"_chonkId","type":"uint256","internalType":"uint256"}],"outputs":[{"name":"traitTokens","type":"uint256[]","internalType":"uint256[]"}],"stateMutability":"view"},{"type":"function","name":"initialMintStartTime","inputs":[],"outputs":[{"name":"","type":"uint256","internalType":"uint256"}],"stateMutability":"view"},{"type":"function","name":"isApprovedForAll","inputs":[{"name":"owner","type":"address","internalType":"address"},{"name":"operator","type":"address","internalType":"address"}],"outputs":[{"name":"","type":"bool","internalType":"bool"}],"stateMutability":"view"},{"type":"function","name":"isTimelocked","inputs":[],"outputs":[{"name":"","type":"bool","internalType":"bool"}],"stateMutability":"view"},{"type":"function","name":"mainRenderer2D","inputs":[],"outputs":[{"name":"","type":"address","internalType":"contract MainRenderer2D"}],"stateMutability":"view"},{"type":"function","name":"mainRenderer3D","inputs":[],"outputs":[{"name":"","type":"address","internalType":"contract MainRenderer3D"}],"stateMutability":"view"},{"type":"function","name":"marketplace","inputs":[],"outputs":[{"name":"","type":"address","internalType":"contract ChonksMarket"}],"stateMutability":"view"},{"type":"function","name":"maxTraitsToOutput","inputs":[],"outputs":[{"name":"","type":"uint256","internalType":"uint256"}],"stateMutability":"view"},{"type":"function","name":"mint","inputs":[{"name":"_amount","type":"uint256","internalType":"uint256"},{"name":"_merkleProof","type":"bytes32[]","internalType":"bytes32[]"}],"outputs":[],"stateMutability":"payable"},{"type":"function","name":"name","inputs":[],"outputs":[{"name":"","type":"string","internalType":"string"}],"stateMutability":"view"},{"type":"function","name":"nextTokenId","inputs":[],"outputs":[{"name":"","type":"uint256","internalType":"uint256"}],"stateMutability":"view"},{"type":"function","name":"oneYearFromDeployment","inputs":[],"outputs":[{"name":"","type":"uint256","internalType":"uint256"}],"stateMutability":"view"},{"type":"function","name":"owner","inputs":[],"outputs":[{"name":"result","type":"address","internalType":"address"}],"stateMutability":"view"},{"type":"function","name":"ownerOf","inputs":[{"name":"tokenId","type":"uint256","internalType":"uint256"}],"outputs":[{"name":"","type":"address","internalType":"address"}],"stateMutability":"view"},{"type":"function","name":"ownershipHandoverExpiresAt","inputs":[{"name":"pendingOwner","type":"address","internalType":"address"}],"outputs":[{"name":"result","type":"uint256","internalType":"uint256"}],"stateMutability":"view"},{"type":"function","name":"price","inputs":[],"outputs":[{"name":"","type":"uint256","internalType":"uint256"}],"stateMutability":"view"},{"type":"function","name":"renderAsDataUri","inputs":[{"name":"_tokenId","type":"uint256","internalType":"uint256"}],"outputs":[{"name":"","type":"string","internalType":"string"}],"stateMutability":"view"},{"type":"function","name":"renderAsDataUri2D","inputs":[{"name":"_tokenId","type":"uint256","internalType":"uint256"}],"outputs":[{"name":"","type":"string","internalType":"string"}],"stateMutability":"view"},{"type":"function","name":"renderAsDataUri3D","inputs":[{"name":"_tokenId","type":"uint256","internalType":"uint256"}],"outputs":[{"name":"","type":"string","internalType":"string"}],"stateMutability":"view"},{"type":"function","name":"renounceOwnership","inputs":[],"outputs":[],"stateMutability":"payable"},{"type":"function","name":"requestOwnershipHandover","inputs":[],"outputs":[],"stateMutability":"payable"},{"type":"function","name":"safeTransferFrom","inputs":[{"name":"from","type":"address","internalType":"address"},{"name":"to","type":"address","internalType":"address"},{"name":"tokenId","type":"uint256","internalType":"uint256"}],"outputs":[],"stateMutability":"nonpayable"},{"type":"function","name":"safeTransferFrom","inputs":[{"name":"from","type":"address","internalType":"address"},{"name":"to","type":"address","internalType":"address"},{"name":"tokenId","type":"uint256","internalType":"uint256"},{"name":"data","type":"bytes","internalType":"bytes"}],"outputs":[],"stateMutability":"nonpayable"},{"type":"function","name":"setApprovalForAll","inputs":[{"name":"_operator","type":"address","internalType":"address"},{"name":"_approved","type":"bool","internalType":"bool"}],"outputs":[],"stateMutability":"nonpayable"},{"type":"function","name":"setApprovalForAllChonksMarketplace","inputs":[{"name":"_chonkId","type":"uint256","internalType":"uint256"},{"name":"_operator","type":"address","internalType":"address"},{"name":"_approved","type":"bool","internalType":"bool"}],"outputs":[],"stateMutability":"nonpayable"},{"type":"function","name":"setBackgroundColor","inputs":[{"name":"_chonkTokenId","type":"uint256","internalType":"uint256"},{"name":"_color","type":"string","internalType":"string"}],"outputs":[],"stateMutability":"nonpayable"},{"type":"function","name":"setBodyIndex","inputs":[{"name":"_chonkTokenId","type":"uint256","internalType":"uint256"},{"name":"_bodyIndex","type":"uint8","internalType":"uint8"}],"outputs":[],"stateMutability":"nonpayable"},{"type":"function","name":"setChonkAttributes","inputs":[{"name":"_tokenId","type":"uint256","internalType":"uint256"},{"name":"_color","type":"string","internalType":"string"},{"name":"_bodyIndex","type":"uint8","internalType":"uint8"},{"name":"_render3D","type":"bool","internalType":"bool"}],"outputs":[],"stateMutability":"nonpayable"},{"type":"function","name":"setChonkEquipHelper","inputs":[{"name":"_chonkEquipHelper","type":"address","internalType":"address"}],"outputs":[],"stateMutability":"nonpayable"},{"type":"function","name":"setCollectionsMerkle","inputs":[{"name":"_merkleRoot","type":"bytes32","internalType":"bytes32"}],"outputs":[],"stateMutability":"nonpayable"},{"type":"function","name":"setCreatorsMerkle","inputs":[{"name":"_merkleRoot","type":"bytes32","internalType":"bytes32"}],"outputs":[],"stateMutability":"nonpayable"},{"type":"function","name":"setDescriptionParts","inputs":[{"name":"_descriptionParts","type":"string[2]","internalType":"string[2]"}],"outputs":[],"stateMutability":"nonpayable"},{"type":"function","name":"setFirstReleaseDataMinter","inputs":[{"name":"_dataContract","type":"address","internalType":"address"}],"outputs":[],"stateMutability":"nonpayable"},{"type":"function","name":"setFriendsMerkleRoot","inputs":[{"name":"_merkleRoot","type":"bytes32","internalType":"bytes32"}],"outputs":[],"stateMutability":"nonpayable"},{"type":"function","name":"setMainRenderer2D","inputs":[{"name":"_mainRenderer2D","type":"address","internalType":"address"}],"outputs":[],"stateMutability":"nonpayable"},{"type":"function","name":"setMainRenderer3D","inputs":[{"name":"_mainRenderer3D","type":"address","internalType":"address"}],"outputs":[],"stateMutability":"nonpayable"},{"type":"function","name":"setMarketplace","inputs":[{"name":"_marketplace","type":"address","internalType":"address"}],"outputs":[],"stateMutability":"nonpayable"},{"type":"function","name":"setMaxTraitsToOutput","inputs":[{"name":"_maxTraitsToOutput","type":"uint256","internalType":"uint256"}],"outputs":[],"stateMutability":"nonpayable"},{"type":"function","name":"setMintStartTime","inputs":[{"name":"_initialMintStartTime","type":"uint256","internalType":"uint256"}],"outputs":[],"stateMutability":"nonpayable"},{"type":"function","name":"setPrice","inputs":[{"name":"_priceInWei","type":"uint256","internalType":"uint256"}],"outputs":[],"stateMutability":"nonpayable"},{"type":"function","name":"setTokenRender3D","inputs":[{"name":"_tokenId","type":"uint256","internalType":"uint256"},{"name":"_render3D","type":"bool","internalType":"bool"}],"outputs":[],"stateMutability":"nonpayable"},{"type":"function","name":"setTraitsContract","inputs":[{"name":"_address","type":"address","internalType":"contract ChonkTraits"}],"outputs":[],"stateMutability":"nonpayable"},{"type":"function","name":"setWithdrawAddress","inputs":[{"name":"_withdrawAddress","type":"address","internalType":"address"}],"outputs":[],"stateMutability":"nonpayable"},{"type":"function","name":"supportsInterface","inputs":[{"name":"interfaceId","type":"bytes4","internalType":"bytes4"}],"outputs":[{"name":"","type":"bool","internalType":"bool"}],"stateMutability":"view"},{"type":"function","name":"symbol","inputs":[],"outputs":[{"name":"","type":"string","internalType":"string"}],"stateMutability":"view"},{"type":"function","name":"tbaAddressToTokenId","inputs":[{"name":"","type":"address","internalType":"address"}],"outputs":[{"name":"","type":"uint256","internalType":"uint256"}],"stateMutability":"view"},{"type":"function","name":"teamMint","inputs":[{"name":"_to","type":"address","internalType":"address"},{"name":"_amount","type":"uint256","internalType":"uint256"},{"name":"_traitCount","type":"uint8","internalType":"uint8"}],"outputs":[],"stateMutability":"nonpayable"},{"type":"function","name":"teamReserve","inputs":[],"outputs":[],"stateMutability":"nonpayable"},{"type":"function","name":"tokenByIndex","inputs":[{"name":"index","type":"uint256","internalType":"uint256"}],"outputs":[{"name":"","type":"uint256","internalType":"uint256"}],"stateMutability":"view"},{"type":"function","name":"tokenIdToTBAAccountAddress","inputs":[{"name":"","type":"uint256","internalType":"uint256"}],"outputs":[{"name":"","type":"address","internalType":"address"}],"stateMutability":"view"},{"type":"function","name":"tokenOfOwnerByIndex","inputs":[{"name":"owner","type":"address","internalType":"address"},{"name":"index","type":"uint256","internalType":"uint256"}],"outputs":[{"name":"","type":"uint256","internalType":"uint256"}],"stateMutability":"view"},{"type":"function","name":"tokenURI","inputs":[{"name":"_tokenId","type":"uint256","internalType":"uint256"}],"outputs":[{"name":"","type":"string","internalType":"string"}],"stateMutability":"view"},{"type":"function","name":"totalSupply","inputs":[],"outputs":[{"name":"","type":"uint256","internalType":"uint256"}],"stateMutability":"view"},{"type":"function","name":"traitsContract","inputs":[],"outputs":[{"name":"","type":"address","internalType":"contract ChonkTraits"}],"stateMutability":"view"},{"type":"function","name":"transferFrom","inputs":[{"name":"from","type":"address","internalType":"address"},{"name":"to","type":"address","internalType":"address"},{"name":"tokenId","type":"uint256","internalType":"uint256"}],"outputs":[],"stateMutability":"nonpayable"},{"type":"function","name":"transferOwnership","inputs":[{"name":"newOwner","type":"address","internalType":"address"}],"outputs":[],"stateMutability":"payable"},{"type":"function","name":"unequip","inputs":[{"name":"_chonkTokenId","type":"uint256","internalType":"uint256"},{"name":"traitType","type":"uint8","internalType":"enum TraitCategory.Name"}],"outputs":[],"stateMutability":"nonpayable"},{"type":"function","name":"unequipAll","inputs":[{"name":"_chonkTokenId","type":"uint256","internalType":"uint256"}],"outputs":[],"stateMutability":"nonpayable"},{"type":"function","name":"walletOfOwner","inputs":[{"name":"_owner","type":"address","internalType":"address"}],"outputs":[{"name":"","type":"uint256[]","internalType":"uint256[]"}],"stateMutability":"view"},{"type":"function","name":"withdraw","inputs":[],"outputs":[],"stateMutability":"nonpayable"},{"type":"function","name":"withdrawAddress","inputs":[],"outputs":[{"name":"","type":"address","internalType":"address"}],"stateMutability":"view"},{"type":"event","name":"Approval","inputs":[{"name":"owner","type":"address","indexed":true,"internalType":"address"},{"name":"approved","type":"address","indexed":true,"internalType":"address"},{"name":"tokenId","type":"uint256","indexed":true,"internalType":"uint256"}],"anonymous":false},{"type":"event","name":"ApprovalForAll","inputs":[{"name":"owner","type":"address","indexed":true,"internalType":"address"},{"name":"operator","type":"address","indexed":true,"internalType":"address"},{"name":"approved","type":"bool","indexed":false,"internalType":"bool"}],"anonymous":false},{"type":"event","name":"BackgroundColor","inputs":[{"name":"owner","type":"address","indexed":true,"internalType":"address"},{"name":"tokenId","type":"uint256","indexed":true,"internalType":"uint256"},{"name":"color","type":"string","indexed":false,"internalType":"string"}],"anonymous":false},{"type":"event","name":"BatchMetadataUpdate","inputs":[{"name":"_fromTokenId","type":"uint256","indexed":false,"internalType":"uint256"},{"name":"_toTokenId","type":"uint256","indexed":false,"internalType":"uint256"}],"anonymous":false},{"type":"event","name":"BodyIndex","inputs":[{"name":"owner","type":"address","indexed":true,"internalType":"address"},{"name":"tokenId","type":"uint256","indexed":true,"internalType":"uint256"},{"name":"_bodyIndex","type":"uint8","indexed":false,"internalType":"uint8"}],"anonymous":false},{"type":"event","name":"Equip","inputs":[{"name":"owner","type":"address","indexed":true,"internalType":"address"},{"name":"tokenId","type":"uint256","indexed":true,"internalType":"uint256"},{"name":"traitTokenId","type":"uint256","indexed":true,"internalType":"uint256"},{"name":"traitCategory","type":"uint8","indexed":false,"internalType":"uint8"}],"anonymous":false},{"type":"event","name":"EquipAll","inputs":[{"name":"owner","type":"address","indexed":true,"internalType":"address"},{"name":"tokenId","type":"uint256","indexed":true,"internalType":"uint256"}],"anonymous":false},{"type":"event","name":"MetadataUpdate","inputs":[{"name":"_tokenId","type":"uint256","indexed":false,"internalType":"uint256"}],"anonymous":false},{"type":"event","name":"Mint","inputs":[{"name":"owner","type":"address","indexed":true,"internalType":"address"},{"name":"tokenId","type":"uint256","indexed":true,"internalType":"uint256"}],"anonymous":false},{"type":"event","name":"OwnershipHandoverCanceled","inputs":[{"name":"pendingOwner","type":"address","indexed":true,"internalType":"address"}],"anonymous":false},{"type":"event","name":"OwnershipHandoverRequested","inputs":[{"name":"pendingOwner","type":"address","indexed":true,"internalType":"address"}],"anonymous":false},{"type":"event","name":"OwnershipTransferred","inputs":[{"name":"oldOwner","type":"address","indexed":true,"internalType":"address"},{"name":"newOwner","type":"address","indexed":true,"internalType":"address"}],"anonymous":false},{"type":"event","name":"Render3D","inputs":[{"name":"owner","type":"address","indexed":true,"internalType":"address"},{"name":"tokenId","type":"uint256","indexed":true,"internalType":"uint256"},{"name":"renderZ","type":"bool","indexed":false,"internalType":"bool"}],"anonymous":false},{"type":"event","name":"Transfer","inputs":[{"name":"from","type":"address","indexed":true,"internalType":"address"},{"name":"to","type":"address","indexed":true,"internalType":"address"},{"name":"tokenId","type":"uint256","indexed":true,"internalType":"uint256"}],"anonymous":false},{"type":"event","name":"Unequip","inputs":[{"name":"owner","type":"address","indexed":true,"internalType":"address"},{"name":"tokenId","type":"uint256","indexed":true,"internalType":"uint256"},{"name":"traitCategory","type":"uint8","indexed":false,"internalType":"uint8"}],"anonymous":false},{"type":"event","name":"UnequipAll","inputs":[{"name":"owner","type":"address","indexed":true,"internalType":"address"},{"name":"tokenId","type":"uint256","indexed":true,"internalType":"uint256"}],"anonymous":false},{"type":"error","name":"AlreadyInitialized","inputs":[]},{"type":"error","name":"CanOnlyReserveFirstTwo","inputs":[]},{"type":"error","name":"CantTransferDuringMint","inputs":[]},{"type":"error","name":"CantTransferToTBAs","inputs":[]},{"type":"error","name":"ChonkDoesntExist","inputs":[]},{"type":"error","name":"FirstReleaseDataMinterNotSet","inputs":[]},{"type":"error","name":"IncorrectChonkOwner","inputs":[]},{"type":"error","name":"IncorrectTBAOwner","inputs":[]},{"type":"error","name":"IncorrectTraitType","inputs":[]},{"type":"error","name":"InsufficientFunds","inputs":[]},{"type":"error","name":"InvalidBodyIndex","inputs":[]},{"type":"error","name":"InvalidColor","inputs":[]},{"type":"error","name":"InvalidMintAmount","inputs":[]},{"type":"error","name":"InvalidTraitCategory","inputs":[]},{"type":"error","name":"InvalidTraitCount","inputs":[]},{"type":"error","name":"MintEnded","inputs":[]},{"type":"error","name":"MintNotStarted","inputs":[]},{"type":"error","name":"MintStartTimeAlreadySet","inputs":[]},{"type":"error","name":"NewOwnerIsZeroAddress","inputs":[]},{"type":"error","name":"NoHandoverRequest","inputs":[]},{"type":"error","name":"Timelocked","inputs":[]},{"type":"error","name":"TraitLengthsMustMatch","inputs":[]},{"type":"error","name":"Unauthorized","inputs":[]},{"type":"error","name":"UseUnequip","inputs":[]},{"type":"error","name":"WithdrawFailed","inputs":[]}],"bytecode":{"object":"0x60a060405260636012553480156200001657600080fd5b506040518060400160405280600681526020016543686f6e6b7360d01b8152506040518060400160405280600681526020016543484f4e4b5360d01b815250816000908162000066919062000175565b50600162000075828262000175565b50506001600a5550620000883362000092565b4260805262000241565b6001600160a01b0316638b78c6d8198190558060007f8be0079c531659141344cd1fd0a4f28419497f9722a3daafe3b4186f6b6457e08180a350565b634e487b7160e01b600052604160045260246000fd5b600181811c90821680620000f957607f821691505b6020821081036200011a57634e487b7160e01b600052602260045260246000fd5b50919050565b601f82111562000170576000816000526020600020601f850160051c810160208610156200014b5750805b601f850160051c820191505b818110156200016c5782815560010162000157565b5050505b505050565b81516001600160401b03811115620001915762000191620000ce565b620001a981620001a28454620000e4565b8462000120565b602080601f831160018114620001e15760008415620001c85750858301515b600019600386901b1c1916600185901b1785556200016c565b600085815260208120601f198616915b828110156200021257888601518255948401946001909101908401620001f1565b5085821015620002315787850151600019600388901b60f8161c191681555b5050505050600190811b01905550565b608051615e9062000264600039600081816110810152612ee70152615e906000f3fe6080604052600436106105225760003560e01c80638da5cb5b116102a2578063bef1dfb711610165578063e985e9c5116100cc578063f40bdd2511610085578063f40bdd2514611109578063f4bec0b614611129578063f6a0c93214611149578063fc863e641461117f578063fd8b66de14611195578063fee81cf4146111b557600080fd5b8063e985e9c514611026578063ecda10f51461106f578063f04e283e146110a3578063f2361e23146110b6578063f2fde38b146110d6578063f3f8efb9146110e957600080fd5b8063d59752eb1161011e578063d59752eb14610f7b578063d5b3621b14610f90578063d68c4f3214610fb0578063dceef0ec14610fd0578063e140554014610ff0578063e3d215551461101057600080fd5b8063bef1dfb714610eae578063bf7f80a614610ece578063c093afdb14610eee578063c87b56dd14610f0e578063cdb6dd5c14610f2e578063d3d6873e14610f4e57600080fd5b8063a4bf9a0011610209578063b84b160d116101c2578063b84b160d14610de6578063b88d4fde14610e06578063b91fdc8c14610e26578063ba3589c814610e3c578063ba41b0c614610e6b578063be7ff59a14610e7e57600080fd5b8063a4bf9a0014610cf4578063abc8c7af14610d21578063b014b77a14610d41578063b194b6f114610d6f578063b45d031614610d8f578063b66ef6e314610dc657600080fd5b80639eb2660c1161025b5780639eb2660c14610c485780639f6e463714610c68578063a035b1fe14610c88578063a153178014610c9e578063a1d6268014610cb4578063a22cb46514610cd457600080fd5b80638da5cb5b14610b8f578063916c546b14610ba857806391b7f5ed14610bc857806395d89b4114610be85780639c05d68d14610bfd5780639c7be2f114610c3357600080fd5b806342842e0e116103ea57806367d2afe21161035157806375794a3c1161030a57806375794a3c14610acd5780637e2e6c4714610ae357806380d833f114610b035780638472cbca14610b195780638aa1e4c814610b4f5780638d2a2f1114610b6f57600080fd5b806367d2afe214610a185780636e51665f14610a4557806370a0823114610a65578063715018a614610a8557806373ad6c2d14610a8d57806375676db814610aad57600080fd5b8063550ab247116103a3578063550ab2471461091357806355737f351461093357806359d591d0146109535780635eabd84a146109835780636352211e146109a357806366704349146109c357600080fd5b806342842e0e146108745780634287f14a14610894578063438b6300146108a95780634f6ccce7146108d657806350b03146146108f657806354d1f13d1461090b57600080fd5b806323b872dd1161048e578063306c733411610447578063306c7334146107bf57806332875aa0146107df57806333d3d9bf146107ff578063343b48871461081f5780633ab1a4941461083f5780633ccfd60b1461085f57600080fd5b806323b872dd14610717578063256929621461073757806326f2052a1461073f578063282575321461075f5780632f745c591461077f5780633044825b1461079f57600080fd5b80630a99a350116104e05780630a99a350146106385780630c83f9d71461065857806314fe8ff4146106885780631581b600146106a857806318160ddd146106c85780631e8ff18f146106e757600080fd5b80621792061461052757806301ffc9a71461054957806304003bd01461057e57806306fdde03146105be578063081812fc146105e0578063095ea7b314610618575b600080fd5b34801561053357600080fd5b50610547610542366004614b65565b6111e8565b005b34801561055557600080fd5b50610569610564366004614b98565b611238565b60405190151581526020015b60405180910390f35b34801561058a57600080fd5b5061059e610599366004614bb5565b611249565b604080516001600160a01b03938416815292909116602083015201610575565b3480156105ca57600080fd5b506105d3611278565b6040516105759190614c1e565b3480156105ec57600080fd5b506106006105fb366004614bb5565b61130a565b6040516001600160a01b039091168152602001610575565b34801561062457600080fd5b50610547610633366004614c31565b611331565b34801561064457600080fd5b50610547610653366004614b65565b611382565b34801561066457600080fd5b50610678610673366004614bb5565b6113d2565b6040516105759493929190614c5d565b34801561069457600080fd5b506105d36106a3366004614bb5565b611593565b3480156106b457600080fd5b50601454610600906001600160a01b031681565b3480156106d457600080fd5b506008545b604051908152602001610575565b3480156106f357600080fd5b50610569610702366004614b65565b601d6020526000908152604090205460ff1681565b34801561072357600080fd5b50610547610732366004614ca7565b61164c565b61054761168b565b34801561074b57600080fd5b5061054761075a366004614df6565b6116da565b34801561076b57600080fd5b5061054761077a366004614e90565b6116ef565b34801561078b57600080fd5b506106d961079a366004614c31565b61182f565b3480156107ab57600080fd5b506105476107ba366004614bb5565b6118c5565b3480156107cb57600080fd5b506105d36107da366004614bb5565b611984565b3480156107eb57600080fd5b506105d36107fa366004614bb5565b61199c565b34801561080b57600080fd5b5061054761081a366004614bb5565b611a53565b34801561082b57600080fd5b5061054761083a366004614ed8565b611a60565b34801561084b57600080fd5b5061054761085a366004614b65565b611b1f565b34801561086b57600080fd5b50610547611b49565b34801561088057600080fd5b5061054761088f366004614ca7565b611bc8565b3480156108a057600080fd5b50610547611be3565b3480156108b557600080fd5b506108c96108c4366004614b65565b611c24565b6040516105759190614f3f565b3480156108e257600080fd5b506106d96108f1366004614bb5565b611cbb565b34801561090257600080fd5b50610569611d4e565b610547611d5f565b34801561091f57600080fd5b5061054761092e366004614f83565b611d9b565b34801561093f57600080fd5b5061060061094e366004614e90565b611df1565b34801561095f57600080fd5b5061056961096e366004614b65565b601f6020526000908152604090205460ff1681565b34801561098f57600080fd5b5061054761099e366004614b65565b611e29565b3480156109af57600080fd5b506106006109be366004614bb5565b611e79565b3480156109cf57600080fd5b506109e36109de366004614bb5565b611ed9565b60405161057594939291906001600160a01b039485168152602081019390935292166040820152901515606082015260800190565b348015610a2457600080fd5b50610a38610a33366004614bb5565b611f8b565b6040516105759190615006565b348015610a5157600080fd5b50610547610a60366004615019565b611ff7565b348015610a7157600080fd5b506106d9610a80366004614b65565b61203d565b6105476120c3565b348015610a9957600080fd5b50610547610aa8366004614b65565b6120d5565b348015610ab957600080fd5b50600e54610600906001600160a01b031681565b348015610ad957600080fd5b506106d960135481565b348015610aef57600080fd5b50610547610afe366004614b65565b612125565b348015610b0f57600080fd5b506106d960205481565b348015610b2557600080fd5b506106d9610b34366004614b65565b6001600160a01b03166000908152601b602052604090205490565b348015610b5b57600080fd5b50610569610b6a366004614e90565b612175565b348015610b7b57600080fd5b50610547610b8a366004614bb5565b6121e6565b348015610b9b57600080fd5b50638b78c6d81954610600565b348015610bb457600080fd5b506105d3610bc3366004614bb5565b6121f3565b348015610bd457600080fd5b50610547610be3366004614bb5565b612235565b348015610bf457600080fd5b506105d3612242565b348015610c0957600080fd5b50610600610c18366004614bb5565b601a602052600090815260409020546001600160a01b031681565b348015610c3f57600080fd5b50610547612251565b348015610c5457600080fd5b50610547610c63366004614bb5565b612273565b348015610c7457600080fd5b506108c9610c83366004614bb5565b612280565b348015610c9457600080fd5b506106d960155481565b348015610caa57600080fd5b506106d960225481565b348015610cc057600080fd5b506105d3610ccf366004614bb5565b612316565b348015610ce057600080fd5b50610547610cef36600461504e565b612341565b348015610d0057600080fd5b506106d9610d0f366004614b65565b601b6020526000908152604090205481565b348015610d2d57600080fd5b50600d54610600906001600160a01b031681565b348015610d4d57600080fd5b50610d61610d5c366004615083565b6123ba565b60405161057592919061516a565b348015610d7b57600080fd5b50610547610d8a366004614bb5565b612468565b348015610d9b57600080fd5b50610daf610daa366004614bb5565b612475565b6040516105759b9a99989796959493929190615198565b348015610dd257600080fd5b50601154610600906001600160a01b031681565b348015610df257600080fd5b50610547610e01366004614b65565b61255f565b348015610e1257600080fd5b50610547610e21366004615203565b6125af565b348015610e3257600080fd5b506106d960165481565b348015610e4857600080fd5b50610e5c610e57366004615083565b6125e1565b6040516105759392919061526e565b610547610e793660046152d4565b612732565b348015610e8a57600080fd5b50610569610e99366004614b65565b601e6020526000908152604090205460ff1681565b348015610eba57600080fd5b50610547610ec9366004615370565b6128db565b348015610eda57600080fd5b50610547610ee93660046153de565b612986565b348015610efa57600080fd5b50600c54610600906001600160a01b031681565b348015610f1a57600080fd5b506105d3610f29366004614bb5565b612c75565b348015610f3a57600080fd5b50610547610f49366004615464565b612cb6565b348015610f5a57600080fd5b50610f6e610f69366004614bb5565b612d55565b6040516105759190615494565b348015610f8757600080fd5b506106d9612ee0565b348015610f9c57600080fd5b50610547610fab366004614bb5565b612f15565b348015610fbc57600080fd5b50610547610fcb366004615534565b612f43565b348015610fdc57600080fd5b506105d3610feb366004614bb5565b612fe5565b348015610ffc57600080fd5b5061054761100b36600461557a565b6130aa565b34801561101c57600080fd5b506106d960125481565b34801561103257600080fd5b5061056961104136600461559d565b6001600160a01b03918216600090815260056020908152604080832093909416825291909152205460ff1690565b34801561107b57600080fd5b506106d97f000000000000000000000000000000000000000000000000000000000000000081565b6105476110b1366004614b65565b613172565b3480156110c257600080fd5b506105476110d13660046155cb565b6131af565b6105476110e4366004614b65565b613222565b3480156110f557600080fd5b506105d3611104366004614bb5565b613249565b34801561111557600080fd5b50610547611124366004615650565b6132bb565b34801561113557600080fd5b50601054610600906001600160a01b031681565b34801561115557600080fd5b50610600611164366004614bb5565b6000908152601a60205260409020546001600160a01b031690565b34801561118b57600080fd5b506106d960215481565b3480156111a157600080fd5b50600f54610600906001600160a01b031681565b3480156111c157600080fd5b506106d96111d0366004614b65565b63389a75e1600c908152600091909152602090205490565b6111f061332c565b6111f8611d4e565b156112165760405163774ae17d60e01b815260040160405180910390fd5b601180546001600160a01b0319166001600160a01b0392909216919091179055565b600061124382613347565b92915050565b60008061125583611e79565b6000938452601a60205260409093205492936001600160a01b0390931692915050565b60606000805461128790615710565b80601f01602080910402602001604051908101604052809291908181526020018280546112b390615710565b80156113005780601f106112d557610100808354040283529160200191611300565b820191906000526020600020905b8154815290600101906020018083116112e357829003601f168201915b5050505050905090565b60006113158261336c565b506000908152600460205260409020546001600160a01b031690565b61133a81611e79565b6001600160a01b0316336001600160a01b03161461136a576040516282b42960e81b815260040160405180910390fd5b61137481836133cb565b61137e828261340a565b5050565b61138a61332c565b611392611d4e565b156113b05760405163774ae17d60e01b815260040160405180910390fd5b600e80546001600160a01b0319166001600160a01b0392909216919091179055565b600b60205260009081526040902080546001820180549192916113f490615710565b80601f016020809104026020016040519081016040528092919081815260200182805461142090615710565b801561146d5780601f106114425761010080835404028352916020019161146d565b820191906000526020600020905b81548152906001019060200180831161145057829003601f168201915b50505050509080600201805461148290615710565b80601f01602080910402602001604051908101604052809291908181526020018280546114ae90615710565b80156114fb5780601f106114d0576101008083540402835291602001916114fb565b820191906000526020600020905b8154815290600101906020018083116114de57829003601f168201915b50505050509080600301805461151090615710565b80601f016020809104026020016040519081016040528092919081815260200182805461153c90615710565b80156115895780601f1061155e57610100808354040283529160200191611589565b820191906000526020600020905b81548152906001019060200180831161156c57829003601f168201915b5050505050905084565b601054600c546060916001600160a01b03908116916327707b1491166115ce856000908152601a60205260409020546001600160a01b031690565b6012546040516001600160e01b031960e086901b1681526001600160a01b03938416600482015292909116602483015260448201526064015b600060405180830381865afa158015611624573d6000803e3d6000fd5b505050506040513d6000823e601f3d908101601f19168201604052611243919081019061579a565b6116563382613478565b61167b5760405162461bcd60e51b8152600401611672906157ce565b60405180910390fd5b6116868383836134f6565b505050565b60006202a3006001600160401b03164201905063389a75e1600c5233600052806020600c2055337fdbf36a107da19e49527a7176a1babf963b4b0ff8cde35ee35d6cd8f1f9ac7e1d600080a250565b6116e261332c565b61137e6017826002614a29565b816116f981611e79565b6001600160a01b0316336001600160a01b03161461172a57604051631431735b60e21b815260040160405180910390fd5b8160000361174b57604051630754c7f360e41b815260040160405180910390fd5b600e546040516341e2a37360e01b815260048101859052602481018490526000916001600160a01b0316906341e2a37390604401602060405180830381865afa15801561179c573d6000803e3d6000fd5b505050506040513d601f19601f820116820180604052508101906117c0919061581c565b90506117cd8482856136a3565b82846117d886611e79565b6001600160a01b03167fc94c1c47471ed97c1d309bab965192a3e4be3807f42d015b699bfbdcf24dd9f684600781111561181457611814615839565b60405160ff909116815260200160405180910390a450505050565b600061183a8361203d565b821061189c5760405162461bcd60e51b815260206004820152602b60248201527f455243373231456e756d657261626c653a206f776e657220696e646578206f7560448201526a74206f6620626f756e647360a81b6064820152608401611672565b506001600160a01b03919091166000908152600660209081526040808320938352929052205490565b806118cf81611e79565b6001600160a01b0316336001600160a01b03161461190057604051631431735b60e21b815260040160405180910390fd5b600082815260196020526040812060018101829055600281018290556003810182905560048101829055600581018290556006810182905560078101919091558261194a81611e79565b6001600160a01b03167f46078a2cd4c69c3b4a27bdc69fdfe03d442ebcf405f1a68e9b5df6bc3e24429760405160405180910390a3505050565b606080611993610e5784612d55565b50949350505050565b600c5460609081906001600160a01b031663250818ea6119bb85612d55565b6040518263ffffffff1660e01b81526004016119d79190615494565b600060405180830381865afa1580156119f4573d6000803e3d6000fd5b505050506040513d6000823e601f3d908101601f19168201604052611a1c919081019061584f565b509150611a2a905083611984565b81604051602001611a3c9291906158ed565b604051602081830303815290604052915050919050565b611a5b61332c565b601255565b83611a6a81611e79565b6001600160a01b0316336001600160a01b031614611a9b57604051631431735b60e21b815260040160405180910390fd5b611aa484613801565b60048360ff161115611ac9576040516329ba348d60e11b815260040160405180910390fd5b6000858152601960205260409020600901611ae48582615964565b505060009384526019602052604090932060088101805460ff90931660ff19938416179055600a018054931515939091169290921790915550565b611b2761332c565b601480546001600160a01b0319166001600160a01b0392909216919091179055565b611b5161332c565b6014546040516000916001600160a01b03169047908381818185875af1925050503d8060008114611b9e576040519150601f19603f3d011682016040523d82523d6000602084013e611ba3565b606091505b5050905080611bc557604051631d42c86760e21b815260040160405180910390fd5b50565b611686838383604051806020016040528060008152506125af565b611beb61332c565b6002611bf660085490565b1115611c155760405163155b299760e31b815260040160405180910390fd5b611c223360026007613972565b565b60606000611c318361203d565b90506000816001600160401b03811115611c4d57611c4d614ce8565b604051908082528060200260200182016040528015611c76578160200160208202803683370190505b50905060005b82811015611cb357611c8e858261182f565b828281518110611ca057611ca0615a23565b6020908102919091010152600101611c7c565b509392505050565b6000611cc660085490565b8210611d295760405162461bcd60e51b815260206004820152602c60248201527f455243373231456e756d657261626c653a20676c6f62616c20696e646578206f60448201526b7574206f6620626f756e647360a01b6064820152608401611672565b60088281548110611d3c57611d3c615a23565b90600052602060002001549050919050565b6000611d58612ee0565b4211905090565b63389a75e1600c523360005260006020600c2055337ffa7b8eab7da67f412cc9575ed43464468f9bfbae89d1675917346ca6d8fe3c92600080a2565b6000611da684611e79565b90506001600160a01b0381163314611dd0576040516282b42960e81b815260040160405180910390fd5b8115611de057611de084846133cb565b611deb818484613c8a565b50505050565b601c6020528160005260406000208181548110611e0d57600080fd5b6000918252602090912001546001600160a01b03169150829050565b611e3161332c565b611e39611d4e565b15611e575760405163774ae17d60e01b815260040160405180910390fd5b600c80546001600160a01b0319166001600160a01b0392909216919091179055565b6000818152600260205260408120546001600160a01b0316806112435760405162461bcd60e51b8152602060048201526018602482015277115490cdcc8c4e881a5b9d985b1a59081d1bdad95b88125160421b6044820152606401611672565b600c546040516331a9108f60e11b8152600481018390526000918291829182916001600160a01b0390911690636352211e90602401602060405180830381865afa158015611f2b573d6000803e3d6000fd5b505050506040513d601f19601f82011682018060405250810190611f4f9190615a39565b6001600160a01b0381166000908152601b60205260409020549094509250611f7683611e79565b9150611f828386612175565b90509193509193565b6000818152601c6020908152604091829020805483518184028101840190945280845260609392830182828015611feb57602002820191906000526020600020905b81546001600160a01b03168152600190910190602001808311611fcd575b50505050509050919050565b611fff61332c565b60048160ff161080612014575060078160ff16115b1561203257604051632258debf60e01b815260040160405180910390fd5b611686838383613972565b60006001600160a01b0382166120a75760405162461bcd60e51b815260206004820152602960248201527f4552433732313a2061646472657373207a65726f206973206e6f7420612076616044820152683634b21037bbb732b960b91b6064820152608401611672565b506001600160a01b031660009081526003602052604090205490565b6120cb61332c565b611c226000613d50565b6120dd61332c565b6120e5611d4e565b156121035760405163774ae17d60e01b815260040160405180910390fd5b600d80546001600160a01b0319166001600160a01b0392909216919091179055565b61212d61332c565b612135611d4e565b156121535760405163774ae17d60e01b815260040160405180910390fd5b601080546001600160a01b0319166001600160a01b0392909216919091179055565b60008061218184612d55565b905082816020015114806121985750828160400151145b806121a65750828160600151145b806121b45750828160800151145b806121c25750828160a00151145b806121d05750828160c00151145b806121de5750828160e00151145b949350505050565b6121ee61332c565b602055565b6010546000828152600b602052604090819020905163da11a05360e01b81526060926001600160a01b03169163da11a053916116079160020190600401615ad3565b61223d61332c565b601555565b60606001805461128790615710565b60005b600a811015611bc557606061226a600482612732565b50600101612254565b61227b61332c565b602155565b6000818152601a6020526040812054606091906001600160a01b0316600c5460405162438b6360e81b81526001600160a01b03808416600483015292935091169063438b630090602401600060405180830381865afa1580156122e7573d6000803e3d6000fd5b505050506040513d6000823e601f3d908101601f1916820160405261230f9190810190615ae6565b9392505050565b606061232182612d55565b61014001516123385761233382613249565b611243565b61124382612fe5565b80156123af57600061235233611c24565b90508051600003612375576040516282b42960e81b815260040160405180910390fd5b60005b81518110156123ac576123a482828151811061239657612396615a23565b6020026020010151856133cb565b600101612378565b50505b61137e338383613c8a565b6060806123ce83610100015160ff166121f3565b60105461010085015160ff166000908152600b6020526040908190209051630d88d4ff60e01b81526001600160a01b0390921691630d88d4ff9161241a91600190910190600401615b6b565b600060405180830381865afa158015612437573d6000803e3d6000fd5b505050506040513d6000823e601f3d908101601f1916820160405261245f919081019061579a565b91509150915091565b61247061332c565b602255565b601960205260009081526040902080546001820154600283015460038401546004850154600586015460068701546007880154600889015460098a018054999a989997989697959694959394929360ff90921692916124d390615710565b80601f01602080910402602001604051908101604052809291908181526020018280546124ff90615710565b801561254c5780601f106125215761010080835404028352916020019161254c565b820191906000526020600020905b81548152906001019060200180831161252f57829003601f168201915b505050600a909301549192505060ff168b565b61256761332c565b61256f611d4e565b1561258d5760405163774ae17d60e01b815260040160405180910390fd5b600f80546001600160a01b0319166001600160a01b0392909216919091179055565b6125b93383613478565b6125d55760405162461bcd60e51b8152600401611672906157ce565b611deb84848484613d8e565b60608060606125f784610100015160ff166121f3565b6101008501805160ff9081166000908152600b602052604080822060105494519093168252908190209051630d88d4ff60e01b81526003909201926001600160a01b031691630d88d4ff9161265491600190910190600401615b6b565b600060405180830381865afa158015612671573d6000803e3d6000fd5b505050506040513d6000823e601f3d908101601f19168201604052612699919081019061579a565b8180546126a590615710565b80601f01602080910402602001604051908101604052809291908181526020018280546126d190615710565b801561271e5780601f106126f35761010080835404028352916020019161271e565b820191906000526020600020905b81548152906001019060200180831161270157829003601f168201915b505050505091509250925092509193909250565b600f546001600160a01b031661275b5760405163d93186fd60e01b815260040160405180910390fd5b8115806127685750600a82115b156127865760405163199f5a0360e31b815260040160405180910390fd5b816015546127949190615bb4565b34146127b35760405163356680b760e01b815260040160405180910390fd5b6040516bffffffffffffffffffffffff193360601b1660208201526004906000906034016040516020818303038152906040528051906020012090506127fc8360205483613dc1565b1561283c57336000908152601d602052604090205460ff1661283757336000908152601d60205260409020805460ff19166001179055600591505b6128d0565b6128498360215483613dc1565b1561288857336000908152601e602052604090205460ff1661283757336000908152601e60205260409020805460ff19166001179055600691506128d0565b6128958360225483613dc1565b156128d057336000908152601f602052604090205460ff166128d057336000908152601f60205260409020805460ff19166001179055600791505b611deb338584613972565b816128e581611e79565b6001600160a01b0316336001600160a01b03161461291657604051631431735b60e21b815260040160405180910390fd5b6000838152601960205260409020600a01805460ff19168315151790558261293d81611e79565b6001600160a01b03167f6dd9e2813f787f711671bf91b2e57a72b9b61bc279b934201f3fd29b3b5f8cbe84604051612979911515815260200190565b60405180910390a3505050565b8461299081611e79565b6001600160a01b0316336001600160a01b0316146129c157604051631431735b60e21b815260040160405180910390fd5b8382146129e157604051632cf6bbe560e01b815260040160405180910390fd5b6000868152601960205260408120906129f988611e79565b6000898152601a60205260408120549192506001600160a01b03909116905b87811015612c33576000898983818110612a3457612a34615a23565b9050602002013590506000888884818110612a5157612a51615a23565b9050602002016020810190612a669190615bcb565b905081600003612a8957604051630754c7f360e41b815260040160405180910390fd5b60ff81161580612a9c575060078160ff16115b15612aba57604051631d0602b560e31b815260040160405180910390fd5b60008160ff166007811115612ad157612ad1615839565b600e546040516395d004cb60e01b81529192506001600160a01b0316906395d004cb90612b0690889087908690600401615be6565b60006040518083038186803b158015612b1e57600080fd5b505afa158015612b32573d6000803e3d6000fd5b5060019250612b3f915050565b60ff168260ff1603612b575760018701839055612be3565b60011960ff831601612b6f5760028701839055612be3565b60021960ff831601612b875760038701839055612be3565b60031960ff831601612b9f5760048701839055612be3565b60041960ff831601612bb75760058701839055612be3565b60051960ff831601612bcf5760068701839055612be3565b60061960ff831601612be357600787018390555b60405160ff8316815283908e906001600160a01b038916907fc94c1c47471ed97c1d309bab965192a3e4be3807f42d015b699bfbdcf24dd9f69060200160405180910390a4505050600101612a18565b5060405189906001600160a01b038416907f56680590212b09eb4b72a2eba8801b037ec046dfc754538e924f5bb6a8c4db6c90600090a3505050505050505050565b6000818152600260205260409020546060906001600160a01b0316612cad57604051636461f73160e01b815260040160405180910390fd5b61124382612316565b81612cc081611e79565b6001600160a01b0316336001600160a01b031614612cf157604051631431735b60e21b815260040160405180910390fd5b612cfd838360006136a3565b82612d0784611e79565b6001600160a01b03167f3d8ac56c725fc7985e9444622a45baee28ba67d8a964045f747b465121f40e71846007811115612d4357612d43615839565b60405160ff9091168152602001612979565b612db76040518061016001604052806000815260200160008152602001600081526020016000815260200160008152602001600081526020016000815260200160008152602001600060ff168152602001606081526020016000151581525090565b600082815260196020908152604091829020825161016081018452815481526001820154928101929092526002810154928201929092526003820154606082015260048201546080820152600582015460a0820152600682015460c0820152600782015460e0820152600882015460ff1661010082015260098201805491929161012084019190612e4790615710565b80601f0160208091040260200160405190810160405280929190818152602001828054612e7390615710565b8015612ec05780601f10612e9557610100808354040283529160200191612ec0565b820191906000526020600020905b815481529060010190602001808311612ea357829003601f168201915b5050509183525050600a919091015460ff16151560209091015292915050565b6000612f107f00000000000000000000000000000000000000000000000000000000000000006301e13380615c29565b905090565b612f1d61332c565b60165415612f3e5760405163703e78e960e11b815260040160405180910390fd5b601655565b81612f4d81611e79565b6001600160a01b0316336001600160a01b031614612f7e57604051631431735b60e21b815260040160405180910390fd5b612f8782613801565b6000838152601960205260409020600901612fa28382615964565b5082612fad84611e79565b6001600160a01b03167f2e34f8c0f6052b66319b4a5df14eac164c6af8a0b37f612d4304a777e1ae7a3d846040516129799190614c1e565b6060600080600080600080600080612ffc8a613e03565b97509750975097509750975097509750601160009054906101000a90046001600160a01b03166001600160a01b03166347c575328b8a898887876040518763ffffffff1660e01b815260040161305796959493929190615cc7565b600060405180830381865afa158015613074573d6000803e3d6000fd5b505050506040513d6000823e601f3d908101601f1916820160405261309c919081019061579a565b9a9950505050505050505050565b816130b481611e79565b6001600160a01b0316336001600160a01b0316146130e557604051631431735b60e21b815260040160405180910390fd5b60048260ff16111561310a576040516329ba348d60e11b815260040160405180910390fd5b6000838152601960205260409020600801805460ff191660ff84161790558261313281611e79565b60405160ff851681526001600160a01b0391909116907f454db5768a3f8187a5dd5e9cca100cf699d74d8a03f793d16da3932cdf34d35890602001612979565b61317a61332c565b63389a75e1600c52806000526020600c2080544211156131a257636f5e88186000526004601cfd5b60009055611bc581613d50565b6131b761332c565b6131bf611d4e565b156131dd5760405163774ae17d60e01b815260040160405180910390fd5b6000848152600b60205260409020848155600181016131fc8582615964565b506002810161320b8482615964565b506003810161321a8382615964565b505050505050565b61322a61332c565b8060601b61324057637448fbae6000526004601cfd5b611bc581613d50565b60606000806000806000806000806132608a613e03565b97509750975097509750975097509750601060009054906101000a90046001600160a01b03166001600160a01b03166356275a9c8b8a898888876040518763ffffffff1660e01b815260040161305796959493929190615cc7565b876132c581611e79565b6001600160a01b0316336001600160a01b0316146132f657604051631431735b60e21b815260040160405180910390fd5b6133038989898989612986565b61330d89856130aa565b6133178984612f43565b61332189836128db565b505050505050505050565b638b78c6d819543314611c22576382b429006000526004601cfd5b60006001600160e01b0319821663780e9d6360e01b1480611243575061124382614066565b6000818152600260205260409020546001600160a01b0316611bc55760405162461bcd60e51b8152602060048201526018602482015277115490cdcc8c4e881a5b9d985b1a59081d1bdad95b88125160421b6044820152606401611672565b6000918252601c6020908152604083208054600181018255908452922090910180546001600160a01b0319166001600160a01b03909216919091179055565b600081815260046020526040902080546001600160a01b0319166001600160a01b038416908117909155819061343f82611e79565b6001600160a01b03167f8c5be1e5ebec7d5bd14f71427d1e84f3dd0314c0f7b2291e5b200ac8c7c3b92560405160405180910390a45050565b60008061348483611e79565b9050806001600160a01b0316846001600160a01b031614806134cb57506001600160a01b0380821660009081526005602090815260408083209388168352929052205460ff165b806121de5750836001600160a01b03166134e48461130a565b6001600160a01b031614949350505050565b826001600160a01b031661350982611e79565b6001600160a01b03161461356d5760405162461bcd60e51b815260206004820152602560248201527f4552433732313a207472616e736665722066726f6d20696e636f72726563742060448201526437bbb732b960d91b6064820152608401611672565b6001600160a01b0382166135cf5760405162461bcd60e51b8152602060048201526024808201527f4552433732313a207472616e7366657220746f20746865207a65726f206164646044820152637265737360e01b6064820152608401611672565b6135da8383836140b6565b6135e560008261340a565b6001600160a01b038316600090815260036020526040812080546001929061360e908490615d3b565b90915550506001600160a01b038216600090815260036020526040812080546001929061363c908490615c29565b909155505060008181526002602052604080822080546001600160a01b0319166001600160a01b0386811691821790925591518493918716917fddf252ad1be2c89b69c2b068fc378daa952ba7f163c4a11628f55a4df523b3ef91a4611686838383614497565b60018260078111156136b7576136b7615839565b036136d5576000838152601960205260409020600101819055505050565b60028260078111156136e9576136e9615839565b03613707576000838152601960205260409020600201819055505050565b600382600781111561371b5761371b615839565b03613739576000838152601960205260409020600301819055505050565b600482600781111561374d5761374d615839565b0361376b576000838152601960205260409020600401819055505050565b600582600781111561377f5761377f615839565b0361379d576000838152601960205260409020600501819055505050565b60068260078111156137b1576137b1615839565b036137cf576000838152601960205260409020600601819055505050565b60078260078111156137e3576137e3615839565b03611686576000838152601960205260409020600701819055505050565b8051819060061461382557604051631cf7e9c560e01b815260040160405180910390fd5b60005b600681101561168657603060f81b82828151811061384857613848615a23565b01602001516001600160f81b031916108015906138895750603960f81b82828151811061387757613877615a23565b01602001516001600160f81b03191611155b1580156138eb5750604160f81b8282815181106138a8576138a8615a23565b01602001516001600160f81b031916108015906138e95750604660f81b8282815181106138d7576138d7615a23565b01602001516001600160f81b03191611155b155b801561394c5750606160f81b82828151811061390957613909615a23565b01602001516001600160f81b0319161080159061394a5750606660f81b82828151811061393857613938615a23565b01602001516001600160f81b03191611155b155b1561396a57604051631cf7e9c560e01b815260040160405180910390fd5b600101613828565b60005b82811015611deb57600060136000815461398e90615d4e565b9182905550905061399f85826144a1565b604051638a54c52f60e01b81527355266d75d1a14e4572138116af39863ed6596e7f600482015260006024820181905262014a34604483015230606483015260848201839052906f6551c19487814612e58fe0681377575890638a54c52f9060a4016020604051808303816000875af1158015613a20573d6000803e3d6000fd5b505050506040513d601f19601f82011682018060405250810190613a449190615a39565b6000838152601a6020908152604080832080546001600160a01b0319166001600160a01b038616908117909155808452601b90925291829020859055905163189acdbd60e31b81527341c8f39463a868d3a88af00cd0fe7102f30e44ec60048201529192509063c4d66de890602401600060405180830381600087803b158015613acd57600080fd5b505af1158015613ae1573d6000803e3d6000fd5b5050600f546040516358a2727360e01b81526001600160a01b03858116600483015260ff891660248301526000945090911691506358a27273906044016000604051808303816000875af1158015613b3d573d6000803e3d6000fd5b505050506040513d6000823e601f3d908101601f19168201604052613b659190810190615ae6565b6000848152601960209081526040918290208681558251918201879052929350600591016040516020818303038152906040528051906020012060001c613bac9190615d67565b60088201805460ff191660ff929092169190911790556040805180820190915260068152650c110d914e5160d21b60208201526009820190613bee9082615964565b5081600081518110613c0257613c02615a23565b6020026020010151816007018190555081600181518110613c2557613c25615a23565b6020026020010151816006018190555081600281518110613c4857613c48615a23565b6020026020010151816005018190555081600381518110613c6b57613c6b615a23565b6020026020010151816002018190555050505050806001019050613975565b816001600160a01b0316836001600160a01b031603613ceb5760405162461bcd60e51b815260206004820152601960248201527f4552433732313a20617070726f766520746f2063616c6c6572000000000000006044820152606401611672565b6001600160a01b03838116600081815260056020908152604080832094871680845294825291829020805460ff191686151590811790915591519182527f17307eab39ab6107e8899845ad3d59bd9653f200f220920489ca2b5937696c319101612979565b638b78c6d81980546001600160a01b039092169182907f8be0079c531659141344cd1fd0a4f28419497f9722a3daafe3b4186f6b6457e0600080a355565b613d998484846134f6565b613da5848484846145f7565b611deb5760405162461bcd60e51b815260040161167290615d89565b6000835115613dfc5760208401845160051b81015b8151841160051b938452815160209485185260406000209390910190808210613dd65750505b5014919050565b6060806060806060806060613e16614a72565b6000613e218a612d55565b9050613e2c816125e1565b50600c546040516312840c7560e11b8152929b509099506001600160a01b03169063250818ea90613e61908490600401615494565b600060405180830381865afa158015613e7e573d6000803e3d6000fd5b505050506040513d6000823e601f3d908101601f19168201604052613ea6919081019061584f565b91985096509450613eb68a611593565b61012082015183529350613ec98a612280565b5160408084019190915261010082015160ff166000908152600b602052206001018054613ef590615710565b80601f0160208091040260200160405190810160405280929190818152602001828054613f2190615710565b8015613f6e5780601f10613f4357610100808354040283529160200191613f6e565b820191906000526020600020905b815481529060010190602001808311613f5157829003601f168201915b5050505050602083015260408051808201909152601760026000835b8282101561402d578382018054613fa090615710565b80601f0160208091040260200160405190810160405280929190818152602001828054613fcc90615710565b80156140195780601f10613fee57610100808354040283529160200191614019565b820191906000526020600020905b815481529060010190602001808311613ffc57829003601f168201915b505050505081526020019060010190613f8a565b50505050606083015260405161404990899088906020016158ed565b604051602081830303815290604052925050919395975091939597565b60006001600160e01b031982166380ac58cd60e01b148061409757506001600160e01b03198216635b5e139f60e01b145b8061124357506301ffc9a760e01b6001600160e01b0319831614611243565b6001600160a01b0383166140cf576116868383836146f8565b6001600160a01b0382166000908152601b60205260409020541561410657604051639a42da2960e01b815260040160405180910390fd5b6000818152601a60205260408120546001600160a01b03169061412884611c24565b9050600081516001600160401b0381111561414557614145614ce8565b60405190808252806020026020018201604052801561416e578160200160208202803683370190505b50905060005b82518110156141ef57601a600084838151811061419357614193615a23565b6020026020010151815260200190815260200160002060009054906101000a90046001600160a01b03168282815181106141cf576141cf615a23565b6001600160a01b0390921660209283029190910190910152600101614174565b50600d5460405163644ec52760e01b8152600481018690526001600160a01b039091169063644ec52790602401600060405180830381600087803b15801561423657600080fd5b505af115801561424a573d6000803e3d6000fd5b5050600d54604051631e92beb560e31b8152600481018890526001600160a01b038981166024830152909116925063f495f5a89150604401600060405180830381600087803b15801561429c57600080fd5b505af11580156142b0573d6000803e3d6000fd5b5050600c5460405162438b6360e81b81526001600160a01b03878116600483015260009450909116915063438b630090602401600060405180830381865afa158015614300573d6000803e3d6000fd5b505050506040513d6000823e601f3d908101601f191682016040526143289190810190615ae6565b905060005b815181101561448257600082828151811061434a5761434a615a23565b6020908102919091010151600d54604051632e1d274f60e01b8152600481018390529192506001600160a01b031690632e1d274f90602401600060405180830381600087803b15801561439c57600080fd5b505af11580156143b0573d6000803e3d6000fd5b5050600d54604051632333520b60e11b81526001600160a01b039091169250634666a41691506143e69084908890600401615ddb565b600060405180830381600087803b15801561440057600080fd5b505af1158015614414573d6000803e3d6000fd5b5050600c5460405163487b1c2160e11b8152600481018590526001600160a01b0390911692506390f638429150602401600060405180830381600087803b15801561445e57600080fd5b505af1158015614472573d6000803e3d6000fd5b505050505080600101905061432d565b5061448e8787876146f8565b50505050505050565b61168681846147b0565b6001600160a01b0382166144f75760405162461bcd60e51b815260206004820181905260248201527f4552433732313a206d696e7420746f20746865207a65726f20616464726573736044820152606401611672565b6000818152600260205260409020546001600160a01b03161561455c5760405162461bcd60e51b815260206004820152601c60248201527f4552433732313a20746f6b656e20616c7265616479206d696e746564000000006044820152606401611672565b614568600083836140b6565b6001600160a01b0382166000908152600360205260408120805460019290614591908490615c29565b909155505060008181526002602052604080822080546001600160a01b0319166001600160a01b03861690811790915590518392907fddf252ad1be2c89b69c2b068fc378daa952ba7f163c4a11628f55a4df523b3ef908290a461137e60008383614497565b60006001600160a01b0384163b156146ed57604051630a85bd0160e11b81526001600160a01b0385169063150b7a029061463b903390899088908890600401615df4565b6020604051808303816000875af1925050508015614676575060408051601f3d908101601f1916820190925261467391810190615e27565b60015b6146d3573d8080156146a4576040519150601f19603f3d011682016040523d82523d6000602084013e6146a9565b606091505b5080516000036146cb5760405162461bcd60e51b815260040161167290615d89565b805181602001fd5b6001600160e01b031916630a85bd0160e11b1490506121de565b506001949350505050565b6001600160a01b0383166147535761474e81600880546000838152600960205260408120829055600182018355919091527ff3f7a9fe364faab93b216da50a3214154f22a0a2b415b23a84c8169e8b636ee30155565b614776565b816001600160a01b0316836001600160a01b031614614776576147768382614899565b6001600160a01b03821661478d5761168681614936565b826001600160a01b0316826001600160a01b0316146116865761168682826149e5565b6000828152601c602090815260408083208054825181850281018501909352808352919290919083018282801561481057602002820191906000526020600020905b81546001600160a01b031681526001909101906020018083116147f2575b5050506000868152601a60205260408120549394506001600160a01b03909316929150505b8251811015614881576148638484838151811061485457614854615a23565b60200260200101516000613c8a565b6148798284838151811061485457614854615a23565b600101614835565b506000848152601c60205260408120611deb91614a9f565b600060016148a68461203d565b6148b09190615d3b565b600083815260076020526040902054909150808214614903576001600160a01b03841660009081526006602090815260408083208584528252808320548484528184208190558352600790915290208190555b5060009182526007602090815260408084208490556001600160a01b039094168352600681528383209183525290812055565b60085460009061494890600190615d3b565b6000838152600960205260408120546008805493945090928490811061497057614970615a23565b90600052602060002001549050806008838154811061499157614991615a23565b60009182526020808320909101929092558281526009909152604080822084905585825281205560088054806149c9576149c9615e44565b6001900381819060005260206000200160009055905550505050565b60006149f08361203d565b6001600160a01b039093166000908152600660209081526040808320868452825280832085905593825260079052919091209190915550565b8260028101928215614a62579160200282015b82811115614a625782518290614a529082615964565b5091602001919060010190614a3c565b50614a6e929150614abd565b5090565b6040518060800160405280606081526020016060815260200160008152602001614a9a614ada565b905290565b5080546000825590600052602060002090810190611bc59190614b01565b80821115614a6e576000614ad18282614b16565b50600101614abd565b60405180604001604052806002905b6060815260200190600190039081614ae95790505090565b5b80821115614a6e5760008155600101614b02565b508054614b2290615710565b6000825580601f10614b32575050565b601f016020900490600052602060002090810190611bc59190614b01565b6001600160a01b0381168114611bc557600080fd5b600060208284031215614b7757600080fd5b813561230f81614b50565b6001600160e01b031981168114611bc557600080fd5b600060208284031215614baa57600080fd5b813561230f81614b82565b600060208284031215614bc757600080fd5b5035919050565b60005b83811015614be9578181015183820152602001614bd1565b50506000910152565b60008151808452614c0a816020860160208601614bce565b601f01601f19169290920160200192915050565b60208152600061230f6020830184614bf2565b60008060408385031215614c4457600080fd5b8235614c4f81614b50565b946020939093013593505050565b848152608060208201526000614c766080830186614bf2565b8281036040840152614c888186614bf2565b90508281036060840152614c9c8185614bf2565b979650505050505050565b600080600060608486031215614cbc57600080fd5b8335614cc781614b50565b92506020840135614cd781614b50565b929592945050506040919091013590565b634e487b7160e01b600052604160045260246000fd5b604080519081016001600160401b0381118282101715614d2057614d20614ce8565b60405290565b60405161016081016001600160401b0381118282101715614d2057614d20614ce8565b604051601f8201601f191681016001600160401b0381118282101715614d7157614d71614ce8565b604052919050565b60006001600160401b03821115614d9257614d92614ce8565b50601f01601f191660200190565b600082601f830112614db157600080fd5b8135614dc4614dbf82614d79565b614d49565b818152846020838601011115614dd957600080fd5b816020850160208301376000918101602001919091529392505050565b60006020808385031215614e0957600080fd5b82356001600160401b0380821115614e2057600080fd5b818501915085601f830112614e3457600080fd5b614e3c614cfe565b806040840188811115614e4e57600080fd5b845b81811015614e8257803585811115614e685760008081fd5b614e748b828901614da0565b855250928601928601614e50565b509098975050505050505050565b60008060408385031215614ea357600080fd5b50508035926020909101359150565b803560ff81168114614ec357600080fd5b919050565b80358015158114614ec357600080fd5b60008060008060808587031215614eee57600080fd5b8435935060208501356001600160401b03811115614f0b57600080fd5b614f1787828801614da0565b935050614f2660408601614eb2565b9150614f3460608601614ec8565b905092959194509250565b6020808252825182820181905260009190848201906040850190845b81811015614f7757835183529284019291840191600101614f5b565b50909695505050505050565b600080600060608486031215614f9857600080fd5b833592506020840135614faa81614b50565b9150614fb860408501614ec8565b90509250925092565b60008151808452602080850194506020840160005b83811015614ffb5781516001600160a01b031687529582019590820190600101614fd6565b509495945050505050565b60208152600061230f6020830184614fc1565b60008060006060848603121561502e57600080fd5b833561503981614b50565b925060208401359150614fb860408501614eb2565b6000806040838503121561506157600080fd5b823561506c81614b50565b915061507a60208401614ec8565b90509250929050565b60006020828403121561509557600080fd5b81356001600160401b03808211156150ac57600080fd5b9083019061016082860312156150c157600080fd5b6150c9614d26565b823581526020830135602082015260408301356040820152606083013560608201526080830135608082015260a083013560a082015260c083013560c082015260e083013560e0820152610100615121818501614eb2565b90820152610120838101358381111561513957600080fd5b61514588828701614da0565b828401525050610140915061515b828401614ec8565b91810191909152949350505050565b60408152600061517d6040830185614bf2565b828103602084015261518f8185614bf2565b95945050505050565b60006101608d83528c60208401528b60408401528a60608401528960808401528860a08401528760c08401528660e084015260ff8616610100840152806101208401526151e781840186614bf2565b9150508215156101408301529c9b505050505050505050505050565b6000806000806080858703121561521957600080fd5b843561522481614b50565b9350602085013561523481614b50565b92506040850135915060608501356001600160401b0381111561525657600080fd5b61526287828801614da0565b91505092959194509250565b6060815260006152816060830186614bf2565b82810360208401526152938186614bf2565b905082810360408401526152a78185614bf2565b9695505050505050565b60006001600160401b038211156152ca576152ca614ce8565b5060051b60200190565b600080604083850312156152e757600080fd5b823591506020808401356001600160401b0381111561530557600080fd5b8401601f8101861361531657600080fd5b8035615324614dbf826152b1565b81815260059190911b8201830190838101908883111561534357600080fd5b928401925b8284101561536157833582529284019290840190615348565b80955050505050509250929050565b6000806040838503121561538357600080fd5b8235915061507a60208401614ec8565b60008083601f8401126153a557600080fd5b5081356001600160401b038111156153bc57600080fd5b6020830191508360208260051b85010111156153d757600080fd5b9250929050565b6000806000806000606086880312156153f657600080fd5b8535945060208601356001600160401b038082111561541457600080fd5b61542089838a01615393565b9096509450604088013591508082111561543957600080fd5b5061544688828901615393565b969995985093965092949392505050565b60088110611bc557600080fd5b6000806040838503121561547757600080fd5b82359150602083013561548981615457565b809150509250929050565b6020815281516020820152602082015160408201526040820151606082015260608201516080820152608082015160a082015260a082015160c082015260c082015160e0820152600060e08301516101008181850152808501519150506101206155028185018360ff169052565b808501519150506101606101408181860152615522610180860184614bf2565b95015115159301929092525090919050565b6000806040838503121561554757600080fd5b8235915060208301356001600160401b0381111561556457600080fd5b61557085828601614da0565b9150509250929050565b6000806040838503121561558d57600080fd5b8235915061507a60208401614eb2565b600080604083850312156155b057600080fd5b82356155bb81614b50565b9150602083013561548981614b50565b600080600080608085870312156155e157600080fd5b8435935060208501356001600160401b03808211156155ff57600080fd5b61560b88838901614da0565b9450604087013591508082111561562157600080fd5b61562d88838901614da0565b9350606087013591508082111561564357600080fd5b5061526287828801614da0565b60008060008060008060008060c0898b03121561566c57600080fd5b8835975060208901356001600160401b038082111561568a57600080fd5b6156968c838d01615393565b909950975060408b01359150808211156156af57600080fd5b6156bb8c838d01615393565b90975095508591506156cf60608c01614eb2565b945060808b01359150808211156156e557600080fd5b506156f28b828c01614da0565b92505061570160a08a01614ec8565b90509295985092959890939650565b600181811c9082168061572457607f821691505b60208210810361574457634e487b7160e01b600052602260045260246000fd5b50919050565b6000615758614dbf84614d79565b905082815283838301111561576c57600080fd5b61230f836020830184614bce565b600082601f83011261578b57600080fd5b61230f8383516020850161574a565b6000602082840312156157ac57600080fd5b81516001600160401b038111156157c257600080fd5b6121de8482850161577a565b6020808252602e908201527f4552433732313a2063616c6c6572206973206e6f7420746f6b656e206f776e6560408201526d1c881b9bdc88185c1c1c9bdd995960921b606082015260800190565b60006020828403121561582e57600080fd5b815161230f81615457565b634e487b7160e01b600052602160045260246000fd5b60008060006060848603121561586457600080fd5b83516001600160401b038082111561587b57600080fd5b6158878783880161577a565b9450602086015191508082111561589d57600080fd5b818601915086601f8301126158b157600080fd5b6158c08783516020850161574a565b935060408601519150808211156158d657600080fd5b506158e38682870161577a565b9150509250925092565b600083516158ff818460208801614bce565b835190830190615913818360208801614bce565b01949350505050565b601f821115611686576000816000526020600020601f850160051c810160208610156159455750805b601f850160051c820191505b8181101561321a57828155600101615951565b81516001600160401b0381111561597d5761597d614ce8565b6159918161598b8454615710565b8461591c565b602080601f8311600181146159c657600084156159ae5750858301515b600019600386901b1c1916600185901b17855561321a565b600085815260208120601f198616915b828110156159f5578886015182559484019460019091019084016159d6565b5085821015615a135787850151600019600388901b60f8161c191681555b5050505050600190811b01905550565b634e487b7160e01b600052603260045260246000fd5b600060208284031215615a4b57600080fd5b815161230f81614b50565b60008154615a6381615710565b808552602060018381168015615a805760018114615a9a57615ac8565b60ff1985168884015283151560051b880183019550615ac8565b866000528260002060005b85811015615ac05781548a8201860152908301908401615aa5565b890184019650505b505050505092915050565b60208152600061230f6020830184615a56565b60006020808385031215615af957600080fd5b82516001600160401b03811115615b0f57600080fd5b8301601f81018513615b2057600080fd5b8051615b2e614dbf826152b1565b81815260059190911b82018301908381019087831115615b4d57600080fd5b928401925b82841015614c9c57835182529284019290840190615b52565b604081526009604082015268426f6479205479706560b81b606082015260806020820152600061230f6080830184615a56565b634e487b7160e01b600052601160045260246000fd5b808202811582820484141761124357611243615b9e565b600060208284031215615bdd57600080fd5b61230f82614eb2565b6001600160a01b0384168152602081018390526060810160088310615c1b57634e487b7160e01b600052602160045260246000fd5b826040830152949350505050565b8082018082111561124357611243615b9e565b6000815160808452615c516080850182614bf2565b90506020808401518583036020870152615c6b8382614bf2565b9250506040840151604086015260608401518583036060870152828390506040840160005b6002811015615cbb578582038352615ca9828551614bf2565b93850193928501929150600101615c90565b50979650505050505050565b86815260c060208201526000615ce060c0830188614bf2565b8281036040840152615cf28188614bf2565b90508281036060840152615d068187614bf2565b90508281036080840152615d1a8186614bf2565b905082810360a0840152615d2e8185615c3c565b9998505050505050505050565b8181038181111561124357611243615b9e565b600060018201615d6057615d60615b9e565b5060010190565b600082615d8457634e487b7160e01b600052601260045260246000fd5b500690565b60208082526032908201527f4552433732313a207472616e7366657220746f206e6f6e20455243373231526560408201527131b2b4bb32b91034b6b83632b6b2b73a32b960711b606082015260800190565b8281526040602082015260006121de6040830184614fc1565b6001600160a01b03858116825284166020820152604081018390526080606082018190526000906152a790830184614bf2565b600060208284031215615e3957600080fd5b815161230f81614b82565b634e487b7160e01b600052603160045260246000fdfea2646970667358221220be36586c8d9187c17bb67a0d97efdaefe3a0549c16a5980211fa20364a88c36e64736f6c63430008160033","linkReferences":{}},"methodIdentifiers":{"_debugPostConstructorMint()":"9c7be2f1","addNewBody(uint256,string,bytes,bytes)":"f2361e23","approve(address,uint256)":"095ea7b3","balanceOf(address)":"70a08231","bodyIndexToMetadata(uint256)":"0c83f9d7","cancelOwnershipHandover()":"54d1f13d","checkIfTraitIsEquipped(uint256,uint256)":"8aa1e4c8","chonkEquipHelper()":"75676db8","chonkIdToApprovedOperators(uint256,uint256)":"55737f35","chonkMakeover(uint256,uint256[],uint8[],uint8,string,bool)":"f40bdd25","chonkTokens(uint256)":"b45d0316","collectionsAddressDidUse(address)":"1e8ff18f","collectionsMerkle()":"80d833f1","completeOwnershipHandover(address)":"f04e283e","creatorsAddressDidUse(address)":"59d591d0","creatorsMerkle()":"a1531780","deploymentTime()":"ecda10f5","equip(uint256,uint256)":"28257532","equipMany(uint256,uint256[],uint8[])":"bf7f80a6","firstReleaseDataMinter()":"fd8b66de","friendsAddressDidUse(address)":"be7ff59a","friendsMerkle()":"fc863e64","getApproved(uint256)":"081812fc","getBackpackSVGs(uint256)":"14fe8ff4","getBodyImageSvg(uint256)":"916c546b","getBodySVGZmapsAndMetadata((uint256,uint256,uint256,uint256,uint256,uint256,uint256,uint256,uint8,string,bool))":"ba3589c8","getBodySvgAndMetadata((uint256,uint256,uint256,uint256,uint256,uint256,uint256,uint256,uint8,string,bool))":"b014b77a","getBodyZMap(uint256)":"306c7334","getChonk(uint256)":"d3d6873e","getChonkIdForTBAAddress(address)":"8472cbca","getChonkIdToApprovedOperators(uint256)":"67d2afe2","getChonkZMap(uint256)":"32875aa0","getFullPictureForTrait(uint256)":"66704349","getOwnerAndTBAAddressForChonkId(uint256)":"04003bd0","getTBAAddressForChonkId(uint256)":"f6a0c932","getTraitsForChonkId(uint256)":"9f6e4637","initialMintStartTime()":"b91fdc8c","isApprovedForAll(address,address)":"e985e9c5","isTimelocked()":"50b03146","mainRenderer2D()":"f4bec0b6","mainRenderer3D()":"b66ef6e3","marketplace()":"abc8c7af","maxTraitsToOutput()":"e3d21555","mint(uint256,bytes32[])":"ba41b0c6","name()":"06fdde03","nextTokenId()":"75794a3c","oneYearFromDeployment()":"d59752eb","owner()":"8da5cb5b","ownerOf(uint256)":"6352211e","ownershipHandoverExpiresAt(address)":"fee81cf4","price()":"a035b1fe","renderAsDataUri(uint256)":"a1d62680","renderAsDataUri2D(uint256)":"f3f8efb9","renderAsDataUri3D(uint256)":"dceef0ec","renounceOwnership()":"715018a6","requestOwnershipHandover()":"25692962","safeTransferFrom(address,address,uint256)":"42842e0e","safeTransferFrom(address,address,uint256,bytes)":"b88d4fde","setApprovalForAll(address,bool)":"a22cb465","setApprovalForAllChonksMarketplace(uint256,address,bool)":"550ab247","setBackgroundColor(uint256,string)":"d68c4f32","setBodyIndex(uint256,uint8)":"e1405540","setChonkAttributes(uint256,string,uint8,bool)":"343b4887","setChonkEquipHelper(address)":"0a99a350","setCollectionsMerkle(bytes32)":"8d2a2f11","setCreatorsMerkle(bytes32)":"b194b6f1","setDescriptionParts(string[2])":"26f2052a","setFirstReleaseDataMinter(address)":"b84b160d","setFriendsMerkleRoot(bytes32)":"9eb2660c","setMainRenderer2D(address)":"7e2e6c47","setMainRenderer3D(address)":"00179206","setMarketplace(address)":"73ad6c2d","setMaxTraitsToOutput(uint256)":"33d3d9bf","setMintStartTime(uint256)":"d5b3621b","setPrice(uint256)":"91b7f5ed","setTokenRender3D(uint256,bool)":"bef1dfb7","setTraitsContract(address)":"5eabd84a","setWithdrawAddress(address)":"3ab1a494","supportsInterface(bytes4)":"01ffc9a7","symbol()":"95d89b41","tbaAddressToTokenId(address)":"a4bf9a00","teamMint(address,uint256,uint8)":"6e51665f","teamReserve()":"4287f14a","tokenByIndex(uint256)":"4f6ccce7","tokenIdToTBAAccountAddress(uint256)":"9c05d68d","tokenOfOwnerByIndex(address,uint256)":"2f745c59","tokenURI(uint256)":"c87b56dd","totalSupply()":"18160ddd","traitsContract()":"c093afdb","transferFrom(address,address,uint256)":"23b872dd","transferOwnership(address)":"f2fde38b","unequip(uint256,uint8)":"cdb6dd5c","unequipAll(uint256)":"3044825b","walletOfOwner(address)":"438b6300","withdraw()":"3ccfd60b","withdrawAddress()":"1581b600"},"id":43}