{"abi":[{"type":"constructor","inputs":[{"name":"localDeploy_","type":"bool","internalType":"bool"}],"stateMutability":"nonpayable"},{"type":"function","name":"_debugPostConstructorMint","inputs":[],"outputs":[],"stateMutability":"nonpayable"},{"type":"function","name":"_nextTokenId","inputs":[],"outputs":[{"name":"","type":"uint256","internalType":"uint256"}],"stateMutability":"view"},{"type":"function","name":"addNewBody","inputs":[{"name":"_bodyIndex","type":"uint256","internalType":"uint256"},{"name":"_bodyName","type":"string","internalType":"string"},{"name":"_colorMap","type":"bytes","internalType":"bytes"},{"name":"_zMap","type":"bytes","internalType":"bytes"}],"outputs":[],"stateMutability":"nonpayable"},{"type":"function","name":"approve","inputs":[{"name":"_operator","type":"address","internalType":"address"},{"name":"_chonkId","type":"uint256","internalType":"uint256"}],"outputs":[],"stateMutability":"nonpayable"},{"type":"function","name":"balanceOf","inputs":[{"name":"owner","type":"address","internalType":"address"}],"outputs":[{"name":"","type":"uint256","internalType":"uint256"}],"stateMutability":"view"},{"type":"function","name":"bodyIndexToMetadata","inputs":[{"name":"","type":"uint256","internalType":"uint256"}],"outputs":[{"name":"bodyIndex","type":"uint256","internalType":"uint256"},{"name":"bodyName","type":"string","internalType":"string"},{"name":"colorMap","type":"bytes","internalType":"bytes"},{"name":"zMap","type":"bytes","internalType":"bytes"}],"stateMutability":"view"},{"type":"function","name":"cancelOwnershipHandover","inputs":[],"outputs":[],"stateMutability":"payable"},{"type":"function","name":"checkIfTraitIsEquipped","inputs":[{"name":"_chonkId","type":"uint256","internalType":"uint256"},{"name":"_traitId","type":"uint256","internalType":"uint256"}],"outputs":[{"name":"","type":"bool","internalType":"bool"}],"stateMutability":"view"},{"type":"function","name":"chonkIdToApprovedOperators","inputs":[{"name":"chonkId","type":"uint256","internalType":"uint256"},{"name":"","type":"uint256","internalType":"uint256"}],"outputs":[{"name":"operators","type":"address","internalType":"address"}],"stateMutability":"view"},{"type":"function","name":"chonkMakeover","inputs":[{"name":"_chonkTokenId","type":"uint256","internalType":"uint256"},{"name":"_headTokenId","type":"uint256","internalType":"uint256"},{"name":"_hairTokenId","type":"uint256","internalType":"uint256"},{"name":"_faceTokenId","type":"uint256","internalType":"uint256"},{"name":"_accessoryTokenId","type":"uint256","internalType":"uint256"},{"name":"_topTokenId","type":"uint256","internalType":"uint256"},{"name":"_bottomTokenId","type":"uint256","internalType":"uint256"},{"name":"_shoesTokenId","type":"uint256","internalType":"uint256"},{"name":"_bodyIndex","type":"uint8","internalType":"uint8"},{"name":"_backgroundColor","type":"string","internalType":"string"}],"outputs":[],"stateMutability":"nonpayable"},{"type":"function","name":"chonksCreatorListMerkleRoot","inputs":[],"outputs":[{"name":"","type":"bytes32","internalType":"bytes32"}],"stateMutability":"view"},{"type":"function","name":"completeOwnershipHandover","inputs":[{"name":"pendingOwner","type":"address","internalType":"address"}],"outputs":[],"stateMutability":"payable"},{"type":"function","name":"deploymentTime","inputs":[],"outputs":[{"name":"","type":"uint256","internalType":"uint256"}],"stateMutability":"view"},{"type":"function","name":"equip","inputs":[{"name":"_chonkTokenId","type":"uint256","internalType":"uint256"},{"name":"_traitTokenId","type":"uint256","internalType":"uint256"}],"outputs":[],"stateMutability":"nonpayable"},{"type":"function","name":"equipAll","inputs":[{"name":"_chonkTokenId","type":"uint256","internalType":"uint256"},{"name":"_headTokenId","type":"uint256","internalType":"uint256"},{"name":"_hairTokenId","type":"uint256","internalType":"uint256"},{"name":"_faceTokenId","type":"uint256","internalType":"uint256"},{"name":"_accessoryTokenId","type":"uint256","internalType":"uint256"},{"name":"_topTokenId","type":"uint256","internalType":"uint256"},{"name":"_bottomTokenId","type":"uint256","internalType":"uint256"},{"name":"_shoesTokenId","type":"uint256","internalType":"uint256"}],"outputs":[],"stateMutability":"nonpayable"},{"type":"function","name":"firstSeasonRenderMinter","inputs":[],"outputs":[{"name":"","type":"address","internalType":"contract FirstSeasonRenderMinter"}],"stateMutability":"view"},{"type":"function","name":"friendsListMerkleRoot","inputs":[],"outputs":[{"name":"","type":"bytes32","internalType":"bytes32"}],"stateMutability":"view"},{"type":"function","name":"getApproved","inputs":[{"name":"tokenId","type":"uint256","internalType":"uint256"}],"outputs":[{"name":"","type":"address","internalType":"address"}],"stateMutability":"view"},{"type":"function","name":"getBackpackSVGs","inputs":[{"name":"_tokenId","type":"uint256","internalType":"uint256"}],"outputs":[{"name":"","type":"string","internalType":"string"}],"stateMutability":"view"},{"type":"function","name":"getBodyImageSvg","inputs":[{"name":"_index","type":"uint256","internalType":"uint256"}],"outputs":[{"name":"svg","type":"string","internalType":"string"}],"stateMutability":"view"},{"type":"function","name":"getBodySVGZmapsAndMetadata","inputs":[{"name":"storedChonk","type":"tuple","internalType":"struct IChonkStorage.StoredChonk","components":[{"name":"headId","type":"uint256","internalType":"uint256"},{"name":"hairId","type":"uint256","internalType":"uint256"},{"name":"faceId","type":"uint256","internalType":"uint256"},{"name":"accessoryId","type":"uint256","internalType":"uint256"},{"name":"topId","type":"uint256","internalType":"uint256"},{"name":"bottomId","type":"uint256","internalType":"uint256"},{"name":"shoesId","type":"uint256","internalType":"uint256"},{"name":"epoch","type":"uint32","internalType":"uint32"},{"name":"tokenId","type":"uint256","internalType":"uint256"},{"name":"bodyIndex","type":"uint8","internalType":"uint8"},{"name":"backgroundColor","type":"string","internalType":"string"},{"name":"render3D","type":"bool","internalType":"bool"}]}],"outputs":[{"name":"","type":"string","internalType":"string"},{"name":"","type":"bytes","internalType":"bytes"},{"name":"","type":"string","internalType":"string"}],"stateMutability":"view"},{"type":"function","name":"getBodySvgAndMetadata","inputs":[{"name":"storedChonk","type":"tuple","internalType":"struct IChonkStorage.StoredChonk","components":[{"name":"headId","type":"uint256","internalType":"uint256"},{"name":"hairId","type":"uint256","internalType":"uint256"},{"name":"faceId","type":"uint256","internalType":"uint256"},{"name":"accessoryId","type":"uint256","internalType":"uint256"},{"name":"topId","type":"uint256","internalType":"uint256"},{"name":"bottomId","type":"uint256","internalType":"uint256"},{"name":"shoesId","type":"uint256","internalType":"uint256"},{"name":"epoch","type":"uint32","internalType":"uint32"},{"name":"tokenId","type":"uint256","internalType":"uint256"},{"name":"bodyIndex","type":"uint8","internalType":"uint8"},{"name":"backgroundColor","type":"string","internalType":"string"},{"name":"render3D","type":"bool","internalType":"bool"}]}],"outputs":[{"name":"","type":"string","internalType":"string"},{"name":"","type":"string","internalType":"string"}],"stateMutability":"view"},{"type":"function","name":"getBodyZMap","inputs":[{"name":"_tokenId","type":"uint256","internalType":"uint256"}],"outputs":[{"name":"","type":"string","internalType":"string"}],"stateMutability":"view"},{"type":"function","name":"getChonk","inputs":[{"name":"_tokenId","type":"uint256","internalType":"uint256"}],"outputs":[{"name":"","type":"tuple","internalType":"struct IChonkStorage.StoredChonk","components":[{"name":"headId","type":"uint256","internalType":"uint256"},{"name":"hairId","type":"uint256","internalType":"uint256"},{"name":"faceId","type":"uint256","internalType":"uint256"},{"name":"accessoryId","type":"uint256","internalType":"uint256"},{"name":"topId","type":"uint256","internalType":"uint256"},{"name":"bottomId","type":"uint256","internalType":"uint256"},{"name":"shoesId","type":"uint256","internalType":"uint256"},{"name":"epoch","type":"uint32","internalType":"uint32"},{"name":"tokenId","type":"uint256","internalType":"uint256"},{"name":"bodyIndex","type":"uint8","internalType":"uint8"},{"name":"backgroundColor","type":"string","internalType":"string"},{"name":"render3D","type":"bool","internalType":"bool"}]}],"stateMutability":"view"},{"type":"function","name":"getChonkIdForTBAAddress","inputs":[{"name":"_tbaAddress","type":"address","internalType":"address"}],"outputs":[{"name":"","type":"uint256","internalType":"uint256"}],"stateMutability":"view"},{"type":"function","name":"getChonkIdToApprovedOperators","inputs":[{"name":"_chonkId","type":"uint256","internalType":"uint256"}],"outputs":[{"name":"","type":"address[]","internalType":"address[]"}],"stateMutability":"view"},{"type":"function","name":"getChonkZMap","inputs":[{"name":"_tokenId","type":"uint256","internalType":"uint256"}],"outputs":[{"name":"","type":"string","internalType":"string"}],"stateMutability":"view"},{"type":"function","name":"getFullPictureForTrait","inputs":[{"name":"_chonkTraitTokenId","type":"uint256","internalType":"uint256"}],"outputs":[{"name":"traitOwnerTBA","type":"address","internalType":"address"},{"name":"chonkTokenId","type":"uint256","internalType":"uint256"},{"name":"chonkOwner","type":"address","internalType":"address"},{"name":"isEquipped","type":"bool","internalType":"bool"}],"stateMutability":"view"},{"type":"function","name":"getOwnerAndTBAAddressForChonkId","inputs":[{"name":"_chonkId","type":"uint256","internalType":"uint256"}],"outputs":[{"name":"owner","type":"address","internalType":"address"},{"name":"tbaAddress","type":"address","internalType":"address"}],"stateMutability":"view"},{"type":"function","name":"getTBAAddressForChonkId","inputs":[{"name":"_chonkId","type":"uint256","internalType":"uint256"}],"outputs":[{"name":"","type":"address","internalType":"address"}],"stateMutability":"view"},{"type":"function","name":"getTokenRenderZ","inputs":[{"name":"_chonkTokenId","type":"uint256","internalType":"uint256"}],"outputs":[{"name":"","type":"bool","internalType":"bool"}],"stateMutability":"view"},{"type":"function","name":"getTraitsForChonkId","inputs":[{"name":"_chonkId","type":"uint256","internalType":"uint256"}],"outputs":[{"name":"traitTokens","type":"uint256[]","internalType":"uint256[]"}],"stateMutability":"view"},{"type":"function","name":"isApprovedForAll","inputs":[{"name":"owner","type":"address","internalType":"address"},{"name":"operator","type":"address","internalType":"address"}],"outputs":[{"name":"","type":"bool","internalType":"bool"}],"stateMutability":"view"},{"type":"function","name":"isTimelocked","inputs":[],"outputs":[{"name":"","type":"bool","internalType":"bool"}],"stateMutability":"view"},{"type":"function","name":"mainRenderer2D","inputs":[],"outputs":[{"name":"","type":"address","internalType":"contract MainRenderer2D"}],"stateMutability":"view"},{"type":"function","name":"mainRenderer3D","inputs":[],"outputs":[{"name":"","type":"address","internalType":"contract MainRenderer3D"}],"stateMutability":"view"},{"type":"function","name":"marketplace","inputs":[],"outputs":[{"name":"","type":"address","internalType":"contract ChonksMarket"}],"stateMutability":"view"},{"type":"function","name":"maxTraitsToOutput","inputs":[],"outputs":[{"name":"","type":"uint256","internalType":"uint256"}],"stateMutability":"view"},{"type":"function","name":"mint","inputs":[{"name":"_amount","type":"uint256","internalType":"uint256"},{"name":"_merkleProof","type":"bytes32[]","internalType":"bytes32[]"}],"outputs":[],"stateMutability":"payable"},{"type":"function","name":"mintStartTime","inputs":[],"outputs":[{"name":"","type":"uint256","internalType":"uint256"}],"stateMutability":"view"},{"type":"function","name":"name","inputs":[],"outputs":[{"name":"","type":"string","internalType":"string"}],"stateMutability":"view"},{"type":"function","name":"oneYearFromDeployment","inputs":[],"outputs":[{"name":"","type":"uint256","internalType":"uint256"}],"stateMutability":"view"},{"type":"function","name":"owner","inputs":[],"outputs":[{"name":"result","type":"address","internalType":"address"}],"stateMutability":"view"},{"type":"function","name":"ownerOf","inputs":[{"name":"tokenId","type":"uint256","internalType":"uint256"}],"outputs":[{"name":"","type":"address","internalType":"address"}],"stateMutability":"view"},{"type":"function","name":"ownershipHandoverExpiresAt","inputs":[{"name":"pendingOwner","type":"address","internalType":"address"}],"outputs":[{"name":"result","type":"uint256","internalType":"uint256"}],"stateMutability":"view"},{"type":"function","name":"price","inputs":[],"outputs":[{"name":"","type":"uint256","internalType":"uint256"}],"stateMutability":"view"},{"type":"function","name":"renderAsDataUri","inputs":[{"name":"_tokenId","type":"uint256","internalType":"uint256"}],"outputs":[{"name":"","type":"string","internalType":"string"}],"stateMutability":"view"},{"type":"function","name":"renderAsDataUri2D","inputs":[{"name":"_tokenId","type":"uint256","internalType":"uint256"}],"outputs":[{"name":"","type":"string","internalType":"string"}],"stateMutability":"view"},{"type":"function","name":"renderAsDataUri3D","inputs":[{"name":"_tokenId","type":"uint256","internalType":"uint256"}],"outputs":[{"name":"","type":"string","internalType":"string"}],"stateMutability":"view"},{"type":"function","name":"renounceOwnership","inputs":[],"outputs":[],"stateMutability":"payable"},{"type":"function","name":"requestOwnershipHandover","inputs":[],"outputs":[],"stateMutability":"payable"},{"type":"function","name":"safeTransferFrom","inputs":[{"name":"from","type":"address","internalType":"address"},{"name":"to","type":"address","internalType":"address"},{"name":"tokenId","type":"uint256","internalType":"uint256"}],"outputs":[],"stateMutability":"nonpayable"},{"type":"function","name":"safeTransferFrom","inputs":[{"name":"from","type":"address","internalType":"address"},{"name":"to","type":"address","internalType":"address"},{"name":"tokenId","type":"uint256","internalType":"uint256"},{"name":"data","type":"bytes","internalType":"bytes"}],"outputs":[],"stateMutability":"nonpayable"},{"type":"function","name":"setApprovalForAll","inputs":[{"name":"_operator","type":"address","internalType":"address"},{"name":"_approved","type":"bool","internalType":"bool"}],"outputs":[],"stateMutability":"nonpayable"},{"type":"function","name":"setApprovalForAllChonksMarketplace","inputs":[{"name":"_chonkId","type":"uint256","internalType":"uint256"},{"name":"_operator","type":"address","internalType":"address"},{"name":"_approved","type":"bool","internalType":"bool"}],"outputs":[],"stateMutability":"nonpayable"},{"type":"function","name":"setBackgroundColor","inputs":[{"name":"_chonkTokenId","type":"uint256","internalType":"uint256"},{"name":"_color","type":"string","internalType":"string"}],"outputs":[],"stateMutability":"nonpayable"},{"type":"function","name":"setBodyIndex","inputs":[{"name":"_chonkTokenId","type":"uint256","internalType":"uint256"},{"name":"_bodyIndex","type":"uint8","internalType":"uint8"}],"outputs":[],"stateMutability":"nonpayable"},{"type":"function","name":"setChonksCreatorListMerkleRoot","inputs":[{"name":"_merkleRoot","type":"bytes32","internalType":"bytes32"}],"outputs":[],"stateMutability":"nonpayable"},{"type":"function","name":"setFirstSeasonRenderMinter","inputs":[{"name":"_dataContract","type":"address","internalType":"address"}],"outputs":[],"stateMutability":"nonpayable"},{"type":"function","name":"setFriendsListMerkleRoot","inputs":[{"name":"_merkleRoot","type":"bytes32","internalType":"bytes32"}],"outputs":[],"stateMutability":"nonpayable"},{"type":"function","name":"setMainRenderer2D","inputs":[{"name":"_mainRenderer2D","type":"address","internalType":"address"}],"outputs":[],"stateMutability":"nonpayable"},{"type":"function","name":"setMainRenderer3D","inputs":[{"name":"_mainRenderer3D","type":"address","internalType":"address"}],"outputs":[],"stateMutability":"nonpayable"},{"type":"function","name":"setMarketplace","inputs":[{"name":"_marketplace","type":"address","internalType":"address"}],"outputs":[],"stateMutability":"nonpayable"},{"type":"function","name":"setMaxTraitsToOutput","inputs":[{"name":"_maxTraitsToOutput","type":"uint256","internalType":"uint256"}],"outputs":[],"stateMutability":"nonpayable"},{"type":"function","name":"setMintStartTime","inputs":[{"name":"_mintStartTime","type":"uint256","internalType":"uint256"}],"outputs":[],"stateMutability":"nonpayable"},{"type":"function","name":"setPrice","inputs":[{"name":"_priceInWei","type":"uint256","internalType":"uint256"}],"outputs":[],"stateMutability":"nonpayable"},{"type":"function","name":"setSpecialCollectionMerkleRoot","inputs":[{"name":"_merkleRoot","type":"bytes32","internalType":"bytes32"}],"outputs":[],"stateMutability":"nonpayable"},{"type":"function","name":"setTokenRender3D","inputs":[{"name":"_chonkTokenId","type":"uint256","internalType":"uint256"},{"name":"_render3D","type":"bool","internalType":"bool"}],"outputs":[],"stateMutability":"nonpayable"},{"type":"function","name":"setTraitsContract","inputs":[{"name":"_address","type":"address","internalType":"contract ChonkTraits"}],"outputs":[],"stateMutability":"nonpayable"},{"type":"function","name":"setWithdrawAddress","inputs":[{"name":"_withdrawAddress","type":"address","internalType":"address"}],"outputs":[],"stateMutability":"nonpayable"},{"type":"function","name":"specialCollectionMerkleRoot","inputs":[],"outputs":[{"name":"","type":"bytes32","internalType":"bytes32"}],"stateMutability":"view"},{"type":"function","name":"supportsInterface","inputs":[{"name":"interfaceId","type":"bytes4","internalType":"bytes4"}],"outputs":[{"name":"","type":"bool","internalType":"bool"}],"stateMutability":"view"},{"type":"function","name":"symbol","inputs":[],"outputs":[{"name":"","type":"string","internalType":"string"}],"stateMutability":"view"},{"type":"function","name":"tbaAddressToTokenId","inputs":[{"name":"","type":"address","internalType":"address"}],"outputs":[{"name":"","type":"uint256","internalType":"uint256"}],"stateMutability":"view"},{"type":"function","name":"teamMint","inputs":[{"name":"_to","type":"address","internalType":"address"},{"name":"_amount","type":"uint256","internalType":"uint256"},{"name":"_traitCount","type":"uint8","internalType":"uint8"}],"outputs":[],"stateMutability":"nonpayable"},{"type":"function","name":"teamReserve","inputs":[],"outputs":[],"stateMutability":"nonpayable"},{"type":"function","name":"tokenByIndex","inputs":[{"name":"index","type":"uint256","internalType":"uint256"}],"outputs":[{"name":"","type":"uint256","internalType":"uint256"}],"stateMutability":"view"},{"type":"function","name":"tokenIdToTBAAccountAddress","inputs":[{"name":"","type":"uint256","internalType":"uint256"}],"outputs":[{"name":"","type":"address","internalType":"address"}],"stateMutability":"view"},{"type":"function","name":"tokenOfOwnerByIndex","inputs":[{"name":"owner","type":"address","internalType":"address"},{"name":"index","type":"uint256","internalType":"uint256"}],"outputs":[{"name":"","type":"uint256","internalType":"uint256"}],"stateMutability":"view"},{"type":"function","name":"tokenURI","inputs":[{"name":"_tokenId","type":"uint256","internalType":"uint256"}],"outputs":[{"name":"","type":"string","internalType":"string"}],"stateMutability":"view"},{"type":"function","name":"totalSupply","inputs":[],"outputs":[{"name":"","type":"uint256","internalType":"uint256"}],"stateMutability":"view"},{"type":"function","name":"traitsContract","inputs":[],"outputs":[{"name":"","type":"address","internalType":"contract ChonkTraits"}],"stateMutability":"view"},{"type":"function","name":"transferFrom","inputs":[{"name":"from","type":"address","internalType":"address"},{"name":"to","type":"address","internalType":"address"},{"name":"tokenId","type":"uint256","internalType":"uint256"}],"outputs":[],"stateMutability":"nonpayable"},{"type":"function","name":"transferOwnership","inputs":[{"name":"newOwner","type":"address","internalType":"address"}],"outputs":[],"stateMutability":"payable"},{"type":"function","name":"unequip","inputs":[{"name":"_chonkTokenId","type":"uint256","internalType":"uint256"},{"name":"traitType","type":"uint8","internalType":"enum TraitCategory.Name"}],"outputs":[],"stateMutability":"nonpayable"},{"type":"function","name":"unequipAll","inputs":[{"name":"_chonkTokenId","type":"uint256","internalType":"uint256"}],"outputs":[],"stateMutability":"nonpayable"},{"type":"function","name":"walletOfOwner","inputs":[{"name":"_owner","type":"address","internalType":"address"}],"outputs":[{"name":"","type":"uint256[]","internalType":"uint256[]"}],"stateMutability":"view"},{"type":"function","name":"withdraw","inputs":[],"outputs":[],"stateMutability":"nonpayable"},{"type":"function","name":"withdrawAddress","inputs":[],"outputs":[{"name":"","type":"address","internalType":"address"}],"stateMutability":"view"},{"type":"event","name":"Approval","inputs":[{"name":"owner","type":"address","indexed":true,"internalType":"address"},{"name":"approved","type":"address","indexed":true,"internalType":"address"},{"name":"tokenId","type":"uint256","indexed":true,"internalType":"uint256"}],"anonymous":false},{"type":"event","name":"ApprovalForAll","inputs":[{"name":"owner","type":"address","indexed":true,"internalType":"address"},{"name":"operator","type":"address","indexed":true,"internalType":"address"},{"name":"approved","type":"bool","indexed":false,"internalType":"bool"}],"anonymous":false},{"type":"event","name":"BackgroundColor","inputs":[{"name":"owner","type":"address","indexed":true,"internalType":"address"},{"name":"tokenId","type":"uint256","indexed":true,"internalType":"uint256"},{"name":"color","type":"string","indexed":false,"internalType":"string"}],"anonymous":false},{"type":"event","name":"BatchMetadataUpdate","inputs":[{"name":"_fromTokenId","type":"uint256","indexed":false,"internalType":"uint256"},{"name":"_toTokenId","type":"uint256","indexed":false,"internalType":"uint256"}],"anonymous":false},{"type":"event","name":"BodyIndex","inputs":[{"name":"owner","type":"address","indexed":true,"internalType":"address"},{"name":"tokenId","type":"uint256","indexed":true,"internalType":"uint256"},{"name":"_bodyIndex","type":"uint8","indexed":false,"internalType":"uint8"}],"anonymous":false},{"type":"event","name":"Equip","inputs":[{"name":"owner","type":"address","indexed":true,"internalType":"address"},{"name":"tokenId","type":"uint256","indexed":true,"internalType":"uint256"},{"name":"traitTokenId","type":"uint256","indexed":true,"internalType":"uint256"},{"name":"traitCategory","type":"uint8","indexed":false,"internalType":"uint8"}],"anonymous":false},{"type":"event","name":"EquipAll","inputs":[{"name":"owner","type":"address","indexed":true,"internalType":"address"},{"name":"tokenId","type":"uint256","indexed":true,"internalType":"uint256"}],"anonymous":false},{"type":"event","name":"MetadataUpdate","inputs":[{"name":"_tokenId","type":"uint256","indexed":false,"internalType":"uint256"}],"anonymous":false},{"type":"event","name":"Mint","inputs":[{"name":"owner","type":"address","indexed":true,"internalType":"address"},{"name":"tokenId","type":"uint256","indexed":true,"internalType":"uint256"}],"anonymous":false},{"type":"event","name":"OwnershipHandoverCanceled","inputs":[{"name":"pendingOwner","type":"address","indexed":true,"internalType":"address"}],"anonymous":false},{"type":"event","name":"OwnershipHandoverRequested","inputs":[{"name":"pendingOwner","type":"address","indexed":true,"internalType":"address"}],"anonymous":false},{"type":"event","name":"OwnershipTransferred","inputs":[{"name":"oldOwner","type":"address","indexed":true,"internalType":"address"},{"name":"newOwner","type":"address","indexed":true,"internalType":"address"}],"anonymous":false},{"type":"event","name":"Render3D","inputs":[{"name":"owner","type":"address","indexed":true,"internalType":"address"},{"name":"tokenId","type":"uint256","indexed":true,"internalType":"uint256"},{"name":"renderZ","type":"bool","indexed":false,"internalType":"bool"}],"anonymous":false},{"type":"event","name":"Transfer","inputs":[{"name":"from","type":"address","indexed":true,"internalType":"address"},{"name":"to","type":"address","indexed":true,"internalType":"address"},{"name":"tokenId","type":"uint256","indexed":true,"internalType":"uint256"}],"anonymous":false},{"type":"event","name":"Unequip","inputs":[{"name":"owner","type":"address","indexed":true,"internalType":"address"},{"name":"tokenId","type":"uint256","indexed":true,"internalType":"uint256"},{"name":"traitCategory","type":"uint8","indexed":false,"internalType":"uint8"}],"anonymous":false},{"type":"event","name":"UnequipAll","inputs":[{"name":"owner","type":"address","indexed":true,"internalType":"address"},{"name":"tokenId","type":"uint256","indexed":true,"internalType":"uint256"}],"anonymous":false},{"type":"error","name":"AlreadyInitialized","inputs":[]},{"type":"error","name":"BodyAlreadyExists","inputs":[]},{"type":"error","name":"CanOnlyReserveFirstTwo","inputs":[]},{"type":"error","name":"CantBeZero","inputs":[]},{"type":"error","name":"CantTransfer","inputs":[]},{"type":"error","name":"CantTransferToTBAs","inputs":[]},{"type":"error","name":"ChonkDoesntExist","inputs":[]},{"type":"error","name":"FirstSeasonRenderMinterNotSet","inputs":[]},{"type":"error","name":"IncorrectChonkOwner","inputs":[]},{"type":"error","name":"IncorrectTBAOwner","inputs":[]},{"type":"error","name":"IncorrectTraitType","inputs":[]},{"type":"error","name":"InsufficientFunds","inputs":[]},{"type":"error","name":"InvalidBodyIndex","inputs":[]},{"type":"error","name":"InvalidColor","inputs":[]},{"type":"error","name":"InvalidLevelAmount","inputs":[]},{"type":"error","name":"InvalidSignature","inputs":[]},{"type":"error","name":"InvalidTraitCount","inputs":[]},{"type":"error","name":"MintEnded","inputs":[]},{"type":"error","name":"MintNotStarted","inputs":[]},{"type":"error","name":"NewOwnerIsZeroAddress","inputs":[]},{"type":"error","name":"NoHandoverRequest","inputs":[]},{"type":"error","name":"NonceAlreadyUsed","inputs":[]},{"type":"error","name":"TenIsMaxMint","inputs":[]},{"type":"error","name":"Timelocked","inputs":[]},{"type":"error","name":"Unauthorized","inputs":[]},{"type":"error","name":"UseUnequip","inputs":[]},{"type":"error","name":"WithdrawFailed","inputs":[]}],"bytecode":{"object":"0x60a060405260636015553480156200001657600080fd5b50604051620062e8380380620062e8833981016040819052620000399162000101565b6040518060400160405280600681526020016543686f6e6b7360d01b8152506040518060400160405280600681526020016543484f4e4b5360d01b8152508160009081620000889190620001d3565b506001620000978282620001d3565b50506001600a5550620000aa33620000c5565b42608052600b805460ff19169115159190911790556200029f565b6001600160a01b0316638b78c6d8198190558060007f8be0079c531659141344cd1fd0a4f28419497f9722a3daafe3b4186f6b6457e08180a350565b6000602082840312156200011457600080fd5b815180151581146200012557600080fd5b9392505050565b634e487b7160e01b600052604160045260246000fd5b600181811c908216806200015757607f821691505b6020821081036200017857634e487b7160e01b600052602260045260246000fd5b50919050565b601f821115620001ce576000816000526020600020601f850160051c81016020861015620001a95750805b601f850160051c820191505b81811015620001ca57828155600101620001b5565b5050505b505050565b81516001600160401b03811115620001ef57620001ef6200012c565b620002078162000200845462000142565b846200017e565b602080601f8311600181146200023f5760008415620002265750858301515b600019600386901b1c1916600185901b178555620001ca565b600085815260208120601f198616915b8281101562000270578886015182559484019460019091019084016200024f565b50858210156200028f5787850151600019600388901b60f8161c191681555b5050505050600190811b01905550565b608051616026620002c260003960008181610f7601526130a601526160266000f3fe6080604052600436106104d55760003560e01c80638200ea5111610281578063ba41b0c61161015a578063e1405540116100cc578063f2361e2311610085578063f2361e2314610fab578063f2fde38b14610fcb578063f3f8efb914610fde578063f4bec0b614610ffe578063f6a0c9321461101e578063fee81cf41461105457600080fd5b8063e140554014610ec5578063e29babbb14610ee5578063e3d2155514610f05578063e985e9c514610f1b578063ecda10f514610f64578063f04e283e14610f9857600080fd5b8063d3d6873e1161011e578063d3d6873e14610e0d578063d59752eb14610e3a578063d5b3621b14610e4f578063d68c4f3214610e6f578063dceef0ec14610e8f578063deab1d3614610eaf57600080fd5b8063ba41b0c614610d7a578063bef1dfb714610d8d578063c093afdb14610dad578063c87b56dd14610dcd578063cdb6dd5c14610ded57600080fd5b80639c7be2f1116101f3578063a23830ae116101b7578063a23830ae14610c9f578063a4bf9a0014610ccd578063abc8c7af14610cfa578063b66ef6e314610d1a578063b88d4fde14610d3a578063b99ce71f14610d5a57600080fd5b80639c7be2f114610c145780639f6e463714610c29578063a035b1fe14610c49578063a1d6268014610c5f578063a22cb46514610c7f57600080fd5b8063916c546b11610245578063916c546b14610b4457806391b7f5ed14610b6457806392012f0814610b84578063931e2e4914610bb357806395d89b4114610bc95780639c05d68d14610bde57600080fd5b80638200ea5114610a8c5780638472cbca14610abf5780638aa1e4c814610af55780638da5cb5b14610b155780638f22475714610b2e57600080fd5b80633ccfd60b116103b357806358a97640116103255780636e51665f116102e95780636e51665f146109ee57806370a0823114610a0e578063715018a614610a2e57806373ad6c2d14610a365780637684ef0d14610a565780637e2e6c4714610a6c57600080fd5b806358a976401461090c5780635eabd84a1461092c5780636352211e1461094c578063667043491461096c57806367d2afe2146109c157600080fd5b80634a60f620116103775780634a60f620146108795780634f6ccce71461088f57806350b03146146108af57806354d1f13d146108c4578063550ab247146108cc57806355737f35146108ec57600080fd5b80633ccfd60b146107e257806342842e0e146107f75780634287f14a14610817578063438b63001461082c5780634a4333a31461085957600080fd5b80631ab375121161044c5780633044825b116104105780633044825b14610722578063306c73341461074257806330f6c5211461076257806332875aa01461078257806333d3d9bf146107a25780633ab1a494146107c257600080fd5b80631ab375121461069a57806323b872dd146106ba57806325692962146106da57806328257532146106e25780632f745c591461070257600080fd5b8063095ea7b31161049e578063095ea7b3146105cb5780630c83f9d7146105eb57806313ea0ae31461061b57806314fe8ff41461063b5780631581b6001461065b57806318160ddd1461067b57600080fd5b8062179206146104da57806301ffc9a7146104fc57806304003bd01461053157806306fdde0314610571578063081812fc14610593575b600080fd5b3480156104e657600080fd5b506104fa6104f5366004614e9b565b611087565b005b34801561050857600080fd5b5061051c610517366004614ece565b6110d7565b60405190151581526020015b60405180910390f35b34801561053d57600080fd5b5061055161054c366004614eeb565b6110e8565b604080516001600160a01b03938416815292909116602083015201610528565b34801561057d57600080fd5b50610586611117565b6040516105289190614f54565b34801561059f57600080fd5b506105b36105ae366004614eeb565b6111a9565b6040516001600160a01b039091168152602001610528565b3480156105d757600080fd5b506104fa6105e6366004614f67565b6111d0565b3480156105f757600080fd5b5061060b610606366004614eeb565b611221565b6040516105289493929190614f93565b34801561062757600080fd5b506012546105b3906001600160a01b031681565b34801561064757600080fd5b50610586610656366004614eeb565b6113e2565b34801561066757600080fd5b506017546105b3906001600160a01b031681565b34801561068757600080fd5b506008545b604051908152602001610528565b3480156106a657600080fd5b506104fa6106b5366004614eeb565b611626565b3480156106c657600080fd5b506104fa6106d5366004614fdd565b611633565b6104fa611672565b3480156106ee57600080fd5b506104fa6106fd36600461501e565b6116c1565b34801561070e57600080fd5b5061068c61071d366004614f67565b6118ba565b34801561072e57600080fd5b506104fa61073d366004614eeb565b611950565b34801561074e57600080fd5b5061058661075d366004614eeb565b611a0b565b34801561076e57600080fd5b506104fa61077d366004615142565b611a2e565b34801561078e57600080fd5b5061058661079d366004614eeb565b611a9a565b3480156107ae57600080fd5b506104fa6107bd366004614eeb565b611b5e565b3480156107ce57600080fd5b506104fa6107dd366004614e9b565b611b6b565b3480156107ee57600080fd5b506104fa611b95565b34801561080357600080fd5b506104fa610812366004614fdd565b611c14565b34801561082357600080fd5b506104fa611c2f565b34801561083857600080fd5b5061084c610847366004614e9b565b611c70565b60405161052891906151de565b34801561086557600080fd5b506104fa610874366004615222565b611d07565b34801561088557600080fd5b5061068c60165481565b34801561089b57600080fd5b5061068c6108aa366004614eeb565b612022565b3480156108bb57600080fd5b5061051c6120b5565b6104fa6120c6565b3480156108d857600080fd5b506104fa6108e7366004615287565b612102565b3480156108f857600080fd5b506105b361090736600461501e565b612158565b34801561091857600080fd5b506104fa610927366004614e9b565b612190565b34801561093857600080fd5b506104fa610947366004614e9b565b6121e0565b34801561095857600080fd5b506105b3610967366004614eeb565b612230565b34801561097857600080fd5b5061098c610987366004614eeb565b612290565b60405161052894939291906001600160a01b039485168152602081019390935292166040820152901515606082015260800190565b3480156109cd57600080fd5b506109e16109dc366004614eeb565b612342565b604051610528919061530a565b3480156109fa57600080fd5b506104fa610a0936600461531d565b6123ae565b348015610a1a57600080fd5b5061068c610a29366004614e9b565b612452565b6104fa6124d8565b348015610a4257600080fd5b506104fa610a51366004614e9b565b6124ea565b348015610a6257600080fd5b5061068c601f5481565b348015610a7857600080fd5b506104fa610a87366004614e9b565b61253a565b348015610a9857600080fd5b5061051c610aa7366004614eeb565b6000908152600c60205260409020600b015460ff1690565b348015610acb57600080fd5b5061068c610ada366004614e9b565b6001600160a01b03166000908152601b602052604090205490565b348015610b0157600080fd5b5061051c610b1036600461501e565b61258a565b348015610b2157600080fd5b50638b78c6d819546105b3565b348015610b3a57600080fd5b5061068c601e5481565b348015610b5057600080fd5b50610586610b5f366004614eeb565b6125f9565b348015610b7057600080fd5b506104fa610b7f366004614eeb565b6126fc565b348015610b9057600080fd5b50610ba4610b9f366004615366565b612709565b6040516105289392919061545f565b348015610bbf57600080fd5b5061068c60195481565b348015610bd557600080fd5b5061058661285a565b348015610bea57600080fd5b506105b3610bf9366004614eeb565b601a602052600090815260409020546001600160a01b031681565b348015610c2057600080fd5b506104fa612869565b348015610c3557600080fd5b5061084c610c44366004614eeb565b612896565b348015610c5557600080fd5b5061068c60185481565b348015610c6b57600080fd5b50610586610c7a366004614eeb565b612925565b348015610c8b57600080fd5b506104fa610c9a366004615498565b612955565b348015610cab57600080fd5b50610cbf610cba366004615366565b6129ce565b6040516105289291906154cd565b348015610cd957600080fd5b5061068c610ce8366004614e9b565b601b6020526000908152604090205481565b348015610d0657600080fd5b506011546105b3906001600160a01b031681565b348015610d2657600080fd5b506014546105b3906001600160a01b031681565b348015610d4657600080fd5b506104fa610d553660046154fb565b612a7c565b348015610d6657600080fd5b506104fa610d75366004614eeb565b612aae565b6104fa610d88366004615589565b612abb565b348015610d9957600080fd5b506104fa610da8366004615625565b612c46565b348015610db957600080fd5b506010546105b3906001600160a01b031681565b348015610dd957600080fd5b50610586610de8366004614eeb565b612cf1565b348015610df957600080fd5b506104fa610e08366004615655565b612d32565b348015610e1957600080fd5b50610e2d610e28366004614eeb565b612ef6565b6040516105289190615685565b348015610e4657600080fd5b5061068c61309f565b348015610e5b57600080fd5b506104fa610e6a366004614eeb565b6130d4565b348015610e7b57600080fd5b506104fa610e8a36600461573c565b6130e1565b348015610e9b57600080fd5b50610586610eaa366004614eeb565b6132fa565b348015610ebb57600080fd5b5061068c601d5481565b348015610ed157600080fd5b506104fa610ee0366004615782565b6135a0565b348015610ef157600080fd5b506104fa610f00366004614eeb565b613668565b348015610f1157600080fd5b5061068c60155481565b348015610f2757600080fd5b5061051c610f363660046157a5565b6001600160a01b03918216600090815260056020908152604080832093909416825291909152205460ff1690565b348015610f7057600080fd5b5061068c7f000000000000000000000000000000000000000000000000000000000000000081565b6104fa610fa6366004614e9b565b613675565b348015610fb757600080fd5b506104fa610fc63660046157d3565b6136b2565b6104fa610fd9366004614e9b565b613725565b348015610fea57600080fd5b50610586610ff9366004614eeb565b61374c565b34801561100a57600080fd5b506013546105b3906001600160a01b031681565b34801561102a57600080fd5b506105b3611039366004614eeb565b6000908152601a60205260409020546001600160a01b031690565b34801561106057600080fd5b5061068c61106f366004614e9b565b63389a75e1600c908152600091909152602090205490565b61108f6139cd565b6110976120b5565b156110b55760405163774ae17d60e01b815260040160405180910390fd5b601480546001600160a01b0319166001600160a01b0392909216919091179055565b60006110e2826139e8565b92915050565b6000806110f483612230565b6000938452601a60205260409093205492936001600160a01b0390931692915050565b60606000805461112690615858565b80601f016020809104026020016040519081016040528092919081815260200182805461115290615858565b801561119f5780601f106111745761010080835404028352916020019161119f565b820191906000526020600020905b81548152906001019060200180831161118257829003601f168201915b5050505050905090565b60006111b482613a0d565b506000908152600460205260409020546001600160a01b031690565b6111d981612230565b6001600160a01b0316336001600160a01b031614611209576040516282b42960e81b815260040160405180910390fd5b6112138183613a6c565b61121d8282613aab565b5050565b600f602052600090815260409020805460018201805491929161124390615858565b80601f016020809104026020016040519081016040528092919081815260200182805461126f90615858565b80156112bc5780601f10611291576101008083540402835291602001916112bc565b820191906000526020600020905b81548152906001019060200180831161129f57829003601f168201915b5050505050908060020180546112d190615858565b80601f01602080910402602001604051908101604052809291908181526020018280546112fd90615858565b801561134a5780601f1061131f5761010080835404028352916020019161134a565b820191906000526020600020905b81548152906001019060200180831161132d57829003601f168201915b50505050509080600301805461135f90615858565b80601f016020809104026020016040519081016040528092919081815260200182805461138b90615858565b80156113d85780601f106113ad576101008083540402835291602001916113d8565b820191906000526020600020905b8154815290600101906020018083116113bb57829003601f168201915b5050505050905084565b606060006113ef83612896565b90506000601060009054906101000a90046001600160a01b03166001600160a01b0316635c1ef2566040518163ffffffff1660e01b8152600401600060405180830381865afa158015611446573d6000803e3d6000fd5b505050506040513d6000823e601f3d908101601f1916820160405261146e91908101906158d7565b9050600060155483511061148457601554611487565b82515b90506000816001600160401b038111156114a3576114a3615056565b6040519080825280602002602001820160405280156114d657816020015b60608152602001906001900390816114c15790505b50905060005b8281101561159d5760105485516001600160a01b039091169063c77915319087908490811061150d5761150d61590b565b60200260200101516040518263ffffffff1660e01b815260040161153391815260200190565b600060405180830381865afa158015611550573d6000803e3d6000fd5b505050506040513d6000823e601f3d908101601f1916820160405261157891908101906158d7565b82828151811061158a5761158a61590b565b60209081029190910101526001016114dc565b506013548451601554604051631719ff8760e11b81526001600160a01b0390931692632e33ff0e926115d792889287929190600401615921565b600060405180830381865afa1580156115f4573d6000803e3d6000fd5b505050506040513d6000823e601f3d908101601f1916820160405261161c91908101906158d7565b9695505050505050565b61162e6139cd565b601e55565b61163d3382613b19565b6116625760405162461bcd60e51b8152600401611659906159a2565b60405180910390fd5b61166d838383613b97565b505050565b60006202a3006001600160401b03164201905063389a75e1600c5233600052806020600c2055337fdbf36a107da19e49527a7176a1babf963b4b0ff8cde35ee35d6cd8f1f9ac7e1d600080a250565b816116cb81612230565b6001600160a01b0316336001600160a01b0316146116fc57604051631431735b60e21b815260040160405180910390fd5b8160000361171d57604051630754c7f360e41b815260040160405180910390fd5b60006117298484613d44565b9050600181600781111561173f5761173f6159f0565b03611756576000848152600c602052604090208390555b600281600781111561176a5761176a6159f0565b03611784576000848152600c602052604090206001018390555b6003816007811115611798576117986159f0565b036117b2576000848152600c602052604090206002018390555b60048160078111156117c6576117c66159f0565b036117e0576000848152600c602052604090206003018390555b60058160078111156117f4576117f46159f0565b0361180e576000848152600c602052604090206004018390555b6006816007811115611822576118226159f0565b0361183c576000848152600c602052604090206005018390555b6007816007811115611850576118506159f0565b0361186a576000848152600c602052604090206006018390555b828461187586612230565b6001600160a01b0316600080516020615fd183398151915284600781111561189f5761189f6159f0565b60405160ff909116815260200160405180910390a450505050565b60006118c583612452565b82106119275760405162461bcd60e51b815260206004820152602b60248201527f455243373231456e756d657261626c653a206f776e657220696e646578206f7560448201526a74206f6620626f756e647360a81b6064820152608401611659565b506001600160a01b03919091166000908152600660209081526040808320938352929052205490565b8061195a81612230565b6001600160a01b0316336001600160a01b03161461198b57604051631431735b60e21b815260040160405180910390fd5b6000828152600c6020526040812081815560018101829055600281018290556003810182905560048101829055600581018290556006810191909155826119d181612230565b6001600160a01b03167f46078a2cd4c69c3b4a27bdc69fdfe03d442ebcf405f1a68e9b5df6bc3e24429760405160405180910390a3505050565b6060806000611a1984612ef6565b9050611a2481612709565b5095945050505050565b89611a3881612230565b6001600160a01b0316336001600160a01b031614611a6957604051631431735b60e21b815260040160405180910390fd5b611a798b8b8b8b8b8b8b8b611d07565b611a838b846135a0565b611a8d8b836130e1565b5050505050505050505050565b60608060606000611aaa85612ef6565b9050611ab581612709565b5060105460405163bb12d21d60e01b81529195506001600160a01b0316915063bb12d21d90611ae8908490600401615685565b600060405180830381865afa158015611b05573d6000803e3d6000fd5b505050506040513d6000823e601f3d908101601f19168201604052611b2d9190810190615a06565b50604051909350611b45915084908490602001615a8d565b6040516020818303038152906040529350505050919050565b611b666139cd565b601555565b611b736139cd565b601780546001600160a01b0319166001600160a01b0392909216919091179055565b611b9d6139cd565b6017546040516000916001600160a01b03169047908381818185875af1925050503d8060008114611bea576040519150601f19603f3d011682016040523d82523d6000602084013e611bef565b606091505b5050905080611c1157604051631d42c86760e21b815260040160405180910390fd5b50565b61166d83838360405180602001604052806000815250612a7c565b611c376139cd565b6002611c4260085490565b1115611c615760405163155b299760e31b815260040160405180910390fd5b611c6e3360026007613dc9565b565b60606000611c7d83612452565b90506000816001600160401b03811115611c9957611c99615056565b604051908082528060200260200182016040528015611cc2578160200160208202803683370190505b50905060005b82811015611cff57611cda85826118ba565b828281518110611cec57611cec61590b565b6020908102919091010152600101611cc8565b509392505050565b87611d1181612230565b6001600160a01b0316336001600160a01b031614611d4257604051631431735b60e21b815260040160405180910390fd5b6000898152600c602052604090208815611da957611d608a8a6140e9565b611d6b8960016141e1565b888155888a611d7981612230565b6001600160a01b0316600080516020615fd1833981519152600160405160ff909116815260200160405180910390a45b8715611e0657611db98a896140e9565b611dc48860026141e1565b60018101889055878a611dd681612230565b6001600160a01b0316600080516020615fd1833981519152600260405160ff909116815260200160405180910390a45b8615611e6357611e168a886140e9565b611e218760036141e1565b60028101879055868a611e3381612230565b6001600160a01b0316600080516020615fd1833981519152600360405160ff909116815260200160405180910390a45b8515611ec057611e738a876140e9565b611e7e8660046141e1565b60038101869055858a611e9081612230565b6001600160a01b0316600080516020615fd1833981519152600460405160ff909116815260200160405180910390a45b8415611f1d57611ed08a866140e9565b611edb8560056141e1565b60048101859055848a611eed81612230565b6001600160a01b0316600080516020615fd1833981519152600560405160ff909116815260200160405180910390a45b8315611f7a57611f2d8a856140e9565b611f388460066141e1565b60058101849055838a611f4a81612230565b6001600160a01b0316600080516020615fd1833981519152600660405160ff909116815260200160405180910390a45b8215611fd757611f8a8a846140e9565b611f958360076141e1565b60068101839055828a611fa781612230565b6001600160a01b0316600080516020615fd1833981519152600760405160ff909116815260200160405180910390a45b89611fe18b612230565b6001600160a01b03167f56680590212b09eb4b72a2eba8801b037ec046dfc754538e924f5bb6a8c4db6c60405160405180910390a350505050505050505050565b600061202d60085490565b82106120905760405162461bcd60e51b815260206004820152602c60248201527f455243373231456e756d657261626c653a20676c6f62616c20696e646578206f60448201526b7574206f6620626f756e647360a01b6064820152608401611659565b600882815481106120a3576120a361590b565b90600052602060002001549050919050565b60006120bf61309f565b4211905090565b63389a75e1600c523360005260006020600c2055337ffa7b8eab7da67f412cc9575ed43464468f9bfbae89d1675917346ca6d8fe3c92600080a2565b600061210d84612230565b90506001600160a01b0381163314612137576040516282b42960e81b815260040160405180910390fd5b8115612147576121478484613a6c565b6121528184846142e3565b50505050565b601c602052816000526040600020818154811061217457600080fd5b6000918252602090912001546001600160a01b03169150829050565b6121986139cd565b6121a06120b5565b156121be5760405163774ae17d60e01b815260040160405180910390fd5b601280546001600160a01b0319166001600160a01b0392909216919091179055565b6121e86139cd565b6121f06120b5565b1561220e5760405163774ae17d60e01b815260040160405180910390fd5b601080546001600160a01b0319166001600160a01b0392909216919091179055565b6000818152600260205260408120546001600160a01b0316806110e25760405162461bcd60e51b8152602060048201526018602482015277115490cdcc8c4e881a5b9d985b1a59081d1bdad95b88125160421b6044820152606401611659565b6010546040516331a9108f60e11b8152600481018390526000918291829182916001600160a01b0390911690636352211e90602401602060405180830381865afa1580156122e2573d6000803e3d6000fd5b505050506040513d601f19601f820116820180604052508101906123069190615abc565b6001600160a01b0381166000908152601b6020526040902054909450925061232d83612230565b9150612339838661258a565b90509193509193565b6000818152601c60209081526040918290208054835181840281018401909452808452606093928301828280156123a257602002820191906000526020600020905b81546001600160a01b03168152600190910190602001808311612384575b50505050509050919050565b6123b66139cd565b60048160ff1610806123cb575060078160ff16115b156123e957604051632258debf60e01b815260040160405180910390fd5b60195415806123f9575060195442105b1561241757604051630314872760e11b815260040160405180910390fd5b6019546124279062016da0615aef565b4211156124475760405163124212e560e21b815260040160405180910390fd5b61166d838383613dc9565b60006001600160a01b0382166124bc5760405162461bcd60e51b815260206004820152602960248201527f4552433732313a2061646472657373207a65726f206973206e6f7420612076616044820152683634b21037bbb732b960b91b6064820152608401611659565b506001600160a01b031660009081526003602052604090205490565b6124e06139cd565b611c6e60006143a9565b6124f26139cd565b6124fa6120b5565b156125185760405163774ae17d60e01b815260040160405180910390fd5b601180546001600160a01b0319166001600160a01b0392909216919091179055565b6125426139cd565b61254a6120b5565b156125685760405163774ae17d60e01b815260040160405180910390fd5b601380546001600160a01b0319166001600160a01b0392909216919091179055565b60008061259684612ef6565b80519091508314806125ab5750828160200151145b806125b95750828160400151145b806125c75750828160600151145b806125d55750828160800151145b806125e35750828160a00151145b806125f15750828160c00151145b949350505050565b6013546000828152600f602052604080822090516371bed9e160e11b81526060936001600160a01b03169163e37db3c29161263a9160020190600401615b7f565b600060405180830381865afa158015612657573d6000803e3d6000fd5b505050506040513d6000823e601f3d908101601f1916820160405261267f91908101906158d7565b6013546040516335b07b7960e11b81529192506001600160a01b031690636b60f6f2906126b0908490600401614f54565b600060405180830381865afa1580156126cd573d6000803e3d6000fd5b505050506040513d6000823e601f3d908101601f191682016040526126f591908101906158d7565b9392505050565b6127046139cd565b601855565b606080606061271f84610120015160ff166125f9565b6101208501805160ff9081166000908152600f602052604080822060135494519093168252908190209051630d88d4ff60e01b81526003909201926001600160a01b031691630d88d4ff9161277c91600190910190600401615b92565b600060405180830381865afa158015612799573d6000803e3d6000fd5b505050506040513d6000823e601f3d908101601f191682016040526127c191908101906158d7565b8180546127cd90615858565b80601f01602080910402602001604051908101604052809291908181526020018280546127f990615858565b80156128465780601f1061281b57610100808354040283529160200191612846565b820191906000526020600020905b81548152906001019060200180831161282957829003601f168201915b505050505091509250925092509193909250565b60606001805461112690615858565b600b5460ff1615611c6e5760005b600a811015611c1157606061288d600482612abb565b50600101612877565b6000818152601a6020526040812054606091906001600160a01b031660105460405162438b6360e81b81526001600160a01b03808416600483015292935091169063438b630090602401600060405180830381865afa1580156128fd573d6000803e3d6000fd5b505050506040513d6000823e601f3d908101601f191682016040526126f59190810190615bc5565b6060600061293283612ef6565b905080610160015161294c576129478361374c565b6126f5565b6126f5836132fa565b80156129c357600061296633611c70565b90508051600003612989576040516282b42960e81b815260040160405180910390fd5b60005b81518110156129c0576129b88282815181106129aa576129aa61590b565b602002602001015185613a6c565b60010161298c565b50505b61121d3383836142e3565b6060806129e283610120015160ff166125f9565b60135461012085015160ff166000908152600f6020526040908190209051630d88d4ff60e01b81526001600160a01b0390921691630d88d4ff91612a2e91600190910190600401615b92565b600060405180830381865afa158015612a4b573d6000803e3d6000fd5b505050506040513d6000823e601f3d908101601f19168201604052612a7391908101906158d7565b91509150915091565b612a863383613b19565b612aa25760405162461bcd60e51b8152600401611659906159a2565b612152848484846143e7565b612ab66139cd565b601f55565b6012546001600160a01b0316612ae457604051633390ca8960e21b815260040160405180910390fd5b81600003612b055760405163e7195f5160e01b815260040160405180910390fd5b600a821115612b2757604051634b70da3960e01b815260040160405180910390fd5b6019541580612b37575060195442105b15612b5557604051630314872760e11b815260040160405180910390fd5b601954612b659062015180615aef565b421115612b855760405163124212e560e21b815260040160405180910390fd5b81601854612b939190615c4a565b3414612bb25760405163356680b760e01b815260040160405180910390fd5b6040516bffffffffffffffffffffffff193360601b166020820152600490600090603401604051602081830303815290604052805190602001209050612bfb83601d548361441a565b15612c095760059150612c3b565b612c1683601e548361441a565b15612c245760069150612c3b565b612c3183601f548361441a565b15612c3b57600791505b612152338584613dc9565b81612c5081612230565b6001600160a01b0316336001600160a01b031614612c8157604051631431735b60e21b815260040160405180910390fd5b6000838152600c60205260409020600b01805460ff191683151517905582612ca881612230565b6001600160a01b03167f6dd9e2813f787f711671bf91b2e57a72b9b61bc279b934201f3fd29b3b5f8cbe84604051612ce4911515815260200190565b60405180910390a3505050565b6000818152600260205260409020546060906001600160a01b0316612d2957604051636461f73160e01b815260040160405180910390fd5b6110e282612925565b81612d3c81612230565b6001600160a01b0316336001600160a01b031614612d6d57604051631431735b60e21b815260040160405180910390fd5b6001826007811115612d8157612d816159f0565b03612d96576000838152600c60205260408120555b6002826007811115612daa57612daa6159f0565b03612dc2576000838152600c60205260408120600101555b6003826007811115612dd657612dd66159f0565b03612dee576000838152600c60205260408120600201555b6004826007811115612e0257612e026159f0565b03612e1a576000838152600c60205260408120600301555b6005826007811115612e2e57612e2e6159f0565b03612e46576000838152600c60205260408120600401555b6006826007811115612e5a57612e5a6159f0565b03612e72576000838152600c60205260408120600501555b6007826007811115612e8657612e866159f0565b03612e9e576000838152600c60205260408120600601555b82612ea884612230565b6001600160a01b03167f3d8ac56c725fc7985e9444622a45baee28ba67d8a964045f747b465121f40e71846007811115612ee457612ee46159f0565b60405160ff9091168152602001612ce4565b612f6560405180610180016040528060008152602001600081526020016000815260200160008152602001600081526020016000815260200160008152602001600063ffffffff16815260200160008152602001600060ff168152602001606081526020016000151581525090565b6000828152600c6020908152604091829020825161018081018452815481526001820154928101929092526002810154928201929092526003820154606082015260048201546080820152600582015460a0820152600682015460c0820152600782015463ffffffff1660e08201526008820154610100820152600982015460ff16610120820152600a820180549192916101408401919061300690615858565b80601f016020809104026020016040519081016040528092919081815260200182805461303290615858565b801561307f5780601f106130545761010080835404028352916020019161307f565b820191906000526020600020905b81548152906001019060200180831161306257829003601f168201915b5050509183525050600b919091015460ff16151560209091015292915050565b60006130cf7f00000000000000000000000000000000000000000000000000000000000000006301e13380615aef565b905090565b6130dc6139cd565b601955565b816130eb81612230565b6001600160a01b0316336001600160a01b03161461311c57604051631431735b60e21b815260040160405180910390fd5b8151829060061461314057604051631cf7e9c560e01b815260040160405180910390fd5b60005b600681101561328d57603060f81b8282815181106131635761316361590b565b01602001516001600160f81b031916108015906131a45750603960f81b8282815181106131925761319261590b565b01602001516001600160f81b03191611155b1580156132065750604160f81b8282815181106131c3576131c361590b565b01602001516001600160f81b031916108015906132045750604660f81b8282815181106131f2576131f261590b565b01602001516001600160f81b03191611155b155b80156132675750606160f81b8282815181106132245761322461590b565b01602001516001600160f81b031916108015906132655750606660f81b8282815181106132535761325361590b565b01602001516001600160f81b03191611155b155b1561328557604051631cf7e9c560e01b815260040160405180910390fd5b600101613143565b506000848152600c60205260409020600a016132a98482615ca9565b50836132b485612230565b6001600160a01b03167f2e34f8c0f6052b66319b4a5df14eac164c6af8a0b37f612d4304a777e1ae7a3d856040516132ec9190614f54565b60405180910390a350505050565b60608060608060608060606133306040518060800160405280606081526020016060815260200160608152602001600081525090565b600061333b8a612ef6565b905061334681612709565b5060105460405163bb12d21d60e01b8152929a509097506001600160a01b03169063bb12d21d9061337b908490600401615685565b600060405180830381865afa158015613398573d6000803e3d6000fd5b505050506040513d6000823e601f3d908101601f191682016040526133c09190810190615a06565b60405192995090965093506133db9087908790602001615a8d565b60408051601f19818403018152919052610140820151835293506133fe8a612896565b51606083015261012081015160ff166000908152600f60205260409020600101805461342990615858565b80601f016020809104026020016040519081016040528092919081815260200182805461345590615858565b80156134a25780601f10613477576101008083540402835291602001916134a2565b820191906000526020600020905b81548152906001019060200180831161348557829003601f168201915b505050505082602001819052506134cb8a6000908152600c60205260409020600b015460ff1690565b6134ef57604051806040016040528060028152602001610c9160f21b81525061350b565b604051806040016040528060028152602001610cd160f21b8152505b604080840191909152601454905163efcc1e3160e01b81526001600160a01b039091169063efcc1e319061354d908d908c908c9089908b908a90600401615dc7565b600060405180830381865afa15801561356a573d6000803e3d6000fd5b505050506040513d6000823e601f3d908101601f1916820160405261359291908101906158d7565b9a9950505050505050505050565b816135aa81612230565b6001600160a01b0316336001600160a01b0316146135db57604051631431735b60e21b815260040160405180910390fd5b60048260ff161115613600576040516329ba348d60e11b815260040160405180910390fd5b6000838152600c60205260409020600901805460ff191660ff84161790558261362881612230565b60405160ff851681526001600160a01b0391909116907f454db5768a3f8187a5dd5e9cca100cf699d74d8a03f793d16da3932cdf34d35890602001612ce4565b6136706139cd565b601d55565b61367d6139cd565b63389a75e1600c52806000526020600c2080544211156136a557636f5e88186000526004601cfd5b60009055611c11816143a9565b6136ba6139cd565b6136c26120b5565b156136e05760405163774ae17d60e01b815260040160405180910390fd5b6000848152600f60205260409020848155600181016136ff8582615ca9565b506002810161370e8482615ca9565b506003810161371d8382615ca9565b505050505050565b61372d6139cd565b8060601b61374357637448fbae6000526004601cfd5b611c11816143a9565b6060806060806060600061375f87612ef6565b905061376a816129ce565b50601054604051631be5857160e31b81529196506001600160a01b03169063df2c2b889061379c908490600401615685565b600060405180830381865afa1580156137b9573d6000803e3d6000fd5b505050506040513d6000823e601f3d908101601f191682016040526137e19190810190615e3b565b90945092506137ef876113e2565b915061381c6040518060800160405280606081526020016060815260200160608152602001600081525090565b610140820151815261382d88612896565b51606082015261012082015160ff166000908152600f60205260409020600101805461385890615858565b80601f016020809104026020016040519081016040528092919081815260200182805461388490615858565b80156138d15780601f106138a6576101008083540402835291602001916138d1565b820191906000526020600020905b8154815290600101906020018083116138b457829003601f168201915b505050505081602001819052506138fa886000908152600c60205260409020600b015460ff1690565b61391e57604051806040016040528060028152602001610c9160f21b81525061393a565b604051806040016040528060028152602001610cd160f21b8152505b60408083019190915260135490516307df90cf60e11b81526001600160a01b0390911690630fbf219e9061397c908b908a908a908a908a908990600401615dc7565b600060405180830381865afa158015613999573d6000803e3d6000fd5b505050506040513d6000823e601f3d908101601f191682016040526139c191908101906158d7565b98975050505050505050565b638b78c6d819543314611c6e576382b429006000526004601cfd5b60006001600160e01b0319821663780e9d6360e01b14806110e257506110e282614430565b6000818152600260205260409020546001600160a01b0316611c115760405162461bcd60e51b8152602060048201526018602482015277115490cdcc8c4e881a5b9d985b1a59081d1bdad95b88125160421b6044820152606401611659565b6000918252601c6020908152604083208054600181018255908452922090910180546001600160a01b0319166001600160a01b03909216919091179055565b600081815260046020526040902080546001600160a01b0319166001600160a01b0384169081179091558190613ae082612230565b6001600160a01b03167f8c5be1e5ebec7d5bd14f71427d1e84f3dd0314c0f7b2291e5b200ac8c7c3b92560405160405180910390a45050565b600080613b2583612230565b9050806001600160a01b0316846001600160a01b03161480613b6c57506001600160a01b0380821660009081526005602090815260408083209388168352929052205460ff165b806125f15750836001600160a01b0316613b85846111a9565b6001600160a01b031614949350505050565b826001600160a01b0316613baa82612230565b6001600160a01b031614613c0e5760405162461bcd60e51b815260206004820152602560248201527f4552433732313a207472616e736665722066726f6d20696e636f72726563742060448201526437bbb732b960d91b6064820152608401611659565b6001600160a01b038216613c705760405162461bcd60e51b8152602060048201526024808201527f4552433732313a207472616e7366657220746f20746865207a65726f206164646044820152637265737360e01b6064820152608401611659565b613c7b838383614480565b613c86600082613aab565b6001600160a01b0383166000908152600360205260408120805460019290613caf908490615e94565b90915550506001600160a01b0382166000908152600360205260408120805460019290613cdd908490615aef565b909155505060008181526002602052604080822080546001600160a01b0319166001600160a01b0386811691821790925591518493918716917fddf252ad1be2c89b69c2b068fc378daa952ba7f163c4a11628f55a4df523b3ef91a461166d83838361485b565b6000613d5083836140e9565b60105460405163e8a1268d60e01b8152600481018490526001600160a01b039091169063e8a1268d90602401602060405180830381865afa158015613d99573d6000803e3d6000fd5b505050506040513d601f19601f82011682018060405250810190613dbd9190615ea7565b90506110e282826141e1565b60005b82811015612152576000601660008154613de590615ec4565b91829055509050613df68582614865565b604051638a54c52f60e01b81527355266d75d1a14e4572138116af39863ed6596e7f600482015260006024820181905262014a34604483015230606483015260848201839052906f6551c19487814612e58fe0681377575890638a54c52f9060a4016020604051808303816000875af1158015613e77573d6000803e3d6000fd5b505050506040513d601f19601f82011682018060405250810190613e9b9190615abc565b6000838152601a6020908152604080832080546001600160a01b0319166001600160a01b038616908117909155808452601b90925291829020859055905163189acdbd60e31b81527341c8f39463a868d3a88af00cd0fe7102f30e44ec60048201529192509063c4d66de890602401600060405180830381600087803b158015613f2457600080fd5b505af1158015613f38573d6000803e3d6000fd5b50506012546040516358a2727360e01b81526001600160a01b03858116600483015260ff891660248301526000945090911691506358a27273906044016000604051808303816000875af1158015613f94573d6000803e3d6000fd5b505050506040513d6000823e601f3d908101601f19168201604052613fbc9190810190615bc5565b6000848152600c6020526040812060088101869055825192935091839190613fe657613fe661590b565b60200260200101518160060181905550816001815181106140095761400961590b565b602002602001015181600501819055508160028151811061402c5761402c61590b565b602002602001015181600401819055508160038151811061404f5761404f61590b565b6020026020010151816001018190555060058460405160200161407491815260200190565b6040516020818303038152906040528051906020012060001c6140979190615edd565b60098201805460ff191660ff929092169190911790556040805180820190915260068152650c110d914e5160d21b6020820152600a8201906140d99082615ca9565b5050505050806001019050613dcc565b816140f381612230565b6001600160a01b0316336001600160a01b03161461412457604051631431735b60e21b815260040160405180910390fd5b6000838152601a60205260408082205460105491516331a9108f60e11b8152600481018690526001600160a01b0391821693929190911690636352211e90602401602060405180830381865afa158015614182573d6000803e3d6000fd5b505050506040513d601f19601f820116820180604052508101906141a69190615abc565b9050816001600160a01b0316816001600160a01b0316146141da5760405163e6ca793160e01b815260040160405180910390fd5b5050505050565b60105460405163e8a1268d60e01b8152600481018490526000916001600160a01b03169063e8a1268d90602401602060405180830381865afa15801561422b573d6000803e3d6000fd5b505050506040513d601f19601f8201168201806040525081019061424f9190615ea7565b9050816007811115614263576142636159f0565b60405160200161427591815260200190565b6040516020818303038152906040528051906020012081600781111561429d5761429d6159f0565b6040516020016142af91815260200190565b604051602081830303815290604052805190602001201461166d57604051633e54c6fb60e11b815260040160405180910390fd5b816001600160a01b0316836001600160a01b0316036143445760405162461bcd60e51b815260206004820152601960248201527f4552433732313a20617070726f766520746f2063616c6c6572000000000000006044820152606401611659565b6001600160a01b03838116600081815260056020908152604080832094871680845294825291829020805460ff191686151590811790915591519182527f17307eab39ab6107e8899845ad3d59bd9653f200f220920489ca2b5937696c319101612ce4565b638b78c6d81980546001600160a01b039092169182907f8be0079c531659141344cd1fd0a4f28419497f9722a3daafe3b4186f6b6457e0600080a355565b6143f2848484613b97565b6143fe848484846149bb565b6121525760405162461bcd60e51b815260040161165990615eff565b6000826144278584614abc565b14949350505050565b60006001600160e01b031982166380ac58cd60e01b148061446157506001600160e01b03198216635b5e139f60e01b145b806110e257506301ffc9a760e01b6001600160e01b03198316146110e2565b6001600160a01b0383166144995761166d838383614af7565b6001600160a01b0382166000908152601b6020526040902054156144d057604051639a42da2960e01b815260040160405180910390fd5b6000818152601a602052604080822054601054915162438b6360e81b81526001600160a01b03918216600482018190529392919091169063438b630090602401600060405180830381865afa15801561452d573d6000803e3d6000fd5b505050506040513d6000823e601f3d908101601f191682016040526145559190810190615bc5565b9050600061456285611c70565b9050600081516001600160401b0381111561457f5761457f615056565b6040519080825280602002602001820160405280156145a8578160200160208202803683370190505b50905060005b825181101561462957601a60008483815181106145cd576145cd61590b565b6020026020010151815260200190815260200160002060009054906101000a90046001600160a01b03168282815181106146095761460961590b565b6001600160a01b03909216602092830291909101909101526001016145ae565b5060115460405163644ec52760e01b8152600481018790526001600160a01b039091169063644ec52790602401600060405180830381600087803b15801561467057600080fd5b505af1158015614684573d6000803e3d6000fd5b5050601154604051631e92beb560e31b8152600481018990526001600160a01b038a81166024830152909116925063f495f5a89150604401600060405180830381600087803b1580156146d657600080fd5b505af11580156146ea573d6000803e3d6000fd5b5050505060005b835181101561484657600084828151811061470e5761470e61590b565b6020908102919091010151601154604051632e1d274f60e01b8152600481018390529192506001600160a01b031690632e1d274f90602401600060405180830381600087803b15801561476057600080fd5b505af1158015614774573d6000803e3d6000fd5b5050601154604051632333520b60e11b81526001600160a01b039091169250634666a41691506147aa9084908790600401615f51565b600060405180830381600087803b1580156147c457600080fd5b505af11580156147d8573d6000803e3d6000fd5b505060105460405163487b1c2160e11b8152600481018590526001600160a01b0390911692506390f638429150602401600060405180830381600087803b15801561482257600080fd5b505af1158015614836573d6000803e3d6000fd5b50505050508060010190506146f1565b50614852878787614af7565b50505050505050565b61166d8184614baf565b6001600160a01b0382166148bb5760405162461bcd60e51b815260206004820181905260248201527f4552433732313a206d696e7420746f20746865207a65726f20616464726573736044820152606401611659565b6000818152600260205260409020546001600160a01b0316156149205760405162461bcd60e51b815260206004820152601c60248201527f4552433732313a20746f6b656e20616c7265616479206d696e746564000000006044820152606401611659565b61492c60008383614480565b6001600160a01b0382166000908152600360205260408120805460019290614955908490615aef565b909155505060008181526002602052604080822080546001600160a01b0319166001600160a01b03861690811790915590518392907fddf252ad1be2c89b69c2b068fc378daa952ba7f163c4a11628f55a4df523b3ef908290a461121d6000838361485b565b60006001600160a01b0384163b15614ab157604051630a85bd0160e11b81526001600160a01b0385169063150b7a02906149ff903390899088908890600401615f6a565b6020604051808303816000875af1925050508015614a3a575060408051601f3d908101601f19168201909252614a3791810190615f9d565b60015b614a97573d808015614a68576040519150601f19603f3d011682016040523d82523d6000602084013e614a6d565b606091505b508051600003614a8f5760405162461bcd60e51b815260040161165990615eff565b805181602001fd5b6001600160e01b031916630a85bd0160e11b1490506125f1565b506001949350505050565b600081815b8451811015611cff57614aed82868381518110614ae057614ae061590b565b6020026020010151614c98565b9150600101614ac1565b6001600160a01b038316614b5257614b4d81600880546000838152600960205260408120829055600182018355919091527ff3f7a9fe364faab93b216da50a3214154f22a0a2b415b23a84c8169e8b636ee30155565b614b75565b816001600160a01b0316836001600160a01b031614614b7557614b758382614cc4565b6001600160a01b038216614b8c5761166d81614d61565b826001600160a01b0316826001600160a01b03161461166d5761166d8282614e10565b6000828152601c6020908152604080832080548251818502810185019093528083529192909190830182828015614c0f57602002820191906000526020600020905b81546001600160a01b03168152600190910190602001808311614bf1575b5050506000868152601a60205260408120549394506001600160a01b03909316929150505b8251811015614c8057614c6284848381518110614c5357614c5361590b565b602002602001015160006142e3565b614c7882848381518110614c5357614c5361590b565b600101614c34565b506000848152601c6020526040812061215291614e54565b6000818310614cb45760008281526020849052604090206126f5565b5060009182526020526040902090565b60006001614cd184612452565b614cdb9190615e94565b600083815260076020526040902054909150808214614d2e576001600160a01b03841660009081526006602090815260408083208584528252808320548484528184208190558352600790915290208190555b5060009182526007602090815260408084208490556001600160a01b039094168352600681528383209183525290812055565b600854600090614d7390600190615e94565b60008381526009602052604081205460088054939450909284908110614d9b57614d9b61590b565b906000526020600020015490508060088381548110614dbc57614dbc61590b565b6000918252602080832090910192909255828152600990915260408082208490558582528120556008805480614df457614df4615fba565b6001900381819060005260206000200160009055905550505050565b6000614e1b83612452565b6001600160a01b039093166000908152600660209081526040808320868452825280832085905593825260079052919091209190915550565b5080546000825590600052602060002090810190611c1191905b80821115614e825760008155600101614e6e565b5090565b6001600160a01b0381168114611c1157600080fd5b600060208284031215614ead57600080fd5b81356126f581614e86565b6001600160e01b031981168114611c1157600080fd5b600060208284031215614ee057600080fd5b81356126f581614eb8565b600060208284031215614efd57600080fd5b5035919050565b60005b83811015614f1f578181015183820152602001614f07565b50506000910152565b60008151808452614f40816020860160208601614f04565b601f01601f19169290920160200192915050565b6020815260006126f56020830184614f28565b60008060408385031215614f7a57600080fd5b8235614f8581614e86565b946020939093013593505050565b848152608060208201526000614fac6080830186614f28565b8281036040840152614fbe8186614f28565b90508281036060840152614fd28185614f28565b979650505050505050565b600080600060608486031215614ff257600080fd5b8335614ffd81614e86565b9250602084013561500d81614e86565b929592945050506040919091013590565b6000806040838503121561503157600080fd5b50508035926020909101359150565b803560ff8116811461505157600080fd5b919050565b634e487b7160e01b600052604160045260246000fd5b60405161018081016001600160401b038111828210171561508f5761508f615056565b60405290565b604051601f8201601f191681016001600160401b03811182821017156150bd576150bd615056565b604052919050565b60006001600160401b038211156150de576150de615056565b50601f01601f191660200190565b600082601f8301126150fd57600080fd5b813561511061510b826150c5565b615095565b81815284602083860101111561512557600080fd5b816020850160208301376000918101602001919091529392505050565b6000806000806000806000806000806101408b8d03121561516257600080fd5b8a35995060208b0135985060408b0135975060608b0135965060808b0135955060a08b0135945060c08b0135935060e08b013592506151a46101008c01615040565b91506101208b01356001600160401b038111156151c057600080fd5b6151cc8d828e016150ec565b9150509295989b9194979a5092959850565b6020808252825182820181905260009190848201906040850190845b81811015615216578351835292840192918401916001016151fa565b50909695505050505050565b600080600080600080600080610100898b03121561523f57600080fd5b505086359860208801359850604088013597606081013597506080810135965060a0810135955060c0810135945060e0013592509050565b8035801515811461505157600080fd5b60008060006060848603121561529c57600080fd5b8335925060208401356152ae81614e86565b91506152bc60408501615277565b90509250925092565b60008151808452602080850194506020840160005b838110156152ff5781516001600160a01b0316875295820195908201906001016152da565b509495945050505050565b6020815260006126f560208301846152c5565b60008060006060848603121561533257600080fd5b833561533d81614e86565b9250602084013591506152bc60408501615040565b803563ffffffff8116811461505157600080fd5b60006020828403121561537857600080fd5b81356001600160401b038082111561538f57600080fd5b9083019061018082860312156153a457600080fd5b6153ac61506c565b823581526020830135602082015260408301356040820152606083013560608201526080830135608082015260a083013560a082015260c083013560c08201526153f860e08401615352565b60e08201526101008381013590820152610120615416818501615040565b90820152610140838101358381111561542e57600080fd5b61543a888287016150ec565b8284015250506101609150615450828401615277565b91810191909152949350505050565b6060815260006154726060830186614f28565b82810360208401526154848186614f28565b9050828103604084015261161c8185614f28565b600080604083850312156154ab57600080fd5b82356154b681614e86565b91506154c460208401615277565b90509250929050565b6040815260006154e06040830185614f28565b82810360208401526154f28185614f28565b95945050505050565b6000806000806080858703121561551157600080fd5b843561551c81614e86565b9350602085013561552c81614e86565b92506040850135915060608501356001600160401b0381111561554e57600080fd5b61555a878288016150ec565b91505092959194509250565b60006001600160401b0382111561557f5761557f615056565b5060051b60200190565b6000806040838503121561559c57600080fd5b823591506020808401356001600160401b038111156155ba57600080fd5b8401601f810186136155cb57600080fd5b80356155d961510b82615566565b81815260059190911b820183019083810190888311156155f857600080fd5b928401925b82841015615616578335825292840192908401906155fd565b80955050505050509250929050565b6000806040838503121561563857600080fd5b823591506154c460208401615277565b60088110611c1157600080fd5b6000806040838503121561566857600080fd5b82359150602083013561567a81615648565b809150509250929050565b6020815281516020820152602082015160408201526040820151606082015260608201516080820152608082015160a082015260a082015160c082015260c082015160e0820152600060e08301516101006156e78185018363ffffffff169052565b84015161012084810191909152840151905061014061570a8185018360ff169052565b80850151915050610180610160818186015261572a6101a0860184614f28565b95015115159301929092525090919050565b6000806040838503121561574f57600080fd5b8235915060208301356001600160401b0381111561576c57600080fd5b615778858286016150ec565b9150509250929050565b6000806040838503121561579557600080fd5b823591506154c460208401615040565b600080604083850312156157b857600080fd5b82356157c381614e86565b9150602083013561567a81614e86565b600080600080608085870312156157e957600080fd5b8435935060208501356001600160401b038082111561580757600080fd5b615813888389016150ec565b9450604087013591508082111561582957600080fd5b615835888389016150ec565b9350606087013591508082111561584b57600080fd5b5061555a878288016150ec565b600181811c9082168061586c57607f821691505b60208210810361588c57634e487b7160e01b600052602260045260246000fd5b50919050565b600082601f8301126158a357600080fd5b81516158b161510b826150c5565b8181528460208386010111156158c657600080fd5b6125f1826020830160208701614f04565b6000602082840312156158e957600080fd5b81516001600160401b038111156158ff57600080fd5b6125f184828501615892565b634e487b7160e01b600052603260045260246000fd5b6080815260006159346080830187614f28565b6020838203818501528187518084528284019150828160051b850101838a0160005b8381101561598457601f19878403018552615972838351614f28565b94860194925090850190600101615956565b50506040870198909852505050506060909101919091525092915050565b6020808252602e908201527f4552433732313a2063616c6c6572206973206e6f7420746f6b656e206f776e6560408201526d1c881b9bdc88185c1c1c9bdd995960921b606082015260800190565b634e487b7160e01b600052602160045260246000fd5b600080600060608486031215615a1b57600080fd5b83516001600160401b0380821115615a3257600080fd5b615a3e87838801615892565b94506020860151915080821115615a5457600080fd5b615a6087838801615892565b93506040860151915080821115615a7657600080fd5b50615a8386828701615892565b9150509250925092565b60008351615a9f818460208801614f04565b835190830190615ab3818360208801614f04565b01949350505050565b600060208284031215615ace57600080fd5b81516126f581614e86565b634e487b7160e01b600052601160045260246000fd5b808201808211156110e2576110e2615ad9565b60008154615b0f81615858565b808552602060018381168015615b2c5760018114615b4657615b74565b60ff1985168884015283151560051b880183019550615b74565b866000528260002060005b85811015615b6c5781548a8201860152908301908401615b51565b890184019650505b505050505092915050565b6020815260006126f56020830184615b02565b604081526009604082015268426f6479205479706560b81b60608201526080602082015260006126f56080830184615b02565b60006020808385031215615bd857600080fd5b82516001600160401b03811115615bee57600080fd5b8301601f81018513615bff57600080fd5b8051615c0d61510b82615566565b81815260059190911b82018301908381019087831115615c2c57600080fd5b928401925b82841015614fd257835182529284019290840190615c31565b80820281158282048414176110e2576110e2615ad9565b601f82111561166d576000816000526020600020601f850160051c81016020861015615c8a5750805b601f850160051c820191505b8181101561371d57828155600101615c96565b81516001600160401b03811115615cc257615cc2615056565b615cd681615cd08454615858565b84615c61565b602080601f831160018114615d0b5760008415615cf35750858301515b600019600386901b1c1916600185901b17855561371d565b600085815260208120601f198616915b82811015615d3a57888601518255948401946001909101908401615d1b565b5085821015615d585787850151600019600388901b60f8161c191681555b5050505050600190811b01905550565b6000815160808452615d7d6080850182614f28565b905060208301518482036020860152615d968282614f28565b91505060408301518482036040860152615db08282614f28565b915050606083015160608501528091505092915050565b86815260c060208201526000615de060c0830188614f28565b8281036040840152615df28188614f28565b90508281036060840152615e068187614f28565b90508281036080840152615e1a8186614f28565b905082810360a0840152615e2e8185615d68565b9998505050505050505050565b60008060408385031215615e4e57600080fd5b82516001600160401b0380821115615e6557600080fd5b615e7186838701615892565b93506020850151915080821115615e8757600080fd5b5061577885828601615892565b818103818111156110e2576110e2615ad9565b600060208284031215615eb957600080fd5b81516126f581615648565b600060018201615ed657615ed6615ad9565b5060010190565b600082615efa57634e487b7160e01b600052601260045260246000fd5b500690565b60208082526032908201527f4552433732313a207472616e7366657220746f206e6f6e20455243373231526560408201527131b2b4bb32b91034b6b83632b6b2b73a32b960711b606082015260800190565b8281526040602082015260006125f160408301846152c5565b6001600160a01b038581168252841660208201526040810183905260806060820181905260009061161c90830184614f28565b600060208284031215615faf57600080fd5b81516126f581614eb8565b634e487b7160e01b600052603160045260246000fdfec94c1c47471ed97c1d309bab965192a3e4be3807f42d015b699bfbdcf24dd9f6a2646970667358221220a2f2d415f575ab9509e006cf3c7bd5b94eb7a8ae1f9b3f46a8cea1edf8e8e7d764736f6c63430008160033","linkReferences":{}},"methodIdentifiers":{"_debugPostConstructorMint()":"9c7be2f1","_nextTokenId()":"4a60f620","addNewBody(uint256,string,bytes,bytes)":"f2361e23","approve(address,uint256)":"095ea7b3","balanceOf(address)":"70a08231","bodyIndexToMetadata(uint256)":"0c83f9d7","cancelOwnershipHandover()":"54d1f13d","checkIfTraitIsEquipped(uint256,uint256)":"8aa1e4c8","chonkIdToApprovedOperators(uint256,uint256)":"55737f35","chonkMakeover(uint256,uint256,uint256,uint256,uint256,uint256,uint256,uint256,uint8,string)":"30f6c521","chonksCreatorListMerkleRoot()":"7684ef0d","completeOwnershipHandover(address)":"f04e283e","deploymentTime()":"ecda10f5","equip(uint256,uint256)":"28257532","equipAll(uint256,uint256,uint256,uint256,uint256,uint256,uint256,uint256)":"4a4333a3","firstSeasonRenderMinter()":"13ea0ae3","friendsListMerkleRoot()":"8f224757","getApproved(uint256)":"081812fc","getBackpackSVGs(uint256)":"14fe8ff4","getBodyImageSvg(uint256)":"916c546b","getBodySVGZmapsAndMetadata((uint256,uint256,uint256,uint256,uint256,uint256,uint256,uint32,uint256,uint8,string,bool))":"92012f08","getBodySvgAndMetadata((uint256,uint256,uint256,uint256,uint256,uint256,uint256,uint32,uint256,uint8,string,bool))":"a23830ae","getBodyZMap(uint256)":"306c7334","getChonk(uint256)":"d3d6873e","getChonkIdForTBAAddress(address)":"8472cbca","getChonkIdToApprovedOperators(uint256)":"67d2afe2","getChonkZMap(uint256)":"32875aa0","getFullPictureForTrait(uint256)":"66704349","getOwnerAndTBAAddressForChonkId(uint256)":"04003bd0","getTBAAddressForChonkId(uint256)":"f6a0c932","getTokenRenderZ(uint256)":"8200ea51","getTraitsForChonkId(uint256)":"9f6e4637","isApprovedForAll(address,address)":"e985e9c5","isTimelocked()":"50b03146","mainRenderer2D()":"f4bec0b6","mainRenderer3D()":"b66ef6e3","marketplace()":"abc8c7af","maxTraitsToOutput()":"e3d21555","mint(uint256,bytes32[])":"ba41b0c6","mintStartTime()":"931e2e49","name()":"06fdde03","oneYearFromDeployment()":"d59752eb","owner()":"8da5cb5b","ownerOf(uint256)":"6352211e","ownershipHandoverExpiresAt(address)":"fee81cf4","price()":"a035b1fe","renderAsDataUri(uint256)":"a1d62680","renderAsDataUri2D(uint256)":"f3f8efb9","renderAsDataUri3D(uint256)":"dceef0ec","renounceOwnership()":"715018a6","requestOwnershipHandover()":"25692962","safeTransferFrom(address,address,uint256)":"42842e0e","safeTransferFrom(address,address,uint256,bytes)":"b88d4fde","setApprovalForAll(address,bool)":"a22cb465","setApprovalForAllChonksMarketplace(uint256,address,bool)":"550ab247","setBackgroundColor(uint256,string)":"d68c4f32","setBodyIndex(uint256,uint8)":"e1405540","setChonksCreatorListMerkleRoot(bytes32)":"b99ce71f","setFirstSeasonRenderMinter(address)":"58a97640","setFriendsListMerkleRoot(bytes32)":"1ab37512","setMainRenderer2D(address)":"7e2e6c47","setMainRenderer3D(address)":"00179206","setMarketplace(address)":"73ad6c2d","setMaxTraitsToOutput(uint256)":"33d3d9bf","setMintStartTime(uint256)":"d5b3621b","setPrice(uint256)":"91b7f5ed","setSpecialCollectionMerkleRoot(bytes32)":"e29babbb","setTokenRender3D(uint256,bool)":"bef1dfb7","setTraitsContract(address)":"5eabd84a","setWithdrawAddress(address)":"3ab1a494","specialCollectionMerkleRoot()":"deab1d36","supportsInterface(bytes4)":"01ffc9a7","symbol()":"95d89b41","tbaAddressToTokenId(address)":"a4bf9a00","teamMint(address,uint256,uint8)":"6e51665f","teamReserve()":"4287f14a","tokenByIndex(uint256)":"4f6ccce7","tokenIdToTBAAccountAddress(uint256)":"9c05d68d","tokenOfOwnerByIndex(address,uint256)":"2f745c59","tokenURI(uint256)":"c87b56dd","totalSupply()":"18160ddd","traitsContract()":"c093afdb","transferFrom(address,address,uint256)":"23b872dd","transferOwnership(address)":"f2fde38b","unequip(uint256,uint8)":"cdb6dd5c","unequipAll(uint256)":"3044825b","walletOfOwner(address)":"438b6300","withdraw()":"3ccfd60b","withdrawAddress()":"1581b600"},"id":41}