{"abi":[{"type":"constructor","inputs":[{"name":"_descriptionParts","type":"string[2]","internalType":"string[2]"}],"stateMutability":"nonpayable"},{"type":"function","name":"_nextTokenId","inputs":[],"outputs":[{"name":"","type":"uint256","internalType":"uint256"}],"stateMutability":"view"},{"type":"function","name":"addNewBody","inputs":[{"name":"_bodyIndex","type":"uint256","internalType":"uint256"},{"name":"_bodyName","type":"string","internalType":"string"},{"name":"_colorMap","type":"bytes","internalType":"bytes"},{"name":"_zMap","type":"bytes","internalType":"bytes"}],"outputs":[],"stateMutability":"nonpayable"},{"type":"function","name":"approve","inputs":[{"name":"_operator","type":"address","internalType":"address"},{"name":"_chonkId","type":"uint256","internalType":"uint256"}],"outputs":[],"stateMutability":"nonpayable"},{"type":"function","name":"balanceOf","inputs":[{"name":"owner","type":"address","internalType":"address"}],"outputs":[{"name":"","type":"uint256","internalType":"uint256"}],"stateMutability":"view"},{"type":"function","name":"bodyIndexToMetadata","inputs":[{"name":"","type":"uint256","internalType":"uint256"}],"outputs":[{"name":"bodyIndex","type":"uint256","internalType":"uint256"},{"name":"bodyName","type":"string","internalType":"string"},{"name":"colorMap","type":"bytes","internalType":"bytes"},{"name":"zMap","type":"bytes","internalType":"bytes"}],"stateMutability":"view"},{"type":"function","name":"cancelOwnershipHandover","inputs":[],"outputs":[],"stateMutability":"payable"},{"type":"function","name":"checkIfTraitIsEquipped","inputs":[{"name":"_chonkId","type":"uint256","internalType":"uint256"},{"name":"_traitId","type":"uint256","internalType":"uint256"}],"outputs":[{"name":"","type":"bool","internalType":"bool"}],"stateMutability":"view"},{"type":"function","name":"chonkIdToApprovedOperators","inputs":[{"name":"chonkId","type":"uint256","internalType":"uint256"},{"name":"","type":"uint256","internalType":"uint256"}],"outputs":[{"name":"operators","type":"address","internalType":"address"}],"stateMutability":"view"},{"type":"function","name":"chonkTokens","inputs":[{"name":"tokenID","type":"uint256","internalType":"uint256"}],"outputs":[{"name":"headId","type":"uint256","internalType":"uint256"},{"name":"hairId","type":"uint256","internalType":"uint256"},{"name":"faceId","type":"uint256","internalType":"uint256"},{"name":"accessoryId","type":"uint256","internalType":"uint256"},{"name":"topId","type":"uint256","internalType":"uint256"},{"name":"bottomId","type":"uint256","internalType":"uint256"},{"name":"shoesId","type":"uint256","internalType":"uint256"},{"name":"epoch","type":"uint32","internalType":"uint32"},{"name":"tokenId","type":"uint256","internalType":"uint256"},{"name":"bodyIndex","type":"uint8","internalType":"uint8"},{"name":"backgroundColor","type":"string","internalType":"string"},{"name":"render3D","type":"bool","internalType":"bool"}],"stateMutability":"view"},{"type":"function","name":"collectionsMerkle","inputs":[],"outputs":[{"name":"","type":"bytes32","internalType":"bytes32"}],"stateMutability":"view"},{"type":"function","name":"completeOwnershipHandover","inputs":[{"name":"pendingOwner","type":"address","internalType":"address"}],"outputs":[],"stateMutability":"payable"},{"type":"function","name":"creatorsMerkle","inputs":[],"outputs":[{"name":"","type":"bytes32","internalType":"bytes32"}],"stateMutability":"view"},{"type":"function","name":"deploymentTime","inputs":[],"outputs":[{"name":"","type":"uint256","internalType":"uint256"}],"stateMutability":"view"},{"type":"function","name":"equip","inputs":[{"name":"_chonkTokenId","type":"uint256","internalType":"uint256"},{"name":"_traitTokenId","type":"uint256","internalType":"uint256"}],"outputs":[],"stateMutability":"nonpayable"},{"type":"function","name":"equipAll","inputs":[{"name":"_chonkTokenId","type":"uint256","internalType":"uint256"},{"name":"_headTokenId","type":"uint256","internalType":"uint256"},{"name":"_hairTokenId","type":"uint256","internalType":"uint256"},{"name":"_faceTokenId","type":"uint256","internalType":"uint256"},{"name":"_accessoryTokenId","type":"uint256","internalType":"uint256"},{"name":"_topTokenId","type":"uint256","internalType":"uint256"},{"name":"_bottomTokenId","type":"uint256","internalType":"uint256"},{"name":"_shoesTokenId","type":"uint256","internalType":"uint256"}],"outputs":[],"stateMutability":"nonpayable"},{"type":"function","name":"firstReleaseDataMinter","inputs":[],"outputs":[{"name":"","type":"address","internalType":"contract FirstReleaseDataMinter"}],"stateMutability":"view"},{"type":"function","name":"friendsMerkle","inputs":[],"outputs":[{"name":"","type":"bytes32","internalType":"bytes32"}],"stateMutability":"view"},{"type":"function","name":"getApproved","inputs":[{"name":"tokenId","type":"uint256","internalType":"uint256"}],"outputs":[{"name":"","type":"address","internalType":"address"}],"stateMutability":"view"},{"type":"function","name":"getBackpackSVGs","inputs":[{"name":"_tokenId","type":"uint256","internalType":"uint256"}],"outputs":[{"name":"","type":"string","internalType":"string"}],"stateMutability":"view"},{"type":"function","name":"getBodyImageSvg","inputs":[{"name":"_index","type":"uint256","internalType":"uint256"}],"outputs":[{"name":"svg","type":"string","internalType":"string"}],"stateMutability":"view"},{"type":"function","name":"getBodySVGZmapsAndMetadata","inputs":[{"name":"storedChonk","type":"tuple","internalType":"struct IChonkStorage.StoredChonk","components":[{"name":"headId","type":"uint256","internalType":"uint256"},{"name":"hairId","type":"uint256","internalType":"uint256"},{"name":"faceId","type":"uint256","internalType":"uint256"},{"name":"accessoryId","type":"uint256","internalType":"uint256"},{"name":"topId","type":"uint256","internalType":"uint256"},{"name":"bottomId","type":"uint256","internalType":"uint256"},{"name":"shoesId","type":"uint256","internalType":"uint256"},{"name":"epoch","type":"uint32","internalType":"uint32"},{"name":"tokenId","type":"uint256","internalType":"uint256"},{"name":"bodyIndex","type":"uint8","internalType":"uint8"},{"name":"backgroundColor","type":"string","internalType":"string"},{"name":"render3D","type":"bool","internalType":"bool"}]}],"outputs":[{"name":"","type":"string","internalType":"string"},{"name":"","type":"bytes","internalType":"bytes"},{"name":"","type":"string","internalType":"string"}],"stateMutability":"view"},{"type":"function","name":"getBodySvgAndMetadata","inputs":[{"name":"storedChonk","type":"tuple","internalType":"struct IChonkStorage.StoredChonk","components":[{"name":"headId","type":"uint256","internalType":"uint256"},{"name":"hairId","type":"uint256","internalType":"uint256"},{"name":"faceId","type":"uint256","internalType":"uint256"},{"name":"accessoryId","type":"uint256","internalType":"uint256"},{"name":"topId","type":"uint256","internalType":"uint256"},{"name":"bottomId","type":"uint256","internalType":"uint256"},{"name":"shoesId","type":"uint256","internalType":"uint256"},{"name":"epoch","type":"uint32","internalType":"uint32"},{"name":"tokenId","type":"uint256","internalType":"uint256"},{"name":"bodyIndex","type":"uint8","internalType":"uint8"},{"name":"backgroundColor","type":"string","internalType":"string"},{"name":"render3D","type":"bool","internalType":"bool"}]}],"outputs":[{"name":"","type":"string","internalType":"string"},{"name":"","type":"string","internalType":"string"}],"stateMutability":"view"},{"type":"function","name":"getBodyZMap","inputs":[{"name":"_tokenId","type":"uint256","internalType":"uint256"}],"outputs":[{"name":"","type":"string","internalType":"string"}],"stateMutability":"view"},{"type":"function","name":"getChonk","inputs":[{"name":"_tokenId","type":"uint256","internalType":"uint256"}],"outputs":[{"name":"","type":"tuple","internalType":"struct IChonkStorage.StoredChonk","components":[{"name":"headId","type":"uint256","internalType":"uint256"},{"name":"hairId","type":"uint256","internalType":"uint256"},{"name":"faceId","type":"uint256","internalType":"uint256"},{"name":"accessoryId","type":"uint256","internalType":"uint256"},{"name":"topId","type":"uint256","internalType":"uint256"},{"name":"bottomId","type":"uint256","internalType":"uint256"},{"name":"shoesId","type":"uint256","internalType":"uint256"},{"name":"epoch","type":"uint32","internalType":"uint32"},{"name":"tokenId","type":"uint256","internalType":"uint256"},{"name":"bodyIndex","type":"uint8","internalType":"uint8"},{"name":"backgroundColor","type":"string","internalType":"string"},{"name":"render3D","type":"bool","internalType":"bool"}]}],"stateMutability":"view"},{"type":"function","name":"getChonkIdForTBAAddress","inputs":[{"name":"_tbaAddress","type":"address","internalType":"address"}],"outputs":[{"name":"","type":"uint256","internalType":"uint256"}],"stateMutability":"view"},{"type":"function","name":"getChonkIdToApprovedOperators","inputs":[{"name":"_chonkId","type":"uint256","internalType":"uint256"}],"outputs":[{"name":"","type":"address[]","internalType":"address[]"}],"stateMutability":"view"},{"type":"function","name":"getChonkZMap","inputs":[{"name":"_tokenId","type":"uint256","internalType":"uint256"}],"outputs":[{"name":"","type":"string","internalType":"string"}],"stateMutability":"view"},{"type":"function","name":"getFullPictureForTrait","inputs":[{"name":"_chonkTraitTokenId","type":"uint256","internalType":"uint256"}],"outputs":[{"name":"traitOwnerTBA","type":"address","internalType":"address"},{"name":"chonkTokenId","type":"uint256","internalType":"uint256"},{"name":"chonkOwner","type":"address","internalType":"address"},{"name":"isEquipped","type":"bool","internalType":"bool"}],"stateMutability":"view"},{"type":"function","name":"getOwnerAndTBAAddressForChonkId","inputs":[{"name":"_chonkId","type":"uint256","internalType":"uint256"}],"outputs":[{"name":"owner","type":"address","internalType":"address"},{"name":"tbaAddress","type":"address","internalType":"address"}],"stateMutability":"view"},{"type":"function","name":"getTBAAddressForChonkId","inputs":[{"name":"_chonkId","type":"uint256","internalType":"uint256"}],"outputs":[{"name":"","type":"address","internalType":"address"}],"stateMutability":"view"},{"type":"function","name":"getTokenRenderZ","inputs":[{"name":"_chonkTokenId","type":"uint256","internalType":"uint256"}],"outputs":[{"name":"","type":"bool","internalType":"bool"}],"stateMutability":"view"},{"type":"function","name":"getTraitsForChonkId","inputs":[{"name":"_chonkId","type":"uint256","internalType":"uint256"}],"outputs":[{"name":"traitTokens","type":"uint256[]","internalType":"uint256[]"}],"stateMutability":"view"},{"type":"function","name":"isApprovedForAll","inputs":[{"name":"owner","type":"address","internalType":"address"},{"name":"operator","type":"address","internalType":"address"}],"outputs":[{"name":"","type":"bool","internalType":"bool"}],"stateMutability":"view"},{"type":"function","name":"isTimelocked","inputs":[],"outputs":[{"name":"","type":"bool","internalType":"bool"}],"stateMutability":"view"},{"type":"function","name":"mainRenderer2D","inputs":[],"outputs":[{"name":"","type":"address","internalType":"contract MainRenderer2D"}],"stateMutability":"view"},{"type":"function","name":"mainRenderer3D","inputs":[],"outputs":[{"name":"","type":"address","internalType":"contract MainRenderer3D"}],"stateMutability":"view"},{"type":"function","name":"marketplace","inputs":[],"outputs":[{"name":"","type":"address","internalType":"contract ChonksMarket"}],"stateMutability":"view"},{"type":"function","name":"maxTraitsToOutput","inputs":[],"outputs":[{"name":"","type":"uint256","internalType":"uint256"}],"stateMutability":"view"},{"type":"function","name":"mint","inputs":[{"name":"_amount","type":"uint256","internalType":"uint256"},{"name":"_merkleProof","type":"bytes32[]","internalType":"bytes32[]"}],"outputs":[],"stateMutability":"payable"},{"type":"function","name":"mintStartTime","inputs":[],"outputs":[{"name":"","type":"uint256","internalType":"uint256"}],"stateMutability":"view"},{"type":"function","name":"name","inputs":[],"outputs":[{"name":"","type":"string","internalType":"string"}],"stateMutability":"view"},{"type":"function","name":"oneYearFromDeployment","inputs":[],"outputs":[{"name":"","type":"uint256","internalType":"uint256"}],"stateMutability":"view"},{"type":"function","name":"owner","inputs":[],"outputs":[{"name":"result","type":"address","internalType":"address"}],"stateMutability":"view"},{"type":"function","name":"ownerOf","inputs":[{"name":"tokenId","type":"uint256","internalType":"uint256"}],"outputs":[{"name":"","type":"address","internalType":"address"}],"stateMutability":"view"},{"type":"function","name":"ownershipHandoverExpiresAt","inputs":[{"name":"pendingOwner","type":"address","internalType":"address"}],"outputs":[{"name":"result","type":"uint256","internalType":"uint256"}],"stateMutability":"view"},{"type":"function","name":"price","inputs":[],"outputs":[{"name":"","type":"uint256","internalType":"uint256"}],"stateMutability":"view"},{"type":"function","name":"renderAsDataUri","inputs":[{"name":"_tokenId","type":"uint256","internalType":"uint256"}],"outputs":[{"name":"","type":"string","internalType":"string"}],"stateMutability":"view"},{"type":"function","name":"renderAsDataUri2D","inputs":[{"name":"_tokenId","type":"uint256","internalType":"uint256"}],"outputs":[{"name":"","type":"string","internalType":"string"}],"stateMutability":"view"},{"type":"function","name":"renderAsDataUri3D","inputs":[{"name":"_tokenId","type":"uint256","internalType":"uint256"}],"outputs":[{"name":"","type":"string","internalType":"string"}],"stateMutability":"view"},{"type":"function","name":"renounceOwnership","inputs":[],"outputs":[],"stateMutability":"payable"},{"type":"function","name":"requestOwnershipHandover","inputs":[],"outputs":[],"stateMutability":"payable"},{"type":"function","name":"safeTransferFrom","inputs":[{"name":"from","type":"address","internalType":"address"},{"name":"to","type":"address","internalType":"address"},{"name":"tokenId","type":"uint256","internalType":"uint256"}],"outputs":[],"stateMutability":"nonpayable"},{"type":"function","name":"safeTransferFrom","inputs":[{"name":"from","type":"address","internalType":"address"},{"name":"to","type":"address","internalType":"address"},{"name":"tokenId","type":"uint256","internalType":"uint256"},{"name":"data","type":"bytes","internalType":"bytes"}],"outputs":[],"stateMutability":"nonpayable"},{"type":"function","name":"setApprovalForAll","inputs":[{"name":"_operator","type":"address","internalType":"address"},{"name":"_approved","type":"bool","internalType":"bool"}],"outputs":[],"stateMutability":"nonpayable"},{"type":"function","name":"setApprovalForAllChonksMarketplace","inputs":[{"name":"_chonkId","type":"uint256","internalType":"uint256"},{"name":"_operator","type":"address","internalType":"address"},{"name":"_approved","type":"bool","internalType":"bool"}],"outputs":[],"stateMutability":"nonpayable"},{"type":"function","name":"setBackgroundColor","inputs":[{"name":"_chonkTokenId","type":"uint256","internalType":"uint256"},{"name":"_color","type":"string","internalType":"string"}],"outputs":[],"stateMutability":"nonpayable"},{"type":"function","name":"setBodyIndex","inputs":[{"name":"_chonkTokenId","type":"uint256","internalType":"uint256"},{"name":"_bodyIndex","type":"uint8","internalType":"uint8"}],"outputs":[],"stateMutability":"nonpayable"},{"type":"function","name":"setCollectionsMerkle","inputs":[{"name":"_merkleRoot","type":"bytes32","internalType":"bytes32"}],"outputs":[],"stateMutability":"nonpayable"},{"type":"function","name":"setCreatorsMerkle","inputs":[{"name":"_merkleRoot","type":"bytes32","internalType":"bytes32"}],"outputs":[],"stateMutability":"nonpayable"},{"type":"function","name":"setDescriptionParts","inputs":[{"name":"_descriptionParts","type":"string[2]","internalType":"string[2]"}],"outputs":[],"stateMutability":"nonpayable"},{"type":"function","name":"setFirstReleaseDataMinter","inputs":[{"name":"_dataContract","type":"address","internalType":"address"}],"outputs":[],"stateMutability":"nonpayable"},{"type":"function","name":"setFriendsMerkleRoot","inputs":[{"name":"_merkleRoot","type":"bytes32","internalType":"bytes32"}],"outputs":[],"stateMutability":"nonpayable"},{"type":"function","name":"setMainRenderer2D","inputs":[{"name":"_mainRenderer2D","type":"address","internalType":"address"}],"outputs":[],"stateMutability":"nonpayable"},{"type":"function","name":"setMainRenderer3D","inputs":[{"name":"_mainRenderer3D","type":"address","internalType":"address"}],"outputs":[],"stateMutability":"nonpayable"},{"type":"function","name":"setMarketplace","inputs":[{"name":"_marketplace","type":"address","internalType":"address"}],"outputs":[],"stateMutability":"nonpayable"},{"type":"function","name":"setMaxTraitsToOutput","inputs":[{"name":"_maxTraitsToOutput","type":"uint256","internalType":"uint256"}],"outputs":[],"stateMutability":"nonpayable"},{"type":"function","name":"setMintStartTime","inputs":[{"name":"_mintStartTime","type":"uint256","internalType":"uint256"}],"outputs":[],"stateMutability":"nonpayable"},{"type":"function","name":"setPrice","inputs":[{"name":"_priceInWei","type":"uint256","internalType":"uint256"}],"outputs":[],"stateMutability":"nonpayable"},{"type":"function","name":"setTokenRender3D","inputs":[{"name":"_chonkTokenId","type":"uint256","internalType":"uint256"},{"name":"_render3D","type":"bool","internalType":"bool"}],"outputs":[],"stateMutability":"nonpayable"},{"type":"function","name":"setTraitsContract","inputs":[{"name":"_address","type":"address","internalType":"contract ChonkTraits"}],"outputs":[],"stateMutability":"nonpayable"},{"type":"function","name":"setWithdrawAddress","inputs":[{"name":"_withdrawAddress","type":"address","internalType":"address"}],"outputs":[],"stateMutability":"nonpayable"},{"type":"function","name":"supportsInterface","inputs":[{"name":"interfaceId","type":"bytes4","internalType":"bytes4"}],"outputs":[{"name":"","type":"bool","internalType":"bool"}],"stateMutability":"view"},{"type":"function","name":"symbol","inputs":[],"outputs":[{"name":"","type":"string","internalType":"string"}],"stateMutability":"view"},{"type":"function","name":"tbaAddressToTokenId","inputs":[{"name":"","type":"address","internalType":"address"}],"outputs":[{"name":"","type":"uint256","internalType":"uint256"}],"stateMutability":"view"},{"type":"function","name":"teamMint","inputs":[{"name":"_to","type":"address","internalType":"address"},{"name":"_amount","type":"uint256","internalType":"uint256"},{"name":"_traitCount","type":"uint8","internalType":"uint8"}],"outputs":[],"stateMutability":"nonpayable"},{"type":"function","name":"teamReserve","inputs":[],"outputs":[],"stateMutability":"nonpayable"},{"type":"function","name":"tokenByIndex","inputs":[{"name":"index","type":"uint256","internalType":"uint256"}],"outputs":[{"name":"","type":"uint256","internalType":"uint256"}],"stateMutability":"view"},{"type":"function","name":"tokenIdToTBAAccountAddress","inputs":[{"name":"","type":"uint256","internalType":"uint256"}],"outputs":[{"name":"","type":"address","internalType":"address"}],"stateMutability":"view"},{"type":"function","name":"tokenOfOwnerByIndex","inputs":[{"name":"owner","type":"address","internalType":"address"},{"name":"index","type":"uint256","internalType":"uint256"}],"outputs":[{"name":"","type":"uint256","internalType":"uint256"}],"stateMutability":"view"},{"type":"function","name":"tokenURI","inputs":[{"name":"_tokenId","type":"uint256","internalType":"uint256"}],"outputs":[{"name":"","type":"string","internalType":"string"}],"stateMutability":"view"},{"type":"function","name":"totalSupply","inputs":[],"outputs":[{"name":"","type":"uint256","internalType":"uint256"}],"stateMutability":"view"},{"type":"function","name":"traitsContract","inputs":[],"outputs":[{"name":"","type":"address","internalType":"contract ChonkTraits"}],"stateMutability":"view"},{"type":"function","name":"transferFrom","inputs":[{"name":"from","type":"address","internalType":"address"},{"name":"to","type":"address","internalType":"address"},{"name":"tokenId","type":"uint256","internalType":"uint256"}],"outputs":[],"stateMutability":"nonpayable"},{"type":"function","name":"transferOwnership","inputs":[{"name":"newOwner","type":"address","internalType":"address"}],"outputs":[],"stateMutability":"payable"},{"type":"function","name":"unequip","inputs":[{"name":"_chonkTokenId","type":"uint256","internalType":"uint256"},{"name":"traitType","type":"uint8","internalType":"enum TraitCategory.Name"}],"outputs":[],"stateMutability":"nonpayable"},{"type":"function","name":"unequipAll","inputs":[{"name":"_chonkTokenId","type":"uint256","internalType":"uint256"}],"outputs":[],"stateMutability":"nonpayable"},{"type":"function","name":"walletOfOwner","inputs":[{"name":"_owner","type":"address","internalType":"address"}],"outputs":[{"name":"","type":"uint256[]","internalType":"uint256[]"}],"stateMutability":"view"},{"type":"function","name":"withdraw","inputs":[],"outputs":[],"stateMutability":"nonpayable"},{"type":"function","name":"withdrawAddress","inputs":[],"outputs":[{"name":"","type":"address","internalType":"address"}],"stateMutability":"view"},{"type":"event","name":"Approval","inputs":[{"name":"owner","type":"address","indexed":true,"internalType":"address"},{"name":"approved","type":"address","indexed":true,"internalType":"address"},{"name":"tokenId","type":"uint256","indexed":true,"internalType":"uint256"}],"anonymous":false},{"type":"event","name":"ApprovalForAll","inputs":[{"name":"owner","type":"address","indexed":true,"internalType":"address"},{"name":"operator","type":"address","indexed":true,"internalType":"address"},{"name":"approved","type":"bool","indexed":false,"internalType":"bool"}],"anonymous":false},{"type":"event","name":"BackgroundColor","inputs":[{"name":"owner","type":"address","indexed":true,"internalType":"address"},{"name":"tokenId","type":"uint256","indexed":true,"internalType":"uint256"},{"name":"color","type":"string","indexed":false,"internalType":"string"}],"anonymous":false},{"type":"event","name":"BatchMetadataUpdate","inputs":[{"name":"_fromTokenId","type":"uint256","indexed":false,"internalType":"uint256"},{"name":"_toTokenId","type":"uint256","indexed":false,"internalType":"uint256"}],"anonymous":false},{"type":"event","name":"BodyIndex","inputs":[{"name":"owner","type":"address","indexed":true,"internalType":"address"},{"name":"tokenId","type":"uint256","indexed":true,"internalType":"uint256"},{"name":"_bodyIndex","type":"uint8","indexed":false,"internalType":"uint8"}],"anonymous":false},{"type":"event","name":"Equip","inputs":[{"name":"owner","type":"address","indexed":true,"internalType":"address"},{"name":"tokenId","type":"uint256","indexed":true,"internalType":"uint256"},{"name":"traitTokenId","type":"uint256","indexed":true,"internalType":"uint256"},{"name":"traitCategory","type":"uint8","indexed":false,"internalType":"uint8"}],"anonymous":false},{"type":"event","name":"EquipAll","inputs":[{"name":"owner","type":"address","indexed":true,"internalType":"address"},{"name":"tokenId","type":"uint256","indexed":true,"internalType":"uint256"}],"anonymous":false},{"type":"event","name":"MetadataUpdate","inputs":[{"name":"_tokenId","type":"uint256","indexed":false,"internalType":"uint256"}],"anonymous":false},{"type":"event","name":"Mint","inputs":[{"name":"owner","type":"address","indexed":true,"internalType":"address"},{"name":"tokenId","type":"uint256","indexed":true,"internalType":"uint256"}],"anonymous":false},{"type":"event","name":"OwnershipHandoverCanceled","inputs":[{"name":"pendingOwner","type":"address","indexed":true,"internalType":"address"}],"anonymous":false},{"type":"event","name":"OwnershipHandoverRequested","inputs":[{"name":"pendingOwner","type":"address","indexed":true,"internalType":"address"}],"anonymous":false},{"type":"event","name":"OwnershipTransferred","inputs":[{"name":"oldOwner","type":"address","indexed":true,"internalType":"address"},{"name":"newOwner","type":"address","indexed":true,"internalType":"address"}],"anonymous":false},{"type":"event","name":"Render3D","inputs":[{"name":"owner","type":"address","indexed":true,"internalType":"address"},{"name":"tokenId","type":"uint256","indexed":true,"internalType":"uint256"},{"name":"renderZ","type":"bool","indexed":false,"internalType":"bool"}],"anonymous":false},{"type":"event","name":"Transfer","inputs":[{"name":"from","type":"address","indexed":true,"internalType":"address"},{"name":"to","type":"address","indexed":true,"internalType":"address"},{"name":"tokenId","type":"uint256","indexed":true,"internalType":"uint256"}],"anonymous":false},{"type":"event","name":"Unequip","inputs":[{"name":"owner","type":"address","indexed":true,"internalType":"address"},{"name":"tokenId","type":"uint256","indexed":true,"internalType":"uint256"},{"name":"traitCategory","type":"uint8","indexed":false,"internalType":"uint8"}],"anonymous":false},{"type":"event","name":"UnequipAll","inputs":[{"name":"owner","type":"address","indexed":true,"internalType":"address"},{"name":"tokenId","type":"uint256","indexed":true,"internalType":"uint256"}],"anonymous":false},{"type":"error","name":"AlreadyInitialized","inputs":[]},{"type":"error","name":"BodyAlreadyExists","inputs":[]},{"type":"error","name":"CanOnlyReserveFirstTwo","inputs":[]},{"type":"error","name":"CantTransferDuringMint","inputs":[]},{"type":"error","name":"CantTransferToTBAs","inputs":[]},{"type":"error","name":"ChonkDoesntExist","inputs":[]},{"type":"error","name":"FirstReleaseDataMinterNotSet","inputs":[]},{"type":"error","name":"IncorrectChonkOwner","inputs":[]},{"type":"error","name":"IncorrectTBAOwner","inputs":[]},{"type":"error","name":"IncorrectTraitType","inputs":[]},{"type":"error","name":"InsufficientFunds","inputs":[]},{"type":"error","name":"InvalidBodyIndex","inputs":[]},{"type":"error","name":"InvalidColor","inputs":[]},{"type":"error","name":"InvalidMintAmount","inputs":[]},{"type":"error","name":"InvalidTraitCount","inputs":[]},{"type":"error","name":"MintEnded","inputs":[]},{"type":"error","name":"MintNotStarted","inputs":[]},{"type":"error","name":"MintStartTimeAlreadySet","inputs":[]},{"type":"error","name":"NewOwnerIsZeroAddress","inputs":[]},{"type":"error","name":"NoHandoverRequest","inputs":[]},{"type":"error","name":"Timelocked","inputs":[]},{"type":"error","name":"Unauthorized","inputs":[]},{"type":"error","name":"UseUnequip","inputs":[]},{"type":"error","name":"WithdrawFailed","inputs":[]}],"bytecode":{"object":"0x60a060405260636011553480156200001657600080fd5b50604051620065f8380380620065f8833981016040819052620000399162000237565b6040518060400160405280600681526020016543686f6e6b7360d01b8152506040518060400160405280600681526020016543484f4e4b5360d01b8152508160009081620000889190620003de565b506001620000978282620003de565b50506001600a5550620000aa33620000c5565b42608052620000bd601682600262000102565b5050620004aa565b6001600160a01b0316638b78c6d8198190558060007f8be0079c531659141344cd1fd0a4f28419497f9722a3daafe3b4186f6b6457e08180a35b50565b826002810192821562000140579160200282015b828111156200014057825182906200012f9082620003de565b509160200191906001019062000116565b506200014e92915062000152565b5090565b808211156200014e57600062000169828262000173565b5060010162000152565b50805462000181906200034d565b6000825580601f1062000192575050565b601f016020900490600052602060002090810190620000ff91905b808211156200014e5760008155600101620001ad565b634e487b7160e01b600052604160045260246000fd5b604080519081016001600160401b0381118282101715620001fe57620001fe620001c3565b60405290565b604051601f8201601f191681016001600160401b03811182821017156200022f576200022f620001c3565b604052919050565b600060208083850312156200024b57600080fd5b82516001600160401b03808211156200026357600080fd5b8185019150601f86601f8401126200027a57600080fd5b62000284620001d9565b8060408501898111156200029757600080fd5b855b818110156200033e57805186811115620002b35760008081fd5b87018581018c13620002c55760008081fd5b805187811115620002da57620002da620001c3565b620002ed818801601f19168b0162000204565b8181528d8b838501011115620003035760008081fd5b60005b8281101562000323578381018c01518282018d01528b0162000306565b5060009181018b019190915285525092870192870162000299565b50909998505050505050505050565b600181811c908216806200036257607f821691505b6020821081036200038357634e487b7160e01b600052602260045260246000fd5b50919050565b601f821115620003d9576000816000526020600020601f850160051c81016020861015620003b45750805b601f850160051c820191505b81811015620003d557828155600101620003c0565b5050505b505050565b81516001600160401b03811115620003fa57620003fa620001c3565b62000412816200040b84546200034d565b8462000389565b602080601f8311600181146200044a5760008415620004315750858301515b600019600386901b1c1916600185901b178555620003d5565b600085815260208120601f198616915b828110156200047b578886015182559484019460019091019084016200045a565b50858210156200049a5787850151600019600388901b60f8161c191681555b5050505050600190811b01905550565b60805161612b620004cd60003960008181610f63015261312a015261612b6000f3fe6080604052600436106104d55760003560e01c80638d2a2f1111610281578063ba41b0c61161015a578063e3d21555116100cc578063f3f8efb911610085578063f3f8efb914610fcb578063f4bec0b614610feb578063f6a0c9321461100b578063fc863e6414611041578063fd8b66de14611057578063fee81cf41461107757600080fd5b8063e3d2155514610ef2578063e985e9c514610f08578063ecda10f514610f51578063f04e283e14610f85578063f2361e2314610f98578063f2fde38b14610fb857600080fd5b8063d3d6873e1161011e578063d3d6873e14610e30578063d59752eb14610e5d578063d5b3621b14610e72578063d68c4f3214610e92578063dceef0ec14610eb2578063e140554014610ed257600080fd5b8063ba41b0c614610d9d578063bef1dfb714610db0578063c093afdb14610dd0578063c87b56dd14610df0578063cdb6dd5c14610e1057600080fd5b8063a1531780116101f3578063abc8c7af116101b7578063abc8c7af14610cc5578063b194b6f114610ce5578063b45d031614610d05578063b66ef6e314610d3d578063b84b160d14610d5d578063b88d4fde14610d7d57600080fd5b8063a153178014610c14578063a1d6268014610c2a578063a22cb46514610c4a578063a23830ae14610c6a578063a4bf9a0014610c9857600080fd5b8063931e2e4911610245578063931e2e4914610b5d57806395d89b4114610b735780639c05d68d14610b885780639eb2660c14610bbe5780639f6e463714610bde578063a035b1fe14610bfe57600080fd5b80638d2a2f1114610ab55780638da5cb5b14610ad5578063916c546b14610aee57806391b7f5ed14610b0e57806392012f0814610b2e57600080fd5b80634287f14a116103b3578063667043491161032557806373ad6c2d116102e957806373ad6c2d146109d65780637e2e6c47146109f657806380d833f114610a165780638200ea5114610a2c5780638472cbca14610a5f5780638aa1e4c814610a9557600080fd5b8063667043491461090c57806367d2afe2146109615780636e51665f1461098e57806370a08231146109ae578063715018a6146109ce57600080fd5b806350b031461161037757806350b031461461086f57806354d1f13d14610884578063550ab2471461088c57806355737f35146108ac5780635eabd84a146108cc5780636352211e146108ec57600080fd5b80634287f14a146107d7578063438b6300146107ec5780634a4333a3146108195780634a60f620146108395780634f6ccce71461084f57600080fd5b8063256929621161044c578063306c733411610410578063306c73341461072257806332875aa01461074257806333d3d9bf146107625780633ab1a494146107825780633ccfd60b146107a257806342842e0e146107b757600080fd5b8063256929621461069a57806326f2052a146106a257806328257532146106c25780632f745c59146106e25780633044825b1461070257600080fd5b8063095ea7b31161049e578063095ea7b3146105cb5780630c83f9d7146105eb57806314fe8ff41461061b5780631581b6001461063b57806318160ddd1461065b57806323b872dd1461067a57600080fd5b8062179206146104da57806301ffc9a7146104fc57806304003bd01461053157806306fdde0314610571578063081812fc14610593575b600080fd5b3480156104e657600080fd5b506104fa6104f5366004614f2c565b6110aa565b005b34801561050857600080fd5b5061051c610517366004614f5f565b6110fa565b60405190151581526020015b60405180910390f35b34801561053d57600080fd5b5061055161054c366004614f7c565b61110b565b604080516001600160a01b03938416815292909116602083015201610528565b34801561057d57600080fd5b5061058661113a565b6040516105289190614fe5565b34801561059f57600080fd5b506105b36105ae366004614f7c565b6111cc565b6040516001600160a01b039091168152602001610528565b3480156105d757600080fd5b506104fa6105e6366004614ff8565b6111f3565b3480156105f757600080fd5b5061060b610606366004614f7c565b611244565b6040516105289493929190615024565b34801561062757600080fd5b50610586610636366004614f7c565b611405565b34801561064757600080fd5b506013546105b3906001600160a01b031681565b34801561066757600080fd5b506008545b604051908152602001610528565b34801561068657600080fd5b506104fa61069536600461506e565b611649565b6104fa611688565b3480156106ae57600080fd5b506104fa6106bd3660046151bd565b6116d7565b3480156106ce57600080fd5b506104fa6106dd366004615257565b6116ec565b3480156106ee57600080fd5b5061066c6106fd366004614ff8565b6118e5565b34801561070e57600080fd5b506104fa61071d366004614f7c565b61197b565b34801561072e57600080fd5b5061058661073d366004614f7c565b611a36565b34801561074e57600080fd5b5061058661075d366004614f7c565b611a4e565b34801561076e57600080fd5b506104fa61077d366004614f7c565b611b05565b34801561078e57600080fd5b506104fa61079d366004614f2c565b611b12565b3480156107ae57600080fd5b506104fa611b3c565b3480156107c357600080fd5b506104fa6107d236600461506e565b611bbb565b3480156107e357600080fd5b506104fa611bd6565b3480156107f857600080fd5b5061080c610807366004614f2c565b611c17565b6040516105289190615279565b34801561082557600080fd5b506104fa6108343660046152bd565b611cae565b34801561084557600080fd5b5061066c60125481565b34801561085b57600080fd5b5061066c61086a366004614f7c565b611fdf565b34801561087b57600080fd5b5061051c612072565b6104fa612083565b34801561089857600080fd5b506104fa6108a7366004615327565b6120bf565b3480156108b857600080fd5b506105b36108c7366004615257565b612115565b3480156108d857600080fd5b506104fa6108e7366004614f2c565b61214d565b3480156108f857600080fd5b506105b3610907366004614f7c565b61219d565b34801561091857600080fd5b5061092c610927366004614f7c565b6121fd565b60405161052894939291906001600160a01b039485168152602081019390935292166040820152901515606082015260800190565b34801561096d57600080fd5b5061098161097c366004614f7c565b6122af565b60405161052891906153aa565b34801561099a57600080fd5b506104fa6109a93660046153ce565b61231b565b3480156109ba57600080fd5b5061066c6109c9366004614f2c565b6123bf565b6104fa612445565b3480156109e257600080fd5b506104fa6109f1366004614f2c565b612457565b348015610a0257600080fd5b506104fa610a11366004614f2c565b6124a7565b348015610a2257600080fd5b5061066c601c5481565b348015610a3857600080fd5b5061051c610a47366004614f7c565b6000908152601860205260409020600b015460ff1690565b348015610a6b57600080fd5b5061066c610a7a366004614f2c565b6001600160a01b03166000908152601a602052604090205490565b348015610aa157600080fd5b5061051c610ab0366004615257565b6124f7565b348015610ac157600080fd5b506104fa610ad0366004614f7c565b612566565b348015610ae157600080fd5b50638b78c6d819546105b3565b348015610afa57600080fd5b50610586610b09366004614f7c565b612573565b348015610b1a57600080fd5b506104fa610b29366004614f7c565b612676565b348015610b3a57600080fd5b50610b4e610b49366004615417565b612683565b60405161052893929190615510565b348015610b6957600080fd5b5061066c60155481565b348015610b7f57600080fd5b506105866127d4565b348015610b9457600080fd5b506105b3610ba3366004614f7c565b6019602052600090815260409020546001600160a01b031681565b348015610bca57600080fd5b506104fa610bd9366004614f7c565b6127e3565b348015610bea57600080fd5b5061080c610bf9366004614f7c565b6127f0565b348015610c0a57600080fd5b5061066c60145481565b348015610c2057600080fd5b5061066c601e5481565b348015610c3657600080fd5b50610586610c45366004614f7c565b61287f565b348015610c5657600080fd5b506104fa610c65366004615549565b6128aa565b348015610c7657600080fd5b50610c8a610c85366004615417565b612923565b60405161052892919061557e565b348015610ca457600080fd5b5061066c610cb3366004614f2c565b601a6020526000908152604090205481565b348015610cd157600080fd5b50600d546105b3906001600160a01b031681565b348015610cf157600080fd5b506104fa610d00366004614f7c565b6129d1565b348015610d1157600080fd5b50610d25610d20366004614f7c565b6129de565b6040516105289c9b9a999897969594939291906155ac565b348015610d4957600080fd5b506010546105b3906001600160a01b031681565b348015610d6957600080fd5b506104fa610d78366004614f2c565b612ad5565b348015610d8957600080fd5b506104fa610d98366004615625565b612b25565b6104fa610dab3660046156b3565b612b57565b348015610dbc57600080fd5b506104fa610dcb36600461574f565b612cca565b348015610ddc57600080fd5b50600c546105b3906001600160a01b031681565b348015610dfc57600080fd5b50610586610e0b366004614f7c565b612d75565b348015610e1c57600080fd5b506104fa610e2b36600461577f565b612db6565b348015610e3c57600080fd5b50610e50610e4b366004614f7c565b612f7a565b60405161052891906157af565b348015610e6957600080fd5b5061066c613123565b348015610e7e57600080fd5b506104fa610e8d366004614f7c565b613158565b348015610e9e57600080fd5b506104fa610ead366004615866565b613186565b348015610ebe57600080fd5b50610586610ecd366004614f7c565b61339f565b348015610ede57600080fd5b506104fa610eed3660046158ac565b613645565b348015610efe57600080fd5b5061066c60115481565b348015610f1457600080fd5b5061051c610f233660046158cf565b6001600160a01b03918216600090815260056020908152604080832093909416825291909152205460ff1690565b348015610f5d57600080fd5b5061066c7f000000000000000000000000000000000000000000000000000000000000000081565b6104fa610f93366004614f2c565b61370d565b348015610fa457600080fd5b506104fa610fb33660046158fd565b61374a565b6104fa610fc6366004614f2c565b6137bd565b348015610fd757600080fd5b50610586610fe6366004614f7c565b6137e4565b348015610ff757600080fd5b50600f546105b3906001600160a01b031681565b34801561101757600080fd5b506105b3611026366004614f7c565b6000908152601960205260409020546001600160a01b031690565b34801561104d57600080fd5b5061066c601d5481565b34801561106357600080fd5b50600e546105b3906001600160a01b031681565b34801561108357600080fd5b5061066c611092366004614f2c565b63389a75e1600c908152600091909152602090205490565b6110b2613a65565b6110ba612072565b156110d85760405163774ae17d60e01b815260040160405180910390fd5b601080546001600160a01b0319166001600160a01b0392909216919091179055565b600061110582613a80565b92915050565b6000806111178361219d565b6000938452601960205260409093205492936001600160a01b0390931692915050565b60606000805461114990615982565b80601f016020809104026020016040519081016040528092919081815260200182805461117590615982565b80156111c25780601f10611197576101008083540402835291602001916111c2565b820191906000526020600020905b8154815290600101906020018083116111a557829003601f168201915b5050505050905090565b60006111d782613aa5565b506000908152600460205260409020546001600160a01b031690565b6111fc8161219d565b6001600160a01b0316336001600160a01b03161461122c576040516282b42960e81b815260040160405180910390fd5b6112368183613b04565b6112408282613b43565b5050565b600b602052600090815260409020805460018201805491929161126690615982565b80601f016020809104026020016040519081016040528092919081815260200182805461129290615982565b80156112df5780601f106112b4576101008083540402835291602001916112df565b820191906000526020600020905b8154815290600101906020018083116112c257829003601f168201915b5050505050908060020180546112f490615982565b80601f016020809104026020016040519081016040528092919081815260200182805461132090615982565b801561136d5780601f106113425761010080835404028352916020019161136d565b820191906000526020600020905b81548152906001019060200180831161135057829003601f168201915b50505050509080600301805461138290615982565b80601f01602080910402602001604051908101604052809291908181526020018280546113ae90615982565b80156113fb5780601f106113d0576101008083540402835291602001916113fb565b820191906000526020600020905b8154815290600101906020018083116113de57829003601f168201915b5050505050905084565b60606000611412836127f0565b90506000600c60009054906101000a90046001600160a01b03166001600160a01b0316635c1ef2566040518163ffffffff1660e01b8152600401600060405180830381865afa158015611469573d6000803e3d6000fd5b505050506040513d6000823e601f3d908101601f191682016040526114919190810190615a01565b905060006011548351106114a7576011546114aa565b82515b90506000816001600160401b038111156114c6576114c66150af565b6040519080825280602002602001820160405280156114f957816020015b60608152602001906001900390816114e45790505b50905060005b828110156115c057600c5485516001600160a01b039091169063c77915319087908490811061153057611530615a35565b60200260200101516040518263ffffffff1660e01b815260040161155691815260200190565b600060405180830381865afa158015611573573d6000803e3d6000fd5b505050506040513d6000823e601f3d908101601f1916820160405261159b9190810190615a01565b8282815181106115ad576115ad615a35565b60209081029190910101526001016114ff565b50600f548451601154604051631719ff8760e11b81526001600160a01b0390931692632e33ff0e926115fa92889287929190600401615a4b565b600060405180830381865afa158015611617573d6000803e3d6000fd5b505050506040513d6000823e601f3d908101601f1916820160405261163f9190810190615a01565b9695505050505050565b6116533382613bb1565b6116785760405162461bcd60e51b815260040161166f90615acc565b60405180910390fd5b611683838383613c2f565b505050565b60006202a3006001600160401b03164201905063389a75e1600c5233600052806020600c2055337fdbf36a107da19e49527a7176a1babf963b4b0ff8cde35ee35d6cd8f1f9ac7e1d600080a250565b6116df613a65565b6112406016826002614e44565b816116f68161219d565b6001600160a01b0316336001600160a01b03161461172757604051631431735b60e21b815260040160405180910390fd5b8160000361174857604051630754c7f360e41b815260040160405180910390fd5b60006117548484613ddc565b9050600181600781111561176a5761176a615b1a565b036117815760008481526018602052604090208390555b600281600781111561179557611795615b1a565b036117af5760008481526018602052604090206001018390555b60038160078111156117c3576117c3615b1a565b036117dd5760008481526018602052604090206002018390555b60048160078111156117f1576117f1615b1a565b0361180b5760008481526018602052604090206003018390555b600581600781111561181f5761181f615b1a565b036118395760008481526018602052604090206004018390555b600681600781111561184d5761184d615b1a565b036118675760008481526018602052604090206005018390555b600781600781111561187b5761187b615b1a565b036118955760008481526018602052604090206006018390555b82846118a08661219d565b6001600160a01b03166000805160206160d68339815191528460078111156118ca576118ca615b1a565b60405160ff909116815260200160405180910390a450505050565b60006118f0836123bf565b82106119525760405162461bcd60e51b815260206004820152602b60248201527f455243373231456e756d657261626c653a206f776e657220696e646578206f7560448201526a74206f6620626f756e647360a81b606482015260840161166f565b506001600160a01b03919091166000908152600660209081526040808320938352929052205490565b806119858161219d565b6001600160a01b0316336001600160a01b0316146119b657604051631431735b60e21b815260040160405180910390fd5b600082815260186020526040812081815560018101829055600281018290556003810182905560048101829055600581018290556006810191909155826119fc8161219d565b6001600160a01b03167f46078a2cd4c69c3b4a27bdc69fdfe03d442ebcf405f1a68e9b5df6bc3e24429760405160405180910390a3505050565b606080611a45610b4984612f7a565b50949350505050565b600c5460609081906001600160a01b031663bb12d21d611a6d85612f7a565b6040518263ffffffff1660e01b8152600401611a8991906157af565b600060405180830381865afa158015611aa6573d6000803e3d6000fd5b505050506040513d6000823e601f3d908101601f19168201604052611ace9190810190615b30565b509150611adc905083611a36565b81604051602001611aee929190615bb7565b604051602081830303815290604052915050919050565b611b0d613a65565b601155565b611b1a613a65565b601380546001600160a01b0319166001600160a01b0392909216919091179055565b611b44613a65565b6013546040516000916001600160a01b03169047908381818185875af1925050503d8060008114611b91576040519150601f19603f3d011682016040523d82523d6000602084013e611b96565b606091505b5050905080611bb857604051631d42c86760e21b815260040160405180910390fd5b50565b61168383838360405180602001604052806000815250612b25565b611bde613a65565b6002611be960085490565b1115611c085760405163155b299760e31b815260040160405180910390fd5b611c153360026007613e77565b565b60606000611c24836123bf565b90506000816001600160401b03811115611c4057611c406150af565b604051908082528060200260200182016040528015611c69578160200160208202803683370190505b50905060005b82811015611ca657611c8185826118e5565b828281518110611c9357611c93615a35565b6020908102919091010152600101611c6f565b509392505050565b87611cb88161219d565b6001600160a01b0316336001600160a01b031614611ce957604051631431735b60e21b815260040160405180910390fd5b60008981526018602090815260408083206019909252909120546001600160a01b03168915611d6557611d1c818b6140f9565b611d278a600161419b565b898255898b611d358161219d565b6001600160a01b03166000805160206160d6833981519152600160405160ff909116815260200160405180910390a45b8815611dc257611d75818a6140f9565b611d8089600261419b565b60018201899055888b611d928161219d565b6001600160a01b03166000805160206160d6833981519152600260405160ff909116815260200160405180910390a45b8715611e1f57611dd281896140f9565b611ddd88600361419b565b60028201889055878b611def8161219d565b6001600160a01b03166000805160206160d6833981519152600360405160ff909116815260200160405180910390a45b8615611e7c57611e2f81886140f9565b611e3a87600461419b565b60038201879055868b611e4c8161219d565b6001600160a01b03166000805160206160d6833981519152600460405160ff909116815260200160405180910390a45b8515611ed957611e8c81876140f9565b611e9786600561419b565b60048201869055858b611ea98161219d565b6001600160a01b03166000805160206160d6833981519152600560405160ff909116815260200160405180910390a45b8415611f3657611ee981866140f9565b611ef485600661419b565b60058201859055848b611f068161219d565b6001600160a01b03166000805160206160d6833981519152600660405160ff909116815260200160405180910390a45b8315611f9357611f4681856140f9565b611f5184600761419b565b60068201849055838b611f638161219d565b6001600160a01b03166000805160206160d6833981519152600760405160ff909116815260200160405180910390a45b8a611f9d8c61219d565b6001600160a01b03167f56680590212b09eb4b72a2eba8801b037ec046dfc754538e924f5bb6a8c4db6c60405160405180910390a35050505050505050505050565b6000611fea60085490565b821061204d5760405162461bcd60e51b815260206004820152602c60248201527f455243373231456e756d657261626c653a20676c6f62616c20696e646578206f60448201526b7574206f6620626f756e647360a01b606482015260840161166f565b6008828154811061206057612060615a35565b90600052602060002001549050919050565b600061207c613123565b4211905090565b63389a75e1600c523360005260006020600c2055337ffa7b8eab7da67f412cc9575ed43464468f9bfbae89d1675917346ca6d8fe3c92600080a2565b60006120ca8461219d565b90506001600160a01b03811633146120f4576040516282b42960e81b815260040160405180910390fd5b8115612104576121048484613b04565b61210f81848461429d565b50505050565b601b602052816000526040600020818154811061213157600080fd5b6000918252602090912001546001600160a01b03169150829050565b612155613a65565b61215d612072565b1561217b5760405163774ae17d60e01b815260040160405180910390fd5b600c80546001600160a01b0319166001600160a01b0392909216919091179055565b6000818152600260205260408120546001600160a01b0316806111055760405162461bcd60e51b8152602060048201526018602482015277115490cdcc8c4e881a5b9d985b1a59081d1bdad95b88125160421b604482015260640161166f565b600c546040516331a9108f60e11b8152600481018390526000918291829182916001600160a01b0390911690636352211e90602401602060405180830381865afa15801561224f573d6000803e3d6000fd5b505050506040513d601f19601f820116820180604052508101906122739190615be6565b6001600160a01b0381166000908152601a6020526040902054909450925061229a8361219d565b91506122a683866124f7565b90509193509193565b6000818152601b602090815260409182902080548351818402810184019094528084526060939283018282801561230f57602002820191906000526020600020905b81546001600160a01b031681526001909101906020018083116122f1575b50505050509050919050565b612323613a65565b60048160ff161080612338575060078160ff16115b1561235657604051632258debf60e01b815260040160405180910390fd5b6015541580612366575060155442105b1561238457604051630314872760e11b815260040160405180910390fd5b6015546123949062016da0615c19565b4211156123b45760405163124212e560e21b815260040160405180910390fd5b611683838383613e77565b60006001600160a01b0382166124295760405162461bcd60e51b815260206004820152602960248201527f4552433732313a2061646472657373207a65726f206973206e6f7420612076616044820152683634b21037bbb732b960b91b606482015260840161166f565b506001600160a01b031660009081526003602052604090205490565b61244d613a65565b611c156000614363565b61245f613a65565b612467612072565b156124855760405163774ae17d60e01b815260040160405180910390fd5b600d80546001600160a01b0319166001600160a01b0392909216919091179055565b6124af613a65565b6124b7612072565b156124d55760405163774ae17d60e01b815260040160405180910390fd5b600f80546001600160a01b0319166001600160a01b0392909216919091179055565b60008061250384612f7a565b80519091508314806125185750828160200151145b806125265750828160400151145b806125345750828160600151145b806125425750828160800151145b806125505750828160a00151145b8061255e5750828160c00151145b949350505050565b61256e613a65565b601c55565b600f546000828152600b602052604080822090516371bed9e160e11b81526060936001600160a01b03169163e37db3c2916125b49160020190600401615ca9565b600060405180830381865afa1580156125d1573d6000803e3d6000fd5b505050506040513d6000823e601f3d908101601f191682016040526125f99190810190615a01565b600f546040516335b07b7960e11b81529192506001600160a01b031690636b60f6f29061262a908490600401614fe5565b600060405180830381865afa158015612647573d6000803e3d6000fd5b505050506040513d6000823e601f3d908101601f1916820160405261266f9190810190615a01565b9392505050565b61267e613a65565b601455565b606080606061269984610120015160ff16612573565b6101208501805160ff9081166000908152600b6020526040808220600f5494519093168252908190209051630d88d4ff60e01b81526003909201926001600160a01b031691630d88d4ff916126f691600190910190600401615cbc565b600060405180830381865afa158015612713573d6000803e3d6000fd5b505050506040513d6000823e601f3d908101601f1916820160405261273b9190810190615a01565b81805461274790615982565b80601f016020809104026020016040519081016040528092919081815260200182805461277390615982565b80156127c05780601f10612795576101008083540402835291602001916127c0565b820191906000526020600020905b8154815290600101906020018083116127a357829003601f168201915b505050505091509250925092509193909250565b60606001805461114990615982565b6127eb613a65565b601d55565b600081815260196020526040812054606091906001600160a01b0316600c5460405162438b6360e81b81526001600160a01b03808416600483015292935091169063438b630090602401600060405180830381865afa158015612857573d6000803e3d6000fd5b505050506040513d6000823e601f3d908101601f1916820160405261266f9190810190615cef565b606061288a82612f7a565b61016001516128a15761289c826137e4565b611105565b6111058261339f565b80156129185760006128bb33611c17565b905080516000036128de576040516282b42960e81b815260040160405180910390fd5b60005b81518110156129155761290d8282815181106128ff576128ff615a35565b602002602001015185613b04565b6001016128e1565b50505b61124033838361429d565b60608061293783610120015160ff16612573565b600f5461012085015160ff166000908152600b6020526040908190209051630d88d4ff60e01b81526001600160a01b0390921691630d88d4ff9161298391600190910190600401615cbc565b600060405180830381865afa1580156129a0573d6000803e3d6000fd5b505050506040513d6000823e601f3d908101601f191682016040526129c89190810190615a01565b91509150915091565b6129d9613a65565b601e55565b601860205260009081526040902080546001820154600283015460038401546004850154600586015460068701546007880154600889015460098a0154600a8b0180549a9b999a9899979896979596949563ffffffff90941694929360ff90921692612a4990615982565b80601f0160208091040260200160405190810160405280929190818152602001828054612a7590615982565b8015612ac25780601f10612a9757610100808354040283529160200191612ac2565b820191906000526020600020905b815481529060010190602001808311612aa557829003601f168201915b505050600b909301549192505060ff168c565b612add613a65565b612ae5612072565b15612b035760405163774ae17d60e01b815260040160405180910390fd5b600e80546001600160a01b0319166001600160a01b0392909216919091179055565b612b2f3383613bb1565b612b4b5760405162461bcd60e51b815260040161166f90615acc565b61210f848484846143a1565b600e546001600160a01b0316612b805760405163d93186fd60e01b815260040160405180910390fd5b811580612b8d5750600a82115b15612bab5760405163199f5a0360e31b815260040160405180910390fd5b6015541580612bbb575060155442105b15612bd957604051630314872760e11b815260040160405180910390fd5b601554612be99062015180615c19565b421115612c095760405163124212e560e21b815260040160405180910390fd5b81601454612c179190615d74565b3414612c365760405163356680b760e01b815260040160405180910390fd5b6040516bffffffffffffffffffffffff193360601b166020820152600490600090603401604051602081830303815290604052805190602001209050612c7f83601c54836143d4565b15612c8d5760059150612cbf565b612c9a83601d54836143d4565b15612ca85760069150612cbf565b612cb583601e54836143d4565b15612cbf57600791505b61210f338584613e77565b81612cd48161219d565b6001600160a01b0316336001600160a01b031614612d0557604051631431735b60e21b815260040160405180910390fd5b6000838152601860205260409020600b01805460ff191683151517905582612d2c8161219d565b6001600160a01b03167f6dd9e2813f787f711671bf91b2e57a72b9b61bc279b934201f3fd29b3b5f8cbe84604051612d68911515815260200190565b60405180910390a3505050565b6000818152600260205260409020546060906001600160a01b0316612dad57604051636461f73160e01b815260040160405180910390fd5b6111058261287f565b81612dc08161219d565b6001600160a01b0316336001600160a01b031614612df157604051631431735b60e21b815260040160405180910390fd5b6001826007811115612e0557612e05615b1a565b03612e1a576000838152601860205260408120555b6002826007811115612e2e57612e2e615b1a565b03612e46576000838152601860205260408120600101555b6003826007811115612e5a57612e5a615b1a565b03612e72576000838152601860205260408120600201555b6004826007811115612e8657612e86615b1a565b03612e9e576000838152601860205260408120600301555b6005826007811115612eb257612eb2615b1a565b03612eca576000838152601860205260408120600401555b6006826007811115612ede57612ede615b1a565b03612ef6576000838152601860205260408120600501555b6007826007811115612f0a57612f0a615b1a565b03612f22576000838152601860205260408120600601555b82612f2c8461219d565b6001600160a01b03167f3d8ac56c725fc7985e9444622a45baee28ba67d8a964045f747b465121f40e71846007811115612f6857612f68615b1a565b60405160ff9091168152602001612d68565b612fe960405180610180016040528060008152602001600081526020016000815260200160008152602001600081526020016000815260200160008152602001600063ffffffff16815260200160008152602001600060ff168152602001606081526020016000151581525090565b600082815260186020908152604091829020825161018081018452815481526001820154928101929092526002810154928201929092526003820154606082015260048201546080820152600582015460a0820152600682015460c0820152600782015463ffffffff1660e08201526008820154610100820152600982015460ff16610120820152600a820180549192916101408401919061308a90615982565b80601f01602080910402602001604051908101604052809291908181526020018280546130b690615982565b80156131035780601f106130d857610100808354040283529160200191613103565b820191906000526020600020905b8154815290600101906020018083116130e657829003601f168201915b5050509183525050600b919091015460ff16151560209091015292915050565b60006131537f00000000000000000000000000000000000000000000000000000000000000006301e13380615c19565b905090565b613160613a65565b601554156131815760405163703e78e960e11b815260040160405180910390fd5b601555565b816131908161219d565b6001600160a01b0316336001600160a01b0316146131c157604051631431735b60e21b815260040160405180910390fd5b815182906006146131e557604051631cf7e9c560e01b815260040160405180910390fd5b60005b600681101561333257603060f81b82828151811061320857613208615a35565b01602001516001600160f81b031916108015906132495750603960f81b82828151811061323757613237615a35565b01602001516001600160f81b03191611155b1580156132ab5750604160f81b82828151811061326857613268615a35565b01602001516001600160f81b031916108015906132a95750604660f81b82828151811061329757613297615a35565b01602001516001600160f81b03191611155b155b801561330c5750606160f81b8282815181106132c9576132c9615a35565b01602001516001600160f81b0319161080159061330a5750606660f81b8282815181106132f8576132f8615a35565b01602001516001600160f81b03191611155b155b1561332a57604051631cf7e9c560e01b815260040160405180910390fd5b6001016131e8565b506000848152601860205260409020600a0161334e8482615dd3565b50836133598561219d565b6001600160a01b03167f2e34f8c0f6052b66319b4a5df14eac164c6af8a0b37f612d4304a777e1ae7a3d856040516133919190614fe5565b60405180910390a350505050565b60608060608060608060606133d56040518060800160405280606081526020016060815260200160608152602001600081525090565b60006133e08a612f7a565b90506133eb81612683565b50600c5460405163bb12d21d60e01b8152929a509097506001600160a01b03169063bb12d21d906134209084906004016157af565b600060405180830381865afa15801561343d573d6000803e3d6000fd5b505050506040513d6000823e601f3d908101601f191682016040526134659190810190615b30565b60405192995090965093506134809087908790602001615bb7565b60408051601f19818403018152919052610140820151835293506134a38a6127f0565b51606083015261012081015160ff166000908152600b6020526040902060010180546134ce90615982565b80601f01602080910402602001604051908101604052809291908181526020018280546134fa90615982565b80156135475780601f1061351c57610100808354040283529160200191613547565b820191906000526020600020905b81548152906001019060200180831161352a57829003601f168201915b505050505082602001819052506135708a6000908152601860205260409020600b015460ff1690565b61359457604051806040016040528060028152602001610c9160f21b8152506135b0565b604051806040016040528060028152602001610cd160f21b8152505b604080840191909152601054905163efcc1e3160e01b81526001600160a01b039091169063efcc1e31906135f2908d908c908c9089908b908a90600401615ef1565b600060405180830381865afa15801561360f573d6000803e3d6000fd5b505050506040513d6000823e601f3d908101601f191682016040526136379190810190615a01565b9a9950505050505050505050565b8161364f8161219d565b6001600160a01b0316336001600160a01b03161461368057604051631431735b60e21b815260040160405180910390fd5b60048260ff1611156136a5576040516329ba348d60e11b815260040160405180910390fd5b6000838152601860205260409020600901805460ff191660ff8416179055826136cd8161219d565b60405160ff851681526001600160a01b0391909116907f454db5768a3f8187a5dd5e9cca100cf699d74d8a03f793d16da3932cdf34d35890602001612d68565b613715613a65565b63389a75e1600c52806000526020600c20805442111561373d57636f5e88186000526004601cfd5b60009055611bb881614363565b613752613a65565b61375a612072565b156137785760405163774ae17d60e01b815260040160405180910390fd5b6000848152600b60205260409020848155600181016137978582615dd3565b50600281016137a68482615dd3565b50600381016137b58382615dd3565b505050505050565b6137c5613a65565b8060601b6137db57637448fbae6000526004601cfd5b611bb881614363565b60608060608060606138176040518060800160405280606081526020016060815260200160608152602001600081525090565b600061382288612f7a565b905061382d81612923565b50600c54604051631be5857160e31b81529197506001600160a01b03169063df2c2b889061385f9084906004016157af565b600060405180830381865afa15801561387c573d6000803e3d6000fd5b505050506040513d6000823e601f3d908101601f191682016040526138a49190810190615f65565b90955093506138b288611405565b610140820151835292506138c5886127f0565b51606083015261012081015160ff166000908152600b6020526040902060010180546138f090615982565b80601f016020809104026020016040519081016040528092919081815260200182805461391c90615982565b80156139695780601f1061393e57610100808354040283529160200191613969565b820191906000526020600020905b81548152906001019060200180831161394c57829003601f168201915b50505050508260200181905250613992886000908152601860205260409020600b015460ff1690565b6139b657604051806040016040528060028152602001610c9160f21b8152506139d2565b604051806040016040528060028152602001610cd160f21b8152505b604080840191909152600f5490516307df90cf60e11b81526001600160a01b0390911690630fbf219e90613a14908b908a908a908a908a908a90600401615ef1565b600060405180830381865afa158015613a31573d6000803e3d6000fd5b505050506040513d6000823e601f3d908101601f19168201604052613a599190810190615a01565b98975050505050505050565b638b78c6d819543314611c15576382b429006000526004601cfd5b60006001600160e01b0319821663780e9d6360e01b14806111055750611105826143ea565b6000818152600260205260409020546001600160a01b0316611bb85760405162461bcd60e51b8152602060048201526018602482015277115490cdcc8c4e881a5b9d985b1a59081d1bdad95b88125160421b604482015260640161166f565b6000918252601b6020908152604083208054600181018255908452922090910180546001600160a01b0319166001600160a01b03909216919091179055565b600081815260046020526040902080546001600160a01b0319166001600160a01b0384169081179091558190613b788261219d565b6001600160a01b03167f8c5be1e5ebec7d5bd14f71427d1e84f3dd0314c0f7b2291e5b200ac8c7c3b92560405160405180910390a45050565b600080613bbd8361219d565b9050806001600160a01b0316846001600160a01b03161480613c0457506001600160a01b0380821660009081526005602090815260408083209388168352929052205460ff165b8061255e5750836001600160a01b0316613c1d846111cc565b6001600160a01b031614949350505050565b826001600160a01b0316613c428261219d565b6001600160a01b031614613ca65760405162461bcd60e51b815260206004820152602560248201527f4552433732313a207472616e736665722066726f6d20696e636f72726563742060448201526437bbb732b960d91b606482015260840161166f565b6001600160a01b038216613d085760405162461bcd60e51b8152602060048201526024808201527f4552433732313a207472616e7366657220746f20746865207a65726f206164646044820152637265737360e01b606482015260840161166f565b613d1383838361443a565b613d1e600082613b43565b6001600160a01b0383166000908152600360205260408120805460019290613d47908490615fbe565b90915550506001600160a01b0382166000908152600360205260408120805460019290613d75908490615c19565b909155505060008181526002602052604080822080546001600160a01b0319166001600160a01b0386811691821790925591518493918716917fddf252ad1be2c89b69c2b068fc378daa952ba7f163c4a11628f55a4df523b3ef91a461168383838361484b565b600082815260196020526040812054613dfe906001600160a01b0316836140f9565b600c5460405163e8a1268d60e01b8152600481018490526001600160a01b039091169063e8a1268d90602401602060405180830381865afa158015613e47573d6000803e3d6000fd5b505050506040513d601f19601f82011682018060405250810190613e6b9190615fd1565b9050611105828261419b565b60005b8281101561210f576012805460010190819055613e978582614855565b604051638a54c52f60e01b81527355266d75d1a14e4572138116af39863ed6596e7f600482015260006024820181905262014a34604483015230606483015260848201839052906f6551c19487814612e58fe0681377575890638a54c52f9060a4016020604051808303816000875af1158015613f18573d6000803e3d6000fd5b505050506040513d601f19601f82011682018060405250810190613f3c9190615be6565b600083815260196020908152604080832080546001600160a01b0319166001600160a01b038616908117909155808452601a90925291829020859055905163189acdbd60e31b81527341c8f39463a868d3a88af00cd0fe7102f30e44ec60048201529192509063c4d66de890602401600060405180830381600087803b158015613fc557600080fd5b505af1158015613fd9573d6000803e3d6000fd5b5050600e546040516358a2727360e01b81526001600160a01b03858116600483015260ff8916602483015290911692506358a2727391506044016000604051808303816000875af1158015614032573d6000803e3d6000fd5b505050506040513d6000823e601f3d908101601f1916820160405261405a9190810190615cef565b5060008281526018602090815260409182902060088101859055825191820185905291600591016040516020818303038152906040528051906020012060001c816140a7576140a7615fee565b60098301805460ff19169290910660ff169190911790556040805180820190915260068152650c110d914e5160d21b6020820152600a8201906140ea9082615dd3565b50505050806001019050613e7a565b600c546040516331a9108f60e11b8152600481018390526000916001600160a01b031690636352211e90602401602060405180830381865afa158015614143573d6000803e3d6000fd5b505050506040513d601f19601f820116820180604052508101906141679190615be6565b9050826001600160a01b0316816001600160a01b0316146116835760405163e6ca793160e01b815260040160405180910390fd5b600c5460405163e8a1268d60e01b8152600481018490526000916001600160a01b03169063e8a1268d90602401602060405180830381865afa1580156141e5573d6000803e3d6000fd5b505050506040513d601f19601f820116820180604052508101906142099190615fd1565b905081600781111561421d5761421d615b1a565b60405160200161422f91815260200190565b6040516020818303038152906040528051906020012081600781111561425757614257615b1a565b60405160200161426991815260200190565b604051602081830303815290604052805190602001201461168357604051633e54c6fb60e11b815260040160405180910390fd5b816001600160a01b0316836001600160a01b0316036142fe5760405162461bcd60e51b815260206004820152601960248201527f4552433732313a20617070726f766520746f2063616c6c657200000000000000604482015260640161166f565b6001600160a01b03838116600081815260056020908152604080832094871680845294825291829020805460ff191686151590811790915591519182527f17307eab39ab6107e8899845ad3d59bd9653f200f220920489ca2b5937696c319101612d68565b638b78c6d81980546001600160a01b039092169182907f8be0079c531659141344cd1fd0a4f28419497f9722a3daafe3b4186f6b6457e0600080a355565b6143ac848484613c2f565b6143b8848484846149ab565b61210f5760405162461bcd60e51b815260040161166f90616004565b6000826143e18584614aac565b14949350505050565b60006001600160e01b031982166380ac58cd60e01b148061441b57506001600160e01b03198216635b5e139f60e01b145b8061110557506301ffc9a760e01b6001600160e01b0319831614611105565b6001600160a01b03831661445357611683838383614ae7565b6015546144639062015180615c19565b4210156144835760405163ae735dad60e01b815260040160405180910390fd5b6001600160a01b0382166000908152601a6020526040902054156144ba57604051639a42da2960e01b815260040160405180910390fd5b6000818152601960205260408120546001600160a01b0316906144dc84611c17565b9050600081516001600160401b038111156144f9576144f96150af565b604051908082528060200260200182016040528015614522578160200160208202803683370190505b50905060005b82518110156145a3576019600084838151811061454757614547615a35565b6020026020010151815260200190815260200160002060009054906101000a90046001600160a01b031682828151811061458357614583615a35565b6001600160a01b0390921660209283029190910190910152600101614528565b50600d5460405163644ec52760e01b8152600481018690526001600160a01b039091169063644ec52790602401600060405180830381600087803b1580156145ea57600080fd5b505af11580156145fe573d6000803e3d6000fd5b5050600d54604051631e92beb560e31b8152600481018890526001600160a01b038981166024830152909116925063f495f5a89150604401600060405180830381600087803b15801561465057600080fd5b505af1158015614664573d6000803e3d6000fd5b5050600c5460405162438b6360e81b81526001600160a01b03878116600483015260009450909116915063438b630090602401600060405180830381865afa1580156146b4573d6000803e3d6000fd5b505050506040513d6000823e601f3d908101601f191682016040526146dc9190810190615cef565b905060005b81518110156148365760008282815181106146fe576146fe615a35565b6020908102919091010151600d54604051632e1d274f60e01b8152600481018390529192506001600160a01b031690632e1d274f90602401600060405180830381600087803b15801561475057600080fd5b505af1158015614764573d6000803e3d6000fd5b5050600d54604051632333520b60e11b81526001600160a01b039091169250634666a416915061479a9084908890600401616056565b600060405180830381600087803b1580156147b457600080fd5b505af11580156147c8573d6000803e3d6000fd5b5050600c5460405163487b1c2160e11b8152600481018590526001600160a01b0390911692506390f638429150602401600060405180830381600087803b15801561481257600080fd5b505af1158015614826573d6000803e3d6000fd5b50505050508060010190506146e1565b50614842878787614ae7565b50505050505050565b6116838184614b9f565b6001600160a01b0382166148ab5760405162461bcd60e51b815260206004820181905260248201527f4552433732313a206d696e7420746f20746865207a65726f2061646472657373604482015260640161166f565b6000818152600260205260409020546001600160a01b0316156149105760405162461bcd60e51b815260206004820152601c60248201527f4552433732313a20746f6b656e20616c7265616479206d696e74656400000000604482015260640161166f565b61491c6000838361443a565b6001600160a01b0382166000908152600360205260408120805460019290614945908490615c19565b909155505060008181526002602052604080822080546001600160a01b0319166001600160a01b03861690811790915590518392907fddf252ad1be2c89b69c2b068fc378daa952ba7f163c4a11628f55a4df523b3ef908290a46112406000838361484b565b60006001600160a01b0384163b15614aa157604051630a85bd0160e11b81526001600160a01b0385169063150b7a02906149ef90339089908890889060040161606f565b6020604051808303816000875af1925050508015614a2a575060408051601f3d908101601f19168201909252614a27918101906160a2565b60015b614a87573d808015614a58576040519150601f19603f3d011682016040523d82523d6000602084013e614a5d565b606091505b508051600003614a7f5760405162461bcd60e51b815260040161166f90616004565b805181602001fd5b6001600160e01b031916630a85bd0160e11b14905061255e565b506001949350505050565b600081815b8451811015611ca657614add82868381518110614ad057614ad0615a35565b6020026020010151614c88565b9150600101614ab1565b6001600160a01b038316614b4257614b3d81600880546000838152600960205260408120829055600182018355919091527ff3f7a9fe364faab93b216da50a3214154f22a0a2b415b23a84c8169e8b636ee30155565b614b65565b816001600160a01b0316836001600160a01b031614614b6557614b658382614cb4565b6001600160a01b038216614b7c5761168381614d51565b826001600160a01b0316826001600160a01b031614611683576116838282614e00565b6000828152601b6020908152604080832080548251818502810185019093528083529192909190830182828015614bff57602002820191906000526020600020905b81546001600160a01b03168152600190910190602001808311614be1575b5050506000868152601960205260408120549394506001600160a01b03909316929150505b8251811015614c7057614c5284848381518110614c4357614c43615a35565b6020026020010151600061429d565b614c6882848381518110614c4357614c43615a35565b600101614c24565b506000848152601b6020526040812061210f91614e8d565b6000818310614ca457600082815260208490526040902061266f565b5060009182526020526040902090565b60006001614cc1846123bf565b614ccb9190615fbe565b600083815260076020526040902054909150808214614d1e576001600160a01b03841660009081526006602090815260408083208584528252808320548484528184208190558352600790915290208190555b5060009182526007602090815260408084208490556001600160a01b039094168352600681528383209183525290812055565b600854600090614d6390600190615fbe565b60008381526009602052604081205460088054939450909284908110614d8b57614d8b615a35565b906000526020600020015490508060088381548110614dac57614dac615a35565b6000918252602080832090910192909255828152600990915260408082208490558582528120556008805480614de457614de46160bf565b6001900381819060005260206000200160009055905550505050565b6000614e0b836123bf565b6001600160a01b039093166000908152600660209081526040808320868452825280832085905593825260079052919091209190915550565b8260028101928215614e7d579160200282015b82811115614e7d5782518290614e6d9082615dd3565b5091602001919060010190614e57565b50614e89929150614eab565b5090565b5080546000825590600052602060002090810190611bb89190614ec8565b80821115614e89576000614ebf8282614edd565b50600101614eab565b5b80821115614e895760008155600101614ec9565b508054614ee990615982565b6000825580601f10614ef9575050565b601f016020900490600052602060002090810190611bb89190614ec8565b6001600160a01b0381168114611bb857600080fd5b600060208284031215614f3e57600080fd5b813561266f81614f17565b6001600160e01b031981168114611bb857600080fd5b600060208284031215614f7157600080fd5b813561266f81614f49565b600060208284031215614f8e57600080fd5b5035919050565b60005b83811015614fb0578181015183820152602001614f98565b50506000910152565b60008151808452614fd1816020860160208601614f95565b601f01601f19169290920160200192915050565b60208152600061266f6020830184614fb9565b6000806040838503121561500b57600080fd5b823561501681614f17565b946020939093013593505050565b84815260806020820152600061503d6080830186614fb9565b828103604084015261504f8186614fb9565b905082810360608401526150638185614fb9565b979650505050505050565b60008060006060848603121561508357600080fd5b833561508e81614f17565b9250602084013561509e81614f17565b929592945050506040919091013590565b634e487b7160e01b600052604160045260246000fd5b604080519081016001600160401b03811182821017156150e7576150e76150af565b60405290565b60405161018081016001600160401b03811182821017156150e7576150e76150af565b604051601f8201601f191681016001600160401b0381118282101715615138576151386150af565b604052919050565b60006001600160401b03821115615159576151596150af565b50601f01601f191660200190565b600082601f83011261517857600080fd5b813561518b61518682615140565b615110565b8181528460208386010111156151a057600080fd5b816020850160208301376000918101602001919091529392505050565b600060208083850312156151d057600080fd5b82356001600160401b03808211156151e757600080fd5b818501915085601f8301126151fb57600080fd5b6152036150c5565b80604084018881111561521557600080fd5b845b818110156152495780358581111561522f5760008081fd5b61523b8b828901615167565b855250928601928601615217565b509098975050505050505050565b6000806040838503121561526a57600080fd5b50508035926020909101359150565b6020808252825182820181905260009190848201906040850190845b818110156152b157835183529284019291840191600101615295565b50909695505050505050565b600080600080600080600080610100898b0312156152da57600080fd5b505086359860208801359850604088013597606081013597506080810135965060a0810135955060c0810135945060e0013592509050565b8035801515811461532257600080fd5b919050565b60008060006060848603121561533c57600080fd5b83359250602084013561534e81614f17565b915061535c60408501615312565b90509250925092565b60008151808452602080850194506020840160005b8381101561539f5781516001600160a01b03168752958201959082019060010161537a565b509495945050505050565b60208152600061266f6020830184615365565b803560ff8116811461532257600080fd5b6000806000606084860312156153e357600080fd5b83356153ee81614f17565b92506020840135915061535c604085016153bd565b803563ffffffff8116811461532257600080fd5b60006020828403121561542957600080fd5b81356001600160401b038082111561544057600080fd5b90830190610180828603121561545557600080fd5b61545d6150ed565b823581526020830135602082015260408301356040820152606083013560608201526080830135608082015260a083013560a082015260c083013560c08201526154a960e08401615403565b60e082015261010083810135908201526101206154c78185016153bd565b9082015261014083810135838111156154df57600080fd5b6154eb88828701615167565b8284015250506101609150615501828401615312565b91810191909152949350505050565b6060815260006155236060830186614fb9565b82810360208401526155358186614fb9565b9050828103604084015261163f8185614fb9565b6000806040838503121561555c57600080fd5b823561556781614f17565b915061557560208401615312565b90509250929050565b6040815260006155916040830185614fb9565b82810360208401526155a38185614fb9565b95945050505050565b60006101808e83528d60208401528c60408401528b60608401528a60808401528960a08401528860c084015263ffffffff881660e08401528661010084015260ff86166101208401528061014084015261560881840186614fb9565b9150508215156101608301529d9c50505050505050505050505050565b6000806000806080858703121561563b57600080fd5b843561564681614f17565b9350602085013561565681614f17565b92506040850135915060608501356001600160401b0381111561567857600080fd5b61568487828801615167565b91505092959194509250565b60006001600160401b038211156156a9576156a96150af565b5060051b60200190565b600080604083850312156156c657600080fd5b823591506020808401356001600160401b038111156156e457600080fd5b8401601f810186136156f557600080fd5b803561570361518682615690565b81815260059190911b8201830190838101908883111561572257600080fd5b928401925b8284101561574057833582529284019290840190615727565b80955050505050509250929050565b6000806040838503121561576257600080fd5b8235915061557560208401615312565b60088110611bb857600080fd5b6000806040838503121561579257600080fd5b8235915060208301356157a481615772565b809150509250929050565b6020815281516020820152602082015160408201526040820151606082015260608201516080820152608082015160a082015260a082015160c082015260c082015160e0820152600060e08301516101006158118185018363ffffffff169052565b8401516101208481019190915284015190506101406158348185018360ff169052565b8085015191505061018061016081818601526158546101a0860184614fb9565b95015115159301929092525090919050565b6000806040838503121561587957600080fd5b8235915060208301356001600160401b0381111561589657600080fd5b6158a285828601615167565b9150509250929050565b600080604083850312156158bf57600080fd5b82359150615575602084016153bd565b600080604083850312156158e257600080fd5b82356158ed81614f17565b915060208301356157a481614f17565b6000806000806080858703121561591357600080fd5b8435935060208501356001600160401b038082111561593157600080fd5b61593d88838901615167565b9450604087013591508082111561595357600080fd5b61595f88838901615167565b9350606087013591508082111561597557600080fd5b5061568487828801615167565b600181811c9082168061599657607f821691505b6020821081036159b657634e487b7160e01b600052602260045260246000fd5b50919050565b600082601f8301126159cd57600080fd5b81516159db61518682615140565b8181528460208386010111156159f057600080fd5b61255e826020830160208701614f95565b600060208284031215615a1357600080fd5b81516001600160401b03811115615a2957600080fd5b61255e848285016159bc565b634e487b7160e01b600052603260045260246000fd5b608081526000615a5e6080830187614fb9565b6020838203818501528187518084528284019150828160051b850101838a0160005b83811015615aae57601f19878403018552615a9c838351614fb9565b94860194925090850190600101615a80565b50506040870198909852505050506060909101919091525092915050565b6020808252602e908201527f4552433732313a2063616c6c6572206973206e6f7420746f6b656e206f776e6560408201526d1c881b9bdc88185c1c1c9bdd995960921b606082015260800190565b634e487b7160e01b600052602160045260246000fd5b600080600060608486031215615b4557600080fd5b83516001600160401b0380821115615b5c57600080fd5b615b68878388016159bc565b94506020860151915080821115615b7e57600080fd5b615b8a878388016159bc565b93506040860151915080821115615ba057600080fd5b50615bad868287016159bc565b9150509250925092565b60008351615bc9818460208801614f95565b835190830190615bdd818360208801614f95565b01949350505050565b600060208284031215615bf857600080fd5b815161266f81614f17565b634e487b7160e01b600052601160045260246000fd5b8082018082111561110557611105615c03565b60008154615c3981615982565b808552602060018381168015615c565760018114615c7057615c9e565b60ff1985168884015283151560051b880183019550615c9e565b866000528260002060005b85811015615c965781548a8201860152908301908401615c7b565b890184019650505b505050505092915050565b60208152600061266f6020830184615c2c565b604081526009604082015268426f6479205479706560b81b606082015260806020820152600061266f6080830184615c2c565b60006020808385031215615d0257600080fd5b82516001600160401b03811115615d1857600080fd5b8301601f81018513615d2957600080fd5b8051615d3761518682615690565b81815260059190911b82018301908381019087831115615d5657600080fd5b928401925b8284101561506357835182529284019290840190615d5b565b808202811582820484141761110557611105615c03565b601f821115611683576000816000526020600020601f850160051c81016020861015615db45750805b601f850160051c820191505b818110156137b557828155600101615dc0565b81516001600160401b03811115615dec57615dec6150af565b615e0081615dfa8454615982565b84615d8b565b602080601f831160018114615e355760008415615e1d5750858301515b600019600386901b1c1916600185901b1785556137b5565b600085815260208120601f198616915b82811015615e6457888601518255948401946001909101908401615e45565b5085821015615e825787850151600019600388901b60f8161c191681555b5050505050600190811b01905550565b6000815160808452615ea76080850182614fb9565b905060208301518482036020860152615ec08282614fb9565b91505060408301518482036040860152615eda8282614fb9565b915050606083015160608501528091505092915050565b86815260c060208201526000615f0a60c0830188614fb9565b8281036040840152615f1c8188614fb9565b90508281036060840152615f308187614fb9565b90508281036080840152615f448186614fb9565b905082810360a0840152615f588185615e92565b9998505050505050505050565b60008060408385031215615f7857600080fd5b82516001600160401b0380821115615f8f57600080fd5b615f9b868387016159bc565b93506020850151915080821115615fb157600080fd5b506158a2858286016159bc565b8181038181111561110557611105615c03565b600060208284031215615fe357600080fd5b815161266f81615772565b634e487b7160e01b600052601260045260246000fd5b60208082526032908201527f4552433732313a207472616e7366657220746f206e6f6e20455243373231526560408201527131b2b4bb32b91034b6b83632b6b2b73a32b960711b606082015260800190565b82815260406020820152600061255e6040830184615365565b6001600160a01b038581168252841660208201526040810183905260806060820181905260009061163f90830184614fb9565b6000602082840312156160b457600080fd5b815161266f81614f49565b634e487b7160e01b600052603160045260246000fdfec94c1c47471ed97c1d309bab965192a3e4be3807f42d015b699bfbdcf24dd9f6a26469706673582212204551e24cda306665b184fe42b338bf9bb536dbc19a497485a5063d28a70ed00864736f6c63430008160033","linkReferences":{}},"methodIdentifiers":{"_nextTokenId()":"4a60f620","addNewBody(uint256,string,bytes,bytes)":"f2361e23","approve(address,uint256)":"095ea7b3","balanceOf(address)":"70a08231","bodyIndexToMetadata(uint256)":"0c83f9d7","cancelOwnershipHandover()":"54d1f13d","checkIfTraitIsEquipped(uint256,uint256)":"8aa1e4c8","chonkIdToApprovedOperators(uint256,uint256)":"55737f35","chonkTokens(uint256)":"b45d0316","collectionsMerkle()":"80d833f1","completeOwnershipHandover(address)":"f04e283e","creatorsMerkle()":"a1531780","deploymentTime()":"ecda10f5","equip(uint256,uint256)":"28257532","equipAll(uint256,uint256,uint256,uint256,uint256,uint256,uint256,uint256)":"4a4333a3","firstReleaseDataMinter()":"fd8b66de","friendsMerkle()":"fc863e64","getApproved(uint256)":"081812fc","getBackpackSVGs(uint256)":"14fe8ff4","getBodyImageSvg(uint256)":"916c546b","getBodySVGZmapsAndMetadata((uint256,uint256,uint256,uint256,uint256,uint256,uint256,uint32,uint256,uint8,string,bool))":"92012f08","getBodySvgAndMetadata((uint256,uint256,uint256,uint256,uint256,uint256,uint256,uint32,uint256,uint8,string,bool))":"a23830ae","getBodyZMap(uint256)":"306c7334","getChonk(uint256)":"d3d6873e","getChonkIdForTBAAddress(address)":"8472cbca","getChonkIdToApprovedOperators(uint256)":"67d2afe2","getChonkZMap(uint256)":"32875aa0","getFullPictureForTrait(uint256)":"66704349","getOwnerAndTBAAddressForChonkId(uint256)":"04003bd0","getTBAAddressForChonkId(uint256)":"f6a0c932","getTokenRenderZ(uint256)":"8200ea51","getTraitsForChonkId(uint256)":"9f6e4637","isApprovedForAll(address,address)":"e985e9c5","isTimelocked()":"50b03146","mainRenderer2D()":"f4bec0b6","mainRenderer3D()":"b66ef6e3","marketplace()":"abc8c7af","maxTraitsToOutput()":"e3d21555","mint(uint256,bytes32[])":"ba41b0c6","mintStartTime()":"931e2e49","name()":"06fdde03","oneYearFromDeployment()":"d59752eb","owner()":"8da5cb5b","ownerOf(uint256)":"6352211e","ownershipHandoverExpiresAt(address)":"fee81cf4","price()":"a035b1fe","renderAsDataUri(uint256)":"a1d62680","renderAsDataUri2D(uint256)":"f3f8efb9","renderAsDataUri3D(uint256)":"dceef0ec","renounceOwnership()":"715018a6","requestOwnershipHandover()":"25692962","safeTransferFrom(address,address,uint256)":"42842e0e","safeTransferFrom(address,address,uint256,bytes)":"b88d4fde","setApprovalForAll(address,bool)":"a22cb465","setApprovalForAllChonksMarketplace(uint256,address,bool)":"550ab247","setBackgroundColor(uint256,string)":"d68c4f32","setBodyIndex(uint256,uint8)":"e1405540","setCollectionsMerkle(bytes32)":"8d2a2f11","setCreatorsMerkle(bytes32)":"b194b6f1","setDescriptionParts(string[2])":"26f2052a","setFirstReleaseDataMinter(address)":"b84b160d","setFriendsMerkleRoot(bytes32)":"9eb2660c","setMainRenderer2D(address)":"7e2e6c47","setMainRenderer3D(address)":"00179206","setMarketplace(address)":"73ad6c2d","setMaxTraitsToOutput(uint256)":"33d3d9bf","setMintStartTime(uint256)":"d5b3621b","setPrice(uint256)":"91b7f5ed","setTokenRender3D(uint256,bool)":"bef1dfb7","setTraitsContract(address)":"5eabd84a","setWithdrawAddress(address)":"3ab1a494","supportsInterface(bytes4)":"01ffc9a7","symbol()":"95d89b41","tbaAddressToTokenId(address)":"a4bf9a00","teamMint(address,uint256,uint8)":"6e51665f","teamReserve()":"4287f14a","tokenByIndex(uint256)":"4f6ccce7","tokenIdToTBAAccountAddress(uint256)":"9c05d68d","tokenOfOwnerByIndex(address,uint256)":"2f745c59","tokenURI(uint256)":"c87b56dd","totalSupply()":"18160ddd","traitsContract()":"c093afdb","transferFrom(address,address,uint256)":"23b872dd","transferOwnership(address)":"f2fde38b","unequip(uint256,uint8)":"cdb6dd5c","unequipAll(uint256)":"3044825b","walletOfOwner(address)":"438b6300","withdraw()":"3ccfd60b","withdrawAddress()":"1581b600"},"id":42}