{"abi":[{"type":"constructor","inputs":[{"name":"_chonksMain","type":"address","internalType":"address"},{"name":"_chonkTraits","type":"address","internalType":"address"},{"name":"_royaltyPercentage","type":"uint8","internalType":"uint8"},{"name":"_teamWallet","type":"address","internalType":"address"}],"stateMutability":"nonpayable"},{"type":"function","name":"CHONKS_MAIN","inputs":[],"outputs":[{"name":"","type":"address","internalType":"contract ChonksMain"}],"stateMutability":"view"},{"type":"function","name":"CHONK_TRAITS","inputs":[],"outputs":[{"name":"","type":"address","internalType":"contract ChonkTraits"}],"stateMutability":"view"},{"type":"function","name":"acceptBidForChonk","inputs":[{"name":"_chonkId","type":"uint256","internalType":"uint256"},{"name":"_bidder","type":"address","internalType":"address"}],"outputs":[],"stateMutability":"nonpayable"},{"type":"function","name":"acceptBidForTrait","inputs":[{"name":"_traitId","type":"uint256","internalType":"uint256"},{"name":"_bidder","type":"address","internalType":"address"}],"outputs":[],"stateMutability":"nonpayable"},{"type":"function","name":"bidOnChonk","inputs":[{"name":"_chonkId","type":"uint256","internalType":"uint256"}],"outputs":[],"stateMutability":"payable"},{"type":"function","name":"bidOnTrait","inputs":[{"name":"_traitId","type":"uint256","internalType":"uint256"},{"name":"_yourChonkId","type":"uint256","internalType":"uint256"}],"outputs":[],"stateMutability":"payable"},{"type":"function","name":"buyChonk","inputs":[{"name":"_chonkId","type":"uint256","internalType":"uint256"}],"outputs":[],"stateMutability":"payable"},{"type":"function","name":"buyTrait","inputs":[{"name":"_traitId","type":"uint256","internalType":"uint256"},{"name":"_forChonkId","type":"uint256","internalType":"uint256"}],"outputs":[],"stateMutability":"payable"},{"type":"function","name":"calculateRoyalty","inputs":[{"name":"_amount","type":"uint256","internalType":"uint256"}],"outputs":[{"name":"","type":"uint256","internalType":"uint256"}],"stateMutability":"view"},{"type":"function","name":"cancelOfferChonk","inputs":[{"name":"_chonkId","type":"uint256","internalType":"uint256"}],"outputs":[],"stateMutability":"nonpayable"},{"type":"function","name":"cancelOfferTrait","inputs":[{"name":"_traitId","type":"uint256","internalType":"uint256"},{"name":"_chonkId","type":"uint256","internalType":"uint256"}],"outputs":[],"stateMutability":"nonpayable"},{"type":"function","name":"cancelOwnershipHandover","inputs":[],"outputs":[],"stateMutability":"payable"},{"type":"function","name":"chonkBids","inputs":[{"name":"chonkId","type":"uint256","internalType":"uint256"}],"outputs":[{"name":"bidder","type":"address","internalType":"address"},{"name":"amountInWei","type":"uint256","internalType":"uint256"},{"name":"encodedTraitIds","type":"bytes","internalType":"bytes"}],"stateMutability":"view"},{"type":"function","name":"chonkIdToApprovedOperators","inputs":[{"name":"chonkId","type":"uint256","internalType":"uint256"},{"name":"","type":"uint256","internalType":"uint256"}],"outputs":[{"name":"operators","type":"address","internalType":"address"}],"stateMutability":"view"},{"type":"function","name":"chonkOffers","inputs":[{"name":"chonkId","type":"uint256","internalType":"uint256"}],"outputs":[{"name":"priceInWei","type":"uint256","internalType":"uint256"},{"name":"seller","type":"address","internalType":"address"},{"name":"sellerTBA","type":"address","internalType":"address"},{"name":"onlySellTo","type":"address","internalType":"address"},{"name":"encodedTraitIds","type":"bytes","internalType":"bytes"}],"stateMutability":"view"},{"type":"function","name":"completeOwnershipHandover","inputs":[{"name":"pendingOwner","type":"address","internalType":"address"}],"outputs":[],"stateMutability":"payable"},{"type":"function","name":"deleteChonkBidsBeforeTokenTransfer","inputs":[{"name":"_chonkId","type":"uint256","internalType":"uint256"},{"name":"_toEOA","type":"address","internalType":"address"}],"outputs":[],"stateMutability":"nonpayable"},{"type":"function","name":"deleteChonkOfferBeforeTokenTransfer","inputs":[{"name":"_chonkId","type":"uint256","internalType":"uint256"}],"outputs":[],"stateMutability":"nonpayable"},{"type":"function","name":"deleteTraitBidsBeforeTokenTransfer","inputs":[{"name":"_traitId","type":"uint256","internalType":"uint256"},{"name":"_toTBA","type":"address","internalType":"address"}],"outputs":[],"stateMutability":"nonpayable"},{"type":"function","name":"deleteTraitBidsBeforeTokenTransfer","inputs":[{"name":"_traitId","type":"uint256","internalType":"uint256"},{"name":"_toTBAs","type":"address[]","internalType":"address[]"}],"outputs":[],"stateMutability":"nonpayable"},{"type":"function","name":"deleteTraitOffersBeforeTokenTransfer","inputs":[{"name":"_traitId","type":"uint256","internalType":"uint256"}],"outputs":[],"stateMutability":"nonpayable"},{"type":"function","name":"ensureTraitOwner","inputs":[{"name":"_traitId","type":"uint256","internalType":"uint256"},{"name":"_chonkId","type":"uint256","internalType":"uint256"}],"outputs":[{"name":"","type":"bool","internalType":"bool"}],"stateMutability":"view"},{"type":"function","name":"getChonkBid","inputs":[{"name":"_chonkId","type":"uint256","internalType":"uint256"}],"outputs":[{"name":"bidder","type":"address","internalType":"address"},{"name":"amountInWei","type":"uint256","internalType":"uint256"},{"name":"traitIds","type":"uint256[]","internalType":"uint256[]"},{"name":"encodedTraitIds","type":"bytes","internalType":"bytes"}],"stateMutability":"view"},{"type":"function","name":"getChonkOffer","inputs":[{"name":"_chonkId","type":"uint256","internalType":"uint256"}],"outputs":[{"name":"priceInWei","type":"uint256","internalType":"uint256"},{"name":"seller","type":"address","internalType":"address"},{"name":"sellerTBA","type":"address","internalType":"address"},{"name":"onlySellTo","type":"address","internalType":"address"},{"name":"traitIds","type":"uint256[]","internalType":"uint256[]"},{"name":"encodedTraitIds","type":"bytes","internalType":"bytes"}],"stateMutability":"view"},{"type":"function","name":"getTraitBid","inputs":[{"name":"_traitId","type":"uint256","internalType":"uint256"}],"outputs":[{"name":"bidder","type":"address","internalType":"address"},{"name":"bidderTBA","type":"address","internalType":"address"},{"name":"amountInWei","type":"uint256","internalType":"uint256"}],"stateMutability":"view"},{"type":"function","name":"getTraitIdsAndEncodingForChonk","inputs":[{"name":"_chonkId","type":"uint256","internalType":"uint256"}],"outputs":[{"name":"traitIds","type":"uint256[]","internalType":"uint256[]"},{"name":"encodedTraitIds","type":"bytes","internalType":"bytes"}],"stateMutability":"view"},{"type":"function","name":"getTraitOffer","inputs":[{"name":"_traitId","type":"uint256","internalType":"uint256"}],"outputs":[{"name":"priceInWei","type":"uint256","internalType":"uint256"},{"name":"seller","type":"address","internalType":"address"},{"name":"sellerTBA","type":"address","internalType":"address"},{"name":"onlySellTo","type":"address","internalType":"address"}],"stateMutability":"view"},{"type":"function","name":"offerChonk","inputs":[{"name":"_chonkId","type":"uint256","internalType":"uint256"},{"name":"_priceInWei","type":"uint256","internalType":"uint256"}],"outputs":[],"stateMutability":"nonpayable"},{"type":"function","name":"offerChonkToAddress","inputs":[{"name":"_chonkId","type":"uint256","internalType":"uint256"},{"name":"_priceInWei","type":"uint256","internalType":"uint256"},{"name":"_onlySellTo","type":"address","internalType":"address"}],"outputs":[],"stateMutability":"nonpayable"},{"type":"function","name":"offerTrait","inputs":[{"name":"_traitId","type":"uint256","internalType":"uint256"},{"name":"_chonkId","type":"uint256","internalType":"uint256"},{"name":"_priceInWei","type":"uint256","internalType":"uint256"}],"outputs":[],"stateMutability":"nonpayable"},{"type":"function","name":"offerTraitToAddress","inputs":[{"name":"_traitId","type":"uint256","internalType":"uint256"},{"name":"_chonkId","type":"uint256","internalType":"uint256"},{"name":"_priceInWei","type":"uint256","internalType":"uint256"},{"name":"_onlySellTo","type":"address","internalType":"address"}],"outputs":[],"stateMutability":"nonpayable"},{"type":"function","name":"owner","inputs":[],"outputs":[{"name":"result","type":"address","internalType":"address"}],"stateMutability":"view"},{"type":"function","name":"ownershipHandoverExpiresAt","inputs":[{"name":"pendingOwner","type":"address","internalType":"address"}],"outputs":[{"name":"result","type":"uint256","internalType":"uint256"}],"stateMutability":"view"},{"type":"function","name":"pausabilityRevoked","inputs":[],"outputs":[{"name":"","type":"bool","internalType":"bool"}],"stateMutability":"view"},{"type":"function","name":"pause","inputs":[{"name":"_value","type":"bool","internalType":"bool"}],"outputs":[],"stateMutability":"nonpayable"},{"type":"function","name":"paused","inputs":[],"outputs":[{"name":"","type":"bool","internalType":"bool"}],"stateMutability":"view"},{"type":"function","name":"removeChonkOfferOnTraitTransfer","inputs":[{"name":"_chonkId","type":"uint256","internalType":"uint256"}],"outputs":[],"stateMutability":"nonpayable"},{"type":"function","name":"renounceOwnership","inputs":[],"outputs":[],"stateMutability":"payable"},{"type":"function","name":"requestOwnershipHandover","inputs":[],"outputs":[],"stateMutability":"payable"},{"type":"function","name":"revokePausability","inputs":[],"outputs":[],"stateMutability":"nonpayable"},{"type":"function","name":"royaltyPercentage","inputs":[],"outputs":[{"name":"","type":"uint256","internalType":"uint256"}],"stateMutability":"view"},{"type":"function","name":"setRoyaltyPercentage","inputs":[{"name":"_royaltyPercentage","type":"uint256","internalType":"uint256"}],"outputs":[],"stateMutability":"nonpayable"},{"type":"function","name":"setTeamWallet","inputs":[{"name":"_teamWallet","type":"address","internalType":"address"}],"outputs":[],"stateMutability":"nonpayable"},{"type":"function","name":"teamWallet","inputs":[],"outputs":[{"name":"","type":"address","internalType":"address"}],"stateMutability":"view"},{"type":"function","name":"traitBids","inputs":[{"name":"traitId","type":"uint256","internalType":"uint256"}],"outputs":[{"name":"bidder","type":"address","internalType":"address"},{"name":"bidderTBA","type":"address","internalType":"address"},{"name":"amountInWei","type":"uint256","internalType":"uint256"}],"stateMutability":"view"},{"type":"function","name":"traitOffers","inputs":[{"name":"traitId","type":"uint256","internalType":"uint256"}],"outputs":[{"name":"priceInWei","type":"uint256","internalType":"uint256"},{"name":"seller","type":"address","internalType":"address"},{"name":"sellerTBA","type":"address","internalType":"address"},{"name":"onlySellTo","type":"address","internalType":"address"}],"stateMutability":"view"},{"type":"function","name":"transferOwnership","inputs":[{"name":"newOwner","type":"address","internalType":"address"}],"outputs":[],"stateMutability":"payable"},{"type":"function","name":"withdrawBidOnChonk","inputs":[{"name":"_chonkId","type":"uint256","internalType":"uint256"}],"outputs":[],"stateMutability":"nonpayable"},{"type":"function","name":"withdrawBidOnTrait","inputs":[{"name":"_traitId","type":"uint256","internalType":"uint256"}],"outputs":[],"stateMutability":"nonpayable"},{"type":"function","name":"withdrawFunds","inputs":[],"outputs":[],"stateMutability":"nonpayable"},{"type":"function","name":"withdrawableFunds","inputs":[{"name":"eoa","type":"address","internalType":"address"}],"outputs":[{"name":"balance","type":"uint256","internalType":"uint256"}],"stateMutability":"view"},{"type":"event","name":"ChonkBidAccepted","inputs":[{"name":"chonkId","type":"uint256","indexed":true,"internalType":"uint256"},{"name":"amountInWei","type":"uint256","indexed":true,"internalType":"uint256"},{"name":"buyer","type":"address","indexed":true,"internalType":"address"},{"name":"seller","type":"address","indexed":false,"internalType":"address"}],"anonymous":false},{"type":"event","name":"ChonkBidEntered","inputs":[{"name":"chonkId","type":"uint256","indexed":true,"internalType":"uint256"},{"name":"bidder","type":"address","indexed":true,"internalType":"address"},{"name":"amountInWei","type":"uint256","indexed":true,"internalType":"uint256"}],"anonymous":false},{"type":"event","name":"ChonkBidWithdrawn","inputs":[{"name":"chonkId","type":"uint256","indexed":true,"internalType":"uint256"},{"name":"bidder","type":"address","indexed":true,"internalType":"address"},{"name":"amountInWei","type":"uint256","indexed":true,"internalType":"uint256"}],"anonymous":false},{"type":"event","name":"ChonkBought","inputs":[{"name":"chonkId","type":"uint256","indexed":true,"internalType":"uint256"},{"name":"buyer","type":"address","indexed":true,"internalType":"address"},{"name":"amountInWei","type":"uint256","indexed":true,"internalType":"uint256"},{"name":"seller","type":"address","indexed":false,"internalType":"address"}],"anonymous":false},{"type":"event","name":"ChonkOfferCanceled","inputs":[{"name":"chonkId","type":"uint256","indexed":true,"internalType":"uint256"},{"name":"seller","type":"address","indexed":true,"internalType":"address"}],"anonymous":false},{"type":"event","name":"ChonkOffered","inputs":[{"name":"chonkId","type":"uint256","indexed":true,"internalType":"uint256"},{"name":"price","type":"uint256","indexed":true,"internalType":"uint256"},{"name":"seller","type":"address","indexed":true,"internalType":"address"},{"name":"sellerTBA","type":"address","indexed":false,"internalType":"address"}],"anonymous":false},{"type":"event","name":"ChonkOfferedToAddress","inputs":[{"name":"chonkId","type":"uint256","indexed":true,"internalType":"uint256"},{"name":"price","type":"uint256","indexed":true,"internalType":"uint256"},{"name":"seller","type":"address","indexed":true,"internalType":"address"},{"name":"sellerTBA","type":"address","indexed":false,"internalType":"address"},{"name":"onlySellTo","type":"address","indexed":false,"internalType":"address"}],"anonymous":false},{"type":"event","name":"OwnershipHandoverCanceled","inputs":[{"name":"pendingOwner","type":"address","indexed":true,"internalType":"address"}],"anonymous":false},{"type":"event","name":"OwnershipHandoverRequested","inputs":[{"name":"pendingOwner","type":"address","indexed":true,"internalType":"address"}],"anonymous":false},{"type":"event","name":"OwnershipTransferred","inputs":[{"name":"oldOwner","type":"address","indexed":true,"internalType":"address"},{"name":"newOwner","type":"address","indexed":true,"internalType":"address"}],"anonymous":false},{"type":"event","name":"TraitBidAccepted","inputs":[{"name":"traitId","type":"uint256","indexed":true,"internalType":"uint256"},{"name":"amountInWei","type":"uint256","indexed":true,"internalType":"uint256"},{"name":"buyer","type":"address","indexed":true,"internalType":"address"},{"name":"seller","type":"address","indexed":false,"internalType":"address"}],"anonymous":false},{"type":"event","name":"TraitBidEntered","inputs":[{"name":"traitId","type":"uint256","indexed":true,"internalType":"uint256"},{"name":"bidder","type":"address","indexed":true,"internalType":"address"},{"name":"amountInWei","type":"uint256","indexed":true,"internalType":"uint256"}],"anonymous":false},{"type":"event","name":"TraitBidWithdrawn","inputs":[{"name":"traitId","type":"uint256","indexed":true,"internalType":"uint256"},{"name":"bidder","type":"address","indexed":true,"internalType":"address"},{"name":"amountInWei","type":"uint256","indexed":true,"internalType":"uint256"}],"anonymous":false},{"type":"event","name":"TraitBought","inputs":[{"name":"traitId","type":"uint256","indexed":true,"internalType":"uint256"},{"name":"buyerTBA","type":"address","indexed":true,"internalType":"address"},{"name":"amountInWei","type":"uint256","indexed":true,"internalType":"uint256"},{"name":"buyer","type":"address","indexed":false,"internalType":"address"},{"name":"seller","type":"address","indexed":false,"internalType":"address"}],"anonymous":false},{"type":"event","name":"TraitOfferCanceled","inputs":[{"name":"traitId","type":"uint256","indexed":true,"internalType":"uint256"},{"name":"seller","type":"address","indexed":true,"internalType":"address"}],"anonymous":false},{"type":"event","name":"TraitOffered","inputs":[{"name":"traitId","type":"uint256","indexed":true,"internalType":"uint256"},{"name":"price","type":"uint256","indexed":true,"internalType":"uint256"},{"name":"seller","type":"address","indexed":true,"internalType":"address"},{"name":"sellerTBA","type":"address","indexed":false,"internalType":"address"}],"anonymous":false},{"type":"event","name":"TraitOfferedToAddress","inputs":[{"name":"traitId","type":"uint256","indexed":true,"internalType":"uint256"},{"name":"price","type":"uint256","indexed":true,"internalType":"uint256"},{"name":"seller","type":"address","indexed":true,"internalType":"address"},{"name":"sellerTBA","type":"address","indexed":false,"internalType":"address"},{"name":"onlySellTo","type":"address","indexed":false,"internalType":"address"}],"anonymous":false},{"type":"error","name":"AlreadyInitialized","inputs":[]},{"type":"error","name":"ApproveTheMarketplace","inputs":[]},{"type":"error","name":"BidIsTooLow","inputs":[]},{"type":"error","name":"BidderChanged","inputs":[]},{"type":"error","name":"CMUnauthorized","inputs":[]},{"type":"error","name":"CantAcceptYourOwnBid","inputs":[]},{"type":"error","name":"CantBeZero","inputs":[]},{"type":"error","name":"CantBidOnYourOwnChonk","inputs":[]},{"type":"error","name":"CantBidOnYourOwnTrait","inputs":[]},{"type":"error","name":"CantBuyYourOwnChonk","inputs":[]},{"type":"error","name":"CantBuyYourOwnTrait","inputs":[]},{"type":"error","name":"NewOwnerIsZeroAddress","inputs":[]},{"type":"error","name":"NoBidToAccept","inputs":[]},{"type":"error","name":"NoHandoverRequest","inputs":[]},{"type":"error","name":"NoOfferToCancel","inputs":[]},{"type":"error","name":"NotYourBid","inputs":[]},{"type":"error","name":"NotYourChonk","inputs":[]},{"type":"error","name":"NotYourOffer","inputs":[]},{"type":"error","name":"NotYourTrait","inputs":[]},{"type":"error","name":"OfferDoesNotExist","inputs":[]},{"type":"error","name":"OnlyTraitContract","inputs":[]},{"type":"error","name":"PausabilityRevoked","inputs":[]},{"type":"error","name":"Paused","inputs":[]},{"type":"error","name":"TBANeedsToApproveMarketplace","inputs":[]},{"type":"error","name":"TraitEquipped","inputs":[]},{"type":"error","name":"TraitIdsChangedSinceBid","inputs":[]},{"type":"error","name":"TraitIdsChangedSinceListingRelist","inputs":[]},{"type":"error","name":"Unauthorized","inputs":[]},{"type":"error","name":"WithdrawFailed","inputs":[]},{"type":"error","name":"WrongAmount","inputs":[]},{"type":"error","name":"YouCantBuyThatChonk","inputs":[]},{"type":"error","name":"YouCantBuyThatTrait","inputs":[]}],"bytecode":{"object":"0x60c06040523480156200001157600080fd5b50604051620054ac380380620054ac8339810160408190526200003491620000d2565b6001600055620000443362000079565b6001600160a01b0393841660805291831660a05260ff16600155600280546001600160a01b0319169190921617905562000136565b6001600160a01b0316638b78c6d8198190558060007f8be0079c531659141344cd1fd0a4f28419497f9722a3daafe3b4186f6b6457e08180a350565b80516001600160a01b0381168114620000cd57600080fd5b919050565b60008060008060808587031215620000e957600080fd5b620000f485620000b5565b93506200010460208601620000b5565b9250604085015160ff811681146200011b57600080fd5b91506200012b60608601620000b5565b905092959194509250565b60805160a051615246620002666000396000818161039601528181610c24015281816110b80152818161116401528181611545015281816116900152818161221c015281816127dd015281816128e30152818161297601528181612c50015281816131bc01526140a70152600081816105a201528181610b7a01528181610cba015281816110840152818161141a015281816115e30152818161179b0152818161195f01528181611a2201528181611c8401528181611f620152818161228e0152818161268f0152818161274601528181612ae101528181612e700152818161304c015281816132e40152818161337f015281816134140152818161371501528181613b4201528181613bd701528181613ea901528181613ffd0152818161413d015261435f01526152466000f3fe6080604052600436106102e45760003560e01c806361ba27da11610190578063a4cc8324116100dc578063ed89f70411610095578063f2fde38b1161006f578063f2fde38b14610a12578063f495f5a814610a25578063f827d63214610a45578063fee81cf414610a6557600080fd5b8063ed89f7041461096a578063f04e283e1461098a578063f09882141461099d57600080fd5b8063a4cc8324146108b6578063b1f3694e146108d6578063b5baf476146108f7578063cca5975914610917578063cecea40114610937578063ebd34a881461095757600080fd5b80637dbc8619116101495780638da5cb5b116101235780638da5cb5b1461084a578063917e3a7c146108635780639f24c94514610876578063a2e696131461089657600080fd5b80637dbc8619146107ba5780638a71bb2d146108035780638b3223831461081957600080fd5b806361ba27da14610703578063644ec5271461072357806365318c8614610743578063710b271914610772578063715018a614610792578063795aded31461079a57600080fd5b80633ce0c3721161024f5780634fc9923e11610208578063571ccb74116101e2578063571ccb741461068c5780635793b22e1461069f57806359927044146106b25780635c975abb146106d257600080fd5b80634fc9923e1461064457806354d1f13d1461066457806355737f351461066c57600080fd5b80633ce0c372146104af5780634666a4161461052257806346c627fe14610542578063472729bb146105625780634de8cdf6146105905780634f6088cd146105c457600080fd5b806325692962116102a157806325692962146103e55780632e1d274f146103ed5780632f30cabd1461040d5780632fbe78f014610448578063361f1c521461046857806336442e301461047d57600080fd5b806302329a29146102e95780630b1142561461030b5780630cbd09221461032b5780631525ff7d14610364578063170c14d91461038457806324600fc3146103d0575b600080fd5b3480156102f557600080fd5b50610309610304366004614a69565b610a98565b005b34801561031757600080fd5b50610309610326366004614a8d565b610ae9565b34801561033757600080fd5b5061034b610346366004614ab9565b610dff565b60405161035b9493929190614b54565b60405180910390f35b34801561037057600080fd5b5061030961037f366004614bad565b610f44565b34801561039057600080fd5b506103b87f000000000000000000000000000000000000000000000000000000000000000081565b6040516001600160a01b03909116815260200161035b565b3480156103dc57600080fd5b50610309610f6e565b610309611029565b3480156103f957600080fd5b50610309610408366004614ab9565b611079565b34801561041957600080fd5b5061043a610428366004614bad565b60076020526000908152604090205481565b60405190815260200161035b565b34801561045457600080fd5b50610309610463366004614bca565b611159565b34801561047457600080fd5b50610309611250565b34801561048957600080fd5b5061049d610498366004614ab9565b611298565b60405161035b96959493929190614bfa565b3480156104bb57600080fd5b506105136104ca366004614ab9565b600081815260066020908152604091829020825160608101845281546001600160a01b039081168083526001840154909116938201849052600290920154930183905293909250565b60405161035b93929190614c53565b34801561052e57600080fd5b5061030961053d366004614ce2565b61140f565b34801561054e57600080fd5b5061030961055d366004614ab9565b61153a565b34801561056e57600080fd5b5061058261057d366004614ab9565b6115dc565b60405161035b929190614d8d565b34801561059c57600080fd5b506103b87f000000000000000000000000000000000000000000000000000000000000000081565b3480156105d057600080fd5b506106156105df366004614ab9565b600460205260009081526040902080546001820154600283015460039093015491926001600160a01b0391821692908216911684565b604080519485526001600160a01b0393841660208601529183169184019190915216606082015260800161035b565b34801561065057600080fd5b5061030961065f366004614dbb565b61172c565b61030961185e565b34801561067857600080fd5b506103b8610687366004614df4565b61189a565b61030961069a366004614df4565b6118d2565b6103096106ad366004614ab9565b611bf8565b3480156106be57600080fd5b506002546103b8906001600160a01b031681565b3480156106de57600080fd5b506002546106f390600160a01b900460ff1681565b604051901515815260200161035b565b34801561070f57600080fd5b5061030961071e366004614ab9565b611f4a565b34801561072f57600080fd5b5061030961073e366004614ab9565b611f57565b34801561074f57600080fd5b5061076361075e366004614ab9565b612144565b60405161035b93929190614e16565b34801561077e57600080fd5b506106f361078d366004614df4565b6121f9565b610309612353565b3480156107a657600080fd5b506103096107b5366004614ab9565b612367565b3480156107c657600080fd5b506105136107d5366004614ab9565b6006602052600090815260409020805460018201546002909201546001600160a01b03918216929091169083565b34801561080f57600080fd5b5061043a60015481565b34801561082557600080fd5b50610839610834366004614ab9565b61255b565b60405161035b959493929190614e3d565b34801561085657600080fd5b50638b78c6d819546103b8565b610309610871366004614df4565b612625565b34801561088257600080fd5b50610309610891366004614ab9565b612d1f565b3480156108a257600080fd5b5061043a6108b1366004614ab9565b612de4565b3480156108c257600080fd5b506103096108d1366004614df4565b612e01565b3480156108e257600080fd5b506002546106f390600160a81b900460ff1681565b34801561090357600080fd5b50610309610912366004614bca565b612f37565b34801561092357600080fd5b50610309610932366004614bca565b61327a565b34801561094357600080fd5b50610309610952366004614ab9565b6137d3565b610309610965366004614ab9565b6138d6565b34801561097657600080fd5b50610309610985366004614e77565b613f6c565b610309610998366004614bad565b6142f0565b3480156109a957600080fd5b506106156109b8366004614ab9565b6000908152600460209081526040918290208251608081018452815480825260018301546001600160a01b039081169483018590526002840154811695830186905260039093015490921660609091018190529093919291565b610309610a20366004614bad565b61432d565b348015610a3157600080fd5b50610309610a40366004614bca565b614354565b348015610a5157600080fd5b50610309610a60366004614df4565b614523565b348015610a7157600080fd5b5061043a610a80366004614bad565b63389a75e1600c908152600091909152602090205490565b610aa0614617565b600254600160a81b900460ff1615610acb5760405163d9ef8fb560e01b815260040160405180910390fd5b60028054911515600160a01b0260ff60a01b19909216919091179055565b600254600160a01b900460ff1615610b14576040516313d0ff5960e31b815260040160405180910390fd5b8080600003610b365760405163e7195f5160e01b815260040160405180910390fd5b610b4084846121f9565b610b5d57604051633e79b9f360e01b815260040160405180910390fd5b6040516311543c9960e31b815260048101849052602481018590527f00000000000000000000000000000000000000000000000000000000000000006001600160a01b031690638aa1e4c890604401602060405180830381865afa158015610bc9573d6000803e3d6000fd5b505050506040513d601f19601f82011682018060405250810190610bed9190614eb8565b15610c0b5760405163b14aa60560e01b815260040160405180910390fd5b6040516331a9108f60e11b8152600481018590526000907f00000000000000000000000000000000000000000000000000000000000000006001600160a01b031690636352211e90602401602060405180830381865afa158015610c73573d6000803e3d6000fd5b505050506040513d601f19601f82011682018060405250810190610c979190614ed5565b604051624003bd60e41b8152600481018690529091506000906001600160a01b037f000000000000000000000000000000000000000000000000000000000000000016906304003bd0906024016040805180830381865afa158015610d00573d6000803e3d6000fd5b505050506040513d601f19601f82011682018060405250810190610d249190614ef2565b50604080516080810182528681526001600160a01b0380841660208084018281528884168587019081526000606087018181528f825260049094528790209551865590516001860180549186166001600160a01b03199283161790559051600286018054918616918316919091179055905160039094018054949093169316929092179055905191925090859088907fd81820ebfdde47351b4ac56296bba70e8f57f24195955168a1b5bf6b653e3d3a90610def9087906001600160a01b0391909116815260200190565b60405180910390a4505050505050565b6000818152600560209081526040808320815160808101835281546001600160a01b0316815260018201548185015260028201805484518187028101870186528181528796606096879689969590949186019392909190830182828015610e8557602002820191906000526020600020905b815481526020019060010190808311610e71575b50505050508152602001600382018054610e9e90614f21565b80601f0160208091040260200160405190810160405280929190818152602001828054610eca90614f21565b8015610f175780601f10610eec57610100808354040283529160200191610f17565b820191906000526020600020905b815481529060010190602001808311610efa57829003601f168201915b505050919092525050815160208301516040840151606090940151919a9099509297509550909350505050565b610f4c614617565b600280546001600160a01b0319166001600160a01b0392909216919091179055565b600260005403610f995760405162461bcd60e51b8152600401610f9090614f5b565b60405180910390fd5b60026000908155338082526007602052604080832080549084905590519092919061ea6090849084818181858888f193505050503d8060008114610ff9576040519150601f19603f3d011682016040523d82523d6000602084013e610ffe565b606091505b505090508061102057604051631d42c86760e21b815260040160405180910390fd5b50506001600055565b60006202a30067ffffffffffffffff164201905063389a75e1600c5233600052806020600c2055337fdbf36a107da19e49527a7176a1babf963b4b0ff8cde35ee35d6cd8f1f9ac7e1d600080a250565b336001600160a01b037f000000000000000000000000000000000000000000000000000000000000000016148015906110db5750336001600160a01b037f00000000000000000000000000000000000000000000000000000000000000001614155b156110f95760405163125e77d360e01b815260040160405180910390fd5b6000818152600460205260409020600101546001600160a01b0316156111565760008181526004602052604081209081556001810180546001600160a01b0319908116909155600282018054821690556003909101805490911690555b50565b336001600160a01b037f000000000000000000000000000000000000000000000000000000000000000016146111a25760405163125e77d360e01b815260040160405180910390fd5b600082815260066020908152604091829020825160608101845281546001600160a01b03908116808352600184015490911693820193909352600290910154928101929092521561124b57816001600160a01b031681602001516001600160a01b03160361124b5760008381526006602052604080822080546001600160a01b0319908116825560018201805490911690556002019190915581519082015161124b9190614632565b505050565b611258614617565b600254600160a81b900460ff16156112835760405163d9ef8fb560e01b815260040160405180910390fd5b6002805460ff60a81b1916600160a81b179055565b6000818152600360208181526040808420815160c0810183528154815260018201546001600160a01b03908116828601526002830154811682850152948201549094166060858101919091526004820180548451818702810187019095528085528796879687969495869588959394919360808601939192909183018282801561134157602002820191906000526020600020905b81548152602001906001019080831161132d575b5050505050815260200160058201805461135a90614f21565b80601f016020809104026020016040519081016040528092919081815260200182805461138690614f21565b80156113d35780601f106113a8576101008083540402835291602001916113d3565b820191906000526020600020905b8154815290600101906020018083116113b657829003601f168201915b5050509190925250508151602083015160408401516060850151608086015160a090960151939e929d50909b5099509297509550909350505050565b336001600160a01b037f000000000000000000000000000000000000000000000000000000000000000016146114585760405163125e77d360e01b815260040160405180910390fd5b600082815260066020908152604091829020825160608101845281546001600160a01b03908116808352600184015490911693820193909352600290910154928101929092521561124b5760005b82518110156115345760008382815181106114c3576114c3614f92565b60200260200101519050806001600160a01b031683602001516001600160a01b03160361152b5760008581526006602052604080822080546001600160a01b0319908116825560018201805490911690556002019190915583519084015161152b9190614632565b506001016114a6565b50505050565b336001600160a01b037f000000000000000000000000000000000000000000000000000000000000000016146115835760405163e007692f60e01b815260040160405180910390fd5b600081815260036020819052604082208281556001810180546001600160a01b0319908116909155600282018054821690559181018054909216909155906115ce60048301826149a3565b61124b6005830160006149c1565b60608060007f00000000000000000000000000000000000000000000000000000000000000006001600160a01b03166304003bd0856040518263ffffffff1660e01b815260040161162f91815260200190565b6040805180830381865afa15801561164b573d6000803e3d6000fd5b505050506040513d601f19601f8201168201806040525081019061166f9190614ef2565b60405162438b6360e81b81526001600160a01b0380831660048301529193507f0000000000000000000000000000000000000000000000000000000000000000909116915063438b630090602401600060405180830381865afa1580156116da573d6000803e3d6000fd5b505050506040513d6000823e601f3d908101601f191682016040526117029190810190614fa8565b925082604051602001611715919061502e565b604051602081830303815290604052915050915091565b600254600160a01b900460ff1615611757576040516313d0ff5960e31b815260040160405180910390fd5b81806000036117795760405163e7195f5160e01b815260040160405180910390fd5b604051624003bd60e41b81526004810185905260009081906001600160a01b037f000000000000000000000000000000000000000000000000000000000000000016906304003bd0906024016040805180830381865afa1580156117e1573d6000803e3d6000fd5b505050506040513d601f19601f820116820180604052508101906118059190614ef2565b9150915061181686868685856146c4565b604080516001600160a01b0383811682528681166020830152841691879189917f4b2696c0b570fe60ace24fc90fe3446d3328d0c3aaeed71e743603aaba978e789101610def565b63389a75e1600c523360005260006020600c2055337ffa7b8eab7da67f412cc9575ed43464468f9bfbae89d1675917346ca6d8fe3c92600080a2565b600860205281600052604060002081815481106118b657600080fd5b6000918252602090912001546001600160a01b03169150829050565b34806000036118f45760405163e7195f5160e01b815260040160405180910390fd5b600254600160a01b900460ff161561191f576040516313d0ff5960e31b815260040160405180910390fd5b6002600054036119415760405162461bcd60e51b8152600401610f9090614f5b565b60026000908155604051624003bd60e41b81526004810184905281907f00000000000000000000000000000000000000000000000000000000000000006001600160a01b0316906304003bd0906024016040805180830381865afa1580156119ad573d6000803e3d6000fd5b505050506040513d601f19601f820116820180604052508101906119d19190614ef2565b90925090506001600160a01b03821633146119ff57604051633faa6c4560e01b815260040160405180910390fd5b604051636670434960e01b81526004810186905260009081906001600160a01b037f00000000000000000000000000000000000000000000000000000000000000001690636670434990602401608060405180830381865afa158015611a69573d6000803e3d6000fd5b505050506040513d601f19601f82011682018060405250810190611a8d9190615041565b509250509150336001600160a01b0316816001600160a01b03161480611abb57506001600160a01b03821633145b15611ad9576040516303d54cb760e11b815260040160405180910390fd5b600087815260066020908152604091829020825160608101845281546001600160a01b0390811682526001830154169281019290925260020154918101829052903411611b39576040516386bed4cd60e01b815260040160405180910390fd5b604080516060810182523381526001600160a01b0386811660208084019182523484860190815260008e8152600690925290859020935184549084166001600160a01b03199182161785559151600185018054919094169216919091179091555160029091015581015115611bba57611bba81600001518260400151614632565b604051349033908a907f10962e2373847454af3c025d9b77161f5244f4e2a69e3e9ddf4954b2622a868990600090a450506001600055505050505050565b3480600003611c1a5760405163e7195f5160e01b815260040160405180910390fd5b600254600160a01b900460ff1615611c45576040516313d0ff5960e31b815260040160405180910390fd5b600260005403611c675760405162461bcd60e51b8152600401610f9090614f5b565b600260009081556040516331a9108f60e11b8152600481018490527f00000000000000000000000000000000000000000000000000000000000000006001600160a01b031690636352211e90602401602060405180830381865afa158015611cd3573d6000803e3d6000fd5b505050506040513d601f19601f82011682018060405250810190611cf79190614ed5565b9050336001600160a01b03821603611d225760405163d2e7167f60e01b815260040160405180910390fd5b6000838152600560209081526040808320815160808101835281546001600160a01b03168152600182015481850152600282018054845181870281018701865281815292959394860193830182828015611d9b57602002820191906000526020600020905b815481526020019060010190808311611d87575b50505050508152602001600382018054611db490614f21565b80601f0160208091040260200160405190810160405280929190818152602001828054611de090614f21565b8015611e2d5780601f10611e0257610100808354040283529160200191611e2d565b820191906000526020600020905b815481529060010190602001808311611e1057829003601f168201915b505050505081525050905080602001513411611e5c576040516386bed4cd60e01b815260040160405180910390fd5b600080611e68866115dc565b604080516080810182523381523460208083019182528284018681526060840186905260008d81526005835294909420835181546001600160a01b0319166001600160a01b03909116178155915160018301559251805195975093955090939092611eda9260028501929101906149fb565b5060608201516003820190611eef90826150db565b505050602083015115611f0e57611f0e83600001518460200151614632565b6040513490339088907f5bcbf8d6be0293e172be2f32bd63e586fd65b0d15d70c845d393d73f2cfcff1790600090a45050600160005550505050565b611f52614617565b600155565b336001600160a01b037f00000000000000000000000000000000000000000000000000000000000000001614611fa05760405163125e77d360e01b815260040160405180910390fd5b6000818152600360208181526040808420815160c0810183528154815260018201546001600160a01b0390811682860152600283015481168285015294820154909416606085015260048101805483518186028101860190945280845291936080860193929083018282801561203557602002820191906000526020600020905b815481526020019060010190808311612021575b5050505050815260200160058201805461204e90614f21565b80601f016020809104026020016040519081016040528092919081815260200182805461207a90614f21565b80156120c75780601f1061209c576101008083540402835291602001916120c7565b820191906000526020600020905b8154815290600101906020018083116120aa57829003601f168201915b5050509190925250505060208101519091506001600160a01b03161561214057600082815260036020819052604082208281556001810180546001600160a01b03199081169091556002820180548216905591810180549092169091559061213260048301826149a3565b6115346005830160006149c1565b5050565b6005602052600090815260409020805460018201546003830180546001600160a01b0390931693919261217690614f21565b80601f01602080910402602001604051908101604052809291908181526020018280546121a290614f21565b80156121ef5780601f106121c4576101008083540402835291602001916121ef565b820191906000526020600020905b8154815290600101906020018083116121d257829003601f168201915b5050505050905083565b6040516331a9108f60e11b81526004810183905260009081906001600160a01b037f00000000000000000000000000000000000000000000000000000000000000001690636352211e90602401602060405180830381865afa158015612263573d6000803e3d6000fd5b505050506040513d601f19601f820116820180604052508101906122879190614ed5565b90506000807f00000000000000000000000000000000000000000000000000000000000000006001600160a01b03166304003bd0866040518263ffffffff1660e01b81526004016122da91815260200190565b6040805180830381865afa1580156122f6573d6000803e3d6000fd5b505050506040513d601f19601f8201168201806040525081019061231a9190614ef2565b91509150806001600160a01b0316836001600160a01b031614801561234757506001600160a01b03821633145b93505050505b92915050565b61235b614617565b6123656000614826565b565b6002600054036123895760405162461bcd60e51b8152600401610f9090614f5b565b60026000818155828152600560209081526040808320815160808101835281546001600160a01b031681526001820154818501529481018054835181860281018601855281815295969592949386019383018282801561240857602002820191906000526020600020905b8154815260200190600101908083116123f4575b5050505050815260200160038201805461242190614f21565b80601f016020809104026020016040519081016040528092919081815260200182805461244d90614f21565b801561249a5780601f1061246f5761010080835404028352916020019161249a565b820191906000526020600020905b81548152906001019060200180831161247d57829003601f168201915b5050509190925250508151919250506001600160a01b031633146124d15760405163173f0e6f60e21b815260040160405180910390fd5b600082815260056020526040812080546001600160a01b0319168155600181018290559061250260028301826149a3565b6125106003830160006149c1565b5050612520338260200151614632565b6020810151604051339084907f42aa62a335199e81c12706e51f762071115ee5df409428ef670b00ee8b7a3d2690600090a450506001600055565b60036020819052600091825260409091208054600182015460028301549383015460058401805493956001600160a01b03938416959084169493909216926125a290614f21565b80601f01602080910402602001604051908101604052809291908181526020018280546125ce90614f21565b801561261b5780601f106125f05761010080835404028352916020019161261b565b820191906000526020600020905b8154815290600101906020018083116125fe57829003601f168201915b5050505050905085565b600254600160a01b900460ff1615612650576040516313d0ff5960e31b815260040160405180910390fd5b6002600054036126725760405162461bcd60e51b8152600401610f9090614f5b565b600260009081556040516331a9108f60e11b8152600481018390527f00000000000000000000000000000000000000000000000000000000000000006001600160a01b031690636352211e90602401602060405180830381865afa1580156126de573d6000803e3d6000fd5b505050506040513d601f19601f820116820180604052508101906127029190614ed5565b90506001600160a01b038116331461272d57604051633faa6c4560e01b815260040160405180910390fd5b604051639c05d68d60e01b8152600481018390526000907f00000000000000000000000000000000000000000000000000000000000000006001600160a01b031690639c05d68d90602401602060405180830381865afa158015612795573d6000803e3d6000fd5b505050506040513d601f19601f820116820180604052508101906127b99190614ed5565b6040516331a9108f60e11b8152600481018690529091506000906001600160a01b037f00000000000000000000000000000000000000000000000000000000000000001690636352211e90602401602060405180830381865afa158015612824573d6000803e3d6000fd5b505050506040513d601f19601f820116820180604052508101906128489190614ed5565b9050816001600160a01b0316816001600160a01b03160361287c57604051633617ec7f60e21b815260040160405180910390fd5b60008581526004602081815260409283902083516080810185528154815260018201546001600160a01b03908116938201939093526002820154831681860181905260039092015483166060820152935163e985e9c560e01b8152928301523060248301527f0000000000000000000000000000000000000000000000000000000000000000169063e985e9c590604401602060405180830381865afa15801561292a573d6000803e3d6000fd5b505050506040513d601f19601f8201168201806040525081019061294e9190614eb8565b1580156129ed575060405163020604bf60e21b81526004810187905230906001600160a01b037f0000000000000000000000000000000000000000000000000000000000000000169063081812fc90602401602060405180830381865afa1580156129bd573d6000803e3d6000fd5b505050506040513d601f19601f820116820180604052508101906129e19190614ed5565b6001600160a01b031614155b15612a0b57604051631c4f6a7160e11b815260040160405180910390fd5b60208101516001600160a01b038116612a37576040516374dbff7960e01b815260040160405180910390fd5b336001600160a01b03821603612a6057604051633617ec7f60e21b815260040160405180910390fd5b60608201516001600160a01b031615801590612a89575060608201516001600160a01b03163314155b15612aa75760405163a969b35f60e01b815260040160405180910390fd5b81513414612ac8576040516349986e7360e01b815260040160405180910390fd5b604051636670434960e01b8152600481018890526000907f00000000000000000000000000000000000000000000000000000000000000006001600160a01b031690636670434990602401608060405180830381865afa158015612b30573d6000803e3d6000fd5b505050506040513d601f19601f82011682018060405250810190612b549190615041565b93505050508015612b785760405163b14aa60560e01b815260040160405180910390fd5b6000888152600460209081526040808320838155600180820180546001600160a01b031990811690915560028084018054831690556003909301805490911690556006845293829020825160608101845281546001600160a01b0390811680835296830154169481019490945201549082015290339003612c345760008981526006602052604080822080546001600160a01b03199081168255600182018054909116905560020191909155815190820151612c349190614632565b60408085015190516323b872dd60e01b81526001600160a01b037f000000000000000000000000000000000000000000000000000000000000000016916323b872dd91612c8891908a908e90600401614c53565b600060405180830381600087803b158015612ca257600080fd5b505af1158015612cb6573d6000803e3d6000fd5b50505050612cc43484614864565b50604080513381526001600160a01b0385811660208301523492908916918c917f9b53f736294544c8dcc2ef0b86a8855c522fa2cdfeed5b52061f8f0e97e1f299910160405180910390a45050600160005550505050505050565b6000818152600360205260409020600101546001600160a01b03163314612d59576040516332a0bb6960e01b815260040160405180910390fd5b600081815260036020819052604082208281556001810180546001600160a01b031990811690915560028201805482169055918101805490921690915590612da460048301826149a3565b612db26005830160006149c1565b5050604051339082907fa92aff34e046840eb03a70da1750551a7cc813f27519416e1b05865eb260351690600090a350565b600061271060015483612df791906151b1565b61234d91906151c8565b600254600160a01b900460ff1615612e2c576040516313d0ff5960e31b815260040160405180910390fd5b8080600003612e4e5760405163e7195f5160e01b815260040160405180910390fd5b604051624003bd60e41b81526004810184905260009081906001600160a01b037f000000000000000000000000000000000000000000000000000000000000000016906304003bd0906024016040805180830381865afa158015612eb6573d6000803e3d6000fd5b505050506040513d601f19601f82011682018060405250810190612eda9190614ef2565b91509150612eec8585600085856146c4565b6040516001600160a01b038281168252831690859087907f749104dd5f8de8e4b889d790ea029b6ec8515f14cf73d20604b60e0b649a95df9060200160405180910390a45050505050565b600254600160a01b900460ff1615612f62576040516313d0ff5960e31b815260040160405180910390fd5b600260005403612f845760405162461bcd60e51b8152600401610f9090614f5b565b6002600081815583815260066020908152604091829020825160608101845281546001600160a01b039081168083526001840154909116938201939093529301549183019190915280612fea57604051637ccf97e760e01b815260040160405180910390fd5b336001600160a01b03821603613013576040516309f6914560e21b815260040160405180910390fd5b826001600160a01b0316816001600160a01b03161461304557604051630e5d99a160e41b815260040160405180910390fd5b60008060007f00000000000000000000000000000000000000000000000000000000000000006001600160a01b03166366704349886040518263ffffffff1660e01b815260040161309891815260200190565b608060405180830381865afa1580156130b5573d6000803e3d6000fd5b505050506040513d601f19601f820116820180604052508101906130d99190615041565b93509350509250336001600160a01b0316826001600160a01b03161461311257604051633e79b9f360e01b815260040160405180910390fd5b80156131315760405163b14aa60560e01b815260040160405180910390fd5b6000878152600460209081526040808320838155600180820180546001600160a01b03199081169091556002808401805483169055600390930180548216905560069094528285208054851681559081018054909416909355919091019190915585015161319f9083614864565b5060208501516040516323b872dd60e01b81526001600160a01b037f000000000000000000000000000000000000000000000000000000000000000016916323b872dd916131f39187918c90600401614c53565b600060405180830381600087803b15801561320d57600080fd5b505af1158015613221573d6000803e3d6000fd5b50505060408087015190516001600160a01b0385811682528716925089907fc476c7174eb6bcf722015101bfd2abf9161ab48659b47e55f8b7260b06ebf0119060200160405180910390a4505060016000555050505050565b600254600160a01b900460ff16156132a5576040516313d0ff5960e31b815260040160405180910390fd5b6002600054036132c75760405162461bcd60e51b8152600401610f9090614f5b565b600260009081556040516331a9108f60e11b8152600481018490527f00000000000000000000000000000000000000000000000000000000000000006001600160a01b031690636352211e90602401602060405180830381865afa158015613333573d6000803e3d6000fd5b505050506040513d601f19601f820116820180604052508101906133579190614ed5565b60405163e985e9c560e01b81526001600160a01b0380831660048301523060248301529192507f00000000000000000000000000000000000000000000000000000000000000009091169063e985e9c590604401602060405180830381865afa1580156133c8573d6000803e3d6000fd5b505050506040513d601f19601f820116820180604052508101906133ec9190614eb8565b15801561348b575060405163020604bf60e21b81526004810184905230906001600160a01b037f0000000000000000000000000000000000000000000000000000000000000000169063081812fc90602401602060405180830381865afa15801561345b573d6000803e3d6000fd5b505050506040513d601f19601f8201168201806040525081019061347f9190614ed5565b6001600160a01b031614155b156134a9576040516361cf5f1360e01b815260040160405180910390fd5b6001600160a01b03811633146134d257604051633faa6c4560e01b815260040160405180910390fd5b6000838152600560209081526040808320815160808101835281546001600160a01b0316815260018201548185015260028201805484518187028101870186528181529295939486019383018282801561354b57602002820191906000526020600020905b815481526020019060010190808311613537575b5050505050815260200160038201805461356490614f21565b80601f016020809104026020016040519081016040528092919081815260200182805461359090614f21565b80156135dd5780601f106135b2576101008083540402835291602001916135dd565b820191906000526020600020905b8154815290600101906020018083116135c057829003601f168201915b5050509190925250508151919250506001600160a01b03811661361357604051637ccf97e760e01b815260040160405180910390fd5b336001600160a01b0382160361363c576040516309f6914560e21b815260040160405180910390fd5b836001600160a01b0316816001600160a01b03161461366e57604051630e5d99a160e41b815260040160405180910390fd5b6000613679866115dc565b9150508260600151805190602001208180519060200120146136ae576040516331d1776560e11b815260040160405180910390fd5b600086815260056020526040812080546001600160a01b031916815560018101829055906136df60028301826149a3565b6136ed6003830160006149c1565b50506136fd836020015185614864565b506040516323b872dd60e01b81526001600160a01b037f000000000000000000000000000000000000000000000000000000000000000016906323b872dd9061374e90339086908b90600401614c53565b600060405180830381600087803b15801561376857600080fd5b505af115801561377c573d6000803e3d6000fd5b505050506020838101516040516001600160a01b03878116825285169289917f93f583f5df123bec43b0c3403a5d3dae34bc2251a68523f99d3041cb80c6ea38910160405180910390a45050600160005550505050565b6002600054036137f55760405162461bcd60e51b8152600401610f9090614f5b565b6002600081815582815260066020908152604091829020825160608101845281546001600160a01b0390811680835260018401549091169382019390935293015491830191909152331461385c5760405163173f0e6f60e21b815260040160405180910390fd5b60008281526006602052604080822080546001600160a01b0319908116825560018201805490911690556002019190915581015161389b903390614632565b6040808201519051339084907f7647025e5547900d10b38a3053f5fcb9037d89294d94600b0bfe4f48c798439690600090a450506001600055565b600254600160a01b900460ff1615613901576040516313d0ff5960e31b815260040160405180910390fd5b6002600054036139235760405162461bcd60e51b8152600401610f9090614f5b565b60026000818155828152600360208181526040808420815160c0810183528154815260018201546001600160a01b0390811682860152968201548716818401529381015490951660608401526004850180548251818502810185019093528083529495939460808601938301828280156139bc57602002820191906000526020600020905b8154815260200190600101908083116139a8575b505050505081526020016005820180546139d590614f21565b80601f0160208091040260200160405190810160405280929190818152602001828054613a0190614f21565b8015613a4e5780601f10613a2357610100808354040283529160200191613a4e565b820191906000526020600020905b815481529060010190602001808311613a3157829003601f168201915b5050509190925250505060208101519091506001600160a01b038116613a87576040516374dbff7960e01b815260040160405180910390fd5b336001600160a01b03821603613ab05760405163abcb310f60e01b815260040160405180910390fd5b60608201516001600160a01b031615801590613ad9575060608201516001600160a01b03163314155b15613af757604051634b38765560e01b815260040160405180910390fd5b81513414613b18576040516349986e7360e01b815260040160405180910390fd5b602082015160405163e985e9c560e01b81526001600160a01b0391821660048201523060248201527f00000000000000000000000000000000000000000000000000000000000000009091169063e985e9c590604401602060405180830381865afa158015613b8b573d6000803e3d6000fd5b505050506040513d601f19601f82011682018060405250810190613baf9190614eb8565b158015613c4e575060405163020604bf60e21b81526004810184905230906001600160a01b037f0000000000000000000000000000000000000000000000000000000000000000169063081812fc90602401602060405180830381865afa158015613c1e573d6000803e3d6000fd5b505050506040513d601f19601f82011682018060405250810190613c429190614ed5565b6001600160a01b031614155b15613c6c576040516361cf5f1360e01b815260040160405180910390fd5b6000613c77846115dc565b9150508260a0015180519060200120818051906020012014613cac576040516331d1776560e11b815260040160405180910390fd5b600084815260036020819052604082208281556001810180546001600160a01b031990811690915560028201805482169055918101805490921690915590613cf760048301826149a3565b613d056005830160006149c1565b50506000848152600560209081526040808320815160808101835281546001600160a01b03168152600182015481850152600282018054845181870281018701865281815292959394860193830182828015613d8057602002820191906000526020600020905b815481526020019060010190808311613d6c575b50505050508152602001600382018054613d9990614f21565b80601f0160208091040260200160405190810160405280929190818152602001828054613dc590614f21565b8015613e125780601f10613de757610100808354040283529160200191613e12565b820191906000526020600020905b815481529060010190602001808311613df557829003601f168201915b5050505050815250509050336001600160a01b031681600001516001600160a01b031603613e8d57600085815260056020526040812080546001600160a01b03191681556001810182905590613e6b60028301826149a3565b613e796003830160006149c1565b5050613e8d81600001518260200151614632565b60208401516040516323b872dd60e01b81526001600160a01b037f000000000000000000000000000000000000000000000000000000000000000016916323b872dd91613ee1919033908a90600401614c53565b600060405180830381600087803b158015613efb57600080fd5b505af1158015613f0f573d6000803e3d6000fd5b50505050613f1d3484614864565b506040516001600160a01b03841681523490339087907f35e25b9a592362b9d470b2a4907c7ea3ae21ab1a1c9eb41e1fd146bc8a33f96f9060200160405180910390a450506001600055505050565b600254600160a01b900460ff1615613f97576040516313d0ff5960e31b815260040160405180910390fd5b8180600003613fb95760405163e7195f5160e01b815260040160405180910390fd5b613fc385856121f9565b613fe057604051633e79b9f360e01b815260040160405180910390fd5b6040516311543c9960e31b815260048101859052602481018690527f00000000000000000000000000000000000000000000000000000000000000006001600160a01b031690638aa1e4c890604401602060405180830381865afa15801561404c573d6000803e3d6000fd5b505050506040513d601f19601f820116820180604052508101906140709190614eb8565b1561408e5760405163b14aa60560e01b815260040160405180910390fd5b6040516331a9108f60e11b8152600481018690526000907f00000000000000000000000000000000000000000000000000000000000000006001600160a01b031690636352211e90602401602060405180830381865afa1580156140f6573d6000803e3d6000fd5b505050506040513d601f19601f8201168201806040525081019061411a9190614ed5565b604051624003bd60e41b8152600481018790529091506000906001600160a01b037f000000000000000000000000000000000000000000000000000000000000000016906304003bd0906024016040805180830381865afa158015614183573d6000803e3d6000fd5b505050506040513d601f19601f820116820180604052508101906141a79190614ef2565b5090506040518060800160405280868152602001826001600160a01b03168152602001836001600160a01b03168152602001856001600160a01b0316815250600460008981526020019081526020016000206000820151816000015560208201518160010160006101000a8154816001600160a01b0302191690836001600160a01b0316021790555060408201518160020160006101000a8154816001600160a01b0302191690836001600160a01b0316021790555060608201518160030160006101000a8154816001600160a01b0302191690836001600160a01b03160217905550905050806001600160a01b031685887f555474b2f514aef3d74de2861294e8e88446148aa4ece5df7b38bd45282850bd85886040516142df9291906001600160a01b0392831681529116602082015260400190565b60405180910390a450505050505050565b6142f8614617565b63389a75e1600c52806000526020600c20805442111561432057636f5e88186000526004601cfd5b6000905561115681614826565b614335614617565b8060601b61434b57637448fbae6000526004601cfd5b61115681614826565b336001600160a01b037f0000000000000000000000000000000000000000000000000000000000000000161461439d5760405163125e77d360e01b815260040160405180910390fd5b6000828152600560209081526040808320815160808101835281546001600160a01b0316815260018201548185015260028201805484518187028101870186528181529295939486019383018282801561441657602002820191906000526020600020905b815481526020019060010190808311614402575b5050505050815260200160038201805461442f90614f21565b80601f016020809104026020016040519081016040528092919081815260200182805461445b90614f21565b80156144a85780601f1061447d576101008083540402835291602001916144a8565b820191906000526020600020905b81548152906001019060200180831161448b57829003601f168201915b5050505050815250509050816001600160a01b031681600001516001600160a01b03160361124b57600083815260056020526040812080546001600160a01b0319168155600181018290559061450160028301826149a3565b61450f6003830160006149c1565b505061124b81600001518260200151614632565b61452d82826121f9565b61454a57604051633e79b9f360e01b815260040160405180910390fd5b6000828152600460205260409020600101546001600160a01b03168061458357604051632c8efc6560e21b815260040160405180910390fd5b6001600160a01b03811633146145ac576040516332a0bb6960e01b815260040160405180910390fd5b6000838152600460205260408082208281556001810180546001600160a01b03199081169091556002820180548216905560039091018054909116905551339185917f21b2d85fdbbcaac8efe168e1803aff7a5d97e8cfc1ed65b039c118c246ac46349190a3505050565b638b78c6d819543314612365576382b429006000526004601cfd5b6000826001600160a01b03168261ea6090604051600060405180830381858888f193505050503d8060008114614684576040519150601f19603f3d011682016040523d82523d6000602084013e614689565b606091505b505090508061124b576001600160a01b038316600090815260076020526040812080548492906146ba9084906151ea565b9091555050505050565b6001600160a01b03821633146146ed57604051633faa6c4560e01b815260040160405180910390fd5b6000806146f9876115dc565b915091506040518060c00160405280878152602001856001600160a01b03168152602001846001600160a01b03168152602001866001600160a01b0316815260200183815260200182815250600360008981526020019081526020016000206000820151816000015560208201518160010160006101000a8154816001600160a01b0302191690836001600160a01b0316021790555060408201518160020160006101000a8154816001600160a01b0302191690836001600160a01b0316021790555060608201518160030160006101000a8154816001600160a01b0302191690836001600160a01b0316021790555060808201518160040190805190602001906148059291906149fb565b5060a0820151600582019061481a90826150db565b50505050505050505050565b638b78c6d81980546001600160a01b039092169182907f8be0079c531659141344cd1fd0a4f28419497f9722a3daafe3b4186f6b6457e0600080a355565b60008061487084612de4565b9050600061487e82866151fd565b6002546040519192506000916001600160a01b039091169084908381818185875af1925050503d80600081146148d0576040519150601f19603f3d011682016040523d82523d6000602084013e6148d5565b606091505b505090508061490e576002546001600160a01b0316600090815260076020526040812080548592906149089084906151ea565b90915550505b6040516001600160a01b0386169061ea609084906000818181858888f193505050503d806000811461495c576040519150601f19603f3d011682016040523d82523d6000602084013e614961565b606091505b5050809450508361499a576001600160a01b038516600090815260076020526040812080548492906149949084906151ea565b90915550505b50505092915050565b50805460008255906000526020600020908101906111569190614a46565b5080546149cd90614f21565b6000825580601f106149dd575050565b601f0160209004906000526020600020908101906111569190614a46565b828054828255906000526020600020908101928215614a36579160200282015b82811115614a36578251825591602001919060010190614a1b565b50614a42929150614a46565b5090565b5b80821115614a425760008155600101614a47565b801515811461115657600080fd5b600060208284031215614a7b57600080fd5b8135614a8681614a5b565b9392505050565b600080600060608486031215614aa257600080fd5b505081359360208301359350604090920135919050565b600060208284031215614acb57600080fd5b5035919050565b60008151808452602080850194506020840160005b83811015614b0357815187529582019590820190600101614ae7565b509495945050505050565b6000815180845260005b81811015614b3457602081850181015186830182015201614b18565b506000602082860101526020601f19601f83011685010191505092915050565b60018060a01b0385168152836020820152608060408201526000614b7b6080830185614ad2565b8281036060840152614b8d8185614b0e565b979650505050505050565b6001600160a01b038116811461115657600080fd5b600060208284031215614bbf57600080fd5b8135614a8681614b98565b60008060408385031215614bdd57600080fd5b823591506020830135614bef81614b98565b809150509250929050565b8681526001600160a01b03868116602083015285811660408301528416606082015260c060808201819052600090614c3490830185614ad2565b82810360a0840152614c468185614b0e565b9998505050505050505050565b6001600160a01b039384168152919092166020820152604081019190915260600190565b634e487b7160e01b600052604160045260246000fd5b604051601f8201601f1916810167ffffffffffffffff81118282101715614cb657614cb6614c77565b604052919050565b600067ffffffffffffffff821115614cd857614cd8614c77565b5060051b60200190565b60008060408385031215614cf557600080fd5b8235915060208084013567ffffffffffffffff811115614d1457600080fd5b8401601f81018613614d2557600080fd5b8035614d38614d3382614cbe565b614c8d565b81815260059190911b82018301908381019088831115614d5757600080fd5b928401925b82841015614d7e578335614d6f81614b98565b82529284019290840190614d5c565b80955050505050509250929050565b604081526000614da06040830185614ad2565b8281036020840152614db28185614b0e565b95945050505050565b600080600060608486031215614dd057600080fd5b83359250602084013591506040840135614de981614b98565b809150509250925092565b60008060408385031215614e0757600080fd5b50508035926020909101359150565b60018060a01b0384168152826020820152606060408201526000614db26060830184614b0e565b8581526001600160a01b03858116602083015284811660408301528316606082015260a060808201819052600090614b8d90830184614b0e565b60008060008060808587031215614e8d57600080fd5b8435935060208501359250604085013591506060850135614ead81614b98565b939692955090935050565b600060208284031215614eca57600080fd5b8151614a8681614a5b565b600060208284031215614ee757600080fd5b8151614a8681614b98565b60008060408385031215614f0557600080fd5b8251614f1081614b98565b6020840151909250614bef81614b98565b600181811c90821680614f3557607f821691505b602082108103614f5557634e487b7160e01b600052602260045260246000fd5b50919050565b6020808252601f908201527f5265656e7472616e637947756172643a207265656e7472616e742063616c6c00604082015260600190565b634e487b7160e01b600052603260045260246000fd5b60006020808385031215614fbb57600080fd5b825167ffffffffffffffff811115614fd257600080fd5b8301601f81018513614fe357600080fd5b8051614ff1614d3382614cbe565b81815260059190911b8201830190838101908783111561501057600080fd5b928401925b82841015614b8d57835182529284019290840190615015565b602081526000614a866020830184614ad2565b6000806000806080858703121561505757600080fd5b845161506281614b98565b60208601516040870151919550935061507a81614b98565b6060860151909250614ead81614a5b565b601f82111561124b576000816000526020600020601f850160051c810160208610156150b45750805b601f850160051c820191505b818110156150d3578281556001016150c0565b505050505050565b815167ffffffffffffffff8111156150f5576150f5614c77565b615109816151038454614f21565b8461508b565b602080601f83116001811461513e57600084156151265750858301515b600019600386901b1c1916600185901b1785556150d3565b600085815260208120601f198616915b8281101561516d5788860151825594840194600190910190840161514e565b508582101561518b5787850151600019600388901b60f8161c191681555b5050505050600190811b01905550565b634e487b7160e01b600052601160045260246000fd5b808202811582820484141761234d5761234d61519b565b6000826151e557634e487b7160e01b600052601260045260246000fd5b500490565b8082018082111561234d5761234d61519b565b8181038181111561234d5761234d61519b56fea2646970667358221220464e2ec71732d389be0ed85b6214b369daf2a4a29844f5e6c9c9f3b102db62bb64736f6c63430008160033","linkReferences":{}},"methodIdentifiers":{"CHONKS_MAIN()":"4de8cdf6","CHONK_TRAITS()":"170c14d9","acceptBidForChonk(uint256,address)":"cca59759","acceptBidForTrait(uint256,address)":"b5baf476","bidOnChonk(uint256)":"5793b22e","bidOnTrait(uint256,uint256)":"571ccb74","buyChonk(uint256)":"ebd34a88","buyTrait(uint256,uint256)":"917e3a7c","calculateRoyalty(uint256)":"a2e69613","cancelOfferChonk(uint256)":"9f24c945","cancelOfferTrait(uint256,uint256)":"f827d632","cancelOwnershipHandover()":"54d1f13d","chonkBids(uint256)":"65318c86","chonkIdToApprovedOperators(uint256,uint256)":"55737f35","chonkOffers(uint256)":"8b322383","completeOwnershipHandover(address)":"f04e283e","deleteChonkBidsBeforeTokenTransfer(uint256,address)":"f495f5a8","deleteChonkOfferBeforeTokenTransfer(uint256)":"644ec527","deleteTraitBidsBeforeTokenTransfer(uint256,address)":"2fbe78f0","deleteTraitBidsBeforeTokenTransfer(uint256,address[])":"4666a416","deleteTraitOffersBeforeTokenTransfer(uint256)":"2e1d274f","ensureTraitOwner(uint256,uint256)":"710b2719","getChonkBid(uint256)":"0cbd0922","getChonkOffer(uint256)":"36442e30","getTraitBid(uint256)":"3ce0c372","getTraitIdsAndEncodingForChonk(uint256)":"472729bb","getTraitOffer(uint256)":"f0988214","offerChonk(uint256,uint256)":"a4cc8324","offerChonkToAddress(uint256,uint256,address)":"4fc9923e","offerTrait(uint256,uint256,uint256)":"0b114256","offerTraitToAddress(uint256,uint256,uint256,address)":"ed89f704","owner()":"8da5cb5b","ownershipHandoverExpiresAt(address)":"fee81cf4","pausabilityRevoked()":"b1f3694e","pause(bool)":"02329a29","paused()":"5c975abb","removeChonkOfferOnTraitTransfer(uint256)":"46c627fe","renounceOwnership()":"715018a6","requestOwnershipHandover()":"25692962","revokePausability()":"361f1c52","royaltyPercentage()":"8a71bb2d","setRoyaltyPercentage(uint256)":"61ba27da","setTeamWallet(address)":"1525ff7d","teamWallet()":"59927044","traitBids(uint256)":"7dbc8619","traitOffers(uint256)":"4f6088cd","transferOwnership(address)":"f2fde38b","withdrawBidOnChonk(uint256)":"795aded3","withdrawBidOnTrait(uint256)":"cecea401","withdrawFunds()":"24600fc3","withdrawableFunds(address)":"2f30cabd"},"id":42}