{"abi":[{"type":"constructor","inputs":[{"name":"_petersMain","type":"address","internalType":"address"},{"name":"_peterTraits","type":"address","internalType":"address"},{"name":"_royaltyPercentage","type":"uint8","internalType":"uint8"},{"name":"_teamWallet","type":"address","internalType":"address"}],"stateMutability":"nonpayable"},{"type":"function","name":"PETERS_MAIN","inputs":[],"outputs":[{"name":"","type":"address","internalType":"contract PetersMain"}],"stateMutability":"view"},{"type":"function","name":"PETER_TRAITS","inputs":[],"outputs":[{"name":"","type":"address","internalType":"contract PeterTraits"}],"stateMutability":"view"},{"type":"function","name":"acceptBidForChonk","inputs":[{"name":"_chonkId","type":"uint256","internalType":"uint256"},{"name":"_bidder","type":"address","internalType":"address"}],"outputs":[],"stateMutability":"nonpayable"},{"type":"function","name":"acceptBidForTrait","inputs":[{"name":"_traitId","type":"uint256","internalType":"uint256"},{"name":"_bidder","type":"address","internalType":"address"}],"outputs":[],"stateMutability":"nonpayable"},{"type":"function","name":"bidOnChonk","inputs":[{"name":"_chonkId","type":"uint256","internalType":"uint256"}],"outputs":[],"stateMutability":"payable"},{"type":"function","name":"bidOnTrait","inputs":[{"name":"_traitId","type":"uint256","internalType":"uint256"},{"name":"_yourChonkId","type":"uint256","internalType":"uint256"}],"outputs":[],"stateMutability":"payable"},{"type":"function","name":"buyChonk","inputs":[{"name":"_chonkId","type":"uint256","internalType":"uint256"}],"outputs":[],"stateMutability":"payable"},{"type":"function","name":"buyTrait","inputs":[{"name":"_traitId","type":"uint256","internalType":"uint256"},{"name":"_forChonkId","type":"uint256","internalType":"uint256"}],"outputs":[],"stateMutability":"payable"},{"type":"function","name":"calculateRoyalty","inputs":[{"name":"_amount","type":"uint256","internalType":"uint256"}],"outputs":[{"name":"","type":"uint256","internalType":"uint256"}],"stateMutability":"view"},{"type":"function","name":"cancelOfferChonk","inputs":[{"name":"_chonkId","type":"uint256","internalType":"uint256"}],"outputs":[],"stateMutability":"nonpayable"},{"type":"function","name":"cancelOfferTrait","inputs":[{"name":"_traitId","type":"uint256","internalType":"uint256"},{"name":"_chonkId","type":"uint256","internalType":"uint256"}],"outputs":[],"stateMutability":"nonpayable"},{"type":"function","name":"cancelOwnershipHandover","inputs":[],"outputs":[],"stateMutability":"payable"},{"type":"function","name":"chonkBids","inputs":[{"name":"chonkId","type":"uint256","internalType":"uint256"}],"outputs":[{"name":"bidder","type":"address","internalType":"address"},{"name":"amountInWei","type":"uint256","internalType":"uint256"},{"name":"encodedTraitIds","type":"bytes","internalType":"bytes"}],"stateMutability":"view"},{"type":"function","name":"chonkIdToApprovedOperators","inputs":[{"name":"chonkId","type":"uint256","internalType":"uint256"},{"name":"","type":"uint256","internalType":"uint256"}],"outputs":[{"name":"operators","type":"address","internalType":"address"}],"stateMutability":"view"},{"type":"function","name":"chonkOffers","inputs":[{"name":"chonkId","type":"uint256","internalType":"uint256"}],"outputs":[{"name":"priceInWei","type":"uint256","internalType":"uint256"},{"name":"seller","type":"address","internalType":"address"},{"name":"sellerTBA","type":"address","internalType":"address"},{"name":"onlySellTo","type":"address","internalType":"address"},{"name":"encodedTraitIds","type":"bytes","internalType":"bytes"}],"stateMutability":"view"},{"type":"function","name":"completeOwnershipHandover","inputs":[{"name":"pendingOwner","type":"address","internalType":"address"}],"outputs":[],"stateMutability":"payable"},{"type":"function","name":"deleteChonkBidsBeforeTokenTransfer","inputs":[{"name":"_chonkId","type":"uint256","internalType":"uint256"},{"name":"_toEOA","type":"address","internalType":"address"}],"outputs":[],"stateMutability":"nonpayable"},{"type":"function","name":"deleteChonkOfferBeforeTokenTransfer","inputs":[{"name":"_chonkId","type":"uint256","internalType":"uint256"}],"outputs":[],"stateMutability":"nonpayable"},{"type":"function","name":"deleteTraitBidsBeforeTokenTransfer","inputs":[{"name":"_traitId","type":"uint256","internalType":"uint256"},{"name":"_toTBA","type":"address","internalType":"address"}],"outputs":[],"stateMutability":"nonpayable"},{"type":"function","name":"deleteTraitBidsBeforeTokenTransfer","inputs":[{"name":"_traitId","type":"uint256","internalType":"uint256"},{"name":"_toTBAs","type":"address[]","internalType":"address[]"}],"outputs":[],"stateMutability":"nonpayable"},{"type":"function","name":"deleteTraitOffersBeforeTokenTransfer","inputs":[{"name":"_traitId","type":"uint256","internalType":"uint256"}],"outputs":[],"stateMutability":"nonpayable"},{"type":"function","name":"ensureTraitOwner","inputs":[{"name":"_traitId","type":"uint256","internalType":"uint256"},{"name":"_chonkId","type":"uint256","internalType":"uint256"}],"outputs":[{"name":"","type":"bool","internalType":"bool"}],"stateMutability":"view"},{"type":"function","name":"getChonkBid","inputs":[{"name":"_chonkId","type":"uint256","internalType":"uint256"}],"outputs":[{"name":"bidder","type":"address","internalType":"address"},{"name":"amountInWei","type":"uint256","internalType":"uint256"},{"name":"traitIds","type":"uint256[]","internalType":"uint256[]"},{"name":"encodedTraitIds","type":"bytes","internalType":"bytes"}],"stateMutability":"view"},{"type":"function","name":"getChonkOffer","inputs":[{"name":"_chonkId","type":"uint256","internalType":"uint256"}],"outputs":[{"name":"priceInWei","type":"uint256","internalType":"uint256"},{"name":"seller","type":"address","internalType":"address"},{"name":"sellerTBA","type":"address","internalType":"address"},{"name":"onlySellTo","type":"address","internalType":"address"},{"name":"traitIds","type":"uint256[]","internalType":"uint256[]"},{"name":"encodedTraitIds","type":"bytes","internalType":"bytes"}],"stateMutability":"view"},{"type":"function","name":"getTraitBid","inputs":[{"name":"_traitId","type":"uint256","internalType":"uint256"}],"outputs":[{"name":"bidder","type":"address","internalType":"address"},{"name":"bidderTBA","type":"address","internalType":"address"},{"name":"amountInWei","type":"uint256","internalType":"uint256"}],"stateMutability":"view"},{"type":"function","name":"getTraitIdsAndEncodingForChonk","inputs":[{"name":"_chonkId","type":"uint256","internalType":"uint256"}],"outputs":[{"name":"","type":"uint256[]","internalType":"uint256[]"},{"name":"","type":"bytes","internalType":"bytes"}],"stateMutability":"view"},{"type":"function","name":"getTraitOffer","inputs":[{"name":"_traitId","type":"uint256","internalType":"uint256"}],"outputs":[{"name":"priceInWei","type":"uint256","internalType":"uint256"},{"name":"seller","type":"address","internalType":"address"},{"name":"sellerTBA","type":"address","internalType":"address"},{"name":"onlySellTo","type":"address","internalType":"address"}],"stateMutability":"view"},{"type":"function","name":"offerChonk","inputs":[{"name":"_chonkId","type":"uint256","internalType":"uint256"},{"name":"_priceInWei","type":"uint256","internalType":"uint256"}],"outputs":[],"stateMutability":"nonpayable"},{"type":"function","name":"offerChonkToAddress","inputs":[{"name":"_chonkId","type":"uint256","internalType":"uint256"},{"name":"_priceInWei","type":"uint256","internalType":"uint256"},{"name":"_onlySellTo","type":"address","internalType":"address"}],"outputs":[],"stateMutability":"nonpayable"},{"type":"function","name":"offerTrait","inputs":[{"name":"_traitId","type":"uint256","internalType":"uint256"},{"name":"_chonkId","type":"uint256","internalType":"uint256"},{"name":"_priceInWei","type":"uint256","internalType":"uint256"}],"outputs":[],"stateMutability":"nonpayable"},{"type":"function","name":"offerTraitToAddress","inputs":[{"name":"_traitId","type":"uint256","internalType":"uint256"},{"name":"_chonkId","type":"uint256","internalType":"uint256"},{"name":"_priceInWei","type":"uint256","internalType":"uint256"},{"name":"_onlySellTo","type":"address","internalType":"address"}],"outputs":[],"stateMutability":"nonpayable"},{"type":"function","name":"owner","inputs":[],"outputs":[{"name":"result","type":"address","internalType":"address"}],"stateMutability":"view"},{"type":"function","name":"ownershipHandoverExpiresAt","inputs":[{"name":"pendingOwner","type":"address","internalType":"address"}],"outputs":[{"name":"result","type":"uint256","internalType":"uint256"}],"stateMutability":"view"},{"type":"function","name":"pausabilityRevoked","inputs":[],"outputs":[{"name":"","type":"bool","internalType":"bool"}],"stateMutability":"view"},{"type":"function","name":"pause","inputs":[{"name":"_value","type":"bool","internalType":"bool"}],"outputs":[],"stateMutability":"nonpayable"},{"type":"function","name":"paused","inputs":[],"outputs":[{"name":"","type":"bool","internalType":"bool"}],"stateMutability":"view"},{"type":"function","name":"removeChonkOfferOnTraitTransfer","inputs":[{"name":"_chonkId","type":"uint256","internalType":"uint256"}],"outputs":[],"stateMutability":"nonpayable"},{"type":"function","name":"renounceOwnership","inputs":[],"outputs":[],"stateMutability":"payable"},{"type":"function","name":"requestOwnershipHandover","inputs":[],"outputs":[],"stateMutability":"payable"},{"type":"function","name":"revokePausability","inputs":[],"outputs":[],"stateMutability":"nonpayable"},{"type":"function","name":"royaltyPercentage","inputs":[],"outputs":[{"name":"","type":"uint256","internalType":"uint256"}],"stateMutability":"view"},{"type":"function","name":"setRoyaltyPercentage","inputs":[{"name":"_royaltyPercentage","type":"uint256","internalType":"uint256"}],"outputs":[],"stateMutability":"nonpayable"},{"type":"function","name":"setTeamWallet","inputs":[{"name":"_teamWallet","type":"address","internalType":"address"}],"outputs":[],"stateMutability":"nonpayable"},{"type":"function","name":"teamWallet","inputs":[],"outputs":[{"name":"","type":"address","internalType":"address"}],"stateMutability":"view"},{"type":"function","name":"traitBids","inputs":[{"name":"traitId","type":"uint256","internalType":"uint256"}],"outputs":[{"name":"bidder","type":"address","internalType":"address"},{"name":"bidderTBA","type":"address","internalType":"address"},{"name":"amountInWei","type":"uint256","internalType":"uint256"}],"stateMutability":"view"},{"type":"function","name":"traitOffers","inputs":[{"name":"traitId","type":"uint256","internalType":"uint256"}],"outputs":[{"name":"priceInWei","type":"uint256","internalType":"uint256"},{"name":"seller","type":"address","internalType":"address"},{"name":"sellerTBA","type":"address","internalType":"address"},{"name":"onlySellTo","type":"address","internalType":"address"}],"stateMutability":"view"},{"type":"function","name":"transferOwnership","inputs":[{"name":"newOwner","type":"address","internalType":"address"}],"outputs":[],"stateMutability":"payable"},{"type":"function","name":"withdrawBidOnChonk","inputs":[{"name":"_chonkId","type":"uint256","internalType":"uint256"}],"outputs":[],"stateMutability":"nonpayable"},{"type":"function","name":"withdrawBidOnTrait","inputs":[{"name":"_traitId","type":"uint256","internalType":"uint256"}],"outputs":[],"stateMutability":"nonpayable"},{"type":"function","name":"withdrawFunds","inputs":[],"outputs":[],"stateMutability":"nonpayable"},{"type":"function","name":"withdrawableFunds","inputs":[{"name":"eoa","type":"address","internalType":"address"}],"outputs":[{"name":"balance","type":"uint256","internalType":"uint256"}],"stateMutability":"view"},{"type":"event","name":"ChonkBidAccepted","inputs":[{"name":"chonkId","type":"uint256","indexed":true,"internalType":"uint256"},{"name":"amountInWei","type":"uint256","indexed":true,"internalType":"uint256"},{"name":"buyer","type":"address","indexed":true,"internalType":"address"},{"name":"seller","type":"address","indexed":false,"internalType":"address"}],"anonymous":false},{"type":"event","name":"ChonkBidEntered","inputs":[{"name":"chonkId","type":"uint256","indexed":true,"internalType":"uint256"},{"name":"bidder","type":"address","indexed":true,"internalType":"address"},{"name":"amountInWei","type":"uint256","indexed":true,"internalType":"uint256"}],"anonymous":false},{"type":"event","name":"ChonkBidWithdrawn","inputs":[{"name":"chonkId","type":"uint256","indexed":true,"internalType":"uint256"},{"name":"bidder","type":"address","indexed":true,"internalType":"address"},{"name":"amountInWei","type":"uint256","indexed":true,"internalType":"uint256"}],"anonymous":false},{"type":"event","name":"ChonkBought","inputs":[{"name":"chonkId","type":"uint256","indexed":true,"internalType":"uint256"},{"name":"buyer","type":"address","indexed":true,"internalType":"address"},{"name":"amountInWei","type":"uint256","indexed":true,"internalType":"uint256"}],"anonymous":false},{"type":"event","name":"ChonkOfferCanceled","inputs":[{"name":"chonkId","type":"uint256","indexed":true,"internalType":"uint256"}],"anonymous":false},{"type":"event","name":"ChonkOffered","inputs":[{"name":"chonkId","type":"uint256","indexed":true,"internalType":"uint256"},{"name":"price","type":"uint256","indexed":true,"internalType":"uint256"},{"name":"seller","type":"address","indexed":true,"internalType":"address"},{"name":"sellerTBA","type":"address","indexed":false,"internalType":"address"}],"anonymous":false},{"type":"event","name":"OwnershipHandoverCanceled","inputs":[{"name":"pendingOwner","type":"address","indexed":true,"internalType":"address"}],"anonymous":false},{"type":"event","name":"OwnershipHandoverRequested","inputs":[{"name":"pendingOwner","type":"address","indexed":true,"internalType":"address"}],"anonymous":false},{"type":"event","name":"OwnershipTransferred","inputs":[{"name":"oldOwner","type":"address","indexed":true,"internalType":"address"},{"name":"newOwner","type":"address","indexed":true,"internalType":"address"}],"anonymous":false},{"type":"event","name":"TraitBidAccepted","inputs":[{"name":"traitId","type":"uint256","indexed":true,"internalType":"uint256"},{"name":"amountInWei","type":"uint256","indexed":true,"internalType":"uint256"},{"name":"buyer","type":"address","indexed":true,"internalType":"address"},{"name":"seller","type":"address","indexed":false,"internalType":"address"}],"anonymous":false},{"type":"event","name":"TraitBidEntered","inputs":[{"name":"traitId","type":"uint256","indexed":true,"internalType":"uint256"},{"name":"bidder","type":"address","indexed":true,"internalType":"address"},{"name":"amountInWei","type":"uint256","indexed":true,"internalType":"uint256"}],"anonymous":false},{"type":"event","name":"TraitBidWithdrawn","inputs":[{"name":"traitId","type":"uint256","indexed":true,"internalType":"uint256"},{"name":"bidder","type":"address","indexed":true,"internalType":"address"},{"name":"amountInWei","type":"uint256","indexed":true,"internalType":"uint256"}],"anonymous":false},{"type":"event","name":"TraitBought","inputs":[{"name":"traitId","type":"uint256","indexed":true,"internalType":"uint256"},{"name":"buyerTBA","type":"address","indexed":true,"internalType":"address"},{"name":"amountInWei","type":"uint256","indexed":true,"internalType":"uint256"},{"name":"buyer","type":"address","indexed":false,"internalType":"address"}],"anonymous":false},{"type":"event","name":"TraitOfferCanceled","inputs":[{"name":"traitId","type":"uint256","indexed":true,"internalType":"uint256"}],"anonymous":false},{"type":"event","name":"TraitOffered","inputs":[{"name":"traitId","type":"uint256","indexed":true,"internalType":"uint256"},{"name":"price","type":"uint256","indexed":true,"internalType":"uint256"},{"name":"seller","type":"address","indexed":true,"internalType":"address"},{"name":"sellerTBA","type":"address","indexed":false,"internalType":"address"}],"anonymous":false},{"type":"error","name":"AlreadyInitialized","inputs":[]},{"type":"error","name":"ApproveTheMarketplace","inputs":[]},{"type":"error","name":"BidIsTooLow","inputs":[]},{"type":"error","name":"BidderChanged","inputs":[]},{"type":"error","name":"CMUnauthorized","inputs":[]},{"type":"error","name":"CantAcceptYourOwnBid","inputs":[]},{"type":"error","name":"CantBeZero","inputs":[]},{"type":"error","name":"CantBidOnYourOwnChonk","inputs":[]},{"type":"error","name":"CantBidOnYourOwnTrait","inputs":[]},{"type":"error","name":"CantBuyYourOwnChonk","inputs":[]},{"type":"error","name":"CantBuyYourOwnTrait","inputs":[]},{"type":"error","name":"NewOwnerIsZeroAddress","inputs":[]},{"type":"error","name":"NoBidToAccept","inputs":[]},{"type":"error","name":"NoHandoverRequest","inputs":[]},{"type":"error","name":"NoOfferToCancel","inputs":[]},{"type":"error","name":"NotYourBid","inputs":[]},{"type":"error","name":"NotYourChonk","inputs":[]},{"type":"error","name":"NotYourOffer","inputs":[]},{"type":"error","name":"NotYourTrait","inputs":[]},{"type":"error","name":"OfferDoesNotExist","inputs":[]},{"type":"error","name":"OnlyTraitContract","inputs":[]},{"type":"error","name":"PausabilityRevoked","inputs":[]},{"type":"error","name":"Paused","inputs":[]},{"type":"error","name":"TBANeedsToApproveMarketplace","inputs":[]},{"type":"error","name":"TraitEquipped","inputs":[]},{"type":"error","name":"TraitIdsChangedSinceBid","inputs":[]},{"type":"error","name":"TraitIdsChangedSinceListingRelist","inputs":[]},{"type":"error","name":"Unauthorized","inputs":[]},{"type":"error","name":"WithdrawFailed","inputs":[]},{"type":"error","name":"WrongAmount","inputs":[]},{"type":"error","name":"YouCantBuyThatChonk","inputs":[]},{"type":"error","name":"YouCantBuyThatTrait","inputs":[]}],"bytecode":{"object":"0x60c06040523480156200001157600080fd5b50604051620059df380380620059df83398101604081905262000034916200016c565b6001600081905550620000616040518060600160405280602c8152602001620059b3602c913933620000a1565b6200006c33620000f2565b6001600160a01b0393841660805291831660a05260ff16600155600280546001600160a01b0319169190921617905562000232565b620000ee8282604051602401620000ba929190620001d0565b60408051601f198184030181529190526020810180516001600160e01b0390811663319af33360e01b179091526200012e16565b5050565b6001600160a01b0316638b78c6d8198190558060007f8be0079c531659141344cd1fd0a4f28419497f9722a3daafe3b4186f6b6457e08180a350565b80516a636f6e736f6c652e6c6f67602083016000808483855afa5050505050565b80516001600160a01b03811681146200016757600080fd5b919050565b600080600080608085870312156200018357600080fd5b6200018e856200014f565b93506200019e602086016200014f565b9250604085015160ff81168114620001b557600080fd5b9150620001c5606086016200014f565b905092959194509250565b604081526000835180604084015260005b81811015620002005760208187018101516060868401015201620001e1565b50600060608285018101919091526001600160a01b03949094166020840152601f01601f191690910190910192915050565b60805160a05161565162000362600039600081816107f401528181610c240152818161115c015281816111bf015281816112bb0152818161169c0152818161252201528181612bc301528181612cc9015281816130250152818161375d01526144430152600081816108f501528181610b7a01528181610cba015281816110fd0152818161118b015281816115710152818161178f015281816118410152818161194f01528181611c6601528181611d2901528181611f8a01528181612268015281816125940152818161299501528181612b2c01528181612e2701528181612ebb0152818161323b01528181613567015281816136410152818161388501528181613b6601528181613ed60152818161425801528181614399015281816144d901526146e201526156516000f3fe6080604052600436106102e45760003560e01c806365318c8611610190578063b1f3694e116100dc578063ed89f70411610095578063f2fde38b1161006f578063f2fde38b14610a12578063f495f5a814610a25578063f827d63214610a45578063fee81cf414610a6557600080fd5b8063ed89f7041461096a578063f04e283e1461098a578063f09882141461099d57600080fd5b8063b1f3694e146108a2578063b5baf476146108c3578063c51ac41b146108e3578063cca5975914610917578063cecea40114610937578063ebd34a881461095757600080fd5b80638b32238311610149578063917e3a7c11610123578063917e3a7c1461082f5780639f24c94514610842578063a2e6961314610862578063a4cc83241461088257600080fd5b80638b322383146107b15780638b78b13b146107e25780638da5cb5b1461081657600080fd5b806365318c86146106db578063710b27191461070a578063715018a61461072a578063795aded3146107325780637dbc8619146107525780638a71bb2d1461079b57600080fd5b80634666a4161161024f57806355737f351161020857806359927044116101e2578063599270441461064a5780635c975abb1461066a57806361ba27da1461069b578063644ec527146106bb57600080fd5b806355737f35146105ec578063571ccb74146106245780635793b22e1461063757600080fd5b80634666a416146104d657806346c627fe146104f6578063472729bb146105165780634f6088cd146105445780634fc9923e146105c457806354d1f13d146105e457600080fd5b80632e1d274f116102a15780632e1d274f146103a15780632f30cabd146103c15780632fbe78f0146103fc578063361f1c521461041c57806336442e30146104315780633ce0c3721461046357600080fd5b806302329a29146102e95780630b1142561461030b5780630cbd09221461032b5780631525ff7d1461036457806324600fc3146103845780632569296214610399575b600080fd5b3480156102f557600080fd5b50610309610304366004614d6b565b610a98565b005b34801561031757600080fd5b50610309610326366004614d8f565b610ae9565b34801561033757600080fd5b5061034b610346366004614dbb565b610dff565b60405161035b9493929190614e56565b60405180910390f35b34801561037057600080fd5b5061030961037f366004614eaf565b610f44565b34801561039057600080fd5b50610309610f6e565b610309611024565b3480156103ad57600080fd5b506103096103bc366004614dbb565b611074565b3480156103cd57600080fd5b506103ee6103dc366004614eaf565b60076020526000908152604090205481565b60405190815260200161035b565b34801561040857600080fd5b50610309610417366004614ecc565b6112b0565b34801561042857600080fd5b506103096113a7565b34801561043d57600080fd5b5061045161044c366004614dbb565b6113ef565b60405161035b96959493929190614efc565b34801561046f57600080fd5b506104c761047e366004614dbb565b600081815260066020908152604091829020825160608101845281546001600160a01b039081168083526001840154909116938201849052600290920154930183905293909250565b60405161035b93929190614f55565b3480156104e257600080fd5b506103096104f1366004614fe4565b611566565b34801561050257600080fd5b50610309610511366004614dbb565b611691565b34801561052257600080fd5b50610536610531366004614dbb565b611788565b60405161035b92919061508f565b34801561055057600080fd5b5061059561055f366004614dbb565b600460205260009081526040902080546001820154600283015460039093015491926001600160a01b0391821692908216911684565b604080519485526001600160a01b0393841660208601529183169184019190915216606082015260800161035b565b3480156105d057600080fd5b506103096105df3660046150bd565b6118e0565b610309611b65565b3480156105f857600080fd5b5061060c6106073660046150f6565b611ba1565b6040516001600160a01b03909116815260200161035b565b6103096106323660046150f6565b611bd9565b610309610645366004614dbb565b611efe565b34801561065657600080fd5b5060025461060c906001600160a01b031681565b34801561067657600080fd5b5060025461068b90600160a01b900460ff1681565b604051901515815260200161035b565b3480156106a757600080fd5b506103096106b6366004614dbb565b612250565b3480156106c757600080fd5b506103096106d6366004614dbb565b61225d565b3480156106e757600080fd5b506106fb6106f6366004614dbb565b61244a565b60405161035b93929190615118565b34801561071657600080fd5b5061068b6107253660046150f6565b6124ff565b610309612659565b34801561073e57600080fd5b5061030961074d366004614dbb565b61266d565b34801561075e57600080fd5b506104c761076d366004614dbb565b6006602052600090815260409020805460018201546002909201546001600160a01b03918216929091169083565b3480156107a757600080fd5b506103ee60015481565b3480156107bd57600080fd5b506107d16107cc366004614dbb565b612861565b60405161035b95949392919061513f565b3480156107ee57600080fd5b5061060c7f000000000000000000000000000000000000000000000000000000000000000081565b34801561082257600080fd5b50638b78c6d8195461060c565b61030961083d3660046150f6565b61292b565b34801561084e57600080fd5b5061030961085d366004614dbb565b6130ec565b34801561086e57600080fd5b506103ee61087d366004614dbb565b6131af565b34801561088e57600080fd5b5061030961089d3660046150f6565b6131cc565b3480156108ae57600080fd5b5060025461068b90600160a81b900460ff1681565b3480156108cf57600080fd5b506103096108de366004614ecc565b613452565b3480156108ef57600080fd5b5061060c7f000000000000000000000000000000000000000000000000000000000000000081565b34801561092357600080fd5b50610309610932366004614ecc565b61381b565b34801561094357600080fd5b50610309610952366004614dbb565b613c24565b610309610965366004614dbb565b613d27565b34801561097657600080fd5b50610309610985366004615179565b614308565b610309610998366004614eaf565b614673565b3480156109a957600080fd5b506105956109b8366004614dbb565b6000908152600460209081526040918290208251608081018452815480825260018301546001600160a01b039081169483018590526002840154811695830186905260039093015490921660609091018190529093919291565b610309610a20366004614eaf565b6146b0565b348015610a3157600080fd5b50610309610a40366004614ecc565b6146d7565b348015610a5157600080fd5b50610309610a603660046150f6565b6148a6565b348015610a7157600080fd5b506103ee610a80366004614eaf565b63389a75e1600c908152600091909152602090205490565b610aa0614997565b600254600160a81b900460ff1615610acb5760405163d9ef8fb560e01b815260040160405180910390fd5b60028054911515600160a01b0260ff60a01b19909216919091179055565b600254600160a01b900460ff1615610b14576040516313d0ff5960e31b815260040160405180910390fd5b8080600003610b365760405163e7195f5160e01b815260040160405180910390fd5b610b4084846124ff565b610b5d57604051633e79b9f360e01b815260040160405180910390fd5b6040516311543c9960e31b815260048101849052602481018590527f00000000000000000000000000000000000000000000000000000000000000006001600160a01b031690638aa1e4c890604401602060405180830381865afa158015610bc9573d6000803e3d6000fd5b505050506040513d601f19601f82011682018060405250810190610bed91906151ba565b15610c0b5760405163b14aa60560e01b815260040160405180910390fd5b6040516331a9108f60e11b8152600481018590526000907f00000000000000000000000000000000000000000000000000000000000000006001600160a01b031690636352211e90602401602060405180830381865afa158015610c73573d6000803e3d6000fd5b505050506040513d601f19601f82011682018060405250810190610c9791906151d7565b604051624003bd60e41b8152600481018690529091506000906001600160a01b037f000000000000000000000000000000000000000000000000000000000000000016906304003bd0906024016040805180830381865afa158015610d00573d6000803e3d6000fd5b505050506040513d601f19601f82011682018060405250810190610d2491906151f4565b50604080516080810182528681526001600160a01b0380841660208084018281528884168587019081526000606087018181528f825260049094528790209551865590516001860180549186166001600160a01b03199283161790559051600286018054918616918316919091179055905160039094018054949093169316929092179055905191925090859088907fd81820ebfdde47351b4ac56296bba70e8f57f24195955168a1b5bf6b653e3d3a90610def9087906001600160a01b0391909116815260200190565b60405180910390a4505050505050565b6000818152600560209081526040808320815160808101835281546001600160a01b0316815260018201548185015260028201805484518187028101870186528181528796606096879689969590949186019392909190830182828015610e8557602002820191906000526020600020905b815481526020019060010190808311610e71575b50505050508152602001600382018054610e9e90615223565b80601f0160208091040260200160405190810160405280929190818152602001828054610eca90615223565b8015610f175780601f10610eec57610100808354040283529160200191610f17565b820191906000526020600020905b815481529060010190602001808311610efa57829003601f168201915b505050919092525050815160208301516040840151606090940151919a9099509297509550909350505050565b610f4c614997565b600280546001600160a01b0319166001600160a01b0392909216919091179055565b600260005403610f995760405162461bcd60e51b8152600401610f909061525d565b60405180910390fd5b60026000908155338082526007602052604080832080549084905590519092919083908381818185875af1925050503d8060008114610ff4576040519150601f19603f3d011682016040523d82523d6000602084013e610ff9565b606091505b505090508061101b57604051631d42c86760e21b815260040160405180910390fd5b50506001600055565b60006202a30067ffffffffffffffff164201905063389a75e1600c5233600052806020600c2055337fdbf36a107da19e49527a7176a1babf963b4b0ff8cde35ee35d6cd8f1f9ac7e1d600080a250565b6110966040518060800160405280604681526020016155d660469139826149b2565b6110c960405180604001604052806011815260200170169036b2b9b9b0b3b29039b2b73232b91d60791b815250336149f7565b611121604051806040016040528060168152602001752d2061646472657373285045544552535f4d41494e2960501b8152507f00000000000000000000000000000000000000000000000000000000000000006149f7565b6111806040518060400160405280601781526020017f2d20616464726573732850455445525f545241495453290000000000000000008152507f00000000000000000000000000000000000000000000000000000000000000006149f7565b336001600160a01b037f000000000000000000000000000000000000000000000000000000000000000016148015906111e25750336001600160a01b037f00000000000000000000000000000000000000000000000000000000000000001614155b1561122f576112166040518060400160405280600e81526020016d10d3555b985d5d1a1bdc9a5e995960921b815250614a3c565b60405163125e77d360e01b815260040160405180910390fd5b6000818152600460205260409020600101546001600160a01b03161561128c5760008181526004602052604081209081556001810180546001600160a01b0319908116909155600282018054821690556003909101805490911690555b6112ad60405180606001604052806035815260200161556060359139614a3c565b50565b336001600160a01b037f000000000000000000000000000000000000000000000000000000000000000016146112f95760405163125e77d360e01b815260040160405180910390fd5b600082815260066020908152604091829020825160608101845281546001600160a01b0390811680835260018401549091169382019390935260029091015492810192909252156113a257816001600160a01b031681602001516001600160a01b0316036113a25760008381526006602052604080822080546001600160a01b031990811682556001820180549091169055600201919091558151908201516113a29190614a7f565b505050565b6113af614997565b600254600160a81b900460ff16156113da5760405163d9ef8fb560e01b815260040160405180910390fd5b6002805460ff60a81b1916600160a81b179055565b6000818152600360208181526040808420815160c0810183528154815260018201546001600160a01b03908116828601526002830154811682850152948201549094166060858101919091526004820180548451818702810187019095528085528796879687969495869588959394919360808601939192909183018282801561149857602002820191906000526020600020905b815481526020019060010190808311611484575b505050505081526020016005820180546114b190615223565b80601f01602080910402602001604051908101604052809291908181526020018280546114dd90615223565b801561152a5780601f106114ff5761010080835404028352916020019161152a565b820191906000526020600020905b81548152906001019060200180831161150d57829003601f168201915b5050509190925250508151602083015160408401516060850151608086015160a090960151939e929d50909b5099509297509550909350505050565b336001600160a01b037f000000000000000000000000000000000000000000000000000000000000000016146115af5760405163125e77d360e01b815260040160405180910390fd5b600082815260066020908152604091829020825160608101845281546001600160a01b0390811680835260018401549091169382019390935260029091015492810192909252156113a25760005b825181101561168b57600083828151811061161a5761161a615294565b60200260200101519050806001600160a01b031683602001516001600160a01b0316036116825760008581526006602052604080822080546001600160a01b031990811682556001820180549091169055600201919091558351908401516116829190614a7f565b506001016115fd565b50505050565b336001600160a01b037f000000000000000000000000000000000000000000000000000000000000000016146116da5760405163e007692f60e01b815260040160405180910390fd5b6116fc60405180608001604052806041815260200161559560419139826149b2565b61172f60405180604001604052806011815260200170169036b2b9b9b0b3b29039b2b73232b91d60791b815250336149f7565b600081815260036020819052604082208281556001810180546001600160a01b03199081169091556002820180548216905591810180549092169091559061177a6004830182614ca5565b6113a2600583016000614cc3565b60608060007f00000000000000000000000000000000000000000000000000000000000000006001600160a01b03166304003bd0856040518263ffffffff1660e01b81526004016117db91815260200190565b6040805180830381865afa1580156117f7573d6000803e3d6000fd5b505050506040513d601f19601f8201168201806040525081019061181b91906151f4565b604051634cc67db760e11b81526001600160a01b038281166004830152919350600092507f00000000000000000000000000000000000000000000000000000000000000009091169063998cfb6e90602401600060405180830381865afa15801561188a573d6000803e3d6000fd5b505050506040513d6000823e601f3d908101601f191682016040526118b291908101906152aa565b905080816040516020016118c69190615330565b604051602081830303815290604052935093505050915091565b600254600160a01b900460ff161561190b576040516313d0ff5960e31b815260040160405180910390fd5b818060000361192d5760405163e7195f5160e01b815260040160405180910390fd5b604051624003bd60e41b81526004810185905260009081906001600160a01b037f000000000000000000000000000000000000000000000000000000000000000016906304003bd0906024016040805180830381865afa158015611995573d6000803e3d6000fd5b505050506040513d601f19601f820116820180604052508101906119b991906151f4565b9092509050336001600160a01b038316146119e757604051633faa6c4560e01b815260040160405180910390fd5b6000806119f388611788565b915091506040518060c00160405280888152602001856001600160a01b03168152602001846001600160a01b03168152602001876001600160a01b0316815260200183815260200182815250600360008a81526020019081526020016000206000820151816000015560208201518160010160006101000a8154816001600160a01b0302191690836001600160a01b0316021790555060408201518160020160006101000a8154816001600160a01b0302191690836001600160a01b0316021790555060608201518160030160006101000a8154816001600160a01b0302191690836001600160a01b031602179055506080820151816004019080519060200190611aff929190614cfd565b5060a08201516005820190611b149082615393565b50506040516001600160a01b0385811682528616915088908a907f749104dd5f8de8e4b889d790ea029b6ec8515f14cf73d20604b60e0b649a95df9060200160405180910390a45050505050505050565b63389a75e1600c523360005260006020600c2055337ffa7b8eab7da67f412cc9575ed43464468f9bfbae89d1675917346ca6d8fe3c92600080a2565b60086020528160005260406000208181548110611bbd57600080fd5b6000918252602090912001546001600160a01b03169150829050565b3480600003611bfb5760405163e7195f5160e01b815260040160405180910390fd5b600254600160a01b900460ff1615611c26576040516313d0ff5960e31b815260040160405180910390fd5b600260005403611c485760405162461bcd60e51b8152600401610f909061525d565b60026000908155604051624003bd60e41b81526004810184905281907f00000000000000000000000000000000000000000000000000000000000000006001600160a01b0316906304003bd0906024016040805180830381865afa158015611cb4573d6000803e3d6000fd5b505050506040513d601f19601f82011682018060405250810190611cd891906151f4565b90925090506001600160a01b0382163314611d0657604051633faa6c4560e01b815260040160405180910390fd5b604051636670434960e01b81526004810186905260009081906001600160a01b037f00000000000000000000000000000000000000000000000000000000000000001690636670434990602401606060405180830381865afa158015611d70573d6000803e3d6000fd5b505050506040513d601f19601f82011682018060405250810190611d949190615453565b9250509150336001600160a01b0316816001600160a01b03161480611dc157506001600160a01b03821633145b15611ddf576040516303d54cb760e11b815260040160405180910390fd5b600087815260066020908152604091829020825160608101845281546001600160a01b0390811682526001830154169281019290925260020154918101829052903411611e3f576040516386bed4cd60e01b815260040160405180910390fd5b604080516060810182523381526001600160a01b0386811660208084019182523484860190815260008e8152600690925290859020935184549084166001600160a01b03199182161785559151600185018054919094169216919091179091555160029091015581015115611ec057611ec081600001518260400151614a7f565b604051349033908a907f10962e2373847454af3c025d9b77161f5244f4e2a69e3e9ddf4954b2622a868990600090a450506001600055505050505050565b3480600003611f205760405163e7195f5160e01b815260040160405180910390fd5b600254600160a01b900460ff1615611f4b576040516313d0ff5960e31b815260040160405180910390fd5b600260005403611f6d5760405162461bcd60e51b8152600401610f909061525d565b600260009081556040516331a9108f60e11b8152600481018490527f00000000000000000000000000000000000000000000000000000000000000006001600160a01b031690636352211e90602401602060405180830381865afa158015611fd9573d6000803e3d6000fd5b505050506040513d601f19601f82011682018060405250810190611ffd91906151d7565b9050336001600160a01b038216036120285760405163d2e7167f60e01b815260040160405180910390fd5b6000838152600560209081526040808320815160808101835281546001600160a01b031681526001820154818501526002820180548451818702810187018652818152929593948601938301828280156120a157602002820191906000526020600020905b81548152602001906001019080831161208d575b505050505081526020016003820180546120ba90615223565b80601f01602080910402602001604051908101604052809291908181526020018280546120e690615223565b80156121335780601f1061210857610100808354040283529160200191612133565b820191906000526020600020905b81548152906001019060200180831161211657829003601f168201915b505050505081525050905080602001513411612162576040516386bed4cd60e01b815260040160405180910390fd5b60008061216e86611788565b604080516080810182523381523460208083019182528284018681526060840186905260008d81526005835294909420835181546001600160a01b0319166001600160a01b039091161781559151600183015592518051959750939550909390926121e0926002850192910190614cfd565b50606082015160038201906121f59082615393565b5050506020830151156122145761221483600001518460200151614a7f565b6040513490339088907f5bcbf8d6be0293e172be2f32bd63e586fd65b0d15d70c845d393d73f2cfcff1790600090a45050600160005550505050565b612258614997565b600155565b336001600160a01b037f000000000000000000000000000000000000000000000000000000000000000016146122a65760405163125e77d360e01b815260040160405180910390fd5b6000818152600360208181526040808420815160c0810183528154815260018201546001600160a01b0390811682860152600283015481168285015294820154909416606085015260048101805483518186028101860190945280845291936080860193929083018282801561233b57602002820191906000526020600020905b815481526020019060010190808311612327575b5050505050815260200160058201805461235490615223565b80601f016020809104026020016040519081016040528092919081815260200182805461238090615223565b80156123cd5780601f106123a2576101008083540402835291602001916123cd565b820191906000526020600020905b8154815290600101906020018083116123b057829003601f168201915b5050509190925250505060208101519091506001600160a01b03161561244657600082815260036020819052604082208281556001810180546001600160a01b0319908116909155600282018054821690559181018054909216909155906124386004830182614ca5565b61168b600583016000614cc3565b5050565b6005602052600090815260409020805460018201546003830180546001600160a01b0390931693919261247c90615223565b80601f01602080910402602001604051908101604052809291908181526020018280546124a890615223565b80156124f55780601f106124ca576101008083540402835291602001916124f5565b820191906000526020600020905b8154815290600101906020018083116124d857829003601f168201915b5050505050905083565b6040516331a9108f60e11b81526004810183905260009081906001600160a01b037f00000000000000000000000000000000000000000000000000000000000000001690636352211e90602401602060405180830381865afa158015612569573d6000803e3d6000fd5b505050506040513d601f19601f8201168201806040525081019061258d91906151d7565b90506000807f00000000000000000000000000000000000000000000000000000000000000006001600160a01b03166304003bd0866040518263ffffffff1660e01b81526004016125e091815260200190565b6040805180830381865afa1580156125fc573d6000803e3d6000fd5b505050506040513d601f19601f8201168201806040525081019061262091906151f4565b91509150806001600160a01b0316836001600160a01b031614801561264d57506001600160a01b03821633145b93505050505b92915050565b612661614997565b61266b6000614b0c565b565b60026000540361268f5760405162461bcd60e51b8152600401610f909061525d565b60026000818155828152600560209081526040808320815160808101835281546001600160a01b031681526001820154818501529481018054835181860281018601855281815295969592949386019383018282801561270e57602002820191906000526020600020905b8154815260200190600101908083116126fa575b5050505050815260200160038201805461272790615223565b80601f016020809104026020016040519081016040528092919081815260200182805461275390615223565b80156127a05780601f10612775576101008083540402835291602001916127a0565b820191906000526020600020905b81548152906001019060200180831161278357829003601f168201915b5050509190925250508151919250506001600160a01b031633146127d75760405163173f0e6f60e21b815260040160405180910390fd5b600082815260056020526040812080546001600160a01b031916815560018101829055906128086002830182614ca5565b612816600383016000614cc3565b5050612826338260200151614a7f565b6020810151604051339084907f42aa62a335199e81c12706e51f762071115ee5df409428ef670b00ee8b7a3d2690600090a450506001600055565b60036020819052600091825260409091208054600182015460028301549383015460058401805493956001600160a01b03938416959084169493909216926128a890615223565b80601f01602080910402602001604051908101604052809291908181526020018280546128d490615223565b80156129215780601f106128f657610100808354040283529160200191612921565b820191906000526020600020905b81548152906001019060200180831161290457829003601f168201915b5050505050905085565b600254600160a01b900460ff1615612956576040516313d0ff5960e31b815260040160405180910390fd5b6002600054036129785760405162461bcd60e51b8152600401610f909061525d565b600260009081556040516331a9108f60e11b8152600481018390527f00000000000000000000000000000000000000000000000000000000000000006001600160a01b031690636352211e90602401602060405180830381865afa1580156129e4573d6000803e3d6000fd5b505050506040513d601f19601f82011682018060405250810190612a0891906151d7565b9050612a3e60405180604001604052806012815260200171189d5e551c985a5d0e8817dd1c985a5d125960721b815250846149b2565b612a7560405180604001604052806015815260200174189d5e551c985a5d0e8817d99bdc90da1bdb9ad259605a1b815250836149b2565b612ab46040518060400160405280601881526020017f62757954726169743a206f776e6572206f662043686f6e6b0000000000000000815250826149f7565b612aea60405180604001604052806014815260200173313abcaa3930b4ba1d1036b9b39739b2b73232b960611b815250336149f7565b6001600160a01b0381163314612b1357604051633faa6c4560e01b815260040160405180910390fd5b604051639c05d68d60e01b8152600481018390526000907f00000000000000000000000000000000000000000000000000000000000000006001600160a01b031690639c05d68d90602401602060405180830381865afa158015612b7b573d6000803e3d6000fd5b505050506040513d601f19601f82011682018060405250810190612b9f91906151d7565b6040516331a9108f60e11b8152600481018690529091506000906001600160a01b037f00000000000000000000000000000000000000000000000000000000000000001690636352211e90602401602060405180830381865afa158015612c0a573d6000803e3d6000fd5b505050506040513d601f19601f82011682018060405250810190612c2e91906151d7565b9050816001600160a01b0316816001600160a01b031603612c6257604051633617ec7f60e21b815260040160405180910390fd5b60008581526004602081815260409283902083516080810185528154815260018201546001600160a01b03908116938201939093526002820154831681860181905260039092015483166060820152935163e985e9c560e01b8152928301523060248301527f0000000000000000000000000000000000000000000000000000000000000000169063e985e9c590604401602060405180830381865afa158015612d10573d6000803e3d6000fd5b505050506040513d601f19601f82011682018060405250810190612d3491906151ba565b612d5157604051631c4f6a7160e11b815260040160405180910390fd5b60208101516001600160a01b038116612d7d576040516374dbff7960e01b815260040160405180910390fd5b336001600160a01b03821603612da657604051633617ec7f60e21b815260040160405180910390fd5b60608201516001600160a01b031615801590612dcf575060608201516001600160a01b03163314155b15612ded5760405163a969b35f60e01b815260040160405180910390fd5b81513414612e0e576040516349986e7360e01b815260040160405180910390fd5b604051636670434960e01b8152600481018890526000907f00000000000000000000000000000000000000000000000000000000000000006001600160a01b031690636670434990602401606060405180830381865afa158015612e76573d6000803e3d6000fd5b505050506040513d601f19601f82011682018060405250810190612e9a9190615453565b506040516311543c9960e31b815260048101829052602481018b90529092507f00000000000000000000000000000000000000000000000000000000000000006001600160a01b03169150638aa1e4c890604401602060405180830381865afa158015612f0b573d6000803e3d6000fd5b505050506040513d601f19601f82011682018060405250810190612f2f91906151ba565b15612f4d5760405163b14aa60560e01b815260040160405180910390fd5b6000888152600460209081526040808320838155600180820180546001600160a01b031990811690915560028084018054831690556003909301805490911690556006845293829020825160608101845281546001600160a01b03908116808352968301541694810194909452015490820152903390036130095760008981526006602052604080822080546001600160a01b031990811682556001820180549091169055600201919091558151908201516130099190614a7f565b60408085015190516323b872dd60e01b81526001600160a01b037f000000000000000000000000000000000000000000000000000000000000000016916323b872dd9161305d91908a908e90600401614f55565b600060405180830381600087803b15801561307757600080fd5b505af115801561308b573d6000803e3d6000fd5b505050506130993484614b4a565b5060405133815234906001600160a01b038816908b907fdd82a5574300be675475ec959b17793802b7965ba449cb5cc84fe68358189b8d9060200160405180910390a45050600160005550505050505050565b6000818152600360205260409020600101546001600160a01b03163314613126576040516332a0bb6960e01b815260040160405180910390fd5b600081815260036020819052604082208281556001810180546001600160a01b0319908116909155600282018054821690559181018054909216909155906131716004830182614ca5565b61317f600583016000614cc3565b505060405181907ffd1a8c70ee5a4eb250cfc39bfb1fb2d0ee22580a19073441312b5055ef09411490600090a250565b6000612710600154836131c291906154a1565b61265391906154b8565b600254600160a01b900460ff16156131f7576040516313d0ff5960e31b815260040160405180910390fd5b80806000036132195760405163e7195f5160e01b815260040160405180910390fd5b604051624003bd60e41b81526004810184905260009081906001600160a01b037f000000000000000000000000000000000000000000000000000000000000000016906304003bd0906024016040805180830381865afa158015613281573d6000803e3d6000fd5b505050506040513d601f19601f820116820180604052508101906132a591906151f4565b9092509050336001600160a01b038316146132d357604051633faa6c4560e01b815260040160405180910390fd5b6000806132df87611788565b915091506040518060c00160405280878152602001856001600160a01b03168152602001846001600160a01b0316815260200160006001600160a01b0316815260200183815260200182815250600360008981526020019081526020016000206000820151816000015560208201518160010160006101000a8154816001600160a01b0302191690836001600160a01b0316021790555060408201518160020160006101000a8154816001600160a01b0302191690836001600160a01b0316021790555060608201518160030160006101000a8154816001600160a01b0302191690836001600160a01b0316021790555060808201518160040190805190602001906133ec929190614cfd565b5060a082015160058201906134019082615393565b50506040516001600160a01b03858116825286169150879089907f749104dd5f8de8e4b889d790ea029b6ec8515f14cf73d20604b60e0b649a95df906020015b60405180910390a450505050505050565b600254600160a01b900460ff161561347d576040516313d0ff5960e31b815260040160405180910390fd5b60026000540361349f5760405162461bcd60e51b8152600401610f909061525d565b6002600081815583815260066020908152604091829020825160608101845281546001600160a01b03908116808352600184015490911693820193909352930154918301919091528061350557604051637ccf97e760e01b815260040160405180910390fd5b336001600160a01b0382160361352e576040516309f6914560e21b815260040160405180910390fd5b826001600160a01b0316816001600160a01b03161461356057604051630e5d99a160e41b815260040160405180910390fd5b60008060007f00000000000000000000000000000000000000000000000000000000000000006001600160a01b03166366704349886040518263ffffffff1660e01b81526004016135b391815260200190565b606060405180830381865afa1580156135d0573d6000803e3d6000fd5b505050506040513d601f19601f820116820180604052508101906135f49190615453565b919450925090506001600160a01b038116331461362457604051633e79b9f360e01b815260040160405180910390fd5b6040516311543c9960e31b815260048101839052602481018890527f00000000000000000000000000000000000000000000000000000000000000006001600160a01b031690638aa1e4c890604401602060405180830381865afa158015613690573d6000803e3d6000fd5b505050506040513d601f19601f820116820180604052508101906136b491906151ba565b156136d25760405163b14aa60560e01b815260040160405180910390fd5b6000878152600460209081526040808320838155600180820180546001600160a01b0319908116909155600280840180548316905560039093018054821690556006909452828520805485168155908101805490941690935591909101919091558501516137409082614b4a565b5060208501516040516323b872dd60e01b81526001600160a01b037f000000000000000000000000000000000000000000000000000000000000000016916323b872dd916137949187918c90600401614f55565b600060405180830381600087803b1580156137ae57600080fd5b505af11580156137c2573d6000803e3d6000fd5b50505060408087015190516001600160a01b0384811682528716925089907fc476c7174eb6bcf722015101bfd2abf9161ab48659b47e55f8b7260b06ebf0119060200160405180910390a4505060016000555050505050565b600254600160a01b900460ff1615613846576040516313d0ff5960e31b815260040160405180910390fd5b6002600054036138685760405162461bcd60e51b8152600401610f909061525d565b600260009081556040516331a9108f60e11b8152600481018490527f00000000000000000000000000000000000000000000000000000000000000006001600160a01b031690636352211e90602401602060405180830381865afa1580156138d4573d6000803e3d6000fd5b505050506040513d601f19601f820116820180604052508101906138f891906151d7565b90506001600160a01b038116331461392357604051633faa6c4560e01b815260040160405180910390fd5b6000838152600560209081526040808320815160808101835281546001600160a01b0316815260018201548185015260028201805484518187028101870186528181529295939486019383018282801561399c57602002820191906000526020600020905b815481526020019060010190808311613988575b505050505081526020016003820180546139b590615223565b80601f01602080910402602001604051908101604052809291908181526020018280546139e190615223565b8015613a2e5780601f10613a0357610100808354040283529160200191613a2e565b820191906000526020600020905b815481529060010190602001808311613a1157829003601f168201915b5050509190925250508151919250506001600160a01b038116613a6457604051637ccf97e760e01b815260040160405180910390fd5b336001600160a01b03821603613a8d576040516309f6914560e21b815260040160405180910390fd5b836001600160a01b0316816001600160a01b031614613abf57604051630e5d99a160e41b815260040160405180910390fd5b6000613aca86611788565b915050826060015180519060200120818051906020012014613aff576040516331d1776560e11b815260040160405180910390fd5b600086815260056020526040812080546001600160a01b03191681556001810182905590613b306002830182614ca5565b613b3e600383016000614cc3565b5050613b4e836020015185614b4a565b506040516323b872dd60e01b81526001600160a01b037f000000000000000000000000000000000000000000000000000000000000000016906323b872dd90613b9f90339086908b90600401614f55565b600060405180830381600087803b158015613bb957600080fd5b505af1158015613bcd573d6000803e3d6000fd5b505050506020838101516040516001600160a01b03878116825285169289917f93f583f5df123bec43b0c3403a5d3dae34bc2251a68523f99d3041cb80c6ea38910160405180910390a45050600160005550505050565b600260005403613c465760405162461bcd60e51b8152600401610f909061525d565b6002600081815582815260066020908152604091829020825160608101845281546001600160a01b03908116808352600184015490911693820193909352930154918301919091523314613cad5760405163173f0e6f60e21b815260040160405180910390fd5b60008281526006602052604080822080546001600160a01b03199081168255600182018054909116905560020191909155810151613cec903390614a7f565b6040808201519051339084907f7647025e5547900d10b38a3053f5fcb9037d89294d94600b0bfe4f48c798439690600090a450506001600055565b600254600160a01b900460ff1615613d52576040516313d0ff5960e31b815260040160405180910390fd5b600260005403613d745760405162461bcd60e51b8152600401610f909061525d565b60026000818155828152600360208181526040808420815160c0810183528154815260018201546001600160a01b039081168286015296820154871681840152938101549095166060840152600485018054825181850281018501909352808352949593946080860193830182828015613e0d57602002820191906000526020600020905b815481526020019060010190808311613df9575b50505050508152602001600582018054613e2690615223565b80601f0160208091040260200160405190810160405280929190818152602001828054613e5290615223565b8015613e9f5780601f10613e7457610100808354040283529160200191613e9f565b820191906000526020600020905b815481529060010190602001808311613e8257829003601f168201915b50505091909252505050602081015160405163e985e9c560e01b81526001600160a01b0391821660048201523060248201529192507f0000000000000000000000000000000000000000000000000000000000000000169063e985e9c590604401602060405180830381865afa158015613f1d573d6000803e3d6000fd5b505050506040513d601f19601f82011682018060405250810190613f4191906151ba565b613f5e576040516361cf5f1360e01b815260040160405180910390fd5b80513414613f7f576040516349986e7360e01b815260040160405180910390fd5b60208101516001600160a01b038116613fab576040516374dbff7960e01b815260040160405180910390fd5b336001600160a01b03821603613fd45760405163abcb310f60e01b815260040160405180910390fd5b60608201516001600160a01b031615801590613ffd575060608201516001600160a01b03163314155b1561401b57604051634b38765560e01b815260040160405180910390fd5b600061402684611788565b9150508260a001518051906020012081805190602001201461405b576040516331d1776560e11b815260040160405180910390fd5b600084815260036020819052604082208281556001810180546001600160a01b0319908116909155600282018054821690559181018054909216909155906140a66004830182614ca5565b6140b4600583016000614cc3565b50506000848152600560209081526040808320815160808101835281546001600160a01b0316815260018201548185015260028201805484518187028101870186528181529295939486019383018282801561412f57602002820191906000526020600020905b81548152602001906001019080831161411b575b5050505050815260200160038201805461414890615223565b80601f016020809104026020016040519081016040528092919081815260200182805461417490615223565b80156141c15780601f10614196576101008083540402835291602001916141c1565b820191906000526020600020905b8154815290600101906020018083116141a457829003601f168201915b5050505050815250509050336001600160a01b031681600001516001600160a01b03160361423c57600085815260056020526040812080546001600160a01b0319168155600181018290559061421a6002830182614ca5565b614228600383016000614cc3565b505061423c81600001518260200151614a7f565b60208401516040516323b872dd60e01b81526001600160a01b037f000000000000000000000000000000000000000000000000000000000000000016916323b872dd91614290919033908a90600401614f55565b600060405180830381600087803b1580156142aa57600080fd5b505af11580156142be573d6000803e3d6000fd5b505050506142cc3484614b4a565b506040513490339087907f98eed0d12a383b8e38b15e6d73daaee78799b09879126cf646202064512cacd990600090a450506001600055505050565b600254600160a01b900460ff1615614333576040516313d0ff5960e31b815260040160405180910390fd5b81806000036143555760405163e7195f5160e01b815260040160405180910390fd5b61435f85856124ff565b61437c57604051633e79b9f360e01b815260040160405180910390fd5b6040516311543c9960e31b815260048101859052602481018690527f00000000000000000000000000000000000000000000000000000000000000006001600160a01b031690638aa1e4c890604401602060405180830381865afa1580156143e8573d6000803e3d6000fd5b505050506040513d601f19601f8201168201806040525081019061440c91906151ba565b1561442a5760405163b14aa60560e01b815260040160405180910390fd5b6040516331a9108f60e11b8152600481018690526000907f00000000000000000000000000000000000000000000000000000000000000006001600160a01b031690636352211e90602401602060405180830381865afa158015614492573d6000803e3d6000fd5b505050506040513d601f19601f820116820180604052508101906144b691906151d7565b604051624003bd60e41b8152600481018790529091506000906001600160a01b037f000000000000000000000000000000000000000000000000000000000000000016906304003bd0906024016040805180830381865afa15801561451f573d6000803e3d6000fd5b505050506040513d601f19601f8201168201806040525081019061454391906151f4565b5090506040518060800160405280868152602001826001600160a01b03168152602001836001600160a01b03168152602001856001600160a01b0316815250600460008981526020019081526020016000206000820151816000015560208201518160010160006101000a8154816001600160a01b0302191690836001600160a01b0316021790555060408201518160020160006101000a8154816001600160a01b0302191690836001600160a01b0316021790555060608201518160030160006101000a8154816001600160a01b0302191690836001600160a01b03160217905550905050806001600160a01b031685887fd81820ebfdde47351b4ac56296bba70e8f57f24195955168a1b5bf6b653e3d3a8560405161344191906001600160a01b0391909116815260200190565b61467b614997565b63389a75e1600c52806000526020600c2080544211156146a357636f5e88186000526004601cfd5b600090556112ad81614b0c565b6146b8614997565b8060601b6146ce57637448fbae6000526004601cfd5b6112ad81614b0c565b336001600160a01b037f000000000000000000000000000000000000000000000000000000000000000016146147205760405163125e77d360e01b815260040160405180910390fd5b6000828152600560209081526040808320815160808101835281546001600160a01b0316815260018201548185015260028201805484518187028101870186528181529295939486019383018282801561479957602002820191906000526020600020905b815481526020019060010190808311614785575b505050505081526020016003820180546147b290615223565b80601f01602080910402602001604051908101604052809291908181526020018280546147de90615223565b801561482b5780601f106148005761010080835404028352916020019161482b565b820191906000526020600020905b81548152906001019060200180831161480e57829003601f168201915b5050505050815250509050816001600160a01b031681600001516001600160a01b0316036113a257600083815260056020526040812080546001600160a01b031916815560018101829055906148846002830182614ca5565b614892600383016000614cc3565b50506113a281600001518260200151614a7f565b6148b082826124ff565b6148cd57604051633e79b9f360e01b815260040160405180910390fd5b6000828152600460205260409020600101546001600160a01b03168061490657604051632c8efc6560e21b815260040160405180910390fd5b6001600160a01b038116331461492f576040516332a0bb6960e01b815260040160405180910390fd5b6000838152600460205260408082208281556001810180546001600160a01b0319908116909155600282018054821690556003909101805490911690555184917f7f60b3fe102de994574d1b079da2ec9963d5356a507c520a09189d9af55af1e991a2505050565b638b78c6d81954331461266b576382b429006000526004601cfd5b61244682826040516024016149c89291906154da565b60408051601f198184030181529190526020810180516001600160e01b03166309710a9d60e41b179052614c84565b6124468282604051602401614a0d9291906154fc565b60408051601f198184030181529190526020810180516001600160e01b031663319af33360e01b179052614c84565b6112ad81604051602401614a509190615526565b60408051601f198184030181529190526020810180516001600160e01b031663104c13eb60e21b179052614c84565b6000826001600160a01b03168260405160006040518083038185875af1925050503d8060008114614acc576040519150601f19603f3d011682016040523d82523d6000602084013e614ad1565b606091505b50509050806113a2576001600160a01b03831660009081526007602052604081208054849290614b02908490615539565b9091555050505050565b638b78c6d81980546001600160a01b039092169182907f8be0079c531659141344cd1fd0a4f28419497f9722a3daafe3b4186f6b6457e0600080a355565b600080614b56846131af565b90506000614b64828661554c565b6002546040519192506000916001600160a01b039091169084908381818185875af1925050503d8060008114614bb6576040519150601f19603f3d011682016040523d82523d6000602084013e614bbb565b606091505b5050905080614bf4576002546001600160a01b031660009081526007602052604081208054859290614bee908490615539565b90915550505b6040516001600160a01b038616908390600081818185875af1925050503d8060008114614c3d576040519150601f19603f3d011682016040523d82523d6000602084013e614c42565b606091505b50508094505083614c7b576001600160a01b03851660009081526007602052604081208054849290614c75908490615539565b90915550505b50505092915050565b80516a636f6e736f6c652e6c6f67602083016000808483855afa5050505050565b50805460008255906000526020600020908101906112ad9190614d48565b508054614ccf90615223565b6000825580601f10614cdf575050565b601f0160209004906000526020600020908101906112ad9190614d48565b828054828255906000526020600020908101928215614d38579160200282015b82811115614d38578251825591602001919060010190614d1d565b50614d44929150614d48565b5090565b5b80821115614d445760008155600101614d49565b80151581146112ad57600080fd5b600060208284031215614d7d57600080fd5b8135614d8881614d5d565b9392505050565b600080600060608486031215614da457600080fd5b505081359360208301359350604090920135919050565b600060208284031215614dcd57600080fd5b5035919050565b60008151808452602080850194506020840160005b83811015614e0557815187529582019590820190600101614de9565b509495945050505050565b6000815180845260005b81811015614e3657602081850181015186830182015201614e1a565b506000602082860101526020601f19601f83011685010191505092915050565b60018060a01b0385168152836020820152608060408201526000614e7d6080830185614dd4565b8281036060840152614e8f8185614e10565b979650505050505050565b6001600160a01b03811681146112ad57600080fd5b600060208284031215614ec157600080fd5b8135614d8881614e9a565b60008060408385031215614edf57600080fd5b823591506020830135614ef181614e9a565b809150509250929050565b8681526001600160a01b03868116602083015285811660408301528416606082015260c060808201819052600090614f3690830185614dd4565b82810360a0840152614f488185614e10565b9998505050505050505050565b6001600160a01b039384168152919092166020820152604081019190915260600190565b634e487b7160e01b600052604160045260246000fd5b604051601f8201601f1916810167ffffffffffffffff81118282101715614fb857614fb8614f79565b604052919050565b600067ffffffffffffffff821115614fda57614fda614f79565b5060051b60200190565b60008060408385031215614ff757600080fd5b8235915060208084013567ffffffffffffffff81111561501657600080fd5b8401601f8101861361502757600080fd5b803561503a61503582614fc0565b614f8f565b81815260059190911b8201830190838101908883111561505957600080fd5b928401925b8284101561508057833561507181614e9a565b8252928401929084019061505e565b80955050505050509250929050565b6040815260006150a26040830185614dd4565b82810360208401526150b48185614e10565b95945050505050565b6000806000606084860312156150d257600080fd5b833592506020840135915060408401356150eb81614e9a565b809150509250925092565b6000806040838503121561510957600080fd5b50508035926020909101359150565b60018060a01b03841681528260208201526060604082015260006150b46060830184614e10565b8581526001600160a01b03858116602083015284811660408301528316606082015260a060808201819052600090614e8f90830184614e10565b6000806000806080858703121561518f57600080fd5b84359350602085013592506040850135915060608501356151af81614e9a565b939692955090935050565b6000602082840312156151cc57600080fd5b8151614d8881614d5d565b6000602082840312156151e957600080fd5b8151614d8881614e9a565b6000806040838503121561520757600080fd5b825161521281614e9a565b6020840151909250614ef181614e9a565b600181811c9082168061523757607f821691505b60208210810361525757634e487b7160e01b600052602260045260246000fd5b50919050565b6020808252601f908201527f5265656e7472616e637947756172643a207265656e7472616e742063616c6c00604082015260600190565b634e487b7160e01b600052603260045260246000fd5b600060208083850312156152bd57600080fd5b825167ffffffffffffffff8111156152d457600080fd5b8301601f810185136152e557600080fd5b80516152f361503582614fc0565b81815260059190911b8201830190838101908783111561531257600080fd5b928401925b82841015614e8f57835182529284019290840190615317565b602081526000614d886020830184614dd4565b601f8211156113a2576000816000526020600020601f850160051c8101602086101561536c5750805b601f850160051c820191505b8181101561538b57828155600101615378565b505050505050565b815167ffffffffffffffff8111156153ad576153ad614f79565b6153c1816153bb8454615223565b84615343565b602080601f8311600181146153f657600084156153de5750858301515b600019600386901b1c1916600185901b17855561538b565b600085815260208120601f198616915b8281101561542557888601518255948401946001909101908401615406565b50858210156154435787850151600019600388901b60f8161c191681555b5050505050600190811b01905550565b60008060006060848603121561546857600080fd5b835161547381614e9a565b6020850151604086015191945092506150eb81614e9a565b634e487b7160e01b600052601160045260246000fd5b80820281158282048414176126535761265361548b565b6000826154d557634e487b7160e01b600052601260045260246000fd5b500490565b6040815260006154ed6040830185614e10565b90508260208301529392505050565b60408152600061550f6040830185614e10565b905060018060a01b03831660208301529392505050565b602081526000614d886020830184614e10565b808201808211156126535761265361548b565b818103818111156126535761265361548b56fe43686f6e6b734d61726b65742064656c65746554726169744f66666572734265666f7265546f6b656e5472616e7366657220656e6443686f6e6b734d61726b65742072656d6f766543686f6e6b4f666665724f6e54726169745472616e736665722063616c6c656420666f722063686f6e6b2049443a43686f6e6b734d61726b65742064656c65746554726169744f66666572734265666f7265546f6b656e5472616e736665722063616c6c656420666f722074726169742049443aa2646970667358221220abc2fa8589f1ac1cc454716781670bbb6d3d7e41a4105a3e30a83f009ec4cdc064736f6c6343000816003343686f6e6b734d61726b657420636f6e7374727563746f722063616c6c65642c206d73672e73656e6465723a","linkReferences":{}},"methodIdentifiers":{"PETERS_MAIN()":"c51ac41b","PETER_TRAITS()":"8b78b13b","acceptBidForChonk(uint256,address)":"cca59759","acceptBidForTrait(uint256,address)":"b5baf476","bidOnChonk(uint256)":"5793b22e","bidOnTrait(uint256,uint256)":"571ccb74","buyChonk(uint256)":"ebd34a88","buyTrait(uint256,uint256)":"917e3a7c","calculateRoyalty(uint256)":"a2e69613","cancelOfferChonk(uint256)":"9f24c945","cancelOfferTrait(uint256,uint256)":"f827d632","cancelOwnershipHandover()":"54d1f13d","chonkBids(uint256)":"65318c86","chonkIdToApprovedOperators(uint256,uint256)":"55737f35","chonkOffers(uint256)":"8b322383","completeOwnershipHandover(address)":"f04e283e","deleteChonkBidsBeforeTokenTransfer(uint256,address)":"f495f5a8","deleteChonkOfferBeforeTokenTransfer(uint256)":"644ec527","deleteTraitBidsBeforeTokenTransfer(uint256,address)":"2fbe78f0","deleteTraitBidsBeforeTokenTransfer(uint256,address[])":"4666a416","deleteTraitOffersBeforeTokenTransfer(uint256)":"2e1d274f","ensureTraitOwner(uint256,uint256)":"710b2719","getChonkBid(uint256)":"0cbd0922","getChonkOffer(uint256)":"36442e30","getTraitBid(uint256)":"3ce0c372","getTraitIdsAndEncodingForChonk(uint256)":"472729bb","getTraitOffer(uint256)":"f0988214","offerChonk(uint256,uint256)":"a4cc8324","offerChonkToAddress(uint256,uint256,address)":"4fc9923e","offerTrait(uint256,uint256,uint256)":"0b114256","offerTraitToAddress(uint256,uint256,uint256,address)":"ed89f704","owner()":"8da5cb5b","ownershipHandoverExpiresAt(address)":"fee81cf4","pausabilityRevoked()":"b1f3694e","pause(bool)":"02329a29","paused()":"5c975abb","removeChonkOfferOnTraitTransfer(uint256)":"46c627fe","renounceOwnership()":"715018a6","requestOwnershipHandover()":"25692962","revokePausability()":"361f1c52","royaltyPercentage()":"8a71bb2d","setRoyaltyPercentage(uint256)":"61ba27da","setTeamWallet(address)":"1525ff7d","teamWallet()":"59927044","traitBids(uint256)":"7dbc8619","traitOffers(uint256)":"4f6088cd","transferOwnership(address)":"f2fde38b","withdrawBidOnChonk(uint256)":"795aded3","withdrawBidOnTrait(uint256)":"cecea401","withdrawFunds()":"24600fc3","withdrawableFunds(address)":"2f30cabd"},"id":37}