{"abi":[{"type":"constructor","inputs":[{"name":"_chonkTraits","type":"address","internalType":"address"},{"name":"_royaltyPercentage","type":"uint8","internalType":"uint8"},{"name":"_teamWallet","type":"address","internalType":"address"}],"stateMutability":"nonpayable"},{"type":"function","name":"CHONKS_MAIN","inputs":[],"outputs":[{"name":"","type":"address","internalType":"contract ChonksMain"}],"stateMutability":"view"},{"type":"function","name":"CHONK_TRAITS","inputs":[],"outputs":[{"name":"","type":"address","internalType":"contract ChonkTraits"}],"stateMutability":"view"},{"type":"function","name":"acceptBidForChonk","inputs":[{"name":"_chonkId","type":"uint256","internalType":"uint256"},{"name":"_bidder","type":"address","internalType":"address"}],"outputs":[],"stateMutability":"nonpayable"},{"type":"function","name":"acceptBidForTrait","inputs":[{"name":"_traitId","type":"uint256","internalType":"uint256"},{"name":"_bidder","type":"address","internalType":"address"}],"outputs":[],"stateMutability":"nonpayable"},{"type":"function","name":"bidOnChonk","inputs":[{"name":"_chonkId","type":"uint256","internalType":"uint256"}],"outputs":[],"stateMutability":"payable"},{"type":"function","name":"bidOnTrait","inputs":[{"name":"_traitId","type":"uint256","internalType":"uint256"},{"name":"_yourChonkId","type":"uint256","internalType":"uint256"}],"outputs":[],"stateMutability":"payable"},{"type":"function","name":"buyChonk","inputs":[{"name":"_chonkId","type":"uint256","internalType":"uint256"}],"outputs":[],"stateMutability":"payable"},{"type":"function","name":"buyTrait","inputs":[{"name":"_traitId","type":"uint256","internalType":"uint256"},{"name":"_forChonkId","type":"uint256","internalType":"uint256"}],"outputs":[],"stateMutability":"payable"},{"type":"function","name":"calculateRoyalty","inputs":[{"name":"_amount","type":"uint256","internalType":"uint256"}],"outputs":[{"name":"","type":"uint256","internalType":"uint256"}],"stateMutability":"view"},{"type":"function","name":"cancelOfferChonk","inputs":[{"name":"_chonkId","type":"uint256","internalType":"uint256"}],"outputs":[],"stateMutability":"nonpayable"},{"type":"function","name":"cancelOfferTrait","inputs":[{"name":"_traitId","type":"uint256","internalType":"uint256"},{"name":"_chonkId","type":"uint256","internalType":"uint256"}],"outputs":[],"stateMutability":"nonpayable"},{"type":"function","name":"cancelOwnershipHandover","inputs":[],"outputs":[],"stateMutability":"payable"},{"type":"function","name":"chonkBids","inputs":[{"name":"chonkId","type":"uint256","internalType":"uint256"}],"outputs":[{"name":"bidder","type":"address","internalType":"address"},{"name":"amountInWei","type":"uint256","internalType":"uint256"},{"name":"encodedTraitIds","type":"bytes","internalType":"bytes"},{"name":"bidBlockNumber","type":"uint256","internalType":"uint256"}],"stateMutability":"view"},{"type":"function","name":"chonkIdToApprovedOperators","inputs":[{"name":"chonkId","type":"uint256","internalType":"uint256"},{"name":"","type":"uint256","internalType":"uint256"}],"outputs":[{"name":"operators","type":"address","internalType":"address"}],"stateMutability":"view"},{"type":"function","name":"chonkOffers","inputs":[{"name":"chonkId","type":"uint256","internalType":"uint256"}],"outputs":[{"name":"priceInWei","type":"uint256","internalType":"uint256"},{"name":"seller","type":"address","internalType":"address"},{"name":"sellerTBA","type":"address","internalType":"address"},{"name":"onlySellTo","type":"address","internalType":"address"},{"name":"encodedTraitIds","type":"bytes","internalType":"bytes"}],"stateMutability":"view"},{"type":"function","name":"completeOwnershipHandover","inputs":[{"name":"pendingOwner","type":"address","internalType":"address"}],"outputs":[],"stateMutability":"payable"},{"type":"function","name":"deleteChonkBidsBeforeTokenTransfer","inputs":[{"name":"_chonkId","type":"uint256","internalType":"uint256"},{"name":"_toEOA","type":"address","internalType":"address"}],"outputs":[],"stateMutability":"nonpayable"},{"type":"function","name":"deleteChonkOfferBeforeTokenTransfer","inputs":[{"name":"_chonkId","type":"uint256","internalType":"uint256"}],"outputs":[],"stateMutability":"nonpayable"},{"type":"function","name":"deleteTraitBidsBeforeTokenTransfer","inputs":[{"name":"_traitId","type":"uint256","internalType":"uint256"},{"name":"_toTBA","type":"address","internalType":"address"}],"outputs":[],"stateMutability":"nonpayable"},{"type":"function","name":"deleteTraitBidsBeforeTokenTransfer","inputs":[{"name":"_traitId","type":"uint256","internalType":"uint256"},{"name":"_toTBAs","type":"address[]","internalType":"address[]"}],"outputs":[],"stateMutability":"nonpayable"},{"type":"function","name":"deleteTraitOffersBeforeTokenTransfer","inputs":[{"name":"_traitId","type":"uint256","internalType":"uint256"}],"outputs":[],"stateMutability":"nonpayable"},{"type":"function","name":"ensureTraitOwner","inputs":[{"name":"_traitId","type":"uint256","internalType":"uint256"},{"name":"_chonkId","type":"uint256","internalType":"uint256"}],"outputs":[{"name":"","type":"bool","internalType":"bool"}],"stateMutability":"view"},{"type":"function","name":"gasStipend","inputs":[],"outputs":[{"name":"","type":"uint256","internalType":"uint256"}],"stateMutability":"view"},{"type":"function","name":"getChonkBid","inputs":[{"name":"_chonkId","type":"uint256","internalType":"uint256"}],"outputs":[{"name":"bidder","type":"address","internalType":"address"},{"name":"amountInWei","type":"uint256","internalType":"uint256"},{"name":"traitIds","type":"uint256[]","internalType":"uint256[]"},{"name":"encodedTraitIds","type":"bytes","internalType":"bytes"}],"stateMutability":"view"},{"type":"function","name":"getChonkOffer","inputs":[{"name":"_chonkId","type":"uint256","internalType":"uint256"}],"outputs":[{"name":"priceInWei","type":"uint256","internalType":"uint256"},{"name":"seller","type":"address","internalType":"address"},{"name":"sellerTBA","type":"address","internalType":"address"},{"name":"onlySellTo","type":"address","internalType":"address"},{"name":"traitIds","type":"uint256[]","internalType":"uint256[]"},{"name":"encodedTraitIds","type":"bytes","internalType":"bytes"}],"stateMutability":"view"},{"type":"function","name":"getTraitBid","inputs":[{"name":"_traitId","type":"uint256","internalType":"uint256"}],"outputs":[{"name":"bidder","type":"address","internalType":"address"},{"name":"bidderTBA","type":"address","internalType":"address"},{"name":"amountInWei","type":"uint256","internalType":"uint256"}],"stateMutability":"view"},{"type":"function","name":"getTraitIdsAndEncodingForChonk","inputs":[{"name":"_chonkId","type":"uint256","internalType":"uint256"}],"outputs":[{"name":"traitIds","type":"uint256[]","internalType":"uint256[]"},{"name":"encodedTraitIds","type":"bytes","internalType":"bytes"}],"stateMutability":"view"},{"type":"function","name":"getTraitOffer","inputs":[{"name":"_traitId","type":"uint256","internalType":"uint256"}],"outputs":[{"name":"priceInWei","type":"uint256","internalType":"uint256"},{"name":"seller","type":"address","internalType":"address"},{"name":"sellerTBA","type":"address","internalType":"address"},{"name":"onlySellTo","type":"address","internalType":"address"}],"stateMutability":"view"},{"type":"function","name":"offerChonk","inputs":[{"name":"_chonkId","type":"uint256","internalType":"uint256"},{"name":"_priceInWei","type":"uint256","internalType":"uint256"}],"outputs":[],"stateMutability":"nonpayable"},{"type":"function","name":"offerChonkToAddress","inputs":[{"name":"_chonkId","type":"uint256","internalType":"uint256"},{"name":"_priceInWei","type":"uint256","internalType":"uint256"},{"name":"_onlySellTo","type":"address","internalType":"address"}],"outputs":[],"stateMutability":"nonpayable"},{"type":"function","name":"offerTrait","inputs":[{"name":"_traitId","type":"uint256","internalType":"uint256"},{"name":"_chonkId","type":"uint256","internalType":"uint256"},{"name":"_priceInWei","type":"uint256","internalType":"uint256"}],"outputs":[],"stateMutability":"nonpayable"},{"type":"function","name":"offerTraitToAddress","inputs":[{"name":"_traitId","type":"uint256","internalType":"uint256"},{"name":"_chonkId","type":"uint256","internalType":"uint256"},{"name":"_priceInWei","type":"uint256","internalType":"uint256"},{"name":"_onlySellTo","type":"address","internalType":"address"}],"outputs":[],"stateMutability":"nonpayable"},{"type":"function","name":"owner","inputs":[],"outputs":[{"name":"result","type":"address","internalType":"address"}],"stateMutability":"view"},{"type":"function","name":"ownershipHandoverExpiresAt","inputs":[{"name":"pendingOwner","type":"address","internalType":"address"}],"outputs":[{"name":"result","type":"uint256","internalType":"uint256"}],"stateMutability":"view"},{"type":"function","name":"pausabilityRevoked","inputs":[],"outputs":[{"name":"","type":"bool","internalType":"bool"}],"stateMutability":"view"},{"type":"function","name":"pause","inputs":[{"name":"_value","type":"bool","internalType":"bool"}],"outputs":[],"stateMutability":"nonpayable"},{"type":"function","name":"paused","inputs":[],"outputs":[{"name":"","type":"bool","internalType":"bool"}],"stateMutability":"view"},{"type":"function","name":"removeChonkOfferOnTraitTransfer","inputs":[{"name":"_chonkId","type":"uint256","internalType":"uint256"}],"outputs":[],"stateMutability":"nonpayable"},{"type":"function","name":"renounceOwnership","inputs":[],"outputs":[],"stateMutability":"payable"},{"type":"function","name":"requestOwnershipHandover","inputs":[],"outputs":[],"stateMutability":"payable"},{"type":"function","name":"revokePausability","inputs":[],"outputs":[],"stateMutability":"nonpayable"},{"type":"function","name":"royaltyPercentage","inputs":[],"outputs":[{"name":"","type":"uint256","internalType":"uint256"}],"stateMutability":"view"},{"type":"function","name":"setGasStipend","inputs":[{"name":"_gasStipend","type":"uint256","internalType":"uint256"}],"outputs":[],"stateMutability":"nonpayable"},{"type":"function","name":"setRoyaltyPercentage","inputs":[{"name":"_royaltyPercentage","type":"uint256","internalType":"uint256"}],"outputs":[],"stateMutability":"nonpayable"},{"type":"function","name":"setTeamWallet","inputs":[{"name":"_teamWallet","type":"address","internalType":"address"}],"outputs":[],"stateMutability":"nonpayable"},{"type":"function","name":"teamWallet","inputs":[],"outputs":[{"name":"","type":"address","internalType":"address"}],"stateMutability":"view"},{"type":"function","name":"traitBids","inputs":[{"name":"traitId","type":"uint256","internalType":"uint256"}],"outputs":[{"name":"bidder","type":"address","internalType":"address"},{"name":"bidderTBA","type":"address","internalType":"address"},{"name":"amountInWei","type":"uint256","internalType":"uint256"},{"name":"bidBlockNumber","type":"uint256","internalType":"uint256"}],"stateMutability":"view"},{"type":"function","name":"traitOffers","inputs":[{"name":"traitId","type":"uint256","internalType":"uint256"}],"outputs":[{"name":"priceInWei","type":"uint256","internalType":"uint256"},{"name":"seller","type":"address","internalType":"address"},{"name":"sellerTBA","type":"address","internalType":"address"},{"name":"onlySellTo","type":"address","internalType":"address"}],"stateMutability":"view"},{"type":"function","name":"transferOwnership","inputs":[{"name":"newOwner","type":"address","internalType":"address"}],"outputs":[],"stateMutability":"payable"},{"type":"function","name":"withdrawBidOnChonk","inputs":[{"name":"_chonkId","type":"uint256","internalType":"uint256"}],"outputs":[],"stateMutability":"nonpayable"},{"type":"function","name":"withdrawBidOnTrait","inputs":[{"name":"_traitId","type":"uint256","internalType":"uint256"}],"outputs":[],"stateMutability":"nonpayable"},{"type":"function","name":"withdrawFunds","inputs":[],"outputs":[],"stateMutability":"nonpayable"},{"type":"function","name":"withdrawableFunds","inputs":[{"name":"eoa","type":"address","internalType":"address"}],"outputs":[{"name":"balance","type":"uint256","internalType":"uint256"}],"stateMutability":"view"},{"type":"event","name":"ChonkBidAccepted","inputs":[{"name":"chonkId","type":"uint256","indexed":true,"internalType":"uint256"},{"name":"amountInWei","type":"uint256","indexed":true,"internalType":"uint256"},{"name":"buyer","type":"address","indexed":true,"internalType":"address"},{"name":"seller","type":"address","indexed":false,"internalType":"address"}],"anonymous":false},{"type":"event","name":"ChonkBidEntered","inputs":[{"name":"chonkId","type":"uint256","indexed":true,"internalType":"uint256"},{"name":"bidder","type":"address","indexed":true,"internalType":"address"},{"name":"amountInWei","type":"uint256","indexed":true,"internalType":"uint256"}],"anonymous":false},{"type":"event","name":"ChonkBidWithdrawn","inputs":[{"name":"chonkId","type":"uint256","indexed":true,"internalType":"uint256"},{"name":"bidder","type":"address","indexed":true,"internalType":"address"},{"name":"amountInWei","type":"uint256","indexed":true,"internalType":"uint256"}],"anonymous":false},{"type":"event","name":"ChonkBought","inputs":[{"name":"chonkId","type":"uint256","indexed":true,"internalType":"uint256"},{"name":"buyer","type":"address","indexed":true,"internalType":"address"},{"name":"amountInWei","type":"uint256","indexed":true,"internalType":"uint256"},{"name":"seller","type":"address","indexed":false,"internalType":"address"}],"anonymous":false},{"type":"event","name":"ChonkOfferCanceled","inputs":[{"name":"chonkId","type":"uint256","indexed":true,"internalType":"uint256"},{"name":"seller","type":"address","indexed":true,"internalType":"address"}],"anonymous":false},{"type":"event","name":"ChonkOffered","inputs":[{"name":"chonkId","type":"uint256","indexed":true,"internalType":"uint256"},{"name":"price","type":"uint256","indexed":true,"internalType":"uint256"},{"name":"seller","type":"address","indexed":true,"internalType":"address"},{"name":"sellerTBA","type":"address","indexed":false,"internalType":"address"}],"anonymous":false},{"type":"event","name":"ChonkOfferedToAddress","inputs":[{"name":"chonkId","type":"uint256","indexed":true,"internalType":"uint256"},{"name":"price","type":"uint256","indexed":true,"internalType":"uint256"},{"name":"seller","type":"address","indexed":true,"internalType":"address"},{"name":"sellerTBA","type":"address","indexed":false,"internalType":"address"},{"name":"onlySellTo","type":"address","indexed":false,"internalType":"address"}],"anonymous":false},{"type":"event","name":"OwnershipHandoverCanceled","inputs":[{"name":"pendingOwner","type":"address","indexed":true,"internalType":"address"}],"anonymous":false},{"type":"event","name":"OwnershipHandoverRequested","inputs":[{"name":"pendingOwner","type":"address","indexed":true,"internalType":"address"}],"anonymous":false},{"type":"event","name":"OwnershipTransferred","inputs":[{"name":"oldOwner","type":"address","indexed":true,"internalType":"address"},{"name":"newOwner","type":"address","indexed":true,"internalType":"address"}],"anonymous":false},{"type":"event","name":"TraitBidAccepted","inputs":[{"name":"traitId","type":"uint256","indexed":true,"internalType":"uint256"},{"name":"amountInWei","type":"uint256","indexed":true,"internalType":"uint256"},{"name":"buyer","type":"address","indexed":true,"internalType":"address"},{"name":"seller","type":"address","indexed":false,"internalType":"address"}],"anonymous":false},{"type":"event","name":"TraitBidEntered","inputs":[{"name":"traitId","type":"uint256","indexed":true,"internalType":"uint256"},{"name":"bidder","type":"address","indexed":true,"internalType":"address"},{"name":"amountInWei","type":"uint256","indexed":true,"internalType":"uint256"}],"anonymous":false},{"type":"event","name":"TraitBidWithdrawn","inputs":[{"name":"traitId","type":"uint256","indexed":true,"internalType":"uint256"},{"name":"bidder","type":"address","indexed":true,"internalType":"address"},{"name":"amountInWei","type":"uint256","indexed":true,"internalType":"uint256"}],"anonymous":false},{"type":"event","name":"TraitBought","inputs":[{"name":"traitId","type":"uint256","indexed":true,"internalType":"uint256"},{"name":"buyerTBA","type":"address","indexed":true,"internalType":"address"},{"name":"amountInWei","type":"uint256","indexed":true,"internalType":"uint256"},{"name":"buyer","type":"address","indexed":false,"internalType":"address"},{"name":"seller","type":"address","indexed":false,"internalType":"address"}],"anonymous":false},{"type":"event","name":"TraitOfferCanceled","inputs":[{"name":"traitId","type":"uint256","indexed":true,"internalType":"uint256"},{"name":"seller","type":"address","indexed":true,"internalType":"address"}],"anonymous":false},{"type":"event","name":"TraitOffered","inputs":[{"name":"traitId","type":"uint256","indexed":true,"internalType":"uint256"},{"name":"price","type":"uint256","indexed":true,"internalType":"uint256"},{"name":"seller","type":"address","indexed":true,"internalType":"address"},{"name":"sellerTBA","type":"address","indexed":false,"internalType":"address"}],"anonymous":false},{"type":"event","name":"TraitOfferedToAddress","inputs":[{"name":"traitId","type":"uint256","indexed":true,"internalType":"uint256"},{"name":"price","type":"uint256","indexed":true,"internalType":"uint256"},{"name":"seller","type":"address","indexed":true,"internalType":"address"},{"name":"sellerTBA","type":"address","indexed":false,"internalType":"address"},{"name":"onlySellTo","type":"address","indexed":false,"internalType":"address"}],"anonymous":false},{"type":"error","name":"AlreadyInitialized","inputs":[]},{"type":"error","name":"ApproveTheMarketplace","inputs":[]},{"type":"error","name":"BidIsTooLow","inputs":[]},{"type":"error","name":"BidderChanged","inputs":[]},{"type":"error","name":"CMUnauthorized","inputs":[]},{"type":"error","name":"CantAcceptYourOwnBid","inputs":[]},{"type":"error","name":"CantBeZero","inputs":[]},{"type":"error","name":"CantBidOnYourOwnChonk","inputs":[]},{"type":"error","name":"CantBidOnYourOwnTrait","inputs":[]},{"type":"error","name":"CantBuyYourOwnChonk","inputs":[]},{"type":"error","name":"CantBuyYourOwnTrait","inputs":[]},{"type":"error","name":"MustWaitToWithdrawBid","inputs":[]},{"type":"error","name":"NewOwnerIsZeroAddress","inputs":[]},{"type":"error","name":"NoBidToAccept","inputs":[]},{"type":"error","name":"NoHandoverRequest","inputs":[]},{"type":"error","name":"NoOfferToCancel","inputs":[]},{"type":"error","name":"NotYourBid","inputs":[]},{"type":"error","name":"NotYourChonk","inputs":[]},{"type":"error","name":"NotYourOffer","inputs":[]},{"type":"error","name":"NotYourTrait","inputs":[]},{"type":"error","name":"OfferDoesNotExist","inputs":[]},{"type":"error","name":"OnlySellToEOAs","inputs":[]},{"type":"error","name":"OnlyTraitContract","inputs":[]},{"type":"error","name":"PausabilityRevoked","inputs":[]},{"type":"error","name":"Paused","inputs":[]},{"type":"error","name":"TBANeedsToApproveMarketplace","inputs":[]},{"type":"error","name":"TraitEquipped","inputs":[]},{"type":"error","name":"TraitIdsChangedSinceBid","inputs":[]},{"type":"error","name":"TraitIdsChangedSinceListingRelist","inputs":[]},{"type":"error","name":"Unauthorized","inputs":[]},{"type":"error","name":"WithdrawFailed","inputs":[]},{"type":"error","name":"WrongAmount","inputs":[]},{"type":"error","name":"YouCantBuyThatChonk","inputs":[]},{"type":"error","name":"YouCantBuyThatTrait","inputs":[]}],"bytecode":{"object":"0x60c06040527307152bfde079b5319e5308c43fb1dbc9c76cb4f96080526002805460ff60a01b1916600160a01b17905561ea606003553480156200004257600080fd5b506040516200579638038062005796833981016040819052620000659162000100565b60016000556200007533620000a7565b6001600160a01b0392831660a05260ff91909116600155600280546001600160a01b0319169190921617905562000151565b6001600160a01b0316638b78c6d8198190558060007f8be0079c531659141344cd1fd0a4f28419497f9722a3daafe3b4186f6b6457e08180a350565b80516001600160a01b0381168114620000fb57600080fd5b919050565b6000806000606084860312156200011657600080fd5b6200012184620000e3565b9250602084015160ff811681146200013857600080fd5b91506200014860408501620000e3565b90509250925092565b60805160a05161550e62000288600039600081816103cc01528181610cce0152818161117801528181611224015281816116200152818161176b0152818161232e0152818161292e01528181612a3801528181612acd01528181612dc201528181613340015261433601526000818161060401528181610c2401528181610d6401528181611144015281816114e6015281816116be0152818161187601528181611a3a01528181611afd01528181611d7701528181612070015281816123a0015281816127e00152818161289701528181612c3801528181612fe3015281816131cb015281816134680152818161350301528181613598015281816138ac01528181613d1b01528181613db0015281816140a0015281816141e60152818161428c015281816143cc01526145ee015261550e6000f3fe60806040526004361061031a5760003560e01c806361ba27da116101ab578063a2e69613116100f7578063ed89f70411610095578063f2fde38b1161006f578063f2fde38b14610abc578063f495f5a814610acf578063f827d63214610aef578063fee81cf414610b0f57600080fd5b8063ed89f70414610a14578063f04e283e14610a34578063f098821414610a4757600080fd5b8063b5baf476116100d1578063b5baf476146109a1578063cca59759146109c1578063cecea401146109e1578063ebd34a8814610a0157600080fd5b8063a2e6961314610940578063a4cc832414610960578063b1f3694e1461098057600080fd5b80637dbc8619116101645780638da5cb5b1161013e5780638da5cb5b146108de578063917e3a7c146108f75780639434c9101461090a5780639f24c9451461092057600080fd5b80637dbc86191461081d5780638a71bb2d146108975780638b322383146108ad57600080fd5b806361ba27da14610765578063644ec5271461078557806365318c86146107a5578063710b2719146107d5578063715018a6146107f5578063795aded3146107fd57600080fd5b80633ce0c3721161026a5780634fc9923e11610223578063571ccb74116101fd578063571ccb74146106ee5780635793b22e1461070157806359927044146107145780635c975abb1461073457600080fd5b80634fc9923e146106a657806354d1f13d146106c657806355737f35146106ce57600080fd5b80633ce0c372146105055780634666a4161461058457806346c627fe146105a4578063472729bb146105c45780634de8cdf6146105f25780634f6088cd1461062657600080fd5b806325692962116102d75780632f30cabd116102b15780632f30cabd146104635780632fbe78f01461049e578063361f1c52146104be57806336442e30146104d357600080fd5b8063256929621461041b5780632619e11b146104235780632e1d274f1461044357600080fd5b806302329a291461031f5780630b114256146103415780630cbd0922146103615780631525ff7d1461039a578063170c14d9146103ba57806324600fc314610406575b600080fd5b34801561032b57600080fd5b5061033f61033a366004614d07565b610b42565b005b34801561034d57600080fd5b5061033f61035c366004614d2b565b610b93565b34801561036d57600080fd5b5061038161037c366004614d57565b610ea9565b6040516103919493929190614df2565b60405180910390f35b3480156103a657600080fd5b5061033f6103b5366004614e4b565b610ff7565b3480156103c657600080fd5b506103ee7f000000000000000000000000000000000000000000000000000000000000000081565b6040516001600160a01b039091168152602001610391565b34801561041257600080fd5b5061033f611021565b61033f6110dc565b34801561042f57600080fd5b5061033f61043e366004614d57565b61112c565b34801561044f57600080fd5b5061033f61045e366004614d57565b611139565b34801561046f57600080fd5b5061049061047e366004614e4b565b60086020526000908152604090205481565b604051908152602001610391565b3480156104aa57600080fd5b5061033f6104b9366004614e68565b611219565b3480156104ca57600080fd5b5061033f61131f565b3480156104df57600080fd5b506104f36104ee366004614d57565b611367565b60405161039196959493929190614e98565b34801561051157600080fd5b50610575610520366004614d57565b600081815260076020908152604091829020825160808101845281546001600160a01b039081168083526001840154909116938201849052600283015494820185905260039092015460609091015293909250565b60405161039193929190614ef1565b34801561059057600080fd5b5061033f61059f366004614f80565b6114db565b3480156105b057600080fd5b5061033f6105bf366004614d57565b611615565b3480156105d057600080fd5b506105e46105df366004614d57565b6116b7565b60405161039192919061502b565b3480156105fe57600080fd5b506103ee7f000000000000000000000000000000000000000000000000000000000000000081565b34801561063257600080fd5b50610677610641366004614d57565b600560205260009081526040902080546001820154600283015460039093015491926001600160a01b0391821692908216911684565b604080519485526001600160a01b03938416602086015291831691840191909152166060820152608001610391565b3480156106b257600080fd5b5061033f6106c1366004615059565b611807565b61033f611939565b3480156106da57600080fd5b506103ee6106e9366004615092565b611975565b61033f6106fc366004615092565b6119ad565b61033f61070f366004614d57565b611ceb565b34801561072057600080fd5b506002546103ee906001600160a01b031681565b34801561074057600080fd5b5060025461075590600160a01b900460ff1681565b6040519015158152602001610391565b34801561077157600080fd5b5061033f610780366004614d57565b612058565b34801561079157600080fd5b5061033f6107a0366004614d57565b612065565b3480156107b157600080fd5b506107c56107c0366004614d57565b612250565b60405161039194939291906150b4565b3480156107e157600080fd5b506107556107f0366004615092565b61230b565b61033f612465565b34801561080957600080fd5b5061033f610818366004614d57565b612479565b34801561082957600080fd5b5061086c610838366004614d57565b60076020526000908152604090208054600182015460028301546003909301546001600160a01b0392831693919092169184565b604080516001600160a01b039586168152949093166020850152918301526060820152608001610391565b3480156108a357600080fd5b5061049060015481565b3480156108b957600080fd5b506108cd6108c8366004614d57565b6126af565b6040516103919594939291906150ec565b3480156108ea57600080fd5b50638b78c6d819546103ee565b61033f610905366004615092565b612776565b34801561091657600080fd5b5061049060035481565b34801561092c57600080fd5b5061033f61093b366004614d57565b612e92565b34801561094c57600080fd5b5061049061095b366004614d57565b612f57565b34801561096c57600080fd5b5061033f61097b366004615092565b612f74565b34801561098c57600080fd5b5060025461075590600160a81b900460ff1681565b3480156109ad57600080fd5b5061033f6109bc366004614e68565b6130aa565b3480156109cd57600080fd5b5061033f6109dc366004614e68565b6133fe565b3480156109ed57600080fd5b5061033f6109fc366004614d57565b61396b565b61033f610a0f366004614d57565b613ab0565b348015610a2057600080fd5b5061033f610a2f366004615126565b614154565b61033f610a42366004614e4b565b61457f565b348015610a5357600080fd5b50610677610a62366004614d57565b6000908152600560209081526040918290208251608081018452815480825260018301546001600160a01b039081169483018590526002840154811695830186905260039093015490921660609091018190529093919291565b61033f610aca366004614e4b565b6145bc565b348015610adb57600080fd5b5061033f610aea366004614e68565b6145e3565b348015610afb57600080fd5b5061033f610b0a366004615092565b6147c4565b348015610b1b57600080fd5b50610490610b2a366004614e4b565b63389a75e1600c908152600091909152602090205490565b610b4a6148b8565b600254600160a81b900460ff1615610b755760405163d9ef8fb560e01b815260040160405180910390fd5b60028054911515600160a01b0260ff60a01b19909216919091179055565b600254600160a01b900460ff1615610bbe576040516313d0ff5960e31b815260040160405180910390fd5b8080600003610be05760405163e7195f5160e01b815260040160405180910390fd5b610bea848461230b565b610c0757604051633e79b9f360e01b815260040160405180910390fd5b6040516311543c9960e31b815260048101849052602481018590527f00000000000000000000000000000000000000000000000000000000000000006001600160a01b031690638aa1e4c890604401602060405180830381865afa158015610c73573d6000803e3d6000fd5b505050506040513d601f19601f82011682018060405250810190610c979190615167565b15610cb55760405163b14aa60560e01b815260040160405180910390fd5b6040516331a9108f60e11b8152600481018590526000907f00000000000000000000000000000000000000000000000000000000000000006001600160a01b031690636352211e90602401602060405180830381865afa158015610d1d573d6000803e3d6000fd5b505050506040513d601f19601f82011682018060405250810190610d419190615184565b604051624003bd60e41b8152600481018690529091506000906001600160a01b037f000000000000000000000000000000000000000000000000000000000000000016906304003bd0906024016040805180830381865afa158015610daa573d6000803e3d6000fd5b505050506040513d601f19601f82011682018060405250810190610dce91906151a1565b50604080516080810182528681526001600160a01b0380841660208084018281528884168587019081526000606087018181528f825260059094528790209551865590516001860180549186166001600160a01b03199283161790559051600286018054918616918316919091179055905160039094018054949093169316929092179055905191925090859088907fd81820ebfdde47351b4ac56296bba70e8f57f24195955168a1b5bf6b653e3d3a90610e999087906001600160a01b0391909116815260200190565b60405180910390a4505050505050565b6000818152600660209081526040808320815160a08101835281546001600160a01b0316815260018201548185015260028201805484518187028101870186528181528796606096879689969590949186019392909190830182828015610f2f57602002820191906000526020600020905b815481526020019060010190808311610f1b575b50505050508152602001600382018054610f48906151d0565b80601f0160208091040260200160405190810160405280929190818152602001828054610f74906151d0565b8015610fc15780601f10610f9657610100808354040283529160200191610fc1565b820191906000526020600020905b815481529060010190602001808311610fa457829003601f168201915b50505091835250506004919091015460209182015281519082015160408301516060909301519199909850919650945092505050565b610fff6148b8565b600280546001600160a01b0319166001600160a01b0392909216919091179055565b60026000540361104c5760405162461bcd60e51b81526004016110439061520a565b60405180910390fd5b60026000908155338082526008602052604080832080549084905560035491519093929190849084818181858888f193505050503d80600081146110ac576040519150601f19603f3d011682016040523d82523d6000602084013e6110b1565b606091505b50509050806110d357604051631d42c86760e21b815260040160405180910390fd5b50506001600055565b60006202a30067ffffffffffffffff164201905063389a75e1600c5233600052806020600c2055337fdbf36a107da19e49527a7176a1babf963b4b0ff8cde35ee35d6cd8f1f9ac7e1d600080a250565b6111346148b8565b600355565b336001600160a01b037f0000000000000000000000000000000000000000000000000000000000000000161480159061119b5750336001600160a01b037f00000000000000000000000000000000000000000000000000000000000000001614155b156111b95760405163125e77d360e01b815260040160405180910390fd5b6000818152600560205260409020600101546001600160a01b0316156112165760008181526005602052604081209081556001810180546001600160a01b0319908116909155600282018054821690556003909101805490911690555b50565b336001600160a01b037f000000000000000000000000000000000000000000000000000000000000000016146112625760405163125e77d360e01b815260040160405180910390fd5b600082815260076020908152604091829020825160808101845281546001600160a01b039081168083526001840154909116938201939093526002820154938101939093526003015460608301521561131a57816001600160a01b031681602001516001600160a01b03160361131a5760008381526007602052604080822080546001600160a01b031990811682556001820180549091169055600281018390556003019190915581519082015161131a91906148d3565b505050565b6113276148b8565b600254600160a81b900460ff16156113525760405163d9ef8fb560e01b815260040160405180910390fd5b6002805460ff60a81b1916600160a81b179055565b6000818152600460208181526040808420815160c0810183528154815260018201546001600160a01b03908116828601526002830154811682850152600383015416606082810191909152948201805484518187028101870190955280855287968796879691958695889590949193608086019390929083018282801561140d57602002820191906000526020600020905b8154815260200190600101908083116113f9575b50505050508152602001600582018054611426906151d0565b80601f0160208091040260200160405190810160405280929190818152602001828054611452906151d0565b801561149f5780601f106114745761010080835404028352916020019161149f565b820191906000526020600020905b81548152906001019060200180831161148257829003601f168201915b5050509190925250508151602083015160408401516060850151608086015160a090960151939e929d50909b5099509297509550909350505050565b336001600160a01b037f000000000000000000000000000000000000000000000000000000000000000016146115245760405163125e77d360e01b815260040160405180910390fd5b600082815260076020908152604091829020825160808101845281546001600160a01b039081168083526001840154909116938201939093526002820154938101939093526003015460608301521561131a5760005b825181101561160f57600083828151811061159757611597615241565b60200260200101519050806001600160a01b031683602001516001600160a01b0316036116065760008581526007602052604080822080546001600160a01b031990811682556001820180549091169055600281018390556003019190915583519084015161160691906148d3565b5060010161157a565b50505050565b336001600160a01b037f0000000000000000000000000000000000000000000000000000000000000000161461165e5760405163e007692f60e01b815260040160405180910390fd5b600081815260046020819052604082208281556001810180546001600160a01b031990811690915560028201805482169055600382018054909116905591906116a990830182614c41565b61131a600583016000614c5f565b60608060007f00000000000000000000000000000000000000000000000000000000000000006001600160a01b03166304003bd0856040518263ffffffff1660e01b815260040161170a91815260200190565b6040805180830381865afa158015611726573d6000803e3d6000fd5b505050506040513d601f19601f8201168201806040525081019061174a91906151a1565b60405162438b6360e81b81526001600160a01b0380831660048301529193507f0000000000000000000000000000000000000000000000000000000000000000909116915063438b630090602401600060405180830381865afa1580156117b5573d6000803e3d6000fd5b505050506040513d6000823e601f3d908101601f191682016040526117dd9190810190615257565b9250826040516020016117f091906152dd565b604051602081830303815290604052915050915091565b600254600160a01b900460ff1615611832576040516313d0ff5960e31b815260040160405180910390fd5b81806000036118545760405163e7195f5160e01b815260040160405180910390fd5b604051624003bd60e41b81526004810185905260009081906001600160a01b037f000000000000000000000000000000000000000000000000000000000000000016906304003bd0906024016040805180830381865afa1580156118bc573d6000803e3d6000fd5b505050506040513d601f19601f820116820180604052508101906118e091906151a1565b915091506118f18686868585614962565b604080516001600160a01b0383811682528681166020830152841691879189917f4b2696c0b570fe60ace24fc90fe3446d3328d0c3aaeed71e743603aaba978e789101610e99565b63389a75e1600c523360005260006020600c2055337ffa7b8eab7da67f412cc9575ed43464468f9bfbae89d1675917346ca6d8fe3c92600080a2565b6009602052816000526040600020818154811061199157600080fd5b6000918252602090912001546001600160a01b03169150829050565b34806000036119cf5760405163e7195f5160e01b815260040160405180910390fd5b600254600160a01b900460ff16156119fa576040516313d0ff5960e31b815260040160405180910390fd5b600260005403611a1c5760405162461bcd60e51b81526004016110439061520a565b60026000908155604051624003bd60e41b81526004810184905281907f00000000000000000000000000000000000000000000000000000000000000006001600160a01b0316906304003bd0906024016040805180830381865afa158015611a88573d6000803e3d6000fd5b505050506040513d601f19601f82011682018060405250810190611aac91906151a1565b90925090506001600160a01b0382163314611ada57604051633faa6c4560e01b815260040160405180910390fd5b604051636670434960e01b81526004810186905260009081906001600160a01b037f00000000000000000000000000000000000000000000000000000000000000001690636670434990602401608060405180830381865afa158015611b44573d6000803e3d6000fd5b505050506040513d601f19601f82011682018060405250810190611b6891906152f0565b509250509150336001600160a01b0316816001600160a01b03161480611b9657506001600160a01b03821633145b15611bb4576040516303d54cb760e11b815260040160405180910390fd5b600087815260076020908152604091829020825160808101845281546001600160a01b039081168252600183015416928101929092526002810154928201839052600301546060820152903411611c1e576040516386bed4cd60e01b815260040160405180910390fd5b604080516080810182523381526001600160a01b03868116602080840191825234848601908152436060860190815260008f8152600790935291869020945185549085166001600160a01b03199182161786559251600186018054919095169316929092179092555160028301555160039091015581015115611cad57611cad816000015182604001516148d3565b604051349033908a907f10962e2373847454af3c025d9b77161f5244f4e2a69e3e9ddf4954b2622a868990600090a450506001600055505050505050565b3480600003611d0d5760405163e7195f5160e01b815260040160405180910390fd5b600254600160a01b900460ff1615611d38576040516313d0ff5960e31b815260040160405180910390fd5b600260005403611d5a5760405162461bcd60e51b81526004016110439061520a565b600260009081556040516331a9108f60e11b8152600481018490527f00000000000000000000000000000000000000000000000000000000000000006001600160a01b031690636352211e90602401602060405180830381865afa158015611dc6573d6000803e3d6000fd5b505050506040513d601f19601f82011682018060405250810190611dea9190615184565b9050336001600160a01b03821603611e155760405163d2e7167f60e01b815260040160405180910390fd5b6000838152600660209081526040808320815160a08101835281546001600160a01b03168152600182015481850152600282018054845181870281018701865281815292959394860193830182828015611e8e57602002820191906000526020600020905b815481526020019060010190808311611e7a575b50505050508152602001600382018054611ea7906151d0565b80601f0160208091040260200160405190810160405280929190818152602001828054611ed3906151d0565b8015611f205780601f10611ef557610100808354040283529160200191611f20565b820191906000526020600020905b815481529060010190602001808311611f0357829003601f168201915b50505050508152602001600482015481525050905080602001513411611f59576040516386bed4cd60e01b815260040160405180910390fd5b600080611f65866116b7565b6040805160a0810182523381523460208083019182528284018681526060840186905243608085015260008d81526006835294909420835181546001600160a01b0319166001600160a01b03909116178155915160018301559251805195975093955090939092611fdd926002850192910190614c99565b5060608201516003820190611ff2908261538a565b506080919091015160049091015560208301511561201c5761201c836000015184602001516148d3565b6040513490339088907f5bcbf8d6be0293e172be2f32bd63e586fd65b0d15d70c845d393d73f2cfcff1790600090a45050600160005550505050565b6120606148b8565b600155565b336001600160a01b037f000000000000000000000000000000000000000000000000000000000000000016146120ae5760405163125e77d360e01b815260040160405180910390fd5b6000818152600460208181526040808420815160c0810183528154815260018201546001600160a01b039081168286015260028301548116828501526003830154166060820152938101805483518186028101860190945280845291936080860193929083018282801561214157602002820191906000526020600020905b81548152602001906001019080831161212d575b5050505050815260200160058201805461215a906151d0565b80601f0160208091040260200160405190810160405280929190818152602001828054612186906151d0565b80156121d35780601f106121a8576101008083540402835291602001916121d3565b820191906000526020600020905b8154815290600101906020018083116121b657829003601f168201915b5050509190925250505060208101519091506001600160a01b03161561224c57600082815260046020819052604082208281556001810180546001600160a01b0319908116909155600282018054821690556003820180549091169055919061223e90830182614c41565b61160f600583016000614c5f565b5050565b6006602052600090815260409020805460018201546003830180546001600160a01b03909316939192612282906151d0565b80601f01602080910402602001604051908101604052809291908181526020018280546122ae906151d0565b80156122fb5780601f106122d0576101008083540402835291602001916122fb565b820191906000526020600020905b8154815290600101906020018083116122de57829003601f168201915b5050505050908060040154905084565b6040516331a9108f60e11b81526004810183905260009081906001600160a01b037f00000000000000000000000000000000000000000000000000000000000000001690636352211e90602401602060405180830381865afa158015612375573d6000803e3d6000fd5b505050506040513d601f19601f820116820180604052508101906123999190615184565b90506000807f00000000000000000000000000000000000000000000000000000000000000006001600160a01b03166304003bd0866040518263ffffffff1660e01b81526004016123ec91815260200190565b6040805180830381865afa158015612408573d6000803e3d6000fd5b505050506040513d601f19601f8201168201806040525081019061242c91906151a1565b91509150806001600160a01b0316836001600160a01b031614801561245957506001600160a01b03821633145b93505050505b92915050565b61246d6148b8565b6124776000614ac4565b565b60026000540361249b5760405162461bcd60e51b81526004016110439061520a565b60026000818155828152600660209081526040808320815160a08101835281546001600160a01b031681526001820154818501529481018054835181860281018601855281815295969592949386019383018282801561251a57602002820191906000526020600020905b815481526020019060010190808311612506575b50505050508152602001600382018054612533906151d0565b80601f016020809104026020016040519081016040528092919081815260200182805461255f906151d0565b80156125ac5780601f10612581576101008083540402835291602001916125ac565b820191906000526020600020905b81548152906001019060200180831161258f57829003601f168201915b50505091835250506004919091015460209091015280519091506001600160a01b031633146125ee5760405163173f0e6f60e21b815260040160405180910390fd5b60808101516125fe906032615460565b43101561261d57604051623569d160e71b815260040160405180910390fd5b600082815260066020526040812080546001600160a01b0319168155600181018290559061264e6002830182614c41565b61265c600383016000614c5f565b600482016000905550506126743382602001516148d3565b6020810151604051339084907f42aa62a335199e81c12706e51f762071115ee5df409428ef670b00ee8b7a3d2690600090a450506001600055565b6004602052600090815260409020805460018201546002830154600384015460058501805494956001600160a01b039485169593851694909216926126f3906151d0565b80601f016020809104026020016040519081016040528092919081815260200182805461271f906151d0565b801561276c5780601f106127415761010080835404028352916020019161276c565b820191906000526020600020905b81548152906001019060200180831161274f57829003601f168201915b5050505050905085565b600254600160a01b900460ff16156127a1576040516313d0ff5960e31b815260040160405180910390fd5b6002600054036127c35760405162461bcd60e51b81526004016110439061520a565b600260009081556040516331a9108f60e11b8152600481018390527f00000000000000000000000000000000000000000000000000000000000000006001600160a01b031690636352211e90602401602060405180830381865afa15801561282f573d6000803e3d6000fd5b505050506040513d601f19601f820116820180604052508101906128539190615184565b90506001600160a01b038116331461287e57604051633faa6c4560e01b815260040160405180910390fd5b604051639c05d68d60e01b8152600481018390526000907f00000000000000000000000000000000000000000000000000000000000000006001600160a01b031690639c05d68d90602401602060405180830381865afa1580156128e6573d6000803e3d6000fd5b505050506040513d601f19601f8201168201806040525081019061290a9190615184565b6040516331a9108f60e11b8152600481018690529091506000906001600160a01b037f00000000000000000000000000000000000000000000000000000000000000001690636352211e90602401602060405180830381865afa158015612975573d6000803e3d6000fd5b505050506040513d601f19601f820116820180604052508101906129999190615184565b9050816001600160a01b0316816001600160a01b0316036129cd57604051633617ec7f60e21b815260040160405180910390fd5b60008581526005602090815260409182902082516080810184528154815260018201546001600160a01b03908116938201939093526002820154831681850181905260039092015483166060820152925163e985e9c560e01b815260048101919091523060248201527f00000000000000000000000000000000000000000000000000000000000000009091169063e985e9c590604401602060405180830381865afa158015612a81573d6000803e3d6000fd5b505050506040513d601f19601f82011682018060405250810190612aa59190615167565b158015612b44575060405163020604bf60e21b81526004810187905230906001600160a01b037f0000000000000000000000000000000000000000000000000000000000000000169063081812fc90602401602060405180830381865afa158015612b14573d6000803e3d6000fd5b505050506040513d601f19601f82011682018060405250810190612b389190615184565b6001600160a01b031614155b15612b6257604051631c4f6a7160e11b815260040160405180910390fd5b60208101516001600160a01b038116612b8e576040516374dbff7960e01b815260040160405180910390fd5b336001600160a01b03821603612bb757604051633617ec7f60e21b815260040160405180910390fd5b60608201516001600160a01b031615801590612be0575060608201516001600160a01b03163314155b15612bfe5760405163a969b35f60e01b815260040160405180910390fd5b81513414612c1f576040516349986e7360e01b815260040160405180910390fd5b604051636670434960e01b8152600481018890526000907f00000000000000000000000000000000000000000000000000000000000000006001600160a01b031690636670434990602401608060405180830381865afa158015612c87573d6000803e3d6000fd5b505050506040513d601f19601f82011682018060405250810190612cab91906152f0565b93505050508015612ccf5760405163b14aa60560e01b815260040160405180910390fd5b6000888152600560209081526040808320838155600180820180546001600160a01b031990811690915560028084018054831690556003938401805490921690915560078552838620845160808101865281546001600160a01b0390811680835294830154169681019690965290810154938501939093529101546060830152339003612d945760008a81526007602052604080822080546001600160a01b031990811682556001820180549091169055600281018390556003019190915581015191505b8115612da6578051612da690836148d3565b60408086015190516323b872dd60e01b81526001600160a01b037f000000000000000000000000000000000000000000000000000000000000000016916323b872dd91612dfa91908b908f90600401614ef1565b600060405180830381600087803b158015612e1457600080fd5b505af1158015612e28573d6000803e3d6000fd5b50505050612e363485614b02565b50604080513381526001600160a01b0386811660208301523492908a16918d917f9b53f736294544c8dcc2ef0b86a8855c522fa2cdfeed5b52061f8f0e97e1f299910160405180910390a4505060016000555050505050505050565b6000818152600460205260409020600101546001600160a01b03163314612ecc576040516332a0bb6960e01b815260040160405180910390fd5b600081815260046020819052604082208281556001810180546001600160a01b03199081169091556002820180548216905560038201805490911690559190612f1790830182614c41565b612f25600583016000614c5f565b5050604051339082907fa92aff34e046840eb03a70da1750551a7cc813f27519416e1b05865eb260351690600090a350565b600061271060015483612f6a9190615473565b61245f919061548a565b600254600160a01b900460ff1615612f9f576040516313d0ff5960e31b815260040160405180910390fd5b8080600003612fc15760405163e7195f5160e01b815260040160405180910390fd5b604051624003bd60e41b81526004810184905260009081906001600160a01b037f000000000000000000000000000000000000000000000000000000000000000016906304003bd0906024016040805180830381865afa158015613029573d6000803e3d6000fd5b505050506040513d601f19601f8201168201806040525081019061304d91906151a1565b9150915061305f858560008585614962565b6040516001600160a01b038281168252831690859087907f749104dd5f8de8e4b889d790ea029b6ec8515f14cf73d20604b60e0b649a95df9060200160405180910390a45050505050565b600254600160a01b900460ff16156130d5576040516313d0ff5960e31b815260040160405180910390fd5b6002600054036130f75760405162461bcd60e51b81526004016110439061520a565b6002600081815583815260076020908152604091829020825160808101845281546001600160a01b03908116808352600184015490911693820193909352938101549284019290925260039091015460608301528061316957604051637ccf97e760e01b815260040160405180910390fd5b336001600160a01b03821603613192576040516309f6914560e21b815260040160405180910390fd5b826001600160a01b0316816001600160a01b0316146131c457604051630e5d99a160e41b815260040160405180910390fd5b60008060007f00000000000000000000000000000000000000000000000000000000000000006001600160a01b03166366704349886040518263ffffffff1660e01b815260040161321791815260200190565b608060405180830381865afa158015613234573d6000803e3d6000fd5b505050506040513d601f19601f8201168201806040525081019061325891906152f0565b93509350509250336001600160a01b0316826001600160a01b03161461329157604051633e79b9f360e01b815260040160405180910390fd5b80156132b05760405163b14aa60560e01b815260040160405180910390fd5b6000878152600560209081526040808320838155600180820180546001600160a01b03199081169091556002808401805483169055600393840180548316905560079095528386208054821681559182018054909116905592830184905591909101919091558501516133239083614b02565b5060208501516040516323b872dd60e01b81526001600160a01b037f000000000000000000000000000000000000000000000000000000000000000016916323b872dd916133779187918c90600401614ef1565b600060405180830381600087803b15801561339157600080fd5b505af11580156133a5573d6000803e3d6000fd5b50505060408087015190516001600160a01b0385811682528716925089907fc476c7174eb6bcf722015101bfd2abf9161ab48659b47e55f8b7260b06ebf0119060200160405180910390a4505060016000555050505050565b600254600160a01b900460ff1615613429576040516313d0ff5960e31b815260040160405180910390fd5b60026000540361344b5760405162461bcd60e51b81526004016110439061520a565b600260009081556040516331a9108f60e11b8152600481018490527f00000000000000000000000000000000000000000000000000000000000000006001600160a01b031690636352211e90602401602060405180830381865afa1580156134b7573d6000803e3d6000fd5b505050506040513d601f19601f820116820180604052508101906134db9190615184565b60405163e985e9c560e01b81526001600160a01b0380831660048301523060248301529192507f00000000000000000000000000000000000000000000000000000000000000009091169063e985e9c590604401602060405180830381865afa15801561354c573d6000803e3d6000fd5b505050506040513d601f19601f820116820180604052508101906135709190615167565b15801561360f575060405163020604bf60e21b81526004810184905230906001600160a01b037f0000000000000000000000000000000000000000000000000000000000000000169063081812fc90602401602060405180830381865afa1580156135df573d6000803e3d6000fd5b505050506040513d601f19601f820116820180604052508101906136039190615184565b6001600160a01b031614155b1561362d576040516361cf5f1360e01b815260040160405180910390fd5b6001600160a01b038116331461365657604051633faa6c4560e01b815260040160405180910390fd5b6000838152600660209081526040808320815160a08101835281546001600160a01b031681526001820154818501526002820180548451818702810187018652818152929593948601938301828280156136cf57602002820191906000526020600020905b8154815260200190600101908083116136bb575b505050505081526020016003820180546136e8906151d0565b80601f0160208091040260200160405190810160405280929190818152602001828054613714906151d0565b80156137615780601f1061373657610100808354040283529160200191613761565b820191906000526020600020905b81548152906001019060200180831161374457829003601f168201915b50505091835250506004919091015460209091015280519091506001600160a01b0381166137a257604051637ccf97e760e01b815260040160405180910390fd5b336001600160a01b038216036137cb576040516309f6914560e21b815260040160405180910390fd5b836001600160a01b0316816001600160a01b0316146137fd57604051630e5d99a160e41b815260040160405180910390fd5b6000613808866116b7565b91505082606001518051906020012081805190602001201461383d576040516331d1776560e11b815260040160405180910390fd5b600086815260066020526040812080546001600160a01b0319168155600181018290559061386e6002830182614c41565b61387c600383016000614c5f565b60048201600090555050613894836020015185614b02565b506040516323b872dd60e01b81526001600160a01b037f000000000000000000000000000000000000000000000000000000000000000016906323b872dd906138e590339086908b90600401614ef1565b600060405180830381600087803b1580156138ff57600080fd5b505af1158015613913573d6000803e3d6000fd5b505050506020838101516040516001600160a01b03878116825285169289917f93f583f5df123bec43b0c3403a5d3dae34bc2251a68523f99d3041cb80c6ea3891015b60405180910390a45050600160005550505050565b60026000540361398d5760405162461bcd60e51b81526004016110439061520a565b6002600081815582815260076020908152604091829020825160808101845281546001600160a01b03908116808352600184015490911693820193909352938101549284019290925260039091015460608301523314613a005760405163173f0e6f60e21b815260040160405180910390fd5b6060810151613a10906032615460565b431015613a2f57604051623569d160e71b815260040160405180910390fd5b60008281526007602052604080822080546001600160a01b0319908116825560018201805490911690556002810183905560030191909155810151613a759033906148d3565b6040808201519051339084907f7647025e5547900d10b38a3053f5fcb9037d89294d94600b0bfe4f48c798439690600090a450506001600055565b600254600160a01b900460ff1615613adb576040516313d0ff5960e31b815260040160405180910390fd5b600260005403613afd5760405162461bcd60e51b81526004016110439061520a565b60026000818155828152600460208181526040808420815160c0810183528154815260018201546001600160a01b0390811682860152968201548716818401526003820154909616606087015292830180548251818502810185019093528083529495946080860193830182828015613b9557602002820191906000526020600020905b815481526020019060010190808311613b81575b50505050508152602001600582018054613bae906151d0565b80601f0160208091040260200160405190810160405280929190818152602001828054613bda906151d0565b8015613c275780601f10613bfc57610100808354040283529160200191613c27565b820191906000526020600020905b815481529060010190602001808311613c0a57829003601f168201915b5050509190925250505060208101519091506001600160a01b038116613c60576040516374dbff7960e01b815260040160405180910390fd5b336001600160a01b03821603613c895760405163abcb310f60e01b815260040160405180910390fd5b60608201516001600160a01b031615801590613cb2575060608201516001600160a01b03163314155b15613cd057604051634b38765560e01b815260040160405180910390fd5b81513414613cf1576040516349986e7360e01b815260040160405180910390fd5b602082015160405163e985e9c560e01b81526001600160a01b0391821660048201523060248201527f00000000000000000000000000000000000000000000000000000000000000009091169063e985e9c590604401602060405180830381865afa158015613d64573d6000803e3d6000fd5b505050506040513d601f19601f82011682018060405250810190613d889190615167565b158015613e27575060405163020604bf60e21b81526004810184905230906001600160a01b037f0000000000000000000000000000000000000000000000000000000000000000169063081812fc90602401602060405180830381865afa158015613df7573d6000803e3d6000fd5b505050506040513d601f19601f82011682018060405250810190613e1b9190615184565b6001600160a01b031614155b15613e45576040516361cf5f1360e01b815260040160405180910390fd5b6000613e50846116b7565b9150508260a0015180519060200120818051906020012014613e85576040516331d1776560e11b815260040160405180910390fd5b600084815260046020819052604082208281556001810180546001600160a01b03199081169091556002820180548216905560038201805490911690559190613ed090830182614c41565b613ede600583016000614c5f565b50506000848152600660209081526040808320815160a08101835281546001600160a01b0316815260018201548185015260028201805484518187028101870186528181528796939586019390929190830182828015613f5d57602002820191906000526020600020905b815481526020019060010190808311613f49575b50505050508152602001600382018054613f76906151d0565b80601f0160208091040260200160405190810160405280929190818152602001828054613fa2906151d0565b8015613fef5780601f10613fc457610100808354040283529160200191613fef565b820191906000526020600020905b815481529060010190602001808311613fd257829003601f168201915b505050505081526020016004820154815250509050336001600160a01b031681600001516001600160a01b03160361407257600086815260066020526040812080546001600160a01b031916815560018101829055906140526002830182614c41565b614060600383016000614c5f565b60048201600090555050806020015191505b811561408457805161408490836148d3565b60208501516040516323b872dd60e01b81526001600160a01b037f000000000000000000000000000000000000000000000000000000000000000016916323b872dd916140d8919033908b90600401614ef1565b600060405180830381600087803b1580156140f257600080fd5b505af1158015614106573d6000803e3d6000fd5b505050506141143485614b02565b506040516001600160a01b03851681523490339088907f35e25b9a592362b9d470b2a4907c7ea3ae21ab1a1c9eb41e1fd146bc8a33f96f90602001613956565b600254600160a01b900460ff161561417f576040516313d0ff5960e31b815260040160405180910390fd5b81806000036141a15760405163e7195f5160e01b815260040160405180910390fd5b6141ab858561230b565b6141c857604051633e79b9f360e01b815260040160405180910390fd5b60405162525fcd60e91b81526001600160a01b0383811660048301527f0000000000000000000000000000000000000000000000000000000000000000169063a4bf9a0090602401602060405180830381865afa15801561422d573d6000803e3d6000fd5b505050506040513d601f19601f8201168201806040525081019061425191906154ac565b1561426f57604051632b7144e960e21b815260040160405180910390fd5b6040516311543c9960e31b815260048101859052602481018690527f00000000000000000000000000000000000000000000000000000000000000006001600160a01b031690638aa1e4c890604401602060405180830381865afa1580156142db573d6000803e3d6000fd5b505050506040513d601f19601f820116820180604052508101906142ff9190615167565b1561431d5760405163b14aa60560e01b815260040160405180910390fd5b6040516331a9108f60e11b8152600481018690526000907f00000000000000000000000000000000000000000000000000000000000000006001600160a01b031690636352211e90602401602060405180830381865afa158015614385573d6000803e3d6000fd5b505050506040513d601f19601f820116820180604052508101906143a99190615184565b604051624003bd60e41b8152600481018790529091506000906001600160a01b037f000000000000000000000000000000000000000000000000000000000000000016906304003bd0906024016040805180830381865afa158015614412573d6000803e3d6000fd5b505050506040513d601f19601f8201168201806040525081019061443691906151a1565b5090506040518060800160405280868152602001826001600160a01b03168152602001836001600160a01b03168152602001856001600160a01b0316815250600560008981526020019081526020016000206000820151816000015560208201518160010160006101000a8154816001600160a01b0302191690836001600160a01b0316021790555060408201518160020160006101000a8154816001600160a01b0302191690836001600160a01b0316021790555060608201518160030160006101000a8154816001600160a01b0302191690836001600160a01b03160217905550905050806001600160a01b031685887f555474b2f514aef3d74de2861294e8e88446148aa4ece5df7b38bd45282850bd858860405161456e9291906001600160a01b0392831681529116602082015260400190565b60405180910390a450505050505050565b6145876148b8565b63389a75e1600c52806000526020600c2080544211156145af57636f5e88186000526004601cfd5b6000905561121681614ac4565b6145c46148b8565b8060601b6145da57637448fbae6000526004601cfd5b61121681614ac4565b336001600160a01b037f0000000000000000000000000000000000000000000000000000000000000000161461462c5760405163125e77d360e01b815260040160405180910390fd5b6000828152600660209081526040808320815160a08101835281546001600160a01b031681526001820154818501526002820180548451818702810187018652818152929593948601938301828280156146a557602002820191906000526020600020905b815481526020019060010190808311614691575b505050505081526020016003820180546146be906151d0565b80601f01602080910402602001604051908101604052809291908181526020018280546146ea906151d0565b80156147375780601f1061470c57610100808354040283529160200191614737565b820191906000526020600020905b81548152906001019060200180831161471a57829003601f168201915b505050505081526020016004820154815250509050816001600160a01b031681600001516001600160a01b03160361131a57600083815260066020526040812080546001600160a01b0319168155600181018290559061479a6002830182614c41565b6147a8600383016000614c5f565b6004820160009055505061131a816000015182602001516148d3565b6147ce828261230b565b6147eb57604051633e79b9f360e01b815260040160405180910390fd5b6000828152600560205260409020600101546001600160a01b03168061482457604051632c8efc6560e21b815260040160405180910390fd5b6001600160a01b038116331461484d576040516332a0bb6960e01b815260040160405180910390fd5b6000838152600560205260408082208281556001810180546001600160a01b03199081169091556002820180548216905560039091018054909116905551339185917f21b2d85fdbbcaac8efe168e1803aff7a5d97e8cfc1ed65b039c118c246ac46349190a3505050565b638b78c6d819543314612477576382b429006000526004601cfd5b6003546040516000916001600160a01b03851691849084818181858888f193505050503d8060008114614922576040519150601f19603f3d011682016040523d82523d6000602084013e614927565b606091505b505090508061131a576001600160a01b03831660009081526008602052604081208054849290614958908490615460565b9091555050505050565b6001600160a01b038216331461498b57604051633faa6c4560e01b815260040160405180910390fd5b600080614997876116b7565b915091506040518060c00160405280878152602001856001600160a01b03168152602001846001600160a01b03168152602001866001600160a01b0316815260200183815260200182815250600460008981526020019081526020016000206000820151816000015560208201518160010160006101000a8154816001600160a01b0302191690836001600160a01b0316021790555060408201518160020160006101000a8154816001600160a01b0302191690836001600160a01b0316021790555060608201518160030160006101000a8154816001600160a01b0302191690836001600160a01b031602179055506080820151816004019080519060200190614aa3929190614c99565b5060a08201516005820190614ab8908261538a565b50505050505050505050565b638b78c6d81980546001600160a01b039092169182907f8be0079c531659141344cd1fd0a4f28419497f9722a3daafe3b4186f6b6457e0600080a355565b600080614b0e84612f57565b90506000614b1c82866154c5565b6002546040519192506000916001600160a01b039091169084908381818185875af1925050503d8060008114614b6e576040519150601f19603f3d011682016040523d82523d6000602084013e614b73565b606091505b5050905080614bac576002546001600160a01b031660009081526008602052604081208054859290614ba6908490615460565b90915550505b6003546040516001600160a01b038716919084906000818181858888f193505050503d8060008114614bfa576040519150601f19603f3d011682016040523d82523d6000602084013e614bff565b606091505b50508094505083614c38576001600160a01b03851660009081526008602052604081208054849290614c32908490615460565b90915550505b50505092915050565b50805460008255906000526020600020908101906112169190614ce4565b508054614c6b906151d0565b6000825580601f10614c7b575050565b601f0160209004906000526020600020908101906112169190614ce4565b828054828255906000526020600020908101928215614cd4579160200282015b82811115614cd4578251825591602001919060010190614cb9565b50614ce0929150614ce4565b5090565b5b80821115614ce05760008155600101614ce5565b801515811461121657600080fd5b600060208284031215614d1957600080fd5b8135614d2481614cf9565b9392505050565b600080600060608486031215614d4057600080fd5b505081359360208301359350604090920135919050565b600060208284031215614d6957600080fd5b5035919050565b60008151808452602080850194506020840160005b83811015614da157815187529582019590820190600101614d85565b509495945050505050565b6000815180845260005b81811015614dd257602081850181015186830182015201614db6565b506000602082860101526020601f19601f83011685010191505092915050565b60018060a01b0385168152836020820152608060408201526000614e196080830185614d70565b8281036060840152614e2b8185614dac565b979650505050505050565b6001600160a01b038116811461121657600080fd5b600060208284031215614e5d57600080fd5b8135614d2481614e36565b60008060408385031215614e7b57600080fd5b823591506020830135614e8d81614e36565b809150509250929050565b8681526001600160a01b03868116602083015285811660408301528416606082015260c060808201819052600090614ed290830185614d70565b82810360a0840152614ee48185614dac565b9998505050505050505050565b6001600160a01b039384168152919092166020820152604081019190915260600190565b634e487b7160e01b600052604160045260246000fd5b604051601f8201601f1916810167ffffffffffffffff81118282101715614f5457614f54614f15565b604052919050565b600067ffffffffffffffff821115614f7657614f76614f15565b5060051b60200190565b60008060408385031215614f9357600080fd5b8235915060208084013567ffffffffffffffff811115614fb257600080fd5b8401601f81018613614fc357600080fd5b8035614fd6614fd182614f5c565b614f2b565b81815260059190911b82018301908381019088831115614ff557600080fd5b928401925b8284101561501c57833561500d81614e36565b82529284019290840190614ffa565b80955050505050509250929050565b60408152600061503e6040830185614d70565b82810360208401526150508185614dac565b95945050505050565b60008060006060848603121561506e57600080fd5b8335925060208401359150604084013561508781614e36565b809150509250925092565b600080604083850312156150a557600080fd5b50508035926020909101359150565b60018060a01b03851681528360208201526080604082015260006150db6080830185614dac565b905082606083015295945050505050565b8581526001600160a01b03858116602083015284811660408301528316606082015260a060808201819052600090614e2b90830184614dac565b6000806000806080858703121561513c57600080fd5b843593506020850135925060408501359150606085013561515c81614e36565b939692955090935050565b60006020828403121561517957600080fd5b8151614d2481614cf9565b60006020828403121561519657600080fd5b8151614d2481614e36565b600080604083850312156151b457600080fd5b82516151bf81614e36565b6020840151909250614e8d81614e36565b600181811c908216806151e457607f821691505b60208210810361520457634e487b7160e01b600052602260045260246000fd5b50919050565b6020808252601f908201527f5265656e7472616e637947756172643a207265656e7472616e742063616c6c00604082015260600190565b634e487b7160e01b600052603260045260246000fd5b6000602080838503121561526a57600080fd5b825167ffffffffffffffff81111561528157600080fd5b8301601f8101851361529257600080fd5b80516152a0614fd182614f5c565b81815260059190911b820183019083810190878311156152bf57600080fd5b928401925b82841015614e2b578351825292840192908401906152c4565b602081526000614d246020830184614d70565b6000806000806080858703121561530657600080fd5b845161531181614e36565b60208601516040870151919550935061532981614e36565b606086015190925061515c81614cf9565b601f82111561131a576000816000526020600020601f850160051c810160208610156153635750805b601f850160051c820191505b818110156153825782815560010161536f565b505050505050565b815167ffffffffffffffff8111156153a4576153a4614f15565b6153b8816153b284546151d0565b8461533a565b602080601f8311600181146153ed57600084156153d55750858301515b600019600386901b1c1916600185901b178555615382565b600085815260208120601f198616915b8281101561541c578886015182559484019460019091019084016153fd565b508582101561543a5787850151600019600388901b60f8161c191681555b5050505050600190811b01905550565b634e487b7160e01b600052601160045260246000fd5b8082018082111561245f5761245f61544a565b808202811582820484141761245f5761245f61544a565b6000826154a757634e487b7160e01b600052601260045260246000fd5b500490565b6000602082840312156154be57600080fd5b5051919050565b8181038181111561245f5761245f61544a56fea26469706673582212205784c43329dc1cec27b52b950e7565198bac44c38ce7c7ab6e66d5a088af717b64736f6c63430008160033","linkReferences":{}},"methodIdentifiers":{"CHONKS_MAIN()":"4de8cdf6","CHONK_TRAITS()":"170c14d9","acceptBidForChonk(uint256,address)":"cca59759","acceptBidForTrait(uint256,address)":"b5baf476","bidOnChonk(uint256)":"5793b22e","bidOnTrait(uint256,uint256)":"571ccb74","buyChonk(uint256)":"ebd34a88","buyTrait(uint256,uint256)":"917e3a7c","calculateRoyalty(uint256)":"a2e69613","cancelOfferChonk(uint256)":"9f24c945","cancelOfferTrait(uint256,uint256)":"f827d632","cancelOwnershipHandover()":"54d1f13d","chonkBids(uint256)":"65318c86","chonkIdToApprovedOperators(uint256,uint256)":"55737f35","chonkOffers(uint256)":"8b322383","completeOwnershipHandover(address)":"f04e283e","deleteChonkBidsBeforeTokenTransfer(uint256,address)":"f495f5a8","deleteChonkOfferBeforeTokenTransfer(uint256)":"644ec527","deleteTraitBidsBeforeTokenTransfer(uint256,address)":"2fbe78f0","deleteTraitBidsBeforeTokenTransfer(uint256,address[])":"4666a416","deleteTraitOffersBeforeTokenTransfer(uint256)":"2e1d274f","ensureTraitOwner(uint256,uint256)":"710b2719","gasStipend()":"9434c910","getChonkBid(uint256)":"0cbd0922","getChonkOffer(uint256)":"36442e30","getTraitBid(uint256)":"3ce0c372","getTraitIdsAndEncodingForChonk(uint256)":"472729bb","getTraitOffer(uint256)":"f0988214","offerChonk(uint256,uint256)":"a4cc8324","offerChonkToAddress(uint256,uint256,address)":"4fc9923e","offerTrait(uint256,uint256,uint256)":"0b114256","offerTraitToAddress(uint256,uint256,uint256,address)":"ed89f704","owner()":"8da5cb5b","ownershipHandoverExpiresAt(address)":"fee81cf4","pausabilityRevoked()":"b1f3694e","pause(bool)":"02329a29","paused()":"5c975abb","removeChonkOfferOnTraitTransfer(uint256)":"46c627fe","renounceOwnership()":"715018a6","requestOwnershipHandover()":"25692962","revokePausability()":"361f1c52","royaltyPercentage()":"8a71bb2d","setGasStipend(uint256)":"2619e11b","setRoyaltyPercentage(uint256)":"61ba27da","setTeamWallet(address)":"1525ff7d","teamWallet()":"59927044","traitBids(uint256)":"7dbc8619","traitOffers(uint256)":"4f6088cd","transferOwnership(address)":"f2fde38b","withdrawBidOnChonk(uint256)":"795aded3","withdrawBidOnTrait(uint256)":"cecea401","withdrawFunds()":"24600fc3","withdrawableFunds(address)":"2f30cabd"},"id":46}