{"abi":[{"type":"constructor","inputs":[{"name":"_ChonksMain","type":"address","internalType":"address"},{"name":"_chonkTraits","type":"address","internalType":"address"},{"name":"_royaltyPercentage","type":"uint8","internalType":"uint8"},{"name":"_teamWallet","type":"address","internalType":"address"}],"stateMutability":"nonpayable"},{"type":"function","name":"CHONKS_MAIN","inputs":[],"outputs":[{"name":"","type":"address","internalType":"contract ChonksMain"}],"stateMutability":"view"},{"type":"function","name":"CHONK_TRAITS","inputs":[],"outputs":[{"name":"","type":"address","internalType":"contract ChonkTraits"}],"stateMutability":"view"},{"type":"function","name":"acceptBidForChonk","inputs":[{"name":"_chonkId","type":"uint256","internalType":"uint256"},{"name":"_bidder","type":"address","internalType":"address"}],"outputs":[],"stateMutability":"nonpayable"},{"type":"function","name":"acceptBidForTrait","inputs":[{"name":"_traitId","type":"uint256","internalType":"uint256"},{"name":"_bidder","type":"address","internalType":"address"}],"outputs":[],"stateMutability":"nonpayable"},{"type":"function","name":"bidOnChonk","inputs":[{"name":"_chonkId","type":"uint256","internalType":"uint256"}],"outputs":[],"stateMutability":"payable"},{"type":"function","name":"bidOnTrait","inputs":[{"name":"_traitId","type":"uint256","internalType":"uint256"},{"name":"_yourChonkId","type":"uint256","internalType":"uint256"}],"outputs":[],"stateMutability":"payable"},{"type":"function","name":"buyChonk","inputs":[{"name":"_chonkId","type":"uint256","internalType":"uint256"}],"outputs":[],"stateMutability":"payable"},{"type":"function","name":"buyTrait","inputs":[{"name":"_traitId","type":"uint256","internalType":"uint256"},{"name":"_forChonkId","type":"uint256","internalType":"uint256"}],"outputs":[],"stateMutability":"payable"},{"type":"function","name":"calculateRoyalty","inputs":[{"name":"_amount","type":"uint256","internalType":"uint256"}],"outputs":[{"name":"","type":"uint256","internalType":"uint256"}],"stateMutability":"view"},{"type":"function","name":"cancelOfferChonk","inputs":[{"name":"_chonkId","type":"uint256","internalType":"uint256"}],"outputs":[],"stateMutability":"nonpayable"},{"type":"function","name":"cancelOfferTrait","inputs":[{"name":"_traitId","type":"uint256","internalType":"uint256"},{"name":"_chonkId","type":"uint256","internalType":"uint256"}],"outputs":[],"stateMutability":"nonpayable"},{"type":"function","name":"cancelOwnershipHandover","inputs":[],"outputs":[],"stateMutability":"payable"},{"type":"function","name":"chonkBids","inputs":[{"name":"chonkId","type":"uint256","internalType":"uint256"}],"outputs":[{"name":"bidder","type":"address","internalType":"address"},{"name":"amountInWei","type":"uint256","internalType":"uint256"},{"name":"encodedTraitIds","type":"bytes","internalType":"bytes"}],"stateMutability":"view"},{"type":"function","name":"chonkIdToApprovedOperators","inputs":[{"name":"chonkId","type":"uint256","internalType":"uint256"},{"name":"","type":"uint256","internalType":"uint256"}],"outputs":[{"name":"operators","type":"address","internalType":"address"}],"stateMutability":"view"},{"type":"function","name":"chonkOffers","inputs":[{"name":"chonkId","type":"uint256","internalType":"uint256"}],"outputs":[{"name":"priceInWei","type":"uint256","internalType":"uint256"},{"name":"seller","type":"address","internalType":"address"},{"name":"sellerTBA","type":"address","internalType":"address"},{"name":"onlySellTo","type":"address","internalType":"address"},{"name":"encodedTraitIds","type":"bytes","internalType":"bytes"}],"stateMutability":"view"},{"type":"function","name":"completeOwnershipHandover","inputs":[{"name":"pendingOwner","type":"address","internalType":"address"}],"outputs":[],"stateMutability":"payable"},{"type":"function","name":"deleteChonkBidsBeforeTokenTransfer","inputs":[{"name":"_chonkId","type":"uint256","internalType":"uint256"},{"name":"_toEOA","type":"address","internalType":"address"}],"outputs":[],"stateMutability":"nonpayable"},{"type":"function","name":"deleteChonkOfferBeforeTokenTransfer","inputs":[{"name":"_chonkId","type":"uint256","internalType":"uint256"}],"outputs":[],"stateMutability":"nonpayable"},{"type":"function","name":"deleteTraitBidsBeforeTokenTransfer","inputs":[{"name":"_traitId","type":"uint256","internalType":"uint256"},{"name":"_toTBA","type":"address","internalType":"address"}],"outputs":[],"stateMutability":"nonpayable"},{"type":"function","name":"deleteTraitBidsBeforeTokenTransfer","inputs":[{"name":"_traitId","type":"uint256","internalType":"uint256"},{"name":"_toTBAs","type":"address[]","internalType":"address[]"}],"outputs":[],"stateMutability":"nonpayable"},{"type":"function","name":"deleteTraitOffersBeforeTokenTransfer","inputs":[{"name":"_traitId","type":"uint256","internalType":"uint256"}],"outputs":[],"stateMutability":"nonpayable"},{"type":"function","name":"ensureTraitOwner","inputs":[{"name":"_traitId","type":"uint256","internalType":"uint256"},{"name":"_chonkId","type":"uint256","internalType":"uint256"}],"outputs":[{"name":"","type":"bool","internalType":"bool"}],"stateMutability":"view"},{"type":"function","name":"getChonkBid","inputs":[{"name":"_chonkId","type":"uint256","internalType":"uint256"}],"outputs":[{"name":"bidder","type":"address","internalType":"address"},{"name":"amountInWei","type":"uint256","internalType":"uint256"},{"name":"traitIds","type":"uint256[]","internalType":"uint256[]"},{"name":"encodedTraitIds","type":"bytes","internalType":"bytes"}],"stateMutability":"view"},{"type":"function","name":"getChonkOffer","inputs":[{"name":"_chonkId","type":"uint256","internalType":"uint256"}],"outputs":[{"name":"priceInWei","type":"uint256","internalType":"uint256"},{"name":"seller","type":"address","internalType":"address"},{"name":"sellerTBA","type":"address","internalType":"address"},{"name":"onlySellTo","type":"address","internalType":"address"},{"name":"traitIds","type":"uint256[]","internalType":"uint256[]"},{"name":"encodedTraitIds","type":"bytes","internalType":"bytes"}],"stateMutability":"view"},{"type":"function","name":"getTraitBid","inputs":[{"name":"_traitId","type":"uint256","internalType":"uint256"}],"outputs":[{"name":"bidder","type":"address","internalType":"address"},{"name":"bidderTBA","type":"address","internalType":"address"},{"name":"amountInWei","type":"uint256","internalType":"uint256"}],"stateMutability":"view"},{"type":"function","name":"getTraitIdsAndEncodingForChonk","inputs":[{"name":"_chonkId","type":"uint256","internalType":"uint256"}],"outputs":[{"name":"traitIds","type":"uint256[]","internalType":"uint256[]"},{"name":"encodedTraitIds","type":"bytes","internalType":"bytes"}],"stateMutability":"view"},{"type":"function","name":"getTraitOffer","inputs":[{"name":"_traitId","type":"uint256","internalType":"uint256"}],"outputs":[{"name":"priceInWei","type":"uint256","internalType":"uint256"},{"name":"seller","type":"address","internalType":"address"},{"name":"sellerTBA","type":"address","internalType":"address"},{"name":"onlySellTo","type":"address","internalType":"address"}],"stateMutability":"view"},{"type":"function","name":"offerChonk","inputs":[{"name":"_chonkId","type":"uint256","internalType":"uint256"},{"name":"_priceInWei","type":"uint256","internalType":"uint256"}],"outputs":[],"stateMutability":"nonpayable"},{"type":"function","name":"offerChonkToAddress","inputs":[{"name":"_chonkId","type":"uint256","internalType":"uint256"},{"name":"_priceInWei","type":"uint256","internalType":"uint256"},{"name":"_onlySellTo","type":"address","internalType":"address"}],"outputs":[],"stateMutability":"nonpayable"},{"type":"function","name":"offerTrait","inputs":[{"name":"_traitId","type":"uint256","internalType":"uint256"},{"name":"_chonkId","type":"uint256","internalType":"uint256"},{"name":"_priceInWei","type":"uint256","internalType":"uint256"}],"outputs":[],"stateMutability":"nonpayable"},{"type":"function","name":"offerTraitToAddress","inputs":[{"name":"_traitId","type":"uint256","internalType":"uint256"},{"name":"_chonkId","type":"uint256","internalType":"uint256"},{"name":"_priceInWei","type":"uint256","internalType":"uint256"},{"name":"_onlySellTo","type":"address","internalType":"address"}],"outputs":[],"stateMutability":"nonpayable"},{"type":"function","name":"offerTraitToChonkId","inputs":[{"name":"_traitId","type":"uint256","internalType":"uint256"},{"name":"_chonkId","type":"uint256","internalType":"uint256"},{"name":"_priceInWei","type":"uint256","internalType":"uint256"},{"name":"_onlySellToChonkId","type":"uint256","internalType":"uint256"}],"outputs":[],"stateMutability":"nonpayable"},{"type":"function","name":"owner","inputs":[],"outputs":[{"name":"result","type":"address","internalType":"address"}],"stateMutability":"view"},{"type":"function","name":"ownershipHandoverExpiresAt","inputs":[{"name":"pendingOwner","type":"address","internalType":"address"}],"outputs":[{"name":"result","type":"uint256","internalType":"uint256"}],"stateMutability":"view"},{"type":"function","name":"pausabilityRevoked","inputs":[],"outputs":[{"name":"","type":"bool","internalType":"bool"}],"stateMutability":"view"},{"type":"function","name":"pause","inputs":[{"name":"_value","type":"bool","internalType":"bool"}],"outputs":[],"stateMutability":"nonpayable"},{"type":"function","name":"paused","inputs":[],"outputs":[{"name":"","type":"bool","internalType":"bool"}],"stateMutability":"view"},{"type":"function","name":"removeChonkOfferOnTraitTransfer","inputs":[{"name":"_chonkId","type":"uint256","internalType":"uint256"}],"outputs":[],"stateMutability":"nonpayable"},{"type":"function","name":"renounceOwnership","inputs":[],"outputs":[],"stateMutability":"payable"},{"type":"function","name":"requestOwnershipHandover","inputs":[],"outputs":[],"stateMutability":"payable"},{"type":"function","name":"revokePausability","inputs":[],"outputs":[],"stateMutability":"nonpayable"},{"type":"function","name":"royaltyPercentage","inputs":[],"outputs":[{"name":"","type":"uint256","internalType":"uint256"}],"stateMutability":"view"},{"type":"function","name":"setRoyaltyPercentage","inputs":[{"name":"_royaltyPercentage","type":"uint256","internalType":"uint256"}],"outputs":[],"stateMutability":"nonpayable"},{"type":"function","name":"setTeamWallet","inputs":[{"name":"_teamWallet","type":"address","internalType":"address"}],"outputs":[],"stateMutability":"nonpayable"},{"type":"function","name":"teamWallet","inputs":[],"outputs":[{"name":"","type":"address","internalType":"address"}],"stateMutability":"view"},{"type":"function","name":"traitBids","inputs":[{"name":"traitId","type":"uint256","internalType":"uint256"}],"outputs":[{"name":"bidder","type":"address","internalType":"address"},{"name":"bidderTBA","type":"address","internalType":"address"},{"name":"amountInWei","type":"uint256","internalType":"uint256"}],"stateMutability":"view"},{"type":"function","name":"traitOffers","inputs":[{"name":"traitId","type":"uint256","internalType":"uint256"}],"outputs":[{"name":"priceInWei","type":"uint256","internalType":"uint256"},{"name":"seller","type":"address","internalType":"address"},{"name":"sellerTBA","type":"address","internalType":"address"},{"name":"onlySellTo","type":"address","internalType":"address"}],"stateMutability":"view"},{"type":"function","name":"transferOwnership","inputs":[{"name":"newOwner","type":"address","internalType":"address"}],"outputs":[],"stateMutability":"payable"},{"type":"function","name":"withdrawBidOnChonk","inputs":[{"name":"_chonkId","type":"uint256","internalType":"uint256"}],"outputs":[],"stateMutability":"nonpayable"},{"type":"function","name":"withdrawBidOnTrait","inputs":[{"name":"_traitId","type":"uint256","internalType":"uint256"}],"outputs":[],"stateMutability":"nonpayable"},{"type":"function","name":"withdrawFunds","inputs":[],"outputs":[],"stateMutability":"nonpayable"},{"type":"function","name":"withdrawableFunds","inputs":[{"name":"eoa","type":"address","internalType":"address"}],"outputs":[{"name":"balance","type":"uint256","internalType":"uint256"}],"stateMutability":"view"},{"type":"event","name":"ChonkBidAccepted","inputs":[{"name":"chonkId","type":"uint256","indexed":true,"internalType":"uint256"},{"name":"amountInWei","type":"uint256","indexed":true,"internalType":"uint256"},{"name":"buyer","type":"address","indexed":true,"internalType":"address"},{"name":"seller","type":"address","indexed":false,"internalType":"address"}],"anonymous":false},{"type":"event","name":"ChonkBidEntered","inputs":[{"name":"chonkId","type":"uint256","indexed":true,"internalType":"uint256"},{"name":"bidder","type":"address","indexed":true,"internalType":"address"},{"name":"amountInWei","type":"uint256","indexed":true,"internalType":"uint256"}],"anonymous":false},{"type":"event","name":"ChonkBidWithdrawn","inputs":[{"name":"chonkId","type":"uint256","indexed":true,"internalType":"uint256"},{"name":"bidder","type":"address","indexed":true,"internalType":"address"},{"name":"amountInWei","type":"uint256","indexed":true,"internalType":"uint256"}],"anonymous":false},{"type":"event","name":"ChonkBought","inputs":[{"name":"chonkId","type":"uint256","indexed":true,"internalType":"uint256"},{"name":"buyer","type":"address","indexed":true,"internalType":"address"},{"name":"amountInWei","type":"uint256","indexed":true,"internalType":"uint256"},{"name":"seller","type":"address","indexed":false,"internalType":"address"}],"anonymous":false},{"type":"event","name":"ChonkOfferCanceled","inputs":[{"name":"chonkId","type":"uint256","indexed":true,"internalType":"uint256"},{"name":"seller","type":"address","indexed":true,"internalType":"address"}],"anonymous":false},{"type":"event","name":"ChonkOffered","inputs":[{"name":"chonkId","type":"uint256","indexed":true,"internalType":"uint256"},{"name":"price","type":"uint256","indexed":true,"internalType":"uint256"},{"name":"seller","type":"address","indexed":true,"internalType":"address"},{"name":"sellerTBA","type":"address","indexed":false,"internalType":"address"}],"anonymous":false},{"type":"event","name":"ChonkOfferedToAddress","inputs":[{"name":"chonkId","type":"uint256","indexed":true,"internalType":"uint256"},{"name":"price","type":"uint256","indexed":true,"internalType":"uint256"},{"name":"seller","type":"address","indexed":true,"internalType":"address"},{"name":"sellerTBA","type":"address","indexed":false,"internalType":"address"},{"name":"onlySellTo","type":"address","indexed":false,"internalType":"address"}],"anonymous":false},{"type":"event","name":"OwnershipHandoverCanceled","inputs":[{"name":"pendingOwner","type":"address","indexed":true,"internalType":"address"}],"anonymous":false},{"type":"event","name":"OwnershipHandoverRequested","inputs":[{"name":"pendingOwner","type":"address","indexed":true,"internalType":"address"}],"anonymous":false},{"type":"event","name":"OwnershipTransferred","inputs":[{"name":"oldOwner","type":"address","indexed":true,"internalType":"address"},{"name":"newOwner","type":"address","indexed":true,"internalType":"address"}],"anonymous":false},{"type":"event","name":"TraitBidAccepted","inputs":[{"name":"traitId","type":"uint256","indexed":true,"internalType":"uint256"},{"name":"amountInWei","type":"uint256","indexed":true,"internalType":"uint256"},{"name":"buyer","type":"address","indexed":true,"internalType":"address"},{"name":"seller","type":"address","indexed":false,"internalType":"address"}],"anonymous":false},{"type":"event","name":"TraitBidEntered","inputs":[{"name":"traitId","type":"uint256","indexed":true,"internalType":"uint256"},{"name":"bidder","type":"address","indexed":true,"internalType":"address"},{"name":"amountInWei","type":"uint256","indexed":true,"internalType":"uint256"}],"anonymous":false},{"type":"event","name":"TraitBidWithdrawn","inputs":[{"name":"traitId","type":"uint256","indexed":true,"internalType":"uint256"},{"name":"bidder","type":"address","indexed":true,"internalType":"address"},{"name":"amountInWei","type":"uint256","indexed":true,"internalType":"uint256"}],"anonymous":false},{"type":"event","name":"TraitBought","inputs":[{"name":"traitId","type":"uint256","indexed":true,"internalType":"uint256"},{"name":"buyerTBA","type":"address","indexed":true,"internalType":"address"},{"name":"amountInWei","type":"uint256","indexed":true,"internalType":"uint256"},{"name":"buyer","type":"address","indexed":false,"internalType":"address"},{"name":"seller","type":"address","indexed":false,"internalType":"address"}],"anonymous":false},{"type":"event","name":"TraitOfferCanceled","inputs":[{"name":"traitId","type":"uint256","indexed":true,"internalType":"uint256"},{"name":"seller","type":"address","indexed":true,"internalType":"address"}],"anonymous":false},{"type":"event","name":"TraitOffered","inputs":[{"name":"traitId","type":"uint256","indexed":true,"internalType":"uint256"},{"name":"price","type":"uint256","indexed":true,"internalType":"uint256"},{"name":"seller","type":"address","indexed":true,"internalType":"address"},{"name":"sellerTBA","type":"address","indexed":false,"internalType":"address"}],"anonymous":false},{"type":"event","name":"TraitOfferedToAddress","inputs":[{"name":"traitId","type":"uint256","indexed":true,"internalType":"uint256"},{"name":"price","type":"uint256","indexed":true,"internalType":"uint256"},{"name":"seller","type":"address","indexed":true,"internalType":"address"},{"name":"sellerTBA","type":"address","indexed":false,"internalType":"address"},{"name":"onlySellTo","type":"address","indexed":false,"internalType":"address"}],"anonymous":false},{"type":"error","name":"AlreadyInitialized","inputs":[]},{"type":"error","name":"ApproveTheMarketplace","inputs":[]},{"type":"error","name":"BidIsTooLow","inputs":[]},{"type":"error","name":"BidderChanged","inputs":[]},{"type":"error","name":"CMUnauthorized","inputs":[]},{"type":"error","name":"CantAcceptYourOwnBid","inputs":[]},{"type":"error","name":"CantBeZero","inputs":[]},{"type":"error","name":"CantBidOnYourOwnChonk","inputs":[]},{"type":"error","name":"CantBidOnYourOwnTrait","inputs":[]},{"type":"error","name":"CantBuyYourOwnChonk","inputs":[]},{"type":"error","name":"CantBuyYourOwnTrait","inputs":[]},{"type":"error","name":"NewOwnerIsZeroAddress","inputs":[]},{"type":"error","name":"NoBidToAccept","inputs":[]},{"type":"error","name":"NoHandoverRequest","inputs":[]},{"type":"error","name":"NoOfferToCancel","inputs":[]},{"type":"error","name":"NotYourBid","inputs":[]},{"type":"error","name":"NotYourChonk","inputs":[]},{"type":"error","name":"NotYourOffer","inputs":[]},{"type":"error","name":"NotYourTrait","inputs":[]},{"type":"error","name":"OfferDoesNotExist","inputs":[]},{"type":"error","name":"OnlyTraitContract","inputs":[]},{"type":"error","name":"PausabilityRevoked","inputs":[]},{"type":"error","name":"Paused","inputs":[]},{"type":"error","name":"TBANeedsToApproveMarketplace","inputs":[]},{"type":"error","name":"TraitEquipped","inputs":[]},{"type":"error","name":"TraitIdsChangedSinceBid","inputs":[]},{"type":"error","name":"TraitIdsChangedSinceListingRelist","inputs":[]},{"type":"error","name":"Unauthorized","inputs":[]},{"type":"error","name":"WithdrawFailed","inputs":[]},{"type":"error","name":"WrongAmount","inputs":[]},{"type":"error","name":"YouCantBuyThatChonk","inputs":[]},{"type":"error","name":"YouCantBuyThatTrait","inputs":[]}],"bytecode":{"object":"0x60c06040523480156200001157600080fd5b5060405162005d7138038062005d7183398101604081905262000034916200016c565b6001600081905550620000616040518060600160405280602c815260200162005d45602c913933620000a1565b6200006c33620000f2565b6001600160a01b0393841660805291831660a05260ff16600155600280546001600160a01b0319169190921617905562000232565b620000ee8282604051602401620000ba929190620001d0565b60408051601f198184030181529190526020810180516001600160e01b0390811663319af33360e01b179091526200012e16565b5050565b6001600160a01b0316638b78c6d8198190558060007f8be0079c531659141344cd1fd0a4f28419497f9722a3daafe3b4186f6b6457e08180a350565b80516a636f6e736f6c652e6c6f67602083016000808483855afa5050505050565b80516001600160a01b03811681146200016757600080fd5b919050565b600080600080608085870312156200018357600080fd5b6200018e856200014f565b93506200019e602086016200014f565b9250604085015160ff81168114620001b557600080fd5b9150620001c5606086016200014f565b905092959194509250565b604081526000835180604084015260005b81811015620002005760208187018101516060868401015201620001e1565b50600060608285018101919091526001600160a01b03949094166020840152601f01601f191690910190910192915050565b60805160a0516159c76200037e600039600081816103b101528181610c5f01528181611197015281816111fa015281816112f6015281816116d7015281816123d101528181612a7201528181612b7801528181612c0b01528181612ee5015281816133070152818161385c01526145f70152600081816105bd01528181610bb501528181610cf501528181611138015281816111c6015281816115ac01528181611797015281816118450152818161195001528181611b1401528181611bd701528181611e39015281816121170152818161244301528181612844015281816129db01528181612d76015281816131050152818161325d0152818161339d0152818161342b015281816136ec0152818161398401528181613c650152818161409201528181614127015281816143f90152818161454d0152818161468d01526148af01526159c76000f3fe6080604052600436106102ff5760003560e01c8063644ec52711610190578063af9ca0f2116100dc578063ed89f70411610095578063f2fde38b1161006f578063f2fde38b14610a4d578063f495f5a814610a60578063f827d63214610a80578063fee81cf414610aa057600080fd5b8063ed89f704146109a5578063f04e283e146109c5578063f0988214146109d857600080fd5b8063af9ca0f2146108f1578063b1f3694e14610911578063b5baf47614610932578063cca5975914610952578063cecea40114610972578063ebd34a881461099257600080fd5b80638a71bb2d11610149578063917e3a7c11610123578063917e3a7c1461087e5780639f24c94514610891578063a2e69613146108b1578063a4cc8324146108d157600080fd5b80638a71bb2d1461081e5780638b322383146108345780638da5cb5b1461086557600080fd5b8063644ec5271461073e57806365318c861461075e578063710b27191461078d578063715018a6146107ad578063795aded3146107b55780637dbc8619146107d557600080fd5b80634666a4161161024f57806354d1f13d116102085780635793b22e116101e25780635793b22e146106ba57806359927044146106cd5780635c975abb146106ed57806361ba27da1461071e57600080fd5b806354d1f13d1461067f57806355737f3514610687578063571ccb74146106a757600080fd5b80634666a4161461053d57806346c627fe1461055d578063472729bb1461057d5780634de8cdf6146105ab5780634f6088cd146105df5780634fc9923e1461065f57600080fd5b806325692962116102bc5780632fbe78f0116102965780632fbe78f014610463578063361f1c521461048357806336442e30146104985780633ce0c372146104ca57600080fd5b806325692962146104005780632e1d274f146104085780632f30cabd1461042857600080fd5b806302329a29146103045780630b114256146103265780630cbd0922146103465780631525ff7d1461037f578063170c14d91461039f57806324600fc3146103eb575b600080fd5b34801561031057600080fd5b5061032461031f36600461509d565b610ad3565b005b34801561033257600080fd5b506103246103413660046150c1565b610b24565b34801561035257600080fd5b506103666103613660046150ed565b610e3a565b6040516103769493929190615188565b60405180910390f35b34801561038b57600080fd5b5061032461039a3660046151e1565b610f7f565b3480156103ab57600080fd5b506103d37f000000000000000000000000000000000000000000000000000000000000000081565b6040516001600160a01b039091168152602001610376565b3480156103f757600080fd5b50610324610fa9565b61032461105f565b34801561041457600080fd5b506103246104233660046150ed565b6110af565b34801561043457600080fd5b506104556104433660046151e1565b60076020526000908152604090205481565b604051908152602001610376565b34801561046f57600080fd5b5061032461047e3660046151fe565b6112eb565b34801561048f57600080fd5b506103246113e2565b3480156104a457600080fd5b506104b86104b33660046150ed565b61142a565b6040516103769695949392919061522e565b3480156104d657600080fd5b5061052e6104e53660046150ed565b600081815260066020908152604091829020825160608101845281546001600160a01b039081168083526001840154909116938201849052600290920154930183905293909250565b60405161037693929190615287565b34801561054957600080fd5b50610324610558366004615316565b6115a1565b34801561056957600080fd5b506103246105783660046150ed565b6116cc565b34801561058957600080fd5b5061059d6105983660046150ed565b611790565b6040516103769291906153c1565b3480156105b757600080fd5b506103d37f000000000000000000000000000000000000000000000000000000000000000081565b3480156105eb57600080fd5b506106306105fa3660046150ed565b600460205260009081526040902080546001820154600283015460039093015491926001600160a01b0391821692908216911684565b604080519485526001600160a01b03938416602086015291831691840191909152166060820152608001610376565b34801561066b57600080fd5b5061032461067a3660046153ef565b6118e1565b610324611a13565b34801561069357600080fd5b506103d36106a2366004615428565b611a4f565b6103246106b5366004615428565b611a87565b6103246106c83660046150ed565b611dad565b3480156106d957600080fd5b506002546103d3906001600160a01b031681565b3480156106f957600080fd5b5060025461070e90600160a01b900460ff1681565b6040519015158152602001610376565b34801561072a57600080fd5b506103246107393660046150ed565b6120ff565b34801561074a57600080fd5b506103246107593660046150ed565b61210c565b34801561076a57600080fd5b5061077e6107793660046150ed565b6122f9565b6040516103769392919061544a565b34801561079957600080fd5b5061070e6107a8366004615428565b6123ae565b610324612508565b3480156107c157600080fd5b506103246107d03660046150ed565b61251c565b3480156107e157600080fd5b5061052e6107f03660046150ed565b6006602052600090815260409020805460018201546002909201546001600160a01b03918216929091169083565b34801561082a57600080fd5b5061045560015481565b34801561084057600080fd5b5061085461084f3660046150ed565b612710565b604051610376959493929190615471565b34801561087157600080fd5b50638b78c6d819546103d3565b61032461088c366004615428565b6127da565b34801561089d57600080fd5b506103246108ac3660046150ed565b612fb4565b3480156108bd57600080fd5b506104556108cc3660046150ed565b613079565b3480156108dd57600080fd5b506103246108ec366004615428565b613096565b3480156108fd57600080fd5b5061032461090c3660046154ab565b6131cc565b34801561091d57600080fd5b5060025461070e90600160a81b900460ff1681565b34801561093e57600080fd5b5061032461094d3660046151fe565b6135d7565b34801561095e57600080fd5b5061032461096d3660046151fe565b61391a565b34801561097e57600080fd5b5061032461098d3660046150ed565b613d23565b6103246109a03660046150ed565b613e26565b3480156109b157600080fd5b506103246109c03660046154dd565b6144bc565b6103246109d33660046151e1565b614840565b3480156109e457600080fd5b506106306109f33660046150ed565b6000908152600460209081526040918290208251608081018452815480825260018301546001600160a01b039081169483018590526002840154811695830186905260039093015490921660609091018190529093919291565b610324610a5b3660046151e1565b61487d565b348015610a6c57600080fd5b50610324610a7b3660046151fe565b6148a4565b348015610a8c57600080fd5b50610324610a9b366004615428565b614a73565b348015610aac57600080fd5b50610455610abb3660046151e1565b63389a75e1600c908152600091909152602090205490565b610adb614b67565b600254600160a81b900460ff1615610b065760405163d9ef8fb560e01b815260040160405180910390fd5b60028054911515600160a01b0260ff60a01b19909216919091179055565b600254600160a01b900460ff1615610b4f576040516313d0ff5960e31b815260040160405180910390fd5b8080600003610b715760405163e7195f5160e01b815260040160405180910390fd5b610b7b84846123ae565b610b9857604051633e79b9f360e01b815260040160405180910390fd5b6040516311543c9960e31b815260048101849052602481018590527f00000000000000000000000000000000000000000000000000000000000000006001600160a01b031690638aa1e4c890604401602060405180830381865afa158015610c04573d6000803e3d6000fd5b505050506040513d601f19601f82011682018060405250810190610c28919061551e565b15610c465760405163b14aa60560e01b815260040160405180910390fd5b6040516331a9108f60e11b8152600481018590526000907f00000000000000000000000000000000000000000000000000000000000000006001600160a01b031690636352211e90602401602060405180830381865afa158015610cae573d6000803e3d6000fd5b505050506040513d601f19601f82011682018060405250810190610cd2919061553b565b604051624003bd60e41b8152600481018690529091506000906001600160a01b037f000000000000000000000000000000000000000000000000000000000000000016906304003bd0906024016040805180830381865afa158015610d3b573d6000803e3d6000fd5b505050506040513d601f19601f82011682018060405250810190610d5f9190615558565b50604080516080810182528681526001600160a01b0380841660208084018281528884168587019081526000606087018181528f825260049094528790209551865590516001860180549186166001600160a01b03199283161790559051600286018054918616918316919091179055905160039094018054949093169316929092179055905191925090859088907fd81820ebfdde47351b4ac56296bba70e8f57f24195955168a1b5bf6b653e3d3a90610e2a9087906001600160a01b0391909116815260200190565b60405180910390a4505050505050565b6000818152600560209081526040808320815160808101835281546001600160a01b0316815260018201548185015260028201805484518187028101870186528181528796606096879689969590949186019392909190830182828015610ec057602002820191906000526020600020905b815481526020019060010190808311610eac575b50505050508152602001600382018054610ed990615587565b80601f0160208091040260200160405190810160405280929190818152602001828054610f0590615587565b8015610f525780601f10610f2757610100808354040283529160200191610f52565b820191906000526020600020905b815481529060010190602001808311610f3557829003601f168201915b505050919092525050815160208301516040840151606090940151919a9099509297509550909350505050565b610f87614b67565b600280546001600160a01b0319166001600160a01b0392909216919091179055565b600260005403610fd45760405162461bcd60e51b8152600401610fcb906155c1565b60405180910390fd5b60026000908155338082526007602052604080832080549084905590519092919083908381818185875af1925050503d806000811461102f576040519150601f19603f3d011682016040523d82523d6000602084013e611034565b606091505b505090508061105657604051631d42c86760e21b815260040160405180910390fd5b50506001600055565b60006202a30067ffffffffffffffff164201905063389a75e1600c5233600052806020600c2055337fdbf36a107da19e49527a7176a1babf963b4b0ff8cde35ee35d6cd8f1f9ac7e1d600080a250565b6110d160405180608001604052806046815260200161594c6046913982614b82565b61110460405180604001604052806011815260200170169036b2b9b9b0b3b29039b2b73232b91d60791b81525033614bc7565b61115c604051806040016040528060168152602001752d20616464726573732843484f4e4b535f4d41494e2960501b8152507f0000000000000000000000000000000000000000000000000000000000000000614bc7565b6111bb6040518060400160405280601781526020017f2d20616464726573732843484f4e4b5f545241495453290000000000000000008152507f0000000000000000000000000000000000000000000000000000000000000000614bc7565b336001600160a01b037f0000000000000000000000000000000000000000000000000000000000000000161480159061121d5750336001600160a01b037f00000000000000000000000000000000000000000000000000000000000000001614155b1561126a576112516040518060400160405280600e81526020016d10d3555b985d5d1a1bdc9a5e995960921b815250614c0c565b60405163125e77d360e01b815260040160405180910390fd5b6000818152600460205260409020600101546001600160a01b0316156112c75760008181526004602052604081209081556001810180546001600160a01b0319908116909155600282018054821690556003909101805490911690555b6112e86040518060600160405280603581526020016158d660359139614c0c565b50565b336001600160a01b037f000000000000000000000000000000000000000000000000000000000000000016146113345760405163125e77d360e01b815260040160405180910390fd5b600082815260066020908152604091829020825160608101845281546001600160a01b0390811680835260018401549091169382019390935260029091015492810192909252156113dd57816001600160a01b031681602001516001600160a01b0316036113dd5760008381526006602052604080822080546001600160a01b031990811682556001820180549091169055600201919091558151908201516113dd9190614c4f565b505050565b6113ea614b67565b600254600160a81b900460ff16156114155760405163d9ef8fb560e01b815260040160405180910390fd5b6002805460ff60a81b1916600160a81b179055565b6000818152600360208181526040808420815160c0810183528154815260018201546001600160a01b0390811682860152600283015481168285015294820154909416606085810191909152600482018054845181870281018701909552808552879687968796949586958895939491936080860193919290918301828280156114d357602002820191906000526020600020905b8154815260200190600101908083116114bf575b505050505081526020016005820180546114ec90615587565b80601f016020809104026020016040519081016040528092919081815260200182805461151890615587565b80156115655780601f1061153a57610100808354040283529160200191611565565b820191906000526020600020905b81548152906001019060200180831161154857829003601f168201915b5050509190925250508151602083015160408401516060850151608086015160a090960151939e929d50909b5099509297509550909350505050565b336001600160a01b037f000000000000000000000000000000000000000000000000000000000000000016146115ea5760405163125e77d360e01b815260040160405180910390fd5b600082815260066020908152604091829020825160608101845281546001600160a01b0390811680835260018401549091169382019390935260029091015492810192909252156113dd5760005b82518110156116c6576000838281518110611655576116556155f8565b60200260200101519050806001600160a01b031683602001516001600160a01b0316036116bd5760008581526006602052604080822080546001600160a01b031990811682556001820180549091169055600201919091558351908401516116bd9190614c4f565b50600101611638565b50505050565b336001600160a01b037f000000000000000000000000000000000000000000000000000000000000000016146117155760405163e007692f60e01b815260040160405180910390fd5b61173760405180608001604052806041815260200161590b6041913982614b82565b600081815260036020819052604082208281556001810180546001600160a01b0319908116909155600282018054821690559181018054909216909155906117826004830182614fd7565b6113dd600583016000614ff5565b60608060007f00000000000000000000000000000000000000000000000000000000000000006001600160a01b03166304003bd0856040518263ffffffff1660e01b81526004016117e391815260200190565b6040805180830381865afa1580156117ff573d6000803e3d6000fd5b505050506040513d601f19601f820116820180604052508101906118239190615558565b604051634cc67db760e11b81526001600160a01b0380831660048301529193507f0000000000000000000000000000000000000000000000000000000000000000909116915063998cfb6e90602401600060405180830381865afa15801561188f573d6000803e3d6000fd5b505050506040513d6000823e601f3d908101601f191682016040526118b7919081019061560e565b9250826040516020016118ca9190615694565b604051602081830303815290604052915050915091565b600254600160a01b900460ff161561190c576040516313d0ff5960e31b815260040160405180910390fd5b818060000361192e5760405163e7195f5160e01b815260040160405180910390fd5b604051624003bd60e41b81526004810185905260009081906001600160a01b037f000000000000000000000000000000000000000000000000000000000000000016906304003bd0906024016040805180830381865afa158015611996573d6000803e3d6000fd5b505050506040513d601f19601f820116820180604052508101906119ba9190615558565b915091506119cb8686868585614cdc565b604080516001600160a01b0383811682528681166020830152841691879189917f4b2696c0b570fe60ace24fc90fe3446d3328d0c3aaeed71e743603aaba978e789101610e2a565b63389a75e1600c523360005260006020600c2055337ffa7b8eab7da67f412cc9575ed43464468f9bfbae89d1675917346ca6d8fe3c92600080a2565b60086020528160005260406000208181548110611a6b57600080fd5b6000918252602090912001546001600160a01b03169150829050565b3480600003611aa95760405163e7195f5160e01b815260040160405180910390fd5b600254600160a01b900460ff1615611ad4576040516313d0ff5960e31b815260040160405180910390fd5b600260005403611af65760405162461bcd60e51b8152600401610fcb906155c1565b60026000908155604051624003bd60e41b81526004810184905281907f00000000000000000000000000000000000000000000000000000000000000006001600160a01b0316906304003bd0906024016040805180830381865afa158015611b62573d6000803e3d6000fd5b505050506040513d601f19601f82011682018060405250810190611b869190615558565b90925090506001600160a01b0382163314611bb457604051633faa6c4560e01b815260040160405180910390fd5b604051636670434960e01b81526004810186905260009081906001600160a01b037f00000000000000000000000000000000000000000000000000000000000000001690636670434990602401608060405180830381865afa158015611c1e573d6000803e3d6000fd5b505050506040513d601f19601f82011682018060405250810190611c4291906156a7565b509250509150336001600160a01b0316816001600160a01b03161480611c7057506001600160a01b03821633145b15611c8e576040516303d54cb760e11b815260040160405180910390fd5b600087815260066020908152604091829020825160608101845281546001600160a01b0390811682526001830154169281019290925260020154918101829052903411611cee576040516386bed4cd60e01b815260040160405180910390fd5b604080516060810182523381526001600160a01b0386811660208084019182523484860190815260008e8152600690925290859020935184549084166001600160a01b03199182161785559151600185018054919094169216919091179091555160029091015581015115611d6f57611d6f81600001518260400151614c4f565b604051349033908a907f10962e2373847454af3c025d9b77161f5244f4e2a69e3e9ddf4954b2622a868990600090a450506001600055505050505050565b3480600003611dcf5760405163e7195f5160e01b815260040160405180910390fd5b600254600160a01b900460ff1615611dfa576040516313d0ff5960e31b815260040160405180910390fd5b600260005403611e1c5760405162461bcd60e51b8152600401610fcb906155c1565b600260009081556040516331a9108f60e11b8152600481018490527f00000000000000000000000000000000000000000000000000000000000000006001600160a01b031690636352211e90602401602060405180830381865afa158015611e88573d6000803e3d6000fd5b505050506040513d601f19601f82011682018060405250810190611eac919061553b565b9050336001600160a01b03821603611ed75760405163d2e7167f60e01b815260040160405180910390fd5b6000838152600560209081526040808320815160808101835281546001600160a01b03168152600182015481850152600282018054845181870281018701865281815292959394860193830182828015611f5057602002820191906000526020600020905b815481526020019060010190808311611f3c575b50505050508152602001600382018054611f6990615587565b80601f0160208091040260200160405190810160405280929190818152602001828054611f9590615587565b8015611fe25780601f10611fb757610100808354040283529160200191611fe2565b820191906000526020600020905b815481529060010190602001808311611fc557829003601f168201915b505050505081525050905080602001513411612011576040516386bed4cd60e01b815260040160405180910390fd5b60008061201d86611790565b604080516080810182523381523460208083019182528284018681526060840186905260008d81526005835294909420835181546001600160a01b0319166001600160a01b0390911617815591516001830155925180519597509395509093909261208f92600285019291019061502f565b50606082015160038201906120a49082615741565b5050506020830151156120c3576120c383600001518460200151614c4f565b6040513490339088907f5bcbf8d6be0293e172be2f32bd63e586fd65b0d15d70c845d393d73f2cfcff1790600090a45050600160005550505050565b612107614b67565b600155565b336001600160a01b037f000000000000000000000000000000000000000000000000000000000000000016146121555760405163125e77d360e01b815260040160405180910390fd5b6000818152600360208181526040808420815160c0810183528154815260018201546001600160a01b039081168286015260028301548116828501529482015490941660608501526004810180548351818602810186019094528084529193608086019392908301828280156121ea57602002820191906000526020600020905b8154815260200190600101908083116121d6575b5050505050815260200160058201805461220390615587565b80601f016020809104026020016040519081016040528092919081815260200182805461222f90615587565b801561227c5780601f106122515761010080835404028352916020019161227c565b820191906000526020600020905b81548152906001019060200180831161225f57829003601f168201915b5050509190925250505060208101519091506001600160a01b0316156122f557600082815260036020819052604082208281556001810180546001600160a01b0319908116909155600282018054821690559181018054909216909155906122e76004830182614fd7565b6116c6600583016000614ff5565b5050565b6005602052600090815260409020805460018201546003830180546001600160a01b0390931693919261232b90615587565b80601f016020809104026020016040519081016040528092919081815260200182805461235790615587565b80156123a45780601f10612379576101008083540402835291602001916123a4565b820191906000526020600020905b81548152906001019060200180831161238757829003601f168201915b5050505050905083565b6040516331a9108f60e11b81526004810183905260009081906001600160a01b037f00000000000000000000000000000000000000000000000000000000000000001690636352211e90602401602060405180830381865afa158015612418573d6000803e3d6000fd5b505050506040513d601f19601f8201168201806040525081019061243c919061553b565b90506000807f00000000000000000000000000000000000000000000000000000000000000006001600160a01b03166304003bd0866040518263ffffffff1660e01b815260040161248f91815260200190565b6040805180830381865afa1580156124ab573d6000803e3d6000fd5b505050506040513d601f19601f820116820180604052508101906124cf9190615558565b91509150806001600160a01b0316836001600160a01b03161480156124fc57506001600160a01b03821633145b93505050505b92915050565b612510614b67565b61251a6000614e3e565b565b60026000540361253e5760405162461bcd60e51b8152600401610fcb906155c1565b60026000818155828152600560209081526040808320815160808101835281546001600160a01b03168152600182015481850152948101805483518186028101860185528181529596959294938601938301828280156125bd57602002820191906000526020600020905b8154815260200190600101908083116125a9575b505050505081526020016003820180546125d690615587565b80601f016020809104026020016040519081016040528092919081815260200182805461260290615587565b801561264f5780601f106126245761010080835404028352916020019161264f565b820191906000526020600020905b81548152906001019060200180831161263257829003601f168201915b5050509190925250508151919250506001600160a01b031633146126865760405163173f0e6f60e21b815260040160405180910390fd5b600082815260056020526040812080546001600160a01b031916815560018101829055906126b76002830182614fd7565b6126c5600383016000614ff5565b50506126d5338260200151614c4f565b6020810151604051339084907f42aa62a335199e81c12706e51f762071115ee5df409428ef670b00ee8b7a3d2690600090a450506001600055565b60036020819052600091825260409091208054600182015460028301549383015460058401805493956001600160a01b039384169590841694939092169261275790615587565b80601f016020809104026020016040519081016040528092919081815260200182805461278390615587565b80156127d05780601f106127a5576101008083540402835291602001916127d0565b820191906000526020600020905b8154815290600101906020018083116127b357829003601f168201915b5050505050905085565b600254600160a01b900460ff1615612805576040516313d0ff5960e31b815260040160405180910390fd5b6002600054036128275760405162461bcd60e51b8152600401610fcb906155c1565b600260009081556040516331a9108f60e11b8152600481018390527f00000000000000000000000000000000000000000000000000000000000000006001600160a01b031690636352211e90602401602060405180830381865afa158015612893573d6000803e3d6000fd5b505050506040513d601f19601f820116820180604052508101906128b7919061553b565b90506128ed60405180604001604052806012815260200171189d5e551c985a5d0e8817dd1c985a5d125960721b81525084614b82565b61292460405180604001604052806015815260200174189d5e551c985a5d0e8817d99bdc90da1bdb9ad259605a1b81525083614b82565b6129636040518060400160405280601881526020017f62757954726169743a206f776e6572206f662043686f6e6b000000000000000081525082614bc7565b61299960405180604001604052806014815260200173313abcaa3930b4ba1d1036b9b39739b2b73232b960611b81525033614bc7565b6001600160a01b03811633146129c257604051633faa6c4560e01b815260040160405180910390fd5b604051639c05d68d60e01b8152600481018390526000907f00000000000000000000000000000000000000000000000000000000000000006001600160a01b031690639c05d68d90602401602060405180830381865afa158015612a2a573d6000803e3d6000fd5b505050506040513d601f19601f82011682018060405250810190612a4e919061553b565b6040516331a9108f60e11b8152600481018690529091506000906001600160a01b037f00000000000000000000000000000000000000000000000000000000000000001690636352211e90602401602060405180830381865afa158015612ab9573d6000803e3d6000fd5b505050506040513d601f19601f82011682018060405250810190612add919061553b565b9050816001600160a01b0316816001600160a01b031603612b1157604051633617ec7f60e21b815260040160405180910390fd5b60008581526004602081815260409283902083516080810185528154815260018201546001600160a01b03908116938201939093526002820154831681860181905260039092015483166060820152935163e985e9c560e01b8152928301523060248301527f0000000000000000000000000000000000000000000000000000000000000000169063e985e9c590604401602060405180830381865afa158015612bbf573d6000803e3d6000fd5b505050506040513d601f19601f82011682018060405250810190612be3919061551e565b158015612c82575060405163020604bf60e21b81526004810187905230906001600160a01b037f0000000000000000000000000000000000000000000000000000000000000000169063081812fc90602401602060405180830381865afa158015612c52573d6000803e3d6000fd5b505050506040513d601f19601f82011682018060405250810190612c76919061553b565b6001600160a01b031614155b15612ca057604051631c4f6a7160e11b815260040160405180910390fd5b60208101516001600160a01b038116612ccc576040516374dbff7960e01b815260040160405180910390fd5b336001600160a01b03821603612cf557604051633617ec7f60e21b815260040160405180910390fd5b60608201516001600160a01b031615801590612d1e575060608201516001600160a01b03163314155b15612d3c5760405163a969b35f60e01b815260040160405180910390fd5b81513414612d5d576040516349986e7360e01b815260040160405180910390fd5b604051636670434960e01b8152600481018890526000907f00000000000000000000000000000000000000000000000000000000000000006001600160a01b031690636670434990602401608060405180830381865afa158015612dc5573d6000803e3d6000fd5b505050506040513d601f19601f82011682018060405250810190612de991906156a7565b93505050508015612e0d5760405163b14aa60560e01b815260040160405180910390fd5b6000888152600460209081526040808320838155600180820180546001600160a01b031990811690915560028084018054831690556003909301805490911690556006845293829020825160608101845281546001600160a01b0390811680835296830154169481019490945201549082015290339003612ec95760008981526006602052604080822080546001600160a01b03199081168255600182018054909116905560020191909155815190820151612ec99190614c4f565b60408085015190516323b872dd60e01b81526001600160a01b037f000000000000000000000000000000000000000000000000000000000000000016916323b872dd91612f1d91908a908e90600401615287565b600060405180830381600087803b158015612f3757600080fd5b505af1158015612f4b573d6000803e3d6000fd5b50505050612f593484614e7c565b50604080513381526001600160a01b0385811660208301523492908916918c917f9b53f736294544c8dcc2ef0b86a8855c522fa2cdfeed5b52061f8f0e97e1f299910160405180910390a45050600160005550505050505050565b6000818152600360205260409020600101546001600160a01b03163314612fee576040516332a0bb6960e01b815260040160405180910390fd5b600081815260036020819052604082208281556001810180546001600160a01b0319908116909155600282018054821690559181018054909216909155906130396004830182614fd7565b613047600583016000614ff5565b5050604051339082907fa92aff34e046840eb03a70da1750551a7cc813f27519416e1b05865eb260351690600090a350565b60006127106001548361308c9190615817565b612502919061582e565b600254600160a01b900460ff16156130c1576040516313d0ff5960e31b815260040160405180910390fd5b80806000036130e35760405163e7195f5160e01b815260040160405180910390fd5b604051624003bd60e41b81526004810184905260009081906001600160a01b037f000000000000000000000000000000000000000000000000000000000000000016906304003bd0906024016040805180830381865afa15801561314b573d6000803e3d6000fd5b505050506040513d601f19601f8201168201806040525081019061316f9190615558565b91509150613181858560008585614cdc565b6040516001600160a01b038281168252831690859087907f749104dd5f8de8e4b889d790ea029b6ec8515f14cf73d20604b60e0b649a95df9060200160405180910390a45050505050565b600254600160a01b900460ff16156131f7576040516313d0ff5960e31b815260040160405180910390fd5b81806000036132195760405163e7195f5160e01b815260040160405180910390fd5b61322385856123ae565b61324057604051633e79b9f360e01b815260040160405180910390fd5b6040516311543c9960e31b815260048101859052602481018690527f00000000000000000000000000000000000000000000000000000000000000006001600160a01b031690638aa1e4c890604401602060405180830381865afa1580156132ac573d6000803e3d6000fd5b505050506040513d601f19601f820116820180604052508101906132d0919061551e565b156132ee5760405163b14aa60560e01b815260040160405180910390fd5b6040516331a9108f60e11b8152600481018690526000907f00000000000000000000000000000000000000000000000000000000000000006001600160a01b031690636352211e90602401602060405180830381865afa158015613356573d6000803e3d6000fd5b505050506040513d601f19601f8201168201806040525081019061337a919061553b565b604051624003bd60e41b8152600481018790529091506000906001600160a01b037f000000000000000000000000000000000000000000000000000000000000000016906304003bd0906024016040805180830381865afa1580156133e3573d6000803e3d6000fd5b505050506040513d601f19601f820116820180604052508101906134079190615558565b50604051624003bd60e41b8152600481018690529091506000906001600160a01b037f000000000000000000000000000000000000000000000000000000000000000016906304003bd0906024016040805180830381865afa158015613471573d6000803e3d6000fd5b505050506040513d601f19601f820116820180604052508101906134959190615558565b9150506040518060800160405280878152602001836001600160a01b03168152602001846001600160a01b03168152602001826001600160a01b0316815250600460008a81526020019081526020016000206000820151816000015560208201518160010160006101000a8154816001600160a01b0302191690836001600160a01b0316021790555060408201518160020160006101000a8154816001600160a01b0302191690836001600160a01b0316021790555060608201518160030160006101000a8154816001600160a01b0302191690836001600160a01b03160217905550905050816001600160a01b031686897fd81820ebfdde47351b4ac56296bba70e8f57f24195955168a1b5bf6b653e3d3a866040516135c591906001600160a01b0391909116815260200190565b60405180910390a45050505050505050565b600254600160a01b900460ff1615613602576040516313d0ff5960e31b815260040160405180910390fd5b6002600054036136245760405162461bcd60e51b8152600401610fcb906155c1565b6002600081815583815260066020908152604091829020825160608101845281546001600160a01b03908116808352600184015490911693820193909352930154918301919091528061368a57604051637ccf97e760e01b815260040160405180910390fd5b336001600160a01b038216036136b3576040516309f6914560e21b815260040160405180910390fd5b826001600160a01b0316816001600160a01b0316146136e557604051630e5d99a160e41b815260040160405180910390fd5b60008060007f00000000000000000000000000000000000000000000000000000000000000006001600160a01b03166366704349886040518263ffffffff1660e01b815260040161373891815260200190565b608060405180830381865afa158015613755573d6000803e3d6000fd5b505050506040513d601f19601f8201168201806040525081019061377991906156a7565b93509350509250336001600160a01b0316826001600160a01b0316146137b257604051633e79b9f360e01b815260040160405180910390fd5b80156137d15760405163b14aa60560e01b815260040160405180910390fd5b6000878152600460209081526040808320838155600180820180546001600160a01b03199081169091556002808401805483169055600390930180548216905560069094528285208054851681559081018054909416909355919091019190915585015161383f9083614e7c565b5060208501516040516323b872dd60e01b81526001600160a01b037f000000000000000000000000000000000000000000000000000000000000000016916323b872dd916138939187918c90600401615287565b600060405180830381600087803b1580156138ad57600080fd5b505af11580156138c1573d6000803e3d6000fd5b50505060408087015190516001600160a01b0385811682528716925089907fc476c7174eb6bcf722015101bfd2abf9161ab48659b47e55f8b7260b06ebf0119060200160405180910390a4505060016000555050505050565b600254600160a01b900460ff1615613945576040516313d0ff5960e31b815260040160405180910390fd5b6002600054036139675760405162461bcd60e51b8152600401610fcb906155c1565b600260009081556040516331a9108f60e11b8152600481018490527f00000000000000000000000000000000000000000000000000000000000000006001600160a01b031690636352211e90602401602060405180830381865afa1580156139d3573d6000803e3d6000fd5b505050506040513d601f19601f820116820180604052508101906139f7919061553b565b90506001600160a01b0381163314613a2257604051633faa6c4560e01b815260040160405180910390fd5b6000838152600560209081526040808320815160808101835281546001600160a01b03168152600182015481850152600282018054845181870281018701865281815292959394860193830182828015613a9b57602002820191906000526020600020905b815481526020019060010190808311613a87575b50505050508152602001600382018054613ab490615587565b80601f0160208091040260200160405190810160405280929190818152602001828054613ae090615587565b8015613b2d5780601f10613b0257610100808354040283529160200191613b2d565b820191906000526020600020905b815481529060010190602001808311613b1057829003601f168201915b5050509190925250508151919250506001600160a01b038116613b6357604051637ccf97e760e01b815260040160405180910390fd5b336001600160a01b03821603613b8c576040516309f6914560e21b815260040160405180910390fd5b836001600160a01b0316816001600160a01b031614613bbe57604051630e5d99a160e41b815260040160405180910390fd5b6000613bc986611790565b915050826060015180519060200120818051906020012014613bfe576040516331d1776560e11b815260040160405180910390fd5b600086815260056020526040812080546001600160a01b03191681556001810182905590613c2f6002830182614fd7565b613c3d600383016000614ff5565b5050613c4d836020015185614e7c565b506040516323b872dd60e01b81526001600160a01b037f000000000000000000000000000000000000000000000000000000000000000016906323b872dd90613c9e90339086908b90600401615287565b600060405180830381600087803b158015613cb857600080fd5b505af1158015613ccc573d6000803e3d6000fd5b505050506020838101516040516001600160a01b03878116825285169289917f93f583f5df123bec43b0c3403a5d3dae34bc2251a68523f99d3041cb80c6ea38910160405180910390a45050600160005550505050565b600260005403613d455760405162461bcd60e51b8152600401610fcb906155c1565b6002600081815582815260066020908152604091829020825160608101845281546001600160a01b03908116808352600184015490911693820193909352930154918301919091523314613dac5760405163173f0e6f60e21b815260040160405180910390fd5b60008281526006602052604080822080546001600160a01b03199081168255600182018054909116905560020191909155810151613deb903390614c4f565b6040808201519051339084907f7647025e5547900d10b38a3053f5fcb9037d89294d94600b0bfe4f48c798439690600090a450506001600055565b600254600160a01b900460ff1615613e51576040516313d0ff5960e31b815260040160405180910390fd5b600260005403613e735760405162461bcd60e51b8152600401610fcb906155c1565b60026000818155828152600360208181526040808420815160c0810183528154815260018201546001600160a01b039081168286015296820154871681840152938101549095166060840152600485018054825181850281018501909352808352949593946080860193830182828015613f0c57602002820191906000526020600020905b815481526020019060010190808311613ef8575b50505050508152602001600582018054613f2590615587565b80601f0160208091040260200160405190810160405280929190818152602001828054613f5190615587565b8015613f9e5780601f10613f7357610100808354040283529160200191613f9e565b820191906000526020600020905b815481529060010190602001808311613f8157829003601f168201915b5050509190925250505060208101519091506001600160a01b038116613fd7576040516374dbff7960e01b815260040160405180910390fd5b336001600160a01b038216036140005760405163abcb310f60e01b815260040160405180910390fd5b60608201516001600160a01b031615801590614029575060608201516001600160a01b03163314155b1561404757604051634b38765560e01b815260040160405180910390fd5b81513414614068576040516349986e7360e01b815260040160405180910390fd5b602082015160405163e985e9c560e01b81526001600160a01b0391821660048201523060248201527f00000000000000000000000000000000000000000000000000000000000000009091169063e985e9c590604401602060405180830381865afa1580156140db573d6000803e3d6000fd5b505050506040513d601f19601f820116820180604052508101906140ff919061551e565b15801561419e575060405163020604bf60e21b81526004810184905230906001600160a01b037f0000000000000000000000000000000000000000000000000000000000000000169063081812fc90602401602060405180830381865afa15801561416e573d6000803e3d6000fd5b505050506040513d601f19601f82011682018060405250810190614192919061553b565b6001600160a01b031614155b156141bc576040516361cf5f1360e01b815260040160405180910390fd5b60006141c784611790565b9150508260a00151805190602001208180519060200120146141fc576040516331d1776560e11b815260040160405180910390fd5b600084815260036020819052604082208281556001810180546001600160a01b0319908116909155600282018054821690559181018054909216909155906142476004830182614fd7565b614255600583016000614ff5565b50506000848152600560209081526040808320815160808101835281546001600160a01b031681526001820154818501526002820180548451818702810187018652818152929593948601938301828280156142d057602002820191906000526020600020905b8154815260200190600101908083116142bc575b505050505081526020016003820180546142e990615587565b80601f016020809104026020016040519081016040528092919081815260200182805461431590615587565b80156143625780601f1061433757610100808354040283529160200191614362565b820191906000526020600020905b81548152906001019060200180831161434557829003601f168201915b5050505050815250509050336001600160a01b031681600001516001600160a01b0316036143dd57600085815260056020526040812080546001600160a01b031916815560018101829055906143bb6002830182614fd7565b6143c9600383016000614ff5565b50506143dd81600001518260200151614c4f565b60208401516040516323b872dd60e01b81526001600160a01b037f000000000000000000000000000000000000000000000000000000000000000016916323b872dd91614431919033908a90600401615287565b600060405180830381600087803b15801561444b57600080fd5b505af115801561445f573d6000803e3d6000fd5b5050505061446d3484614e7c565b506040516001600160a01b03841681523490339087907f35e25b9a592362b9d470b2a4907c7ea3ae21ab1a1c9eb41e1fd146bc8a33f96f9060200160405180910390a450506001600055505050565b600254600160a01b900460ff16156144e7576040516313d0ff5960e31b815260040160405180910390fd5b81806000036145095760405163e7195f5160e01b815260040160405180910390fd5b61451385856123ae565b61453057604051633e79b9f360e01b815260040160405180910390fd5b6040516311543c9960e31b815260048101859052602481018690527f00000000000000000000000000000000000000000000000000000000000000006001600160a01b031690638aa1e4c890604401602060405180830381865afa15801561459c573d6000803e3d6000fd5b505050506040513d601f19601f820116820180604052508101906145c0919061551e565b156145de5760405163b14aa60560e01b815260040160405180910390fd5b6040516331a9108f60e11b8152600481018690526000907f00000000000000000000000000000000000000000000000000000000000000006001600160a01b031690636352211e90602401602060405180830381865afa158015614646573d6000803e3d6000fd5b505050506040513d601f19601f8201168201806040525081019061466a919061553b565b604051624003bd60e41b8152600481018790529091506000906001600160a01b037f000000000000000000000000000000000000000000000000000000000000000016906304003bd0906024016040805180830381865afa1580156146d3573d6000803e3d6000fd5b505050506040513d601f19601f820116820180604052508101906146f79190615558565b5090506040518060800160405280868152602001826001600160a01b03168152602001836001600160a01b03168152602001856001600160a01b0316815250600460008981526020019081526020016000206000820151816000015560208201518160010160006101000a8154816001600160a01b0302191690836001600160a01b0316021790555060408201518160020160006101000a8154816001600160a01b0302191690836001600160a01b0316021790555060608201518160030160006101000a8154816001600160a01b0302191690836001600160a01b03160217905550905050806001600160a01b031685887f555474b2f514aef3d74de2861294e8e88446148aa4ece5df7b38bd45282850bd858860405161482f9291906001600160a01b0392831681529116602082015260400190565b60405180910390a450505050505050565b614848614b67565b63389a75e1600c52806000526020600c20805442111561487057636f5e88186000526004601cfd5b600090556112e881614e3e565b614885614b67565b8060601b61489b57637448fbae6000526004601cfd5b6112e881614e3e565b336001600160a01b037f000000000000000000000000000000000000000000000000000000000000000016146148ed5760405163125e77d360e01b815260040160405180910390fd5b6000828152600560209081526040808320815160808101835281546001600160a01b0316815260018201548185015260028201805484518187028101870186528181529295939486019383018282801561496657602002820191906000526020600020905b815481526020019060010190808311614952575b5050505050815260200160038201805461497f90615587565b80601f01602080910402602001604051908101604052809291908181526020018280546149ab90615587565b80156149f85780601f106149cd576101008083540402835291602001916149f8565b820191906000526020600020905b8154815290600101906020018083116149db57829003601f168201915b5050505050815250509050816001600160a01b031681600001516001600160a01b0316036113dd57600083815260056020526040812080546001600160a01b03191681556001810182905590614a516002830182614fd7565b614a5f600383016000614ff5565b50506113dd81600001518260200151614c4f565b614a7d82826123ae565b614a9a57604051633e79b9f360e01b815260040160405180910390fd5b6000828152600460205260409020600101546001600160a01b031680614ad357604051632c8efc6560e21b815260040160405180910390fd5b6001600160a01b0381163314614afc576040516332a0bb6960e01b815260040160405180910390fd5b6000838152600460205260408082208281556001810180546001600160a01b03199081169091556002820180548216905560039091018054909116905551339185917f21b2d85fdbbcaac8efe168e1803aff7a5d97e8cfc1ed65b039c118c246ac46349190a3505050565b638b78c6d81954331461251a576382b429006000526004601cfd5b6122f58282604051602401614b98929190615850565b60408051601f198184030181529190526020810180516001600160e01b03166309710a9d60e41b179052614fb6565b6122f58282604051602401614bdd929190615872565b60408051601f198184030181529190526020810180516001600160e01b031663319af33360e01b179052614fb6565b6112e881604051602401614c20919061589c565b60408051601f198184030181529190526020810180516001600160e01b031663104c13eb60e21b179052614fb6565b6000826001600160a01b03168260405160006040518083038185875af1925050503d8060008114614c9c576040519150601f19603f3d011682016040523d82523d6000602084013e614ca1565b606091505b50509050806113dd576001600160a01b03831660009081526007602052604081208054849290614cd29084906158af565b9091555050505050565b6001600160a01b0382163314614d0557604051633faa6c4560e01b815260040160405180910390fd5b600080614d1187611790565b915091506040518060c00160405280878152602001856001600160a01b03168152602001846001600160a01b03168152602001866001600160a01b0316815260200183815260200182815250600360008981526020019081526020016000206000820151816000015560208201518160010160006101000a8154816001600160a01b0302191690836001600160a01b0316021790555060408201518160020160006101000a8154816001600160a01b0302191690836001600160a01b0316021790555060608201518160030160006101000a8154816001600160a01b0302191690836001600160a01b031602179055506080820151816004019080519060200190614e1d92919061502f565b5060a08201516005820190614e329082615741565b50505050505050505050565b638b78c6d81980546001600160a01b039092169182907f8be0079c531659141344cd1fd0a4f28419497f9722a3daafe3b4186f6b6457e0600080a355565b600080614e8884613079565b90506000614e9682866158c2565b6002546040519192506000916001600160a01b039091169084908381818185875af1925050503d8060008114614ee8576040519150601f19603f3d011682016040523d82523d6000602084013e614eed565b606091505b5050905080614f26576002546001600160a01b031660009081526007602052604081208054859290614f209084906158af565b90915550505b6040516001600160a01b038616908390600081818185875af1925050503d8060008114614f6f576040519150601f19603f3d011682016040523d82523d6000602084013e614f74565b606091505b50508094505083614fad576001600160a01b03851660009081526007602052604081208054849290614fa79084906158af565b90915550505b50505092915050565b80516a636f6e736f6c652e6c6f67602083016000808483855afa5050505050565b50805460008255906000526020600020908101906112e8919061507a565b50805461500190615587565b6000825580601f10615011575050565b601f0160209004906000526020600020908101906112e8919061507a565b82805482825590600052602060002090810192821561506a579160200282015b8281111561506a57825182559160200191906001019061504f565b5061507692915061507a565b5090565b5b80821115615076576000815560010161507b565b80151581146112e857600080fd5b6000602082840312156150af57600080fd5b81356150ba8161508f565b9392505050565b6000806000606084860312156150d657600080fd5b505081359360208301359350604090920135919050565b6000602082840312156150ff57600080fd5b5035919050565b60008151808452602080850194506020840160005b838110156151375781518752958201959082019060010161511b565b509495945050505050565b6000815180845260005b818110156151685760208185018101518683018201520161514c565b506000602082860101526020601f19601f83011685010191505092915050565b60018060a01b03851681528360208201526080604082015260006151af6080830185615106565b82810360608401526151c18185615142565b979650505050505050565b6001600160a01b03811681146112e857600080fd5b6000602082840312156151f357600080fd5b81356150ba816151cc565b6000806040838503121561521157600080fd5b823591506020830135615223816151cc565b809150509250929050565b8681526001600160a01b03868116602083015285811660408301528416606082015260c06080820181905260009061526890830185615106565b82810360a084015261527a8185615142565b9998505050505050505050565b6001600160a01b039384168152919092166020820152604081019190915260600190565b634e487b7160e01b600052604160045260246000fd5b604051601f8201601f1916810167ffffffffffffffff811182821017156152ea576152ea6152ab565b604052919050565b600067ffffffffffffffff82111561530c5761530c6152ab565b5060051b60200190565b6000806040838503121561532957600080fd5b8235915060208084013567ffffffffffffffff81111561534857600080fd5b8401601f8101861361535957600080fd5b803561536c615367826152f2565b6152c1565b81815260059190911b8201830190838101908883111561538b57600080fd5b928401925b828410156153b25783356153a3816151cc565b82529284019290840190615390565b80955050505050509250929050565b6040815260006153d46040830185615106565b82810360208401526153e68185615142565b95945050505050565b60008060006060848603121561540457600080fd5b8335925060208401359150604084013561541d816151cc565b809150509250925092565b6000806040838503121561543b57600080fd5b50508035926020909101359150565b60018060a01b03841681528260208201526060604082015260006153e66060830184615142565b8581526001600160a01b03858116602083015284811660408301528316606082015260a0608082018190526000906151c190830184615142565b600080600080608085870312156154c157600080fd5b5050823594602084013594506040840135936060013592509050565b600080600080608085870312156154f357600080fd5b8435935060208501359250604085013591506060850135615513816151cc565b939692955090935050565b60006020828403121561553057600080fd5b81516150ba8161508f565b60006020828403121561554d57600080fd5b81516150ba816151cc565b6000806040838503121561556b57600080fd5b8251615576816151cc565b6020840151909250615223816151cc565b600181811c9082168061559b57607f821691505b6020821081036155bb57634e487b7160e01b600052602260045260246000fd5b50919050565b6020808252601f908201527f5265656e7472616e637947756172643a207265656e7472616e742063616c6c00604082015260600190565b634e487b7160e01b600052603260045260246000fd5b6000602080838503121561562157600080fd5b825167ffffffffffffffff81111561563857600080fd5b8301601f8101851361564957600080fd5b8051615657615367826152f2565b81815260059190911b8201830190838101908783111561567657600080fd5b928401925b828410156151c15783518252928401929084019061567b565b6020815260006150ba6020830184615106565b600080600080608085870312156156bd57600080fd5b84516156c8816151cc565b6020860151604087015191955093506156e0816151cc565b60608601519092506155138161508f565b601f8211156113dd576000816000526020600020601f850160051c8101602086101561571a5750805b601f850160051c820191505b8181101561573957828155600101615726565b505050505050565b815167ffffffffffffffff81111561575b5761575b6152ab565b61576f816157698454615587565b846156f1565b602080601f8311600181146157a4576000841561578c5750858301515b600019600386901b1c1916600185901b178555615739565b600085815260208120601f198616915b828110156157d3578886015182559484019460019091019084016157b4565b50858210156157f15787850151600019600388901b60f8161c191681555b5050505050600190811b01905550565b634e487b7160e01b600052601160045260246000fd5b808202811582820484141761250257612502615801565b60008261584b57634e487b7160e01b600052601260045260246000fd5b500490565b6040815260006158636040830185615142565b90508260208301529392505050565b6040815260006158856040830185615142565b905060018060a01b03831660208301529392505050565b6020815260006150ba6020830184615142565b8082018082111561250257612502615801565b818103818111156125025761250261580156fe43686f6e6b734d61726b65742064656c65746554726169744f66666572734265666f7265546f6b656e5472616e7366657220656e6443686f6e6b734d61726b65742072656d6f766543686f6e6b4f666665724f6e54726169745472616e736665722063616c6c656420666f722063686f6e6b2049443a43686f6e6b734d61726b65742064656c65746554726169744f66666572734265666f7265546f6b656e5472616e736665722063616c6c656420666f722074726169742049443aa264697066735822122037bff3da29046f2e275416c2b13537b13bb38d88b4edb5d5ac8cfda21bbb91f964736f6c6343000816003343686f6e6b734d61726b657420636f6e7374727563746f722063616c6c65642c206d73672e73656e6465723a","linkReferences":{}},"methodIdentifiers":{"CHONKS_MAIN()":"4de8cdf6","CHONK_TRAITS()":"170c14d9","acceptBidForChonk(uint256,address)":"cca59759","acceptBidForTrait(uint256,address)":"b5baf476","bidOnChonk(uint256)":"5793b22e","bidOnTrait(uint256,uint256)":"571ccb74","buyChonk(uint256)":"ebd34a88","buyTrait(uint256,uint256)":"917e3a7c","calculateRoyalty(uint256)":"a2e69613","cancelOfferChonk(uint256)":"9f24c945","cancelOfferTrait(uint256,uint256)":"f827d632","cancelOwnershipHandover()":"54d1f13d","chonkBids(uint256)":"65318c86","chonkIdToApprovedOperators(uint256,uint256)":"55737f35","chonkOffers(uint256)":"8b322383","completeOwnershipHandover(address)":"f04e283e","deleteChonkBidsBeforeTokenTransfer(uint256,address)":"f495f5a8","deleteChonkOfferBeforeTokenTransfer(uint256)":"644ec527","deleteTraitBidsBeforeTokenTransfer(uint256,address)":"2fbe78f0","deleteTraitBidsBeforeTokenTransfer(uint256,address[])":"4666a416","deleteTraitOffersBeforeTokenTransfer(uint256)":"2e1d274f","ensureTraitOwner(uint256,uint256)":"710b2719","getChonkBid(uint256)":"0cbd0922","getChonkOffer(uint256)":"36442e30","getTraitBid(uint256)":"3ce0c372","getTraitIdsAndEncodingForChonk(uint256)":"472729bb","getTraitOffer(uint256)":"f0988214","offerChonk(uint256,uint256)":"a4cc8324","offerChonkToAddress(uint256,uint256,address)":"4fc9923e","offerTrait(uint256,uint256,uint256)":"0b114256","offerTraitToAddress(uint256,uint256,uint256,address)":"ed89f704","offerTraitToChonkId(uint256,uint256,uint256,uint256)":"af9ca0f2","owner()":"8da5cb5b","ownershipHandoverExpiresAt(address)":"fee81cf4","pausabilityRevoked()":"b1f3694e","pause(bool)":"02329a29","paused()":"5c975abb","removeChonkOfferOnTraitTransfer(uint256)":"46c627fe","renounceOwnership()":"715018a6","requestOwnershipHandover()":"25692962","revokePausability()":"361f1c52","royaltyPercentage()":"8a71bb2d","setRoyaltyPercentage(uint256)":"61ba27da","setTeamWallet(address)":"1525ff7d","teamWallet()":"59927044","traitBids(uint256)":"7dbc8619","traitOffers(uint256)":"4f6088cd","transferOwnership(address)":"f2fde38b","withdrawBidOnChonk(uint256)":"795aded3","withdrawBidOnTrait(uint256)":"cecea401","withdrawFunds()":"24600fc3","withdrawableFunds(address)":"2f30cabd"},"id":39}