{"abi":[{"type":"constructor","inputs":[{"name":"_petersMain","type":"address","internalType":"address"},{"name":"_peterTraits","type":"address","internalType":"address"},{"name":"_royaltyPercentage","type":"uint8","internalType":"uint8"},{"name":"_teamWallet","type":"address","internalType":"address"}],"stateMutability":"nonpayable"},{"type":"function","name":"PETERS_MAIN","inputs":[],"outputs":[{"name":"","type":"address","internalType":"contract PetersMain"}],"stateMutability":"view"},{"type":"function","name":"PETER_TRAITS","inputs":[],"outputs":[{"name":"","type":"address","internalType":"contract PeterTraits"}],"stateMutability":"view"},{"type":"function","name":"acceptBidForChonk","inputs":[{"name":"_chonkId","type":"uint256","internalType":"uint256"},{"name":"_bidder","type":"address","internalType":"address"}],"outputs":[],"stateMutability":"nonpayable"},{"type":"function","name":"acceptBidForTrait","inputs":[{"name":"_traitId","type":"uint256","internalType":"uint256"},{"name":"_bidder","type":"address","internalType":"address"}],"outputs":[],"stateMutability":"nonpayable"},{"type":"function","name":"bidOnChonk","inputs":[{"name":"_chonkId","type":"uint256","internalType":"uint256"}],"outputs":[],"stateMutability":"payable"},{"type":"function","name":"bidOnTrait","inputs":[{"name":"_traitId","type":"uint256","internalType":"uint256"},{"name":"_yourChonkId","type":"uint256","internalType":"uint256"}],"outputs":[],"stateMutability":"payable"},{"type":"function","name":"buyChonk","inputs":[{"name":"_chonkId","type":"uint256","internalType":"uint256"}],"outputs":[],"stateMutability":"payable"},{"type":"function","name":"buyTrait","inputs":[{"name":"_traitId","type":"uint256","internalType":"uint256"},{"name":"_forChonkId","type":"uint256","internalType":"uint256"}],"outputs":[],"stateMutability":"payable"},{"type":"function","name":"calculateRoyalty","inputs":[{"name":"_amount","type":"uint256","internalType":"uint256"}],"outputs":[{"name":"","type":"uint256","internalType":"uint256"}],"stateMutability":"view"},{"type":"function","name":"cancelOfferChonk","inputs":[{"name":"_chonkId","type":"uint256","internalType":"uint256"}],"outputs":[],"stateMutability":"nonpayable"},{"type":"function","name":"cancelOfferTrait","inputs":[{"name":"_traitId","type":"uint256","internalType":"uint256"},{"name":"_chonkId","type":"uint256","internalType":"uint256"}],"outputs":[],"stateMutability":"nonpayable"},{"type":"function","name":"cancelOwnershipHandover","inputs":[],"outputs":[],"stateMutability":"payable"},{"type":"function","name":"chonkBids","inputs":[{"name":"chonkId","type":"uint256","internalType":"uint256"}],"outputs":[{"name":"bidder","type":"address","internalType":"address"},{"name":"amountInWei","type":"uint256","internalType":"uint256"},{"name":"encodedTraitIds","type":"bytes","internalType":"bytes"}],"stateMutability":"view"},{"type":"function","name":"chonkIdToApprovedOperators","inputs":[{"name":"chonkId","type":"uint256","internalType":"uint256"},{"name":"","type":"uint256","internalType":"uint256"}],"outputs":[{"name":"operators","type":"address","internalType":"address"}],"stateMutability":"view"},{"type":"function","name":"chonkOffers","inputs":[{"name":"chonkId","type":"uint256","internalType":"uint256"}],"outputs":[{"name":"priceInWei","type":"uint256","internalType":"uint256"},{"name":"seller","type":"address","internalType":"address"},{"name":"sellerTBA","type":"address","internalType":"address"},{"name":"onlySellTo","type":"address","internalType":"address"},{"name":"encodedTraitIds","type":"bytes","internalType":"bytes"}],"stateMutability":"view"},{"type":"function","name":"completeOwnershipHandover","inputs":[{"name":"pendingOwner","type":"address","internalType":"address"}],"outputs":[],"stateMutability":"payable"},{"type":"function","name":"deleteChonkBidsBeforeTokenTransfer","inputs":[{"name":"_chonkId","type":"uint256","internalType":"uint256"},{"name":"_toEOA","type":"address","internalType":"address"}],"outputs":[],"stateMutability":"nonpayable"},{"type":"function","name":"deleteChonkOfferBeforeTokenTransfer","inputs":[{"name":"_chonkId","type":"uint256","internalType":"uint256"}],"outputs":[],"stateMutability":"nonpayable"},{"type":"function","name":"deleteTraitBidsBeforeTokenTransfer","inputs":[{"name":"_traitId","type":"uint256","internalType":"uint256"},{"name":"_toTBA","type":"address","internalType":"address"}],"outputs":[],"stateMutability":"nonpayable"},{"type":"function","name":"deleteTraitBidsBeforeTokenTransfer","inputs":[{"name":"_traitId","type":"uint256","internalType":"uint256"},{"name":"_toTBAs","type":"address[]","internalType":"address[]"}],"outputs":[],"stateMutability":"nonpayable"},{"type":"function","name":"deleteTraitOffersBeforeTokenTransfer","inputs":[{"name":"_traitId","type":"uint256","internalType":"uint256"}],"outputs":[],"stateMutability":"nonpayable"},{"type":"function","name":"ensureTraitOwner","inputs":[{"name":"_traitId","type":"uint256","internalType":"uint256"},{"name":"_chonkId","type":"uint256","internalType":"uint256"}],"outputs":[{"name":"","type":"bool","internalType":"bool"}],"stateMutability":"view"},{"type":"function","name":"getChonkBid","inputs":[{"name":"_chonkId","type":"uint256","internalType":"uint256"}],"outputs":[{"name":"bidder","type":"address","internalType":"address"},{"name":"amountInWei","type":"uint256","internalType":"uint256"},{"name":"traitIds","type":"uint256[]","internalType":"uint256[]"},{"name":"encodedTraitIds","type":"bytes","internalType":"bytes"}],"stateMutability":"view"},{"type":"function","name":"getChonkOffer","inputs":[{"name":"_chonkId","type":"uint256","internalType":"uint256"}],"outputs":[{"name":"priceInWei","type":"uint256","internalType":"uint256"},{"name":"seller","type":"address","internalType":"address"},{"name":"sellerTBA","type":"address","internalType":"address"},{"name":"onlySellTo","type":"address","internalType":"address"},{"name":"traitIds","type":"uint256[]","internalType":"uint256[]"},{"name":"encodedTraitIds","type":"bytes","internalType":"bytes"}],"stateMutability":"view"},{"type":"function","name":"getTraitBid","inputs":[{"name":"_traitId","type":"uint256","internalType":"uint256"}],"outputs":[{"name":"bidder","type":"address","internalType":"address"},{"name":"bidderTBA","type":"address","internalType":"address"},{"name":"amountInWei","type":"uint256","internalType":"uint256"}],"stateMutability":"view"},{"type":"function","name":"getTraitIdsAndEncodingForChonk","inputs":[{"name":"_chonkId","type":"uint256","internalType":"uint256"}],"outputs":[{"name":"","type":"uint256[]","internalType":"uint256[]"},{"name":"","type":"bytes","internalType":"bytes"}],"stateMutability":"view"},{"type":"function","name":"getTraitOffer","inputs":[{"name":"_traitId","type":"uint256","internalType":"uint256"}],"outputs":[{"name":"priceInWei","type":"uint256","internalType":"uint256"},{"name":"seller","type":"address","internalType":"address"},{"name":"sellerTBA","type":"address","internalType":"address"},{"name":"onlySellTo","type":"address","internalType":"address"}],"stateMutability":"view"},{"type":"function","name":"offerChonk","inputs":[{"name":"_chonkId","type":"uint256","internalType":"uint256"},{"name":"_priceInWei","type":"uint256","internalType":"uint256"}],"outputs":[],"stateMutability":"nonpayable"},{"type":"function","name":"offerChonkToAddress","inputs":[{"name":"_chonkId","type":"uint256","internalType":"uint256"},{"name":"_priceInWei","type":"uint256","internalType":"uint256"},{"name":"_onlySellTo","type":"address","internalType":"address"}],"outputs":[],"stateMutability":"nonpayable"},{"type":"function","name":"offerTrait","inputs":[{"name":"_traitId","type":"uint256","internalType":"uint256"},{"name":"_chonkId","type":"uint256","internalType":"uint256"},{"name":"_priceInWei","type":"uint256","internalType":"uint256"}],"outputs":[],"stateMutability":"nonpayable"},{"type":"function","name":"offerTraitToAddress","inputs":[{"name":"_traitId","type":"uint256","internalType":"uint256"},{"name":"_chonkId","type":"uint256","internalType":"uint256"},{"name":"_priceInWei","type":"uint256","internalType":"uint256"},{"name":"_onlySellTo","type":"address","internalType":"address"}],"outputs":[],"stateMutability":"nonpayable"},{"type":"function","name":"offerTraitToChonkId","inputs":[{"name":"_traitId","type":"uint256","internalType":"uint256"},{"name":"_chonkId","type":"uint256","internalType":"uint256"},{"name":"_priceInWei","type":"uint256","internalType":"uint256"},{"name":"_onlySellToChonkId","type":"uint256","internalType":"uint256"}],"outputs":[],"stateMutability":"nonpayable"},{"type":"function","name":"owner","inputs":[],"outputs":[{"name":"result","type":"address","internalType":"address"}],"stateMutability":"view"},{"type":"function","name":"ownershipHandoverExpiresAt","inputs":[{"name":"pendingOwner","type":"address","internalType":"address"}],"outputs":[{"name":"result","type":"uint256","internalType":"uint256"}],"stateMutability":"view"},{"type":"function","name":"pausabilityRevoked","inputs":[],"outputs":[{"name":"","type":"bool","internalType":"bool"}],"stateMutability":"view"},{"type":"function","name":"pause","inputs":[{"name":"_value","type":"bool","internalType":"bool"}],"outputs":[],"stateMutability":"nonpayable"},{"type":"function","name":"paused","inputs":[],"outputs":[{"name":"","type":"bool","internalType":"bool"}],"stateMutability":"view"},{"type":"function","name":"removeChonkOfferOnTraitTransfer","inputs":[{"name":"_chonkId","type":"uint256","internalType":"uint256"}],"outputs":[],"stateMutability":"nonpayable"},{"type":"function","name":"renounceOwnership","inputs":[],"outputs":[],"stateMutability":"payable"},{"type":"function","name":"requestOwnershipHandover","inputs":[],"outputs":[],"stateMutability":"payable"},{"type":"function","name":"revokePausability","inputs":[],"outputs":[],"stateMutability":"nonpayable"},{"type":"function","name":"royaltyPercentage","inputs":[],"outputs":[{"name":"","type":"uint256","internalType":"uint256"}],"stateMutability":"view"},{"type":"function","name":"setRoyaltyPercentage","inputs":[{"name":"_royaltyPercentage","type":"uint256","internalType":"uint256"}],"outputs":[],"stateMutability":"nonpayable"},{"type":"function","name":"setTeamWallet","inputs":[{"name":"_teamWallet","type":"address","internalType":"address"}],"outputs":[],"stateMutability":"nonpayable"},{"type":"function","name":"teamWallet","inputs":[],"outputs":[{"name":"","type":"address","internalType":"address"}],"stateMutability":"view"},{"type":"function","name":"traitBids","inputs":[{"name":"traitId","type":"uint256","internalType":"uint256"}],"outputs":[{"name":"bidder","type":"address","internalType":"address"},{"name":"bidderTBA","type":"address","internalType":"address"},{"name":"amountInWei","type":"uint256","internalType":"uint256"}],"stateMutability":"view"},{"type":"function","name":"traitOffers","inputs":[{"name":"traitId","type":"uint256","internalType":"uint256"}],"outputs":[{"name":"priceInWei","type":"uint256","internalType":"uint256"},{"name":"seller","type":"address","internalType":"address"},{"name":"sellerTBA","type":"address","internalType":"address"},{"name":"onlySellTo","type":"address","internalType":"address"}],"stateMutability":"view"},{"type":"function","name":"transferOwnership","inputs":[{"name":"newOwner","type":"address","internalType":"address"}],"outputs":[],"stateMutability":"payable"},{"type":"function","name":"withdrawBidOnChonk","inputs":[{"name":"_chonkId","type":"uint256","internalType":"uint256"}],"outputs":[],"stateMutability":"nonpayable"},{"type":"function","name":"withdrawBidOnTrait","inputs":[{"name":"_traitId","type":"uint256","internalType":"uint256"}],"outputs":[],"stateMutability":"nonpayable"},{"type":"function","name":"withdrawFunds","inputs":[],"outputs":[],"stateMutability":"nonpayable"},{"type":"function","name":"withdrawableFunds","inputs":[{"name":"eoa","type":"address","internalType":"address"}],"outputs":[{"name":"balance","type":"uint256","internalType":"uint256"}],"stateMutability":"view"},{"type":"event","name":"ChonkBidAccepted","inputs":[{"name":"chonkId","type":"uint256","indexed":true,"internalType":"uint256"},{"name":"amountInWei","type":"uint256","indexed":true,"internalType":"uint256"},{"name":"buyer","type":"address","indexed":true,"internalType":"address"},{"name":"seller","type":"address","indexed":false,"internalType":"address"}],"anonymous":false},{"type":"event","name":"ChonkBidEntered","inputs":[{"name":"chonkId","type":"uint256","indexed":true,"internalType":"uint256"},{"name":"bidder","type":"address","indexed":true,"internalType":"address"},{"name":"amountInWei","type":"uint256","indexed":true,"internalType":"uint256"}],"anonymous":false},{"type":"event","name":"ChonkBidWithdrawn","inputs":[{"name":"chonkId","type":"uint256","indexed":true,"internalType":"uint256"},{"name":"bidder","type":"address","indexed":true,"internalType":"address"},{"name":"amountInWei","type":"uint256","indexed":true,"internalType":"uint256"}],"anonymous":false},{"type":"event","name":"ChonkBought","inputs":[{"name":"chonkId","type":"uint256","indexed":true,"internalType":"uint256"},{"name":"buyer","type":"address","indexed":true,"internalType":"address"},{"name":"amountInWei","type":"uint256","indexed":true,"internalType":"uint256"},{"name":"seller","type":"address","indexed":false,"internalType":"address"}],"anonymous":false},{"type":"event","name":"ChonkOfferCanceled","inputs":[{"name":"chonkId","type":"uint256","indexed":true,"internalType":"uint256"},{"name":"seller","type":"address","indexed":true,"internalType":"address"}],"anonymous":false},{"type":"event","name":"ChonkOffered","inputs":[{"name":"chonkId","type":"uint256","indexed":true,"internalType":"uint256"},{"name":"price","type":"uint256","indexed":true,"internalType":"uint256"},{"name":"seller","type":"address","indexed":true,"internalType":"address"},{"name":"sellerTBA","type":"address","indexed":false,"internalType":"address"}],"anonymous":false},{"type":"event","name":"ChonkOfferedToAddress","inputs":[{"name":"chonkId","type":"uint256","indexed":true,"internalType":"uint256"},{"name":"price","type":"uint256","indexed":true,"internalType":"uint256"},{"name":"seller","type":"address","indexed":true,"internalType":"address"},{"name":"sellerTBA","type":"address","indexed":false,"internalType":"address"},{"name":"onlySellTo","type":"address","indexed":false,"internalType":"address"}],"anonymous":false},{"type":"event","name":"OwnershipHandoverCanceled","inputs":[{"name":"pendingOwner","type":"address","indexed":true,"internalType":"address"}],"anonymous":false},{"type":"event","name":"OwnershipHandoverRequested","inputs":[{"name":"pendingOwner","type":"address","indexed":true,"internalType":"address"}],"anonymous":false},{"type":"event","name":"OwnershipTransferred","inputs":[{"name":"oldOwner","type":"address","indexed":true,"internalType":"address"},{"name":"newOwner","type":"address","indexed":true,"internalType":"address"}],"anonymous":false},{"type":"event","name":"TraitBidAccepted","inputs":[{"name":"traitId","type":"uint256","indexed":true,"internalType":"uint256"},{"name":"amountInWei","type":"uint256","indexed":true,"internalType":"uint256"},{"name":"buyer","type":"address","indexed":true,"internalType":"address"},{"name":"seller","type":"address","indexed":false,"internalType":"address"}],"anonymous":false},{"type":"event","name":"TraitBidEntered","inputs":[{"name":"traitId","type":"uint256","indexed":true,"internalType":"uint256"},{"name":"bidder","type":"address","indexed":true,"internalType":"address"},{"name":"amountInWei","type":"uint256","indexed":true,"internalType":"uint256"}],"anonymous":false},{"type":"event","name":"TraitBidWithdrawn","inputs":[{"name":"traitId","type":"uint256","indexed":true,"internalType":"uint256"},{"name":"bidder","type":"address","indexed":true,"internalType":"address"},{"name":"amountInWei","type":"uint256","indexed":true,"internalType":"uint256"}],"anonymous":false},{"type":"event","name":"TraitBought","inputs":[{"name":"traitId","type":"uint256","indexed":true,"internalType":"uint256"},{"name":"buyerTBA","type":"address","indexed":true,"internalType":"address"},{"name":"amountInWei","type":"uint256","indexed":true,"internalType":"uint256"},{"name":"buyer","type":"address","indexed":false,"internalType":"address"},{"name":"seller","type":"address","indexed":false,"internalType":"address"}],"anonymous":false},{"type":"event","name":"TraitOfferCanceled","inputs":[{"name":"traitId","type":"uint256","indexed":true,"internalType":"uint256"},{"name":"seller","type":"address","indexed":true,"internalType":"address"}],"anonymous":false},{"type":"event","name":"TraitOffered","inputs":[{"name":"traitId","type":"uint256","indexed":true,"internalType":"uint256"},{"name":"price","type":"uint256","indexed":true,"internalType":"uint256"},{"name":"seller","type":"address","indexed":true,"internalType":"address"},{"name":"sellerTBA","type":"address","indexed":false,"internalType":"address"}],"anonymous":false},{"type":"event","name":"TraitOfferedToAddress","inputs":[{"name":"traitId","type":"uint256","indexed":true,"internalType":"uint256"},{"name":"price","type":"uint256","indexed":true,"internalType":"uint256"},{"name":"seller","type":"address","indexed":true,"internalType":"address"},{"name":"sellerTBA","type":"address","indexed":false,"internalType":"address"},{"name":"onlySellTo","type":"address","indexed":false,"internalType":"address"}],"anonymous":false},{"type":"error","name":"AlreadyInitialized","inputs":[]},{"type":"error","name":"ApproveTheMarketplace","inputs":[]},{"type":"error","name":"BidIsTooLow","inputs":[]},{"type":"error","name":"BidderChanged","inputs":[]},{"type":"error","name":"CMUnauthorized","inputs":[]},{"type":"error","name":"CantAcceptYourOwnBid","inputs":[]},{"type":"error","name":"CantBeZero","inputs":[]},{"type":"error","name":"CantBidOnYourOwnChonk","inputs":[]},{"type":"error","name":"CantBidOnYourOwnTrait","inputs":[]},{"type":"error","name":"CantBuyYourOwnChonk","inputs":[]},{"type":"error","name":"CantBuyYourOwnTrait","inputs":[]},{"type":"error","name":"NewOwnerIsZeroAddress","inputs":[]},{"type":"error","name":"NoBidToAccept","inputs":[]},{"type":"error","name":"NoHandoverRequest","inputs":[]},{"type":"error","name":"NoOfferToCancel","inputs":[]},{"type":"error","name":"NotYourBid","inputs":[]},{"type":"error","name":"NotYourChonk","inputs":[]},{"type":"error","name":"NotYourOffer","inputs":[]},{"type":"error","name":"NotYourTrait","inputs":[]},{"type":"error","name":"OfferDoesNotExist","inputs":[]},{"type":"error","name":"OnlyTraitContract","inputs":[]},{"type":"error","name":"PausabilityRevoked","inputs":[]},{"type":"error","name":"Paused","inputs":[]},{"type":"error","name":"TBANeedsToApproveMarketplace","inputs":[]},{"type":"error","name":"TraitEquipped","inputs":[]},{"type":"error","name":"TraitIdsChangedSinceBid","inputs":[]},{"type":"error","name":"TraitIdsChangedSinceListingRelist","inputs":[]},{"type":"error","name":"Unauthorized","inputs":[]},{"type":"error","name":"WithdrawFailed","inputs":[]},{"type":"error","name":"WrongAmount","inputs":[]},{"type":"error","name":"YouCantBuyThatChonk","inputs":[]},{"type":"error","name":"YouCantBuyThatTrait","inputs":[]}],"bytecode":{"object":"0x60c06040523480156200001157600080fd5b5060405162005ed338038062005ed383398101604081905262000034916200016c565b6001600081905550620000616040518060600160405280602c815260200162005ea7602c913933620000a1565b6200006c33620000f2565b6001600160a01b0393841660805291831660a05260ff16600155600280546001600160a01b0319169190921617905562000232565b620000ee8282604051602401620000ba929190620001d0565b60408051601f198184030181529190526020810180516001600160e01b0390811663319af33360e01b179091526200012e16565b5050565b6001600160a01b0316638b78c6d8198190558060007f8be0079c531659141344cd1fd0a4f28419497f9722a3daafe3b4186f6b6457e08180a350565b80516a636f6e736f6c652e6c6f67602083016000808483855afa5050505050565b80516001600160a01b03811681146200016757600080fd5b919050565b600080600080608085870312156200018357600080fd5b6200018e856200014f565b93506200019e602086016200014f565b9250604085015160ff81168114620001b557600080fd5b9150620001c5606086016200014f565b905092959194509250565b604081526000835180604084015260005b81811015620002005760208187018101516060868401015201620001e1565b50600060608285018101919091526001600160a01b03949094166020840152601f01601f191690910190910192915050565b60805160a051615b296200037e6000396000818161080f01528181610c5f01528181611197015281816111fa015281816112f6015281816116d70152818161256601528181612c0701528181612d0d01528181612da00152818161307d015281816135f001528181613b3301526148cc01526000818161093001528181610bb501528181610cf501528181611138015281816111c6015281816115ac015281816117ca0152818161187c0152818161198a01528181611ca901528181611d6c01528181611fce015281816122ac015281816125d8015281816129d901528181612b7001528181612f150152818161329e015281816135460152818161368601528181613714015281816139c301528181613c5b01528181613f3c015281816142ac0152818161433f015281816146ce01528181614822015281816149620152614b730152615b296000f3fe6080604052600436106102ff5760003560e01c8063710b271911610190578063b1f3694e116100dc578063ed89f70411610095578063f2fde38b1161006f578063f2fde38b14610a4d578063f495f5a814610a60578063f827d63214610a80578063fee81cf414610aa057600080fd5b8063ed89f704146109a5578063f04e283e146109c5578063f0988214146109d857600080fd5b8063b1f3694e146108dd578063b5baf476146108fe578063c51ac41b1461091e578063cca5975914610952578063cecea40114610972578063ebd34a881461099257600080fd5b80638b78b13b116101495780639f24c945116101235780639f24c9451461085d578063a2e696131461087d578063a4cc83241461089d578063af9ca0f2146108bd57600080fd5b80638b78b13b146107fd5780638da5cb5b14610831578063917e3a7c1461084a57600080fd5b8063710b271914610725578063715018a614610745578063795aded31461074d5780637dbc86191461076d5780638a71bb2d146107b65780638b322383146107cc57600080fd5b806346c627fe1161024f578063571ccb74116102085780635c975abb116101e25780635c975abb1461068557806361ba27da146106b6578063644ec527146106d657806365318c86146106f657600080fd5b8063571ccb741461063f5780635793b22e14610652578063599270441461066557600080fd5b806346c627fe14610511578063472729bb146105315780634f6088cd1461055f5780634fc9923e146105df57806354d1f13d146105ff57806355737f351461060757600080fd5b80632e1d274f116102bc578063361f1c5211610296578063361f1c521461043757806336442e301461044c5780633ce0c3721461047e5780634666a416146104f157600080fd5b80632e1d274f146103bc5780632f30cabd146103dc5780632fbe78f01461041757600080fd5b806302329a29146103045780630b114256146103265780630cbd0922146103465780631525ff7d1461037f57806324600fc31461039f57806325692962146103b4575b600080fd5b34801561031057600080fd5b5061032461031f3660046151ff565b610ad3565b005b34801561033257600080fd5b50610324610341366004615223565b610b24565b34801561035257600080fd5b5061036661036136600461524f565b610e3a565b60405161037694939291906152ea565b60405180910390f35b34801561038b57600080fd5b5061032461039a366004615343565b610f7f565b3480156103ab57600080fd5b50610324610fa9565b61032461105f565b3480156103c857600080fd5b506103246103d736600461524f565b6110af565b3480156103e857600080fd5b506104096103f7366004615343565b60076020526000908152604090205481565b604051908152602001610376565b34801561042357600080fd5b50610324610432366004615360565b6112eb565b34801561044357600080fd5b506103246113e2565b34801561045857600080fd5b5061046c61046736600461524f565b61142a565b60405161037696959493929190615390565b34801561048a57600080fd5b506104e261049936600461524f565b600081815260066020908152604091829020825160608101845281546001600160a01b039081168083526001840154909116938201849052600290920154930183905293909250565b604051610376939291906153e9565b3480156104fd57600080fd5b5061032461050c366004615478565b6115a1565b34801561051d57600080fd5b5061032461052c36600461524f565b6116cc565b34801561053d57600080fd5b5061055161054c36600461524f565b6117c3565b604051610376929190615523565b34801561056b57600080fd5b506105b061057a36600461524f565b600460205260009081526040902080546001820154600283015460039093015491926001600160a01b0391821692908216911684565b604080519485526001600160a01b03938416602086015291831691840191909152166060820152608001610376565b3480156105eb57600080fd5b506103246105fa366004615551565b61191b565b610324611ba8565b34801561061357600080fd5b5061062761062236600461558a565b611be4565b6040516001600160a01b039091168152602001610376565b61032461064d36600461558a565b611c1c565b61032461066036600461524f565b611f42565b34801561067157600080fd5b50600254610627906001600160a01b031681565b34801561069157600080fd5b506002546106a690600160a01b900460ff1681565b6040519015158152602001610376565b3480156106c257600080fd5b506103246106d136600461524f565b612294565b3480156106e257600080fd5b506103246106f136600461524f565b6122a1565b34801561070257600080fd5b5061071661071136600461524f565b61248e565b604051610376939291906155ac565b34801561073157600080fd5b506106a661074036600461558a565b612543565b61032461269d565b34801561075957600080fd5b5061032461076836600461524f565b6126b1565b34801561077957600080fd5b506104e261078836600461524f565b6006602052600090815260409020805460018201546002909201546001600160a01b03918216929091169083565b3480156107c257600080fd5b5061040960015481565b3480156107d857600080fd5b506107ec6107e736600461524f565b6128a5565b6040516103769594939291906155d3565b34801561080957600080fd5b506106277f000000000000000000000000000000000000000000000000000000000000000081565b34801561083d57600080fd5b50638b78c6d81954610627565b61032461085836600461558a565b61296f565b34801561086957600080fd5b5061032461087836600461524f565b61314d565b34801561088957600080fd5b5061040961089836600461524f565b613212565b3480156108a957600080fd5b506103246108b836600461558a565b61322f565b3480156108c957600080fd5b506103246108d836600461560d565b6134b5565b3480156108e957600080fd5b506002546106a690600160a81b900460ff1681565b34801561090a57600080fd5b50610324610919366004615360565b6138ae565b34801561092a57600080fd5b506106277f000000000000000000000000000000000000000000000000000000000000000081565b34801561095e57600080fd5b5061032461096d366004615360565b613bf1565b34801561097e57600080fd5b5061032461098d36600461524f565b613ffa565b6103246109a036600461524f565b6140fd565b3480156109b157600080fd5b506103246109c036600461563f565b614791565b6103246109d3366004615343565b614b04565b3480156109e457600080fd5b506105b06109f336600461524f565b6000908152600460209081526040918290208251608081018452815480825260018301546001600160a01b039081169483018590526002840154811695830186905260039093015490921660609091018190529093919291565b610324610a5b366004615343565b614b41565b348015610a6c57600080fd5b50610324610a7b366004615360565b614b68565b348015610a8c57600080fd5b50610324610a9b36600461558a565b614d37565b348015610aac57600080fd5b50610409610abb366004615343565b63389a75e1600c908152600091909152602090205490565b610adb614e2b565b600254600160a81b900460ff1615610b065760405163d9ef8fb560e01b815260040160405180910390fd5b60028054911515600160a01b0260ff60a01b19909216919091179055565b600254600160a01b900460ff1615610b4f576040516313d0ff5960e31b815260040160405180910390fd5b8080600003610b715760405163e7195f5160e01b815260040160405180910390fd5b610b7b8484612543565b610b9857604051633e79b9f360e01b815260040160405180910390fd5b6040516311543c9960e31b815260048101849052602481018590527f00000000000000000000000000000000000000000000000000000000000000006001600160a01b031690638aa1e4c890604401602060405180830381865afa158015610c04573d6000803e3d6000fd5b505050506040513d601f19601f82011682018060405250810190610c289190615680565b15610c465760405163b14aa60560e01b815260040160405180910390fd5b6040516331a9108f60e11b8152600481018590526000907f00000000000000000000000000000000000000000000000000000000000000006001600160a01b031690636352211e90602401602060405180830381865afa158015610cae573d6000803e3d6000fd5b505050506040513d601f19601f82011682018060405250810190610cd2919061569d565b604051624003bd60e41b8152600481018690529091506000906001600160a01b037f000000000000000000000000000000000000000000000000000000000000000016906304003bd0906024016040805180830381865afa158015610d3b573d6000803e3d6000fd5b505050506040513d601f19601f82011682018060405250810190610d5f91906156ba565b50604080516080810182528681526001600160a01b0380841660208084018281528884168587019081526000606087018181528f825260049094528790209551865590516001860180549186166001600160a01b03199283161790559051600286018054918616918316919091179055905160039094018054949093169316929092179055905191925090859088907fd81820ebfdde47351b4ac56296bba70e8f57f24195955168a1b5bf6b653e3d3a90610e2a9087906001600160a01b0391909116815260200190565b60405180910390a4505050505050565b6000818152600560209081526040808320815160808101835281546001600160a01b0316815260018201548185015260028201805484518187028101870186528181528796606096879689969590949186019392909190830182828015610ec057602002820191906000526020600020905b815481526020019060010190808311610eac575b50505050508152602001600382018054610ed9906156e9565b80601f0160208091040260200160405190810160405280929190818152602001828054610f05906156e9565b8015610f525780601f10610f2757610100808354040283529160200191610f52565b820191906000526020600020905b815481529060010190602001808311610f3557829003601f168201915b505050919092525050815160208301516040840151606090940151919a9099509297509550909350505050565b610f87614e2b565b600280546001600160a01b0319166001600160a01b0392909216919091179055565b600260005403610fd45760405162461bcd60e51b8152600401610fcb90615723565b60405180910390fd5b60026000908155338082526007602052604080832080549084905590519092919083908381818185875af1925050503d806000811461102f576040519150601f19603f3d011682016040523d82523d6000602084013e611034565b606091505b505090508061105657604051631d42c86760e21b815260040160405180910390fd5b50506001600055565b60006202a30067ffffffffffffffff164201905063389a75e1600c5233600052806020600c2055337fdbf36a107da19e49527a7176a1babf963b4b0ff8cde35ee35d6cd8f1f9ac7e1d600080a250565b6110d1604051806080016040528060468152602001615aae6046913982614e46565b61110460405180604001604052806011815260200170169036b2b9b9b0b3b29039b2b73232b91d60791b81525033614e8b565b61115c604051806040016040528060168152602001752d2061646472657373285045544552535f4d41494e2960501b8152507f0000000000000000000000000000000000000000000000000000000000000000614e8b565b6111bb6040518060400160405280601781526020017f2d20616464726573732850455445525f545241495453290000000000000000008152507f0000000000000000000000000000000000000000000000000000000000000000614e8b565b336001600160a01b037f0000000000000000000000000000000000000000000000000000000000000000161480159061121d5750336001600160a01b037f00000000000000000000000000000000000000000000000000000000000000001614155b1561126a576112516040518060400160405280600e81526020016d10d3555b985d5d1a1bdc9a5e995960921b815250614ed0565b60405163125e77d360e01b815260040160405180910390fd5b6000818152600460205260409020600101546001600160a01b0316156112c75760008181526004602052604081209081556001810180546001600160a01b0319908116909155600282018054821690556003909101805490911690555b6112e8604051806060016040528060358152602001615a3860359139614ed0565b50565b336001600160a01b037f000000000000000000000000000000000000000000000000000000000000000016146113345760405163125e77d360e01b815260040160405180910390fd5b600082815260066020908152604091829020825160608101845281546001600160a01b0390811680835260018401549091169382019390935260029091015492810192909252156113dd57816001600160a01b031681602001516001600160a01b0316036113dd5760008381526006602052604080822080546001600160a01b031990811682556001820180549091169055600201919091558151908201516113dd9190614f13565b505050565b6113ea614e2b565b600254600160a81b900460ff16156114155760405163d9ef8fb560e01b815260040160405180910390fd5b6002805460ff60a81b1916600160a81b179055565b6000818152600360208181526040808420815160c0810183528154815260018201546001600160a01b0390811682860152600283015481168285015294820154909416606085810191909152600482018054845181870281018701909552808552879687968796949586958895939491936080860193919290918301828280156114d357602002820191906000526020600020905b8154815260200190600101908083116114bf575b505050505081526020016005820180546114ec906156e9565b80601f0160208091040260200160405190810160405280929190818152602001828054611518906156e9565b80156115655780601f1061153a57610100808354040283529160200191611565565b820191906000526020600020905b81548152906001019060200180831161154857829003601f168201915b5050509190925250508151602083015160408401516060850151608086015160a090960151939e929d50909b5099509297509550909350505050565b336001600160a01b037f000000000000000000000000000000000000000000000000000000000000000016146115ea5760405163125e77d360e01b815260040160405180910390fd5b600082815260066020908152604091829020825160608101845281546001600160a01b0390811680835260018401549091169382019390935260029091015492810192909252156113dd5760005b82518110156116c65760008382815181106116555761165561575a565b60200260200101519050806001600160a01b031683602001516001600160a01b0316036116bd5760008581526006602052604080822080546001600160a01b031990811682556001820180549091169055600201919091558351908401516116bd9190614f13565b50600101611638565b50505050565b336001600160a01b037f000000000000000000000000000000000000000000000000000000000000000016146117155760405163e007692f60e01b815260040160405180910390fd5b611737604051806080016040528060418152602001615a6d6041913982614e46565b61176a60405180604001604052806011815260200170169036b2b9b9b0b3b29039b2b73232b91d60791b81525033614e8b565b600081815260036020819052604082208281556001810180546001600160a01b0319908116909155600282018054821690559181018054909216909155906117b56004830182615139565b6113dd600583016000615157565b60608060007f00000000000000000000000000000000000000000000000000000000000000006001600160a01b03166304003bd0856040518263ffffffff1660e01b815260040161181691815260200190565b6040805180830381865afa158015611832573d6000803e3d6000fd5b505050506040513d601f19601f8201168201806040525081019061185691906156ba565b604051634cc67db760e11b81526001600160a01b038281166004830152919350600092507f00000000000000000000000000000000000000000000000000000000000000009091169063998cfb6e90602401600060405180830381865afa1580156118c5573d6000803e3d6000fd5b505050506040513d6000823e601f3d908101601f191682016040526118ed9190810190615770565b9050808160405160200161190191906157f6565b604051602081830303815290604052935093505050915091565b600254600160a01b900460ff1615611946576040516313d0ff5960e31b815260040160405180910390fd5b81806000036119685760405163e7195f5160e01b815260040160405180910390fd5b604051624003bd60e41b81526004810185905260009081906001600160a01b037f000000000000000000000000000000000000000000000000000000000000000016906304003bd0906024016040805180830381865afa1580156119d0573d6000803e3d6000fd5b505050506040513d601f19601f820116820180604052508101906119f491906156ba565b9092509050336001600160a01b03831614611a2257604051633faa6c4560e01b815260040160405180910390fd5b600080611a2e886117c3565b915091506040518060c00160405280888152602001856001600160a01b03168152602001846001600160a01b03168152602001876001600160a01b0316815260200183815260200182815250600360008a81526020019081526020016000206000820151816000015560208201518160010160006101000a8154816001600160a01b0302191690836001600160a01b0316021790555060408201518160020160006101000a8154816001600160a01b0302191690836001600160a01b0316021790555060608201518160030160006101000a8154816001600160a01b0302191690836001600160a01b031602179055506080820151816004019080519060200190611b3a929190615191565b5060a08201516005820190611b4f9082615859565b5050604080516001600160a01b03868116825289811660208301528716925089918b917f4b2696c0b570fe60ace24fc90fe3446d3328d0c3aaeed71e743603aaba978e7891015b60405180910390a45050505050505050565b63389a75e1600c523360005260006020600c2055337ffa7b8eab7da67f412cc9575ed43464468f9bfbae89d1675917346ca6d8fe3c92600080a2565b60086020528160005260406000208181548110611c0057600080fd5b6000918252602090912001546001600160a01b03169150829050565b3480600003611c3e5760405163e7195f5160e01b815260040160405180910390fd5b600254600160a01b900460ff1615611c69576040516313d0ff5960e31b815260040160405180910390fd5b600260005403611c8b5760405162461bcd60e51b8152600401610fcb90615723565b60026000908155604051624003bd60e41b81526004810184905281907f00000000000000000000000000000000000000000000000000000000000000006001600160a01b0316906304003bd0906024016040805180830381865afa158015611cf7573d6000803e3d6000fd5b505050506040513d601f19601f82011682018060405250810190611d1b91906156ba565b90925090506001600160a01b0382163314611d4957604051633faa6c4560e01b815260040160405180910390fd5b604051636670434960e01b81526004810186905260009081906001600160a01b037f00000000000000000000000000000000000000000000000000000000000000001690636670434990602401608060405180830381865afa158015611db3573d6000803e3d6000fd5b505050506040513d601f19601f82011682018060405250810190611dd79190615919565b509250509150336001600160a01b0316816001600160a01b03161480611e0557506001600160a01b03821633145b15611e23576040516303d54cb760e11b815260040160405180910390fd5b600087815260066020908152604091829020825160608101845281546001600160a01b0390811682526001830154169281019290925260020154918101829052903411611e83576040516386bed4cd60e01b815260040160405180910390fd5b604080516060810182523381526001600160a01b0386811660208084019182523484860190815260008e8152600690925290859020935184549084166001600160a01b03199182161785559151600185018054919094169216919091179091555160029091015581015115611f0457611f0481600001518260400151614f13565b604051349033908a907f10962e2373847454af3c025d9b77161f5244f4e2a69e3e9ddf4954b2622a868990600090a450506001600055505050505050565b3480600003611f645760405163e7195f5160e01b815260040160405180910390fd5b600254600160a01b900460ff1615611f8f576040516313d0ff5960e31b815260040160405180910390fd5b600260005403611fb15760405162461bcd60e51b8152600401610fcb90615723565b600260009081556040516331a9108f60e11b8152600481018490527f00000000000000000000000000000000000000000000000000000000000000006001600160a01b031690636352211e90602401602060405180830381865afa15801561201d573d6000803e3d6000fd5b505050506040513d601f19601f82011682018060405250810190612041919061569d565b9050336001600160a01b0382160361206c5760405163d2e7167f60e01b815260040160405180910390fd5b6000838152600560209081526040808320815160808101835281546001600160a01b031681526001820154818501526002820180548451818702810187018652818152929593948601938301828280156120e557602002820191906000526020600020905b8154815260200190600101908083116120d1575b505050505081526020016003820180546120fe906156e9565b80601f016020809104026020016040519081016040528092919081815260200182805461212a906156e9565b80156121775780601f1061214c57610100808354040283529160200191612177565b820191906000526020600020905b81548152906001019060200180831161215a57829003601f168201915b5050505050815250509050806020015134116121a6576040516386bed4cd60e01b815260040160405180910390fd5b6000806121b2866117c3565b604080516080810182523381523460208083019182528284018681526060840186905260008d81526005835294909420835181546001600160a01b0319166001600160a01b03909116178155915160018301559251805195975093955090939092612224926002850192910190615191565b50606082015160038201906122399082615859565b5050506020830151156122585761225883600001518460200151614f13565b6040513490339088907f5bcbf8d6be0293e172be2f32bd63e586fd65b0d15d70c845d393d73f2cfcff1790600090a45050600160005550505050565b61229c614e2b565b600155565b336001600160a01b037f000000000000000000000000000000000000000000000000000000000000000016146122ea5760405163125e77d360e01b815260040160405180910390fd5b6000818152600360208181526040808420815160c0810183528154815260018201546001600160a01b0390811682860152600283015481168285015294820154909416606085015260048101805483518186028101860190945280845291936080860193929083018282801561237f57602002820191906000526020600020905b81548152602001906001019080831161236b575b50505050508152602001600582018054612398906156e9565b80601f01602080910402602001604051908101604052809291908181526020018280546123c4906156e9565b80156124115780601f106123e657610100808354040283529160200191612411565b820191906000526020600020905b8154815290600101906020018083116123f457829003601f168201915b5050509190925250505060208101519091506001600160a01b03161561248a57600082815260036020819052604082208281556001810180546001600160a01b03199081169091556002820180548216905591810180549092169091559061247c6004830182615139565b6116c6600583016000615157565b5050565b6005602052600090815260409020805460018201546003830180546001600160a01b039093169391926124c0906156e9565b80601f01602080910402602001604051908101604052809291908181526020018280546124ec906156e9565b80156125395780601f1061250e57610100808354040283529160200191612539565b820191906000526020600020905b81548152906001019060200180831161251c57829003601f168201915b5050505050905083565b6040516331a9108f60e11b81526004810183905260009081906001600160a01b037f00000000000000000000000000000000000000000000000000000000000000001690636352211e90602401602060405180830381865afa1580156125ad573d6000803e3d6000fd5b505050506040513d601f19601f820116820180604052508101906125d1919061569d565b90506000807f00000000000000000000000000000000000000000000000000000000000000006001600160a01b03166304003bd0866040518263ffffffff1660e01b815260040161262491815260200190565b6040805180830381865afa158015612640573d6000803e3d6000fd5b505050506040513d601f19601f8201168201806040525081019061266491906156ba565b91509150806001600160a01b0316836001600160a01b031614801561269157506001600160a01b03821633145b93505050505b92915050565b6126a5614e2b565b6126af6000614fa0565b565b6002600054036126d35760405162461bcd60e51b8152600401610fcb90615723565b60026000818155828152600560209081526040808320815160808101835281546001600160a01b031681526001820154818501529481018054835181860281018601855281815295969592949386019383018282801561275257602002820191906000526020600020905b81548152602001906001019080831161273e575b5050505050815260200160038201805461276b906156e9565b80601f0160208091040260200160405190810160405280929190818152602001828054612797906156e9565b80156127e45780601f106127b9576101008083540402835291602001916127e4565b820191906000526020600020905b8154815290600101906020018083116127c757829003601f168201915b5050509190925250508151919250506001600160a01b0316331461281b5760405163173f0e6f60e21b815260040160405180910390fd5b600082815260056020526040812080546001600160a01b0319168155600181018290559061284c6002830182615139565b61285a600383016000615157565b505061286a338260200151614f13565b6020810151604051339084907f42aa62a335199e81c12706e51f762071115ee5df409428ef670b00ee8b7a3d2690600090a450506001600055565b60036020819052600091825260409091208054600182015460028301549383015460058401805493956001600160a01b03938416959084169493909216926128ec906156e9565b80601f0160208091040260200160405190810160405280929190818152602001828054612918906156e9565b80156129655780601f1061293a57610100808354040283529160200191612965565b820191906000526020600020905b81548152906001019060200180831161294857829003601f168201915b5050505050905085565b600254600160a01b900460ff161561299a576040516313d0ff5960e31b815260040160405180910390fd5b6002600054036129bc5760405162461bcd60e51b8152600401610fcb90615723565b600260009081556040516331a9108f60e11b8152600481018390527f00000000000000000000000000000000000000000000000000000000000000006001600160a01b031690636352211e90602401602060405180830381865afa158015612a28573d6000803e3d6000fd5b505050506040513d601f19601f82011682018060405250810190612a4c919061569d565b9050612a8260405180604001604052806012815260200171189d5e551c985a5d0e8817dd1c985a5d125960721b81525084614e46565b612ab960405180604001604052806015815260200174189d5e551c985a5d0e8817d99bdc90da1bdb9ad259605a1b81525083614e46565b612af86040518060400160405280601881526020017f62757954726169743a206f776e6572206f662043686f6e6b000000000000000081525082614e8b565b612b2e60405180604001604052806014815260200173313abcaa3930b4ba1d1036b9b39739b2b73232b960611b81525033614e8b565b6001600160a01b0381163314612b5757604051633faa6c4560e01b815260040160405180910390fd5b604051639c05d68d60e01b8152600481018390526000907f00000000000000000000000000000000000000000000000000000000000000006001600160a01b031690639c05d68d90602401602060405180830381865afa158015612bbf573d6000803e3d6000fd5b505050506040513d601f19601f82011682018060405250810190612be3919061569d565b6040516331a9108f60e11b8152600481018690529091506000906001600160a01b037f00000000000000000000000000000000000000000000000000000000000000001690636352211e90602401602060405180830381865afa158015612c4e573d6000803e3d6000fd5b505050506040513d601f19601f82011682018060405250810190612c72919061569d565b9050816001600160a01b0316816001600160a01b031603612ca657604051633617ec7f60e21b815260040160405180910390fd5b60008581526004602081815260409283902083516080810185528154815260018201546001600160a01b03908116938201939093526002820154831681860181905260039092015483166060820152935163e985e9c560e01b8152928301523060248301527f0000000000000000000000000000000000000000000000000000000000000000169063e985e9c590604401602060405180830381865afa158015612d54573d6000803e3d6000fd5b505050506040513d601f19601f82011682018060405250810190612d789190615680565b158015612e17575060405163020604bf60e21b81526004810187905230906001600160a01b037f0000000000000000000000000000000000000000000000000000000000000000169063081812fc90602401602060405180830381865afa158015612de7573d6000803e3d6000fd5b505050506040513d601f19601f82011682018060405250810190612e0b919061569d565b6001600160a01b031614155b15612e3557604051631c4f6a7160e11b815260040160405180910390fd5b60208101516001600160a01b038116612e61576040516374dbff7960e01b815260040160405180910390fd5b336001600160a01b03821603612e8a57604051633617ec7f60e21b815260040160405180910390fd5b60608201516001600160a01b031615801590612eb3575060608201516001600160a01b03163314155b15612ed15760405163a969b35f60e01b815260040160405180910390fd5b81513414612ef2576040516349986e7360e01b815260040160405180910390fd5b604051636670434960e01b81526004810188905260009081906001600160a01b037f00000000000000000000000000000000000000000000000000000000000000001690636670434990602401608060405180830381865afa158015612f5c573d6000803e3d6000fd5b505050506040513d601f19601f82011682018060405250810190612f809190615919565b9350509250508015612fa55760405163b14aa60560e01b815260040160405180910390fd5b6000898152600460209081526040808320838155600180820180546001600160a01b031990811690915560028084018054831690556003909301805490911690556006845293829020825160608101845281546001600160a01b03908116808352968301541694810194909452015490820152903390036130615760008a81526006602052604080822080546001600160a01b031990811682556001820180549091169055600201919091558151908201516130619190614f13565b60408086015190516323b872dd60e01b81526001600160a01b037f000000000000000000000000000000000000000000000000000000000000000016916323b872dd916130b591908b908f906004016153e9565b600060405180830381600087803b1580156130cf57600080fd5b505af11580156130e3573d6000803e3d6000fd5b505050506130f13485614fde565b50604080513381526001600160a01b0386811660208301523492908a16918d917f9b53f736294544c8dcc2ef0b86a8855c522fa2cdfeed5b52061f8f0e97e1f299910160405180910390a4505060016000555050505050505050565b6000818152600360205260409020600101546001600160a01b03163314613187576040516332a0bb6960e01b815260040160405180910390fd5b600081815260036020819052604082208281556001810180546001600160a01b0319908116909155600282018054821690559181018054909216909155906131d26004830182615139565b6131e0600583016000615157565b5050604051339082907fa92aff34e046840eb03a70da1750551a7cc813f27519416e1b05865eb260351690600090a350565b6000612710600154836132259190615979565b6126979190615990565b600254600160a01b900460ff161561325a576040516313d0ff5960e31b815260040160405180910390fd5b808060000361327c5760405163e7195f5160e01b815260040160405180910390fd5b604051624003bd60e41b81526004810184905260009081906001600160a01b037f000000000000000000000000000000000000000000000000000000000000000016906304003bd0906024016040805180830381865afa1580156132e4573d6000803e3d6000fd5b505050506040513d601f19601f8201168201806040525081019061330891906156ba565b9092509050336001600160a01b0383161461333657604051633faa6c4560e01b815260040160405180910390fd5b600080613342876117c3565b915091506040518060c00160405280878152602001856001600160a01b03168152602001846001600160a01b0316815260200160006001600160a01b0316815260200183815260200182815250600360008981526020019081526020016000206000820151816000015560208201518160010160006101000a8154816001600160a01b0302191690836001600160a01b0316021790555060408201518160020160006101000a8154816001600160a01b0302191690836001600160a01b0316021790555060608201518160030160006101000a8154816001600160a01b0302191690836001600160a01b03160217905550608082015181600401908051906020019061344f929190615191565b5060a082015160058201906134649082615859565b50506040516001600160a01b03858116825286169150879089907f749104dd5f8de8e4b889d790ea029b6ec8515f14cf73d20604b60e0b649a95df906020015b60405180910390a450505050505050565b600254600160a01b900460ff16156134e0576040516313d0ff5960e31b815260040160405180910390fd5b81806000036135025760405163e7195f5160e01b815260040160405180910390fd5b61350c8585612543565b61352957604051633e79b9f360e01b815260040160405180910390fd5b6040516311543c9960e31b815260048101859052602481018690527f00000000000000000000000000000000000000000000000000000000000000006001600160a01b031690638aa1e4c890604401602060405180830381865afa158015613595573d6000803e3d6000fd5b505050506040513d601f19601f820116820180604052508101906135b99190615680565b156135d75760405163b14aa60560e01b815260040160405180910390fd5b6040516331a9108f60e11b8152600481018690526000907f00000000000000000000000000000000000000000000000000000000000000006001600160a01b031690636352211e90602401602060405180830381865afa15801561363f573d6000803e3d6000fd5b505050506040513d601f19601f82011682018060405250810190613663919061569d565b604051624003bd60e41b8152600481018790529091506000906001600160a01b037f000000000000000000000000000000000000000000000000000000000000000016906304003bd0906024016040805180830381865afa1580156136cc573d6000803e3d6000fd5b505050506040513d601f19601f820116820180604052508101906136f091906156ba565b50604051624003bd60e41b8152600481018690529091506000906001600160a01b037f000000000000000000000000000000000000000000000000000000000000000016906304003bd0906024016040805180830381865afa15801561375a573d6000803e3d6000fd5b505050506040513d601f19601f8201168201806040525081019061377e91906156ba565b9150506040518060800160405280878152602001836001600160a01b03168152602001846001600160a01b03168152602001826001600160a01b0316815250600460008a81526020019081526020016000206000820151816000015560208201518160010160006101000a8154816001600160a01b0302191690836001600160a01b0316021790555060408201518160020160006101000a8154816001600160a01b0302191690836001600160a01b0316021790555060608201518160030160006101000a8154816001600160a01b0302191690836001600160a01b03160217905550905050816001600160a01b031686897fd81820ebfdde47351b4ac56296bba70e8f57f24195955168a1b5bf6b653e3d3a86604051611b9691906001600160a01b0391909116815260200190565b600254600160a01b900460ff16156138d9576040516313d0ff5960e31b815260040160405180910390fd5b6002600054036138fb5760405162461bcd60e51b8152600401610fcb90615723565b6002600081815583815260066020908152604091829020825160608101845281546001600160a01b03908116808352600184015490911693820193909352930154918301919091528061396157604051637ccf97e760e01b815260040160405180910390fd5b336001600160a01b0382160361398a576040516309f6914560e21b815260040160405180910390fd5b826001600160a01b0316816001600160a01b0316146139bc57604051630e5d99a160e41b815260040160405180910390fd5b60008060007f00000000000000000000000000000000000000000000000000000000000000006001600160a01b03166366704349886040518263ffffffff1660e01b8152600401613a0f91815260200190565b608060405180830381865afa158015613a2c573d6000803e3d6000fd5b505050506040513d601f19601f82011682018060405250810190613a509190615919565b93509350509250336001600160a01b0316826001600160a01b031614613a8957604051633e79b9f360e01b815260040160405180910390fd5b8015613aa85760405163b14aa60560e01b815260040160405180910390fd5b6000878152600460209081526040808320838155600180820180546001600160a01b031990811690915560028084018054831690556003909301805482169055600690945282852080548516815590810180549094169093559190910191909155850151613b169083614fde565b5060208501516040516323b872dd60e01b81526001600160a01b037f000000000000000000000000000000000000000000000000000000000000000016916323b872dd91613b6a9187918c906004016153e9565b600060405180830381600087803b158015613b8457600080fd5b505af1158015613b98573d6000803e3d6000fd5b50505060408087015190516001600160a01b0385811682528716925089907fc476c7174eb6bcf722015101bfd2abf9161ab48659b47e55f8b7260b06ebf0119060200160405180910390a4505060016000555050505050565b600254600160a01b900460ff1615613c1c576040516313d0ff5960e31b815260040160405180910390fd5b600260005403613c3e5760405162461bcd60e51b8152600401610fcb90615723565b600260009081556040516331a9108f60e11b8152600481018490527f00000000000000000000000000000000000000000000000000000000000000006001600160a01b031690636352211e90602401602060405180830381865afa158015613caa573d6000803e3d6000fd5b505050506040513d601f19601f82011682018060405250810190613cce919061569d565b90506001600160a01b0381163314613cf957604051633faa6c4560e01b815260040160405180910390fd5b6000838152600560209081526040808320815160808101835281546001600160a01b03168152600182015481850152600282018054845181870281018701865281815292959394860193830182828015613d7257602002820191906000526020600020905b815481526020019060010190808311613d5e575b50505050508152602001600382018054613d8b906156e9565b80601f0160208091040260200160405190810160405280929190818152602001828054613db7906156e9565b8015613e045780601f10613dd957610100808354040283529160200191613e04565b820191906000526020600020905b815481529060010190602001808311613de757829003601f168201915b5050509190925250508151919250506001600160a01b038116613e3a57604051637ccf97e760e01b815260040160405180910390fd5b336001600160a01b03821603613e63576040516309f6914560e21b815260040160405180910390fd5b836001600160a01b0316816001600160a01b031614613e9557604051630e5d99a160e41b815260040160405180910390fd5b6000613ea0866117c3565b915050826060015180519060200120818051906020012014613ed5576040516331d1776560e11b815260040160405180910390fd5b600086815260056020526040812080546001600160a01b03191681556001810182905590613f066002830182615139565b613f14600383016000615157565b5050613f24836020015185614fde565b506040516323b872dd60e01b81526001600160a01b037f000000000000000000000000000000000000000000000000000000000000000016906323b872dd90613f7590339086908b906004016153e9565b600060405180830381600087803b158015613f8f57600080fd5b505af1158015613fa3573d6000803e3d6000fd5b505050506020838101516040516001600160a01b03878116825285169289917f93f583f5df123bec43b0c3403a5d3dae34bc2251a68523f99d3041cb80c6ea38910160405180910390a45050600160005550505050565b60026000540361401c5760405162461bcd60e51b8152600401610fcb90615723565b6002600081815582815260066020908152604091829020825160608101845281546001600160a01b039081168083526001840154909116938201939093529301549183019190915233146140835760405163173f0e6f60e21b815260040160405180910390fd5b60008281526006602052604080822080546001600160a01b031990811682556001820180549091169055600201919091558101516140c2903390614f13565b6040808201519051339084907f7647025e5547900d10b38a3053f5fcb9037d89294d94600b0bfe4f48c798439690600090a450506001600055565b600254600160a01b900460ff1615614128576040516313d0ff5960e31b815260040160405180910390fd5b60026000540361414a5760405162461bcd60e51b8152600401610fcb90615723565b60026000818155828152600360208181526040808420815160c0810183528154815260018201546001600160a01b0390811682860152968201548716818401529381015490951660608401526004850180548251818502810185019093528083529495939460808601938301828280156141e357602002820191906000526020600020905b8154815260200190600101908083116141cf575b505050505081526020016005820180546141fc906156e9565b80601f0160208091040260200160405190810160405280929190818152602001828054614228906156e9565b80156142755780601f1061424a57610100808354040283529160200191614275565b820191906000526020600020905b81548152906001019060200180831161425857829003601f168201915b50505091909252505050602081015160405163e985e9c560e01b81526001600160a01b0391821660048201523060248201529192507f0000000000000000000000000000000000000000000000000000000000000000169063e985e9c590604401602060405180830381865afa1580156142f3573d6000803e3d6000fd5b505050506040513d601f19601f820116820180604052508101906143179190615680565b1580156143b6575060405163020604bf60e21b81526004810183905230906001600160a01b037f0000000000000000000000000000000000000000000000000000000000000000169063081812fc90602401602060405180830381865afa158015614386573d6000803e3d6000fd5b505050506040513d601f19601f820116820180604052508101906143aa919061569d565b6001600160a01b031614155b156143d4576040516361cf5f1360e01b815260040160405180910390fd5b805134146143f5576040516349986e7360e01b815260040160405180910390fd5b60208101516001600160a01b038116614421576040516374dbff7960e01b815260040160405180910390fd5b336001600160a01b0382160361444a5760405163abcb310f60e01b815260040160405180910390fd5b60608201516001600160a01b031615801590614473575060608201516001600160a01b03163314155b1561449157604051634b38765560e01b815260040160405180910390fd5b600061449c846117c3565b9150508260a00151805190602001208180519060200120146144d1576040516331d1776560e11b815260040160405180910390fd5b600084815260036020819052604082208281556001810180546001600160a01b03199081169091556002820180548216905591810180549092169091559061451c6004830182615139565b61452a600583016000615157565b50506000848152600560209081526040808320815160808101835281546001600160a01b031681526001820154818501526002820180548451818702810187018652818152929593948601938301828280156145a557602002820191906000526020600020905b815481526020019060010190808311614591575b505050505081526020016003820180546145be906156e9565b80601f01602080910402602001604051908101604052809291908181526020018280546145ea906156e9565b80156146375780601f1061460c57610100808354040283529160200191614637565b820191906000526020600020905b81548152906001019060200180831161461a57829003601f168201915b5050505050815250509050336001600160a01b031681600001516001600160a01b0316036146b257600085815260056020526040812080546001600160a01b031916815560018101829055906146906002830182615139565b61469e600383016000615157565b50506146b281600001518260200151614f13565b60208401516040516323b872dd60e01b81526001600160a01b037f000000000000000000000000000000000000000000000000000000000000000016916323b872dd91614706919033908a906004016153e9565b600060405180830381600087803b15801561472057600080fd5b505af1158015614734573d6000803e3d6000fd5b505050506147423484614fde565b506040516001600160a01b03841681523490339087907f35e25b9a592362b9d470b2a4907c7ea3ae21ab1a1c9eb41e1fd146bc8a33f96f9060200160405180910390a450506001600055505050565b600254600160a01b900460ff16156147bc576040516313d0ff5960e31b815260040160405180910390fd5b81806000036147de5760405163e7195f5160e01b815260040160405180910390fd5b6147e88585612543565b61480557604051633e79b9f360e01b815260040160405180910390fd5b6040516311543c9960e31b815260048101859052602481018690527f00000000000000000000000000000000000000000000000000000000000000006001600160a01b031690638aa1e4c890604401602060405180830381865afa158015614871573d6000803e3d6000fd5b505050506040513d601f19601f820116820180604052508101906148959190615680565b156148b35760405163b14aa60560e01b815260040160405180910390fd5b6040516331a9108f60e11b8152600481018690526000907f00000000000000000000000000000000000000000000000000000000000000006001600160a01b031690636352211e90602401602060405180830381865afa15801561491b573d6000803e3d6000fd5b505050506040513d601f19601f8201168201806040525081019061493f919061569d565b604051624003bd60e41b8152600481018790529091506000906001600160a01b037f000000000000000000000000000000000000000000000000000000000000000016906304003bd0906024016040805180830381865afa1580156149a8573d6000803e3d6000fd5b505050506040513d601f19601f820116820180604052508101906149cc91906156ba565b5090506040518060800160405280868152602001826001600160a01b03168152602001836001600160a01b03168152602001856001600160a01b0316815250600460008981526020019081526020016000206000820151816000015560208201518160010160006101000a8154816001600160a01b0302191690836001600160a01b0316021790555060408201518160020160006101000a8154816001600160a01b0302191690836001600160a01b0316021790555060608201518160030160006101000a8154816001600160a01b0302191690836001600160a01b03160217905550905050806001600160a01b031685887f555474b2f514aef3d74de2861294e8e88446148aa4ece5df7b38bd45282850bd85886040516134a49291906001600160a01b0392831681529116602082015260400190565b614b0c614e2b565b63389a75e1600c52806000526020600c208054421115614b3457636f5e88186000526004601cfd5b600090556112e881614fa0565b614b49614e2b565b8060601b614b5f57637448fbae6000526004601cfd5b6112e881614fa0565b336001600160a01b037f00000000000000000000000000000000000000000000000000000000000000001614614bb15760405163125e77d360e01b815260040160405180910390fd5b6000828152600560209081526040808320815160808101835281546001600160a01b03168152600182015481850152600282018054845181870281018701865281815292959394860193830182828015614c2a57602002820191906000526020600020905b815481526020019060010190808311614c16575b50505050508152602001600382018054614c43906156e9565b80601f0160208091040260200160405190810160405280929190818152602001828054614c6f906156e9565b8015614cbc5780601f10614c9157610100808354040283529160200191614cbc565b820191906000526020600020905b815481529060010190602001808311614c9f57829003601f168201915b5050505050815250509050816001600160a01b031681600001516001600160a01b0316036113dd57600083815260056020526040812080546001600160a01b03191681556001810182905590614d156002830182615139565b614d23600383016000615157565b50506113dd81600001518260200151614f13565b614d418282612543565b614d5e57604051633e79b9f360e01b815260040160405180910390fd5b6000828152600460205260409020600101546001600160a01b031680614d9757604051632c8efc6560e21b815260040160405180910390fd5b6001600160a01b0381163314614dc0576040516332a0bb6960e01b815260040160405180910390fd5b6000838152600460205260408082208281556001810180546001600160a01b03199081169091556002820180548216905560039091018054909116905551339185917f21b2d85fdbbcaac8efe168e1803aff7a5d97e8cfc1ed65b039c118c246ac46349190a3505050565b638b78c6d8195433146126af576382b429006000526004601cfd5b61248a8282604051602401614e5c9291906159b2565b60408051601f198184030181529190526020810180516001600160e01b03166309710a9d60e41b179052615118565b61248a8282604051602401614ea19291906159d4565b60408051601f198184030181529190526020810180516001600160e01b031663319af33360e01b179052615118565b6112e881604051602401614ee491906159fe565b60408051601f198184030181529190526020810180516001600160e01b031663104c13eb60e21b179052615118565b6000826001600160a01b03168260405160006040518083038185875af1925050503d8060008114614f60576040519150601f19603f3d011682016040523d82523d6000602084013e614f65565b606091505b50509050806113dd576001600160a01b03831660009081526007602052604081208054849290614f96908490615a11565b9091555050505050565b638b78c6d81980546001600160a01b039092169182907f8be0079c531659141344cd1fd0a4f28419497f9722a3daafe3b4186f6b6457e0600080a355565b600080614fea84613212565b90506000614ff88286615a24565b6002546040519192506000916001600160a01b039091169084908381818185875af1925050503d806000811461504a576040519150601f19603f3d011682016040523d82523d6000602084013e61504f565b606091505b5050905080615088576002546001600160a01b031660009081526007602052604081208054859290615082908490615a11565b90915550505b6040516001600160a01b038616908390600081818185875af1925050503d80600081146150d1576040519150601f19603f3d011682016040523d82523d6000602084013e6150d6565b606091505b5050809450508361510f576001600160a01b03851660009081526007602052604081208054849290615109908490615a11565b90915550505b50505092915050565b80516a636f6e736f6c652e6c6f67602083016000808483855afa5050505050565b50805460008255906000526020600020908101906112e891906151dc565b508054615163906156e9565b6000825580601f10615173575050565b601f0160209004906000526020600020908101906112e891906151dc565b8280548282559060005260206000209081019282156151cc579160200282015b828111156151cc5782518255916020019190600101906151b1565b506151d89291506151dc565b5090565b5b808211156151d857600081556001016151dd565b80151581146112e857600080fd5b60006020828403121561521157600080fd5b813561521c816151f1565b9392505050565b60008060006060848603121561523857600080fd5b505081359360208301359350604090920135919050565b60006020828403121561526157600080fd5b5035919050565b60008151808452602080850194506020840160005b838110156152995781518752958201959082019060010161527d565b509495945050505050565b6000815180845260005b818110156152ca576020818501810151868301820152016152ae565b506000602082860101526020601f19601f83011685010191505092915050565b60018060a01b03851681528360208201526080604082015260006153116080830185615268565b828103606084015261532381856152a4565b979650505050505050565b6001600160a01b03811681146112e857600080fd5b60006020828403121561535557600080fd5b813561521c8161532e565b6000806040838503121561537357600080fd5b8235915060208301356153858161532e565b809150509250929050565b8681526001600160a01b03868116602083015285811660408301528416606082015260c0608082018190526000906153ca90830185615268565b82810360a08401526153dc81856152a4565b9998505050505050505050565b6001600160a01b039384168152919092166020820152604081019190915260600190565b634e487b7160e01b600052604160045260246000fd5b604051601f8201601f1916810167ffffffffffffffff8111828210171561544c5761544c61540d565b604052919050565b600067ffffffffffffffff82111561546e5761546e61540d565b5060051b60200190565b6000806040838503121561548b57600080fd5b8235915060208084013567ffffffffffffffff8111156154aa57600080fd5b8401601f810186136154bb57600080fd5b80356154ce6154c982615454565b615423565b81815260059190911b820183019083810190888311156154ed57600080fd5b928401925b828410156155145783356155058161532e565b825292840192908401906154f2565b80955050505050509250929050565b6040815260006155366040830185615268565b828103602084015261554881856152a4565b95945050505050565b60008060006060848603121561556657600080fd5b8335925060208401359150604084013561557f8161532e565b809150509250925092565b6000806040838503121561559d57600080fd5b50508035926020909101359150565b60018060a01b038416815282602082015260606040820152600061554860608301846152a4565b8581526001600160a01b03858116602083015284811660408301528316606082015260a060808201819052600090615323908301846152a4565b6000806000806080858703121561562357600080fd5b5050823594602084013594506040840135936060013592509050565b6000806000806080858703121561565557600080fd5b84359350602085013592506040850135915060608501356156758161532e565b939692955090935050565b60006020828403121561569257600080fd5b815161521c816151f1565b6000602082840312156156af57600080fd5b815161521c8161532e565b600080604083850312156156cd57600080fd5b82516156d88161532e565b60208401519092506153858161532e565b600181811c908216806156fd57607f821691505b60208210810361571d57634e487b7160e01b600052602260045260246000fd5b50919050565b6020808252601f908201527f5265656e7472616e637947756172643a207265656e7472616e742063616c6c00604082015260600190565b634e487b7160e01b600052603260045260246000fd5b6000602080838503121561578357600080fd5b825167ffffffffffffffff81111561579a57600080fd5b8301601f810185136157ab57600080fd5b80516157b96154c982615454565b81815260059190911b820183019083810190878311156157d857600080fd5b928401925b82841015615323578351825292840192908401906157dd565b60208152600061521c6020830184615268565b601f8211156113dd576000816000526020600020601f850160051c810160208610156158325750805b601f850160051c820191505b818110156158515782815560010161583e565b505050505050565b815167ffffffffffffffff8111156158735761587361540d565b6158878161588184546156e9565b84615809565b602080601f8311600181146158bc57600084156158a45750858301515b600019600386901b1c1916600185901b178555615851565b600085815260208120601f198616915b828110156158eb578886015182559484019460019091019084016158cc565b50858210156159095787850151600019600388901b60f8161c191681555b5050505050600190811b01905550565b6000806000806080858703121561592f57600080fd5b845161593a8161532e565b6020860151604087015191955093506159528161532e565b6060860151909250615675816151f1565b634e487b7160e01b600052601160045260246000fd5b808202811582820484141761269757612697615963565b6000826159ad57634e487b7160e01b600052601260045260246000fd5b500490565b6040815260006159c560408301856152a4565b90508260208301529392505050565b6040815260006159e760408301856152a4565b905060018060a01b03831660208301529392505050565b60208152600061521c60208301846152a4565b8082018082111561269757612697615963565b818103818111156126975761269761596356fe43686f6e6b734d61726b65742064656c65746554726169744f66666572734265666f7265546f6b656e5472616e7366657220656e6443686f6e6b734d61726b65742072656d6f766543686f6e6b4f666665724f6e54726169745472616e736665722063616c6c656420666f722063686f6e6b2049443a43686f6e6b734d61726b65742064656c65746554726169744f66666572734265666f7265546f6b656e5472616e736665722063616c6c656420666f722074726169742049443aa2646970667358221220994204c556e675a8e35f86d445f5bebe9544fdf345385cdda80cbb65d23995d464736f6c6343000816003343686f6e6b734d61726b657420636f6e7374727563746f722063616c6c65642c206d73672e73656e6465723a","linkReferences":{}},"methodIdentifiers":{"PETERS_MAIN()":"c51ac41b","PETER_TRAITS()":"8b78b13b","acceptBidForChonk(uint256,address)":"cca59759","acceptBidForTrait(uint256,address)":"b5baf476","bidOnChonk(uint256)":"5793b22e","bidOnTrait(uint256,uint256)":"571ccb74","buyChonk(uint256)":"ebd34a88","buyTrait(uint256,uint256)":"917e3a7c","calculateRoyalty(uint256)":"a2e69613","cancelOfferChonk(uint256)":"9f24c945","cancelOfferTrait(uint256,uint256)":"f827d632","cancelOwnershipHandover()":"54d1f13d","chonkBids(uint256)":"65318c86","chonkIdToApprovedOperators(uint256,uint256)":"55737f35","chonkOffers(uint256)":"8b322383","completeOwnershipHandover(address)":"f04e283e","deleteChonkBidsBeforeTokenTransfer(uint256,address)":"f495f5a8","deleteChonkOfferBeforeTokenTransfer(uint256)":"644ec527","deleteTraitBidsBeforeTokenTransfer(uint256,address)":"2fbe78f0","deleteTraitBidsBeforeTokenTransfer(uint256,address[])":"4666a416","deleteTraitOffersBeforeTokenTransfer(uint256)":"2e1d274f","ensureTraitOwner(uint256,uint256)":"710b2719","getChonkBid(uint256)":"0cbd0922","getChonkOffer(uint256)":"36442e30","getTraitBid(uint256)":"3ce0c372","getTraitIdsAndEncodingForChonk(uint256)":"472729bb","getTraitOffer(uint256)":"f0988214","offerChonk(uint256,uint256)":"a4cc8324","offerChonkToAddress(uint256,uint256,address)":"4fc9923e","offerTrait(uint256,uint256,uint256)":"0b114256","offerTraitToAddress(uint256,uint256,uint256,address)":"ed89f704","offerTraitToChonkId(uint256,uint256,uint256,uint256)":"af9ca0f2","owner()":"8da5cb5b","ownershipHandoverExpiresAt(address)":"fee81cf4","pausabilityRevoked()":"b1f3694e","pause(bool)":"02329a29","paused()":"5c975abb","removeChonkOfferOnTraitTransfer(uint256)":"46c627fe","renounceOwnership()":"715018a6","requestOwnershipHandover()":"25692962","revokePausability()":"361f1c52","royaltyPercentage()":"8a71bb2d","setRoyaltyPercentage(uint256)":"61ba27da","setTeamWallet(address)":"1525ff7d","teamWallet()":"59927044","traitBids(uint256)":"7dbc8619","traitOffers(uint256)":"4f6088cd","transferOwnership(address)":"f2fde38b","withdrawBidOnChonk(uint256)":"795aded3","withdrawBidOnTrait(uint256)":"cecea401","withdrawFunds()":"24600fc3","withdrawableFunds(address)":"2f30cabd"},"id":39}