{"abi":[{"type":"constructor","inputs":[{"name":"_chonkTraits","type":"address","internalType":"address"},{"name":"_royaltyPercentage","type":"uint8","internalType":"uint8"},{"name":"_teamWallet","type":"address","internalType":"address"}],"stateMutability":"nonpayable"},{"type":"function","name":"CHONKS_MAIN","inputs":[],"outputs":[{"name":"","type":"address","internalType":"contract ChonksMain"}],"stateMutability":"view"},{"type":"function","name":"CHONK_TRAITS","inputs":[],"outputs":[{"name":"","type":"address","internalType":"contract ChonkTraits"}],"stateMutability":"view"},{"type":"function","name":"acceptBidForChonk","inputs":[{"name":"_chonkId","type":"uint256","internalType":"uint256"},{"name":"_bidder","type":"address","internalType":"address"}],"outputs":[],"stateMutability":"nonpayable"},{"type":"function","name":"acceptBidForTrait","inputs":[{"name":"_traitId","type":"uint256","internalType":"uint256"},{"name":"_bidder","type":"address","internalType":"address"}],"outputs":[],"stateMutability":"nonpayable"},{"type":"function","name":"bidOnChonk","inputs":[{"name":"_chonkId","type":"uint256","internalType":"uint256"}],"outputs":[],"stateMutability":"payable"},{"type":"function","name":"bidOnTrait","inputs":[{"name":"_traitId","type":"uint256","internalType":"uint256"},{"name":"_yourChonkId","type":"uint256","internalType":"uint256"}],"outputs":[],"stateMutability":"payable"},{"type":"function","name":"buyChonk","inputs":[{"name":"_chonkId","type":"uint256","internalType":"uint256"}],"outputs":[],"stateMutability":"payable"},{"type":"function","name":"buyTrait","inputs":[{"name":"_traitId","type":"uint256","internalType":"uint256"},{"name":"_forChonkId","type":"uint256","internalType":"uint256"}],"outputs":[],"stateMutability":"payable"},{"type":"function","name":"calculateRoyalty","inputs":[{"name":"_amount","type":"uint256","internalType":"uint256"}],"outputs":[{"name":"","type":"uint256","internalType":"uint256"}],"stateMutability":"view"},{"type":"function","name":"cancelOfferChonk","inputs":[{"name":"_chonkId","type":"uint256","internalType":"uint256"}],"outputs":[],"stateMutability":"nonpayable"},{"type":"function","name":"cancelOfferTrait","inputs":[{"name":"_traitId","type":"uint256","internalType":"uint256"},{"name":"_chonkId","type":"uint256","internalType":"uint256"}],"outputs":[],"stateMutability":"nonpayable"},{"type":"function","name":"cancelOwnershipHandover","inputs":[],"outputs":[],"stateMutability":"payable"},{"type":"function","name":"chonkBids","inputs":[{"name":"chonkId","type":"uint256","internalType":"uint256"}],"outputs":[{"name":"bidder","type":"address","internalType":"address"},{"name":"amountInWei","type":"uint256","internalType":"uint256"},{"name":"bidBlockNumber","type":"uint256","internalType":"uint256"}],"stateMutability":"view"},{"type":"function","name":"chonkCooldownPeriod","inputs":[],"outputs":[{"name":"","type":"uint256","internalType":"uint256"}],"stateMutability":"view"},{"type":"function","name":"chonkIdToLastTraitTransferBlock","inputs":[{"name":"chonkId","type":"uint256","internalType":"uint256"}],"outputs":[{"name":"lastTraitTransferBlock","type":"uint256","internalType":"uint256"}],"stateMutability":"view"},{"type":"function","name":"chonkOffers","inputs":[{"name":"chonkId","type":"uint256","internalType":"uint256"}],"outputs":[{"name":"priceInWei","type":"uint256","internalType":"uint256"},{"name":"seller","type":"address","internalType":"address"},{"name":"sellerTBA","type":"address","internalType":"address"},{"name":"onlySellTo","type":"address","internalType":"address"}],"stateMutability":"view"},{"type":"function","name":"completeOwnershipHandover","inputs":[{"name":"pendingOwner","type":"address","internalType":"address"}],"outputs":[],"stateMutability":"payable"},{"type":"function","name":"deleteChonkBidsBeforeTokenTransfer","inputs":[{"name":"_chonkId","type":"uint256","internalType":"uint256"},{"name":"_toEOA","type":"address","internalType":"address"}],"outputs":[],"stateMutability":"nonpayable"},{"type":"function","name":"deleteChonkOfferBeforeTokenTransfer","inputs":[{"name":"_chonkId","type":"uint256","internalType":"uint256"}],"outputs":[],"stateMutability":"nonpayable"},{"type":"function","name":"deleteTraitBidsBeforeTokenTransfer","inputs":[{"name":"_traitId","type":"uint256","internalType":"uint256"},{"name":"_toTBA","type":"address","internalType":"address"}],"outputs":[],"stateMutability":"nonpayable"},{"type":"function","name":"deleteTraitBidsBeforeTokenTransfer","inputs":[{"name":"_traitId","type":"uint256","internalType":"uint256"},{"name":"_toTBAs","type":"address[]","internalType":"address[]"}],"outputs":[],"stateMutability":"view"},{"type":"function","name":"deleteTraitOfferBeforeTokenTransferFromTraits","inputs":[{"name":"_traitId","type":"uint256","internalType":"uint256"}],"outputs":[],"stateMutability":"nonpayable"},{"type":"function","name":"deleteTraitOffersBeforeTokenTransfer","inputs":[{"name":"","type":"uint256","internalType":"uint256"}],"outputs":[],"stateMutability":"view"},{"type":"function","name":"ensureTraitOwner","inputs":[{"name":"_traitId","type":"uint256","internalType":"uint256"},{"name":"_chonkId","type":"uint256","internalType":"uint256"}],"outputs":[{"name":"","type":"bool","internalType":"bool"}],"stateMutability":"view"},{"type":"function","name":"gasStipend","inputs":[],"outputs":[{"name":"","type":"uint256","internalType":"uint256"}],"stateMutability":"view"},{"type":"function","name":"getChonkBid","inputs":[{"name":"_chonkId","type":"uint256","internalType":"uint256"}],"outputs":[{"name":"bidder","type":"address","internalType":"address"},{"name":"amountInWei","type":"uint256","internalType":"uint256"},{"name":"bidBlockNumber","type":"uint256","internalType":"uint256"}],"stateMutability":"view"},{"type":"function","name":"getChonkOffer","inputs":[{"name":"_chonkId","type":"uint256","internalType":"uint256"}],"outputs":[{"name":"priceInWei","type":"uint256","internalType":"uint256"},{"name":"seller","type":"address","internalType":"address"},{"name":"sellerTBA","type":"address","internalType":"address"},{"name":"onlySellTo","type":"address","internalType":"address"}],"stateMutability":"view"},{"type":"function","name":"getTraitBid","inputs":[{"name":"_traitId","type":"uint256","internalType":"uint256"}],"outputs":[{"name":"bidder","type":"address","internalType":"address"},{"name":"bidderTBA","type":"address","internalType":"address"},{"name":"amountInWei","type":"uint256","internalType":"uint256"},{"name":"bidBlockNumber","type":"uint256","internalType":"uint256"}],"stateMutability":"view"},{"type":"function","name":"getTraitOffer","inputs":[{"name":"_traitId","type":"uint256","internalType":"uint256"}],"outputs":[{"name":"priceInWei","type":"uint256","internalType":"uint256"},{"name":"seller","type":"address","internalType":"address"},{"name":"sellerTBA","type":"address","internalType":"address"},{"name":"onlySellTo","type":"address","internalType":"address"}],"stateMutability":"view"},{"type":"function","name":"offerChonk","inputs":[{"name":"_chonkId","type":"uint256","internalType":"uint256"},{"name":"_priceInWei","type":"uint256","internalType":"uint256"}],"outputs":[],"stateMutability":"nonpayable"},{"type":"function","name":"offerChonkToAddress","inputs":[{"name":"_chonkId","type":"uint256","internalType":"uint256"},{"name":"_priceInWei","type":"uint256","internalType":"uint256"},{"name":"_onlySellTo","type":"address","internalType":"address"}],"outputs":[],"stateMutability":"nonpayable"},{"type":"function","name":"offerTrait","inputs":[{"name":"_traitId","type":"uint256","internalType":"uint256"},{"name":"_chonkId","type":"uint256","internalType":"uint256"},{"name":"_priceInWei","type":"uint256","internalType":"uint256"}],"outputs":[],"stateMutability":"nonpayable"},{"type":"function","name":"offerTraitToAddress","inputs":[{"name":"_traitId","type":"uint256","internalType":"uint256"},{"name":"_chonkId","type":"uint256","internalType":"uint256"},{"name":"_priceInWei","type":"uint256","internalType":"uint256"},{"name":"_onlySellTo","type":"address","internalType":"address"}],"outputs":[],"stateMutability":"nonpayable"},{"type":"function","name":"owner","inputs":[],"outputs":[{"name":"result","type":"address","internalType":"address"}],"stateMutability":"view"},{"type":"function","name":"ownershipHandoverExpiresAt","inputs":[{"name":"pendingOwner","type":"address","internalType":"address"}],"outputs":[{"name":"result","type":"uint256","internalType":"uint256"}],"stateMutability":"view"},{"type":"function","name":"pausabilityRevoked","inputs":[],"outputs":[{"name":"","type":"bool","internalType":"bool"}],"stateMutability":"view"},{"type":"function","name":"pause","inputs":[{"name":"_value","type":"bool","internalType":"bool"}],"outputs":[],"stateMutability":"nonpayable"},{"type":"function","name":"paused","inputs":[],"outputs":[{"name":"","type":"bool","internalType":"bool"}],"stateMutability":"view"},{"type":"function","name":"removeChonkOfferOnTraitTransfer","inputs":[{"name":"_chonkId","type":"uint256","internalType":"uint256"}],"outputs":[],"stateMutability":"nonpayable"},{"type":"function","name":"renounceOwnership","inputs":[],"outputs":[],"stateMutability":"payable"},{"type":"function","name":"requestOwnershipHandover","inputs":[],"outputs":[],"stateMutability":"payable"},{"type":"function","name":"revokePausability","inputs":[],"outputs":[],"stateMutability":"nonpayable"},{"type":"function","name":"royaltyPercentage","inputs":[],"outputs":[{"name":"","type":"uint256","internalType":"uint256"}],"stateMutability":"view"},{"type":"function","name":"setChonkCooldownPeriod","inputs":[{"name":"_chonkId","type":"uint256","internalType":"uint256"}],"outputs":[],"stateMutability":"nonpayable"},{"type":"function","name":"setChonkCooldownPeriodBlocks","inputs":[{"name":"_chonkCooldownPeriod","type":"uint16","internalType":"uint16"}],"outputs":[],"stateMutability":"nonpayable"},{"type":"function","name":"setGasStipend","inputs":[{"name":"_gasStipend","type":"uint256","internalType":"uint256"}],"outputs":[],"stateMutability":"nonpayable"},{"type":"function","name":"setRoyaltyPercentage","inputs":[{"name":"_royaltyPercentage","type":"uint256","internalType":"uint256"}],"outputs":[],"stateMutability":"nonpayable"},{"type":"function","name":"setTeamWallet","inputs":[{"name":"_teamWallet","type":"address","internalType":"address"}],"outputs":[],"stateMutability":"nonpayable"},{"type":"function","name":"teamWallet","inputs":[],"outputs":[{"name":"","type":"address","internalType":"address"}],"stateMutability":"view"},{"type":"function","name":"traitBids","inputs":[{"name":"traitId","type":"uint256","internalType":"uint256"}],"outputs":[{"name":"bidder","type":"address","internalType":"address"},{"name":"bidderTBA","type":"address","internalType":"address"},{"name":"amountInWei","type":"uint256","internalType":"uint256"},{"name":"bidBlockNumber","type":"uint256","internalType":"uint256"}],"stateMutability":"view"},{"type":"function","name":"traitOfferIsValid","inputs":[{"name":"_traitId","type":"uint256","internalType":"uint256"}],"outputs":[{"name":"","type":"bool","internalType":"bool"}],"stateMutability":"view"},{"type":"function","name":"traitOffers","inputs":[{"name":"traitId","type":"uint256","internalType":"uint256"}],"outputs":[{"name":"priceInWei","type":"uint256","internalType":"uint256"},{"name":"seller","type":"address","internalType":"address"},{"name":"sellerTBA","type":"address","internalType":"address"},{"name":"onlySellTo","type":"address","internalType":"address"}],"stateMutability":"view"},{"type":"function","name":"transferOwnership","inputs":[{"name":"newOwner","type":"address","internalType":"address"}],"outputs":[],"stateMutability":"payable"},{"type":"function","name":"withdrawBidOnChonk","inputs":[{"name":"_chonkId","type":"uint256","internalType":"uint256"}],"outputs":[],"stateMutability":"nonpayable"},{"type":"function","name":"withdrawBidOnTrait","inputs":[{"name":"_traitId","type":"uint256","internalType":"uint256"}],"outputs":[],"stateMutability":"nonpayable"},{"type":"function","name":"withdrawFunds","inputs":[],"outputs":[],"stateMutability":"nonpayable"},{"type":"function","name":"withdrawableFunds","inputs":[{"name":"eoa","type":"address","internalType":"address"}],"outputs":[{"name":"balance","type":"uint256","internalType":"uint256"}],"stateMutability":"view"},{"type":"event","name":"ChonkBidAccepted","inputs":[{"name":"chonkId","type":"uint256","indexed":true,"internalType":"uint256"},{"name":"amountInWei","type":"uint256","indexed":true,"internalType":"uint256"},{"name":"buyer","type":"address","indexed":true,"internalType":"address"},{"name":"seller","type":"address","indexed":false,"internalType":"address"}],"anonymous":false},{"type":"event","name":"ChonkBidEntered","inputs":[{"name":"chonkId","type":"uint256","indexed":true,"internalType":"uint256"},{"name":"bidder","type":"address","indexed":true,"internalType":"address"},{"name":"amountInWei","type":"uint256","indexed":true,"internalType":"uint256"}],"anonymous":false},{"type":"event","name":"ChonkBidWithdrawn","inputs":[{"name":"chonkId","type":"uint256","indexed":true,"internalType":"uint256"},{"name":"bidder","type":"address","indexed":true,"internalType":"address"},{"name":"amountInWei","type":"uint256","indexed":true,"internalType":"uint256"}],"anonymous":false},{"type":"event","name":"ChonkBought","inputs":[{"name":"chonkId","type":"uint256","indexed":true,"internalType":"uint256"},{"name":"buyer","type":"address","indexed":true,"internalType":"address"},{"name":"amountInWei","type":"uint256","indexed":true,"internalType":"uint256"},{"name":"seller","type":"address","indexed":false,"internalType":"address"}],"anonymous":false},{"type":"event","name":"ChonkCooldownPeriodExpiresAtBlock","inputs":[{"name":"chonkId","type":"uint256","indexed":true,"internalType":"uint256"},{"name":"expiresAtBlock","type":"uint256","indexed":true,"internalType":"uint256"}],"anonymous":false},{"type":"event","name":"ChonkOfferCanceled","inputs":[{"name":"chonkId","type":"uint256","indexed":true,"internalType":"uint256"},{"name":"seller","type":"address","indexed":true,"internalType":"address"}],"anonymous":false},{"type":"event","name":"ChonkOffered","inputs":[{"name":"chonkId","type":"uint256","indexed":true,"internalType":"uint256"},{"name":"price","type":"uint256","indexed":true,"internalType":"uint256"},{"name":"seller","type":"address","indexed":true,"internalType":"address"},{"name":"sellerTBA","type":"address","indexed":false,"internalType":"address"}],"anonymous":false},{"type":"event","name":"ChonkOfferedToAddress","inputs":[{"name":"chonkId","type":"uint256","indexed":true,"internalType":"uint256"},{"name":"price","type":"uint256","indexed":true,"internalType":"uint256"},{"name":"seller","type":"address","indexed":true,"internalType":"address"},{"name":"sellerTBA","type":"address","indexed":false,"internalType":"address"},{"name":"onlySellTo","type":"address","indexed":false,"internalType":"address"}],"anonymous":false},{"type":"event","name":"OwnershipHandoverCanceled","inputs":[{"name":"pendingOwner","type":"address","indexed":true,"internalType":"address"}],"anonymous":false},{"type":"event","name":"OwnershipHandoverRequested","inputs":[{"name":"pendingOwner","type":"address","indexed":true,"internalType":"address"}],"anonymous":false},{"type":"event","name":"OwnershipTransferred","inputs":[{"name":"oldOwner","type":"address","indexed":true,"internalType":"address"},{"name":"newOwner","type":"address","indexed":true,"internalType":"address"}],"anonymous":false},{"type":"event","name":"TraitBidAccepted","inputs":[{"name":"traitId","type":"uint256","indexed":true,"internalType":"uint256"},{"name":"amountInWei","type":"uint256","indexed":true,"internalType":"uint256"},{"name":"buyer","type":"address","indexed":true,"internalType":"address"},{"name":"seller","type":"address","indexed":false,"internalType":"address"}],"anonymous":false},{"type":"event","name":"TraitBidEntered","inputs":[{"name":"traitId","type":"uint256","indexed":true,"internalType":"uint256"},{"name":"bidder","type":"address","indexed":true,"internalType":"address"},{"name":"amountInWei","type":"uint256","indexed":true,"internalType":"uint256"}],"anonymous":false},{"type":"event","name":"TraitBidWithdrawn","inputs":[{"name":"traitId","type":"uint256","indexed":true,"internalType":"uint256"},{"name":"bidder","type":"address","indexed":true,"internalType":"address"},{"name":"amountInWei","type":"uint256","indexed":true,"internalType":"uint256"}],"anonymous":false},{"type":"event","name":"TraitBought","inputs":[{"name":"traitId","type":"uint256","indexed":true,"internalType":"uint256"},{"name":"buyerTBA","type":"address","indexed":true,"internalType":"address"},{"name":"amountInWei","type":"uint256","indexed":true,"internalType":"uint256"},{"name":"buyer","type":"address","indexed":false,"internalType":"address"},{"name":"seller","type":"address","indexed":false,"internalType":"address"}],"anonymous":false},{"type":"event","name":"TraitOfferCanceled","inputs":[{"name":"traitId","type":"uint256","indexed":true,"internalType":"uint256"},{"name":"seller","type":"address","indexed":true,"internalType":"address"}],"anonymous":false},{"type":"event","name":"TraitOffered","inputs":[{"name":"traitId","type":"uint256","indexed":true,"internalType":"uint256"},{"name":"price","type":"uint256","indexed":true,"internalType":"uint256"},{"name":"seller","type":"address","indexed":true,"internalType":"address"},{"name":"sellerTBA","type":"address","indexed":false,"internalType":"address"}],"anonymous":false},{"type":"event","name":"TraitOfferedToAddress","inputs":[{"name":"traitId","type":"uint256","indexed":true,"internalType":"uint256"},{"name":"price","type":"uint256","indexed":true,"internalType":"uint256"},{"name":"seller","type":"address","indexed":true,"internalType":"address"},{"name":"sellerTBA","type":"address","indexed":false,"internalType":"address"},{"name":"onlySellTo","type":"address","indexed":false,"internalType":"address"}],"anonymous":false},{"type":"error","name":"AlreadyInitialized","inputs":[]},{"type":"error","name":"ApproveTheMarketplace","inputs":[]},{"type":"error","name":"BidIsTooLow","inputs":[]},{"type":"error","name":"BidderChanged","inputs":[]},{"type":"error","name":"CMUnauthorized","inputs":[]},{"type":"error","name":"CantAcceptYourOwnBid","inputs":[]},{"type":"error","name":"CantBeZero","inputs":[]},{"type":"error","name":"CantBidOnYourOwnChonk","inputs":[]},{"type":"error","name":"CantBidOnYourOwnTrait","inputs":[]},{"type":"error","name":"CantBuyYourOwnChonk","inputs":[]},{"type":"error","name":"CantBuyYourOwnTrait","inputs":[]},{"type":"error","name":"ChonkInCooldown","inputs":[]},{"type":"error","name":"MustWaitToWithdrawBid","inputs":[]},{"type":"error","name":"NewOwnerIsZeroAddress","inputs":[]},{"type":"error","name":"NoBidToAccept","inputs":[]},{"type":"error","name":"NoBidToWithdraw","inputs":[]},{"type":"error","name":"NoHandoverRequest","inputs":[]},{"type":"error","name":"NoOfferToCancel","inputs":[]},{"type":"error","name":"NotYourBid","inputs":[]},{"type":"error","name":"NotYourChonk","inputs":[]},{"type":"error","name":"NotYourOffer","inputs":[]},{"type":"error","name":"NotYourTrait","inputs":[]},{"type":"error","name":"OfferDoesNotExist","inputs":[]},{"type":"error","name":"OnlySellToEOAs","inputs":[]},{"type":"error","name":"OnlyTraitsContract","inputs":[]},{"type":"error","name":"PausabilityRevoked","inputs":[]},{"type":"error","name":"Paused","inputs":[]},{"type":"error","name":"SellerMustRelistTrait","inputs":[]},{"type":"error","name":"TBANeedsToApproveMarketplace","inputs":[]},{"type":"error","name":"TraitEquipped","inputs":[]},{"type":"error","name":"TraitIdsChangedSinceBid","inputs":[]},{"type":"error","name":"Unauthorized","inputs":[]},{"type":"error","name":"WithdrawFailed","inputs":[]},{"type":"error","name":"WrongAmount","inputs":[]},{"type":"error","name":"YouCantBuyThatChonk","inputs":[]},{"type":"error","name":"YouCantBuyThatTrait","inputs":[]}],"bytecode":{"object":"0x60c06040527307152bfde079b5319e5308c43fb1dbc9c76cb4f96080526001805460ff60a01b1916905561ea6060035560326004553480156200004157600080fd5b5060405162004899380380620048998339810160408190526200006491620000ff565b60016000556200007433620000a6565b6001600160a01b0392831660a05260ff91909116600255600180546001600160a01b0319169190921617905562000150565b6001600160a01b0316638b78c6d8198190558060007f8be0079c531659141344cd1fd0a4f28419497f9722a3daafe3b4186f6b6457e08180a350565b80516001600160a01b0381168114620000fa57600080fd5b919050565b6000806000606084860312156200011557600080fd5b6200012084620000e2565b9250602084015160ff811681146200013757600080fd5b91506200014760408501620000e2565b90509250925092565b60805160a051614620620002796000396000818161047801528181610ee0015281816111ab0152818161129e015281816113ec01528181611c8e01528181611d84015281816121d7015281816122e1015281816123760152818161267f01528181612be401526139bd01526000818161074601528181610daf01528181610f76015281816114d70152818161166301528181611726015281816119ca01528181611bb101528181611df6015281816120890152818161214001528181612507015281816128a401528181612a8c01528181612d2401528181612dbf01528181612e5401528181613058015281816132b20152818161351f015281816135b4015281816137120152818161386d0152818161391301528181613a530152613c7501526146206000f3fe6080604052600436106103765760003560e01c806365318c86116101d1578063a4cc832411610102578063ebd34a88116100a0578063f2fde38b1161006f578063f2fde38b14610c47578063f495f5a814610c5a578063f827d63214610c7a578063fee81cf414610c9a57600080fd5b8063ebd34a8814610b8c578063ed89f70414610b9f578063f04e283e14610bbf578063f098821414610bd257600080fd5b8063cca59759116100dc578063cca5975914610aff578063cecea40114610b1f578063d3cf8f8d14610b3f578063e0882cf814610b6c57600080fd5b8063a4cc832414610a9e578063b1f3694e14610abe578063b5baf47614610adf57600080fd5b80638b3223831161016f5780639434c910116101495780639434c91014610a285780639f24c94514610a3e578063a0a0c4b814610a5e578063a2e6961314610a7e57600080fd5b80638b322383146109ab5780638da5cb5b146109fc578063917e3a7c14610a1557600080fd5b8063715018a6116101ab578063715018a61461091e578063795aded3146109265780637dbc8619146109465780638a71bb2d1461099557600080fd5b806365318c8614610898578063662c08cd146108de578063710b2719146108fe57600080fd5b806336442e30116102ab57806354d1f13d11610249578063599270441161022357806359927044146108075780635c975abb1461082757806361ba27da14610858578063644ec5271461087857600080fd5b806354d1f13d146107d9578063571ccb74146107e15780635793b22e146107f457600080fd5b806346c627fe1161028557806346c627fe146107145780634de8cdf6146107345780634f6088cd146107685780634fc9923e146107b957600080fd5b806336442e30146105b35780633ce0c372146106575780634666a416146106f557600080fd5b806325692962116103185780632f30cabd116102f25780632f30cabd1461052d5780632f3a291c146105685780632fbe78f01461057e578063361f1c521461059e57600080fd5b806325692962146104e75780632619e11b146104ef5780632e1d274f1461050f57600080fd5b80631525ff7d116103545780631525ff7d14610446578063170c14d91461046657806324600fc3146104b257806324b786e2146104c757600080fd5b806302329a291461037b5780630b1142561461039d5780630cbd0922146103bd575b600080fd5b34801561038757600080fd5b5061039b610396366004614177565b610ccd565b005b3480156103a957600080fd5b5061039b6103b836600461419b565b610d1e565b3480156103c957600080fd5b5061041c6103d83660046141c7565b600081815260076020908152604091829020825160608101845281546001600160a01b03168082526001830154938201849052600290920154930183905293909250565b604080516001600160a01b0390941684526020840192909252908201526060015b60405180910390f35b34801561045257600080fd5b5061039b610461366004614205565b6110bb565b34801561047257600080fd5b5061049a7f000000000000000000000000000000000000000000000000000000000000000081565b6040516001600160a01b03909116815260200161043d565b3480156104be57600080fd5b5061039b6110e5565b3480156104d357600080fd5b5061039b6104e23660046141c7565b6111a0565b61039b611236565b3480156104fb57600080fd5b5061039b61050a3660046141c7565b611286565b34801561051b57600080fd5b5061039b61052a3660046141c7565b50565b34801561053957600080fd5b5061055a610548366004614205565b60096020526000908152604090205481565b60405190815260200161043d565b34801561057457600080fd5b5061055a60045481565b34801561058a57600080fd5b5061039b610599366004614222565b611293565b3480156105aa57600080fd5b5061039b611399565b3480156105bf57600080fd5b506106286105ce3660046141c7565b6000908152600560209081526040918290208251608081018452815480825260018301546001600160a01b039081169483018590526002840154811695830186905260039093015490921660609091018190529093919291565b604080519485526001600160a01b0393841660208601529183169184019190915216606082015260800161043d565b34801561066357600080fd5b506106ca6106723660046141c7565b600090815260086020908152604091829020825160808101845281546001600160a01b039081168083526001840154909116938201849052600283015494820185905260039092015460609091018190529093919291565b604080516001600160a01b03958616815294909316602085015291830152606082015260800161043d565b34801561070157600080fd5b5061039b610710366004614268565b5050565b34801561072057600080fd5b5061039b61072f3660046141c7565b6113e1565b34801561074057600080fd5b5061049a7f000000000000000000000000000000000000000000000000000000000000000081565b34801561077457600080fd5b506106286107833660046141c7565b600660205260009081526040902080546001820154600283015460039093015491926001600160a01b0391821692908216911684565b3480156107c557600080fd5b5061039b6107d4366004614339565b611468565b61039b61159a565b61039b6107ef366004614372565b6115d6565b61039b6108023660046141c7565b61193e565b34801561081357600080fd5b5060015461049a906001600160a01b031681565b34801561083357600080fd5b5060015461084890600160a01b900460ff1681565b604051901515815260200161043d565b34801561086457600080fd5b5061039b6108733660046141c7565b611b99565b34801561088457600080fd5b5061039b6108933660046141c7565b611ba6565b3480156108a457600080fd5b5061041c6108b33660046141c7565b6007602052600090815260409020805460018201546002909201546001600160a01b03909116919083565b3480156108ea57600080fd5b5061039b6108f93660046141c7565b611c83565b34801561090a57600080fd5b50610848610919366004614372565b611d61565b61039b611ebb565b34801561093257600080fd5b5061039b6109413660046141c7565b611ecf565b34801561095257600080fd5b506106ca6109613660046141c7565b60086020526000908152604090208054600182015460028301546003909301546001600160a01b0392831693919092169184565b3480156109a157600080fd5b5061055a60025481565b3480156109b757600080fd5b506106286109c63660046141c7565b600560205260009081526040902080546001820154600283015460039093015491926001600160a01b0391821692908216911684565b348015610a0857600080fd5b50638b78c6d8195461049a565b61039b610a23366004614372565b61201f565b348015610a3457600080fd5b5061055a60035481565b348015610a4a57600080fd5b5061039b610a593660046141c7565b612764565b348015610a6a57600080fd5b5061039b610a79366004614394565b612807565b348015610a8a57600080fd5b5061055a610a993660046141c7565b612818565b348015610aaa57600080fd5b5061039b610ab9366004614372565b612835565b348015610aca57600080fd5b5060015461084890600160a81b900460ff1681565b348015610aeb57600080fd5b5061039b610afa366004614222565b61296b565b348015610b0b57600080fd5b5061039b610b1a366004614222565b612cba565b348015610b2b57600080fd5b5061039b610b3a3660046141c7565b61312d565b348015610b4b57600080fd5b5061055a610b5a3660046141c7565b600a6020526000908152604090205481565b348015610b7857600080fd5b50610848610b873660046141c7565b613272565b61039b610b9a3660046141c7565b613352565b348015610bab57600080fd5b5061039b610bba3660046143b8565b6137db565b61039b610bcd366004614205565b613c06565b348015610bde57600080fd5b50610628610bed3660046141c7565b6000908152600660209081526040918290208251608081018452815480825260018301546001600160a01b039081169483018590526002840154811695830186905260039093015490921660609091018190529093919291565b61039b610c55366004614205565b613c43565b348015610c6657600080fd5b5061039b610c75366004614222565b613c6a565b348015610c8657600080fd5b5061039b610c95366004614372565b613d3a565b348015610ca657600080fd5b5061055a610cb5366004614205565b63389a75e1600c908152600091909152602090205490565b610cd5613e2e565b600154600160a81b900460ff1615610d005760405163d9ef8fb560e01b815260040160405180910390fd5b60018054911515600160a01b0260ff60a01b19909216919091179055565b600154600160a01b900460ff1615610d49576040516313d0ff5960e31b815260040160405180910390fd5b8080600003610d6b5760405163e7195f5160e01b815260040160405180910390fd5b610d758484611d61565b610d9257604051633e79b9f360e01b815260040160405180910390fd5b6040516311543c9960e31b815260048101849052602481018590527f00000000000000000000000000000000000000000000000000000000000000006001600160a01b031690638aa1e4c890604401602060405180830381865afa158015610dfe573d6000803e3d6000fd5b505050506040513d601f19601f82011682018060405250810190610e2291906143f9565b15610e405760405163b14aa60560e01b815260040160405180910390fd5b6000838152600560205260409020600101546001600160a01b031615610ec7576000838152600560205260408082208281556001810180546001600160a01b03199081169091556002820180548216905560039091018054909116905551339185917fa92aff34e046840eb03a70da1750551a7cc813f27519416e1b05865eb26035169190a35b6040516331a9108f60e11b8152600481018590526000907f00000000000000000000000000000000000000000000000000000000000000006001600160a01b031690636352211e90602401602060405180830381865afa158015610f2f573d6000803e3d6000fd5b505050506040513d601f19601f82011682018060405250810190610f539190614416565b604051624003bd60e41b8152600481018690529091506000906001600160a01b037f000000000000000000000000000000000000000000000000000000000000000016906304003bd0906024016040805180830381865afa158015610fbc573d6000803e3d6000fd5b505050506040513d601f19601f82011682018060405250810190610fe09190614433565b50604080516080810182528681526001600160a01b0380841660208084018281528884168587019081526000606087018181528f825260069094528790209551865590516001860180549186166001600160a01b03199283161790559051600286018054918616918316919091179055905160039094018054949093169316929092179055905191925090859088907fd81820ebfdde47351b4ac56296bba70e8f57f24195955168a1b5bf6b653e3d3a906110ab9087906001600160a01b0391909116815260200190565b60405180910390a4505050505050565b6110c3613e2e565b600180546001600160a01b0319166001600160a01b0392909216919091179055565b6002600054036111105760405162461bcd60e51b815260040161110790614462565b60405180910390fd5b60026000908155338082526009602052604080832080549084905560035491519093929190849084818181858888f193505050503d8060008114611170576040519150601f19603f3d011682016040523d82523d6000602084013e611175565b606091505b505090508061119757604051631d42c86760e21b815260040160405180910390fd5b50506001600055565b336001600160a01b037f000000000000000000000000000000000000000000000000000000000000000016146111e95760405163125e77d360e01b815260040160405180910390fd5b6000818152600a602052604090204390819055600454611208916144af565b60405182907fb38775c1616a155d6f47774363128c15476136a15dd129e8aa653c3f2f6ba8a590600090a350565b60006202a30067ffffffffffffffff164201905063389a75e1600c5233600052806020600c2055337fdbf36a107da19e49527a7176a1babf963b4b0ff8cde35ee35d6cd8f1f9ac7e1d600080a250565b61128e613e2e565b600355565b336001600160a01b037f000000000000000000000000000000000000000000000000000000000000000016146112dc5760405163125e77d360e01b815260040160405180910390fd5b600082815260086020908152604091829020825160808101845281546001600160a01b039081168083526001840154909116938201939093526002820154938101939093526003015460608301521561139457816001600160a01b031681602001516001600160a01b0316036113945760008381526008602052604080822080546001600160a01b03199081168255600182018054909116905560028101839055600301919091558151908201516113949190613e49565b505050565b6113a1613e2e565b600154600160a81b900460ff16156113cc5760405163d9ef8fb560e01b815260040160405180910390fd5b6001805460ff60a81b1916600160a81b179055565b336001600160a01b037f0000000000000000000000000000000000000000000000000000000000000000161461142a57604051632c33f75f60e21b815260040160405180910390fd5b60009081526005602052604081209081556001810180546001600160a01b031990811690915560028201805482169055600390910180549091169055565b600154600160a01b900460ff1615611493576040516313d0ff5960e31b815260040160405180910390fd5b81806000036114b55760405163e7195f5160e01b815260040160405180910390fd5b604051624003bd60e41b81526004810185905260009081906001600160a01b037f000000000000000000000000000000000000000000000000000000000000000016906304003bd0906024016040805180830381865afa15801561151d573d6000803e3d6000fd5b505050506040513d601f19601f820116820180604052508101906115419190614433565b915091506115528686868585613ed8565b604080516001600160a01b0383811682528681166020830152841691879189917f4b2696c0b570fe60ace24fc90fe3446d3328d0c3aaeed71e743603aaba978e7891016110ab565b63389a75e1600c523360005260006020600c2055337ffa7b8eab7da67f412cc9575ed43464468f9bfbae89d1675917346ca6d8fe3c92600080a2565b34806000036115f85760405163e7195f5160e01b815260040160405180910390fd5b600154600160a01b900460ff1615611623576040516313d0ff5960e31b815260040160405180910390fd5b6002600054036116455760405162461bcd60e51b815260040161110790614462565b60026000908155604051624003bd60e41b81526004810184905281907f00000000000000000000000000000000000000000000000000000000000000006001600160a01b0316906304003bd0906024016040805180830381865afa1580156116b1573d6000803e3d6000fd5b505050506040513d601f19601f820116820180604052508101906116d59190614433565b90925090506001600160a01b038216331461170357604051633faa6c4560e01b815260040160405180910390fd5b604051636670434960e01b81526004810186905260009081906001600160a01b037f00000000000000000000000000000000000000000000000000000000000000001690636670434990602401608060405180830381865afa15801561176d573d6000803e3d6000fd5b505050506040513d601f19601f8201168201806040525081019061179191906144c2565b509250509150336001600160a01b0316816001600160a01b031614806117bf57506001600160a01b03821633145b156117dd576040516303d54cb760e11b815260040160405180910390fd5b600087815260086020908152604091829020825160808101845281546001600160a01b0390811682526001830154169281019290925260028101549282018390526003015460608201529015611871576000606482604001516069611842919061450c565b61184c9190614523565b90508034101561186f576040516386bed4cd60e01b815260040160405180910390fd5b505b604080516080810182523381526001600160a01b03868116602080840191825234848601908152436060860190815260008f8152600890935291869020945185549085166001600160a01b031991821617865592516001860180549190951693169290921790925551600283015551600390910155810151156119005761190081600001518260400151613e49565b604051349033908a907f10962e2373847454af3c025d9b77161f5244f4e2a69e3e9ddf4954b2622a868990600090a450506001600055505050505050565b34806000036119605760405163e7195f5160e01b815260040160405180910390fd5b600154600160a01b900460ff161561198b576040516313d0ff5960e31b815260040160405180910390fd5b6002600054036119ad5760405162461bcd60e51b815260040161110790614462565b600260009081556040516331a9108f60e11b8152600481018490527f00000000000000000000000000000000000000000000000000000000000000006001600160a01b031690636352211e90602401602060405180830381865afa158015611a19573d6000803e3d6000fd5b505050506040513d601f19601f82011682018060405250810190611a3d9190614416565b9050336001600160a01b03821603611a685760405163d2e7167f60e01b815260040160405180910390fd5b600083815260076020908152604091829020825160608101845281546001600160a01b0316815260018201549281018390526002909101549281019290925215611af0576000606482602001516069611ac1919061450c565b611acb9190614523565b905080341015611aee576040516386bed4cd60e01b815260040160405180910390fd5b505b604080516060810182523381523460208083019182524383850190815260008981526007835294909420925183546001600160a01b0319166001600160a01b0390911617835590516001830155915160029091015581015115611b5f57611b5f81600001518260200151613e49565b6040513490339086907f5bcbf8d6be0293e172be2f32bd63e586fd65b0d15d70c845d393d73f2cfcff1790600090a4505060016000555050565b611ba1613e2e565b600255565b336001600160a01b037f00000000000000000000000000000000000000000000000000000000000000001614611bef5760405163125e77d360e01b815260040160405180910390fd5b60008181526005602090815260409182902082516080810184528154815260018201546001600160a01b039081169382018490526002830154811694820194909452600390910154909216606083015215610710575060009081526005602052604081209081556001810180546001600160a01b031990811690915560028201805482169055600390910180549091169055565b336001600160a01b037f00000000000000000000000000000000000000000000000000000000000000001614611ccc5760405163125e77d360e01b815260040160405180910390fd5b6000818152600660205260409020600101546001600160a01b03161561052a57611d236040518060400160405280601581526020017419195b195d1a5b99c8199bdc881d1bdad95b881a59605a1b81525082613f86565b60009081526006602052604081209081556001810180546001600160a01b031990811690915560028201805482169055600390910180549091169055565b6040516331a9108f60e11b81526004810183905260009081906001600160a01b037f00000000000000000000000000000000000000000000000000000000000000001690636352211e90602401602060405180830381865afa158015611dcb573d6000803e3d6000fd5b505050506040513d601f19601f82011682018060405250810190611def9190614416565b90506000807f00000000000000000000000000000000000000000000000000000000000000006001600160a01b03166304003bd0866040518263ffffffff1660e01b8152600401611e4291815260200190565b6040805180830381865afa158015611e5e573d6000803e3d6000fd5b505050506040513d601f19601f82011682018060405250810190611e829190614433565b91509150806001600160a01b0316836001600160a01b0316148015611eaf57506001600160a01b03821633145b93505050505b92915050565b611ec3613e2e565b611ecd6000613fcb565b565b600260005403611ef15760405162461bcd60e51b815260040161110790614462565b6002600081815582815260076020908152604091829020825160608101845281546001600160a01b031680825260018301549382019390935293015491830191909152611f5157604051633273560160e21b815260040160405180910390fd5b80516001600160a01b03163314611f7b5760405163173f0e6f60e21b815260040160405180910390fd5b6040810151611f8b9060326144af565b431015611faa57604051623569d160e71b815260040160405180910390fd5b6000828152600760209081526040822080546001600160a01b03191681556001810183905560020191909155810151611fe4903390613e49565b6020810151604051339084907f42aa62a335199e81c12706e51f762071115ee5df409428ef670b00ee8b7a3d2690600090a450506001600055565b600154600160a01b900460ff161561204a576040516313d0ff5960e31b815260040160405180910390fd5b60026000540361206c5760405162461bcd60e51b815260040161110790614462565b600260009081556040516331a9108f60e11b8152600481018390527f00000000000000000000000000000000000000000000000000000000000000006001600160a01b031690636352211e90602401602060405180830381865afa1580156120d8573d6000803e3d6000fd5b505050506040513d601f19601f820116820180604052508101906120fc9190614416565b90506001600160a01b038116331461212757604051633faa6c4560e01b815260040160405180910390fd5b604051639c05d68d60e01b8152600481018390526000907f00000000000000000000000000000000000000000000000000000000000000006001600160a01b031690639c05d68d90602401602060405180830381865afa15801561218f573d6000803e3d6000fd5b505050506040513d601f19601f820116820180604052508101906121b39190614416565b6040516331a9108f60e11b8152600481018690529091506000906001600160a01b037f00000000000000000000000000000000000000000000000000000000000000001690636352211e90602401602060405180830381865afa15801561221e573d6000803e3d6000fd5b505050506040513d601f19601f820116820180604052508101906122429190614416565b9050816001600160a01b0316816001600160a01b03160361227657604051633617ec7f60e21b815260040160405180910390fd5b60008581526006602090815260409182902082516080810184528154815260018201546001600160a01b03908116938201939093526002820154831681850181905260039092015483166060820152925163e985e9c560e01b815260048101919091523060248201527f00000000000000000000000000000000000000000000000000000000000000009091169063e985e9c590604401602060405180830381865afa15801561232a573d6000803e3d6000fd5b505050506040513d601f19601f8201168201806040525081019061234e91906143f9565b1580156123ed575060405163020604bf60e21b81526004810187905230906001600160a01b037f0000000000000000000000000000000000000000000000000000000000000000169063081812fc90602401602060405180830381865afa1580156123bd573d6000803e3d6000fd5b505050506040513d601f19601f820116820180604052508101906123e19190614416565b6001600160a01b031614155b1561240b57604051631c4f6a7160e11b815260040160405180910390fd5b60208101516001600160a01b038116612437576040516374dbff7960e01b815260040160405180910390fd5b336001600160a01b0382160361246057604051633617ec7f60e21b815260040160405180910390fd5b60608201516001600160a01b031615801590612489575060608201516001600160a01b03163314155b156124a75760405163a969b35f60e01b815260040160405180910390fd5b6124b087613272565b6124cd576040516357b327e760e11b815260040160405180910390fd5b815134146124ee576040516349986e7360e01b815260040160405180910390fd5b604051636670434960e01b8152600481018890526000907f00000000000000000000000000000000000000000000000000000000000000006001600160a01b031690636670434990602401608060405180830381865afa158015612556573d6000803e3d6000fd5b505050506040513d601f19601f8201168201806040525081019061257a91906144c2565b9350505050801561259e5760405163b14aa60560e01b815260040160405180910390fd5b6000888152600660209081526040808320838155600180820180546001600160a01b031990811690915560028084018054831690556003938401805490921690915560088552838620845160808101865281546001600160a01b03908116808352948301541696810196909652908101549385019390935291015460608301523390036126635760008a81526008602052604080822080546001600160a01b031990811682556001820180549091169055600281018390556003019190915581015191505b60408086015190516323b872dd60e01b81526001600160a01b037f000000000000000000000000000000000000000000000000000000000000000016916323b872dd916126b791908b908f90600401614545565b600060405180830381600087803b1580156126d157600080fd5b505af11580156126e5573d6000803e3d6000fd5b5050505060008211156126fe5780516126fe9083613e49565b6127083485614009565b50604080513381526001600160a01b0386811660208301523492908a16918d917f9b53f736294544c8dcc2ef0b86a8855c522fa2cdfeed5b52061f8f0e97e1f299910160405180910390a4505060016000555050505050505050565b6000818152600560205260409020600101546001600160a01b0316331461279e576040516332a0bb6960e01b815260040160405180910390fd5b6000818152600560205260408082208281556001810180546001600160a01b03199081169091556002820180548216905560039091018054909116905551339183917fa92aff34e046840eb03a70da1750551a7cc813f27519416e1b05865eb26035169190a350565b61280f613e2e565b61ffff16600455565b60006127106002548361282b919061450c565b611eb59190614523565b600154600160a01b900460ff1615612860576040516313d0ff5960e31b815260040160405180910390fd5b80806000036128825760405163e7195f5160e01b815260040160405180910390fd5b604051624003bd60e41b81526004810184905260009081906001600160a01b037f000000000000000000000000000000000000000000000000000000000000000016906304003bd0906024016040805180830381865afa1580156128ea573d6000803e3d6000fd5b505050506040513d601f19601f8201168201806040525081019061290e9190614433565b91509150612920858560008585613ed8565b6040516001600160a01b038281168252831690859087907f749104dd5f8de8e4b889d790ea029b6ec8515f14cf73d20604b60e0b649a95df9060200160405180910390a45050505050565b600154600160a01b900460ff1615612996576040516313d0ff5960e31b815260040160405180910390fd5b6002600054036129b85760405162461bcd60e51b815260040161110790614462565b6002600081815583815260086020908152604091829020825160808101845281546001600160a01b039081168083526001840154909116938201939093529381015492840192909252600390910154606083015280612a2a57604051637ccf97e760e01b815260040160405180910390fd5b336001600160a01b03821603612a53576040516309f6914560e21b815260040160405180910390fd5b826001600160a01b0316816001600160a01b031614612a8557604051630e5d99a160e41b815260040160405180910390fd5b60008060007f00000000000000000000000000000000000000000000000000000000000000006001600160a01b03166366704349886040518263ffffffff1660e01b8152600401612ad891815260200190565b608060405180830381865afa158015612af5573d6000803e3d6000fd5b505050506040513d601f19601f82011682018060405250810190612b1991906144c2565b93509350509250336001600160a01b0316826001600160a01b031614612b5257604051633e79b9f360e01b815260040160405180910390fd5b8015612b715760405163b14aa60560e01b815260040160405180910390fd5b6000878152600660209081526040808320838155600180820180546001600160a01b0319908116909155600280840180548316905560039384018054831690556008865284872080548316815592830180549092169091558101859055019290925586015190516323b872dd60e01b81527f00000000000000000000000000000000000000000000000000000000000000006001600160a01b0316916323b872dd91612c239187918c90600401614545565b600060405180830381600087803b158015612c3d57600080fd5b505af1158015612c51573d6000803e3d6000fd5b50505050612c63856040015183614009565b5060408086015190516001600160a01b0384811682528616919089907fc476c7174eb6bcf722015101bfd2abf9161ab48659b47e55f8b7260b06ebf0119060200160405180910390a4505060016000555050505050565b600154600160a01b900460ff1615612ce5576040516313d0ff5960e31b815260040160405180910390fd5b600260005403612d075760405162461bcd60e51b815260040161110790614462565b600260009081556040516331a9108f60e11b8152600481018490527f00000000000000000000000000000000000000000000000000000000000000006001600160a01b031690636352211e90602401602060405180830381865afa158015612d73573d6000803e3d6000fd5b505050506040513d601f19601f82011682018060405250810190612d979190614416565b60405163e985e9c560e01b81526001600160a01b0380831660048301523060248301529192507f00000000000000000000000000000000000000000000000000000000000000009091169063e985e9c590604401602060405180830381865afa158015612e08573d6000803e3d6000fd5b505050506040513d601f19601f82011682018060405250810190612e2c91906143f9565b158015612ecb575060405163020604bf60e21b81526004810184905230906001600160a01b037f0000000000000000000000000000000000000000000000000000000000000000169063081812fc90602401602060405180830381865afa158015612e9b573d6000803e3d6000fd5b505050506040513d601f19601f82011682018060405250810190612ebf9190614416565b6001600160a01b031614155b15612ee9576040516361cf5f1360e01b815260040160405180910390fd5b6001600160a01b0381163314612f1257604051633faa6c4560e01b815260040160405180910390fd5b6000838152600a602052604090205415801590612f4857506004546000848152600a6020526040902054612f469043614569565b105b15612f6657604051635fd7538560e01b815260040160405180910390fd5b600083815260076020908152604091829020825160608101845281546001600160a01b03168082526001830154938201939093526002909101549281019290925280612fc557604051637ccf97e760e01b815260040160405180910390fd5b336001600160a01b03821603612fee576040516309f6914560e21b815260040160405180910390fd5b836001600160a01b0316816001600160a01b03161461302057604051630e5d99a160e41b815260040160405180910390fd5b60008581526007602052604080822080546001600160a01b03191681556001810183905560020191909155516323b872dd60e01b81527f00000000000000000000000000000000000000000000000000000000000000006001600160a01b0316906323b872dd9061309990339085908a90600401614545565b600060405180830381600087803b1580156130b357600080fd5b505af11580156130c7573d6000803e3d6000fd5b505050506130d9826020015184614009565b506020808301516040516001600160a01b03868116825284169288917f93f583f5df123bec43b0c3403a5d3dae34bc2251a68523f99d3041cb80c6ea3891015b60405180910390a450506001600055505050565b60026000540361314f5760405162461bcd60e51b815260040161110790614462565b6002600081815582815260086020908152604091829020825160808101845281546001600160a01b039081168083526001840154909116938201939093529381015492840192909252600390910154606083015233146131c25760405163173f0e6f60e21b815260040160405180910390fd5b60608101516131d29060326144af565b4310156131f157604051623569d160e71b815260040160405180910390fd5b60008281526008602052604080822080546001600160a01b0319908116825560018201805490911690556002810183905560030191909155810151613237903390613e49565b6040808201519051339084907f7647025e5547900d10b38a3053f5fcb9037d89294d94600b0bfe4f48c798439690600090a450506001600055565b6000818152600660205260408120600101546001600160a01b031661329957506000919050565b604051636670434960e01b8152600481018390526000907f00000000000000000000000000000000000000000000000000000000000000006001600160a01b031690636670434990602401608060405180830381865afa158015613301573d6000803e3d6000fd5b505050506040513d601f19601f8201168201806040525081019061332591906144c2565b50600095865260066020526040909520600101546001600160a01b03958616951694909414949350505050565b600154600160a01b900460ff161561337d576040516313d0ff5960e31b815260040160405180910390fd5b60026000540361339f5760405162461bcd60e51b815260040161110790614462565b600260008181558281526005602090815260409182902082516080810184528154815260018201546001600160a01b03908116938201849052948201548516938101939093526003015490921660608201529080613410576040516374dbff7960e01b815260040160405180910390fd5b336001600160a01b038216036134395760405163abcb310f60e01b815260040160405180910390fd5b60608201516001600160a01b031615801590613462575060608201516001600160a01b03163314155b1561348057604051634b38765560e01b815260040160405180910390fd5b6000838152600a6020526040902054158015906134b657506004546000848152600a60205260409020546134b49043614569565b105b156134d457604051635fd7538560e01b815260040160405180910390fd5b815134146134f5576040516349986e7360e01b815260040160405180910390fd5b602082015160405163e985e9c560e01b81526001600160a01b0391821660048201523060248201527f00000000000000000000000000000000000000000000000000000000000000009091169063e985e9c590604401602060405180830381865afa158015613568573d6000803e3d6000fd5b505050506040513d601f19601f8201168201806040525081019061358c91906143f9565b15801561362b575060405163020604bf60e21b81526004810184905230906001600160a01b037f0000000000000000000000000000000000000000000000000000000000000000169063081812fc90602401602060405180830381865afa1580156135fb573d6000803e3d6000fd5b505050506040513d601f19601f8201168201806040525081019061361f9190614416565b6001600160a01b031614155b15613649576040516361cf5f1360e01b815260040160405180910390fd5b6000838152600560209081526040808320838155600180820180546001600160a01b0319908116909155600280840180548316905560039093018054909116905560078452828520835160608101855281546001600160a01b0316808252928201549581019590955290910154918301919091523390036136f6576000858152600760209081526040822080546001600160a01b0319168155600181018390556002019190915581015191505b60208401516040516323b872dd60e01b81526001600160a01b037f000000000000000000000000000000000000000000000000000000000000000016916323b872dd9161374a919033908a90600401614545565b600060405180830381600087803b15801561376457600080fd5b505af1158015613778573d6000803e3d6000fd5b5050505060008211156137915780516137919083613e49565b61379b3484614009565b506040516001600160a01b03841681523490339087907f35e25b9a592362b9d470b2a4907c7ea3ae21ab1a1c9eb41e1fd146bc8a33f96f90602001613119565b600154600160a01b900460ff1615613806576040516313d0ff5960e31b815260040160405180910390fd5b81806000036138285760405163e7195f5160e01b815260040160405180910390fd5b6138328585611d61565b61384f57604051633e79b9f360e01b815260040160405180910390fd5b60405162525fcd60e91b81526001600160a01b0383811660048301527f0000000000000000000000000000000000000000000000000000000000000000169063a4bf9a0090602401602060405180830381865afa1580156138b4573d6000803e3d6000fd5b505050506040513d601f19601f820116820180604052508101906138d8919061457c565b156138f657604051632b7144e960e21b815260040160405180910390fd5b6040516311543c9960e31b815260048101859052602481018690527f00000000000000000000000000000000000000000000000000000000000000006001600160a01b031690638aa1e4c890604401602060405180830381865afa158015613962573d6000803e3d6000fd5b505050506040513d601f19601f8201168201806040525081019061398691906143f9565b156139a45760405163b14aa60560e01b815260040160405180910390fd5b6040516331a9108f60e11b8152600481018690526000907f00000000000000000000000000000000000000000000000000000000000000006001600160a01b031690636352211e90602401602060405180830381865afa158015613a0c573d6000803e3d6000fd5b505050506040513d601f19601f82011682018060405250810190613a309190614416565b604051624003bd60e41b8152600481018790529091506000906001600160a01b037f000000000000000000000000000000000000000000000000000000000000000016906304003bd0906024016040805180830381865afa158015613a99573d6000803e3d6000fd5b505050506040513d601f19601f82011682018060405250810190613abd9190614433565b5090506040518060800160405280868152602001826001600160a01b03168152602001836001600160a01b03168152602001856001600160a01b0316815250600660008981526020019081526020016000206000820151816000015560208201518160010160006101000a8154816001600160a01b0302191690836001600160a01b0316021790555060408201518160020160006101000a8154816001600160a01b0302191690836001600160a01b0316021790555060608201518160030160006101000a8154816001600160a01b0302191690836001600160a01b03160217905550905050806001600160a01b031685887f555474b2f514aef3d74de2861294e8e88446148aa4ece5df7b38bd45282850bd8588604051613bf59291906001600160a01b0392831681529116602082015260400190565b60405180910390a450505050505050565b613c0e613e2e565b63389a75e1600c52806000526020600c208054421115613c3657636f5e88186000526004601cfd5b6000905561052a81613fcb565b613c4b613e2e565b8060601b613c6157637448fbae6000526004601cfd5b61052a81613fcb565b336001600160a01b037f00000000000000000000000000000000000000000000000000000000000000001614613cb35760405163125e77d360e01b815260040160405180910390fd5b600082815260076020908152604091829020825160608101845281546001600160a01b039081168083526001840154948301949094526002909201549381019390935283169003611394576000838152600760209081526040822080546001600160a01b031916815560018101839055600201919091558151908201516113949190613e49565b613d448282611d61565b613d6157604051633e79b9f360e01b815260040160405180910390fd5b6000828152600660205260409020600101546001600160a01b031680613d9a57604051632c8efc6560e21b815260040160405180910390fd5b6001600160a01b0381163314613dc3576040516332a0bb6960e01b815260040160405180910390fd5b6000838152600660205260408082208281556001810180546001600160a01b03199081169091556002820180548216905560039091018054909116905551339185917f21b2d85fdbbcaac8efe168e1803aff7a5d97e8cfc1ed65b039c118c246ac46349190a3505050565b638b78c6d819543314611ecd576382b429006000526004601cfd5b6003546040516000916001600160a01b03851691849084818181858888f193505050503d8060008114613e98576040519150601f19603f3d011682016040523d82523d6000602084013e613e9d565b606091505b5050905080611394576001600160a01b03831660009081526009602052604081208054849290613ece9084906144af565b9091555050505050565b6001600160a01b0382163314613f0157604051633faa6c4560e01b815260040160405180910390fd5b604080516080810182529485526001600160a01b039283166020808701918252928416868301908152948416606087019081526000978852600590935295209351845593516001840180549183166001600160a01b03199283161790559151600284018054918316918416919091179055925160039092018054929093169116179055565b6107108282604051602401613f9c929190614595565b60408051601f198184030181529190526020810180516001600160e01b0316632d839cb360e21b179052614148565b638b78c6d81980546001600160a01b039092169182907f8be0079c531659141344cd1fd0a4f28419497f9722a3daafe3b4186f6b6457e0600080a355565b60008061401584612818565b905060006140238286614569565b6001546040519192506000916001600160a01b039091169084908381818185875af1925050503d8060008114614075576040519150601f19603f3d011682016040523d82523d6000602084013e61407a565b606091505b50509050806140b3576001546001600160a01b0316600090815260096020526040812080548592906140ad9084906144af565b90915550505b6003546040516001600160a01b038716919084906000818181858888f193505050503d8060008114614101576040519150601f19603f3d011682016040523d82523d6000602084013e614106565b606091505b5050809450508361413f576001600160a01b038516600090815260096020526040812080548492906141399084906144af565b90915550505b50505092915050565b80516a636f6e736f6c652e6c6f67602083016000808483855afa5050505050565b801515811461052a57600080fd5b60006020828403121561418957600080fd5b813561419481614169565b9392505050565b6000806000606084860312156141b057600080fd5b505081359360208301359350604090920135919050565b6000602082840312156141d957600080fd5b5035919050565b6001600160a01b038116811461052a57600080fd5b8035614200816141e0565b919050565b60006020828403121561421757600080fd5b8135614194816141e0565b6000806040838503121561423557600080fd5b823591506020830135614247816141e0565b809150509250929050565b634e487b7160e01b600052604160045260246000fd5b6000806040838503121561427b57600080fd5b8235915060208084013567ffffffffffffffff8082111561429b57600080fd5b818601915086601f8301126142af57600080fd5b8135818111156142c1576142c1614252565b8060051b604051601f19603f830116810181811085821117156142e6576142e6614252565b60405291825284820192508381018501918983111561430457600080fd5b938501935b828510156143295761431a856141f5565b84529385019392850192614309565b8096505050505050509250929050565b60008060006060848603121561434e57600080fd5b83359250602084013591506040840135614367816141e0565b809150509250925092565b6000806040838503121561438557600080fd5b50508035926020909101359150565b6000602082840312156143a657600080fd5b813561ffff8116811461419457600080fd5b600080600080608085870312156143ce57600080fd5b84359350602085013592506040850135915060608501356143ee816141e0565b939692955090935050565b60006020828403121561440b57600080fd5b815161419481614169565b60006020828403121561442857600080fd5b8151614194816141e0565b6000806040838503121561444657600080fd5b8251614451816141e0565b6020840151909250614247816141e0565b6020808252601f908201527f5265656e7472616e637947756172643a207265656e7472616e742063616c6c00604082015260600190565b634e487b7160e01b600052601160045260246000fd5b80820180821115611eb557611eb5614499565b600080600080608085870312156144d857600080fd5b84516144e3816141e0565b6020860151604087015191955093506144fb816141e0565b60608601519092506143ee81614169565b8082028115828204841417611eb557611eb5614499565b60008261454057634e487b7160e01b600052601260045260246000fd5b500490565b6001600160a01b039384168152919092166020820152604081019190915260600190565b81810381811115611eb557611eb5614499565b60006020828403121561458e57600080fd5b5051919050565b604081526000835180604084015260005b818110156145c357602081870181015160608684010152016145a6565b506000606082850101526060601f19601f830116840101915050826020830152939250505056fea2646970667358221220d5eb3ee239a5f3a2f8ef5df22a7960e83e548102daf11192780be83b19b1cf4b64736f6c63430008160033","linkReferences":{}},"methodIdentifiers":{"CHONKS_MAIN()":"4de8cdf6","CHONK_TRAITS()":"170c14d9","acceptBidForChonk(uint256,address)":"cca59759","acceptBidForTrait(uint256,address)":"b5baf476","bidOnChonk(uint256)":"5793b22e","bidOnTrait(uint256,uint256)":"571ccb74","buyChonk(uint256)":"ebd34a88","buyTrait(uint256,uint256)":"917e3a7c","calculateRoyalty(uint256)":"a2e69613","cancelOfferChonk(uint256)":"9f24c945","cancelOfferTrait(uint256,uint256)":"f827d632","cancelOwnershipHandover()":"54d1f13d","chonkBids(uint256)":"65318c86","chonkCooldownPeriod()":"2f3a291c","chonkIdToLastTraitTransferBlock(uint256)":"d3cf8f8d","chonkOffers(uint256)":"8b322383","completeOwnershipHandover(address)":"f04e283e","deleteChonkBidsBeforeTokenTransfer(uint256,address)":"f495f5a8","deleteChonkOfferBeforeTokenTransfer(uint256)":"644ec527","deleteTraitBidsBeforeTokenTransfer(uint256,address)":"2fbe78f0","deleteTraitBidsBeforeTokenTransfer(uint256,address[])":"4666a416","deleteTraitOfferBeforeTokenTransferFromTraits(uint256)":"662c08cd","deleteTraitOffersBeforeTokenTransfer(uint256)":"2e1d274f","ensureTraitOwner(uint256,uint256)":"710b2719","gasStipend()":"9434c910","getChonkBid(uint256)":"0cbd0922","getChonkOffer(uint256)":"36442e30","getTraitBid(uint256)":"3ce0c372","getTraitOffer(uint256)":"f0988214","offerChonk(uint256,uint256)":"a4cc8324","offerChonkToAddress(uint256,uint256,address)":"4fc9923e","offerTrait(uint256,uint256,uint256)":"0b114256","offerTraitToAddress(uint256,uint256,uint256,address)":"ed89f704","owner()":"8da5cb5b","ownershipHandoverExpiresAt(address)":"fee81cf4","pausabilityRevoked()":"b1f3694e","pause(bool)":"02329a29","paused()":"5c975abb","removeChonkOfferOnTraitTransfer(uint256)":"46c627fe","renounceOwnership()":"715018a6","requestOwnershipHandover()":"25692962","revokePausability()":"361f1c52","royaltyPercentage()":"8a71bb2d","setChonkCooldownPeriod(uint256)":"24b786e2","setChonkCooldownPeriodBlocks(uint16)":"a0a0c4b8","setGasStipend(uint256)":"2619e11b","setRoyaltyPercentage(uint256)":"61ba27da","setTeamWallet(address)":"1525ff7d","teamWallet()":"59927044","traitBids(uint256)":"7dbc8619","traitOfferIsValid(uint256)":"e0882cf8","traitOffers(uint256)":"4f6088cd","transferOwnership(address)":"f2fde38b","withdrawBidOnChonk(uint256)":"795aded3","withdrawBidOnTrait(uint256)":"cecea401","withdrawFunds()":"24600fc3","withdrawableFunds(address)":"2f30cabd"},"id":44}