{"abi":[{"type":"constructor","inputs":[{"name":"_chonksMain","type":"address","internalType":"address"},{"name":"_chonkTraits","type":"address","internalType":"address"},{"name":"_royaltyPercentage","type":"uint8","internalType":"uint8"},{"name":"_teamWallet","type":"address","internalType":"address"}],"stateMutability":"nonpayable"},{"type":"function","name":"CHONKS_MAIN","inputs":[],"outputs":[{"name":"","type":"address","internalType":"contract ChonksMain"}],"stateMutability":"view"},{"type":"function","name":"CHONK_TRAITS","inputs":[],"outputs":[{"name":"","type":"address","internalType":"contract ChonkTraits"}],"stateMutability":"view"},{"type":"function","name":"acceptBidForChonk","inputs":[{"name":"_chonkId","type":"uint256","internalType":"uint256"},{"name":"_bidder","type":"address","internalType":"address"}],"outputs":[],"stateMutability":"nonpayable"},{"type":"function","name":"acceptBidForTrait","inputs":[{"name":"_traitId","type":"uint256","internalType":"uint256"},{"name":"_bidder","type":"address","internalType":"address"}],"outputs":[],"stateMutability":"nonpayable"},{"type":"function","name":"bidOnChonk","inputs":[{"name":"_chonkId","type":"uint256","internalType":"uint256"}],"outputs":[],"stateMutability":"payable"},{"type":"function","name":"bidOnTrait","inputs":[{"name":"_traitId","type":"uint256","internalType":"uint256"},{"name":"_yourChonkId","type":"uint256","internalType":"uint256"}],"outputs":[],"stateMutability":"payable"},{"type":"function","name":"buyChonk","inputs":[{"name":"_chonkId","type":"uint256","internalType":"uint256"}],"outputs":[],"stateMutability":"payable"},{"type":"function","name":"buyTrait","inputs":[{"name":"_traitId","type":"uint256","internalType":"uint256"},{"name":"_forChonkId","type":"uint256","internalType":"uint256"}],"outputs":[],"stateMutability":"payable"},{"type":"function","name":"calculateRoyalty","inputs":[{"name":"_amount","type":"uint256","internalType":"uint256"}],"outputs":[{"name":"","type":"uint256","internalType":"uint256"}],"stateMutability":"view"},{"type":"function","name":"cancelOfferChonk","inputs":[{"name":"_chonkId","type":"uint256","internalType":"uint256"}],"outputs":[],"stateMutability":"nonpayable"},{"type":"function","name":"cancelOfferTrait","inputs":[{"name":"_traitId","type":"uint256","internalType":"uint256"},{"name":"_chonkId","type":"uint256","internalType":"uint256"}],"outputs":[],"stateMutability":"nonpayable"},{"type":"function","name":"cancelOwnershipHandover","inputs":[],"outputs":[],"stateMutability":"payable"},{"type":"function","name":"chonkBids","inputs":[{"name":"chonkId","type":"uint256","internalType":"uint256"}],"outputs":[{"name":"bidder","type":"address","internalType":"address"},{"name":"amountInWei","type":"uint256","internalType":"uint256"},{"name":"encodedTraitIds","type":"bytes","internalType":"bytes"}],"stateMutability":"view"},{"type":"function","name":"chonkIdToApprovedOperators","inputs":[{"name":"chonkId","type":"uint256","internalType":"uint256"},{"name":"","type":"uint256","internalType":"uint256"}],"outputs":[{"name":"operators","type":"address","internalType":"address"}],"stateMutability":"view"},{"type":"function","name":"chonkOffers","inputs":[{"name":"chonkId","type":"uint256","internalType":"uint256"}],"outputs":[{"name":"priceInWei","type":"uint256","internalType":"uint256"},{"name":"seller","type":"address","internalType":"address"},{"name":"sellerTBA","type":"address","internalType":"address"},{"name":"onlySellTo","type":"address","internalType":"address"},{"name":"encodedTraitIds","type":"bytes","internalType":"bytes"}],"stateMutability":"view"},{"type":"function","name":"completeOwnershipHandover","inputs":[{"name":"pendingOwner","type":"address","internalType":"address"}],"outputs":[],"stateMutability":"payable"},{"type":"function","name":"deleteChonkBidsBeforeTokenTransfer","inputs":[{"name":"_chonkId","type":"uint256","internalType":"uint256"},{"name":"_toEOA","type":"address","internalType":"address"}],"outputs":[],"stateMutability":"nonpayable"},{"type":"function","name":"deleteChonkOfferBeforeTokenTransfer","inputs":[{"name":"_chonkId","type":"uint256","internalType":"uint256"}],"outputs":[],"stateMutability":"nonpayable"},{"type":"function","name":"deleteTraitBidsBeforeTokenTransfer","inputs":[{"name":"_traitId","type":"uint256","internalType":"uint256"},{"name":"_toTBA","type":"address","internalType":"address"}],"outputs":[],"stateMutability":"nonpayable"},{"type":"function","name":"deleteTraitBidsBeforeTokenTransfer","inputs":[{"name":"_traitId","type":"uint256","internalType":"uint256"},{"name":"_toTBAs","type":"address[]","internalType":"address[]"}],"outputs":[],"stateMutability":"nonpayable"},{"type":"function","name":"deleteTraitOffersBeforeTokenTransfer","inputs":[{"name":"_traitId","type":"uint256","internalType":"uint256"}],"outputs":[],"stateMutability":"nonpayable"},{"type":"function","name":"ensureTraitOwner","inputs":[{"name":"_traitId","type":"uint256","internalType":"uint256"},{"name":"_chonkId","type":"uint256","internalType":"uint256"}],"outputs":[{"name":"","type":"bool","internalType":"bool"}],"stateMutability":"view"},{"type":"function","name":"getChonkBid","inputs":[{"name":"_chonkId","type":"uint256","internalType":"uint256"}],"outputs":[{"name":"bidder","type":"address","internalType":"address"},{"name":"amountInWei","type":"uint256","internalType":"uint256"},{"name":"traitIds","type":"uint256[]","internalType":"uint256[]"},{"name":"encodedTraitIds","type":"bytes","internalType":"bytes"}],"stateMutability":"view"},{"type":"function","name":"getChonkOffer","inputs":[{"name":"_chonkId","type":"uint256","internalType":"uint256"}],"outputs":[{"name":"priceInWei","type":"uint256","internalType":"uint256"},{"name":"seller","type":"address","internalType":"address"},{"name":"sellerTBA","type":"address","internalType":"address"},{"name":"onlySellTo","type":"address","internalType":"address"},{"name":"traitIds","type":"uint256[]","internalType":"uint256[]"},{"name":"encodedTraitIds","type":"bytes","internalType":"bytes"}],"stateMutability":"view"},{"type":"function","name":"getTraitBid","inputs":[{"name":"_traitId","type":"uint256","internalType":"uint256"}],"outputs":[{"name":"bidder","type":"address","internalType":"address"},{"name":"bidderTBA","type":"address","internalType":"address"},{"name":"amountInWei","type":"uint256","internalType":"uint256"}],"stateMutability":"view"},{"type":"function","name":"getTraitIdsAndEncodingForChonk","inputs":[{"name":"_chonkId","type":"uint256","internalType":"uint256"}],"outputs":[{"name":"traitIds","type":"uint256[]","internalType":"uint256[]"},{"name":"encodedTraitIds","type":"bytes","internalType":"bytes"}],"stateMutability":"view"},{"type":"function","name":"getTraitOffer","inputs":[{"name":"_traitId","type":"uint256","internalType":"uint256"}],"outputs":[{"name":"priceInWei","type":"uint256","internalType":"uint256"},{"name":"seller","type":"address","internalType":"address"},{"name":"sellerTBA","type":"address","internalType":"address"},{"name":"onlySellTo","type":"address","internalType":"address"}],"stateMutability":"view"},{"type":"function","name":"offerChonk","inputs":[{"name":"_chonkId","type":"uint256","internalType":"uint256"},{"name":"_priceInWei","type":"uint256","internalType":"uint256"}],"outputs":[],"stateMutability":"nonpayable"},{"type":"function","name":"offerChonkToAddress","inputs":[{"name":"_chonkId","type":"uint256","internalType":"uint256"},{"name":"_priceInWei","type":"uint256","internalType":"uint256"},{"name":"_onlySellTo","type":"address","internalType":"address"}],"outputs":[],"stateMutability":"nonpayable"},{"type":"function","name":"offerTrait","inputs":[{"name":"_traitId","type":"uint256","internalType":"uint256"},{"name":"_chonkId","type":"uint256","internalType":"uint256"},{"name":"_priceInWei","type":"uint256","internalType":"uint256"}],"outputs":[],"stateMutability":"nonpayable"},{"type":"function","name":"offerTraitToAddress","inputs":[{"name":"_traitId","type":"uint256","internalType":"uint256"},{"name":"_chonkId","type":"uint256","internalType":"uint256"},{"name":"_priceInWei","type":"uint256","internalType":"uint256"},{"name":"_onlySellTo","type":"address","internalType":"address"}],"outputs":[],"stateMutability":"nonpayable"},{"type":"function","name":"offerTraitToChonkId","inputs":[{"name":"_traitId","type":"uint256","internalType":"uint256"},{"name":"_chonkId","type":"uint256","internalType":"uint256"},{"name":"_priceInWei","type":"uint256","internalType":"uint256"},{"name":"_onlySellToChonkId","type":"uint256","internalType":"uint256"}],"outputs":[],"stateMutability":"nonpayable"},{"type":"function","name":"owner","inputs":[],"outputs":[{"name":"result","type":"address","internalType":"address"}],"stateMutability":"view"},{"type":"function","name":"ownershipHandoverExpiresAt","inputs":[{"name":"pendingOwner","type":"address","internalType":"address"}],"outputs":[{"name":"result","type":"uint256","internalType":"uint256"}],"stateMutability":"view"},{"type":"function","name":"pausabilityRevoked","inputs":[],"outputs":[{"name":"","type":"bool","internalType":"bool"}],"stateMutability":"view"},{"type":"function","name":"pause","inputs":[{"name":"_value","type":"bool","internalType":"bool"}],"outputs":[],"stateMutability":"nonpayable"},{"type":"function","name":"paused","inputs":[],"outputs":[{"name":"","type":"bool","internalType":"bool"}],"stateMutability":"view"},{"type":"function","name":"removeChonkOfferOnTraitTransfer","inputs":[{"name":"_chonkId","type":"uint256","internalType":"uint256"}],"outputs":[],"stateMutability":"nonpayable"},{"type":"function","name":"renounceOwnership","inputs":[],"outputs":[],"stateMutability":"payable"},{"type":"function","name":"requestOwnershipHandover","inputs":[],"outputs":[],"stateMutability":"payable"},{"type":"function","name":"revokePausability","inputs":[],"outputs":[],"stateMutability":"nonpayable"},{"type":"function","name":"royaltyPercentage","inputs":[],"outputs":[{"name":"","type":"uint256","internalType":"uint256"}],"stateMutability":"view"},{"type":"function","name":"setRoyaltyPercentage","inputs":[{"name":"_royaltyPercentage","type":"uint256","internalType":"uint256"}],"outputs":[],"stateMutability":"nonpayable"},{"type":"function","name":"setTeamWallet","inputs":[{"name":"_teamWallet","type":"address","internalType":"address"}],"outputs":[],"stateMutability":"nonpayable"},{"type":"function","name":"teamWallet","inputs":[],"outputs":[{"name":"","type":"address","internalType":"address"}],"stateMutability":"view"},{"type":"function","name":"traitBids","inputs":[{"name":"traitId","type":"uint256","internalType":"uint256"}],"outputs":[{"name":"bidder","type":"address","internalType":"address"},{"name":"bidderTBA","type":"address","internalType":"address"},{"name":"amountInWei","type":"uint256","internalType":"uint256"}],"stateMutability":"view"},{"type":"function","name":"traitOffers","inputs":[{"name":"traitId","type":"uint256","internalType":"uint256"}],"outputs":[{"name":"priceInWei","type":"uint256","internalType":"uint256"},{"name":"seller","type":"address","internalType":"address"},{"name":"sellerTBA","type":"address","internalType":"address"},{"name":"onlySellTo","type":"address","internalType":"address"}],"stateMutability":"view"},{"type":"function","name":"transferOwnership","inputs":[{"name":"newOwner","type":"address","internalType":"address"}],"outputs":[],"stateMutability":"payable"},{"type":"function","name":"withdrawBidOnChonk","inputs":[{"name":"_chonkId","type":"uint256","internalType":"uint256"}],"outputs":[],"stateMutability":"nonpayable"},{"type":"function","name":"withdrawBidOnTrait","inputs":[{"name":"_traitId","type":"uint256","internalType":"uint256"}],"outputs":[],"stateMutability":"nonpayable"},{"type":"function","name":"withdrawFunds","inputs":[],"outputs":[],"stateMutability":"nonpayable"},{"type":"function","name":"withdrawableFunds","inputs":[{"name":"eoa","type":"address","internalType":"address"}],"outputs":[{"name":"balance","type":"uint256","internalType":"uint256"}],"stateMutability":"view"},{"type":"event","name":"ChonkBidAccepted","inputs":[{"name":"chonkId","type":"uint256","indexed":true,"internalType":"uint256"},{"name":"amountInWei","type":"uint256","indexed":true,"internalType":"uint256"},{"name":"buyer","type":"address","indexed":true,"internalType":"address"},{"name":"seller","type":"address","indexed":false,"internalType":"address"}],"anonymous":false},{"type":"event","name":"ChonkBidEntered","inputs":[{"name":"chonkId","type":"uint256","indexed":true,"internalType":"uint256"},{"name":"bidder","type":"address","indexed":true,"internalType":"address"},{"name":"amountInWei","type":"uint256","indexed":true,"internalType":"uint256"}],"anonymous":false},{"type":"event","name":"ChonkBidWithdrawn","inputs":[{"name":"chonkId","type":"uint256","indexed":true,"internalType":"uint256"},{"name":"bidder","type":"address","indexed":true,"internalType":"address"},{"name":"amountInWei","type":"uint256","indexed":true,"internalType":"uint256"}],"anonymous":false},{"type":"event","name":"ChonkBought","inputs":[{"name":"chonkId","type":"uint256","indexed":true,"internalType":"uint256"},{"name":"buyer","type":"address","indexed":true,"internalType":"address"},{"name":"amountInWei","type":"uint256","indexed":true,"internalType":"uint256"},{"name":"seller","type":"address","indexed":false,"internalType":"address"}],"anonymous":false},{"type":"event","name":"ChonkOfferCanceled","inputs":[{"name":"chonkId","type":"uint256","indexed":true,"internalType":"uint256"},{"name":"seller","type":"address","indexed":true,"internalType":"address"}],"anonymous":false},{"type":"event","name":"ChonkOffered","inputs":[{"name":"chonkId","type":"uint256","indexed":true,"internalType":"uint256"},{"name":"price","type":"uint256","indexed":true,"internalType":"uint256"},{"name":"seller","type":"address","indexed":true,"internalType":"address"},{"name":"sellerTBA","type":"address","indexed":false,"internalType":"address"}],"anonymous":false},{"type":"event","name":"ChonkOfferedToAddress","inputs":[{"name":"chonkId","type":"uint256","indexed":true,"internalType":"uint256"},{"name":"price","type":"uint256","indexed":true,"internalType":"uint256"},{"name":"seller","type":"address","indexed":true,"internalType":"address"},{"name":"sellerTBA","type":"address","indexed":false,"internalType":"address"},{"name":"onlySellTo","type":"address","indexed":false,"internalType":"address"}],"anonymous":false},{"type":"event","name":"OwnershipHandoverCanceled","inputs":[{"name":"pendingOwner","type":"address","indexed":true,"internalType":"address"}],"anonymous":false},{"type":"event","name":"OwnershipHandoverRequested","inputs":[{"name":"pendingOwner","type":"address","indexed":true,"internalType":"address"}],"anonymous":false},{"type":"event","name":"OwnershipTransferred","inputs":[{"name":"oldOwner","type":"address","indexed":true,"internalType":"address"},{"name":"newOwner","type":"address","indexed":true,"internalType":"address"}],"anonymous":false},{"type":"event","name":"TraitBidAccepted","inputs":[{"name":"traitId","type":"uint256","indexed":true,"internalType":"uint256"},{"name":"amountInWei","type":"uint256","indexed":true,"internalType":"uint256"},{"name":"buyer","type":"address","indexed":true,"internalType":"address"},{"name":"seller","type":"address","indexed":false,"internalType":"address"}],"anonymous":false},{"type":"event","name":"TraitBidEntered","inputs":[{"name":"traitId","type":"uint256","indexed":true,"internalType":"uint256"},{"name":"bidder","type":"address","indexed":true,"internalType":"address"},{"name":"amountInWei","type":"uint256","indexed":true,"internalType":"uint256"}],"anonymous":false},{"type":"event","name":"TraitBidWithdrawn","inputs":[{"name":"traitId","type":"uint256","indexed":true,"internalType":"uint256"},{"name":"bidder","type":"address","indexed":true,"internalType":"address"},{"name":"amountInWei","type":"uint256","indexed":true,"internalType":"uint256"}],"anonymous":false},{"type":"event","name":"TraitBought","inputs":[{"name":"traitId","type":"uint256","indexed":true,"internalType":"uint256"},{"name":"buyerTBA","type":"address","indexed":true,"internalType":"address"},{"name":"amountInWei","type":"uint256","indexed":true,"internalType":"uint256"},{"name":"buyer","type":"address","indexed":false,"internalType":"address"},{"name":"seller","type":"address","indexed":false,"internalType":"address"}],"anonymous":false},{"type":"event","name":"TraitOfferCanceled","inputs":[{"name":"traitId","type":"uint256","indexed":true,"internalType":"uint256"},{"name":"seller","type":"address","indexed":true,"internalType":"address"}],"anonymous":false},{"type":"event","name":"TraitOffered","inputs":[{"name":"traitId","type":"uint256","indexed":true,"internalType":"uint256"},{"name":"price","type":"uint256","indexed":true,"internalType":"uint256"},{"name":"seller","type":"address","indexed":true,"internalType":"address"},{"name":"sellerTBA","type":"address","indexed":false,"internalType":"address"}],"anonymous":false},{"type":"event","name":"TraitOfferedToAddress","inputs":[{"name":"traitId","type":"uint256","indexed":true,"internalType":"uint256"},{"name":"price","type":"uint256","indexed":true,"internalType":"uint256"},{"name":"seller","type":"address","indexed":true,"internalType":"address"},{"name":"sellerTBA","type":"address","indexed":false,"internalType":"address"},{"name":"onlySellTo","type":"address","indexed":false,"internalType":"address"}],"anonymous":false},{"type":"error","name":"AlreadyInitialized","inputs":[]},{"type":"error","name":"ApproveTheMarketplace","inputs":[]},{"type":"error","name":"BidIsTooLow","inputs":[]},{"type":"error","name":"BidderChanged","inputs":[]},{"type":"error","name":"CMUnauthorized","inputs":[]},{"type":"error","name":"CantAcceptYourOwnBid","inputs":[]},{"type":"error","name":"CantBeZero","inputs":[]},{"type":"error","name":"CantBidOnYourOwnChonk","inputs":[]},{"type":"error","name":"CantBidOnYourOwnTrait","inputs":[]},{"type":"error","name":"CantBuyYourOwnChonk","inputs":[]},{"type":"error","name":"CantBuyYourOwnTrait","inputs":[]},{"type":"error","name":"NewOwnerIsZeroAddress","inputs":[]},{"type":"error","name":"NoBidToAccept","inputs":[]},{"type":"error","name":"NoHandoverRequest","inputs":[]},{"type":"error","name":"NoOfferToCancel","inputs":[]},{"type":"error","name":"NotYourBid","inputs":[]},{"type":"error","name":"NotYourChonk","inputs":[]},{"type":"error","name":"NotYourOffer","inputs":[]},{"type":"error","name":"NotYourTrait","inputs":[]},{"type":"error","name":"OfferDoesNotExist","inputs":[]},{"type":"error","name":"OnlyTraitContract","inputs":[]},{"type":"error","name":"PausabilityRevoked","inputs":[]},{"type":"error","name":"Paused","inputs":[]},{"type":"error","name":"TBANeedsToApproveMarketplace","inputs":[]},{"type":"error","name":"TraitEquipped","inputs":[]},{"type":"error","name":"TraitIdsChangedSinceBid","inputs":[]},{"type":"error","name":"TraitIdsChangedSinceListingRelist","inputs":[]},{"type":"error","name":"Unauthorized","inputs":[]},{"type":"error","name":"WithdrawFailed","inputs":[]},{"type":"error","name":"WrongAmount","inputs":[]},{"type":"error","name":"YouCantBuyThatChonk","inputs":[]},{"type":"error","name":"YouCantBuyThatTrait","inputs":[]}],"bytecode":{"object":"0x60c06040523480156200001157600080fd5b50604051620057d3380380620057d38339810160408190526200003491620000d2565b6001600055620000443362000079565b6001600160a01b0393841660805291831660a05260ff16600155600280546001600160a01b0319169190921617905562000136565b6001600160a01b0316638b78c6d8198190558060007f8be0079c531659141344cd1fd0a4f28419497f9722a3daafe3b4186f6b6457e08180a350565b80516001600160a01b0381168114620000cd57600080fd5b919050565b60008060008060808587031215620000e957600080fd5b620000f485620000b5565b93506200010460208601620000b5565b9250604085015160ff811681146200011b57600080fd5b91506200012b60608601620000b5565b905092959194509250565b60805160a05161555f62000274600039600081816103b101528181610c5f015281816110ee0152818161119a0152818161157b015281816116c6015281816122520152818161281301528181612919015281816129ac01528181612c86015281816130a8015281816135fd01526143980152600081816105bd01528181610bb501528181610cf5015281816110ba0152818161145001528181611619015281816117d10152818161199501528181611a5801528181611cba01528181611f98015281816122c4015281816126c50152818161277c01528181612b1701528181612ea601528181612ffe0152818161313e015281816131cc0152818161348d0152818161372501528181613a0601528181613e3301528181613ec80152818161419a015281816142ee0152818161442e0152614650015261555f6000f3fe6080604052600436106102ff5760003560e01c8063644ec52711610190578063af9ca0f2116100dc578063ed89f70411610095578063f2fde38b1161006f578063f2fde38b14610a4d578063f495f5a814610a60578063f827d63214610a80578063fee81cf414610aa057600080fd5b8063ed89f704146109a5578063f04e283e146109c5578063f0988214146109d857600080fd5b8063af9ca0f2146108f1578063b1f3694e14610911578063b5baf47614610932578063cca5975914610952578063cecea40114610972578063ebd34a881461099257600080fd5b80638a71bb2d11610149578063917e3a7c11610123578063917e3a7c1461087e5780639f24c94514610891578063a2e69613146108b1578063a4cc8324146108d157600080fd5b80638a71bb2d1461081e5780638b322383146108345780638da5cb5b1461086557600080fd5b8063644ec5271461073e57806365318c861461075e578063710b27191461078d578063715018a6146107ad578063795aded3146107b55780637dbc8619146107d557600080fd5b80634666a4161161024f57806354d1f13d116102085780635793b22e116101e25780635793b22e146106ba57806359927044146106cd5780635c975abb146106ed57806361ba27da1461071e57600080fd5b806354d1f13d1461067f57806355737f3514610687578063571ccb74146106a757600080fd5b80634666a4161461053d57806346c627fe1461055d578063472729bb1461057d5780634de8cdf6146105ab5780634f6088cd146105df5780634fc9923e1461065f57600080fd5b806325692962116102bc5780632fbe78f0116102965780632fbe78f014610463578063361f1c521461048357806336442e30146104985780633ce0c372146104ca57600080fd5b806325692962146104005780632e1d274f146104085780632f30cabd1461042857600080fd5b806302329a29146103045780630b114256146103265780630cbd0922146103465780631525ff7d1461037f578063170c14d91461039f57806324600fc3146103eb575b600080fd5b34801561031057600080fd5b5061032461031f366004614d50565b610ad3565b005b34801561033257600080fd5b50610324610341366004614d74565b610b24565b34801561035257600080fd5b50610366610361366004614da0565b610e3a565b6040516103769493929190614e3b565b60405180910390f35b34801561038b57600080fd5b5061032461039a366004614e94565b610f7f565b3480156103ab57600080fd5b506103d37f000000000000000000000000000000000000000000000000000000000000000081565b6040516001600160a01b039091168152602001610376565b3480156103f757600080fd5b50610324610fa9565b61032461105f565b34801561041457600080fd5b50610324610423366004614da0565b6110af565b34801561043457600080fd5b50610455610443366004614e94565b60076020526000908152604090205481565b604051908152602001610376565b34801561046f57600080fd5b5061032461047e366004614eb1565b61118f565b34801561048f57600080fd5b50610324611286565b3480156104a457600080fd5b506104b86104b3366004614da0565b6112ce565b60405161037696959493929190614ee1565b3480156104d657600080fd5b5061052e6104e5366004614da0565b600081815260066020908152604091829020825160608101845281546001600160a01b039081168083526001840154909116938201849052600290920154930183905293909250565b60405161037693929190614f3a565b34801561054957600080fd5b50610324610558366004614fc9565b611445565b34801561056957600080fd5b50610324610578366004614da0565b611570565b34801561058957600080fd5b5061059d610598366004614da0565b611612565b604051610376929190615074565b3480156105b757600080fd5b506103d37f000000000000000000000000000000000000000000000000000000000000000081565b3480156105eb57600080fd5b506106306105fa366004614da0565b600460205260009081526040902080546001820154600283015460039093015491926001600160a01b0391821692908216911684565b604080519485526001600160a01b03938416602086015291831691840191909152166060820152608001610376565b34801561066b57600080fd5b5061032461067a3660046150a2565b611762565b610324611894565b34801561069357600080fd5b506103d36106a23660046150db565b6118d0565b6103246106b53660046150db565b611908565b6103246106c8366004614da0565b611c2e565b3480156106d957600080fd5b506002546103d3906001600160a01b031681565b3480156106f957600080fd5b5060025461070e90600160a01b900460ff1681565b6040519015158152602001610376565b34801561072a57600080fd5b50610324610739366004614da0565b611f80565b34801561074a57600080fd5b50610324610759366004614da0565b611f8d565b34801561076a57600080fd5b5061077e610779366004614da0565b61217a565b604051610376939291906150fd565b34801561079957600080fd5b5061070e6107a83660046150db565b61222f565b610324612389565b3480156107c157600080fd5b506103246107d0366004614da0565b61239d565b3480156107e157600080fd5b5061052e6107f0366004614da0565b6006602052600090815260409020805460018201546002909201546001600160a01b03918216929091169083565b34801561082a57600080fd5b5061045560015481565b34801561084057600080fd5b5061085461084f366004614da0565b612591565b604051610376959493929190615124565b34801561087157600080fd5b50638b78c6d819546103d3565b61032461088c3660046150db565b61265b565b34801561089d57600080fd5b506103246108ac366004614da0565b612d55565b3480156108bd57600080fd5b506104556108cc366004614da0565b612e1a565b3480156108dd57600080fd5b506103246108ec3660046150db565b612e37565b3480156108fd57600080fd5b5061032461090c36600461515e565b612f6d565b34801561091d57600080fd5b5060025461070e90600160a81b900460ff1681565b34801561093e57600080fd5b5061032461094d366004614eb1565b613378565b34801561095e57600080fd5b5061032461096d366004614eb1565b6136bb565b34801561097e57600080fd5b5061032461098d366004614da0565b613ac4565b6103246109a0366004614da0565b613bc7565b3480156109b157600080fd5b506103246109c0366004615190565b61425d565b6103246109d3366004614e94565b6145e1565b3480156109e457600080fd5b506106306109f3366004614da0565b6000908152600460209081526040918290208251608081018452815480825260018301546001600160a01b039081169483018590526002840154811695830186905260039093015490921660609091018190529093919291565b610324610a5b366004614e94565b61461e565b348015610a6c57600080fd5b50610324610a7b366004614eb1565b614645565b348015610a8c57600080fd5b50610324610a9b3660046150db565b614814565b348015610aac57600080fd5b50610455610abb366004614e94565b63389a75e1600c908152600091909152602090205490565b610adb614908565b600254600160a81b900460ff1615610b065760405163d9ef8fb560e01b815260040160405180910390fd5b60028054911515600160a01b0260ff60a01b19909216919091179055565b600254600160a01b900460ff1615610b4f576040516313d0ff5960e31b815260040160405180910390fd5b8080600003610b715760405163e7195f5160e01b815260040160405180910390fd5b610b7b848461222f565b610b9857604051633e79b9f360e01b815260040160405180910390fd5b6040516311543c9960e31b815260048101849052602481018590527f00000000000000000000000000000000000000000000000000000000000000006001600160a01b031690638aa1e4c890604401602060405180830381865afa158015610c04573d6000803e3d6000fd5b505050506040513d601f19601f82011682018060405250810190610c2891906151d1565b15610c465760405163b14aa60560e01b815260040160405180910390fd5b6040516331a9108f60e11b8152600481018590526000907f00000000000000000000000000000000000000000000000000000000000000006001600160a01b031690636352211e90602401602060405180830381865afa158015610cae573d6000803e3d6000fd5b505050506040513d601f19601f82011682018060405250810190610cd291906151ee565b604051624003bd60e41b8152600481018690529091506000906001600160a01b037f000000000000000000000000000000000000000000000000000000000000000016906304003bd0906024016040805180830381865afa158015610d3b573d6000803e3d6000fd5b505050506040513d601f19601f82011682018060405250810190610d5f919061520b565b50604080516080810182528681526001600160a01b0380841660208084018281528884168587019081526000606087018181528f825260049094528790209551865590516001860180549186166001600160a01b03199283161790559051600286018054918616918316919091179055905160039094018054949093169316929092179055905191925090859088907fd81820ebfdde47351b4ac56296bba70e8f57f24195955168a1b5bf6b653e3d3a90610e2a9087906001600160a01b0391909116815260200190565b60405180910390a4505050505050565b6000818152600560209081526040808320815160808101835281546001600160a01b0316815260018201548185015260028201805484518187028101870186528181528796606096879689969590949186019392909190830182828015610ec057602002820191906000526020600020905b815481526020019060010190808311610eac575b50505050508152602001600382018054610ed99061523a565b80601f0160208091040260200160405190810160405280929190818152602001828054610f059061523a565b8015610f525780601f10610f2757610100808354040283529160200191610f52565b820191906000526020600020905b815481529060010190602001808311610f3557829003601f168201915b505050919092525050815160208301516040840151606090940151919a9099509297509550909350505050565b610f87614908565b600280546001600160a01b0319166001600160a01b0392909216919091179055565b600260005403610fd45760405162461bcd60e51b8152600401610fcb90615274565b60405180910390fd5b60026000908155338082526007602052604080832080549084905590519092919083908381818185875af1925050503d806000811461102f576040519150601f19603f3d011682016040523d82523d6000602084013e611034565b606091505b505090508061105657604051631d42c86760e21b815260040160405180910390fd5b50506001600055565b60006202a30067ffffffffffffffff164201905063389a75e1600c5233600052806020600c2055337fdbf36a107da19e49527a7176a1babf963b4b0ff8cde35ee35d6cd8f1f9ac7e1d600080a250565b336001600160a01b037f000000000000000000000000000000000000000000000000000000000000000016148015906111115750336001600160a01b037f00000000000000000000000000000000000000000000000000000000000000001614155b1561112f5760405163125e77d360e01b815260040160405180910390fd5b6000818152600460205260409020600101546001600160a01b03161561118c5760008181526004602052604081209081556001810180546001600160a01b0319908116909155600282018054821690556003909101805490911690555b50565b336001600160a01b037f000000000000000000000000000000000000000000000000000000000000000016146111d85760405163125e77d360e01b815260040160405180910390fd5b600082815260066020908152604091829020825160608101845281546001600160a01b03908116808352600184015490911693820193909352600290910154928101929092521561128157816001600160a01b031681602001516001600160a01b0316036112815760008381526006602052604080822080546001600160a01b031990811682556001820180549091169055600201919091558151908201516112819190614923565b505050565b61128e614908565b600254600160a81b900460ff16156112b95760405163d9ef8fb560e01b815260040160405180910390fd5b6002805460ff60a81b1916600160a81b179055565b6000818152600360208181526040808420815160c0810183528154815260018201546001600160a01b03908116828601526002830154811682850152948201549094166060858101919091526004820180548451818702810187019095528085528796879687969495869588959394919360808601939192909183018282801561137757602002820191906000526020600020905b815481526020019060010190808311611363575b505050505081526020016005820180546113909061523a565b80601f01602080910402602001604051908101604052809291908181526020018280546113bc9061523a565b80156114095780601f106113de57610100808354040283529160200191611409565b820191906000526020600020905b8154815290600101906020018083116113ec57829003601f168201915b5050509190925250508151602083015160408401516060850151608086015160a090960151939e929d50909b5099509297509550909350505050565b336001600160a01b037f0000000000000000000000000000000000000000000000000000000000000000161461148e5760405163125e77d360e01b815260040160405180910390fd5b600082815260066020908152604091829020825160608101845281546001600160a01b0390811680835260018401549091169382019390935260029091015492810192909252156112815760005b825181101561156a5760008382815181106114f9576114f96152ab565b60200260200101519050806001600160a01b031683602001516001600160a01b0316036115615760008581526006602052604080822080546001600160a01b031990811682556001820180549091169055600201919091558351908401516115619190614923565b506001016114dc565b50505050565b336001600160a01b037f000000000000000000000000000000000000000000000000000000000000000016146115b95760405163e007692f60e01b815260040160405180910390fd5b600081815260036020819052604082208281556001810180546001600160a01b0319908116909155600282018054821690559181018054909216909155906116046004830182614c8a565b611281600583016000614ca8565b60608060007f00000000000000000000000000000000000000000000000000000000000000006001600160a01b03166304003bd0856040518263ffffffff1660e01b815260040161166591815260200190565b6040805180830381865afa158015611681573d6000803e3d6000fd5b505050506040513d601f19601f820116820180604052508101906116a5919061520b565b60405162438b6360e81b81526001600160a01b0380831660048301529193507f0000000000000000000000000000000000000000000000000000000000000000909116915063438b630090602401600060405180830381865afa158015611710573d6000803e3d6000fd5b505050506040513d6000823e601f3d908101601f1916820160405261173891908101906152c1565b92508260405160200161174b9190615347565b604051602081830303815290604052915050915091565b600254600160a01b900460ff161561178d576040516313d0ff5960e31b815260040160405180910390fd5b81806000036117af5760405163e7195f5160e01b815260040160405180910390fd5b604051624003bd60e41b81526004810185905260009081906001600160a01b037f000000000000000000000000000000000000000000000000000000000000000016906304003bd0906024016040805180830381865afa158015611817573d6000803e3d6000fd5b505050506040513d601f19601f8201168201806040525081019061183b919061520b565b9150915061184c86868685856149b0565b604080516001600160a01b0383811682528681166020830152841691879189917f4b2696c0b570fe60ace24fc90fe3446d3328d0c3aaeed71e743603aaba978e789101610e2a565b63389a75e1600c523360005260006020600c2055337ffa7b8eab7da67f412cc9575ed43464468f9bfbae89d1675917346ca6d8fe3c92600080a2565b600860205281600052604060002081815481106118ec57600080fd5b6000918252602090912001546001600160a01b03169150829050565b348060000361192a5760405163e7195f5160e01b815260040160405180910390fd5b600254600160a01b900460ff1615611955576040516313d0ff5960e31b815260040160405180910390fd5b6002600054036119775760405162461bcd60e51b8152600401610fcb90615274565b60026000908155604051624003bd60e41b81526004810184905281907f00000000000000000000000000000000000000000000000000000000000000006001600160a01b0316906304003bd0906024016040805180830381865afa1580156119e3573d6000803e3d6000fd5b505050506040513d601f19601f82011682018060405250810190611a07919061520b565b90925090506001600160a01b0382163314611a3557604051633faa6c4560e01b815260040160405180910390fd5b604051636670434960e01b81526004810186905260009081906001600160a01b037f00000000000000000000000000000000000000000000000000000000000000001690636670434990602401608060405180830381865afa158015611a9f573d6000803e3d6000fd5b505050506040513d601f19601f82011682018060405250810190611ac3919061535a565b509250509150336001600160a01b0316816001600160a01b03161480611af157506001600160a01b03821633145b15611b0f576040516303d54cb760e11b815260040160405180910390fd5b600087815260066020908152604091829020825160608101845281546001600160a01b0390811682526001830154169281019290925260020154918101829052903411611b6f576040516386bed4cd60e01b815260040160405180910390fd5b604080516060810182523381526001600160a01b0386811660208084019182523484860190815260008e8152600690925290859020935184549084166001600160a01b03199182161785559151600185018054919094169216919091179091555160029091015581015115611bf057611bf081600001518260400151614923565b604051349033908a907f10962e2373847454af3c025d9b77161f5244f4e2a69e3e9ddf4954b2622a868990600090a450506001600055505050505050565b3480600003611c505760405163e7195f5160e01b815260040160405180910390fd5b600254600160a01b900460ff1615611c7b576040516313d0ff5960e31b815260040160405180910390fd5b600260005403611c9d5760405162461bcd60e51b8152600401610fcb90615274565b600260009081556040516331a9108f60e11b8152600481018490527f00000000000000000000000000000000000000000000000000000000000000006001600160a01b031690636352211e90602401602060405180830381865afa158015611d09573d6000803e3d6000fd5b505050506040513d601f19601f82011682018060405250810190611d2d91906151ee565b9050336001600160a01b03821603611d585760405163d2e7167f60e01b815260040160405180910390fd5b6000838152600560209081526040808320815160808101835281546001600160a01b03168152600182015481850152600282018054845181870281018701865281815292959394860193830182828015611dd157602002820191906000526020600020905b815481526020019060010190808311611dbd575b50505050508152602001600382018054611dea9061523a565b80601f0160208091040260200160405190810160405280929190818152602001828054611e169061523a565b8015611e635780601f10611e3857610100808354040283529160200191611e63565b820191906000526020600020905b815481529060010190602001808311611e4657829003601f168201915b505050505081525050905080602001513411611e92576040516386bed4cd60e01b815260040160405180910390fd5b600080611e9e86611612565b604080516080810182523381523460208083019182528284018681526060840186905260008d81526005835294909420835181546001600160a01b0319166001600160a01b03909116178155915160018301559251805195975093955090939092611f10926002850192910190614ce2565b5060608201516003820190611f2590826153f4565b505050602083015115611f4457611f4483600001518460200151614923565b6040513490339088907f5bcbf8d6be0293e172be2f32bd63e586fd65b0d15d70c845d393d73f2cfcff1790600090a45050600160005550505050565b611f88614908565b600155565b336001600160a01b037f00000000000000000000000000000000000000000000000000000000000000001614611fd65760405163125e77d360e01b815260040160405180910390fd5b6000818152600360208181526040808420815160c0810183528154815260018201546001600160a01b0390811682860152600283015481168285015294820154909416606085015260048101805483518186028101860190945280845291936080860193929083018282801561206b57602002820191906000526020600020905b815481526020019060010190808311612057575b505050505081526020016005820180546120849061523a565b80601f01602080910402602001604051908101604052809291908181526020018280546120b09061523a565b80156120fd5780601f106120d2576101008083540402835291602001916120fd565b820191906000526020600020905b8154815290600101906020018083116120e057829003601f168201915b5050509190925250505060208101519091506001600160a01b03161561217657600082815260036020819052604082208281556001810180546001600160a01b0319908116909155600282018054821690559181018054909216909155906121686004830182614c8a565b61156a600583016000614ca8565b5050565b6005602052600090815260409020805460018201546003830180546001600160a01b039093169391926121ac9061523a565b80601f01602080910402602001604051908101604052809291908181526020018280546121d89061523a565b80156122255780601f106121fa57610100808354040283529160200191612225565b820191906000526020600020905b81548152906001019060200180831161220857829003601f168201915b5050505050905083565b6040516331a9108f60e11b81526004810183905260009081906001600160a01b037f00000000000000000000000000000000000000000000000000000000000000001690636352211e90602401602060405180830381865afa158015612299573d6000803e3d6000fd5b505050506040513d601f19601f820116820180604052508101906122bd91906151ee565b90506000807f00000000000000000000000000000000000000000000000000000000000000006001600160a01b03166304003bd0866040518263ffffffff1660e01b815260040161231091815260200190565b6040805180830381865afa15801561232c573d6000803e3d6000fd5b505050506040513d601f19601f82011682018060405250810190612350919061520b565b91509150806001600160a01b0316836001600160a01b031614801561237d57506001600160a01b03821633145b93505050505b92915050565b612391614908565b61239b6000614b12565b565b6002600054036123bf5760405162461bcd60e51b8152600401610fcb90615274565b60026000818155828152600560209081526040808320815160808101835281546001600160a01b031681526001820154818501529481018054835181860281018601855281815295969592949386019383018282801561243e57602002820191906000526020600020905b81548152602001906001019080831161242a575b505050505081526020016003820180546124579061523a565b80601f01602080910402602001604051908101604052809291908181526020018280546124839061523a565b80156124d05780601f106124a5576101008083540402835291602001916124d0565b820191906000526020600020905b8154815290600101906020018083116124b357829003601f168201915b5050509190925250508151919250506001600160a01b031633146125075760405163173f0e6f60e21b815260040160405180910390fd5b600082815260056020526040812080546001600160a01b031916815560018101829055906125386002830182614c8a565b612546600383016000614ca8565b5050612556338260200151614923565b6020810151604051339084907f42aa62a335199e81c12706e51f762071115ee5df409428ef670b00ee8b7a3d2690600090a450506001600055565b60036020819052600091825260409091208054600182015460028301549383015460058401805493956001600160a01b03938416959084169493909216926125d89061523a565b80601f01602080910402602001604051908101604052809291908181526020018280546126049061523a565b80156126515780601f1061262657610100808354040283529160200191612651565b820191906000526020600020905b81548152906001019060200180831161263457829003601f168201915b5050505050905085565b600254600160a01b900460ff1615612686576040516313d0ff5960e31b815260040160405180910390fd5b6002600054036126a85760405162461bcd60e51b8152600401610fcb90615274565b600260009081556040516331a9108f60e11b8152600481018390527f00000000000000000000000000000000000000000000000000000000000000006001600160a01b031690636352211e90602401602060405180830381865afa158015612714573d6000803e3d6000fd5b505050506040513d601f19601f8201168201806040525081019061273891906151ee565b90506001600160a01b038116331461276357604051633faa6c4560e01b815260040160405180910390fd5b604051639c05d68d60e01b8152600481018390526000907f00000000000000000000000000000000000000000000000000000000000000006001600160a01b031690639c05d68d90602401602060405180830381865afa1580156127cb573d6000803e3d6000fd5b505050506040513d601f19601f820116820180604052508101906127ef91906151ee565b6040516331a9108f60e11b8152600481018690529091506000906001600160a01b037f00000000000000000000000000000000000000000000000000000000000000001690636352211e90602401602060405180830381865afa15801561285a573d6000803e3d6000fd5b505050506040513d601f19601f8201168201806040525081019061287e91906151ee565b9050816001600160a01b0316816001600160a01b0316036128b257604051633617ec7f60e21b815260040160405180910390fd5b60008581526004602081815260409283902083516080810185528154815260018201546001600160a01b03908116938201939093526002820154831681860181905260039092015483166060820152935163e985e9c560e01b8152928301523060248301527f0000000000000000000000000000000000000000000000000000000000000000169063e985e9c590604401602060405180830381865afa158015612960573d6000803e3d6000fd5b505050506040513d601f19601f8201168201806040525081019061298491906151d1565b158015612a23575060405163020604bf60e21b81526004810187905230906001600160a01b037f0000000000000000000000000000000000000000000000000000000000000000169063081812fc90602401602060405180830381865afa1580156129f3573d6000803e3d6000fd5b505050506040513d601f19601f82011682018060405250810190612a1791906151ee565b6001600160a01b031614155b15612a4157604051631c4f6a7160e11b815260040160405180910390fd5b60208101516001600160a01b038116612a6d576040516374dbff7960e01b815260040160405180910390fd5b336001600160a01b03821603612a9657604051633617ec7f60e21b815260040160405180910390fd5b60608201516001600160a01b031615801590612abf575060608201516001600160a01b03163314155b15612add5760405163a969b35f60e01b815260040160405180910390fd5b81513414612afe576040516349986e7360e01b815260040160405180910390fd5b604051636670434960e01b8152600481018890526000907f00000000000000000000000000000000000000000000000000000000000000006001600160a01b031690636670434990602401608060405180830381865afa158015612b66573d6000803e3d6000fd5b505050506040513d601f19601f82011682018060405250810190612b8a919061535a565b93505050508015612bae5760405163b14aa60560e01b815260040160405180910390fd5b6000888152600460209081526040808320838155600180820180546001600160a01b031990811690915560028084018054831690556003909301805490911690556006845293829020825160608101845281546001600160a01b0390811680835296830154169481019490945201549082015290339003612c6a5760008981526006602052604080822080546001600160a01b03199081168255600182018054909116905560020191909155815190820151612c6a9190614923565b60408085015190516323b872dd60e01b81526001600160a01b037f000000000000000000000000000000000000000000000000000000000000000016916323b872dd91612cbe91908a908e90600401614f3a565b600060405180830381600087803b158015612cd857600080fd5b505af1158015612cec573d6000803e3d6000fd5b50505050612cfa3484614b50565b50604080513381526001600160a01b0385811660208301523492908916918c917f9b53f736294544c8dcc2ef0b86a8855c522fa2cdfeed5b52061f8f0e97e1f299910160405180910390a45050600160005550505050505050565b6000818152600360205260409020600101546001600160a01b03163314612d8f576040516332a0bb6960e01b815260040160405180910390fd5b600081815260036020819052604082208281556001810180546001600160a01b031990811690915560028201805482169055918101805490921690915590612dda6004830182614c8a565b612de8600583016000614ca8565b5050604051339082907fa92aff34e046840eb03a70da1750551a7cc813f27519416e1b05865eb260351690600090a350565b600061271060015483612e2d91906154ca565b61238391906154e1565b600254600160a01b900460ff1615612e62576040516313d0ff5960e31b815260040160405180910390fd5b8080600003612e845760405163e7195f5160e01b815260040160405180910390fd5b604051624003bd60e41b81526004810184905260009081906001600160a01b037f000000000000000000000000000000000000000000000000000000000000000016906304003bd0906024016040805180830381865afa158015612eec573d6000803e3d6000fd5b505050506040513d601f19601f82011682018060405250810190612f10919061520b565b91509150612f228585600085856149b0565b6040516001600160a01b038281168252831690859087907f749104dd5f8de8e4b889d790ea029b6ec8515f14cf73d20604b60e0b649a95df9060200160405180910390a45050505050565b600254600160a01b900460ff1615612f98576040516313d0ff5960e31b815260040160405180910390fd5b8180600003612fba5760405163e7195f5160e01b815260040160405180910390fd5b612fc4858561222f565b612fe157604051633e79b9f360e01b815260040160405180910390fd5b6040516311543c9960e31b815260048101859052602481018690527f00000000000000000000000000000000000000000000000000000000000000006001600160a01b031690638aa1e4c890604401602060405180830381865afa15801561304d573d6000803e3d6000fd5b505050506040513d601f19601f8201168201806040525081019061307191906151d1565b1561308f5760405163b14aa60560e01b815260040160405180910390fd5b6040516331a9108f60e11b8152600481018690526000907f00000000000000000000000000000000000000000000000000000000000000006001600160a01b031690636352211e90602401602060405180830381865afa1580156130f7573d6000803e3d6000fd5b505050506040513d601f19601f8201168201806040525081019061311b91906151ee565b604051624003bd60e41b8152600481018790529091506000906001600160a01b037f000000000000000000000000000000000000000000000000000000000000000016906304003bd0906024016040805180830381865afa158015613184573d6000803e3d6000fd5b505050506040513d601f19601f820116820180604052508101906131a8919061520b565b50604051624003bd60e41b8152600481018690529091506000906001600160a01b037f000000000000000000000000000000000000000000000000000000000000000016906304003bd0906024016040805180830381865afa158015613212573d6000803e3d6000fd5b505050506040513d601f19601f82011682018060405250810190613236919061520b565b9150506040518060800160405280878152602001836001600160a01b03168152602001846001600160a01b03168152602001826001600160a01b0316815250600460008a81526020019081526020016000206000820151816000015560208201518160010160006101000a8154816001600160a01b0302191690836001600160a01b0316021790555060408201518160020160006101000a8154816001600160a01b0302191690836001600160a01b0316021790555060608201518160030160006101000a8154816001600160a01b0302191690836001600160a01b03160217905550905050816001600160a01b031686897fd81820ebfdde47351b4ac56296bba70e8f57f24195955168a1b5bf6b653e3d3a8660405161336691906001600160a01b0391909116815260200190565b60405180910390a45050505050505050565b600254600160a01b900460ff16156133a3576040516313d0ff5960e31b815260040160405180910390fd5b6002600054036133c55760405162461bcd60e51b8152600401610fcb90615274565b6002600081815583815260066020908152604091829020825160608101845281546001600160a01b03908116808352600184015490911693820193909352930154918301919091528061342b57604051637ccf97e760e01b815260040160405180910390fd5b336001600160a01b03821603613454576040516309f6914560e21b815260040160405180910390fd5b826001600160a01b0316816001600160a01b03161461348657604051630e5d99a160e41b815260040160405180910390fd5b60008060007f00000000000000000000000000000000000000000000000000000000000000006001600160a01b03166366704349886040518263ffffffff1660e01b81526004016134d991815260200190565b608060405180830381865afa1580156134f6573d6000803e3d6000fd5b505050506040513d601f19601f8201168201806040525081019061351a919061535a565b93509350509250336001600160a01b0316826001600160a01b03161461355357604051633e79b9f360e01b815260040160405180910390fd5b80156135725760405163b14aa60560e01b815260040160405180910390fd5b6000878152600460209081526040808320838155600180820180546001600160a01b0319908116909155600280840180548316905560039093018054821690556006909452828520805485168155908101805490941690935591909101919091558501516135e09083614b50565b5060208501516040516323b872dd60e01b81526001600160a01b037f000000000000000000000000000000000000000000000000000000000000000016916323b872dd916136349187918c90600401614f3a565b600060405180830381600087803b15801561364e57600080fd5b505af1158015613662573d6000803e3d6000fd5b50505060408087015190516001600160a01b0385811682528716925089907fc476c7174eb6bcf722015101bfd2abf9161ab48659b47e55f8b7260b06ebf0119060200160405180910390a4505060016000555050505050565b600254600160a01b900460ff16156136e6576040516313d0ff5960e31b815260040160405180910390fd5b6002600054036137085760405162461bcd60e51b8152600401610fcb90615274565b600260009081556040516331a9108f60e11b8152600481018490527f00000000000000000000000000000000000000000000000000000000000000006001600160a01b031690636352211e90602401602060405180830381865afa158015613774573d6000803e3d6000fd5b505050506040513d601f19601f8201168201806040525081019061379891906151ee565b90506001600160a01b03811633146137c357604051633faa6c4560e01b815260040160405180910390fd5b6000838152600560209081526040808320815160808101835281546001600160a01b0316815260018201548185015260028201805484518187028101870186528181529295939486019383018282801561383c57602002820191906000526020600020905b815481526020019060010190808311613828575b505050505081526020016003820180546138559061523a565b80601f01602080910402602001604051908101604052809291908181526020018280546138819061523a565b80156138ce5780601f106138a3576101008083540402835291602001916138ce565b820191906000526020600020905b8154815290600101906020018083116138b157829003601f168201915b5050509190925250508151919250506001600160a01b03811661390457604051637ccf97e760e01b815260040160405180910390fd5b336001600160a01b0382160361392d576040516309f6914560e21b815260040160405180910390fd5b836001600160a01b0316816001600160a01b03161461395f57604051630e5d99a160e41b815260040160405180910390fd5b600061396a86611612565b91505082606001518051906020012081805190602001201461399f576040516331d1776560e11b815260040160405180910390fd5b600086815260056020526040812080546001600160a01b031916815560018101829055906139d06002830182614c8a565b6139de600383016000614ca8565b50506139ee836020015185614b50565b506040516323b872dd60e01b81526001600160a01b037f000000000000000000000000000000000000000000000000000000000000000016906323b872dd90613a3f90339086908b90600401614f3a565b600060405180830381600087803b158015613a5957600080fd5b505af1158015613a6d573d6000803e3d6000fd5b505050506020838101516040516001600160a01b03878116825285169289917f93f583f5df123bec43b0c3403a5d3dae34bc2251a68523f99d3041cb80c6ea38910160405180910390a45050600160005550505050565b600260005403613ae65760405162461bcd60e51b8152600401610fcb90615274565b6002600081815582815260066020908152604091829020825160608101845281546001600160a01b03908116808352600184015490911693820193909352930154918301919091523314613b4d5760405163173f0e6f60e21b815260040160405180910390fd5b60008281526006602052604080822080546001600160a01b03199081168255600182018054909116905560020191909155810151613b8c903390614923565b6040808201519051339084907f7647025e5547900d10b38a3053f5fcb9037d89294d94600b0bfe4f48c798439690600090a450506001600055565b600254600160a01b900460ff1615613bf2576040516313d0ff5960e31b815260040160405180910390fd5b600260005403613c145760405162461bcd60e51b8152600401610fcb90615274565b60026000818155828152600360208181526040808420815160c0810183528154815260018201546001600160a01b039081168286015296820154871681840152938101549095166060840152600485018054825181850281018501909352808352949593946080860193830182828015613cad57602002820191906000526020600020905b815481526020019060010190808311613c99575b50505050508152602001600582018054613cc69061523a565b80601f0160208091040260200160405190810160405280929190818152602001828054613cf29061523a565b8015613d3f5780601f10613d1457610100808354040283529160200191613d3f565b820191906000526020600020905b815481529060010190602001808311613d2257829003601f168201915b5050509190925250505060208101519091506001600160a01b038116613d78576040516374dbff7960e01b815260040160405180910390fd5b336001600160a01b03821603613da15760405163abcb310f60e01b815260040160405180910390fd5b60608201516001600160a01b031615801590613dca575060608201516001600160a01b03163314155b15613de857604051634b38765560e01b815260040160405180910390fd5b81513414613e09576040516349986e7360e01b815260040160405180910390fd5b602082015160405163e985e9c560e01b81526001600160a01b0391821660048201523060248201527f00000000000000000000000000000000000000000000000000000000000000009091169063e985e9c590604401602060405180830381865afa158015613e7c573d6000803e3d6000fd5b505050506040513d601f19601f82011682018060405250810190613ea091906151d1565b158015613f3f575060405163020604bf60e21b81526004810184905230906001600160a01b037f0000000000000000000000000000000000000000000000000000000000000000169063081812fc90602401602060405180830381865afa158015613f0f573d6000803e3d6000fd5b505050506040513d601f19601f82011682018060405250810190613f3391906151ee565b6001600160a01b031614155b15613f5d576040516361cf5f1360e01b815260040160405180910390fd5b6000613f6884611612565b9150508260a0015180519060200120818051906020012014613f9d576040516331d1776560e11b815260040160405180910390fd5b600084815260036020819052604082208281556001810180546001600160a01b031990811690915560028201805482169055918101805490921690915590613fe86004830182614c8a565b613ff6600583016000614ca8565b50506000848152600560209081526040808320815160808101835281546001600160a01b0316815260018201548185015260028201805484518187028101870186528181529295939486019383018282801561407157602002820191906000526020600020905b81548152602001906001019080831161405d575b5050505050815260200160038201805461408a9061523a565b80601f01602080910402602001604051908101604052809291908181526020018280546140b69061523a565b80156141035780601f106140d857610100808354040283529160200191614103565b820191906000526020600020905b8154815290600101906020018083116140e657829003601f168201915b5050505050815250509050336001600160a01b031681600001516001600160a01b03160361417e57600085815260056020526040812080546001600160a01b0319168155600181018290559061415c6002830182614c8a565b61416a600383016000614ca8565b505061417e81600001518260200151614923565b60208401516040516323b872dd60e01b81526001600160a01b037f000000000000000000000000000000000000000000000000000000000000000016916323b872dd916141d2919033908a90600401614f3a565b600060405180830381600087803b1580156141ec57600080fd5b505af1158015614200573d6000803e3d6000fd5b5050505061420e3484614b50565b506040516001600160a01b03841681523490339087907f35e25b9a592362b9d470b2a4907c7ea3ae21ab1a1c9eb41e1fd146bc8a33f96f9060200160405180910390a450506001600055505050565b600254600160a01b900460ff1615614288576040516313d0ff5960e31b815260040160405180910390fd5b81806000036142aa5760405163e7195f5160e01b815260040160405180910390fd5b6142b4858561222f565b6142d157604051633e79b9f360e01b815260040160405180910390fd5b6040516311543c9960e31b815260048101859052602481018690527f00000000000000000000000000000000000000000000000000000000000000006001600160a01b031690638aa1e4c890604401602060405180830381865afa15801561433d573d6000803e3d6000fd5b505050506040513d601f19601f8201168201806040525081019061436191906151d1565b1561437f5760405163b14aa60560e01b815260040160405180910390fd5b6040516331a9108f60e11b8152600481018690526000907f00000000000000000000000000000000000000000000000000000000000000006001600160a01b031690636352211e90602401602060405180830381865afa1580156143e7573d6000803e3d6000fd5b505050506040513d601f19601f8201168201806040525081019061440b91906151ee565b604051624003bd60e41b8152600481018790529091506000906001600160a01b037f000000000000000000000000000000000000000000000000000000000000000016906304003bd0906024016040805180830381865afa158015614474573d6000803e3d6000fd5b505050506040513d601f19601f82011682018060405250810190614498919061520b565b5090506040518060800160405280868152602001826001600160a01b03168152602001836001600160a01b03168152602001856001600160a01b0316815250600460008981526020019081526020016000206000820151816000015560208201518160010160006101000a8154816001600160a01b0302191690836001600160a01b0316021790555060408201518160020160006101000a8154816001600160a01b0302191690836001600160a01b0316021790555060608201518160030160006101000a8154816001600160a01b0302191690836001600160a01b03160217905550905050806001600160a01b031685887f555474b2f514aef3d74de2861294e8e88446148aa4ece5df7b38bd45282850bd85886040516145d09291906001600160a01b0392831681529116602082015260400190565b60405180910390a450505050505050565b6145e9614908565b63389a75e1600c52806000526020600c20805442111561461157636f5e88186000526004601cfd5b6000905561118c81614b12565b614626614908565b8060601b61463c57637448fbae6000526004601cfd5b61118c81614b12565b336001600160a01b037f0000000000000000000000000000000000000000000000000000000000000000161461468e5760405163125e77d360e01b815260040160405180910390fd5b6000828152600560209081526040808320815160808101835281546001600160a01b0316815260018201548185015260028201805484518187028101870186528181529295939486019383018282801561470757602002820191906000526020600020905b8154815260200190600101908083116146f3575b505050505081526020016003820180546147209061523a565b80601f016020809104026020016040519081016040528092919081815260200182805461474c9061523a565b80156147995780601f1061476e57610100808354040283529160200191614799565b820191906000526020600020905b81548152906001019060200180831161477c57829003601f168201915b5050505050815250509050816001600160a01b031681600001516001600160a01b03160361128157600083815260056020526040812080546001600160a01b031916815560018101829055906147f26002830182614c8a565b614800600383016000614ca8565b505061128181600001518260200151614923565b61481e828261222f565b61483b57604051633e79b9f360e01b815260040160405180910390fd5b6000828152600460205260409020600101546001600160a01b03168061487457604051632c8efc6560e21b815260040160405180910390fd5b6001600160a01b038116331461489d576040516332a0bb6960e01b815260040160405180910390fd5b6000838152600460205260408082208281556001810180546001600160a01b03199081169091556002820180548216905560039091018054909116905551339185917f21b2d85fdbbcaac8efe168e1803aff7a5d97e8cfc1ed65b039c118c246ac46349190a3505050565b638b78c6d81954331461239b576382b429006000526004601cfd5b6000826001600160a01b03168260405160006040518083038185875af1925050503d8060008114614970576040519150601f19603f3d011682016040523d82523d6000602084013e614975565b606091505b5050905080611281576001600160a01b038316600090815260076020526040812080548492906149a6908490615503565b9091555050505050565b6001600160a01b03821633146149d957604051633faa6c4560e01b815260040160405180910390fd5b6000806149e587611612565b915091506040518060c00160405280878152602001856001600160a01b03168152602001846001600160a01b03168152602001866001600160a01b0316815260200183815260200182815250600360008981526020019081526020016000206000820151816000015560208201518160010160006101000a8154816001600160a01b0302191690836001600160a01b0316021790555060408201518160020160006101000a8154816001600160a01b0302191690836001600160a01b0316021790555060608201518160030160006101000a8154816001600160a01b0302191690836001600160a01b031602179055506080820151816004019080519060200190614af1929190614ce2565b5060a08201516005820190614b0690826153f4565b50505050505050505050565b638b78c6d81980546001600160a01b039092169182907f8be0079c531659141344cd1fd0a4f28419497f9722a3daafe3b4186f6b6457e0600080a355565b600080614b5c84612e1a565b90506000614b6a8286615516565b6002546040519192506000916001600160a01b039091169084908381818185875af1925050503d8060008114614bbc576040519150601f19603f3d011682016040523d82523d6000602084013e614bc1565b606091505b5050905080614bfa576002546001600160a01b031660009081526007602052604081208054859290614bf4908490615503565b90915550505b6040516001600160a01b038616908390600081818185875af1925050503d8060008114614c43576040519150601f19603f3d011682016040523d82523d6000602084013e614c48565b606091505b50508094505083614c81576001600160a01b03851660009081526007602052604081208054849290614c7b908490615503565b90915550505b50505092915050565b508054600082559060005260206000209081019061118c9190614d2d565b508054614cb49061523a565b6000825580601f10614cc4575050565b601f01602090049060005260206000209081019061118c9190614d2d565b828054828255906000526020600020908101928215614d1d579160200282015b82811115614d1d578251825591602001919060010190614d02565b50614d29929150614d2d565b5090565b5b80821115614d295760008155600101614d2e565b801515811461118c57600080fd5b600060208284031215614d6257600080fd5b8135614d6d81614d42565b9392505050565b600080600060608486031215614d8957600080fd5b505081359360208301359350604090920135919050565b600060208284031215614db257600080fd5b5035919050565b60008151808452602080850194506020840160005b83811015614dea57815187529582019590820190600101614dce565b509495945050505050565b6000815180845260005b81811015614e1b57602081850181015186830182015201614dff565b506000602082860101526020601f19601f83011685010191505092915050565b60018060a01b0385168152836020820152608060408201526000614e626080830185614db9565b8281036060840152614e748185614df5565b979650505050505050565b6001600160a01b038116811461118c57600080fd5b600060208284031215614ea657600080fd5b8135614d6d81614e7f565b60008060408385031215614ec457600080fd5b823591506020830135614ed681614e7f565b809150509250929050565b8681526001600160a01b03868116602083015285811660408301528416606082015260c060808201819052600090614f1b90830185614db9565b82810360a0840152614f2d8185614df5565b9998505050505050505050565b6001600160a01b039384168152919092166020820152604081019190915260600190565b634e487b7160e01b600052604160045260246000fd5b604051601f8201601f1916810167ffffffffffffffff81118282101715614f9d57614f9d614f5e565b604052919050565b600067ffffffffffffffff821115614fbf57614fbf614f5e565b5060051b60200190565b60008060408385031215614fdc57600080fd5b8235915060208084013567ffffffffffffffff811115614ffb57600080fd5b8401601f8101861361500c57600080fd5b803561501f61501a82614fa5565b614f74565b81815260059190911b8201830190838101908883111561503e57600080fd5b928401925b8284101561506557833561505681614e7f565b82529284019290840190615043565b80955050505050509250929050565b6040815260006150876040830185614db9565b82810360208401526150998185614df5565b95945050505050565b6000806000606084860312156150b757600080fd5b833592506020840135915060408401356150d081614e7f565b809150509250925092565b600080604083850312156150ee57600080fd5b50508035926020909101359150565b60018060a01b03841681528260208201526060604082015260006150996060830184614df5565b8581526001600160a01b03858116602083015284811660408301528316606082015260a060808201819052600090614e7490830184614df5565b6000806000806080858703121561517457600080fd5b5050823594602084013594506040840135936060013592509050565b600080600080608085870312156151a657600080fd5b84359350602085013592506040850135915060608501356151c681614e7f565b939692955090935050565b6000602082840312156151e357600080fd5b8151614d6d81614d42565b60006020828403121561520057600080fd5b8151614d6d81614e7f565b6000806040838503121561521e57600080fd5b825161522981614e7f565b6020840151909250614ed681614e7f565b600181811c9082168061524e57607f821691505b60208210810361526e57634e487b7160e01b600052602260045260246000fd5b50919050565b6020808252601f908201527f5265656e7472616e637947756172643a207265656e7472616e742063616c6c00604082015260600190565b634e487b7160e01b600052603260045260246000fd5b600060208083850312156152d457600080fd5b825167ffffffffffffffff8111156152eb57600080fd5b8301601f810185136152fc57600080fd5b805161530a61501a82614fa5565b81815260059190911b8201830190838101908783111561532957600080fd5b928401925b82841015614e745783518252928401929084019061532e565b602081526000614d6d6020830184614db9565b6000806000806080858703121561537057600080fd5b845161537b81614e7f565b60208601516040870151919550935061539381614e7f565b60608601519092506151c681614d42565b601f821115611281576000816000526020600020601f850160051c810160208610156153cd5750805b601f850160051c820191505b818110156153ec578281556001016153d9565b505050505050565b815167ffffffffffffffff81111561540e5761540e614f5e565b6154228161541c845461523a565b846153a4565b602080601f831160018114615457576000841561543f5750858301515b600019600386901b1c1916600185901b1785556153ec565b600085815260208120601f198616915b8281101561548657888601518255948401946001909101908401615467565b50858210156154a45787850151600019600388901b60f8161c191681555b5050505050600190811b01905550565b634e487b7160e01b600052601160045260246000fd5b8082028115828204841417612383576123836154b4565b6000826154fe57634e487b7160e01b600052601260045260246000fd5b500490565b80820180821115612383576123836154b4565b81810381811115612383576123836154b456fea26469706673582212207775e81742c96c8bfd97b2c1331ecf9fdd55aaa9a70f73290aeac44843cb6f1f64736f6c63430008160033","linkReferences":{}},"methodIdentifiers":{"CHONKS_MAIN()":"4de8cdf6","CHONK_TRAITS()":"170c14d9","acceptBidForChonk(uint256,address)":"cca59759","acceptBidForTrait(uint256,address)":"b5baf476","bidOnChonk(uint256)":"5793b22e","bidOnTrait(uint256,uint256)":"571ccb74","buyChonk(uint256)":"ebd34a88","buyTrait(uint256,uint256)":"917e3a7c","calculateRoyalty(uint256)":"a2e69613","cancelOfferChonk(uint256)":"9f24c945","cancelOfferTrait(uint256,uint256)":"f827d632","cancelOwnershipHandover()":"54d1f13d","chonkBids(uint256)":"65318c86","chonkIdToApprovedOperators(uint256,uint256)":"55737f35","chonkOffers(uint256)":"8b322383","completeOwnershipHandover(address)":"f04e283e","deleteChonkBidsBeforeTokenTransfer(uint256,address)":"f495f5a8","deleteChonkOfferBeforeTokenTransfer(uint256)":"644ec527","deleteTraitBidsBeforeTokenTransfer(uint256,address)":"2fbe78f0","deleteTraitBidsBeforeTokenTransfer(uint256,address[])":"4666a416","deleteTraitOffersBeforeTokenTransfer(uint256)":"2e1d274f","ensureTraitOwner(uint256,uint256)":"710b2719","getChonkBid(uint256)":"0cbd0922","getChonkOffer(uint256)":"36442e30","getTraitBid(uint256)":"3ce0c372","getTraitIdsAndEncodingForChonk(uint256)":"472729bb","getTraitOffer(uint256)":"f0988214","offerChonk(uint256,uint256)":"a4cc8324","offerChonkToAddress(uint256,uint256,address)":"4fc9923e","offerTrait(uint256,uint256,uint256)":"0b114256","offerTraitToAddress(uint256,uint256,uint256,address)":"ed89f704","offerTraitToChonkId(uint256,uint256,uint256,uint256)":"af9ca0f2","owner()":"8da5cb5b","ownershipHandoverExpiresAt(address)":"fee81cf4","pausabilityRevoked()":"b1f3694e","pause(bool)":"02329a29","paused()":"5c975abb","removeChonkOfferOnTraitTransfer(uint256)":"46c627fe","renounceOwnership()":"715018a6","requestOwnershipHandover()":"25692962","revokePausability()":"361f1c52","royaltyPercentage()":"8a71bb2d","setRoyaltyPercentage(uint256)":"61ba27da","setTeamWallet(address)":"1525ff7d","teamWallet()":"59927044","traitBids(uint256)":"7dbc8619","traitOffers(uint256)":"4f6088cd","transferOwnership(address)":"f2fde38b","withdrawBidOnChonk(uint256)":"795aded3","withdrawBidOnTrait(uint256)":"cecea401","withdrawFunds()":"24600fc3","withdrawableFunds(address)":"2f30cabd"},"id":40}