{"abi":[{"type":"constructor","inputs":[{"name":"_chonksMain","type":"address","internalType":"address"},{"name":"_chonkTraits","type":"address","internalType":"address"},{"name":"_royaltyPercentage","type":"uint8","internalType":"uint8"},{"name":"_teamWallet","type":"address","internalType":"address"}],"stateMutability":"nonpayable"},{"type":"function","name":"CHONKS_MAIN","inputs":[],"outputs":[{"name":"","type":"address","internalType":"contract ChonksMain"}],"stateMutability":"view"},{"type":"function","name":"CHONK_TRAITS","inputs":[],"outputs":[{"name":"","type":"address","internalType":"contract ChonkTraits"}],"stateMutability":"view"},{"type":"function","name":"acceptBidForChonk","inputs":[{"name":"_chonkId","type":"uint256","internalType":"uint256"},{"name":"_bidder","type":"address","internalType":"address"}],"outputs":[],"stateMutability":"nonpayable"},{"type":"function","name":"acceptBidForTrait","inputs":[{"name":"_traitId","type":"uint256","internalType":"uint256"},{"name":"_bidder","type":"address","internalType":"address"}],"outputs":[],"stateMutability":"nonpayable"},{"type":"function","name":"bidOnChonk","inputs":[{"name":"_chonkId","type":"uint256","internalType":"uint256"}],"outputs":[],"stateMutability":"payable"},{"type":"function","name":"bidOnTrait","inputs":[{"name":"_traitId","type":"uint256","internalType":"uint256"},{"name":"_yourChonkId","type":"uint256","internalType":"uint256"}],"outputs":[],"stateMutability":"payable"},{"type":"function","name":"buyChonk","inputs":[{"name":"_chonkId","type":"uint256","internalType":"uint256"}],"outputs":[],"stateMutability":"payable"},{"type":"function","name":"buyTrait","inputs":[{"name":"_traitId","type":"uint256","internalType":"uint256"},{"name":"_forChonkId","type":"uint256","internalType":"uint256"}],"outputs":[],"stateMutability":"payable"},{"type":"function","name":"calculateRoyalty","inputs":[{"name":"_amount","type":"uint256","internalType":"uint256"}],"outputs":[{"name":"","type":"uint256","internalType":"uint256"}],"stateMutability":"view"},{"type":"function","name":"cancelOfferChonk","inputs":[{"name":"_chonkId","type":"uint256","internalType":"uint256"}],"outputs":[],"stateMutability":"nonpayable"},{"type":"function","name":"cancelOfferTrait","inputs":[{"name":"_traitId","type":"uint256","internalType":"uint256"},{"name":"_chonkId","type":"uint256","internalType":"uint256"}],"outputs":[],"stateMutability":"nonpayable"},{"type":"function","name":"cancelOwnershipHandover","inputs":[],"outputs":[],"stateMutability":"payable"},{"type":"function","name":"chonkBids","inputs":[{"name":"chonkId","type":"uint256","internalType":"uint256"}],"outputs":[{"name":"bidder","type":"address","internalType":"address"},{"name":"amountInWei","type":"uint256","internalType":"uint256"},{"name":"encodedTraitIds","type":"bytes","internalType":"bytes"}],"stateMutability":"view"},{"type":"function","name":"chonkIdToApprovedOperators","inputs":[{"name":"chonkId","type":"uint256","internalType":"uint256"},{"name":"","type":"uint256","internalType":"uint256"}],"outputs":[{"name":"operators","type":"address","internalType":"address"}],"stateMutability":"view"},{"type":"function","name":"chonkOffers","inputs":[{"name":"chonkId","type":"uint256","internalType":"uint256"}],"outputs":[{"name":"priceInWei","type":"uint256","internalType":"uint256"},{"name":"seller","type":"address","internalType":"address"},{"name":"sellerTBA","type":"address","internalType":"address"},{"name":"onlySellTo","type":"address","internalType":"address"},{"name":"encodedTraitIds","type":"bytes","internalType":"bytes"}],"stateMutability":"view"},{"type":"function","name":"completeOwnershipHandover","inputs":[{"name":"pendingOwner","type":"address","internalType":"address"}],"outputs":[],"stateMutability":"payable"},{"type":"function","name":"deleteChonkBidsBeforeTokenTransfer","inputs":[{"name":"_chonkId","type":"uint256","internalType":"uint256"},{"name":"_toEOA","type":"address","internalType":"address"}],"outputs":[],"stateMutability":"nonpayable"},{"type":"function","name":"deleteChonkOfferBeforeTokenTransfer","inputs":[{"name":"_chonkId","type":"uint256","internalType":"uint256"}],"outputs":[],"stateMutability":"nonpayable"},{"type":"function","name":"deleteTraitBidsBeforeTokenTransfer","inputs":[{"name":"_traitId","type":"uint256","internalType":"uint256"},{"name":"_toTBA","type":"address","internalType":"address"}],"outputs":[],"stateMutability":"nonpayable"},{"type":"function","name":"deleteTraitBidsBeforeTokenTransfer","inputs":[{"name":"_traitId","type":"uint256","internalType":"uint256"},{"name":"_toTBAs","type":"address[]","internalType":"address[]"}],"outputs":[],"stateMutability":"nonpayable"},{"type":"function","name":"deleteTraitOffersBeforeTokenTransfer","inputs":[{"name":"_traitId","type":"uint256","internalType":"uint256"}],"outputs":[],"stateMutability":"nonpayable"},{"type":"function","name":"ensureTraitOwner","inputs":[{"name":"_traitId","type":"uint256","internalType":"uint256"},{"name":"_chonkId","type":"uint256","internalType":"uint256"}],"outputs":[{"name":"","type":"bool","internalType":"bool"}],"stateMutability":"view"},{"type":"function","name":"getChonkBid","inputs":[{"name":"_chonkId","type":"uint256","internalType":"uint256"}],"outputs":[{"name":"bidder","type":"address","internalType":"address"},{"name":"amountInWei","type":"uint256","internalType":"uint256"},{"name":"traitIds","type":"uint256[]","internalType":"uint256[]"},{"name":"encodedTraitIds","type":"bytes","internalType":"bytes"}],"stateMutability":"view"},{"type":"function","name":"getChonkOffer","inputs":[{"name":"_chonkId","type":"uint256","internalType":"uint256"}],"outputs":[{"name":"priceInWei","type":"uint256","internalType":"uint256"},{"name":"seller","type":"address","internalType":"address"},{"name":"sellerTBA","type":"address","internalType":"address"},{"name":"onlySellTo","type":"address","internalType":"address"},{"name":"traitIds","type":"uint256[]","internalType":"uint256[]"},{"name":"encodedTraitIds","type":"bytes","internalType":"bytes"}],"stateMutability":"view"},{"type":"function","name":"getTraitBid","inputs":[{"name":"_traitId","type":"uint256","internalType":"uint256"}],"outputs":[{"name":"bidder","type":"address","internalType":"address"},{"name":"bidderTBA","type":"address","internalType":"address"},{"name":"amountInWei","type":"uint256","internalType":"uint256"}],"stateMutability":"view"},{"type":"function","name":"getTraitIdsAndEncodingForChonk","inputs":[{"name":"_chonkId","type":"uint256","internalType":"uint256"}],"outputs":[{"name":"traitIds","type":"uint256[]","internalType":"uint256[]"},{"name":"encodedTraitIds","type":"bytes","internalType":"bytes"}],"stateMutability":"view"},{"type":"function","name":"getTraitOffer","inputs":[{"name":"_traitId","type":"uint256","internalType":"uint256"}],"outputs":[{"name":"priceInWei","type":"uint256","internalType":"uint256"},{"name":"seller","type":"address","internalType":"address"},{"name":"sellerTBA","type":"address","internalType":"address"},{"name":"onlySellTo","type":"address","internalType":"address"}],"stateMutability":"view"},{"type":"function","name":"offerChonk","inputs":[{"name":"_chonkId","type":"uint256","internalType":"uint256"},{"name":"_priceInWei","type":"uint256","internalType":"uint256"}],"outputs":[],"stateMutability":"nonpayable"},{"type":"function","name":"offerChonkToAddress","inputs":[{"name":"_chonkId","type":"uint256","internalType":"uint256"},{"name":"_priceInWei","type":"uint256","internalType":"uint256"},{"name":"_onlySellTo","type":"address","internalType":"address"}],"outputs":[],"stateMutability":"nonpayable"},{"type":"function","name":"offerTrait","inputs":[{"name":"_traitId","type":"uint256","internalType":"uint256"},{"name":"_chonkId","type":"uint256","internalType":"uint256"},{"name":"_priceInWei","type":"uint256","internalType":"uint256"}],"outputs":[],"stateMutability":"nonpayable"},{"type":"function","name":"offerTraitToAddress","inputs":[{"name":"_traitId","type":"uint256","internalType":"uint256"},{"name":"_chonkId","type":"uint256","internalType":"uint256"},{"name":"_priceInWei","type":"uint256","internalType":"uint256"},{"name":"_onlySellTo","type":"address","internalType":"address"}],"outputs":[],"stateMutability":"nonpayable"},{"type":"function","name":"owner","inputs":[],"outputs":[{"name":"result","type":"address","internalType":"address"}],"stateMutability":"view"},{"type":"function","name":"ownershipHandoverExpiresAt","inputs":[{"name":"pendingOwner","type":"address","internalType":"address"}],"outputs":[{"name":"result","type":"uint256","internalType":"uint256"}],"stateMutability":"view"},{"type":"function","name":"pausabilityRevoked","inputs":[],"outputs":[{"name":"","type":"bool","internalType":"bool"}],"stateMutability":"view"},{"type":"function","name":"pause","inputs":[{"name":"_value","type":"bool","internalType":"bool"}],"outputs":[],"stateMutability":"nonpayable"},{"type":"function","name":"paused","inputs":[],"outputs":[{"name":"","type":"bool","internalType":"bool"}],"stateMutability":"view"},{"type":"function","name":"removeChonkOfferOnTraitTransfer","inputs":[{"name":"_chonkId","type":"uint256","internalType":"uint256"}],"outputs":[],"stateMutability":"nonpayable"},{"type":"function","name":"renounceOwnership","inputs":[],"outputs":[],"stateMutability":"payable"},{"type":"function","name":"requestOwnershipHandover","inputs":[],"outputs":[],"stateMutability":"payable"},{"type":"function","name":"revokePausability","inputs":[],"outputs":[],"stateMutability":"nonpayable"},{"type":"function","name":"royaltyPercentage","inputs":[],"outputs":[{"name":"","type":"uint256","internalType":"uint256"}],"stateMutability":"view"},{"type":"function","name":"setRoyaltyPercentage","inputs":[{"name":"_royaltyPercentage","type":"uint256","internalType":"uint256"}],"outputs":[],"stateMutability":"nonpayable"},{"type":"function","name":"setTeamWallet","inputs":[{"name":"_teamWallet","type":"address","internalType":"address"}],"outputs":[],"stateMutability":"nonpayable"},{"type":"function","name":"teamWallet","inputs":[],"outputs":[{"name":"","type":"address","internalType":"address"}],"stateMutability":"view"},{"type":"function","name":"traitBids","inputs":[{"name":"traitId","type":"uint256","internalType":"uint256"}],"outputs":[{"name":"bidder","type":"address","internalType":"address"},{"name":"bidderTBA","type":"address","internalType":"address"},{"name":"amountInWei","type":"uint256","internalType":"uint256"}],"stateMutability":"view"},{"type":"function","name":"traitOffers","inputs":[{"name":"traitId","type":"uint256","internalType":"uint256"}],"outputs":[{"name":"priceInWei","type":"uint256","internalType":"uint256"},{"name":"seller","type":"address","internalType":"address"},{"name":"sellerTBA","type":"address","internalType":"address"},{"name":"onlySellTo","type":"address","internalType":"address"}],"stateMutability":"view"},{"type":"function","name":"transferOwnership","inputs":[{"name":"newOwner","type":"address","internalType":"address"}],"outputs":[],"stateMutability":"payable"},{"type":"function","name":"withdrawBidOnChonk","inputs":[{"name":"_chonkId","type":"uint256","internalType":"uint256"}],"outputs":[],"stateMutability":"nonpayable"},{"type":"function","name":"withdrawBidOnTrait","inputs":[{"name":"_traitId","type":"uint256","internalType":"uint256"}],"outputs":[],"stateMutability":"nonpayable"},{"type":"function","name":"withdrawFunds","inputs":[],"outputs":[],"stateMutability":"nonpayable"},{"type":"function","name":"withdrawableFunds","inputs":[{"name":"eoa","type":"address","internalType":"address"}],"outputs":[{"name":"balance","type":"uint256","internalType":"uint256"}],"stateMutability":"view"},{"type":"event","name":"ChonkBidAccepted","inputs":[{"name":"chonkId","type":"uint256","indexed":true,"internalType":"uint256"},{"name":"amountInWei","type":"uint256","indexed":true,"internalType":"uint256"},{"name":"buyer","type":"address","indexed":true,"internalType":"address"},{"name":"seller","type":"address","indexed":false,"internalType":"address"}],"anonymous":false},{"type":"event","name":"ChonkBidEntered","inputs":[{"name":"chonkId","type":"uint256","indexed":true,"internalType":"uint256"},{"name":"bidder","type":"address","indexed":true,"internalType":"address"},{"name":"amountInWei","type":"uint256","indexed":true,"internalType":"uint256"}],"anonymous":false},{"type":"event","name":"ChonkBidWithdrawn","inputs":[{"name":"chonkId","type":"uint256","indexed":true,"internalType":"uint256"},{"name":"bidder","type":"address","indexed":true,"internalType":"address"},{"name":"amountInWei","type":"uint256","indexed":true,"internalType":"uint256"}],"anonymous":false},{"type":"event","name":"ChonkBought","inputs":[{"name":"chonkId","type":"uint256","indexed":true,"internalType":"uint256"},{"name":"buyer","type":"address","indexed":true,"internalType":"address"},{"name":"amountInWei","type":"uint256","indexed":true,"internalType":"uint256"},{"name":"seller","type":"address","indexed":false,"internalType":"address"}],"anonymous":false},{"type":"event","name":"ChonkOfferCanceled","inputs":[{"name":"chonkId","type":"uint256","indexed":true,"internalType":"uint256"},{"name":"seller","type":"address","indexed":true,"internalType":"address"}],"anonymous":false},{"type":"event","name":"ChonkOffered","inputs":[{"name":"chonkId","type":"uint256","indexed":true,"internalType":"uint256"},{"name":"price","type":"uint256","indexed":true,"internalType":"uint256"},{"name":"seller","type":"address","indexed":true,"internalType":"address"},{"name":"sellerTBA","type":"address","indexed":false,"internalType":"address"}],"anonymous":false},{"type":"event","name":"ChonkOfferedToAddress","inputs":[{"name":"chonkId","type":"uint256","indexed":true,"internalType":"uint256"},{"name":"price","type":"uint256","indexed":true,"internalType":"uint256"},{"name":"seller","type":"address","indexed":true,"internalType":"address"},{"name":"sellerTBA","type":"address","indexed":false,"internalType":"address"},{"name":"onlySellTo","type":"address","indexed":false,"internalType":"address"}],"anonymous":false},{"type":"event","name":"OwnershipHandoverCanceled","inputs":[{"name":"pendingOwner","type":"address","indexed":true,"internalType":"address"}],"anonymous":false},{"type":"event","name":"OwnershipHandoverRequested","inputs":[{"name":"pendingOwner","type":"address","indexed":true,"internalType":"address"}],"anonymous":false},{"type":"event","name":"OwnershipTransferred","inputs":[{"name":"oldOwner","type":"address","indexed":true,"internalType":"address"},{"name":"newOwner","type":"address","indexed":true,"internalType":"address"}],"anonymous":false},{"type":"event","name":"TraitBidAccepted","inputs":[{"name":"traitId","type":"uint256","indexed":true,"internalType":"uint256"},{"name":"amountInWei","type":"uint256","indexed":true,"internalType":"uint256"},{"name":"buyer","type":"address","indexed":true,"internalType":"address"},{"name":"seller","type":"address","indexed":false,"internalType":"address"}],"anonymous":false},{"type":"event","name":"TraitBidEntered","inputs":[{"name":"traitId","type":"uint256","indexed":true,"internalType":"uint256"},{"name":"bidder","type":"address","indexed":true,"internalType":"address"},{"name":"amountInWei","type":"uint256","indexed":true,"internalType":"uint256"}],"anonymous":false},{"type":"event","name":"TraitBidWithdrawn","inputs":[{"name":"traitId","type":"uint256","indexed":true,"internalType":"uint256"},{"name":"bidder","type":"address","indexed":true,"internalType":"address"},{"name":"amountInWei","type":"uint256","indexed":true,"internalType":"uint256"}],"anonymous":false},{"type":"event","name":"TraitBought","inputs":[{"name":"traitId","type":"uint256","indexed":true,"internalType":"uint256"},{"name":"buyerTBA","type":"address","indexed":true,"internalType":"address"},{"name":"amountInWei","type":"uint256","indexed":true,"internalType":"uint256"},{"name":"buyer","type":"address","indexed":false,"internalType":"address"},{"name":"seller","type":"address","indexed":false,"internalType":"address"}],"anonymous":false},{"type":"event","name":"TraitOfferCanceled","inputs":[{"name":"traitId","type":"uint256","indexed":true,"internalType":"uint256"},{"name":"seller","type":"address","indexed":true,"internalType":"address"}],"anonymous":false},{"type":"event","name":"TraitOffered","inputs":[{"name":"traitId","type":"uint256","indexed":true,"internalType":"uint256"},{"name":"price","type":"uint256","indexed":true,"internalType":"uint256"},{"name":"seller","type":"address","indexed":true,"internalType":"address"},{"name":"sellerTBA","type":"address","indexed":false,"internalType":"address"}],"anonymous":false},{"type":"event","name":"TraitOfferedToAddress","inputs":[{"name":"traitId","type":"uint256","indexed":true,"internalType":"uint256"},{"name":"price","type":"uint256","indexed":true,"internalType":"uint256"},{"name":"seller","type":"address","indexed":true,"internalType":"address"},{"name":"sellerTBA","type":"address","indexed":false,"internalType":"address"},{"name":"onlySellTo","type":"address","indexed":false,"internalType":"address"}],"anonymous":false},{"type":"error","name":"AlreadyInitialized","inputs":[]},{"type":"error","name":"ApproveTheMarketplace","inputs":[]},{"type":"error","name":"BidIsTooLow","inputs":[]},{"type":"error","name":"BidderChanged","inputs":[]},{"type":"error","name":"CMUnauthorized","inputs":[]},{"type":"error","name":"CantAcceptYourOwnBid","inputs":[]},{"type":"error","name":"CantBeZero","inputs":[]},{"type":"error","name":"CantBidOnYourOwnChonk","inputs":[]},{"type":"error","name":"CantBidOnYourOwnTrait","inputs":[]},{"type":"error","name":"CantBuyYourOwnChonk","inputs":[]},{"type":"error","name":"CantBuyYourOwnTrait","inputs":[]},{"type":"error","name":"NewOwnerIsZeroAddress","inputs":[]},{"type":"error","name":"NoBidToAccept","inputs":[]},{"type":"error","name":"NoHandoverRequest","inputs":[]},{"type":"error","name":"NoOfferToCancel","inputs":[]},{"type":"error","name":"NotYourBid","inputs":[]},{"type":"error","name":"NotYourChonk","inputs":[]},{"type":"error","name":"NotYourOffer","inputs":[]},{"type":"error","name":"NotYourTrait","inputs":[]},{"type":"error","name":"OfferDoesNotExist","inputs":[]},{"type":"error","name":"OnlySellToEOAs","inputs":[]},{"type":"error","name":"OnlyTraitContract","inputs":[]},{"type":"error","name":"PausabilityRevoked","inputs":[]},{"type":"error","name":"Paused","inputs":[]},{"type":"error","name":"TBANeedsToApproveMarketplace","inputs":[]},{"type":"error","name":"TraitEquipped","inputs":[]},{"type":"error","name":"TraitIdsChangedSinceBid","inputs":[]},{"type":"error","name":"TraitIdsChangedSinceListingRelist","inputs":[]},{"type":"error","name":"Unauthorized","inputs":[]},{"type":"error","name":"WithdrawFailed","inputs":[]},{"type":"error","name":"WrongAmount","inputs":[]},{"type":"error","name":"YouCantBuyThatChonk","inputs":[]},{"type":"error","name":"YouCantBuyThatTrait","inputs":[]}],"bytecode":{"object":"0x60c06040523480156200001157600080fd5b506040516200557d3803806200557d8339810160408190526200003491620000d2565b6001600055620000443362000079565b6001600160a01b0393841660805291831660a05260ff16600155600280546001600160a01b0319169190921617905562000136565b6001600160a01b0316638b78c6d8198190558060007f8be0079c531659141344cd1fd0a4f28419497f9722a3daafe3b4186f6b6457e08180a350565b80516001600160a01b0381168114620000cd57600080fd5b919050565b60008060008060808587031215620000e957600080fd5b620000f485620000b5565b93506200010460208601620000b5565b9250604085015160ff811681146200011b57600080fd5b91506200012b60608601620000b5565b905092959194509250565b60805160a0516153106200026d6000396000818161039601528181610c24015281816110b80152818161116401528181611545015281816116900152818161221c015281816127dd015281816128e30152818161297601528181612c5b015281816131c801526141580152600081816105a201528181610b7a01528181610cba015281816110840152818161141a015281816115e30152818161179b0152818161195f01528181611a2201528181611c8401528181611f620152818161228e0152818161268f0152818161274601528181612ae101528181612e7c01528181613058015281816132f00152818161338b015281816134200152818161372101528181613b4f01528181613be401528181613ec201528181614008015281816140ae015281816141ee015261441001526153106000f3fe6080604052600436106102e45760003560e01c806361ba27da11610190578063a4cc8324116100dc578063ed89f70411610095578063f2fde38b1161006f578063f2fde38b14610a12578063f495f5a814610a25578063f827d63214610a45578063fee81cf414610a6557600080fd5b8063ed89f7041461096a578063f04e283e1461098a578063f09882141461099d57600080fd5b8063a4cc8324146108b6578063b1f3694e146108d6578063b5baf476146108f7578063cca5975914610917578063cecea40114610937578063ebd34a881461095757600080fd5b80637dbc8619116101495780638da5cb5b116101235780638da5cb5b1461084a578063917e3a7c146108635780639f24c94514610876578063a2e696131461089657600080fd5b80637dbc8619146107ba5780638a71bb2d146108035780638b3223831461081957600080fd5b806361ba27da14610703578063644ec5271461072357806365318c8614610743578063710b271914610772578063715018a614610792578063795aded31461079a57600080fd5b80633ce0c3721161024f5780634fc9923e11610208578063571ccb74116101e2578063571ccb741461068c5780635793b22e1461069f57806359927044146106b25780635c975abb146106d257600080fd5b80634fc9923e1461064457806354d1f13d1461066457806355737f351461066c57600080fd5b80633ce0c372146104af5780634666a4161461052257806346c627fe14610542578063472729bb146105625780634de8cdf6146105905780634f6088cd146105c457600080fd5b806325692962116102a157806325692962146103e55780632e1d274f146103ed5780632f30cabd1461040d5780632fbe78f014610448578063361f1c521461046857806336442e301461047d57600080fd5b806302329a29146102e95780630b1142561461030b5780630cbd09221461032b5780631525ff7d14610364578063170c14d91461038457806324600fc3146103d0575b600080fd5b3480156102f557600080fd5b50610309610304366004614b1a565b610a98565b005b34801561031757600080fd5b50610309610326366004614b3e565b610ae9565b34801561033757600080fd5b5061034b610346366004614b6a565b610dff565b60405161035b9493929190614c05565b60405180910390f35b34801561037057600080fd5b5061030961037f366004614c5e565b610f44565b34801561039057600080fd5b506103b87f000000000000000000000000000000000000000000000000000000000000000081565b6040516001600160a01b03909116815260200161035b565b3480156103dc57600080fd5b50610309610f6e565b610309611029565b3480156103f957600080fd5b50610309610408366004614b6a565b611079565b34801561041957600080fd5b5061043a610428366004614c5e565b60076020526000908152604090205481565b60405190815260200161035b565b34801561045457600080fd5b50610309610463366004614c7b565b611159565b34801561047457600080fd5b50610309611250565b34801561048957600080fd5b5061049d610498366004614b6a565b611298565b60405161035b96959493929190614cab565b3480156104bb57600080fd5b506105136104ca366004614b6a565b600081815260066020908152604091829020825160608101845281546001600160a01b039081168083526001840154909116938201849052600290920154930183905293909250565b60405161035b93929190614d04565b34801561052e57600080fd5b5061030961053d366004614d93565b61140f565b34801561054e57600080fd5b5061030961055d366004614b6a565b61153a565b34801561056e57600080fd5b5061058261057d366004614b6a565b6115dc565b60405161035b929190614e3e565b34801561059c57600080fd5b506103b87f000000000000000000000000000000000000000000000000000000000000000081565b3480156105d057600080fd5b506106156105df366004614b6a565b600460205260009081526040902080546001820154600283015460039093015491926001600160a01b0391821692908216911684565b604080519485526001600160a01b0393841660208601529183169184019190915216606082015260800161035b565b34801561065057600080fd5b5061030961065f366004614e6c565b61172c565b61030961185e565b34801561067857600080fd5b506103b8610687366004614ea5565b61189a565b61030961069a366004614ea5565b6118d2565b6103096106ad366004614b6a565b611bf8565b3480156106be57600080fd5b506002546103b8906001600160a01b031681565b3480156106de57600080fd5b506002546106f390600160a01b900460ff1681565b604051901515815260200161035b565b34801561070f57600080fd5b5061030961071e366004614b6a565b611f4a565b34801561072f57600080fd5b5061030961073e366004614b6a565b611f57565b34801561074f57600080fd5b5061076361075e366004614b6a565b612144565b60405161035b93929190614ec7565b34801561077e57600080fd5b506106f361078d366004614ea5565b6121f9565b610309612353565b3480156107a657600080fd5b506103096107b5366004614b6a565b612367565b3480156107c657600080fd5b506105136107d5366004614b6a565b6006602052600090815260409020805460018201546002909201546001600160a01b03918216929091169083565b34801561080f57600080fd5b5061043a60015481565b34801561082557600080fd5b50610839610834366004614b6a565b61255b565b60405161035b959493929190614eee565b34801561085657600080fd5b50638b78c6d819546103b8565b610309610871366004614ea5565b612625565b34801561088257600080fd5b50610309610891366004614b6a565b612d2b565b3480156108a257600080fd5b5061043a6108b1366004614b6a565b612df0565b3480156108c257600080fd5b506103096108d1366004614ea5565b612e0d565b3480156108e257600080fd5b506002546106f390600160a81b900460ff1681565b34801561090357600080fd5b50610309610912366004614c7b565b612f43565b34801561092357600080fd5b50610309610932366004614c7b565b613286565b34801561094357600080fd5b50610309610952366004614b6a565b6137e0565b610309610965366004614b6a565b6138e3565b34801561097657600080fd5b50610309610985366004614f28565b613f76565b610309610998366004614c5e565b6143a1565b3480156109a957600080fd5b506106156109b8366004614b6a565b6000908152600460209081526040918290208251608081018452815480825260018301546001600160a01b039081169483018590526002840154811695830186905260039093015490921660609091018190529093919291565b610309610a20366004614c5e565b6143de565b348015610a3157600080fd5b50610309610a40366004614c7b565b614405565b348015610a5157600080fd5b50610309610a60366004614ea5565b6145d4565b348015610a7157600080fd5b5061043a610a80366004614c5e565b63389a75e1600c908152600091909152602090205490565b610aa06146c8565b600254600160a81b900460ff1615610acb5760405163d9ef8fb560e01b815260040160405180910390fd5b60028054911515600160a01b0260ff60a01b19909216919091179055565b600254600160a01b900460ff1615610b14576040516313d0ff5960e31b815260040160405180910390fd5b8080600003610b365760405163e7195f5160e01b815260040160405180910390fd5b610b4084846121f9565b610b5d57604051633e79b9f360e01b815260040160405180910390fd5b6040516311543c9960e31b815260048101849052602481018590527f00000000000000000000000000000000000000000000000000000000000000006001600160a01b031690638aa1e4c890604401602060405180830381865afa158015610bc9573d6000803e3d6000fd5b505050506040513d601f19601f82011682018060405250810190610bed9190614f69565b15610c0b5760405163b14aa60560e01b815260040160405180910390fd5b6040516331a9108f60e11b8152600481018590526000907f00000000000000000000000000000000000000000000000000000000000000006001600160a01b031690636352211e90602401602060405180830381865afa158015610c73573d6000803e3d6000fd5b505050506040513d601f19601f82011682018060405250810190610c979190614f86565b604051624003bd60e41b8152600481018690529091506000906001600160a01b037f000000000000000000000000000000000000000000000000000000000000000016906304003bd0906024016040805180830381865afa158015610d00573d6000803e3d6000fd5b505050506040513d601f19601f82011682018060405250810190610d249190614fa3565b50604080516080810182528681526001600160a01b0380841660208084018281528884168587019081526000606087018181528f825260049094528790209551865590516001860180549186166001600160a01b03199283161790559051600286018054918616918316919091179055905160039094018054949093169316929092179055905191925090859088907fd81820ebfdde47351b4ac56296bba70e8f57f24195955168a1b5bf6b653e3d3a90610def9087906001600160a01b0391909116815260200190565b60405180910390a4505050505050565b6000818152600560209081526040808320815160808101835281546001600160a01b0316815260018201548185015260028201805484518187028101870186528181528796606096879689969590949186019392909190830182828015610e8557602002820191906000526020600020905b815481526020019060010190808311610e71575b50505050508152602001600382018054610e9e90614fd2565b80601f0160208091040260200160405190810160405280929190818152602001828054610eca90614fd2565b8015610f175780601f10610eec57610100808354040283529160200191610f17565b820191906000526020600020905b815481529060010190602001808311610efa57829003601f168201915b505050919092525050815160208301516040840151606090940151919a9099509297509550909350505050565b610f4c6146c8565b600280546001600160a01b0319166001600160a01b0392909216919091179055565b600260005403610f995760405162461bcd60e51b8152600401610f909061500c565b60405180910390fd5b60026000908155338082526007602052604080832080549084905590519092919061ea6090849084818181858888f193505050503d8060008114610ff9576040519150601f19603f3d011682016040523d82523d6000602084013e610ffe565b606091505b505090508061102057604051631d42c86760e21b815260040160405180910390fd5b50506001600055565b60006202a30067ffffffffffffffff164201905063389a75e1600c5233600052806020600c2055337fdbf36a107da19e49527a7176a1babf963b4b0ff8cde35ee35d6cd8f1f9ac7e1d600080a250565b336001600160a01b037f000000000000000000000000000000000000000000000000000000000000000016148015906110db5750336001600160a01b037f00000000000000000000000000000000000000000000000000000000000000001614155b156110f95760405163125e77d360e01b815260040160405180910390fd5b6000818152600460205260409020600101546001600160a01b0316156111565760008181526004602052604081209081556001810180546001600160a01b0319908116909155600282018054821690556003909101805490911690555b50565b336001600160a01b037f000000000000000000000000000000000000000000000000000000000000000016146111a25760405163125e77d360e01b815260040160405180910390fd5b600082815260066020908152604091829020825160608101845281546001600160a01b03908116808352600184015490911693820193909352600290910154928101929092521561124b57816001600160a01b031681602001516001600160a01b03160361124b5760008381526006602052604080822080546001600160a01b0319908116825560018201805490911690556002019190915581519082015161124b91906146e3565b505050565b6112586146c8565b600254600160a81b900460ff16156112835760405163d9ef8fb560e01b815260040160405180910390fd5b6002805460ff60a81b1916600160a81b179055565b6000818152600360208181526040808420815160c0810183528154815260018201546001600160a01b03908116828601526002830154811682850152948201549094166060858101919091526004820180548451818702810187019095528085528796879687969495869588959394919360808601939192909183018282801561134157602002820191906000526020600020905b81548152602001906001019080831161132d575b5050505050815260200160058201805461135a90614fd2565b80601f016020809104026020016040519081016040528092919081815260200182805461138690614fd2565b80156113d35780601f106113a8576101008083540402835291602001916113d3565b820191906000526020600020905b8154815290600101906020018083116113b657829003601f168201915b5050509190925250508151602083015160408401516060850151608086015160a090960151939e929d50909b5099509297509550909350505050565b336001600160a01b037f000000000000000000000000000000000000000000000000000000000000000016146114585760405163125e77d360e01b815260040160405180910390fd5b600082815260066020908152604091829020825160608101845281546001600160a01b03908116808352600184015490911693820193909352600290910154928101929092521561124b5760005b82518110156115345760008382815181106114c3576114c3615043565b60200260200101519050806001600160a01b031683602001516001600160a01b03160361152b5760008581526006602052604080822080546001600160a01b0319908116825560018201805490911690556002019190915583519084015161152b91906146e3565b506001016114a6565b50505050565b336001600160a01b037f000000000000000000000000000000000000000000000000000000000000000016146115835760405163e007692f60e01b815260040160405180910390fd5b600081815260036020819052604082208281556001810180546001600160a01b0319908116909155600282018054821690559181018054909216909155906115ce6004830182614a54565b61124b600583016000614a72565b60608060007f00000000000000000000000000000000000000000000000000000000000000006001600160a01b03166304003bd0856040518263ffffffff1660e01b815260040161162f91815260200190565b6040805180830381865afa15801561164b573d6000803e3d6000fd5b505050506040513d601f19601f8201168201806040525081019061166f9190614fa3565b60405162438b6360e81b81526001600160a01b0380831660048301529193507f0000000000000000000000000000000000000000000000000000000000000000909116915063438b630090602401600060405180830381865afa1580156116da573d6000803e3d6000fd5b505050506040513d6000823e601f3d908101601f191682016040526117029190810190615059565b92508260405160200161171591906150df565b604051602081830303815290604052915050915091565b600254600160a01b900460ff1615611757576040516313d0ff5960e31b815260040160405180910390fd5b81806000036117795760405163e7195f5160e01b815260040160405180910390fd5b604051624003bd60e41b81526004810185905260009081906001600160a01b037f000000000000000000000000000000000000000000000000000000000000000016906304003bd0906024016040805180830381865afa1580156117e1573d6000803e3d6000fd5b505050506040513d601f19601f820116820180604052508101906118059190614fa3565b915091506118168686868585614775565b604080516001600160a01b0383811682528681166020830152841691879189917f4b2696c0b570fe60ace24fc90fe3446d3328d0c3aaeed71e743603aaba978e789101610def565b63389a75e1600c523360005260006020600c2055337ffa7b8eab7da67f412cc9575ed43464468f9bfbae89d1675917346ca6d8fe3c92600080a2565b600860205281600052604060002081815481106118b657600080fd5b6000918252602090912001546001600160a01b03169150829050565b34806000036118f45760405163e7195f5160e01b815260040160405180910390fd5b600254600160a01b900460ff161561191f576040516313d0ff5960e31b815260040160405180910390fd5b6002600054036119415760405162461bcd60e51b8152600401610f909061500c565b60026000908155604051624003bd60e41b81526004810184905281907f00000000000000000000000000000000000000000000000000000000000000006001600160a01b0316906304003bd0906024016040805180830381865afa1580156119ad573d6000803e3d6000fd5b505050506040513d601f19601f820116820180604052508101906119d19190614fa3565b90925090506001600160a01b03821633146119ff57604051633faa6c4560e01b815260040160405180910390fd5b604051636670434960e01b81526004810186905260009081906001600160a01b037f00000000000000000000000000000000000000000000000000000000000000001690636670434990602401608060405180830381865afa158015611a69573d6000803e3d6000fd5b505050506040513d601f19601f82011682018060405250810190611a8d91906150f2565b509250509150336001600160a01b0316816001600160a01b03161480611abb57506001600160a01b03821633145b15611ad9576040516303d54cb760e11b815260040160405180910390fd5b600087815260066020908152604091829020825160608101845281546001600160a01b0390811682526001830154169281019290925260020154918101829052903411611b39576040516386bed4cd60e01b815260040160405180910390fd5b604080516060810182523381526001600160a01b0386811660208084019182523484860190815260008e8152600690925290859020935184549084166001600160a01b03199182161785559151600185018054919094169216919091179091555160029091015581015115611bba57611bba816000015182604001516146e3565b604051349033908a907f10962e2373847454af3c025d9b77161f5244f4e2a69e3e9ddf4954b2622a868990600090a450506001600055505050505050565b3480600003611c1a5760405163e7195f5160e01b815260040160405180910390fd5b600254600160a01b900460ff1615611c45576040516313d0ff5960e31b815260040160405180910390fd5b600260005403611c675760405162461bcd60e51b8152600401610f909061500c565b600260009081556040516331a9108f60e11b8152600481018490527f00000000000000000000000000000000000000000000000000000000000000006001600160a01b031690636352211e90602401602060405180830381865afa158015611cd3573d6000803e3d6000fd5b505050506040513d601f19601f82011682018060405250810190611cf79190614f86565b9050336001600160a01b03821603611d225760405163d2e7167f60e01b815260040160405180910390fd5b6000838152600560209081526040808320815160808101835281546001600160a01b03168152600182015481850152600282018054845181870281018701865281815292959394860193830182828015611d9b57602002820191906000526020600020905b815481526020019060010190808311611d87575b50505050508152602001600382018054611db490614fd2565b80601f0160208091040260200160405190810160405280929190818152602001828054611de090614fd2565b8015611e2d5780601f10611e0257610100808354040283529160200191611e2d565b820191906000526020600020905b815481529060010190602001808311611e1057829003601f168201915b505050505081525050905080602001513411611e5c576040516386bed4cd60e01b815260040160405180910390fd5b600080611e68866115dc565b604080516080810182523381523460208083019182528284018681526060840186905260008d81526005835294909420835181546001600160a01b0319166001600160a01b03909116178155915160018301559251805195975093955090939092611eda926002850192910190614aac565b5060608201516003820190611eef908261518c565b505050602083015115611f0e57611f0e836000015184602001516146e3565b6040513490339088907f5bcbf8d6be0293e172be2f32bd63e586fd65b0d15d70c845d393d73f2cfcff1790600090a45050600160005550505050565b611f526146c8565b600155565b336001600160a01b037f00000000000000000000000000000000000000000000000000000000000000001614611fa05760405163125e77d360e01b815260040160405180910390fd5b6000818152600360208181526040808420815160c0810183528154815260018201546001600160a01b0390811682860152600283015481168285015294820154909416606085015260048101805483518186028101860190945280845291936080860193929083018282801561203557602002820191906000526020600020905b815481526020019060010190808311612021575b5050505050815260200160058201805461204e90614fd2565b80601f016020809104026020016040519081016040528092919081815260200182805461207a90614fd2565b80156120c75780601f1061209c576101008083540402835291602001916120c7565b820191906000526020600020905b8154815290600101906020018083116120aa57829003601f168201915b5050509190925250505060208101519091506001600160a01b03161561214057600082815260036020819052604082208281556001810180546001600160a01b0319908116909155600282018054821690559181018054909216909155906121326004830182614a54565b611534600583016000614a72565b5050565b6005602052600090815260409020805460018201546003830180546001600160a01b0390931693919261217690614fd2565b80601f01602080910402602001604051908101604052809291908181526020018280546121a290614fd2565b80156121ef5780601f106121c4576101008083540402835291602001916121ef565b820191906000526020600020905b8154815290600101906020018083116121d257829003601f168201915b5050505050905083565b6040516331a9108f60e11b81526004810183905260009081906001600160a01b037f00000000000000000000000000000000000000000000000000000000000000001690636352211e90602401602060405180830381865afa158015612263573d6000803e3d6000fd5b505050506040513d601f19601f820116820180604052508101906122879190614f86565b90506000807f00000000000000000000000000000000000000000000000000000000000000006001600160a01b03166304003bd0866040518263ffffffff1660e01b81526004016122da91815260200190565b6040805180830381865afa1580156122f6573d6000803e3d6000fd5b505050506040513d601f19601f8201168201806040525081019061231a9190614fa3565b91509150806001600160a01b0316836001600160a01b031614801561234757506001600160a01b03821633145b93505050505b92915050565b61235b6146c8565b61236560006148d7565b565b6002600054036123895760405162461bcd60e51b8152600401610f909061500c565b60026000818155828152600560209081526040808320815160808101835281546001600160a01b031681526001820154818501529481018054835181860281018601855281815295969592949386019383018282801561240857602002820191906000526020600020905b8154815260200190600101908083116123f4575b5050505050815260200160038201805461242190614fd2565b80601f016020809104026020016040519081016040528092919081815260200182805461244d90614fd2565b801561249a5780601f1061246f5761010080835404028352916020019161249a565b820191906000526020600020905b81548152906001019060200180831161247d57829003601f168201915b5050509190925250508151919250506001600160a01b031633146124d15760405163173f0e6f60e21b815260040160405180910390fd5b600082815260056020526040812080546001600160a01b031916815560018101829055906125026002830182614a54565b612510600383016000614a72565b50506125203382602001516146e3565b6020810151604051339084907f42aa62a335199e81c12706e51f762071115ee5df409428ef670b00ee8b7a3d2690600090a450506001600055565b60036020819052600091825260409091208054600182015460028301549383015460058401805493956001600160a01b03938416959084169493909216926125a290614fd2565b80601f01602080910402602001604051908101604052809291908181526020018280546125ce90614fd2565b801561261b5780601f106125f05761010080835404028352916020019161261b565b820191906000526020600020905b8154815290600101906020018083116125fe57829003601f168201915b5050505050905085565b600254600160a01b900460ff1615612650576040516313d0ff5960e31b815260040160405180910390fd5b6002600054036126725760405162461bcd60e51b8152600401610f909061500c565b600260009081556040516331a9108f60e11b8152600481018390527f00000000000000000000000000000000000000000000000000000000000000006001600160a01b031690636352211e90602401602060405180830381865afa1580156126de573d6000803e3d6000fd5b505050506040513d601f19601f820116820180604052508101906127029190614f86565b90506001600160a01b038116331461272d57604051633faa6c4560e01b815260040160405180910390fd5b604051639c05d68d60e01b8152600481018390526000907f00000000000000000000000000000000000000000000000000000000000000006001600160a01b031690639c05d68d90602401602060405180830381865afa158015612795573d6000803e3d6000fd5b505050506040513d601f19601f820116820180604052508101906127b99190614f86565b6040516331a9108f60e11b8152600481018690529091506000906001600160a01b037f00000000000000000000000000000000000000000000000000000000000000001690636352211e90602401602060405180830381865afa158015612824573d6000803e3d6000fd5b505050506040513d601f19601f820116820180604052508101906128489190614f86565b9050816001600160a01b0316816001600160a01b03160361287c57604051633617ec7f60e21b815260040160405180910390fd5b60008581526004602081815260409283902083516080810185528154815260018201546001600160a01b03908116938201939093526002820154831681860181905260039092015483166060820152935163e985e9c560e01b8152928301523060248301527f0000000000000000000000000000000000000000000000000000000000000000169063e985e9c590604401602060405180830381865afa15801561292a573d6000803e3d6000fd5b505050506040513d601f19601f8201168201806040525081019061294e9190614f69565b1580156129ed575060405163020604bf60e21b81526004810187905230906001600160a01b037f0000000000000000000000000000000000000000000000000000000000000000169063081812fc90602401602060405180830381865afa1580156129bd573d6000803e3d6000fd5b505050506040513d601f19601f820116820180604052508101906129e19190614f86565b6001600160a01b031614155b15612a0b57604051631c4f6a7160e11b815260040160405180910390fd5b60208101516001600160a01b038116612a37576040516374dbff7960e01b815260040160405180910390fd5b336001600160a01b03821603612a6057604051633617ec7f60e21b815260040160405180910390fd5b60608201516001600160a01b031615801590612a89575060608201516001600160a01b03163314155b15612aa75760405163a969b35f60e01b815260040160405180910390fd5b81513414612ac8576040516349986e7360e01b815260040160405180910390fd5b604051636670434960e01b8152600481018890526000907f00000000000000000000000000000000000000000000000000000000000000006001600160a01b031690636670434990602401608060405180830381865afa158015612b30573d6000803e3d6000fd5b505050506040513d601f19601f82011682018060405250810190612b5491906150f2565b93505050508015612b785760405163b14aa60560e01b815260040160405180910390fd5b6000888152600460209081526040808320838155600180820180546001600160a01b0319908116909155600280840180548316905560039093018054909116905560068452828520835160608101855281546001600160a01b039081168083529383015416958101959095529091015491830191909152339003612c2d5760008a81526006602052604080822080546001600160a01b0319908116825560018201805490911690556002019190915581015191505b8115612c3f578051612c3f90836146e3565b60408086015190516323b872dd60e01b81526001600160a01b037f000000000000000000000000000000000000000000000000000000000000000016916323b872dd91612c9391908b908f90600401614d04565b600060405180830381600087803b158015612cad57600080fd5b505af1158015612cc1573d6000803e3d6000fd5b50505050612ccf3485614915565b50604080513381526001600160a01b0386811660208301523492908a16918d917f9b53f736294544c8dcc2ef0b86a8855c522fa2cdfeed5b52061f8f0e97e1f299910160405180910390a4505060016000555050505050505050565b6000818152600360205260409020600101546001600160a01b03163314612d65576040516332a0bb6960e01b815260040160405180910390fd5b600081815260036020819052604082208281556001810180546001600160a01b031990811690915560028201805482169055918101805490921690915590612db06004830182614a54565b612dbe600583016000614a72565b5050604051339082907fa92aff34e046840eb03a70da1750551a7cc813f27519416e1b05865eb260351690600090a350565b600061271060015483612e039190615262565b61234d9190615279565b600254600160a01b900460ff1615612e38576040516313d0ff5960e31b815260040160405180910390fd5b8080600003612e5a5760405163e7195f5160e01b815260040160405180910390fd5b604051624003bd60e41b81526004810184905260009081906001600160a01b037f000000000000000000000000000000000000000000000000000000000000000016906304003bd0906024016040805180830381865afa158015612ec2573d6000803e3d6000fd5b505050506040513d601f19601f82011682018060405250810190612ee69190614fa3565b91509150612ef8858560008585614775565b6040516001600160a01b038281168252831690859087907f749104dd5f8de8e4b889d790ea029b6ec8515f14cf73d20604b60e0b649a95df9060200160405180910390a45050505050565b600254600160a01b900460ff1615612f6e576040516313d0ff5960e31b815260040160405180910390fd5b600260005403612f905760405162461bcd60e51b8152600401610f909061500c565b6002600081815583815260066020908152604091829020825160608101845281546001600160a01b039081168083526001840154909116938201939093529301549183019190915280612ff657604051637ccf97e760e01b815260040160405180910390fd5b336001600160a01b0382160361301f576040516309f6914560e21b815260040160405180910390fd5b826001600160a01b0316816001600160a01b03161461305157604051630e5d99a160e41b815260040160405180910390fd5b60008060007f00000000000000000000000000000000000000000000000000000000000000006001600160a01b03166366704349886040518263ffffffff1660e01b81526004016130a491815260200190565b608060405180830381865afa1580156130c1573d6000803e3d6000fd5b505050506040513d601f19601f820116820180604052508101906130e591906150f2565b93509350509250336001600160a01b0316826001600160a01b03161461311e57604051633e79b9f360e01b815260040160405180910390fd5b801561313d5760405163b14aa60560e01b815260040160405180910390fd5b6000878152600460209081526040808320838155600180820180546001600160a01b0319908116909155600280840180548316905560039093018054821690556006909452828520805485168155908101805490941690935591909101919091558501516131ab9083614915565b5060208501516040516323b872dd60e01b81526001600160a01b037f000000000000000000000000000000000000000000000000000000000000000016916323b872dd916131ff9187918c90600401614d04565b600060405180830381600087803b15801561321957600080fd5b505af115801561322d573d6000803e3d6000fd5b50505060408087015190516001600160a01b0385811682528716925089907fc476c7174eb6bcf722015101bfd2abf9161ab48659b47e55f8b7260b06ebf0119060200160405180910390a4505060016000555050505050565b600254600160a01b900460ff16156132b1576040516313d0ff5960e31b815260040160405180910390fd5b6002600054036132d35760405162461bcd60e51b8152600401610f909061500c565b600260009081556040516331a9108f60e11b8152600481018490527f00000000000000000000000000000000000000000000000000000000000000006001600160a01b031690636352211e90602401602060405180830381865afa15801561333f573d6000803e3d6000fd5b505050506040513d601f19601f820116820180604052508101906133639190614f86565b60405163e985e9c560e01b81526001600160a01b0380831660048301523060248301529192507f00000000000000000000000000000000000000000000000000000000000000009091169063e985e9c590604401602060405180830381865afa1580156133d4573d6000803e3d6000fd5b505050506040513d601f19601f820116820180604052508101906133f89190614f69565b158015613497575060405163020604bf60e21b81526004810184905230906001600160a01b037f0000000000000000000000000000000000000000000000000000000000000000169063081812fc90602401602060405180830381865afa158015613467573d6000803e3d6000fd5b505050506040513d601f19601f8201168201806040525081019061348b9190614f86565b6001600160a01b031614155b156134b5576040516361cf5f1360e01b815260040160405180910390fd5b6001600160a01b03811633146134de57604051633faa6c4560e01b815260040160405180910390fd5b6000838152600560209081526040808320815160808101835281546001600160a01b0316815260018201548185015260028201805484518187028101870186528181529295939486019383018282801561355757602002820191906000526020600020905b815481526020019060010190808311613543575b5050505050815260200160038201805461357090614fd2565b80601f016020809104026020016040519081016040528092919081815260200182805461359c90614fd2565b80156135e95780601f106135be576101008083540402835291602001916135e9565b820191906000526020600020905b8154815290600101906020018083116135cc57829003601f168201915b5050509190925250508151919250506001600160a01b03811661361f57604051637ccf97e760e01b815260040160405180910390fd5b336001600160a01b03821603613648576040516309f6914560e21b815260040160405180910390fd5b836001600160a01b0316816001600160a01b03161461367a57604051630e5d99a160e41b815260040160405180910390fd5b6000613685866115dc565b9150508260600151805190602001208180519060200120146136ba576040516331d1776560e11b815260040160405180910390fd5b600086815260056020526040812080546001600160a01b031916815560018101829055906136eb6002830182614a54565b6136f9600383016000614a72565b5050613709836020015185614915565b506040516323b872dd60e01b81526001600160a01b037f000000000000000000000000000000000000000000000000000000000000000016906323b872dd9061375a90339086908b90600401614d04565b600060405180830381600087803b15801561377457600080fd5b505af1158015613788573d6000803e3d6000fd5b505050506020838101516040516001600160a01b03878116825285169289917f93f583f5df123bec43b0c3403a5d3dae34bc2251a68523f99d3041cb80c6ea3891015b60405180910390a45050600160005550505050565b6002600054036138025760405162461bcd60e51b8152600401610f909061500c565b6002600081815582815260066020908152604091829020825160608101845281546001600160a01b039081168083526001840154909116938201939093529301549183019190915233146138695760405163173f0e6f60e21b815260040160405180910390fd5b60008281526006602052604080822080546001600160a01b031990811682556001820180549091169055600201919091558101516138a89033906146e3565b6040808201519051339084907f7647025e5547900d10b38a3053f5fcb9037d89294d94600b0bfe4f48c798439690600090a450506001600055565b600254600160a01b900460ff161561390e576040516313d0ff5960e31b815260040160405180910390fd5b6002600054036139305760405162461bcd60e51b8152600401610f909061500c565b60026000818155828152600360208181526040808420815160c0810183528154815260018201546001600160a01b0390811682860152968201548716818401529381015490951660608401526004850180548251818502810185019093528083529495939460808601938301828280156139c957602002820191906000526020600020905b8154815260200190600101908083116139b5575b505050505081526020016005820180546139e290614fd2565b80601f0160208091040260200160405190810160405280929190818152602001828054613a0e90614fd2565b8015613a5b5780601f10613a3057610100808354040283529160200191613a5b565b820191906000526020600020905b815481529060010190602001808311613a3e57829003601f168201915b5050509190925250505060208101519091506001600160a01b038116613a94576040516374dbff7960e01b815260040160405180910390fd5b336001600160a01b03821603613abd5760405163abcb310f60e01b815260040160405180910390fd5b60608201516001600160a01b031615801590613ae6575060608201516001600160a01b03163314155b15613b0457604051634b38765560e01b815260040160405180910390fd5b81513414613b25576040516349986e7360e01b815260040160405180910390fd5b602082015160405163e985e9c560e01b81526001600160a01b0391821660048201523060248201527f00000000000000000000000000000000000000000000000000000000000000009091169063e985e9c590604401602060405180830381865afa158015613b98573d6000803e3d6000fd5b505050506040513d601f19601f82011682018060405250810190613bbc9190614f69565b158015613c5b575060405163020604bf60e21b81526004810184905230906001600160a01b037f0000000000000000000000000000000000000000000000000000000000000000169063081812fc90602401602060405180830381865afa158015613c2b573d6000803e3d6000fd5b505050506040513d601f19601f82011682018060405250810190613c4f9190614f86565b6001600160a01b031614155b15613c79576040516361cf5f1360e01b815260040160405180910390fd5b6000613c84846115dc565b9150508260a0015180519060200120818051906020012014613cb9576040516331d1776560e11b815260040160405180910390fd5b600084815260036020819052604082208281556001810180546001600160a01b031990811690915560028201805482169055918101805490921690915590613d046004830182614a54565b613d12600583016000614a72565b50506000848152600560209081526040808320815160808101835281546001600160a01b0316815260018201548185015260028201805484518187028101870186528181528796939586019390929190830182828015613d9157602002820191906000526020600020905b815481526020019060010190808311613d7d575b50505050508152602001600382018054613daa90614fd2565b80601f0160208091040260200160405190810160405280929190818152602001828054613dd690614fd2565b8015613e235780601f10613df857610100808354040283529160200191613e23565b820191906000526020600020905b815481529060010190602001808311613e0657829003601f168201915b5050505050815250509050336001600160a01b031681600001516001600160a01b031603613e9457600086815260056020526040812080546001600160a01b03191681556001810182905590613e7c6002830182614a54565b613e8a600383016000614a72565b5050806020015191505b8115613ea6578051613ea690836146e3565b60208501516040516323b872dd60e01b81526001600160a01b037f000000000000000000000000000000000000000000000000000000000000000016916323b872dd91613efa919033908b90600401614d04565b600060405180830381600087803b158015613f1457600080fd5b505af1158015613f28573d6000803e3d6000fd5b50505050613f363485614915565b506040516001600160a01b03851681523490339088907f35e25b9a592362b9d470b2a4907c7ea3ae21ab1a1c9eb41e1fd146bc8a33f96f906020016137cb565b600254600160a01b900460ff1615613fa1576040516313d0ff5960e31b815260040160405180910390fd5b8180600003613fc35760405163e7195f5160e01b815260040160405180910390fd5b613fcd85856121f9565b613fea57604051633e79b9f360e01b815260040160405180910390fd5b60405162525fcd60e91b81526001600160a01b0383811660048301527f0000000000000000000000000000000000000000000000000000000000000000169063a4bf9a0090602401602060405180830381865afa15801561404f573d6000803e3d6000fd5b505050506040513d601f19601f82011682018060405250810190614073919061529b565b1561409157604051632b7144e960e21b815260040160405180910390fd5b6040516311543c9960e31b815260048101859052602481018690527f00000000000000000000000000000000000000000000000000000000000000006001600160a01b031690638aa1e4c890604401602060405180830381865afa1580156140fd573d6000803e3d6000fd5b505050506040513d601f19601f820116820180604052508101906141219190614f69565b1561413f5760405163b14aa60560e01b815260040160405180910390fd5b6040516331a9108f60e11b8152600481018690526000907f00000000000000000000000000000000000000000000000000000000000000006001600160a01b031690636352211e90602401602060405180830381865afa1580156141a7573d6000803e3d6000fd5b505050506040513d601f19601f820116820180604052508101906141cb9190614f86565b604051624003bd60e41b8152600481018790529091506000906001600160a01b037f000000000000000000000000000000000000000000000000000000000000000016906304003bd0906024016040805180830381865afa158015614234573d6000803e3d6000fd5b505050506040513d601f19601f820116820180604052508101906142589190614fa3565b5090506040518060800160405280868152602001826001600160a01b03168152602001836001600160a01b03168152602001856001600160a01b0316815250600460008981526020019081526020016000206000820151816000015560208201518160010160006101000a8154816001600160a01b0302191690836001600160a01b0316021790555060408201518160020160006101000a8154816001600160a01b0302191690836001600160a01b0316021790555060608201518160030160006101000a8154816001600160a01b0302191690836001600160a01b03160217905550905050806001600160a01b031685887f555474b2f514aef3d74de2861294e8e88446148aa4ece5df7b38bd45282850bd85886040516143909291906001600160a01b0392831681529116602082015260400190565b60405180910390a450505050505050565b6143a96146c8565b63389a75e1600c52806000526020600c2080544211156143d157636f5e88186000526004601cfd5b60009055611156816148d7565b6143e66146c8565b8060601b6143fc57637448fbae6000526004601cfd5b611156816148d7565b336001600160a01b037f0000000000000000000000000000000000000000000000000000000000000000161461444e5760405163125e77d360e01b815260040160405180910390fd5b6000828152600560209081526040808320815160808101835281546001600160a01b031681526001820154818501526002820180548451818702810187018652818152929593948601938301828280156144c757602002820191906000526020600020905b8154815260200190600101908083116144b3575b505050505081526020016003820180546144e090614fd2565b80601f016020809104026020016040519081016040528092919081815260200182805461450c90614fd2565b80156145595780601f1061452e57610100808354040283529160200191614559565b820191906000526020600020905b81548152906001019060200180831161453c57829003601f168201915b5050505050815250509050816001600160a01b031681600001516001600160a01b03160361124b57600083815260056020526040812080546001600160a01b031916815560018101829055906145b26002830182614a54565b6145c0600383016000614a72565b505061124b816000015182602001516146e3565b6145de82826121f9565b6145fb57604051633e79b9f360e01b815260040160405180910390fd5b6000828152600460205260409020600101546001600160a01b03168061463457604051632c8efc6560e21b815260040160405180910390fd5b6001600160a01b038116331461465d576040516332a0bb6960e01b815260040160405180910390fd5b6000838152600460205260408082208281556001810180546001600160a01b03199081169091556002820180548216905560039091018054909116905551339185917f21b2d85fdbbcaac8efe168e1803aff7a5d97e8cfc1ed65b039c118c246ac46349190a3505050565b638b78c6d819543314612365576382b429006000526004601cfd5b6000826001600160a01b03168261ea6090604051600060405180830381858888f193505050503d8060008114614735576040519150601f19603f3d011682016040523d82523d6000602084013e61473a565b606091505b505090508061124b576001600160a01b0383166000908152600760205260408120805484929061476b9084906152b4565b9091555050505050565b6001600160a01b038216331461479e57604051633faa6c4560e01b815260040160405180910390fd5b6000806147aa876115dc565b915091506040518060c00160405280878152602001856001600160a01b03168152602001846001600160a01b03168152602001866001600160a01b0316815260200183815260200182815250600360008981526020019081526020016000206000820151816000015560208201518160010160006101000a8154816001600160a01b0302191690836001600160a01b0316021790555060408201518160020160006101000a8154816001600160a01b0302191690836001600160a01b0316021790555060608201518160030160006101000a8154816001600160a01b0302191690836001600160a01b0316021790555060808201518160040190805190602001906148b6929190614aac565b5060a082015160058201906148cb908261518c565b50505050505050505050565b638b78c6d81980546001600160a01b039092169182907f8be0079c531659141344cd1fd0a4f28419497f9722a3daafe3b4186f6b6457e0600080a355565b60008061492184612df0565b9050600061492f82866152c7565b6002546040519192506000916001600160a01b039091169084908381818185875af1925050503d8060008114614981576040519150601f19603f3d011682016040523d82523d6000602084013e614986565b606091505b50509050806149bf576002546001600160a01b0316600090815260076020526040812080548592906149b99084906152b4565b90915550505b6040516001600160a01b0386169061ea609084906000818181858888f193505050503d8060008114614a0d576040519150601f19603f3d011682016040523d82523d6000602084013e614a12565b606091505b50508094505083614a4b576001600160a01b03851660009081526007602052604081208054849290614a459084906152b4565b90915550505b50505092915050565b50805460008255906000526020600020908101906111569190614af7565b508054614a7e90614fd2565b6000825580601f10614a8e575050565b601f0160209004906000526020600020908101906111569190614af7565b828054828255906000526020600020908101928215614ae7579160200282015b82811115614ae7578251825591602001919060010190614acc565b50614af3929150614af7565b5090565b5b80821115614af35760008155600101614af8565b801515811461115657600080fd5b600060208284031215614b2c57600080fd5b8135614b3781614b0c565b9392505050565b600080600060608486031215614b5357600080fd5b505081359360208301359350604090920135919050565b600060208284031215614b7c57600080fd5b5035919050565b60008151808452602080850194506020840160005b83811015614bb457815187529582019590820190600101614b98565b509495945050505050565b6000815180845260005b81811015614be557602081850181015186830182015201614bc9565b506000602082860101526020601f19601f83011685010191505092915050565b60018060a01b0385168152836020820152608060408201526000614c2c6080830185614b83565b8281036060840152614c3e8185614bbf565b979650505050505050565b6001600160a01b038116811461115657600080fd5b600060208284031215614c7057600080fd5b8135614b3781614c49565b60008060408385031215614c8e57600080fd5b823591506020830135614ca081614c49565b809150509250929050565b8681526001600160a01b03868116602083015285811660408301528416606082015260c060808201819052600090614ce590830185614b83565b82810360a0840152614cf78185614bbf565b9998505050505050505050565b6001600160a01b039384168152919092166020820152604081019190915260600190565b634e487b7160e01b600052604160045260246000fd5b604051601f8201601f1916810167ffffffffffffffff81118282101715614d6757614d67614d28565b604052919050565b600067ffffffffffffffff821115614d8957614d89614d28565b5060051b60200190565b60008060408385031215614da657600080fd5b8235915060208084013567ffffffffffffffff811115614dc557600080fd5b8401601f81018613614dd657600080fd5b8035614de9614de482614d6f565b614d3e565b81815260059190911b82018301908381019088831115614e0857600080fd5b928401925b82841015614e2f578335614e2081614c49565b82529284019290840190614e0d565b80955050505050509250929050565b604081526000614e516040830185614b83565b8281036020840152614e638185614bbf565b95945050505050565b600080600060608486031215614e8157600080fd5b83359250602084013591506040840135614e9a81614c49565b809150509250925092565b60008060408385031215614eb857600080fd5b50508035926020909101359150565b60018060a01b0384168152826020820152606060408201526000614e636060830184614bbf565b8581526001600160a01b03858116602083015284811660408301528316606082015260a060808201819052600090614c3e90830184614bbf565b60008060008060808587031215614f3e57600080fd5b8435935060208501359250604085013591506060850135614f5e81614c49565b939692955090935050565b600060208284031215614f7b57600080fd5b8151614b3781614b0c565b600060208284031215614f9857600080fd5b8151614b3781614c49565b60008060408385031215614fb657600080fd5b8251614fc181614c49565b6020840151909250614ca081614c49565b600181811c90821680614fe657607f821691505b60208210810361500657634e487b7160e01b600052602260045260246000fd5b50919050565b6020808252601f908201527f5265656e7472616e637947756172643a207265656e7472616e742063616c6c00604082015260600190565b634e487b7160e01b600052603260045260246000fd5b6000602080838503121561506c57600080fd5b825167ffffffffffffffff81111561508357600080fd5b8301601f8101851361509457600080fd5b80516150a2614de482614d6f565b81815260059190911b820183019083810190878311156150c157600080fd5b928401925b82841015614c3e578351825292840192908401906150c6565b602081526000614b376020830184614b83565b6000806000806080858703121561510857600080fd5b845161511381614c49565b60208601516040870151919550935061512b81614c49565b6060860151909250614f5e81614b0c565b601f82111561124b576000816000526020600020601f850160051c810160208610156151655750805b601f850160051c820191505b8181101561518457828155600101615171565b505050505050565b815167ffffffffffffffff8111156151a6576151a6614d28565b6151ba816151b48454614fd2565b8461513c565b602080601f8311600181146151ef57600084156151d75750858301515b600019600386901b1c1916600185901b178555615184565b600085815260208120601f198616915b8281101561521e578886015182559484019460019091019084016151ff565b508582101561523c5787850151600019600388901b60f8161c191681555b5050505050600190811b01905550565b634e487b7160e01b600052601160045260246000fd5b808202811582820484141761234d5761234d61524c565b60008261529657634e487b7160e01b600052601260045260246000fd5b500490565b6000602082840312156152ad57600080fd5b5051919050565b8082018082111561234d5761234d61524c565b8181038181111561234d5761234d61524c56fea2646970667358221220a372b85ec0a24d82d8312ba8b457fd3bb7626394374e0d4b913e85de0b7a79bf64736f6c63430008160033","linkReferences":{}},"methodIdentifiers":{"CHONKS_MAIN()":"4de8cdf6","CHONK_TRAITS()":"170c14d9","acceptBidForChonk(uint256,address)":"cca59759","acceptBidForTrait(uint256,address)":"b5baf476","bidOnChonk(uint256)":"5793b22e","bidOnTrait(uint256,uint256)":"571ccb74","buyChonk(uint256)":"ebd34a88","buyTrait(uint256,uint256)":"917e3a7c","calculateRoyalty(uint256)":"a2e69613","cancelOfferChonk(uint256)":"9f24c945","cancelOfferTrait(uint256,uint256)":"f827d632","cancelOwnershipHandover()":"54d1f13d","chonkBids(uint256)":"65318c86","chonkIdToApprovedOperators(uint256,uint256)":"55737f35","chonkOffers(uint256)":"8b322383","completeOwnershipHandover(address)":"f04e283e","deleteChonkBidsBeforeTokenTransfer(uint256,address)":"f495f5a8","deleteChonkOfferBeforeTokenTransfer(uint256)":"644ec527","deleteTraitBidsBeforeTokenTransfer(uint256,address)":"2fbe78f0","deleteTraitBidsBeforeTokenTransfer(uint256,address[])":"4666a416","deleteTraitOffersBeforeTokenTransfer(uint256)":"2e1d274f","ensureTraitOwner(uint256,uint256)":"710b2719","getChonkBid(uint256)":"0cbd0922","getChonkOffer(uint256)":"36442e30","getTraitBid(uint256)":"3ce0c372","getTraitIdsAndEncodingForChonk(uint256)":"472729bb","getTraitOffer(uint256)":"f0988214","offerChonk(uint256,uint256)":"a4cc8324","offerChonkToAddress(uint256,uint256,address)":"4fc9923e","offerTrait(uint256,uint256,uint256)":"0b114256","offerTraitToAddress(uint256,uint256,uint256,address)":"ed89f704","owner()":"8da5cb5b","ownershipHandoverExpiresAt(address)":"fee81cf4","pausabilityRevoked()":"b1f3694e","pause(bool)":"02329a29","paused()":"5c975abb","removeChonkOfferOnTraitTransfer(uint256)":"46c627fe","renounceOwnership()":"715018a6","requestOwnershipHandover()":"25692962","revokePausability()":"361f1c52","royaltyPercentage()":"8a71bb2d","setRoyaltyPercentage(uint256)":"61ba27da","setTeamWallet(address)":"1525ff7d","teamWallet()":"59927044","traitBids(uint256)":"7dbc8619","traitOffers(uint256)":"4f6088cd","transferOwnership(address)":"f2fde38b","withdrawBidOnChonk(uint256)":"795aded3","withdrawBidOnTrait(uint256)":"cecea401","withdrawFunds()":"24600fc3","withdrawableFunds(address)":"2f30cabd"},"id":44}