{"abi":[{"type":"constructor","inputs":[{"name":"_chonkTraits","type":"address","internalType":"address"},{"name":"_royaltyPercentage","type":"uint8","internalType":"uint8"},{"name":"_teamWallet","type":"address","internalType":"address"}],"stateMutability":"nonpayable"},{"type":"function","name":"CHONKS_MAIN","inputs":[],"outputs":[{"name":"","type":"address","internalType":"contract ChonksMain"}],"stateMutability":"view"},{"type":"function","name":"CHONK_TRAITS","inputs":[],"outputs":[{"name":"","type":"address","internalType":"contract ChonkTraits"}],"stateMutability":"view"},{"type":"function","name":"acceptBidForChonk","inputs":[{"name":"_chonkId","type":"uint256","internalType":"uint256"},{"name":"_bidder","type":"address","internalType":"address"}],"outputs":[],"stateMutability":"nonpayable"},{"type":"function","name":"acceptBidForTrait","inputs":[{"name":"_traitId","type":"uint256","internalType":"uint256"},{"name":"_bidder","type":"address","internalType":"address"}],"outputs":[],"stateMutability":"nonpayable"},{"type":"function","name":"bidOnChonk","inputs":[{"name":"_chonkId","type":"uint256","internalType":"uint256"}],"outputs":[],"stateMutability":"payable"},{"type":"function","name":"bidOnTrait","inputs":[{"name":"_traitId","type":"uint256","internalType":"uint256"},{"name":"_yourChonkId","type":"uint256","internalType":"uint256"}],"outputs":[],"stateMutability":"payable"},{"type":"function","name":"buyChonk","inputs":[{"name":"_chonkId","type":"uint256","internalType":"uint256"}],"outputs":[],"stateMutability":"payable"},{"type":"function","name":"buyTrait","inputs":[{"name":"_traitId","type":"uint256","internalType":"uint256"},{"name":"_forChonkId","type":"uint256","internalType":"uint256"}],"outputs":[],"stateMutability":"payable"},{"type":"function","name":"calculateRoyalty","inputs":[{"name":"_amount","type":"uint256","internalType":"uint256"}],"outputs":[{"name":"","type":"uint256","internalType":"uint256"}],"stateMutability":"view"},{"type":"function","name":"cancelOfferChonk","inputs":[{"name":"_chonkId","type":"uint256","internalType":"uint256"}],"outputs":[],"stateMutability":"nonpayable"},{"type":"function","name":"cancelOfferTrait","inputs":[{"name":"_traitId","type":"uint256","internalType":"uint256"},{"name":"_chonkId","type":"uint256","internalType":"uint256"}],"outputs":[],"stateMutability":"nonpayable"},{"type":"function","name":"cancelOwnershipHandover","inputs":[],"outputs":[],"stateMutability":"payable"},{"type":"function","name":"chonkBids","inputs":[{"name":"chonkId","type":"uint256","internalType":"uint256"}],"outputs":[{"name":"bidder","type":"address","internalType":"address"},{"name":"amountInWei","type":"uint256","internalType":"uint256"},{"name":"bidBlockNumber","type":"uint256","internalType":"uint256"}],"stateMutability":"view"},{"type":"function","name":"chonkCooldownPeriod","inputs":[],"outputs":[{"name":"","type":"uint256","internalType":"uint256"}],"stateMutability":"view"},{"type":"function","name":"chonkIdToLastTraitTransferBlock","inputs":[{"name":"chonkId","type":"uint256","internalType":"uint256"}],"outputs":[{"name":"lastTraitTransferBlock","type":"uint256","internalType":"uint256"}],"stateMutability":"view"},{"type":"function","name":"chonkOffers","inputs":[{"name":"chonkId","type":"uint256","internalType":"uint256"}],"outputs":[{"name":"priceInWei","type":"uint256","internalType":"uint256"},{"name":"seller","type":"address","internalType":"address"},{"name":"sellerTBA","type":"address","internalType":"address"},{"name":"onlySellTo","type":"address","internalType":"address"}],"stateMutability":"view"},{"type":"function","name":"completeOwnershipHandover","inputs":[{"name":"pendingOwner","type":"address","internalType":"address"}],"outputs":[],"stateMutability":"payable"},{"type":"function","name":"deleteChonkBidsBeforeTokenTransfer","inputs":[{"name":"_chonkId","type":"uint256","internalType":"uint256"},{"name":"_toEOA","type":"address","internalType":"address"}],"outputs":[],"stateMutability":"nonpayable"},{"type":"function","name":"deleteChonkOfferBeforeTokenTransfer","inputs":[{"name":"_chonkId","type":"uint256","internalType":"uint256"}],"outputs":[],"stateMutability":"nonpayable"},{"type":"function","name":"deleteTraitBidsBeforeTokenTransfer","inputs":[{"name":"_traitId","type":"uint256","internalType":"uint256"},{"name":"_toTBA","type":"address","internalType":"address"}],"outputs":[],"stateMutability":"nonpayable"},{"type":"function","name":"deleteTraitBidsBeforeTokenTransfer","inputs":[{"name":"_traitId","type":"uint256","internalType":"uint256"},{"name":"_toTBAs","type":"address[]","internalType":"address[]"}],"outputs":[],"stateMutability":"view"},{"type":"function","name":"deleteTraitOfferBeforeTokenTransferFromTraits","inputs":[{"name":"_traitId","type":"uint256","internalType":"uint256"}],"outputs":[],"stateMutability":"nonpayable"},{"type":"function","name":"deleteTraitOffersBeforeTokenTransfer","inputs":[{"name":"","type":"uint256","internalType":"uint256"}],"outputs":[],"stateMutability":"view"},{"type":"function","name":"gasStipend","inputs":[],"outputs":[{"name":"","type":"uint256","internalType":"uint256"}],"stateMutability":"view"},{"type":"function","name":"getChonkBid","inputs":[{"name":"_chonkId","type":"uint256","internalType":"uint256"}],"outputs":[{"name":"bidder","type":"address","internalType":"address"},{"name":"amountInWei","type":"uint256","internalType":"uint256"},{"name":"bidBlockNumber","type":"uint256","internalType":"uint256"}],"stateMutability":"view"},{"type":"function","name":"getChonkOffer","inputs":[{"name":"_chonkId","type":"uint256","internalType":"uint256"}],"outputs":[{"name":"priceInWei","type":"uint256","internalType":"uint256"},{"name":"seller","type":"address","internalType":"address"},{"name":"sellerTBA","type":"address","internalType":"address"},{"name":"onlySellTo","type":"address","internalType":"address"}],"stateMutability":"view"},{"type":"function","name":"getTraitBid","inputs":[{"name":"_traitId","type":"uint256","internalType":"uint256"}],"outputs":[{"name":"bidder","type":"address","internalType":"address"},{"name":"bidderTBA","type":"address","internalType":"address"},{"name":"amountInWei","type":"uint256","internalType":"uint256"},{"name":"bidBlockNumber","type":"uint256","internalType":"uint256"}],"stateMutability":"view"},{"type":"function","name":"getTraitOffer","inputs":[{"name":"_traitId","type":"uint256","internalType":"uint256"}],"outputs":[{"name":"priceInWei","type":"uint256","internalType":"uint256"},{"name":"seller","type":"address","internalType":"address"},{"name":"sellerTBA","type":"address","internalType":"address"},{"name":"onlySellTo","type":"address","internalType":"address"}],"stateMutability":"view"},{"type":"function","name":"offerChonk","inputs":[{"name":"_chonkId","type":"uint256","internalType":"uint256"},{"name":"_priceInWei","type":"uint256","internalType":"uint256"}],"outputs":[],"stateMutability":"nonpayable"},{"type":"function","name":"offerChonkToAddress","inputs":[{"name":"_chonkId","type":"uint256","internalType":"uint256"},{"name":"_priceInWei","type":"uint256","internalType":"uint256"},{"name":"_onlySellTo","type":"address","internalType":"address"}],"outputs":[],"stateMutability":"nonpayable"},{"type":"function","name":"offerTrait","inputs":[{"name":"_traitId","type":"uint256","internalType":"uint256"},{"name":"_chonkId","type":"uint256","internalType":"uint256"},{"name":"_priceInWei","type":"uint256","internalType":"uint256"}],"outputs":[],"stateMutability":"nonpayable"},{"type":"function","name":"offerTraitToAddress","inputs":[{"name":"_traitId","type":"uint256","internalType":"uint256"},{"name":"_chonkId","type":"uint256","internalType":"uint256"},{"name":"_priceInWei","type":"uint256","internalType":"uint256"},{"name":"_onlySellTo","type":"address","internalType":"address"}],"outputs":[],"stateMutability":"nonpayable"},{"type":"function","name":"owner","inputs":[],"outputs":[{"name":"result","type":"address","internalType":"address"}],"stateMutability":"view"},{"type":"function","name":"ownershipHandoverExpiresAt","inputs":[{"name":"pendingOwner","type":"address","internalType":"address"}],"outputs":[{"name":"result","type":"uint256","internalType":"uint256"}],"stateMutability":"view"},{"type":"function","name":"pausabilityRevoked","inputs":[],"outputs":[{"name":"","type":"bool","internalType":"bool"}],"stateMutability":"view"},{"type":"function","name":"pause","inputs":[{"name":"_value","type":"bool","internalType":"bool"}],"outputs":[],"stateMutability":"nonpayable"},{"type":"function","name":"paused","inputs":[],"outputs":[{"name":"","type":"bool","internalType":"bool"}],"stateMutability":"view"},{"type":"function","name":"removeChonkOfferOnTraitTransfer","inputs":[{"name":"_chonkId","type":"uint256","internalType":"uint256"}],"outputs":[],"stateMutability":"nonpayable"},{"type":"function","name":"renounceOwnership","inputs":[],"outputs":[],"stateMutability":"payable"},{"type":"function","name":"requestOwnershipHandover","inputs":[],"outputs":[],"stateMutability":"payable"},{"type":"function","name":"revokePausability","inputs":[],"outputs":[],"stateMutability":"nonpayable"},{"type":"function","name":"royaltyPercentage","inputs":[],"outputs":[{"name":"","type":"uint256","internalType":"uint256"}],"stateMutability":"view"},{"type":"function","name":"setChonkCooldownPeriod","inputs":[{"name":"_chonkId","type":"uint256","internalType":"uint256"}],"outputs":[],"stateMutability":"nonpayable"},{"type":"function","name":"setChonkCooldownPeriodBlocks","inputs":[{"name":"_chonkCooldownPeriod","type":"uint16","internalType":"uint16"}],"outputs":[],"stateMutability":"nonpayable"},{"type":"function","name":"setGasStipend","inputs":[{"name":"_gasStipend","type":"uint256","internalType":"uint256"}],"outputs":[],"stateMutability":"nonpayable"},{"type":"function","name":"setRoyaltyPercentage","inputs":[{"name":"_royaltyPercentage","type":"uint256","internalType":"uint256"}],"outputs":[],"stateMutability":"nonpayable"},{"type":"function","name":"setTeamWallet","inputs":[{"name":"_teamWallet","type":"address","internalType":"address"}],"outputs":[],"stateMutability":"nonpayable"},{"type":"function","name":"teamWallet","inputs":[],"outputs":[{"name":"","type":"address","internalType":"address"}],"stateMutability":"view"},{"type":"function","name":"traitBids","inputs":[{"name":"traitId","type":"uint256","internalType":"uint256"}],"outputs":[{"name":"bidder","type":"address","internalType":"address"},{"name":"bidderTBA","type":"address","internalType":"address"},{"name":"amountInWei","type":"uint256","internalType":"uint256"},{"name":"bidBlockNumber","type":"uint256","internalType":"uint256"}],"stateMutability":"view"},{"type":"function","name":"traitOfferIsValid","inputs":[{"name":"_traitId","type":"uint256","internalType":"uint256"}],"outputs":[{"name":"","type":"bool","internalType":"bool"}],"stateMutability":"view"},{"type":"function","name":"traitOffers","inputs":[{"name":"traitId","type":"uint256","internalType":"uint256"}],"outputs":[{"name":"priceInWei","type":"uint256","internalType":"uint256"},{"name":"seller","type":"address","internalType":"address"},{"name":"sellerTBA","type":"address","internalType":"address"},{"name":"onlySellTo","type":"address","internalType":"address"}],"stateMutability":"view"},{"type":"function","name":"transferOwnership","inputs":[{"name":"newOwner","type":"address","internalType":"address"}],"outputs":[],"stateMutability":"payable"},{"type":"function","name":"withdrawBidOnChonk","inputs":[{"name":"_chonkId","type":"uint256","internalType":"uint256"}],"outputs":[],"stateMutability":"nonpayable"},{"type":"function","name":"withdrawBidOnTrait","inputs":[{"name":"_traitId","type":"uint256","internalType":"uint256"}],"outputs":[],"stateMutability":"nonpayable"},{"type":"function","name":"withdrawFunds","inputs":[],"outputs":[],"stateMutability":"nonpayable"},{"type":"function","name":"withdrawableFunds","inputs":[{"name":"eoa","type":"address","internalType":"address"}],"outputs":[{"name":"balance","type":"uint256","internalType":"uint256"}],"stateMutability":"view"},{"type":"event","name":"ChonkBidAccepted","inputs":[{"name":"chonkId","type":"uint256","indexed":true,"internalType":"uint256"},{"name":"amountInWei","type":"uint256","indexed":true,"internalType":"uint256"},{"name":"buyer","type":"address","indexed":true,"internalType":"address"},{"name":"seller","type":"address","indexed":false,"internalType":"address"}],"anonymous":false},{"type":"event","name":"ChonkBidEntered","inputs":[{"name":"chonkId","type":"uint256","indexed":true,"internalType":"uint256"},{"name":"bidder","type":"address","indexed":true,"internalType":"address"},{"name":"amountInWei","type":"uint256","indexed":true,"internalType":"uint256"}],"anonymous":false},{"type":"event","name":"ChonkBidWithdrawn","inputs":[{"name":"chonkId","type":"uint256","indexed":true,"internalType":"uint256"},{"name":"bidder","type":"address","indexed":true,"internalType":"address"},{"name":"amountInWei","type":"uint256","indexed":true,"internalType":"uint256"}],"anonymous":false},{"type":"event","name":"ChonkBought","inputs":[{"name":"chonkId","type":"uint256","indexed":true,"internalType":"uint256"},{"name":"buyer","type":"address","indexed":true,"internalType":"address"},{"name":"amountInWei","type":"uint256","indexed":true,"internalType":"uint256"},{"name":"seller","type":"address","indexed":false,"internalType":"address"}],"anonymous":false},{"type":"event","name":"ChonkCooldownPeriodExpiresAtBlock","inputs":[{"name":"chonkId","type":"uint256","indexed":true,"internalType":"uint256"},{"name":"expiresAtBlock","type":"uint256","indexed":true,"internalType":"uint256"}],"anonymous":false},{"type":"event","name":"ChonkOfferCanceled","inputs":[{"name":"chonkId","type":"uint256","indexed":true,"internalType":"uint256"},{"name":"seller","type":"address","indexed":true,"internalType":"address"}],"anonymous":false},{"type":"event","name":"ChonkOffered","inputs":[{"name":"chonkId","type":"uint256","indexed":true,"internalType":"uint256"},{"name":"price","type":"uint256","indexed":true,"internalType":"uint256"},{"name":"seller","type":"address","indexed":true,"internalType":"address"},{"name":"sellerTBA","type":"address","indexed":false,"internalType":"address"}],"anonymous":false},{"type":"event","name":"ChonkOfferedToAddress","inputs":[{"name":"chonkId","type":"uint256","indexed":true,"internalType":"uint256"},{"name":"price","type":"uint256","indexed":true,"internalType":"uint256"},{"name":"seller","type":"address","indexed":true,"internalType":"address"},{"name":"sellerTBA","type":"address","indexed":false,"internalType":"address"},{"name":"onlySellTo","type":"address","indexed":false,"internalType":"address"}],"anonymous":false},{"type":"event","name":"OwnershipHandoverCanceled","inputs":[{"name":"pendingOwner","type":"address","indexed":true,"internalType":"address"}],"anonymous":false},{"type":"event","name":"OwnershipHandoverRequested","inputs":[{"name":"pendingOwner","type":"address","indexed":true,"internalType":"address"}],"anonymous":false},{"type":"event","name":"OwnershipTransferred","inputs":[{"name":"oldOwner","type":"address","indexed":true,"internalType":"address"},{"name":"newOwner","type":"address","indexed":true,"internalType":"address"}],"anonymous":false},{"type":"event","name":"TraitBidAccepted","inputs":[{"name":"traitId","type":"uint256","indexed":true,"internalType":"uint256"},{"name":"amountInWei","type":"uint256","indexed":true,"internalType":"uint256"},{"name":"buyer","type":"address","indexed":true,"internalType":"address"},{"name":"seller","type":"address","indexed":false,"internalType":"address"}],"anonymous":false},{"type":"event","name":"TraitBidEntered","inputs":[{"name":"traitId","type":"uint256","indexed":true,"internalType":"uint256"},{"name":"bidder","type":"address","indexed":true,"internalType":"address"},{"name":"amountInWei","type":"uint256","indexed":true,"internalType":"uint256"}],"anonymous":false},{"type":"event","name":"TraitBidWithdrawn","inputs":[{"name":"traitId","type":"uint256","indexed":true,"internalType":"uint256"},{"name":"bidder","type":"address","indexed":true,"internalType":"address"},{"name":"amountInWei","type":"uint256","indexed":true,"internalType":"uint256"}],"anonymous":false},{"type":"event","name":"TraitBought","inputs":[{"name":"traitId","type":"uint256","indexed":true,"internalType":"uint256"},{"name":"buyerTBA","type":"address","indexed":true,"internalType":"address"},{"name":"amountInWei","type":"uint256","indexed":true,"internalType":"uint256"},{"name":"buyer","type":"address","indexed":false,"internalType":"address"},{"name":"seller","type":"address","indexed":false,"internalType":"address"}],"anonymous":false},{"type":"event","name":"TraitOfferCanceled","inputs":[{"name":"traitId","type":"uint256","indexed":true,"internalType":"uint256"},{"name":"seller","type":"address","indexed":true,"internalType":"address"}],"anonymous":false},{"type":"event","name":"TraitOffered","inputs":[{"name":"traitId","type":"uint256","indexed":true,"internalType":"uint256"},{"name":"price","type":"uint256","indexed":true,"internalType":"uint256"},{"name":"seller","type":"address","indexed":true,"internalType":"address"},{"name":"sellerTBA","type":"address","indexed":false,"internalType":"address"}],"anonymous":false},{"type":"event","name":"TraitOfferedToAddress","inputs":[{"name":"traitId","type":"uint256","indexed":true,"internalType":"uint256"},{"name":"price","type":"uint256","indexed":true,"internalType":"uint256"},{"name":"seller","type":"address","indexed":true,"internalType":"address"},{"name":"sellerTBA","type":"address","indexed":false,"internalType":"address"},{"name":"onlySellTo","type":"address","indexed":false,"internalType":"address"}],"anonymous":false},{"type":"error","name":"AlreadyInitialized","inputs":[]},{"type":"error","name":"ApproveTheMarketplace","inputs":[]},{"type":"error","name":"BidIsTooLow","inputs":[]},{"type":"error","name":"BidderChanged","inputs":[]},{"type":"error","name":"CMUnauthorized","inputs":[]},{"type":"error","name":"CantAcceptYourOwnBid","inputs":[]},{"type":"error","name":"CantBeZero","inputs":[]},{"type":"error","name":"CantBidOnYourOwnChonk","inputs":[]},{"type":"error","name":"CantBidOnYourOwnTrait","inputs":[]},{"type":"error","name":"CantBuyYourOwnChonk","inputs":[]},{"type":"error","name":"CantBuyYourOwnTrait","inputs":[]},{"type":"error","name":"ChonkInCooldown","inputs":[]},{"type":"error","name":"MustWaitToWithdrawBid","inputs":[]},{"type":"error","name":"NewOwnerIsZeroAddress","inputs":[]},{"type":"error","name":"NoBidToAccept","inputs":[]},{"type":"error","name":"NoBidToWithdraw","inputs":[]},{"type":"error","name":"NoHandoverRequest","inputs":[]},{"type":"error","name":"NoOfferToCancel","inputs":[]},{"type":"error","name":"NotYourBid","inputs":[]},{"type":"error","name":"NotYourChonk","inputs":[]},{"type":"error","name":"NotYourOffer","inputs":[]},{"type":"error","name":"NotYourTrait","inputs":[]},{"type":"error","name":"OfferDoesNotExist","inputs":[]},{"type":"error","name":"OnlySellToEOAs","inputs":[]},{"type":"error","name":"OnlyTraitsContract","inputs":[]},{"type":"error","name":"PausabilityRevoked","inputs":[]},{"type":"error","name":"Paused","inputs":[]},{"type":"error","name":"SellerMustRelistTrait","inputs":[]},{"type":"error","name":"TBANeedsToApproveMarketplace","inputs":[]},{"type":"error","name":"TraitEquipped","inputs":[]},{"type":"error","name":"Unauthorized","inputs":[]},{"type":"error","name":"WithdrawFailed","inputs":[]},{"type":"error","name":"WrongAmount","inputs":[]},{"type":"error","name":"YouCantBuyThatChonk","inputs":[]},{"type":"error","name":"YouCantBuyThatTrait","inputs":[]}],"bytecode":{"object":"0x60c06040527307152bfde079b5319e5308c43fb1dbc9c76cb4f960805261ea6060035560326004553480156200003457600080fd5b506040516200510a3803806200510a8339810160408190526200005791620000f2565b6001600055620000673362000099565b6001600160a01b0392831660a05260ff91909116600255600180546001600160a01b0319169190921617905562000143565b6001600160a01b0316638b78c6d8198190558060007f8be0079c531659141344cd1fd0a4f28419497f9722a3daafe3b4186f6b6457e08180a350565b80516001600160a01b0381168114620000ed57600080fd5b919050565b6000806000606084860312156200010857600080fd5b6200011384620000d5565b9250602084015160ff811681146200012a57600080fd5b91506200013a60408501620000d5565b90509250925092565b60805160a051614e43620002c76000396000818161046d01528181610d46015281816110000152818161111b015281816111bb0152818161148301528181611576015281816116c4015281816120ba0152818161247401528181612570015281816126100152818161291901528181612fce01528181613c1b01528181613ef501528181614010015281816140a801526143b501526000818161073b01528181610dda01528181610ecf01528181611096015281816117a601528181611846015281816118fd01528181611a8f01528181611b5201528181611df601528181611fdd01528181612326015281816123dd015281816127a101528181612b3601528181612bd601528181612c8d01528181612e7601528181613165015281816131f201528181613292015281816134420152818161369f01528181613902015281816139a101528181613aff01528181613caf01528181613da501528181613e4b01528181613f8b015281816142ea0152818161444901526145840152614e436000f3fe60806040526004361061036b5760003560e01c806365318c86116101c6578063b1f3694e116100f7578063ed89f70411610095578063f2fde38b1161006f578063f2fde38b14610c1c578063f495f5a814610c2f578063f827d63214610c4f578063fee81cf414610c6f57600080fd5b8063ed89f70414610b74578063f04e283e14610b94578063f098821414610ba757600080fd5b8063cecea401116100d1578063cecea40114610af4578063d3cf8f8d14610b14578063e0882cf814610b41578063ebd34a8814610b6157600080fd5b8063b1f3694e14610a93578063b5baf47614610ab4578063cca5975914610ad457600080fd5b80638da5cb5b116101645780639f24c9451161013e5780639f24c94514610a13578063a0a0c4b814610a33578063a2e6961314610a53578063a4cc832414610a7357600080fd5b80638da5cb5b146109d1578063917e3a7c146109ea5780639434c910146109fd57600080fd5b8063795aded3116101a0578063795aded3146108fb5780637dbc86191461091b5780638a71bb2d1461096a5780638b3223831461098057600080fd5b806365318c861461088d578063662c08cd146108d3578063715018a6146108f357600080fd5b806336442e30116102a057806354d1f13d1161023e578063599270441161021857806359927044146107fc5780635c975abb1461081c57806361ba27da1461084d578063644ec5271461086d57600080fd5b806354d1f13d146107ce578063571ccb74146107d65780635793b22e146107e957600080fd5b806346c627fe1161027a57806346c627fe146107095780634de8cdf6146107295780634f6088cd1461075d5780634fc9923e146107ae57600080fd5b806336442e30146105a85780633ce0c3721461064c5780634666a416146106ea57600080fd5b8063256929621161030d5780632f30cabd116102e75780632f30cabd146105225780632f3a291c1461055d5780632fbe78f014610573578063361f1c521461059357600080fd5b806325692962146104dc5780632619e11b146104e45780632e1d274f1461050457600080fd5b80631525ff7d116103495780631525ff7d1461043b578063170c14d91461045b57806324600fc3146104a757806324b786e2146104bc57600080fd5b806302329a29146103705780630b114256146103925780630cbd0922146103b2575b600080fd5b34801561037c57600080fd5b5061039061038b3660046149d5565b610ca2565b005b34801561039e57600080fd5b506103906103ad3660046149f9565b610cf3565b3480156103be57600080fd5b506104116103cd366004614a25565b600081815260076020908152604091829020825160608101845281546001600160a01b03168082526001830154938201849052600290920154930183905293909250565b604080516001600160a01b0390941684526020840192909252908201526060015b60405180910390f35b34801561044757600080fd5b50610390610456366004614a63565b611393565b34801561046757600080fd5b5061048f7f000000000000000000000000000000000000000000000000000000000000000081565b6040516001600160a01b039091168152602001610432565b3480156104b357600080fd5b506103906113bd565b3480156104c857600080fd5b506103906104d7366004614a25565b611478565b61039061150e565b3480156104f057600080fd5b506103906104ff366004614a25565b61155e565b34801561051057600080fd5b5061039061051f366004614a25565b50565b34801561052e57600080fd5b5061054f61053d366004614a63565b60096020526000908152604090205481565b604051908152602001610432565b34801561056957600080fd5b5061054f60045481565b34801561057f57600080fd5b5061039061058e366004614a80565b61156b565b34801561059f57600080fd5b50610390611671565b3480156105b457600080fd5b5061061d6105c3366004614a25565b6000908152600560209081526040918290208251608081018452815480825260018301546001600160a01b039081169483018590526002840154811695830186905260039093015490921660609091018190529093919291565b604080519485526001600160a01b03938416602086015291831691840191909152166060820152608001610432565b34801561065857600080fd5b506106bf610667366004614a25565b600090815260086020908152604091829020825160808101845281546001600160a01b039081168083526001840154909116938201849052600283015494820185905260039092015460609091018190529093919291565b604080516001600160a01b039586168152949093166020850152918301526060820152608001610432565b3480156106f657600080fd5b50610390610705366004614ac6565b5050565b34801561071557600080fd5b50610390610724366004614a25565b6116b9565b34801561073557600080fd5b5061048f7f000000000000000000000000000000000000000000000000000000000000000081565b34801561076957600080fd5b5061061d610778366004614a25565b600660205260009081526040902080546001820154600283015460039093015491926001600160a01b0391821692908216911684565b3480156107ba57600080fd5b506103906107c9366004614b97565b611740565b6103906119c6565b6103906107e4366004614bd0565b611a02565b6103906107f7366004614a25565b611d6a565b34801561080857600080fd5b5060015461048f906001600160a01b031681565b34801561082857600080fd5b5060015461083d90600160a01b900460ff1681565b6040519015158152602001610432565b34801561085957600080fd5b50610390610868366004614a25565b611fc5565b34801561087957600080fd5b50610390610888366004614a25565b611fd2565b34801561089957600080fd5b506104116108a8366004614a25565b6007602052600090815260409020805460018201546002909201546001600160a01b03909116919083565b3480156108df57600080fd5b506103906108ee366004614a25565b6120af565b610390612156565b34801561090757600080fd5b50610390610916366004614a25565b61216a565b34801561092757600080fd5b506106bf610936366004614a25565b60086020526000908152604090208054600182015460028301546003909301546001600160a01b0392831693919092169184565b34801561097657600080fd5b5061054f60025481565b34801561098c57600080fd5b5061061d61099b366004614a25565b600560205260009081526040902080546001820154600283015460039093015491926001600160a01b0391821692908216911684565b3480156109dd57600080fd5b50638b78c6d8195461048f565b6103906109f8366004614bd0565b6122bc565b348015610a0957600080fd5b5061054f60035481565b348015610a1f57600080fd5b50610390610a2e366004614a25565b6129f9565b348015610a3f57600080fd5b50610390610a4e366004614bf2565b612a9c565b348015610a5f57600080fd5b5061054f610a6e366004614a25565b612aad565b348015610a7f57600080fd5b50610390610a8e366004614bd0565b612ad0565b348015610a9f57600080fd5b5060015461083d90600160a81b900460ff1681565b348015610ac057600080fd5b50610390610acf366004614a80565b612d55565b348015610ae057600080fd5b50610390610aef366004614a80565b6130a4565b348015610b0057600080fd5b50610390610b0f366004614a25565b613518565b348015610b2057600080fd5b5061054f610b2f366004614a25565b600a6020526000908152604090205481565b348015610b4d57600080fd5b5061083d610b5c366004614a25565b61365f565b610390610b6f366004614a25565b61373f565b348015610b8057600080fd5b50610390610b8f366004614c16565b613bc8565b610390610ba2366004614a63565b61427b565b348015610bb357600080fd5b5061061d610bc2366004614a25565b6000908152600660209081526040918290208251608081018452815480825260018301546001600160a01b039081169483018590526002840154811695830186905260039093015490921660609091018190529093919291565b610390610c2a366004614a63565b6142b8565b348015610c3b57600080fd5b50610390610c4a366004614a80565b6142df565b348015610c5b57600080fd5b50610390610c6a366004614bd0565b6143af565b348015610c7b57600080fd5b5061054f610c8a366004614a63565b63389a75e1600c908152600091909152602090205490565b610caa61469b565b600154600160a81b900460ff1615610cd55760405163d9ef8fb560e01b815260040160405180910390fd5b60018054911515600160a01b0260ff60a01b19909216919091179055565b600154600160a01b900460ff1615610d1e576040516313d0ff5960e31b815260040160405180910390fd5b8080600003610d405760405163e7195f5160e01b815260040160405180910390fd5b838360007f00000000000000000000000000000000000000000000000000000000000000006001600160a01b0316636352211e846040518263ffffffff1660e01b8152600401610d9291815260200190565b602060405180830381865afa158015610daf573d6000803e3d6000fd5b505050506040513d601f19601f82011682018060405250810190610dd39190614c57565b90506000807f00000000000000000000000000000000000000000000000000000000000000006001600160a01b03166304003bd0856040518263ffffffff1660e01b8152600401610e2691815260200190565b6040805180830381865afa158015610e42573d6000803e3d6000fd5b505050506040513d601f19601f82011682018060405250810190610e669190614c74565b91509150806001600160a01b0316836001600160a01b0316141580610e9457506001600160a01b0382163314155b15610eb257604051633e79b9f360e01b815260040160405180910390fd5b6040516311543c9960e31b815260048101899052602481018a90527f00000000000000000000000000000000000000000000000000000000000000006001600160a01b031690638aa1e4c890604401602060405180830381865afa158015610f1e573d6000803e3d6000fd5b505050506040513d601f19601f82011682018060405250810190610f429190614ca3565b15610f605760405163b14aa60560e01b815260040160405180910390fd5b6000888152600560205260409020600101546001600160a01b031615610fe7576000888152600560205260408082208281556001810180546001600160a01b0319908116909155600282018054821690556003909101805490911690555133918a917fa92aff34e046840eb03a70da1750551a7cc813f27519416e1b05865eb26035169190a35b6040516331a9108f60e11b8152600481018a90526000907f00000000000000000000000000000000000000000000000000000000000000006001600160a01b031690636352211e90602401602060405180830381865afa15801561104f573d6000803e3d6000fd5b505050506040513d601f19601f820116820180604052508101906110739190614c57565b604051624003bd60e41b8152600481018b90529091506000906001600160a01b037f000000000000000000000000000000000000000000000000000000000000000016906304003bd0906024016040805180830381865afa1580156110dc573d6000803e3d6000fd5b505050506040513d601f19601f820116820180604052508101906111009190614c74565b5060405163e985e9c560e01b81529091506001600160a01b037f0000000000000000000000000000000000000000000000000000000000000000169063e985e9c5906111529085903090600401614cc0565b602060405180830381865afa15801561116f573d6000803e3d6000fd5b505050506040513d601f19601f820116820180604052508101906111939190614ca3565b158015611232575060405163020604bf60e21b8152600481018c905230906001600160a01b037f0000000000000000000000000000000000000000000000000000000000000000169063081812fc90602401602060405180830381865afa158015611202573d6000803e3d6000fd5b505050506040513d601f19601f820116820180604052508101906112269190614c57565b6001600160a01b031614155b15611250576040516361cf5f1360e01b815260040160405180910390fd5b60405180608001604052808a8152602001826001600160a01b03168152602001836001600160a01b0316815260200160006001600160a01b0316815250600660008d81526020019081526020016000206000820151816000015560208201518160010160006101000a8154816001600160a01b0302191690836001600160a01b0316021790555060408201518160020160006101000a8154816001600160a01b0302191690836001600160a01b0316021790555060608201518160030160006101000a8154816001600160a01b0302191690836001600160a01b03160217905550905050806001600160a01b0316898c7fd81820ebfdde47351b4ac56296bba70e8f57f24195955168a1b5bf6b653e3d3a8560405161137e91906001600160a01b0391909116815260200190565b60405180910390a45050505050505050505050565b61139b61469b565b600180546001600160a01b0319166001600160a01b0392909216919091179055565b6002600054036113e85760405162461bcd60e51b81526004016113df90614cda565b60405180910390fd5b60026000908155338082526009602052604080832080549084905560035491519093929190849084818181858888f193505050503d8060008114611448576040519150601f19603f3d011682016040523d82523d6000602084013e61144d565b606091505b505090508061146f57604051631d42c86760e21b815260040160405180910390fd5b50506001600055565b336001600160a01b037f000000000000000000000000000000000000000000000000000000000000000016146114c15760405163125e77d360e01b815260040160405180910390fd5b6000818152600a6020526040902043908190556004546114e091614d27565b60405182907fb38775c1616a155d6f47774363128c15476136a15dd129e8aa653c3f2f6ba8a590600090a350565b60006202a30067ffffffffffffffff164201905063389a75e1600c5233600052806020600c2055337fdbf36a107da19e49527a7176a1babf963b4b0ff8cde35ee35d6cd8f1f9ac7e1d600080a250565b61156661469b565b600355565b336001600160a01b037f000000000000000000000000000000000000000000000000000000000000000016146115b45760405163125e77d360e01b815260040160405180910390fd5b600082815260086020908152604091829020825160808101845281546001600160a01b039081168083526001840154909116938201939093526002820154938101939093526003015460608301521561166c57816001600160a01b031681602001516001600160a01b03160361166c5760008381526008602052604080822080546001600160a01b031990811682556001820180549091169055600281018390556003019190915581519082015161166c91906146b6565b505050565b61167961469b565b600154600160a81b900460ff16156116a45760405163d9ef8fb560e01b815260040160405180910390fd5b6001805460ff60a81b1916600160a81b179055565b336001600160a01b037f0000000000000000000000000000000000000000000000000000000000000000161461170257604051632c33f75f60e21b815260040160405180910390fd5b60009081526005602052604081209081556001810180546001600160a01b031990811690915560028201805482169055600390910180549091169055565b600154600160a01b900460ff161561176b576040516313d0ff5960e31b815260040160405180910390fd5b818060000361178d5760405163e7195f5160e01b815260040160405180910390fd5b60405163e985e9c560e01b815284906001600160a01b037f0000000000000000000000000000000000000000000000000000000000000000169063e985e9c5906117dd9033903090600401614cc0565b602060405180830381865afa1580156117fa573d6000803e3d6000fd5b505050506040513d601f19601f8201168201806040525081019061181e9190614ca3565b1580156118bd575060405163020604bf60e21b81526004810182905230906001600160a01b037f0000000000000000000000000000000000000000000000000000000000000000169063081812fc90602401602060405180830381865afa15801561188d573d6000803e3d6000fd5b505050506040513d601f19601f820116820180604052508101906118b19190614c57565b6001600160a01b031614155b156118db576040516361cf5f1360e01b815260040160405180910390fd5b604051624003bd60e41b81526004810186905260009081906001600160a01b037f000000000000000000000000000000000000000000000000000000000000000016906304003bd0906024016040805180830381865afa158015611943573d6000803e3d6000fd5b505050506040513d601f19601f820116820180604052508101906119679190614c74565b915091506119788787878585614745565b816001600160a01b031686887f4b2696c0b570fe60ace24fc90fe3446d3328d0c3aaeed71e743603aaba978e7884896040516119b5929190614cc0565b60405180910390a450505050505050565b63389a75e1600c523360005260006020600c2055337ffa7b8eab7da67f412cc9575ed43464468f9bfbae89d1675917346ca6d8fe3c92600080a2565b3480600003611a245760405163e7195f5160e01b815260040160405180910390fd5b600154600160a01b900460ff1615611a4f576040516313d0ff5960e31b815260040160405180910390fd5b600260005403611a715760405162461bcd60e51b81526004016113df90614cda565b60026000908155604051624003bd60e41b81526004810184905281907f00000000000000000000000000000000000000000000000000000000000000006001600160a01b0316906304003bd0906024016040805180830381865afa158015611add573d6000803e3d6000fd5b505050506040513d601f19601f82011682018060405250810190611b019190614c74565b90925090506001600160a01b0382163314611b2f57604051633faa6c4560e01b815260040160405180910390fd5b604051636670434960e01b81526004810186905260009081906001600160a01b037f00000000000000000000000000000000000000000000000000000000000000001690636670434990602401608060405180830381865afa158015611b99573d6000803e3d6000fd5b505050506040513d601f19601f82011682018060405250810190611bbd9190614d3a565b509250509150336001600160a01b0316816001600160a01b03161480611beb57506001600160a01b03821633145b15611c09576040516303d54cb760e11b815260040160405180910390fd5b600087815260086020908152604091829020825160808101845281546001600160a01b0390811682526001830154169281019290925260028101549282018390526003015460608201529015611c9d576000606482604001516069611c6e9190614d84565b611c789190614d9b565b905080341015611c9b576040516386bed4cd60e01b815260040160405180910390fd5b505b604080516080810182523381526001600160a01b03868116602080840191825234848601908152436060860190815260008f8152600890935291869020945185549085166001600160a01b03199182161786559251600186018054919095169316929092179092555160028301555160039091015581015115611d2c57611d2c816000015182604001516146b6565b604051349033908a907f10962e2373847454af3c025d9b77161f5244f4e2a69e3e9ddf4954b2622a868990600090a450506001600055505050505050565b3480600003611d8c5760405163e7195f5160e01b815260040160405180910390fd5b600154600160a01b900460ff1615611db7576040516313d0ff5960e31b815260040160405180910390fd5b600260005403611dd95760405162461bcd60e51b81526004016113df90614cda565b600260009081556040516331a9108f60e11b8152600481018490527f00000000000000000000000000000000000000000000000000000000000000006001600160a01b031690636352211e90602401602060405180830381865afa158015611e45573d6000803e3d6000fd5b505050506040513d601f19601f82011682018060405250810190611e699190614c57565b9050336001600160a01b03821603611e945760405163d2e7167f60e01b815260040160405180910390fd5b600083815260076020908152604091829020825160608101845281546001600160a01b0316815260018201549281018390526002909101549281019290925215611f1c576000606482602001516069611eed9190614d84565b611ef79190614d9b565b905080341015611f1a576040516386bed4cd60e01b815260040160405180910390fd5b505b604080516060810182523381523460208083019182524383850190815260008981526007835294909420925183546001600160a01b0319166001600160a01b0390911617835590516001830155915160029091015581015115611f8b57611f8b816000015182602001516146b6565b6040513490339086907f5bcbf8d6be0293e172be2f32bd63e586fd65b0d15d70c845d393d73f2cfcff1790600090a4505060016000555050565b611fcd61469b565b600255565b336001600160a01b037f0000000000000000000000000000000000000000000000000000000000000000161461201b5760405163125e77d360e01b815260040160405180910390fd5b60008181526005602090815260409182902082516080810184528154815260018201546001600160a01b039081169382018490526002830154811694820194909452600390910154909216606083015215610705575060009081526005602052604081209081556001810180546001600160a01b031990811690915560028201805482169055600390910180549091169055565b336001600160a01b037f000000000000000000000000000000000000000000000000000000000000000016146120f85760405163125e77d360e01b815260040160405180910390fd5b6000818152600660205260409020600101546001600160a01b03161561051f5760009081526006602052604081209081556001810180546001600160a01b031990811690915560028201805482169055600390910180549091169055565b61215e61469b565b612168600061484a565b565b60026000540361218c5760405162461bcd60e51b81526004016113df90614cda565b6002600081815582815260076020908152604091829020825160608101845281546001600160a01b0316808252600183015493820193909352930154918301919091526121ec57604051633273560160e21b815260040160405180910390fd5b80516001600160a01b031633146122165760405163173f0e6f60e21b815260040160405180910390fd5b60045481604001516122289190614d27565b43101561224757604051623569d160e71b815260040160405180910390fd5b6000828152600760209081526040822080546001600160a01b031916815560018101839055600201919091558101516122819033906146b6565b6020810151604051339084907f42aa62a335199e81c12706e51f762071115ee5df409428ef670b00ee8b7a3d2690600090a450506001600055565b600154600160a01b900460ff16156122e7576040516313d0ff5960e31b815260040160405180910390fd5b6002600054036123095760405162461bcd60e51b81526004016113df90614cda565b600260009081556040516331a9108f60e11b8152600481018390527f00000000000000000000000000000000000000000000000000000000000000006001600160a01b031690636352211e90602401602060405180830381865afa158015612375573d6000803e3d6000fd5b505050506040513d601f19601f820116820180604052508101906123999190614c57565b90506001600160a01b03811633146123c457604051633faa6c4560e01b815260040160405180910390fd5b604051639c05d68d60e01b8152600481018390526000907f00000000000000000000000000000000000000000000000000000000000000006001600160a01b031690639c05d68d90602401602060405180830381865afa15801561242c573d6000803e3d6000fd5b505050506040513d601f19601f820116820180604052508101906124509190614c57565b6040516331a9108f60e11b8152600481018690529091506000906001600160a01b037f00000000000000000000000000000000000000000000000000000000000000001690636352211e90602401602060405180830381865afa1580156124bb573d6000803e3d6000fd5b505050506040513d601f19601f820116820180604052508101906124df9190614c57565b9050816001600160a01b0316816001600160a01b03160361251357604051633617ec7f60e21b815260040160405180910390fd5b60008581526006602090815260409182902082516080810184528154815260018201546001600160a01b03908116938201939093526002820154831681850181905260039092015483166060820152925163e985e9c560e01b81527f00000000000000000000000000000000000000000000000000000000000000009092169163e985e9c5916125a7913090600401614cc0565b602060405180830381865afa1580156125c4573d6000803e3d6000fd5b505050506040513d601f19601f820116820180604052508101906125e89190614ca3565b158015612687575060405163020604bf60e21b81526004810187905230906001600160a01b037f0000000000000000000000000000000000000000000000000000000000000000169063081812fc90602401602060405180830381865afa158015612657573d6000803e3d6000fd5b505050506040513d601f19601f8201168201806040525081019061267b9190614c57565b6001600160a01b031614155b156126a557604051631c4f6a7160e11b815260040160405180910390fd5b60208101516001600160a01b0381166126d1576040516374dbff7960e01b815260040160405180910390fd5b336001600160a01b038216036126fa57604051633617ec7f60e21b815260040160405180910390fd5b60608201516001600160a01b031615801590612723575060608201516001600160a01b03163314155b156127415760405163a969b35f60e01b815260040160405180910390fd5b61274a8761365f565b612767576040516357b327e760e11b815260040160405180910390fd5b81513414612788576040516349986e7360e01b815260040160405180910390fd5b604051636670434960e01b8152600481018890526000907f00000000000000000000000000000000000000000000000000000000000000006001600160a01b031690636670434990602401608060405180830381865afa1580156127f0573d6000803e3d6000fd5b505050506040513d601f19601f820116820180604052508101906128149190614d3a565b935050505080156128385760405163b14aa60560e01b815260040160405180910390fd5b6000888152600660209081526040808320838155600180820180546001600160a01b031990811690915560028084018054831690556003938401805490921690915560088552838620845160808101865281546001600160a01b03908116808352948301541696810196909652908101549385019390935291015460608301523390036128fd5760008a81526008602052604080822080546001600160a01b031990811682556001820180549091169055600281018390556003019190915581015191505b60408086015190516323b872dd60e01b81526001600160a01b037f000000000000000000000000000000000000000000000000000000000000000016916323b872dd9161295191908b908f90600401614dbd565b600060405180830381600087803b15801561296b57600080fd5b505af115801561297f573d6000803e3d6000fd5b50505050600082111561299857805161299890836146b6565b6129a23485614888565b5034876001600160a01b03168b7f9b53f736294544c8dcc2ef0b86a8855c522fa2cdfeed5b52061f8f0e97e1f29933886040516129e0929190614cc0565b60405180910390a4505060016000555050505050505050565b6000818152600560205260409020600101546001600160a01b03163314612a33576040516332a0bb6960e01b815260040160405180910390fd5b6000818152600560205260408082208281556001810180546001600160a01b03199081169091556002820180548216905560039091018054909116905551339183917fa92aff34e046840eb03a70da1750551a7cc813f27519416e1b05865eb26035169190a350565b612aa461469b565b61ffff16600455565b600061271060025483612ac09190614d84565b612aca9190614d9b565b92915050565b600154600160a01b900460ff1615612afb576040516313d0ff5960e31b815260040160405180910390fd5b8080600003612b1d5760405163e7195f5160e01b815260040160405180910390fd5b60405163e985e9c560e01b815283906001600160a01b037f0000000000000000000000000000000000000000000000000000000000000000169063e985e9c590612b6d9033903090600401614cc0565b602060405180830381865afa158015612b8a573d6000803e3d6000fd5b505050506040513d601f19601f82011682018060405250810190612bae9190614ca3565b158015612c4d575060405163020604bf60e21b81526004810182905230906001600160a01b037f0000000000000000000000000000000000000000000000000000000000000000169063081812fc90602401602060405180830381865afa158015612c1d573d6000803e3d6000fd5b505050506040513d601f19601f82011682018060405250810190612c419190614c57565b6001600160a01b031614155b15612c6b576040516361cf5f1360e01b815260040160405180910390fd5b604051624003bd60e41b81526004810185905260009081906001600160a01b037f000000000000000000000000000000000000000000000000000000000000000016906304003bd0906024016040805180830381865afa158015612cd3573d6000803e3d6000fd5b505050506040513d601f19601f82011682018060405250810190612cf79190614c74565b91509150612d09868660008585614745565b6040516001600160a01b038281168252831690869088907f749104dd5f8de8e4b889d790ea029b6ec8515f14cf73d20604b60e0b649a95df9060200160405180910390a4505050505050565b600154600160a01b900460ff1615612d80576040516313d0ff5960e31b815260040160405180910390fd5b600260005403612da25760405162461bcd60e51b81526004016113df90614cda565b6002600081815583815260086020908152604091829020825160808101845281546001600160a01b039081168083526001840154909116938201939093529381015492840192909252600390910154606083015280612e1457604051637ccf97e760e01b815260040160405180910390fd5b336001600160a01b03821603612e3d576040516309f6914560e21b815260040160405180910390fd5b826001600160a01b0316816001600160a01b031614612e6f57604051630e5d99a160e41b815260040160405180910390fd5b60008060007f00000000000000000000000000000000000000000000000000000000000000006001600160a01b03166366704349886040518263ffffffff1660e01b8152600401612ec291815260200190565b608060405180830381865afa158015612edf573d6000803e3d6000fd5b505050506040513d601f19601f82011682018060405250810190612f039190614d3a565b93509350509250336001600160a01b0316826001600160a01b031614612f3c57604051633e79b9f360e01b815260040160405180910390fd5b8015612f5b5760405163b14aa60560e01b815260040160405180910390fd5b6000878152600660209081526040808320838155600180820180546001600160a01b0319908116909155600280840180548316905560039384018054831690556008865284872080548316815592830180549092169091558101859055019290925586015190516323b872dd60e01b81527f00000000000000000000000000000000000000000000000000000000000000006001600160a01b0316916323b872dd9161300d9187918c90600401614dbd565b600060405180830381600087803b15801561302757600080fd5b505af115801561303b573d6000803e3d6000fd5b5050505061304d856040015183614888565b5060408086015190516001600160a01b0384811682528616919089907fc476c7174eb6bcf722015101bfd2abf9161ab48659b47e55f8b7260b06ebf0119060200160405180910390a4505060016000555050505050565b600154600160a01b900460ff16156130cf576040516313d0ff5960e31b815260040160405180910390fd5b6002600054036130f15760405162461bcd60e51b81526004016113df90614cda565b60026000908155828152600a602052604090205482901580159061312e57506004546000828152600a602052604090205461312c9043614de1565b105b1561314c57604051635fd7538560e01b815260040160405180910390fd5b6040516331a9108f60e11b8152600481018490526000907f00000000000000000000000000000000000000000000000000000000000000006001600160a01b031690636352211e90602401602060405180830381865afa1580156131b4573d6000803e3d6000fd5b505050506040513d601f19601f820116820180604052508101906131d89190614c57565b60405163e985e9c560e01b81529091506001600160a01b037f0000000000000000000000000000000000000000000000000000000000000000169063e985e9c5906132299084903090600401614cc0565b602060405180830381865afa158015613246573d6000803e3d6000fd5b505050506040513d601f19601f8201168201806040525081019061326a9190614ca3565b158015613309575060405163020604bf60e21b81526004810185905230906001600160a01b037f0000000000000000000000000000000000000000000000000000000000000000169063081812fc90602401602060405180830381865afa1580156132d9573d6000803e3d6000fd5b505050506040513d601f19601f820116820180604052508101906132fd9190614c57565b6001600160a01b031614155b15613327576040516361cf5f1360e01b815260040160405180910390fd5b6001600160a01b038116331461335057604051633faa6c4560e01b815260040160405180910390fd5b600084815260076020908152604091829020825160608101845281546001600160a01b031680825260018301549382019390935260029091015492810192909252806133af57604051637ccf97e760e01b815260040160405180910390fd5b336001600160a01b038216036133d8576040516309f6914560e21b815260040160405180910390fd5b846001600160a01b0316816001600160a01b03161461340a57604051630e5d99a160e41b815260040160405180910390fd5b60008681526007602052604080822080546001600160a01b03191681556001810183905560020191909155516323b872dd60e01b81527f00000000000000000000000000000000000000000000000000000000000000006001600160a01b0316906323b872dd9061348390339085908b90600401614dbd565b600060405180830381600087803b15801561349d57600080fd5b505af11580156134b1573d6000803e3d6000fd5b505050506134c3826020015184614888565b506020808301516040516001600160a01b03868116825284169289917f93f583f5df123bec43b0c3403a5d3dae34bc2251a68523f99d3041cb80c6ea3891015b60405180910390a45050600160005550505050565b60026000540361353a5760405162461bcd60e51b81526004016113df90614cda565b6002600081815582815260086020908152604091829020825160808101845281546001600160a01b039081168083526001840154909116938201939093529381015492840192909252600390910154606083015233146135ad5760405163173f0e6f60e21b815260040160405180910390fd5b60045481606001516135bf9190614d27565b4310156135de57604051623569d160e71b815260040160405180910390fd5b60008281526008602052604080822080546001600160a01b03199081168255600182018054909116905560028101839055600301919091558101516136249033906146b6565b6040808201519051339084907f7647025e5547900d10b38a3053f5fcb9037d89294d94600b0bfe4f48c798439690600090a450506001600055565b6000818152600660205260408120600101546001600160a01b031661368657506000919050565b604051636670434960e01b8152600481018390526000907f00000000000000000000000000000000000000000000000000000000000000006001600160a01b031690636670434990602401608060405180830381865afa1580156136ee573d6000803e3d6000fd5b505050506040513d601f19601f820116820180604052508101906137129190614d3a565b50600095865260066020526040909520600101546001600160a01b03958616951694909414949350505050565b600154600160a01b900460ff161561376a576040516313d0ff5960e31b815260040160405180910390fd5b60026000540361378c5760405162461bcd60e51b81526004016113df90614cda565b60026000908155818152600a60205260409020548190158015906137c957506004546000828152600a60205260409020546137c79043614de1565b105b156137e757604051635fd7538560e01b815260040160405180910390fd5b60008281526005602090815260409182902082516080810184528154815260018201546001600160a01b039081169382018490526002830154811694820194909452600390910154909216606083015280613855576040516374dbff7960e01b815260040160405180910390fd5b336001600160a01b0382160361387e5760405163abcb310f60e01b815260040160405180910390fd5b60608201516001600160a01b0316158015906138a7575060608201516001600160a01b03163314155b156138c557604051634b38765560e01b815260040160405180910390fd5b815134146138e6576040516349986e7360e01b815260040160405180910390fd5b602082015160405163e985e9c560e01b81526001600160a01b037f0000000000000000000000000000000000000000000000000000000000000000169163e985e9c59161393891903090600401614cc0565b602060405180830381865afa158015613955573d6000803e3d6000fd5b505050506040513d601f19601f820116820180604052508101906139799190614ca3565b158015613a18575060405163020604bf60e21b81526004810185905230906001600160a01b037f0000000000000000000000000000000000000000000000000000000000000000169063081812fc90602401602060405180830381865afa1580156139e8573d6000803e3d6000fd5b505050506040513d601f19601f82011682018060405250810190613a0c9190614c57565b6001600160a01b031614155b15613a36576040516361cf5f1360e01b815260040160405180910390fd5b6000848152600560209081526040808320838155600180820180546001600160a01b0319908116909155600280840180548316905560039093018054909116905560078452828520835160608101855281546001600160a01b031680825292820154958101959095529091015491830191909152339003613ae3576000868152600760209081526040822080546001600160a01b0319168155600181018390556002019190915581015191505b60208401516040516323b872dd60e01b81526001600160a01b037f000000000000000000000000000000000000000000000000000000000000000016916323b872dd91613b37919033908b90600401614dbd565b600060405180830381600087803b158015613b5157600080fd5b505af1158015613b65573d6000803e3d6000fd5b505050506000821115613b7e578051613b7e90836146b6565b613b883484614888565b506040516001600160a01b03841681523490339088907f35e25b9a592362b9d470b2a4907c7ea3ae21ab1a1c9eb41e1fd146bc8a33f96f90602001613503565b600154600160a01b900460ff1615613bf3576040516313d0ff5960e31b815260040160405180910390fd5b8180600003613c155760405163e7195f5160e01b815260040160405180910390fd5b848460007f00000000000000000000000000000000000000000000000000000000000000006001600160a01b0316636352211e846040518263ffffffff1660e01b8152600401613c6791815260200190565b602060405180830381865afa158015613c84573d6000803e3d6000fd5b505050506040513d601f19601f82011682018060405250810190613ca89190614c57565b90506000807f00000000000000000000000000000000000000000000000000000000000000006001600160a01b03166304003bd0856040518263ffffffff1660e01b8152600401613cfb91815260200190565b6040805180830381865afa158015613d17573d6000803e3d6000fd5b505050506040513d601f19601f82011682018060405250810190613d3b9190614c74565b91509150806001600160a01b0316836001600160a01b0316141580613d6957506001600160a01b0382163314155b15613d8757604051633e79b9f360e01b815260040160405180910390fd5b60405162525fcd60e91b81526001600160a01b0388811660048301527f0000000000000000000000000000000000000000000000000000000000000000169063a4bf9a0090602401602060405180830381865afa158015613dec573d6000803e3d6000fd5b505050506040513d601f19601f82011682018060405250810190613e109190614df4565b15613e2e57604051632b7144e960e21b815260040160405180910390fd5b6040516311543c9960e31b8152600481018a9052602481018b90527f00000000000000000000000000000000000000000000000000000000000000006001600160a01b031690638aa1e4c890604401602060405180830381865afa158015613e9a573d6000803e3d6000fd5b505050506040513d601f19601f82011682018060405250810190613ebe9190614ca3565b15613edc5760405163b14aa60560e01b815260040160405180910390fd5b6040516331a9108f60e11b8152600481018b90526000907f00000000000000000000000000000000000000000000000000000000000000006001600160a01b031690636352211e90602401602060405180830381865afa158015613f44573d6000803e3d6000fd5b505050506040513d601f19601f82011682018060405250810190613f689190614c57565b604051624003bd60e41b8152600481018c90529091506000906001600160a01b037f000000000000000000000000000000000000000000000000000000000000000016906304003bd0906024016040805180830381865afa158015613fd1573d6000803e3d6000fd5b505050506040513d601f19601f82011682018060405250810190613ff59190614c74565b5060405163e985e9c560e01b81529091506001600160a01b037f0000000000000000000000000000000000000000000000000000000000000000169063e985e9c5906140479085903090600401614cc0565b602060405180830381865afa158015614064573d6000803e3d6000fd5b505050506040513d601f19601f820116820180604052508101906140889190614ca3565b158015614127575060405163020604bf60e21b8152600481018d905230907f00000000000000000000000000000000000000000000000000000000000000006001600160a01b03169063081812fc90602401602060405180830381865afa1580156140f7573d6000803e3d6000fd5b505050506040513d601f19601f8201168201806040525081019061411b9190614c57565b6001600160a01b031614155b15614145576040516361cf5f1360e01b815260040160405180910390fd5b60405180608001604052808b8152602001826001600160a01b03168152602001836001600160a01b031681526020018a6001600160a01b0316815250600660008e81526020019081526020016000206000820151816000015560208201518160010160006101000a8154816001600160a01b0302191690836001600160a01b0316021790555060408201518160020160006101000a8154816001600160a01b0302191690836001600160a01b0316021790555060608201518160030160006101000a8154816001600160a01b0302191690836001600160a01b03160217905550905050806001600160a01b03168a8d7f555474b2f514aef3d74de2861294e8e88446148aa4ece5df7b38bd45282850bd858d604051614265929190614cc0565b60405180910390a4505050505050505050505050565b61428361469b565b63389a75e1600c52806000526020600c2080544211156142ab57636f5e88186000526004601cfd5b6000905561051f8161484a565b6142c061469b565b8060601b6142d657637448fbae6000526004601cfd5b61051f8161484a565b336001600160a01b037f000000000000000000000000000000000000000000000000000000000000000016146143285760405163125e77d360e01b815260040160405180910390fd5b600082815260076020908152604091829020825160608101845281546001600160a01b03908116808352600184015494830194909452600290920154938101939093528316900361166c576000838152600760209081526040822080546001600160a01b0319168155600181018390556002019190915581519082015161166c91906146b6565b818160007f00000000000000000000000000000000000000000000000000000000000000006001600160a01b0316636352211e846040518263ffffffff1660e01b815260040161440191815260200190565b602060405180830381865afa15801561441e573d6000803e3d6000fd5b505050506040513d601f19601f820116820180604052508101906144429190614c57565b90506000807f00000000000000000000000000000000000000000000000000000000000000006001600160a01b03166304003bd0856040518263ffffffff1660e01b815260040161449591815260200190565b6040805180830381865afa1580156144b1573d6000803e3d6000fd5b505050506040513d601f19601f820116820180604052508101906144d59190614c74565b91509150806001600160a01b0316836001600160a01b031614158061450357506001600160a01b0382163314155b1561452157604051633e79b9f360e01b815260040160405180910390fd5b6000878152600660205260409020600101546001600160a01b03168061455a57604051632c8efc6560e21b815260040160405180910390fd5b6001600160a01b038116331480159061460d57506040516331a9108f60e11b8152600481018890527f00000000000000000000000000000000000000000000000000000000000000006001600160a01b031690636352211e90602401602060405180830381865afa1580156145d3573d6000803e3d6000fd5b505050506040513d601f19601f820116820180604052508101906145f79190614c57565b6001600160a01b0316336001600160a01b031614155b1561462b576040516332a0bb6960e01b815260040160405180910390fd5b6000888152600660205260408082208281556001810180546001600160a01b0319908116909155600282018054821690556003909101805490911690555133918a917f21b2d85fdbbcaac8efe168e1803aff7a5d97e8cfc1ed65b039c118c246ac46349190a35050505050505050565b638b78c6d819543314612168576382b429006000526004601cfd5b6003546040516000916001600160a01b03851691849084818181858888f193505050503d8060008114614705576040519150601f19603f3d011682016040523d82523d6000602084013e61470a565b606091505b505090508061166c576001600160a01b0383166000908152600960205260408120805484929061473b908490614d27565b9091555050505050565b6000858152600a602052604090205485901580159061477d57506004546000828152600a602052604090205461477b9043614de1565b105b1561479b57604051635fd7538560e01b815260040160405180910390fd5b6001600160a01b03831633146147c457604051633faa6c4560e01b815260040160405180910390fd5b50604080516080810182529485526001600160a01b039283166020808701918252928416868301908152948416606087019081526000978852600590935295209351845593516001840180549183166001600160a01b03199283161790559151600284018054918316918416919091179055925160039092018054929093169116179055565b638b78c6d81980546001600160a01b039092169182907f8be0079c531659141344cd1fd0a4f28419497f9722a3daafe3b4186f6b6457e0600080a355565b60008061489484612aad565b905060006148a28286614de1565b6001546040519192506000916001600160a01b039091169084908381818185875af1925050503d80600081146148f4576040519150601f19603f3d011682016040523d82523d6000602084013e6148f9565b606091505b5050905080614932576001546001600160a01b03166000908152600960205260408120805485929061492c908490614d27565b90915550505b6003546040516001600160a01b038716919084906000818181858888f193505050503d8060008114614980576040519150601f19603f3d011682016040523d82523d6000602084013e614985565b606091505b505080945050836149be576001600160a01b038516600090815260096020526040812080548492906149b8908490614d27565b90915550505b50505092915050565b801515811461051f57600080fd5b6000602082840312156149e757600080fd5b81356149f2816149c7565b9392505050565b600080600060608486031215614a0e57600080fd5b505081359360208301359350604090920135919050565b600060208284031215614a3757600080fd5b5035919050565b6001600160a01b038116811461051f57600080fd5b8035614a5e81614a3e565b919050565b600060208284031215614a7557600080fd5b81356149f281614a3e565b60008060408385031215614a9357600080fd5b823591506020830135614aa581614a3e565b809150509250929050565b634e487b7160e01b600052604160045260246000fd5b60008060408385031215614ad957600080fd5b8235915060208084013567ffffffffffffffff80821115614af957600080fd5b818601915086601f830112614b0d57600080fd5b813581811115614b1f57614b1f614ab0565b8060051b604051601f19603f83011681018181108582111715614b4457614b44614ab0565b604052918252848201925083810185019189831115614b6257600080fd5b938501935b82851015614b8757614b7885614a53565b84529385019392850192614b67565b8096505050505050509250929050565b600080600060608486031215614bac57600080fd5b83359250602084013591506040840135614bc581614a3e565b809150509250925092565b60008060408385031215614be357600080fd5b50508035926020909101359150565b600060208284031215614c0457600080fd5b813561ffff811681146149f257600080fd5b60008060008060808587031215614c2c57600080fd5b8435935060208501359250604085013591506060850135614c4c81614a3e565b939692955090935050565b600060208284031215614c6957600080fd5b81516149f281614a3e565b60008060408385031215614c8757600080fd5b8251614c9281614a3e565b6020840151909250614aa581614a3e565b600060208284031215614cb557600080fd5b81516149f2816149c7565b6001600160a01b0392831681529116602082015260400190565b6020808252601f908201527f5265656e7472616e637947756172643a207265656e7472616e742063616c6c00604082015260600190565b634e487b7160e01b600052601160045260246000fd5b80820180821115612aca57612aca614d11565b60008060008060808587031215614d5057600080fd5b8451614d5b81614a3e565b602086015160408701519195509350614d7381614a3e565b6060860151909250614c4c816149c7565b8082028115828204841417612aca57612aca614d11565b600082614db857634e487b7160e01b600052601260045260246000fd5b500490565b6001600160a01b039384168152919092166020820152604081019190915260600190565b81810381811115612aca57612aca614d11565b600060208284031215614e0657600080fd5b505191905056fea264697066735822122043543de427f7399be64e4335da5b6fa12cf86e7888198cc8a6e99176556e8b9b64736f6c63430008160033","linkReferences":{}},"methodIdentifiers":{"CHONKS_MAIN()":"4de8cdf6","CHONK_TRAITS()":"170c14d9","acceptBidForChonk(uint256,address)":"cca59759","acceptBidForTrait(uint256,address)":"b5baf476","bidOnChonk(uint256)":"5793b22e","bidOnTrait(uint256,uint256)":"571ccb74","buyChonk(uint256)":"ebd34a88","buyTrait(uint256,uint256)":"917e3a7c","calculateRoyalty(uint256)":"a2e69613","cancelOfferChonk(uint256)":"9f24c945","cancelOfferTrait(uint256,uint256)":"f827d632","cancelOwnershipHandover()":"54d1f13d","chonkBids(uint256)":"65318c86","chonkCooldownPeriod()":"2f3a291c","chonkIdToLastTraitTransferBlock(uint256)":"d3cf8f8d","chonkOffers(uint256)":"8b322383","completeOwnershipHandover(address)":"f04e283e","deleteChonkBidsBeforeTokenTransfer(uint256,address)":"f495f5a8","deleteChonkOfferBeforeTokenTransfer(uint256)":"644ec527","deleteTraitBidsBeforeTokenTransfer(uint256,address)":"2fbe78f0","deleteTraitBidsBeforeTokenTransfer(uint256,address[])":"4666a416","deleteTraitOfferBeforeTokenTransferFromTraits(uint256)":"662c08cd","deleteTraitOffersBeforeTokenTransfer(uint256)":"2e1d274f","gasStipend()":"9434c910","getChonkBid(uint256)":"0cbd0922","getChonkOffer(uint256)":"36442e30","getTraitBid(uint256)":"3ce0c372","getTraitOffer(uint256)":"f0988214","offerChonk(uint256,uint256)":"a4cc8324","offerChonkToAddress(uint256,uint256,address)":"4fc9923e","offerTrait(uint256,uint256,uint256)":"0b114256","offerTraitToAddress(uint256,uint256,uint256,address)":"ed89f704","owner()":"8da5cb5b","ownershipHandoverExpiresAt(address)":"fee81cf4","pausabilityRevoked()":"b1f3694e","pause(bool)":"02329a29","paused()":"5c975abb","removeChonkOfferOnTraitTransfer(uint256)":"46c627fe","renounceOwnership()":"715018a6","requestOwnershipHandover()":"25692962","revokePausability()":"361f1c52","royaltyPercentage()":"8a71bb2d","setChonkCooldownPeriod(uint256)":"24b786e2","setChonkCooldownPeriodBlocks(uint16)":"a0a0c4b8","setGasStipend(uint256)":"2619e11b","setRoyaltyPercentage(uint256)":"61ba27da","setTeamWallet(address)":"1525ff7d","teamWallet()":"59927044","traitBids(uint256)":"7dbc8619","traitOfferIsValid(uint256)":"e0882cf8","traitOffers(uint256)":"4f6088cd","transferOwnership(address)":"f2fde38b","withdrawBidOnChonk(uint256)":"795aded3","withdrawBidOnTrait(uint256)":"cecea401","withdrawFunds()":"24600fc3","withdrawableFunds(address)":"2f30cabd"},"id":47}