{"abi":[{"type":"constructor","inputs":[{"name":"_petersMain","type":"address","internalType":"address"},{"name":"_peterTraits","type":"address","internalType":"address"},{"name":"_royaltyPercentage","type":"uint8","internalType":"uint8"},{"name":"_teamWallet","type":"address","internalType":"address"}],"stateMutability":"nonpayable"},{"type":"function","name":"PETERS_MAIN","inputs":[],"outputs":[{"name":"","type":"address","internalType":"contract PetersMain"}],"stateMutability":"view"},{"type":"function","name":"PETER_TRAITS","inputs":[],"outputs":[{"name":"","type":"address","internalType":"contract PeterTraits"}],"stateMutability":"view"},{"type":"function","name":"acceptBidForChonk","inputs":[{"name":"_chonkId","type":"uint256","internalType":"uint256"},{"name":"_bidder","type":"address","internalType":"address"}],"outputs":[],"stateMutability":"nonpayable"},{"type":"function","name":"acceptBidForTrait","inputs":[{"name":"_traitId","type":"uint256","internalType":"uint256"},{"name":"_bidder","type":"address","internalType":"address"}],"outputs":[],"stateMutability":"nonpayable"},{"type":"function","name":"bidOnChonk","inputs":[{"name":"_chonkId","type":"uint256","internalType":"uint256"}],"outputs":[],"stateMutability":"payable"},{"type":"function","name":"bidOnTrait","inputs":[{"name":"_traitId","type":"uint256","internalType":"uint256"},{"name":"_yourChonkId","type":"uint256","internalType":"uint256"}],"outputs":[],"stateMutability":"payable"},{"type":"function","name":"buyChonk","inputs":[{"name":"_chonkId","type":"uint256","internalType":"uint256"}],"outputs":[],"stateMutability":"payable"},{"type":"function","name":"buyTrait","inputs":[{"name":"_traitId","type":"uint256","internalType":"uint256"},{"name":"_forChonkId","type":"uint256","internalType":"uint256"}],"outputs":[],"stateMutability":"payable"},{"type":"function","name":"calculateRoyalty","inputs":[{"name":"_amount","type":"uint256","internalType":"uint256"}],"outputs":[{"name":"","type":"uint256","internalType":"uint256"}],"stateMutability":"view"},{"type":"function","name":"cancelOfferChonk","inputs":[{"name":"_chonkId","type":"uint256","internalType":"uint256"}],"outputs":[],"stateMutability":"nonpayable"},{"type":"function","name":"cancelOfferTrait","inputs":[{"name":"_traitId","type":"uint256","internalType":"uint256"},{"name":"_chonkId","type":"uint256","internalType":"uint256"}],"outputs":[],"stateMutability":"nonpayable"},{"type":"function","name":"cancelOwnershipHandover","inputs":[],"outputs":[],"stateMutability":"payable"},{"type":"function","name":"chonkBids","inputs":[{"name":"chonkId","type":"uint256","internalType":"uint256"}],"outputs":[{"name":"bidder","type":"address","internalType":"address"},{"name":"amountInWei","type":"uint256","internalType":"uint256"},{"name":"encodedTraitIds","type":"bytes","internalType":"bytes"}],"stateMutability":"view"},{"type":"function","name":"chonkIdToApprovedOperators","inputs":[{"name":"chonkId","type":"uint256","internalType":"uint256"},{"name":"","type":"uint256","internalType":"uint256"}],"outputs":[{"name":"operators","type":"address","internalType":"address"}],"stateMutability":"view"},{"type":"function","name":"chonkOffers","inputs":[{"name":"chonkId","type":"uint256","internalType":"uint256"}],"outputs":[{"name":"priceInWei","type":"uint256","internalType":"uint256"},{"name":"seller","type":"address","internalType":"address"},{"name":"sellerTBA","type":"address","internalType":"address"},{"name":"onlySellTo","type":"address","internalType":"address"},{"name":"encodedTraitIds","type":"bytes","internalType":"bytes"}],"stateMutability":"view"},{"type":"function","name":"completeOwnershipHandover","inputs":[{"name":"pendingOwner","type":"address","internalType":"address"}],"outputs":[],"stateMutability":"payable"},{"type":"function","name":"deleteChonkBidsBeforeTokenTransfer","inputs":[{"name":"_chonkId","type":"uint256","internalType":"uint256"},{"name":"_toEOA","type":"address","internalType":"address"}],"outputs":[],"stateMutability":"nonpayable"},{"type":"function","name":"deleteChonkOfferBeforeTokenTransfer","inputs":[{"name":"_chonkId","type":"uint256","internalType":"uint256"}],"outputs":[],"stateMutability":"nonpayable"},{"type":"function","name":"deleteTraitBidsBeforeTokenTransfer","inputs":[{"name":"_traitId","type":"uint256","internalType":"uint256"},{"name":"_toTBA","type":"address","internalType":"address"}],"outputs":[],"stateMutability":"nonpayable"},{"type":"function","name":"deleteTraitBidsBeforeTokenTransfer","inputs":[{"name":"_traitId","type":"uint256","internalType":"uint256"},{"name":"_toTBAs","type":"address[]","internalType":"address[]"}],"outputs":[],"stateMutability":"nonpayable"},{"type":"function","name":"deleteTraitOffersBeforeTokenTransfer","inputs":[{"name":"_traitId","type":"uint256","internalType":"uint256"}],"outputs":[],"stateMutability":"nonpayable"},{"type":"function","name":"ensureTraitOwner","inputs":[{"name":"_traitId","type":"uint256","internalType":"uint256"},{"name":"_chonkId","type":"uint256","internalType":"uint256"}],"outputs":[{"name":"","type":"bool","internalType":"bool"}],"stateMutability":"view"},{"type":"function","name":"getChonkBid","inputs":[{"name":"_chonkId","type":"uint256","internalType":"uint256"}],"outputs":[{"name":"bidder","type":"address","internalType":"address"},{"name":"amountInWei","type":"uint256","internalType":"uint256"},{"name":"traitIds","type":"uint256[]","internalType":"uint256[]"},{"name":"encodedTraitIds","type":"bytes","internalType":"bytes"}],"stateMutability":"view"},{"type":"function","name":"getChonkOffer","inputs":[{"name":"_chonkId","type":"uint256","internalType":"uint256"}],"outputs":[{"name":"priceInWei","type":"uint256","internalType":"uint256"},{"name":"seller","type":"address","internalType":"address"},{"name":"sellerTBA","type":"address","internalType":"address"},{"name":"onlySellTo","type":"address","internalType":"address"},{"name":"traitIds","type":"uint256[]","internalType":"uint256[]"},{"name":"encodedTraitIds","type":"bytes","internalType":"bytes"}],"stateMutability":"view"},{"type":"function","name":"getTraitBid","inputs":[{"name":"_traitId","type":"uint256","internalType":"uint256"}],"outputs":[{"name":"bidder","type":"address","internalType":"address"},{"name":"bidderTBA","type":"address","internalType":"address"},{"name":"amountInWei","type":"uint256","internalType":"uint256"}],"stateMutability":"view"},{"type":"function","name":"getTraitIdsAndEncodingForChonk","inputs":[{"name":"_chonkId","type":"uint256","internalType":"uint256"}],"outputs":[{"name":"","type":"uint256[]","internalType":"uint256[]"},{"name":"","type":"bytes","internalType":"bytes"}],"stateMutability":"view"},{"type":"function","name":"getTraitOffer","inputs":[{"name":"_traitId","type":"uint256","internalType":"uint256"}],"outputs":[{"name":"priceInWei","type":"uint256","internalType":"uint256"},{"name":"seller","type":"address","internalType":"address"},{"name":"sellerTBA","type":"address","internalType":"address"},{"name":"onlySellTo","type":"address","internalType":"address"}],"stateMutability":"view"},{"type":"function","name":"offerChonk","inputs":[{"name":"_chonkId","type":"uint256","internalType":"uint256"},{"name":"_priceInWei","type":"uint256","internalType":"uint256"}],"outputs":[],"stateMutability":"nonpayable"},{"type":"function","name":"offerChonkToAddress","inputs":[{"name":"_chonkId","type":"uint256","internalType":"uint256"},{"name":"_priceInWei","type":"uint256","internalType":"uint256"},{"name":"_onlySellTo","type":"address","internalType":"address"}],"outputs":[],"stateMutability":"nonpayable"},{"type":"function","name":"offerTrait","inputs":[{"name":"_traitId","type":"uint256","internalType":"uint256"},{"name":"_chonkId","type":"uint256","internalType":"uint256"},{"name":"_priceInWei","type":"uint256","internalType":"uint256"}],"outputs":[],"stateMutability":"nonpayable"},{"type":"function","name":"offerTraitToAddress","inputs":[{"name":"_traitId","type":"uint256","internalType":"uint256"},{"name":"_chonkId","type":"uint256","internalType":"uint256"},{"name":"_priceInWei","type":"uint256","internalType":"uint256"},{"name":"_onlySellTo","type":"address","internalType":"address"}],"outputs":[],"stateMutability":"nonpayable"},{"type":"function","name":"owner","inputs":[],"outputs":[{"name":"result","type":"address","internalType":"address"}],"stateMutability":"view"},{"type":"function","name":"ownershipHandoverExpiresAt","inputs":[{"name":"pendingOwner","type":"address","internalType":"address"}],"outputs":[{"name":"result","type":"uint256","internalType":"uint256"}],"stateMutability":"view"},{"type":"function","name":"pausabilityRevoked","inputs":[],"outputs":[{"name":"","type":"bool","internalType":"bool"}],"stateMutability":"view"},{"type":"function","name":"pause","inputs":[{"name":"_value","type":"bool","internalType":"bool"}],"outputs":[],"stateMutability":"nonpayable"},{"type":"function","name":"paused","inputs":[],"outputs":[{"name":"","type":"bool","internalType":"bool"}],"stateMutability":"view"},{"type":"function","name":"removeChonkOfferOnTraitTransfer","inputs":[{"name":"_chonkId","type":"uint256","internalType":"uint256"}],"outputs":[],"stateMutability":"nonpayable"},{"type":"function","name":"renounceOwnership","inputs":[],"outputs":[],"stateMutability":"payable"},{"type":"function","name":"requestOwnershipHandover","inputs":[],"outputs":[],"stateMutability":"payable"},{"type":"function","name":"revokePausability","inputs":[],"outputs":[],"stateMutability":"nonpayable"},{"type":"function","name":"royaltyPercentage","inputs":[],"outputs":[{"name":"","type":"uint256","internalType":"uint256"}],"stateMutability":"view"},{"type":"function","name":"setRoyaltyPercentage","inputs":[{"name":"_royaltyPercentage","type":"uint256","internalType":"uint256"}],"outputs":[],"stateMutability":"nonpayable"},{"type":"function","name":"setTeamWallet","inputs":[{"name":"_teamWallet","type":"address","internalType":"address"}],"outputs":[],"stateMutability":"nonpayable"},{"type":"function","name":"teamWallet","inputs":[],"outputs":[{"name":"","type":"address","internalType":"address"}],"stateMutability":"view"},{"type":"function","name":"traitBids","inputs":[{"name":"traitId","type":"uint256","internalType":"uint256"}],"outputs":[{"name":"bidder","type":"address","internalType":"address"},{"name":"bidderTBA","type":"address","internalType":"address"},{"name":"amountInWei","type":"uint256","internalType":"uint256"}],"stateMutability":"view"},{"type":"function","name":"traitOffers","inputs":[{"name":"traitId","type":"uint256","internalType":"uint256"}],"outputs":[{"name":"priceInWei","type":"uint256","internalType":"uint256"},{"name":"seller","type":"address","internalType":"address"},{"name":"sellerTBA","type":"address","internalType":"address"},{"name":"onlySellTo","type":"address","internalType":"address"}],"stateMutability":"view"},{"type":"function","name":"transferOwnership","inputs":[{"name":"newOwner","type":"address","internalType":"address"}],"outputs":[],"stateMutability":"payable"},{"type":"function","name":"withdrawBidOnChonk","inputs":[{"name":"_chonkId","type":"uint256","internalType":"uint256"}],"outputs":[],"stateMutability":"nonpayable"},{"type":"function","name":"withdrawBidOnTrait","inputs":[{"name":"_traitId","type":"uint256","internalType":"uint256"}],"outputs":[],"stateMutability":"nonpayable"},{"type":"function","name":"withdrawFunds","inputs":[],"outputs":[],"stateMutability":"nonpayable"},{"type":"function","name":"withdrawableFunds","inputs":[{"name":"eoa","type":"address","internalType":"address"}],"outputs":[{"name":"balance","type":"uint256","internalType":"uint256"}],"stateMutability":"view"},{"type":"event","name":"ChonkBidAccepted","inputs":[{"name":"chonkId","type":"uint256","indexed":true,"internalType":"uint256"},{"name":"amountInWei","type":"uint256","indexed":true,"internalType":"uint256"},{"name":"buyer","type":"address","indexed":true,"internalType":"address"},{"name":"seller","type":"address","indexed":false,"internalType":"address"}],"anonymous":false},{"type":"event","name":"ChonkBidEntered","inputs":[{"name":"chonkId","type":"uint256","indexed":true,"internalType":"uint256"},{"name":"bidder","type":"address","indexed":true,"internalType":"address"},{"name":"amountInWei","type":"uint256","indexed":true,"internalType":"uint256"}],"anonymous":false},{"type":"event","name":"ChonkBidWithdrawn","inputs":[{"name":"chonkId","type":"uint256","indexed":true,"internalType":"uint256"},{"name":"bidder","type":"address","indexed":true,"internalType":"address"},{"name":"amountInWei","type":"uint256","indexed":true,"internalType":"uint256"}],"anonymous":false},{"type":"event","name":"ChonkBought","inputs":[{"name":"chonkId","type":"uint256","indexed":true,"internalType":"uint256"},{"name":"buyer","type":"address","indexed":true,"internalType":"address"},{"name":"amountInWei","type":"uint256","indexed":true,"internalType":"uint256"}],"anonymous":false},{"type":"event","name":"ChonkOfferCanceled","inputs":[{"name":"chonkId","type":"uint256","indexed":true,"internalType":"uint256"}],"anonymous":false},{"type":"event","name":"ChonkOffered","inputs":[{"name":"chonkId","type":"uint256","indexed":true,"internalType":"uint256"},{"name":"price","type":"uint256","indexed":true,"internalType":"uint256"},{"name":"seller","type":"address","indexed":true,"internalType":"address"},{"name":"sellerTBA","type":"address","indexed":false,"internalType":"address"}],"anonymous":false},{"type":"event","name":"OwnershipHandoverCanceled","inputs":[{"name":"pendingOwner","type":"address","indexed":true,"internalType":"address"}],"anonymous":false},{"type":"event","name":"OwnershipHandoverRequested","inputs":[{"name":"pendingOwner","type":"address","indexed":true,"internalType":"address"}],"anonymous":false},{"type":"event","name":"OwnershipTransferred","inputs":[{"name":"oldOwner","type":"address","indexed":true,"internalType":"address"},{"name":"newOwner","type":"address","indexed":true,"internalType":"address"}],"anonymous":false},{"type":"event","name":"TraitBidAccepted","inputs":[{"name":"traitId","type":"uint256","indexed":true,"internalType":"uint256"},{"name":"amountInWei","type":"uint256","indexed":true,"internalType":"uint256"},{"name":"buyer","type":"address","indexed":true,"internalType":"address"},{"name":"seller","type":"address","indexed":false,"internalType":"address"}],"anonymous":false},{"type":"event","name":"TraitBidEntered","inputs":[{"name":"traitId","type":"uint256","indexed":true,"internalType":"uint256"},{"name":"bidder","type":"address","indexed":true,"internalType":"address"},{"name":"amountInWei","type":"uint256","indexed":true,"internalType":"uint256"}],"anonymous":false},{"type":"event","name":"TraitBidWithdrawn","inputs":[{"name":"traitId","type":"uint256","indexed":true,"internalType":"uint256"},{"name":"bidder","type":"address","indexed":true,"internalType":"address"},{"name":"amountInWei","type":"uint256","indexed":true,"internalType":"uint256"}],"anonymous":false},{"type":"event","name":"TraitBought","inputs":[{"name":"traitId","type":"uint256","indexed":true,"internalType":"uint256"},{"name":"buyerTBA","type":"address","indexed":true,"internalType":"address"},{"name":"amountInWei","type":"uint256","indexed":true,"internalType":"uint256"},{"name":"buyer","type":"address","indexed":false,"internalType":"address"}],"anonymous":false},{"type":"event","name":"TraitOfferCanceled","inputs":[{"name":"traitId","type":"uint256","indexed":true,"internalType":"uint256"}],"anonymous":false},{"type":"event","name":"TraitOffered","inputs":[{"name":"traitId","type":"uint256","indexed":true,"internalType":"uint256"},{"name":"price","type":"uint256","indexed":true,"internalType":"uint256"},{"name":"seller","type":"address","indexed":true,"internalType":"address"},{"name":"sellerTBA","type":"address","indexed":false,"internalType":"address"}],"anonymous":false},{"type":"error","name":"AlreadyInitialized","inputs":[]},{"type":"error","name":"ApproveTheMarketplace","inputs":[]},{"type":"error","name":"BidIsTooLow","inputs":[]},{"type":"error","name":"BidderChanged","inputs":[]},{"type":"error","name":"CMUnauthorized","inputs":[]},{"type":"error","name":"CantAcceptYourOwnBid","inputs":[]},{"type":"error","name":"CantBeZero","inputs":[]},{"type":"error","name":"CantBidOnYourOwnChonk","inputs":[]},{"type":"error","name":"CantBidOnYourOwnTrait","inputs":[]},{"type":"error","name":"CantBuyYourOwnChonk","inputs":[]},{"type":"error","name":"CantBuyYourOwnTrait","inputs":[]},{"type":"error","name":"NewOwnerIsZeroAddress","inputs":[]},{"type":"error","name":"NoBidToAccept","inputs":[]},{"type":"error","name":"NoHandoverRequest","inputs":[]},{"type":"error","name":"NoOfferToCancel","inputs":[]},{"type":"error","name":"NotYourBid","inputs":[]},{"type":"error","name":"NotYourChonk","inputs":[]},{"type":"error","name":"NotYourOffer","inputs":[]},{"type":"error","name":"NotYourTrait","inputs":[]},{"type":"error","name":"OfferDoesNotExist","inputs":[]},{"type":"error","name":"OnlyTraitContract","inputs":[]},{"type":"error","name":"PausabilityRevoked","inputs":[]},{"type":"error","name":"Paused","inputs":[]},{"type":"error","name":"TBANeedsToApproveMarketplace","inputs":[]},{"type":"error","name":"TraitEquipped","inputs":[]},{"type":"error","name":"TraitIdsChangedSinceBid","inputs":[]},{"type":"error","name":"TraitIdsChangedSinceListingRelist","inputs":[]},{"type":"error","name":"Unauthorized","inputs":[]},{"type":"error","name":"WithdrawFailed","inputs":[]},{"type":"error","name":"WrongAmount","inputs":[]},{"type":"error","name":"YouCantBuyThatChonk","inputs":[]},{"type":"error","name":"YouCantBuyThatTrait","inputs":[]}],"bytecode":{"object":"0x60c06040523480156200001157600080fd5b506040516200593b3803806200593b83398101604081905262000034916200016c565b6001600081905550620000616040518060600160405280602c81526020016200590f602c913933620000a1565b6200006c33620000f2565b6001600160a01b0393841660805291831660a05260ff16600155600280546001600160a01b0319169190921617905562000232565b620000ee8282604051602401620000ba929190620001d0565b60408051601f198184030181529190526020810180516001600160e01b0390811663319af33360e01b179091526200012e16565b5050565b6001600160a01b0316638b78c6d8198190558060007f8be0079c531659141344cd1fd0a4f28419497f9722a3daafe3b4186f6b6457e08180a350565b80516a636f6e736f6c652e6c6f67602083016000808483855afa5050505050565b80516001600160a01b03811681146200016757600080fd5b919050565b600080600080608085870312156200018357600080fd5b6200018e856200014f565b93506200019e602086016200014f565b9250604085015160ff81168114620001b557600080fd5b9150620001c5606086016200014f565b905092959194509250565b604081526000835180604084015260005b81811015620002005760208187018101516060868401015201620001e1565b50600060608285018101919091526001600160a01b03949094166020840152601f01601f191690910190910192915050565b60805160a0516155ad62000362600039600081816107da01528181610be8015281816110f60152818161115901528181611255015281816115f80152818161247e01528181612b1f01528181612c2501528181612f81015281816136b9015261439f0152600081816108db01528181610b3e01528181610c7e0152818161109701528181611125015281816114cd015281816116eb0152818161179d015281816118ab01528181611bc201528181611c8501528181611ee6015281816121c4015281816124f0015281816128f101528181612a8801528181612d8301528181612e1701528181613197015281816134c30152818161359d015281816137e101528181613ac201528181613e32015281816141b4015281816142f501528181614435015261463e01526155ad6000f3fe6080604052600436106102e45760003560e01c806365318c8611610190578063b1f3694e116100dc578063ed89f70411610095578063f2fde38b1161006f578063f2fde38b146109d6578063f495f5a8146109e9578063f827d63214610a09578063fee81cf414610a2957600080fd5b8063ed89f70414610950578063f04e283e14610970578063f09882141461098357600080fd5b8063b1f3694e14610888578063b5baf476146108a9578063c51ac41b146108c9578063cca59759146108fd578063cecea4011461091d578063ebd34a881461093d57600080fd5b80638b32238311610149578063917e3a7c11610123578063917e3a7c146108155780639f24c94514610828578063a2e6961314610848578063a4cc83241461086857600080fd5b80638b322383146107975780638b78b13b146107c85780638da5cb5b146107fc57600080fd5b806365318c86146106c1578063710b2719146106f0578063715018a614610710578063795aded3146107185780637dbc8619146107385780638a71bb2d1461078157600080fd5b80634666a4161161024f57806355737f351161020857806359927044116101e257806359927044146106305780635c975abb1461065057806361ba27da14610681578063644ec527146106a157600080fd5b806355737f35146105d2578063571ccb741461060a5780635793b22e1461061d57600080fd5b80634666a416146104bc57806346c627fe146104dc578063472729bb146104fc5780634f6088cd1461052a5780634fc9923e146105aa57806354d1f13d146105ca57600080fd5b80632e1d274f116102a15780632e1d274f146103a15780632f30cabd146103c15780632fbe78f0146103fc578063361f1c521461041c57806336442e30146104315780633ce0c3721461046357600080fd5b806302329a29146102e95780630b1142561461030b5780630cbd09221461032b5780631525ff7d1461036457806324600fc3146103845780632569296214610399575b600080fd5b3480156102f557600080fd5b50610309610304366004614cc7565b610a5c565b005b34801561031757600080fd5b50610309610326366004614ceb565b610aad565b34801561033757600080fd5b5061034b610346366004614d17565b610dc3565b60405161035b9493929190614db2565b60405180910390f35b34801561037057600080fd5b5061030961037f366004614e0b565b610ede565b34801561039057600080fd5b50610309610f08565b610309610fbe565b3480156103ad57600080fd5b506103096103bc366004614d17565b61100e565b3480156103cd57600080fd5b506103ee6103dc366004614e0b565b60076020526000908152604090205481565b60405190815260200161035b565b34801561040857600080fd5b50610309610417366004614e28565b61124a565b34801561042857600080fd5b50610309611341565b34801561043d57600080fd5b5061045161044c366004614d17565b611389565b60405161035b96959493929190614e58565b34801561046f57600080fd5b506104ad61047e366004614d17565b6000908152600660205260409020805460018201546002909201546001600160a01b0391821693919092169190565b60405161035b93929190614eb1565b3480156104c857600080fd5b506103096104d7366004614f40565b6114c2565b3480156104e857600080fd5b506103096104f7366004614d17565b6115ed565b34801561050857600080fd5b5061051c610517366004614d17565b6116e4565b60405161035b929190614feb565b34801561053657600080fd5b5061057b610545366004614d17565b600460205260009081526040902080546001820154600283015460039093015491926001600160a01b0391821692908216911684565b604080519485526001600160a01b0393841660208601529183169184019190915216606082015260800161035b565b3480156105b657600080fd5b506103096105c5366004615019565b61183c565b610309611ac1565b3480156105de57600080fd5b506105f26105ed366004615052565b611afd565b6040516001600160a01b03909116815260200161035b565b610309610618366004615052565b611b35565b61030961062b366004614d17565b611e5a565b34801561063c57600080fd5b506002546105f2906001600160a01b031681565b34801561065c57600080fd5b5060025461067190600160a01b900460ff1681565b604051901515815260200161035b565b34801561068d57600080fd5b5061030961069c366004614d17565b6121ac565b3480156106ad57600080fd5b506103096106bc366004614d17565b6121b9565b3480156106cd57600080fd5b506106e16106dc366004614d17565b6123a6565b60405161035b93929190615074565b3480156106fc57600080fd5b5061067161070b366004615052565b61245b565b6103096125b5565b34801561072457600080fd5b50610309610733366004614d17565b6125c9565b34801561074457600080fd5b506104ad610753366004614d17565b6006602052600090815260409020805460018201546002909201546001600160a01b03918216929091169083565b34801561078d57600080fd5b506103ee60015481565b3480156107a357600080fd5b506107b76107b2366004614d17565b6127bd565b60405161035b95949392919061509b565b3480156107d457600080fd5b506105f27f000000000000000000000000000000000000000000000000000000000000000081565b34801561080857600080fd5b50638b78c6d819546105f2565b610309610823366004615052565b612887565b34801561083457600080fd5b50610309610843366004614d17565b613048565b34801561085457600080fd5b506103ee610863366004614d17565b61310b565b34801561087457600080fd5b50610309610883366004615052565b613128565b34801561089457600080fd5b5060025461067190600160a81b900460ff1681565b3480156108b557600080fd5b506103096108c4366004614e28565b6133ae565b3480156108d557600080fd5b506105f27f000000000000000000000000000000000000000000000000000000000000000081565b34801561090957600080fd5b50610309610918366004614e28565b613777565b34801561092957600080fd5b50610309610938366004614d17565b613b80565b61030961094b366004614d17565b613c83565b34801561095c57600080fd5b5061030961096b3660046150d5565b614264565b61030961097e366004614e0b565b6145cf565b34801561098f57600080fd5b5061057b61099e366004614d17565b600090815260046020526040902080546001820154600283015460039093015491936001600160a01b03918216938216929190911690565b6103096109e4366004614e0b565b61460c565b3480156109f557600080fd5b50610309610a04366004614e28565b614633565b348015610a1557600080fd5b50610309610a24366004615052565b614802565b348015610a3557600080fd5b506103ee610a44366004614e0b565b63389a75e1600c908152600091909152602090205490565b610a646148f3565b600254600160a81b900460ff1615610a8f5760405163d9ef8fb560e01b815260040160405180910390fd5b60028054911515600160a01b0260ff60a01b19909216919091179055565b600254600160a01b900460ff1615610ad8576040516313d0ff5960e31b815260040160405180910390fd5b8080600003610afa5760405163e7195f5160e01b815260040160405180910390fd5b610b04848461245b565b610b2157604051633e79b9f360e01b815260040160405180910390fd5b6040516311543c9960e31b815260048101849052602481018590527f00000000000000000000000000000000000000000000000000000000000000006001600160a01b031690638aa1e4c890604401602060405180830381865afa158015610b8d573d6000803e3d6000fd5b505050506040513d601f19601f82011682018060405250810190610bb19190615116565b15610bcf5760405163b14aa60560e01b815260040160405180910390fd5b6040516331a9108f60e11b8152600481018590526000907f00000000000000000000000000000000000000000000000000000000000000006001600160a01b031690636352211e90602401602060405180830381865afa158015610c37573d6000803e3d6000fd5b505050506040513d601f19601f82011682018060405250810190610c5b9190615133565b604051624003bd60e41b8152600481018690529091506000906001600160a01b037f000000000000000000000000000000000000000000000000000000000000000016906304003bd0906024016040805180830381865afa158015610cc4573d6000803e3d6000fd5b505050506040513d601f19601f82011682018060405250810190610ce89190615150565b50604080516080810182528681526001600160a01b0380841660208084018281528884168587019081526000606087018181528f825260049094528790209551865590516001860180549186166001600160a01b03199283161790559051600286018054918616918316919091179055905160039094018054949093169316929092179055905191925090859088907fd81820ebfdde47351b4ac56296bba70e8f57f24195955168a1b5bf6b653e3d3a90610db39087906001600160a01b0391909116815260200190565b60405180910390a4505050505050565b60008181526005602090815260408083208054600182015460028301805485518188028101880190965280865287966060968796956001600160a01b03169493926003870192849190830182828015610e3b57602002820191906000526020600020905b815481526020019060010190808311610e27575b50505050509150808054610e4e9061517f565b80601f0160208091040260200160405190810160405280929190818152602001828054610e7a9061517f565b8015610ec75780601f10610e9c57610100808354040283529160200191610ec7565b820191906000526020600020905b815481529060010190602001808311610eaa57829003601f168201915b505050505090509450945094509450509193509193565b610ee66148f3565b600280546001600160a01b0319166001600160a01b0392909216919091179055565b600260005403610f335760405162461bcd60e51b8152600401610f2a906151b9565b60405180910390fd5b60026000908155338082526007602052604080832080549084905590519092919083908381818185875af1925050503d8060008114610f8e576040519150601f19603f3d011682016040523d82523d6000602084013e610f93565b606091505b5050905080610fb557604051631d42c86760e21b815260040160405180910390fd5b50506001600055565b60006202a30067ffffffffffffffff164201905063389a75e1600c5233600052806020600c2055337fdbf36a107da19e49527a7176a1babf963b4b0ff8cde35ee35d6cd8f1f9ac7e1d600080a250565b611030604051806080016040528060468152602001615532604691398261490e565b61106360405180604001604052806011815260200170169036b2b9b9b0b3b29039b2b73232b91d60791b81525033614953565b6110bb604051806040016040528060168152602001752d2061646472657373285045544552535f4d41494e2960501b8152507f0000000000000000000000000000000000000000000000000000000000000000614953565b61111a6040518060400160405280601781526020017f2d20616464726573732850455445525f545241495453290000000000000000008152507f0000000000000000000000000000000000000000000000000000000000000000614953565b336001600160a01b037f0000000000000000000000000000000000000000000000000000000000000000161480159061117c5750336001600160a01b037f00000000000000000000000000000000000000000000000000000000000000001614155b156111c9576111b06040518060400160405280600e81526020016d10d3555b985d5d1a1bdc9a5e995960921b815250614998565b60405163125e77d360e01b815260040160405180910390fd5b6000818152600460205260409020600101546001600160a01b0316156112265760008181526004602052604081209081556001810180546001600160a01b0319908116909155600282018054821690556003909101805490911690555b6112476040518060600160405280603581526020016154bc60359139614998565b50565b336001600160a01b037f000000000000000000000000000000000000000000000000000000000000000016146112935760405163125e77d360e01b815260040160405180910390fd5b600082815260066020908152604091829020825160608101845281546001600160a01b03908116808352600184015490911693820193909352600290910154928101929092521561133c57816001600160a01b031681602001516001600160a01b03160361133c5760008381526006602052604080822080546001600160a01b0319908116825560018201805490911690556002019190915581519082015161133c91906149db565b505050565b6113496148f3565b600254600160a81b900460ff16156113745760405163d9ef8fb560e01b815260040160405180910390fd5b6002805460ff60a81b1916600160a81b179055565b6000818152600360208181526040808420805460018201546002830154958301546004840180548651818902810189019097528087528998899889986060988998909790966001600160a01b03918216969482169591169392600589019291849183018282801561141957602002820191906000526020600020905b815481526020019060010190808311611405575b5050505050915080805461142c9061517f565b80601f01602080910402602001604051908101604052809291908181526020018280546114589061517f565b80156114a55780601f1061147a576101008083540402835291602001916114a5565b820191906000526020600020905b81548152906001019060200180831161148857829003601f168201915b505050505090509650965096509650965096505091939550919395565b336001600160a01b037f0000000000000000000000000000000000000000000000000000000000000000161461150b5760405163125e77d360e01b815260040160405180910390fd5b600082815260066020908152604091829020825160608101845281546001600160a01b03908116808352600184015490911693820193909352600290910154928101929092521561133c5760005b82518110156115e7576000838281518110611576576115766151f0565b60200260200101519050806001600160a01b031683602001516001600160a01b0316036115de5760008581526006602052604080822080546001600160a01b031990811682556001820180549091169055600201919091558351908401516115de91906149db565b50600101611559565b50505050565b336001600160a01b037f000000000000000000000000000000000000000000000000000000000000000016146116365760405163e007692f60e01b815260040160405180910390fd5b6116586040518060800160405280604181526020016154f1604191398261490e565b61168b60405180604001604052806011815260200170169036b2b9b9b0b3b29039b2b73232b91d60791b81525033614953565b600081815260036020819052604082208281556001810180546001600160a01b0319908116909155600282018054821690559181018054909216909155906116d66004830182614c01565b61133c600583016000614c1f565b60608060007f00000000000000000000000000000000000000000000000000000000000000006001600160a01b03166304003bd0856040518263ffffffff1660e01b815260040161173791815260200190565b6040805180830381865afa158015611753573d6000803e3d6000fd5b505050506040513d601f19601f820116820180604052508101906117779190615150565b604051634cc67db760e11b81526001600160a01b038281166004830152919350600092507f00000000000000000000000000000000000000000000000000000000000000009091169063998cfb6e90602401600060405180830381865afa1580156117e6573d6000803e3d6000fd5b505050506040513d6000823e601f3d908101601f1916820160405261180e9190810190615206565b90508081604051602001611822919061528c565b604051602081830303815290604052935093505050915091565b600254600160a01b900460ff1615611867576040516313d0ff5960e31b815260040160405180910390fd5b81806000036118895760405163e7195f5160e01b815260040160405180910390fd5b604051624003bd60e41b81526004810185905260009081906001600160a01b037f000000000000000000000000000000000000000000000000000000000000000016906304003bd0906024016040805180830381865afa1580156118f1573d6000803e3d6000fd5b505050506040513d601f19601f820116820180604052508101906119159190615150565b9092509050336001600160a01b0383161461194357604051633faa6c4560e01b815260040160405180910390fd5b60008061194f886116e4565b915091506040518060c00160405280888152602001856001600160a01b03168152602001846001600160a01b03168152602001876001600160a01b0316815260200183815260200182815250600360008a81526020019081526020016000206000820151816000015560208201518160010160006101000a8154816001600160a01b0302191690836001600160a01b0316021790555060408201518160020160006101000a8154816001600160a01b0302191690836001600160a01b0316021790555060608201518160030160006101000a8154816001600160a01b0302191690836001600160a01b031602179055506080820151816004019080519060200190611a5b929190614c59565b5060a08201516005820190611a7090826152ef565b50506040516001600160a01b0385811682528616915088908a907f749104dd5f8de8e4b889d790ea029b6ec8515f14cf73d20604b60e0b649a95df9060200160405180910390a45050505050505050565b63389a75e1600c523360005260006020600c2055337ffa7b8eab7da67f412cc9575ed43464468f9bfbae89d1675917346ca6d8fe3c92600080a2565b60086020528160005260406000208181548110611b1957600080fd5b6000918252602090912001546001600160a01b03169150829050565b3480600003611b575760405163e7195f5160e01b815260040160405180910390fd5b600254600160a01b900460ff1615611b82576040516313d0ff5960e31b815260040160405180910390fd5b600260005403611ba45760405162461bcd60e51b8152600401610f2a906151b9565b60026000908155604051624003bd60e41b81526004810184905281907f00000000000000000000000000000000000000000000000000000000000000006001600160a01b0316906304003bd0906024016040805180830381865afa158015611c10573d6000803e3d6000fd5b505050506040513d601f19601f82011682018060405250810190611c349190615150565b90925090506001600160a01b0382163314611c6257604051633faa6c4560e01b815260040160405180910390fd5b604051636670434960e01b81526004810186905260009081906001600160a01b037f00000000000000000000000000000000000000000000000000000000000000001690636670434990602401606060405180830381865afa158015611ccc573d6000803e3d6000fd5b505050506040513d601f19601f82011682018060405250810190611cf091906153af565b9250509150336001600160a01b0316816001600160a01b03161480611d1d57506001600160a01b03821633145b15611d3b576040516303d54cb760e11b815260040160405180910390fd5b600087815260066020908152604091829020825160608101845281546001600160a01b0390811682526001830154169281019290925260020154918101829052903411611d9b576040516386bed4cd60e01b815260040160405180910390fd5b604080516060810182523381526001600160a01b0386811660208084019182523484860190815260008e8152600690925290859020935184549084166001600160a01b03199182161785559151600185018054919094169216919091179091555160029091015581015115611e1c57611e1c816000015182604001516149db565b604051349033908a907f10962e2373847454af3c025d9b77161f5244f4e2a69e3e9ddf4954b2622a868990600090a450506001600055505050505050565b3480600003611e7c5760405163e7195f5160e01b815260040160405180910390fd5b600254600160a01b900460ff1615611ea7576040516313d0ff5960e31b815260040160405180910390fd5b600260005403611ec95760405162461bcd60e51b8152600401610f2a906151b9565b600260009081556040516331a9108f60e11b8152600481018490527f00000000000000000000000000000000000000000000000000000000000000006001600160a01b031690636352211e90602401602060405180830381865afa158015611f35573d6000803e3d6000fd5b505050506040513d601f19601f82011682018060405250810190611f599190615133565b9050336001600160a01b03821603611f845760405163d2e7167f60e01b815260040160405180910390fd5b6000838152600560209081526040808320815160808101835281546001600160a01b03168152600182015481850152600282018054845181870281018701865281815292959394860193830182828015611ffd57602002820191906000526020600020905b815481526020019060010190808311611fe9575b505050505081526020016003820180546120169061517f565b80601f01602080910402602001604051908101604052809291908181526020018280546120429061517f565b801561208f5780601f106120645761010080835404028352916020019161208f565b820191906000526020600020905b81548152906001019060200180831161207257829003601f168201915b5050505050815250509050806020015134116120be576040516386bed4cd60e01b815260040160405180910390fd5b6000806120ca866116e4565b604080516080810182523381523460208083019182528284018681526060840186905260008d81526005835294909420835181546001600160a01b0319166001600160a01b0390911617815591516001830155925180519597509395509093909261213c926002850192910190614c59565b506060820151600382019061215190826152ef565b50505060208301511561217057612170836000015184602001516149db565b6040513490339088907f5bcbf8d6be0293e172be2f32bd63e586fd65b0d15d70c845d393d73f2cfcff1790600090a45050600160005550505050565b6121b46148f3565b600155565b336001600160a01b037f000000000000000000000000000000000000000000000000000000000000000016146122025760405163125e77d360e01b815260040160405180910390fd5b6000818152600360208181526040808420815160c0810183528154815260018201546001600160a01b0390811682860152600283015481168285015294820154909416606085015260048101805483518186028101860190945280845291936080860193929083018282801561229757602002820191906000526020600020905b815481526020019060010190808311612283575b505050505081526020016005820180546122b09061517f565b80601f01602080910402602001604051908101604052809291908181526020018280546122dc9061517f565b80156123295780601f106122fe57610100808354040283529160200191612329565b820191906000526020600020905b81548152906001019060200180831161230c57829003601f168201915b5050509190925250505060208101519091506001600160a01b0316156123a257600082815260036020819052604082208281556001810180546001600160a01b0319908116909155600282018054821690559181018054909216909155906123946004830182614c01565b6115e7600583016000614c1f565b5050565b6005602052600090815260409020805460018201546003830180546001600160a01b039093169391926123d89061517f565b80601f01602080910402602001604051908101604052809291908181526020018280546124049061517f565b80156124515780601f1061242657610100808354040283529160200191612451565b820191906000526020600020905b81548152906001019060200180831161243457829003601f168201915b5050505050905083565b6040516331a9108f60e11b81526004810183905260009081906001600160a01b037f00000000000000000000000000000000000000000000000000000000000000001690636352211e90602401602060405180830381865afa1580156124c5573d6000803e3d6000fd5b505050506040513d601f19601f820116820180604052508101906124e99190615133565b90506000807f00000000000000000000000000000000000000000000000000000000000000006001600160a01b03166304003bd0866040518263ffffffff1660e01b815260040161253c91815260200190565b6040805180830381865afa158015612558573d6000803e3d6000fd5b505050506040513d601f19601f8201168201806040525081019061257c9190615150565b91509150806001600160a01b0316836001600160a01b03161480156125a957506001600160a01b03821633145b93505050505b92915050565b6125bd6148f3565b6125c76000614a68565b565b6002600054036125eb5760405162461bcd60e51b8152600401610f2a906151b9565b60026000818155828152600560209081526040808320815160808101835281546001600160a01b031681526001820154818501529481018054835181860281018601855281815295969592949386019383018282801561266a57602002820191906000526020600020905b815481526020019060010190808311612656575b505050505081526020016003820180546126839061517f565b80601f01602080910402602001604051908101604052809291908181526020018280546126af9061517f565b80156126fc5780601f106126d1576101008083540402835291602001916126fc565b820191906000526020600020905b8154815290600101906020018083116126df57829003601f168201915b5050509190925250508151919250506001600160a01b031633146127335760405163173f0e6f60e21b815260040160405180910390fd5b600082815260056020526040812080546001600160a01b031916815560018101829055906127646002830182614c01565b612772600383016000614c1f565b50506127823382602001516149db565b6020810151604051339084907f42aa62a335199e81c12706e51f762071115ee5df409428ef670b00ee8b7a3d2690600090a450506001600055565b60036020819052600091825260409091208054600182015460028301549383015460058401805493956001600160a01b03938416959084169493909216926128049061517f565b80601f01602080910402602001604051908101604052809291908181526020018280546128309061517f565b801561287d5780601f106128525761010080835404028352916020019161287d565b820191906000526020600020905b81548152906001019060200180831161286057829003601f168201915b5050505050905085565b600254600160a01b900460ff16156128b2576040516313d0ff5960e31b815260040160405180910390fd5b6002600054036128d45760405162461bcd60e51b8152600401610f2a906151b9565b600260009081556040516331a9108f60e11b8152600481018390527f00000000000000000000000000000000000000000000000000000000000000006001600160a01b031690636352211e90602401602060405180830381865afa158015612940573d6000803e3d6000fd5b505050506040513d601f19601f820116820180604052508101906129649190615133565b905061299a60405180604001604052806012815260200171189d5e551c985a5d0e8817dd1c985a5d125960721b8152508461490e565b6129d160405180604001604052806015815260200174189d5e551c985a5d0e8817d99bdc90da1bdb9ad259605a1b8152508361490e565b612a106040518060400160405280601881526020017f62757954726169743a206f776e6572206f662043686f6e6b000000000000000081525082614953565b612a4660405180604001604052806014815260200173313abcaa3930b4ba1d1036b9b39739b2b73232b960611b81525033614953565b6001600160a01b0381163314612a6f57604051633faa6c4560e01b815260040160405180910390fd5b604051639c05d68d60e01b8152600481018390526000907f00000000000000000000000000000000000000000000000000000000000000006001600160a01b031690639c05d68d90602401602060405180830381865afa158015612ad7573d6000803e3d6000fd5b505050506040513d601f19601f82011682018060405250810190612afb9190615133565b6040516331a9108f60e11b8152600481018690529091506000906001600160a01b037f00000000000000000000000000000000000000000000000000000000000000001690636352211e90602401602060405180830381865afa158015612b66573d6000803e3d6000fd5b505050506040513d601f19601f82011682018060405250810190612b8a9190615133565b9050816001600160a01b0316816001600160a01b031603612bbe57604051633617ec7f60e21b815260040160405180910390fd5b60008581526004602081815260409283902083516080810185528154815260018201546001600160a01b03908116938201939093526002820154831681860181905260039092015483166060820152935163e985e9c560e01b8152928301523060248301527f0000000000000000000000000000000000000000000000000000000000000000169063e985e9c590604401602060405180830381865afa158015612c6c573d6000803e3d6000fd5b505050506040513d601f19601f82011682018060405250810190612c909190615116565b612cad57604051631c4f6a7160e11b815260040160405180910390fd5b60208101516001600160a01b038116612cd9576040516374dbff7960e01b815260040160405180910390fd5b336001600160a01b03821603612d0257604051633617ec7f60e21b815260040160405180910390fd5b60608201516001600160a01b031615801590612d2b575060608201516001600160a01b03163314155b15612d495760405163a969b35f60e01b815260040160405180910390fd5b81513414612d6a576040516349986e7360e01b815260040160405180910390fd5b604051636670434960e01b8152600481018890526000907f00000000000000000000000000000000000000000000000000000000000000006001600160a01b031690636670434990602401606060405180830381865afa158015612dd2573d6000803e3d6000fd5b505050506040513d601f19601f82011682018060405250810190612df691906153af565b506040516311543c9960e31b815260048101829052602481018b90529092507f00000000000000000000000000000000000000000000000000000000000000006001600160a01b03169150638aa1e4c890604401602060405180830381865afa158015612e67573d6000803e3d6000fd5b505050506040513d601f19601f82011682018060405250810190612e8b9190615116565b15612ea95760405163b14aa60560e01b815260040160405180910390fd5b6000888152600460209081526040808320838155600180820180546001600160a01b031990811690915560028084018054831690556003909301805490911690556006845293829020825160608101845281546001600160a01b0390811680835296830154169481019490945201549082015290339003612f655760008981526006602052604080822080546001600160a01b03199081168255600182018054909116905560020191909155815190820151612f6591906149db565b60408085015190516323b872dd60e01b81526001600160a01b037f000000000000000000000000000000000000000000000000000000000000000016916323b872dd91612fb991908a908e90600401614eb1565b600060405180830381600087803b158015612fd357600080fd5b505af1158015612fe7573d6000803e3d6000fd5b50505050612ff53484614aa6565b5060405133815234906001600160a01b038816908b907fdd82a5574300be675475ec959b17793802b7965ba449cb5cc84fe68358189b8d9060200160405180910390a45050600160005550505050505050565b6000818152600360205260409020600101546001600160a01b03163314613082576040516332a0bb6960e01b815260040160405180910390fd5b600081815260036020819052604082208281556001810180546001600160a01b0319908116909155600282018054821690559181018054909216909155906130cd6004830182614c01565b6130db600583016000614c1f565b505060405181907ffd1a8c70ee5a4eb250cfc39bfb1fb2d0ee22580a19073441312b5055ef09411490600090a250565b60006127106001548361311e91906153fd565b6125af9190615414565b600254600160a01b900460ff1615613153576040516313d0ff5960e31b815260040160405180910390fd5b80806000036131755760405163e7195f5160e01b815260040160405180910390fd5b604051624003bd60e41b81526004810184905260009081906001600160a01b037f000000000000000000000000000000000000000000000000000000000000000016906304003bd0906024016040805180830381865afa1580156131dd573d6000803e3d6000fd5b505050506040513d601f19601f820116820180604052508101906132019190615150565b9092509050336001600160a01b0383161461322f57604051633faa6c4560e01b815260040160405180910390fd5b60008061323b876116e4565b915091506040518060c00160405280878152602001856001600160a01b03168152602001846001600160a01b0316815260200160006001600160a01b0316815260200183815260200182815250600360008981526020019081526020016000206000820151816000015560208201518160010160006101000a8154816001600160a01b0302191690836001600160a01b0316021790555060408201518160020160006101000a8154816001600160a01b0302191690836001600160a01b0316021790555060608201518160030160006101000a8154816001600160a01b0302191690836001600160a01b031602179055506080820151816004019080519060200190613348929190614c59565b5060a0820151600582019061335d90826152ef565b50506040516001600160a01b03858116825286169150879089907f749104dd5f8de8e4b889d790ea029b6ec8515f14cf73d20604b60e0b649a95df906020015b60405180910390a450505050505050565b600254600160a01b900460ff16156133d9576040516313d0ff5960e31b815260040160405180910390fd5b6002600054036133fb5760405162461bcd60e51b8152600401610f2a906151b9565b6002600081815583815260066020908152604091829020825160608101845281546001600160a01b03908116808352600184015490911693820193909352930154918301919091528061346157604051637ccf97e760e01b815260040160405180910390fd5b336001600160a01b0382160361348a576040516309f6914560e21b815260040160405180910390fd5b826001600160a01b0316816001600160a01b0316146134bc57604051630e5d99a160e41b815260040160405180910390fd5b60008060007f00000000000000000000000000000000000000000000000000000000000000006001600160a01b03166366704349886040518263ffffffff1660e01b815260040161350f91815260200190565b606060405180830381865afa15801561352c573d6000803e3d6000fd5b505050506040513d601f19601f8201168201806040525081019061355091906153af565b919450925090506001600160a01b038116331461358057604051633e79b9f360e01b815260040160405180910390fd5b6040516311543c9960e31b815260048101839052602481018890527f00000000000000000000000000000000000000000000000000000000000000006001600160a01b031690638aa1e4c890604401602060405180830381865afa1580156135ec573d6000803e3d6000fd5b505050506040513d601f19601f820116820180604052508101906136109190615116565b1561362e5760405163b14aa60560e01b815260040160405180910390fd5b6000878152600460209081526040808320838155600180820180546001600160a01b03199081169091556002808401805483169055600390930180548216905560069094528285208054851681559081018054909416909355919091019190915585015161369c9082614aa6565b5060208501516040516323b872dd60e01b81526001600160a01b037f000000000000000000000000000000000000000000000000000000000000000016916323b872dd916136f09187918c90600401614eb1565b600060405180830381600087803b15801561370a57600080fd5b505af115801561371e573d6000803e3d6000fd5b50505060408087015190516001600160a01b0384811682528716925089907fc476c7174eb6bcf722015101bfd2abf9161ab48659b47e55f8b7260b06ebf0119060200160405180910390a4505060016000555050505050565b600254600160a01b900460ff16156137a2576040516313d0ff5960e31b815260040160405180910390fd5b6002600054036137c45760405162461bcd60e51b8152600401610f2a906151b9565b600260009081556040516331a9108f60e11b8152600481018490527f00000000000000000000000000000000000000000000000000000000000000006001600160a01b031690636352211e90602401602060405180830381865afa158015613830573d6000803e3d6000fd5b505050506040513d601f19601f820116820180604052508101906138549190615133565b90506001600160a01b038116331461387f57604051633faa6c4560e01b815260040160405180910390fd5b6000838152600560209081526040808320815160808101835281546001600160a01b031681526001820154818501526002820180548451818702810187018652818152929593948601938301828280156138f857602002820191906000526020600020905b8154815260200190600101908083116138e4575b505050505081526020016003820180546139119061517f565b80601f016020809104026020016040519081016040528092919081815260200182805461393d9061517f565b801561398a5780601f1061395f5761010080835404028352916020019161398a565b820191906000526020600020905b81548152906001019060200180831161396d57829003601f168201915b5050509190925250508151919250506001600160a01b0381166139c057604051637ccf97e760e01b815260040160405180910390fd5b336001600160a01b038216036139e9576040516309f6914560e21b815260040160405180910390fd5b836001600160a01b0316816001600160a01b031614613a1b57604051630e5d99a160e41b815260040160405180910390fd5b6000613a26866116e4565b915050826060015180519060200120818051906020012014613a5b576040516331d1776560e11b815260040160405180910390fd5b600086815260056020526040812080546001600160a01b03191681556001810182905590613a8c6002830182614c01565b613a9a600383016000614c1f565b5050613aaa836020015185614aa6565b506040516323b872dd60e01b81526001600160a01b037f000000000000000000000000000000000000000000000000000000000000000016906323b872dd90613afb90339086908b90600401614eb1565b600060405180830381600087803b158015613b1557600080fd5b505af1158015613b29573d6000803e3d6000fd5b505050506020838101516040516001600160a01b03878116825285169289917f93f583f5df123bec43b0c3403a5d3dae34bc2251a68523f99d3041cb80c6ea38910160405180910390a45050600160005550505050565b600260005403613ba25760405162461bcd60e51b8152600401610f2a906151b9565b6002600081815582815260066020908152604091829020825160608101845281546001600160a01b03908116808352600184015490911693820193909352930154918301919091523314613c095760405163173f0e6f60e21b815260040160405180910390fd5b60008281526006602052604080822080546001600160a01b03199081168255600182018054909116905560020191909155810151613c489033906149db565b6040808201519051339084907f7647025e5547900d10b38a3053f5fcb9037d89294d94600b0bfe4f48c798439690600090a450506001600055565b600254600160a01b900460ff1615613cae576040516313d0ff5960e31b815260040160405180910390fd5b600260005403613cd05760405162461bcd60e51b8152600401610f2a906151b9565b60026000818155828152600360208181526040808420815160c0810183528154815260018201546001600160a01b039081168286015296820154871681840152938101549095166060840152600485018054825181850281018501909352808352949593946080860193830182828015613d6957602002820191906000526020600020905b815481526020019060010190808311613d55575b50505050508152602001600582018054613d829061517f565b80601f0160208091040260200160405190810160405280929190818152602001828054613dae9061517f565b8015613dfb5780601f10613dd057610100808354040283529160200191613dfb565b820191906000526020600020905b815481529060010190602001808311613dde57829003601f168201915b50505091909252505050602081015160405163e985e9c560e01b81526001600160a01b0391821660048201523060248201529192507f0000000000000000000000000000000000000000000000000000000000000000169063e985e9c590604401602060405180830381865afa158015613e79573d6000803e3d6000fd5b505050506040513d601f19601f82011682018060405250810190613e9d9190615116565b613eba576040516361cf5f1360e01b815260040160405180910390fd5b80513414613edb576040516349986e7360e01b815260040160405180910390fd5b60208101516001600160a01b038116613f07576040516374dbff7960e01b815260040160405180910390fd5b336001600160a01b03821603613f305760405163abcb310f60e01b815260040160405180910390fd5b60608201516001600160a01b031615801590613f59575060608201516001600160a01b03163314155b15613f7757604051634b38765560e01b815260040160405180910390fd5b6000613f82846116e4565b9150508260a0015180519060200120818051906020012014613fb7576040516331d1776560e11b815260040160405180910390fd5b600084815260036020819052604082208281556001810180546001600160a01b0319908116909155600282018054821690559181018054909216909155906140026004830182614c01565b614010600583016000614c1f565b50506000848152600560209081526040808320815160808101835281546001600160a01b0316815260018201548185015260028201805484518187028101870186528181529295939486019383018282801561408b57602002820191906000526020600020905b815481526020019060010190808311614077575b505050505081526020016003820180546140a49061517f565b80601f01602080910402602001604051908101604052809291908181526020018280546140d09061517f565b801561411d5780601f106140f25761010080835404028352916020019161411d565b820191906000526020600020905b81548152906001019060200180831161410057829003601f168201915b5050505050815250509050336001600160a01b031681600001516001600160a01b03160361419857600085815260056020526040812080546001600160a01b031916815560018101829055906141766002830182614c01565b614184600383016000614c1f565b5050614198816000015182602001516149db565b60208401516040516323b872dd60e01b81526001600160a01b037f000000000000000000000000000000000000000000000000000000000000000016916323b872dd916141ec919033908a90600401614eb1565b600060405180830381600087803b15801561420657600080fd5b505af115801561421a573d6000803e3d6000fd5b505050506142283484614aa6565b506040513490339087907f98eed0d12a383b8e38b15e6d73daaee78799b09879126cf646202064512cacd990600090a450506001600055505050565b600254600160a01b900460ff161561428f576040516313d0ff5960e31b815260040160405180910390fd5b81806000036142b15760405163e7195f5160e01b815260040160405180910390fd5b6142bb858561245b565b6142d857604051633e79b9f360e01b815260040160405180910390fd5b6040516311543c9960e31b815260048101859052602481018690527f00000000000000000000000000000000000000000000000000000000000000006001600160a01b031690638aa1e4c890604401602060405180830381865afa158015614344573d6000803e3d6000fd5b505050506040513d601f19601f820116820180604052508101906143689190615116565b156143865760405163b14aa60560e01b815260040160405180910390fd5b6040516331a9108f60e11b8152600481018690526000907f00000000000000000000000000000000000000000000000000000000000000006001600160a01b031690636352211e90602401602060405180830381865afa1580156143ee573d6000803e3d6000fd5b505050506040513d601f19601f820116820180604052508101906144129190615133565b604051624003bd60e41b8152600481018790529091506000906001600160a01b037f000000000000000000000000000000000000000000000000000000000000000016906304003bd0906024016040805180830381865afa15801561447b573d6000803e3d6000fd5b505050506040513d601f19601f8201168201806040525081019061449f9190615150565b5090506040518060800160405280868152602001826001600160a01b03168152602001836001600160a01b03168152602001856001600160a01b0316815250600460008981526020019081526020016000206000820151816000015560208201518160010160006101000a8154816001600160a01b0302191690836001600160a01b0316021790555060408201518160020160006101000a8154816001600160a01b0302191690836001600160a01b0316021790555060608201518160030160006101000a8154816001600160a01b0302191690836001600160a01b03160217905550905050806001600160a01b031685887fd81820ebfdde47351b4ac56296bba70e8f57f24195955168a1b5bf6b653e3d3a8560405161339d91906001600160a01b0391909116815260200190565b6145d76148f3565b63389a75e1600c52806000526020600c2080544211156145ff57636f5e88186000526004601cfd5b6000905561124781614a68565b6146146148f3565b8060601b61462a57637448fbae6000526004601cfd5b61124781614a68565b336001600160a01b037f0000000000000000000000000000000000000000000000000000000000000000161461467c5760405163125e77d360e01b815260040160405180910390fd5b6000828152600560209081526040808320815160808101835281546001600160a01b031681526001820154818501526002820180548451818702810187018652818152929593948601938301828280156146f557602002820191906000526020600020905b8154815260200190600101908083116146e1575b5050505050815260200160038201805461470e9061517f565b80601f016020809104026020016040519081016040528092919081815260200182805461473a9061517f565b80156147875780601f1061475c57610100808354040283529160200191614787565b820191906000526020600020905b81548152906001019060200180831161476a57829003601f168201915b5050505050815250509050816001600160a01b031681600001516001600160a01b03160361133c57600083815260056020526040812080546001600160a01b031916815560018101829055906147e06002830182614c01565b6147ee600383016000614c1f565b505061133c816000015182602001516149db565b61480c828261245b565b61482957604051633e79b9f360e01b815260040160405180910390fd5b6000828152600460205260409020600101546001600160a01b03168061486257604051632c8efc6560e21b815260040160405180910390fd5b6001600160a01b038116331461488b576040516332a0bb6960e01b815260040160405180910390fd5b6000838152600460205260408082208281556001810180546001600160a01b0319908116909155600282018054821690556003909101805490911690555184917f7f60b3fe102de994574d1b079da2ec9963d5356a507c520a09189d9af55af1e991a2505050565b638b78c6d8195433146125c7576382b429006000526004601cfd5b6123a28282604051602401614924929190615436565b60408051601f198184030181529190526020810180516001600160e01b03166309710a9d60e41b179052614be0565b6123a28282604051602401614969929190615458565b60408051601f198184030181529190526020810180516001600160e01b031663319af33360e01b179052614be0565b611247816040516024016149ac9190615482565b60408051601f198184030181529190526020810180516001600160e01b031663104c13eb60e21b179052614be0565b6000826001600160a01b03168260405160006040518083038185875af1925050503d8060008114614a28576040519150601f19603f3d011682016040523d82523d6000602084013e614a2d565b606091505b505090508061133c576001600160a01b03831660009081526007602052604081208054849290614a5e908490615495565b9091555050505050565b638b78c6d81980546001600160a01b039092169182907f8be0079c531659141344cd1fd0a4f28419497f9722a3daafe3b4186f6b6457e0600080a355565b600080614ab28461310b565b90506000614ac082866154a8565b6002546040519192506000916001600160a01b039091169084908381818185875af1925050503d8060008114614b12576040519150601f19603f3d011682016040523d82523d6000602084013e614b17565b606091505b5050905080614b50576002546001600160a01b031660009081526007602052604081208054859290614b4a908490615495565b90915550505b6040516001600160a01b038616908390600081818185875af1925050503d8060008114614b99576040519150601f19603f3d011682016040523d82523d6000602084013e614b9e565b606091505b50508094505083614bd7576001600160a01b03851660009081526007602052604081208054849290614bd1908490615495565b90915550505b50505092915050565b80516a636f6e736f6c652e6c6f67602083016000808483855afa5050505050565b50805460008255906000526020600020908101906112479190614ca4565b508054614c2b9061517f565b6000825580601f10614c3b575050565b601f0160209004906000526020600020908101906112479190614ca4565b828054828255906000526020600020908101928215614c94579160200282015b82811115614c94578251825591602001919060010190614c79565b50614ca0929150614ca4565b5090565b5b80821115614ca05760008155600101614ca5565b801515811461124757600080fd5b600060208284031215614cd957600080fd5b8135614ce481614cb9565b9392505050565b600080600060608486031215614d0057600080fd5b505081359360208301359350604090920135919050565b600060208284031215614d2957600080fd5b5035919050565b60008151808452602080850194506020840160005b83811015614d6157815187529582019590820190600101614d45565b509495945050505050565b6000815180845260005b81811015614d9257602081850181015186830182015201614d76565b506000602082860101526020601f19601f83011685010191505092915050565b60018060a01b0385168152836020820152608060408201526000614dd96080830185614d30565b8281036060840152614deb8185614d6c565b979650505050505050565b6001600160a01b038116811461124757600080fd5b600060208284031215614e1d57600080fd5b8135614ce481614df6565b60008060408385031215614e3b57600080fd5b823591506020830135614e4d81614df6565b809150509250929050565b8681526001600160a01b03868116602083015285811660408301528416606082015260c060808201819052600090614e9290830185614d30565b82810360a0840152614ea48185614d6c565b9998505050505050505050565b6001600160a01b039384168152919092166020820152604081019190915260600190565b634e487b7160e01b600052604160045260246000fd5b604051601f8201601f1916810167ffffffffffffffff81118282101715614f1457614f14614ed5565b604052919050565b600067ffffffffffffffff821115614f3657614f36614ed5565b5060051b60200190565b60008060408385031215614f5357600080fd5b8235915060208084013567ffffffffffffffff811115614f7257600080fd5b8401601f81018613614f8357600080fd5b8035614f96614f9182614f1c565b614eeb565b81815260059190911b82018301908381019088831115614fb557600080fd5b928401925b82841015614fdc578335614fcd81614df6565b82529284019290840190614fba565b80955050505050509250929050565b604081526000614ffe6040830185614d30565b82810360208401526150108185614d6c565b95945050505050565b60008060006060848603121561502e57600080fd5b8335925060208401359150604084013561504781614df6565b809150509250925092565b6000806040838503121561506557600080fd5b50508035926020909101359150565b60018060a01b03841681528260208201526060604082015260006150106060830184614d6c565b8581526001600160a01b03858116602083015284811660408301528316606082015260a060808201819052600090614deb90830184614d6c565b600080600080608085870312156150eb57600080fd5b843593506020850135925060408501359150606085013561510b81614df6565b939692955090935050565b60006020828403121561512857600080fd5b8151614ce481614cb9565b60006020828403121561514557600080fd5b8151614ce481614df6565b6000806040838503121561516357600080fd5b825161516e81614df6565b6020840151909250614e4d81614df6565b600181811c9082168061519357607f821691505b6020821081036151b357634e487b7160e01b600052602260045260246000fd5b50919050565b6020808252601f908201527f5265656e7472616e637947756172643a207265656e7472616e742063616c6c00604082015260600190565b634e487b7160e01b600052603260045260246000fd5b6000602080838503121561521957600080fd5b825167ffffffffffffffff81111561523057600080fd5b8301601f8101851361524157600080fd5b805161524f614f9182614f1c565b81815260059190911b8201830190838101908783111561526e57600080fd5b928401925b82841015614deb57835182529284019290840190615273565b602081526000614ce46020830184614d30565b601f82111561133c576000816000526020600020601f850160051c810160208610156152c85750805b601f850160051c820191505b818110156152e7578281556001016152d4565b505050505050565b815167ffffffffffffffff81111561530957615309614ed5565b61531d81615317845461517f565b8461529f565b602080601f831160018114615352576000841561533a5750858301515b600019600386901b1c1916600185901b1785556152e7565b600085815260208120601f198616915b8281101561538157888601518255948401946001909101908401615362565b508582101561539f5787850151600019600388901b60f8161c191681555b5050505050600190811b01905550565b6000806000606084860312156153c457600080fd5b83516153cf81614df6565b60208501516040860151919450925061504781614df6565b634e487b7160e01b600052601160045260246000fd5b80820281158282048414176125af576125af6153e7565b60008261543157634e487b7160e01b600052601260045260246000fd5b500490565b6040815260006154496040830185614d6c565b90508260208301529392505050565b60408152600061546b6040830185614d6c565b905060018060a01b03831660208301529392505050565b602081526000614ce46020830184614d6c565b808201808211156125af576125af6153e7565b818103818111156125af576125af6153e756fe43686f6e6b734d61726b65742064656c65746554726169744f66666572734265666f7265546f6b656e5472616e7366657220656e6443686f6e6b734d61726b65742072656d6f766543686f6e6b4f666665724f6e54726169745472616e736665722063616c6c656420666f722063686f6e6b2049443a43686f6e6b734d61726b65742064656c65746554726169744f66666572734265666f7265546f6b656e5472616e736665722063616c6c656420666f722074726169742049443aa2646970667358221220f88e101fbc021b228b251fc3f182ee4bfcaee0c45cb9e05ef7a55f41cecaee7764736f6c6343000816003343686f6e6b734d61726b657420636f6e7374727563746f722063616c6c65642c206d73672e73656e6465723a","linkReferences":{}},"methodIdentifiers":{"PETERS_MAIN()":"c51ac41b","PETER_TRAITS()":"8b78b13b","acceptBidForChonk(uint256,address)":"cca59759","acceptBidForTrait(uint256,address)":"b5baf476","bidOnChonk(uint256)":"5793b22e","bidOnTrait(uint256,uint256)":"571ccb74","buyChonk(uint256)":"ebd34a88","buyTrait(uint256,uint256)":"917e3a7c","calculateRoyalty(uint256)":"a2e69613","cancelOfferChonk(uint256)":"9f24c945","cancelOfferTrait(uint256,uint256)":"f827d632","cancelOwnershipHandover()":"54d1f13d","chonkBids(uint256)":"65318c86","chonkIdToApprovedOperators(uint256,uint256)":"55737f35","chonkOffers(uint256)":"8b322383","completeOwnershipHandover(address)":"f04e283e","deleteChonkBidsBeforeTokenTransfer(uint256,address)":"f495f5a8","deleteChonkOfferBeforeTokenTransfer(uint256)":"644ec527","deleteTraitBidsBeforeTokenTransfer(uint256,address)":"2fbe78f0","deleteTraitBidsBeforeTokenTransfer(uint256,address[])":"4666a416","deleteTraitOffersBeforeTokenTransfer(uint256)":"2e1d274f","ensureTraitOwner(uint256,uint256)":"710b2719","getChonkBid(uint256)":"0cbd0922","getChonkOffer(uint256)":"36442e30","getTraitBid(uint256)":"3ce0c372","getTraitIdsAndEncodingForChonk(uint256)":"472729bb","getTraitOffer(uint256)":"f0988214","offerChonk(uint256,uint256)":"a4cc8324","offerChonkToAddress(uint256,uint256,address)":"4fc9923e","offerTrait(uint256,uint256,uint256)":"0b114256","offerTraitToAddress(uint256,uint256,uint256,address)":"ed89f704","owner()":"8da5cb5b","ownershipHandoverExpiresAt(address)":"fee81cf4","pausabilityRevoked()":"b1f3694e","pause(bool)":"02329a29","paused()":"5c975abb","removeChonkOfferOnTraitTransfer(uint256)":"46c627fe","renounceOwnership()":"715018a6","requestOwnershipHandover()":"25692962","revokePausability()":"361f1c52","royaltyPercentage()":"8a71bb2d","setRoyaltyPercentage(uint256)":"61ba27da","setTeamWallet(address)":"1525ff7d","teamWallet()":"59927044","traitBids(uint256)":"7dbc8619","traitOffers(uint256)":"4f6088cd","transferOwnership(address)":"f2fde38b","withdrawBidOnChonk(uint256)":"795aded3","withdrawBidOnTrait(uint256)":"cecea401","withdrawFunds()":"24600fc3","withdrawableFunds(address)":"2f30cabd"},"id":39}